{
  "_format": "hh-sol-artifact-1",
  "contractName": "HarvestTask",
  "sourceName": "contracts/HarvestTask.sol",
  "abi": [
    {
      "inputs": [
        {
          "internalType": "address payable",
          "name": "_ops",
          "type": "address"
        }
      ],
      "stateMutability": "nonpayable",
      "type": "constructor"
    },
    {
      "inputs": [],
      "name": "ETH",
      "outputs": [
        {
          "internalType": "address",
          "name": "",
          "type": "address"
        }
      ],
      "stateMutability": "view",
      "type": "function"
    },
    {
      "inputs": [],
      "name": "count",
      "outputs": [
        {
          "internalType": "uint256",
          "name": "",
          "type": "uint256"
        }
      ],
      "stateMutability": "view",
      "type": "function"
    },
    {
      "inputs": [
        {
          "internalType": "uint256",
          "name": "amount",
          "type": "uint256"
        }
      ],
      "name": "depositYeildToVaultContract",
      "outputs": [],
      "stateMutability": "nonpayable",
      "type": "function"
    },
    {
      "inputs": [],
      "name": "executable",
      "outputs": [
        {
          "internalType": "bool",
          "name": "",
          "type": "bool"
        }
      ],
      "stateMutability": "view",
      "type": "function"
    },
    {
      "inputs": [],
      "name": "gelato",
      "outputs": [
        {
          "internalType": "address",
          "name": "",
          "type": "address"
        }
      ],
      "stateMutability": "view",
      "type": "function"
    },
    {
      "inputs": [],
      "name": "ops",
      "outputs": [
        {
          "internalType": "address",
          "name": "",
          "type": "address"
        }
      ],
      "stateMutability": "view",
      "type": "function"
    },
    {
      "inputs": [
        {
          "internalType": "bool",
          "name": "_executable",
          "type": "bool"
        }
      ],
      "name": "setExecutable",
      "outputs": [],
      "stateMutability": "nonpayable",
      "type": "function"
    }
  ],
  "bytecode": "0x60a060405234801561001057600080fd5b50604051610ad3380380610ad3833981810160405281019061003291906101a2565b806100657f15fb7712ceb4fab17ff1c74986761d00a12ed9f10431fd171ed080ce12df849d60001b61013960201b60201c565b6100977fda19c262ce8e01e7b68cee9e4753a24d1eb14487f568295d758aae1de5211cdd60001b61013960201b60201c565b6100c97fffb6c4050f3a98b59b82dc6794728d4170246be1264f32955ae36570911272d860001b61013960201b60201c565b8073ffffffffffffffffffffffffffffffffffffffff1660808173ffffffffffffffffffffffffffffffffffffffff1660601b81525050506101337fe50b178fa5568914d7b484901fa8356c2d9df0d651c17715de5d49270195060360001b61013c60201b60201c565b506101cf565b50565b50565b600080fd5b600073ffffffffffffffffffffffffffffffffffffffff82169050919050565b600061016f82610144565b9050919050565b61017f81610164565b811461018a57600080fd5b50565b60008151905061019c81610176565b92915050565b6000602082840312156101b8576101b761013f565b5b60006101c68482850161018d565b91505092915050565b60805160601c6108df6101f46000396000818161021b015261057001526108df6000f3fe608060405234801561001057600080fd5b506004361061007d5760003560e01c8063573ea5751161005b578063573ea575146100da5780638322fff2146100f8578063bfdd1c8914610116578063e70abe92146101325761007d565b806306661abd1461008257806316131a18146100a05780633953440d146100be575b600080fd5b61008a610150565b60405161009791906105b1565b60405180910390f35b6100a8610156565b6040516100b591906105e7565b60405180910390f35b6100d860048036038101906100d39190610633565b610169565b005b6100e261049d565b6040516100ef91906106a1565b60405180910390f35b6101006104b5565b60405161010d91906106a1565b60405180910390f35b610130600480360381019061012b91906106e8565b6104cd565b005b61013a61056e565b60405161014791906106a1565b60405180910390f35b60005481565b600160009054906101000a900460ff1681565b6101957fbd55208321b936849da9e99e91399df134dfc1974224c85f9422fa7a356195c560001b610592565b6101c17f7327ea5a2c5bdd9c2ee2bd8760da37d7b3f1a55fc0f3357baca4ef2d633c606f60001b610592565b6101ed7fccbc3e38b6828cfab2f3e0f9db956319f3afaf35387ce18cb3648af4aef1646660001b610592565b6102197f604f2e06cfd2f724eb84959c1e5f106ab93c58606897823b44e0b328d7148aca60001b610592565b7f000000000000000000000000000000000000000000000000000000000000000073ffffffffffffffffffffffffffffffffffffffff163373ffffffffffffffffffffffffffffffffffffffff16146102a7576040517f08c379a000000000000000000000000000000000000000000000000000000000815260040161029e90610772565b60405180910390fd5b6102d37fabdb4a78d888bb74c4dddc3d26288ccf4ede6662bff422a81254d18c1f27c85760001b610592565b6102ff7fce69322b5d160ca5cc81d9310798b5913f12bfbd60c0b5192014fdcff3fe139660001b610592565b61032b7f5cb44e3bb79253cda7189ce333bc11f4c3904eeec8b24b639de5763e6a06913160001b610595565b6103577f4b5417ba9ab55384e48cefedab18fca3dcc5a31378d7d0a3c0d68e06c7f39fa560001b610595565b6103837f9e6ef3c66eabbf481d52041955721f79c0e9440b592cd181ca1695e7e31c531c60001b610595565b6103af7fb7807c7598760a03607014408993914081876387cbd3ae0b0586fdd8ce777af560001b610595565b600160009054906101000a900460ff166103fe576040517f08c379a00000000000000000000000000000000000000000000000000000000081526004016103f590610804565b60405180910390fd5b61042a7fafb03bc1193c26daacf3122cf9f61913e0ebdbaaf5385a7da2993cd6e196d3c760001b610595565b6104567f663eaa176c2693ed4541a00bd66d3accf81e2f8d73c53d8df8b7eedff495dcae60001b610595565b6104827fef90639501cab5e8cfa31f68eebc2ac57a31100dbc85849284927c2083aa0b8060001b610595565b806000808282546104939190610853565b9250508190555050565b73683913b3a32ada4f8100458a3e1675425bdaa7df81565b73eeeeeeeeeeeeeeeeeeeeeeeeeeeeeeeeeeeeeeee81565b6104f97feeb8ef46a9bbe2d48c151cfe2868bbd59f71697e40e90517fb2d38c06d4870cc60001b610595565b6105257fc5e8a645d498820f7c24f94933e9a5fb9e26ef66e47ca7d06724204d3f03b9ec60001b610595565b6105517f77e8a4880afbf7e7cdcefe6e1773838ab2212c7ffe224f612a0881a93ed3e11960001b610595565b80600160006101000a81548160ff02191690831515021790555050565b7f000000000000000000000000000000000000000000000000000000000000000081565b50565b50565b6000819050919050565b6105ab81610598565b82525050565b60006020820190506105c660008301846105a2565b92915050565b60008115159050919050565b6105e1816105cc565b82525050565b60006020820190506105fc60008301846105d8565b92915050565b600080fd5b61061081610598565b811461061b57600080fd5b50565b60008135905061062d81610607565b92915050565b60006020828403121561064957610648610602565b5b60006106578482850161061e565b91505092915050565b600073ffffffffffffffffffffffffffffffffffffffff82169050919050565b600061068b82610660565b9050919050565b61069b81610680565b82525050565b60006020820190506106b66000830184610692565b92915050565b6106c5816105cc565b81146106d057600080fd5b50565b6000813590506106e2816106bc565b92915050565b6000602082840312156106fe576106fd610602565b5b600061070c848285016106d3565b91505092915050565b600082825260208201905092915050565b7f4f707352656164793a206f6e6c794f7073000000000000000000000000000000600082015250565b600061075c601183610715565b915061076782610726565b602082019050919050565b6000602082019050818103600083015261078b8161074f565b9050919050565b7f48617276656573745461736b3a206465706f7369745965696c64546f5661756c60008201527f74436f6e74726163743a204e6f742065786563757461626c6500000000000000602082015250565b60006107ee603983610715565b91506107f982610792565b604082019050919050565b6000602082019050818103600083015261081d816107e1565b9050919050565b7f4e487b7100000000000000000000000000000000000000000000000000000000600052601160045260246000fd5b600061085e82610598565b915061086983610598565b9250827fffffffffffffffffffffffffffffffffffffffffffffffffffffffffffffffff0382111561089e5761089d610824565b5b82820190509291505056fea2646970667358221220e8eebf71ed07c008259c6e4a2d7be4bc6f4a3836e8feec673a9c793d3bbd6f9c64736f6c63430008080033",
  "linkReferences": {},
  "deployedLinkReferences": {}
}