{
  "_format": "hh-sol-artifact-1",
  "contractName": "Squiddy",
  "sourceName": "contracts/Squid.sol",
  "abi": [
    {
      "inputs": [
        {
          "internalType": "address",
          "name": "_rewards",
          "type": "address"
        }
      ],
      "stateMutability": "nonpayable",
      "type": "constructor"
    },
    {
      "inputs": [
        {
          "internalType": "address",
          "name": "_token",
          "type": "address"
        },
        {
          "internalType": "address",
          "name": "_strategy",
          "type": "address"
        }
      ],
      "name": "approveStrategy",
      "outputs": [],
      "stateMutability": "nonpayable",
      "type": "function"
    },
    {
      "inputs": [
        {
          "internalType": "address",
          "name": "",
          "type": "address"
        },
        {
          "internalType": "address",
          "name": "",
          "type": "address"
        }
      ],
      "name": "approvedStrategies",
      "outputs": [
        {
          "internalType": "bool",
          "name": "",
          "type": "bool"
        }
      ],
      "stateMutability": "view",
      "type": "function"
    },
    {
      "inputs": [
        {
          "internalType": "address",
          "name": "_token",
          "type": "address"
        }
      ],
      "name": "balanceOf",
      "outputs": [
        {
          "internalType": "uint256",
          "name": "",
          "type": "uint256"
        }
      ],
      "stateMutability": "view",
      "type": "function"
    },
    {
      "inputs": [
        {
          "internalType": "address",
          "name": "_strategy",
          "type": "address"
        },
        {
          "internalType": "address",
          "name": "_token",
          "type": "address"
        },
        {
          "internalType": "uint256",
          "name": "parts",
          "type": "uint256"
        }
      ],
      "name": "conStratHelper",
      "outputs": [],
      "stateMutability": "nonpayable",
      "type": "function"
    },
    {
      "inputs": [
        {
          "internalType": "address",
          "name": "",
          "type": "address"
        },
        {
          "internalType": "address",
          "name": "",
          "type": "address"
        }
      ],
      "name": "converters",
      "outputs": [
        {
          "internalType": "address",
          "name": "",
          "type": "address"
        }
      ],
      "stateMutability": "view",
      "type": "function"
    },
    {
      "inputs": [
        {
          "internalType": "address",
          "name": "_token",
          "type": "address"
        },
        {
          "internalType": "uint256",
          "name": "_amount",
          "type": "uint256"
        }
      ],
      "name": "earn",
      "outputs": [],
      "stateMutability": "nonpayable",
      "type": "function"
    },
    {
      "inputs": [
        {
          "internalType": "address",
          "name": "_strategy",
          "type": "address"
        },
        {
          "internalType": "address",
          "name": "_token",
          "type": "address"
        },
        {
          "internalType": "uint256",
          "name": "parts",
          "type": "uint256"
        }
      ],
      "name": "getExpectedReturn",
      "outputs": [
        {
          "internalType": "uint256",
          "name": "expected",
          "type": "uint256"
        }
      ],
      "stateMutability": "view",
      "type": "function"
    },
    {
      "inputs": [
        {
          "internalType": "address",
          "name": "_strategy",
          "type": "address"
        },
        {
          "internalType": "address",
          "name": "_token",
          "type": "address"
        }
      ],
      "name": "inCaseStrategyTokenGetStuck",
      "outputs": [],
      "stateMutability": "nonpayable",
      "type": "function"
    },
    {
      "inputs": [
        {
          "internalType": "address",
          "name": "_token",
          "type": "address"
        },
        {
          "internalType": "uint256",
          "name": "_amount",
          "type": "uint256"
        }
      ],
      "name": "inCaseTokensGetStuck",
      "outputs": [],
      "stateMutability": "nonpayable",
      "type": "function"
    },
    {
      "inputs": [],
      "name": "max",
      "outputs": [
        {
          "internalType": "uint256",
          "name": "",
          "type": "uint256"
        }
      ],
      "stateMutability": "view",
      "type": "function"
    },
    {
      "inputs": [],
      "name": "onesplit",
      "outputs": [
        {
          "internalType": "address",
          "name": "",
          "type": "address"
        }
      ],
      "stateMutability": "view",
      "type": "function"
    },
    {
      "inputs": [
        {
          "internalType": "address",
          "name": "_token",
          "type": "address"
        },
        {
          "internalType": "address",
          "name": "_strategy",
          "type": "address"
        }
      ],
      "name": "revokeStrategy",
      "outputs": [],
      "stateMutability": "nonpayable",
      "type": "function"
    },
    {
      "inputs": [],
      "name": "rewards",
      "outputs": [
        {
          "internalType": "address",
          "name": "",
          "type": "address"
        }
      ],
      "stateMutability": "view",
      "type": "function"
    },
    {
      "inputs": [
        {
          "internalType": "address",
          "name": "_input",
          "type": "address"
        },
        {
          "internalType": "address",
          "name": "_output",
          "type": "address"
        },
        {
          "internalType": "address",
          "name": "_converter",
          "type": "address"
        }
      ],
      "name": "setConverter",
      "outputs": [],
      "stateMutability": "nonpayable",
      "type": "function"
    },
    {
      "inputs": [
        {
          "internalType": "address",
          "name": "_onesplit",
          "type": "address"
        }
      ],
      "name": "setOneSplit",
      "outputs": [],
      "stateMutability": "nonpayable",
      "type": "function"
    },
    {
      "inputs": [
        {
          "internalType": "address",
          "name": "_rewards",
          "type": "address"
        }
      ],
      "name": "setRewards",
      "outputs": [],
      "stateMutability": "nonpayable",
      "type": "function"
    },
    {
      "inputs": [
        {
          "internalType": "uint256",
          "name": "_split",
          "type": "uint256"
        }
      ],
      "name": "setSplit",
      "outputs": [],
      "stateMutability": "nonpayable",
      "type": "function"
    },
    {
      "inputs": [
        {
          "internalType": "address",
          "name": "_token",
          "type": "address"
        },
        {
          "internalType": "address",
          "name": "_strategy",
          "type": "address"
        }
      ],
      "name": "setStrategy",
      "outputs": [],
      "stateMutability": "nonpayable",
      "type": "function"
    },
    {
      "inputs": [
        {
          "internalType": "address",
          "name": "_token",
          "type": "address"
        },
        {
          "internalType": "address",
          "name": "_vault",
          "type": "address"
        }
      ],
      "name": "setVault",
      "outputs": [],
      "stateMutability": "nonpayable",
      "type": "function"
    },
    {
      "inputs": [],
      "name": "split",
      "outputs": [
        {
          "internalType": "uint256",
          "name": "",
          "type": "uint256"
        }
      ],
      "stateMutability": "view",
      "type": "function"
    },
    {
      "inputs": [
        {
          "internalType": "address",
          "name": "",
          "type": "address"
        }
      ],
      "name": "strategies",
      "outputs": [
        {
          "internalType": "address",
          "name": "",
          "type": "address"
        }
      ],
      "stateMutability": "view",
      "type": "function"
    },
    {
      "inputs": [],
      "name": "vaultManager",
      "outputs": [
        {
          "internalType": "address",
          "name": "",
          "type": "address"
        }
      ],
      "stateMutability": "view",
      "type": "function"
    },
    {
      "inputs": [
        {
          "internalType": "address",
          "name": "",
          "type": "address"
        }
      ],
      "name": "vaults",
      "outputs": [
        {
          "internalType": "address",
          "name": "",
          "type": "address"
        }
      ],
      "stateMutability": "view",
      "type": "function"
    },
    {
      "inputs": [
        {
          "internalType": "address",
          "name": "_token",
          "type": "address"
        },
        {
          "internalType": "uint256",
          "name": "_amount",
          "type": "uint256"
        }
      ],
      "name": "withdraw",
      "outputs": [],
      "stateMutability": "nonpayable",
      "type": "function"
    },
    {
      "inputs": [
        {
          "internalType": "address",
          "name": "_token",
          "type": "address"
        }
      ],
      "name": "withdrawAll",
      "outputs": [],
      "stateMutability": "nonpayable",
      "type": "function"
    }
  ],
  "bytecode": "0x60806040526101f46007553480156200001757600080fd5b50604051620030d6380380620030d683398181016040528101906200003d919062000184565b336000806101000a81548173ffffffffffffffffffffffffffffffffffffffff021916908373ffffffffffffffffffffffffffffffffffffffff1602179055507350fda034c0ce7a8f7efdaebda7aa7ca21cc1267e600160006101000a81548173ffffffffffffffffffffffffffffffffffffffff021916908373ffffffffffffffffffffffffffffffffffffffff16021790555080600260006101000a81548173ffffffffffffffffffffffffffffffffffffffff021916908373ffffffffffffffffffffffffffffffffffffffff16021790555050620001b6565b600080fd5b600073ffffffffffffffffffffffffffffffffffffffff82169050919050565b60006200014c826200011f565b9050919050565b6200015e816200013f565b81146200016a57600080fd5b50565b6000815190506200017e8162000153565b92915050565b6000602082840312156200019d576200019c6200011a565b5b6000620001ad848285016200016d565b91505092915050565b612f1080620001c66000396000f3fe608060405234801561001057600080fd5b50600436106101735760003560e01c80639ec5a894116100de578063ccd0631811610097578063f3fef3a311610071578063f3fef3a314610442578063f712adbb1461045e578063f76541761461047c578063fa09e6301461049a57610173565b8063ccd06318146103da578063e4f2494d146103f6578063ec38a8621461042657610173565b80639ec5a89414610308578063a1578b6a14610326578063a622ee7c14610356578063b02bf4b914610386578063c494448e146103a2578063c6d758cb146103be57610173565b80636dcd64e5116101305780636dcd64e51461023657806370a0823114610266578063714ccf7b1461029657806372cb5d97146102b25780638a4adf24146102ce5780638da1df4d146102ec57610173565b80630ca492f014610178578063197baa6d1461019457806339ebf823146101b0578063590bbb60146101e0578063674e694f146101fc5780636ac5db1914610218575b600080fd5b610192600480360381019061018d9190612550565b6104b6565b005b6101ae60048036038101906101a991906125a3565b610c60565b005b6101ca60048036038101906101c591906125e3565b610d5d565b6040516101d7919061261f565b60405180910390f35b6101fa60048036038101906101f591906125a3565b610d90565b005b6102166004803603810190610211919061263a565b610eb7565b005b610220610f4f565b60405161022d9190612676565b60405180910390f35b610250600480360381019061024b9190612550565b610f55565b60405161025d9190612676565b60405180910390f35b610280600480360381019061027b91906125e3565b61112c565b60405161028d9190612676565b60405180910390f35b6102b060048036038101906102ab91906125a3565b611212565b005b6102cc60048036038101906102c791906125a3565b6113f0565b005b6102d66116eb565b6040516102e3919061261f565b60405180910390f35b610306600480360381019061030191906125e3565b61170f565b005b6103106117e1565b60405161031d919061261f565b60405180910390f35b610340600480360381019061033b91906125a3565b611807565b60405161034d91906126ac565b60405180910390f35b610370600480360381019061036b91906125e3565b611836565b60405161037d919061261f565b60405180910390f35b6103a0600480360381019061039b91906126c7565b611869565b005b6103bc60048036038101906103b791906125a3565b611cc7565b005b6103d860048036038101906103d391906126c7565b611dee565b005b6103f460048036038101906103ef9190612707565b611f0e565b005b610410600480360381019061040b91906125a3565b61205c565b60405161041d919061261f565b60405180910390f35b610440600480360381019061043b91906125e3565b61209e565b005b61045c600480360381019061045791906126c7565b612170565b005b61046661230b565b604051610473919061261f565b60405180910390f35b610484612331565b6040516104919190612676565b60405180910390f35b6104b460048036038101906104af91906125e3565b612337565b005b60008054906101000a900473ffffffffffffffffffffffffffffffffffffffff1673ffffffffffffffffffffffffffffffffffffffff163373ffffffffffffffffffffffffffffffffffffffff1614610544576040517f08c379a000000000000000000000000000000000000000000000000000000000815260040161053b906127b7565b60405180910390fd5b60008273ffffffffffffffffffffffffffffffffffffffff166370a08231306040518263ffffffff1660e01b815260040161057f919061261f565b60206040518083038186803b15801561059757600080fd5b505afa1580156105ab573d6000803e3d6000fd5b505050506040513d601f19601f820116820180604052508101906105cf91906127ec565b90508373ffffffffffffffffffffffffffffffffffffffff166351cff8d9846040518263ffffffff1660e01b815260040161060a919061261f565b600060405180830381600087803b15801561062457600080fd5b505af1158015610638573d6000803e3d6000fd5b5050505060008373ffffffffffffffffffffffffffffffffffffffff166370a08231306040518263ffffffff1660e01b8152600401610677919061261f565b60206040518083038186803b15801561068f57600080fd5b505afa1580156106a3573d6000803e3d6000fd5b505050506040513d601f19601f820116820180604052508101906106c791906127ec565b905081811115610c5957600082826106df9190612848565b905060008673ffffffffffffffffffffffffffffffffffffffff16631f1fcd516040518163ffffffff1660e01b815260040160206040518083038186803b15801561072957600080fd5b505afa15801561073d573d6000803e3d6000fd5b505050506040513d601f19601f820116820180604052508101906107619190612891565b9050606060008273ffffffffffffffffffffffffffffffffffffffff166370a08231306040518263ffffffff1660e01b81526004016107a0919061261f565b60206040518083038186803b1580156107b857600080fd5b505afa1580156107cc573d6000803e3d6000fd5b505050506040513d601f19601f820116820180604052508101906107f091906127ec565b95508773ffffffffffffffffffffffffffffffffffffffff1663095ea7b3600160009054906101000a900473ffffffffffffffffffffffffffffffffffffffff1660006040518363ffffffff1660e01b8152600401610850929190612903565b602060405180830381600087803b15801561086a57600080fd5b505af115801561087e573d6000803e3d6000fd5b505050506040513d601f19601f820116820180604052508101906108a29190612958565b508773ffffffffffffffffffffffffffffffffffffffff1663095ea7b3600160009054906101000a900473ffffffffffffffffffffffffffffffffffffffff16866040518363ffffffff1660e01b8152600401610900929190612985565b602060405180830381600087803b15801561091a57600080fd5b505af115801561092e573d6000803e3d6000fd5b505050506040513d601f19601f820116820180604052508101906109529190612958565b50600160009054906101000a900473ffffffffffffffffffffffffffffffffffffffff1673ffffffffffffffffffffffffffffffffffffffff1663085e2c5b8985878b60006040518663ffffffff1660e01b81526004016109b79594939291906129ae565b60006040518083038186803b1580156109cf57600080fd5b505afa1580156109e3573d6000803e3d6000fd5b505050506040513d6000823e3d601f19601f82011682018060405250810190610a0c9190612b5a565b8093508192505050600160009054906101000a900473ffffffffffffffffffffffffffffffffffffffff1673ffffffffffffffffffffffffffffffffffffffff1663e2a7515e898587858760006040518763ffffffff1660e01b8152600401610a7a96959493929190612c74565b602060405180830381600087803b158015610a9457600080fd5b505af1158015610aa8573d6000803e3d6000fd5b505050506040513d601f19601f82011682018060405250810190610acc91906127ec565b508273ffffffffffffffffffffffffffffffffffffffff166370a08231306040518263ffffffff1660e01b8152600401610b06919061261f565b60206040518083038186803b158015610b1e57600080fd5b505afa158015610b32573d6000803e3d6000fd5b505050506040513d601f19601f82011682018060405250810190610b5691906127ec565b945085851115610c54578585610b6c9190612848565b9350600061271060075486610b819190612cdc565b610b8b9190612d65565b9050610ba2848287610b9d9190612848565b611869565b8373ffffffffffffffffffffffffffffffffffffffff1663a9059cbb600260009054906101000a900473ffffffffffffffffffffffffffffffffffffffff16836040518363ffffffff1660e01b8152600401610bff929190612985565b602060405180830381600087803b158015610c1957600080fd5b505af1158015610c2d573d6000803e3d6000fd5b505050506040513d601f19601f82011682018060405250810190610c519190612958565b50505b505050505b5050505050565b60008054906101000a900473ffffffffffffffffffffffffffffffffffffffff1673ffffffffffffffffffffffffffffffffffffffff163373ffffffffffffffffffffffffffffffffffffffff1614610cee576040517f08c379a0000000000000000000000000000000000000000000000000000000008152600401610ce5906127b7565b60405180910390fd5b8173ffffffffffffffffffffffffffffffffffffffff166351cff8d9826040518263ffffffff1660e01b8152600401610d27919061261f565b600060405180830381600087803b158015610d4157600080fd5b505af1158015610d55573d6000803e3d6000fd5b505050505050565b60046020528060005260406000206000915054906101000a900473ffffffffffffffffffffffffffffffffffffffff1681565b60008054906101000a900473ffffffffffffffffffffffffffffffffffffffff1673ffffffffffffffffffffffffffffffffffffffff163373ffffffffffffffffffffffffffffffffffffffff1614610e1e576040517f08c379a0000000000000000000000000000000000000000000000000000000008152600401610e15906127b7565b60405180910390fd5b6000600660008473ffffffffffffffffffffffffffffffffffffffff1673ffffffffffffffffffffffffffffffffffffffff16815260200190815260200160002060008373ffffffffffffffffffffffffffffffffffffffff1673ffffffffffffffffffffffffffffffffffffffff16815260200190815260200160002060006101000a81548160ff0219169083151502179055505050565b60008054906101000a900473ffffffffffffffffffffffffffffffffffffffff1673ffffffffffffffffffffffffffffffffffffffff163373ffffffffffffffffffffffffffffffffffffffff1614610f45576040517f08c379a0000000000000000000000000000000000000000000000000000000008152600401610f3c906127b7565b60405180910390fd5b8060078190555050565b61271081565b6000808373ffffffffffffffffffffffffffffffffffffffff166370a08231866040518263ffffffff1660e01b8152600401610f91919061261f565b60206040518083038186803b158015610fa957600080fd5b505afa158015610fbd573d6000803e3d6000fd5b505050506040513d601f19601f82011682018060405250810190610fe191906127ec565b905060008573ffffffffffffffffffffffffffffffffffffffff16631f1fcd516040518163ffffffff1660e01b815260040160206040518083038186803b15801561102b57600080fd5b505afa15801561103f573d6000803e3d6000fd5b505050506040513d601f19601f820116820180604052508101906110639190612891565b9050600160009054906101000a900473ffffffffffffffffffffffffffffffffffffffff1673ffffffffffffffffffffffffffffffffffffffff1663085e2c5b8683858860006040518663ffffffff1660e01b81526004016110c99594939291906129ae565b60006040518083038186803b1580156110e157600080fd5b505afa1580156110f5573d6000803e3d6000fd5b505050506040513d6000823e3d601f19601f8201168201806040525081019061111e9190612b5a565b508093505050509392505050565b6000600460008373ffffffffffffffffffffffffffffffffffffffff1673ffffffffffffffffffffffffffffffffffffffff16815260200190815260200160002060009054906101000a900473ffffffffffffffffffffffffffffffffffffffff1673ffffffffffffffffffffffffffffffffffffffff1663722713f76040518163ffffffff1660e01b815260040160206040518083038186803b1580156111d357600080fd5b505afa1580156111e7573d6000803e3d6000fd5b505050506040513d601f19601f8201168201806040525081019061120b91906127ec565b9050919050565b60008054906101000a900473ffffffffffffffffffffffffffffffffffffffff1673ffffffffffffffffffffffffffffffffffffffff163373ffffffffffffffffffffffffffffffffffffffff16146112a0576040517f08c379a0000000000000000000000000000000000000000000000000000000008152600401611297906127b7565b60405180910390fd5b600073ffffffffffffffffffffffffffffffffffffffff16600360008473ffffffffffffffffffffffffffffffffffffffff1673ffffffffffffffffffffffffffffffffffffffff16815260200190815260200160002060009054906101000a900473ffffffffffffffffffffffffffffffffffffffff1673ffffffffffffffffffffffffffffffffffffffff161461136e576040517f08c379a000000000000000000000000000000000000000000000000000000000815260040161136590612de2565b60405180910390fd5b80600360008473ffffffffffffffffffffffffffffffffffffffff1673ffffffffffffffffffffffffffffffffffffffff16815260200190815260200160002060006101000a81548173ffffffffffffffffffffffffffffffffffffffff021916908373ffffffffffffffffffffffffffffffffffffffff1602179055505050565b60008054906101000a900473ffffffffffffffffffffffffffffffffffffffff1673ffffffffffffffffffffffffffffffffffffffff163373ffffffffffffffffffffffffffffffffffffffff161461147e576040517f08c379a0000000000000000000000000000000000000000000000000000000008152600401611475906127b7565b60405180910390fd5b60011515600660008473ffffffffffffffffffffffffffffffffffffffff1673ffffffffffffffffffffffffffffffffffffffff16815260200190815260200160002060008373ffffffffffffffffffffffffffffffffffffffff1673ffffffffffffffffffffffffffffffffffffffff16815260200190815260200160002060009054906101000a900460ff1615151461154e576040517f08c379a000000000000000000000000000000000000000000000000000000000815260040161154590612e4e565b60405180910390fd5b6000600460008473ffffffffffffffffffffffffffffffffffffffff1673ffffffffffffffffffffffffffffffffffffffff16815260200190815260200160002060009054906101000a900473ffffffffffffffffffffffffffffffffffffffff169050600073ffffffffffffffffffffffffffffffffffffffff168173ffffffffffffffffffffffffffffffffffffffff1614611668578073ffffffffffffffffffffffffffffffffffffffff1663853828b66040518163ffffffff1660e01b8152600401602060405180830381600087803b15801561162e57600080fd5b505af1158015611642573d6000803e3d6000fd5b505050506040513d601f19601f8201168201806040525081019061166691906127ec565b505b81600460008573ffffffffffffffffffffffffffffffffffffffff1673ffffffffffffffffffffffffffffffffffffffff16815260200190815260200160002060006101000a81548173ffffffffffffffffffffffffffffffffffffffff021916908373ffffffffffffffffffffffffffffffffffffffff160217905550505050565b60008054906101000a900473ffffffffffffffffffffffffffffffffffffffff1681565b60008054906101000a900473ffffffffffffffffffffffffffffffffffffffff1673ffffffffffffffffffffffffffffffffffffffff163373ffffffffffffffffffffffffffffffffffffffff161461179d576040517f08c379a0000000000000000000000000000000000000000000000000000000008152600401611794906127b7565b60405180910390fd5b80600160006101000a81548173ffffffffffffffffffffffffffffffffffffffff021916908373ffffffffffffffffffffffffffffffffffffffff16021790555050565b600260009054906101000a900473ffffffffffffffffffffffffffffffffffffffff1681565b60066020528160005260406000206020528060005260406000206000915091509054906101000a900460ff1681565b60036020528060005260406000206000915054906101000a900473ffffffffffffffffffffffffffffffffffffffff1681565b6000600460008473ffffffffffffffffffffffffffffffffffffffff1673ffffffffffffffffffffffffffffffffffffffff16815260200190815260200160002060009054906101000a900473ffffffffffffffffffffffffffffffffffffffff16905060008173ffffffffffffffffffffffffffffffffffffffff16631f1fcd516040518163ffffffff1660e01b815260040160206040518083038186803b15801561191557600080fd5b505afa158015611929573d6000803e3d6000fd5b505050506040513d601f19601f8201168201806040525081019061194d9190612891565b90508373ffffffffffffffffffffffffffffffffffffffff168173ffffffffffffffffffffffffffffffffffffffff1614611bd2576000600560008673ffffffffffffffffffffffffffffffffffffffff1673ffffffffffffffffffffffffffffffffffffffff16815260200190815260200160002060008373ffffffffffffffffffffffffffffffffffffffff1673ffffffffffffffffffffffffffffffffffffffff16815260200190815260200160002060009054906101000a900473ffffffffffffffffffffffffffffffffffffffff1690508473ffffffffffffffffffffffffffffffffffffffff1663a9059cbb82866040518363ffffffff1660e01b8152600401611a5e929190612985565b602060405180830381600087803b158015611a7857600080fd5b505af1158015611a8c573d6000803e3d6000fd5b505050506040513d601f19601f82011682018060405250810190611ab09190612958565b508073ffffffffffffffffffffffffffffffffffffffff1663def2489b846040518263ffffffff1660e01b8152600401611aea919061261f565b602060405180830381600087803b158015611b0457600080fd5b505af1158015611b18573d6000803e3d6000fd5b505050506040513d601f19601f82011682018060405250810190611b3c91906127ec565b93508173ffffffffffffffffffffffffffffffffffffffff1663a9059cbb84866040518363ffffffff1660e01b8152600401611b79929190612985565b602060405180830381600087803b158015611b9357600080fd5b505af1158015611ba7573d6000803e3d6000fd5b505050506040513d601f19601f82011682018060405250810190611bcb9190612958565b5050611cc1565b8373ffffffffffffffffffffffffffffffffffffffff1663a9059cbb83856040518363ffffffff1660e01b8152600401611c0d929190612985565b602060405180830381600087803b158015611c2757600080fd5b505af1158015611c3b573d6000803e3d6000fd5b505050506040513d601f19601f82011682018060405250810190611c5f9190612958565b508173ffffffffffffffffffffffffffffffffffffffff1663d0e30db06040518163ffffffff1660e01b8152600401600060405180830381600087803b158015611ca857600080fd5b505af1158015611cbc573d6000803e3d6000fd5b505050505b50505050565b60008054906101000a900473ffffffffffffffffffffffffffffffffffffffff1673ffffffffffffffffffffffffffffffffffffffff163373ffffffffffffffffffffffffffffffffffffffff1614611d55576040517f08c379a0000000000000000000000000000000000000000000000000000000008152600401611d4c906127b7565b60405180910390fd5b6001600660008473ffffffffffffffffffffffffffffffffffffffff1673ffffffffffffffffffffffffffffffffffffffff16815260200190815260200160002060008373ffffffffffffffffffffffffffffffffffffffff1673ffffffffffffffffffffffffffffffffffffffff16815260200190815260200160002060006101000a81548160ff0219169083151502179055505050565b60008054906101000a900473ffffffffffffffffffffffffffffffffffffffff1673ffffffffffffffffffffffffffffffffffffffff163373ffffffffffffffffffffffffffffffffffffffff1614611e7c576040517f08c379a0000000000000000000000000000000000000000000000000000000008152600401611e73906127b7565b60405180910390fd5b8173ffffffffffffffffffffffffffffffffffffffff1663a9059cbb33836040518363ffffffff1660e01b8152600401611eb7929190612985565b602060405180830381600087803b158015611ed157600080fd5b505af1158015611ee5573d6000803e3d6000fd5b505050506040513d601f19601f82011682018060405250810190611f099190612958565b505050565b60008054906101000a900473ffffffffffffffffffffffffffffffffffffffff1673ffffffffffffffffffffffffffffffffffffffff163373ffffffffffffffffffffffffffffffffffffffff1614611f9c576040517f08c379a0000000000000000000000000000000000000000000000000000000008152600401611f93906127b7565b60405180910390fd5b80600560008573ffffffffffffffffffffffffffffffffffffffff1673ffffffffffffffffffffffffffffffffffffffff16815260200190815260200160002060008473ffffffffffffffffffffffffffffffffffffffff1673ffffffffffffffffffffffffffffffffffffffff16815260200190815260200160002060006101000a81548173ffffffffffffffffffffffffffffffffffffffff021916908373ffffffffffffffffffffffffffffffffffffffff160217905550505050565b60056020528160005260406000206020528060005260406000206000915091509054906101000a900473ffffffffffffffffffffffffffffffffffffffff1681565b60008054906101000a900473ffffffffffffffffffffffffffffffffffffffff1673ffffffffffffffffffffffffffffffffffffffff163373ffffffffffffffffffffffffffffffffffffffff161461212c576040517f08c379a0000000000000000000000000000000000000000000000000000000008152600401612123906127b7565b60405180910390fd5b80600260006101000a81548173ffffffffffffffffffffffffffffffffffffffff021916908373ffffffffffffffffffffffffffffffffffffffff16021790555050565b600360008373ffffffffffffffffffffffffffffffffffffffff1673ffffffffffffffffffffffffffffffffffffffff16815260200190815260200160002060009054906101000a900473ffffffffffffffffffffffffffffffffffffffff1673ffffffffffffffffffffffffffffffffffffffff163373ffffffffffffffffffffffffffffffffffffffff161461223d576040517f08c379a000000000000000000000000000000000000000000000000000000000815260040161223490612eba565b60405180910390fd5b600460008373ffffffffffffffffffffffffffffffffffffffff1673ffffffffffffffffffffffffffffffffffffffff16815260200190815260200160002060009054906101000a900473ffffffffffffffffffffffffffffffffffffffff1673ffffffffffffffffffffffffffffffffffffffff16632e1a7d4d826040518263ffffffff1660e01b81526004016122d59190612676565b600060405180830381600087803b1580156122ef57600080fd5b505af1158015612303573d6000803e3d6000fd5b505050505050565b600160009054906101000a900473ffffffffffffffffffffffffffffffffffffffff1681565b60075481565b60008054906101000a900473ffffffffffffffffffffffffffffffffffffffff1673ffffffffffffffffffffffffffffffffffffffff163373ffffffffffffffffffffffffffffffffffffffff16146123c5576040517f08c379a00000000000000000000000000000000000000000000000000000000081526004016123bc906127b7565b60405180910390fd5b600460008273ffffffffffffffffffffffffffffffffffffffff1673ffffffffffffffffffffffffffffffffffffffff16815260200190815260200160002060009054906101000a900473ffffffffffffffffffffffffffffffffffffffff1673ffffffffffffffffffffffffffffffffffffffff1663853828b66040518163ffffffff1660e01b8152600401602060405180830381600087803b15801561246c57600080fd5b505af1158015612480573d6000803e3d6000fd5b505050506040513d601f19601f820116820180604052508101906124a491906127ec565b5050565b6000604051905090565b600080fd5b600080fd5b600073ffffffffffffffffffffffffffffffffffffffff82169050919050565b60006124e7826124bc565b9050919050565b6124f7816124dc565b811461250257600080fd5b50565b600081359050612514816124ee565b92915050565b6000819050919050565b61252d8161251a565b811461253857600080fd5b50565b60008135905061254a81612524565b92915050565b600080600060608486031215612569576125686124b2565b5b600061257786828701612505565b935050602061258886828701612505565b92505060406125998682870161253b565b9150509250925092565b600080604083850312156125ba576125b96124b2565b5b60006125c885828601612505565b92505060206125d985828601612505565b9150509250929050565b6000602082840312156125f9576125f86124b2565b5b600061260784828501612505565b91505092915050565b612619816124dc565b82525050565b60006020820190506126346000830184612610565b92915050565b6000602082840312156126505761264f6124b2565b5b600061265e8482850161253b565b91505092915050565b6126708161251a565b82525050565b600060208201905061268b6000830184612667565b92915050565b60008115159050919050565b6126a681612691565b82525050565b60006020820190506126c1600083018461269d565b92915050565b600080604083850312156126de576126dd6124b2565b5b60006126ec85828601612505565b92505060206126fd8582860161253b565b9150509250929050565b6000806000606084860312156127205761271f6124b2565b5b600061272e86828701612505565b935050602061273f86828701612505565b925050604061275086828701612505565b9150509250925092565b600082825260208201905092915050565b7f217661756c744d616e6167657200000000000000000000000000000000000000600082015250565b60006127a1600d8361275a565b91506127ac8261276b565b602082019050919050565b600060208201905081810360008301526127d081612794565b9050919050565b6000815190506127e681612524565b92915050565b600060208284031215612802576128016124b2565b5b6000612810848285016127d7565b91505092915050565b7f4e487b7100000000000000000000000000000000000000000000000000000000600052601160045260246000fd5b60006128538261251a565b915061285e8361251a565b92508282101561287157612870612819565b5b828203905092915050565b60008151905061288b816124ee565b92915050565b6000602082840312156128a7576128a66124b2565b5b60006128b58482850161287c565b91505092915050565b6000819050919050565b6000819050919050565b60006128ed6128e86128e3846128be565b6128c8565b61251a565b9050919050565b6128fd816128d2565b82525050565b60006040820190506129186000830185612610565b61292560208301846128f4565b9392505050565b61293581612691565b811461294057600080fd5b50565b6000815190506129528161292c565b92915050565b60006020828403121561296e5761296d6124b2565b5b600061297c84828501612943565b91505092915050565b600060408201905061299a6000830185612610565b6129a76020830184612667565b9392505050565b600060a0820190506129c36000830188612610565b6129d06020830187612610565b6129dd6040830186612667565b6129ea6060830185612667565b6129f760808301846128f4565b9695505050505050565b600080fd5b6000601f19601f8301169050919050565b7f4e487b7100000000000000000000000000000000000000000000000000000000600052604160045260246000fd5b612a4f82612a06565b810181811067ffffffffffffffff82111715612a6e57612a6d612a17565b5b80604052505050565b6000612a816124a8565b9050612a8d8282612a46565b919050565b600067ffffffffffffffff821115612aad57612aac612a17565b5b602082029050602081019050919050565b600080fd5b6000612ad6612ad184612a92565b612a77565b90508083825260208201905060208402830185811115612af957612af8612abe565b5b835b81811015612b225780612b0e88826127d7565b845260208401935050602081019050612afb565b5050509392505050565b600082601f830112612b4157612b40612a01565b5b8151612b51848260208601612ac3565b91505092915050565b60008060408385031215612b7157612b706124b2565b5b6000612b7f858286016127d7565b925050602083015167ffffffffffffffff811115612ba057612b9f6124b7565b5b612bac85828601612b2c565b9150509250929050565b600081519050919050565b600082825260208201905092915050565b6000819050602082019050919050565b612beb8161251a565b82525050565b6000612bfd8383612be2565b60208301905092915050565b6000602082019050919050565b6000612c2182612bb6565b612c2b8185612bc1565b9350612c3683612bd2565b8060005b83811015612c67578151612c4e8882612bf1565b9750612c5983612c09565b925050600181019050612c3a565b5085935050505092915050565b600060c082019050612c896000830189612610565b612c966020830188612610565b612ca36040830187612667565b612cb06060830186612667565b8181036080830152612cc28185612c16565b9050612cd160a08301846128f4565b979650505050505050565b6000612ce78261251a565b9150612cf28361251a565b9250817fffffffffffffffffffffffffffffffffffffffffffffffffffffffffffffffff0483118215151615612d2b57612d2a612819565b5b828202905092915050565b7f4e487b7100000000000000000000000000000000000000000000000000000000600052601260045260246000fd5b6000612d708261251a565b9150612d7b8361251a565b925082612d8b57612d8a612d36565b5b828204905092915050565b7f7661756c74000000000000000000000000000000000000000000000000000000600082015250565b6000612dcc60058361275a565b9150612dd782612d96565b602082019050919050565b60006020820190508181036000830152612dfb81612dbf565b9050919050565b7f21617070726f7665640000000000000000000000000000000000000000000000600082015250565b6000612e3860098361275a565b9150612e4382612e02565b602082019050919050565b60006020820190508181036000830152612e6781612e2b565b9050919050565b7f217661756c740000000000000000000000000000000000000000000000000000600082015250565b6000612ea460068361275a565b9150612eaf82612e6e565b602082019050919050565b60006020820190508181036000830152612ed381612e97565b905091905056fea264697066735822122009386899e899fcb2a1a755f065daac91ac42b74ac3f9288408830c95277906ff64736f6c63430008080033",
  "linkReferences": {},
  "deployedLinkReferences": {}
}