{
  "_format": "hh-sol-artifact-1",
  "contractName": "Squid",
  "sourceName": "contracts/Squid.sol",
  "abi": [
    {
      "inputs": [
        {
          "internalType": "address",
          "name": "_rewards",
          "type": "address"
        }
      ],
      "stateMutability": "nonpayable",
      "type": "constructor"
    },
    {
      "inputs": [
        {
          "internalType": "address",
          "name": "_token",
          "type": "address"
        },
        {
          "internalType": "address",
          "name": "_strategy",
          "type": "address"
        }
      ],
      "name": "approveStrategy",
      "outputs": [],
      "stateMutability": "nonpayable",
      "type": "function"
    },
    {
      "inputs": [
        {
          "internalType": "address",
          "name": "",
          "type": "address"
        },
        {
          "internalType": "address",
          "name": "",
          "type": "address"
        }
      ],
      "name": "approvedStrategies",
      "outputs": [
        {
          "internalType": "bool",
          "name": "",
          "type": "bool"
        }
      ],
      "stateMutability": "view",
      "type": "function"
    },
    {
      "inputs": [
        {
          "internalType": "address",
          "name": "_token",
          "type": "address"
        }
      ],
      "name": "balanceOf",
      "outputs": [
        {
          "internalType": "uint256",
          "name": "",
          "type": "uint256"
        }
      ],
      "stateMutability": "view",
      "type": "function"
    },
    {
      "inputs": [
        {
          "internalType": "address",
          "name": "",
          "type": "address"
        },
        {
          "internalType": "address",
          "name": "",
          "type": "address"
        }
      ],
      "name": "converters",
      "outputs": [
        {
          "internalType": "address",
          "name": "",
          "type": "address"
        }
      ],
      "stateMutability": "view",
      "type": "function"
    },
    {
      "inputs": [
        {
          "internalType": "address",
          "name": "_token",
          "type": "address"
        },
        {
          "internalType": "uint256",
          "name": "_amount",
          "type": "uint256"
        }
      ],
      "name": "earn",
      "outputs": [],
      "stateMutability": "nonpayable",
      "type": "function"
    },
    {
      "inputs": [
        {
          "internalType": "address",
          "name": "_strategy",
          "type": "address"
        },
        {
          "internalType": "address",
          "name": "_token",
          "type": "address"
        },
        {
          "internalType": "uint256",
          "name": "parts",
          "type": "uint256"
        }
      ],
      "name": "getExpectedReturn",
      "outputs": [
        {
          "internalType": "uint256",
          "name": "expected",
          "type": "uint256"
        }
      ],
      "stateMutability": "view",
      "type": "function"
    },
    {
      "inputs": [],
      "name": "governance",
      "outputs": [
        {
          "internalType": "address",
          "name": "",
          "type": "address"
        }
      ],
      "stateMutability": "view",
      "type": "function"
    },
    {
      "inputs": [
        {
          "internalType": "address",
          "name": "_strategy",
          "type": "address"
        },
        {
          "internalType": "address",
          "name": "_token",
          "type": "address"
        }
      ],
      "name": "inCaseStrategyTokenGetStuck",
      "outputs": [],
      "stateMutability": "nonpayable",
      "type": "function"
    },
    {
      "inputs": [
        {
          "internalType": "address",
          "name": "_token",
          "type": "address"
        },
        {
          "internalType": "uint256",
          "name": "_amount",
          "type": "uint256"
        }
      ],
      "name": "inCaseTokensGetStuck",
      "outputs": [],
      "stateMutability": "nonpayable",
      "type": "function"
    },
    {
      "inputs": [],
      "name": "max",
      "outputs": [
        {
          "internalType": "uint256",
          "name": "",
          "type": "uint256"
        }
      ],
      "stateMutability": "view",
      "type": "function"
    },
    {
      "inputs": [],
      "name": "onesplit",
      "outputs": [
        {
          "internalType": "address",
          "name": "",
          "type": "address"
        }
      ],
      "stateMutability": "view",
      "type": "function"
    },
    {
      "inputs": [
        {
          "internalType": "address",
          "name": "_token",
          "type": "address"
        },
        {
          "internalType": "address",
          "name": "_strategy",
          "type": "address"
        }
      ],
      "name": "revokeStrategy",
      "outputs": [],
      "stateMutability": "nonpayable",
      "type": "function"
    },
    {
      "inputs": [],
      "name": "rewards",
      "outputs": [
        {
          "internalType": "address",
          "name": "",
          "type": "address"
        }
      ],
      "stateMutability": "view",
      "type": "function"
    },
    {
      "inputs": [
        {
          "internalType": "address",
          "name": "_input",
          "type": "address"
        },
        {
          "internalType": "address",
          "name": "_output",
          "type": "address"
        },
        {
          "internalType": "address",
          "name": "_converter",
          "type": "address"
        }
      ],
      "name": "setConverter",
      "outputs": [],
      "stateMutability": "nonpayable",
      "type": "function"
    },
    {
      "inputs": [
        {
          "internalType": "address",
          "name": "_governance",
          "type": "address"
        }
      ],
      "name": "setGovernance",
      "outputs": [],
      "stateMutability": "nonpayable",
      "type": "function"
    },
    {
      "inputs": [
        {
          "internalType": "address",
          "name": "_onesplit",
          "type": "address"
        }
      ],
      "name": "setOneSplit",
      "outputs": [],
      "stateMutability": "nonpayable",
      "type": "function"
    },
    {
      "inputs": [
        {
          "internalType": "address",
          "name": "_rewards",
          "type": "address"
        }
      ],
      "name": "setRewards",
      "outputs": [],
      "stateMutability": "nonpayable",
      "type": "function"
    },
    {
      "inputs": [
        {
          "internalType": "uint256",
          "name": "_split",
          "type": "uint256"
        }
      ],
      "name": "setSplit",
      "outputs": [],
      "stateMutability": "nonpayable",
      "type": "function"
    },
    {
      "inputs": [
        {
          "internalType": "address",
          "name": "_strategist",
          "type": "address"
        }
      ],
      "name": "setStrategist",
      "outputs": [],
      "stateMutability": "nonpayable",
      "type": "function"
    },
    {
      "inputs": [
        {
          "internalType": "address",
          "name": "_token",
          "type": "address"
        },
        {
          "internalType": "address",
          "name": "_strategy",
          "type": "address"
        }
      ],
      "name": "setStrategy",
      "outputs": [],
      "stateMutability": "nonpayable",
      "type": "function"
    },
    {
      "inputs": [
        {
          "internalType": "address",
          "name": "_token",
          "type": "address"
        },
        {
          "internalType": "address",
          "name": "_vault",
          "type": "address"
        }
      ],
      "name": "setVault",
      "outputs": [],
      "stateMutability": "nonpayable",
      "type": "function"
    },
    {
      "inputs": [],
      "name": "split",
      "outputs": [
        {
          "internalType": "uint256",
          "name": "",
          "type": "uint256"
        }
      ],
      "stateMutability": "view",
      "type": "function"
    },
    {
      "inputs": [
        {
          "internalType": "address",
          "name": "",
          "type": "address"
        }
      ],
      "name": "strategies",
      "outputs": [
        {
          "internalType": "address",
          "name": "",
          "type": "address"
        }
      ],
      "stateMutability": "view",
      "type": "function"
    },
    {
      "inputs": [],
      "name": "strategist",
      "outputs": [
        {
          "internalType": "address",
          "name": "",
          "type": "address"
        }
      ],
      "stateMutability": "view",
      "type": "function"
    },
    {
      "inputs": [
        {
          "internalType": "address",
          "name": "",
          "type": "address"
        }
      ],
      "name": "vaults",
      "outputs": [
        {
          "internalType": "address",
          "name": "",
          "type": "address"
        }
      ],
      "stateMutability": "view",
      "type": "function"
    },
    {
      "inputs": [
        {
          "internalType": "address",
          "name": "_token",
          "type": "address"
        },
        {
          "internalType": "uint256",
          "name": "_amount",
          "type": "uint256"
        }
      ],
      "name": "withdraw",
      "outputs": [],
      "stateMutability": "nonpayable",
      "type": "function"
    },
    {
      "inputs": [
        {
          "internalType": "address",
          "name": "_token",
          "type": "address"
        }
      ],
      "name": "withdrawAll",
      "outputs": [],
      "stateMutability": "nonpayable",
      "type": "function"
    },
    {
      "inputs": [
        {
          "internalType": "address",
          "name": "_strategy",
          "type": "address"
        },
        {
          "internalType": "address",
          "name": "_token",
          "type": "address"
        },
        {
          "internalType": "uint256",
          "name": "parts",
          "type": "uint256"
        }
      ],
      "name": "yearn",
      "outputs": [],
      "stateMutability": "nonpayable",
      "type": "function"
    }
  ],
  "bytecode": "0x60806040526101f46008553480156200001757600080fd5b506040516200365b3803806200365b83398181016040528101906200003d9190620001c5565b336000806101000a81548173ffffffffffffffffffffffffffffffffffffffff021916908373ffffffffffffffffffffffffffffffffffffffff16021790555033600160006101000a81548173ffffffffffffffffffffffffffffffffffffffff021916908373ffffffffffffffffffffffffffffffffffffffff1602179055507350fda034c0ce7a8f7efdaebda7aa7ca21cc1267e600260006101000a81548173ffffffffffffffffffffffffffffffffffffffff021916908373ffffffffffffffffffffffffffffffffffffffff16021790555080600360006101000a81548173ffffffffffffffffffffffffffffffffffffffff021916908373ffffffffffffffffffffffffffffffffffffffff16021790555050620001f7565b600080fd5b600073ffffffffffffffffffffffffffffffffffffffff82169050919050565b60006200018d8262000160565b9050919050565b6200019f8162000180565b8114620001ab57600080fd5b50565b600081519050620001bf8162000194565b92915050565b600060208284031215620001de57620001dd6200015b565b5b6000620001ee84828501620001ae565b91505092915050565b61345480620002076000396000f3fe608060405234801561001057600080fd5b50600436106101c45760003560e01c8063a1578b6a116100f9578063ccd0631811610097578063f3fef3a311610071578063f3fef3a3146104e9578063f712adbb14610505578063f765417614610523578063fa09e63014610541576101c4565b8063ccd0631814610481578063e4f2494d1461049d578063ec38a862146104cd576101c4565b8063b02bf4b9116100d3578063b02bf4b914610411578063c494448e1461042d578063c6d758cb14610449578063c7b9d53014610465576101c4565b8063a1578b6a14610395578063a622ee7c146103c5578063ab033ea9146103f5576101c4565b80636ac5db1911610166578063714ccf7b11610140578063714ccf7b1461032357806372cb5d971461033f5780638da1df4d1461035b5780639ec5a89414610377576101c4565b80636ac5db19146102a55780636dcd64e5146102c357806370a08231146102f3576101c4565b806339ebf823116101a257806339ebf8231461021f578063590bbb601461024f5780635aa6e6751461026b578063674e694f14610289576101c4565b806304209f48146101c9578063197baa6d146101e55780631fe4a68614610201575b600080fd5b6101e360048036038101906101de9190612a28565b61055d565b005b6101ff60048036038101906101fa9190612a7b565b610d5f565b005b610209610eb4565b6040516102169190612aca565b60405180910390f35b61023960048036038101906102349190612ae5565b610eda565b6040516102469190612aca565b60405180910390f35b61026960048036038101906102649190612a7b565b610f0d565b005b610273611034565b6040516102809190612aca565b60405180910390f35b6102a3600480360381019061029e9190612b12565b611058565b005b6102ad6110f0565b6040516102ba9190612b4e565b60405180910390f35b6102dd60048036038101906102d89190612a28565b6110f6565b6040516102ea9190612b4e565b60405180910390f35b61030d60048036038101906103089190612ae5565b6112cd565b60405161031a9190612b4e565b60405180910390f35b61033d60048036038101906103389190612a7b565b6113b3565b005b61035960048036038101906103549190612a7b565b6115e9565b005b61037560048036038101906103709190612ae5565b61193c565b005b61037f611a0e565b60405161038c9190612aca565b60405180910390f35b6103af60048036038101906103aa9190612a7b565b611a34565b6040516103bc9190612b84565b60405180910390f35b6103df60048036038101906103da9190612ae5565b611a63565b6040516103ec9190612aca565b60405180910390f35b61040f600480360381019061040a9190612ae5565b611a96565b005b61042b60048036038101906104269190612b9f565b611b67565b005b61044760048036038101906104429190612a7b565b611fc5565b005b610463600480360381019061045e9190612b9f565b6120ec565b005b61047f600480360381019061047a9190612ae5565b612264565b005b61049b60048036038101906104969190612bdf565b612336565b005b6104b760048036038101906104b29190612a7b565b6124dc565b6040516104c49190612aca565b60405180910390f35b6104e760048036038101906104e29190612ae5565b61251e565b005b61050360048036038101906104fe9190612b9f565b6125f0565b005b61050d61278b565b60405161051a9190612aca565b60405180910390f35b61052b6127b1565b6040516105389190612b4e565b60405180910390f35b61055b60048036038101906105569190612ae5565b6127b7565b005b600160009054906101000a900473ffffffffffffffffffffffffffffffffffffffff1673ffffffffffffffffffffffffffffffffffffffff163373ffffffffffffffffffffffffffffffffffffffff161480610604575060008054906101000a900473ffffffffffffffffffffffffffffffffffffffff1673ffffffffffffffffffffffffffffffffffffffff163373ffffffffffffffffffffffffffffffffffffffff16145b610643576040517f08c379a000000000000000000000000000000000000000000000000000000000815260040161063a90612c8f565b60405180910390fd5b60008273ffffffffffffffffffffffffffffffffffffffff166370a08231306040518263ffffffff1660e01b815260040161067e9190612aca565b60206040518083038186803b15801561069657600080fd5b505afa1580156106aa573d6000803e3d6000fd5b505050506040513d601f19601f820116820180604052508101906106ce9190612cc4565b90508373ffffffffffffffffffffffffffffffffffffffff166351cff8d9846040518263ffffffff1660e01b81526004016107099190612aca565b600060405180830381600087803b15801561072357600080fd5b505af1158015610737573d6000803e3d6000fd5b5050505060008373ffffffffffffffffffffffffffffffffffffffff166370a08231306040518263ffffffff1660e01b81526004016107769190612aca565b60206040518083038186803b15801561078e57600080fd5b505afa1580156107a2573d6000803e3d6000fd5b505050506040513d601f19601f820116820180604052508101906107c69190612cc4565b905081811115610d5857600082826107de9190612d20565b905060008673ffffffffffffffffffffffffffffffffffffffff16631f1fcd516040518163ffffffff1660e01b815260040160206040518083038186803b15801561082857600080fd5b505afa15801561083c573d6000803e3d6000fd5b505050506040513d601f19601f820116820180604052508101906108609190612d69565b9050606060008273ffffffffffffffffffffffffffffffffffffffff166370a08231306040518263ffffffff1660e01b815260040161089f9190612aca565b60206040518083038186803b1580156108b757600080fd5b505afa1580156108cb573d6000803e3d6000fd5b505050506040513d601f19601f820116820180604052508101906108ef9190612cc4565b95508773ffffffffffffffffffffffffffffffffffffffff1663095ea7b3600260009054906101000a900473ffffffffffffffffffffffffffffffffffffffff1660006040518363ffffffff1660e01b815260040161094f929190612ddb565b602060405180830381600087803b15801561096957600080fd5b505af115801561097d573d6000803e3d6000fd5b505050506040513d601f19601f820116820180604052508101906109a19190612e30565b508773ffffffffffffffffffffffffffffffffffffffff1663095ea7b3600260009054906101000a900473ffffffffffffffffffffffffffffffffffffffff16866040518363ffffffff1660e01b81526004016109ff929190612e5d565b602060405180830381600087803b158015610a1957600080fd5b505af1158015610a2d573d6000803e3d6000fd5b505050506040513d601f19601f82011682018060405250810190610a519190612e30565b50600260009054906101000a900473ffffffffffffffffffffffffffffffffffffffff1673ffffffffffffffffffffffffffffffffffffffff1663085e2c5b8985878b60006040518663ffffffff1660e01b8152600401610ab6959493929190612e86565b60006040518083038186803b158015610ace57600080fd5b505afa158015610ae2573d6000803e3d6000fd5b505050506040513d6000823e3d601f19601f82011682018060405250810190610b0b9190613032565b8093508192505050600260009054906101000a900473ffffffffffffffffffffffffffffffffffffffff1673ffffffffffffffffffffffffffffffffffffffff1663e2a7515e898587858760006040518763ffffffff1660e01b8152600401610b799695949392919061314c565b602060405180830381600087803b158015610b9357600080fd5b505af1158015610ba7573d6000803e3d6000fd5b505050506040513d601f19601f82011682018060405250810190610bcb9190612cc4565b508273ffffffffffffffffffffffffffffffffffffffff166370a08231306040518263ffffffff1660e01b8152600401610c059190612aca565b60206040518083038186803b158015610c1d57600080fd5b505afa158015610c31573d6000803e3d6000fd5b505050506040513d601f19601f82011682018060405250810190610c559190612cc4565b945085851115610d53578585610c6b9190612d20565b9350600061271060085486610c8091906131b4565b610c8a919061323d565b9050610ca1848287610c9c9190612d20565b611b67565b8373ffffffffffffffffffffffffffffffffffffffff1663a9059cbb600360009054906101000a900473ffffffffffffffffffffffffffffffffffffffff16836040518363ffffffff1660e01b8152600401610cfe929190612e5d565b602060405180830381600087803b158015610d1857600080fd5b505af1158015610d2c573d6000803e3d6000fd5b505050506040513d601f19601f82011682018060405250810190610d509190612e30565b50505b505050505b5050505050565b600160009054906101000a900473ffffffffffffffffffffffffffffffffffffffff1673ffffffffffffffffffffffffffffffffffffffff163373ffffffffffffffffffffffffffffffffffffffff161480610e06575060008054906101000a900473ffffffffffffffffffffffffffffffffffffffff1673ffffffffffffffffffffffffffffffffffffffff163373ffffffffffffffffffffffffffffffffffffffff16145b610e45576040517f08c379a0000000000000000000000000000000000000000000000000000000008152600401610e3c90612c8f565b60405180910390fd5b8173ffffffffffffffffffffffffffffffffffffffff166351cff8d9826040518263ffffffff1660e01b8152600401610e7e9190612aca565b600060405180830381600087803b158015610e9857600080fd5b505af1158015610eac573d6000803e3d6000fd5b505050505050565b600160009054906101000a900473ffffffffffffffffffffffffffffffffffffffff1681565b60056020528060005260406000206000915054906101000a900473ffffffffffffffffffffffffffffffffffffffff1681565b60008054906101000a900473ffffffffffffffffffffffffffffffffffffffff1673ffffffffffffffffffffffffffffffffffffffff163373ffffffffffffffffffffffffffffffffffffffff1614610f9b576040517f08c379a0000000000000000000000000000000000000000000000000000000008152600401610f9290612c8f565b60405180910390fd5b6000600760008473ffffffffffffffffffffffffffffffffffffffff1673ffffffffffffffffffffffffffffffffffffffff16815260200190815260200160002060008373ffffffffffffffffffffffffffffffffffffffff1673ffffffffffffffffffffffffffffffffffffffff16815260200190815260200160002060006101000a81548160ff0219169083151502179055505050565b60008054906101000a900473ffffffffffffffffffffffffffffffffffffffff1681565b60008054906101000a900473ffffffffffffffffffffffffffffffffffffffff1673ffffffffffffffffffffffffffffffffffffffff163373ffffffffffffffffffffffffffffffffffffffff16146110e6576040517f08c379a00000000000000000000000000000000000000000000000000000000081526004016110dd90612c8f565b60405180910390fd5b8060088190555050565b61271081565b6000808373ffffffffffffffffffffffffffffffffffffffff166370a08231866040518263ffffffff1660e01b81526004016111329190612aca565b60206040518083038186803b15801561114a57600080fd5b505afa15801561115e573d6000803e3d6000fd5b505050506040513d601f19601f820116820180604052508101906111829190612cc4565b905060008573ffffffffffffffffffffffffffffffffffffffff16631f1fcd516040518163ffffffff1660e01b815260040160206040518083038186803b1580156111cc57600080fd5b505afa1580156111e0573d6000803e3d6000fd5b505050506040513d601f19601f820116820180604052508101906112049190612d69565b9050600260009054906101000a900473ffffffffffffffffffffffffffffffffffffffff1673ffffffffffffffffffffffffffffffffffffffff1663085e2c5b8683858860006040518663ffffffff1660e01b815260040161126a959493929190612e86565b60006040518083038186803b15801561128257600080fd5b505afa158015611296573d6000803e3d6000fd5b505050506040513d6000823e3d601f19601f820116820180604052508101906112bf9190613032565b508093505050509392505050565b6000600560008373ffffffffffffffffffffffffffffffffffffffff1673ffffffffffffffffffffffffffffffffffffffff16815260200190815260200160002060009054906101000a900473ffffffffffffffffffffffffffffffffffffffff1673ffffffffffffffffffffffffffffffffffffffff1663722713f76040518163ffffffff1660e01b815260040160206040518083038186803b15801561137457600080fd5b505afa158015611388573d6000803e3d6000fd5b505050506040513d601f19601f820116820180604052508101906113ac9190612cc4565b9050919050565b600160009054906101000a900473ffffffffffffffffffffffffffffffffffffffff1673ffffffffffffffffffffffffffffffffffffffff163373ffffffffffffffffffffffffffffffffffffffff16148061145a575060008054906101000a900473ffffffffffffffffffffffffffffffffffffffff1673ffffffffffffffffffffffffffffffffffffffff163373ffffffffffffffffffffffffffffffffffffffff16145b611499576040517f08c379a0000000000000000000000000000000000000000000000000000000008152600401611490906132ba565b60405180910390fd5b600073ffffffffffffffffffffffffffffffffffffffff16600460008473ffffffffffffffffffffffffffffffffffffffff1673ffffffffffffffffffffffffffffffffffffffff16815260200190815260200160002060009054906101000a900473ffffffffffffffffffffffffffffffffffffffff1673ffffffffffffffffffffffffffffffffffffffff1614611567576040517f08c379a000000000000000000000000000000000000000000000000000000000815260040161155e90613326565b60405180910390fd5b80600460008473ffffffffffffffffffffffffffffffffffffffff1673ffffffffffffffffffffffffffffffffffffffff16815260200190815260200160002060006101000a81548173ffffffffffffffffffffffffffffffffffffffff021916908373ffffffffffffffffffffffffffffffffffffffff1602179055505050565b600160009054906101000a900473ffffffffffffffffffffffffffffffffffffffff1673ffffffffffffffffffffffffffffffffffffffff163373ffffffffffffffffffffffffffffffffffffffff161480611690575060008054906101000a900473ffffffffffffffffffffffffffffffffffffffff1673ffffffffffffffffffffffffffffffffffffffff163373ffffffffffffffffffffffffffffffffffffffff16145b6116cf576040517f08c379a00000000000000000000000000000000000000000000000000000000081526004016116c6906132ba565b60405180910390fd5b60011515600760008473ffffffffffffffffffffffffffffffffffffffff1673ffffffffffffffffffffffffffffffffffffffff16815260200190815260200160002060008373ffffffffffffffffffffffffffffffffffffffff1673ffffffffffffffffffffffffffffffffffffffff16815260200190815260200160002060009054906101000a900460ff1615151461179f576040517f08c379a000000000000000000000000000000000000000000000000000000000815260040161179690613392565b60405180910390fd5b6000600560008473ffffffffffffffffffffffffffffffffffffffff1673ffffffffffffffffffffffffffffffffffffffff16815260200190815260200160002060009054906101000a900473ffffffffffffffffffffffffffffffffffffffff169050600073ffffffffffffffffffffffffffffffffffffffff168173ffffffffffffffffffffffffffffffffffffffff16146118b9578073ffffffffffffffffffffffffffffffffffffffff1663853828b66040518163ffffffff1660e01b8152600401602060405180830381600087803b15801561187f57600080fd5b505af1158015611893573d6000803e3d6000fd5b505050506040513d601f19601f820116820180604052508101906118b79190612cc4565b505b81600560008573ffffffffffffffffffffffffffffffffffffffff1673ffffffffffffffffffffffffffffffffffffffff16815260200190815260200160002060006101000a81548173ffffffffffffffffffffffffffffffffffffffff021916908373ffffffffffffffffffffffffffffffffffffffff160217905550505050565b60008054906101000a900473ffffffffffffffffffffffffffffffffffffffff1673ffffffffffffffffffffffffffffffffffffffff163373ffffffffffffffffffffffffffffffffffffffff16146119ca576040517f08c379a00000000000000000000000000000000000000000000000000000000081526004016119c190612c8f565b60405180910390fd5b80600260006101000a81548173ffffffffffffffffffffffffffffffffffffffff021916908373ffffffffffffffffffffffffffffffffffffffff16021790555050565b600360009054906101000a900473ffffffffffffffffffffffffffffffffffffffff1681565b60076020528160005260406000206020528060005260406000206000915091509054906101000a900460ff1681565b60046020528060005260406000206000915054906101000a900473ffffffffffffffffffffffffffffffffffffffff1681565b60008054906101000a900473ffffffffffffffffffffffffffffffffffffffff1673ffffffffffffffffffffffffffffffffffffffff163373ffffffffffffffffffffffffffffffffffffffff1614611b24576040517f08c379a0000000000000000000000000000000000000000000000000000000008152600401611b1b90612c8f565b60405180910390fd5b806000806101000a81548173ffffffffffffffffffffffffffffffffffffffff021916908373ffffffffffffffffffffffffffffffffffffffff16021790555050565b6000600560008473ffffffffffffffffffffffffffffffffffffffff1673ffffffffffffffffffffffffffffffffffffffff16815260200190815260200160002060009054906101000a900473ffffffffffffffffffffffffffffffffffffffff16905060008173ffffffffffffffffffffffffffffffffffffffff16631f1fcd516040518163ffffffff1660e01b815260040160206040518083038186803b158015611c1357600080fd5b505afa158015611c27573d6000803e3d6000fd5b505050506040513d601f19601f82011682018060405250810190611c4b9190612d69565b90508373ffffffffffffffffffffffffffffffffffffffff168173ffffffffffffffffffffffffffffffffffffffff1614611ed0576000600660008673ffffffffffffffffffffffffffffffffffffffff1673ffffffffffffffffffffffffffffffffffffffff16815260200190815260200160002060008373ffffffffffffffffffffffffffffffffffffffff1673ffffffffffffffffffffffffffffffffffffffff16815260200190815260200160002060009054906101000a900473ffffffffffffffffffffffffffffffffffffffff1690508473ffffffffffffffffffffffffffffffffffffffff1663a9059cbb82866040518363ffffffff1660e01b8152600401611d5c929190612e5d565b602060405180830381600087803b158015611d7657600080fd5b505af1158015611d8a573d6000803e3d6000fd5b505050506040513d601f19601f82011682018060405250810190611dae9190612e30565b508073ffffffffffffffffffffffffffffffffffffffff1663def2489b846040518263ffffffff1660e01b8152600401611de89190612aca565b602060405180830381600087803b158015611e0257600080fd5b505af1158015611e16573d6000803e3d6000fd5b505050506040513d601f19601f82011682018060405250810190611e3a9190612cc4565b93508173ffffffffffffffffffffffffffffffffffffffff1663a9059cbb84866040518363ffffffff1660e01b8152600401611e77929190612e5d565b602060405180830381600087803b158015611e9157600080fd5b505af1158015611ea5573d6000803e3d6000fd5b505050506040513d601f19601f82011682018060405250810190611ec99190612e30565b5050611fbf565b8373ffffffffffffffffffffffffffffffffffffffff1663a9059cbb83856040518363ffffffff1660e01b8152600401611f0b929190612e5d565b602060405180830381600087803b158015611f2557600080fd5b505af1158015611f39573d6000803e3d6000fd5b505050506040513d601f19601f82011682018060405250810190611f5d9190612e30565b508173ffffffffffffffffffffffffffffffffffffffff1663d0e30db06040518163ffffffff1660e01b8152600401600060405180830381600087803b158015611fa657600080fd5b505af1158015611fba573d6000803e3d6000fd5b505050505b50505050565b60008054906101000a900473ffffffffffffffffffffffffffffffffffffffff1673ffffffffffffffffffffffffffffffffffffffff163373ffffffffffffffffffffffffffffffffffffffff1614612053576040517f08c379a000000000000000000000000000000000000000000000000000000000815260040161204a90612c8f565b60405180910390fd5b6001600760008473ffffffffffffffffffffffffffffffffffffffff1673ffffffffffffffffffffffffffffffffffffffff16815260200190815260200160002060008373ffffffffffffffffffffffffffffffffffffffff1673ffffffffffffffffffffffffffffffffffffffff16815260200190815260200160002060006101000a81548160ff0219169083151502179055505050565b600160009054906101000a900473ffffffffffffffffffffffffffffffffffffffff1673ffffffffffffffffffffffffffffffffffffffff163373ffffffffffffffffffffffffffffffffffffffff161480612193575060008054906101000a900473ffffffffffffffffffffffffffffffffffffffff1673ffffffffffffffffffffffffffffffffffffffff163373ffffffffffffffffffffffffffffffffffffffff16145b6121d2576040517f08c379a00000000000000000000000000000000000000000000000000000000081526004016121c990612c8f565b60405180910390fd5b8173ffffffffffffffffffffffffffffffffffffffff1663a9059cbb33836040518363ffffffff1660e01b815260040161220d929190612e5d565b602060405180830381600087803b15801561222757600080fd5b505af115801561223b573d6000803e3d6000fd5b505050506040513d601f19601f8201168201806040525081019061225f9190612e30565b505050565b60008054906101000a900473ffffffffffffffffffffffffffffffffffffffff1673ffffffffffffffffffffffffffffffffffffffff163373ffffffffffffffffffffffffffffffffffffffff16146122f2576040517f08c379a00000000000000000000000000000000000000000000000000000000081526004016122e990612c8f565b60405180910390fd5b80600160006101000a81548173ffffffffffffffffffffffffffffffffffffffff021916908373ffffffffffffffffffffffffffffffffffffffff16021790555050565b600160009054906101000a900473ffffffffffffffffffffffffffffffffffffffff1673ffffffffffffffffffffffffffffffffffffffff163373ffffffffffffffffffffffffffffffffffffffff1614806123dd575060008054906101000a900473ffffffffffffffffffffffffffffffffffffffff1673ffffffffffffffffffffffffffffffffffffffff163373ffffffffffffffffffffffffffffffffffffffff16145b61241c576040517f08c379a0000000000000000000000000000000000000000000000000000000008152600401612413906132ba565b60405180910390fd5b80600660008573ffffffffffffffffffffffffffffffffffffffff1673ffffffffffffffffffffffffffffffffffffffff16815260200190815260200160002060008473ffffffffffffffffffffffffffffffffffffffff1673ffffffffffffffffffffffffffffffffffffffff16815260200190815260200160002060006101000a81548173ffffffffffffffffffffffffffffffffffffffff021916908373ffffffffffffffffffffffffffffffffffffffff160217905550505050565b60066020528160005260406000206020528060005260406000206000915091509054906101000a900473ffffffffffffffffffffffffffffffffffffffff1681565b60008054906101000a900473ffffffffffffffffffffffffffffffffffffffff1673ffffffffffffffffffffffffffffffffffffffff163373ffffffffffffffffffffffffffffffffffffffff16146125ac576040517f08c379a00000000000000000000000000000000000000000000000000000000081526004016125a390612c8f565b60405180910390fd5b80600360006101000a81548173ffffffffffffffffffffffffffffffffffffffff021916908373ffffffffffffffffffffffffffffffffffffffff16021790555050565b600460008373ffffffffffffffffffffffffffffffffffffffff1673ffffffffffffffffffffffffffffffffffffffff16815260200190815260200160002060009054906101000a900473ffffffffffffffffffffffffffffffffffffffff1673ffffffffffffffffffffffffffffffffffffffff163373ffffffffffffffffffffffffffffffffffffffff16146126bd576040517f08c379a00000000000000000000000000000000000000000000000000000000081526004016126b4906133fe565b60405180910390fd5b600560008373ffffffffffffffffffffffffffffffffffffffff1673ffffffffffffffffffffffffffffffffffffffff16815260200190815260200160002060009054906101000a900473ffffffffffffffffffffffffffffffffffffffff1673ffffffffffffffffffffffffffffffffffffffff16632e1a7d4d826040518263ffffffff1660e01b81526004016127559190612b4e565b600060405180830381600087803b15801561276f57600080fd5b505af1158015612783573d6000803e3d6000fd5b505050505050565b600260009054906101000a900473ffffffffffffffffffffffffffffffffffffffff1681565b60085481565b600160009054906101000a900473ffffffffffffffffffffffffffffffffffffffff1673ffffffffffffffffffffffffffffffffffffffff163373ffffffffffffffffffffffffffffffffffffffff16148061285e575060008054906101000a900473ffffffffffffffffffffffffffffffffffffffff1673ffffffffffffffffffffffffffffffffffffffff163373ffffffffffffffffffffffffffffffffffffffff16145b61289d576040517f08c379a0000000000000000000000000000000000000000000000000000000008152600401612894906132ba565b60405180910390fd5b600560008273ffffffffffffffffffffffffffffffffffffffff1673ffffffffffffffffffffffffffffffffffffffff16815260200190815260200160002060009054906101000a900473ffffffffffffffffffffffffffffffffffffffff1673ffffffffffffffffffffffffffffffffffffffff1663853828b66040518163ffffffff1660e01b8152600401602060405180830381600087803b15801561294457600080fd5b505af1158015612958573d6000803e3d6000fd5b505050506040513d601f19601f8201168201806040525081019061297c9190612cc4565b5050565b6000604051905090565b600080fd5b600080fd5b600073ffffffffffffffffffffffffffffffffffffffff82169050919050565b60006129bf82612994565b9050919050565b6129cf816129b4565b81146129da57600080fd5b50565b6000813590506129ec816129c6565b92915050565b6000819050919050565b612a05816129f2565b8114612a1057600080fd5b50565b600081359050612a22816129fc565b92915050565b600080600060608486031215612a4157612a4061298a565b5b6000612a4f868287016129dd565b9350506020612a60868287016129dd565b9250506040612a7186828701612a13565b9150509250925092565b60008060408385031215612a9257612a9161298a565b5b6000612aa0858286016129dd565b9250506020612ab1858286016129dd565b9150509250929050565b612ac4816129b4565b82525050565b6000602082019050612adf6000830184612abb565b92915050565b600060208284031215612afb57612afa61298a565b5b6000612b09848285016129dd565b91505092915050565b600060208284031215612b2857612b2761298a565b5b6000612b3684828501612a13565b91505092915050565b612b48816129f2565b82525050565b6000602082019050612b636000830184612b3f565b92915050565b60008115159050919050565b612b7e81612b69565b82525050565b6000602082019050612b996000830184612b75565b92915050565b60008060408385031215612bb657612bb561298a565b5b6000612bc4858286016129dd565b9250506020612bd585828601612a13565b9150509250929050565b600080600060608486031215612bf857612bf761298a565b5b6000612c06868287016129dd565b9350506020612c17868287016129dd565b9250506040612c28868287016129dd565b9150509250925092565b600082825260208201905092915050565b7f21676f7665726e616e6365000000000000000000000000000000000000000000600082015250565b6000612c79600b83612c32565b9150612c8482612c43565b602082019050919050565b60006020820190508181036000830152612ca881612c6c565b9050919050565b600081519050612cbe816129fc565b92915050565b600060208284031215612cda57612cd961298a565b5b6000612ce884828501612caf565b91505092915050565b7f4e487b7100000000000000000000000000000000000000000000000000000000600052601160045260246000fd5b6000612d2b826129f2565b9150612d36836129f2565b925082821015612d4957612d48612cf1565b5b828203905092915050565b600081519050612d63816129c6565b92915050565b600060208284031215612d7f57612d7e61298a565b5b6000612d8d84828501612d54565b91505092915050565b6000819050919050565b6000819050919050565b6000612dc5612dc0612dbb84612d96565b612da0565b6129f2565b9050919050565b612dd581612daa565b82525050565b6000604082019050612df06000830185612abb565b612dfd6020830184612dcc565b9392505050565b612e0d81612b69565b8114612e1857600080fd5b50565b600081519050612e2a81612e04565b92915050565b600060208284031215612e4657612e4561298a565b5b6000612e5484828501612e1b565b91505092915050565b6000604082019050612e726000830185612abb565b612e7f6020830184612b3f565b9392505050565b600060a082019050612e9b6000830188612abb565b612ea86020830187612abb565b612eb56040830186612b3f565b612ec26060830185612b3f565b612ecf6080830184612dcc565b9695505050505050565b600080fd5b6000601f19601f8301169050919050565b7f4e487b7100000000000000000000000000000000000000000000000000000000600052604160045260246000fd5b612f2782612ede565b810181811067ffffffffffffffff82111715612f4657612f45612eef565b5b80604052505050565b6000612f59612980565b9050612f658282612f1e565b919050565b600067ffffffffffffffff821115612f8557612f84612eef565b5b602082029050602081019050919050565b600080fd5b6000612fae612fa984612f6a565b612f4f565b90508083825260208201905060208402830185811115612fd157612fd0612f96565b5b835b81811015612ffa5780612fe68882612caf565b845260208401935050602081019050612fd3565b5050509392505050565b600082601f83011261301957613018612ed9565b5b8151613029848260208601612f9b565b91505092915050565b600080604083850312156130495761304861298a565b5b600061305785828601612caf565b925050602083015167ffffffffffffffff8111156130785761307761298f565b5b61308485828601613004565b9150509250929050565b600081519050919050565b600082825260208201905092915050565b6000819050602082019050919050565b6130c3816129f2565b82525050565b60006130d583836130ba565b60208301905092915050565b6000602082019050919050565b60006130f98261308e565b6131038185613099565b935061310e836130aa565b8060005b8381101561313f57815161312688826130c9565b9750613131836130e1565b925050600181019050613112565b5085935050505092915050565b600060c0820190506131616000830189612abb565b61316e6020830188612abb565b61317b6040830187612b3f565b6131886060830186612b3f565b818103608083015261319a81856130ee565b90506131a960a0830184612dcc565b979650505050505050565b60006131bf826129f2565b91506131ca836129f2565b9250817fffffffffffffffffffffffffffffffffffffffffffffffffffffffffffffffff048311821515161561320357613202612cf1565b5b828202905092915050565b7f4e487b7100000000000000000000000000000000000000000000000000000000600052601260045260246000fd5b6000613248826129f2565b9150613253836129f2565b9250826132635761326261320e565b5b828204905092915050565b7f2173747261746567697374000000000000000000000000000000000000000000600082015250565b60006132a4600b83612c32565b91506132af8261326e565b602082019050919050565b600060208201905081810360008301526132d381613297565b9050919050565b7f7661756c74000000000000000000000000000000000000000000000000000000600082015250565b6000613310600583612c32565b915061331b826132da565b602082019050919050565b6000602082019050818103600083015261333f81613303565b9050919050565b7f21617070726f7665640000000000000000000000000000000000000000000000600082015250565b600061337c600983612c32565b915061338782613346565b602082019050919050565b600060208201905081810360008301526133ab8161336f565b9050919050565b7f217661756c740000000000000000000000000000000000000000000000000000600082015250565b60006133e8600683612c32565b91506133f3826133b2565b602082019050919050565b60006020820190508181036000830152613417816133db565b905091905056fea2646970667358221220261d9fd6042577c3db545b611bddebe24495459dff039363fed7ffb2c4ec815f64736f6c63430008080033",
  "linkReferences": {},
  "deployedLinkReferences": {}
}