{
  "_format": "hh-sol-artifact-1",
  "contractName": "SquiddyCore",
  "sourceName": "contracts/SquiddyCore.sol",
  "abi": [
    {
      "inputs": [],
      "stateMutability": "nonpayable",
      "type": "constructor"
    },
    {
      "anonymous": false,
      "inputs": [
        {
          "indexed": true,
          "internalType": "address",
          "name": "owner",
          "type": "address"
        },
        {
          "indexed": true,
          "internalType": "address",
          "name": "spender",
          "type": "address"
        },
        {
          "indexed": false,
          "internalType": "uint256",
          "name": "amount",
          "type": "uint256"
        }
      ],
      "name": "Approval",
      "type": "event"
    },
    {
      "anonymous": false,
      "inputs": [
        {
          "indexed": true,
          "internalType": "address",
          "name": "caller",
          "type": "address"
        },
        {
          "indexed": true,
          "internalType": "address",
          "name": "owner",
          "type": "address"
        },
        {
          "indexed": false,
          "internalType": "uint256",
          "name": "assets",
          "type": "uint256"
        },
        {
          "indexed": false,
          "internalType": "uint256",
          "name": "shares",
          "type": "uint256"
        }
      ],
      "name": "Deposit",
      "type": "event"
    },
    {
      "anonymous": false,
      "inputs": [
        {
          "indexed": true,
          "internalType": "address",
          "name": "user",
          "type": "address"
        },
        {
          "indexed": false,
          "internalType": "uint256",
          "name": "newFeePercent",
          "type": "uint256"
        }
      ],
      "name": "FeePercentUpdated",
      "type": "event"
    },
    {
      "anonymous": false,
      "inputs": [
        {
          "indexed": true,
          "internalType": "address",
          "name": "user",
          "type": "address"
        },
        {
          "indexed": false,
          "internalType": "uint256",
          "name": "sVTokenAmount",
          "type": "uint256"
        }
      ],
      "name": "FeesClaimed",
      "type": "event"
    },
    {
      "anonymous": false,
      "inputs": [
        {
          "indexed": true,
          "internalType": "address",
          "name": "user",
          "type": "address"
        }
      ],
      "name": "Initialized",
      "type": "event"
    },
    {
      "anonymous": false,
      "inputs": [
        {
          "indexed": true,
          "internalType": "address",
          "name": "previousManager",
          "type": "address"
        },
        {
          "indexed": true,
          "internalType": "address",
          "name": "newManager",
          "type": "address"
        }
      ],
      "name": "OwnershipTransferred",
      "type": "event"
    },
    {
      "anonymous": false,
      "inputs": [
        {
          "indexed": true,
          "internalType": "bytes32",
          "name": "role",
          "type": "bytes32"
        },
        {
          "indexed": true,
          "internalType": "bytes32",
          "name": "previousAdminRole",
          "type": "bytes32"
        },
        {
          "indexed": true,
          "internalType": "bytes32",
          "name": "newAdminRole",
          "type": "bytes32"
        }
      ],
      "name": "RoleAdminChanged",
      "type": "event"
    },
    {
      "anonymous": false,
      "inputs": [
        {
          "indexed": true,
          "internalType": "bytes32",
          "name": "role",
          "type": "bytes32"
        },
        {
          "indexed": true,
          "internalType": "address",
          "name": "account",
          "type": "address"
        },
        {
          "indexed": true,
          "internalType": "address",
          "name": "sender",
          "type": "address"
        }
      ],
      "name": "RoleGranted",
      "type": "event"
    },
    {
      "anonymous": false,
      "inputs": [
        {
          "indexed": true,
          "internalType": "bytes32",
          "name": "role",
          "type": "bytes32"
        },
        {
          "indexed": true,
          "internalType": "address",
          "name": "account",
          "type": "address"
        },
        {
          "indexed": true,
          "internalType": "address",
          "name": "sender",
          "type": "address"
        }
      ],
      "name": "RoleRevoked",
      "type": "event"
    },
    {
      "anonymous": false,
      "inputs": [
        {
          "indexed": true,
          "internalType": "address",
          "name": "searcher",
          "type": "address"
        },
        {
          "indexed": true,
          "internalType": "address",
          "name": "vault",
          "type": "address"
        },
        {
          "indexed": false,
          "internalType": "uint256",
          "name": "duration",
          "type": "uint256"
        }
      ],
      "name": "StrategyAInitilized",
      "type": "event"
    },
    {
      "anonymous": false,
      "inputs": [
        {
          "indexed": true,
          "internalType": "address",
          "name": "stakePoolContract",
          "type": "address"
        },
        {
          "indexed": true,
          "internalType": "address",
          "name": "vault",
          "type": "address"
        },
        {
          "indexed": false,
          "internalType": "uint256",
          "name": "duration",
          "type": "uint256"
        }
      ],
      "name": "StrategyBInitilized",
      "type": "event"
    },
    {
      "anonymous": false,
      "inputs": [
        {
          "indexed": true,
          "internalType": "address",
          "name": "user",
          "type": "address"
        },
        {
          "indexed": false,
          "internalType": "uint256",
          "name": "newTargetFloatPercent",
          "type": "uint256"
        }
      ],
      "name": "TargetFloatPercentUpdated",
      "type": "event"
    },
    {
      "anonymous": false,
      "inputs": [
        {
          "indexed": true,
          "internalType": "address",
          "name": "from",
          "type": "address"
        },
        {
          "indexed": true,
          "internalType": "address",
          "name": "to",
          "type": "address"
        },
        {
          "indexed": false,
          "internalType": "uint256",
          "name": "amount",
          "type": "uint256"
        }
      ],
      "name": "Transfer",
      "type": "event"
    },
    {
      "anonymous": false,
      "inputs": [
        {
          "indexed": true,
          "internalType": "address",
          "name": "user",
          "type": "address"
        },
        {
          "indexed": false,
          "internalType": "bool",
          "name": "newUnderlyingIsWETH",
          "type": "bool"
        }
      ],
      "name": "UnderlyingIsWETHUpdated",
      "type": "event"
    },
    {
      "anonymous": false,
      "inputs": [
        {
          "indexed": true,
          "internalType": "address",
          "name": "caller",
          "type": "address"
        },
        {
          "indexed": true,
          "internalType": "address",
          "name": "receiver",
          "type": "address"
        },
        {
          "indexed": true,
          "internalType": "address",
          "name": "owner",
          "type": "address"
        },
        {
          "indexed": false,
          "internalType": "uint256",
          "name": "assets",
          "type": "uint256"
        },
        {
          "indexed": false,
          "internalType": "uint256",
          "name": "shares",
          "type": "uint256"
        }
      ],
      "name": "Withdraw",
      "type": "event"
    },
    {
      "anonymous": false,
      "inputs": [
        {
          "indexed": false,
          "internalType": "bool",
          "name": "isPublicVault",
          "type": "bool"
        }
      ],
      "name": "vaultPublic",
      "type": "event"
    },
    {
      "inputs": [],
      "name": "DEFAULT_ADMIN_ROLE",
      "outputs": [
        {
          "internalType": "bytes32",
          "name": "",
          "type": "bytes32"
        }
      ],
      "stateMutability": "view",
      "type": "function"
    },
    {
      "inputs": [],
      "name": "DOMAIN_SEPARATOR",
      "outputs": [
        {
          "internalType": "bytes32",
          "name": "",
          "type": "bytes32"
        }
      ],
      "stateMutability": "view",
      "type": "function"
    },
    {
      "inputs": [],
      "name": "UNDERLYING",
      "outputs": [
        {
          "internalType": "contract ERC20",
          "name": "",
          "type": "address"
        }
      ],
      "stateMutability": "view",
      "type": "function"
    },
    {
      "inputs": [],
      "name": "VAULT_FACTORY_ROLE",
      "outputs": [
        {
          "internalType": "bytes32",
          "name": "",
          "type": "bytes32"
        }
      ],
      "stateMutability": "view",
      "type": "function"
    },
    {
      "inputs": [],
      "name": "afterDepositHookCalledCounter",
      "outputs": [
        {
          "internalType": "uint256",
          "name": "",
          "type": "uint256"
        }
      ],
      "stateMutability": "view",
      "type": "function"
    },
    {
      "inputs": [
        {
          "internalType": "address",
          "name": "",
          "type": "address"
        },
        {
          "internalType": "address",
          "name": "",
          "type": "address"
        }
      ],
      "name": "allowance",
      "outputs": [
        {
          "internalType": "uint256",
          "name": "",
          "type": "uint256"
        }
      ],
      "stateMutability": "view",
      "type": "function"
    },
    {
      "inputs": [
        {
          "internalType": "address",
          "name": "spender",
          "type": "address"
        },
        {
          "internalType": "uint256",
          "name": "amount",
          "type": "uint256"
        }
      ],
      "name": "approve",
      "outputs": [
        {
          "internalType": "bool",
          "name": "",
          "type": "bool"
        }
      ],
      "stateMutability": "nonpayable",
      "type": "function"
    },
    {
      "inputs": [],
      "name": "asset",
      "outputs": [
        {
          "internalType": "contract ERC20",
          "name": "",
          "type": "address"
        }
      ],
      "stateMutability": "view",
      "type": "function"
    },
    {
      "inputs": [
        {
          "internalType": "address",
          "name": "",
          "type": "address"
        }
      ],
      "name": "balanceOf",
      "outputs": [
        {
          "internalType": "uint256",
          "name": "",
          "type": "uint256"
        }
      ],
      "stateMutability": "view",
      "type": "function"
    },
    {
      "inputs": [],
      "name": "beforeWithdrawHookCalledCounter",
      "outputs": [
        {
          "internalType": "uint256",
          "name": "",
          "type": "uint256"
        }
      ],
      "stateMutability": "view",
      "type": "function"
    },
    {
      "inputs": [
        {
          "internalType": "uint256",
          "name": "sVTokenAmount",
          "type": "uint256"
        }
      ],
      "name": "claimFees",
      "outputs": [],
      "stateMutability": "nonpayable",
      "type": "function"
    },
    {
      "inputs": [
        {
          "internalType": "uint256",
          "name": "shares",
          "type": "uint256"
        }
      ],
      "name": "convertToAssets",
      "outputs": [
        {
          "internalType": "uint256",
          "name": "",
          "type": "uint256"
        }
      ],
      "stateMutability": "view",
      "type": "function"
    },
    {
      "inputs": [
        {
          "internalType": "uint256",
          "name": "assets",
          "type": "uint256"
        }
      ],
      "name": "convertToShares",
      "outputs": [
        {
          "internalType": "uint256",
          "name": "",
          "type": "uint256"
        }
      ],
      "stateMutability": "view",
      "type": "function"
    },
    {
      "inputs": [],
      "name": "decimals",
      "outputs": [
        {
          "internalType": "uint8",
          "name": "",
          "type": "uint8"
        }
      ],
      "stateMutability": "view",
      "type": "function"
    },
    {
      "inputs": [
        {
          "internalType": "uint256",
          "name": "assets",
          "type": "uint256"
        },
        {
          "internalType": "address",
          "name": "receiver",
          "type": "address"
        }
      ],
      "name": "deposit",
      "outputs": [
        {
          "internalType": "uint256",
          "name": "shares",
          "type": "uint256"
        }
      ],
      "stateMutability": "nonpayable",
      "type": "function"
    },
    {
      "inputs": [],
      "name": "destroy",
      "outputs": [],
      "stateMutability": "nonpayable",
      "type": "function"
    },
    {
      "inputs": [],
      "name": "feePercent",
      "outputs": [
        {
          "internalType": "uint256",
          "name": "",
          "type": "uint256"
        }
      ],
      "stateMutability": "view",
      "type": "function"
    },
    {
      "inputs": [
        {
          "internalType": "bytes32",
          "name": "role",
          "type": "bytes32"
        }
      ],
      "name": "getRoleAdmin",
      "outputs": [
        {
          "internalType": "bytes32",
          "name": "",
          "type": "bytes32"
        }
      ],
      "stateMutability": "view",
      "type": "function"
    },
    {
      "inputs": [
        {
          "internalType": "bytes32",
          "name": "role",
          "type": "bytes32"
        },
        {
          "internalType": "address",
          "name": "account",
          "type": "address"
        }
      ],
      "name": "grantRole",
      "outputs": [],
      "stateMutability": "nonpayable",
      "type": "function"
    },
    {
      "inputs": [
        {
          "internalType": "bytes32",
          "name": "role",
          "type": "bytes32"
        },
        {
          "internalType": "address",
          "name": "account",
          "type": "address"
        }
      ],
      "name": "hasRole",
      "outputs": [
        {
          "internalType": "bool",
          "name": "",
          "type": "bool"
        }
      ],
      "stateMutability": "view",
      "type": "function"
    },
    {
      "inputs": [
        {
          "internalType": "address",
          "name": "_searcher",
          "type": "address"
        },
        {
          "internalType": "uint160",
          "name": "_duration",
          "type": "uint160"
        }
      ],
      "name": "initialize",
      "outputs": [],
      "stateMutability": "nonpayable",
      "type": "function"
    },
    {
      "inputs": [
        {
          "internalType": "address",
          "name": "_underlying",
          "type": "address"
        },
        {
          "internalType": "address",
          "name": "_managerAddress",
          "type": "address"
        },
        {
          "internalType": "string",
          "name": "_name",
          "type": "string"
        },
        {
          "internalType": "string",
          "name": "_symbol",
          "type": "string"
        },
        {
          "internalType": "uint8",
          "name": "_decimals",
          "type": "uint8"
        }
      ],
      "name": "initializeBeaconProxy",
      "outputs": [],
      "stateMutability": "nonpayable",
      "type": "function"
    },
    {
      "inputs": [
        {
          "internalType": "address",
          "name": "_underlying",
          "type": "address"
        },
        {
          "internalType": "string",
          "name": "_name",
          "type": "string"
        },
        {
          "internalType": "string",
          "name": "_symbol",
          "type": "string"
        },
        {
          "internalType": "uint8",
          "name": "_decimals",
          "type": "uint8"
        }
      ],
      "name": "initializeERC4626",
      "outputs": [],
      "stateMutability": "nonpayable",
      "type": "function"
    },
    {
      "inputs": [],
      "name": "isInitialized",
      "outputs": [
        {
          "internalType": "bool",
          "name": "",
          "type": "bool"
        }
      ],
      "stateMutability": "view",
      "type": "function"
    },
    {
      "inputs": [],
      "name": "isPublic",
      "outputs": [
        {
          "internalType": "bool",
          "name": "",
          "type": "bool"
        }
      ],
      "stateMutability": "view",
      "type": "function"
    },
    {
      "inputs": [],
      "name": "manager",
      "outputs": [
        {
          "internalType": "address",
          "name": "",
          "type": "address"
        }
      ],
      "stateMutability": "view",
      "type": "function"
    },
    {
      "inputs": [
        {
          "internalType": "address",
          "name": "",
          "type": "address"
        }
      ],
      "name": "maxDeposit",
      "outputs": [
        {
          "internalType": "uint256",
          "name": "",
          "type": "uint256"
        }
      ],
      "stateMutability": "view",
      "type": "function"
    },
    {
      "inputs": [
        {
          "internalType": "address",
          "name": "",
          "type": "address"
        }
      ],
      "name": "maxMint",
      "outputs": [
        {
          "internalType": "uint256",
          "name": "",
          "type": "uint256"
        }
      ],
      "stateMutability": "view",
      "type": "function"
    },
    {
      "inputs": [
        {
          "internalType": "address",
          "name": "owner",
          "type": "address"
        }
      ],
      "name": "maxRedeem",
      "outputs": [
        {
          "internalType": "uint256",
          "name": "",
          "type": "uint256"
        }
      ],
      "stateMutability": "view",
      "type": "function"
    },
    {
      "inputs": [
        {
          "internalType": "address",
          "name": "owner",
          "type": "address"
        }
      ],
      "name": "maxWithdraw",
      "outputs": [
        {
          "internalType": "uint256",
          "name": "",
          "type": "uint256"
        }
      ],
      "stateMutability": "view",
      "type": "function"
    },
    {
      "inputs": [
        {
          "internalType": "uint256",
          "name": "shares",
          "type": "uint256"
        },
        {
          "internalType": "address",
          "name": "receiver",
          "type": "address"
        }
      ],
      "name": "mint",
      "outputs": [
        {
          "internalType": "uint256",
          "name": "assets",
          "type": "uint256"
        }
      ],
      "stateMutability": "nonpayable",
      "type": "function"
    },
    {
      "inputs": [],
      "name": "name",
      "outputs": [
        {
          "internalType": "string",
          "name": "",
          "type": "string"
        }
      ],
      "stateMutability": "view",
      "type": "function"
    },
    {
      "inputs": [
        {
          "internalType": "address",
          "name": "",
          "type": "address"
        }
      ],
      "name": "nonces",
      "outputs": [
        {
          "internalType": "uint256",
          "name": "",
          "type": "uint256"
        }
      ],
      "stateMutability": "view",
      "type": "function"
    },
    {
      "inputs": [
        {
          "internalType": "address",
          "name": "owner",
          "type": "address"
        },
        {
          "internalType": "address",
          "name": "spender",
          "type": "address"
        },
        {
          "internalType": "uint256",
          "name": "value",
          "type": "uint256"
        },
        {
          "internalType": "uint256",
          "name": "deadline",
          "type": "uint256"
        },
        {
          "internalType": "uint8",
          "name": "v",
          "type": "uint8"
        },
        {
          "internalType": "bytes32",
          "name": "r",
          "type": "bytes32"
        },
        {
          "internalType": "bytes32",
          "name": "s",
          "type": "bytes32"
        }
      ],
      "name": "permit",
      "outputs": [],
      "stateMutability": "nonpayable",
      "type": "function"
    },
    {
      "inputs": [
        {
          "internalType": "uint256",
          "name": "assets",
          "type": "uint256"
        }
      ],
      "name": "previewDeposit",
      "outputs": [
        {
          "internalType": "uint256",
          "name": "",
          "type": "uint256"
        }
      ],
      "stateMutability": "view",
      "type": "function"
    },
    {
      "inputs": [
        {
          "internalType": "uint256",
          "name": "shares",
          "type": "uint256"
        }
      ],
      "name": "previewMint",
      "outputs": [
        {
          "internalType": "uint256",
          "name": "",
          "type": "uint256"
        }
      ],
      "stateMutability": "view",
      "type": "function"
    },
    {
      "inputs": [
        {
          "internalType": "uint256",
          "name": "shares",
          "type": "uint256"
        }
      ],
      "name": "previewRedeem",
      "outputs": [
        {
          "internalType": "uint256",
          "name": "",
          "type": "uint256"
        }
      ],
      "stateMutability": "view",
      "type": "function"
    },
    {
      "inputs": [
        {
          "internalType": "uint256",
          "name": "assets",
          "type": "uint256"
        }
      ],
      "name": "previewWithdraw",
      "outputs": [
        {
          "internalType": "uint256",
          "name": "",
          "type": "uint256"
        }
      ],
      "stateMutability": "view",
      "type": "function"
    },
    {
      "inputs": [
        {
          "internalType": "uint256",
          "name": "shares",
          "type": "uint256"
        },
        {
          "internalType": "address",
          "name": "receiver",
          "type": "address"
        },
        {
          "internalType": "address",
          "name": "owner",
          "type": "address"
        }
      ],
      "name": "redeem",
      "outputs": [
        {
          "internalType": "uint256",
          "name": "assets",
          "type": "uint256"
        }
      ],
      "stateMutability": "nonpayable",
      "type": "function"
    },
    {
      "inputs": [],
      "name": "renounceOwnership",
      "outputs": [],
      "stateMutability": "nonpayable",
      "type": "function"
    },
    {
      "inputs": [
        {
          "internalType": "bytes32",
          "name": "role",
          "type": "bytes32"
        },
        {
          "internalType": "address",
          "name": "account",
          "type": "address"
        }
      ],
      "name": "renounceRole",
      "outputs": [],
      "stateMutability": "nonpayable",
      "type": "function"
    },
    {
      "inputs": [
        {
          "internalType": "bytes32",
          "name": "role",
          "type": "bytes32"
        },
        {
          "internalType": "address",
          "name": "account",
          "type": "address"
        }
      ],
      "name": "revokeRole",
      "outputs": [],
      "stateMutability": "nonpayable",
      "type": "function"
    },
    {
      "inputs": [
        {
          "internalType": "uint256",
          "name": "newFeePercent",
          "type": "uint256"
        }
      ],
      "name": "setFeePercent",
      "outputs": [],
      "stateMutability": "nonpayable",
      "type": "function"
    },
    {
      "inputs": [
        {
          "internalType": "uint256",
          "name": "newTargetFloatPercent",
          "type": "uint256"
        }
      ],
      "name": "setTargetFloatPercent",
      "outputs": [],
      "stateMutability": "nonpayable",
      "type": "function"
    },
    {
      "inputs": [
        {
          "internalType": "bool",
          "name": "newUnderlyingIsWETH",
          "type": "bool"
        }
      ],
      "name": "setUnderlyingIsWETH",
      "outputs": [],
      "stateMutability": "nonpayable",
      "type": "function"
    },
    {
      "inputs": [
        {
          "internalType": "bytes4",
          "name": "interfaceId",
          "type": "bytes4"
        }
      ],
      "name": "supportsInterface",
      "outputs": [
        {
          "internalType": "bool",
          "name": "",
          "type": "bool"
        }
      ],
      "stateMutability": "view",
      "type": "function"
    },
    {
      "inputs": [],
      "name": "symbol",
      "outputs": [
        {
          "internalType": "string",
          "name": "",
          "type": "string"
        }
      ],
      "stateMutability": "view",
      "type": "function"
    },
    {
      "inputs": [],
      "name": "targetFloatPercent",
      "outputs": [
        {
          "internalType": "uint256",
          "name": "",
          "type": "uint256"
        }
      ],
      "stateMutability": "view",
      "type": "function"
    },
    {
      "inputs": [],
      "name": "totalAssets",
      "outputs": [
        {
          "internalType": "uint256",
          "name": "",
          "type": "uint256"
        }
      ],
      "stateMutability": "view",
      "type": "function"
    },
    {
      "inputs": [],
      "name": "totalStrategyHoldings",
      "outputs": [
        {
          "internalType": "uint256",
          "name": "",
          "type": "uint256"
        }
      ],
      "stateMutability": "view",
      "type": "function"
    },
    {
      "inputs": [],
      "name": "totalSupply",
      "outputs": [
        {
          "internalType": "uint256",
          "name": "",
          "type": "uint256"
        }
      ],
      "stateMutability": "view",
      "type": "function"
    },
    {
      "inputs": [
        {
          "internalType": "address",
          "name": "to",
          "type": "address"
        },
        {
          "internalType": "uint256",
          "name": "amount",
          "type": "uint256"
        }
      ],
      "name": "transfer",
      "outputs": [
        {
          "internalType": "bool",
          "name": "",
          "type": "bool"
        }
      ],
      "stateMutability": "nonpayable",
      "type": "function"
    },
    {
      "inputs": [
        {
          "internalType": "address",
          "name": "from",
          "type": "address"
        },
        {
          "internalType": "address",
          "name": "to",
          "type": "address"
        },
        {
          "internalType": "uint256",
          "name": "amount",
          "type": "uint256"
        }
      ],
      "name": "transferFrom",
      "outputs": [
        {
          "internalType": "bool",
          "name": "",
          "type": "bool"
        }
      ],
      "stateMutability": "nonpayable",
      "type": "function"
    },
    {
      "inputs": [
        {
          "internalType": "address",
          "name": "newOwner",
          "type": "address"
        }
      ],
      "name": "transferOwnership",
      "outputs": [],
      "stateMutability": "nonpayable",
      "type": "function"
    },
    {
      "inputs": [],
      "name": "underlyingIsWETH",
      "outputs": [
        {
          "internalType": "bool",
          "name": "",
          "type": "bool"
        }
      ],
      "stateMutability": "view",
      "type": "function"
    },
    {
      "inputs": [
        {
          "internalType": "uint256",
          "name": "assets",
          "type": "uint256"
        },
        {
          "internalType": "address",
          "name": "receiver",
          "type": "address"
        },
        {
          "internalType": "address",
          "name": "owner",
          "type": "address"
        }
      ],
      "name": "withdraw",
      "outputs": [
        {
          "internalType": "uint256",
          "name": "shares",
          "type": "uint256"
        }
      ],
      "stateMutability": "nonpayable",
      "type": "function"
    },
    {
      "stateMutability": "payable",
      "type": "receive"
    }
  ],
  "bytecode": "0x60806040526000600c556000600d553480156200001b57600080fd5b50620000316000801b336200003760201b60201c565b620001b2565b6200004982826200004d60201b60201c565b5050565b6200005f82826200013f60201b60201c565b6200013b576001600a600084815260200190815260200160002060000160008373ffffffffffffffffffffffffffffffffffffffff1673ffffffffffffffffffffffffffffffffffffffff16815260200190815260200160002060006101000a81548160ff021916908315150217905550620000e0620001aa60201b60201c565b73ffffffffffffffffffffffffffffffffffffffff168173ffffffffffffffffffffffffffffffffffffffff16837f2f8788117e7eff1d82e926ec794901d17c78024a50270940304540a733656f0d60405160405180910390a45b5050565b6000600a600084815260200190815260200160002060000160008373ffffffffffffffffffffffffffffffffffffffff1673ffffffffffffffffffffffffffffffffffffffff16815260200190815260200160002060009054906101000a900460ff16905092915050565b600033905090565b61541780620001c26000396000f3fe60806040526004361061036f5760003560e01c80638bf0a96e116101c6578063c5d664c6116100f7578063dc9a153511610095578063ef8b30f71161006f578063ef8b30f714610d85578063f2fde38b14610dc2578063f84d73f414610deb578063fc407ae714610e1657610376565b8063dc9a153514610cf2578063dd62ed3e14610d1d578063ecad956514610d5a57610376565b8063ce96cb77116100d1578063ce96cb7714610c26578063d505accf14610c63578063d547741f14610c8c578063d905777e14610cb557610376565b8063c5d664c614610b81578063c63d75b614610bac578063c6e6f59214610be957610376565b8063ac68a74811610164578063b460af941161013e578063b460af9414610ab3578063ba08765214610af0578063bc368a8a14610b2d578063bd662f8814610b5857610376565b8063ac68a74814610a22578063b258a6f514610a4b578063b3d7f6b914610a7657610376565b806394bf804d116101a057806394bf804d1461095257806395d89b411461098f578063a217fddf146109ba578063a9059cbb146109e557610376565b80638bf0a96e146108c357806391d14854146108ec5780639309971c1461092957610376565b806336568abe116102a05780636e553f651161023e5780637ce3489b116102185780637ce3489b1461081b5780637ecebe00146108445780637fd6f15c1461088157806383197ef0146108ac57610376565b80636e553f651461078a57806370a08231146107c7578063715018a61461080457610376565b8063402d267d1161027a578063402d267d146106bc578063422f596f146106f9578063481c6a75146107225780634cdad5061461074d57610376565b806336568abe1461063d57806338d52e0f14610666578063392e53cd1461069157610376565b80631c6934781161030d5780632f2ff15d116102e75780632f2ff15d14610595578063313ce567146105be57806332ff7732146105e95780633644e5151461061257610376565b80631c693478146104f057806323b872dd1461051b578063248a9ca31461055857610376565b806307a2d13a1161034957806307a2d13a1461040e578063095ea7b31461044b5780630a28a4771461048857806318160ddd146104c557610376565b806301e1d1141461037b57806301ffc9a7146103a657806306fdde03146103e357610376565b3661037657005b600080fd5b34801561038757600080fd5b50610390610e41565b60405161039d9190613ad6565b60405180910390f35b3480156103b257600080fd5b506103cd60048036038101906103c89190613b5d565b610ef3565b6040516103da9190613ba5565b60405180910390f35b3480156103ef57600080fd5b506103f8610f6d565b6040516104059190613c59565b60405180910390f35b34801561041a57600080fd5b5061043560048036038101906104309190613ca7565b610ffb565b6040516104429190613ad6565b60405180910390f35b34801561045757600080fd5b50610472600480360381019061046d9190613d32565b611036565b60405161047f9190613ba5565b60405180910390f35b34801561049457600080fd5b506104af60048036038101906104aa9190613ca7565b611128565b6040516104bc9190613ad6565b60405180910390f35b3480156104d157600080fd5b506104da611163565b6040516104e79190613ad6565b60405180910390f35b3480156104fc57600080fd5b50610505611169565b6040516105129190613ad6565b60405180910390f35b34801561052757600080fd5b50610542600480360381019061053d9190613d72565b61116f565b60405161054f9190613ba5565b60405180910390f35b34801561056457600080fd5b5061057f600480360381019061057a9190613dfb565b6113b9565b60405161058c9190613e37565b60405180910390f35b3480156105a157600080fd5b506105bc60048036038101906105b79190613e52565b6113d9565b005b3480156105ca57600080fd5b506105d36113fa565b6040516105e09190613eae565b60405180910390f35b3480156105f557600080fd5b50610610600480360381019061060b9190613ef5565b61140d565b005b34801561061e57600080fd5b506106276115db565b6040516106349190613e37565b60405180910390f35b34801561064957600080fd5b50610664600480360381019061065f9190613e52565b6115fc565b005b34801561067257600080fd5b5061067b61167f565b6040516106889190613f81565b60405180910390f35b34801561069d57600080fd5b506106a66116a5565b6040516106b39190613ba5565b60405180910390f35b3480156106c857600080fd5b506106e360048036038101906106de9190613f9c565b6116b8565b6040516106f09190613ad6565b60405180910390f35b34801561070557600080fd5b50610720600480360381019061071b919061412a565b6116e2565b005b34801561072e57600080fd5b50610737611734565b60405161074491906141d8565b60405180910390f35b34801561075957600080fd5b50610774600480360381019061076f9190613ca7565b61175e565b6040516107819190613ad6565b60405180910390f35b34801561079657600080fd5b506107b160048036038101906107ac91906141f3565b611770565b6040516107be9190613ad6565b60405180910390f35b3480156107d357600080fd5b506107ee60048036038101906107e99190613f9c565b611890565b6040516107fb9190613ad6565b60405180910390f35b34801561081057600080fd5b506108196118a8565b005b34801561082757600080fd5b50610842600480360381019061083d9190613ca7565b6119de565b005b34801561085057600080fd5b5061086b60048036038101906108669190613f9c565b611af6565b6040516108789190613ad6565b60405180910390f35b34801561088d57600080fd5b50610896611b0e565b6040516108a39190613ad6565b60405180910390f35b3480156108b857600080fd5b506108c1611b14565b005b3480156108cf57600080fd5b506108ea60048036038101906108e5919061425f565b611ba2565b005b3480156108f857600080fd5b50610913600480360381019061090e9190613e52565b611d81565b6040516109209190613ba5565b60405180910390f35b34801561093557600080fd5b50610950600480360381019061094b919061429f565b611dec565b005b34801561095e57600080fd5b50610979600480360381019061097491906141f3565b611eca565b6040516109869190613ad6565b60405180910390f35b34801561099b57600080fd5b506109a4611fa7565b6040516109b19190613c59565b60405180910390f35b3480156109c657600080fd5b506109cf612035565b6040516109dc9190613e37565b60405180910390f35b3480156109f157600080fd5b50610a0c6004803603810190610a079190613d32565b61203c565b604051610a199190613ba5565b60405180910390f35b348015610a2e57600080fd5b50610a496004803603810190610a449190613ca7565b612150565b005b348015610a5757600080fd5b50610a606122a4565b604051610a6d9190613e37565b60405180910390f35b348015610a8257600080fd5b50610a9d6004803603810190610a989190613ca7565b6122c8565b604051610aaa9190613ad6565b60405180910390f35b348015610abf57600080fd5b50610ada6004803603810190610ad59190614352565b612303565b604051610ae79190613ad6565b60405180910390f35b348015610afc57600080fd5b50610b176004803603810190610b129190614352565b612560565b604051610b249190613ad6565b60405180910390f35b348015610b3957600080fd5b50610b42612801565b604051610b4f9190613ad6565b60405180910390f35b348015610b6457600080fd5b50610b7f6004803603810190610b7a9190613ca7565b612807565b005b348015610b8d57600080fd5b50610b9661291f565b604051610ba39190613f81565b60405180910390f35b348015610bb857600080fd5b50610bd36004803603810190610bce9190613f9c565b612945565b604051610be09190613ad6565b60405180910390f35b348015610bf557600080fd5b50610c106004803603810190610c0b9190613ca7565b61296f565b604051610c1d9190613ad6565b60405180910390f35b348015610c3257600080fd5b50610c4d6004803603810190610c489190613f9c565b6129aa565b604051610c5a9190613ad6565b60405180910390f35b348015610c6f57600080fd5b50610c8a6004803603810190610c8591906143a5565b6129fb565b005b348015610c9857600080fd5b50610cb36004803603810190610cae9190613e52565b612cf4565b005b348015610cc157600080fd5b50610cdc6004803603810190610cd79190613f9c565b612d15565b604051610ce99190613ad6565b60405180910390f35b348015610cfe57600080fd5b50610d07612d5e565b604051610d149190613ba5565b60405180910390f35b348015610d2957600080fd5b50610d446004803603810190610d3f9190614447565b612d71565b604051610d519190613ad6565b60405180910390f35b348015610d6657600080fd5b50610d6f612d96565b604051610d7c9190613ad6565b60405180910390f35b348015610d9157600080fd5b50610dac6004803603810190610da79190613ca7565b612d9c565b604051610db99190613ad6565b60405180910390f35b348015610dce57600080fd5b50610de96004803603810190610de49190613f9c565b612dae565b005b348015610df757600080fd5b50610e00612f53565b604051610e0d9190613ba5565b60405180910390f35b348015610e2257600080fd5b50610e2b612f66565b604051610e389190613ad6565b60405180910390f35b6000600960009054906101000a900473ffffffffffffffffffffffffffffffffffffffff1673ffffffffffffffffffffffffffffffffffffffff166370a08231306040518263ffffffff1660e01b8152600401610e9e91906141d8565b60206040518083038186803b158015610eb657600080fd5b505afa158015610eca573d6000803e3d6000fd5b505050506040513d601f19601f82011682018060405250810190610eee919061449c565b905090565b60007f7965db0b000000000000000000000000000000000000000000000000000000007bffffffffffffffffffffffffffffffffffffffffffffffffffffffff1916827bffffffffffffffffffffffffffffffffffffffffffffffffffffffff19161480610f665750610f6582612f6c565b5b9050919050565b60008054610f7a906144f8565b80601f0160208091040260200160405190810160405280929190818152602001828054610fa6906144f8565b8015610ff35780601f10610fc857610100808354040283529160200191610ff3565b820191906000526020600020905b815481529060010190602001808311610fd657829003601f168201915b505050505081565b60008060035490506000811461102c57611027611016610e41565b8285612fd69092919063ffffffff16565b61102e565b825b915050919050565b600081600560003373ffffffffffffffffffffffffffffffffffffffff1673ffffffffffffffffffffffffffffffffffffffff16815260200190815260200160002060008573ffffffffffffffffffffffffffffffffffffffff1673ffffffffffffffffffffffffffffffffffffffff168152602001908152602001600020819055508273ffffffffffffffffffffffffffffffffffffffff163373ffffffffffffffffffffffffffffffffffffffff167f8c5be1e5ebec7d5bd14f71427d1e84f3dd0314c0f7b2291e5b200ac8c7c3b925846040516111169190613ad6565b60405180910390a36001905092915050565b6000806003549050600081146111595761115481611144610e41565b85612ffe9092919063ffffffff16565b61115b565b825b915050919050565b60035481565b60115481565b600080600560008673ffffffffffffffffffffffffffffffffffffffff1673ffffffffffffffffffffffffffffffffffffffff16815260200190815260200160002060003373ffffffffffffffffffffffffffffffffffffffff1673ffffffffffffffffffffffffffffffffffffffff1681526020019081526020016000205490507fffffffffffffffffffffffffffffffffffffffffffffffffffffffffffffffff81146112a55782816112249190614559565b600560008773ffffffffffffffffffffffffffffffffffffffff1673ffffffffffffffffffffffffffffffffffffffff16815260200190815260200160002060003373ffffffffffffffffffffffffffffffffffffffff1673ffffffffffffffffffffffffffffffffffffffff168152602001908152602001600020819055505b82600460008773ffffffffffffffffffffffffffffffffffffffff1673ffffffffffffffffffffffffffffffffffffffff16815260200190815260200160002060008282546112f49190614559565b9250508190555082600460008673ffffffffffffffffffffffffffffffffffffffff1673ffffffffffffffffffffffffffffffffffffffff168152602001908152602001600020600082825401925050819055508373ffffffffffffffffffffffffffffffffffffffff168573ffffffffffffffffffffffffffffffffffffffff167fddf252ad1be2c89b69c2b068fc378daa952ba7f163c4a11628f55a4df523b3ef856040516113a59190613ad6565b60405180910390a360019150509392505050565b6000600a6000838152602001908152602001600020600101549050919050565b6113e2826113b9565b6113eb81613030565b6113f58383613044565b505050565b600260009054906101000a900460ff1681565b3373ffffffffffffffffffffffffffffffffffffffff1661142c611734565b73ffffffffffffffffffffffffffffffffffffffff1614611482576040517f08c379a0000000000000000000000000000000000000000000000000000000008152600401611479906145ff565b60405180910390fd5b80158061153157506012600f60009054906101000a900473ffffffffffffffffffffffffffffffffffffffff1673ffffffffffffffffffffffffffffffffffffffff1663313ce5676040518163ffffffff1660e01b815260040160206040518083038186803b1580156114f457600080fd5b505afa158015611508573d6000803e3d6000fd5b505050506040513d601f19601f8201168201806040525081019061152c9190614634565b60ff16145b611570576040517f08c379a0000000000000000000000000000000000000000000000000000000008152600401611567906146ad565b60405180910390fd5b80601260006101000a81548160ff0219169083151502179055503373ffffffffffffffffffffffffffffffffffffffff167f6375b140d4463d47b864f1f47e5d2893cc3478e73aedcc268b054fab0230a841826040516115d09190613ba5565b60405180910390a250565b600060065446146115f3576115ee613125565b6115f7565b6007545b905090565b6116046131b1565b73ffffffffffffffffffffffffffffffffffffffff168173ffffffffffffffffffffffffffffffffffffffff1614611671576040517f08c379a00000000000000000000000000000000000000000000000000000000081526004016116689061473f565b60405180910390fd5b61167b82826131b9565b5050565b600960009054906101000a900473ffffffffffffffffffffffffffffffffffffffff1681565b601460009054906101000a900460ff1681565b60007fffffffffffffffffffffffffffffffffffffffffffffffffffffffffffffffff9050919050565b83600960006101000a81548173ffffffffffffffffffffffffffffffffffffffff021916908373ffffffffffffffffffffffffffffffffffffffff16021790555061172e83838361329b565b50505050565b6000600b60009054906101000a900473ffffffffffffffffffffffffffffffffffffffff16905090565b600061176982610ffb565b9050919050565b60008061177c84612d9c565b91508114156117c0576040517f08c379a00000000000000000000000000000000000000000000000000000000081526004016117b7906147ab565b60405180910390fd5b61180f333085600960009054906101000a900473ffffffffffffffffffffffffffffffffffffffff1673ffffffffffffffffffffffffffffffffffffffff166132fe909392919063ffffffff16565b611819828261339d565b8173ffffffffffffffffffffffffffffffffffffffff163373ffffffffffffffffffffffffffffffffffffffff167fdcbc1c05240f31ff3ad067ef1ee35ce4997762752e3a095284754544f4c709d785846040516118789291906147cb565b60405180910390a361188a838261346d565b92915050565b60046020528060005260406000206000915090505481565b3373ffffffffffffffffffffffffffffffffffffffff166118c7611734565b73ffffffffffffffffffffffffffffffffffffffff161461191d576040517f08c379a0000000000000000000000000000000000000000000000000000000008152600401611914906145ff565b60405180910390fd5b600073ffffffffffffffffffffffffffffffffffffffff16600b60009054906101000a900473ffffffffffffffffffffffffffffffffffffffff1673ffffffffffffffffffffffffffffffffffffffff167f8be0079c531659141344cd1fd0a4f28419497f9722a3daafe3b4186f6b6457e060405160405180910390a36000600b60006101000a81548173ffffffffffffffffffffffffffffffffffffffff021916908373ffffffffffffffffffffffffffffffffffffffff160217905550565b3373ffffffffffffffffffffffffffffffffffffffff166119fd611734565b73ffffffffffffffffffffffffffffffffffffffff1614611a53576040517f08c379a0000000000000000000000000000000000000000000000000000000008152600401611a4a906145ff565b60405180910390fd5b670de0b6b3a7640000811115611a9e576040517f08c379a0000000000000000000000000000000000000000000000000000000008152600401611a9590614840565b60405180910390fd5b806010819055503373ffffffffffffffffffffffffffffffffffffffff167fec370615cc81fb334e5566fbc80664d9082377bf59288d64a79f3fbecf4323a982604051611aeb9190613ad6565b60405180910390a250565b60086020528060005260406000206000915090505481565b60105481565b3373ffffffffffffffffffffffffffffffffffffffff16611b33611734565b73ffffffffffffffffffffffffffffffffffffffff1614611b89576040517f08c379a0000000000000000000000000000000000000000000000000000000008152600401611b80906145ff565b60405180910390fd5b3373ffffffffffffffffffffffffffffffffffffffff16ff5b3373ffffffffffffffffffffffffffffffffffffffff16611bc1611734565b73ffffffffffffffffffffffffffffffffffffffff1614611c17576040517f08c379a0000000000000000000000000000000000000000000000000000000008152600401611c0e906145ff565b60405180910390fd5b601460009054906101000a900460ff1615611c67576040517f08c379a0000000000000000000000000000000000000000000000000000000008152600401611c5e906148ac565b60405180910390fd5b6001601460006101000a81548160ff0219169083151502179055506000600381905550611cae82620186a08373ffffffffffffffffffffffffffffffffffffffff16613489565b503373ffffffffffffffffffffffffffffffffffffffff167f908408e307fc569b417f6cbec5d5a06f44a0a505ac0479b47d421a4b2fd6a1e660405160405180910390a2601460019054906101000a900460ff1615611d44577fda9fcd4a22655136641ea6451669f22ddb60b968c2cd77b015da4796ad8faeb96001604051611d379190613ba5565b60405180910390a1611d7d565b7fda9fcd4a22655136641ea6451669f22ddb60b968c2cd77b015da4796ad8faeb96000604051611d749190613ba5565b60405180910390a15b5050565b6000600a600084815260200190815260200160002060000160008373ffffffffffffffffffffffffffffffffffffffff1673ffffffffffffffffffffffffffffffffffffffff16815260200190815260200160002060009054906101000a900460ff16905092915050565b84600f60006101000a81548173ffffffffffffffffffffffffffffffffffffffff021916908373ffffffffffffffffffffffffffffffffffffffff16021790555083600b60006101000a81548173ffffffffffffffffffffffffffffffffffffffff021916908373ffffffffffffffffffffffffffffffffffffffff160217905550600260009054906101000a900460ff16600a611e8a91906149ff565b600e819055507fffffffffffffffffffffffffffffffffffffffffffffffffffffffffffffffff600381905550611ec3858484846116e2565b5050505050565b6000611ed5836122c8565b9050611f26333083600960009054906101000a900473ffffffffffffffffffffffffffffffffffffffff1673ffffffffffffffffffffffffffffffffffffffff166132fe909392919063ffffffff16565b611f30828461339d565b8173ffffffffffffffffffffffffffffffffffffffff163373ffffffffffffffffffffffffffffffffffffffff167fdcbc1c05240f31ff3ad067ef1ee35ce4997762752e3a095284754544f4c709d78386604051611f8f9291906147cb565b60405180910390a3611fa1818461346d565b92915050565b60018054611fb4906144f8565b80601f0160208091040260200160405190810160405280929190818152602001828054611fe0906144f8565b801561202d5780601f106120025761010080835404028352916020019161202d565b820191906000526020600020905b81548152906001019060200180831161201057829003601f168201915b505050505081565b6000801b81565b600081600460003373ffffffffffffffffffffffffffffffffffffffff1673ffffffffffffffffffffffffffffffffffffffff168152602001908152602001600020600082825461208d9190614559565b9250508190555081600460008573ffffffffffffffffffffffffffffffffffffffff1673ffffffffffffffffffffffffffffffffffffffff168152602001908152602001600020600082825401925050819055508273ffffffffffffffffffffffffffffffffffffffff163373ffffffffffffffffffffffffffffffffffffffff167fddf252ad1be2c89b69c2b068fc378daa952ba7f163c4a11628f55a4df523b3ef8460405161213e9190613ad6565b60405180910390a36001905092915050565b3373ffffffffffffffffffffffffffffffffffffffff1661216f611734565b73ffffffffffffffffffffffffffffffffffffffff16146121c5576040517f08c379a00000000000000000000000000000000000000000000000000000000081526004016121bc906145ff565b60405180910390fd5b3373ffffffffffffffffffffffffffffffffffffffff167f9493e5bbe4e8e0ac67284469a2d677403d0378a85a59e341d3abc433d0d9a2098260405161220b9190613ad6565b60405180910390a23073ffffffffffffffffffffffffffffffffffffffff1663a9059cbb33836040518363ffffffff1660e01b815260040161224e929190614a4a565b602060405180830381600087803b15801561226857600080fd5b505af115801561227c573d6000803e3d6000fd5b505050506040513d601f19601f820116820180604052508101906122a09190614a88565b5050565b7f7c3948777991e30efc945b298d109fc7a0c0de63dd562adfea7f970336f317b081565b6000806003549050600081146122f9576122f46122e3610e41565b8285612ffe9092919063ffffffff16565b6122fb565b825b915050919050565b600061230e84611128565b90508173ffffffffffffffffffffffffffffffffffffffff163373ffffffffffffffffffffffffffffffffffffffff161461247a576000600560008473ffffffffffffffffffffffffffffffffffffffff1673ffffffffffffffffffffffffffffffffffffffff16815260200190815260200160002060003373ffffffffffffffffffffffffffffffffffffffff1673ffffffffffffffffffffffffffffffffffffffff1681526020019081526020016000205490507fffffffffffffffffffffffffffffffffffffffffffffffffffffffffffffffff81146124785781816123f79190614559565b600560008573ffffffffffffffffffffffffffffffffffffffff1673ffffffffffffffffffffffffffffffffffffffff16815260200190815260200160002060003373ffffffffffffffffffffffffffffffffffffffff1673ffffffffffffffffffffffffffffffffffffffff168152602001908152602001600020819055505b505b61248484826135bd565b61248e82826135d9565b8173ffffffffffffffffffffffffffffffffffffffff168373ffffffffffffffffffffffffffffffffffffffff163373ffffffffffffffffffffffffffffffffffffffff167ffbde797d201c681b91056529119e0b02407c7bb96a4a2c75c01fc9667232c8db87856040516125049291906147cb565b60405180910390a46125598385600960009054906101000a900473ffffffffffffffffffffffffffffffffffffffff1673ffffffffffffffffffffffffffffffffffffffff166136a99092919063ffffffff16565b9392505050565b60008173ffffffffffffffffffffffffffffffffffffffff163373ffffffffffffffffffffffffffffffffffffffff16146126cc576000600560008473ffffffffffffffffffffffffffffffffffffffff1673ffffffffffffffffffffffffffffffffffffffff16815260200190815260200160002060003373ffffffffffffffffffffffffffffffffffffffff1673ffffffffffffffffffffffffffffffffffffffff1681526020019081526020016000205490507fffffffffffffffffffffffffffffffffffffffffffffffffffffffffffffffff81146126ca5784816126499190614559565b600560008573ffffffffffffffffffffffffffffffffffffffff1673ffffffffffffffffffffffffffffffffffffffff16815260200190815260200160002060003373ffffffffffffffffffffffffffffffffffffffff1673ffffffffffffffffffffffffffffffffffffffff168152602001908152602001600020819055505b505b60006126d78561175e565b915081141561271b576040517f08c379a000000000000000000000000000000000000000000000000000000000815260040161271290614b01565b60405180910390fd5b61272581856135bd565b61272f82856135d9565b8173ffffffffffffffffffffffffffffffffffffffff168373ffffffffffffffffffffffffffffffffffffffff163373ffffffffffffffffffffffffffffffffffffffff167ffbde797d201c681b91056529119e0b02407c7bb96a4a2c75c01fc9667232c8db84886040516127a59291906147cb565b60405180910390a46127fa8382600960009054906101000a900473ffffffffffffffffffffffffffffffffffffffff1673ffffffffffffffffffffffffffffffffffffffff166136a99092919063ffffffff16565b9392505050565b600c5481565b3373ffffffffffffffffffffffffffffffffffffffff16612826611734565b73ffffffffffffffffffffffffffffffffffffffff161461287c576040517f08c379a0000000000000000000000000000000000000000000000000000000008152600401612873906145ff565b60405180910390fd5b670de0b6b3a76400008111156128c7576040517f08c379a00000000000000000000000000000000000000000000000000000000081526004016128be90614b6d565b60405180910390fd5b806011819055503373ffffffffffffffffffffffffffffffffffffffff167f95bc4480b51f4860106d42850bcae222cf3303fb2b7d433e896205e0ebefe369826040516129149190613ad6565b60405180910390a250565b600f60009054906101000a900473ffffffffffffffffffffffffffffffffffffffff1681565b60007fffffffffffffffffffffffffffffffffffffffffffffffffffffffffffffffff9050919050565b6000806003549050600081146129a05761299b8161298b610e41565b85612fd69092919063ffffffff16565b6129a2565b825b915050919050565b60006129f4600460008473ffffffffffffffffffffffffffffffffffffffff1673ffffffffffffffffffffffffffffffffffffffff16815260200190815260200160002054610ffb565b9050919050565b42841015612a3e576040517f08c379a0000000000000000000000000000000000000000000000000000000008152600401612a3590614bd9565b60405180910390fd5b60006001612a4a6115db565b7f6e71edae12b1b97f4d1f60370fef10105fa2faae0126114a169c64845d6126c98a8a8a600860008f73ffffffffffffffffffffffffffffffffffffffff1673ffffffffffffffffffffffffffffffffffffffff1681526020019081526020016000206000815480929190600101919050558b604051602001612ad296959493929190614bf9565b60405160208183030381529060405280519060200120604051602001612af9929190614cd2565b6040516020818303038152906040528051906020012085858560405160008152602001604052604051612b2f9493929190614d09565b6020604051602081039080840390855afa158015612b51573d6000803e3d6000fd5b505050602060405103519050600073ffffffffffffffffffffffffffffffffffffffff168173ffffffffffffffffffffffffffffffffffffffff1614158015612bc557508773ffffffffffffffffffffffffffffffffffffffff168173ffffffffffffffffffffffffffffffffffffffff16145b612c04576040517f08c379a0000000000000000000000000000000000000000000000000000000008152600401612bfb90614d9a565b60405180910390fd5b85600560008373ffffffffffffffffffffffffffffffffffffffff1673ffffffffffffffffffffffffffffffffffffffff16815260200190815260200160002060008973ffffffffffffffffffffffffffffffffffffffff1673ffffffffffffffffffffffffffffffffffffffff16815260200190815260200160002081905550508573ffffffffffffffffffffffffffffffffffffffff168773ffffffffffffffffffffffffffffffffffffffff167f8c5be1e5ebec7d5bd14f71427d1e84f3dd0314c0f7b2291e5b200ac8c7c3b92587604051612ce39190613ad6565b60405180910390a350505050505050565b612cfd826113b9565b612d0681613030565b612d1083836131b9565b505050565b6000600460008373ffffffffffffffffffffffffffffffffffffffff1673ffffffffffffffffffffffffffffffffffffffff168152602001908152602001600020549050919050565b601460019054906101000a900460ff1681565b6005602052816000526040600020602052806000526040600020600091509150505481565b60135481565b6000612da78261296f565b9050919050565b3373ffffffffffffffffffffffffffffffffffffffff16612dcd611734565b73ffffffffffffffffffffffffffffffffffffffff1614612e23576040517f08c379a0000000000000000000000000000000000000000000000000000000008152600401612e1a906145ff565b60405180910390fd5b600073ffffffffffffffffffffffffffffffffffffffff168173ffffffffffffffffffffffffffffffffffffffff161415612e93576040517f08c379a0000000000000000000000000000000000000000000000000000000008152600401612e8a90614e2c565b60405180910390fd5b8073ffffffffffffffffffffffffffffffffffffffff16600b60009054906101000a900473ffffffffffffffffffffffffffffffffffffffff1673ffffffffffffffffffffffffffffffffffffffff167f8be0079c531659141344cd1fd0a4f28419497f9722a3daafe3b4186f6b6457e060405160405180910390a380600b60006101000a81548173ffffffffffffffffffffffffffffffffffffffff021916908373ffffffffffffffffffffffffffffffffffffffff16021790555050565b601260009054906101000a900460ff1681565b600d5481565b60007f01ffc9a7000000000000000000000000000000000000000000000000000000007bffffffffffffffffffffffffffffffffffffffffffffffffffffffff1916827bffffffffffffffffffffffffffffffffffffffffffffffffffffffff1916149050919050565b60008284029050828482041484151782151516612ff257600080fd5b81810490509392505050565b6000828402905082848204148415178215151661301a57600080fd5b6001826001830304018115150290509392505050565b6130418161303c6131b1565b613741565b50565b61304e8282611d81565b613121576001600a600084815260200190815260200160002060000160008373ffffffffffffffffffffffffffffffffffffffff1673ffffffffffffffffffffffffffffffffffffffff16815260200190815260200160002060006101000a81548160ff0219169083151502179055506130c66131b1565b73ffffffffffffffffffffffffffffffffffffffff168173ffffffffffffffffffffffffffffffffffffffff16837f2f8788117e7eff1d82e926ec794901d17c78024a50270940304540a733656f0d60405160405180910390a45b5050565b60007f8b73c3c69bb8fe3d512ecc4cf759cc79239f7b179b0ffacaa9a75d522b39400f60006040516131579190614eeb565b60405180910390207fc89efdaa54c0f20c7adf612882df0950f5a951637e0307cdcb4c672f298b8bc64630604051602001613196959493929190614f02565b60405160208183030381529060405280519060200120905090565b600033905090565b6131c38282611d81565b15613297576000600a600084815260200190815260200160002060000160008373ffffffffffffffffffffffffffffffffffffffff1673ffffffffffffffffffffffffffffffffffffffff16815260200190815260200160002060006101000a81548160ff02191690831515021790555061323c6131b1565b73ffffffffffffffffffffffffffffffffffffffff168173ffffffffffffffffffffffffffffffffffffffff16837ff6391f5c32d9c69d2a47ea670b442974b53935d1edc7fd64eb21e047a839171b60405160405180910390a45b5050565b82600090805190602001906132b1929190613a1a565b5081600190805190602001906132c8929190613a1a565b5080600260006101000a81548160ff021916908360ff160217905550466006819055506132f3613125565b600781905550505050565b60006040517f23b872dd0000000000000000000000000000000000000000000000000000000081528460048201528360248201528260448201526020600060648360008a5af13d15601f3d1160016000511416171691505080613396576040517f08c379a000000000000000000000000000000000000000000000000000000000815260040161338d90614fa1565b60405180910390fd5b5050505050565b80600360008282546133af9190614fc1565b9250508190555080600460008473ffffffffffffffffffffffffffffffffffffffff1673ffffffffffffffffffffffffffffffffffffffff168152602001908152602001600020600082825401925050819055508173ffffffffffffffffffffffffffffffffffffffff16600073ffffffffffffffffffffffffffffffffffffffff167fddf252ad1be2c89b69c2b068fc378daa952ba7f163c4a11628f55a4df523b3ef836040516134619190613ad6565b60405180910390a35050565b600d600081548092919061348090615017565b91905055505050565b60008060008573ffffffffffffffffffffffffffffffffffffffff16846040516134b290615086565b60006040518083038185875af1925050503d80600081146134ef576040519150601f19603f3d011682016040523d82523d6000602084013e6134f4565b606091505b509150915081613539576040517f08c379a0000000000000000000000000000000000000000000000000000000008152600401613530906150e7565b60405180910390fd5b3073ffffffffffffffffffffffffffffffffffffffff168673ffffffffffffffffffffffffffffffffffffffff167f921fce8b04203d2c416691cd9e563c8c78d2f6ac4d8f522a65f940640ff66091876040516135969190615138565b60405180910390a3808060200190518101906135b29190614a88565b925050509392505050565b600c60008154809291906135d090615017565b91905055505050565b80600460008473ffffffffffffffffffffffffffffffffffffffff1673ffffffffffffffffffffffffffffffffffffffff16815260200190815260200160002060008282546136289190614559565b9250508190555080600360008282540392505081905550600073ffffffffffffffffffffffffffffffffffffffff168273ffffffffffffffffffffffffffffffffffffffff167fddf252ad1be2c89b69c2b068fc378daa952ba7f163c4a11628f55a4df523b3ef8360405161369d9190613ad6565b60405180910390a35050565b60006040517fa9059cbb000000000000000000000000000000000000000000000000000000008152836004820152826024820152602060006044836000895af13d15601f3d116001600051141617169150508061373b576040517f08c379a00000000000000000000000000000000000000000000000000000000081526004016137329061519f565b60405180910390fd5b50505050565b61374b8282611d81565b6137da576137708173ffffffffffffffffffffffffffffffffffffffff1660146137de565b61377e8360001c60206137de565b60405160200161378f929190615288565b6040516020818303038152906040526040517f08c379a00000000000000000000000000000000000000000000000000000000081526004016137d19190613c59565b60405180910390fd5b5050565b6060600060028360026137f191906152c2565b6137fb9190614fc1565b67ffffffffffffffff81111561381457613813613fd3565b5b6040519080825280601f01601f1916602001820160405280156138465781602001600182028036833780820191505090505b5090507f30000000000000000000000000000000000000000000000000000000000000008160008151811061387e5761387d61531c565b5b60200101907effffffffffffffffffffffffffffffffffffffffffffffffffffffffffffff1916908160001a9053507f7800000000000000000000000000000000000000000000000000000000000000816001815181106138e2576138e161531c565b5b60200101907effffffffffffffffffffffffffffffffffffffffffffffffffffffffffffff1916908160001a9053506000600184600261392291906152c2565b61392c9190614fc1565b90505b60018111156139cc577f3031323334353637383961626364656600000000000000000000000000000000600f86166010811061396e5761396d61531c565b5b1a60f81b8282815181106139855761398461531c565b5b60200101907effffffffffffffffffffffffffffffffffffffffffffffffffffffffffffff1916908160001a905350600485901c9450806139c59061534b565b905061392f565b5060008414613a10576040517f08c379a0000000000000000000000000000000000000000000000000000000008152600401613a07906153c1565b60405180910390fd5b8091505092915050565b828054613a26906144f8565b90600052602060002090601f016020900481019282613a485760008555613a8f565b82601f10613a6157805160ff1916838001178555613a8f565b82800160010185558215613a8f579182015b82811115613a8e578251825591602001919060010190613a73565b5b509050613a9c9190613aa0565b5090565b5b80821115613ab9576000816000905550600101613aa1565b5090565b6000819050919050565b613ad081613abd565b82525050565b6000602082019050613aeb6000830184613ac7565b92915050565b6000604051905090565b600080fd5b600080fd5b60007fffffffff0000000000000000000000000000000000000000000000000000000082169050919050565b613b3a81613b05565b8114613b4557600080fd5b50565b600081359050613b5781613b31565b92915050565b600060208284031215613b7357613b72613afb565b5b6000613b8184828501613b48565b91505092915050565b60008115159050919050565b613b9f81613b8a565b82525050565b6000602082019050613bba6000830184613b96565b92915050565b600081519050919050565b600082825260208201905092915050565b60005b83811015613bfa578082015181840152602081019050613bdf565b83811115613c09576000848401525b50505050565b6000601f19601f8301169050919050565b6000613c2b82613bc0565b613c358185613bcb565b9350613c45818560208601613bdc565b613c4e81613c0f565b840191505092915050565b60006020820190508181036000830152613c738184613c20565b905092915050565b613c8481613abd565b8114613c8f57600080fd5b50565b600081359050613ca181613c7b565b92915050565b600060208284031215613cbd57613cbc613afb565b5b6000613ccb84828501613c92565b91505092915050565b600073ffffffffffffffffffffffffffffffffffffffff82169050919050565b6000613cff82613cd4565b9050919050565b613d0f81613cf4565b8114613d1a57600080fd5b50565b600081359050613d2c81613d06565b92915050565b60008060408385031215613d4957613d48613afb565b5b6000613d5785828601613d1d565b9250506020613d6885828601613c92565b9150509250929050565b600080600060608486031215613d8b57613d8a613afb565b5b6000613d9986828701613d1d565b9350506020613daa86828701613d1d565b9250506040613dbb86828701613c92565b9150509250925092565b6000819050919050565b613dd881613dc5565b8114613de357600080fd5b50565b600081359050613df581613dcf565b92915050565b600060208284031215613e1157613e10613afb565b5b6000613e1f84828501613de6565b91505092915050565b613e3181613dc5565b82525050565b6000602082019050613e4c6000830184613e28565b92915050565b60008060408385031215613e6957613e68613afb565b5b6000613e7785828601613de6565b9250506020613e8885828601613d1d565b9150509250929050565b600060ff82169050919050565b613ea881613e92565b82525050565b6000602082019050613ec36000830184613e9f565b92915050565b613ed281613b8a565b8114613edd57600080fd5b50565b600081359050613eef81613ec9565b92915050565b600060208284031215613f0b57613f0a613afb565b5b6000613f1984828501613ee0565b91505092915050565b6000819050919050565b6000613f47613f42613f3d84613cd4565b613f22565b613cd4565b9050919050565b6000613f5982613f2c565b9050919050565b6000613f6b82613f4e565b9050919050565b613f7b81613f60565b82525050565b6000602082019050613f966000830184613f72565b92915050565b600060208284031215613fb257613fb1613afb565b5b6000613fc084828501613d1d565b91505092915050565b600080fd5b600080fd5b7f4e487b7100000000000000000000000000000000000000000000000000000000600052604160045260246000fd5b61400b82613c0f565b810181811067ffffffffffffffff8211171561402a57614029613fd3565b5b80604052505050565b600061403d613af1565b90506140498282614002565b919050565b600067ffffffffffffffff82111561406957614068613fd3565b5b61407282613c0f565b9050602081019050919050565b82818337600083830152505050565b60006140a161409c8461404e565b614033565b9050828152602081018484840111156140bd576140bc613fce565b5b6140c884828561407f565b509392505050565b600082601f8301126140e5576140e4613fc9565b5b81356140f584826020860161408e565b91505092915050565b61410781613e92565b811461411257600080fd5b50565b600081359050614124816140fe565b92915050565b6000806000806080858703121561414457614143613afb565b5b600061415287828801613d1d565b945050602085013567ffffffffffffffff81111561417357614172613b00565b5b61417f878288016140d0565b935050604085013567ffffffffffffffff8111156141a05761419f613b00565b5b6141ac878288016140d0565b92505060606141bd87828801614115565b91505092959194509250565b6141d281613cf4565b82525050565b60006020820190506141ed60008301846141c9565b92915050565b6000806040838503121561420a57614209613afb565b5b600061421885828601613c92565b925050602061422985828601613d1d565b9150509250929050565b61423c81613cd4565b811461424757600080fd5b50565b60008135905061425981614233565b92915050565b6000806040838503121561427657614275613afb565b5b600061428485828601613d1d565b92505060206142958582860161424a565b9150509250929050565b600080600080600060a086880312156142bb576142ba613afb565b5b60006142c988828901613d1d565b95505060206142da88828901613d1d565b945050604086013567ffffffffffffffff8111156142fb576142fa613b00565b5b614307888289016140d0565b935050606086013567ffffffffffffffff81111561432857614327613b00565b5b614334888289016140d0565b925050608061434588828901614115565b9150509295509295909350565b60008060006060848603121561436b5761436a613afb565b5b600061437986828701613c92565b935050602061438a86828701613d1d565b925050604061439b86828701613d1d565b9150509250925092565b600080600080600080600060e0888a0312156143c4576143c3613afb565b5b60006143d28a828b01613d1d565b97505060206143e38a828b01613d1d565b96505060406143f48a828b01613c92565b95505060606144058a828b01613c92565b94505060806144168a828b01614115565b93505060a06144278a828b01613de6565b92505060c06144388a828b01613de6565b91505092959891949750929550565b6000806040838503121561445e5761445d613afb565b5b600061446c85828601613d1d565b925050602061447d85828601613d1d565b9150509250929050565b60008151905061449681613c7b565b92915050565b6000602082840312156144b2576144b1613afb565b5b60006144c084828501614487565b91505092915050565b7f4e487b7100000000000000000000000000000000000000000000000000000000600052602260045260246000fd5b6000600282049050600182168061451057607f821691505b60208210811415614524576145236144c9565b5b50919050565b7f4e487b7100000000000000000000000000000000000000000000000000000000600052601160045260246000fd5b600061456482613abd565b915061456f83613abd565b9250828210156145825761458161452a565b5b828203905092915050565b7f4f776e61626c653a2063616c6c6572206973206e6f7420746865206d616e616760008201527f6572000000000000000000000000000000000000000000000000000000000000602082015250565b60006145e9602283613bcb565b91506145f48261458d565b604082019050919050565b60006020820190508181036000830152614618816145dc565b9050919050565b60008151905061462e816140fe565b92915050565b60006020828403121561464a57614649613afb565b5b60006146588482850161461f565b91505092915050565b7f57524f4e475f444543494d414c53000000000000000000000000000000000000600082015250565b6000614697600e83613bcb565b91506146a282614661565b602082019050919050565b600060208201905081810360008301526146c68161468a565b9050919050565b7f416363657373436f6e74726f6c3a2063616e206f6e6c792072656e6f756e636560008201527f20726f6c657320666f722073656c660000000000000000000000000000000000602082015250565b6000614729602f83613bcb565b9150614734826146cd565b604082019050919050565b600060208201905081810360008301526147588161471c565b9050919050565b7f5a45524f5f534841524553000000000000000000000000000000000000000000600082015250565b6000614795600b83613bcb565b91506147a08261475f565b602082019050919050565b600060208201905081810360008301526147c481614788565b9050919050565b60006040820190506147e06000830185613ac7565b6147ed6020830184613ac7565b9392505050565b7f4645455f544f4f5f484947480000000000000000000000000000000000000000600082015250565b600061482a600c83613bcb565b9150614835826147f4565b602082019050919050565b600060208201905081810360008301526148598161481d565b9050919050565b7f414c52454144595f494e495449414c495a454400000000000000000000000000600082015250565b6000614896601383613bcb565b91506148a182614860565b602082019050919050565b600060208201905081810360008301526148c581614889565b9050919050565b60008160011c9050919050565b6000808291508390505b6001851115614923578086048111156148ff576148fe61452a565b5b600185161561490e5780820291505b808102905061491c856148cc565b94506148e3565b94509492505050565b60008261493c57600190506149f8565b8161494a57600090506149f8565b8160018114614960576002811461496a57614999565b60019150506149f8565b60ff84111561497c5761497b61452a565b5b8360020a9150848211156149935761499261452a565b5b506149f8565b5060208310610133831016604e8410600b84101617156149ce5782820a9050838111156149c9576149c861452a565b5b6149f8565b6149db84848460016148d9565b925090508184048111156149f2576149f161452a565b5b81810290505b9392505050565b6000614a0a82613abd565b9150614a1583613e92565b9250614a427fffffffffffffffffffffffffffffffffffffffffffffffffffffffffffffffff848461492c565b905092915050565b6000604082019050614a5f60008301856141c9565b614a6c6020830184613ac7565b9392505050565b600081519050614a8281613ec9565b92915050565b600060208284031215614a9e57614a9d613afb565b5b6000614aac84828501614a73565b91505092915050565b7f5a45524f5f415353455453000000000000000000000000000000000000000000600082015250565b6000614aeb600b83613bcb565b9150614af682614ab5565b602082019050919050565b60006020820190508181036000830152614b1a81614ade565b9050919050565b7f5441524745545f544f4f5f484947480000000000000000000000000000000000600082015250565b6000614b57600f83613bcb565b9150614b6282614b21565b602082019050919050565b60006020820190508181036000830152614b8681614b4a565b9050919050565b7f5045524d49545f444541444c494e455f45585049524544000000000000000000600082015250565b6000614bc3601783613bcb565b9150614bce82614b8d565b602082019050919050565b60006020820190508181036000830152614bf281614bb6565b9050919050565b600060c082019050614c0e6000830189613e28565b614c1b60208301886141c9565b614c2860408301876141c9565b614c356060830186613ac7565b614c426080830185613ac7565b614c4f60a0830184613ac7565b979650505050505050565b600081905092915050565b7f1901000000000000000000000000000000000000000000000000000000000000600082015250565b6000614c9b600283614c5a565b9150614ca682614c65565b600282019050919050565b6000819050919050565b614ccc614cc782613dc5565b614cb1565b82525050565b6000614cdd82614c8e565b9150614ce98285614cbb565b602082019150614cf98284614cbb565b6020820191508190509392505050565b6000608082019050614d1e6000830187613e28565b614d2b6020830186613e9f565b614d386040830185613e28565b614d456060830184613e28565b95945050505050565b7f494e56414c49445f5349474e4552000000000000000000000000000000000000600082015250565b6000614d84600e83613bcb565b9150614d8f82614d4e565b602082019050919050565b60006020820190508181036000830152614db381614d77565b9050919050565b7f4f776e61626c653a206e6577206d616e6167657220697320746865207a65726f60008201527f2061646472657373000000000000000000000000000000000000000000000000602082015250565b6000614e16602883613bcb565b9150614e2182614dba565b604082019050919050565b60006020820190508181036000830152614e4581614e09565b9050919050565b600081905092915050565b60008190508160005260206000209050919050565b60008154614e79816144f8565b614e838186614e4c565b94506001821660008114614e9e5760018114614eaf57614ee2565b60ff19831686528186019350614ee2565b614eb885614e57565b60005b83811015614eda57815481890152600182019150602081019050614ebb565b838801955050505b50505092915050565b6000614ef78284614e6c565b915081905092915050565b600060a082019050614f176000830188613e28565b614f246020830187613e28565b614f316040830186613e28565b614f3e6060830185613ac7565b614f4b60808301846141c9565b9695505050505050565b7f5452414e534645525f46524f4d5f4641494c4544000000000000000000000000600082015250565b6000614f8b601483613bcb565b9150614f9682614f55565b602082019050919050565b60006020820190508181036000830152614fba81614f7e565b9050919050565b6000614fcc82613abd565b9150614fd783613abd565b9250827fffffffffffffffffffffffffffffffffffffffffffffffffffffffffffffffff0382111561500c5761500b61452a565b5b828201905092915050565b600061502282613abd565b91507fffffffffffffffffffffffffffffffffffffffffffffffffffffffffffffffff8214156150555761505461452a565b5b600182019050919050565b50565b6000615070600083614e4c565b915061507b82615060565b600082019050919050565b600061509182615063565b9150819050919050565b7f53747261746567792041206661696c6564000000000000000000000000000000600082015250565b60006150d1601183613bcb565b91506150dc8261509b565b602082019050919050565b60006020820190508181036000830152615100816150c4565b9050919050565b600061512261511d61511884613cd4565b613f22565b613abd565b9050919050565b61513281615107565b82525050565b600060208201905061514d6000830184615129565b92915050565b7f5452414e534645525f4641494c45440000000000000000000000000000000000600082015250565b6000615189600f83613bcb565b915061519482615153565b602082019050919050565b600060208201905081810360008301526151b88161517c565b9050919050565b7f416363657373436f6e74726f6c3a206163636f756e7420000000000000000000600082015250565b60006151f5601783614c5a565b9150615200826151bf565b601782019050919050565b600061521682613bc0565b6152208185614c5a565b9350615230818560208601613bdc565b80840191505092915050565b7f206973206d697373696e6720726f6c6520000000000000000000000000000000600082015250565b6000615272601183614c5a565b915061527d8261523c565b601182019050919050565b6000615293826151e8565b915061529f828561520b565b91506152aa82615265565b91506152b6828461520b565b91508190509392505050565b60006152cd82613abd565b91506152d883613abd565b9250817fffffffffffffffffffffffffffffffffffffffffffffffffffffffffffffffff04831182151516156153115761531061452a565b5b828202905092915050565b7f4e487b7100000000000000000000000000000000000000000000000000000000600052603260045260246000fd5b600061535682613abd565b9150600082141561536a5761536961452a565b5b600182039050919050565b7f537472696e67733a20686578206c656e67746820696e73756666696369656e74600082015250565b60006153ab602083613bcb565b91506153b682615375565b602082019050919050565b600060208201905081810360008301526153da8161539e565b905091905056fea26469706673582212209964bfb011ca62cbe97e587cdb58c344c816185b4d1feedc518d3bb2f00b061564736f6c63430008080033",
  "linkReferences": {},
  "deployedLinkReferences": {}
}