{
  "_format": "hh-sol-artifact-1",
  "contractName": "DaiStrategy",
  "sourceName": "contracts/strategies/DaiStrategy.sol",
  "abi": [
    {
      "inputs": [
        {
          "internalType": "address",
          "name": "_squid",
          "type": "address"
        }
      ],
      "stateMutability": "nonpayable",
      "type": "constructor"
    },
    {
      "inputs": [],
      "name": "balanceC",
      "outputs": [
        {
          "internalType": "uint256",
          "name": "",
          "type": "uint256"
        }
      ],
      "stateMutability": "view",
      "type": "function"
    },
    {
      "inputs": [],
      "name": "balanceCInToken",
      "outputs": [
        {
          "internalType": "uint256",
          "name": "",
          "type": "uint256"
        }
      ],
      "stateMutability": "view",
      "type": "function"
    },
    {
      "inputs": [],
      "name": "balanceOf",
      "outputs": [
        {
          "internalType": "uint256",
          "name": "",
          "type": "uint256"
        }
      ],
      "stateMutability": "view",
      "type": "function"
    },
    {
      "inputs": [],
      "name": "balanceOfWant",
      "outputs": [
        {
          "internalType": "uint256",
          "name": "",
          "type": "uint256"
        }
      ],
      "stateMutability": "view",
      "type": "function"
    },
    {
      "inputs": [],
      "name": "cDAI",
      "outputs": [
        {
          "internalType": "address",
          "name": "",
          "type": "address"
        }
      ],
      "stateMutability": "view",
      "type": "function"
    },
    {
      "inputs": [],
      "name": "comp",
      "outputs": [
        {
          "internalType": "address",
          "name": "",
          "type": "address"
        }
      ],
      "stateMutability": "view",
      "type": "function"
    },
    {
      "inputs": [],
      "name": "compound",
      "outputs": [
        {
          "internalType": "contract Comptroller",
          "name": "",
          "type": "address"
        }
      ],
      "stateMutability": "view",
      "type": "function"
    },
    {
      "inputs": [],
      "name": "deposit",
      "outputs": [],
      "stateMutability": "nonpayable",
      "type": "function"
    },
    {
      "inputs": [],
      "name": "getName",
      "outputs": [
        {
          "internalType": "string",
          "name": "",
          "type": "string"
        }
      ],
      "stateMutability": "pure",
      "type": "function"
    },
    {
      "inputs": [],
      "name": "harvest",
      "outputs": [],
      "stateMutability": "nonpayable",
      "type": "function"
    },
    {
      "inputs": [],
      "name": "performanceFee",
      "outputs": [
        {
          "internalType": "uint256",
          "name": "",
          "type": "uint256"
        }
      ],
      "stateMutability": "view",
      "type": "function"
    },
    {
      "inputs": [],
      "name": "performanceMax",
      "outputs": [
        {
          "internalType": "uint256",
          "name": "",
          "type": "uint256"
        }
      ],
      "stateMutability": "view",
      "type": "function"
    },
    {
      "inputs": [
        {
          "internalType": "uint256",
          "name": "_performanceFee",
          "type": "uint256"
        }
      ],
      "name": "setPerformanceFee",
      "outputs": [],
      "stateMutability": "nonpayable",
      "type": "function"
    },
    {
      "inputs": [
        {
          "internalType": "uint256",
          "name": "_withdrawalFee",
          "type": "uint256"
        }
      ],
      "name": "setWithdrawalFee",
      "outputs": [],
      "stateMutability": "nonpayable",
      "type": "function"
    },
    {
      "inputs": [
        {
          "internalType": "address",
          "name": "_squid",
          "type": "address"
        }
      ],
      "name": "setsquid",
      "outputs": [],
      "stateMutability": "nonpayable",
      "type": "function"
    },
    {
      "inputs": [
        {
          "internalType": "address",
          "name": "_vaultManager",
          "type": "address"
        }
      ],
      "name": "setvaultManager",
      "outputs": [],
      "stateMutability": "nonpayable",
      "type": "function"
    },
    {
      "inputs": [],
      "name": "squid",
      "outputs": [
        {
          "internalType": "address",
          "name": "",
          "type": "address"
        }
      ],
      "stateMutability": "view",
      "type": "function"
    },
    {
      "inputs": [],
      "name": "uni",
      "outputs": [
        {
          "internalType": "address",
          "name": "",
          "type": "address"
        }
      ],
      "stateMutability": "view",
      "type": "function"
    },
    {
      "inputs": [],
      "name": "vaultManager",
      "outputs": [
        {
          "internalType": "address",
          "name": "",
          "type": "address"
        }
      ],
      "stateMutability": "view",
      "type": "function"
    },
    {
      "inputs": [],
      "name": "want",
      "outputs": [
        {
          "internalType": "address",
          "name": "",
          "type": "address"
        }
      ],
      "stateMutability": "view",
      "type": "function"
    },
    {
      "inputs": [],
      "name": "weth",
      "outputs": [
        {
          "internalType": "address",
          "name": "",
          "type": "address"
        }
      ],
      "stateMutability": "view",
      "type": "function"
    },
    {
      "inputs": [
        {
          "internalType": "uint256",
          "name": "_amount",
          "type": "uint256"
        }
      ],
      "name": "withdraw",
      "outputs": [],
      "stateMutability": "nonpayable",
      "type": "function"
    },
    {
      "inputs": [
        {
          "internalType": "contract IERC20",
          "name": "_asset",
          "type": "address"
        }
      ],
      "name": "withdraw",
      "outputs": [
        {
          "internalType": "uint256",
          "name": "balance",
          "type": "uint256"
        }
      ],
      "stateMutability": "nonpayable",
      "type": "function"
    },
    {
      "inputs": [],
      "name": "withdrawAll",
      "outputs": [
        {
          "internalType": "uint256",
          "name": "balance",
          "type": "uint256"
        }
      ],
      "stateMutability": "nonpayable",
      "type": "function"
    },
    {
      "inputs": [],
      "name": "withdrawalFee",
      "outputs": [
        {
          "internalType": "uint256",
          "name": "",
          "type": "uint256"
        }
      ],
      "stateMutability": "view",
      "type": "function"
    },
    {
      "inputs": [],
      "name": "withdrawalMax",
      "outputs": [
        {
          "internalType": "uint256",
          "name": "",
          "type": "uint256"
        }
      ],
      "stateMutability": "view",
      "type": "function"
    }
  ],
  "bytecode": "0x60806040526101f460005560326001553480156200001c57600080fd5b5060405162002e4638038062002e46833981810160405281019062000042919062000135565b33600260006101000a81548173ffffffffffffffffffffffffffffffffffffffff021916908373ffffffffffffffffffffffffffffffffffffffff16021790555080600360006101000a81548173ffffffffffffffffffffffffffffffffffffffff021916908373ffffffffffffffffffffffffffffffffffffffff1602179055505062000167565b600080fd5b600073ffffffffffffffffffffffffffffffffffffffff82169050919050565b6000620000fd82620000d0565b9050919050565b6200010f81620000f0565b81146200011b57600080fd5b50565b6000815190506200012f8162000104565b92915050565b6000602082840312156200014e576200014d620000cb565b5b60006200015e848285016200011e565b91505092915050565b612ccf80620001776000396000f3fe608060405234801561001057600080fd5b506004361061018e5760003560e01c8063722713f7116100de578063ac1e502511610097578063d0e30db011610071578063d0e30db01461041b578063d5c1ff7314610425578063edc9af9514610443578063f69e2046146104615761018e565b8063ac1e5025146103c3578063b655d653146103df578063c1a3d44c146103fd5761018e565b8063722713f71461030f5780637cc791131461032d578063853828b61461034b57806387788782146103695780638a4adf24146103875780638bc7e8c4146103a55761018e565b80633fc8cef31161014b57806351cff8d91161012557806351cff8d914610289578063655e2ad3146102b95780636f6941b9146102d557806370897b23146102f35761018e565b80633fc8cef3146102435780634254b506146102615780634641257d1461027f5761018e565b806307db12c814610193578063109d0af8146101af57806317d7de7c146101cd5780631f1fcd51146101eb5780632e10d36c146102095780632e1a7d4d14610227575b600080fd5b6101ad60048036038101906101a891906122c2565b61047f565b005b6101b7610553565b6040516101c491906122fe565b60405180910390f35b6101d561056b565b6040516101e291906123b2565b60405180910390f35b6101f36105a8565b60405161020091906122fe565b60405180910390f35b6102116105c0565b60405161021e91906122fe565b60405180910390f35b610241600480360381019061023c919061240a565b6105e6565b005b61024b610a8a565b60405161025891906122fe565b60405180910390f35b610269610aa2565b6040516102769190612446565b60405180910390f35b610287610b72565b005b6102a3600480360381019061029e919061249f565b6112be565b6040516102b09190612446565b60405180910390f35b6102d360048036038101906102ce91906122c2565b611619565b005b6102dd6116ed565b6040516102ea91906122fe565b60405180910390f35b61030d6004803603810190610308919061240a565b611705565b005b61031761179f565b6040516103249190612446565b60405180910390f35b6103356117c0565b6040516103429190612446565b60405180910390f35b6103536117c6565b6040516103609190612446565b60405180910390f35b610371611ad8565b60405161037e9190612446565b60405180910390f35b61038f611ade565b60405161039c91906122fe565b60405180910390f35b6103ad611b04565b6040516103ba9190612446565b60405180910390f35b6103dd60048036038101906103d8919061240a565b611b0a565b005b6103e7611ba4565b6040516103f49190612446565b60405180910390f35b610405611c48565b6040516104129190612446565b60405180910390f35b610423611cec565b005b61042d611fa7565b60405161043a9190612446565b60405180910390f35b61044b611fad565b60405161045891906122fe565b60405180910390f35b610469611fc5565b604051610476919061252b565b60405180910390f35b600260009054906101000a900473ffffffffffffffffffffffffffffffffffffffff1673ffffffffffffffffffffffffffffffffffffffff163373ffffffffffffffffffffffffffffffffffffffff161461050f576040517f08c379a000000000000000000000000000000000000000000000000000000000815260040161050690612592565b60405180910390fd5b80600360006101000a81548173ffffffffffffffffffffffffffffffffffffffff021916908373ffffffffffffffffffffffffffffffffffffffff16021790555050565b73c00e94cb662c3520282e6f5717214004a7f2688881565b60606040518060400160405280601481526020017f5374726174656779444149436f6d704261736963000000000000000000000000815250905090565b736b175474e89094c44da98b954eedeac495271d0f81565b600360009054906101000a900473ffffffffffffffffffffffffffffffffffffffff1681565b600360009054906101000a900473ffffffffffffffffffffffffffffffffffffffff1673ffffffffffffffffffffffffffffffffffffffff163373ffffffffffffffffffffffffffffffffffffffff1614610676576040517f08c379a000000000000000000000000000000000000000000000000000000000815260040161066d906125fe565b60405180910390fd5b6000736b175474e89094c44da98b954eedeac495271d0f73ffffffffffffffffffffffffffffffffffffffff166370a08231306040518263ffffffff1660e01b81526004016106c591906122fe565b60206040518083038186803b1580156106dd57600080fd5b505afa1580156106f1573d6000803e3d6000fd5b505050506040513d601f19601f820116820180604052508101906107159190612633565b90508181101561074457610733818361072e919061268f565b611fdd565b9150808261074191906126c3565b91505b6000612710600154846107579190612719565b61076191906127a2565b9050736b175474e89094c44da98b954eedeac495271d0f73ffffffffffffffffffffffffffffffffffffffff1663a9059cbb600360009054906101000a900473ffffffffffffffffffffffffffffffffffffffff1673ffffffffffffffffffffffffffffffffffffffff16639ec5a8946040518163ffffffff1660e01b815260040160206040518083038186803b1580156107fb57600080fd5b505afa15801561080f573d6000803e3d6000fd5b505050506040513d601f19601f8201168201806040525081019061083391906127e8565b836040518363ffffffff1660e01b8152600401610851929190612815565b602060405180830381600087803b15801561086b57600080fd5b505af115801561087f573d6000803e3d6000fd5b505050506040513d601f19601f820116820180604052508101906108a39190612876565b506000600360009054906101000a900473ffffffffffffffffffffffffffffffffffffffff1673ffffffffffffffffffffffffffffffffffffffff1663a622ee7c736b175474e89094c44da98b954eedeac495271d0f6040518263ffffffff1660e01b815260040161091591906122fe565b60206040518083038186803b15801561092d57600080fd5b505afa158015610941573d6000803e3d6000fd5b505050506040513d601f19601f8201168201806040525081019061096591906127e8565b9050600073ffffffffffffffffffffffffffffffffffffffff168173ffffffffffffffffffffffffffffffffffffffff1614156109d7576040517f08c379a00000000000000000000000000000000000000000000000000000000081526004016109ce906128ef565b60405180910390fd5b736b175474e89094c44da98b954eedeac495271d0f73ffffffffffffffffffffffffffffffffffffffff1663a9059cbb828487610a14919061268f565b6040518363ffffffff1660e01b8152600401610a31929190612815565b602060405180830381600087803b158015610a4b57600080fd5b505af1158015610a5f573d6000803e3d6000fd5b505050506040513d601f19601f82011682018060405250810190610a839190612876565b5050505050565b73c02aaa39b223fe8d0a0e5c4f27ead9083c756cc281565b600080610aad611ba4565b90506000811115610b6b57670de0b6b3a7640000735d3a536e4d6dbd6114cc1ead35777bab948e364373ffffffffffffffffffffffffffffffffffffffff1663182df0f56040518163ffffffff1660e01b815260040160206040518083038186803b158015610b1b57600080fd5b505afa158015610b2f573d6000803e3d6000fd5b505050506040513d601f19601f82011682018060405250810190610b539190612633565b610b5d91906127a2565b81610b689190612719565b90505b8091505090565b600260009054906101000a900473ffffffffffffffffffffffffffffffffffffffff1673ffffffffffffffffffffffffffffffffffffffff163373ffffffffffffffffffffffffffffffffffffffff1614610c02576040517f08c379a0000000000000000000000000000000000000000000000000000000008152600401610bf99061295b565b60405180910390fd5b733d9819210a31b4961b30ef54be2aed79b9c9cd3b73ffffffffffffffffffffffffffffffffffffffff1663e9af0292306040518263ffffffff1660e01b8152600401610c4f91906122fe565b600060405180830381600087803b158015610c6957600080fd5b505af1158015610c7d573d6000803e3d6000fd5b50505050600073c00e94cb662c3520282e6f5717214004a7f2688873ffffffffffffffffffffffffffffffffffffffff166370a08231306040518263ffffffff1660e01b8152600401610cd091906122fe565b60206040518083038186803b158015610ce857600080fd5b505afa158015610cfc573d6000803e3d6000fd5b505050506040513d601f19601f82011682018060405250810190610d209190612633565b905060008111156110a65773c00e94cb662c3520282e6f5717214004a7f2688873ffffffffffffffffffffffffffffffffffffffff1663095ea7b3737a250d5630b4cf539739df2c5dacb4c659f2488d60006040518363ffffffff1660e01b8152600401610d8f9291906129b6565b602060405180830381600087803b158015610da957600080fd5b505af1158015610dbd573d6000803e3d6000fd5b505050506040513d601f19601f82011682018060405250810190610de19190612876565b5073c00e94cb662c3520282e6f5717214004a7f2688873ffffffffffffffffffffffffffffffffffffffff1663095ea7b3737a250d5630b4cf539739df2c5dacb4c659f2488d836040518363ffffffff1660e01b8152600401610e45929190612815565b602060405180830381600087803b158015610e5f57600080fd5b505af1158015610e73573d6000803e3d6000fd5b505050506040513d601f19601f82011682018060405250810190610e979190612876565b506000600367ffffffffffffffff811115610eb557610eb46129df565b5b604051908082528060200260200182016040528015610ee35781602001602082028036833780820191505090505b50905073c00e94cb662c3520282e6f5717214004a7f2688881600081518110610f0f57610f0e612a0e565b5b602002602001019073ffffffffffffffffffffffffffffffffffffffff16908173ffffffffffffffffffffffffffffffffffffffff168152505073c02aaa39b223fe8d0a0e5c4f27ead9083c756cc281600181518110610f7257610f71612a0e565b5b602002602001019073ffffffffffffffffffffffffffffffffffffffff16908173ffffffffffffffffffffffffffffffffffffffff1681525050736b175474e89094c44da98b954eedeac495271d0f81600281518110610fd557610fd4612a0e565b5b602002602001019073ffffffffffffffffffffffffffffffffffffffff16908173ffffffffffffffffffffffffffffffffffffffff1681525050737a250d5630b4cf539739df2c5dacb4c659f2488d73ffffffffffffffffffffffffffffffffffffffff166338ed173983600084306107084261105291906126c3565b6040518663ffffffff1660e01b8152600401611072959493929190612afb565b600060405180830381600087803b15801561108c57600080fd5b505af11580156110a0573d6000803e3d6000fd5b50505050505b6000736b175474e89094c44da98b954eedeac495271d0f73ffffffffffffffffffffffffffffffffffffffff166370a08231306040518263ffffffff1660e01b81526004016110f591906122fe565b60206040518083038186803b15801561110d57600080fd5b505afa158015611121573d6000803e3d6000fd5b505050506040513d601f19601f820116820180604052508101906111459190612633565b905060008111156112ba576000612710600054836111639190612719565b61116d91906127a2565b9050736b175474e89094c44da98b954eedeac495271d0f73ffffffffffffffffffffffffffffffffffffffff1663a9059cbb600360009054906101000a900473ffffffffffffffffffffffffffffffffffffffff1673ffffffffffffffffffffffffffffffffffffffff16639ec5a8946040518163ffffffff1660e01b815260040160206040518083038186803b15801561120757600080fd5b505afa15801561121b573d6000803e3d6000fd5b505050506040513d601f19601f8201168201806040525081019061123f91906127e8565b836040518363ffffffff1660e01b815260040161125d929190612815565b602060405180830381600087803b15801561127757600080fd5b505af115801561128b573d6000803e3d6000fd5b505050506040513d601f19601f820116820180604052508101906112af9190612876565b506112b8611cec565b505b5050565b6000600360009054906101000a900473ffffffffffffffffffffffffffffffffffffffff1673ffffffffffffffffffffffffffffffffffffffff163373ffffffffffffffffffffffffffffffffffffffff1614611350576040517f08c379a0000000000000000000000000000000000000000000000000000000008152600401611347906125fe565b60405180910390fd5b8173ffffffffffffffffffffffffffffffffffffffff16736b175474e89094c44da98b954eedeac495271d0f73ffffffffffffffffffffffffffffffffffffffff1614156113d3576040517f08c379a00000000000000000000000000000000000000000000000000000000081526004016113ca90612ba1565b60405180910390fd5b8173ffffffffffffffffffffffffffffffffffffffff16735d3a536e4d6dbd6114cc1ead35777bab948e364373ffffffffffffffffffffffffffffffffffffffff161415611456576040517f08c379a000000000000000000000000000000000000000000000000000000000815260040161144d90612c0d565b60405180910390fd5b8173ffffffffffffffffffffffffffffffffffffffff1673c00e94cb662c3520282e6f5717214004a7f2688873ffffffffffffffffffffffffffffffffffffffff1614156114d9576040517f08c379a00000000000000000000000000000000000000000000000000000000081526004016114d090612c79565b60405180910390fd5b8173ffffffffffffffffffffffffffffffffffffffff166370a08231306040518263ffffffff1660e01b815260040161151291906122fe565b60206040518083038186803b15801561152a57600080fd5b505afa15801561153e573d6000803e3d6000fd5b505050506040513d601f19601f820116820180604052508101906115629190612633565b90508173ffffffffffffffffffffffffffffffffffffffff1663a9059cbb600360009054906101000a900473ffffffffffffffffffffffffffffffffffffffff16836040518363ffffffff1660e01b81526004016115c1929190612815565b602060405180830381600087803b1580156115db57600080fd5b505af11580156115ef573d6000803e3d6000fd5b505050506040513d601f19601f820116820180604052508101906116139190612876565b50919050565b600260009054906101000a900473ffffffffffffffffffffffffffffffffffffffff1673ffffffffffffffffffffffffffffffffffffffff163373ffffffffffffffffffffffffffffffffffffffff16146116a9576040517f08c379a00000000000000000000000000000000000000000000000000000000081526004016116a090612592565b60405180910390fd5b80600260006101000a81548173ffffffffffffffffffffffffffffffffffffffff021916908373ffffffffffffffffffffffffffffffffffffffff16021790555050565b735d3a536e4d6dbd6114cc1ead35777bab948e364381565b600260009054906101000a900473ffffffffffffffffffffffffffffffffffffffff1673ffffffffffffffffffffffffffffffffffffffff163373ffffffffffffffffffffffffffffffffffffffff1614611795576040517f08c379a000000000000000000000000000000000000000000000000000000000815260040161178c90612592565b60405180910390fd5b8060008190555050565b60006117a9610aa2565b6117b1611c48565b6117bb91906126c3565b905090565b61271081565b6000600360009054906101000a900473ffffffffffffffffffffffffffffffffffffffff1673ffffffffffffffffffffffffffffffffffffffff163373ffffffffffffffffffffffffffffffffffffffff1614611858576040517f08c379a000000000000000000000000000000000000000000000000000000000815260040161184f906125fe565b60405180910390fd5b611860612186565b736b175474e89094c44da98b954eedeac495271d0f73ffffffffffffffffffffffffffffffffffffffff166370a08231306040518263ffffffff1660e01b81526004016118ad91906122fe565b60206040518083038186803b1580156118c557600080fd5b505afa1580156118d9573d6000803e3d6000fd5b505050506040513d601f19601f820116820180604052508101906118fd9190612633565b90506000600360009054906101000a900473ffffffffffffffffffffffffffffffffffffffff1673ffffffffffffffffffffffffffffffffffffffff1663a622ee7c736b175474e89094c44da98b954eedeac495271d0f6040518263ffffffff1660e01b815260040161197091906122fe565b60206040518083038186803b15801561198857600080fd5b505afa15801561199c573d6000803e3d6000fd5b505050506040513d601f19601f820116820180604052508101906119c091906127e8565b9050600073ffffffffffffffffffffffffffffffffffffffff168173ffffffffffffffffffffffffffffffffffffffff161415611a32576040517f08c379a0000000000000000000000000000000000000000000000000000000008152600401611a29906128ef565b60405180910390fd5b736b175474e89094c44da98b954eedeac495271d0f73ffffffffffffffffffffffffffffffffffffffff1663a9059cbb82846040518363ffffffff1660e01b8152600401611a81929190612815565b602060405180830381600087803b158015611a9b57600080fd5b505af1158015611aaf573d6000803e3d6000fd5b505050506040513d601f19601f82011682018060405250810190611ad39190612876565b505090565b60005481565b600260009054906101000a900473ffffffffffffffffffffffffffffffffffffffff1681565b60015481565b600260009054906101000a900473ffffffffffffffffffffffffffffffffffffffff1673ffffffffffffffffffffffffffffffffffffffff163373ffffffffffffffffffffffffffffffffffffffff1614611b9a576040517f08c379a0000000000000000000000000000000000000000000000000000000008152600401611b9190612592565b60405180910390fd5b8060018190555050565b6000735d3a536e4d6dbd6114cc1ead35777bab948e364373ffffffffffffffffffffffffffffffffffffffff166370a08231306040518263ffffffff1660e01b8152600401611bf391906122fe565b60206040518083038186803b158015611c0b57600080fd5b505afa158015611c1f573d6000803e3d6000fd5b505050506040513d601f19601f82011682018060405250810190611c439190612633565b905090565b6000736b175474e89094c44da98b954eedeac495271d0f73ffffffffffffffffffffffffffffffffffffffff166370a08231306040518263ffffffff1660e01b8152600401611c9791906122fe565b60206040518083038186803b158015611caf57600080fd5b505afa158015611cc3573d6000803e3d6000fd5b505050506040513d601f19601f82011682018060405250810190611ce79190612633565b905090565b6000736b175474e89094c44da98b954eedeac495271d0f73ffffffffffffffffffffffffffffffffffffffff166370a08231306040518263ffffffff1660e01b8152600401611d3b91906122fe565b60206040518083038186803b158015611d5357600080fd5b505afa158015611d67573d6000803e3d6000fd5b505050506040513d601f19601f82011682018060405250810190611d8b9190612633565b90506000811115611fa457736b175474e89094c44da98b954eedeac495271d0f73ffffffffffffffffffffffffffffffffffffffff1663095ea7b3735d3a536e4d6dbd6114cc1ead35777bab948e364360006040518363ffffffff1660e01b8152600401611dfa9291906129b6565b602060405180830381600087803b158015611e1457600080fd5b505af1158015611e28573d6000803e3d6000fd5b505050506040513d601f19601f82011682018060405250810190611e4c9190612876565b50736b175474e89094c44da98b954eedeac495271d0f73ffffffffffffffffffffffffffffffffffffffff1663095ea7b3735d3a536e4d6dbd6114cc1ead35777bab948e3643836040518363ffffffff1660e01b8152600401611eb0929190612815565b602060405180830381600087803b158015611eca57600080fd5b505af1158015611ede573d6000803e3d6000fd5b505050506040513d601f19601f82011682018060405250810190611f029190612876565b50735d3a536e4d6dbd6114cc1ead35777bab948e364373ffffffffffffffffffffffffffffffffffffffff1663a0712d68826040518263ffffffff1660e01b8152600401611f509190612446565b602060405180830381600087803b158015611f6a57600080fd5b505af1158015611f7e573d6000803e3d6000fd5b505050506040513d601f19601f82011682018060405250810190611fa29190612633565b505b50565b61271081565b737a250d5630b4cf539739df2c5dacb4c659f2488d81565b733d9819210a31b4961b30ef54be2aed79b9c9cd3b81565b600080611fe8611ba4565b90506000611ff4610aa2565b9050600060018286856120079190612719565b61201191906127a2565b61201b91906126c3565b90506000736b175474e89094c44da98b954eedeac495271d0f73ffffffffffffffffffffffffffffffffffffffff166370a08231306040518263ffffffff1660e01b815260040161206c91906122fe565b60206040518083038186803b15801561208457600080fd5b505afa158015612098573d6000803e3d6000fd5b505050506040513d601f19601f820116820180604052508101906120bc9190612633565b90506120c7826121bc565b6000736b175474e89094c44da98b954eedeac495271d0f73ffffffffffffffffffffffffffffffffffffffff166370a08231306040518263ffffffff1660e01b815260040161211691906122fe565b60206040518083038186803b15801561212e57600080fd5b505afa158015612142573d6000803e3d6000fd5b505050506040513d601f19601f820116820180604052508101906121669190612633565b905060008282612176919061268f565b9050809650505050505050919050565b6000612190611ba4565b905060008111156121b9576121b760016121a8610aa2565b6121b2919061268f565b611fdd565b505b50565b735d3a536e4d6dbd6114cc1ead35777bab948e364373ffffffffffffffffffffffffffffffffffffffff1663db006a75826040518263ffffffff1660e01b81526004016122099190612446565b602060405180830381600087803b15801561222357600080fd5b505af1158015612237573d6000803e3d6000fd5b505050506040513d601f19601f8201168201806040525081019061225b9190612633565b5050565b600080fd5b600073ffffffffffffffffffffffffffffffffffffffff82169050919050565b600061228f82612264565b9050919050565b61229f81612284565b81146122aa57600080fd5b50565b6000813590506122bc81612296565b92915050565b6000602082840312156122d8576122d761225f565b5b60006122e6848285016122ad565b91505092915050565b6122f881612284565b82525050565b600060208201905061231360008301846122ef565b92915050565b600081519050919050565b600082825260208201905092915050565b60005b83811015612353578082015181840152602081019050612338565b83811115612362576000848401525b50505050565b6000601f19601f8301169050919050565b600061238482612319565b61238e8185612324565b935061239e818560208601612335565b6123a781612368565b840191505092915050565b600060208201905081810360008301526123cc8184612379565b905092915050565b6000819050919050565b6123e7816123d4565b81146123f257600080fd5b50565b600081359050612404816123de565b92915050565b6000602082840312156124205761241f61225f565b5b600061242e848285016123f5565b91505092915050565b612440816123d4565b82525050565b600060208201905061245b6000830184612437565b92915050565b600061246c82612284565b9050919050565b61247c81612461565b811461248757600080fd5b50565b60008135905061249981612473565b92915050565b6000602082840312156124b5576124b461225f565b5b60006124c38482850161248a565b91505092915050565b6000819050919050565b60006124f16124ec6124e784612264565b6124cc565b612264565b9050919050565b6000612503826124d6565b9050919050565b6000612515826124f8565b9050919050565b6125258161250a565b82525050565b6000602082019050612540600083018461251c565b92915050565b7f217661756c744d616e6167657200000000000000000000000000000000000000600082015250565b600061257c600d83612324565b915061258782612546565b602082019050919050565b600060208201905081810360008301526125ab8161256f565b9050919050565b7f2173717569640000000000000000000000000000000000000000000000000000600082015250565b60006125e8600683612324565b91506125f3826125b2565b602082019050919050565b60006020820190508181036000830152612617816125db565b9050919050565b60008151905061262d816123de565b92915050565b6000602082840312156126495761264861225f565b5b60006126578482850161261e565b91505092915050565b7f4e487b7100000000000000000000000000000000000000000000000000000000600052601160045260246000fd5b600061269a826123d4565b91506126a5836123d4565b9250828210156126b8576126b7612660565b5b828203905092915050565b60006126ce826123d4565b91506126d9836123d4565b9250827fffffffffffffffffffffffffffffffffffffffffffffffffffffffffffffffff0382111561270e5761270d612660565b5b828201905092915050565b6000612724826123d4565b915061272f836123d4565b9250817fffffffffffffffffffffffffffffffffffffffffffffffffffffffffffffffff048311821515161561276857612767612660565b5b828202905092915050565b7f4e487b7100000000000000000000000000000000000000000000000000000000600052601260045260246000fd5b60006127ad826123d4565b91506127b8836123d4565b9250826127c8576127c7612773565b5b828204905092915050565b6000815190506127e281612296565b92915050565b6000602082840312156127fe576127fd61225f565b5b600061280c848285016127d3565b91505092915050565b600060408201905061282a60008301856122ef565b6128376020830184612437565b9392505050565b60008115159050919050565b6128538161283e565b811461285e57600080fd5b50565b6000815190506128708161284a565b92915050565b60006020828403121561288c5761288b61225f565b5b600061289a84828501612861565b91505092915050565b7f217661756c740000000000000000000000000000000000000000000000000000600082015250565b60006128d9600683612324565b91506128e4826128a3565b602082019050919050565b60006020820190508181036000830152612908816128cc565b9050919050565b7f21617574686f72697a6564000000000000000000000000000000000000000000600082015250565b6000612945600b83612324565b91506129508261290f565b602082019050919050565b6000602082019050818103600083015261297481612938565b9050919050565b6000819050919050565b60006129a061299b6129968461297b565b6124cc565b6123d4565b9050919050565b6129b081612985565b82525050565b60006040820190506129cb60008301856122ef565b6129d860208301846129a7565b9392505050565b7f4e487b7100000000000000000000000000000000000000000000000000000000600052604160045260246000fd5b7f4e487b7100000000000000000000000000000000000000000000000000000000600052603260045260246000fd5b600081519050919050565b600082825260208201905092915050565b6000819050602082019050919050565b612a7281612284565b82525050565b6000612a848383612a69565b60208301905092915050565b6000602082019050919050565b6000612aa882612a3d565b612ab28185612a48565b9350612abd83612a59565b8060005b83811015612aee578151612ad58882612a78565b9750612ae083612a90565b925050600181019050612ac1565b5085935050505092915050565b600060a082019050612b106000830188612437565b612b1d6020830187612437565b8181036040830152612b2f8186612a9d565b9050612b3e60608301856122ef565b612b4b6080830184612437565b9695505050505050565b7f77616e7400000000000000000000000000000000000000000000000000000000600082015250565b6000612b8b600483612324565b9150612b9682612b55565b602082019050919050565b60006020820190508181036000830152612bba81612b7e565b9050919050565b7f6344414900000000000000000000000000000000000000000000000000000000600082015250565b6000612bf7600483612324565b9150612c0282612bc1565b602082019050919050565b60006020820190508181036000830152612c2681612bea565b9050919050565b7f636f6d7000000000000000000000000000000000000000000000000000000000600082015250565b6000612c63600483612324565b9150612c6e82612c2d565b602082019050919050565b60006020820190508181036000830152612c9281612c56565b905091905056fea26469706673582212200ed3247cf052ab6cd7f642f1dcccd44fceff38797369a9b73f84b37bb4583fbd64736f6c63430008080033",
  "linkReferences": {},
  "deployedLinkReferences": {}
}