{
  "_format": "hh-sol-artifact-1",
  "contractName": "DaiStrategy",
  "sourceName": "contracts/strategies/DaiStrategy.sol",
  "abi": [
    {
      "inputs": [
        {
          "internalType": "address",
          "name": "_squid",
          "type": "address"
        }
      ],
      "stateMutability": "nonpayable",
      "type": "constructor"
    },
    {
      "inputs": [],
      "name": "balanceC",
      "outputs": [
        {
          "internalType": "uint256",
          "name": "",
          "type": "uint256"
        }
      ],
      "stateMutability": "view",
      "type": "function"
    },
    {
      "inputs": [],
      "name": "balanceCInToken",
      "outputs": [
        {
          "internalType": "uint256",
          "name": "",
          "type": "uint256"
        }
      ],
      "stateMutability": "view",
      "type": "function"
    },
    {
      "inputs": [],
      "name": "balanceOf",
      "outputs": [
        {
          "internalType": "uint256",
          "name": "",
          "type": "uint256"
        }
      ],
      "stateMutability": "view",
      "type": "function"
    },
    {
      "inputs": [],
      "name": "balanceOfWant",
      "outputs": [
        {
          "internalType": "uint256",
          "name": "",
          "type": "uint256"
        }
      ],
      "stateMutability": "view",
      "type": "function"
    },
    {
      "inputs": [],
      "name": "cDAI",
      "outputs": [
        {
          "internalType": "address",
          "name": "",
          "type": "address"
        }
      ],
      "stateMutability": "view",
      "type": "function"
    },
    {
      "inputs": [],
      "name": "comp",
      "outputs": [
        {
          "internalType": "address",
          "name": "",
          "type": "address"
        }
      ],
      "stateMutability": "view",
      "type": "function"
    },
    {
      "inputs": [],
      "name": "compound",
      "outputs": [
        {
          "internalType": "contract Comptroller",
          "name": "",
          "type": "address"
        }
      ],
      "stateMutability": "view",
      "type": "function"
    },
    {
      "inputs": [],
      "name": "deposit",
      "outputs": [],
      "stateMutability": "nonpayable",
      "type": "function"
    },
    {
      "inputs": [],
      "name": "getName",
      "outputs": [
        {
          "internalType": "string",
          "name": "",
          "type": "string"
        }
      ],
      "stateMutability": "pure",
      "type": "function"
    },
    {
      "inputs": [],
      "name": "harvest",
      "outputs": [],
      "stateMutability": "nonpayable",
      "type": "function"
    },
    {
      "inputs": [],
      "name": "performanceFee",
      "outputs": [
        {
          "internalType": "uint256",
          "name": "",
          "type": "uint256"
        }
      ],
      "stateMutability": "view",
      "type": "function"
    },
    {
      "inputs": [],
      "name": "performanceMax",
      "outputs": [
        {
          "internalType": "uint256",
          "name": "",
          "type": "uint256"
        }
      ],
      "stateMutability": "view",
      "type": "function"
    },
    {
      "inputs": [
        {
          "internalType": "uint256",
          "name": "_performanceFee",
          "type": "uint256"
        }
      ],
      "name": "setPerformanceFee",
      "outputs": [],
      "stateMutability": "nonpayable",
      "type": "function"
    },
    {
      "inputs": [
        {
          "internalType": "uint256",
          "name": "_withdrawalFee",
          "type": "uint256"
        }
      ],
      "name": "setWithdrawalFee",
      "outputs": [],
      "stateMutability": "nonpayable",
      "type": "function"
    },
    {
      "inputs": [
        {
          "internalType": "address",
          "name": "_squid",
          "type": "address"
        }
      ],
      "name": "setsquid",
      "outputs": [],
      "stateMutability": "nonpayable",
      "type": "function"
    },
    {
      "inputs": [
        {
          "internalType": "address",
          "name": "_vaultManager",
          "type": "address"
        }
      ],
      "name": "setvaultManager",
      "outputs": [],
      "stateMutability": "nonpayable",
      "type": "function"
    },
    {
      "inputs": [],
      "name": "squid",
      "outputs": [
        {
          "internalType": "address",
          "name": "",
          "type": "address"
        }
      ],
      "stateMutability": "view",
      "type": "function"
    },
    {
      "inputs": [],
      "name": "uni",
      "outputs": [
        {
          "internalType": "address",
          "name": "",
          "type": "address"
        }
      ],
      "stateMutability": "view",
      "type": "function"
    },
    {
      "inputs": [],
      "name": "vaultManager",
      "outputs": [
        {
          "internalType": "address",
          "name": "",
          "type": "address"
        }
      ],
      "stateMutability": "view",
      "type": "function"
    },
    {
      "inputs": [],
      "name": "want",
      "outputs": [
        {
          "internalType": "address",
          "name": "",
          "type": "address"
        }
      ],
      "stateMutability": "view",
      "type": "function"
    },
    {
      "inputs": [],
      "name": "weth",
      "outputs": [
        {
          "internalType": "address",
          "name": "",
          "type": "address"
        }
      ],
      "stateMutability": "view",
      "type": "function"
    },
    {
      "inputs": [
        {
          "internalType": "uint256",
          "name": "_amount",
          "type": "uint256"
        }
      ],
      "name": "withdraw",
      "outputs": [],
      "stateMutability": "nonpayable",
      "type": "function"
    },
    {
      "inputs": [
        {
          "internalType": "contract IERC20",
          "name": "_asset",
          "type": "address"
        }
      ],
      "name": "withdraw",
      "outputs": [
        {
          "internalType": "uint256",
          "name": "balance",
          "type": "uint256"
        }
      ],
      "stateMutability": "nonpayable",
      "type": "function"
    },
    {
      "inputs": [],
      "name": "withdrawAll",
      "outputs": [
        {
          "internalType": "uint256",
          "name": "balance",
          "type": "uint256"
        }
      ],
      "stateMutability": "nonpayable",
      "type": "function"
    },
    {
      "inputs": [],
      "name": "withdrawalFee",
      "outputs": [
        {
          "internalType": "uint256",
          "name": "",
          "type": "uint256"
        }
      ],
      "stateMutability": "view",
      "type": "function"
    },
    {
      "inputs": [],
      "name": "withdrawalMax",
      "outputs": [
        {
          "internalType": "uint256",
          "name": "",
          "type": "uint256"
        }
      ],
      "stateMutability": "view",
      "type": "function"
    }
  ],
  "bytecode": "0x60806040526101f460005560326001553480156200001c57600080fd5b5060405162002cc038038062002cc0833981810160405281019062000042919062000135565b33600260006101000a81548173ffffffffffffffffffffffffffffffffffffffff021916908373ffffffffffffffffffffffffffffffffffffffff16021790555080600360006101000a81548173ffffffffffffffffffffffffffffffffffffffff021916908373ffffffffffffffffffffffffffffffffffffffff1602179055505062000167565b600080fd5b600073ffffffffffffffffffffffffffffffffffffffff82169050919050565b6000620000fd82620000d0565b9050919050565b6200010f81620000f0565b81146200011b57600080fd5b50565b6000815190506200012f8162000104565b92915050565b6000602082840312156200014e576200014d620000cb565b5b60006200015e848285016200011e565b91505092915050565b612b4980620001776000396000f3fe608060405234801561001057600080fd5b506004361061018e5760003560e01c8063722713f7116100de578063ac1e502511610097578063d0e30db011610071578063d0e30db01461041b578063d5c1ff7314610425578063edc9af9514610443578063f69e2046146104615761018e565b8063ac1e5025146103c3578063b655d653146103df578063c1a3d44c146103fd5761018e565b8063722713f71461030f5780637cc791131461032d578063853828b61461034b57806387788782146103695780638a4adf24146103875780638bc7e8c4146103a55761018e565b80633fc8cef31161014b57806351cff8d91161012557806351cff8d914610289578063655e2ad3146102b95780636f6941b9146102d557806370897b23146102f35761018e565b80633fc8cef3146102435780634254b506146102615780634641257d1461027f5761018e565b806307db12c814610193578063109d0af8146101af57806317d7de7c146101cd5780631f1fcd51146101eb5780632e10d36c146102095780632e1a7d4d14610227575b600080fd5b6101ad60048036038101906101a8919061213c565b61047f565b005b6101b7610553565b6040516101c49190612178565b60405180910390f35b6101d561056b565b6040516101e2919061222c565b60405180910390f35b6101f36105a8565b6040516102009190612178565b60405180910390f35b6102116105c0565b60405161021e9190612178565b60405180910390f35b610241600480360381019061023c9190612284565b6105e6565b005b61024b610a3f565b6040516102589190612178565b60405180910390f35b610269610a57565b60405161027691906122c0565b60405180910390f35b610287610b18565b005b6102a3600480360381019061029e9190612319565b61120a565b6040516102b091906122c0565b60405180910390f35b6102d360048036038101906102ce919061213c565b611547565b005b6102dd61161b565b6040516102ea9190612178565b60405180910390f35b61030d60048036038101906103089190612284565b611633565b005b6103176116cd565b60405161032491906122c0565b60405180910390f35b6103356116ee565b60405161034291906122c0565b60405180910390f35b6103536116f4565b60405161036091906122c0565b60405180910390f35b6103716119d9565b60405161037e91906122c0565b60405180910390f35b61038f6119df565b60405161039c9190612178565b60405180910390f35b6103ad611a05565b6040516103ba91906122c0565b60405180910390f35b6103dd60048036038101906103d89190612284565b611a0b565b005b6103e7611aa5565b6040516103f491906122c0565b60405180910390f35b610405611b3a565b60405161041291906122c0565b60405180910390f35b610423611bcf565b005b61042d611e4e565b60405161043a91906122c0565b60405180910390f35b61044b611e54565b6040516104589190612178565b60405180910390f35b610469611e6c565b60405161047691906123a5565b60405180910390f35b600260009054906101000a900473ffffffffffffffffffffffffffffffffffffffff1673ffffffffffffffffffffffffffffffffffffffff163373ffffffffffffffffffffffffffffffffffffffff161461050f576040517f08c379a00000000000000000000000000000000000000000000000000000000081526004016105069061240c565b60405180910390fd5b80600360006101000a81548173ffffffffffffffffffffffffffffffffffffffff021916908373ffffffffffffffffffffffffffffffffffffffff16021790555050565b73c00e94cb662c3520282e6f5717214004a7f2688881565b60606040518060400160405280601481526020017f5374726174656779444149436f6d704261736963000000000000000000000000815250905090565b736b175474e89094c44da98b954eedeac495271d0f81565b600360009054906101000a900473ffffffffffffffffffffffffffffffffffffffff1681565b600360009054906101000a900473ffffffffffffffffffffffffffffffffffffffff1673ffffffffffffffffffffffffffffffffffffffff163373ffffffffffffffffffffffffffffffffffffffff1614610676576040517f08c379a000000000000000000000000000000000000000000000000000000000815260040161066d90612478565b60405180910390fd5b6000736b175474e89094c44da98b954eedeac495271d0f73ffffffffffffffffffffffffffffffffffffffff166370a08231306040518263ffffffff1660e01b81526004016106c59190612178565b602060405180830381865afa1580156106e2573d6000803e3d6000fd5b505050506040513d601f19601f8201168201806040525081019061070691906124ad565b90508181101561073557610724818361071f9190612509565b611e84565b91508082610732919061253d565b91505b6000612710600154846107489190612593565b610752919061261c565b9050736b175474e89094c44da98b954eedeac495271d0f73ffffffffffffffffffffffffffffffffffffffff1663a9059cbb600360009054906101000a900473ffffffffffffffffffffffffffffffffffffffff1673ffffffffffffffffffffffffffffffffffffffff16639ec5a8946040518163ffffffff1660e01b8152600401602060405180830381865afa1580156107f1573d6000803e3d6000fd5b505050506040513d601f19601f820116820180604052508101906108159190612662565b836040518363ffffffff1660e01b815260040161083392919061268f565b6020604051808303816000875af1158015610852573d6000803e3d6000fd5b505050506040513d601f19601f8201168201806040525081019061087691906126f0565b506000600360009054906101000a900473ffffffffffffffffffffffffffffffffffffffff1673ffffffffffffffffffffffffffffffffffffffff1663a622ee7c736b175474e89094c44da98b954eedeac495271d0f6040518263ffffffff1660e01b81526004016108e89190612178565b602060405180830381865afa158015610905573d6000803e3d6000fd5b505050506040513d601f19601f820116820180604052508101906109299190612662565b9050600073ffffffffffffffffffffffffffffffffffffffff168173ffffffffffffffffffffffffffffffffffffffff16141561099b576040517f08c379a000000000000000000000000000000000000000000000000000000000815260040161099290612769565b60405180910390fd5b736b175474e89094c44da98b954eedeac495271d0f73ffffffffffffffffffffffffffffffffffffffff1663a9059cbb8284876109d89190612509565b6040518363ffffffff1660e01b81526004016109f592919061268f565b6020604051808303816000875af1158015610a14573d6000803e3d6000fd5b505050506040513d601f19601f82011682018060405250810190610a3891906126f0565b5050505050565b73c02aaa39b223fe8d0a0e5c4f27ead9083c756cc281565b600080610a62611aa5565b90506000811115610b1157670de0b6b3a7640000735d3a536e4d6dbd6114cc1ead35777bab948e364373ffffffffffffffffffffffffffffffffffffffff1663182df0f56040518163ffffffff1660e01b8152600401602060405180830381865afa158015610ad5573d6000803e3d6000fd5b505050506040513d601f19601f82011682018060405250810190610af991906124ad565b610b03919061261c565b81610b0e9190612593565b90505b8091505090565b600260009054906101000a900473ffffffffffffffffffffffffffffffffffffffff1673ffffffffffffffffffffffffffffffffffffffff163373ffffffffffffffffffffffffffffffffffffffff1614610ba8576040517f08c379a0000000000000000000000000000000000000000000000000000000008152600401610b9f906127d5565b60405180910390fd5b733d9819210a31b4961b30ef54be2aed79b9c9cd3b73ffffffffffffffffffffffffffffffffffffffff1663e9af0292306040518263ffffffff1660e01b8152600401610bf59190612178565b600060405180830381600087803b158015610c0f57600080fd5b505af1158015610c23573d6000803e3d6000fd5b50505050600073c00e94cb662c3520282e6f5717214004a7f2688873ffffffffffffffffffffffffffffffffffffffff166370a08231306040518263ffffffff1660e01b8152600401610c769190612178565b602060405180830381865afa158015610c93573d6000803e3d6000fd5b505050506040513d601f19601f82011682018060405250810190610cb791906124ad565b9050600081111561101f5773c00e94cb662c3520282e6f5717214004a7f2688873ffffffffffffffffffffffffffffffffffffffff1663095ea7b3737a250d5630b4cf539739df2c5dacb4c659f2488d60006040518363ffffffff1660e01b8152600401610d26929190612830565b6020604051808303816000875af1158015610d45573d6000803e3d6000fd5b505050506040513d601f19601f82011682018060405250810190610d6991906126f0565b5073c00e94cb662c3520282e6f5717214004a7f2688873ffffffffffffffffffffffffffffffffffffffff1663095ea7b3737a250d5630b4cf539739df2c5dacb4c659f2488d836040518363ffffffff1660e01b8152600401610dcd92919061268f565b6020604051808303816000875af1158015610dec573d6000803e3d6000fd5b505050506040513d601f19601f82011682018060405250810190610e1091906126f0565b506000600367ffffffffffffffff811115610e2e57610e2d612859565b5b604051908082528060200260200182016040528015610e5c5781602001602082028036833780820191505090505b50905073c00e94cb662c3520282e6f5717214004a7f2688881600081518110610e8857610e87612888565b5b602002602001019073ffffffffffffffffffffffffffffffffffffffff16908173ffffffffffffffffffffffffffffffffffffffff168152505073c02aaa39b223fe8d0a0e5c4f27ead9083c756cc281600181518110610eeb57610eea612888565b5b602002602001019073ffffffffffffffffffffffffffffffffffffffff16908173ffffffffffffffffffffffffffffffffffffffff1681525050736b175474e89094c44da98b954eedeac495271d0f81600281518110610f4e57610f4d612888565b5b602002602001019073ffffffffffffffffffffffffffffffffffffffff16908173ffffffffffffffffffffffffffffffffffffffff1681525050737a250d5630b4cf539739df2c5dacb4c659f2488d73ffffffffffffffffffffffffffffffffffffffff166338ed1739836000843061070842610fcb919061253d565b6040518663ffffffff1660e01b8152600401610feb959493929190612975565b600060405180830381600087803b15801561100557600080fd5b505af1158015611019573d6000803e3d6000fd5b50505050505b6000736b175474e89094c44da98b954eedeac495271d0f73ffffffffffffffffffffffffffffffffffffffff166370a08231306040518263ffffffff1660e01b815260040161106e9190612178565b602060405180830381865afa15801561108b573d6000803e3d6000fd5b505050506040513d601f19601f820116820180604052508101906110af91906124ad565b90506000811115611206576000612710600054836110cd9190612593565b6110d7919061261c565b9050736b175474e89094c44da98b954eedeac495271d0f73ffffffffffffffffffffffffffffffffffffffff1663a9059cbb600360009054906101000a900473ffffffffffffffffffffffffffffffffffffffff1673ffffffffffffffffffffffffffffffffffffffff16639ec5a8946040518163ffffffff1660e01b8152600401602060405180830381865afa158015611176573d6000803e3d6000fd5b505050506040513d601f19601f8201168201806040525081019061119a9190612662565b836040518363ffffffff1660e01b81526004016111b892919061268f565b6020604051808303816000875af11580156111d7573d6000803e3d6000fd5b505050506040513d601f19601f820116820180604052508101906111fb91906126f0565b50611204611bcf565b505b5050565b6000600360009054906101000a900473ffffffffffffffffffffffffffffffffffffffff1673ffffffffffffffffffffffffffffffffffffffff163373ffffffffffffffffffffffffffffffffffffffff161461129c576040517f08c379a000000000000000000000000000000000000000000000000000000000815260040161129390612478565b60405180910390fd5b8173ffffffffffffffffffffffffffffffffffffffff16736b175474e89094c44da98b954eedeac495271d0f73ffffffffffffffffffffffffffffffffffffffff16141561131f576040517f08c379a000000000000000000000000000000000000000000000000000000000815260040161131690612a1b565b60405180910390fd5b8173ffffffffffffffffffffffffffffffffffffffff16735d3a536e4d6dbd6114cc1ead35777bab948e364373ffffffffffffffffffffffffffffffffffffffff1614156113a2576040517f08c379a000000000000000000000000000000000000000000000000000000000815260040161139990612a87565b60405180910390fd5b8173ffffffffffffffffffffffffffffffffffffffff1673c00e94cb662c3520282e6f5717214004a7f2688873ffffffffffffffffffffffffffffffffffffffff161415611425576040517f08c379a000000000000000000000000000000000000000000000000000000000815260040161141c90612af3565b60405180910390fd5b8173ffffffffffffffffffffffffffffffffffffffff166370a08231306040518263ffffffff1660e01b815260040161145e9190612178565b602060405180830381865afa15801561147b573d6000803e3d6000fd5b505050506040513d601f19601f8201168201806040525081019061149f91906124ad565b90508173ffffffffffffffffffffffffffffffffffffffff1663a9059cbb600360009054906101000a900473ffffffffffffffffffffffffffffffffffffffff16836040518363ffffffff1660e01b81526004016114fe92919061268f565b6020604051808303816000875af115801561151d573d6000803e3d6000fd5b505050506040513d601f19601f8201168201806040525081019061154191906126f0565b50919050565b600260009054906101000a900473ffffffffffffffffffffffffffffffffffffffff1673ffffffffffffffffffffffffffffffffffffffff163373ffffffffffffffffffffffffffffffffffffffff16146115d7576040517f08c379a00000000000000000000000000000000000000000000000000000000081526004016115ce9061240c565b60405180910390fd5b80600260006101000a81548173ffffffffffffffffffffffffffffffffffffffff021916908373ffffffffffffffffffffffffffffffffffffffff16021790555050565b735d3a536e4d6dbd6114cc1ead35777bab948e364381565b600260009054906101000a900473ffffffffffffffffffffffffffffffffffffffff1673ffffffffffffffffffffffffffffffffffffffff163373ffffffffffffffffffffffffffffffffffffffff16146116c3576040517f08c379a00000000000000000000000000000000000000000000000000000000081526004016116ba9061240c565b60405180910390fd5b8060008190555050565b60006116d7610a57565b6116df611b3a565b6116e9919061253d565b905090565b61271081565b6000600360009054906101000a900473ffffffffffffffffffffffffffffffffffffffff1673ffffffffffffffffffffffffffffffffffffffff163373ffffffffffffffffffffffffffffffffffffffff1614611786576040517f08c379a000000000000000000000000000000000000000000000000000000000815260040161177d90612478565b60405180910390fd5b61178e61200f565b736b175474e89094c44da98b954eedeac495271d0f73ffffffffffffffffffffffffffffffffffffffff166370a08231306040518263ffffffff1660e01b81526004016117db9190612178565b602060405180830381865afa1580156117f8573d6000803e3d6000fd5b505050506040513d601f19601f8201168201806040525081019061181c91906124ad565b90506000600360009054906101000a900473ffffffffffffffffffffffffffffffffffffffff1673ffffffffffffffffffffffffffffffffffffffff1663a622ee7c736b175474e89094c44da98b954eedeac495271d0f6040518263ffffffff1660e01b815260040161188f9190612178565b602060405180830381865afa1580156118ac573d6000803e3d6000fd5b505050506040513d601f19601f820116820180604052508101906118d09190612662565b9050600073ffffffffffffffffffffffffffffffffffffffff168173ffffffffffffffffffffffffffffffffffffffff161415611942576040517f08c379a000000000000000000000000000000000000000000000000000000000815260040161193990612769565b60405180910390fd5b736b175474e89094c44da98b954eedeac495271d0f73ffffffffffffffffffffffffffffffffffffffff1663a9059cbb82846040518363ffffffff1660e01b815260040161199192919061268f565b6020604051808303816000875af11580156119b0573d6000803e3d6000fd5b505050506040513d601f19601f820116820180604052508101906119d491906126f0565b505090565b60005481565b600260009054906101000a900473ffffffffffffffffffffffffffffffffffffffff1681565b60015481565b600260009054906101000a900473ffffffffffffffffffffffffffffffffffffffff1673ffffffffffffffffffffffffffffffffffffffff163373ffffffffffffffffffffffffffffffffffffffff1614611a9b576040517f08c379a0000000000000000000000000000000000000000000000000000000008152600401611a929061240c565b60405180910390fd5b8060018190555050565b6000735d3a536e4d6dbd6114cc1ead35777bab948e364373ffffffffffffffffffffffffffffffffffffffff166370a08231306040518263ffffffff1660e01b8152600401611af49190612178565b602060405180830381865afa158015611b11573d6000803e3d6000fd5b505050506040513d601f19601f82011682018060405250810190611b3591906124ad565b905090565b6000736b175474e89094c44da98b954eedeac495271d0f73ffffffffffffffffffffffffffffffffffffffff166370a08231306040518263ffffffff1660e01b8152600401611b899190612178565b602060405180830381865afa158015611ba6573d6000803e3d6000fd5b505050506040513d601f19601f82011682018060405250810190611bca91906124ad565b905090565b6000736b175474e89094c44da98b954eedeac495271d0f73ffffffffffffffffffffffffffffffffffffffff166370a08231306040518263ffffffff1660e01b8152600401611c1e9190612178565b602060405180830381865afa158015611c3b573d6000803e3d6000fd5b505050506040513d601f19601f82011682018060405250810190611c5f91906124ad565b90506000811115611e4b57736b175474e89094c44da98b954eedeac495271d0f73ffffffffffffffffffffffffffffffffffffffff1663095ea7b3735d3a536e4d6dbd6114cc1ead35777bab948e364360006040518363ffffffff1660e01b8152600401611cce929190612830565b6020604051808303816000875af1158015611ced573d6000803e3d6000fd5b505050506040513d601f19601f82011682018060405250810190611d1191906126f0565b50736b175474e89094c44da98b954eedeac495271d0f73ffffffffffffffffffffffffffffffffffffffff1663095ea7b3735d3a536e4d6dbd6114cc1ead35777bab948e3643836040518363ffffffff1660e01b8152600401611d7592919061268f565b6020604051808303816000875af1158015611d94573d6000803e3d6000fd5b505050506040513d601f19601f82011682018060405250810190611db891906126f0565b50735d3a536e4d6dbd6114cc1ead35777bab948e364373ffffffffffffffffffffffffffffffffffffffff1663a0712d68826040518263ffffffff1660e01b8152600401611e0691906122c0565b6020604051808303816000875af1158015611e25573d6000803e3d6000fd5b505050506040513d601f19601f82011682018060405250810190611e4991906124ad565b505b50565b61271081565b737a250d5630b4cf539739df2c5dacb4c659f2488d81565b733d9819210a31b4961b30ef54be2aed79b9c9cd3b81565b600080611e8f611aa5565b90506000611e9b610a57565b905060006001828685611eae9190612593565b611eb8919061261c565b611ec2919061253d565b90506000736b175474e89094c44da98b954eedeac495271d0f73ffffffffffffffffffffffffffffffffffffffff166370a08231306040518263ffffffff1660e01b8152600401611f139190612178565b602060405180830381865afa158015611f30573d6000803e3d6000fd5b505050506040513d601f19601f82011682018060405250810190611f5491906124ad565b9050611f5f82612045565b6000736b175474e89094c44da98b954eedeac495271d0f73ffffffffffffffffffffffffffffffffffffffff166370a08231306040518263ffffffff1660e01b8152600401611fae9190612178565b602060405180830381865afa158015611fcb573d6000803e3d6000fd5b505050506040513d601f19601f82011682018060405250810190611fef91906124ad565b905060008282611fff9190612509565b9050809650505050505050919050565b6000612019611aa5565b90506000811115612042576120406001612031610a57565b61203b9190612509565b611e84565b505b50565b735d3a536e4d6dbd6114cc1ead35777bab948e364373ffffffffffffffffffffffffffffffffffffffff1663db006a75826040518263ffffffff1660e01b815260040161209291906122c0565b6020604051808303816000875af11580156120b1573d6000803e3d6000fd5b505050506040513d601f19601f820116820180604052508101906120d591906124ad565b5050565b600080fd5b600073ffffffffffffffffffffffffffffffffffffffff82169050919050565b6000612109826120de565b9050919050565b612119816120fe565b811461212457600080fd5b50565b60008135905061213681612110565b92915050565b600060208284031215612152576121516120d9565b5b600061216084828501612127565b91505092915050565b612172816120fe565b82525050565b600060208201905061218d6000830184612169565b92915050565b600081519050919050565b600082825260208201905092915050565b60005b838110156121cd5780820151818401526020810190506121b2565b838111156121dc576000848401525b50505050565b6000601f19601f8301169050919050565b60006121fe82612193565b612208818561219e565b93506122188185602086016121af565b612221816121e2565b840191505092915050565b6000602082019050818103600083015261224681846121f3565b905092915050565b6000819050919050565b6122618161224e565b811461226c57600080fd5b50565b60008135905061227e81612258565b92915050565b60006020828403121561229a576122996120d9565b5b60006122a88482850161226f565b91505092915050565b6122ba8161224e565b82525050565b60006020820190506122d560008301846122b1565b92915050565b60006122e6826120fe565b9050919050565b6122f6816122db565b811461230157600080fd5b50565b600081359050612313816122ed565b92915050565b60006020828403121561232f5761232e6120d9565b5b600061233d84828501612304565b91505092915050565b6000819050919050565b600061236b612366612361846120de565b612346565b6120de565b9050919050565b600061237d82612350565b9050919050565b600061238f82612372565b9050919050565b61239f81612384565b82525050565b60006020820190506123ba6000830184612396565b92915050565b7f217661756c744d616e6167657200000000000000000000000000000000000000600082015250565b60006123f6600d8361219e565b9150612401826123c0565b602082019050919050565b60006020820190508181036000830152612425816123e9565b9050919050565b7f2173717569640000000000000000000000000000000000000000000000000000600082015250565b600061246260068361219e565b915061246d8261242c565b602082019050919050565b6000602082019050818103600083015261249181612455565b9050919050565b6000815190506124a781612258565b92915050565b6000602082840312156124c3576124c26120d9565b5b60006124d184828501612498565b91505092915050565b7f4e487b7100000000000000000000000000000000000000000000000000000000600052601160045260246000fd5b60006125148261224e565b915061251f8361224e565b925082821015612532576125316124da565b5b828203905092915050565b60006125488261224e565b91506125538361224e565b9250827fffffffffffffffffffffffffffffffffffffffffffffffffffffffffffffffff03821115612588576125876124da565b5b828201905092915050565b600061259e8261224e565b91506125a98361224e565b9250817fffffffffffffffffffffffffffffffffffffffffffffffffffffffffffffffff04831182151516156125e2576125e16124da565b5b828202905092915050565b7f4e487b7100000000000000000000000000000000000000000000000000000000600052601260045260246000fd5b60006126278261224e565b91506126328361224e565b925082612642576126416125ed565b5b828204905092915050565b60008151905061265c81612110565b92915050565b600060208284031215612678576126776120d9565b5b60006126868482850161264d565b91505092915050565b60006040820190506126a46000830185612169565b6126b160208301846122b1565b9392505050565b60008115159050919050565b6126cd816126b8565b81146126d857600080fd5b50565b6000815190506126ea816126c4565b92915050565b600060208284031215612706576127056120d9565b5b6000612714848285016126db565b91505092915050565b7f217661756c740000000000000000000000000000000000000000000000000000600082015250565b600061275360068361219e565b915061275e8261271d565b602082019050919050565b6000602082019050818103600083015261278281612746565b9050919050565b7f21617574686f72697a6564000000000000000000000000000000000000000000600082015250565b60006127bf600b8361219e565b91506127ca82612789565b602082019050919050565b600060208201905081810360008301526127ee816127b2565b9050919050565b6000819050919050565b600061281a612815612810846127f5565b612346565b61224e565b9050919050565b61282a816127ff565b82525050565b60006040820190506128456000830185612169565b6128526020830184612821565b9392505050565b7f4e487b7100000000000000000000000000000000000000000000000000000000600052604160045260246000fd5b7f4e487b7100000000000000000000000000000000000000000000000000000000600052603260045260246000fd5b600081519050919050565b600082825260208201905092915050565b6000819050602082019050919050565b6128ec816120fe565b82525050565b60006128fe83836128e3565b60208301905092915050565b6000602082019050919050565b6000612922826128b7565b61292c81856128c2565b9350612937836128d3565b8060005b8381101561296857815161294f88826128f2565b975061295a8361290a565b92505060018101905061293b565b5085935050505092915050565b600060a08201905061298a60008301886122b1565b61299760208301876122b1565b81810360408301526129a98186612917565b90506129b86060830185612169565b6129c560808301846122b1565b9695505050505050565b7f77616e7400000000000000000000000000000000000000000000000000000000600082015250565b6000612a0560048361219e565b9150612a10826129cf565b602082019050919050565b60006020820190508181036000830152612a34816129f8565b9050919050565b7f6344414900000000000000000000000000000000000000000000000000000000600082015250565b6000612a7160048361219e565b9150612a7c82612a3b565b602082019050919050565b60006020820190508181036000830152612aa081612a64565b9050919050565b7f636f6d7000000000000000000000000000000000000000000000000000000000600082015250565b6000612add60048361219e565b9150612ae882612aa7565b602082019050919050565b60006020820190508181036000830152612b0c81612ad0565b905091905056fea2646970667358221220ae789d648e3af64c2711da09a03142cc5767a8321d809ea2e651a4e438b6b4e764736f6c634300080a0033",
  "linkReferences": {},
  "deployedLinkReferences": {}
}