{
  "_format": "hh-sol-artifact-1",
  "contractName": "Vault",
  "sourceName": "contracts/Vault.sol",
  "abi": [
    {
      "inputs": [
        {
          "internalType": "contract ERC20",
          "name": "_underlying",
          "type": "address"
        },
        {
          "internalType": "address",
          "name": "_vaultManager",
          "type": "address"
        },
        {
          "internalType": "string",
          "name": "_name",
          "type": "string"
        },
        {
          "internalType": "string",
          "name": "_symbol",
          "type": "string"
        },
        {
          "internalType": "address",
          "name": "_squid",
          "type": "address"
        }
      ],
      "stateMutability": "nonpayable",
      "type": "constructor"
    },
    {
      "anonymous": false,
      "inputs": [
        {
          "indexed": true,
          "internalType": "address",
          "name": "owner",
          "type": "address"
        },
        {
          "indexed": true,
          "internalType": "address",
          "name": "spender",
          "type": "address"
        },
        {
          "indexed": false,
          "internalType": "uint256",
          "name": "amount",
          "type": "uint256"
        }
      ],
      "name": "Approval",
      "type": "event"
    },
    {
      "anonymous": false,
      "inputs": [
        {
          "indexed": true,
          "internalType": "address",
          "name": "from",
          "type": "address"
        },
        {
          "indexed": true,
          "internalType": "address",
          "name": "to",
          "type": "address"
        },
        {
          "indexed": false,
          "internalType": "uint256",
          "name": "amount",
          "type": "uint256"
        },
        {
          "indexed": false,
          "internalType": "uint256",
          "name": "shares",
          "type": "uint256"
        }
      ],
      "name": "Deposit",
      "type": "event"
    },
    {
      "anonymous": false,
      "inputs": [
        {
          "indexed": true,
          "internalType": "address",
          "name": "from",
          "type": "address"
        },
        {
          "indexed": true,
          "internalType": "address",
          "name": "to",
          "type": "address"
        },
        {
          "indexed": false,
          "internalType": "uint256",
          "name": "amount",
          "type": "uint256"
        }
      ],
      "name": "Transfer",
      "type": "event"
    },
    {
      "anonymous": false,
      "inputs": [
        {
          "indexed": true,
          "internalType": "address",
          "name": "from",
          "type": "address"
        },
        {
          "indexed": true,
          "internalType": "address",
          "name": "to",
          "type": "address"
        },
        {
          "indexed": false,
          "internalType": "uint256",
          "name": "amount",
          "type": "uint256"
        },
        {
          "indexed": false,
          "internalType": "uint256",
          "name": "shares",
          "type": "uint256"
        }
      ],
      "name": "Withdraw",
      "type": "event"
    },
    {
      "inputs": [],
      "name": "DOMAIN_SEPARATOR",
      "outputs": [
        {
          "internalType": "bytes32",
          "name": "",
          "type": "bytes32"
        }
      ],
      "stateMutability": "view",
      "type": "function"
    },
    {
      "inputs": [
        {
          "internalType": "address",
          "name": "",
          "type": "address"
        },
        {
          "internalType": "address",
          "name": "",
          "type": "address"
        }
      ],
      "name": "allowance",
      "outputs": [
        {
          "internalType": "uint256",
          "name": "",
          "type": "uint256"
        }
      ],
      "stateMutability": "view",
      "type": "function"
    },
    {
      "inputs": [
        {
          "internalType": "address",
          "name": "spender",
          "type": "address"
        },
        {
          "internalType": "uint256",
          "name": "amount",
          "type": "uint256"
        }
      ],
      "name": "approve",
      "outputs": [
        {
          "internalType": "bool",
          "name": "",
          "type": "bool"
        }
      ],
      "stateMutability": "nonpayable",
      "type": "function"
    },
    {
      "inputs": [],
      "name": "asset",
      "outputs": [
        {
          "internalType": "contract ERC20",
          "name": "",
          "type": "address"
        }
      ],
      "stateMutability": "view",
      "type": "function"
    },
    {
      "inputs": [
        {
          "internalType": "address",
          "name": "user",
          "type": "address"
        }
      ],
      "name": "assetsOf",
      "outputs": [
        {
          "internalType": "uint256",
          "name": "",
          "type": "uint256"
        }
      ],
      "stateMutability": "view",
      "type": "function"
    },
    {
      "inputs": [],
      "name": "assetsPerShare",
      "outputs": [
        {
          "internalType": "uint256",
          "name": "",
          "type": "uint256"
        }
      ],
      "stateMutability": "view",
      "type": "function"
    },
    {
      "inputs": [
        {
          "internalType": "address",
          "name": "",
          "type": "address"
        }
      ],
      "name": "balanceOf",
      "outputs": [
        {
          "internalType": "uint256",
          "name": "",
          "type": "uint256"
        }
      ],
      "stateMutability": "view",
      "type": "function"
    },
    {
      "inputs": [],
      "name": "decimals",
      "outputs": [
        {
          "internalType": "uint8",
          "name": "",
          "type": "uint8"
        }
      ],
      "stateMutability": "view",
      "type": "function"
    },
    {
      "inputs": [
        {
          "internalType": "uint256",
          "name": "amount",
          "type": "uint256"
        },
        {
          "internalType": "address",
          "name": "to",
          "type": "address"
        }
      ],
      "name": "deposit",
      "outputs": [
        {
          "internalType": "uint256",
          "name": "shares",
          "type": "uint256"
        }
      ],
      "stateMutability": "nonpayable",
      "type": "function"
    },
    {
      "inputs": [],
      "name": "depositAll",
      "outputs": [],
      "stateMutability": "nonpayable",
      "type": "function"
    },
    {
      "inputs": [],
      "name": "earn",
      "outputs": [],
      "stateMutability": "nonpayable",
      "type": "function"
    },
    {
      "inputs": [],
      "name": "freeFloat",
      "outputs": [
        {
          "internalType": "uint256",
          "name": "",
          "type": "uint256"
        }
      ],
      "stateMutability": "view",
      "type": "function"
    },
    {
      "inputs": [
        {
          "internalType": "address",
          "name": "reserve",
          "type": "address"
        },
        {
          "internalType": "uint256",
          "name": "amount",
          "type": "uint256"
        }
      ],
      "name": "harvest",
      "outputs": [],
      "stateMutability": "nonpayable",
      "type": "function"
    },
    {
      "inputs": [],
      "name": "idleFloat",
      "outputs": [
        {
          "internalType": "uint256",
          "name": "",
          "type": "uint256"
        }
      ],
      "stateMutability": "view",
      "type": "function"
    },
    {
      "inputs": [
        {
          "internalType": "address",
          "name": "",
          "type": "address"
        }
      ],
      "name": "maxDeposit",
      "outputs": [
        {
          "internalType": "uint256",
          "name": "",
          "type": "uint256"
        }
      ],
      "stateMutability": "pure",
      "type": "function"
    },
    {
      "inputs": [],
      "name": "maxFloat",
      "outputs": [
        {
          "internalType": "uint256",
          "name": "",
          "type": "uint256"
        }
      ],
      "stateMutability": "view",
      "type": "function"
    },
    {
      "inputs": [
        {
          "internalType": "address",
          "name": "",
          "type": "address"
        }
      ],
      "name": "maxMint",
      "outputs": [
        {
          "internalType": "uint256",
          "name": "",
          "type": "uint256"
        }
      ],
      "stateMutability": "pure",
      "type": "function"
    },
    {
      "inputs": [
        {
          "internalType": "address",
          "name": "user",
          "type": "address"
        }
      ],
      "name": "maxRedeem",
      "outputs": [
        {
          "internalType": "uint256",
          "name": "",
          "type": "uint256"
        }
      ],
      "stateMutability": "view",
      "type": "function"
    },
    {
      "inputs": [
        {
          "internalType": "address",
          "name": "user",
          "type": "address"
        }
      ],
      "name": "maxWithdraw",
      "outputs": [
        {
          "internalType": "uint256",
          "name": "",
          "type": "uint256"
        }
      ],
      "stateMutability": "view",
      "type": "function"
    },
    {
      "inputs": [],
      "name": "minFloat",
      "outputs": [
        {
          "internalType": "uint256",
          "name": "",
          "type": "uint256"
        }
      ],
      "stateMutability": "view",
      "type": "function"
    },
    {
      "inputs": [
        {
          "internalType": "uint256",
          "name": "shares",
          "type": "uint256"
        },
        {
          "internalType": "address",
          "name": "to",
          "type": "address"
        }
      ],
      "name": "mint",
      "outputs": [
        {
          "internalType": "uint256",
          "name": "amount",
          "type": "uint256"
        }
      ],
      "stateMutability": "nonpayable",
      "type": "function"
    },
    {
      "inputs": [],
      "name": "name",
      "outputs": [
        {
          "internalType": "string",
          "name": "",
          "type": "string"
        }
      ],
      "stateMutability": "view",
      "type": "function"
    },
    {
      "inputs": [
        {
          "internalType": "address",
          "name": "",
          "type": "address"
        }
      ],
      "name": "nonces",
      "outputs": [
        {
          "internalType": "uint256",
          "name": "",
          "type": "uint256"
        }
      ],
      "stateMutability": "view",
      "type": "function"
    },
    {
      "inputs": [
        {
          "internalType": "address",
          "name": "owner",
          "type": "address"
        },
        {
          "internalType": "address",
          "name": "spender",
          "type": "address"
        },
        {
          "internalType": "uint256",
          "name": "value",
          "type": "uint256"
        },
        {
          "internalType": "uint256",
          "name": "deadline",
          "type": "uint256"
        },
        {
          "internalType": "uint8",
          "name": "v",
          "type": "uint8"
        },
        {
          "internalType": "bytes32",
          "name": "r",
          "type": "bytes32"
        },
        {
          "internalType": "bytes32",
          "name": "s",
          "type": "bytes32"
        }
      ],
      "name": "permit",
      "outputs": [],
      "stateMutability": "nonpayable",
      "type": "function"
    },
    {
      "inputs": [
        {
          "internalType": "uint256",
          "name": "amount",
          "type": "uint256"
        }
      ],
      "name": "previewDeposit",
      "outputs": [
        {
          "internalType": "uint256",
          "name": "shares",
          "type": "uint256"
        }
      ],
      "stateMutability": "view",
      "type": "function"
    },
    {
      "inputs": [
        {
          "internalType": "uint256",
          "name": "shares",
          "type": "uint256"
        }
      ],
      "name": "previewMint",
      "outputs": [
        {
          "internalType": "uint256",
          "name": "amount",
          "type": "uint256"
        }
      ],
      "stateMutability": "view",
      "type": "function"
    },
    {
      "inputs": [
        {
          "internalType": "uint256",
          "name": "shares",
          "type": "uint256"
        }
      ],
      "name": "previewRedeem",
      "outputs": [
        {
          "internalType": "uint256",
          "name": "amount",
          "type": "uint256"
        }
      ],
      "stateMutability": "view",
      "type": "function"
    },
    {
      "inputs": [
        {
          "internalType": "uint256",
          "name": "amount",
          "type": "uint256"
        }
      ],
      "name": "previewWithdraw",
      "outputs": [
        {
          "internalType": "uint256",
          "name": "shares",
          "type": "uint256"
        }
      ],
      "stateMutability": "view",
      "type": "function"
    },
    {
      "inputs": [
        {
          "internalType": "uint256",
          "name": "shares",
          "type": "uint256"
        },
        {
          "internalType": "address",
          "name": "to",
          "type": "address"
        },
        {
          "internalType": "address",
          "name": "from",
          "type": "address"
        }
      ],
      "name": "redeem",
      "outputs": [
        {
          "internalType": "uint256",
          "name": "amount",
          "type": "uint256"
        }
      ],
      "stateMutability": "nonpayable",
      "type": "function"
    },
    {
      "inputs": [
        {
          "internalType": "uint256",
          "name": "_min",
          "type": "uint256"
        }
      ],
      "name": "setMin",
      "outputs": [],
      "stateMutability": "nonpayable",
      "type": "function"
    },
    {
      "inputs": [
        {
          "internalType": "address",
          "name": "_vaultManager",
          "type": "address"
        }
      ],
      "name": "setVaultManager",
      "outputs": [],
      "stateMutability": "nonpayable",
      "type": "function"
    },
    {
      "inputs": [
        {
          "internalType": "address",
          "name": "_squid",
          "type": "address"
        }
      ],
      "name": "setsquid",
      "outputs": [],
      "stateMutability": "nonpayable",
      "type": "function"
    },
    {
      "inputs": [],
      "name": "squid",
      "outputs": [
        {
          "internalType": "address",
          "name": "",
          "type": "address"
        }
      ],
      "stateMutability": "view",
      "type": "function"
    },
    {
      "inputs": [],
      "name": "symbol",
      "outputs": [
        {
          "internalType": "string",
          "name": "",
          "type": "string"
        }
      ],
      "stateMutability": "view",
      "type": "function"
    },
    {
      "inputs": [],
      "name": "totalAssets",
      "outputs": [
        {
          "internalType": "uint256",
          "name": "",
          "type": "uint256"
        }
      ],
      "stateMutability": "view",
      "type": "function"
    },
    {
      "inputs": [],
      "name": "totalFloat",
      "outputs": [
        {
          "internalType": "uint256",
          "name": "",
          "type": "uint256"
        }
      ],
      "stateMutability": "view",
      "type": "function"
    },
    {
      "inputs": [],
      "name": "totalSupply",
      "outputs": [
        {
          "internalType": "uint256",
          "name": "",
          "type": "uint256"
        }
      ],
      "stateMutability": "view",
      "type": "function"
    },
    {
      "inputs": [
        {
          "internalType": "address",
          "name": "to",
          "type": "address"
        },
        {
          "internalType": "uint256",
          "name": "amount",
          "type": "uint256"
        }
      ],
      "name": "transfer",
      "outputs": [
        {
          "internalType": "bool",
          "name": "",
          "type": "bool"
        }
      ],
      "stateMutability": "nonpayable",
      "type": "function"
    },
    {
      "inputs": [
        {
          "internalType": "address",
          "name": "from",
          "type": "address"
        },
        {
          "internalType": "address",
          "name": "to",
          "type": "address"
        },
        {
          "internalType": "uint256",
          "name": "amount",
          "type": "uint256"
        }
      ],
      "name": "transferFrom",
      "outputs": [
        {
          "internalType": "bool",
          "name": "",
          "type": "bool"
        }
      ],
      "stateMutability": "nonpayable",
      "type": "function"
    },
    {
      "inputs": [],
      "name": "vaultManager",
      "outputs": [
        {
          "internalType": "address",
          "name": "",
          "type": "address"
        }
      ],
      "stateMutability": "view",
      "type": "function"
    },
    {
      "inputs": [
        {
          "internalType": "uint256",
          "name": "amount",
          "type": "uint256"
        },
        {
          "internalType": "address",
          "name": "to",
          "type": "address"
        },
        {
          "internalType": "address",
          "name": "from",
          "type": "address"
        }
      ],
      "name": "withdraw",
      "outputs": [
        {
          "internalType": "uint256",
          "name": "shares",
          "type": "uint256"
        }
      ],
      "stateMutability": "nonpayable",
      "type": "function"
    },
    {
      "inputs": [],
      "name": "withdrawAll",
      "outputs": [],
      "stateMutability": "nonpayable",
      "type": "function"
    }
  ],
  "bytecode": "0x61010060405261251c6007553480156200001857600080fd5b50604051620041da380380620041da83398181016040528101906200003e919062000572565b82828673ffffffffffffffffffffffffffffffffffffffff1663313ce5676040518163ffffffff1660e01b815260040160206040518083038186803b1580156200008757600080fd5b505afa1580156200009c573d6000803e3d6000fd5b505050506040513d601f19601f82011682018060405250810190620000c2919062000676565b8260009080519060200190620000da9291906200027b565b508160019080519060200190620000f39291906200027b565b508060ff1660808160ff1660f81b815250504660a081815250506200011d620001eb60201b60201c565b60c081815250505050508473ffffffffffffffffffffffffffffffffffffffff1660e08173ffffffffffffffffffffffffffffffffffffffff1660601b8152505080600860006101000a81548173ffffffffffffffffffffffffffffffffffffffff021916908373ffffffffffffffffffffffffffffffffffffffff16021790555083600960006101000a81548173ffffffffffffffffffffffffffffffffffffffff021916908373ffffffffffffffffffffffffffffffffffffffff160217905550505050505062000875565b60007f8b73c3c69bb8fe3d512ecc4cf759cc79239f7b179b0ffacaa9a75d522b39400f60006040516200021f9190620007b8565b60405180910390207fc89efdaa54c0f20c7adf612882df0950f5a951637e0307cdcb4c672f298b8bc646306040516020016200026095949392919062000818565b60405160208183030381529060405280519060200120905090565b8280546200028990620006d7565b90600052602060002090601f016020900481019282620002ad5760008555620002f9565b82601f10620002c857805160ff1916838001178555620002f9565b82800160010185558215620002f9579182015b82811115620002f8578251825591602001919060010190620002db565b5b5090506200030891906200030c565b5090565b5b80821115620003275760008160009055506001016200030d565b5090565b6000604051905090565b600080fd5b600080fd5b600073ffffffffffffffffffffffffffffffffffffffff82169050919050565b60006200036c826200033f565b9050919050565b600062000380826200035f565b9050919050565b620003928162000373565b81146200039e57600080fd5b50565b600081519050620003b28162000387565b92915050565b620003c3816200035f565b8114620003cf57600080fd5b50565b600081519050620003e381620003b8565b92915050565b600080fd5b600080fd5b6000601f19601f8301169050919050565b7f4e487b7100000000000000000000000000000000000000000000000000000000600052604160045260246000fd5b6200043e82620003f3565b810181811067ffffffffffffffff8211171562000460576200045f62000404565b5b80604052505050565b6000620004756200032b565b905062000483828262000433565b919050565b600067ffffffffffffffff821115620004a657620004a562000404565b5b620004b182620003f3565b9050602081019050919050565b60005b83811015620004de578082015181840152602081019050620004c1565b83811115620004ee576000848401525b50505050565b60006200050b620005058462000488565b62000469565b9050828152602081018484840111156200052a5762000529620003ee565b5b62000537848285620004be565b509392505050565b600082601f830112620005575762000556620003e9565b5b815162000569848260208601620004f4565b91505092915050565b600080600080600060a0868803121562000591576200059062000335565b5b6000620005a188828901620003a1565b9550506020620005b488828901620003d2565b945050604086015167ffffffffffffffff811115620005d857620005d76200033a565b5b620005e6888289016200053f565b935050606086015167ffffffffffffffff8111156200060a57620006096200033a565b5b62000618888289016200053f565b92505060806200062b88828901620003d2565b9150509295509295909350565b600060ff82169050919050565b620006508162000638565b81146200065c57600080fd5b50565b600081519050620006708162000645565b92915050565b6000602082840312156200068f576200068e62000335565b5b60006200069f848285016200065f565b91505092915050565b7f4e487b7100000000000000000000000000000000000000000000000000000000600052602260045260246000fd5b60006002820490506001821680620006f057607f821691505b60208210811415620007075762000706620006a8565b5b50919050565b600081905092915050565b60008190508160005260206000209050919050565b600081546200073c81620006d7565b6200074881866200070d565b945060018216600081146200076657600181146200077857620007af565b60ff19831686528186019350620007af565b620007838562000718565b60005b83811015620007a75781548189015260018201915060208101905062000786565b838801955050505b50505092915050565b6000620007c682846200072d565b915081905092915050565b6000819050919050565b620007e681620007d1565b82525050565b6000819050919050565b6200080181620007ec565b82525050565b62000812816200035f565b82525050565b600060a0820190506200082f6000830188620007db565b6200083e6020830187620007db565b6200084d6040830186620007db565b6200085c6060830185620007f6565b6200086b608083018462000807565b9695505050505050565b60805160f81c60a05160c05160e05160601c6138d162000909600039600081816108f101528181610a740152818161112d01528181611356015281816114bb0152818161191301528181611ca701528181611d3d01528181611e4b015281816122290152818161232601526126da01526000611106015260006110d2015260008181611070015261109901526138d16000f3fe608060405234801561001057600080fd5b506004361061025e5760003560e01c8063841219e511610146578063c63d75b6116100c3578063dd62ed3e11610087578063dd62ed3e1461079b578063de5f6268146107cb578063ea8846a9146107d5578063ef8b30f7146107f3578063f0f5b44114610823578063f8275034146108415761025e565b8063c63d75b6146106e5578063ce96cb7714610715578063d389800f14610745578063d505accf1461074f578063d905777e1461076b5761025e565b8063a9059cbb1161010a578063a9059cbb14610609578063b3d7f6b914610639578063b460af9414610669578063b543503e14610699578063ba087652146106b55761025e565b8063841219e514610575578063853828b6146105935780638a4adf241461059d57806394bf804d146105bb57806395d89b41146105eb5761025e565b8063313ce567116101df57806345dc3dd8116101a357806345dc3dd81461047b5780634cdad506146104975780636254f728146104c75780636e553f65146104e557806370a08231146105155780637ecebe00146105455761025e565b8063313ce567146103d357806335d16e17146103f15780633644e5151461040f57806338d52e0f1461042d578063402d267d1461044b5761025e565b80630a28a477116102265780630a28a4771461030757806318160ddd1461033757806323b872dd146103555780632c62fa10146103855780632e10d36c146103b55761025e565b8063018ee9b71461026357806301e1d1141461027f57806306fdde031461029d57806307db12c8146102bb578063095ea7b3146102d7575b600080fd5b61027d6004803603810190610278919061294e565b61085f565b005b610287610a32565b604051610294919061299d565b60405180910390f35b6102a5610b16565b6040516102b29190612a51565b60405180910390f35b6102d560048036038101906102d09190612a73565b610ba4565b005b6102f160048036038101906102ec919061294e565b610c78565b6040516102fe9190612abb565b60405180910390f35b610321600480360381019061031c9190612ad6565b610d6a565b60405161032e919061299d565b60405180910390f35b61033f610da7565b60405161034c919061299d565b60405180910390f35b61036f600480360381019061036a9190612b03565b610dad565b60405161037c9190612abb565b60405180910390f35b61039f600480360381019061039a9190612a73565b610ff7565b6040516103ac919061299d565b60405180910390f35b6103bd611048565b6040516103ca9190612b65565b60405180910390f35b6103db61106e565b6040516103e89190612b9c565b60405180910390f35b6103f9611092565b604051610406919061299d565b60405180910390f35b6104176110ce565b6040516104249190612bd0565b60405180910390f35b61043561112b565b6040516104429190612c4a565b60405180910390f35b61046560048036038101906104609190612a73565b61114f565b604051610472919061299d565b60405180910390f35b61049560048036038101906104909190612ad6565b611179565b005b6104b160048036038101906104ac9190612ad6565b611213565b6040516104be919061299d565b60405180910390f35b6104cf611250565b6040516104dc919061299d565b60405180910390f35b6104ff60048036038101906104fa9190612c65565b611274565b60405161050c919061299d565b60405180910390f35b61052f600480360381019061052a9190612a73565b6113aa565b60405161053c919061299d565b60405180910390f35b61055f600480360381019061055a9190612a73565b6113c2565b60405161056c919061299d565b60405180910390f35b61057d6113da565b60405161058a919061299d565b60405180910390f35b61059b6113e0565b005b6105a56113f6565b6040516105b29190612b65565b60405180910390f35b6105d560048036038101906105d09190612c65565b61141c565b6040516105e2919061299d565b60405180910390f35b6105f361150f565b6040516106009190612a51565b60405180910390f35b610623600480360381019061061e919061294e565b61159d565b6040516106309190612abb565b60405180910390f35b610653600480360381019061064e9190612ad6565b6116b1565b604051610660919061299d565b60405180910390f35b610683600480360381019061067e9190612ca5565b6116ee565b604051610690919061299d565b60405180910390f35b6106b360048036038101906106ae9190612a73565b61195f565b005b6106cf60048036038101906106ca9190612ca5565b611a33565b6040516106dc919061299d565b60405180910390f35b6106ff60048036038101906106fa9190612a73565b611cf3565b60405161070c919061299d565b60405180910390f35b61072f600480360381019061072a9190612a73565b611d1d565b60405161073c919061299d565b60405180910390f35b61074d611d2f565b005b61076960048036038101906107649190612d50565b611ebd565b005b61078560048036038101906107809190612a73565b6121b6565b604051610792919061299d565b60405180910390f35b6107b560048036038101906107b09190612df2565b6121ff565b6040516107c2919061299d565b60405180910390f35b6107d3612224565b005b6107dd6122d9565b6040516107ea919061299d565b60405180910390f35b61080d60048036038101906108089190612ad6565b6122df565b60405161081a919061299d565b60405180910390f35b61082b61231c565b604051610838919061299d565b60405180910390f35b610849612322565b604051610856919061299d565b60405180910390f35b600860009054906101000a900473ffffffffffffffffffffffffffffffffffffffff1673ffffffffffffffffffffffffffffffffffffffff163373ffffffffffffffffffffffffffffffffffffffff16146108ef576040517f08c379a00000000000000000000000000000000000000000000000000000000081526004016108e690612e7e565b60405180910390fd5b7f000000000000000000000000000000000000000000000000000000000000000073ffffffffffffffffffffffffffffffffffffffff168273ffffffffffffffffffffffffffffffffffffffff16141561097e576040517f08c379a000000000000000000000000000000000000000000000000000000000815260040161097590612eea565b60405180910390fd5b8173ffffffffffffffffffffffffffffffffffffffff1663a9059cbb600860009054906101000a900473ffffffffffffffffffffffffffffffffffffffff16836040518363ffffffff1660e01b81526004016109db929190612f0a565b602060405180830381600087803b1580156109f557600080fd5b505af1158015610a09573d6000803e3d6000fd5b505050506040513d601f19601f82011682018060405250810190610a2d9190612f5f565b505050565b6000600860009054906101000a900473ffffffffffffffffffffffffffffffffffffffff1673ffffffffffffffffffffffffffffffffffffffff166370a082317f00000000000000000000000000000000000000000000000000000000000000006040518263ffffffff1660e01b8152600401610aaf9190612b65565b60206040518083038186803b158015610ac757600080fd5b505afa158015610adb573d6000803e3d6000fd5b505050506040513d601f19601f82011682018060405250810190610aff9190612fa1565b610b07612322565b610b119190612ffd565b905090565b60008054610b2390613082565b80601f0160208091040260200160405190810160405280929190818152602001828054610b4f90613082565b8015610b9c5780601f10610b7157610100808354040283529160200191610b9c565b820191906000526020600020905b815481529060010190602001808311610b7f57829003601f168201915b505050505081565b600960009054906101000a900473ffffffffffffffffffffffffffffffffffffffff1673ffffffffffffffffffffffffffffffffffffffff163373ffffffffffffffffffffffffffffffffffffffff1614610c34576040517f08c379a0000000000000000000000000000000000000000000000000000000008152600401610c2b90613100565b60405180910390fd5b80600860006101000a81548173ffffffffffffffffffffffffffffffffffffffff021916908373ffffffffffffffffffffffffffffffffffffffff16021790555050565b600081600460003373ffffffffffffffffffffffffffffffffffffffff1673ffffffffffffffffffffffffffffffffffffffff16815260200190815260200160002060008573ffffffffffffffffffffffffffffffffffffffff1673ffffffffffffffffffffffffffffffffffffffff168152602001908152602001600020819055508273ffffffffffffffffffffffffffffffffffffffff163373ffffffffffffffffffffffffffffffffffffffff167f8c5be1e5ebec7d5bd14f71427d1e84f3dd0314c0f7b2291e5b200ac8c7c3b92584604051610d58919061299d565b60405180910390a36001905092915050565b600080600254905060008114610d9d57610d98600254610d88610a32565b856123d29092919063ffffffff16565b610d9f565b825b915050919050565b60025481565b600080600460008673ffffffffffffffffffffffffffffffffffffffff1673ffffffffffffffffffffffffffffffffffffffff16815260200190815260200160002060003373ffffffffffffffffffffffffffffffffffffffff1673ffffffffffffffffffffffffffffffffffffffff1681526020019081526020016000205490507fffffffffffffffffffffffffffffffffffffffffffffffffffffffffffffffff8114610ee3578281610e629190613120565b600460008773ffffffffffffffffffffffffffffffffffffffff1673ffffffffffffffffffffffffffffffffffffffff16815260200190815260200160002060003373ffffffffffffffffffffffffffffffffffffffff1673ffffffffffffffffffffffffffffffffffffffff168152602001908152602001600020819055505b82600360008773ffffffffffffffffffffffffffffffffffffffff1673ffffffffffffffffffffffffffffffffffffffff1681526020019081526020016000206000828254610f329190613120565b9250508190555082600360008673ffffffffffffffffffffffffffffffffffffffff1673ffffffffffffffffffffffffffffffffffffffff168152602001908152602001600020600082825401925050819055508373ffffffffffffffffffffffffffffffffffffffff168573ffffffffffffffffffffffffffffffffffffffff167fddf252ad1be2c89b69c2b068fc378daa952ba7f163c4a11628f55a4df523b3ef85604051610fe3919061299d565b60405180910390a360019150509392505050565b6000611041600360008473ffffffffffffffffffffffffffffffffffffffff1673ffffffffffffffffffffffffffffffffffffffff16815260200190815260200160002054611213565b9050919050565b600860009054906101000a900473ffffffffffffffffffffffffffffffffffffffff1681565b7f000000000000000000000000000000000000000000000000000000000000000081565b60006110c97f0000000000000000000000000000000000000000000000000000000000000000600a6110c49190613287565b611213565b905090565b60007f00000000000000000000000000000000000000000000000000000000000000004614611104576110ff61241e565b611126565b7f00000000000000000000000000000000000000000000000000000000000000005b905090565b7f000000000000000000000000000000000000000000000000000000000000000081565b60007fffffffffffffffffffffffffffffffffffffffffffffffffffffffffffffffff9050919050565b600960009054906101000a900473ffffffffffffffffffffffffffffffffffffffff1673ffffffffffffffffffffffffffffffffffffffff163373ffffffffffffffffffffffffffffffffffffffff1614611209576040517f08c379a000000000000000000000000000000000000000000000000000000000815260040161120090612e7e565b60405180910390fd5b8060078190555050565b6000806002549050600081146112465761124161122e610a32565b600254856124aa9092919063ffffffff16565b611248565b825b915050919050565b600061271060075460065461126591906132d2565b61126f919061335b565b905090565b600080611280846122df565b91508114156112c4576040517f08c379a00000000000000000000000000000000000000000000000000000000081526004016112bb906133d8565b60405180910390fd5b6112ce82826124ed565b82600660008282546112e09190612ffd565b925050819055508173ffffffffffffffffffffffffffffffffffffffff163373ffffffffffffffffffffffffffffffffffffffff167fdcbc1c05240f31ff3ad067ef1ee35ce4997762752e3a095284754544f4c709d785846040516113469291906133f8565b60405180910390a361139b3330857f000000000000000000000000000000000000000000000000000000000000000073ffffffffffffffffffffffffffffffffffffffff166125bd909392919063ffffffff16565b6113a48361265c565b92915050565b60036020528060005260406000206000915090505481565b60056020528060005260406000206000915090505481565b60065481565b6113f36113ec33610ff7565b33336116ee565b50565b600960009054906101000a900473ffffffffffffffffffffffffffffffffffffffff1681565b60006114338261142b856116b1565b9250826124ed565b80600660008282546114459190612ffd565b925050819055508173ffffffffffffffffffffffffffffffffffffffff163373ffffffffffffffffffffffffffffffffffffffff167fdcbc1c05240f31ff3ad067ef1ee35ce4997762752e3a095284754544f4c709d783866040516114ab9291906133f8565b60405180910390a36115003330837f000000000000000000000000000000000000000000000000000000000000000073ffffffffffffffffffffffffffffffffffffffff166125bd909392919063ffffffff16565b6115098161265c565b92915050565b6001805461151c90613082565b80601f016020809104026020016040519081016040528092919081815260200182805461154890613082565b80156115955780601f1061156a57610100808354040283529160200191611595565b820191906000526020600020905b81548152906001019060200180831161157857829003601f168201915b505050505081565b600081600360003373ffffffffffffffffffffffffffffffffffffffff1673ffffffffffffffffffffffffffffffffffffffff16815260200190815260200160002060008282546115ee9190613120565b9250508190555081600360008573ffffffffffffffffffffffffffffffffffffffff1673ffffffffffffffffffffffffffffffffffffffff168152602001908152602001600020600082825401925050819055508273ffffffffffffffffffffffffffffffffffffffff163373ffffffffffffffffffffffffffffffffffffffff167fddf252ad1be2c89b69c2b068fc378daa952ba7f163c4a11628f55a4df523b3ef8460405161169f919061299d565b60405180910390a36001905092915050565b6000806002549050600081146116e4576116df6116cc610a32565b600254856123d29092919063ffffffff16565b6116e6565b825b915050919050565b600080600460008473ffffffffffffffffffffffffffffffffffffffff1673ffffffffffffffffffffffffffffffffffffffff16815260200190815260200160002060003373ffffffffffffffffffffffffffffffffffffffff1673ffffffffffffffffffffffffffffffffffffffff1681526020019081526020016000205490508273ffffffffffffffffffffffffffffffffffffffff163373ffffffffffffffffffffffffffffffffffffffff16141580156117cc57507fffffffffffffffffffffffffffffffffffffffffffffffffffffffffffffffff8114155b1561185e5781816117dd9190613120565b600460008573ffffffffffffffffffffffffffffffffffffffff1673ffffffffffffffffffffffffffffffffffffffff16815260200190815260200160002060003373ffffffffffffffffffffffffffffffffffffffff1673ffffffffffffffffffffffffffffffffffffffff168152602001908152602001600020819055505b611866612322565b851115611877576118768561265f565b5b61188c8361188487610d6a565b93508361274d565b846006600082825461189e9190613120565b925050819055508373ffffffffffffffffffffffffffffffffffffffff168373ffffffffffffffffffffffffffffffffffffffff167ff341246adaac6f497bc2a656f546ab9e182111d630394f0c57c710a59a2cb56787856040516119049291906133f8565b60405180910390a361195784867f000000000000000000000000000000000000000000000000000000000000000073ffffffffffffffffffffffffffffffffffffffff1661281d9092919063ffffffff16565b509392505050565b600960009054906101000a900473ffffffffffffffffffffffffffffffffffffffff1673ffffffffffffffffffffffffffffffffffffffff163373ffffffffffffffffffffffffffffffffffffffff16146119ef576040517f08c379a00000000000000000000000000000000000000000000000000000000081526004016119e690613100565b60405180910390fd5b80600960006101000a81548173ffffffffffffffffffffffffffffffffffffffff021916908373ffffffffffffffffffffffffffffffffffffffff16021790555050565b600080600460008473ffffffffffffffffffffffffffffffffffffffff1673ffffffffffffffffffffffffffffffffffffffff16815260200190815260200160002060003373ffffffffffffffffffffffffffffffffffffffff1673ffffffffffffffffffffffffffffffffffffffff1681526020019081526020016000205490508273ffffffffffffffffffffffffffffffffffffffff163373ffffffffffffffffffffffffffffffffffffffff1614158015611b1157507fffffffffffffffffffffffffffffffffffffffffffffffffffffffffffffffff8114155b15611ba3578481611b229190613120565b600460008573ffffffffffffffffffffffffffffffffffffffff1673ffffffffffffffffffffffffffffffffffffffff16815260200190815260200160002060003373ffffffffffffffffffffffffffffffffffffffff1673ffffffffffffffffffffffffffffffffffffffff168152602001908152602001600020819055505b6000611bae86611213565b9250821415611bf2576040517f08c379a0000000000000000000000000000000000000000000000000000000008152600401611be99061346d565b60405180910390fd5b611bfa612322565b851115611c0b57611c0a8561265f565b5b611c1485611213565b9150611c20838661274d565b8160066000828254611c329190613120565b925050819055508373ffffffffffffffffffffffffffffffffffffffff168373ffffffffffffffffffffffffffffffffffffffff167ff341246adaac6f497bc2a656f546ab9e182111d630394f0c57c710a59a2cb5678488604051611c989291906133f8565b60405180910390a3611ceb84837f000000000000000000000000000000000000000000000000000000000000000073ffffffffffffffffffffffffffffffffffffffff1661281d9092919063ffffffff16565b509392505050565b60007fffffffffffffffffffffffffffffffffffffffffffffffffffffffffffffffff9050919050565b6000611d2882610ff7565b9050919050565b6000611d39611250565b90507f000000000000000000000000000000000000000000000000000000000000000073ffffffffffffffffffffffffffffffffffffffff1663a9059cbb600860009054906101000a900473ffffffffffffffffffffffffffffffffffffffff16836040518363ffffffff1660e01b8152600401611db8929190612f0a565b602060405180830381600087803b158015611dd257600080fd5b505af1158015611de6573d6000803e3d6000fd5b505050506040513d601f19601f82011682018060405250810190611e0a9190612f5f565b50600860009054906101000a900473ffffffffffffffffffffffffffffffffffffffff1673ffffffffffffffffffffffffffffffffffffffff1663b02bf4b97f0000000000000000000000000000000000000000000000000000000000000000836040518363ffffffff1660e01b8152600401611e88929190612f0a565b600060405180830381600087803b158015611ea257600080fd5b505af1158015611eb6573d6000803e3d6000fd5b5050505050565b42841015611f00576040517f08c379a0000000000000000000000000000000000000000000000000000000008152600401611ef7906134d9565b60405180910390fd5b60006001611f0c6110ce565b7f6e71edae12b1b97f4d1f60370fef10105fa2faae0126114a169c64845d6126c98a8a8a600560008f73ffffffffffffffffffffffffffffffffffffffff1673ffffffffffffffffffffffffffffffffffffffff1681526020019081526020016000206000815480929190600101919050558b604051602001611f94969594939291906134f9565b60405160208183030381529060405280519060200120604051602001611fbb9291906135d2565b6040516020818303038152906040528051906020012085858560405160008152602001604052604051611ff19493929190613609565b6020604051602081039080840390855afa158015612013573d6000803e3d6000fd5b505050602060405103519050600073ffffffffffffffffffffffffffffffffffffffff168173ffffffffffffffffffffffffffffffffffffffff161415801561208757508773ffffffffffffffffffffffffffffffffffffffff168173ffffffffffffffffffffffffffffffffffffffff16145b6120c6576040517f08c379a00000000000000000000000000000000000000000000000000000000081526004016120bd9061369a565b60405180910390fd5b85600460008373ffffffffffffffffffffffffffffffffffffffff1673ffffffffffffffffffffffffffffffffffffffff16815260200190815260200160002060008973ffffffffffffffffffffffffffffffffffffffff1673ffffffffffffffffffffffffffffffffffffffff16815260200190815260200160002081905550508573ffffffffffffffffffffffffffffffffffffffff168773ffffffffffffffffffffffffffffffffffffffff167f8c5be1e5ebec7d5bd14f71427d1e84f3dd0314c0f7b2291e5b200ac8c7c3b925876040516121a5919061299d565b60405180910390a350505050505050565b6000600360008373ffffffffffffffffffffffffffffffffffffffff1673ffffffffffffffffffffffffffffffffffffffff168152602001908152602001600020549050919050565b6004602052816000526040600020602052806000526040600020600091509150505481565b6122d67f000000000000000000000000000000000000000000000000000000000000000073ffffffffffffffffffffffffffffffffffffffff166370a08231336040518263ffffffff1660e01b81526004016122809190612b65565b60206040518083038186803b15801561229857600080fd5b505afa1580156122ac573d6000803e3d6000fd5b505050506040513d601f19601f820116820180604052508101906122d09190612fa1565b33611274565b50565b61271081565b6000806002549050600081146123125761230d6002546122fd610a32565b856124aa9092919063ffffffff16565b612314565b825b915050919050565b60075481565b60007f000000000000000000000000000000000000000000000000000000000000000073ffffffffffffffffffffffffffffffffffffffff166370a08231306040518263ffffffff1660e01b815260040161237d9190612b65565b60206040518083038186803b15801561239557600080fd5b505afa1580156123a9573d6000803e3d6000fd5b505050506040513d601f19601f820116820180604052508101906123cd9190612fa1565b905090565b6000827fffffffffffffffffffffffffffffffffffffffffffffffffffffffffffffffff048411830215820261240757600080fd5b818385020460008385870206110190509392505050565b60007f8b73c3c69bb8fe3d512ecc4cf759cc79239f7b179b0ffacaa9a75d522b39400f60006040516124509190613759565b60405180910390207fc89efdaa54c0f20c7adf612882df0950f5a951637e0307cdcb4c672f298b8bc6463060405160200161248f959493929190613770565b60405160208183030381529060405280519060200120905090565b6000827fffffffffffffffffffffffffffffffffffffffffffffffffffffffffffffffff04841183021582026124df57600080fd5b818385020490509392505050565b80600260008282546124ff9190612ffd565b9250508190555080600360008473ffffffffffffffffffffffffffffffffffffffff1673ffffffffffffffffffffffffffffffffffffffff168152602001908152602001600020600082825401925050819055508173ffffffffffffffffffffffffffffffffffffffff16600073ffffffffffffffffffffffffffffffffffffffff167fddf252ad1be2c89b69c2b068fc378daa952ba7f163c4a11628f55a4df523b3ef836040516125b1919061299d565b60405180910390a35050565b60006040517f23b872dd0000000000000000000000000000000000000000000000000000000081528460048201528360248201528260448201526020600060648360008a5af13d15601f3d1160016000511416171691505080612655576040517f08c379a000000000000000000000000000000000000000000000000000000000815260040161264c9061380f565b60405180910390fd5b5050505050565b50565b6000612669612322565b61271060328461267991906132d2565b612683919061335b565b8361268e9190612ffd565b6126989190613120565b9050600860009054906101000a900473ffffffffffffffffffffffffffffffffffffffff1673ffffffffffffffffffffffffffffffffffffffff1663f3fef3a37f0000000000000000000000000000000000000000000000000000000000000000836040518363ffffffff1660e01b8152600401612717929190612f0a565b600060405180830381600087803b15801561273157600080fd5b505af1158015612745573d6000803e3d6000fd5b505050505050565b80600360008473ffffffffffffffffffffffffffffffffffffffff1673ffffffffffffffffffffffffffffffffffffffff168152602001908152602001600020600082825461279c9190613120565b9250508190555080600260008282540392505081905550600073ffffffffffffffffffffffffffffffffffffffff168273ffffffffffffffffffffffffffffffffffffffff167fddf252ad1be2c89b69c2b068fc378daa952ba7f163c4a11628f55a4df523b3ef83604051612811919061299d565b60405180910390a35050565b60006040517fa9059cbb000000000000000000000000000000000000000000000000000000008152836004820152826024820152602060006044836000895af13d15601f3d11600160005114161716915050806128af576040517f08c379a00000000000000000000000000000000000000000000000000000000081526004016128a69061387b565b60405180910390fd5b50505050565b600080fd5b600073ffffffffffffffffffffffffffffffffffffffff82169050919050565b60006128e5826128ba565b9050919050565b6128f5816128da565b811461290057600080fd5b50565b600081359050612912816128ec565b92915050565b6000819050919050565b61292b81612918565b811461293657600080fd5b50565b60008135905061294881612922565b92915050565b60008060408385031215612965576129646128b5565b5b600061297385828601612903565b925050602061298485828601612939565b9150509250929050565b61299781612918565b82525050565b60006020820190506129b2600083018461298e565b92915050565b600081519050919050565b600082825260208201905092915050565b60005b838110156129f25780820151818401526020810190506129d7565b83811115612a01576000848401525b50505050565b6000601f19601f8301169050919050565b6000612a23826129b8565b612a2d81856129c3565b9350612a3d8185602086016129d4565b612a4681612a07565b840191505092915050565b60006020820190508181036000830152612a6b8184612a18565b905092915050565b600060208284031215612a8957612a886128b5565b5b6000612a9784828501612903565b91505092915050565b60008115159050919050565b612ab581612aa0565b82525050565b6000602082019050612ad06000830184612aac565b92915050565b600060208284031215612aec57612aeb6128b5565b5b6000612afa84828501612939565b91505092915050565b600080600060608486031215612b1c57612b1b6128b5565b5b6000612b2a86828701612903565b9350506020612b3b86828701612903565b9250506040612b4c86828701612939565b9150509250925092565b612b5f816128da565b82525050565b6000602082019050612b7a6000830184612b56565b92915050565b600060ff82169050919050565b612b9681612b80565b82525050565b6000602082019050612bb16000830184612b8d565b92915050565b6000819050919050565b612bca81612bb7565b82525050565b6000602082019050612be56000830184612bc1565b92915050565b6000819050919050565b6000612c10612c0b612c06846128ba565b612beb565b6128ba565b9050919050565b6000612c2282612bf5565b9050919050565b6000612c3482612c17565b9050919050565b612c4481612c29565b82525050565b6000602082019050612c5f6000830184612c3b565b92915050565b60008060408385031215612c7c57612c7b6128b5565b5b6000612c8a85828601612939565b9250506020612c9b85828601612903565b9150509250929050565b600080600060608486031215612cbe57612cbd6128b5565b5b6000612ccc86828701612939565b9350506020612cdd86828701612903565b9250506040612cee86828701612903565b9150509250925092565b612d0181612b80565b8114612d0c57600080fd5b50565b600081359050612d1e81612cf8565b92915050565b612d2d81612bb7565b8114612d3857600080fd5b50565b600081359050612d4a81612d24565b92915050565b600080600080600080600060e0888a031215612d6f57612d6e6128b5565b5b6000612d7d8a828b01612903565b9750506020612d8e8a828b01612903565b9650506040612d9f8a828b01612939565b9550506060612db08a828b01612939565b9450506080612dc18a828b01612d0f565b93505060a0612dd28a828b01612d3b565b92505060c0612de38a828b01612d3b565b91505092959891949750929550565b60008060408385031215612e0957612e086128b5565b5b6000612e1785828601612903565b9250506020612e2885828601612903565b9150509250929050565b7f6e6f2061636365737320746f206e6f6e2d737175696400000000000000000000600082015250565b6000612e686016836129c3565b9150612e7382612e32565b602082019050919050565b60006020820190508181036000830152612e9781612e5b565b9050919050565b7f746f6b656e000000000000000000000000000000000000000000000000000000600082015250565b6000612ed46005836129c3565b9150612edf82612e9e565b602082019050919050565b60006020820190508181036000830152612f0381612ec7565b9050919050565b6000604082019050612f1f6000830185612b56565b612f2c602083018461298e565b9392505050565b612f3c81612aa0565b8114612f4757600080fd5b50565b600081519050612f5981612f33565b92915050565b600060208284031215612f7557612f746128b5565b5b6000612f8384828501612f4a565b91505092915050565b600081519050612f9b81612922565b92915050565b600060208284031215612fb757612fb66128b5565b5b6000612fc584828501612f8c565b91505092915050565b7f4e487b7100000000000000000000000000000000000000000000000000000000600052601160045260246000fd5b600061300882612918565b915061301383612918565b9250827fffffffffffffffffffffffffffffffffffffffffffffffffffffffffffffffff0382111561304857613047612fce565b5b828201905092915050565b7f4e487b7100000000000000000000000000000000000000000000000000000000600052602260045260246000fd5b6000600282049050600182168061309a57607f821691505b602082108114156130ae576130ad613053565b5b50919050565b7f21676f7665726e616e6365000000000000000000000000000000000000000000600082015250565b60006130ea600b836129c3565b91506130f5826130b4565b602082019050919050565b60006020820190508181036000830152613119816130dd565b9050919050565b600061312b82612918565b915061313683612918565b92508282101561314957613148612fce565b5b828203905092915050565b60008160011c9050919050565b6000808291508390505b60018511156131ab5780860481111561318757613186612fce565b5b60018516156131965780820291505b80810290506131a485613154565b945061316b565b94509492505050565b6000826131c45760019050613280565b816131d25760009050613280565b81600181146131e857600281146131f257613221565b6001915050613280565b60ff84111561320457613203612fce565b5b8360020a91508482111561321b5761321a612fce565b5b50613280565b5060208310610133831016604e8410600b84101617156132565782820a90508381111561325157613250612fce565b5b613280565b6132638484846001613161565b9250905081840481111561327a57613279612fce565b5b81810290505b9392505050565b600061329282612918565b915061329d83612b80565b92506132ca7fffffffffffffffffffffffffffffffffffffffffffffffffffffffffffffffff84846131b4565b905092915050565b60006132dd82612918565b91506132e883612918565b9250817fffffffffffffffffffffffffffffffffffffffffffffffffffffffffffffffff048311821515161561332157613320612fce565b5b828202905092915050565b7f4e487b7100000000000000000000000000000000000000000000000000000000600052601260045260246000fd5b600061336682612918565b915061337183612918565b9250826133815761338061332c565b5b828204905092915050565b7f5a45524f5f534841524553000000000000000000000000000000000000000000600082015250565b60006133c2600b836129c3565b91506133cd8261338c565b602082019050919050565b600060208201905081810360008301526133f1816133b5565b9050919050565b600060408201905061340d600083018561298e565b61341a602083018461298e565b9392505050565b7f5a45524f5f415353455453000000000000000000000000000000000000000000600082015250565b6000613457600b836129c3565b915061346282613421565b602082019050919050565b600060208201905081810360008301526134868161344a565b9050919050565b7f5045524d49545f444541444c494e455f45585049524544000000000000000000600082015250565b60006134c36017836129c3565b91506134ce8261348d565b602082019050919050565b600060208201905081810360008301526134f2816134b6565b9050919050565b600060c08201905061350e6000830189612bc1565b61351b6020830188612b56565b6135286040830187612b56565b613535606083018661298e565b613542608083018561298e565b61354f60a083018461298e565b979650505050505050565b600081905092915050565b7f1901000000000000000000000000000000000000000000000000000000000000600082015250565b600061359b60028361355a565b91506135a682613565565b600282019050919050565b6000819050919050565b6135cc6135c782612bb7565b6135b1565b82525050565b60006135dd8261358e565b91506135e982856135bb565b6020820191506135f982846135bb565b6020820191508190509392505050565b600060808201905061361e6000830187612bc1565b61362b6020830186612b8d565b6136386040830185612bc1565b6136456060830184612bc1565b95945050505050565b7f494e56414c49445f5349474e4552000000000000000000000000000000000000600082015250565b6000613684600e836129c3565b915061368f8261364e565b602082019050919050565b600060208201905081810360008301526136b381613677565b9050919050565b600081905092915050565b60008190508160005260206000209050919050565b600081546136e781613082565b6136f181866136ba565b9450600182166000811461370c576001811461371d57613750565b60ff19831686528186019350613750565b613726856136c5565b60005b8381101561374857815481890152600182019150602081019050613729565b838801955050505b50505092915050565b600061376582846136da565b915081905092915050565b600060a0820190506137856000830188612bc1565b6137926020830187612bc1565b61379f6040830186612bc1565b6137ac606083018561298e565b6137b96080830184612b56565b9695505050505050565b7f5452414e534645525f46524f4d5f4641494c4544000000000000000000000000600082015250565b60006137f96014836129c3565b9150613804826137c3565b602082019050919050565b60006020820190508181036000830152613828816137ec565b9050919050565b7f5452414e534645525f4641494c45440000000000000000000000000000000000600082015250565b6000613865600f836129c3565b91506138708261382f565b602082019050919050565b6000602082019050818103600083015261389481613858565b905091905056fea2646970667358221220eed90698a5b669f092e90c2ccb248248029b9900e0ab4632a939288a00258e5964736f6c63430008080033",
  "linkReferences": {},
  "deployedLinkReferences": {}
}