{
  "_format": "hh-sol-artifact-1",
  "contractName": "Vault",
  "sourceName": "contracts/Vault.sol",
  "abi": [
    {
      "inputs": [
        {
          "internalType": "contract ERC20",
          "name": "_underlying",
          "type": "address"
        },
        {
          "internalType": "address",
          "name": "_vaultManager",
          "type": "address"
        },
        {
          "internalType": "string",
          "name": "_name",
          "type": "string"
        },
        {
          "internalType": "string",
          "name": "_symbol",
          "type": "string"
        },
        {
          "internalType": "address",
          "name": "_squid",
          "type": "address"
        }
      ],
      "stateMutability": "nonpayable",
      "type": "constructor"
    },
    {
      "anonymous": false,
      "inputs": [
        {
          "indexed": true,
          "internalType": "address",
          "name": "owner",
          "type": "address"
        },
        {
          "indexed": true,
          "internalType": "address",
          "name": "spender",
          "type": "address"
        },
        {
          "indexed": false,
          "internalType": "uint256",
          "name": "amount",
          "type": "uint256"
        }
      ],
      "name": "Approval",
      "type": "event"
    },
    {
      "anonymous": false,
      "inputs": [
        {
          "indexed": true,
          "internalType": "address",
          "name": "from",
          "type": "address"
        },
        {
          "indexed": true,
          "internalType": "address",
          "name": "to",
          "type": "address"
        },
        {
          "indexed": false,
          "internalType": "uint256",
          "name": "amount",
          "type": "uint256"
        },
        {
          "indexed": false,
          "internalType": "uint256",
          "name": "shares",
          "type": "uint256"
        }
      ],
      "name": "Deposit",
      "type": "event"
    },
    {
      "anonymous": false,
      "inputs": [
        {
          "indexed": true,
          "internalType": "address",
          "name": "from",
          "type": "address"
        },
        {
          "indexed": true,
          "internalType": "address",
          "name": "to",
          "type": "address"
        },
        {
          "indexed": false,
          "internalType": "uint256",
          "name": "amount",
          "type": "uint256"
        }
      ],
      "name": "Transfer",
      "type": "event"
    },
    {
      "anonymous": false,
      "inputs": [
        {
          "indexed": true,
          "internalType": "address",
          "name": "from",
          "type": "address"
        },
        {
          "indexed": true,
          "internalType": "address",
          "name": "to",
          "type": "address"
        },
        {
          "indexed": false,
          "internalType": "uint256",
          "name": "amount",
          "type": "uint256"
        },
        {
          "indexed": false,
          "internalType": "uint256",
          "name": "shares",
          "type": "uint256"
        }
      ],
      "name": "Withdraw",
      "type": "event"
    },
    {
      "inputs": [],
      "name": "DOMAIN_SEPARATOR",
      "outputs": [
        {
          "internalType": "bytes32",
          "name": "",
          "type": "bytes32"
        }
      ],
      "stateMutability": "view",
      "type": "function"
    },
    {
      "inputs": [
        {
          "internalType": "address",
          "name": "",
          "type": "address"
        },
        {
          "internalType": "address",
          "name": "",
          "type": "address"
        }
      ],
      "name": "allowance",
      "outputs": [
        {
          "internalType": "uint256",
          "name": "",
          "type": "uint256"
        }
      ],
      "stateMutability": "view",
      "type": "function"
    },
    {
      "inputs": [
        {
          "internalType": "address",
          "name": "spender",
          "type": "address"
        },
        {
          "internalType": "uint256",
          "name": "amount",
          "type": "uint256"
        }
      ],
      "name": "approve",
      "outputs": [
        {
          "internalType": "bool",
          "name": "",
          "type": "bool"
        }
      ],
      "stateMutability": "nonpayable",
      "type": "function"
    },
    {
      "inputs": [],
      "name": "asset",
      "outputs": [
        {
          "internalType": "contract ERC20",
          "name": "",
          "type": "address"
        }
      ],
      "stateMutability": "view",
      "type": "function"
    },
    {
      "inputs": [
        {
          "internalType": "address",
          "name": "user",
          "type": "address"
        }
      ],
      "name": "assetsOf",
      "outputs": [
        {
          "internalType": "uint256",
          "name": "",
          "type": "uint256"
        }
      ],
      "stateMutability": "view",
      "type": "function"
    },
    {
      "inputs": [],
      "name": "assetsPerShare",
      "outputs": [
        {
          "internalType": "uint256",
          "name": "",
          "type": "uint256"
        }
      ],
      "stateMutability": "view",
      "type": "function"
    },
    {
      "inputs": [
        {
          "internalType": "address",
          "name": "",
          "type": "address"
        }
      ],
      "name": "balanceOf",
      "outputs": [
        {
          "internalType": "uint256",
          "name": "",
          "type": "uint256"
        }
      ],
      "stateMutability": "view",
      "type": "function"
    },
    {
      "inputs": [],
      "name": "decimals",
      "outputs": [
        {
          "internalType": "uint8",
          "name": "",
          "type": "uint8"
        }
      ],
      "stateMutability": "view",
      "type": "function"
    },
    {
      "inputs": [
        {
          "internalType": "uint256",
          "name": "amount",
          "type": "uint256"
        },
        {
          "internalType": "address",
          "name": "to",
          "type": "address"
        }
      ],
      "name": "deposit",
      "outputs": [
        {
          "internalType": "uint256",
          "name": "shares",
          "type": "uint256"
        }
      ],
      "stateMutability": "nonpayable",
      "type": "function"
    },
    {
      "inputs": [],
      "name": "depositAll",
      "outputs": [],
      "stateMutability": "nonpayable",
      "type": "function"
    },
    {
      "inputs": [],
      "name": "earn",
      "outputs": [],
      "stateMutability": "nonpayable",
      "type": "function"
    },
    {
      "inputs": [],
      "name": "freeFloat",
      "outputs": [
        {
          "internalType": "uint256",
          "name": "",
          "type": "uint256"
        }
      ],
      "stateMutability": "view",
      "type": "function"
    },
    {
      "inputs": [
        {
          "internalType": "address",
          "name": "reserve",
          "type": "address"
        },
        {
          "internalType": "uint256",
          "name": "amount",
          "type": "uint256"
        }
      ],
      "name": "harvest",
      "outputs": [],
      "stateMutability": "nonpayable",
      "type": "function"
    },
    {
      "inputs": [],
      "name": "idleFloat",
      "outputs": [
        {
          "internalType": "uint256",
          "name": "",
          "type": "uint256"
        }
      ],
      "stateMutability": "view",
      "type": "function"
    },
    {
      "inputs": [
        {
          "internalType": "address",
          "name": "",
          "type": "address"
        }
      ],
      "name": "maxDeposit",
      "outputs": [
        {
          "internalType": "uint256",
          "name": "",
          "type": "uint256"
        }
      ],
      "stateMutability": "pure",
      "type": "function"
    },
    {
      "inputs": [],
      "name": "maxFloat",
      "outputs": [
        {
          "internalType": "uint256",
          "name": "",
          "type": "uint256"
        }
      ],
      "stateMutability": "view",
      "type": "function"
    },
    {
      "inputs": [
        {
          "internalType": "address",
          "name": "",
          "type": "address"
        }
      ],
      "name": "maxMint",
      "outputs": [
        {
          "internalType": "uint256",
          "name": "",
          "type": "uint256"
        }
      ],
      "stateMutability": "pure",
      "type": "function"
    },
    {
      "inputs": [
        {
          "internalType": "address",
          "name": "user",
          "type": "address"
        }
      ],
      "name": "maxRedeem",
      "outputs": [
        {
          "internalType": "uint256",
          "name": "",
          "type": "uint256"
        }
      ],
      "stateMutability": "view",
      "type": "function"
    },
    {
      "inputs": [
        {
          "internalType": "address",
          "name": "user",
          "type": "address"
        }
      ],
      "name": "maxWithdraw",
      "outputs": [
        {
          "internalType": "uint256",
          "name": "",
          "type": "uint256"
        }
      ],
      "stateMutability": "view",
      "type": "function"
    },
    {
      "inputs": [],
      "name": "minFloat",
      "outputs": [
        {
          "internalType": "uint256",
          "name": "",
          "type": "uint256"
        }
      ],
      "stateMutability": "view",
      "type": "function"
    },
    {
      "inputs": [
        {
          "internalType": "uint256",
          "name": "shares",
          "type": "uint256"
        },
        {
          "internalType": "address",
          "name": "to",
          "type": "address"
        }
      ],
      "name": "mint",
      "outputs": [
        {
          "internalType": "uint256",
          "name": "amount",
          "type": "uint256"
        }
      ],
      "stateMutability": "nonpayable",
      "type": "function"
    },
    {
      "inputs": [],
      "name": "name",
      "outputs": [
        {
          "internalType": "string",
          "name": "",
          "type": "string"
        }
      ],
      "stateMutability": "view",
      "type": "function"
    },
    {
      "inputs": [
        {
          "internalType": "address",
          "name": "",
          "type": "address"
        }
      ],
      "name": "nonces",
      "outputs": [
        {
          "internalType": "uint256",
          "name": "",
          "type": "uint256"
        }
      ],
      "stateMutability": "view",
      "type": "function"
    },
    {
      "inputs": [
        {
          "internalType": "address",
          "name": "owner",
          "type": "address"
        },
        {
          "internalType": "address",
          "name": "spender",
          "type": "address"
        },
        {
          "internalType": "uint256",
          "name": "value",
          "type": "uint256"
        },
        {
          "internalType": "uint256",
          "name": "deadline",
          "type": "uint256"
        },
        {
          "internalType": "uint8",
          "name": "v",
          "type": "uint8"
        },
        {
          "internalType": "bytes32",
          "name": "r",
          "type": "bytes32"
        },
        {
          "internalType": "bytes32",
          "name": "s",
          "type": "bytes32"
        }
      ],
      "name": "permit",
      "outputs": [],
      "stateMutability": "nonpayable",
      "type": "function"
    },
    {
      "inputs": [
        {
          "internalType": "uint256",
          "name": "amount",
          "type": "uint256"
        }
      ],
      "name": "previewDeposit",
      "outputs": [
        {
          "internalType": "uint256",
          "name": "shares",
          "type": "uint256"
        }
      ],
      "stateMutability": "view",
      "type": "function"
    },
    {
      "inputs": [
        {
          "internalType": "uint256",
          "name": "shares",
          "type": "uint256"
        }
      ],
      "name": "previewMint",
      "outputs": [
        {
          "internalType": "uint256",
          "name": "amount",
          "type": "uint256"
        }
      ],
      "stateMutability": "view",
      "type": "function"
    },
    {
      "inputs": [
        {
          "internalType": "uint256",
          "name": "shares",
          "type": "uint256"
        }
      ],
      "name": "previewRedeem",
      "outputs": [
        {
          "internalType": "uint256",
          "name": "amount",
          "type": "uint256"
        }
      ],
      "stateMutability": "view",
      "type": "function"
    },
    {
      "inputs": [
        {
          "internalType": "uint256",
          "name": "amount",
          "type": "uint256"
        }
      ],
      "name": "previewWithdraw",
      "outputs": [
        {
          "internalType": "uint256",
          "name": "shares",
          "type": "uint256"
        }
      ],
      "stateMutability": "view",
      "type": "function"
    },
    {
      "inputs": [
        {
          "internalType": "uint256",
          "name": "shares",
          "type": "uint256"
        },
        {
          "internalType": "address",
          "name": "to",
          "type": "address"
        },
        {
          "internalType": "address",
          "name": "from",
          "type": "address"
        }
      ],
      "name": "redeem",
      "outputs": [
        {
          "internalType": "uint256",
          "name": "amount",
          "type": "uint256"
        }
      ],
      "stateMutability": "nonpayable",
      "type": "function"
    },
    {
      "inputs": [
        {
          "internalType": "uint256",
          "name": "_min",
          "type": "uint256"
        }
      ],
      "name": "setMin",
      "outputs": [],
      "stateMutability": "nonpayable",
      "type": "function"
    },
    {
      "inputs": [
        {
          "internalType": "address",
          "name": "_vaultManager",
          "type": "address"
        }
      ],
      "name": "setVaultManager",
      "outputs": [],
      "stateMutability": "nonpayable",
      "type": "function"
    },
    {
      "inputs": [
        {
          "internalType": "address",
          "name": "_squid",
          "type": "address"
        }
      ],
      "name": "setsquid",
      "outputs": [],
      "stateMutability": "nonpayable",
      "type": "function"
    },
    {
      "inputs": [],
      "name": "squid",
      "outputs": [
        {
          "internalType": "address",
          "name": "",
          "type": "address"
        }
      ],
      "stateMutability": "view",
      "type": "function"
    },
    {
      "inputs": [],
      "name": "symbol",
      "outputs": [
        {
          "internalType": "string",
          "name": "",
          "type": "string"
        }
      ],
      "stateMutability": "view",
      "type": "function"
    },
    {
      "inputs": [],
      "name": "totalAssets",
      "outputs": [
        {
          "internalType": "uint256",
          "name": "",
          "type": "uint256"
        }
      ],
      "stateMutability": "view",
      "type": "function"
    },
    {
      "inputs": [],
      "name": "totalFloat",
      "outputs": [
        {
          "internalType": "uint256",
          "name": "",
          "type": "uint256"
        }
      ],
      "stateMutability": "view",
      "type": "function"
    },
    {
      "inputs": [],
      "name": "totalSupply",
      "outputs": [
        {
          "internalType": "uint256",
          "name": "",
          "type": "uint256"
        }
      ],
      "stateMutability": "view",
      "type": "function"
    },
    {
      "inputs": [
        {
          "internalType": "address",
          "name": "to",
          "type": "address"
        },
        {
          "internalType": "uint256",
          "name": "amount",
          "type": "uint256"
        }
      ],
      "name": "transfer",
      "outputs": [
        {
          "internalType": "bool",
          "name": "",
          "type": "bool"
        }
      ],
      "stateMutability": "nonpayable",
      "type": "function"
    },
    {
      "inputs": [
        {
          "internalType": "address",
          "name": "from",
          "type": "address"
        },
        {
          "internalType": "address",
          "name": "to",
          "type": "address"
        },
        {
          "internalType": "uint256",
          "name": "amount",
          "type": "uint256"
        }
      ],
      "name": "transferFrom",
      "outputs": [
        {
          "internalType": "bool",
          "name": "",
          "type": "bool"
        }
      ],
      "stateMutability": "nonpayable",
      "type": "function"
    },
    {
      "inputs": [],
      "name": "vaultManager",
      "outputs": [
        {
          "internalType": "address",
          "name": "",
          "type": "address"
        }
      ],
      "stateMutability": "view",
      "type": "function"
    },
    {
      "inputs": [
        {
          "internalType": "uint256",
          "name": "amount",
          "type": "uint256"
        },
        {
          "internalType": "address",
          "name": "to",
          "type": "address"
        },
        {
          "internalType": "address",
          "name": "from",
          "type": "address"
        }
      ],
      "name": "withdraw",
      "outputs": [
        {
          "internalType": "uint256",
          "name": "shares",
          "type": "uint256"
        }
      ],
      "stateMutability": "nonpayable",
      "type": "function"
    },
    {
      "inputs": [],
      "name": "withdrawAll",
      "outputs": [],
      "stateMutability": "nonpayable",
      "type": "function"
    }
  ],
  "bytecode": "0x61010060405261251c6007553480156200001857600080fd5b50604051620041733803806200417383398181016040528101906200003e91906200055c565b82828673ffffffffffffffffffffffffffffffffffffffff1663313ce5676040518163ffffffff1660e01b8152600401602060405180830381865afa1580156200008c573d6000803e3d6000fd5b505050506040513d601f19601f82011682018060405250810190620000b2919062000660565b8260009080519060200190620000ca92919062000265565b508160019080519060200190620000e392919062000265565b508060ff1660808160ff16815250504660a081815250506200010a620001d560201b60201c565b60c081815250505050508473ffffffffffffffffffffffffffffffffffffffff1660e08173ffffffffffffffffffffffffffffffffffffffff168152505080600860006101000a81548173ffffffffffffffffffffffffffffffffffffffff021916908373ffffffffffffffffffffffffffffffffffffffff16021790555083600960006101000a81548173ffffffffffffffffffffffffffffffffffffffff021916908373ffffffffffffffffffffffffffffffffffffffff16021790555050505050506200085f565b60007f8b73c3c69bb8fe3d512ecc4cf759cc79239f7b179b0ffacaa9a75d522b39400f6000604051620002099190620007a2565b60405180910390207fc89efdaa54c0f20c7adf612882df0950f5a951637e0307cdcb4c672f298b8bc646306040516020016200024a95949392919062000802565b60405160208183030381529060405280519060200120905090565b8280546200027390620006c1565b90600052602060002090601f016020900481019282620002975760008555620002e3565b82601f10620002b257805160ff1916838001178555620002e3565b82800160010185558215620002e3579182015b82811115620002e2578251825591602001919060010190620002c5565b5b509050620002f29190620002f6565b5090565b5b8082111562000311576000816000905550600101620002f7565b5090565b6000604051905090565b600080fd5b600080fd5b600073ffffffffffffffffffffffffffffffffffffffff82169050919050565b6000620003568262000329565b9050919050565b60006200036a8262000349565b9050919050565b6200037c816200035d565b81146200038857600080fd5b50565b6000815190506200039c8162000371565b92915050565b620003ad8162000349565b8114620003b957600080fd5b50565b600081519050620003cd81620003a2565b92915050565b600080fd5b600080fd5b6000601f19601f8301169050919050565b7f4e487b7100000000000000000000000000000000000000000000000000000000600052604160045260246000fd5b6200042882620003dd565b810181811067ffffffffffffffff821117156200044a5762000449620003ee565b5b80604052505050565b60006200045f62000315565b90506200046d82826200041d565b919050565b600067ffffffffffffffff82111562000490576200048f620003ee565b5b6200049b82620003dd565b9050602081019050919050565b60005b83811015620004c8578082015181840152602081019050620004ab565b83811115620004d8576000848401525b50505050565b6000620004f5620004ef8462000472565b62000453565b905082815260208101848484011115620005145762000513620003d8565b5b62000521848285620004a8565b509392505050565b600082601f830112620005415762000540620003d3565b5b815162000553848260208601620004de565b91505092915050565b600080600080600060a086880312156200057b576200057a6200031f565b5b60006200058b888289016200038b565b95505060206200059e88828901620003bc565b945050604086015167ffffffffffffffff811115620005c257620005c162000324565b5b620005d08882890162000529565b935050606086015167ffffffffffffffff811115620005f457620005f362000324565b5b620006028882890162000529565b92505060806200061588828901620003bc565b9150509295509295909350565b600060ff82169050919050565b6200063a8162000622565b81146200064657600080fd5b50565b6000815190506200065a816200062f565b92915050565b6000602082840312156200067957620006786200031f565b5b6000620006898482850162000649565b91505092915050565b7f4e487b7100000000000000000000000000000000000000000000000000000000600052602260045260246000fd5b60006002820490506001821680620006da57607f821691505b60208210811415620006f157620006f062000692565b5b50919050565b600081905092915050565b60008190508160005260206000209050919050565b600081546200072681620006c1565b620007328186620006f7565b94506001821660008114620007505760018114620007625762000799565b60ff1983168652818601935062000799565b6200076d8562000702565b60005b83811015620007915781548189015260018201915060208101905062000770565b838801955050505b50505092915050565b6000620007b0828462000717565b915081905092915050565b6000819050919050565b620007d081620007bb565b82525050565b6000819050919050565b620007eb81620007d6565b82525050565b620007fc8162000349565b82525050565b600060a082019050620008196000830188620007c5565b620008286020830187620007c5565b620008376040830186620007c5565b620008466060830185620007e0565b620008556080830184620007f1565b9695505050505050565b60805160a05160c05160e051613886620008ed600039600081816108f101528181610a650152818161110f015281816113380152818161149d015281816118f501528181611c8901528181611d1f01528181611e1e015281816121fc015281816122ea015261268f015260006110e8015260006110b4015260008181611052015261107b01526138866000f3fe608060405234801561001057600080fd5b506004361061025e5760003560e01c8063841219e511610146578063c63d75b6116100c3578063dd62ed3e11610087578063dd62ed3e1461079b578063de5f6268146107cb578063ea8846a9146107d5578063ef8b30f7146107f3578063f0f5b44114610823578063f8275034146108415761025e565b8063c63d75b6146106e5578063ce96cb7714610715578063d389800f14610745578063d505accf1461074f578063d905777e1461076b5761025e565b8063a9059cbb1161010a578063a9059cbb14610609578063b3d7f6b914610639578063b460af9414610669578063b543503e14610699578063ba087652146106b55761025e565b8063841219e514610575578063853828b6146105935780638a4adf241461059d57806394bf804d146105bb57806395d89b41146105eb5761025e565b8063313ce567116101df57806345dc3dd8116101a357806345dc3dd81461047b5780634cdad506146104975780636254f728146104c75780636e553f65146104e557806370a08231146105155780637ecebe00146105455761025e565b8063313ce567146103d357806335d16e17146103f15780633644e5151461040f57806338d52e0f1461042d578063402d267d1461044b5761025e565b80630a28a477116102265780630a28a4771461030757806318160ddd1461033757806323b872dd146103555780632c62fa10146103855780632e10d36c146103b55761025e565b8063018ee9b71461026357806301e1d1141461027f57806306fdde031461029d57806307db12c8146102bb578063095ea7b3146102d7575b600080fd5b61027d60048036038101906102789190612903565b61085f565b005b610287610a23565b6040516102949190612952565b60405180910390f35b6102a5610af8565b6040516102b29190612a06565b60405180910390f35b6102d560048036038101906102d09190612a28565b610b86565b005b6102f160048036038101906102ec9190612903565b610c5a565b6040516102fe9190612a70565b60405180910390f35b610321600480360381019061031c9190612a8b565b610d4c565b60405161032e9190612952565b60405180910390f35b61033f610d89565b60405161034c9190612952565b60405180910390f35b61036f600480360381019061036a9190612ab8565b610d8f565b60405161037c9190612a70565b60405180910390f35b61039f600480360381019061039a9190612a28565b610fd9565b6040516103ac9190612952565b60405180910390f35b6103bd61102a565b6040516103ca9190612b1a565b60405180910390f35b6103db611050565b6040516103e89190612b51565b60405180910390f35b6103f9611074565b6040516104069190612952565b60405180910390f35b6104176110b0565b6040516104249190612b85565b60405180910390f35b61043561110d565b6040516104429190612bff565b60405180910390f35b61046560048036038101906104609190612a28565b611131565b6040516104729190612952565b60405180910390f35b61049560048036038101906104909190612a8b565b61115b565b005b6104b160048036038101906104ac9190612a8b565b6111f5565b6040516104be9190612952565b60405180910390f35b6104cf611232565b6040516104dc9190612952565b60405180910390f35b6104ff60048036038101906104fa9190612c1a565b611256565b60405161050c9190612952565b60405180910390f35b61052f600480360381019061052a9190612a28565b61138c565b60405161053c9190612952565b60405180910390f35b61055f600480360381019061055a9190612a28565b6113a4565b60405161056c9190612952565b60405180910390f35b61057d6113bc565b60405161058a9190612952565b60405180910390f35b61059b6113c2565b005b6105a56113d8565b6040516105b29190612b1a565b60405180910390f35b6105d560048036038101906105d09190612c1a565b6113fe565b6040516105e29190612952565b60405180910390f35b6105f36114f1565b6040516106009190612a06565b60405180910390f35b610623600480360381019061061e9190612903565b61157f565b6040516106309190612a70565b60405180910390f35b610653600480360381019061064e9190612a8b565b611693565b6040516106609190612952565b60405180910390f35b610683600480360381019061067e9190612c5a565b6116d0565b6040516106909190612952565b60405180910390f35b6106b360048036038101906106ae9190612a28565b611941565b005b6106cf60048036038101906106ca9190612c5a565b611a15565b6040516106dc9190612952565b60405180910390f35b6106ff60048036038101906106fa9190612a28565b611cd5565b60405161070c9190612952565b60405180910390f35b61072f600480360381019061072a9190612a28565b611cff565b60405161073c9190612952565b60405180910390f35b61074d611d11565b005b61076960048036038101906107649190612d05565b611e90565b005b61078560048036038101906107809190612a28565b612189565b6040516107929190612952565b60405180910390f35b6107b560048036038101906107b09190612da7565b6121d2565b6040516107c29190612952565b60405180910390f35b6107d36121f7565b005b6107dd61229d565b6040516107ea9190612952565b60405180910390f35b61080d60048036038101906108089190612a8b565b6122a3565b60405161081a9190612952565b60405180910390f35b61082b6122e0565b6040516108389190612952565b60405180910390f35b6108496122e6565b6040516108569190612952565b60405180910390f35b600860009054906101000a900473ffffffffffffffffffffffffffffffffffffffff1673ffffffffffffffffffffffffffffffffffffffff163373ffffffffffffffffffffffffffffffffffffffff16146108ef576040517f08c379a00000000000000000000000000000000000000000000000000000000081526004016108e690612e33565b60405180910390fd5b7f000000000000000000000000000000000000000000000000000000000000000073ffffffffffffffffffffffffffffffffffffffff168273ffffffffffffffffffffffffffffffffffffffff16141561097e576040517f08c379a000000000000000000000000000000000000000000000000000000000815260040161097590612e9f565b60405180910390fd5b8173ffffffffffffffffffffffffffffffffffffffff1663a9059cbb600860009054906101000a900473ffffffffffffffffffffffffffffffffffffffff16836040518363ffffffff1660e01b81526004016109db929190612ebf565b6020604051808303816000875af11580156109fa573d6000803e3d6000fd5b505050506040513d601f19601f82011682018060405250810190610a1e9190612f14565b505050565b6000600860009054906101000a900473ffffffffffffffffffffffffffffffffffffffff1673ffffffffffffffffffffffffffffffffffffffff166370a082317f00000000000000000000000000000000000000000000000000000000000000006040518263ffffffff1660e01b8152600401610aa09190612b1a565b602060405180830381865afa158015610abd573d6000803e3d6000fd5b505050506040513d601f19601f82011682018060405250810190610ae19190612f56565b610ae96122e6565b610af39190612fb2565b905090565b60008054610b0590613037565b80601f0160208091040260200160405190810160405280929190818152602001828054610b3190613037565b8015610b7e5780601f10610b5357610100808354040283529160200191610b7e565b820191906000526020600020905b815481529060010190602001808311610b6157829003601f168201915b505050505081565b600960009054906101000a900473ffffffffffffffffffffffffffffffffffffffff1673ffffffffffffffffffffffffffffffffffffffff163373ffffffffffffffffffffffffffffffffffffffff1614610c16576040517f08c379a0000000000000000000000000000000000000000000000000000000008152600401610c0d906130b5565b60405180910390fd5b80600860006101000a81548173ffffffffffffffffffffffffffffffffffffffff021916908373ffffffffffffffffffffffffffffffffffffffff16021790555050565b600081600460003373ffffffffffffffffffffffffffffffffffffffff1673ffffffffffffffffffffffffffffffffffffffff16815260200190815260200160002060008573ffffffffffffffffffffffffffffffffffffffff1673ffffffffffffffffffffffffffffffffffffffff168152602001908152602001600020819055508273ffffffffffffffffffffffffffffffffffffffff163373ffffffffffffffffffffffffffffffffffffffff167f8c5be1e5ebec7d5bd14f71427d1e84f3dd0314c0f7b2291e5b200ac8c7c3b92584604051610d3a9190612952565b60405180910390a36001905092915050565b600080600254905060008114610d7f57610d7a600254610d6a610a23565b856123879092919063ffffffff16565b610d81565b825b915050919050565b60025481565b600080600460008673ffffffffffffffffffffffffffffffffffffffff1673ffffffffffffffffffffffffffffffffffffffff16815260200190815260200160002060003373ffffffffffffffffffffffffffffffffffffffff1673ffffffffffffffffffffffffffffffffffffffff1681526020019081526020016000205490507fffffffffffffffffffffffffffffffffffffffffffffffffffffffffffffffff8114610ec5578281610e4491906130d5565b600460008773ffffffffffffffffffffffffffffffffffffffff1673ffffffffffffffffffffffffffffffffffffffff16815260200190815260200160002060003373ffffffffffffffffffffffffffffffffffffffff1673ffffffffffffffffffffffffffffffffffffffff168152602001908152602001600020819055505b82600360008773ffffffffffffffffffffffffffffffffffffffff1673ffffffffffffffffffffffffffffffffffffffff1681526020019081526020016000206000828254610f1491906130d5565b9250508190555082600360008673ffffffffffffffffffffffffffffffffffffffff1673ffffffffffffffffffffffffffffffffffffffff168152602001908152602001600020600082825401925050819055508373ffffffffffffffffffffffffffffffffffffffff168573ffffffffffffffffffffffffffffffffffffffff167fddf252ad1be2c89b69c2b068fc378daa952ba7f163c4a11628f55a4df523b3ef85604051610fc59190612952565b60405180910390a360019150509392505050565b6000611023600360008473ffffffffffffffffffffffffffffffffffffffff1673ffffffffffffffffffffffffffffffffffffffff168152602001908152602001600020546111f5565b9050919050565b600860009054906101000a900473ffffffffffffffffffffffffffffffffffffffff1681565b7f000000000000000000000000000000000000000000000000000000000000000081565b60006110ab7f0000000000000000000000000000000000000000000000000000000000000000600a6110a6919061323c565b6111f5565b905090565b60007f000000000000000000000000000000000000000000000000000000000000000046146110e6576110e16123d3565b611108565b7f00000000000000000000000000000000000000000000000000000000000000005b905090565b7f000000000000000000000000000000000000000000000000000000000000000081565b60007fffffffffffffffffffffffffffffffffffffffffffffffffffffffffffffffff9050919050565b600960009054906101000a900473ffffffffffffffffffffffffffffffffffffffff1673ffffffffffffffffffffffffffffffffffffffff163373ffffffffffffffffffffffffffffffffffffffff16146111eb576040517f08c379a00000000000000000000000000000000000000000000000000000000081526004016111e290612e33565b60405180910390fd5b8060078190555050565b60008060025490506000811461122857611223611210610a23565b6002548561245f9092919063ffffffff16565b61122a565b825b915050919050565b60006127106007546006546112479190613287565b6112519190613310565b905090565b600080611262846122a3565b91508114156112a6576040517f08c379a000000000000000000000000000000000000000000000000000000000815260040161129d9061338d565b60405180910390fd5b6112b082826124a2565b82600660008282546112c29190612fb2565b925050819055508173ffffffffffffffffffffffffffffffffffffffff163373ffffffffffffffffffffffffffffffffffffffff167fdcbc1c05240f31ff3ad067ef1ee35ce4997762752e3a095284754544f4c709d785846040516113289291906133ad565b60405180910390a361137d3330857f000000000000000000000000000000000000000000000000000000000000000073ffffffffffffffffffffffffffffffffffffffff16612572909392919063ffffffff16565b61138683612611565b92915050565b60036020528060005260406000206000915090505481565b60056020528060005260406000206000915090505481565b60065481565b6113d56113ce33610fd9565b33336116d0565b50565b600960009054906101000a900473ffffffffffffffffffffffffffffffffffffffff1681565b60006114158261140d85611693565b9250826124a2565b80600660008282546114279190612fb2565b925050819055508173ffffffffffffffffffffffffffffffffffffffff163373ffffffffffffffffffffffffffffffffffffffff167fdcbc1c05240f31ff3ad067ef1ee35ce4997762752e3a095284754544f4c709d7838660405161148d9291906133ad565b60405180910390a36114e23330837f000000000000000000000000000000000000000000000000000000000000000073ffffffffffffffffffffffffffffffffffffffff16612572909392919063ffffffff16565b6114eb81612611565b92915050565b600180546114fe90613037565b80601f016020809104026020016040519081016040528092919081815260200182805461152a90613037565b80156115775780601f1061154c57610100808354040283529160200191611577565b820191906000526020600020905b81548152906001019060200180831161155a57829003601f168201915b505050505081565b600081600360003373ffffffffffffffffffffffffffffffffffffffff1673ffffffffffffffffffffffffffffffffffffffff16815260200190815260200160002060008282546115d091906130d5565b9250508190555081600360008573ffffffffffffffffffffffffffffffffffffffff1673ffffffffffffffffffffffffffffffffffffffff168152602001908152602001600020600082825401925050819055508273ffffffffffffffffffffffffffffffffffffffff163373ffffffffffffffffffffffffffffffffffffffff167fddf252ad1be2c89b69c2b068fc378daa952ba7f163c4a11628f55a4df523b3ef846040516116819190612952565b60405180910390a36001905092915050565b6000806002549050600081146116c6576116c16116ae610a23565b600254856123879092919063ffffffff16565b6116c8565b825b915050919050565b600080600460008473ffffffffffffffffffffffffffffffffffffffff1673ffffffffffffffffffffffffffffffffffffffff16815260200190815260200160002060003373ffffffffffffffffffffffffffffffffffffffff1673ffffffffffffffffffffffffffffffffffffffff1681526020019081526020016000205490508273ffffffffffffffffffffffffffffffffffffffff163373ffffffffffffffffffffffffffffffffffffffff16141580156117ae57507fffffffffffffffffffffffffffffffffffffffffffffffffffffffffffffffff8114155b156118405781816117bf91906130d5565b600460008573ffffffffffffffffffffffffffffffffffffffff1673ffffffffffffffffffffffffffffffffffffffff16815260200190815260200160002060003373ffffffffffffffffffffffffffffffffffffffff1673ffffffffffffffffffffffffffffffffffffffff168152602001908152602001600020819055505b6118486122e6565b8511156118595761185885612614565b5b61186e8361186687610d4c565b935083612702565b846006600082825461188091906130d5565b925050819055508373ffffffffffffffffffffffffffffffffffffffff168373ffffffffffffffffffffffffffffffffffffffff167ff341246adaac6f497bc2a656f546ab9e182111d630394f0c57c710a59a2cb56787856040516118e69291906133ad565b60405180910390a361193984867f000000000000000000000000000000000000000000000000000000000000000073ffffffffffffffffffffffffffffffffffffffff166127d29092919063ffffffff16565b509392505050565b600960009054906101000a900473ffffffffffffffffffffffffffffffffffffffff1673ffffffffffffffffffffffffffffffffffffffff163373ffffffffffffffffffffffffffffffffffffffff16146119d1576040517f08c379a00000000000000000000000000000000000000000000000000000000081526004016119c8906130b5565b60405180910390fd5b80600960006101000a81548173ffffffffffffffffffffffffffffffffffffffff021916908373ffffffffffffffffffffffffffffffffffffffff16021790555050565b600080600460008473ffffffffffffffffffffffffffffffffffffffff1673ffffffffffffffffffffffffffffffffffffffff16815260200190815260200160002060003373ffffffffffffffffffffffffffffffffffffffff1673ffffffffffffffffffffffffffffffffffffffff1681526020019081526020016000205490508273ffffffffffffffffffffffffffffffffffffffff163373ffffffffffffffffffffffffffffffffffffffff1614158015611af357507fffffffffffffffffffffffffffffffffffffffffffffffffffffffffffffffff8114155b15611b85578481611b0491906130d5565b600460008573ffffffffffffffffffffffffffffffffffffffff1673ffffffffffffffffffffffffffffffffffffffff16815260200190815260200160002060003373ffffffffffffffffffffffffffffffffffffffff1673ffffffffffffffffffffffffffffffffffffffff168152602001908152602001600020819055505b6000611b90866111f5565b9250821415611bd4576040517f08c379a0000000000000000000000000000000000000000000000000000000008152600401611bcb90613422565b60405180910390fd5b611bdc6122e6565b851115611bed57611bec85612614565b5b611bf6856111f5565b9150611c028386612702565b8160066000828254611c1491906130d5565b925050819055508373ffffffffffffffffffffffffffffffffffffffff168373ffffffffffffffffffffffffffffffffffffffff167ff341246adaac6f497bc2a656f546ab9e182111d630394f0c57c710a59a2cb5678488604051611c7a9291906133ad565b60405180910390a3611ccd84837f000000000000000000000000000000000000000000000000000000000000000073ffffffffffffffffffffffffffffffffffffffff166127d29092919063ffffffff16565b509392505050565b60007fffffffffffffffffffffffffffffffffffffffffffffffffffffffffffffffff9050919050565b6000611d0a82610fd9565b9050919050565b6000611d1b611232565b90507f000000000000000000000000000000000000000000000000000000000000000073ffffffffffffffffffffffffffffffffffffffff1663a9059cbb600860009054906101000a900473ffffffffffffffffffffffffffffffffffffffff16836040518363ffffffff1660e01b8152600401611d9a929190612ebf565b6020604051808303816000875af1158015611db9573d6000803e3d6000fd5b505050506040513d601f19601f82011682018060405250810190611ddd9190612f14565b50600860009054906101000a900473ffffffffffffffffffffffffffffffffffffffff1673ffffffffffffffffffffffffffffffffffffffff1663b02bf4b97f0000000000000000000000000000000000000000000000000000000000000000836040518363ffffffff1660e01b8152600401611e5b929190612ebf565b600060405180830381600087803b158015611e7557600080fd5b505af1158015611e89573d6000803e3d6000fd5b5050505050565b42841015611ed3576040517f08c379a0000000000000000000000000000000000000000000000000000000008152600401611eca9061348e565b60405180910390fd5b60006001611edf6110b0565b7f6e71edae12b1b97f4d1f60370fef10105fa2faae0126114a169c64845d6126c98a8a8a600560008f73ffffffffffffffffffffffffffffffffffffffff1673ffffffffffffffffffffffffffffffffffffffff1681526020019081526020016000206000815480929190600101919050558b604051602001611f67969594939291906134ae565b60405160208183030381529060405280519060200120604051602001611f8e929190613587565b6040516020818303038152906040528051906020012085858560405160008152602001604052604051611fc494939291906135be565b6020604051602081039080840390855afa158015611fe6573d6000803e3d6000fd5b505050602060405103519050600073ffffffffffffffffffffffffffffffffffffffff168173ffffffffffffffffffffffffffffffffffffffff161415801561205a57508773ffffffffffffffffffffffffffffffffffffffff168173ffffffffffffffffffffffffffffffffffffffff16145b612099576040517f08c379a00000000000000000000000000000000000000000000000000000000081526004016120909061364f565b60405180910390fd5b85600460008373ffffffffffffffffffffffffffffffffffffffff1673ffffffffffffffffffffffffffffffffffffffff16815260200190815260200160002060008973ffffffffffffffffffffffffffffffffffffffff1673ffffffffffffffffffffffffffffffffffffffff16815260200190815260200160002081905550508573ffffffffffffffffffffffffffffffffffffffff168773ffffffffffffffffffffffffffffffffffffffff167f8c5be1e5ebec7d5bd14f71427d1e84f3dd0314c0f7b2291e5b200ac8c7c3b925876040516121789190612952565b60405180910390a350505050505050565b6000600360008373ffffffffffffffffffffffffffffffffffffffff1673ffffffffffffffffffffffffffffffffffffffff168152602001908152602001600020549050919050565b6004602052816000526040600020602052806000526040600020600091509150505481565b61229a7f000000000000000000000000000000000000000000000000000000000000000073ffffffffffffffffffffffffffffffffffffffff166370a08231336040518263ffffffff1660e01b81526004016122539190612b1a565b602060405180830381865afa158015612270573d6000803e3d6000fd5b505050506040513d601f19601f820116820180604052508101906122949190612f56565b33611256565b50565b61271081565b6000806002549050600081146122d6576122d16002546122c1610a23565b8561245f9092919063ffffffff16565b6122d8565b825b915050919050565b60075481565b60007f000000000000000000000000000000000000000000000000000000000000000073ffffffffffffffffffffffffffffffffffffffff166370a08231306040518263ffffffff1660e01b81526004016123419190612b1a565b602060405180830381865afa15801561235e573d6000803e3d6000fd5b505050506040513d601f19601f820116820180604052508101906123829190612f56565b905090565b6000827fffffffffffffffffffffffffffffffffffffffffffffffffffffffffffffffff04841183021582026123bc57600080fd5b818385020460008385870206110190509392505050565b60007f8b73c3c69bb8fe3d512ecc4cf759cc79239f7b179b0ffacaa9a75d522b39400f6000604051612405919061370e565b60405180910390207fc89efdaa54c0f20c7adf612882df0950f5a951637e0307cdcb4c672f298b8bc64630604051602001612444959493929190613725565b60405160208183030381529060405280519060200120905090565b6000827fffffffffffffffffffffffffffffffffffffffffffffffffffffffffffffffff048411830215820261249457600080fd5b818385020490509392505050565b80600260008282546124b49190612fb2565b9250508190555080600360008473ffffffffffffffffffffffffffffffffffffffff1673ffffffffffffffffffffffffffffffffffffffff168152602001908152602001600020600082825401925050819055508173ffffffffffffffffffffffffffffffffffffffff16600073ffffffffffffffffffffffffffffffffffffffff167fddf252ad1be2c89b69c2b068fc378daa952ba7f163c4a11628f55a4df523b3ef836040516125669190612952565b60405180910390a35050565b60006040517f23b872dd0000000000000000000000000000000000000000000000000000000081528460048201528360248201528260448201526020600060648360008a5af13d15601f3d116001600051141617169150508061260a576040517f08c379a0000000000000000000000000000000000000000000000000000000008152600401612601906137c4565b60405180910390fd5b5050505050565b50565b600061261e6122e6565b61271060328461262e9190613287565b6126389190613310565b836126439190612fb2565b61264d91906130d5565b9050600860009054906101000a900473ffffffffffffffffffffffffffffffffffffffff1673ffffffffffffffffffffffffffffffffffffffff1663f3fef3a37f0000000000000000000000000000000000000000000000000000000000000000836040518363ffffffff1660e01b81526004016126cc929190612ebf565b600060405180830381600087803b1580156126e657600080fd5b505af11580156126fa573d6000803e3d6000fd5b505050505050565b80600360008473ffffffffffffffffffffffffffffffffffffffff1673ffffffffffffffffffffffffffffffffffffffff168152602001908152602001600020600082825461275191906130d5565b9250508190555080600260008282540392505081905550600073ffffffffffffffffffffffffffffffffffffffff168273ffffffffffffffffffffffffffffffffffffffff167fddf252ad1be2c89b69c2b068fc378daa952ba7f163c4a11628f55a4df523b3ef836040516127c69190612952565b60405180910390a35050565b60006040517fa9059cbb000000000000000000000000000000000000000000000000000000008152836004820152826024820152602060006044836000895af13d15601f3d1160016000511416171691505080612864576040517f08c379a000000000000000000000000000000000000000000000000000000000815260040161285b90613830565b60405180910390fd5b50505050565b600080fd5b600073ffffffffffffffffffffffffffffffffffffffff82169050919050565b600061289a8261286f565b9050919050565b6128aa8161288f565b81146128b557600080fd5b50565b6000813590506128c7816128a1565b92915050565b6000819050919050565b6128e0816128cd565b81146128eb57600080fd5b50565b6000813590506128fd816128d7565b92915050565b6000806040838503121561291a5761291961286a565b5b6000612928858286016128b8565b9250506020612939858286016128ee565b9150509250929050565b61294c816128cd565b82525050565b60006020820190506129676000830184612943565b92915050565b600081519050919050565b600082825260208201905092915050565b60005b838110156129a757808201518184015260208101905061298c565b838111156129b6576000848401525b50505050565b6000601f19601f8301169050919050565b60006129d88261296d565b6129e28185612978565b93506129f2818560208601612989565b6129fb816129bc565b840191505092915050565b60006020820190508181036000830152612a2081846129cd565b905092915050565b600060208284031215612a3e57612a3d61286a565b5b6000612a4c848285016128b8565b91505092915050565b60008115159050919050565b612a6a81612a55565b82525050565b6000602082019050612a856000830184612a61565b92915050565b600060208284031215612aa157612aa061286a565b5b6000612aaf848285016128ee565b91505092915050565b600080600060608486031215612ad157612ad061286a565b5b6000612adf868287016128b8565b9350506020612af0868287016128b8565b9250506040612b01868287016128ee565b9150509250925092565b612b148161288f565b82525050565b6000602082019050612b2f6000830184612b0b565b92915050565b600060ff82169050919050565b612b4b81612b35565b82525050565b6000602082019050612b666000830184612b42565b92915050565b6000819050919050565b612b7f81612b6c565b82525050565b6000602082019050612b9a6000830184612b76565b92915050565b6000819050919050565b6000612bc5612bc0612bbb8461286f565b612ba0565b61286f565b9050919050565b6000612bd782612baa565b9050919050565b6000612be982612bcc565b9050919050565b612bf981612bde565b82525050565b6000602082019050612c146000830184612bf0565b92915050565b60008060408385031215612c3157612c3061286a565b5b6000612c3f858286016128ee565b9250506020612c50858286016128b8565b9150509250929050565b600080600060608486031215612c7357612c7261286a565b5b6000612c81868287016128ee565b9350506020612c92868287016128b8565b9250506040612ca3868287016128b8565b9150509250925092565b612cb681612b35565b8114612cc157600080fd5b50565b600081359050612cd381612cad565b92915050565b612ce281612b6c565b8114612ced57600080fd5b50565b600081359050612cff81612cd9565b92915050565b600080600080600080600060e0888a031215612d2457612d2361286a565b5b6000612d328a828b016128b8565b9750506020612d438a828b016128b8565b9650506040612d548a828b016128ee565b9550506060612d658a828b016128ee565b9450506080612d768a828b01612cc4565b93505060a0612d878a828b01612cf0565b92505060c0612d988a828b01612cf0565b91505092959891949750929550565b60008060408385031215612dbe57612dbd61286a565b5b6000612dcc858286016128b8565b9250506020612ddd858286016128b8565b9150509250929050565b7f6e6f2061636365737320746f206e6f6e2d737175696400000000000000000000600082015250565b6000612e1d601683612978565b9150612e2882612de7565b602082019050919050565b60006020820190508181036000830152612e4c81612e10565b9050919050565b7f746f6b656e000000000000000000000000000000000000000000000000000000600082015250565b6000612e89600583612978565b9150612e9482612e53565b602082019050919050565b60006020820190508181036000830152612eb881612e7c565b9050919050565b6000604082019050612ed46000830185612b0b565b612ee16020830184612943565b9392505050565b612ef181612a55565b8114612efc57600080fd5b50565b600081519050612f0e81612ee8565b92915050565b600060208284031215612f2a57612f2961286a565b5b6000612f3884828501612eff565b91505092915050565b600081519050612f50816128d7565b92915050565b600060208284031215612f6c57612f6b61286a565b5b6000612f7a84828501612f41565b91505092915050565b7f4e487b7100000000000000000000000000000000000000000000000000000000600052601160045260246000fd5b6000612fbd826128cd565b9150612fc8836128cd565b9250827fffffffffffffffffffffffffffffffffffffffffffffffffffffffffffffffff03821115612ffd57612ffc612f83565b5b828201905092915050565b7f4e487b7100000000000000000000000000000000000000000000000000000000600052602260045260246000fd5b6000600282049050600182168061304f57607f821691505b6020821081141561306357613062613008565b5b50919050565b7f21676f7665726e616e6365000000000000000000000000000000000000000000600082015250565b600061309f600b83612978565b91506130aa82613069565b602082019050919050565b600060208201905081810360008301526130ce81613092565b9050919050565b60006130e0826128cd565b91506130eb836128cd565b9250828210156130fe576130fd612f83565b5b828203905092915050565b60008160011c9050919050565b6000808291508390505b60018511156131605780860481111561313c5761313b612f83565b5b600185161561314b5780820291505b808102905061315985613109565b9450613120565b94509492505050565b6000826131795760019050613235565b816131875760009050613235565b816001811461319d57600281146131a7576131d6565b6001915050613235565b60ff8411156131b9576131b8612f83565b5b8360020a9150848211156131d0576131cf612f83565b5b50613235565b5060208310610133831016604e8410600b841016171561320b5782820a90508381111561320657613205612f83565b5b613235565b6132188484846001613116565b9250905081840481111561322f5761322e612f83565b5b81810290505b9392505050565b6000613247826128cd565b915061325283612b35565b925061327f7fffffffffffffffffffffffffffffffffffffffffffffffffffffffffffffffff8484613169565b905092915050565b6000613292826128cd565b915061329d836128cd565b9250817fffffffffffffffffffffffffffffffffffffffffffffffffffffffffffffffff04831182151516156132d6576132d5612f83565b5b828202905092915050565b7f4e487b7100000000000000000000000000000000000000000000000000000000600052601260045260246000fd5b600061331b826128cd565b9150613326836128cd565b925082613336576133356132e1565b5b828204905092915050565b7f5a45524f5f534841524553000000000000000000000000000000000000000000600082015250565b6000613377600b83612978565b915061338282613341565b602082019050919050565b600060208201905081810360008301526133a68161336a565b9050919050565b60006040820190506133c26000830185612943565b6133cf6020830184612943565b9392505050565b7f5a45524f5f415353455453000000000000000000000000000000000000000000600082015250565b600061340c600b83612978565b9150613417826133d6565b602082019050919050565b6000602082019050818103600083015261343b816133ff565b9050919050565b7f5045524d49545f444541444c494e455f45585049524544000000000000000000600082015250565b6000613478601783612978565b915061348382613442565b602082019050919050565b600060208201905081810360008301526134a78161346b565b9050919050565b600060c0820190506134c36000830189612b76565b6134d06020830188612b0b565b6134dd6040830187612b0b565b6134ea6060830186612943565b6134f76080830185612943565b61350460a0830184612943565b979650505050505050565b600081905092915050565b7f1901000000000000000000000000000000000000000000000000000000000000600082015250565b600061355060028361350f565b915061355b8261351a565b600282019050919050565b6000819050919050565b61358161357c82612b6c565b613566565b82525050565b600061359282613543565b915061359e8285613570565b6020820191506135ae8284613570565b6020820191508190509392505050565b60006080820190506135d36000830187612b76565b6135e06020830186612b42565b6135ed6040830185612b76565b6135fa6060830184612b76565b95945050505050565b7f494e56414c49445f5349474e4552000000000000000000000000000000000000600082015250565b6000613639600e83612978565b915061364482613603565b602082019050919050565b600060208201905081810360008301526136688161362c565b9050919050565b600081905092915050565b60008190508160005260206000209050919050565b6000815461369c81613037565b6136a6818661366f565b945060018216600081146136c157600181146136d257613705565b60ff19831686528186019350613705565b6136db8561367a565b60005b838110156136fd578154818901526001820191506020810190506136de565b838801955050505b50505092915050565b600061371a828461368f565b915081905092915050565b600060a08201905061373a6000830188612b76565b6137476020830187612b76565b6137546040830186612b76565b6137616060830185612943565b61376e6080830184612b0b565b9695505050505050565b7f5452414e534645525f46524f4d5f4641494c4544000000000000000000000000600082015250565b60006137ae601483612978565b91506137b982613778565b602082019050919050565b600060208201905081810360008301526137dd816137a1565b9050919050565b7f5452414e534645525f4641494c45440000000000000000000000000000000000600082015250565b600061381a600f83612978565b9150613825826137e4565b602082019050919050565b600060208201905081810360008301526138498161380d565b905091905056fea2646970667358221220616be862f0674b2ee4b33a7f1d3ff42bf457271487598e6e734bc7f7c4c038b964736f6c634300080a0033",
  "linkReferences": {},
  "deployedLinkReferences": {}
}