{
	"SquiddyCore.sol": {
		"SquiddyCore": {
			"abi": [
				{
					"inputs": [
						{
							"internalType": "contract ERC20",
							"name": "_underlying",
							"type": "address"
						},
						{
							"internalType": "string",
							"name": "_name",
							"type": "string"
						},
						{
							"internalType": "string",
							"name": "_symbol",
							"type": "string"
						},
						{
							"internalType": "uint8",
							"name": "_decimals",
							"type": "uint8"
						}
					],
					"stateMutability": "nonpayable",
					"type": "constructor"
				},
				{
					"anonymous": false,
					"inputs": [
						{
							"indexed": true,
							"internalType": "address",
							"name": "owner",
							"type": "address"
						},
						{
							"indexed": true,
							"internalType": "address",
							"name": "spender",
							"type": "address"
						},
						{
							"indexed": false,
							"internalType": "uint256",
							"name": "amount",
							"type": "uint256"
						}
					],
					"name": "Approval",
					"type": "event"
				},
				{
					"anonymous": false,
					"inputs": [
						{
							"indexed": true,
							"internalType": "address",
							"name": "caller",
							"type": "address"
						},
						{
							"indexed": true,
							"internalType": "address",
							"name": "owner",
							"type": "address"
						},
						{
							"indexed": false,
							"internalType": "uint256",
							"name": "assets",
							"type": "uint256"
						},
						{
							"indexed": false,
							"internalType": "uint256",
							"name": "shares",
							"type": "uint256"
						}
					],
					"name": "Deposit",
					"type": "event"
				},
				{
					"anonymous": false,
					"inputs": [
						{
							"indexed": true,
							"internalType": "address",
							"name": "user",
							"type": "address"
						},
						{
							"indexed": false,
							"internalType": "uint256",
							"name": "newFeePercent",
							"type": "uint256"
						}
					],
					"name": "FeePercentUpdated",
					"type": "event"
				},
				{
					"anonymous": false,
					"inputs": [
						{
							"indexed": true,
							"internalType": "address",
							"name": "user",
							"type": "address"
						},
						{
							"indexed": false,
							"internalType": "uint256",
							"name": "sVTokenAmount",
							"type": "uint256"
						}
					],
					"name": "FeesClaimed",
					"type": "event"
				},
				{
					"anonymous": false,
					"inputs": [
						{
							"indexed": true,
							"internalType": "address",
							"name": "previousManager",
							"type": "address"
						},
						{
							"indexed": true,
							"internalType": "address",
							"name": "newManager",
							"type": "address"
						}
					],
					"name": "OwnershipTransferred",
					"type": "event"
				},
				{
					"anonymous": false,
					"inputs": [
						{
							"indexed": true,
							"internalType": "address",
							"name": "searcher",
							"type": "address"
						},
						{
							"indexed": true,
							"internalType": "address",
							"name": "vault",
							"type": "address"
						},
						{
							"indexed": false,
							"internalType": "uint256",
							"name": "value",
							"type": "uint256"
						},
						{
							"indexed": false,
							"internalType": "uint256",
							"name": "duration",
							"type": "uint256"
						}
					],
					"name": "StrategyAInitilized",
					"type": "event"
				},
				{
					"anonymous": false,
					"inputs": [
						{
							"indexed": true,
							"internalType": "address",
							"name": "stakePoolContract",
							"type": "address"
						},
						{
							"indexed": true,
							"internalType": "address",
							"name": "vault",
							"type": "address"
						},
						{
							"indexed": false,
							"internalType": "uint256",
							"name": "value",
							"type": "uint256"
						},
						{
							"indexed": false,
							"internalType": "uint256",
							"name": "duration",
							"type": "uint256"
						}
					],
					"name": "StrategyBInitilized",
					"type": "event"
				},
				{
					"anonymous": false,
					"inputs": [
						{
							"indexed": true,
							"internalType": "address",
							"name": "user",
							"type": "address"
						},
						{
							"indexed": false,
							"internalType": "uint256",
							"name": "newTargetFloatPercent",
							"type": "uint256"
						}
					],
					"name": "TargetFloatPercentUpdated",
					"type": "event"
				},
				{
					"anonymous": false,
					"inputs": [
						{
							"indexed": true,
							"internalType": "address",
							"name": "from",
							"type": "address"
						},
						{
							"indexed": true,
							"internalType": "address",
							"name": "to",
							"type": "address"
						},
						{
							"indexed": false,
							"internalType": "uint256",
							"name": "amount",
							"type": "uint256"
						}
					],
					"name": "Transfer",
					"type": "event"
				},
				{
					"anonymous": false,
					"inputs": [
						{
							"indexed": true,
							"internalType": "address",
							"name": "user",
							"type": "address"
						},
						{
							"indexed": false,
							"internalType": "bool",
							"name": "newUnderlyingIsWETH",
							"type": "bool"
						}
					],
					"name": "UnderlyingIsWETHUpdated",
					"type": "event"
				},
				{
					"anonymous": false,
					"inputs": [
						{
							"indexed": true,
							"internalType": "address",
							"name": "caller",
							"type": "address"
						},
						{
							"indexed": true,
							"internalType": "address",
							"name": "receiver",
							"type": "address"
						},
						{
							"indexed": true,
							"internalType": "address",
							"name": "owner",
							"type": "address"
						},
						{
							"indexed": false,
							"internalType": "uint256",
							"name": "assets",
							"type": "uint256"
						},
						{
							"indexed": false,
							"internalType": "uint256",
							"name": "shares",
							"type": "uint256"
						}
					],
					"name": "Withdraw",
					"type": "event"
				},
				{
					"inputs": [],
					"name": "DOMAIN_SEPARATOR",
					"outputs": [
						{
							"internalType": "bytes32",
							"name": "",
							"type": "bytes32"
						}
					],
					"stateMutability": "view",
					"type": "function"
				},
				{
					"inputs": [],
					"name": "UNDERLYING",
					"outputs": [
						{
							"internalType": "contract ERC20",
							"name": "",
							"type": "address"
						}
					],
					"stateMutability": "view",
					"type": "function"
				},
				{
					"inputs": [],
					"name": "afterDepositHookCalledCounter",
					"outputs": [
						{
							"internalType": "uint256",
							"name": "",
							"type": "uint256"
						}
					],
					"stateMutability": "view",
					"type": "function"
				},
				{
					"inputs": [
						{
							"internalType": "address",
							"name": "",
							"type": "address"
						},
						{
							"internalType": "address",
							"name": "",
							"type": "address"
						}
					],
					"name": "allowance",
					"outputs": [
						{
							"internalType": "uint256",
							"name": "",
							"type": "uint256"
						}
					],
					"stateMutability": "view",
					"type": "function"
				},
				{
					"inputs": [
						{
							"internalType": "address",
							"name": "spender",
							"type": "address"
						},
						{
							"internalType": "uint256",
							"name": "amount",
							"type": "uint256"
						}
					],
					"name": "approve",
					"outputs": [
						{
							"internalType": "bool",
							"name": "",
							"type": "bool"
						}
					],
					"stateMutability": "nonpayable",
					"type": "function"
				},
				{
					"inputs": [],
					"name": "asset",
					"outputs": [
						{
							"internalType": "contract ERC20",
							"name": "",
							"type": "address"
						}
					],
					"stateMutability": "view",
					"type": "function"
				},
				{
					"inputs": [
						{
							"internalType": "address",
							"name": "",
							"type": "address"
						}
					],
					"name": "balanceOf",
					"outputs": [
						{
							"internalType": "uint256",
							"name": "",
							"type": "uint256"
						}
					],
					"stateMutability": "view",
					"type": "function"
				},
				{
					"inputs": [],
					"name": "beforeWithdrawHookCalledCounter",
					"outputs": [
						{
							"internalType": "uint256",
							"name": "",
							"type": "uint256"
						}
					],
					"stateMutability": "view",
					"type": "function"
				},
				{
					"inputs": [
						{
							"internalType": "uint256",
							"name": "sVTokenAmount",
							"type": "uint256"
						}
					],
					"name": "claimFees",
					"outputs": [],
					"stateMutability": "nonpayable",
					"type": "function"
				},
				{
					"inputs": [
						{
							"internalType": "uint256",
							"name": "shares",
							"type": "uint256"
						}
					],
					"name": "convertToAssets",
					"outputs": [
						{
							"internalType": "uint256",
							"name": "",
							"type": "uint256"
						}
					],
					"stateMutability": "view",
					"type": "function"
				},
				{
					"inputs": [
						{
							"internalType": "uint256",
							"name": "assets",
							"type": "uint256"
						}
					],
					"name": "convertToShares",
					"outputs": [
						{
							"internalType": "uint256",
							"name": "",
							"type": "uint256"
						}
					],
					"stateMutability": "view",
					"type": "function"
				},
				{
					"inputs": [],
					"name": "decimals",
					"outputs": [
						{
							"internalType": "uint8",
							"name": "",
							"type": "uint8"
						}
					],
					"stateMutability": "view",
					"type": "function"
				},
				{
					"inputs": [
						{
							"internalType": "uint256",
							"name": "assets",
							"type": "uint256"
						},
						{
							"internalType": "address",
							"name": "receiver",
							"type": "address"
						}
					],
					"name": "deposit",
					"outputs": [
						{
							"internalType": "uint256",
							"name": "shares",
							"type": "uint256"
						}
					],
					"stateMutability": "nonpayable",
					"type": "function"
				},
				{
					"inputs": [],
					"name": "exchangeRate",
					"outputs": [
						{
							"internalType": "uint256",
							"name": "",
							"type": "uint256"
						}
					],
					"stateMutability": "view",
					"type": "function"
				},
				{
					"inputs": [],
					"name": "feePercent",
					"outputs": [
						{
							"internalType": "uint256",
							"name": "",
							"type": "uint256"
						}
					],
					"stateMutability": "view",
					"type": "function"
				},
				{
					"inputs": [],
					"name": "manager",
					"outputs": [
						{
							"internalType": "address",
							"name": "",
							"type": "address"
						}
					],
					"stateMutability": "view",
					"type": "function"
				},
				{
					"inputs": [
						{
							"internalType": "address",
							"name": "",
							"type": "address"
						}
					],
					"name": "maxDeposit",
					"outputs": [
						{
							"internalType": "uint256",
							"name": "",
							"type": "uint256"
						}
					],
					"stateMutability": "view",
					"type": "function"
				},
				{
					"inputs": [
						{
							"internalType": "address",
							"name": "",
							"type": "address"
						}
					],
					"name": "maxMint",
					"outputs": [
						{
							"internalType": "uint256",
							"name": "",
							"type": "uint256"
						}
					],
					"stateMutability": "view",
					"type": "function"
				},
				{
					"inputs": [
						{
							"internalType": "address",
							"name": "owner",
							"type": "address"
						}
					],
					"name": "maxRedeem",
					"outputs": [
						{
							"internalType": "uint256",
							"name": "",
							"type": "uint256"
						}
					],
					"stateMutability": "view",
					"type": "function"
				},
				{
					"inputs": [
						{
							"internalType": "address",
							"name": "owner",
							"type": "address"
						}
					],
					"name": "maxWithdraw",
					"outputs": [
						{
							"internalType": "uint256",
							"name": "",
							"type": "uint256"
						}
					],
					"stateMutability": "view",
					"type": "function"
				},
				{
					"inputs": [
						{
							"internalType": "uint256",
							"name": "shares",
							"type": "uint256"
						},
						{
							"internalType": "address",
							"name": "receiver",
							"type": "address"
						}
					],
					"name": "mint",
					"outputs": [
						{
							"internalType": "uint256",
							"name": "assets",
							"type": "uint256"
						}
					],
					"stateMutability": "nonpayable",
					"type": "function"
				},
				{
					"inputs": [],
					"name": "name",
					"outputs": [
						{
							"internalType": "string",
							"name": "",
							"type": "string"
						}
					],
					"stateMutability": "view",
					"type": "function"
				},
				{
					"inputs": [
						{
							"internalType": "address",
							"name": "",
							"type": "address"
						}
					],
					"name": "nonces",
					"outputs": [
						{
							"internalType": "uint256",
							"name": "",
							"type": "uint256"
						}
					],
					"stateMutability": "view",
					"type": "function"
				},
				{
					"inputs": [
						{
							"internalType": "address",
							"name": "owner",
							"type": "address"
						},
						{
							"internalType": "address",
							"name": "spender",
							"type": "address"
						},
						{
							"internalType": "uint256",
							"name": "value",
							"type": "uint256"
						},
						{
							"internalType": "uint256",
							"name": "deadline",
							"type": "uint256"
						},
						{
							"internalType": "uint8",
							"name": "v",
							"type": "uint8"
						},
						{
							"internalType": "bytes32",
							"name": "r",
							"type": "bytes32"
						},
						{
							"internalType": "bytes32",
							"name": "s",
							"type": "bytes32"
						}
					],
					"name": "permit",
					"outputs": [],
					"stateMutability": "nonpayable",
					"type": "function"
				},
				{
					"inputs": [
						{
							"internalType": "uint256",
							"name": "assets",
							"type": "uint256"
						}
					],
					"name": "previewDeposit",
					"outputs": [
						{
							"internalType": "uint256",
							"name": "",
							"type": "uint256"
						}
					],
					"stateMutability": "view",
					"type": "function"
				},
				{
					"inputs": [
						{
							"internalType": "uint256",
							"name": "shares",
							"type": "uint256"
						}
					],
					"name": "previewMint",
					"outputs": [
						{
							"internalType": "uint256",
							"name": "",
							"type": "uint256"
						}
					],
					"stateMutability": "view",
					"type": "function"
				},
				{
					"inputs": [
						{
							"internalType": "uint256",
							"name": "shares",
							"type": "uint256"
						}
					],
					"name": "previewRedeem",
					"outputs": [
						{
							"internalType": "uint256",
							"name": "",
							"type": "uint256"
						}
					],
					"stateMutability": "view",
					"type": "function"
				},
				{
					"inputs": [
						{
							"internalType": "uint256",
							"name": "assets",
							"type": "uint256"
						}
					],
					"name": "previewWithdraw",
					"outputs": [
						{
							"internalType": "uint256",
							"name": "",
							"type": "uint256"
						}
					],
					"stateMutability": "view",
					"type": "function"
				},
				{
					"inputs": [
						{
							"internalType": "uint256",
							"name": "shares",
							"type": "uint256"
						},
						{
							"internalType": "address",
							"name": "receiver",
							"type": "address"
						},
						{
							"internalType": "address",
							"name": "owner",
							"type": "address"
						}
					],
					"name": "redeem",
					"outputs": [
						{
							"internalType": "uint256",
							"name": "assets",
							"type": "uint256"
						}
					],
					"stateMutability": "nonpayable",
					"type": "function"
				},
				{
					"inputs": [],
					"name": "renounceOwnership",
					"outputs": [],
					"stateMutability": "nonpayable",
					"type": "function"
				},
				{
					"inputs": [
						{
							"internalType": "uint256",
							"name": "newFeePercent",
							"type": "uint256"
						}
					],
					"name": "setFeePercent",
					"outputs": [],
					"stateMutability": "nonpayable",
					"type": "function"
				},
				{
					"inputs": [
						{
							"internalType": "uint256",
							"name": "newTargetFloatPercent",
							"type": "uint256"
						}
					],
					"name": "setTargetFloatPercent",
					"outputs": [],
					"stateMutability": "nonpayable",
					"type": "function"
				},
				{
					"inputs": [
						{
							"internalType": "bool",
							"name": "newUnderlyingIsWETH",
							"type": "bool"
						}
					],
					"name": "setUnderlyingIsWETH",
					"outputs": [],
					"stateMutability": "nonpayable",
					"type": "function"
				},
				{
					"inputs": [],
					"name": "symbol",
					"outputs": [
						{
							"internalType": "string",
							"name": "",
							"type": "string"
						}
					],
					"stateMutability": "view",
					"type": "function"
				},
				{
					"inputs": [],
					"name": "targetFloatPercent",
					"outputs": [
						{
							"internalType": "uint256",
							"name": "",
							"type": "uint256"
						}
					],
					"stateMutability": "view",
					"type": "function"
				},
				{
					"inputs": [],
					"name": "totalAssets",
					"outputs": [
						{
							"internalType": "uint256",
							"name": "",
							"type": "uint256"
						}
					],
					"stateMutability": "view",
					"type": "function"
				},
				{
					"inputs": [],
					"name": "totalStrategyHoldings",
					"outputs": [
						{
							"internalType": "uint256",
							"name": "",
							"type": "uint256"
						}
					],
					"stateMutability": "view",
					"type": "function"
				},
				{
					"inputs": [],
					"name": "totalSupply",
					"outputs": [
						{
							"internalType": "uint256",
							"name": "",
							"type": "uint256"
						}
					],
					"stateMutability": "view",
					"type": "function"
				},
				{
					"inputs": [
						{
							"internalType": "address",
							"name": "to",
							"type": "address"
						},
						{
							"internalType": "uint256",
							"name": "amount",
							"type": "uint256"
						}
					],
					"name": "transfer",
					"outputs": [
						{
							"internalType": "bool",
							"name": "",
							"type": "bool"
						}
					],
					"stateMutability": "nonpayable",
					"type": "function"
				},
				{
					"inputs": [
						{
							"internalType": "address",
							"name": "from",
							"type": "address"
						},
						{
							"internalType": "address",
							"name": "to",
							"type": "address"
						},
						{
							"internalType": "uint256",
							"name": "amount",
							"type": "uint256"
						}
					],
					"name": "transferFrom",
					"outputs": [
						{
							"internalType": "bool",
							"name": "",
							"type": "bool"
						}
					],
					"stateMutability": "nonpayable",
					"type": "function"
				},
				{
					"inputs": [
						{
							"internalType": "address",
							"name": "newOwner",
							"type": "address"
						}
					],
					"name": "transferOwnership",
					"outputs": [],
					"stateMutability": "nonpayable",
					"type": "function"
				},
				{
					"inputs": [],
					"name": "underlyingIsWETH",
					"outputs": [
						{
							"internalType": "bool",
							"name": "",
							"type": "bool"
						}
					],
					"stateMutability": "view",
					"type": "function"
				},
				{
					"inputs": [
						{
							"internalType": "uint256",
							"name": "assets",
							"type": "uint256"
						},
						{
							"internalType": "address",
							"name": "receiver",
							"type": "address"
						},
						{
							"internalType": "address",
							"name": "owner",
							"type": "address"
						}
					],
					"name": "withdraw",
					"outputs": [
						{
							"internalType": "uint256",
							"name": "shares",
							"type": "uint256"
						}
					],
					"stateMutability": "nonpayable",
					"type": "function"
				}
			],
			"devdoc": {
				"kind": "dev",
				"methods": {
					"claimFees(uint256)": {
						"details": "Accrued fees are measured as rvTokens held by the Vault.",
						"params": {
							"sVTokenAmount": "The amount of rvTokens to claim."
						}
					},
					"exchangeRate()": {
						"returns": {
							"_0": "The amount of underlying tokens an rvToken can be redeemed for."
						}
					},
					"setFeePercent(uint256)": {
						"params": {
							"newFeePercent": "The new fee percentage."
						}
					},
					"setTargetFloatPercent(uint256)": {
						"params": {
							"newTargetFloatPercent": "The new target float percentage."
						}
					},
					"setUnderlyingIsWETH(bool)": {
						"details": "The underlying token must have 18 decimals, to match Ether's decimal scheme.",
						"params": {
							"newUnderlyingIsWETH": "Whether the Vault should treat the underlying as WETH."
						}
					}
				},
				"stateVariables": {
					"feePercent": {
						"details": "A fixed point number where 1e18 represents 100% and 0 represents 0%."
					},
					"targetFloatPercent": {
						"details": "A fixed point number where 1e18 represents 100% and 0 represents 0%."
					},
					"totalStrategyHoldings": {
						"details": "Includes maxLockedProfit, must be correctly subtracted to compute available/free holdings."
					},
					"underlyingIsWETH": {
						"details": "If enabled the Vault will allow trusting strategies that accept Ether."
					}
				},
				"version": 1
			},
			"evm": {
				"assembly": "    /* \"SquiddyCore.sol\":180:8864  contract SquiddyCore is ERC4626 {... */\n  mstore(0x40, 0x0140)\n    /* \"SquiddyCore.sol\":303:304  0 */\n  0x00\n    /* \"SquiddyCore.sol\":254:304  uint256 public beforeWithdrawHookCalledCounter = 0 */\n  0x07\n  sstore\n    /* \"SquiddyCore.sol\":357:358  0 */\n  0x00\n    /* \"SquiddyCore.sol\":310:358  uint256 public afterDepositHookCalledCounter = 0 */\n  0x08\n  sstore\n    /* \"SquiddyCore.sol\":1691:2099  constructor(... */\n  callvalue\n  dup1\n  iszero\n  tag_1\n  jumpi\n  0x00\n  dup1\n  revert\ntag_1:\n  pop\n  mload(0x40)\n  sub(codesize, bytecodeSize)\n  dup1\n  bytecodeSize\n  dup4\n  codecopy\n  dup2\n  dup2\n  add\n  0x40\n  mstore\n  dup2\n  add\n  swap1\n  tag_2\n  swap2\n  swap1\n  tag_3\n  jump\t// in\ntag_2:\n    /* \"SquiddyCore.sol\":1829:1840  _underlying */\n  dup4\n    /* \"SquiddyCore.sol\":1842:1847  _name */\n  dup4\n    /* \"SquiddyCore.sol\":1849:1856  _symbol */\n  dup4\n    /* \"SquiddyCore.sol\":1858:1867  _decimals */\n  dup4\n    /* \"ERC4626.sol\":1331:1336  _name */\n  dup3\n    /* \"ERC4626.sol\":1338:1345  _symbol */\n  dup3\n    /* \"ERC4626.sol\":1347:1356  _decimals */\n  dup3\n    /* \"ERC20.sol\":2131:2136  _name */\n  dup3\n    /* \"ERC20.sol\":2124:2128  name */\n  0x00\n    /* \"ERC20.sol\":2124:2136  name = _name */\n  swap1\n  dup1\n  mload\n  swap1\n  0x20\n  add\n  swap1\n  tag_8\n  swap3\n  swap2\n  swap1\n  tag_9\n  jump\t// in\ntag_8:\n  pop\n    /* \"ERC20.sol\":2155:2162  _symbol */\n  dup2\n    /* \"ERC20.sol\":2146:2152  symbol */\n  0x01\n    /* \"ERC20.sol\":2146:2162  symbol = _symbol */\n  swap1\n  dup1\n  mload\n  swap1\n  0x20\n  add\n  swap1\n  tag_10\n  swap3\n  swap2\n  swap1\n  tag_9\n  jump\t// in\ntag_10:\n  pop\n    /* \"ERC20.sol\":2183:2192  _decimals */\n  dup1\n    /* \"ERC20.sol\":2172:2192  decimals = _decimals */\n  0xff\n  and\n  0x80\n  dup2\n  0xff\n  and\n  0xf8\n  shl\n  dup2\n  mstore\n  pop\n  pop\n    /* \"ERC20.sol\":2222:2235  block.chainid */\n  chainid\n    /* \"ERC20.sol\":2203:2235  INITIAL_CHAIN_ID = block.chainid */\n  0xa0\n  dup2\n  dup2\n  mstore\n  pop\n  pop\n    /* \"ERC20.sol\":2272:2296  computeDomainSeparator() */\n  tag_11\n    /* \"ERC20.sol\":2272:2294  computeDomainSeparator */\n  shl(0x20, tag_12)\n    /* \"ERC20.sol\":2272:2296  computeDomainSeparator() */\n  0x20\n  shr\n  jump\t// in\ntag_11:\n    /* \"ERC20.sol\":2245:2296  INITIAL_DOMAIN_SEPARATOR = computeDomainSeparator() */\n  0xc0\n  dup2\n  dup2\n  mstore\n  pop\n  pop\n    /* \"ERC20.sol\":2011:2303  constructor(... */\n  pop\n  pop\n  pop\n    /* \"ERC4626.sol\":1376:1382  _asset */\n  dup4\n    /* \"ERC4626.sol\":1368:1382  asset = _asset */\n  0xffffffffffffffffffffffffffffffffffffffff\n  and\n  0xe0\n  dup2\n  0xffffffffffffffffffffffffffffffffffffffff\n  and\n  0x60\n  shl\n  dup2\n  mstore\n  pop\n  pop\n    /* \"ERC4626.sol\":1200:1389  constructor(... */\n  pop\n  pop\n  pop\n  pop\n    /* \"SquiddyCore.sol\":1892:1903  _underlying */\n  dup4\n    /* \"SquiddyCore.sol\":1879:1903  UNDERLYING = _underlying */\n  0xffffffffffffffffffffffffffffffffffffffff\n  and\n  0x0120\n  dup2\n  0xffffffffffffffffffffffffffffffffffffffff\n  and\n  0x60\n  shl\n  dup2\n  mstore\n  pop\n  pop\n    /* \"SquiddyCore.sol\":1930:1938  decimals */\n  shr(0xf8, mload(0x80))\n    /* \"SquiddyCore.sol\":1926:1928  10 */\n  0x0a\n    /* \"SquiddyCore.sol\":1926:1938  10**decimals */\n  tag_15\n  swap2\n  swap1\n  tag_16\n  jump\t// in\ntag_15:\n    /* \"SquiddyCore.sol\":1914:1938  BASE_UNIT = 10**decimals */\n  0x0100\n  dup2\n  dup2\n  mstore\n  pop\n  pop\n    /* \"SquiddyCore.sol\":2066:2083  type(uint256).max */\n  0xffffffffffffffffffffffffffffffffffffffffffffffffffffffffffffffff\n    /* \"SquiddyCore.sol\":2052:2063  totalSupply */\n  0x02\n    /* \"SquiddyCore.sol\":2052:2083  totalSupply = type(uint256).max */\n  dup2\n  swap1\n  sstore\n  pop\n    /* \"SquiddyCore.sol\":1691:2099  constructor(... */\n  pop\n  pop\n  pop\n  pop\n    /* \"SquiddyCore.sol\":180:8864  contract SquiddyCore is ERC4626 {... */\n  jump(tag_17)\n    /* \"ERC20.sol\":5698:6190  function computeDomainSeparator() internal view virtual returns (bytes32) {... */\ntag_12:\n    /* \"ERC20.sol\":5763:5770  bytes32 */\n  0x00\n    /* \"ERC20.sol\":5860:6001  keccak256(... */\n  0x8b73c3c69bb8fe3d512ecc4cf759cc79239f7b179b0ffacaa9a75d522b39400f\n    /* \"ERC20.sol\":6039:6043  name */\n  0x00\n    /* \"ERC20.sol\":6023:6045  keccak256(bytes(name)) */\n  mload(0x40)\n  tag_19\n  swap2\n  swap1\n  tag_20\n  jump\t// in\ntag_19:\n  mload(0x40)\n  dup1\n  swap2\n  sub\n  swap1\n  keccak256\n    /* \"ERC20.sol\":6067:6081  keccak256(\"1\") */\n  0xc89efdaa54c0f20c7adf612882df0950f5a951637e0307cdcb4c672f298b8bc6\n    /* \"ERC20.sol\":6103:6116  block.chainid */\n  chainid\n    /* \"ERC20.sol\":6146:6150  this */\n  address\n    /* \"ERC20.sol\":5828:6169  abi.encode(... */\n  add(0x20, mload(0x40))\n  tag_21\n  swap6\n  swap5\n  swap4\n  swap3\n  swap2\n  swap1\n  tag_22\n  jump\t// in\ntag_21:\n  mload(0x40)\n  0x20\n  dup2\n  dup4\n  sub\n  sub\n  dup2\n  mstore\n  swap1\n  0x40\n  mstore\n    /* \"ERC20.sol\":5801:6183  keccak256(... */\n  dup1\n  mload\n  swap1\n  0x20\n  add\n  keccak256\n    /* \"ERC20.sol\":5782:6183  return... */\n  swap1\n  pop\n    /* \"ERC20.sol\":5698:6190  function computeDomainSeparator() internal view virtual returns (bytes32) {... */\n  swap1\n  jump\t// out\n    /* \"SquiddyCore.sol\":180:8864  contract SquiddyCore is ERC4626 {... */\ntag_9:\n  dup3\n  dup1\n  sload\n  tag_23\n  swap1\n  tag_24\n  jump\t// in\ntag_23:\n  swap1\n  0x00\n  mstore\n  keccak256(0x00, 0x20)\n  swap1\n  0x1f\n  add\n  0x20\n  swap1\n  div\n  dup2\n  add\n  swap3\n  dup3\n  tag_26\n  jumpi\n  0x00\n  dup6\n  sstore\n  jump(tag_25)\ntag_26:\n  dup3\n  0x1f\n  lt\n  tag_27\n  jumpi\n  dup1\n  mload\n  not(0xff)\n  and\n  dup4\n  dup1\n  add\n  or\n  dup6\n  sstore\n  jump(tag_25)\ntag_27:\n  dup3\n  dup1\n  add\n  0x01\n  add\n  dup6\n  sstore\n  dup3\n  iszero\n  tag_25\n  jumpi\n  swap2\n  dup3\n  add\ntag_28:\n  dup3\n  dup2\n  gt\n  iszero\n  tag_29\n  jumpi\n  dup3\n  mload\n  dup3\n  sstore\n  swap2\n  0x20\n  add\n  swap2\n  swap1\n  0x01\n  add\n  swap1\n  jump(tag_28)\ntag_29:\ntag_25:\n  pop\n  swap1\n  pop\n  tag_30\n  swap2\n  swap1\n  tag_31\n  jump\t// in\ntag_30:\n  pop\n  swap1\n  jump\t// out\ntag_31:\ntag_32:\n  dup1\n  dup3\n  gt\n  iszero\n  tag_33\n  jumpi\n  0x00\n  dup2\n  0x00\n  swap1\n  sstore\n  pop\n  0x01\n  add\n  jump(tag_32)\ntag_33:\n  pop\n  swap1\n  jump\t// out\n    /* \"#utility.yul\":7:82   */\ntag_34:\n    /* \"#utility.yul\":40:46   */\n  0x00\n    /* \"#utility.yul\":73:75   */\n  0x40\n    /* \"#utility.yul\":67:76   */\n  mload\n    /* \"#utility.yul\":57:76   */\n  swap1\n  pop\n    /* \"#utility.yul\":7:82   */\n  swap1\n  jump\t// out\n    /* \"#utility.yul\":88:205   */\ntag_35:\n    /* \"#utility.yul\":197:198   */\n  0x00\n    /* \"#utility.yul\":194:195   */\n  dup1\n    /* \"#utility.yul\":187:199   */\n  revert\n    /* \"#utility.yul\":211:328   */\ntag_36:\n    /* \"#utility.yul\":320:321   */\n  0x00\n    /* \"#utility.yul\":317:318   */\n  dup1\n    /* \"#utility.yul\":310:322   */\n  revert\n    /* \"#utility.yul\":334:460   */\ntag_37:\n    /* \"#utility.yul\":371:378   */\n  0x00\n    /* \"#utility.yul\":411:453   */\n  0xffffffffffffffffffffffffffffffffffffffff\n    /* \"#utility.yul\":404:409   */\n  dup3\n    /* \"#utility.yul\":400:454   */\n  and\n    /* \"#utility.yul\":389:454   */\n  swap1\n  pop\n    /* \"#utility.yul\":334:460   */\n  swap2\n  swap1\n  pop\n  jump\t// out\n    /* \"#utility.yul\":466:562   */\ntag_38:\n    /* \"#utility.yul\":503:510   */\n  0x00\n    /* \"#utility.yul\":532:556   */\n  tag_74\n    /* \"#utility.yul\":550:555   */\n  dup3\n    /* \"#utility.yul\":532:556   */\n  tag_37\n  jump\t// in\ntag_74:\n    /* \"#utility.yul\":521:556   */\n  swap1\n  pop\n    /* \"#utility.yul\":466:562   */\n  swap2\n  swap1\n  pop\n  jump\t// out\n    /* \"#utility.yul\":568:678   */\ntag_39:\n    /* \"#utility.yul\":619:626   */\n  0x00\n    /* \"#utility.yul\":648:672   */\n  tag_76\n    /* \"#utility.yul\":666:671   */\n  dup3\n    /* \"#utility.yul\":648:672   */\n  tag_38\n  jump\t// in\ntag_76:\n    /* \"#utility.yul\":637:672   */\n  swap1\n  pop\n    /* \"#utility.yul\":568:678   */\n  swap2\n  swap1\n  pop\n  jump\t// out\n    /* \"#utility.yul\":684:834   */\ntag_40:\n    /* \"#utility.yul\":771:809   */\n  tag_78\n    /* \"#utility.yul\":803:808   */\n  dup2\n    /* \"#utility.yul\":771:809   */\n  tag_39\n  jump\t// in\ntag_78:\n    /* \"#utility.yul\":764:769   */\n  dup2\n    /* \"#utility.yul\":761:810   */\n  eq\n    /* \"#utility.yul\":751:828   */\n  tag_79\n  jumpi\n    /* \"#utility.yul\":824:825   */\n  0x00\n    /* \"#utility.yul\":821:822   */\n  dup1\n    /* \"#utility.yul\":814:826   */\n  revert\n    /* \"#utility.yul\":751:828   */\ntag_79:\n    /* \"#utility.yul\":684:834   */\n  pop\n  jump\t// out\n    /* \"#utility.yul\":840:1011   */\ntag_41:\n    /* \"#utility.yul\":911:916   */\n  0x00\n    /* \"#utility.yul\":942:948   */\n  dup2\n    /* \"#utility.yul\":936:949   */\n  mload\n    /* \"#utility.yul\":927:949   */\n  swap1\n  pop\n    /* \"#utility.yul\":958:1005   */\n  tag_81\n    /* \"#utility.yul\":999:1004   */\n  dup2\n    /* \"#utility.yul\":958:1005   */\n  tag_40\n  jump\t// in\ntag_81:\n    /* \"#utility.yul\":840:1011   */\n  swap3\n  swap2\n  pop\n  pop\n  jump\t// out\n    /* \"#utility.yul\":1017:1134   */\ntag_42:\n    /* \"#utility.yul\":1126:1127   */\n  0x00\n    /* \"#utility.yul\":1123:1124   */\n  dup1\n    /* \"#utility.yul\":1116:1128   */\n  revert\n    /* \"#utility.yul\":1140:1257   */\ntag_43:\n    /* \"#utility.yul\":1249:1250   */\n  0x00\n    /* \"#utility.yul\":1246:1247   */\n  dup1\n    /* \"#utility.yul\":1239:1251   */\n  revert\n    /* \"#utility.yul\":1263:1365   */\ntag_44:\n    /* \"#utility.yul\":1304:1310   */\n  0x00\n    /* \"#utility.yul\":1355:1357   */\n  0x1f\n    /* \"#utility.yul\":1351:1358   */\n  not\n    /* \"#utility.yul\":1346:1348   */\n  0x1f\n    /* \"#utility.yul\":1339:1344   */\n  dup4\n    /* \"#utility.yul\":1335:1349   */\n  add\n    /* \"#utility.yul\":1331:1359   */\n  and\n    /* \"#utility.yul\":1321:1359   */\n  swap1\n  pop\n    /* \"#utility.yul\":1263:1365   */\n  swap2\n  swap1\n  pop\n  jump\t// out\n    /* \"#utility.yul\":1371:1551   */\ntag_45:\n    /* \"#utility.yul\":1419:1496   */\n  0x4e487b7100000000000000000000000000000000000000000000000000000000\n    /* \"#utility.yul\":1416:1417   */\n  0x00\n    /* \"#utility.yul\":1409:1497   */\n  mstore\n    /* \"#utility.yul\":1516:1520   */\n  0x41\n    /* \"#utility.yul\":1513:1514   */\n  0x04\n    /* \"#utility.yul\":1506:1521   */\n  mstore\n    /* \"#utility.yul\":1540:1544   */\n  0x24\n    /* \"#utility.yul\":1537:1538   */\n  0x00\n    /* \"#utility.yul\":1530:1545   */\n  revert\n    /* \"#utility.yul\":1557:1838   */\ntag_46:\n    /* \"#utility.yul\":1640:1667   */\n  tag_87\n    /* \"#utility.yul\":1662:1666   */\n  dup3\n    /* \"#utility.yul\":1640:1667   */\n  tag_44\n  jump\t// in\ntag_87:\n    /* \"#utility.yul\":1632:1638   */\n  dup2\n    /* \"#utility.yul\":1628:1668   */\n  add\n    /* \"#utility.yul\":1770:1776   */\n  dup2\n    /* \"#utility.yul\":1758:1768   */\n  dup2\n    /* \"#utility.yul\":1755:1777   */\n  lt\n    /* \"#utility.yul\":1734:1752   */\n  0xffffffffffffffff\n    /* \"#utility.yul\":1722:1732   */\n  dup3\n    /* \"#utility.yul\":1719:1753   */\n  gt\n    /* \"#utility.yul\":1716:1778   */\n  or\n    /* \"#utility.yul\":1713:1801   */\n  iszero\n  tag_88\n  jumpi\n    /* \"#utility.yul\":1781:1799   */\n  tag_89\n  tag_45\n  jump\t// in\ntag_89:\n    /* \"#utility.yul\":1713:1801   */\ntag_88:\n    /* \"#utility.yul\":1821:1831   */\n  dup1\n    /* \"#utility.yul\":1817:1819   */\n  0x40\n    /* \"#utility.yul\":1810:1832   */\n  mstore\n    /* \"#utility.yul\":1600:1838   */\n  pop\n    /* \"#utility.yul\":1557:1838   */\n  pop\n  pop\n  jump\t// out\n    /* \"#utility.yul\":1844:1973   */\ntag_47:\n    /* \"#utility.yul\":1878:1884   */\n  0x00\n    /* \"#utility.yul\":1905:1925   */\n  tag_91\n  tag_34\n  jump\t// in\ntag_91:\n    /* \"#utility.yul\":1895:1925   */\n  swap1\n  pop\n    /* \"#utility.yul\":1934:1967   */\n  tag_92\n    /* \"#utility.yul\":1962:1966   */\n  dup3\n    /* \"#utility.yul\":1954:1960   */\n  dup3\n    /* \"#utility.yul\":1934:1967   */\n  tag_46\n  jump\t// in\ntag_92:\n    /* \"#utility.yul\":1844:1973   */\n  swap2\n  swap1\n  pop\n  jump\t// out\n    /* \"#utility.yul\":1979:2287   */\ntag_48:\n    /* \"#utility.yul\":2041:2045   */\n  0x00\n    /* \"#utility.yul\":2131:2149   */\n  0xffffffffffffffff\n    /* \"#utility.yul\":2123:2129   */\n  dup3\n    /* \"#utility.yul\":2120:2150   */\n  gt\n    /* \"#utility.yul\":2117:2173   */\n  iszero\n  tag_94\n  jumpi\n    /* \"#utility.yul\":2153:2171   */\n  tag_95\n  tag_45\n  jump\t// in\ntag_95:\n    /* \"#utility.yul\":2117:2173   */\ntag_94:\n    /* \"#utility.yul\":2191:2220   */\n  tag_96\n    /* \"#utility.yul\":2213:2219   */\n  dup3\n    /* \"#utility.yul\":2191:2220   */\n  tag_44\n  jump\t// in\ntag_96:\n    /* \"#utility.yul\":2183:2220   */\n  swap1\n  pop\n    /* \"#utility.yul\":2275:2279   */\n  0x20\n    /* \"#utility.yul\":2269:2273   */\n  dup2\n    /* \"#utility.yul\":2265:2280   */\n  add\n    /* \"#utility.yul\":2257:2280   */\n  swap1\n  pop\n    /* \"#utility.yul\":1979:2287   */\n  swap2\n  swap1\n  pop\n  jump\t// out\n    /* \"#utility.yul\":2293:2600   */\ntag_49:\n    /* \"#utility.yul\":2361:2362   */\n  0x00\n    /* \"#utility.yul\":2371:2484   */\ntag_98:\n    /* \"#utility.yul\":2385:2391   */\n  dup4\n    /* \"#utility.yul\":2382:2383   */\n  dup2\n    /* \"#utility.yul\":2379:2392   */\n  lt\n    /* \"#utility.yul\":2371:2484   */\n  iszero\n  tag_100\n  jumpi\n    /* \"#utility.yul\":2470:2471   */\n  dup1\n    /* \"#utility.yul\":2465:2468   */\n  dup3\n    /* \"#utility.yul\":2461:2472   */\n  add\n    /* \"#utility.yul\":2455:2473   */\n  mload\n    /* \"#utility.yul\":2451:2452   */\n  dup2\n    /* \"#utility.yul\":2446:2449   */\n  dup5\n    /* \"#utility.yul\":2442:2453   */\n  add\n    /* \"#utility.yul\":2435:2474   */\n  mstore\n    /* \"#utility.yul\":2407:2409   */\n  0x20\n    /* \"#utility.yul\":2404:2405   */\n  dup2\n    /* \"#utility.yul\":2400:2410   */\n  add\n    /* \"#utility.yul\":2395:2410   */\n  swap1\n  pop\n    /* \"#utility.yul\":2371:2484   */\n  jump(tag_98)\ntag_100:\n    /* \"#utility.yul\":2502:2508   */\n  dup4\n    /* \"#utility.yul\":2499:2500   */\n  dup2\n    /* \"#utility.yul\":2496:2509   */\n  gt\n    /* \"#utility.yul\":2493:2594   */\n  iszero\n  tag_101\n  jumpi\n    /* \"#utility.yul\":2582:2583   */\n  0x00\n    /* \"#utility.yul\":2573:2579   */\n  dup5\n    /* \"#utility.yul\":2568:2571   */\n  dup5\n    /* \"#utility.yul\":2564:2580   */\n  add\n    /* \"#utility.yul\":2557:2584   */\n  mstore\n    /* \"#utility.yul\":2493:2594   */\ntag_101:\n    /* \"#utility.yul\":2342:2600   */\n  pop\n    /* \"#utility.yul\":2293:2600   */\n  pop\n  pop\n  pop\n  jump\t// out\n    /* \"#utility.yul\":2606:3027   */\ntag_50:\n    /* \"#utility.yul\":2695:2700   */\n  0x00\n    /* \"#utility.yul\":2720:2786   */\n  tag_103\n    /* \"#utility.yul\":2736:2785   */\n  tag_104\n    /* \"#utility.yul\":2778:2784   */\n  dup5\n    /* \"#utility.yul\":2736:2785   */\n  tag_48\n  jump\t// in\ntag_104:\n    /* \"#utility.yul\":2720:2786   */\n  tag_47\n  jump\t// in\ntag_103:\n    /* \"#utility.yul\":2711:2786   */\n  swap1\n  pop\n    /* \"#utility.yul\":2809:2815   */\n  dup3\n    /* \"#utility.yul\":2802:2807   */\n  dup2\n    /* \"#utility.yul\":2795:2816   */\n  mstore\n    /* \"#utility.yul\":2847:2851   */\n  0x20\n    /* \"#utility.yul\":2840:2845   */\n  dup2\n    /* \"#utility.yul\":2836:2852   */\n  add\n    /* \"#utility.yul\":2885:2888   */\n  dup5\n    /* \"#utility.yul\":2876:2882   */\n  dup5\n    /* \"#utility.yul\":2871:2874   */\n  dup5\n    /* \"#utility.yul\":2867:2883   */\n  add\n    /* \"#utility.yul\":2864:2889   */\n  gt\n    /* \"#utility.yul\":2861:2973   */\n  iszero\n  tag_105\n  jumpi\n    /* \"#utility.yul\":2892:2971   */\n  tag_106\n  tag_43\n  jump\t// in\ntag_106:\n    /* \"#utility.yul\":2861:2973   */\ntag_105:\n    /* \"#utility.yul\":2982:3021   */\n  tag_107\n    /* \"#utility.yul\":3014:3020   */\n  dup5\n    /* \"#utility.yul\":3009:3012   */\n  dup3\n    /* \"#utility.yul\":3004:3007   */\n  dup6\n    /* \"#utility.yul\":2982:3021   */\n  tag_49\n  jump\t// in\ntag_107:\n    /* \"#utility.yul\":2701:3027   */\n  pop\n    /* \"#utility.yul\":2606:3027   */\n  swap4\n  swap3\n  pop\n  pop\n  pop\n  jump\t// out\n    /* \"#utility.yul\":3047:3402   */\ntag_51:\n    /* \"#utility.yul\":3114:3119   */\n  0x00\n    /* \"#utility.yul\":3163:3166   */\n  dup3\n    /* \"#utility.yul\":3156:3160   */\n  0x1f\n    /* \"#utility.yul\":3148:3154   */\n  dup4\n    /* \"#utility.yul\":3144:3161   */\n  add\n    /* \"#utility.yul\":3140:3167   */\n  slt\n    /* \"#utility.yul\":3130:3252   */\n  tag_109\n  jumpi\n    /* \"#utility.yul\":3171:3250   */\n  tag_110\n  tag_42\n  jump\t// in\ntag_110:\n    /* \"#utility.yul\":3130:3252   */\ntag_109:\n    /* \"#utility.yul\":3281:3287   */\n  dup2\n    /* \"#utility.yul\":3275:3288   */\n  mload\n    /* \"#utility.yul\":3306:3396   */\n  tag_111\n    /* \"#utility.yul\":3392:3395   */\n  dup5\n    /* \"#utility.yul\":3384:3390   */\n  dup3\n    /* \"#utility.yul\":3377:3381   */\n  0x20\n    /* \"#utility.yul\":3369:3375   */\n  dup7\n    /* \"#utility.yul\":3365:3382   */\n  add\n    /* \"#utility.yul\":3306:3396   */\n  tag_50\n  jump\t// in\ntag_111:\n    /* \"#utility.yul\":3297:3396   */\n  swap2\n  pop\n    /* \"#utility.yul\":3120:3402   */\n  pop\n    /* \"#utility.yul\":3047:3402   */\n  swap3\n  swap2\n  pop\n  pop\n  jump\t// out\n    /* \"#utility.yul\":3408:3494   */\ntag_52:\n    /* \"#utility.yul\":3443:3450   */\n  0x00\n    /* \"#utility.yul\":3483:3487   */\n  0xff\n    /* \"#utility.yul\":3476:3481   */\n  dup3\n    /* \"#utility.yul\":3472:3488   */\n  and\n    /* \"#utility.yul\":3461:3488   */\n  swap1\n  pop\n    /* \"#utility.yul\":3408:3494   */\n  swap2\n  swap1\n  pop\n  jump\t// out\n    /* \"#utility.yul\":3500:3618   */\ntag_53:\n    /* \"#utility.yul\":3571:3593   */\n  tag_114\n    /* \"#utility.yul\":3587:3592   */\n  dup2\n    /* \"#utility.yul\":3571:3593   */\n  tag_52\n  jump\t// in\ntag_114:\n    /* \"#utility.yul\":3564:3569   */\n  dup2\n    /* \"#utility.yul\":3561:3594   */\n  eq\n    /* \"#utility.yul\":3551:3612   */\n  tag_115\n  jumpi\n    /* \"#utility.yul\":3608:3609   */\n  0x00\n    /* \"#utility.yul\":3605:3606   */\n  dup1\n    /* \"#utility.yul\":3598:3610   */\n  revert\n    /* \"#utility.yul\":3551:3612   */\ntag_115:\n    /* \"#utility.yul\":3500:3618   */\n  pop\n  jump\t// out\n    /* \"#utility.yul\":3624:3763   */\ntag_54:\n    /* \"#utility.yul\":3679:3684   */\n  0x00\n    /* \"#utility.yul\":3710:3716   */\n  dup2\n    /* \"#utility.yul\":3704:3717   */\n  mload\n    /* \"#utility.yul\":3695:3717   */\n  swap1\n  pop\n    /* \"#utility.yul\":3726:3757   */\n  tag_117\n    /* \"#utility.yul\":3751:3756   */\n  dup2\n    /* \"#utility.yul\":3726:3757   */\n  tag_53\n  jump\t// in\ntag_117:\n    /* \"#utility.yul\":3624:3763   */\n  swap3\n  swap2\n  pop\n  pop\n  jump\t// out\n    /* \"#utility.yul\":3769:4959   */\ntag_3:\n    /* \"#utility.yul\":3898:3904   */\n  0x00\n    /* \"#utility.yul\":3906:3912   */\n  dup1\n    /* \"#utility.yul\":3914:3920   */\n  0x00\n    /* \"#utility.yul\":3922:3928   */\n  dup1\n    /* \"#utility.yul\":3971:3974   */\n  0x80\n    /* \"#utility.yul\":3959:3968   */\n  dup6\n    /* \"#utility.yul\":3950:3957   */\n  dup8\n    /* \"#utility.yul\":3946:3969   */\n  sub\n    /* \"#utility.yul\":3942:3975   */\n  slt\n    /* \"#utility.yul\":3939:4059   */\n  iszero\n  tag_119\n  jumpi\n    /* \"#utility.yul\":3978:4057   */\n  tag_120\n  tag_35\n  jump\t// in\ntag_120:\n    /* \"#utility.yul\":3939:4059   */\ntag_119:\n    /* \"#utility.yul\":4098:4099   */\n  0x00\n    /* \"#utility.yul\":4123:4201   */\n  tag_121\n    /* \"#utility.yul\":4193:4200   */\n  dup8\n    /* \"#utility.yul\":4184:4190   */\n  dup3\n    /* \"#utility.yul\":4173:4182   */\n  dup9\n    /* \"#utility.yul\":4169:4191   */\n  add\n    /* \"#utility.yul\":4123:4201   */\n  tag_41\n  jump\t// in\ntag_121:\n    /* \"#utility.yul\":4113:4201   */\n  swap5\n  pop\n    /* \"#utility.yul\":4069:4211   */\n  pop\n    /* \"#utility.yul\":4271:4273   */\n  0x20\n    /* \"#utility.yul\":4260:4269   */\n  dup6\n    /* \"#utility.yul\":4256:4274   */\n  add\n    /* \"#utility.yul\":4250:4275   */\n  mload\n    /* \"#utility.yul\":4302:4320   */\n  0xffffffffffffffff\n    /* \"#utility.yul\":4294:4300   */\n  dup2\n    /* \"#utility.yul\":4291:4321   */\n  gt\n    /* \"#utility.yul\":4288:4405   */\n  iszero\n  tag_122\n  jumpi\n    /* \"#utility.yul\":4324:4403   */\n  tag_123\n  tag_36\n  jump\t// in\ntag_123:\n    /* \"#utility.yul\":4288:4405   */\ntag_122:\n    /* \"#utility.yul\":4429:4503   */\n  tag_124\n    /* \"#utility.yul\":4495:4502   */\n  dup8\n    /* \"#utility.yul\":4486:4492   */\n  dup3\n    /* \"#utility.yul\":4475:4484   */\n  dup9\n    /* \"#utility.yul\":4471:4493   */\n  add\n    /* \"#utility.yul\":4429:4503   */\n  tag_51\n  jump\t// in\ntag_124:\n    /* \"#utility.yul\":4419:4503   */\n  swap4\n  pop\n    /* \"#utility.yul\":4221:4513   */\n  pop\n    /* \"#utility.yul\":4573:4575   */\n  0x40\n    /* \"#utility.yul\":4562:4571   */\n  dup6\n    /* \"#utility.yul\":4558:4576   */\n  add\n    /* \"#utility.yul\":4552:4577   */\n  mload\n    /* \"#utility.yul\":4604:4622   */\n  0xffffffffffffffff\n    /* \"#utility.yul\":4596:4602   */\n  dup2\n    /* \"#utility.yul\":4593:4623   */\n  gt\n    /* \"#utility.yul\":4590:4707   */\n  iszero\n  tag_125\n  jumpi\n    /* \"#utility.yul\":4626:4705   */\n  tag_126\n  tag_36\n  jump\t// in\ntag_126:\n    /* \"#utility.yul\":4590:4707   */\ntag_125:\n    /* \"#utility.yul\":4731:4805   */\n  tag_127\n    /* \"#utility.yul\":4797:4804   */\n  dup8\n    /* \"#utility.yul\":4788:4794   */\n  dup3\n    /* \"#utility.yul\":4777:4786   */\n  dup9\n    /* \"#utility.yul\":4773:4795   */\n  add\n    /* \"#utility.yul\":4731:4805   */\n  tag_51\n  jump\t// in\ntag_127:\n    /* \"#utility.yul\":4721:4805   */\n  swap3\n  pop\n    /* \"#utility.yul\":4523:4815   */\n  pop\n    /* \"#utility.yul\":4854:4856   */\n  0x60\n    /* \"#utility.yul\":4880:4942   */\n  tag_128\n    /* \"#utility.yul\":4934:4941   */\n  dup8\n    /* \"#utility.yul\":4925:4931   */\n  dup3\n    /* \"#utility.yul\":4914:4923   */\n  dup9\n    /* \"#utility.yul\":4910:4932   */\n  add\n    /* \"#utility.yul\":4880:4942   */\n  tag_54\n  jump\t// in\ntag_128:\n    /* \"#utility.yul\":4870:4942   */\n  swap2\n  pop\n    /* \"#utility.yul\":4825:4952   */\n  pop\n    /* \"#utility.yul\":3769:4959   */\n  swap3\n  swap6\n  swap2\n  swap5\n  pop\n  swap3\n  pop\n  jump\t// out\n    /* \"#utility.yul\":4965:5145   */\ntag_55:\n    /* \"#utility.yul\":5013:5090   */\n  0x4e487b7100000000000000000000000000000000000000000000000000000000\n    /* \"#utility.yul\":5010:5011   */\n  0x00\n    /* \"#utility.yul\":5003:5091   */\n  mstore\n    /* \"#utility.yul\":5110:5114   */\n  0x11\n    /* \"#utility.yul\":5107:5108   */\n  0x04\n    /* \"#utility.yul\":5100:5115   */\n  mstore\n    /* \"#utility.yul\":5134:5138   */\n  0x24\n    /* \"#utility.yul\":5131:5132   */\n  0x00\n    /* \"#utility.yul\":5124:5139   */\n  revert\n    /* \"#utility.yul\":5151:5253   */\ntag_56:\n    /* \"#utility.yul\":5193:5201   */\n  0x00\n    /* \"#utility.yul\":5240:5245   */\n  dup2\n    /* \"#utility.yul\":5237:5238   */\n  0x01\n    /* \"#utility.yul\":5233:5246   */\n  shr\n    /* \"#utility.yul\":5212:5246   */\n  swap1\n  pop\n    /* \"#utility.yul\":5151:5253   */\n  swap2\n  swap1\n  pop\n  jump\t// out\n    /* \"#utility.yul\":5259:6107   */\ntag_57:\n    /* \"#utility.yul\":5320:5325   */\n  0x00\n    /* \"#utility.yul\":5327:5331   */\n  dup1\n    /* \"#utility.yul\":5351:5357   */\n  dup3\n    /* \"#utility.yul\":5342:5357   */\n  swap2\n  pop\n    /* \"#utility.yul\":5375:5380   */\n  dup4\n    /* \"#utility.yul\":5366:5380   */\n  swap1\n  pop\n    /* \"#utility.yul\":5389:6101   */\ntag_132:\n    /* \"#utility.yul\":5410:5411   */\n  0x01\n    /* \"#utility.yul\":5400:5408   */\n  dup6\n    /* \"#utility.yul\":5397:5412   */\n  gt\n    /* \"#utility.yul\":5389:6101   */\n  iszero\n  tag_134\n  jumpi\n    /* \"#utility.yul\":5505:5509   */\n  dup1\n    /* \"#utility.yul\":5500:5503   */\n  dup7\n    /* \"#utility.yul\":5496:5510   */\n  div\n    /* \"#utility.yul\":5490:5494   */\n  dup2\n    /* \"#utility.yul\":5487:5511   */\n  gt\n    /* \"#utility.yul\":5484:5534   */\n  iszero\n  tag_135\n  jumpi\n    /* \"#utility.yul\":5514:5532   */\n  tag_136\n  tag_55\n  jump\t// in\ntag_136:\n    /* \"#utility.yul\":5484:5534   */\ntag_135:\n    /* \"#utility.yul\":5564:5565   */\n  0x01\n    /* \"#utility.yul\":5554:5562   */\n  dup6\n    /* \"#utility.yul\":5550:5566   */\n  and\n    /* \"#utility.yul\":5547:5998   */\n  iszero\n  tag_137\n  jumpi\n    /* \"#utility.yul\":5979:5983   */\n  dup1\n    /* \"#utility.yul\":5972:5977   */\n  dup3\n    /* \"#utility.yul\":5968:5984   */\n  mul\n    /* \"#utility.yul\":5959:5984   */\n  swap2\n  pop\n    /* \"#utility.yul\":5547:5998   */\ntag_137:\n    /* \"#utility.yul\":6029:6033   */\n  dup1\n    /* \"#utility.yul\":6023:6027   */\n  dup2\n    /* \"#utility.yul\":6019:6034   */\n  mul\n    /* \"#utility.yul\":6011:6034   */\n  swap1\n  pop\n    /* \"#utility.yul\":6059:6091   */\n  tag_138\n    /* \"#utility.yul\":6082:6090   */\n  dup6\n    /* \"#utility.yul\":6059:6091   */\n  tag_56\n  jump\t// in\ntag_138:\n    /* \"#utility.yul\":6047:6091   */\n  swap5\n  pop\n    /* \"#utility.yul\":5389:6101   */\n  jump(tag_132)\ntag_134:\n    /* \"#utility.yul\":5259:6107   */\n  swap5\n  pop\n  swap5\n  swap3\n  pop\n  pop\n  pop\n  jump\t// out\n    /* \"#utility.yul\":6113:7186   */\ntag_58:\n    /* \"#utility.yul\":6167:6172   */\n  0x00\n    /* \"#utility.yul\":6358:6366   */\n  dup3\n    /* \"#utility.yul\":6348:6388   */\n  tag_140\n  jumpi\n    /* \"#utility.yul\":6379:6380   */\n  0x01\n    /* \"#utility.yul\":6370:6380   */\n  swap1\n  pop\n    /* \"#utility.yul\":6381:6386   */\n  jump(tag_139)\n    /* \"#utility.yul\":6348:6388   */\ntag_140:\n    /* \"#utility.yul\":6407:6411   */\n  dup2\n    /* \"#utility.yul\":6397:6433   */\n  tag_141\n  jumpi\n    /* \"#utility.yul\":6424:6425   */\n  0x00\n    /* \"#utility.yul\":6415:6425   */\n  swap1\n  pop\n    /* \"#utility.yul\":6426:6431   */\n  jump(tag_139)\n    /* \"#utility.yul\":6397:6433   */\ntag_141:\n    /* \"#utility.yul\":6493:6497   */\n  dup2\n    /* \"#utility.yul\":6541:6542   */\n  0x01\n    /* \"#utility.yul\":6536:6563   */\n  dup2\n  eq\n  tag_143\n  jumpi\n    /* \"#utility.yul\":6577:6578   */\n  0x02\n    /* \"#utility.yul\":6572:6763   */\n  dup2\n  eq\n  tag_144\n  jumpi\n    /* \"#utility.yul\":6486:6763   */\n  jump(tag_142)\n    /* \"#utility.yul\":6536:6563   */\ntag_143:\n    /* \"#utility.yul\":6554:6555   */\n  0x01\n    /* \"#utility.yul\":6545:6555   */\n  swap2\n  pop\n    /* \"#utility.yul\":6556:6561   */\n  pop\n  jump(tag_139)\n    /* \"#utility.yul\":6572:6763   */\ntag_144:\n    /* \"#utility.yul\":6617:6620   */\n  0xff\n    /* \"#utility.yul\":6607:6615   */\n  dup5\n    /* \"#utility.yul\":6604:6621   */\n  gt\n    /* \"#utility.yul\":6601:6644   */\n  iszero\n  tag_145\n  jumpi\n    /* \"#utility.yul\":6624:6642   */\n  tag_146\n  tag_55\n  jump\t// in\ntag_146:\n    /* \"#utility.yul\":6601:6644   */\ntag_145:\n    /* \"#utility.yul\":6673:6681   */\n  dup4\n    /* \"#utility.yul\":6670:6671   */\n  0x02\n    /* \"#utility.yul\":6666:6682   */\n  exp\n    /* \"#utility.yul\":6657:6682   */\n  swap2\n  pop\n    /* \"#utility.yul\":6708:6711   */\n  dup5\n    /* \"#utility.yul\":6701:6706   */\n  dup3\n    /* \"#utility.yul\":6698:6712   */\n  gt\n    /* \"#utility.yul\":6695:6735   */\n  iszero\n  tag_147\n  jumpi\n    /* \"#utility.yul\":6715:6733   */\n  tag_148\n  tag_55\n  jump\t// in\ntag_148:\n    /* \"#utility.yul\":6695:6735   */\ntag_147:\n    /* \"#utility.yul\":6748:6753   */\n  pop\n  jump(tag_139)\n    /* \"#utility.yul\":6486:6763   */\ntag_142:\n  pop\n    /* \"#utility.yul\":6872:6874   */\n  0x20\n    /* \"#utility.yul\":6862:6870   */\n  dup4\n    /* \"#utility.yul\":6859:6875   */\n  lt\n    /* \"#utility.yul\":6853:6856   */\n  0x0133\n    /* \"#utility.yul\":6847:6851   */\n  dup4\n    /* \"#utility.yul\":6844:6857   */\n  lt\n    /* \"#utility.yul\":6840:6876   */\n  and\n    /* \"#utility.yul\":6822:6824   */\n  0x4e\n    /* \"#utility.yul\":6812:6820   */\n  dup5\n    /* \"#utility.yul\":6809:6825   */\n  lt\n    /* \"#utility.yul\":6804:6806   */\n  0x0b\n    /* \"#utility.yul\":6798:6802   */\n  dup5\n    /* \"#utility.yul\":6795:6807   */\n  lt\n    /* \"#utility.yul\":6791:6826   */\n  and\n    /* \"#utility.yul\":6775:6886   */\n  or\n    /* \"#utility.yul\":6772:7018   */\n  iszero\n  tag_149\n  jumpi\n    /* \"#utility.yul\":6928:6936   */\n  dup3\n    /* \"#utility.yul\":6922:6926   */\n  dup3\n    /* \"#utility.yul\":6918:6937   */\n  exp\n    /* \"#utility.yul\":6909:6937   */\n  swap1\n  pop\n    /* \"#utility.yul\":6963:6966   */\n  dup4\n    /* \"#utility.yul\":6956:6961   */\n  dup2\n    /* \"#utility.yul\":6953:6967   */\n  gt\n    /* \"#utility.yul\":6950:6990   */\n  iszero\n  tag_150\n  jumpi\n    /* \"#utility.yul\":6970:6988   */\n  tag_151\n  tag_55\n  jump\t// in\ntag_151:\n    /* \"#utility.yul\":6950:6990   */\ntag_150:\n    /* \"#utility.yul\":7003:7008   */\n  jump(tag_139)\n    /* \"#utility.yul\":6772:7018   */\ntag_149:\n    /* \"#utility.yul\":7043:7085   */\n  tag_152\n    /* \"#utility.yul\":7081:7084   */\n  dup5\n    /* \"#utility.yul\":7071:7079   */\n  dup5\n    /* \"#utility.yul\":7065:7069   */\n  dup5\n    /* \"#utility.yul\":7062:7063   */\n  0x01\n    /* \"#utility.yul\":7043:7085   */\n  tag_57\n  jump\t// in\ntag_152:\n    /* \"#utility.yul\":7028:7085   */\n  swap3\n  pop\n  swap1\n  pop\n    /* \"#utility.yul\":7117:7121   */\n  dup2\n    /* \"#utility.yul\":7112:7115   */\n  dup5\n    /* \"#utility.yul\":7108:7122   */\n  div\n    /* \"#utility.yul\":7101:7106   */\n  dup2\n    /* \"#utility.yul\":7098:7123   */\n  gt\n    /* \"#utility.yul\":7095:7146   */\n  iszero\n  tag_153\n  jumpi\n    /* \"#utility.yul\":7126:7144   */\n  tag_154\n  tag_55\n  jump\t// in\ntag_154:\n    /* \"#utility.yul\":7095:7146   */\ntag_153:\n    /* \"#utility.yul\":7175:7179   */\n  dup2\n    /* \"#utility.yul\":7168:7173   */\n  dup2\n    /* \"#utility.yul\":7164:7180   */\n  mul\n    /* \"#utility.yul\":7155:7180   */\n  swap1\n  pop\n    /* \"#utility.yul\":6113:7186   */\ntag_139:\n  swap4\n  swap3\n  pop\n  pop\n  pop\n  jump\t// out\n    /* \"#utility.yul\":7192:7269   */\ntag_59:\n    /* \"#utility.yul\":7229:7236   */\n  0x00\n    /* \"#utility.yul\":7258:7263   */\n  dup2\n    /* \"#utility.yul\":7247:7263   */\n  swap1\n  pop\n    /* \"#utility.yul\":7192:7269   */\n  swap2\n  swap1\n  pop\n  jump\t// out\n    /* \"#utility.yul\":7275:7556   */\ntag_16:\n    /* \"#utility.yul\":7333:7338   */\n  0x00\n    /* \"#utility.yul\":7357:7380   */\n  tag_157\n    /* \"#utility.yul\":7375:7379   */\n  dup3\n    /* \"#utility.yul\":7357:7380   */\n  tag_59\n  jump\t// in\ntag_157:\n    /* \"#utility.yul\":7349:7380   */\n  swap2\n  pop\n    /* \"#utility.yul\":7401:7426   */\n  tag_158\n    /* \"#utility.yul\":7417:7425   */\n  dup4\n    /* \"#utility.yul\":7401:7426   */\n  tag_52\n  jump\t// in\ntag_158:\n    /* \"#utility.yul\":7389:7426   */\n  swap3\n  pop\n    /* \"#utility.yul\":7445:7549   */\n  tag_159\n    /* \"#utility.yul\":7482:7548   */\n  0xffffffffffffffffffffffffffffffffffffffffffffffffffffffffffffffff\n    /* \"#utility.yul\":7472:7480   */\n  dup5\n    /* \"#utility.yul\":7466:7470   */\n  dup5\n    /* \"#utility.yul\":7445:7549   */\n  tag_58\n  jump\t// in\ntag_159:\n    /* \"#utility.yul\":7436:7549   */\n  swap1\n  pop\n    /* \"#utility.yul\":7275:7556   */\n  swap3\n  swap2\n  pop\n  pop\n  jump\t// out\n    /* \"#utility.yul\":7562:7742   */\ntag_60:\n    /* \"#utility.yul\":7610:7687   */\n  0x4e487b7100000000000000000000000000000000000000000000000000000000\n    /* \"#utility.yul\":7607:7608   */\n  0x00\n    /* \"#utility.yul\":7600:7688   */\n  mstore\n    /* \"#utility.yul\":7707:7711   */\n  0x22\n    /* \"#utility.yul\":7704:7705   */\n  0x04\n    /* \"#utility.yul\":7697:7712   */\n  mstore\n    /* \"#utility.yul\":7731:7735   */\n  0x24\n    /* \"#utility.yul\":7728:7729   */\n  0x00\n    /* \"#utility.yul\":7721:7736   */\n  revert\n    /* \"#utility.yul\":7748:8068   */\ntag_24:\n    /* \"#utility.yul\":7792:7798   */\n  0x00\n    /* \"#utility.yul\":7829:7830   */\n  0x02\n    /* \"#utility.yul\":7823:7827   */\n  dup3\n    /* \"#utility.yul\":7819:7831   */\n  div\n    /* \"#utility.yul\":7809:7831   */\n  swap1\n  pop\n    /* \"#utility.yul\":7876:7877   */\n  0x01\n    /* \"#utility.yul\":7870:7874   */\n  dup3\n    /* \"#utility.yul\":7866:7878   */\n  and\n    /* \"#utility.yul\":7897:7915   */\n  dup1\n    /* \"#utility.yul\":7887:7968   */\n  tag_162\n  jumpi\n    /* \"#utility.yul\":7953:7957   */\n  0x7f\n    /* \"#utility.yul\":7945:7951   */\n  dup3\n    /* \"#utility.yul\":7941:7958   */\n  and\n    /* \"#utility.yul\":7931:7958   */\n  swap2\n  pop\n    /* \"#utility.yul\":7887:7968   */\ntag_162:\n    /* \"#utility.yul\":8015:8017   */\n  0x20\n    /* \"#utility.yul\":8007:8013   */\n  dup3\n    /* \"#utility.yul\":8004:8018   */\n  lt\n    /* \"#utility.yul\":7984:8002   */\n  dup2\n    /* \"#utility.yul\":7981:8019   */\n  eq\n    /* \"#utility.yul\":7978:8062   */\n  iszero\n  tag_163\n  jumpi\n    /* \"#utility.yul\":8034:8052   */\n  tag_164\n  tag_60\n  jump\t// in\ntag_164:\n    /* \"#utility.yul\":7978:8062   */\ntag_163:\n    /* \"#utility.yul\":7799:8068   */\n  pop\n    /* \"#utility.yul\":7748:8068   */\n  swap2\n  swap1\n  pop\n  jump\t// out\n    /* \"#utility.yul\":8074:8221   */\ntag_61:\n    /* \"#utility.yul\":8175:8186   */\n  0x00\n    /* \"#utility.yul\":8212:8215   */\n  dup2\n    /* \"#utility.yul\":8197:8215   */\n  swap1\n  pop\n    /* \"#utility.yul\":8074:8221   */\n  swap3\n  swap2\n  pop\n  pop\n  jump\t// out\n    /* \"#utility.yul\":8227:8371   */\ntag_62:\n    /* \"#utility.yul\":8279:8283   */\n  0x00\n    /* \"#utility.yul\":8302:8305   */\n  dup2\n    /* \"#utility.yul\":8294:8305   */\n  swap1\n  pop\n    /* \"#utility.yul\":8325:8328   */\n  dup2\n    /* \"#utility.yul\":8322:8323   */\n  0x00\n    /* \"#utility.yul\":8315:8329   */\n  mstore\n    /* \"#utility.yul\":8359:8363   */\n  0x20\n    /* \"#utility.yul\":8356:8357   */\n  0x00\n    /* \"#utility.yul\":8346:8364   */\n  keccak256\n    /* \"#utility.yul\":8338:8364   */\n  swap1\n  pop\n    /* \"#utility.yul\":8227:8371   */\n  swap2\n  swap1\n  pop\n  jump\t// out\n    /* \"#utility.yul\":8399:9248   */\ntag_63:\n    /* \"#utility.yul\":8504:8507   */\n  0x00\n    /* \"#utility.yul\":8541:8546   */\n  dup2\n    /* \"#utility.yul\":8535:8547   */\n  sload\n    /* \"#utility.yul\":8570:8606   */\n  tag_168\n    /* \"#utility.yul\":8596:8605   */\n  dup2\n    /* \"#utility.yul\":8570:8606   */\n  tag_24\n  jump\t// in\ntag_168:\n    /* \"#utility.yul\":8622:8710   */\n  tag_169\n    /* \"#utility.yul\":8703:8709   */\n  dup2\n    /* \"#utility.yul\":8698:8701   */\n  dup7\n    /* \"#utility.yul\":8622:8710   */\n  tag_61\n  jump\t// in\ntag_169:\n    /* \"#utility.yul\":8615:8710   */\n  swap5\n  pop\n    /* \"#utility.yul\":8741:8742   */\n  0x01\n    /* \"#utility.yul\":8730:8739   */\n  dup3\n    /* \"#utility.yul\":8726:8743   */\n  and\n    /* \"#utility.yul\":8757:8758   */\n  0x00\n    /* \"#utility.yul\":8752:8889   */\n  dup2\n  eq\n  tag_171\n  jumpi\n    /* \"#utility.yul\":8903:8904   */\n  0x01\n    /* \"#utility.yul\":8898:9242   */\n  dup2\n  eq\n  tag_172\n  jumpi\n    /* \"#utility.yul\":8719:9242   */\n  jump(tag_170)\n    /* \"#utility.yul\":8752:8889   */\ntag_171:\n    /* \"#utility.yul\":8836:8840   */\n  0xff\n    /* \"#utility.yul\":8832:8841   */\n  not\n    /* \"#utility.yul\":8821:8830   */\n  dup4\n    /* \"#utility.yul\":8817:8842   */\n  and\n    /* \"#utility.yul\":8812:8815   */\n  dup7\n    /* \"#utility.yul\":8805:8843   */\n  mstore\n    /* \"#utility.yul\":8872:8878   */\n  dup2\n    /* \"#utility.yul\":8867:8870   */\n  dup7\n    /* \"#utility.yul\":8863:8879   */\n  add\n    /* \"#utility.yul\":8856:8879   */\n  swap4\n  pop\n    /* \"#utility.yul\":8752:8889   */\n  jump(tag_170)\n    /* \"#utility.yul\":8898:9242   */\ntag_172:\n    /* \"#utility.yul\":8965:9006   */\n  tag_173\n    /* \"#utility.yul\":9000:9005   */\n  dup6\n    /* \"#utility.yul\":8965:9006   */\n  tag_62\n  jump\t// in\ntag_173:\n    /* \"#utility.yul\":9028:9029   */\n  0x00\n    /* \"#utility.yul\":9042:9196   */\ntag_174:\n    /* \"#utility.yul\":9056:9062   */\n  dup4\n    /* \"#utility.yul\":9053:9054   */\n  dup2\n    /* \"#utility.yul\":9050:9063   */\n  lt\n    /* \"#utility.yul\":9042:9196   */\n  iszero\n  tag_176\n  jumpi\n    /* \"#utility.yul\":9130:9137   */\n  dup2\n    /* \"#utility.yul\":9124:9138   */\n  sload\n    /* \"#utility.yul\":9120:9121   */\n  dup2\n    /* \"#utility.yul\":9115:9118   */\n  dup10\n    /* \"#utility.yul\":9111:9122   */\n  add\n    /* \"#utility.yul\":9104:9139   */\n  mstore\n    /* \"#utility.yul\":9180:9181   */\n  0x01\n    /* \"#utility.yul\":9171:9178   */\n  dup3\n    /* \"#utility.yul\":9167:9182   */\n  add\n    /* \"#utility.yul\":9156:9182   */\n  swap2\n  pop\n    /* \"#utility.yul\":9078:9082   */\n  0x20\n    /* \"#utility.yul\":9075:9076   */\n  dup2\n    /* \"#utility.yul\":9071:9083   */\n  add\n    /* \"#utility.yul\":9066:9083   */\n  swap1\n  pop\n    /* \"#utility.yul\":9042:9196   */\n  jump(tag_174)\ntag_176:\n    /* \"#utility.yul\":9225:9231   */\n  dup4\n    /* \"#utility.yul\":9220:9223   */\n  dup9\n    /* \"#utility.yul\":9216:9232   */\n  add\n    /* \"#utility.yul\":9209:9232   */\n  swap6\n  pop\n    /* \"#utility.yul\":8905:9242   */\n  pop\n  pop\n    /* \"#utility.yul\":8719:9242   */\ntag_170:\n  pop\n    /* \"#utility.yul\":8508:9248   */\n  pop\n  pop\n    /* \"#utility.yul\":8399:9248   */\n  swap3\n  swap2\n  pop\n  pop\n  jump\t// out\n    /* \"#utility.yul\":9254:9527   */\ntag_20:\n    /* \"#utility.yul\":9385:9388   */\n  0x00\n    /* \"#utility.yul\":9407:9501   */\n  tag_178\n    /* \"#utility.yul\":9497:9500   */\n  dup3\n    /* \"#utility.yul\":9488:9494   */\n  dup5\n    /* \"#utility.yul\":9407:9501   */\n  tag_63\n  jump\t// in\ntag_178:\n    /* \"#utility.yul\":9400:9501   */\n  swap2\n  pop\n    /* \"#utility.yul\":9518:9521   */\n  dup2\n    /* \"#utility.yul\":9511:9521   */\n  swap1\n  pop\n    /* \"#utility.yul\":9254:9527   */\n  swap3\n  swap2\n  pop\n  pop\n  jump\t// out\n    /* \"#utility.yul\":9533:9610   */\ntag_64:\n    /* \"#utility.yul\":9570:9577   */\n  0x00\n    /* \"#utility.yul\":9599:9604   */\n  dup2\n    /* \"#utility.yul\":9588:9604   */\n  swap1\n  pop\n    /* \"#utility.yul\":9533:9610   */\n  swap2\n  swap1\n  pop\n  jump\t// out\n    /* \"#utility.yul\":9616:9734   */\ntag_65:\n    /* \"#utility.yul\":9703:9727   */\n  tag_181\n    /* \"#utility.yul\":9721:9726   */\n  dup2\n    /* \"#utility.yul\":9703:9727   */\n  tag_64\n  jump\t// in\ntag_181:\n    /* \"#utility.yul\":9698:9701   */\n  dup3\n    /* \"#utility.yul\":9691:9728   */\n  mstore\n    /* \"#utility.yul\":9616:9734   */\n  pop\n  pop\n  jump\t// out\n    /* \"#utility.yul\":9740:9858   */\ntag_66:\n    /* \"#utility.yul\":9827:9851   */\n  tag_183\n    /* \"#utility.yul\":9845:9850   */\n  dup2\n    /* \"#utility.yul\":9827:9851   */\n  tag_59\n  jump\t// in\ntag_183:\n    /* \"#utility.yul\":9822:9825   */\n  dup3\n    /* \"#utility.yul\":9815:9852   */\n  mstore\n    /* \"#utility.yul\":9740:9858   */\n  pop\n  pop\n  jump\t// out\n    /* \"#utility.yul\":9864:9982   */\ntag_67:\n    /* \"#utility.yul\":9951:9975   */\n  tag_185\n    /* \"#utility.yul\":9969:9974   */\n  dup2\n    /* \"#utility.yul\":9951:9975   */\n  tag_38\n  jump\t// in\ntag_185:\n    /* \"#utility.yul\":9946:9949   */\n  dup3\n    /* \"#utility.yul\":9939:9976   */\n  mstore\n    /* \"#utility.yul\":9864:9982   */\n  pop\n  pop\n  jump\t// out\n    /* \"#utility.yul\":9988:10652   */\ntag_22:\n    /* \"#utility.yul\":10193:10197   */\n  0x00\n    /* \"#utility.yul\":10231:10234   */\n  0xa0\n    /* \"#utility.yul\":10220:10229   */\n  dup3\n    /* \"#utility.yul\":10216:10235   */\n  add\n    /* \"#utility.yul\":10208:10235   */\n  swap1\n  pop\n    /* \"#utility.yul\":10245:10316   */\n  tag_187\n    /* \"#utility.yul\":10313:10314   */\n  0x00\n    /* \"#utility.yul\":10302:10311   */\n  dup4\n    /* \"#utility.yul\":10298:10315   */\n  add\n    /* \"#utility.yul\":10289:10295   */\n  dup9\n    /* \"#utility.yul\":10245:10316   */\n  tag_65\n  jump\t// in\ntag_187:\n    /* \"#utility.yul\":10326:10398   */\n  tag_188\n    /* \"#utility.yul\":10394:10396   */\n  0x20\n    /* \"#utility.yul\":10383:10392   */\n  dup4\n    /* \"#utility.yul\":10379:10397   */\n  add\n    /* \"#utility.yul\":10370:10376   */\n  dup8\n    /* \"#utility.yul\":10326:10398   */\n  tag_65\n  jump\t// in\ntag_188:\n    /* \"#utility.yul\":10408:10480   */\n  tag_189\n    /* \"#utility.yul\":10476:10478   */\n  0x40\n    /* \"#utility.yul\":10465:10474   */\n  dup4\n    /* \"#utility.yul\":10461:10479   */\n  add\n    /* \"#utility.yul\":10452:10458   */\n  dup7\n    /* \"#utility.yul\":10408:10480   */\n  tag_65\n  jump\t// in\ntag_189:\n    /* \"#utility.yul\":10490:10562   */\n  tag_190\n    /* \"#utility.yul\":10558:10560   */\n  0x60\n    /* \"#utility.yul\":10547:10556   */\n  dup4\n    /* \"#utility.yul\":10543:10561   */\n  add\n    /* \"#utility.yul\":10534:10540   */\n  dup6\n    /* \"#utility.yul\":10490:10562   */\n  tag_66\n  jump\t// in\ntag_190:\n    /* \"#utility.yul\":10572:10645   */\n  tag_191\n    /* \"#utility.yul\":10640:10643   */\n  0x80\n    /* \"#utility.yul\":10629:10638   */\n  dup4\n    /* \"#utility.yul\":10625:10644   */\n  add\n    /* \"#utility.yul\":10616:10622   */\n  dup5\n    /* \"#utility.yul\":10572:10645   */\n  tag_67\n  jump\t// in\ntag_191:\n    /* \"#utility.yul\":9988:10652   */\n  swap7\n  swap6\n  pop\n  pop\n  pop\n  pop\n  pop\n  pop\n  jump\t// out\n    /* \"SquiddyCore.sol\":180:8864  contract SquiddyCore is ERC4626 {... */\ntag_17:\n  shr(0xf8, mload(0x80))\n  mload(0xa0)\n  mload(0xc0)\n  shr(0x60, mload(0xe0))\n  mload(0x0100)\n  shr(0x60, mload(0x0120))\n  codecopy(0x00, dataOffset(sub_0), dataSize(sub_0))\n  0x00\n  assignImmutable(\"0x92a41d55cbdb211ce00f83c8eb2d05bc8d83f7306d48f28113ee4353d4c63ac8\")\n  0x00\n  assignImmutable(\"0x8c2c54587967106aada40726d97869a68f1884315326f75aae38a5f14c8f0480\")\n  0x00\n  assignImmutable(\"0xccaa62ece624b7c19179efe70bca6831b45dba36fd4251e9dcb4c8e2db68cc27\")\n  0x00\n  assignImmutable(\"0x0b5b4909689530cff5363da0725934bf6a53cd0591e5617e9bdd14e7a516da10\")\n  0x00\n  assignImmutable(\"0x99234e8bb0caccda3914a3f5815f9f0b8e1efd8c0710474b7e1f8f99bf3b0eb8\")\n  0x00\n  assignImmutable(\"0xa50d3dbe1811761e813bcaff00595494f2db37a8edb3da4198b3ee18e798cf55\")\n  return(0x00, dataSize(sub_0))\nstop\n\nsub_0: assembly {\n        /* \"SquiddyCore.sol\":180:8864  contract SquiddyCore is ERC4626 {... */\n      mstore(0x40, 0x80)\n      callvalue\n      dup1\n      iszero\n      tag_1\n      jumpi\n      0x00\n      dup1\n      revert\n    tag_1:\n      pop\n      jumpi(tag_2, lt(calldatasize, 0x04))\n      shr(0xe0, calldataload(0x00))\n      dup1\n      0x7fd6f15c\n      gt\n      tag_46\n      jumpi\n      dup1\n      0xc63d75b6\n      gt\n      tag_47\n      jumpi\n      dup1\n      0xdd62ed3e\n      gt\n      tag_48\n      jumpi\n      dup1\n      0xdd62ed3e\n      eq\n      tag_40\n      jumpi\n      dup1\n      0xecad9565\n      eq\n      tag_41\n      jumpi\n      dup1\n      0xef8b30f7\n      eq\n      tag_42\n      jumpi\n      dup1\n      0xf2fde38b\n      eq\n      tag_43\n      jumpi\n      dup1\n      0xf84d73f4\n      eq\n      tag_44\n      jumpi\n      dup1\n      0xfc407ae7\n      eq\n      tag_45\n      jumpi\n      jump(tag_2)\n    tag_48:\n      dup1\n      0xc63d75b6\n      eq\n      tag_35\n      jumpi\n      dup1\n      0xc6e6f592\n      eq\n      tag_36\n      jumpi\n      dup1\n      0xce96cb77\n      eq\n      tag_37\n      jumpi\n      dup1\n      0xd505accf\n      eq\n      tag_38\n      jumpi\n      dup1\n      0xd905777e\n      eq\n      tag_39\n      jumpi\n      jump(tag_2)\n    tag_47:\n      dup1\n      0xb3d7f6b9\n      gt\n      tag_49\n      jumpi\n      dup1\n      0xb3d7f6b9\n      eq\n      tag_29\n      jumpi\n      dup1\n      0xb460af94\n      eq\n      tag_30\n      jumpi\n      dup1\n      0xba087652\n      eq\n      tag_31\n      jumpi\n      dup1\n      0xbc368a8a\n      eq\n      tag_32\n      jumpi\n      dup1\n      0xbd662f88\n      eq\n      tag_33\n      jumpi\n      dup1\n      0xc5d664c6\n      eq\n      tag_34\n      jumpi\n      jump(tag_2)\n    tag_49:\n      dup1\n      0x7fd6f15c\n      eq\n      tag_24\n      jumpi\n      dup1\n      0x94bf804d\n      eq\n      tag_25\n      jumpi\n      dup1\n      0x95d89b41\n      eq\n      tag_26\n      jumpi\n      dup1\n      0xa9059cbb\n      eq\n      tag_27\n      jumpi\n      dup1\n      0xac68a748\n      eq\n      tag_28\n      jumpi\n      jump(tag_2)\n    tag_46:\n      dup1\n      0x3644e515\n      gt\n      tag_50\n      jumpi\n      dup1\n      0x4cdad506\n      gt\n      tag_51\n      jumpi\n      dup1\n      0x4cdad506\n      eq\n      tag_18\n      jumpi\n      dup1\n      0x6e553f65\n      eq\n      tag_19\n      jumpi\n      dup1\n      0x70a08231\n      eq\n      tag_20\n      jumpi\n      dup1\n      0x715018a6\n      eq\n      tag_21\n      jumpi\n      dup1\n      0x7ce3489b\n      eq\n      tag_22\n      jumpi\n      dup1\n      0x7ecebe00\n      eq\n      tag_23\n      jumpi\n      jump(tag_2)\n    tag_51:\n      dup1\n      0x3644e515\n      eq\n      tag_13\n      jumpi\n      dup1\n      0x38d52e0f\n      eq\n      tag_14\n      jumpi\n      dup1\n      0x3ba0b9a9\n      eq\n      tag_15\n      jumpi\n      dup1\n      0x402d267d\n      eq\n      tag_16\n      jumpi\n      dup1\n      0x481c6a75\n      eq\n      tag_17\n      jumpi\n      jump(tag_2)\n    tag_50:\n      dup1\n      0x18160ddd\n      gt\n      tag_52\n      jumpi\n      dup1\n      0x18160ddd\n      eq\n      tag_8\n      jumpi\n      dup1\n      0x1c693478\n      eq\n      tag_9\n      jumpi\n      dup1\n      0x23b872dd\n      eq\n      tag_10\n      jumpi\n      dup1\n      0x313ce567\n      eq\n      tag_11\n      jumpi\n      dup1\n      0x32ff7732\n      eq\n      tag_12\n      jumpi\n      jump(tag_2)\n    tag_52:\n      dup1\n      0x01e1d114\n      eq\n      tag_3\n      jumpi\n      dup1\n      0x06fdde03\n      eq\n      tag_4\n      jumpi\n      dup1\n      0x07a2d13a\n      eq\n      tag_5\n      jumpi\n      dup1\n      0x095ea7b3\n      eq\n      tag_6\n      jumpi\n      dup1\n      0x0a28a477\n      eq\n      tag_7\n      jumpi\n    tag_2:\n      0x00\n      dup1\n      revert\n        /* \"SquiddyCore.sol\":8421:8537  function totalAssets() public view override returns (uint256) {... */\n    tag_3:\n      tag_53\n      tag_54\n      jump\t// in\n    tag_53:\n      mload(0x40)\n      tag_55\n      swap2\n      swap1\n      tag_56\n      jump\t// in\n    tag_55:\n      mload(0x40)\n      dup1\n      swap2\n      sub\n      swap1\n      return\n        /* \"ERC20.sol\":1061:1079  string public name */\n    tag_4:\n      tag_57\n      tag_58\n      jump\t// in\n    tag_57:\n      mload(0x40)\n      tag_59\n      swap2\n      swap1\n      tag_60\n      jump\t// in\n    tag_59:\n      mload(0x40)\n      dup1\n      swap2\n      sub\n      swap1\n      return\n        /* \"ERC4626.sol\":4620:4913  function convertToAssets(uint256 shares)... */\n    tag_5:\n      tag_61\n      0x04\n      dup1\n      calldatasize\n      sub\n      dup2\n      add\n      swap1\n      tag_62\n      swap2\n      swap1\n      tag_63\n      jump\t// in\n    tag_62:\n      tag_64\n      jump\t// in\n    tag_61:\n      mload(0x40)\n      tag_65\n      swap2\n      swap1\n      tag_56\n      jump\t// in\n    tag_65:\n      mload(0x40)\n      dup1\n      swap2\n      sub\n      swap1\n      return\n        /* \"ERC20.sol\":2491:2730  function approve(address spender, uint256 amount)... */\n    tag_6:\n      tag_66\n      0x04\n      dup1\n      calldatasize\n      sub\n      dup2\n      add\n      swap1\n      tag_67\n      swap2\n      swap1\n      tag_68\n      jump\t// in\n    tag_67:\n      tag_69\n      jump\t// in\n    tag_66:\n      mload(0x40)\n      tag_70\n      swap2\n      swap1\n      tag_71\n      jump\t// in\n    tag_70:\n      mload(0x40)\n      dup1\n      swap2\n      sub\n      swap1\n      return\n        /* \"ERC4626.sol\":5343:5634  function previewWithdraw(uint256 assets)... */\n    tag_7:\n      tag_72\n      0x04\n      dup1\n      calldatasize\n      sub\n      dup2\n      add\n      swap1\n      tag_73\n      swap2\n      swap1\n      tag_63\n      jump\t// in\n    tag_73:\n      tag_74\n      jump\t// in\n    tag_72:\n      mload(0x40)\n      tag_75\n      swap2\n      swap1\n      tag_56\n      jump\t// in\n    tag_75:\n      mload(0x40)\n      dup1\n      swap2\n      sub\n      swap1\n      return\n        /* \"ERC20.sol\":1334:1360  uint256 public totalSupply */\n    tag_8:\n      tag_76\n      tag_77\n      jump\t// in\n    tag_76:\n      mload(0x40)\n      tag_78\n      swap2\n      swap1\n      tag_56\n      jump\t// in\n    tag_78:\n      mload(0x40)\n      dup1\n      swap2\n      sub\n      swap1\n      return\n        /* \"SquiddyCore.sol\":4718:4751  uint256 public targetFloatPercent */\n    tag_9:\n      tag_79\n      tag_80\n      jump\t// in\n    tag_79:\n      mload(0x40)\n      tag_81\n      swap2\n      swap1\n      tag_56\n      jump\t// in\n    tag_81:\n      mload(0x40)\n      dup1\n      swap2\n      sub\n      swap1\n      return\n        /* \"ERC20.sol\":3143:3747  function transferFrom(... */\n    tag_10:\n      tag_82\n      0x04\n      dup1\n      calldatasize\n      sub\n      dup2\n      add\n      swap1\n      tag_83\n      swap2\n      swap1\n      tag_84\n      jump\t// in\n    tag_83:\n      tag_85\n      jump\t// in\n    tag_82:\n      mload(0x40)\n      tag_86\n      swap2\n      swap1\n      tag_71\n      jump\t// in\n    tag_86:\n      mload(0x40)\n      dup1\n      swap2\n      sub\n      swap1\n      return\n        /* \"ERC20.sol\":1113:1144  uint8 public immutable decimals */\n    tag_11:\n      tag_87\n      tag_88\n      jump\t// in\n    tag_87:\n      mload(0x40)\n      tag_89\n      swap2\n      swap1\n      tag_90\n      jump\t// in\n    tag_89:\n      mload(0x40)\n      dup1\n      swap2\n      sub\n      swap1\n      return\n        /* \"SquiddyCore.sol\":5935:6438  function setUnderlyingIsWETH(bool newUnderlyingIsWETH)... */\n    tag_12:\n      tag_91\n      0x04\n      dup1\n      calldatasize\n      sub\n      dup2\n      add\n      swap1\n      tag_92\n      swap2\n      swap1\n      tag_93\n      jump\t// in\n    tag_92:\n      tag_94\n      jump\t// in\n    tag_91:\n      stop\n        /* \"ERC20.sol\":5471:5692  function DOMAIN_SEPARATOR() public view virtual returns (bytes32) {... */\n    tag_13:\n      tag_95\n      tag_96\n      jump\t// in\n    tag_95:\n      mload(0x40)\n      tag_97\n      swap2\n      swap1\n      tag_98\n      jump\t// in\n    tag_97:\n      mload(0x40)\n      dup1\n      swap2\n      sub\n      swap1\n      return\n        /* \"ERC4626.sol\":1165:1193  ERC20 public immutable asset */\n    tag_14:\n      tag_99\n      tag_100\n      jump\t// in\n    tag_99:\n      mload(0x40)\n      tag_101\n      swap2\n      swap1\n      tag_102\n      jump\t// in\n    tag_101:\n      mload(0x40)\n      dup1\n      swap2\n      sub\n      swap1\n      return\n        /* \"SquiddyCore.sol\":8128:8415  function exchangeRate() public view returns (uint256) {... */\n    tag_15:\n      tag_103\n      tag_104\n      jump\t// in\n    tag_103:\n      mload(0x40)\n      tag_105\n      swap2\n      swap1\n      tag_56\n      jump\t// in\n    tag_105:\n      mload(0x40)\n      dup1\n      swap2\n      sub\n      swap1\n      return\n        /* \"ERC4626.sol\":5997:6105  function maxDeposit(address) public view virtual returns (uint256) {... */\n    tag_16:\n      tag_106\n      0x04\n      dup1\n      calldatasize\n      sub\n      dup2\n      add\n      swap1\n      tag_107\n      swap2\n      swap1\n      tag_108\n      jump\t// in\n    tag_107:\n      tag_109\n      jump\t// in\n    tag_106:\n      mload(0x40)\n      tag_110\n      swap2\n      swap1\n      tag_56\n      jump\t// in\n    tag_110:\n      mload(0x40)\n      dup1\n      swap2\n      sub\n      swap1\n      return\n        /* \"SquiddyCore.sol\":2270:2359  function manager() public view virtual returns (address) {... */\n    tag_17:\n      tag_111\n      tag_112\n      jump\t// in\n    tag_111:\n      mload(0x40)\n      tag_113\n      swap2\n      swap1\n      tag_114\n      jump\t// in\n    tag_113:\n      mload(0x40)\n      dup1\n      swap2\n      sub\n      swap1\n      return\n        /* \"ERC4626.sol\":5640:5800  function previewRedeem(uint256 shares)... */\n    tag_18:\n      tag_115\n      0x04\n      dup1\n      calldatasize\n      sub\n      dup2\n      add\n      swap1\n      tag_116\n      swap2\n      swap1\n      tag_63\n      jump\t// in\n    tag_116:\n      tag_117\n      jump\t// in\n    tag_115:\n      mload(0x40)\n      tag_118\n      swap2\n      swap1\n      tag_56\n      jump\t// in\n    tag_118:\n      mload(0x40)\n      dup1\n      swap2\n      sub\n      swap1\n      return\n        /* \"ERC4626.sol\":1583:2127  function deposit(uint256 assets, address receiver)... */\n    tag_19:\n      tag_119\n      0x04\n      dup1\n      calldatasize\n      sub\n      dup2\n      add\n      swap1\n      tag_120\n      swap2\n      swap1\n      tag_121\n      jump\t// in\n    tag_120:\n      tag_122\n      jump\t// in\n    tag_119:\n      mload(0x40)\n      tag_123\n      swap2\n      swap1\n      tag_56\n      jump\t// in\n    tag_123:\n      mload(0x40)\n      dup1\n      swap2\n      sub\n      swap1\n      return\n        /* \"ERC20.sol\":1367:1411  mapping(address => uint256) public balanceOf */\n    tag_20:\n      tag_124\n      0x04\n      dup1\n      calldatasize\n      sub\n      dup2\n      add\n      swap1\n      tag_125\n      swap2\n      swap1\n      tag_108\n      jump\t// in\n    tag_125:\n      tag_126\n      jump\t// in\n    tag_124:\n      mload(0x40)\n      tag_127\n      swap2\n      swap1\n      tag_56\n      jump\t// in\n    tag_127:\n      mload(0x40)\n      dup1\n      swap2\n      sub\n      swap1\n      return\n        /* \"SquiddyCore.sol\":2538:2689  function renounceOwnership() public virtual onlyManager {... */\n    tag_21:\n      tag_128\n      tag_129\n      jump\t// in\n    tag_128:\n      stop\n        /* \"SquiddyCore.sol\":3614:3937  function setFeePercent(uint256 newFeePercent) external onlyManager {... */\n    tag_22:\n      tag_130\n      0x04\n      dup1\n      calldatasize\n      sub\n      dup2\n      add\n      swap1\n      tag_131\n      swap2\n      swap1\n      tag_63\n      jump\t// in\n    tag_131:\n      tag_132\n      jump\t// in\n    tag_130:\n      stop\n        /* \"ERC20.sol\":1781:1822  mapping(address => uint256) public nonces */\n    tag_23:\n      tag_133\n      0x04\n      dup1\n      calldatasize\n      sub\n      dup2\n      add\n      swap1\n      tag_134\n      swap2\n      swap1\n      tag_108\n      jump\t// in\n    tag_134:\n      tag_135\n      jump\t// in\n    tag_133:\n      mload(0x40)\n      tag_136\n      swap2\n      swap1\n      tag_56\n      jump\t// in\n    tag_136:\n      mload(0x40)\n      dup1\n      swap2\n      sub\n      swap1\n      return\n        /* \"SquiddyCore.sol\":3485:3510  uint256 public feePercent */\n    tag_24:\n      tag_137\n      tag_138\n      jump\t// in\n    tag_137:\n      mload(0x40)\n      tag_139\n      swap2\n      swap1\n      tag_56\n      jump\t// in\n    tag_139:\n      mload(0x40)\n      dup1\n      swap2\n      sub\n      swap1\n      return\n        /* \"ERC4626.sol\":2133:2628  function mint(uint256 shares, address receiver)... */\n    tag_25:\n      tag_140\n      0x04\n      dup1\n      calldatasize\n      sub\n      dup2\n      add\n      swap1\n      tag_141\n      swap2\n      swap1\n      tag_121\n      jump\t// in\n    tag_141:\n      tag_142\n      jump\t// in\n    tag_140:\n      mload(0x40)\n      tag_143\n      swap2\n      swap1\n      tag_56\n      jump\t// in\n    tag_143:\n      mload(0x40)\n      dup1\n      swap2\n      sub\n      swap1\n      return\n        /* \"ERC20.sol\":1086:1106  string public symbol */\n    tag_26:\n      tag_144\n      tag_145\n      jump\t// in\n    tag_144:\n      mload(0x40)\n      tag_146\n      swap2\n      swap1\n      tag_60\n      jump\t// in\n    tag_146:\n      mload(0x40)\n      dup1\n      swap2\n      sub\n      swap1\n      return\n        /* \"ERC20.sol\":2736:3137  function transfer(address to, uint256 amount)... */\n    tag_27:\n      tag_147\n      0x04\n      dup1\n      calldatasize\n      sub\n      dup2\n      add\n      swap1\n      tag_148\n      swap2\n      swap1\n      tag_68\n      jump\t// in\n    tag_148:\n      tag_149\n      jump\t// in\n    tag_147:\n      mload(0x40)\n      tag_150\n      swap2\n      swap1\n      tag_71\n      jump\t// in\n    tag_150:\n      mload(0x40)\n      dup1\n      swap2\n      sub\n      swap1\n      return\n        /* \"SquiddyCore.sol\":4130:4378  function claimFees(uint256 sVTokenAmount) external onlyManager {... */\n    tag_28:\n      tag_151\n      0x04\n      dup1\n      calldatasize\n      sub\n      dup2\n      add\n      swap1\n      tag_152\n      swap2\n      swap1\n      tag_63\n      jump\t// in\n    tag_152:\n      tag_153\n      jump\t// in\n    tag_151:\n      stop\n        /* \"ERC4626.sol\":5086:5337  function previewMint(uint256 shares) public view virtual returns (uint256) {... */\n    tag_29:\n      tag_154\n      0x04\n      dup1\n      calldatasize\n      sub\n      dup2\n      add\n      swap1\n      tag_155\n      swap2\n      swap1\n      tag_63\n      jump\t// in\n    tag_155:\n      tag_156\n      jump\t// in\n    tag_154:\n      mload(0x40)\n      tag_157\n      swap2\n      swap1\n      tag_56\n      jump\t// in\n    tag_157:\n      mload(0x40)\n      dup1\n      swap2\n      sub\n      swap1\n      return\n        /* \"ERC4626.sol\":2634:3329  function withdraw(... */\n    tag_30:\n      tag_158\n      0x04\n      dup1\n      calldatasize\n      sub\n      dup2\n      add\n      swap1\n      tag_159\n      swap2\n      swap1\n      tag_160\n      jump\t// in\n    tag_159:\n      tag_161\n      jump\t// in\n    tag_158:\n      mload(0x40)\n      tag_162\n      swap2\n      swap1\n      tag_56\n      jump\t// in\n    tag_162:\n      mload(0x40)\n      dup1\n      swap2\n      sub\n      swap1\n      return\n        /* \"ERC4626.sol\":3335:4064  function redeem(... */\n    tag_31:\n      tag_163\n      0x04\n      dup1\n      calldatasize\n      sub\n      dup2\n      add\n      swap1\n      tag_164\n      swap2\n      swap1\n      tag_160\n      jump\t// in\n    tag_164:\n      tag_165\n      jump\t// in\n    tag_163:\n      mload(0x40)\n      tag_166\n      swap2\n      swap1\n      tag_56\n      jump\t// in\n    tag_166:\n      mload(0x40)\n      dup1\n      swap2\n      sub\n      swap1\n      return\n        /* \"SquiddyCore.sol\":254:304  uint256 public beforeWithdrawHookCalledCounter = 0 */\n    tag_32:\n      tag_167\n      tag_168\n      jump\t// in\n    tag_167:\n      mload(0x40)\n      tag_169\n      swap2\n      swap1\n      tag_56\n      jump\t// in\n    tag_169:\n      mload(0x40)\n      dup1\n      swap2\n      sub\n      swap1\n      return\n        /* \"SquiddyCore.sol\":4879:5299  function setTargetFloatPercent(uint256 newTargetFloatPercent)... */\n    tag_33:\n      tag_170\n      0x04\n      dup1\n      calldatasize\n      sub\n      dup2\n      add\n      swap1\n      tag_171\n      swap2\n      swap1\n      tag_63\n      jump\t// in\n    tag_171:\n      tag_172\n      jump\t// in\n    tag_170:\n      stop\n        /* \"SquiddyCore.sol\":406:439  ERC20 public immutable UNDERLYING */\n    tag_34:\n      tag_173\n      tag_174\n      jump\t// in\n    tag_173:\n      mload(0x40)\n      tag_175\n      swap2\n      swap1\n      tag_102\n      jump\t// in\n    tag_175:\n      mload(0x40)\n      dup1\n      swap2\n      sub\n      swap1\n      return\n        /* \"ERC4626.sol\":6111:6216  function maxMint(address) public view virtual returns (uint256) {... */\n    tag_35:\n      tag_176\n      0x04\n      dup1\n      calldatasize\n      sub\n      dup2\n      add\n      swap1\n      tag_177\n      swap2\n      swap1\n      tag_108\n      jump\t// in\n    tag_177:\n      tag_178\n      jump\t// in\n    tag_176:\n      mload(0x40)\n      tag_179\n      swap2\n      swap1\n      tag_56\n      jump\t// in\n    tag_179:\n      mload(0x40)\n      dup1\n      swap2\n      sub\n      swap1\n      return\n        /* \"ERC4626.sol\":4321:4614  function convertToShares(uint256 assets)... */\n    tag_36:\n      tag_180\n      0x04\n      dup1\n      calldatasize\n      sub\n      dup2\n      add\n      swap1\n      tag_181\n      swap2\n      swap1\n      tag_63\n      jump\t// in\n    tag_181:\n      tag_182\n      jump\t// in\n    tag_180:\n      mload(0x40)\n      tag_183\n      swap2\n      swap1\n      tag_56\n      jump\t// in\n    tag_183:\n      mload(0x40)\n      dup1\n      swap2\n      sub\n      swap1\n      return\n        /* \"ERC4626.sol\":6222:6353  function maxWithdraw(address owner) public view virtual returns (uint256) {... */\n    tag_37:\n      tag_184\n      0x04\n      dup1\n      calldatasize\n      sub\n      dup2\n      add\n      swap1\n      tag_185\n      swap2\n      swap1\n      tag_108\n      jump\t// in\n    tag_185:\n      tag_186\n      jump\t// in\n    tag_184:\n      mload(0x40)\n      tag_187\n      swap2\n      swap1\n      tag_56\n      jump\t// in\n    tag_187:\n      mload(0x40)\n      dup1\n      swap2\n      sub\n      swap1\n      return\n        /* \"ERC20.sol\":3936:5465  function permit(... */\n    tag_38:\n      tag_188\n      0x04\n      dup1\n      calldatasize\n      sub\n      dup2\n      add\n      swap1\n      tag_189\n      swap2\n      swap1\n      tag_190\n      jump\t// in\n    tag_189:\n      tag_191\n      jump\t// in\n    tag_188:\n      stop\n        /* \"ERC4626.sol\":6359:6471  function maxRedeem(address owner) public view virtual returns (uint256) {... */\n    tag_39:\n      tag_192\n      0x04\n      dup1\n      calldatasize\n      sub\n      dup2\n      add\n      swap1\n      tag_193\n      swap2\n      swap1\n      tag_108\n      jump\t// in\n    tag_193:\n      tag_194\n      jump\t// in\n    tag_192:\n      mload(0x40)\n      tag_195\n      swap2\n      swap1\n      tag_56\n      jump\t// in\n    tag_195:\n      mload(0x40)\n      dup1\n      swap2\n      sub\n      swap1\n      return\n        /* \"ERC20.sol\":1418:1482  mapping(address => mapping(address => uint256)) public allowance */\n    tag_40:\n      tag_196\n      0x04\n      dup1\n      calldatasize\n      sub\n      dup2\n      add\n      swap1\n      tag_197\n      swap2\n      swap1\n      tag_198\n      jump\t// in\n    tag_197:\n      tag_199\n      jump\t// in\n    tag_196:\n      mload(0x40)\n      tag_200\n      swap2\n      swap1\n      tag_56\n      jump\t// in\n    tag_200:\n      mload(0x40)\n      dup1\n      swap2\n      sub\n      swap1\n      return\n        /* \"SquiddyCore.sol\":6840:6876  uint256 public totalStrategyHoldings */\n    tag_41:\n      tag_201\n      tag_202\n      jump\t// in\n    tag_201:\n      mload(0x40)\n      tag_203\n      swap2\n      swap1\n      tag_56\n      jump\t// in\n    tag_203:\n      mload(0x40)\n      dup1\n      swap2\n      sub\n      swap1\n      return\n        /* \"ERC4626.sol\":4919:5080  function previewDeposit(uint256 assets)... */\n    tag_42:\n      tag_204\n      0x04\n      dup1\n      calldatasize\n      sub\n      dup2\n      add\n      swap1\n      tag_205\n      swap2\n      swap1\n      tag_63\n      jump\t// in\n    tag_205:\n      tag_206\n      jump\t// in\n    tag_204:\n      mload(0x40)\n      tag_207\n      swap2\n      swap1\n      tag_56\n      jump\t// in\n    tag_207:\n      mload(0x40)\n      dup1\n      swap2\n      sub\n      swap1\n      return\n        /* \"SquiddyCore.sol\":2839:3121  function transferOwnership(address newOwner) public virtual onlyManager {... */\n    tag_43:\n      tag_208\n      0x04\n      dup1\n      calldatasize\n      sub\n      dup2\n      add\n      swap1\n      tag_209\n      swap2\n      swap1\n      tag_108\n      jump\t// in\n    tag_209:\n      tag_210\n      jump\t// in\n    tag_208:\n      stop\n        /* \"SquiddyCore.sol\":5650:5678  bool public underlyingIsWETH */\n    tag_44:\n      tag_211\n      tag_212\n      jump\t// in\n    tag_211:\n      mload(0x40)\n      tag_213\n      swap2\n      swap1\n      tag_71\n      jump\t// in\n    tag_213:\n      mload(0x40)\n      dup1\n      swap2\n      sub\n      swap1\n      return\n        /* \"SquiddyCore.sol\":310:358  uint256 public afterDepositHookCalledCounter = 0 */\n    tag_45:\n      tag_214\n      tag_215\n      jump\t// in\n    tag_214:\n      mload(0x40)\n      tag_216\n      swap2\n      swap1\n      tag_56\n      jump\t// in\n    tag_216:\n      mload(0x40)\n      dup1\n      swap2\n      sub\n      swap1\n      return\n        /* \"SquiddyCore.sol\":8421:8537  function totalAssets() public view override returns (uint256) {... */\n    tag_54:\n        /* \"SquiddyCore.sol\":8474:8481  uint256 */\n      0x00\n        /* \"SquiddyCore.sol\":8500:8505  asset */\n      immutable(\"0xccaa62ece624b7c19179efe70bca6831b45dba36fd4251e9dcb4c8e2db68cc27\")\n        /* \"SquiddyCore.sol\":8500:8515  asset.balanceOf */\n      0xffffffffffffffffffffffffffffffffffffffff\n      and\n      0x70a08231\n        /* \"SquiddyCore.sol\":8524:8528  this */\n      address\n        /* \"SquiddyCore.sol\":8500:8530  asset.balanceOf(address(this)) */\n      mload(0x40)\n      dup3\n      0xffffffff\n      and\n      0xe0\n      shl\n      dup2\n      mstore\n      0x04\n      add\n      tag_218\n      swap2\n      swap1\n      tag_114\n      jump\t// in\n    tag_218:\n      0x20\n      mload(0x40)\n      dup1\n      dup4\n      sub\n      dup2\n      dup7\n      dup1\n      extcodesize\n      iszero\n      dup1\n      iszero\n      tag_219\n      jumpi\n      0x00\n      dup1\n      revert\n    tag_219:\n      pop\n      gas\n      staticcall\n      iszero\n      dup1\n      iszero\n      tag_221\n      jumpi\n      returndatasize\n      0x00\n      dup1\n      returndatacopy\n      revert(0x00, returndatasize)\n    tag_221:\n      pop\n      pop\n      pop\n      pop\n      mload(0x40)\n      returndatasize\n      not(0x1f)\n      0x1f\n      dup3\n      add\n      and\n      dup3\n      add\n      dup1\n      0x40\n      mstore\n      pop\n      dup2\n      add\n      swap1\n      tag_222\n      swap2\n      swap1\n      tag_223\n      jump\t// in\n    tag_222:\n        /* \"SquiddyCore.sol\":8493:8530  return asset.balanceOf(address(this)) */\n      swap1\n      pop\n        /* \"SquiddyCore.sol\":8421:8537  function totalAssets() public view override returns (uint256) {... */\n      swap1\n      jump\t// out\n        /* \"ERC20.sol\":1061:1079  string public name */\n    tag_58:\n      0x00\n      dup1\n      sload\n      tag_224\n      swap1\n      tag_225\n      jump\t// in\n    tag_224:\n      dup1\n      0x1f\n      add\n      0x20\n      dup1\n      swap2\n      div\n      mul\n      0x20\n      add\n      mload(0x40)\n      swap1\n      dup2\n      add\n      0x40\n      mstore\n      dup1\n      swap3\n      swap2\n      swap1\n      dup2\n      dup2\n      mstore\n      0x20\n      add\n      dup3\n      dup1\n      sload\n      tag_226\n      swap1\n      tag_225\n      jump\t// in\n    tag_226:\n      dup1\n      iszero\n      tag_227\n      jumpi\n      dup1\n      0x1f\n      lt\n      tag_228\n      jumpi\n      0x0100\n      dup1\n      dup4\n      sload\n      div\n      mul\n      dup4\n      mstore\n      swap2\n      0x20\n      add\n      swap2\n      jump(tag_227)\n    tag_228:\n      dup3\n      add\n      swap2\n      swap1\n      0x00\n      mstore\n      keccak256(0x00, 0x20)\n      swap1\n    tag_229:\n      dup2\n      sload\n      dup2\n      mstore\n      swap1\n      0x01\n      add\n      swap1\n      0x20\n      add\n      dup1\n      dup4\n      gt\n      tag_229\n      jumpi\n      dup3\n      swap1\n      sub\n      0x1f\n      and\n      dup3\n      add\n      swap2\n    tag_227:\n      pop\n      pop\n      pop\n      pop\n      pop\n      dup2\n      jump\t// out\n        /* \"ERC4626.sol\":4620:4913  function convertToAssets(uint256 shares)... */\n    tag_64:\n        /* \"ERC4626.sol\":4722:4729  uint256 */\n      0x00\n        /* \"ERC4626.sol\":4745:4759  uint256 supply */\n      dup1\n        /* \"ERC4626.sol\":4762:4773  totalSupply */\n      sload(0x02)\n        /* \"ERC4626.sol\":4745:4773  uint256 supply = totalSupply */\n      swap1\n      pop\n        /* \"ERC4626.sol\":4853:4854  0 */\n      0x00\n        /* \"ERC4626.sol\":4843:4849  supply */\n      dup2\n        /* \"ERC4626.sol\":4843:4854  supply == 0 */\n      eq\n        /* \"ERC4626.sol\":4843:4906  supply == 0 ? shares : shares.mulDivDown(totalAssets(), supply) */\n      tag_231\n      jumpi\n        /* \"ERC4626.sol\":4866:4906  shares.mulDivDown(totalAssets(), supply) */\n      tag_232\n        /* \"ERC4626.sol\":4884:4897  totalAssets() */\n      tag_233\n        /* \"ERC4626.sol\":4884:4895  totalAssets */\n      tag_54\n        /* \"ERC4626.sol\":4884:4897  totalAssets() */\n      jump\t// in\n    tag_233:\n        /* \"ERC4626.sol\":4899:4905  supply */\n      dup3\n        /* \"ERC4626.sol\":4866:4872  shares */\n      dup6\n        /* \"ERC4626.sol\":4866:4883  shares.mulDivDown */\n      tag_234\n      swap1\n        /* \"ERC4626.sol\":4866:4906  shares.mulDivDown(totalAssets(), supply) */\n      swap3\n      swap2\n      swap1\n      0xffffffff\n      and\n      jump\t// in\n    tag_232:\n        /* \"ERC4626.sol\":4843:4906  supply == 0 ? shares : shares.mulDivDown(totalAssets(), supply) */\n      jump(tag_235)\n    tag_231:\n        /* \"ERC4626.sol\":4857:4863  shares */\n      dup3\n        /* \"ERC4626.sol\":4843:4906  supply == 0 ? shares : shares.mulDivDown(totalAssets(), supply) */\n    tag_235:\n        /* \"ERC4626.sol\":4836:4906  return supply == 0 ? shares : shares.mulDivDown(totalAssets(), supply) */\n      swap2\n      pop\n      pop\n        /* \"ERC4626.sol\":4620:4913  function convertToAssets(uint256 shares)... */\n      swap2\n      swap1\n      pop\n      jump\t// out\n        /* \"ERC20.sol\":2491:2730  function approve(address spender, uint256 amount)... */\n    tag_69:\n        /* \"ERC20.sol\":2589:2593  bool */\n      0x00\n        /* \"ERC20.sol\":2642:2648  amount */\n      dup2\n        /* \"ERC20.sol\":2609:2618  allowance */\n      0x04\n        /* \"ERC20.sol\":2609:2630  allowance[msg.sender] */\n      0x00\n        /* \"ERC20.sol\":2619:2629  msg.sender */\n      caller\n        /* \"ERC20.sol\":2609:2630  allowance[msg.sender] */\n      0xffffffffffffffffffffffffffffffffffffffff\n      and\n      0xffffffffffffffffffffffffffffffffffffffff\n      and\n      dup2\n      mstore\n      0x20\n      add\n      swap1\n      dup2\n      mstore\n      0x20\n      add\n      0x00\n      keccak256\n        /* \"ERC20.sol\":2609:2639  allowance[msg.sender][spender] */\n      0x00\n        /* \"ERC20.sol\":2631:2638  spender */\n      dup6\n        /* \"ERC20.sol\":2609:2639  allowance[msg.sender][spender] */\n      0xffffffffffffffffffffffffffffffffffffffff\n      and\n      0xffffffffffffffffffffffffffffffffffffffff\n      and\n      dup2\n      mstore\n      0x20\n      add\n      swap1\n      dup2\n      mstore\n      0x20\n      add\n      0x00\n      keccak256\n        /* \"ERC20.sol\":2609:2648  allowance[msg.sender][spender] = amount */\n      dup2\n      swap1\n      sstore\n      pop\n        /* \"ERC20.sol\":2685:2692  spender */\n      dup3\n        /* \"ERC20.sol\":2664:2701  Approval(msg.sender, spender, amount) */\n      0xffffffffffffffffffffffffffffffffffffffff\n      and\n        /* \"ERC20.sol\":2673:2683  msg.sender */\n      caller\n        /* \"ERC20.sol\":2664:2701  Approval(msg.sender, spender, amount) */\n      0xffffffffffffffffffffffffffffffffffffffff\n      and\n      0x8c5be1e5ebec7d5bd14f71427d1e84f3dd0314c0f7b2291e5b200ac8c7c3b925\n        /* \"ERC20.sol\":2694:2700  amount */\n      dup5\n        /* \"ERC20.sol\":2664:2701  Approval(msg.sender, spender, amount) */\n      mload(0x40)\n      tag_237\n      swap2\n      swap1\n      tag_56\n      jump\t// in\n    tag_237:\n      mload(0x40)\n      dup1\n      swap2\n      sub\n      swap1\n      log3\n        /* \"ERC20.sol\":2719:2723  true */\n      0x01\n        /* \"ERC20.sol\":2712:2723  return true */\n      swap1\n      pop\n        /* \"ERC20.sol\":2491:2730  function approve(address spender, uint256 amount)... */\n      swap3\n      swap2\n      pop\n      pop\n      jump\t// out\n        /* \"ERC4626.sol\":5343:5634  function previewWithdraw(uint256 assets)... */\n    tag_74:\n        /* \"ERC4626.sol\":5445:5452  uint256 */\n      0x00\n        /* \"ERC4626.sol\":5468:5482  uint256 supply */\n      dup1\n        /* \"ERC4626.sol\":5485:5496  totalSupply */\n      sload(0x02)\n        /* \"ERC4626.sol\":5468:5496  uint256 supply = totalSupply */\n      swap1\n      pop\n        /* \"ERC4626.sol\":5576:5577  0 */\n      0x00\n        /* \"ERC4626.sol\":5566:5572  supply */\n      dup2\n        /* \"ERC4626.sol\":5566:5577  supply == 0 */\n      eq\n        /* \"ERC4626.sol\":5566:5627  supply == 0 ? assets : assets.mulDivUp(supply, totalAssets()) */\n      tag_239\n      jumpi\n        /* \"ERC4626.sol\":5589:5627  assets.mulDivUp(supply, totalAssets()) */\n      tag_240\n        /* \"ERC4626.sol\":5605:5611  supply */\n      dup2\n        /* \"ERC4626.sol\":5613:5626  totalAssets() */\n      tag_241\n        /* \"ERC4626.sol\":5613:5624  totalAssets */\n      tag_54\n        /* \"ERC4626.sol\":5613:5626  totalAssets() */\n      jump\t// in\n    tag_241:\n        /* \"ERC4626.sol\":5589:5595  assets */\n      dup6\n        /* \"ERC4626.sol\":5589:5604  assets.mulDivUp */\n      tag_242\n      swap1\n        /* \"ERC4626.sol\":5589:5627  assets.mulDivUp(supply, totalAssets()) */\n      swap3\n      swap2\n      swap1\n      0xffffffff\n      and\n      jump\t// in\n    tag_240:\n        /* \"ERC4626.sol\":5566:5627  supply == 0 ? assets : assets.mulDivUp(supply, totalAssets()) */\n      jump(tag_243)\n    tag_239:\n        /* \"ERC4626.sol\":5580:5586  assets */\n      dup3\n        /* \"ERC4626.sol\":5566:5627  supply == 0 ? assets : assets.mulDivUp(supply, totalAssets()) */\n    tag_243:\n        /* \"ERC4626.sol\":5559:5627  return supply == 0 ? assets : assets.mulDivUp(supply, totalAssets()) */\n      swap2\n      pop\n      pop\n        /* \"ERC4626.sol\":5343:5634  function previewWithdraw(uint256 assets)... */\n      swap2\n      swap1\n      pop\n      jump\t// out\n        /* \"ERC20.sol\":1334:1360  uint256 public totalSupply */\n    tag_77:\n      sload(0x02)\n      dup2\n      jump\t// out\n        /* \"SquiddyCore.sol\":4718:4751  uint256 public targetFloatPercent */\n    tag_80:\n      sload(0x0a)\n      dup2\n      jump\t// out\n        /* \"ERC20.sol\":3143:3747  function transferFrom(... */\n    tag_85:\n        /* \"ERC20.sol\":3261:3265  bool */\n      0x00\n        /* \"ERC20.sol\":3277:3292  uint256 allowed */\n      dup1\n        /* \"ERC20.sol\":3295:3304  allowance */\n      0x04\n        /* \"ERC20.sol\":3295:3310  allowance[from] */\n      0x00\n        /* \"ERC20.sol\":3305:3309  from */\n      dup7\n        /* \"ERC20.sol\":3295:3310  allowance[from] */\n      0xffffffffffffffffffffffffffffffffffffffff\n      and\n      0xffffffffffffffffffffffffffffffffffffffff\n      and\n      dup2\n      mstore\n      0x20\n      add\n      swap1\n      dup2\n      mstore\n      0x20\n      add\n      0x00\n      keccak256\n        /* \"ERC20.sol\":3295:3322  allowance[from][msg.sender] */\n      0x00\n        /* \"ERC20.sol\":3311:3321  msg.sender */\n      caller\n        /* \"ERC20.sol\":3295:3322  allowance[from][msg.sender] */\n      0xffffffffffffffffffffffffffffffffffffffff\n      and\n      0xffffffffffffffffffffffffffffffffffffffff\n      and\n      dup2\n      mstore\n      0x20\n      add\n      swap1\n      dup2\n      mstore\n      0x20\n      add\n      0x00\n      keccak256\n      sload\n        /* \"ERC20.sol\":3277:3322  uint256 allowed = allowance[from][msg.sender] */\n      swap1\n      pop\n        /* \"ERC20.sol\":3384:3401  type(uint256).max */\n      0xffffffffffffffffffffffffffffffffffffffffffffffffffffffffffffffff\n        /* \"ERC20.sol\":3373:3380  allowed */\n      dup2\n        /* \"ERC20.sol\":3373:3401  allowed != type(uint256).max */\n      eq\n        /* \"ERC20.sol\":3369:3461  if (allowed != type(uint256).max)... */\n      tag_245\n      jumpi\n        /* \"ERC20.sol\":3455:3461  amount */\n      dup3\n        /* \"ERC20.sol\":3445:3452  allowed */\n      dup2\n        /* \"ERC20.sol\":3445:3461  allowed - amount */\n      tag_246\n      swap2\n      swap1\n      tag_247\n      jump\t// in\n    tag_246:\n        /* \"ERC20.sol\":3415:3424  allowance */\n      0x04\n        /* \"ERC20.sol\":3415:3430  allowance[from] */\n      0x00\n        /* \"ERC20.sol\":3425:3429  from */\n      dup8\n        /* \"ERC20.sol\":3415:3430  allowance[from] */\n      0xffffffffffffffffffffffffffffffffffffffff\n      and\n      0xffffffffffffffffffffffffffffffffffffffff\n      and\n      dup2\n      mstore\n      0x20\n      add\n      swap1\n      dup2\n      mstore\n      0x20\n      add\n      0x00\n      keccak256\n        /* \"ERC20.sol\":3415:3442  allowance[from][msg.sender] */\n      0x00\n        /* \"ERC20.sol\":3431:3441  msg.sender */\n      caller\n        /* \"ERC20.sol\":3415:3442  allowance[from][msg.sender] */\n      0xffffffffffffffffffffffffffffffffffffffff\n      and\n      0xffffffffffffffffffffffffffffffffffffffff\n      and\n      dup2\n      mstore\n      0x20\n      add\n      swap1\n      dup2\n      mstore\n      0x20\n      add\n      0x00\n      keccak256\n        /* \"ERC20.sol\":3415:3461  allowance[from][msg.sender] = allowed - amount */\n      dup2\n      swap1\n      sstore\n      pop\n        /* \"ERC20.sol\":3369:3461  if (allowed != type(uint256).max)... */\n    tag_245:\n        /* \"ERC20.sol\":3491:3497  amount */\n      dup3\n        /* \"ERC20.sol\":3472:3481  balanceOf */\n      0x03\n        /* \"ERC20.sol\":3472:3487  balanceOf[from] */\n      0x00\n        /* \"ERC20.sol\":3482:3486  from */\n      dup8\n        /* \"ERC20.sol\":3472:3487  balanceOf[from] */\n      0xffffffffffffffffffffffffffffffffffffffff\n      and\n      0xffffffffffffffffffffffffffffffffffffffff\n      and\n      dup2\n      mstore\n      0x20\n      add\n      swap1\n      dup2\n      mstore\n      0x20\n      add\n      0x00\n      keccak256\n      0x00\n        /* \"ERC20.sol\":3472:3497  balanceOf[from] -= amount */\n      dup3\n      dup3\n      sload\n      tag_248\n      swap2\n      swap1\n      tag_247\n      jump\t// in\n    tag_248:\n      swap3\n      pop\n      pop\n      dup2\n      swap1\n      sstore\n      pop\n        /* \"ERC20.sol\":3660:3666  amount */\n      dup3\n        /* \"ERC20.sol\":3643:3652  balanceOf */\n      0x03\n        /* \"ERC20.sol\":3643:3656  balanceOf[to] */\n      0x00\n        /* \"ERC20.sol\":3653:3655  to */\n      dup7\n        /* \"ERC20.sol\":3643:3656  balanceOf[to] */\n      0xffffffffffffffffffffffffffffffffffffffff\n      and\n      0xffffffffffffffffffffffffffffffffffffffff\n      and\n      dup2\n      mstore\n      0x20\n      add\n      swap1\n      dup2\n      mstore\n      0x20\n      add\n      0x00\n      keccak256\n      0x00\n        /* \"ERC20.sol\":3643:3666  balanceOf[to] += amount */\n      dup3\n      dup3\n      sload\n      add\n      swap3\n      pop\n      pop\n      dup2\n      swap1\n      sstore\n      pop\n        /* \"ERC20.sol\":3707:3709  to */\n      dup4\n        /* \"ERC20.sol\":3692:3718  Transfer(from, to, amount) */\n      0xffffffffffffffffffffffffffffffffffffffff\n      and\n        /* \"ERC20.sol\":3701:3705  from */\n      dup6\n        /* \"ERC20.sol\":3692:3718  Transfer(from, to, amount) */\n      0xffffffffffffffffffffffffffffffffffffffff\n      and\n      0xddf252ad1be2c89b69c2b068fc378daa952ba7f163c4a11628f55a4df523b3ef\n        /* \"ERC20.sol\":3711:3717  amount */\n      dup6\n        /* \"ERC20.sol\":3692:3718  Transfer(from, to, amount) */\n      mload(0x40)\n      tag_249\n      swap2\n      swap1\n      tag_56\n      jump\t// in\n    tag_249:\n      mload(0x40)\n      dup1\n      swap2\n      sub\n      swap1\n      log3\n        /* \"ERC20.sol\":3736:3740  true */\n      0x01\n        /* \"ERC20.sol\":3729:3740  return true */\n      swap2\n      pop\n      pop\n        /* \"ERC20.sol\":3143:3747  function transferFrom(... */\n      swap4\n      swap3\n      pop\n      pop\n      pop\n      jump\t// out\n        /* \"ERC20.sol\":1113:1144  uint8 public immutable decimals */\n    tag_88:\n      immutable(\"0xa50d3dbe1811761e813bcaff00595494f2db37a8edb3da4198b3ee18e798cf55\")\n      dup2\n      jump\t// out\n        /* \"SquiddyCore.sol\":5935:6438  function setUnderlyingIsWETH(bool newUnderlyingIsWETH)... */\n    tag_94:\n        /* \"SquiddyCore.sol\":1532:1542  msg.sender */\n      caller\n        /* \"SquiddyCore.sol\":1519:1542  manager() == msg.sender */\n      0xffffffffffffffffffffffffffffffffffffffff\n      and\n        /* \"SquiddyCore.sol\":1519:1528  manager() */\n      tag_251\n        /* \"SquiddyCore.sol\":1519:1526  manager */\n      tag_112\n        /* \"SquiddyCore.sol\":1519:1528  manager() */\n      jump\t// in\n    tag_251:\n        /* \"SquiddyCore.sol\":1519:1542  manager() == msg.sender */\n      0xffffffffffffffffffffffffffffffffffffffff\n      and\n      eq\n        /* \"SquiddyCore.sol\":1511:1581  require(manager() == msg.sender, \"Ownable: caller is not the manager\") */\n      tag_252\n      jumpi\n      mload(0x40)\n      0x08c379a000000000000000000000000000000000000000000000000000000000\n      dup2\n      mstore\n      0x04\n      add\n      tag_253\n      swap1\n      tag_254\n      jump\t// in\n    tag_253:\n      mload(0x40)\n      dup1\n      swap2\n      sub\n      swap1\n      revert\n    tag_252:\n        /* \"SquiddyCore.sol\":6153:6172  newUnderlyingIsWETH */\n      dup1\n        /* \"SquiddyCore.sol\":6152:6172  !newUnderlyingIsWETH */\n      iszero\n        /* \"SquiddyCore.sol\":6152:6203  !newUnderlyingIsWETH || UNDERLYING.decimals() == 18 */\n      dup1\n      tag_256\n      jumpi\n      pop\n        /* \"SquiddyCore.sol\":6201:6203  18 */\n      0x12\n        /* \"SquiddyCore.sol\":6176:6186  UNDERLYING */\n      immutable(\"0x92a41d55cbdb211ce00f83c8eb2d05bc8d83f7306d48f28113ee4353d4c63ac8\")\n        /* \"SquiddyCore.sol\":6176:6195  UNDERLYING.decimals */\n      0xffffffffffffffffffffffffffffffffffffffff\n      and\n      0x313ce567\n        /* \"SquiddyCore.sol\":6176:6197  UNDERLYING.decimals() */\n      mload(0x40)\n      dup2\n      0xffffffff\n      and\n      0xe0\n      shl\n      dup2\n      mstore\n      0x04\n      add\n      0x20\n      mload(0x40)\n      dup1\n      dup4\n      sub\n      dup2\n      dup7\n      dup1\n      extcodesize\n      iszero\n      dup1\n      iszero\n      tag_257\n      jumpi\n      0x00\n      dup1\n      revert\n    tag_257:\n      pop\n      gas\n      staticcall\n      iszero\n      dup1\n      iszero\n      tag_259\n      jumpi\n      returndatasize\n      0x00\n      dup1\n      returndatacopy\n      revert(0x00, returndatasize)\n    tag_259:\n      pop\n      pop\n      pop\n      pop\n      mload(0x40)\n      returndatasize\n      not(0x1f)\n      0x1f\n      dup3\n      add\n      and\n      dup3\n      add\n      dup1\n      0x40\n      mstore\n      pop\n      dup2\n      add\n      swap1\n      tag_260\n      swap2\n      swap1\n      tag_261\n      jump\t// in\n    tag_260:\n        /* \"SquiddyCore.sol\":6176:6203  UNDERLYING.decimals() == 18 */\n      0xff\n      and\n      eq\n        /* \"SquiddyCore.sol\":6152:6203  !newUnderlyingIsWETH || UNDERLYING.decimals() == 18 */\n    tag_256:\n        /* \"SquiddyCore.sol\":6131:6243  require(... */\n      tag_262\n      jumpi\n      mload(0x40)\n      0x08c379a000000000000000000000000000000000000000000000000000000000\n      dup2\n      mstore\n      0x04\n      add\n      tag_263\n      swap1\n      tag_264\n      jump\t// in\n    tag_263:\n      mload(0x40)\n      dup1\n      swap2\n      sub\n      swap1\n      revert\n    tag_262:\n        /* \"SquiddyCore.sol\":6340:6359  newUnderlyingIsWETH */\n      dup1\n        /* \"SquiddyCore.sol\":6321:6337  underlyingIsWETH */\n      0x0b\n      0x00\n        /* \"SquiddyCore.sol\":6321:6359  underlyingIsWETH = newUnderlyingIsWETH */\n      0x0100\n      exp\n      dup2\n      sload\n      dup2\n      0xff\n      mul\n      not\n      and\n      swap1\n      dup4\n      iszero\n      iszero\n      mul\n      or\n      swap1\n      sstore\n      pop\n        /* \"SquiddyCore.sol\":6399:6409  msg.sender */\n      caller\n        /* \"SquiddyCore.sol\":6375:6431  UnderlyingIsWETHUpdated(msg.sender, newUnderlyingIsWETH) */\n      0xffffffffffffffffffffffffffffffffffffffff\n      and\n      0x6375b140d4463d47b864f1f47e5d2893cc3478e73aedcc268b054fab0230a841\n        /* \"SquiddyCore.sol\":6411:6430  newUnderlyingIsWETH */\n      dup3\n        /* \"SquiddyCore.sol\":6375:6431  UnderlyingIsWETHUpdated(msg.sender, newUnderlyingIsWETH) */\n      mload(0x40)\n      tag_265\n      swap2\n      swap1\n      tag_71\n      jump\t// in\n    tag_265:\n      mload(0x40)\n      dup1\n      swap2\n      sub\n      swap1\n      log2\n        /* \"SquiddyCore.sol\":5935:6438  function setUnderlyingIsWETH(bool newUnderlyingIsWETH)... */\n      pop\n      jump\t// out\n        /* \"ERC20.sol\":5471:5692  function DOMAIN_SEPARATOR() public view virtual returns (bytes32) {... */\n    tag_96:\n        /* \"ERC20.sol\":5528:5535  bytes32 */\n      0x00\n        /* \"ERC20.sol\":5583:5599  INITIAL_CHAIN_ID */\n      immutable(\"0x99234e8bb0caccda3914a3f5815f9f0b8e1efd8c0710474b7e1f8f99bf3b0eb8\")\n        /* \"ERC20.sol\":5566:5579  block.chainid */\n      chainid\n        /* \"ERC20.sol\":5566:5599  block.chainid == INITIAL_CHAIN_ID */\n      eq\n        /* \"ERC20.sol\":5566:5685  block.chainid == INITIAL_CHAIN_ID... */\n      tag_267\n      jumpi\n        /* \"ERC20.sol\":5661:5685  computeDomainSeparator() */\n      tag_268\n        /* \"ERC20.sol\":5661:5683  computeDomainSeparator */\n      tag_269\n        /* \"ERC20.sol\":5661:5685  computeDomainSeparator() */\n      jump\t// in\n    tag_268:\n        /* \"ERC20.sol\":5566:5685  block.chainid == INITIAL_CHAIN_ID... */\n      jump(tag_270)\n    tag_267:\n        /* \"ERC20.sol\":5618:5642  INITIAL_DOMAIN_SEPARATOR */\n      immutable(\"0x0b5b4909689530cff5363da0725934bf6a53cd0591e5617e9bdd14e7a516da10\")\n        /* \"ERC20.sol\":5566:5685  block.chainid == INITIAL_CHAIN_ID... */\n    tag_270:\n        /* \"ERC20.sol\":5547:5685  return... */\n      swap1\n      pop\n        /* \"ERC20.sol\":5471:5692  function DOMAIN_SEPARATOR() public view virtual returns (bytes32) {... */\n      swap1\n      jump\t// out\n        /* \"ERC4626.sol\":1165:1193  ERC20 public immutable asset */\n    tag_100:\n      immutable(\"0xccaa62ece624b7c19179efe70bca6831b45dba36fd4251e9dcb4c8e2db68cc27\")\n      dup2\n      jump\t// out\n        /* \"SquiddyCore.sol\":8128:8415  function exchangeRate() public view returns (uint256) {... */\n    tag_104:\n        /* \"SquiddyCore.sol\":8173:8180  uint256 */\n      0x00\n        /* \"SquiddyCore.sol\":8237:8258  uint256 sVTokenSupply */\n      dup1\n        /* \"SquiddyCore.sol\":8261:8272  totalSupply */\n      sload(0x02)\n        /* \"SquiddyCore.sol\":8237:8272  uint256 sVTokenSupply = totalSupply */\n      swap1\n      pop\n        /* \"SquiddyCore.sol\":8388:8389  0 */\n      0x00\n        /* \"SquiddyCore.sol\":8371:8384  sVTokenSupply */\n      dup2\n        /* \"SquiddyCore.sol\":8371:8389  sVTokenSupply == 0 */\n      eq\n        /* \"SquiddyCore.sol\":8367:8407  if (sVTokenSupply == 0) return BASE_UNIT */\n      iszero\n      tag_272\n      jumpi\n        /* \"SquiddyCore.sol\":8398:8407  BASE_UNIT */\n      immutable(\"0x8c2c54587967106aada40726d97869a68f1884315326f75aae38a5f14c8f0480\")\n        /* \"SquiddyCore.sol\":8391:8407  return BASE_UNIT */\n      swap2\n      pop\n      pop\n      jump(tag_271)\n        /* \"SquiddyCore.sol\":8367:8407  if (sVTokenSupply == 0) return BASE_UNIT */\n    tag_272:\n        /* \"SquiddyCore.sol\":8182:8415  {... */\n      pop\n        /* \"SquiddyCore.sol\":8128:8415  function exchangeRate() public view returns (uint256) {... */\n    tag_271:\n      swap1\n      jump\t// out\n        /* \"ERC4626.sol\":5997:6105  function maxDeposit(address) public view virtual returns (uint256) {... */\n    tag_109:\n        /* \"ERC4626.sol\":6055:6062  uint256 */\n      0x00\n        /* \"ERC4626.sol\":6081:6098  type(uint256).max */\n      0xffffffffffffffffffffffffffffffffffffffffffffffffffffffffffffffff\n        /* \"ERC4626.sol\":6074:6098  return type(uint256).max */\n      swap1\n      pop\n        /* \"ERC4626.sol\":5997:6105  function maxDeposit(address) public view virtual returns (uint256) {... */\n      swap2\n      swap1\n      pop\n      jump\t// out\n        /* \"SquiddyCore.sol\":2270:2359  function manager() public view virtual returns (address) {... */\n    tag_112:\n        /* \"SquiddyCore.sol\":2318:2325  address */\n      0x00\n        /* \"SquiddyCore.sol\":2344:2352  _manager */\n      0x06\n      0x00\n      swap1\n      sload\n      swap1\n      0x0100\n      exp\n      swap1\n      div\n      0xffffffffffffffffffffffffffffffffffffffff\n      and\n        /* \"SquiddyCore.sol\":2337:2352  return _manager */\n      swap1\n      pop\n        /* \"SquiddyCore.sol\":2270:2359  function manager() public view virtual returns (address) {... */\n      swap1\n      jump\t// out\n        /* \"ERC4626.sol\":5640:5800  function previewRedeem(uint256 shares)... */\n    tag_117:\n        /* \"ERC4626.sol\":5740:5747  uint256 */\n      0x00\n        /* \"ERC4626.sol\":5770:5793  convertToAssets(shares) */\n      tag_276\n        /* \"ERC4626.sol\":5786:5792  shares */\n      dup3\n        /* \"ERC4626.sol\":5770:5785  convertToAssets */\n      tag_64\n        /* \"ERC4626.sol\":5770:5793  convertToAssets(shares) */\n      jump\t// in\n    tag_276:\n        /* \"ERC4626.sol\":5763:5793  return convertToAssets(shares) */\n      swap1\n      pop\n        /* \"ERC4626.sol\":5640:5800  function previewRedeem(uint256 shares)... */\n      swap2\n      swap1\n      pop\n      jump\t// out\n        /* \"ERC4626.sol\":1583:2127  function deposit(uint256 assets, address receiver)... */\n    tag_122:\n        /* \"ERC4626.sol\":1682:1696  uint256 shares */\n      0x00\n        /* \"ERC4626.sol\":1832:1833  0 */\n      dup1\n        /* \"ERC4626.sol\":1805:1827  previewDeposit(assets) */\n      tag_278\n        /* \"ERC4626.sol\":1820:1826  assets */\n      dup5\n        /* \"ERC4626.sol\":1805:1819  previewDeposit */\n      tag_206\n        /* \"ERC4626.sol\":1805:1827  previewDeposit(assets) */\n      jump\t// in\n    tag_278:\n        /* \"ERC4626.sol\":1796:1827  shares = previewDeposit(assets) */\n      swap2\n      pop\n      dup2\n        /* \"ERC4626.sol\":1795:1833  (shares = previewDeposit(assets)) != 0 */\n      eq\n      iszero\n        /* \"ERC4626.sol\":1787:1849  require((shares = previewDeposit(assets)) != 0, \"ZERO_SHARES\") */\n      tag_279\n      jumpi\n      mload(0x40)\n      0x08c379a000000000000000000000000000000000000000000000000000000000\n      dup2\n      mstore\n      0x04\n      add\n      tag_280\n      swap1\n      tag_281\n      jump\t// in\n    tag_280:\n      mload(0x40)\n      dup1\n      swap2\n      sub\n      swap1\n      revert\n    tag_279:\n        /* \"ERC4626.sol\":1929:1986  asset.safeTransferFrom(msg.sender, address(this), assets) */\n      tag_282\n        /* \"ERC4626.sol\":1952:1962  msg.sender */\n      caller\n        /* \"ERC4626.sol\":1972:1976  this */\n      address\n        /* \"ERC4626.sol\":1979:1985  assets */\n      dup6\n        /* \"ERC4626.sol\":1929:1934  asset */\n      immutable(\"0xccaa62ece624b7c19179efe70bca6831b45dba36fd4251e9dcb4c8e2db68cc27\")\n        /* \"ERC4626.sol\":1929:1951  asset.safeTransferFrom */\n      0xffffffffffffffffffffffffffffffffffffffff\n      and\n      tag_283\n      swap1\n        /* \"ERC4626.sol\":1929:1986  asset.safeTransferFrom(msg.sender, address(this), assets) */\n      swap4\n      swap3\n      swap2\n      swap1\n      0xffffffff\n      and\n      jump\t// in\n    tag_282:\n        /* \"ERC4626.sol\":1997:2020  _mint(receiver, shares) */\n      tag_284\n        /* \"ERC4626.sol\":2003:2011  receiver */\n      dup3\n        /* \"ERC4626.sol\":2013:2019  shares */\n      dup3\n        /* \"ERC4626.sol\":1997:2002  _mint */\n      tag_285\n        /* \"ERC4626.sol\":1997:2020  _mint(receiver, shares) */\n      jump\t// in\n    tag_284:\n        /* \"ERC4626.sol\":2056:2064  receiver */\n      dup2\n        /* \"ERC4626.sol\":2036:2081  Deposit(msg.sender, receiver, assets, shares) */\n      0xffffffffffffffffffffffffffffffffffffffff\n      and\n        /* \"ERC4626.sol\":2044:2054  msg.sender */\n      caller\n        /* \"ERC4626.sol\":2036:2081  Deposit(msg.sender, receiver, assets, shares) */\n      0xffffffffffffffffffffffffffffffffffffffff\n      and\n      0xdcbc1c05240f31ff3ad067ef1ee35ce4997762752e3a095284754544f4c709d7\n        /* \"ERC4626.sol\":2066:2072  assets */\n      dup6\n        /* \"ERC4626.sol\":2074:2080  shares */\n      dup5\n        /* \"ERC4626.sol\":2036:2081  Deposit(msg.sender, receiver, assets, shares) */\n      mload(0x40)\n      tag_286\n      swap3\n      swap2\n      swap1\n      tag_287\n      jump\t// in\n    tag_286:\n      mload(0x40)\n      dup1\n      swap2\n      sub\n      swap1\n      log3\n        /* \"ERC4626.sol\":2092:2120  afterDeposit(assets, shares) */\n      tag_288\n        /* \"ERC4626.sol\":2105:2111  assets */\n      dup4\n        /* \"ERC4626.sol\":2113:2119  shares */\n      dup3\n        /* \"ERC4626.sol\":2092:2104  afterDeposit */\n      tag_289\n        /* \"ERC4626.sol\":2092:2120  afterDeposit(assets, shares) */\n      jump\t// in\n    tag_288:\n        /* \"ERC4626.sol\":1583:2127  function deposit(uint256 assets, address receiver)... */\n      swap3\n      swap2\n      pop\n      pop\n      jump\t// out\n        /* \"ERC20.sol\":1367:1411  mapping(address => uint256) public balanceOf */\n    tag_126:\n      mstore(0x20, 0x03)\n      dup1\n      0x00\n      mstore\n      keccak256(0x00, 0x40)\n      0x00\n      swap2\n      pop\n      swap1\n      pop\n      sload\n      dup2\n      jump\t// out\n        /* \"SquiddyCore.sol\":2538:2689  function renounceOwnership() public virtual onlyManager {... */\n    tag_129:\n        /* \"SquiddyCore.sol\":1532:1542  msg.sender */\n      caller\n        /* \"SquiddyCore.sol\":1519:1542  manager() == msg.sender */\n      0xffffffffffffffffffffffffffffffffffffffff\n      and\n        /* \"SquiddyCore.sol\":1519:1528  manager() */\n      tag_291\n        /* \"SquiddyCore.sol\":1519:1526  manager */\n      tag_112\n        /* \"SquiddyCore.sol\":1519:1528  manager() */\n      jump\t// in\n    tag_291:\n        /* \"SquiddyCore.sol\":1519:1542  manager() == msg.sender */\n      0xffffffffffffffffffffffffffffffffffffffff\n      and\n      eq\n        /* \"SquiddyCore.sol\":1511:1581  require(manager() == msg.sender, \"Ownable: caller is not the manager\") */\n      tag_292\n      jumpi\n      mload(0x40)\n      0x08c379a000000000000000000000000000000000000000000000000000000000\n      dup2\n      mstore\n      0x04\n      add\n      tag_293\n      swap1\n      tag_254\n      jump\t// in\n    tag_293:\n      mload(0x40)\n      dup1\n      swap2\n      sub\n      swap1\n      revert\n    tag_292:\n        /* \"SquiddyCore.sol\":2648:2649  0 */\n      0x00\n        /* \"SquiddyCore.sol\":2609:2651  OwnershipTransferred(_manager, address(0)) */\n      0xffffffffffffffffffffffffffffffffffffffff\n      and\n        /* \"SquiddyCore.sol\":2630:2638  _manager */\n      0x06\n      0x00\n      swap1\n      sload\n      swap1\n      0x0100\n      exp\n      swap1\n      div\n      0xffffffffffffffffffffffffffffffffffffffff\n      and\n        /* \"SquiddyCore.sol\":2609:2651  OwnershipTransferred(_manager, address(0)) */\n      0xffffffffffffffffffffffffffffffffffffffff\n      and\n      0x8be0079c531659141344cd1fd0a4f28419497f9722a3daafe3b4186f6b6457e0\n      mload(0x40)\n      mload(0x40)\n      dup1\n      swap2\n      sub\n      swap1\n      log3\n        /* \"SquiddyCore.sol\":2680:2681  0 */\n      0x00\n        /* \"SquiddyCore.sol\":2661:2669  _manager */\n      0x06\n      0x00\n        /* \"SquiddyCore.sol\":2661:2682  _manager = address(0) */\n      0x0100\n      exp\n      dup2\n      sload\n      dup2\n      0xffffffffffffffffffffffffffffffffffffffff\n      mul\n      not\n      and\n      swap1\n      dup4\n      0xffffffffffffffffffffffffffffffffffffffff\n      and\n      mul\n      or\n      swap1\n      sstore\n      pop\n        /* \"SquiddyCore.sol\":2538:2689  function renounceOwnership() public virtual onlyManager {... */\n      jump\t// out\n        /* \"SquiddyCore.sol\":3614:3937  function setFeePercent(uint256 newFeePercent) external onlyManager {... */\n    tag_132:\n        /* \"SquiddyCore.sol\":1532:1542  msg.sender */\n      caller\n        /* \"SquiddyCore.sol\":1519:1542  manager() == msg.sender */\n      0xffffffffffffffffffffffffffffffffffffffff\n      and\n        /* \"SquiddyCore.sol\":1519:1528  manager() */\n      tag_296\n        /* \"SquiddyCore.sol\":1519:1526  manager */\n      tag_112\n        /* \"SquiddyCore.sol\":1519:1528  manager() */\n      jump\t// in\n    tag_296:\n        /* \"SquiddyCore.sol\":1519:1542  manager() == msg.sender */\n      0xffffffffffffffffffffffffffffffffffffffff\n      and\n      eq\n        /* \"SquiddyCore.sol\":1511:1581  require(manager() == msg.sender, \"Ownable: caller is not the manager\") */\n      tag_297\n      jumpi\n      mload(0x40)\n      0x08c379a000000000000000000000000000000000000000000000000000000000\n      dup2\n      mstore\n      0x04\n      add\n      tag_298\n      swap1\n      tag_254\n      jump\t// in\n    tag_298:\n      mload(0x40)\n      dup1\n      swap2\n      sub\n      swap1\n      revert\n    tag_297:\n        /* \"SquiddyCore.sol\":3774:3778  1e18 */\n      0x0de0b6b3a7640000\n        /* \"SquiddyCore.sol\":3757:3770  newFeePercent */\n      dup2\n        /* \"SquiddyCore.sol\":3757:3778  newFeePercent <= 1e18 */\n      gt\n      iszero\n        /* \"SquiddyCore.sol\":3749:3795  require(newFeePercent <= 1e18, \"FEE_TOO_HIGH\") */\n      tag_300\n      jumpi\n      mload(0x40)\n      0x08c379a000000000000000000000000000000000000000000000000000000000\n      dup2\n      mstore\n      0x04\n      add\n      tag_301\n      swap1\n      tag_302\n      jump\t// in\n    tag_301:\n      mload(0x40)\n      dup1\n      swap2\n      sub\n      swap1\n      revert\n    tag_300:\n        /* \"SquiddyCore.sol\":3857:3870  newFeePercent */\n      dup1\n        /* \"SquiddyCore.sol\":3844:3854  feePercent */\n      0x09\n        /* \"SquiddyCore.sol\":3844:3870  feePercent = newFeePercent */\n      dup2\n      swap1\n      sstore\n      pop\n        /* \"SquiddyCore.sol\":3904:3914  msg.sender */\n      caller\n        /* \"SquiddyCore.sol\":3886:3930  FeePercentUpdated(msg.sender, newFeePercent) */\n      0xffffffffffffffffffffffffffffffffffffffff\n      and\n      0xec370615cc81fb334e5566fbc80664d9082377bf59288d64a79f3fbecf4323a9\n        /* \"SquiddyCore.sol\":3916:3929  newFeePercent */\n      dup3\n        /* \"SquiddyCore.sol\":3886:3930  FeePercentUpdated(msg.sender, newFeePercent) */\n      mload(0x40)\n      tag_303\n      swap2\n      swap1\n      tag_56\n      jump\t// in\n    tag_303:\n      mload(0x40)\n      dup1\n      swap2\n      sub\n      swap1\n      log2\n        /* \"SquiddyCore.sol\":3614:3937  function setFeePercent(uint256 newFeePercent) external onlyManager {... */\n      pop\n      jump\t// out\n        /* \"ERC20.sol\":1781:1822  mapping(address => uint256) public nonces */\n    tag_135:\n      mstore(0x20, 0x05)\n      dup1\n      0x00\n      mstore\n      keccak256(0x00, 0x40)\n      0x00\n      swap2\n      pop\n      swap1\n      pop\n      sload\n      dup2\n      jump\t// out\n        /* \"SquiddyCore.sol\":3485:3510  uint256 public feePercent */\n    tag_138:\n      sload(0x09)\n      dup2\n      jump\t// out\n        /* \"ERC4626.sol\":2133:2628  function mint(uint256 shares, address receiver)... */\n    tag_142:\n        /* \"ERC4626.sol\":2229:2243  uint256 assets */\n      0x00\n        /* \"ERC4626.sol\":2268:2287  previewMint(shares) */\n      tag_305\n        /* \"ERC4626.sol\":2280:2286  shares */\n      dup4\n        /* \"ERC4626.sol\":2268:2279  previewMint */\n      tag_156\n        /* \"ERC4626.sol\":2268:2287  previewMint(shares) */\n      jump\t// in\n    tag_305:\n        /* \"ERC4626.sol\":2259:2287  assets = previewMint(shares) */\n      swap1\n      pop\n        /* \"ERC4626.sol\":2430:2487  asset.safeTransferFrom(msg.sender, address(this), assets) */\n      tag_306\n        /* \"ERC4626.sol\":2453:2463  msg.sender */\n      caller\n        /* \"ERC4626.sol\":2473:2477  this */\n      address\n        /* \"ERC4626.sol\":2480:2486  assets */\n      dup4\n        /* \"ERC4626.sol\":2430:2435  asset */\n      immutable(\"0xccaa62ece624b7c19179efe70bca6831b45dba36fd4251e9dcb4c8e2db68cc27\")\n        /* \"ERC4626.sol\":2430:2452  asset.safeTransferFrom */\n      0xffffffffffffffffffffffffffffffffffffffff\n      and\n      tag_283\n      swap1\n        /* \"ERC4626.sol\":2430:2487  asset.safeTransferFrom(msg.sender, address(this), assets) */\n      swap4\n      swap3\n      swap2\n      swap1\n      0xffffffff\n      and\n      jump\t// in\n    tag_306:\n        /* \"ERC4626.sol\":2498:2521  _mint(receiver, shares) */\n      tag_307\n        /* \"ERC4626.sol\":2504:2512  receiver */\n      dup3\n        /* \"ERC4626.sol\":2514:2520  shares */\n      dup5\n        /* \"ERC4626.sol\":2498:2503  _mint */\n      tag_285\n        /* \"ERC4626.sol\":2498:2521  _mint(receiver, shares) */\n      jump\t// in\n    tag_307:\n        /* \"ERC4626.sol\":2557:2565  receiver */\n      dup2\n        /* \"ERC4626.sol\":2537:2582  Deposit(msg.sender, receiver, assets, shares) */\n      0xffffffffffffffffffffffffffffffffffffffff\n      and\n        /* \"ERC4626.sol\":2545:2555  msg.sender */\n      caller\n        /* \"ERC4626.sol\":2537:2582  Deposit(msg.sender, receiver, assets, shares) */\n      0xffffffffffffffffffffffffffffffffffffffff\n      and\n      0xdcbc1c05240f31ff3ad067ef1ee35ce4997762752e3a095284754544f4c709d7\n        /* \"ERC4626.sol\":2567:2573  assets */\n      dup4\n        /* \"ERC4626.sol\":2575:2581  shares */\n      dup7\n        /* \"ERC4626.sol\":2537:2582  Deposit(msg.sender, receiver, assets, shares) */\n      mload(0x40)\n      tag_308\n      swap3\n      swap2\n      swap1\n      tag_287\n      jump\t// in\n    tag_308:\n      mload(0x40)\n      dup1\n      swap2\n      sub\n      swap1\n      log3\n        /* \"ERC4626.sol\":2593:2621  afterDeposit(assets, shares) */\n      tag_309\n        /* \"ERC4626.sol\":2606:2612  assets */\n      dup2\n        /* \"ERC4626.sol\":2614:2620  shares */\n      dup5\n        /* \"ERC4626.sol\":2593:2605  afterDeposit */\n      tag_289\n        /* \"ERC4626.sol\":2593:2621  afterDeposit(assets, shares) */\n      jump\t// in\n    tag_309:\n        /* \"ERC4626.sol\":2133:2628  function mint(uint256 shares, address receiver)... */\n      swap3\n      swap2\n      pop\n      pop\n      jump\t// out\n        /* \"ERC20.sol\":1086:1106  string public symbol */\n    tag_145:\n      0x01\n      dup1\n      sload\n      tag_310\n      swap1\n      tag_225\n      jump\t// in\n    tag_310:\n      dup1\n      0x1f\n      add\n      0x20\n      dup1\n      swap2\n      div\n      mul\n      0x20\n      add\n      mload(0x40)\n      swap1\n      dup2\n      add\n      0x40\n      mstore\n      dup1\n      swap3\n      swap2\n      swap1\n      dup2\n      dup2\n      mstore\n      0x20\n      add\n      dup3\n      dup1\n      sload\n      tag_311\n      swap1\n      tag_225\n      jump\t// in\n    tag_311:\n      dup1\n      iszero\n      tag_312\n      jumpi\n      dup1\n      0x1f\n      lt\n      tag_313\n      jumpi\n      0x0100\n      dup1\n      dup4\n      sload\n      div\n      mul\n      dup4\n      mstore\n      swap2\n      0x20\n      add\n      swap2\n      jump(tag_312)\n    tag_313:\n      dup3\n      add\n      swap2\n      swap1\n      0x00\n      mstore\n      keccak256(0x00, 0x20)\n      swap1\n    tag_314:\n      dup2\n      sload\n      dup2\n      mstore\n      swap1\n      0x01\n      add\n      swap1\n      0x20\n      add\n      dup1\n      dup4\n      gt\n      tag_314\n      jumpi\n      dup3\n      swap1\n      sub\n      0x1f\n      and\n      dup3\n      add\n      swap2\n    tag_312:\n      pop\n      pop\n      pop\n      pop\n      pop\n      dup2\n      jump\t// out\n        /* \"ERC20.sol\":2736:3137  function transfer(address to, uint256 amount)... */\n    tag_149:\n        /* \"ERC20.sol\":2830:2834  bool */\n      0x00\n        /* \"ERC20.sol\":2875:2881  amount */\n      dup2\n        /* \"ERC20.sol\":2850:2859  balanceOf */\n      0x03\n        /* \"ERC20.sol\":2850:2871  balanceOf[msg.sender] */\n      0x00\n        /* \"ERC20.sol\":2860:2870  msg.sender */\n      caller\n        /* \"ERC20.sol\":2850:2871  balanceOf[msg.sender] */\n      0xffffffffffffffffffffffffffffffffffffffff\n      and\n      0xffffffffffffffffffffffffffffffffffffffff\n      and\n      dup2\n      mstore\n      0x20\n      add\n      swap1\n      dup2\n      mstore\n      0x20\n      add\n      0x00\n      keccak256\n      0x00\n        /* \"ERC20.sol\":2850:2881  balanceOf[msg.sender] -= amount */\n      dup3\n      dup3\n      sload\n      tag_316\n      swap2\n      swap1\n      tag_247\n      jump\t// in\n    tag_316:\n      swap3\n      pop\n      pop\n      dup2\n      swap1\n      sstore\n      pop\n        /* \"ERC20.sol\":3044:3050  amount */\n      dup2\n        /* \"ERC20.sol\":3027:3036  balanceOf */\n      0x03\n        /* \"ERC20.sol\":3027:3040  balanceOf[to] */\n      0x00\n        /* \"ERC20.sol\":3037:3039  to */\n      dup6\n        /* \"ERC20.sol\":3027:3040  balanceOf[to] */\n      0xffffffffffffffffffffffffffffffffffffffff\n      and\n      0xffffffffffffffffffffffffffffffffffffffff\n      and\n      dup2\n      mstore\n      0x20\n      add\n      swap1\n      dup2\n      mstore\n      0x20\n      add\n      0x00\n      keccak256\n      0x00\n        /* \"ERC20.sol\":3027:3050  balanceOf[to] += amount */\n      dup3\n      dup3\n      sload\n      add\n      swap3\n      pop\n      pop\n      dup2\n      swap1\n      sstore\n      pop\n        /* \"ERC20.sol\":3097:3099  to */\n      dup3\n        /* \"ERC20.sol\":3076:3108  Transfer(msg.sender, to, amount) */\n      0xffffffffffffffffffffffffffffffffffffffff\n      and\n        /* \"ERC20.sol\":3085:3095  msg.sender */\n      caller\n        /* \"ERC20.sol\":3076:3108  Transfer(msg.sender, to, amount) */\n      0xffffffffffffffffffffffffffffffffffffffff\n      and\n      0xddf252ad1be2c89b69c2b068fc378daa952ba7f163c4a11628f55a4df523b3ef\n        /* \"ERC20.sol\":3101:3107  amount */\n      dup5\n        /* \"ERC20.sol\":3076:3108  Transfer(msg.sender, to, amount) */\n      mload(0x40)\n      tag_317\n      swap2\n      swap1\n      tag_56\n      jump\t// in\n    tag_317:\n      mload(0x40)\n      dup1\n      swap2\n      sub\n      swap1\n      log3\n        /* \"ERC20.sol\":3126:3130  true */\n      0x01\n        /* \"ERC20.sol\":3119:3130  return true */\n      swap1\n      pop\n        /* \"ERC20.sol\":2736:3137  function transfer(address to, uint256 amount)... */\n      swap3\n      swap2\n      pop\n      pop\n      jump\t// out\n        /* \"SquiddyCore.sol\":4130:4378  function claimFees(uint256 sVTokenAmount) external onlyManager {... */\n    tag_153:\n        /* \"SquiddyCore.sol\":1532:1542  msg.sender */\n      caller\n        /* \"SquiddyCore.sol\":1519:1542  manager() == msg.sender */\n      0xffffffffffffffffffffffffffffffffffffffff\n      and\n        /* \"SquiddyCore.sol\":1519:1528  manager() */\n      tag_319\n        /* \"SquiddyCore.sol\":1519:1526  manager */\n      tag_112\n        /* \"SquiddyCore.sol\":1519:1528  manager() */\n      jump\t// in\n    tag_319:\n        /* \"SquiddyCore.sol\":1519:1542  manager() == msg.sender */\n      0xffffffffffffffffffffffffffffffffffffffff\n      and\n      eq\n        /* \"SquiddyCore.sol\":1511:1581  require(manager() == msg.sender, \"Ownable: caller is not the manager\") */\n      tag_320\n      jumpi\n      mload(0x40)\n      0x08c379a000000000000000000000000000000000000000000000000000000000\n      dup2\n      mstore\n      0x04\n      add\n      tag_321\n      swap1\n      tag_254\n      jump\t// in\n    tag_321:\n      mload(0x40)\n      dup1\n      swap2\n      sub\n      swap1\n      revert\n    tag_320:\n        /* \"SquiddyCore.sol\":4220:4230  msg.sender */\n      caller\n        /* \"SquiddyCore.sol\":4208:4246  FeesClaimed(msg.sender, sVTokenAmount) */\n      0xffffffffffffffffffffffffffffffffffffffff\n      and\n      0x9493e5bbe4e8e0ac67284469a2d677403d0378a85a59e341d3abc433d0d9a209\n        /* \"SquiddyCore.sol\":4232:4245  sVTokenAmount */\n      dup3\n        /* \"SquiddyCore.sol\":4208:4246  FeesClaimed(msg.sender, sVTokenAmount) */\n      mload(0x40)\n      tag_323\n      swap2\n      swap1\n      tag_56\n      jump\t// in\n    tag_323:\n      mload(0x40)\n      dup1\n      swap2\n      sub\n      swap1\n      log2\n        /* \"SquiddyCore.sol\":4330:4334  this */\n      address\n        /* \"SquiddyCore.sol\":4324:4344  ERC20(this).transfer */\n      0xffffffffffffffffffffffffffffffffffffffff\n      and\n      0xa9059cbb\n        /* \"SquiddyCore.sol\":4345:4355  msg.sender */\n      caller\n        /* \"SquiddyCore.sol\":4357:4370  sVTokenAmount */\n      dup4\n        /* \"SquiddyCore.sol\":4324:4371  ERC20(this).transfer(msg.sender, sVTokenAmount) */\n      mload(0x40)\n      dup4\n      0xffffffff\n      and\n      0xe0\n      shl\n      dup2\n      mstore\n      0x04\n      add\n      tag_324\n      swap3\n      swap2\n      swap1\n      tag_325\n      jump\t// in\n    tag_324:\n      0x20\n      mload(0x40)\n      dup1\n      dup4\n      sub\n      dup2\n      0x00\n      dup8\n      dup1\n      extcodesize\n      iszero\n      dup1\n      iszero\n      tag_326\n      jumpi\n      0x00\n      dup1\n      revert\n    tag_326:\n      pop\n      gas\n      call\n      iszero\n      dup1\n      iszero\n      tag_328\n      jumpi\n      returndatasize\n      0x00\n      dup1\n      returndatacopy\n      revert(0x00, returndatasize)\n    tag_328:\n      pop\n      pop\n      pop\n      pop\n      mload(0x40)\n      returndatasize\n      not(0x1f)\n      0x1f\n      dup3\n      add\n      and\n      dup3\n      add\n      dup1\n      0x40\n      mstore\n      pop\n      dup2\n      add\n      swap1\n      tag_329\n      swap2\n      swap1\n      tag_330\n      jump\t// in\n    tag_329:\n      pop\n        /* \"SquiddyCore.sol\":4130:4378  function claimFees(uint256 sVTokenAmount) external onlyManager {... */\n      pop\n      jump\t// out\n        /* \"ERC4626.sol\":5086:5337  function previewMint(uint256 shares) public view virtual returns (uint256) {... */\n    tag_156:\n        /* \"ERC4626.sol\":5152:5159  uint256 */\n      0x00\n        /* \"ERC4626.sol\":5171:5185  uint256 supply */\n      dup1\n        /* \"ERC4626.sol\":5188:5199  totalSupply */\n      sload(0x02)\n        /* \"ERC4626.sol\":5171:5199  uint256 supply = totalSupply */\n      swap1\n      pop\n        /* \"ERC4626.sol\":5279:5280  0 */\n      0x00\n        /* \"ERC4626.sol\":5269:5275  supply */\n      dup2\n        /* \"ERC4626.sol\":5269:5280  supply == 0 */\n      eq\n        /* \"ERC4626.sol\":5269:5330  supply == 0 ? shares : shares.mulDivUp(totalAssets(), supply) */\n      tag_332\n      jumpi\n        /* \"ERC4626.sol\":5292:5330  shares.mulDivUp(totalAssets(), supply) */\n      tag_333\n        /* \"ERC4626.sol\":5308:5321  totalAssets() */\n      tag_334\n        /* \"ERC4626.sol\":5308:5319  totalAssets */\n      tag_54\n        /* \"ERC4626.sol\":5308:5321  totalAssets() */\n      jump\t// in\n    tag_334:\n        /* \"ERC4626.sol\":5323:5329  supply */\n      dup3\n        /* \"ERC4626.sol\":5292:5298  shares */\n      dup6\n        /* \"ERC4626.sol\":5292:5307  shares.mulDivUp */\n      tag_242\n      swap1\n        /* \"ERC4626.sol\":5292:5330  shares.mulDivUp(totalAssets(), supply) */\n      swap3\n      swap2\n      swap1\n      0xffffffff\n      and\n      jump\t// in\n    tag_333:\n        /* \"ERC4626.sol\":5269:5330  supply == 0 ? shares : shares.mulDivUp(totalAssets(), supply) */\n      jump(tag_335)\n    tag_332:\n        /* \"ERC4626.sol\":5283:5289  shares */\n      dup3\n        /* \"ERC4626.sol\":5269:5330  supply == 0 ? shares : shares.mulDivUp(totalAssets(), supply) */\n    tag_335:\n        /* \"ERC4626.sol\":5262:5330  return supply == 0 ? shares : shares.mulDivUp(totalAssets(), supply) */\n      swap2\n      pop\n      pop\n        /* \"ERC4626.sol\":5086:5337  function previewMint(uint256 shares) public view virtual returns (uint256) {... */\n      swap2\n      swap1\n      pop\n      jump\t// out\n        /* \"ERC4626.sol\":2634:3329  function withdraw(... */\n    tag_161:\n        /* \"ERC4626.sol\":2755:2769  uint256 shares */\n      0x00\n        /* \"ERC4626.sol\":2790:2813  previewWithdraw(assets) */\n      tag_337\n        /* \"ERC4626.sol\":2806:2812  assets */\n      dup5\n        /* \"ERC4626.sol\":2790:2805  previewWithdraw */\n      tag_74\n        /* \"ERC4626.sol\":2790:2813  previewWithdraw(assets) */\n      jump\t// in\n    tag_337:\n        /* \"ERC4626.sol\":2781:2813  shares = previewWithdraw(assets) */\n      swap1\n      pop\n        /* \"ERC4626.sol\":2909:2914  owner */\n      dup2\n        /* \"ERC4626.sol\":2895:2914  msg.sender != owner */\n      0xffffffffffffffffffffffffffffffffffffffff\n      and\n        /* \"ERC4626.sol\":2895:2905  msg.sender */\n      caller\n        /* \"ERC4626.sol\":2895:2914  msg.sender != owner */\n      0xffffffffffffffffffffffffffffffffffffffff\n      and\n      eq\n        /* \"ERC4626.sol\":2891:3135  if (msg.sender != owner) {... */\n      tag_338\n      jumpi\n        /* \"ERC4626.sol\":2930:2945  uint256 allowed */\n      0x00\n        /* \"ERC4626.sol\":2948:2957  allowance */\n      0x04\n        /* \"ERC4626.sol\":2948:2964  allowance[owner] */\n      0x00\n        /* \"ERC4626.sol\":2958:2963  owner */\n      dup5\n        /* \"ERC4626.sol\":2948:2964  allowance[owner] */\n      0xffffffffffffffffffffffffffffffffffffffff\n      and\n      0xffffffffffffffffffffffffffffffffffffffff\n      and\n      dup2\n      mstore\n      0x20\n      add\n      swap1\n      dup2\n      mstore\n      0x20\n      add\n      0x00\n      keccak256\n        /* \"ERC4626.sol\":2948:2976  allowance[owner][msg.sender] */\n      0x00\n        /* \"ERC4626.sol\":2965:2975  msg.sender */\n      caller\n        /* \"ERC4626.sol\":2948:2976  allowance[owner][msg.sender] */\n      0xffffffffffffffffffffffffffffffffffffffff\n      and\n      0xffffffffffffffffffffffffffffffffffffffff\n      and\n      dup2\n      mstore\n      0x20\n      add\n      swap1\n      dup2\n      mstore\n      0x20\n      add\n      0x00\n      keccak256\n      sload\n        /* \"ERC4626.sol\":2930:2976  uint256 allowed = allowance[owner][msg.sender] */\n      swap1\n      pop\n        /* \"ERC4626.sol\":3042:3059  type(uint256).max */\n      0xffffffffffffffffffffffffffffffffffffffffffffffffffffffffffffffff\n        /* \"ERC4626.sol\":3031:3038  allowed */\n      dup2\n        /* \"ERC4626.sol\":3031:3059  allowed != type(uint256).max */\n      eq\n        /* \"ERC4626.sol\":3027:3124  if (allowed != type(uint256).max)... */\n      tag_339\n      jumpi\n        /* \"ERC4626.sol\":3118:3124  shares */\n      dup2\n        /* \"ERC4626.sol\":3108:3115  allowed */\n      dup2\n        /* \"ERC4626.sol\":3108:3124  allowed - shares */\n      tag_340\n      swap2\n      swap1\n      tag_247\n      jump\t// in\n    tag_340:\n        /* \"ERC4626.sol\":3077:3086  allowance */\n      0x04\n        /* \"ERC4626.sol\":3077:3093  allowance[owner] */\n      0x00\n        /* \"ERC4626.sol\":3087:3092  owner */\n      dup6\n        /* \"ERC4626.sol\":3077:3093  allowance[owner] */\n      0xffffffffffffffffffffffffffffffffffffffff\n      and\n      0xffffffffffffffffffffffffffffffffffffffff\n      and\n      dup2\n      mstore\n      0x20\n      add\n      swap1\n      dup2\n      mstore\n      0x20\n      add\n      0x00\n      keccak256\n        /* \"ERC4626.sol\":3077:3105  allowance[owner][msg.sender] */\n      0x00\n        /* \"ERC4626.sol\":3094:3104  msg.sender */\n      caller\n        /* \"ERC4626.sol\":3077:3105  allowance[owner][msg.sender] */\n      0xffffffffffffffffffffffffffffffffffffffff\n      and\n      0xffffffffffffffffffffffffffffffffffffffff\n      and\n      dup2\n      mstore\n      0x20\n      add\n      swap1\n      dup2\n      mstore\n      0x20\n      add\n      0x00\n      keccak256\n        /* \"ERC4626.sol\":3077:3124  allowance[owner][msg.sender] = allowed - shares */\n      dup2\n      swap1\n      sstore\n      pop\n        /* \"ERC4626.sol\":3027:3124  if (allowed != type(uint256).max)... */\n    tag_339:\n        /* \"ERC4626.sol\":2916:3135  {... */\n      pop\n        /* \"ERC4626.sol\":2891:3135  if (msg.sender != owner) {... */\n    tag_338:\n        /* \"ERC4626.sol\":3145:3175  beforeWithdraw(assets, shares) */\n      tag_341\n        /* \"ERC4626.sol\":3160:3166  assets */\n      dup5\n        /* \"ERC4626.sol\":3168:3174  shares */\n      dup3\n        /* \"ERC4626.sol\":3145:3159  beforeWithdraw */\n      tag_342\n        /* \"ERC4626.sol\":3145:3175  beforeWithdraw(assets, shares) */\n      jump\t// in\n    tag_341:\n        /* \"ERC4626.sol\":3186:3206  _burn(owner, shares) */\n      tag_343\n        /* \"ERC4626.sol\":3192:3197  owner */\n      dup3\n        /* \"ERC4626.sol\":3199:3205  shares */\n      dup3\n        /* \"ERC4626.sol\":3186:3191  _burn */\n      tag_344\n        /* \"ERC4626.sol\":3186:3206  _burn(owner, shares) */\n      jump\t// in\n    tag_343:\n        /* \"ERC4626.sol\":3253:3258  owner */\n      dup2\n        /* \"ERC4626.sol\":3222:3275  Withdraw(msg.sender, receiver, owner, assets, shares) */\n      0xffffffffffffffffffffffffffffffffffffffff\n      and\n        /* \"ERC4626.sol\":3243:3251  receiver */\n      dup4\n        /* \"ERC4626.sol\":3222:3275  Withdraw(msg.sender, receiver, owner, assets, shares) */\n      0xffffffffffffffffffffffffffffffffffffffff\n      and\n        /* \"ERC4626.sol\":3231:3241  msg.sender */\n      caller\n        /* \"ERC4626.sol\":3222:3275  Withdraw(msg.sender, receiver, owner, assets, shares) */\n      0xffffffffffffffffffffffffffffffffffffffff\n      and\n      0xfbde797d201c681b91056529119e0b02407c7bb96a4a2c75c01fc9667232c8db\n        /* \"ERC4626.sol\":3260:3266  assets */\n      dup8\n        /* \"ERC4626.sol\":3268:3274  shares */\n      dup6\n        /* \"ERC4626.sol\":3222:3275  Withdraw(msg.sender, receiver, owner, assets, shares) */\n      mload(0x40)\n      tag_345\n      swap3\n      swap2\n      swap1\n      tag_287\n      jump\t// in\n    tag_345:\n      mload(0x40)\n      dup1\n      swap2\n      sub\n      swap1\n      log4\n        /* \"ERC4626.sol\":3286:3322  asset.safeTransfer(receiver, assets) */\n      tag_346\n        /* \"ERC4626.sol\":3305:3313  receiver */\n      dup4\n        /* \"ERC4626.sol\":3315:3321  assets */\n      dup6\n        /* \"ERC4626.sol\":3286:3291  asset */\n      immutable(\"0xccaa62ece624b7c19179efe70bca6831b45dba36fd4251e9dcb4c8e2db68cc27\")\n        /* \"ERC4626.sol\":3286:3304  asset.safeTransfer */\n      0xffffffffffffffffffffffffffffffffffffffff\n      and\n      tag_347\n      swap1\n        /* \"ERC4626.sol\":3286:3322  asset.safeTransfer(receiver, assets) */\n      swap3\n      swap2\n      swap1\n      0xffffffff\n      and\n      jump\t// in\n    tag_346:\n        /* \"ERC4626.sol\":2634:3329  function withdraw(... */\n      swap4\n      swap3\n      pop\n      pop\n      pop\n      jump\t// out\n        /* \"ERC4626.sol\":3335:4064  function redeem(... */\n    tag_165:\n        /* \"ERC4626.sol\":3454:3468  uint256 assets */\n      0x00\n        /* \"ERC4626.sol\":3498:3503  owner */\n      dup2\n        /* \"ERC4626.sol\":3484:3503  msg.sender != owner */\n      0xffffffffffffffffffffffffffffffffffffffff\n      and\n        /* \"ERC4626.sol\":3484:3494  msg.sender */\n      caller\n        /* \"ERC4626.sol\":3484:3503  msg.sender != owner */\n      0xffffffffffffffffffffffffffffffffffffffff\n      and\n      eq\n        /* \"ERC4626.sol\":3480:3724  if (msg.sender != owner) {... */\n      tag_349\n      jumpi\n        /* \"ERC4626.sol\":3519:3534  uint256 allowed */\n      0x00\n        /* \"ERC4626.sol\":3537:3546  allowance */\n      0x04\n        /* \"ERC4626.sol\":3537:3553  allowance[owner] */\n      0x00\n        /* \"ERC4626.sol\":3547:3552  owner */\n      dup5\n        /* \"ERC4626.sol\":3537:3553  allowance[owner] */\n      0xffffffffffffffffffffffffffffffffffffffff\n      and\n      0xffffffffffffffffffffffffffffffffffffffff\n      and\n      dup2\n      mstore\n      0x20\n      add\n      swap1\n      dup2\n      mstore\n      0x20\n      add\n      0x00\n      keccak256\n        /* \"ERC4626.sol\":3537:3565  allowance[owner][msg.sender] */\n      0x00\n        /* \"ERC4626.sol\":3554:3564  msg.sender */\n      caller\n        /* \"ERC4626.sol\":3537:3565  allowance[owner][msg.sender] */\n      0xffffffffffffffffffffffffffffffffffffffff\n      and\n      0xffffffffffffffffffffffffffffffffffffffff\n      and\n      dup2\n      mstore\n      0x20\n      add\n      swap1\n      dup2\n      mstore\n      0x20\n      add\n      0x00\n      keccak256\n      sload\n        /* \"ERC4626.sol\":3519:3565  uint256 allowed = allowance[owner][msg.sender] */\n      swap1\n      pop\n        /* \"ERC4626.sol\":3631:3648  type(uint256).max */\n      0xffffffffffffffffffffffffffffffffffffffffffffffffffffffffffffffff\n        /* \"ERC4626.sol\":3620:3627  allowed */\n      dup2\n        /* \"ERC4626.sol\":3620:3648  allowed != type(uint256).max */\n      eq\n        /* \"ERC4626.sol\":3616:3713  if (allowed != type(uint256).max)... */\n      tag_350\n      jumpi\n        /* \"ERC4626.sol\":3707:3713  shares */\n      dup5\n        /* \"ERC4626.sol\":3697:3704  allowed */\n      dup2\n        /* \"ERC4626.sol\":3697:3713  allowed - shares */\n      tag_351\n      swap2\n      swap1\n      tag_247\n      jump\t// in\n    tag_351:\n        /* \"ERC4626.sol\":3666:3675  allowance */\n      0x04\n        /* \"ERC4626.sol\":3666:3682  allowance[owner] */\n      0x00\n        /* \"ERC4626.sol\":3676:3681  owner */\n      dup6\n        /* \"ERC4626.sol\":3666:3682  allowance[owner] */\n      0xffffffffffffffffffffffffffffffffffffffff\n      and\n      0xffffffffffffffffffffffffffffffffffffffff\n      and\n      dup2\n      mstore\n      0x20\n      add\n      swap1\n      dup2\n      mstore\n      0x20\n      add\n      0x00\n      keccak256\n        /* \"ERC4626.sol\":3666:3694  allowance[owner][msg.sender] */\n      0x00\n        /* \"ERC4626.sol\":3683:3693  msg.sender */\n      caller\n        /* \"ERC4626.sol\":3666:3694  allowance[owner][msg.sender] */\n      0xffffffffffffffffffffffffffffffffffffffff\n      and\n      0xffffffffffffffffffffffffffffffffffffffff\n      and\n      dup2\n      mstore\n      0x20\n      add\n      swap1\n      dup2\n      mstore\n      0x20\n      add\n      0x00\n      keccak256\n        /* \"ERC4626.sol\":3666:3713  allowance[owner][msg.sender] = allowed - shares */\n      dup2\n      swap1\n      sstore\n      pop\n        /* \"ERC4626.sol\":3616:3713  if (allowed != type(uint256).max)... */\n    tag_350:\n        /* \"ERC4626.sol\":3505:3724  {... */\n      pop\n        /* \"ERC4626.sol\":3480:3724  if (msg.sender != owner) {... */\n    tag_349:\n        /* \"ERC4626.sol\":3852:3853  0 */\n      0x00\n        /* \"ERC4626.sol\":3826:3847  previewRedeem(shares) */\n      tag_352\n        /* \"ERC4626.sol\":3840:3846  shares */\n      dup6\n        /* \"ERC4626.sol\":3826:3839  previewRedeem */\n      tag_117\n        /* \"ERC4626.sol\":3826:3847  previewRedeem(shares) */\n      jump\t// in\n    tag_352:\n        /* \"ERC4626.sol\":3817:3847  assets = previewRedeem(shares) */\n      swap2\n      pop\n      dup2\n        /* \"ERC4626.sol\":3816:3853  (assets = previewRedeem(shares)) != 0 */\n      eq\n      iszero\n        /* \"ERC4626.sol\":3808:3869  require((assets = previewRedeem(shares)) != 0, \"ZERO_ASSETS\") */\n      tag_353\n      jumpi\n      mload(0x40)\n      0x08c379a000000000000000000000000000000000000000000000000000000000\n      dup2\n      mstore\n      0x04\n      add\n      tag_354\n      swap1\n      tag_355\n      jump\t// in\n    tag_354:\n      mload(0x40)\n      dup1\n      swap2\n      sub\n      swap1\n      revert\n    tag_353:\n        /* \"ERC4626.sol\":3880:3910  beforeWithdraw(assets, shares) */\n      tag_356\n        /* \"ERC4626.sol\":3895:3901  assets */\n      dup2\n        /* \"ERC4626.sol\":3903:3909  shares */\n      dup6\n        /* \"ERC4626.sol\":3880:3894  beforeWithdraw */\n      tag_342\n        /* \"ERC4626.sol\":3880:3910  beforeWithdraw(assets, shares) */\n      jump\t// in\n    tag_356:\n        /* \"ERC4626.sol\":3921:3941  _burn(owner, shares) */\n      tag_357\n        /* \"ERC4626.sol\":3927:3932  owner */\n      dup3\n        /* \"ERC4626.sol\":3934:3940  shares */\n      dup6\n        /* \"ERC4626.sol\":3921:3926  _burn */\n      tag_344\n        /* \"ERC4626.sol\":3921:3941  _burn(owner, shares) */\n      jump\t// in\n    tag_357:\n        /* \"ERC4626.sol\":3988:3993  owner */\n      dup2\n        /* \"ERC4626.sol\":3957:4010  Withdraw(msg.sender, receiver, owner, assets, shares) */\n      0xffffffffffffffffffffffffffffffffffffffff\n      and\n        /* \"ERC4626.sol\":3978:3986  receiver */\n      dup4\n        /* \"ERC4626.sol\":3957:4010  Withdraw(msg.sender, receiver, owner, assets, shares) */\n      0xffffffffffffffffffffffffffffffffffffffff\n      and\n        /* \"ERC4626.sol\":3966:3976  msg.sender */\n      caller\n        /* \"ERC4626.sol\":3957:4010  Withdraw(msg.sender, receiver, owner, assets, shares) */\n      0xffffffffffffffffffffffffffffffffffffffff\n      and\n      0xfbde797d201c681b91056529119e0b02407c7bb96a4a2c75c01fc9667232c8db\n        /* \"ERC4626.sol\":3995:4001  assets */\n      dup5\n        /* \"ERC4626.sol\":4003:4009  shares */\n      dup9\n        /* \"ERC4626.sol\":3957:4010  Withdraw(msg.sender, receiver, owner, assets, shares) */\n      mload(0x40)\n      tag_358\n      swap3\n      swap2\n      swap1\n      tag_287\n      jump\t// in\n    tag_358:\n      mload(0x40)\n      dup1\n      swap2\n      sub\n      swap1\n      log4\n        /* \"ERC4626.sol\":4021:4057  asset.safeTransfer(receiver, assets) */\n      tag_359\n        /* \"ERC4626.sol\":4040:4048  receiver */\n      dup4\n        /* \"ERC4626.sol\":4050:4056  assets */\n      dup3\n        /* \"ERC4626.sol\":4021:4026  asset */\n      immutable(\"0xccaa62ece624b7c19179efe70bca6831b45dba36fd4251e9dcb4c8e2db68cc27\")\n        /* \"ERC4626.sol\":4021:4039  asset.safeTransfer */\n      0xffffffffffffffffffffffffffffffffffffffff\n      and\n      tag_347\n      swap1\n        /* \"ERC4626.sol\":4021:4057  asset.safeTransfer(receiver, assets) */\n      swap3\n      swap2\n      swap1\n      0xffffffff\n      and\n      jump\t// in\n    tag_359:\n        /* \"ERC4626.sol\":3335:4064  function redeem(... */\n      swap4\n      swap3\n      pop\n      pop\n      pop\n      jump\t// out\n        /* \"SquiddyCore.sol\":254:304  uint256 public beforeWithdrawHookCalledCounter = 0 */\n    tag_168:\n      sload(0x07)\n      dup2\n      jump\t// out\n        /* \"SquiddyCore.sol\":4879:5299  function setTargetFloatPercent(uint256 newTargetFloatPercent)... */\n    tag_172:\n        /* \"SquiddyCore.sol\":1532:1542  msg.sender */\n      caller\n        /* \"SquiddyCore.sol\":1519:1542  manager() == msg.sender */\n      0xffffffffffffffffffffffffffffffffffffffff\n      and\n        /* \"SquiddyCore.sol\":1519:1528  manager() */\n      tag_361\n        /* \"SquiddyCore.sol\":1519:1526  manager */\n      tag_112\n        /* \"SquiddyCore.sol\":1519:1528  manager() */\n      jump\t// in\n    tag_361:\n        /* \"SquiddyCore.sol\":1519:1542  manager() == msg.sender */\n      0xffffffffffffffffffffffffffffffffffffffff\n      and\n      eq\n        /* \"SquiddyCore.sol\":1511:1581  require(manager() == msg.sender, \"Ownable: caller is not the manager\") */\n      tag_362\n      jumpi\n      mload(0x40)\n      0x08c379a000000000000000000000000000000000000000000000000000000000\n      dup2\n      mstore\n      0x04\n      add\n      tag_363\n      swap1\n      tag_254\n      jump\t// in\n    tag_363:\n      mload(0x40)\n      dup1\n      swap2\n      sub\n      swap1\n      revert\n    tag_362:\n        /* \"SquiddyCore.sol\":5092:5096  1e18 */\n      0x0de0b6b3a7640000\n        /* \"SquiddyCore.sol\":5067:5088  newTargetFloatPercent */\n      dup2\n        /* \"SquiddyCore.sol\":5067:5096  newTargetFloatPercent <= 1e18 */\n      gt\n      iszero\n        /* \"SquiddyCore.sol\":5059:5116  require(newTargetFloatPercent <= 1e18, \"TARGET_TOO_HIGH\") */\n      tag_365\n      jumpi\n      mload(0x40)\n      0x08c379a000000000000000000000000000000000000000000000000000000000\n      dup2\n      mstore\n      0x04\n      add\n      tag_366\n      swap1\n      tag_367\n      jump\t// in\n    tag_366:\n      mload(0x40)\n      dup1\n      swap2\n      sub\n      swap1\n      revert\n    tag_365:\n        /* \"SquiddyCore.sol\":5195:5216  newTargetFloatPercent */\n      dup1\n        /* \"SquiddyCore.sol\":5174:5192  targetFloatPercent */\n      0x0a\n        /* \"SquiddyCore.sol\":5174:5216  targetFloatPercent = newTargetFloatPercent */\n      dup2\n      swap1\n      sstore\n      pop\n        /* \"SquiddyCore.sol\":5258:5268  msg.sender */\n      caller\n        /* \"SquiddyCore.sol\":5232:5292  TargetFloatPercentUpdated(msg.sender, newTargetFloatPercent) */\n      0xffffffffffffffffffffffffffffffffffffffff\n      and\n      0x95bc4480b51f4860106d42850bcae222cf3303fb2b7d433e896205e0ebefe369\n        /* \"SquiddyCore.sol\":5270:5291  newTargetFloatPercent */\n      dup3\n        /* \"SquiddyCore.sol\":5232:5292  TargetFloatPercentUpdated(msg.sender, newTargetFloatPercent) */\n      mload(0x40)\n      tag_368\n      swap2\n      swap1\n      tag_56\n      jump\t// in\n    tag_368:\n      mload(0x40)\n      dup1\n      swap2\n      sub\n      swap1\n      log2\n        /* \"SquiddyCore.sol\":4879:5299  function setTargetFloatPercent(uint256 newTargetFloatPercent)... */\n      pop\n      jump\t// out\n        /* \"SquiddyCore.sol\":406:439  ERC20 public immutable UNDERLYING */\n    tag_174:\n      immutable(\"0x92a41d55cbdb211ce00f83c8eb2d05bc8d83f7306d48f28113ee4353d4c63ac8\")\n      dup2\n      jump\t// out\n        /* \"ERC4626.sol\":6111:6216  function maxMint(address) public view virtual returns (uint256) {... */\n    tag_178:\n        /* \"ERC4626.sol\":6166:6173  uint256 */\n      0x00\n        /* \"ERC4626.sol\":6192:6209  type(uint256).max */\n      0xffffffffffffffffffffffffffffffffffffffffffffffffffffffffffffffff\n        /* \"ERC4626.sol\":6185:6209  return type(uint256).max */\n      swap1\n      pop\n        /* \"ERC4626.sol\":6111:6216  function maxMint(address) public view virtual returns (uint256) {... */\n      swap2\n      swap1\n      pop\n      jump\t// out\n        /* \"ERC4626.sol\":4321:4614  function convertToShares(uint256 assets)... */\n    tag_182:\n        /* \"ERC4626.sol\":4423:4430  uint256 */\n      0x00\n        /* \"ERC4626.sol\":4446:4460  uint256 supply */\n      dup1\n        /* \"ERC4626.sol\":4463:4474  totalSupply */\n      sload(0x02)\n        /* \"ERC4626.sol\":4446:4474  uint256 supply = totalSupply */\n      swap1\n      pop\n        /* \"ERC4626.sol\":4554:4555  0 */\n      0x00\n        /* \"ERC4626.sol\":4544:4550  supply */\n      dup2\n        /* \"ERC4626.sol\":4544:4555  supply == 0 */\n      eq\n        /* \"ERC4626.sol\":4544:4607  supply == 0 ? assets : assets.mulDivDown(supply, totalAssets()) */\n      tag_371\n      jumpi\n        /* \"ERC4626.sol\":4567:4607  assets.mulDivDown(supply, totalAssets()) */\n      tag_372\n        /* \"ERC4626.sol\":4585:4591  supply */\n      dup2\n        /* \"ERC4626.sol\":4593:4606  totalAssets() */\n      tag_373\n        /* \"ERC4626.sol\":4593:4604  totalAssets */\n      tag_54\n        /* \"ERC4626.sol\":4593:4606  totalAssets() */\n      jump\t// in\n    tag_373:\n        /* \"ERC4626.sol\":4567:4573  assets */\n      dup6\n        /* \"ERC4626.sol\":4567:4584  assets.mulDivDown */\n      tag_234\n      swap1\n        /* \"ERC4626.sol\":4567:4607  assets.mulDivDown(supply, totalAssets()) */\n      swap3\n      swap2\n      swap1\n      0xffffffff\n      and\n      jump\t// in\n    tag_372:\n        /* \"ERC4626.sol\":4544:4607  supply == 0 ? assets : assets.mulDivDown(supply, totalAssets()) */\n      jump(tag_374)\n    tag_371:\n        /* \"ERC4626.sol\":4558:4564  assets */\n      dup3\n        /* \"ERC4626.sol\":4544:4607  supply == 0 ? assets : assets.mulDivDown(supply, totalAssets()) */\n    tag_374:\n        /* \"ERC4626.sol\":4537:4607  return supply == 0 ? assets : assets.mulDivDown(supply, totalAssets()) */\n      swap2\n      pop\n      pop\n        /* \"ERC4626.sol\":4321:4614  function convertToShares(uint256 assets)... */\n      swap2\n      swap1\n      pop\n      jump\t// out\n        /* \"ERC4626.sol\":6222:6353  function maxWithdraw(address owner) public view virtual returns (uint256) {... */\n    tag_186:\n        /* \"ERC4626.sol\":6287:6294  uint256 */\n      0x00\n        /* \"ERC4626.sol\":6313:6346  convertToAssets(balanceOf[owner]) */\n      tag_376\n        /* \"ERC4626.sol\":6329:6338  balanceOf */\n      0x03\n        /* \"ERC4626.sol\":6329:6345  balanceOf[owner] */\n      0x00\n        /* \"ERC4626.sol\":6339:6344  owner */\n      dup5\n        /* \"ERC4626.sol\":6329:6345  balanceOf[owner] */\n      0xffffffffffffffffffffffffffffffffffffffff\n      and\n      0xffffffffffffffffffffffffffffffffffffffff\n      and\n      dup2\n      mstore\n      0x20\n      add\n      swap1\n      dup2\n      mstore\n      0x20\n      add\n      0x00\n      keccak256\n      sload\n        /* \"ERC4626.sol\":6313:6328  convertToAssets */\n      tag_64\n        /* \"ERC4626.sol\":6313:6346  convertToAssets(balanceOf[owner]) */\n      jump\t// in\n    tag_376:\n        /* \"ERC4626.sol\":6306:6346  return convertToAssets(balanceOf[owner]) */\n      swap1\n      pop\n        /* \"ERC4626.sol\":6222:6353  function maxWithdraw(address owner) public view virtual returns (uint256) {... */\n      swap2\n      swap1\n      pop\n      jump\t// out\n        /* \"ERC20.sol\":3936:5465  function permit(... */\n    tag_191:\n        /* \"ERC20.sol\":4155:4170  block.timestamp */\n      timestamp\n        /* \"ERC20.sol\":4143:4151  deadline */\n      dup5\n        /* \"ERC20.sol\":4143:4170  deadline >= block.timestamp */\n      lt\n      iszero\n        /* \"ERC20.sol\":4135:4198  require(deadline >= block.timestamp, \"PERMIT_DEADLINE_EXPIRED\") */\n      tag_378\n      jumpi\n      mload(0x40)\n      0x08c379a000000000000000000000000000000000000000000000000000000000\n      dup2\n      mstore\n      0x04\n      add\n      tag_379\n      swap1\n      tag_380\n      jump\t// in\n    tag_379:\n      mload(0x40)\n      dup1\n      swap2\n      sub\n      swap1\n      revert\n    tag_378:\n        /* \"ERC20.sol\":4363:4387  address recoveredAddress */\n      0x00\n        /* \"ERC20.sol\":4390:5195  ecrecover(... */\n      0x01\n        /* \"ERC20.sol\":4526:4544  DOMAIN_SEPARATOR() */\n      tag_381\n        /* \"ERC20.sol\":4526:4542  DOMAIN_SEPARATOR */\n      tag_96\n        /* \"ERC20.sol\":4526:4544  DOMAIN_SEPARATOR() */\n      jump\t// in\n    tag_381:\n        /* \"ERC20.sol\":4653:4818  keccak256(... */\n      0x6e71edae12b1b97f4d1f60370fef10105fa2faae0126114a169c64845d6126c9\n        /* \"ERC20.sol\":4852:4857  owner */\n      dup11\n        /* \"ERC20.sol\":4891:4898  spender */\n      dup11\n        /* \"ERC20.sol\":4932:4937  value */\n      dup11\n        /* \"ERC20.sol\":4971:4977  nonces */\n      0x05\n        /* \"ERC20.sol\":4971:4984  nonces[owner] */\n      0x00\n        /* \"ERC20.sol\":4978:4983  owner */\n      dup16\n        /* \"ERC20.sol\":4971:4984  nonces[owner] */\n      0xffffffffffffffffffffffffffffffffffffffff\n      and\n      0xffffffffffffffffffffffffffffffffffffffff\n      and\n      dup2\n      mstore\n      0x20\n      add\n      swap1\n      dup2\n      mstore\n      0x20\n      add\n      0x00\n      keccak256\n      0x00\n        /* \"ERC20.sol\":4971:4986  nonces[owner]++ */\n      dup2\n      sload\n      dup1\n      swap3\n      swap2\n      swap1\n      0x01\n      add\n      swap2\n      swap1\n      pop\n      sstore\n        /* \"ERC20.sol\":5020:5028  deadline */\n      dup12\n        /* \"ERC20.sol\":4609:5058  abi.encode(... */\n      add(0x20, mload(0x40))\n      tag_382\n      swap7\n      swap6\n      swap5\n      swap4\n      swap3\n      swap2\n      swap1\n      tag_383\n      jump\t// in\n    tag_382:\n      mload(0x40)\n      0x20\n      dup2\n      dup4\n      sub\n      sub\n      dup2\n      mstore\n      swap1\n      0x40\n      mstore\n        /* \"ERC20.sol\":4570:5084  keccak256(... */\n      dup1\n      mload\n      swap1\n      0x20\n      add\n      keccak256\n        /* \"ERC20.sol\":4448:5106  abi.encodePacked(... */\n      add(0x20, mload(0x40))\n      tag_384\n      swap3\n      swap2\n      swap1\n      tag_385\n      jump\t// in\n    tag_384:\n      mload(0x40)\n      0x20\n      dup2\n      dup4\n      sub\n      sub\n      dup2\n      mstore\n      swap1\n      0x40\n      mstore\n        /* \"ERC20.sol\":4417:5124  keccak256(... */\n      dup1\n      mload\n      swap1\n      0x20\n      add\n      keccak256\n        /* \"ERC20.sol\":5142:5143  v */\n      dup6\n        /* \"ERC20.sol\":5161:5162  r */\n      dup6\n        /* \"ERC20.sol\":5180:5181  s */\n      dup6\n        /* \"ERC20.sol\":4390:5195  ecrecover(... */\n      mload(0x40)\n      0x00\n      dup2\n      mstore\n      0x20\n      add\n      0x40\n      mstore\n      mload(0x40)\n      tag_386\n      swap5\n      swap4\n      swap3\n      swap2\n      swap1\n      tag_387\n      jump\t// in\n    tag_386:\n      0x20\n      mload(0x40)\n      0x20\n      dup2\n      sub\n      swap1\n      dup1\n      dup5\n      sub\n      swap1\n      dup6\n      gas\n      staticcall\n      iszero\n      dup1\n      iszero\n      tag_389\n      jumpi\n      returndatasize\n      0x00\n      dup1\n      returndatacopy\n      revert(0x00, returndatasize)\n    tag_389:\n      pop\n      pop\n      pop\n      mload(sub(mload(0x40), 0x20))\n        /* \"ERC20.sol\":4363:5195  address recoveredAddress = ecrecover(... */\n      swap1\n      pop\n        /* \"ERC20.sol\":5263:5264  0 */\n      0x00\n        /* \"ERC20.sol\":5235:5265  recoveredAddress != address(0) */\n      0xffffffffffffffffffffffffffffffffffffffff\n      and\n        /* \"ERC20.sol\":5235:5251  recoveredAddress */\n      dup2\n        /* \"ERC20.sol\":5235:5265  recoveredAddress != address(0) */\n      0xffffffffffffffffffffffffffffffffffffffff\n      and\n      eq\n      iszero\n        /* \"ERC20.sol\":5235:5294  recoveredAddress != address(0) && recoveredAddress == owner */\n      dup1\n      iszero\n      tag_390\n      jumpi\n      pop\n        /* \"ERC20.sol\":5289:5294  owner */\n      dup8\n        /* \"ERC20.sol\":5269:5294  recoveredAddress == owner */\n      0xffffffffffffffffffffffffffffffffffffffff\n      and\n        /* \"ERC20.sol\":5269:5285  recoveredAddress */\n      dup2\n        /* \"ERC20.sol\":5269:5294  recoveredAddress == owner */\n      0xffffffffffffffffffffffffffffffffffffffff\n      and\n      eq\n        /* \"ERC20.sol\":5235:5294  recoveredAddress != address(0) && recoveredAddress == owner */\n    tag_390:\n        /* \"ERC20.sol\":5210:5342  require(... */\n      tag_391\n      jumpi\n      mload(0x40)\n      0x08c379a000000000000000000000000000000000000000000000000000000000\n      dup2\n      mstore\n      0x04\n      add\n      tag_392\n      swap1\n      tag_393\n      jump\t// in\n    tag_392:\n      mload(0x40)\n      dup1\n      swap2\n      sub\n      swap1\n      revert\n    tag_391:\n        /* \"ERC20.sol\":5396:5401  value */\n      dup6\n        /* \"ERC20.sol\":5357:5366  allowance */\n      0x04\n        /* \"ERC20.sol\":5357:5384  allowance[recoveredAddress] */\n      0x00\n        /* \"ERC20.sol\":5367:5383  recoveredAddress */\n      dup4\n        /* \"ERC20.sol\":5357:5384  allowance[recoveredAddress] */\n      0xffffffffffffffffffffffffffffffffffffffff\n      and\n      0xffffffffffffffffffffffffffffffffffffffff\n      and\n      dup2\n      mstore\n      0x20\n      add\n      swap1\n      dup2\n      mstore\n      0x20\n      add\n      0x00\n      keccak256\n        /* \"ERC20.sol\":5357:5393  allowance[recoveredAddress][spender] */\n      0x00\n        /* \"ERC20.sol\":5385:5392  spender */\n      dup10\n        /* \"ERC20.sol\":5357:5393  allowance[recoveredAddress][spender] */\n      0xffffffffffffffffffffffffffffffffffffffff\n      and\n      0xffffffffffffffffffffffffffffffffffffffff\n      and\n      dup2\n      mstore\n      0x20\n      add\n      swap1\n      dup2\n      mstore\n      0x20\n      add\n      0x00\n      keccak256\n        /* \"ERC20.sol\":5357:5401  allowance[recoveredAddress][spender] = value */\n      dup2\n      swap1\n      sstore\n      pop\n        /* \"ERC20.sol\":4339:5412  unchecked {... */\n      pop\n        /* \"ERC20.sol\":5443:5450  spender */\n      dup6\n        /* \"ERC20.sol\":5427:5458  Approval(owner, spender, value) */\n      0xffffffffffffffffffffffffffffffffffffffff\n      and\n        /* \"ERC20.sol\":5436:5441  owner */\n      dup8\n        /* \"ERC20.sol\":5427:5458  Approval(owner, spender, value) */\n      0xffffffffffffffffffffffffffffffffffffffff\n      and\n      0x8c5be1e5ebec7d5bd14f71427d1e84f3dd0314c0f7b2291e5b200ac8c7c3b925\n        /* \"ERC20.sol\":5452:5457  value */\n      dup8\n        /* \"ERC20.sol\":5427:5458  Approval(owner, spender, value) */\n      mload(0x40)\n      tag_394\n      swap2\n      swap1\n      tag_56\n      jump\t// in\n    tag_394:\n      mload(0x40)\n      dup1\n      swap2\n      sub\n      swap1\n      log3\n        /* \"ERC20.sol\":3936:5465  function permit(... */\n      pop\n      pop\n      pop\n      pop\n      pop\n      pop\n      pop\n      jump\t// out\n        /* \"ERC4626.sol\":6359:6471  function maxRedeem(address owner) public view virtual returns (uint256) {... */\n    tag_194:\n        /* \"ERC4626.sol\":6422:6429  uint256 */\n      0x00\n        /* \"ERC4626.sol\":6448:6457  balanceOf */\n      0x03\n        /* \"ERC4626.sol\":6448:6464  balanceOf[owner] */\n      0x00\n        /* \"ERC4626.sol\":6458:6463  owner */\n      dup4\n        /* \"ERC4626.sol\":6448:6464  balanceOf[owner] */\n      0xffffffffffffffffffffffffffffffffffffffff\n      and\n      0xffffffffffffffffffffffffffffffffffffffff\n      and\n      dup2\n      mstore\n      0x20\n      add\n      swap1\n      dup2\n      mstore\n      0x20\n      add\n      0x00\n      keccak256\n      sload\n        /* \"ERC4626.sol\":6441:6464  return balanceOf[owner] */\n      swap1\n      pop\n        /* \"ERC4626.sol\":6359:6471  function maxRedeem(address owner) public view virtual returns (uint256) {... */\n      swap2\n      swap1\n      pop\n      jump\t// out\n        /* \"ERC20.sol\":1418:1482  mapping(address => mapping(address => uint256)) public allowance */\n    tag_199:\n      mstore(0x20, 0x04)\n      dup2\n      0x00\n      mstore\n      mstore(0x20, keccak256(0x00, 0x40))\n      dup1\n      0x00\n      mstore\n      keccak256(0x00, 0x40)\n      0x00\n      swap2\n      pop\n      swap2\n      pop\n      pop\n      sload\n      dup2\n      jump\t// out\n        /* \"SquiddyCore.sol\":6840:6876  uint256 public totalStrategyHoldings */\n    tag_202:\n      sload(0x0c)\n      dup2\n      jump\t// out\n        /* \"ERC4626.sol\":4919:5080  function previewDeposit(uint256 assets)... */\n    tag_206:\n        /* \"ERC4626.sol\":5020:5027  uint256 */\n      0x00\n        /* \"ERC4626.sol\":5050:5073  convertToShares(assets) */\n      tag_397\n        /* \"ERC4626.sol\":5066:5072  assets */\n      dup3\n        /* \"ERC4626.sol\":5050:5065  convertToShares */\n      tag_182\n        /* \"ERC4626.sol\":5050:5073  convertToShares(assets) */\n      jump\t// in\n    tag_397:\n        /* \"ERC4626.sol\":5043:5073  return convertToShares(assets) */\n      swap1\n      pop\n        /* \"ERC4626.sol\":4919:5080  function previewDeposit(uint256 assets)... */\n      swap2\n      swap1\n      pop\n      jump\t// out\n        /* \"SquiddyCore.sol\":2839:3121  function transferOwnership(address newOwner) public virtual onlyManager {... */\n    tag_210:\n        /* \"SquiddyCore.sol\":1532:1542  msg.sender */\n      caller\n        /* \"SquiddyCore.sol\":1519:1542  manager() == msg.sender */\n      0xffffffffffffffffffffffffffffffffffffffff\n      and\n        /* \"SquiddyCore.sol\":1519:1528  manager() */\n      tag_399\n        /* \"SquiddyCore.sol\":1519:1526  manager */\n      tag_112\n        /* \"SquiddyCore.sol\":1519:1528  manager() */\n      jump\t// in\n    tag_399:\n        /* \"SquiddyCore.sol\":1519:1542  manager() == msg.sender */\n      0xffffffffffffffffffffffffffffffffffffffff\n      and\n      eq\n        /* \"SquiddyCore.sol\":1511:1581  require(manager() == msg.sender, \"Ownable: caller is not the manager\") */\n      tag_400\n      jumpi\n      mload(0x40)\n      0x08c379a000000000000000000000000000000000000000000000000000000000\n      dup2\n      mstore\n      0x04\n      add\n      tag_401\n      swap1\n      tag_254\n      jump\t// in\n    tag_401:\n      mload(0x40)\n      dup1\n      swap2\n      sub\n      swap1\n      revert\n    tag_400:\n        /* \"SquiddyCore.sol\":2962:2963  0 */\n      0x00\n        /* \"SquiddyCore.sol\":2942:2964  newOwner != address(0) */\n      0xffffffffffffffffffffffffffffffffffffffff\n      and\n        /* \"SquiddyCore.sol\":2942:2950  newOwner */\n      dup2\n        /* \"SquiddyCore.sol\":2942:2964  newOwner != address(0) */\n      0xffffffffffffffffffffffffffffffffffffffff\n      and\n      eq\n      iszero\n        /* \"SquiddyCore.sol\":2921:3030  require(... */\n      tag_403\n      jumpi\n      mload(0x40)\n      0x08c379a000000000000000000000000000000000000000000000000000000000\n      dup2\n      mstore\n      0x04\n      add\n      tag_404\n      swap1\n      tag_405\n      jump\t// in\n    tag_404:\n      mload(0x40)\n      dup1\n      swap2\n      sub\n      swap1\n      revert\n    tag_403:\n        /* \"SquiddyCore.sol\":3076:3084  newOwner */\n      dup1\n        /* \"SquiddyCore.sol\":3045:3085  OwnershipTransferred(_manager, newOwner) */\n      0xffffffffffffffffffffffffffffffffffffffff\n      and\n        /* \"SquiddyCore.sol\":3066:3074  _manager */\n      0x06\n      0x00\n      swap1\n      sload\n      swap1\n      0x0100\n      exp\n      swap1\n      div\n      0xffffffffffffffffffffffffffffffffffffffff\n      and\n        /* \"SquiddyCore.sol\":3045:3085  OwnershipTransferred(_manager, newOwner) */\n      0xffffffffffffffffffffffffffffffffffffffff\n      and\n      0x8be0079c531659141344cd1fd0a4f28419497f9722a3daafe3b4186f6b6457e0\n      mload(0x40)\n      mload(0x40)\n      dup1\n      swap2\n      sub\n      swap1\n      log3\n        /* \"SquiddyCore.sol\":3106:3114  newOwner */\n      dup1\n        /* \"SquiddyCore.sol\":3095:3103  _manager */\n      0x06\n      0x00\n        /* \"SquiddyCore.sol\":3095:3114  _manager = newOwner */\n      0x0100\n      exp\n      dup2\n      sload\n      dup2\n      0xffffffffffffffffffffffffffffffffffffffff\n      mul\n      not\n      and\n      swap1\n      dup4\n      0xffffffffffffffffffffffffffffffffffffffff\n      and\n      mul\n      or\n      swap1\n      sstore\n      pop\n        /* \"SquiddyCore.sol\":2839:3121  function transferOwnership(address newOwner) public virtual onlyManager {... */\n      pop\n      jump\t// out\n        /* \"SquiddyCore.sol\":5650:5678  bool public underlyingIsWETH */\n    tag_212:\n      0x0b\n      0x00\n      swap1\n      sload\n      swap1\n      0x0100\n      exp\n      swap1\n      div\n      0xff\n      and\n      dup2\n      jump\t// out\n        /* \"SquiddyCore.sol\":310:358  uint256 public afterDepositHookCalledCounter = 0 */\n    tag_215:\n      sload(0x08)\n      dup2\n      jump\t// out\n        /* \"FixedPointMathLib.sol\":1507:2130  function mulDivDown(... */\n    tag_234:\n        /* \"FixedPointMathLib.sol\":1623:1632  uint256 z */\n      0x00\n        /* \"FixedPointMathLib.sol\":1720:1721  y */\n      dup3\n        /* \"FixedPointMathLib.sol\":1717:1718  x */\n      dup5\n        /* \"FixedPointMathLib.sol\":1713:1722  mul(x, y) */\n      mul\n        /* \"FixedPointMathLib.sol\":1708:1722  z := mul(x, y) */\n      swap1\n      pop\n        /* \"FixedPointMathLib.sol\":1952:1953  y */\n      dup3\n        /* \"FixedPointMathLib.sol\":1948:1949  x */\n      dup5\n        /* \"FixedPointMathLib.sol\":1945:1946  z */\n      dup3\n        /* \"FixedPointMathLib.sol\":1941:1950  div(z, x) */\n      div\n        /* \"FixedPointMathLib.sol\":1938:1954  eq(div(z, x), y) */\n      eq\n        /* \"FixedPointMathLib.sol\":1934:1935  x */\n      dup5\n        /* \"FixedPointMathLib.sol\":1927:1936  iszero(x) */\n      iszero\n        /* \"FixedPointMathLib.sol\":1924:1955  or(iszero(x), eq(div(z, x), y)) */\n      or\n        /* \"FixedPointMathLib.sol\":1889:1900  denominator */\n      dup3\n        /* \"FixedPointMathLib.sol\":1882:1901  iszero(denominator) */\n      iszero\n        /* \"FixedPointMathLib.sol\":1875:1902  iszero(iszero(denominator)) */\n      iszero\n        /* \"FixedPointMathLib.sol\":1850:1973  and(... */\n      and\n        /* \"FixedPointMathLib.sol\":1823:2032  if iszero(... */\n      tag_407\n      jumpi\n        /* \"FixedPointMathLib.sol\":2016:2017  0 */\n      0x00\n        /* \"FixedPointMathLib.sol\":2013:2014  0 */\n      dup1\n        /* \"FixedPointMathLib.sol\":2006:2018  revert(0, 0) */\n      revert\n        /* \"FixedPointMathLib.sol\":1823:2032  if iszero(... */\n    tag_407:\n        /* \"FixedPointMathLib.sol\":2102:2113  denominator */\n      dup2\n        /* \"FixedPointMathLib.sol\":2099:2100  z */\n      dup2\n        /* \"FixedPointMathLib.sol\":2095:2114  div(z, denominator) */\n      div\n        /* \"FixedPointMathLib.sol\":2090:2114  z := div(z, denominator) */\n      swap1\n      pop\n        /* \"FixedPointMathLib.sol\":1507:2130  function mulDivDown(... */\n      swap4\n      swap3\n      pop\n      pop\n      pop\n      jump\t// out\n        /* \"FixedPointMathLib.sol\":2136:2976  function mulDivUp(... */\n    tag_242:\n        /* \"FixedPointMathLib.sol\":2250:2259  uint256 z */\n      0x00\n        /* \"FixedPointMathLib.sol\":2347:2348  y */\n      dup3\n        /* \"FixedPointMathLib.sol\":2344:2345  x */\n      dup5\n        /* \"FixedPointMathLib.sol\":2340:2349  mul(x, y) */\n      mul\n        /* \"FixedPointMathLib.sol\":2335:2349  z := mul(x, y) */\n      swap1\n      pop\n        /* \"FixedPointMathLib.sol\":2579:2580  y */\n      dup3\n        /* \"FixedPointMathLib.sol\":2575:2576  x */\n      dup5\n        /* \"FixedPointMathLib.sol\":2572:2573  z */\n      dup3\n        /* \"FixedPointMathLib.sol\":2568:2577  div(z, x) */\n      div\n        /* \"FixedPointMathLib.sol\":2565:2581  eq(div(z, x), y) */\n      eq\n        /* \"FixedPointMathLib.sol\":2561:2562  x */\n      dup5\n        /* \"FixedPointMathLib.sol\":2554:2563  iszero(x) */\n      iszero\n        /* \"FixedPointMathLib.sol\":2551:2582  or(iszero(x), eq(div(z, x), y)) */\n      or\n        /* \"FixedPointMathLib.sol\":2516:2527  denominator */\n      dup3\n        /* \"FixedPointMathLib.sol\":2509:2528  iszero(denominator) */\n      iszero\n        /* \"FixedPointMathLib.sol\":2502:2529  iszero(iszero(denominator)) */\n      iszero\n        /* \"FixedPointMathLib.sol\":2477:2600  and(... */\n      and\n        /* \"FixedPointMathLib.sol\":2450:2659  if iszero(... */\n      tag_409\n      jumpi\n        /* \"FixedPointMathLib.sol\":2643:2644  0 */\n      0x00\n        /* \"FixedPointMathLib.sol\":2640:2641  0 */\n      dup1\n        /* \"FixedPointMathLib.sol\":2633:2645  revert(0, 0) */\n      revert\n        /* \"FixedPointMathLib.sol\":2450:2659  if iszero(... */\n    tag_409:\n        /* \"FixedPointMathLib.sol\":2957:2958  1 */\n      0x01\n        /* \"FixedPointMathLib.sol\":2943:2954  denominator */\n      dup3\n        /* \"FixedPointMathLib.sol\":2939:2940  1 */\n      0x01\n        /* \"FixedPointMathLib.sol\":2936:2937  z */\n      dup4\n        /* \"FixedPointMathLib.sol\":2932:2941  sub(z, 1) */\n      sub\n        /* \"FixedPointMathLib.sol\":2928:2955  div(sub(z, 1), denominator) */\n      div\n        /* \"FixedPointMathLib.sol\":2924:2959  add(div(sub(z, 1), denominator), 1) */\n      add\n        /* \"FixedPointMathLib.sol\":2919:2920  z */\n      dup2\n        /* \"FixedPointMathLib.sol\":2912:2921  iszero(z) */\n      iszero\n        /* \"FixedPointMathLib.sol\":2905:2922  iszero(iszero(z)) */\n      iszero\n        /* \"FixedPointMathLib.sol\":2901:2960  mul(iszero(iszero(z)), add(div(sub(z, 1), denominator), 1)) */\n      mul\n        /* \"FixedPointMathLib.sol\":2896:2960  z := mul(iszero(iszero(z)), add(div(sub(z, 1), denominator), 1)) */\n      swap1\n      pop\n        /* \"FixedPointMathLib.sol\":2136:2976  function mulDivUp(... */\n      swap4\n      swap3\n      pop\n      pop\n      pop\n      jump\t// out\n        /* \"ERC20.sol\":5698:6190  function computeDomainSeparator() internal view virtual returns (bytes32) {... */\n    tag_269:\n        /* \"ERC20.sol\":5763:5770  bytes32 */\n      0x00\n        /* \"ERC20.sol\":5860:6001  keccak256(... */\n      0x8b73c3c69bb8fe3d512ecc4cf759cc79239f7b179b0ffacaa9a75d522b39400f\n        /* \"ERC20.sol\":6039:6043  name */\n      0x00\n        /* \"ERC20.sol\":6023:6045  keccak256(bytes(name)) */\n      mload(0x40)\n      tag_411\n      swap2\n      swap1\n      tag_412\n      jump\t// in\n    tag_411:\n      mload(0x40)\n      dup1\n      swap2\n      sub\n      swap1\n      keccak256\n        /* \"ERC20.sol\":6067:6081  keccak256(\"1\") */\n      0xc89efdaa54c0f20c7adf612882df0950f5a951637e0307cdcb4c672f298b8bc6\n        /* \"ERC20.sol\":6103:6116  block.chainid */\n      chainid\n        /* \"ERC20.sol\":6146:6150  this */\n      address\n        /* \"ERC20.sol\":5828:6169  abi.encode(... */\n      add(0x20, mload(0x40))\n      tag_413\n      swap6\n      swap5\n      swap4\n      swap3\n      swap2\n      swap1\n      tag_414\n      jump\t// in\n    tag_413:\n      mload(0x40)\n      0x20\n      dup2\n      dup4\n      sub\n      sub\n      dup2\n      mstore\n      swap1\n      0x40\n      mstore\n        /* \"ERC20.sol\":5801:6183  keccak256(... */\n      dup1\n      mload\n      swap1\n      0x20\n      add\n      keccak256\n        /* \"ERC20.sol\":5782:6183  return... */\n      swap1\n      pop\n        /* \"ERC20.sol\":5698:6190  function computeDomainSeparator() internal view virtual returns (bytes32) {... */\n      swap1\n      jump\t// out\n        /* \"SafeTransferLib.sol\":1277:2954  function safeTransferFrom(... */\n    tag_283:\n        /* \"SafeTransferLib.sol\":1415:1427  bool success */\n      0x00\n        /* \"SafeTransferLib.sol\":1542:1546  0x40 */\n      0x40\n        /* \"SafeTransferLib.sol\":1536:1547  mload(0x40) */\n      mload\n        /* \"SafeTransferLib.sol\":1717:1783  0x23b872dd00000000000000000000000000000000000000000000000000000000 */\n      0x23b872dd00000000000000000000000000000000000000000000000000000000\n        /* \"SafeTransferLib.sol\":1682:1699  freeMemoryPointer */\n      dup2\n        /* \"SafeTransferLib.sol\":1658:1797  mstore(... */\n      mstore\n        /* \"SafeTransferLib.sol\":1844:1848  from */\n      dup5\n        /* \"SafeTransferLib.sol\":1840:1841  4 */\n      0x04\n        /* \"SafeTransferLib.sol\":1821:1838  freeMemoryPointer */\n      dup3\n        /* \"SafeTransferLib.sol\":1817:1842  add(freeMemoryPointer, 4) */\n      add\n        /* \"SafeTransferLib.sol\":1810:1849  mstore(add(freeMemoryPointer, 4), from) */\n      mstore\n        /* \"SafeTransferLib.sol\":1928:1930  to */\n      dup4\n        /* \"SafeTransferLib.sol\":1923:1925  36 */\n      0x24\n        /* \"SafeTransferLib.sol\":1904:1921  freeMemoryPointer */\n      dup3\n        /* \"SafeTransferLib.sol\":1900:1926  add(freeMemoryPointer, 36) */\n      add\n        /* \"SafeTransferLib.sol\":1893:1931  mstore(add(freeMemoryPointer, 36), to) */\n      mstore\n        /* \"SafeTransferLib.sol\":2008:2014  amount */\n      dup3\n        /* \"SafeTransferLib.sol\":2003:2005  68 */\n      0x44\n        /* \"SafeTransferLib.sol\":1984:2001  freeMemoryPointer */\n      dup3\n        /* \"SafeTransferLib.sol\":1980:2006  add(freeMemoryPointer, 68) */\n      add\n        /* \"SafeTransferLib.sol\":1973:2015  mstore(add(freeMemoryPointer, 68), amount) */\n      mstore\n        /* \"SafeTransferLib.sol\":2870:2872  32 */\n      0x20\n        /* \"SafeTransferLib.sol\":2867:2868  0 */\n      0x00\n        /* \"SafeTransferLib.sol\":2862:2865  100 */\n      0x64\n        /* \"SafeTransferLib.sol\":2843:2860  freeMemoryPointer */\n      dup4\n        /* \"SafeTransferLib.sol\":2840:2841  0 */\n      0x00\n        /* \"SafeTransferLib.sol\":2833:2838  token */\n      dup11\n        /* \"SafeTransferLib.sol\":2826:2831  gas() */\n      gas\n        /* \"SafeTransferLib.sol\":2821:2873  call(gas(), token, 0, freeMemoryPointer, 100, 0, 32) */\n      call\n        /* \"SafeTransferLib.sol\":2372:2388  returndatasize() */\n      returndatasize\n        /* \"SafeTransferLib.sol\":2365:2389  iszero(returndatasize()) */\n      iszero\n        /* \"SafeTransferLib.sol\":2339:2341  31 */\n      0x1f\n        /* \"SafeTransferLib.sol\":2321:2337  returndatasize() */\n      returndatasize\n        /* \"SafeTransferLib.sol\":2318:2342  gt(returndatasize(), 31) */\n      gt\n        /* \"SafeTransferLib.sol\":2314:2315  1 */\n      0x01\n        /* \"SafeTransferLib.sol\":2310:2311  0 */\n      0x00\n        /* \"SafeTransferLib.sol\":2304:2312  mload(0) */\n      mload\n        /* \"SafeTransferLib.sol\":2301:2316  eq(mload(0), 1) */\n      eq\n        /* \"SafeTransferLib.sol\":2297:2343  and(eq(mload(0), 1), gt(returndatasize(), 31)) */\n      and\n        /* \"SafeTransferLib.sol\":2273:2407  or(... */\n      or\n        /* \"SafeTransferLib.sol\":2073:2887  and(... */\n      and\n        /* \"SafeTransferLib.sol\":2062:2887  success := and(... */\n      swap2\n      pop\n        /* \"SafeTransferLib.sol\":1447:2897  {... */\n      pop\n        /* \"SafeTransferLib.sol\":2915:2922  success */\n      dup1\n        /* \"SafeTransferLib.sol\":2907:2947  require(success, \"TRANSFER_FROM_FAILED\") */\n      tag_416\n      jumpi\n      mload(0x40)\n      0x08c379a000000000000000000000000000000000000000000000000000000000\n      dup2\n      mstore\n      0x04\n      add\n      tag_417\n      swap1\n      tag_418\n      jump\t// in\n    tag_417:\n      mload(0x40)\n      dup1\n      swap2\n      sub\n      swap1\n      revert\n    tag_416:\n        /* \"SafeTransferLib.sol\":1405:2954  {... */\n      pop\n        /* \"SafeTransferLib.sol\":1277:2954  function safeTransferFrom(... */\n      pop\n      pop\n      pop\n      pop\n      jump\t// out\n        /* \"ERC20.sol\":6384:6709  function _mint(address to, uint256 amount) internal virtual {... */\n    tag_285:\n        /* \"ERC20.sol\":6469:6475  amount */\n      dup1\n        /* \"ERC20.sol\":6454:6465  totalSupply */\n      0x02\n      0x00\n        /* \"ERC20.sol\":6454:6475  totalSupply += amount */\n      dup3\n      dup3\n      sload\n      tag_420\n      swap2\n      swap1\n      tag_421\n      jump\t// in\n    tag_420:\n      swap3\n      pop\n      pop\n      dup2\n      swap1\n      sstore\n      pop\n        /* \"ERC20.sol\":6638:6644  amount */\n      dup1\n        /* \"ERC20.sol\":6621:6630  balanceOf */\n      0x03\n        /* \"ERC20.sol\":6621:6634  balanceOf[to] */\n      0x00\n        /* \"ERC20.sol\":6631:6633  to */\n      dup5\n        /* \"ERC20.sol\":6621:6634  balanceOf[to] */\n      0xffffffffffffffffffffffffffffffffffffffff\n      and\n      0xffffffffffffffffffffffffffffffffffffffff\n      and\n      dup2\n      mstore\n      0x20\n      add\n      swap1\n      dup2\n      mstore\n      0x20\n      add\n      0x00\n      keccak256\n      0x00\n        /* \"ERC20.sol\":6621:6644  balanceOf[to] += amount */\n      dup3\n      dup3\n      sload\n      add\n      swap3\n      pop\n      pop\n      dup2\n      swap1\n      sstore\n      pop\n        /* \"ERC20.sol\":6691:6693  to */\n      dup2\n        /* \"ERC20.sol\":6670:6702  Transfer(address(0), to, amount) */\n      0xffffffffffffffffffffffffffffffffffffffff\n      and\n        /* \"ERC20.sol\":6687:6688  0 */\n      0x00\n        /* \"ERC20.sol\":6670:6702  Transfer(address(0), to, amount) */\n      0xffffffffffffffffffffffffffffffffffffffff\n      and\n      0xddf252ad1be2c89b69c2b068fc378daa952ba7f163c4a11628f55a4df523b3ef\n        /* \"ERC20.sol\":6695:6701  amount */\n      dup4\n        /* \"ERC20.sol\":6670:6702  Transfer(address(0), to, amount) */\n      mload(0x40)\n      tag_422\n      swap2\n      swap1\n      tag_56\n      jump\t// in\n    tag_422:\n      mload(0x40)\n      dup1\n      swap2\n      sub\n      swap1\n      log3\n        /* \"ERC20.sol\":6384:6709  function _mint(address to, uint256 amount) internal virtual {... */\n      pop\n      pop\n      jump\t// out\n        /* \"SquiddyCore.sol\":8659:8765  function afterDeposit(uint256, uint256) internal override {... */\n    tag_289:\n        /* \"SquiddyCore.sol\":8727:8756  afterDepositHookCalledCounter */\n      0x08\n      0x00\n        /* \"SquiddyCore.sol\":8727:8758  afterDepositHookCalledCounter++ */\n      dup2\n      sload\n      dup1\n      swap3\n      swap2\n      swap1\n      tag_424\n      swap1\n      tag_425\n      jump\t// in\n    tag_424:\n      swap2\n      swap1\n      pop\n      sstore\n      pop\n        /* \"SquiddyCore.sol\":8659:8765  function afterDeposit(uint256, uint256) internal override {... */\n      pop\n      pop\n      jump\t// out\n        /* \"SquiddyCore.sol\":8543:8653  function beforeWithdraw(uint256, uint256) internal override {... */\n    tag_342:\n        /* \"SquiddyCore.sol\":8613:8644  beforeWithdrawHookCalledCounter */\n      0x07\n      0x00\n        /* \"SquiddyCore.sol\":8613:8646  beforeWithdrawHookCalledCounter++ */\n      dup2\n      sload\n      dup1\n      swap3\n      swap2\n      swap1\n      tag_427\n      swap1\n      tag_425\n      jump\t// in\n    tag_427:\n      swap2\n      swap1\n      pop\n      sstore\n      pop\n        /* \"SquiddyCore.sol\":8543:8653  function beforeWithdraw(uint256, uint256) internal override {... */\n      pop\n      pop\n      jump\t// out\n        /* \"ERC20.sol\":6715:7043  function _burn(address from, uint256 amount) internal virtual {... */\n    tag_344:\n        /* \"ERC20.sol\":6806:6812  amount */\n      dup1\n        /* \"ERC20.sol\":6787:6796  balanceOf */\n      0x03\n        /* \"ERC20.sol\":6787:6802  balanceOf[from] */\n      0x00\n        /* \"ERC20.sol\":6797:6801  from */\n      dup5\n        /* \"ERC20.sol\":6787:6802  balanceOf[from] */\n      0xffffffffffffffffffffffffffffffffffffffff\n      and\n      0xffffffffffffffffffffffffffffffffffffffff\n      and\n      dup2\n      mstore\n      0x20\n      add\n      swap1\n      dup2\n      mstore\n      0x20\n      add\n      0x00\n      keccak256\n      0x00\n        /* \"ERC20.sol\":6787:6812  balanceOf[from] -= amount */\n      dup3\n      dup3\n      sload\n      tag_429\n      swap2\n      swap1\n      tag_247\n      jump\t// in\n    tag_429:\n      swap3\n      pop\n      pop\n      dup2\n      swap1\n      sstore\n      pop\n        /* \"ERC20.sol\":6970:6976  amount */\n      dup1\n        /* \"ERC20.sol\":6955:6966  totalSupply */\n      0x02\n      0x00\n        /* \"ERC20.sol\":6955:6976  totalSupply -= amount */\n      dup3\n      dup3\n      sload\n      sub\n      swap3\n      pop\n      pop\n      dup2\n      swap1\n      sstore\n      pop\n        /* \"ERC20.sol\":7025:7026  0 */\n      0x00\n        /* \"ERC20.sol\":7002:7036  Transfer(from, address(0), amount) */\n      0xffffffffffffffffffffffffffffffffffffffff\n      and\n        /* \"ERC20.sol\":7011:7015  from */\n      dup3\n        /* \"ERC20.sol\":7002:7036  Transfer(from, address(0), amount) */\n      0xffffffffffffffffffffffffffffffffffffffff\n      and\n      0xddf252ad1be2c89b69c2b068fc378daa952ba7f163c4a11628f55a4df523b3ef\n        /* \"ERC20.sol\":7029:7035  amount */\n      dup4\n        /* \"ERC20.sol\":7002:7036  Transfer(from, address(0), amount) */\n      mload(0x40)\n      tag_430\n      swap2\n      swap1\n      tag_56\n      jump\t// in\n    tag_430:\n      mload(0x40)\n      dup1\n      swap2\n      sub\n      swap1\n      log3\n        /* \"ERC20.sol\":6715:7043  function _burn(address from, uint256 amount) internal virtual {... */\n      pop\n      pop\n      jump\t// out\n        /* \"SafeTransferLib.sol\":2960:4520  function safeTransfer(... */\n    tag_347:\n        /* \"SafeTransferLib.sol\":3072:3084  bool success */\n      0x00\n        /* \"SafeTransferLib.sol\":3199:3203  0x40 */\n      0x40\n        /* \"SafeTransferLib.sol\":3193:3204  mload(0x40) */\n      mload\n        /* \"SafeTransferLib.sol\":3374:3440  0xa9059cbb00000000000000000000000000000000000000000000000000000000 */\n      0xa9059cbb00000000000000000000000000000000000000000000000000000000\n        /* \"SafeTransferLib.sol\":3339:3356  freeMemoryPointer */\n      dup2\n        /* \"SafeTransferLib.sol\":3315:3454  mstore(... */\n      mstore\n        /* \"SafeTransferLib.sol\":3501:3503  to */\n      dup4\n        /* \"SafeTransferLib.sol\":3497:3498  4 */\n      0x04\n        /* \"SafeTransferLib.sol\":3478:3495  freeMemoryPointer */\n      dup3\n        /* \"SafeTransferLib.sol\":3474:3499  add(freeMemoryPointer, 4) */\n      add\n        /* \"SafeTransferLib.sol\":3467:3504  mstore(add(freeMemoryPointer, 4), to) */\n      mstore\n        /* \"SafeTransferLib.sol\":3581:3587  amount */\n      dup3\n        /* \"SafeTransferLib.sol\":3576:3578  36 */\n      0x24\n        /* \"SafeTransferLib.sol\":3557:3574  freeMemoryPointer */\n      dup3\n        /* \"SafeTransferLib.sol\":3553:3579  add(freeMemoryPointer, 36) */\n      add\n        /* \"SafeTransferLib.sol\":3546:3588  mstore(add(freeMemoryPointer, 36), amount) */\n      mstore\n        /* \"SafeTransferLib.sol\":4441:4443  32 */\n      0x20\n        /* \"SafeTransferLib.sol\":4438:4439  0 */\n      0x00\n        /* \"SafeTransferLib.sol\":4434:4436  68 */\n      0x44\n        /* \"SafeTransferLib.sol\":4415:4432  freeMemoryPointer */\n      dup4\n        /* \"SafeTransferLib.sol\":4412:4413  0 */\n      0x00\n        /* \"SafeTransferLib.sol\":4405:4410  token */\n      dup10\n        /* \"SafeTransferLib.sol\":4398:4403  gas() */\n      gas\n        /* \"SafeTransferLib.sol\":4393:4444  call(gas(), token, 0, freeMemoryPointer, 68, 0, 32) */\n      call\n        /* \"SafeTransferLib.sol\":3945:3961  returndatasize() */\n      returndatasize\n        /* \"SafeTransferLib.sol\":3938:3962  iszero(returndatasize()) */\n      iszero\n        /* \"SafeTransferLib.sol\":3912:3914  31 */\n      0x1f\n        /* \"SafeTransferLib.sol\":3894:3910  returndatasize() */\n      returndatasize\n        /* \"SafeTransferLib.sol\":3891:3915  gt(returndatasize(), 31) */\n      gt\n        /* \"SafeTransferLib.sol\":3887:3888  1 */\n      0x01\n        /* \"SafeTransferLib.sol\":3883:3884  0 */\n      0x00\n        /* \"SafeTransferLib.sol\":3877:3885  mload(0) */\n      mload\n        /* \"SafeTransferLib.sol\":3874:3889  eq(mload(0), 1) */\n      eq\n        /* \"SafeTransferLib.sol\":3870:3916  and(eq(mload(0), 1), gt(returndatasize(), 31)) */\n      and\n        /* \"SafeTransferLib.sol\":3846:3980  or(... */\n      or\n        /* \"SafeTransferLib.sol\":3646:4458  and(... */\n      and\n        /* \"SafeTransferLib.sol\":3635:4458  success := and(... */\n      swap2\n      pop\n        /* \"SafeTransferLib.sol\":3104:4468  {... */\n      pop\n        /* \"SafeTransferLib.sol\":4486:4493  success */\n      dup1\n        /* \"SafeTransferLib.sol\":4478:4513  require(success, \"TRANSFER_FAILED\") */\n      tag_432\n      jumpi\n      mload(0x40)\n      0x08c379a000000000000000000000000000000000000000000000000000000000\n      dup2\n      mstore\n      0x04\n      add\n      tag_433\n      swap1\n      tag_434\n      jump\t// in\n    tag_433:\n      mload(0x40)\n      dup1\n      swap2\n      sub\n      swap1\n      revert\n    tag_432:\n        /* \"SafeTransferLib.sol\":3062:4520  {... */\n      pop\n        /* \"SafeTransferLib.sol\":2960:4520  function safeTransfer(... */\n      pop\n      pop\n      pop\n      jump\t// out\n        /* \"#utility.yul\":7:84   */\n    tag_435:\n        /* \"#utility.yul\":44:51   */\n      0x00\n        /* \"#utility.yul\":73:78   */\n      dup2\n        /* \"#utility.yul\":62:78   */\n      swap1\n      pop\n        /* \"#utility.yul\":7:84   */\n      swap2\n      swap1\n      pop\n      jump\t// out\n        /* \"#utility.yul\":90:208   */\n    tag_436:\n        /* \"#utility.yul\":177:201   */\n      tag_507\n        /* \"#utility.yul\":195:200   */\n      dup2\n        /* \"#utility.yul\":177:201   */\n      tag_435\n      jump\t// in\n    tag_507:\n        /* \"#utility.yul\":172:175   */\n      dup3\n        /* \"#utility.yul\":165:202   */\n      mstore\n        /* \"#utility.yul\":90:208   */\n      pop\n      pop\n      jump\t// out\n        /* \"#utility.yul\":214:436   */\n    tag_56:\n        /* \"#utility.yul\":307:311   */\n      0x00\n        /* \"#utility.yul\":345:347   */\n      0x20\n        /* \"#utility.yul\":334:343   */\n      dup3\n        /* \"#utility.yul\":330:348   */\n      add\n        /* \"#utility.yul\":322:348   */\n      swap1\n      pop\n        /* \"#utility.yul\":358:429   */\n      tag_509\n        /* \"#utility.yul\":426:427   */\n      0x00\n        /* \"#utility.yul\":415:424   */\n      dup4\n        /* \"#utility.yul\":411:428   */\n      add\n        /* \"#utility.yul\":402:408   */\n      dup5\n        /* \"#utility.yul\":358:429   */\n      tag_436\n      jump\t// in\n    tag_509:\n        /* \"#utility.yul\":214:436   */\n      swap3\n      swap2\n      pop\n      pop\n      jump\t// out\n        /* \"#utility.yul\":442:541   */\n    tag_437:\n        /* \"#utility.yul\":494:500   */\n      0x00\n        /* \"#utility.yul\":528:533   */\n      dup2\n        /* \"#utility.yul\":522:534   */\n      mload\n        /* \"#utility.yul\":512:534   */\n      swap1\n      pop\n        /* \"#utility.yul\":442:541   */\n      swap2\n      swap1\n      pop\n      jump\t// out\n        /* \"#utility.yul\":547:716   */\n    tag_438:\n        /* \"#utility.yul\":631:642   */\n      0x00\n        /* \"#utility.yul\":665:671   */\n      dup3\n        /* \"#utility.yul\":660:663   */\n      dup3\n        /* \"#utility.yul\":653:672   */\n      mstore\n        /* \"#utility.yul\":705:709   */\n      0x20\n        /* \"#utility.yul\":700:703   */\n      dup3\n        /* \"#utility.yul\":696:710   */\n      add\n        /* \"#utility.yul\":681:710   */\n      swap1\n      pop\n        /* \"#utility.yul\":547:716   */\n      swap3\n      swap2\n      pop\n      pop\n      jump\t// out\n        /* \"#utility.yul\":722:1029   */\n    tag_439:\n        /* \"#utility.yul\":790:791   */\n      0x00\n        /* \"#utility.yul\":800:913   */\n    tag_513:\n        /* \"#utility.yul\":814:820   */\n      dup4\n        /* \"#utility.yul\":811:812   */\n      dup2\n        /* \"#utility.yul\":808:821   */\n      lt\n        /* \"#utility.yul\":800:913   */\n      iszero\n      tag_515\n      jumpi\n        /* \"#utility.yul\":899:900   */\n      dup1\n        /* \"#utility.yul\":894:897   */\n      dup3\n        /* \"#utility.yul\":890:901   */\n      add\n        /* \"#utility.yul\":884:902   */\n      mload\n        /* \"#utility.yul\":880:881   */\n      dup2\n        /* \"#utility.yul\":875:878   */\n      dup5\n        /* \"#utility.yul\":871:882   */\n      add\n        /* \"#utility.yul\":864:903   */\n      mstore\n        /* \"#utility.yul\":836:838   */\n      0x20\n        /* \"#utility.yul\":833:834   */\n      dup2\n        /* \"#utility.yul\":829:839   */\n      add\n        /* \"#utility.yul\":824:839   */\n      swap1\n      pop\n        /* \"#utility.yul\":800:913   */\n      jump(tag_513)\n    tag_515:\n        /* \"#utility.yul\":931:937   */\n      dup4\n        /* \"#utility.yul\":928:929   */\n      dup2\n        /* \"#utility.yul\":925:938   */\n      gt\n        /* \"#utility.yul\":922:1023   */\n      iszero\n      tag_516\n      jumpi\n        /* \"#utility.yul\":1011:1012   */\n      0x00\n        /* \"#utility.yul\":1002:1008   */\n      dup5\n        /* \"#utility.yul\":997:1000   */\n      dup5\n        /* \"#utility.yul\":993:1009   */\n      add\n        /* \"#utility.yul\":986:1013   */\n      mstore\n        /* \"#utility.yul\":922:1023   */\n    tag_516:\n        /* \"#utility.yul\":771:1029   */\n      pop\n        /* \"#utility.yul\":722:1029   */\n      pop\n      pop\n      pop\n      jump\t// out\n        /* \"#utility.yul\":1035:1137   */\n    tag_440:\n        /* \"#utility.yul\":1076:1082   */\n      0x00\n        /* \"#utility.yul\":1127:1129   */\n      0x1f\n        /* \"#utility.yul\":1123:1130   */\n      not\n        /* \"#utility.yul\":1118:1120   */\n      0x1f\n        /* \"#utility.yul\":1111:1116   */\n      dup4\n        /* \"#utility.yul\":1107:1121   */\n      add\n        /* \"#utility.yul\":1103:1131   */\n      and\n        /* \"#utility.yul\":1093:1131   */\n      swap1\n      pop\n        /* \"#utility.yul\":1035:1137   */\n      swap2\n      swap1\n      pop\n      jump\t// out\n        /* \"#utility.yul\":1143:1507   */\n    tag_441:\n        /* \"#utility.yul\":1231:1234   */\n      0x00\n        /* \"#utility.yul\":1259:1298   */\n      tag_519\n        /* \"#utility.yul\":1292:1297   */\n      dup3\n        /* \"#utility.yul\":1259:1298   */\n      tag_437\n      jump\t// in\n    tag_519:\n        /* \"#utility.yul\":1314:1385   */\n      tag_520\n        /* \"#utility.yul\":1378:1384   */\n      dup2\n        /* \"#utility.yul\":1373:1376   */\n      dup6\n        /* \"#utility.yul\":1314:1385   */\n      tag_438\n      jump\t// in\n    tag_520:\n        /* \"#utility.yul\":1307:1385   */\n      swap4\n      pop\n        /* \"#utility.yul\":1394:1446   */\n      tag_521\n        /* \"#utility.yul\":1439:1445   */\n      dup2\n        /* \"#utility.yul\":1434:1437   */\n      dup6\n        /* \"#utility.yul\":1427:1431   */\n      0x20\n        /* \"#utility.yul\":1420:1425   */\n      dup7\n        /* \"#utility.yul\":1416:1432   */\n      add\n        /* \"#utility.yul\":1394:1446   */\n      tag_439\n      jump\t// in\n    tag_521:\n        /* \"#utility.yul\":1471:1500   */\n      tag_522\n        /* \"#utility.yul\":1493:1499   */\n      dup2\n        /* \"#utility.yul\":1471:1500   */\n      tag_440\n      jump\t// in\n    tag_522:\n        /* \"#utility.yul\":1466:1469   */\n      dup5\n        /* \"#utility.yul\":1462:1501   */\n      add\n        /* \"#utility.yul\":1455:1501   */\n      swap2\n      pop\n        /* \"#utility.yul\":1235:1507   */\n      pop\n        /* \"#utility.yul\":1143:1507   */\n      swap3\n      swap2\n      pop\n      pop\n      jump\t// out\n        /* \"#utility.yul\":1513:1826   */\n    tag_60:\n        /* \"#utility.yul\":1626:1630   */\n      0x00\n        /* \"#utility.yul\":1664:1666   */\n      0x20\n        /* \"#utility.yul\":1653:1662   */\n      dup3\n        /* \"#utility.yul\":1649:1667   */\n      add\n        /* \"#utility.yul\":1641:1667   */\n      swap1\n      pop\n        /* \"#utility.yul\":1713:1722   */\n      dup2\n        /* \"#utility.yul\":1707:1711   */\n      dup2\n        /* \"#utility.yul\":1703:1723   */\n      sub\n        /* \"#utility.yul\":1699:1700   */\n      0x00\n        /* \"#utility.yul\":1688:1697   */\n      dup4\n        /* \"#utility.yul\":1684:1701   */\n      add\n        /* \"#utility.yul\":1677:1724   */\n      mstore\n        /* \"#utility.yul\":1741:1819   */\n      tag_524\n        /* \"#utility.yul\":1814:1818   */\n      dup2\n        /* \"#utility.yul\":1805:1811   */\n      dup5\n        /* \"#utility.yul\":1741:1819   */\n      tag_441\n      jump\t// in\n    tag_524:\n        /* \"#utility.yul\":1733:1819   */\n      swap1\n      pop\n        /* \"#utility.yul\":1513:1826   */\n      swap3\n      swap2\n      pop\n      pop\n      jump\t// out\n        /* \"#utility.yul\":1913:2030   */\n    tag_443:\n        /* \"#utility.yul\":2022:2023   */\n      0x00\n        /* \"#utility.yul\":2019:2020   */\n      dup1\n        /* \"#utility.yul\":2012:2024   */\n      revert\n        /* \"#utility.yul\":2159:2281   */\n    tag_445:\n        /* \"#utility.yul\":2232:2256   */\n      tag_529\n        /* \"#utility.yul\":2250:2255   */\n      dup2\n        /* \"#utility.yul\":2232:2256   */\n      tag_435\n      jump\t// in\n    tag_529:\n        /* \"#utility.yul\":2225:2230   */\n      dup2\n        /* \"#utility.yul\":2222:2257   */\n      eq\n        /* \"#utility.yul\":2212:2275   */\n      tag_530\n      jumpi\n        /* \"#utility.yul\":2271:2272   */\n      0x00\n        /* \"#utility.yul\":2268:2269   */\n      dup1\n        /* \"#utility.yul\":2261:2273   */\n      revert\n        /* \"#utility.yul\":2212:2275   */\n    tag_530:\n        /* \"#utility.yul\":2159:2281   */\n      pop\n      jump\t// out\n        /* \"#utility.yul\":2287:2426   */\n    tag_446:\n        /* \"#utility.yul\":2333:2338   */\n      0x00\n        /* \"#utility.yul\":2371:2377   */\n      dup2\n        /* \"#utility.yul\":2358:2378   */\n      calldataload\n        /* \"#utility.yul\":2349:2378   */\n      swap1\n      pop\n        /* \"#utility.yul\":2387:2420   */\n      tag_532\n        /* \"#utility.yul\":2414:2419   */\n      dup2\n        /* \"#utility.yul\":2387:2420   */\n      tag_445\n      jump\t// in\n    tag_532:\n        /* \"#utility.yul\":2287:2426   */\n      swap3\n      swap2\n      pop\n      pop\n      jump\t// out\n        /* \"#utility.yul\":2432:2761   */\n    tag_63:\n        /* \"#utility.yul\":2491:2497   */\n      0x00\n        /* \"#utility.yul\":2540:2542   */\n      0x20\n        /* \"#utility.yul\":2528:2537   */\n      dup3\n        /* \"#utility.yul\":2519:2526   */\n      dup5\n        /* \"#utility.yul\":2515:2538   */\n      sub\n        /* \"#utility.yul\":2511:2543   */\n      slt\n        /* \"#utility.yul\":2508:2627   */\n      iszero\n      tag_534\n      jumpi\n        /* \"#utility.yul\":2546:2625   */\n      tag_535\n      tag_443\n      jump\t// in\n    tag_535:\n        /* \"#utility.yul\":2508:2627   */\n    tag_534:\n        /* \"#utility.yul\":2666:2667   */\n      0x00\n        /* \"#utility.yul\":2691:2744   */\n      tag_536\n        /* \"#utility.yul\":2736:2743   */\n      dup5\n        /* \"#utility.yul\":2727:2733   */\n      dup3\n        /* \"#utility.yul\":2716:2725   */\n      dup6\n        /* \"#utility.yul\":2712:2734   */\n      add\n        /* \"#utility.yul\":2691:2744   */\n      tag_446\n      jump\t// in\n    tag_536:\n        /* \"#utility.yul\":2681:2744   */\n      swap2\n      pop\n        /* \"#utility.yul\":2637:2754   */\n      pop\n        /* \"#utility.yul\":2432:2761   */\n      swap3\n      swap2\n      pop\n      pop\n      jump\t// out\n        /* \"#utility.yul\":2767:2893   */\n    tag_447:\n        /* \"#utility.yul\":2804:2811   */\n      0x00\n        /* \"#utility.yul\":2844:2886   */\n      0xffffffffffffffffffffffffffffffffffffffff\n        /* \"#utility.yul\":2837:2842   */\n      dup3\n        /* \"#utility.yul\":2833:2887   */\n      and\n        /* \"#utility.yul\":2822:2887   */\n      swap1\n      pop\n        /* \"#utility.yul\":2767:2893   */\n      swap2\n      swap1\n      pop\n      jump\t// out\n        /* \"#utility.yul\":2899:2995   */\n    tag_448:\n        /* \"#utility.yul\":2936:2943   */\n      0x00\n        /* \"#utility.yul\":2965:2989   */\n      tag_539\n        /* \"#utility.yul\":2983:2988   */\n      dup3\n        /* \"#utility.yul\":2965:2989   */\n      tag_447\n      jump\t// in\n    tag_539:\n        /* \"#utility.yul\":2954:2989   */\n      swap1\n      pop\n        /* \"#utility.yul\":2899:2995   */\n      swap2\n      swap1\n      pop\n      jump\t// out\n        /* \"#utility.yul\":3001:3123   */\n    tag_449:\n        /* \"#utility.yul\":3074:3098   */\n      tag_541\n        /* \"#utility.yul\":3092:3097   */\n      dup2\n        /* \"#utility.yul\":3074:3098   */\n      tag_448\n      jump\t// in\n    tag_541:\n        /* \"#utility.yul\":3067:3072   */\n      dup2\n        /* \"#utility.yul\":3064:3099   */\n      eq\n        /* \"#utility.yul\":3054:3117   */\n      tag_542\n      jumpi\n        /* \"#utility.yul\":3113:3114   */\n      0x00\n        /* \"#utility.yul\":3110:3111   */\n      dup1\n        /* \"#utility.yul\":3103:3115   */\n      revert\n        /* \"#utility.yul\":3054:3117   */\n    tag_542:\n        /* \"#utility.yul\":3001:3123   */\n      pop\n      jump\t// out\n        /* \"#utility.yul\":3129:3268   */\n    tag_450:\n        /* \"#utility.yul\":3175:3180   */\n      0x00\n        /* \"#utility.yul\":3213:3219   */\n      dup2\n        /* \"#utility.yul\":3200:3220   */\n      calldataload\n        /* \"#utility.yul\":3191:3220   */\n      swap1\n      pop\n        /* \"#utility.yul\":3229:3262   */\n      tag_544\n        /* \"#utility.yul\":3256:3261   */\n      dup2\n        /* \"#utility.yul\":3229:3262   */\n      tag_449\n      jump\t// in\n    tag_544:\n        /* \"#utility.yul\":3129:3268   */\n      swap3\n      swap2\n      pop\n      pop\n      jump\t// out\n        /* \"#utility.yul\":3274:3748   */\n    tag_68:\n        /* \"#utility.yul\":3342:3348   */\n      0x00\n        /* \"#utility.yul\":3350:3356   */\n      dup1\n        /* \"#utility.yul\":3399:3401   */\n      0x40\n        /* \"#utility.yul\":3387:3396   */\n      dup4\n        /* \"#utility.yul\":3378:3385   */\n      dup6\n        /* \"#utility.yul\":3374:3397   */\n      sub\n        /* \"#utility.yul\":3370:3402   */\n      slt\n        /* \"#utility.yul\":3367:3486   */\n      iszero\n      tag_546\n      jumpi\n        /* \"#utility.yul\":3405:3484   */\n      tag_547\n      tag_443\n      jump\t// in\n    tag_547:\n        /* \"#utility.yul\":3367:3486   */\n    tag_546:\n        /* \"#utility.yul\":3525:3526   */\n      0x00\n        /* \"#utility.yul\":3550:3603   */\n      tag_548\n        /* \"#utility.yul\":3595:3602   */\n      dup6\n        /* \"#utility.yul\":3586:3592   */\n      dup3\n        /* \"#utility.yul\":3575:3584   */\n      dup7\n        /* \"#utility.yul\":3571:3593   */\n      add\n        /* \"#utility.yul\":3550:3603   */\n      tag_450\n      jump\t// in\n    tag_548:\n        /* \"#utility.yul\":3540:3603   */\n      swap3\n      pop\n        /* \"#utility.yul\":3496:3613   */\n      pop\n        /* \"#utility.yul\":3652:3654   */\n      0x20\n        /* \"#utility.yul\":3678:3731   */\n      tag_549\n        /* \"#utility.yul\":3723:3730   */\n      dup6\n        /* \"#utility.yul\":3714:3720   */\n      dup3\n        /* \"#utility.yul\":3703:3712   */\n      dup7\n        /* \"#utility.yul\":3699:3721   */\n      add\n        /* \"#utility.yul\":3678:3731   */\n      tag_446\n      jump\t// in\n    tag_549:\n        /* \"#utility.yul\":3668:3731   */\n      swap2\n      pop\n        /* \"#utility.yul\":3623:3741   */\n      pop\n        /* \"#utility.yul\":3274:3748   */\n      swap3\n      pop\n      swap3\n      swap1\n      pop\n      jump\t// out\n        /* \"#utility.yul\":3754:3844   */\n    tag_451:\n        /* \"#utility.yul\":3788:3795   */\n      0x00\n        /* \"#utility.yul\":3831:3836   */\n      dup2\n        /* \"#utility.yul\":3824:3837   */\n      iszero\n        /* \"#utility.yul\":3817:3838   */\n      iszero\n        /* \"#utility.yul\":3806:3838   */\n      swap1\n      pop\n        /* \"#utility.yul\":3754:3844   */\n      swap2\n      swap1\n      pop\n      jump\t// out\n        /* \"#utility.yul\":3850:3959   */\n    tag_452:\n        /* \"#utility.yul\":3931:3952   */\n      tag_552\n        /* \"#utility.yul\":3946:3951   */\n      dup2\n        /* \"#utility.yul\":3931:3952   */\n      tag_451\n      jump\t// in\n    tag_552:\n        /* \"#utility.yul\":3926:3929   */\n      dup3\n        /* \"#utility.yul\":3919:3953   */\n      mstore\n        /* \"#utility.yul\":3850:3959   */\n      pop\n      pop\n      jump\t// out\n        /* \"#utility.yul\":3965:4175   */\n    tag_71:\n        /* \"#utility.yul\":4052:4056   */\n      0x00\n        /* \"#utility.yul\":4090:4092   */\n      0x20\n        /* \"#utility.yul\":4079:4088   */\n      dup3\n        /* \"#utility.yul\":4075:4093   */\n      add\n        /* \"#utility.yul\":4067:4093   */\n      swap1\n      pop\n        /* \"#utility.yul\":4103:4168   */\n      tag_554\n        /* \"#utility.yul\":4165:4166   */\n      0x00\n        /* \"#utility.yul\":4154:4163   */\n      dup4\n        /* \"#utility.yul\":4150:4167   */\n      add\n        /* \"#utility.yul\":4141:4147   */\n      dup5\n        /* \"#utility.yul\":4103:4168   */\n      tag_452\n      jump\t// in\n    tag_554:\n        /* \"#utility.yul\":3965:4175   */\n      swap3\n      swap2\n      pop\n      pop\n      jump\t// out\n        /* \"#utility.yul\":4181:4800   */\n    tag_84:\n        /* \"#utility.yul\":4258:4264   */\n      0x00\n        /* \"#utility.yul\":4266:4272   */\n      dup1\n        /* \"#utility.yul\":4274:4280   */\n      0x00\n        /* \"#utility.yul\":4323:4325   */\n      0x60\n        /* \"#utility.yul\":4311:4320   */\n      dup5\n        /* \"#utility.yul\":4302:4309   */\n      dup7\n        /* \"#utility.yul\":4298:4321   */\n      sub\n        /* \"#utility.yul\":4294:4326   */\n      slt\n        /* \"#utility.yul\":4291:4410   */\n      iszero\n      tag_556\n      jumpi\n        /* \"#utility.yul\":4329:4408   */\n      tag_557\n      tag_443\n      jump\t// in\n    tag_557:\n        /* \"#utility.yul\":4291:4410   */\n    tag_556:\n        /* \"#utility.yul\":4449:4450   */\n      0x00\n        /* \"#utility.yul\":4474:4527   */\n      tag_558\n        /* \"#utility.yul\":4519:4526   */\n      dup7\n        /* \"#utility.yul\":4510:4516   */\n      dup3\n        /* \"#utility.yul\":4499:4508   */\n      dup8\n        /* \"#utility.yul\":4495:4517   */\n      add\n        /* \"#utility.yul\":4474:4527   */\n      tag_450\n      jump\t// in\n    tag_558:\n        /* \"#utility.yul\":4464:4527   */\n      swap4\n      pop\n        /* \"#utility.yul\":4420:4537   */\n      pop\n        /* \"#utility.yul\":4576:4578   */\n      0x20\n        /* \"#utility.yul\":4602:4655   */\n      tag_559\n        /* \"#utility.yul\":4647:4654   */\n      dup7\n        /* \"#utility.yul\":4638:4644   */\n      dup3\n        /* \"#utility.yul\":4627:4636   */\n      dup8\n        /* \"#utility.yul\":4623:4645   */\n      add\n        /* \"#utility.yul\":4602:4655   */\n      tag_450\n      jump\t// in\n    tag_559:\n        /* \"#utility.yul\":4592:4655   */\n      swap3\n      pop\n        /* \"#utility.yul\":4547:4665   */\n      pop\n        /* \"#utility.yul\":4704:4706   */\n      0x40\n        /* \"#utility.yul\":4730:4783   */\n      tag_560\n        /* \"#utility.yul\":4775:4782   */\n      dup7\n        /* \"#utility.yul\":4766:4772   */\n      dup3\n        /* \"#utility.yul\":4755:4764   */\n      dup8\n        /* \"#utility.yul\":4751:4773   */\n      add\n        /* \"#utility.yul\":4730:4783   */\n      tag_446\n      jump\t// in\n    tag_560:\n        /* \"#utility.yul\":4720:4783   */\n      swap2\n      pop\n        /* \"#utility.yul\":4675:4793   */\n      pop\n        /* \"#utility.yul\":4181:4800   */\n      swap3\n      pop\n      swap3\n      pop\n      swap3\n      jump\t// out\n        /* \"#utility.yul\":4806:4892   */\n    tag_453:\n        /* \"#utility.yul\":4841:4848   */\n      0x00\n        /* \"#utility.yul\":4881:4885   */\n      0xff\n        /* \"#utility.yul\":4874:4879   */\n      dup3\n        /* \"#utility.yul\":4870:4886   */\n      and\n        /* \"#utility.yul\":4859:4886   */\n      swap1\n      pop\n        /* \"#utility.yul\":4806:4892   */\n      swap2\n      swap1\n      pop\n      jump\t// out\n        /* \"#utility.yul\":4898:5010   */\n    tag_454:\n        /* \"#utility.yul\":4981:5003   */\n      tag_563\n        /* \"#utility.yul\":4997:5002   */\n      dup2\n        /* \"#utility.yul\":4981:5003   */\n      tag_453\n      jump\t// in\n    tag_563:\n        /* \"#utility.yul\":4976:4979   */\n      dup3\n        /* \"#utility.yul\":4969:5004   */\n      mstore\n        /* \"#utility.yul\":4898:5010   */\n      pop\n      pop\n      jump\t// out\n        /* \"#utility.yul\":5016:5230   */\n    tag_90:\n        /* \"#utility.yul\":5105:5109   */\n      0x00\n        /* \"#utility.yul\":5143:5145   */\n      0x20\n        /* \"#utility.yul\":5132:5141   */\n      dup3\n        /* \"#utility.yul\":5128:5146   */\n      add\n        /* \"#utility.yul\":5120:5146   */\n      swap1\n      pop\n        /* \"#utility.yul\":5156:5223   */\n      tag_565\n        /* \"#utility.yul\":5220:5221   */\n      0x00\n        /* \"#utility.yul\":5209:5218   */\n      dup4\n        /* \"#utility.yul\":5205:5222   */\n      add\n        /* \"#utility.yul\":5196:5202   */\n      dup5\n        /* \"#utility.yul\":5156:5223   */\n      tag_454\n      jump\t// in\n    tag_565:\n        /* \"#utility.yul\":5016:5230   */\n      swap3\n      swap2\n      pop\n      pop\n      jump\t// out\n        /* \"#utility.yul\":5236:5352   */\n    tag_455:\n        /* \"#utility.yul\":5306:5327   */\n      tag_567\n        /* \"#utility.yul\":5321:5326   */\n      dup2\n        /* \"#utility.yul\":5306:5327   */\n      tag_451\n      jump\t// in\n    tag_567:\n        /* \"#utility.yul\":5299:5304   */\n      dup2\n        /* \"#utility.yul\":5296:5328   */\n      eq\n        /* \"#utility.yul\":5286:5346   */\n      tag_568\n      jumpi\n        /* \"#utility.yul\":5342:5343   */\n      0x00\n        /* \"#utility.yul\":5339:5340   */\n      dup1\n        /* \"#utility.yul\":5332:5344   */\n      revert\n        /* \"#utility.yul\":5286:5346   */\n    tag_568:\n        /* \"#utility.yul\":5236:5352   */\n      pop\n      jump\t// out\n        /* \"#utility.yul\":5358:5491   */\n    tag_456:\n        /* \"#utility.yul\":5401:5406   */\n      0x00\n        /* \"#utility.yul\":5439:5445   */\n      dup2\n        /* \"#utility.yul\":5426:5446   */\n      calldataload\n        /* \"#utility.yul\":5417:5446   */\n      swap1\n      pop\n        /* \"#utility.yul\":5455:5485   */\n      tag_570\n        /* \"#utility.yul\":5479:5484   */\n      dup2\n        /* \"#utility.yul\":5455:5485   */\n      tag_455\n      jump\t// in\n    tag_570:\n        /* \"#utility.yul\":5358:5491   */\n      swap3\n      swap2\n      pop\n      pop\n      jump\t// out\n        /* \"#utility.yul\":5497:5820   */\n    tag_93:\n        /* \"#utility.yul\":5553:5559   */\n      0x00\n        /* \"#utility.yul\":5602:5604   */\n      0x20\n        /* \"#utility.yul\":5590:5599   */\n      dup3\n        /* \"#utility.yul\":5581:5588   */\n      dup5\n        /* \"#utility.yul\":5577:5600   */\n      sub\n        /* \"#utility.yul\":5573:5605   */\n      slt\n        /* \"#utility.yul\":5570:5689   */\n      iszero\n      tag_572\n      jumpi\n        /* \"#utility.yul\":5608:5687   */\n      tag_573\n      tag_443\n      jump\t// in\n    tag_573:\n        /* \"#utility.yul\":5570:5689   */\n    tag_572:\n        /* \"#utility.yul\":5728:5729   */\n      0x00\n        /* \"#utility.yul\":5753:5803   */\n      tag_574\n        /* \"#utility.yul\":5795:5802   */\n      dup5\n        /* \"#utility.yul\":5786:5792   */\n      dup3\n        /* \"#utility.yul\":5775:5784   */\n      dup6\n        /* \"#utility.yul\":5771:5793   */\n      add\n        /* \"#utility.yul\":5753:5803   */\n      tag_456\n      jump\t// in\n    tag_574:\n        /* \"#utility.yul\":5743:5803   */\n      swap2\n      pop\n        /* \"#utility.yul\":5699:5813   */\n      pop\n        /* \"#utility.yul\":5497:5820   */\n      swap3\n      swap2\n      pop\n      pop\n      jump\t// out\n        /* \"#utility.yul\":5826:5903   */\n    tag_457:\n        /* \"#utility.yul\":5863:5870   */\n      0x00\n        /* \"#utility.yul\":5892:5897   */\n      dup2\n        /* \"#utility.yul\":5881:5897   */\n      swap1\n      pop\n        /* \"#utility.yul\":5826:5903   */\n      swap2\n      swap1\n      pop\n      jump\t// out\n        /* \"#utility.yul\":5909:6027   */\n    tag_458:\n        /* \"#utility.yul\":5996:6020   */\n      tag_577\n        /* \"#utility.yul\":6014:6019   */\n      dup2\n        /* \"#utility.yul\":5996:6020   */\n      tag_457\n      jump\t// in\n    tag_577:\n        /* \"#utility.yul\":5991:5994   */\n      dup3\n        /* \"#utility.yul\":5984:6021   */\n      mstore\n        /* \"#utility.yul\":5909:6027   */\n      pop\n      pop\n      jump\t// out\n        /* \"#utility.yul\":6033:6255   */\n    tag_98:\n        /* \"#utility.yul\":6126:6130   */\n      0x00\n        /* \"#utility.yul\":6164:6166   */\n      0x20\n        /* \"#utility.yul\":6153:6162   */\n      dup3\n        /* \"#utility.yul\":6149:6167   */\n      add\n        /* \"#utility.yul\":6141:6167   */\n      swap1\n      pop\n        /* \"#utility.yul\":6177:6248   */\n      tag_579\n        /* \"#utility.yul\":6245:6246   */\n      0x00\n        /* \"#utility.yul\":6234:6243   */\n      dup4\n        /* \"#utility.yul\":6230:6247   */\n      add\n        /* \"#utility.yul\":6221:6227   */\n      dup5\n        /* \"#utility.yul\":6177:6248   */\n      tag_458\n      jump\t// in\n    tag_579:\n        /* \"#utility.yul\":6033:6255   */\n      swap3\n      swap2\n      pop\n      pop\n      jump\t// out\n        /* \"#utility.yul\":6261:6321   */\n    tag_459:\n        /* \"#utility.yul\":6289:6292   */\n      0x00\n        /* \"#utility.yul\":6310:6315   */\n      dup2\n        /* \"#utility.yul\":6303:6315   */\n      swap1\n      pop\n        /* \"#utility.yul\":6261:6321   */\n      swap2\n      swap1\n      pop\n      jump\t// out\n        /* \"#utility.yul\":6327:6469   */\n    tag_460:\n        /* \"#utility.yul\":6377:6386   */\n      0x00\n        /* \"#utility.yul\":6410:6463   */\n      tag_582\n        /* \"#utility.yul\":6428:6462   */\n      tag_583\n        /* \"#utility.yul\":6437:6461   */\n      tag_584\n        /* \"#utility.yul\":6455:6460   */\n      dup5\n        /* \"#utility.yul\":6437:6461   */\n      tag_447\n      jump\t// in\n    tag_584:\n        /* \"#utility.yul\":6428:6462   */\n      tag_459\n      jump\t// in\n    tag_583:\n        /* \"#utility.yul\":6410:6463   */\n      tag_447\n      jump\t// in\n    tag_582:\n        /* \"#utility.yul\":6397:6463   */\n      swap1\n      pop\n        /* \"#utility.yul\":6327:6469   */\n      swap2\n      swap1\n      pop\n      jump\t// out\n        /* \"#utility.yul\":6475:6601   */\n    tag_461:\n        /* \"#utility.yul\":6525:6534   */\n      0x00\n        /* \"#utility.yul\":6558:6595   */\n      tag_586\n        /* \"#utility.yul\":6589:6594   */\n      dup3\n        /* \"#utility.yul\":6558:6595   */\n      tag_460\n      jump\t// in\n    tag_586:\n        /* \"#utility.yul\":6545:6595   */\n      swap1\n      pop\n        /* \"#utility.yul\":6475:6601   */\n      swap2\n      swap1\n      pop\n      jump\t// out\n        /* \"#utility.yul\":6607:6747   */\n    tag_462:\n        /* \"#utility.yul\":6671:6680   */\n      0x00\n        /* \"#utility.yul\":6704:6741   */\n      tag_588\n        /* \"#utility.yul\":6735:6740   */\n      dup3\n        /* \"#utility.yul\":6704:6741   */\n      tag_461\n      jump\t// in\n    tag_588:\n        /* \"#utility.yul\":6691:6741   */\n      swap1\n      pop\n        /* \"#utility.yul\":6607:6747   */\n      swap2\n      swap1\n      pop\n      jump\t// out\n        /* \"#utility.yul\":6753:6912   */\n    tag_463:\n        /* \"#utility.yul\":6854:6905   */\n      tag_590\n        /* \"#utility.yul\":6899:6904   */\n      dup2\n        /* \"#utility.yul\":6854:6905   */\n      tag_462\n      jump\t// in\n    tag_590:\n        /* \"#utility.yul\":6849:6852   */\n      dup3\n        /* \"#utility.yul\":6842:6906   */\n      mstore\n        /* \"#utility.yul\":6753:6912   */\n      pop\n      pop\n      jump\t// out\n        /* \"#utility.yul\":6918:7168   */\n    tag_102:\n        /* \"#utility.yul\":7025:7029   */\n      0x00\n        /* \"#utility.yul\":7063:7065   */\n      0x20\n        /* \"#utility.yul\":7052:7061   */\n      dup3\n        /* \"#utility.yul\":7048:7066   */\n      add\n        /* \"#utility.yul\":7040:7066   */\n      swap1\n      pop\n        /* \"#utility.yul\":7076:7161   */\n      tag_592\n        /* \"#utility.yul\":7158:7159   */\n      0x00\n        /* \"#utility.yul\":7147:7156   */\n      dup4\n        /* \"#utility.yul\":7143:7160   */\n      add\n        /* \"#utility.yul\":7134:7140   */\n      dup5\n        /* \"#utility.yul\":7076:7161   */\n      tag_463\n      jump\t// in\n    tag_592:\n        /* \"#utility.yul\":6918:7168   */\n      swap3\n      swap2\n      pop\n      pop\n      jump\t// out\n        /* \"#utility.yul\":7174:7503   */\n    tag_108:\n        /* \"#utility.yul\":7233:7239   */\n      0x00\n        /* \"#utility.yul\":7282:7284   */\n      0x20\n        /* \"#utility.yul\":7270:7279   */\n      dup3\n        /* \"#utility.yul\":7261:7268   */\n      dup5\n        /* \"#utility.yul\":7257:7280   */\n      sub\n        /* \"#utility.yul\":7253:7285   */\n      slt\n        /* \"#utility.yul\":7250:7369   */\n      iszero\n      tag_594\n      jumpi\n        /* \"#utility.yul\":7288:7367   */\n      tag_595\n      tag_443\n      jump\t// in\n    tag_595:\n        /* \"#utility.yul\":7250:7369   */\n    tag_594:\n        /* \"#utility.yul\":7408:7409   */\n      0x00\n        /* \"#utility.yul\":7433:7486   */\n      tag_596\n        /* \"#utility.yul\":7478:7485   */\n      dup5\n        /* \"#utility.yul\":7469:7475   */\n      dup3\n        /* \"#utility.yul\":7458:7467   */\n      dup6\n        /* \"#utility.yul\":7454:7476   */\n      add\n        /* \"#utility.yul\":7433:7486   */\n      tag_450\n      jump\t// in\n    tag_596:\n        /* \"#utility.yul\":7423:7486   */\n      swap2\n      pop\n        /* \"#utility.yul\":7379:7496   */\n      pop\n        /* \"#utility.yul\":7174:7503   */\n      swap3\n      swap2\n      pop\n      pop\n      jump\t// out\n        /* \"#utility.yul\":7509:7627   */\n    tag_464:\n        /* \"#utility.yul\":7596:7620   */\n      tag_598\n        /* \"#utility.yul\":7614:7619   */\n      dup2\n        /* \"#utility.yul\":7596:7620   */\n      tag_448\n      jump\t// in\n    tag_598:\n        /* \"#utility.yul\":7591:7594   */\n      dup3\n        /* \"#utility.yul\":7584:7621   */\n      mstore\n        /* \"#utility.yul\":7509:7627   */\n      pop\n      pop\n      jump\t// out\n        /* \"#utility.yul\":7633:7855   */\n    tag_114:\n        /* \"#utility.yul\":7726:7730   */\n      0x00\n        /* \"#utility.yul\":7764:7766   */\n      0x20\n        /* \"#utility.yul\":7753:7762   */\n      dup3\n        /* \"#utility.yul\":7749:7767   */\n      add\n        /* \"#utility.yul\":7741:7767   */\n      swap1\n      pop\n        /* \"#utility.yul\":7777:7848   */\n      tag_600\n        /* \"#utility.yul\":7845:7846   */\n      0x00\n        /* \"#utility.yul\":7834:7843   */\n      dup4\n        /* \"#utility.yul\":7830:7847   */\n      add\n        /* \"#utility.yul\":7821:7827   */\n      dup5\n        /* \"#utility.yul\":7777:7848   */\n      tag_464\n      jump\t// in\n    tag_600:\n        /* \"#utility.yul\":7633:7855   */\n      swap3\n      swap2\n      pop\n      pop\n      jump\t// out\n        /* \"#utility.yul\":7861:8335   */\n    tag_121:\n        /* \"#utility.yul\":7929:7935   */\n      0x00\n        /* \"#utility.yul\":7937:7943   */\n      dup1\n        /* \"#utility.yul\":7986:7988   */\n      0x40\n        /* \"#utility.yul\":7974:7983   */\n      dup4\n        /* \"#utility.yul\":7965:7972   */\n      dup6\n        /* \"#utility.yul\":7961:7984   */\n      sub\n        /* \"#utility.yul\":7957:7989   */\n      slt\n        /* \"#utility.yul\":7954:8073   */\n      iszero\n      tag_602\n      jumpi\n        /* \"#utility.yul\":7992:8071   */\n      tag_603\n      tag_443\n      jump\t// in\n    tag_603:\n        /* \"#utility.yul\":7954:8073   */\n    tag_602:\n        /* \"#utility.yul\":8112:8113   */\n      0x00\n        /* \"#utility.yul\":8137:8190   */\n      tag_604\n        /* \"#utility.yul\":8182:8189   */\n      dup6\n        /* \"#utility.yul\":8173:8179   */\n      dup3\n        /* \"#utility.yul\":8162:8171   */\n      dup7\n        /* \"#utility.yul\":8158:8180   */\n      add\n        /* \"#utility.yul\":8137:8190   */\n      tag_446\n      jump\t// in\n    tag_604:\n        /* \"#utility.yul\":8127:8190   */\n      swap3\n      pop\n        /* \"#utility.yul\":8083:8200   */\n      pop\n        /* \"#utility.yul\":8239:8241   */\n      0x20\n        /* \"#utility.yul\":8265:8318   */\n      tag_605\n        /* \"#utility.yul\":8310:8317   */\n      dup6\n        /* \"#utility.yul\":8301:8307   */\n      dup3\n        /* \"#utility.yul\":8290:8299   */\n      dup7\n        /* \"#utility.yul\":8286:8308   */\n      add\n        /* \"#utility.yul\":8265:8318   */\n      tag_450\n      jump\t// in\n    tag_605:\n        /* \"#utility.yul\":8255:8318   */\n      swap2\n      pop\n        /* \"#utility.yul\":8210:8328   */\n      pop\n        /* \"#utility.yul\":7861:8335   */\n      swap3\n      pop\n      swap3\n      swap1\n      pop\n      jump\t// out\n        /* \"#utility.yul\":8341:8960   */\n    tag_160:\n        /* \"#utility.yul\":8418:8424   */\n      0x00\n        /* \"#utility.yul\":8426:8432   */\n      dup1\n        /* \"#utility.yul\":8434:8440   */\n      0x00\n        /* \"#utility.yul\":8483:8485   */\n      0x60\n        /* \"#utility.yul\":8471:8480   */\n      dup5\n        /* \"#utility.yul\":8462:8469   */\n      dup7\n        /* \"#utility.yul\":8458:8481   */\n      sub\n        /* \"#utility.yul\":8454:8486   */\n      slt\n        /* \"#utility.yul\":8451:8570   */\n      iszero\n      tag_607\n      jumpi\n        /* \"#utility.yul\":8489:8568   */\n      tag_608\n      tag_443\n      jump\t// in\n    tag_608:\n        /* \"#utility.yul\":8451:8570   */\n    tag_607:\n        /* \"#utility.yul\":8609:8610   */\n      0x00\n        /* \"#utility.yul\":8634:8687   */\n      tag_609\n        /* \"#utility.yul\":8679:8686   */\n      dup7\n        /* \"#utility.yul\":8670:8676   */\n      dup3\n        /* \"#utility.yul\":8659:8668   */\n      dup8\n        /* \"#utility.yul\":8655:8677   */\n      add\n        /* \"#utility.yul\":8634:8687   */\n      tag_446\n      jump\t// in\n    tag_609:\n        /* \"#utility.yul\":8624:8687   */\n      swap4\n      pop\n        /* \"#utility.yul\":8580:8697   */\n      pop\n        /* \"#utility.yul\":8736:8738   */\n      0x20\n        /* \"#utility.yul\":8762:8815   */\n      tag_610\n        /* \"#utility.yul\":8807:8814   */\n      dup7\n        /* \"#utility.yul\":8798:8804   */\n      dup3\n        /* \"#utility.yul\":8787:8796   */\n      dup8\n        /* \"#utility.yul\":8783:8805   */\n      add\n        /* \"#utility.yul\":8762:8815   */\n      tag_450\n      jump\t// in\n    tag_610:\n        /* \"#utility.yul\":8752:8815   */\n      swap3\n      pop\n        /* \"#utility.yul\":8707:8825   */\n      pop\n        /* \"#utility.yul\":8864:8866   */\n      0x40\n        /* \"#utility.yul\":8890:8943   */\n      tag_611\n        /* \"#utility.yul\":8935:8942   */\n      dup7\n        /* \"#utility.yul\":8926:8932   */\n      dup3\n        /* \"#utility.yul\":8915:8924   */\n      dup8\n        /* \"#utility.yul\":8911:8933   */\n      add\n        /* \"#utility.yul\":8890:8943   */\n      tag_450\n      jump\t// in\n    tag_611:\n        /* \"#utility.yul\":8880:8943   */\n      swap2\n      pop\n        /* \"#utility.yul\":8835:8953   */\n      pop\n        /* \"#utility.yul\":8341:8960   */\n      swap3\n      pop\n      swap3\n      pop\n      swap3\n      jump\t// out\n        /* \"#utility.yul\":8966:9084   */\n    tag_465:\n        /* \"#utility.yul\":9037:9059   */\n      tag_613\n        /* \"#utility.yul\":9053:9058   */\n      dup2\n        /* \"#utility.yul\":9037:9059   */\n      tag_453\n      jump\t// in\n    tag_613:\n        /* \"#utility.yul\":9030:9035   */\n      dup2\n        /* \"#utility.yul\":9027:9060   */\n      eq\n        /* \"#utility.yul\":9017:9078   */\n      tag_614\n      jumpi\n        /* \"#utility.yul\":9074:9075   */\n      0x00\n        /* \"#utility.yul\":9071:9072   */\n      dup1\n        /* \"#utility.yul\":9064:9076   */\n      revert\n        /* \"#utility.yul\":9017:9078   */\n    tag_614:\n        /* \"#utility.yul\":8966:9084   */\n      pop\n      jump\t// out\n        /* \"#utility.yul\":9090:9225   */\n    tag_466:\n        /* \"#utility.yul\":9134:9139   */\n      0x00\n        /* \"#utility.yul\":9172:9178   */\n      dup2\n        /* \"#utility.yul\":9159:9179   */\n      calldataload\n        /* \"#utility.yul\":9150:9179   */\n      swap1\n      pop\n        /* \"#utility.yul\":9188:9219   */\n      tag_616\n        /* \"#utility.yul\":9213:9218   */\n      dup2\n        /* \"#utility.yul\":9188:9219   */\n      tag_465\n      jump\t// in\n    tag_616:\n        /* \"#utility.yul\":9090:9225   */\n      swap3\n      swap2\n      pop\n      pop\n      jump\t// out\n        /* \"#utility.yul\":9231:9353   */\n    tag_467:\n        /* \"#utility.yul\":9304:9328   */\n      tag_618\n        /* \"#utility.yul\":9322:9327   */\n      dup2\n        /* \"#utility.yul\":9304:9328   */\n      tag_457\n      jump\t// in\n    tag_618:\n        /* \"#utility.yul\":9297:9302   */\n      dup2\n        /* \"#utility.yul\":9294:9329   */\n      eq\n        /* \"#utility.yul\":9284:9347   */\n      tag_619\n      jumpi\n        /* \"#utility.yul\":9343:9344   */\n      0x00\n        /* \"#utility.yul\":9340:9341   */\n      dup1\n        /* \"#utility.yul\":9333:9345   */\n      revert\n        /* \"#utility.yul\":9284:9347   */\n    tag_619:\n        /* \"#utility.yul\":9231:9353   */\n      pop\n      jump\t// out\n        /* \"#utility.yul\":9359:9498   */\n    tag_468:\n        /* \"#utility.yul\":9405:9410   */\n      0x00\n        /* \"#utility.yul\":9443:9449   */\n      dup2\n        /* \"#utility.yul\":9430:9450   */\n      calldataload\n        /* \"#utility.yul\":9421:9450   */\n      swap1\n      pop\n        /* \"#utility.yul\":9459:9492   */\n      tag_621\n        /* \"#utility.yul\":9486:9491   */\n      dup2\n        /* \"#utility.yul\":9459:9492   */\n      tag_467\n      jump\t// in\n    tag_621:\n        /* \"#utility.yul\":9359:9498   */\n      swap3\n      swap2\n      pop\n      pop\n      jump\t// out\n        /* \"#utility.yul\":9504:10703   */\n    tag_190:\n        /* \"#utility.yul\":9615:9621   */\n      0x00\n        /* \"#utility.yul\":9623:9629   */\n      dup1\n        /* \"#utility.yul\":9631:9637   */\n      0x00\n        /* \"#utility.yul\":9639:9645   */\n      dup1\n        /* \"#utility.yul\":9647:9653   */\n      0x00\n        /* \"#utility.yul\":9655:9661   */\n      dup1\n        /* \"#utility.yul\":9663:9669   */\n      0x00\n        /* \"#utility.yul\":9712:9715   */\n      0xe0\n        /* \"#utility.yul\":9700:9709   */\n      dup9\n        /* \"#utility.yul\":9691:9698   */\n      dup11\n        /* \"#utility.yul\":9687:9710   */\n      sub\n        /* \"#utility.yul\":9683:9716   */\n      slt\n        /* \"#utility.yul\":9680:9800   */\n      iszero\n      tag_623\n      jumpi\n        /* \"#utility.yul\":9719:9798   */\n      tag_624\n      tag_443\n      jump\t// in\n    tag_624:\n        /* \"#utility.yul\":9680:9800   */\n    tag_623:\n        /* \"#utility.yul\":9839:9840   */\n      0x00\n        /* \"#utility.yul\":9864:9917   */\n      tag_625\n        /* \"#utility.yul\":9909:9916   */\n      dup11\n        /* \"#utility.yul\":9900:9906   */\n      dup3\n        /* \"#utility.yul\":9889:9898   */\n      dup12\n        /* \"#utility.yul\":9885:9907   */\n      add\n        /* \"#utility.yul\":9864:9917   */\n      tag_450\n      jump\t// in\n    tag_625:\n        /* \"#utility.yul\":9854:9917   */\n      swap8\n      pop\n        /* \"#utility.yul\":9810:9927   */\n      pop\n        /* \"#utility.yul\":9966:9968   */\n      0x20\n        /* \"#utility.yul\":9992:10045   */\n      tag_626\n        /* \"#utility.yul\":10037:10044   */\n      dup11\n        /* \"#utility.yul\":10028:10034   */\n      dup3\n        /* \"#utility.yul\":10017:10026   */\n      dup12\n        /* \"#utility.yul\":10013:10035   */\n      add\n        /* \"#utility.yul\":9992:10045   */\n      tag_450\n      jump\t// in\n    tag_626:\n        /* \"#utility.yul\":9982:10045   */\n      swap7\n      pop\n        /* \"#utility.yul\":9937:10055   */\n      pop\n        /* \"#utility.yul\":10094:10096   */\n      0x40\n        /* \"#utility.yul\":10120:10173   */\n      tag_627\n        /* \"#utility.yul\":10165:10172   */\n      dup11\n        /* \"#utility.yul\":10156:10162   */\n      dup3\n        /* \"#utility.yul\":10145:10154   */\n      dup12\n        /* \"#utility.yul\":10141:10163   */\n      add\n        /* \"#utility.yul\":10120:10173   */\n      tag_446\n      jump\t// in\n    tag_627:\n        /* \"#utility.yul\":10110:10173   */\n      swap6\n      pop\n        /* \"#utility.yul\":10065:10183   */\n      pop\n        /* \"#utility.yul\":10222:10224   */\n      0x60\n        /* \"#utility.yul\":10248:10301   */\n      tag_628\n        /* \"#utility.yul\":10293:10300   */\n      dup11\n        /* \"#utility.yul\":10284:10290   */\n      dup3\n        /* \"#utility.yul\":10273:10282   */\n      dup12\n        /* \"#utility.yul\":10269:10291   */\n      add\n        /* \"#utility.yul\":10248:10301   */\n      tag_446\n      jump\t// in\n    tag_628:\n        /* \"#utility.yul\":10238:10301   */\n      swap5\n      pop\n        /* \"#utility.yul\":10193:10311   */\n      pop\n        /* \"#utility.yul\":10350:10353   */\n      0x80\n        /* \"#utility.yul\":10377:10428   */\n      tag_629\n        /* \"#utility.yul\":10420:10427   */\n      dup11\n        /* \"#utility.yul\":10411:10417   */\n      dup3\n        /* \"#utility.yul\":10400:10409   */\n      dup12\n        /* \"#utility.yul\":10396:10418   */\n      add\n        /* \"#utility.yul\":10377:10428   */\n      tag_466\n      jump\t// in\n    tag_629:\n        /* \"#utility.yul\":10367:10428   */\n      swap4\n      pop\n        /* \"#utility.yul\":10321:10438   */\n      pop\n        /* \"#utility.yul\":10477:10480   */\n      0xa0\n        /* \"#utility.yul\":10504:10557   */\n      tag_630\n        /* \"#utility.yul\":10549:10556   */\n      dup11\n        /* \"#utility.yul\":10540:10546   */\n      dup3\n        /* \"#utility.yul\":10529:10538   */\n      dup12\n        /* \"#utility.yul\":10525:10547   */\n      add\n        /* \"#utility.yul\":10504:10557   */\n      tag_468\n      jump\t// in\n    tag_630:\n        /* \"#utility.yul\":10494:10557   */\n      swap3\n      pop\n        /* \"#utility.yul\":10448:10567   */\n      pop\n        /* \"#utility.yul\":10606:10609   */\n      0xc0\n        /* \"#utility.yul\":10633:10686   */\n      tag_631\n        /* \"#utility.yul\":10678:10685   */\n      dup11\n        /* \"#utility.yul\":10669:10675   */\n      dup3\n        /* \"#utility.yul\":10658:10667   */\n      dup12\n        /* \"#utility.yul\":10654:10676   */\n      add\n        /* \"#utility.yul\":10633:10686   */\n      tag_468\n      jump\t// in\n    tag_631:\n        /* \"#utility.yul\":10623:10686   */\n      swap2\n      pop\n        /* \"#utility.yul\":10577:10696   */\n      pop\n        /* \"#utility.yul\":9504:10703   */\n      swap3\n      swap6\n      swap9\n      swap2\n      swap5\n      swap8\n      pop\n      swap3\n      swap6\n      pop\n      jump\t// out\n        /* \"#utility.yul\":10709:11183   */\n    tag_198:\n        /* \"#utility.yul\":10777:10783   */\n      0x00\n        /* \"#utility.yul\":10785:10791   */\n      dup1\n        /* \"#utility.yul\":10834:10836   */\n      0x40\n        /* \"#utility.yul\":10822:10831   */\n      dup4\n        /* \"#utility.yul\":10813:10820   */\n      dup6\n        /* \"#utility.yul\":10809:10832   */\n      sub\n        /* \"#utility.yul\":10805:10837   */\n      slt\n        /* \"#utility.yul\":10802:10921   */\n      iszero\n      tag_633\n      jumpi\n        /* \"#utility.yul\":10840:10919   */\n      tag_634\n      tag_443\n      jump\t// in\n    tag_634:\n        /* \"#utility.yul\":10802:10921   */\n    tag_633:\n        /* \"#utility.yul\":10960:10961   */\n      0x00\n        /* \"#utility.yul\":10985:11038   */\n      tag_635\n        /* \"#utility.yul\":11030:11037   */\n      dup6\n        /* \"#utility.yul\":11021:11027   */\n      dup3\n        /* \"#utility.yul\":11010:11019   */\n      dup7\n        /* \"#utility.yul\":11006:11028   */\n      add\n        /* \"#utility.yul\":10985:11038   */\n      tag_450\n      jump\t// in\n    tag_635:\n        /* \"#utility.yul\":10975:11038   */\n      swap3\n      pop\n        /* \"#utility.yul\":10931:11048   */\n      pop\n        /* \"#utility.yul\":11087:11089   */\n      0x20\n        /* \"#utility.yul\":11113:11166   */\n      tag_636\n        /* \"#utility.yul\":11158:11165   */\n      dup6\n        /* \"#utility.yul\":11149:11155   */\n      dup3\n        /* \"#utility.yul\":11138:11147   */\n      dup7\n        /* \"#utility.yul\":11134:11156   */\n      add\n        /* \"#utility.yul\":11113:11166   */\n      tag_450\n      jump\t// in\n    tag_636:\n        /* \"#utility.yul\":11103:11166   */\n      swap2\n      pop\n        /* \"#utility.yul\":11058:11176   */\n      pop\n        /* \"#utility.yul\":10709:11183   */\n      swap3\n      pop\n      swap3\n      swap1\n      pop\n      jump\t// out\n        /* \"#utility.yul\":11189:11332   */\n    tag_469:\n        /* \"#utility.yul\":11246:11251   */\n      0x00\n        /* \"#utility.yul\":11277:11283   */\n      dup2\n        /* \"#utility.yul\":11271:11284   */\n      mload\n        /* \"#utility.yul\":11262:11284   */\n      swap1\n      pop\n        /* \"#utility.yul\":11293:11326   */\n      tag_638\n        /* \"#utility.yul\":11320:11325   */\n      dup2\n        /* \"#utility.yul\":11293:11326   */\n      tag_445\n      jump\t// in\n    tag_638:\n        /* \"#utility.yul\":11189:11332   */\n      swap3\n      swap2\n      pop\n      pop\n      jump\t// out\n        /* \"#utility.yul\":11338:11689   */\n    tag_223:\n        /* \"#utility.yul\":11408:11414   */\n      0x00\n        /* \"#utility.yul\":11457:11459   */\n      0x20\n        /* \"#utility.yul\":11445:11454   */\n      dup3\n        /* \"#utility.yul\":11436:11443   */\n      dup5\n        /* \"#utility.yul\":11432:11455   */\n      sub\n        /* \"#utility.yul\":11428:11460   */\n      slt\n        /* \"#utility.yul\":11425:11544   */\n      iszero\n      tag_640\n      jumpi\n        /* \"#utility.yul\":11463:11542   */\n      tag_641\n      tag_443\n      jump\t// in\n    tag_641:\n        /* \"#utility.yul\":11425:11544   */\n    tag_640:\n        /* \"#utility.yul\":11583:11584   */\n      0x00\n        /* \"#utility.yul\":11608:11672   */\n      tag_642\n        /* \"#utility.yul\":11664:11671   */\n      dup5\n        /* \"#utility.yul\":11655:11661   */\n      dup3\n        /* \"#utility.yul\":11644:11653   */\n      dup6\n        /* \"#utility.yul\":11640:11662   */\n      add\n        /* \"#utility.yul\":11608:11672   */\n      tag_469\n      jump\t// in\n    tag_642:\n        /* \"#utility.yul\":11598:11672   */\n      swap2\n      pop\n        /* \"#utility.yul\":11554:11682   */\n      pop\n        /* \"#utility.yul\":11338:11689   */\n      swap3\n      swap2\n      pop\n      pop\n      jump\t// out\n        /* \"#utility.yul\":11695:11875   */\n    tag_470:\n        /* \"#utility.yul\":11743:11820   */\n      0x4e487b7100000000000000000000000000000000000000000000000000000000\n        /* \"#utility.yul\":11740:11741   */\n      0x00\n        /* \"#utility.yul\":11733:11821   */\n      mstore\n        /* \"#utility.yul\":11840:11844   */\n      0x22\n        /* \"#utility.yul\":11837:11838   */\n      0x04\n        /* \"#utility.yul\":11830:11845   */\n      mstore\n        /* \"#utility.yul\":11864:11868   */\n      0x24\n        /* \"#utility.yul\":11861:11862   */\n      0x00\n        /* \"#utility.yul\":11854:11869   */\n      revert\n        /* \"#utility.yul\":11881:12201   */\n    tag_225:\n        /* \"#utility.yul\":11925:11931   */\n      0x00\n        /* \"#utility.yul\":11962:11963   */\n      0x02\n        /* \"#utility.yul\":11956:11960   */\n      dup3\n        /* \"#utility.yul\":11952:11964   */\n      div\n        /* \"#utility.yul\":11942:11964   */\n      swap1\n      pop\n        /* \"#utility.yul\":12009:12010   */\n      0x01\n        /* \"#utility.yul\":12003:12007   */\n      dup3\n        /* \"#utility.yul\":11999:12011   */\n      and\n        /* \"#utility.yul\":12030:12048   */\n      dup1\n        /* \"#utility.yul\":12020:12101   */\n      tag_645\n      jumpi\n        /* \"#utility.yul\":12086:12090   */\n      0x7f\n        /* \"#utility.yul\":12078:12084   */\n      dup3\n        /* \"#utility.yul\":12074:12091   */\n      and\n        /* \"#utility.yul\":12064:12091   */\n      swap2\n      pop\n        /* \"#utility.yul\":12020:12101   */\n    tag_645:\n        /* \"#utility.yul\":12148:12150   */\n      0x20\n        /* \"#utility.yul\":12140:12146   */\n      dup3\n        /* \"#utility.yul\":12137:12151   */\n      lt\n        /* \"#utility.yul\":12117:12135   */\n      dup2\n        /* \"#utility.yul\":12114:12152   */\n      eq\n        /* \"#utility.yul\":12111:12195   */\n      iszero\n      tag_646\n      jumpi\n        /* \"#utility.yul\":12167:12185   */\n      tag_647\n      tag_470\n      jump\t// in\n    tag_647:\n        /* \"#utility.yul\":12111:12195   */\n    tag_646:\n        /* \"#utility.yul\":11932:12201   */\n      pop\n        /* \"#utility.yul\":11881:12201   */\n      swap2\n      swap1\n      pop\n      jump\t// out\n        /* \"#utility.yul\":12207:12387   */\n    tag_471:\n        /* \"#utility.yul\":12255:12332   */\n      0x4e487b7100000000000000000000000000000000000000000000000000000000\n        /* \"#utility.yul\":12252:12253   */\n      0x00\n        /* \"#utility.yul\":12245:12333   */\n      mstore\n        /* \"#utility.yul\":12352:12356   */\n      0x11\n        /* \"#utility.yul\":12349:12350   */\n      0x04\n        /* \"#utility.yul\":12342:12357   */\n      mstore\n        /* \"#utility.yul\":12376:12380   */\n      0x24\n        /* \"#utility.yul\":12373:12374   */\n      0x00\n        /* \"#utility.yul\":12366:12381   */\n      revert\n        /* \"#utility.yul\":12393:12584   */\n    tag_247:\n        /* \"#utility.yul\":12433:12437   */\n      0x00\n        /* \"#utility.yul\":12453:12473   */\n      tag_650\n        /* \"#utility.yul\":12471:12472   */\n      dup3\n        /* \"#utility.yul\":12453:12473   */\n      tag_435\n      jump\t// in\n    tag_650:\n        /* \"#utility.yul\":12448:12473   */\n      swap2\n      pop\n        /* \"#utility.yul\":12487:12507   */\n      tag_651\n        /* \"#utility.yul\":12505:12506   */\n      dup4\n        /* \"#utility.yul\":12487:12507   */\n      tag_435\n      jump\t// in\n    tag_651:\n        /* \"#utility.yul\":12482:12507   */\n      swap3\n      pop\n        /* \"#utility.yul\":12526:12527   */\n      dup3\n        /* \"#utility.yul\":12523:12524   */\n      dup3\n        /* \"#utility.yul\":12520:12528   */\n      lt\n        /* \"#utility.yul\":12517:12551   */\n      iszero\n      tag_652\n      jumpi\n        /* \"#utility.yul\":12531:12549   */\n      tag_653\n      tag_471\n      jump\t// in\n    tag_653:\n        /* \"#utility.yul\":12517:12551   */\n    tag_652:\n        /* \"#utility.yul\":12576:12577   */\n      dup3\n        /* \"#utility.yul\":12573:12574   */\n      dup3\n        /* \"#utility.yul\":12569:12578   */\n      sub\n        /* \"#utility.yul\":12561:12578   */\n      swap1\n      pop\n        /* \"#utility.yul\":12393:12584   */\n      swap3\n      swap2\n      pop\n      pop\n      jump\t// out\n        /* \"#utility.yul\":12590:12811   */\n    tag_472:\n        /* \"#utility.yul\":12730:12764   */\n      0x4f776e61626c653a2063616c6c6572206973206e6f7420746865206d616e6167\n        /* \"#utility.yul\":12726:12727   */\n      0x00\n        /* \"#utility.yul\":12718:12724   */\n      dup3\n        /* \"#utility.yul\":12714:12728   */\n      add\n        /* \"#utility.yul\":12707:12765   */\n      mstore\n        /* \"#utility.yul\":12799:12803   */\n      0x6572000000000000000000000000000000000000000000000000000000000000\n        /* \"#utility.yul\":12794:12796   */\n      0x20\n        /* \"#utility.yul\":12786:12792   */\n      dup3\n        /* \"#utility.yul\":12782:12797   */\n      add\n        /* \"#utility.yul\":12775:12804   */\n      mstore\n        /* \"#utility.yul\":12590:12811   */\n      pop\n      jump\t// out\n        /* \"#utility.yul\":12817:13183   */\n    tag_473:\n        /* \"#utility.yul\":12959:12962   */\n      0x00\n        /* \"#utility.yul\":12980:13047   */\n      tag_656\n        /* \"#utility.yul\":13044:13046   */\n      0x22\n        /* \"#utility.yul\":13039:13042   */\n      dup4\n        /* \"#utility.yul\":12980:13047   */\n      tag_438\n      jump\t// in\n    tag_656:\n        /* \"#utility.yul\":12973:13047   */\n      swap2\n      pop\n        /* \"#utility.yul\":13056:13149   */\n      tag_657\n        /* \"#utility.yul\":13145:13148   */\n      dup3\n        /* \"#utility.yul\":13056:13149   */\n      tag_472\n      jump\t// in\n    tag_657:\n        /* \"#utility.yul\":13174:13176   */\n      0x40\n        /* \"#utility.yul\":13169:13172   */\n      dup3\n        /* \"#utility.yul\":13165:13177   */\n      add\n        /* \"#utility.yul\":13158:13177   */\n      swap1\n      pop\n        /* \"#utility.yul\":12817:13183   */\n      swap2\n      swap1\n      pop\n      jump\t// out\n        /* \"#utility.yul\":13189:13608   */\n    tag_254:\n        /* \"#utility.yul\":13355:13359   */\n      0x00\n        /* \"#utility.yul\":13393:13395   */\n      0x20\n        /* \"#utility.yul\":13382:13391   */\n      dup3\n        /* \"#utility.yul\":13378:13396   */\n      add\n        /* \"#utility.yul\":13370:13396   */\n      swap1\n      pop\n        /* \"#utility.yul\":13442:13451   */\n      dup2\n        /* \"#utility.yul\":13436:13440   */\n      dup2\n        /* \"#utility.yul\":13432:13452   */\n      sub\n        /* \"#utility.yul\":13428:13429   */\n      0x00\n        /* \"#utility.yul\":13417:13426   */\n      dup4\n        /* \"#utility.yul\":13413:13430   */\n      add\n        /* \"#utility.yul\":13406:13453   */\n      mstore\n        /* \"#utility.yul\":13470:13601   */\n      tag_659\n        /* \"#utility.yul\":13596:13600   */\n      dup2\n        /* \"#utility.yul\":13470:13601   */\n      tag_473\n      jump\t// in\n    tag_659:\n        /* \"#utility.yul\":13462:13601   */\n      swap1\n      pop\n        /* \"#utility.yul\":13189:13608   */\n      swap2\n      swap1\n      pop\n      jump\t// out\n        /* \"#utility.yul\":13614:13753   */\n    tag_474:\n        /* \"#utility.yul\":13669:13674   */\n      0x00\n        /* \"#utility.yul\":13700:13706   */\n      dup2\n        /* \"#utility.yul\":13694:13707   */\n      mload\n        /* \"#utility.yul\":13685:13707   */\n      swap1\n      pop\n        /* \"#utility.yul\":13716:13747   */\n      tag_661\n        /* \"#utility.yul\":13741:13746   */\n      dup2\n        /* \"#utility.yul\":13716:13747   */\n      tag_465\n      jump\t// in\n    tag_661:\n        /* \"#utility.yul\":13614:13753   */\n      swap3\n      swap2\n      pop\n      pop\n      jump\t// out\n        /* \"#utility.yul\":13759:14106   */\n    tag_261:\n        /* \"#utility.yul\":13827:13833   */\n      0x00\n        /* \"#utility.yul\":13876:13878   */\n      0x20\n        /* \"#utility.yul\":13864:13873   */\n      dup3\n        /* \"#utility.yul\":13855:13862   */\n      dup5\n        /* \"#utility.yul\":13851:13874   */\n      sub\n        /* \"#utility.yul\":13847:13879   */\n      slt\n        /* \"#utility.yul\":13844:13963   */\n      iszero\n      tag_663\n      jumpi\n        /* \"#utility.yul\":13882:13961   */\n      tag_664\n      tag_443\n      jump\t// in\n    tag_664:\n        /* \"#utility.yul\":13844:13963   */\n    tag_663:\n        /* \"#utility.yul\":14002:14003   */\n      0x00\n        /* \"#utility.yul\":14027:14089   */\n      tag_665\n        /* \"#utility.yul\":14081:14088   */\n      dup5\n        /* \"#utility.yul\":14072:14078   */\n      dup3\n        /* \"#utility.yul\":14061:14070   */\n      dup6\n        /* \"#utility.yul\":14057:14079   */\n      add\n        /* \"#utility.yul\":14027:14089   */\n      tag_474\n      jump\t// in\n    tag_665:\n        /* \"#utility.yul\":14017:14089   */\n      swap2\n      pop\n        /* \"#utility.yul\":13973:14099   */\n      pop\n        /* \"#utility.yul\":13759:14106   */\n      swap3\n      swap2\n      pop\n      pop\n      jump\t// out\n        /* \"#utility.yul\":14112:14276   */\n    tag_475:\n        /* \"#utility.yul\":14252:14268   */\n      0x57524f4e475f444543494d414c53000000000000000000000000000000000000\n        /* \"#utility.yul\":14248:14249   */\n      0x00\n        /* \"#utility.yul\":14240:14246   */\n      dup3\n        /* \"#utility.yul\":14236:14250   */\n      add\n        /* \"#utility.yul\":14229:14269   */\n      mstore\n        /* \"#utility.yul\":14112:14276   */\n      pop\n      jump\t// out\n        /* \"#utility.yul\":14282:14648   */\n    tag_476:\n        /* \"#utility.yul\":14424:14427   */\n      0x00\n        /* \"#utility.yul\":14445:14512   */\n      tag_668\n        /* \"#utility.yul\":14509:14511   */\n      0x0e\n        /* \"#utility.yul\":14504:14507   */\n      dup4\n        /* \"#utility.yul\":14445:14512   */\n      tag_438\n      jump\t// in\n    tag_668:\n        /* \"#utility.yul\":14438:14512   */\n      swap2\n      pop\n        /* \"#utility.yul\":14521:14614   */\n      tag_669\n        /* \"#utility.yul\":14610:14613   */\n      dup3\n        /* \"#utility.yul\":14521:14614   */\n      tag_475\n      jump\t// in\n    tag_669:\n        /* \"#utility.yul\":14639:14641   */\n      0x20\n        /* \"#utility.yul\":14634:14637   */\n      dup3\n        /* \"#utility.yul\":14630:14642   */\n      add\n        /* \"#utility.yul\":14623:14642   */\n      swap1\n      pop\n        /* \"#utility.yul\":14282:14648   */\n      swap2\n      swap1\n      pop\n      jump\t// out\n        /* \"#utility.yul\":14654:15073   */\n    tag_264:\n        /* \"#utility.yul\":14820:14824   */\n      0x00\n        /* \"#utility.yul\":14858:14860   */\n      0x20\n        /* \"#utility.yul\":14847:14856   */\n      dup3\n        /* \"#utility.yul\":14843:14861   */\n      add\n        /* \"#utility.yul\":14835:14861   */\n      swap1\n      pop\n        /* \"#utility.yul\":14907:14916   */\n      dup2\n        /* \"#utility.yul\":14901:14905   */\n      dup2\n        /* \"#utility.yul\":14897:14917   */\n      sub\n        /* \"#utility.yul\":14893:14894   */\n      0x00\n        /* \"#utility.yul\":14882:14891   */\n      dup4\n        /* \"#utility.yul\":14878:14895   */\n      add\n        /* \"#utility.yul\":14871:14918   */\n      mstore\n        /* \"#utility.yul\":14935:15066   */\n      tag_671\n        /* \"#utility.yul\":15061:15065   */\n      dup2\n        /* \"#utility.yul\":14935:15066   */\n      tag_476\n      jump\t// in\n    tag_671:\n        /* \"#utility.yul\":14927:15066   */\n      swap1\n      pop\n        /* \"#utility.yul\":14654:15073   */\n      swap2\n      swap1\n      pop\n      jump\t// out\n        /* \"#utility.yul\":15079:15240   */\n    tag_477:\n        /* \"#utility.yul\":15219:15232   */\n      0x5a45524f5f534841524553000000000000000000000000000000000000000000\n        /* \"#utility.yul\":15215:15216   */\n      0x00\n        /* \"#utility.yul\":15207:15213   */\n      dup3\n        /* \"#utility.yul\":15203:15217   */\n      add\n        /* \"#utility.yul\":15196:15233   */\n      mstore\n        /* \"#utility.yul\":15079:15240   */\n      pop\n      jump\t// out\n        /* \"#utility.yul\":15246:15612   */\n    tag_478:\n        /* \"#utility.yul\":15388:15391   */\n      0x00\n        /* \"#utility.yul\":15409:15476   */\n      tag_674\n        /* \"#utility.yul\":15473:15475   */\n      0x0b\n        /* \"#utility.yul\":15468:15471   */\n      dup4\n        /* \"#utility.yul\":15409:15476   */\n      tag_438\n      jump\t// in\n    tag_674:\n        /* \"#utility.yul\":15402:15476   */\n      swap2\n      pop\n        /* \"#utility.yul\":15485:15578   */\n      tag_675\n        /* \"#utility.yul\":15574:15577   */\n      dup3\n        /* \"#utility.yul\":15485:15578   */\n      tag_477\n      jump\t// in\n    tag_675:\n        /* \"#utility.yul\":15603:15605   */\n      0x20\n        /* \"#utility.yul\":15598:15601   */\n      dup3\n        /* \"#utility.yul\":15594:15606   */\n      add\n        /* \"#utility.yul\":15587:15606   */\n      swap1\n      pop\n        /* \"#utility.yul\":15246:15612   */\n      swap2\n      swap1\n      pop\n      jump\t// out\n        /* \"#utility.yul\":15618:16037   */\n    tag_281:\n        /* \"#utility.yul\":15784:15788   */\n      0x00\n        /* \"#utility.yul\":15822:15824   */\n      0x20\n        /* \"#utility.yul\":15811:15820   */\n      dup3\n        /* \"#utility.yul\":15807:15825   */\n      add\n        /* \"#utility.yul\":15799:15825   */\n      swap1\n      pop\n        /* \"#utility.yul\":15871:15880   */\n      dup2\n        /* \"#utility.yul\":15865:15869   */\n      dup2\n        /* \"#utility.yul\":15861:15881   */\n      sub\n        /* \"#utility.yul\":15857:15858   */\n      0x00\n        /* \"#utility.yul\":15846:15855   */\n      dup4\n        /* \"#utility.yul\":15842:15859   */\n      add\n        /* \"#utility.yul\":15835:15882   */\n      mstore\n        /* \"#utility.yul\":15899:16030   */\n      tag_677\n        /* \"#utility.yul\":16025:16029   */\n      dup2\n        /* \"#utility.yul\":15899:16030   */\n      tag_478\n      jump\t// in\n    tag_677:\n        /* \"#utility.yul\":15891:16030   */\n      swap1\n      pop\n        /* \"#utility.yul\":15618:16037   */\n      swap2\n      swap1\n      pop\n      jump\t// out\n        /* \"#utility.yul\":16043:16375   */\n    tag_287:\n        /* \"#utility.yul\":16164:16168   */\n      0x00\n        /* \"#utility.yul\":16202:16204   */\n      0x40\n        /* \"#utility.yul\":16191:16200   */\n      dup3\n        /* \"#utility.yul\":16187:16205   */\n      add\n        /* \"#utility.yul\":16179:16205   */\n      swap1\n      pop\n        /* \"#utility.yul\":16215:16286   */\n      tag_679\n        /* \"#utility.yul\":16283:16284   */\n      0x00\n        /* \"#utility.yul\":16272:16281   */\n      dup4\n        /* \"#utility.yul\":16268:16285   */\n      add\n        /* \"#utility.yul\":16259:16265   */\n      dup6\n        /* \"#utility.yul\":16215:16286   */\n      tag_436\n      jump\t// in\n    tag_679:\n        /* \"#utility.yul\":16296:16368   */\n      tag_680\n        /* \"#utility.yul\":16364:16366   */\n      0x20\n        /* \"#utility.yul\":16353:16362   */\n      dup4\n        /* \"#utility.yul\":16349:16367   */\n      add\n        /* \"#utility.yul\":16340:16346   */\n      dup5\n        /* \"#utility.yul\":16296:16368   */\n      tag_436\n      jump\t// in\n    tag_680:\n        /* \"#utility.yul\":16043:16375   */\n      swap4\n      swap3\n      pop\n      pop\n      pop\n      jump\t// out\n        /* \"#utility.yul\":16381:16543   */\n    tag_479:\n        /* \"#utility.yul\":16521:16535   */\n      0x4645455f544f4f5f484947480000000000000000000000000000000000000000\n        /* \"#utility.yul\":16517:16518   */\n      0x00\n        /* \"#utility.yul\":16509:16515   */\n      dup3\n        /* \"#utility.yul\":16505:16519   */\n      add\n        /* \"#utility.yul\":16498:16536   */\n      mstore\n        /* \"#utility.yul\":16381:16543   */\n      pop\n      jump\t// out\n        /* \"#utility.yul\":16549:16915   */\n    tag_480:\n        /* \"#utility.yul\":16691:16694   */\n      0x00\n        /* \"#utility.yul\":16712:16779   */\n      tag_683\n        /* \"#utility.yul\":16776:16778   */\n      0x0c\n        /* \"#utility.yul\":16771:16774   */\n      dup4\n        /* \"#utility.yul\":16712:16779   */\n      tag_438\n      jump\t// in\n    tag_683:\n        /* \"#utility.yul\":16705:16779   */\n      swap2\n      pop\n        /* \"#utility.yul\":16788:16881   */\n      tag_684\n        /* \"#utility.yul\":16877:16880   */\n      dup3\n        /* \"#utility.yul\":16788:16881   */\n      tag_479\n      jump\t// in\n    tag_684:\n        /* \"#utility.yul\":16906:16908   */\n      0x20\n        /* \"#utility.yul\":16901:16904   */\n      dup3\n        /* \"#utility.yul\":16897:16909   */\n      add\n        /* \"#utility.yul\":16890:16909   */\n      swap1\n      pop\n        /* \"#utility.yul\":16549:16915   */\n      swap2\n      swap1\n      pop\n      jump\t// out\n        /* \"#utility.yul\":16921:17340   */\n    tag_302:\n        /* \"#utility.yul\":17087:17091   */\n      0x00\n        /* \"#utility.yul\":17125:17127   */\n      0x20\n        /* \"#utility.yul\":17114:17123   */\n      dup3\n        /* \"#utility.yul\":17110:17128   */\n      add\n        /* \"#utility.yul\":17102:17128   */\n      swap1\n      pop\n        /* \"#utility.yul\":17174:17183   */\n      dup2\n        /* \"#utility.yul\":17168:17172   */\n      dup2\n        /* \"#utility.yul\":17164:17184   */\n      sub\n        /* \"#utility.yul\":17160:17161   */\n      0x00\n        /* \"#utility.yul\":17149:17158   */\n      dup4\n        /* \"#utility.yul\":17145:17162   */\n      add\n        /* \"#utility.yul\":17138:17185   */\n      mstore\n        /* \"#utility.yul\":17202:17333   */\n      tag_686\n        /* \"#utility.yul\":17328:17332   */\n      dup2\n        /* \"#utility.yul\":17202:17333   */\n      tag_480\n      jump\t// in\n    tag_686:\n        /* \"#utility.yul\":17194:17333   */\n      swap1\n      pop\n        /* \"#utility.yul\":16921:17340   */\n      swap2\n      swap1\n      pop\n      jump\t// out\n        /* \"#utility.yul\":17346:17678   */\n    tag_325:\n        /* \"#utility.yul\":17467:17471   */\n      0x00\n        /* \"#utility.yul\":17505:17507   */\n      0x40\n        /* \"#utility.yul\":17494:17503   */\n      dup3\n        /* \"#utility.yul\":17490:17508   */\n      add\n        /* \"#utility.yul\":17482:17508   */\n      swap1\n      pop\n        /* \"#utility.yul\":17518:17589   */\n      tag_688\n        /* \"#utility.yul\":17586:17587   */\n      0x00\n        /* \"#utility.yul\":17575:17584   */\n      dup4\n        /* \"#utility.yul\":17571:17588   */\n      add\n        /* \"#utility.yul\":17562:17568   */\n      dup6\n        /* \"#utility.yul\":17518:17589   */\n      tag_464\n      jump\t// in\n    tag_688:\n        /* \"#utility.yul\":17599:17671   */\n      tag_689\n        /* \"#utility.yul\":17667:17669   */\n      0x20\n        /* \"#utility.yul\":17656:17665   */\n      dup4\n        /* \"#utility.yul\":17652:17670   */\n      add\n        /* \"#utility.yul\":17643:17649   */\n      dup5\n        /* \"#utility.yul\":17599:17671   */\n      tag_436\n      jump\t// in\n    tag_689:\n        /* \"#utility.yul\":17346:17678   */\n      swap4\n      swap3\n      pop\n      pop\n      pop\n      jump\t// out\n        /* \"#utility.yul\":17684:17821   */\n    tag_481:\n        /* \"#utility.yul\":17738:17743   */\n      0x00\n        /* \"#utility.yul\":17769:17775   */\n      dup2\n        /* \"#utility.yul\":17763:17776   */\n      mload\n        /* \"#utility.yul\":17754:17776   */\n      swap1\n      pop\n        /* \"#utility.yul\":17785:17815   */\n      tag_691\n        /* \"#utility.yul\":17809:17814   */\n      dup2\n        /* \"#utility.yul\":17785:17815   */\n      tag_455\n      jump\t// in\n    tag_691:\n        /* \"#utility.yul\":17684:17821   */\n      swap3\n      swap2\n      pop\n      pop\n      jump\t// out\n        /* \"#utility.yul\":17827:18172   */\n    tag_330:\n        /* \"#utility.yul\":17894:17900   */\n      0x00\n        /* \"#utility.yul\":17943:17945   */\n      0x20\n        /* \"#utility.yul\":17931:17940   */\n      dup3\n        /* \"#utility.yul\":17922:17929   */\n      dup5\n        /* \"#utility.yul\":17918:17941   */\n      sub\n        /* \"#utility.yul\":17914:17946   */\n      slt\n        /* \"#utility.yul\":17911:18030   */\n      iszero\n      tag_693\n      jumpi\n        /* \"#utility.yul\":17949:18028   */\n      tag_694\n      tag_443\n      jump\t// in\n    tag_694:\n        /* \"#utility.yul\":17911:18030   */\n    tag_693:\n        /* \"#utility.yul\":18069:18070   */\n      0x00\n        /* \"#utility.yul\":18094:18155   */\n      tag_695\n        /* \"#utility.yul\":18147:18154   */\n      dup5\n        /* \"#utility.yul\":18138:18144   */\n      dup3\n        /* \"#utility.yul\":18127:18136   */\n      dup6\n        /* \"#utility.yul\":18123:18145   */\n      add\n        /* \"#utility.yul\":18094:18155   */\n      tag_481\n      jump\t// in\n    tag_695:\n        /* \"#utility.yul\":18084:18155   */\n      swap2\n      pop\n        /* \"#utility.yul\":18040:18165   */\n      pop\n        /* \"#utility.yul\":17827:18172   */\n      swap3\n      swap2\n      pop\n      pop\n      jump\t// out\n        /* \"#utility.yul\":18178:18339   */\n    tag_482:\n        /* \"#utility.yul\":18318:18331   */\n      0x5a45524f5f415353455453000000000000000000000000000000000000000000\n        /* \"#utility.yul\":18314:18315   */\n      0x00\n        /* \"#utility.yul\":18306:18312   */\n      dup3\n        /* \"#utility.yul\":18302:18316   */\n      add\n        /* \"#utility.yul\":18295:18332   */\n      mstore\n        /* \"#utility.yul\":18178:18339   */\n      pop\n      jump\t// out\n        /* \"#utility.yul\":18345:18711   */\n    tag_483:\n        /* \"#utility.yul\":18487:18490   */\n      0x00\n        /* \"#utility.yul\":18508:18575   */\n      tag_698\n        /* \"#utility.yul\":18572:18574   */\n      0x0b\n        /* \"#utility.yul\":18567:18570   */\n      dup4\n        /* \"#utility.yul\":18508:18575   */\n      tag_438\n      jump\t// in\n    tag_698:\n        /* \"#utility.yul\":18501:18575   */\n      swap2\n      pop\n        /* \"#utility.yul\":18584:18677   */\n      tag_699\n        /* \"#utility.yul\":18673:18676   */\n      dup3\n        /* \"#utility.yul\":18584:18677   */\n      tag_482\n      jump\t// in\n    tag_699:\n        /* \"#utility.yul\":18702:18704   */\n      0x20\n        /* \"#utility.yul\":18697:18700   */\n      dup3\n        /* \"#utility.yul\":18693:18705   */\n      add\n        /* \"#utility.yul\":18686:18705   */\n      swap1\n      pop\n        /* \"#utility.yul\":18345:18711   */\n      swap2\n      swap1\n      pop\n      jump\t// out\n        /* \"#utility.yul\":18717:19136   */\n    tag_355:\n        /* \"#utility.yul\":18883:18887   */\n      0x00\n        /* \"#utility.yul\":18921:18923   */\n      0x20\n        /* \"#utility.yul\":18910:18919   */\n      dup3\n        /* \"#utility.yul\":18906:18924   */\n      add\n        /* \"#utility.yul\":18898:18924   */\n      swap1\n      pop\n        /* \"#utility.yul\":18970:18979   */\n      dup2\n        /* \"#utility.yul\":18964:18968   */\n      dup2\n        /* \"#utility.yul\":18960:18980   */\n      sub\n        /* \"#utility.yul\":18956:18957   */\n      0x00\n        /* \"#utility.yul\":18945:18954   */\n      dup4\n        /* \"#utility.yul\":18941:18958   */\n      add\n        /* \"#utility.yul\":18934:18981   */\n      mstore\n        /* \"#utility.yul\":18998:19129   */\n      tag_701\n        /* \"#utility.yul\":19124:19128   */\n      dup2\n        /* \"#utility.yul\":18998:19129   */\n      tag_483\n      jump\t// in\n    tag_701:\n        /* \"#utility.yul\":18990:19129   */\n      swap1\n      pop\n        /* \"#utility.yul\":18717:19136   */\n      swap2\n      swap1\n      pop\n      jump\t// out\n        /* \"#utility.yul\":19142:19307   */\n    tag_484:\n        /* \"#utility.yul\":19282:19299   */\n      0x5441524745545f544f4f5f484947480000000000000000000000000000000000\n        /* \"#utility.yul\":19278:19279   */\n      0x00\n        /* \"#utility.yul\":19270:19276   */\n      dup3\n        /* \"#utility.yul\":19266:19280   */\n      add\n        /* \"#utility.yul\":19259:19300   */\n      mstore\n        /* \"#utility.yul\":19142:19307   */\n      pop\n      jump\t// out\n        /* \"#utility.yul\":19313:19679   */\n    tag_485:\n        /* \"#utility.yul\":19455:19458   */\n      0x00\n        /* \"#utility.yul\":19476:19543   */\n      tag_704\n        /* \"#utility.yul\":19540:19542   */\n      0x0f\n        /* \"#utility.yul\":19535:19538   */\n      dup4\n        /* \"#utility.yul\":19476:19543   */\n      tag_438\n      jump\t// in\n    tag_704:\n        /* \"#utility.yul\":19469:19543   */\n      swap2\n      pop\n        /* \"#utility.yul\":19552:19645   */\n      tag_705\n        /* \"#utility.yul\":19641:19644   */\n      dup3\n        /* \"#utility.yul\":19552:19645   */\n      tag_484\n      jump\t// in\n    tag_705:\n        /* \"#utility.yul\":19670:19672   */\n      0x20\n        /* \"#utility.yul\":19665:19668   */\n      dup3\n        /* \"#utility.yul\":19661:19673   */\n      add\n        /* \"#utility.yul\":19654:19673   */\n      swap1\n      pop\n        /* \"#utility.yul\":19313:19679   */\n      swap2\n      swap1\n      pop\n      jump\t// out\n        /* \"#utility.yul\":19685:20104   */\n    tag_367:\n        /* \"#utility.yul\":19851:19855   */\n      0x00\n        /* \"#utility.yul\":19889:19891   */\n      0x20\n        /* \"#utility.yul\":19878:19887   */\n      dup3\n        /* \"#utility.yul\":19874:19892   */\n      add\n        /* \"#utility.yul\":19866:19892   */\n      swap1\n      pop\n        /* \"#utility.yul\":19938:19947   */\n      dup2\n        /* \"#utility.yul\":19932:19936   */\n      dup2\n        /* \"#utility.yul\":19928:19948   */\n      sub\n        /* \"#utility.yul\":19924:19925   */\n      0x00\n        /* \"#utility.yul\":19913:19922   */\n      dup4\n        /* \"#utility.yul\":19909:19926   */\n      add\n        /* \"#utility.yul\":19902:19949   */\n      mstore\n        /* \"#utility.yul\":19966:20097   */\n      tag_707\n        /* \"#utility.yul\":20092:20096   */\n      dup2\n        /* \"#utility.yul\":19966:20097   */\n      tag_485\n      jump\t// in\n    tag_707:\n        /* \"#utility.yul\":19958:20097   */\n      swap1\n      pop\n        /* \"#utility.yul\":19685:20104   */\n      swap2\n      swap1\n      pop\n      jump\t// out\n        /* \"#utility.yul\":20110:20283   */\n    tag_486:\n        /* \"#utility.yul\":20250:20275   */\n      0x5045524d49545f444541444c494e455f45585049524544000000000000000000\n        /* \"#utility.yul\":20246:20247   */\n      0x00\n        /* \"#utility.yul\":20238:20244   */\n      dup3\n        /* \"#utility.yul\":20234:20248   */\n      add\n        /* \"#utility.yul\":20227:20276   */\n      mstore\n        /* \"#utility.yul\":20110:20283   */\n      pop\n      jump\t// out\n        /* \"#utility.yul\":20289:20655   */\n    tag_487:\n        /* \"#utility.yul\":20431:20434   */\n      0x00\n        /* \"#utility.yul\":20452:20519   */\n      tag_710\n        /* \"#utility.yul\":20516:20518   */\n      0x17\n        /* \"#utility.yul\":20511:20514   */\n      dup4\n        /* \"#utility.yul\":20452:20519   */\n      tag_438\n      jump\t// in\n    tag_710:\n        /* \"#utility.yul\":20445:20519   */\n      swap2\n      pop\n        /* \"#utility.yul\":20528:20621   */\n      tag_711\n        /* \"#utility.yul\":20617:20620   */\n      dup3\n        /* \"#utility.yul\":20528:20621   */\n      tag_486\n      jump\t// in\n    tag_711:\n        /* \"#utility.yul\":20646:20648   */\n      0x20\n        /* \"#utility.yul\":20641:20644   */\n      dup3\n        /* \"#utility.yul\":20637:20649   */\n      add\n        /* \"#utility.yul\":20630:20649   */\n      swap1\n      pop\n        /* \"#utility.yul\":20289:20655   */\n      swap2\n      swap1\n      pop\n      jump\t// out\n        /* \"#utility.yul\":20661:21080   */\n    tag_380:\n        /* \"#utility.yul\":20827:20831   */\n      0x00\n        /* \"#utility.yul\":20865:20867   */\n      0x20\n        /* \"#utility.yul\":20854:20863   */\n      dup3\n        /* \"#utility.yul\":20850:20868   */\n      add\n        /* \"#utility.yul\":20842:20868   */\n      swap1\n      pop\n        /* \"#utility.yul\":20914:20923   */\n      dup2\n        /* \"#utility.yul\":20908:20912   */\n      dup2\n        /* \"#utility.yul\":20904:20924   */\n      sub\n        /* \"#utility.yul\":20900:20901   */\n      0x00\n        /* \"#utility.yul\":20889:20898   */\n      dup4\n        /* \"#utility.yul\":20885:20902   */\n      add\n        /* \"#utility.yul\":20878:20925   */\n      mstore\n        /* \"#utility.yul\":20942:21073   */\n      tag_713\n        /* \"#utility.yul\":21068:21072   */\n      dup2\n        /* \"#utility.yul\":20942:21073   */\n      tag_487\n      jump\t// in\n    tag_713:\n        /* \"#utility.yul\":20934:21073   */\n      swap1\n      pop\n        /* \"#utility.yul\":20661:21080   */\n      swap2\n      swap1\n      pop\n      jump\t// out\n        /* \"#utility.yul\":21086:21861   */\n    tag_383:\n        /* \"#utility.yul\":21319:21323   */\n      0x00\n        /* \"#utility.yul\":21357:21360   */\n      0xc0\n        /* \"#utility.yul\":21346:21355   */\n      dup3\n        /* \"#utility.yul\":21342:21361   */\n      add\n        /* \"#utility.yul\":21334:21361   */\n      swap1\n      pop\n        /* \"#utility.yul\":21371:21442   */\n      tag_715\n        /* \"#utility.yul\":21439:21440   */\n      0x00\n        /* \"#utility.yul\":21428:21437   */\n      dup4\n        /* \"#utility.yul\":21424:21441   */\n      add\n        /* \"#utility.yul\":21415:21421   */\n      dup10\n        /* \"#utility.yul\":21371:21442   */\n      tag_458\n      jump\t// in\n    tag_715:\n        /* \"#utility.yul\":21452:21524   */\n      tag_716\n        /* \"#utility.yul\":21520:21522   */\n      0x20\n        /* \"#utility.yul\":21509:21518   */\n      dup4\n        /* \"#utility.yul\":21505:21523   */\n      add\n        /* \"#utility.yul\":21496:21502   */\n      dup9\n        /* \"#utility.yul\":21452:21524   */\n      tag_464\n      jump\t// in\n    tag_716:\n        /* \"#utility.yul\":21534:21606   */\n      tag_717\n        /* \"#utility.yul\":21602:21604   */\n      0x40\n        /* \"#utility.yul\":21591:21600   */\n      dup4\n        /* \"#utility.yul\":21587:21605   */\n      add\n        /* \"#utility.yul\":21578:21584   */\n      dup8\n        /* \"#utility.yul\":21534:21606   */\n      tag_464\n      jump\t// in\n    tag_717:\n        /* \"#utility.yul\":21616:21688   */\n      tag_718\n        /* \"#utility.yul\":21684:21686   */\n      0x60\n        /* \"#utility.yul\":21673:21682   */\n      dup4\n        /* \"#utility.yul\":21669:21687   */\n      add\n        /* \"#utility.yul\":21660:21666   */\n      dup7\n        /* \"#utility.yul\":21616:21688   */\n      tag_436\n      jump\t// in\n    tag_718:\n        /* \"#utility.yul\":21698:21771   */\n      tag_719\n        /* \"#utility.yul\":21766:21769   */\n      0x80\n        /* \"#utility.yul\":21755:21764   */\n      dup4\n        /* \"#utility.yul\":21751:21770   */\n      add\n        /* \"#utility.yul\":21742:21748   */\n      dup6\n        /* \"#utility.yul\":21698:21771   */\n      tag_436\n      jump\t// in\n    tag_719:\n        /* \"#utility.yul\":21781:21854   */\n      tag_720\n        /* \"#utility.yul\":21849:21852   */\n      0xa0\n        /* \"#utility.yul\":21838:21847   */\n      dup4\n        /* \"#utility.yul\":21834:21853   */\n      add\n        /* \"#utility.yul\":21825:21831   */\n      dup5\n        /* \"#utility.yul\":21781:21854   */\n      tag_436\n      jump\t// in\n    tag_720:\n        /* \"#utility.yul\":21086:21861   */\n      swap8\n      swap7\n      pop\n      pop\n      pop\n      pop\n      pop\n      pop\n      pop\n      jump\t// out\n        /* \"#utility.yul\":21867:22015   */\n    tag_488:\n        /* \"#utility.yul\":21969:21980   */\n      0x00\n        /* \"#utility.yul\":22006:22009   */\n      dup2\n        /* \"#utility.yul\":21991:22009   */\n      swap1\n      pop\n        /* \"#utility.yul\":21867:22015   */\n      swap3\n      swap2\n      pop\n      pop\n      jump\t// out\n        /* \"#utility.yul\":22021:22235   */\n    tag_489:\n        /* \"#utility.yul\":22161:22227   */\n      0x1901000000000000000000000000000000000000000000000000000000000000\n        /* \"#utility.yul\":22157:22158   */\n      0x00\n        /* \"#utility.yul\":22149:22155   */\n      dup3\n        /* \"#utility.yul\":22145:22159   */\n      add\n        /* \"#utility.yul\":22138:22228   */\n      mstore\n        /* \"#utility.yul\":22021:22235   */\n      pop\n      jump\t// out\n        /* \"#utility.yul\":22241:22641   */\n    tag_490:\n        /* \"#utility.yul\":22401:22404   */\n      0x00\n        /* \"#utility.yul\":22422:22506   */\n      tag_724\n        /* \"#utility.yul\":22504:22505   */\n      0x02\n        /* \"#utility.yul\":22499:22502   */\n      dup4\n        /* \"#utility.yul\":22422:22506   */\n      tag_488\n      jump\t// in\n    tag_724:\n        /* \"#utility.yul\":22415:22506   */\n      swap2\n      pop\n        /* \"#utility.yul\":22515:22608   */\n      tag_725\n        /* \"#utility.yul\":22604:22607   */\n      dup3\n        /* \"#utility.yul\":22515:22608   */\n      tag_489\n      jump\t// in\n    tag_725:\n        /* \"#utility.yul\":22633:22634   */\n      0x02\n        /* \"#utility.yul\":22628:22631   */\n      dup3\n        /* \"#utility.yul\":22624:22635   */\n      add\n        /* \"#utility.yul\":22617:22635   */\n      swap1\n      pop\n        /* \"#utility.yul\":22241:22641   */\n      swap2\n      swap1\n      pop\n      jump\t// out\n        /* \"#utility.yul\":22647:22726   */\n    tag_491:\n        /* \"#utility.yul\":22686:22693   */\n      0x00\n        /* \"#utility.yul\":22715:22720   */\n      dup2\n        /* \"#utility.yul\":22704:22720   */\n      swap1\n      pop\n        /* \"#utility.yul\":22647:22726   */\n      swap2\n      swap1\n      pop\n      jump\t// out\n        /* \"#utility.yul\":22732:22889   */\n    tag_492:\n        /* \"#utility.yul\":22837:22882   */\n      tag_728\n        /* \"#utility.yul\":22857:22881   */\n      tag_729\n        /* \"#utility.yul\":22875:22880   */\n      dup3\n        /* \"#utility.yul\":22857:22881   */\n      tag_457\n      jump\t// in\n    tag_729:\n        /* \"#utility.yul\":22837:22882   */\n      tag_491\n      jump\t// in\n    tag_728:\n        /* \"#utility.yul\":22832:22835   */\n      dup3\n        /* \"#utility.yul\":22825:22883   */\n      mstore\n        /* \"#utility.yul\":22732:22889   */\n      pop\n      pop\n      jump\t// out\n        /* \"#utility.yul\":22895:23558   */\n    tag_385:\n        /* \"#utility.yul\":23136:23139   */\n      0x00\n        /* \"#utility.yul\":23158:23306   */\n      tag_731\n        /* \"#utility.yul\":23302:23305   */\n      dup3\n        /* \"#utility.yul\":23158:23306   */\n      tag_490\n      jump\t// in\n    tag_731:\n        /* \"#utility.yul\":23151:23306   */\n      swap2\n      pop\n        /* \"#utility.yul\":23316:23391   */\n      tag_732\n        /* \"#utility.yul\":23387:23390   */\n      dup3\n        /* \"#utility.yul\":23378:23384   */\n      dup6\n        /* \"#utility.yul\":23316:23391   */\n      tag_492\n      jump\t// in\n    tag_732:\n        /* \"#utility.yul\":23416:23418   */\n      0x20\n        /* \"#utility.yul\":23411:23414   */\n      dup3\n        /* \"#utility.yul\":23407:23419   */\n      add\n        /* \"#utility.yul\":23400:23419   */\n      swap2\n      pop\n        /* \"#utility.yul\":23429:23504   */\n      tag_733\n        /* \"#utility.yul\":23500:23503   */\n      dup3\n        /* \"#utility.yul\":23491:23497   */\n      dup5\n        /* \"#utility.yul\":23429:23504   */\n      tag_492\n      jump\t// in\n    tag_733:\n        /* \"#utility.yul\":23529:23531   */\n      0x20\n        /* \"#utility.yul\":23524:23527   */\n      dup3\n        /* \"#utility.yul\":23520:23532   */\n      add\n        /* \"#utility.yul\":23513:23532   */\n      swap2\n      pop\n        /* \"#utility.yul\":23549:23552   */\n      dup2\n        /* \"#utility.yul\":23542:23552   */\n      swap1\n      pop\n        /* \"#utility.yul\":22895:23558   */\n      swap4\n      swap3\n      pop\n      pop\n      pop\n      jump\t// out\n        /* \"#utility.yul\":23564:24109   */\n    tag_387:\n        /* \"#utility.yul\":23737:23741   */\n      0x00\n        /* \"#utility.yul\":23775:23778   */\n      0x80\n        /* \"#utility.yul\":23764:23773   */\n      dup3\n        /* \"#utility.yul\":23760:23779   */\n      add\n        /* \"#utility.yul\":23752:23779   */\n      swap1\n      pop\n        /* \"#utility.yul\":23789:23860   */\n      tag_735\n        /* \"#utility.yul\":23857:23858   */\n      0x00\n        /* \"#utility.yul\":23846:23855   */\n      dup4\n        /* \"#utility.yul\":23842:23859   */\n      add\n        /* \"#utility.yul\":23833:23839   */\n      dup8\n        /* \"#utility.yul\":23789:23860   */\n      tag_458\n      jump\t// in\n    tag_735:\n        /* \"#utility.yul\":23870:23938   */\n      tag_736\n        /* \"#utility.yul\":23934:23936   */\n      0x20\n        /* \"#utility.yul\":23923:23932   */\n      dup4\n        /* \"#utility.yul\":23919:23937   */\n      add\n        /* \"#utility.yul\":23910:23916   */\n      dup7\n        /* \"#utility.yul\":23870:23938   */\n      tag_454\n      jump\t// in\n    tag_736:\n        /* \"#utility.yul\":23948:24020   */\n      tag_737\n        /* \"#utility.yul\":24016:24018   */\n      0x40\n        /* \"#utility.yul\":24005:24014   */\n      dup4\n        /* \"#utility.yul\":24001:24019   */\n      add\n        /* \"#utility.yul\":23992:23998   */\n      dup6\n        /* \"#utility.yul\":23948:24020   */\n      tag_458\n      jump\t// in\n    tag_737:\n        /* \"#utility.yul\":24030:24102   */\n      tag_738\n        /* \"#utility.yul\":24098:24100   */\n      0x60\n        /* \"#utility.yul\":24087:24096   */\n      dup4\n        /* \"#utility.yul\":24083:24101   */\n      add\n        /* \"#utility.yul\":24074:24080   */\n      dup5\n        /* \"#utility.yul\":24030:24102   */\n      tag_458\n      jump\t// in\n    tag_738:\n        /* \"#utility.yul\":23564:24109   */\n      swap6\n      swap5\n      pop\n      pop\n      pop\n      pop\n      pop\n      jump\t// out\n        /* \"#utility.yul\":24115:24279   */\n    tag_493:\n        /* \"#utility.yul\":24255:24271   */\n      0x494e56414c49445f5349474e4552000000000000000000000000000000000000\n        /* \"#utility.yul\":24251:24252   */\n      0x00\n        /* \"#utility.yul\":24243:24249   */\n      dup3\n        /* \"#utility.yul\":24239:24253   */\n      add\n        /* \"#utility.yul\":24232:24272   */\n      mstore\n        /* \"#utility.yul\":24115:24279   */\n      pop\n      jump\t// out\n        /* \"#utility.yul\":24285:24651   */\n    tag_494:\n        /* \"#utility.yul\":24427:24430   */\n      0x00\n        /* \"#utility.yul\":24448:24515   */\n      tag_741\n        /* \"#utility.yul\":24512:24514   */\n      0x0e\n        /* \"#utility.yul\":24507:24510   */\n      dup4\n        /* \"#utility.yul\":24448:24515   */\n      tag_438\n      jump\t// in\n    tag_741:\n        /* \"#utility.yul\":24441:24515   */\n      swap2\n      pop\n        /* \"#utility.yul\":24524:24617   */\n      tag_742\n        /* \"#utility.yul\":24613:24616   */\n      dup3\n        /* \"#utility.yul\":24524:24617   */\n      tag_493\n      jump\t// in\n    tag_742:\n        /* \"#utility.yul\":24642:24644   */\n      0x20\n        /* \"#utility.yul\":24637:24640   */\n      dup3\n        /* \"#utility.yul\":24633:24645   */\n      add\n        /* \"#utility.yul\":24626:24645   */\n      swap1\n      pop\n        /* \"#utility.yul\":24285:24651   */\n      swap2\n      swap1\n      pop\n      jump\t// out\n        /* \"#utility.yul\":24657:25076   */\n    tag_393:\n        /* \"#utility.yul\":24823:24827   */\n      0x00\n        /* \"#utility.yul\":24861:24863   */\n      0x20\n        /* \"#utility.yul\":24850:24859   */\n      dup3\n        /* \"#utility.yul\":24846:24864   */\n      add\n        /* \"#utility.yul\":24838:24864   */\n      swap1\n      pop\n        /* \"#utility.yul\":24910:24919   */\n      dup2\n        /* \"#utility.yul\":24904:24908   */\n      dup2\n        /* \"#utility.yul\":24900:24920   */\n      sub\n        /* \"#utility.yul\":24896:24897   */\n      0x00\n        /* \"#utility.yul\":24885:24894   */\n      dup4\n        /* \"#utility.yul\":24881:24898   */\n      add\n        /* \"#utility.yul\":24874:24921   */\n      mstore\n        /* \"#utility.yul\":24938:25069   */\n      tag_744\n        /* \"#utility.yul\":25064:25068   */\n      dup2\n        /* \"#utility.yul\":24938:25069   */\n      tag_494\n      jump\t// in\n    tag_744:\n        /* \"#utility.yul\":24930:25069   */\n      swap1\n      pop\n        /* \"#utility.yul\":24657:25076   */\n      swap2\n      swap1\n      pop\n      jump\t// out\n        /* \"#utility.yul\":25082:25309   */\n    tag_495:\n        /* \"#utility.yul\":25222:25256   */\n      0x4f776e61626c653a206e6577206d616e6167657220697320746865207a65726f\n        /* \"#utility.yul\":25218:25219   */\n      0x00\n        /* \"#utility.yul\":25210:25216   */\n      dup3\n        /* \"#utility.yul\":25206:25220   */\n      add\n        /* \"#utility.yul\":25199:25257   */\n      mstore\n        /* \"#utility.yul\":25291:25301   */\n      0x2061646472657373000000000000000000000000000000000000000000000000\n        /* \"#utility.yul\":25286:25288   */\n      0x20\n        /* \"#utility.yul\":25278:25284   */\n      dup3\n        /* \"#utility.yul\":25274:25289   */\n      add\n        /* \"#utility.yul\":25267:25302   */\n      mstore\n        /* \"#utility.yul\":25082:25309   */\n      pop\n      jump\t// out\n        /* \"#utility.yul\":25315:25681   */\n    tag_496:\n        /* \"#utility.yul\":25457:25460   */\n      0x00\n        /* \"#utility.yul\":25478:25545   */\n      tag_747\n        /* \"#utility.yul\":25542:25544   */\n      0x28\n        /* \"#utility.yul\":25537:25540   */\n      dup4\n        /* \"#utility.yul\":25478:25545   */\n      tag_438\n      jump\t// in\n    tag_747:\n        /* \"#utility.yul\":25471:25545   */\n      swap2\n      pop\n        /* \"#utility.yul\":25554:25647   */\n      tag_748\n        /* \"#utility.yul\":25643:25646   */\n      dup3\n        /* \"#utility.yul\":25554:25647   */\n      tag_495\n      jump\t// in\n    tag_748:\n        /* \"#utility.yul\":25672:25674   */\n      0x40\n        /* \"#utility.yul\":25667:25670   */\n      dup3\n        /* \"#utility.yul\":25663:25675   */\n      add\n        /* \"#utility.yul\":25656:25675   */\n      swap1\n      pop\n        /* \"#utility.yul\":25315:25681   */\n      swap2\n      swap1\n      pop\n      jump\t// out\n        /* \"#utility.yul\":25687:26106   */\n    tag_405:\n        /* \"#utility.yul\":25853:25857   */\n      0x00\n        /* \"#utility.yul\":25891:25893   */\n      0x20\n        /* \"#utility.yul\":25880:25889   */\n      dup3\n        /* \"#utility.yul\":25876:25894   */\n      add\n        /* \"#utility.yul\":25868:25894   */\n      swap1\n      pop\n        /* \"#utility.yul\":25940:25949   */\n      dup2\n        /* \"#utility.yul\":25934:25938   */\n      dup2\n        /* \"#utility.yul\":25930:25950   */\n      sub\n        /* \"#utility.yul\":25926:25927   */\n      0x00\n        /* \"#utility.yul\":25915:25924   */\n      dup4\n        /* \"#utility.yul\":25911:25928   */\n      add\n        /* \"#utility.yul\":25904:25951   */\n      mstore\n        /* \"#utility.yul\":25968:26099   */\n      tag_750\n        /* \"#utility.yul\":26094:26098   */\n      dup2\n        /* \"#utility.yul\":25968:26099   */\n      tag_496\n      jump\t// in\n    tag_750:\n        /* \"#utility.yul\":25960:26099   */\n      swap1\n      pop\n        /* \"#utility.yul\":25687:26106   */\n      swap2\n      swap1\n      pop\n      jump\t// out\n        /* \"#utility.yul\":26112:26259   */\n    tag_497:\n        /* \"#utility.yul\":26213:26224   */\n      0x00\n        /* \"#utility.yul\":26250:26253   */\n      dup2\n        /* \"#utility.yul\":26235:26253   */\n      swap1\n      pop\n        /* \"#utility.yul\":26112:26259   */\n      swap3\n      swap2\n      pop\n      pop\n      jump\t// out\n        /* \"#utility.yul\":26265:26409   */\n    tag_498:\n        /* \"#utility.yul\":26317:26321   */\n      0x00\n        /* \"#utility.yul\":26340:26343   */\n      dup2\n        /* \"#utility.yul\":26332:26343   */\n      swap1\n      pop\n        /* \"#utility.yul\":26363:26366   */\n      dup2\n        /* \"#utility.yul\":26360:26361   */\n      0x00\n        /* \"#utility.yul\":26353:26367   */\n      mstore\n        /* \"#utility.yul\":26397:26401   */\n      0x20\n        /* \"#utility.yul\":26394:26395   */\n      0x00\n        /* \"#utility.yul\":26384:26402   */\n      keccak256\n        /* \"#utility.yul\":26376:26402   */\n      swap1\n      pop\n        /* \"#utility.yul\":26265:26409   */\n      swap2\n      swap1\n      pop\n      jump\t// out\n        /* \"#utility.yul\":26437:27286   */\n    tag_499:\n        /* \"#utility.yul\":26542:26545   */\n      0x00\n        /* \"#utility.yul\":26579:26584   */\n      dup2\n        /* \"#utility.yul\":26573:26585   */\n      sload\n        /* \"#utility.yul\":26608:26644   */\n      tag_754\n        /* \"#utility.yul\":26634:26643   */\n      dup2\n        /* \"#utility.yul\":26608:26644   */\n      tag_225\n      jump\t// in\n    tag_754:\n        /* \"#utility.yul\":26660:26748   */\n      tag_755\n        /* \"#utility.yul\":26741:26747   */\n      dup2\n        /* \"#utility.yul\":26736:26739   */\n      dup7\n        /* \"#utility.yul\":26660:26748   */\n      tag_497\n      jump\t// in\n    tag_755:\n        /* \"#utility.yul\":26653:26748   */\n      swap5\n      pop\n        /* \"#utility.yul\":26779:26780   */\n      0x01\n        /* \"#utility.yul\":26768:26777   */\n      dup3\n        /* \"#utility.yul\":26764:26781   */\n      and\n        /* \"#utility.yul\":26795:26796   */\n      0x00\n        /* \"#utility.yul\":26790:26927   */\n      dup2\n      eq\n      tag_757\n      jumpi\n        /* \"#utility.yul\":26941:26942   */\n      0x01\n        /* \"#utility.yul\":26936:27280   */\n      dup2\n      eq\n      tag_758\n      jumpi\n        /* \"#utility.yul\":26757:27280   */\n      jump(tag_756)\n        /* \"#utility.yul\":26790:26927   */\n    tag_757:\n        /* \"#utility.yul\":26874:26878   */\n      0xff\n        /* \"#utility.yul\":26870:26879   */\n      not\n        /* \"#utility.yul\":26859:26868   */\n      dup4\n        /* \"#utility.yul\":26855:26880   */\n      and\n        /* \"#utility.yul\":26850:26853   */\n      dup7\n        /* \"#utility.yul\":26843:26881   */\n      mstore\n        /* \"#utility.yul\":26910:26916   */\n      dup2\n        /* \"#utility.yul\":26905:26908   */\n      dup7\n        /* \"#utility.yul\":26901:26917   */\n      add\n        /* \"#utility.yul\":26894:26917   */\n      swap4\n      pop\n        /* \"#utility.yul\":26790:26927   */\n      jump(tag_756)\n        /* \"#utility.yul\":26936:27280   */\n    tag_758:\n        /* \"#utility.yul\":27003:27044   */\n      tag_759\n        /* \"#utility.yul\":27038:27043   */\n      dup6\n        /* \"#utility.yul\":27003:27044   */\n      tag_498\n      jump\t// in\n    tag_759:\n        /* \"#utility.yul\":27066:27067   */\n      0x00\n        /* \"#utility.yul\":27080:27234   */\n    tag_760:\n        /* \"#utility.yul\":27094:27100   */\n      dup4\n        /* \"#utility.yul\":27091:27092   */\n      dup2\n        /* \"#utility.yul\":27088:27101   */\n      lt\n        /* \"#utility.yul\":27080:27234   */\n      iszero\n      tag_762\n      jumpi\n        /* \"#utility.yul\":27168:27175   */\n      dup2\n        /* \"#utility.yul\":27162:27176   */\n      sload\n        /* \"#utility.yul\":27158:27159   */\n      dup2\n        /* \"#utility.yul\":27153:27156   */\n      dup10\n        /* \"#utility.yul\":27149:27160   */\n      add\n        /* \"#utility.yul\":27142:27177   */\n      mstore\n        /* \"#utility.yul\":27218:27219   */\n      0x01\n        /* \"#utility.yul\":27209:27216   */\n      dup3\n        /* \"#utility.yul\":27205:27220   */\n      add\n        /* \"#utility.yul\":27194:27220   */\n      swap2\n      pop\n        /* \"#utility.yul\":27116:27120   */\n      0x20\n        /* \"#utility.yul\":27113:27114   */\n      dup2\n        /* \"#utility.yul\":27109:27121   */\n      add\n        /* \"#utility.yul\":27104:27121   */\n      swap1\n      pop\n        /* \"#utility.yul\":27080:27234   */\n      jump(tag_760)\n    tag_762:\n        /* \"#utility.yul\":27263:27269   */\n      dup4\n        /* \"#utility.yul\":27258:27261   */\n      dup9\n        /* \"#utility.yul\":27254:27270   */\n      add\n        /* \"#utility.yul\":27247:27270   */\n      swap6\n      pop\n        /* \"#utility.yul\":26943:27280   */\n      pop\n      pop\n        /* \"#utility.yul\":26757:27280   */\n    tag_756:\n      pop\n        /* \"#utility.yul\":26546:27286   */\n      pop\n      pop\n        /* \"#utility.yul\":26437:27286   */\n      swap3\n      swap2\n      pop\n      pop\n      jump\t// out\n        /* \"#utility.yul\":27292:27565   */\n    tag_412:\n        /* \"#utility.yul\":27423:27426   */\n      0x00\n        /* \"#utility.yul\":27445:27539   */\n      tag_764\n        /* \"#utility.yul\":27535:27538   */\n      dup3\n        /* \"#utility.yul\":27526:27532   */\n      dup5\n        /* \"#utility.yul\":27445:27539   */\n      tag_499\n      jump\t// in\n    tag_764:\n        /* \"#utility.yul\":27438:27539   */\n      swap2\n      pop\n        /* \"#utility.yul\":27556:27559   */\n      dup2\n        /* \"#utility.yul\":27549:27559   */\n      swap1\n      pop\n        /* \"#utility.yul\":27292:27565   */\n      swap3\n      swap2\n      pop\n      pop\n      jump\t// out\n        /* \"#utility.yul\":27571:28235   */\n    tag_414:\n        /* \"#utility.yul\":27776:27780   */\n      0x00\n        /* \"#utility.yul\":27814:27817   */\n      0xa0\n        /* \"#utility.yul\":27803:27812   */\n      dup3\n        /* \"#utility.yul\":27799:27818   */\n      add\n        /* \"#utility.yul\":27791:27818   */\n      swap1\n      pop\n        /* \"#utility.yul\":27828:27899   */\n      tag_766\n        /* \"#utility.yul\":27896:27897   */\n      0x00\n        /* \"#utility.yul\":27885:27894   */\n      dup4\n        /* \"#utility.yul\":27881:27898   */\n      add\n        /* \"#utility.yul\":27872:27878   */\n      dup9\n        /* \"#utility.yul\":27828:27899   */\n      tag_458\n      jump\t// in\n    tag_766:\n        /* \"#utility.yul\":27909:27981   */\n      tag_767\n        /* \"#utility.yul\":27977:27979   */\n      0x20\n        /* \"#utility.yul\":27966:27975   */\n      dup4\n        /* \"#utility.yul\":27962:27980   */\n      add\n        /* \"#utility.yul\":27953:27959   */\n      dup8\n        /* \"#utility.yul\":27909:27981   */\n      tag_458\n      jump\t// in\n    tag_767:\n        /* \"#utility.yul\":27991:28063   */\n      tag_768\n        /* \"#utility.yul\":28059:28061   */\n      0x40\n        /* \"#utility.yul\":28048:28057   */\n      dup4\n        /* \"#utility.yul\":28044:28062   */\n      add\n        /* \"#utility.yul\":28035:28041   */\n      dup7\n        /* \"#utility.yul\":27991:28063   */\n      tag_458\n      jump\t// in\n    tag_768:\n        /* \"#utility.yul\":28073:28145   */\n      tag_769\n        /* \"#utility.yul\":28141:28143   */\n      0x60\n        /* \"#utility.yul\":28130:28139   */\n      dup4\n        /* \"#utility.yul\":28126:28144   */\n      add\n        /* \"#utility.yul\":28117:28123   */\n      dup6\n        /* \"#utility.yul\":28073:28145   */\n      tag_436\n      jump\t// in\n    tag_769:\n        /* \"#utility.yul\":28155:28228   */\n      tag_770\n        /* \"#utility.yul\":28223:28226   */\n      0x80\n        /* \"#utility.yul\":28212:28221   */\n      dup4\n        /* \"#utility.yul\":28208:28227   */\n      add\n        /* \"#utility.yul\":28199:28205   */\n      dup5\n        /* \"#utility.yul\":28155:28228   */\n      tag_464\n      jump\t// in\n    tag_770:\n        /* \"#utility.yul\":27571:28235   */\n      swap7\n      swap6\n      pop\n      pop\n      pop\n      pop\n      pop\n      pop\n      jump\t// out\n        /* \"#utility.yul\":28241:28411   */\n    tag_500:\n        /* \"#utility.yul\":28381:28403   */\n      0x5452414e534645525f46524f4d5f4641494c4544000000000000000000000000\n        /* \"#utility.yul\":28377:28378   */\n      0x00\n        /* \"#utility.yul\":28369:28375   */\n      dup3\n        /* \"#utility.yul\":28365:28379   */\n      add\n        /* \"#utility.yul\":28358:28404   */\n      mstore\n        /* \"#utility.yul\":28241:28411   */\n      pop\n      jump\t// out\n        /* \"#utility.yul\":28417:28783   */\n    tag_501:\n        /* \"#utility.yul\":28559:28562   */\n      0x00\n        /* \"#utility.yul\":28580:28647   */\n      tag_773\n        /* \"#utility.yul\":28644:28646   */\n      0x14\n        /* \"#utility.yul\":28639:28642   */\n      dup4\n        /* \"#utility.yul\":28580:28647   */\n      tag_438\n      jump\t// in\n    tag_773:\n        /* \"#utility.yul\":28573:28647   */\n      swap2\n      pop\n        /* \"#utility.yul\":28656:28749   */\n      tag_774\n        /* \"#utility.yul\":28745:28748   */\n      dup3\n        /* \"#utility.yul\":28656:28749   */\n      tag_500\n      jump\t// in\n    tag_774:\n        /* \"#utility.yul\":28774:28776   */\n      0x20\n        /* \"#utility.yul\":28769:28772   */\n      dup3\n        /* \"#utility.yul\":28765:28777   */\n      add\n        /* \"#utility.yul\":28758:28777   */\n      swap1\n      pop\n        /* \"#utility.yul\":28417:28783   */\n      swap2\n      swap1\n      pop\n      jump\t// out\n        /* \"#utility.yul\":28789:29208   */\n    tag_418:\n        /* \"#utility.yul\":28955:28959   */\n      0x00\n        /* \"#utility.yul\":28993:28995   */\n      0x20\n        /* \"#utility.yul\":28982:28991   */\n      dup3\n        /* \"#utility.yul\":28978:28996   */\n      add\n        /* \"#utility.yul\":28970:28996   */\n      swap1\n      pop\n        /* \"#utility.yul\":29042:29051   */\n      dup2\n        /* \"#utility.yul\":29036:29040   */\n      dup2\n        /* \"#utility.yul\":29032:29052   */\n      sub\n        /* \"#utility.yul\":29028:29029   */\n      0x00\n        /* \"#utility.yul\":29017:29026   */\n      dup4\n        /* \"#utility.yul\":29013:29030   */\n      add\n        /* \"#utility.yul\":29006:29053   */\n      mstore\n        /* \"#utility.yul\":29070:29201   */\n      tag_776\n        /* \"#utility.yul\":29196:29200   */\n      dup2\n        /* \"#utility.yul\":29070:29201   */\n      tag_501\n      jump\t// in\n    tag_776:\n        /* \"#utility.yul\":29062:29201   */\n      swap1\n      pop\n        /* \"#utility.yul\":28789:29208   */\n      swap2\n      swap1\n      pop\n      jump\t// out\n        /* \"#utility.yul\":29214:29519   */\n    tag_421:\n        /* \"#utility.yul\":29254:29257   */\n      0x00\n        /* \"#utility.yul\":29273:29293   */\n      tag_778\n        /* \"#utility.yul\":29291:29292   */\n      dup3\n        /* \"#utility.yul\":29273:29293   */\n      tag_435\n      jump\t// in\n    tag_778:\n        /* \"#utility.yul\":29268:29293   */\n      swap2\n      pop\n        /* \"#utility.yul\":29307:29327   */\n      tag_779\n        /* \"#utility.yul\":29325:29326   */\n      dup4\n        /* \"#utility.yul\":29307:29327   */\n      tag_435\n      jump\t// in\n    tag_779:\n        /* \"#utility.yul\":29302:29327   */\n      swap3\n      pop\n        /* \"#utility.yul\":29461:29462   */\n      dup3\n        /* \"#utility.yul\":29393:29459   */\n      0xffffffffffffffffffffffffffffffffffffffffffffffffffffffffffffffff\n        /* \"#utility.yul\":29389:29463   */\n      sub\n        /* \"#utility.yul\":29386:29387   */\n      dup3\n        /* \"#utility.yul\":29383:29464   */\n      gt\n        /* \"#utility.yul\":29380:29487   */\n      iszero\n      tag_780\n      jumpi\n        /* \"#utility.yul\":29467:29485   */\n      tag_781\n      tag_471\n      jump\t// in\n    tag_781:\n        /* \"#utility.yul\":29380:29487   */\n    tag_780:\n        /* \"#utility.yul\":29511:29512   */\n      dup3\n        /* \"#utility.yul\":29508:29509   */\n      dup3\n        /* \"#utility.yul\":29504:29513   */\n      add\n        /* \"#utility.yul\":29497:29513   */\n      swap1\n      pop\n        /* \"#utility.yul\":29214:29519   */\n      swap3\n      swap2\n      pop\n      pop\n      jump\t// out\n        /* \"#utility.yul\":29525:29758   */\n    tag_425:\n        /* \"#utility.yul\":29564:29567   */\n      0x00\n        /* \"#utility.yul\":29587:29611   */\n      tag_783\n        /* \"#utility.yul\":29605:29610   */\n      dup3\n        /* \"#utility.yul\":29587:29611   */\n      tag_435\n      jump\t// in\n    tag_783:\n        /* \"#utility.yul\":29578:29611   */\n      swap2\n      pop\n        /* \"#utility.yul\":29633:29699   */\n      0xffffffffffffffffffffffffffffffffffffffffffffffffffffffffffffffff\n        /* \"#utility.yul\":29626:29631   */\n      dup3\n        /* \"#utility.yul\":29623:29700   */\n      eq\n        /* \"#utility.yul\":29620:29723   */\n      iszero\n      tag_784\n      jumpi\n        /* \"#utility.yul\":29703:29721   */\n      tag_785\n      tag_471\n      jump\t// in\n    tag_785:\n        /* \"#utility.yul\":29620:29723   */\n    tag_784:\n        /* \"#utility.yul\":29750:29751   */\n      0x01\n        /* \"#utility.yul\":29743:29748   */\n      dup3\n        /* \"#utility.yul\":29739:29752   */\n      add\n        /* \"#utility.yul\":29732:29752   */\n      swap1\n      pop\n        /* \"#utility.yul\":29525:29758   */\n      swap2\n      swap1\n      pop\n      jump\t// out\n        /* \"#utility.yul\":29764:29929   */\n    tag_502:\n        /* \"#utility.yul\":29904:29921   */\n      0x5452414e534645525f4641494c45440000000000000000000000000000000000\n        /* \"#utility.yul\":29900:29901   */\n      0x00\n        /* \"#utility.yul\":29892:29898   */\n      dup3\n        /* \"#utility.yul\":29888:29902   */\n      add\n        /* \"#utility.yul\":29881:29922   */\n      mstore\n        /* \"#utility.yul\":29764:29929   */\n      pop\n      jump\t// out\n        /* \"#utility.yul\":29935:30301   */\n    tag_503:\n        /* \"#utility.yul\":30077:30080   */\n      0x00\n        /* \"#utility.yul\":30098:30165   */\n      tag_788\n        /* \"#utility.yul\":30162:30164   */\n      0x0f\n        /* \"#utility.yul\":30157:30160   */\n      dup4\n        /* \"#utility.yul\":30098:30165   */\n      tag_438\n      jump\t// in\n    tag_788:\n        /* \"#utility.yul\":30091:30165   */\n      swap2\n      pop\n        /* \"#utility.yul\":30174:30267   */\n      tag_789\n        /* \"#utility.yul\":30263:30266   */\n      dup3\n        /* \"#utility.yul\":30174:30267   */\n      tag_502\n      jump\t// in\n    tag_789:\n        /* \"#utility.yul\":30292:30294   */\n      0x20\n        /* \"#utility.yul\":30287:30290   */\n      dup3\n        /* \"#utility.yul\":30283:30295   */\n      add\n        /* \"#utility.yul\":30276:30295   */\n      swap1\n      pop\n        /* \"#utility.yul\":29935:30301   */\n      swap2\n      swap1\n      pop\n      jump\t// out\n        /* \"#utility.yul\":30307:30726   */\n    tag_434:\n        /* \"#utility.yul\":30473:30477   */\n      0x00\n        /* \"#utility.yul\":30511:30513   */\n      0x20\n        /* \"#utility.yul\":30500:30509   */\n      dup3\n        /* \"#utility.yul\":30496:30514   */\n      add\n        /* \"#utility.yul\":30488:30514   */\n      swap1\n      pop\n        /* \"#utility.yul\":30560:30569   */\n      dup2\n        /* \"#utility.yul\":30554:30558   */\n      dup2\n        /* \"#utility.yul\":30550:30570   */\n      sub\n        /* \"#utility.yul\":30546:30547   */\n      0x00\n        /* \"#utility.yul\":30535:30544   */\n      dup4\n        /* \"#utility.yul\":30531:30548   */\n      add\n        /* \"#utility.yul\":30524:30571   */\n      mstore\n        /* \"#utility.yul\":30588:30719   */\n      tag_791\n        /* \"#utility.yul\":30714:30718   */\n      dup2\n        /* \"#utility.yul\":30588:30719   */\n      tag_503\n      jump\t// in\n    tag_791:\n        /* \"#utility.yul\":30580:30719   */\n      swap1\n      pop\n        /* \"#utility.yul\":30307:30726   */\n      swap2\n      swap1\n      pop\n      jump\t// out\n\n    auxdata: 0xa2646970667358221220341fcfbe49435535bd0396d9ab5a0e70809164433738e8f9cd5b5459ee5ea04564736f6c63430008080033\n}\n",
				"bytecode": {
					"linkReferences": {},
					"object": "610140604052600060075560006008553480156200001c57600080fd5b506040516200424f3803806200424f833981810160405281019062000042919062000502565b83838383828282826000908051906020019062000061929190620001fe565b5081600190805190602001906200007a929190620001fe565b508060ff1660808160ff1660f81b815250504660a08181525050620000a46200016e60201b60201c565b60c081815250505050508373ffffffffffffffffffffffffffffffffffffffff1660e08173ffffffffffffffffffffffffffffffffffffffff1660601b81525050505050508373ffffffffffffffffffffffffffffffffffffffff166101208173ffffffffffffffffffffffffffffffffffffffff1660601b8152505060805160f81c600a6200013591906200073f565b61010081815250507fffffffffffffffffffffffffffffffffffffffffffffffffffffffffffffffff6002819055505050505062000953565b60007f8b73c3c69bb8fe3d512ecc4cf759cc79239f7b179b0ffacaa9a75d522b39400f6000604051620001a29190620008a0565b60405180910390207fc89efdaa54c0f20c7adf612882df0950f5a951637e0307cdcb4c672f298b8bc64630604051602001620001e3959493929190620008f6565b60405160208183030381529060405280519060200120905090565b8280546200020c90620007bf565b90600052602060002090601f0160209004810192826200023057600085556200027c565b82601f106200024b57805160ff19168380011785556200027c565b828001600101855582156200027c579182015b828111156200027b5782518255916020019190600101906200025e565b5b5090506200028b91906200028f565b5090565b5b80821115620002aa57600081600090555060010162000290565b5090565b6000604051905090565b600080fd5b600080fd5b600073ffffffffffffffffffffffffffffffffffffffff82169050919050565b6000620002ef82620002c2565b9050919050565b60006200030382620002e2565b9050919050565b6200031581620002f6565b81146200032157600080fd5b50565b60008151905062000335816200030a565b92915050565b600080fd5b600080fd5b6000601f19601f8301169050919050565b7f4e487b7100000000000000000000000000000000000000000000000000000000600052604160045260246000fd5b620003908262000345565b810181811067ffffffffffffffff82111715620003b257620003b162000356565b5b80604052505050565b6000620003c7620002ae565b9050620003d5828262000385565b919050565b600067ffffffffffffffff821115620003f857620003f762000356565b5b620004038262000345565b9050602081019050919050565b60005b838110156200043057808201518184015260208101905062000413565b8381111562000440576000848401525b50505050565b60006200045d6200045784620003da565b620003bb565b9050828152602081018484840111156200047c576200047b62000340565b5b6200048984828562000410565b509392505050565b600082601f830112620004a957620004a86200033b565b5b8151620004bb84826020860162000446565b91505092915050565b600060ff82169050919050565b620004dc81620004c4565b8114620004e857600080fd5b50565b600081519050620004fc81620004d1565b92915050565b600080600080608085870312156200051f576200051e620002b8565b5b60006200052f8782880162000324565b945050602085015167ffffffffffffffff811115620005535762000552620002bd565b5b620005618782880162000491565b935050604085015167ffffffffffffffff811115620005855762000584620002bd565b5b620005938782880162000491565b9250506060620005a687828801620004eb565b91505092959194509250565b7f4e487b7100000000000000000000000000000000000000000000000000000000600052601160045260246000fd5b60008160011c9050919050565b6000808291508390505b60018511156200064057808604811115620006185762000617620005b2565b5b6001851615620006285780820291505b80810290506200063885620005e1565b9450620005f8565b94509492505050565b6000826200065b57600190506200072e565b816200066b57600090506200072e565b81600181146200068457600281146200068f57620006c5565b60019150506200072e565b60ff841115620006a457620006a3620005b2565b5b8360020a915084821115620006be57620006bd620005b2565b5b506200072e565b5060208310610133831016604e8410600b8410161715620006ff5782820a905083811115620006f957620006f8620005b2565b5b6200072e565b6200070e8484846001620005ee565b92509050818404811115620007285762000727620005b2565b5b81810290505b9392505050565b6000819050919050565b60006200074c8262000735565b91506200075983620004c4565b9250620007887fffffffffffffffffffffffffffffffffffffffffffffffffffffffffffffffff848462000649565b905092915050565b7f4e487b7100000000000000000000000000000000000000000000000000000000600052602260045260246000fd5b60006002820490506001821680620007d857607f821691505b60208210811415620007ef57620007ee62000790565b5b50919050565b600081905092915050565b60008190508160005260206000209050919050565b600081546200082481620007bf565b620008308186620007f5565b945060018216600081146200084e5760018114620008605762000897565b60ff1983168652818601935062000897565b6200086b8562000800565b60005b838110156200088f578154818901526001820191506020810190506200086e565b838801955050505b50505092915050565b6000620008ae828462000815565b915081905092915050565b6000819050919050565b620008ce81620008b9565b82525050565b620008df8162000735565b82525050565b620008f081620002e2565b82525050565b600060a0820190506200090d6000830188620008c3565b6200091c6020830187620008c3565b6200092b6040830186620008c3565b6200093a6060830185620008d4565b620009496080830184620008e5565b9695505050505050565b60805160f81c60a05160c05160e05160601c610100516101205160601c613879620009d660003960008181610e610152611e9a015260006110400152600081816108c40152818161100b0152818161112a0152818161148901528181611a900152611d2f01526000610fe401526000610fb001526000610dbe01526138796000f3fe608060405234801561001057600080fd5b50600436106102695760003560e01c80637fd6f15c11610151578063c63d75b6116100c3578063dd62ed3e11610087578063dd62ed3e146107ea578063ecad95651461081a578063ef8b30f714610838578063f2fde38b14610868578063f84d73f414610884578063fc407ae7146108a257610269565b8063c63d75b61461070e578063c6e6f5921461073e578063ce96cb771461076e578063d505accf1461079e578063d905777e146107ba57610269565b8063b3d7f6b911610115578063b3d7f6b914610626578063b460af9414610656578063ba08765214610686578063bc368a8a146106b6578063bd662f88146106d4578063c5d664c6146106f057610269565b80637fd6f15c1461056e57806394bf804d1461058c57806395d89b41146105bc578063a9059cbb146105da578063ac68a7481461060a57610269565b80633644e515116101ea5780634cdad506116101ae5780634cdad506146104885780636e553f65146104b857806370a08231146104e8578063715018a6146105185780637ce3489b146105225780637ecebe001461053e57610269565b80633644e515146103e057806338d52e0f146103fe5780633ba0b9a91461041c578063402d267d1461043a578063481c6a751461046a57610269565b806318160ddd1161023157806318160ddd1461033a5780631c6934781461035857806323b872dd14610376578063313ce567146103a657806332ff7732146103c457610269565b806301e1d1141461026e57806306fdde031461028c57806307a2d13a146102aa578063095ea7b3146102da5780630a28a4771461030a575b600080fd5b6102766108c0565b60405161028391906128bd565b60405180910390f35b610294610970565b6040516102a19190612971565b60405180910390f35b6102c460048036038101906102bf91906129c4565b6109fe565b6040516102d191906128bd565b60405180910390f35b6102f460048036038101906102ef9190612a4f565b610a39565b6040516103019190612aaa565b60405180910390f35b610324600480360381019061031f91906129c4565b610b2b565b60405161033191906128bd565b60405180910390f35b610342610b66565b60405161034f91906128bd565b60405180910390f35b610360610b6c565b60405161036d91906128bd565b60405180910390f35b610390600480360381019061038b9190612ac5565b610b72565b60405161039d9190612aaa565b60405180910390f35b6103ae610dbc565b6040516103bb9190612b34565b60405180910390f35b6103de60048036038101906103d99190612b7b565b610de0565b005b6103e8610fac565b6040516103f59190612bc1565b60405180910390f35b610406611009565b6040516104139190612c3b565b60405180910390f35b61042461102d565b60405161043191906128bd565b60405180910390f35b610454600480360381019061044f9190612c56565b61106c565b60405161046191906128bd565b60405180910390f35b610472611096565b60405161047f9190612c92565b60405180910390f35b6104a2600480360381019061049d91906129c4565b6110c0565b6040516104af91906128bd565b60405180910390f35b6104d260048036038101906104cd9190612cad565b6110d2565b6040516104df91906128bd565b60405180910390f35b61050260048036038101906104fd9190612c56565b6111f0565b60405161050f91906128bd565b60405180910390f35b610520611208565b005b61053c600480360381019061053791906129c4565b61133e565b005b61055860048036038101906105539190612c56565b611456565b60405161056591906128bd565b60405180910390f35b61057661146e565b60405161058391906128bd565b60405180910390f35b6105a660048036038101906105a19190612cad565b611474565b6040516105b391906128bd565b60405180910390f35b6105c461154f565b6040516105d19190612971565b60405180910390f35b6105f460048036038101906105ef9190612a4f565b6115dd565b6040516106019190612aaa565b60405180910390f35b610624600480360381019061061f91906129c4565b6116f1565b005b610640600480360381019061063b91906129c4565b611845565b60405161064d91906128bd565b60405180910390f35b610670600480360381019061066b9190612ced565b611880565b60405161067d91906128bd565b60405180910390f35b6106a0600480360381019061069b9190612ced565b611adb565b6040516106ad91906128bd565b60405180910390f35b6106be611d7a565b6040516106cb91906128bd565b60405180910390f35b6106ee60048036038101906106e991906129c4565b611d80565b005b6106f8611e98565b6040516107059190612c3b565b60405180910390f35b61072860048036038101906107239190612c56565b611ebc565b60405161073591906128bd565b60405180910390f35b610758600480360381019061075391906129c4565b611ee6565b60405161076591906128bd565b60405180910390f35b61078860048036038101906107839190612c56565b611f21565b60405161079591906128bd565b60405180910390f35b6107b860048036038101906107b39190612d98565b611f72565b005b6107d460048036038101906107cf9190612c56565b61226b565b6040516107e191906128bd565b60405180910390f35b61080460048036038101906107ff9190612e3a565b6122b4565b60405161081191906128bd565b60405180910390f35b6108226122d9565b60405161082f91906128bd565b60405180910390f35b610852600480360381019061084d91906129c4565b6122df565b60405161085f91906128bd565b60405180910390f35b610882600480360381019061087d9190612c56565b6122f1565b005b61088c612496565b6040516108999190612aaa565b60405180910390f35b6108aa6124a9565b6040516108b791906128bd565b60405180910390f35b60007f000000000000000000000000000000000000000000000000000000000000000073ffffffffffffffffffffffffffffffffffffffff166370a08231306040518263ffffffff1660e01b815260040161091b9190612c92565b60206040518083038186803b15801561093357600080fd5b505afa158015610947573d6000803e3d6000fd5b505050506040513d601f19601f8201168201806040525081019061096b9190612e8f565b905090565b6000805461097d90612eeb565b80601f01602080910402602001604051908101604052809291908181526020018280546109a990612eeb565b80156109f65780601f106109cb576101008083540402835291602001916109f6565b820191906000526020600020905b8154815290600101906020018083116109d957829003601f168201915b505050505081565b600080600254905060008114610a2f57610a2a610a196108c0565b82856124af9092919063ffffffff16565b610a31565b825b915050919050565b600081600460003373ffffffffffffffffffffffffffffffffffffffff1673ffffffffffffffffffffffffffffffffffffffff16815260200190815260200160002060008573ffffffffffffffffffffffffffffffffffffffff1673ffffffffffffffffffffffffffffffffffffffff168152602001908152602001600020819055508273ffffffffffffffffffffffffffffffffffffffff163373ffffffffffffffffffffffffffffffffffffffff167f8c5be1e5ebec7d5bd14f71427d1e84f3dd0314c0f7b2291e5b200ac8c7c3b92584604051610b1991906128bd565b60405180910390a36001905092915050565b600080600254905060008114610b5c57610b5781610b476108c0565b856124d79092919063ffffffff16565b610b5e565b825b915050919050565b60025481565b600a5481565b600080600460008673ffffffffffffffffffffffffffffffffffffffff1673ffffffffffffffffffffffffffffffffffffffff16815260200190815260200160002060003373ffffffffffffffffffffffffffffffffffffffff1673ffffffffffffffffffffffffffffffffffffffff1681526020019081526020016000205490507fffffffffffffffffffffffffffffffffffffffffffffffffffffffffffffffff8114610ca8578281610c279190612f4c565b600460008773ffffffffffffffffffffffffffffffffffffffff1673ffffffffffffffffffffffffffffffffffffffff16815260200190815260200160002060003373ffffffffffffffffffffffffffffffffffffffff1673ffffffffffffffffffffffffffffffffffffffff168152602001908152602001600020819055505b82600360008773ffffffffffffffffffffffffffffffffffffffff1673ffffffffffffffffffffffffffffffffffffffff1681526020019081526020016000206000828254610cf79190612f4c565b9250508190555082600360008673ffffffffffffffffffffffffffffffffffffffff1673ffffffffffffffffffffffffffffffffffffffff168152602001908152602001600020600082825401925050819055508373ffffffffffffffffffffffffffffffffffffffff168573ffffffffffffffffffffffffffffffffffffffff167fddf252ad1be2c89b69c2b068fc378daa952ba7f163c4a11628f55a4df523b3ef85604051610da891906128bd565b60405180910390a360019150509392505050565b7f000000000000000000000000000000000000000000000000000000000000000081565b3373ffffffffffffffffffffffffffffffffffffffff16610dff611096565b73ffffffffffffffffffffffffffffffffffffffff1614610e55576040517f08c379a0000000000000000000000000000000000000000000000000000000008152600401610e4c90612ff2565b60405180910390fd5b801580610f02575060127f000000000000000000000000000000000000000000000000000000000000000073ffffffffffffffffffffffffffffffffffffffff1663313ce5676040518163ffffffff1660e01b815260040160206040518083038186803b158015610ec557600080fd5b505afa158015610ed9573d6000803e3d6000fd5b505050506040513d601f19601f82011682018060405250810190610efd9190613027565b60ff16145b610f41576040517f08c379a0000000000000000000000000000000000000000000000000000000008152600401610f38906130a0565b60405180910390fd5b80600b60006101000a81548160ff0219169083151502179055503373ffffffffffffffffffffffffffffffffffffffff167f6375b140d4463d47b864f1f47e5d2893cc3478e73aedcc268b054fab0230a84182604051610fa19190612aaa565b60405180910390a250565b60007f00000000000000000000000000000000000000000000000000000000000000004614610fe257610fdd612509565b611004565b7f00000000000000000000000000000000000000000000000000000000000000005b905090565b7f000000000000000000000000000000000000000000000000000000000000000081565b60008060025490506000811415611067577f0000000000000000000000000000000000000000000000000000000000000000915050611069565b505b90565b60007fffffffffffffffffffffffffffffffffffffffffffffffffffffffffffffffff9050919050565b6000600660009054906101000a900473ffffffffffffffffffffffffffffffffffffffff16905090565b60006110cb826109fe565b9050919050565b6000806110de846122df565b9150811415611122576040517f08c379a00000000000000000000000000000000000000000000000000000000081526004016111199061310c565b60405180910390fd5b61116f3330857f000000000000000000000000000000000000000000000000000000000000000073ffffffffffffffffffffffffffffffffffffffff16612595909392919063ffffffff16565b6111798282612634565b8173ffffffffffffffffffffffffffffffffffffffff163373ffffffffffffffffffffffffffffffffffffffff167fdcbc1c05240f31ff3ad067ef1ee35ce4997762752e3a095284754544f4c709d785846040516111d892919061312c565b60405180910390a36111ea8382612704565b92915050565b60036020528060005260406000206000915090505481565b3373ffffffffffffffffffffffffffffffffffffffff16611227611096565b73ffffffffffffffffffffffffffffffffffffffff161461127d576040517f08c379a000000000000000000000000000000000000000000000000000000000815260040161127490612ff2565b60405180910390fd5b600073ffffffffffffffffffffffffffffffffffffffff16600660009054906101000a900473ffffffffffffffffffffffffffffffffffffffff1673ffffffffffffffffffffffffffffffffffffffff167f8be0079c531659141344cd1fd0a4f28419497f9722a3daafe3b4186f6b6457e060405160405180910390a36000600660006101000a81548173ffffffffffffffffffffffffffffffffffffffff021916908373ffffffffffffffffffffffffffffffffffffffff160217905550565b3373ffffffffffffffffffffffffffffffffffffffff1661135d611096565b73ffffffffffffffffffffffffffffffffffffffff16146113b3576040517f08c379a00000000000000000000000000000000000000000000000000000000081526004016113aa90612ff2565b60405180910390fd5b670de0b6b3a76400008111156113fe576040517f08c379a00000000000000000000000000000000000000000000000000000000081526004016113f5906131a1565b60405180910390fd5b806009819055503373ffffffffffffffffffffffffffffffffffffffff167fec370615cc81fb334e5566fbc80664d9082377bf59288d64a79f3fbecf4323a98260405161144b91906128bd565b60405180910390a250565b60056020528060005260406000206000915090505481565b60095481565b600061147f83611845565b90506114ce3330837f000000000000000000000000000000000000000000000000000000000000000073ffffffffffffffffffffffffffffffffffffffff16612595909392919063ffffffff16565b6114d88284612634565b8173ffffffffffffffffffffffffffffffffffffffff163373ffffffffffffffffffffffffffffffffffffffff167fdcbc1c05240f31ff3ad067ef1ee35ce4997762752e3a095284754544f4c709d7838660405161153792919061312c565b60405180910390a36115498184612704565b92915050565b6001805461155c90612eeb565b80601f016020809104026020016040519081016040528092919081815260200182805461158890612eeb565b80156115d55780601f106115aa576101008083540402835291602001916115d5565b820191906000526020600020905b8154815290600101906020018083116115b857829003601f168201915b505050505081565b600081600360003373ffffffffffffffffffffffffffffffffffffffff1673ffffffffffffffffffffffffffffffffffffffff168152602001908152602001600020600082825461162e9190612f4c565b9250508190555081600360008573ffffffffffffffffffffffffffffffffffffffff1673ffffffffffffffffffffffffffffffffffffffff168152602001908152602001600020600082825401925050819055508273ffffffffffffffffffffffffffffffffffffffff163373ffffffffffffffffffffffffffffffffffffffff167fddf252ad1be2c89b69c2b068fc378daa952ba7f163c4a11628f55a4df523b3ef846040516116df91906128bd565b60405180910390a36001905092915050565b3373ffffffffffffffffffffffffffffffffffffffff16611710611096565b73ffffffffffffffffffffffffffffffffffffffff1614611766576040517f08c379a000000000000000000000000000000000000000000000000000000000815260040161175d90612ff2565b60405180910390fd5b3373ffffffffffffffffffffffffffffffffffffffff167f9493e5bbe4e8e0ac67284469a2d677403d0378a85a59e341d3abc433d0d9a209826040516117ac91906128bd565b60405180910390a23073ffffffffffffffffffffffffffffffffffffffff1663a9059cbb33836040518363ffffffff1660e01b81526004016117ef9291906131c1565b602060405180830381600087803b15801561180957600080fd5b505af115801561181d573d6000803e3d6000fd5b505050506040513d601f19601f8201168201806040525081019061184191906131ff565b5050565b600080600254905060008114611876576118716118606108c0565b82856124d79092919063ffffffff16565b611878565b825b915050919050565b600061188b84610b2b565b90508173ffffffffffffffffffffffffffffffffffffffff163373ffffffffffffffffffffffffffffffffffffffff16146119f7576000600460008473ffffffffffffffffffffffffffffffffffffffff1673ffffffffffffffffffffffffffffffffffffffff16815260200190815260200160002060003373ffffffffffffffffffffffffffffffffffffffff1673ffffffffffffffffffffffffffffffffffffffff1681526020019081526020016000205490507fffffffffffffffffffffffffffffffffffffffffffffffffffffffffffffffff81146119f55781816119749190612f4c565b600460008573ffffffffffffffffffffffffffffffffffffffff1673ffffffffffffffffffffffffffffffffffffffff16815260200190815260200160002060003373ffffffffffffffffffffffffffffffffffffffff1673ffffffffffffffffffffffffffffffffffffffff168152602001908152602001600020819055505b505b611a018482612720565b611a0b828261273c565b8173ffffffffffffffffffffffffffffffffffffffff168373ffffffffffffffffffffffffffffffffffffffff163373ffffffffffffffffffffffffffffffffffffffff167ffbde797d201c681b91056529119e0b02407c7bb96a4a2c75c01fc9667232c8db8785604051611a8192919061312c565b60405180910390a4611ad483857f000000000000000000000000000000000000000000000000000000000000000073ffffffffffffffffffffffffffffffffffffffff1661280c9092919063ffffffff16565b9392505050565b60008173ffffffffffffffffffffffffffffffffffffffff163373ffffffffffffffffffffffffffffffffffffffff1614611c47576000600460008473ffffffffffffffffffffffffffffffffffffffff1673ffffffffffffffffffffffffffffffffffffffff16815260200190815260200160002060003373ffffffffffffffffffffffffffffffffffffffff1673ffffffffffffffffffffffffffffffffffffffff1681526020019081526020016000205490507fffffffffffffffffffffffffffffffffffffffffffffffffffffffffffffffff8114611c45578481611bc49190612f4c565b600460008573ffffffffffffffffffffffffffffffffffffffff1673ffffffffffffffffffffffffffffffffffffffff16815260200190815260200160002060003373ffffffffffffffffffffffffffffffffffffffff1673ffffffffffffffffffffffffffffffffffffffff168152602001908152602001600020819055505b505b6000611c52856110c0565b9150811415611c96576040517f08c379a0000000000000000000000000000000000000000000000000000000008152600401611c8d90613278565b60405180910390fd5b611ca08185612720565b611caa828561273c565b8173ffffffffffffffffffffffffffffffffffffffff168373ffffffffffffffffffffffffffffffffffffffff163373ffffffffffffffffffffffffffffffffffffffff167ffbde797d201c681b91056529119e0b02407c7bb96a4a2c75c01fc9667232c8db8488604051611d2092919061312c565b60405180910390a4611d7383827f000000000000000000000000000000000000000000000000000000000000000073ffffffffffffffffffffffffffffffffffffffff1661280c9092919063ffffffff16565b9392505050565b60075481565b3373ffffffffffffffffffffffffffffffffffffffff16611d9f611096565b73ffffffffffffffffffffffffffffffffffffffff1614611df5576040517f08c379a0000000000000000000000000000000000000000000000000000000008152600401611dec90612ff2565b60405180910390fd5b670de0b6b3a7640000811115611e40576040517f08c379a0000000000000000000000000000000000000000000000000000000008152600401611e37906132e4565b60405180910390fd5b80600a819055503373ffffffffffffffffffffffffffffffffffffffff167f95bc4480b51f4860106d42850bcae222cf3303fb2b7d433e896205e0ebefe36982604051611e8d91906128bd565b60405180910390a250565b7f000000000000000000000000000000000000000000000000000000000000000081565b60007fffffffffffffffffffffffffffffffffffffffffffffffffffffffffffffffff9050919050565b600080600254905060008114611f1757611f1281611f026108c0565b856124af9092919063ffffffff16565b611f19565b825b915050919050565b6000611f6b600360008473ffffffffffffffffffffffffffffffffffffffff1673ffffffffffffffffffffffffffffffffffffffff168152602001908152602001600020546109fe565b9050919050565b42841015611fb5576040517f08c379a0000000000000000000000000000000000000000000000000000000008152600401611fac90613350565b60405180910390fd5b60006001611fc1610fac565b7f6e71edae12b1b97f4d1f60370fef10105fa2faae0126114a169c64845d6126c98a8a8a600560008f73ffffffffffffffffffffffffffffffffffffffff1673ffffffffffffffffffffffffffffffffffffffff1681526020019081526020016000206000815480929190600101919050558b60405160200161204996959493929190613370565b60405160208183030381529060405280519060200120604051602001612070929190613449565b60405160208183030381529060405280519060200120858585604051600081526020016040526040516120a69493929190613480565b6020604051602081039080840390855afa1580156120c8573d6000803e3d6000fd5b505050602060405103519050600073ffffffffffffffffffffffffffffffffffffffff168173ffffffffffffffffffffffffffffffffffffffff161415801561213c57508773ffffffffffffffffffffffffffffffffffffffff168173ffffffffffffffffffffffffffffffffffffffff16145b61217b576040517f08c379a000000000000000000000000000000000000000000000000000000000815260040161217290613511565b60405180910390fd5b85600460008373ffffffffffffffffffffffffffffffffffffffff1673ffffffffffffffffffffffffffffffffffffffff16815260200190815260200160002060008973ffffffffffffffffffffffffffffffffffffffff1673ffffffffffffffffffffffffffffffffffffffff16815260200190815260200160002081905550508573ffffffffffffffffffffffffffffffffffffffff168773ffffffffffffffffffffffffffffffffffffffff167f8c5be1e5ebec7d5bd14f71427d1e84f3dd0314c0f7b2291e5b200ac8c7c3b9258760405161225a91906128bd565b60405180910390a350505050505050565b6000600360008373ffffffffffffffffffffffffffffffffffffffff1673ffffffffffffffffffffffffffffffffffffffff168152602001908152602001600020549050919050565b6004602052816000526040600020602052806000526040600020600091509150505481565b600c5481565b60006122ea82611ee6565b9050919050565b3373ffffffffffffffffffffffffffffffffffffffff16612310611096565b73ffffffffffffffffffffffffffffffffffffffff1614612366576040517f08c379a000000000000000000000000000000000000000000000000000000000815260040161235d90612ff2565b60405180910390fd5b600073ffffffffffffffffffffffffffffffffffffffff168173ffffffffffffffffffffffffffffffffffffffff1614156123d6576040517f08c379a00000000000000000000000000000000000000000000000000000000081526004016123cd906135a3565b60405180910390fd5b8073ffffffffffffffffffffffffffffffffffffffff16600660009054906101000a900473ffffffffffffffffffffffffffffffffffffffff1673ffffffffffffffffffffffffffffffffffffffff167f8be0079c531659141344cd1fd0a4f28419497f9722a3daafe3b4186f6b6457e060405160405180910390a380600660006101000a81548173ffffffffffffffffffffffffffffffffffffffff021916908373ffffffffffffffffffffffffffffffffffffffff16021790555050565b600b60009054906101000a900460ff1681565b60085481565b600082840290508284820414841517821515166124cb57600080fd5b81810490509392505050565b600082840290508284820414841517821515166124f357600080fd5b6001826001830304018115150290509392505050565b60007f8b73c3c69bb8fe3d512ecc4cf759cc79239f7b179b0ffacaa9a75d522b39400f600060405161253b9190613662565b60405180910390207fc89efdaa54c0f20c7adf612882df0950f5a951637e0307cdcb4c672f298b8bc6463060405160200161257a959493929190613679565b60405160208183030381529060405280519060200120905090565b60006040517f23b872dd0000000000000000000000000000000000000000000000000000000081528460048201528360248201528260448201526020600060648360008a5af13d15601f3d116001600051141617169150508061262d576040517f08c379a000000000000000000000000000000000000000000000000000000000815260040161262490613718565b60405180910390fd5b5050505050565b80600260008282546126469190613738565b9250508190555080600360008473ffffffffffffffffffffffffffffffffffffffff1673ffffffffffffffffffffffffffffffffffffffff168152602001908152602001600020600082825401925050819055508173ffffffffffffffffffffffffffffffffffffffff16600073ffffffffffffffffffffffffffffffffffffffff167fddf252ad1be2c89b69c2b068fc378daa952ba7f163c4a11628f55a4df523b3ef836040516126f891906128bd565b60405180910390a35050565b600860008154809291906127179061378e565b91905055505050565b600760008154809291906127339061378e565b91905055505050565b80600360008473ffffffffffffffffffffffffffffffffffffffff1673ffffffffffffffffffffffffffffffffffffffff168152602001908152602001600020600082825461278b9190612f4c565b9250508190555080600260008282540392505081905550600073ffffffffffffffffffffffffffffffffffffffff168273ffffffffffffffffffffffffffffffffffffffff167fddf252ad1be2c89b69c2b068fc378daa952ba7f163c4a11628f55a4df523b3ef8360405161280091906128bd565b60405180910390a35050565b60006040517fa9059cbb000000000000000000000000000000000000000000000000000000008152836004820152826024820152602060006044836000895af13d15601f3d116001600051141617169150508061289e576040517f08c379a000000000000000000000000000000000000000000000000000000000815260040161289590613823565b60405180910390fd5b50505050565b6000819050919050565b6128b7816128a4565b82525050565b60006020820190506128d260008301846128ae565b92915050565b600081519050919050565b600082825260208201905092915050565b60005b838110156129125780820151818401526020810190506128f7565b83811115612921576000848401525b50505050565b6000601f19601f8301169050919050565b6000612943826128d8565b61294d81856128e3565b935061295d8185602086016128f4565b61296681612927565b840191505092915050565b6000602082019050818103600083015261298b8184612938565b905092915050565b600080fd5b6129a1816128a4565b81146129ac57600080fd5b50565b6000813590506129be81612998565b92915050565b6000602082840312156129da576129d9612993565b5b60006129e8848285016129af565b91505092915050565b600073ffffffffffffffffffffffffffffffffffffffff82169050919050565b6000612a1c826129f1565b9050919050565b612a2c81612a11565b8114612a3757600080fd5b50565b600081359050612a4981612a23565b92915050565b60008060408385031215612a6657612a65612993565b5b6000612a7485828601612a3a565b9250506020612a85858286016129af565b9150509250929050565b60008115159050919050565b612aa481612a8f565b82525050565b6000602082019050612abf6000830184612a9b565b92915050565b600080600060608486031215612ade57612add612993565b5b6000612aec86828701612a3a565b9350506020612afd86828701612a3a565b9250506040612b0e868287016129af565b9150509250925092565b600060ff82169050919050565b612b2e81612b18565b82525050565b6000602082019050612b496000830184612b25565b92915050565b612b5881612a8f565b8114612b6357600080fd5b50565b600081359050612b7581612b4f565b92915050565b600060208284031215612b9157612b90612993565b5b6000612b9f84828501612b66565b91505092915050565b6000819050919050565b612bbb81612ba8565b82525050565b6000602082019050612bd66000830184612bb2565b92915050565b6000819050919050565b6000612c01612bfc612bf7846129f1565b612bdc565b6129f1565b9050919050565b6000612c1382612be6565b9050919050565b6000612c2582612c08565b9050919050565b612c3581612c1a565b82525050565b6000602082019050612c506000830184612c2c565b92915050565b600060208284031215612c6c57612c6b612993565b5b6000612c7a84828501612a3a565b91505092915050565b612c8c81612a11565b82525050565b6000602082019050612ca76000830184612c83565b92915050565b60008060408385031215612cc457612cc3612993565b5b6000612cd2858286016129af565b9250506020612ce385828601612a3a565b9150509250929050565b600080600060608486031215612d0657612d05612993565b5b6000612d14868287016129af565b9350506020612d2586828701612a3a565b9250506040612d3686828701612a3a565b9150509250925092565b612d4981612b18565b8114612d5457600080fd5b50565b600081359050612d6681612d40565b92915050565b612d7581612ba8565b8114612d8057600080fd5b50565b600081359050612d9281612d6c565b92915050565b600080600080600080600060e0888a031215612db757612db6612993565b5b6000612dc58a828b01612a3a565b9750506020612dd68a828b01612a3a565b9650506040612de78a828b016129af565b9550506060612df88a828b016129af565b9450506080612e098a828b01612d57565b93505060a0612e1a8a828b01612d83565b92505060c0612e2b8a828b01612d83565b91505092959891949750929550565b60008060408385031215612e5157612e50612993565b5b6000612e5f85828601612a3a565b9250506020612e7085828601612a3a565b9150509250929050565b600081519050612e8981612998565b92915050565b600060208284031215612ea557612ea4612993565b5b6000612eb384828501612e7a565b91505092915050565b7f4e487b7100000000000000000000000000000000000000000000000000000000600052602260045260246000fd5b60006002820490506001821680612f0357607f821691505b60208210811415612f1757612f16612ebc565b5b50919050565b7f4e487b7100000000000000000000000000000000000000000000000000000000600052601160045260246000fd5b6000612f57826128a4565b9150612f62836128a4565b925082821015612f7557612f74612f1d565b5b828203905092915050565b7f4f776e61626c653a2063616c6c6572206973206e6f7420746865206d616e616760008201527f6572000000000000000000000000000000000000000000000000000000000000602082015250565b6000612fdc6022836128e3565b9150612fe782612f80565b604082019050919050565b6000602082019050818103600083015261300b81612fcf565b9050919050565b60008151905061302181612d40565b92915050565b60006020828403121561303d5761303c612993565b5b600061304b84828501613012565b91505092915050565b7f57524f4e475f444543494d414c53000000000000000000000000000000000000600082015250565b600061308a600e836128e3565b915061309582613054565b602082019050919050565b600060208201905081810360008301526130b98161307d565b9050919050565b7f5a45524f5f534841524553000000000000000000000000000000000000000000600082015250565b60006130f6600b836128e3565b9150613101826130c0565b602082019050919050565b60006020820190508181036000830152613125816130e9565b9050919050565b600060408201905061314160008301856128ae565b61314e60208301846128ae565b9392505050565b7f4645455f544f4f5f484947480000000000000000000000000000000000000000600082015250565b600061318b600c836128e3565b915061319682613155565b602082019050919050565b600060208201905081810360008301526131ba8161317e565b9050919050565b60006040820190506131d66000830185612c83565b6131e360208301846128ae565b9392505050565b6000815190506131f981612b4f565b92915050565b60006020828403121561321557613214612993565b5b6000613223848285016131ea565b91505092915050565b7f5a45524f5f415353455453000000000000000000000000000000000000000000600082015250565b6000613262600b836128e3565b915061326d8261322c565b602082019050919050565b6000602082019050818103600083015261329181613255565b9050919050565b7f5441524745545f544f4f5f484947480000000000000000000000000000000000600082015250565b60006132ce600f836128e3565b91506132d982613298565b602082019050919050565b600060208201905081810360008301526132fd816132c1565b9050919050565b7f5045524d49545f444541444c494e455f45585049524544000000000000000000600082015250565b600061333a6017836128e3565b915061334582613304565b602082019050919050565b600060208201905081810360008301526133698161332d565b9050919050565b600060c0820190506133856000830189612bb2565b6133926020830188612c83565b61339f6040830187612c83565b6133ac60608301866128ae565b6133b960808301856128ae565b6133c660a08301846128ae565b979650505050505050565b600081905092915050565b7f1901000000000000000000000000000000000000000000000000000000000000600082015250565b60006134126002836133d1565b915061341d826133dc565b600282019050919050565b6000819050919050565b61344361343e82612ba8565b613428565b82525050565b600061345482613405565b91506134608285613432565b6020820191506134708284613432565b6020820191508190509392505050565b60006080820190506134956000830187612bb2565b6134a26020830186612b25565b6134af6040830185612bb2565b6134bc6060830184612bb2565b95945050505050565b7f494e56414c49445f5349474e4552000000000000000000000000000000000000600082015250565b60006134fb600e836128e3565b9150613506826134c5565b602082019050919050565b6000602082019050818103600083015261352a816134ee565b9050919050565b7f4f776e61626c653a206e6577206d616e6167657220697320746865207a65726f60008201527f2061646472657373000000000000000000000000000000000000000000000000602082015250565b600061358d6028836128e3565b915061359882613531565b604082019050919050565b600060208201905081810360008301526135bc81613580565b9050919050565b600081905092915050565b60008190508160005260206000209050919050565b600081546135f081612eeb565b6135fa81866135c3565b94506001821660008114613615576001811461362657613659565b60ff19831686528186019350613659565b61362f856135ce565b60005b8381101561365157815481890152600182019150602081019050613632565b838801955050505b50505092915050565b600061366e82846135e3565b915081905092915050565b600060a08201905061368e6000830188612bb2565b61369b6020830187612bb2565b6136a86040830186612bb2565b6136b560608301856128ae565b6136c26080830184612c83565b9695505050505050565b7f5452414e534645525f46524f4d5f4641494c4544000000000000000000000000600082015250565b60006137026014836128e3565b915061370d826136cc565b602082019050919050565b60006020820190508181036000830152613731816136f5565b9050919050565b6000613743826128a4565b915061374e836128a4565b9250827fffffffffffffffffffffffffffffffffffffffffffffffffffffffffffffffff0382111561378357613782612f1d565b5b828201905092915050565b6000613799826128a4565b91507fffffffffffffffffffffffffffffffffffffffffffffffffffffffffffffffff8214156137cc576137cb612f1d565b5b600182019050919050565b7f5452414e534645525f4641494c45440000000000000000000000000000000000600082015250565b600061380d600f836128e3565b9150613818826137d7565b602082019050919050565b6000602082019050818103600083015261383c81613800565b905091905056fea2646970667358221220341fcfbe49435535bd0396d9ab5a0e70809164433738e8f9cd5b5459ee5ea04564736f6c63430008080033",
					"opcodes": "PUSH2 0x140 PUSH1 0x40 MSTORE PUSH1 0x0 PUSH1 0x7 SSTORE PUSH1 0x0 PUSH1 0x8 SSTORE CALLVALUE DUP1 ISZERO PUSH3 0x1C JUMPI PUSH1 0x0 DUP1 REVERT JUMPDEST POP PUSH1 0x40 MLOAD PUSH3 0x424F CODESIZE SUB DUP1 PUSH3 0x424F DUP4 CODECOPY DUP2 DUP2 ADD PUSH1 0x40 MSTORE DUP2 ADD SWAP1 PUSH3 0x42 SWAP2 SWAP1 PUSH3 0x502 JUMP JUMPDEST DUP4 DUP4 DUP4 DUP4 DUP3 DUP3 DUP3 DUP3 PUSH1 0x0 SWAP1 DUP1 MLOAD SWAP1 PUSH1 0x20 ADD SWAP1 PUSH3 0x61 SWAP3 SWAP2 SWAP1 PUSH3 0x1FE JUMP JUMPDEST POP DUP2 PUSH1 0x1 SWAP1 DUP1 MLOAD SWAP1 PUSH1 0x20 ADD SWAP1 PUSH3 0x7A SWAP3 SWAP2 SWAP1 PUSH3 0x1FE JUMP JUMPDEST POP DUP1 PUSH1 0xFF AND PUSH1 0x80 DUP2 PUSH1 0xFF AND PUSH1 0xF8 SHL DUP2 MSTORE POP POP CHAINID PUSH1 0xA0 DUP2 DUP2 MSTORE POP POP PUSH3 0xA4 PUSH3 0x16E PUSH1 0x20 SHL PUSH1 0x20 SHR JUMP JUMPDEST PUSH1 0xC0 DUP2 DUP2 MSTORE POP POP POP POP POP DUP4 PUSH20 0xFFFFFFFFFFFFFFFFFFFFFFFFFFFFFFFFFFFFFFFF AND PUSH1 0xE0 DUP2 PUSH20 0xFFFFFFFFFFFFFFFFFFFFFFFFFFFFFFFFFFFFFFFF AND PUSH1 0x60 SHL DUP2 MSTORE POP POP POP POP POP POP DUP4 PUSH20 0xFFFFFFFFFFFFFFFFFFFFFFFFFFFFFFFFFFFFFFFF AND PUSH2 0x120 DUP2 PUSH20 0xFFFFFFFFFFFFFFFFFFFFFFFFFFFFFFFFFFFFFFFF AND PUSH1 0x60 SHL DUP2 MSTORE POP POP PUSH1 0x80 MLOAD PUSH1 0xF8 SHR PUSH1 0xA PUSH3 0x135 SWAP2 SWAP1 PUSH3 0x73F JUMP JUMPDEST PUSH2 0x100 DUP2 DUP2 MSTORE POP POP PUSH32 0xFFFFFFFFFFFFFFFFFFFFFFFFFFFFFFFFFFFFFFFFFFFFFFFFFFFFFFFFFFFFFFFF PUSH1 0x2 DUP2 SWAP1 SSTORE POP POP POP POP POP PUSH3 0x953 JUMP JUMPDEST PUSH1 0x0 PUSH32 0x8B73C3C69BB8FE3D512ECC4CF759CC79239F7B179B0FFACAA9A75D522B39400F PUSH1 0x0 PUSH1 0x40 MLOAD PUSH3 0x1A2 SWAP2 SWAP1 PUSH3 0x8A0 JUMP JUMPDEST PUSH1 0x40 MLOAD DUP1 SWAP2 SUB SWAP1 KECCAK256 PUSH32 0xC89EFDAA54C0F20C7ADF612882DF0950F5A951637E0307CDCB4C672F298B8BC6 CHAINID ADDRESS PUSH1 0x40 MLOAD PUSH1 0x20 ADD PUSH3 0x1E3 SWAP6 SWAP5 SWAP4 SWAP3 SWAP2 SWAP1 PUSH3 0x8F6 JUMP JUMPDEST PUSH1 0x40 MLOAD PUSH1 0x20 DUP2 DUP4 SUB SUB DUP2 MSTORE SWAP1 PUSH1 0x40 MSTORE DUP1 MLOAD SWAP1 PUSH1 0x20 ADD KECCAK256 SWAP1 POP SWAP1 JUMP JUMPDEST DUP3 DUP1 SLOAD PUSH3 0x20C SWAP1 PUSH3 0x7BF JUMP JUMPDEST SWAP1 PUSH1 0x0 MSTORE PUSH1 0x20 PUSH1 0x0 KECCAK256 SWAP1 PUSH1 0x1F ADD PUSH1 0x20 SWAP1 DIV DUP2 ADD SWAP3 DUP3 PUSH3 0x230 JUMPI PUSH1 0x0 DUP6 SSTORE PUSH3 0x27C JUMP JUMPDEST DUP3 PUSH1 0x1F LT PUSH3 0x24B JUMPI DUP1 MLOAD PUSH1 0xFF NOT AND DUP4 DUP1 ADD OR DUP6 SSTORE PUSH3 0x27C JUMP JUMPDEST DUP3 DUP1 ADD PUSH1 0x1 ADD DUP6 SSTORE DUP3 ISZERO PUSH3 0x27C JUMPI SWAP2 DUP3 ADD JUMPDEST DUP3 DUP2 GT ISZERO PUSH3 0x27B JUMPI DUP3 MLOAD DUP3 SSTORE SWAP2 PUSH1 0x20 ADD SWAP2 SWAP1 PUSH1 0x1 ADD SWAP1 PUSH3 0x25E JUMP JUMPDEST JUMPDEST POP SWAP1 POP PUSH3 0x28B SWAP2 SWAP1 PUSH3 0x28F JUMP JUMPDEST POP SWAP1 JUMP JUMPDEST JUMPDEST DUP1 DUP3 GT ISZERO PUSH3 0x2AA JUMPI PUSH1 0x0 DUP2 PUSH1 0x0 SWAP1 SSTORE POP PUSH1 0x1 ADD PUSH3 0x290 JUMP JUMPDEST POP SWAP1 JUMP JUMPDEST PUSH1 0x0 PUSH1 0x40 MLOAD SWAP1 POP SWAP1 JUMP JUMPDEST PUSH1 0x0 DUP1 REVERT JUMPDEST PUSH1 0x0 DUP1 REVERT JUMPDEST PUSH1 0x0 PUSH20 0xFFFFFFFFFFFFFFFFFFFFFFFFFFFFFFFFFFFFFFFF DUP3 AND SWAP1 POP SWAP2 SWAP1 POP JUMP JUMPDEST PUSH1 0x0 PUSH3 0x2EF DUP3 PUSH3 0x2C2 JUMP JUMPDEST SWAP1 POP SWAP2 SWAP1 POP JUMP JUMPDEST PUSH1 0x0 PUSH3 0x303 DUP3 PUSH3 0x2E2 JUMP JUMPDEST SWAP1 POP SWAP2 SWAP1 POP JUMP JUMPDEST PUSH3 0x315 DUP2 PUSH3 0x2F6 JUMP JUMPDEST DUP2 EQ PUSH3 0x321 JUMPI PUSH1 0x0 DUP1 REVERT JUMPDEST POP JUMP JUMPDEST PUSH1 0x0 DUP2 MLOAD SWAP1 POP PUSH3 0x335 DUP2 PUSH3 0x30A JUMP JUMPDEST SWAP3 SWAP2 POP POP JUMP JUMPDEST PUSH1 0x0 DUP1 REVERT JUMPDEST PUSH1 0x0 DUP1 REVERT JUMPDEST PUSH1 0x0 PUSH1 0x1F NOT PUSH1 0x1F DUP4 ADD AND SWAP1 POP SWAP2 SWAP1 POP JUMP JUMPDEST PUSH32 0x4E487B7100000000000000000000000000000000000000000000000000000000 PUSH1 0x0 MSTORE PUSH1 0x41 PUSH1 0x4 MSTORE PUSH1 0x24 PUSH1 0x0 REVERT JUMPDEST PUSH3 0x390 DUP3 PUSH3 0x345 JUMP JUMPDEST DUP2 ADD DUP2 DUP2 LT PUSH8 0xFFFFFFFFFFFFFFFF DUP3 GT OR ISZERO PUSH3 0x3B2 JUMPI PUSH3 0x3B1 PUSH3 0x356 JUMP JUMPDEST JUMPDEST DUP1 PUSH1 0x40 MSTORE POP POP POP JUMP JUMPDEST PUSH1 0x0 PUSH3 0x3C7 PUSH3 0x2AE JUMP JUMPDEST SWAP1 POP PUSH3 0x3D5 DUP3 DUP3 PUSH3 0x385 JUMP JUMPDEST SWAP2 SWAP1 POP JUMP JUMPDEST PUSH1 0x0 PUSH8 0xFFFFFFFFFFFFFFFF DUP3 GT ISZERO PUSH3 0x3F8 JUMPI PUSH3 0x3F7 PUSH3 0x356 JUMP JUMPDEST JUMPDEST PUSH3 0x403 DUP3 PUSH3 0x345 JUMP JUMPDEST SWAP1 POP PUSH1 0x20 DUP2 ADD SWAP1 POP SWAP2 SWAP1 POP JUMP JUMPDEST PUSH1 0x0 JUMPDEST DUP4 DUP2 LT ISZERO PUSH3 0x430 JUMPI DUP1 DUP3 ADD MLOAD DUP2 DUP5 ADD MSTORE PUSH1 0x20 DUP2 ADD SWAP1 POP PUSH3 0x413 JUMP JUMPDEST DUP4 DUP2 GT ISZERO PUSH3 0x440 JUMPI PUSH1 0x0 DUP5 DUP5 ADD MSTORE JUMPDEST POP POP POP POP JUMP JUMPDEST PUSH1 0x0 PUSH3 0x45D PUSH3 0x457 DUP5 PUSH3 0x3DA JUMP JUMPDEST PUSH3 0x3BB JUMP JUMPDEST SWAP1 POP DUP3 DUP2 MSTORE PUSH1 0x20 DUP2 ADD DUP5 DUP5 DUP5 ADD GT ISZERO PUSH3 0x47C JUMPI PUSH3 0x47B PUSH3 0x340 JUMP JUMPDEST JUMPDEST PUSH3 0x489 DUP5 DUP3 DUP6 PUSH3 0x410 JUMP JUMPDEST POP SWAP4 SWAP3 POP POP POP JUMP JUMPDEST PUSH1 0x0 DUP3 PUSH1 0x1F DUP4 ADD SLT PUSH3 0x4A9 JUMPI PUSH3 0x4A8 PUSH3 0x33B JUMP JUMPDEST JUMPDEST DUP2 MLOAD PUSH3 0x4BB DUP5 DUP3 PUSH1 0x20 DUP7 ADD PUSH3 0x446 JUMP JUMPDEST SWAP2 POP POP SWAP3 SWAP2 POP POP JUMP JUMPDEST PUSH1 0x0 PUSH1 0xFF DUP3 AND SWAP1 POP SWAP2 SWAP1 POP JUMP JUMPDEST PUSH3 0x4DC DUP2 PUSH3 0x4C4 JUMP JUMPDEST DUP2 EQ PUSH3 0x4E8 JUMPI PUSH1 0x0 DUP1 REVERT JUMPDEST POP JUMP JUMPDEST PUSH1 0x0 DUP2 MLOAD SWAP1 POP PUSH3 0x4FC DUP2 PUSH3 0x4D1 JUMP JUMPDEST SWAP3 SWAP2 POP POP JUMP JUMPDEST PUSH1 0x0 DUP1 PUSH1 0x0 DUP1 PUSH1 0x80 DUP6 DUP8 SUB SLT ISZERO PUSH3 0x51F JUMPI PUSH3 0x51E PUSH3 0x2B8 JUMP JUMPDEST JUMPDEST PUSH1 0x0 PUSH3 0x52F DUP8 DUP3 DUP9 ADD PUSH3 0x324 JUMP JUMPDEST SWAP5 POP POP PUSH1 0x20 DUP6 ADD MLOAD PUSH8 0xFFFFFFFFFFFFFFFF DUP2 GT ISZERO PUSH3 0x553 JUMPI PUSH3 0x552 PUSH3 0x2BD JUMP JUMPDEST JUMPDEST PUSH3 0x561 DUP8 DUP3 DUP9 ADD PUSH3 0x491 JUMP JUMPDEST SWAP4 POP POP PUSH1 0x40 DUP6 ADD MLOAD PUSH8 0xFFFFFFFFFFFFFFFF DUP2 GT ISZERO PUSH3 0x585 JUMPI PUSH3 0x584 PUSH3 0x2BD JUMP JUMPDEST JUMPDEST PUSH3 0x593 DUP8 DUP3 DUP9 ADD PUSH3 0x491 JUMP JUMPDEST SWAP3 POP POP PUSH1 0x60 PUSH3 0x5A6 DUP8 DUP3 DUP9 ADD PUSH3 0x4EB JUMP JUMPDEST SWAP2 POP POP SWAP3 SWAP6 SWAP2 SWAP5 POP SWAP3 POP JUMP JUMPDEST PUSH32 0x4E487B7100000000000000000000000000000000000000000000000000000000 PUSH1 0x0 MSTORE PUSH1 0x11 PUSH1 0x4 MSTORE PUSH1 0x24 PUSH1 0x0 REVERT JUMPDEST PUSH1 0x0 DUP2 PUSH1 0x1 SHR SWAP1 POP SWAP2 SWAP1 POP JUMP JUMPDEST PUSH1 0x0 DUP1 DUP3 SWAP2 POP DUP4 SWAP1 POP JUMPDEST PUSH1 0x1 DUP6 GT ISZERO PUSH3 0x640 JUMPI DUP1 DUP7 DIV DUP2 GT ISZERO PUSH3 0x618 JUMPI PUSH3 0x617 PUSH3 0x5B2 JUMP JUMPDEST JUMPDEST PUSH1 0x1 DUP6 AND ISZERO PUSH3 0x628 JUMPI DUP1 DUP3 MUL SWAP2 POP JUMPDEST DUP1 DUP2 MUL SWAP1 POP PUSH3 0x638 DUP6 PUSH3 0x5E1 JUMP JUMPDEST SWAP5 POP PUSH3 0x5F8 JUMP JUMPDEST SWAP5 POP SWAP5 SWAP3 POP POP POP JUMP JUMPDEST PUSH1 0x0 DUP3 PUSH3 0x65B JUMPI PUSH1 0x1 SWAP1 POP PUSH3 0x72E JUMP JUMPDEST DUP2 PUSH3 0x66B JUMPI PUSH1 0x0 SWAP1 POP PUSH3 0x72E JUMP JUMPDEST DUP2 PUSH1 0x1 DUP2 EQ PUSH3 0x684 JUMPI PUSH1 0x2 DUP2 EQ PUSH3 0x68F JUMPI PUSH3 0x6C5 JUMP JUMPDEST PUSH1 0x1 SWAP2 POP POP PUSH3 0x72E JUMP JUMPDEST PUSH1 0xFF DUP5 GT ISZERO PUSH3 0x6A4 JUMPI PUSH3 0x6A3 PUSH3 0x5B2 JUMP JUMPDEST JUMPDEST DUP4 PUSH1 0x2 EXP SWAP2 POP DUP5 DUP3 GT ISZERO PUSH3 0x6BE JUMPI PUSH3 0x6BD PUSH3 0x5B2 JUMP JUMPDEST JUMPDEST POP PUSH3 0x72E JUMP JUMPDEST POP PUSH1 0x20 DUP4 LT PUSH2 0x133 DUP4 LT AND PUSH1 0x4E DUP5 LT PUSH1 0xB DUP5 LT AND OR ISZERO PUSH3 0x6FF JUMPI DUP3 DUP3 EXP SWAP1 POP DUP4 DUP2 GT ISZERO PUSH3 0x6F9 JUMPI PUSH3 0x6F8 PUSH3 0x5B2 JUMP JUMPDEST JUMPDEST PUSH3 0x72E JUMP JUMPDEST PUSH3 0x70E DUP5 DUP5 DUP5 PUSH1 0x1 PUSH3 0x5EE JUMP JUMPDEST SWAP3 POP SWAP1 POP DUP2 DUP5 DIV DUP2 GT ISZERO PUSH3 0x728 JUMPI PUSH3 0x727 PUSH3 0x5B2 JUMP JUMPDEST JUMPDEST DUP2 DUP2 MUL SWAP1 POP JUMPDEST SWAP4 SWAP3 POP POP POP JUMP JUMPDEST PUSH1 0x0 DUP2 SWAP1 POP SWAP2 SWAP1 POP JUMP JUMPDEST PUSH1 0x0 PUSH3 0x74C DUP3 PUSH3 0x735 JUMP JUMPDEST SWAP2 POP PUSH3 0x759 DUP4 PUSH3 0x4C4 JUMP JUMPDEST SWAP3 POP PUSH3 0x788 PUSH32 0xFFFFFFFFFFFFFFFFFFFFFFFFFFFFFFFFFFFFFFFFFFFFFFFFFFFFFFFFFFFFFFFF DUP5 DUP5 PUSH3 0x649 JUMP JUMPDEST SWAP1 POP SWAP3 SWAP2 POP POP JUMP JUMPDEST PUSH32 0x4E487B7100000000000000000000000000000000000000000000000000000000 PUSH1 0x0 MSTORE PUSH1 0x22 PUSH1 0x4 MSTORE PUSH1 0x24 PUSH1 0x0 REVERT JUMPDEST PUSH1 0x0 PUSH1 0x2 DUP3 DIV SWAP1 POP PUSH1 0x1 DUP3 AND DUP1 PUSH3 0x7D8 JUMPI PUSH1 0x7F DUP3 AND SWAP2 POP JUMPDEST PUSH1 0x20 DUP3 LT DUP2 EQ ISZERO PUSH3 0x7EF JUMPI PUSH3 0x7EE PUSH3 0x790 JUMP JUMPDEST JUMPDEST POP SWAP2 SWAP1 POP JUMP JUMPDEST PUSH1 0x0 DUP2 SWAP1 POP SWAP3 SWAP2 POP POP JUMP JUMPDEST PUSH1 0x0 DUP2 SWAP1 POP DUP2 PUSH1 0x0 MSTORE PUSH1 0x20 PUSH1 0x0 KECCAK256 SWAP1 POP SWAP2 SWAP1 POP JUMP JUMPDEST PUSH1 0x0 DUP2 SLOAD PUSH3 0x824 DUP2 PUSH3 0x7BF JUMP JUMPDEST PUSH3 0x830 DUP2 DUP7 PUSH3 0x7F5 JUMP JUMPDEST SWAP5 POP PUSH1 0x1 DUP3 AND PUSH1 0x0 DUP2 EQ PUSH3 0x84E JUMPI PUSH1 0x1 DUP2 EQ PUSH3 0x860 JUMPI PUSH3 0x897 JUMP JUMPDEST PUSH1 0xFF NOT DUP4 AND DUP7 MSTORE DUP2 DUP7 ADD SWAP4 POP PUSH3 0x897 JUMP JUMPDEST PUSH3 0x86B DUP6 PUSH3 0x800 JUMP JUMPDEST PUSH1 0x0 JUMPDEST DUP4 DUP2 LT ISZERO PUSH3 0x88F JUMPI DUP2 SLOAD DUP2 DUP10 ADD MSTORE PUSH1 0x1 DUP3 ADD SWAP2 POP PUSH1 0x20 DUP2 ADD SWAP1 POP PUSH3 0x86E JUMP JUMPDEST DUP4 DUP9 ADD SWAP6 POP POP POP JUMPDEST POP POP POP SWAP3 SWAP2 POP POP JUMP JUMPDEST PUSH1 0x0 PUSH3 0x8AE DUP3 DUP5 PUSH3 0x815 JUMP JUMPDEST SWAP2 POP DUP2 SWAP1 POP SWAP3 SWAP2 POP POP JUMP JUMPDEST PUSH1 0x0 DUP2 SWAP1 POP SWAP2 SWAP1 POP JUMP JUMPDEST PUSH3 0x8CE DUP2 PUSH3 0x8B9 JUMP JUMPDEST DUP3 MSTORE POP POP JUMP JUMPDEST PUSH3 0x8DF DUP2 PUSH3 0x735 JUMP JUMPDEST DUP3 MSTORE POP POP JUMP JUMPDEST PUSH3 0x8F0 DUP2 PUSH3 0x2E2 JUMP JUMPDEST DUP3 MSTORE POP POP JUMP JUMPDEST PUSH1 0x0 PUSH1 0xA0 DUP3 ADD SWAP1 POP PUSH3 0x90D PUSH1 0x0 DUP4 ADD DUP9 PUSH3 0x8C3 JUMP JUMPDEST PUSH3 0x91C PUSH1 0x20 DUP4 ADD DUP8 PUSH3 0x8C3 JUMP JUMPDEST PUSH3 0x92B PUSH1 0x40 DUP4 ADD DUP7 PUSH3 0x8C3 JUMP JUMPDEST PUSH3 0x93A PUSH1 0x60 DUP4 ADD DUP6 PUSH3 0x8D4 JUMP JUMPDEST PUSH3 0x949 PUSH1 0x80 DUP4 ADD DUP5 PUSH3 0x8E5 JUMP JUMPDEST SWAP7 SWAP6 POP POP POP POP POP POP JUMP JUMPDEST PUSH1 0x80 MLOAD PUSH1 0xF8 SHR PUSH1 0xA0 MLOAD PUSH1 0xC0 MLOAD PUSH1 0xE0 MLOAD PUSH1 0x60 SHR PUSH2 0x100 MLOAD PUSH2 0x120 MLOAD PUSH1 0x60 SHR PUSH2 0x3879 PUSH3 0x9D6 PUSH1 0x0 CODECOPY PUSH1 0x0 DUP2 DUP2 PUSH2 0xE61 ADD MSTORE PUSH2 0x1E9A ADD MSTORE PUSH1 0x0 PUSH2 0x1040 ADD MSTORE PUSH1 0x0 DUP2 DUP2 PUSH2 0x8C4 ADD MSTORE DUP2 DUP2 PUSH2 0x100B ADD MSTORE DUP2 DUP2 PUSH2 0x112A ADD MSTORE DUP2 DUP2 PUSH2 0x1489 ADD MSTORE DUP2 DUP2 PUSH2 0x1A90 ADD MSTORE PUSH2 0x1D2F ADD MSTORE PUSH1 0x0 PUSH2 0xFE4 ADD MSTORE PUSH1 0x0 PUSH2 0xFB0 ADD MSTORE PUSH1 0x0 PUSH2 0xDBE ADD MSTORE PUSH2 0x3879 PUSH1 0x0 RETURN INVALID PUSH1 0x80 PUSH1 0x40 MSTORE CALLVALUE DUP1 ISZERO PUSH2 0x10 JUMPI PUSH1 0x0 DUP1 REVERT JUMPDEST POP PUSH1 0x4 CALLDATASIZE LT PUSH2 0x269 JUMPI PUSH1 0x0 CALLDATALOAD PUSH1 0xE0 SHR DUP1 PUSH4 0x7FD6F15C GT PUSH2 0x151 JUMPI DUP1 PUSH4 0xC63D75B6 GT PUSH2 0xC3 JUMPI DUP1 PUSH4 0xDD62ED3E GT PUSH2 0x87 JUMPI DUP1 PUSH4 0xDD62ED3E EQ PUSH2 0x7EA JUMPI DUP1 PUSH4 0xECAD9565 EQ PUSH2 0x81A JUMPI DUP1 PUSH4 0xEF8B30F7 EQ PUSH2 0x838 JUMPI DUP1 PUSH4 0xF2FDE38B EQ PUSH2 0x868 JUMPI DUP1 PUSH4 0xF84D73F4 EQ PUSH2 0x884 JUMPI DUP1 PUSH4 0xFC407AE7 EQ PUSH2 0x8A2 JUMPI PUSH2 0x269 JUMP JUMPDEST DUP1 PUSH4 0xC63D75B6 EQ PUSH2 0x70E JUMPI DUP1 PUSH4 0xC6E6F592 EQ PUSH2 0x73E JUMPI DUP1 PUSH4 0xCE96CB77 EQ PUSH2 0x76E JUMPI DUP1 PUSH4 0xD505ACCF EQ PUSH2 0x79E JUMPI DUP1 PUSH4 0xD905777E EQ PUSH2 0x7BA JUMPI PUSH2 0x269 JUMP JUMPDEST DUP1 PUSH4 0xB3D7F6B9 GT PUSH2 0x115 JUMPI DUP1 PUSH4 0xB3D7F6B9 EQ PUSH2 0x626 JUMPI DUP1 PUSH4 0xB460AF94 EQ PUSH2 0x656 JUMPI DUP1 PUSH4 0xBA087652 EQ PUSH2 0x686 JUMPI DUP1 PUSH4 0xBC368A8A EQ PUSH2 0x6B6 JUMPI DUP1 PUSH4 0xBD662F88 EQ PUSH2 0x6D4 JUMPI DUP1 PUSH4 0xC5D664C6 EQ PUSH2 0x6F0 JUMPI PUSH2 0x269 JUMP JUMPDEST DUP1 PUSH4 0x7FD6F15C EQ PUSH2 0x56E JUMPI DUP1 PUSH4 0x94BF804D EQ PUSH2 0x58C JUMPI DUP1 PUSH4 0x95D89B41 EQ PUSH2 0x5BC JUMPI DUP1 PUSH4 0xA9059CBB EQ PUSH2 0x5DA JUMPI DUP1 PUSH4 0xAC68A748 EQ PUSH2 0x60A JUMPI PUSH2 0x269 JUMP JUMPDEST DUP1 PUSH4 0x3644E515 GT PUSH2 0x1EA JUMPI DUP1 PUSH4 0x4CDAD506 GT PUSH2 0x1AE JUMPI DUP1 PUSH4 0x4CDAD506 EQ PUSH2 0x488 JUMPI DUP1 PUSH4 0x6E553F65 EQ PUSH2 0x4B8 JUMPI DUP1 PUSH4 0x70A08231 EQ PUSH2 0x4E8 JUMPI DUP1 PUSH4 0x715018A6 EQ PUSH2 0x518 JUMPI DUP1 PUSH4 0x7CE3489B EQ PUSH2 0x522 JUMPI DUP1 PUSH4 0x7ECEBE00 EQ PUSH2 0x53E JUMPI PUSH2 0x269 JUMP JUMPDEST DUP1 PUSH4 0x3644E515 EQ PUSH2 0x3E0 JUMPI DUP1 PUSH4 0x38D52E0F EQ PUSH2 0x3FE JUMPI DUP1 PUSH4 0x3BA0B9A9 EQ PUSH2 0x41C JUMPI DUP1 PUSH4 0x402D267D EQ PUSH2 0x43A JUMPI DUP1 PUSH4 0x481C6A75 EQ PUSH2 0x46A JUMPI PUSH2 0x269 JUMP JUMPDEST DUP1 PUSH4 0x18160DDD GT PUSH2 0x231 JUMPI DUP1 PUSH4 0x18160DDD EQ PUSH2 0x33A JUMPI DUP1 PUSH4 0x1C693478 EQ PUSH2 0x358 JUMPI DUP1 PUSH4 0x23B872DD EQ PUSH2 0x376 JUMPI DUP1 PUSH4 0x313CE567 EQ PUSH2 0x3A6 JUMPI DUP1 PUSH4 0x32FF7732 EQ PUSH2 0x3C4 JUMPI PUSH2 0x269 JUMP JUMPDEST DUP1 PUSH4 0x1E1D114 EQ PUSH2 0x26E JUMPI DUP1 PUSH4 0x6FDDE03 EQ PUSH2 0x28C JUMPI DUP1 PUSH4 0x7A2D13A EQ PUSH2 0x2AA JUMPI DUP1 PUSH4 0x95EA7B3 EQ PUSH2 0x2DA JUMPI DUP1 PUSH4 0xA28A477 EQ PUSH2 0x30A JUMPI JUMPDEST PUSH1 0x0 DUP1 REVERT JUMPDEST PUSH2 0x276 PUSH2 0x8C0 JUMP JUMPDEST PUSH1 0x40 MLOAD PUSH2 0x283 SWAP2 SWAP1 PUSH2 0x28BD JUMP JUMPDEST PUSH1 0x40 MLOAD DUP1 SWAP2 SUB SWAP1 RETURN JUMPDEST PUSH2 0x294 PUSH2 0x970 JUMP JUMPDEST PUSH1 0x40 MLOAD PUSH2 0x2A1 SWAP2 SWAP1 PUSH2 0x2971 JUMP JUMPDEST PUSH1 0x40 MLOAD DUP1 SWAP2 SUB SWAP1 RETURN JUMPDEST PUSH2 0x2C4 PUSH1 0x4 DUP1 CALLDATASIZE SUB DUP2 ADD SWAP1 PUSH2 0x2BF SWAP2 SWAP1 PUSH2 0x29C4 JUMP JUMPDEST PUSH2 0x9FE JUMP JUMPDEST PUSH1 0x40 MLOAD PUSH2 0x2D1 SWAP2 SWAP1 PUSH2 0x28BD JUMP JUMPDEST PUSH1 0x40 MLOAD DUP1 SWAP2 SUB SWAP1 RETURN JUMPDEST PUSH2 0x2F4 PUSH1 0x4 DUP1 CALLDATASIZE SUB DUP2 ADD SWAP1 PUSH2 0x2EF SWAP2 SWAP1 PUSH2 0x2A4F JUMP JUMPDEST PUSH2 0xA39 JUMP JUMPDEST PUSH1 0x40 MLOAD PUSH2 0x301 SWAP2 SWAP1 PUSH2 0x2AAA JUMP JUMPDEST PUSH1 0x40 MLOAD DUP1 SWAP2 SUB SWAP1 RETURN JUMPDEST PUSH2 0x324 PUSH1 0x4 DUP1 CALLDATASIZE SUB DUP2 ADD SWAP1 PUSH2 0x31F SWAP2 SWAP1 PUSH2 0x29C4 JUMP JUMPDEST PUSH2 0xB2B JUMP JUMPDEST PUSH1 0x40 MLOAD PUSH2 0x331 SWAP2 SWAP1 PUSH2 0x28BD JUMP JUMPDEST PUSH1 0x40 MLOAD DUP1 SWAP2 SUB SWAP1 RETURN JUMPDEST PUSH2 0x342 PUSH2 0xB66 JUMP JUMPDEST PUSH1 0x40 MLOAD PUSH2 0x34F SWAP2 SWAP1 PUSH2 0x28BD JUMP JUMPDEST PUSH1 0x40 MLOAD DUP1 SWAP2 SUB SWAP1 RETURN JUMPDEST PUSH2 0x360 PUSH2 0xB6C JUMP JUMPDEST PUSH1 0x40 MLOAD PUSH2 0x36D SWAP2 SWAP1 PUSH2 0x28BD JUMP JUMPDEST PUSH1 0x40 MLOAD DUP1 SWAP2 SUB SWAP1 RETURN JUMPDEST PUSH2 0x390 PUSH1 0x4 DUP1 CALLDATASIZE SUB DUP2 ADD SWAP1 PUSH2 0x38B SWAP2 SWAP1 PUSH2 0x2AC5 JUMP JUMPDEST PUSH2 0xB72 JUMP JUMPDEST PUSH1 0x40 MLOAD PUSH2 0x39D SWAP2 SWAP1 PUSH2 0x2AAA JUMP JUMPDEST PUSH1 0x40 MLOAD DUP1 SWAP2 SUB SWAP1 RETURN JUMPDEST PUSH2 0x3AE PUSH2 0xDBC JUMP JUMPDEST PUSH1 0x40 MLOAD PUSH2 0x3BB SWAP2 SWAP1 PUSH2 0x2B34 JUMP JUMPDEST PUSH1 0x40 MLOAD DUP1 SWAP2 SUB SWAP1 RETURN JUMPDEST PUSH2 0x3DE PUSH1 0x4 DUP1 CALLDATASIZE SUB DUP2 ADD SWAP1 PUSH2 0x3D9 SWAP2 SWAP1 PUSH2 0x2B7B JUMP JUMPDEST PUSH2 0xDE0 JUMP JUMPDEST STOP JUMPDEST PUSH2 0x3E8 PUSH2 0xFAC JUMP JUMPDEST PUSH1 0x40 MLOAD PUSH2 0x3F5 SWAP2 SWAP1 PUSH2 0x2BC1 JUMP JUMPDEST PUSH1 0x40 MLOAD DUP1 SWAP2 SUB SWAP1 RETURN JUMPDEST PUSH2 0x406 PUSH2 0x1009 JUMP JUMPDEST PUSH1 0x40 MLOAD PUSH2 0x413 SWAP2 SWAP1 PUSH2 0x2C3B JUMP JUMPDEST PUSH1 0x40 MLOAD DUP1 SWAP2 SUB SWAP1 RETURN JUMPDEST PUSH2 0x424 PUSH2 0x102D JUMP JUMPDEST PUSH1 0x40 MLOAD PUSH2 0x431 SWAP2 SWAP1 PUSH2 0x28BD JUMP JUMPDEST PUSH1 0x40 MLOAD DUP1 SWAP2 SUB SWAP1 RETURN JUMPDEST PUSH2 0x454 PUSH1 0x4 DUP1 CALLDATASIZE SUB DUP2 ADD SWAP1 PUSH2 0x44F SWAP2 SWAP1 PUSH2 0x2C56 JUMP JUMPDEST PUSH2 0x106C JUMP JUMPDEST PUSH1 0x40 MLOAD PUSH2 0x461 SWAP2 SWAP1 PUSH2 0x28BD JUMP JUMPDEST PUSH1 0x40 MLOAD DUP1 SWAP2 SUB SWAP1 RETURN JUMPDEST PUSH2 0x472 PUSH2 0x1096 JUMP JUMPDEST PUSH1 0x40 MLOAD PUSH2 0x47F SWAP2 SWAP1 PUSH2 0x2C92 JUMP JUMPDEST PUSH1 0x40 MLOAD DUP1 SWAP2 SUB SWAP1 RETURN JUMPDEST PUSH2 0x4A2 PUSH1 0x4 DUP1 CALLDATASIZE SUB DUP2 ADD SWAP1 PUSH2 0x49D SWAP2 SWAP1 PUSH2 0x29C4 JUMP JUMPDEST PUSH2 0x10C0 JUMP JUMPDEST PUSH1 0x40 MLOAD PUSH2 0x4AF SWAP2 SWAP1 PUSH2 0x28BD JUMP JUMPDEST PUSH1 0x40 MLOAD DUP1 SWAP2 SUB SWAP1 RETURN JUMPDEST PUSH2 0x4D2 PUSH1 0x4 DUP1 CALLDATASIZE SUB DUP2 ADD SWAP1 PUSH2 0x4CD SWAP2 SWAP1 PUSH2 0x2CAD JUMP JUMPDEST PUSH2 0x10D2 JUMP JUMPDEST PUSH1 0x40 MLOAD PUSH2 0x4DF SWAP2 SWAP1 PUSH2 0x28BD JUMP JUMPDEST PUSH1 0x40 MLOAD DUP1 SWAP2 SUB SWAP1 RETURN JUMPDEST PUSH2 0x502 PUSH1 0x4 DUP1 CALLDATASIZE SUB DUP2 ADD SWAP1 PUSH2 0x4FD SWAP2 SWAP1 PUSH2 0x2C56 JUMP JUMPDEST PUSH2 0x11F0 JUMP JUMPDEST PUSH1 0x40 MLOAD PUSH2 0x50F SWAP2 SWAP1 PUSH2 0x28BD JUMP JUMPDEST PUSH1 0x40 MLOAD DUP1 SWAP2 SUB SWAP1 RETURN JUMPDEST PUSH2 0x520 PUSH2 0x1208 JUMP JUMPDEST STOP JUMPDEST PUSH2 0x53C PUSH1 0x4 DUP1 CALLDATASIZE SUB DUP2 ADD SWAP1 PUSH2 0x537 SWAP2 SWAP1 PUSH2 0x29C4 JUMP JUMPDEST PUSH2 0x133E JUMP JUMPDEST STOP JUMPDEST PUSH2 0x558 PUSH1 0x4 DUP1 CALLDATASIZE SUB DUP2 ADD SWAP1 PUSH2 0x553 SWAP2 SWAP1 PUSH2 0x2C56 JUMP JUMPDEST PUSH2 0x1456 JUMP JUMPDEST PUSH1 0x40 MLOAD PUSH2 0x565 SWAP2 SWAP1 PUSH2 0x28BD JUMP JUMPDEST PUSH1 0x40 MLOAD DUP1 SWAP2 SUB SWAP1 RETURN JUMPDEST PUSH2 0x576 PUSH2 0x146E JUMP JUMPDEST PUSH1 0x40 MLOAD PUSH2 0x583 SWAP2 SWAP1 PUSH2 0x28BD JUMP JUMPDEST PUSH1 0x40 MLOAD DUP1 SWAP2 SUB SWAP1 RETURN JUMPDEST PUSH2 0x5A6 PUSH1 0x4 DUP1 CALLDATASIZE SUB DUP2 ADD SWAP1 PUSH2 0x5A1 SWAP2 SWAP1 PUSH2 0x2CAD JUMP JUMPDEST PUSH2 0x1474 JUMP JUMPDEST PUSH1 0x40 MLOAD PUSH2 0x5B3 SWAP2 SWAP1 PUSH2 0x28BD JUMP JUMPDEST PUSH1 0x40 MLOAD DUP1 SWAP2 SUB SWAP1 RETURN JUMPDEST PUSH2 0x5C4 PUSH2 0x154F JUMP JUMPDEST PUSH1 0x40 MLOAD PUSH2 0x5D1 SWAP2 SWAP1 PUSH2 0x2971 JUMP JUMPDEST PUSH1 0x40 MLOAD DUP1 SWAP2 SUB SWAP1 RETURN JUMPDEST PUSH2 0x5F4 PUSH1 0x4 DUP1 CALLDATASIZE SUB DUP2 ADD SWAP1 PUSH2 0x5EF SWAP2 SWAP1 PUSH2 0x2A4F JUMP JUMPDEST PUSH2 0x15DD JUMP JUMPDEST PUSH1 0x40 MLOAD PUSH2 0x601 SWAP2 SWAP1 PUSH2 0x2AAA JUMP JUMPDEST PUSH1 0x40 MLOAD DUP1 SWAP2 SUB SWAP1 RETURN JUMPDEST PUSH2 0x624 PUSH1 0x4 DUP1 CALLDATASIZE SUB DUP2 ADD SWAP1 PUSH2 0x61F SWAP2 SWAP1 PUSH2 0x29C4 JUMP JUMPDEST PUSH2 0x16F1 JUMP JUMPDEST STOP JUMPDEST PUSH2 0x640 PUSH1 0x4 DUP1 CALLDATASIZE SUB DUP2 ADD SWAP1 PUSH2 0x63B SWAP2 SWAP1 PUSH2 0x29C4 JUMP JUMPDEST PUSH2 0x1845 JUMP JUMPDEST PUSH1 0x40 MLOAD PUSH2 0x64D SWAP2 SWAP1 PUSH2 0x28BD JUMP JUMPDEST PUSH1 0x40 MLOAD DUP1 SWAP2 SUB SWAP1 RETURN JUMPDEST PUSH2 0x670 PUSH1 0x4 DUP1 CALLDATASIZE SUB DUP2 ADD SWAP1 PUSH2 0x66B SWAP2 SWAP1 PUSH2 0x2CED JUMP JUMPDEST PUSH2 0x1880 JUMP JUMPDEST PUSH1 0x40 MLOAD PUSH2 0x67D SWAP2 SWAP1 PUSH2 0x28BD JUMP JUMPDEST PUSH1 0x40 MLOAD DUP1 SWAP2 SUB SWAP1 RETURN JUMPDEST PUSH2 0x6A0 PUSH1 0x4 DUP1 CALLDATASIZE SUB DUP2 ADD SWAP1 PUSH2 0x69B SWAP2 SWAP1 PUSH2 0x2CED JUMP JUMPDEST PUSH2 0x1ADB JUMP JUMPDEST PUSH1 0x40 MLOAD PUSH2 0x6AD SWAP2 SWAP1 PUSH2 0x28BD JUMP JUMPDEST PUSH1 0x40 MLOAD DUP1 SWAP2 SUB SWAP1 RETURN JUMPDEST PUSH2 0x6BE PUSH2 0x1D7A JUMP JUMPDEST PUSH1 0x40 MLOAD PUSH2 0x6CB SWAP2 SWAP1 PUSH2 0x28BD JUMP JUMPDEST PUSH1 0x40 MLOAD DUP1 SWAP2 SUB SWAP1 RETURN JUMPDEST PUSH2 0x6EE PUSH1 0x4 DUP1 CALLDATASIZE SUB DUP2 ADD SWAP1 PUSH2 0x6E9 SWAP2 SWAP1 PUSH2 0x29C4 JUMP JUMPDEST PUSH2 0x1D80 JUMP JUMPDEST STOP JUMPDEST PUSH2 0x6F8 PUSH2 0x1E98 JUMP JUMPDEST PUSH1 0x40 MLOAD PUSH2 0x705 SWAP2 SWAP1 PUSH2 0x2C3B JUMP JUMPDEST PUSH1 0x40 MLOAD DUP1 SWAP2 SUB SWAP1 RETURN JUMPDEST PUSH2 0x728 PUSH1 0x4 DUP1 CALLDATASIZE SUB DUP2 ADD SWAP1 PUSH2 0x723 SWAP2 SWAP1 PUSH2 0x2C56 JUMP JUMPDEST PUSH2 0x1EBC JUMP JUMPDEST PUSH1 0x40 MLOAD PUSH2 0x735 SWAP2 SWAP1 PUSH2 0x28BD JUMP JUMPDEST PUSH1 0x40 MLOAD DUP1 SWAP2 SUB SWAP1 RETURN JUMPDEST PUSH2 0x758 PUSH1 0x4 DUP1 CALLDATASIZE SUB DUP2 ADD SWAP1 PUSH2 0x753 SWAP2 SWAP1 PUSH2 0x29C4 JUMP JUMPDEST PUSH2 0x1EE6 JUMP JUMPDEST PUSH1 0x40 MLOAD PUSH2 0x765 SWAP2 SWAP1 PUSH2 0x28BD JUMP JUMPDEST PUSH1 0x40 MLOAD DUP1 SWAP2 SUB SWAP1 RETURN JUMPDEST PUSH2 0x788 PUSH1 0x4 DUP1 CALLDATASIZE SUB DUP2 ADD SWAP1 PUSH2 0x783 SWAP2 SWAP1 PUSH2 0x2C56 JUMP JUMPDEST PUSH2 0x1F21 JUMP JUMPDEST PUSH1 0x40 MLOAD PUSH2 0x795 SWAP2 SWAP1 PUSH2 0x28BD JUMP JUMPDEST PUSH1 0x40 MLOAD DUP1 SWAP2 SUB SWAP1 RETURN JUMPDEST PUSH2 0x7B8 PUSH1 0x4 DUP1 CALLDATASIZE SUB DUP2 ADD SWAP1 PUSH2 0x7B3 SWAP2 SWAP1 PUSH2 0x2D98 JUMP JUMPDEST PUSH2 0x1F72 JUMP JUMPDEST STOP JUMPDEST PUSH2 0x7D4 PUSH1 0x4 DUP1 CALLDATASIZE SUB DUP2 ADD SWAP1 PUSH2 0x7CF SWAP2 SWAP1 PUSH2 0x2C56 JUMP JUMPDEST PUSH2 0x226B JUMP JUMPDEST PUSH1 0x40 MLOAD PUSH2 0x7E1 SWAP2 SWAP1 PUSH2 0x28BD JUMP JUMPDEST PUSH1 0x40 MLOAD DUP1 SWAP2 SUB SWAP1 RETURN JUMPDEST PUSH2 0x804 PUSH1 0x4 DUP1 CALLDATASIZE SUB DUP2 ADD SWAP1 PUSH2 0x7FF SWAP2 SWAP1 PUSH2 0x2E3A JUMP JUMPDEST PUSH2 0x22B4 JUMP JUMPDEST PUSH1 0x40 MLOAD PUSH2 0x811 SWAP2 SWAP1 PUSH2 0x28BD JUMP JUMPDEST PUSH1 0x40 MLOAD DUP1 SWAP2 SUB SWAP1 RETURN JUMPDEST PUSH2 0x822 PUSH2 0x22D9 JUMP JUMPDEST PUSH1 0x40 MLOAD PUSH2 0x82F SWAP2 SWAP1 PUSH2 0x28BD JUMP JUMPDEST PUSH1 0x40 MLOAD DUP1 SWAP2 SUB SWAP1 RETURN JUMPDEST PUSH2 0x852 PUSH1 0x4 DUP1 CALLDATASIZE SUB DUP2 ADD SWAP1 PUSH2 0x84D SWAP2 SWAP1 PUSH2 0x29C4 JUMP JUMPDEST PUSH2 0x22DF JUMP JUMPDEST PUSH1 0x40 MLOAD PUSH2 0x85F SWAP2 SWAP1 PUSH2 0x28BD JUMP JUMPDEST PUSH1 0x40 MLOAD DUP1 SWAP2 SUB SWAP1 RETURN JUMPDEST PUSH2 0x882 PUSH1 0x4 DUP1 CALLDATASIZE SUB DUP2 ADD SWAP1 PUSH2 0x87D SWAP2 SWAP1 PUSH2 0x2C56 JUMP JUMPDEST PUSH2 0x22F1 JUMP JUMPDEST STOP JUMPDEST PUSH2 0x88C PUSH2 0x2496 JUMP JUMPDEST PUSH1 0x40 MLOAD PUSH2 0x899 SWAP2 SWAP1 PUSH2 0x2AAA JUMP JUMPDEST PUSH1 0x40 MLOAD DUP1 SWAP2 SUB SWAP1 RETURN JUMPDEST PUSH2 0x8AA PUSH2 0x24A9 JUMP JUMPDEST PUSH1 0x40 MLOAD PUSH2 0x8B7 SWAP2 SWAP1 PUSH2 0x28BD JUMP JUMPDEST PUSH1 0x40 MLOAD DUP1 SWAP2 SUB SWAP1 RETURN JUMPDEST PUSH1 0x0 PUSH32 0x0 PUSH20 0xFFFFFFFFFFFFFFFFFFFFFFFFFFFFFFFFFFFFFFFF AND PUSH4 0x70A08231 ADDRESS PUSH1 0x40 MLOAD DUP3 PUSH4 0xFFFFFFFF AND PUSH1 0xE0 SHL DUP2 MSTORE PUSH1 0x4 ADD PUSH2 0x91B SWAP2 SWAP1 PUSH2 0x2C92 JUMP JUMPDEST PUSH1 0x20 PUSH1 0x40 MLOAD DUP1 DUP4 SUB DUP2 DUP7 DUP1 EXTCODESIZE ISZERO DUP1 ISZERO PUSH2 0x933 JUMPI PUSH1 0x0 DUP1 REVERT JUMPDEST POP GAS STATICCALL ISZERO DUP1 ISZERO PUSH2 0x947 JUMPI RETURNDATASIZE PUSH1 0x0 DUP1 RETURNDATACOPY RETURNDATASIZE PUSH1 0x0 REVERT JUMPDEST POP POP POP POP PUSH1 0x40 MLOAD RETURNDATASIZE PUSH1 0x1F NOT PUSH1 0x1F DUP3 ADD AND DUP3 ADD DUP1 PUSH1 0x40 MSTORE POP DUP2 ADD SWAP1 PUSH2 0x96B SWAP2 SWAP1 PUSH2 0x2E8F JUMP JUMPDEST SWAP1 POP SWAP1 JUMP JUMPDEST PUSH1 0x0 DUP1 SLOAD PUSH2 0x97D SWAP1 PUSH2 0x2EEB JUMP JUMPDEST DUP1 PUSH1 0x1F ADD PUSH1 0x20 DUP1 SWAP2 DIV MUL PUSH1 0x20 ADD PUSH1 0x40 MLOAD SWAP1 DUP2 ADD PUSH1 0x40 MSTORE DUP1 SWAP3 SWAP2 SWAP1 DUP2 DUP2 MSTORE PUSH1 0x20 ADD DUP3 DUP1 SLOAD PUSH2 0x9A9 SWAP1 PUSH2 0x2EEB JUMP JUMPDEST DUP1 ISZERO PUSH2 0x9F6 JUMPI DUP1 PUSH1 0x1F LT PUSH2 0x9CB JUMPI PUSH2 0x100 DUP1 DUP4 SLOAD DIV MUL DUP4 MSTORE SWAP2 PUSH1 0x20 ADD SWAP2 PUSH2 0x9F6 JUMP JUMPDEST DUP3 ADD SWAP2 SWAP1 PUSH1 0x0 MSTORE PUSH1 0x20 PUSH1 0x0 KECCAK256 SWAP1 JUMPDEST DUP2 SLOAD DUP2 MSTORE SWAP1 PUSH1 0x1 ADD SWAP1 PUSH1 0x20 ADD DUP1 DUP4 GT PUSH2 0x9D9 JUMPI DUP3 SWAP1 SUB PUSH1 0x1F AND DUP3 ADD SWAP2 JUMPDEST POP POP POP POP POP DUP2 JUMP JUMPDEST PUSH1 0x0 DUP1 PUSH1 0x2 SLOAD SWAP1 POP PUSH1 0x0 DUP2 EQ PUSH2 0xA2F JUMPI PUSH2 0xA2A PUSH2 0xA19 PUSH2 0x8C0 JUMP JUMPDEST DUP3 DUP6 PUSH2 0x24AF SWAP1 SWAP3 SWAP2 SWAP1 PUSH4 0xFFFFFFFF AND JUMP JUMPDEST PUSH2 0xA31 JUMP JUMPDEST DUP3 JUMPDEST SWAP2 POP POP SWAP2 SWAP1 POP JUMP JUMPDEST PUSH1 0x0 DUP2 PUSH1 0x4 PUSH1 0x0 CALLER PUSH20 0xFFFFFFFFFFFFFFFFFFFFFFFFFFFFFFFFFFFFFFFF AND PUSH20 0xFFFFFFFFFFFFFFFFFFFFFFFFFFFFFFFFFFFFFFFF AND DUP2 MSTORE PUSH1 0x20 ADD SWAP1 DUP2 MSTORE PUSH1 0x20 ADD PUSH1 0x0 KECCAK256 PUSH1 0x0 DUP6 PUSH20 0xFFFFFFFFFFFFFFFFFFFFFFFFFFFFFFFFFFFFFFFF AND PUSH20 0xFFFFFFFFFFFFFFFFFFFFFFFFFFFFFFFFFFFFFFFF AND DUP2 MSTORE PUSH1 0x20 ADD SWAP1 DUP2 MSTORE PUSH1 0x20 ADD PUSH1 0x0 KECCAK256 DUP2 SWAP1 SSTORE POP DUP3 PUSH20 0xFFFFFFFFFFFFFFFFFFFFFFFFFFFFFFFFFFFFFFFF AND CALLER PUSH20 0xFFFFFFFFFFFFFFFFFFFFFFFFFFFFFFFFFFFFFFFF AND PUSH32 0x8C5BE1E5EBEC7D5BD14F71427D1E84F3DD0314C0F7B2291E5B200AC8C7C3B925 DUP5 PUSH1 0x40 MLOAD PUSH2 0xB19 SWAP2 SWAP1 PUSH2 0x28BD JUMP JUMPDEST PUSH1 0x40 MLOAD DUP1 SWAP2 SUB SWAP1 LOG3 PUSH1 0x1 SWAP1 POP SWAP3 SWAP2 POP POP JUMP JUMPDEST PUSH1 0x0 DUP1 PUSH1 0x2 SLOAD SWAP1 POP PUSH1 0x0 DUP2 EQ PUSH2 0xB5C JUMPI PUSH2 0xB57 DUP2 PUSH2 0xB47 PUSH2 0x8C0 JUMP JUMPDEST DUP6 PUSH2 0x24D7 SWAP1 SWAP3 SWAP2 SWAP1 PUSH4 0xFFFFFFFF AND JUMP JUMPDEST PUSH2 0xB5E JUMP JUMPDEST DUP3 JUMPDEST SWAP2 POP POP SWAP2 SWAP1 POP JUMP JUMPDEST PUSH1 0x2 SLOAD DUP2 JUMP JUMPDEST PUSH1 0xA SLOAD DUP2 JUMP JUMPDEST PUSH1 0x0 DUP1 PUSH1 0x4 PUSH1 0x0 DUP7 PUSH20 0xFFFFFFFFFFFFFFFFFFFFFFFFFFFFFFFFFFFFFFFF AND PUSH20 0xFFFFFFFFFFFFFFFFFFFFFFFFFFFFFFFFFFFFFFFF AND DUP2 MSTORE PUSH1 0x20 ADD SWAP1 DUP2 MSTORE PUSH1 0x20 ADD PUSH1 0x0 KECCAK256 PUSH1 0x0 CALLER PUSH20 0xFFFFFFFFFFFFFFFFFFFFFFFFFFFFFFFFFFFFFFFF AND PUSH20 0xFFFFFFFFFFFFFFFFFFFFFFFFFFFFFFFFFFFFFFFF AND DUP2 MSTORE PUSH1 0x20 ADD SWAP1 DUP2 MSTORE PUSH1 0x20 ADD PUSH1 0x0 KECCAK256 SLOAD SWAP1 POP PUSH32 0xFFFFFFFFFFFFFFFFFFFFFFFFFFFFFFFFFFFFFFFFFFFFFFFFFFFFFFFFFFFFFFFF DUP2 EQ PUSH2 0xCA8 JUMPI DUP3 DUP2 PUSH2 0xC27 SWAP2 SWAP1 PUSH2 0x2F4C JUMP JUMPDEST PUSH1 0x4 PUSH1 0x0 DUP8 PUSH20 0xFFFFFFFFFFFFFFFFFFFFFFFFFFFFFFFFFFFFFFFF AND PUSH20 0xFFFFFFFFFFFFFFFFFFFFFFFFFFFFFFFFFFFFFFFF AND DUP2 MSTORE PUSH1 0x20 ADD SWAP1 DUP2 MSTORE PUSH1 0x20 ADD PUSH1 0x0 KECCAK256 PUSH1 0x0 CALLER PUSH20 0xFFFFFFFFFFFFFFFFFFFFFFFFFFFFFFFFFFFFFFFF AND PUSH20 0xFFFFFFFFFFFFFFFFFFFFFFFFFFFFFFFFFFFFFFFF AND DUP2 MSTORE PUSH1 0x20 ADD SWAP1 DUP2 MSTORE PUSH1 0x20 ADD PUSH1 0x0 KECCAK256 DUP2 SWAP1 SSTORE POP JUMPDEST DUP3 PUSH1 0x3 PUSH1 0x0 DUP8 PUSH20 0xFFFFFFFFFFFFFFFFFFFFFFFFFFFFFFFFFFFFFFFF AND PUSH20 0xFFFFFFFFFFFFFFFFFFFFFFFFFFFFFFFFFFFFFFFF AND DUP2 MSTORE PUSH1 0x20 ADD SWAP1 DUP2 MSTORE PUSH1 0x20 ADD PUSH1 0x0 KECCAK256 PUSH1 0x0 DUP3 DUP3 SLOAD PUSH2 0xCF7 SWAP2 SWAP1 PUSH2 0x2F4C JUMP JUMPDEST SWAP3 POP POP DUP2 SWAP1 SSTORE POP DUP3 PUSH1 0x3 PUSH1 0x0 DUP7 PUSH20 0xFFFFFFFFFFFFFFFFFFFFFFFFFFFFFFFFFFFFFFFF AND PUSH20 0xFFFFFFFFFFFFFFFFFFFFFFFFFFFFFFFFFFFFFFFF AND DUP2 MSTORE PUSH1 0x20 ADD SWAP1 DUP2 MSTORE PUSH1 0x20 ADD PUSH1 0x0 KECCAK256 PUSH1 0x0 DUP3 DUP3 SLOAD ADD SWAP3 POP POP DUP2 SWAP1 SSTORE POP DUP4 PUSH20 0xFFFFFFFFFFFFFFFFFFFFFFFFFFFFFFFFFFFFFFFF AND DUP6 PUSH20 0xFFFFFFFFFFFFFFFFFFFFFFFFFFFFFFFFFFFFFFFF AND PUSH32 0xDDF252AD1BE2C89B69C2B068FC378DAA952BA7F163C4A11628F55A4DF523B3EF DUP6 PUSH1 0x40 MLOAD PUSH2 0xDA8 SWAP2 SWAP1 PUSH2 0x28BD JUMP JUMPDEST PUSH1 0x40 MLOAD DUP1 SWAP2 SUB SWAP1 LOG3 PUSH1 0x1 SWAP2 POP POP SWAP4 SWAP3 POP POP POP JUMP JUMPDEST PUSH32 0x0 DUP2 JUMP JUMPDEST CALLER PUSH20 0xFFFFFFFFFFFFFFFFFFFFFFFFFFFFFFFFFFFFFFFF AND PUSH2 0xDFF PUSH2 0x1096 JUMP JUMPDEST PUSH20 0xFFFFFFFFFFFFFFFFFFFFFFFFFFFFFFFFFFFFFFFF AND EQ PUSH2 0xE55 JUMPI PUSH1 0x40 MLOAD PUSH32 0x8C379A000000000000000000000000000000000000000000000000000000000 DUP2 MSTORE PUSH1 0x4 ADD PUSH2 0xE4C SWAP1 PUSH2 0x2FF2 JUMP JUMPDEST PUSH1 0x40 MLOAD DUP1 SWAP2 SUB SWAP1 REVERT JUMPDEST DUP1 ISZERO DUP1 PUSH2 0xF02 JUMPI POP PUSH1 0x12 PUSH32 0x0 PUSH20 0xFFFFFFFFFFFFFFFFFFFFFFFFFFFFFFFFFFFFFFFF AND PUSH4 0x313CE567 PUSH1 0x40 MLOAD DUP2 PUSH4 0xFFFFFFFF AND PUSH1 0xE0 SHL DUP2 MSTORE PUSH1 0x4 ADD PUSH1 0x20 PUSH1 0x40 MLOAD DUP1 DUP4 SUB DUP2 DUP7 DUP1 EXTCODESIZE ISZERO DUP1 ISZERO PUSH2 0xEC5 JUMPI PUSH1 0x0 DUP1 REVERT JUMPDEST POP GAS STATICCALL ISZERO DUP1 ISZERO PUSH2 0xED9 JUMPI RETURNDATASIZE PUSH1 0x0 DUP1 RETURNDATACOPY RETURNDATASIZE PUSH1 0x0 REVERT JUMPDEST POP POP POP POP PUSH1 0x40 MLOAD RETURNDATASIZE PUSH1 0x1F NOT PUSH1 0x1F DUP3 ADD AND DUP3 ADD DUP1 PUSH1 0x40 MSTORE POP DUP2 ADD SWAP1 PUSH2 0xEFD SWAP2 SWAP1 PUSH2 0x3027 JUMP JUMPDEST PUSH1 0xFF AND EQ JUMPDEST PUSH2 0xF41 JUMPI PUSH1 0x40 MLOAD PUSH32 0x8C379A000000000000000000000000000000000000000000000000000000000 DUP2 MSTORE PUSH1 0x4 ADD PUSH2 0xF38 SWAP1 PUSH2 0x30A0 JUMP JUMPDEST PUSH1 0x40 MLOAD DUP1 SWAP2 SUB SWAP1 REVERT JUMPDEST DUP1 PUSH1 0xB PUSH1 0x0 PUSH2 0x100 EXP DUP2 SLOAD DUP2 PUSH1 0xFF MUL NOT AND SWAP1 DUP4 ISZERO ISZERO MUL OR SWAP1 SSTORE POP CALLER PUSH20 0xFFFFFFFFFFFFFFFFFFFFFFFFFFFFFFFFFFFFFFFF AND PUSH32 0x6375B140D4463D47B864F1F47E5D2893CC3478E73AEDCC268B054FAB0230A841 DUP3 PUSH1 0x40 MLOAD PUSH2 0xFA1 SWAP2 SWAP1 PUSH2 0x2AAA JUMP JUMPDEST PUSH1 0x40 MLOAD DUP1 SWAP2 SUB SWAP1 LOG2 POP JUMP JUMPDEST PUSH1 0x0 PUSH32 0x0 CHAINID EQ PUSH2 0xFE2 JUMPI PUSH2 0xFDD PUSH2 0x2509 JUMP JUMPDEST PUSH2 0x1004 JUMP JUMPDEST PUSH32 0x0 JUMPDEST SWAP1 POP SWAP1 JUMP JUMPDEST PUSH32 0x0 DUP2 JUMP JUMPDEST PUSH1 0x0 DUP1 PUSH1 0x2 SLOAD SWAP1 POP PUSH1 0x0 DUP2 EQ ISZERO PUSH2 0x1067 JUMPI PUSH32 0x0 SWAP2 POP POP PUSH2 0x1069 JUMP JUMPDEST POP JUMPDEST SWAP1 JUMP JUMPDEST PUSH1 0x0 PUSH32 0xFFFFFFFFFFFFFFFFFFFFFFFFFFFFFFFFFFFFFFFFFFFFFFFFFFFFFFFFFFFFFFFF SWAP1 POP SWAP2 SWAP1 POP JUMP JUMPDEST PUSH1 0x0 PUSH1 0x6 PUSH1 0x0 SWAP1 SLOAD SWAP1 PUSH2 0x100 EXP SWAP1 DIV PUSH20 0xFFFFFFFFFFFFFFFFFFFFFFFFFFFFFFFFFFFFFFFF AND SWAP1 POP SWAP1 JUMP JUMPDEST PUSH1 0x0 PUSH2 0x10CB DUP3 PUSH2 0x9FE JUMP JUMPDEST SWAP1 POP SWAP2 SWAP1 POP JUMP JUMPDEST PUSH1 0x0 DUP1 PUSH2 0x10DE DUP5 PUSH2 0x22DF JUMP JUMPDEST SWAP2 POP DUP2 EQ ISZERO PUSH2 0x1122 JUMPI PUSH1 0x40 MLOAD PUSH32 0x8C379A000000000000000000000000000000000000000000000000000000000 DUP2 MSTORE PUSH1 0x4 ADD PUSH2 0x1119 SWAP1 PUSH2 0x310C JUMP JUMPDEST PUSH1 0x40 MLOAD DUP1 SWAP2 SUB SWAP1 REVERT JUMPDEST PUSH2 0x116F CALLER ADDRESS DUP6 PUSH32 0x0 PUSH20 0xFFFFFFFFFFFFFFFFFFFFFFFFFFFFFFFFFFFFFFFF AND PUSH2 0x2595 SWAP1 SWAP4 SWAP3 SWAP2 SWAP1 PUSH4 0xFFFFFFFF AND JUMP JUMPDEST PUSH2 0x1179 DUP3 DUP3 PUSH2 0x2634 JUMP JUMPDEST DUP2 PUSH20 0xFFFFFFFFFFFFFFFFFFFFFFFFFFFFFFFFFFFFFFFF AND CALLER PUSH20 0xFFFFFFFFFFFFFFFFFFFFFFFFFFFFFFFFFFFFFFFF AND PUSH32 0xDCBC1C05240F31FF3AD067EF1EE35CE4997762752E3A095284754544F4C709D7 DUP6 DUP5 PUSH1 0x40 MLOAD PUSH2 0x11D8 SWAP3 SWAP2 SWAP1 PUSH2 0x312C JUMP JUMPDEST PUSH1 0x40 MLOAD DUP1 SWAP2 SUB SWAP1 LOG3 PUSH2 0x11EA DUP4 DUP3 PUSH2 0x2704 JUMP JUMPDEST SWAP3 SWAP2 POP POP JUMP JUMPDEST PUSH1 0x3 PUSH1 0x20 MSTORE DUP1 PUSH1 0x0 MSTORE PUSH1 0x40 PUSH1 0x0 KECCAK256 PUSH1 0x0 SWAP2 POP SWAP1 POP SLOAD DUP2 JUMP JUMPDEST CALLER PUSH20 0xFFFFFFFFFFFFFFFFFFFFFFFFFFFFFFFFFFFFFFFF AND PUSH2 0x1227 PUSH2 0x1096 JUMP JUMPDEST PUSH20 0xFFFFFFFFFFFFFFFFFFFFFFFFFFFFFFFFFFFFFFFF AND EQ PUSH2 0x127D JUMPI PUSH1 0x40 MLOAD PUSH32 0x8C379A000000000000000000000000000000000000000000000000000000000 DUP2 MSTORE PUSH1 0x4 ADD PUSH2 0x1274 SWAP1 PUSH2 0x2FF2 JUMP JUMPDEST PUSH1 0x40 MLOAD DUP1 SWAP2 SUB SWAP1 REVERT JUMPDEST PUSH1 0x0 PUSH20 0xFFFFFFFFFFFFFFFFFFFFFFFFFFFFFFFFFFFFFFFF AND PUSH1 0x6 PUSH1 0x0 SWAP1 SLOAD SWAP1 PUSH2 0x100 EXP SWAP1 DIV PUSH20 0xFFFFFFFFFFFFFFFFFFFFFFFFFFFFFFFFFFFFFFFF AND PUSH20 0xFFFFFFFFFFFFFFFFFFFFFFFFFFFFFFFFFFFFFFFF AND PUSH32 0x8BE0079C531659141344CD1FD0A4F28419497F9722A3DAAFE3B4186F6B6457E0 PUSH1 0x40 MLOAD PUSH1 0x40 MLOAD DUP1 SWAP2 SUB SWAP1 LOG3 PUSH1 0x0 PUSH1 0x6 PUSH1 0x0 PUSH2 0x100 EXP DUP2 SLOAD DUP2 PUSH20 0xFFFFFFFFFFFFFFFFFFFFFFFFFFFFFFFFFFFFFFFF MUL NOT AND SWAP1 DUP4 PUSH20 0xFFFFFFFFFFFFFFFFFFFFFFFFFFFFFFFFFFFFFFFF AND MUL OR SWAP1 SSTORE POP JUMP JUMPDEST CALLER PUSH20 0xFFFFFFFFFFFFFFFFFFFFFFFFFFFFFFFFFFFFFFFF AND PUSH2 0x135D PUSH2 0x1096 JUMP JUMPDEST PUSH20 0xFFFFFFFFFFFFFFFFFFFFFFFFFFFFFFFFFFFFFFFF AND EQ PUSH2 0x13B3 JUMPI PUSH1 0x40 MLOAD PUSH32 0x8C379A000000000000000000000000000000000000000000000000000000000 DUP2 MSTORE PUSH1 0x4 ADD PUSH2 0x13AA SWAP1 PUSH2 0x2FF2 JUMP JUMPDEST PUSH1 0x40 MLOAD DUP1 SWAP2 SUB SWAP1 REVERT JUMPDEST PUSH8 0xDE0B6B3A7640000 DUP2 GT ISZERO PUSH2 0x13FE JUMPI PUSH1 0x40 MLOAD PUSH32 0x8C379A000000000000000000000000000000000000000000000000000000000 DUP2 MSTORE PUSH1 0x4 ADD PUSH2 0x13F5 SWAP1 PUSH2 0x31A1 JUMP JUMPDEST PUSH1 0x40 MLOAD DUP1 SWAP2 SUB SWAP1 REVERT JUMPDEST DUP1 PUSH1 0x9 DUP2 SWAP1 SSTORE POP CALLER PUSH20 0xFFFFFFFFFFFFFFFFFFFFFFFFFFFFFFFFFFFFFFFF AND PUSH32 0xEC370615CC81FB334E5566FBC80664D9082377BF59288D64A79F3FBECF4323A9 DUP3 PUSH1 0x40 MLOAD PUSH2 0x144B SWAP2 SWAP1 PUSH2 0x28BD JUMP JUMPDEST PUSH1 0x40 MLOAD DUP1 SWAP2 SUB SWAP1 LOG2 POP JUMP JUMPDEST PUSH1 0x5 PUSH1 0x20 MSTORE DUP1 PUSH1 0x0 MSTORE PUSH1 0x40 PUSH1 0x0 KECCAK256 PUSH1 0x0 SWAP2 POP SWAP1 POP SLOAD DUP2 JUMP JUMPDEST PUSH1 0x9 SLOAD DUP2 JUMP JUMPDEST PUSH1 0x0 PUSH2 0x147F DUP4 PUSH2 0x1845 JUMP JUMPDEST SWAP1 POP PUSH2 0x14CE CALLER ADDRESS DUP4 PUSH32 0x0 PUSH20 0xFFFFFFFFFFFFFFFFFFFFFFFFFFFFFFFFFFFFFFFF AND PUSH2 0x2595 SWAP1 SWAP4 SWAP3 SWAP2 SWAP1 PUSH4 0xFFFFFFFF AND JUMP JUMPDEST PUSH2 0x14D8 DUP3 DUP5 PUSH2 0x2634 JUMP JUMPDEST DUP2 PUSH20 0xFFFFFFFFFFFFFFFFFFFFFFFFFFFFFFFFFFFFFFFF AND CALLER PUSH20 0xFFFFFFFFFFFFFFFFFFFFFFFFFFFFFFFFFFFFFFFF AND PUSH32 0xDCBC1C05240F31FF3AD067EF1EE35CE4997762752E3A095284754544F4C709D7 DUP4 DUP7 PUSH1 0x40 MLOAD PUSH2 0x1537 SWAP3 SWAP2 SWAP1 PUSH2 0x312C JUMP JUMPDEST PUSH1 0x40 MLOAD DUP1 SWAP2 SUB SWAP1 LOG3 PUSH2 0x1549 DUP2 DUP5 PUSH2 0x2704 JUMP JUMPDEST SWAP3 SWAP2 POP POP JUMP JUMPDEST PUSH1 0x1 DUP1 SLOAD PUSH2 0x155C SWAP1 PUSH2 0x2EEB JUMP JUMPDEST DUP1 PUSH1 0x1F ADD PUSH1 0x20 DUP1 SWAP2 DIV MUL PUSH1 0x20 ADD PUSH1 0x40 MLOAD SWAP1 DUP2 ADD PUSH1 0x40 MSTORE DUP1 SWAP3 SWAP2 SWAP1 DUP2 DUP2 MSTORE PUSH1 0x20 ADD DUP3 DUP1 SLOAD PUSH2 0x1588 SWAP1 PUSH2 0x2EEB JUMP JUMPDEST DUP1 ISZERO PUSH2 0x15D5 JUMPI DUP1 PUSH1 0x1F LT PUSH2 0x15AA JUMPI PUSH2 0x100 DUP1 DUP4 SLOAD DIV MUL DUP4 MSTORE SWAP2 PUSH1 0x20 ADD SWAP2 PUSH2 0x15D5 JUMP JUMPDEST DUP3 ADD SWAP2 SWAP1 PUSH1 0x0 MSTORE PUSH1 0x20 PUSH1 0x0 KECCAK256 SWAP1 JUMPDEST DUP2 SLOAD DUP2 MSTORE SWAP1 PUSH1 0x1 ADD SWAP1 PUSH1 0x20 ADD DUP1 DUP4 GT PUSH2 0x15B8 JUMPI DUP3 SWAP1 SUB PUSH1 0x1F AND DUP3 ADD SWAP2 JUMPDEST POP POP POP POP POP DUP2 JUMP JUMPDEST PUSH1 0x0 DUP2 PUSH1 0x3 PUSH1 0x0 CALLER PUSH20 0xFFFFFFFFFFFFFFFFFFFFFFFFFFFFFFFFFFFFFFFF AND PUSH20 0xFFFFFFFFFFFFFFFFFFFFFFFFFFFFFFFFFFFFFFFF AND DUP2 MSTORE PUSH1 0x20 ADD SWAP1 DUP2 MSTORE PUSH1 0x20 ADD PUSH1 0x0 KECCAK256 PUSH1 0x0 DUP3 DUP3 SLOAD PUSH2 0x162E SWAP2 SWAP1 PUSH2 0x2F4C JUMP JUMPDEST SWAP3 POP POP DUP2 SWAP1 SSTORE POP DUP2 PUSH1 0x3 PUSH1 0x0 DUP6 PUSH20 0xFFFFFFFFFFFFFFFFFFFFFFFFFFFFFFFFFFFFFFFF AND PUSH20 0xFFFFFFFFFFFFFFFFFFFFFFFFFFFFFFFFFFFFFFFF AND DUP2 MSTORE PUSH1 0x20 ADD SWAP1 DUP2 MSTORE PUSH1 0x20 ADD PUSH1 0x0 KECCAK256 PUSH1 0x0 DUP3 DUP3 SLOAD ADD SWAP3 POP POP DUP2 SWAP1 SSTORE POP DUP3 PUSH20 0xFFFFFFFFFFFFFFFFFFFFFFFFFFFFFFFFFFFFFFFF AND CALLER PUSH20 0xFFFFFFFFFFFFFFFFFFFFFFFFFFFFFFFFFFFFFFFF AND PUSH32 0xDDF252AD1BE2C89B69C2B068FC378DAA952BA7F163C4A11628F55A4DF523B3EF DUP5 PUSH1 0x40 MLOAD PUSH2 0x16DF SWAP2 SWAP1 PUSH2 0x28BD JUMP JUMPDEST PUSH1 0x40 MLOAD DUP1 SWAP2 SUB SWAP1 LOG3 PUSH1 0x1 SWAP1 POP SWAP3 SWAP2 POP POP JUMP JUMPDEST CALLER PUSH20 0xFFFFFFFFFFFFFFFFFFFFFFFFFFFFFFFFFFFFFFFF AND PUSH2 0x1710 PUSH2 0x1096 JUMP JUMPDEST PUSH20 0xFFFFFFFFFFFFFFFFFFFFFFFFFFFFFFFFFFFFFFFF AND EQ PUSH2 0x1766 JUMPI PUSH1 0x40 MLOAD PUSH32 0x8C379A000000000000000000000000000000000000000000000000000000000 DUP2 MSTORE PUSH1 0x4 ADD PUSH2 0x175D SWAP1 PUSH2 0x2FF2 JUMP JUMPDEST PUSH1 0x40 MLOAD DUP1 SWAP2 SUB SWAP1 REVERT JUMPDEST CALLER PUSH20 0xFFFFFFFFFFFFFFFFFFFFFFFFFFFFFFFFFFFFFFFF AND PUSH32 0x9493E5BBE4E8E0AC67284469A2D677403D0378A85A59E341D3ABC433D0D9A209 DUP3 PUSH1 0x40 MLOAD PUSH2 0x17AC SWAP2 SWAP1 PUSH2 0x28BD JUMP JUMPDEST PUSH1 0x40 MLOAD DUP1 SWAP2 SUB SWAP1 LOG2 ADDRESS PUSH20 0xFFFFFFFFFFFFFFFFFFFFFFFFFFFFFFFFFFFFFFFF AND PUSH4 0xA9059CBB CALLER DUP4 PUSH1 0x40 MLOAD DUP4 PUSH4 0xFFFFFFFF AND PUSH1 0xE0 SHL DUP2 MSTORE PUSH1 0x4 ADD PUSH2 0x17EF SWAP3 SWAP2 SWAP1 PUSH2 0x31C1 JUMP JUMPDEST PUSH1 0x20 PUSH1 0x40 MLOAD DUP1 DUP4 SUB DUP2 PUSH1 0x0 DUP8 DUP1 EXTCODESIZE ISZERO DUP1 ISZERO PUSH2 0x1809 JUMPI PUSH1 0x0 DUP1 REVERT JUMPDEST POP GAS CALL ISZERO DUP1 ISZERO PUSH2 0x181D JUMPI RETURNDATASIZE PUSH1 0x0 DUP1 RETURNDATACOPY RETURNDATASIZE PUSH1 0x0 REVERT JUMPDEST POP POP POP POP PUSH1 0x40 MLOAD RETURNDATASIZE PUSH1 0x1F NOT PUSH1 0x1F DUP3 ADD AND DUP3 ADD DUP1 PUSH1 0x40 MSTORE POP DUP2 ADD SWAP1 PUSH2 0x1841 SWAP2 SWAP1 PUSH2 0x31FF JUMP JUMPDEST POP POP JUMP JUMPDEST PUSH1 0x0 DUP1 PUSH1 0x2 SLOAD SWAP1 POP PUSH1 0x0 DUP2 EQ PUSH2 0x1876 JUMPI PUSH2 0x1871 PUSH2 0x1860 PUSH2 0x8C0 JUMP JUMPDEST DUP3 DUP6 PUSH2 0x24D7 SWAP1 SWAP3 SWAP2 SWAP1 PUSH4 0xFFFFFFFF AND JUMP JUMPDEST PUSH2 0x1878 JUMP JUMPDEST DUP3 JUMPDEST SWAP2 POP POP SWAP2 SWAP1 POP JUMP JUMPDEST PUSH1 0x0 PUSH2 0x188B DUP5 PUSH2 0xB2B JUMP JUMPDEST SWAP1 POP DUP2 PUSH20 0xFFFFFFFFFFFFFFFFFFFFFFFFFFFFFFFFFFFFFFFF AND CALLER PUSH20 0xFFFFFFFFFFFFFFFFFFFFFFFFFFFFFFFFFFFFFFFF AND EQ PUSH2 0x19F7 JUMPI PUSH1 0x0 PUSH1 0x4 PUSH1 0x0 DUP5 PUSH20 0xFFFFFFFFFFFFFFFFFFFFFFFFFFFFFFFFFFFFFFFF AND PUSH20 0xFFFFFFFFFFFFFFFFFFFFFFFFFFFFFFFFFFFFFFFF AND DUP2 MSTORE PUSH1 0x20 ADD SWAP1 DUP2 MSTORE PUSH1 0x20 ADD PUSH1 0x0 KECCAK256 PUSH1 0x0 CALLER PUSH20 0xFFFFFFFFFFFFFFFFFFFFFFFFFFFFFFFFFFFFFFFF AND PUSH20 0xFFFFFFFFFFFFFFFFFFFFFFFFFFFFFFFFFFFFFFFF AND DUP2 MSTORE PUSH1 0x20 ADD SWAP1 DUP2 MSTORE PUSH1 0x20 ADD PUSH1 0x0 KECCAK256 SLOAD SWAP1 POP PUSH32 0xFFFFFFFFFFFFFFFFFFFFFFFFFFFFFFFFFFFFFFFFFFFFFFFFFFFFFFFFFFFFFFFF DUP2 EQ PUSH2 0x19F5 JUMPI DUP2 DUP2 PUSH2 0x1974 SWAP2 SWAP1 PUSH2 0x2F4C JUMP JUMPDEST PUSH1 0x4 PUSH1 0x0 DUP6 PUSH20 0xFFFFFFFFFFFFFFFFFFFFFFFFFFFFFFFFFFFFFFFF AND PUSH20 0xFFFFFFFFFFFFFFFFFFFFFFFFFFFFFFFFFFFFFFFF AND DUP2 MSTORE PUSH1 0x20 ADD SWAP1 DUP2 MSTORE PUSH1 0x20 ADD PUSH1 0x0 KECCAK256 PUSH1 0x0 CALLER PUSH20 0xFFFFFFFFFFFFFFFFFFFFFFFFFFFFFFFFFFFFFFFF AND PUSH20 0xFFFFFFFFFFFFFFFFFFFFFFFFFFFFFFFFFFFFFFFF AND DUP2 MSTORE PUSH1 0x20 ADD SWAP1 DUP2 MSTORE PUSH1 0x20 ADD PUSH1 0x0 KECCAK256 DUP2 SWAP1 SSTORE POP JUMPDEST POP JUMPDEST PUSH2 0x1A01 DUP5 DUP3 PUSH2 0x2720 JUMP JUMPDEST PUSH2 0x1A0B DUP3 DUP3 PUSH2 0x273C JUMP JUMPDEST DUP2 PUSH20 0xFFFFFFFFFFFFFFFFFFFFFFFFFFFFFFFFFFFFFFFF AND DUP4 PUSH20 0xFFFFFFFFFFFFFFFFFFFFFFFFFFFFFFFFFFFFFFFF AND CALLER PUSH20 0xFFFFFFFFFFFFFFFFFFFFFFFFFFFFFFFFFFFFFFFF AND PUSH32 0xFBDE797D201C681B91056529119E0B02407C7BB96A4A2C75C01FC9667232C8DB DUP8 DUP6 PUSH1 0x40 MLOAD PUSH2 0x1A81 SWAP3 SWAP2 SWAP1 PUSH2 0x312C JUMP JUMPDEST PUSH1 0x40 MLOAD DUP1 SWAP2 SUB SWAP1 LOG4 PUSH2 0x1AD4 DUP4 DUP6 PUSH32 0x0 PUSH20 0xFFFFFFFFFFFFFFFFFFFFFFFFFFFFFFFFFFFFFFFF AND PUSH2 0x280C SWAP1 SWAP3 SWAP2 SWAP1 PUSH4 0xFFFFFFFF AND JUMP JUMPDEST SWAP4 SWAP3 POP POP POP JUMP JUMPDEST PUSH1 0x0 DUP2 PUSH20 0xFFFFFFFFFFFFFFFFFFFFFFFFFFFFFFFFFFFFFFFF AND CALLER PUSH20 0xFFFFFFFFFFFFFFFFFFFFFFFFFFFFFFFFFFFFFFFF AND EQ PUSH2 0x1C47 JUMPI PUSH1 0x0 PUSH1 0x4 PUSH1 0x0 DUP5 PUSH20 0xFFFFFFFFFFFFFFFFFFFFFFFFFFFFFFFFFFFFFFFF AND PUSH20 0xFFFFFFFFFFFFFFFFFFFFFFFFFFFFFFFFFFFFFFFF AND DUP2 MSTORE PUSH1 0x20 ADD SWAP1 DUP2 MSTORE PUSH1 0x20 ADD PUSH1 0x0 KECCAK256 PUSH1 0x0 CALLER PUSH20 0xFFFFFFFFFFFFFFFFFFFFFFFFFFFFFFFFFFFFFFFF AND PUSH20 0xFFFFFFFFFFFFFFFFFFFFFFFFFFFFFFFFFFFFFFFF AND DUP2 MSTORE PUSH1 0x20 ADD SWAP1 DUP2 MSTORE PUSH1 0x20 ADD PUSH1 0x0 KECCAK256 SLOAD SWAP1 POP PUSH32 0xFFFFFFFFFFFFFFFFFFFFFFFFFFFFFFFFFFFFFFFFFFFFFFFFFFFFFFFFFFFFFFFF DUP2 EQ PUSH2 0x1C45 JUMPI DUP5 DUP2 PUSH2 0x1BC4 SWAP2 SWAP1 PUSH2 0x2F4C JUMP JUMPDEST PUSH1 0x4 PUSH1 0x0 DUP6 PUSH20 0xFFFFFFFFFFFFFFFFFFFFFFFFFFFFFFFFFFFFFFFF AND PUSH20 0xFFFFFFFFFFFFFFFFFFFFFFFFFFFFFFFFFFFFFFFF AND DUP2 MSTORE PUSH1 0x20 ADD SWAP1 DUP2 MSTORE PUSH1 0x20 ADD PUSH1 0x0 KECCAK256 PUSH1 0x0 CALLER PUSH20 0xFFFFFFFFFFFFFFFFFFFFFFFFFFFFFFFFFFFFFFFF AND PUSH20 0xFFFFFFFFFFFFFFFFFFFFFFFFFFFFFFFFFFFFFFFF AND DUP2 MSTORE PUSH1 0x20 ADD SWAP1 DUP2 MSTORE PUSH1 0x20 ADD PUSH1 0x0 KECCAK256 DUP2 SWAP1 SSTORE POP JUMPDEST POP JUMPDEST PUSH1 0x0 PUSH2 0x1C52 DUP6 PUSH2 0x10C0 JUMP JUMPDEST SWAP2 POP DUP2 EQ ISZERO PUSH2 0x1C96 JUMPI PUSH1 0x40 MLOAD PUSH32 0x8C379A000000000000000000000000000000000000000000000000000000000 DUP2 MSTORE PUSH1 0x4 ADD PUSH2 0x1C8D SWAP1 PUSH2 0x3278 JUMP JUMPDEST PUSH1 0x40 MLOAD DUP1 SWAP2 SUB SWAP1 REVERT JUMPDEST PUSH2 0x1CA0 DUP2 DUP6 PUSH2 0x2720 JUMP JUMPDEST PUSH2 0x1CAA DUP3 DUP6 PUSH2 0x273C JUMP JUMPDEST DUP2 PUSH20 0xFFFFFFFFFFFFFFFFFFFFFFFFFFFFFFFFFFFFFFFF AND DUP4 PUSH20 0xFFFFFFFFFFFFFFFFFFFFFFFFFFFFFFFFFFFFFFFF AND CALLER PUSH20 0xFFFFFFFFFFFFFFFFFFFFFFFFFFFFFFFFFFFFFFFF AND PUSH32 0xFBDE797D201C681B91056529119E0B02407C7BB96A4A2C75C01FC9667232C8DB DUP5 DUP9 PUSH1 0x40 MLOAD PUSH2 0x1D20 SWAP3 SWAP2 SWAP1 PUSH2 0x312C JUMP JUMPDEST PUSH1 0x40 MLOAD DUP1 SWAP2 SUB SWAP1 LOG4 PUSH2 0x1D73 DUP4 DUP3 PUSH32 0x0 PUSH20 0xFFFFFFFFFFFFFFFFFFFFFFFFFFFFFFFFFFFFFFFF AND PUSH2 0x280C SWAP1 SWAP3 SWAP2 SWAP1 PUSH4 0xFFFFFFFF AND JUMP JUMPDEST SWAP4 SWAP3 POP POP POP JUMP JUMPDEST PUSH1 0x7 SLOAD DUP2 JUMP JUMPDEST CALLER PUSH20 0xFFFFFFFFFFFFFFFFFFFFFFFFFFFFFFFFFFFFFFFF AND PUSH2 0x1D9F PUSH2 0x1096 JUMP JUMPDEST PUSH20 0xFFFFFFFFFFFFFFFFFFFFFFFFFFFFFFFFFFFFFFFF AND EQ PUSH2 0x1DF5 JUMPI PUSH1 0x40 MLOAD PUSH32 0x8C379A000000000000000000000000000000000000000000000000000000000 DUP2 MSTORE PUSH1 0x4 ADD PUSH2 0x1DEC SWAP1 PUSH2 0x2FF2 JUMP JUMPDEST PUSH1 0x40 MLOAD DUP1 SWAP2 SUB SWAP1 REVERT JUMPDEST PUSH8 0xDE0B6B3A7640000 DUP2 GT ISZERO PUSH2 0x1E40 JUMPI PUSH1 0x40 MLOAD PUSH32 0x8C379A000000000000000000000000000000000000000000000000000000000 DUP2 MSTORE PUSH1 0x4 ADD PUSH2 0x1E37 SWAP1 PUSH2 0x32E4 JUMP JUMPDEST PUSH1 0x40 MLOAD DUP1 SWAP2 SUB SWAP1 REVERT JUMPDEST DUP1 PUSH1 0xA DUP2 SWAP1 SSTORE POP CALLER PUSH20 0xFFFFFFFFFFFFFFFFFFFFFFFFFFFFFFFFFFFFFFFF AND PUSH32 0x95BC4480B51F4860106D42850BCAE222CF3303FB2B7D433E896205E0EBEFE369 DUP3 PUSH1 0x40 MLOAD PUSH2 0x1E8D SWAP2 SWAP1 PUSH2 0x28BD JUMP JUMPDEST PUSH1 0x40 MLOAD DUP1 SWAP2 SUB SWAP1 LOG2 POP JUMP JUMPDEST PUSH32 0x0 DUP2 JUMP JUMPDEST PUSH1 0x0 PUSH32 0xFFFFFFFFFFFFFFFFFFFFFFFFFFFFFFFFFFFFFFFFFFFFFFFFFFFFFFFFFFFFFFFF SWAP1 POP SWAP2 SWAP1 POP JUMP JUMPDEST PUSH1 0x0 DUP1 PUSH1 0x2 SLOAD SWAP1 POP PUSH1 0x0 DUP2 EQ PUSH2 0x1F17 JUMPI PUSH2 0x1F12 DUP2 PUSH2 0x1F02 PUSH2 0x8C0 JUMP JUMPDEST DUP6 PUSH2 0x24AF SWAP1 SWAP3 SWAP2 SWAP1 PUSH4 0xFFFFFFFF AND JUMP JUMPDEST PUSH2 0x1F19 JUMP JUMPDEST DUP3 JUMPDEST SWAP2 POP POP SWAP2 SWAP1 POP JUMP JUMPDEST PUSH1 0x0 PUSH2 0x1F6B PUSH1 0x3 PUSH1 0x0 DUP5 PUSH20 0xFFFFFFFFFFFFFFFFFFFFFFFFFFFFFFFFFFFFFFFF AND PUSH20 0xFFFFFFFFFFFFFFFFFFFFFFFFFFFFFFFFFFFFFFFF AND DUP2 MSTORE PUSH1 0x20 ADD SWAP1 DUP2 MSTORE PUSH1 0x20 ADD PUSH1 0x0 KECCAK256 SLOAD PUSH2 0x9FE JUMP JUMPDEST SWAP1 POP SWAP2 SWAP1 POP JUMP JUMPDEST TIMESTAMP DUP5 LT ISZERO PUSH2 0x1FB5 JUMPI PUSH1 0x40 MLOAD PUSH32 0x8C379A000000000000000000000000000000000000000000000000000000000 DUP2 MSTORE PUSH1 0x4 ADD PUSH2 0x1FAC SWAP1 PUSH2 0x3350 JUMP JUMPDEST PUSH1 0x40 MLOAD DUP1 SWAP2 SUB SWAP1 REVERT JUMPDEST PUSH1 0x0 PUSH1 0x1 PUSH2 0x1FC1 PUSH2 0xFAC JUMP JUMPDEST PUSH32 0x6E71EDAE12B1B97F4D1F60370FEF10105FA2FAAE0126114A169C64845D6126C9 DUP11 DUP11 DUP11 PUSH1 0x5 PUSH1 0x0 DUP16 PUSH20 0xFFFFFFFFFFFFFFFFFFFFFFFFFFFFFFFFFFFFFFFF AND PUSH20 0xFFFFFFFFFFFFFFFFFFFFFFFFFFFFFFFFFFFFFFFF AND DUP2 MSTORE PUSH1 0x20 ADD SWAP1 DUP2 MSTORE PUSH1 0x20 ADD PUSH1 0x0 KECCAK256 PUSH1 0x0 DUP2 SLOAD DUP1 SWAP3 SWAP2 SWAP1 PUSH1 0x1 ADD SWAP2 SWAP1 POP SSTORE DUP12 PUSH1 0x40 MLOAD PUSH1 0x20 ADD PUSH2 0x2049 SWAP7 SWAP6 SWAP5 SWAP4 SWAP3 SWAP2 SWAP1 PUSH2 0x3370 JUMP JUMPDEST PUSH1 0x40 MLOAD PUSH1 0x20 DUP2 DUP4 SUB SUB DUP2 MSTORE SWAP1 PUSH1 0x40 MSTORE DUP1 MLOAD SWAP1 PUSH1 0x20 ADD KECCAK256 PUSH1 0x40 MLOAD PUSH1 0x20 ADD PUSH2 0x2070 SWAP3 SWAP2 SWAP1 PUSH2 0x3449 JUMP JUMPDEST PUSH1 0x40 MLOAD PUSH1 0x20 DUP2 DUP4 SUB SUB DUP2 MSTORE SWAP1 PUSH1 0x40 MSTORE DUP1 MLOAD SWAP1 PUSH1 0x20 ADD KECCAK256 DUP6 DUP6 DUP6 PUSH1 0x40 MLOAD PUSH1 0x0 DUP2 MSTORE PUSH1 0x20 ADD PUSH1 0x40 MSTORE PUSH1 0x40 MLOAD PUSH2 0x20A6 SWAP5 SWAP4 SWAP3 SWAP2 SWAP1 PUSH2 0x3480 JUMP JUMPDEST PUSH1 0x20 PUSH1 0x40 MLOAD PUSH1 0x20 DUP2 SUB SWAP1 DUP1 DUP5 SUB SWAP1 DUP6 GAS STATICCALL ISZERO DUP1 ISZERO PUSH2 0x20C8 JUMPI RETURNDATASIZE PUSH1 0x0 DUP1 RETURNDATACOPY RETURNDATASIZE PUSH1 0x0 REVERT JUMPDEST POP POP POP PUSH1 0x20 PUSH1 0x40 MLOAD SUB MLOAD SWAP1 POP PUSH1 0x0 PUSH20 0xFFFFFFFFFFFFFFFFFFFFFFFFFFFFFFFFFFFFFFFF AND DUP2 PUSH20 0xFFFFFFFFFFFFFFFFFFFFFFFFFFFFFFFFFFFFFFFF AND EQ ISZERO DUP1 ISZERO PUSH2 0x213C JUMPI POP DUP8 PUSH20 0xFFFFFFFFFFFFFFFFFFFFFFFFFFFFFFFFFFFFFFFF AND DUP2 PUSH20 0xFFFFFFFFFFFFFFFFFFFFFFFFFFFFFFFFFFFFFFFF AND EQ JUMPDEST PUSH2 0x217B JUMPI PUSH1 0x40 MLOAD PUSH32 0x8C379A000000000000000000000000000000000000000000000000000000000 DUP2 MSTORE PUSH1 0x4 ADD PUSH2 0x2172 SWAP1 PUSH2 0x3511 JUMP JUMPDEST PUSH1 0x40 MLOAD DUP1 SWAP2 SUB SWAP1 REVERT JUMPDEST DUP6 PUSH1 0x4 PUSH1 0x0 DUP4 PUSH20 0xFFFFFFFFFFFFFFFFFFFFFFFFFFFFFFFFFFFFFFFF AND PUSH20 0xFFFFFFFFFFFFFFFFFFFFFFFFFFFFFFFFFFFFFFFF AND DUP2 MSTORE PUSH1 0x20 ADD SWAP1 DUP2 MSTORE PUSH1 0x20 ADD PUSH1 0x0 KECCAK256 PUSH1 0x0 DUP10 PUSH20 0xFFFFFFFFFFFFFFFFFFFFFFFFFFFFFFFFFFFFFFFF AND PUSH20 0xFFFFFFFFFFFFFFFFFFFFFFFFFFFFFFFFFFFFFFFF AND DUP2 MSTORE PUSH1 0x20 ADD SWAP1 DUP2 MSTORE PUSH1 0x20 ADD PUSH1 0x0 KECCAK256 DUP2 SWAP1 SSTORE POP POP DUP6 PUSH20 0xFFFFFFFFFFFFFFFFFFFFFFFFFFFFFFFFFFFFFFFF AND DUP8 PUSH20 0xFFFFFFFFFFFFFFFFFFFFFFFFFFFFFFFFFFFFFFFF AND PUSH32 0x8C5BE1E5EBEC7D5BD14F71427D1E84F3DD0314C0F7B2291E5B200AC8C7C3B925 DUP8 PUSH1 0x40 MLOAD PUSH2 0x225A SWAP2 SWAP1 PUSH2 0x28BD JUMP JUMPDEST PUSH1 0x40 MLOAD DUP1 SWAP2 SUB SWAP1 LOG3 POP POP POP POP POP POP POP JUMP JUMPDEST PUSH1 0x0 PUSH1 0x3 PUSH1 0x0 DUP4 PUSH20 0xFFFFFFFFFFFFFFFFFFFFFFFFFFFFFFFFFFFFFFFF AND PUSH20 0xFFFFFFFFFFFFFFFFFFFFFFFFFFFFFFFFFFFFFFFF AND DUP2 MSTORE PUSH1 0x20 ADD SWAP1 DUP2 MSTORE PUSH1 0x20 ADD PUSH1 0x0 KECCAK256 SLOAD SWAP1 POP SWAP2 SWAP1 POP JUMP JUMPDEST PUSH1 0x4 PUSH1 0x20 MSTORE DUP2 PUSH1 0x0 MSTORE PUSH1 0x40 PUSH1 0x0 KECCAK256 PUSH1 0x20 MSTORE DUP1 PUSH1 0x0 MSTORE PUSH1 0x40 PUSH1 0x0 KECCAK256 PUSH1 0x0 SWAP2 POP SWAP2 POP POP SLOAD DUP2 JUMP JUMPDEST PUSH1 0xC SLOAD DUP2 JUMP JUMPDEST PUSH1 0x0 PUSH2 0x22EA DUP3 PUSH2 0x1EE6 JUMP JUMPDEST SWAP1 POP SWAP2 SWAP1 POP JUMP JUMPDEST CALLER PUSH20 0xFFFFFFFFFFFFFFFFFFFFFFFFFFFFFFFFFFFFFFFF AND PUSH2 0x2310 PUSH2 0x1096 JUMP JUMPDEST PUSH20 0xFFFFFFFFFFFFFFFFFFFFFFFFFFFFFFFFFFFFFFFF AND EQ PUSH2 0x2366 JUMPI PUSH1 0x40 MLOAD PUSH32 0x8C379A000000000000000000000000000000000000000000000000000000000 DUP2 MSTORE PUSH1 0x4 ADD PUSH2 0x235D SWAP1 PUSH2 0x2FF2 JUMP JUMPDEST PUSH1 0x40 MLOAD DUP1 SWAP2 SUB SWAP1 REVERT JUMPDEST PUSH1 0x0 PUSH20 0xFFFFFFFFFFFFFFFFFFFFFFFFFFFFFFFFFFFFFFFF AND DUP2 PUSH20 0xFFFFFFFFFFFFFFFFFFFFFFFFFFFFFFFFFFFFFFFF AND EQ ISZERO PUSH2 0x23D6 JUMPI PUSH1 0x40 MLOAD PUSH32 0x8C379A000000000000000000000000000000000000000000000000000000000 DUP2 MSTORE PUSH1 0x4 ADD PUSH2 0x23CD SWAP1 PUSH2 0x35A3 JUMP JUMPDEST PUSH1 0x40 MLOAD DUP1 SWAP2 SUB SWAP1 REVERT JUMPDEST DUP1 PUSH20 0xFFFFFFFFFFFFFFFFFFFFFFFFFFFFFFFFFFFFFFFF AND PUSH1 0x6 PUSH1 0x0 SWAP1 SLOAD SWAP1 PUSH2 0x100 EXP SWAP1 DIV PUSH20 0xFFFFFFFFFFFFFFFFFFFFFFFFFFFFFFFFFFFFFFFF AND PUSH20 0xFFFFFFFFFFFFFFFFFFFFFFFFFFFFFFFFFFFFFFFF AND PUSH32 0x8BE0079C531659141344CD1FD0A4F28419497F9722A3DAAFE3B4186F6B6457E0 PUSH1 0x40 MLOAD PUSH1 0x40 MLOAD DUP1 SWAP2 SUB SWAP1 LOG3 DUP1 PUSH1 0x6 PUSH1 0x0 PUSH2 0x100 EXP DUP2 SLOAD DUP2 PUSH20 0xFFFFFFFFFFFFFFFFFFFFFFFFFFFFFFFFFFFFFFFF MUL NOT AND SWAP1 DUP4 PUSH20 0xFFFFFFFFFFFFFFFFFFFFFFFFFFFFFFFFFFFFFFFF AND MUL OR SWAP1 SSTORE POP POP JUMP JUMPDEST PUSH1 0xB PUSH1 0x0 SWAP1 SLOAD SWAP1 PUSH2 0x100 EXP SWAP1 DIV PUSH1 0xFF AND DUP2 JUMP JUMPDEST PUSH1 0x8 SLOAD DUP2 JUMP JUMPDEST PUSH1 0x0 DUP3 DUP5 MUL SWAP1 POP DUP3 DUP5 DUP3 DIV EQ DUP5 ISZERO OR DUP3 ISZERO ISZERO AND PUSH2 0x24CB JUMPI PUSH1 0x0 DUP1 REVERT JUMPDEST DUP2 DUP2 DIV SWAP1 POP SWAP4 SWAP3 POP POP POP JUMP JUMPDEST PUSH1 0x0 DUP3 DUP5 MUL SWAP1 POP DUP3 DUP5 DUP3 DIV EQ DUP5 ISZERO OR DUP3 ISZERO ISZERO AND PUSH2 0x24F3 JUMPI PUSH1 0x0 DUP1 REVERT JUMPDEST PUSH1 0x1 DUP3 PUSH1 0x1 DUP4 SUB DIV ADD DUP2 ISZERO ISZERO MUL SWAP1 POP SWAP4 SWAP3 POP POP POP JUMP JUMPDEST PUSH1 0x0 PUSH32 0x8B73C3C69BB8FE3D512ECC4CF759CC79239F7B179B0FFACAA9A75D522B39400F PUSH1 0x0 PUSH1 0x40 MLOAD PUSH2 0x253B SWAP2 SWAP1 PUSH2 0x3662 JUMP JUMPDEST PUSH1 0x40 MLOAD DUP1 SWAP2 SUB SWAP1 KECCAK256 PUSH32 0xC89EFDAA54C0F20C7ADF612882DF0950F5A951637E0307CDCB4C672F298B8BC6 CHAINID ADDRESS PUSH1 0x40 MLOAD PUSH1 0x20 ADD PUSH2 0x257A SWAP6 SWAP5 SWAP4 SWAP3 SWAP2 SWAP1 PUSH2 0x3679 JUMP JUMPDEST PUSH1 0x40 MLOAD PUSH1 0x20 DUP2 DUP4 SUB SUB DUP2 MSTORE SWAP1 PUSH1 0x40 MSTORE DUP1 MLOAD SWAP1 PUSH1 0x20 ADD KECCAK256 SWAP1 POP SWAP1 JUMP JUMPDEST PUSH1 0x0 PUSH1 0x40 MLOAD PUSH32 0x23B872DD00000000000000000000000000000000000000000000000000000000 DUP2 MSTORE DUP5 PUSH1 0x4 DUP3 ADD MSTORE DUP4 PUSH1 0x24 DUP3 ADD MSTORE DUP3 PUSH1 0x44 DUP3 ADD MSTORE PUSH1 0x20 PUSH1 0x0 PUSH1 0x64 DUP4 PUSH1 0x0 DUP11 GAS CALL RETURNDATASIZE ISZERO PUSH1 0x1F RETURNDATASIZE GT PUSH1 0x1 PUSH1 0x0 MLOAD EQ AND OR AND SWAP2 POP POP DUP1 PUSH2 0x262D JUMPI PUSH1 0x40 MLOAD PUSH32 0x8C379A000000000000000000000000000000000000000000000000000000000 DUP2 MSTORE PUSH1 0x4 ADD PUSH2 0x2624 SWAP1 PUSH2 0x3718 JUMP JUMPDEST PUSH1 0x40 MLOAD DUP1 SWAP2 SUB SWAP1 REVERT JUMPDEST POP POP POP POP POP JUMP JUMPDEST DUP1 PUSH1 0x2 PUSH1 0x0 DUP3 DUP3 SLOAD PUSH2 0x2646 SWAP2 SWAP1 PUSH2 0x3738 JUMP JUMPDEST SWAP3 POP POP DUP2 SWAP1 SSTORE POP DUP1 PUSH1 0x3 PUSH1 0x0 DUP5 PUSH20 0xFFFFFFFFFFFFFFFFFFFFFFFFFFFFFFFFFFFFFFFF AND PUSH20 0xFFFFFFFFFFFFFFFFFFFFFFFFFFFFFFFFFFFFFFFF AND DUP2 MSTORE PUSH1 0x20 ADD SWAP1 DUP2 MSTORE PUSH1 0x20 ADD PUSH1 0x0 KECCAK256 PUSH1 0x0 DUP3 DUP3 SLOAD ADD SWAP3 POP POP DUP2 SWAP1 SSTORE POP DUP2 PUSH20 0xFFFFFFFFFFFFFFFFFFFFFFFFFFFFFFFFFFFFFFFF AND PUSH1 0x0 PUSH20 0xFFFFFFFFFFFFFFFFFFFFFFFFFFFFFFFFFFFFFFFF AND PUSH32 0xDDF252AD1BE2C89B69C2B068FC378DAA952BA7F163C4A11628F55A4DF523B3EF DUP4 PUSH1 0x40 MLOAD PUSH2 0x26F8 SWAP2 SWAP1 PUSH2 0x28BD JUMP JUMPDEST PUSH1 0x40 MLOAD DUP1 SWAP2 SUB SWAP1 LOG3 POP POP JUMP JUMPDEST PUSH1 0x8 PUSH1 0x0 DUP2 SLOAD DUP1 SWAP3 SWAP2 SWAP1 PUSH2 0x2717 SWAP1 PUSH2 0x378E JUMP JUMPDEST SWAP2 SWAP1 POP SSTORE POP POP POP JUMP JUMPDEST PUSH1 0x7 PUSH1 0x0 DUP2 SLOAD DUP1 SWAP3 SWAP2 SWAP1 PUSH2 0x2733 SWAP1 PUSH2 0x378E JUMP JUMPDEST SWAP2 SWAP1 POP SSTORE POP POP POP JUMP JUMPDEST DUP1 PUSH1 0x3 PUSH1 0x0 DUP5 PUSH20 0xFFFFFFFFFFFFFFFFFFFFFFFFFFFFFFFFFFFFFFFF AND PUSH20 0xFFFFFFFFFFFFFFFFFFFFFFFFFFFFFFFFFFFFFFFF AND DUP2 MSTORE PUSH1 0x20 ADD SWAP1 DUP2 MSTORE PUSH1 0x20 ADD PUSH1 0x0 KECCAK256 PUSH1 0x0 DUP3 DUP3 SLOAD PUSH2 0x278B SWAP2 SWAP1 PUSH2 0x2F4C JUMP JUMPDEST SWAP3 POP POP DUP2 SWAP1 SSTORE POP DUP1 PUSH1 0x2 PUSH1 0x0 DUP3 DUP3 SLOAD SUB SWAP3 POP POP DUP2 SWAP1 SSTORE POP PUSH1 0x0 PUSH20 0xFFFFFFFFFFFFFFFFFFFFFFFFFFFFFFFFFFFFFFFF AND DUP3 PUSH20 0xFFFFFFFFFFFFFFFFFFFFFFFFFFFFFFFFFFFFFFFF AND PUSH32 0xDDF252AD1BE2C89B69C2B068FC378DAA952BA7F163C4A11628F55A4DF523B3EF DUP4 PUSH1 0x40 MLOAD PUSH2 0x2800 SWAP2 SWAP1 PUSH2 0x28BD JUMP JUMPDEST PUSH1 0x40 MLOAD DUP1 SWAP2 SUB SWAP1 LOG3 POP POP JUMP JUMPDEST PUSH1 0x0 PUSH1 0x40 MLOAD PUSH32 0xA9059CBB00000000000000000000000000000000000000000000000000000000 DUP2 MSTORE DUP4 PUSH1 0x4 DUP3 ADD MSTORE DUP3 PUSH1 0x24 DUP3 ADD MSTORE PUSH1 0x20 PUSH1 0x0 PUSH1 0x44 DUP4 PUSH1 0x0 DUP10 GAS CALL RETURNDATASIZE ISZERO PUSH1 0x1F RETURNDATASIZE GT PUSH1 0x1 PUSH1 0x0 MLOAD EQ AND OR AND SWAP2 POP POP DUP1 PUSH2 0x289E JUMPI PUSH1 0x40 MLOAD PUSH32 0x8C379A000000000000000000000000000000000000000000000000000000000 DUP2 MSTORE PUSH1 0x4 ADD PUSH2 0x2895 SWAP1 PUSH2 0x3823 JUMP JUMPDEST PUSH1 0x40 MLOAD DUP1 SWAP2 SUB SWAP1 REVERT JUMPDEST POP POP POP POP JUMP JUMPDEST PUSH1 0x0 DUP2 SWAP1 POP SWAP2 SWAP1 POP JUMP JUMPDEST PUSH2 0x28B7 DUP2 PUSH2 0x28A4 JUMP JUMPDEST DUP3 MSTORE POP POP JUMP JUMPDEST PUSH1 0x0 PUSH1 0x20 DUP3 ADD SWAP1 POP PUSH2 0x28D2 PUSH1 0x0 DUP4 ADD DUP5 PUSH2 0x28AE JUMP JUMPDEST SWAP3 SWAP2 POP POP JUMP JUMPDEST PUSH1 0x0 DUP2 MLOAD SWAP1 POP SWAP2 SWAP1 POP JUMP JUMPDEST PUSH1 0x0 DUP3 DUP3 MSTORE PUSH1 0x20 DUP3 ADD SWAP1 POP SWAP3 SWAP2 POP POP JUMP JUMPDEST PUSH1 0x0 JUMPDEST DUP4 DUP2 LT ISZERO PUSH2 0x2912 JUMPI DUP1 DUP3 ADD MLOAD DUP2 DUP5 ADD MSTORE PUSH1 0x20 DUP2 ADD SWAP1 POP PUSH2 0x28F7 JUMP JUMPDEST DUP4 DUP2 GT ISZERO PUSH2 0x2921 JUMPI PUSH1 0x0 DUP5 DUP5 ADD MSTORE JUMPDEST POP POP POP POP JUMP JUMPDEST PUSH1 0x0 PUSH1 0x1F NOT PUSH1 0x1F DUP4 ADD AND SWAP1 POP SWAP2 SWAP1 POP JUMP JUMPDEST PUSH1 0x0 PUSH2 0x2943 DUP3 PUSH2 0x28D8 JUMP JUMPDEST PUSH2 0x294D DUP2 DUP6 PUSH2 0x28E3 JUMP JUMPDEST SWAP4 POP PUSH2 0x295D DUP2 DUP6 PUSH1 0x20 DUP7 ADD PUSH2 0x28F4 JUMP JUMPDEST PUSH2 0x2966 DUP2 PUSH2 0x2927 JUMP JUMPDEST DUP5 ADD SWAP2 POP POP SWAP3 SWAP2 POP POP JUMP JUMPDEST PUSH1 0x0 PUSH1 0x20 DUP3 ADD SWAP1 POP DUP2 DUP2 SUB PUSH1 0x0 DUP4 ADD MSTORE PUSH2 0x298B DUP2 DUP5 PUSH2 0x2938 JUMP JUMPDEST SWAP1 POP SWAP3 SWAP2 POP POP JUMP JUMPDEST PUSH1 0x0 DUP1 REVERT JUMPDEST PUSH2 0x29A1 DUP2 PUSH2 0x28A4 JUMP JUMPDEST DUP2 EQ PUSH2 0x29AC JUMPI PUSH1 0x0 DUP1 REVERT JUMPDEST POP JUMP JUMPDEST PUSH1 0x0 DUP2 CALLDATALOAD SWAP1 POP PUSH2 0x29BE DUP2 PUSH2 0x2998 JUMP JUMPDEST SWAP3 SWAP2 POP POP JUMP JUMPDEST PUSH1 0x0 PUSH1 0x20 DUP3 DUP5 SUB SLT ISZERO PUSH2 0x29DA JUMPI PUSH2 0x29D9 PUSH2 0x2993 JUMP JUMPDEST JUMPDEST PUSH1 0x0 PUSH2 0x29E8 DUP5 DUP3 DUP6 ADD PUSH2 0x29AF JUMP JUMPDEST SWAP2 POP POP SWAP3 SWAP2 POP POP JUMP JUMPDEST PUSH1 0x0 PUSH20 0xFFFFFFFFFFFFFFFFFFFFFFFFFFFFFFFFFFFFFFFF DUP3 AND SWAP1 POP SWAP2 SWAP1 POP JUMP JUMPDEST PUSH1 0x0 PUSH2 0x2A1C DUP3 PUSH2 0x29F1 JUMP JUMPDEST SWAP1 POP SWAP2 SWAP1 POP JUMP JUMPDEST PUSH2 0x2A2C DUP2 PUSH2 0x2A11 JUMP JUMPDEST DUP2 EQ PUSH2 0x2A37 JUMPI PUSH1 0x0 DUP1 REVERT JUMPDEST POP JUMP JUMPDEST PUSH1 0x0 DUP2 CALLDATALOAD SWAP1 POP PUSH2 0x2A49 DUP2 PUSH2 0x2A23 JUMP JUMPDEST SWAP3 SWAP2 POP POP JUMP JUMPDEST PUSH1 0x0 DUP1 PUSH1 0x40 DUP4 DUP6 SUB SLT ISZERO PUSH2 0x2A66 JUMPI PUSH2 0x2A65 PUSH2 0x2993 JUMP JUMPDEST JUMPDEST PUSH1 0x0 PUSH2 0x2A74 DUP6 DUP3 DUP7 ADD PUSH2 0x2A3A JUMP JUMPDEST SWAP3 POP POP PUSH1 0x20 PUSH2 0x2A85 DUP6 DUP3 DUP7 ADD PUSH2 0x29AF JUMP JUMPDEST SWAP2 POP POP SWAP3 POP SWAP3 SWAP1 POP JUMP JUMPDEST PUSH1 0x0 DUP2 ISZERO ISZERO SWAP1 POP SWAP2 SWAP1 POP JUMP JUMPDEST PUSH2 0x2AA4 DUP2 PUSH2 0x2A8F JUMP JUMPDEST DUP3 MSTORE POP POP JUMP JUMPDEST PUSH1 0x0 PUSH1 0x20 DUP3 ADD SWAP1 POP PUSH2 0x2ABF PUSH1 0x0 DUP4 ADD DUP5 PUSH2 0x2A9B JUMP JUMPDEST SWAP3 SWAP2 POP POP JUMP JUMPDEST PUSH1 0x0 DUP1 PUSH1 0x0 PUSH1 0x60 DUP5 DUP7 SUB SLT ISZERO PUSH2 0x2ADE JUMPI PUSH2 0x2ADD PUSH2 0x2993 JUMP JUMPDEST JUMPDEST PUSH1 0x0 PUSH2 0x2AEC DUP7 DUP3 DUP8 ADD PUSH2 0x2A3A JUMP JUMPDEST SWAP4 POP POP PUSH1 0x20 PUSH2 0x2AFD DUP7 DUP3 DUP8 ADD PUSH2 0x2A3A JUMP JUMPDEST SWAP3 POP POP PUSH1 0x40 PUSH2 0x2B0E DUP7 DUP3 DUP8 ADD PUSH2 0x29AF JUMP JUMPDEST SWAP2 POP POP SWAP3 POP SWAP3 POP SWAP3 JUMP JUMPDEST PUSH1 0x0 PUSH1 0xFF DUP3 AND SWAP1 POP SWAP2 SWAP1 POP JUMP JUMPDEST PUSH2 0x2B2E DUP2 PUSH2 0x2B18 JUMP JUMPDEST DUP3 MSTORE POP POP JUMP JUMPDEST PUSH1 0x0 PUSH1 0x20 DUP3 ADD SWAP1 POP PUSH2 0x2B49 PUSH1 0x0 DUP4 ADD DUP5 PUSH2 0x2B25 JUMP JUMPDEST SWAP3 SWAP2 POP POP JUMP JUMPDEST PUSH2 0x2B58 DUP2 PUSH2 0x2A8F JUMP JUMPDEST DUP2 EQ PUSH2 0x2B63 JUMPI PUSH1 0x0 DUP1 REVERT JUMPDEST POP JUMP JUMPDEST PUSH1 0x0 DUP2 CALLDATALOAD SWAP1 POP PUSH2 0x2B75 DUP2 PUSH2 0x2B4F JUMP JUMPDEST SWAP3 SWAP2 POP POP JUMP JUMPDEST PUSH1 0x0 PUSH1 0x20 DUP3 DUP5 SUB SLT ISZERO PUSH2 0x2B91 JUMPI PUSH2 0x2B90 PUSH2 0x2993 JUMP JUMPDEST JUMPDEST PUSH1 0x0 PUSH2 0x2B9F DUP5 DUP3 DUP6 ADD PUSH2 0x2B66 JUMP JUMPDEST SWAP2 POP POP SWAP3 SWAP2 POP POP JUMP JUMPDEST PUSH1 0x0 DUP2 SWAP1 POP SWAP2 SWAP1 POP JUMP JUMPDEST PUSH2 0x2BBB DUP2 PUSH2 0x2BA8 JUMP JUMPDEST DUP3 MSTORE POP POP JUMP JUMPDEST PUSH1 0x0 PUSH1 0x20 DUP3 ADD SWAP1 POP PUSH2 0x2BD6 PUSH1 0x0 DUP4 ADD DUP5 PUSH2 0x2BB2 JUMP JUMPDEST SWAP3 SWAP2 POP POP JUMP JUMPDEST PUSH1 0x0 DUP2 SWAP1 POP SWAP2 SWAP1 POP JUMP JUMPDEST PUSH1 0x0 PUSH2 0x2C01 PUSH2 0x2BFC PUSH2 0x2BF7 DUP5 PUSH2 0x29F1 JUMP JUMPDEST PUSH2 0x2BDC JUMP JUMPDEST PUSH2 0x29F1 JUMP JUMPDEST SWAP1 POP SWAP2 SWAP1 POP JUMP JUMPDEST PUSH1 0x0 PUSH2 0x2C13 DUP3 PUSH2 0x2BE6 JUMP JUMPDEST SWAP1 POP SWAP2 SWAP1 POP JUMP JUMPDEST PUSH1 0x0 PUSH2 0x2C25 DUP3 PUSH2 0x2C08 JUMP JUMPDEST SWAP1 POP SWAP2 SWAP1 POP JUMP JUMPDEST PUSH2 0x2C35 DUP2 PUSH2 0x2C1A JUMP JUMPDEST DUP3 MSTORE POP POP JUMP JUMPDEST PUSH1 0x0 PUSH1 0x20 DUP3 ADD SWAP1 POP PUSH2 0x2C50 PUSH1 0x0 DUP4 ADD DUP5 PUSH2 0x2C2C JUMP JUMPDEST SWAP3 SWAP2 POP POP JUMP JUMPDEST PUSH1 0x0 PUSH1 0x20 DUP3 DUP5 SUB SLT ISZERO PUSH2 0x2C6C JUMPI PUSH2 0x2C6B PUSH2 0x2993 JUMP JUMPDEST JUMPDEST PUSH1 0x0 PUSH2 0x2C7A DUP5 DUP3 DUP6 ADD PUSH2 0x2A3A JUMP JUMPDEST SWAP2 POP POP SWAP3 SWAP2 POP POP JUMP JUMPDEST PUSH2 0x2C8C DUP2 PUSH2 0x2A11 JUMP JUMPDEST DUP3 MSTORE POP POP JUMP JUMPDEST PUSH1 0x0 PUSH1 0x20 DUP3 ADD SWAP1 POP PUSH2 0x2CA7 PUSH1 0x0 DUP4 ADD DUP5 PUSH2 0x2C83 JUMP JUMPDEST SWAP3 SWAP2 POP POP JUMP JUMPDEST PUSH1 0x0 DUP1 PUSH1 0x40 DUP4 DUP6 SUB SLT ISZERO PUSH2 0x2CC4 JUMPI PUSH2 0x2CC3 PUSH2 0x2993 JUMP JUMPDEST JUMPDEST PUSH1 0x0 PUSH2 0x2CD2 DUP6 DUP3 DUP7 ADD PUSH2 0x29AF JUMP JUMPDEST SWAP3 POP POP PUSH1 0x20 PUSH2 0x2CE3 DUP6 DUP3 DUP7 ADD PUSH2 0x2A3A JUMP JUMPDEST SWAP2 POP POP SWAP3 POP SWAP3 SWAP1 POP JUMP JUMPDEST PUSH1 0x0 DUP1 PUSH1 0x0 PUSH1 0x60 DUP5 DUP7 SUB SLT ISZERO PUSH2 0x2D06 JUMPI PUSH2 0x2D05 PUSH2 0x2993 JUMP JUMPDEST JUMPDEST PUSH1 0x0 PUSH2 0x2D14 DUP7 DUP3 DUP8 ADD PUSH2 0x29AF JUMP JUMPDEST SWAP4 POP POP PUSH1 0x20 PUSH2 0x2D25 DUP7 DUP3 DUP8 ADD PUSH2 0x2A3A JUMP JUMPDEST SWAP3 POP POP PUSH1 0x40 PUSH2 0x2D36 DUP7 DUP3 DUP8 ADD PUSH2 0x2A3A JUMP JUMPDEST SWAP2 POP POP SWAP3 POP SWAP3 POP SWAP3 JUMP JUMPDEST PUSH2 0x2D49 DUP2 PUSH2 0x2B18 JUMP JUMPDEST DUP2 EQ PUSH2 0x2D54 JUMPI PUSH1 0x0 DUP1 REVERT JUMPDEST POP JUMP JUMPDEST PUSH1 0x0 DUP2 CALLDATALOAD SWAP1 POP PUSH2 0x2D66 DUP2 PUSH2 0x2D40 JUMP JUMPDEST SWAP3 SWAP2 POP POP JUMP JUMPDEST PUSH2 0x2D75 DUP2 PUSH2 0x2BA8 JUMP JUMPDEST DUP2 EQ PUSH2 0x2D80 JUMPI PUSH1 0x0 DUP1 REVERT JUMPDEST POP JUMP JUMPDEST PUSH1 0x0 DUP2 CALLDATALOAD SWAP1 POP PUSH2 0x2D92 DUP2 PUSH2 0x2D6C JUMP JUMPDEST SWAP3 SWAP2 POP POP JUMP JUMPDEST PUSH1 0x0 DUP1 PUSH1 0x0 DUP1 PUSH1 0x0 DUP1 PUSH1 0x0 PUSH1 0xE0 DUP9 DUP11 SUB SLT ISZERO PUSH2 0x2DB7 JUMPI PUSH2 0x2DB6 PUSH2 0x2993 JUMP JUMPDEST JUMPDEST PUSH1 0x0 PUSH2 0x2DC5 DUP11 DUP3 DUP12 ADD PUSH2 0x2A3A JUMP JUMPDEST SWAP8 POP POP PUSH1 0x20 PUSH2 0x2DD6 DUP11 DUP3 DUP12 ADD PUSH2 0x2A3A JUMP JUMPDEST SWAP7 POP POP PUSH1 0x40 PUSH2 0x2DE7 DUP11 DUP3 DUP12 ADD PUSH2 0x29AF JUMP JUMPDEST SWAP6 POP POP PUSH1 0x60 PUSH2 0x2DF8 DUP11 DUP3 DUP12 ADD PUSH2 0x29AF JUMP JUMPDEST SWAP5 POP POP PUSH1 0x80 PUSH2 0x2E09 DUP11 DUP3 DUP12 ADD PUSH2 0x2D57 JUMP JUMPDEST SWAP4 POP POP PUSH1 0xA0 PUSH2 0x2E1A DUP11 DUP3 DUP12 ADD PUSH2 0x2D83 JUMP JUMPDEST SWAP3 POP POP PUSH1 0xC0 PUSH2 0x2E2B DUP11 DUP3 DUP12 ADD PUSH2 0x2D83 JUMP JUMPDEST SWAP2 POP POP SWAP3 SWAP6 SWAP9 SWAP2 SWAP5 SWAP8 POP SWAP3 SWAP6 POP JUMP JUMPDEST PUSH1 0x0 DUP1 PUSH1 0x40 DUP4 DUP6 SUB SLT ISZERO PUSH2 0x2E51 JUMPI PUSH2 0x2E50 PUSH2 0x2993 JUMP JUMPDEST JUMPDEST PUSH1 0x0 PUSH2 0x2E5F DUP6 DUP3 DUP7 ADD PUSH2 0x2A3A JUMP JUMPDEST SWAP3 POP POP PUSH1 0x20 PUSH2 0x2E70 DUP6 DUP3 DUP7 ADD PUSH2 0x2A3A JUMP JUMPDEST SWAP2 POP POP SWAP3 POP SWAP3 SWAP1 POP JUMP JUMPDEST PUSH1 0x0 DUP2 MLOAD SWAP1 POP PUSH2 0x2E89 DUP2 PUSH2 0x2998 JUMP JUMPDEST SWAP3 SWAP2 POP POP JUMP JUMPDEST PUSH1 0x0 PUSH1 0x20 DUP3 DUP5 SUB SLT ISZERO PUSH2 0x2EA5 JUMPI PUSH2 0x2EA4 PUSH2 0x2993 JUMP JUMPDEST JUMPDEST PUSH1 0x0 PUSH2 0x2EB3 DUP5 DUP3 DUP6 ADD PUSH2 0x2E7A JUMP JUMPDEST SWAP2 POP POP SWAP3 SWAP2 POP POP JUMP JUMPDEST PUSH32 0x4E487B7100000000000000000000000000000000000000000000000000000000 PUSH1 0x0 MSTORE PUSH1 0x22 PUSH1 0x4 MSTORE PUSH1 0x24 PUSH1 0x0 REVERT JUMPDEST PUSH1 0x0 PUSH1 0x2 DUP3 DIV SWAP1 POP PUSH1 0x1 DUP3 AND DUP1 PUSH2 0x2F03 JUMPI PUSH1 0x7F DUP3 AND SWAP2 POP JUMPDEST PUSH1 0x20 DUP3 LT DUP2 EQ ISZERO PUSH2 0x2F17 JUMPI PUSH2 0x2F16 PUSH2 0x2EBC JUMP JUMPDEST JUMPDEST POP SWAP2 SWAP1 POP JUMP JUMPDEST PUSH32 0x4E487B7100000000000000000000000000000000000000000000000000000000 PUSH1 0x0 MSTORE PUSH1 0x11 PUSH1 0x4 MSTORE PUSH1 0x24 PUSH1 0x0 REVERT JUMPDEST PUSH1 0x0 PUSH2 0x2F57 DUP3 PUSH2 0x28A4 JUMP JUMPDEST SWAP2 POP PUSH2 0x2F62 DUP4 PUSH2 0x28A4 JUMP JUMPDEST SWAP3 POP DUP3 DUP3 LT ISZERO PUSH2 0x2F75 JUMPI PUSH2 0x2F74 PUSH2 0x2F1D JUMP JUMPDEST JUMPDEST DUP3 DUP3 SUB SWAP1 POP SWAP3 SWAP2 POP POP JUMP JUMPDEST PUSH32 0x4F776E61626C653A2063616C6C6572206973206E6F7420746865206D616E6167 PUSH1 0x0 DUP3 ADD MSTORE PUSH32 0x6572000000000000000000000000000000000000000000000000000000000000 PUSH1 0x20 DUP3 ADD MSTORE POP JUMP JUMPDEST PUSH1 0x0 PUSH2 0x2FDC PUSH1 0x22 DUP4 PUSH2 0x28E3 JUMP JUMPDEST SWAP2 POP PUSH2 0x2FE7 DUP3 PUSH2 0x2F80 JUMP JUMPDEST PUSH1 0x40 DUP3 ADD SWAP1 POP SWAP2 SWAP1 POP JUMP JUMPDEST PUSH1 0x0 PUSH1 0x20 DUP3 ADD SWAP1 POP DUP2 DUP2 SUB PUSH1 0x0 DUP4 ADD MSTORE PUSH2 0x300B DUP2 PUSH2 0x2FCF JUMP JUMPDEST SWAP1 POP SWAP2 SWAP1 POP JUMP JUMPDEST PUSH1 0x0 DUP2 MLOAD SWAP1 POP PUSH2 0x3021 DUP2 PUSH2 0x2D40 JUMP JUMPDEST SWAP3 SWAP2 POP POP JUMP JUMPDEST PUSH1 0x0 PUSH1 0x20 DUP3 DUP5 SUB SLT ISZERO PUSH2 0x303D JUMPI PUSH2 0x303C PUSH2 0x2993 JUMP JUMPDEST JUMPDEST PUSH1 0x0 PUSH2 0x304B DUP5 DUP3 DUP6 ADD PUSH2 0x3012 JUMP JUMPDEST SWAP2 POP POP SWAP3 SWAP2 POP POP JUMP JUMPDEST PUSH32 0x57524F4E475F444543494D414C53000000000000000000000000000000000000 PUSH1 0x0 DUP3 ADD MSTORE POP JUMP JUMPDEST PUSH1 0x0 PUSH2 0x308A PUSH1 0xE DUP4 PUSH2 0x28E3 JUMP JUMPDEST SWAP2 POP PUSH2 0x3095 DUP3 PUSH2 0x3054 JUMP JUMPDEST PUSH1 0x20 DUP3 ADD SWAP1 POP SWAP2 SWAP1 POP JUMP JUMPDEST PUSH1 0x0 PUSH1 0x20 DUP3 ADD SWAP1 POP DUP2 DUP2 SUB PUSH1 0x0 DUP4 ADD MSTORE PUSH2 0x30B9 DUP2 PUSH2 0x307D JUMP JUMPDEST SWAP1 POP SWAP2 SWAP1 POP JUMP JUMPDEST PUSH32 0x5A45524F5F534841524553000000000000000000000000000000000000000000 PUSH1 0x0 DUP3 ADD MSTORE POP JUMP JUMPDEST PUSH1 0x0 PUSH2 0x30F6 PUSH1 0xB DUP4 PUSH2 0x28E3 JUMP JUMPDEST SWAP2 POP PUSH2 0x3101 DUP3 PUSH2 0x30C0 JUMP JUMPDEST PUSH1 0x20 DUP3 ADD SWAP1 POP SWAP2 SWAP1 POP JUMP JUMPDEST PUSH1 0x0 PUSH1 0x20 DUP3 ADD SWAP1 POP DUP2 DUP2 SUB PUSH1 0x0 DUP4 ADD MSTORE PUSH2 0x3125 DUP2 PUSH2 0x30E9 JUMP JUMPDEST SWAP1 POP SWAP2 SWAP1 POP JUMP JUMPDEST PUSH1 0x0 PUSH1 0x40 DUP3 ADD SWAP1 POP PUSH2 0x3141 PUSH1 0x0 DUP4 ADD DUP6 PUSH2 0x28AE JUMP JUMPDEST PUSH2 0x314E PUSH1 0x20 DUP4 ADD DUP5 PUSH2 0x28AE JUMP JUMPDEST SWAP4 SWAP3 POP POP POP JUMP JUMPDEST PUSH32 0x4645455F544F4F5F484947480000000000000000000000000000000000000000 PUSH1 0x0 DUP3 ADD MSTORE POP JUMP JUMPDEST PUSH1 0x0 PUSH2 0x318B PUSH1 0xC DUP4 PUSH2 0x28E3 JUMP JUMPDEST SWAP2 POP PUSH2 0x3196 DUP3 PUSH2 0x3155 JUMP JUMPDEST PUSH1 0x20 DUP3 ADD SWAP1 POP SWAP2 SWAP1 POP JUMP JUMPDEST PUSH1 0x0 PUSH1 0x20 DUP3 ADD SWAP1 POP DUP2 DUP2 SUB PUSH1 0x0 DUP4 ADD MSTORE PUSH2 0x31BA DUP2 PUSH2 0x317E JUMP JUMPDEST SWAP1 POP SWAP2 SWAP1 POP JUMP JUMPDEST PUSH1 0x0 PUSH1 0x40 DUP3 ADD SWAP1 POP PUSH2 0x31D6 PUSH1 0x0 DUP4 ADD DUP6 PUSH2 0x2C83 JUMP JUMPDEST PUSH2 0x31E3 PUSH1 0x20 DUP4 ADD DUP5 PUSH2 0x28AE JUMP JUMPDEST SWAP4 SWAP3 POP POP POP JUMP JUMPDEST PUSH1 0x0 DUP2 MLOAD SWAP1 POP PUSH2 0x31F9 DUP2 PUSH2 0x2B4F JUMP JUMPDEST SWAP3 SWAP2 POP POP JUMP JUMPDEST PUSH1 0x0 PUSH1 0x20 DUP3 DUP5 SUB SLT ISZERO PUSH2 0x3215 JUMPI PUSH2 0x3214 PUSH2 0x2993 JUMP JUMPDEST JUMPDEST PUSH1 0x0 PUSH2 0x3223 DUP5 DUP3 DUP6 ADD PUSH2 0x31EA JUMP JUMPDEST SWAP2 POP POP SWAP3 SWAP2 POP POP JUMP JUMPDEST PUSH32 0x5A45524F5F415353455453000000000000000000000000000000000000000000 PUSH1 0x0 DUP3 ADD MSTORE POP JUMP JUMPDEST PUSH1 0x0 PUSH2 0x3262 PUSH1 0xB DUP4 PUSH2 0x28E3 JUMP JUMPDEST SWAP2 POP PUSH2 0x326D DUP3 PUSH2 0x322C JUMP JUMPDEST PUSH1 0x20 DUP3 ADD SWAP1 POP SWAP2 SWAP1 POP JUMP JUMPDEST PUSH1 0x0 PUSH1 0x20 DUP3 ADD SWAP1 POP DUP2 DUP2 SUB PUSH1 0x0 DUP4 ADD MSTORE PUSH2 0x3291 DUP2 PUSH2 0x3255 JUMP JUMPDEST SWAP1 POP SWAP2 SWAP1 POP JUMP JUMPDEST PUSH32 0x5441524745545F544F4F5F484947480000000000000000000000000000000000 PUSH1 0x0 DUP3 ADD MSTORE POP JUMP JUMPDEST PUSH1 0x0 PUSH2 0x32CE PUSH1 0xF DUP4 PUSH2 0x28E3 JUMP JUMPDEST SWAP2 POP PUSH2 0x32D9 DUP3 PUSH2 0x3298 JUMP JUMPDEST PUSH1 0x20 DUP3 ADD SWAP1 POP SWAP2 SWAP1 POP JUMP JUMPDEST PUSH1 0x0 PUSH1 0x20 DUP3 ADD SWAP1 POP DUP2 DUP2 SUB PUSH1 0x0 DUP4 ADD MSTORE PUSH2 0x32FD DUP2 PUSH2 0x32C1 JUMP JUMPDEST SWAP1 POP SWAP2 SWAP1 POP JUMP JUMPDEST PUSH32 0x5045524D49545F444541444C494E455F45585049524544000000000000000000 PUSH1 0x0 DUP3 ADD MSTORE POP JUMP JUMPDEST PUSH1 0x0 PUSH2 0x333A PUSH1 0x17 DUP4 PUSH2 0x28E3 JUMP JUMPDEST SWAP2 POP PUSH2 0x3345 DUP3 PUSH2 0x3304 JUMP JUMPDEST PUSH1 0x20 DUP3 ADD SWAP1 POP SWAP2 SWAP1 POP JUMP JUMPDEST PUSH1 0x0 PUSH1 0x20 DUP3 ADD SWAP1 POP DUP2 DUP2 SUB PUSH1 0x0 DUP4 ADD MSTORE PUSH2 0x3369 DUP2 PUSH2 0x332D JUMP JUMPDEST SWAP1 POP SWAP2 SWAP1 POP JUMP JUMPDEST PUSH1 0x0 PUSH1 0xC0 DUP3 ADD SWAP1 POP PUSH2 0x3385 PUSH1 0x0 DUP4 ADD DUP10 PUSH2 0x2BB2 JUMP JUMPDEST PUSH2 0x3392 PUSH1 0x20 DUP4 ADD DUP9 PUSH2 0x2C83 JUMP JUMPDEST PUSH2 0x339F PUSH1 0x40 DUP4 ADD DUP8 PUSH2 0x2C83 JUMP JUMPDEST PUSH2 0x33AC PUSH1 0x60 DUP4 ADD DUP7 PUSH2 0x28AE JUMP JUMPDEST PUSH2 0x33B9 PUSH1 0x80 DUP4 ADD DUP6 PUSH2 0x28AE JUMP JUMPDEST PUSH2 0x33C6 PUSH1 0xA0 DUP4 ADD DUP5 PUSH2 0x28AE JUMP JUMPDEST SWAP8 SWAP7 POP POP POP POP POP POP POP JUMP JUMPDEST PUSH1 0x0 DUP2 SWAP1 POP SWAP3 SWAP2 POP POP JUMP JUMPDEST PUSH32 0x1901000000000000000000000000000000000000000000000000000000000000 PUSH1 0x0 DUP3 ADD MSTORE POP JUMP JUMPDEST PUSH1 0x0 PUSH2 0x3412 PUSH1 0x2 DUP4 PUSH2 0x33D1 JUMP JUMPDEST SWAP2 POP PUSH2 0x341D DUP3 PUSH2 0x33DC JUMP JUMPDEST PUSH1 0x2 DUP3 ADD SWAP1 POP SWAP2 SWAP1 POP JUMP JUMPDEST PUSH1 0x0 DUP2 SWAP1 POP SWAP2 SWAP1 POP JUMP JUMPDEST PUSH2 0x3443 PUSH2 0x343E DUP3 PUSH2 0x2BA8 JUMP JUMPDEST PUSH2 0x3428 JUMP JUMPDEST DUP3 MSTORE POP POP JUMP JUMPDEST PUSH1 0x0 PUSH2 0x3454 DUP3 PUSH2 0x3405 JUMP JUMPDEST SWAP2 POP PUSH2 0x3460 DUP3 DUP6 PUSH2 0x3432 JUMP JUMPDEST PUSH1 0x20 DUP3 ADD SWAP2 POP PUSH2 0x3470 DUP3 DUP5 PUSH2 0x3432 JUMP JUMPDEST PUSH1 0x20 DUP3 ADD SWAP2 POP DUP2 SWAP1 POP SWAP4 SWAP3 POP POP POP JUMP JUMPDEST PUSH1 0x0 PUSH1 0x80 DUP3 ADD SWAP1 POP PUSH2 0x3495 PUSH1 0x0 DUP4 ADD DUP8 PUSH2 0x2BB2 JUMP JUMPDEST PUSH2 0x34A2 PUSH1 0x20 DUP4 ADD DUP7 PUSH2 0x2B25 JUMP JUMPDEST PUSH2 0x34AF PUSH1 0x40 DUP4 ADD DUP6 PUSH2 0x2BB2 JUMP JUMPDEST PUSH2 0x34BC PUSH1 0x60 DUP4 ADD DUP5 PUSH2 0x2BB2 JUMP JUMPDEST SWAP6 SWAP5 POP POP POP POP POP JUMP JUMPDEST PUSH32 0x494E56414C49445F5349474E4552000000000000000000000000000000000000 PUSH1 0x0 DUP3 ADD MSTORE POP JUMP JUMPDEST PUSH1 0x0 PUSH2 0x34FB PUSH1 0xE DUP4 PUSH2 0x28E3 JUMP JUMPDEST SWAP2 POP PUSH2 0x3506 DUP3 PUSH2 0x34C5 JUMP JUMPDEST PUSH1 0x20 DUP3 ADD SWAP1 POP SWAP2 SWAP1 POP JUMP JUMPDEST PUSH1 0x0 PUSH1 0x20 DUP3 ADD SWAP1 POP DUP2 DUP2 SUB PUSH1 0x0 DUP4 ADD MSTORE PUSH2 0x352A DUP2 PUSH2 0x34EE JUMP JUMPDEST SWAP1 POP SWAP2 SWAP1 POP JUMP JUMPDEST PUSH32 0x4F776E61626C653A206E6577206D616E6167657220697320746865207A65726F PUSH1 0x0 DUP3 ADD MSTORE PUSH32 0x2061646472657373000000000000000000000000000000000000000000000000 PUSH1 0x20 DUP3 ADD MSTORE POP JUMP JUMPDEST PUSH1 0x0 PUSH2 0x358D PUSH1 0x28 DUP4 PUSH2 0x28E3 JUMP JUMPDEST SWAP2 POP PUSH2 0x3598 DUP3 PUSH2 0x3531 JUMP JUMPDEST PUSH1 0x40 DUP3 ADD SWAP1 POP SWAP2 SWAP1 POP JUMP JUMPDEST PUSH1 0x0 PUSH1 0x20 DUP3 ADD SWAP1 POP DUP2 DUP2 SUB PUSH1 0x0 DUP4 ADD MSTORE PUSH2 0x35BC DUP2 PUSH2 0x3580 JUMP JUMPDEST SWAP1 POP SWAP2 SWAP1 POP JUMP JUMPDEST PUSH1 0x0 DUP2 SWAP1 POP SWAP3 SWAP2 POP POP JUMP JUMPDEST PUSH1 0x0 DUP2 SWAP1 POP DUP2 PUSH1 0x0 MSTORE PUSH1 0x20 PUSH1 0x0 KECCAK256 SWAP1 POP SWAP2 SWAP1 POP JUMP JUMPDEST PUSH1 0x0 DUP2 SLOAD PUSH2 0x35F0 DUP2 PUSH2 0x2EEB JUMP JUMPDEST PUSH2 0x35FA DUP2 DUP7 PUSH2 0x35C3 JUMP JUMPDEST SWAP5 POP PUSH1 0x1 DUP3 AND PUSH1 0x0 DUP2 EQ PUSH2 0x3615 JUMPI PUSH1 0x1 DUP2 EQ PUSH2 0x3626 JUMPI PUSH2 0x3659 JUMP JUMPDEST PUSH1 0xFF NOT DUP4 AND DUP7 MSTORE DUP2 DUP7 ADD SWAP4 POP PUSH2 0x3659 JUMP JUMPDEST PUSH2 0x362F DUP6 PUSH2 0x35CE JUMP JUMPDEST PUSH1 0x0 JUMPDEST DUP4 DUP2 LT ISZERO PUSH2 0x3651 JUMPI DUP2 SLOAD DUP2 DUP10 ADD MSTORE PUSH1 0x1 DUP3 ADD SWAP2 POP PUSH1 0x20 DUP2 ADD SWAP1 POP PUSH2 0x3632 JUMP JUMPDEST DUP4 DUP9 ADD SWAP6 POP POP POP JUMPDEST POP POP POP SWAP3 SWAP2 POP POP JUMP JUMPDEST PUSH1 0x0 PUSH2 0x366E DUP3 DUP5 PUSH2 0x35E3 JUMP JUMPDEST SWAP2 POP DUP2 SWAP1 POP SWAP3 SWAP2 POP POP JUMP JUMPDEST PUSH1 0x0 PUSH1 0xA0 DUP3 ADD SWAP1 POP PUSH2 0x368E PUSH1 0x0 DUP4 ADD DUP9 PUSH2 0x2BB2 JUMP JUMPDEST PUSH2 0x369B PUSH1 0x20 DUP4 ADD DUP8 PUSH2 0x2BB2 JUMP JUMPDEST PUSH2 0x36A8 PUSH1 0x40 DUP4 ADD DUP7 PUSH2 0x2BB2 JUMP JUMPDEST PUSH2 0x36B5 PUSH1 0x60 DUP4 ADD DUP6 PUSH2 0x28AE JUMP JUMPDEST PUSH2 0x36C2 PUSH1 0x80 DUP4 ADD DUP5 PUSH2 0x2C83 JUMP JUMPDEST SWAP7 SWAP6 POP POP POP POP POP POP JUMP JUMPDEST PUSH32 0x5452414E534645525F46524F4D5F4641494C4544000000000000000000000000 PUSH1 0x0 DUP3 ADD MSTORE POP JUMP JUMPDEST PUSH1 0x0 PUSH2 0x3702 PUSH1 0x14 DUP4 PUSH2 0x28E3 JUMP JUMPDEST SWAP2 POP PUSH2 0x370D DUP3 PUSH2 0x36CC JUMP JUMPDEST PUSH1 0x20 DUP3 ADD SWAP1 POP SWAP2 SWAP1 POP JUMP JUMPDEST PUSH1 0x0 PUSH1 0x20 DUP3 ADD SWAP1 POP DUP2 DUP2 SUB PUSH1 0x0 DUP4 ADD MSTORE PUSH2 0x3731 DUP2 PUSH2 0x36F5 JUMP JUMPDEST SWAP1 POP SWAP2 SWAP1 POP JUMP JUMPDEST PUSH1 0x0 PUSH2 0x3743 DUP3 PUSH2 0x28A4 JUMP JUMPDEST SWAP2 POP PUSH2 0x374E DUP4 PUSH2 0x28A4 JUMP JUMPDEST SWAP3 POP DUP3 PUSH32 0xFFFFFFFFFFFFFFFFFFFFFFFFFFFFFFFFFFFFFFFFFFFFFFFFFFFFFFFFFFFFFFFF SUB DUP3 GT ISZERO PUSH2 0x3783 JUMPI PUSH2 0x3782 PUSH2 0x2F1D JUMP JUMPDEST JUMPDEST DUP3 DUP3 ADD SWAP1 POP SWAP3 SWAP2 POP POP JUMP JUMPDEST PUSH1 0x0 PUSH2 0x3799 DUP3 PUSH2 0x28A4 JUMP JUMPDEST SWAP2 POP PUSH32 0xFFFFFFFFFFFFFFFFFFFFFFFFFFFFFFFFFFFFFFFFFFFFFFFFFFFFFFFFFFFFFFFF DUP3 EQ ISZERO PUSH2 0x37CC JUMPI PUSH2 0x37CB PUSH2 0x2F1D JUMP JUMPDEST JUMPDEST PUSH1 0x1 DUP3 ADD SWAP1 POP SWAP2 SWAP1 POP JUMP JUMPDEST PUSH32 0x5452414E534645525F4641494C45440000000000000000000000000000000000 PUSH1 0x0 DUP3 ADD MSTORE POP JUMP JUMPDEST PUSH1 0x0 PUSH2 0x380D PUSH1 0xF DUP4 PUSH2 0x28E3 JUMP JUMPDEST SWAP2 POP PUSH2 0x3818 DUP3 PUSH2 0x37D7 JUMP JUMPDEST PUSH1 0x20 DUP3 ADD SWAP1 POP SWAP2 SWAP1 POP JUMP JUMPDEST PUSH1 0x0 PUSH1 0x20 DUP3 ADD SWAP1 POP DUP2 DUP2 SUB PUSH1 0x0 DUP4 ADD MSTORE PUSH2 0x383C DUP2 PUSH2 0x3800 JUMP JUMPDEST SWAP1 POP SWAP2 SWAP1 POP JUMP INVALID LOG2 PUSH5 0x6970667358 0x22 SLT KECCAK256 CALLVALUE 0x1F 0xCF 0xBE 0x49 NUMBER SSTORE CALLDATALOAD 0xBD SUB SWAP7 0xD9 0xAB GAS 0xE PUSH17 0x809164433738E8F9CD5B5459EE5EA04564 PUSH20 0x6F6C634300080800330000000000000000000000 "
				},
				"gasEstimates": {
					"creation": {
						"codeDepositCost": "2891400",
						"executionCost": "infinite",
						"totalCost": "infinite"
					},
					"external": {
						"DOMAIN_SEPARATOR()": "infinite",
						"UNDERLYING()": "infinite",
						"afterDepositHookCalledCounter()": "2583",
						"allowance(address,address)": "infinite",
						"approve(address,uint256)": "infinite",
						"asset()": "infinite",
						"balanceOf(address)": "2903",
						"beforeWithdrawHookCalledCounter()": "2540",
						"claimFees(uint256)": "infinite",
						"convertToAssets(uint256)": "infinite",
						"convertToShares(uint256)": "infinite",
						"decimals()": "infinite",
						"deposit(uint256,address)": "infinite",
						"exchangeRate()": "infinite",
						"feePercent()": "2475",
						"manager()": "2656",
						"maxDeposit(address)": "763",
						"maxMint(address)": "696",
						"maxRedeem(address)": "2974",
						"maxWithdraw(address)": "infinite",
						"mint(uint256,address)": "infinite",
						"name()": "infinite",
						"nonces(address)": "2969",
						"permit(address,address,uint256,uint256,uint8,bytes32,bytes32)": "infinite",
						"previewDeposit(uint256)": "infinite",
						"previewMint(uint256)": "infinite",
						"previewRedeem(uint256)": "infinite",
						"previewWithdraw(uint256)": "infinite",
						"redeem(uint256,address,address)": "infinite",
						"renounceOwnership()": "30408",
						"setFeePercent(uint256)": "infinite",
						"setTargetFloatPercent(uint256)": "infinite",
						"setUnderlyingIsWETH(bool)": "infinite",
						"symbol()": "infinite",
						"targetFloatPercent()": "2497",
						"totalAssets()": "infinite",
						"totalStrategyHoldings()": "2495",
						"totalSupply()": "2475",
						"transfer(address,uint256)": "infinite",
						"transferFrom(address,address,uint256)": "infinite",
						"transferOwnership(address)": "30756",
						"underlyingIsWETH()": "2603",
						"withdraw(uint256,address,address)": "infinite"
					},
					"internal": {
						"afterDeposit(uint256,uint256)": "24373",
						"beforeWithdraw(uint256,uint256)": "24373",
						"strategyACall(address,uint256,uint160)": "infinite",
						"strategyBCall(address,uint256,uint160)": "infinite"
					}
				},
				"methodIdentifiers": {
					"DOMAIN_SEPARATOR()": "3644e515",
					"UNDERLYING()": "c5d664c6",
					"afterDepositHookCalledCounter()": "fc407ae7",
					"allowance(address,address)": "dd62ed3e",
					"approve(address,uint256)": "095ea7b3",
					"asset()": "38d52e0f",
					"balanceOf(address)": "70a08231",
					"beforeWithdrawHookCalledCounter()": "bc368a8a",
					"claimFees(uint256)": "ac68a748",
					"convertToAssets(uint256)": "07a2d13a",
					"convertToShares(uint256)": "c6e6f592",
					"decimals()": "313ce567",
					"deposit(uint256,address)": "6e553f65",
					"exchangeRate()": "3ba0b9a9",
					"feePercent()": "7fd6f15c",
					"manager()": "481c6a75",
					"maxDeposit(address)": "402d267d",
					"maxMint(address)": "c63d75b6",
					"maxRedeem(address)": "d905777e",
					"maxWithdraw(address)": "ce96cb77",
					"mint(uint256,address)": "94bf804d",
					"name()": "06fdde03",
					"nonces(address)": "7ecebe00",
					"permit(address,address,uint256,uint256,uint8,bytes32,bytes32)": "d505accf",
					"previewDeposit(uint256)": "ef8b30f7",
					"previewMint(uint256)": "b3d7f6b9",
					"previewRedeem(uint256)": "4cdad506",
					"previewWithdraw(uint256)": "0a28a477",
					"redeem(uint256,address,address)": "ba087652",
					"renounceOwnership()": "715018a6",
					"setFeePercent(uint256)": "7ce3489b",
					"setTargetFloatPercent(uint256)": "bd662f88",
					"setUnderlyingIsWETH(bool)": "32ff7732",
					"symbol()": "95d89b41",
					"targetFloatPercent()": "1c693478",
					"totalAssets()": "01e1d114",
					"totalStrategyHoldings()": "ecad9565",
					"totalSupply()": "18160ddd",
					"transfer(address,uint256)": "a9059cbb",
					"transferFrom(address,address,uint256)": "23b872dd",
					"transferOwnership(address)": "f2fde38b",
					"underlyingIsWETH()": "f84d73f4",
					"withdraw(uint256,address,address)": "b460af94"
				}
			},
			"storageLayout": {
				"storage": [
					{
						"astId": 710,
						"contract": "SquiddyCore.sol:SquiddyCore",
						"label": "name",
						"offset": 0,
						"slot": "0",
						"type": "t_string_storage"
					},
					{
						"astId": 712,
						"contract": "SquiddyCore.sol:SquiddyCore",
						"label": "symbol",
						"offset": 0,
						"slot": "1",
						"type": "t_string_storage"
					},
					{
						"astId": 716,
						"contract": "SquiddyCore.sol:SquiddyCore",
						"label": "totalSupply",
						"offset": 0,
						"slot": "2",
						"type": "t_uint256"
					},
					{
						"astId": 720,
						"contract": "SquiddyCore.sol:SquiddyCore",
						"label": "balanceOf",
						"offset": 0,
						"slot": "3",
						"type": "t_mapping(t_address,t_uint256)"
					},
					{
						"astId": 726,
						"contract": "SquiddyCore.sol:SquiddyCore",
						"label": "allowance",
						"offset": 0,
						"slot": "4",
						"type": "t_mapping(t_address,t_mapping(t_address,t_uint256))"
					},
					{
						"astId": 734,
						"contract": "SquiddyCore.sol:SquiddyCore",
						"label": "nonces",
						"offset": 0,
						"slot": "5",
						"type": "t_mapping(t_address,t_uint256)"
					},
					{
						"astId": 1879,
						"contract": "SquiddyCore.sol:SquiddyCore",
						"label": "_manager",
						"offset": 0,
						"slot": "6",
						"type": "t_address"
					},
					{
						"astId": 1882,
						"contract": "SquiddyCore.sol:SquiddyCore",
						"label": "beforeWithdrawHookCalledCounter",
						"offset": 0,
						"slot": "7",
						"type": "t_uint256"
					},
					{
						"astId": 1885,
						"contract": "SquiddyCore.sol:SquiddyCore",
						"label": "afterDepositHookCalledCounter",
						"offset": 0,
						"slot": "8",
						"type": "t_uint256"
					},
					{
						"astId": 2049,
						"contract": "SquiddyCore.sol:SquiddyCore",
						"label": "feePercent",
						"offset": 0,
						"slot": "9",
						"type": "t_uint256"
					},
					{
						"astId": 2102,
						"contract": "SquiddyCore.sol:SquiddyCore",
						"label": "targetFloatPercent",
						"offset": 0,
						"slot": "10",
						"type": "t_uint256"
					},
					{
						"astId": 2131,
						"contract": "SquiddyCore.sol:SquiddyCore",
						"label": "underlyingIsWETH",
						"offset": 0,
						"slot": "11",
						"type": "t_bool"
					},
					{
						"astId": 2165,
						"contract": "SquiddyCore.sol:SquiddyCore",
						"label": "totalStrategyHoldings",
						"offset": 0,
						"slot": "12",
						"type": "t_uint256"
					}
				],
				"types": {
					"t_address": {
						"encoding": "inplace",
						"label": "address",
						"numberOfBytes": "20"
					},
					"t_bool": {
						"encoding": "inplace",
						"label": "bool",
						"numberOfBytes": "1"
					},
					"t_mapping(t_address,t_mapping(t_address,t_uint256))": {
						"encoding": "mapping",
						"key": "t_address",
						"label": "mapping(address => mapping(address => uint256))",
						"numberOfBytes": "32",
						"value": "t_mapping(t_address,t_uint256)"
					},
					"t_mapping(t_address,t_uint256)": {
						"encoding": "mapping",
						"key": "t_address",
						"label": "mapping(address => uint256)",
						"numberOfBytes": "32",
						"value": "t_uint256"
					},
					"t_string_storage": {
						"encoding": "bytes",
						"label": "string",
						"numberOfBytes": "32"
					},
					"t_uint256": {
						"encoding": "inplace",
						"label": "uint256",
						"numberOfBytes": "32"
					}
				}
			},
			"userdoc": {
				"kind": "user",
				"methods": {
					"claimFees(uint256)": {
						"notice": "Claims fees accrued from harvests."
					},
					"exchangeRate()": {
						"notice": "Returns the amount of underlying tokens an rvToken can be redeemed for."
					},
					"feePercent()": {
						"notice": "The percentage of profit recognized each harvest to reserve as fees."
					},
					"setFeePercent(uint256)": {
						"notice": "Sets a new fee percentage."
					},
					"setTargetFloatPercent(uint256)": {
						"notice": "Set a new target float percentage."
					},
					"setUnderlyingIsWETH(bool)": {
						"notice": "Sets whether the Vault treats the underlying as WETH."
					},
					"targetFloatPercent()": {
						"notice": "The desired percentage of the Vault's holdings to keep as float."
					},
					"totalStrategyHoldings()": {
						"notice": "The total amount of underlying tokens held in strategies at the time of the last harvest."
					},
					"underlyingIsWETH()": {
						"notice": "Whether the Vault should treat the underlying token as WETH compatible."
					}
				},
				"version": 1
			}
		}
	}
}