{
	"SquiddyCore.sol": {
		"SquiddyCore": {
			"abi": [
				{
					"inputs": [
						{
							"internalType": "contract ERC20",
							"name": "_underlying",
							"type": "address"
						},
						{
							"internalType": "string",
							"name": "_name",
							"type": "string"
						},
						{
							"internalType": "string",
							"name": "_symbol",
							"type": "string"
						},
						{
							"internalType": "uint8",
							"name": "_decimals",
							"type": "uint8"
						}
					],
					"stateMutability": "nonpayable",
					"type": "constructor"
				},
				{
					"anonymous": false,
					"inputs": [
						{
							"indexed": true,
							"internalType": "address",
							"name": "owner",
							"type": "address"
						},
						{
							"indexed": true,
							"internalType": "address",
							"name": "spender",
							"type": "address"
						},
						{
							"indexed": false,
							"internalType": "uint256",
							"name": "amount",
							"type": "uint256"
						}
					],
					"name": "Approval",
					"type": "event"
				},
				{
					"anonymous": false,
					"inputs": [
						{
							"indexed": true,
							"internalType": "address",
							"name": "caller",
							"type": "address"
						},
						{
							"indexed": true,
							"internalType": "address",
							"name": "owner",
							"type": "address"
						},
						{
							"indexed": false,
							"internalType": "uint256",
							"name": "assets",
							"type": "uint256"
						},
						{
							"indexed": false,
							"internalType": "uint256",
							"name": "shares",
							"type": "uint256"
						}
					],
					"name": "Deposit",
					"type": "event"
				},
				{
					"anonymous": false,
					"inputs": [
						{
							"indexed": true,
							"internalType": "address",
							"name": "user",
							"type": "address"
						},
						{
							"indexed": false,
							"internalType": "uint256",
							"name": "newFeePercent",
							"type": "uint256"
						}
					],
					"name": "FeePercentUpdated",
					"type": "event"
				},
				{
					"anonymous": false,
					"inputs": [
						{
							"indexed": true,
							"internalType": "address",
							"name": "user",
							"type": "address"
						},
						{
							"indexed": false,
							"internalType": "uint256",
							"name": "rvTokenAmount",
							"type": "uint256"
						}
					],
					"name": "FeesClaimed",
					"type": "event"
				},
				{
					"anonymous": false,
					"inputs": [
						{
							"indexed": true,
							"internalType": "address",
							"name": "vault",
							"type": "address"
						},
						{
							"indexed": false,
							"internalType": "uint256",
							"name": "profitOverLoss",
							"type": "uint256"
						}
					],
					"name": "HarvestStrategyA",
					"type": "event"
				},
				{
					"anonymous": false,
					"inputs": [
						{
							"indexed": true,
							"internalType": "address",
							"name": "vault",
							"type": "address"
						},
						{
							"indexed": false,
							"internalType": "uint256",
							"name": "profitOverLoss",
							"type": "uint256"
						}
					],
					"name": "HarvestStrategyB",
					"type": "event"
				},
				{
					"anonymous": false,
					"inputs": [
						{
							"indexed": true,
							"internalType": "address",
							"name": "previousManager",
							"type": "address"
						},
						{
							"indexed": true,
							"internalType": "address",
							"name": "newManager",
							"type": "address"
						}
					],
					"name": "OwnershipTransferred",
					"type": "event"
				},
				{
					"anonymous": false,
					"inputs": [
						{
							"indexed": true,
							"internalType": "address",
							"name": "searcher",
							"type": "address"
						},
						{
							"indexed": true,
							"internalType": "address",
							"name": "vault",
							"type": "address"
						},
						{
							"indexed": false,
							"internalType": "uint256",
							"name": "value",
							"type": "uint256"
						},
						{
							"indexed": false,
							"internalType": "uint256",
							"name": "duration",
							"type": "uint256"
						}
					],
					"name": "StrategyAInitilized",
					"type": "event"
				},
				{
					"anonymous": false,
					"inputs": [
						{
							"indexed": true,
							"internalType": "address",
							"name": "stakePoolContract",
							"type": "address"
						},
						{
							"indexed": true,
							"internalType": "address",
							"name": "vault",
							"type": "address"
						},
						{
							"indexed": false,
							"internalType": "uint256",
							"name": "value",
							"type": "uint256"
						},
						{
							"indexed": false,
							"internalType": "uint256",
							"name": "duration",
							"type": "uint256"
						}
					],
					"name": "StrategyBInitilized",
					"type": "event"
				},
				{
					"anonymous": false,
					"inputs": [
						{
							"indexed": true,
							"internalType": "address",
							"name": "from",
							"type": "address"
						},
						{
							"indexed": true,
							"internalType": "address",
							"name": "to",
							"type": "address"
						},
						{
							"indexed": false,
							"internalType": "uint256",
							"name": "amount",
							"type": "uint256"
						}
					],
					"name": "Transfer",
					"type": "event"
				},
				{
					"anonymous": false,
					"inputs": [
						{
							"indexed": true,
							"internalType": "address",
							"name": "caller",
							"type": "address"
						},
						{
							"indexed": true,
							"internalType": "address",
							"name": "receiver",
							"type": "address"
						},
						{
							"indexed": true,
							"internalType": "address",
							"name": "owner",
							"type": "address"
						},
						{
							"indexed": false,
							"internalType": "uint256",
							"name": "assets",
							"type": "uint256"
						},
						{
							"indexed": false,
							"internalType": "uint256",
							"name": "shares",
							"type": "uint256"
						}
					],
					"name": "Withdraw",
					"type": "event"
				},
				{
					"inputs": [],
					"name": "DOMAIN_SEPARATOR",
					"outputs": [
						{
							"internalType": "bytes32",
							"name": "",
							"type": "bytes32"
						}
					],
					"stateMutability": "view",
					"type": "function"
				},
				{
					"inputs": [],
					"name": "UNDERLYING",
					"outputs": [
						{
							"internalType": "contract ERC20",
							"name": "",
							"type": "address"
						}
					],
					"stateMutability": "view",
					"type": "function"
				},
				{
					"inputs": [],
					"name": "afterDepositHookCalledCounter",
					"outputs": [
						{
							"internalType": "uint256",
							"name": "",
							"type": "uint256"
						}
					],
					"stateMutability": "view",
					"type": "function"
				},
				{
					"inputs": [
						{
							"internalType": "address",
							"name": "",
							"type": "address"
						},
						{
							"internalType": "address",
							"name": "",
							"type": "address"
						}
					],
					"name": "allowance",
					"outputs": [
						{
							"internalType": "uint256",
							"name": "",
							"type": "uint256"
						}
					],
					"stateMutability": "view",
					"type": "function"
				},
				{
					"inputs": [
						{
							"internalType": "address",
							"name": "spender",
							"type": "address"
						},
						{
							"internalType": "uint256",
							"name": "amount",
							"type": "uint256"
						}
					],
					"name": "approve",
					"outputs": [
						{
							"internalType": "bool",
							"name": "",
							"type": "bool"
						}
					],
					"stateMutability": "nonpayable",
					"type": "function"
				},
				{
					"inputs": [],
					"name": "asset",
					"outputs": [
						{
							"internalType": "contract ERC20",
							"name": "",
							"type": "address"
						}
					],
					"stateMutability": "view",
					"type": "function"
				},
				{
					"inputs": [
						{
							"internalType": "address",
							"name": "",
							"type": "address"
						}
					],
					"name": "balanceOf",
					"outputs": [
						{
							"internalType": "uint256",
							"name": "",
							"type": "uint256"
						}
					],
					"stateMutability": "view",
					"type": "function"
				},
				{
					"inputs": [],
					"name": "beforeWithdrawHookCalledCounter",
					"outputs": [
						{
							"internalType": "uint256",
							"name": "",
							"type": "uint256"
						}
					],
					"stateMutability": "view",
					"type": "function"
				},
				{
					"inputs": [
						{
							"internalType": "uint256",
							"name": "rvTokenAmount",
							"type": "uint256"
						}
					],
					"name": "claimFees",
					"outputs": [],
					"stateMutability": "nonpayable",
					"type": "function"
				},
				{
					"inputs": [
						{
							"internalType": "uint256",
							"name": "shares",
							"type": "uint256"
						}
					],
					"name": "convertToAssets",
					"outputs": [
						{
							"internalType": "uint256",
							"name": "",
							"type": "uint256"
						}
					],
					"stateMutability": "view",
					"type": "function"
				},
				{
					"inputs": [
						{
							"internalType": "uint256",
							"name": "assets",
							"type": "uint256"
						}
					],
					"name": "convertToShares",
					"outputs": [
						{
							"internalType": "uint256",
							"name": "",
							"type": "uint256"
						}
					],
					"stateMutability": "view",
					"type": "function"
				},
				{
					"inputs": [],
					"name": "decimals",
					"outputs": [
						{
							"internalType": "uint8",
							"name": "",
							"type": "uint8"
						}
					],
					"stateMutability": "view",
					"type": "function"
				},
				{
					"inputs": [
						{
							"internalType": "uint256",
							"name": "assets",
							"type": "uint256"
						},
						{
							"internalType": "address",
							"name": "receiver",
							"type": "address"
						}
					],
					"name": "deposit",
					"outputs": [
						{
							"internalType": "uint256",
							"name": "shares",
							"type": "uint256"
						}
					],
					"stateMutability": "nonpayable",
					"type": "function"
				},
				{
					"inputs": [],
					"name": "feePercent",
					"outputs": [
						{
							"internalType": "uint256",
							"name": "",
							"type": "uint256"
						}
					],
					"stateMutability": "view",
					"type": "function"
				},
				{
					"inputs": [],
					"name": "manager",
					"outputs": [
						{
							"internalType": "address",
							"name": "",
							"type": "address"
						}
					],
					"stateMutability": "view",
					"type": "function"
				},
				{
					"inputs": [
						{
							"internalType": "address",
							"name": "",
							"type": "address"
						}
					],
					"name": "maxDeposit",
					"outputs": [
						{
							"internalType": "uint256",
							"name": "",
							"type": "uint256"
						}
					],
					"stateMutability": "view",
					"type": "function"
				},
				{
					"inputs": [
						{
							"internalType": "address",
							"name": "",
							"type": "address"
						}
					],
					"name": "maxMint",
					"outputs": [
						{
							"internalType": "uint256",
							"name": "",
							"type": "uint256"
						}
					],
					"stateMutability": "view",
					"type": "function"
				},
				{
					"inputs": [
						{
							"internalType": "address",
							"name": "owner",
							"type": "address"
						}
					],
					"name": "maxRedeem",
					"outputs": [
						{
							"internalType": "uint256",
							"name": "",
							"type": "uint256"
						}
					],
					"stateMutability": "view",
					"type": "function"
				},
				{
					"inputs": [
						{
							"internalType": "address",
							"name": "owner",
							"type": "address"
						}
					],
					"name": "maxWithdraw",
					"outputs": [
						{
							"internalType": "uint256",
							"name": "",
							"type": "uint256"
						}
					],
					"stateMutability": "view",
					"type": "function"
				},
				{
					"inputs": [
						{
							"internalType": "uint256",
							"name": "shares",
							"type": "uint256"
						},
						{
							"internalType": "address",
							"name": "receiver",
							"type": "address"
						}
					],
					"name": "mint",
					"outputs": [
						{
							"internalType": "uint256",
							"name": "assets",
							"type": "uint256"
						}
					],
					"stateMutability": "nonpayable",
					"type": "function"
				},
				{
					"inputs": [],
					"name": "name",
					"outputs": [
						{
							"internalType": "string",
							"name": "",
							"type": "string"
						}
					],
					"stateMutability": "view",
					"type": "function"
				},
				{
					"inputs": [
						{
							"internalType": "address",
							"name": "",
							"type": "address"
						}
					],
					"name": "nonces",
					"outputs": [
						{
							"internalType": "uint256",
							"name": "",
							"type": "uint256"
						}
					],
					"stateMutability": "view",
					"type": "function"
				},
				{
					"inputs": [
						{
							"internalType": "address",
							"name": "owner",
							"type": "address"
						},
						{
							"internalType": "address",
							"name": "spender",
							"type": "address"
						},
						{
							"internalType": "uint256",
							"name": "value",
							"type": "uint256"
						},
						{
							"internalType": "uint256",
							"name": "deadline",
							"type": "uint256"
						},
						{
							"internalType": "uint8",
							"name": "v",
							"type": "uint8"
						},
						{
							"internalType": "bytes32",
							"name": "r",
							"type": "bytes32"
						},
						{
							"internalType": "bytes32",
							"name": "s",
							"type": "bytes32"
						}
					],
					"name": "permit",
					"outputs": [],
					"stateMutability": "nonpayable",
					"type": "function"
				},
				{
					"inputs": [
						{
							"internalType": "uint256",
							"name": "assets",
							"type": "uint256"
						}
					],
					"name": "previewDeposit",
					"outputs": [
						{
							"internalType": "uint256",
							"name": "",
							"type": "uint256"
						}
					],
					"stateMutability": "view",
					"type": "function"
				},
				{
					"inputs": [
						{
							"internalType": "uint256",
							"name": "shares",
							"type": "uint256"
						}
					],
					"name": "previewMint",
					"outputs": [
						{
							"internalType": "uint256",
							"name": "",
							"type": "uint256"
						}
					],
					"stateMutability": "view",
					"type": "function"
				},
				{
					"inputs": [
						{
							"internalType": "uint256",
							"name": "shares",
							"type": "uint256"
						}
					],
					"name": "previewRedeem",
					"outputs": [
						{
							"internalType": "uint256",
							"name": "",
							"type": "uint256"
						}
					],
					"stateMutability": "view",
					"type": "function"
				},
				{
					"inputs": [
						{
							"internalType": "uint256",
							"name": "assets",
							"type": "uint256"
						}
					],
					"name": "previewWithdraw",
					"outputs": [
						{
							"internalType": "uint256",
							"name": "",
							"type": "uint256"
						}
					],
					"stateMutability": "view",
					"type": "function"
				},
				{
					"inputs": [
						{
							"internalType": "uint256",
							"name": "shares",
							"type": "uint256"
						},
						{
							"internalType": "address",
							"name": "receiver",
							"type": "address"
						},
						{
							"internalType": "address",
							"name": "owner",
							"type": "address"
						}
					],
					"name": "redeem",
					"outputs": [
						{
							"internalType": "uint256",
							"name": "assets",
							"type": "uint256"
						}
					],
					"stateMutability": "nonpayable",
					"type": "function"
				},
				{
					"inputs": [],
					"name": "renounceOwnership",
					"outputs": [],
					"stateMutability": "nonpayable",
					"type": "function"
				},
				{
					"inputs": [
						{
							"internalType": "uint256",
							"name": "newFeePercent",
							"type": "uint256"
						}
					],
					"name": "setFeePercent",
					"outputs": [],
					"stateMutability": "nonpayable",
					"type": "function"
				},
				{
					"inputs": [],
					"name": "symbol",
					"outputs": [
						{
							"internalType": "string",
							"name": "",
							"type": "string"
						}
					],
					"stateMutability": "view",
					"type": "function"
				},
				{
					"inputs": [],
					"name": "totalAssets",
					"outputs": [
						{
							"internalType": "uint256",
							"name": "",
							"type": "uint256"
						}
					],
					"stateMutability": "view",
					"type": "function"
				},
				{
					"inputs": [],
					"name": "totalSupply",
					"outputs": [
						{
							"internalType": "uint256",
							"name": "",
							"type": "uint256"
						}
					],
					"stateMutability": "view",
					"type": "function"
				},
				{
					"inputs": [
						{
							"internalType": "address",
							"name": "to",
							"type": "address"
						},
						{
							"internalType": "uint256",
							"name": "amount",
							"type": "uint256"
						}
					],
					"name": "transfer",
					"outputs": [
						{
							"internalType": "bool",
							"name": "",
							"type": "bool"
						}
					],
					"stateMutability": "nonpayable",
					"type": "function"
				},
				{
					"inputs": [
						{
							"internalType": "address",
							"name": "from",
							"type": "address"
						},
						{
							"internalType": "address",
							"name": "to",
							"type": "address"
						},
						{
							"internalType": "uint256",
							"name": "amount",
							"type": "uint256"
						}
					],
					"name": "transferFrom",
					"outputs": [
						{
							"internalType": "bool",
							"name": "",
							"type": "bool"
						}
					],
					"stateMutability": "nonpayable",
					"type": "function"
				},
				{
					"inputs": [
						{
							"internalType": "address",
							"name": "newOwner",
							"type": "address"
						}
					],
					"name": "transferOwnership",
					"outputs": [],
					"stateMutability": "nonpayable",
					"type": "function"
				},
				{
					"inputs": [
						{
							"internalType": "uint256",
							"name": "assets",
							"type": "uint256"
						},
						{
							"internalType": "address",
							"name": "receiver",
							"type": "address"
						},
						{
							"internalType": "address",
							"name": "owner",
							"type": "address"
						}
					],
					"name": "withdraw",
					"outputs": [
						{
							"internalType": "uint256",
							"name": "shares",
							"type": "uint256"
						}
					],
					"stateMutability": "nonpayable",
					"type": "function"
				}
			],
			"devdoc": {
				"events": {
					"FeePercentUpdated(address,uint256)": {
						"params": {
							"newFeePercent": "The new fee percentage.",
							"user": "The authorized user who triggered the update."
						}
					},
					"FeesClaimed(address,uint256)": {
						"params": {
							"rvTokenAmount": "The amount of rvTokens that were claimed.",
							"user": "The authorized user who claimed the fees."
						}
					}
				},
				"kind": "dev",
				"methods": {
					"claimFees(uint256)": {
						"details": "Accrued fees are measured as rvTokens held by the Vault.",
						"params": {
							"rvTokenAmount": "The amount of rvTokens to claim."
						}
					},
					"renounceOwnership()": {
						"details": "Leaves the contract without manager. It will not be possible to call `onlyManager` functions anymore. Can only be called by the current manager. NOTE: Renouncing ownership will leave the contract without an manager, thereby removing any functionality that is only available to the manager."
					},
					"setFeePercent(uint256)": {
						"params": {
							"newFeePercent": "The new fee percentage."
						}
					},
					"transferOwnership(address)": {
						"details": "Transfers ownership of the contract to a new account (`newOwner`). Can only be called by the current manager."
					}
				},
				"stateVariables": {
					"feePercent": {
						"details": "A fixed point number where 1e18 represents 100% and 0 represents 0%."
					}
				},
				"version": 1
			},
			"evm": {
				"assembly": "    /* \"SquiddyCore.sol\":143:5339  contract SquiddyCore is ERC4626 {... */\n  mstore(0x40, 0x0140)\n    /* \"SquiddyCore.sol\":266:267  0 */\n  0x00\n    /* \"SquiddyCore.sol\":217:267  uint256 public beforeWithdrawHookCalledCounter = 0 */\n  0x07\n  sstore\n    /* \"SquiddyCore.sol\":320:321  0 */\n  0x00\n    /* \"SquiddyCore.sol\":273:321  uint256 public afterDepositHookCalledCounter = 0 */\n  0x08\n  sstore\n    /* \"SquiddyCore.sol\":1553:1940  constructor(... */\n  callvalue\n  dup1\n  iszero\n  tag_1\n  jumpi\n  0x00\n  dup1\n  revert\ntag_1:\n  pop\n  mload(0x40)\n  sub(codesize, bytecodeSize)\n  dup1\n  bytecodeSize\n  dup4\n  codecopy\n  dup2\n  dup2\n  add\n  0x40\n  mstore\n  dup2\n  add\n  swap1\n  tag_2\n  swap2\n  swap1\n  tag_3\n  jump\t// in\ntag_2:\n    /* \"SquiddyCore.sol\":1691:1702  _underlying */\n  dup4\n    /* \"SquiddyCore.sol\":1704:1709  _name */\n  dup4\n    /* \"SquiddyCore.sol\":1711:1718  _symbol */\n  dup4\n    /* \"SquiddyCore.sol\":1720:1729  _decimals */\n  dup4\n    /* \"ERC4626.sol\":1331:1336  _name */\n  dup3\n    /* \"ERC4626.sol\":1338:1345  _symbol */\n  dup3\n    /* \"ERC4626.sol\":1347:1356  _decimals */\n  dup3\n    /* \"ERC20.sol\":2131:2136  _name */\n  dup3\n    /* \"ERC20.sol\":2124:2128  name */\n  0x00\n    /* \"ERC20.sol\":2124:2136  name = _name */\n  swap1\n  dup1\n  mload\n  swap1\n  0x20\n  add\n  swap1\n  tag_8\n  swap3\n  swap2\n  swap1\n  tag_9\n  jump\t// in\ntag_8:\n  pop\n    /* \"ERC20.sol\":2155:2162  _symbol */\n  dup2\n    /* \"ERC20.sol\":2146:2152  symbol */\n  0x01\n    /* \"ERC20.sol\":2146:2162  symbol = _symbol */\n  swap1\n  dup1\n  mload\n  swap1\n  0x20\n  add\n  swap1\n  tag_10\n  swap3\n  swap2\n  swap1\n  tag_9\n  jump\t// in\ntag_10:\n  pop\n    /* \"ERC20.sol\":2183:2192  _decimals */\n  dup1\n    /* \"ERC20.sol\":2172:2192  decimals = _decimals */\n  0xff\n  and\n  0x80\n  dup2\n  0xff\n  and\n  dup2\n  mstore\n  pop\n  pop\n    /* \"ERC20.sol\":2222:2235  block.chainid */\n  chainid\n    /* \"ERC20.sol\":2203:2235  INITIAL_CHAIN_ID = block.chainid */\n  0xa0\n  dup2\n  dup2\n  mstore\n  pop\n  pop\n    /* \"ERC20.sol\":2272:2296  computeDomainSeparator() */\n  tag_11\n    /* \"ERC20.sol\":2272:2294  computeDomainSeparator */\n  shl(0x20, tag_12)\n    /* \"ERC20.sol\":2272:2296  computeDomainSeparator() */\n  0x20\n  shr\n  jump\t// in\ntag_11:\n    /* \"ERC20.sol\":2245:2296  INITIAL_DOMAIN_SEPARATOR = computeDomainSeparator() */\n  0xc0\n  dup2\n  dup2\n  mstore\n  pop\n  pop\n    /* \"ERC20.sol\":2011:2303  constructor(... */\n  pop\n  pop\n  pop\n    /* \"ERC4626.sol\":1376:1382  _asset */\n  dup4\n    /* \"ERC4626.sol\":1368:1382  asset = _asset */\n  0xffffffffffffffffffffffffffffffffffffffff\n  and\n  0xe0\n  dup2\n  0xffffffffffffffffffffffffffffffffffffffff\n  and\n  dup2\n  mstore\n  pop\n  pop\n    /* \"ERC4626.sol\":1200:1389  constructor(... */\n  pop\n  pop\n  pop\n  pop\n    /* \"SquiddyCore.sol\":1754:1765  _underlying */\n  dup4\n    /* \"SquiddyCore.sol\":1741:1765  UNDERLYING = _underlying */\n  0xffffffffffffffffffffffffffffffffffffffff\n  and\n  0x0120\n  dup2\n  0xffffffffffffffffffffffffffffffffffffffff\n  and\n  dup2\n  mstore\n  pop\n  pop\n    /* \"SquiddyCore.sol\":1792:1800  decimals */\n  mload(0x80)\n    /* \"SquiddyCore.sol\":1788:1790  10 */\n  0x0a\n    /* \"SquiddyCore.sol\":1788:1800  10**decimals */\n  tag_15\n  swap2\n  swap1\n  tag_16\n  jump\t// in\ntag_15:\n    /* \"SquiddyCore.sol\":1776:1800  BASE_UNIT = 10**decimals */\n  0x0100\n  dup2\n  dup2\n  mstore\n  pop\n  pop\n    /* \"SquiddyCore.sol\":1916:1933  type(uint256).max */\n  0xffffffffffffffffffffffffffffffffffffffffffffffffffffffffffffffff\n    /* \"SquiddyCore.sol\":1902:1913  totalSupply */\n  0x02\n    /* \"SquiddyCore.sol\":1902:1933  totalSupply = type(uint256).max */\n  dup2\n  swap1\n  sstore\n  pop\n    /* \"SquiddyCore.sol\":1553:1940  constructor(... */\n  pop\n  pop\n  pop\n  pop\n    /* \"SquiddyCore.sol\":143:5339  contract SquiddyCore is ERC4626 {... */\n  jump(tag_17)\n    /* \"ERC20.sol\":5698:6190  function computeDomainSeparator() internal view virtual returns (bytes32) {... */\ntag_12:\n    /* \"ERC20.sol\":5763:5770  bytes32 */\n  0x00\n    /* \"ERC20.sol\":5860:6001  keccak256(... */\n  0x8b73c3c69bb8fe3d512ecc4cf759cc79239f7b179b0ffacaa9a75d522b39400f\n    /* \"ERC20.sol\":6039:6043  name */\n  0x00\n    /* \"ERC20.sol\":6023:6045  keccak256(bytes(name)) */\n  mload(0x40)\n  tag_19\n  swap2\n  swap1\n  tag_20\n  jump\t// in\ntag_19:\n  mload(0x40)\n  dup1\n  swap2\n  sub\n  swap1\n  keccak256\n    /* \"ERC20.sol\":6067:6081  keccak256(\"1\") */\n  0xc89efdaa54c0f20c7adf612882df0950f5a951637e0307cdcb4c672f298b8bc6\n    /* \"ERC20.sol\":6103:6116  block.chainid */\n  chainid\n    /* \"ERC20.sol\":6146:6150  this */\n  address\n    /* \"ERC20.sol\":5828:6169  abi.encode(... */\n  add(0x20, mload(0x40))\n  tag_21\n  swap6\n  swap5\n  swap4\n  swap3\n  swap2\n  swap1\n  tag_22\n  jump\t// in\ntag_21:\n  mload(0x40)\n  0x20\n  dup2\n  dup4\n  sub\n  sub\n  dup2\n  mstore\n  swap1\n  0x40\n  mstore\n    /* \"ERC20.sol\":5801:6183  keccak256(... */\n  dup1\n  mload\n  swap1\n  0x20\n  add\n  keccak256\n    /* \"ERC20.sol\":5782:6183  return... */\n  swap1\n  pop\n    /* \"ERC20.sol\":5698:6190  function computeDomainSeparator() internal view virtual returns (bytes32) {... */\n  swap1\n  jump\t// out\n    /* \"SquiddyCore.sol\":143:5339  contract SquiddyCore is ERC4626 {... */\ntag_9:\n  dup3\n  dup1\n  sload\n  tag_23\n  swap1\n  tag_24\n  jump\t// in\ntag_23:\n  swap1\n  0x00\n  mstore\n  keccak256(0x00, 0x20)\n  swap1\n  0x1f\n  add\n  0x20\n  swap1\n  div\n  dup2\n  add\n  swap3\n  dup3\n  tag_26\n  jumpi\n  0x00\n  dup6\n  sstore\n  jump(tag_25)\ntag_26:\n  dup3\n  0x1f\n  lt\n  tag_27\n  jumpi\n  dup1\n  mload\n  not(0xff)\n  and\n  dup4\n  dup1\n  add\n  or\n  dup6\n  sstore\n  jump(tag_25)\ntag_27:\n  dup3\n  dup1\n  add\n  0x01\n  add\n  dup6\n  sstore\n  dup3\n  iszero\n  tag_25\n  jumpi\n  swap2\n  dup3\n  add\ntag_28:\n  dup3\n  dup2\n  gt\n  iszero\n  tag_29\n  jumpi\n  dup3\n  mload\n  dup3\n  sstore\n  swap2\n  0x20\n  add\n  swap2\n  swap1\n  0x01\n  add\n  swap1\n  jump(tag_28)\ntag_29:\ntag_25:\n  pop\n  swap1\n  pop\n  tag_30\n  swap2\n  swap1\n  tag_31\n  jump\t// in\ntag_30:\n  pop\n  swap1\n  jump\t// out\ntag_31:\ntag_32:\n  dup1\n  dup3\n  gt\n  iszero\n  tag_33\n  jumpi\n  0x00\n  dup2\n  0x00\n  swap1\n  sstore\n  pop\n  0x01\n  add\n  jump(tag_32)\ntag_33:\n  pop\n  swap1\n  jump\t// out\n    /* \"#utility.yul\":7:82   */\ntag_34:\n    /* \"#utility.yul\":40:46   */\n  0x00\n    /* \"#utility.yul\":73:75   */\n  0x40\n    /* \"#utility.yul\":67:76   */\n  mload\n    /* \"#utility.yul\":57:76   */\n  swap1\n  pop\n    /* \"#utility.yul\":7:82   */\n  swap1\n  jump\t// out\n    /* \"#utility.yul\":88:205   */\ntag_35:\n    /* \"#utility.yul\":197:198   */\n  0x00\n    /* \"#utility.yul\":194:195   */\n  dup1\n    /* \"#utility.yul\":187:199   */\n  revert\n    /* \"#utility.yul\":211:328   */\ntag_36:\n    /* \"#utility.yul\":320:321   */\n  0x00\n    /* \"#utility.yul\":317:318   */\n  dup1\n    /* \"#utility.yul\":310:322   */\n  revert\n    /* \"#utility.yul\":334:460   */\ntag_37:\n    /* \"#utility.yul\":371:378   */\n  0x00\n    /* \"#utility.yul\":411:453   */\n  0xffffffffffffffffffffffffffffffffffffffff\n    /* \"#utility.yul\":404:409   */\n  dup3\n    /* \"#utility.yul\":400:454   */\n  and\n    /* \"#utility.yul\":389:454   */\n  swap1\n  pop\n    /* \"#utility.yul\":334:460   */\n  swap2\n  swap1\n  pop\n  jump\t// out\n    /* \"#utility.yul\":466:562   */\ntag_38:\n    /* \"#utility.yul\":503:510   */\n  0x00\n    /* \"#utility.yul\":532:556   */\n  tag_74\n    /* \"#utility.yul\":550:555   */\n  dup3\n    /* \"#utility.yul\":532:556   */\n  tag_37\n  jump\t// in\ntag_74:\n    /* \"#utility.yul\":521:556   */\n  swap1\n  pop\n    /* \"#utility.yul\":466:562   */\n  swap2\n  swap1\n  pop\n  jump\t// out\n    /* \"#utility.yul\":568:677   */\ntag_39:\n    /* \"#utility.yul\":618:625   */\n  0x00\n    /* \"#utility.yul\":647:671   */\n  tag_76\n    /* \"#utility.yul\":665:670   */\n  dup3\n    /* \"#utility.yul\":647:671   */\n  tag_38\n  jump\t// in\ntag_76:\n    /* \"#utility.yul\":636:671   */\n  swap1\n  pop\n    /* \"#utility.yul\":568:677   */\n  swap2\n  swap1\n  pop\n  jump\t// out\n    /* \"#utility.yul\":683:831   */\ntag_40:\n    /* \"#utility.yul\":769:806   */\n  tag_78\n    /* \"#utility.yul\":800:805   */\n  dup2\n    /* \"#utility.yul\":769:806   */\n  tag_39\n  jump\t// in\ntag_78:\n    /* \"#utility.yul\":762:767   */\n  dup2\n    /* \"#utility.yul\":759:807   */\n  eq\n    /* \"#utility.yul\":749:825   */\n  tag_79\n  jumpi\n    /* \"#utility.yul\":821:822   */\n  0x00\n    /* \"#utility.yul\":818:819   */\n  dup1\n    /* \"#utility.yul\":811:823   */\n  revert\n    /* \"#utility.yul\":749:825   */\ntag_79:\n    /* \"#utility.yul\":683:831   */\n  pop\n  jump\t// out\n    /* \"#utility.yul\":837:1006   */\ntag_41:\n    /* \"#utility.yul\":907:912   */\n  0x00\n    /* \"#utility.yul\":938:944   */\n  dup2\n    /* \"#utility.yul\":932:945   */\n  mload\n    /* \"#utility.yul\":923:945   */\n  swap1\n  pop\n    /* \"#utility.yul\":954:1000   */\n  tag_81\n    /* \"#utility.yul\":994:999   */\n  dup2\n    /* \"#utility.yul\":954:1000   */\n  tag_40\n  jump\t// in\ntag_81:\n    /* \"#utility.yul\":837:1006   */\n  swap3\n  swap2\n  pop\n  pop\n  jump\t// out\n    /* \"#utility.yul\":1012:1129   */\ntag_42:\n    /* \"#utility.yul\":1121:1122   */\n  0x00\n    /* \"#utility.yul\":1118:1119   */\n  dup1\n    /* \"#utility.yul\":1111:1123   */\n  revert\n    /* \"#utility.yul\":1135:1252   */\ntag_43:\n    /* \"#utility.yul\":1244:1245   */\n  0x00\n    /* \"#utility.yul\":1241:1242   */\n  dup1\n    /* \"#utility.yul\":1234:1246   */\n  revert\n    /* \"#utility.yul\":1258:1360   */\ntag_44:\n    /* \"#utility.yul\":1299:1305   */\n  0x00\n    /* \"#utility.yul\":1350:1352   */\n  0x1f\n    /* \"#utility.yul\":1346:1353   */\n  not\n    /* \"#utility.yul\":1341:1343   */\n  0x1f\n    /* \"#utility.yul\":1334:1339   */\n  dup4\n    /* \"#utility.yul\":1330:1344   */\n  add\n    /* \"#utility.yul\":1326:1354   */\n  and\n    /* \"#utility.yul\":1316:1354   */\n  swap1\n  pop\n    /* \"#utility.yul\":1258:1360   */\n  swap2\n  swap1\n  pop\n  jump\t// out\n    /* \"#utility.yul\":1366:1546   */\ntag_45:\n    /* \"#utility.yul\":1414:1491   */\n  0x4e487b7100000000000000000000000000000000000000000000000000000000\n    /* \"#utility.yul\":1411:1412   */\n  0x00\n    /* \"#utility.yul\":1404:1492   */\n  mstore\n    /* \"#utility.yul\":1511:1515   */\n  0x41\n    /* \"#utility.yul\":1508:1509   */\n  0x04\n    /* \"#utility.yul\":1501:1516   */\n  mstore\n    /* \"#utility.yul\":1535:1539   */\n  0x24\n    /* \"#utility.yul\":1532:1533   */\n  0x00\n    /* \"#utility.yul\":1525:1540   */\n  revert\n    /* \"#utility.yul\":1552:1833   */\ntag_46:\n    /* \"#utility.yul\":1635:1662   */\n  tag_87\n    /* \"#utility.yul\":1657:1661   */\n  dup3\n    /* \"#utility.yul\":1635:1662   */\n  tag_44\n  jump\t// in\ntag_87:\n    /* \"#utility.yul\":1627:1633   */\n  dup2\n    /* \"#utility.yul\":1623:1663   */\n  add\n    /* \"#utility.yul\":1765:1771   */\n  dup2\n    /* \"#utility.yul\":1753:1763   */\n  dup2\n    /* \"#utility.yul\":1750:1772   */\n  lt\n    /* \"#utility.yul\":1729:1747   */\n  0xffffffffffffffff\n    /* \"#utility.yul\":1717:1727   */\n  dup3\n    /* \"#utility.yul\":1714:1748   */\n  gt\n    /* \"#utility.yul\":1711:1773   */\n  or\n    /* \"#utility.yul\":1708:1796   */\n  iszero\n  tag_88\n  jumpi\n    /* \"#utility.yul\":1776:1794   */\n  tag_89\n  tag_45\n  jump\t// in\ntag_89:\n    /* \"#utility.yul\":1708:1796   */\ntag_88:\n    /* \"#utility.yul\":1816:1826   */\n  dup1\n    /* \"#utility.yul\":1812:1814   */\n  0x40\n    /* \"#utility.yul\":1805:1827   */\n  mstore\n    /* \"#utility.yul\":1595:1833   */\n  pop\n    /* \"#utility.yul\":1552:1833   */\n  pop\n  pop\n  jump\t// out\n    /* \"#utility.yul\":1839:1968   */\ntag_47:\n    /* \"#utility.yul\":1873:1879   */\n  0x00\n    /* \"#utility.yul\":1900:1920   */\n  tag_91\n  tag_34\n  jump\t// in\ntag_91:\n    /* \"#utility.yul\":1890:1920   */\n  swap1\n  pop\n    /* \"#utility.yul\":1929:1962   */\n  tag_92\n    /* \"#utility.yul\":1957:1961   */\n  dup3\n    /* \"#utility.yul\":1949:1955   */\n  dup3\n    /* \"#utility.yul\":1929:1962   */\n  tag_46\n  jump\t// in\ntag_92:\n    /* \"#utility.yul\":1839:1968   */\n  swap2\n  swap1\n  pop\n  jump\t// out\n    /* \"#utility.yul\":1974:2282   */\ntag_48:\n    /* \"#utility.yul\":2036:2040   */\n  0x00\n    /* \"#utility.yul\":2126:2144   */\n  0xffffffffffffffff\n    /* \"#utility.yul\":2118:2124   */\n  dup3\n    /* \"#utility.yul\":2115:2145   */\n  gt\n    /* \"#utility.yul\":2112:2168   */\n  iszero\n  tag_94\n  jumpi\n    /* \"#utility.yul\":2148:2166   */\n  tag_95\n  tag_45\n  jump\t// in\ntag_95:\n    /* \"#utility.yul\":2112:2168   */\ntag_94:\n    /* \"#utility.yul\":2186:2215   */\n  tag_96\n    /* \"#utility.yul\":2208:2214   */\n  dup3\n    /* \"#utility.yul\":2186:2215   */\n  tag_44\n  jump\t// in\ntag_96:\n    /* \"#utility.yul\":2178:2215   */\n  swap1\n  pop\n    /* \"#utility.yul\":2270:2274   */\n  0x20\n    /* \"#utility.yul\":2264:2268   */\n  dup2\n    /* \"#utility.yul\":2260:2275   */\n  add\n    /* \"#utility.yul\":2252:2275   */\n  swap1\n  pop\n    /* \"#utility.yul\":1974:2282   */\n  swap2\n  swap1\n  pop\n  jump\t// out\n    /* \"#utility.yul\":2288:2595   */\ntag_49:\n    /* \"#utility.yul\":2356:2357   */\n  0x00\n    /* \"#utility.yul\":2366:2479   */\ntag_98:\n    /* \"#utility.yul\":2380:2386   */\n  dup4\n    /* \"#utility.yul\":2377:2378   */\n  dup2\n    /* \"#utility.yul\":2374:2387   */\n  lt\n    /* \"#utility.yul\":2366:2479   */\n  iszero\n  tag_100\n  jumpi\n    /* \"#utility.yul\":2465:2466   */\n  dup1\n    /* \"#utility.yul\":2460:2463   */\n  dup3\n    /* \"#utility.yul\":2456:2467   */\n  add\n    /* \"#utility.yul\":2450:2468   */\n  mload\n    /* \"#utility.yul\":2446:2447   */\n  dup2\n    /* \"#utility.yul\":2441:2444   */\n  dup5\n    /* \"#utility.yul\":2437:2448   */\n  add\n    /* \"#utility.yul\":2430:2469   */\n  mstore\n    /* \"#utility.yul\":2402:2404   */\n  0x20\n    /* \"#utility.yul\":2399:2400   */\n  dup2\n    /* \"#utility.yul\":2395:2405   */\n  add\n    /* \"#utility.yul\":2390:2405   */\n  swap1\n  pop\n    /* \"#utility.yul\":2366:2479   */\n  jump(tag_98)\ntag_100:\n    /* \"#utility.yul\":2497:2503   */\n  dup4\n    /* \"#utility.yul\":2494:2495   */\n  dup2\n    /* \"#utility.yul\":2491:2504   */\n  gt\n    /* \"#utility.yul\":2488:2589   */\n  iszero\n  tag_101\n  jumpi\n    /* \"#utility.yul\":2577:2578   */\n  0x00\n    /* \"#utility.yul\":2568:2574   */\n  dup5\n    /* \"#utility.yul\":2563:2566   */\n  dup5\n    /* \"#utility.yul\":2559:2575   */\n  add\n    /* \"#utility.yul\":2552:2579   */\n  mstore\n    /* \"#utility.yul\":2488:2589   */\ntag_101:\n    /* \"#utility.yul\":2337:2595   */\n  pop\n    /* \"#utility.yul\":2288:2595   */\n  pop\n  pop\n  pop\n  jump\t// out\n    /* \"#utility.yul\":2601:3022   */\ntag_50:\n    /* \"#utility.yul\":2690:2695   */\n  0x00\n    /* \"#utility.yul\":2715:2781   */\n  tag_103\n    /* \"#utility.yul\":2731:2780   */\n  tag_104\n    /* \"#utility.yul\":2773:2779   */\n  dup5\n    /* \"#utility.yul\":2731:2780   */\n  tag_48\n  jump\t// in\ntag_104:\n    /* \"#utility.yul\":2715:2781   */\n  tag_47\n  jump\t// in\ntag_103:\n    /* \"#utility.yul\":2706:2781   */\n  swap1\n  pop\n    /* \"#utility.yul\":2804:2810   */\n  dup3\n    /* \"#utility.yul\":2797:2802   */\n  dup2\n    /* \"#utility.yul\":2790:2811   */\n  mstore\n    /* \"#utility.yul\":2842:2846   */\n  0x20\n    /* \"#utility.yul\":2835:2840   */\n  dup2\n    /* \"#utility.yul\":2831:2847   */\n  add\n    /* \"#utility.yul\":2880:2883   */\n  dup5\n    /* \"#utility.yul\":2871:2877   */\n  dup5\n    /* \"#utility.yul\":2866:2869   */\n  dup5\n    /* \"#utility.yul\":2862:2878   */\n  add\n    /* \"#utility.yul\":2859:2884   */\n  gt\n    /* \"#utility.yul\":2856:2968   */\n  iszero\n  tag_105\n  jumpi\n    /* \"#utility.yul\":2887:2966   */\n  tag_106\n  tag_43\n  jump\t// in\ntag_106:\n    /* \"#utility.yul\":2856:2968   */\ntag_105:\n    /* \"#utility.yul\":2977:3016   */\n  tag_107\n    /* \"#utility.yul\":3009:3015   */\n  dup5\n    /* \"#utility.yul\":3004:3007   */\n  dup3\n    /* \"#utility.yul\":2999:3002   */\n  dup6\n    /* \"#utility.yul\":2977:3016   */\n  tag_49\n  jump\t// in\ntag_107:\n    /* \"#utility.yul\":2696:3022   */\n  pop\n    /* \"#utility.yul\":2601:3022   */\n  swap4\n  swap3\n  pop\n  pop\n  pop\n  jump\t// out\n    /* \"#utility.yul\":3042:3397   */\ntag_51:\n    /* \"#utility.yul\":3109:3114   */\n  0x00\n    /* \"#utility.yul\":3158:3161   */\n  dup3\n    /* \"#utility.yul\":3151:3155   */\n  0x1f\n    /* \"#utility.yul\":3143:3149   */\n  dup4\n    /* \"#utility.yul\":3139:3156   */\n  add\n    /* \"#utility.yul\":3135:3162   */\n  slt\n    /* \"#utility.yul\":3125:3247   */\n  tag_109\n  jumpi\n    /* \"#utility.yul\":3166:3245   */\n  tag_110\n  tag_42\n  jump\t// in\ntag_110:\n    /* \"#utility.yul\":3125:3247   */\ntag_109:\n    /* \"#utility.yul\":3276:3282   */\n  dup2\n    /* \"#utility.yul\":3270:3283   */\n  mload\n    /* \"#utility.yul\":3301:3391   */\n  tag_111\n    /* \"#utility.yul\":3387:3390   */\n  dup5\n    /* \"#utility.yul\":3379:3385   */\n  dup3\n    /* \"#utility.yul\":3372:3376   */\n  0x20\n    /* \"#utility.yul\":3364:3370   */\n  dup7\n    /* \"#utility.yul\":3360:3377   */\n  add\n    /* \"#utility.yul\":3301:3391   */\n  tag_50\n  jump\t// in\ntag_111:\n    /* \"#utility.yul\":3292:3391   */\n  swap2\n  pop\n    /* \"#utility.yul\":3115:3397   */\n  pop\n    /* \"#utility.yul\":3042:3397   */\n  swap3\n  swap2\n  pop\n  pop\n  jump\t// out\n    /* \"#utility.yul\":3403:3489   */\ntag_52:\n    /* \"#utility.yul\":3438:3445   */\n  0x00\n    /* \"#utility.yul\":3478:3482   */\n  0xff\n    /* \"#utility.yul\":3471:3476   */\n  dup3\n    /* \"#utility.yul\":3467:3483   */\n  and\n    /* \"#utility.yul\":3456:3483   */\n  swap1\n  pop\n    /* \"#utility.yul\":3403:3489   */\n  swap2\n  swap1\n  pop\n  jump\t// out\n    /* \"#utility.yul\":3495:3613   */\ntag_53:\n    /* \"#utility.yul\":3566:3588   */\n  tag_114\n    /* \"#utility.yul\":3582:3587   */\n  dup2\n    /* \"#utility.yul\":3566:3588   */\n  tag_52\n  jump\t// in\ntag_114:\n    /* \"#utility.yul\":3559:3564   */\n  dup2\n    /* \"#utility.yul\":3556:3589   */\n  eq\n    /* \"#utility.yul\":3546:3607   */\n  tag_115\n  jumpi\n    /* \"#utility.yul\":3603:3604   */\n  0x00\n    /* \"#utility.yul\":3600:3601   */\n  dup1\n    /* \"#utility.yul\":3593:3605   */\n  revert\n    /* \"#utility.yul\":3546:3607   */\ntag_115:\n    /* \"#utility.yul\":3495:3613   */\n  pop\n  jump\t// out\n    /* \"#utility.yul\":3619:3758   */\ntag_54:\n    /* \"#utility.yul\":3674:3679   */\n  0x00\n    /* \"#utility.yul\":3705:3711   */\n  dup2\n    /* \"#utility.yul\":3699:3712   */\n  mload\n    /* \"#utility.yul\":3690:3712   */\n  swap1\n  pop\n    /* \"#utility.yul\":3721:3752   */\n  tag_117\n    /* \"#utility.yul\":3746:3751   */\n  dup2\n    /* \"#utility.yul\":3721:3752   */\n  tag_53\n  jump\t// in\ntag_117:\n    /* \"#utility.yul\":3619:3758   */\n  swap3\n  swap2\n  pop\n  pop\n  jump\t// out\n    /* \"#utility.yul\":3764:4952   */\ntag_3:\n    /* \"#utility.yul\":3892:3898   */\n  0x00\n    /* \"#utility.yul\":3900:3906   */\n  dup1\n    /* \"#utility.yul\":3908:3914   */\n  0x00\n    /* \"#utility.yul\":3916:3922   */\n  dup1\n    /* \"#utility.yul\":3965:3968   */\n  0x80\n    /* \"#utility.yul\":3953:3962   */\n  dup6\n    /* \"#utility.yul\":3944:3951   */\n  dup8\n    /* \"#utility.yul\":3940:3963   */\n  sub\n    /* \"#utility.yul\":3936:3969   */\n  slt\n    /* \"#utility.yul\":3933:4053   */\n  iszero\n  tag_119\n  jumpi\n    /* \"#utility.yul\":3972:4051   */\n  tag_120\n  tag_35\n  jump\t// in\ntag_120:\n    /* \"#utility.yul\":3933:4053   */\ntag_119:\n    /* \"#utility.yul\":4092:4093   */\n  0x00\n    /* \"#utility.yul\":4117:4194   */\n  tag_121\n    /* \"#utility.yul\":4186:4193   */\n  dup8\n    /* \"#utility.yul\":4177:4183   */\n  dup3\n    /* \"#utility.yul\":4166:4175   */\n  dup9\n    /* \"#utility.yul\":4162:4184   */\n  add\n    /* \"#utility.yul\":4117:4194   */\n  tag_41\n  jump\t// in\ntag_121:\n    /* \"#utility.yul\":4107:4194   */\n  swap5\n  pop\n    /* \"#utility.yul\":4063:4204   */\n  pop\n    /* \"#utility.yul\":4264:4266   */\n  0x20\n    /* \"#utility.yul\":4253:4262   */\n  dup6\n    /* \"#utility.yul\":4249:4267   */\n  add\n    /* \"#utility.yul\":4243:4268   */\n  mload\n    /* \"#utility.yul\":4295:4313   */\n  0xffffffffffffffff\n    /* \"#utility.yul\":4287:4293   */\n  dup2\n    /* \"#utility.yul\":4284:4314   */\n  gt\n    /* \"#utility.yul\":4281:4398   */\n  iszero\n  tag_122\n  jumpi\n    /* \"#utility.yul\":4317:4396   */\n  tag_123\n  tag_36\n  jump\t// in\ntag_123:\n    /* \"#utility.yul\":4281:4398   */\ntag_122:\n    /* \"#utility.yul\":4422:4496   */\n  tag_124\n    /* \"#utility.yul\":4488:4495   */\n  dup8\n    /* \"#utility.yul\":4479:4485   */\n  dup3\n    /* \"#utility.yul\":4468:4477   */\n  dup9\n    /* \"#utility.yul\":4464:4486   */\n  add\n    /* \"#utility.yul\":4422:4496   */\n  tag_51\n  jump\t// in\ntag_124:\n    /* \"#utility.yul\":4412:4496   */\n  swap4\n  pop\n    /* \"#utility.yul\":4214:4506   */\n  pop\n    /* \"#utility.yul\":4566:4568   */\n  0x40\n    /* \"#utility.yul\":4555:4564   */\n  dup6\n    /* \"#utility.yul\":4551:4569   */\n  add\n    /* \"#utility.yul\":4545:4570   */\n  mload\n    /* \"#utility.yul\":4597:4615   */\n  0xffffffffffffffff\n    /* \"#utility.yul\":4589:4595   */\n  dup2\n    /* \"#utility.yul\":4586:4616   */\n  gt\n    /* \"#utility.yul\":4583:4700   */\n  iszero\n  tag_125\n  jumpi\n    /* \"#utility.yul\":4619:4698   */\n  tag_126\n  tag_36\n  jump\t// in\ntag_126:\n    /* \"#utility.yul\":4583:4700   */\ntag_125:\n    /* \"#utility.yul\":4724:4798   */\n  tag_127\n    /* \"#utility.yul\":4790:4797   */\n  dup8\n    /* \"#utility.yul\":4781:4787   */\n  dup3\n    /* \"#utility.yul\":4770:4779   */\n  dup9\n    /* \"#utility.yul\":4766:4788   */\n  add\n    /* \"#utility.yul\":4724:4798   */\n  tag_51\n  jump\t// in\ntag_127:\n    /* \"#utility.yul\":4714:4798   */\n  swap3\n  pop\n    /* \"#utility.yul\":4516:4808   */\n  pop\n    /* \"#utility.yul\":4847:4849   */\n  0x60\n    /* \"#utility.yul\":4873:4935   */\n  tag_128\n    /* \"#utility.yul\":4927:4934   */\n  dup8\n    /* \"#utility.yul\":4918:4924   */\n  dup3\n    /* \"#utility.yul\":4907:4916   */\n  dup9\n    /* \"#utility.yul\":4903:4925   */\n  add\n    /* \"#utility.yul\":4873:4935   */\n  tag_54\n  jump\t// in\ntag_128:\n    /* \"#utility.yul\":4863:4935   */\n  swap2\n  pop\n    /* \"#utility.yul\":4818:4945   */\n  pop\n    /* \"#utility.yul\":3764:4952   */\n  swap3\n  swap6\n  swap2\n  swap5\n  pop\n  swap3\n  pop\n  jump\t// out\n    /* \"#utility.yul\":4958:5138   */\ntag_55:\n    /* \"#utility.yul\":5006:5083   */\n  0x4e487b7100000000000000000000000000000000000000000000000000000000\n    /* \"#utility.yul\":5003:5004   */\n  0x00\n    /* \"#utility.yul\":4996:5084   */\n  mstore\n    /* \"#utility.yul\":5103:5107   */\n  0x11\n    /* \"#utility.yul\":5100:5101   */\n  0x04\n    /* \"#utility.yul\":5093:5108   */\n  mstore\n    /* \"#utility.yul\":5127:5131   */\n  0x24\n    /* \"#utility.yul\":5124:5125   */\n  0x00\n    /* \"#utility.yul\":5117:5132   */\n  revert\n    /* \"#utility.yul\":5144:5246   */\ntag_56:\n    /* \"#utility.yul\":5186:5194   */\n  0x00\n    /* \"#utility.yul\":5233:5238   */\n  dup2\n    /* \"#utility.yul\":5230:5231   */\n  0x01\n    /* \"#utility.yul\":5226:5239   */\n  shr\n    /* \"#utility.yul\":5205:5239   */\n  swap1\n  pop\n    /* \"#utility.yul\":5144:5246   */\n  swap2\n  swap1\n  pop\n  jump\t// out\n    /* \"#utility.yul\":5252:6100   */\ntag_57:\n    /* \"#utility.yul\":5313:5318   */\n  0x00\n    /* \"#utility.yul\":5320:5324   */\n  dup1\n    /* \"#utility.yul\":5344:5350   */\n  dup3\n    /* \"#utility.yul\":5335:5350   */\n  swap2\n  pop\n    /* \"#utility.yul\":5368:5373   */\n  dup4\n    /* \"#utility.yul\":5359:5373   */\n  swap1\n  pop\n    /* \"#utility.yul\":5382:6094   */\ntag_132:\n    /* \"#utility.yul\":5403:5404   */\n  0x01\n    /* \"#utility.yul\":5393:5401   */\n  dup6\n    /* \"#utility.yul\":5390:5405   */\n  gt\n    /* \"#utility.yul\":5382:6094   */\n  iszero\n  tag_134\n  jumpi\n    /* \"#utility.yul\":5498:5502   */\n  dup1\n    /* \"#utility.yul\":5493:5496   */\n  dup7\n    /* \"#utility.yul\":5489:5503   */\n  div\n    /* \"#utility.yul\":5483:5487   */\n  dup2\n    /* \"#utility.yul\":5480:5504   */\n  gt\n    /* \"#utility.yul\":5477:5527   */\n  iszero\n  tag_135\n  jumpi\n    /* \"#utility.yul\":5507:5525   */\n  tag_136\n  tag_55\n  jump\t// in\ntag_136:\n    /* \"#utility.yul\":5477:5527   */\ntag_135:\n    /* \"#utility.yul\":5557:5558   */\n  0x01\n    /* \"#utility.yul\":5547:5555   */\n  dup6\n    /* \"#utility.yul\":5543:5559   */\n  and\n    /* \"#utility.yul\":5540:5991   */\n  iszero\n  tag_137\n  jumpi\n    /* \"#utility.yul\":5972:5976   */\n  dup1\n    /* \"#utility.yul\":5965:5970   */\n  dup3\n    /* \"#utility.yul\":5961:5977   */\n  mul\n    /* \"#utility.yul\":5952:5977   */\n  swap2\n  pop\n    /* \"#utility.yul\":5540:5991   */\ntag_137:\n    /* \"#utility.yul\":6022:6026   */\n  dup1\n    /* \"#utility.yul\":6016:6020   */\n  dup2\n    /* \"#utility.yul\":6012:6027   */\n  mul\n    /* \"#utility.yul\":6004:6027   */\n  swap1\n  pop\n    /* \"#utility.yul\":6052:6084   */\n  tag_138\n    /* \"#utility.yul\":6075:6083   */\n  dup6\n    /* \"#utility.yul\":6052:6084   */\n  tag_56\n  jump\t// in\ntag_138:\n    /* \"#utility.yul\":6040:6084   */\n  swap5\n  pop\n    /* \"#utility.yul\":5382:6094   */\n  jump(tag_132)\ntag_134:\n    /* \"#utility.yul\":5252:6100   */\n  swap5\n  pop\n  swap5\n  swap3\n  pop\n  pop\n  pop\n  jump\t// out\n    /* \"#utility.yul\":6106:7179   */\ntag_58:\n    /* \"#utility.yul\":6160:6165   */\n  0x00\n    /* \"#utility.yul\":6351:6359   */\n  dup3\n    /* \"#utility.yul\":6341:6381   */\n  tag_140\n  jumpi\n    /* \"#utility.yul\":6372:6373   */\n  0x01\n    /* \"#utility.yul\":6363:6373   */\n  swap1\n  pop\n    /* \"#utility.yul\":6374:6379   */\n  jump(tag_139)\n    /* \"#utility.yul\":6341:6381   */\ntag_140:\n    /* \"#utility.yul\":6400:6404   */\n  dup2\n    /* \"#utility.yul\":6390:6426   */\n  tag_141\n  jumpi\n    /* \"#utility.yul\":6417:6418   */\n  0x00\n    /* \"#utility.yul\":6408:6418   */\n  swap1\n  pop\n    /* \"#utility.yul\":6419:6424   */\n  jump(tag_139)\n    /* \"#utility.yul\":6390:6426   */\ntag_141:\n    /* \"#utility.yul\":6486:6490   */\n  dup2\n    /* \"#utility.yul\":6534:6535   */\n  0x01\n    /* \"#utility.yul\":6529:6556   */\n  dup2\n  eq\n  tag_143\n  jumpi\n    /* \"#utility.yul\":6570:6571   */\n  0x02\n    /* \"#utility.yul\":6565:6756   */\n  dup2\n  eq\n  tag_144\n  jumpi\n    /* \"#utility.yul\":6479:6756   */\n  jump(tag_142)\n    /* \"#utility.yul\":6529:6556   */\ntag_143:\n    /* \"#utility.yul\":6547:6548   */\n  0x01\n    /* \"#utility.yul\":6538:6548   */\n  swap2\n  pop\n    /* \"#utility.yul\":6549:6554   */\n  pop\n  jump(tag_139)\n    /* \"#utility.yul\":6565:6756   */\ntag_144:\n    /* \"#utility.yul\":6610:6613   */\n  0xff\n    /* \"#utility.yul\":6600:6608   */\n  dup5\n    /* \"#utility.yul\":6597:6614   */\n  gt\n    /* \"#utility.yul\":6594:6637   */\n  iszero\n  tag_145\n  jumpi\n    /* \"#utility.yul\":6617:6635   */\n  tag_146\n  tag_55\n  jump\t// in\ntag_146:\n    /* \"#utility.yul\":6594:6637   */\ntag_145:\n    /* \"#utility.yul\":6666:6674   */\n  dup4\n    /* \"#utility.yul\":6663:6664   */\n  0x02\n    /* \"#utility.yul\":6659:6675   */\n  exp\n    /* \"#utility.yul\":6650:6675   */\n  swap2\n  pop\n    /* \"#utility.yul\":6701:6704   */\n  dup5\n    /* \"#utility.yul\":6694:6699   */\n  dup3\n    /* \"#utility.yul\":6691:6705   */\n  gt\n    /* \"#utility.yul\":6688:6728   */\n  iszero\n  tag_147\n  jumpi\n    /* \"#utility.yul\":6708:6726   */\n  tag_148\n  tag_55\n  jump\t// in\ntag_148:\n    /* \"#utility.yul\":6688:6728   */\ntag_147:\n    /* \"#utility.yul\":6741:6746   */\n  pop\n  jump(tag_139)\n    /* \"#utility.yul\":6479:6756   */\ntag_142:\n  pop\n    /* \"#utility.yul\":6865:6867   */\n  0x20\n    /* \"#utility.yul\":6855:6863   */\n  dup4\n    /* \"#utility.yul\":6852:6868   */\n  lt\n    /* \"#utility.yul\":6846:6849   */\n  0x0133\n    /* \"#utility.yul\":6840:6844   */\n  dup4\n    /* \"#utility.yul\":6837:6850   */\n  lt\n    /* \"#utility.yul\":6833:6869   */\n  and\n    /* \"#utility.yul\":6815:6817   */\n  0x4e\n    /* \"#utility.yul\":6805:6813   */\n  dup5\n    /* \"#utility.yul\":6802:6818   */\n  lt\n    /* \"#utility.yul\":6797:6799   */\n  0x0b\n    /* \"#utility.yul\":6791:6795   */\n  dup5\n    /* \"#utility.yul\":6788:6800   */\n  lt\n    /* \"#utility.yul\":6784:6819   */\n  and\n    /* \"#utility.yul\":6768:6879   */\n  or\n    /* \"#utility.yul\":6765:7011   */\n  iszero\n  tag_149\n  jumpi\n    /* \"#utility.yul\":6921:6929   */\n  dup3\n    /* \"#utility.yul\":6915:6919   */\n  dup3\n    /* \"#utility.yul\":6911:6930   */\n  exp\n    /* \"#utility.yul\":6902:6930   */\n  swap1\n  pop\n    /* \"#utility.yul\":6956:6959   */\n  dup4\n    /* \"#utility.yul\":6949:6954   */\n  dup2\n    /* \"#utility.yul\":6946:6960   */\n  gt\n    /* \"#utility.yul\":6943:6983   */\n  iszero\n  tag_150\n  jumpi\n    /* \"#utility.yul\":6963:6981   */\n  tag_151\n  tag_55\n  jump\t// in\ntag_151:\n    /* \"#utility.yul\":6943:6983   */\ntag_150:\n    /* \"#utility.yul\":6996:7001   */\n  jump(tag_139)\n    /* \"#utility.yul\":6765:7011   */\ntag_149:\n    /* \"#utility.yul\":7036:7078   */\n  tag_152\n    /* \"#utility.yul\":7074:7077   */\n  dup5\n    /* \"#utility.yul\":7064:7072   */\n  dup5\n    /* \"#utility.yul\":7058:7062   */\n  dup5\n    /* \"#utility.yul\":7055:7056   */\n  0x01\n    /* \"#utility.yul\":7036:7078   */\n  tag_57\n  jump\t// in\ntag_152:\n    /* \"#utility.yul\":7021:7078   */\n  swap3\n  pop\n  swap1\n  pop\n    /* \"#utility.yul\":7110:7114   */\n  dup2\n    /* \"#utility.yul\":7105:7108   */\n  dup5\n    /* \"#utility.yul\":7101:7115   */\n  div\n    /* \"#utility.yul\":7094:7099   */\n  dup2\n    /* \"#utility.yul\":7091:7116   */\n  gt\n    /* \"#utility.yul\":7088:7139   */\n  iszero\n  tag_153\n  jumpi\n    /* \"#utility.yul\":7119:7137   */\n  tag_154\n  tag_55\n  jump\t// in\ntag_154:\n    /* \"#utility.yul\":7088:7139   */\ntag_153:\n    /* \"#utility.yul\":7168:7172   */\n  dup2\n    /* \"#utility.yul\":7161:7166   */\n  dup2\n    /* \"#utility.yul\":7157:7173   */\n  mul\n    /* \"#utility.yul\":7148:7173   */\n  swap1\n  pop\n    /* \"#utility.yul\":6106:7179   */\ntag_139:\n  swap4\n  swap3\n  pop\n  pop\n  pop\n  jump\t// out\n    /* \"#utility.yul\":7185:7262   */\ntag_59:\n    /* \"#utility.yul\":7222:7229   */\n  0x00\n    /* \"#utility.yul\":7251:7256   */\n  dup2\n    /* \"#utility.yul\":7240:7256   */\n  swap1\n  pop\n    /* \"#utility.yul\":7185:7262   */\n  swap2\n  swap1\n  pop\n  jump\t// out\n    /* \"#utility.yul\":7268:7549   */\ntag_16:\n    /* \"#utility.yul\":7326:7331   */\n  0x00\n    /* \"#utility.yul\":7350:7373   */\n  tag_157\n    /* \"#utility.yul\":7368:7372   */\n  dup3\n    /* \"#utility.yul\":7350:7373   */\n  tag_59\n  jump\t// in\ntag_157:\n    /* \"#utility.yul\":7342:7373   */\n  swap2\n  pop\n    /* \"#utility.yul\":7394:7419   */\n  tag_158\n    /* \"#utility.yul\":7410:7418   */\n  dup4\n    /* \"#utility.yul\":7394:7419   */\n  tag_52\n  jump\t// in\ntag_158:\n    /* \"#utility.yul\":7382:7419   */\n  swap3\n  pop\n    /* \"#utility.yul\":7438:7542   */\n  tag_159\n    /* \"#utility.yul\":7475:7541   */\n  0xffffffffffffffffffffffffffffffffffffffffffffffffffffffffffffffff\n    /* \"#utility.yul\":7465:7473   */\n  dup5\n    /* \"#utility.yul\":7459:7463   */\n  dup5\n    /* \"#utility.yul\":7438:7542   */\n  tag_58\n  jump\t// in\ntag_159:\n    /* \"#utility.yul\":7429:7542   */\n  swap1\n  pop\n    /* \"#utility.yul\":7268:7549   */\n  swap3\n  swap2\n  pop\n  pop\n  jump\t// out\n    /* \"#utility.yul\":7555:7735   */\ntag_60:\n    /* \"#utility.yul\":7603:7680   */\n  0x4e487b7100000000000000000000000000000000000000000000000000000000\n    /* \"#utility.yul\":7600:7601   */\n  0x00\n    /* \"#utility.yul\":7593:7681   */\n  mstore\n    /* \"#utility.yul\":7700:7704   */\n  0x22\n    /* \"#utility.yul\":7697:7698   */\n  0x04\n    /* \"#utility.yul\":7690:7705   */\n  mstore\n    /* \"#utility.yul\":7724:7728   */\n  0x24\n    /* \"#utility.yul\":7721:7722   */\n  0x00\n    /* \"#utility.yul\":7714:7729   */\n  revert\n    /* \"#utility.yul\":7741:8061   */\ntag_24:\n    /* \"#utility.yul\":7785:7791   */\n  0x00\n    /* \"#utility.yul\":7822:7823   */\n  0x02\n    /* \"#utility.yul\":7816:7820   */\n  dup3\n    /* \"#utility.yul\":7812:7824   */\n  div\n    /* \"#utility.yul\":7802:7824   */\n  swap1\n  pop\n    /* \"#utility.yul\":7869:7870   */\n  0x01\n    /* \"#utility.yul\":7863:7867   */\n  dup3\n    /* \"#utility.yul\":7859:7871   */\n  and\n    /* \"#utility.yul\":7890:7908   */\n  dup1\n    /* \"#utility.yul\":7880:7961   */\n  tag_162\n  jumpi\n    /* \"#utility.yul\":7946:7950   */\n  0x7f\n    /* \"#utility.yul\":7938:7944   */\n  dup3\n    /* \"#utility.yul\":7934:7951   */\n  and\n    /* \"#utility.yul\":7924:7951   */\n  swap2\n  pop\n    /* \"#utility.yul\":7880:7961   */\ntag_162:\n    /* \"#utility.yul\":8008:8010   */\n  0x20\n    /* \"#utility.yul\":8000:8006   */\n  dup3\n    /* \"#utility.yul\":7997:8011   */\n  lt\n    /* \"#utility.yul\":7977:7995   */\n  dup2\n    /* \"#utility.yul\":7974:8012   */\n  eq\n    /* \"#utility.yul\":7971:8055   */\n  iszero\n  tag_163\n  jumpi\n    /* \"#utility.yul\":8027:8045   */\n  tag_164\n  tag_60\n  jump\t// in\ntag_164:\n    /* \"#utility.yul\":7971:8055   */\ntag_163:\n    /* \"#utility.yul\":7792:8061   */\n  pop\n    /* \"#utility.yul\":7741:8061   */\n  swap2\n  swap1\n  pop\n  jump\t// out\n    /* \"#utility.yul\":8067:8214   */\ntag_61:\n    /* \"#utility.yul\":8168:8179   */\n  0x00\n    /* \"#utility.yul\":8205:8208   */\n  dup2\n    /* \"#utility.yul\":8190:8208   */\n  swap1\n  pop\n    /* \"#utility.yul\":8067:8214   */\n  swap3\n  swap2\n  pop\n  pop\n  jump\t// out\n    /* \"#utility.yul\":8220:8364   */\ntag_62:\n    /* \"#utility.yul\":8272:8276   */\n  0x00\n    /* \"#utility.yul\":8295:8298   */\n  dup2\n    /* \"#utility.yul\":8287:8298   */\n  swap1\n  pop\n    /* \"#utility.yul\":8318:8321   */\n  dup2\n    /* \"#utility.yul\":8315:8316   */\n  0x00\n    /* \"#utility.yul\":8308:8322   */\n  mstore\n    /* \"#utility.yul\":8352:8356   */\n  0x20\n    /* \"#utility.yul\":8349:8350   */\n  0x00\n    /* \"#utility.yul\":8339:8357   */\n  keccak256\n    /* \"#utility.yul\":8331:8357   */\n  swap1\n  pop\n    /* \"#utility.yul\":8220:8364   */\n  swap2\n  swap1\n  pop\n  jump\t// out\n    /* \"#utility.yul\":8392:9241   */\ntag_63:\n    /* \"#utility.yul\":8497:8500   */\n  0x00\n    /* \"#utility.yul\":8534:8539   */\n  dup2\n    /* \"#utility.yul\":8528:8540   */\n  sload\n    /* \"#utility.yul\":8563:8599   */\n  tag_168\n    /* \"#utility.yul\":8589:8598   */\n  dup2\n    /* \"#utility.yul\":8563:8599   */\n  tag_24\n  jump\t// in\ntag_168:\n    /* \"#utility.yul\":8615:8703   */\n  tag_169\n    /* \"#utility.yul\":8696:8702   */\n  dup2\n    /* \"#utility.yul\":8691:8694   */\n  dup7\n    /* \"#utility.yul\":8615:8703   */\n  tag_61\n  jump\t// in\ntag_169:\n    /* \"#utility.yul\":8608:8703   */\n  swap5\n  pop\n    /* \"#utility.yul\":8734:8735   */\n  0x01\n    /* \"#utility.yul\":8723:8732   */\n  dup3\n    /* \"#utility.yul\":8719:8736   */\n  and\n    /* \"#utility.yul\":8750:8751   */\n  0x00\n    /* \"#utility.yul\":8745:8882   */\n  dup2\n  eq\n  tag_171\n  jumpi\n    /* \"#utility.yul\":8896:8897   */\n  0x01\n    /* \"#utility.yul\":8891:9235   */\n  dup2\n  eq\n  tag_172\n  jumpi\n    /* \"#utility.yul\":8712:9235   */\n  jump(tag_170)\n    /* \"#utility.yul\":8745:8882   */\ntag_171:\n    /* \"#utility.yul\":8829:8833   */\n  0xff\n    /* \"#utility.yul\":8825:8834   */\n  not\n    /* \"#utility.yul\":8814:8823   */\n  dup4\n    /* \"#utility.yul\":8810:8835   */\n  and\n    /* \"#utility.yul\":8805:8808   */\n  dup7\n    /* \"#utility.yul\":8798:8836   */\n  mstore\n    /* \"#utility.yul\":8865:8871   */\n  dup2\n    /* \"#utility.yul\":8860:8863   */\n  dup7\n    /* \"#utility.yul\":8856:8872   */\n  add\n    /* \"#utility.yul\":8849:8872   */\n  swap4\n  pop\n    /* \"#utility.yul\":8745:8882   */\n  jump(tag_170)\n    /* \"#utility.yul\":8891:9235   */\ntag_172:\n    /* \"#utility.yul\":8958:8999   */\n  tag_173\n    /* \"#utility.yul\":8993:8998   */\n  dup6\n    /* \"#utility.yul\":8958:8999   */\n  tag_62\n  jump\t// in\ntag_173:\n    /* \"#utility.yul\":9021:9022   */\n  0x00\n    /* \"#utility.yul\":9035:9189   */\ntag_174:\n    /* \"#utility.yul\":9049:9055   */\n  dup4\n    /* \"#utility.yul\":9046:9047   */\n  dup2\n    /* \"#utility.yul\":9043:9056   */\n  lt\n    /* \"#utility.yul\":9035:9189   */\n  iszero\n  tag_176\n  jumpi\n    /* \"#utility.yul\":9123:9130   */\n  dup2\n    /* \"#utility.yul\":9117:9131   */\n  sload\n    /* \"#utility.yul\":9113:9114   */\n  dup2\n    /* \"#utility.yul\":9108:9111   */\n  dup10\n    /* \"#utility.yul\":9104:9115   */\n  add\n    /* \"#utility.yul\":9097:9132   */\n  mstore\n    /* \"#utility.yul\":9173:9174   */\n  0x01\n    /* \"#utility.yul\":9164:9171   */\n  dup3\n    /* \"#utility.yul\":9160:9175   */\n  add\n    /* \"#utility.yul\":9149:9175   */\n  swap2\n  pop\n    /* \"#utility.yul\":9071:9075   */\n  0x20\n    /* \"#utility.yul\":9068:9069   */\n  dup2\n    /* \"#utility.yul\":9064:9076   */\n  add\n    /* \"#utility.yul\":9059:9076   */\n  swap1\n  pop\n    /* \"#utility.yul\":9035:9189   */\n  jump(tag_174)\ntag_176:\n    /* \"#utility.yul\":9218:9224   */\n  dup4\n    /* \"#utility.yul\":9213:9216   */\n  dup9\n    /* \"#utility.yul\":9209:9225   */\n  add\n    /* \"#utility.yul\":9202:9225   */\n  swap6\n  pop\n    /* \"#utility.yul\":8898:9235   */\n  pop\n  pop\n    /* \"#utility.yul\":8712:9235   */\ntag_170:\n  pop\n    /* \"#utility.yul\":8501:9241   */\n  pop\n  pop\n    /* \"#utility.yul\":8392:9241   */\n  swap3\n  swap2\n  pop\n  pop\n  jump\t// out\n    /* \"#utility.yul\":9247:9520   */\ntag_20:\n    /* \"#utility.yul\":9378:9381   */\n  0x00\n    /* \"#utility.yul\":9400:9494   */\n  tag_178\n    /* \"#utility.yul\":9490:9493   */\n  dup3\n    /* \"#utility.yul\":9481:9487   */\n  dup5\n    /* \"#utility.yul\":9400:9494   */\n  tag_63\n  jump\t// in\ntag_178:\n    /* \"#utility.yul\":9393:9494   */\n  swap2\n  pop\n    /* \"#utility.yul\":9511:9514   */\n  dup2\n    /* \"#utility.yul\":9504:9514   */\n  swap1\n  pop\n    /* \"#utility.yul\":9247:9520   */\n  swap3\n  swap2\n  pop\n  pop\n  jump\t// out\n    /* \"#utility.yul\":9526:9603   */\ntag_64:\n    /* \"#utility.yul\":9563:9570   */\n  0x00\n    /* \"#utility.yul\":9592:9597   */\n  dup2\n    /* \"#utility.yul\":9581:9597   */\n  swap1\n  pop\n    /* \"#utility.yul\":9526:9603   */\n  swap2\n  swap1\n  pop\n  jump\t// out\n    /* \"#utility.yul\":9609:9727   */\ntag_65:\n    /* \"#utility.yul\":9696:9720   */\n  tag_181\n    /* \"#utility.yul\":9714:9719   */\n  dup2\n    /* \"#utility.yul\":9696:9720   */\n  tag_64\n  jump\t// in\ntag_181:\n    /* \"#utility.yul\":9691:9694   */\n  dup3\n    /* \"#utility.yul\":9684:9721   */\n  mstore\n    /* \"#utility.yul\":9609:9727   */\n  pop\n  pop\n  jump\t// out\n    /* \"#utility.yul\":9733:9851   */\ntag_66:\n    /* \"#utility.yul\":9820:9844   */\n  tag_183\n    /* \"#utility.yul\":9838:9843   */\n  dup2\n    /* \"#utility.yul\":9820:9844   */\n  tag_59\n  jump\t// in\ntag_183:\n    /* \"#utility.yul\":9815:9818   */\n  dup3\n    /* \"#utility.yul\":9808:9845   */\n  mstore\n    /* \"#utility.yul\":9733:9851   */\n  pop\n  pop\n  jump\t// out\n    /* \"#utility.yul\":9857:9975   */\ntag_67:\n    /* \"#utility.yul\":9944:9968   */\n  tag_185\n    /* \"#utility.yul\":9962:9967   */\n  dup2\n    /* \"#utility.yul\":9944:9968   */\n  tag_38\n  jump\t// in\ntag_185:\n    /* \"#utility.yul\":9939:9942   */\n  dup3\n    /* \"#utility.yul\":9932:9969   */\n  mstore\n    /* \"#utility.yul\":9857:9975   */\n  pop\n  pop\n  jump\t// out\n    /* \"#utility.yul\":9981:10645   */\ntag_22:\n    /* \"#utility.yul\":10186:10190   */\n  0x00\n    /* \"#utility.yul\":10224:10227   */\n  0xa0\n    /* \"#utility.yul\":10213:10222   */\n  dup3\n    /* \"#utility.yul\":10209:10228   */\n  add\n    /* \"#utility.yul\":10201:10228   */\n  swap1\n  pop\n    /* \"#utility.yul\":10238:10309   */\n  tag_187\n    /* \"#utility.yul\":10306:10307   */\n  0x00\n    /* \"#utility.yul\":10295:10304   */\n  dup4\n    /* \"#utility.yul\":10291:10308   */\n  add\n    /* \"#utility.yul\":10282:10288   */\n  dup9\n    /* \"#utility.yul\":10238:10309   */\n  tag_65\n  jump\t// in\ntag_187:\n    /* \"#utility.yul\":10319:10391   */\n  tag_188\n    /* \"#utility.yul\":10387:10389   */\n  0x20\n    /* \"#utility.yul\":10376:10385   */\n  dup4\n    /* \"#utility.yul\":10372:10390   */\n  add\n    /* \"#utility.yul\":10363:10369   */\n  dup8\n    /* \"#utility.yul\":10319:10391   */\n  tag_65\n  jump\t// in\ntag_188:\n    /* \"#utility.yul\":10401:10473   */\n  tag_189\n    /* \"#utility.yul\":10469:10471   */\n  0x40\n    /* \"#utility.yul\":10458:10467   */\n  dup4\n    /* \"#utility.yul\":10454:10472   */\n  add\n    /* \"#utility.yul\":10445:10451   */\n  dup7\n    /* \"#utility.yul\":10401:10473   */\n  tag_65\n  jump\t// in\ntag_189:\n    /* \"#utility.yul\":10483:10555   */\n  tag_190\n    /* \"#utility.yul\":10551:10553   */\n  0x60\n    /* \"#utility.yul\":10540:10549   */\n  dup4\n    /* \"#utility.yul\":10536:10554   */\n  add\n    /* \"#utility.yul\":10527:10533   */\n  dup6\n    /* \"#utility.yul\":10483:10555   */\n  tag_66\n  jump\t// in\ntag_190:\n    /* \"#utility.yul\":10565:10638   */\n  tag_191\n    /* \"#utility.yul\":10633:10636   */\n  0x80\n    /* \"#utility.yul\":10622:10631   */\n  dup4\n    /* \"#utility.yul\":10618:10637   */\n  add\n    /* \"#utility.yul\":10609:10615   */\n  dup5\n    /* \"#utility.yul\":10565:10638   */\n  tag_67\n  jump\t// in\ntag_191:\n    /* \"#utility.yul\":9981:10645   */\n  swap7\n  swap6\n  pop\n  pop\n  pop\n  pop\n  pop\n  pop\n  jump\t// out\n    /* \"SquiddyCore.sol\":143:5339  contract SquiddyCore is ERC4626 {... */\ntag_17:\n  mload(0x80)\n  mload(0xa0)\n  mload(0xc0)\n  mload(0xe0)\n  mload(0x0100)\n  mload(0x0120)\n  codecopy(0x00, dataOffset(sub_0), dataSize(sub_0))\n  0x00\n  assignImmutable(\"0x6b5c062ff531e4aab4774f509e92f4d1142a84e2071479e43245c0e4a7940df4\")\n  0x00\n  assignImmutable(\"0xae7d027a27a067b0ce216b860399a31145ba05bee5d36a5aedd4d9d773c92c99\")\n  0x00\n  assignImmutable(\"0xecac27c21aa9a89d7be9ad03c2d91e82cbd466284ecdf2bd5bad7f953539cc45\")\n  0x00\n  assignImmutable(\"0x880de8116b3dfac28e9ff528a9fef1d1e0a51449c1addce011ffec1f302992b6\")\n  0x00\n  assignImmutable(\"0xd67d834462ca31eaef1f30157e31659f60355143b7441e6fc7d9eae1fa79f3f8\")\n  0x00\n  assignImmutable(\"0x6585423cb6456b1d4957f6454d2f004f0c4f58d53a00082412d5c2ef4b1b31fd\")\n  return(0x00, dataSize(sub_0))\nstop\n\nsub_0: assembly {\n        /* \"SquiddyCore.sol\":143:5339  contract SquiddyCore is ERC4626 {... */\n      mstore(0x40, 0x80)\n      callvalue\n      dup1\n      iszero\n      tag_1\n      jumpi\n      0x00\n      dup1\n      revert\n    tag_1:\n      pop\n      jumpi(tag_2, lt(calldatasize, 0x04))\n      shr(0xe0, calldataload(0x00))\n      dup1\n      0x7fd6f15c\n      gt\n      tag_40\n      jumpi\n      dup1\n      0xc5d664c6\n      gt\n      tag_41\n      jumpi\n      dup1\n      0xd905777e\n      gt\n      tag_42\n      jumpi\n      dup1\n      0xd905777e\n      eq\n      tag_35\n      jumpi\n      dup1\n      0xdd62ed3e\n      eq\n      tag_36\n      jumpi\n      dup1\n      0xef8b30f7\n      eq\n      tag_37\n      jumpi\n      dup1\n      0xf2fde38b\n      eq\n      tag_38\n      jumpi\n      dup1\n      0xfc407ae7\n      eq\n      tag_39\n      jumpi\n      jump(tag_2)\n    tag_42:\n      dup1\n      0xc5d664c6\n      eq\n      tag_30\n      jumpi\n      dup1\n      0xc63d75b6\n      eq\n      tag_31\n      jumpi\n      dup1\n      0xc6e6f592\n      eq\n      tag_32\n      jumpi\n      dup1\n      0xce96cb77\n      eq\n      tag_33\n      jumpi\n      dup1\n      0xd505accf\n      eq\n      tag_34\n      jumpi\n      jump(tag_2)\n    tag_41:\n      dup1\n      0xac68a748\n      gt\n      tag_43\n      jumpi\n      dup1\n      0xac68a748\n      eq\n      tag_25\n      jumpi\n      dup1\n      0xb3d7f6b9\n      eq\n      tag_26\n      jumpi\n      dup1\n      0xb460af94\n      eq\n      tag_27\n      jumpi\n      dup1\n      0xba087652\n      eq\n      tag_28\n      jumpi\n      dup1\n      0xbc368a8a\n      eq\n      tag_29\n      jumpi\n      jump(tag_2)\n    tag_43:\n      dup1\n      0x7fd6f15c\n      eq\n      tag_21\n      jumpi\n      dup1\n      0x94bf804d\n      eq\n      tag_22\n      jumpi\n      dup1\n      0x95d89b41\n      eq\n      tag_23\n      jumpi\n      dup1\n      0xa9059cbb\n      eq\n      tag_24\n      jumpi\n      jump(tag_2)\n    tag_40:\n      dup1\n      0x38d52e0f\n      gt\n      tag_44\n      jumpi\n      dup1\n      0x6e553f65\n      gt\n      tag_45\n      jumpi\n      dup1\n      0x6e553f65\n      eq\n      tag_16\n      jumpi\n      dup1\n      0x70a08231\n      eq\n      tag_17\n      jumpi\n      dup1\n      0x715018a6\n      eq\n      tag_18\n      jumpi\n      dup1\n      0x7ce3489b\n      eq\n      tag_19\n      jumpi\n      dup1\n      0x7ecebe00\n      eq\n      tag_20\n      jumpi\n      jump(tag_2)\n    tag_45:\n      dup1\n      0x38d52e0f\n      eq\n      tag_12\n      jumpi\n      dup1\n      0x402d267d\n      eq\n      tag_13\n      jumpi\n      dup1\n      0x481c6a75\n      eq\n      tag_14\n      jumpi\n      dup1\n      0x4cdad506\n      eq\n      tag_15\n      jumpi\n      jump(tag_2)\n    tag_44:\n      dup1\n      0x0a28a477\n      gt\n      tag_46\n      jumpi\n      dup1\n      0x0a28a477\n      eq\n      tag_7\n      jumpi\n      dup1\n      0x18160ddd\n      eq\n      tag_8\n      jumpi\n      dup1\n      0x23b872dd\n      eq\n      tag_9\n      jumpi\n      dup1\n      0x313ce567\n      eq\n      tag_10\n      jumpi\n      dup1\n      0x3644e515\n      eq\n      tag_11\n      jumpi\n      jump(tag_2)\n    tag_46:\n      dup1\n      0x01e1d114\n      eq\n      tag_3\n      jumpi\n      dup1\n      0x06fdde03\n      eq\n      tag_4\n      jumpi\n      dup1\n      0x07a2d13a\n      eq\n      tag_5\n      jumpi\n      dup1\n      0x095ea7b3\n      eq\n      tag_6\n      jumpi\n    tag_2:\n      0x00\n      dup1\n      revert\n        /* \"SquiddyCore.sol\":1948:2064  function totalAssets() public view override returns (uint256) {... */\n    tag_3:\n      tag_47\n      tag_48\n      jump\t// in\n    tag_47:\n      mload(0x40)\n      tag_49\n      swap2\n      swap1\n      tag_50\n      jump\t// in\n    tag_49:\n      mload(0x40)\n      dup1\n      swap2\n      sub\n      swap1\n      return\n        /* \"ERC20.sol\":1061:1079  string public name */\n    tag_4:\n      tag_51\n      tag_52\n      jump\t// in\n    tag_51:\n      mload(0x40)\n      tag_53\n      swap2\n      swap1\n      tag_54\n      jump\t// in\n    tag_53:\n      mload(0x40)\n      dup1\n      swap2\n      sub\n      swap1\n      return\n        /* \"ERC4626.sol\":4620:4913  function convertToAssets(uint256 shares)... */\n    tag_5:\n      tag_55\n      0x04\n      dup1\n      calldatasize\n      sub\n      dup2\n      add\n      swap1\n      tag_56\n      swap2\n      swap1\n      tag_57\n      jump\t// in\n    tag_56:\n      tag_58\n      jump\t// in\n    tag_55:\n      mload(0x40)\n      tag_59\n      swap2\n      swap1\n      tag_50\n      jump\t// in\n    tag_59:\n      mload(0x40)\n      dup1\n      swap2\n      sub\n      swap1\n      return\n        /* \"ERC20.sol\":2491:2730  function approve(address spender, uint256 amount)... */\n    tag_6:\n      tag_60\n      0x04\n      dup1\n      calldatasize\n      sub\n      dup2\n      add\n      swap1\n      tag_61\n      swap2\n      swap1\n      tag_62\n      jump\t// in\n    tag_61:\n      tag_63\n      jump\t// in\n    tag_60:\n      mload(0x40)\n      tag_64\n      swap2\n      swap1\n      tag_65\n      jump\t// in\n    tag_64:\n      mload(0x40)\n      dup1\n      swap2\n      sub\n      swap1\n      return\n        /* \"ERC4626.sol\":5343:5634  function previewWithdraw(uint256 assets)... */\n    tag_7:\n      tag_66\n      0x04\n      dup1\n      calldatasize\n      sub\n      dup2\n      add\n      swap1\n      tag_67\n      swap2\n      swap1\n      tag_57\n      jump\t// in\n    tag_67:\n      tag_68\n      jump\t// in\n    tag_66:\n      mload(0x40)\n      tag_69\n      swap2\n      swap1\n      tag_50\n      jump\t// in\n    tag_69:\n      mload(0x40)\n      dup1\n      swap2\n      sub\n      swap1\n      return\n        /* \"ERC20.sol\":1334:1360  uint256 public totalSupply */\n    tag_8:\n      tag_70\n      tag_71\n      jump\t// in\n    tag_70:\n      mload(0x40)\n      tag_72\n      swap2\n      swap1\n      tag_50\n      jump\t// in\n    tag_72:\n      mload(0x40)\n      dup1\n      swap2\n      sub\n      swap1\n      return\n        /* \"ERC20.sol\":3143:3747  function transferFrom(... */\n    tag_9:\n      tag_73\n      0x04\n      dup1\n      calldatasize\n      sub\n      dup2\n      add\n      swap1\n      tag_74\n      swap2\n      swap1\n      tag_75\n      jump\t// in\n    tag_74:\n      tag_76\n      jump\t// in\n    tag_73:\n      mload(0x40)\n      tag_77\n      swap2\n      swap1\n      tag_65\n      jump\t// in\n    tag_77:\n      mload(0x40)\n      dup1\n      swap2\n      sub\n      swap1\n      return\n        /* \"ERC20.sol\":1113:1144  uint8 public immutable decimals */\n    tag_10:\n      tag_78\n      tag_79\n      jump\t// in\n    tag_78:\n      mload(0x40)\n      tag_80\n      swap2\n      swap1\n      tag_81\n      jump\t// in\n    tag_80:\n      mload(0x40)\n      dup1\n      swap2\n      sub\n      swap1\n      return\n        /* \"ERC20.sol\":5471:5692  function DOMAIN_SEPARATOR() public view virtual returns (bytes32) {... */\n    tag_11:\n      tag_82\n      tag_83\n      jump\t// in\n    tag_82:\n      mload(0x40)\n      tag_84\n      swap2\n      swap1\n      tag_85\n      jump\t// in\n    tag_84:\n      mload(0x40)\n      dup1\n      swap2\n      sub\n      swap1\n      return\n        /* \"ERC4626.sol\":1165:1193  ERC20 public immutable asset */\n    tag_12:\n      tag_86\n      tag_87\n      jump\t// in\n    tag_86:\n      mload(0x40)\n      tag_88\n      swap2\n      swap1\n      tag_89\n      jump\t// in\n    tag_88:\n      mload(0x40)\n      dup1\n      swap2\n      sub\n      swap1\n      return\n        /* \"ERC4626.sol\":5997:6105  function maxDeposit(address) public view virtual returns (uint256) {... */\n    tag_13:\n      tag_90\n      0x04\n      dup1\n      calldatasize\n      sub\n      dup2\n      add\n      swap1\n      tag_91\n      swap2\n      swap1\n      tag_92\n      jump\t// in\n    tag_91:\n      tag_93\n      jump\t// in\n    tag_90:\n      mload(0x40)\n      tag_94\n      swap2\n      swap1\n      tag_50\n      jump\t// in\n    tag_94:\n      mload(0x40)\n      dup1\n      swap2\n      sub\n      swap1\n      return\n        /* \"SquiddyCore.sol\":2565:2654  function manager() public view virtual returns (address) {... */\n    tag_14:\n      tag_95\n      tag_96\n      jump\t// in\n    tag_95:\n      mload(0x40)\n      tag_97\n      swap2\n      swap1\n      tag_98\n      jump\t// in\n    tag_97:\n      mload(0x40)\n      dup1\n      swap2\n      sub\n      swap1\n      return\n        /* \"ERC4626.sol\":5640:5800  function previewRedeem(uint256 shares)... */\n    tag_15:\n      tag_99\n      0x04\n      dup1\n      calldatasize\n      sub\n      dup2\n      add\n      swap1\n      tag_100\n      swap2\n      swap1\n      tag_57\n      jump\t// in\n    tag_100:\n      tag_101\n      jump\t// in\n    tag_99:\n      mload(0x40)\n      tag_102\n      swap2\n      swap1\n      tag_50\n      jump\t// in\n    tag_102:\n      mload(0x40)\n      dup1\n      swap2\n      sub\n      swap1\n      return\n        /* \"ERC4626.sol\":1583:2127  function deposit(uint256 assets, address receiver)... */\n    tag_16:\n      tag_103\n      0x04\n      dup1\n      calldatasize\n      sub\n      dup2\n      add\n      swap1\n      tag_104\n      swap2\n      swap1\n      tag_105\n      jump\t// in\n    tag_104:\n      tag_106\n      jump\t// in\n    tag_103:\n      mload(0x40)\n      tag_107\n      swap2\n      swap1\n      tag_50\n      jump\t// in\n    tag_107:\n      mload(0x40)\n      dup1\n      swap2\n      sub\n      swap1\n      return\n        /* \"ERC20.sol\":1367:1411  mapping(address => uint256) public balanceOf */\n    tag_17:\n      tag_108\n      0x04\n      dup1\n      calldatasize\n      sub\n      dup2\n      add\n      swap1\n      tag_109\n      swap2\n      swap1\n      tag_92\n      jump\t// in\n    tag_109:\n      tag_110\n      jump\t// in\n    tag_108:\n      mload(0x40)\n      tag_111\n      swap2\n      swap1\n      tag_50\n      jump\t// in\n    tag_111:\n      mload(0x40)\n      dup1\n      swap2\n      sub\n      swap1\n      return\n        /* \"SquiddyCore.sol\":3005:3156  function renounceOwnership() public virtual onlyManager {... */\n    tag_18:\n      tag_112\n      tag_113\n      jump\t// in\n    tag_112:\n      stop\n        /* \"SquiddyCore.sol\":4253:4576  function setFeePercent(uint256 newFeePercent) external onlyManager {... */\n    tag_19:\n      tag_114\n      0x04\n      dup1\n      calldatasize\n      sub\n      dup2\n      add\n      swap1\n      tag_115\n      swap2\n      swap1\n      tag_57\n      jump\t// in\n    tag_115:\n      tag_116\n      jump\t// in\n    tag_114:\n      stop\n        /* \"ERC20.sol\":1781:1822  mapping(address => uint256) public nonces */\n    tag_20:\n      tag_117\n      0x04\n      dup1\n      calldatasize\n      sub\n      dup2\n      add\n      swap1\n      tag_118\n      swap2\n      swap1\n      tag_92\n      jump\t// in\n    tag_118:\n      tag_119\n      jump\t// in\n    tag_117:\n      mload(0x40)\n      tag_120\n      swap2\n      swap1\n      tag_50\n      jump\t// in\n    tag_120:\n      mload(0x40)\n      dup1\n      swap2\n      sub\n      swap1\n      return\n        /* \"SquiddyCore.sol\":3871:3896  uint256 public feePercent */\n    tag_21:\n      tag_121\n      tag_122\n      jump\t// in\n    tag_121:\n      mload(0x40)\n      tag_123\n      swap2\n      swap1\n      tag_50\n      jump\t// in\n    tag_123:\n      mload(0x40)\n      dup1\n      swap2\n      sub\n      swap1\n      return\n        /* \"ERC4626.sol\":2133:2628  function mint(uint256 shares, address receiver)... */\n    tag_22:\n      tag_124\n      0x04\n      dup1\n      calldatasize\n      sub\n      dup2\n      add\n      swap1\n      tag_125\n      swap2\n      swap1\n      tag_105\n      jump\t// in\n    tag_125:\n      tag_126\n      jump\t// in\n    tag_124:\n      mload(0x40)\n      tag_127\n      swap2\n      swap1\n      tag_50\n      jump\t// in\n    tag_127:\n      mload(0x40)\n      dup1\n      swap2\n      sub\n      swap1\n      return\n        /* \"ERC20.sol\":1086:1106  string public symbol */\n    tag_23:\n      tag_128\n      tag_129\n      jump\t// in\n    tag_128:\n      mload(0x40)\n      tag_130\n      swap2\n      swap1\n      tag_54\n      jump\t// in\n    tag_130:\n      mload(0x40)\n      dup1\n      swap2\n      sub\n      swap1\n      return\n        /* \"ERC20.sol\":2736:3137  function transfer(address to, uint256 amount)... */\n    tag_24:\n      tag_131\n      0x04\n      dup1\n      calldatasize\n      sub\n      dup2\n      add\n      swap1\n      tag_132\n      swap2\n      swap1\n      tag_62\n      jump\t// in\n    tag_132:\n      tag_133\n      jump\t// in\n    tag_131:\n      mload(0x40)\n      tag_134\n      swap2\n      swap1\n      tag_65\n      jump\t// in\n    tag_134:\n      mload(0x40)\n      dup1\n      swap2\n      sub\n      swap1\n      return\n        /* \"SquiddyCore.sol\":5016:5264  function claimFees(uint256 rvTokenAmount) external onlyManager {... */\n    tag_25:\n      tag_135\n      0x04\n      dup1\n      calldatasize\n      sub\n      dup2\n      add\n      swap1\n      tag_136\n      swap2\n      swap1\n      tag_57\n      jump\t// in\n    tag_136:\n      tag_137\n      jump\t// in\n    tag_135:\n      stop\n        /* \"ERC4626.sol\":5086:5337  function previewMint(uint256 shares) public view virtual returns (uint256) {... */\n    tag_26:\n      tag_138\n      0x04\n      dup1\n      calldatasize\n      sub\n      dup2\n      add\n      swap1\n      tag_139\n      swap2\n      swap1\n      tag_57\n      jump\t// in\n    tag_139:\n      tag_140\n      jump\t// in\n    tag_138:\n      mload(0x40)\n      tag_141\n      swap2\n      swap1\n      tag_50\n      jump\t// in\n    tag_141:\n      mload(0x40)\n      dup1\n      swap2\n      sub\n      swap1\n      return\n        /* \"ERC4626.sol\":2634:3329  function withdraw(... */\n    tag_27:\n      tag_142\n      0x04\n      dup1\n      calldatasize\n      sub\n      dup2\n      add\n      swap1\n      tag_143\n      swap2\n      swap1\n      tag_144\n      jump\t// in\n    tag_143:\n      tag_145\n      jump\t// in\n    tag_142:\n      mload(0x40)\n      tag_146\n      swap2\n      swap1\n      tag_50\n      jump\t// in\n    tag_146:\n      mload(0x40)\n      dup1\n      swap2\n      sub\n      swap1\n      return\n        /* \"ERC4626.sol\":3335:4064  function redeem(... */\n    tag_28:\n      tag_147\n      0x04\n      dup1\n      calldatasize\n      sub\n      dup2\n      add\n      swap1\n      tag_148\n      swap2\n      swap1\n      tag_144\n      jump\t// in\n    tag_148:\n      tag_149\n      jump\t// in\n    tag_147:\n      mload(0x40)\n      tag_150\n      swap2\n      swap1\n      tag_50\n      jump\t// in\n    tag_150:\n      mload(0x40)\n      dup1\n      swap2\n      sub\n      swap1\n      return\n        /* \"SquiddyCore.sol\":217:267  uint256 public beforeWithdrawHookCalledCounter = 0 */\n    tag_29:\n      tag_151\n      tag_152\n      jump\t// in\n    tag_151:\n      mload(0x40)\n      tag_153\n      swap2\n      swap1\n      tag_50\n      jump\t// in\n    tag_153:\n      mload(0x40)\n      dup1\n      swap2\n      sub\n      swap1\n      return\n        /* \"SquiddyCore.sol\":369:402  ERC20 public immutable UNDERLYING */\n    tag_30:\n      tag_154\n      tag_155\n      jump\t// in\n    tag_154:\n      mload(0x40)\n      tag_156\n      swap2\n      swap1\n      tag_89\n      jump\t// in\n    tag_156:\n      mload(0x40)\n      dup1\n      swap2\n      sub\n      swap1\n      return\n        /* \"ERC4626.sol\":6111:6216  function maxMint(address) public view virtual returns (uint256) {... */\n    tag_31:\n      tag_157\n      0x04\n      dup1\n      calldatasize\n      sub\n      dup2\n      add\n      swap1\n      tag_158\n      swap2\n      swap1\n      tag_92\n      jump\t// in\n    tag_158:\n      tag_159\n      jump\t// in\n    tag_157:\n      mload(0x40)\n      tag_160\n      swap2\n      swap1\n      tag_50\n      jump\t// in\n    tag_160:\n      mload(0x40)\n      dup1\n      swap2\n      sub\n      swap1\n      return\n        /* \"ERC4626.sol\":4321:4614  function convertToShares(uint256 assets)... */\n    tag_32:\n      tag_161\n      0x04\n      dup1\n      calldatasize\n      sub\n      dup2\n      add\n      swap1\n      tag_162\n      swap2\n      swap1\n      tag_57\n      jump\t// in\n    tag_162:\n      tag_163\n      jump\t// in\n    tag_161:\n      mload(0x40)\n      tag_164\n      swap2\n      swap1\n      tag_50\n      jump\t// in\n    tag_164:\n      mload(0x40)\n      dup1\n      swap2\n      sub\n      swap1\n      return\n        /* \"ERC4626.sol\":6222:6353  function maxWithdraw(address owner) public view virtual returns (uint256) {... */\n    tag_33:\n      tag_165\n      0x04\n      dup1\n      calldatasize\n      sub\n      dup2\n      add\n      swap1\n      tag_166\n      swap2\n      swap1\n      tag_92\n      jump\t// in\n    tag_166:\n      tag_167\n      jump\t// in\n    tag_165:\n      mload(0x40)\n      tag_168\n      swap2\n      swap1\n      tag_50\n      jump\t// in\n    tag_168:\n      mload(0x40)\n      dup1\n      swap2\n      sub\n      swap1\n      return\n        /* \"ERC20.sol\":3936:5465  function permit(... */\n    tag_34:\n      tag_169\n      0x04\n      dup1\n      calldatasize\n      sub\n      dup2\n      add\n      swap1\n      tag_170\n      swap2\n      swap1\n      tag_171\n      jump\t// in\n    tag_170:\n      tag_172\n      jump\t// in\n    tag_169:\n      stop\n        /* \"ERC4626.sol\":6359:6471  function maxRedeem(address owner) public view virtual returns (uint256) {... */\n    tag_35:\n      tag_173\n      0x04\n      dup1\n      calldatasize\n      sub\n      dup2\n      add\n      swap1\n      tag_174\n      swap2\n      swap1\n      tag_92\n      jump\t// in\n    tag_174:\n      tag_175\n      jump\t// in\n    tag_173:\n      mload(0x40)\n      tag_176\n      swap2\n      swap1\n      tag_50\n      jump\t// in\n    tag_176:\n      mload(0x40)\n      dup1\n      swap2\n      sub\n      swap1\n      return\n        /* \"ERC20.sol\":1418:1482  mapping(address => mapping(address => uint256)) public allowance */\n    tag_36:\n      tag_177\n      0x04\n      dup1\n      calldatasize\n      sub\n      dup2\n      add\n      swap1\n      tag_178\n      swap2\n      swap1\n      tag_179\n      jump\t// in\n    tag_178:\n      tag_180\n      jump\t// in\n    tag_177:\n      mload(0x40)\n      tag_181\n      swap2\n      swap1\n      tag_50\n      jump\t// in\n    tag_181:\n      mload(0x40)\n      dup1\n      swap2\n      sub\n      swap1\n      return\n        /* \"ERC4626.sol\":4919:5080  function previewDeposit(uint256 assets)... */\n    tag_37:\n      tag_182\n      0x04\n      dup1\n      calldatasize\n      sub\n      dup2\n      add\n      swap1\n      tag_183\n      swap2\n      swap1\n      tag_57\n      jump\t// in\n    tag_183:\n      tag_184\n      jump\t// in\n    tag_182:\n      mload(0x40)\n      tag_185\n      swap2\n      swap1\n      tag_50\n      jump\t// in\n    tag_185:\n      mload(0x40)\n      dup1\n      swap2\n      sub\n      swap1\n      return\n        /* \"SquiddyCore.sol\":3307:3589  function transferOwnership(address newOwner) public virtual onlyManager {... */\n    tag_38:\n      tag_186\n      0x04\n      dup1\n      calldatasize\n      sub\n      dup2\n      add\n      swap1\n      tag_187\n      swap2\n      swap1\n      tag_92\n      jump\t// in\n    tag_187:\n      tag_188\n      jump\t// in\n    tag_186:\n      stop\n        /* \"SquiddyCore.sol\":273:321  uint256 public afterDepositHookCalledCounter = 0 */\n    tag_39:\n      tag_189\n      tag_190\n      jump\t// in\n    tag_189:\n      mload(0x40)\n      tag_191\n      swap2\n      swap1\n      tag_50\n      jump\t// in\n    tag_191:\n      mload(0x40)\n      dup1\n      swap2\n      sub\n      swap1\n      return\n        /* \"SquiddyCore.sol\":1948:2064  function totalAssets() public view override returns (uint256) {... */\n    tag_48:\n        /* \"SquiddyCore.sol\":2001:2008  uint256 */\n      0x00\n        /* \"SquiddyCore.sol\":2027:2032  asset */\n      immutable(\"0xecac27c21aa9a89d7be9ad03c2d91e82cbd466284ecdf2bd5bad7f953539cc45\")\n        /* \"SquiddyCore.sol\":2027:2042  asset.balanceOf */\n      0xffffffffffffffffffffffffffffffffffffffff\n      and\n      0x70a08231\n        /* \"SquiddyCore.sol\":2051:2055  this */\n      address\n        /* \"SquiddyCore.sol\":2027:2057  asset.balanceOf(address(this)) */\n      mload(0x40)\n      dup3\n      0xffffffff\n      and\n      0xe0\n      shl\n      dup2\n      mstore\n      0x04\n      add\n      tag_193\n      swap2\n      swap1\n      tag_98\n      jump\t// in\n    tag_193:\n      0x20\n      mload(0x40)\n      dup1\n      dup4\n      sub\n      dup2\n      dup7\n      gas\n      staticcall\n      iszero\n      dup1\n      iszero\n      tag_195\n      jumpi\n      returndatasize\n      0x00\n      dup1\n      returndatacopy\n      revert(0x00, returndatasize)\n    tag_195:\n      pop\n      pop\n      pop\n      pop\n      mload(0x40)\n      returndatasize\n      not(0x1f)\n      0x1f\n      dup3\n      add\n      and\n      dup3\n      add\n      dup1\n      0x40\n      mstore\n      pop\n      dup2\n      add\n      swap1\n      tag_196\n      swap2\n      swap1\n      tag_197\n      jump\t// in\n    tag_196:\n        /* \"SquiddyCore.sol\":2020:2057  return asset.balanceOf(address(this)) */\n      swap1\n      pop\n        /* \"SquiddyCore.sol\":1948:2064  function totalAssets() public view override returns (uint256) {... */\n      swap1\n      jump\t// out\n        /* \"ERC20.sol\":1061:1079  string public name */\n    tag_52:\n      0x00\n      dup1\n      sload\n      tag_198\n      swap1\n      tag_199\n      jump\t// in\n    tag_198:\n      dup1\n      0x1f\n      add\n      0x20\n      dup1\n      swap2\n      div\n      mul\n      0x20\n      add\n      mload(0x40)\n      swap1\n      dup2\n      add\n      0x40\n      mstore\n      dup1\n      swap3\n      swap2\n      swap1\n      dup2\n      dup2\n      mstore\n      0x20\n      add\n      dup3\n      dup1\n      sload\n      tag_200\n      swap1\n      tag_199\n      jump\t// in\n    tag_200:\n      dup1\n      iszero\n      tag_201\n      jumpi\n      dup1\n      0x1f\n      lt\n      tag_202\n      jumpi\n      0x0100\n      dup1\n      dup4\n      sload\n      div\n      mul\n      dup4\n      mstore\n      swap2\n      0x20\n      add\n      swap2\n      jump(tag_201)\n    tag_202:\n      dup3\n      add\n      swap2\n      swap1\n      0x00\n      mstore\n      keccak256(0x00, 0x20)\n      swap1\n    tag_203:\n      dup2\n      sload\n      dup2\n      mstore\n      swap1\n      0x01\n      add\n      swap1\n      0x20\n      add\n      dup1\n      dup4\n      gt\n      tag_203\n      jumpi\n      dup3\n      swap1\n      sub\n      0x1f\n      and\n      dup3\n      add\n      swap2\n    tag_201:\n      pop\n      pop\n      pop\n      pop\n      pop\n      dup2\n      jump\t// out\n        /* \"ERC4626.sol\":4620:4913  function convertToAssets(uint256 shares)... */\n    tag_58:\n        /* \"ERC4626.sol\":4722:4729  uint256 */\n      0x00\n        /* \"ERC4626.sol\":4745:4759  uint256 supply */\n      dup1\n        /* \"ERC4626.sol\":4762:4773  totalSupply */\n      sload(0x02)\n        /* \"ERC4626.sol\":4745:4773  uint256 supply = totalSupply */\n      swap1\n      pop\n        /* \"ERC4626.sol\":4853:4854  0 */\n      0x00\n        /* \"ERC4626.sol\":4843:4849  supply */\n      dup2\n        /* \"ERC4626.sol\":4843:4854  supply == 0 */\n      eq\n        /* \"ERC4626.sol\":4843:4906  supply == 0 ? shares : shares.mulDivDown(totalAssets(), supply) */\n      tag_205\n      jumpi\n        /* \"ERC4626.sol\":4866:4906  shares.mulDivDown(totalAssets(), supply) */\n      tag_206\n        /* \"ERC4626.sol\":4884:4897  totalAssets() */\n      tag_207\n        /* \"ERC4626.sol\":4884:4895  totalAssets */\n      tag_48\n        /* \"ERC4626.sol\":4884:4897  totalAssets() */\n      jump\t// in\n    tag_207:\n        /* \"ERC4626.sol\":4899:4905  supply */\n      dup3\n        /* \"ERC4626.sol\":4866:4872  shares */\n      dup6\n        /* \"ERC4626.sol\":4866:4883  shares.mulDivDown */\n      tag_208\n      swap1\n        /* \"ERC4626.sol\":4866:4906  shares.mulDivDown(totalAssets(), supply) */\n      swap3\n      swap2\n      swap1\n      0xffffffff\n      and\n      jump\t// in\n    tag_206:\n        /* \"ERC4626.sol\":4843:4906  supply == 0 ? shares : shares.mulDivDown(totalAssets(), supply) */\n      jump(tag_209)\n    tag_205:\n        /* \"ERC4626.sol\":4857:4863  shares */\n      dup3\n        /* \"ERC4626.sol\":4843:4906  supply == 0 ? shares : shares.mulDivDown(totalAssets(), supply) */\n    tag_209:\n        /* \"ERC4626.sol\":4836:4906  return supply == 0 ? shares : shares.mulDivDown(totalAssets(), supply) */\n      swap2\n      pop\n      pop\n        /* \"ERC4626.sol\":4620:4913  function convertToAssets(uint256 shares)... */\n      swap2\n      swap1\n      pop\n      jump\t// out\n        /* \"ERC20.sol\":2491:2730  function approve(address spender, uint256 amount)... */\n    tag_63:\n        /* \"ERC20.sol\":2589:2593  bool */\n      0x00\n        /* \"ERC20.sol\":2642:2648  amount */\n      dup2\n        /* \"ERC20.sol\":2609:2618  allowance */\n      0x04\n        /* \"ERC20.sol\":2609:2630  allowance[msg.sender] */\n      0x00\n        /* \"ERC20.sol\":2619:2629  msg.sender */\n      caller\n        /* \"ERC20.sol\":2609:2630  allowance[msg.sender] */\n      0xffffffffffffffffffffffffffffffffffffffff\n      and\n      0xffffffffffffffffffffffffffffffffffffffff\n      and\n      dup2\n      mstore\n      0x20\n      add\n      swap1\n      dup2\n      mstore\n      0x20\n      add\n      0x00\n      keccak256\n        /* \"ERC20.sol\":2609:2639  allowance[msg.sender][spender] */\n      0x00\n        /* \"ERC20.sol\":2631:2638  spender */\n      dup6\n        /* \"ERC20.sol\":2609:2639  allowance[msg.sender][spender] */\n      0xffffffffffffffffffffffffffffffffffffffff\n      and\n      0xffffffffffffffffffffffffffffffffffffffff\n      and\n      dup2\n      mstore\n      0x20\n      add\n      swap1\n      dup2\n      mstore\n      0x20\n      add\n      0x00\n      keccak256\n        /* \"ERC20.sol\":2609:2648  allowance[msg.sender][spender] = amount */\n      dup2\n      swap1\n      sstore\n      pop\n        /* \"ERC20.sol\":2685:2692  spender */\n      dup3\n        /* \"ERC20.sol\":2664:2701  Approval(msg.sender, spender, amount) */\n      0xffffffffffffffffffffffffffffffffffffffff\n      and\n        /* \"ERC20.sol\":2673:2683  msg.sender */\n      caller\n        /* \"ERC20.sol\":2664:2701  Approval(msg.sender, spender, amount) */\n      0xffffffffffffffffffffffffffffffffffffffff\n      and\n      0x8c5be1e5ebec7d5bd14f71427d1e84f3dd0314c0f7b2291e5b200ac8c7c3b925\n        /* \"ERC20.sol\":2694:2700  amount */\n      dup5\n        /* \"ERC20.sol\":2664:2701  Approval(msg.sender, spender, amount) */\n      mload(0x40)\n      tag_211\n      swap2\n      swap1\n      tag_50\n      jump\t// in\n    tag_211:\n      mload(0x40)\n      dup1\n      swap2\n      sub\n      swap1\n      log3\n        /* \"ERC20.sol\":2719:2723  true */\n      0x01\n        /* \"ERC20.sol\":2712:2723  return true */\n      swap1\n      pop\n        /* \"ERC20.sol\":2491:2730  function approve(address spender, uint256 amount)... */\n      swap3\n      swap2\n      pop\n      pop\n      jump\t// out\n        /* \"ERC4626.sol\":5343:5634  function previewWithdraw(uint256 assets)... */\n    tag_68:\n        /* \"ERC4626.sol\":5445:5452  uint256 */\n      0x00\n        /* \"ERC4626.sol\":5468:5482  uint256 supply */\n      dup1\n        /* \"ERC4626.sol\":5485:5496  totalSupply */\n      sload(0x02)\n        /* \"ERC4626.sol\":5468:5496  uint256 supply = totalSupply */\n      swap1\n      pop\n        /* \"ERC4626.sol\":5576:5577  0 */\n      0x00\n        /* \"ERC4626.sol\":5566:5572  supply */\n      dup2\n        /* \"ERC4626.sol\":5566:5577  supply == 0 */\n      eq\n        /* \"ERC4626.sol\":5566:5627  supply == 0 ? assets : assets.mulDivUp(supply, totalAssets()) */\n      tag_213\n      jumpi\n        /* \"ERC4626.sol\":5589:5627  assets.mulDivUp(supply, totalAssets()) */\n      tag_214\n        /* \"ERC4626.sol\":5605:5611  supply */\n      dup2\n        /* \"ERC4626.sol\":5613:5626  totalAssets() */\n      tag_215\n        /* \"ERC4626.sol\":5613:5624  totalAssets */\n      tag_48\n        /* \"ERC4626.sol\":5613:5626  totalAssets() */\n      jump\t// in\n    tag_215:\n        /* \"ERC4626.sol\":5589:5595  assets */\n      dup6\n        /* \"ERC4626.sol\":5589:5604  assets.mulDivUp */\n      tag_216\n      swap1\n        /* \"ERC4626.sol\":5589:5627  assets.mulDivUp(supply, totalAssets()) */\n      swap3\n      swap2\n      swap1\n      0xffffffff\n      and\n      jump\t// in\n    tag_214:\n        /* \"ERC4626.sol\":5566:5627  supply == 0 ? assets : assets.mulDivUp(supply, totalAssets()) */\n      jump(tag_217)\n    tag_213:\n        /* \"ERC4626.sol\":5580:5586  assets */\n      dup3\n        /* \"ERC4626.sol\":5566:5627  supply == 0 ? assets : assets.mulDivUp(supply, totalAssets()) */\n    tag_217:\n        /* \"ERC4626.sol\":5559:5627  return supply == 0 ? assets : assets.mulDivUp(supply, totalAssets()) */\n      swap2\n      pop\n      pop\n        /* \"ERC4626.sol\":5343:5634  function previewWithdraw(uint256 assets)... */\n      swap2\n      swap1\n      pop\n      jump\t// out\n        /* \"ERC20.sol\":1334:1360  uint256 public totalSupply */\n    tag_71:\n      sload(0x02)\n      dup2\n      jump\t// out\n        /* \"ERC20.sol\":3143:3747  function transferFrom(... */\n    tag_76:\n        /* \"ERC20.sol\":3261:3265  bool */\n      0x00\n        /* \"ERC20.sol\":3277:3292  uint256 allowed */\n      dup1\n        /* \"ERC20.sol\":3295:3304  allowance */\n      0x04\n        /* \"ERC20.sol\":3295:3310  allowance[from] */\n      0x00\n        /* \"ERC20.sol\":3305:3309  from */\n      dup7\n        /* \"ERC20.sol\":3295:3310  allowance[from] */\n      0xffffffffffffffffffffffffffffffffffffffff\n      and\n      0xffffffffffffffffffffffffffffffffffffffff\n      and\n      dup2\n      mstore\n      0x20\n      add\n      swap1\n      dup2\n      mstore\n      0x20\n      add\n      0x00\n      keccak256\n        /* \"ERC20.sol\":3295:3322  allowance[from][msg.sender] */\n      0x00\n        /* \"ERC20.sol\":3311:3321  msg.sender */\n      caller\n        /* \"ERC20.sol\":3295:3322  allowance[from][msg.sender] */\n      0xffffffffffffffffffffffffffffffffffffffff\n      and\n      0xffffffffffffffffffffffffffffffffffffffff\n      and\n      dup2\n      mstore\n      0x20\n      add\n      swap1\n      dup2\n      mstore\n      0x20\n      add\n      0x00\n      keccak256\n      sload\n        /* \"ERC20.sol\":3277:3322  uint256 allowed = allowance[from][msg.sender] */\n      swap1\n      pop\n        /* \"ERC20.sol\":3384:3401  type(uint256).max */\n      0xffffffffffffffffffffffffffffffffffffffffffffffffffffffffffffffff\n        /* \"ERC20.sol\":3373:3380  allowed */\n      dup2\n        /* \"ERC20.sol\":3373:3401  allowed != type(uint256).max */\n      eq\n        /* \"ERC20.sol\":3369:3461  if (allowed != type(uint256).max)... */\n      tag_219\n      jumpi\n        /* \"ERC20.sol\":3455:3461  amount */\n      dup3\n        /* \"ERC20.sol\":3445:3452  allowed */\n      dup2\n        /* \"ERC20.sol\":3445:3461  allowed - amount */\n      tag_220\n      swap2\n      swap1\n      tag_221\n      jump\t// in\n    tag_220:\n        /* \"ERC20.sol\":3415:3424  allowance */\n      0x04\n        /* \"ERC20.sol\":3415:3430  allowance[from] */\n      0x00\n        /* \"ERC20.sol\":3425:3429  from */\n      dup8\n        /* \"ERC20.sol\":3415:3430  allowance[from] */\n      0xffffffffffffffffffffffffffffffffffffffff\n      and\n      0xffffffffffffffffffffffffffffffffffffffff\n      and\n      dup2\n      mstore\n      0x20\n      add\n      swap1\n      dup2\n      mstore\n      0x20\n      add\n      0x00\n      keccak256\n        /* \"ERC20.sol\":3415:3442  allowance[from][msg.sender] */\n      0x00\n        /* \"ERC20.sol\":3431:3441  msg.sender */\n      caller\n        /* \"ERC20.sol\":3415:3442  allowance[from][msg.sender] */\n      0xffffffffffffffffffffffffffffffffffffffff\n      and\n      0xffffffffffffffffffffffffffffffffffffffff\n      and\n      dup2\n      mstore\n      0x20\n      add\n      swap1\n      dup2\n      mstore\n      0x20\n      add\n      0x00\n      keccak256\n        /* \"ERC20.sol\":3415:3461  allowance[from][msg.sender] = allowed - amount */\n      dup2\n      swap1\n      sstore\n      pop\n        /* \"ERC20.sol\":3369:3461  if (allowed != type(uint256).max)... */\n    tag_219:\n        /* \"ERC20.sol\":3491:3497  amount */\n      dup3\n        /* \"ERC20.sol\":3472:3481  balanceOf */\n      0x03\n        /* \"ERC20.sol\":3472:3487  balanceOf[from] */\n      0x00\n        /* \"ERC20.sol\":3482:3486  from */\n      dup8\n        /* \"ERC20.sol\":3472:3487  balanceOf[from] */\n      0xffffffffffffffffffffffffffffffffffffffff\n      and\n      0xffffffffffffffffffffffffffffffffffffffff\n      and\n      dup2\n      mstore\n      0x20\n      add\n      swap1\n      dup2\n      mstore\n      0x20\n      add\n      0x00\n      keccak256\n      0x00\n        /* \"ERC20.sol\":3472:3497  balanceOf[from] -= amount */\n      dup3\n      dup3\n      sload\n      tag_222\n      swap2\n      swap1\n      tag_221\n      jump\t// in\n    tag_222:\n      swap3\n      pop\n      pop\n      dup2\n      swap1\n      sstore\n      pop\n        /* \"ERC20.sol\":3660:3666  amount */\n      dup3\n        /* \"ERC20.sol\":3643:3652  balanceOf */\n      0x03\n        /* \"ERC20.sol\":3643:3656  balanceOf[to] */\n      0x00\n        /* \"ERC20.sol\":3653:3655  to */\n      dup7\n        /* \"ERC20.sol\":3643:3656  balanceOf[to] */\n      0xffffffffffffffffffffffffffffffffffffffff\n      and\n      0xffffffffffffffffffffffffffffffffffffffff\n      and\n      dup2\n      mstore\n      0x20\n      add\n      swap1\n      dup2\n      mstore\n      0x20\n      add\n      0x00\n      keccak256\n      0x00\n        /* \"ERC20.sol\":3643:3666  balanceOf[to] += amount */\n      dup3\n      dup3\n      sload\n      add\n      swap3\n      pop\n      pop\n      dup2\n      swap1\n      sstore\n      pop\n        /* \"ERC20.sol\":3707:3709  to */\n      dup4\n        /* \"ERC20.sol\":3692:3718  Transfer(from, to, amount) */\n      0xffffffffffffffffffffffffffffffffffffffff\n      and\n        /* \"ERC20.sol\":3701:3705  from */\n      dup6\n        /* \"ERC20.sol\":3692:3718  Transfer(from, to, amount) */\n      0xffffffffffffffffffffffffffffffffffffffff\n      and\n      0xddf252ad1be2c89b69c2b068fc378daa952ba7f163c4a11628f55a4df523b3ef\n        /* \"ERC20.sol\":3711:3717  amount */\n      dup6\n        /* \"ERC20.sol\":3692:3718  Transfer(from, to, amount) */\n      mload(0x40)\n      tag_223\n      swap2\n      swap1\n      tag_50\n      jump\t// in\n    tag_223:\n      mload(0x40)\n      dup1\n      swap2\n      sub\n      swap1\n      log3\n        /* \"ERC20.sol\":3736:3740  true */\n      0x01\n        /* \"ERC20.sol\":3729:3740  return true */\n      swap2\n      pop\n      pop\n        /* \"ERC20.sol\":3143:3747  function transferFrom(... */\n      swap4\n      swap3\n      pop\n      pop\n      pop\n      jump\t// out\n        /* \"ERC20.sol\":1113:1144  uint8 public immutable decimals */\n    tag_79:\n      immutable(\"0x6585423cb6456b1d4957f6454d2f004f0c4f58d53a00082412d5c2ef4b1b31fd\")\n      dup2\n      jump\t// out\n        /* \"ERC20.sol\":5471:5692  function DOMAIN_SEPARATOR() public view virtual returns (bytes32) {... */\n    tag_83:\n        /* \"ERC20.sol\":5528:5535  bytes32 */\n      0x00\n        /* \"ERC20.sol\":5583:5599  INITIAL_CHAIN_ID */\n      immutable(\"0xd67d834462ca31eaef1f30157e31659f60355143b7441e6fc7d9eae1fa79f3f8\")\n        /* \"ERC20.sol\":5566:5579  block.chainid */\n      chainid\n        /* \"ERC20.sol\":5566:5599  block.chainid == INITIAL_CHAIN_ID */\n      eq\n        /* \"ERC20.sol\":5566:5685  block.chainid == INITIAL_CHAIN_ID... */\n      tag_225\n      jumpi\n        /* \"ERC20.sol\":5661:5685  computeDomainSeparator() */\n      tag_226\n        /* \"ERC20.sol\":5661:5683  computeDomainSeparator */\n      tag_227\n        /* \"ERC20.sol\":5661:5685  computeDomainSeparator() */\n      jump\t// in\n    tag_226:\n        /* \"ERC20.sol\":5566:5685  block.chainid == INITIAL_CHAIN_ID... */\n      jump(tag_228)\n    tag_225:\n        /* \"ERC20.sol\":5618:5642  INITIAL_DOMAIN_SEPARATOR */\n      immutable(\"0x880de8116b3dfac28e9ff528a9fef1d1e0a51449c1addce011ffec1f302992b6\")\n        /* \"ERC20.sol\":5566:5685  block.chainid == INITIAL_CHAIN_ID... */\n    tag_228:\n        /* \"ERC20.sol\":5547:5685  return... */\n      swap1\n      pop\n        /* \"ERC20.sol\":5471:5692  function DOMAIN_SEPARATOR() public view virtual returns (bytes32) {... */\n      swap1\n      jump\t// out\n        /* \"ERC4626.sol\":1165:1193  ERC20 public immutable asset */\n    tag_87:\n      immutable(\"0xecac27c21aa9a89d7be9ad03c2d91e82cbd466284ecdf2bd5bad7f953539cc45\")\n      dup2\n      jump\t// out\n        /* \"ERC4626.sol\":5997:6105  function maxDeposit(address) public view virtual returns (uint256) {... */\n    tag_93:\n        /* \"ERC4626.sol\":6055:6062  uint256 */\n      0x00\n        /* \"ERC4626.sol\":6081:6098  type(uint256).max */\n      0xffffffffffffffffffffffffffffffffffffffffffffffffffffffffffffffff\n        /* \"ERC4626.sol\":6074:6098  return type(uint256).max */\n      swap1\n      pop\n        /* \"ERC4626.sol\":5997:6105  function maxDeposit(address) public view virtual returns (uint256) {... */\n      swap2\n      swap1\n      pop\n      jump\t// out\n        /* \"SquiddyCore.sol\":2565:2654  function manager() public view virtual returns (address) {... */\n    tag_96:\n        /* \"SquiddyCore.sol\":2613:2620  address */\n      0x00\n        /* \"SquiddyCore.sol\":2639:2647  _manager */\n      0x06\n      0x00\n      swap1\n      sload\n      swap1\n      0x0100\n      exp\n      swap1\n      div\n      0xffffffffffffffffffffffffffffffffffffffff\n      and\n        /* \"SquiddyCore.sol\":2632:2647  return _manager */\n      swap1\n      pop\n        /* \"SquiddyCore.sol\":2565:2654  function manager() public view virtual returns (address) {... */\n      swap1\n      jump\t// out\n        /* \"ERC4626.sol\":5640:5800  function previewRedeem(uint256 shares)... */\n    tag_101:\n        /* \"ERC4626.sol\":5740:5747  uint256 */\n      0x00\n        /* \"ERC4626.sol\":5770:5793  convertToAssets(shares) */\n      tag_232\n        /* \"ERC4626.sol\":5786:5792  shares */\n      dup3\n        /* \"ERC4626.sol\":5770:5785  convertToAssets */\n      tag_58\n        /* \"ERC4626.sol\":5770:5793  convertToAssets(shares) */\n      jump\t// in\n    tag_232:\n        /* \"ERC4626.sol\":5763:5793  return convertToAssets(shares) */\n      swap1\n      pop\n        /* \"ERC4626.sol\":5640:5800  function previewRedeem(uint256 shares)... */\n      swap2\n      swap1\n      pop\n      jump\t// out\n        /* \"ERC4626.sol\":1583:2127  function deposit(uint256 assets, address receiver)... */\n    tag_106:\n        /* \"ERC4626.sol\":1682:1696  uint256 shares */\n      0x00\n        /* \"ERC4626.sol\":1832:1833  0 */\n      dup1\n        /* \"ERC4626.sol\":1805:1827  previewDeposit(assets) */\n      tag_234\n        /* \"ERC4626.sol\":1820:1826  assets */\n      dup5\n        /* \"ERC4626.sol\":1805:1819  previewDeposit */\n      tag_184\n        /* \"ERC4626.sol\":1805:1827  previewDeposit(assets) */\n      jump\t// in\n    tag_234:\n        /* \"ERC4626.sol\":1796:1827  shares = previewDeposit(assets) */\n      swap2\n      pop\n      dup2\n        /* \"ERC4626.sol\":1795:1833  (shares = previewDeposit(assets)) != 0 */\n      eq\n      iszero\n        /* \"ERC4626.sol\":1787:1849  require((shares = previewDeposit(assets)) != 0, \"ZERO_SHARES\") */\n      tag_235\n      jumpi\n      mload(0x40)\n      0x08c379a000000000000000000000000000000000000000000000000000000000\n      dup2\n      mstore\n      0x04\n      add\n      tag_236\n      swap1\n      tag_237\n      jump\t// in\n    tag_236:\n      mload(0x40)\n      dup1\n      swap2\n      sub\n      swap1\n      revert\n    tag_235:\n        /* \"ERC4626.sol\":1929:1986  asset.safeTransferFrom(msg.sender, address(this), assets) */\n      tag_238\n        /* \"ERC4626.sol\":1952:1962  msg.sender */\n      caller\n        /* \"ERC4626.sol\":1972:1976  this */\n      address\n        /* \"ERC4626.sol\":1979:1985  assets */\n      dup6\n        /* \"ERC4626.sol\":1929:1934  asset */\n      immutable(\"0xecac27c21aa9a89d7be9ad03c2d91e82cbd466284ecdf2bd5bad7f953539cc45\")\n        /* \"ERC4626.sol\":1929:1951  asset.safeTransferFrom */\n      0xffffffffffffffffffffffffffffffffffffffff\n      and\n      tag_239\n      swap1\n        /* \"ERC4626.sol\":1929:1986  asset.safeTransferFrom(msg.sender, address(this), assets) */\n      swap4\n      swap3\n      swap2\n      swap1\n      0xffffffff\n      and\n      jump\t// in\n    tag_238:\n        /* \"ERC4626.sol\":1997:2020  _mint(receiver, shares) */\n      tag_240\n        /* \"ERC4626.sol\":2003:2011  receiver */\n      dup3\n        /* \"ERC4626.sol\":2013:2019  shares */\n      dup3\n        /* \"ERC4626.sol\":1997:2002  _mint */\n      tag_241\n        /* \"ERC4626.sol\":1997:2020  _mint(receiver, shares) */\n      jump\t// in\n    tag_240:\n        /* \"ERC4626.sol\":2056:2064  receiver */\n      dup2\n        /* \"ERC4626.sol\":2036:2081  Deposit(msg.sender, receiver, assets, shares) */\n      0xffffffffffffffffffffffffffffffffffffffff\n      and\n        /* \"ERC4626.sol\":2044:2054  msg.sender */\n      caller\n        /* \"ERC4626.sol\":2036:2081  Deposit(msg.sender, receiver, assets, shares) */\n      0xffffffffffffffffffffffffffffffffffffffff\n      and\n      0xdcbc1c05240f31ff3ad067ef1ee35ce4997762752e3a095284754544f4c709d7\n        /* \"ERC4626.sol\":2066:2072  assets */\n      dup6\n        /* \"ERC4626.sol\":2074:2080  shares */\n      dup5\n        /* \"ERC4626.sol\":2036:2081  Deposit(msg.sender, receiver, assets, shares) */\n      mload(0x40)\n      tag_242\n      swap3\n      swap2\n      swap1\n      tag_243\n      jump\t// in\n    tag_242:\n      mload(0x40)\n      dup1\n      swap2\n      sub\n      swap1\n      log3\n        /* \"ERC4626.sol\":2092:2120  afterDeposit(assets, shares) */\n      tag_244\n        /* \"ERC4626.sol\":2105:2111  assets */\n      dup4\n        /* \"ERC4626.sol\":2113:2119  shares */\n      dup3\n        /* \"ERC4626.sol\":2092:2104  afterDeposit */\n      tag_245\n        /* \"ERC4626.sol\":2092:2120  afterDeposit(assets, shares) */\n      jump\t// in\n    tag_244:\n        /* \"ERC4626.sol\":1583:2127  function deposit(uint256 assets, address receiver)... */\n      swap3\n      swap2\n      pop\n      pop\n      jump\t// out\n        /* \"ERC20.sol\":1367:1411  mapping(address => uint256) public balanceOf */\n    tag_110:\n      mstore(0x20, 0x03)\n      dup1\n      0x00\n      mstore\n      keccak256(0x00, 0x40)\n      0x00\n      swap2\n      pop\n      swap1\n      pop\n      sload\n      dup2\n      jump\t// out\n        /* \"SquiddyCore.sol\":3005:3156  function renounceOwnership() public virtual onlyManager {... */\n    tag_113:\n        /* \"SquiddyCore.sol\":1395:1405  msg.sender */\n      caller\n        /* \"SquiddyCore.sol\":1382:1405  manager() == msg.sender */\n      0xffffffffffffffffffffffffffffffffffffffff\n      and\n        /* \"SquiddyCore.sol\":1382:1391  manager() */\n      tag_247\n        /* \"SquiddyCore.sol\":1382:1389  manager */\n      tag_96\n        /* \"SquiddyCore.sol\":1382:1391  manager() */\n      jump\t// in\n    tag_247:\n        /* \"SquiddyCore.sol\":1382:1405  manager() == msg.sender */\n      0xffffffffffffffffffffffffffffffffffffffff\n      and\n      eq\n        /* \"SquiddyCore.sol\":1374:1444  require(manager() == msg.sender, \"Ownable: caller is not the manager\") */\n      tag_248\n      jumpi\n      mload(0x40)\n      0x08c379a000000000000000000000000000000000000000000000000000000000\n      dup2\n      mstore\n      0x04\n      add\n      tag_249\n      swap1\n      tag_250\n      jump\t// in\n    tag_249:\n      mload(0x40)\n      dup1\n      swap2\n      sub\n      swap1\n      revert\n    tag_248:\n        /* \"SquiddyCore.sol\":3115:3116  0 */\n      0x00\n        /* \"SquiddyCore.sol\":3076:3118  OwnershipTransferred(_manager, address(0)) */\n      0xffffffffffffffffffffffffffffffffffffffff\n      and\n        /* \"SquiddyCore.sol\":3097:3105  _manager */\n      0x06\n      0x00\n      swap1\n      sload\n      swap1\n      0x0100\n      exp\n      swap1\n      div\n      0xffffffffffffffffffffffffffffffffffffffff\n      and\n        /* \"SquiddyCore.sol\":3076:3118  OwnershipTransferred(_manager, address(0)) */\n      0xffffffffffffffffffffffffffffffffffffffff\n      and\n      0x8be0079c531659141344cd1fd0a4f28419497f9722a3daafe3b4186f6b6457e0\n      mload(0x40)\n      mload(0x40)\n      dup1\n      swap2\n      sub\n      swap1\n      log3\n        /* \"SquiddyCore.sol\":3147:3148  0 */\n      0x00\n        /* \"SquiddyCore.sol\":3128:3136  _manager */\n      0x06\n      0x00\n        /* \"SquiddyCore.sol\":3128:3149  _manager = address(0) */\n      0x0100\n      exp\n      dup2\n      sload\n      dup2\n      0xffffffffffffffffffffffffffffffffffffffff\n      mul\n      not\n      and\n      swap1\n      dup4\n      0xffffffffffffffffffffffffffffffffffffffff\n      and\n      mul\n      or\n      swap1\n      sstore\n      pop\n        /* \"SquiddyCore.sol\":3005:3156  function renounceOwnership() public virtual onlyManager {... */\n      jump\t// out\n        /* \"SquiddyCore.sol\":4253:4576  function setFeePercent(uint256 newFeePercent) external onlyManager {... */\n    tag_116:\n        /* \"SquiddyCore.sol\":1395:1405  msg.sender */\n      caller\n        /* \"SquiddyCore.sol\":1382:1405  manager() == msg.sender */\n      0xffffffffffffffffffffffffffffffffffffffff\n      and\n        /* \"SquiddyCore.sol\":1382:1391  manager() */\n      tag_253\n        /* \"SquiddyCore.sol\":1382:1389  manager */\n      tag_96\n        /* \"SquiddyCore.sol\":1382:1391  manager() */\n      jump\t// in\n    tag_253:\n        /* \"SquiddyCore.sol\":1382:1405  manager() == msg.sender */\n      0xffffffffffffffffffffffffffffffffffffffff\n      and\n      eq\n        /* \"SquiddyCore.sol\":1374:1444  require(manager() == msg.sender, \"Ownable: caller is not the manager\") */\n      tag_254\n      jumpi\n      mload(0x40)\n      0x08c379a000000000000000000000000000000000000000000000000000000000\n      dup2\n      mstore\n      0x04\n      add\n      tag_255\n      swap1\n      tag_250\n      jump\t// in\n    tag_255:\n      mload(0x40)\n      dup1\n      swap2\n      sub\n      swap1\n      revert\n    tag_254:\n        /* \"SquiddyCore.sol\":4413:4417  1e18 */\n      0x0de0b6b3a7640000\n        /* \"SquiddyCore.sol\":4396:4409  newFeePercent */\n      dup2\n        /* \"SquiddyCore.sol\":4396:4417  newFeePercent <= 1e18 */\n      gt\n      iszero\n        /* \"SquiddyCore.sol\":4388:4434  require(newFeePercent <= 1e18, \"FEE_TOO_HIGH\") */\n      tag_257\n      jumpi\n      mload(0x40)\n      0x08c379a000000000000000000000000000000000000000000000000000000000\n      dup2\n      mstore\n      0x04\n      add\n      tag_258\n      swap1\n      tag_259\n      jump\t// in\n    tag_258:\n      mload(0x40)\n      dup1\n      swap2\n      sub\n      swap1\n      revert\n    tag_257:\n        /* \"SquiddyCore.sol\":4496:4509  newFeePercent */\n      dup1\n        /* \"SquiddyCore.sol\":4483:4493  feePercent */\n      0x09\n        /* \"SquiddyCore.sol\":4483:4509  feePercent = newFeePercent */\n      dup2\n      swap1\n      sstore\n      pop\n        /* \"SquiddyCore.sol\":4543:4553  msg.sender */\n      caller\n        /* \"SquiddyCore.sol\":4525:4569  FeePercentUpdated(msg.sender, newFeePercent) */\n      0xffffffffffffffffffffffffffffffffffffffff\n      and\n      0xec370615cc81fb334e5566fbc80664d9082377bf59288d64a79f3fbecf4323a9\n        /* \"SquiddyCore.sol\":4555:4568  newFeePercent */\n      dup3\n        /* \"SquiddyCore.sol\":4525:4569  FeePercentUpdated(msg.sender, newFeePercent) */\n      mload(0x40)\n      tag_260\n      swap2\n      swap1\n      tag_50\n      jump\t// in\n    tag_260:\n      mload(0x40)\n      dup1\n      swap2\n      sub\n      swap1\n      log2\n        /* \"SquiddyCore.sol\":4253:4576  function setFeePercent(uint256 newFeePercent) external onlyManager {... */\n      pop\n      jump\t// out\n        /* \"ERC20.sol\":1781:1822  mapping(address => uint256) public nonces */\n    tag_119:\n      mstore(0x20, 0x05)\n      dup1\n      0x00\n      mstore\n      keccak256(0x00, 0x40)\n      0x00\n      swap2\n      pop\n      swap1\n      pop\n      sload\n      dup2\n      jump\t// out\n        /* \"SquiddyCore.sol\":3871:3896  uint256 public feePercent */\n    tag_122:\n      sload(0x09)\n      dup2\n      jump\t// out\n        /* \"ERC4626.sol\":2133:2628  function mint(uint256 shares, address receiver)... */\n    tag_126:\n        /* \"ERC4626.sol\":2229:2243  uint256 assets */\n      0x00\n        /* \"ERC4626.sol\":2268:2287  previewMint(shares) */\n      tag_262\n        /* \"ERC4626.sol\":2280:2286  shares */\n      dup4\n        /* \"ERC4626.sol\":2268:2279  previewMint */\n      tag_140\n        /* \"ERC4626.sol\":2268:2287  previewMint(shares) */\n      jump\t// in\n    tag_262:\n        /* \"ERC4626.sol\":2259:2287  assets = previewMint(shares) */\n      swap1\n      pop\n        /* \"ERC4626.sol\":2430:2487  asset.safeTransferFrom(msg.sender, address(this), assets) */\n      tag_263\n        /* \"ERC4626.sol\":2453:2463  msg.sender */\n      caller\n        /* \"ERC4626.sol\":2473:2477  this */\n      address\n        /* \"ERC4626.sol\":2480:2486  assets */\n      dup4\n        /* \"ERC4626.sol\":2430:2435  asset */\n      immutable(\"0xecac27c21aa9a89d7be9ad03c2d91e82cbd466284ecdf2bd5bad7f953539cc45\")\n        /* \"ERC4626.sol\":2430:2452  asset.safeTransferFrom */\n      0xffffffffffffffffffffffffffffffffffffffff\n      and\n      tag_239\n      swap1\n        /* \"ERC4626.sol\":2430:2487  asset.safeTransferFrom(msg.sender, address(this), assets) */\n      swap4\n      swap3\n      swap2\n      swap1\n      0xffffffff\n      and\n      jump\t// in\n    tag_263:\n        /* \"ERC4626.sol\":2498:2521  _mint(receiver, shares) */\n      tag_264\n        /* \"ERC4626.sol\":2504:2512  receiver */\n      dup3\n        /* \"ERC4626.sol\":2514:2520  shares */\n      dup5\n        /* \"ERC4626.sol\":2498:2503  _mint */\n      tag_241\n        /* \"ERC4626.sol\":2498:2521  _mint(receiver, shares) */\n      jump\t// in\n    tag_264:\n        /* \"ERC4626.sol\":2557:2565  receiver */\n      dup2\n        /* \"ERC4626.sol\":2537:2582  Deposit(msg.sender, receiver, assets, shares) */\n      0xffffffffffffffffffffffffffffffffffffffff\n      and\n        /* \"ERC4626.sol\":2545:2555  msg.sender */\n      caller\n        /* \"ERC4626.sol\":2537:2582  Deposit(msg.sender, receiver, assets, shares) */\n      0xffffffffffffffffffffffffffffffffffffffff\n      and\n      0xdcbc1c05240f31ff3ad067ef1ee35ce4997762752e3a095284754544f4c709d7\n        /* \"ERC4626.sol\":2567:2573  assets */\n      dup4\n        /* \"ERC4626.sol\":2575:2581  shares */\n      dup7\n        /* \"ERC4626.sol\":2537:2582  Deposit(msg.sender, receiver, assets, shares) */\n      mload(0x40)\n      tag_265\n      swap3\n      swap2\n      swap1\n      tag_243\n      jump\t// in\n    tag_265:\n      mload(0x40)\n      dup1\n      swap2\n      sub\n      swap1\n      log3\n        /* \"ERC4626.sol\":2593:2621  afterDeposit(assets, shares) */\n      tag_266\n        /* \"ERC4626.sol\":2606:2612  assets */\n      dup2\n        /* \"ERC4626.sol\":2614:2620  shares */\n      dup5\n        /* \"ERC4626.sol\":2593:2605  afterDeposit */\n      tag_245\n        /* \"ERC4626.sol\":2593:2621  afterDeposit(assets, shares) */\n      jump\t// in\n    tag_266:\n        /* \"ERC4626.sol\":2133:2628  function mint(uint256 shares, address receiver)... */\n      swap3\n      swap2\n      pop\n      pop\n      jump\t// out\n        /* \"ERC20.sol\":1086:1106  string public symbol */\n    tag_129:\n      0x01\n      dup1\n      sload\n      tag_267\n      swap1\n      tag_199\n      jump\t// in\n    tag_267:\n      dup1\n      0x1f\n      add\n      0x20\n      dup1\n      swap2\n      div\n      mul\n      0x20\n      add\n      mload(0x40)\n      swap1\n      dup2\n      add\n      0x40\n      mstore\n      dup1\n      swap3\n      swap2\n      swap1\n      dup2\n      dup2\n      mstore\n      0x20\n      add\n      dup3\n      dup1\n      sload\n      tag_268\n      swap1\n      tag_199\n      jump\t// in\n    tag_268:\n      dup1\n      iszero\n      tag_269\n      jumpi\n      dup1\n      0x1f\n      lt\n      tag_270\n      jumpi\n      0x0100\n      dup1\n      dup4\n      sload\n      div\n      mul\n      dup4\n      mstore\n      swap2\n      0x20\n      add\n      swap2\n      jump(tag_269)\n    tag_270:\n      dup3\n      add\n      swap2\n      swap1\n      0x00\n      mstore\n      keccak256(0x00, 0x20)\n      swap1\n    tag_271:\n      dup2\n      sload\n      dup2\n      mstore\n      swap1\n      0x01\n      add\n      swap1\n      0x20\n      add\n      dup1\n      dup4\n      gt\n      tag_271\n      jumpi\n      dup3\n      swap1\n      sub\n      0x1f\n      and\n      dup3\n      add\n      swap2\n    tag_269:\n      pop\n      pop\n      pop\n      pop\n      pop\n      dup2\n      jump\t// out\n        /* \"ERC20.sol\":2736:3137  function transfer(address to, uint256 amount)... */\n    tag_133:\n        /* \"ERC20.sol\":2830:2834  bool */\n      0x00\n        /* \"ERC20.sol\":2875:2881  amount */\n      dup2\n        /* \"ERC20.sol\":2850:2859  balanceOf */\n      0x03\n        /* \"ERC20.sol\":2850:2871  balanceOf[msg.sender] */\n      0x00\n        /* \"ERC20.sol\":2860:2870  msg.sender */\n      caller\n        /* \"ERC20.sol\":2850:2871  balanceOf[msg.sender] */\n      0xffffffffffffffffffffffffffffffffffffffff\n      and\n      0xffffffffffffffffffffffffffffffffffffffff\n      and\n      dup2\n      mstore\n      0x20\n      add\n      swap1\n      dup2\n      mstore\n      0x20\n      add\n      0x00\n      keccak256\n      0x00\n        /* \"ERC20.sol\":2850:2881  balanceOf[msg.sender] -= amount */\n      dup3\n      dup3\n      sload\n      tag_273\n      swap2\n      swap1\n      tag_221\n      jump\t// in\n    tag_273:\n      swap3\n      pop\n      pop\n      dup2\n      swap1\n      sstore\n      pop\n        /* \"ERC20.sol\":3044:3050  amount */\n      dup2\n        /* \"ERC20.sol\":3027:3036  balanceOf */\n      0x03\n        /* \"ERC20.sol\":3027:3040  balanceOf[to] */\n      0x00\n        /* \"ERC20.sol\":3037:3039  to */\n      dup6\n        /* \"ERC20.sol\":3027:3040  balanceOf[to] */\n      0xffffffffffffffffffffffffffffffffffffffff\n      and\n      0xffffffffffffffffffffffffffffffffffffffff\n      and\n      dup2\n      mstore\n      0x20\n      add\n      swap1\n      dup2\n      mstore\n      0x20\n      add\n      0x00\n      keccak256\n      0x00\n        /* \"ERC20.sol\":3027:3050  balanceOf[to] += amount */\n      dup3\n      dup3\n      sload\n      add\n      swap3\n      pop\n      pop\n      dup2\n      swap1\n      sstore\n      pop\n        /* \"ERC20.sol\":3097:3099  to */\n      dup3\n        /* \"ERC20.sol\":3076:3108  Transfer(msg.sender, to, amount) */\n      0xffffffffffffffffffffffffffffffffffffffff\n      and\n        /* \"ERC20.sol\":3085:3095  msg.sender */\n      caller\n        /* \"ERC20.sol\":3076:3108  Transfer(msg.sender, to, amount) */\n      0xffffffffffffffffffffffffffffffffffffffff\n      and\n      0xddf252ad1be2c89b69c2b068fc378daa952ba7f163c4a11628f55a4df523b3ef\n        /* \"ERC20.sol\":3101:3107  amount */\n      dup5\n        /* \"ERC20.sol\":3076:3108  Transfer(msg.sender, to, amount) */\n      mload(0x40)\n      tag_274\n      swap2\n      swap1\n      tag_50\n      jump\t// in\n    tag_274:\n      mload(0x40)\n      dup1\n      swap2\n      sub\n      swap1\n      log3\n        /* \"ERC20.sol\":3126:3130  true */\n      0x01\n        /* \"ERC20.sol\":3119:3130  return true */\n      swap1\n      pop\n        /* \"ERC20.sol\":2736:3137  function transfer(address to, uint256 amount)... */\n      swap3\n      swap2\n      pop\n      pop\n      jump\t// out\n        /* \"SquiddyCore.sol\":5016:5264  function claimFees(uint256 rvTokenAmount) external onlyManager {... */\n    tag_137:\n        /* \"SquiddyCore.sol\":1395:1405  msg.sender */\n      caller\n        /* \"SquiddyCore.sol\":1382:1405  manager() == msg.sender */\n      0xffffffffffffffffffffffffffffffffffffffff\n      and\n        /* \"SquiddyCore.sol\":1382:1391  manager() */\n      tag_276\n        /* \"SquiddyCore.sol\":1382:1389  manager */\n      tag_96\n        /* \"SquiddyCore.sol\":1382:1391  manager() */\n      jump\t// in\n    tag_276:\n        /* \"SquiddyCore.sol\":1382:1405  manager() == msg.sender */\n      0xffffffffffffffffffffffffffffffffffffffff\n      and\n      eq\n        /* \"SquiddyCore.sol\":1374:1444  require(manager() == msg.sender, \"Ownable: caller is not the manager\") */\n      tag_277\n      jumpi\n      mload(0x40)\n      0x08c379a000000000000000000000000000000000000000000000000000000000\n      dup2\n      mstore\n      0x04\n      add\n      tag_278\n      swap1\n      tag_250\n      jump\t// in\n    tag_278:\n      mload(0x40)\n      dup1\n      swap2\n      sub\n      swap1\n      revert\n    tag_277:\n        /* \"SquiddyCore.sol\":5106:5116  msg.sender */\n      caller\n        /* \"SquiddyCore.sol\":5094:5132  FeesClaimed(msg.sender, rvTokenAmount) */\n      0xffffffffffffffffffffffffffffffffffffffff\n      and\n      0x9493e5bbe4e8e0ac67284469a2d677403d0378a85a59e341d3abc433d0d9a209\n        /* \"SquiddyCore.sol\":5118:5131  rvTokenAmount */\n      dup3\n        /* \"SquiddyCore.sol\":5094:5132  FeesClaimed(msg.sender, rvTokenAmount) */\n      mload(0x40)\n      tag_280\n      swap2\n      swap1\n      tag_50\n      jump\t// in\n    tag_280:\n      mload(0x40)\n      dup1\n      swap2\n      sub\n      swap1\n      log2\n        /* \"SquiddyCore.sol\":5216:5220  this */\n      address\n        /* \"SquiddyCore.sol\":5210:5230  ERC20(this).transfer */\n      0xffffffffffffffffffffffffffffffffffffffff\n      and\n      0xa9059cbb\n        /* \"SquiddyCore.sol\":5231:5241  msg.sender */\n      caller\n        /* \"SquiddyCore.sol\":5243:5256  rvTokenAmount */\n      dup4\n        /* \"SquiddyCore.sol\":5210:5257  ERC20(this).transfer(msg.sender, rvTokenAmount) */\n      mload(0x40)\n      dup4\n      0xffffffff\n      and\n      0xe0\n      shl\n      dup2\n      mstore\n      0x04\n      add\n      tag_281\n      swap3\n      swap2\n      swap1\n      tag_282\n      jump\t// in\n    tag_281:\n      0x20\n      mload(0x40)\n      dup1\n      dup4\n      sub\n      dup2\n      0x00\n      dup8\n      gas\n      call\n      iszero\n      dup1\n      iszero\n      tag_284\n      jumpi\n      returndatasize\n      0x00\n      dup1\n      returndatacopy\n      revert(0x00, returndatasize)\n    tag_284:\n      pop\n      pop\n      pop\n      pop\n      mload(0x40)\n      returndatasize\n      not(0x1f)\n      0x1f\n      dup3\n      add\n      and\n      dup3\n      add\n      dup1\n      0x40\n      mstore\n      pop\n      dup2\n      add\n      swap1\n      tag_285\n      swap2\n      swap1\n      tag_286\n      jump\t// in\n    tag_285:\n      pop\n        /* \"SquiddyCore.sol\":5016:5264  function claimFees(uint256 rvTokenAmount) external onlyManager {... */\n      pop\n      jump\t// out\n        /* \"ERC4626.sol\":5086:5337  function previewMint(uint256 shares) public view virtual returns (uint256) {... */\n    tag_140:\n        /* \"ERC4626.sol\":5152:5159  uint256 */\n      0x00\n        /* \"ERC4626.sol\":5171:5185  uint256 supply */\n      dup1\n        /* \"ERC4626.sol\":5188:5199  totalSupply */\n      sload(0x02)\n        /* \"ERC4626.sol\":5171:5199  uint256 supply = totalSupply */\n      swap1\n      pop\n        /* \"ERC4626.sol\":5279:5280  0 */\n      0x00\n        /* \"ERC4626.sol\":5269:5275  supply */\n      dup2\n        /* \"ERC4626.sol\":5269:5280  supply == 0 */\n      eq\n        /* \"ERC4626.sol\":5269:5330  supply == 0 ? shares : shares.mulDivUp(totalAssets(), supply) */\n      tag_288\n      jumpi\n        /* \"ERC4626.sol\":5292:5330  shares.mulDivUp(totalAssets(), supply) */\n      tag_289\n        /* \"ERC4626.sol\":5308:5321  totalAssets() */\n      tag_290\n        /* \"ERC4626.sol\":5308:5319  totalAssets */\n      tag_48\n        /* \"ERC4626.sol\":5308:5321  totalAssets() */\n      jump\t// in\n    tag_290:\n        /* \"ERC4626.sol\":5323:5329  supply */\n      dup3\n        /* \"ERC4626.sol\":5292:5298  shares */\n      dup6\n        /* \"ERC4626.sol\":5292:5307  shares.mulDivUp */\n      tag_216\n      swap1\n        /* \"ERC4626.sol\":5292:5330  shares.mulDivUp(totalAssets(), supply) */\n      swap3\n      swap2\n      swap1\n      0xffffffff\n      and\n      jump\t// in\n    tag_289:\n        /* \"ERC4626.sol\":5269:5330  supply == 0 ? shares : shares.mulDivUp(totalAssets(), supply) */\n      jump(tag_291)\n    tag_288:\n        /* \"ERC4626.sol\":5283:5289  shares */\n      dup3\n        /* \"ERC4626.sol\":5269:5330  supply == 0 ? shares : shares.mulDivUp(totalAssets(), supply) */\n    tag_291:\n        /* \"ERC4626.sol\":5262:5330  return supply == 0 ? shares : shares.mulDivUp(totalAssets(), supply) */\n      swap2\n      pop\n      pop\n        /* \"ERC4626.sol\":5086:5337  function previewMint(uint256 shares) public view virtual returns (uint256) {... */\n      swap2\n      swap1\n      pop\n      jump\t// out\n        /* \"ERC4626.sol\":2634:3329  function withdraw(... */\n    tag_145:\n        /* \"ERC4626.sol\":2755:2769  uint256 shares */\n      0x00\n        /* \"ERC4626.sol\":2790:2813  previewWithdraw(assets) */\n      tag_293\n        /* \"ERC4626.sol\":2806:2812  assets */\n      dup5\n        /* \"ERC4626.sol\":2790:2805  previewWithdraw */\n      tag_68\n        /* \"ERC4626.sol\":2790:2813  previewWithdraw(assets) */\n      jump\t// in\n    tag_293:\n        /* \"ERC4626.sol\":2781:2813  shares = previewWithdraw(assets) */\n      swap1\n      pop\n        /* \"ERC4626.sol\":2909:2914  owner */\n      dup2\n        /* \"ERC4626.sol\":2895:2914  msg.sender != owner */\n      0xffffffffffffffffffffffffffffffffffffffff\n      and\n        /* \"ERC4626.sol\":2895:2905  msg.sender */\n      caller\n        /* \"ERC4626.sol\":2895:2914  msg.sender != owner */\n      0xffffffffffffffffffffffffffffffffffffffff\n      and\n      eq\n        /* \"ERC4626.sol\":2891:3135  if (msg.sender != owner) {... */\n      tag_294\n      jumpi\n        /* \"ERC4626.sol\":2930:2945  uint256 allowed */\n      0x00\n        /* \"ERC4626.sol\":2948:2957  allowance */\n      0x04\n        /* \"ERC4626.sol\":2948:2964  allowance[owner] */\n      0x00\n        /* \"ERC4626.sol\":2958:2963  owner */\n      dup5\n        /* \"ERC4626.sol\":2948:2964  allowance[owner] */\n      0xffffffffffffffffffffffffffffffffffffffff\n      and\n      0xffffffffffffffffffffffffffffffffffffffff\n      and\n      dup2\n      mstore\n      0x20\n      add\n      swap1\n      dup2\n      mstore\n      0x20\n      add\n      0x00\n      keccak256\n        /* \"ERC4626.sol\":2948:2976  allowance[owner][msg.sender] */\n      0x00\n        /* \"ERC4626.sol\":2965:2975  msg.sender */\n      caller\n        /* \"ERC4626.sol\":2948:2976  allowance[owner][msg.sender] */\n      0xffffffffffffffffffffffffffffffffffffffff\n      and\n      0xffffffffffffffffffffffffffffffffffffffff\n      and\n      dup2\n      mstore\n      0x20\n      add\n      swap1\n      dup2\n      mstore\n      0x20\n      add\n      0x00\n      keccak256\n      sload\n        /* \"ERC4626.sol\":2930:2976  uint256 allowed = allowance[owner][msg.sender] */\n      swap1\n      pop\n        /* \"ERC4626.sol\":3042:3059  type(uint256).max */\n      0xffffffffffffffffffffffffffffffffffffffffffffffffffffffffffffffff\n        /* \"ERC4626.sol\":3031:3038  allowed */\n      dup2\n        /* \"ERC4626.sol\":3031:3059  allowed != type(uint256).max */\n      eq\n        /* \"ERC4626.sol\":3027:3124  if (allowed != type(uint256).max)... */\n      tag_295\n      jumpi\n        /* \"ERC4626.sol\":3118:3124  shares */\n      dup2\n        /* \"ERC4626.sol\":3108:3115  allowed */\n      dup2\n        /* \"ERC4626.sol\":3108:3124  allowed - shares */\n      tag_296\n      swap2\n      swap1\n      tag_221\n      jump\t// in\n    tag_296:\n        /* \"ERC4626.sol\":3077:3086  allowance */\n      0x04\n        /* \"ERC4626.sol\":3077:3093  allowance[owner] */\n      0x00\n        /* \"ERC4626.sol\":3087:3092  owner */\n      dup6\n        /* \"ERC4626.sol\":3077:3093  allowance[owner] */\n      0xffffffffffffffffffffffffffffffffffffffff\n      and\n      0xffffffffffffffffffffffffffffffffffffffff\n      and\n      dup2\n      mstore\n      0x20\n      add\n      swap1\n      dup2\n      mstore\n      0x20\n      add\n      0x00\n      keccak256\n        /* \"ERC4626.sol\":3077:3105  allowance[owner][msg.sender] */\n      0x00\n        /* \"ERC4626.sol\":3094:3104  msg.sender */\n      caller\n        /* \"ERC4626.sol\":3077:3105  allowance[owner][msg.sender] */\n      0xffffffffffffffffffffffffffffffffffffffff\n      and\n      0xffffffffffffffffffffffffffffffffffffffff\n      and\n      dup2\n      mstore\n      0x20\n      add\n      swap1\n      dup2\n      mstore\n      0x20\n      add\n      0x00\n      keccak256\n        /* \"ERC4626.sol\":3077:3124  allowance[owner][msg.sender] = allowed - shares */\n      dup2\n      swap1\n      sstore\n      pop\n        /* \"ERC4626.sol\":3027:3124  if (allowed != type(uint256).max)... */\n    tag_295:\n        /* \"ERC4626.sol\":2916:3135  {... */\n      pop\n        /* \"ERC4626.sol\":2891:3135  if (msg.sender != owner) {... */\n    tag_294:\n        /* \"ERC4626.sol\":3145:3175  beforeWithdraw(assets, shares) */\n      tag_297\n        /* \"ERC4626.sol\":3160:3166  assets */\n      dup5\n        /* \"ERC4626.sol\":3168:3174  shares */\n      dup3\n        /* \"ERC4626.sol\":3145:3159  beforeWithdraw */\n      tag_298\n        /* \"ERC4626.sol\":3145:3175  beforeWithdraw(assets, shares) */\n      jump\t// in\n    tag_297:\n        /* \"ERC4626.sol\":3186:3206  _burn(owner, shares) */\n      tag_299\n        /* \"ERC4626.sol\":3192:3197  owner */\n      dup3\n        /* \"ERC4626.sol\":3199:3205  shares */\n      dup3\n        /* \"ERC4626.sol\":3186:3191  _burn */\n      tag_300\n        /* \"ERC4626.sol\":3186:3206  _burn(owner, shares) */\n      jump\t// in\n    tag_299:\n        /* \"ERC4626.sol\":3253:3258  owner */\n      dup2\n        /* \"ERC4626.sol\":3222:3275  Withdraw(msg.sender, receiver, owner, assets, shares) */\n      0xffffffffffffffffffffffffffffffffffffffff\n      and\n        /* \"ERC4626.sol\":3243:3251  receiver */\n      dup4\n        /* \"ERC4626.sol\":3222:3275  Withdraw(msg.sender, receiver, owner, assets, shares) */\n      0xffffffffffffffffffffffffffffffffffffffff\n      and\n        /* \"ERC4626.sol\":3231:3241  msg.sender */\n      caller\n        /* \"ERC4626.sol\":3222:3275  Withdraw(msg.sender, receiver, owner, assets, shares) */\n      0xffffffffffffffffffffffffffffffffffffffff\n      and\n      0xfbde797d201c681b91056529119e0b02407c7bb96a4a2c75c01fc9667232c8db\n        /* \"ERC4626.sol\":3260:3266  assets */\n      dup8\n        /* \"ERC4626.sol\":3268:3274  shares */\n      dup6\n        /* \"ERC4626.sol\":3222:3275  Withdraw(msg.sender, receiver, owner, assets, shares) */\n      mload(0x40)\n      tag_301\n      swap3\n      swap2\n      swap1\n      tag_243\n      jump\t// in\n    tag_301:\n      mload(0x40)\n      dup1\n      swap2\n      sub\n      swap1\n      log4\n        /* \"ERC4626.sol\":3286:3322  asset.safeTransfer(receiver, assets) */\n      tag_302\n        /* \"ERC4626.sol\":3305:3313  receiver */\n      dup4\n        /* \"ERC4626.sol\":3315:3321  assets */\n      dup6\n        /* \"ERC4626.sol\":3286:3291  asset */\n      immutable(\"0xecac27c21aa9a89d7be9ad03c2d91e82cbd466284ecdf2bd5bad7f953539cc45\")\n        /* \"ERC4626.sol\":3286:3304  asset.safeTransfer */\n      0xffffffffffffffffffffffffffffffffffffffff\n      and\n      tag_303\n      swap1\n        /* \"ERC4626.sol\":3286:3322  asset.safeTransfer(receiver, assets) */\n      swap3\n      swap2\n      swap1\n      0xffffffff\n      and\n      jump\t// in\n    tag_302:\n        /* \"ERC4626.sol\":2634:3329  function withdraw(... */\n      swap4\n      swap3\n      pop\n      pop\n      pop\n      jump\t// out\n        /* \"ERC4626.sol\":3335:4064  function redeem(... */\n    tag_149:\n        /* \"ERC4626.sol\":3454:3468  uint256 assets */\n      0x00\n        /* \"ERC4626.sol\":3498:3503  owner */\n      dup2\n        /* \"ERC4626.sol\":3484:3503  msg.sender != owner */\n      0xffffffffffffffffffffffffffffffffffffffff\n      and\n        /* \"ERC4626.sol\":3484:3494  msg.sender */\n      caller\n        /* \"ERC4626.sol\":3484:3503  msg.sender != owner */\n      0xffffffffffffffffffffffffffffffffffffffff\n      and\n      eq\n        /* \"ERC4626.sol\":3480:3724  if (msg.sender != owner) {... */\n      tag_305\n      jumpi\n        /* \"ERC4626.sol\":3519:3534  uint256 allowed */\n      0x00\n        /* \"ERC4626.sol\":3537:3546  allowance */\n      0x04\n        /* \"ERC4626.sol\":3537:3553  allowance[owner] */\n      0x00\n        /* \"ERC4626.sol\":3547:3552  owner */\n      dup5\n        /* \"ERC4626.sol\":3537:3553  allowance[owner] */\n      0xffffffffffffffffffffffffffffffffffffffff\n      and\n      0xffffffffffffffffffffffffffffffffffffffff\n      and\n      dup2\n      mstore\n      0x20\n      add\n      swap1\n      dup2\n      mstore\n      0x20\n      add\n      0x00\n      keccak256\n        /* \"ERC4626.sol\":3537:3565  allowance[owner][msg.sender] */\n      0x00\n        /* \"ERC4626.sol\":3554:3564  msg.sender */\n      caller\n        /* \"ERC4626.sol\":3537:3565  allowance[owner][msg.sender] */\n      0xffffffffffffffffffffffffffffffffffffffff\n      and\n      0xffffffffffffffffffffffffffffffffffffffff\n      and\n      dup2\n      mstore\n      0x20\n      add\n      swap1\n      dup2\n      mstore\n      0x20\n      add\n      0x00\n      keccak256\n      sload\n        /* \"ERC4626.sol\":3519:3565  uint256 allowed = allowance[owner][msg.sender] */\n      swap1\n      pop\n        /* \"ERC4626.sol\":3631:3648  type(uint256).max */\n      0xffffffffffffffffffffffffffffffffffffffffffffffffffffffffffffffff\n        /* \"ERC4626.sol\":3620:3627  allowed */\n      dup2\n        /* \"ERC4626.sol\":3620:3648  allowed != type(uint256).max */\n      eq\n        /* \"ERC4626.sol\":3616:3713  if (allowed != type(uint256).max)... */\n      tag_306\n      jumpi\n        /* \"ERC4626.sol\":3707:3713  shares */\n      dup5\n        /* \"ERC4626.sol\":3697:3704  allowed */\n      dup2\n        /* \"ERC4626.sol\":3697:3713  allowed - shares */\n      tag_307\n      swap2\n      swap1\n      tag_221\n      jump\t// in\n    tag_307:\n        /* \"ERC4626.sol\":3666:3675  allowance */\n      0x04\n        /* \"ERC4626.sol\":3666:3682  allowance[owner] */\n      0x00\n        /* \"ERC4626.sol\":3676:3681  owner */\n      dup6\n        /* \"ERC4626.sol\":3666:3682  allowance[owner] */\n      0xffffffffffffffffffffffffffffffffffffffff\n      and\n      0xffffffffffffffffffffffffffffffffffffffff\n      and\n      dup2\n      mstore\n      0x20\n      add\n      swap1\n      dup2\n      mstore\n      0x20\n      add\n      0x00\n      keccak256\n        /* \"ERC4626.sol\":3666:3694  allowance[owner][msg.sender] */\n      0x00\n        /* \"ERC4626.sol\":3683:3693  msg.sender */\n      caller\n        /* \"ERC4626.sol\":3666:3694  allowance[owner][msg.sender] */\n      0xffffffffffffffffffffffffffffffffffffffff\n      and\n      0xffffffffffffffffffffffffffffffffffffffff\n      and\n      dup2\n      mstore\n      0x20\n      add\n      swap1\n      dup2\n      mstore\n      0x20\n      add\n      0x00\n      keccak256\n        /* \"ERC4626.sol\":3666:3713  allowance[owner][msg.sender] = allowed - shares */\n      dup2\n      swap1\n      sstore\n      pop\n        /* \"ERC4626.sol\":3616:3713  if (allowed != type(uint256).max)... */\n    tag_306:\n        /* \"ERC4626.sol\":3505:3724  {... */\n      pop\n        /* \"ERC4626.sol\":3480:3724  if (msg.sender != owner) {... */\n    tag_305:\n        /* \"ERC4626.sol\":3852:3853  0 */\n      0x00\n        /* \"ERC4626.sol\":3826:3847  previewRedeem(shares) */\n      tag_308\n        /* \"ERC4626.sol\":3840:3846  shares */\n      dup6\n        /* \"ERC4626.sol\":3826:3839  previewRedeem */\n      tag_101\n        /* \"ERC4626.sol\":3826:3847  previewRedeem(shares) */\n      jump\t// in\n    tag_308:\n        /* \"ERC4626.sol\":3817:3847  assets = previewRedeem(shares) */\n      swap2\n      pop\n      dup2\n        /* \"ERC4626.sol\":3816:3853  (assets = previewRedeem(shares)) != 0 */\n      eq\n      iszero\n        /* \"ERC4626.sol\":3808:3869  require((assets = previewRedeem(shares)) != 0, \"ZERO_ASSETS\") */\n      tag_309\n      jumpi\n      mload(0x40)\n      0x08c379a000000000000000000000000000000000000000000000000000000000\n      dup2\n      mstore\n      0x04\n      add\n      tag_310\n      swap1\n      tag_311\n      jump\t// in\n    tag_310:\n      mload(0x40)\n      dup1\n      swap2\n      sub\n      swap1\n      revert\n    tag_309:\n        /* \"ERC4626.sol\":3880:3910  beforeWithdraw(assets, shares) */\n      tag_312\n        /* \"ERC4626.sol\":3895:3901  assets */\n      dup2\n        /* \"ERC4626.sol\":3903:3909  shares */\n      dup6\n        /* \"ERC4626.sol\":3880:3894  beforeWithdraw */\n      tag_298\n        /* \"ERC4626.sol\":3880:3910  beforeWithdraw(assets, shares) */\n      jump\t// in\n    tag_312:\n        /* \"ERC4626.sol\":3921:3941  _burn(owner, shares) */\n      tag_313\n        /* \"ERC4626.sol\":3927:3932  owner */\n      dup3\n        /* \"ERC4626.sol\":3934:3940  shares */\n      dup6\n        /* \"ERC4626.sol\":3921:3926  _burn */\n      tag_300\n        /* \"ERC4626.sol\":3921:3941  _burn(owner, shares) */\n      jump\t// in\n    tag_313:\n        /* \"ERC4626.sol\":3988:3993  owner */\n      dup2\n        /* \"ERC4626.sol\":3957:4010  Withdraw(msg.sender, receiver, owner, assets, shares) */\n      0xffffffffffffffffffffffffffffffffffffffff\n      and\n        /* \"ERC4626.sol\":3978:3986  receiver */\n      dup4\n        /* \"ERC4626.sol\":3957:4010  Withdraw(msg.sender, receiver, owner, assets, shares) */\n      0xffffffffffffffffffffffffffffffffffffffff\n      and\n        /* \"ERC4626.sol\":3966:3976  msg.sender */\n      caller\n        /* \"ERC4626.sol\":3957:4010  Withdraw(msg.sender, receiver, owner, assets, shares) */\n      0xffffffffffffffffffffffffffffffffffffffff\n      and\n      0xfbde797d201c681b91056529119e0b02407c7bb96a4a2c75c01fc9667232c8db\n        /* \"ERC4626.sol\":3995:4001  assets */\n      dup5\n        /* \"ERC4626.sol\":4003:4009  shares */\n      dup9\n        /* \"ERC4626.sol\":3957:4010  Withdraw(msg.sender, receiver, owner, assets, shares) */\n      mload(0x40)\n      tag_314\n      swap3\n      swap2\n      swap1\n      tag_243\n      jump\t// in\n    tag_314:\n      mload(0x40)\n      dup1\n      swap2\n      sub\n      swap1\n      log4\n        /* \"ERC4626.sol\":4021:4057  asset.safeTransfer(receiver, assets) */\n      tag_315\n        /* \"ERC4626.sol\":4040:4048  receiver */\n      dup4\n        /* \"ERC4626.sol\":4050:4056  assets */\n      dup3\n        /* \"ERC4626.sol\":4021:4026  asset */\n      immutable(\"0xecac27c21aa9a89d7be9ad03c2d91e82cbd466284ecdf2bd5bad7f953539cc45\")\n        /* \"ERC4626.sol\":4021:4039  asset.safeTransfer */\n      0xffffffffffffffffffffffffffffffffffffffff\n      and\n      tag_303\n      swap1\n        /* \"ERC4626.sol\":4021:4057  asset.safeTransfer(receiver, assets) */\n      swap3\n      swap2\n      swap1\n      0xffffffff\n      and\n      jump\t// in\n    tag_315:\n        /* \"ERC4626.sol\":3335:4064  function redeem(... */\n      swap4\n      swap3\n      pop\n      pop\n      pop\n      jump\t// out\n        /* \"SquiddyCore.sol\":217:267  uint256 public beforeWithdrawHookCalledCounter = 0 */\n    tag_152:\n      sload(0x07)\n      dup2\n      jump\t// out\n        /* \"SquiddyCore.sol\":369:402  ERC20 public immutable UNDERLYING */\n    tag_155:\n      immutable(\"0x6b5c062ff531e4aab4774f509e92f4d1142a84e2071479e43245c0e4a7940df4\")\n      dup2\n      jump\t// out\n        /* \"ERC4626.sol\":6111:6216  function maxMint(address) public view virtual returns (uint256) {... */\n    tag_159:\n        /* \"ERC4626.sol\":6166:6173  uint256 */\n      0x00\n        /* \"ERC4626.sol\":6192:6209  type(uint256).max */\n      0xffffffffffffffffffffffffffffffffffffffffffffffffffffffffffffffff\n        /* \"ERC4626.sol\":6185:6209  return type(uint256).max */\n      swap1\n      pop\n        /* \"ERC4626.sol\":6111:6216  function maxMint(address) public view virtual returns (uint256) {... */\n      swap2\n      swap1\n      pop\n      jump\t// out\n        /* \"ERC4626.sol\":4321:4614  function convertToShares(uint256 assets)... */\n    tag_163:\n        /* \"ERC4626.sol\":4423:4430  uint256 */\n      0x00\n        /* \"ERC4626.sol\":4446:4460  uint256 supply */\n      dup1\n        /* \"ERC4626.sol\":4463:4474  totalSupply */\n      sload(0x02)\n        /* \"ERC4626.sol\":4446:4474  uint256 supply = totalSupply */\n      swap1\n      pop\n        /* \"ERC4626.sol\":4554:4555  0 */\n      0x00\n        /* \"ERC4626.sol\":4544:4550  supply */\n      dup2\n        /* \"ERC4626.sol\":4544:4555  supply == 0 */\n      eq\n        /* \"ERC4626.sol\":4544:4607  supply == 0 ? assets : assets.mulDivDown(supply, totalAssets()) */\n      tag_318\n      jumpi\n        /* \"ERC4626.sol\":4567:4607  assets.mulDivDown(supply, totalAssets()) */\n      tag_319\n        /* \"ERC4626.sol\":4585:4591  supply */\n      dup2\n        /* \"ERC4626.sol\":4593:4606  totalAssets() */\n      tag_320\n        /* \"ERC4626.sol\":4593:4604  totalAssets */\n      tag_48\n        /* \"ERC4626.sol\":4593:4606  totalAssets() */\n      jump\t// in\n    tag_320:\n        /* \"ERC4626.sol\":4567:4573  assets */\n      dup6\n        /* \"ERC4626.sol\":4567:4584  assets.mulDivDown */\n      tag_208\n      swap1\n        /* \"ERC4626.sol\":4567:4607  assets.mulDivDown(supply, totalAssets()) */\n      swap3\n      swap2\n      swap1\n      0xffffffff\n      and\n      jump\t// in\n    tag_319:\n        /* \"ERC4626.sol\":4544:4607  supply == 0 ? assets : assets.mulDivDown(supply, totalAssets()) */\n      jump(tag_321)\n    tag_318:\n        /* \"ERC4626.sol\":4558:4564  assets */\n      dup3\n        /* \"ERC4626.sol\":4544:4607  supply == 0 ? assets : assets.mulDivDown(supply, totalAssets()) */\n    tag_321:\n        /* \"ERC4626.sol\":4537:4607  return supply == 0 ? assets : assets.mulDivDown(supply, totalAssets()) */\n      swap2\n      pop\n      pop\n        /* \"ERC4626.sol\":4321:4614  function convertToShares(uint256 assets)... */\n      swap2\n      swap1\n      pop\n      jump\t// out\n        /* \"ERC4626.sol\":6222:6353  function maxWithdraw(address owner) public view virtual returns (uint256) {... */\n    tag_167:\n        /* \"ERC4626.sol\":6287:6294  uint256 */\n      0x00\n        /* \"ERC4626.sol\":6313:6346  convertToAssets(balanceOf[owner]) */\n      tag_323\n        /* \"ERC4626.sol\":6329:6338  balanceOf */\n      0x03\n        /* \"ERC4626.sol\":6329:6345  balanceOf[owner] */\n      0x00\n        /* \"ERC4626.sol\":6339:6344  owner */\n      dup5\n        /* \"ERC4626.sol\":6329:6345  balanceOf[owner] */\n      0xffffffffffffffffffffffffffffffffffffffff\n      and\n      0xffffffffffffffffffffffffffffffffffffffff\n      and\n      dup2\n      mstore\n      0x20\n      add\n      swap1\n      dup2\n      mstore\n      0x20\n      add\n      0x00\n      keccak256\n      sload\n        /* \"ERC4626.sol\":6313:6328  convertToAssets */\n      tag_58\n        /* \"ERC4626.sol\":6313:6346  convertToAssets(balanceOf[owner]) */\n      jump\t// in\n    tag_323:\n        /* \"ERC4626.sol\":6306:6346  return convertToAssets(balanceOf[owner]) */\n      swap1\n      pop\n        /* \"ERC4626.sol\":6222:6353  function maxWithdraw(address owner) public view virtual returns (uint256) {... */\n      swap2\n      swap1\n      pop\n      jump\t// out\n        /* \"ERC20.sol\":3936:5465  function permit(... */\n    tag_172:\n        /* \"ERC20.sol\":4155:4170  block.timestamp */\n      timestamp\n        /* \"ERC20.sol\":4143:4151  deadline */\n      dup5\n        /* \"ERC20.sol\":4143:4170  deadline >= block.timestamp */\n      lt\n      iszero\n        /* \"ERC20.sol\":4135:4198  require(deadline >= block.timestamp, \"PERMIT_DEADLINE_EXPIRED\") */\n      tag_325\n      jumpi\n      mload(0x40)\n      0x08c379a000000000000000000000000000000000000000000000000000000000\n      dup2\n      mstore\n      0x04\n      add\n      tag_326\n      swap1\n      tag_327\n      jump\t// in\n    tag_326:\n      mload(0x40)\n      dup1\n      swap2\n      sub\n      swap1\n      revert\n    tag_325:\n        /* \"ERC20.sol\":4363:4387  address recoveredAddress */\n      0x00\n        /* \"ERC20.sol\":4390:5195  ecrecover(... */\n      0x01\n        /* \"ERC20.sol\":4526:4544  DOMAIN_SEPARATOR() */\n      tag_328\n        /* \"ERC20.sol\":4526:4542  DOMAIN_SEPARATOR */\n      tag_83\n        /* \"ERC20.sol\":4526:4544  DOMAIN_SEPARATOR() */\n      jump\t// in\n    tag_328:\n        /* \"ERC20.sol\":4653:4818  keccak256(... */\n      0x6e71edae12b1b97f4d1f60370fef10105fa2faae0126114a169c64845d6126c9\n        /* \"ERC20.sol\":4852:4857  owner */\n      dup11\n        /* \"ERC20.sol\":4891:4898  spender */\n      dup11\n        /* \"ERC20.sol\":4932:4937  value */\n      dup11\n        /* \"ERC20.sol\":4971:4977  nonces */\n      0x05\n        /* \"ERC20.sol\":4971:4984  nonces[owner] */\n      0x00\n        /* \"ERC20.sol\":4978:4983  owner */\n      dup16\n        /* \"ERC20.sol\":4971:4984  nonces[owner] */\n      0xffffffffffffffffffffffffffffffffffffffff\n      and\n      0xffffffffffffffffffffffffffffffffffffffff\n      and\n      dup2\n      mstore\n      0x20\n      add\n      swap1\n      dup2\n      mstore\n      0x20\n      add\n      0x00\n      keccak256\n      0x00\n        /* \"ERC20.sol\":4971:4986  nonces[owner]++ */\n      dup2\n      sload\n      dup1\n      swap3\n      swap2\n      swap1\n      0x01\n      add\n      swap2\n      swap1\n      pop\n      sstore\n        /* \"ERC20.sol\":5020:5028  deadline */\n      dup12\n        /* \"ERC20.sol\":4609:5058  abi.encode(... */\n      add(0x20, mload(0x40))\n      tag_329\n      swap7\n      swap6\n      swap5\n      swap4\n      swap3\n      swap2\n      swap1\n      tag_330\n      jump\t// in\n    tag_329:\n      mload(0x40)\n      0x20\n      dup2\n      dup4\n      sub\n      sub\n      dup2\n      mstore\n      swap1\n      0x40\n      mstore\n        /* \"ERC20.sol\":4570:5084  keccak256(... */\n      dup1\n      mload\n      swap1\n      0x20\n      add\n      keccak256\n        /* \"ERC20.sol\":4448:5106  abi.encodePacked(... */\n      add(0x20, mload(0x40))\n      tag_331\n      swap3\n      swap2\n      swap1\n      tag_332\n      jump\t// in\n    tag_331:\n      mload(0x40)\n      0x20\n      dup2\n      dup4\n      sub\n      sub\n      dup2\n      mstore\n      swap1\n      0x40\n      mstore\n        /* \"ERC20.sol\":4417:5124  keccak256(... */\n      dup1\n      mload\n      swap1\n      0x20\n      add\n      keccak256\n        /* \"ERC20.sol\":5142:5143  v */\n      dup6\n        /* \"ERC20.sol\":5161:5162  r */\n      dup6\n        /* \"ERC20.sol\":5180:5181  s */\n      dup6\n        /* \"ERC20.sol\":4390:5195  ecrecover(... */\n      mload(0x40)\n      0x00\n      dup2\n      mstore\n      0x20\n      add\n      0x40\n      mstore\n      mload(0x40)\n      tag_333\n      swap5\n      swap4\n      swap3\n      swap2\n      swap1\n      tag_334\n      jump\t// in\n    tag_333:\n      0x20\n      mload(0x40)\n      0x20\n      dup2\n      sub\n      swap1\n      dup1\n      dup5\n      sub\n      swap1\n      dup6\n      gas\n      staticcall\n      iszero\n      dup1\n      iszero\n      tag_336\n      jumpi\n      returndatasize\n      0x00\n      dup1\n      returndatacopy\n      revert(0x00, returndatasize)\n    tag_336:\n      pop\n      pop\n      pop\n      mload(sub(mload(0x40), 0x20))\n        /* \"ERC20.sol\":4363:5195  address recoveredAddress = ecrecover(... */\n      swap1\n      pop\n        /* \"ERC20.sol\":5263:5264  0 */\n      0x00\n        /* \"ERC20.sol\":5235:5265  recoveredAddress != address(0) */\n      0xffffffffffffffffffffffffffffffffffffffff\n      and\n        /* \"ERC20.sol\":5235:5251  recoveredAddress */\n      dup2\n        /* \"ERC20.sol\":5235:5265  recoveredAddress != address(0) */\n      0xffffffffffffffffffffffffffffffffffffffff\n      and\n      eq\n      iszero\n        /* \"ERC20.sol\":5235:5294  recoveredAddress != address(0) && recoveredAddress == owner */\n      dup1\n      iszero\n      tag_337\n      jumpi\n      pop\n        /* \"ERC20.sol\":5289:5294  owner */\n      dup8\n        /* \"ERC20.sol\":5269:5294  recoveredAddress == owner */\n      0xffffffffffffffffffffffffffffffffffffffff\n      and\n        /* \"ERC20.sol\":5269:5285  recoveredAddress */\n      dup2\n        /* \"ERC20.sol\":5269:5294  recoveredAddress == owner */\n      0xffffffffffffffffffffffffffffffffffffffff\n      and\n      eq\n        /* \"ERC20.sol\":5235:5294  recoveredAddress != address(0) && recoveredAddress == owner */\n    tag_337:\n        /* \"ERC20.sol\":5210:5342  require(... */\n      tag_338\n      jumpi\n      mload(0x40)\n      0x08c379a000000000000000000000000000000000000000000000000000000000\n      dup2\n      mstore\n      0x04\n      add\n      tag_339\n      swap1\n      tag_340\n      jump\t// in\n    tag_339:\n      mload(0x40)\n      dup1\n      swap2\n      sub\n      swap1\n      revert\n    tag_338:\n        /* \"ERC20.sol\":5396:5401  value */\n      dup6\n        /* \"ERC20.sol\":5357:5366  allowance */\n      0x04\n        /* \"ERC20.sol\":5357:5384  allowance[recoveredAddress] */\n      0x00\n        /* \"ERC20.sol\":5367:5383  recoveredAddress */\n      dup4\n        /* \"ERC20.sol\":5357:5384  allowance[recoveredAddress] */\n      0xffffffffffffffffffffffffffffffffffffffff\n      and\n      0xffffffffffffffffffffffffffffffffffffffff\n      and\n      dup2\n      mstore\n      0x20\n      add\n      swap1\n      dup2\n      mstore\n      0x20\n      add\n      0x00\n      keccak256\n        /* \"ERC20.sol\":5357:5393  allowance[recoveredAddress][spender] */\n      0x00\n        /* \"ERC20.sol\":5385:5392  spender */\n      dup10\n        /* \"ERC20.sol\":5357:5393  allowance[recoveredAddress][spender] */\n      0xffffffffffffffffffffffffffffffffffffffff\n      and\n      0xffffffffffffffffffffffffffffffffffffffff\n      and\n      dup2\n      mstore\n      0x20\n      add\n      swap1\n      dup2\n      mstore\n      0x20\n      add\n      0x00\n      keccak256\n        /* \"ERC20.sol\":5357:5401  allowance[recoveredAddress][spender] = value */\n      dup2\n      swap1\n      sstore\n      pop\n        /* \"ERC20.sol\":4339:5412  unchecked {... */\n      pop\n        /* \"ERC20.sol\":5443:5450  spender */\n      dup6\n        /* \"ERC20.sol\":5427:5458  Approval(owner, spender, value) */\n      0xffffffffffffffffffffffffffffffffffffffff\n      and\n        /* \"ERC20.sol\":5436:5441  owner */\n      dup8\n        /* \"ERC20.sol\":5427:5458  Approval(owner, spender, value) */\n      0xffffffffffffffffffffffffffffffffffffffff\n      and\n      0x8c5be1e5ebec7d5bd14f71427d1e84f3dd0314c0f7b2291e5b200ac8c7c3b925\n        /* \"ERC20.sol\":5452:5457  value */\n      dup8\n        /* \"ERC20.sol\":5427:5458  Approval(owner, spender, value) */\n      mload(0x40)\n      tag_341\n      swap2\n      swap1\n      tag_50\n      jump\t// in\n    tag_341:\n      mload(0x40)\n      dup1\n      swap2\n      sub\n      swap1\n      log3\n        /* \"ERC20.sol\":3936:5465  function permit(... */\n      pop\n      pop\n      pop\n      pop\n      pop\n      pop\n      pop\n      jump\t// out\n        /* \"ERC4626.sol\":6359:6471  function maxRedeem(address owner) public view virtual returns (uint256) {... */\n    tag_175:\n        /* \"ERC4626.sol\":6422:6429  uint256 */\n      0x00\n        /* \"ERC4626.sol\":6448:6457  balanceOf */\n      0x03\n        /* \"ERC4626.sol\":6448:6464  balanceOf[owner] */\n      0x00\n        /* \"ERC4626.sol\":6458:6463  owner */\n      dup4\n        /* \"ERC4626.sol\":6448:6464  balanceOf[owner] */\n      0xffffffffffffffffffffffffffffffffffffffff\n      and\n      0xffffffffffffffffffffffffffffffffffffffff\n      and\n      dup2\n      mstore\n      0x20\n      add\n      swap1\n      dup2\n      mstore\n      0x20\n      add\n      0x00\n      keccak256\n      sload\n        /* \"ERC4626.sol\":6441:6464  return balanceOf[owner] */\n      swap1\n      pop\n        /* \"ERC4626.sol\":6359:6471  function maxRedeem(address owner) public view virtual returns (uint256) {... */\n      swap2\n      swap1\n      pop\n      jump\t// out\n        /* \"ERC20.sol\":1418:1482  mapping(address => mapping(address => uint256)) public allowance */\n    tag_180:\n      mstore(0x20, 0x04)\n      dup2\n      0x00\n      mstore\n      mstore(0x20, keccak256(0x00, 0x40))\n      dup1\n      0x00\n      mstore\n      keccak256(0x00, 0x40)\n      0x00\n      swap2\n      pop\n      swap2\n      pop\n      pop\n      sload\n      dup2\n      jump\t// out\n        /* \"ERC4626.sol\":4919:5080  function previewDeposit(uint256 assets)... */\n    tag_184:\n        /* \"ERC4626.sol\":5020:5027  uint256 */\n      0x00\n        /* \"ERC4626.sol\":5050:5073  convertToShares(assets) */\n      tag_344\n        /* \"ERC4626.sol\":5066:5072  assets */\n      dup3\n        /* \"ERC4626.sol\":5050:5065  convertToShares */\n      tag_163\n        /* \"ERC4626.sol\":5050:5073  convertToShares(assets) */\n      jump\t// in\n    tag_344:\n        /* \"ERC4626.sol\":5043:5073  return convertToShares(assets) */\n      swap1\n      pop\n        /* \"ERC4626.sol\":4919:5080  function previewDeposit(uint256 assets)... */\n      swap2\n      swap1\n      pop\n      jump\t// out\n        /* \"SquiddyCore.sol\":3307:3589  function transferOwnership(address newOwner) public virtual onlyManager {... */\n    tag_188:\n        /* \"SquiddyCore.sol\":1395:1405  msg.sender */\n      caller\n        /* \"SquiddyCore.sol\":1382:1405  manager() == msg.sender */\n      0xffffffffffffffffffffffffffffffffffffffff\n      and\n        /* \"SquiddyCore.sol\":1382:1391  manager() */\n      tag_346\n        /* \"SquiddyCore.sol\":1382:1389  manager */\n      tag_96\n        /* \"SquiddyCore.sol\":1382:1391  manager() */\n      jump\t// in\n    tag_346:\n        /* \"SquiddyCore.sol\":1382:1405  manager() == msg.sender */\n      0xffffffffffffffffffffffffffffffffffffffff\n      and\n      eq\n        /* \"SquiddyCore.sol\":1374:1444  require(manager() == msg.sender, \"Ownable: caller is not the manager\") */\n      tag_347\n      jumpi\n      mload(0x40)\n      0x08c379a000000000000000000000000000000000000000000000000000000000\n      dup2\n      mstore\n      0x04\n      add\n      tag_348\n      swap1\n      tag_250\n      jump\t// in\n    tag_348:\n      mload(0x40)\n      dup1\n      swap2\n      sub\n      swap1\n      revert\n    tag_347:\n        /* \"SquiddyCore.sol\":3430:3431  0 */\n      0x00\n        /* \"SquiddyCore.sol\":3410:3432  newOwner != address(0) */\n      0xffffffffffffffffffffffffffffffffffffffff\n      and\n        /* \"SquiddyCore.sol\":3410:3418  newOwner */\n      dup2\n        /* \"SquiddyCore.sol\":3410:3432  newOwner != address(0) */\n      0xffffffffffffffffffffffffffffffffffffffff\n      and\n      eq\n      iszero\n        /* \"SquiddyCore.sol\":3389:3498  require(... */\n      tag_350\n      jumpi\n      mload(0x40)\n      0x08c379a000000000000000000000000000000000000000000000000000000000\n      dup2\n      mstore\n      0x04\n      add\n      tag_351\n      swap1\n      tag_352\n      jump\t// in\n    tag_351:\n      mload(0x40)\n      dup1\n      swap2\n      sub\n      swap1\n      revert\n    tag_350:\n        /* \"SquiddyCore.sol\":3544:3552  newOwner */\n      dup1\n        /* \"SquiddyCore.sol\":3513:3553  OwnershipTransferred(_manager, newOwner) */\n      0xffffffffffffffffffffffffffffffffffffffff\n      and\n        /* \"SquiddyCore.sol\":3534:3542  _manager */\n      0x06\n      0x00\n      swap1\n      sload\n      swap1\n      0x0100\n      exp\n      swap1\n      div\n      0xffffffffffffffffffffffffffffffffffffffff\n      and\n        /* \"SquiddyCore.sol\":3513:3553  OwnershipTransferred(_manager, newOwner) */\n      0xffffffffffffffffffffffffffffffffffffffff\n      and\n      0x8be0079c531659141344cd1fd0a4f28419497f9722a3daafe3b4186f6b6457e0\n      mload(0x40)\n      mload(0x40)\n      dup1\n      swap2\n      sub\n      swap1\n      log3\n        /* \"SquiddyCore.sol\":3574:3582  newOwner */\n      dup1\n        /* \"SquiddyCore.sol\":3563:3571  _manager */\n      0x06\n      0x00\n        /* \"SquiddyCore.sol\":3563:3582  _manager = newOwner */\n      0x0100\n      exp\n      dup2\n      sload\n      dup2\n      0xffffffffffffffffffffffffffffffffffffffff\n      mul\n      not\n      and\n      swap1\n      dup4\n      0xffffffffffffffffffffffffffffffffffffffff\n      and\n      mul\n      or\n      swap1\n      sstore\n      pop\n        /* \"SquiddyCore.sol\":3307:3589  function transferOwnership(address newOwner) public virtual onlyManager {... */\n      pop\n      jump\t// out\n        /* \"SquiddyCore.sol\":273:321  uint256 public afterDepositHookCalledCounter = 0 */\n    tag_190:\n      sload(0x08)\n      dup2\n      jump\t// out\n        /* \"FixedPointMathLib.sol\":1507:2130  function mulDivDown(... */\n    tag_208:\n        /* \"FixedPointMathLib.sol\":1623:1632  uint256 z */\n      0x00\n        /* \"FixedPointMathLib.sol\":1720:1721  y */\n      dup3\n        /* \"FixedPointMathLib.sol\":1717:1718  x */\n      dup5\n        /* \"FixedPointMathLib.sol\":1713:1722  mul(x, y) */\n      mul\n        /* \"FixedPointMathLib.sol\":1708:1722  z := mul(x, y) */\n      swap1\n      pop\n        /* \"FixedPointMathLib.sol\":1952:1953  y */\n      dup3\n        /* \"FixedPointMathLib.sol\":1948:1949  x */\n      dup5\n        /* \"FixedPointMathLib.sol\":1945:1946  z */\n      dup3\n        /* \"FixedPointMathLib.sol\":1941:1950  div(z, x) */\n      div\n        /* \"FixedPointMathLib.sol\":1938:1954  eq(div(z, x), y) */\n      eq\n        /* \"FixedPointMathLib.sol\":1934:1935  x */\n      dup5\n        /* \"FixedPointMathLib.sol\":1927:1936  iszero(x) */\n      iszero\n        /* \"FixedPointMathLib.sol\":1924:1955  or(iszero(x), eq(div(z, x), y)) */\n      or\n        /* \"FixedPointMathLib.sol\":1889:1900  denominator */\n      dup3\n        /* \"FixedPointMathLib.sol\":1882:1901  iszero(denominator) */\n      iszero\n        /* \"FixedPointMathLib.sol\":1875:1902  iszero(iszero(denominator)) */\n      iszero\n        /* \"FixedPointMathLib.sol\":1850:1973  and(... */\n      and\n        /* \"FixedPointMathLib.sol\":1823:2032  if iszero(... */\n      tag_354\n      jumpi\n        /* \"FixedPointMathLib.sol\":2016:2017  0 */\n      0x00\n        /* \"FixedPointMathLib.sol\":2013:2014  0 */\n      dup1\n        /* \"FixedPointMathLib.sol\":2006:2018  revert(0, 0) */\n      revert\n        /* \"FixedPointMathLib.sol\":1823:2032  if iszero(... */\n    tag_354:\n        /* \"FixedPointMathLib.sol\":2102:2113  denominator */\n      dup2\n        /* \"FixedPointMathLib.sol\":2099:2100  z */\n      dup2\n        /* \"FixedPointMathLib.sol\":2095:2114  div(z, denominator) */\n      div\n        /* \"FixedPointMathLib.sol\":2090:2114  z := div(z, denominator) */\n      swap1\n      pop\n        /* \"FixedPointMathLib.sol\":1507:2130  function mulDivDown(... */\n      swap4\n      swap3\n      pop\n      pop\n      pop\n      jump\t// out\n        /* \"FixedPointMathLib.sol\":2136:2976  function mulDivUp(... */\n    tag_216:\n        /* \"FixedPointMathLib.sol\":2250:2259  uint256 z */\n      0x00\n        /* \"FixedPointMathLib.sol\":2347:2348  y */\n      dup3\n        /* \"FixedPointMathLib.sol\":2344:2345  x */\n      dup5\n        /* \"FixedPointMathLib.sol\":2340:2349  mul(x, y) */\n      mul\n        /* \"FixedPointMathLib.sol\":2335:2349  z := mul(x, y) */\n      swap1\n      pop\n        /* \"FixedPointMathLib.sol\":2579:2580  y */\n      dup3\n        /* \"FixedPointMathLib.sol\":2575:2576  x */\n      dup5\n        /* \"FixedPointMathLib.sol\":2572:2573  z */\n      dup3\n        /* \"FixedPointMathLib.sol\":2568:2577  div(z, x) */\n      div\n        /* \"FixedPointMathLib.sol\":2565:2581  eq(div(z, x), y) */\n      eq\n        /* \"FixedPointMathLib.sol\":2561:2562  x */\n      dup5\n        /* \"FixedPointMathLib.sol\":2554:2563  iszero(x) */\n      iszero\n        /* \"FixedPointMathLib.sol\":2551:2582  or(iszero(x), eq(div(z, x), y)) */\n      or\n        /* \"FixedPointMathLib.sol\":2516:2527  denominator */\n      dup3\n        /* \"FixedPointMathLib.sol\":2509:2528  iszero(denominator) */\n      iszero\n        /* \"FixedPointMathLib.sol\":2502:2529  iszero(iszero(denominator)) */\n      iszero\n        /* \"FixedPointMathLib.sol\":2477:2600  and(... */\n      and\n        /* \"FixedPointMathLib.sol\":2450:2659  if iszero(... */\n      tag_356\n      jumpi\n        /* \"FixedPointMathLib.sol\":2643:2644  0 */\n      0x00\n        /* \"FixedPointMathLib.sol\":2640:2641  0 */\n      dup1\n        /* \"FixedPointMathLib.sol\":2633:2645  revert(0, 0) */\n      revert\n        /* \"FixedPointMathLib.sol\":2450:2659  if iszero(... */\n    tag_356:\n        /* \"FixedPointMathLib.sol\":2957:2958  1 */\n      0x01\n        /* \"FixedPointMathLib.sol\":2943:2954  denominator */\n      dup3\n        /* \"FixedPointMathLib.sol\":2939:2940  1 */\n      0x01\n        /* \"FixedPointMathLib.sol\":2936:2937  z */\n      dup4\n        /* \"FixedPointMathLib.sol\":2932:2941  sub(z, 1) */\n      sub\n        /* \"FixedPointMathLib.sol\":2928:2955  div(sub(z, 1), denominator) */\n      div\n        /* \"FixedPointMathLib.sol\":2924:2959  add(div(sub(z, 1), denominator), 1) */\n      add\n        /* \"FixedPointMathLib.sol\":2919:2920  z */\n      dup2\n        /* \"FixedPointMathLib.sol\":2912:2921  iszero(z) */\n      iszero\n        /* \"FixedPointMathLib.sol\":2905:2922  iszero(iszero(z)) */\n      iszero\n        /* \"FixedPointMathLib.sol\":2901:2960  mul(iszero(iszero(z)), add(div(sub(z, 1), denominator), 1)) */\n      mul\n        /* \"FixedPointMathLib.sol\":2896:2960  z := mul(iszero(iszero(z)), add(div(sub(z, 1), denominator), 1)) */\n      swap1\n      pop\n        /* \"FixedPointMathLib.sol\":2136:2976  function mulDivUp(... */\n      swap4\n      swap3\n      pop\n      pop\n      pop\n      jump\t// out\n        /* \"ERC20.sol\":5698:6190  function computeDomainSeparator() internal view virtual returns (bytes32) {... */\n    tag_227:\n        /* \"ERC20.sol\":5763:5770  bytes32 */\n      0x00\n        /* \"ERC20.sol\":5860:6001  keccak256(... */\n      0x8b73c3c69bb8fe3d512ecc4cf759cc79239f7b179b0ffacaa9a75d522b39400f\n        /* \"ERC20.sol\":6039:6043  name */\n      0x00\n        /* \"ERC20.sol\":6023:6045  keccak256(bytes(name)) */\n      mload(0x40)\n      tag_358\n      swap2\n      swap1\n      tag_359\n      jump\t// in\n    tag_358:\n      mload(0x40)\n      dup1\n      swap2\n      sub\n      swap1\n      keccak256\n        /* \"ERC20.sol\":6067:6081  keccak256(\"1\") */\n      0xc89efdaa54c0f20c7adf612882df0950f5a951637e0307cdcb4c672f298b8bc6\n        /* \"ERC20.sol\":6103:6116  block.chainid */\n      chainid\n        /* \"ERC20.sol\":6146:6150  this */\n      address\n        /* \"ERC20.sol\":5828:6169  abi.encode(... */\n      add(0x20, mload(0x40))\n      tag_360\n      swap6\n      swap5\n      swap4\n      swap3\n      swap2\n      swap1\n      tag_361\n      jump\t// in\n    tag_360:\n      mload(0x40)\n      0x20\n      dup2\n      dup4\n      sub\n      sub\n      dup2\n      mstore\n      swap1\n      0x40\n      mstore\n        /* \"ERC20.sol\":5801:6183  keccak256(... */\n      dup1\n      mload\n      swap1\n      0x20\n      add\n      keccak256\n        /* \"ERC20.sol\":5782:6183  return... */\n      swap1\n      pop\n        /* \"ERC20.sol\":5698:6190  function computeDomainSeparator() internal view virtual returns (bytes32) {... */\n      swap1\n      jump\t// out\n        /* \"SafeTransferLib.sol\":1277:2954  function safeTransferFrom(... */\n    tag_239:\n        /* \"SafeTransferLib.sol\":1415:1427  bool success */\n      0x00\n        /* \"SafeTransferLib.sol\":1542:1546  0x40 */\n      0x40\n        /* \"SafeTransferLib.sol\":1536:1547  mload(0x40) */\n      mload\n        /* \"SafeTransferLib.sol\":1717:1783  0x23b872dd00000000000000000000000000000000000000000000000000000000 */\n      0x23b872dd00000000000000000000000000000000000000000000000000000000\n        /* \"SafeTransferLib.sol\":1682:1699  freeMemoryPointer */\n      dup2\n        /* \"SafeTransferLib.sol\":1658:1797  mstore(... */\n      mstore\n        /* \"SafeTransferLib.sol\":1844:1848  from */\n      dup5\n        /* \"SafeTransferLib.sol\":1840:1841  4 */\n      0x04\n        /* \"SafeTransferLib.sol\":1821:1838  freeMemoryPointer */\n      dup3\n        /* \"SafeTransferLib.sol\":1817:1842  add(freeMemoryPointer, 4) */\n      add\n        /* \"SafeTransferLib.sol\":1810:1849  mstore(add(freeMemoryPointer, 4), from) */\n      mstore\n        /* \"SafeTransferLib.sol\":1928:1930  to */\n      dup4\n        /* \"SafeTransferLib.sol\":1923:1925  36 */\n      0x24\n        /* \"SafeTransferLib.sol\":1904:1921  freeMemoryPointer */\n      dup3\n        /* \"SafeTransferLib.sol\":1900:1926  add(freeMemoryPointer, 36) */\n      add\n        /* \"SafeTransferLib.sol\":1893:1931  mstore(add(freeMemoryPointer, 36), to) */\n      mstore\n        /* \"SafeTransferLib.sol\":2008:2014  amount */\n      dup3\n        /* \"SafeTransferLib.sol\":2003:2005  68 */\n      0x44\n        /* \"SafeTransferLib.sol\":1984:2001  freeMemoryPointer */\n      dup3\n        /* \"SafeTransferLib.sol\":1980:2006  add(freeMemoryPointer, 68) */\n      add\n        /* \"SafeTransferLib.sol\":1973:2015  mstore(add(freeMemoryPointer, 68), amount) */\n      mstore\n        /* \"SafeTransferLib.sol\":2870:2872  32 */\n      0x20\n        /* \"SafeTransferLib.sol\":2867:2868  0 */\n      0x00\n        /* \"SafeTransferLib.sol\":2862:2865  100 */\n      0x64\n        /* \"SafeTransferLib.sol\":2843:2860  freeMemoryPointer */\n      dup4\n        /* \"SafeTransferLib.sol\":2840:2841  0 */\n      0x00\n        /* \"SafeTransferLib.sol\":2833:2838  token */\n      dup11\n        /* \"SafeTransferLib.sol\":2826:2831  gas() */\n      gas\n        /* \"SafeTransferLib.sol\":2821:2873  call(gas(), token, 0, freeMemoryPointer, 100, 0, 32) */\n      call\n        /* \"SafeTransferLib.sol\":2372:2388  returndatasize() */\n      returndatasize\n        /* \"SafeTransferLib.sol\":2365:2389  iszero(returndatasize()) */\n      iszero\n        /* \"SafeTransferLib.sol\":2339:2341  31 */\n      0x1f\n        /* \"SafeTransferLib.sol\":2321:2337  returndatasize() */\n      returndatasize\n        /* \"SafeTransferLib.sol\":2318:2342  gt(returndatasize(), 31) */\n      gt\n        /* \"SafeTransferLib.sol\":2314:2315  1 */\n      0x01\n        /* \"SafeTransferLib.sol\":2310:2311  0 */\n      0x00\n        /* \"SafeTransferLib.sol\":2304:2312  mload(0) */\n      mload\n        /* \"SafeTransferLib.sol\":2301:2316  eq(mload(0), 1) */\n      eq\n        /* \"SafeTransferLib.sol\":2297:2343  and(eq(mload(0), 1), gt(returndatasize(), 31)) */\n      and\n        /* \"SafeTransferLib.sol\":2273:2407  or(... */\n      or\n        /* \"SafeTransferLib.sol\":2073:2887  and(... */\n      and\n        /* \"SafeTransferLib.sol\":2062:2887  success := and(... */\n      swap2\n      pop\n        /* \"SafeTransferLib.sol\":1447:2897  {... */\n      pop\n        /* \"SafeTransferLib.sol\":2915:2922  success */\n      dup1\n        /* \"SafeTransferLib.sol\":2907:2947  require(success, \"TRANSFER_FROM_FAILED\") */\n      tag_363\n      jumpi\n      mload(0x40)\n      0x08c379a000000000000000000000000000000000000000000000000000000000\n      dup2\n      mstore\n      0x04\n      add\n      tag_364\n      swap1\n      tag_365\n      jump\t// in\n    tag_364:\n      mload(0x40)\n      dup1\n      swap2\n      sub\n      swap1\n      revert\n    tag_363:\n        /* \"SafeTransferLib.sol\":1405:2954  {... */\n      pop\n        /* \"SafeTransferLib.sol\":1277:2954  function safeTransferFrom(... */\n      pop\n      pop\n      pop\n      pop\n      jump\t// out\n        /* \"ERC20.sol\":6384:6709  function _mint(address to, uint256 amount) internal virtual {... */\n    tag_241:\n        /* \"ERC20.sol\":6469:6475  amount */\n      dup1\n        /* \"ERC20.sol\":6454:6465  totalSupply */\n      0x02\n      0x00\n        /* \"ERC20.sol\":6454:6475  totalSupply += amount */\n      dup3\n      dup3\n      sload\n      tag_367\n      swap2\n      swap1\n      tag_368\n      jump\t// in\n    tag_367:\n      swap3\n      pop\n      pop\n      dup2\n      swap1\n      sstore\n      pop\n        /* \"ERC20.sol\":6638:6644  amount */\n      dup1\n        /* \"ERC20.sol\":6621:6630  balanceOf */\n      0x03\n        /* \"ERC20.sol\":6621:6634  balanceOf[to] */\n      0x00\n        /* \"ERC20.sol\":6631:6633  to */\n      dup5\n        /* \"ERC20.sol\":6621:6634  balanceOf[to] */\n      0xffffffffffffffffffffffffffffffffffffffff\n      and\n      0xffffffffffffffffffffffffffffffffffffffff\n      and\n      dup2\n      mstore\n      0x20\n      add\n      swap1\n      dup2\n      mstore\n      0x20\n      add\n      0x00\n      keccak256\n      0x00\n        /* \"ERC20.sol\":6621:6644  balanceOf[to] += amount */\n      dup3\n      dup3\n      sload\n      add\n      swap3\n      pop\n      pop\n      dup2\n      swap1\n      sstore\n      pop\n        /* \"ERC20.sol\":6691:6693  to */\n      dup2\n        /* \"ERC20.sol\":6670:6702  Transfer(address(0), to, amount) */\n      0xffffffffffffffffffffffffffffffffffffffff\n      and\n        /* \"ERC20.sol\":6687:6688  0 */\n      0x00\n        /* \"ERC20.sol\":6670:6702  Transfer(address(0), to, amount) */\n      0xffffffffffffffffffffffffffffffffffffffff\n      and\n      0xddf252ad1be2c89b69c2b068fc378daa952ba7f163c4a11628f55a4df523b3ef\n        /* \"ERC20.sol\":6695:6701  amount */\n      dup4\n        /* \"ERC20.sol\":6670:6702  Transfer(address(0), to, amount) */\n      mload(0x40)\n      tag_369\n      swap2\n      swap1\n      tag_50\n      jump\t// in\n    tag_369:\n      mload(0x40)\n      dup1\n      swap2\n      sub\n      swap1\n      log3\n        /* \"ERC20.sol\":6384:6709  function _mint(address to, uint256 amount) internal virtual {... */\n      pop\n      pop\n      jump\t// out\n        /* \"SquiddyCore.sol\":2186:2292  function afterDeposit(uint256, uint256) internal override {... */\n    tag_245:\n        /* \"SquiddyCore.sol\":2254:2283  afterDepositHookCalledCounter */\n      0x08\n      0x00\n        /* \"SquiddyCore.sol\":2254:2285  afterDepositHookCalledCounter++ */\n      dup2\n      sload\n      dup1\n      swap3\n      swap2\n      swap1\n      tag_371\n      swap1\n      tag_372\n      jump\t// in\n    tag_371:\n      swap2\n      swap1\n      pop\n      sstore\n      pop\n        /* \"SquiddyCore.sol\":2186:2292  function afterDeposit(uint256, uint256) internal override {... */\n      pop\n      pop\n      jump\t// out\n        /* \"SquiddyCore.sol\":2070:2180  function beforeWithdraw(uint256, uint256) internal override {... */\n    tag_298:\n        /* \"SquiddyCore.sol\":2140:2171  beforeWithdrawHookCalledCounter */\n      0x07\n      0x00\n        /* \"SquiddyCore.sol\":2140:2173  beforeWithdrawHookCalledCounter++ */\n      dup2\n      sload\n      dup1\n      swap3\n      swap2\n      swap1\n      tag_374\n      swap1\n      tag_372\n      jump\t// in\n    tag_374:\n      swap2\n      swap1\n      pop\n      sstore\n      pop\n        /* \"SquiddyCore.sol\":2070:2180  function beforeWithdraw(uint256, uint256) internal override {... */\n      pop\n      pop\n      jump\t// out\n        /* \"ERC20.sol\":6715:7043  function _burn(address from, uint256 amount) internal virtual {... */\n    tag_300:\n        /* \"ERC20.sol\":6806:6812  amount */\n      dup1\n        /* \"ERC20.sol\":6787:6796  balanceOf */\n      0x03\n        /* \"ERC20.sol\":6787:6802  balanceOf[from] */\n      0x00\n        /* \"ERC20.sol\":6797:6801  from */\n      dup5\n        /* \"ERC20.sol\":6787:6802  balanceOf[from] */\n      0xffffffffffffffffffffffffffffffffffffffff\n      and\n      0xffffffffffffffffffffffffffffffffffffffff\n      and\n      dup2\n      mstore\n      0x20\n      add\n      swap1\n      dup2\n      mstore\n      0x20\n      add\n      0x00\n      keccak256\n      0x00\n        /* \"ERC20.sol\":6787:6812  balanceOf[from] -= amount */\n      dup3\n      dup3\n      sload\n      tag_376\n      swap2\n      swap1\n      tag_221\n      jump\t// in\n    tag_376:\n      swap3\n      pop\n      pop\n      dup2\n      swap1\n      sstore\n      pop\n        /* \"ERC20.sol\":6970:6976  amount */\n      dup1\n        /* \"ERC20.sol\":6955:6966  totalSupply */\n      0x02\n      0x00\n        /* \"ERC20.sol\":6955:6976  totalSupply -= amount */\n      dup3\n      dup3\n      sload\n      sub\n      swap3\n      pop\n      pop\n      dup2\n      swap1\n      sstore\n      pop\n        /* \"ERC20.sol\":7025:7026  0 */\n      0x00\n        /* \"ERC20.sol\":7002:7036  Transfer(from, address(0), amount) */\n      0xffffffffffffffffffffffffffffffffffffffff\n      and\n        /* \"ERC20.sol\":7011:7015  from */\n      dup3\n        /* \"ERC20.sol\":7002:7036  Transfer(from, address(0), amount) */\n      0xffffffffffffffffffffffffffffffffffffffff\n      and\n      0xddf252ad1be2c89b69c2b068fc378daa952ba7f163c4a11628f55a4df523b3ef\n        /* \"ERC20.sol\":7029:7035  amount */\n      dup4\n        /* \"ERC20.sol\":7002:7036  Transfer(from, address(0), amount) */\n      mload(0x40)\n      tag_377\n      swap2\n      swap1\n      tag_50\n      jump\t// in\n    tag_377:\n      mload(0x40)\n      dup1\n      swap2\n      sub\n      swap1\n      log3\n        /* \"ERC20.sol\":6715:7043  function _burn(address from, uint256 amount) internal virtual {... */\n      pop\n      pop\n      jump\t// out\n        /* \"SafeTransferLib.sol\":2960:4520  function safeTransfer(... */\n    tag_303:\n        /* \"SafeTransferLib.sol\":3072:3084  bool success */\n      0x00\n        /* \"SafeTransferLib.sol\":3199:3203  0x40 */\n      0x40\n        /* \"SafeTransferLib.sol\":3193:3204  mload(0x40) */\n      mload\n        /* \"SafeTransferLib.sol\":3374:3440  0xa9059cbb00000000000000000000000000000000000000000000000000000000 */\n      0xa9059cbb00000000000000000000000000000000000000000000000000000000\n        /* \"SafeTransferLib.sol\":3339:3356  freeMemoryPointer */\n      dup2\n        /* \"SafeTransferLib.sol\":3315:3454  mstore(... */\n      mstore\n        /* \"SafeTransferLib.sol\":3501:3503  to */\n      dup4\n        /* \"SafeTransferLib.sol\":3497:3498  4 */\n      0x04\n        /* \"SafeTransferLib.sol\":3478:3495  freeMemoryPointer */\n      dup3\n        /* \"SafeTransferLib.sol\":3474:3499  add(freeMemoryPointer, 4) */\n      add\n        /* \"SafeTransferLib.sol\":3467:3504  mstore(add(freeMemoryPointer, 4), to) */\n      mstore\n        /* \"SafeTransferLib.sol\":3581:3587  amount */\n      dup3\n        /* \"SafeTransferLib.sol\":3576:3578  36 */\n      0x24\n        /* \"SafeTransferLib.sol\":3557:3574  freeMemoryPointer */\n      dup3\n        /* \"SafeTransferLib.sol\":3553:3579  add(freeMemoryPointer, 36) */\n      add\n        /* \"SafeTransferLib.sol\":3546:3588  mstore(add(freeMemoryPointer, 36), amount) */\n      mstore\n        /* \"SafeTransferLib.sol\":4441:4443  32 */\n      0x20\n        /* \"SafeTransferLib.sol\":4438:4439  0 */\n      0x00\n        /* \"SafeTransferLib.sol\":4434:4436  68 */\n      0x44\n        /* \"SafeTransferLib.sol\":4415:4432  freeMemoryPointer */\n      dup4\n        /* \"SafeTransferLib.sol\":4412:4413  0 */\n      0x00\n        /* \"SafeTransferLib.sol\":4405:4410  token */\n      dup10\n        /* \"SafeTransferLib.sol\":4398:4403  gas() */\n      gas\n        /* \"SafeTransferLib.sol\":4393:4444  call(gas(), token, 0, freeMemoryPointer, 68, 0, 32) */\n      call\n        /* \"SafeTransferLib.sol\":3945:3961  returndatasize() */\n      returndatasize\n        /* \"SafeTransferLib.sol\":3938:3962  iszero(returndatasize()) */\n      iszero\n        /* \"SafeTransferLib.sol\":3912:3914  31 */\n      0x1f\n        /* \"SafeTransferLib.sol\":3894:3910  returndatasize() */\n      returndatasize\n        /* \"SafeTransferLib.sol\":3891:3915  gt(returndatasize(), 31) */\n      gt\n        /* \"SafeTransferLib.sol\":3887:3888  1 */\n      0x01\n        /* \"SafeTransferLib.sol\":3883:3884  0 */\n      0x00\n        /* \"SafeTransferLib.sol\":3877:3885  mload(0) */\n      mload\n        /* \"SafeTransferLib.sol\":3874:3889  eq(mload(0), 1) */\n      eq\n        /* \"SafeTransferLib.sol\":3870:3916  and(eq(mload(0), 1), gt(returndatasize(), 31)) */\n      and\n        /* \"SafeTransferLib.sol\":3846:3980  or(... */\n      or\n        /* \"SafeTransferLib.sol\":3646:4458  and(... */\n      and\n        /* \"SafeTransferLib.sol\":3635:4458  success := and(... */\n      swap2\n      pop\n        /* \"SafeTransferLib.sol\":3104:4468  {... */\n      pop\n        /* \"SafeTransferLib.sol\":4486:4493  success */\n      dup1\n        /* \"SafeTransferLib.sol\":4478:4513  require(success, \"TRANSFER_FAILED\") */\n      tag_379\n      jumpi\n      mload(0x40)\n      0x08c379a000000000000000000000000000000000000000000000000000000000\n      dup2\n      mstore\n      0x04\n      add\n      tag_380\n      swap1\n      tag_381\n      jump\t// in\n    tag_380:\n      mload(0x40)\n      dup1\n      swap2\n      sub\n      swap1\n      revert\n    tag_379:\n        /* \"SafeTransferLib.sol\":3062:4520  {... */\n      pop\n        /* \"SafeTransferLib.sol\":2960:4520  function safeTransfer(... */\n      pop\n      pop\n      pop\n      jump\t// out\n        /* \"#utility.yul\":7:84   */\n    tag_382:\n        /* \"#utility.yul\":44:51   */\n      0x00\n        /* \"#utility.yul\":73:78   */\n      dup2\n        /* \"#utility.yul\":62:78   */\n      swap1\n      pop\n        /* \"#utility.yul\":7:84   */\n      swap2\n      swap1\n      pop\n      jump\t// out\n        /* \"#utility.yul\":90:208   */\n    tag_383:\n        /* \"#utility.yul\":177:201   */\n      tag_448\n        /* \"#utility.yul\":195:200   */\n      dup2\n        /* \"#utility.yul\":177:201   */\n      tag_382\n      jump\t// in\n    tag_448:\n        /* \"#utility.yul\":172:175   */\n      dup3\n        /* \"#utility.yul\":165:202   */\n      mstore\n        /* \"#utility.yul\":90:208   */\n      pop\n      pop\n      jump\t// out\n        /* \"#utility.yul\":214:436   */\n    tag_50:\n        /* \"#utility.yul\":307:311   */\n      0x00\n        /* \"#utility.yul\":345:347   */\n      0x20\n        /* \"#utility.yul\":334:343   */\n      dup3\n        /* \"#utility.yul\":330:348   */\n      add\n        /* \"#utility.yul\":322:348   */\n      swap1\n      pop\n        /* \"#utility.yul\":358:429   */\n      tag_450\n        /* \"#utility.yul\":426:427   */\n      0x00\n        /* \"#utility.yul\":415:424   */\n      dup4\n        /* \"#utility.yul\":411:428   */\n      add\n        /* \"#utility.yul\":402:408   */\n      dup5\n        /* \"#utility.yul\":358:429   */\n      tag_383\n      jump\t// in\n    tag_450:\n        /* \"#utility.yul\":214:436   */\n      swap3\n      swap2\n      pop\n      pop\n      jump\t// out\n        /* \"#utility.yul\":442:541   */\n    tag_384:\n        /* \"#utility.yul\":494:500   */\n      0x00\n        /* \"#utility.yul\":528:533   */\n      dup2\n        /* \"#utility.yul\":522:534   */\n      mload\n        /* \"#utility.yul\":512:534   */\n      swap1\n      pop\n        /* \"#utility.yul\":442:541   */\n      swap2\n      swap1\n      pop\n      jump\t// out\n        /* \"#utility.yul\":547:716   */\n    tag_385:\n        /* \"#utility.yul\":631:642   */\n      0x00\n        /* \"#utility.yul\":665:671   */\n      dup3\n        /* \"#utility.yul\":660:663   */\n      dup3\n        /* \"#utility.yul\":653:672   */\n      mstore\n        /* \"#utility.yul\":705:709   */\n      0x20\n        /* \"#utility.yul\":700:703   */\n      dup3\n        /* \"#utility.yul\":696:710   */\n      add\n        /* \"#utility.yul\":681:710   */\n      swap1\n      pop\n        /* \"#utility.yul\":547:716   */\n      swap3\n      swap2\n      pop\n      pop\n      jump\t// out\n        /* \"#utility.yul\":722:1029   */\n    tag_386:\n        /* \"#utility.yul\":790:791   */\n      0x00\n        /* \"#utility.yul\":800:913   */\n    tag_454:\n        /* \"#utility.yul\":814:820   */\n      dup4\n        /* \"#utility.yul\":811:812   */\n      dup2\n        /* \"#utility.yul\":808:821   */\n      lt\n        /* \"#utility.yul\":800:913   */\n      iszero\n      tag_456\n      jumpi\n        /* \"#utility.yul\":899:900   */\n      dup1\n        /* \"#utility.yul\":894:897   */\n      dup3\n        /* \"#utility.yul\":890:901   */\n      add\n        /* \"#utility.yul\":884:902   */\n      mload\n        /* \"#utility.yul\":880:881   */\n      dup2\n        /* \"#utility.yul\":875:878   */\n      dup5\n        /* \"#utility.yul\":871:882   */\n      add\n        /* \"#utility.yul\":864:903   */\n      mstore\n        /* \"#utility.yul\":836:838   */\n      0x20\n        /* \"#utility.yul\":833:834   */\n      dup2\n        /* \"#utility.yul\":829:839   */\n      add\n        /* \"#utility.yul\":824:839   */\n      swap1\n      pop\n        /* \"#utility.yul\":800:913   */\n      jump(tag_454)\n    tag_456:\n        /* \"#utility.yul\":931:937   */\n      dup4\n        /* \"#utility.yul\":928:929   */\n      dup2\n        /* \"#utility.yul\":925:938   */\n      gt\n        /* \"#utility.yul\":922:1023   */\n      iszero\n      tag_457\n      jumpi\n        /* \"#utility.yul\":1011:1012   */\n      0x00\n        /* \"#utility.yul\":1002:1008   */\n      dup5\n        /* \"#utility.yul\":997:1000   */\n      dup5\n        /* \"#utility.yul\":993:1009   */\n      add\n        /* \"#utility.yul\":986:1013   */\n      mstore\n        /* \"#utility.yul\":922:1023   */\n    tag_457:\n        /* \"#utility.yul\":771:1029   */\n      pop\n        /* \"#utility.yul\":722:1029   */\n      pop\n      pop\n      pop\n      jump\t// out\n        /* \"#utility.yul\":1035:1137   */\n    tag_387:\n        /* \"#utility.yul\":1076:1082   */\n      0x00\n        /* \"#utility.yul\":1127:1129   */\n      0x1f\n        /* \"#utility.yul\":1123:1130   */\n      not\n        /* \"#utility.yul\":1118:1120   */\n      0x1f\n        /* \"#utility.yul\":1111:1116   */\n      dup4\n        /* \"#utility.yul\":1107:1121   */\n      add\n        /* \"#utility.yul\":1103:1131   */\n      and\n        /* \"#utility.yul\":1093:1131   */\n      swap1\n      pop\n        /* \"#utility.yul\":1035:1137   */\n      swap2\n      swap1\n      pop\n      jump\t// out\n        /* \"#utility.yul\":1143:1507   */\n    tag_388:\n        /* \"#utility.yul\":1231:1234   */\n      0x00\n        /* \"#utility.yul\":1259:1298   */\n      tag_460\n        /* \"#utility.yul\":1292:1297   */\n      dup3\n        /* \"#utility.yul\":1259:1298   */\n      tag_384\n      jump\t// in\n    tag_460:\n        /* \"#utility.yul\":1314:1385   */\n      tag_461\n        /* \"#utility.yul\":1378:1384   */\n      dup2\n        /* \"#utility.yul\":1373:1376   */\n      dup6\n        /* \"#utility.yul\":1314:1385   */\n      tag_385\n      jump\t// in\n    tag_461:\n        /* \"#utility.yul\":1307:1385   */\n      swap4\n      pop\n        /* \"#utility.yul\":1394:1446   */\n      tag_462\n        /* \"#utility.yul\":1439:1445   */\n      dup2\n        /* \"#utility.yul\":1434:1437   */\n      dup6\n        /* \"#utility.yul\":1427:1431   */\n      0x20\n        /* \"#utility.yul\":1420:1425   */\n      dup7\n        /* \"#utility.yul\":1416:1432   */\n      add\n        /* \"#utility.yul\":1394:1446   */\n      tag_386\n      jump\t// in\n    tag_462:\n        /* \"#utility.yul\":1471:1500   */\n      tag_463\n        /* \"#utility.yul\":1493:1499   */\n      dup2\n        /* \"#utility.yul\":1471:1500   */\n      tag_387\n      jump\t// in\n    tag_463:\n        /* \"#utility.yul\":1466:1469   */\n      dup5\n        /* \"#utility.yul\":1462:1501   */\n      add\n        /* \"#utility.yul\":1455:1501   */\n      swap2\n      pop\n        /* \"#utility.yul\":1235:1507   */\n      pop\n        /* \"#utility.yul\":1143:1507   */\n      swap3\n      swap2\n      pop\n      pop\n      jump\t// out\n        /* \"#utility.yul\":1513:1826   */\n    tag_54:\n        /* \"#utility.yul\":1626:1630   */\n      0x00\n        /* \"#utility.yul\":1664:1666   */\n      0x20\n        /* \"#utility.yul\":1653:1662   */\n      dup3\n        /* \"#utility.yul\":1649:1667   */\n      add\n        /* \"#utility.yul\":1641:1667   */\n      swap1\n      pop\n        /* \"#utility.yul\":1713:1722   */\n      dup2\n        /* \"#utility.yul\":1707:1711   */\n      dup2\n        /* \"#utility.yul\":1703:1723   */\n      sub\n        /* \"#utility.yul\":1699:1700   */\n      0x00\n        /* \"#utility.yul\":1688:1697   */\n      dup4\n        /* \"#utility.yul\":1684:1701   */\n      add\n        /* \"#utility.yul\":1677:1724   */\n      mstore\n        /* \"#utility.yul\":1741:1819   */\n      tag_465\n        /* \"#utility.yul\":1814:1818   */\n      dup2\n        /* \"#utility.yul\":1805:1811   */\n      dup5\n        /* \"#utility.yul\":1741:1819   */\n      tag_388\n      jump\t// in\n    tag_465:\n        /* \"#utility.yul\":1733:1819   */\n      swap1\n      pop\n        /* \"#utility.yul\":1513:1826   */\n      swap3\n      swap2\n      pop\n      pop\n      jump\t// out\n        /* \"#utility.yul\":1913:2030   */\n    tag_390:\n        /* \"#utility.yul\":2022:2023   */\n      0x00\n        /* \"#utility.yul\":2019:2020   */\n      dup1\n        /* \"#utility.yul\":2012:2024   */\n      revert\n        /* \"#utility.yul\":2159:2281   */\n    tag_392:\n        /* \"#utility.yul\":2232:2256   */\n      tag_470\n        /* \"#utility.yul\":2250:2255   */\n      dup2\n        /* \"#utility.yul\":2232:2256   */\n      tag_382\n      jump\t// in\n    tag_470:\n        /* \"#utility.yul\":2225:2230   */\n      dup2\n        /* \"#utility.yul\":2222:2257   */\n      eq\n        /* \"#utility.yul\":2212:2275   */\n      tag_471\n      jumpi\n        /* \"#utility.yul\":2271:2272   */\n      0x00\n        /* \"#utility.yul\":2268:2269   */\n      dup1\n        /* \"#utility.yul\":2261:2273   */\n      revert\n        /* \"#utility.yul\":2212:2275   */\n    tag_471:\n        /* \"#utility.yul\":2159:2281   */\n      pop\n      jump\t// out\n        /* \"#utility.yul\":2287:2426   */\n    tag_393:\n        /* \"#utility.yul\":2333:2338   */\n      0x00\n        /* \"#utility.yul\":2371:2377   */\n      dup2\n        /* \"#utility.yul\":2358:2378   */\n      calldataload\n        /* \"#utility.yul\":2349:2378   */\n      swap1\n      pop\n        /* \"#utility.yul\":2387:2420   */\n      tag_473\n        /* \"#utility.yul\":2414:2419   */\n      dup2\n        /* \"#utility.yul\":2387:2420   */\n      tag_392\n      jump\t// in\n    tag_473:\n        /* \"#utility.yul\":2287:2426   */\n      swap3\n      swap2\n      pop\n      pop\n      jump\t// out\n        /* \"#utility.yul\":2432:2761   */\n    tag_57:\n        /* \"#utility.yul\":2491:2497   */\n      0x00\n        /* \"#utility.yul\":2540:2542   */\n      0x20\n        /* \"#utility.yul\":2528:2537   */\n      dup3\n        /* \"#utility.yul\":2519:2526   */\n      dup5\n        /* \"#utility.yul\":2515:2538   */\n      sub\n        /* \"#utility.yul\":2511:2543   */\n      slt\n        /* \"#utility.yul\":2508:2627   */\n      iszero\n      tag_475\n      jumpi\n        /* \"#utility.yul\":2546:2625   */\n      tag_476\n      tag_390\n      jump\t// in\n    tag_476:\n        /* \"#utility.yul\":2508:2627   */\n    tag_475:\n        /* \"#utility.yul\":2666:2667   */\n      0x00\n        /* \"#utility.yul\":2691:2744   */\n      tag_477\n        /* \"#utility.yul\":2736:2743   */\n      dup5\n        /* \"#utility.yul\":2727:2733   */\n      dup3\n        /* \"#utility.yul\":2716:2725   */\n      dup6\n        /* \"#utility.yul\":2712:2734   */\n      add\n        /* \"#utility.yul\":2691:2744   */\n      tag_393\n      jump\t// in\n    tag_477:\n        /* \"#utility.yul\":2681:2744   */\n      swap2\n      pop\n        /* \"#utility.yul\":2637:2754   */\n      pop\n        /* \"#utility.yul\":2432:2761   */\n      swap3\n      swap2\n      pop\n      pop\n      jump\t// out\n        /* \"#utility.yul\":2767:2893   */\n    tag_394:\n        /* \"#utility.yul\":2804:2811   */\n      0x00\n        /* \"#utility.yul\":2844:2886   */\n      0xffffffffffffffffffffffffffffffffffffffff\n        /* \"#utility.yul\":2837:2842   */\n      dup3\n        /* \"#utility.yul\":2833:2887   */\n      and\n        /* \"#utility.yul\":2822:2887   */\n      swap1\n      pop\n        /* \"#utility.yul\":2767:2893   */\n      swap2\n      swap1\n      pop\n      jump\t// out\n        /* \"#utility.yul\":2899:2995   */\n    tag_395:\n        /* \"#utility.yul\":2936:2943   */\n      0x00\n        /* \"#utility.yul\":2965:2989   */\n      tag_480\n        /* \"#utility.yul\":2983:2988   */\n      dup3\n        /* \"#utility.yul\":2965:2989   */\n      tag_394\n      jump\t// in\n    tag_480:\n        /* \"#utility.yul\":2954:2989   */\n      swap1\n      pop\n        /* \"#utility.yul\":2899:2995   */\n      swap2\n      swap1\n      pop\n      jump\t// out\n        /* \"#utility.yul\":3001:3123   */\n    tag_396:\n        /* \"#utility.yul\":3074:3098   */\n      tag_482\n        /* \"#utility.yul\":3092:3097   */\n      dup2\n        /* \"#utility.yul\":3074:3098   */\n      tag_395\n      jump\t// in\n    tag_482:\n        /* \"#utility.yul\":3067:3072   */\n      dup2\n        /* \"#utility.yul\":3064:3099   */\n      eq\n        /* \"#utility.yul\":3054:3117   */\n      tag_483\n      jumpi\n        /* \"#utility.yul\":3113:3114   */\n      0x00\n        /* \"#utility.yul\":3110:3111   */\n      dup1\n        /* \"#utility.yul\":3103:3115   */\n      revert\n        /* \"#utility.yul\":3054:3117   */\n    tag_483:\n        /* \"#utility.yul\":3001:3123   */\n      pop\n      jump\t// out\n        /* \"#utility.yul\":3129:3268   */\n    tag_397:\n        /* \"#utility.yul\":3175:3180   */\n      0x00\n        /* \"#utility.yul\":3213:3219   */\n      dup2\n        /* \"#utility.yul\":3200:3220   */\n      calldataload\n        /* \"#utility.yul\":3191:3220   */\n      swap1\n      pop\n        /* \"#utility.yul\":3229:3262   */\n      tag_485\n        /* \"#utility.yul\":3256:3261   */\n      dup2\n        /* \"#utility.yul\":3229:3262   */\n      tag_396\n      jump\t// in\n    tag_485:\n        /* \"#utility.yul\":3129:3268   */\n      swap3\n      swap2\n      pop\n      pop\n      jump\t// out\n        /* \"#utility.yul\":3274:3748   */\n    tag_62:\n        /* \"#utility.yul\":3342:3348   */\n      0x00\n        /* \"#utility.yul\":3350:3356   */\n      dup1\n        /* \"#utility.yul\":3399:3401   */\n      0x40\n        /* \"#utility.yul\":3387:3396   */\n      dup4\n        /* \"#utility.yul\":3378:3385   */\n      dup6\n        /* \"#utility.yul\":3374:3397   */\n      sub\n        /* \"#utility.yul\":3370:3402   */\n      slt\n        /* \"#utility.yul\":3367:3486   */\n      iszero\n      tag_487\n      jumpi\n        /* \"#utility.yul\":3405:3484   */\n      tag_488\n      tag_390\n      jump\t// in\n    tag_488:\n        /* \"#utility.yul\":3367:3486   */\n    tag_487:\n        /* \"#utility.yul\":3525:3526   */\n      0x00\n        /* \"#utility.yul\":3550:3603   */\n      tag_489\n        /* \"#utility.yul\":3595:3602   */\n      dup6\n        /* \"#utility.yul\":3586:3592   */\n      dup3\n        /* \"#utility.yul\":3575:3584   */\n      dup7\n        /* \"#utility.yul\":3571:3593   */\n      add\n        /* \"#utility.yul\":3550:3603   */\n      tag_397\n      jump\t// in\n    tag_489:\n        /* \"#utility.yul\":3540:3603   */\n      swap3\n      pop\n        /* \"#utility.yul\":3496:3613   */\n      pop\n        /* \"#utility.yul\":3652:3654   */\n      0x20\n        /* \"#utility.yul\":3678:3731   */\n      tag_490\n        /* \"#utility.yul\":3723:3730   */\n      dup6\n        /* \"#utility.yul\":3714:3720   */\n      dup3\n        /* \"#utility.yul\":3703:3712   */\n      dup7\n        /* \"#utility.yul\":3699:3721   */\n      add\n        /* \"#utility.yul\":3678:3731   */\n      tag_393\n      jump\t// in\n    tag_490:\n        /* \"#utility.yul\":3668:3731   */\n      swap2\n      pop\n        /* \"#utility.yul\":3623:3741   */\n      pop\n        /* \"#utility.yul\":3274:3748   */\n      swap3\n      pop\n      swap3\n      swap1\n      pop\n      jump\t// out\n        /* \"#utility.yul\":3754:3844   */\n    tag_398:\n        /* \"#utility.yul\":3788:3795   */\n      0x00\n        /* \"#utility.yul\":3831:3836   */\n      dup2\n        /* \"#utility.yul\":3824:3837   */\n      iszero\n        /* \"#utility.yul\":3817:3838   */\n      iszero\n        /* \"#utility.yul\":3806:3838   */\n      swap1\n      pop\n        /* \"#utility.yul\":3754:3844   */\n      swap2\n      swap1\n      pop\n      jump\t// out\n        /* \"#utility.yul\":3850:3959   */\n    tag_399:\n        /* \"#utility.yul\":3931:3952   */\n      tag_493\n        /* \"#utility.yul\":3946:3951   */\n      dup2\n        /* \"#utility.yul\":3931:3952   */\n      tag_398\n      jump\t// in\n    tag_493:\n        /* \"#utility.yul\":3926:3929   */\n      dup3\n        /* \"#utility.yul\":3919:3953   */\n      mstore\n        /* \"#utility.yul\":3850:3959   */\n      pop\n      pop\n      jump\t// out\n        /* \"#utility.yul\":3965:4175   */\n    tag_65:\n        /* \"#utility.yul\":4052:4056   */\n      0x00\n        /* \"#utility.yul\":4090:4092   */\n      0x20\n        /* \"#utility.yul\":4079:4088   */\n      dup3\n        /* \"#utility.yul\":4075:4093   */\n      add\n        /* \"#utility.yul\":4067:4093   */\n      swap1\n      pop\n        /* \"#utility.yul\":4103:4168   */\n      tag_495\n        /* \"#utility.yul\":4165:4166   */\n      0x00\n        /* \"#utility.yul\":4154:4163   */\n      dup4\n        /* \"#utility.yul\":4150:4167   */\n      add\n        /* \"#utility.yul\":4141:4147   */\n      dup5\n        /* \"#utility.yul\":4103:4168   */\n      tag_399\n      jump\t// in\n    tag_495:\n        /* \"#utility.yul\":3965:4175   */\n      swap3\n      swap2\n      pop\n      pop\n      jump\t// out\n        /* \"#utility.yul\":4181:4800   */\n    tag_75:\n        /* \"#utility.yul\":4258:4264   */\n      0x00\n        /* \"#utility.yul\":4266:4272   */\n      dup1\n        /* \"#utility.yul\":4274:4280   */\n      0x00\n        /* \"#utility.yul\":4323:4325   */\n      0x60\n        /* \"#utility.yul\":4311:4320   */\n      dup5\n        /* \"#utility.yul\":4302:4309   */\n      dup7\n        /* \"#utility.yul\":4298:4321   */\n      sub\n        /* \"#utility.yul\":4294:4326   */\n      slt\n        /* \"#utility.yul\":4291:4410   */\n      iszero\n      tag_497\n      jumpi\n        /* \"#utility.yul\":4329:4408   */\n      tag_498\n      tag_390\n      jump\t// in\n    tag_498:\n        /* \"#utility.yul\":4291:4410   */\n    tag_497:\n        /* \"#utility.yul\":4449:4450   */\n      0x00\n        /* \"#utility.yul\":4474:4527   */\n      tag_499\n        /* \"#utility.yul\":4519:4526   */\n      dup7\n        /* \"#utility.yul\":4510:4516   */\n      dup3\n        /* \"#utility.yul\":4499:4508   */\n      dup8\n        /* \"#utility.yul\":4495:4517   */\n      add\n        /* \"#utility.yul\":4474:4527   */\n      tag_397\n      jump\t// in\n    tag_499:\n        /* \"#utility.yul\":4464:4527   */\n      swap4\n      pop\n        /* \"#utility.yul\":4420:4537   */\n      pop\n        /* \"#utility.yul\":4576:4578   */\n      0x20\n        /* \"#utility.yul\":4602:4655   */\n      tag_500\n        /* \"#utility.yul\":4647:4654   */\n      dup7\n        /* \"#utility.yul\":4638:4644   */\n      dup3\n        /* \"#utility.yul\":4627:4636   */\n      dup8\n        /* \"#utility.yul\":4623:4645   */\n      add\n        /* \"#utility.yul\":4602:4655   */\n      tag_397\n      jump\t// in\n    tag_500:\n        /* \"#utility.yul\":4592:4655   */\n      swap3\n      pop\n        /* \"#utility.yul\":4547:4665   */\n      pop\n        /* \"#utility.yul\":4704:4706   */\n      0x40\n        /* \"#utility.yul\":4730:4783   */\n      tag_501\n        /* \"#utility.yul\":4775:4782   */\n      dup7\n        /* \"#utility.yul\":4766:4772   */\n      dup3\n        /* \"#utility.yul\":4755:4764   */\n      dup8\n        /* \"#utility.yul\":4751:4773   */\n      add\n        /* \"#utility.yul\":4730:4783   */\n      tag_393\n      jump\t// in\n    tag_501:\n        /* \"#utility.yul\":4720:4783   */\n      swap2\n      pop\n        /* \"#utility.yul\":4675:4793   */\n      pop\n        /* \"#utility.yul\":4181:4800   */\n      swap3\n      pop\n      swap3\n      pop\n      swap3\n      jump\t// out\n        /* \"#utility.yul\":4806:4892   */\n    tag_400:\n        /* \"#utility.yul\":4841:4848   */\n      0x00\n        /* \"#utility.yul\":4881:4885   */\n      0xff\n        /* \"#utility.yul\":4874:4879   */\n      dup3\n        /* \"#utility.yul\":4870:4886   */\n      and\n        /* \"#utility.yul\":4859:4886   */\n      swap1\n      pop\n        /* \"#utility.yul\":4806:4892   */\n      swap2\n      swap1\n      pop\n      jump\t// out\n        /* \"#utility.yul\":4898:5010   */\n    tag_401:\n        /* \"#utility.yul\":4981:5003   */\n      tag_504\n        /* \"#utility.yul\":4997:5002   */\n      dup2\n        /* \"#utility.yul\":4981:5003   */\n      tag_400\n      jump\t// in\n    tag_504:\n        /* \"#utility.yul\":4976:4979   */\n      dup3\n        /* \"#utility.yul\":4969:5004   */\n      mstore\n        /* \"#utility.yul\":4898:5010   */\n      pop\n      pop\n      jump\t// out\n        /* \"#utility.yul\":5016:5230   */\n    tag_81:\n        /* \"#utility.yul\":5105:5109   */\n      0x00\n        /* \"#utility.yul\":5143:5145   */\n      0x20\n        /* \"#utility.yul\":5132:5141   */\n      dup3\n        /* \"#utility.yul\":5128:5146   */\n      add\n        /* \"#utility.yul\":5120:5146   */\n      swap1\n      pop\n        /* \"#utility.yul\":5156:5223   */\n      tag_506\n        /* \"#utility.yul\":5220:5221   */\n      0x00\n        /* \"#utility.yul\":5209:5218   */\n      dup4\n        /* \"#utility.yul\":5205:5222   */\n      add\n        /* \"#utility.yul\":5196:5202   */\n      dup5\n        /* \"#utility.yul\":5156:5223   */\n      tag_401\n      jump\t// in\n    tag_506:\n        /* \"#utility.yul\":5016:5230   */\n      swap3\n      swap2\n      pop\n      pop\n      jump\t// out\n        /* \"#utility.yul\":5236:5313   */\n    tag_402:\n        /* \"#utility.yul\":5273:5280   */\n      0x00\n        /* \"#utility.yul\":5302:5307   */\n      dup2\n        /* \"#utility.yul\":5291:5307   */\n      swap1\n      pop\n        /* \"#utility.yul\":5236:5313   */\n      swap2\n      swap1\n      pop\n      jump\t// out\n        /* \"#utility.yul\":5319:5437   */\n    tag_403:\n        /* \"#utility.yul\":5406:5430   */\n      tag_509\n        /* \"#utility.yul\":5424:5429   */\n      dup2\n        /* \"#utility.yul\":5406:5430   */\n      tag_402\n      jump\t// in\n    tag_509:\n        /* \"#utility.yul\":5401:5404   */\n      dup3\n        /* \"#utility.yul\":5394:5431   */\n      mstore\n        /* \"#utility.yul\":5319:5437   */\n      pop\n      pop\n      jump\t// out\n        /* \"#utility.yul\":5443:5665   */\n    tag_85:\n        /* \"#utility.yul\":5536:5540   */\n      0x00\n        /* \"#utility.yul\":5574:5576   */\n      0x20\n        /* \"#utility.yul\":5563:5572   */\n      dup3\n        /* \"#utility.yul\":5559:5577   */\n      add\n        /* \"#utility.yul\":5551:5577   */\n      swap1\n      pop\n        /* \"#utility.yul\":5587:5658   */\n      tag_511\n        /* \"#utility.yul\":5655:5656   */\n      0x00\n        /* \"#utility.yul\":5644:5653   */\n      dup4\n        /* \"#utility.yul\":5640:5657   */\n      add\n        /* \"#utility.yul\":5631:5637   */\n      dup5\n        /* \"#utility.yul\":5587:5658   */\n      tag_403\n      jump\t// in\n    tag_511:\n        /* \"#utility.yul\":5443:5665   */\n      swap3\n      swap2\n      pop\n      pop\n      jump\t// out\n        /* \"#utility.yul\":5671:5731   */\n    tag_404:\n        /* \"#utility.yul\":5699:5702   */\n      0x00\n        /* \"#utility.yul\":5720:5725   */\n      dup2\n        /* \"#utility.yul\":5713:5725   */\n      swap1\n      pop\n        /* \"#utility.yul\":5671:5731   */\n      swap2\n      swap1\n      pop\n      jump\t// out\n        /* \"#utility.yul\":5737:5879   */\n    tag_405:\n        /* \"#utility.yul\":5787:5796   */\n      0x00\n        /* \"#utility.yul\":5820:5873   */\n      tag_514\n        /* \"#utility.yul\":5838:5872   */\n      tag_515\n        /* \"#utility.yul\":5847:5871   */\n      tag_516\n        /* \"#utility.yul\":5865:5870   */\n      dup5\n        /* \"#utility.yul\":5847:5871   */\n      tag_394\n      jump\t// in\n    tag_516:\n        /* \"#utility.yul\":5838:5872   */\n      tag_404\n      jump\t// in\n    tag_515:\n        /* \"#utility.yul\":5820:5873   */\n      tag_394\n      jump\t// in\n    tag_514:\n        /* \"#utility.yul\":5807:5873   */\n      swap1\n      pop\n        /* \"#utility.yul\":5737:5879   */\n      swap2\n      swap1\n      pop\n      jump\t// out\n        /* \"#utility.yul\":5885:6011   */\n    tag_406:\n        /* \"#utility.yul\":5935:5944   */\n      0x00\n        /* \"#utility.yul\":5968:6005   */\n      tag_518\n        /* \"#utility.yul\":5999:6004   */\n      dup3\n        /* \"#utility.yul\":5968:6005   */\n      tag_405\n      jump\t// in\n    tag_518:\n        /* \"#utility.yul\":5955:6005   */\n      swap1\n      pop\n        /* \"#utility.yul\":5885:6011   */\n      swap2\n      swap1\n      pop\n      jump\t// out\n        /* \"#utility.yul\":6017:6156   */\n    tag_407:\n        /* \"#utility.yul\":6080:6089   */\n      0x00\n        /* \"#utility.yul\":6113:6150   */\n      tag_520\n        /* \"#utility.yul\":6144:6149   */\n      dup3\n        /* \"#utility.yul\":6113:6150   */\n      tag_406\n      jump\t// in\n    tag_520:\n        /* \"#utility.yul\":6100:6150   */\n      swap1\n      pop\n        /* \"#utility.yul\":6017:6156   */\n      swap2\n      swap1\n      pop\n      jump\t// out\n        /* \"#utility.yul\":6162:6319   */\n    tag_408:\n        /* \"#utility.yul\":6262:6312   */\n      tag_522\n        /* \"#utility.yul\":6306:6311   */\n      dup2\n        /* \"#utility.yul\":6262:6312   */\n      tag_407\n      jump\t// in\n    tag_522:\n        /* \"#utility.yul\":6257:6260   */\n      dup3\n        /* \"#utility.yul\":6250:6313   */\n      mstore\n        /* \"#utility.yul\":6162:6319   */\n      pop\n      pop\n      jump\t// out\n        /* \"#utility.yul\":6325:6573   */\n    tag_89:\n        /* \"#utility.yul\":6431:6435   */\n      0x00\n        /* \"#utility.yul\":6469:6471   */\n      0x20\n        /* \"#utility.yul\":6458:6467   */\n      dup3\n        /* \"#utility.yul\":6454:6472   */\n      add\n        /* \"#utility.yul\":6446:6472   */\n      swap1\n      pop\n        /* \"#utility.yul\":6482:6566   */\n      tag_524\n        /* \"#utility.yul\":6563:6564   */\n      0x00\n        /* \"#utility.yul\":6552:6561   */\n      dup4\n        /* \"#utility.yul\":6548:6565   */\n      add\n        /* \"#utility.yul\":6539:6545   */\n      dup5\n        /* \"#utility.yul\":6482:6566   */\n      tag_408\n      jump\t// in\n    tag_524:\n        /* \"#utility.yul\":6325:6573   */\n      swap3\n      swap2\n      pop\n      pop\n      jump\t// out\n        /* \"#utility.yul\":6579:6908   */\n    tag_92:\n        /* \"#utility.yul\":6638:6644   */\n      0x00\n        /* \"#utility.yul\":6687:6689   */\n      0x20\n        /* \"#utility.yul\":6675:6684   */\n      dup3\n        /* \"#utility.yul\":6666:6673   */\n      dup5\n        /* \"#utility.yul\":6662:6685   */\n      sub\n        /* \"#utility.yul\":6658:6690   */\n      slt\n        /* \"#utility.yul\":6655:6774   */\n      iszero\n      tag_526\n      jumpi\n        /* \"#utility.yul\":6693:6772   */\n      tag_527\n      tag_390\n      jump\t// in\n    tag_527:\n        /* \"#utility.yul\":6655:6774   */\n    tag_526:\n        /* \"#utility.yul\":6813:6814   */\n      0x00\n        /* \"#utility.yul\":6838:6891   */\n      tag_528\n        /* \"#utility.yul\":6883:6890   */\n      dup5\n        /* \"#utility.yul\":6874:6880   */\n      dup3\n        /* \"#utility.yul\":6863:6872   */\n      dup6\n        /* \"#utility.yul\":6859:6881   */\n      add\n        /* \"#utility.yul\":6838:6891   */\n      tag_397\n      jump\t// in\n    tag_528:\n        /* \"#utility.yul\":6828:6891   */\n      swap2\n      pop\n        /* \"#utility.yul\":6784:6901   */\n      pop\n        /* \"#utility.yul\":6579:6908   */\n      swap3\n      swap2\n      pop\n      pop\n      jump\t// out\n        /* \"#utility.yul\":6914:7032   */\n    tag_409:\n        /* \"#utility.yul\":7001:7025   */\n      tag_530\n        /* \"#utility.yul\":7019:7024   */\n      dup2\n        /* \"#utility.yul\":7001:7025   */\n      tag_395\n      jump\t// in\n    tag_530:\n        /* \"#utility.yul\":6996:6999   */\n      dup3\n        /* \"#utility.yul\":6989:7026   */\n      mstore\n        /* \"#utility.yul\":6914:7032   */\n      pop\n      pop\n      jump\t// out\n        /* \"#utility.yul\":7038:7260   */\n    tag_98:\n        /* \"#utility.yul\":7131:7135   */\n      0x00\n        /* \"#utility.yul\":7169:7171   */\n      0x20\n        /* \"#utility.yul\":7158:7167   */\n      dup3\n        /* \"#utility.yul\":7154:7172   */\n      add\n        /* \"#utility.yul\":7146:7172   */\n      swap1\n      pop\n        /* \"#utility.yul\":7182:7253   */\n      tag_532\n        /* \"#utility.yul\":7250:7251   */\n      0x00\n        /* \"#utility.yul\":7239:7248   */\n      dup4\n        /* \"#utility.yul\":7235:7252   */\n      add\n        /* \"#utility.yul\":7226:7232   */\n      dup5\n        /* \"#utility.yul\":7182:7253   */\n      tag_409\n      jump\t// in\n    tag_532:\n        /* \"#utility.yul\":7038:7260   */\n      swap3\n      swap2\n      pop\n      pop\n      jump\t// out\n        /* \"#utility.yul\":7266:7740   */\n    tag_105:\n        /* \"#utility.yul\":7334:7340   */\n      0x00\n        /* \"#utility.yul\":7342:7348   */\n      dup1\n        /* \"#utility.yul\":7391:7393   */\n      0x40\n        /* \"#utility.yul\":7379:7388   */\n      dup4\n        /* \"#utility.yul\":7370:7377   */\n      dup6\n        /* \"#utility.yul\":7366:7389   */\n      sub\n        /* \"#utility.yul\":7362:7394   */\n      slt\n        /* \"#utility.yul\":7359:7478   */\n      iszero\n      tag_534\n      jumpi\n        /* \"#utility.yul\":7397:7476   */\n      tag_535\n      tag_390\n      jump\t// in\n    tag_535:\n        /* \"#utility.yul\":7359:7478   */\n    tag_534:\n        /* \"#utility.yul\":7517:7518   */\n      0x00\n        /* \"#utility.yul\":7542:7595   */\n      tag_536\n        /* \"#utility.yul\":7587:7594   */\n      dup6\n        /* \"#utility.yul\":7578:7584   */\n      dup3\n        /* \"#utility.yul\":7567:7576   */\n      dup7\n        /* \"#utility.yul\":7563:7585   */\n      add\n        /* \"#utility.yul\":7542:7595   */\n      tag_393\n      jump\t// in\n    tag_536:\n        /* \"#utility.yul\":7532:7595   */\n      swap3\n      pop\n        /* \"#utility.yul\":7488:7605   */\n      pop\n        /* \"#utility.yul\":7644:7646   */\n      0x20\n        /* \"#utility.yul\":7670:7723   */\n      tag_537\n        /* \"#utility.yul\":7715:7722   */\n      dup6\n        /* \"#utility.yul\":7706:7712   */\n      dup3\n        /* \"#utility.yul\":7695:7704   */\n      dup7\n        /* \"#utility.yul\":7691:7713   */\n      add\n        /* \"#utility.yul\":7670:7723   */\n      tag_397\n      jump\t// in\n    tag_537:\n        /* \"#utility.yul\":7660:7723   */\n      swap2\n      pop\n        /* \"#utility.yul\":7615:7733   */\n      pop\n        /* \"#utility.yul\":7266:7740   */\n      swap3\n      pop\n      swap3\n      swap1\n      pop\n      jump\t// out\n        /* \"#utility.yul\":7746:8365   */\n    tag_144:\n        /* \"#utility.yul\":7823:7829   */\n      0x00\n        /* \"#utility.yul\":7831:7837   */\n      dup1\n        /* \"#utility.yul\":7839:7845   */\n      0x00\n        /* \"#utility.yul\":7888:7890   */\n      0x60\n        /* \"#utility.yul\":7876:7885   */\n      dup5\n        /* \"#utility.yul\":7867:7874   */\n      dup7\n        /* \"#utility.yul\":7863:7886   */\n      sub\n        /* \"#utility.yul\":7859:7891   */\n      slt\n        /* \"#utility.yul\":7856:7975   */\n      iszero\n      tag_539\n      jumpi\n        /* \"#utility.yul\":7894:7973   */\n      tag_540\n      tag_390\n      jump\t// in\n    tag_540:\n        /* \"#utility.yul\":7856:7975   */\n    tag_539:\n        /* \"#utility.yul\":8014:8015   */\n      0x00\n        /* \"#utility.yul\":8039:8092   */\n      tag_541\n        /* \"#utility.yul\":8084:8091   */\n      dup7\n        /* \"#utility.yul\":8075:8081   */\n      dup3\n        /* \"#utility.yul\":8064:8073   */\n      dup8\n        /* \"#utility.yul\":8060:8082   */\n      add\n        /* \"#utility.yul\":8039:8092   */\n      tag_393\n      jump\t// in\n    tag_541:\n        /* \"#utility.yul\":8029:8092   */\n      swap4\n      pop\n        /* \"#utility.yul\":7985:8102   */\n      pop\n        /* \"#utility.yul\":8141:8143   */\n      0x20\n        /* \"#utility.yul\":8167:8220   */\n      tag_542\n        /* \"#utility.yul\":8212:8219   */\n      dup7\n        /* \"#utility.yul\":8203:8209   */\n      dup3\n        /* \"#utility.yul\":8192:8201   */\n      dup8\n        /* \"#utility.yul\":8188:8210   */\n      add\n        /* \"#utility.yul\":8167:8220   */\n      tag_397\n      jump\t// in\n    tag_542:\n        /* \"#utility.yul\":8157:8220   */\n      swap3\n      pop\n        /* \"#utility.yul\":8112:8230   */\n      pop\n        /* \"#utility.yul\":8269:8271   */\n      0x40\n        /* \"#utility.yul\":8295:8348   */\n      tag_543\n        /* \"#utility.yul\":8340:8347   */\n      dup7\n        /* \"#utility.yul\":8331:8337   */\n      dup3\n        /* \"#utility.yul\":8320:8329   */\n      dup8\n        /* \"#utility.yul\":8316:8338   */\n      add\n        /* \"#utility.yul\":8295:8348   */\n      tag_397\n      jump\t// in\n    tag_543:\n        /* \"#utility.yul\":8285:8348   */\n      swap2\n      pop\n        /* \"#utility.yul\":8240:8358   */\n      pop\n        /* \"#utility.yul\":7746:8365   */\n      swap3\n      pop\n      swap3\n      pop\n      swap3\n      jump\t// out\n        /* \"#utility.yul\":8371:8489   */\n    tag_410:\n        /* \"#utility.yul\":8442:8464   */\n      tag_545\n        /* \"#utility.yul\":8458:8463   */\n      dup2\n        /* \"#utility.yul\":8442:8464   */\n      tag_400\n      jump\t// in\n    tag_545:\n        /* \"#utility.yul\":8435:8440   */\n      dup2\n        /* \"#utility.yul\":8432:8465   */\n      eq\n        /* \"#utility.yul\":8422:8483   */\n      tag_546\n      jumpi\n        /* \"#utility.yul\":8479:8480   */\n      0x00\n        /* \"#utility.yul\":8476:8477   */\n      dup1\n        /* \"#utility.yul\":8469:8481   */\n      revert\n        /* \"#utility.yul\":8422:8483   */\n    tag_546:\n        /* \"#utility.yul\":8371:8489   */\n      pop\n      jump\t// out\n        /* \"#utility.yul\":8495:8630   */\n    tag_411:\n        /* \"#utility.yul\":8539:8544   */\n      0x00\n        /* \"#utility.yul\":8577:8583   */\n      dup2\n        /* \"#utility.yul\":8564:8584   */\n      calldataload\n        /* \"#utility.yul\":8555:8584   */\n      swap1\n      pop\n        /* \"#utility.yul\":8593:8624   */\n      tag_548\n        /* \"#utility.yul\":8618:8623   */\n      dup2\n        /* \"#utility.yul\":8593:8624   */\n      tag_410\n      jump\t// in\n    tag_548:\n        /* \"#utility.yul\":8495:8630   */\n      swap3\n      swap2\n      pop\n      pop\n      jump\t// out\n        /* \"#utility.yul\":8636:8758   */\n    tag_412:\n        /* \"#utility.yul\":8709:8733   */\n      tag_550\n        /* \"#utility.yul\":8727:8732   */\n      dup2\n        /* \"#utility.yul\":8709:8733   */\n      tag_402\n      jump\t// in\n    tag_550:\n        /* \"#utility.yul\":8702:8707   */\n      dup2\n        /* \"#utility.yul\":8699:8734   */\n      eq\n        /* \"#utility.yul\":8689:8752   */\n      tag_551\n      jumpi\n        /* \"#utility.yul\":8748:8749   */\n      0x00\n        /* \"#utility.yul\":8745:8746   */\n      dup1\n        /* \"#utility.yul\":8738:8750   */\n      revert\n        /* \"#utility.yul\":8689:8752   */\n    tag_551:\n        /* \"#utility.yul\":8636:8758   */\n      pop\n      jump\t// out\n        /* \"#utility.yul\":8764:8903   */\n    tag_413:\n        /* \"#utility.yul\":8810:8815   */\n      0x00\n        /* \"#utility.yul\":8848:8854   */\n      dup2\n        /* \"#utility.yul\":8835:8855   */\n      calldataload\n        /* \"#utility.yul\":8826:8855   */\n      swap1\n      pop\n        /* \"#utility.yul\":8864:8897   */\n      tag_553\n        /* \"#utility.yul\":8891:8896   */\n      dup2\n        /* \"#utility.yul\":8864:8897   */\n      tag_412\n      jump\t// in\n    tag_553:\n        /* \"#utility.yul\":8764:8903   */\n      swap3\n      swap2\n      pop\n      pop\n      jump\t// out\n        /* \"#utility.yul\":8909:10108   */\n    tag_171:\n        /* \"#utility.yul\":9020:9026   */\n      0x00\n        /* \"#utility.yul\":9028:9034   */\n      dup1\n        /* \"#utility.yul\":9036:9042   */\n      0x00\n        /* \"#utility.yul\":9044:9050   */\n      dup1\n        /* \"#utility.yul\":9052:9058   */\n      0x00\n        /* \"#utility.yul\":9060:9066   */\n      dup1\n        /* \"#utility.yul\":9068:9074   */\n      0x00\n        /* \"#utility.yul\":9117:9120   */\n      0xe0\n        /* \"#utility.yul\":9105:9114   */\n      dup9\n        /* \"#utility.yul\":9096:9103   */\n      dup11\n        /* \"#utility.yul\":9092:9115   */\n      sub\n        /* \"#utility.yul\":9088:9121   */\n      slt\n        /* \"#utility.yul\":9085:9205   */\n      iszero\n      tag_555\n      jumpi\n        /* \"#utility.yul\":9124:9203   */\n      tag_556\n      tag_390\n      jump\t// in\n    tag_556:\n        /* \"#utility.yul\":9085:9205   */\n    tag_555:\n        /* \"#utility.yul\":9244:9245   */\n      0x00\n        /* \"#utility.yul\":9269:9322   */\n      tag_557\n        /* \"#utility.yul\":9314:9321   */\n      dup11\n        /* \"#utility.yul\":9305:9311   */\n      dup3\n        /* \"#utility.yul\":9294:9303   */\n      dup12\n        /* \"#utility.yul\":9290:9312   */\n      add\n        /* \"#utility.yul\":9269:9322   */\n      tag_397\n      jump\t// in\n    tag_557:\n        /* \"#utility.yul\":9259:9322   */\n      swap8\n      pop\n        /* \"#utility.yul\":9215:9332   */\n      pop\n        /* \"#utility.yul\":9371:9373   */\n      0x20\n        /* \"#utility.yul\":9397:9450   */\n      tag_558\n        /* \"#utility.yul\":9442:9449   */\n      dup11\n        /* \"#utility.yul\":9433:9439   */\n      dup3\n        /* \"#utility.yul\":9422:9431   */\n      dup12\n        /* \"#utility.yul\":9418:9440   */\n      add\n        /* \"#utility.yul\":9397:9450   */\n      tag_397\n      jump\t// in\n    tag_558:\n        /* \"#utility.yul\":9387:9450   */\n      swap7\n      pop\n        /* \"#utility.yul\":9342:9460   */\n      pop\n        /* \"#utility.yul\":9499:9501   */\n      0x40\n        /* \"#utility.yul\":9525:9578   */\n      tag_559\n        /* \"#utility.yul\":9570:9577   */\n      dup11\n        /* \"#utility.yul\":9561:9567   */\n      dup3\n        /* \"#utility.yul\":9550:9559   */\n      dup12\n        /* \"#utility.yul\":9546:9568   */\n      add\n        /* \"#utility.yul\":9525:9578   */\n      tag_393\n      jump\t// in\n    tag_559:\n        /* \"#utility.yul\":9515:9578   */\n      swap6\n      pop\n        /* \"#utility.yul\":9470:9588   */\n      pop\n        /* \"#utility.yul\":9627:9629   */\n      0x60\n        /* \"#utility.yul\":9653:9706   */\n      tag_560\n        /* \"#utility.yul\":9698:9705   */\n      dup11\n        /* \"#utility.yul\":9689:9695   */\n      dup3\n        /* \"#utility.yul\":9678:9687   */\n      dup12\n        /* \"#utility.yul\":9674:9696   */\n      add\n        /* \"#utility.yul\":9653:9706   */\n      tag_393\n      jump\t// in\n    tag_560:\n        /* \"#utility.yul\":9643:9706   */\n      swap5\n      pop\n        /* \"#utility.yul\":9598:9716   */\n      pop\n        /* \"#utility.yul\":9755:9758   */\n      0x80\n        /* \"#utility.yul\":9782:9833   */\n      tag_561\n        /* \"#utility.yul\":9825:9832   */\n      dup11\n        /* \"#utility.yul\":9816:9822   */\n      dup3\n        /* \"#utility.yul\":9805:9814   */\n      dup12\n        /* \"#utility.yul\":9801:9823   */\n      add\n        /* \"#utility.yul\":9782:9833   */\n      tag_411\n      jump\t// in\n    tag_561:\n        /* \"#utility.yul\":9772:9833   */\n      swap4\n      pop\n        /* \"#utility.yul\":9726:9843   */\n      pop\n        /* \"#utility.yul\":9882:9885   */\n      0xa0\n        /* \"#utility.yul\":9909:9962   */\n      tag_562\n        /* \"#utility.yul\":9954:9961   */\n      dup11\n        /* \"#utility.yul\":9945:9951   */\n      dup3\n        /* \"#utility.yul\":9934:9943   */\n      dup12\n        /* \"#utility.yul\":9930:9952   */\n      add\n        /* \"#utility.yul\":9909:9962   */\n      tag_413\n      jump\t// in\n    tag_562:\n        /* \"#utility.yul\":9899:9962   */\n      swap3\n      pop\n        /* \"#utility.yul\":9853:9972   */\n      pop\n        /* \"#utility.yul\":10011:10014   */\n      0xc0\n        /* \"#utility.yul\":10038:10091   */\n      tag_563\n        /* \"#utility.yul\":10083:10090   */\n      dup11\n        /* \"#utility.yul\":10074:10080   */\n      dup3\n        /* \"#utility.yul\":10063:10072   */\n      dup12\n        /* \"#utility.yul\":10059:10081   */\n      add\n        /* \"#utility.yul\":10038:10091   */\n      tag_413\n      jump\t// in\n    tag_563:\n        /* \"#utility.yul\":10028:10091   */\n      swap2\n      pop\n        /* \"#utility.yul\":9982:10101   */\n      pop\n        /* \"#utility.yul\":8909:10108   */\n      swap3\n      swap6\n      swap9\n      swap2\n      swap5\n      swap8\n      pop\n      swap3\n      swap6\n      pop\n      jump\t// out\n        /* \"#utility.yul\":10114:10588   */\n    tag_179:\n        /* \"#utility.yul\":10182:10188   */\n      0x00\n        /* \"#utility.yul\":10190:10196   */\n      dup1\n        /* \"#utility.yul\":10239:10241   */\n      0x40\n        /* \"#utility.yul\":10227:10236   */\n      dup4\n        /* \"#utility.yul\":10218:10225   */\n      dup6\n        /* \"#utility.yul\":10214:10237   */\n      sub\n        /* \"#utility.yul\":10210:10242   */\n      slt\n        /* \"#utility.yul\":10207:10326   */\n      iszero\n      tag_565\n      jumpi\n        /* \"#utility.yul\":10245:10324   */\n      tag_566\n      tag_390\n      jump\t// in\n    tag_566:\n        /* \"#utility.yul\":10207:10326   */\n    tag_565:\n        /* \"#utility.yul\":10365:10366   */\n      0x00\n        /* \"#utility.yul\":10390:10443   */\n      tag_567\n        /* \"#utility.yul\":10435:10442   */\n      dup6\n        /* \"#utility.yul\":10426:10432   */\n      dup3\n        /* \"#utility.yul\":10415:10424   */\n      dup7\n        /* \"#utility.yul\":10411:10433   */\n      add\n        /* \"#utility.yul\":10390:10443   */\n      tag_397\n      jump\t// in\n    tag_567:\n        /* \"#utility.yul\":10380:10443   */\n      swap3\n      pop\n        /* \"#utility.yul\":10336:10453   */\n      pop\n        /* \"#utility.yul\":10492:10494   */\n      0x20\n        /* \"#utility.yul\":10518:10571   */\n      tag_568\n        /* \"#utility.yul\":10563:10570   */\n      dup6\n        /* \"#utility.yul\":10554:10560   */\n      dup3\n        /* \"#utility.yul\":10543:10552   */\n      dup7\n        /* \"#utility.yul\":10539:10561   */\n      add\n        /* \"#utility.yul\":10518:10571   */\n      tag_397\n      jump\t// in\n    tag_568:\n        /* \"#utility.yul\":10508:10571   */\n      swap2\n      pop\n        /* \"#utility.yul\":10463:10581   */\n      pop\n        /* \"#utility.yul\":10114:10588   */\n      swap3\n      pop\n      swap3\n      swap1\n      pop\n      jump\t// out\n        /* \"#utility.yul\":10594:10737   */\n    tag_414:\n        /* \"#utility.yul\":10651:10656   */\n      0x00\n        /* \"#utility.yul\":10682:10688   */\n      dup2\n        /* \"#utility.yul\":10676:10689   */\n      mload\n        /* \"#utility.yul\":10667:10689   */\n      swap1\n      pop\n        /* \"#utility.yul\":10698:10731   */\n      tag_570\n        /* \"#utility.yul\":10725:10730   */\n      dup2\n        /* \"#utility.yul\":10698:10731   */\n      tag_392\n      jump\t// in\n    tag_570:\n        /* \"#utility.yul\":10594:10737   */\n      swap3\n      swap2\n      pop\n      pop\n      jump\t// out\n        /* \"#utility.yul\":10743:11094   */\n    tag_197:\n        /* \"#utility.yul\":10813:10819   */\n      0x00\n        /* \"#utility.yul\":10862:10864   */\n      0x20\n        /* \"#utility.yul\":10850:10859   */\n      dup3\n        /* \"#utility.yul\":10841:10848   */\n      dup5\n        /* \"#utility.yul\":10837:10860   */\n      sub\n        /* \"#utility.yul\":10833:10865   */\n      slt\n        /* \"#utility.yul\":10830:10949   */\n      iszero\n      tag_572\n      jumpi\n        /* \"#utility.yul\":10868:10947   */\n      tag_573\n      tag_390\n      jump\t// in\n    tag_573:\n        /* \"#utility.yul\":10830:10949   */\n    tag_572:\n        /* \"#utility.yul\":10988:10989   */\n      0x00\n        /* \"#utility.yul\":11013:11077   */\n      tag_574\n        /* \"#utility.yul\":11069:11076   */\n      dup5\n        /* \"#utility.yul\":11060:11066   */\n      dup3\n        /* \"#utility.yul\":11049:11058   */\n      dup6\n        /* \"#utility.yul\":11045:11067   */\n      add\n        /* \"#utility.yul\":11013:11077   */\n      tag_414\n      jump\t// in\n    tag_574:\n        /* \"#utility.yul\":11003:11077   */\n      swap2\n      pop\n        /* \"#utility.yul\":10959:11087   */\n      pop\n        /* \"#utility.yul\":10743:11094   */\n      swap3\n      swap2\n      pop\n      pop\n      jump\t// out\n        /* \"#utility.yul\":11100:11280   */\n    tag_415:\n        /* \"#utility.yul\":11148:11225   */\n      0x4e487b7100000000000000000000000000000000000000000000000000000000\n        /* \"#utility.yul\":11145:11146   */\n      0x00\n        /* \"#utility.yul\":11138:11226   */\n      mstore\n        /* \"#utility.yul\":11245:11249   */\n      0x22\n        /* \"#utility.yul\":11242:11243   */\n      0x04\n        /* \"#utility.yul\":11235:11250   */\n      mstore\n        /* \"#utility.yul\":11269:11273   */\n      0x24\n        /* \"#utility.yul\":11266:11267   */\n      0x00\n        /* \"#utility.yul\":11259:11274   */\n      revert\n        /* \"#utility.yul\":11286:11606   */\n    tag_199:\n        /* \"#utility.yul\":11330:11336   */\n      0x00\n        /* \"#utility.yul\":11367:11368   */\n      0x02\n        /* \"#utility.yul\":11361:11365   */\n      dup3\n        /* \"#utility.yul\":11357:11369   */\n      div\n        /* \"#utility.yul\":11347:11369   */\n      swap1\n      pop\n        /* \"#utility.yul\":11414:11415   */\n      0x01\n        /* \"#utility.yul\":11408:11412   */\n      dup3\n        /* \"#utility.yul\":11404:11416   */\n      and\n        /* \"#utility.yul\":11435:11453   */\n      dup1\n        /* \"#utility.yul\":11425:11506   */\n      tag_577\n      jumpi\n        /* \"#utility.yul\":11491:11495   */\n      0x7f\n        /* \"#utility.yul\":11483:11489   */\n      dup3\n        /* \"#utility.yul\":11479:11496   */\n      and\n        /* \"#utility.yul\":11469:11496   */\n      swap2\n      pop\n        /* \"#utility.yul\":11425:11506   */\n    tag_577:\n        /* \"#utility.yul\":11553:11555   */\n      0x20\n        /* \"#utility.yul\":11545:11551   */\n      dup3\n        /* \"#utility.yul\":11542:11556   */\n      lt\n        /* \"#utility.yul\":11522:11540   */\n      dup2\n        /* \"#utility.yul\":11519:11557   */\n      eq\n        /* \"#utility.yul\":11516:11600   */\n      iszero\n      tag_578\n      jumpi\n        /* \"#utility.yul\":11572:11590   */\n      tag_579\n      tag_415\n      jump\t// in\n    tag_579:\n        /* \"#utility.yul\":11516:11600   */\n    tag_578:\n        /* \"#utility.yul\":11337:11606   */\n      pop\n        /* \"#utility.yul\":11286:11606   */\n      swap2\n      swap1\n      pop\n      jump\t// out\n        /* \"#utility.yul\":11612:11792   */\n    tag_416:\n        /* \"#utility.yul\":11660:11737   */\n      0x4e487b7100000000000000000000000000000000000000000000000000000000\n        /* \"#utility.yul\":11657:11658   */\n      0x00\n        /* \"#utility.yul\":11650:11738   */\n      mstore\n        /* \"#utility.yul\":11757:11761   */\n      0x11\n        /* \"#utility.yul\":11754:11755   */\n      0x04\n        /* \"#utility.yul\":11747:11762   */\n      mstore\n        /* \"#utility.yul\":11781:11785   */\n      0x24\n        /* \"#utility.yul\":11778:11779   */\n      0x00\n        /* \"#utility.yul\":11771:11786   */\n      revert\n        /* \"#utility.yul\":11798:11989   */\n    tag_221:\n        /* \"#utility.yul\":11838:11842   */\n      0x00\n        /* \"#utility.yul\":11858:11878   */\n      tag_582\n        /* \"#utility.yul\":11876:11877   */\n      dup3\n        /* \"#utility.yul\":11858:11878   */\n      tag_382\n      jump\t// in\n    tag_582:\n        /* \"#utility.yul\":11853:11878   */\n      swap2\n      pop\n        /* \"#utility.yul\":11892:11912   */\n      tag_583\n        /* \"#utility.yul\":11910:11911   */\n      dup4\n        /* \"#utility.yul\":11892:11912   */\n      tag_382\n      jump\t// in\n    tag_583:\n        /* \"#utility.yul\":11887:11912   */\n      swap3\n      pop\n        /* \"#utility.yul\":11931:11932   */\n      dup3\n        /* \"#utility.yul\":11928:11929   */\n      dup3\n        /* \"#utility.yul\":11925:11933   */\n      lt\n        /* \"#utility.yul\":11922:11956   */\n      iszero\n      tag_584\n      jumpi\n        /* \"#utility.yul\":11936:11954   */\n      tag_585\n      tag_416\n      jump\t// in\n    tag_585:\n        /* \"#utility.yul\":11922:11956   */\n    tag_584:\n        /* \"#utility.yul\":11981:11982   */\n      dup3\n        /* \"#utility.yul\":11978:11979   */\n      dup3\n        /* \"#utility.yul\":11974:11983   */\n      sub\n        /* \"#utility.yul\":11966:11983   */\n      swap1\n      pop\n        /* \"#utility.yul\":11798:11989   */\n      swap3\n      swap2\n      pop\n      pop\n      jump\t// out\n        /* \"#utility.yul\":11995:12156   */\n    tag_417:\n        /* \"#utility.yul\":12135:12148   */\n      0x5a45524f5f534841524553000000000000000000000000000000000000000000\n        /* \"#utility.yul\":12131:12132   */\n      0x00\n        /* \"#utility.yul\":12123:12129   */\n      dup3\n        /* \"#utility.yul\":12119:12133   */\n      add\n        /* \"#utility.yul\":12112:12149   */\n      mstore\n        /* \"#utility.yul\":11995:12156   */\n      pop\n      jump\t// out\n        /* \"#utility.yul\":12162:12528   */\n    tag_418:\n        /* \"#utility.yul\":12304:12307   */\n      0x00\n        /* \"#utility.yul\":12325:12392   */\n      tag_588\n        /* \"#utility.yul\":12389:12391   */\n      0x0b\n        /* \"#utility.yul\":12384:12387   */\n      dup4\n        /* \"#utility.yul\":12325:12392   */\n      tag_385\n      jump\t// in\n    tag_588:\n        /* \"#utility.yul\":12318:12392   */\n      swap2\n      pop\n        /* \"#utility.yul\":12401:12494   */\n      tag_589\n        /* \"#utility.yul\":12490:12493   */\n      dup3\n        /* \"#utility.yul\":12401:12494   */\n      tag_417\n      jump\t// in\n    tag_589:\n        /* \"#utility.yul\":12519:12521   */\n      0x20\n        /* \"#utility.yul\":12514:12517   */\n      dup3\n        /* \"#utility.yul\":12510:12522   */\n      add\n        /* \"#utility.yul\":12503:12522   */\n      swap1\n      pop\n        /* \"#utility.yul\":12162:12528   */\n      swap2\n      swap1\n      pop\n      jump\t// out\n        /* \"#utility.yul\":12534:12953   */\n    tag_237:\n        /* \"#utility.yul\":12700:12704   */\n      0x00\n        /* \"#utility.yul\":12738:12740   */\n      0x20\n        /* \"#utility.yul\":12727:12736   */\n      dup3\n        /* \"#utility.yul\":12723:12741   */\n      add\n        /* \"#utility.yul\":12715:12741   */\n      swap1\n      pop\n        /* \"#utility.yul\":12787:12796   */\n      dup2\n        /* \"#utility.yul\":12781:12785   */\n      dup2\n        /* \"#utility.yul\":12777:12797   */\n      sub\n        /* \"#utility.yul\":12773:12774   */\n      0x00\n        /* \"#utility.yul\":12762:12771   */\n      dup4\n        /* \"#utility.yul\":12758:12775   */\n      add\n        /* \"#utility.yul\":12751:12798   */\n      mstore\n        /* \"#utility.yul\":12815:12946   */\n      tag_591\n        /* \"#utility.yul\":12941:12945   */\n      dup2\n        /* \"#utility.yul\":12815:12946   */\n      tag_418\n      jump\t// in\n    tag_591:\n        /* \"#utility.yul\":12807:12946   */\n      swap1\n      pop\n        /* \"#utility.yul\":12534:12953   */\n      swap2\n      swap1\n      pop\n      jump\t// out\n        /* \"#utility.yul\":12959:13291   */\n    tag_243:\n        /* \"#utility.yul\":13080:13084   */\n      0x00\n        /* \"#utility.yul\":13118:13120   */\n      0x40\n        /* \"#utility.yul\":13107:13116   */\n      dup3\n        /* \"#utility.yul\":13103:13121   */\n      add\n        /* \"#utility.yul\":13095:13121   */\n      swap1\n      pop\n        /* \"#utility.yul\":13131:13202   */\n      tag_593\n        /* \"#utility.yul\":13199:13200   */\n      0x00\n        /* \"#utility.yul\":13188:13197   */\n      dup4\n        /* \"#utility.yul\":13184:13201   */\n      add\n        /* \"#utility.yul\":13175:13181   */\n      dup6\n        /* \"#utility.yul\":13131:13202   */\n      tag_383\n      jump\t// in\n    tag_593:\n        /* \"#utility.yul\":13212:13284   */\n      tag_594\n        /* \"#utility.yul\":13280:13282   */\n      0x20\n        /* \"#utility.yul\":13269:13278   */\n      dup4\n        /* \"#utility.yul\":13265:13283   */\n      add\n        /* \"#utility.yul\":13256:13262   */\n      dup5\n        /* \"#utility.yul\":13212:13284   */\n      tag_383\n      jump\t// in\n    tag_594:\n        /* \"#utility.yul\":12959:13291   */\n      swap4\n      swap3\n      pop\n      pop\n      pop\n      jump\t// out\n        /* \"#utility.yul\":13297:13518   */\n    tag_419:\n        /* \"#utility.yul\":13437:13471   */\n      0x4f776e61626c653a2063616c6c6572206973206e6f7420746865206d616e6167\n        /* \"#utility.yul\":13433:13434   */\n      0x00\n        /* \"#utility.yul\":13425:13431   */\n      dup3\n        /* \"#utility.yul\":13421:13435   */\n      add\n        /* \"#utility.yul\":13414:13472   */\n      mstore\n        /* \"#utility.yul\":13506:13510   */\n      0x6572000000000000000000000000000000000000000000000000000000000000\n        /* \"#utility.yul\":13501:13503   */\n      0x20\n        /* \"#utility.yul\":13493:13499   */\n      dup3\n        /* \"#utility.yul\":13489:13504   */\n      add\n        /* \"#utility.yul\":13482:13511   */\n      mstore\n        /* \"#utility.yul\":13297:13518   */\n      pop\n      jump\t// out\n        /* \"#utility.yul\":13524:13890   */\n    tag_420:\n        /* \"#utility.yul\":13666:13669   */\n      0x00\n        /* \"#utility.yul\":13687:13754   */\n      tag_597\n        /* \"#utility.yul\":13751:13753   */\n      0x22\n        /* \"#utility.yul\":13746:13749   */\n      dup4\n        /* \"#utility.yul\":13687:13754   */\n      tag_385\n      jump\t// in\n    tag_597:\n        /* \"#utility.yul\":13680:13754   */\n      swap2\n      pop\n        /* \"#utility.yul\":13763:13856   */\n      tag_598\n        /* \"#utility.yul\":13852:13855   */\n      dup3\n        /* \"#utility.yul\":13763:13856   */\n      tag_419\n      jump\t// in\n    tag_598:\n        /* \"#utility.yul\":13881:13883   */\n      0x40\n        /* \"#utility.yul\":13876:13879   */\n      dup3\n        /* \"#utility.yul\":13872:13884   */\n      add\n        /* \"#utility.yul\":13865:13884   */\n      swap1\n      pop\n        /* \"#utility.yul\":13524:13890   */\n      swap2\n      swap1\n      pop\n      jump\t// out\n        /* \"#utility.yul\":13896:14315   */\n    tag_250:\n        /* \"#utility.yul\":14062:14066   */\n      0x00\n        /* \"#utility.yul\":14100:14102   */\n      0x20\n        /* \"#utility.yul\":14089:14098   */\n      dup3\n        /* \"#utility.yul\":14085:14103   */\n      add\n        /* \"#utility.yul\":14077:14103   */\n      swap1\n      pop\n        /* \"#utility.yul\":14149:14158   */\n      dup2\n        /* \"#utility.yul\":14143:14147   */\n      dup2\n        /* \"#utility.yul\":14139:14159   */\n      sub\n        /* \"#utility.yul\":14135:14136   */\n      0x00\n        /* \"#utility.yul\":14124:14133   */\n      dup4\n        /* \"#utility.yul\":14120:14137   */\n      add\n        /* \"#utility.yul\":14113:14160   */\n      mstore\n        /* \"#utility.yul\":14177:14308   */\n      tag_600\n        /* \"#utility.yul\":14303:14307   */\n      dup2\n        /* \"#utility.yul\":14177:14308   */\n      tag_420\n      jump\t// in\n    tag_600:\n        /* \"#utility.yul\":14169:14308   */\n      swap1\n      pop\n        /* \"#utility.yul\":13896:14315   */\n      swap2\n      swap1\n      pop\n      jump\t// out\n        /* \"#utility.yul\":14321:14483   */\n    tag_421:\n        /* \"#utility.yul\":14461:14475   */\n      0x4645455f544f4f5f484947480000000000000000000000000000000000000000\n        /* \"#utility.yul\":14457:14458   */\n      0x00\n        /* \"#utility.yul\":14449:14455   */\n      dup3\n        /* \"#utility.yul\":14445:14459   */\n      add\n        /* \"#utility.yul\":14438:14476   */\n      mstore\n        /* \"#utility.yul\":14321:14483   */\n      pop\n      jump\t// out\n        /* \"#utility.yul\":14489:14855   */\n    tag_422:\n        /* \"#utility.yul\":14631:14634   */\n      0x00\n        /* \"#utility.yul\":14652:14719   */\n      tag_603\n        /* \"#utility.yul\":14716:14718   */\n      0x0c\n        /* \"#utility.yul\":14711:14714   */\n      dup4\n        /* \"#utility.yul\":14652:14719   */\n      tag_385\n      jump\t// in\n    tag_603:\n        /* \"#utility.yul\":14645:14719   */\n      swap2\n      pop\n        /* \"#utility.yul\":14728:14821   */\n      tag_604\n        /* \"#utility.yul\":14817:14820   */\n      dup3\n        /* \"#utility.yul\":14728:14821   */\n      tag_421\n      jump\t// in\n    tag_604:\n        /* \"#utility.yul\":14846:14848   */\n      0x20\n        /* \"#utility.yul\":14841:14844   */\n      dup3\n        /* \"#utility.yul\":14837:14849   */\n      add\n        /* \"#utility.yul\":14830:14849   */\n      swap1\n      pop\n        /* \"#utility.yul\":14489:14855   */\n      swap2\n      swap1\n      pop\n      jump\t// out\n        /* \"#utility.yul\":14861:15280   */\n    tag_259:\n        /* \"#utility.yul\":15027:15031   */\n      0x00\n        /* \"#utility.yul\":15065:15067   */\n      0x20\n        /* \"#utility.yul\":15054:15063   */\n      dup3\n        /* \"#utility.yul\":15050:15068   */\n      add\n        /* \"#utility.yul\":15042:15068   */\n      swap1\n      pop\n        /* \"#utility.yul\":15114:15123   */\n      dup2\n        /* \"#utility.yul\":15108:15112   */\n      dup2\n        /* \"#utility.yul\":15104:15124   */\n      sub\n        /* \"#utility.yul\":15100:15101   */\n      0x00\n        /* \"#utility.yul\":15089:15098   */\n      dup4\n        /* \"#utility.yul\":15085:15102   */\n      add\n        /* \"#utility.yul\":15078:15125   */\n      mstore\n        /* \"#utility.yul\":15142:15273   */\n      tag_606\n        /* \"#utility.yul\":15268:15272   */\n      dup2\n        /* \"#utility.yul\":15142:15273   */\n      tag_422\n      jump\t// in\n    tag_606:\n        /* \"#utility.yul\":15134:15273   */\n      swap1\n      pop\n        /* \"#utility.yul\":14861:15280   */\n      swap2\n      swap1\n      pop\n      jump\t// out\n        /* \"#utility.yul\":15286:15618   */\n    tag_282:\n        /* \"#utility.yul\":15407:15411   */\n      0x00\n        /* \"#utility.yul\":15445:15447   */\n      0x40\n        /* \"#utility.yul\":15434:15443   */\n      dup3\n        /* \"#utility.yul\":15430:15448   */\n      add\n        /* \"#utility.yul\":15422:15448   */\n      swap1\n      pop\n        /* \"#utility.yul\":15458:15529   */\n      tag_608\n        /* \"#utility.yul\":15526:15527   */\n      0x00\n        /* \"#utility.yul\":15515:15524   */\n      dup4\n        /* \"#utility.yul\":15511:15528   */\n      add\n        /* \"#utility.yul\":15502:15508   */\n      dup6\n        /* \"#utility.yul\":15458:15529   */\n      tag_409\n      jump\t// in\n    tag_608:\n        /* \"#utility.yul\":15539:15611   */\n      tag_609\n        /* \"#utility.yul\":15607:15609   */\n      0x20\n        /* \"#utility.yul\":15596:15605   */\n      dup4\n        /* \"#utility.yul\":15592:15610   */\n      add\n        /* \"#utility.yul\":15583:15589   */\n      dup5\n        /* \"#utility.yul\":15539:15611   */\n      tag_383\n      jump\t// in\n    tag_609:\n        /* \"#utility.yul\":15286:15618   */\n      swap4\n      swap3\n      pop\n      pop\n      pop\n      jump\t// out\n        /* \"#utility.yul\":15624:15740   */\n    tag_423:\n        /* \"#utility.yul\":15694:15715   */\n      tag_611\n        /* \"#utility.yul\":15709:15714   */\n      dup2\n        /* \"#utility.yul\":15694:15715   */\n      tag_398\n      jump\t// in\n    tag_611:\n        /* \"#utility.yul\":15687:15692   */\n      dup2\n        /* \"#utility.yul\":15684:15716   */\n      eq\n        /* \"#utility.yul\":15674:15734   */\n      tag_612\n      jumpi\n        /* \"#utility.yul\":15730:15731   */\n      0x00\n        /* \"#utility.yul\":15727:15728   */\n      dup1\n        /* \"#utility.yul\":15720:15732   */\n      revert\n        /* \"#utility.yul\":15674:15734   */\n    tag_612:\n        /* \"#utility.yul\":15624:15740   */\n      pop\n      jump\t// out\n        /* \"#utility.yul\":15746:15883   */\n    tag_424:\n        /* \"#utility.yul\":15800:15805   */\n      0x00\n        /* \"#utility.yul\":15831:15837   */\n      dup2\n        /* \"#utility.yul\":15825:15838   */\n      mload\n        /* \"#utility.yul\":15816:15838   */\n      swap1\n      pop\n        /* \"#utility.yul\":15847:15877   */\n      tag_614\n        /* \"#utility.yul\":15871:15876   */\n      dup2\n        /* \"#utility.yul\":15847:15877   */\n      tag_423\n      jump\t// in\n    tag_614:\n        /* \"#utility.yul\":15746:15883   */\n      swap3\n      swap2\n      pop\n      pop\n      jump\t// out\n        /* \"#utility.yul\":15889:16234   */\n    tag_286:\n        /* \"#utility.yul\":15956:15962   */\n      0x00\n        /* \"#utility.yul\":16005:16007   */\n      0x20\n        /* \"#utility.yul\":15993:16002   */\n      dup3\n        /* \"#utility.yul\":15984:15991   */\n      dup5\n        /* \"#utility.yul\":15980:16003   */\n      sub\n        /* \"#utility.yul\":15976:16008   */\n      slt\n        /* \"#utility.yul\":15973:16092   */\n      iszero\n      tag_616\n      jumpi\n        /* \"#utility.yul\":16011:16090   */\n      tag_617\n      tag_390\n      jump\t// in\n    tag_617:\n        /* \"#utility.yul\":15973:16092   */\n    tag_616:\n        /* \"#utility.yul\":16131:16132   */\n      0x00\n        /* \"#utility.yul\":16156:16217   */\n      tag_618\n        /* \"#utility.yul\":16209:16216   */\n      dup5\n        /* \"#utility.yul\":16200:16206   */\n      dup3\n        /* \"#utility.yul\":16189:16198   */\n      dup6\n        /* \"#utility.yul\":16185:16207   */\n      add\n        /* \"#utility.yul\":16156:16217   */\n      tag_424\n      jump\t// in\n    tag_618:\n        /* \"#utility.yul\":16146:16217   */\n      swap2\n      pop\n        /* \"#utility.yul\":16102:16227   */\n      pop\n        /* \"#utility.yul\":15889:16234   */\n      swap3\n      swap2\n      pop\n      pop\n      jump\t// out\n        /* \"#utility.yul\":16240:16401   */\n    tag_425:\n        /* \"#utility.yul\":16380:16393   */\n      0x5a45524f5f415353455453000000000000000000000000000000000000000000\n        /* \"#utility.yul\":16376:16377   */\n      0x00\n        /* \"#utility.yul\":16368:16374   */\n      dup3\n        /* \"#utility.yul\":16364:16378   */\n      add\n        /* \"#utility.yul\":16357:16394   */\n      mstore\n        /* \"#utility.yul\":16240:16401   */\n      pop\n      jump\t// out\n        /* \"#utility.yul\":16407:16773   */\n    tag_426:\n        /* \"#utility.yul\":16549:16552   */\n      0x00\n        /* \"#utility.yul\":16570:16637   */\n      tag_621\n        /* \"#utility.yul\":16634:16636   */\n      0x0b\n        /* \"#utility.yul\":16629:16632   */\n      dup4\n        /* \"#utility.yul\":16570:16637   */\n      tag_385\n      jump\t// in\n    tag_621:\n        /* \"#utility.yul\":16563:16637   */\n      swap2\n      pop\n        /* \"#utility.yul\":16646:16739   */\n      tag_622\n        /* \"#utility.yul\":16735:16738   */\n      dup3\n        /* \"#utility.yul\":16646:16739   */\n      tag_425\n      jump\t// in\n    tag_622:\n        /* \"#utility.yul\":16764:16766   */\n      0x20\n        /* \"#utility.yul\":16759:16762   */\n      dup3\n        /* \"#utility.yul\":16755:16767   */\n      add\n        /* \"#utility.yul\":16748:16767   */\n      swap1\n      pop\n        /* \"#utility.yul\":16407:16773   */\n      swap2\n      swap1\n      pop\n      jump\t// out\n        /* \"#utility.yul\":16779:17198   */\n    tag_311:\n        /* \"#utility.yul\":16945:16949   */\n      0x00\n        /* \"#utility.yul\":16983:16985   */\n      0x20\n        /* \"#utility.yul\":16972:16981   */\n      dup3\n        /* \"#utility.yul\":16968:16986   */\n      add\n        /* \"#utility.yul\":16960:16986   */\n      swap1\n      pop\n        /* \"#utility.yul\":17032:17041   */\n      dup2\n        /* \"#utility.yul\":17026:17030   */\n      dup2\n        /* \"#utility.yul\":17022:17042   */\n      sub\n        /* \"#utility.yul\":17018:17019   */\n      0x00\n        /* \"#utility.yul\":17007:17016   */\n      dup4\n        /* \"#utility.yul\":17003:17020   */\n      add\n        /* \"#utility.yul\":16996:17043   */\n      mstore\n        /* \"#utility.yul\":17060:17191   */\n      tag_624\n        /* \"#utility.yul\":17186:17190   */\n      dup2\n        /* \"#utility.yul\":17060:17191   */\n      tag_426\n      jump\t// in\n    tag_624:\n        /* \"#utility.yul\":17052:17191   */\n      swap1\n      pop\n        /* \"#utility.yul\":16779:17198   */\n      swap2\n      swap1\n      pop\n      jump\t// out\n        /* \"#utility.yul\":17204:17377   */\n    tag_427:\n        /* \"#utility.yul\":17344:17369   */\n      0x5045524d49545f444541444c494e455f45585049524544000000000000000000\n        /* \"#utility.yul\":17340:17341   */\n      0x00\n        /* \"#utility.yul\":17332:17338   */\n      dup3\n        /* \"#utility.yul\":17328:17342   */\n      add\n        /* \"#utility.yul\":17321:17370   */\n      mstore\n        /* \"#utility.yul\":17204:17377   */\n      pop\n      jump\t// out\n        /* \"#utility.yul\":17383:17749   */\n    tag_428:\n        /* \"#utility.yul\":17525:17528   */\n      0x00\n        /* \"#utility.yul\":17546:17613   */\n      tag_627\n        /* \"#utility.yul\":17610:17612   */\n      0x17\n        /* \"#utility.yul\":17605:17608   */\n      dup4\n        /* \"#utility.yul\":17546:17613   */\n      tag_385\n      jump\t// in\n    tag_627:\n        /* \"#utility.yul\":17539:17613   */\n      swap2\n      pop\n        /* \"#utility.yul\":17622:17715   */\n      tag_628\n        /* \"#utility.yul\":17711:17714   */\n      dup3\n        /* \"#utility.yul\":17622:17715   */\n      tag_427\n      jump\t// in\n    tag_628:\n        /* \"#utility.yul\":17740:17742   */\n      0x20\n        /* \"#utility.yul\":17735:17738   */\n      dup3\n        /* \"#utility.yul\":17731:17743   */\n      add\n        /* \"#utility.yul\":17724:17743   */\n      swap1\n      pop\n        /* \"#utility.yul\":17383:17749   */\n      swap2\n      swap1\n      pop\n      jump\t// out\n        /* \"#utility.yul\":17755:18174   */\n    tag_327:\n        /* \"#utility.yul\":17921:17925   */\n      0x00\n        /* \"#utility.yul\":17959:17961   */\n      0x20\n        /* \"#utility.yul\":17948:17957   */\n      dup3\n        /* \"#utility.yul\":17944:17962   */\n      add\n        /* \"#utility.yul\":17936:17962   */\n      swap1\n      pop\n        /* \"#utility.yul\":18008:18017   */\n      dup2\n        /* \"#utility.yul\":18002:18006   */\n      dup2\n        /* \"#utility.yul\":17998:18018   */\n      sub\n        /* \"#utility.yul\":17994:17995   */\n      0x00\n        /* \"#utility.yul\":17983:17992   */\n      dup4\n        /* \"#utility.yul\":17979:17996   */\n      add\n        /* \"#utility.yul\":17972:18019   */\n      mstore\n        /* \"#utility.yul\":18036:18167   */\n      tag_630\n        /* \"#utility.yul\":18162:18166   */\n      dup2\n        /* \"#utility.yul\":18036:18167   */\n      tag_428\n      jump\t// in\n    tag_630:\n        /* \"#utility.yul\":18028:18167   */\n      swap1\n      pop\n        /* \"#utility.yul\":17755:18174   */\n      swap2\n      swap1\n      pop\n      jump\t// out\n        /* \"#utility.yul\":18180:18955   */\n    tag_330:\n        /* \"#utility.yul\":18413:18417   */\n      0x00\n        /* \"#utility.yul\":18451:18454   */\n      0xc0\n        /* \"#utility.yul\":18440:18449   */\n      dup3\n        /* \"#utility.yul\":18436:18455   */\n      add\n        /* \"#utility.yul\":18428:18455   */\n      swap1\n      pop\n        /* \"#utility.yul\":18465:18536   */\n      tag_632\n        /* \"#utility.yul\":18533:18534   */\n      0x00\n        /* \"#utility.yul\":18522:18531   */\n      dup4\n        /* \"#utility.yul\":18518:18535   */\n      add\n        /* \"#utility.yul\":18509:18515   */\n      dup10\n        /* \"#utility.yul\":18465:18536   */\n      tag_403\n      jump\t// in\n    tag_632:\n        /* \"#utility.yul\":18546:18618   */\n      tag_633\n        /* \"#utility.yul\":18614:18616   */\n      0x20\n        /* \"#utility.yul\":18603:18612   */\n      dup4\n        /* \"#utility.yul\":18599:18617   */\n      add\n        /* \"#utility.yul\":18590:18596   */\n      dup9\n        /* \"#utility.yul\":18546:18618   */\n      tag_409\n      jump\t// in\n    tag_633:\n        /* \"#utility.yul\":18628:18700   */\n      tag_634\n        /* \"#utility.yul\":18696:18698   */\n      0x40\n        /* \"#utility.yul\":18685:18694   */\n      dup4\n        /* \"#utility.yul\":18681:18699   */\n      add\n        /* \"#utility.yul\":18672:18678   */\n      dup8\n        /* \"#utility.yul\":18628:18700   */\n      tag_409\n      jump\t// in\n    tag_634:\n        /* \"#utility.yul\":18710:18782   */\n      tag_635\n        /* \"#utility.yul\":18778:18780   */\n      0x60\n        /* \"#utility.yul\":18767:18776   */\n      dup4\n        /* \"#utility.yul\":18763:18781   */\n      add\n        /* \"#utility.yul\":18754:18760   */\n      dup7\n        /* \"#utility.yul\":18710:18782   */\n      tag_383\n      jump\t// in\n    tag_635:\n        /* \"#utility.yul\":18792:18865   */\n      tag_636\n        /* \"#utility.yul\":18860:18863   */\n      0x80\n        /* \"#utility.yul\":18849:18858   */\n      dup4\n        /* \"#utility.yul\":18845:18864   */\n      add\n        /* \"#utility.yul\":18836:18842   */\n      dup6\n        /* \"#utility.yul\":18792:18865   */\n      tag_383\n      jump\t// in\n    tag_636:\n        /* \"#utility.yul\":18875:18948   */\n      tag_637\n        /* \"#utility.yul\":18943:18946   */\n      0xa0\n        /* \"#utility.yul\":18932:18941   */\n      dup4\n        /* \"#utility.yul\":18928:18947   */\n      add\n        /* \"#utility.yul\":18919:18925   */\n      dup5\n        /* \"#utility.yul\":18875:18948   */\n      tag_383\n      jump\t// in\n    tag_637:\n        /* \"#utility.yul\":18180:18955   */\n      swap8\n      swap7\n      pop\n      pop\n      pop\n      pop\n      pop\n      pop\n      pop\n      jump\t// out\n        /* \"#utility.yul\":18961:19109   */\n    tag_429:\n        /* \"#utility.yul\":19063:19074   */\n      0x00\n        /* \"#utility.yul\":19100:19103   */\n      dup2\n        /* \"#utility.yul\":19085:19103   */\n      swap1\n      pop\n        /* \"#utility.yul\":18961:19109   */\n      swap3\n      swap2\n      pop\n      pop\n      jump\t// out\n        /* \"#utility.yul\":19115:19329   */\n    tag_430:\n        /* \"#utility.yul\":19255:19321   */\n      0x1901000000000000000000000000000000000000000000000000000000000000\n        /* \"#utility.yul\":19251:19252   */\n      0x00\n        /* \"#utility.yul\":19243:19249   */\n      dup3\n        /* \"#utility.yul\":19239:19253   */\n      add\n        /* \"#utility.yul\":19232:19322   */\n      mstore\n        /* \"#utility.yul\":19115:19329   */\n      pop\n      jump\t// out\n        /* \"#utility.yul\":19335:19735   */\n    tag_431:\n        /* \"#utility.yul\":19495:19498   */\n      0x00\n        /* \"#utility.yul\":19516:19600   */\n      tag_641\n        /* \"#utility.yul\":19598:19599   */\n      0x02\n        /* \"#utility.yul\":19593:19596   */\n      dup4\n        /* \"#utility.yul\":19516:19600   */\n      tag_429\n      jump\t// in\n    tag_641:\n        /* \"#utility.yul\":19509:19600   */\n      swap2\n      pop\n        /* \"#utility.yul\":19609:19702   */\n      tag_642\n        /* \"#utility.yul\":19698:19701   */\n      dup3\n        /* \"#utility.yul\":19609:19702   */\n      tag_430\n      jump\t// in\n    tag_642:\n        /* \"#utility.yul\":19727:19728   */\n      0x02\n        /* \"#utility.yul\":19722:19725   */\n      dup3\n        /* \"#utility.yul\":19718:19729   */\n      add\n        /* \"#utility.yul\":19711:19729   */\n      swap1\n      pop\n        /* \"#utility.yul\":19335:19735   */\n      swap2\n      swap1\n      pop\n      jump\t// out\n        /* \"#utility.yul\":19741:19820   */\n    tag_432:\n        /* \"#utility.yul\":19780:19787   */\n      0x00\n        /* \"#utility.yul\":19809:19814   */\n      dup2\n        /* \"#utility.yul\":19798:19814   */\n      swap1\n      pop\n        /* \"#utility.yul\":19741:19820   */\n      swap2\n      swap1\n      pop\n      jump\t// out\n        /* \"#utility.yul\":19826:19983   */\n    tag_433:\n        /* \"#utility.yul\":19931:19976   */\n      tag_645\n        /* \"#utility.yul\":19951:19975   */\n      tag_646\n        /* \"#utility.yul\":19969:19974   */\n      dup3\n        /* \"#utility.yul\":19951:19975   */\n      tag_402\n      jump\t// in\n    tag_646:\n        /* \"#utility.yul\":19931:19976   */\n      tag_432\n      jump\t// in\n    tag_645:\n        /* \"#utility.yul\":19926:19929   */\n      dup3\n        /* \"#utility.yul\":19919:19977   */\n      mstore\n        /* \"#utility.yul\":19826:19983   */\n      pop\n      pop\n      jump\t// out\n        /* \"#utility.yul\":19989:20652   */\n    tag_332:\n        /* \"#utility.yul\":20230:20233   */\n      0x00\n        /* \"#utility.yul\":20252:20400   */\n      tag_648\n        /* \"#utility.yul\":20396:20399   */\n      dup3\n        /* \"#utility.yul\":20252:20400   */\n      tag_431\n      jump\t// in\n    tag_648:\n        /* \"#utility.yul\":20245:20400   */\n      swap2\n      pop\n        /* \"#utility.yul\":20410:20485   */\n      tag_649\n        /* \"#utility.yul\":20481:20484   */\n      dup3\n        /* \"#utility.yul\":20472:20478   */\n      dup6\n        /* \"#utility.yul\":20410:20485   */\n      tag_433\n      jump\t// in\n    tag_649:\n        /* \"#utility.yul\":20510:20512   */\n      0x20\n        /* \"#utility.yul\":20505:20508   */\n      dup3\n        /* \"#utility.yul\":20501:20513   */\n      add\n        /* \"#utility.yul\":20494:20513   */\n      swap2\n      pop\n        /* \"#utility.yul\":20523:20598   */\n      tag_650\n        /* \"#utility.yul\":20594:20597   */\n      dup3\n        /* \"#utility.yul\":20585:20591   */\n      dup5\n        /* \"#utility.yul\":20523:20598   */\n      tag_433\n      jump\t// in\n    tag_650:\n        /* \"#utility.yul\":20623:20625   */\n      0x20\n        /* \"#utility.yul\":20618:20621   */\n      dup3\n        /* \"#utility.yul\":20614:20626   */\n      add\n        /* \"#utility.yul\":20607:20626   */\n      swap2\n      pop\n        /* \"#utility.yul\":20643:20646   */\n      dup2\n        /* \"#utility.yul\":20636:20646   */\n      swap1\n      pop\n        /* \"#utility.yul\":19989:20652   */\n      swap4\n      swap3\n      pop\n      pop\n      pop\n      jump\t// out\n        /* \"#utility.yul\":20658:21203   */\n    tag_334:\n        /* \"#utility.yul\":20831:20835   */\n      0x00\n        /* \"#utility.yul\":20869:20872   */\n      0x80\n        /* \"#utility.yul\":20858:20867   */\n      dup3\n        /* \"#utility.yul\":20854:20873   */\n      add\n        /* \"#utility.yul\":20846:20873   */\n      swap1\n      pop\n        /* \"#utility.yul\":20883:20954   */\n      tag_652\n        /* \"#utility.yul\":20951:20952   */\n      0x00\n        /* \"#utility.yul\":20940:20949   */\n      dup4\n        /* \"#utility.yul\":20936:20953   */\n      add\n        /* \"#utility.yul\":20927:20933   */\n      dup8\n        /* \"#utility.yul\":20883:20954   */\n      tag_403\n      jump\t// in\n    tag_652:\n        /* \"#utility.yul\":20964:21032   */\n      tag_653\n        /* \"#utility.yul\":21028:21030   */\n      0x20\n        /* \"#utility.yul\":21017:21026   */\n      dup4\n        /* \"#utility.yul\":21013:21031   */\n      add\n        /* \"#utility.yul\":21004:21010   */\n      dup7\n        /* \"#utility.yul\":20964:21032   */\n      tag_401\n      jump\t// in\n    tag_653:\n        /* \"#utility.yul\":21042:21114   */\n      tag_654\n        /* \"#utility.yul\":21110:21112   */\n      0x40\n        /* \"#utility.yul\":21099:21108   */\n      dup4\n        /* \"#utility.yul\":21095:21113   */\n      add\n        /* \"#utility.yul\":21086:21092   */\n      dup6\n        /* \"#utility.yul\":21042:21114   */\n      tag_403\n      jump\t// in\n    tag_654:\n        /* \"#utility.yul\":21124:21196   */\n      tag_655\n        /* \"#utility.yul\":21192:21194   */\n      0x60\n        /* \"#utility.yul\":21181:21190   */\n      dup4\n        /* \"#utility.yul\":21177:21195   */\n      add\n        /* \"#utility.yul\":21168:21174   */\n      dup5\n        /* \"#utility.yul\":21124:21196   */\n      tag_403\n      jump\t// in\n    tag_655:\n        /* \"#utility.yul\":20658:21203   */\n      swap6\n      swap5\n      pop\n      pop\n      pop\n      pop\n      pop\n      jump\t// out\n        /* \"#utility.yul\":21209:21373   */\n    tag_434:\n        /* \"#utility.yul\":21349:21365   */\n      0x494e56414c49445f5349474e4552000000000000000000000000000000000000\n        /* \"#utility.yul\":21345:21346   */\n      0x00\n        /* \"#utility.yul\":21337:21343   */\n      dup3\n        /* \"#utility.yul\":21333:21347   */\n      add\n        /* \"#utility.yul\":21326:21366   */\n      mstore\n        /* \"#utility.yul\":21209:21373   */\n      pop\n      jump\t// out\n        /* \"#utility.yul\":21379:21745   */\n    tag_435:\n        /* \"#utility.yul\":21521:21524   */\n      0x00\n        /* \"#utility.yul\":21542:21609   */\n      tag_658\n        /* \"#utility.yul\":21606:21608   */\n      0x0e\n        /* \"#utility.yul\":21601:21604   */\n      dup4\n        /* \"#utility.yul\":21542:21609   */\n      tag_385\n      jump\t// in\n    tag_658:\n        /* \"#utility.yul\":21535:21609   */\n      swap2\n      pop\n        /* \"#utility.yul\":21618:21711   */\n      tag_659\n        /* \"#utility.yul\":21707:21710   */\n      dup3\n        /* \"#utility.yul\":21618:21711   */\n      tag_434\n      jump\t// in\n    tag_659:\n        /* \"#utility.yul\":21736:21738   */\n      0x20\n        /* \"#utility.yul\":21731:21734   */\n      dup3\n        /* \"#utility.yul\":21727:21739   */\n      add\n        /* \"#utility.yul\":21720:21739   */\n      swap1\n      pop\n        /* \"#utility.yul\":21379:21745   */\n      swap2\n      swap1\n      pop\n      jump\t// out\n        /* \"#utility.yul\":21751:22170   */\n    tag_340:\n        /* \"#utility.yul\":21917:21921   */\n      0x00\n        /* \"#utility.yul\":21955:21957   */\n      0x20\n        /* \"#utility.yul\":21944:21953   */\n      dup3\n        /* \"#utility.yul\":21940:21958   */\n      add\n        /* \"#utility.yul\":21932:21958   */\n      swap1\n      pop\n        /* \"#utility.yul\":22004:22013   */\n      dup2\n        /* \"#utility.yul\":21998:22002   */\n      dup2\n        /* \"#utility.yul\":21994:22014   */\n      sub\n        /* \"#utility.yul\":21990:21991   */\n      0x00\n        /* \"#utility.yul\":21979:21988   */\n      dup4\n        /* \"#utility.yul\":21975:21992   */\n      add\n        /* \"#utility.yul\":21968:22015   */\n      mstore\n        /* \"#utility.yul\":22032:22163   */\n      tag_661\n        /* \"#utility.yul\":22158:22162   */\n      dup2\n        /* \"#utility.yul\":22032:22163   */\n      tag_435\n      jump\t// in\n    tag_661:\n        /* \"#utility.yul\":22024:22163   */\n      swap1\n      pop\n        /* \"#utility.yul\":21751:22170   */\n      swap2\n      swap1\n      pop\n      jump\t// out\n        /* \"#utility.yul\":22176:22403   */\n    tag_436:\n        /* \"#utility.yul\":22316:22350   */\n      0x4f776e61626c653a206e6577206d616e6167657220697320746865207a65726f\n        /* \"#utility.yul\":22312:22313   */\n      0x00\n        /* \"#utility.yul\":22304:22310   */\n      dup3\n        /* \"#utility.yul\":22300:22314   */\n      add\n        /* \"#utility.yul\":22293:22351   */\n      mstore\n        /* \"#utility.yul\":22385:22395   */\n      0x2061646472657373000000000000000000000000000000000000000000000000\n        /* \"#utility.yul\":22380:22382   */\n      0x20\n        /* \"#utility.yul\":22372:22378   */\n      dup3\n        /* \"#utility.yul\":22368:22383   */\n      add\n        /* \"#utility.yul\":22361:22396   */\n      mstore\n        /* \"#utility.yul\":22176:22403   */\n      pop\n      jump\t// out\n        /* \"#utility.yul\":22409:22775   */\n    tag_437:\n        /* \"#utility.yul\":22551:22554   */\n      0x00\n        /* \"#utility.yul\":22572:22639   */\n      tag_664\n        /* \"#utility.yul\":22636:22638   */\n      0x28\n        /* \"#utility.yul\":22631:22634   */\n      dup4\n        /* \"#utility.yul\":22572:22639   */\n      tag_385\n      jump\t// in\n    tag_664:\n        /* \"#utility.yul\":22565:22639   */\n      swap2\n      pop\n        /* \"#utility.yul\":22648:22741   */\n      tag_665\n        /* \"#utility.yul\":22737:22740   */\n      dup3\n        /* \"#utility.yul\":22648:22741   */\n      tag_436\n      jump\t// in\n    tag_665:\n        /* \"#utility.yul\":22766:22768   */\n      0x40\n        /* \"#utility.yul\":22761:22764   */\n      dup3\n        /* \"#utility.yul\":22757:22769   */\n      add\n        /* \"#utility.yul\":22750:22769   */\n      swap1\n      pop\n        /* \"#utility.yul\":22409:22775   */\n      swap2\n      swap1\n      pop\n      jump\t// out\n        /* \"#utility.yul\":22781:23200   */\n    tag_352:\n        /* \"#utility.yul\":22947:22951   */\n      0x00\n        /* \"#utility.yul\":22985:22987   */\n      0x20\n        /* \"#utility.yul\":22974:22983   */\n      dup3\n        /* \"#utility.yul\":22970:22988   */\n      add\n        /* \"#utility.yul\":22962:22988   */\n      swap1\n      pop\n        /* \"#utility.yul\":23034:23043   */\n      dup2\n        /* \"#utility.yul\":23028:23032   */\n      dup2\n        /* \"#utility.yul\":23024:23044   */\n      sub\n        /* \"#utility.yul\":23020:23021   */\n      0x00\n        /* \"#utility.yul\":23009:23018   */\n      dup4\n        /* \"#utility.yul\":23005:23022   */\n      add\n        /* \"#utility.yul\":22998:23045   */\n      mstore\n        /* \"#utility.yul\":23062:23193   */\n      tag_667\n        /* \"#utility.yul\":23188:23192   */\n      dup2\n        /* \"#utility.yul\":23062:23193   */\n      tag_437\n      jump\t// in\n    tag_667:\n        /* \"#utility.yul\":23054:23193   */\n      swap1\n      pop\n        /* \"#utility.yul\":22781:23200   */\n      swap2\n      swap1\n      pop\n      jump\t// out\n        /* \"#utility.yul\":23206:23353   */\n    tag_438:\n        /* \"#utility.yul\":23307:23318   */\n      0x00\n        /* \"#utility.yul\":23344:23347   */\n      dup2\n        /* \"#utility.yul\":23329:23347   */\n      swap1\n      pop\n        /* \"#utility.yul\":23206:23353   */\n      swap3\n      swap2\n      pop\n      pop\n      jump\t// out\n        /* \"#utility.yul\":23359:23503   */\n    tag_439:\n        /* \"#utility.yul\":23411:23415   */\n      0x00\n        /* \"#utility.yul\":23434:23437   */\n      dup2\n        /* \"#utility.yul\":23426:23437   */\n      swap1\n      pop\n        /* \"#utility.yul\":23457:23460   */\n      dup2\n        /* \"#utility.yul\":23454:23455   */\n      0x00\n        /* \"#utility.yul\":23447:23461   */\n      mstore\n        /* \"#utility.yul\":23491:23495   */\n      0x20\n        /* \"#utility.yul\":23488:23489   */\n      0x00\n        /* \"#utility.yul\":23478:23496   */\n      keccak256\n        /* \"#utility.yul\":23470:23496   */\n      swap1\n      pop\n        /* \"#utility.yul\":23359:23503   */\n      swap2\n      swap1\n      pop\n      jump\t// out\n        /* \"#utility.yul\":23531:24380   */\n    tag_440:\n        /* \"#utility.yul\":23636:23639   */\n      0x00\n        /* \"#utility.yul\":23673:23678   */\n      dup2\n        /* \"#utility.yul\":23667:23679   */\n      sload\n        /* \"#utility.yul\":23702:23738   */\n      tag_671\n        /* \"#utility.yul\":23728:23737   */\n      dup2\n        /* \"#utility.yul\":23702:23738   */\n      tag_199\n      jump\t// in\n    tag_671:\n        /* \"#utility.yul\":23754:23842   */\n      tag_672\n        /* \"#utility.yul\":23835:23841   */\n      dup2\n        /* \"#utility.yul\":23830:23833   */\n      dup7\n        /* \"#utility.yul\":23754:23842   */\n      tag_438\n      jump\t// in\n    tag_672:\n        /* \"#utility.yul\":23747:23842   */\n      swap5\n      pop\n        /* \"#utility.yul\":23873:23874   */\n      0x01\n        /* \"#utility.yul\":23862:23871   */\n      dup3\n        /* \"#utility.yul\":23858:23875   */\n      and\n        /* \"#utility.yul\":23889:23890   */\n      0x00\n        /* \"#utility.yul\":23884:24021   */\n      dup2\n      eq\n      tag_674\n      jumpi\n        /* \"#utility.yul\":24035:24036   */\n      0x01\n        /* \"#utility.yul\":24030:24374   */\n      dup2\n      eq\n      tag_675\n      jumpi\n        /* \"#utility.yul\":23851:24374   */\n      jump(tag_673)\n        /* \"#utility.yul\":23884:24021   */\n    tag_674:\n        /* \"#utility.yul\":23968:23972   */\n      0xff\n        /* \"#utility.yul\":23964:23973   */\n      not\n        /* \"#utility.yul\":23953:23962   */\n      dup4\n        /* \"#utility.yul\":23949:23974   */\n      and\n        /* \"#utility.yul\":23944:23947   */\n      dup7\n        /* \"#utility.yul\":23937:23975   */\n      mstore\n        /* \"#utility.yul\":24004:24010   */\n      dup2\n        /* \"#utility.yul\":23999:24002   */\n      dup7\n        /* \"#utility.yul\":23995:24011   */\n      add\n        /* \"#utility.yul\":23988:24011   */\n      swap4\n      pop\n        /* \"#utility.yul\":23884:24021   */\n      jump(tag_673)\n        /* \"#utility.yul\":24030:24374   */\n    tag_675:\n        /* \"#utility.yul\":24097:24138   */\n      tag_676\n        /* \"#utility.yul\":24132:24137   */\n      dup6\n        /* \"#utility.yul\":24097:24138   */\n      tag_439\n      jump\t// in\n    tag_676:\n        /* \"#utility.yul\":24160:24161   */\n      0x00\n        /* \"#utility.yul\":24174:24328   */\n    tag_677:\n        /* \"#utility.yul\":24188:24194   */\n      dup4\n        /* \"#utility.yul\":24185:24186   */\n      dup2\n        /* \"#utility.yul\":24182:24195   */\n      lt\n        /* \"#utility.yul\":24174:24328   */\n      iszero\n      tag_679\n      jumpi\n        /* \"#utility.yul\":24262:24269   */\n      dup2\n        /* \"#utility.yul\":24256:24270   */\n      sload\n        /* \"#utility.yul\":24252:24253   */\n      dup2\n        /* \"#utility.yul\":24247:24250   */\n      dup10\n        /* \"#utility.yul\":24243:24254   */\n      add\n        /* \"#utility.yul\":24236:24271   */\n      mstore\n        /* \"#utility.yul\":24312:24313   */\n      0x01\n        /* \"#utility.yul\":24303:24310   */\n      dup3\n        /* \"#utility.yul\":24299:24314   */\n      add\n        /* \"#utility.yul\":24288:24314   */\n      swap2\n      pop\n        /* \"#utility.yul\":24210:24214   */\n      0x20\n        /* \"#utility.yul\":24207:24208   */\n      dup2\n        /* \"#utility.yul\":24203:24215   */\n      add\n        /* \"#utility.yul\":24198:24215   */\n      swap1\n      pop\n        /* \"#utility.yul\":24174:24328   */\n      jump(tag_677)\n    tag_679:\n        /* \"#utility.yul\":24357:24363   */\n      dup4\n        /* \"#utility.yul\":24352:24355   */\n      dup9\n        /* \"#utility.yul\":24348:24364   */\n      add\n        /* \"#utility.yul\":24341:24364   */\n      swap6\n      pop\n        /* \"#utility.yul\":24037:24374   */\n      pop\n      pop\n        /* \"#utility.yul\":23851:24374   */\n    tag_673:\n      pop\n        /* \"#utility.yul\":23640:24380   */\n      pop\n      pop\n        /* \"#utility.yul\":23531:24380   */\n      swap3\n      swap2\n      pop\n      pop\n      jump\t// out\n        /* \"#utility.yul\":24386:24659   */\n    tag_359:\n        /* \"#utility.yul\":24517:24520   */\n      0x00\n        /* \"#utility.yul\":24539:24633   */\n      tag_681\n        /* \"#utility.yul\":24629:24632   */\n      dup3\n        /* \"#utility.yul\":24620:24626   */\n      dup5\n        /* \"#utility.yul\":24539:24633   */\n      tag_440\n      jump\t// in\n    tag_681:\n        /* \"#utility.yul\":24532:24633   */\n      swap2\n      pop\n        /* \"#utility.yul\":24650:24653   */\n      dup2\n        /* \"#utility.yul\":24643:24653   */\n      swap1\n      pop\n        /* \"#utility.yul\":24386:24659   */\n      swap3\n      swap2\n      pop\n      pop\n      jump\t// out\n        /* \"#utility.yul\":24665:25329   */\n    tag_361:\n        /* \"#utility.yul\":24870:24874   */\n      0x00\n        /* \"#utility.yul\":24908:24911   */\n      0xa0\n        /* \"#utility.yul\":24897:24906   */\n      dup3\n        /* \"#utility.yul\":24893:24912   */\n      add\n        /* \"#utility.yul\":24885:24912   */\n      swap1\n      pop\n        /* \"#utility.yul\":24922:24993   */\n      tag_683\n        /* \"#utility.yul\":24990:24991   */\n      0x00\n        /* \"#utility.yul\":24979:24988   */\n      dup4\n        /* \"#utility.yul\":24975:24992   */\n      add\n        /* \"#utility.yul\":24966:24972   */\n      dup9\n        /* \"#utility.yul\":24922:24993   */\n      tag_403\n      jump\t// in\n    tag_683:\n        /* \"#utility.yul\":25003:25075   */\n      tag_684\n        /* \"#utility.yul\":25071:25073   */\n      0x20\n        /* \"#utility.yul\":25060:25069   */\n      dup4\n        /* \"#utility.yul\":25056:25074   */\n      add\n        /* \"#utility.yul\":25047:25053   */\n      dup8\n        /* \"#utility.yul\":25003:25075   */\n      tag_403\n      jump\t// in\n    tag_684:\n        /* \"#utility.yul\":25085:25157   */\n      tag_685\n        /* \"#utility.yul\":25153:25155   */\n      0x40\n        /* \"#utility.yul\":25142:25151   */\n      dup4\n        /* \"#utility.yul\":25138:25156   */\n      add\n        /* \"#utility.yul\":25129:25135   */\n      dup7\n        /* \"#utility.yul\":25085:25157   */\n      tag_403\n      jump\t// in\n    tag_685:\n        /* \"#utility.yul\":25167:25239   */\n      tag_686\n        /* \"#utility.yul\":25235:25237   */\n      0x60\n        /* \"#utility.yul\":25224:25233   */\n      dup4\n        /* \"#utility.yul\":25220:25238   */\n      add\n        /* \"#utility.yul\":25211:25217   */\n      dup6\n        /* \"#utility.yul\":25167:25239   */\n      tag_383\n      jump\t// in\n    tag_686:\n        /* \"#utility.yul\":25249:25322   */\n      tag_687\n        /* \"#utility.yul\":25317:25320   */\n      0x80\n        /* \"#utility.yul\":25306:25315   */\n      dup4\n        /* \"#utility.yul\":25302:25321   */\n      add\n        /* \"#utility.yul\":25293:25299   */\n      dup5\n        /* \"#utility.yul\":25249:25322   */\n      tag_409\n      jump\t// in\n    tag_687:\n        /* \"#utility.yul\":24665:25329   */\n      swap7\n      swap6\n      pop\n      pop\n      pop\n      pop\n      pop\n      pop\n      jump\t// out\n        /* \"#utility.yul\":25335:25505   */\n    tag_441:\n        /* \"#utility.yul\":25475:25497   */\n      0x5452414e534645525f46524f4d5f4641494c4544000000000000000000000000\n        /* \"#utility.yul\":25471:25472   */\n      0x00\n        /* \"#utility.yul\":25463:25469   */\n      dup3\n        /* \"#utility.yul\":25459:25473   */\n      add\n        /* \"#utility.yul\":25452:25498   */\n      mstore\n        /* \"#utility.yul\":25335:25505   */\n      pop\n      jump\t// out\n        /* \"#utility.yul\":25511:25877   */\n    tag_442:\n        /* \"#utility.yul\":25653:25656   */\n      0x00\n        /* \"#utility.yul\":25674:25741   */\n      tag_690\n        /* \"#utility.yul\":25738:25740   */\n      0x14\n        /* \"#utility.yul\":25733:25736   */\n      dup4\n        /* \"#utility.yul\":25674:25741   */\n      tag_385\n      jump\t// in\n    tag_690:\n        /* \"#utility.yul\":25667:25741   */\n      swap2\n      pop\n        /* \"#utility.yul\":25750:25843   */\n      tag_691\n        /* \"#utility.yul\":25839:25842   */\n      dup3\n        /* \"#utility.yul\":25750:25843   */\n      tag_441\n      jump\t// in\n    tag_691:\n        /* \"#utility.yul\":25868:25870   */\n      0x20\n        /* \"#utility.yul\":25863:25866   */\n      dup3\n        /* \"#utility.yul\":25859:25871   */\n      add\n        /* \"#utility.yul\":25852:25871   */\n      swap1\n      pop\n        /* \"#utility.yul\":25511:25877   */\n      swap2\n      swap1\n      pop\n      jump\t// out\n        /* \"#utility.yul\":25883:26302   */\n    tag_365:\n        /* \"#utility.yul\":26049:26053   */\n      0x00\n        /* \"#utility.yul\":26087:26089   */\n      0x20\n        /* \"#utility.yul\":26076:26085   */\n      dup3\n        /* \"#utility.yul\":26072:26090   */\n      add\n        /* \"#utility.yul\":26064:26090   */\n      swap1\n      pop\n        /* \"#utility.yul\":26136:26145   */\n      dup2\n        /* \"#utility.yul\":26130:26134   */\n      dup2\n        /* \"#utility.yul\":26126:26146   */\n      sub\n        /* \"#utility.yul\":26122:26123   */\n      0x00\n        /* \"#utility.yul\":26111:26120   */\n      dup4\n        /* \"#utility.yul\":26107:26124   */\n      add\n        /* \"#utility.yul\":26100:26147   */\n      mstore\n        /* \"#utility.yul\":26164:26295   */\n      tag_693\n        /* \"#utility.yul\":26290:26294   */\n      dup2\n        /* \"#utility.yul\":26164:26295   */\n      tag_442\n      jump\t// in\n    tag_693:\n        /* \"#utility.yul\":26156:26295   */\n      swap1\n      pop\n        /* \"#utility.yul\":25883:26302   */\n      swap2\n      swap1\n      pop\n      jump\t// out\n        /* \"#utility.yul\":26308:26613   */\n    tag_368:\n        /* \"#utility.yul\":26348:26351   */\n      0x00\n        /* \"#utility.yul\":26367:26387   */\n      tag_695\n        /* \"#utility.yul\":26385:26386   */\n      dup3\n        /* \"#utility.yul\":26367:26387   */\n      tag_382\n      jump\t// in\n    tag_695:\n        /* \"#utility.yul\":26362:26387   */\n      swap2\n      pop\n        /* \"#utility.yul\":26401:26421   */\n      tag_696\n        /* \"#utility.yul\":26419:26420   */\n      dup4\n        /* \"#utility.yul\":26401:26421   */\n      tag_382\n      jump\t// in\n    tag_696:\n        /* \"#utility.yul\":26396:26421   */\n      swap3\n      pop\n        /* \"#utility.yul\":26555:26556   */\n      dup3\n        /* \"#utility.yul\":26487:26553   */\n      0xffffffffffffffffffffffffffffffffffffffffffffffffffffffffffffffff\n        /* \"#utility.yul\":26483:26557   */\n      sub\n        /* \"#utility.yul\":26480:26481   */\n      dup3\n        /* \"#utility.yul\":26477:26558   */\n      gt\n        /* \"#utility.yul\":26474:26581   */\n      iszero\n      tag_697\n      jumpi\n        /* \"#utility.yul\":26561:26579   */\n      tag_698\n      tag_416\n      jump\t// in\n    tag_698:\n        /* \"#utility.yul\":26474:26581   */\n    tag_697:\n        /* \"#utility.yul\":26605:26606   */\n      dup3\n        /* \"#utility.yul\":26602:26603   */\n      dup3\n        /* \"#utility.yul\":26598:26607   */\n      add\n        /* \"#utility.yul\":26591:26607   */\n      swap1\n      pop\n        /* \"#utility.yul\":26308:26613   */\n      swap3\n      swap2\n      pop\n      pop\n      jump\t// out\n        /* \"#utility.yul\":26619:26852   */\n    tag_372:\n        /* \"#utility.yul\":26658:26661   */\n      0x00\n        /* \"#utility.yul\":26681:26705   */\n      tag_700\n        /* \"#utility.yul\":26699:26704   */\n      dup3\n        /* \"#utility.yul\":26681:26705   */\n      tag_382\n      jump\t// in\n    tag_700:\n        /* \"#utility.yul\":26672:26705   */\n      swap2\n      pop\n        /* \"#utility.yul\":26727:26793   */\n      0xffffffffffffffffffffffffffffffffffffffffffffffffffffffffffffffff\n        /* \"#utility.yul\":26720:26725   */\n      dup3\n        /* \"#utility.yul\":26717:26794   */\n      eq\n        /* \"#utility.yul\":26714:26817   */\n      iszero\n      tag_701\n      jumpi\n        /* \"#utility.yul\":26797:26815   */\n      tag_702\n      tag_416\n      jump\t// in\n    tag_702:\n        /* \"#utility.yul\":26714:26817   */\n    tag_701:\n        /* \"#utility.yul\":26844:26845   */\n      0x01\n        /* \"#utility.yul\":26837:26842   */\n      dup3\n        /* \"#utility.yul\":26833:26846   */\n      add\n        /* \"#utility.yul\":26826:26846   */\n      swap1\n      pop\n        /* \"#utility.yul\":26619:26852   */\n      swap2\n      swap1\n      pop\n      jump\t// out\n        /* \"#utility.yul\":26858:27023   */\n    tag_443:\n        /* \"#utility.yul\":26998:27015   */\n      0x5452414e534645525f4641494c45440000000000000000000000000000000000\n        /* \"#utility.yul\":26994:26995   */\n      0x00\n        /* \"#utility.yul\":26986:26992   */\n      dup3\n        /* \"#utility.yul\":26982:26996   */\n      add\n        /* \"#utility.yul\":26975:27016   */\n      mstore\n        /* \"#utility.yul\":26858:27023   */\n      pop\n      jump\t// out\n        /* \"#utility.yul\":27029:27395   */\n    tag_444:\n        /* \"#utility.yul\":27171:27174   */\n      0x00\n        /* \"#utility.yul\":27192:27259   */\n      tag_705\n        /* \"#utility.yul\":27256:27258   */\n      0x0f\n        /* \"#utility.yul\":27251:27254   */\n      dup4\n        /* \"#utility.yul\":27192:27259   */\n      tag_385\n      jump\t// in\n    tag_705:\n        /* \"#utility.yul\":27185:27259   */\n      swap2\n      pop\n        /* \"#utility.yul\":27268:27361   */\n      tag_706\n        /* \"#utility.yul\":27357:27360   */\n      dup3\n        /* \"#utility.yul\":27268:27361   */\n      tag_443\n      jump\t// in\n    tag_706:\n        /* \"#utility.yul\":27386:27388   */\n      0x20\n        /* \"#utility.yul\":27381:27384   */\n      dup3\n        /* \"#utility.yul\":27377:27389   */\n      add\n        /* \"#utility.yul\":27370:27389   */\n      swap1\n      pop\n        /* \"#utility.yul\":27029:27395   */\n      swap2\n      swap1\n      pop\n      jump\t// out\n        /* \"#utility.yul\":27401:27820   */\n    tag_381:\n        /* \"#utility.yul\":27567:27571   */\n      0x00\n        /* \"#utility.yul\":27605:27607   */\n      0x20\n        /* \"#utility.yul\":27594:27603   */\n      dup3\n        /* \"#utility.yul\":27590:27608   */\n      add\n        /* \"#utility.yul\":27582:27608   */\n      swap1\n      pop\n        /* \"#utility.yul\":27654:27663   */\n      dup2\n        /* \"#utility.yul\":27648:27652   */\n      dup2\n        /* \"#utility.yul\":27644:27664   */\n      sub\n        /* \"#utility.yul\":27640:27641   */\n      0x00\n        /* \"#utility.yul\":27629:27638   */\n      dup4\n        /* \"#utility.yul\":27625:27642   */\n      add\n        /* \"#utility.yul\":27618:27665   */\n      mstore\n        /* \"#utility.yul\":27682:27813   */\n      tag_708\n        /* \"#utility.yul\":27808:27812   */\n      dup2\n        /* \"#utility.yul\":27682:27813   */\n      tag_444\n      jump\t// in\n    tag_708:\n        /* \"#utility.yul\":27674:27813   */\n      swap1\n      pop\n        /* \"#utility.yul\":27401:27820   */\n      swap2\n      swap1\n      pop\n      jump\t// out\n\n    auxdata: 0xa264697066735822122083ad2663489821b38b4a231d999f96adf8285811bf6cf00b223295ef02666e2a64736f6c634300080a0033\n}\n",
				"bytecode": {
					"linkReferences": {},
					"object": "610140604052600060075560006008553480156200001c57600080fd5b5060405162003c8238038062003c828339818101604052810190620000429190620004f6565b83838383828282826000908051906020019062000061929190620001f2565b5081600190805190602001906200007a929190620001f2565b508060ff1660808160ff16815250504660a08181525050620000a16200016260201b60201c565b60c081815250505050508373ffffffffffffffffffffffffffffffffffffffff1660e08173ffffffffffffffffffffffffffffffffffffffff1681525050505050508373ffffffffffffffffffffffffffffffffffffffff166101208173ffffffffffffffffffffffffffffffffffffffff1681525050608051600a62000129919062000733565b61010081815250507fffffffffffffffffffffffffffffffffffffffffffffffffffffffffffffffff6002819055505050505062000947565b60007f8b73c3c69bb8fe3d512ecc4cf759cc79239f7b179b0ffacaa9a75d522b39400f600060405162000196919062000894565b60405180910390207fc89efdaa54c0f20c7adf612882df0950f5a951637e0307cdcb4c672f298b8bc64630604051602001620001d7959493929190620008ea565b60405160208183030381529060405280519060200120905090565b8280546200020090620007b3565b90600052602060002090601f01602090048101928262000224576000855562000270565b82601f106200023f57805160ff191683800117855562000270565b8280016001018555821562000270579182015b828111156200026f57825182559160200191906001019062000252565b5b5090506200027f919062000283565b5090565b5b808211156200029e57600081600090555060010162000284565b5090565b6000604051905090565b600080fd5b600080fd5b600073ffffffffffffffffffffffffffffffffffffffff82169050919050565b6000620002e382620002b6565b9050919050565b6000620002f782620002d6565b9050919050565b6200030981620002ea565b81146200031557600080fd5b50565b6000815190506200032981620002fe565b92915050565b600080fd5b600080fd5b6000601f19601f8301169050919050565b7f4e487b7100000000000000000000000000000000000000000000000000000000600052604160045260246000fd5b620003848262000339565b810181811067ffffffffffffffff82111715620003a657620003a56200034a565b5b80604052505050565b6000620003bb620002a2565b9050620003c9828262000379565b919050565b600067ffffffffffffffff821115620003ec57620003eb6200034a565b5b620003f78262000339565b9050602081019050919050565b60005b838110156200042457808201518184015260208101905062000407565b8381111562000434576000848401525b50505050565b6000620004516200044b84620003ce565b620003af565b90508281526020810184848401111562000470576200046f62000334565b5b6200047d84828562000404565b509392505050565b600082601f8301126200049d576200049c6200032f565b5b8151620004af8482602086016200043a565b91505092915050565b600060ff82169050919050565b620004d081620004b8565b8114620004dc57600080fd5b50565b600081519050620004f081620004c5565b92915050565b60008060008060808587031215620005135762000512620002ac565b5b6000620005238782880162000318565b945050602085015167ffffffffffffffff811115620005475762000546620002b1565b5b620005558782880162000485565b935050604085015167ffffffffffffffff811115620005795762000578620002b1565b5b620005878782880162000485565b92505060606200059a87828801620004df565b91505092959194509250565b7f4e487b7100000000000000000000000000000000000000000000000000000000600052601160045260246000fd5b60008160011c9050919050565b6000808291508390505b600185111562000634578086048111156200060c576200060b620005a6565b5b60018516156200061c5780820291505b80810290506200062c85620005d5565b9450620005ec565b94509492505050565b6000826200064f576001905062000722565b816200065f576000905062000722565b81600181146200067857600281146200068357620006b9565b600191505062000722565b60ff841115620006985762000697620005a6565b5b8360020a915084821115620006b257620006b1620005a6565b5b5062000722565b5060208310610133831016604e8410600b8410161715620006f35782820a905083811115620006ed57620006ec620005a6565b5b62000722565b620007028484846001620005e2565b925090508184048111156200071c576200071b620005a6565b5b81810290505b9392505050565b6000819050919050565b6000620007408262000729565b91506200074d83620004b8565b92506200077c7fffffffffffffffffffffffffffffffffffffffffffffffffffffffffffffffff84846200063d565b905092915050565b7f4e487b7100000000000000000000000000000000000000000000000000000000600052602260045260246000fd5b60006002820490506001821680620007cc57607f821691505b60208210811415620007e357620007e262000784565b5b50919050565b600081905092915050565b60008190508160005260206000209050919050565b600081546200081881620007b3565b620008248186620007e9565b9450600182166000811462000842576001811462000854576200088b565b60ff198316865281860193506200088b565b6200085f85620007f4565b60005b83811015620008835781548189015260018201915060208101905062000862565b838801955050505b50505092915050565b6000620008a2828462000809565b915081905092915050565b6000819050919050565b620008c281620008ad565b82525050565b620008d38162000729565b82525050565b620008e481620002d6565b82525050565b600060a082019050620009016000830188620008b7565b620009106020830187620008b7565b6200091f6040830186620008b7565b6200092e6060830185620008c8565b6200093d6080830184620008d9565b9695505050505050565b60805160a05160c05160e05161010051610120516132cb620009b76000396000611a61015260005050600081816107d201528181610d3801528181610e18015281816111770152818161176f0152611a0e01526000610d1101526000610cdd01526000610cb701526132cb6000f3fe608060405234801561001057600080fd5b50600436106102275760003560e01c80637fd6f15c11610130578063c5d664c6116100b8578063d905777e1161007c578063d905777e14610704578063dd62ed3e14610734578063ef8b30f714610764578063f2fde38b14610794578063fc407ae7146107b057610227565b8063c5d664c61461063a578063c63d75b614610658578063c6e6f59214610688578063ce96cb77146106b8578063d505accf146106e857610227565b8063ac68a748116100ff578063ac68a74814610570578063b3d7f6b91461058c578063b460af94146105bc578063ba087652146105ec578063bc368a8a1461061c57610227565b80637fd6f15c146104d457806394bf804d146104f257806395d89b4114610522578063a9059cbb1461054057610227565b806338d52e0f116101b35780636e553f65116101825780636e553f651461041e57806370a082311461044e578063715018a61461047e5780637ce3489b146104885780637ecebe00146104a457610227565b806338d52e0f14610382578063402d267d146103a0578063481c6a75146103d05780634cdad506146103ee57610227565b80630a28a477116101fa5780630a28a477146102c857806318160ddd146102f857806323b872dd14610316578063313ce567146103465780633644e5151461036457610227565b806301e1d1141461022c57806306fdde031461024a57806307a2d13a14610268578063095ea7b314610298575b600080fd5b6102346107ce565b604051610241919061246b565b60405180910390f35b61025261086f565b60405161025f919061251f565b60405180910390f35b610282600480360381019061027d9190612572565b6108fd565b60405161028f919061246b565b60405180910390f35b6102b260048036038101906102ad91906125fd565b610938565b6040516102bf9190612658565b60405180910390f35b6102e260048036038101906102dd9190612572565b610a2a565b6040516102ef919061246b565b60405180910390f35b610300610a65565b60405161030d919061246b565b60405180910390f35b610330600480360381019061032b9190612673565b610a6b565b60405161033d9190612658565b60405180910390f35b61034e610cb5565b60405161035b91906126e2565b60405180910390f35b61036c610cd9565b6040516103799190612716565b60405180910390f35b61038a610d36565b6040516103979190612790565b60405180910390f35b6103ba60048036038101906103b591906127ab565b610d5a565b6040516103c7919061246b565b60405180910390f35b6103d8610d84565b6040516103e591906127e7565b60405180910390f35b61040860048036038101906104039190612572565b610dae565b604051610415919061246b565b60405180910390f35b61043860048036038101906104339190612802565b610dc0565b604051610445919061246b565b60405180910390f35b610468600480360381019061046391906127ab565b610ede565b604051610475919061246b565b60405180910390f35b610486610ef6565b005b6104a2600480360381019061049d9190612572565b61102c565b005b6104be60048036038101906104b991906127ab565b611144565b6040516104cb919061246b565b60405180910390f35b6104dc61115c565b6040516104e9919061246b565b60405180910390f35b61050c60048036038101906105079190612802565b611162565b604051610519919061246b565b60405180910390f35b61052a61123d565b604051610537919061251f565b60405180910390f35b61055a600480360381019061055591906125fd565b6112cb565b6040516105679190612658565b60405180910390f35b61058a60048036038101906105859190612572565b6113df565b005b6105a660048036038101906105a19190612572565b611524565b6040516105b3919061246b565b60405180910390f35b6105d660048036038101906105d19190612842565b61155f565b6040516105e3919061246b565b60405180910390f35b61060660048036038101906106019190612842565b6117ba565b604051610613919061246b565b60405180910390f35b610624611a59565b604051610631919061246b565b60405180910390f35b610642611a5f565b60405161064f9190612790565b60405180910390f35b610672600480360381019061066d91906127ab565b611a83565b60405161067f919061246b565b60405180910390f35b6106a2600480360381019061069d9190612572565b611aad565b6040516106af919061246b565b60405180910390f35b6106d260048036038101906106cd91906127ab565b611ae8565b6040516106df919061246b565b60405180910390f35b61070260048036038101906106fd91906128ed565b611b39565b005b61071e600480360381019061071991906127ab565b611e32565b60405161072b919061246b565b60405180910390f35b61074e6004803603810190610749919061298f565b611e7b565b60405161075b919061246b565b60405180910390f35b61077e60048036038101906107799190612572565b611ea0565b60405161078b919061246b565b60405180910390f35b6107ae60048036038101906107a991906127ab565b611eb2565b005b6107b8612057565b6040516107c5919061246b565b60405180910390f35b60007f000000000000000000000000000000000000000000000000000000000000000073ffffffffffffffffffffffffffffffffffffffff166370a08231306040518263ffffffff1660e01b815260040161082991906127e7565b602060405180830381865afa158015610846573d6000803e3d6000fd5b505050506040513d601f19601f8201168201806040525081019061086a91906129e4565b905090565b6000805461087c90612a40565b80601f01602080910402602001604051908101604052809291908181526020018280546108a890612a40565b80156108f55780601f106108ca576101008083540402835291602001916108f5565b820191906000526020600020905b8154815290600101906020018083116108d857829003601f168201915b505050505081565b60008060025490506000811461092e576109296109186107ce565b828561205d9092919063ffffffff16565b610930565b825b915050919050565b600081600460003373ffffffffffffffffffffffffffffffffffffffff1673ffffffffffffffffffffffffffffffffffffffff16815260200190815260200160002060008573ffffffffffffffffffffffffffffffffffffffff1673ffffffffffffffffffffffffffffffffffffffff168152602001908152602001600020819055508273ffffffffffffffffffffffffffffffffffffffff163373ffffffffffffffffffffffffffffffffffffffff167f8c5be1e5ebec7d5bd14f71427d1e84f3dd0314c0f7b2291e5b200ac8c7c3b92584604051610a18919061246b565b60405180910390a36001905092915050565b600080600254905060008114610a5b57610a5681610a466107ce565b856120859092919063ffffffff16565b610a5d565b825b915050919050565b60025481565b600080600460008673ffffffffffffffffffffffffffffffffffffffff1673ffffffffffffffffffffffffffffffffffffffff16815260200190815260200160002060003373ffffffffffffffffffffffffffffffffffffffff1673ffffffffffffffffffffffffffffffffffffffff1681526020019081526020016000205490507fffffffffffffffffffffffffffffffffffffffffffffffffffffffffffffffff8114610ba1578281610b209190612aa1565b600460008773ffffffffffffffffffffffffffffffffffffffff1673ffffffffffffffffffffffffffffffffffffffff16815260200190815260200160002060003373ffffffffffffffffffffffffffffffffffffffff1673ffffffffffffffffffffffffffffffffffffffff168152602001908152602001600020819055505b82600360008773ffffffffffffffffffffffffffffffffffffffff1673ffffffffffffffffffffffffffffffffffffffff1681526020019081526020016000206000828254610bf09190612aa1565b9250508190555082600360008673ffffffffffffffffffffffffffffffffffffffff1673ffffffffffffffffffffffffffffffffffffffff168152602001908152602001600020600082825401925050819055508373ffffffffffffffffffffffffffffffffffffffff168573ffffffffffffffffffffffffffffffffffffffff167fddf252ad1be2c89b69c2b068fc378daa952ba7f163c4a11628f55a4df523b3ef85604051610ca1919061246b565b60405180910390a360019150509392505050565b7f000000000000000000000000000000000000000000000000000000000000000081565b60007f00000000000000000000000000000000000000000000000000000000000000004614610d0f57610d0a6120b7565b610d31565b7f00000000000000000000000000000000000000000000000000000000000000005b905090565b7f000000000000000000000000000000000000000000000000000000000000000081565b60007fffffffffffffffffffffffffffffffffffffffffffffffffffffffffffffffff9050919050565b6000600660009054906101000a900473ffffffffffffffffffffffffffffffffffffffff16905090565b6000610db9826108fd565b9050919050565b600080610dcc84611ea0565b9150811415610e10576040517f08c379a0000000000000000000000000000000000000000000000000000000008152600401610e0790612b21565b60405180910390fd5b610e5d3330857f000000000000000000000000000000000000000000000000000000000000000073ffffffffffffffffffffffffffffffffffffffff16612143909392919063ffffffff16565b610e6782826121e2565b8173ffffffffffffffffffffffffffffffffffffffff163373ffffffffffffffffffffffffffffffffffffffff167fdcbc1c05240f31ff3ad067ef1ee35ce4997762752e3a095284754544f4c709d78584604051610ec6929190612b41565b60405180910390a3610ed883826122b2565b92915050565b60036020528060005260406000206000915090505481565b3373ffffffffffffffffffffffffffffffffffffffff16610f15610d84565b73ffffffffffffffffffffffffffffffffffffffff1614610f6b576040517f08c379a0000000000000000000000000000000000000000000000000000000008152600401610f6290612bdc565b60405180910390fd5b600073ffffffffffffffffffffffffffffffffffffffff16600660009054906101000a900473ffffffffffffffffffffffffffffffffffffffff1673ffffffffffffffffffffffffffffffffffffffff167f8be0079c531659141344cd1fd0a4f28419497f9722a3daafe3b4186f6b6457e060405160405180910390a36000600660006101000a81548173ffffffffffffffffffffffffffffffffffffffff021916908373ffffffffffffffffffffffffffffffffffffffff160217905550565b3373ffffffffffffffffffffffffffffffffffffffff1661104b610d84565b73ffffffffffffffffffffffffffffffffffffffff16146110a1576040517f08c379a000000000000000000000000000000000000000000000000000000000815260040161109890612bdc565b60405180910390fd5b670de0b6b3a76400008111156110ec576040517f08c379a00000000000000000000000000000000000000000000000000000000081526004016110e390612c48565b60405180910390fd5b806009819055503373ffffffffffffffffffffffffffffffffffffffff167fec370615cc81fb334e5566fbc80664d9082377bf59288d64a79f3fbecf4323a982604051611139919061246b565b60405180910390a250565b60056020528060005260406000206000915090505481565b60095481565b600061116d83611524565b90506111bc3330837f000000000000000000000000000000000000000000000000000000000000000073ffffffffffffffffffffffffffffffffffffffff16612143909392919063ffffffff16565b6111c682846121e2565b8173ffffffffffffffffffffffffffffffffffffffff163373ffffffffffffffffffffffffffffffffffffffff167fdcbc1c05240f31ff3ad067ef1ee35ce4997762752e3a095284754544f4c709d78386604051611225929190612b41565b60405180910390a361123781846122b2565b92915050565b6001805461124a90612a40565b80601f016020809104026020016040519081016040528092919081815260200182805461127690612a40565b80156112c35780601f10611298576101008083540402835291602001916112c3565b820191906000526020600020905b8154815290600101906020018083116112a657829003601f168201915b505050505081565b600081600360003373ffffffffffffffffffffffffffffffffffffffff1673ffffffffffffffffffffffffffffffffffffffff168152602001908152602001600020600082825461131c9190612aa1565b9250508190555081600360008573ffffffffffffffffffffffffffffffffffffffff1673ffffffffffffffffffffffffffffffffffffffff168152602001908152602001600020600082825401925050819055508273ffffffffffffffffffffffffffffffffffffffff163373ffffffffffffffffffffffffffffffffffffffff167fddf252ad1be2c89b69c2b068fc378daa952ba7f163c4a11628f55a4df523b3ef846040516113cd919061246b565b60405180910390a36001905092915050565b3373ffffffffffffffffffffffffffffffffffffffff166113fe610d84565b73ffffffffffffffffffffffffffffffffffffffff1614611454576040517f08c379a000000000000000000000000000000000000000000000000000000000815260040161144b90612bdc565b60405180910390fd5b3373ffffffffffffffffffffffffffffffffffffffff167f9493e5bbe4e8e0ac67284469a2d677403d0378a85a59e341d3abc433d0d9a2098260405161149a919061246b565b60405180910390a23073ffffffffffffffffffffffffffffffffffffffff1663a9059cbb33836040518363ffffffff1660e01b81526004016114dd929190612c68565b6020604051808303816000875af11580156114fc573d6000803e3d6000fd5b505050506040513d601f19601f820116820180604052508101906115209190612cbd565b5050565b6000806002549050600081146115555761155061153f6107ce565b82856120859092919063ffffffff16565b611557565b825b915050919050565b600061156a84610a2a565b90508173ffffffffffffffffffffffffffffffffffffffff163373ffffffffffffffffffffffffffffffffffffffff16146116d6576000600460008473ffffffffffffffffffffffffffffffffffffffff1673ffffffffffffffffffffffffffffffffffffffff16815260200190815260200160002060003373ffffffffffffffffffffffffffffffffffffffff1673ffffffffffffffffffffffffffffffffffffffff1681526020019081526020016000205490507fffffffffffffffffffffffffffffffffffffffffffffffffffffffffffffffff81146116d45781816116539190612aa1565b600460008573ffffffffffffffffffffffffffffffffffffffff1673ffffffffffffffffffffffffffffffffffffffff16815260200190815260200160002060003373ffffffffffffffffffffffffffffffffffffffff1673ffffffffffffffffffffffffffffffffffffffff168152602001908152602001600020819055505b505b6116e084826122ce565b6116ea82826122ea565b8173ffffffffffffffffffffffffffffffffffffffff168373ffffffffffffffffffffffffffffffffffffffff163373ffffffffffffffffffffffffffffffffffffffff167ffbde797d201c681b91056529119e0b02407c7bb96a4a2c75c01fc9667232c8db8785604051611760929190612b41565b60405180910390a46117b383857f000000000000000000000000000000000000000000000000000000000000000073ffffffffffffffffffffffffffffffffffffffff166123ba9092919063ffffffff16565b9392505050565b60008173ffffffffffffffffffffffffffffffffffffffff163373ffffffffffffffffffffffffffffffffffffffff1614611926576000600460008473ffffffffffffffffffffffffffffffffffffffff1673ffffffffffffffffffffffffffffffffffffffff16815260200190815260200160002060003373ffffffffffffffffffffffffffffffffffffffff1673ffffffffffffffffffffffffffffffffffffffff1681526020019081526020016000205490507fffffffffffffffffffffffffffffffffffffffffffffffffffffffffffffffff81146119245784816118a39190612aa1565b600460008573ffffffffffffffffffffffffffffffffffffffff1673ffffffffffffffffffffffffffffffffffffffff16815260200190815260200160002060003373ffffffffffffffffffffffffffffffffffffffff1673ffffffffffffffffffffffffffffffffffffffff168152602001908152602001600020819055505b505b600061193185610dae565b9150811415611975576040517f08c379a000000000000000000000000000000000000000000000000000000000815260040161196c90612d36565b60405180910390fd5b61197f81856122ce565b61198982856122ea565b8173ffffffffffffffffffffffffffffffffffffffff168373ffffffffffffffffffffffffffffffffffffffff163373ffffffffffffffffffffffffffffffffffffffff167ffbde797d201c681b91056529119e0b02407c7bb96a4a2c75c01fc9667232c8db84886040516119ff929190612b41565b60405180910390a4611a5283827f000000000000000000000000000000000000000000000000000000000000000073ffffffffffffffffffffffffffffffffffffffff166123ba9092919063ffffffff16565b9392505050565b60075481565b7f000000000000000000000000000000000000000000000000000000000000000081565b60007fffffffffffffffffffffffffffffffffffffffffffffffffffffffffffffffff9050919050565b600080600254905060008114611ade57611ad981611ac96107ce565b8561205d9092919063ffffffff16565b611ae0565b825b915050919050565b6000611b32600360008473ffffffffffffffffffffffffffffffffffffffff1673ffffffffffffffffffffffffffffffffffffffff168152602001908152602001600020546108fd565b9050919050565b42841015611b7c576040517f08c379a0000000000000000000000000000000000000000000000000000000008152600401611b7390612da2565b60405180910390fd5b60006001611b88610cd9565b7f6e71edae12b1b97f4d1f60370fef10105fa2faae0126114a169c64845d6126c98a8a8a600560008f73ffffffffffffffffffffffffffffffffffffffff1673ffffffffffffffffffffffffffffffffffffffff1681526020019081526020016000206000815480929190600101919050558b604051602001611c1096959493929190612dc2565b60405160208183030381529060405280519060200120604051602001611c37929190612e9b565b6040516020818303038152906040528051906020012085858560405160008152602001604052604051611c6d9493929190612ed2565b6020604051602081039080840390855afa158015611c8f573d6000803e3d6000fd5b505050602060405103519050600073ffffffffffffffffffffffffffffffffffffffff168173ffffffffffffffffffffffffffffffffffffffff1614158015611d0357508773ffffffffffffffffffffffffffffffffffffffff168173ffffffffffffffffffffffffffffffffffffffff16145b611d42576040517f08c379a0000000000000000000000000000000000000000000000000000000008152600401611d3990612f63565b60405180910390fd5b85600460008373ffffffffffffffffffffffffffffffffffffffff1673ffffffffffffffffffffffffffffffffffffffff16815260200190815260200160002060008973ffffffffffffffffffffffffffffffffffffffff1673ffffffffffffffffffffffffffffffffffffffff16815260200190815260200160002081905550508573ffffffffffffffffffffffffffffffffffffffff168773ffffffffffffffffffffffffffffffffffffffff167f8c5be1e5ebec7d5bd14f71427d1e84f3dd0314c0f7b2291e5b200ac8c7c3b92587604051611e21919061246b565b60405180910390a350505050505050565b6000600360008373ffffffffffffffffffffffffffffffffffffffff1673ffffffffffffffffffffffffffffffffffffffff168152602001908152602001600020549050919050565b6004602052816000526040600020602052806000526040600020600091509150505481565b6000611eab82611aad565b9050919050565b3373ffffffffffffffffffffffffffffffffffffffff16611ed1610d84565b73ffffffffffffffffffffffffffffffffffffffff1614611f27576040517f08c379a0000000000000000000000000000000000000000000000000000000008152600401611f1e90612bdc565b60405180910390fd5b600073ffffffffffffffffffffffffffffffffffffffff168173ffffffffffffffffffffffffffffffffffffffff161415611f97576040517f08c379a0000000000000000000000000000000000000000000000000000000008152600401611f8e90612ff5565b60405180910390fd5b8073ffffffffffffffffffffffffffffffffffffffff16600660009054906101000a900473ffffffffffffffffffffffffffffffffffffffff1673ffffffffffffffffffffffffffffffffffffffff167f8be0079c531659141344cd1fd0a4f28419497f9722a3daafe3b4186f6b6457e060405160405180910390a380600660006101000a81548173ffffffffffffffffffffffffffffffffffffffff021916908373ffffffffffffffffffffffffffffffffffffffff16021790555050565b60085481565b6000828402905082848204148415178215151661207957600080fd5b81810490509392505050565b600082840290508284820414841517821515166120a157600080fd5b6001826001830304018115150290509392505050565b60007f8b73c3c69bb8fe3d512ecc4cf759cc79239f7b179b0ffacaa9a75d522b39400f60006040516120e991906130b4565b60405180910390207fc89efdaa54c0f20c7adf612882df0950f5a951637e0307cdcb4c672f298b8bc646306040516020016121289594939291906130cb565b60405160208183030381529060405280519060200120905090565b60006040517f23b872dd0000000000000000000000000000000000000000000000000000000081528460048201528360248201528260448201526020600060648360008a5af13d15601f3d11600160005114161716915050806121db576040517f08c379a00000000000000000000000000000000000000000000000000000000081526004016121d29061316a565b60405180910390fd5b5050505050565b80600260008282546121f4919061318a565b9250508190555080600360008473ffffffffffffffffffffffffffffffffffffffff1673ffffffffffffffffffffffffffffffffffffffff168152602001908152602001600020600082825401925050819055508173ffffffffffffffffffffffffffffffffffffffff16600073ffffffffffffffffffffffffffffffffffffffff167fddf252ad1be2c89b69c2b068fc378daa952ba7f163c4a11628f55a4df523b3ef836040516122a6919061246b565b60405180910390a35050565b600860008154809291906122c5906131e0565b91905055505050565b600760008154809291906122e1906131e0565b91905055505050565b80600360008473ffffffffffffffffffffffffffffffffffffffff1673ffffffffffffffffffffffffffffffffffffffff16815260200190815260200160002060008282546123399190612aa1565b9250508190555080600260008282540392505081905550600073ffffffffffffffffffffffffffffffffffffffff168273ffffffffffffffffffffffffffffffffffffffff167fddf252ad1be2c89b69c2b068fc378daa952ba7f163c4a11628f55a4df523b3ef836040516123ae919061246b565b60405180910390a35050565b60006040517fa9059cbb000000000000000000000000000000000000000000000000000000008152836004820152826024820152602060006044836000895af13d15601f3d116001600051141617169150508061244c576040517f08c379a000000000000000000000000000000000000000000000000000000000815260040161244390613275565b60405180910390fd5b50505050565b6000819050919050565b61246581612452565b82525050565b6000602082019050612480600083018461245c565b92915050565b600081519050919050565b600082825260208201905092915050565b60005b838110156124c05780820151818401526020810190506124a5565b838111156124cf576000848401525b50505050565b6000601f19601f8301169050919050565b60006124f182612486565b6124fb8185612491565b935061250b8185602086016124a2565b612514816124d5565b840191505092915050565b6000602082019050818103600083015261253981846124e6565b905092915050565b600080fd5b61254f81612452565b811461255a57600080fd5b50565b60008135905061256c81612546565b92915050565b60006020828403121561258857612587612541565b5b60006125968482850161255d565b91505092915050565b600073ffffffffffffffffffffffffffffffffffffffff82169050919050565b60006125ca8261259f565b9050919050565b6125da816125bf565b81146125e557600080fd5b50565b6000813590506125f7816125d1565b92915050565b6000806040838503121561261457612613612541565b5b6000612622858286016125e8565b92505060206126338582860161255d565b9150509250929050565b60008115159050919050565b6126528161263d565b82525050565b600060208201905061266d6000830184612649565b92915050565b60008060006060848603121561268c5761268b612541565b5b600061269a868287016125e8565b93505060206126ab868287016125e8565b92505060406126bc8682870161255d565b9150509250925092565b600060ff82169050919050565b6126dc816126c6565b82525050565b60006020820190506126f760008301846126d3565b92915050565b6000819050919050565b612710816126fd565b82525050565b600060208201905061272b6000830184612707565b92915050565b6000819050919050565b600061275661275161274c8461259f565b612731565b61259f565b9050919050565b60006127688261273b565b9050919050565b600061277a8261275d565b9050919050565b61278a8161276f565b82525050565b60006020820190506127a56000830184612781565b92915050565b6000602082840312156127c1576127c0612541565b5b60006127cf848285016125e8565b91505092915050565b6127e1816125bf565b82525050565b60006020820190506127fc60008301846127d8565b92915050565b6000806040838503121561281957612818612541565b5b60006128278582860161255d565b9250506020612838858286016125e8565b9150509250929050565b60008060006060848603121561285b5761285a612541565b5b60006128698682870161255d565b935050602061287a868287016125e8565b925050604061288b868287016125e8565b9150509250925092565b61289e816126c6565b81146128a957600080fd5b50565b6000813590506128bb81612895565b92915050565b6128ca816126fd565b81146128d557600080fd5b50565b6000813590506128e7816128c1565b92915050565b600080600080600080600060e0888a03121561290c5761290b612541565b5b600061291a8a828b016125e8565b975050602061292b8a828b016125e8565b965050604061293c8a828b0161255d565b955050606061294d8a828b0161255d565b945050608061295e8a828b016128ac565b93505060a061296f8a828b016128d8565b92505060c06129808a828b016128d8565b91505092959891949750929550565b600080604083850312156129a6576129a5612541565b5b60006129b4858286016125e8565b92505060206129c5858286016125e8565b9150509250929050565b6000815190506129de81612546565b92915050565b6000602082840312156129fa576129f9612541565b5b6000612a08848285016129cf565b91505092915050565b7f4e487b7100000000000000000000000000000000000000000000000000000000600052602260045260246000fd5b60006002820490506001821680612a5857607f821691505b60208210811415612a6c57612a6b612a11565b5b50919050565b7f4e487b7100000000000000000000000000000000000000000000000000000000600052601160045260246000fd5b6000612aac82612452565b9150612ab783612452565b925082821015612aca57612ac9612a72565b5b828203905092915050565b7f5a45524f5f534841524553000000000000000000000000000000000000000000600082015250565b6000612b0b600b83612491565b9150612b1682612ad5565b602082019050919050565b60006020820190508181036000830152612b3a81612afe565b9050919050565b6000604082019050612b56600083018561245c565b612b63602083018461245c565b9392505050565b7f4f776e61626c653a2063616c6c6572206973206e6f7420746865206d616e616760008201527f6572000000000000000000000000000000000000000000000000000000000000602082015250565b6000612bc6602283612491565b9150612bd182612b6a565b604082019050919050565b60006020820190508181036000830152612bf581612bb9565b9050919050565b7f4645455f544f4f5f484947480000000000000000000000000000000000000000600082015250565b6000612c32600c83612491565b9150612c3d82612bfc565b602082019050919050565b60006020820190508181036000830152612c6181612c25565b9050919050565b6000604082019050612c7d60008301856127d8565b612c8a602083018461245c565b9392505050565b612c9a8161263d565b8114612ca557600080fd5b50565b600081519050612cb781612c91565b92915050565b600060208284031215612cd357612cd2612541565b5b6000612ce184828501612ca8565b91505092915050565b7f5a45524f5f415353455453000000000000000000000000000000000000000000600082015250565b6000612d20600b83612491565b9150612d2b82612cea565b602082019050919050565b60006020820190508181036000830152612d4f81612d13565b9050919050565b7f5045524d49545f444541444c494e455f45585049524544000000000000000000600082015250565b6000612d8c601783612491565b9150612d9782612d56565b602082019050919050565b60006020820190508181036000830152612dbb81612d7f565b9050919050565b600060c082019050612dd76000830189612707565b612de460208301886127d8565b612df160408301876127d8565b612dfe606083018661245c565b612e0b608083018561245c565b612e1860a083018461245c565b979650505050505050565b600081905092915050565b7f1901000000000000000000000000000000000000000000000000000000000000600082015250565b6000612e64600283612e23565b9150612e6f82612e2e565b600282019050919050565b6000819050919050565b612e95612e90826126fd565b612e7a565b82525050565b6000612ea682612e57565b9150612eb28285612e84565b602082019150612ec28284612e84565b6020820191508190509392505050565b6000608082019050612ee76000830187612707565b612ef460208301866126d3565b612f016040830185612707565b612f0e6060830184612707565b95945050505050565b7f494e56414c49445f5349474e4552000000000000000000000000000000000000600082015250565b6000612f4d600e83612491565b9150612f5882612f17565b602082019050919050565b60006020820190508181036000830152612f7c81612f40565b9050919050565b7f4f776e61626c653a206e6577206d616e6167657220697320746865207a65726f60008201527f2061646472657373000000000000000000000000000000000000000000000000602082015250565b6000612fdf602883612491565b9150612fea82612f83565b604082019050919050565b6000602082019050818103600083015261300e81612fd2565b9050919050565b600081905092915050565b60008190508160005260206000209050919050565b6000815461304281612a40565b61304c8186613015565b945060018216600081146130675760018114613078576130ab565b60ff198316865281860193506130ab565b61308185613020565b60005b838110156130a357815481890152600182019150602081019050613084565b838801955050505b50505092915050565b60006130c08284613035565b915081905092915050565b600060a0820190506130e06000830188612707565b6130ed6020830187612707565b6130fa6040830186612707565b613107606083018561245c565b61311460808301846127d8565b9695505050505050565b7f5452414e534645525f46524f4d5f4641494c4544000000000000000000000000600082015250565b6000613154601483612491565b915061315f8261311e565b602082019050919050565b6000602082019050818103600083015261318381613147565b9050919050565b600061319582612452565b91506131a083612452565b9250827fffffffffffffffffffffffffffffffffffffffffffffffffffffffffffffffff038211156131d5576131d4612a72565b5b828201905092915050565b60006131eb82612452565b91507fffffffffffffffffffffffffffffffffffffffffffffffffffffffffffffffff82141561321e5761321d612a72565b5b600182019050919050565b7f5452414e534645525f4641494c45440000000000000000000000000000000000600082015250565b600061325f600f83612491565b915061326a82613229565b602082019050919050565b6000602082019050818103600083015261328e81613252565b905091905056fea264697066735822122083ad2663489821b38b4a231d999f96adf8285811bf6cf00b223295ef02666e2a64736f6c634300080a0033",
					"opcodes": "PUSH2 0x140 PUSH1 0x40 MSTORE PUSH1 0x0 PUSH1 0x7 SSTORE PUSH1 0x0 PUSH1 0x8 SSTORE CALLVALUE DUP1 ISZERO PUSH3 0x1C JUMPI PUSH1 0x0 DUP1 REVERT JUMPDEST POP PUSH1 0x40 MLOAD PUSH3 0x3C82 CODESIZE SUB DUP1 PUSH3 0x3C82 DUP4 CODECOPY DUP2 DUP2 ADD PUSH1 0x40 MSTORE DUP2 ADD SWAP1 PUSH3 0x42 SWAP2 SWAP1 PUSH3 0x4F6 JUMP JUMPDEST DUP4 DUP4 DUP4 DUP4 DUP3 DUP3 DUP3 DUP3 PUSH1 0x0 SWAP1 DUP1 MLOAD SWAP1 PUSH1 0x20 ADD SWAP1 PUSH3 0x61 SWAP3 SWAP2 SWAP1 PUSH3 0x1F2 JUMP JUMPDEST POP DUP2 PUSH1 0x1 SWAP1 DUP1 MLOAD SWAP1 PUSH1 0x20 ADD SWAP1 PUSH3 0x7A SWAP3 SWAP2 SWAP1 PUSH3 0x1F2 JUMP JUMPDEST POP DUP1 PUSH1 0xFF AND PUSH1 0x80 DUP2 PUSH1 0xFF AND DUP2 MSTORE POP POP CHAINID PUSH1 0xA0 DUP2 DUP2 MSTORE POP POP PUSH3 0xA1 PUSH3 0x162 PUSH1 0x20 SHL PUSH1 0x20 SHR JUMP JUMPDEST PUSH1 0xC0 DUP2 DUP2 MSTORE POP POP POP POP POP DUP4 PUSH20 0xFFFFFFFFFFFFFFFFFFFFFFFFFFFFFFFFFFFFFFFF AND PUSH1 0xE0 DUP2 PUSH20 0xFFFFFFFFFFFFFFFFFFFFFFFFFFFFFFFFFFFFFFFF AND DUP2 MSTORE POP POP POP POP POP POP DUP4 PUSH20 0xFFFFFFFFFFFFFFFFFFFFFFFFFFFFFFFFFFFFFFFF AND PUSH2 0x120 DUP2 PUSH20 0xFFFFFFFFFFFFFFFFFFFFFFFFFFFFFFFFFFFFFFFF AND DUP2 MSTORE POP POP PUSH1 0x80 MLOAD PUSH1 0xA PUSH3 0x129 SWAP2 SWAP1 PUSH3 0x733 JUMP JUMPDEST PUSH2 0x100 DUP2 DUP2 MSTORE POP POP PUSH32 0xFFFFFFFFFFFFFFFFFFFFFFFFFFFFFFFFFFFFFFFFFFFFFFFFFFFFFFFFFFFFFFFF PUSH1 0x2 DUP2 SWAP1 SSTORE POP POP POP POP POP PUSH3 0x947 JUMP JUMPDEST PUSH1 0x0 PUSH32 0x8B73C3C69BB8FE3D512ECC4CF759CC79239F7B179B0FFACAA9A75D522B39400F PUSH1 0x0 PUSH1 0x40 MLOAD PUSH3 0x196 SWAP2 SWAP1 PUSH3 0x894 JUMP JUMPDEST PUSH1 0x40 MLOAD DUP1 SWAP2 SUB SWAP1 KECCAK256 PUSH32 0xC89EFDAA54C0F20C7ADF612882DF0950F5A951637E0307CDCB4C672F298B8BC6 CHAINID ADDRESS PUSH1 0x40 MLOAD PUSH1 0x20 ADD PUSH3 0x1D7 SWAP6 SWAP5 SWAP4 SWAP3 SWAP2 SWAP1 PUSH3 0x8EA JUMP JUMPDEST PUSH1 0x40 MLOAD PUSH1 0x20 DUP2 DUP4 SUB SUB DUP2 MSTORE SWAP1 PUSH1 0x40 MSTORE DUP1 MLOAD SWAP1 PUSH1 0x20 ADD KECCAK256 SWAP1 POP SWAP1 JUMP JUMPDEST DUP3 DUP1 SLOAD PUSH3 0x200 SWAP1 PUSH3 0x7B3 JUMP JUMPDEST SWAP1 PUSH1 0x0 MSTORE PUSH1 0x20 PUSH1 0x0 KECCAK256 SWAP1 PUSH1 0x1F ADD PUSH1 0x20 SWAP1 DIV DUP2 ADD SWAP3 DUP3 PUSH3 0x224 JUMPI PUSH1 0x0 DUP6 SSTORE PUSH3 0x270 JUMP JUMPDEST DUP3 PUSH1 0x1F LT PUSH3 0x23F JUMPI DUP1 MLOAD PUSH1 0xFF NOT AND DUP4 DUP1 ADD OR DUP6 SSTORE PUSH3 0x270 JUMP JUMPDEST DUP3 DUP1 ADD PUSH1 0x1 ADD DUP6 SSTORE DUP3 ISZERO PUSH3 0x270 JUMPI SWAP2 DUP3 ADD JUMPDEST DUP3 DUP2 GT ISZERO PUSH3 0x26F JUMPI DUP3 MLOAD DUP3 SSTORE SWAP2 PUSH1 0x20 ADD SWAP2 SWAP1 PUSH1 0x1 ADD SWAP1 PUSH3 0x252 JUMP JUMPDEST JUMPDEST POP SWAP1 POP PUSH3 0x27F SWAP2 SWAP1 PUSH3 0x283 JUMP JUMPDEST POP SWAP1 JUMP JUMPDEST JUMPDEST DUP1 DUP3 GT ISZERO PUSH3 0x29E JUMPI PUSH1 0x0 DUP2 PUSH1 0x0 SWAP1 SSTORE POP PUSH1 0x1 ADD PUSH3 0x284 JUMP JUMPDEST POP SWAP1 JUMP JUMPDEST PUSH1 0x0 PUSH1 0x40 MLOAD SWAP1 POP SWAP1 JUMP JUMPDEST PUSH1 0x0 DUP1 REVERT JUMPDEST PUSH1 0x0 DUP1 REVERT JUMPDEST PUSH1 0x0 PUSH20 0xFFFFFFFFFFFFFFFFFFFFFFFFFFFFFFFFFFFFFFFF DUP3 AND SWAP1 POP SWAP2 SWAP1 POP JUMP JUMPDEST PUSH1 0x0 PUSH3 0x2E3 DUP3 PUSH3 0x2B6 JUMP JUMPDEST SWAP1 POP SWAP2 SWAP1 POP JUMP JUMPDEST PUSH1 0x0 PUSH3 0x2F7 DUP3 PUSH3 0x2D6 JUMP JUMPDEST SWAP1 POP SWAP2 SWAP1 POP JUMP JUMPDEST PUSH3 0x309 DUP2 PUSH3 0x2EA JUMP JUMPDEST DUP2 EQ PUSH3 0x315 JUMPI PUSH1 0x0 DUP1 REVERT JUMPDEST POP JUMP JUMPDEST PUSH1 0x0 DUP2 MLOAD SWAP1 POP PUSH3 0x329 DUP2 PUSH3 0x2FE JUMP JUMPDEST SWAP3 SWAP2 POP POP JUMP JUMPDEST PUSH1 0x0 DUP1 REVERT JUMPDEST PUSH1 0x0 DUP1 REVERT JUMPDEST PUSH1 0x0 PUSH1 0x1F NOT PUSH1 0x1F DUP4 ADD AND SWAP1 POP SWAP2 SWAP1 POP JUMP JUMPDEST PUSH32 0x4E487B7100000000000000000000000000000000000000000000000000000000 PUSH1 0x0 MSTORE PUSH1 0x41 PUSH1 0x4 MSTORE PUSH1 0x24 PUSH1 0x0 REVERT JUMPDEST PUSH3 0x384 DUP3 PUSH3 0x339 JUMP JUMPDEST DUP2 ADD DUP2 DUP2 LT PUSH8 0xFFFFFFFFFFFFFFFF DUP3 GT OR ISZERO PUSH3 0x3A6 JUMPI PUSH3 0x3A5 PUSH3 0x34A JUMP JUMPDEST JUMPDEST DUP1 PUSH1 0x40 MSTORE POP POP POP JUMP JUMPDEST PUSH1 0x0 PUSH3 0x3BB PUSH3 0x2A2 JUMP JUMPDEST SWAP1 POP PUSH3 0x3C9 DUP3 DUP3 PUSH3 0x379 JUMP JUMPDEST SWAP2 SWAP1 POP JUMP JUMPDEST PUSH1 0x0 PUSH8 0xFFFFFFFFFFFFFFFF DUP3 GT ISZERO PUSH3 0x3EC JUMPI PUSH3 0x3EB PUSH3 0x34A JUMP JUMPDEST JUMPDEST PUSH3 0x3F7 DUP3 PUSH3 0x339 JUMP JUMPDEST SWAP1 POP PUSH1 0x20 DUP2 ADD SWAP1 POP SWAP2 SWAP1 POP JUMP JUMPDEST PUSH1 0x0 JUMPDEST DUP4 DUP2 LT ISZERO PUSH3 0x424 JUMPI DUP1 DUP3 ADD MLOAD DUP2 DUP5 ADD MSTORE PUSH1 0x20 DUP2 ADD SWAP1 POP PUSH3 0x407 JUMP JUMPDEST DUP4 DUP2 GT ISZERO PUSH3 0x434 JUMPI PUSH1 0x0 DUP5 DUP5 ADD MSTORE JUMPDEST POP POP POP POP JUMP JUMPDEST PUSH1 0x0 PUSH3 0x451 PUSH3 0x44B DUP5 PUSH3 0x3CE JUMP JUMPDEST PUSH3 0x3AF JUMP JUMPDEST SWAP1 POP DUP3 DUP2 MSTORE PUSH1 0x20 DUP2 ADD DUP5 DUP5 DUP5 ADD GT ISZERO PUSH3 0x470 JUMPI PUSH3 0x46F PUSH3 0x334 JUMP JUMPDEST JUMPDEST PUSH3 0x47D DUP5 DUP3 DUP6 PUSH3 0x404 JUMP JUMPDEST POP SWAP4 SWAP3 POP POP POP JUMP JUMPDEST PUSH1 0x0 DUP3 PUSH1 0x1F DUP4 ADD SLT PUSH3 0x49D JUMPI PUSH3 0x49C PUSH3 0x32F JUMP JUMPDEST JUMPDEST DUP2 MLOAD PUSH3 0x4AF DUP5 DUP3 PUSH1 0x20 DUP7 ADD PUSH3 0x43A JUMP JUMPDEST SWAP2 POP POP SWAP3 SWAP2 POP POP JUMP JUMPDEST PUSH1 0x0 PUSH1 0xFF DUP3 AND SWAP1 POP SWAP2 SWAP1 POP JUMP JUMPDEST PUSH3 0x4D0 DUP2 PUSH3 0x4B8 JUMP JUMPDEST DUP2 EQ PUSH3 0x4DC JUMPI PUSH1 0x0 DUP1 REVERT JUMPDEST POP JUMP JUMPDEST PUSH1 0x0 DUP2 MLOAD SWAP1 POP PUSH3 0x4F0 DUP2 PUSH3 0x4C5 JUMP JUMPDEST SWAP3 SWAP2 POP POP JUMP JUMPDEST PUSH1 0x0 DUP1 PUSH1 0x0 DUP1 PUSH1 0x80 DUP6 DUP8 SUB SLT ISZERO PUSH3 0x513 JUMPI PUSH3 0x512 PUSH3 0x2AC JUMP JUMPDEST JUMPDEST PUSH1 0x0 PUSH3 0x523 DUP8 DUP3 DUP9 ADD PUSH3 0x318 JUMP JUMPDEST SWAP5 POP POP PUSH1 0x20 DUP6 ADD MLOAD PUSH8 0xFFFFFFFFFFFFFFFF DUP2 GT ISZERO PUSH3 0x547 JUMPI PUSH3 0x546 PUSH3 0x2B1 JUMP JUMPDEST JUMPDEST PUSH3 0x555 DUP8 DUP3 DUP9 ADD PUSH3 0x485 JUMP JUMPDEST SWAP4 POP POP PUSH1 0x40 DUP6 ADD MLOAD PUSH8 0xFFFFFFFFFFFFFFFF DUP2 GT ISZERO PUSH3 0x579 JUMPI PUSH3 0x578 PUSH3 0x2B1 JUMP JUMPDEST JUMPDEST PUSH3 0x587 DUP8 DUP3 DUP9 ADD PUSH3 0x485 JUMP JUMPDEST SWAP3 POP POP PUSH1 0x60 PUSH3 0x59A DUP8 DUP3 DUP9 ADD PUSH3 0x4DF JUMP JUMPDEST SWAP2 POP POP SWAP3 SWAP6 SWAP2 SWAP5 POP SWAP3 POP JUMP JUMPDEST PUSH32 0x4E487B7100000000000000000000000000000000000000000000000000000000 PUSH1 0x0 MSTORE PUSH1 0x11 PUSH1 0x4 MSTORE PUSH1 0x24 PUSH1 0x0 REVERT JUMPDEST PUSH1 0x0 DUP2 PUSH1 0x1 SHR SWAP1 POP SWAP2 SWAP1 POP JUMP JUMPDEST PUSH1 0x0 DUP1 DUP3 SWAP2 POP DUP4 SWAP1 POP JUMPDEST PUSH1 0x1 DUP6 GT ISZERO PUSH3 0x634 JUMPI DUP1 DUP7 DIV DUP2 GT ISZERO PUSH3 0x60C JUMPI PUSH3 0x60B PUSH3 0x5A6 JUMP JUMPDEST JUMPDEST PUSH1 0x1 DUP6 AND ISZERO PUSH3 0x61C JUMPI DUP1 DUP3 MUL SWAP2 POP JUMPDEST DUP1 DUP2 MUL SWAP1 POP PUSH3 0x62C DUP6 PUSH3 0x5D5 JUMP JUMPDEST SWAP5 POP PUSH3 0x5EC JUMP JUMPDEST SWAP5 POP SWAP5 SWAP3 POP POP POP JUMP JUMPDEST PUSH1 0x0 DUP3 PUSH3 0x64F JUMPI PUSH1 0x1 SWAP1 POP PUSH3 0x722 JUMP JUMPDEST DUP2 PUSH3 0x65F JUMPI PUSH1 0x0 SWAP1 POP PUSH3 0x722 JUMP JUMPDEST DUP2 PUSH1 0x1 DUP2 EQ PUSH3 0x678 JUMPI PUSH1 0x2 DUP2 EQ PUSH3 0x683 JUMPI PUSH3 0x6B9 JUMP JUMPDEST PUSH1 0x1 SWAP2 POP POP PUSH3 0x722 JUMP JUMPDEST PUSH1 0xFF DUP5 GT ISZERO PUSH3 0x698 JUMPI PUSH3 0x697 PUSH3 0x5A6 JUMP JUMPDEST JUMPDEST DUP4 PUSH1 0x2 EXP SWAP2 POP DUP5 DUP3 GT ISZERO PUSH3 0x6B2 JUMPI PUSH3 0x6B1 PUSH3 0x5A6 JUMP JUMPDEST JUMPDEST POP PUSH3 0x722 JUMP JUMPDEST POP PUSH1 0x20 DUP4 LT PUSH2 0x133 DUP4 LT AND PUSH1 0x4E DUP5 LT PUSH1 0xB DUP5 LT AND OR ISZERO PUSH3 0x6F3 JUMPI DUP3 DUP3 EXP SWAP1 POP DUP4 DUP2 GT ISZERO PUSH3 0x6ED JUMPI PUSH3 0x6EC PUSH3 0x5A6 JUMP JUMPDEST JUMPDEST PUSH3 0x722 JUMP JUMPDEST PUSH3 0x702 DUP5 DUP5 DUP5 PUSH1 0x1 PUSH3 0x5E2 JUMP JUMPDEST SWAP3 POP SWAP1 POP DUP2 DUP5 DIV DUP2 GT ISZERO PUSH3 0x71C JUMPI PUSH3 0x71B PUSH3 0x5A6 JUMP JUMPDEST JUMPDEST DUP2 DUP2 MUL SWAP1 POP JUMPDEST SWAP4 SWAP3 POP POP POP JUMP JUMPDEST PUSH1 0x0 DUP2 SWAP1 POP SWAP2 SWAP1 POP JUMP JUMPDEST PUSH1 0x0 PUSH3 0x740 DUP3 PUSH3 0x729 JUMP JUMPDEST SWAP2 POP PUSH3 0x74D DUP4 PUSH3 0x4B8 JUMP JUMPDEST SWAP3 POP PUSH3 0x77C PUSH32 0xFFFFFFFFFFFFFFFFFFFFFFFFFFFFFFFFFFFFFFFFFFFFFFFFFFFFFFFFFFFFFFFF DUP5 DUP5 PUSH3 0x63D JUMP JUMPDEST SWAP1 POP SWAP3 SWAP2 POP POP JUMP JUMPDEST PUSH32 0x4E487B7100000000000000000000000000000000000000000000000000000000 PUSH1 0x0 MSTORE PUSH1 0x22 PUSH1 0x4 MSTORE PUSH1 0x24 PUSH1 0x0 REVERT JUMPDEST PUSH1 0x0 PUSH1 0x2 DUP3 DIV SWAP1 POP PUSH1 0x1 DUP3 AND DUP1 PUSH3 0x7CC JUMPI PUSH1 0x7F DUP3 AND SWAP2 POP JUMPDEST PUSH1 0x20 DUP3 LT DUP2 EQ ISZERO PUSH3 0x7E3 JUMPI PUSH3 0x7E2 PUSH3 0x784 JUMP JUMPDEST JUMPDEST POP SWAP2 SWAP1 POP JUMP JUMPDEST PUSH1 0x0 DUP2 SWAP1 POP SWAP3 SWAP2 POP POP JUMP JUMPDEST PUSH1 0x0 DUP2 SWAP1 POP DUP2 PUSH1 0x0 MSTORE PUSH1 0x20 PUSH1 0x0 KECCAK256 SWAP1 POP SWAP2 SWAP1 POP JUMP JUMPDEST PUSH1 0x0 DUP2 SLOAD PUSH3 0x818 DUP2 PUSH3 0x7B3 JUMP JUMPDEST PUSH3 0x824 DUP2 DUP7 PUSH3 0x7E9 JUMP JUMPDEST SWAP5 POP PUSH1 0x1 DUP3 AND PUSH1 0x0 DUP2 EQ PUSH3 0x842 JUMPI PUSH1 0x1 DUP2 EQ PUSH3 0x854 JUMPI PUSH3 0x88B JUMP JUMPDEST PUSH1 0xFF NOT DUP4 AND DUP7 MSTORE DUP2 DUP7 ADD SWAP4 POP PUSH3 0x88B JUMP JUMPDEST PUSH3 0x85F DUP6 PUSH3 0x7F4 JUMP JUMPDEST PUSH1 0x0 JUMPDEST DUP4 DUP2 LT ISZERO PUSH3 0x883 JUMPI DUP2 SLOAD DUP2 DUP10 ADD MSTORE PUSH1 0x1 DUP3 ADD SWAP2 POP PUSH1 0x20 DUP2 ADD SWAP1 POP PUSH3 0x862 JUMP JUMPDEST DUP4 DUP9 ADD SWAP6 POP POP POP JUMPDEST POP POP POP SWAP3 SWAP2 POP POP JUMP JUMPDEST PUSH1 0x0 PUSH3 0x8A2 DUP3 DUP5 PUSH3 0x809 JUMP JUMPDEST SWAP2 POP DUP2 SWAP1 POP SWAP3 SWAP2 POP POP JUMP JUMPDEST PUSH1 0x0 DUP2 SWAP1 POP SWAP2 SWAP1 POP JUMP JUMPDEST PUSH3 0x8C2 DUP2 PUSH3 0x8AD JUMP JUMPDEST DUP3 MSTORE POP POP JUMP JUMPDEST PUSH3 0x8D3 DUP2 PUSH3 0x729 JUMP JUMPDEST DUP3 MSTORE POP POP JUMP JUMPDEST PUSH3 0x8E4 DUP2 PUSH3 0x2D6 JUMP JUMPDEST DUP3 MSTORE POP POP JUMP JUMPDEST PUSH1 0x0 PUSH1 0xA0 DUP3 ADD SWAP1 POP PUSH3 0x901 PUSH1 0x0 DUP4 ADD DUP9 PUSH3 0x8B7 JUMP JUMPDEST PUSH3 0x910 PUSH1 0x20 DUP4 ADD DUP8 PUSH3 0x8B7 JUMP JUMPDEST PUSH3 0x91F PUSH1 0x40 DUP4 ADD DUP7 PUSH3 0x8B7 JUMP JUMPDEST PUSH3 0x92E PUSH1 0x60 DUP4 ADD DUP6 PUSH3 0x8C8 JUMP JUMPDEST PUSH3 0x93D PUSH1 0x80 DUP4 ADD DUP5 PUSH3 0x8D9 JUMP JUMPDEST SWAP7 SWAP6 POP POP POP POP POP POP JUMP JUMPDEST PUSH1 0x80 MLOAD PUSH1 0xA0 MLOAD PUSH1 0xC0 MLOAD PUSH1 0xE0 MLOAD PUSH2 0x100 MLOAD PUSH2 0x120 MLOAD PUSH2 0x32CB PUSH3 0x9B7 PUSH1 0x0 CODECOPY PUSH1 0x0 PUSH2 0x1A61 ADD MSTORE PUSH1 0x0 POP POP PUSH1 0x0 DUP2 DUP2 PUSH2 0x7D2 ADD MSTORE DUP2 DUP2 PUSH2 0xD38 ADD MSTORE DUP2 DUP2 PUSH2 0xE18 ADD MSTORE DUP2 DUP2 PUSH2 0x1177 ADD MSTORE DUP2 DUP2 PUSH2 0x176F ADD MSTORE PUSH2 0x1A0E ADD MSTORE PUSH1 0x0 PUSH2 0xD11 ADD MSTORE PUSH1 0x0 PUSH2 0xCDD ADD MSTORE PUSH1 0x0 PUSH2 0xCB7 ADD MSTORE PUSH2 0x32CB PUSH1 0x0 RETURN INVALID PUSH1 0x80 PUSH1 0x40 MSTORE CALLVALUE DUP1 ISZERO PUSH2 0x10 JUMPI PUSH1 0x0 DUP1 REVERT JUMPDEST POP PUSH1 0x4 CALLDATASIZE LT PUSH2 0x227 JUMPI PUSH1 0x0 CALLDATALOAD PUSH1 0xE0 SHR DUP1 PUSH4 0x7FD6F15C GT PUSH2 0x130 JUMPI DUP1 PUSH4 0xC5D664C6 GT PUSH2 0xB8 JUMPI DUP1 PUSH4 0xD905777E GT PUSH2 0x7C JUMPI DUP1 PUSH4 0xD905777E EQ PUSH2 0x704 JUMPI DUP1 PUSH4 0xDD62ED3E EQ PUSH2 0x734 JUMPI DUP1 PUSH4 0xEF8B30F7 EQ PUSH2 0x764 JUMPI DUP1 PUSH4 0xF2FDE38B EQ PUSH2 0x794 JUMPI DUP1 PUSH4 0xFC407AE7 EQ PUSH2 0x7B0 JUMPI PUSH2 0x227 JUMP JUMPDEST DUP1 PUSH4 0xC5D664C6 EQ PUSH2 0x63A JUMPI DUP1 PUSH4 0xC63D75B6 EQ PUSH2 0x658 JUMPI DUP1 PUSH4 0xC6E6F592 EQ PUSH2 0x688 JUMPI DUP1 PUSH4 0xCE96CB77 EQ PUSH2 0x6B8 JUMPI DUP1 PUSH4 0xD505ACCF EQ PUSH2 0x6E8 JUMPI PUSH2 0x227 JUMP JUMPDEST DUP1 PUSH4 0xAC68A748 GT PUSH2 0xFF JUMPI DUP1 PUSH4 0xAC68A748 EQ PUSH2 0x570 JUMPI DUP1 PUSH4 0xB3D7F6B9 EQ PUSH2 0x58C JUMPI DUP1 PUSH4 0xB460AF94 EQ PUSH2 0x5BC JUMPI DUP1 PUSH4 0xBA087652 EQ PUSH2 0x5EC JUMPI DUP1 PUSH4 0xBC368A8A EQ PUSH2 0x61C JUMPI PUSH2 0x227 JUMP JUMPDEST DUP1 PUSH4 0x7FD6F15C EQ PUSH2 0x4D4 JUMPI DUP1 PUSH4 0x94BF804D EQ PUSH2 0x4F2 JUMPI DUP1 PUSH4 0x95D89B41 EQ PUSH2 0x522 JUMPI DUP1 PUSH4 0xA9059CBB EQ PUSH2 0x540 JUMPI PUSH2 0x227 JUMP JUMPDEST DUP1 PUSH4 0x38D52E0F GT PUSH2 0x1B3 JUMPI DUP1 PUSH4 0x6E553F65 GT PUSH2 0x182 JUMPI DUP1 PUSH4 0x6E553F65 EQ PUSH2 0x41E JUMPI DUP1 PUSH4 0x70A08231 EQ PUSH2 0x44E JUMPI DUP1 PUSH4 0x715018A6 EQ PUSH2 0x47E JUMPI DUP1 PUSH4 0x7CE3489B EQ PUSH2 0x488 JUMPI DUP1 PUSH4 0x7ECEBE00 EQ PUSH2 0x4A4 JUMPI PUSH2 0x227 JUMP JUMPDEST DUP1 PUSH4 0x38D52E0F EQ PUSH2 0x382 JUMPI DUP1 PUSH4 0x402D267D EQ PUSH2 0x3A0 JUMPI DUP1 PUSH4 0x481C6A75 EQ PUSH2 0x3D0 JUMPI DUP1 PUSH4 0x4CDAD506 EQ PUSH2 0x3EE JUMPI PUSH2 0x227 JUMP JUMPDEST DUP1 PUSH4 0xA28A477 GT PUSH2 0x1FA JUMPI DUP1 PUSH4 0xA28A477 EQ PUSH2 0x2C8 JUMPI DUP1 PUSH4 0x18160DDD EQ PUSH2 0x2F8 JUMPI DUP1 PUSH4 0x23B872DD EQ PUSH2 0x316 JUMPI DUP1 PUSH4 0x313CE567 EQ PUSH2 0x346 JUMPI DUP1 PUSH4 0x3644E515 EQ PUSH2 0x364 JUMPI PUSH2 0x227 JUMP JUMPDEST DUP1 PUSH4 0x1E1D114 EQ PUSH2 0x22C JUMPI DUP1 PUSH4 0x6FDDE03 EQ PUSH2 0x24A JUMPI DUP1 PUSH4 0x7A2D13A EQ PUSH2 0x268 JUMPI DUP1 PUSH4 0x95EA7B3 EQ PUSH2 0x298 JUMPI JUMPDEST PUSH1 0x0 DUP1 REVERT JUMPDEST PUSH2 0x234 PUSH2 0x7CE JUMP JUMPDEST PUSH1 0x40 MLOAD PUSH2 0x241 SWAP2 SWAP1 PUSH2 0x246B JUMP JUMPDEST PUSH1 0x40 MLOAD DUP1 SWAP2 SUB SWAP1 RETURN JUMPDEST PUSH2 0x252 PUSH2 0x86F JUMP JUMPDEST PUSH1 0x40 MLOAD PUSH2 0x25F SWAP2 SWAP1 PUSH2 0x251F JUMP JUMPDEST PUSH1 0x40 MLOAD DUP1 SWAP2 SUB SWAP1 RETURN JUMPDEST PUSH2 0x282 PUSH1 0x4 DUP1 CALLDATASIZE SUB DUP2 ADD SWAP1 PUSH2 0x27D SWAP2 SWAP1 PUSH2 0x2572 JUMP JUMPDEST PUSH2 0x8FD JUMP JUMPDEST PUSH1 0x40 MLOAD PUSH2 0x28F SWAP2 SWAP1 PUSH2 0x246B JUMP JUMPDEST PUSH1 0x40 MLOAD DUP1 SWAP2 SUB SWAP1 RETURN JUMPDEST PUSH2 0x2B2 PUSH1 0x4 DUP1 CALLDATASIZE SUB DUP2 ADD SWAP1 PUSH2 0x2AD SWAP2 SWAP1 PUSH2 0x25FD JUMP JUMPDEST PUSH2 0x938 JUMP JUMPDEST PUSH1 0x40 MLOAD PUSH2 0x2BF SWAP2 SWAP1 PUSH2 0x2658 JUMP JUMPDEST PUSH1 0x40 MLOAD DUP1 SWAP2 SUB SWAP1 RETURN JUMPDEST PUSH2 0x2E2 PUSH1 0x4 DUP1 CALLDATASIZE SUB DUP2 ADD SWAP1 PUSH2 0x2DD SWAP2 SWAP1 PUSH2 0x2572 JUMP JUMPDEST PUSH2 0xA2A JUMP JUMPDEST PUSH1 0x40 MLOAD PUSH2 0x2EF SWAP2 SWAP1 PUSH2 0x246B JUMP JUMPDEST PUSH1 0x40 MLOAD DUP1 SWAP2 SUB SWAP1 RETURN JUMPDEST PUSH2 0x300 PUSH2 0xA65 JUMP JUMPDEST PUSH1 0x40 MLOAD PUSH2 0x30D SWAP2 SWAP1 PUSH2 0x246B JUMP JUMPDEST PUSH1 0x40 MLOAD DUP1 SWAP2 SUB SWAP1 RETURN JUMPDEST PUSH2 0x330 PUSH1 0x4 DUP1 CALLDATASIZE SUB DUP2 ADD SWAP1 PUSH2 0x32B SWAP2 SWAP1 PUSH2 0x2673 JUMP JUMPDEST PUSH2 0xA6B JUMP JUMPDEST PUSH1 0x40 MLOAD PUSH2 0x33D SWAP2 SWAP1 PUSH2 0x2658 JUMP JUMPDEST PUSH1 0x40 MLOAD DUP1 SWAP2 SUB SWAP1 RETURN JUMPDEST PUSH2 0x34E PUSH2 0xCB5 JUMP JUMPDEST PUSH1 0x40 MLOAD PUSH2 0x35B SWAP2 SWAP1 PUSH2 0x26E2 JUMP JUMPDEST PUSH1 0x40 MLOAD DUP1 SWAP2 SUB SWAP1 RETURN JUMPDEST PUSH2 0x36C PUSH2 0xCD9 JUMP JUMPDEST PUSH1 0x40 MLOAD PUSH2 0x379 SWAP2 SWAP1 PUSH2 0x2716 JUMP JUMPDEST PUSH1 0x40 MLOAD DUP1 SWAP2 SUB SWAP1 RETURN JUMPDEST PUSH2 0x38A PUSH2 0xD36 JUMP JUMPDEST PUSH1 0x40 MLOAD PUSH2 0x397 SWAP2 SWAP1 PUSH2 0x2790 JUMP JUMPDEST PUSH1 0x40 MLOAD DUP1 SWAP2 SUB SWAP1 RETURN JUMPDEST PUSH2 0x3BA PUSH1 0x4 DUP1 CALLDATASIZE SUB DUP2 ADD SWAP1 PUSH2 0x3B5 SWAP2 SWAP1 PUSH2 0x27AB JUMP JUMPDEST PUSH2 0xD5A JUMP JUMPDEST PUSH1 0x40 MLOAD PUSH2 0x3C7 SWAP2 SWAP1 PUSH2 0x246B JUMP JUMPDEST PUSH1 0x40 MLOAD DUP1 SWAP2 SUB SWAP1 RETURN JUMPDEST PUSH2 0x3D8 PUSH2 0xD84 JUMP JUMPDEST PUSH1 0x40 MLOAD PUSH2 0x3E5 SWAP2 SWAP1 PUSH2 0x27E7 JUMP JUMPDEST PUSH1 0x40 MLOAD DUP1 SWAP2 SUB SWAP1 RETURN JUMPDEST PUSH2 0x408 PUSH1 0x4 DUP1 CALLDATASIZE SUB DUP2 ADD SWAP1 PUSH2 0x403 SWAP2 SWAP1 PUSH2 0x2572 JUMP JUMPDEST PUSH2 0xDAE JUMP JUMPDEST PUSH1 0x40 MLOAD PUSH2 0x415 SWAP2 SWAP1 PUSH2 0x246B JUMP JUMPDEST PUSH1 0x40 MLOAD DUP1 SWAP2 SUB SWAP1 RETURN JUMPDEST PUSH2 0x438 PUSH1 0x4 DUP1 CALLDATASIZE SUB DUP2 ADD SWAP1 PUSH2 0x433 SWAP2 SWAP1 PUSH2 0x2802 JUMP JUMPDEST PUSH2 0xDC0 JUMP JUMPDEST PUSH1 0x40 MLOAD PUSH2 0x445 SWAP2 SWAP1 PUSH2 0x246B JUMP JUMPDEST PUSH1 0x40 MLOAD DUP1 SWAP2 SUB SWAP1 RETURN JUMPDEST PUSH2 0x468 PUSH1 0x4 DUP1 CALLDATASIZE SUB DUP2 ADD SWAP1 PUSH2 0x463 SWAP2 SWAP1 PUSH2 0x27AB JUMP JUMPDEST PUSH2 0xEDE JUMP JUMPDEST PUSH1 0x40 MLOAD PUSH2 0x475 SWAP2 SWAP1 PUSH2 0x246B JUMP JUMPDEST PUSH1 0x40 MLOAD DUP1 SWAP2 SUB SWAP1 RETURN JUMPDEST PUSH2 0x486 PUSH2 0xEF6 JUMP JUMPDEST STOP JUMPDEST PUSH2 0x4A2 PUSH1 0x4 DUP1 CALLDATASIZE SUB DUP2 ADD SWAP1 PUSH2 0x49D SWAP2 SWAP1 PUSH2 0x2572 JUMP JUMPDEST PUSH2 0x102C JUMP JUMPDEST STOP JUMPDEST PUSH2 0x4BE PUSH1 0x4 DUP1 CALLDATASIZE SUB DUP2 ADD SWAP1 PUSH2 0x4B9 SWAP2 SWAP1 PUSH2 0x27AB JUMP JUMPDEST PUSH2 0x1144 JUMP JUMPDEST PUSH1 0x40 MLOAD PUSH2 0x4CB SWAP2 SWAP1 PUSH2 0x246B JUMP JUMPDEST PUSH1 0x40 MLOAD DUP1 SWAP2 SUB SWAP1 RETURN JUMPDEST PUSH2 0x4DC PUSH2 0x115C JUMP JUMPDEST PUSH1 0x40 MLOAD PUSH2 0x4E9 SWAP2 SWAP1 PUSH2 0x246B JUMP JUMPDEST PUSH1 0x40 MLOAD DUP1 SWAP2 SUB SWAP1 RETURN JUMPDEST PUSH2 0x50C PUSH1 0x4 DUP1 CALLDATASIZE SUB DUP2 ADD SWAP1 PUSH2 0x507 SWAP2 SWAP1 PUSH2 0x2802 JUMP JUMPDEST PUSH2 0x1162 JUMP JUMPDEST PUSH1 0x40 MLOAD PUSH2 0x519 SWAP2 SWAP1 PUSH2 0x246B JUMP JUMPDEST PUSH1 0x40 MLOAD DUP1 SWAP2 SUB SWAP1 RETURN JUMPDEST PUSH2 0x52A PUSH2 0x123D JUMP JUMPDEST PUSH1 0x40 MLOAD PUSH2 0x537 SWAP2 SWAP1 PUSH2 0x251F JUMP JUMPDEST PUSH1 0x40 MLOAD DUP1 SWAP2 SUB SWAP1 RETURN JUMPDEST PUSH2 0x55A PUSH1 0x4 DUP1 CALLDATASIZE SUB DUP2 ADD SWAP1 PUSH2 0x555 SWAP2 SWAP1 PUSH2 0x25FD JUMP JUMPDEST PUSH2 0x12CB JUMP JUMPDEST PUSH1 0x40 MLOAD PUSH2 0x567 SWAP2 SWAP1 PUSH2 0x2658 JUMP JUMPDEST PUSH1 0x40 MLOAD DUP1 SWAP2 SUB SWAP1 RETURN JUMPDEST PUSH2 0x58A PUSH1 0x4 DUP1 CALLDATASIZE SUB DUP2 ADD SWAP1 PUSH2 0x585 SWAP2 SWAP1 PUSH2 0x2572 JUMP JUMPDEST PUSH2 0x13DF JUMP JUMPDEST STOP JUMPDEST PUSH2 0x5A6 PUSH1 0x4 DUP1 CALLDATASIZE SUB DUP2 ADD SWAP1 PUSH2 0x5A1 SWAP2 SWAP1 PUSH2 0x2572 JUMP JUMPDEST PUSH2 0x1524 JUMP JUMPDEST PUSH1 0x40 MLOAD PUSH2 0x5B3 SWAP2 SWAP1 PUSH2 0x246B JUMP JUMPDEST PUSH1 0x40 MLOAD DUP1 SWAP2 SUB SWAP1 RETURN JUMPDEST PUSH2 0x5D6 PUSH1 0x4 DUP1 CALLDATASIZE SUB DUP2 ADD SWAP1 PUSH2 0x5D1 SWAP2 SWAP1 PUSH2 0x2842 JUMP JUMPDEST PUSH2 0x155F JUMP JUMPDEST PUSH1 0x40 MLOAD PUSH2 0x5E3 SWAP2 SWAP1 PUSH2 0x246B JUMP JUMPDEST PUSH1 0x40 MLOAD DUP1 SWAP2 SUB SWAP1 RETURN JUMPDEST PUSH2 0x606 PUSH1 0x4 DUP1 CALLDATASIZE SUB DUP2 ADD SWAP1 PUSH2 0x601 SWAP2 SWAP1 PUSH2 0x2842 JUMP JUMPDEST PUSH2 0x17BA JUMP JUMPDEST PUSH1 0x40 MLOAD PUSH2 0x613 SWAP2 SWAP1 PUSH2 0x246B JUMP JUMPDEST PUSH1 0x40 MLOAD DUP1 SWAP2 SUB SWAP1 RETURN JUMPDEST PUSH2 0x624 PUSH2 0x1A59 JUMP JUMPDEST PUSH1 0x40 MLOAD PUSH2 0x631 SWAP2 SWAP1 PUSH2 0x246B JUMP JUMPDEST PUSH1 0x40 MLOAD DUP1 SWAP2 SUB SWAP1 RETURN JUMPDEST PUSH2 0x642 PUSH2 0x1A5F JUMP JUMPDEST PUSH1 0x40 MLOAD PUSH2 0x64F SWAP2 SWAP1 PUSH2 0x2790 JUMP JUMPDEST PUSH1 0x40 MLOAD DUP1 SWAP2 SUB SWAP1 RETURN JUMPDEST PUSH2 0x672 PUSH1 0x4 DUP1 CALLDATASIZE SUB DUP2 ADD SWAP1 PUSH2 0x66D SWAP2 SWAP1 PUSH2 0x27AB JUMP JUMPDEST PUSH2 0x1A83 JUMP JUMPDEST PUSH1 0x40 MLOAD PUSH2 0x67F SWAP2 SWAP1 PUSH2 0x246B JUMP JUMPDEST PUSH1 0x40 MLOAD DUP1 SWAP2 SUB SWAP1 RETURN JUMPDEST PUSH2 0x6A2 PUSH1 0x4 DUP1 CALLDATASIZE SUB DUP2 ADD SWAP1 PUSH2 0x69D SWAP2 SWAP1 PUSH2 0x2572 JUMP JUMPDEST PUSH2 0x1AAD JUMP JUMPDEST PUSH1 0x40 MLOAD PUSH2 0x6AF SWAP2 SWAP1 PUSH2 0x246B JUMP JUMPDEST PUSH1 0x40 MLOAD DUP1 SWAP2 SUB SWAP1 RETURN JUMPDEST PUSH2 0x6D2 PUSH1 0x4 DUP1 CALLDATASIZE SUB DUP2 ADD SWAP1 PUSH2 0x6CD SWAP2 SWAP1 PUSH2 0x27AB JUMP JUMPDEST PUSH2 0x1AE8 JUMP JUMPDEST PUSH1 0x40 MLOAD PUSH2 0x6DF SWAP2 SWAP1 PUSH2 0x246B JUMP JUMPDEST PUSH1 0x40 MLOAD DUP1 SWAP2 SUB SWAP1 RETURN JUMPDEST PUSH2 0x702 PUSH1 0x4 DUP1 CALLDATASIZE SUB DUP2 ADD SWAP1 PUSH2 0x6FD SWAP2 SWAP1 PUSH2 0x28ED JUMP JUMPDEST PUSH2 0x1B39 JUMP JUMPDEST STOP JUMPDEST PUSH2 0x71E PUSH1 0x4 DUP1 CALLDATASIZE SUB DUP2 ADD SWAP1 PUSH2 0x719 SWAP2 SWAP1 PUSH2 0x27AB JUMP JUMPDEST PUSH2 0x1E32 JUMP JUMPDEST PUSH1 0x40 MLOAD PUSH2 0x72B SWAP2 SWAP1 PUSH2 0x246B JUMP JUMPDEST PUSH1 0x40 MLOAD DUP1 SWAP2 SUB SWAP1 RETURN JUMPDEST PUSH2 0x74E PUSH1 0x4 DUP1 CALLDATASIZE SUB DUP2 ADD SWAP1 PUSH2 0x749 SWAP2 SWAP1 PUSH2 0x298F JUMP JUMPDEST PUSH2 0x1E7B JUMP JUMPDEST PUSH1 0x40 MLOAD PUSH2 0x75B SWAP2 SWAP1 PUSH2 0x246B JUMP JUMPDEST PUSH1 0x40 MLOAD DUP1 SWAP2 SUB SWAP1 RETURN JUMPDEST PUSH2 0x77E PUSH1 0x4 DUP1 CALLDATASIZE SUB DUP2 ADD SWAP1 PUSH2 0x779 SWAP2 SWAP1 PUSH2 0x2572 JUMP JUMPDEST PUSH2 0x1EA0 JUMP JUMPDEST PUSH1 0x40 MLOAD PUSH2 0x78B SWAP2 SWAP1 PUSH2 0x246B JUMP JUMPDEST PUSH1 0x40 MLOAD DUP1 SWAP2 SUB SWAP1 RETURN JUMPDEST PUSH2 0x7AE PUSH1 0x4 DUP1 CALLDATASIZE SUB DUP2 ADD SWAP1 PUSH2 0x7A9 SWAP2 SWAP1 PUSH2 0x27AB JUMP JUMPDEST PUSH2 0x1EB2 JUMP JUMPDEST STOP JUMPDEST PUSH2 0x7B8 PUSH2 0x2057 JUMP JUMPDEST PUSH1 0x40 MLOAD PUSH2 0x7C5 SWAP2 SWAP1 PUSH2 0x246B JUMP JUMPDEST PUSH1 0x40 MLOAD DUP1 SWAP2 SUB SWAP1 RETURN JUMPDEST PUSH1 0x0 PUSH32 0x0 PUSH20 0xFFFFFFFFFFFFFFFFFFFFFFFFFFFFFFFFFFFFFFFF AND PUSH4 0x70A08231 ADDRESS PUSH1 0x40 MLOAD DUP3 PUSH4 0xFFFFFFFF AND PUSH1 0xE0 SHL DUP2 MSTORE PUSH1 0x4 ADD PUSH2 0x829 SWAP2 SWAP1 PUSH2 0x27E7 JUMP JUMPDEST PUSH1 0x20 PUSH1 0x40 MLOAD DUP1 DUP4 SUB DUP2 DUP7 GAS STATICCALL ISZERO DUP1 ISZERO PUSH2 0x846 JUMPI RETURNDATASIZE PUSH1 0x0 DUP1 RETURNDATACOPY RETURNDATASIZE PUSH1 0x0 REVERT JUMPDEST POP POP POP POP PUSH1 0x40 MLOAD RETURNDATASIZE PUSH1 0x1F NOT PUSH1 0x1F DUP3 ADD AND DUP3 ADD DUP1 PUSH1 0x40 MSTORE POP DUP2 ADD SWAP1 PUSH2 0x86A SWAP2 SWAP1 PUSH2 0x29E4 JUMP JUMPDEST SWAP1 POP SWAP1 JUMP JUMPDEST PUSH1 0x0 DUP1 SLOAD PUSH2 0x87C SWAP1 PUSH2 0x2A40 JUMP JUMPDEST DUP1 PUSH1 0x1F ADD PUSH1 0x20 DUP1 SWAP2 DIV MUL PUSH1 0x20 ADD PUSH1 0x40 MLOAD SWAP1 DUP2 ADD PUSH1 0x40 MSTORE DUP1 SWAP3 SWAP2 SWAP1 DUP2 DUP2 MSTORE PUSH1 0x20 ADD DUP3 DUP1 SLOAD PUSH2 0x8A8 SWAP1 PUSH2 0x2A40 JUMP JUMPDEST DUP1 ISZERO PUSH2 0x8F5 JUMPI DUP1 PUSH1 0x1F LT PUSH2 0x8CA JUMPI PUSH2 0x100 DUP1 DUP4 SLOAD DIV MUL DUP4 MSTORE SWAP2 PUSH1 0x20 ADD SWAP2 PUSH2 0x8F5 JUMP JUMPDEST DUP3 ADD SWAP2 SWAP1 PUSH1 0x0 MSTORE PUSH1 0x20 PUSH1 0x0 KECCAK256 SWAP1 JUMPDEST DUP2 SLOAD DUP2 MSTORE SWAP1 PUSH1 0x1 ADD SWAP1 PUSH1 0x20 ADD DUP1 DUP4 GT PUSH2 0x8D8 JUMPI DUP3 SWAP1 SUB PUSH1 0x1F AND DUP3 ADD SWAP2 JUMPDEST POP POP POP POP POP DUP2 JUMP JUMPDEST PUSH1 0x0 DUP1 PUSH1 0x2 SLOAD SWAP1 POP PUSH1 0x0 DUP2 EQ PUSH2 0x92E JUMPI PUSH2 0x929 PUSH2 0x918 PUSH2 0x7CE JUMP JUMPDEST DUP3 DUP6 PUSH2 0x205D SWAP1 SWAP3 SWAP2 SWAP1 PUSH4 0xFFFFFFFF AND JUMP JUMPDEST PUSH2 0x930 JUMP JUMPDEST DUP3 JUMPDEST SWAP2 POP POP SWAP2 SWAP1 POP JUMP JUMPDEST PUSH1 0x0 DUP2 PUSH1 0x4 PUSH1 0x0 CALLER PUSH20 0xFFFFFFFFFFFFFFFFFFFFFFFFFFFFFFFFFFFFFFFF AND PUSH20 0xFFFFFFFFFFFFFFFFFFFFFFFFFFFFFFFFFFFFFFFF AND DUP2 MSTORE PUSH1 0x20 ADD SWAP1 DUP2 MSTORE PUSH1 0x20 ADD PUSH1 0x0 KECCAK256 PUSH1 0x0 DUP6 PUSH20 0xFFFFFFFFFFFFFFFFFFFFFFFFFFFFFFFFFFFFFFFF AND PUSH20 0xFFFFFFFFFFFFFFFFFFFFFFFFFFFFFFFFFFFFFFFF AND DUP2 MSTORE PUSH1 0x20 ADD SWAP1 DUP2 MSTORE PUSH1 0x20 ADD PUSH1 0x0 KECCAK256 DUP2 SWAP1 SSTORE POP DUP3 PUSH20 0xFFFFFFFFFFFFFFFFFFFFFFFFFFFFFFFFFFFFFFFF AND CALLER PUSH20 0xFFFFFFFFFFFFFFFFFFFFFFFFFFFFFFFFFFFFFFFF AND PUSH32 0x8C5BE1E5EBEC7D5BD14F71427D1E84F3DD0314C0F7B2291E5B200AC8C7C3B925 DUP5 PUSH1 0x40 MLOAD PUSH2 0xA18 SWAP2 SWAP1 PUSH2 0x246B JUMP JUMPDEST PUSH1 0x40 MLOAD DUP1 SWAP2 SUB SWAP1 LOG3 PUSH1 0x1 SWAP1 POP SWAP3 SWAP2 POP POP JUMP JUMPDEST PUSH1 0x0 DUP1 PUSH1 0x2 SLOAD SWAP1 POP PUSH1 0x0 DUP2 EQ PUSH2 0xA5B JUMPI PUSH2 0xA56 DUP2 PUSH2 0xA46 PUSH2 0x7CE JUMP JUMPDEST DUP6 PUSH2 0x2085 SWAP1 SWAP3 SWAP2 SWAP1 PUSH4 0xFFFFFFFF AND JUMP JUMPDEST PUSH2 0xA5D JUMP JUMPDEST DUP3 JUMPDEST SWAP2 POP POP SWAP2 SWAP1 POP JUMP JUMPDEST PUSH1 0x2 SLOAD DUP2 JUMP JUMPDEST PUSH1 0x0 DUP1 PUSH1 0x4 PUSH1 0x0 DUP7 PUSH20 0xFFFFFFFFFFFFFFFFFFFFFFFFFFFFFFFFFFFFFFFF AND PUSH20 0xFFFFFFFFFFFFFFFFFFFFFFFFFFFFFFFFFFFFFFFF AND DUP2 MSTORE PUSH1 0x20 ADD SWAP1 DUP2 MSTORE PUSH1 0x20 ADD PUSH1 0x0 KECCAK256 PUSH1 0x0 CALLER PUSH20 0xFFFFFFFFFFFFFFFFFFFFFFFFFFFFFFFFFFFFFFFF AND PUSH20 0xFFFFFFFFFFFFFFFFFFFFFFFFFFFFFFFFFFFFFFFF AND DUP2 MSTORE PUSH1 0x20 ADD SWAP1 DUP2 MSTORE PUSH1 0x20 ADD PUSH1 0x0 KECCAK256 SLOAD SWAP1 POP PUSH32 0xFFFFFFFFFFFFFFFFFFFFFFFFFFFFFFFFFFFFFFFFFFFFFFFFFFFFFFFFFFFFFFFF DUP2 EQ PUSH2 0xBA1 JUMPI DUP3 DUP2 PUSH2 0xB20 SWAP2 SWAP1 PUSH2 0x2AA1 JUMP JUMPDEST PUSH1 0x4 PUSH1 0x0 DUP8 PUSH20 0xFFFFFFFFFFFFFFFFFFFFFFFFFFFFFFFFFFFFFFFF AND PUSH20 0xFFFFFFFFFFFFFFFFFFFFFFFFFFFFFFFFFFFFFFFF AND DUP2 MSTORE PUSH1 0x20 ADD SWAP1 DUP2 MSTORE PUSH1 0x20 ADD PUSH1 0x0 KECCAK256 PUSH1 0x0 CALLER PUSH20 0xFFFFFFFFFFFFFFFFFFFFFFFFFFFFFFFFFFFFFFFF AND PUSH20 0xFFFFFFFFFFFFFFFFFFFFFFFFFFFFFFFFFFFFFFFF AND DUP2 MSTORE PUSH1 0x20 ADD SWAP1 DUP2 MSTORE PUSH1 0x20 ADD PUSH1 0x0 KECCAK256 DUP2 SWAP1 SSTORE POP JUMPDEST DUP3 PUSH1 0x3 PUSH1 0x0 DUP8 PUSH20 0xFFFFFFFFFFFFFFFFFFFFFFFFFFFFFFFFFFFFFFFF AND PUSH20 0xFFFFFFFFFFFFFFFFFFFFFFFFFFFFFFFFFFFFFFFF AND DUP2 MSTORE PUSH1 0x20 ADD SWAP1 DUP2 MSTORE PUSH1 0x20 ADD PUSH1 0x0 KECCAK256 PUSH1 0x0 DUP3 DUP3 SLOAD PUSH2 0xBF0 SWAP2 SWAP1 PUSH2 0x2AA1 JUMP JUMPDEST SWAP3 POP POP DUP2 SWAP1 SSTORE POP DUP3 PUSH1 0x3 PUSH1 0x0 DUP7 PUSH20 0xFFFFFFFFFFFFFFFFFFFFFFFFFFFFFFFFFFFFFFFF AND PUSH20 0xFFFFFFFFFFFFFFFFFFFFFFFFFFFFFFFFFFFFFFFF AND DUP2 MSTORE PUSH1 0x20 ADD SWAP1 DUP2 MSTORE PUSH1 0x20 ADD PUSH1 0x0 KECCAK256 PUSH1 0x0 DUP3 DUP3 SLOAD ADD SWAP3 POP POP DUP2 SWAP1 SSTORE POP DUP4 PUSH20 0xFFFFFFFFFFFFFFFFFFFFFFFFFFFFFFFFFFFFFFFF AND DUP6 PUSH20 0xFFFFFFFFFFFFFFFFFFFFFFFFFFFFFFFFFFFFFFFF AND PUSH32 0xDDF252AD1BE2C89B69C2B068FC378DAA952BA7F163C4A11628F55A4DF523B3EF DUP6 PUSH1 0x40 MLOAD PUSH2 0xCA1 SWAP2 SWAP1 PUSH2 0x246B JUMP JUMPDEST PUSH1 0x40 MLOAD DUP1 SWAP2 SUB SWAP1 LOG3 PUSH1 0x1 SWAP2 POP POP SWAP4 SWAP3 POP POP POP JUMP JUMPDEST PUSH32 0x0 DUP2 JUMP JUMPDEST PUSH1 0x0 PUSH32 0x0 CHAINID EQ PUSH2 0xD0F JUMPI PUSH2 0xD0A PUSH2 0x20B7 JUMP JUMPDEST PUSH2 0xD31 JUMP JUMPDEST PUSH32 0x0 JUMPDEST SWAP1 POP SWAP1 JUMP JUMPDEST PUSH32 0x0 DUP2 JUMP JUMPDEST PUSH1 0x0 PUSH32 0xFFFFFFFFFFFFFFFFFFFFFFFFFFFFFFFFFFFFFFFFFFFFFFFFFFFFFFFFFFFFFFFF SWAP1 POP SWAP2 SWAP1 POP JUMP JUMPDEST PUSH1 0x0 PUSH1 0x6 PUSH1 0x0 SWAP1 SLOAD SWAP1 PUSH2 0x100 EXP SWAP1 DIV PUSH20 0xFFFFFFFFFFFFFFFFFFFFFFFFFFFFFFFFFFFFFFFF AND SWAP1 POP SWAP1 JUMP JUMPDEST PUSH1 0x0 PUSH2 0xDB9 DUP3 PUSH2 0x8FD JUMP JUMPDEST SWAP1 POP SWAP2 SWAP1 POP JUMP JUMPDEST PUSH1 0x0 DUP1 PUSH2 0xDCC DUP5 PUSH2 0x1EA0 JUMP JUMPDEST SWAP2 POP DUP2 EQ ISZERO PUSH2 0xE10 JUMPI PUSH1 0x40 MLOAD PUSH32 0x8C379A000000000000000000000000000000000000000000000000000000000 DUP2 MSTORE PUSH1 0x4 ADD PUSH2 0xE07 SWAP1 PUSH2 0x2B21 JUMP JUMPDEST PUSH1 0x40 MLOAD DUP1 SWAP2 SUB SWAP1 REVERT JUMPDEST PUSH2 0xE5D CALLER ADDRESS DUP6 PUSH32 0x0 PUSH20 0xFFFFFFFFFFFFFFFFFFFFFFFFFFFFFFFFFFFFFFFF AND PUSH2 0x2143 SWAP1 SWAP4 SWAP3 SWAP2 SWAP1 PUSH4 0xFFFFFFFF AND JUMP JUMPDEST PUSH2 0xE67 DUP3 DUP3 PUSH2 0x21E2 JUMP JUMPDEST DUP2 PUSH20 0xFFFFFFFFFFFFFFFFFFFFFFFFFFFFFFFFFFFFFFFF AND CALLER PUSH20 0xFFFFFFFFFFFFFFFFFFFFFFFFFFFFFFFFFFFFFFFF AND PUSH32 0xDCBC1C05240F31FF3AD067EF1EE35CE4997762752E3A095284754544F4C709D7 DUP6 DUP5 PUSH1 0x40 MLOAD PUSH2 0xEC6 SWAP3 SWAP2 SWAP1 PUSH2 0x2B41 JUMP JUMPDEST PUSH1 0x40 MLOAD DUP1 SWAP2 SUB SWAP1 LOG3 PUSH2 0xED8 DUP4 DUP3 PUSH2 0x22B2 JUMP JUMPDEST SWAP3 SWAP2 POP POP JUMP JUMPDEST PUSH1 0x3 PUSH1 0x20 MSTORE DUP1 PUSH1 0x0 MSTORE PUSH1 0x40 PUSH1 0x0 KECCAK256 PUSH1 0x0 SWAP2 POP SWAP1 POP SLOAD DUP2 JUMP JUMPDEST CALLER PUSH20 0xFFFFFFFFFFFFFFFFFFFFFFFFFFFFFFFFFFFFFFFF AND PUSH2 0xF15 PUSH2 0xD84 JUMP JUMPDEST PUSH20 0xFFFFFFFFFFFFFFFFFFFFFFFFFFFFFFFFFFFFFFFF AND EQ PUSH2 0xF6B JUMPI PUSH1 0x40 MLOAD PUSH32 0x8C379A000000000000000000000000000000000000000000000000000000000 DUP2 MSTORE PUSH1 0x4 ADD PUSH2 0xF62 SWAP1 PUSH2 0x2BDC JUMP JUMPDEST PUSH1 0x40 MLOAD DUP1 SWAP2 SUB SWAP1 REVERT JUMPDEST PUSH1 0x0 PUSH20 0xFFFFFFFFFFFFFFFFFFFFFFFFFFFFFFFFFFFFFFFF AND PUSH1 0x6 PUSH1 0x0 SWAP1 SLOAD SWAP1 PUSH2 0x100 EXP SWAP1 DIV PUSH20 0xFFFFFFFFFFFFFFFFFFFFFFFFFFFFFFFFFFFFFFFF AND PUSH20 0xFFFFFFFFFFFFFFFFFFFFFFFFFFFFFFFFFFFFFFFF AND PUSH32 0x8BE0079C531659141344CD1FD0A4F28419497F9722A3DAAFE3B4186F6B6457E0 PUSH1 0x40 MLOAD PUSH1 0x40 MLOAD DUP1 SWAP2 SUB SWAP1 LOG3 PUSH1 0x0 PUSH1 0x6 PUSH1 0x0 PUSH2 0x100 EXP DUP2 SLOAD DUP2 PUSH20 0xFFFFFFFFFFFFFFFFFFFFFFFFFFFFFFFFFFFFFFFF MUL NOT AND SWAP1 DUP4 PUSH20 0xFFFFFFFFFFFFFFFFFFFFFFFFFFFFFFFFFFFFFFFF AND MUL OR SWAP1 SSTORE POP JUMP JUMPDEST CALLER PUSH20 0xFFFFFFFFFFFFFFFFFFFFFFFFFFFFFFFFFFFFFFFF AND PUSH2 0x104B PUSH2 0xD84 JUMP JUMPDEST PUSH20 0xFFFFFFFFFFFFFFFFFFFFFFFFFFFFFFFFFFFFFFFF AND EQ PUSH2 0x10A1 JUMPI PUSH1 0x40 MLOAD PUSH32 0x8C379A000000000000000000000000000000000000000000000000000000000 DUP2 MSTORE PUSH1 0x4 ADD PUSH2 0x1098 SWAP1 PUSH2 0x2BDC JUMP JUMPDEST PUSH1 0x40 MLOAD DUP1 SWAP2 SUB SWAP1 REVERT JUMPDEST PUSH8 0xDE0B6B3A7640000 DUP2 GT ISZERO PUSH2 0x10EC JUMPI PUSH1 0x40 MLOAD PUSH32 0x8C379A000000000000000000000000000000000000000000000000000000000 DUP2 MSTORE PUSH1 0x4 ADD PUSH2 0x10E3 SWAP1 PUSH2 0x2C48 JUMP JUMPDEST PUSH1 0x40 MLOAD DUP1 SWAP2 SUB SWAP1 REVERT JUMPDEST DUP1 PUSH1 0x9 DUP2 SWAP1 SSTORE POP CALLER PUSH20 0xFFFFFFFFFFFFFFFFFFFFFFFFFFFFFFFFFFFFFFFF AND PUSH32 0xEC370615CC81FB334E5566FBC80664D9082377BF59288D64A79F3FBECF4323A9 DUP3 PUSH1 0x40 MLOAD PUSH2 0x1139 SWAP2 SWAP1 PUSH2 0x246B JUMP JUMPDEST PUSH1 0x40 MLOAD DUP1 SWAP2 SUB SWAP1 LOG2 POP JUMP JUMPDEST PUSH1 0x5 PUSH1 0x20 MSTORE DUP1 PUSH1 0x0 MSTORE PUSH1 0x40 PUSH1 0x0 KECCAK256 PUSH1 0x0 SWAP2 POP SWAP1 POP SLOAD DUP2 JUMP JUMPDEST PUSH1 0x9 SLOAD DUP2 JUMP JUMPDEST PUSH1 0x0 PUSH2 0x116D DUP4 PUSH2 0x1524 JUMP JUMPDEST SWAP1 POP PUSH2 0x11BC CALLER ADDRESS DUP4 PUSH32 0x0 PUSH20 0xFFFFFFFFFFFFFFFFFFFFFFFFFFFFFFFFFFFFFFFF AND PUSH2 0x2143 SWAP1 SWAP4 SWAP3 SWAP2 SWAP1 PUSH4 0xFFFFFFFF AND JUMP JUMPDEST PUSH2 0x11C6 DUP3 DUP5 PUSH2 0x21E2 JUMP JUMPDEST DUP2 PUSH20 0xFFFFFFFFFFFFFFFFFFFFFFFFFFFFFFFFFFFFFFFF AND CALLER PUSH20 0xFFFFFFFFFFFFFFFFFFFFFFFFFFFFFFFFFFFFFFFF AND PUSH32 0xDCBC1C05240F31FF3AD067EF1EE35CE4997762752E3A095284754544F4C709D7 DUP4 DUP7 PUSH1 0x40 MLOAD PUSH2 0x1225 SWAP3 SWAP2 SWAP1 PUSH2 0x2B41 JUMP JUMPDEST PUSH1 0x40 MLOAD DUP1 SWAP2 SUB SWAP1 LOG3 PUSH2 0x1237 DUP2 DUP5 PUSH2 0x22B2 JUMP JUMPDEST SWAP3 SWAP2 POP POP JUMP JUMPDEST PUSH1 0x1 DUP1 SLOAD PUSH2 0x124A SWAP1 PUSH2 0x2A40 JUMP JUMPDEST DUP1 PUSH1 0x1F ADD PUSH1 0x20 DUP1 SWAP2 DIV MUL PUSH1 0x20 ADD PUSH1 0x40 MLOAD SWAP1 DUP2 ADD PUSH1 0x40 MSTORE DUP1 SWAP3 SWAP2 SWAP1 DUP2 DUP2 MSTORE PUSH1 0x20 ADD DUP3 DUP1 SLOAD PUSH2 0x1276 SWAP1 PUSH2 0x2A40 JUMP JUMPDEST DUP1 ISZERO PUSH2 0x12C3 JUMPI DUP1 PUSH1 0x1F LT PUSH2 0x1298 JUMPI PUSH2 0x100 DUP1 DUP4 SLOAD DIV MUL DUP4 MSTORE SWAP2 PUSH1 0x20 ADD SWAP2 PUSH2 0x12C3 JUMP JUMPDEST DUP3 ADD SWAP2 SWAP1 PUSH1 0x0 MSTORE PUSH1 0x20 PUSH1 0x0 KECCAK256 SWAP1 JUMPDEST DUP2 SLOAD DUP2 MSTORE SWAP1 PUSH1 0x1 ADD SWAP1 PUSH1 0x20 ADD DUP1 DUP4 GT PUSH2 0x12A6 JUMPI DUP3 SWAP1 SUB PUSH1 0x1F AND DUP3 ADD SWAP2 JUMPDEST POP POP POP POP POP DUP2 JUMP JUMPDEST PUSH1 0x0 DUP2 PUSH1 0x3 PUSH1 0x0 CALLER PUSH20 0xFFFFFFFFFFFFFFFFFFFFFFFFFFFFFFFFFFFFFFFF AND PUSH20 0xFFFFFFFFFFFFFFFFFFFFFFFFFFFFFFFFFFFFFFFF AND DUP2 MSTORE PUSH1 0x20 ADD SWAP1 DUP2 MSTORE PUSH1 0x20 ADD PUSH1 0x0 KECCAK256 PUSH1 0x0 DUP3 DUP3 SLOAD PUSH2 0x131C SWAP2 SWAP1 PUSH2 0x2AA1 JUMP JUMPDEST SWAP3 POP POP DUP2 SWAP1 SSTORE POP DUP2 PUSH1 0x3 PUSH1 0x0 DUP6 PUSH20 0xFFFFFFFFFFFFFFFFFFFFFFFFFFFFFFFFFFFFFFFF AND PUSH20 0xFFFFFFFFFFFFFFFFFFFFFFFFFFFFFFFFFFFFFFFF AND DUP2 MSTORE PUSH1 0x20 ADD SWAP1 DUP2 MSTORE PUSH1 0x20 ADD PUSH1 0x0 KECCAK256 PUSH1 0x0 DUP3 DUP3 SLOAD ADD SWAP3 POP POP DUP2 SWAP1 SSTORE POP DUP3 PUSH20 0xFFFFFFFFFFFFFFFFFFFFFFFFFFFFFFFFFFFFFFFF AND CALLER PUSH20 0xFFFFFFFFFFFFFFFFFFFFFFFFFFFFFFFFFFFFFFFF AND PUSH32 0xDDF252AD1BE2C89B69C2B068FC378DAA952BA7F163C4A11628F55A4DF523B3EF DUP5 PUSH1 0x40 MLOAD PUSH2 0x13CD SWAP2 SWAP1 PUSH2 0x246B JUMP JUMPDEST PUSH1 0x40 MLOAD DUP1 SWAP2 SUB SWAP1 LOG3 PUSH1 0x1 SWAP1 POP SWAP3 SWAP2 POP POP JUMP JUMPDEST CALLER PUSH20 0xFFFFFFFFFFFFFFFFFFFFFFFFFFFFFFFFFFFFFFFF AND PUSH2 0x13FE PUSH2 0xD84 JUMP JUMPDEST PUSH20 0xFFFFFFFFFFFFFFFFFFFFFFFFFFFFFFFFFFFFFFFF AND EQ PUSH2 0x1454 JUMPI PUSH1 0x40 MLOAD PUSH32 0x8C379A000000000000000000000000000000000000000000000000000000000 DUP2 MSTORE PUSH1 0x4 ADD PUSH2 0x144B SWAP1 PUSH2 0x2BDC JUMP JUMPDEST PUSH1 0x40 MLOAD DUP1 SWAP2 SUB SWAP1 REVERT JUMPDEST CALLER PUSH20 0xFFFFFFFFFFFFFFFFFFFFFFFFFFFFFFFFFFFFFFFF AND PUSH32 0x9493E5BBE4E8E0AC67284469A2D677403D0378A85A59E341D3ABC433D0D9A209 DUP3 PUSH1 0x40 MLOAD PUSH2 0x149A SWAP2 SWAP1 PUSH2 0x246B JUMP JUMPDEST PUSH1 0x40 MLOAD DUP1 SWAP2 SUB SWAP1 LOG2 ADDRESS PUSH20 0xFFFFFFFFFFFFFFFFFFFFFFFFFFFFFFFFFFFFFFFF AND PUSH4 0xA9059CBB CALLER DUP4 PUSH1 0x40 MLOAD DUP4 PUSH4 0xFFFFFFFF AND PUSH1 0xE0 SHL DUP2 MSTORE PUSH1 0x4 ADD PUSH2 0x14DD SWAP3 SWAP2 SWAP1 PUSH2 0x2C68 JUMP JUMPDEST PUSH1 0x20 PUSH1 0x40 MLOAD DUP1 DUP4 SUB DUP2 PUSH1 0x0 DUP8 GAS CALL ISZERO DUP1 ISZERO PUSH2 0x14FC JUMPI RETURNDATASIZE PUSH1 0x0 DUP1 RETURNDATACOPY RETURNDATASIZE PUSH1 0x0 REVERT JUMPDEST POP POP POP POP PUSH1 0x40 MLOAD RETURNDATASIZE PUSH1 0x1F NOT PUSH1 0x1F DUP3 ADD AND DUP3 ADD DUP1 PUSH1 0x40 MSTORE POP DUP2 ADD SWAP1 PUSH2 0x1520 SWAP2 SWAP1 PUSH2 0x2CBD JUMP JUMPDEST POP POP JUMP JUMPDEST PUSH1 0x0 DUP1 PUSH1 0x2 SLOAD SWAP1 POP PUSH1 0x0 DUP2 EQ PUSH2 0x1555 JUMPI PUSH2 0x1550 PUSH2 0x153F PUSH2 0x7CE JUMP JUMPDEST DUP3 DUP6 PUSH2 0x2085 SWAP1 SWAP3 SWAP2 SWAP1 PUSH4 0xFFFFFFFF AND JUMP JUMPDEST PUSH2 0x1557 JUMP JUMPDEST DUP3 JUMPDEST SWAP2 POP POP SWAP2 SWAP1 POP JUMP JUMPDEST PUSH1 0x0 PUSH2 0x156A DUP5 PUSH2 0xA2A JUMP JUMPDEST SWAP1 POP DUP2 PUSH20 0xFFFFFFFFFFFFFFFFFFFFFFFFFFFFFFFFFFFFFFFF AND CALLER PUSH20 0xFFFFFFFFFFFFFFFFFFFFFFFFFFFFFFFFFFFFFFFF AND EQ PUSH2 0x16D6 JUMPI PUSH1 0x0 PUSH1 0x4 PUSH1 0x0 DUP5 PUSH20 0xFFFFFFFFFFFFFFFFFFFFFFFFFFFFFFFFFFFFFFFF AND PUSH20 0xFFFFFFFFFFFFFFFFFFFFFFFFFFFFFFFFFFFFFFFF AND DUP2 MSTORE PUSH1 0x20 ADD SWAP1 DUP2 MSTORE PUSH1 0x20 ADD PUSH1 0x0 KECCAK256 PUSH1 0x0 CALLER PUSH20 0xFFFFFFFFFFFFFFFFFFFFFFFFFFFFFFFFFFFFFFFF AND PUSH20 0xFFFFFFFFFFFFFFFFFFFFFFFFFFFFFFFFFFFFFFFF AND DUP2 MSTORE PUSH1 0x20 ADD SWAP1 DUP2 MSTORE PUSH1 0x20 ADD PUSH1 0x0 KECCAK256 SLOAD SWAP1 POP PUSH32 0xFFFFFFFFFFFFFFFFFFFFFFFFFFFFFFFFFFFFFFFFFFFFFFFFFFFFFFFFFFFFFFFF DUP2 EQ PUSH2 0x16D4 JUMPI DUP2 DUP2 PUSH2 0x1653 SWAP2 SWAP1 PUSH2 0x2AA1 JUMP JUMPDEST PUSH1 0x4 PUSH1 0x0 DUP6 PUSH20 0xFFFFFFFFFFFFFFFFFFFFFFFFFFFFFFFFFFFFFFFF AND PUSH20 0xFFFFFFFFFFFFFFFFFFFFFFFFFFFFFFFFFFFFFFFF AND DUP2 MSTORE PUSH1 0x20 ADD SWAP1 DUP2 MSTORE PUSH1 0x20 ADD PUSH1 0x0 KECCAK256 PUSH1 0x0 CALLER PUSH20 0xFFFFFFFFFFFFFFFFFFFFFFFFFFFFFFFFFFFFFFFF AND PUSH20 0xFFFFFFFFFFFFFFFFFFFFFFFFFFFFFFFFFFFFFFFF AND DUP2 MSTORE PUSH1 0x20 ADD SWAP1 DUP2 MSTORE PUSH1 0x20 ADD PUSH1 0x0 KECCAK256 DUP2 SWAP1 SSTORE POP JUMPDEST POP JUMPDEST PUSH2 0x16E0 DUP5 DUP3 PUSH2 0x22CE JUMP JUMPDEST PUSH2 0x16EA DUP3 DUP3 PUSH2 0x22EA JUMP JUMPDEST DUP2 PUSH20 0xFFFFFFFFFFFFFFFFFFFFFFFFFFFFFFFFFFFFFFFF AND DUP4 PUSH20 0xFFFFFFFFFFFFFFFFFFFFFFFFFFFFFFFFFFFFFFFF AND CALLER PUSH20 0xFFFFFFFFFFFFFFFFFFFFFFFFFFFFFFFFFFFFFFFF AND PUSH32 0xFBDE797D201C681B91056529119E0B02407C7BB96A4A2C75C01FC9667232C8DB DUP8 DUP6 PUSH1 0x40 MLOAD PUSH2 0x1760 SWAP3 SWAP2 SWAP1 PUSH2 0x2B41 JUMP JUMPDEST PUSH1 0x40 MLOAD DUP1 SWAP2 SUB SWAP1 LOG4 PUSH2 0x17B3 DUP4 DUP6 PUSH32 0x0 PUSH20 0xFFFFFFFFFFFFFFFFFFFFFFFFFFFFFFFFFFFFFFFF AND PUSH2 0x23BA SWAP1 SWAP3 SWAP2 SWAP1 PUSH4 0xFFFFFFFF AND JUMP JUMPDEST SWAP4 SWAP3 POP POP POP JUMP JUMPDEST PUSH1 0x0 DUP2 PUSH20 0xFFFFFFFFFFFFFFFFFFFFFFFFFFFFFFFFFFFFFFFF AND CALLER PUSH20 0xFFFFFFFFFFFFFFFFFFFFFFFFFFFFFFFFFFFFFFFF AND EQ PUSH2 0x1926 JUMPI PUSH1 0x0 PUSH1 0x4 PUSH1 0x0 DUP5 PUSH20 0xFFFFFFFFFFFFFFFFFFFFFFFFFFFFFFFFFFFFFFFF AND PUSH20 0xFFFFFFFFFFFFFFFFFFFFFFFFFFFFFFFFFFFFFFFF AND DUP2 MSTORE PUSH1 0x20 ADD SWAP1 DUP2 MSTORE PUSH1 0x20 ADD PUSH1 0x0 KECCAK256 PUSH1 0x0 CALLER PUSH20 0xFFFFFFFFFFFFFFFFFFFFFFFFFFFFFFFFFFFFFFFF AND PUSH20 0xFFFFFFFFFFFFFFFFFFFFFFFFFFFFFFFFFFFFFFFF AND DUP2 MSTORE PUSH1 0x20 ADD SWAP1 DUP2 MSTORE PUSH1 0x20 ADD PUSH1 0x0 KECCAK256 SLOAD SWAP1 POP PUSH32 0xFFFFFFFFFFFFFFFFFFFFFFFFFFFFFFFFFFFFFFFFFFFFFFFFFFFFFFFFFFFFFFFF DUP2 EQ PUSH2 0x1924 JUMPI DUP5 DUP2 PUSH2 0x18A3 SWAP2 SWAP1 PUSH2 0x2AA1 JUMP JUMPDEST PUSH1 0x4 PUSH1 0x0 DUP6 PUSH20 0xFFFFFFFFFFFFFFFFFFFFFFFFFFFFFFFFFFFFFFFF AND PUSH20 0xFFFFFFFFFFFFFFFFFFFFFFFFFFFFFFFFFFFFFFFF AND DUP2 MSTORE PUSH1 0x20 ADD SWAP1 DUP2 MSTORE PUSH1 0x20 ADD PUSH1 0x0 KECCAK256 PUSH1 0x0 CALLER PUSH20 0xFFFFFFFFFFFFFFFFFFFFFFFFFFFFFFFFFFFFFFFF AND PUSH20 0xFFFFFFFFFFFFFFFFFFFFFFFFFFFFFFFFFFFFFFFF AND DUP2 MSTORE PUSH1 0x20 ADD SWAP1 DUP2 MSTORE PUSH1 0x20 ADD PUSH1 0x0 KECCAK256 DUP2 SWAP1 SSTORE POP JUMPDEST POP JUMPDEST PUSH1 0x0 PUSH2 0x1931 DUP6 PUSH2 0xDAE JUMP JUMPDEST SWAP2 POP DUP2 EQ ISZERO PUSH2 0x1975 JUMPI PUSH1 0x40 MLOAD PUSH32 0x8C379A000000000000000000000000000000000000000000000000000000000 DUP2 MSTORE PUSH1 0x4 ADD PUSH2 0x196C SWAP1 PUSH2 0x2D36 JUMP JUMPDEST PUSH1 0x40 MLOAD DUP1 SWAP2 SUB SWAP1 REVERT JUMPDEST PUSH2 0x197F DUP2 DUP6 PUSH2 0x22CE JUMP JUMPDEST PUSH2 0x1989 DUP3 DUP6 PUSH2 0x22EA JUMP JUMPDEST DUP2 PUSH20 0xFFFFFFFFFFFFFFFFFFFFFFFFFFFFFFFFFFFFFFFF AND DUP4 PUSH20 0xFFFFFFFFFFFFFFFFFFFFFFFFFFFFFFFFFFFFFFFF AND CALLER PUSH20 0xFFFFFFFFFFFFFFFFFFFFFFFFFFFFFFFFFFFFFFFF AND PUSH32 0xFBDE797D201C681B91056529119E0B02407C7BB96A4A2C75C01FC9667232C8DB DUP5 DUP9 PUSH1 0x40 MLOAD PUSH2 0x19FF SWAP3 SWAP2 SWAP1 PUSH2 0x2B41 JUMP JUMPDEST PUSH1 0x40 MLOAD DUP1 SWAP2 SUB SWAP1 LOG4 PUSH2 0x1A52 DUP4 DUP3 PUSH32 0x0 PUSH20 0xFFFFFFFFFFFFFFFFFFFFFFFFFFFFFFFFFFFFFFFF AND PUSH2 0x23BA SWAP1 SWAP3 SWAP2 SWAP1 PUSH4 0xFFFFFFFF AND JUMP JUMPDEST SWAP4 SWAP3 POP POP POP JUMP JUMPDEST PUSH1 0x7 SLOAD DUP2 JUMP JUMPDEST PUSH32 0x0 DUP2 JUMP JUMPDEST PUSH1 0x0 PUSH32 0xFFFFFFFFFFFFFFFFFFFFFFFFFFFFFFFFFFFFFFFFFFFFFFFFFFFFFFFFFFFFFFFF SWAP1 POP SWAP2 SWAP1 POP JUMP JUMPDEST PUSH1 0x0 DUP1 PUSH1 0x2 SLOAD SWAP1 POP PUSH1 0x0 DUP2 EQ PUSH2 0x1ADE JUMPI PUSH2 0x1AD9 DUP2 PUSH2 0x1AC9 PUSH2 0x7CE JUMP JUMPDEST DUP6 PUSH2 0x205D SWAP1 SWAP3 SWAP2 SWAP1 PUSH4 0xFFFFFFFF AND JUMP JUMPDEST PUSH2 0x1AE0 JUMP JUMPDEST DUP3 JUMPDEST SWAP2 POP POP SWAP2 SWAP1 POP JUMP JUMPDEST PUSH1 0x0 PUSH2 0x1B32 PUSH1 0x3 PUSH1 0x0 DUP5 PUSH20 0xFFFFFFFFFFFFFFFFFFFFFFFFFFFFFFFFFFFFFFFF AND PUSH20 0xFFFFFFFFFFFFFFFFFFFFFFFFFFFFFFFFFFFFFFFF AND DUP2 MSTORE PUSH1 0x20 ADD SWAP1 DUP2 MSTORE PUSH1 0x20 ADD PUSH1 0x0 KECCAK256 SLOAD PUSH2 0x8FD JUMP JUMPDEST SWAP1 POP SWAP2 SWAP1 POP JUMP JUMPDEST TIMESTAMP DUP5 LT ISZERO PUSH2 0x1B7C JUMPI PUSH1 0x40 MLOAD PUSH32 0x8C379A000000000000000000000000000000000000000000000000000000000 DUP2 MSTORE PUSH1 0x4 ADD PUSH2 0x1B73 SWAP1 PUSH2 0x2DA2 JUMP JUMPDEST PUSH1 0x40 MLOAD DUP1 SWAP2 SUB SWAP1 REVERT JUMPDEST PUSH1 0x0 PUSH1 0x1 PUSH2 0x1B88 PUSH2 0xCD9 JUMP JUMPDEST PUSH32 0x6E71EDAE12B1B97F4D1F60370FEF10105FA2FAAE0126114A169C64845D6126C9 DUP11 DUP11 DUP11 PUSH1 0x5 PUSH1 0x0 DUP16 PUSH20 0xFFFFFFFFFFFFFFFFFFFFFFFFFFFFFFFFFFFFFFFF AND PUSH20 0xFFFFFFFFFFFFFFFFFFFFFFFFFFFFFFFFFFFFFFFF AND DUP2 MSTORE PUSH1 0x20 ADD SWAP1 DUP2 MSTORE PUSH1 0x20 ADD PUSH1 0x0 KECCAK256 PUSH1 0x0 DUP2 SLOAD DUP1 SWAP3 SWAP2 SWAP1 PUSH1 0x1 ADD SWAP2 SWAP1 POP SSTORE DUP12 PUSH1 0x40 MLOAD PUSH1 0x20 ADD PUSH2 0x1C10 SWAP7 SWAP6 SWAP5 SWAP4 SWAP3 SWAP2 SWAP1 PUSH2 0x2DC2 JUMP JUMPDEST PUSH1 0x40 MLOAD PUSH1 0x20 DUP2 DUP4 SUB SUB DUP2 MSTORE SWAP1 PUSH1 0x40 MSTORE DUP1 MLOAD SWAP1 PUSH1 0x20 ADD KECCAK256 PUSH1 0x40 MLOAD PUSH1 0x20 ADD PUSH2 0x1C37 SWAP3 SWAP2 SWAP1 PUSH2 0x2E9B JUMP JUMPDEST PUSH1 0x40 MLOAD PUSH1 0x20 DUP2 DUP4 SUB SUB DUP2 MSTORE SWAP1 PUSH1 0x40 MSTORE DUP1 MLOAD SWAP1 PUSH1 0x20 ADD KECCAK256 DUP6 DUP6 DUP6 PUSH1 0x40 MLOAD PUSH1 0x0 DUP2 MSTORE PUSH1 0x20 ADD PUSH1 0x40 MSTORE PUSH1 0x40 MLOAD PUSH2 0x1C6D SWAP5 SWAP4 SWAP3 SWAP2 SWAP1 PUSH2 0x2ED2 JUMP JUMPDEST PUSH1 0x20 PUSH1 0x40 MLOAD PUSH1 0x20 DUP2 SUB SWAP1 DUP1 DUP5 SUB SWAP1 DUP6 GAS STATICCALL ISZERO DUP1 ISZERO PUSH2 0x1C8F JUMPI RETURNDATASIZE PUSH1 0x0 DUP1 RETURNDATACOPY RETURNDATASIZE PUSH1 0x0 REVERT JUMPDEST POP POP POP PUSH1 0x20 PUSH1 0x40 MLOAD SUB MLOAD SWAP1 POP PUSH1 0x0 PUSH20 0xFFFFFFFFFFFFFFFFFFFFFFFFFFFFFFFFFFFFFFFF AND DUP2 PUSH20 0xFFFFFFFFFFFFFFFFFFFFFFFFFFFFFFFFFFFFFFFF AND EQ ISZERO DUP1 ISZERO PUSH2 0x1D03 JUMPI POP DUP8 PUSH20 0xFFFFFFFFFFFFFFFFFFFFFFFFFFFFFFFFFFFFFFFF AND DUP2 PUSH20 0xFFFFFFFFFFFFFFFFFFFFFFFFFFFFFFFFFFFFFFFF AND EQ JUMPDEST PUSH2 0x1D42 JUMPI PUSH1 0x40 MLOAD PUSH32 0x8C379A000000000000000000000000000000000000000000000000000000000 DUP2 MSTORE PUSH1 0x4 ADD PUSH2 0x1D39 SWAP1 PUSH2 0x2F63 JUMP JUMPDEST PUSH1 0x40 MLOAD DUP1 SWAP2 SUB SWAP1 REVERT JUMPDEST DUP6 PUSH1 0x4 PUSH1 0x0 DUP4 PUSH20 0xFFFFFFFFFFFFFFFFFFFFFFFFFFFFFFFFFFFFFFFF AND PUSH20 0xFFFFFFFFFFFFFFFFFFFFFFFFFFFFFFFFFFFFFFFF AND DUP2 MSTORE PUSH1 0x20 ADD SWAP1 DUP2 MSTORE PUSH1 0x20 ADD PUSH1 0x0 KECCAK256 PUSH1 0x0 DUP10 PUSH20 0xFFFFFFFFFFFFFFFFFFFFFFFFFFFFFFFFFFFFFFFF AND PUSH20 0xFFFFFFFFFFFFFFFFFFFFFFFFFFFFFFFFFFFFFFFF AND DUP2 MSTORE PUSH1 0x20 ADD SWAP1 DUP2 MSTORE PUSH1 0x20 ADD PUSH1 0x0 KECCAK256 DUP2 SWAP1 SSTORE POP POP DUP6 PUSH20 0xFFFFFFFFFFFFFFFFFFFFFFFFFFFFFFFFFFFFFFFF AND DUP8 PUSH20 0xFFFFFFFFFFFFFFFFFFFFFFFFFFFFFFFFFFFFFFFF AND PUSH32 0x8C5BE1E5EBEC7D5BD14F71427D1E84F3DD0314C0F7B2291E5B200AC8C7C3B925 DUP8 PUSH1 0x40 MLOAD PUSH2 0x1E21 SWAP2 SWAP1 PUSH2 0x246B JUMP JUMPDEST PUSH1 0x40 MLOAD DUP1 SWAP2 SUB SWAP1 LOG3 POP POP POP POP POP POP POP JUMP JUMPDEST PUSH1 0x0 PUSH1 0x3 PUSH1 0x0 DUP4 PUSH20 0xFFFFFFFFFFFFFFFFFFFFFFFFFFFFFFFFFFFFFFFF AND PUSH20 0xFFFFFFFFFFFFFFFFFFFFFFFFFFFFFFFFFFFFFFFF AND DUP2 MSTORE PUSH1 0x20 ADD SWAP1 DUP2 MSTORE PUSH1 0x20 ADD PUSH1 0x0 KECCAK256 SLOAD SWAP1 POP SWAP2 SWAP1 POP JUMP JUMPDEST PUSH1 0x4 PUSH1 0x20 MSTORE DUP2 PUSH1 0x0 MSTORE PUSH1 0x40 PUSH1 0x0 KECCAK256 PUSH1 0x20 MSTORE DUP1 PUSH1 0x0 MSTORE PUSH1 0x40 PUSH1 0x0 KECCAK256 PUSH1 0x0 SWAP2 POP SWAP2 POP POP SLOAD DUP2 JUMP JUMPDEST PUSH1 0x0 PUSH2 0x1EAB DUP3 PUSH2 0x1AAD JUMP JUMPDEST SWAP1 POP SWAP2 SWAP1 POP JUMP JUMPDEST CALLER PUSH20 0xFFFFFFFFFFFFFFFFFFFFFFFFFFFFFFFFFFFFFFFF AND PUSH2 0x1ED1 PUSH2 0xD84 JUMP JUMPDEST PUSH20 0xFFFFFFFFFFFFFFFFFFFFFFFFFFFFFFFFFFFFFFFF AND EQ PUSH2 0x1F27 JUMPI PUSH1 0x40 MLOAD PUSH32 0x8C379A000000000000000000000000000000000000000000000000000000000 DUP2 MSTORE PUSH1 0x4 ADD PUSH2 0x1F1E SWAP1 PUSH2 0x2BDC JUMP JUMPDEST PUSH1 0x40 MLOAD DUP1 SWAP2 SUB SWAP1 REVERT JUMPDEST PUSH1 0x0 PUSH20 0xFFFFFFFFFFFFFFFFFFFFFFFFFFFFFFFFFFFFFFFF AND DUP2 PUSH20 0xFFFFFFFFFFFFFFFFFFFFFFFFFFFFFFFFFFFFFFFF AND EQ ISZERO PUSH2 0x1F97 JUMPI PUSH1 0x40 MLOAD PUSH32 0x8C379A000000000000000000000000000000000000000000000000000000000 DUP2 MSTORE PUSH1 0x4 ADD PUSH2 0x1F8E SWAP1 PUSH2 0x2FF5 JUMP JUMPDEST PUSH1 0x40 MLOAD DUP1 SWAP2 SUB SWAP1 REVERT JUMPDEST DUP1 PUSH20 0xFFFFFFFFFFFFFFFFFFFFFFFFFFFFFFFFFFFFFFFF AND PUSH1 0x6 PUSH1 0x0 SWAP1 SLOAD SWAP1 PUSH2 0x100 EXP SWAP1 DIV PUSH20 0xFFFFFFFFFFFFFFFFFFFFFFFFFFFFFFFFFFFFFFFF AND PUSH20 0xFFFFFFFFFFFFFFFFFFFFFFFFFFFFFFFFFFFFFFFF AND PUSH32 0x8BE0079C531659141344CD1FD0A4F28419497F9722A3DAAFE3B4186F6B6457E0 PUSH1 0x40 MLOAD PUSH1 0x40 MLOAD DUP1 SWAP2 SUB SWAP1 LOG3 DUP1 PUSH1 0x6 PUSH1 0x0 PUSH2 0x100 EXP DUP2 SLOAD DUP2 PUSH20 0xFFFFFFFFFFFFFFFFFFFFFFFFFFFFFFFFFFFFFFFF MUL NOT AND SWAP1 DUP4 PUSH20 0xFFFFFFFFFFFFFFFFFFFFFFFFFFFFFFFFFFFFFFFF AND MUL OR SWAP1 SSTORE POP POP JUMP JUMPDEST PUSH1 0x8 SLOAD DUP2 JUMP JUMPDEST PUSH1 0x0 DUP3 DUP5 MUL SWAP1 POP DUP3 DUP5 DUP3 DIV EQ DUP5 ISZERO OR DUP3 ISZERO ISZERO AND PUSH2 0x2079 JUMPI PUSH1 0x0 DUP1 REVERT JUMPDEST DUP2 DUP2 DIV SWAP1 POP SWAP4 SWAP3 POP POP POP JUMP JUMPDEST PUSH1 0x0 DUP3 DUP5 MUL SWAP1 POP DUP3 DUP5 DUP3 DIV EQ DUP5 ISZERO OR DUP3 ISZERO ISZERO AND PUSH2 0x20A1 JUMPI PUSH1 0x0 DUP1 REVERT JUMPDEST PUSH1 0x1 DUP3 PUSH1 0x1 DUP4 SUB DIV ADD DUP2 ISZERO ISZERO MUL SWAP1 POP SWAP4 SWAP3 POP POP POP JUMP JUMPDEST PUSH1 0x0 PUSH32 0x8B73C3C69BB8FE3D512ECC4CF759CC79239F7B179B0FFACAA9A75D522B39400F PUSH1 0x0 PUSH1 0x40 MLOAD PUSH2 0x20E9 SWAP2 SWAP1 PUSH2 0x30B4 JUMP JUMPDEST PUSH1 0x40 MLOAD DUP1 SWAP2 SUB SWAP1 KECCAK256 PUSH32 0xC89EFDAA54C0F20C7ADF612882DF0950F5A951637E0307CDCB4C672F298B8BC6 CHAINID ADDRESS PUSH1 0x40 MLOAD PUSH1 0x20 ADD PUSH2 0x2128 SWAP6 SWAP5 SWAP4 SWAP3 SWAP2 SWAP1 PUSH2 0x30CB JUMP JUMPDEST PUSH1 0x40 MLOAD PUSH1 0x20 DUP2 DUP4 SUB SUB DUP2 MSTORE SWAP1 PUSH1 0x40 MSTORE DUP1 MLOAD SWAP1 PUSH1 0x20 ADD KECCAK256 SWAP1 POP SWAP1 JUMP JUMPDEST PUSH1 0x0 PUSH1 0x40 MLOAD PUSH32 0x23B872DD00000000000000000000000000000000000000000000000000000000 DUP2 MSTORE DUP5 PUSH1 0x4 DUP3 ADD MSTORE DUP4 PUSH1 0x24 DUP3 ADD MSTORE DUP3 PUSH1 0x44 DUP3 ADD MSTORE PUSH1 0x20 PUSH1 0x0 PUSH1 0x64 DUP4 PUSH1 0x0 DUP11 GAS CALL RETURNDATASIZE ISZERO PUSH1 0x1F RETURNDATASIZE GT PUSH1 0x1 PUSH1 0x0 MLOAD EQ AND OR AND SWAP2 POP POP DUP1 PUSH2 0x21DB JUMPI PUSH1 0x40 MLOAD PUSH32 0x8C379A000000000000000000000000000000000000000000000000000000000 DUP2 MSTORE PUSH1 0x4 ADD PUSH2 0x21D2 SWAP1 PUSH2 0x316A JUMP JUMPDEST PUSH1 0x40 MLOAD DUP1 SWAP2 SUB SWAP1 REVERT JUMPDEST POP POP POP POP POP JUMP JUMPDEST DUP1 PUSH1 0x2 PUSH1 0x0 DUP3 DUP3 SLOAD PUSH2 0x21F4 SWAP2 SWAP1 PUSH2 0x318A JUMP JUMPDEST SWAP3 POP POP DUP2 SWAP1 SSTORE POP DUP1 PUSH1 0x3 PUSH1 0x0 DUP5 PUSH20 0xFFFFFFFFFFFFFFFFFFFFFFFFFFFFFFFFFFFFFFFF AND PUSH20 0xFFFFFFFFFFFFFFFFFFFFFFFFFFFFFFFFFFFFFFFF AND DUP2 MSTORE PUSH1 0x20 ADD SWAP1 DUP2 MSTORE PUSH1 0x20 ADD PUSH1 0x0 KECCAK256 PUSH1 0x0 DUP3 DUP3 SLOAD ADD SWAP3 POP POP DUP2 SWAP1 SSTORE POP DUP2 PUSH20 0xFFFFFFFFFFFFFFFFFFFFFFFFFFFFFFFFFFFFFFFF AND PUSH1 0x0 PUSH20 0xFFFFFFFFFFFFFFFFFFFFFFFFFFFFFFFFFFFFFFFF AND PUSH32 0xDDF252AD1BE2C89B69C2B068FC378DAA952BA7F163C4A11628F55A4DF523B3EF DUP4 PUSH1 0x40 MLOAD PUSH2 0x22A6 SWAP2 SWAP1 PUSH2 0x246B JUMP JUMPDEST PUSH1 0x40 MLOAD DUP1 SWAP2 SUB SWAP1 LOG3 POP POP JUMP JUMPDEST PUSH1 0x8 PUSH1 0x0 DUP2 SLOAD DUP1 SWAP3 SWAP2 SWAP1 PUSH2 0x22C5 SWAP1 PUSH2 0x31E0 JUMP JUMPDEST SWAP2 SWAP1 POP SSTORE POP POP POP JUMP JUMPDEST PUSH1 0x7 PUSH1 0x0 DUP2 SLOAD DUP1 SWAP3 SWAP2 SWAP1 PUSH2 0x22E1 SWAP1 PUSH2 0x31E0 JUMP JUMPDEST SWAP2 SWAP1 POP SSTORE POP POP POP JUMP JUMPDEST DUP1 PUSH1 0x3 PUSH1 0x0 DUP5 PUSH20 0xFFFFFFFFFFFFFFFFFFFFFFFFFFFFFFFFFFFFFFFF AND PUSH20 0xFFFFFFFFFFFFFFFFFFFFFFFFFFFFFFFFFFFFFFFF AND DUP2 MSTORE PUSH1 0x20 ADD SWAP1 DUP2 MSTORE PUSH1 0x20 ADD PUSH1 0x0 KECCAK256 PUSH1 0x0 DUP3 DUP3 SLOAD PUSH2 0x2339 SWAP2 SWAP1 PUSH2 0x2AA1 JUMP JUMPDEST SWAP3 POP POP DUP2 SWAP1 SSTORE POP DUP1 PUSH1 0x2 PUSH1 0x0 DUP3 DUP3 SLOAD SUB SWAP3 POP POP DUP2 SWAP1 SSTORE POP PUSH1 0x0 PUSH20 0xFFFFFFFFFFFFFFFFFFFFFFFFFFFFFFFFFFFFFFFF AND DUP3 PUSH20 0xFFFFFFFFFFFFFFFFFFFFFFFFFFFFFFFFFFFFFFFF AND PUSH32 0xDDF252AD1BE2C89B69C2B068FC378DAA952BA7F163C4A11628F55A4DF523B3EF DUP4 PUSH1 0x40 MLOAD PUSH2 0x23AE SWAP2 SWAP1 PUSH2 0x246B JUMP JUMPDEST PUSH1 0x40 MLOAD DUP1 SWAP2 SUB SWAP1 LOG3 POP POP JUMP JUMPDEST PUSH1 0x0 PUSH1 0x40 MLOAD PUSH32 0xA9059CBB00000000000000000000000000000000000000000000000000000000 DUP2 MSTORE DUP4 PUSH1 0x4 DUP3 ADD MSTORE DUP3 PUSH1 0x24 DUP3 ADD MSTORE PUSH1 0x20 PUSH1 0x0 PUSH1 0x44 DUP4 PUSH1 0x0 DUP10 GAS CALL RETURNDATASIZE ISZERO PUSH1 0x1F RETURNDATASIZE GT PUSH1 0x1 PUSH1 0x0 MLOAD EQ AND OR AND SWAP2 POP POP DUP1 PUSH2 0x244C JUMPI PUSH1 0x40 MLOAD PUSH32 0x8C379A000000000000000000000000000000000000000000000000000000000 DUP2 MSTORE PUSH1 0x4 ADD PUSH2 0x2443 SWAP1 PUSH2 0x3275 JUMP JUMPDEST PUSH1 0x40 MLOAD DUP1 SWAP2 SUB SWAP1 REVERT JUMPDEST POP POP POP POP JUMP JUMPDEST PUSH1 0x0 DUP2 SWAP1 POP SWAP2 SWAP1 POP JUMP JUMPDEST PUSH2 0x2465 DUP2 PUSH2 0x2452 JUMP JUMPDEST DUP3 MSTORE POP POP JUMP JUMPDEST PUSH1 0x0 PUSH1 0x20 DUP3 ADD SWAP1 POP PUSH2 0x2480 PUSH1 0x0 DUP4 ADD DUP5 PUSH2 0x245C JUMP JUMPDEST SWAP3 SWAP2 POP POP JUMP JUMPDEST PUSH1 0x0 DUP2 MLOAD SWAP1 POP SWAP2 SWAP1 POP JUMP JUMPDEST PUSH1 0x0 DUP3 DUP3 MSTORE PUSH1 0x20 DUP3 ADD SWAP1 POP SWAP3 SWAP2 POP POP JUMP JUMPDEST PUSH1 0x0 JUMPDEST DUP4 DUP2 LT ISZERO PUSH2 0x24C0 JUMPI DUP1 DUP3 ADD MLOAD DUP2 DUP5 ADD MSTORE PUSH1 0x20 DUP2 ADD SWAP1 POP PUSH2 0x24A5 JUMP JUMPDEST DUP4 DUP2 GT ISZERO PUSH2 0x24CF JUMPI PUSH1 0x0 DUP5 DUP5 ADD MSTORE JUMPDEST POP POP POP POP JUMP JUMPDEST PUSH1 0x0 PUSH1 0x1F NOT PUSH1 0x1F DUP4 ADD AND SWAP1 POP SWAP2 SWAP1 POP JUMP JUMPDEST PUSH1 0x0 PUSH2 0x24F1 DUP3 PUSH2 0x2486 JUMP JUMPDEST PUSH2 0x24FB DUP2 DUP6 PUSH2 0x2491 JUMP JUMPDEST SWAP4 POP PUSH2 0x250B DUP2 DUP6 PUSH1 0x20 DUP7 ADD PUSH2 0x24A2 JUMP JUMPDEST PUSH2 0x2514 DUP2 PUSH2 0x24D5 JUMP JUMPDEST DUP5 ADD SWAP2 POP POP SWAP3 SWAP2 POP POP JUMP JUMPDEST PUSH1 0x0 PUSH1 0x20 DUP3 ADD SWAP1 POP DUP2 DUP2 SUB PUSH1 0x0 DUP4 ADD MSTORE PUSH2 0x2539 DUP2 DUP5 PUSH2 0x24E6 JUMP JUMPDEST SWAP1 POP SWAP3 SWAP2 POP POP JUMP JUMPDEST PUSH1 0x0 DUP1 REVERT JUMPDEST PUSH2 0x254F DUP2 PUSH2 0x2452 JUMP JUMPDEST DUP2 EQ PUSH2 0x255A JUMPI PUSH1 0x0 DUP1 REVERT JUMPDEST POP JUMP JUMPDEST PUSH1 0x0 DUP2 CALLDATALOAD SWAP1 POP PUSH2 0x256C DUP2 PUSH2 0x2546 JUMP JUMPDEST SWAP3 SWAP2 POP POP JUMP JUMPDEST PUSH1 0x0 PUSH1 0x20 DUP3 DUP5 SUB SLT ISZERO PUSH2 0x2588 JUMPI PUSH2 0x2587 PUSH2 0x2541 JUMP JUMPDEST JUMPDEST PUSH1 0x0 PUSH2 0x2596 DUP5 DUP3 DUP6 ADD PUSH2 0x255D JUMP JUMPDEST SWAP2 POP POP SWAP3 SWAP2 POP POP JUMP JUMPDEST PUSH1 0x0 PUSH20 0xFFFFFFFFFFFFFFFFFFFFFFFFFFFFFFFFFFFFFFFF DUP3 AND SWAP1 POP SWAP2 SWAP1 POP JUMP JUMPDEST PUSH1 0x0 PUSH2 0x25CA DUP3 PUSH2 0x259F JUMP JUMPDEST SWAP1 POP SWAP2 SWAP1 POP JUMP JUMPDEST PUSH2 0x25DA DUP2 PUSH2 0x25BF JUMP JUMPDEST DUP2 EQ PUSH2 0x25E5 JUMPI PUSH1 0x0 DUP1 REVERT JUMPDEST POP JUMP JUMPDEST PUSH1 0x0 DUP2 CALLDATALOAD SWAP1 POP PUSH2 0x25F7 DUP2 PUSH2 0x25D1 JUMP JUMPDEST SWAP3 SWAP2 POP POP JUMP JUMPDEST PUSH1 0x0 DUP1 PUSH1 0x40 DUP4 DUP6 SUB SLT ISZERO PUSH2 0x2614 JUMPI PUSH2 0x2613 PUSH2 0x2541 JUMP JUMPDEST JUMPDEST PUSH1 0x0 PUSH2 0x2622 DUP6 DUP3 DUP7 ADD PUSH2 0x25E8 JUMP JUMPDEST SWAP3 POP POP PUSH1 0x20 PUSH2 0x2633 DUP6 DUP3 DUP7 ADD PUSH2 0x255D JUMP JUMPDEST SWAP2 POP POP SWAP3 POP SWAP3 SWAP1 POP JUMP JUMPDEST PUSH1 0x0 DUP2 ISZERO ISZERO SWAP1 POP SWAP2 SWAP1 POP JUMP JUMPDEST PUSH2 0x2652 DUP2 PUSH2 0x263D JUMP JUMPDEST DUP3 MSTORE POP POP JUMP JUMPDEST PUSH1 0x0 PUSH1 0x20 DUP3 ADD SWAP1 POP PUSH2 0x266D PUSH1 0x0 DUP4 ADD DUP5 PUSH2 0x2649 JUMP JUMPDEST SWAP3 SWAP2 POP POP JUMP JUMPDEST PUSH1 0x0 DUP1 PUSH1 0x0 PUSH1 0x60 DUP5 DUP7 SUB SLT ISZERO PUSH2 0x268C JUMPI PUSH2 0x268B PUSH2 0x2541 JUMP JUMPDEST JUMPDEST PUSH1 0x0 PUSH2 0x269A DUP7 DUP3 DUP8 ADD PUSH2 0x25E8 JUMP JUMPDEST SWAP4 POP POP PUSH1 0x20 PUSH2 0x26AB DUP7 DUP3 DUP8 ADD PUSH2 0x25E8 JUMP JUMPDEST SWAP3 POP POP PUSH1 0x40 PUSH2 0x26BC DUP7 DUP3 DUP8 ADD PUSH2 0x255D JUMP JUMPDEST SWAP2 POP POP SWAP3 POP SWAP3 POP SWAP3 JUMP JUMPDEST PUSH1 0x0 PUSH1 0xFF DUP3 AND SWAP1 POP SWAP2 SWAP1 POP JUMP JUMPDEST PUSH2 0x26DC DUP2 PUSH2 0x26C6 JUMP JUMPDEST DUP3 MSTORE POP POP JUMP JUMPDEST PUSH1 0x0 PUSH1 0x20 DUP3 ADD SWAP1 POP PUSH2 0x26F7 PUSH1 0x0 DUP4 ADD DUP5 PUSH2 0x26D3 JUMP JUMPDEST SWAP3 SWAP2 POP POP JUMP JUMPDEST PUSH1 0x0 DUP2 SWAP1 POP SWAP2 SWAP1 POP JUMP JUMPDEST PUSH2 0x2710 DUP2 PUSH2 0x26FD JUMP JUMPDEST DUP3 MSTORE POP POP JUMP JUMPDEST PUSH1 0x0 PUSH1 0x20 DUP3 ADD SWAP1 POP PUSH2 0x272B PUSH1 0x0 DUP4 ADD DUP5 PUSH2 0x2707 JUMP JUMPDEST SWAP3 SWAP2 POP POP JUMP JUMPDEST PUSH1 0x0 DUP2 SWAP1 POP SWAP2 SWAP1 POP JUMP JUMPDEST PUSH1 0x0 PUSH2 0x2756 PUSH2 0x2751 PUSH2 0x274C DUP5 PUSH2 0x259F JUMP JUMPDEST PUSH2 0x2731 JUMP JUMPDEST PUSH2 0x259F JUMP JUMPDEST SWAP1 POP SWAP2 SWAP1 POP JUMP JUMPDEST PUSH1 0x0 PUSH2 0x2768 DUP3 PUSH2 0x273B JUMP JUMPDEST SWAP1 POP SWAP2 SWAP1 POP JUMP JUMPDEST PUSH1 0x0 PUSH2 0x277A DUP3 PUSH2 0x275D JUMP JUMPDEST SWAP1 POP SWAP2 SWAP1 POP JUMP JUMPDEST PUSH2 0x278A DUP2 PUSH2 0x276F JUMP JUMPDEST DUP3 MSTORE POP POP JUMP JUMPDEST PUSH1 0x0 PUSH1 0x20 DUP3 ADD SWAP1 POP PUSH2 0x27A5 PUSH1 0x0 DUP4 ADD DUP5 PUSH2 0x2781 JUMP JUMPDEST SWAP3 SWAP2 POP POP JUMP JUMPDEST PUSH1 0x0 PUSH1 0x20 DUP3 DUP5 SUB SLT ISZERO PUSH2 0x27C1 JUMPI PUSH2 0x27C0 PUSH2 0x2541 JUMP JUMPDEST JUMPDEST PUSH1 0x0 PUSH2 0x27CF DUP5 DUP3 DUP6 ADD PUSH2 0x25E8 JUMP JUMPDEST SWAP2 POP POP SWAP3 SWAP2 POP POP JUMP JUMPDEST PUSH2 0x27E1 DUP2 PUSH2 0x25BF JUMP JUMPDEST DUP3 MSTORE POP POP JUMP JUMPDEST PUSH1 0x0 PUSH1 0x20 DUP3 ADD SWAP1 POP PUSH2 0x27FC PUSH1 0x0 DUP4 ADD DUP5 PUSH2 0x27D8 JUMP JUMPDEST SWAP3 SWAP2 POP POP JUMP JUMPDEST PUSH1 0x0 DUP1 PUSH1 0x40 DUP4 DUP6 SUB SLT ISZERO PUSH2 0x2819 JUMPI PUSH2 0x2818 PUSH2 0x2541 JUMP JUMPDEST JUMPDEST PUSH1 0x0 PUSH2 0x2827 DUP6 DUP3 DUP7 ADD PUSH2 0x255D JUMP JUMPDEST SWAP3 POP POP PUSH1 0x20 PUSH2 0x2838 DUP6 DUP3 DUP7 ADD PUSH2 0x25E8 JUMP JUMPDEST SWAP2 POP POP SWAP3 POP SWAP3 SWAP1 POP JUMP JUMPDEST PUSH1 0x0 DUP1 PUSH1 0x0 PUSH1 0x60 DUP5 DUP7 SUB SLT ISZERO PUSH2 0x285B JUMPI PUSH2 0x285A PUSH2 0x2541 JUMP JUMPDEST JUMPDEST PUSH1 0x0 PUSH2 0x2869 DUP7 DUP3 DUP8 ADD PUSH2 0x255D JUMP JUMPDEST SWAP4 POP POP PUSH1 0x20 PUSH2 0x287A DUP7 DUP3 DUP8 ADD PUSH2 0x25E8 JUMP JUMPDEST SWAP3 POP POP PUSH1 0x40 PUSH2 0x288B DUP7 DUP3 DUP8 ADD PUSH2 0x25E8 JUMP JUMPDEST SWAP2 POP POP SWAP3 POP SWAP3 POP SWAP3 JUMP JUMPDEST PUSH2 0x289E DUP2 PUSH2 0x26C6 JUMP JUMPDEST DUP2 EQ PUSH2 0x28A9 JUMPI PUSH1 0x0 DUP1 REVERT JUMPDEST POP JUMP JUMPDEST PUSH1 0x0 DUP2 CALLDATALOAD SWAP1 POP PUSH2 0x28BB DUP2 PUSH2 0x2895 JUMP JUMPDEST SWAP3 SWAP2 POP POP JUMP JUMPDEST PUSH2 0x28CA DUP2 PUSH2 0x26FD JUMP JUMPDEST DUP2 EQ PUSH2 0x28D5 JUMPI PUSH1 0x0 DUP1 REVERT JUMPDEST POP JUMP JUMPDEST PUSH1 0x0 DUP2 CALLDATALOAD SWAP1 POP PUSH2 0x28E7 DUP2 PUSH2 0x28C1 JUMP JUMPDEST SWAP3 SWAP2 POP POP JUMP JUMPDEST PUSH1 0x0 DUP1 PUSH1 0x0 DUP1 PUSH1 0x0 DUP1 PUSH1 0x0 PUSH1 0xE0 DUP9 DUP11 SUB SLT ISZERO PUSH2 0x290C JUMPI PUSH2 0x290B PUSH2 0x2541 JUMP JUMPDEST JUMPDEST PUSH1 0x0 PUSH2 0x291A DUP11 DUP3 DUP12 ADD PUSH2 0x25E8 JUMP JUMPDEST SWAP8 POP POP PUSH1 0x20 PUSH2 0x292B DUP11 DUP3 DUP12 ADD PUSH2 0x25E8 JUMP JUMPDEST SWAP7 POP POP PUSH1 0x40 PUSH2 0x293C DUP11 DUP3 DUP12 ADD PUSH2 0x255D JUMP JUMPDEST SWAP6 POP POP PUSH1 0x60 PUSH2 0x294D DUP11 DUP3 DUP12 ADD PUSH2 0x255D JUMP JUMPDEST SWAP5 POP POP PUSH1 0x80 PUSH2 0x295E DUP11 DUP3 DUP12 ADD PUSH2 0x28AC JUMP JUMPDEST SWAP4 POP POP PUSH1 0xA0 PUSH2 0x296F DUP11 DUP3 DUP12 ADD PUSH2 0x28D8 JUMP JUMPDEST SWAP3 POP POP PUSH1 0xC0 PUSH2 0x2980 DUP11 DUP3 DUP12 ADD PUSH2 0x28D8 JUMP JUMPDEST SWAP2 POP POP SWAP3 SWAP6 SWAP9 SWAP2 SWAP5 SWAP8 POP SWAP3 SWAP6 POP JUMP JUMPDEST PUSH1 0x0 DUP1 PUSH1 0x40 DUP4 DUP6 SUB SLT ISZERO PUSH2 0x29A6 JUMPI PUSH2 0x29A5 PUSH2 0x2541 JUMP JUMPDEST JUMPDEST PUSH1 0x0 PUSH2 0x29B4 DUP6 DUP3 DUP7 ADD PUSH2 0x25E8 JUMP JUMPDEST SWAP3 POP POP PUSH1 0x20 PUSH2 0x29C5 DUP6 DUP3 DUP7 ADD PUSH2 0x25E8 JUMP JUMPDEST SWAP2 POP POP SWAP3 POP SWAP3 SWAP1 POP JUMP JUMPDEST PUSH1 0x0 DUP2 MLOAD SWAP1 POP PUSH2 0x29DE DUP2 PUSH2 0x2546 JUMP JUMPDEST SWAP3 SWAP2 POP POP JUMP JUMPDEST PUSH1 0x0 PUSH1 0x20 DUP3 DUP5 SUB SLT ISZERO PUSH2 0x29FA JUMPI PUSH2 0x29F9 PUSH2 0x2541 JUMP JUMPDEST JUMPDEST PUSH1 0x0 PUSH2 0x2A08 DUP5 DUP3 DUP6 ADD PUSH2 0x29CF JUMP JUMPDEST SWAP2 POP POP SWAP3 SWAP2 POP POP JUMP JUMPDEST PUSH32 0x4E487B7100000000000000000000000000000000000000000000000000000000 PUSH1 0x0 MSTORE PUSH1 0x22 PUSH1 0x4 MSTORE PUSH1 0x24 PUSH1 0x0 REVERT JUMPDEST PUSH1 0x0 PUSH1 0x2 DUP3 DIV SWAP1 POP PUSH1 0x1 DUP3 AND DUP1 PUSH2 0x2A58 JUMPI PUSH1 0x7F DUP3 AND SWAP2 POP JUMPDEST PUSH1 0x20 DUP3 LT DUP2 EQ ISZERO PUSH2 0x2A6C JUMPI PUSH2 0x2A6B PUSH2 0x2A11 JUMP JUMPDEST JUMPDEST POP SWAP2 SWAP1 POP JUMP JUMPDEST PUSH32 0x4E487B7100000000000000000000000000000000000000000000000000000000 PUSH1 0x0 MSTORE PUSH1 0x11 PUSH1 0x4 MSTORE PUSH1 0x24 PUSH1 0x0 REVERT JUMPDEST PUSH1 0x0 PUSH2 0x2AAC DUP3 PUSH2 0x2452 JUMP JUMPDEST SWAP2 POP PUSH2 0x2AB7 DUP4 PUSH2 0x2452 JUMP JUMPDEST SWAP3 POP DUP3 DUP3 LT ISZERO PUSH2 0x2ACA JUMPI PUSH2 0x2AC9 PUSH2 0x2A72 JUMP JUMPDEST JUMPDEST DUP3 DUP3 SUB SWAP1 POP SWAP3 SWAP2 POP POP JUMP JUMPDEST PUSH32 0x5A45524F5F534841524553000000000000000000000000000000000000000000 PUSH1 0x0 DUP3 ADD MSTORE POP JUMP JUMPDEST PUSH1 0x0 PUSH2 0x2B0B PUSH1 0xB DUP4 PUSH2 0x2491 JUMP JUMPDEST SWAP2 POP PUSH2 0x2B16 DUP3 PUSH2 0x2AD5 JUMP JUMPDEST PUSH1 0x20 DUP3 ADD SWAP1 POP SWAP2 SWAP1 POP JUMP JUMPDEST PUSH1 0x0 PUSH1 0x20 DUP3 ADD SWAP1 POP DUP2 DUP2 SUB PUSH1 0x0 DUP4 ADD MSTORE PUSH2 0x2B3A DUP2 PUSH2 0x2AFE JUMP JUMPDEST SWAP1 POP SWAP2 SWAP1 POP JUMP JUMPDEST PUSH1 0x0 PUSH1 0x40 DUP3 ADD SWAP1 POP PUSH2 0x2B56 PUSH1 0x0 DUP4 ADD DUP6 PUSH2 0x245C JUMP JUMPDEST PUSH2 0x2B63 PUSH1 0x20 DUP4 ADD DUP5 PUSH2 0x245C JUMP JUMPDEST SWAP4 SWAP3 POP POP POP JUMP JUMPDEST PUSH32 0x4F776E61626C653A2063616C6C6572206973206E6F7420746865206D616E6167 PUSH1 0x0 DUP3 ADD MSTORE PUSH32 0x6572000000000000000000000000000000000000000000000000000000000000 PUSH1 0x20 DUP3 ADD MSTORE POP JUMP JUMPDEST PUSH1 0x0 PUSH2 0x2BC6 PUSH1 0x22 DUP4 PUSH2 0x2491 JUMP JUMPDEST SWAP2 POP PUSH2 0x2BD1 DUP3 PUSH2 0x2B6A JUMP JUMPDEST PUSH1 0x40 DUP3 ADD SWAP1 POP SWAP2 SWAP1 POP JUMP JUMPDEST PUSH1 0x0 PUSH1 0x20 DUP3 ADD SWAP1 POP DUP2 DUP2 SUB PUSH1 0x0 DUP4 ADD MSTORE PUSH2 0x2BF5 DUP2 PUSH2 0x2BB9 JUMP JUMPDEST SWAP1 POP SWAP2 SWAP1 POP JUMP JUMPDEST PUSH32 0x4645455F544F4F5F484947480000000000000000000000000000000000000000 PUSH1 0x0 DUP3 ADD MSTORE POP JUMP JUMPDEST PUSH1 0x0 PUSH2 0x2C32 PUSH1 0xC DUP4 PUSH2 0x2491 JUMP JUMPDEST SWAP2 POP PUSH2 0x2C3D DUP3 PUSH2 0x2BFC JUMP JUMPDEST PUSH1 0x20 DUP3 ADD SWAP1 POP SWAP2 SWAP1 POP JUMP JUMPDEST PUSH1 0x0 PUSH1 0x20 DUP3 ADD SWAP1 POP DUP2 DUP2 SUB PUSH1 0x0 DUP4 ADD MSTORE PUSH2 0x2C61 DUP2 PUSH2 0x2C25 JUMP JUMPDEST SWAP1 POP SWAP2 SWAP1 POP JUMP JUMPDEST PUSH1 0x0 PUSH1 0x40 DUP3 ADD SWAP1 POP PUSH2 0x2C7D PUSH1 0x0 DUP4 ADD DUP6 PUSH2 0x27D8 JUMP JUMPDEST PUSH2 0x2C8A PUSH1 0x20 DUP4 ADD DUP5 PUSH2 0x245C JUMP JUMPDEST SWAP4 SWAP3 POP POP POP JUMP JUMPDEST PUSH2 0x2C9A DUP2 PUSH2 0x263D JUMP JUMPDEST DUP2 EQ PUSH2 0x2CA5 JUMPI PUSH1 0x0 DUP1 REVERT JUMPDEST POP JUMP JUMPDEST PUSH1 0x0 DUP2 MLOAD SWAP1 POP PUSH2 0x2CB7 DUP2 PUSH2 0x2C91 JUMP JUMPDEST SWAP3 SWAP2 POP POP JUMP JUMPDEST PUSH1 0x0 PUSH1 0x20 DUP3 DUP5 SUB SLT ISZERO PUSH2 0x2CD3 JUMPI PUSH2 0x2CD2 PUSH2 0x2541 JUMP JUMPDEST JUMPDEST PUSH1 0x0 PUSH2 0x2CE1 DUP5 DUP3 DUP6 ADD PUSH2 0x2CA8 JUMP JUMPDEST SWAP2 POP POP SWAP3 SWAP2 POP POP JUMP JUMPDEST PUSH32 0x5A45524F5F415353455453000000000000000000000000000000000000000000 PUSH1 0x0 DUP3 ADD MSTORE POP JUMP JUMPDEST PUSH1 0x0 PUSH2 0x2D20 PUSH1 0xB DUP4 PUSH2 0x2491 JUMP JUMPDEST SWAP2 POP PUSH2 0x2D2B DUP3 PUSH2 0x2CEA JUMP JUMPDEST PUSH1 0x20 DUP3 ADD SWAP1 POP SWAP2 SWAP1 POP JUMP JUMPDEST PUSH1 0x0 PUSH1 0x20 DUP3 ADD SWAP1 POP DUP2 DUP2 SUB PUSH1 0x0 DUP4 ADD MSTORE PUSH2 0x2D4F DUP2 PUSH2 0x2D13 JUMP JUMPDEST SWAP1 POP SWAP2 SWAP1 POP JUMP JUMPDEST PUSH32 0x5045524D49545F444541444C494E455F45585049524544000000000000000000 PUSH1 0x0 DUP3 ADD MSTORE POP JUMP JUMPDEST PUSH1 0x0 PUSH2 0x2D8C PUSH1 0x17 DUP4 PUSH2 0x2491 JUMP JUMPDEST SWAP2 POP PUSH2 0x2D97 DUP3 PUSH2 0x2D56 JUMP JUMPDEST PUSH1 0x20 DUP3 ADD SWAP1 POP SWAP2 SWAP1 POP JUMP JUMPDEST PUSH1 0x0 PUSH1 0x20 DUP3 ADD SWAP1 POP DUP2 DUP2 SUB PUSH1 0x0 DUP4 ADD MSTORE PUSH2 0x2DBB DUP2 PUSH2 0x2D7F JUMP JUMPDEST SWAP1 POP SWAP2 SWAP1 POP JUMP JUMPDEST PUSH1 0x0 PUSH1 0xC0 DUP3 ADD SWAP1 POP PUSH2 0x2DD7 PUSH1 0x0 DUP4 ADD DUP10 PUSH2 0x2707 JUMP JUMPDEST PUSH2 0x2DE4 PUSH1 0x20 DUP4 ADD DUP9 PUSH2 0x27D8 JUMP JUMPDEST PUSH2 0x2DF1 PUSH1 0x40 DUP4 ADD DUP8 PUSH2 0x27D8 JUMP JUMPDEST PUSH2 0x2DFE PUSH1 0x60 DUP4 ADD DUP7 PUSH2 0x245C JUMP JUMPDEST PUSH2 0x2E0B PUSH1 0x80 DUP4 ADD DUP6 PUSH2 0x245C JUMP JUMPDEST PUSH2 0x2E18 PUSH1 0xA0 DUP4 ADD DUP5 PUSH2 0x245C JUMP JUMPDEST SWAP8 SWAP7 POP POP POP POP POP POP POP JUMP JUMPDEST PUSH1 0x0 DUP2 SWAP1 POP SWAP3 SWAP2 POP POP JUMP JUMPDEST PUSH32 0x1901000000000000000000000000000000000000000000000000000000000000 PUSH1 0x0 DUP3 ADD MSTORE POP JUMP JUMPDEST PUSH1 0x0 PUSH2 0x2E64 PUSH1 0x2 DUP4 PUSH2 0x2E23 JUMP JUMPDEST SWAP2 POP PUSH2 0x2E6F DUP3 PUSH2 0x2E2E JUMP JUMPDEST PUSH1 0x2 DUP3 ADD SWAP1 POP SWAP2 SWAP1 POP JUMP JUMPDEST PUSH1 0x0 DUP2 SWAP1 POP SWAP2 SWAP1 POP JUMP JUMPDEST PUSH2 0x2E95 PUSH2 0x2E90 DUP3 PUSH2 0x26FD JUMP JUMPDEST PUSH2 0x2E7A JUMP JUMPDEST DUP3 MSTORE POP POP JUMP JUMPDEST PUSH1 0x0 PUSH2 0x2EA6 DUP3 PUSH2 0x2E57 JUMP JUMPDEST SWAP2 POP PUSH2 0x2EB2 DUP3 DUP6 PUSH2 0x2E84 JUMP JUMPDEST PUSH1 0x20 DUP3 ADD SWAP2 POP PUSH2 0x2EC2 DUP3 DUP5 PUSH2 0x2E84 JUMP JUMPDEST PUSH1 0x20 DUP3 ADD SWAP2 POP DUP2 SWAP1 POP SWAP4 SWAP3 POP POP POP JUMP JUMPDEST PUSH1 0x0 PUSH1 0x80 DUP3 ADD SWAP1 POP PUSH2 0x2EE7 PUSH1 0x0 DUP4 ADD DUP8 PUSH2 0x2707 JUMP JUMPDEST PUSH2 0x2EF4 PUSH1 0x20 DUP4 ADD DUP7 PUSH2 0x26D3 JUMP JUMPDEST PUSH2 0x2F01 PUSH1 0x40 DUP4 ADD DUP6 PUSH2 0x2707 JUMP JUMPDEST PUSH2 0x2F0E PUSH1 0x60 DUP4 ADD DUP5 PUSH2 0x2707 JUMP JUMPDEST SWAP6 SWAP5 POP POP POP POP POP JUMP JUMPDEST PUSH32 0x494E56414C49445F5349474E4552000000000000000000000000000000000000 PUSH1 0x0 DUP3 ADD MSTORE POP JUMP JUMPDEST PUSH1 0x0 PUSH2 0x2F4D PUSH1 0xE DUP4 PUSH2 0x2491 JUMP JUMPDEST SWAP2 POP PUSH2 0x2F58 DUP3 PUSH2 0x2F17 JUMP JUMPDEST PUSH1 0x20 DUP3 ADD SWAP1 POP SWAP2 SWAP1 POP JUMP JUMPDEST PUSH1 0x0 PUSH1 0x20 DUP3 ADD SWAP1 POP DUP2 DUP2 SUB PUSH1 0x0 DUP4 ADD MSTORE PUSH2 0x2F7C DUP2 PUSH2 0x2F40 JUMP JUMPDEST SWAP1 POP SWAP2 SWAP1 POP JUMP JUMPDEST PUSH32 0x4F776E61626C653A206E6577206D616E6167657220697320746865207A65726F PUSH1 0x0 DUP3 ADD MSTORE PUSH32 0x2061646472657373000000000000000000000000000000000000000000000000 PUSH1 0x20 DUP3 ADD MSTORE POP JUMP JUMPDEST PUSH1 0x0 PUSH2 0x2FDF PUSH1 0x28 DUP4 PUSH2 0x2491 JUMP JUMPDEST SWAP2 POP PUSH2 0x2FEA DUP3 PUSH2 0x2F83 JUMP JUMPDEST PUSH1 0x40 DUP3 ADD SWAP1 POP SWAP2 SWAP1 POP JUMP JUMPDEST PUSH1 0x0 PUSH1 0x20 DUP3 ADD SWAP1 POP DUP2 DUP2 SUB PUSH1 0x0 DUP4 ADD MSTORE PUSH2 0x300E DUP2 PUSH2 0x2FD2 JUMP JUMPDEST SWAP1 POP SWAP2 SWAP1 POP JUMP JUMPDEST PUSH1 0x0 DUP2 SWAP1 POP SWAP3 SWAP2 POP POP JUMP JUMPDEST PUSH1 0x0 DUP2 SWAP1 POP DUP2 PUSH1 0x0 MSTORE PUSH1 0x20 PUSH1 0x0 KECCAK256 SWAP1 POP SWAP2 SWAP1 POP JUMP JUMPDEST PUSH1 0x0 DUP2 SLOAD PUSH2 0x3042 DUP2 PUSH2 0x2A40 JUMP JUMPDEST PUSH2 0x304C DUP2 DUP7 PUSH2 0x3015 JUMP JUMPDEST SWAP5 POP PUSH1 0x1 DUP3 AND PUSH1 0x0 DUP2 EQ PUSH2 0x3067 JUMPI PUSH1 0x1 DUP2 EQ PUSH2 0x3078 JUMPI PUSH2 0x30AB JUMP JUMPDEST PUSH1 0xFF NOT DUP4 AND DUP7 MSTORE DUP2 DUP7 ADD SWAP4 POP PUSH2 0x30AB JUMP JUMPDEST PUSH2 0x3081 DUP6 PUSH2 0x3020 JUMP JUMPDEST PUSH1 0x0 JUMPDEST DUP4 DUP2 LT ISZERO PUSH2 0x30A3 JUMPI DUP2 SLOAD DUP2 DUP10 ADD MSTORE PUSH1 0x1 DUP3 ADD SWAP2 POP PUSH1 0x20 DUP2 ADD SWAP1 POP PUSH2 0x3084 JUMP JUMPDEST DUP4 DUP9 ADD SWAP6 POP POP POP JUMPDEST POP POP POP SWAP3 SWAP2 POP POP JUMP JUMPDEST PUSH1 0x0 PUSH2 0x30C0 DUP3 DUP5 PUSH2 0x3035 JUMP JUMPDEST SWAP2 POP DUP2 SWAP1 POP SWAP3 SWAP2 POP POP JUMP JUMPDEST PUSH1 0x0 PUSH1 0xA0 DUP3 ADD SWAP1 POP PUSH2 0x30E0 PUSH1 0x0 DUP4 ADD DUP9 PUSH2 0x2707 JUMP JUMPDEST PUSH2 0x30ED PUSH1 0x20 DUP4 ADD DUP8 PUSH2 0x2707 JUMP JUMPDEST PUSH2 0x30FA PUSH1 0x40 DUP4 ADD DUP7 PUSH2 0x2707 JUMP JUMPDEST PUSH2 0x3107 PUSH1 0x60 DUP4 ADD DUP6 PUSH2 0x245C JUMP JUMPDEST PUSH2 0x3114 PUSH1 0x80 DUP4 ADD DUP5 PUSH2 0x27D8 JUMP JUMPDEST SWAP7 SWAP6 POP POP POP POP POP POP JUMP JUMPDEST PUSH32 0x5452414E534645525F46524F4D5F4641494C4544000000000000000000000000 PUSH1 0x0 DUP3 ADD MSTORE POP JUMP JUMPDEST PUSH1 0x0 PUSH2 0x3154 PUSH1 0x14 DUP4 PUSH2 0x2491 JUMP JUMPDEST SWAP2 POP PUSH2 0x315F DUP3 PUSH2 0x311E JUMP JUMPDEST PUSH1 0x20 DUP3 ADD SWAP1 POP SWAP2 SWAP1 POP JUMP JUMPDEST PUSH1 0x0 PUSH1 0x20 DUP3 ADD SWAP1 POP DUP2 DUP2 SUB PUSH1 0x0 DUP4 ADD MSTORE PUSH2 0x3183 DUP2 PUSH2 0x3147 JUMP JUMPDEST SWAP1 POP SWAP2 SWAP1 POP JUMP JUMPDEST PUSH1 0x0 PUSH2 0x3195 DUP3 PUSH2 0x2452 JUMP JUMPDEST SWAP2 POP PUSH2 0x31A0 DUP4 PUSH2 0x2452 JUMP JUMPDEST SWAP3 POP DUP3 PUSH32 0xFFFFFFFFFFFFFFFFFFFFFFFFFFFFFFFFFFFFFFFFFFFFFFFFFFFFFFFFFFFFFFFF SUB DUP3 GT ISZERO PUSH2 0x31D5 JUMPI PUSH2 0x31D4 PUSH2 0x2A72 JUMP JUMPDEST JUMPDEST DUP3 DUP3 ADD SWAP1 POP SWAP3 SWAP2 POP POP JUMP JUMPDEST PUSH1 0x0 PUSH2 0x31EB DUP3 PUSH2 0x2452 JUMP JUMPDEST SWAP2 POP PUSH32 0xFFFFFFFFFFFFFFFFFFFFFFFFFFFFFFFFFFFFFFFFFFFFFFFFFFFFFFFFFFFFFFFF DUP3 EQ ISZERO PUSH2 0x321E JUMPI PUSH2 0x321D PUSH2 0x2A72 JUMP JUMPDEST JUMPDEST PUSH1 0x1 DUP3 ADD SWAP1 POP SWAP2 SWAP1 POP JUMP JUMPDEST PUSH32 0x5452414E534645525F4641494C45440000000000000000000000000000000000 PUSH1 0x0 DUP3 ADD MSTORE POP JUMP JUMPDEST PUSH1 0x0 PUSH2 0x325F PUSH1 0xF DUP4 PUSH2 0x2491 JUMP JUMPDEST SWAP2 POP PUSH2 0x326A DUP3 PUSH2 0x3229 JUMP JUMPDEST PUSH1 0x20 DUP3 ADD SWAP1 POP SWAP2 SWAP1 POP JUMP JUMPDEST PUSH1 0x0 PUSH1 0x20 DUP3 ADD SWAP1 POP DUP2 DUP2 SUB PUSH1 0x0 DUP4 ADD MSTORE PUSH2 0x328E DUP2 PUSH2 0x3252 JUMP JUMPDEST SWAP1 POP SWAP2 SWAP1 POP JUMP INVALID LOG2 PUSH5 0x6970667358 0x22 SLT KECCAK256 DUP4 0xAD 0x26 PUSH4 0x489821B3 DUP12 0x4A 0x23 SAR SWAP10 SWAP16 SWAP7 0xAD 0xF8 0x28 PC GT 0xBF PUSH13 0xF00B223295EF02666E2A64736F PUSH13 0x634300080A0033000000000000 "
				},
				"gasEstimates": {
					"creation": {
						"codeDepositCost": "2600600",
						"executionCost": "infinite",
						"totalCost": "infinite"
					},
					"external": {
						"DOMAIN_SEPARATOR()": "infinite",
						"UNDERLYING()": "infinite",
						"afterDepositHookCalledCounter()": "2561",
						"allowance(address,address)": "infinite",
						"approve(address,uint256)": "infinite",
						"asset()": "infinite",
						"balanceOf(address)": "2881",
						"beforeWithdrawHookCalledCounter()": "2562",
						"claimFees(uint256)": "infinite",
						"convertToAssets(uint256)": "infinite",
						"convertToShares(uint256)": "infinite",
						"decimals()": "infinite",
						"deposit(uint256,address)": "infinite",
						"feePercent()": "2475",
						"manager()": "2612",
						"maxDeposit(address)": "719",
						"maxMint(address)": "718",
						"maxRedeem(address)": "2885",
						"maxWithdraw(address)": "infinite",
						"mint(uint256,address)": "infinite",
						"name()": "infinite",
						"nonces(address)": "2947",
						"permit(address,address,uint256,uint256,uint8,bytes32,bytes32)": "infinite",
						"previewDeposit(uint256)": "infinite",
						"previewMint(uint256)": "infinite",
						"previewRedeem(uint256)": "infinite",
						"previewWithdraw(uint256)": "infinite",
						"redeem(uint256,address,address)": "infinite",
						"renounceOwnership()": "30386",
						"setFeePercent(uint256)": "infinite",
						"symbol()": "infinite",
						"totalAssets()": "infinite",
						"totalSupply()": "2497",
						"transfer(address,uint256)": "infinite",
						"transferFrom(address,address,uint256)": "infinite",
						"transferOwnership(address)": "30756",
						"withdraw(uint256,address,address)": "infinite"
					},
					"internal": {
						"afterDeposit(uint256,uint256)": "24373",
						"beforeWithdraw(uint256,uint256)": "24373",
						"strategyACall(address,uint256,uint160)": "infinite"
					}
				},
				"methodIdentifiers": {
					"DOMAIN_SEPARATOR()": "3644e515",
					"UNDERLYING()": "c5d664c6",
					"afterDepositHookCalledCounter()": "fc407ae7",
					"allowance(address,address)": "dd62ed3e",
					"approve(address,uint256)": "095ea7b3",
					"asset()": "38d52e0f",
					"balanceOf(address)": "70a08231",
					"beforeWithdrawHookCalledCounter()": "bc368a8a",
					"claimFees(uint256)": "ac68a748",
					"convertToAssets(uint256)": "07a2d13a",
					"convertToShares(uint256)": "c6e6f592",
					"decimals()": "313ce567",
					"deposit(uint256,address)": "6e553f65",
					"feePercent()": "7fd6f15c",
					"manager()": "481c6a75",
					"maxDeposit(address)": "402d267d",
					"maxMint(address)": "c63d75b6",
					"maxRedeem(address)": "d905777e",
					"maxWithdraw(address)": "ce96cb77",
					"mint(uint256,address)": "94bf804d",
					"name()": "06fdde03",
					"nonces(address)": "7ecebe00",
					"permit(address,address,uint256,uint256,uint8,bytes32,bytes32)": "d505accf",
					"previewDeposit(uint256)": "ef8b30f7",
					"previewMint(uint256)": "b3d7f6b9",
					"previewRedeem(uint256)": "4cdad506",
					"previewWithdraw(uint256)": "0a28a477",
					"redeem(uint256,address,address)": "ba087652",
					"renounceOwnership()": "715018a6",
					"setFeePercent(uint256)": "7ce3489b",
					"symbol()": "95d89b41",
					"totalAssets()": "01e1d114",
					"totalSupply()": "18160ddd",
					"transfer(address,uint256)": "a9059cbb",
					"transferFrom(address,address,uint256)": "23b872dd",
					"transferOwnership(address)": "f2fde38b",
					"withdraw(uint256,address,address)": "b460af94"
				}
			},
			"storageLayout": {
				"storage": [
					{
						"astId": 20,
						"contract": "SquiddyCore.sol:SquiddyCore",
						"label": "name",
						"offset": 0,
						"slot": "0",
						"type": "t_string_storage"
					},
					{
						"astId": 22,
						"contract": "SquiddyCore.sol:SquiddyCore",
						"label": "symbol",
						"offset": 0,
						"slot": "1",
						"type": "t_string_storage"
					},
					{
						"astId": 26,
						"contract": "SquiddyCore.sol:SquiddyCore",
						"label": "totalSupply",
						"offset": 0,
						"slot": "2",
						"type": "t_uint256"
					},
					{
						"astId": 30,
						"contract": "SquiddyCore.sol:SquiddyCore",
						"label": "balanceOf",
						"offset": 0,
						"slot": "3",
						"type": "t_mapping(t_address,t_uint256)"
					},
					{
						"astId": 36,
						"contract": "SquiddyCore.sol:SquiddyCore",
						"label": "allowance",
						"offset": 0,
						"slot": "4",
						"type": "t_mapping(t_address,t_mapping(t_address,t_uint256))"
					},
					{
						"astId": 44,
						"contract": "SquiddyCore.sol:SquiddyCore",
						"label": "nonces",
						"offset": 0,
						"slot": "5",
						"type": "t_mapping(t_address,t_uint256)"
					},
					{
						"astId": 1122,
						"contract": "SquiddyCore.sol:SquiddyCore",
						"label": "_manager",
						"offset": 0,
						"slot": "6",
						"type": "t_address"
					},
					{
						"astId": 1125,
						"contract": "SquiddyCore.sol:SquiddyCore",
						"label": "beforeWithdrawHookCalledCounter",
						"offset": 0,
						"slot": "7",
						"type": "t_uint256"
					},
					{
						"astId": 1128,
						"contract": "SquiddyCore.sol:SquiddyCore",
						"label": "afterDepositHookCalledCounter",
						"offset": 0,
						"slot": "8",
						"type": "t_uint256"
					},
					{
						"astId": 1345,
						"contract": "SquiddyCore.sol:SquiddyCore",
						"label": "feePercent",
						"offset": 0,
						"slot": "9",
						"type": "t_uint256"
					}
				],
				"types": {
					"t_address": {
						"encoding": "inplace",
						"label": "address",
						"numberOfBytes": "20"
					},
					"t_mapping(t_address,t_mapping(t_address,t_uint256))": {
						"encoding": "mapping",
						"key": "t_address",
						"label": "mapping(address => mapping(address => uint256))",
						"numberOfBytes": "32",
						"value": "t_mapping(t_address,t_uint256)"
					},
					"t_mapping(t_address,t_uint256)": {
						"encoding": "mapping",
						"key": "t_address",
						"label": "mapping(address => uint256)",
						"numberOfBytes": "32",
						"value": "t_uint256"
					},
					"t_string_storage": {
						"encoding": "bytes",
						"label": "string",
						"numberOfBytes": "32"
					},
					"t_uint256": {
						"encoding": "inplace",
						"label": "uint256",
						"numberOfBytes": "32"
					}
				}
			},
			"userdoc": {
				"events": {
					"FeePercentUpdated(address,uint256)": {
						"notice": "Emitted when the fee percentage is updated."
					},
					"FeesClaimed(address,uint256)": {
						"notice": "Emitted after fees are claimed."
					}
				},
				"kind": "user",
				"methods": {
					"claimFees(uint256)": {
						"notice": "Claims fees accrued from harvests."
					},
					"feePercent()": {
						"notice": "The percentage of profit recognized each harvest to reserve as fees."
					},
					"setFeePercent(uint256)": {
						"notice": "Sets a new fee percentage."
					}
				},
				"version": 1
			}
		}
	}
}