{
	"SquiddyCore.sol": {
		"SquiddyCore": {
			"abi": [
				{
					"inputs": [
						{
							"internalType": "contract ERC20",
							"name": "_underlying",
							"type": "address"
						},
						{
							"internalType": "string",
							"name": "_name",
							"type": "string"
						},
						{
							"internalType": "string",
							"name": "_symbol",
							"type": "string"
						},
						{
							"internalType": "uint8",
							"name": "_decimals",
							"type": "uint8"
						}
					],
					"stateMutability": "nonpayable",
					"type": "constructor"
				},
				{
					"anonymous": false,
					"inputs": [
						{
							"indexed": true,
							"internalType": "address",
							"name": "owner",
							"type": "address"
						},
						{
							"indexed": true,
							"internalType": "address",
							"name": "spender",
							"type": "address"
						},
						{
							"indexed": false,
							"internalType": "uint256",
							"name": "amount",
							"type": "uint256"
						}
					],
					"name": "Approval",
					"type": "event"
				},
				{
					"anonymous": false,
					"inputs": [
						{
							"indexed": true,
							"internalType": "address",
							"name": "caller",
							"type": "address"
						},
						{
							"indexed": true,
							"internalType": "address",
							"name": "owner",
							"type": "address"
						},
						{
							"indexed": false,
							"internalType": "uint256",
							"name": "assets",
							"type": "uint256"
						},
						{
							"indexed": false,
							"internalType": "uint256",
							"name": "shares",
							"type": "uint256"
						}
					],
					"name": "Deposit",
					"type": "event"
				},
				{
					"anonymous": false,
					"inputs": [
						{
							"indexed": true,
							"internalType": "address",
							"name": "user",
							"type": "address"
						},
						{
							"indexed": false,
							"internalType": "uint256",
							"name": "newFeePercent",
							"type": "uint256"
						}
					],
					"name": "FeePercentUpdated",
					"type": "event"
				},
				{
					"anonymous": false,
					"inputs": [
						{
							"indexed": true,
							"internalType": "address",
							"name": "vault",
							"type": "address"
						},
						{
							"indexed": false,
							"internalType": "uint256",
							"name": "profitOverLoss",
							"type": "uint256"
						}
					],
					"name": "HarvestStrategyA",
					"type": "event"
				},
				{
					"anonymous": false,
					"inputs": [
						{
							"indexed": true,
							"internalType": "address",
							"name": "vault",
							"type": "address"
						},
						{
							"indexed": false,
							"internalType": "uint256",
							"name": "profitOverLoss",
							"type": "uint256"
						}
					],
					"name": "HarvestStrategyB",
					"type": "event"
				},
				{
					"anonymous": false,
					"inputs": [
						{
							"indexed": true,
							"internalType": "address",
							"name": "previousManager",
							"type": "address"
						},
						{
							"indexed": true,
							"internalType": "address",
							"name": "newManager",
							"type": "address"
						}
					],
					"name": "OwnershipTransferred",
					"type": "event"
				},
				{
					"anonymous": false,
					"inputs": [
						{
							"indexed": true,
							"internalType": "address",
							"name": "searcher",
							"type": "address"
						},
						{
							"indexed": true,
							"internalType": "address",
							"name": "vault",
							"type": "address"
						},
						{
							"indexed": false,
							"internalType": "uint256",
							"name": "value",
							"type": "uint256"
						},
						{
							"indexed": false,
							"internalType": "uint256",
							"name": "duration",
							"type": "uint256"
						}
					],
					"name": "StrategyAInitilized",
					"type": "event"
				},
				{
					"anonymous": false,
					"inputs": [
						{
							"indexed": true,
							"internalType": "address",
							"name": "stakePoolContract",
							"type": "address"
						},
						{
							"indexed": true,
							"internalType": "address",
							"name": "vault",
							"type": "address"
						},
						{
							"indexed": false,
							"internalType": "uint256",
							"name": "value",
							"type": "uint256"
						},
						{
							"indexed": false,
							"internalType": "uint256",
							"name": "duration",
							"type": "uint256"
						}
					],
					"name": "StrategyBInitilized",
					"type": "event"
				},
				{
					"anonymous": false,
					"inputs": [
						{
							"indexed": true,
							"internalType": "address",
							"name": "from",
							"type": "address"
						},
						{
							"indexed": true,
							"internalType": "address",
							"name": "to",
							"type": "address"
						},
						{
							"indexed": false,
							"internalType": "uint256",
							"name": "amount",
							"type": "uint256"
						}
					],
					"name": "Transfer",
					"type": "event"
				},
				{
					"anonymous": false,
					"inputs": [
						{
							"indexed": true,
							"internalType": "address",
							"name": "caller",
							"type": "address"
						},
						{
							"indexed": true,
							"internalType": "address",
							"name": "receiver",
							"type": "address"
						},
						{
							"indexed": true,
							"internalType": "address",
							"name": "owner",
							"type": "address"
						},
						{
							"indexed": false,
							"internalType": "uint256",
							"name": "assets",
							"type": "uint256"
						},
						{
							"indexed": false,
							"internalType": "uint256",
							"name": "shares",
							"type": "uint256"
						}
					],
					"name": "Withdraw",
					"type": "event"
				},
				{
					"inputs": [],
					"name": "DOMAIN_SEPARATOR",
					"outputs": [
						{
							"internalType": "bytes32",
							"name": "",
							"type": "bytes32"
						}
					],
					"stateMutability": "view",
					"type": "function"
				},
				{
					"inputs": [],
					"name": "afterDepositHookCalledCounter",
					"outputs": [
						{
							"internalType": "uint256",
							"name": "",
							"type": "uint256"
						}
					],
					"stateMutability": "view",
					"type": "function"
				},
				{
					"inputs": [
						{
							"internalType": "address",
							"name": "",
							"type": "address"
						},
						{
							"internalType": "address",
							"name": "",
							"type": "address"
						}
					],
					"name": "allowance",
					"outputs": [
						{
							"internalType": "uint256",
							"name": "",
							"type": "uint256"
						}
					],
					"stateMutability": "view",
					"type": "function"
				},
				{
					"inputs": [
						{
							"internalType": "address",
							"name": "spender",
							"type": "address"
						},
						{
							"internalType": "uint256",
							"name": "amount",
							"type": "uint256"
						}
					],
					"name": "approve",
					"outputs": [
						{
							"internalType": "bool",
							"name": "",
							"type": "bool"
						}
					],
					"stateMutability": "nonpayable",
					"type": "function"
				},
				{
					"inputs": [],
					"name": "asset",
					"outputs": [
						{
							"internalType": "contract ERC20",
							"name": "",
							"type": "address"
						}
					],
					"stateMutability": "view",
					"type": "function"
				},
				{
					"inputs": [
						{
							"internalType": "address",
							"name": "",
							"type": "address"
						}
					],
					"name": "balanceOf",
					"outputs": [
						{
							"internalType": "uint256",
							"name": "",
							"type": "uint256"
						}
					],
					"stateMutability": "view",
					"type": "function"
				},
				{
					"inputs": [],
					"name": "beforeWithdrawHookCalledCounter",
					"outputs": [
						{
							"internalType": "uint256",
							"name": "",
							"type": "uint256"
						}
					],
					"stateMutability": "view",
					"type": "function"
				},
				{
					"inputs": [
						{
							"internalType": "uint256",
							"name": "shares",
							"type": "uint256"
						}
					],
					"name": "convertToAssets",
					"outputs": [
						{
							"internalType": "uint256",
							"name": "",
							"type": "uint256"
						}
					],
					"stateMutability": "view",
					"type": "function"
				},
				{
					"inputs": [
						{
							"internalType": "uint256",
							"name": "assets",
							"type": "uint256"
						}
					],
					"name": "convertToShares",
					"outputs": [
						{
							"internalType": "uint256",
							"name": "",
							"type": "uint256"
						}
					],
					"stateMutability": "view",
					"type": "function"
				},
				{
					"inputs": [],
					"name": "decimals",
					"outputs": [
						{
							"internalType": "uint8",
							"name": "",
							"type": "uint8"
						}
					],
					"stateMutability": "view",
					"type": "function"
				},
				{
					"inputs": [
						{
							"internalType": "uint256",
							"name": "assets",
							"type": "uint256"
						},
						{
							"internalType": "address",
							"name": "receiver",
							"type": "address"
						}
					],
					"name": "deposit",
					"outputs": [
						{
							"internalType": "uint256",
							"name": "shares",
							"type": "uint256"
						}
					],
					"stateMutability": "nonpayable",
					"type": "function"
				},
				{
					"inputs": [],
					"name": "feePercent",
					"outputs": [
						{
							"internalType": "uint256",
							"name": "",
							"type": "uint256"
						}
					],
					"stateMutability": "view",
					"type": "function"
				},
				{
					"inputs": [],
					"name": "manager",
					"outputs": [
						{
							"internalType": "address",
							"name": "",
							"type": "address"
						}
					],
					"stateMutability": "view",
					"type": "function"
				},
				{
					"inputs": [
						{
							"internalType": "address",
							"name": "",
							"type": "address"
						}
					],
					"name": "maxDeposit",
					"outputs": [
						{
							"internalType": "uint256",
							"name": "",
							"type": "uint256"
						}
					],
					"stateMutability": "view",
					"type": "function"
				},
				{
					"inputs": [
						{
							"internalType": "address",
							"name": "",
							"type": "address"
						}
					],
					"name": "maxMint",
					"outputs": [
						{
							"internalType": "uint256",
							"name": "",
							"type": "uint256"
						}
					],
					"stateMutability": "view",
					"type": "function"
				},
				{
					"inputs": [
						{
							"internalType": "address",
							"name": "owner",
							"type": "address"
						}
					],
					"name": "maxRedeem",
					"outputs": [
						{
							"internalType": "uint256",
							"name": "",
							"type": "uint256"
						}
					],
					"stateMutability": "view",
					"type": "function"
				},
				{
					"inputs": [
						{
							"internalType": "address",
							"name": "owner",
							"type": "address"
						}
					],
					"name": "maxWithdraw",
					"outputs": [
						{
							"internalType": "uint256",
							"name": "",
							"type": "uint256"
						}
					],
					"stateMutability": "view",
					"type": "function"
				},
				{
					"inputs": [
						{
							"internalType": "uint256",
							"name": "shares",
							"type": "uint256"
						},
						{
							"internalType": "address",
							"name": "receiver",
							"type": "address"
						}
					],
					"name": "mint",
					"outputs": [
						{
							"internalType": "uint256",
							"name": "assets",
							"type": "uint256"
						}
					],
					"stateMutability": "nonpayable",
					"type": "function"
				},
				{
					"inputs": [],
					"name": "name",
					"outputs": [
						{
							"internalType": "string",
							"name": "",
							"type": "string"
						}
					],
					"stateMutability": "view",
					"type": "function"
				},
				{
					"inputs": [
						{
							"internalType": "address",
							"name": "",
							"type": "address"
						}
					],
					"name": "nonces",
					"outputs": [
						{
							"internalType": "uint256",
							"name": "",
							"type": "uint256"
						}
					],
					"stateMutability": "view",
					"type": "function"
				},
				{
					"inputs": [
						{
							"internalType": "address",
							"name": "owner",
							"type": "address"
						},
						{
							"internalType": "address",
							"name": "spender",
							"type": "address"
						},
						{
							"internalType": "uint256",
							"name": "value",
							"type": "uint256"
						},
						{
							"internalType": "uint256",
							"name": "deadline",
							"type": "uint256"
						},
						{
							"internalType": "uint8",
							"name": "v",
							"type": "uint8"
						},
						{
							"internalType": "bytes32",
							"name": "r",
							"type": "bytes32"
						},
						{
							"internalType": "bytes32",
							"name": "s",
							"type": "bytes32"
						}
					],
					"name": "permit",
					"outputs": [],
					"stateMutability": "nonpayable",
					"type": "function"
				},
				{
					"inputs": [
						{
							"internalType": "uint256",
							"name": "assets",
							"type": "uint256"
						}
					],
					"name": "previewDeposit",
					"outputs": [
						{
							"internalType": "uint256",
							"name": "",
							"type": "uint256"
						}
					],
					"stateMutability": "view",
					"type": "function"
				},
				{
					"inputs": [
						{
							"internalType": "uint256",
							"name": "shares",
							"type": "uint256"
						}
					],
					"name": "previewMint",
					"outputs": [
						{
							"internalType": "uint256",
							"name": "",
							"type": "uint256"
						}
					],
					"stateMutability": "view",
					"type": "function"
				},
				{
					"inputs": [
						{
							"internalType": "uint256",
							"name": "shares",
							"type": "uint256"
						}
					],
					"name": "previewRedeem",
					"outputs": [
						{
							"internalType": "uint256",
							"name": "",
							"type": "uint256"
						}
					],
					"stateMutability": "view",
					"type": "function"
				},
				{
					"inputs": [
						{
							"internalType": "uint256",
							"name": "assets",
							"type": "uint256"
						}
					],
					"name": "previewWithdraw",
					"outputs": [
						{
							"internalType": "uint256",
							"name": "",
							"type": "uint256"
						}
					],
					"stateMutability": "view",
					"type": "function"
				},
				{
					"inputs": [
						{
							"internalType": "uint256",
							"name": "shares",
							"type": "uint256"
						},
						{
							"internalType": "address",
							"name": "receiver",
							"type": "address"
						},
						{
							"internalType": "address",
							"name": "owner",
							"type": "address"
						}
					],
					"name": "redeem",
					"outputs": [
						{
							"internalType": "uint256",
							"name": "assets",
							"type": "uint256"
						}
					],
					"stateMutability": "nonpayable",
					"type": "function"
				},
				{
					"inputs": [],
					"name": "renounceOwnership",
					"outputs": [],
					"stateMutability": "nonpayable",
					"type": "function"
				},
				{
					"inputs": [
						{
							"internalType": "uint256",
							"name": "newFeePercent",
							"type": "uint256"
						}
					],
					"name": "setFeePercent",
					"outputs": [],
					"stateMutability": "nonpayable",
					"type": "function"
				},
				{
					"inputs": [],
					"name": "symbol",
					"outputs": [
						{
							"internalType": "string",
							"name": "",
							"type": "string"
						}
					],
					"stateMutability": "view",
					"type": "function"
				},
				{
					"inputs": [],
					"name": "totalAssets",
					"outputs": [
						{
							"internalType": "uint256",
							"name": "",
							"type": "uint256"
						}
					],
					"stateMutability": "view",
					"type": "function"
				},
				{
					"inputs": [],
					"name": "totalSupply",
					"outputs": [
						{
							"internalType": "uint256",
							"name": "",
							"type": "uint256"
						}
					],
					"stateMutability": "view",
					"type": "function"
				},
				{
					"inputs": [
						{
							"internalType": "address",
							"name": "to",
							"type": "address"
						},
						{
							"internalType": "uint256",
							"name": "amount",
							"type": "uint256"
						}
					],
					"name": "transfer",
					"outputs": [
						{
							"internalType": "bool",
							"name": "",
							"type": "bool"
						}
					],
					"stateMutability": "nonpayable",
					"type": "function"
				},
				{
					"inputs": [
						{
							"internalType": "address",
							"name": "from",
							"type": "address"
						},
						{
							"internalType": "address",
							"name": "to",
							"type": "address"
						},
						{
							"internalType": "uint256",
							"name": "amount",
							"type": "uint256"
						}
					],
					"name": "transferFrom",
					"outputs": [
						{
							"internalType": "bool",
							"name": "",
							"type": "bool"
						}
					],
					"stateMutability": "nonpayable",
					"type": "function"
				},
				{
					"inputs": [
						{
							"internalType": "address",
							"name": "newOwner",
							"type": "address"
						}
					],
					"name": "transferOwnership",
					"outputs": [],
					"stateMutability": "nonpayable",
					"type": "function"
				},
				{
					"inputs": [
						{
							"internalType": "uint256",
							"name": "assets",
							"type": "uint256"
						},
						{
							"internalType": "address",
							"name": "receiver",
							"type": "address"
						},
						{
							"internalType": "address",
							"name": "owner",
							"type": "address"
						}
					],
					"name": "withdraw",
					"outputs": [
						{
							"internalType": "uint256",
							"name": "shares",
							"type": "uint256"
						}
					],
					"stateMutability": "nonpayable",
					"type": "function"
				}
			],
			"devdoc": {
				"events": {
					"FeePercentUpdated(address,uint256)": {
						"params": {
							"newFeePercent": "The new fee percentage.",
							"user": "The authorized user who triggered the update."
						}
					}
				},
				"kind": "dev",
				"methods": {
					"renounceOwnership()": {
						"details": "Leaves the contract without manager. It will not be possible to call `onlyManager` functions anymore. Can only be called by the current manager. NOTE: Renouncing ownership will leave the contract without an manager, thereby removing any functionality that is only available to the manager."
					},
					"setFeePercent(uint256)": {
						"params": {
							"newFeePercent": "The new fee percentage."
						}
					},
					"transferOwnership(address)": {
						"details": "Transfers ownership of the contract to a new account (`newOwner`). Can only be called by the current manager."
					}
				},
				"stateVariables": {
					"feePercent": {
						"details": "A fixed point number where 1e18 represents 100% and 0 represents 0%."
					}
				},
				"version": 1
			},
			"evm": {
				"assembly": "    /* \"SquiddyCore.sol\":143:4427  contract SquiddyCore is ERC4626 {... */\n  mstore(0x40, 0x0100)\n    /* \"SquiddyCore.sol\":261:262  0 */\n  0x00\n    /* \"SquiddyCore.sol\":212:262  uint256 public beforeWithdrawHookCalledCounter = 0 */\n  0x07\n  sstore\n    /* \"SquiddyCore.sol\":315:316  0 */\n  0x00\n    /* \"SquiddyCore.sol\":268:316  uint256 public afterDepositHookCalledCounter = 0 */\n  0x08\n  sstore\n    /* \"SquiddyCore.sol\":1405:1722  constructor(... */\n  callvalue\n  dup1\n  iszero\n  tag_1\n  jumpi\n  0x00\n  dup1\n  revert\ntag_1:\n  pop\n  mload(0x40)\n  sub(codesize, bytecodeSize)\n  dup1\n  bytecodeSize\n  dup4\n  codecopy\n  dup2\n  dup2\n  add\n  0x40\n  mstore\n  dup2\n  add\n  swap1\n  tag_2\n  swap2\n  swap1\n  tag_3\n  jump\t// in\ntag_2:\n    /* \"SquiddyCore.sol\":1543:1554  _underlying */\n  dup4\n    /* \"SquiddyCore.sol\":1556:1561  _name */\n  dup4\n    /* \"SquiddyCore.sol\":1563:1570  _symbol */\n  dup4\n    /* \"SquiddyCore.sol\":1572:1581  _decimals */\n  dup4\n    /* \"ERC4626.sol\":1331:1336  _name */\n  dup3\n    /* \"ERC4626.sol\":1338:1345  _symbol */\n  dup3\n    /* \"ERC4626.sol\":1347:1356  _decimals */\n  dup3\n    /* \"ERC20.sol\":2131:2136  _name */\n  dup3\n    /* \"ERC20.sol\":2124:2128  name */\n  0x00\n    /* \"ERC20.sol\":2124:2136  name = _name */\n  swap1\n  dup2\n  tag_8\n  swap2\n  swap1\n  tag_9\n  jump\t// in\ntag_8:\n  pop\n    /* \"ERC20.sol\":2155:2162  _symbol */\n  dup2\n    /* \"ERC20.sol\":2146:2152  symbol */\n  0x01\n    /* \"ERC20.sol\":2146:2162  symbol = _symbol */\n  swap1\n  dup2\n  tag_10\n  swap2\n  swap1\n  tag_9\n  jump\t// in\ntag_10:\n  pop\n    /* \"ERC20.sol\":2183:2192  _decimals */\n  dup1\n    /* \"ERC20.sol\":2172:2192  decimals = _decimals */\n  0xff\n  and\n  0x80\n  dup2\n  0xff\n  and\n  dup2\n  mstore\n  pop\n  pop\n    /* \"ERC20.sol\":2222:2235  block.chainid */\n  chainid\n    /* \"ERC20.sol\":2203:2235  INITIAL_CHAIN_ID = block.chainid */\n  0xa0\n  dup2\n  dup2\n  mstore\n  pop\n  pop\n    /* \"ERC20.sol\":2272:2296  computeDomainSeparator() */\n  tag_11\n    /* \"ERC20.sol\":2272:2294  computeDomainSeparator */\n  shl(0x20, tag_12)\n    /* \"ERC20.sol\":2272:2296  computeDomainSeparator() */\n  0x20\n  shr\n  jump\t// in\ntag_11:\n    /* \"ERC20.sol\":2245:2296  INITIAL_DOMAIN_SEPARATOR = computeDomainSeparator() */\n  0xc0\n  dup2\n  dup2\n  mstore\n  pop\n  pop\n    /* \"ERC20.sol\":2011:2303  constructor(... */\n  pop\n  pop\n  pop\n    /* \"ERC4626.sol\":1376:1382  _asset */\n  dup4\n    /* \"ERC4626.sol\":1368:1382  asset = _asset */\n  0xffffffffffffffffffffffffffffffffffffffff\n  and\n  0xe0\n  dup2\n  0xffffffffffffffffffffffffffffffffffffffff\n  and\n  dup2\n  mstore\n  pop\n  pop\n    /* \"ERC4626.sol\":1200:1389  constructor(... */\n  pop\n  pop\n  pop\n  pop\n    /* \"SquiddyCore.sol\":1698:1715  type(uint256).max */\n  0xffffffffffffffffffffffffffffffffffffffffffffffffffffffffffffffff\n    /* \"SquiddyCore.sol\":1684:1695  totalSupply */\n  0x02\n    /* \"SquiddyCore.sol\":1684:1715  totalSupply = type(uint256).max */\n  dup2\n  swap1\n  sstore\n  pop\n    /* \"SquiddyCore.sol\":1405:1722  constructor(... */\n  pop\n  pop\n  pop\n  pop\n    /* \"SquiddyCore.sol\":143:4427  contract SquiddyCore is ERC4626 {... */\n  jump(tag_15)\n    /* \"ERC20.sol\":5698:6190  function computeDomainSeparator() internal view virtual returns (bytes32) {... */\ntag_12:\n    /* \"ERC20.sol\":5763:5770  bytes32 */\n  0x00\n    /* \"ERC20.sol\":5860:6001  keccak256(... */\n  0x8b73c3c69bb8fe3d512ecc4cf759cc79239f7b179b0ffacaa9a75d522b39400f\n    /* \"ERC20.sol\":6039:6043  name */\n  0x00\n    /* \"ERC20.sol\":6023:6045  keccak256(bytes(name)) */\n  mload(0x40)\n  tag_17\n  swap2\n  swap1\n  tag_18\n  jump\t// in\ntag_17:\n  mload(0x40)\n  dup1\n  swap2\n  sub\n  swap1\n  keccak256\n    /* \"ERC20.sol\":6067:6081  keccak256(\"1\") */\n  0xc89efdaa54c0f20c7adf612882df0950f5a951637e0307cdcb4c672f298b8bc6\n    /* \"ERC20.sol\":6103:6116  block.chainid */\n  chainid\n    /* \"ERC20.sol\":6146:6150  this */\n  address\n    /* \"ERC20.sol\":5828:6169  abi.encode(... */\n  add(0x20, mload(0x40))\n  tag_19\n  swap6\n  swap5\n  swap4\n  swap3\n  swap2\n  swap1\n  tag_20\n  jump\t// in\ntag_19:\n  mload(0x40)\n  0x20\n  dup2\n  dup4\n  sub\n  sub\n  dup2\n  mstore\n  swap1\n  0x40\n  mstore\n    /* \"ERC20.sol\":5801:6183  keccak256(... */\n  dup1\n  mload\n  swap1\n  0x20\n  add\n  keccak256\n    /* \"ERC20.sol\":5782:6183  return... */\n  swap1\n  pop\n    /* \"ERC20.sol\":5698:6190  function computeDomainSeparator() internal view virtual returns (bytes32) {... */\n  swap1\n  jump\t// out\n    /* \"#utility.yul\":7:82   */\ntag_21:\n    /* \"#utility.yul\":40:46   */\n  0x00\n    /* \"#utility.yul\":73:75   */\n  0x40\n    /* \"#utility.yul\":67:76   */\n  mload\n    /* \"#utility.yul\":57:76   */\n  swap1\n  pop\n    /* \"#utility.yul\":7:82   */\n  swap1\n  jump\t// out\n    /* \"#utility.yul\":88:205   */\ntag_22:\n    /* \"#utility.yul\":197:198   */\n  0x00\n    /* \"#utility.yul\":194:195   */\n  dup1\n    /* \"#utility.yul\":187:199   */\n  revert\n    /* \"#utility.yul\":211:328   */\ntag_23:\n    /* \"#utility.yul\":320:321   */\n  0x00\n    /* \"#utility.yul\":317:318   */\n  dup1\n    /* \"#utility.yul\":310:322   */\n  revert\n    /* \"#utility.yul\":334:460   */\ntag_24:\n    /* \"#utility.yul\":371:378   */\n  0x00\n    /* \"#utility.yul\":411:453   */\n  0xffffffffffffffffffffffffffffffffffffffff\n    /* \"#utility.yul\":404:409   */\n  dup3\n    /* \"#utility.yul\":400:454   */\n  and\n    /* \"#utility.yul\":389:454   */\n  swap1\n  pop\n    /* \"#utility.yul\":334:460   */\n  swap2\n  swap1\n  pop\n  jump\t// out\n    /* \"#utility.yul\":466:562   */\ntag_25:\n    /* \"#utility.yul\":503:510   */\n  0x00\n    /* \"#utility.yul\":532:556   */\n  tag_74\n    /* \"#utility.yul\":550:555   */\n  dup3\n    /* \"#utility.yul\":532:556   */\n  tag_24\n  jump\t// in\ntag_74:\n    /* \"#utility.yul\":521:556   */\n  swap1\n  pop\n    /* \"#utility.yul\":466:562   */\n  swap2\n  swap1\n  pop\n  jump\t// out\n    /* \"#utility.yul\":568:677   */\ntag_26:\n    /* \"#utility.yul\":618:625   */\n  0x00\n    /* \"#utility.yul\":647:671   */\n  tag_76\n    /* \"#utility.yul\":665:670   */\n  dup3\n    /* \"#utility.yul\":647:671   */\n  tag_25\n  jump\t// in\ntag_76:\n    /* \"#utility.yul\":636:671   */\n  swap1\n  pop\n    /* \"#utility.yul\":568:677   */\n  swap2\n  swap1\n  pop\n  jump\t// out\n    /* \"#utility.yul\":683:831   */\ntag_27:\n    /* \"#utility.yul\":769:806   */\n  tag_78\n    /* \"#utility.yul\":800:805   */\n  dup2\n    /* \"#utility.yul\":769:806   */\n  tag_26\n  jump\t// in\ntag_78:\n    /* \"#utility.yul\":762:767   */\n  dup2\n    /* \"#utility.yul\":759:807   */\n  eq\n    /* \"#utility.yul\":749:825   */\n  tag_79\n  jumpi\n    /* \"#utility.yul\":821:822   */\n  0x00\n    /* \"#utility.yul\":818:819   */\n  dup1\n    /* \"#utility.yul\":811:823   */\n  revert\n    /* \"#utility.yul\":749:825   */\ntag_79:\n    /* \"#utility.yul\":683:831   */\n  pop\n  jump\t// out\n    /* \"#utility.yul\":837:1006   */\ntag_28:\n    /* \"#utility.yul\":907:912   */\n  0x00\n    /* \"#utility.yul\":938:944   */\n  dup2\n    /* \"#utility.yul\":932:945   */\n  mload\n    /* \"#utility.yul\":923:945   */\n  swap1\n  pop\n    /* \"#utility.yul\":954:1000   */\n  tag_81\n    /* \"#utility.yul\":994:999   */\n  dup2\n    /* \"#utility.yul\":954:1000   */\n  tag_27\n  jump\t// in\ntag_81:\n    /* \"#utility.yul\":837:1006   */\n  swap3\n  swap2\n  pop\n  pop\n  jump\t// out\n    /* \"#utility.yul\":1012:1129   */\ntag_29:\n    /* \"#utility.yul\":1121:1122   */\n  0x00\n    /* \"#utility.yul\":1118:1119   */\n  dup1\n    /* \"#utility.yul\":1111:1123   */\n  revert\n    /* \"#utility.yul\":1135:1252   */\ntag_30:\n    /* \"#utility.yul\":1244:1245   */\n  0x00\n    /* \"#utility.yul\":1241:1242   */\n  dup1\n    /* \"#utility.yul\":1234:1246   */\n  revert\n    /* \"#utility.yul\":1258:1360   */\ntag_31:\n    /* \"#utility.yul\":1299:1305   */\n  0x00\n    /* \"#utility.yul\":1350:1352   */\n  0x1f\n    /* \"#utility.yul\":1346:1353   */\n  not\n    /* \"#utility.yul\":1341:1343   */\n  0x1f\n    /* \"#utility.yul\":1334:1339   */\n  dup4\n    /* \"#utility.yul\":1330:1344   */\n  add\n    /* \"#utility.yul\":1326:1354   */\n  and\n    /* \"#utility.yul\":1316:1354   */\n  swap1\n  pop\n    /* \"#utility.yul\":1258:1360   */\n  swap2\n  swap1\n  pop\n  jump\t// out\n    /* \"#utility.yul\":1366:1546   */\ntag_32:\n    /* \"#utility.yul\":1414:1491   */\n  0x4e487b7100000000000000000000000000000000000000000000000000000000\n    /* \"#utility.yul\":1411:1412   */\n  0x00\n    /* \"#utility.yul\":1404:1492   */\n  mstore\n    /* \"#utility.yul\":1511:1515   */\n  0x41\n    /* \"#utility.yul\":1508:1509   */\n  0x04\n    /* \"#utility.yul\":1501:1516   */\n  mstore\n    /* \"#utility.yul\":1535:1539   */\n  0x24\n    /* \"#utility.yul\":1532:1533   */\n  0x00\n    /* \"#utility.yul\":1525:1540   */\n  revert\n    /* \"#utility.yul\":1552:1833   */\ntag_33:\n    /* \"#utility.yul\":1635:1662   */\n  tag_87\n    /* \"#utility.yul\":1657:1661   */\n  dup3\n    /* \"#utility.yul\":1635:1662   */\n  tag_31\n  jump\t// in\ntag_87:\n    /* \"#utility.yul\":1627:1633   */\n  dup2\n    /* \"#utility.yul\":1623:1663   */\n  add\n    /* \"#utility.yul\":1765:1771   */\n  dup2\n    /* \"#utility.yul\":1753:1763   */\n  dup2\n    /* \"#utility.yul\":1750:1772   */\n  lt\n    /* \"#utility.yul\":1729:1747   */\n  0xffffffffffffffff\n    /* \"#utility.yul\":1717:1727   */\n  dup3\n    /* \"#utility.yul\":1714:1748   */\n  gt\n    /* \"#utility.yul\":1711:1773   */\n  or\n    /* \"#utility.yul\":1708:1796   */\n  iszero\n  tag_88\n  jumpi\n    /* \"#utility.yul\":1776:1794   */\n  tag_89\n  tag_32\n  jump\t// in\ntag_89:\n    /* \"#utility.yul\":1708:1796   */\ntag_88:\n    /* \"#utility.yul\":1816:1826   */\n  dup1\n    /* \"#utility.yul\":1812:1814   */\n  0x40\n    /* \"#utility.yul\":1805:1827   */\n  mstore\n    /* \"#utility.yul\":1595:1833   */\n  pop\n    /* \"#utility.yul\":1552:1833   */\n  pop\n  pop\n  jump\t// out\n    /* \"#utility.yul\":1839:1968   */\ntag_34:\n    /* \"#utility.yul\":1873:1879   */\n  0x00\n    /* \"#utility.yul\":1900:1920   */\n  tag_91\n  tag_21\n  jump\t// in\ntag_91:\n    /* \"#utility.yul\":1890:1920   */\n  swap1\n  pop\n    /* \"#utility.yul\":1929:1962   */\n  tag_92\n    /* \"#utility.yul\":1957:1961   */\n  dup3\n    /* \"#utility.yul\":1949:1955   */\n  dup3\n    /* \"#utility.yul\":1929:1962   */\n  tag_33\n  jump\t// in\ntag_92:\n    /* \"#utility.yul\":1839:1968   */\n  swap2\n  swap1\n  pop\n  jump\t// out\n    /* \"#utility.yul\":1974:2282   */\ntag_35:\n    /* \"#utility.yul\":2036:2040   */\n  0x00\n    /* \"#utility.yul\":2126:2144   */\n  0xffffffffffffffff\n    /* \"#utility.yul\":2118:2124   */\n  dup3\n    /* \"#utility.yul\":2115:2145   */\n  gt\n    /* \"#utility.yul\":2112:2168   */\n  iszero\n  tag_94\n  jumpi\n    /* \"#utility.yul\":2148:2166   */\n  tag_95\n  tag_32\n  jump\t// in\ntag_95:\n    /* \"#utility.yul\":2112:2168   */\ntag_94:\n    /* \"#utility.yul\":2186:2215   */\n  tag_96\n    /* \"#utility.yul\":2208:2214   */\n  dup3\n    /* \"#utility.yul\":2186:2215   */\n  tag_31\n  jump\t// in\ntag_96:\n    /* \"#utility.yul\":2178:2215   */\n  swap1\n  pop\n    /* \"#utility.yul\":2270:2274   */\n  0x20\n    /* \"#utility.yul\":2264:2268   */\n  dup2\n    /* \"#utility.yul\":2260:2275   */\n  add\n    /* \"#utility.yul\":2252:2275   */\n  swap1\n  pop\n    /* \"#utility.yul\":1974:2282   */\n  swap2\n  swap1\n  pop\n  jump\t// out\n    /* \"#utility.yul\":2288:2534   */\ntag_36:\n    /* \"#utility.yul\":2369:2370   */\n  0x00\n    /* \"#utility.yul\":2379:2492   */\ntag_98:\n    /* \"#utility.yul\":2393:2399   */\n  dup4\n    /* \"#utility.yul\":2390:2391   */\n  dup2\n    /* \"#utility.yul\":2387:2400   */\n  lt\n    /* \"#utility.yul\":2379:2492   */\n  iszero\n  tag_100\n  jumpi\n    /* \"#utility.yul\":2478:2479   */\n  dup1\n    /* \"#utility.yul\":2473:2476   */\n  dup3\n    /* \"#utility.yul\":2469:2480   */\n  add\n    /* \"#utility.yul\":2463:2481   */\n  mload\n    /* \"#utility.yul\":2459:2460   */\n  dup2\n    /* \"#utility.yul\":2454:2457   */\n  dup5\n    /* \"#utility.yul\":2450:2461   */\n  add\n    /* \"#utility.yul\":2443:2482   */\n  mstore\n    /* \"#utility.yul\":2415:2417   */\n  0x20\n    /* \"#utility.yul\":2412:2413   */\n  dup2\n    /* \"#utility.yul\":2408:2418   */\n  add\n    /* \"#utility.yul\":2403:2418   */\n  swap1\n  pop\n    /* \"#utility.yul\":2379:2492   */\n  jump(tag_98)\ntag_100:\n    /* \"#utility.yul\":2526:2527   */\n  0x00\n    /* \"#utility.yul\":2517:2523   */\n  dup5\n    /* \"#utility.yul\":2512:2515   */\n  dup5\n    /* \"#utility.yul\":2508:2524   */\n  add\n    /* \"#utility.yul\":2501:2528   */\n  mstore\n    /* \"#utility.yul\":2350:2534   */\n  pop\n    /* \"#utility.yul\":2288:2534   */\n  pop\n  pop\n  pop\n  jump\t// out\n    /* \"#utility.yul\":2540:2974   */\ntag_37:\n    /* \"#utility.yul\":2629:2634   */\n  0x00\n    /* \"#utility.yul\":2654:2720   */\n  tag_102\n    /* \"#utility.yul\":2670:2719   */\n  tag_103\n    /* \"#utility.yul\":2712:2718   */\n  dup5\n    /* \"#utility.yul\":2670:2719   */\n  tag_35\n  jump\t// in\ntag_103:\n    /* \"#utility.yul\":2654:2720   */\n  tag_34\n  jump\t// in\ntag_102:\n    /* \"#utility.yul\":2645:2720   */\n  swap1\n  pop\n    /* \"#utility.yul\":2743:2749   */\n  dup3\n    /* \"#utility.yul\":2736:2741   */\n  dup2\n    /* \"#utility.yul\":2729:2750   */\n  mstore\n    /* \"#utility.yul\":2781:2785   */\n  0x20\n    /* \"#utility.yul\":2774:2779   */\n  dup2\n    /* \"#utility.yul\":2770:2786   */\n  add\n    /* \"#utility.yul\":2819:2822   */\n  dup5\n    /* \"#utility.yul\":2810:2816   */\n  dup5\n    /* \"#utility.yul\":2805:2808   */\n  dup5\n    /* \"#utility.yul\":2801:2817   */\n  add\n    /* \"#utility.yul\":2798:2823   */\n  gt\n    /* \"#utility.yul\":2795:2907   */\n  iszero\n  tag_104\n  jumpi\n    /* \"#utility.yul\":2826:2905   */\n  tag_105\n  tag_30\n  jump\t// in\ntag_105:\n    /* \"#utility.yul\":2795:2907   */\ntag_104:\n    /* \"#utility.yul\":2916:2968   */\n  tag_106\n    /* \"#utility.yul\":2961:2967   */\n  dup5\n    /* \"#utility.yul\":2956:2959   */\n  dup3\n    /* \"#utility.yul\":2951:2954   */\n  dup6\n    /* \"#utility.yul\":2916:2968   */\n  tag_36\n  jump\t// in\ntag_106:\n    /* \"#utility.yul\":2635:2974   */\n  pop\n    /* \"#utility.yul\":2540:2974   */\n  swap4\n  swap3\n  pop\n  pop\n  pop\n  jump\t// out\n    /* \"#utility.yul\":2994:3349   */\ntag_38:\n    /* \"#utility.yul\":3061:3066   */\n  0x00\n    /* \"#utility.yul\":3110:3113   */\n  dup3\n    /* \"#utility.yul\":3103:3107   */\n  0x1f\n    /* \"#utility.yul\":3095:3101   */\n  dup4\n    /* \"#utility.yul\":3091:3108   */\n  add\n    /* \"#utility.yul\":3087:3114   */\n  slt\n    /* \"#utility.yul\":3077:3199   */\n  tag_108\n  jumpi\n    /* \"#utility.yul\":3118:3197   */\n  tag_109\n  tag_29\n  jump\t// in\ntag_109:\n    /* \"#utility.yul\":3077:3199   */\ntag_108:\n    /* \"#utility.yul\":3228:3234   */\n  dup2\n    /* \"#utility.yul\":3222:3235   */\n  mload\n    /* \"#utility.yul\":3253:3343   */\n  tag_110\n    /* \"#utility.yul\":3339:3342   */\n  dup5\n    /* \"#utility.yul\":3331:3337   */\n  dup3\n    /* \"#utility.yul\":3324:3328   */\n  0x20\n    /* \"#utility.yul\":3316:3322   */\n  dup7\n    /* \"#utility.yul\":3312:3329   */\n  add\n    /* \"#utility.yul\":3253:3343   */\n  tag_37\n  jump\t// in\ntag_110:\n    /* \"#utility.yul\":3244:3343   */\n  swap2\n  pop\n    /* \"#utility.yul\":3067:3349   */\n  pop\n    /* \"#utility.yul\":2994:3349   */\n  swap3\n  swap2\n  pop\n  pop\n  jump\t// out\n    /* \"#utility.yul\":3355:3441   */\ntag_39:\n    /* \"#utility.yul\":3390:3397   */\n  0x00\n    /* \"#utility.yul\":3430:3434   */\n  0xff\n    /* \"#utility.yul\":3423:3428   */\n  dup3\n    /* \"#utility.yul\":3419:3435   */\n  and\n    /* \"#utility.yul\":3408:3435   */\n  swap1\n  pop\n    /* \"#utility.yul\":3355:3441   */\n  swap2\n  swap1\n  pop\n  jump\t// out\n    /* \"#utility.yul\":3447:3565   */\ntag_40:\n    /* \"#utility.yul\":3518:3540   */\n  tag_113\n    /* \"#utility.yul\":3534:3539   */\n  dup2\n    /* \"#utility.yul\":3518:3540   */\n  tag_39\n  jump\t// in\ntag_113:\n    /* \"#utility.yul\":3511:3516   */\n  dup2\n    /* \"#utility.yul\":3508:3541   */\n  eq\n    /* \"#utility.yul\":3498:3559   */\n  tag_114\n  jumpi\n    /* \"#utility.yul\":3555:3556   */\n  0x00\n    /* \"#utility.yul\":3552:3553   */\n  dup1\n    /* \"#utility.yul\":3545:3557   */\n  revert\n    /* \"#utility.yul\":3498:3559   */\ntag_114:\n    /* \"#utility.yul\":3447:3565   */\n  pop\n  jump\t// out\n    /* \"#utility.yul\":3571:3710   */\ntag_41:\n    /* \"#utility.yul\":3626:3631   */\n  0x00\n    /* \"#utility.yul\":3657:3663   */\n  dup2\n    /* \"#utility.yul\":3651:3664   */\n  mload\n    /* \"#utility.yul\":3642:3664   */\n  swap1\n  pop\n    /* \"#utility.yul\":3673:3704   */\n  tag_116\n    /* \"#utility.yul\":3698:3703   */\n  dup2\n    /* \"#utility.yul\":3673:3704   */\n  tag_40\n  jump\t// in\ntag_116:\n    /* \"#utility.yul\":3571:3710   */\n  swap3\n  swap2\n  pop\n  pop\n  jump\t// out\n    /* \"#utility.yul\":3716:4904   */\ntag_3:\n    /* \"#utility.yul\":3844:3850   */\n  0x00\n    /* \"#utility.yul\":3852:3858   */\n  dup1\n    /* \"#utility.yul\":3860:3866   */\n  0x00\n    /* \"#utility.yul\":3868:3874   */\n  dup1\n    /* \"#utility.yul\":3917:3920   */\n  0x80\n    /* \"#utility.yul\":3905:3914   */\n  dup6\n    /* \"#utility.yul\":3896:3903   */\n  dup8\n    /* \"#utility.yul\":3892:3915   */\n  sub\n    /* \"#utility.yul\":3888:3921   */\n  slt\n    /* \"#utility.yul\":3885:4005   */\n  iszero\n  tag_118\n  jumpi\n    /* \"#utility.yul\":3924:4003   */\n  tag_119\n  tag_22\n  jump\t// in\ntag_119:\n    /* \"#utility.yul\":3885:4005   */\ntag_118:\n    /* \"#utility.yul\":4044:4045   */\n  0x00\n    /* \"#utility.yul\":4069:4146   */\n  tag_120\n    /* \"#utility.yul\":4138:4145   */\n  dup8\n    /* \"#utility.yul\":4129:4135   */\n  dup3\n    /* \"#utility.yul\":4118:4127   */\n  dup9\n    /* \"#utility.yul\":4114:4136   */\n  add\n    /* \"#utility.yul\":4069:4146   */\n  tag_28\n  jump\t// in\ntag_120:\n    /* \"#utility.yul\":4059:4146   */\n  swap5\n  pop\n    /* \"#utility.yul\":4015:4156   */\n  pop\n    /* \"#utility.yul\":4216:4218   */\n  0x20\n    /* \"#utility.yul\":4205:4214   */\n  dup6\n    /* \"#utility.yul\":4201:4219   */\n  add\n    /* \"#utility.yul\":4195:4220   */\n  mload\n    /* \"#utility.yul\":4247:4265   */\n  0xffffffffffffffff\n    /* \"#utility.yul\":4239:4245   */\n  dup2\n    /* \"#utility.yul\":4236:4266   */\n  gt\n    /* \"#utility.yul\":4233:4350   */\n  iszero\n  tag_121\n  jumpi\n    /* \"#utility.yul\":4269:4348   */\n  tag_122\n  tag_23\n  jump\t// in\ntag_122:\n    /* \"#utility.yul\":4233:4350   */\ntag_121:\n    /* \"#utility.yul\":4374:4448   */\n  tag_123\n    /* \"#utility.yul\":4440:4447   */\n  dup8\n    /* \"#utility.yul\":4431:4437   */\n  dup3\n    /* \"#utility.yul\":4420:4429   */\n  dup9\n    /* \"#utility.yul\":4416:4438   */\n  add\n    /* \"#utility.yul\":4374:4448   */\n  tag_38\n  jump\t// in\ntag_123:\n    /* \"#utility.yul\":4364:4448   */\n  swap4\n  pop\n    /* \"#utility.yul\":4166:4458   */\n  pop\n    /* \"#utility.yul\":4518:4520   */\n  0x40\n    /* \"#utility.yul\":4507:4516   */\n  dup6\n    /* \"#utility.yul\":4503:4521   */\n  add\n    /* \"#utility.yul\":4497:4522   */\n  mload\n    /* \"#utility.yul\":4549:4567   */\n  0xffffffffffffffff\n    /* \"#utility.yul\":4541:4547   */\n  dup2\n    /* \"#utility.yul\":4538:4568   */\n  gt\n    /* \"#utility.yul\":4535:4652   */\n  iszero\n  tag_124\n  jumpi\n    /* \"#utility.yul\":4571:4650   */\n  tag_125\n  tag_23\n  jump\t// in\ntag_125:\n    /* \"#utility.yul\":4535:4652   */\ntag_124:\n    /* \"#utility.yul\":4676:4750   */\n  tag_126\n    /* \"#utility.yul\":4742:4749   */\n  dup8\n    /* \"#utility.yul\":4733:4739   */\n  dup3\n    /* \"#utility.yul\":4722:4731   */\n  dup9\n    /* \"#utility.yul\":4718:4740   */\n  add\n    /* \"#utility.yul\":4676:4750   */\n  tag_38\n  jump\t// in\ntag_126:\n    /* \"#utility.yul\":4666:4750   */\n  swap3\n  pop\n    /* \"#utility.yul\":4468:4760   */\n  pop\n    /* \"#utility.yul\":4799:4801   */\n  0x60\n    /* \"#utility.yul\":4825:4887   */\n  tag_127\n    /* \"#utility.yul\":4879:4886   */\n  dup8\n    /* \"#utility.yul\":4870:4876   */\n  dup3\n    /* \"#utility.yul\":4859:4868   */\n  dup9\n    /* \"#utility.yul\":4855:4877   */\n  add\n    /* \"#utility.yul\":4825:4887   */\n  tag_41\n  jump\t// in\ntag_127:\n    /* \"#utility.yul\":4815:4887   */\n  swap2\n  pop\n    /* \"#utility.yul\":4770:4897   */\n  pop\n    /* \"#utility.yul\":3716:4904   */\n  swap3\n  swap6\n  swap2\n  swap5\n  pop\n  swap3\n  pop\n  jump\t// out\n    /* \"#utility.yul\":4910:5009   */\ntag_42:\n    /* \"#utility.yul\":4962:4968   */\n  0x00\n    /* \"#utility.yul\":4996:5001   */\n  dup2\n    /* \"#utility.yul\":4990:5002   */\n  mload\n    /* \"#utility.yul\":4980:5002   */\n  swap1\n  pop\n    /* \"#utility.yul\":4910:5009   */\n  swap2\n  swap1\n  pop\n  jump\t// out\n    /* \"#utility.yul\":5015:5195   */\ntag_43:\n    /* \"#utility.yul\":5063:5140   */\n  0x4e487b7100000000000000000000000000000000000000000000000000000000\n    /* \"#utility.yul\":5060:5061   */\n  0x00\n    /* \"#utility.yul\":5053:5141   */\n  mstore\n    /* \"#utility.yul\":5160:5164   */\n  0x22\n    /* \"#utility.yul\":5157:5158   */\n  0x04\n    /* \"#utility.yul\":5150:5165   */\n  mstore\n    /* \"#utility.yul\":5184:5188   */\n  0x24\n    /* \"#utility.yul\":5181:5182   */\n  0x00\n    /* \"#utility.yul\":5174:5189   */\n  revert\n    /* \"#utility.yul\":5201:5521   */\ntag_44:\n    /* \"#utility.yul\":5245:5251   */\n  0x00\n    /* \"#utility.yul\":5282:5283   */\n  0x02\n    /* \"#utility.yul\":5276:5280   */\n  dup3\n    /* \"#utility.yul\":5272:5284   */\n  div\n    /* \"#utility.yul\":5262:5284   */\n  swap1\n  pop\n    /* \"#utility.yul\":5329:5330   */\n  0x01\n    /* \"#utility.yul\":5323:5327   */\n  dup3\n    /* \"#utility.yul\":5319:5331   */\n  and\n    /* \"#utility.yul\":5350:5368   */\n  dup1\n    /* \"#utility.yul\":5340:5421   */\n  tag_131\n  jumpi\n    /* \"#utility.yul\":5406:5410   */\n  0x7f\n    /* \"#utility.yul\":5398:5404   */\n  dup3\n    /* \"#utility.yul\":5394:5411   */\n  and\n    /* \"#utility.yul\":5384:5411   */\n  swap2\n  pop\n    /* \"#utility.yul\":5340:5421   */\ntag_131:\n    /* \"#utility.yul\":5468:5470   */\n  0x20\n    /* \"#utility.yul\":5460:5466   */\n  dup3\n    /* \"#utility.yul\":5457:5471   */\n  lt\n    /* \"#utility.yul\":5437:5455   */\n  dup2\n    /* \"#utility.yul\":5434:5472   */\n  sub\n    /* \"#utility.yul\":5431:5515   */\n  tag_132\n  jumpi\n    /* \"#utility.yul\":5487:5505   */\n  tag_133\n  tag_43\n  jump\t// in\ntag_133:\n    /* \"#utility.yul\":5431:5515   */\ntag_132:\n    /* \"#utility.yul\":5252:5521   */\n  pop\n    /* \"#utility.yul\":5201:5521   */\n  swap2\n  swap1\n  pop\n  jump\t// out\n    /* \"#utility.yul\":5527:5668   */\ntag_45:\n    /* \"#utility.yul\":5576:5580   */\n  0x00\n    /* \"#utility.yul\":5599:5602   */\n  dup2\n    /* \"#utility.yul\":5591:5602   */\n  swap1\n  pop\n    /* \"#utility.yul\":5622:5625   */\n  dup2\n    /* \"#utility.yul\":5619:5620   */\n  0x00\n    /* \"#utility.yul\":5612:5626   */\n  mstore\n    /* \"#utility.yul\":5656:5660   */\n  0x20\n    /* \"#utility.yul\":5653:5654   */\n  0x00\n    /* \"#utility.yul\":5643:5661   */\n  keccak256\n    /* \"#utility.yul\":5635:5661   */\n  swap1\n  pop\n    /* \"#utility.yul\":5527:5668   */\n  swap2\n  swap1\n  pop\n  jump\t// out\n    /* \"#utility.yul\":5674:5767   */\ntag_46:\n    /* \"#utility.yul\":5711:5717   */\n  0x00\n    /* \"#utility.yul\":5758:5760   */\n  0x20\n    /* \"#utility.yul\":5753:5755   */\n  0x1f\n    /* \"#utility.yul\":5746:5751   */\n  dup4\n    /* \"#utility.yul\":5742:5756   */\n  add\n    /* \"#utility.yul\":5738:5761   */\n  div\n    /* \"#utility.yul\":5728:5761   */\n  swap1\n  pop\n    /* \"#utility.yul\":5674:5767   */\n  swap2\n  swap1\n  pop\n  jump\t// out\n    /* \"#utility.yul\":5773:5880   */\ntag_47:\n    /* \"#utility.yul\":5817:5825   */\n  0x00\n    /* \"#utility.yul\":5867:5872   */\n  dup3\n    /* \"#utility.yul\":5861:5865   */\n  dup3\n    /* \"#utility.yul\":5857:5873   */\n  shl\n    /* \"#utility.yul\":5836:5873   */\n  swap1\n  pop\n    /* \"#utility.yul\":5773:5880   */\n  swap3\n  swap2\n  pop\n  pop\n  jump\t// out\n    /* \"#utility.yul\":5886:6279   */\ntag_48:\n    /* \"#utility.yul\":5955:5961   */\n  0x00\n    /* \"#utility.yul\":6005:6006   */\n  0x08\n    /* \"#utility.yul\":5993:6003   */\n  dup4\n    /* \"#utility.yul\":5989:6007   */\n  mul\n    /* \"#utility.yul\":6028:6125   */\n  tag_138\n    /* \"#utility.yul\":6058:6124   */\n  0xffffffffffffffffffffffffffffffffffffffffffffffffffffffffffffffff\n    /* \"#utility.yul\":6047:6056   */\n  dup3\n    /* \"#utility.yul\":6028:6125   */\n  tag_47\n  jump\t// in\ntag_138:\n    /* \"#utility.yul\":6146:6185   */\n  tag_139\n    /* \"#utility.yul\":6176:6184   */\n  dup7\n    /* \"#utility.yul\":6165:6174   */\n  dup4\n    /* \"#utility.yul\":6146:6185   */\n  tag_47\n  jump\t// in\ntag_139:\n    /* \"#utility.yul\":6134:6185   */\n  swap6\n  pop\n    /* \"#utility.yul\":6218:6222   */\n  dup1\n    /* \"#utility.yul\":6214:6223   */\n  not\n    /* \"#utility.yul\":6207:6212   */\n  dup5\n    /* \"#utility.yul\":6203:6224   */\n  and\n    /* \"#utility.yul\":6194:6224   */\n  swap4\n  pop\n    /* \"#utility.yul\":6267:6271   */\n  dup1\n    /* \"#utility.yul\":6257:6265   */\n  dup7\n    /* \"#utility.yul\":6253:6272   */\n  and\n    /* \"#utility.yul\":6246:6251   */\n  dup5\n    /* \"#utility.yul\":6243:6273   */\n  or\n    /* \"#utility.yul\":6233:6273   */\n  swap3\n  pop\n    /* \"#utility.yul\":5962:6279   */\n  pop\n  pop\n    /* \"#utility.yul\":5886:6279   */\n  swap4\n  swap3\n  pop\n  pop\n  pop\n  jump\t// out\n    /* \"#utility.yul\":6285:6362   */\ntag_49:\n    /* \"#utility.yul\":6322:6329   */\n  0x00\n    /* \"#utility.yul\":6351:6356   */\n  dup2\n    /* \"#utility.yul\":6340:6356   */\n  swap1\n  pop\n    /* \"#utility.yul\":6285:6362   */\n  swap2\n  swap1\n  pop\n  jump\t// out\n    /* \"#utility.yul\":6368:6428   */\ntag_50:\n    /* \"#utility.yul\":6396:6399   */\n  0x00\n    /* \"#utility.yul\":6417:6422   */\n  dup2\n    /* \"#utility.yul\":6410:6422   */\n  swap1\n  pop\n    /* \"#utility.yul\":6368:6428   */\n  swap2\n  swap1\n  pop\n  jump\t// out\n    /* \"#utility.yul\":6434:6576   */\ntag_51:\n    /* \"#utility.yul\":6484:6493   */\n  0x00\n    /* \"#utility.yul\":6517:6570   */\n  tag_143\n    /* \"#utility.yul\":6535:6569   */\n  tag_144\n    /* \"#utility.yul\":6544:6568   */\n  tag_145\n    /* \"#utility.yul\":6562:6567   */\n  dup5\n    /* \"#utility.yul\":6544:6568   */\n  tag_49\n  jump\t// in\ntag_145:\n    /* \"#utility.yul\":6535:6569   */\n  tag_50\n  jump\t// in\ntag_144:\n    /* \"#utility.yul\":6517:6570   */\n  tag_49\n  jump\t// in\ntag_143:\n    /* \"#utility.yul\":6504:6570   */\n  swap1\n  pop\n    /* \"#utility.yul\":6434:6576   */\n  swap2\n  swap1\n  pop\n  jump\t// out\n    /* \"#utility.yul\":6582:6657   */\ntag_52:\n    /* \"#utility.yul\":6625:6628   */\n  0x00\n    /* \"#utility.yul\":6646:6651   */\n  dup2\n    /* \"#utility.yul\":6639:6651   */\n  swap1\n  pop\n    /* \"#utility.yul\":6582:6657   */\n  swap2\n  swap1\n  pop\n  jump\t// out\n    /* \"#utility.yul\":6663:6932   */\ntag_53:\n    /* \"#utility.yul\":6773:6812   */\n  tag_148\n    /* \"#utility.yul\":6804:6811   */\n  dup4\n    /* \"#utility.yul\":6773:6812   */\n  tag_51\n  jump\t// in\ntag_148:\n    /* \"#utility.yul\":6834:6925   */\n  tag_149\n    /* \"#utility.yul\":6883:6924   */\n  tag_150\n    /* \"#utility.yul\":6907:6923   */\n  dup3\n    /* \"#utility.yul\":6883:6924   */\n  tag_52\n  jump\t// in\ntag_150:\n    /* \"#utility.yul\":6875:6881   */\n  dup5\n    /* \"#utility.yul\":6868:6872   */\n  dup5\n    /* \"#utility.yul\":6862:6873   */\n  sload\n    /* \"#utility.yul\":6834:6925   */\n  tag_48\n  jump\t// in\ntag_149:\n    /* \"#utility.yul\":6828:6832   */\n  dup3\n    /* \"#utility.yul\":6821:6926   */\n  sstore\n    /* \"#utility.yul\":6739:6932   */\n  pop\n    /* \"#utility.yul\":6663:6932   */\n  pop\n  pop\n  pop\n  jump\t// out\n    /* \"#utility.yul\":6938:7011   */\ntag_54:\n    /* \"#utility.yul\":6983:6986   */\n  0x00\n    /* \"#utility.yul\":6938:7011   */\n  swap1\n  jump\t// out\n    /* \"#utility.yul\":7017:7206   */\ntag_55:\n    /* \"#utility.yul\":7094:7126   */\n  tag_153\n  tag_54\n  jump\t// in\ntag_153:\n    /* \"#utility.yul\":7135:7200   */\n  tag_154\n    /* \"#utility.yul\":7193:7199   */\n  dup2\n    /* \"#utility.yul\":7185:7191   */\n  dup5\n    /* \"#utility.yul\":7179:7183   */\n  dup5\n    /* \"#utility.yul\":7135:7200   */\n  tag_53\n  jump\t// in\ntag_154:\n    /* \"#utility.yul\":7070:7206   */\n  pop\n    /* \"#utility.yul\":7017:7206   */\n  pop\n  pop\n  jump\t// out\n    /* \"#utility.yul\":7212:7398   */\ntag_56:\n    /* \"#utility.yul\":7272:7392   */\ntag_156:\n    /* \"#utility.yul\":7289:7292   */\n  dup2\n    /* \"#utility.yul\":7282:7287   */\n  dup2\n    /* \"#utility.yul\":7279:7293   */\n  lt\n    /* \"#utility.yul\":7272:7392   */\n  iszero\n  tag_158\n  jumpi\n    /* \"#utility.yul\":7343:7382   */\n  tag_159\n    /* \"#utility.yul\":7380:7381   */\n  0x00\n    /* \"#utility.yul\":7373:7378   */\n  dup3\n    /* \"#utility.yul\":7343:7382   */\n  tag_55\n  jump\t// in\ntag_159:\n    /* \"#utility.yul\":7316:7317   */\n  0x01\n    /* \"#utility.yul\":7309:7314   */\n  dup2\n    /* \"#utility.yul\":7305:7318   */\n  add\n    /* \"#utility.yul\":7296:7318   */\n  swap1\n  pop\n    /* \"#utility.yul\":7272:7392   */\n  jump(tag_156)\ntag_158:\n    /* \"#utility.yul\":7212:7398   */\n  pop\n  pop\n  jump\t// out\n    /* \"#utility.yul\":7404:7947   */\ntag_57:\n    /* \"#utility.yul\":7505:7507   */\n  0x1f\n    /* \"#utility.yul\":7500:7503   */\n  dup3\n    /* \"#utility.yul\":7497:7508   */\n  gt\n    /* \"#utility.yul\":7494:7940   */\n  iszero\n  tag_161\n  jumpi\n    /* \"#utility.yul\":7539:7577   */\n  tag_162\n    /* \"#utility.yul\":7571:7576   */\n  dup2\n    /* \"#utility.yul\":7539:7577   */\n  tag_45\n  jump\t// in\ntag_162:\n    /* \"#utility.yul\":7623:7652   */\n  tag_163\n    /* \"#utility.yul\":7641:7651   */\n  dup5\n    /* \"#utility.yul\":7623:7652   */\n  tag_46\n  jump\t// in\ntag_163:\n    /* \"#utility.yul\":7613:7621   */\n  dup2\n    /* \"#utility.yul\":7609:7653   */\n  add\n    /* \"#utility.yul\":7806:7808   */\n  0x20\n    /* \"#utility.yul\":7794:7804   */\n  dup6\n    /* \"#utility.yul\":7791:7809   */\n  lt\n    /* \"#utility.yul\":7788:7837   */\n  iszero\n  tag_164\n  jumpi\n    /* \"#utility.yul\":7827:7835   */\n  dup2\n    /* \"#utility.yul\":7812:7835   */\n  swap1\n  pop\n    /* \"#utility.yul\":7788:7837   */\ntag_164:\n    /* \"#utility.yul\":7850:7930   */\n  tag_165\n    /* \"#utility.yul\":7906:7928   */\n  tag_166\n    /* \"#utility.yul\":7924:7927   */\n  dup6\n    /* \"#utility.yul\":7906:7928   */\n  tag_46\n  jump\t// in\ntag_166:\n    /* \"#utility.yul\":7896:7904   */\n  dup4\n    /* \"#utility.yul\":7892:7929   */\n  add\n    /* \"#utility.yul\":7879:7890   */\n  dup3\n    /* \"#utility.yul\":7850:7930   */\n  tag_56\n  jump\t// in\ntag_165:\n    /* \"#utility.yul\":7509:7940   */\n  pop\n  pop\n    /* \"#utility.yul\":7494:7940   */\ntag_161:\n    /* \"#utility.yul\":7404:7947   */\n  pop\n  pop\n  pop\n  jump\t// out\n    /* \"#utility.yul\":7953:8070   */\ntag_58:\n    /* \"#utility.yul\":8007:8015   */\n  0x00\n    /* \"#utility.yul\":8057:8062   */\n  dup3\n    /* \"#utility.yul\":8051:8055   */\n  dup3\n    /* \"#utility.yul\":8047:8063   */\n  shr\n    /* \"#utility.yul\":8026:8063   */\n  swap1\n  pop\n    /* \"#utility.yul\":7953:8070   */\n  swap3\n  swap2\n  pop\n  pop\n  jump\t// out\n    /* \"#utility.yul\":8076:8245   */\ntag_59:\n    /* \"#utility.yul\":8120:8126   */\n  0x00\n    /* \"#utility.yul\":8153:8204   */\n  tag_169\n    /* \"#utility.yul\":8201:8202   */\n  0x00\n    /* \"#utility.yul\":8197:8203   */\n  not\n    /* \"#utility.yul\":8189:8194   */\n  dup5\n    /* \"#utility.yul\":8186:8187   */\n  0x08\n    /* \"#utility.yul\":8182:8195   */\n  mul\n    /* \"#utility.yul\":8153:8204   */\n  tag_58\n  jump\t// in\ntag_169:\n    /* \"#utility.yul\":8149:8205   */\n  not\n    /* \"#utility.yul\":8234:8238   */\n  dup1\n    /* \"#utility.yul\":8228:8232   */\n  dup4\n    /* \"#utility.yul\":8224:8239   */\n  and\n    /* \"#utility.yul\":8214:8239   */\n  swap2\n  pop\n    /* \"#utility.yul\":8127:8245   */\n  pop\n    /* \"#utility.yul\":8076:8245   */\n  swap3\n  swap2\n  pop\n  pop\n  jump\t// out\n    /* \"#utility.yul\":8250:8545   */\ntag_60:\n    /* \"#utility.yul\":8326:8330   */\n  0x00\n    /* \"#utility.yul\":8472:8501   */\n  tag_171\n    /* \"#utility.yul\":8497:8500   */\n  dup4\n    /* \"#utility.yul\":8491:8495   */\n  dup4\n    /* \"#utility.yul\":8472:8501   */\n  tag_59\n  jump\t// in\ntag_171:\n    /* \"#utility.yul\":8464:8501   */\n  swap2\n  pop\n    /* \"#utility.yul\":8534:8537   */\n  dup3\n    /* \"#utility.yul\":8531:8532   */\n  0x02\n    /* \"#utility.yul\":8527:8538   */\n  mul\n    /* \"#utility.yul\":8521:8525   */\n  dup3\n    /* \"#utility.yul\":8518:8539   */\n  or\n    /* \"#utility.yul\":8510:8539   */\n  swap1\n  pop\n    /* \"#utility.yul\":8250:8545   */\n  swap3\n  swap2\n  pop\n  pop\n  jump\t// out\n    /* \"#utility.yul\":8550:9945   */\ntag_9:\n    /* \"#utility.yul\":8667:8704   */\n  tag_173\n    /* \"#utility.yul\":8700:8703   */\n  dup3\n    /* \"#utility.yul\":8667:8704   */\n  tag_42\n  jump\t// in\ntag_173:\n    /* \"#utility.yul\":8769:8787   */\n  0xffffffffffffffff\n    /* \"#utility.yul\":8761:8767   */\n  dup2\n    /* \"#utility.yul\":8758:8788   */\n  gt\n    /* \"#utility.yul\":8755:8811   */\n  iszero\n  tag_174\n  jumpi\n    /* \"#utility.yul\":8791:8809   */\n  tag_175\n  tag_32\n  jump\t// in\ntag_175:\n    /* \"#utility.yul\":8755:8811   */\ntag_174:\n    /* \"#utility.yul\":8835:8873   */\n  tag_176\n    /* \"#utility.yul\":8867:8871   */\n  dup3\n    /* \"#utility.yul\":8861:8872   */\n  sload\n    /* \"#utility.yul\":8835:8873   */\n  tag_44\n  jump\t// in\ntag_176:\n    /* \"#utility.yul\":8920:8987   */\n  tag_177\n    /* \"#utility.yul\":8980:8986   */\n  dup3\n    /* \"#utility.yul\":8972:8978   */\n  dup3\n    /* \"#utility.yul\":8966:8970   */\n  dup6\n    /* \"#utility.yul\":8920:8987   */\n  tag_57\n  jump\t// in\ntag_177:\n    /* \"#utility.yul\":9014:9015   */\n  0x00\n    /* \"#utility.yul\":9038:9042   */\n  0x20\n    /* \"#utility.yul\":9025:9042   */\n  swap1\n  pop\n    /* \"#utility.yul\":9070:9072   */\n  0x1f\n    /* \"#utility.yul\":9062:9068   */\n  dup4\n    /* \"#utility.yul\":9059:9073   */\n  gt\n    /* \"#utility.yul\":9087:9088   */\n  0x01\n    /* \"#utility.yul\":9082:9700   */\n  dup2\n  eq\n  tag_179\n  jumpi\n    /* \"#utility.yul\":9744:9745   */\n  0x00\n    /* \"#utility.yul\":9761:9767   */\n  dup5\n    /* \"#utility.yul\":9758:9835   */\n  iszero\n  tag_180\n  jumpi\n    /* \"#utility.yul\":9810:9819   */\n  dup3\n    /* \"#utility.yul\":9805:9808   */\n  dup8\n    /* \"#utility.yul\":9801:9820   */\n  add\n    /* \"#utility.yul\":9795:9821   */\n  mload\n    /* \"#utility.yul\":9786:9821   */\n  swap1\n  pop\n    /* \"#utility.yul\":9758:9835   */\ntag_180:\n    /* \"#utility.yul\":9861:9928   */\n  tag_181\n    /* \"#utility.yul\":9921:9927   */\n  dup6\n    /* \"#utility.yul\":9914:9919   */\n  dup3\n    /* \"#utility.yul\":9861:9928   */\n  tag_60\n  jump\t// in\ntag_181:\n    /* \"#utility.yul\":9855:9859   */\n  dup7\n    /* \"#utility.yul\":9848:9929   */\n  sstore\n    /* \"#utility.yul\":9717:9939   */\n  pop\n    /* \"#utility.yul\":9052:9939   */\n  jump(tag_178)\n    /* \"#utility.yul\":9082:9700   */\ntag_179:\n    /* \"#utility.yul\":9134:9138   */\n  0x1f\n    /* \"#utility.yul\":9130:9139   */\n  not\n    /* \"#utility.yul\":9122:9128   */\n  dup5\n    /* \"#utility.yul\":9118:9140   */\n  and\n    /* \"#utility.yul\":9168:9205   */\n  tag_182\n    /* \"#utility.yul\":9200:9204   */\n  dup7\n    /* \"#utility.yul\":9168:9205   */\n  tag_45\n  jump\t// in\ntag_182:\n    /* \"#utility.yul\":9227:9228   */\n  0x00\n    /* \"#utility.yul\":9241:9449   */\ntag_183:\n    /* \"#utility.yul\":9255:9262   */\n  dup3\n    /* \"#utility.yul\":9252:9253   */\n  dup2\n    /* \"#utility.yul\":9249:9263   */\n  lt\n    /* \"#utility.yul\":9241:9449   */\n  iszero\n  tag_185\n  jumpi\n    /* \"#utility.yul\":9334:9343   */\n  dup5\n    /* \"#utility.yul\":9329:9332   */\n  dup10\n    /* \"#utility.yul\":9325:9344   */\n  add\n    /* \"#utility.yul\":9319:9345   */\n  mload\n    /* \"#utility.yul\":9311:9317   */\n  dup3\n    /* \"#utility.yul\":9304:9346   */\n  sstore\n    /* \"#utility.yul\":9385:9386   */\n  0x01\n    /* \"#utility.yul\":9377:9383   */\n  dup3\n    /* \"#utility.yul\":9373:9387   */\n  add\n    /* \"#utility.yul\":9363:9387   */\n  swap2\n  pop\n    /* \"#utility.yul\":9432:9434   */\n  0x20\n    /* \"#utility.yul\":9421:9430   */\n  dup6\n    /* \"#utility.yul\":9417:9435   */\n  add\n    /* \"#utility.yul\":9404:9435   */\n  swap5\n  pop\n    /* \"#utility.yul\":9278:9282   */\n  0x20\n    /* \"#utility.yul\":9275:9276   */\n  dup2\n    /* \"#utility.yul\":9271:9283   */\n  add\n    /* \"#utility.yul\":9266:9283   */\n  swap1\n  pop\n    /* \"#utility.yul\":9241:9449   */\n  jump(tag_183)\ntag_185:\n    /* \"#utility.yul\":9477:9483   */\n  dup7\n    /* \"#utility.yul\":9468:9475   */\n  dup4\n    /* \"#utility.yul\":9465:9484   */\n  lt\n    /* \"#utility.yul\":9462:9641   */\n  iszero\n  tag_186\n  jumpi\n    /* \"#utility.yul\":9535:9544   */\n  dup5\n    /* \"#utility.yul\":9530:9533   */\n  dup10\n    /* \"#utility.yul\":9526:9545   */\n  add\n    /* \"#utility.yul\":9520:9546   */\n  mload\n    /* \"#utility.yul\":9578:9626   */\n  tag_187\n    /* \"#utility.yul\":9620:9624   */\n  0x1f\n    /* \"#utility.yul\":9612:9618   */\n  dup10\n    /* \"#utility.yul\":9608:9625   */\n  and\n    /* \"#utility.yul\":9597:9606   */\n  dup3\n    /* \"#utility.yul\":9578:9626   */\n  tag_59\n  jump\t// in\ntag_187:\n    /* \"#utility.yul\":9570:9576   */\n  dup4\n    /* \"#utility.yul\":9563:9627   */\n  sstore\n    /* \"#utility.yul\":9485:9641   */\n  pop\n    /* \"#utility.yul\":9462:9641   */\ntag_186:\n    /* \"#utility.yul\":9687:9688   */\n  0x01\n    /* \"#utility.yul\":9683:9684   */\n  0x02\n    /* \"#utility.yul\":9675:9681   */\n  dup9\n    /* \"#utility.yul\":9671:9685   */\n  mul\n    /* \"#utility.yul\":9667:9689   */\n  add\n    /* \"#utility.yul\":9661:9665   */\n  dup9\n    /* \"#utility.yul\":9654:9690   */\n  sstore\n    /* \"#utility.yul\":9089:9700   */\n  pop\n  pop\n  pop\n    /* \"#utility.yul\":9052:9939   */\ntag_178:\n  pop\n    /* \"#utility.yul\":8642:9945   */\n  pop\n  pop\n  pop\n    /* \"#utility.yul\":8550:9945   */\n  pop\n  pop\n  jump\t// out\n    /* \"#utility.yul\":9951:10098   */\ntag_61:\n    /* \"#utility.yul\":10052:10063   */\n  0x00\n    /* \"#utility.yul\":10089:10092   */\n  dup2\n    /* \"#utility.yul\":10074:10092   */\n  swap1\n  pop\n    /* \"#utility.yul\":9951:10098   */\n  swap3\n  swap2\n  pop\n  pop\n  jump\t// out\n    /* \"#utility.yul\":10104:10248   */\ntag_62:\n    /* \"#utility.yul\":10156:10160   */\n  0x00\n    /* \"#utility.yul\":10179:10182   */\n  dup2\n    /* \"#utility.yul\":10171:10182   */\n  swap1\n  pop\n    /* \"#utility.yul\":10202:10205   */\n  dup2\n    /* \"#utility.yul\":10199:10200   */\n  0x00\n    /* \"#utility.yul\":10192:10206   */\n  mstore\n    /* \"#utility.yul\":10236:10240   */\n  0x20\n    /* \"#utility.yul\":10233:10234   */\n  0x00\n    /* \"#utility.yul\":10223:10241   */\n  keccak256\n    /* \"#utility.yul\":10215:10241   */\n  swap1\n  pop\n    /* \"#utility.yul\":10104:10248   */\n  swap2\n  swap1\n  pop\n  jump\t// out\n    /* \"#utility.yul\":10276:11154   */\ntag_63:\n    /* \"#utility.yul\":10381:10384   */\n  0x00\n    /* \"#utility.yul\":10418:10423   */\n  dup2\n    /* \"#utility.yul\":10412:10424   */\n  sload\n    /* \"#utility.yul\":10447:10483   */\n  tag_191\n    /* \"#utility.yul\":10473:10482   */\n  dup2\n    /* \"#utility.yul\":10447:10483   */\n  tag_44\n  jump\t// in\ntag_191:\n    /* \"#utility.yul\":10499:10587   */\n  tag_192\n    /* \"#utility.yul\":10580:10586   */\n  dup2\n    /* \"#utility.yul\":10575:10578   */\n  dup7\n    /* \"#utility.yul\":10499:10587   */\n  tag_61\n  jump\t// in\ntag_192:\n    /* \"#utility.yul\":10492:10587   */\n  swap5\n  pop\n    /* \"#utility.yul\":10618:10619   */\n  0x01\n    /* \"#utility.yul\":10607:10616   */\n  dup3\n    /* \"#utility.yul\":10603:10620   */\n  and\n    /* \"#utility.yul\":10634:10635   */\n  0x00\n    /* \"#utility.yul\":10629:10795   */\n  dup2\n  eq\n  tag_194\n  jumpi\n    /* \"#utility.yul\":10809:10810   */\n  0x01\n    /* \"#utility.yul\":10804:11148   */\n  dup2\n  eq\n  tag_195\n  jumpi\n    /* \"#utility.yul\":10596:11148   */\n  jump(tag_193)\n    /* \"#utility.yul\":10629:10795   */\ntag_194:\n    /* \"#utility.yul\":10713:10717   */\n  0xff\n    /* \"#utility.yul\":10709:10718   */\n  not\n    /* \"#utility.yul\":10698:10707   */\n  dup4\n    /* \"#utility.yul\":10694:10719   */\n  and\n    /* \"#utility.yul\":10689:10692   */\n  dup7\n    /* \"#utility.yul\":10682:10720   */\n  mstore\n    /* \"#utility.yul\":10775:10781   */\n  dup2\n    /* \"#utility.yul\":10768:10782   */\n  iszero\n    /* \"#utility.yul\":10761:10783   */\n  iszero\n    /* \"#utility.yul\":10753:10759   */\n  dup3\n    /* \"#utility.yul\":10749:10784   */\n  mul\n    /* \"#utility.yul\":10744:10747   */\n  dup7\n    /* \"#utility.yul\":10740:10785   */\n  add\n    /* \"#utility.yul\":10733:10785   */\n  swap4\n  pop\n    /* \"#utility.yul\":10629:10795   */\n  jump(tag_193)\n    /* \"#utility.yul\":10804:11148   */\ntag_195:\n    /* \"#utility.yul\":10871:10912   */\n  tag_196\n    /* \"#utility.yul\":10906:10911   */\n  dup6\n    /* \"#utility.yul\":10871:10912   */\n  tag_62\n  jump\t// in\ntag_196:\n    /* \"#utility.yul\":10934:10935   */\n  0x00\n    /* \"#utility.yul\":10948:11102   */\ntag_197:\n    /* \"#utility.yul\":10962:10968   */\n  dup4\n    /* \"#utility.yul\":10959:10960   */\n  dup2\n    /* \"#utility.yul\":10956:10969   */\n  lt\n    /* \"#utility.yul\":10948:11102   */\n  iszero\n  tag_199\n  jumpi\n    /* \"#utility.yul\":11036:11043   */\n  dup2\n    /* \"#utility.yul\":11030:11044   */\n  sload\n    /* \"#utility.yul\":11026:11027   */\n  dup2\n    /* \"#utility.yul\":11021:11024   */\n  dup10\n    /* \"#utility.yul\":11017:11028   */\n  add\n    /* \"#utility.yul\":11010:11045   */\n  mstore\n    /* \"#utility.yul\":11086:11087   */\n  0x01\n    /* \"#utility.yul\":11077:11084   */\n  dup3\n    /* \"#utility.yul\":11073:11088   */\n  add\n    /* \"#utility.yul\":11062:11088   */\n  swap2\n  pop\n    /* \"#utility.yul\":10984:10988   */\n  0x20\n    /* \"#utility.yul\":10981:10982   */\n  dup2\n    /* \"#utility.yul\":10977:10989   */\n  add\n    /* \"#utility.yul\":10972:10989   */\n  swap1\n  pop\n    /* \"#utility.yul\":10948:11102   */\n  jump(tag_197)\ntag_199:\n    /* \"#utility.yul\":11131:11137   */\n  dup4\n    /* \"#utility.yul\":11126:11129   */\n  dup9\n    /* \"#utility.yul\":11122:11138   */\n  add\n    /* \"#utility.yul\":11115:11138   */\n  swap6\n  pop\n    /* \"#utility.yul\":10811:11148   */\n  pop\n  pop\n    /* \"#utility.yul\":10596:11148   */\ntag_193:\n  pop\n    /* \"#utility.yul\":10385:11154   */\n  pop\n  pop\n    /* \"#utility.yul\":10276:11154   */\n  swap3\n  swap2\n  pop\n  pop\n  jump\t// out\n    /* \"#utility.yul\":11160:11433   */\ntag_18:\n    /* \"#utility.yul\":11291:11294   */\n  0x00\n    /* \"#utility.yul\":11313:11407   */\n  tag_201\n    /* \"#utility.yul\":11403:11406   */\n  dup3\n    /* \"#utility.yul\":11394:11400   */\n  dup5\n    /* \"#utility.yul\":11313:11407   */\n  tag_63\n  jump\t// in\ntag_201:\n    /* \"#utility.yul\":11306:11407   */\n  swap2\n  pop\n    /* \"#utility.yul\":11424:11427   */\n  dup2\n    /* \"#utility.yul\":11417:11427   */\n  swap1\n  pop\n    /* \"#utility.yul\":11160:11433   */\n  swap3\n  swap2\n  pop\n  pop\n  jump\t// out\n    /* \"#utility.yul\":11439:11516   */\ntag_64:\n    /* \"#utility.yul\":11476:11483   */\n  0x00\n    /* \"#utility.yul\":11505:11510   */\n  dup2\n    /* \"#utility.yul\":11494:11510   */\n  swap1\n  pop\n    /* \"#utility.yul\":11439:11516   */\n  swap2\n  swap1\n  pop\n  jump\t// out\n    /* \"#utility.yul\":11522:11640   */\ntag_65:\n    /* \"#utility.yul\":11609:11633   */\n  tag_204\n    /* \"#utility.yul\":11627:11632   */\n  dup2\n    /* \"#utility.yul\":11609:11633   */\n  tag_64\n  jump\t// in\ntag_204:\n    /* \"#utility.yul\":11604:11607   */\n  dup3\n    /* \"#utility.yul\":11597:11634   */\n  mstore\n    /* \"#utility.yul\":11522:11640   */\n  pop\n  pop\n  jump\t// out\n    /* \"#utility.yul\":11646:11764   */\ntag_66:\n    /* \"#utility.yul\":11733:11757   */\n  tag_206\n    /* \"#utility.yul\":11751:11756   */\n  dup2\n    /* \"#utility.yul\":11733:11757   */\n  tag_49\n  jump\t// in\ntag_206:\n    /* \"#utility.yul\":11728:11731   */\n  dup3\n    /* \"#utility.yul\":11721:11758   */\n  mstore\n    /* \"#utility.yul\":11646:11764   */\n  pop\n  pop\n  jump\t// out\n    /* \"#utility.yul\":11770:11888   */\ntag_67:\n    /* \"#utility.yul\":11857:11881   */\n  tag_208\n    /* \"#utility.yul\":11875:11880   */\n  dup2\n    /* \"#utility.yul\":11857:11881   */\n  tag_25\n  jump\t// in\ntag_208:\n    /* \"#utility.yul\":11852:11855   */\n  dup3\n    /* \"#utility.yul\":11845:11882   */\n  mstore\n    /* \"#utility.yul\":11770:11888   */\n  pop\n  pop\n  jump\t// out\n    /* \"#utility.yul\":11894:12558   */\ntag_20:\n    /* \"#utility.yul\":12099:12103   */\n  0x00\n    /* \"#utility.yul\":12137:12140   */\n  0xa0\n    /* \"#utility.yul\":12126:12135   */\n  dup3\n    /* \"#utility.yul\":12122:12141   */\n  add\n    /* \"#utility.yul\":12114:12141   */\n  swap1\n  pop\n    /* \"#utility.yul\":12151:12222   */\n  tag_210\n    /* \"#utility.yul\":12219:12220   */\n  0x00\n    /* \"#utility.yul\":12208:12217   */\n  dup4\n    /* \"#utility.yul\":12204:12221   */\n  add\n    /* \"#utility.yul\":12195:12201   */\n  dup9\n    /* \"#utility.yul\":12151:12222   */\n  tag_65\n  jump\t// in\ntag_210:\n    /* \"#utility.yul\":12232:12304   */\n  tag_211\n    /* \"#utility.yul\":12300:12302   */\n  0x20\n    /* \"#utility.yul\":12289:12298   */\n  dup4\n    /* \"#utility.yul\":12285:12303   */\n  add\n    /* \"#utility.yul\":12276:12282   */\n  dup8\n    /* \"#utility.yul\":12232:12304   */\n  tag_65\n  jump\t// in\ntag_211:\n    /* \"#utility.yul\":12314:12386   */\n  tag_212\n    /* \"#utility.yul\":12382:12384   */\n  0x40\n    /* \"#utility.yul\":12371:12380   */\n  dup4\n    /* \"#utility.yul\":12367:12385   */\n  add\n    /* \"#utility.yul\":12358:12364   */\n  dup7\n    /* \"#utility.yul\":12314:12386   */\n  tag_65\n  jump\t// in\ntag_212:\n    /* \"#utility.yul\":12396:12468   */\n  tag_213\n    /* \"#utility.yul\":12464:12466   */\n  0x60\n    /* \"#utility.yul\":12453:12462   */\n  dup4\n    /* \"#utility.yul\":12449:12467   */\n  add\n    /* \"#utility.yul\":12440:12446   */\n  dup6\n    /* \"#utility.yul\":12396:12468   */\n  tag_66\n  jump\t// in\ntag_213:\n    /* \"#utility.yul\":12478:12551   */\n  tag_214\n    /* \"#utility.yul\":12546:12549   */\n  0x80\n    /* \"#utility.yul\":12535:12544   */\n  dup4\n    /* \"#utility.yul\":12531:12550   */\n  add\n    /* \"#utility.yul\":12522:12528   */\n  dup5\n    /* \"#utility.yul\":12478:12551   */\n  tag_67\n  jump\t// in\ntag_214:\n    /* \"#utility.yul\":11894:12558   */\n  swap7\n  swap6\n  pop\n  pop\n  pop\n  pop\n  pop\n  pop\n  jump\t// out\n    /* \"SquiddyCore.sol\":143:4427  contract SquiddyCore is ERC4626 {... */\ntag_15:\n  mload(0x80)\n  mload(0xa0)\n  mload(0xc0)\n  mload(0xe0)\n  codecopy(0x00, dataOffset(sub_0), dataSize(sub_0))\n  0x00\n  assignImmutable(\"0xecac27c21aa9a89d7be9ad03c2d91e82cbd466284ecdf2bd5bad7f953539cc45\")\n  0x00\n  assignImmutable(\"0x880de8116b3dfac28e9ff528a9fef1d1e0a51449c1addce011ffec1f302992b6\")\n  0x00\n  assignImmutable(\"0xd67d834462ca31eaef1f30157e31659f60355143b7441e6fc7d9eae1fa79f3f8\")\n  0x00\n  assignImmutable(\"0x6585423cb6456b1d4957f6454d2f004f0c4f58d53a00082412d5c2ef4b1b31fd\")\n  return(0x00, dataSize(sub_0))\nstop\n\nsub_0: assembly {\n        /* \"SquiddyCore.sol\":143:4427  contract SquiddyCore is ERC4626 {... */\n      mstore(0x40, 0x80)\n      callvalue\n      dup1\n      iszero\n      tag_1\n      jumpi\n      0x00\n      dup1\n      revert\n    tag_1:\n      pop\n      jumpi(tag_2, lt(calldatasize, 0x04))\n      shr(0xe0, calldataload(0x00))\n      dup1\n      0x7ecebe00\n      gt\n      tag_38\n      jumpi\n      dup1\n      0xc63d75b6\n      gt\n      tag_39\n      jumpi\n      dup1\n      0xd905777e\n      gt\n      tag_40\n      jumpi\n      dup1\n      0xd905777e\n      eq\n      tag_33\n      jumpi\n      dup1\n      0xdd62ed3e\n      eq\n      tag_34\n      jumpi\n      dup1\n      0xef8b30f7\n      eq\n      tag_35\n      jumpi\n      dup1\n      0xf2fde38b\n      eq\n      tag_36\n      jumpi\n      dup1\n      0xfc407ae7\n      eq\n      tag_37\n      jumpi\n      jump(tag_2)\n    tag_40:\n      dup1\n      0xc63d75b6\n      eq\n      tag_29\n      jumpi\n      dup1\n      0xc6e6f592\n      eq\n      tag_30\n      jumpi\n      dup1\n      0xce96cb77\n      eq\n      tag_31\n      jumpi\n      dup1\n      0xd505accf\n      eq\n      tag_32\n      jumpi\n      jump(tag_2)\n    tag_39:\n      dup1\n      0xa9059cbb\n      gt\n      tag_41\n      jumpi\n      dup1\n      0xa9059cbb\n      eq\n      tag_24\n      jumpi\n      dup1\n      0xb3d7f6b9\n      eq\n      tag_25\n      jumpi\n      dup1\n      0xb460af94\n      eq\n      tag_26\n      jumpi\n      dup1\n      0xba087652\n      eq\n      tag_27\n      jumpi\n      dup1\n      0xbc368a8a\n      eq\n      tag_28\n      jumpi\n      jump(tag_2)\n    tag_41:\n      dup1\n      0x7ecebe00\n      eq\n      tag_20\n      jumpi\n      dup1\n      0x7fd6f15c\n      eq\n      tag_21\n      jumpi\n      dup1\n      0x94bf804d\n      eq\n      tag_22\n      jumpi\n      dup1\n      0x95d89b41\n      eq\n      tag_23\n      jumpi\n      jump(tag_2)\n    tag_38:\n      dup1\n      0x3644e515\n      gt\n      tag_42\n      jumpi\n      dup1\n      0x4cdad506\n      gt\n      tag_43\n      jumpi\n      dup1\n      0x4cdad506\n      eq\n      tag_15\n      jumpi\n      dup1\n      0x6e553f65\n      eq\n      tag_16\n      jumpi\n      dup1\n      0x70a08231\n      eq\n      tag_17\n      jumpi\n      dup1\n      0x715018a6\n      eq\n      tag_18\n      jumpi\n      dup1\n      0x7ce3489b\n      eq\n      tag_19\n      jumpi\n      jump(tag_2)\n    tag_43:\n      dup1\n      0x3644e515\n      eq\n      tag_11\n      jumpi\n      dup1\n      0x38d52e0f\n      eq\n      tag_12\n      jumpi\n      dup1\n      0x402d267d\n      eq\n      tag_13\n      jumpi\n      dup1\n      0x481c6a75\n      eq\n      tag_14\n      jumpi\n      jump(tag_2)\n    tag_42:\n      dup1\n      0x0a28a477\n      gt\n      tag_44\n      jumpi\n      dup1\n      0x0a28a477\n      eq\n      tag_7\n      jumpi\n      dup1\n      0x18160ddd\n      eq\n      tag_8\n      jumpi\n      dup1\n      0x23b872dd\n      eq\n      tag_9\n      jumpi\n      dup1\n      0x313ce567\n      eq\n      tag_10\n      jumpi\n      jump(tag_2)\n    tag_44:\n      dup1\n      0x01e1d114\n      eq\n      tag_3\n      jumpi\n      dup1\n      0x06fdde03\n      eq\n      tag_4\n      jumpi\n      dup1\n      0x07a2d13a\n      eq\n      tag_5\n      jumpi\n      dup1\n      0x095ea7b3\n      eq\n      tag_6\n      jumpi\n    tag_2:\n      0x00\n      dup1\n      revert\n        /* \"SquiddyCore.sol\":1730:1846  function totalAssets() public view override returns (uint256) {... */\n    tag_3:\n      tag_45\n      tag_46\n      jump\t// in\n    tag_45:\n      mload(0x40)\n      tag_47\n      swap2\n      swap1\n      tag_48\n      jump\t// in\n    tag_47:\n      mload(0x40)\n      dup1\n      swap2\n      sub\n      swap1\n      return\n        /* \"ERC20.sol\":1061:1079  string public name */\n    tag_4:\n      tag_49\n      tag_50\n      jump\t// in\n    tag_49:\n      mload(0x40)\n      tag_51\n      swap2\n      swap1\n      tag_52\n      jump\t// in\n    tag_51:\n      mload(0x40)\n      dup1\n      swap2\n      sub\n      swap1\n      return\n        /* \"ERC4626.sol\":4620:4913  function convertToAssets(uint256 shares)... */\n    tag_5:\n      tag_53\n      0x04\n      dup1\n      calldatasize\n      sub\n      dup2\n      add\n      swap1\n      tag_54\n      swap2\n      swap1\n      tag_55\n      jump\t// in\n    tag_54:\n      tag_56\n      jump\t// in\n    tag_53:\n      mload(0x40)\n      tag_57\n      swap2\n      swap1\n      tag_48\n      jump\t// in\n    tag_57:\n      mload(0x40)\n      dup1\n      swap2\n      sub\n      swap1\n      return\n        /* \"ERC20.sol\":2491:2730  function approve(address spender, uint256 amount)... */\n    tag_6:\n      tag_58\n      0x04\n      dup1\n      calldatasize\n      sub\n      dup2\n      add\n      swap1\n      tag_59\n      swap2\n      swap1\n      tag_60\n      jump\t// in\n    tag_59:\n      tag_61\n      jump\t// in\n    tag_58:\n      mload(0x40)\n      tag_62\n      swap2\n      swap1\n      tag_63\n      jump\t// in\n    tag_62:\n      mload(0x40)\n      dup1\n      swap2\n      sub\n      swap1\n      return\n        /* \"ERC4626.sol\":5343:5634  function previewWithdraw(uint256 assets)... */\n    tag_7:\n      tag_64\n      0x04\n      dup1\n      calldatasize\n      sub\n      dup2\n      add\n      swap1\n      tag_65\n      swap2\n      swap1\n      tag_55\n      jump\t// in\n    tag_65:\n      tag_66\n      jump\t// in\n    tag_64:\n      mload(0x40)\n      tag_67\n      swap2\n      swap1\n      tag_48\n      jump\t// in\n    tag_67:\n      mload(0x40)\n      dup1\n      swap2\n      sub\n      swap1\n      return\n        /* \"ERC20.sol\":1334:1360  uint256 public totalSupply */\n    tag_8:\n      tag_68\n      tag_69\n      jump\t// in\n    tag_68:\n      mload(0x40)\n      tag_70\n      swap2\n      swap1\n      tag_48\n      jump\t// in\n    tag_70:\n      mload(0x40)\n      dup1\n      swap2\n      sub\n      swap1\n      return\n        /* \"ERC20.sol\":3143:3747  function transferFrom(... */\n    tag_9:\n      tag_71\n      0x04\n      dup1\n      calldatasize\n      sub\n      dup2\n      add\n      swap1\n      tag_72\n      swap2\n      swap1\n      tag_73\n      jump\t// in\n    tag_72:\n      tag_74\n      jump\t// in\n    tag_71:\n      mload(0x40)\n      tag_75\n      swap2\n      swap1\n      tag_63\n      jump\t// in\n    tag_75:\n      mload(0x40)\n      dup1\n      swap2\n      sub\n      swap1\n      return\n        /* \"ERC20.sol\":1113:1144  uint8 public immutable decimals */\n    tag_10:\n      tag_76\n      tag_77\n      jump\t// in\n    tag_76:\n      mload(0x40)\n      tag_78\n      swap2\n      swap1\n      tag_79\n      jump\t// in\n    tag_78:\n      mload(0x40)\n      dup1\n      swap2\n      sub\n      swap1\n      return\n        /* \"ERC20.sol\":5471:5692  function DOMAIN_SEPARATOR() public view virtual returns (bytes32) {... */\n    tag_11:\n      tag_80\n      tag_81\n      jump\t// in\n    tag_80:\n      mload(0x40)\n      tag_82\n      swap2\n      swap1\n      tag_83\n      jump\t// in\n    tag_82:\n      mload(0x40)\n      dup1\n      swap2\n      sub\n      swap1\n      return\n        /* \"ERC4626.sol\":1165:1193  ERC20 public immutable asset */\n    tag_12:\n      tag_84\n      tag_85\n      jump\t// in\n    tag_84:\n      mload(0x40)\n      tag_86\n      swap2\n      swap1\n      tag_87\n      jump\t// in\n    tag_86:\n      mload(0x40)\n      dup1\n      swap2\n      sub\n      swap1\n      return\n        /* \"ERC4626.sol\":5997:6105  function maxDeposit(address) public view virtual returns (uint256) {... */\n    tag_13:\n      tag_88\n      0x04\n      dup1\n      calldatasize\n      sub\n      dup2\n      add\n      swap1\n      tag_89\n      swap2\n      swap1\n      tag_90\n      jump\t// in\n    tag_89:\n      tag_91\n      jump\t// in\n    tag_88:\n      mload(0x40)\n      tag_92\n      swap2\n      swap1\n      tag_48\n      jump\t// in\n    tag_92:\n      mload(0x40)\n      dup1\n      swap2\n      sub\n      swap1\n      return\n        /* \"SquiddyCore.sol\":2347:2436  function manager() public view virtual returns (address) {... */\n    tag_14:\n      tag_93\n      tag_94\n      jump\t// in\n    tag_93:\n      mload(0x40)\n      tag_95\n      swap2\n      swap1\n      tag_96\n      jump\t// in\n    tag_95:\n      mload(0x40)\n      dup1\n      swap2\n      sub\n      swap1\n      return\n        /* \"ERC4626.sol\":5640:5800  function previewRedeem(uint256 shares)... */\n    tag_15:\n      tag_97\n      0x04\n      dup1\n      calldatasize\n      sub\n      dup2\n      add\n      swap1\n      tag_98\n      swap2\n      swap1\n      tag_55\n      jump\t// in\n    tag_98:\n      tag_99\n      jump\t// in\n    tag_97:\n      mload(0x40)\n      tag_100\n      swap2\n      swap1\n      tag_48\n      jump\t// in\n    tag_100:\n      mload(0x40)\n      dup1\n      swap2\n      sub\n      swap1\n      return\n        /* \"ERC4626.sol\":1583:2127  function deposit(uint256 assets, address receiver)... */\n    tag_16:\n      tag_101\n      0x04\n      dup1\n      calldatasize\n      sub\n      dup2\n      add\n      swap1\n      tag_102\n      swap2\n      swap1\n      tag_103\n      jump\t// in\n    tag_102:\n      tag_104\n      jump\t// in\n    tag_101:\n      mload(0x40)\n      tag_105\n      swap2\n      swap1\n      tag_48\n      jump\t// in\n    tag_105:\n      mload(0x40)\n      dup1\n      swap2\n      sub\n      swap1\n      return\n        /* \"ERC20.sol\":1367:1411  mapping(address => uint256) public balanceOf */\n    tag_17:\n      tag_106\n      0x04\n      dup1\n      calldatasize\n      sub\n      dup2\n      add\n      swap1\n      tag_107\n      swap2\n      swap1\n      tag_90\n      jump\t// in\n    tag_107:\n      tag_108\n      jump\t// in\n    tag_106:\n      mload(0x40)\n      tag_109\n      swap2\n      swap1\n      tag_48\n      jump\t// in\n    tag_109:\n      mload(0x40)\n      dup1\n      swap2\n      sub\n      swap1\n      return\n        /* \"SquiddyCore.sol\":2787:2938  function renounceOwnership() public virtual onlyManager {... */\n    tag_18:\n      tag_110\n      tag_111\n      jump\t// in\n    tag_110:\n      stop\n        /* \"SquiddyCore.sol\":4029:4352  function setFeePercent(uint256 newFeePercent) external onlyManager {... */\n    tag_19:\n      tag_112\n      0x04\n      dup1\n      calldatasize\n      sub\n      dup2\n      add\n      swap1\n      tag_113\n      swap2\n      swap1\n      tag_55\n      jump\t// in\n    tag_113:\n      tag_114\n      jump\t// in\n    tag_112:\n      stop\n        /* \"ERC20.sol\":1781:1822  mapping(address => uint256) public nonces */\n    tag_20:\n      tag_115\n      0x04\n      dup1\n      calldatasize\n      sub\n      dup2\n      add\n      swap1\n      tag_116\n      swap2\n      swap1\n      tag_90\n      jump\t// in\n    tag_116:\n      tag_117\n      jump\t// in\n    tag_115:\n      mload(0x40)\n      tag_118\n      swap2\n      swap1\n      tag_48\n      jump\t// in\n    tag_118:\n      mload(0x40)\n      dup1\n      swap2\n      sub\n      swap1\n      return\n        /* \"SquiddyCore.sol\":3647:3672  uint256 public feePercent */\n    tag_21:\n      tag_119\n      tag_120\n      jump\t// in\n    tag_119:\n      mload(0x40)\n      tag_121\n      swap2\n      swap1\n      tag_48\n      jump\t// in\n    tag_121:\n      mload(0x40)\n      dup1\n      swap2\n      sub\n      swap1\n      return\n        /* \"ERC4626.sol\":2133:2628  function mint(uint256 shares, address receiver)... */\n    tag_22:\n      tag_122\n      0x04\n      dup1\n      calldatasize\n      sub\n      dup2\n      add\n      swap1\n      tag_123\n      swap2\n      swap1\n      tag_103\n      jump\t// in\n    tag_123:\n      tag_124\n      jump\t// in\n    tag_122:\n      mload(0x40)\n      tag_125\n      swap2\n      swap1\n      tag_48\n      jump\t// in\n    tag_125:\n      mload(0x40)\n      dup1\n      swap2\n      sub\n      swap1\n      return\n        /* \"ERC20.sol\":1086:1106  string public symbol */\n    tag_23:\n      tag_126\n      tag_127\n      jump\t// in\n    tag_126:\n      mload(0x40)\n      tag_128\n      swap2\n      swap1\n      tag_52\n      jump\t// in\n    tag_128:\n      mload(0x40)\n      dup1\n      swap2\n      sub\n      swap1\n      return\n        /* \"ERC20.sol\":2736:3137  function transfer(address to, uint256 amount)... */\n    tag_24:\n      tag_129\n      0x04\n      dup1\n      calldatasize\n      sub\n      dup2\n      add\n      swap1\n      tag_130\n      swap2\n      swap1\n      tag_60\n      jump\t// in\n    tag_130:\n      tag_131\n      jump\t// in\n    tag_129:\n      mload(0x40)\n      tag_132\n      swap2\n      swap1\n      tag_63\n      jump\t// in\n    tag_132:\n      mload(0x40)\n      dup1\n      swap2\n      sub\n      swap1\n      return\n        /* \"ERC4626.sol\":5086:5337  function previewMint(uint256 shares) public view virtual returns (uint256) {... */\n    tag_25:\n      tag_133\n      0x04\n      dup1\n      calldatasize\n      sub\n      dup2\n      add\n      swap1\n      tag_134\n      swap2\n      swap1\n      tag_55\n      jump\t// in\n    tag_134:\n      tag_135\n      jump\t// in\n    tag_133:\n      mload(0x40)\n      tag_136\n      swap2\n      swap1\n      tag_48\n      jump\t// in\n    tag_136:\n      mload(0x40)\n      dup1\n      swap2\n      sub\n      swap1\n      return\n        /* \"ERC4626.sol\":2634:3329  function withdraw(... */\n    tag_26:\n      tag_137\n      0x04\n      dup1\n      calldatasize\n      sub\n      dup2\n      add\n      swap1\n      tag_138\n      swap2\n      swap1\n      tag_139\n      jump\t// in\n    tag_138:\n      tag_140\n      jump\t// in\n    tag_137:\n      mload(0x40)\n      tag_141\n      swap2\n      swap1\n      tag_48\n      jump\t// in\n    tag_141:\n      mload(0x40)\n      dup1\n      swap2\n      sub\n      swap1\n      return\n        /* \"ERC4626.sol\":3335:4064  function redeem(... */\n    tag_27:\n      tag_142\n      0x04\n      dup1\n      calldatasize\n      sub\n      dup2\n      add\n      swap1\n      tag_143\n      swap2\n      swap1\n      tag_139\n      jump\t// in\n    tag_143:\n      tag_144\n      jump\t// in\n    tag_142:\n      mload(0x40)\n      tag_145\n      swap2\n      swap1\n      tag_48\n      jump\t// in\n    tag_145:\n      mload(0x40)\n      dup1\n      swap2\n      sub\n      swap1\n      return\n        /* \"SquiddyCore.sol\":212:262  uint256 public beforeWithdrawHookCalledCounter = 0 */\n    tag_28:\n      tag_146\n      tag_147\n      jump\t// in\n    tag_146:\n      mload(0x40)\n      tag_148\n      swap2\n      swap1\n      tag_48\n      jump\t// in\n    tag_148:\n      mload(0x40)\n      dup1\n      swap2\n      sub\n      swap1\n      return\n        /* \"ERC4626.sol\":6111:6216  function maxMint(address) public view virtual returns (uint256) {... */\n    tag_29:\n      tag_149\n      0x04\n      dup1\n      calldatasize\n      sub\n      dup2\n      add\n      swap1\n      tag_150\n      swap2\n      swap1\n      tag_90\n      jump\t// in\n    tag_150:\n      tag_151\n      jump\t// in\n    tag_149:\n      mload(0x40)\n      tag_152\n      swap2\n      swap1\n      tag_48\n      jump\t// in\n    tag_152:\n      mload(0x40)\n      dup1\n      swap2\n      sub\n      swap1\n      return\n        /* \"ERC4626.sol\":4321:4614  function convertToShares(uint256 assets)... */\n    tag_30:\n      tag_153\n      0x04\n      dup1\n      calldatasize\n      sub\n      dup2\n      add\n      swap1\n      tag_154\n      swap2\n      swap1\n      tag_55\n      jump\t// in\n    tag_154:\n      tag_155\n      jump\t// in\n    tag_153:\n      mload(0x40)\n      tag_156\n      swap2\n      swap1\n      tag_48\n      jump\t// in\n    tag_156:\n      mload(0x40)\n      dup1\n      swap2\n      sub\n      swap1\n      return\n        /* \"ERC4626.sol\":6222:6353  function maxWithdraw(address owner) public view virtual returns (uint256) {... */\n    tag_31:\n      tag_157\n      0x04\n      dup1\n      calldatasize\n      sub\n      dup2\n      add\n      swap1\n      tag_158\n      swap2\n      swap1\n      tag_90\n      jump\t// in\n    tag_158:\n      tag_159\n      jump\t// in\n    tag_157:\n      mload(0x40)\n      tag_160\n      swap2\n      swap1\n      tag_48\n      jump\t// in\n    tag_160:\n      mload(0x40)\n      dup1\n      swap2\n      sub\n      swap1\n      return\n        /* \"ERC20.sol\":3936:5465  function permit(... */\n    tag_32:\n      tag_161\n      0x04\n      dup1\n      calldatasize\n      sub\n      dup2\n      add\n      swap1\n      tag_162\n      swap2\n      swap1\n      tag_163\n      jump\t// in\n    tag_162:\n      tag_164\n      jump\t// in\n    tag_161:\n      stop\n        /* \"ERC4626.sol\":6359:6471  function maxRedeem(address owner) public view virtual returns (uint256) {... */\n    tag_33:\n      tag_165\n      0x04\n      dup1\n      calldatasize\n      sub\n      dup2\n      add\n      swap1\n      tag_166\n      swap2\n      swap1\n      tag_90\n      jump\t// in\n    tag_166:\n      tag_167\n      jump\t// in\n    tag_165:\n      mload(0x40)\n      tag_168\n      swap2\n      swap1\n      tag_48\n      jump\t// in\n    tag_168:\n      mload(0x40)\n      dup1\n      swap2\n      sub\n      swap1\n      return\n        /* \"ERC20.sol\":1418:1482  mapping(address => mapping(address => uint256)) public allowance */\n    tag_34:\n      tag_169\n      0x04\n      dup1\n      calldatasize\n      sub\n      dup2\n      add\n      swap1\n      tag_170\n      swap2\n      swap1\n      tag_171\n      jump\t// in\n    tag_170:\n      tag_172\n      jump\t// in\n    tag_169:\n      mload(0x40)\n      tag_173\n      swap2\n      swap1\n      tag_48\n      jump\t// in\n    tag_173:\n      mload(0x40)\n      dup1\n      swap2\n      sub\n      swap1\n      return\n        /* \"ERC4626.sol\":4919:5080  function previewDeposit(uint256 assets)... */\n    tag_35:\n      tag_174\n      0x04\n      dup1\n      calldatasize\n      sub\n      dup2\n      add\n      swap1\n      tag_175\n      swap2\n      swap1\n      tag_55\n      jump\t// in\n    tag_175:\n      tag_176\n      jump\t// in\n    tag_174:\n      mload(0x40)\n      tag_177\n      swap2\n      swap1\n      tag_48\n      jump\t// in\n    tag_177:\n      mload(0x40)\n      dup1\n      swap2\n      sub\n      swap1\n      return\n        /* \"SquiddyCore.sol\":3089:3371  function transferOwnership(address newOwner) public virtual onlyManager {... */\n    tag_36:\n      tag_178\n      0x04\n      dup1\n      calldatasize\n      sub\n      dup2\n      add\n      swap1\n      tag_179\n      swap2\n      swap1\n      tag_90\n      jump\t// in\n    tag_179:\n      tag_180\n      jump\t// in\n    tag_178:\n      stop\n        /* \"SquiddyCore.sol\":268:316  uint256 public afterDepositHookCalledCounter = 0 */\n    tag_37:\n      tag_181\n      tag_182\n      jump\t// in\n    tag_181:\n      mload(0x40)\n      tag_183\n      swap2\n      swap1\n      tag_48\n      jump\t// in\n    tag_183:\n      mload(0x40)\n      dup1\n      swap2\n      sub\n      swap1\n      return\n        /* \"SquiddyCore.sol\":1730:1846  function totalAssets() public view override returns (uint256) {... */\n    tag_46:\n        /* \"SquiddyCore.sol\":1783:1790  uint256 */\n      0x00\n        /* \"SquiddyCore.sol\":1809:1814  asset */\n      immutable(\"0xecac27c21aa9a89d7be9ad03c2d91e82cbd466284ecdf2bd5bad7f953539cc45\")\n        /* \"SquiddyCore.sol\":1809:1824  asset.balanceOf */\n      0xffffffffffffffffffffffffffffffffffffffff\n      and\n      0x70a08231\n        /* \"SquiddyCore.sol\":1833:1837  this */\n      address\n        /* \"SquiddyCore.sol\":1809:1839  asset.balanceOf(address(this)) */\n      mload(0x40)\n      dup3\n      0xffffffff\n      and\n      0xe0\n      shl\n      dup2\n      mstore\n      0x04\n      add\n      tag_185\n      swap2\n      swap1\n      tag_96\n      jump\t// in\n    tag_185:\n      0x20\n      mload(0x40)\n      dup1\n      dup4\n      sub\n      dup2\n      dup7\n      gas\n      staticcall\n      iszero\n      dup1\n      iszero\n      tag_187\n      jumpi\n      returndatasize\n      0x00\n      dup1\n      returndatacopy\n      revert(0x00, returndatasize)\n    tag_187:\n      pop\n      pop\n      pop\n      pop\n      mload(0x40)\n      returndatasize\n      not(0x1f)\n      0x1f\n      dup3\n      add\n      and\n      dup3\n      add\n      dup1\n      0x40\n      mstore\n      pop\n      dup2\n      add\n      swap1\n      tag_188\n      swap2\n      swap1\n      tag_189\n      jump\t// in\n    tag_188:\n        /* \"SquiddyCore.sol\":1802:1839  return asset.balanceOf(address(this)) */\n      swap1\n      pop\n        /* \"SquiddyCore.sol\":1730:1846  function totalAssets() public view override returns (uint256) {... */\n      swap1\n      jump\t// out\n        /* \"ERC20.sol\":1061:1079  string public name */\n    tag_50:\n      0x00\n      dup1\n      sload\n      tag_190\n      swap1\n      tag_191\n      jump\t// in\n    tag_190:\n      dup1\n      0x1f\n      add\n      0x20\n      dup1\n      swap2\n      div\n      mul\n      0x20\n      add\n      mload(0x40)\n      swap1\n      dup2\n      add\n      0x40\n      mstore\n      dup1\n      swap3\n      swap2\n      swap1\n      dup2\n      dup2\n      mstore\n      0x20\n      add\n      dup3\n      dup1\n      sload\n      tag_192\n      swap1\n      tag_191\n      jump\t// in\n    tag_192:\n      dup1\n      iszero\n      tag_193\n      jumpi\n      dup1\n      0x1f\n      lt\n      tag_194\n      jumpi\n      0x0100\n      dup1\n      dup4\n      sload\n      div\n      mul\n      dup4\n      mstore\n      swap2\n      0x20\n      add\n      swap2\n      jump(tag_193)\n    tag_194:\n      dup3\n      add\n      swap2\n      swap1\n      0x00\n      mstore\n      keccak256(0x00, 0x20)\n      swap1\n    tag_195:\n      dup2\n      sload\n      dup2\n      mstore\n      swap1\n      0x01\n      add\n      swap1\n      0x20\n      add\n      dup1\n      dup4\n      gt\n      tag_195\n      jumpi\n      dup3\n      swap1\n      sub\n      0x1f\n      and\n      dup3\n      add\n      swap2\n    tag_193:\n      pop\n      pop\n      pop\n      pop\n      pop\n      dup2\n      jump\t// out\n        /* \"ERC4626.sol\":4620:4913  function convertToAssets(uint256 shares)... */\n    tag_56:\n        /* \"ERC4626.sol\":4722:4729  uint256 */\n      0x00\n        /* \"ERC4626.sol\":4745:4759  uint256 supply */\n      dup1\n        /* \"ERC4626.sol\":4762:4773  totalSupply */\n      sload(0x02)\n        /* \"ERC4626.sol\":4745:4773  uint256 supply = totalSupply */\n      swap1\n      pop\n        /* \"ERC4626.sol\":4853:4854  0 */\n      0x00\n        /* \"ERC4626.sol\":4843:4849  supply */\n      dup2\n        /* \"ERC4626.sol\":4843:4854  supply == 0 */\n      eq\n        /* \"ERC4626.sol\":4843:4906  supply == 0 ? shares : shares.mulDivDown(totalAssets(), supply) */\n      tag_197\n      jumpi\n        /* \"ERC4626.sol\":4866:4906  shares.mulDivDown(totalAssets(), supply) */\n      tag_198\n        /* \"ERC4626.sol\":4884:4897  totalAssets() */\n      tag_199\n        /* \"ERC4626.sol\":4884:4895  totalAssets */\n      tag_46\n        /* \"ERC4626.sol\":4884:4897  totalAssets() */\n      jump\t// in\n    tag_199:\n        /* \"ERC4626.sol\":4899:4905  supply */\n      dup3\n        /* \"ERC4626.sol\":4866:4872  shares */\n      dup6\n        /* \"ERC4626.sol\":4866:4883  shares.mulDivDown */\n      tag_200\n      swap1\n        /* \"ERC4626.sol\":4866:4906  shares.mulDivDown(totalAssets(), supply) */\n      swap3\n      swap2\n      swap1\n      0xffffffff\n      and\n      jump\t// in\n    tag_198:\n        /* \"ERC4626.sol\":4843:4906  supply == 0 ? shares : shares.mulDivDown(totalAssets(), supply) */\n      jump(tag_201)\n    tag_197:\n        /* \"ERC4626.sol\":4857:4863  shares */\n      dup3\n        /* \"ERC4626.sol\":4843:4906  supply == 0 ? shares : shares.mulDivDown(totalAssets(), supply) */\n    tag_201:\n        /* \"ERC4626.sol\":4836:4906  return supply == 0 ? shares : shares.mulDivDown(totalAssets(), supply) */\n      swap2\n      pop\n      pop\n        /* \"ERC4626.sol\":4620:4913  function convertToAssets(uint256 shares)... */\n      swap2\n      swap1\n      pop\n      jump\t// out\n        /* \"ERC20.sol\":2491:2730  function approve(address spender, uint256 amount)... */\n    tag_61:\n        /* \"ERC20.sol\":2589:2593  bool */\n      0x00\n        /* \"ERC20.sol\":2642:2648  amount */\n      dup2\n        /* \"ERC20.sol\":2609:2618  allowance */\n      0x04\n        /* \"ERC20.sol\":2609:2630  allowance[msg.sender] */\n      0x00\n        /* \"ERC20.sol\":2619:2629  msg.sender */\n      caller\n        /* \"ERC20.sol\":2609:2630  allowance[msg.sender] */\n      0xffffffffffffffffffffffffffffffffffffffff\n      and\n      0xffffffffffffffffffffffffffffffffffffffff\n      and\n      dup2\n      mstore\n      0x20\n      add\n      swap1\n      dup2\n      mstore\n      0x20\n      add\n      0x00\n      keccak256\n        /* \"ERC20.sol\":2609:2639  allowance[msg.sender][spender] */\n      0x00\n        /* \"ERC20.sol\":2631:2638  spender */\n      dup6\n        /* \"ERC20.sol\":2609:2639  allowance[msg.sender][spender] */\n      0xffffffffffffffffffffffffffffffffffffffff\n      and\n      0xffffffffffffffffffffffffffffffffffffffff\n      and\n      dup2\n      mstore\n      0x20\n      add\n      swap1\n      dup2\n      mstore\n      0x20\n      add\n      0x00\n      keccak256\n        /* \"ERC20.sol\":2609:2648  allowance[msg.sender][spender] = amount */\n      dup2\n      swap1\n      sstore\n      pop\n        /* \"ERC20.sol\":2685:2692  spender */\n      dup3\n        /* \"ERC20.sol\":2664:2701  Approval(msg.sender, spender, amount) */\n      0xffffffffffffffffffffffffffffffffffffffff\n      and\n        /* \"ERC20.sol\":2673:2683  msg.sender */\n      caller\n        /* \"ERC20.sol\":2664:2701  Approval(msg.sender, spender, amount) */\n      0xffffffffffffffffffffffffffffffffffffffff\n      and\n      0x8c5be1e5ebec7d5bd14f71427d1e84f3dd0314c0f7b2291e5b200ac8c7c3b925\n        /* \"ERC20.sol\":2694:2700  amount */\n      dup5\n        /* \"ERC20.sol\":2664:2701  Approval(msg.sender, spender, amount) */\n      mload(0x40)\n      tag_203\n      swap2\n      swap1\n      tag_48\n      jump\t// in\n    tag_203:\n      mload(0x40)\n      dup1\n      swap2\n      sub\n      swap1\n      log3\n        /* \"ERC20.sol\":2719:2723  true */\n      0x01\n        /* \"ERC20.sol\":2712:2723  return true */\n      swap1\n      pop\n        /* \"ERC20.sol\":2491:2730  function approve(address spender, uint256 amount)... */\n      swap3\n      swap2\n      pop\n      pop\n      jump\t// out\n        /* \"ERC4626.sol\":5343:5634  function previewWithdraw(uint256 assets)... */\n    tag_66:\n        /* \"ERC4626.sol\":5445:5452  uint256 */\n      0x00\n        /* \"ERC4626.sol\":5468:5482  uint256 supply */\n      dup1\n        /* \"ERC4626.sol\":5485:5496  totalSupply */\n      sload(0x02)\n        /* \"ERC4626.sol\":5468:5496  uint256 supply = totalSupply */\n      swap1\n      pop\n        /* \"ERC4626.sol\":5576:5577  0 */\n      0x00\n        /* \"ERC4626.sol\":5566:5572  supply */\n      dup2\n        /* \"ERC4626.sol\":5566:5577  supply == 0 */\n      eq\n        /* \"ERC4626.sol\":5566:5627  supply == 0 ? assets : assets.mulDivUp(supply, totalAssets()) */\n      tag_205\n      jumpi\n        /* \"ERC4626.sol\":5589:5627  assets.mulDivUp(supply, totalAssets()) */\n      tag_206\n        /* \"ERC4626.sol\":5605:5611  supply */\n      dup2\n        /* \"ERC4626.sol\":5613:5626  totalAssets() */\n      tag_207\n        /* \"ERC4626.sol\":5613:5624  totalAssets */\n      tag_46\n        /* \"ERC4626.sol\":5613:5626  totalAssets() */\n      jump\t// in\n    tag_207:\n        /* \"ERC4626.sol\":5589:5595  assets */\n      dup6\n        /* \"ERC4626.sol\":5589:5604  assets.mulDivUp */\n      tag_208\n      swap1\n        /* \"ERC4626.sol\":5589:5627  assets.mulDivUp(supply, totalAssets()) */\n      swap3\n      swap2\n      swap1\n      0xffffffff\n      and\n      jump\t// in\n    tag_206:\n        /* \"ERC4626.sol\":5566:5627  supply == 0 ? assets : assets.mulDivUp(supply, totalAssets()) */\n      jump(tag_209)\n    tag_205:\n        /* \"ERC4626.sol\":5580:5586  assets */\n      dup3\n        /* \"ERC4626.sol\":5566:5627  supply == 0 ? assets : assets.mulDivUp(supply, totalAssets()) */\n    tag_209:\n        /* \"ERC4626.sol\":5559:5627  return supply == 0 ? assets : assets.mulDivUp(supply, totalAssets()) */\n      swap2\n      pop\n      pop\n        /* \"ERC4626.sol\":5343:5634  function previewWithdraw(uint256 assets)... */\n      swap2\n      swap1\n      pop\n      jump\t// out\n        /* \"ERC20.sol\":1334:1360  uint256 public totalSupply */\n    tag_69:\n      sload(0x02)\n      dup2\n      jump\t// out\n        /* \"ERC20.sol\":3143:3747  function transferFrom(... */\n    tag_74:\n        /* \"ERC20.sol\":3261:3265  bool */\n      0x00\n        /* \"ERC20.sol\":3277:3292  uint256 allowed */\n      dup1\n        /* \"ERC20.sol\":3295:3304  allowance */\n      0x04\n        /* \"ERC20.sol\":3295:3310  allowance[from] */\n      0x00\n        /* \"ERC20.sol\":3305:3309  from */\n      dup7\n        /* \"ERC20.sol\":3295:3310  allowance[from] */\n      0xffffffffffffffffffffffffffffffffffffffff\n      and\n      0xffffffffffffffffffffffffffffffffffffffff\n      and\n      dup2\n      mstore\n      0x20\n      add\n      swap1\n      dup2\n      mstore\n      0x20\n      add\n      0x00\n      keccak256\n        /* \"ERC20.sol\":3295:3322  allowance[from][msg.sender] */\n      0x00\n        /* \"ERC20.sol\":3311:3321  msg.sender */\n      caller\n        /* \"ERC20.sol\":3295:3322  allowance[from][msg.sender] */\n      0xffffffffffffffffffffffffffffffffffffffff\n      and\n      0xffffffffffffffffffffffffffffffffffffffff\n      and\n      dup2\n      mstore\n      0x20\n      add\n      swap1\n      dup2\n      mstore\n      0x20\n      add\n      0x00\n      keccak256\n      sload\n        /* \"ERC20.sol\":3277:3322  uint256 allowed = allowance[from][msg.sender] */\n      swap1\n      pop\n        /* \"ERC20.sol\":3384:3401  type(uint256).max */\n      0xffffffffffffffffffffffffffffffffffffffffffffffffffffffffffffffff\n        /* \"ERC20.sol\":3373:3380  allowed */\n      dup2\n        /* \"ERC20.sol\":3373:3401  allowed != type(uint256).max */\n      eq\n        /* \"ERC20.sol\":3369:3461  if (allowed != type(uint256).max)... */\n      tag_211\n      jumpi\n        /* \"ERC20.sol\":3455:3461  amount */\n      dup3\n        /* \"ERC20.sol\":3445:3452  allowed */\n      dup2\n        /* \"ERC20.sol\":3445:3461  allowed - amount */\n      tag_212\n      swap2\n      swap1\n      tag_213\n      jump\t// in\n    tag_212:\n        /* \"ERC20.sol\":3415:3424  allowance */\n      0x04\n        /* \"ERC20.sol\":3415:3430  allowance[from] */\n      0x00\n        /* \"ERC20.sol\":3425:3429  from */\n      dup8\n        /* \"ERC20.sol\":3415:3430  allowance[from] */\n      0xffffffffffffffffffffffffffffffffffffffff\n      and\n      0xffffffffffffffffffffffffffffffffffffffff\n      and\n      dup2\n      mstore\n      0x20\n      add\n      swap1\n      dup2\n      mstore\n      0x20\n      add\n      0x00\n      keccak256\n        /* \"ERC20.sol\":3415:3442  allowance[from][msg.sender] */\n      0x00\n        /* \"ERC20.sol\":3431:3441  msg.sender */\n      caller\n        /* \"ERC20.sol\":3415:3442  allowance[from][msg.sender] */\n      0xffffffffffffffffffffffffffffffffffffffff\n      and\n      0xffffffffffffffffffffffffffffffffffffffff\n      and\n      dup2\n      mstore\n      0x20\n      add\n      swap1\n      dup2\n      mstore\n      0x20\n      add\n      0x00\n      keccak256\n        /* \"ERC20.sol\":3415:3461  allowance[from][msg.sender] = allowed - amount */\n      dup2\n      swap1\n      sstore\n      pop\n        /* \"ERC20.sol\":3369:3461  if (allowed != type(uint256).max)... */\n    tag_211:\n        /* \"ERC20.sol\":3491:3497  amount */\n      dup3\n        /* \"ERC20.sol\":3472:3481  balanceOf */\n      0x03\n        /* \"ERC20.sol\":3472:3487  balanceOf[from] */\n      0x00\n        /* \"ERC20.sol\":3482:3486  from */\n      dup8\n        /* \"ERC20.sol\":3472:3487  balanceOf[from] */\n      0xffffffffffffffffffffffffffffffffffffffff\n      and\n      0xffffffffffffffffffffffffffffffffffffffff\n      and\n      dup2\n      mstore\n      0x20\n      add\n      swap1\n      dup2\n      mstore\n      0x20\n      add\n      0x00\n      keccak256\n      0x00\n        /* \"ERC20.sol\":3472:3497  balanceOf[from] -= amount */\n      dup3\n      dup3\n      sload\n      tag_214\n      swap2\n      swap1\n      tag_213\n      jump\t// in\n    tag_214:\n      swap3\n      pop\n      pop\n      dup2\n      swap1\n      sstore\n      pop\n        /* \"ERC20.sol\":3660:3666  amount */\n      dup3\n        /* \"ERC20.sol\":3643:3652  balanceOf */\n      0x03\n        /* \"ERC20.sol\":3643:3656  balanceOf[to] */\n      0x00\n        /* \"ERC20.sol\":3653:3655  to */\n      dup7\n        /* \"ERC20.sol\":3643:3656  balanceOf[to] */\n      0xffffffffffffffffffffffffffffffffffffffff\n      and\n      0xffffffffffffffffffffffffffffffffffffffff\n      and\n      dup2\n      mstore\n      0x20\n      add\n      swap1\n      dup2\n      mstore\n      0x20\n      add\n      0x00\n      keccak256\n      0x00\n        /* \"ERC20.sol\":3643:3666  balanceOf[to] += amount */\n      dup3\n      dup3\n      sload\n      add\n      swap3\n      pop\n      pop\n      dup2\n      swap1\n      sstore\n      pop\n        /* \"ERC20.sol\":3707:3709  to */\n      dup4\n        /* \"ERC20.sol\":3692:3718  Transfer(from, to, amount) */\n      0xffffffffffffffffffffffffffffffffffffffff\n      and\n        /* \"ERC20.sol\":3701:3705  from */\n      dup6\n        /* \"ERC20.sol\":3692:3718  Transfer(from, to, amount) */\n      0xffffffffffffffffffffffffffffffffffffffff\n      and\n      0xddf252ad1be2c89b69c2b068fc378daa952ba7f163c4a11628f55a4df523b3ef\n        /* \"ERC20.sol\":3711:3717  amount */\n      dup6\n        /* \"ERC20.sol\":3692:3718  Transfer(from, to, amount) */\n      mload(0x40)\n      tag_215\n      swap2\n      swap1\n      tag_48\n      jump\t// in\n    tag_215:\n      mload(0x40)\n      dup1\n      swap2\n      sub\n      swap1\n      log3\n        /* \"ERC20.sol\":3736:3740  true */\n      0x01\n        /* \"ERC20.sol\":3729:3740  return true */\n      swap2\n      pop\n      pop\n        /* \"ERC20.sol\":3143:3747  function transferFrom(... */\n      swap4\n      swap3\n      pop\n      pop\n      pop\n      jump\t// out\n        /* \"ERC20.sol\":1113:1144  uint8 public immutable decimals */\n    tag_77:\n      immutable(\"0x6585423cb6456b1d4957f6454d2f004f0c4f58d53a00082412d5c2ef4b1b31fd\")\n      dup2\n      jump\t// out\n        /* \"ERC20.sol\":5471:5692  function DOMAIN_SEPARATOR() public view virtual returns (bytes32) {... */\n    tag_81:\n        /* \"ERC20.sol\":5528:5535  bytes32 */\n      0x00\n        /* \"ERC20.sol\":5583:5599  INITIAL_CHAIN_ID */\n      immutable(\"0xd67d834462ca31eaef1f30157e31659f60355143b7441e6fc7d9eae1fa79f3f8\")\n        /* \"ERC20.sol\":5566:5579  block.chainid */\n      chainid\n        /* \"ERC20.sol\":5566:5599  block.chainid == INITIAL_CHAIN_ID */\n      eq\n        /* \"ERC20.sol\":5566:5685  block.chainid == INITIAL_CHAIN_ID... */\n      tag_217\n      jumpi\n        /* \"ERC20.sol\":5661:5685  computeDomainSeparator() */\n      tag_218\n        /* \"ERC20.sol\":5661:5683  computeDomainSeparator */\n      tag_219\n        /* \"ERC20.sol\":5661:5685  computeDomainSeparator() */\n      jump\t// in\n    tag_218:\n        /* \"ERC20.sol\":5566:5685  block.chainid == INITIAL_CHAIN_ID... */\n      jump(tag_220)\n    tag_217:\n        /* \"ERC20.sol\":5618:5642  INITIAL_DOMAIN_SEPARATOR */\n      immutable(\"0x880de8116b3dfac28e9ff528a9fef1d1e0a51449c1addce011ffec1f302992b6\")\n        /* \"ERC20.sol\":5566:5685  block.chainid == INITIAL_CHAIN_ID... */\n    tag_220:\n        /* \"ERC20.sol\":5547:5685  return... */\n      swap1\n      pop\n        /* \"ERC20.sol\":5471:5692  function DOMAIN_SEPARATOR() public view virtual returns (bytes32) {... */\n      swap1\n      jump\t// out\n        /* \"ERC4626.sol\":1165:1193  ERC20 public immutable asset */\n    tag_85:\n      immutable(\"0xecac27c21aa9a89d7be9ad03c2d91e82cbd466284ecdf2bd5bad7f953539cc45\")\n      dup2\n      jump\t// out\n        /* \"ERC4626.sol\":5997:6105  function maxDeposit(address) public view virtual returns (uint256) {... */\n    tag_91:\n        /* \"ERC4626.sol\":6055:6062  uint256 */\n      0x00\n        /* \"ERC4626.sol\":6081:6098  type(uint256).max */\n      0xffffffffffffffffffffffffffffffffffffffffffffffffffffffffffffffff\n        /* \"ERC4626.sol\":6074:6098  return type(uint256).max */\n      swap1\n      pop\n        /* \"ERC4626.sol\":5997:6105  function maxDeposit(address) public view virtual returns (uint256) {... */\n      swap2\n      swap1\n      pop\n      jump\t// out\n        /* \"SquiddyCore.sol\":2347:2436  function manager() public view virtual returns (address) {... */\n    tag_94:\n        /* \"SquiddyCore.sol\":2395:2402  address */\n      0x00\n        /* \"SquiddyCore.sol\":2421:2429  _manager */\n      0x06\n      0x00\n      swap1\n      sload\n      swap1\n      0x0100\n      exp\n      swap1\n      div\n      0xffffffffffffffffffffffffffffffffffffffff\n      and\n        /* \"SquiddyCore.sol\":2414:2429  return _manager */\n      swap1\n      pop\n        /* \"SquiddyCore.sol\":2347:2436  function manager() public view virtual returns (address) {... */\n      swap1\n      jump\t// out\n        /* \"ERC4626.sol\":5640:5800  function previewRedeem(uint256 shares)... */\n    tag_99:\n        /* \"ERC4626.sol\":5740:5747  uint256 */\n      0x00\n        /* \"ERC4626.sol\":5770:5793  convertToAssets(shares) */\n      tag_224\n        /* \"ERC4626.sol\":5786:5792  shares */\n      dup3\n        /* \"ERC4626.sol\":5770:5785  convertToAssets */\n      tag_56\n        /* \"ERC4626.sol\":5770:5793  convertToAssets(shares) */\n      jump\t// in\n    tag_224:\n        /* \"ERC4626.sol\":5763:5793  return convertToAssets(shares) */\n      swap1\n      pop\n        /* \"ERC4626.sol\":5640:5800  function previewRedeem(uint256 shares)... */\n      swap2\n      swap1\n      pop\n      jump\t// out\n        /* \"ERC4626.sol\":1583:2127  function deposit(uint256 assets, address receiver)... */\n    tag_104:\n        /* \"ERC4626.sol\":1682:1696  uint256 shares */\n      0x00\n        /* \"ERC4626.sol\":1832:1833  0 */\n      dup1\n        /* \"ERC4626.sol\":1805:1827  previewDeposit(assets) */\n      tag_226\n        /* \"ERC4626.sol\":1820:1826  assets */\n      dup5\n        /* \"ERC4626.sol\":1805:1819  previewDeposit */\n      tag_176\n        /* \"ERC4626.sol\":1805:1827  previewDeposit(assets) */\n      jump\t// in\n    tag_226:\n        /* \"ERC4626.sol\":1796:1827  shares = previewDeposit(assets) */\n      swap2\n      pop\n      dup2\n        /* \"ERC4626.sol\":1795:1833  (shares = previewDeposit(assets)) != 0 */\n      sub\n        /* \"ERC4626.sol\":1787:1849  require((shares = previewDeposit(assets)) != 0, \"ZERO_SHARES\") */\n      tag_227\n      jumpi\n      mload(0x40)\n      0x08c379a000000000000000000000000000000000000000000000000000000000\n      dup2\n      mstore\n      0x04\n      add\n      tag_228\n      swap1\n      tag_229\n      jump\t// in\n    tag_228:\n      mload(0x40)\n      dup1\n      swap2\n      sub\n      swap1\n      revert\n    tag_227:\n        /* \"ERC4626.sol\":1929:1986  asset.safeTransferFrom(msg.sender, address(this), assets) */\n      tag_230\n        /* \"ERC4626.sol\":1952:1962  msg.sender */\n      caller\n        /* \"ERC4626.sol\":1972:1976  this */\n      address\n        /* \"ERC4626.sol\":1979:1985  assets */\n      dup6\n        /* \"ERC4626.sol\":1929:1934  asset */\n      immutable(\"0xecac27c21aa9a89d7be9ad03c2d91e82cbd466284ecdf2bd5bad7f953539cc45\")\n        /* \"ERC4626.sol\":1929:1951  asset.safeTransferFrom */\n      0xffffffffffffffffffffffffffffffffffffffff\n      and\n      tag_231\n      swap1\n        /* \"ERC4626.sol\":1929:1986  asset.safeTransferFrom(msg.sender, address(this), assets) */\n      swap4\n      swap3\n      swap2\n      swap1\n      0xffffffff\n      and\n      jump\t// in\n    tag_230:\n        /* \"ERC4626.sol\":1997:2020  _mint(receiver, shares) */\n      tag_232\n        /* \"ERC4626.sol\":2003:2011  receiver */\n      dup3\n        /* \"ERC4626.sol\":2013:2019  shares */\n      dup3\n        /* \"ERC4626.sol\":1997:2002  _mint */\n      tag_233\n        /* \"ERC4626.sol\":1997:2020  _mint(receiver, shares) */\n      jump\t// in\n    tag_232:\n        /* \"ERC4626.sol\":2056:2064  receiver */\n      dup2\n        /* \"ERC4626.sol\":2036:2081  Deposit(msg.sender, receiver, assets, shares) */\n      0xffffffffffffffffffffffffffffffffffffffff\n      and\n        /* \"ERC4626.sol\":2044:2054  msg.sender */\n      caller\n        /* \"ERC4626.sol\":2036:2081  Deposit(msg.sender, receiver, assets, shares) */\n      0xffffffffffffffffffffffffffffffffffffffff\n      and\n      0xdcbc1c05240f31ff3ad067ef1ee35ce4997762752e3a095284754544f4c709d7\n        /* \"ERC4626.sol\":2066:2072  assets */\n      dup6\n        /* \"ERC4626.sol\":2074:2080  shares */\n      dup5\n        /* \"ERC4626.sol\":2036:2081  Deposit(msg.sender, receiver, assets, shares) */\n      mload(0x40)\n      tag_234\n      swap3\n      swap2\n      swap1\n      tag_235\n      jump\t// in\n    tag_234:\n      mload(0x40)\n      dup1\n      swap2\n      sub\n      swap1\n      log3\n        /* \"ERC4626.sol\":2092:2120  afterDeposit(assets, shares) */\n      tag_236\n        /* \"ERC4626.sol\":2105:2111  assets */\n      dup4\n        /* \"ERC4626.sol\":2113:2119  shares */\n      dup3\n        /* \"ERC4626.sol\":2092:2104  afterDeposit */\n      tag_237\n        /* \"ERC4626.sol\":2092:2120  afterDeposit(assets, shares) */\n      jump\t// in\n    tag_236:\n        /* \"ERC4626.sol\":1583:2127  function deposit(uint256 assets, address receiver)... */\n      swap3\n      swap2\n      pop\n      pop\n      jump\t// out\n        /* \"ERC20.sol\":1367:1411  mapping(address => uint256) public balanceOf */\n    tag_108:\n      mstore(0x20, 0x03)\n      dup1\n      0x00\n      mstore\n      keccak256(0x00, 0x40)\n      0x00\n      swap2\n      pop\n      swap1\n      pop\n      sload\n      dup2\n      jump\t// out\n        /* \"SquiddyCore.sol\":2787:2938  function renounceOwnership() public virtual onlyManager {... */\n    tag_111:\n        /* \"SquiddyCore.sol\":1247:1257  msg.sender */\n      caller\n        /* \"SquiddyCore.sol\":1234:1257  manager() == msg.sender */\n      0xffffffffffffffffffffffffffffffffffffffff\n      and\n        /* \"SquiddyCore.sol\":1234:1243  manager() */\n      tag_239\n        /* \"SquiddyCore.sol\":1234:1241  manager */\n      tag_94\n        /* \"SquiddyCore.sol\":1234:1243  manager() */\n      jump\t// in\n    tag_239:\n        /* \"SquiddyCore.sol\":1234:1257  manager() == msg.sender */\n      0xffffffffffffffffffffffffffffffffffffffff\n      and\n      eq\n        /* \"SquiddyCore.sol\":1226:1296  require(manager() == msg.sender, \"Ownable: caller is not the manager\") */\n      tag_240\n      jumpi\n      mload(0x40)\n      0x08c379a000000000000000000000000000000000000000000000000000000000\n      dup2\n      mstore\n      0x04\n      add\n      tag_241\n      swap1\n      tag_242\n      jump\t// in\n    tag_241:\n      mload(0x40)\n      dup1\n      swap2\n      sub\n      swap1\n      revert\n    tag_240:\n        /* \"SquiddyCore.sol\":2897:2898  0 */\n      0x00\n        /* \"SquiddyCore.sol\":2858:2900  OwnershipTransferred(_manager, address(0)) */\n      0xffffffffffffffffffffffffffffffffffffffff\n      and\n        /* \"SquiddyCore.sol\":2879:2887  _manager */\n      0x06\n      0x00\n      swap1\n      sload\n      swap1\n      0x0100\n      exp\n      swap1\n      div\n      0xffffffffffffffffffffffffffffffffffffffff\n      and\n        /* \"SquiddyCore.sol\":2858:2900  OwnershipTransferred(_manager, address(0)) */\n      0xffffffffffffffffffffffffffffffffffffffff\n      and\n      0x8be0079c531659141344cd1fd0a4f28419497f9722a3daafe3b4186f6b6457e0\n      mload(0x40)\n      mload(0x40)\n      dup1\n      swap2\n      sub\n      swap1\n      log3\n        /* \"SquiddyCore.sol\":2929:2930  0 */\n      0x00\n        /* \"SquiddyCore.sol\":2910:2918  _manager */\n      0x06\n      0x00\n        /* \"SquiddyCore.sol\":2910:2931  _manager = address(0) */\n      0x0100\n      exp\n      dup2\n      sload\n      dup2\n      0xffffffffffffffffffffffffffffffffffffffff\n      mul\n      not\n      and\n      swap1\n      dup4\n      0xffffffffffffffffffffffffffffffffffffffff\n      and\n      mul\n      or\n      swap1\n      sstore\n      pop\n        /* \"SquiddyCore.sol\":2787:2938  function renounceOwnership() public virtual onlyManager {... */\n      jump\t// out\n        /* \"SquiddyCore.sol\":4029:4352  function setFeePercent(uint256 newFeePercent) external onlyManager {... */\n    tag_114:\n        /* \"SquiddyCore.sol\":1247:1257  msg.sender */\n      caller\n        /* \"SquiddyCore.sol\":1234:1257  manager() == msg.sender */\n      0xffffffffffffffffffffffffffffffffffffffff\n      and\n        /* \"SquiddyCore.sol\":1234:1243  manager() */\n      tag_245\n        /* \"SquiddyCore.sol\":1234:1241  manager */\n      tag_94\n        /* \"SquiddyCore.sol\":1234:1243  manager() */\n      jump\t// in\n    tag_245:\n        /* \"SquiddyCore.sol\":1234:1257  manager() == msg.sender */\n      0xffffffffffffffffffffffffffffffffffffffff\n      and\n      eq\n        /* \"SquiddyCore.sol\":1226:1296  require(manager() == msg.sender, \"Ownable: caller is not the manager\") */\n      tag_246\n      jumpi\n      mload(0x40)\n      0x08c379a000000000000000000000000000000000000000000000000000000000\n      dup2\n      mstore\n      0x04\n      add\n      tag_247\n      swap1\n      tag_242\n      jump\t// in\n    tag_247:\n      mload(0x40)\n      dup1\n      swap2\n      sub\n      swap1\n      revert\n    tag_246:\n        /* \"SquiddyCore.sol\":4189:4193  1e18 */\n      0x0de0b6b3a7640000\n        /* \"SquiddyCore.sol\":4172:4185  newFeePercent */\n      dup2\n        /* \"SquiddyCore.sol\":4172:4193  newFeePercent <= 1e18 */\n      gt\n      iszero\n        /* \"SquiddyCore.sol\":4164:4210  require(newFeePercent <= 1e18, \"FEE_TOO_HIGH\") */\n      tag_249\n      jumpi\n      mload(0x40)\n      0x08c379a000000000000000000000000000000000000000000000000000000000\n      dup2\n      mstore\n      0x04\n      add\n      tag_250\n      swap1\n      tag_251\n      jump\t// in\n    tag_250:\n      mload(0x40)\n      dup1\n      swap2\n      sub\n      swap1\n      revert\n    tag_249:\n        /* \"SquiddyCore.sol\":4272:4285  newFeePercent */\n      dup1\n        /* \"SquiddyCore.sol\":4259:4269  feePercent */\n      0x09\n        /* \"SquiddyCore.sol\":4259:4285  feePercent = newFeePercent */\n      dup2\n      swap1\n      sstore\n      pop\n        /* \"SquiddyCore.sol\":4319:4329  msg.sender */\n      caller\n        /* \"SquiddyCore.sol\":4301:4345  FeePercentUpdated(msg.sender, newFeePercent) */\n      0xffffffffffffffffffffffffffffffffffffffff\n      and\n      0xec370615cc81fb334e5566fbc80664d9082377bf59288d64a79f3fbecf4323a9\n        /* \"SquiddyCore.sol\":4331:4344  newFeePercent */\n      dup3\n        /* \"SquiddyCore.sol\":4301:4345  FeePercentUpdated(msg.sender, newFeePercent) */\n      mload(0x40)\n      tag_252\n      swap2\n      swap1\n      tag_48\n      jump\t// in\n    tag_252:\n      mload(0x40)\n      dup1\n      swap2\n      sub\n      swap1\n      log2\n        /* \"SquiddyCore.sol\":4029:4352  function setFeePercent(uint256 newFeePercent) external onlyManager {... */\n      pop\n      jump\t// out\n        /* \"ERC20.sol\":1781:1822  mapping(address => uint256) public nonces */\n    tag_117:\n      mstore(0x20, 0x05)\n      dup1\n      0x00\n      mstore\n      keccak256(0x00, 0x40)\n      0x00\n      swap2\n      pop\n      swap1\n      pop\n      sload\n      dup2\n      jump\t// out\n        /* \"SquiddyCore.sol\":3647:3672  uint256 public feePercent */\n    tag_120:\n      sload(0x09)\n      dup2\n      jump\t// out\n        /* \"ERC4626.sol\":2133:2628  function mint(uint256 shares, address receiver)... */\n    tag_124:\n        /* \"ERC4626.sol\":2229:2243  uint256 assets */\n      0x00\n        /* \"ERC4626.sol\":2268:2287  previewMint(shares) */\n      tag_254\n        /* \"ERC4626.sol\":2280:2286  shares */\n      dup4\n        /* \"ERC4626.sol\":2268:2279  previewMint */\n      tag_135\n        /* \"ERC4626.sol\":2268:2287  previewMint(shares) */\n      jump\t// in\n    tag_254:\n        /* \"ERC4626.sol\":2259:2287  assets = previewMint(shares) */\n      swap1\n      pop\n        /* \"ERC4626.sol\":2430:2487  asset.safeTransferFrom(msg.sender, address(this), assets) */\n      tag_255\n        /* \"ERC4626.sol\":2453:2463  msg.sender */\n      caller\n        /* \"ERC4626.sol\":2473:2477  this */\n      address\n        /* \"ERC4626.sol\":2480:2486  assets */\n      dup4\n        /* \"ERC4626.sol\":2430:2435  asset */\n      immutable(\"0xecac27c21aa9a89d7be9ad03c2d91e82cbd466284ecdf2bd5bad7f953539cc45\")\n        /* \"ERC4626.sol\":2430:2452  asset.safeTransferFrom */\n      0xffffffffffffffffffffffffffffffffffffffff\n      and\n      tag_231\n      swap1\n        /* \"ERC4626.sol\":2430:2487  asset.safeTransferFrom(msg.sender, address(this), assets) */\n      swap4\n      swap3\n      swap2\n      swap1\n      0xffffffff\n      and\n      jump\t// in\n    tag_255:\n        /* \"ERC4626.sol\":2498:2521  _mint(receiver, shares) */\n      tag_256\n        /* \"ERC4626.sol\":2504:2512  receiver */\n      dup3\n        /* \"ERC4626.sol\":2514:2520  shares */\n      dup5\n        /* \"ERC4626.sol\":2498:2503  _mint */\n      tag_233\n        /* \"ERC4626.sol\":2498:2521  _mint(receiver, shares) */\n      jump\t// in\n    tag_256:\n        /* \"ERC4626.sol\":2557:2565  receiver */\n      dup2\n        /* \"ERC4626.sol\":2537:2582  Deposit(msg.sender, receiver, assets, shares) */\n      0xffffffffffffffffffffffffffffffffffffffff\n      and\n        /* \"ERC4626.sol\":2545:2555  msg.sender */\n      caller\n        /* \"ERC4626.sol\":2537:2582  Deposit(msg.sender, receiver, assets, shares) */\n      0xffffffffffffffffffffffffffffffffffffffff\n      and\n      0xdcbc1c05240f31ff3ad067ef1ee35ce4997762752e3a095284754544f4c709d7\n        /* \"ERC4626.sol\":2567:2573  assets */\n      dup4\n        /* \"ERC4626.sol\":2575:2581  shares */\n      dup7\n        /* \"ERC4626.sol\":2537:2582  Deposit(msg.sender, receiver, assets, shares) */\n      mload(0x40)\n      tag_257\n      swap3\n      swap2\n      swap1\n      tag_235\n      jump\t// in\n    tag_257:\n      mload(0x40)\n      dup1\n      swap2\n      sub\n      swap1\n      log3\n        /* \"ERC4626.sol\":2593:2621  afterDeposit(assets, shares) */\n      tag_258\n        /* \"ERC4626.sol\":2606:2612  assets */\n      dup2\n        /* \"ERC4626.sol\":2614:2620  shares */\n      dup5\n        /* \"ERC4626.sol\":2593:2605  afterDeposit */\n      tag_237\n        /* \"ERC4626.sol\":2593:2621  afterDeposit(assets, shares) */\n      jump\t// in\n    tag_258:\n        /* \"ERC4626.sol\":2133:2628  function mint(uint256 shares, address receiver)... */\n      swap3\n      swap2\n      pop\n      pop\n      jump\t// out\n        /* \"ERC20.sol\":1086:1106  string public symbol */\n    tag_127:\n      0x01\n      dup1\n      sload\n      tag_259\n      swap1\n      tag_191\n      jump\t// in\n    tag_259:\n      dup1\n      0x1f\n      add\n      0x20\n      dup1\n      swap2\n      div\n      mul\n      0x20\n      add\n      mload(0x40)\n      swap1\n      dup2\n      add\n      0x40\n      mstore\n      dup1\n      swap3\n      swap2\n      swap1\n      dup2\n      dup2\n      mstore\n      0x20\n      add\n      dup3\n      dup1\n      sload\n      tag_260\n      swap1\n      tag_191\n      jump\t// in\n    tag_260:\n      dup1\n      iszero\n      tag_261\n      jumpi\n      dup1\n      0x1f\n      lt\n      tag_262\n      jumpi\n      0x0100\n      dup1\n      dup4\n      sload\n      div\n      mul\n      dup4\n      mstore\n      swap2\n      0x20\n      add\n      swap2\n      jump(tag_261)\n    tag_262:\n      dup3\n      add\n      swap2\n      swap1\n      0x00\n      mstore\n      keccak256(0x00, 0x20)\n      swap1\n    tag_263:\n      dup2\n      sload\n      dup2\n      mstore\n      swap1\n      0x01\n      add\n      swap1\n      0x20\n      add\n      dup1\n      dup4\n      gt\n      tag_263\n      jumpi\n      dup3\n      swap1\n      sub\n      0x1f\n      and\n      dup3\n      add\n      swap2\n    tag_261:\n      pop\n      pop\n      pop\n      pop\n      pop\n      dup2\n      jump\t// out\n        /* \"ERC20.sol\":2736:3137  function transfer(address to, uint256 amount)... */\n    tag_131:\n        /* \"ERC20.sol\":2830:2834  bool */\n      0x00\n        /* \"ERC20.sol\":2875:2881  amount */\n      dup2\n        /* \"ERC20.sol\":2850:2859  balanceOf */\n      0x03\n        /* \"ERC20.sol\":2850:2871  balanceOf[msg.sender] */\n      0x00\n        /* \"ERC20.sol\":2860:2870  msg.sender */\n      caller\n        /* \"ERC20.sol\":2850:2871  balanceOf[msg.sender] */\n      0xffffffffffffffffffffffffffffffffffffffff\n      and\n      0xffffffffffffffffffffffffffffffffffffffff\n      and\n      dup2\n      mstore\n      0x20\n      add\n      swap1\n      dup2\n      mstore\n      0x20\n      add\n      0x00\n      keccak256\n      0x00\n        /* \"ERC20.sol\":2850:2881  balanceOf[msg.sender] -= amount */\n      dup3\n      dup3\n      sload\n      tag_265\n      swap2\n      swap1\n      tag_213\n      jump\t// in\n    tag_265:\n      swap3\n      pop\n      pop\n      dup2\n      swap1\n      sstore\n      pop\n        /* \"ERC20.sol\":3044:3050  amount */\n      dup2\n        /* \"ERC20.sol\":3027:3036  balanceOf */\n      0x03\n        /* \"ERC20.sol\":3027:3040  balanceOf[to] */\n      0x00\n        /* \"ERC20.sol\":3037:3039  to */\n      dup6\n        /* \"ERC20.sol\":3027:3040  balanceOf[to] */\n      0xffffffffffffffffffffffffffffffffffffffff\n      and\n      0xffffffffffffffffffffffffffffffffffffffff\n      and\n      dup2\n      mstore\n      0x20\n      add\n      swap1\n      dup2\n      mstore\n      0x20\n      add\n      0x00\n      keccak256\n      0x00\n        /* \"ERC20.sol\":3027:3050  balanceOf[to] += amount */\n      dup3\n      dup3\n      sload\n      add\n      swap3\n      pop\n      pop\n      dup2\n      swap1\n      sstore\n      pop\n        /* \"ERC20.sol\":3097:3099  to */\n      dup3\n        /* \"ERC20.sol\":3076:3108  Transfer(msg.sender, to, amount) */\n      0xffffffffffffffffffffffffffffffffffffffff\n      and\n        /* \"ERC20.sol\":3085:3095  msg.sender */\n      caller\n        /* \"ERC20.sol\":3076:3108  Transfer(msg.sender, to, amount) */\n      0xffffffffffffffffffffffffffffffffffffffff\n      and\n      0xddf252ad1be2c89b69c2b068fc378daa952ba7f163c4a11628f55a4df523b3ef\n        /* \"ERC20.sol\":3101:3107  amount */\n      dup5\n        /* \"ERC20.sol\":3076:3108  Transfer(msg.sender, to, amount) */\n      mload(0x40)\n      tag_266\n      swap2\n      swap1\n      tag_48\n      jump\t// in\n    tag_266:\n      mload(0x40)\n      dup1\n      swap2\n      sub\n      swap1\n      log3\n        /* \"ERC20.sol\":3126:3130  true */\n      0x01\n        /* \"ERC20.sol\":3119:3130  return true */\n      swap1\n      pop\n        /* \"ERC20.sol\":2736:3137  function transfer(address to, uint256 amount)... */\n      swap3\n      swap2\n      pop\n      pop\n      jump\t// out\n        /* \"ERC4626.sol\":5086:5337  function previewMint(uint256 shares) public view virtual returns (uint256) {... */\n    tag_135:\n        /* \"ERC4626.sol\":5152:5159  uint256 */\n      0x00\n        /* \"ERC4626.sol\":5171:5185  uint256 supply */\n      dup1\n        /* \"ERC4626.sol\":5188:5199  totalSupply */\n      sload(0x02)\n        /* \"ERC4626.sol\":5171:5199  uint256 supply = totalSupply */\n      swap1\n      pop\n        /* \"ERC4626.sol\":5279:5280  0 */\n      0x00\n        /* \"ERC4626.sol\":5269:5275  supply */\n      dup2\n        /* \"ERC4626.sol\":5269:5280  supply == 0 */\n      eq\n        /* \"ERC4626.sol\":5269:5330  supply == 0 ? shares : shares.mulDivUp(totalAssets(), supply) */\n      tag_268\n      jumpi\n        /* \"ERC4626.sol\":5292:5330  shares.mulDivUp(totalAssets(), supply) */\n      tag_269\n        /* \"ERC4626.sol\":5308:5321  totalAssets() */\n      tag_270\n        /* \"ERC4626.sol\":5308:5319  totalAssets */\n      tag_46\n        /* \"ERC4626.sol\":5308:5321  totalAssets() */\n      jump\t// in\n    tag_270:\n        /* \"ERC4626.sol\":5323:5329  supply */\n      dup3\n        /* \"ERC4626.sol\":5292:5298  shares */\n      dup6\n        /* \"ERC4626.sol\":5292:5307  shares.mulDivUp */\n      tag_208\n      swap1\n        /* \"ERC4626.sol\":5292:5330  shares.mulDivUp(totalAssets(), supply) */\n      swap3\n      swap2\n      swap1\n      0xffffffff\n      and\n      jump\t// in\n    tag_269:\n        /* \"ERC4626.sol\":5269:5330  supply == 0 ? shares : shares.mulDivUp(totalAssets(), supply) */\n      jump(tag_271)\n    tag_268:\n        /* \"ERC4626.sol\":5283:5289  shares */\n      dup3\n        /* \"ERC4626.sol\":5269:5330  supply == 0 ? shares : shares.mulDivUp(totalAssets(), supply) */\n    tag_271:\n        /* \"ERC4626.sol\":5262:5330  return supply == 0 ? shares : shares.mulDivUp(totalAssets(), supply) */\n      swap2\n      pop\n      pop\n        /* \"ERC4626.sol\":5086:5337  function previewMint(uint256 shares) public view virtual returns (uint256) {... */\n      swap2\n      swap1\n      pop\n      jump\t// out\n        /* \"ERC4626.sol\":2634:3329  function withdraw(... */\n    tag_140:\n        /* \"ERC4626.sol\":2755:2769  uint256 shares */\n      0x00\n        /* \"ERC4626.sol\":2790:2813  previewWithdraw(assets) */\n      tag_273\n        /* \"ERC4626.sol\":2806:2812  assets */\n      dup5\n        /* \"ERC4626.sol\":2790:2805  previewWithdraw */\n      tag_66\n        /* \"ERC4626.sol\":2790:2813  previewWithdraw(assets) */\n      jump\t// in\n    tag_273:\n        /* \"ERC4626.sol\":2781:2813  shares = previewWithdraw(assets) */\n      swap1\n      pop\n        /* \"ERC4626.sol\":2909:2914  owner */\n      dup2\n        /* \"ERC4626.sol\":2895:2914  msg.sender != owner */\n      0xffffffffffffffffffffffffffffffffffffffff\n      and\n        /* \"ERC4626.sol\":2895:2905  msg.sender */\n      caller\n        /* \"ERC4626.sol\":2895:2914  msg.sender != owner */\n      0xffffffffffffffffffffffffffffffffffffffff\n      and\n      eq\n        /* \"ERC4626.sol\":2891:3135  if (msg.sender != owner) {... */\n      tag_274\n      jumpi\n        /* \"ERC4626.sol\":2930:2945  uint256 allowed */\n      0x00\n        /* \"ERC4626.sol\":2948:2957  allowance */\n      0x04\n        /* \"ERC4626.sol\":2948:2964  allowance[owner] */\n      0x00\n        /* \"ERC4626.sol\":2958:2963  owner */\n      dup5\n        /* \"ERC4626.sol\":2948:2964  allowance[owner] */\n      0xffffffffffffffffffffffffffffffffffffffff\n      and\n      0xffffffffffffffffffffffffffffffffffffffff\n      and\n      dup2\n      mstore\n      0x20\n      add\n      swap1\n      dup2\n      mstore\n      0x20\n      add\n      0x00\n      keccak256\n        /* \"ERC4626.sol\":2948:2976  allowance[owner][msg.sender] */\n      0x00\n        /* \"ERC4626.sol\":2965:2975  msg.sender */\n      caller\n        /* \"ERC4626.sol\":2948:2976  allowance[owner][msg.sender] */\n      0xffffffffffffffffffffffffffffffffffffffff\n      and\n      0xffffffffffffffffffffffffffffffffffffffff\n      and\n      dup2\n      mstore\n      0x20\n      add\n      swap1\n      dup2\n      mstore\n      0x20\n      add\n      0x00\n      keccak256\n      sload\n        /* \"ERC4626.sol\":2930:2976  uint256 allowed = allowance[owner][msg.sender] */\n      swap1\n      pop\n        /* \"ERC4626.sol\":3042:3059  type(uint256).max */\n      0xffffffffffffffffffffffffffffffffffffffffffffffffffffffffffffffff\n        /* \"ERC4626.sol\":3031:3038  allowed */\n      dup2\n        /* \"ERC4626.sol\":3031:3059  allowed != type(uint256).max */\n      eq\n        /* \"ERC4626.sol\":3027:3124  if (allowed != type(uint256).max)... */\n      tag_275\n      jumpi\n        /* \"ERC4626.sol\":3118:3124  shares */\n      dup2\n        /* \"ERC4626.sol\":3108:3115  allowed */\n      dup2\n        /* \"ERC4626.sol\":3108:3124  allowed - shares */\n      tag_276\n      swap2\n      swap1\n      tag_213\n      jump\t// in\n    tag_276:\n        /* \"ERC4626.sol\":3077:3086  allowance */\n      0x04\n        /* \"ERC4626.sol\":3077:3093  allowance[owner] */\n      0x00\n        /* \"ERC4626.sol\":3087:3092  owner */\n      dup6\n        /* \"ERC4626.sol\":3077:3093  allowance[owner] */\n      0xffffffffffffffffffffffffffffffffffffffff\n      and\n      0xffffffffffffffffffffffffffffffffffffffff\n      and\n      dup2\n      mstore\n      0x20\n      add\n      swap1\n      dup2\n      mstore\n      0x20\n      add\n      0x00\n      keccak256\n        /* \"ERC4626.sol\":3077:3105  allowance[owner][msg.sender] */\n      0x00\n        /* \"ERC4626.sol\":3094:3104  msg.sender */\n      caller\n        /* \"ERC4626.sol\":3077:3105  allowance[owner][msg.sender] */\n      0xffffffffffffffffffffffffffffffffffffffff\n      and\n      0xffffffffffffffffffffffffffffffffffffffff\n      and\n      dup2\n      mstore\n      0x20\n      add\n      swap1\n      dup2\n      mstore\n      0x20\n      add\n      0x00\n      keccak256\n        /* \"ERC4626.sol\":3077:3124  allowance[owner][msg.sender] = allowed - shares */\n      dup2\n      swap1\n      sstore\n      pop\n        /* \"ERC4626.sol\":3027:3124  if (allowed != type(uint256).max)... */\n    tag_275:\n        /* \"ERC4626.sol\":2916:3135  {... */\n      pop\n        /* \"ERC4626.sol\":2891:3135  if (msg.sender != owner) {... */\n    tag_274:\n        /* \"ERC4626.sol\":3145:3175  beforeWithdraw(assets, shares) */\n      tag_277\n        /* \"ERC4626.sol\":3160:3166  assets */\n      dup5\n        /* \"ERC4626.sol\":3168:3174  shares */\n      dup3\n        /* \"ERC4626.sol\":3145:3159  beforeWithdraw */\n      tag_278\n        /* \"ERC4626.sol\":3145:3175  beforeWithdraw(assets, shares) */\n      jump\t// in\n    tag_277:\n        /* \"ERC4626.sol\":3186:3206  _burn(owner, shares) */\n      tag_279\n        /* \"ERC4626.sol\":3192:3197  owner */\n      dup3\n        /* \"ERC4626.sol\":3199:3205  shares */\n      dup3\n        /* \"ERC4626.sol\":3186:3191  _burn */\n      tag_280\n        /* \"ERC4626.sol\":3186:3206  _burn(owner, shares) */\n      jump\t// in\n    tag_279:\n        /* \"ERC4626.sol\":3253:3258  owner */\n      dup2\n        /* \"ERC4626.sol\":3222:3275  Withdraw(msg.sender, receiver, owner, assets, shares) */\n      0xffffffffffffffffffffffffffffffffffffffff\n      and\n        /* \"ERC4626.sol\":3243:3251  receiver */\n      dup4\n        /* \"ERC4626.sol\":3222:3275  Withdraw(msg.sender, receiver, owner, assets, shares) */\n      0xffffffffffffffffffffffffffffffffffffffff\n      and\n        /* \"ERC4626.sol\":3231:3241  msg.sender */\n      caller\n        /* \"ERC4626.sol\":3222:3275  Withdraw(msg.sender, receiver, owner, assets, shares) */\n      0xffffffffffffffffffffffffffffffffffffffff\n      and\n      0xfbde797d201c681b91056529119e0b02407c7bb96a4a2c75c01fc9667232c8db\n        /* \"ERC4626.sol\":3260:3266  assets */\n      dup8\n        /* \"ERC4626.sol\":3268:3274  shares */\n      dup6\n        /* \"ERC4626.sol\":3222:3275  Withdraw(msg.sender, receiver, owner, assets, shares) */\n      mload(0x40)\n      tag_281\n      swap3\n      swap2\n      swap1\n      tag_235\n      jump\t// in\n    tag_281:\n      mload(0x40)\n      dup1\n      swap2\n      sub\n      swap1\n      log4\n        /* \"ERC4626.sol\":3286:3322  asset.safeTransfer(receiver, assets) */\n      tag_282\n        /* \"ERC4626.sol\":3305:3313  receiver */\n      dup4\n        /* \"ERC4626.sol\":3315:3321  assets */\n      dup6\n        /* \"ERC4626.sol\":3286:3291  asset */\n      immutable(\"0xecac27c21aa9a89d7be9ad03c2d91e82cbd466284ecdf2bd5bad7f953539cc45\")\n        /* \"ERC4626.sol\":3286:3304  asset.safeTransfer */\n      0xffffffffffffffffffffffffffffffffffffffff\n      and\n      tag_283\n      swap1\n        /* \"ERC4626.sol\":3286:3322  asset.safeTransfer(receiver, assets) */\n      swap3\n      swap2\n      swap1\n      0xffffffff\n      and\n      jump\t// in\n    tag_282:\n        /* \"ERC4626.sol\":2634:3329  function withdraw(... */\n      swap4\n      swap3\n      pop\n      pop\n      pop\n      jump\t// out\n        /* \"ERC4626.sol\":3335:4064  function redeem(... */\n    tag_144:\n        /* \"ERC4626.sol\":3454:3468  uint256 assets */\n      0x00\n        /* \"ERC4626.sol\":3498:3503  owner */\n      dup2\n        /* \"ERC4626.sol\":3484:3503  msg.sender != owner */\n      0xffffffffffffffffffffffffffffffffffffffff\n      and\n        /* \"ERC4626.sol\":3484:3494  msg.sender */\n      caller\n        /* \"ERC4626.sol\":3484:3503  msg.sender != owner */\n      0xffffffffffffffffffffffffffffffffffffffff\n      and\n      eq\n        /* \"ERC4626.sol\":3480:3724  if (msg.sender != owner) {... */\n      tag_285\n      jumpi\n        /* \"ERC4626.sol\":3519:3534  uint256 allowed */\n      0x00\n        /* \"ERC4626.sol\":3537:3546  allowance */\n      0x04\n        /* \"ERC4626.sol\":3537:3553  allowance[owner] */\n      0x00\n        /* \"ERC4626.sol\":3547:3552  owner */\n      dup5\n        /* \"ERC4626.sol\":3537:3553  allowance[owner] */\n      0xffffffffffffffffffffffffffffffffffffffff\n      and\n      0xffffffffffffffffffffffffffffffffffffffff\n      and\n      dup2\n      mstore\n      0x20\n      add\n      swap1\n      dup2\n      mstore\n      0x20\n      add\n      0x00\n      keccak256\n        /* \"ERC4626.sol\":3537:3565  allowance[owner][msg.sender] */\n      0x00\n        /* \"ERC4626.sol\":3554:3564  msg.sender */\n      caller\n        /* \"ERC4626.sol\":3537:3565  allowance[owner][msg.sender] */\n      0xffffffffffffffffffffffffffffffffffffffff\n      and\n      0xffffffffffffffffffffffffffffffffffffffff\n      and\n      dup2\n      mstore\n      0x20\n      add\n      swap1\n      dup2\n      mstore\n      0x20\n      add\n      0x00\n      keccak256\n      sload\n        /* \"ERC4626.sol\":3519:3565  uint256 allowed = allowance[owner][msg.sender] */\n      swap1\n      pop\n        /* \"ERC4626.sol\":3631:3648  type(uint256).max */\n      0xffffffffffffffffffffffffffffffffffffffffffffffffffffffffffffffff\n        /* \"ERC4626.sol\":3620:3627  allowed */\n      dup2\n        /* \"ERC4626.sol\":3620:3648  allowed != type(uint256).max */\n      eq\n        /* \"ERC4626.sol\":3616:3713  if (allowed != type(uint256).max)... */\n      tag_286\n      jumpi\n        /* \"ERC4626.sol\":3707:3713  shares */\n      dup5\n        /* \"ERC4626.sol\":3697:3704  allowed */\n      dup2\n        /* \"ERC4626.sol\":3697:3713  allowed - shares */\n      tag_287\n      swap2\n      swap1\n      tag_213\n      jump\t// in\n    tag_287:\n        /* \"ERC4626.sol\":3666:3675  allowance */\n      0x04\n        /* \"ERC4626.sol\":3666:3682  allowance[owner] */\n      0x00\n        /* \"ERC4626.sol\":3676:3681  owner */\n      dup6\n        /* \"ERC4626.sol\":3666:3682  allowance[owner] */\n      0xffffffffffffffffffffffffffffffffffffffff\n      and\n      0xffffffffffffffffffffffffffffffffffffffff\n      and\n      dup2\n      mstore\n      0x20\n      add\n      swap1\n      dup2\n      mstore\n      0x20\n      add\n      0x00\n      keccak256\n        /* \"ERC4626.sol\":3666:3694  allowance[owner][msg.sender] */\n      0x00\n        /* \"ERC4626.sol\":3683:3693  msg.sender */\n      caller\n        /* \"ERC4626.sol\":3666:3694  allowance[owner][msg.sender] */\n      0xffffffffffffffffffffffffffffffffffffffff\n      and\n      0xffffffffffffffffffffffffffffffffffffffff\n      and\n      dup2\n      mstore\n      0x20\n      add\n      swap1\n      dup2\n      mstore\n      0x20\n      add\n      0x00\n      keccak256\n        /* \"ERC4626.sol\":3666:3713  allowance[owner][msg.sender] = allowed - shares */\n      dup2\n      swap1\n      sstore\n      pop\n        /* \"ERC4626.sol\":3616:3713  if (allowed != type(uint256).max)... */\n    tag_286:\n        /* \"ERC4626.sol\":3505:3724  {... */\n      pop\n        /* \"ERC4626.sol\":3480:3724  if (msg.sender != owner) {... */\n    tag_285:\n        /* \"ERC4626.sol\":3852:3853  0 */\n      0x00\n        /* \"ERC4626.sol\":3826:3847  previewRedeem(shares) */\n      tag_288\n        /* \"ERC4626.sol\":3840:3846  shares */\n      dup6\n        /* \"ERC4626.sol\":3826:3839  previewRedeem */\n      tag_99\n        /* \"ERC4626.sol\":3826:3847  previewRedeem(shares) */\n      jump\t// in\n    tag_288:\n        /* \"ERC4626.sol\":3817:3847  assets = previewRedeem(shares) */\n      swap2\n      pop\n      dup2\n        /* \"ERC4626.sol\":3816:3853  (assets = previewRedeem(shares)) != 0 */\n      sub\n        /* \"ERC4626.sol\":3808:3869  require((assets = previewRedeem(shares)) != 0, \"ZERO_ASSETS\") */\n      tag_289\n      jumpi\n      mload(0x40)\n      0x08c379a000000000000000000000000000000000000000000000000000000000\n      dup2\n      mstore\n      0x04\n      add\n      tag_290\n      swap1\n      tag_291\n      jump\t// in\n    tag_290:\n      mload(0x40)\n      dup1\n      swap2\n      sub\n      swap1\n      revert\n    tag_289:\n        /* \"ERC4626.sol\":3880:3910  beforeWithdraw(assets, shares) */\n      tag_292\n        /* \"ERC4626.sol\":3895:3901  assets */\n      dup2\n        /* \"ERC4626.sol\":3903:3909  shares */\n      dup6\n        /* \"ERC4626.sol\":3880:3894  beforeWithdraw */\n      tag_278\n        /* \"ERC4626.sol\":3880:3910  beforeWithdraw(assets, shares) */\n      jump\t// in\n    tag_292:\n        /* \"ERC4626.sol\":3921:3941  _burn(owner, shares) */\n      tag_293\n        /* \"ERC4626.sol\":3927:3932  owner */\n      dup3\n        /* \"ERC4626.sol\":3934:3940  shares */\n      dup6\n        /* \"ERC4626.sol\":3921:3926  _burn */\n      tag_280\n        /* \"ERC4626.sol\":3921:3941  _burn(owner, shares) */\n      jump\t// in\n    tag_293:\n        /* \"ERC4626.sol\":3988:3993  owner */\n      dup2\n        /* \"ERC4626.sol\":3957:4010  Withdraw(msg.sender, receiver, owner, assets, shares) */\n      0xffffffffffffffffffffffffffffffffffffffff\n      and\n        /* \"ERC4626.sol\":3978:3986  receiver */\n      dup4\n        /* \"ERC4626.sol\":3957:4010  Withdraw(msg.sender, receiver, owner, assets, shares) */\n      0xffffffffffffffffffffffffffffffffffffffff\n      and\n        /* \"ERC4626.sol\":3966:3976  msg.sender */\n      caller\n        /* \"ERC4626.sol\":3957:4010  Withdraw(msg.sender, receiver, owner, assets, shares) */\n      0xffffffffffffffffffffffffffffffffffffffff\n      and\n      0xfbde797d201c681b91056529119e0b02407c7bb96a4a2c75c01fc9667232c8db\n        /* \"ERC4626.sol\":3995:4001  assets */\n      dup5\n        /* \"ERC4626.sol\":4003:4009  shares */\n      dup9\n        /* \"ERC4626.sol\":3957:4010  Withdraw(msg.sender, receiver, owner, assets, shares) */\n      mload(0x40)\n      tag_294\n      swap3\n      swap2\n      swap1\n      tag_235\n      jump\t// in\n    tag_294:\n      mload(0x40)\n      dup1\n      swap2\n      sub\n      swap1\n      log4\n        /* \"ERC4626.sol\":4021:4057  asset.safeTransfer(receiver, assets) */\n      tag_295\n        /* \"ERC4626.sol\":4040:4048  receiver */\n      dup4\n        /* \"ERC4626.sol\":4050:4056  assets */\n      dup3\n        /* \"ERC4626.sol\":4021:4026  asset */\n      immutable(\"0xecac27c21aa9a89d7be9ad03c2d91e82cbd466284ecdf2bd5bad7f953539cc45\")\n        /* \"ERC4626.sol\":4021:4039  asset.safeTransfer */\n      0xffffffffffffffffffffffffffffffffffffffff\n      and\n      tag_283\n      swap1\n        /* \"ERC4626.sol\":4021:4057  asset.safeTransfer(receiver, assets) */\n      swap3\n      swap2\n      swap1\n      0xffffffff\n      and\n      jump\t// in\n    tag_295:\n        /* \"ERC4626.sol\":3335:4064  function redeem(... */\n      swap4\n      swap3\n      pop\n      pop\n      pop\n      jump\t// out\n        /* \"SquiddyCore.sol\":212:262  uint256 public beforeWithdrawHookCalledCounter = 0 */\n    tag_147:\n      sload(0x07)\n      dup2\n      jump\t// out\n        /* \"ERC4626.sol\":6111:6216  function maxMint(address) public view virtual returns (uint256) {... */\n    tag_151:\n        /* \"ERC4626.sol\":6166:6173  uint256 */\n      0x00\n        /* \"ERC4626.sol\":6192:6209  type(uint256).max */\n      0xffffffffffffffffffffffffffffffffffffffffffffffffffffffffffffffff\n        /* \"ERC4626.sol\":6185:6209  return type(uint256).max */\n      swap1\n      pop\n        /* \"ERC4626.sol\":6111:6216  function maxMint(address) public view virtual returns (uint256) {... */\n      swap2\n      swap1\n      pop\n      jump\t// out\n        /* \"ERC4626.sol\":4321:4614  function convertToShares(uint256 assets)... */\n    tag_155:\n        /* \"ERC4626.sol\":4423:4430  uint256 */\n      0x00\n        /* \"ERC4626.sol\":4446:4460  uint256 supply */\n      dup1\n        /* \"ERC4626.sol\":4463:4474  totalSupply */\n      sload(0x02)\n        /* \"ERC4626.sol\":4446:4474  uint256 supply = totalSupply */\n      swap1\n      pop\n        /* \"ERC4626.sol\":4554:4555  0 */\n      0x00\n        /* \"ERC4626.sol\":4544:4550  supply */\n      dup2\n        /* \"ERC4626.sol\":4544:4555  supply == 0 */\n      eq\n        /* \"ERC4626.sol\":4544:4607  supply == 0 ? assets : assets.mulDivDown(supply, totalAssets()) */\n      tag_298\n      jumpi\n        /* \"ERC4626.sol\":4567:4607  assets.mulDivDown(supply, totalAssets()) */\n      tag_299\n        /* \"ERC4626.sol\":4585:4591  supply */\n      dup2\n        /* \"ERC4626.sol\":4593:4606  totalAssets() */\n      tag_300\n        /* \"ERC4626.sol\":4593:4604  totalAssets */\n      tag_46\n        /* \"ERC4626.sol\":4593:4606  totalAssets() */\n      jump\t// in\n    tag_300:\n        /* \"ERC4626.sol\":4567:4573  assets */\n      dup6\n        /* \"ERC4626.sol\":4567:4584  assets.mulDivDown */\n      tag_200\n      swap1\n        /* \"ERC4626.sol\":4567:4607  assets.mulDivDown(supply, totalAssets()) */\n      swap3\n      swap2\n      swap1\n      0xffffffff\n      and\n      jump\t// in\n    tag_299:\n        /* \"ERC4626.sol\":4544:4607  supply == 0 ? assets : assets.mulDivDown(supply, totalAssets()) */\n      jump(tag_301)\n    tag_298:\n        /* \"ERC4626.sol\":4558:4564  assets */\n      dup3\n        /* \"ERC4626.sol\":4544:4607  supply == 0 ? assets : assets.mulDivDown(supply, totalAssets()) */\n    tag_301:\n        /* \"ERC4626.sol\":4537:4607  return supply == 0 ? assets : assets.mulDivDown(supply, totalAssets()) */\n      swap2\n      pop\n      pop\n        /* \"ERC4626.sol\":4321:4614  function convertToShares(uint256 assets)... */\n      swap2\n      swap1\n      pop\n      jump\t// out\n        /* \"ERC4626.sol\":6222:6353  function maxWithdraw(address owner) public view virtual returns (uint256) {... */\n    tag_159:\n        /* \"ERC4626.sol\":6287:6294  uint256 */\n      0x00\n        /* \"ERC4626.sol\":6313:6346  convertToAssets(balanceOf[owner]) */\n      tag_303\n        /* \"ERC4626.sol\":6329:6338  balanceOf */\n      0x03\n        /* \"ERC4626.sol\":6329:6345  balanceOf[owner] */\n      0x00\n        /* \"ERC4626.sol\":6339:6344  owner */\n      dup5\n        /* \"ERC4626.sol\":6329:6345  balanceOf[owner] */\n      0xffffffffffffffffffffffffffffffffffffffff\n      and\n      0xffffffffffffffffffffffffffffffffffffffff\n      and\n      dup2\n      mstore\n      0x20\n      add\n      swap1\n      dup2\n      mstore\n      0x20\n      add\n      0x00\n      keccak256\n      sload\n        /* \"ERC4626.sol\":6313:6328  convertToAssets */\n      tag_56\n        /* \"ERC4626.sol\":6313:6346  convertToAssets(balanceOf[owner]) */\n      jump\t// in\n    tag_303:\n        /* \"ERC4626.sol\":6306:6346  return convertToAssets(balanceOf[owner]) */\n      swap1\n      pop\n        /* \"ERC4626.sol\":6222:6353  function maxWithdraw(address owner) public view virtual returns (uint256) {... */\n      swap2\n      swap1\n      pop\n      jump\t// out\n        /* \"ERC20.sol\":3936:5465  function permit(... */\n    tag_164:\n        /* \"ERC20.sol\":4155:4170  block.timestamp */\n      timestamp\n        /* \"ERC20.sol\":4143:4151  deadline */\n      dup5\n        /* \"ERC20.sol\":4143:4170  deadline >= block.timestamp */\n      lt\n      iszero\n        /* \"ERC20.sol\":4135:4198  require(deadline >= block.timestamp, \"PERMIT_DEADLINE_EXPIRED\") */\n      tag_305\n      jumpi\n      mload(0x40)\n      0x08c379a000000000000000000000000000000000000000000000000000000000\n      dup2\n      mstore\n      0x04\n      add\n      tag_306\n      swap1\n      tag_307\n      jump\t// in\n    tag_306:\n      mload(0x40)\n      dup1\n      swap2\n      sub\n      swap1\n      revert\n    tag_305:\n        /* \"ERC20.sol\":4363:4387  address recoveredAddress */\n      0x00\n        /* \"ERC20.sol\":4390:5195  ecrecover(... */\n      0x01\n        /* \"ERC20.sol\":4526:4544  DOMAIN_SEPARATOR() */\n      tag_308\n        /* \"ERC20.sol\":4526:4542  DOMAIN_SEPARATOR */\n      tag_81\n        /* \"ERC20.sol\":4526:4544  DOMAIN_SEPARATOR() */\n      jump\t// in\n    tag_308:\n        /* \"ERC20.sol\":4653:4818  keccak256(... */\n      0x6e71edae12b1b97f4d1f60370fef10105fa2faae0126114a169c64845d6126c9\n        /* \"ERC20.sol\":4852:4857  owner */\n      dup11\n        /* \"ERC20.sol\":4891:4898  spender */\n      dup11\n        /* \"ERC20.sol\":4932:4937  value */\n      dup11\n        /* \"ERC20.sol\":4971:4977  nonces */\n      0x05\n        /* \"ERC20.sol\":4971:4984  nonces[owner] */\n      0x00\n        /* \"ERC20.sol\":4978:4983  owner */\n      dup16\n        /* \"ERC20.sol\":4971:4984  nonces[owner] */\n      0xffffffffffffffffffffffffffffffffffffffff\n      and\n      0xffffffffffffffffffffffffffffffffffffffff\n      and\n      dup2\n      mstore\n      0x20\n      add\n      swap1\n      dup2\n      mstore\n      0x20\n      add\n      0x00\n      keccak256\n      0x00\n        /* \"ERC20.sol\":4971:4986  nonces[owner]++ */\n      dup2\n      sload\n      dup1\n      swap3\n      swap2\n      swap1\n      0x01\n      add\n      swap2\n      swap1\n      pop\n      sstore\n        /* \"ERC20.sol\":5020:5028  deadline */\n      dup12\n        /* \"ERC20.sol\":4609:5058  abi.encode(... */\n      add(0x20, mload(0x40))\n      tag_309\n      swap7\n      swap6\n      swap5\n      swap4\n      swap3\n      swap2\n      swap1\n      tag_310\n      jump\t// in\n    tag_309:\n      mload(0x40)\n      0x20\n      dup2\n      dup4\n      sub\n      sub\n      dup2\n      mstore\n      swap1\n      0x40\n      mstore\n        /* \"ERC20.sol\":4570:5084  keccak256(... */\n      dup1\n      mload\n      swap1\n      0x20\n      add\n      keccak256\n        /* \"ERC20.sol\":4448:5106  abi.encodePacked(... */\n      add(0x20, mload(0x40))\n      tag_311\n      swap3\n      swap2\n      swap1\n      tag_312\n      jump\t// in\n    tag_311:\n      mload(0x40)\n      0x20\n      dup2\n      dup4\n      sub\n      sub\n      dup2\n      mstore\n      swap1\n      0x40\n      mstore\n        /* \"ERC20.sol\":4417:5124  keccak256(... */\n      dup1\n      mload\n      swap1\n      0x20\n      add\n      keccak256\n        /* \"ERC20.sol\":5142:5143  v */\n      dup6\n        /* \"ERC20.sol\":5161:5162  r */\n      dup6\n        /* \"ERC20.sol\":5180:5181  s */\n      dup6\n        /* \"ERC20.sol\":4390:5195  ecrecover(... */\n      mload(0x40)\n      0x00\n      dup2\n      mstore\n      0x20\n      add\n      0x40\n      mstore\n      mload(0x40)\n      tag_313\n      swap5\n      swap4\n      swap3\n      swap2\n      swap1\n      tag_314\n      jump\t// in\n    tag_313:\n      0x20\n      mload(0x40)\n      0x20\n      dup2\n      sub\n      swap1\n      dup1\n      dup5\n      sub\n      swap1\n      dup6\n      gas\n      staticcall\n      iszero\n      dup1\n      iszero\n      tag_316\n      jumpi\n      returndatasize\n      0x00\n      dup1\n      returndatacopy\n      revert(0x00, returndatasize)\n    tag_316:\n      pop\n      pop\n      pop\n      mload(sub(mload(0x40), 0x20))\n        /* \"ERC20.sol\":4363:5195  address recoveredAddress = ecrecover(... */\n      swap1\n      pop\n        /* \"ERC20.sol\":5263:5264  0 */\n      0x00\n        /* \"ERC20.sol\":5235:5265  recoveredAddress != address(0) */\n      0xffffffffffffffffffffffffffffffffffffffff\n      and\n        /* \"ERC20.sol\":5235:5251  recoveredAddress */\n      dup2\n        /* \"ERC20.sol\":5235:5265  recoveredAddress != address(0) */\n      0xffffffffffffffffffffffffffffffffffffffff\n      and\n      eq\n      iszero\n        /* \"ERC20.sol\":5235:5294  recoveredAddress != address(0) && recoveredAddress == owner */\n      dup1\n      iszero\n      tag_317\n      jumpi\n      pop\n        /* \"ERC20.sol\":5289:5294  owner */\n      dup8\n        /* \"ERC20.sol\":5269:5294  recoveredAddress == owner */\n      0xffffffffffffffffffffffffffffffffffffffff\n      and\n        /* \"ERC20.sol\":5269:5285  recoveredAddress */\n      dup2\n        /* \"ERC20.sol\":5269:5294  recoveredAddress == owner */\n      0xffffffffffffffffffffffffffffffffffffffff\n      and\n      eq\n        /* \"ERC20.sol\":5235:5294  recoveredAddress != address(0) && recoveredAddress == owner */\n    tag_317:\n        /* \"ERC20.sol\":5210:5342  require(... */\n      tag_318\n      jumpi\n      mload(0x40)\n      0x08c379a000000000000000000000000000000000000000000000000000000000\n      dup2\n      mstore\n      0x04\n      add\n      tag_319\n      swap1\n      tag_320\n      jump\t// in\n    tag_319:\n      mload(0x40)\n      dup1\n      swap2\n      sub\n      swap1\n      revert\n    tag_318:\n        /* \"ERC20.sol\":5396:5401  value */\n      dup6\n        /* \"ERC20.sol\":5357:5366  allowance */\n      0x04\n        /* \"ERC20.sol\":5357:5384  allowance[recoveredAddress] */\n      0x00\n        /* \"ERC20.sol\":5367:5383  recoveredAddress */\n      dup4\n        /* \"ERC20.sol\":5357:5384  allowance[recoveredAddress] */\n      0xffffffffffffffffffffffffffffffffffffffff\n      and\n      0xffffffffffffffffffffffffffffffffffffffff\n      and\n      dup2\n      mstore\n      0x20\n      add\n      swap1\n      dup2\n      mstore\n      0x20\n      add\n      0x00\n      keccak256\n        /* \"ERC20.sol\":5357:5393  allowance[recoveredAddress][spender] */\n      0x00\n        /* \"ERC20.sol\":5385:5392  spender */\n      dup10\n        /* \"ERC20.sol\":5357:5393  allowance[recoveredAddress][spender] */\n      0xffffffffffffffffffffffffffffffffffffffff\n      and\n      0xffffffffffffffffffffffffffffffffffffffff\n      and\n      dup2\n      mstore\n      0x20\n      add\n      swap1\n      dup2\n      mstore\n      0x20\n      add\n      0x00\n      keccak256\n        /* \"ERC20.sol\":5357:5401  allowance[recoveredAddress][spender] = value */\n      dup2\n      swap1\n      sstore\n      pop\n        /* \"ERC20.sol\":4339:5412  unchecked {... */\n      pop\n        /* \"ERC20.sol\":5443:5450  spender */\n      dup6\n        /* \"ERC20.sol\":5427:5458  Approval(owner, spender, value) */\n      0xffffffffffffffffffffffffffffffffffffffff\n      and\n        /* \"ERC20.sol\":5436:5441  owner */\n      dup8\n        /* \"ERC20.sol\":5427:5458  Approval(owner, spender, value) */\n      0xffffffffffffffffffffffffffffffffffffffff\n      and\n      0x8c5be1e5ebec7d5bd14f71427d1e84f3dd0314c0f7b2291e5b200ac8c7c3b925\n        /* \"ERC20.sol\":5452:5457  value */\n      dup8\n        /* \"ERC20.sol\":5427:5458  Approval(owner, spender, value) */\n      mload(0x40)\n      tag_321\n      swap2\n      swap1\n      tag_48\n      jump\t// in\n    tag_321:\n      mload(0x40)\n      dup1\n      swap2\n      sub\n      swap1\n      log3\n        /* \"ERC20.sol\":3936:5465  function permit(... */\n      pop\n      pop\n      pop\n      pop\n      pop\n      pop\n      pop\n      jump\t// out\n        /* \"ERC4626.sol\":6359:6471  function maxRedeem(address owner) public view virtual returns (uint256) {... */\n    tag_167:\n        /* \"ERC4626.sol\":6422:6429  uint256 */\n      0x00\n        /* \"ERC4626.sol\":6448:6457  balanceOf */\n      0x03\n        /* \"ERC4626.sol\":6448:6464  balanceOf[owner] */\n      0x00\n        /* \"ERC4626.sol\":6458:6463  owner */\n      dup4\n        /* \"ERC4626.sol\":6448:6464  balanceOf[owner] */\n      0xffffffffffffffffffffffffffffffffffffffff\n      and\n      0xffffffffffffffffffffffffffffffffffffffff\n      and\n      dup2\n      mstore\n      0x20\n      add\n      swap1\n      dup2\n      mstore\n      0x20\n      add\n      0x00\n      keccak256\n      sload\n        /* \"ERC4626.sol\":6441:6464  return balanceOf[owner] */\n      swap1\n      pop\n        /* \"ERC4626.sol\":6359:6471  function maxRedeem(address owner) public view virtual returns (uint256) {... */\n      swap2\n      swap1\n      pop\n      jump\t// out\n        /* \"ERC20.sol\":1418:1482  mapping(address => mapping(address => uint256)) public allowance */\n    tag_172:\n      mstore(0x20, 0x04)\n      dup2\n      0x00\n      mstore\n      mstore(0x20, keccak256(0x00, 0x40))\n      dup1\n      0x00\n      mstore\n      keccak256(0x00, 0x40)\n      0x00\n      swap2\n      pop\n      swap2\n      pop\n      pop\n      sload\n      dup2\n      jump\t// out\n        /* \"ERC4626.sol\":4919:5080  function previewDeposit(uint256 assets)... */\n    tag_176:\n        /* \"ERC4626.sol\":5020:5027  uint256 */\n      0x00\n        /* \"ERC4626.sol\":5050:5073  convertToShares(assets) */\n      tag_324\n        /* \"ERC4626.sol\":5066:5072  assets */\n      dup3\n        /* \"ERC4626.sol\":5050:5065  convertToShares */\n      tag_155\n        /* \"ERC4626.sol\":5050:5073  convertToShares(assets) */\n      jump\t// in\n    tag_324:\n        /* \"ERC4626.sol\":5043:5073  return convertToShares(assets) */\n      swap1\n      pop\n        /* \"ERC4626.sol\":4919:5080  function previewDeposit(uint256 assets)... */\n      swap2\n      swap1\n      pop\n      jump\t// out\n        /* \"SquiddyCore.sol\":3089:3371  function transferOwnership(address newOwner) public virtual onlyManager {... */\n    tag_180:\n        /* \"SquiddyCore.sol\":1247:1257  msg.sender */\n      caller\n        /* \"SquiddyCore.sol\":1234:1257  manager() == msg.sender */\n      0xffffffffffffffffffffffffffffffffffffffff\n      and\n        /* \"SquiddyCore.sol\":1234:1243  manager() */\n      tag_326\n        /* \"SquiddyCore.sol\":1234:1241  manager */\n      tag_94\n        /* \"SquiddyCore.sol\":1234:1243  manager() */\n      jump\t// in\n    tag_326:\n        /* \"SquiddyCore.sol\":1234:1257  manager() == msg.sender */\n      0xffffffffffffffffffffffffffffffffffffffff\n      and\n      eq\n        /* \"SquiddyCore.sol\":1226:1296  require(manager() == msg.sender, \"Ownable: caller is not the manager\") */\n      tag_327\n      jumpi\n      mload(0x40)\n      0x08c379a000000000000000000000000000000000000000000000000000000000\n      dup2\n      mstore\n      0x04\n      add\n      tag_328\n      swap1\n      tag_242\n      jump\t// in\n    tag_328:\n      mload(0x40)\n      dup1\n      swap2\n      sub\n      swap1\n      revert\n    tag_327:\n        /* \"SquiddyCore.sol\":3212:3213  0 */\n      0x00\n        /* \"SquiddyCore.sol\":3192:3214  newOwner != address(0) */\n      0xffffffffffffffffffffffffffffffffffffffff\n      and\n        /* \"SquiddyCore.sol\":3192:3200  newOwner */\n      dup2\n        /* \"SquiddyCore.sol\":3192:3214  newOwner != address(0) */\n      0xffffffffffffffffffffffffffffffffffffffff\n      and\n      sub\n        /* \"SquiddyCore.sol\":3171:3280  require(... */\n      tag_330\n      jumpi\n      mload(0x40)\n      0x08c379a000000000000000000000000000000000000000000000000000000000\n      dup2\n      mstore\n      0x04\n      add\n      tag_331\n      swap1\n      tag_332\n      jump\t// in\n    tag_331:\n      mload(0x40)\n      dup1\n      swap2\n      sub\n      swap1\n      revert\n    tag_330:\n        /* \"SquiddyCore.sol\":3326:3334  newOwner */\n      dup1\n        /* \"SquiddyCore.sol\":3295:3335  OwnershipTransferred(_manager, newOwner) */\n      0xffffffffffffffffffffffffffffffffffffffff\n      and\n        /* \"SquiddyCore.sol\":3316:3324  _manager */\n      0x06\n      0x00\n      swap1\n      sload\n      swap1\n      0x0100\n      exp\n      swap1\n      div\n      0xffffffffffffffffffffffffffffffffffffffff\n      and\n        /* \"SquiddyCore.sol\":3295:3335  OwnershipTransferred(_manager, newOwner) */\n      0xffffffffffffffffffffffffffffffffffffffff\n      and\n      0x8be0079c531659141344cd1fd0a4f28419497f9722a3daafe3b4186f6b6457e0\n      mload(0x40)\n      mload(0x40)\n      dup1\n      swap2\n      sub\n      swap1\n      log3\n        /* \"SquiddyCore.sol\":3356:3364  newOwner */\n      dup1\n        /* \"SquiddyCore.sol\":3345:3353  _manager */\n      0x06\n      0x00\n        /* \"SquiddyCore.sol\":3345:3364  _manager = newOwner */\n      0x0100\n      exp\n      dup2\n      sload\n      dup2\n      0xffffffffffffffffffffffffffffffffffffffff\n      mul\n      not\n      and\n      swap1\n      dup4\n      0xffffffffffffffffffffffffffffffffffffffff\n      and\n      mul\n      or\n      swap1\n      sstore\n      pop\n        /* \"SquiddyCore.sol\":3089:3371  function transferOwnership(address newOwner) public virtual onlyManager {... */\n      pop\n      jump\t// out\n        /* \"SquiddyCore.sol\":268:316  uint256 public afterDepositHookCalledCounter = 0 */\n    tag_182:\n      sload(0x08)\n      dup2\n      jump\t// out\n        /* \"FixedPointMathLib.sol\":1507:2130  function mulDivDown(... */\n    tag_200:\n        /* \"FixedPointMathLib.sol\":1623:1632  uint256 z */\n      0x00\n        /* \"FixedPointMathLib.sol\":1720:1721  y */\n      dup3\n        /* \"FixedPointMathLib.sol\":1717:1718  x */\n      dup5\n        /* \"FixedPointMathLib.sol\":1713:1722  mul(x, y) */\n      mul\n        /* \"FixedPointMathLib.sol\":1708:1722  z := mul(x, y) */\n      swap1\n      pop\n        /* \"FixedPointMathLib.sol\":1952:1953  y */\n      dup3\n        /* \"FixedPointMathLib.sol\":1948:1949  x */\n      dup5\n        /* \"FixedPointMathLib.sol\":1945:1946  z */\n      dup3\n        /* \"FixedPointMathLib.sol\":1941:1950  div(z, x) */\n      div\n        /* \"FixedPointMathLib.sol\":1938:1954  eq(div(z, x), y) */\n      eq\n        /* \"FixedPointMathLib.sol\":1934:1935  x */\n      dup5\n        /* \"FixedPointMathLib.sol\":1927:1936  iszero(x) */\n      iszero\n        /* \"FixedPointMathLib.sol\":1924:1955  or(iszero(x), eq(div(z, x), y)) */\n      or\n        /* \"FixedPointMathLib.sol\":1889:1900  denominator */\n      dup3\n        /* \"FixedPointMathLib.sol\":1882:1901  iszero(denominator) */\n      iszero\n        /* \"FixedPointMathLib.sol\":1875:1902  iszero(iszero(denominator)) */\n      iszero\n        /* \"FixedPointMathLib.sol\":1850:1973  and(... */\n      and\n        /* \"FixedPointMathLib.sol\":1823:2032  if iszero(... */\n      tag_334\n      jumpi\n        /* \"FixedPointMathLib.sol\":2016:2017  0 */\n      0x00\n        /* \"FixedPointMathLib.sol\":2013:2014  0 */\n      dup1\n        /* \"FixedPointMathLib.sol\":2006:2018  revert(0, 0) */\n      revert\n        /* \"FixedPointMathLib.sol\":1823:2032  if iszero(... */\n    tag_334:\n        /* \"FixedPointMathLib.sol\":2102:2113  denominator */\n      dup2\n        /* \"FixedPointMathLib.sol\":2099:2100  z */\n      dup2\n        /* \"FixedPointMathLib.sol\":2095:2114  div(z, denominator) */\n      div\n        /* \"FixedPointMathLib.sol\":2090:2114  z := div(z, denominator) */\n      swap1\n      pop\n        /* \"FixedPointMathLib.sol\":1507:2130  function mulDivDown(... */\n      swap4\n      swap3\n      pop\n      pop\n      pop\n      jump\t// out\n        /* \"FixedPointMathLib.sol\":2136:2976  function mulDivUp(... */\n    tag_208:\n        /* \"FixedPointMathLib.sol\":2250:2259  uint256 z */\n      0x00\n        /* \"FixedPointMathLib.sol\":2347:2348  y */\n      dup3\n        /* \"FixedPointMathLib.sol\":2344:2345  x */\n      dup5\n        /* \"FixedPointMathLib.sol\":2340:2349  mul(x, y) */\n      mul\n        /* \"FixedPointMathLib.sol\":2335:2349  z := mul(x, y) */\n      swap1\n      pop\n        /* \"FixedPointMathLib.sol\":2579:2580  y */\n      dup3\n        /* \"FixedPointMathLib.sol\":2575:2576  x */\n      dup5\n        /* \"FixedPointMathLib.sol\":2572:2573  z */\n      dup3\n        /* \"FixedPointMathLib.sol\":2568:2577  div(z, x) */\n      div\n        /* \"FixedPointMathLib.sol\":2565:2581  eq(div(z, x), y) */\n      eq\n        /* \"FixedPointMathLib.sol\":2561:2562  x */\n      dup5\n        /* \"FixedPointMathLib.sol\":2554:2563  iszero(x) */\n      iszero\n        /* \"FixedPointMathLib.sol\":2551:2582  or(iszero(x), eq(div(z, x), y)) */\n      or\n        /* \"FixedPointMathLib.sol\":2516:2527  denominator */\n      dup3\n        /* \"FixedPointMathLib.sol\":2509:2528  iszero(denominator) */\n      iszero\n        /* \"FixedPointMathLib.sol\":2502:2529  iszero(iszero(denominator)) */\n      iszero\n        /* \"FixedPointMathLib.sol\":2477:2600  and(... */\n      and\n        /* \"FixedPointMathLib.sol\":2450:2659  if iszero(... */\n      tag_336\n      jumpi\n        /* \"FixedPointMathLib.sol\":2643:2644  0 */\n      0x00\n        /* \"FixedPointMathLib.sol\":2640:2641  0 */\n      dup1\n        /* \"FixedPointMathLib.sol\":2633:2645  revert(0, 0) */\n      revert\n        /* \"FixedPointMathLib.sol\":2450:2659  if iszero(... */\n    tag_336:\n        /* \"FixedPointMathLib.sol\":2957:2958  1 */\n      0x01\n        /* \"FixedPointMathLib.sol\":2943:2954  denominator */\n      dup3\n        /* \"FixedPointMathLib.sol\":2939:2940  1 */\n      0x01\n        /* \"FixedPointMathLib.sol\":2936:2937  z */\n      dup4\n        /* \"FixedPointMathLib.sol\":2932:2941  sub(z, 1) */\n      sub\n        /* \"FixedPointMathLib.sol\":2928:2955  div(sub(z, 1), denominator) */\n      div\n        /* \"FixedPointMathLib.sol\":2924:2959  add(div(sub(z, 1), denominator), 1) */\n      add\n        /* \"FixedPointMathLib.sol\":2919:2920  z */\n      dup2\n        /* \"FixedPointMathLib.sol\":2912:2921  iszero(z) */\n      iszero\n        /* \"FixedPointMathLib.sol\":2905:2922  iszero(iszero(z)) */\n      iszero\n        /* \"FixedPointMathLib.sol\":2901:2960  mul(iszero(iszero(z)), add(div(sub(z, 1), denominator), 1)) */\n      mul\n        /* \"FixedPointMathLib.sol\":2896:2960  z := mul(iszero(iszero(z)), add(div(sub(z, 1), denominator), 1)) */\n      swap1\n      pop\n        /* \"FixedPointMathLib.sol\":2136:2976  function mulDivUp(... */\n      swap4\n      swap3\n      pop\n      pop\n      pop\n      jump\t// out\n        /* \"ERC20.sol\":5698:6190  function computeDomainSeparator() internal view virtual returns (bytes32) {... */\n    tag_219:\n        /* \"ERC20.sol\":5763:5770  bytes32 */\n      0x00\n        /* \"ERC20.sol\":5860:6001  keccak256(... */\n      0x8b73c3c69bb8fe3d512ecc4cf759cc79239f7b179b0ffacaa9a75d522b39400f\n        /* \"ERC20.sol\":6039:6043  name */\n      0x00\n        /* \"ERC20.sol\":6023:6045  keccak256(bytes(name)) */\n      mload(0x40)\n      tag_338\n      swap2\n      swap1\n      tag_339\n      jump\t// in\n    tag_338:\n      mload(0x40)\n      dup1\n      swap2\n      sub\n      swap1\n      keccak256\n        /* \"ERC20.sol\":6067:6081  keccak256(\"1\") */\n      0xc89efdaa54c0f20c7adf612882df0950f5a951637e0307cdcb4c672f298b8bc6\n        /* \"ERC20.sol\":6103:6116  block.chainid */\n      chainid\n        /* \"ERC20.sol\":6146:6150  this */\n      address\n        /* \"ERC20.sol\":5828:6169  abi.encode(... */\n      add(0x20, mload(0x40))\n      tag_340\n      swap6\n      swap5\n      swap4\n      swap3\n      swap2\n      swap1\n      tag_341\n      jump\t// in\n    tag_340:\n      mload(0x40)\n      0x20\n      dup2\n      dup4\n      sub\n      sub\n      dup2\n      mstore\n      swap1\n      0x40\n      mstore\n        /* \"ERC20.sol\":5801:6183  keccak256(... */\n      dup1\n      mload\n      swap1\n      0x20\n      add\n      keccak256\n        /* \"ERC20.sol\":5782:6183  return... */\n      swap1\n      pop\n        /* \"ERC20.sol\":5698:6190  function computeDomainSeparator() internal view virtual returns (bytes32) {... */\n      swap1\n      jump\t// out\n        /* \"SafeTransferLib.sol\":1277:2954  function safeTransferFrom(... */\n    tag_231:\n        /* \"SafeTransferLib.sol\":1415:1427  bool success */\n      0x00\n        /* \"SafeTransferLib.sol\":1542:1546  0x40 */\n      0x40\n        /* \"SafeTransferLib.sol\":1536:1547  mload(0x40) */\n      mload\n        /* \"SafeTransferLib.sol\":1717:1783  0x23b872dd00000000000000000000000000000000000000000000000000000000 */\n      0x23b872dd00000000000000000000000000000000000000000000000000000000\n        /* \"SafeTransferLib.sol\":1682:1699  freeMemoryPointer */\n      dup2\n        /* \"SafeTransferLib.sol\":1658:1797  mstore(... */\n      mstore\n        /* \"SafeTransferLib.sol\":1844:1848  from */\n      dup5\n        /* \"SafeTransferLib.sol\":1840:1841  4 */\n      0x04\n        /* \"SafeTransferLib.sol\":1821:1838  freeMemoryPointer */\n      dup3\n        /* \"SafeTransferLib.sol\":1817:1842  add(freeMemoryPointer, 4) */\n      add\n        /* \"SafeTransferLib.sol\":1810:1849  mstore(add(freeMemoryPointer, 4), from) */\n      mstore\n        /* \"SafeTransferLib.sol\":1928:1930  to */\n      dup4\n        /* \"SafeTransferLib.sol\":1923:1925  36 */\n      0x24\n        /* \"SafeTransferLib.sol\":1904:1921  freeMemoryPointer */\n      dup3\n        /* \"SafeTransferLib.sol\":1900:1926  add(freeMemoryPointer, 36) */\n      add\n        /* \"SafeTransferLib.sol\":1893:1931  mstore(add(freeMemoryPointer, 36), to) */\n      mstore\n        /* \"SafeTransferLib.sol\":2008:2014  amount */\n      dup3\n        /* \"SafeTransferLib.sol\":2003:2005  68 */\n      0x44\n        /* \"SafeTransferLib.sol\":1984:2001  freeMemoryPointer */\n      dup3\n        /* \"SafeTransferLib.sol\":1980:2006  add(freeMemoryPointer, 68) */\n      add\n        /* \"SafeTransferLib.sol\":1973:2015  mstore(add(freeMemoryPointer, 68), amount) */\n      mstore\n        /* \"SafeTransferLib.sol\":2870:2872  32 */\n      0x20\n        /* \"SafeTransferLib.sol\":2867:2868  0 */\n      0x00\n        /* \"SafeTransferLib.sol\":2862:2865  100 */\n      0x64\n        /* \"SafeTransferLib.sol\":2843:2860  freeMemoryPointer */\n      dup4\n        /* \"SafeTransferLib.sol\":2840:2841  0 */\n      0x00\n        /* \"SafeTransferLib.sol\":2833:2838  token */\n      dup11\n        /* \"SafeTransferLib.sol\":2826:2831  gas() */\n      gas\n        /* \"SafeTransferLib.sol\":2821:2873  call(gas(), token, 0, freeMemoryPointer, 100, 0, 32) */\n      call\n        /* \"SafeTransferLib.sol\":2372:2388  returndatasize() */\n      returndatasize\n        /* \"SafeTransferLib.sol\":2365:2389  iszero(returndatasize()) */\n      iszero\n        /* \"SafeTransferLib.sol\":2339:2341  31 */\n      0x1f\n        /* \"SafeTransferLib.sol\":2321:2337  returndatasize() */\n      returndatasize\n        /* \"SafeTransferLib.sol\":2318:2342  gt(returndatasize(), 31) */\n      gt\n        /* \"SafeTransferLib.sol\":2314:2315  1 */\n      0x01\n        /* \"SafeTransferLib.sol\":2310:2311  0 */\n      0x00\n        /* \"SafeTransferLib.sol\":2304:2312  mload(0) */\n      mload\n        /* \"SafeTransferLib.sol\":2301:2316  eq(mload(0), 1) */\n      eq\n        /* \"SafeTransferLib.sol\":2297:2343  and(eq(mload(0), 1), gt(returndatasize(), 31)) */\n      and\n        /* \"SafeTransferLib.sol\":2273:2407  or(... */\n      or\n        /* \"SafeTransferLib.sol\":2073:2887  and(... */\n      and\n        /* \"SafeTransferLib.sol\":2062:2887  success := and(... */\n      swap2\n      pop\n        /* \"SafeTransferLib.sol\":1447:2897  {... */\n      pop\n        /* \"SafeTransferLib.sol\":2915:2922  success */\n      dup1\n        /* \"SafeTransferLib.sol\":2907:2947  require(success, \"TRANSFER_FROM_FAILED\") */\n      tag_343\n      jumpi\n      mload(0x40)\n      0x08c379a000000000000000000000000000000000000000000000000000000000\n      dup2\n      mstore\n      0x04\n      add\n      tag_344\n      swap1\n      tag_345\n      jump\t// in\n    tag_344:\n      mload(0x40)\n      dup1\n      swap2\n      sub\n      swap1\n      revert\n    tag_343:\n        /* \"SafeTransferLib.sol\":1405:2954  {... */\n      pop\n        /* \"SafeTransferLib.sol\":1277:2954  function safeTransferFrom(... */\n      pop\n      pop\n      pop\n      pop\n      jump\t// out\n        /* \"ERC20.sol\":6384:6709  function _mint(address to, uint256 amount) internal virtual {... */\n    tag_233:\n        /* \"ERC20.sol\":6469:6475  amount */\n      dup1\n        /* \"ERC20.sol\":6454:6465  totalSupply */\n      0x02\n      0x00\n        /* \"ERC20.sol\":6454:6475  totalSupply += amount */\n      dup3\n      dup3\n      sload\n      tag_347\n      swap2\n      swap1\n      tag_348\n      jump\t// in\n    tag_347:\n      swap3\n      pop\n      pop\n      dup2\n      swap1\n      sstore\n      pop\n        /* \"ERC20.sol\":6638:6644  amount */\n      dup1\n        /* \"ERC20.sol\":6621:6630  balanceOf */\n      0x03\n        /* \"ERC20.sol\":6621:6634  balanceOf[to] */\n      0x00\n        /* \"ERC20.sol\":6631:6633  to */\n      dup5\n        /* \"ERC20.sol\":6621:6634  balanceOf[to] */\n      0xffffffffffffffffffffffffffffffffffffffff\n      and\n      0xffffffffffffffffffffffffffffffffffffffff\n      and\n      dup2\n      mstore\n      0x20\n      add\n      swap1\n      dup2\n      mstore\n      0x20\n      add\n      0x00\n      keccak256\n      0x00\n        /* \"ERC20.sol\":6621:6644  balanceOf[to] += amount */\n      dup3\n      dup3\n      sload\n      add\n      swap3\n      pop\n      pop\n      dup2\n      swap1\n      sstore\n      pop\n        /* \"ERC20.sol\":6691:6693  to */\n      dup2\n        /* \"ERC20.sol\":6670:6702  Transfer(address(0), to, amount) */\n      0xffffffffffffffffffffffffffffffffffffffff\n      and\n        /* \"ERC20.sol\":6687:6688  0 */\n      0x00\n        /* \"ERC20.sol\":6670:6702  Transfer(address(0), to, amount) */\n      0xffffffffffffffffffffffffffffffffffffffff\n      and\n      0xddf252ad1be2c89b69c2b068fc378daa952ba7f163c4a11628f55a4df523b3ef\n        /* \"ERC20.sol\":6695:6701  amount */\n      dup4\n        /* \"ERC20.sol\":6670:6702  Transfer(address(0), to, amount) */\n      mload(0x40)\n      tag_349\n      swap2\n      swap1\n      tag_48\n      jump\t// in\n    tag_349:\n      mload(0x40)\n      dup1\n      swap2\n      sub\n      swap1\n      log3\n        /* \"ERC20.sol\":6384:6709  function _mint(address to, uint256 amount) internal virtual {... */\n      pop\n      pop\n      jump\t// out\n        /* \"SquiddyCore.sol\":1968:2074  function afterDeposit(uint256, uint256) internal override {... */\n    tag_237:\n        /* \"SquiddyCore.sol\":2036:2065  afterDepositHookCalledCounter */\n      0x08\n      0x00\n        /* \"SquiddyCore.sol\":2036:2067  afterDepositHookCalledCounter++ */\n      dup2\n      sload\n      dup1\n      swap3\n      swap2\n      swap1\n      tag_351\n      swap1\n      tag_352\n      jump\t// in\n    tag_351:\n      swap2\n      swap1\n      pop\n      sstore\n      pop\n        /* \"SquiddyCore.sol\":1968:2074  function afterDeposit(uint256, uint256) internal override {... */\n      pop\n      pop\n      jump\t// out\n        /* \"SquiddyCore.sol\":1852:1962  function beforeWithdraw(uint256, uint256) internal override {... */\n    tag_278:\n        /* \"SquiddyCore.sol\":1922:1953  beforeWithdrawHookCalledCounter */\n      0x07\n      0x00\n        /* \"SquiddyCore.sol\":1922:1955  beforeWithdrawHookCalledCounter++ */\n      dup2\n      sload\n      dup1\n      swap3\n      swap2\n      swap1\n      tag_354\n      swap1\n      tag_352\n      jump\t// in\n    tag_354:\n      swap2\n      swap1\n      pop\n      sstore\n      pop\n        /* \"SquiddyCore.sol\":1852:1962  function beforeWithdraw(uint256, uint256) internal override {... */\n      pop\n      pop\n      jump\t// out\n        /* \"ERC20.sol\":6715:7043  function _burn(address from, uint256 amount) internal virtual {... */\n    tag_280:\n        /* \"ERC20.sol\":6806:6812  amount */\n      dup1\n        /* \"ERC20.sol\":6787:6796  balanceOf */\n      0x03\n        /* \"ERC20.sol\":6787:6802  balanceOf[from] */\n      0x00\n        /* \"ERC20.sol\":6797:6801  from */\n      dup5\n        /* \"ERC20.sol\":6787:6802  balanceOf[from] */\n      0xffffffffffffffffffffffffffffffffffffffff\n      and\n      0xffffffffffffffffffffffffffffffffffffffff\n      and\n      dup2\n      mstore\n      0x20\n      add\n      swap1\n      dup2\n      mstore\n      0x20\n      add\n      0x00\n      keccak256\n      0x00\n        /* \"ERC20.sol\":6787:6812  balanceOf[from] -= amount */\n      dup3\n      dup3\n      sload\n      tag_356\n      swap2\n      swap1\n      tag_213\n      jump\t// in\n    tag_356:\n      swap3\n      pop\n      pop\n      dup2\n      swap1\n      sstore\n      pop\n        /* \"ERC20.sol\":6970:6976  amount */\n      dup1\n        /* \"ERC20.sol\":6955:6966  totalSupply */\n      0x02\n      0x00\n        /* \"ERC20.sol\":6955:6976  totalSupply -= amount */\n      dup3\n      dup3\n      sload\n      sub\n      swap3\n      pop\n      pop\n      dup2\n      swap1\n      sstore\n      pop\n        /* \"ERC20.sol\":7025:7026  0 */\n      0x00\n        /* \"ERC20.sol\":7002:7036  Transfer(from, address(0), amount) */\n      0xffffffffffffffffffffffffffffffffffffffff\n      and\n        /* \"ERC20.sol\":7011:7015  from */\n      dup3\n        /* \"ERC20.sol\":7002:7036  Transfer(from, address(0), amount) */\n      0xffffffffffffffffffffffffffffffffffffffff\n      and\n      0xddf252ad1be2c89b69c2b068fc378daa952ba7f163c4a11628f55a4df523b3ef\n        /* \"ERC20.sol\":7029:7035  amount */\n      dup4\n        /* \"ERC20.sol\":7002:7036  Transfer(from, address(0), amount) */\n      mload(0x40)\n      tag_357\n      swap2\n      swap1\n      tag_48\n      jump\t// in\n    tag_357:\n      mload(0x40)\n      dup1\n      swap2\n      sub\n      swap1\n      log3\n        /* \"ERC20.sol\":6715:7043  function _burn(address from, uint256 amount) internal virtual {... */\n      pop\n      pop\n      jump\t// out\n        /* \"SafeTransferLib.sol\":2960:4520  function safeTransfer(... */\n    tag_283:\n        /* \"SafeTransferLib.sol\":3072:3084  bool success */\n      0x00\n        /* \"SafeTransferLib.sol\":3199:3203  0x40 */\n      0x40\n        /* \"SafeTransferLib.sol\":3193:3204  mload(0x40) */\n      mload\n        /* \"SafeTransferLib.sol\":3374:3440  0xa9059cbb00000000000000000000000000000000000000000000000000000000 */\n      0xa9059cbb00000000000000000000000000000000000000000000000000000000\n        /* \"SafeTransferLib.sol\":3339:3356  freeMemoryPointer */\n      dup2\n        /* \"SafeTransferLib.sol\":3315:3454  mstore(... */\n      mstore\n        /* \"SafeTransferLib.sol\":3501:3503  to */\n      dup4\n        /* \"SafeTransferLib.sol\":3497:3498  4 */\n      0x04\n        /* \"SafeTransferLib.sol\":3478:3495  freeMemoryPointer */\n      dup3\n        /* \"SafeTransferLib.sol\":3474:3499  add(freeMemoryPointer, 4) */\n      add\n        /* \"SafeTransferLib.sol\":3467:3504  mstore(add(freeMemoryPointer, 4), to) */\n      mstore\n        /* \"SafeTransferLib.sol\":3581:3587  amount */\n      dup3\n        /* \"SafeTransferLib.sol\":3576:3578  36 */\n      0x24\n        /* \"SafeTransferLib.sol\":3557:3574  freeMemoryPointer */\n      dup3\n        /* \"SafeTransferLib.sol\":3553:3579  add(freeMemoryPointer, 36) */\n      add\n        /* \"SafeTransferLib.sol\":3546:3588  mstore(add(freeMemoryPointer, 36), amount) */\n      mstore\n        /* \"SafeTransferLib.sol\":4441:4443  32 */\n      0x20\n        /* \"SafeTransferLib.sol\":4438:4439  0 */\n      0x00\n        /* \"SafeTransferLib.sol\":4434:4436  68 */\n      0x44\n        /* \"SafeTransferLib.sol\":4415:4432  freeMemoryPointer */\n      dup4\n        /* \"SafeTransferLib.sol\":4412:4413  0 */\n      0x00\n        /* \"SafeTransferLib.sol\":4405:4410  token */\n      dup10\n        /* \"SafeTransferLib.sol\":4398:4403  gas() */\n      gas\n        /* \"SafeTransferLib.sol\":4393:4444  call(gas(), token, 0, freeMemoryPointer, 68, 0, 32) */\n      call\n        /* \"SafeTransferLib.sol\":3945:3961  returndatasize() */\n      returndatasize\n        /* \"SafeTransferLib.sol\":3938:3962  iszero(returndatasize()) */\n      iszero\n        /* \"SafeTransferLib.sol\":3912:3914  31 */\n      0x1f\n        /* \"SafeTransferLib.sol\":3894:3910  returndatasize() */\n      returndatasize\n        /* \"SafeTransferLib.sol\":3891:3915  gt(returndatasize(), 31) */\n      gt\n        /* \"SafeTransferLib.sol\":3887:3888  1 */\n      0x01\n        /* \"SafeTransferLib.sol\":3883:3884  0 */\n      0x00\n        /* \"SafeTransferLib.sol\":3877:3885  mload(0) */\n      mload\n        /* \"SafeTransferLib.sol\":3874:3889  eq(mload(0), 1) */\n      eq\n        /* \"SafeTransferLib.sol\":3870:3916  and(eq(mload(0), 1), gt(returndatasize(), 31)) */\n      and\n        /* \"SafeTransferLib.sol\":3846:3980  or(... */\n      or\n        /* \"SafeTransferLib.sol\":3646:4458  and(... */\n      and\n        /* \"SafeTransferLib.sol\":3635:4458  success := and(... */\n      swap2\n      pop\n        /* \"SafeTransferLib.sol\":3104:4468  {... */\n      pop\n        /* \"SafeTransferLib.sol\":4486:4493  success */\n      dup1\n        /* \"SafeTransferLib.sol\":4478:4513  require(success, \"TRANSFER_FAILED\") */\n      tag_359\n      jumpi\n      mload(0x40)\n      0x08c379a000000000000000000000000000000000000000000000000000000000\n      dup2\n      mstore\n      0x04\n      add\n      tag_360\n      swap1\n      tag_361\n      jump\t// in\n    tag_360:\n      mload(0x40)\n      dup1\n      swap2\n      sub\n      swap1\n      revert\n    tag_359:\n        /* \"SafeTransferLib.sol\":3062:4520  {... */\n      pop\n        /* \"SafeTransferLib.sol\":2960:4520  function safeTransfer(... */\n      pop\n      pop\n      pop\n      jump\t// out\n        /* \"#utility.yul\":7:84   */\n    tag_362:\n        /* \"#utility.yul\":44:51   */\n      0x00\n        /* \"#utility.yul\":73:78   */\n      dup2\n        /* \"#utility.yul\":62:78   */\n      swap1\n      pop\n        /* \"#utility.yul\":7:84   */\n      swap2\n      swap1\n      pop\n      jump\t// out\n        /* \"#utility.yul\":90:208   */\n    tag_363:\n        /* \"#utility.yul\":177:201   */\n      tag_426\n        /* \"#utility.yul\":195:200   */\n      dup2\n        /* \"#utility.yul\":177:201   */\n      tag_362\n      jump\t// in\n    tag_426:\n        /* \"#utility.yul\":172:175   */\n      dup3\n        /* \"#utility.yul\":165:202   */\n      mstore\n        /* \"#utility.yul\":90:208   */\n      pop\n      pop\n      jump\t// out\n        /* \"#utility.yul\":214:436   */\n    tag_48:\n        /* \"#utility.yul\":307:311   */\n      0x00\n        /* \"#utility.yul\":345:347   */\n      0x20\n        /* \"#utility.yul\":334:343   */\n      dup3\n        /* \"#utility.yul\":330:348   */\n      add\n        /* \"#utility.yul\":322:348   */\n      swap1\n      pop\n        /* \"#utility.yul\":358:429   */\n      tag_428\n        /* \"#utility.yul\":426:427   */\n      0x00\n        /* \"#utility.yul\":415:424   */\n      dup4\n        /* \"#utility.yul\":411:428   */\n      add\n        /* \"#utility.yul\":402:408   */\n      dup5\n        /* \"#utility.yul\":358:429   */\n      tag_363\n      jump\t// in\n    tag_428:\n        /* \"#utility.yul\":214:436   */\n      swap3\n      swap2\n      pop\n      pop\n      jump\t// out\n        /* \"#utility.yul\":442:541   */\n    tag_364:\n        /* \"#utility.yul\":494:500   */\n      0x00\n        /* \"#utility.yul\":528:533   */\n      dup2\n        /* \"#utility.yul\":522:534   */\n      mload\n        /* \"#utility.yul\":512:534   */\n      swap1\n      pop\n        /* \"#utility.yul\":442:541   */\n      swap2\n      swap1\n      pop\n      jump\t// out\n        /* \"#utility.yul\":547:716   */\n    tag_365:\n        /* \"#utility.yul\":631:642   */\n      0x00\n        /* \"#utility.yul\":665:671   */\n      dup3\n        /* \"#utility.yul\":660:663   */\n      dup3\n        /* \"#utility.yul\":653:672   */\n      mstore\n        /* \"#utility.yul\":705:709   */\n      0x20\n        /* \"#utility.yul\":700:703   */\n      dup3\n        /* \"#utility.yul\":696:710   */\n      add\n        /* \"#utility.yul\":681:710   */\n      swap1\n      pop\n        /* \"#utility.yul\":547:716   */\n      swap3\n      swap2\n      pop\n      pop\n      jump\t// out\n        /* \"#utility.yul\":722:968   */\n    tag_366:\n        /* \"#utility.yul\":803:804   */\n      0x00\n        /* \"#utility.yul\":813:926   */\n    tag_432:\n        /* \"#utility.yul\":827:833   */\n      dup4\n        /* \"#utility.yul\":824:825   */\n      dup2\n        /* \"#utility.yul\":821:834   */\n      lt\n        /* \"#utility.yul\":813:926   */\n      iszero\n      tag_434\n      jumpi\n        /* \"#utility.yul\":912:913   */\n      dup1\n        /* \"#utility.yul\":907:910   */\n      dup3\n        /* \"#utility.yul\":903:914   */\n      add\n        /* \"#utility.yul\":897:915   */\n      mload\n        /* \"#utility.yul\":893:894   */\n      dup2\n        /* \"#utility.yul\":888:891   */\n      dup5\n        /* \"#utility.yul\":884:895   */\n      add\n        /* \"#utility.yul\":877:916   */\n      mstore\n        /* \"#utility.yul\":849:851   */\n      0x20\n        /* \"#utility.yul\":846:847   */\n      dup2\n        /* \"#utility.yul\":842:852   */\n      add\n        /* \"#utility.yul\":837:852   */\n      swap1\n      pop\n        /* \"#utility.yul\":813:926   */\n      jump(tag_432)\n    tag_434:\n        /* \"#utility.yul\":960:961   */\n      0x00\n        /* \"#utility.yul\":951:957   */\n      dup5\n        /* \"#utility.yul\":946:949   */\n      dup5\n        /* \"#utility.yul\":942:958   */\n      add\n        /* \"#utility.yul\":935:962   */\n      mstore\n        /* \"#utility.yul\":784:968   */\n      pop\n        /* \"#utility.yul\":722:968   */\n      pop\n      pop\n      pop\n      jump\t// out\n        /* \"#utility.yul\":974:1076   */\n    tag_367:\n        /* \"#utility.yul\":1015:1021   */\n      0x00\n        /* \"#utility.yul\":1066:1068   */\n      0x1f\n        /* \"#utility.yul\":1062:1069   */\n      not\n        /* \"#utility.yul\":1057:1059   */\n      0x1f\n        /* \"#utility.yul\":1050:1055   */\n      dup4\n        /* \"#utility.yul\":1046:1060   */\n      add\n        /* \"#utility.yul\":1042:1070   */\n      and\n        /* \"#utility.yul\":1032:1070   */\n      swap1\n      pop\n        /* \"#utility.yul\":974:1076   */\n      swap2\n      swap1\n      pop\n      jump\t// out\n        /* \"#utility.yul\":1082:1459   */\n    tag_368:\n        /* \"#utility.yul\":1170:1173   */\n      0x00\n        /* \"#utility.yul\":1198:1237   */\n      tag_437\n        /* \"#utility.yul\":1231:1236   */\n      dup3\n        /* \"#utility.yul\":1198:1237   */\n      tag_364\n      jump\t// in\n    tag_437:\n        /* \"#utility.yul\":1253:1324   */\n      tag_438\n        /* \"#utility.yul\":1317:1323   */\n      dup2\n        /* \"#utility.yul\":1312:1315   */\n      dup6\n        /* \"#utility.yul\":1253:1324   */\n      tag_365\n      jump\t// in\n    tag_438:\n        /* \"#utility.yul\":1246:1324   */\n      swap4\n      pop\n        /* \"#utility.yul\":1333:1398   */\n      tag_439\n        /* \"#utility.yul\":1391:1397   */\n      dup2\n        /* \"#utility.yul\":1386:1389   */\n      dup6\n        /* \"#utility.yul\":1379:1383   */\n      0x20\n        /* \"#utility.yul\":1372:1377   */\n      dup7\n        /* \"#utility.yul\":1368:1384   */\n      add\n        /* \"#utility.yul\":1333:1398   */\n      tag_366\n      jump\t// in\n    tag_439:\n        /* \"#utility.yul\":1423:1452   */\n      tag_440\n        /* \"#utility.yul\":1445:1451   */\n      dup2\n        /* \"#utility.yul\":1423:1452   */\n      tag_367\n      jump\t// in\n    tag_440:\n        /* \"#utility.yul\":1418:1421   */\n      dup5\n        /* \"#utility.yul\":1414:1453   */\n      add\n        /* \"#utility.yul\":1407:1453   */\n      swap2\n      pop\n        /* \"#utility.yul\":1174:1459   */\n      pop\n        /* \"#utility.yul\":1082:1459   */\n      swap3\n      swap2\n      pop\n      pop\n      jump\t// out\n        /* \"#utility.yul\":1465:1778   */\n    tag_52:\n        /* \"#utility.yul\":1578:1582   */\n      0x00\n        /* \"#utility.yul\":1616:1618   */\n      0x20\n        /* \"#utility.yul\":1605:1614   */\n      dup3\n        /* \"#utility.yul\":1601:1619   */\n      add\n        /* \"#utility.yul\":1593:1619   */\n      swap1\n      pop\n        /* \"#utility.yul\":1665:1674   */\n      dup2\n        /* \"#utility.yul\":1659:1663   */\n      dup2\n        /* \"#utility.yul\":1655:1675   */\n      sub\n        /* \"#utility.yul\":1651:1652   */\n      0x00\n        /* \"#utility.yul\":1640:1649   */\n      dup4\n        /* \"#utility.yul\":1636:1653   */\n      add\n        /* \"#utility.yul\":1629:1676   */\n      mstore\n        /* \"#utility.yul\":1693:1771   */\n      tag_442\n        /* \"#utility.yul\":1766:1770   */\n      dup2\n        /* \"#utility.yul\":1757:1763   */\n      dup5\n        /* \"#utility.yul\":1693:1771   */\n      tag_368\n      jump\t// in\n    tag_442:\n        /* \"#utility.yul\":1685:1771   */\n      swap1\n      pop\n        /* \"#utility.yul\":1465:1778   */\n      swap3\n      swap2\n      pop\n      pop\n      jump\t// out\n        /* \"#utility.yul\":1865:1982   */\n    tag_370:\n        /* \"#utility.yul\":1974:1975   */\n      0x00\n        /* \"#utility.yul\":1971:1972   */\n      dup1\n        /* \"#utility.yul\":1964:1976   */\n      revert\n        /* \"#utility.yul\":2111:2233   */\n    tag_372:\n        /* \"#utility.yul\":2184:2208   */\n      tag_447\n        /* \"#utility.yul\":2202:2207   */\n      dup2\n        /* \"#utility.yul\":2184:2208   */\n      tag_362\n      jump\t// in\n    tag_447:\n        /* \"#utility.yul\":2177:2182   */\n      dup2\n        /* \"#utility.yul\":2174:2209   */\n      eq\n        /* \"#utility.yul\":2164:2227   */\n      tag_448\n      jumpi\n        /* \"#utility.yul\":2223:2224   */\n      0x00\n        /* \"#utility.yul\":2220:2221   */\n      dup1\n        /* \"#utility.yul\":2213:2225   */\n      revert\n        /* \"#utility.yul\":2164:2227   */\n    tag_448:\n        /* \"#utility.yul\":2111:2233   */\n      pop\n      jump\t// out\n        /* \"#utility.yul\":2239:2378   */\n    tag_373:\n        /* \"#utility.yul\":2285:2290   */\n      0x00\n        /* \"#utility.yul\":2323:2329   */\n      dup2\n        /* \"#utility.yul\":2310:2330   */\n      calldataload\n        /* \"#utility.yul\":2301:2330   */\n      swap1\n      pop\n        /* \"#utility.yul\":2339:2372   */\n      tag_450\n        /* \"#utility.yul\":2366:2371   */\n      dup2\n        /* \"#utility.yul\":2339:2372   */\n      tag_372\n      jump\t// in\n    tag_450:\n        /* \"#utility.yul\":2239:2378   */\n      swap3\n      swap2\n      pop\n      pop\n      jump\t// out\n        /* \"#utility.yul\":2384:2713   */\n    tag_55:\n        /* \"#utility.yul\":2443:2449   */\n      0x00\n        /* \"#utility.yul\":2492:2494   */\n      0x20\n        /* \"#utility.yul\":2480:2489   */\n      dup3\n        /* \"#utility.yul\":2471:2478   */\n      dup5\n        /* \"#utility.yul\":2467:2490   */\n      sub\n        /* \"#utility.yul\":2463:2495   */\n      slt\n        /* \"#utility.yul\":2460:2579   */\n      iszero\n      tag_452\n      jumpi\n        /* \"#utility.yul\":2498:2577   */\n      tag_453\n      tag_370\n      jump\t// in\n    tag_453:\n        /* \"#utility.yul\":2460:2579   */\n    tag_452:\n        /* \"#utility.yul\":2618:2619   */\n      0x00\n        /* \"#utility.yul\":2643:2696   */\n      tag_454\n        /* \"#utility.yul\":2688:2695   */\n      dup5\n        /* \"#utility.yul\":2679:2685   */\n      dup3\n        /* \"#utility.yul\":2668:2677   */\n      dup6\n        /* \"#utility.yul\":2664:2686   */\n      add\n        /* \"#utility.yul\":2643:2696   */\n      tag_373\n      jump\t// in\n    tag_454:\n        /* \"#utility.yul\":2633:2696   */\n      swap2\n      pop\n        /* \"#utility.yul\":2589:2706   */\n      pop\n        /* \"#utility.yul\":2384:2713   */\n      swap3\n      swap2\n      pop\n      pop\n      jump\t// out\n        /* \"#utility.yul\":2719:2845   */\n    tag_374:\n        /* \"#utility.yul\":2756:2763   */\n      0x00\n        /* \"#utility.yul\":2796:2838   */\n      0xffffffffffffffffffffffffffffffffffffffff\n        /* \"#utility.yul\":2789:2794   */\n      dup3\n        /* \"#utility.yul\":2785:2839   */\n      and\n        /* \"#utility.yul\":2774:2839   */\n      swap1\n      pop\n        /* \"#utility.yul\":2719:2845   */\n      swap2\n      swap1\n      pop\n      jump\t// out\n        /* \"#utility.yul\":2851:2947   */\n    tag_375:\n        /* \"#utility.yul\":2888:2895   */\n      0x00\n        /* \"#utility.yul\":2917:2941   */\n      tag_457\n        /* \"#utility.yul\":2935:2940   */\n      dup3\n        /* \"#utility.yul\":2917:2941   */\n      tag_374\n      jump\t// in\n    tag_457:\n        /* \"#utility.yul\":2906:2941   */\n      swap1\n      pop\n        /* \"#utility.yul\":2851:2947   */\n      swap2\n      swap1\n      pop\n      jump\t// out\n        /* \"#utility.yul\":2953:3075   */\n    tag_376:\n        /* \"#utility.yul\":3026:3050   */\n      tag_459\n        /* \"#utility.yul\":3044:3049   */\n      dup2\n        /* \"#utility.yul\":3026:3050   */\n      tag_375\n      jump\t// in\n    tag_459:\n        /* \"#utility.yul\":3019:3024   */\n      dup2\n        /* \"#utility.yul\":3016:3051   */\n      eq\n        /* \"#utility.yul\":3006:3069   */\n      tag_460\n      jumpi\n        /* \"#utility.yul\":3065:3066   */\n      0x00\n        /* \"#utility.yul\":3062:3063   */\n      dup1\n        /* \"#utility.yul\":3055:3067   */\n      revert\n        /* \"#utility.yul\":3006:3069   */\n    tag_460:\n        /* \"#utility.yul\":2953:3075   */\n      pop\n      jump\t// out\n        /* \"#utility.yul\":3081:3220   */\n    tag_377:\n        /* \"#utility.yul\":3127:3132   */\n      0x00\n        /* \"#utility.yul\":3165:3171   */\n      dup2\n        /* \"#utility.yul\":3152:3172   */\n      calldataload\n        /* \"#utility.yul\":3143:3172   */\n      swap1\n      pop\n        /* \"#utility.yul\":3181:3214   */\n      tag_462\n        /* \"#utility.yul\":3208:3213   */\n      dup2\n        /* \"#utility.yul\":3181:3214   */\n      tag_376\n      jump\t// in\n    tag_462:\n        /* \"#utility.yul\":3081:3220   */\n      swap3\n      swap2\n      pop\n      pop\n      jump\t// out\n        /* \"#utility.yul\":3226:3700   */\n    tag_60:\n        /* \"#utility.yul\":3294:3300   */\n      0x00\n        /* \"#utility.yul\":3302:3308   */\n      dup1\n        /* \"#utility.yul\":3351:3353   */\n      0x40\n        /* \"#utility.yul\":3339:3348   */\n      dup4\n        /* \"#utility.yul\":3330:3337   */\n      dup6\n        /* \"#utility.yul\":3326:3349   */\n      sub\n        /* \"#utility.yul\":3322:3354   */\n      slt\n        /* \"#utility.yul\":3319:3438   */\n      iszero\n      tag_464\n      jumpi\n        /* \"#utility.yul\":3357:3436   */\n      tag_465\n      tag_370\n      jump\t// in\n    tag_465:\n        /* \"#utility.yul\":3319:3438   */\n    tag_464:\n        /* \"#utility.yul\":3477:3478   */\n      0x00\n        /* \"#utility.yul\":3502:3555   */\n      tag_466\n        /* \"#utility.yul\":3547:3554   */\n      dup6\n        /* \"#utility.yul\":3538:3544   */\n      dup3\n        /* \"#utility.yul\":3527:3536   */\n      dup7\n        /* \"#utility.yul\":3523:3545   */\n      add\n        /* \"#utility.yul\":3502:3555   */\n      tag_377\n      jump\t// in\n    tag_466:\n        /* \"#utility.yul\":3492:3555   */\n      swap3\n      pop\n        /* \"#utility.yul\":3448:3565   */\n      pop\n        /* \"#utility.yul\":3604:3606   */\n      0x20\n        /* \"#utility.yul\":3630:3683   */\n      tag_467\n        /* \"#utility.yul\":3675:3682   */\n      dup6\n        /* \"#utility.yul\":3666:3672   */\n      dup3\n        /* \"#utility.yul\":3655:3664   */\n      dup7\n        /* \"#utility.yul\":3651:3673   */\n      add\n        /* \"#utility.yul\":3630:3683   */\n      tag_373\n      jump\t// in\n    tag_467:\n        /* \"#utility.yul\":3620:3683   */\n      swap2\n      pop\n        /* \"#utility.yul\":3575:3693   */\n      pop\n        /* \"#utility.yul\":3226:3700   */\n      swap3\n      pop\n      swap3\n      swap1\n      pop\n      jump\t// out\n        /* \"#utility.yul\":3706:3796   */\n    tag_378:\n        /* \"#utility.yul\":3740:3747   */\n      0x00\n        /* \"#utility.yul\":3783:3788   */\n      dup2\n        /* \"#utility.yul\":3776:3789   */\n      iszero\n        /* \"#utility.yul\":3769:3790   */\n      iszero\n        /* \"#utility.yul\":3758:3790   */\n      swap1\n      pop\n        /* \"#utility.yul\":3706:3796   */\n      swap2\n      swap1\n      pop\n      jump\t// out\n        /* \"#utility.yul\":3802:3911   */\n    tag_379:\n        /* \"#utility.yul\":3883:3904   */\n      tag_470\n        /* \"#utility.yul\":3898:3903   */\n      dup2\n        /* \"#utility.yul\":3883:3904   */\n      tag_378\n      jump\t// in\n    tag_470:\n        /* \"#utility.yul\":3878:3881   */\n      dup3\n        /* \"#utility.yul\":3871:3905   */\n      mstore\n        /* \"#utility.yul\":3802:3911   */\n      pop\n      pop\n      jump\t// out\n        /* \"#utility.yul\":3917:4127   */\n    tag_63:\n        /* \"#utility.yul\":4004:4008   */\n      0x00\n        /* \"#utility.yul\":4042:4044   */\n      0x20\n        /* \"#utility.yul\":4031:4040   */\n      dup3\n        /* \"#utility.yul\":4027:4045   */\n      add\n        /* \"#utility.yul\":4019:4045   */\n      swap1\n      pop\n        /* \"#utility.yul\":4055:4120   */\n      tag_472\n        /* \"#utility.yul\":4117:4118   */\n      0x00\n        /* \"#utility.yul\":4106:4115   */\n      dup4\n        /* \"#utility.yul\":4102:4119   */\n      add\n        /* \"#utility.yul\":4093:4099   */\n      dup5\n        /* \"#utility.yul\":4055:4120   */\n      tag_379\n      jump\t// in\n    tag_472:\n        /* \"#utility.yul\":3917:4127   */\n      swap3\n      swap2\n      pop\n      pop\n      jump\t// out\n        /* \"#utility.yul\":4133:4752   */\n    tag_73:\n        /* \"#utility.yul\":4210:4216   */\n      0x00\n        /* \"#utility.yul\":4218:4224   */\n      dup1\n        /* \"#utility.yul\":4226:4232   */\n      0x00\n        /* \"#utility.yul\":4275:4277   */\n      0x60\n        /* \"#utility.yul\":4263:4272   */\n      dup5\n        /* \"#utility.yul\":4254:4261   */\n      dup7\n        /* \"#utility.yul\":4250:4273   */\n      sub\n        /* \"#utility.yul\":4246:4278   */\n      slt\n        /* \"#utility.yul\":4243:4362   */\n      iszero\n      tag_474\n      jumpi\n        /* \"#utility.yul\":4281:4360   */\n      tag_475\n      tag_370\n      jump\t// in\n    tag_475:\n        /* \"#utility.yul\":4243:4362   */\n    tag_474:\n        /* \"#utility.yul\":4401:4402   */\n      0x00\n        /* \"#utility.yul\":4426:4479   */\n      tag_476\n        /* \"#utility.yul\":4471:4478   */\n      dup7\n        /* \"#utility.yul\":4462:4468   */\n      dup3\n        /* \"#utility.yul\":4451:4460   */\n      dup8\n        /* \"#utility.yul\":4447:4469   */\n      add\n        /* \"#utility.yul\":4426:4479   */\n      tag_377\n      jump\t// in\n    tag_476:\n        /* \"#utility.yul\":4416:4479   */\n      swap4\n      pop\n        /* \"#utility.yul\":4372:4489   */\n      pop\n        /* \"#utility.yul\":4528:4530   */\n      0x20\n        /* \"#utility.yul\":4554:4607   */\n      tag_477\n        /* \"#utility.yul\":4599:4606   */\n      dup7\n        /* \"#utility.yul\":4590:4596   */\n      dup3\n        /* \"#utility.yul\":4579:4588   */\n      dup8\n        /* \"#utility.yul\":4575:4597   */\n      add\n        /* \"#utility.yul\":4554:4607   */\n      tag_377\n      jump\t// in\n    tag_477:\n        /* \"#utility.yul\":4544:4607   */\n      swap3\n      pop\n        /* \"#utility.yul\":4499:4617   */\n      pop\n        /* \"#utility.yul\":4656:4658   */\n      0x40\n        /* \"#utility.yul\":4682:4735   */\n      tag_478\n        /* \"#utility.yul\":4727:4734   */\n      dup7\n        /* \"#utility.yul\":4718:4724   */\n      dup3\n        /* \"#utility.yul\":4707:4716   */\n      dup8\n        /* \"#utility.yul\":4703:4725   */\n      add\n        /* \"#utility.yul\":4682:4735   */\n      tag_373\n      jump\t// in\n    tag_478:\n        /* \"#utility.yul\":4672:4735   */\n      swap2\n      pop\n        /* \"#utility.yul\":4627:4745   */\n      pop\n        /* \"#utility.yul\":4133:4752   */\n      swap3\n      pop\n      swap3\n      pop\n      swap3\n      jump\t// out\n        /* \"#utility.yul\":4758:4844   */\n    tag_380:\n        /* \"#utility.yul\":4793:4800   */\n      0x00\n        /* \"#utility.yul\":4833:4837   */\n      0xff\n        /* \"#utility.yul\":4826:4831   */\n      dup3\n        /* \"#utility.yul\":4822:4838   */\n      and\n        /* \"#utility.yul\":4811:4838   */\n      swap1\n      pop\n        /* \"#utility.yul\":4758:4844   */\n      swap2\n      swap1\n      pop\n      jump\t// out\n        /* \"#utility.yul\":4850:4962   */\n    tag_381:\n        /* \"#utility.yul\":4933:4955   */\n      tag_481\n        /* \"#utility.yul\":4949:4954   */\n      dup2\n        /* \"#utility.yul\":4933:4955   */\n      tag_380\n      jump\t// in\n    tag_481:\n        /* \"#utility.yul\":4928:4931   */\n      dup3\n        /* \"#utility.yul\":4921:4956   */\n      mstore\n        /* \"#utility.yul\":4850:4962   */\n      pop\n      pop\n      jump\t// out\n        /* \"#utility.yul\":4968:5182   */\n    tag_79:\n        /* \"#utility.yul\":5057:5061   */\n      0x00\n        /* \"#utility.yul\":5095:5097   */\n      0x20\n        /* \"#utility.yul\":5084:5093   */\n      dup3\n        /* \"#utility.yul\":5080:5098   */\n      add\n        /* \"#utility.yul\":5072:5098   */\n      swap1\n      pop\n        /* \"#utility.yul\":5108:5175   */\n      tag_483\n        /* \"#utility.yul\":5172:5173   */\n      0x00\n        /* \"#utility.yul\":5161:5170   */\n      dup4\n        /* \"#utility.yul\":5157:5174   */\n      add\n        /* \"#utility.yul\":5148:5154   */\n      dup5\n        /* \"#utility.yul\":5108:5175   */\n      tag_381\n      jump\t// in\n    tag_483:\n        /* \"#utility.yul\":4968:5182   */\n      swap3\n      swap2\n      pop\n      pop\n      jump\t// out\n        /* \"#utility.yul\":5188:5265   */\n    tag_382:\n        /* \"#utility.yul\":5225:5232   */\n      0x00\n        /* \"#utility.yul\":5254:5259   */\n      dup2\n        /* \"#utility.yul\":5243:5259   */\n      swap1\n      pop\n        /* \"#utility.yul\":5188:5265   */\n      swap2\n      swap1\n      pop\n      jump\t// out\n        /* \"#utility.yul\":5271:5389   */\n    tag_383:\n        /* \"#utility.yul\":5358:5382   */\n      tag_486\n        /* \"#utility.yul\":5376:5381   */\n      dup2\n        /* \"#utility.yul\":5358:5382   */\n      tag_382\n      jump\t// in\n    tag_486:\n        /* \"#utility.yul\":5353:5356   */\n      dup3\n        /* \"#utility.yul\":5346:5383   */\n      mstore\n        /* \"#utility.yul\":5271:5389   */\n      pop\n      pop\n      jump\t// out\n        /* \"#utility.yul\":5395:5617   */\n    tag_83:\n        /* \"#utility.yul\":5488:5492   */\n      0x00\n        /* \"#utility.yul\":5526:5528   */\n      0x20\n        /* \"#utility.yul\":5515:5524   */\n      dup3\n        /* \"#utility.yul\":5511:5529   */\n      add\n        /* \"#utility.yul\":5503:5529   */\n      swap1\n      pop\n        /* \"#utility.yul\":5539:5610   */\n      tag_488\n        /* \"#utility.yul\":5607:5608   */\n      0x00\n        /* \"#utility.yul\":5596:5605   */\n      dup4\n        /* \"#utility.yul\":5592:5609   */\n      add\n        /* \"#utility.yul\":5583:5589   */\n      dup5\n        /* \"#utility.yul\":5539:5610   */\n      tag_383\n      jump\t// in\n    tag_488:\n        /* \"#utility.yul\":5395:5617   */\n      swap3\n      swap2\n      pop\n      pop\n      jump\t// out\n        /* \"#utility.yul\":5623:5683   */\n    tag_384:\n        /* \"#utility.yul\":5651:5654   */\n      0x00\n        /* \"#utility.yul\":5672:5677   */\n      dup2\n        /* \"#utility.yul\":5665:5677   */\n      swap1\n      pop\n        /* \"#utility.yul\":5623:5683   */\n      swap2\n      swap1\n      pop\n      jump\t// out\n        /* \"#utility.yul\":5689:5831   */\n    tag_385:\n        /* \"#utility.yul\":5739:5748   */\n      0x00\n        /* \"#utility.yul\":5772:5825   */\n      tag_491\n        /* \"#utility.yul\":5790:5824   */\n      tag_492\n        /* \"#utility.yul\":5799:5823   */\n      tag_493\n        /* \"#utility.yul\":5817:5822   */\n      dup5\n        /* \"#utility.yul\":5799:5823   */\n      tag_374\n      jump\t// in\n    tag_493:\n        /* \"#utility.yul\":5790:5824   */\n      tag_384\n      jump\t// in\n    tag_492:\n        /* \"#utility.yul\":5772:5825   */\n      tag_374\n      jump\t// in\n    tag_491:\n        /* \"#utility.yul\":5759:5825   */\n      swap1\n      pop\n        /* \"#utility.yul\":5689:5831   */\n      swap2\n      swap1\n      pop\n      jump\t// out\n        /* \"#utility.yul\":5837:5963   */\n    tag_386:\n        /* \"#utility.yul\":5887:5896   */\n      0x00\n        /* \"#utility.yul\":5920:5957   */\n      tag_495\n        /* \"#utility.yul\":5951:5956   */\n      dup3\n        /* \"#utility.yul\":5920:5957   */\n      tag_385\n      jump\t// in\n    tag_495:\n        /* \"#utility.yul\":5907:5957   */\n      swap1\n      pop\n        /* \"#utility.yul\":5837:5963   */\n      swap2\n      swap1\n      pop\n      jump\t// out\n        /* \"#utility.yul\":5969:6108   */\n    tag_387:\n        /* \"#utility.yul\":6032:6041   */\n      0x00\n        /* \"#utility.yul\":6065:6102   */\n      tag_497\n        /* \"#utility.yul\":6096:6101   */\n      dup3\n        /* \"#utility.yul\":6065:6102   */\n      tag_386\n      jump\t// in\n    tag_497:\n        /* \"#utility.yul\":6052:6102   */\n      swap1\n      pop\n        /* \"#utility.yul\":5969:6108   */\n      swap2\n      swap1\n      pop\n      jump\t// out\n        /* \"#utility.yul\":6114:6271   */\n    tag_388:\n        /* \"#utility.yul\":6214:6264   */\n      tag_499\n        /* \"#utility.yul\":6258:6263   */\n      dup2\n        /* \"#utility.yul\":6214:6264   */\n      tag_387\n      jump\t// in\n    tag_499:\n        /* \"#utility.yul\":6209:6212   */\n      dup3\n        /* \"#utility.yul\":6202:6265   */\n      mstore\n        /* \"#utility.yul\":6114:6271   */\n      pop\n      pop\n      jump\t// out\n        /* \"#utility.yul\":6277:6525   */\n    tag_87:\n        /* \"#utility.yul\":6383:6387   */\n      0x00\n        /* \"#utility.yul\":6421:6423   */\n      0x20\n        /* \"#utility.yul\":6410:6419   */\n      dup3\n        /* \"#utility.yul\":6406:6424   */\n      add\n        /* \"#utility.yul\":6398:6424   */\n      swap1\n      pop\n        /* \"#utility.yul\":6434:6518   */\n      tag_501\n        /* \"#utility.yul\":6515:6516   */\n      0x00\n        /* \"#utility.yul\":6504:6513   */\n      dup4\n        /* \"#utility.yul\":6500:6517   */\n      add\n        /* \"#utility.yul\":6491:6497   */\n      dup5\n        /* \"#utility.yul\":6434:6518   */\n      tag_388\n      jump\t// in\n    tag_501:\n        /* \"#utility.yul\":6277:6525   */\n      swap3\n      swap2\n      pop\n      pop\n      jump\t// out\n        /* \"#utility.yul\":6531:6860   */\n    tag_90:\n        /* \"#utility.yul\":6590:6596   */\n      0x00\n        /* \"#utility.yul\":6639:6641   */\n      0x20\n        /* \"#utility.yul\":6627:6636   */\n      dup3\n        /* \"#utility.yul\":6618:6625   */\n      dup5\n        /* \"#utility.yul\":6614:6637   */\n      sub\n        /* \"#utility.yul\":6610:6642   */\n      slt\n        /* \"#utility.yul\":6607:6726   */\n      iszero\n      tag_503\n      jumpi\n        /* \"#utility.yul\":6645:6724   */\n      tag_504\n      tag_370\n      jump\t// in\n    tag_504:\n        /* \"#utility.yul\":6607:6726   */\n    tag_503:\n        /* \"#utility.yul\":6765:6766   */\n      0x00\n        /* \"#utility.yul\":6790:6843   */\n      tag_505\n        /* \"#utility.yul\":6835:6842   */\n      dup5\n        /* \"#utility.yul\":6826:6832   */\n      dup3\n        /* \"#utility.yul\":6815:6824   */\n      dup6\n        /* \"#utility.yul\":6811:6833   */\n      add\n        /* \"#utility.yul\":6790:6843   */\n      tag_377\n      jump\t// in\n    tag_505:\n        /* \"#utility.yul\":6780:6843   */\n      swap2\n      pop\n        /* \"#utility.yul\":6736:6853   */\n      pop\n        /* \"#utility.yul\":6531:6860   */\n      swap3\n      swap2\n      pop\n      pop\n      jump\t// out\n        /* \"#utility.yul\":6866:6984   */\n    tag_389:\n        /* \"#utility.yul\":6953:6977   */\n      tag_507\n        /* \"#utility.yul\":6971:6976   */\n      dup2\n        /* \"#utility.yul\":6953:6977   */\n      tag_375\n      jump\t// in\n    tag_507:\n        /* \"#utility.yul\":6948:6951   */\n      dup3\n        /* \"#utility.yul\":6941:6978   */\n      mstore\n        /* \"#utility.yul\":6866:6984   */\n      pop\n      pop\n      jump\t// out\n        /* \"#utility.yul\":6990:7212   */\n    tag_96:\n        /* \"#utility.yul\":7083:7087   */\n      0x00\n        /* \"#utility.yul\":7121:7123   */\n      0x20\n        /* \"#utility.yul\":7110:7119   */\n      dup3\n        /* \"#utility.yul\":7106:7124   */\n      add\n        /* \"#utility.yul\":7098:7124   */\n      swap1\n      pop\n        /* \"#utility.yul\":7134:7205   */\n      tag_509\n        /* \"#utility.yul\":7202:7203   */\n      0x00\n        /* \"#utility.yul\":7191:7200   */\n      dup4\n        /* \"#utility.yul\":7187:7204   */\n      add\n        /* \"#utility.yul\":7178:7184   */\n      dup5\n        /* \"#utility.yul\":7134:7205   */\n      tag_389\n      jump\t// in\n    tag_509:\n        /* \"#utility.yul\":6990:7212   */\n      swap3\n      swap2\n      pop\n      pop\n      jump\t// out\n        /* \"#utility.yul\":7218:7692   */\n    tag_103:\n        /* \"#utility.yul\":7286:7292   */\n      0x00\n        /* \"#utility.yul\":7294:7300   */\n      dup1\n        /* \"#utility.yul\":7343:7345   */\n      0x40\n        /* \"#utility.yul\":7331:7340   */\n      dup4\n        /* \"#utility.yul\":7322:7329   */\n      dup6\n        /* \"#utility.yul\":7318:7341   */\n      sub\n        /* \"#utility.yul\":7314:7346   */\n      slt\n        /* \"#utility.yul\":7311:7430   */\n      iszero\n      tag_511\n      jumpi\n        /* \"#utility.yul\":7349:7428   */\n      tag_512\n      tag_370\n      jump\t// in\n    tag_512:\n        /* \"#utility.yul\":7311:7430   */\n    tag_511:\n        /* \"#utility.yul\":7469:7470   */\n      0x00\n        /* \"#utility.yul\":7494:7547   */\n      tag_513\n        /* \"#utility.yul\":7539:7546   */\n      dup6\n        /* \"#utility.yul\":7530:7536   */\n      dup3\n        /* \"#utility.yul\":7519:7528   */\n      dup7\n        /* \"#utility.yul\":7515:7537   */\n      add\n        /* \"#utility.yul\":7494:7547   */\n      tag_373\n      jump\t// in\n    tag_513:\n        /* \"#utility.yul\":7484:7547   */\n      swap3\n      pop\n        /* \"#utility.yul\":7440:7557   */\n      pop\n        /* \"#utility.yul\":7596:7598   */\n      0x20\n        /* \"#utility.yul\":7622:7675   */\n      tag_514\n        /* \"#utility.yul\":7667:7674   */\n      dup6\n        /* \"#utility.yul\":7658:7664   */\n      dup3\n        /* \"#utility.yul\":7647:7656   */\n      dup7\n        /* \"#utility.yul\":7643:7665   */\n      add\n        /* \"#utility.yul\":7622:7675   */\n      tag_377\n      jump\t// in\n    tag_514:\n        /* \"#utility.yul\":7612:7675   */\n      swap2\n      pop\n        /* \"#utility.yul\":7567:7685   */\n      pop\n        /* \"#utility.yul\":7218:7692   */\n      swap3\n      pop\n      swap3\n      swap1\n      pop\n      jump\t// out\n        /* \"#utility.yul\":7698:8317   */\n    tag_139:\n        /* \"#utility.yul\":7775:7781   */\n      0x00\n        /* \"#utility.yul\":7783:7789   */\n      dup1\n        /* \"#utility.yul\":7791:7797   */\n      0x00\n        /* \"#utility.yul\":7840:7842   */\n      0x60\n        /* \"#utility.yul\":7828:7837   */\n      dup5\n        /* \"#utility.yul\":7819:7826   */\n      dup7\n        /* \"#utility.yul\":7815:7838   */\n      sub\n        /* \"#utility.yul\":7811:7843   */\n      slt\n        /* \"#utility.yul\":7808:7927   */\n      iszero\n      tag_516\n      jumpi\n        /* \"#utility.yul\":7846:7925   */\n      tag_517\n      tag_370\n      jump\t// in\n    tag_517:\n        /* \"#utility.yul\":7808:7927   */\n    tag_516:\n        /* \"#utility.yul\":7966:7967   */\n      0x00\n        /* \"#utility.yul\":7991:8044   */\n      tag_518\n        /* \"#utility.yul\":8036:8043   */\n      dup7\n        /* \"#utility.yul\":8027:8033   */\n      dup3\n        /* \"#utility.yul\":8016:8025   */\n      dup8\n        /* \"#utility.yul\":8012:8034   */\n      add\n        /* \"#utility.yul\":7991:8044   */\n      tag_373\n      jump\t// in\n    tag_518:\n        /* \"#utility.yul\":7981:8044   */\n      swap4\n      pop\n        /* \"#utility.yul\":7937:8054   */\n      pop\n        /* \"#utility.yul\":8093:8095   */\n      0x20\n        /* \"#utility.yul\":8119:8172   */\n      tag_519\n        /* \"#utility.yul\":8164:8171   */\n      dup7\n        /* \"#utility.yul\":8155:8161   */\n      dup3\n        /* \"#utility.yul\":8144:8153   */\n      dup8\n        /* \"#utility.yul\":8140:8162   */\n      add\n        /* \"#utility.yul\":8119:8172   */\n      tag_377\n      jump\t// in\n    tag_519:\n        /* \"#utility.yul\":8109:8172   */\n      swap3\n      pop\n        /* \"#utility.yul\":8064:8182   */\n      pop\n        /* \"#utility.yul\":8221:8223   */\n      0x40\n        /* \"#utility.yul\":8247:8300   */\n      tag_520\n        /* \"#utility.yul\":8292:8299   */\n      dup7\n        /* \"#utility.yul\":8283:8289   */\n      dup3\n        /* \"#utility.yul\":8272:8281   */\n      dup8\n        /* \"#utility.yul\":8268:8290   */\n      add\n        /* \"#utility.yul\":8247:8300   */\n      tag_377\n      jump\t// in\n    tag_520:\n        /* \"#utility.yul\":8237:8300   */\n      swap2\n      pop\n        /* \"#utility.yul\":8192:8310   */\n      pop\n        /* \"#utility.yul\":7698:8317   */\n      swap3\n      pop\n      swap3\n      pop\n      swap3\n      jump\t// out\n        /* \"#utility.yul\":8323:8441   */\n    tag_390:\n        /* \"#utility.yul\":8394:8416   */\n      tag_522\n        /* \"#utility.yul\":8410:8415   */\n      dup2\n        /* \"#utility.yul\":8394:8416   */\n      tag_380\n      jump\t// in\n    tag_522:\n        /* \"#utility.yul\":8387:8392   */\n      dup2\n        /* \"#utility.yul\":8384:8417   */\n      eq\n        /* \"#utility.yul\":8374:8435   */\n      tag_523\n      jumpi\n        /* \"#utility.yul\":8431:8432   */\n      0x00\n        /* \"#utility.yul\":8428:8429   */\n      dup1\n        /* \"#utility.yul\":8421:8433   */\n      revert\n        /* \"#utility.yul\":8374:8435   */\n    tag_523:\n        /* \"#utility.yul\":8323:8441   */\n      pop\n      jump\t// out\n        /* \"#utility.yul\":8447:8582   */\n    tag_391:\n        /* \"#utility.yul\":8491:8496   */\n      0x00\n        /* \"#utility.yul\":8529:8535   */\n      dup2\n        /* \"#utility.yul\":8516:8536   */\n      calldataload\n        /* \"#utility.yul\":8507:8536   */\n      swap1\n      pop\n        /* \"#utility.yul\":8545:8576   */\n      tag_525\n        /* \"#utility.yul\":8570:8575   */\n      dup2\n        /* \"#utility.yul\":8545:8576   */\n      tag_390\n      jump\t// in\n    tag_525:\n        /* \"#utility.yul\":8447:8582   */\n      swap3\n      swap2\n      pop\n      pop\n      jump\t// out\n        /* \"#utility.yul\":8588:8710   */\n    tag_392:\n        /* \"#utility.yul\":8661:8685   */\n      tag_527\n        /* \"#utility.yul\":8679:8684   */\n      dup2\n        /* \"#utility.yul\":8661:8685   */\n      tag_382\n      jump\t// in\n    tag_527:\n        /* \"#utility.yul\":8654:8659   */\n      dup2\n        /* \"#utility.yul\":8651:8686   */\n      eq\n        /* \"#utility.yul\":8641:8704   */\n      tag_528\n      jumpi\n        /* \"#utility.yul\":8700:8701   */\n      0x00\n        /* \"#utility.yul\":8697:8698   */\n      dup1\n        /* \"#utility.yul\":8690:8702   */\n      revert\n        /* \"#utility.yul\":8641:8704   */\n    tag_528:\n        /* \"#utility.yul\":8588:8710   */\n      pop\n      jump\t// out\n        /* \"#utility.yul\":8716:8855   */\n    tag_393:\n        /* \"#utility.yul\":8762:8767   */\n      0x00\n        /* \"#utility.yul\":8800:8806   */\n      dup2\n        /* \"#utility.yul\":8787:8807   */\n      calldataload\n        /* \"#utility.yul\":8778:8807   */\n      swap1\n      pop\n        /* \"#utility.yul\":8816:8849   */\n      tag_530\n        /* \"#utility.yul\":8843:8848   */\n      dup2\n        /* \"#utility.yul\":8816:8849   */\n      tag_392\n      jump\t// in\n    tag_530:\n        /* \"#utility.yul\":8716:8855   */\n      swap3\n      swap2\n      pop\n      pop\n      jump\t// out\n        /* \"#utility.yul\":8861:10060   */\n    tag_163:\n        /* \"#utility.yul\":8972:8978   */\n      0x00\n        /* \"#utility.yul\":8980:8986   */\n      dup1\n        /* \"#utility.yul\":8988:8994   */\n      0x00\n        /* \"#utility.yul\":8996:9002   */\n      dup1\n        /* \"#utility.yul\":9004:9010   */\n      0x00\n        /* \"#utility.yul\":9012:9018   */\n      dup1\n        /* \"#utility.yul\":9020:9026   */\n      0x00\n        /* \"#utility.yul\":9069:9072   */\n      0xe0\n        /* \"#utility.yul\":9057:9066   */\n      dup9\n        /* \"#utility.yul\":9048:9055   */\n      dup11\n        /* \"#utility.yul\":9044:9067   */\n      sub\n        /* \"#utility.yul\":9040:9073   */\n      slt\n        /* \"#utility.yul\":9037:9157   */\n      iszero\n      tag_532\n      jumpi\n        /* \"#utility.yul\":9076:9155   */\n      tag_533\n      tag_370\n      jump\t// in\n    tag_533:\n        /* \"#utility.yul\":9037:9157   */\n    tag_532:\n        /* \"#utility.yul\":9196:9197   */\n      0x00\n        /* \"#utility.yul\":9221:9274   */\n      tag_534\n        /* \"#utility.yul\":9266:9273   */\n      dup11\n        /* \"#utility.yul\":9257:9263   */\n      dup3\n        /* \"#utility.yul\":9246:9255   */\n      dup12\n        /* \"#utility.yul\":9242:9264   */\n      add\n        /* \"#utility.yul\":9221:9274   */\n      tag_377\n      jump\t// in\n    tag_534:\n        /* \"#utility.yul\":9211:9274   */\n      swap8\n      pop\n        /* \"#utility.yul\":9167:9284   */\n      pop\n        /* \"#utility.yul\":9323:9325   */\n      0x20\n        /* \"#utility.yul\":9349:9402   */\n      tag_535\n        /* \"#utility.yul\":9394:9401   */\n      dup11\n        /* \"#utility.yul\":9385:9391   */\n      dup3\n        /* \"#utility.yul\":9374:9383   */\n      dup12\n        /* \"#utility.yul\":9370:9392   */\n      add\n        /* \"#utility.yul\":9349:9402   */\n      tag_377\n      jump\t// in\n    tag_535:\n        /* \"#utility.yul\":9339:9402   */\n      swap7\n      pop\n        /* \"#utility.yul\":9294:9412   */\n      pop\n        /* \"#utility.yul\":9451:9453   */\n      0x40\n        /* \"#utility.yul\":9477:9530   */\n      tag_536\n        /* \"#utility.yul\":9522:9529   */\n      dup11\n        /* \"#utility.yul\":9513:9519   */\n      dup3\n        /* \"#utility.yul\":9502:9511   */\n      dup12\n        /* \"#utility.yul\":9498:9520   */\n      add\n        /* \"#utility.yul\":9477:9530   */\n      tag_373\n      jump\t// in\n    tag_536:\n        /* \"#utility.yul\":9467:9530   */\n      swap6\n      pop\n        /* \"#utility.yul\":9422:9540   */\n      pop\n        /* \"#utility.yul\":9579:9581   */\n      0x60\n        /* \"#utility.yul\":9605:9658   */\n      tag_537\n        /* \"#utility.yul\":9650:9657   */\n      dup11\n        /* \"#utility.yul\":9641:9647   */\n      dup3\n        /* \"#utility.yul\":9630:9639   */\n      dup12\n        /* \"#utility.yul\":9626:9648   */\n      add\n        /* \"#utility.yul\":9605:9658   */\n      tag_373\n      jump\t// in\n    tag_537:\n        /* \"#utility.yul\":9595:9658   */\n      swap5\n      pop\n        /* \"#utility.yul\":9550:9668   */\n      pop\n        /* \"#utility.yul\":9707:9710   */\n      0x80\n        /* \"#utility.yul\":9734:9785   */\n      tag_538\n        /* \"#utility.yul\":9777:9784   */\n      dup11\n        /* \"#utility.yul\":9768:9774   */\n      dup3\n        /* \"#utility.yul\":9757:9766   */\n      dup12\n        /* \"#utility.yul\":9753:9775   */\n      add\n        /* \"#utility.yul\":9734:9785   */\n      tag_391\n      jump\t// in\n    tag_538:\n        /* \"#utility.yul\":9724:9785   */\n      swap4\n      pop\n        /* \"#utility.yul\":9678:9795   */\n      pop\n        /* \"#utility.yul\":9834:9837   */\n      0xa0\n        /* \"#utility.yul\":9861:9914   */\n      tag_539\n        /* \"#utility.yul\":9906:9913   */\n      dup11\n        /* \"#utility.yul\":9897:9903   */\n      dup3\n        /* \"#utility.yul\":9886:9895   */\n      dup12\n        /* \"#utility.yul\":9882:9904   */\n      add\n        /* \"#utility.yul\":9861:9914   */\n      tag_393\n      jump\t// in\n    tag_539:\n        /* \"#utility.yul\":9851:9914   */\n      swap3\n      pop\n        /* \"#utility.yul\":9805:9924   */\n      pop\n        /* \"#utility.yul\":9963:9966   */\n      0xc0\n        /* \"#utility.yul\":9990:10043   */\n      tag_540\n        /* \"#utility.yul\":10035:10042   */\n      dup11\n        /* \"#utility.yul\":10026:10032   */\n      dup3\n        /* \"#utility.yul\":10015:10024   */\n      dup12\n        /* \"#utility.yul\":10011:10033   */\n      add\n        /* \"#utility.yul\":9990:10043   */\n      tag_393\n      jump\t// in\n    tag_540:\n        /* \"#utility.yul\":9980:10043   */\n      swap2\n      pop\n        /* \"#utility.yul\":9934:10053   */\n      pop\n        /* \"#utility.yul\":8861:10060   */\n      swap3\n      swap6\n      swap9\n      swap2\n      swap5\n      swap8\n      pop\n      swap3\n      swap6\n      pop\n      jump\t// out\n        /* \"#utility.yul\":10066:10540   */\n    tag_171:\n        /* \"#utility.yul\":10134:10140   */\n      0x00\n        /* \"#utility.yul\":10142:10148   */\n      dup1\n        /* \"#utility.yul\":10191:10193   */\n      0x40\n        /* \"#utility.yul\":10179:10188   */\n      dup4\n        /* \"#utility.yul\":10170:10177   */\n      dup6\n        /* \"#utility.yul\":10166:10189   */\n      sub\n        /* \"#utility.yul\":10162:10194   */\n      slt\n        /* \"#utility.yul\":10159:10278   */\n      iszero\n      tag_542\n      jumpi\n        /* \"#utility.yul\":10197:10276   */\n      tag_543\n      tag_370\n      jump\t// in\n    tag_543:\n        /* \"#utility.yul\":10159:10278   */\n    tag_542:\n        /* \"#utility.yul\":10317:10318   */\n      0x00\n        /* \"#utility.yul\":10342:10395   */\n      tag_544\n        /* \"#utility.yul\":10387:10394   */\n      dup6\n        /* \"#utility.yul\":10378:10384   */\n      dup3\n        /* \"#utility.yul\":10367:10376   */\n      dup7\n        /* \"#utility.yul\":10363:10385   */\n      add\n        /* \"#utility.yul\":10342:10395   */\n      tag_377\n      jump\t// in\n    tag_544:\n        /* \"#utility.yul\":10332:10395   */\n      swap3\n      pop\n        /* \"#utility.yul\":10288:10405   */\n      pop\n        /* \"#utility.yul\":10444:10446   */\n      0x20\n        /* \"#utility.yul\":10470:10523   */\n      tag_545\n        /* \"#utility.yul\":10515:10522   */\n      dup6\n        /* \"#utility.yul\":10506:10512   */\n      dup3\n        /* \"#utility.yul\":10495:10504   */\n      dup7\n        /* \"#utility.yul\":10491:10513   */\n      add\n        /* \"#utility.yul\":10470:10523   */\n      tag_377\n      jump\t// in\n    tag_545:\n        /* \"#utility.yul\":10460:10523   */\n      swap2\n      pop\n        /* \"#utility.yul\":10415:10533   */\n      pop\n        /* \"#utility.yul\":10066:10540   */\n      swap3\n      pop\n      swap3\n      swap1\n      pop\n      jump\t// out\n        /* \"#utility.yul\":10546:10689   */\n    tag_394:\n        /* \"#utility.yul\":10603:10608   */\n      0x00\n        /* \"#utility.yul\":10634:10640   */\n      dup2\n        /* \"#utility.yul\":10628:10641   */\n      mload\n        /* \"#utility.yul\":10619:10641   */\n      swap1\n      pop\n        /* \"#utility.yul\":10650:10683   */\n      tag_547\n        /* \"#utility.yul\":10677:10682   */\n      dup2\n        /* \"#utility.yul\":10650:10683   */\n      tag_372\n      jump\t// in\n    tag_547:\n        /* \"#utility.yul\":10546:10689   */\n      swap3\n      swap2\n      pop\n      pop\n      jump\t// out\n        /* \"#utility.yul\":10695:11046   */\n    tag_189:\n        /* \"#utility.yul\":10765:10771   */\n      0x00\n        /* \"#utility.yul\":10814:10816   */\n      0x20\n        /* \"#utility.yul\":10802:10811   */\n      dup3\n        /* \"#utility.yul\":10793:10800   */\n      dup5\n        /* \"#utility.yul\":10789:10812   */\n      sub\n        /* \"#utility.yul\":10785:10817   */\n      slt\n        /* \"#utility.yul\":10782:10901   */\n      iszero\n      tag_549\n      jumpi\n        /* \"#utility.yul\":10820:10899   */\n      tag_550\n      tag_370\n      jump\t// in\n    tag_550:\n        /* \"#utility.yul\":10782:10901   */\n    tag_549:\n        /* \"#utility.yul\":10940:10941   */\n      0x00\n        /* \"#utility.yul\":10965:11029   */\n      tag_551\n        /* \"#utility.yul\":11021:11028   */\n      dup5\n        /* \"#utility.yul\":11012:11018   */\n      dup3\n        /* \"#utility.yul\":11001:11010   */\n      dup6\n        /* \"#utility.yul\":10997:11019   */\n      add\n        /* \"#utility.yul\":10965:11029   */\n      tag_394\n      jump\t// in\n    tag_551:\n        /* \"#utility.yul\":10955:11029   */\n      swap2\n      pop\n        /* \"#utility.yul\":10911:11039   */\n      pop\n        /* \"#utility.yul\":10695:11046   */\n      swap3\n      swap2\n      pop\n      pop\n      jump\t// out\n        /* \"#utility.yul\":11052:11232   */\n    tag_395:\n        /* \"#utility.yul\":11100:11177   */\n      0x4e487b7100000000000000000000000000000000000000000000000000000000\n        /* \"#utility.yul\":11097:11098   */\n      0x00\n        /* \"#utility.yul\":11090:11178   */\n      mstore\n        /* \"#utility.yul\":11197:11201   */\n      0x22\n        /* \"#utility.yul\":11194:11195   */\n      0x04\n        /* \"#utility.yul\":11187:11202   */\n      mstore\n        /* \"#utility.yul\":11221:11225   */\n      0x24\n        /* \"#utility.yul\":11218:11219   */\n      0x00\n        /* \"#utility.yul\":11211:11226   */\n      revert\n        /* \"#utility.yul\":11238:11558   */\n    tag_191:\n        /* \"#utility.yul\":11282:11288   */\n      0x00\n        /* \"#utility.yul\":11319:11320   */\n      0x02\n        /* \"#utility.yul\":11313:11317   */\n      dup3\n        /* \"#utility.yul\":11309:11321   */\n      div\n        /* \"#utility.yul\":11299:11321   */\n      swap1\n      pop\n        /* \"#utility.yul\":11366:11367   */\n      0x01\n        /* \"#utility.yul\":11360:11364   */\n      dup3\n        /* \"#utility.yul\":11356:11368   */\n      and\n        /* \"#utility.yul\":11387:11405   */\n      dup1\n        /* \"#utility.yul\":11377:11458   */\n      tag_554\n      jumpi\n        /* \"#utility.yul\":11443:11447   */\n      0x7f\n        /* \"#utility.yul\":11435:11441   */\n      dup3\n        /* \"#utility.yul\":11431:11448   */\n      and\n        /* \"#utility.yul\":11421:11448   */\n      swap2\n      pop\n        /* \"#utility.yul\":11377:11458   */\n    tag_554:\n        /* \"#utility.yul\":11505:11507   */\n      0x20\n        /* \"#utility.yul\":11497:11503   */\n      dup3\n        /* \"#utility.yul\":11494:11508   */\n      lt\n        /* \"#utility.yul\":11474:11492   */\n      dup2\n        /* \"#utility.yul\":11471:11509   */\n      sub\n        /* \"#utility.yul\":11468:11552   */\n      tag_555\n      jumpi\n        /* \"#utility.yul\":11524:11542   */\n      tag_556\n      tag_395\n      jump\t// in\n    tag_556:\n        /* \"#utility.yul\":11468:11552   */\n    tag_555:\n        /* \"#utility.yul\":11289:11558   */\n      pop\n        /* \"#utility.yul\":11238:11558   */\n      swap2\n      swap1\n      pop\n      jump\t// out\n        /* \"#utility.yul\":11564:11744   */\n    tag_396:\n        /* \"#utility.yul\":11612:11689   */\n      0x4e487b7100000000000000000000000000000000000000000000000000000000\n        /* \"#utility.yul\":11609:11610   */\n      0x00\n        /* \"#utility.yul\":11602:11690   */\n      mstore\n        /* \"#utility.yul\":11709:11713   */\n      0x11\n        /* \"#utility.yul\":11706:11707   */\n      0x04\n        /* \"#utility.yul\":11699:11714   */\n      mstore\n        /* \"#utility.yul\":11733:11737   */\n      0x24\n        /* \"#utility.yul\":11730:11731   */\n      0x00\n        /* \"#utility.yul\":11723:11738   */\n      revert\n        /* \"#utility.yul\":11750:11944   */\n    tag_213:\n        /* \"#utility.yul\":11790:11794   */\n      0x00\n        /* \"#utility.yul\":11810:11830   */\n      tag_559\n        /* \"#utility.yul\":11828:11829   */\n      dup3\n        /* \"#utility.yul\":11810:11830   */\n      tag_362\n      jump\t// in\n    tag_559:\n        /* \"#utility.yul\":11805:11830   */\n      swap2\n      pop\n        /* \"#utility.yul\":11844:11864   */\n      tag_560\n        /* \"#utility.yul\":11862:11863   */\n      dup4\n        /* \"#utility.yul\":11844:11864   */\n      tag_362\n      jump\t// in\n    tag_560:\n        /* \"#utility.yul\":11839:11864   */\n      swap3\n      pop\n        /* \"#utility.yul\":11888:11889   */\n      dup3\n        /* \"#utility.yul\":11885:11886   */\n      dup3\n        /* \"#utility.yul\":11881:11890   */\n      sub\n        /* \"#utility.yul\":11873:11890   */\n      swap1\n      pop\n        /* \"#utility.yul\":11912:11913   */\n      dup2\n        /* \"#utility.yul\":11906:11910   */\n      dup2\n        /* \"#utility.yul\":11903:11914   */\n      gt\n        /* \"#utility.yul\":11900:11937   */\n      iszero\n      tag_561\n      jumpi\n        /* \"#utility.yul\":11917:11935   */\n      tag_562\n      tag_396\n      jump\t// in\n    tag_562:\n        /* \"#utility.yul\":11900:11937   */\n    tag_561:\n        /* \"#utility.yul\":11750:11944   */\n      swap3\n      swap2\n      pop\n      pop\n      jump\t// out\n        /* \"#utility.yul\":11950:12111   */\n    tag_397:\n        /* \"#utility.yul\":12090:12103   */\n      0x5a45524f5f534841524553000000000000000000000000000000000000000000\n        /* \"#utility.yul\":12086:12087   */\n      0x00\n        /* \"#utility.yul\":12078:12084   */\n      dup3\n        /* \"#utility.yul\":12074:12088   */\n      add\n        /* \"#utility.yul\":12067:12104   */\n      mstore\n        /* \"#utility.yul\":11950:12111   */\n      pop\n      jump\t// out\n        /* \"#utility.yul\":12117:12483   */\n    tag_398:\n        /* \"#utility.yul\":12259:12262   */\n      0x00\n        /* \"#utility.yul\":12280:12347   */\n      tag_565\n        /* \"#utility.yul\":12344:12346   */\n      0x0b\n        /* \"#utility.yul\":12339:12342   */\n      dup4\n        /* \"#utility.yul\":12280:12347   */\n      tag_365\n      jump\t// in\n    tag_565:\n        /* \"#utility.yul\":12273:12347   */\n      swap2\n      pop\n        /* \"#utility.yul\":12356:12449   */\n      tag_566\n        /* \"#utility.yul\":12445:12448   */\n      dup3\n        /* \"#utility.yul\":12356:12449   */\n      tag_397\n      jump\t// in\n    tag_566:\n        /* \"#utility.yul\":12474:12476   */\n      0x20\n        /* \"#utility.yul\":12469:12472   */\n      dup3\n        /* \"#utility.yul\":12465:12477   */\n      add\n        /* \"#utility.yul\":12458:12477   */\n      swap1\n      pop\n        /* \"#utility.yul\":12117:12483   */\n      swap2\n      swap1\n      pop\n      jump\t// out\n        /* \"#utility.yul\":12489:12908   */\n    tag_229:\n        /* \"#utility.yul\":12655:12659   */\n      0x00\n        /* \"#utility.yul\":12693:12695   */\n      0x20\n        /* \"#utility.yul\":12682:12691   */\n      dup3\n        /* \"#utility.yul\":12678:12696   */\n      add\n        /* \"#utility.yul\":12670:12696   */\n      swap1\n      pop\n        /* \"#utility.yul\":12742:12751   */\n      dup2\n        /* \"#utility.yul\":12736:12740   */\n      dup2\n        /* \"#utility.yul\":12732:12752   */\n      sub\n        /* \"#utility.yul\":12728:12729   */\n      0x00\n        /* \"#utility.yul\":12717:12726   */\n      dup4\n        /* \"#utility.yul\":12713:12730   */\n      add\n        /* \"#utility.yul\":12706:12753   */\n      mstore\n        /* \"#utility.yul\":12770:12901   */\n      tag_568\n        /* \"#utility.yul\":12896:12900   */\n      dup2\n        /* \"#utility.yul\":12770:12901   */\n      tag_398\n      jump\t// in\n    tag_568:\n        /* \"#utility.yul\":12762:12901   */\n      swap1\n      pop\n        /* \"#utility.yul\":12489:12908   */\n      swap2\n      swap1\n      pop\n      jump\t// out\n        /* \"#utility.yul\":12914:13246   */\n    tag_235:\n        /* \"#utility.yul\":13035:13039   */\n      0x00\n        /* \"#utility.yul\":13073:13075   */\n      0x40\n        /* \"#utility.yul\":13062:13071   */\n      dup3\n        /* \"#utility.yul\":13058:13076   */\n      add\n        /* \"#utility.yul\":13050:13076   */\n      swap1\n      pop\n        /* \"#utility.yul\":13086:13157   */\n      tag_570\n        /* \"#utility.yul\":13154:13155   */\n      0x00\n        /* \"#utility.yul\":13143:13152   */\n      dup4\n        /* \"#utility.yul\":13139:13156   */\n      add\n        /* \"#utility.yul\":13130:13136   */\n      dup6\n        /* \"#utility.yul\":13086:13157   */\n      tag_363\n      jump\t// in\n    tag_570:\n        /* \"#utility.yul\":13167:13239   */\n      tag_571\n        /* \"#utility.yul\":13235:13237   */\n      0x20\n        /* \"#utility.yul\":13224:13233   */\n      dup4\n        /* \"#utility.yul\":13220:13238   */\n      add\n        /* \"#utility.yul\":13211:13217   */\n      dup5\n        /* \"#utility.yul\":13167:13239   */\n      tag_363\n      jump\t// in\n    tag_571:\n        /* \"#utility.yul\":12914:13246   */\n      swap4\n      swap3\n      pop\n      pop\n      pop\n      jump\t// out\n        /* \"#utility.yul\":13252:13473   */\n    tag_399:\n        /* \"#utility.yul\":13392:13426   */\n      0x4f776e61626c653a2063616c6c6572206973206e6f7420746865206d616e6167\n        /* \"#utility.yul\":13388:13389   */\n      0x00\n        /* \"#utility.yul\":13380:13386   */\n      dup3\n        /* \"#utility.yul\":13376:13390   */\n      add\n        /* \"#utility.yul\":13369:13427   */\n      mstore\n        /* \"#utility.yul\":13461:13465   */\n      0x6572000000000000000000000000000000000000000000000000000000000000\n        /* \"#utility.yul\":13456:13458   */\n      0x20\n        /* \"#utility.yul\":13448:13454   */\n      dup3\n        /* \"#utility.yul\":13444:13459   */\n      add\n        /* \"#utility.yul\":13437:13466   */\n      mstore\n        /* \"#utility.yul\":13252:13473   */\n      pop\n      jump\t// out\n        /* \"#utility.yul\":13479:13845   */\n    tag_400:\n        /* \"#utility.yul\":13621:13624   */\n      0x00\n        /* \"#utility.yul\":13642:13709   */\n      tag_574\n        /* \"#utility.yul\":13706:13708   */\n      0x22\n        /* \"#utility.yul\":13701:13704   */\n      dup4\n        /* \"#utility.yul\":13642:13709   */\n      tag_365\n      jump\t// in\n    tag_574:\n        /* \"#utility.yul\":13635:13709   */\n      swap2\n      pop\n        /* \"#utility.yul\":13718:13811   */\n      tag_575\n        /* \"#utility.yul\":13807:13810   */\n      dup3\n        /* \"#utility.yul\":13718:13811   */\n      tag_399\n      jump\t// in\n    tag_575:\n        /* \"#utility.yul\":13836:13838   */\n      0x40\n        /* \"#utility.yul\":13831:13834   */\n      dup3\n        /* \"#utility.yul\":13827:13839   */\n      add\n        /* \"#utility.yul\":13820:13839   */\n      swap1\n      pop\n        /* \"#utility.yul\":13479:13845   */\n      swap2\n      swap1\n      pop\n      jump\t// out\n        /* \"#utility.yul\":13851:14270   */\n    tag_242:\n        /* \"#utility.yul\":14017:14021   */\n      0x00\n        /* \"#utility.yul\":14055:14057   */\n      0x20\n        /* \"#utility.yul\":14044:14053   */\n      dup3\n        /* \"#utility.yul\":14040:14058   */\n      add\n        /* \"#utility.yul\":14032:14058   */\n      swap1\n      pop\n        /* \"#utility.yul\":14104:14113   */\n      dup2\n        /* \"#utility.yul\":14098:14102   */\n      dup2\n        /* \"#utility.yul\":14094:14114   */\n      sub\n        /* \"#utility.yul\":14090:14091   */\n      0x00\n        /* \"#utility.yul\":14079:14088   */\n      dup4\n        /* \"#utility.yul\":14075:14092   */\n      add\n        /* \"#utility.yul\":14068:14115   */\n      mstore\n        /* \"#utility.yul\":14132:14263   */\n      tag_577\n        /* \"#utility.yul\":14258:14262   */\n      dup2\n        /* \"#utility.yul\":14132:14263   */\n      tag_400\n      jump\t// in\n    tag_577:\n        /* \"#utility.yul\":14124:14263   */\n      swap1\n      pop\n        /* \"#utility.yul\":13851:14270   */\n      swap2\n      swap1\n      pop\n      jump\t// out\n        /* \"#utility.yul\":14276:14438   */\n    tag_401:\n        /* \"#utility.yul\":14416:14430   */\n      0x4645455f544f4f5f484947480000000000000000000000000000000000000000\n        /* \"#utility.yul\":14412:14413   */\n      0x00\n        /* \"#utility.yul\":14404:14410   */\n      dup3\n        /* \"#utility.yul\":14400:14414   */\n      add\n        /* \"#utility.yul\":14393:14431   */\n      mstore\n        /* \"#utility.yul\":14276:14438   */\n      pop\n      jump\t// out\n        /* \"#utility.yul\":14444:14810   */\n    tag_402:\n        /* \"#utility.yul\":14586:14589   */\n      0x00\n        /* \"#utility.yul\":14607:14674   */\n      tag_580\n        /* \"#utility.yul\":14671:14673   */\n      0x0c\n        /* \"#utility.yul\":14666:14669   */\n      dup4\n        /* \"#utility.yul\":14607:14674   */\n      tag_365\n      jump\t// in\n    tag_580:\n        /* \"#utility.yul\":14600:14674   */\n      swap2\n      pop\n        /* \"#utility.yul\":14683:14776   */\n      tag_581\n        /* \"#utility.yul\":14772:14775   */\n      dup3\n        /* \"#utility.yul\":14683:14776   */\n      tag_401\n      jump\t// in\n    tag_581:\n        /* \"#utility.yul\":14801:14803   */\n      0x20\n        /* \"#utility.yul\":14796:14799   */\n      dup3\n        /* \"#utility.yul\":14792:14804   */\n      add\n        /* \"#utility.yul\":14785:14804   */\n      swap1\n      pop\n        /* \"#utility.yul\":14444:14810   */\n      swap2\n      swap1\n      pop\n      jump\t// out\n        /* \"#utility.yul\":14816:15235   */\n    tag_251:\n        /* \"#utility.yul\":14982:14986   */\n      0x00\n        /* \"#utility.yul\":15020:15022   */\n      0x20\n        /* \"#utility.yul\":15009:15018   */\n      dup3\n        /* \"#utility.yul\":15005:15023   */\n      add\n        /* \"#utility.yul\":14997:15023   */\n      swap1\n      pop\n        /* \"#utility.yul\":15069:15078   */\n      dup2\n        /* \"#utility.yul\":15063:15067   */\n      dup2\n        /* \"#utility.yul\":15059:15079   */\n      sub\n        /* \"#utility.yul\":15055:15056   */\n      0x00\n        /* \"#utility.yul\":15044:15053   */\n      dup4\n        /* \"#utility.yul\":15040:15057   */\n      add\n        /* \"#utility.yul\":15033:15080   */\n      mstore\n        /* \"#utility.yul\":15097:15228   */\n      tag_583\n        /* \"#utility.yul\":15223:15227   */\n      dup2\n        /* \"#utility.yul\":15097:15228   */\n      tag_402\n      jump\t// in\n    tag_583:\n        /* \"#utility.yul\":15089:15228   */\n      swap1\n      pop\n        /* \"#utility.yul\":14816:15235   */\n      swap2\n      swap1\n      pop\n      jump\t// out\n        /* \"#utility.yul\":15241:15402   */\n    tag_403:\n        /* \"#utility.yul\":15381:15394   */\n      0x5a45524f5f415353455453000000000000000000000000000000000000000000\n        /* \"#utility.yul\":15377:15378   */\n      0x00\n        /* \"#utility.yul\":15369:15375   */\n      dup3\n        /* \"#utility.yul\":15365:15379   */\n      add\n        /* \"#utility.yul\":15358:15395   */\n      mstore\n        /* \"#utility.yul\":15241:15402   */\n      pop\n      jump\t// out\n        /* \"#utility.yul\":15408:15774   */\n    tag_404:\n        /* \"#utility.yul\":15550:15553   */\n      0x00\n        /* \"#utility.yul\":15571:15638   */\n      tag_586\n        /* \"#utility.yul\":15635:15637   */\n      0x0b\n        /* \"#utility.yul\":15630:15633   */\n      dup4\n        /* \"#utility.yul\":15571:15638   */\n      tag_365\n      jump\t// in\n    tag_586:\n        /* \"#utility.yul\":15564:15638   */\n      swap2\n      pop\n        /* \"#utility.yul\":15647:15740   */\n      tag_587\n        /* \"#utility.yul\":15736:15739   */\n      dup3\n        /* \"#utility.yul\":15647:15740   */\n      tag_403\n      jump\t// in\n    tag_587:\n        /* \"#utility.yul\":15765:15767   */\n      0x20\n        /* \"#utility.yul\":15760:15763   */\n      dup3\n        /* \"#utility.yul\":15756:15768   */\n      add\n        /* \"#utility.yul\":15749:15768   */\n      swap1\n      pop\n        /* \"#utility.yul\":15408:15774   */\n      swap2\n      swap1\n      pop\n      jump\t// out\n        /* \"#utility.yul\":15780:16199   */\n    tag_291:\n        /* \"#utility.yul\":15946:15950   */\n      0x00\n        /* \"#utility.yul\":15984:15986   */\n      0x20\n        /* \"#utility.yul\":15973:15982   */\n      dup3\n        /* \"#utility.yul\":15969:15987   */\n      add\n        /* \"#utility.yul\":15961:15987   */\n      swap1\n      pop\n        /* \"#utility.yul\":16033:16042   */\n      dup2\n        /* \"#utility.yul\":16027:16031   */\n      dup2\n        /* \"#utility.yul\":16023:16043   */\n      sub\n        /* \"#utility.yul\":16019:16020   */\n      0x00\n        /* \"#utility.yul\":16008:16017   */\n      dup4\n        /* \"#utility.yul\":16004:16021   */\n      add\n        /* \"#utility.yul\":15997:16044   */\n      mstore\n        /* \"#utility.yul\":16061:16192   */\n      tag_589\n        /* \"#utility.yul\":16187:16191   */\n      dup2\n        /* \"#utility.yul\":16061:16192   */\n      tag_404\n      jump\t// in\n    tag_589:\n        /* \"#utility.yul\":16053:16192   */\n      swap1\n      pop\n        /* \"#utility.yul\":15780:16199   */\n      swap2\n      swap1\n      pop\n      jump\t// out\n        /* \"#utility.yul\":16205:16378   */\n    tag_405:\n        /* \"#utility.yul\":16345:16370   */\n      0x5045524d49545f444541444c494e455f45585049524544000000000000000000\n        /* \"#utility.yul\":16341:16342   */\n      0x00\n        /* \"#utility.yul\":16333:16339   */\n      dup3\n        /* \"#utility.yul\":16329:16343   */\n      add\n        /* \"#utility.yul\":16322:16371   */\n      mstore\n        /* \"#utility.yul\":16205:16378   */\n      pop\n      jump\t// out\n        /* \"#utility.yul\":16384:16750   */\n    tag_406:\n        /* \"#utility.yul\":16526:16529   */\n      0x00\n        /* \"#utility.yul\":16547:16614   */\n      tag_592\n        /* \"#utility.yul\":16611:16613   */\n      0x17\n        /* \"#utility.yul\":16606:16609   */\n      dup4\n        /* \"#utility.yul\":16547:16614   */\n      tag_365\n      jump\t// in\n    tag_592:\n        /* \"#utility.yul\":16540:16614   */\n      swap2\n      pop\n        /* \"#utility.yul\":16623:16716   */\n      tag_593\n        /* \"#utility.yul\":16712:16715   */\n      dup3\n        /* \"#utility.yul\":16623:16716   */\n      tag_405\n      jump\t// in\n    tag_593:\n        /* \"#utility.yul\":16741:16743   */\n      0x20\n        /* \"#utility.yul\":16736:16739   */\n      dup3\n        /* \"#utility.yul\":16732:16744   */\n      add\n        /* \"#utility.yul\":16725:16744   */\n      swap1\n      pop\n        /* \"#utility.yul\":16384:16750   */\n      swap2\n      swap1\n      pop\n      jump\t// out\n        /* \"#utility.yul\":16756:17175   */\n    tag_307:\n        /* \"#utility.yul\":16922:16926   */\n      0x00\n        /* \"#utility.yul\":16960:16962   */\n      0x20\n        /* \"#utility.yul\":16949:16958   */\n      dup3\n        /* \"#utility.yul\":16945:16963   */\n      add\n        /* \"#utility.yul\":16937:16963   */\n      swap1\n      pop\n        /* \"#utility.yul\":17009:17018   */\n      dup2\n        /* \"#utility.yul\":17003:17007   */\n      dup2\n        /* \"#utility.yul\":16999:17019   */\n      sub\n        /* \"#utility.yul\":16995:16996   */\n      0x00\n        /* \"#utility.yul\":16984:16993   */\n      dup4\n        /* \"#utility.yul\":16980:16997   */\n      add\n        /* \"#utility.yul\":16973:17020   */\n      mstore\n        /* \"#utility.yul\":17037:17168   */\n      tag_595\n        /* \"#utility.yul\":17163:17167   */\n      dup2\n        /* \"#utility.yul\":17037:17168   */\n      tag_406\n      jump\t// in\n    tag_595:\n        /* \"#utility.yul\":17029:17168   */\n      swap1\n      pop\n        /* \"#utility.yul\":16756:17175   */\n      swap2\n      swap1\n      pop\n      jump\t// out\n        /* \"#utility.yul\":17181:17956   */\n    tag_310:\n        /* \"#utility.yul\":17414:17418   */\n      0x00\n        /* \"#utility.yul\":17452:17455   */\n      0xc0\n        /* \"#utility.yul\":17441:17450   */\n      dup3\n        /* \"#utility.yul\":17437:17456   */\n      add\n        /* \"#utility.yul\":17429:17456   */\n      swap1\n      pop\n        /* \"#utility.yul\":17466:17537   */\n      tag_597\n        /* \"#utility.yul\":17534:17535   */\n      0x00\n        /* \"#utility.yul\":17523:17532   */\n      dup4\n        /* \"#utility.yul\":17519:17536   */\n      add\n        /* \"#utility.yul\":17510:17516   */\n      dup10\n        /* \"#utility.yul\":17466:17537   */\n      tag_383\n      jump\t// in\n    tag_597:\n        /* \"#utility.yul\":17547:17619   */\n      tag_598\n        /* \"#utility.yul\":17615:17617   */\n      0x20\n        /* \"#utility.yul\":17604:17613   */\n      dup4\n        /* \"#utility.yul\":17600:17618   */\n      add\n        /* \"#utility.yul\":17591:17597   */\n      dup9\n        /* \"#utility.yul\":17547:17619   */\n      tag_389\n      jump\t// in\n    tag_598:\n        /* \"#utility.yul\":17629:17701   */\n      tag_599\n        /* \"#utility.yul\":17697:17699   */\n      0x40\n        /* \"#utility.yul\":17686:17695   */\n      dup4\n        /* \"#utility.yul\":17682:17700   */\n      add\n        /* \"#utility.yul\":17673:17679   */\n      dup8\n        /* \"#utility.yul\":17629:17701   */\n      tag_389\n      jump\t// in\n    tag_599:\n        /* \"#utility.yul\":17711:17783   */\n      tag_600\n        /* \"#utility.yul\":17779:17781   */\n      0x60\n        /* \"#utility.yul\":17768:17777   */\n      dup4\n        /* \"#utility.yul\":17764:17782   */\n      add\n        /* \"#utility.yul\":17755:17761   */\n      dup7\n        /* \"#utility.yul\":17711:17783   */\n      tag_363\n      jump\t// in\n    tag_600:\n        /* \"#utility.yul\":17793:17866   */\n      tag_601\n        /* \"#utility.yul\":17861:17864   */\n      0x80\n        /* \"#utility.yul\":17850:17859   */\n      dup4\n        /* \"#utility.yul\":17846:17865   */\n      add\n        /* \"#utility.yul\":17837:17843   */\n      dup6\n        /* \"#utility.yul\":17793:17866   */\n      tag_363\n      jump\t// in\n    tag_601:\n        /* \"#utility.yul\":17876:17949   */\n      tag_602\n        /* \"#utility.yul\":17944:17947   */\n      0xa0\n        /* \"#utility.yul\":17933:17942   */\n      dup4\n        /* \"#utility.yul\":17929:17948   */\n      add\n        /* \"#utility.yul\":17920:17926   */\n      dup5\n        /* \"#utility.yul\":17876:17949   */\n      tag_363\n      jump\t// in\n    tag_602:\n        /* \"#utility.yul\":17181:17956   */\n      swap8\n      swap7\n      pop\n      pop\n      pop\n      pop\n      pop\n      pop\n      pop\n      jump\t// out\n        /* \"#utility.yul\":17962:18110   */\n    tag_407:\n        /* \"#utility.yul\":18064:18075   */\n      0x00\n        /* \"#utility.yul\":18101:18104   */\n      dup2\n        /* \"#utility.yul\":18086:18104   */\n      swap1\n      pop\n        /* \"#utility.yul\":17962:18110   */\n      swap3\n      swap2\n      pop\n      pop\n      jump\t// out\n        /* \"#utility.yul\":18116:18330   */\n    tag_408:\n        /* \"#utility.yul\":18256:18322   */\n      0x1901000000000000000000000000000000000000000000000000000000000000\n        /* \"#utility.yul\":18252:18253   */\n      0x00\n        /* \"#utility.yul\":18244:18250   */\n      dup3\n        /* \"#utility.yul\":18240:18254   */\n      add\n        /* \"#utility.yul\":18233:18323   */\n      mstore\n        /* \"#utility.yul\":18116:18330   */\n      pop\n      jump\t// out\n        /* \"#utility.yul\":18336:18736   */\n    tag_409:\n        /* \"#utility.yul\":18496:18499   */\n      0x00\n        /* \"#utility.yul\":18517:18601   */\n      tag_606\n        /* \"#utility.yul\":18599:18600   */\n      0x02\n        /* \"#utility.yul\":18594:18597   */\n      dup4\n        /* \"#utility.yul\":18517:18601   */\n      tag_407\n      jump\t// in\n    tag_606:\n        /* \"#utility.yul\":18510:18601   */\n      swap2\n      pop\n        /* \"#utility.yul\":18610:18703   */\n      tag_607\n        /* \"#utility.yul\":18699:18702   */\n      dup3\n        /* \"#utility.yul\":18610:18703   */\n      tag_408\n      jump\t// in\n    tag_607:\n        /* \"#utility.yul\":18728:18729   */\n      0x02\n        /* \"#utility.yul\":18723:18726   */\n      dup3\n        /* \"#utility.yul\":18719:18730   */\n      add\n        /* \"#utility.yul\":18712:18730   */\n      swap1\n      pop\n        /* \"#utility.yul\":18336:18736   */\n      swap2\n      swap1\n      pop\n      jump\t// out\n        /* \"#utility.yul\":18742:18821   */\n    tag_410:\n        /* \"#utility.yul\":18781:18788   */\n      0x00\n        /* \"#utility.yul\":18810:18815   */\n      dup2\n        /* \"#utility.yul\":18799:18815   */\n      swap1\n      pop\n        /* \"#utility.yul\":18742:18821   */\n      swap2\n      swap1\n      pop\n      jump\t// out\n        /* \"#utility.yul\":18827:18984   */\n    tag_411:\n        /* \"#utility.yul\":18932:18977   */\n      tag_610\n        /* \"#utility.yul\":18952:18976   */\n      tag_611\n        /* \"#utility.yul\":18970:18975   */\n      dup3\n        /* \"#utility.yul\":18952:18976   */\n      tag_382\n      jump\t// in\n    tag_611:\n        /* \"#utility.yul\":18932:18977   */\n      tag_410\n      jump\t// in\n    tag_610:\n        /* \"#utility.yul\":18927:18930   */\n      dup3\n        /* \"#utility.yul\":18920:18978   */\n      mstore\n        /* \"#utility.yul\":18827:18984   */\n      pop\n      pop\n      jump\t// out\n        /* \"#utility.yul\":18990:19653   */\n    tag_312:\n        /* \"#utility.yul\":19231:19234   */\n      0x00\n        /* \"#utility.yul\":19253:19401   */\n      tag_613\n        /* \"#utility.yul\":19397:19400   */\n      dup3\n        /* \"#utility.yul\":19253:19401   */\n      tag_409\n      jump\t// in\n    tag_613:\n        /* \"#utility.yul\":19246:19401   */\n      swap2\n      pop\n        /* \"#utility.yul\":19411:19486   */\n      tag_614\n        /* \"#utility.yul\":19482:19485   */\n      dup3\n        /* \"#utility.yul\":19473:19479   */\n      dup6\n        /* \"#utility.yul\":19411:19486   */\n      tag_411\n      jump\t// in\n    tag_614:\n        /* \"#utility.yul\":19511:19513   */\n      0x20\n        /* \"#utility.yul\":19506:19509   */\n      dup3\n        /* \"#utility.yul\":19502:19514   */\n      add\n        /* \"#utility.yul\":19495:19514   */\n      swap2\n      pop\n        /* \"#utility.yul\":19524:19599   */\n      tag_615\n        /* \"#utility.yul\":19595:19598   */\n      dup3\n        /* \"#utility.yul\":19586:19592   */\n      dup5\n        /* \"#utility.yul\":19524:19599   */\n      tag_411\n      jump\t// in\n    tag_615:\n        /* \"#utility.yul\":19624:19626   */\n      0x20\n        /* \"#utility.yul\":19619:19622   */\n      dup3\n        /* \"#utility.yul\":19615:19627   */\n      add\n        /* \"#utility.yul\":19608:19627   */\n      swap2\n      pop\n        /* \"#utility.yul\":19644:19647   */\n      dup2\n        /* \"#utility.yul\":19637:19647   */\n      swap1\n      pop\n        /* \"#utility.yul\":18990:19653   */\n      swap4\n      swap3\n      pop\n      pop\n      pop\n      jump\t// out\n        /* \"#utility.yul\":19659:20204   */\n    tag_314:\n        /* \"#utility.yul\":19832:19836   */\n      0x00\n        /* \"#utility.yul\":19870:19873   */\n      0x80\n        /* \"#utility.yul\":19859:19868   */\n      dup3\n        /* \"#utility.yul\":19855:19874   */\n      add\n        /* \"#utility.yul\":19847:19874   */\n      swap1\n      pop\n        /* \"#utility.yul\":19884:19955   */\n      tag_617\n        /* \"#utility.yul\":19952:19953   */\n      0x00\n        /* \"#utility.yul\":19941:19950   */\n      dup4\n        /* \"#utility.yul\":19937:19954   */\n      add\n        /* \"#utility.yul\":19928:19934   */\n      dup8\n        /* \"#utility.yul\":19884:19955   */\n      tag_383\n      jump\t// in\n    tag_617:\n        /* \"#utility.yul\":19965:20033   */\n      tag_618\n        /* \"#utility.yul\":20029:20031   */\n      0x20\n        /* \"#utility.yul\":20018:20027   */\n      dup4\n        /* \"#utility.yul\":20014:20032   */\n      add\n        /* \"#utility.yul\":20005:20011   */\n      dup7\n        /* \"#utility.yul\":19965:20033   */\n      tag_381\n      jump\t// in\n    tag_618:\n        /* \"#utility.yul\":20043:20115   */\n      tag_619\n        /* \"#utility.yul\":20111:20113   */\n      0x40\n        /* \"#utility.yul\":20100:20109   */\n      dup4\n        /* \"#utility.yul\":20096:20114   */\n      add\n        /* \"#utility.yul\":20087:20093   */\n      dup6\n        /* \"#utility.yul\":20043:20115   */\n      tag_383\n      jump\t// in\n    tag_619:\n        /* \"#utility.yul\":20125:20197   */\n      tag_620\n        /* \"#utility.yul\":20193:20195   */\n      0x60\n        /* \"#utility.yul\":20182:20191   */\n      dup4\n        /* \"#utility.yul\":20178:20196   */\n      add\n        /* \"#utility.yul\":20169:20175   */\n      dup5\n        /* \"#utility.yul\":20125:20197   */\n      tag_383\n      jump\t// in\n    tag_620:\n        /* \"#utility.yul\":19659:20204   */\n      swap6\n      swap5\n      pop\n      pop\n      pop\n      pop\n      pop\n      jump\t// out\n        /* \"#utility.yul\":20210:20374   */\n    tag_412:\n        /* \"#utility.yul\":20350:20366   */\n      0x494e56414c49445f5349474e4552000000000000000000000000000000000000\n        /* \"#utility.yul\":20346:20347   */\n      0x00\n        /* \"#utility.yul\":20338:20344   */\n      dup3\n        /* \"#utility.yul\":20334:20348   */\n      add\n        /* \"#utility.yul\":20327:20367   */\n      mstore\n        /* \"#utility.yul\":20210:20374   */\n      pop\n      jump\t// out\n        /* \"#utility.yul\":20380:20746   */\n    tag_413:\n        /* \"#utility.yul\":20522:20525   */\n      0x00\n        /* \"#utility.yul\":20543:20610   */\n      tag_623\n        /* \"#utility.yul\":20607:20609   */\n      0x0e\n        /* \"#utility.yul\":20602:20605   */\n      dup4\n        /* \"#utility.yul\":20543:20610   */\n      tag_365\n      jump\t// in\n    tag_623:\n        /* \"#utility.yul\":20536:20610   */\n      swap2\n      pop\n        /* \"#utility.yul\":20619:20712   */\n      tag_624\n        /* \"#utility.yul\":20708:20711   */\n      dup3\n        /* \"#utility.yul\":20619:20712   */\n      tag_412\n      jump\t// in\n    tag_624:\n        /* \"#utility.yul\":20737:20739   */\n      0x20\n        /* \"#utility.yul\":20732:20735   */\n      dup3\n        /* \"#utility.yul\":20728:20740   */\n      add\n        /* \"#utility.yul\":20721:20740   */\n      swap1\n      pop\n        /* \"#utility.yul\":20380:20746   */\n      swap2\n      swap1\n      pop\n      jump\t// out\n        /* \"#utility.yul\":20752:21171   */\n    tag_320:\n        /* \"#utility.yul\":20918:20922   */\n      0x00\n        /* \"#utility.yul\":20956:20958   */\n      0x20\n        /* \"#utility.yul\":20945:20954   */\n      dup3\n        /* \"#utility.yul\":20941:20959   */\n      add\n        /* \"#utility.yul\":20933:20959   */\n      swap1\n      pop\n        /* \"#utility.yul\":21005:21014   */\n      dup2\n        /* \"#utility.yul\":20999:21003   */\n      dup2\n        /* \"#utility.yul\":20995:21015   */\n      sub\n        /* \"#utility.yul\":20991:20992   */\n      0x00\n        /* \"#utility.yul\":20980:20989   */\n      dup4\n        /* \"#utility.yul\":20976:20993   */\n      add\n        /* \"#utility.yul\":20969:21016   */\n      mstore\n        /* \"#utility.yul\":21033:21164   */\n      tag_626\n        /* \"#utility.yul\":21159:21163   */\n      dup2\n        /* \"#utility.yul\":21033:21164   */\n      tag_413\n      jump\t// in\n    tag_626:\n        /* \"#utility.yul\":21025:21164   */\n      swap1\n      pop\n        /* \"#utility.yul\":20752:21171   */\n      swap2\n      swap1\n      pop\n      jump\t// out\n        /* \"#utility.yul\":21177:21404   */\n    tag_414:\n        /* \"#utility.yul\":21317:21351   */\n      0x4f776e61626c653a206e6577206d616e6167657220697320746865207a65726f\n        /* \"#utility.yul\":21313:21314   */\n      0x00\n        /* \"#utility.yul\":21305:21311   */\n      dup3\n        /* \"#utility.yul\":21301:21315   */\n      add\n        /* \"#utility.yul\":21294:21352   */\n      mstore\n        /* \"#utility.yul\":21386:21396   */\n      0x2061646472657373000000000000000000000000000000000000000000000000\n        /* \"#utility.yul\":21381:21383   */\n      0x20\n        /* \"#utility.yul\":21373:21379   */\n      dup3\n        /* \"#utility.yul\":21369:21384   */\n      add\n        /* \"#utility.yul\":21362:21397   */\n      mstore\n        /* \"#utility.yul\":21177:21404   */\n      pop\n      jump\t// out\n        /* \"#utility.yul\":21410:21776   */\n    tag_415:\n        /* \"#utility.yul\":21552:21555   */\n      0x00\n        /* \"#utility.yul\":21573:21640   */\n      tag_629\n        /* \"#utility.yul\":21637:21639   */\n      0x28\n        /* \"#utility.yul\":21632:21635   */\n      dup4\n        /* \"#utility.yul\":21573:21640   */\n      tag_365\n      jump\t// in\n    tag_629:\n        /* \"#utility.yul\":21566:21640   */\n      swap2\n      pop\n        /* \"#utility.yul\":21649:21742   */\n      tag_630\n        /* \"#utility.yul\":21738:21741   */\n      dup3\n        /* \"#utility.yul\":21649:21742   */\n      tag_414\n      jump\t// in\n    tag_630:\n        /* \"#utility.yul\":21767:21769   */\n      0x40\n        /* \"#utility.yul\":21762:21765   */\n      dup3\n        /* \"#utility.yul\":21758:21770   */\n      add\n        /* \"#utility.yul\":21751:21770   */\n      swap1\n      pop\n        /* \"#utility.yul\":21410:21776   */\n      swap2\n      swap1\n      pop\n      jump\t// out\n        /* \"#utility.yul\":21782:22201   */\n    tag_332:\n        /* \"#utility.yul\":21948:21952   */\n      0x00\n        /* \"#utility.yul\":21986:21988   */\n      0x20\n        /* \"#utility.yul\":21975:21984   */\n      dup3\n        /* \"#utility.yul\":21971:21989   */\n      add\n        /* \"#utility.yul\":21963:21989   */\n      swap1\n      pop\n        /* \"#utility.yul\":22035:22044   */\n      dup2\n        /* \"#utility.yul\":22029:22033   */\n      dup2\n        /* \"#utility.yul\":22025:22045   */\n      sub\n        /* \"#utility.yul\":22021:22022   */\n      0x00\n        /* \"#utility.yul\":22010:22019   */\n      dup4\n        /* \"#utility.yul\":22006:22023   */\n      add\n        /* \"#utility.yul\":21999:22046   */\n      mstore\n        /* \"#utility.yul\":22063:22194   */\n      tag_632\n        /* \"#utility.yul\":22189:22193   */\n      dup2\n        /* \"#utility.yul\":22063:22194   */\n      tag_415\n      jump\t// in\n    tag_632:\n        /* \"#utility.yul\":22055:22194   */\n      swap1\n      pop\n        /* \"#utility.yul\":21782:22201   */\n      swap2\n      swap1\n      pop\n      jump\t// out\n        /* \"#utility.yul\":22207:22354   */\n    tag_416:\n        /* \"#utility.yul\":22308:22319   */\n      0x00\n        /* \"#utility.yul\":22345:22348   */\n      dup2\n        /* \"#utility.yul\":22330:22348   */\n      swap1\n      pop\n        /* \"#utility.yul\":22207:22354   */\n      swap3\n      swap2\n      pop\n      pop\n      jump\t// out\n        /* \"#utility.yul\":22360:22504   */\n    tag_417:\n        /* \"#utility.yul\":22412:22416   */\n      0x00\n        /* \"#utility.yul\":22435:22438   */\n      dup2\n        /* \"#utility.yul\":22427:22438   */\n      swap1\n      pop\n        /* \"#utility.yul\":22458:22461   */\n      dup2\n        /* \"#utility.yul\":22455:22456   */\n      0x00\n        /* \"#utility.yul\":22448:22462   */\n      mstore\n        /* \"#utility.yul\":22492:22496   */\n      0x20\n        /* \"#utility.yul\":22489:22490   */\n      0x00\n        /* \"#utility.yul\":22479:22497   */\n      keccak256\n        /* \"#utility.yul\":22471:22497   */\n      swap1\n      pop\n        /* \"#utility.yul\":22360:22504   */\n      swap2\n      swap1\n      pop\n      jump\t// out\n        /* \"#utility.yul\":22532:23410   */\n    tag_418:\n        /* \"#utility.yul\":22637:22640   */\n      0x00\n        /* \"#utility.yul\":22674:22679   */\n      dup2\n        /* \"#utility.yul\":22668:22680   */\n      sload\n        /* \"#utility.yul\":22703:22739   */\n      tag_636\n        /* \"#utility.yul\":22729:22738   */\n      dup2\n        /* \"#utility.yul\":22703:22739   */\n      tag_191\n      jump\t// in\n    tag_636:\n        /* \"#utility.yul\":22755:22843   */\n      tag_637\n        /* \"#utility.yul\":22836:22842   */\n      dup2\n        /* \"#utility.yul\":22831:22834   */\n      dup7\n        /* \"#utility.yul\":22755:22843   */\n      tag_416\n      jump\t// in\n    tag_637:\n        /* \"#utility.yul\":22748:22843   */\n      swap5\n      pop\n        /* \"#utility.yul\":22874:22875   */\n      0x01\n        /* \"#utility.yul\":22863:22872   */\n      dup3\n        /* \"#utility.yul\":22859:22876   */\n      and\n        /* \"#utility.yul\":22890:22891   */\n      0x00\n        /* \"#utility.yul\":22885:23051   */\n      dup2\n      eq\n      tag_639\n      jumpi\n        /* \"#utility.yul\":23065:23066   */\n      0x01\n        /* \"#utility.yul\":23060:23404   */\n      dup2\n      eq\n      tag_640\n      jumpi\n        /* \"#utility.yul\":22852:23404   */\n      jump(tag_638)\n        /* \"#utility.yul\":22885:23051   */\n    tag_639:\n        /* \"#utility.yul\":22969:22973   */\n      0xff\n        /* \"#utility.yul\":22965:22974   */\n      not\n        /* \"#utility.yul\":22954:22963   */\n      dup4\n        /* \"#utility.yul\":22950:22975   */\n      and\n        /* \"#utility.yul\":22945:22948   */\n      dup7\n        /* \"#utility.yul\":22938:22976   */\n      mstore\n        /* \"#utility.yul\":23031:23037   */\n      dup2\n        /* \"#utility.yul\":23024:23038   */\n      iszero\n        /* \"#utility.yul\":23017:23039   */\n      iszero\n        /* \"#utility.yul\":23009:23015   */\n      dup3\n        /* \"#utility.yul\":23005:23040   */\n      mul\n        /* \"#utility.yul\":23000:23003   */\n      dup7\n        /* \"#utility.yul\":22996:23041   */\n      add\n        /* \"#utility.yul\":22989:23041   */\n      swap4\n      pop\n        /* \"#utility.yul\":22885:23051   */\n      jump(tag_638)\n        /* \"#utility.yul\":23060:23404   */\n    tag_640:\n        /* \"#utility.yul\":23127:23168   */\n      tag_641\n        /* \"#utility.yul\":23162:23167   */\n      dup6\n        /* \"#utility.yul\":23127:23168   */\n      tag_417\n      jump\t// in\n    tag_641:\n        /* \"#utility.yul\":23190:23191   */\n      0x00\n        /* \"#utility.yul\":23204:23358   */\n    tag_642:\n        /* \"#utility.yul\":23218:23224   */\n      dup4\n        /* \"#utility.yul\":23215:23216   */\n      dup2\n        /* \"#utility.yul\":23212:23225   */\n      lt\n        /* \"#utility.yul\":23204:23358   */\n      iszero\n      tag_644\n      jumpi\n        /* \"#utility.yul\":23292:23299   */\n      dup2\n        /* \"#utility.yul\":23286:23300   */\n      sload\n        /* \"#utility.yul\":23282:23283   */\n      dup2\n        /* \"#utility.yul\":23277:23280   */\n      dup10\n        /* \"#utility.yul\":23273:23284   */\n      add\n        /* \"#utility.yul\":23266:23301   */\n      mstore\n        /* \"#utility.yul\":23342:23343   */\n      0x01\n        /* \"#utility.yul\":23333:23340   */\n      dup3\n        /* \"#utility.yul\":23329:23344   */\n      add\n        /* \"#utility.yul\":23318:23344   */\n      swap2\n      pop\n        /* \"#utility.yul\":23240:23244   */\n      0x20\n        /* \"#utility.yul\":23237:23238   */\n      dup2\n        /* \"#utility.yul\":23233:23245   */\n      add\n        /* \"#utility.yul\":23228:23245   */\n      swap1\n      pop\n        /* \"#utility.yul\":23204:23358   */\n      jump(tag_642)\n    tag_644:\n        /* \"#utility.yul\":23387:23393   */\n      dup4\n        /* \"#utility.yul\":23382:23385   */\n      dup9\n        /* \"#utility.yul\":23378:23394   */\n      add\n        /* \"#utility.yul\":23371:23394   */\n      swap6\n      pop\n        /* \"#utility.yul\":23067:23404   */\n      pop\n      pop\n        /* \"#utility.yul\":22852:23404   */\n    tag_638:\n      pop\n        /* \"#utility.yul\":22641:23410   */\n      pop\n      pop\n        /* \"#utility.yul\":22532:23410   */\n      swap3\n      swap2\n      pop\n      pop\n      jump\t// out\n        /* \"#utility.yul\":23416:23689   */\n    tag_339:\n        /* \"#utility.yul\":23547:23550   */\n      0x00\n        /* \"#utility.yul\":23569:23663   */\n      tag_646\n        /* \"#utility.yul\":23659:23662   */\n      dup3\n        /* \"#utility.yul\":23650:23656   */\n      dup5\n        /* \"#utility.yul\":23569:23663   */\n      tag_418\n      jump\t// in\n    tag_646:\n        /* \"#utility.yul\":23562:23663   */\n      swap2\n      pop\n        /* \"#utility.yul\":23680:23683   */\n      dup2\n        /* \"#utility.yul\":23673:23683   */\n      swap1\n      pop\n        /* \"#utility.yul\":23416:23689   */\n      swap3\n      swap2\n      pop\n      pop\n      jump\t// out\n        /* \"#utility.yul\":23695:24359   */\n    tag_341:\n        /* \"#utility.yul\":23900:23904   */\n      0x00\n        /* \"#utility.yul\":23938:23941   */\n      0xa0\n        /* \"#utility.yul\":23927:23936   */\n      dup3\n        /* \"#utility.yul\":23923:23942   */\n      add\n        /* \"#utility.yul\":23915:23942   */\n      swap1\n      pop\n        /* \"#utility.yul\":23952:24023   */\n      tag_648\n        /* \"#utility.yul\":24020:24021   */\n      0x00\n        /* \"#utility.yul\":24009:24018   */\n      dup4\n        /* \"#utility.yul\":24005:24022   */\n      add\n        /* \"#utility.yul\":23996:24002   */\n      dup9\n        /* \"#utility.yul\":23952:24023   */\n      tag_383\n      jump\t// in\n    tag_648:\n        /* \"#utility.yul\":24033:24105   */\n      tag_649\n        /* \"#utility.yul\":24101:24103   */\n      0x20\n        /* \"#utility.yul\":24090:24099   */\n      dup4\n        /* \"#utility.yul\":24086:24104   */\n      add\n        /* \"#utility.yul\":24077:24083   */\n      dup8\n        /* \"#utility.yul\":24033:24105   */\n      tag_383\n      jump\t// in\n    tag_649:\n        /* \"#utility.yul\":24115:24187   */\n      tag_650\n        /* \"#utility.yul\":24183:24185   */\n      0x40\n        /* \"#utility.yul\":24172:24181   */\n      dup4\n        /* \"#utility.yul\":24168:24186   */\n      add\n        /* \"#utility.yul\":24159:24165   */\n      dup7\n        /* \"#utility.yul\":24115:24187   */\n      tag_383\n      jump\t// in\n    tag_650:\n        /* \"#utility.yul\":24197:24269   */\n      tag_651\n        /* \"#utility.yul\":24265:24267   */\n      0x60\n        /* \"#utility.yul\":24254:24263   */\n      dup4\n        /* \"#utility.yul\":24250:24268   */\n      add\n        /* \"#utility.yul\":24241:24247   */\n      dup6\n        /* \"#utility.yul\":24197:24269   */\n      tag_363\n      jump\t// in\n    tag_651:\n        /* \"#utility.yul\":24279:24352   */\n      tag_652\n        /* \"#utility.yul\":24347:24350   */\n      0x80\n        /* \"#utility.yul\":24336:24345   */\n      dup4\n        /* \"#utility.yul\":24332:24351   */\n      add\n        /* \"#utility.yul\":24323:24329   */\n      dup5\n        /* \"#utility.yul\":24279:24352   */\n      tag_389\n      jump\t// in\n    tag_652:\n        /* \"#utility.yul\":23695:24359   */\n      swap7\n      swap6\n      pop\n      pop\n      pop\n      pop\n      pop\n      pop\n      jump\t// out\n        /* \"#utility.yul\":24365:24535   */\n    tag_419:\n        /* \"#utility.yul\":24505:24527   */\n      0x5452414e534645525f46524f4d5f4641494c4544000000000000000000000000\n        /* \"#utility.yul\":24501:24502   */\n      0x00\n        /* \"#utility.yul\":24493:24499   */\n      dup3\n        /* \"#utility.yul\":24489:24503   */\n      add\n        /* \"#utility.yul\":24482:24528   */\n      mstore\n        /* \"#utility.yul\":24365:24535   */\n      pop\n      jump\t// out\n        /* \"#utility.yul\":24541:24907   */\n    tag_420:\n        /* \"#utility.yul\":24683:24686   */\n      0x00\n        /* \"#utility.yul\":24704:24771   */\n      tag_655\n        /* \"#utility.yul\":24768:24770   */\n      0x14\n        /* \"#utility.yul\":24763:24766   */\n      dup4\n        /* \"#utility.yul\":24704:24771   */\n      tag_365\n      jump\t// in\n    tag_655:\n        /* \"#utility.yul\":24697:24771   */\n      swap2\n      pop\n        /* \"#utility.yul\":24780:24873   */\n      tag_656\n        /* \"#utility.yul\":24869:24872   */\n      dup3\n        /* \"#utility.yul\":24780:24873   */\n      tag_419\n      jump\t// in\n    tag_656:\n        /* \"#utility.yul\":24898:24900   */\n      0x20\n        /* \"#utility.yul\":24893:24896   */\n      dup3\n        /* \"#utility.yul\":24889:24901   */\n      add\n        /* \"#utility.yul\":24882:24901   */\n      swap1\n      pop\n        /* \"#utility.yul\":24541:24907   */\n      swap2\n      swap1\n      pop\n      jump\t// out\n        /* \"#utility.yul\":24913:25332   */\n    tag_345:\n        /* \"#utility.yul\":25079:25083   */\n      0x00\n        /* \"#utility.yul\":25117:25119   */\n      0x20\n        /* \"#utility.yul\":25106:25115   */\n      dup3\n        /* \"#utility.yul\":25102:25120   */\n      add\n        /* \"#utility.yul\":25094:25120   */\n      swap1\n      pop\n        /* \"#utility.yul\":25166:25175   */\n      dup2\n        /* \"#utility.yul\":25160:25164   */\n      dup2\n        /* \"#utility.yul\":25156:25176   */\n      sub\n        /* \"#utility.yul\":25152:25153   */\n      0x00\n        /* \"#utility.yul\":25141:25150   */\n      dup4\n        /* \"#utility.yul\":25137:25154   */\n      add\n        /* \"#utility.yul\":25130:25177   */\n      mstore\n        /* \"#utility.yul\":25194:25325   */\n      tag_658\n        /* \"#utility.yul\":25320:25324   */\n      dup2\n        /* \"#utility.yul\":25194:25325   */\n      tag_420\n      jump\t// in\n    tag_658:\n        /* \"#utility.yul\":25186:25325   */\n      swap1\n      pop\n        /* \"#utility.yul\":24913:25332   */\n      swap2\n      swap1\n      pop\n      jump\t// out\n        /* \"#utility.yul\":25338:25529   */\n    tag_348:\n        /* \"#utility.yul\":25378:25381   */\n      0x00\n        /* \"#utility.yul\":25397:25417   */\n      tag_660\n        /* \"#utility.yul\":25415:25416   */\n      dup3\n        /* \"#utility.yul\":25397:25417   */\n      tag_362\n      jump\t// in\n    tag_660:\n        /* \"#utility.yul\":25392:25417   */\n      swap2\n      pop\n        /* \"#utility.yul\":25431:25451   */\n      tag_661\n        /* \"#utility.yul\":25449:25450   */\n      dup4\n        /* \"#utility.yul\":25431:25451   */\n      tag_362\n      jump\t// in\n    tag_661:\n        /* \"#utility.yul\":25426:25451   */\n      swap3\n      pop\n        /* \"#utility.yul\":25474:25475   */\n      dup3\n        /* \"#utility.yul\":25471:25472   */\n      dup3\n        /* \"#utility.yul\":25467:25476   */\n      add\n        /* \"#utility.yul\":25460:25476   */\n      swap1\n      pop\n        /* \"#utility.yul\":25495:25498   */\n      dup1\n        /* \"#utility.yul\":25492:25493   */\n      dup3\n        /* \"#utility.yul\":25489:25499   */\n      gt\n        /* \"#utility.yul\":25486:25522   */\n      iszero\n      tag_662\n      jumpi\n        /* \"#utility.yul\":25502:25520   */\n      tag_663\n      tag_396\n      jump\t// in\n    tag_663:\n        /* \"#utility.yul\":25486:25522   */\n    tag_662:\n        /* \"#utility.yul\":25338:25529   */\n      swap3\n      swap2\n      pop\n      pop\n      jump\t// out\n        /* \"#utility.yul\":25535:25768   */\n    tag_352:\n        /* \"#utility.yul\":25574:25577   */\n      0x00\n        /* \"#utility.yul\":25597:25621   */\n      tag_665\n        /* \"#utility.yul\":25615:25620   */\n      dup3\n        /* \"#utility.yul\":25597:25621   */\n      tag_362\n      jump\t// in\n    tag_665:\n        /* \"#utility.yul\":25588:25621   */\n      swap2\n      pop\n        /* \"#utility.yul\":25643:25709   */\n      0xffffffffffffffffffffffffffffffffffffffffffffffffffffffffffffffff\n        /* \"#utility.yul\":25636:25641   */\n      dup3\n        /* \"#utility.yul\":25633:25710   */\n      sub\n        /* \"#utility.yul\":25630:25733   */\n      tag_666\n      jumpi\n        /* \"#utility.yul\":25713:25731   */\n      tag_667\n      tag_396\n      jump\t// in\n    tag_667:\n        /* \"#utility.yul\":25630:25733   */\n    tag_666:\n        /* \"#utility.yul\":25760:25761   */\n      0x01\n        /* \"#utility.yul\":25753:25758   */\n      dup3\n        /* \"#utility.yul\":25749:25762   */\n      add\n        /* \"#utility.yul\":25742:25762   */\n      swap1\n      pop\n        /* \"#utility.yul\":25535:25768   */\n      swap2\n      swap1\n      pop\n      jump\t// out\n        /* \"#utility.yul\":25774:25939   */\n    tag_421:\n        /* \"#utility.yul\":25914:25931   */\n      0x5452414e534645525f4641494c45440000000000000000000000000000000000\n        /* \"#utility.yul\":25910:25911   */\n      0x00\n        /* \"#utility.yul\":25902:25908   */\n      dup3\n        /* \"#utility.yul\":25898:25912   */\n      add\n        /* \"#utility.yul\":25891:25932   */\n      mstore\n        /* \"#utility.yul\":25774:25939   */\n      pop\n      jump\t// out\n        /* \"#utility.yul\":25945:26311   */\n    tag_422:\n        /* \"#utility.yul\":26087:26090   */\n      0x00\n        /* \"#utility.yul\":26108:26175   */\n      tag_670\n        /* \"#utility.yul\":26172:26174   */\n      0x0f\n        /* \"#utility.yul\":26167:26170   */\n      dup4\n        /* \"#utility.yul\":26108:26175   */\n      tag_365\n      jump\t// in\n    tag_670:\n        /* \"#utility.yul\":26101:26175   */\n      swap2\n      pop\n        /* \"#utility.yul\":26184:26277   */\n      tag_671\n        /* \"#utility.yul\":26273:26276   */\n      dup3\n        /* \"#utility.yul\":26184:26277   */\n      tag_421\n      jump\t// in\n    tag_671:\n        /* \"#utility.yul\":26302:26304   */\n      0x20\n        /* \"#utility.yul\":26297:26300   */\n      dup3\n        /* \"#utility.yul\":26293:26305   */\n      add\n        /* \"#utility.yul\":26286:26305   */\n      swap1\n      pop\n        /* \"#utility.yul\":25945:26311   */\n      swap2\n      swap1\n      pop\n      jump\t// out\n        /* \"#utility.yul\":26317:26736   */\n    tag_361:\n        /* \"#utility.yul\":26483:26487   */\n      0x00\n        /* \"#utility.yul\":26521:26523   */\n      0x20\n        /* \"#utility.yul\":26510:26519   */\n      dup3\n        /* \"#utility.yul\":26506:26524   */\n      add\n        /* \"#utility.yul\":26498:26524   */\n      swap1\n      pop\n        /* \"#utility.yul\":26570:26579   */\n      dup2\n        /* \"#utility.yul\":26564:26568   */\n      dup2\n        /* \"#utility.yul\":26560:26580   */\n      sub\n        /* \"#utility.yul\":26556:26557   */\n      0x00\n        /* \"#utility.yul\":26545:26554   */\n      dup4\n        /* \"#utility.yul\":26541:26558   */\n      add\n        /* \"#utility.yul\":26534:26581   */\n      mstore\n        /* \"#utility.yul\":26598:26729   */\n      tag_673\n        /* \"#utility.yul\":26724:26728   */\n      dup2\n        /* \"#utility.yul\":26598:26729   */\n      tag_422\n      jump\t// in\n    tag_673:\n        /* \"#utility.yul\":26590:26729   */\n      swap1\n      pop\n        /* \"#utility.yul\":26317:26736   */\n      swap2\n      swap1\n      pop\n      jump\t// out\n\n    auxdata: 0xa2646970667358221220b4df419f479b6b5c4deb195a41e5d76ba1bcf8c2a6e2f995b9af5422dbe23e0f64736f6c63430008100033\n}\n",
				"bytecode": {
					"linkReferences": {},
					"object": "610100604052600060075560006008553480156200001c57600080fd5b50604051620039e5380380620039e58339818101604052810190620000429190620003e0565b8383838382828282600090816200005a9190620006db565b5081600190816200006c9190620006db565b508060ff1660808160ff16815250504660a08181525050620000936200010660201b60201c565b60c081815250505050508373ffffffffffffffffffffffffffffffffffffffff1660e08173ffffffffffffffffffffffffffffffffffffffff1681525050505050507fffffffffffffffffffffffffffffffffffffffffffffffffffffffffffffffff6002819055505050505062000924565b60007f8b73c3c69bb8fe3d512ecc4cf759cc79239f7b179b0ffacaa9a75d522b39400f60006040516200013a919062000871565b60405180910390207fc89efdaa54c0f20c7adf612882df0950f5a951637e0307cdcb4c672f298b8bc646306040516020016200017b959493929190620008c7565b60405160208183030381529060405280519060200120905090565b6000604051905090565b600080fd5b600080fd5b600073ffffffffffffffffffffffffffffffffffffffff82169050919050565b6000620001d782620001aa565b9050919050565b6000620001eb82620001ca565b9050919050565b620001fd81620001de565b81146200020957600080fd5b50565b6000815190506200021d81620001f2565b92915050565b600080fd5b600080fd5b6000601f19601f8301169050919050565b7f4e487b7100000000000000000000000000000000000000000000000000000000600052604160045260246000fd5b62000278826200022d565b810181811067ffffffffffffffff821117156200029a57620002996200023e565b5b80604052505050565b6000620002af62000196565b9050620002bd82826200026d565b919050565b600067ffffffffffffffff821115620002e057620002df6200023e565b5b620002eb826200022d565b9050602081019050919050565b60005b8381101562000318578082015181840152602081019050620002fb565b60008484015250505050565b60006200033b6200033584620002c2565b620002a3565b9050828152602081018484840111156200035a576200035962000228565b5b62000367848285620002f8565b509392505050565b600082601f83011262000387576200038662000223565b5b81516200039984826020860162000324565b91505092915050565b600060ff82169050919050565b620003ba81620003a2565b8114620003c657600080fd5b50565b600081519050620003da81620003af565b92915050565b60008060008060808587031215620003fd57620003fc620001a0565b5b60006200040d878288016200020c565b945050602085015167ffffffffffffffff811115620004315762000430620001a5565b5b6200043f878288016200036f565b935050604085015167ffffffffffffffff811115620004635762000462620001a5565b5b62000471878288016200036f565b92505060606200048487828801620003c9565b91505092959194509250565b600081519050919050565b7f4e487b7100000000000000000000000000000000000000000000000000000000600052602260045260246000fd5b60006002820490506001821680620004e357607f821691505b602082108103620004f957620004f86200049b565b5b50919050565b60008190508160005260206000209050919050565b60006020601f8301049050919050565b600082821b905092915050565b600060088302620005637fffffffffffffffffffffffffffffffffffffffffffffffffffffffffffffffff8262000524565b6200056f868362000524565b95508019841693508086168417925050509392505050565b6000819050919050565b6000819050919050565b6000620005bc620005b6620005b08462000587565b62000591565b62000587565b9050919050565b6000819050919050565b620005d8836200059b565b620005f0620005e782620005c3565b84845462000531565b825550505050565b600090565b62000607620005f8565b62000614818484620005cd565b505050565b5b818110156200063c5762000630600082620005fd565b6001810190506200061a565b5050565b601f8211156200068b576200065581620004ff565b620006608462000514565b8101602085101562000670578190505b620006886200067f8562000514565b83018262000619565b50505b505050565b600082821c905092915050565b6000620006b06000198460080262000690565b1980831691505092915050565b6000620006cb83836200069d565b9150826002028217905092915050565b620006e68262000490565b67ffffffffffffffff8111156200070257620007016200023e565b5b6200070e8254620004ca565b6200071b82828562000640565b600060209050601f8311600181146200075357600084156200073e578287015190505b6200074a8582620006bd565b865550620007ba565b601f1984166200076386620004ff565b60005b828110156200078d5784890151825560018201915060208501945060208101905062000766565b86831015620007ad5784890151620007a9601f8916826200069d565b8355505b6001600288020188555050505b505050505050565b600081905092915050565b60008190508160005260206000209050919050565b60008154620007f181620004ca565b620007fd8186620007c2565b945060018216600081146200081b5760018114620008315762000868565b60ff198316865281151582028601935062000868565b6200083c85620007cd565b60005b8381101562000860578154818901526001820191506020810190506200083f565b838801955050505b50505092915050565b60006200087f8284620007e2565b915081905092915050565b6000819050919050565b6200089f816200088a565b82525050565b620008b08162000587565b82525050565b620008c181620001ca565b82525050565b600060a082019050620008de600083018862000894565b620008ed602083018762000894565b620008fc604083018662000894565b6200090b6060830185620008a5565b6200091a6080830184620008b6565b9695505050505050565b60805160a05160c05160e051613064620009816000396000818161078201528181610ce801528181610dc701528181611126015281816115d9015261187701526000610cc101526000610c8d01526000610c6701526130646000f3fe608060405234801561001057600080fd5b50600436106102115760003560e01c80637ecebe0011610125578063c63d75b6116100ad578063d905777e1161007c578063d905777e146106b4578063dd62ed3e146106e4578063ef8b30f714610714578063f2fde38b14610744578063fc407ae71461076057610211565b8063c63d75b614610608578063c6e6f59214610638578063ce96cb7714610668578063d505accf1461069857610211565b8063a9059cbb116100f4578063a9059cbb1461052a578063b3d7f6b91461055a578063b460af941461058a578063ba087652146105ba578063bc368a8a146105ea57610211565b80637ecebe001461048e5780637fd6f15c146104be57806394bf804d146104dc57806395d89b411461050c57610211565b80633644e515116101a85780634cdad506116101775780634cdad506146103d85780636e553f651461040857806370a0823114610438578063715018a6146104685780637ce3489b1461047257610211565b80633644e5151461034e57806338d52e0f1461036c578063402d267d1461038a578063481c6a75146103ba57610211565b80630a28a477116101e45780630a28a477146102b257806318160ddd146102e257806323b872dd14610300578063313ce5671461033057610211565b806301e1d1141461021657806306fdde031461023457806307a2d13a14610252578063095ea7b314610282575b600080fd5b61021e61077e565b60405161022b91906122af565b60405180910390f35b61023c61081f565b604051610249919061235a565b60405180910390f35b61026c600480360381019061026791906123ad565b6108ad565b60405161027991906122af565b60405180910390f35b61029c60048036038101906102979190612438565b6108e8565b6040516102a99190612493565b60405180910390f35b6102cc60048036038101906102c791906123ad565b6109da565b6040516102d991906122af565b60405180910390f35b6102ea610a15565b6040516102f791906122af565b60405180910390f35b61031a600480360381019061031591906124ae565b610a1b565b6040516103279190612493565b60405180910390f35b610338610c65565b604051610345919061251d565b60405180910390f35b610356610c89565b6040516103639190612551565b60405180910390f35b610374610ce6565b60405161038191906125cb565b60405180910390f35b6103a4600480360381019061039f91906125e6565b610d0a565b6040516103b191906122af565b60405180910390f35b6103c2610d34565b6040516103cf9190612622565b60405180910390f35b6103f260048036038101906103ed91906123ad565b610d5e565b6040516103ff91906122af565b60405180910390f35b610422600480360381019061041d919061263d565b610d70565b60405161042f91906122af565b60405180910390f35b610452600480360381019061044d91906125e6565b610e8d565b60405161045f91906122af565b60405180910390f35b610470610ea5565b005b61048c600480360381019061048791906123ad565b610fdb565b005b6104a860048036038101906104a391906125e6565b6110f3565b6040516104b591906122af565b60405180910390f35b6104c661110b565b6040516104d391906122af565b60405180910390f35b6104f660048036038101906104f1919061263d565b611111565b60405161050391906122af565b60405180910390f35b6105146111ec565b604051610521919061235a565b60405180910390f35b610544600480360381019061053f9190612438565b61127a565b6040516105519190612493565b60405180910390f35b610574600480360381019061056f91906123ad565b61138e565b60405161058191906122af565b60405180910390f35b6105a4600480360381019061059f919061267d565b6113c9565b6040516105b191906122af565b60405180910390f35b6105d460048036038101906105cf919061267d565b611624565b6040516105e191906122af565b60405180910390f35b6105f26118c2565b6040516105ff91906122af565b60405180910390f35b610622600480360381019061061d91906125e6565b6118c8565b60405161062f91906122af565b60405180910390f35b610652600480360381019061064d91906123ad565b6118f2565b60405161065f91906122af565b60405180910390f35b610682600480360381019061067d91906125e6565b61192d565b60405161068f91906122af565b60405180910390f35b6106b260048036038101906106ad9190612728565b61197e565b005b6106ce60048036038101906106c991906125e6565b611c77565b6040516106db91906122af565b60405180910390f35b6106fe60048036038101906106f991906127ca565b611cc0565b60405161070b91906122af565b60405180910390f35b61072e600480360381019061072991906123ad565b611ce5565b60405161073b91906122af565b60405180910390f35b61075e600480360381019061075991906125e6565b611cf7565b005b610768611e9b565b60405161077591906122af565b60405180910390f35b60007f000000000000000000000000000000000000000000000000000000000000000073ffffffffffffffffffffffffffffffffffffffff166370a08231306040518263ffffffff1660e01b81526004016107d99190612622565b602060405180830381865afa1580156107f6573d6000803e3d6000fd5b505050506040513d601f19601f8201168201806040525081019061081a919061281f565b905090565b6000805461082c9061287b565b80601f01602080910402602001604051908101604052809291908181526020018280546108589061287b565b80156108a55780601f1061087a576101008083540402835291602001916108a5565b820191906000526020600020905b81548152906001019060200180831161088857829003601f168201915b505050505081565b6000806002549050600081146108de576108d96108c861077e565b8285611ea19092919063ffffffff16565b6108e0565b825b915050919050565b600081600460003373ffffffffffffffffffffffffffffffffffffffff1673ffffffffffffffffffffffffffffffffffffffff16815260200190815260200160002060008573ffffffffffffffffffffffffffffffffffffffff1673ffffffffffffffffffffffffffffffffffffffff168152602001908152602001600020819055508273ffffffffffffffffffffffffffffffffffffffff163373ffffffffffffffffffffffffffffffffffffffff167f8c5be1e5ebec7d5bd14f71427d1e84f3dd0314c0f7b2291e5b200ac8c7c3b925846040516109c891906122af565b60405180910390a36001905092915050565b600080600254905060008114610a0b57610a06816109f661077e565b85611ec99092919063ffffffff16565b610a0d565b825b915050919050565b60025481565b600080600460008673ffffffffffffffffffffffffffffffffffffffff1673ffffffffffffffffffffffffffffffffffffffff16815260200190815260200160002060003373ffffffffffffffffffffffffffffffffffffffff1673ffffffffffffffffffffffffffffffffffffffff1681526020019081526020016000205490507fffffffffffffffffffffffffffffffffffffffffffffffffffffffffffffffff8114610b51578281610ad091906128db565b600460008773ffffffffffffffffffffffffffffffffffffffff1673ffffffffffffffffffffffffffffffffffffffff16815260200190815260200160002060003373ffffffffffffffffffffffffffffffffffffffff1673ffffffffffffffffffffffffffffffffffffffff168152602001908152602001600020819055505b82600360008773ffffffffffffffffffffffffffffffffffffffff1673ffffffffffffffffffffffffffffffffffffffff1681526020019081526020016000206000828254610ba091906128db565b9250508190555082600360008673ffffffffffffffffffffffffffffffffffffffff1673ffffffffffffffffffffffffffffffffffffffff168152602001908152602001600020600082825401925050819055508373ffffffffffffffffffffffffffffffffffffffff168573ffffffffffffffffffffffffffffffffffffffff167fddf252ad1be2c89b69c2b068fc378daa952ba7f163c4a11628f55a4df523b3ef85604051610c5191906122af565b60405180910390a360019150509392505050565b7f000000000000000000000000000000000000000000000000000000000000000081565b60007f00000000000000000000000000000000000000000000000000000000000000004614610cbf57610cba611efb565b610ce1565b7f00000000000000000000000000000000000000000000000000000000000000005b905090565b7f000000000000000000000000000000000000000000000000000000000000000081565b60007fffffffffffffffffffffffffffffffffffffffffffffffffffffffffffffffff9050919050565b6000600660009054906101000a900473ffffffffffffffffffffffffffffffffffffffff16905090565b6000610d69826108ad565b9050919050565b600080610d7c84611ce5565b91508103610dbf576040517f08c379a0000000000000000000000000000000000000000000000000000000008152600401610db69061295b565b60405180910390fd5b610e0c3330857f000000000000000000000000000000000000000000000000000000000000000073ffffffffffffffffffffffffffffffffffffffff16611f87909392919063ffffffff16565b610e168282612026565b8173ffffffffffffffffffffffffffffffffffffffff163373ffffffffffffffffffffffffffffffffffffffff167fdcbc1c05240f31ff3ad067ef1ee35ce4997762752e3a095284754544f4c709d78584604051610e7592919061297b565b60405180910390a3610e8783826120f6565b92915050565b60036020528060005260406000206000915090505481565b3373ffffffffffffffffffffffffffffffffffffffff16610ec4610d34565b73ffffffffffffffffffffffffffffffffffffffff1614610f1a576040517f08c379a0000000000000000000000000000000000000000000000000000000008152600401610f1190612a16565b60405180910390fd5b600073ffffffffffffffffffffffffffffffffffffffff16600660009054906101000a900473ffffffffffffffffffffffffffffffffffffffff1673ffffffffffffffffffffffffffffffffffffffff167f8be0079c531659141344cd1fd0a4f28419497f9722a3daafe3b4186f6b6457e060405160405180910390a36000600660006101000a81548173ffffffffffffffffffffffffffffffffffffffff021916908373ffffffffffffffffffffffffffffffffffffffff160217905550565b3373ffffffffffffffffffffffffffffffffffffffff16610ffa610d34565b73ffffffffffffffffffffffffffffffffffffffff1614611050576040517f08c379a000000000000000000000000000000000000000000000000000000000815260040161104790612a16565b60405180910390fd5b670de0b6b3a764000081111561109b576040517f08c379a000000000000000000000000000000000000000000000000000000000815260040161109290612a82565b60405180910390fd5b806009819055503373ffffffffffffffffffffffffffffffffffffffff167fec370615cc81fb334e5566fbc80664d9082377bf59288d64a79f3fbecf4323a9826040516110e891906122af565b60405180910390a250565b60056020528060005260406000206000915090505481565b60095481565b600061111c8361138e565b905061116b3330837f000000000000000000000000000000000000000000000000000000000000000073ffffffffffffffffffffffffffffffffffffffff16611f87909392919063ffffffff16565b6111758284612026565b8173ffffffffffffffffffffffffffffffffffffffff163373ffffffffffffffffffffffffffffffffffffffff167fdcbc1c05240f31ff3ad067ef1ee35ce4997762752e3a095284754544f4c709d783866040516111d492919061297b565b60405180910390a36111e681846120f6565b92915050565b600180546111f99061287b565b80601f01602080910402602001604051908101604052809291908181526020018280546112259061287b565b80156112725780601f1061124757610100808354040283529160200191611272565b820191906000526020600020905b81548152906001019060200180831161125557829003601f168201915b505050505081565b600081600360003373ffffffffffffffffffffffffffffffffffffffff1673ffffffffffffffffffffffffffffffffffffffff16815260200190815260200160002060008282546112cb91906128db565b9250508190555081600360008573ffffffffffffffffffffffffffffffffffffffff1673ffffffffffffffffffffffffffffffffffffffff168152602001908152602001600020600082825401925050819055508273ffffffffffffffffffffffffffffffffffffffff163373ffffffffffffffffffffffffffffffffffffffff167fddf252ad1be2c89b69c2b068fc378daa952ba7f163c4a11628f55a4df523b3ef8460405161137c91906122af565b60405180910390a36001905092915050565b6000806002549050600081146113bf576113ba6113a961077e565b8285611ec99092919063ffffffff16565b6113c1565b825b915050919050565b60006113d4846109da565b90508173ffffffffffffffffffffffffffffffffffffffff163373ffffffffffffffffffffffffffffffffffffffff1614611540576000600460008473ffffffffffffffffffffffffffffffffffffffff1673ffffffffffffffffffffffffffffffffffffffff16815260200190815260200160002060003373ffffffffffffffffffffffffffffffffffffffff1673ffffffffffffffffffffffffffffffffffffffff1681526020019081526020016000205490507fffffffffffffffffffffffffffffffffffffffffffffffffffffffffffffffff811461153e5781816114bd91906128db565b600460008573ffffffffffffffffffffffffffffffffffffffff1673ffffffffffffffffffffffffffffffffffffffff16815260200190815260200160002060003373ffffffffffffffffffffffffffffffffffffffff1673ffffffffffffffffffffffffffffffffffffffff168152602001908152602001600020819055505b505b61154a8482612112565b611554828261212e565b8173ffffffffffffffffffffffffffffffffffffffff168373ffffffffffffffffffffffffffffffffffffffff163373ffffffffffffffffffffffffffffffffffffffff167ffbde797d201c681b91056529119e0b02407c7bb96a4a2c75c01fc9667232c8db87856040516115ca92919061297b565b60405180910390a461161d83857f000000000000000000000000000000000000000000000000000000000000000073ffffffffffffffffffffffffffffffffffffffff166121fe9092919063ffffffff16565b9392505050565b60008173ffffffffffffffffffffffffffffffffffffffff163373ffffffffffffffffffffffffffffffffffffffff1614611790576000600460008473ffffffffffffffffffffffffffffffffffffffff1673ffffffffffffffffffffffffffffffffffffffff16815260200190815260200160002060003373ffffffffffffffffffffffffffffffffffffffff1673ffffffffffffffffffffffffffffffffffffffff1681526020019081526020016000205490507fffffffffffffffffffffffffffffffffffffffffffffffffffffffffffffffff811461178e57848161170d91906128db565b600460008573ffffffffffffffffffffffffffffffffffffffff1673ffffffffffffffffffffffffffffffffffffffff16815260200190815260200160002060003373ffffffffffffffffffffffffffffffffffffffff1673ffffffffffffffffffffffffffffffffffffffff168152602001908152602001600020819055505b505b600061179b85610d5e565b915081036117de576040517f08c379a00000000000000000000000000000000000000000000000000000000081526004016117d590612aee565b60405180910390fd5b6117e88185612112565b6117f2828561212e565b8173ffffffffffffffffffffffffffffffffffffffff168373ffffffffffffffffffffffffffffffffffffffff163373ffffffffffffffffffffffffffffffffffffffff167ffbde797d201c681b91056529119e0b02407c7bb96a4a2c75c01fc9667232c8db848860405161186892919061297b565b60405180910390a46118bb83827f000000000000000000000000000000000000000000000000000000000000000073ffffffffffffffffffffffffffffffffffffffff166121fe9092919063ffffffff16565b9392505050565b60075481565b60007fffffffffffffffffffffffffffffffffffffffffffffffffffffffffffffffff9050919050565b6000806002549050600081146119235761191e8161190e61077e565b85611ea19092919063ffffffff16565b611925565b825b915050919050565b6000611977600360008473ffffffffffffffffffffffffffffffffffffffff1673ffffffffffffffffffffffffffffffffffffffff168152602001908152602001600020546108ad565b9050919050565b428410156119c1576040517f08c379a00000000000000000000000000000000000000000000000000000000081526004016119b890612b5a565b60405180910390fd5b600060016119cd610c89565b7f6e71edae12b1b97f4d1f60370fef10105fa2faae0126114a169c64845d6126c98a8a8a600560008f73ffffffffffffffffffffffffffffffffffffffff1673ffffffffffffffffffffffffffffffffffffffff1681526020019081526020016000206000815480929190600101919050558b604051602001611a5596959493929190612b7a565b60405160208183030381529060405280519060200120604051602001611a7c929190612c53565b6040516020818303038152906040528051906020012085858560405160008152602001604052604051611ab29493929190612c8a565b6020604051602081039080840390855afa158015611ad4573d6000803e3d6000fd5b505050602060405103519050600073ffffffffffffffffffffffffffffffffffffffff168173ffffffffffffffffffffffffffffffffffffffff1614158015611b4857508773ffffffffffffffffffffffffffffffffffffffff168173ffffffffffffffffffffffffffffffffffffffff16145b611b87576040517f08c379a0000000000000000000000000000000000000000000000000000000008152600401611b7e90612d1b565b60405180910390fd5b85600460008373ffffffffffffffffffffffffffffffffffffffff1673ffffffffffffffffffffffffffffffffffffffff16815260200190815260200160002060008973ffffffffffffffffffffffffffffffffffffffff1673ffffffffffffffffffffffffffffffffffffffff16815260200190815260200160002081905550508573ffffffffffffffffffffffffffffffffffffffff168773ffffffffffffffffffffffffffffffffffffffff167f8c5be1e5ebec7d5bd14f71427d1e84f3dd0314c0f7b2291e5b200ac8c7c3b92587604051611c6691906122af565b60405180910390a350505050505050565b6000600360008373ffffffffffffffffffffffffffffffffffffffff1673ffffffffffffffffffffffffffffffffffffffff168152602001908152602001600020549050919050565b6004602052816000526040600020602052806000526040600020600091509150505481565b6000611cf0826118f2565b9050919050565b3373ffffffffffffffffffffffffffffffffffffffff16611d16610d34565b73ffffffffffffffffffffffffffffffffffffffff1614611d6c576040517f08c379a0000000000000000000000000000000000000000000000000000000008152600401611d6390612a16565b60405180910390fd5b600073ffffffffffffffffffffffffffffffffffffffff168173ffffffffffffffffffffffffffffffffffffffff1603611ddb576040517f08c379a0000000000000000000000000000000000000000000000000000000008152600401611dd290612dad565b60405180910390fd5b8073ffffffffffffffffffffffffffffffffffffffff16600660009054906101000a900473ffffffffffffffffffffffffffffffffffffffff1673ffffffffffffffffffffffffffffffffffffffff167f8be0079c531659141344cd1fd0a4f28419497f9722a3daafe3b4186f6b6457e060405160405180910390a380600660006101000a81548173ffffffffffffffffffffffffffffffffffffffff021916908373ffffffffffffffffffffffffffffffffffffffff16021790555050565b60085481565b60008284029050828482041484151782151516611ebd57600080fd5b81810490509392505050565b60008284029050828482041484151782151516611ee557600080fd5b6001826001830304018115150290509392505050565b60007f8b73c3c69bb8fe3d512ecc4cf759cc79239f7b179b0ffacaa9a75d522b39400f6000604051611f2d9190612e70565b60405180910390207fc89efdaa54c0f20c7adf612882df0950f5a951637e0307cdcb4c672f298b8bc64630604051602001611f6c959493929190612e87565b60405160208183030381529060405280519060200120905090565b60006040517f23b872dd0000000000000000000000000000000000000000000000000000000081528460048201528360248201528260448201526020600060648360008a5af13d15601f3d116001600051141617169150508061201f576040517f08c379a000000000000000000000000000000000000000000000000000000000815260040161201690612f26565b60405180910390fd5b5050505050565b80600260008282546120389190612f46565b9250508190555080600360008473ffffffffffffffffffffffffffffffffffffffff1673ffffffffffffffffffffffffffffffffffffffff168152602001908152602001600020600082825401925050819055508173ffffffffffffffffffffffffffffffffffffffff16600073ffffffffffffffffffffffffffffffffffffffff167fddf252ad1be2c89b69c2b068fc378daa952ba7f163c4a11628f55a4df523b3ef836040516120ea91906122af565b60405180910390a35050565b6008600081548092919061210990612f7a565b91905055505050565b6007600081548092919061212590612f7a565b91905055505050565b80600360008473ffffffffffffffffffffffffffffffffffffffff1673ffffffffffffffffffffffffffffffffffffffff168152602001908152602001600020600082825461217d91906128db565b9250508190555080600260008282540392505081905550600073ffffffffffffffffffffffffffffffffffffffff168273ffffffffffffffffffffffffffffffffffffffff167fddf252ad1be2c89b69c2b068fc378daa952ba7f163c4a11628f55a4df523b3ef836040516121f291906122af565b60405180910390a35050565b60006040517fa9059cbb000000000000000000000000000000000000000000000000000000008152836004820152826024820152602060006044836000895af13d15601f3d1160016000511416171691505080612290576040517f08c379a00000000000000000000000000000000000000000000000000000000081526004016122879061300e565b60405180910390fd5b50505050565b6000819050919050565b6122a981612296565b82525050565b60006020820190506122c460008301846122a0565b92915050565b600081519050919050565b600082825260208201905092915050565b60005b838110156123045780820151818401526020810190506122e9565b60008484015250505050565b6000601f19601f8301169050919050565b600061232c826122ca565b61233681856122d5565b93506123468185602086016122e6565b61234f81612310565b840191505092915050565b600060208201905081810360008301526123748184612321565b905092915050565b600080fd5b61238a81612296565b811461239557600080fd5b50565b6000813590506123a781612381565b92915050565b6000602082840312156123c3576123c261237c565b5b60006123d184828501612398565b91505092915050565b600073ffffffffffffffffffffffffffffffffffffffff82169050919050565b6000612405826123da565b9050919050565b612415816123fa565b811461242057600080fd5b50565b6000813590506124328161240c565b92915050565b6000806040838503121561244f5761244e61237c565b5b600061245d85828601612423565b925050602061246e85828601612398565b9150509250929050565b60008115159050919050565b61248d81612478565b82525050565b60006020820190506124a86000830184612484565b92915050565b6000806000606084860312156124c7576124c661237c565b5b60006124d586828701612423565b93505060206124e686828701612423565b92505060406124f786828701612398565b9150509250925092565b600060ff82169050919050565b61251781612501565b82525050565b6000602082019050612532600083018461250e565b92915050565b6000819050919050565b61254b81612538565b82525050565b60006020820190506125666000830184612542565b92915050565b6000819050919050565b600061259161258c612587846123da565b61256c565b6123da565b9050919050565b60006125a382612576565b9050919050565b60006125b582612598565b9050919050565b6125c5816125aa565b82525050565b60006020820190506125e060008301846125bc565b92915050565b6000602082840312156125fc576125fb61237c565b5b600061260a84828501612423565b91505092915050565b61261c816123fa565b82525050565b60006020820190506126376000830184612613565b92915050565b600080604083850312156126545761265361237c565b5b600061266285828601612398565b925050602061267385828601612423565b9150509250929050565b6000806000606084860312156126965761269561237c565b5b60006126a486828701612398565b93505060206126b586828701612423565b92505060406126c686828701612423565b9150509250925092565b6126d981612501565b81146126e457600080fd5b50565b6000813590506126f6816126d0565b92915050565b61270581612538565b811461271057600080fd5b50565b600081359050612722816126fc565b92915050565b600080600080600080600060e0888a0312156127475761274661237c565b5b60006127558a828b01612423565b97505060206127668a828b01612423565b96505060406127778a828b01612398565b95505060606127888a828b01612398565b94505060806127998a828b016126e7565b93505060a06127aa8a828b01612713565b92505060c06127bb8a828b01612713565b91505092959891949750929550565b600080604083850312156127e1576127e061237c565b5b60006127ef85828601612423565b925050602061280085828601612423565b9150509250929050565b60008151905061281981612381565b92915050565b6000602082840312156128355761283461237c565b5b60006128438482850161280a565b91505092915050565b7f4e487b7100000000000000000000000000000000000000000000000000000000600052602260045260246000fd5b6000600282049050600182168061289357607f821691505b6020821081036128a6576128a561284c565b5b50919050565b7f4e487b7100000000000000000000000000000000000000000000000000000000600052601160045260246000fd5b60006128e682612296565b91506128f183612296565b9250828203905081811115612909576129086128ac565b5b92915050565b7f5a45524f5f534841524553000000000000000000000000000000000000000000600082015250565b6000612945600b836122d5565b91506129508261290f565b602082019050919050565b6000602082019050818103600083015261297481612938565b9050919050565b600060408201905061299060008301856122a0565b61299d60208301846122a0565b9392505050565b7f4f776e61626c653a2063616c6c6572206973206e6f7420746865206d616e616760008201527f6572000000000000000000000000000000000000000000000000000000000000602082015250565b6000612a006022836122d5565b9150612a0b826129a4565b604082019050919050565b60006020820190508181036000830152612a2f816129f3565b9050919050565b7f4645455f544f4f5f484947480000000000000000000000000000000000000000600082015250565b6000612a6c600c836122d5565b9150612a7782612a36565b602082019050919050565b60006020820190508181036000830152612a9b81612a5f565b9050919050565b7f5a45524f5f415353455453000000000000000000000000000000000000000000600082015250565b6000612ad8600b836122d5565b9150612ae382612aa2565b602082019050919050565b60006020820190508181036000830152612b0781612acb565b9050919050565b7f5045524d49545f444541444c494e455f45585049524544000000000000000000600082015250565b6000612b446017836122d5565b9150612b4f82612b0e565b602082019050919050565b60006020820190508181036000830152612b7381612b37565b9050919050565b600060c082019050612b8f6000830189612542565b612b9c6020830188612613565b612ba96040830187612613565b612bb660608301866122a0565b612bc360808301856122a0565b612bd060a08301846122a0565b979650505050505050565b600081905092915050565b7f1901000000000000000000000000000000000000000000000000000000000000600082015250565b6000612c1c600283612bdb565b9150612c2782612be6565b600282019050919050565b6000819050919050565b612c4d612c4882612538565b612c32565b82525050565b6000612c5e82612c0f565b9150612c6a8285612c3c565b602082019150612c7a8284612c3c565b6020820191508190509392505050565b6000608082019050612c9f6000830187612542565b612cac602083018661250e565b612cb96040830185612542565b612cc66060830184612542565b95945050505050565b7f494e56414c49445f5349474e4552000000000000000000000000000000000000600082015250565b6000612d05600e836122d5565b9150612d1082612ccf565b602082019050919050565b60006020820190508181036000830152612d3481612cf8565b9050919050565b7f4f776e61626c653a206e6577206d616e6167657220697320746865207a65726f60008201527f2061646472657373000000000000000000000000000000000000000000000000602082015250565b6000612d976028836122d5565b9150612da282612d3b565b604082019050919050565b60006020820190508181036000830152612dc681612d8a565b9050919050565b600081905092915050565b60008190508160005260206000209050919050565b60008154612dfa8161287b565b612e048186612dcd565b94506001821660008114612e1f5760018114612e3457612e67565b60ff1983168652811515820286019350612e67565b612e3d85612dd8565b60005b83811015612e5f57815481890152600182019150602081019050612e40565b838801955050505b50505092915050565b6000612e7c8284612ded565b915081905092915050565b600060a082019050612e9c6000830188612542565b612ea96020830187612542565b612eb66040830186612542565b612ec360608301856122a0565b612ed06080830184612613565b9695505050505050565b7f5452414e534645525f46524f4d5f4641494c4544000000000000000000000000600082015250565b6000612f106014836122d5565b9150612f1b82612eda565b602082019050919050565b60006020820190508181036000830152612f3f81612f03565b9050919050565b6000612f5182612296565b9150612f5c83612296565b9250828201905080821115612f7457612f736128ac565b5b92915050565b6000612f8582612296565b91507fffffffffffffffffffffffffffffffffffffffffffffffffffffffffffffffff8203612fb757612fb66128ac565b5b600182019050919050565b7f5452414e534645525f4641494c45440000000000000000000000000000000000600082015250565b6000612ff8600f836122d5565b915061300382612fc2565b602082019050919050565b6000602082019050818103600083015261302781612feb565b905091905056fea2646970667358221220b4df419f479b6b5c4deb195a41e5d76ba1bcf8c2a6e2f995b9af5422dbe23e0f64736f6c63430008100033",
					"opcodes": "PUSH2 0x100 PUSH1 0x40 MSTORE PUSH1 0x0 PUSH1 0x7 SSTORE PUSH1 0x0 PUSH1 0x8 SSTORE CALLVALUE DUP1 ISZERO PUSH3 0x1C JUMPI PUSH1 0x0 DUP1 REVERT JUMPDEST POP PUSH1 0x40 MLOAD PUSH3 0x39E5 CODESIZE SUB DUP1 PUSH3 0x39E5 DUP4 CODECOPY DUP2 DUP2 ADD PUSH1 0x40 MSTORE DUP2 ADD SWAP1 PUSH3 0x42 SWAP2 SWAP1 PUSH3 0x3E0 JUMP JUMPDEST DUP4 DUP4 DUP4 DUP4 DUP3 DUP3 DUP3 DUP3 PUSH1 0x0 SWAP1 DUP2 PUSH3 0x5A SWAP2 SWAP1 PUSH3 0x6DB JUMP JUMPDEST POP DUP2 PUSH1 0x1 SWAP1 DUP2 PUSH3 0x6C SWAP2 SWAP1 PUSH3 0x6DB JUMP JUMPDEST POP DUP1 PUSH1 0xFF AND PUSH1 0x80 DUP2 PUSH1 0xFF AND DUP2 MSTORE POP POP CHAINID PUSH1 0xA0 DUP2 DUP2 MSTORE POP POP PUSH3 0x93 PUSH3 0x106 PUSH1 0x20 SHL PUSH1 0x20 SHR JUMP JUMPDEST PUSH1 0xC0 DUP2 DUP2 MSTORE POP POP POP POP POP DUP4 PUSH20 0xFFFFFFFFFFFFFFFFFFFFFFFFFFFFFFFFFFFFFFFF AND PUSH1 0xE0 DUP2 PUSH20 0xFFFFFFFFFFFFFFFFFFFFFFFFFFFFFFFFFFFFFFFF AND DUP2 MSTORE POP POP POP POP POP POP PUSH32 0xFFFFFFFFFFFFFFFFFFFFFFFFFFFFFFFFFFFFFFFFFFFFFFFFFFFFFFFFFFFFFFFF PUSH1 0x2 DUP2 SWAP1 SSTORE POP POP POP POP POP PUSH3 0x924 JUMP JUMPDEST PUSH1 0x0 PUSH32 0x8B73C3C69BB8FE3D512ECC4CF759CC79239F7B179B0FFACAA9A75D522B39400F PUSH1 0x0 PUSH1 0x40 MLOAD PUSH3 0x13A SWAP2 SWAP1 PUSH3 0x871 JUMP JUMPDEST PUSH1 0x40 MLOAD DUP1 SWAP2 SUB SWAP1 KECCAK256 PUSH32 0xC89EFDAA54C0F20C7ADF612882DF0950F5A951637E0307CDCB4C672F298B8BC6 CHAINID ADDRESS PUSH1 0x40 MLOAD PUSH1 0x20 ADD PUSH3 0x17B SWAP6 SWAP5 SWAP4 SWAP3 SWAP2 SWAP1 PUSH3 0x8C7 JUMP JUMPDEST PUSH1 0x40 MLOAD PUSH1 0x20 DUP2 DUP4 SUB SUB DUP2 MSTORE SWAP1 PUSH1 0x40 MSTORE DUP1 MLOAD SWAP1 PUSH1 0x20 ADD KECCAK256 SWAP1 POP SWAP1 JUMP JUMPDEST PUSH1 0x0 PUSH1 0x40 MLOAD SWAP1 POP SWAP1 JUMP JUMPDEST PUSH1 0x0 DUP1 REVERT JUMPDEST PUSH1 0x0 DUP1 REVERT JUMPDEST PUSH1 0x0 PUSH20 0xFFFFFFFFFFFFFFFFFFFFFFFFFFFFFFFFFFFFFFFF DUP3 AND SWAP1 POP SWAP2 SWAP1 POP JUMP JUMPDEST PUSH1 0x0 PUSH3 0x1D7 DUP3 PUSH3 0x1AA JUMP JUMPDEST SWAP1 POP SWAP2 SWAP1 POP JUMP JUMPDEST PUSH1 0x0 PUSH3 0x1EB DUP3 PUSH3 0x1CA JUMP JUMPDEST SWAP1 POP SWAP2 SWAP1 POP JUMP JUMPDEST PUSH3 0x1FD DUP2 PUSH3 0x1DE JUMP JUMPDEST DUP2 EQ PUSH3 0x209 JUMPI PUSH1 0x0 DUP1 REVERT JUMPDEST POP JUMP JUMPDEST PUSH1 0x0 DUP2 MLOAD SWAP1 POP PUSH3 0x21D DUP2 PUSH3 0x1F2 JUMP JUMPDEST SWAP3 SWAP2 POP POP JUMP JUMPDEST PUSH1 0x0 DUP1 REVERT JUMPDEST PUSH1 0x0 DUP1 REVERT JUMPDEST PUSH1 0x0 PUSH1 0x1F NOT PUSH1 0x1F DUP4 ADD AND SWAP1 POP SWAP2 SWAP1 POP JUMP JUMPDEST PUSH32 0x4E487B7100000000000000000000000000000000000000000000000000000000 PUSH1 0x0 MSTORE PUSH1 0x41 PUSH1 0x4 MSTORE PUSH1 0x24 PUSH1 0x0 REVERT JUMPDEST PUSH3 0x278 DUP3 PUSH3 0x22D JUMP JUMPDEST DUP2 ADD DUP2 DUP2 LT PUSH8 0xFFFFFFFFFFFFFFFF DUP3 GT OR ISZERO PUSH3 0x29A JUMPI PUSH3 0x299 PUSH3 0x23E JUMP JUMPDEST JUMPDEST DUP1 PUSH1 0x40 MSTORE POP POP POP JUMP JUMPDEST PUSH1 0x0 PUSH3 0x2AF PUSH3 0x196 JUMP JUMPDEST SWAP1 POP PUSH3 0x2BD DUP3 DUP3 PUSH3 0x26D JUMP JUMPDEST SWAP2 SWAP1 POP JUMP JUMPDEST PUSH1 0x0 PUSH8 0xFFFFFFFFFFFFFFFF DUP3 GT ISZERO PUSH3 0x2E0 JUMPI PUSH3 0x2DF PUSH3 0x23E JUMP JUMPDEST JUMPDEST PUSH3 0x2EB DUP3 PUSH3 0x22D JUMP JUMPDEST SWAP1 POP PUSH1 0x20 DUP2 ADD SWAP1 POP SWAP2 SWAP1 POP JUMP JUMPDEST PUSH1 0x0 JUMPDEST DUP4 DUP2 LT ISZERO PUSH3 0x318 JUMPI DUP1 DUP3 ADD MLOAD DUP2 DUP5 ADD MSTORE PUSH1 0x20 DUP2 ADD SWAP1 POP PUSH3 0x2FB JUMP JUMPDEST PUSH1 0x0 DUP5 DUP5 ADD MSTORE POP POP POP POP JUMP JUMPDEST PUSH1 0x0 PUSH3 0x33B PUSH3 0x335 DUP5 PUSH3 0x2C2 JUMP JUMPDEST PUSH3 0x2A3 JUMP JUMPDEST SWAP1 POP DUP3 DUP2 MSTORE PUSH1 0x20 DUP2 ADD DUP5 DUP5 DUP5 ADD GT ISZERO PUSH3 0x35A JUMPI PUSH3 0x359 PUSH3 0x228 JUMP JUMPDEST JUMPDEST PUSH3 0x367 DUP5 DUP3 DUP6 PUSH3 0x2F8 JUMP JUMPDEST POP SWAP4 SWAP3 POP POP POP JUMP JUMPDEST PUSH1 0x0 DUP3 PUSH1 0x1F DUP4 ADD SLT PUSH3 0x387 JUMPI PUSH3 0x386 PUSH3 0x223 JUMP JUMPDEST JUMPDEST DUP2 MLOAD PUSH3 0x399 DUP5 DUP3 PUSH1 0x20 DUP7 ADD PUSH3 0x324 JUMP JUMPDEST SWAP2 POP POP SWAP3 SWAP2 POP POP JUMP JUMPDEST PUSH1 0x0 PUSH1 0xFF DUP3 AND SWAP1 POP SWAP2 SWAP1 POP JUMP JUMPDEST PUSH3 0x3BA DUP2 PUSH3 0x3A2 JUMP JUMPDEST DUP2 EQ PUSH3 0x3C6 JUMPI PUSH1 0x0 DUP1 REVERT JUMPDEST POP JUMP JUMPDEST PUSH1 0x0 DUP2 MLOAD SWAP1 POP PUSH3 0x3DA DUP2 PUSH3 0x3AF JUMP JUMPDEST SWAP3 SWAP2 POP POP JUMP JUMPDEST PUSH1 0x0 DUP1 PUSH1 0x0 DUP1 PUSH1 0x80 DUP6 DUP8 SUB SLT ISZERO PUSH3 0x3FD JUMPI PUSH3 0x3FC PUSH3 0x1A0 JUMP JUMPDEST JUMPDEST PUSH1 0x0 PUSH3 0x40D DUP8 DUP3 DUP9 ADD PUSH3 0x20C JUMP JUMPDEST SWAP5 POP POP PUSH1 0x20 DUP6 ADD MLOAD PUSH8 0xFFFFFFFFFFFFFFFF DUP2 GT ISZERO PUSH3 0x431 JUMPI PUSH3 0x430 PUSH3 0x1A5 JUMP JUMPDEST JUMPDEST PUSH3 0x43F DUP8 DUP3 DUP9 ADD PUSH3 0x36F JUMP JUMPDEST SWAP4 POP POP PUSH1 0x40 DUP6 ADD MLOAD PUSH8 0xFFFFFFFFFFFFFFFF DUP2 GT ISZERO PUSH3 0x463 JUMPI PUSH3 0x462 PUSH3 0x1A5 JUMP JUMPDEST JUMPDEST PUSH3 0x471 DUP8 DUP3 DUP9 ADD PUSH3 0x36F JUMP JUMPDEST SWAP3 POP POP PUSH1 0x60 PUSH3 0x484 DUP8 DUP3 DUP9 ADD PUSH3 0x3C9 JUMP JUMPDEST SWAP2 POP POP SWAP3 SWAP6 SWAP2 SWAP5 POP SWAP3 POP JUMP JUMPDEST PUSH1 0x0 DUP2 MLOAD SWAP1 POP SWAP2 SWAP1 POP JUMP JUMPDEST PUSH32 0x4E487B7100000000000000000000000000000000000000000000000000000000 PUSH1 0x0 MSTORE PUSH1 0x22 PUSH1 0x4 MSTORE PUSH1 0x24 PUSH1 0x0 REVERT JUMPDEST PUSH1 0x0 PUSH1 0x2 DUP3 DIV SWAP1 POP PUSH1 0x1 DUP3 AND DUP1 PUSH3 0x4E3 JUMPI PUSH1 0x7F DUP3 AND SWAP2 POP JUMPDEST PUSH1 0x20 DUP3 LT DUP2 SUB PUSH3 0x4F9 JUMPI PUSH3 0x4F8 PUSH3 0x49B JUMP JUMPDEST JUMPDEST POP SWAP2 SWAP1 POP JUMP JUMPDEST PUSH1 0x0 DUP2 SWAP1 POP DUP2 PUSH1 0x0 MSTORE PUSH1 0x20 PUSH1 0x0 KECCAK256 SWAP1 POP SWAP2 SWAP1 POP JUMP JUMPDEST PUSH1 0x0 PUSH1 0x20 PUSH1 0x1F DUP4 ADD DIV SWAP1 POP SWAP2 SWAP1 POP JUMP JUMPDEST PUSH1 0x0 DUP3 DUP3 SHL SWAP1 POP SWAP3 SWAP2 POP POP JUMP JUMPDEST PUSH1 0x0 PUSH1 0x8 DUP4 MUL PUSH3 0x563 PUSH32 0xFFFFFFFFFFFFFFFFFFFFFFFFFFFFFFFFFFFFFFFFFFFFFFFFFFFFFFFFFFFFFFFF DUP3 PUSH3 0x524 JUMP JUMPDEST PUSH3 0x56F DUP7 DUP4 PUSH3 0x524 JUMP JUMPDEST SWAP6 POP DUP1 NOT DUP5 AND SWAP4 POP DUP1 DUP7 AND DUP5 OR SWAP3 POP POP POP SWAP4 SWAP3 POP POP POP JUMP JUMPDEST PUSH1 0x0 DUP2 SWAP1 POP SWAP2 SWAP1 POP JUMP JUMPDEST PUSH1 0x0 DUP2 SWAP1 POP SWAP2 SWAP1 POP JUMP JUMPDEST PUSH1 0x0 PUSH3 0x5BC PUSH3 0x5B6 PUSH3 0x5B0 DUP5 PUSH3 0x587 JUMP JUMPDEST PUSH3 0x591 JUMP JUMPDEST PUSH3 0x587 JUMP JUMPDEST SWAP1 POP SWAP2 SWAP1 POP JUMP JUMPDEST PUSH1 0x0 DUP2 SWAP1 POP SWAP2 SWAP1 POP JUMP JUMPDEST PUSH3 0x5D8 DUP4 PUSH3 0x59B JUMP JUMPDEST PUSH3 0x5F0 PUSH3 0x5E7 DUP3 PUSH3 0x5C3 JUMP JUMPDEST DUP5 DUP5 SLOAD PUSH3 0x531 JUMP JUMPDEST DUP3 SSTORE POP POP POP POP JUMP JUMPDEST PUSH1 0x0 SWAP1 JUMP JUMPDEST PUSH3 0x607 PUSH3 0x5F8 JUMP JUMPDEST PUSH3 0x614 DUP2 DUP5 DUP5 PUSH3 0x5CD JUMP JUMPDEST POP POP POP JUMP JUMPDEST JUMPDEST DUP2 DUP2 LT ISZERO PUSH3 0x63C JUMPI PUSH3 0x630 PUSH1 0x0 DUP3 PUSH3 0x5FD JUMP JUMPDEST PUSH1 0x1 DUP2 ADD SWAP1 POP PUSH3 0x61A JUMP JUMPDEST POP POP JUMP JUMPDEST PUSH1 0x1F DUP3 GT ISZERO PUSH3 0x68B JUMPI PUSH3 0x655 DUP2 PUSH3 0x4FF JUMP JUMPDEST PUSH3 0x660 DUP5 PUSH3 0x514 JUMP JUMPDEST DUP2 ADD PUSH1 0x20 DUP6 LT ISZERO PUSH3 0x670 JUMPI DUP2 SWAP1 POP JUMPDEST PUSH3 0x688 PUSH3 0x67F DUP6 PUSH3 0x514 JUMP JUMPDEST DUP4 ADD DUP3 PUSH3 0x619 JUMP JUMPDEST POP POP JUMPDEST POP POP POP JUMP JUMPDEST PUSH1 0x0 DUP3 DUP3 SHR SWAP1 POP SWAP3 SWAP2 POP POP JUMP JUMPDEST PUSH1 0x0 PUSH3 0x6B0 PUSH1 0x0 NOT DUP5 PUSH1 0x8 MUL PUSH3 0x690 JUMP JUMPDEST NOT DUP1 DUP4 AND SWAP2 POP POP SWAP3 SWAP2 POP POP JUMP JUMPDEST PUSH1 0x0 PUSH3 0x6CB DUP4 DUP4 PUSH3 0x69D JUMP JUMPDEST SWAP2 POP DUP3 PUSH1 0x2 MUL DUP3 OR SWAP1 POP SWAP3 SWAP2 POP POP JUMP JUMPDEST PUSH3 0x6E6 DUP3 PUSH3 0x490 JUMP JUMPDEST PUSH8 0xFFFFFFFFFFFFFFFF DUP2 GT ISZERO PUSH3 0x702 JUMPI PUSH3 0x701 PUSH3 0x23E JUMP JUMPDEST JUMPDEST PUSH3 0x70E DUP3 SLOAD PUSH3 0x4CA JUMP JUMPDEST PUSH3 0x71B DUP3 DUP3 DUP6 PUSH3 0x640 JUMP JUMPDEST PUSH1 0x0 PUSH1 0x20 SWAP1 POP PUSH1 0x1F DUP4 GT PUSH1 0x1 DUP2 EQ PUSH3 0x753 JUMPI PUSH1 0x0 DUP5 ISZERO PUSH3 0x73E JUMPI DUP3 DUP8 ADD MLOAD SWAP1 POP JUMPDEST PUSH3 0x74A DUP6 DUP3 PUSH3 0x6BD JUMP JUMPDEST DUP7 SSTORE POP PUSH3 0x7BA JUMP JUMPDEST PUSH1 0x1F NOT DUP5 AND PUSH3 0x763 DUP7 PUSH3 0x4FF JUMP JUMPDEST PUSH1 0x0 JUMPDEST DUP3 DUP2 LT ISZERO PUSH3 0x78D JUMPI DUP5 DUP10 ADD MLOAD DUP3 SSTORE PUSH1 0x1 DUP3 ADD SWAP2 POP PUSH1 0x20 DUP6 ADD SWAP5 POP PUSH1 0x20 DUP2 ADD SWAP1 POP PUSH3 0x766 JUMP JUMPDEST DUP7 DUP4 LT ISZERO PUSH3 0x7AD JUMPI DUP5 DUP10 ADD MLOAD PUSH3 0x7A9 PUSH1 0x1F DUP10 AND DUP3 PUSH3 0x69D JUMP JUMPDEST DUP4 SSTORE POP JUMPDEST PUSH1 0x1 PUSH1 0x2 DUP9 MUL ADD DUP9 SSTORE POP POP POP JUMPDEST POP POP POP POP POP POP JUMP JUMPDEST PUSH1 0x0 DUP2 SWAP1 POP SWAP3 SWAP2 POP POP JUMP JUMPDEST PUSH1 0x0 DUP2 SWAP1 POP DUP2 PUSH1 0x0 MSTORE PUSH1 0x20 PUSH1 0x0 KECCAK256 SWAP1 POP SWAP2 SWAP1 POP JUMP JUMPDEST PUSH1 0x0 DUP2 SLOAD PUSH3 0x7F1 DUP2 PUSH3 0x4CA JUMP JUMPDEST PUSH3 0x7FD DUP2 DUP7 PUSH3 0x7C2 JUMP JUMPDEST SWAP5 POP PUSH1 0x1 DUP3 AND PUSH1 0x0 DUP2 EQ PUSH3 0x81B JUMPI PUSH1 0x1 DUP2 EQ PUSH3 0x831 JUMPI PUSH3 0x868 JUMP JUMPDEST PUSH1 0xFF NOT DUP4 AND DUP7 MSTORE DUP2 ISZERO ISZERO DUP3 MUL DUP7 ADD SWAP4 POP PUSH3 0x868 JUMP JUMPDEST PUSH3 0x83C DUP6 PUSH3 0x7CD JUMP JUMPDEST PUSH1 0x0 JUMPDEST DUP4 DUP2 LT ISZERO PUSH3 0x860 JUMPI DUP2 SLOAD DUP2 DUP10 ADD MSTORE PUSH1 0x1 DUP3 ADD SWAP2 POP PUSH1 0x20 DUP2 ADD SWAP1 POP PUSH3 0x83F JUMP JUMPDEST DUP4 DUP9 ADD SWAP6 POP POP POP JUMPDEST POP POP POP SWAP3 SWAP2 POP POP JUMP JUMPDEST PUSH1 0x0 PUSH3 0x87F DUP3 DUP5 PUSH3 0x7E2 JUMP JUMPDEST SWAP2 POP DUP2 SWAP1 POP SWAP3 SWAP2 POP POP JUMP JUMPDEST PUSH1 0x0 DUP2 SWAP1 POP SWAP2 SWAP1 POP JUMP JUMPDEST PUSH3 0x89F DUP2 PUSH3 0x88A JUMP JUMPDEST DUP3 MSTORE POP POP JUMP JUMPDEST PUSH3 0x8B0 DUP2 PUSH3 0x587 JUMP JUMPDEST DUP3 MSTORE POP POP JUMP JUMPDEST PUSH3 0x8C1 DUP2 PUSH3 0x1CA JUMP JUMPDEST DUP3 MSTORE POP POP JUMP JUMPDEST PUSH1 0x0 PUSH1 0xA0 DUP3 ADD SWAP1 POP PUSH3 0x8DE PUSH1 0x0 DUP4 ADD DUP9 PUSH3 0x894 JUMP JUMPDEST PUSH3 0x8ED PUSH1 0x20 DUP4 ADD DUP8 PUSH3 0x894 JUMP JUMPDEST PUSH3 0x8FC PUSH1 0x40 DUP4 ADD DUP7 PUSH3 0x894 JUMP JUMPDEST PUSH3 0x90B PUSH1 0x60 DUP4 ADD DUP6 PUSH3 0x8A5 JUMP JUMPDEST PUSH3 0x91A PUSH1 0x80 DUP4 ADD DUP5 PUSH3 0x8B6 JUMP JUMPDEST SWAP7 SWAP6 POP POP POP POP POP POP JUMP JUMPDEST PUSH1 0x80 MLOAD PUSH1 0xA0 MLOAD PUSH1 0xC0 MLOAD PUSH1 0xE0 MLOAD PUSH2 0x3064 PUSH3 0x981 PUSH1 0x0 CODECOPY PUSH1 0x0 DUP2 DUP2 PUSH2 0x782 ADD MSTORE DUP2 DUP2 PUSH2 0xCE8 ADD MSTORE DUP2 DUP2 PUSH2 0xDC7 ADD MSTORE DUP2 DUP2 PUSH2 0x1126 ADD MSTORE DUP2 DUP2 PUSH2 0x15D9 ADD MSTORE PUSH2 0x1877 ADD MSTORE PUSH1 0x0 PUSH2 0xCC1 ADD MSTORE PUSH1 0x0 PUSH2 0xC8D ADD MSTORE PUSH1 0x0 PUSH2 0xC67 ADD MSTORE PUSH2 0x3064 PUSH1 0x0 RETURN INVALID PUSH1 0x80 PUSH1 0x40 MSTORE CALLVALUE DUP1 ISZERO PUSH2 0x10 JUMPI PUSH1 0x0 DUP1 REVERT JUMPDEST POP PUSH1 0x4 CALLDATASIZE LT PUSH2 0x211 JUMPI PUSH1 0x0 CALLDATALOAD PUSH1 0xE0 SHR DUP1 PUSH4 0x7ECEBE00 GT PUSH2 0x125 JUMPI DUP1 PUSH4 0xC63D75B6 GT PUSH2 0xAD JUMPI DUP1 PUSH4 0xD905777E GT PUSH2 0x7C JUMPI DUP1 PUSH4 0xD905777E EQ PUSH2 0x6B4 JUMPI DUP1 PUSH4 0xDD62ED3E EQ PUSH2 0x6E4 JUMPI DUP1 PUSH4 0xEF8B30F7 EQ PUSH2 0x714 JUMPI DUP1 PUSH4 0xF2FDE38B EQ PUSH2 0x744 JUMPI DUP1 PUSH4 0xFC407AE7 EQ PUSH2 0x760 JUMPI PUSH2 0x211 JUMP JUMPDEST DUP1 PUSH4 0xC63D75B6 EQ PUSH2 0x608 JUMPI DUP1 PUSH4 0xC6E6F592 EQ PUSH2 0x638 JUMPI DUP1 PUSH4 0xCE96CB77 EQ PUSH2 0x668 JUMPI DUP1 PUSH4 0xD505ACCF EQ PUSH2 0x698 JUMPI PUSH2 0x211 JUMP JUMPDEST DUP1 PUSH4 0xA9059CBB GT PUSH2 0xF4 JUMPI DUP1 PUSH4 0xA9059CBB EQ PUSH2 0x52A JUMPI DUP1 PUSH4 0xB3D7F6B9 EQ PUSH2 0x55A JUMPI DUP1 PUSH4 0xB460AF94 EQ PUSH2 0x58A JUMPI DUP1 PUSH4 0xBA087652 EQ PUSH2 0x5BA JUMPI DUP1 PUSH4 0xBC368A8A EQ PUSH2 0x5EA JUMPI PUSH2 0x211 JUMP JUMPDEST DUP1 PUSH4 0x7ECEBE00 EQ PUSH2 0x48E JUMPI DUP1 PUSH4 0x7FD6F15C EQ PUSH2 0x4BE JUMPI DUP1 PUSH4 0x94BF804D EQ PUSH2 0x4DC JUMPI DUP1 PUSH4 0x95D89B41 EQ PUSH2 0x50C JUMPI PUSH2 0x211 JUMP JUMPDEST DUP1 PUSH4 0x3644E515 GT PUSH2 0x1A8 JUMPI DUP1 PUSH4 0x4CDAD506 GT PUSH2 0x177 JUMPI DUP1 PUSH4 0x4CDAD506 EQ PUSH2 0x3D8 JUMPI DUP1 PUSH4 0x6E553F65 EQ PUSH2 0x408 JUMPI DUP1 PUSH4 0x70A08231 EQ PUSH2 0x438 JUMPI DUP1 PUSH4 0x715018A6 EQ PUSH2 0x468 JUMPI DUP1 PUSH4 0x7CE3489B EQ PUSH2 0x472 JUMPI PUSH2 0x211 JUMP JUMPDEST DUP1 PUSH4 0x3644E515 EQ PUSH2 0x34E JUMPI DUP1 PUSH4 0x38D52E0F EQ PUSH2 0x36C JUMPI DUP1 PUSH4 0x402D267D EQ PUSH2 0x38A JUMPI DUP1 PUSH4 0x481C6A75 EQ PUSH2 0x3BA JUMPI PUSH2 0x211 JUMP JUMPDEST DUP1 PUSH4 0xA28A477 GT PUSH2 0x1E4 JUMPI DUP1 PUSH4 0xA28A477 EQ PUSH2 0x2B2 JUMPI DUP1 PUSH4 0x18160DDD EQ PUSH2 0x2E2 JUMPI DUP1 PUSH4 0x23B872DD EQ PUSH2 0x300 JUMPI DUP1 PUSH4 0x313CE567 EQ PUSH2 0x330 JUMPI PUSH2 0x211 JUMP JUMPDEST DUP1 PUSH4 0x1E1D114 EQ PUSH2 0x216 JUMPI DUP1 PUSH4 0x6FDDE03 EQ PUSH2 0x234 JUMPI DUP1 PUSH4 0x7A2D13A EQ PUSH2 0x252 JUMPI DUP1 PUSH4 0x95EA7B3 EQ PUSH2 0x282 JUMPI JUMPDEST PUSH1 0x0 DUP1 REVERT JUMPDEST PUSH2 0x21E PUSH2 0x77E JUMP JUMPDEST PUSH1 0x40 MLOAD PUSH2 0x22B SWAP2 SWAP1 PUSH2 0x22AF JUMP JUMPDEST PUSH1 0x40 MLOAD DUP1 SWAP2 SUB SWAP1 RETURN JUMPDEST PUSH2 0x23C PUSH2 0x81F JUMP JUMPDEST PUSH1 0x40 MLOAD PUSH2 0x249 SWAP2 SWAP1 PUSH2 0x235A JUMP JUMPDEST PUSH1 0x40 MLOAD DUP1 SWAP2 SUB SWAP1 RETURN JUMPDEST PUSH2 0x26C PUSH1 0x4 DUP1 CALLDATASIZE SUB DUP2 ADD SWAP1 PUSH2 0x267 SWAP2 SWAP1 PUSH2 0x23AD JUMP JUMPDEST PUSH2 0x8AD JUMP JUMPDEST PUSH1 0x40 MLOAD PUSH2 0x279 SWAP2 SWAP1 PUSH2 0x22AF JUMP JUMPDEST PUSH1 0x40 MLOAD DUP1 SWAP2 SUB SWAP1 RETURN JUMPDEST PUSH2 0x29C PUSH1 0x4 DUP1 CALLDATASIZE SUB DUP2 ADD SWAP1 PUSH2 0x297 SWAP2 SWAP1 PUSH2 0x2438 JUMP JUMPDEST PUSH2 0x8E8 JUMP JUMPDEST PUSH1 0x40 MLOAD PUSH2 0x2A9 SWAP2 SWAP1 PUSH2 0x2493 JUMP JUMPDEST PUSH1 0x40 MLOAD DUP1 SWAP2 SUB SWAP1 RETURN JUMPDEST PUSH2 0x2CC PUSH1 0x4 DUP1 CALLDATASIZE SUB DUP2 ADD SWAP1 PUSH2 0x2C7 SWAP2 SWAP1 PUSH2 0x23AD JUMP JUMPDEST PUSH2 0x9DA JUMP JUMPDEST PUSH1 0x40 MLOAD PUSH2 0x2D9 SWAP2 SWAP1 PUSH2 0x22AF JUMP JUMPDEST PUSH1 0x40 MLOAD DUP1 SWAP2 SUB SWAP1 RETURN JUMPDEST PUSH2 0x2EA PUSH2 0xA15 JUMP JUMPDEST PUSH1 0x40 MLOAD PUSH2 0x2F7 SWAP2 SWAP1 PUSH2 0x22AF JUMP JUMPDEST PUSH1 0x40 MLOAD DUP1 SWAP2 SUB SWAP1 RETURN JUMPDEST PUSH2 0x31A PUSH1 0x4 DUP1 CALLDATASIZE SUB DUP2 ADD SWAP1 PUSH2 0x315 SWAP2 SWAP1 PUSH2 0x24AE JUMP JUMPDEST PUSH2 0xA1B JUMP JUMPDEST PUSH1 0x40 MLOAD PUSH2 0x327 SWAP2 SWAP1 PUSH2 0x2493 JUMP JUMPDEST PUSH1 0x40 MLOAD DUP1 SWAP2 SUB SWAP1 RETURN JUMPDEST PUSH2 0x338 PUSH2 0xC65 JUMP JUMPDEST PUSH1 0x40 MLOAD PUSH2 0x345 SWAP2 SWAP1 PUSH2 0x251D JUMP JUMPDEST PUSH1 0x40 MLOAD DUP1 SWAP2 SUB SWAP1 RETURN JUMPDEST PUSH2 0x356 PUSH2 0xC89 JUMP JUMPDEST PUSH1 0x40 MLOAD PUSH2 0x363 SWAP2 SWAP1 PUSH2 0x2551 JUMP JUMPDEST PUSH1 0x40 MLOAD DUP1 SWAP2 SUB SWAP1 RETURN JUMPDEST PUSH2 0x374 PUSH2 0xCE6 JUMP JUMPDEST PUSH1 0x40 MLOAD PUSH2 0x381 SWAP2 SWAP1 PUSH2 0x25CB JUMP JUMPDEST PUSH1 0x40 MLOAD DUP1 SWAP2 SUB SWAP1 RETURN JUMPDEST PUSH2 0x3A4 PUSH1 0x4 DUP1 CALLDATASIZE SUB DUP2 ADD SWAP1 PUSH2 0x39F SWAP2 SWAP1 PUSH2 0x25E6 JUMP JUMPDEST PUSH2 0xD0A JUMP JUMPDEST PUSH1 0x40 MLOAD PUSH2 0x3B1 SWAP2 SWAP1 PUSH2 0x22AF JUMP JUMPDEST PUSH1 0x40 MLOAD DUP1 SWAP2 SUB SWAP1 RETURN JUMPDEST PUSH2 0x3C2 PUSH2 0xD34 JUMP JUMPDEST PUSH1 0x40 MLOAD PUSH2 0x3CF SWAP2 SWAP1 PUSH2 0x2622 JUMP JUMPDEST PUSH1 0x40 MLOAD DUP1 SWAP2 SUB SWAP1 RETURN JUMPDEST PUSH2 0x3F2 PUSH1 0x4 DUP1 CALLDATASIZE SUB DUP2 ADD SWAP1 PUSH2 0x3ED SWAP2 SWAP1 PUSH2 0x23AD JUMP JUMPDEST PUSH2 0xD5E JUMP JUMPDEST PUSH1 0x40 MLOAD PUSH2 0x3FF SWAP2 SWAP1 PUSH2 0x22AF JUMP JUMPDEST PUSH1 0x40 MLOAD DUP1 SWAP2 SUB SWAP1 RETURN JUMPDEST PUSH2 0x422 PUSH1 0x4 DUP1 CALLDATASIZE SUB DUP2 ADD SWAP1 PUSH2 0x41D SWAP2 SWAP1 PUSH2 0x263D JUMP JUMPDEST PUSH2 0xD70 JUMP JUMPDEST PUSH1 0x40 MLOAD PUSH2 0x42F SWAP2 SWAP1 PUSH2 0x22AF JUMP JUMPDEST PUSH1 0x40 MLOAD DUP1 SWAP2 SUB SWAP1 RETURN JUMPDEST PUSH2 0x452 PUSH1 0x4 DUP1 CALLDATASIZE SUB DUP2 ADD SWAP1 PUSH2 0x44D SWAP2 SWAP1 PUSH2 0x25E6 JUMP JUMPDEST PUSH2 0xE8D JUMP JUMPDEST PUSH1 0x40 MLOAD PUSH2 0x45F SWAP2 SWAP1 PUSH2 0x22AF JUMP JUMPDEST PUSH1 0x40 MLOAD DUP1 SWAP2 SUB SWAP1 RETURN JUMPDEST PUSH2 0x470 PUSH2 0xEA5 JUMP JUMPDEST STOP JUMPDEST PUSH2 0x48C PUSH1 0x4 DUP1 CALLDATASIZE SUB DUP2 ADD SWAP1 PUSH2 0x487 SWAP2 SWAP1 PUSH2 0x23AD JUMP JUMPDEST PUSH2 0xFDB JUMP JUMPDEST STOP JUMPDEST PUSH2 0x4A8 PUSH1 0x4 DUP1 CALLDATASIZE SUB DUP2 ADD SWAP1 PUSH2 0x4A3 SWAP2 SWAP1 PUSH2 0x25E6 JUMP JUMPDEST PUSH2 0x10F3 JUMP JUMPDEST PUSH1 0x40 MLOAD PUSH2 0x4B5 SWAP2 SWAP1 PUSH2 0x22AF JUMP JUMPDEST PUSH1 0x40 MLOAD DUP1 SWAP2 SUB SWAP1 RETURN JUMPDEST PUSH2 0x4C6 PUSH2 0x110B JUMP JUMPDEST PUSH1 0x40 MLOAD PUSH2 0x4D3 SWAP2 SWAP1 PUSH2 0x22AF JUMP JUMPDEST PUSH1 0x40 MLOAD DUP1 SWAP2 SUB SWAP1 RETURN JUMPDEST PUSH2 0x4F6 PUSH1 0x4 DUP1 CALLDATASIZE SUB DUP2 ADD SWAP1 PUSH2 0x4F1 SWAP2 SWAP1 PUSH2 0x263D JUMP JUMPDEST PUSH2 0x1111 JUMP JUMPDEST PUSH1 0x40 MLOAD PUSH2 0x503 SWAP2 SWAP1 PUSH2 0x22AF JUMP JUMPDEST PUSH1 0x40 MLOAD DUP1 SWAP2 SUB SWAP1 RETURN JUMPDEST PUSH2 0x514 PUSH2 0x11EC JUMP JUMPDEST PUSH1 0x40 MLOAD PUSH2 0x521 SWAP2 SWAP1 PUSH2 0x235A JUMP JUMPDEST PUSH1 0x40 MLOAD DUP1 SWAP2 SUB SWAP1 RETURN JUMPDEST PUSH2 0x544 PUSH1 0x4 DUP1 CALLDATASIZE SUB DUP2 ADD SWAP1 PUSH2 0x53F SWAP2 SWAP1 PUSH2 0x2438 JUMP JUMPDEST PUSH2 0x127A JUMP JUMPDEST PUSH1 0x40 MLOAD PUSH2 0x551 SWAP2 SWAP1 PUSH2 0x2493 JUMP JUMPDEST PUSH1 0x40 MLOAD DUP1 SWAP2 SUB SWAP1 RETURN JUMPDEST PUSH2 0x574 PUSH1 0x4 DUP1 CALLDATASIZE SUB DUP2 ADD SWAP1 PUSH2 0x56F SWAP2 SWAP1 PUSH2 0x23AD JUMP JUMPDEST PUSH2 0x138E JUMP JUMPDEST PUSH1 0x40 MLOAD PUSH2 0x581 SWAP2 SWAP1 PUSH2 0x22AF JUMP JUMPDEST PUSH1 0x40 MLOAD DUP1 SWAP2 SUB SWAP1 RETURN JUMPDEST PUSH2 0x5A4 PUSH1 0x4 DUP1 CALLDATASIZE SUB DUP2 ADD SWAP1 PUSH2 0x59F SWAP2 SWAP1 PUSH2 0x267D JUMP JUMPDEST PUSH2 0x13C9 JUMP JUMPDEST PUSH1 0x40 MLOAD PUSH2 0x5B1 SWAP2 SWAP1 PUSH2 0x22AF JUMP JUMPDEST PUSH1 0x40 MLOAD DUP1 SWAP2 SUB SWAP1 RETURN JUMPDEST PUSH2 0x5D4 PUSH1 0x4 DUP1 CALLDATASIZE SUB DUP2 ADD SWAP1 PUSH2 0x5CF SWAP2 SWAP1 PUSH2 0x267D JUMP JUMPDEST PUSH2 0x1624 JUMP JUMPDEST PUSH1 0x40 MLOAD PUSH2 0x5E1 SWAP2 SWAP1 PUSH2 0x22AF JUMP JUMPDEST PUSH1 0x40 MLOAD DUP1 SWAP2 SUB SWAP1 RETURN JUMPDEST PUSH2 0x5F2 PUSH2 0x18C2 JUMP JUMPDEST PUSH1 0x40 MLOAD PUSH2 0x5FF SWAP2 SWAP1 PUSH2 0x22AF JUMP JUMPDEST PUSH1 0x40 MLOAD DUP1 SWAP2 SUB SWAP1 RETURN JUMPDEST PUSH2 0x622 PUSH1 0x4 DUP1 CALLDATASIZE SUB DUP2 ADD SWAP1 PUSH2 0x61D SWAP2 SWAP1 PUSH2 0x25E6 JUMP JUMPDEST PUSH2 0x18C8 JUMP JUMPDEST PUSH1 0x40 MLOAD PUSH2 0x62F SWAP2 SWAP1 PUSH2 0x22AF JUMP JUMPDEST PUSH1 0x40 MLOAD DUP1 SWAP2 SUB SWAP1 RETURN JUMPDEST PUSH2 0x652 PUSH1 0x4 DUP1 CALLDATASIZE SUB DUP2 ADD SWAP1 PUSH2 0x64D SWAP2 SWAP1 PUSH2 0x23AD JUMP JUMPDEST PUSH2 0x18F2 JUMP JUMPDEST PUSH1 0x40 MLOAD PUSH2 0x65F SWAP2 SWAP1 PUSH2 0x22AF JUMP JUMPDEST PUSH1 0x40 MLOAD DUP1 SWAP2 SUB SWAP1 RETURN JUMPDEST PUSH2 0x682 PUSH1 0x4 DUP1 CALLDATASIZE SUB DUP2 ADD SWAP1 PUSH2 0x67D SWAP2 SWAP1 PUSH2 0x25E6 JUMP JUMPDEST PUSH2 0x192D JUMP JUMPDEST PUSH1 0x40 MLOAD PUSH2 0x68F SWAP2 SWAP1 PUSH2 0x22AF JUMP JUMPDEST PUSH1 0x40 MLOAD DUP1 SWAP2 SUB SWAP1 RETURN JUMPDEST PUSH2 0x6B2 PUSH1 0x4 DUP1 CALLDATASIZE SUB DUP2 ADD SWAP1 PUSH2 0x6AD SWAP2 SWAP1 PUSH2 0x2728 JUMP JUMPDEST PUSH2 0x197E JUMP JUMPDEST STOP JUMPDEST PUSH2 0x6CE PUSH1 0x4 DUP1 CALLDATASIZE SUB DUP2 ADD SWAP1 PUSH2 0x6C9 SWAP2 SWAP1 PUSH2 0x25E6 JUMP JUMPDEST PUSH2 0x1C77 JUMP JUMPDEST PUSH1 0x40 MLOAD PUSH2 0x6DB SWAP2 SWAP1 PUSH2 0x22AF JUMP JUMPDEST PUSH1 0x40 MLOAD DUP1 SWAP2 SUB SWAP1 RETURN JUMPDEST PUSH2 0x6FE PUSH1 0x4 DUP1 CALLDATASIZE SUB DUP2 ADD SWAP1 PUSH2 0x6F9 SWAP2 SWAP1 PUSH2 0x27CA JUMP JUMPDEST PUSH2 0x1CC0 JUMP JUMPDEST PUSH1 0x40 MLOAD PUSH2 0x70B SWAP2 SWAP1 PUSH2 0x22AF JUMP JUMPDEST PUSH1 0x40 MLOAD DUP1 SWAP2 SUB SWAP1 RETURN JUMPDEST PUSH2 0x72E PUSH1 0x4 DUP1 CALLDATASIZE SUB DUP2 ADD SWAP1 PUSH2 0x729 SWAP2 SWAP1 PUSH2 0x23AD JUMP JUMPDEST PUSH2 0x1CE5 JUMP JUMPDEST PUSH1 0x40 MLOAD PUSH2 0x73B SWAP2 SWAP1 PUSH2 0x22AF JUMP JUMPDEST PUSH1 0x40 MLOAD DUP1 SWAP2 SUB SWAP1 RETURN JUMPDEST PUSH2 0x75E PUSH1 0x4 DUP1 CALLDATASIZE SUB DUP2 ADD SWAP1 PUSH2 0x759 SWAP2 SWAP1 PUSH2 0x25E6 JUMP JUMPDEST PUSH2 0x1CF7 JUMP JUMPDEST STOP JUMPDEST PUSH2 0x768 PUSH2 0x1E9B JUMP JUMPDEST PUSH1 0x40 MLOAD PUSH2 0x775 SWAP2 SWAP1 PUSH2 0x22AF JUMP JUMPDEST PUSH1 0x40 MLOAD DUP1 SWAP2 SUB SWAP1 RETURN JUMPDEST PUSH1 0x0 PUSH32 0x0 PUSH20 0xFFFFFFFFFFFFFFFFFFFFFFFFFFFFFFFFFFFFFFFF AND PUSH4 0x70A08231 ADDRESS PUSH1 0x40 MLOAD DUP3 PUSH4 0xFFFFFFFF AND PUSH1 0xE0 SHL DUP2 MSTORE PUSH1 0x4 ADD PUSH2 0x7D9 SWAP2 SWAP1 PUSH2 0x2622 JUMP JUMPDEST PUSH1 0x20 PUSH1 0x40 MLOAD DUP1 DUP4 SUB DUP2 DUP7 GAS STATICCALL ISZERO DUP1 ISZERO PUSH2 0x7F6 JUMPI RETURNDATASIZE PUSH1 0x0 DUP1 RETURNDATACOPY RETURNDATASIZE PUSH1 0x0 REVERT JUMPDEST POP POP POP POP PUSH1 0x40 MLOAD RETURNDATASIZE PUSH1 0x1F NOT PUSH1 0x1F DUP3 ADD AND DUP3 ADD DUP1 PUSH1 0x40 MSTORE POP DUP2 ADD SWAP1 PUSH2 0x81A SWAP2 SWAP1 PUSH2 0x281F JUMP JUMPDEST SWAP1 POP SWAP1 JUMP JUMPDEST PUSH1 0x0 DUP1 SLOAD PUSH2 0x82C SWAP1 PUSH2 0x287B JUMP JUMPDEST DUP1 PUSH1 0x1F ADD PUSH1 0x20 DUP1 SWAP2 DIV MUL PUSH1 0x20 ADD PUSH1 0x40 MLOAD SWAP1 DUP2 ADD PUSH1 0x40 MSTORE DUP1 SWAP3 SWAP2 SWAP1 DUP2 DUP2 MSTORE PUSH1 0x20 ADD DUP3 DUP1 SLOAD PUSH2 0x858 SWAP1 PUSH2 0x287B JUMP JUMPDEST DUP1 ISZERO PUSH2 0x8A5 JUMPI DUP1 PUSH1 0x1F LT PUSH2 0x87A JUMPI PUSH2 0x100 DUP1 DUP4 SLOAD DIV MUL DUP4 MSTORE SWAP2 PUSH1 0x20 ADD SWAP2 PUSH2 0x8A5 JUMP JUMPDEST DUP3 ADD SWAP2 SWAP1 PUSH1 0x0 MSTORE PUSH1 0x20 PUSH1 0x0 KECCAK256 SWAP1 JUMPDEST DUP2 SLOAD DUP2 MSTORE SWAP1 PUSH1 0x1 ADD SWAP1 PUSH1 0x20 ADD DUP1 DUP4 GT PUSH2 0x888 JUMPI DUP3 SWAP1 SUB PUSH1 0x1F AND DUP3 ADD SWAP2 JUMPDEST POP POP POP POP POP DUP2 JUMP JUMPDEST PUSH1 0x0 DUP1 PUSH1 0x2 SLOAD SWAP1 POP PUSH1 0x0 DUP2 EQ PUSH2 0x8DE JUMPI PUSH2 0x8D9 PUSH2 0x8C8 PUSH2 0x77E JUMP JUMPDEST DUP3 DUP6 PUSH2 0x1EA1 SWAP1 SWAP3 SWAP2 SWAP1 PUSH4 0xFFFFFFFF AND JUMP JUMPDEST PUSH2 0x8E0 JUMP JUMPDEST DUP3 JUMPDEST SWAP2 POP POP SWAP2 SWAP1 POP JUMP JUMPDEST PUSH1 0x0 DUP2 PUSH1 0x4 PUSH1 0x0 CALLER PUSH20 0xFFFFFFFFFFFFFFFFFFFFFFFFFFFFFFFFFFFFFFFF AND PUSH20 0xFFFFFFFFFFFFFFFFFFFFFFFFFFFFFFFFFFFFFFFF AND DUP2 MSTORE PUSH1 0x20 ADD SWAP1 DUP2 MSTORE PUSH1 0x20 ADD PUSH1 0x0 KECCAK256 PUSH1 0x0 DUP6 PUSH20 0xFFFFFFFFFFFFFFFFFFFFFFFFFFFFFFFFFFFFFFFF AND PUSH20 0xFFFFFFFFFFFFFFFFFFFFFFFFFFFFFFFFFFFFFFFF AND DUP2 MSTORE PUSH1 0x20 ADD SWAP1 DUP2 MSTORE PUSH1 0x20 ADD PUSH1 0x0 KECCAK256 DUP2 SWAP1 SSTORE POP DUP3 PUSH20 0xFFFFFFFFFFFFFFFFFFFFFFFFFFFFFFFFFFFFFFFF AND CALLER PUSH20 0xFFFFFFFFFFFFFFFFFFFFFFFFFFFFFFFFFFFFFFFF AND PUSH32 0x8C5BE1E5EBEC7D5BD14F71427D1E84F3DD0314C0F7B2291E5B200AC8C7C3B925 DUP5 PUSH1 0x40 MLOAD PUSH2 0x9C8 SWAP2 SWAP1 PUSH2 0x22AF JUMP JUMPDEST PUSH1 0x40 MLOAD DUP1 SWAP2 SUB SWAP1 LOG3 PUSH1 0x1 SWAP1 POP SWAP3 SWAP2 POP POP JUMP JUMPDEST PUSH1 0x0 DUP1 PUSH1 0x2 SLOAD SWAP1 POP PUSH1 0x0 DUP2 EQ PUSH2 0xA0B JUMPI PUSH2 0xA06 DUP2 PUSH2 0x9F6 PUSH2 0x77E JUMP JUMPDEST DUP6 PUSH2 0x1EC9 SWAP1 SWAP3 SWAP2 SWAP1 PUSH4 0xFFFFFFFF AND JUMP JUMPDEST PUSH2 0xA0D JUMP JUMPDEST DUP3 JUMPDEST SWAP2 POP POP SWAP2 SWAP1 POP JUMP JUMPDEST PUSH1 0x2 SLOAD DUP2 JUMP JUMPDEST PUSH1 0x0 DUP1 PUSH1 0x4 PUSH1 0x0 DUP7 PUSH20 0xFFFFFFFFFFFFFFFFFFFFFFFFFFFFFFFFFFFFFFFF AND PUSH20 0xFFFFFFFFFFFFFFFFFFFFFFFFFFFFFFFFFFFFFFFF AND DUP2 MSTORE PUSH1 0x20 ADD SWAP1 DUP2 MSTORE PUSH1 0x20 ADD PUSH1 0x0 KECCAK256 PUSH1 0x0 CALLER PUSH20 0xFFFFFFFFFFFFFFFFFFFFFFFFFFFFFFFFFFFFFFFF AND PUSH20 0xFFFFFFFFFFFFFFFFFFFFFFFFFFFFFFFFFFFFFFFF AND DUP2 MSTORE PUSH1 0x20 ADD SWAP1 DUP2 MSTORE PUSH1 0x20 ADD PUSH1 0x0 KECCAK256 SLOAD SWAP1 POP PUSH32 0xFFFFFFFFFFFFFFFFFFFFFFFFFFFFFFFFFFFFFFFFFFFFFFFFFFFFFFFFFFFFFFFF DUP2 EQ PUSH2 0xB51 JUMPI DUP3 DUP2 PUSH2 0xAD0 SWAP2 SWAP1 PUSH2 0x28DB JUMP JUMPDEST PUSH1 0x4 PUSH1 0x0 DUP8 PUSH20 0xFFFFFFFFFFFFFFFFFFFFFFFFFFFFFFFFFFFFFFFF AND PUSH20 0xFFFFFFFFFFFFFFFFFFFFFFFFFFFFFFFFFFFFFFFF AND DUP2 MSTORE PUSH1 0x20 ADD SWAP1 DUP2 MSTORE PUSH1 0x20 ADD PUSH1 0x0 KECCAK256 PUSH1 0x0 CALLER PUSH20 0xFFFFFFFFFFFFFFFFFFFFFFFFFFFFFFFFFFFFFFFF AND PUSH20 0xFFFFFFFFFFFFFFFFFFFFFFFFFFFFFFFFFFFFFFFF AND DUP2 MSTORE PUSH1 0x20 ADD SWAP1 DUP2 MSTORE PUSH1 0x20 ADD PUSH1 0x0 KECCAK256 DUP2 SWAP1 SSTORE POP JUMPDEST DUP3 PUSH1 0x3 PUSH1 0x0 DUP8 PUSH20 0xFFFFFFFFFFFFFFFFFFFFFFFFFFFFFFFFFFFFFFFF AND PUSH20 0xFFFFFFFFFFFFFFFFFFFFFFFFFFFFFFFFFFFFFFFF AND DUP2 MSTORE PUSH1 0x20 ADD SWAP1 DUP2 MSTORE PUSH1 0x20 ADD PUSH1 0x0 KECCAK256 PUSH1 0x0 DUP3 DUP3 SLOAD PUSH2 0xBA0 SWAP2 SWAP1 PUSH2 0x28DB JUMP JUMPDEST SWAP3 POP POP DUP2 SWAP1 SSTORE POP DUP3 PUSH1 0x3 PUSH1 0x0 DUP7 PUSH20 0xFFFFFFFFFFFFFFFFFFFFFFFFFFFFFFFFFFFFFFFF AND PUSH20 0xFFFFFFFFFFFFFFFFFFFFFFFFFFFFFFFFFFFFFFFF AND DUP2 MSTORE PUSH1 0x20 ADD SWAP1 DUP2 MSTORE PUSH1 0x20 ADD PUSH1 0x0 KECCAK256 PUSH1 0x0 DUP3 DUP3 SLOAD ADD SWAP3 POP POP DUP2 SWAP1 SSTORE POP DUP4 PUSH20 0xFFFFFFFFFFFFFFFFFFFFFFFFFFFFFFFFFFFFFFFF AND DUP6 PUSH20 0xFFFFFFFFFFFFFFFFFFFFFFFFFFFFFFFFFFFFFFFF AND PUSH32 0xDDF252AD1BE2C89B69C2B068FC378DAA952BA7F163C4A11628F55A4DF523B3EF DUP6 PUSH1 0x40 MLOAD PUSH2 0xC51 SWAP2 SWAP1 PUSH2 0x22AF JUMP JUMPDEST PUSH1 0x40 MLOAD DUP1 SWAP2 SUB SWAP1 LOG3 PUSH1 0x1 SWAP2 POP POP SWAP4 SWAP3 POP POP POP JUMP JUMPDEST PUSH32 0x0 DUP2 JUMP JUMPDEST PUSH1 0x0 PUSH32 0x0 CHAINID EQ PUSH2 0xCBF JUMPI PUSH2 0xCBA PUSH2 0x1EFB JUMP JUMPDEST PUSH2 0xCE1 JUMP JUMPDEST PUSH32 0x0 JUMPDEST SWAP1 POP SWAP1 JUMP JUMPDEST PUSH32 0x0 DUP2 JUMP JUMPDEST PUSH1 0x0 PUSH32 0xFFFFFFFFFFFFFFFFFFFFFFFFFFFFFFFFFFFFFFFFFFFFFFFFFFFFFFFFFFFFFFFF SWAP1 POP SWAP2 SWAP1 POP JUMP JUMPDEST PUSH1 0x0 PUSH1 0x6 PUSH1 0x0 SWAP1 SLOAD SWAP1 PUSH2 0x100 EXP SWAP1 DIV PUSH20 0xFFFFFFFFFFFFFFFFFFFFFFFFFFFFFFFFFFFFFFFF AND SWAP1 POP SWAP1 JUMP JUMPDEST PUSH1 0x0 PUSH2 0xD69 DUP3 PUSH2 0x8AD JUMP JUMPDEST SWAP1 POP SWAP2 SWAP1 POP JUMP JUMPDEST PUSH1 0x0 DUP1 PUSH2 0xD7C DUP5 PUSH2 0x1CE5 JUMP JUMPDEST SWAP2 POP DUP2 SUB PUSH2 0xDBF JUMPI PUSH1 0x40 MLOAD PUSH32 0x8C379A000000000000000000000000000000000000000000000000000000000 DUP2 MSTORE PUSH1 0x4 ADD PUSH2 0xDB6 SWAP1 PUSH2 0x295B JUMP JUMPDEST PUSH1 0x40 MLOAD DUP1 SWAP2 SUB SWAP1 REVERT JUMPDEST PUSH2 0xE0C CALLER ADDRESS DUP6 PUSH32 0x0 PUSH20 0xFFFFFFFFFFFFFFFFFFFFFFFFFFFFFFFFFFFFFFFF AND PUSH2 0x1F87 SWAP1 SWAP4 SWAP3 SWAP2 SWAP1 PUSH4 0xFFFFFFFF AND JUMP JUMPDEST PUSH2 0xE16 DUP3 DUP3 PUSH2 0x2026 JUMP JUMPDEST DUP2 PUSH20 0xFFFFFFFFFFFFFFFFFFFFFFFFFFFFFFFFFFFFFFFF AND CALLER PUSH20 0xFFFFFFFFFFFFFFFFFFFFFFFFFFFFFFFFFFFFFFFF AND PUSH32 0xDCBC1C05240F31FF3AD067EF1EE35CE4997762752E3A095284754544F4C709D7 DUP6 DUP5 PUSH1 0x40 MLOAD PUSH2 0xE75 SWAP3 SWAP2 SWAP1 PUSH2 0x297B JUMP JUMPDEST PUSH1 0x40 MLOAD DUP1 SWAP2 SUB SWAP1 LOG3 PUSH2 0xE87 DUP4 DUP3 PUSH2 0x20F6 JUMP JUMPDEST SWAP3 SWAP2 POP POP JUMP JUMPDEST PUSH1 0x3 PUSH1 0x20 MSTORE DUP1 PUSH1 0x0 MSTORE PUSH1 0x40 PUSH1 0x0 KECCAK256 PUSH1 0x0 SWAP2 POP SWAP1 POP SLOAD DUP2 JUMP JUMPDEST CALLER PUSH20 0xFFFFFFFFFFFFFFFFFFFFFFFFFFFFFFFFFFFFFFFF AND PUSH2 0xEC4 PUSH2 0xD34 JUMP JUMPDEST PUSH20 0xFFFFFFFFFFFFFFFFFFFFFFFFFFFFFFFFFFFFFFFF AND EQ PUSH2 0xF1A JUMPI PUSH1 0x40 MLOAD PUSH32 0x8C379A000000000000000000000000000000000000000000000000000000000 DUP2 MSTORE PUSH1 0x4 ADD PUSH2 0xF11 SWAP1 PUSH2 0x2A16 JUMP JUMPDEST PUSH1 0x40 MLOAD DUP1 SWAP2 SUB SWAP1 REVERT JUMPDEST PUSH1 0x0 PUSH20 0xFFFFFFFFFFFFFFFFFFFFFFFFFFFFFFFFFFFFFFFF AND PUSH1 0x6 PUSH1 0x0 SWAP1 SLOAD SWAP1 PUSH2 0x100 EXP SWAP1 DIV PUSH20 0xFFFFFFFFFFFFFFFFFFFFFFFFFFFFFFFFFFFFFFFF AND PUSH20 0xFFFFFFFFFFFFFFFFFFFFFFFFFFFFFFFFFFFFFFFF AND PUSH32 0x8BE0079C531659141344CD1FD0A4F28419497F9722A3DAAFE3B4186F6B6457E0 PUSH1 0x40 MLOAD PUSH1 0x40 MLOAD DUP1 SWAP2 SUB SWAP1 LOG3 PUSH1 0x0 PUSH1 0x6 PUSH1 0x0 PUSH2 0x100 EXP DUP2 SLOAD DUP2 PUSH20 0xFFFFFFFFFFFFFFFFFFFFFFFFFFFFFFFFFFFFFFFF MUL NOT AND SWAP1 DUP4 PUSH20 0xFFFFFFFFFFFFFFFFFFFFFFFFFFFFFFFFFFFFFFFF AND MUL OR SWAP1 SSTORE POP JUMP JUMPDEST CALLER PUSH20 0xFFFFFFFFFFFFFFFFFFFFFFFFFFFFFFFFFFFFFFFF AND PUSH2 0xFFA PUSH2 0xD34 JUMP JUMPDEST PUSH20 0xFFFFFFFFFFFFFFFFFFFFFFFFFFFFFFFFFFFFFFFF AND EQ PUSH2 0x1050 JUMPI PUSH1 0x40 MLOAD PUSH32 0x8C379A000000000000000000000000000000000000000000000000000000000 DUP2 MSTORE PUSH1 0x4 ADD PUSH2 0x1047 SWAP1 PUSH2 0x2A16 JUMP JUMPDEST PUSH1 0x40 MLOAD DUP1 SWAP2 SUB SWAP1 REVERT JUMPDEST PUSH8 0xDE0B6B3A7640000 DUP2 GT ISZERO PUSH2 0x109B JUMPI PUSH1 0x40 MLOAD PUSH32 0x8C379A000000000000000000000000000000000000000000000000000000000 DUP2 MSTORE PUSH1 0x4 ADD PUSH2 0x1092 SWAP1 PUSH2 0x2A82 JUMP JUMPDEST PUSH1 0x40 MLOAD DUP1 SWAP2 SUB SWAP1 REVERT JUMPDEST DUP1 PUSH1 0x9 DUP2 SWAP1 SSTORE POP CALLER PUSH20 0xFFFFFFFFFFFFFFFFFFFFFFFFFFFFFFFFFFFFFFFF AND PUSH32 0xEC370615CC81FB334E5566FBC80664D9082377BF59288D64A79F3FBECF4323A9 DUP3 PUSH1 0x40 MLOAD PUSH2 0x10E8 SWAP2 SWAP1 PUSH2 0x22AF JUMP JUMPDEST PUSH1 0x40 MLOAD DUP1 SWAP2 SUB SWAP1 LOG2 POP JUMP JUMPDEST PUSH1 0x5 PUSH1 0x20 MSTORE DUP1 PUSH1 0x0 MSTORE PUSH1 0x40 PUSH1 0x0 KECCAK256 PUSH1 0x0 SWAP2 POP SWAP1 POP SLOAD DUP2 JUMP JUMPDEST PUSH1 0x9 SLOAD DUP2 JUMP JUMPDEST PUSH1 0x0 PUSH2 0x111C DUP4 PUSH2 0x138E JUMP JUMPDEST SWAP1 POP PUSH2 0x116B CALLER ADDRESS DUP4 PUSH32 0x0 PUSH20 0xFFFFFFFFFFFFFFFFFFFFFFFFFFFFFFFFFFFFFFFF AND PUSH2 0x1F87 SWAP1 SWAP4 SWAP3 SWAP2 SWAP1 PUSH4 0xFFFFFFFF AND JUMP JUMPDEST PUSH2 0x1175 DUP3 DUP5 PUSH2 0x2026 JUMP JUMPDEST DUP2 PUSH20 0xFFFFFFFFFFFFFFFFFFFFFFFFFFFFFFFFFFFFFFFF AND CALLER PUSH20 0xFFFFFFFFFFFFFFFFFFFFFFFFFFFFFFFFFFFFFFFF AND PUSH32 0xDCBC1C05240F31FF3AD067EF1EE35CE4997762752E3A095284754544F4C709D7 DUP4 DUP7 PUSH1 0x40 MLOAD PUSH2 0x11D4 SWAP3 SWAP2 SWAP1 PUSH2 0x297B JUMP JUMPDEST PUSH1 0x40 MLOAD DUP1 SWAP2 SUB SWAP1 LOG3 PUSH2 0x11E6 DUP2 DUP5 PUSH2 0x20F6 JUMP JUMPDEST SWAP3 SWAP2 POP POP JUMP JUMPDEST PUSH1 0x1 DUP1 SLOAD PUSH2 0x11F9 SWAP1 PUSH2 0x287B JUMP JUMPDEST DUP1 PUSH1 0x1F ADD PUSH1 0x20 DUP1 SWAP2 DIV MUL PUSH1 0x20 ADD PUSH1 0x40 MLOAD SWAP1 DUP2 ADD PUSH1 0x40 MSTORE DUP1 SWAP3 SWAP2 SWAP1 DUP2 DUP2 MSTORE PUSH1 0x20 ADD DUP3 DUP1 SLOAD PUSH2 0x1225 SWAP1 PUSH2 0x287B JUMP JUMPDEST DUP1 ISZERO PUSH2 0x1272 JUMPI DUP1 PUSH1 0x1F LT PUSH2 0x1247 JUMPI PUSH2 0x100 DUP1 DUP4 SLOAD DIV MUL DUP4 MSTORE SWAP2 PUSH1 0x20 ADD SWAP2 PUSH2 0x1272 JUMP JUMPDEST DUP3 ADD SWAP2 SWAP1 PUSH1 0x0 MSTORE PUSH1 0x20 PUSH1 0x0 KECCAK256 SWAP1 JUMPDEST DUP2 SLOAD DUP2 MSTORE SWAP1 PUSH1 0x1 ADD SWAP1 PUSH1 0x20 ADD DUP1 DUP4 GT PUSH2 0x1255 JUMPI DUP3 SWAP1 SUB PUSH1 0x1F AND DUP3 ADD SWAP2 JUMPDEST POP POP POP POP POP DUP2 JUMP JUMPDEST PUSH1 0x0 DUP2 PUSH1 0x3 PUSH1 0x0 CALLER PUSH20 0xFFFFFFFFFFFFFFFFFFFFFFFFFFFFFFFFFFFFFFFF AND PUSH20 0xFFFFFFFFFFFFFFFFFFFFFFFFFFFFFFFFFFFFFFFF AND DUP2 MSTORE PUSH1 0x20 ADD SWAP1 DUP2 MSTORE PUSH1 0x20 ADD PUSH1 0x0 KECCAK256 PUSH1 0x0 DUP3 DUP3 SLOAD PUSH2 0x12CB SWAP2 SWAP1 PUSH2 0x28DB JUMP JUMPDEST SWAP3 POP POP DUP2 SWAP1 SSTORE POP DUP2 PUSH1 0x3 PUSH1 0x0 DUP6 PUSH20 0xFFFFFFFFFFFFFFFFFFFFFFFFFFFFFFFFFFFFFFFF AND PUSH20 0xFFFFFFFFFFFFFFFFFFFFFFFFFFFFFFFFFFFFFFFF AND DUP2 MSTORE PUSH1 0x20 ADD SWAP1 DUP2 MSTORE PUSH1 0x20 ADD PUSH1 0x0 KECCAK256 PUSH1 0x0 DUP3 DUP3 SLOAD ADD SWAP3 POP POP DUP2 SWAP1 SSTORE POP DUP3 PUSH20 0xFFFFFFFFFFFFFFFFFFFFFFFFFFFFFFFFFFFFFFFF AND CALLER PUSH20 0xFFFFFFFFFFFFFFFFFFFFFFFFFFFFFFFFFFFFFFFF AND PUSH32 0xDDF252AD1BE2C89B69C2B068FC378DAA952BA7F163C4A11628F55A4DF523B3EF DUP5 PUSH1 0x40 MLOAD PUSH2 0x137C SWAP2 SWAP1 PUSH2 0x22AF JUMP JUMPDEST PUSH1 0x40 MLOAD DUP1 SWAP2 SUB SWAP1 LOG3 PUSH1 0x1 SWAP1 POP SWAP3 SWAP2 POP POP JUMP JUMPDEST PUSH1 0x0 DUP1 PUSH1 0x2 SLOAD SWAP1 POP PUSH1 0x0 DUP2 EQ PUSH2 0x13BF JUMPI PUSH2 0x13BA PUSH2 0x13A9 PUSH2 0x77E JUMP JUMPDEST DUP3 DUP6 PUSH2 0x1EC9 SWAP1 SWAP3 SWAP2 SWAP1 PUSH4 0xFFFFFFFF AND JUMP JUMPDEST PUSH2 0x13C1 JUMP JUMPDEST DUP3 JUMPDEST SWAP2 POP POP SWAP2 SWAP1 POP JUMP JUMPDEST PUSH1 0x0 PUSH2 0x13D4 DUP5 PUSH2 0x9DA JUMP JUMPDEST SWAP1 POP DUP2 PUSH20 0xFFFFFFFFFFFFFFFFFFFFFFFFFFFFFFFFFFFFFFFF AND CALLER PUSH20 0xFFFFFFFFFFFFFFFFFFFFFFFFFFFFFFFFFFFFFFFF AND EQ PUSH2 0x1540 JUMPI PUSH1 0x0 PUSH1 0x4 PUSH1 0x0 DUP5 PUSH20 0xFFFFFFFFFFFFFFFFFFFFFFFFFFFFFFFFFFFFFFFF AND PUSH20 0xFFFFFFFFFFFFFFFFFFFFFFFFFFFFFFFFFFFFFFFF AND DUP2 MSTORE PUSH1 0x20 ADD SWAP1 DUP2 MSTORE PUSH1 0x20 ADD PUSH1 0x0 KECCAK256 PUSH1 0x0 CALLER PUSH20 0xFFFFFFFFFFFFFFFFFFFFFFFFFFFFFFFFFFFFFFFF AND PUSH20 0xFFFFFFFFFFFFFFFFFFFFFFFFFFFFFFFFFFFFFFFF AND DUP2 MSTORE PUSH1 0x20 ADD SWAP1 DUP2 MSTORE PUSH1 0x20 ADD PUSH1 0x0 KECCAK256 SLOAD SWAP1 POP PUSH32 0xFFFFFFFFFFFFFFFFFFFFFFFFFFFFFFFFFFFFFFFFFFFFFFFFFFFFFFFFFFFFFFFF DUP2 EQ PUSH2 0x153E JUMPI DUP2 DUP2 PUSH2 0x14BD SWAP2 SWAP1 PUSH2 0x28DB JUMP JUMPDEST PUSH1 0x4 PUSH1 0x0 DUP6 PUSH20 0xFFFFFFFFFFFFFFFFFFFFFFFFFFFFFFFFFFFFFFFF AND PUSH20 0xFFFFFFFFFFFFFFFFFFFFFFFFFFFFFFFFFFFFFFFF AND DUP2 MSTORE PUSH1 0x20 ADD SWAP1 DUP2 MSTORE PUSH1 0x20 ADD PUSH1 0x0 KECCAK256 PUSH1 0x0 CALLER PUSH20 0xFFFFFFFFFFFFFFFFFFFFFFFFFFFFFFFFFFFFFFFF AND PUSH20 0xFFFFFFFFFFFFFFFFFFFFFFFFFFFFFFFFFFFFFFFF AND DUP2 MSTORE PUSH1 0x20 ADD SWAP1 DUP2 MSTORE PUSH1 0x20 ADD PUSH1 0x0 KECCAK256 DUP2 SWAP1 SSTORE POP JUMPDEST POP JUMPDEST PUSH2 0x154A DUP5 DUP3 PUSH2 0x2112 JUMP JUMPDEST PUSH2 0x1554 DUP3 DUP3 PUSH2 0x212E JUMP JUMPDEST DUP2 PUSH20 0xFFFFFFFFFFFFFFFFFFFFFFFFFFFFFFFFFFFFFFFF AND DUP4 PUSH20 0xFFFFFFFFFFFFFFFFFFFFFFFFFFFFFFFFFFFFFFFF AND CALLER PUSH20 0xFFFFFFFFFFFFFFFFFFFFFFFFFFFFFFFFFFFFFFFF AND PUSH32 0xFBDE797D201C681B91056529119E0B02407C7BB96A4A2C75C01FC9667232C8DB DUP8 DUP6 PUSH1 0x40 MLOAD PUSH2 0x15CA SWAP3 SWAP2 SWAP1 PUSH2 0x297B JUMP JUMPDEST PUSH1 0x40 MLOAD DUP1 SWAP2 SUB SWAP1 LOG4 PUSH2 0x161D DUP4 DUP6 PUSH32 0x0 PUSH20 0xFFFFFFFFFFFFFFFFFFFFFFFFFFFFFFFFFFFFFFFF AND PUSH2 0x21FE SWAP1 SWAP3 SWAP2 SWAP1 PUSH4 0xFFFFFFFF AND JUMP JUMPDEST SWAP4 SWAP3 POP POP POP JUMP JUMPDEST PUSH1 0x0 DUP2 PUSH20 0xFFFFFFFFFFFFFFFFFFFFFFFFFFFFFFFFFFFFFFFF AND CALLER PUSH20 0xFFFFFFFFFFFFFFFFFFFFFFFFFFFFFFFFFFFFFFFF AND EQ PUSH2 0x1790 JUMPI PUSH1 0x0 PUSH1 0x4 PUSH1 0x0 DUP5 PUSH20 0xFFFFFFFFFFFFFFFFFFFFFFFFFFFFFFFFFFFFFFFF AND PUSH20 0xFFFFFFFFFFFFFFFFFFFFFFFFFFFFFFFFFFFFFFFF AND DUP2 MSTORE PUSH1 0x20 ADD SWAP1 DUP2 MSTORE PUSH1 0x20 ADD PUSH1 0x0 KECCAK256 PUSH1 0x0 CALLER PUSH20 0xFFFFFFFFFFFFFFFFFFFFFFFFFFFFFFFFFFFFFFFF AND PUSH20 0xFFFFFFFFFFFFFFFFFFFFFFFFFFFFFFFFFFFFFFFF AND DUP2 MSTORE PUSH1 0x20 ADD SWAP1 DUP2 MSTORE PUSH1 0x20 ADD PUSH1 0x0 KECCAK256 SLOAD SWAP1 POP PUSH32 0xFFFFFFFFFFFFFFFFFFFFFFFFFFFFFFFFFFFFFFFFFFFFFFFFFFFFFFFFFFFFFFFF DUP2 EQ PUSH2 0x178E JUMPI DUP5 DUP2 PUSH2 0x170D SWAP2 SWAP1 PUSH2 0x28DB JUMP JUMPDEST PUSH1 0x4 PUSH1 0x0 DUP6 PUSH20 0xFFFFFFFFFFFFFFFFFFFFFFFFFFFFFFFFFFFFFFFF AND PUSH20 0xFFFFFFFFFFFFFFFFFFFFFFFFFFFFFFFFFFFFFFFF AND DUP2 MSTORE PUSH1 0x20 ADD SWAP1 DUP2 MSTORE PUSH1 0x20 ADD PUSH1 0x0 KECCAK256 PUSH1 0x0 CALLER PUSH20 0xFFFFFFFFFFFFFFFFFFFFFFFFFFFFFFFFFFFFFFFF AND PUSH20 0xFFFFFFFFFFFFFFFFFFFFFFFFFFFFFFFFFFFFFFFF AND DUP2 MSTORE PUSH1 0x20 ADD SWAP1 DUP2 MSTORE PUSH1 0x20 ADD PUSH1 0x0 KECCAK256 DUP2 SWAP1 SSTORE POP JUMPDEST POP JUMPDEST PUSH1 0x0 PUSH2 0x179B DUP6 PUSH2 0xD5E JUMP JUMPDEST SWAP2 POP DUP2 SUB PUSH2 0x17DE JUMPI PUSH1 0x40 MLOAD PUSH32 0x8C379A000000000000000000000000000000000000000000000000000000000 DUP2 MSTORE PUSH1 0x4 ADD PUSH2 0x17D5 SWAP1 PUSH2 0x2AEE JUMP JUMPDEST PUSH1 0x40 MLOAD DUP1 SWAP2 SUB SWAP1 REVERT JUMPDEST PUSH2 0x17E8 DUP2 DUP6 PUSH2 0x2112 JUMP JUMPDEST PUSH2 0x17F2 DUP3 DUP6 PUSH2 0x212E JUMP JUMPDEST DUP2 PUSH20 0xFFFFFFFFFFFFFFFFFFFFFFFFFFFFFFFFFFFFFFFF AND DUP4 PUSH20 0xFFFFFFFFFFFFFFFFFFFFFFFFFFFFFFFFFFFFFFFF AND CALLER PUSH20 0xFFFFFFFFFFFFFFFFFFFFFFFFFFFFFFFFFFFFFFFF AND PUSH32 0xFBDE797D201C681B91056529119E0B02407C7BB96A4A2C75C01FC9667232C8DB DUP5 DUP9 PUSH1 0x40 MLOAD PUSH2 0x1868 SWAP3 SWAP2 SWAP1 PUSH2 0x297B JUMP JUMPDEST PUSH1 0x40 MLOAD DUP1 SWAP2 SUB SWAP1 LOG4 PUSH2 0x18BB DUP4 DUP3 PUSH32 0x0 PUSH20 0xFFFFFFFFFFFFFFFFFFFFFFFFFFFFFFFFFFFFFFFF AND PUSH2 0x21FE SWAP1 SWAP3 SWAP2 SWAP1 PUSH4 0xFFFFFFFF AND JUMP JUMPDEST SWAP4 SWAP3 POP POP POP JUMP JUMPDEST PUSH1 0x7 SLOAD DUP2 JUMP JUMPDEST PUSH1 0x0 PUSH32 0xFFFFFFFFFFFFFFFFFFFFFFFFFFFFFFFFFFFFFFFFFFFFFFFFFFFFFFFFFFFFFFFF SWAP1 POP SWAP2 SWAP1 POP JUMP JUMPDEST PUSH1 0x0 DUP1 PUSH1 0x2 SLOAD SWAP1 POP PUSH1 0x0 DUP2 EQ PUSH2 0x1923 JUMPI PUSH2 0x191E DUP2 PUSH2 0x190E PUSH2 0x77E JUMP JUMPDEST DUP6 PUSH2 0x1EA1 SWAP1 SWAP3 SWAP2 SWAP1 PUSH4 0xFFFFFFFF AND JUMP JUMPDEST PUSH2 0x1925 JUMP JUMPDEST DUP3 JUMPDEST SWAP2 POP POP SWAP2 SWAP1 POP JUMP JUMPDEST PUSH1 0x0 PUSH2 0x1977 PUSH1 0x3 PUSH1 0x0 DUP5 PUSH20 0xFFFFFFFFFFFFFFFFFFFFFFFFFFFFFFFFFFFFFFFF AND PUSH20 0xFFFFFFFFFFFFFFFFFFFFFFFFFFFFFFFFFFFFFFFF AND DUP2 MSTORE PUSH1 0x20 ADD SWAP1 DUP2 MSTORE PUSH1 0x20 ADD PUSH1 0x0 KECCAK256 SLOAD PUSH2 0x8AD JUMP JUMPDEST SWAP1 POP SWAP2 SWAP1 POP JUMP JUMPDEST TIMESTAMP DUP5 LT ISZERO PUSH2 0x19C1 JUMPI PUSH1 0x40 MLOAD PUSH32 0x8C379A000000000000000000000000000000000000000000000000000000000 DUP2 MSTORE PUSH1 0x4 ADD PUSH2 0x19B8 SWAP1 PUSH2 0x2B5A JUMP JUMPDEST PUSH1 0x40 MLOAD DUP1 SWAP2 SUB SWAP1 REVERT JUMPDEST PUSH1 0x0 PUSH1 0x1 PUSH2 0x19CD PUSH2 0xC89 JUMP JUMPDEST PUSH32 0x6E71EDAE12B1B97F4D1F60370FEF10105FA2FAAE0126114A169C64845D6126C9 DUP11 DUP11 DUP11 PUSH1 0x5 PUSH1 0x0 DUP16 PUSH20 0xFFFFFFFFFFFFFFFFFFFFFFFFFFFFFFFFFFFFFFFF AND PUSH20 0xFFFFFFFFFFFFFFFFFFFFFFFFFFFFFFFFFFFFFFFF AND DUP2 MSTORE PUSH1 0x20 ADD SWAP1 DUP2 MSTORE PUSH1 0x20 ADD PUSH1 0x0 KECCAK256 PUSH1 0x0 DUP2 SLOAD DUP1 SWAP3 SWAP2 SWAP1 PUSH1 0x1 ADD SWAP2 SWAP1 POP SSTORE DUP12 PUSH1 0x40 MLOAD PUSH1 0x20 ADD PUSH2 0x1A55 SWAP7 SWAP6 SWAP5 SWAP4 SWAP3 SWAP2 SWAP1 PUSH2 0x2B7A JUMP JUMPDEST PUSH1 0x40 MLOAD PUSH1 0x20 DUP2 DUP4 SUB SUB DUP2 MSTORE SWAP1 PUSH1 0x40 MSTORE DUP1 MLOAD SWAP1 PUSH1 0x20 ADD KECCAK256 PUSH1 0x40 MLOAD PUSH1 0x20 ADD PUSH2 0x1A7C SWAP3 SWAP2 SWAP1 PUSH2 0x2C53 JUMP JUMPDEST PUSH1 0x40 MLOAD PUSH1 0x20 DUP2 DUP4 SUB SUB DUP2 MSTORE SWAP1 PUSH1 0x40 MSTORE DUP1 MLOAD SWAP1 PUSH1 0x20 ADD KECCAK256 DUP6 DUP6 DUP6 PUSH1 0x40 MLOAD PUSH1 0x0 DUP2 MSTORE PUSH1 0x20 ADD PUSH1 0x40 MSTORE PUSH1 0x40 MLOAD PUSH2 0x1AB2 SWAP5 SWAP4 SWAP3 SWAP2 SWAP1 PUSH2 0x2C8A JUMP JUMPDEST PUSH1 0x20 PUSH1 0x40 MLOAD PUSH1 0x20 DUP2 SUB SWAP1 DUP1 DUP5 SUB SWAP1 DUP6 GAS STATICCALL ISZERO DUP1 ISZERO PUSH2 0x1AD4 JUMPI RETURNDATASIZE PUSH1 0x0 DUP1 RETURNDATACOPY RETURNDATASIZE PUSH1 0x0 REVERT JUMPDEST POP POP POP PUSH1 0x20 PUSH1 0x40 MLOAD SUB MLOAD SWAP1 POP PUSH1 0x0 PUSH20 0xFFFFFFFFFFFFFFFFFFFFFFFFFFFFFFFFFFFFFFFF AND DUP2 PUSH20 0xFFFFFFFFFFFFFFFFFFFFFFFFFFFFFFFFFFFFFFFF AND EQ ISZERO DUP1 ISZERO PUSH2 0x1B48 JUMPI POP DUP8 PUSH20 0xFFFFFFFFFFFFFFFFFFFFFFFFFFFFFFFFFFFFFFFF AND DUP2 PUSH20 0xFFFFFFFFFFFFFFFFFFFFFFFFFFFFFFFFFFFFFFFF AND EQ JUMPDEST PUSH2 0x1B87 JUMPI PUSH1 0x40 MLOAD PUSH32 0x8C379A000000000000000000000000000000000000000000000000000000000 DUP2 MSTORE PUSH1 0x4 ADD PUSH2 0x1B7E SWAP1 PUSH2 0x2D1B JUMP JUMPDEST PUSH1 0x40 MLOAD DUP1 SWAP2 SUB SWAP1 REVERT JUMPDEST DUP6 PUSH1 0x4 PUSH1 0x0 DUP4 PUSH20 0xFFFFFFFFFFFFFFFFFFFFFFFFFFFFFFFFFFFFFFFF AND PUSH20 0xFFFFFFFFFFFFFFFFFFFFFFFFFFFFFFFFFFFFFFFF AND DUP2 MSTORE PUSH1 0x20 ADD SWAP1 DUP2 MSTORE PUSH1 0x20 ADD PUSH1 0x0 KECCAK256 PUSH1 0x0 DUP10 PUSH20 0xFFFFFFFFFFFFFFFFFFFFFFFFFFFFFFFFFFFFFFFF AND PUSH20 0xFFFFFFFFFFFFFFFFFFFFFFFFFFFFFFFFFFFFFFFF AND DUP2 MSTORE PUSH1 0x20 ADD SWAP1 DUP2 MSTORE PUSH1 0x20 ADD PUSH1 0x0 KECCAK256 DUP2 SWAP1 SSTORE POP POP DUP6 PUSH20 0xFFFFFFFFFFFFFFFFFFFFFFFFFFFFFFFFFFFFFFFF AND DUP8 PUSH20 0xFFFFFFFFFFFFFFFFFFFFFFFFFFFFFFFFFFFFFFFF AND PUSH32 0x8C5BE1E5EBEC7D5BD14F71427D1E84F3DD0314C0F7B2291E5B200AC8C7C3B925 DUP8 PUSH1 0x40 MLOAD PUSH2 0x1C66 SWAP2 SWAP1 PUSH2 0x22AF JUMP JUMPDEST PUSH1 0x40 MLOAD DUP1 SWAP2 SUB SWAP1 LOG3 POP POP POP POP POP POP POP JUMP JUMPDEST PUSH1 0x0 PUSH1 0x3 PUSH1 0x0 DUP4 PUSH20 0xFFFFFFFFFFFFFFFFFFFFFFFFFFFFFFFFFFFFFFFF AND PUSH20 0xFFFFFFFFFFFFFFFFFFFFFFFFFFFFFFFFFFFFFFFF AND DUP2 MSTORE PUSH1 0x20 ADD SWAP1 DUP2 MSTORE PUSH1 0x20 ADD PUSH1 0x0 KECCAK256 SLOAD SWAP1 POP SWAP2 SWAP1 POP JUMP JUMPDEST PUSH1 0x4 PUSH1 0x20 MSTORE DUP2 PUSH1 0x0 MSTORE PUSH1 0x40 PUSH1 0x0 KECCAK256 PUSH1 0x20 MSTORE DUP1 PUSH1 0x0 MSTORE PUSH1 0x40 PUSH1 0x0 KECCAK256 PUSH1 0x0 SWAP2 POP SWAP2 POP POP SLOAD DUP2 JUMP JUMPDEST PUSH1 0x0 PUSH2 0x1CF0 DUP3 PUSH2 0x18F2 JUMP JUMPDEST SWAP1 POP SWAP2 SWAP1 POP JUMP JUMPDEST CALLER PUSH20 0xFFFFFFFFFFFFFFFFFFFFFFFFFFFFFFFFFFFFFFFF AND PUSH2 0x1D16 PUSH2 0xD34 JUMP JUMPDEST PUSH20 0xFFFFFFFFFFFFFFFFFFFFFFFFFFFFFFFFFFFFFFFF AND EQ PUSH2 0x1D6C JUMPI PUSH1 0x40 MLOAD PUSH32 0x8C379A000000000000000000000000000000000000000000000000000000000 DUP2 MSTORE PUSH1 0x4 ADD PUSH2 0x1D63 SWAP1 PUSH2 0x2A16 JUMP JUMPDEST PUSH1 0x40 MLOAD DUP1 SWAP2 SUB SWAP1 REVERT JUMPDEST PUSH1 0x0 PUSH20 0xFFFFFFFFFFFFFFFFFFFFFFFFFFFFFFFFFFFFFFFF AND DUP2 PUSH20 0xFFFFFFFFFFFFFFFFFFFFFFFFFFFFFFFFFFFFFFFF AND SUB PUSH2 0x1DDB JUMPI PUSH1 0x40 MLOAD PUSH32 0x8C379A000000000000000000000000000000000000000000000000000000000 DUP2 MSTORE PUSH1 0x4 ADD PUSH2 0x1DD2 SWAP1 PUSH2 0x2DAD JUMP JUMPDEST PUSH1 0x40 MLOAD DUP1 SWAP2 SUB SWAP1 REVERT JUMPDEST DUP1 PUSH20 0xFFFFFFFFFFFFFFFFFFFFFFFFFFFFFFFFFFFFFFFF AND PUSH1 0x6 PUSH1 0x0 SWAP1 SLOAD SWAP1 PUSH2 0x100 EXP SWAP1 DIV PUSH20 0xFFFFFFFFFFFFFFFFFFFFFFFFFFFFFFFFFFFFFFFF AND PUSH20 0xFFFFFFFFFFFFFFFFFFFFFFFFFFFFFFFFFFFFFFFF AND PUSH32 0x8BE0079C531659141344CD1FD0A4F28419497F9722A3DAAFE3B4186F6B6457E0 PUSH1 0x40 MLOAD PUSH1 0x40 MLOAD DUP1 SWAP2 SUB SWAP1 LOG3 DUP1 PUSH1 0x6 PUSH1 0x0 PUSH2 0x100 EXP DUP2 SLOAD DUP2 PUSH20 0xFFFFFFFFFFFFFFFFFFFFFFFFFFFFFFFFFFFFFFFF MUL NOT AND SWAP1 DUP4 PUSH20 0xFFFFFFFFFFFFFFFFFFFFFFFFFFFFFFFFFFFFFFFF AND MUL OR SWAP1 SSTORE POP POP JUMP JUMPDEST PUSH1 0x8 SLOAD DUP2 JUMP JUMPDEST PUSH1 0x0 DUP3 DUP5 MUL SWAP1 POP DUP3 DUP5 DUP3 DIV EQ DUP5 ISZERO OR DUP3 ISZERO ISZERO AND PUSH2 0x1EBD JUMPI PUSH1 0x0 DUP1 REVERT JUMPDEST DUP2 DUP2 DIV SWAP1 POP SWAP4 SWAP3 POP POP POP JUMP JUMPDEST PUSH1 0x0 DUP3 DUP5 MUL SWAP1 POP DUP3 DUP5 DUP3 DIV EQ DUP5 ISZERO OR DUP3 ISZERO ISZERO AND PUSH2 0x1EE5 JUMPI PUSH1 0x0 DUP1 REVERT JUMPDEST PUSH1 0x1 DUP3 PUSH1 0x1 DUP4 SUB DIV ADD DUP2 ISZERO ISZERO MUL SWAP1 POP SWAP4 SWAP3 POP POP POP JUMP JUMPDEST PUSH1 0x0 PUSH32 0x8B73C3C69BB8FE3D512ECC4CF759CC79239F7B179B0FFACAA9A75D522B39400F PUSH1 0x0 PUSH1 0x40 MLOAD PUSH2 0x1F2D SWAP2 SWAP1 PUSH2 0x2E70 JUMP JUMPDEST PUSH1 0x40 MLOAD DUP1 SWAP2 SUB SWAP1 KECCAK256 PUSH32 0xC89EFDAA54C0F20C7ADF612882DF0950F5A951637E0307CDCB4C672F298B8BC6 CHAINID ADDRESS PUSH1 0x40 MLOAD PUSH1 0x20 ADD PUSH2 0x1F6C SWAP6 SWAP5 SWAP4 SWAP3 SWAP2 SWAP1 PUSH2 0x2E87 JUMP JUMPDEST PUSH1 0x40 MLOAD PUSH1 0x20 DUP2 DUP4 SUB SUB DUP2 MSTORE SWAP1 PUSH1 0x40 MSTORE DUP1 MLOAD SWAP1 PUSH1 0x20 ADD KECCAK256 SWAP1 POP SWAP1 JUMP JUMPDEST PUSH1 0x0 PUSH1 0x40 MLOAD PUSH32 0x23B872DD00000000000000000000000000000000000000000000000000000000 DUP2 MSTORE DUP5 PUSH1 0x4 DUP3 ADD MSTORE DUP4 PUSH1 0x24 DUP3 ADD MSTORE DUP3 PUSH1 0x44 DUP3 ADD MSTORE PUSH1 0x20 PUSH1 0x0 PUSH1 0x64 DUP4 PUSH1 0x0 DUP11 GAS CALL RETURNDATASIZE ISZERO PUSH1 0x1F RETURNDATASIZE GT PUSH1 0x1 PUSH1 0x0 MLOAD EQ AND OR AND SWAP2 POP POP DUP1 PUSH2 0x201F JUMPI PUSH1 0x40 MLOAD PUSH32 0x8C379A000000000000000000000000000000000000000000000000000000000 DUP2 MSTORE PUSH1 0x4 ADD PUSH2 0x2016 SWAP1 PUSH2 0x2F26 JUMP JUMPDEST PUSH1 0x40 MLOAD DUP1 SWAP2 SUB SWAP1 REVERT JUMPDEST POP POP POP POP POP JUMP JUMPDEST DUP1 PUSH1 0x2 PUSH1 0x0 DUP3 DUP3 SLOAD PUSH2 0x2038 SWAP2 SWAP1 PUSH2 0x2F46 JUMP JUMPDEST SWAP3 POP POP DUP2 SWAP1 SSTORE POP DUP1 PUSH1 0x3 PUSH1 0x0 DUP5 PUSH20 0xFFFFFFFFFFFFFFFFFFFFFFFFFFFFFFFFFFFFFFFF AND PUSH20 0xFFFFFFFFFFFFFFFFFFFFFFFFFFFFFFFFFFFFFFFF AND DUP2 MSTORE PUSH1 0x20 ADD SWAP1 DUP2 MSTORE PUSH1 0x20 ADD PUSH1 0x0 KECCAK256 PUSH1 0x0 DUP3 DUP3 SLOAD ADD SWAP3 POP POP DUP2 SWAP1 SSTORE POP DUP2 PUSH20 0xFFFFFFFFFFFFFFFFFFFFFFFFFFFFFFFFFFFFFFFF AND PUSH1 0x0 PUSH20 0xFFFFFFFFFFFFFFFFFFFFFFFFFFFFFFFFFFFFFFFF AND PUSH32 0xDDF252AD1BE2C89B69C2B068FC378DAA952BA7F163C4A11628F55A4DF523B3EF DUP4 PUSH1 0x40 MLOAD PUSH2 0x20EA SWAP2 SWAP1 PUSH2 0x22AF JUMP JUMPDEST PUSH1 0x40 MLOAD DUP1 SWAP2 SUB SWAP1 LOG3 POP POP JUMP JUMPDEST PUSH1 0x8 PUSH1 0x0 DUP2 SLOAD DUP1 SWAP3 SWAP2 SWAP1 PUSH2 0x2109 SWAP1 PUSH2 0x2F7A JUMP JUMPDEST SWAP2 SWAP1 POP SSTORE POP POP POP JUMP JUMPDEST PUSH1 0x7 PUSH1 0x0 DUP2 SLOAD DUP1 SWAP3 SWAP2 SWAP1 PUSH2 0x2125 SWAP1 PUSH2 0x2F7A JUMP JUMPDEST SWAP2 SWAP1 POP SSTORE POP POP POP JUMP JUMPDEST DUP1 PUSH1 0x3 PUSH1 0x0 DUP5 PUSH20 0xFFFFFFFFFFFFFFFFFFFFFFFFFFFFFFFFFFFFFFFF AND PUSH20 0xFFFFFFFFFFFFFFFFFFFFFFFFFFFFFFFFFFFFFFFF AND DUP2 MSTORE PUSH1 0x20 ADD SWAP1 DUP2 MSTORE PUSH1 0x20 ADD PUSH1 0x0 KECCAK256 PUSH1 0x0 DUP3 DUP3 SLOAD PUSH2 0x217D SWAP2 SWAP1 PUSH2 0x28DB JUMP JUMPDEST SWAP3 POP POP DUP2 SWAP1 SSTORE POP DUP1 PUSH1 0x2 PUSH1 0x0 DUP3 DUP3 SLOAD SUB SWAP3 POP POP DUP2 SWAP1 SSTORE POP PUSH1 0x0 PUSH20 0xFFFFFFFFFFFFFFFFFFFFFFFFFFFFFFFFFFFFFFFF AND DUP3 PUSH20 0xFFFFFFFFFFFFFFFFFFFFFFFFFFFFFFFFFFFFFFFF AND PUSH32 0xDDF252AD1BE2C89B69C2B068FC378DAA952BA7F163C4A11628F55A4DF523B3EF DUP4 PUSH1 0x40 MLOAD PUSH2 0x21F2 SWAP2 SWAP1 PUSH2 0x22AF JUMP JUMPDEST PUSH1 0x40 MLOAD DUP1 SWAP2 SUB SWAP1 LOG3 POP POP JUMP JUMPDEST PUSH1 0x0 PUSH1 0x40 MLOAD PUSH32 0xA9059CBB00000000000000000000000000000000000000000000000000000000 DUP2 MSTORE DUP4 PUSH1 0x4 DUP3 ADD MSTORE DUP3 PUSH1 0x24 DUP3 ADD MSTORE PUSH1 0x20 PUSH1 0x0 PUSH1 0x44 DUP4 PUSH1 0x0 DUP10 GAS CALL RETURNDATASIZE ISZERO PUSH1 0x1F RETURNDATASIZE GT PUSH1 0x1 PUSH1 0x0 MLOAD EQ AND OR AND SWAP2 POP POP DUP1 PUSH2 0x2290 JUMPI PUSH1 0x40 MLOAD PUSH32 0x8C379A000000000000000000000000000000000000000000000000000000000 DUP2 MSTORE PUSH1 0x4 ADD PUSH2 0x2287 SWAP1 PUSH2 0x300E JUMP JUMPDEST PUSH1 0x40 MLOAD DUP1 SWAP2 SUB SWAP1 REVERT JUMPDEST POP POP POP POP JUMP JUMPDEST PUSH1 0x0 DUP2 SWAP1 POP SWAP2 SWAP1 POP JUMP JUMPDEST PUSH2 0x22A9 DUP2 PUSH2 0x2296 JUMP JUMPDEST DUP3 MSTORE POP POP JUMP JUMPDEST PUSH1 0x0 PUSH1 0x20 DUP3 ADD SWAP1 POP PUSH2 0x22C4 PUSH1 0x0 DUP4 ADD DUP5 PUSH2 0x22A0 JUMP JUMPDEST SWAP3 SWAP2 POP POP JUMP JUMPDEST PUSH1 0x0 DUP2 MLOAD SWAP1 POP SWAP2 SWAP1 POP JUMP JUMPDEST PUSH1 0x0 DUP3 DUP3 MSTORE PUSH1 0x20 DUP3 ADD SWAP1 POP SWAP3 SWAP2 POP POP JUMP JUMPDEST PUSH1 0x0 JUMPDEST DUP4 DUP2 LT ISZERO PUSH2 0x2304 JUMPI DUP1 DUP3 ADD MLOAD DUP2 DUP5 ADD MSTORE PUSH1 0x20 DUP2 ADD SWAP1 POP PUSH2 0x22E9 JUMP JUMPDEST PUSH1 0x0 DUP5 DUP5 ADD MSTORE POP POP POP POP JUMP JUMPDEST PUSH1 0x0 PUSH1 0x1F NOT PUSH1 0x1F DUP4 ADD AND SWAP1 POP SWAP2 SWAP1 POP JUMP JUMPDEST PUSH1 0x0 PUSH2 0x232C DUP3 PUSH2 0x22CA JUMP JUMPDEST PUSH2 0x2336 DUP2 DUP6 PUSH2 0x22D5 JUMP JUMPDEST SWAP4 POP PUSH2 0x2346 DUP2 DUP6 PUSH1 0x20 DUP7 ADD PUSH2 0x22E6 JUMP JUMPDEST PUSH2 0x234F DUP2 PUSH2 0x2310 JUMP JUMPDEST DUP5 ADD SWAP2 POP POP SWAP3 SWAP2 POP POP JUMP JUMPDEST PUSH1 0x0 PUSH1 0x20 DUP3 ADD SWAP1 POP DUP2 DUP2 SUB PUSH1 0x0 DUP4 ADD MSTORE PUSH2 0x2374 DUP2 DUP5 PUSH2 0x2321 JUMP JUMPDEST SWAP1 POP SWAP3 SWAP2 POP POP JUMP JUMPDEST PUSH1 0x0 DUP1 REVERT JUMPDEST PUSH2 0x238A DUP2 PUSH2 0x2296 JUMP JUMPDEST DUP2 EQ PUSH2 0x2395 JUMPI PUSH1 0x0 DUP1 REVERT JUMPDEST POP JUMP JUMPDEST PUSH1 0x0 DUP2 CALLDATALOAD SWAP1 POP PUSH2 0x23A7 DUP2 PUSH2 0x2381 JUMP JUMPDEST SWAP3 SWAP2 POP POP JUMP JUMPDEST PUSH1 0x0 PUSH1 0x20 DUP3 DUP5 SUB SLT ISZERO PUSH2 0x23C3 JUMPI PUSH2 0x23C2 PUSH2 0x237C JUMP JUMPDEST JUMPDEST PUSH1 0x0 PUSH2 0x23D1 DUP5 DUP3 DUP6 ADD PUSH2 0x2398 JUMP JUMPDEST SWAP2 POP POP SWAP3 SWAP2 POP POP JUMP JUMPDEST PUSH1 0x0 PUSH20 0xFFFFFFFFFFFFFFFFFFFFFFFFFFFFFFFFFFFFFFFF DUP3 AND SWAP1 POP SWAP2 SWAP1 POP JUMP JUMPDEST PUSH1 0x0 PUSH2 0x2405 DUP3 PUSH2 0x23DA JUMP JUMPDEST SWAP1 POP SWAP2 SWAP1 POP JUMP JUMPDEST PUSH2 0x2415 DUP2 PUSH2 0x23FA JUMP JUMPDEST DUP2 EQ PUSH2 0x2420 JUMPI PUSH1 0x0 DUP1 REVERT JUMPDEST POP JUMP JUMPDEST PUSH1 0x0 DUP2 CALLDATALOAD SWAP1 POP PUSH2 0x2432 DUP2 PUSH2 0x240C JUMP JUMPDEST SWAP3 SWAP2 POP POP JUMP JUMPDEST PUSH1 0x0 DUP1 PUSH1 0x40 DUP4 DUP6 SUB SLT ISZERO PUSH2 0x244F JUMPI PUSH2 0x244E PUSH2 0x237C JUMP JUMPDEST JUMPDEST PUSH1 0x0 PUSH2 0x245D DUP6 DUP3 DUP7 ADD PUSH2 0x2423 JUMP JUMPDEST SWAP3 POP POP PUSH1 0x20 PUSH2 0x246E DUP6 DUP3 DUP7 ADD PUSH2 0x2398 JUMP JUMPDEST SWAP2 POP POP SWAP3 POP SWAP3 SWAP1 POP JUMP JUMPDEST PUSH1 0x0 DUP2 ISZERO ISZERO SWAP1 POP SWAP2 SWAP1 POP JUMP JUMPDEST PUSH2 0x248D DUP2 PUSH2 0x2478 JUMP JUMPDEST DUP3 MSTORE POP POP JUMP JUMPDEST PUSH1 0x0 PUSH1 0x20 DUP3 ADD SWAP1 POP PUSH2 0x24A8 PUSH1 0x0 DUP4 ADD DUP5 PUSH2 0x2484 JUMP JUMPDEST SWAP3 SWAP2 POP POP JUMP JUMPDEST PUSH1 0x0 DUP1 PUSH1 0x0 PUSH1 0x60 DUP5 DUP7 SUB SLT ISZERO PUSH2 0x24C7 JUMPI PUSH2 0x24C6 PUSH2 0x237C JUMP JUMPDEST JUMPDEST PUSH1 0x0 PUSH2 0x24D5 DUP7 DUP3 DUP8 ADD PUSH2 0x2423 JUMP JUMPDEST SWAP4 POP POP PUSH1 0x20 PUSH2 0x24E6 DUP7 DUP3 DUP8 ADD PUSH2 0x2423 JUMP JUMPDEST SWAP3 POP POP PUSH1 0x40 PUSH2 0x24F7 DUP7 DUP3 DUP8 ADD PUSH2 0x2398 JUMP JUMPDEST SWAP2 POP POP SWAP3 POP SWAP3 POP SWAP3 JUMP JUMPDEST PUSH1 0x0 PUSH1 0xFF DUP3 AND SWAP1 POP SWAP2 SWAP1 POP JUMP JUMPDEST PUSH2 0x2517 DUP2 PUSH2 0x2501 JUMP JUMPDEST DUP3 MSTORE POP POP JUMP JUMPDEST PUSH1 0x0 PUSH1 0x20 DUP3 ADD SWAP1 POP PUSH2 0x2532 PUSH1 0x0 DUP4 ADD DUP5 PUSH2 0x250E JUMP JUMPDEST SWAP3 SWAP2 POP POP JUMP JUMPDEST PUSH1 0x0 DUP2 SWAP1 POP SWAP2 SWAP1 POP JUMP JUMPDEST PUSH2 0x254B DUP2 PUSH2 0x2538 JUMP JUMPDEST DUP3 MSTORE POP POP JUMP JUMPDEST PUSH1 0x0 PUSH1 0x20 DUP3 ADD SWAP1 POP PUSH2 0x2566 PUSH1 0x0 DUP4 ADD DUP5 PUSH2 0x2542 JUMP JUMPDEST SWAP3 SWAP2 POP POP JUMP JUMPDEST PUSH1 0x0 DUP2 SWAP1 POP SWAP2 SWAP1 POP JUMP JUMPDEST PUSH1 0x0 PUSH2 0x2591 PUSH2 0x258C PUSH2 0x2587 DUP5 PUSH2 0x23DA JUMP JUMPDEST PUSH2 0x256C JUMP JUMPDEST PUSH2 0x23DA JUMP JUMPDEST SWAP1 POP SWAP2 SWAP1 POP JUMP JUMPDEST PUSH1 0x0 PUSH2 0x25A3 DUP3 PUSH2 0x2576 JUMP JUMPDEST SWAP1 POP SWAP2 SWAP1 POP JUMP JUMPDEST PUSH1 0x0 PUSH2 0x25B5 DUP3 PUSH2 0x2598 JUMP JUMPDEST SWAP1 POP SWAP2 SWAP1 POP JUMP JUMPDEST PUSH2 0x25C5 DUP2 PUSH2 0x25AA JUMP JUMPDEST DUP3 MSTORE POP POP JUMP JUMPDEST PUSH1 0x0 PUSH1 0x20 DUP3 ADD SWAP1 POP PUSH2 0x25E0 PUSH1 0x0 DUP4 ADD DUP5 PUSH2 0x25BC JUMP JUMPDEST SWAP3 SWAP2 POP POP JUMP JUMPDEST PUSH1 0x0 PUSH1 0x20 DUP3 DUP5 SUB SLT ISZERO PUSH2 0x25FC JUMPI PUSH2 0x25FB PUSH2 0x237C JUMP JUMPDEST JUMPDEST PUSH1 0x0 PUSH2 0x260A DUP5 DUP3 DUP6 ADD PUSH2 0x2423 JUMP JUMPDEST SWAP2 POP POP SWAP3 SWAP2 POP POP JUMP JUMPDEST PUSH2 0x261C DUP2 PUSH2 0x23FA JUMP JUMPDEST DUP3 MSTORE POP POP JUMP JUMPDEST PUSH1 0x0 PUSH1 0x20 DUP3 ADD SWAP1 POP PUSH2 0x2637 PUSH1 0x0 DUP4 ADD DUP5 PUSH2 0x2613 JUMP JUMPDEST SWAP3 SWAP2 POP POP JUMP JUMPDEST PUSH1 0x0 DUP1 PUSH1 0x40 DUP4 DUP6 SUB SLT ISZERO PUSH2 0x2654 JUMPI PUSH2 0x2653 PUSH2 0x237C JUMP JUMPDEST JUMPDEST PUSH1 0x0 PUSH2 0x2662 DUP6 DUP3 DUP7 ADD PUSH2 0x2398 JUMP JUMPDEST SWAP3 POP POP PUSH1 0x20 PUSH2 0x2673 DUP6 DUP3 DUP7 ADD PUSH2 0x2423 JUMP JUMPDEST SWAP2 POP POP SWAP3 POP SWAP3 SWAP1 POP JUMP JUMPDEST PUSH1 0x0 DUP1 PUSH1 0x0 PUSH1 0x60 DUP5 DUP7 SUB SLT ISZERO PUSH2 0x2696 JUMPI PUSH2 0x2695 PUSH2 0x237C JUMP JUMPDEST JUMPDEST PUSH1 0x0 PUSH2 0x26A4 DUP7 DUP3 DUP8 ADD PUSH2 0x2398 JUMP JUMPDEST SWAP4 POP POP PUSH1 0x20 PUSH2 0x26B5 DUP7 DUP3 DUP8 ADD PUSH2 0x2423 JUMP JUMPDEST SWAP3 POP POP PUSH1 0x40 PUSH2 0x26C6 DUP7 DUP3 DUP8 ADD PUSH2 0x2423 JUMP JUMPDEST SWAP2 POP POP SWAP3 POP SWAP3 POP SWAP3 JUMP JUMPDEST PUSH2 0x26D9 DUP2 PUSH2 0x2501 JUMP JUMPDEST DUP2 EQ PUSH2 0x26E4 JUMPI PUSH1 0x0 DUP1 REVERT JUMPDEST POP JUMP JUMPDEST PUSH1 0x0 DUP2 CALLDATALOAD SWAP1 POP PUSH2 0x26F6 DUP2 PUSH2 0x26D0 JUMP JUMPDEST SWAP3 SWAP2 POP POP JUMP JUMPDEST PUSH2 0x2705 DUP2 PUSH2 0x2538 JUMP JUMPDEST DUP2 EQ PUSH2 0x2710 JUMPI PUSH1 0x0 DUP1 REVERT JUMPDEST POP JUMP JUMPDEST PUSH1 0x0 DUP2 CALLDATALOAD SWAP1 POP PUSH2 0x2722 DUP2 PUSH2 0x26FC JUMP JUMPDEST SWAP3 SWAP2 POP POP JUMP JUMPDEST PUSH1 0x0 DUP1 PUSH1 0x0 DUP1 PUSH1 0x0 DUP1 PUSH1 0x0 PUSH1 0xE0 DUP9 DUP11 SUB SLT ISZERO PUSH2 0x2747 JUMPI PUSH2 0x2746 PUSH2 0x237C JUMP JUMPDEST JUMPDEST PUSH1 0x0 PUSH2 0x2755 DUP11 DUP3 DUP12 ADD PUSH2 0x2423 JUMP JUMPDEST SWAP8 POP POP PUSH1 0x20 PUSH2 0x2766 DUP11 DUP3 DUP12 ADD PUSH2 0x2423 JUMP JUMPDEST SWAP7 POP POP PUSH1 0x40 PUSH2 0x2777 DUP11 DUP3 DUP12 ADD PUSH2 0x2398 JUMP JUMPDEST SWAP6 POP POP PUSH1 0x60 PUSH2 0x2788 DUP11 DUP3 DUP12 ADD PUSH2 0x2398 JUMP JUMPDEST SWAP5 POP POP PUSH1 0x80 PUSH2 0x2799 DUP11 DUP3 DUP12 ADD PUSH2 0x26E7 JUMP JUMPDEST SWAP4 POP POP PUSH1 0xA0 PUSH2 0x27AA DUP11 DUP3 DUP12 ADD PUSH2 0x2713 JUMP JUMPDEST SWAP3 POP POP PUSH1 0xC0 PUSH2 0x27BB DUP11 DUP3 DUP12 ADD PUSH2 0x2713 JUMP JUMPDEST SWAP2 POP POP SWAP3 SWAP6 SWAP9 SWAP2 SWAP5 SWAP8 POP SWAP3 SWAP6 POP JUMP JUMPDEST PUSH1 0x0 DUP1 PUSH1 0x40 DUP4 DUP6 SUB SLT ISZERO PUSH2 0x27E1 JUMPI PUSH2 0x27E0 PUSH2 0x237C JUMP JUMPDEST JUMPDEST PUSH1 0x0 PUSH2 0x27EF DUP6 DUP3 DUP7 ADD PUSH2 0x2423 JUMP JUMPDEST SWAP3 POP POP PUSH1 0x20 PUSH2 0x2800 DUP6 DUP3 DUP7 ADD PUSH2 0x2423 JUMP JUMPDEST SWAP2 POP POP SWAP3 POP SWAP3 SWAP1 POP JUMP JUMPDEST PUSH1 0x0 DUP2 MLOAD SWAP1 POP PUSH2 0x2819 DUP2 PUSH2 0x2381 JUMP JUMPDEST SWAP3 SWAP2 POP POP JUMP JUMPDEST PUSH1 0x0 PUSH1 0x20 DUP3 DUP5 SUB SLT ISZERO PUSH2 0x2835 JUMPI PUSH2 0x2834 PUSH2 0x237C JUMP JUMPDEST JUMPDEST PUSH1 0x0 PUSH2 0x2843 DUP5 DUP3 DUP6 ADD PUSH2 0x280A JUMP JUMPDEST SWAP2 POP POP SWAP3 SWAP2 POP POP JUMP JUMPDEST PUSH32 0x4E487B7100000000000000000000000000000000000000000000000000000000 PUSH1 0x0 MSTORE PUSH1 0x22 PUSH1 0x4 MSTORE PUSH1 0x24 PUSH1 0x0 REVERT JUMPDEST PUSH1 0x0 PUSH1 0x2 DUP3 DIV SWAP1 POP PUSH1 0x1 DUP3 AND DUP1 PUSH2 0x2893 JUMPI PUSH1 0x7F DUP3 AND SWAP2 POP JUMPDEST PUSH1 0x20 DUP3 LT DUP2 SUB PUSH2 0x28A6 JUMPI PUSH2 0x28A5 PUSH2 0x284C JUMP JUMPDEST JUMPDEST POP SWAP2 SWAP1 POP JUMP JUMPDEST PUSH32 0x4E487B7100000000000000000000000000000000000000000000000000000000 PUSH1 0x0 MSTORE PUSH1 0x11 PUSH1 0x4 MSTORE PUSH1 0x24 PUSH1 0x0 REVERT JUMPDEST PUSH1 0x0 PUSH2 0x28E6 DUP3 PUSH2 0x2296 JUMP JUMPDEST SWAP2 POP PUSH2 0x28F1 DUP4 PUSH2 0x2296 JUMP JUMPDEST SWAP3 POP DUP3 DUP3 SUB SWAP1 POP DUP2 DUP2 GT ISZERO PUSH2 0x2909 JUMPI PUSH2 0x2908 PUSH2 0x28AC JUMP JUMPDEST JUMPDEST SWAP3 SWAP2 POP POP JUMP JUMPDEST PUSH32 0x5A45524F5F534841524553000000000000000000000000000000000000000000 PUSH1 0x0 DUP3 ADD MSTORE POP JUMP JUMPDEST PUSH1 0x0 PUSH2 0x2945 PUSH1 0xB DUP4 PUSH2 0x22D5 JUMP JUMPDEST SWAP2 POP PUSH2 0x2950 DUP3 PUSH2 0x290F JUMP JUMPDEST PUSH1 0x20 DUP3 ADD SWAP1 POP SWAP2 SWAP1 POP JUMP JUMPDEST PUSH1 0x0 PUSH1 0x20 DUP3 ADD SWAP1 POP DUP2 DUP2 SUB PUSH1 0x0 DUP4 ADD MSTORE PUSH2 0x2974 DUP2 PUSH2 0x2938 JUMP JUMPDEST SWAP1 POP SWAP2 SWAP1 POP JUMP JUMPDEST PUSH1 0x0 PUSH1 0x40 DUP3 ADD SWAP1 POP PUSH2 0x2990 PUSH1 0x0 DUP4 ADD DUP6 PUSH2 0x22A0 JUMP JUMPDEST PUSH2 0x299D PUSH1 0x20 DUP4 ADD DUP5 PUSH2 0x22A0 JUMP JUMPDEST SWAP4 SWAP3 POP POP POP JUMP JUMPDEST PUSH32 0x4F776E61626C653A2063616C6C6572206973206E6F7420746865206D616E6167 PUSH1 0x0 DUP3 ADD MSTORE PUSH32 0x6572000000000000000000000000000000000000000000000000000000000000 PUSH1 0x20 DUP3 ADD MSTORE POP JUMP JUMPDEST PUSH1 0x0 PUSH2 0x2A00 PUSH1 0x22 DUP4 PUSH2 0x22D5 JUMP JUMPDEST SWAP2 POP PUSH2 0x2A0B DUP3 PUSH2 0x29A4 JUMP JUMPDEST PUSH1 0x40 DUP3 ADD SWAP1 POP SWAP2 SWAP1 POP JUMP JUMPDEST PUSH1 0x0 PUSH1 0x20 DUP3 ADD SWAP1 POP DUP2 DUP2 SUB PUSH1 0x0 DUP4 ADD MSTORE PUSH2 0x2A2F DUP2 PUSH2 0x29F3 JUMP JUMPDEST SWAP1 POP SWAP2 SWAP1 POP JUMP JUMPDEST PUSH32 0x4645455F544F4F5F484947480000000000000000000000000000000000000000 PUSH1 0x0 DUP3 ADD MSTORE POP JUMP JUMPDEST PUSH1 0x0 PUSH2 0x2A6C PUSH1 0xC DUP4 PUSH2 0x22D5 JUMP JUMPDEST SWAP2 POP PUSH2 0x2A77 DUP3 PUSH2 0x2A36 JUMP JUMPDEST PUSH1 0x20 DUP3 ADD SWAP1 POP SWAP2 SWAP1 POP JUMP JUMPDEST PUSH1 0x0 PUSH1 0x20 DUP3 ADD SWAP1 POP DUP2 DUP2 SUB PUSH1 0x0 DUP4 ADD MSTORE PUSH2 0x2A9B DUP2 PUSH2 0x2A5F JUMP JUMPDEST SWAP1 POP SWAP2 SWAP1 POP JUMP JUMPDEST PUSH32 0x5A45524F5F415353455453000000000000000000000000000000000000000000 PUSH1 0x0 DUP3 ADD MSTORE POP JUMP JUMPDEST PUSH1 0x0 PUSH2 0x2AD8 PUSH1 0xB DUP4 PUSH2 0x22D5 JUMP JUMPDEST SWAP2 POP PUSH2 0x2AE3 DUP3 PUSH2 0x2AA2 JUMP JUMPDEST PUSH1 0x20 DUP3 ADD SWAP1 POP SWAP2 SWAP1 POP JUMP JUMPDEST PUSH1 0x0 PUSH1 0x20 DUP3 ADD SWAP1 POP DUP2 DUP2 SUB PUSH1 0x0 DUP4 ADD MSTORE PUSH2 0x2B07 DUP2 PUSH2 0x2ACB JUMP JUMPDEST SWAP1 POP SWAP2 SWAP1 POP JUMP JUMPDEST PUSH32 0x5045524D49545F444541444C494E455F45585049524544000000000000000000 PUSH1 0x0 DUP3 ADD MSTORE POP JUMP JUMPDEST PUSH1 0x0 PUSH2 0x2B44 PUSH1 0x17 DUP4 PUSH2 0x22D5 JUMP JUMPDEST SWAP2 POP PUSH2 0x2B4F DUP3 PUSH2 0x2B0E JUMP JUMPDEST PUSH1 0x20 DUP3 ADD SWAP1 POP SWAP2 SWAP1 POP JUMP JUMPDEST PUSH1 0x0 PUSH1 0x20 DUP3 ADD SWAP1 POP DUP2 DUP2 SUB PUSH1 0x0 DUP4 ADD MSTORE PUSH2 0x2B73 DUP2 PUSH2 0x2B37 JUMP JUMPDEST SWAP1 POP SWAP2 SWAP1 POP JUMP JUMPDEST PUSH1 0x0 PUSH1 0xC0 DUP3 ADD SWAP1 POP PUSH2 0x2B8F PUSH1 0x0 DUP4 ADD DUP10 PUSH2 0x2542 JUMP JUMPDEST PUSH2 0x2B9C PUSH1 0x20 DUP4 ADD DUP9 PUSH2 0x2613 JUMP JUMPDEST PUSH2 0x2BA9 PUSH1 0x40 DUP4 ADD DUP8 PUSH2 0x2613 JUMP JUMPDEST PUSH2 0x2BB6 PUSH1 0x60 DUP4 ADD DUP7 PUSH2 0x22A0 JUMP JUMPDEST PUSH2 0x2BC3 PUSH1 0x80 DUP4 ADD DUP6 PUSH2 0x22A0 JUMP JUMPDEST PUSH2 0x2BD0 PUSH1 0xA0 DUP4 ADD DUP5 PUSH2 0x22A0 JUMP JUMPDEST SWAP8 SWAP7 POP POP POP POP POP POP POP JUMP JUMPDEST PUSH1 0x0 DUP2 SWAP1 POP SWAP3 SWAP2 POP POP JUMP JUMPDEST PUSH32 0x1901000000000000000000000000000000000000000000000000000000000000 PUSH1 0x0 DUP3 ADD MSTORE POP JUMP JUMPDEST PUSH1 0x0 PUSH2 0x2C1C PUSH1 0x2 DUP4 PUSH2 0x2BDB JUMP JUMPDEST SWAP2 POP PUSH2 0x2C27 DUP3 PUSH2 0x2BE6 JUMP JUMPDEST PUSH1 0x2 DUP3 ADD SWAP1 POP SWAP2 SWAP1 POP JUMP JUMPDEST PUSH1 0x0 DUP2 SWAP1 POP SWAP2 SWAP1 POP JUMP JUMPDEST PUSH2 0x2C4D PUSH2 0x2C48 DUP3 PUSH2 0x2538 JUMP JUMPDEST PUSH2 0x2C32 JUMP JUMPDEST DUP3 MSTORE POP POP JUMP JUMPDEST PUSH1 0x0 PUSH2 0x2C5E DUP3 PUSH2 0x2C0F JUMP JUMPDEST SWAP2 POP PUSH2 0x2C6A DUP3 DUP6 PUSH2 0x2C3C JUMP JUMPDEST PUSH1 0x20 DUP3 ADD SWAP2 POP PUSH2 0x2C7A DUP3 DUP5 PUSH2 0x2C3C JUMP JUMPDEST PUSH1 0x20 DUP3 ADD SWAP2 POP DUP2 SWAP1 POP SWAP4 SWAP3 POP POP POP JUMP JUMPDEST PUSH1 0x0 PUSH1 0x80 DUP3 ADD SWAP1 POP PUSH2 0x2C9F PUSH1 0x0 DUP4 ADD DUP8 PUSH2 0x2542 JUMP JUMPDEST PUSH2 0x2CAC PUSH1 0x20 DUP4 ADD DUP7 PUSH2 0x250E JUMP JUMPDEST PUSH2 0x2CB9 PUSH1 0x40 DUP4 ADD DUP6 PUSH2 0x2542 JUMP JUMPDEST PUSH2 0x2CC6 PUSH1 0x60 DUP4 ADD DUP5 PUSH2 0x2542 JUMP JUMPDEST SWAP6 SWAP5 POP POP POP POP POP JUMP JUMPDEST PUSH32 0x494E56414C49445F5349474E4552000000000000000000000000000000000000 PUSH1 0x0 DUP3 ADD MSTORE POP JUMP JUMPDEST PUSH1 0x0 PUSH2 0x2D05 PUSH1 0xE DUP4 PUSH2 0x22D5 JUMP JUMPDEST SWAP2 POP PUSH2 0x2D10 DUP3 PUSH2 0x2CCF JUMP JUMPDEST PUSH1 0x20 DUP3 ADD SWAP1 POP SWAP2 SWAP1 POP JUMP JUMPDEST PUSH1 0x0 PUSH1 0x20 DUP3 ADD SWAP1 POP DUP2 DUP2 SUB PUSH1 0x0 DUP4 ADD MSTORE PUSH2 0x2D34 DUP2 PUSH2 0x2CF8 JUMP JUMPDEST SWAP1 POP SWAP2 SWAP1 POP JUMP JUMPDEST PUSH32 0x4F776E61626C653A206E6577206D616E6167657220697320746865207A65726F PUSH1 0x0 DUP3 ADD MSTORE PUSH32 0x2061646472657373000000000000000000000000000000000000000000000000 PUSH1 0x20 DUP3 ADD MSTORE POP JUMP JUMPDEST PUSH1 0x0 PUSH2 0x2D97 PUSH1 0x28 DUP4 PUSH2 0x22D5 JUMP JUMPDEST SWAP2 POP PUSH2 0x2DA2 DUP3 PUSH2 0x2D3B JUMP JUMPDEST PUSH1 0x40 DUP3 ADD SWAP1 POP SWAP2 SWAP1 POP JUMP JUMPDEST PUSH1 0x0 PUSH1 0x20 DUP3 ADD SWAP1 POP DUP2 DUP2 SUB PUSH1 0x0 DUP4 ADD MSTORE PUSH2 0x2DC6 DUP2 PUSH2 0x2D8A JUMP JUMPDEST SWAP1 POP SWAP2 SWAP1 POP JUMP JUMPDEST PUSH1 0x0 DUP2 SWAP1 POP SWAP3 SWAP2 POP POP JUMP JUMPDEST PUSH1 0x0 DUP2 SWAP1 POP DUP2 PUSH1 0x0 MSTORE PUSH1 0x20 PUSH1 0x0 KECCAK256 SWAP1 POP SWAP2 SWAP1 POP JUMP JUMPDEST PUSH1 0x0 DUP2 SLOAD PUSH2 0x2DFA DUP2 PUSH2 0x287B JUMP JUMPDEST PUSH2 0x2E04 DUP2 DUP7 PUSH2 0x2DCD JUMP JUMPDEST SWAP5 POP PUSH1 0x1 DUP3 AND PUSH1 0x0 DUP2 EQ PUSH2 0x2E1F JUMPI PUSH1 0x1 DUP2 EQ PUSH2 0x2E34 JUMPI PUSH2 0x2E67 JUMP JUMPDEST PUSH1 0xFF NOT DUP4 AND DUP7 MSTORE DUP2 ISZERO ISZERO DUP3 MUL DUP7 ADD SWAP4 POP PUSH2 0x2E67 JUMP JUMPDEST PUSH2 0x2E3D DUP6 PUSH2 0x2DD8 JUMP JUMPDEST PUSH1 0x0 JUMPDEST DUP4 DUP2 LT ISZERO PUSH2 0x2E5F JUMPI DUP2 SLOAD DUP2 DUP10 ADD MSTORE PUSH1 0x1 DUP3 ADD SWAP2 POP PUSH1 0x20 DUP2 ADD SWAP1 POP PUSH2 0x2E40 JUMP JUMPDEST DUP4 DUP9 ADD SWAP6 POP POP POP JUMPDEST POP POP POP SWAP3 SWAP2 POP POP JUMP JUMPDEST PUSH1 0x0 PUSH2 0x2E7C DUP3 DUP5 PUSH2 0x2DED JUMP JUMPDEST SWAP2 POP DUP2 SWAP1 POP SWAP3 SWAP2 POP POP JUMP JUMPDEST PUSH1 0x0 PUSH1 0xA0 DUP3 ADD SWAP1 POP PUSH2 0x2E9C PUSH1 0x0 DUP4 ADD DUP9 PUSH2 0x2542 JUMP JUMPDEST PUSH2 0x2EA9 PUSH1 0x20 DUP4 ADD DUP8 PUSH2 0x2542 JUMP JUMPDEST PUSH2 0x2EB6 PUSH1 0x40 DUP4 ADD DUP7 PUSH2 0x2542 JUMP JUMPDEST PUSH2 0x2EC3 PUSH1 0x60 DUP4 ADD DUP6 PUSH2 0x22A0 JUMP JUMPDEST PUSH2 0x2ED0 PUSH1 0x80 DUP4 ADD DUP5 PUSH2 0x2613 JUMP JUMPDEST SWAP7 SWAP6 POP POP POP POP POP POP JUMP JUMPDEST PUSH32 0x5452414E534645525F46524F4D5F4641494C4544000000000000000000000000 PUSH1 0x0 DUP3 ADD MSTORE POP JUMP JUMPDEST PUSH1 0x0 PUSH2 0x2F10 PUSH1 0x14 DUP4 PUSH2 0x22D5 JUMP JUMPDEST SWAP2 POP PUSH2 0x2F1B DUP3 PUSH2 0x2EDA JUMP JUMPDEST PUSH1 0x20 DUP3 ADD SWAP1 POP SWAP2 SWAP1 POP JUMP JUMPDEST PUSH1 0x0 PUSH1 0x20 DUP3 ADD SWAP1 POP DUP2 DUP2 SUB PUSH1 0x0 DUP4 ADD MSTORE PUSH2 0x2F3F DUP2 PUSH2 0x2F03 JUMP JUMPDEST SWAP1 POP SWAP2 SWAP1 POP JUMP JUMPDEST PUSH1 0x0 PUSH2 0x2F51 DUP3 PUSH2 0x2296 JUMP JUMPDEST SWAP2 POP PUSH2 0x2F5C DUP4 PUSH2 0x2296 JUMP JUMPDEST SWAP3 POP DUP3 DUP3 ADD SWAP1 POP DUP1 DUP3 GT ISZERO PUSH2 0x2F74 JUMPI PUSH2 0x2F73 PUSH2 0x28AC JUMP JUMPDEST JUMPDEST SWAP3 SWAP2 POP POP JUMP JUMPDEST PUSH1 0x0 PUSH2 0x2F85 DUP3 PUSH2 0x2296 JUMP JUMPDEST SWAP2 POP PUSH32 0xFFFFFFFFFFFFFFFFFFFFFFFFFFFFFFFFFFFFFFFFFFFFFFFFFFFFFFFFFFFFFFFF DUP3 SUB PUSH2 0x2FB7 JUMPI PUSH2 0x2FB6 PUSH2 0x28AC JUMP JUMPDEST JUMPDEST PUSH1 0x1 DUP3 ADD SWAP1 POP SWAP2 SWAP1 POP JUMP JUMPDEST PUSH32 0x5452414E534645525F4641494C45440000000000000000000000000000000000 PUSH1 0x0 DUP3 ADD MSTORE POP JUMP JUMPDEST PUSH1 0x0 PUSH2 0x2FF8 PUSH1 0xF DUP4 PUSH2 0x22D5 JUMP JUMPDEST SWAP2 POP PUSH2 0x3003 DUP3 PUSH2 0x2FC2 JUMP JUMPDEST PUSH1 0x20 DUP3 ADD SWAP1 POP SWAP2 SWAP1 POP JUMP JUMPDEST PUSH1 0x0 PUSH1 0x20 DUP3 ADD SWAP1 POP DUP2 DUP2 SUB PUSH1 0x0 DUP4 ADD MSTORE PUSH2 0x3027 DUP2 PUSH2 0x2FEB JUMP JUMPDEST SWAP1 POP SWAP2 SWAP1 POP JUMP INVALID LOG2 PUSH5 0x6970667358 0x22 SLT KECCAK256 0xB4 0xDF COINBASE SWAP16 SELFBALANCE SWAP12 PUSH12 0x5C4DEB195A41E5D76BA1BCF8 0xC2 0xA6 0xE2 0xF9 SWAP6 0xB9 0xAF SLOAD 0x22 0xDB 0xE2 RETURNDATACOPY 0xF PUSH5 0x736F6C6343 STOP ADDMOD LT STOP CALLER "
				},
				"gasEstimates": {
					"creation": {
						"codeDepositCost": "2477600",
						"executionCost": "infinite",
						"totalCost": "infinite"
					},
					"external": {
						"DOMAIN_SEPARATOR()": "infinite",
						"afterDepositHookCalledCounter()": "2561",
						"allowance(address,address)": "infinite",
						"approve(address,uint256)": "infinite",
						"asset()": "infinite",
						"balanceOf(address)": "2903",
						"beforeWithdrawHookCalledCounter()": "2562",
						"convertToAssets(uint256)": "infinite",
						"convertToShares(uint256)": "infinite",
						"decimals()": "infinite",
						"deposit(uint256,address)": "infinite",
						"feePercent()": "2497",
						"manager()": "2634",
						"maxDeposit(address)": "741",
						"maxMint(address)": "696",
						"maxRedeem(address)": "2885",
						"maxWithdraw(address)": "infinite",
						"mint(uint256,address)": "infinite",
						"name()": "infinite",
						"nonces(address)": "2860",
						"permit(address,address,uint256,uint256,uint8,bytes32,bytes32)": "infinite",
						"previewDeposit(uint256)": "infinite",
						"previewMint(uint256)": "infinite",
						"previewRedeem(uint256)": "infinite",
						"previewWithdraw(uint256)": "infinite",
						"redeem(uint256,address,address)": "infinite",
						"renounceOwnership()": "30408",
						"setFeePercent(uint256)": "infinite",
						"symbol()": "infinite",
						"totalAssets()": "infinite",
						"totalSupply()": "2497",
						"transfer(address,uint256)": "infinite",
						"transferFrom(address,address,uint256)": "infinite",
						"transferOwnership(address)": "30753",
						"withdraw(uint256,address,address)": "infinite"
					},
					"internal": {
						"afterDeposit(uint256,uint256)": "24370",
						"beforeWithdraw(uint256,uint256)": "24370",
						"strategyACall(address,uint256,uint160)": "infinite"
					}
				},
				"methodIdentifiers": {
					"DOMAIN_SEPARATOR()": "3644e515",
					"afterDepositHookCalledCounter()": "fc407ae7",
					"allowance(address,address)": "dd62ed3e",
					"approve(address,uint256)": "095ea7b3",
					"asset()": "38d52e0f",
					"balanceOf(address)": "70a08231",
					"beforeWithdrawHookCalledCounter()": "bc368a8a",
					"convertToAssets(uint256)": "07a2d13a",
					"convertToShares(uint256)": "c6e6f592",
					"decimals()": "313ce567",
					"deposit(uint256,address)": "6e553f65",
					"feePercent()": "7fd6f15c",
					"manager()": "481c6a75",
					"maxDeposit(address)": "402d267d",
					"maxMint(address)": "c63d75b6",
					"maxRedeem(address)": "d905777e",
					"maxWithdraw(address)": "ce96cb77",
					"mint(uint256,address)": "94bf804d",
					"name()": "06fdde03",
					"nonces(address)": "7ecebe00",
					"permit(address,address,uint256,uint256,uint8,bytes32,bytes32)": "d505accf",
					"previewDeposit(uint256)": "ef8b30f7",
					"previewMint(uint256)": "b3d7f6b9",
					"previewRedeem(uint256)": "4cdad506",
					"previewWithdraw(uint256)": "0a28a477",
					"redeem(uint256,address,address)": "ba087652",
					"renounceOwnership()": "715018a6",
					"setFeePercent(uint256)": "7ce3489b",
					"symbol()": "95d89b41",
					"totalAssets()": "01e1d114",
					"totalSupply()": "18160ddd",
					"transfer(address,uint256)": "a9059cbb",
					"transferFrom(address,address,uint256)": "23b872dd",
					"transferOwnership(address)": "f2fde38b",
					"withdraw(uint256,address,address)": "b460af94"
				}
			},
			"storageLayout": {
				"storage": [
					{
						"astId": 20,
						"contract": "SquiddyCore.sol:SquiddyCore",
						"label": "name",
						"offset": 0,
						"slot": "0",
						"type": "t_string_storage"
					},
					{
						"astId": 22,
						"contract": "SquiddyCore.sol:SquiddyCore",
						"label": "symbol",
						"offset": 0,
						"slot": "1",
						"type": "t_string_storage"
					},
					{
						"astId": 26,
						"contract": "SquiddyCore.sol:SquiddyCore",
						"label": "totalSupply",
						"offset": 0,
						"slot": "2",
						"type": "t_uint256"
					},
					{
						"astId": 30,
						"contract": "SquiddyCore.sol:SquiddyCore",
						"label": "balanceOf",
						"offset": 0,
						"slot": "3",
						"type": "t_mapping(t_address,t_uint256)"
					},
					{
						"astId": 36,
						"contract": "SquiddyCore.sol:SquiddyCore",
						"label": "allowance",
						"offset": 0,
						"slot": "4",
						"type": "t_mapping(t_address,t_mapping(t_address,t_uint256))"
					},
					{
						"astId": 44,
						"contract": "SquiddyCore.sol:SquiddyCore",
						"label": "nonces",
						"offset": 0,
						"slot": "5",
						"type": "t_mapping(t_address,t_uint256)"
					},
					{
						"astId": 1122,
						"contract": "SquiddyCore.sol:SquiddyCore",
						"label": "_manager",
						"offset": 0,
						"slot": "6",
						"type": "t_address"
					},
					{
						"astId": 1125,
						"contract": "SquiddyCore.sol:SquiddyCore",
						"label": "beforeWithdrawHookCalledCounter",
						"offset": 0,
						"slot": "7",
						"type": "t_uint256"
					},
					{
						"astId": 1128,
						"contract": "SquiddyCore.sol:SquiddyCore",
						"label": "afterDepositHookCalledCounter",
						"offset": 0,
						"slot": "8",
						"type": "t_uint256"
					},
					{
						"astId": 1327,
						"contract": "SquiddyCore.sol:SquiddyCore",
						"label": "feePercent",
						"offset": 0,
						"slot": "9",
						"type": "t_uint256"
					}
				],
				"types": {
					"t_address": {
						"encoding": "inplace",
						"label": "address",
						"numberOfBytes": "20"
					},
					"t_mapping(t_address,t_mapping(t_address,t_uint256))": {
						"encoding": "mapping",
						"key": "t_address",
						"label": "mapping(address => mapping(address => uint256))",
						"numberOfBytes": "32",
						"value": "t_mapping(t_address,t_uint256)"
					},
					"t_mapping(t_address,t_uint256)": {
						"encoding": "mapping",
						"key": "t_address",
						"label": "mapping(address => uint256)",
						"numberOfBytes": "32",
						"value": "t_uint256"
					},
					"t_string_storage": {
						"encoding": "bytes",
						"label": "string",
						"numberOfBytes": "32"
					},
					"t_uint256": {
						"encoding": "inplace",
						"label": "uint256",
						"numberOfBytes": "32"
					}
				}
			},
			"userdoc": {
				"events": {
					"FeePercentUpdated(address,uint256)": {
						"notice": "Emitted when the fee percentage is updated."
					}
				},
				"kind": "user",
				"methods": {
					"feePercent()": {
						"notice": "The percentage of profit recognized each harvest to reserve as fees."
					},
					"setFeePercent(uint256)": {
						"notice": "Sets a new fee percentage."
					}
				},
				"version": 1
			}
		}
	}
}