{
	"MockERC4626.sol": {
		"MockERC4626": {
			"abi": [
				{
					"inputs": [
						{
							"internalType": "contract ERC20",
							"name": "_underlying",
							"type": "address"
						},
						{
							"internalType": "string",
							"name": "_name",
							"type": "string"
						},
						{
							"internalType": "string",
							"name": "_symbol",
							"type": "string"
						},
						{
							"internalType": "uint8",
							"name": "_decimals",
							"type": "uint8"
						}
					],
					"stateMutability": "nonpayable",
					"type": "constructor"
				},
				{
					"anonymous": false,
					"inputs": [
						{
							"indexed": true,
							"internalType": "address",
							"name": "owner",
							"type": "address"
						},
						{
							"indexed": true,
							"internalType": "address",
							"name": "spender",
							"type": "address"
						},
						{
							"indexed": false,
							"internalType": "uint256",
							"name": "amount",
							"type": "uint256"
						}
					],
					"name": "Approval",
					"type": "event"
				},
				{
					"anonymous": false,
					"inputs": [
						{
							"indexed": true,
							"internalType": "address",
							"name": "caller",
							"type": "address"
						},
						{
							"indexed": true,
							"internalType": "address",
							"name": "owner",
							"type": "address"
						},
						{
							"indexed": false,
							"internalType": "uint256",
							"name": "assets",
							"type": "uint256"
						},
						{
							"indexed": false,
							"internalType": "uint256",
							"name": "shares",
							"type": "uint256"
						}
					],
					"name": "Deposit",
					"type": "event"
				},
				{
					"anonymous": false,
					"inputs": [
						{
							"indexed": true,
							"internalType": "address",
							"name": "caller",
							"type": "address"
						},
						{
							"indexed": true,
							"internalType": "address",
							"name": "owner",
							"type": "address"
						},
						{
							"indexed": false,
							"internalType": "uint256",
							"name": "assets",
							"type": "uint256"
						},
						{
							"indexed": false,
							"internalType": "uint256",
							"name": "shares",
							"type": "uint256"
						}
					],
					"name": "StrategyIni",
					"type": "event"
				},
				{
					"anonymous": false,
					"inputs": [
						{
							"indexed": true,
							"internalType": "address",
							"name": "from",
							"type": "address"
						},
						{
							"indexed": true,
							"internalType": "address",
							"name": "to",
							"type": "address"
						},
						{
							"indexed": false,
							"internalType": "uint256",
							"name": "amount",
							"type": "uint256"
						}
					],
					"name": "Transfer",
					"type": "event"
				},
				{
					"anonymous": false,
					"inputs": [
						{
							"indexed": true,
							"internalType": "address",
							"name": "caller",
							"type": "address"
						},
						{
							"indexed": true,
							"internalType": "address",
							"name": "receiver",
							"type": "address"
						},
						{
							"indexed": true,
							"internalType": "address",
							"name": "owner",
							"type": "address"
						},
						{
							"indexed": false,
							"internalType": "uint256",
							"name": "assets",
							"type": "uint256"
						},
						{
							"indexed": false,
							"internalType": "uint256",
							"name": "shares",
							"type": "uint256"
						}
					],
					"name": "Withdraw",
					"type": "event"
				},
				{
					"inputs": [],
					"name": "DOMAIN_SEPARATOR",
					"outputs": [
						{
							"internalType": "bytes32",
							"name": "",
							"type": "bytes32"
						}
					],
					"stateMutability": "view",
					"type": "function"
				},
				{
					"inputs": [],
					"name": "afterDepositHookCalledCounter",
					"outputs": [
						{
							"internalType": "uint256",
							"name": "",
							"type": "uint256"
						}
					],
					"stateMutability": "view",
					"type": "function"
				},
				{
					"inputs": [
						{
							"internalType": "address",
							"name": "",
							"type": "address"
						},
						{
							"internalType": "address",
							"name": "",
							"type": "address"
						}
					],
					"name": "allowance",
					"outputs": [
						{
							"internalType": "uint256",
							"name": "",
							"type": "uint256"
						}
					],
					"stateMutability": "view",
					"type": "function"
				},
				{
					"inputs": [
						{
							"internalType": "address",
							"name": "spender",
							"type": "address"
						},
						{
							"internalType": "uint256",
							"name": "amount",
							"type": "uint256"
						}
					],
					"name": "approve",
					"outputs": [
						{
							"internalType": "bool",
							"name": "",
							"type": "bool"
						}
					],
					"stateMutability": "nonpayable",
					"type": "function"
				},
				{
					"inputs": [],
					"name": "asset",
					"outputs": [
						{
							"internalType": "contract ERC20",
							"name": "",
							"type": "address"
						}
					],
					"stateMutability": "view",
					"type": "function"
				},
				{
					"inputs": [
						{
							"internalType": "address",
							"name": "",
							"type": "address"
						}
					],
					"name": "balanceOf",
					"outputs": [
						{
							"internalType": "uint256",
							"name": "",
							"type": "uint256"
						}
					],
					"stateMutability": "view",
					"type": "function"
				},
				{
					"inputs": [],
					"name": "beforeWithdrawHookCalledCounter",
					"outputs": [
						{
							"internalType": "uint256",
							"name": "",
							"type": "uint256"
						}
					],
					"stateMutability": "view",
					"type": "function"
				},
				{
					"inputs": [
						{
							"internalType": "uint256",
							"name": "shares",
							"type": "uint256"
						}
					],
					"name": "convertToAssets",
					"outputs": [
						{
							"internalType": "uint256",
							"name": "",
							"type": "uint256"
						}
					],
					"stateMutability": "view",
					"type": "function"
				},
				{
					"inputs": [
						{
							"internalType": "uint256",
							"name": "assets",
							"type": "uint256"
						}
					],
					"name": "convertToShares",
					"outputs": [
						{
							"internalType": "uint256",
							"name": "",
							"type": "uint256"
						}
					],
					"stateMutability": "view",
					"type": "function"
				},
				{
					"inputs": [],
					"name": "decimals",
					"outputs": [
						{
							"internalType": "uint8",
							"name": "",
							"type": "uint8"
						}
					],
					"stateMutability": "view",
					"type": "function"
				},
				{
					"inputs": [
						{
							"internalType": "uint256",
							"name": "assets",
							"type": "uint256"
						},
						{
							"internalType": "address",
							"name": "receiver",
							"type": "address"
						}
					],
					"name": "deposit",
					"outputs": [
						{
							"internalType": "uint256",
							"name": "shares",
							"type": "uint256"
						}
					],
					"stateMutability": "nonpayable",
					"type": "function"
				},
				{
					"inputs": [
						{
							"internalType": "address",
							"name": "",
							"type": "address"
						}
					],
					"name": "maxDeposit",
					"outputs": [
						{
							"internalType": "uint256",
							"name": "",
							"type": "uint256"
						}
					],
					"stateMutability": "view",
					"type": "function"
				},
				{
					"inputs": [
						{
							"internalType": "address",
							"name": "",
							"type": "address"
						}
					],
					"name": "maxMint",
					"outputs": [
						{
							"internalType": "uint256",
							"name": "",
							"type": "uint256"
						}
					],
					"stateMutability": "view",
					"type": "function"
				},
				{
					"inputs": [
						{
							"internalType": "address",
							"name": "owner",
							"type": "address"
						}
					],
					"name": "maxRedeem",
					"outputs": [
						{
							"internalType": "uint256",
							"name": "",
							"type": "uint256"
						}
					],
					"stateMutability": "view",
					"type": "function"
				},
				{
					"inputs": [
						{
							"internalType": "address",
							"name": "owner",
							"type": "address"
						}
					],
					"name": "maxWithdraw",
					"outputs": [
						{
							"internalType": "uint256",
							"name": "",
							"type": "uint256"
						}
					],
					"stateMutability": "view",
					"type": "function"
				},
				{
					"inputs": [
						{
							"internalType": "uint256",
							"name": "shares",
							"type": "uint256"
						},
						{
							"internalType": "address",
							"name": "receiver",
							"type": "address"
						}
					],
					"name": "mint",
					"outputs": [
						{
							"internalType": "uint256",
							"name": "assets",
							"type": "uint256"
						}
					],
					"stateMutability": "nonpayable",
					"type": "function"
				},
				{
					"inputs": [],
					"name": "name",
					"outputs": [
						{
							"internalType": "string",
							"name": "",
							"type": "string"
						}
					],
					"stateMutability": "view",
					"type": "function"
				},
				{
					"inputs": [
						{
							"internalType": "address",
							"name": "",
							"type": "address"
						}
					],
					"name": "nonces",
					"outputs": [
						{
							"internalType": "uint256",
							"name": "",
							"type": "uint256"
						}
					],
					"stateMutability": "view",
					"type": "function"
				},
				{
					"inputs": [
						{
							"internalType": "address",
							"name": "owner",
							"type": "address"
						},
						{
							"internalType": "address",
							"name": "spender",
							"type": "address"
						},
						{
							"internalType": "uint256",
							"name": "value",
							"type": "uint256"
						},
						{
							"internalType": "uint256",
							"name": "deadline",
							"type": "uint256"
						},
						{
							"internalType": "uint8",
							"name": "v",
							"type": "uint8"
						},
						{
							"internalType": "bytes32",
							"name": "r",
							"type": "bytes32"
						},
						{
							"internalType": "bytes32",
							"name": "s",
							"type": "bytes32"
						}
					],
					"name": "permit",
					"outputs": [],
					"stateMutability": "nonpayable",
					"type": "function"
				},
				{
					"inputs": [
						{
							"internalType": "uint256",
							"name": "assets",
							"type": "uint256"
						}
					],
					"name": "previewDeposit",
					"outputs": [
						{
							"internalType": "uint256",
							"name": "",
							"type": "uint256"
						}
					],
					"stateMutability": "view",
					"type": "function"
				},
				{
					"inputs": [
						{
							"internalType": "uint256",
							"name": "shares",
							"type": "uint256"
						}
					],
					"name": "previewMint",
					"outputs": [
						{
							"internalType": "uint256",
							"name": "",
							"type": "uint256"
						}
					],
					"stateMutability": "view",
					"type": "function"
				},
				{
					"inputs": [
						{
							"internalType": "uint256",
							"name": "shares",
							"type": "uint256"
						}
					],
					"name": "previewRedeem",
					"outputs": [
						{
							"internalType": "uint256",
							"name": "",
							"type": "uint256"
						}
					],
					"stateMutability": "view",
					"type": "function"
				},
				{
					"inputs": [
						{
							"internalType": "uint256",
							"name": "assets",
							"type": "uint256"
						}
					],
					"name": "previewWithdraw",
					"outputs": [
						{
							"internalType": "uint256",
							"name": "",
							"type": "uint256"
						}
					],
					"stateMutability": "view",
					"type": "function"
				},
				{
					"inputs": [
						{
							"internalType": "uint256",
							"name": "shares",
							"type": "uint256"
						},
						{
							"internalType": "address",
							"name": "receiver",
							"type": "address"
						},
						{
							"internalType": "address",
							"name": "owner",
							"type": "address"
						}
					],
					"name": "redeem",
					"outputs": [
						{
							"internalType": "uint256",
							"name": "assets",
							"type": "uint256"
						}
					],
					"stateMutability": "nonpayable",
					"type": "function"
				},
				{
					"inputs": [],
					"name": "symbol",
					"outputs": [
						{
							"internalType": "string",
							"name": "",
							"type": "string"
						}
					],
					"stateMutability": "view",
					"type": "function"
				},
				{
					"inputs": [],
					"name": "totalAssets",
					"outputs": [
						{
							"internalType": "uint256",
							"name": "",
							"type": "uint256"
						}
					],
					"stateMutability": "view",
					"type": "function"
				},
				{
					"inputs": [],
					"name": "totalSupply",
					"outputs": [
						{
							"internalType": "uint256",
							"name": "",
							"type": "uint256"
						}
					],
					"stateMutability": "view",
					"type": "function"
				},
				{
					"inputs": [
						{
							"internalType": "address",
							"name": "to",
							"type": "address"
						},
						{
							"internalType": "uint256",
							"name": "amount",
							"type": "uint256"
						}
					],
					"name": "transfer",
					"outputs": [
						{
							"internalType": "bool",
							"name": "",
							"type": "bool"
						}
					],
					"stateMutability": "nonpayable",
					"type": "function"
				},
				{
					"inputs": [
						{
							"internalType": "address",
							"name": "from",
							"type": "address"
						},
						{
							"internalType": "address",
							"name": "to",
							"type": "address"
						},
						{
							"internalType": "uint256",
							"name": "amount",
							"type": "uint256"
						}
					],
					"name": "transferFrom",
					"outputs": [
						{
							"internalType": "bool",
							"name": "",
							"type": "bool"
						}
					],
					"stateMutability": "nonpayable",
					"type": "function"
				},
				{
					"inputs": [
						{
							"internalType": "uint256",
							"name": "assets",
							"type": "uint256"
						},
						{
							"internalType": "address",
							"name": "receiver",
							"type": "address"
						},
						{
							"internalType": "address",
							"name": "owner",
							"type": "address"
						}
					],
					"name": "withdraw",
					"outputs": [
						{
							"internalType": "uint256",
							"name": "shares",
							"type": "uint256"
						}
					],
					"stateMutability": "nonpayable",
					"type": "function"
				}
			],
			"devdoc": {
				"kind": "dev",
				"methods": {},
				"version": 1
			},
			"evm": {
				"assembly": "    /* \"MockERC4626.sol\":143:1018  contract MockERC4626 is ERC4626 {... */\n  mstore(0x40, 0x0100)\n    /* \"MockERC4626.sol\":230:231  0 */\n  0x00\n    /* \"MockERC4626.sol\":181:231  uint256 public beforeWithdrawHookCalledCounter = 0 */\n  0x06\n  sstore\n    /* \"MockERC4626.sol\":284:285  0 */\n  0x00\n    /* \"MockERC4626.sol\":237:285  uint256 public afterDepositHookCalledCounter = 0 */\n  0x07\n  sstore\n    /* \"MockERC4626.sol\":486:666  constructor(... */\n  callvalue\n  dup1\n  iszero\n  tag_1\n  jumpi\n  0x00\n  dup1\n  revert\ntag_1:\n  pop\n  mload(0x40)\n  sub(codesize, bytecodeSize)\n  dup1\n  bytecodeSize\n  dup4\n  codecopy\n  dup2\n  dup2\n  add\n  0x40\n  mstore\n  dup2\n  add\n  swap1\n  tag_2\n  swap2\n  swap1\n  tag_3\n  jump\t// in\ntag_2:\n    /* \"MockERC4626.sol\":624:635  _underlying */\n  dup4\n    /* \"MockERC4626.sol\":637:642  _name */\n  dup4\n    /* \"MockERC4626.sol\":644:651  _symbol */\n  dup4\n    /* \"MockERC4626.sol\":653:662  _decimals */\n  dup4\n    /* \"ERC4626.sol\":1331:1336  _name */\n  dup3\n    /* \"ERC4626.sol\":1338:1345  _symbol */\n  dup3\n    /* \"ERC4626.sol\":1347:1356  _decimals */\n  dup3\n    /* \"ERC20.sol\":2131:2136  _name */\n  dup3\n    /* \"ERC20.sol\":2124:2128  name */\n  0x00\n    /* \"ERC20.sol\":2124:2136  name = _name */\n  swap1\n  dup1\n  mload\n  swap1\n  0x20\n  add\n  swap1\n  tag_8\n  swap3\n  swap2\n  swap1\n  tag_9\n  jump\t// in\ntag_8:\n  pop\n    /* \"ERC20.sol\":2155:2162  _symbol */\n  dup2\n    /* \"ERC20.sol\":2146:2152  symbol */\n  0x01\n    /* \"ERC20.sol\":2146:2162  symbol = _symbol */\n  swap1\n  dup1\n  mload\n  swap1\n  0x20\n  add\n  swap1\n  tag_10\n  swap3\n  swap2\n  swap1\n  tag_9\n  jump\t// in\ntag_10:\n  pop\n    /* \"ERC20.sol\":2183:2192  _decimals */\n  dup1\n    /* \"ERC20.sol\":2172:2192  decimals = _decimals */\n  0xff\n  and\n  0x80\n  dup2\n  0xff\n  and\n  0xf8\n  shl\n  dup2\n  mstore\n  pop\n  pop\n    /* \"ERC20.sol\":2222:2235  block.chainid */\n  chainid\n    /* \"ERC20.sol\":2203:2235  INITIAL_CHAIN_ID = block.chainid */\n  0xa0\n  dup2\n  dup2\n  mstore\n  pop\n  pop\n    /* \"ERC20.sol\":2272:2296  computeDomainSeparator() */\n  tag_11\n    /* \"ERC20.sol\":2272:2294  computeDomainSeparator */\n  shl(0x20, tag_12)\n    /* \"ERC20.sol\":2272:2296  computeDomainSeparator() */\n  0x20\n  shr\n  jump\t// in\ntag_11:\n    /* \"ERC20.sol\":2245:2296  INITIAL_DOMAIN_SEPARATOR = computeDomainSeparator() */\n  0xc0\n  dup2\n  dup2\n  mstore\n  pop\n  pop\n    /* \"ERC20.sol\":2011:2303  constructor(... */\n  pop\n  pop\n  pop\n    /* \"ERC4626.sol\":1376:1382  _asset */\n  dup4\n    /* \"ERC4626.sol\":1368:1382  asset = _asset */\n  0xffffffffffffffffffffffffffffffffffffffff\n  and\n  0xe0\n  dup2\n  0xffffffffffffffffffffffffffffffffffffffff\n  and\n  0x60\n  shl\n  dup2\n  mstore\n  pop\n  pop\n    /* \"ERC4626.sol\":1200:1389  constructor(... */\n  pop\n  pop\n  pop\n  pop\n    /* \"MockERC4626.sol\":486:666  constructor(... */\n  pop\n  pop\n  pop\n  pop\n    /* \"MockERC4626.sol\":143:1018  contract MockERC4626 is ERC4626 {... */\n  jump(tag_15)\n    /* \"ERC20.sol\":5698:6190  function computeDomainSeparator() internal view virtual returns (bytes32) {... */\ntag_12:\n    /* \"ERC20.sol\":5763:5770  bytes32 */\n  0x00\n    /* \"ERC20.sol\":5860:6001  keccak256(... */\n  0x8b73c3c69bb8fe3d512ecc4cf759cc79239f7b179b0ffacaa9a75d522b39400f\n    /* \"ERC20.sol\":6039:6043  name */\n  0x00\n    /* \"ERC20.sol\":6023:6045  keccak256(bytes(name)) */\n  mload(0x40)\n  tag_17\n  swap2\n  swap1\n  tag_18\n  jump\t// in\ntag_17:\n  mload(0x40)\n  dup1\n  swap2\n  sub\n  swap1\n  keccak256\n    /* \"ERC20.sol\":6067:6081  keccak256(\"1\") */\n  0xc89efdaa54c0f20c7adf612882df0950f5a951637e0307cdcb4c672f298b8bc6\n    /* \"ERC20.sol\":6103:6116  block.chainid */\n  chainid\n    /* \"ERC20.sol\":6146:6150  this */\n  address\n    /* \"ERC20.sol\":5828:6169  abi.encode(... */\n  add(0x20, mload(0x40))\n  tag_19\n  swap6\n  swap5\n  swap4\n  swap3\n  swap2\n  swap1\n  tag_20\n  jump\t// in\ntag_19:\n  mload(0x40)\n  0x20\n  dup2\n  dup4\n  sub\n  sub\n  dup2\n  mstore\n  swap1\n  0x40\n  mstore\n    /* \"ERC20.sol\":5801:6183  keccak256(... */\n  dup1\n  mload\n  swap1\n  0x20\n  add\n  keccak256\n    /* \"ERC20.sol\":5782:6183  return... */\n  swap1\n  pop\n    /* \"ERC20.sol\":5698:6190  function computeDomainSeparator() internal view virtual returns (bytes32) {... */\n  swap1\n  jump\t// out\n    /* \"MockERC4626.sol\":143:1018  contract MockERC4626 is ERC4626 {... */\ntag_9:\n  dup3\n  dup1\n  sload\n  tag_21\n  swap1\n  tag_22\n  jump\t// in\ntag_21:\n  swap1\n  0x00\n  mstore\n  keccak256(0x00, 0x20)\n  swap1\n  0x1f\n  add\n  0x20\n  swap1\n  div\n  dup2\n  add\n  swap3\n  dup3\n  tag_24\n  jumpi\n  0x00\n  dup6\n  sstore\n  jump(tag_23)\ntag_24:\n  dup3\n  0x1f\n  lt\n  tag_25\n  jumpi\n  dup1\n  mload\n  not(0xff)\n  and\n  dup4\n  dup1\n  add\n  or\n  dup6\n  sstore\n  jump(tag_23)\ntag_25:\n  dup3\n  dup1\n  add\n  0x01\n  add\n  dup6\n  sstore\n  dup3\n  iszero\n  tag_23\n  jumpi\n  swap2\n  dup3\n  add\ntag_26:\n  dup3\n  dup2\n  gt\n  iszero\n  tag_27\n  jumpi\n  dup3\n  mload\n  dup3\n  sstore\n  swap2\n  0x20\n  add\n  swap2\n  swap1\n  0x01\n  add\n  swap1\n  jump(tag_26)\ntag_27:\ntag_23:\n  pop\n  swap1\n  pop\n  tag_28\n  swap2\n  swap1\n  tag_29\n  jump\t// in\ntag_28:\n  pop\n  swap1\n  jump\t// out\ntag_29:\ntag_30:\n  dup1\n  dup3\n  gt\n  iszero\n  tag_31\n  jumpi\n  0x00\n  dup2\n  0x00\n  swap1\n  sstore\n  pop\n  0x01\n  add\n  jump(tag_30)\ntag_31:\n  pop\n  swap1\n  jump\t// out\n    /* \"#utility.yul\":7:428   */\ntag_33:\n    /* \"#utility.yul\":96:101   */\n  0x00\n    /* \"#utility.yul\":121:187   */\n  tag_35\n    /* \"#utility.yul\":137:186   */\n  tag_36\n    /* \"#utility.yul\":179:185   */\n  dup5\n    /* \"#utility.yul\":137:186   */\n  tag_37\n  jump\t// in\ntag_36:\n    /* \"#utility.yul\":121:187   */\n  tag_38\n  jump\t// in\ntag_35:\n    /* \"#utility.yul\":112:187   */\n  swap1\n  pop\n    /* \"#utility.yul\":210:216   */\n  dup3\n    /* \"#utility.yul\":203:208   */\n  dup2\n    /* \"#utility.yul\":196:217   */\n  mstore\n    /* \"#utility.yul\":248:252   */\n  0x20\n    /* \"#utility.yul\":241:246   */\n  dup2\n    /* \"#utility.yul\":237:253   */\n  add\n    /* \"#utility.yul\":286:289   */\n  dup5\n    /* \"#utility.yul\":277:283   */\n  dup5\n    /* \"#utility.yul\":272:275   */\n  dup5\n    /* \"#utility.yul\":268:284   */\n  add\n    /* \"#utility.yul\":265:290   */\n  gt\n    /* \"#utility.yul\":262:374   */\n  iszero\n  tag_39\n  jumpi\n    /* \"#utility.yul\":293:372   */\n  tag_40\n  tag_41\n  jump\t// in\ntag_40:\n    /* \"#utility.yul\":262:374   */\ntag_39:\n    /* \"#utility.yul\":383:422   */\n  tag_42\n    /* \"#utility.yul\":415:421   */\n  dup5\n    /* \"#utility.yul\":410:413   */\n  dup3\n    /* \"#utility.yul\":405:408   */\n  dup6\n    /* \"#utility.yul\":383:422   */\n  tag_43\n  jump\t// in\ntag_42:\n    /* \"#utility.yul\":102:428   */\n  pop\n    /* \"#utility.yul\":7:428   */\n  swap4\n  swap3\n  pop\n  pop\n  pop\n  jump\t// out\n    /* \"#utility.yul\":434:603   */\ntag_44:\n    /* \"#utility.yul\":504:509   */\n  0x00\n    /* \"#utility.yul\":535:541   */\n  dup2\n    /* \"#utility.yul\":529:542   */\n  mload\n    /* \"#utility.yul\":520:542   */\n  swap1\n  pop\n    /* \"#utility.yul\":551:597   */\n  tag_46\n    /* \"#utility.yul\":591:596   */\n  dup2\n    /* \"#utility.yul\":551:597   */\n  tag_47\n  jump\t// in\ntag_46:\n    /* \"#utility.yul\":434:603   */\n  swap3\n  swap2\n  pop\n  pop\n  jump\t// out\n    /* \"#utility.yul\":623:978   */\ntag_48:\n    /* \"#utility.yul\":690:695   */\n  0x00\n    /* \"#utility.yul\":739:742   */\n  dup3\n    /* \"#utility.yul\":732:736   */\n  0x1f\n    /* \"#utility.yul\":724:730   */\n  dup4\n    /* \"#utility.yul\":720:737   */\n  add\n    /* \"#utility.yul\":716:743   */\n  slt\n    /* \"#utility.yul\":706:828   */\n  tag_50\n  jumpi\n    /* \"#utility.yul\":747:826   */\n  tag_51\n  tag_52\n  jump\t// in\ntag_51:\n    /* \"#utility.yul\":706:828   */\ntag_50:\n    /* \"#utility.yul\":857:863   */\n  dup2\n    /* \"#utility.yul\":851:864   */\n  mload\n    /* \"#utility.yul\":882:972   */\n  tag_53\n    /* \"#utility.yul\":968:971   */\n  dup5\n    /* \"#utility.yul\":960:966   */\n  dup3\n    /* \"#utility.yul\":953:957   */\n  0x20\n    /* \"#utility.yul\":945:951   */\n  dup7\n    /* \"#utility.yul\":941:958   */\n  add\n    /* \"#utility.yul\":882:972   */\n  tag_33\n  jump\t// in\ntag_53:\n    /* \"#utility.yul\":873:972   */\n  swap2\n  pop\n    /* \"#utility.yul\":696:978   */\n  pop\n    /* \"#utility.yul\":623:978   */\n  swap3\n  swap2\n  pop\n  pop\n  jump\t// out\n    /* \"#utility.yul\":984:1123   */\ntag_54:\n    /* \"#utility.yul\":1039:1044   */\n  0x00\n    /* \"#utility.yul\":1070:1076   */\n  dup2\n    /* \"#utility.yul\":1064:1077   */\n  mload\n    /* \"#utility.yul\":1055:1077   */\n  swap1\n  pop\n    /* \"#utility.yul\":1086:1117   */\n  tag_56\n    /* \"#utility.yul\":1111:1116   */\n  dup2\n    /* \"#utility.yul\":1086:1117   */\n  tag_57\n  jump\t// in\ntag_56:\n    /* \"#utility.yul\":984:1123   */\n  swap3\n  swap2\n  pop\n  pop\n  jump\t// out\n    /* \"#utility.yul\":1129:2317   */\ntag_3:\n    /* \"#utility.yul\":1257:1263   */\n  0x00\n    /* \"#utility.yul\":1265:1271   */\n  dup1\n    /* \"#utility.yul\":1273:1279   */\n  0x00\n    /* \"#utility.yul\":1281:1287   */\n  dup1\n    /* \"#utility.yul\":1330:1333   */\n  0x80\n    /* \"#utility.yul\":1318:1327   */\n  dup6\n    /* \"#utility.yul\":1309:1316   */\n  dup8\n    /* \"#utility.yul\":1305:1328   */\n  sub\n    /* \"#utility.yul\":1301:1334   */\n  slt\n    /* \"#utility.yul\":1298:1418   */\n  iszero\n  tag_59\n  jumpi\n    /* \"#utility.yul\":1337:1416   */\n  tag_60\n  tag_61\n  jump\t// in\ntag_60:\n    /* \"#utility.yul\":1298:1418   */\ntag_59:\n    /* \"#utility.yul\":1457:1458   */\n  0x00\n    /* \"#utility.yul\":1482:1559   */\n  tag_62\n    /* \"#utility.yul\":1551:1558   */\n  dup8\n    /* \"#utility.yul\":1542:1548   */\n  dup3\n    /* \"#utility.yul\":1531:1540   */\n  dup9\n    /* \"#utility.yul\":1527:1549   */\n  add\n    /* \"#utility.yul\":1482:1559   */\n  tag_44\n  jump\t// in\ntag_62:\n    /* \"#utility.yul\":1472:1559   */\n  swap5\n  pop\n    /* \"#utility.yul\":1428:1569   */\n  pop\n    /* \"#utility.yul\":1629:1631   */\n  0x20\n    /* \"#utility.yul\":1618:1627   */\n  dup6\n    /* \"#utility.yul\":1614:1632   */\n  add\n    /* \"#utility.yul\":1608:1633   */\n  mload\n    /* \"#utility.yul\":1660:1678   */\n  0xffffffffffffffff\n    /* \"#utility.yul\":1652:1658   */\n  dup2\n    /* \"#utility.yul\":1649:1679   */\n  gt\n    /* \"#utility.yul\":1646:1763   */\n  iszero\n  tag_63\n  jumpi\n    /* \"#utility.yul\":1682:1761   */\n  tag_64\n  tag_65\n  jump\t// in\ntag_64:\n    /* \"#utility.yul\":1646:1763   */\ntag_63:\n    /* \"#utility.yul\":1787:1861   */\n  tag_66\n    /* \"#utility.yul\":1853:1860   */\n  dup8\n    /* \"#utility.yul\":1844:1850   */\n  dup3\n    /* \"#utility.yul\":1833:1842   */\n  dup9\n    /* \"#utility.yul\":1829:1851   */\n  add\n    /* \"#utility.yul\":1787:1861   */\n  tag_48\n  jump\t// in\ntag_66:\n    /* \"#utility.yul\":1777:1861   */\n  swap4\n  pop\n    /* \"#utility.yul\":1579:1871   */\n  pop\n    /* \"#utility.yul\":1931:1933   */\n  0x40\n    /* \"#utility.yul\":1920:1929   */\n  dup6\n    /* \"#utility.yul\":1916:1934   */\n  add\n    /* \"#utility.yul\":1910:1935   */\n  mload\n    /* \"#utility.yul\":1962:1980   */\n  0xffffffffffffffff\n    /* \"#utility.yul\":1954:1960   */\n  dup2\n    /* \"#utility.yul\":1951:1981   */\n  gt\n    /* \"#utility.yul\":1948:2065   */\n  iszero\n  tag_67\n  jumpi\n    /* \"#utility.yul\":1984:2063   */\n  tag_68\n  tag_65\n  jump\t// in\ntag_68:\n    /* \"#utility.yul\":1948:2065   */\ntag_67:\n    /* \"#utility.yul\":2089:2163   */\n  tag_69\n    /* \"#utility.yul\":2155:2162   */\n  dup8\n    /* \"#utility.yul\":2146:2152   */\n  dup3\n    /* \"#utility.yul\":2135:2144   */\n  dup9\n    /* \"#utility.yul\":2131:2153   */\n  add\n    /* \"#utility.yul\":2089:2163   */\n  tag_48\n  jump\t// in\ntag_69:\n    /* \"#utility.yul\":2079:2163   */\n  swap3\n  pop\n    /* \"#utility.yul\":1881:2173   */\n  pop\n    /* \"#utility.yul\":2212:2214   */\n  0x60\n    /* \"#utility.yul\":2238:2300   */\n  tag_70\n    /* \"#utility.yul\":2292:2299   */\n  dup8\n    /* \"#utility.yul\":2283:2289   */\n  dup3\n    /* \"#utility.yul\":2272:2281   */\n  dup9\n    /* \"#utility.yul\":2268:2290   */\n  add\n    /* \"#utility.yul\":2238:2300   */\n  tag_54\n  jump\t// in\ntag_70:\n    /* \"#utility.yul\":2228:2300   */\n  swap2\n  pop\n    /* \"#utility.yul\":2183:2310   */\n  pop\n    /* \"#utility.yul\":1129:2317   */\n  swap3\n  swap6\n  swap2\n  swap5\n  pop\n  swap3\n  pop\n  jump\t// out\n    /* \"#utility.yul\":2323:2441   */\ntag_71:\n    /* \"#utility.yul\":2410:2434   */\n  tag_73\n    /* \"#utility.yul\":2428:2433   */\n  dup2\n    /* \"#utility.yul\":2410:2434   */\n  tag_74\n  jump\t// in\ntag_73:\n    /* \"#utility.yul\":2405:2408   */\n  dup3\n    /* \"#utility.yul\":2398:2435   */\n  mstore\n    /* \"#utility.yul\":2323:2441   */\n  pop\n  pop\n  jump\t// out\n    /* \"#utility.yul\":2447:2565   */\ntag_75:\n    /* \"#utility.yul\":2534:2558   */\n  tag_77\n    /* \"#utility.yul\":2552:2557   */\n  dup2\n    /* \"#utility.yul\":2534:2558   */\n  tag_78\n  jump\t// in\ntag_77:\n    /* \"#utility.yul\":2529:2532   */\n  dup3\n    /* \"#utility.yul\":2522:2559   */\n  mstore\n    /* \"#utility.yul\":2447:2565   */\n  pop\n  pop\n  jump\t// out\n    /* \"#utility.yul\":2593:3442   */\ntag_79:\n    /* \"#utility.yul\":2698:2701   */\n  0x00\n    /* \"#utility.yul\":2735:2740   */\n  dup2\n    /* \"#utility.yul\":2729:2741   */\n  sload\n    /* \"#utility.yul\":2764:2800   */\n  tag_81\n    /* \"#utility.yul\":2790:2799   */\n  dup2\n    /* \"#utility.yul\":2764:2800   */\n  tag_22\n  jump\t// in\ntag_81:\n    /* \"#utility.yul\":2816:2904   */\n  tag_82\n    /* \"#utility.yul\":2897:2903   */\n  dup2\n    /* \"#utility.yul\":2892:2895   */\n  dup7\n    /* \"#utility.yul\":2816:2904   */\n  tag_83\n  jump\t// in\ntag_82:\n    /* \"#utility.yul\":2809:2904   */\n  swap5\n  pop\n    /* \"#utility.yul\":2935:2936   */\n  0x01\n    /* \"#utility.yul\":2924:2933   */\n  dup3\n    /* \"#utility.yul\":2920:2937   */\n  and\n    /* \"#utility.yul\":2951:2952   */\n  0x00\n    /* \"#utility.yul\":2946:3083   */\n  dup2\n  eq\n  tag_85\n  jumpi\n    /* \"#utility.yul\":3097:3098   */\n  0x01\n    /* \"#utility.yul\":3092:3436   */\n  dup2\n  eq\n  tag_86\n  jumpi\n    /* \"#utility.yul\":2913:3436   */\n  jump(tag_84)\n    /* \"#utility.yul\":2946:3083   */\ntag_85:\n    /* \"#utility.yul\":3030:3034   */\n  0xff\n    /* \"#utility.yul\":3026:3035   */\n  not\n    /* \"#utility.yul\":3015:3024   */\n  dup4\n    /* \"#utility.yul\":3011:3036   */\n  and\n    /* \"#utility.yul\":3006:3009   */\n  dup7\n    /* \"#utility.yul\":2999:3037   */\n  mstore\n    /* \"#utility.yul\":3066:3072   */\n  dup2\n    /* \"#utility.yul\":3061:3064   */\n  dup7\n    /* \"#utility.yul\":3057:3073   */\n  add\n    /* \"#utility.yul\":3050:3073   */\n  swap4\n  pop\n    /* \"#utility.yul\":2946:3083   */\n  jump(tag_84)\n    /* \"#utility.yul\":3092:3436   */\ntag_86:\n    /* \"#utility.yul\":3159:3200   */\n  tag_87\n    /* \"#utility.yul\":3194:3199   */\n  dup6\n    /* \"#utility.yul\":3159:3200   */\n  tag_88\n  jump\t// in\ntag_87:\n    /* \"#utility.yul\":3222:3223   */\n  0x00\n    /* \"#utility.yul\":3236:3390   */\ntag_89:\n    /* \"#utility.yul\":3250:3256   */\n  dup4\n    /* \"#utility.yul\":3247:3248   */\n  dup2\n    /* \"#utility.yul\":3244:3257   */\n  lt\n    /* \"#utility.yul\":3236:3390   */\n  iszero\n  tag_91\n  jumpi\n    /* \"#utility.yul\":3324:3331   */\n  dup2\n    /* \"#utility.yul\":3318:3332   */\n  sload\n    /* \"#utility.yul\":3314:3315   */\n  dup2\n    /* \"#utility.yul\":3309:3312   */\n  dup10\n    /* \"#utility.yul\":3305:3316   */\n  add\n    /* \"#utility.yul\":3298:3333   */\n  mstore\n    /* \"#utility.yul\":3374:3375   */\n  0x01\n    /* \"#utility.yul\":3365:3372   */\n  dup3\n    /* \"#utility.yul\":3361:3376   */\n  add\n    /* \"#utility.yul\":3350:3376   */\n  swap2\n  pop\n    /* \"#utility.yul\":3272:3276   */\n  0x20\n    /* \"#utility.yul\":3269:3270   */\n  dup2\n    /* \"#utility.yul\":3265:3277   */\n  add\n    /* \"#utility.yul\":3260:3277   */\n  swap1\n  pop\n    /* \"#utility.yul\":3236:3390   */\n  jump(tag_89)\ntag_91:\n    /* \"#utility.yul\":3419:3425   */\n  dup4\n    /* \"#utility.yul\":3414:3417   */\n  dup9\n    /* \"#utility.yul\":3410:3426   */\n  add\n    /* \"#utility.yul\":3403:3426   */\n  swap6\n  pop\n    /* \"#utility.yul\":3099:3436   */\n  pop\n  pop\n    /* \"#utility.yul\":2913:3436   */\ntag_84:\n  pop\n    /* \"#utility.yul\":2702:3442   */\n  pop\n  pop\n    /* \"#utility.yul\":2593:3442   */\n  swap3\n  swap2\n  pop\n  pop\n  jump\t// out\n    /* \"#utility.yul\":3448:3566   */\ntag_92:\n    /* \"#utility.yul\":3535:3559   */\n  tag_94\n    /* \"#utility.yul\":3553:3558   */\n  dup2\n    /* \"#utility.yul\":3535:3559   */\n  tag_95\n  jump\t// in\ntag_94:\n    /* \"#utility.yul\":3530:3533   */\n  dup3\n    /* \"#utility.yul\":3523:3560   */\n  mstore\n    /* \"#utility.yul\":3448:3566   */\n  pop\n  pop\n  jump\t// out\n    /* \"#utility.yul\":3572:3845   */\ntag_18:\n    /* \"#utility.yul\":3703:3706   */\n  0x00\n    /* \"#utility.yul\":3725:3819   */\n  tag_97\n    /* \"#utility.yul\":3815:3818   */\n  dup3\n    /* \"#utility.yul\":3806:3812   */\n  dup5\n    /* \"#utility.yul\":3725:3819   */\n  tag_79\n  jump\t// in\ntag_97:\n    /* \"#utility.yul\":3718:3819   */\n  swap2\n  pop\n    /* \"#utility.yul\":3836:3839   */\n  dup2\n    /* \"#utility.yul\":3829:3839   */\n  swap1\n  pop\n    /* \"#utility.yul\":3572:3845   */\n  swap3\n  swap2\n  pop\n  pop\n  jump\t// out\n    /* \"#utility.yul\":3851:4515   */\ntag_20:\n    /* \"#utility.yul\":4056:4060   */\n  0x00\n    /* \"#utility.yul\":4094:4097   */\n  0xa0\n    /* \"#utility.yul\":4083:4092   */\n  dup3\n    /* \"#utility.yul\":4079:4098   */\n  add\n    /* \"#utility.yul\":4071:4098   */\n  swap1\n  pop\n    /* \"#utility.yul\":4108:4179   */\n  tag_99\n    /* \"#utility.yul\":4176:4177   */\n  0x00\n    /* \"#utility.yul\":4165:4174   */\n  dup4\n    /* \"#utility.yul\":4161:4178   */\n  add\n    /* \"#utility.yul\":4152:4158   */\n  dup9\n    /* \"#utility.yul\":4108:4179   */\n  tag_75\n  jump\t// in\ntag_99:\n    /* \"#utility.yul\":4189:4261   */\n  tag_100\n    /* \"#utility.yul\":4257:4259   */\n  0x20\n    /* \"#utility.yul\":4246:4255   */\n  dup4\n    /* \"#utility.yul\":4242:4260   */\n  add\n    /* \"#utility.yul\":4233:4239   */\n  dup8\n    /* \"#utility.yul\":4189:4261   */\n  tag_75\n  jump\t// in\ntag_100:\n    /* \"#utility.yul\":4271:4343   */\n  tag_101\n    /* \"#utility.yul\":4339:4341   */\n  0x40\n    /* \"#utility.yul\":4328:4337   */\n  dup4\n    /* \"#utility.yul\":4324:4342   */\n  add\n    /* \"#utility.yul\":4315:4321   */\n  dup7\n    /* \"#utility.yul\":4271:4343   */\n  tag_75\n  jump\t// in\ntag_101:\n    /* \"#utility.yul\":4353:4425   */\n  tag_102\n    /* \"#utility.yul\":4421:4423   */\n  0x60\n    /* \"#utility.yul\":4410:4419   */\n  dup4\n    /* \"#utility.yul\":4406:4424   */\n  add\n    /* \"#utility.yul\":4397:4403   */\n  dup6\n    /* \"#utility.yul\":4353:4425   */\n  tag_92\n  jump\t// in\ntag_102:\n    /* \"#utility.yul\":4435:4508   */\n  tag_103\n    /* \"#utility.yul\":4503:4506   */\n  0x80\n    /* \"#utility.yul\":4492:4501   */\n  dup4\n    /* \"#utility.yul\":4488:4507   */\n  add\n    /* \"#utility.yul\":4479:4485   */\n  dup5\n    /* \"#utility.yul\":4435:4508   */\n  tag_71\n  jump\t// in\ntag_103:\n    /* \"#utility.yul\":3851:4515   */\n  swap7\n  swap6\n  pop\n  pop\n  pop\n  pop\n  pop\n  pop\n  jump\t// out\n    /* \"#utility.yul\":4521:4650   */\ntag_38:\n    /* \"#utility.yul\":4555:4561   */\n  0x00\n    /* \"#utility.yul\":4582:4602   */\n  tag_105\n  tag_106\n  jump\t// in\ntag_105:\n    /* \"#utility.yul\":4572:4602   */\n  swap1\n  pop\n    /* \"#utility.yul\":4611:4644   */\n  tag_107\n    /* \"#utility.yul\":4639:4643   */\n  dup3\n    /* \"#utility.yul\":4631:4637   */\n  dup3\n    /* \"#utility.yul\":4611:4644   */\n  tag_108\n  jump\t// in\ntag_107:\n    /* \"#utility.yul\":4521:4650   */\n  swap2\n  swap1\n  pop\n  jump\t// out\n    /* \"#utility.yul\":4656:4731   */\ntag_106:\n    /* \"#utility.yul\":4689:4695   */\n  0x00\n    /* \"#utility.yul\":4722:4724   */\n  0x40\n    /* \"#utility.yul\":4716:4725   */\n  mload\n    /* \"#utility.yul\":4706:4725   */\n  swap1\n  pop\n    /* \"#utility.yul\":4656:4731   */\n  swap1\n  jump\t// out\n    /* \"#utility.yul\":4737:5045   */\ntag_37:\n    /* \"#utility.yul\":4799:4803   */\n  0x00\n    /* \"#utility.yul\":4889:4907   */\n  0xffffffffffffffff\n    /* \"#utility.yul\":4881:4887   */\n  dup3\n    /* \"#utility.yul\":4878:4908   */\n  gt\n    /* \"#utility.yul\":4875:4931   */\n  iszero\n  tag_111\n  jumpi\n    /* \"#utility.yul\":4911:4929   */\n  tag_112\n  tag_113\n  jump\t// in\ntag_112:\n    /* \"#utility.yul\":4875:4931   */\ntag_111:\n    /* \"#utility.yul\":4949:4978   */\n  tag_114\n    /* \"#utility.yul\":4971:4977   */\n  dup3\n    /* \"#utility.yul\":4949:4978   */\n  tag_115\n  jump\t// in\ntag_114:\n    /* \"#utility.yul\":4941:4978   */\n  swap1\n  pop\n    /* \"#utility.yul\":5033:5037   */\n  0x20\n    /* \"#utility.yul\":5027:5031   */\n  dup2\n    /* \"#utility.yul\":5023:5038   */\n  add\n    /* \"#utility.yul\":5015:5038   */\n  swap1\n  pop\n    /* \"#utility.yul\":4737:5045   */\n  swap2\n  swap1\n  pop\n  jump\t// out\n    /* \"#utility.yul\":5051:5195   */\ntag_88:\n    /* \"#utility.yul\":5103:5107   */\n  0x00\n    /* \"#utility.yul\":5126:5129   */\n  dup2\n    /* \"#utility.yul\":5118:5129   */\n  swap1\n  pop\n    /* \"#utility.yul\":5149:5152   */\n  dup2\n    /* \"#utility.yul\":5146:5147   */\n  0x00\n    /* \"#utility.yul\":5139:5153   */\n  mstore\n    /* \"#utility.yul\":5183:5187   */\n  0x20\n    /* \"#utility.yul\":5180:5181   */\n  0x00\n    /* \"#utility.yul\":5170:5188   */\n  keccak256\n    /* \"#utility.yul\":5162:5188   */\n  swap1\n  pop\n    /* \"#utility.yul\":5051:5195   */\n  swap2\n  swap1\n  pop\n  jump\t// out\n    /* \"#utility.yul\":5201:5348   */\ntag_83:\n    /* \"#utility.yul\":5302:5313   */\n  0x00\n    /* \"#utility.yul\":5339:5342   */\n  dup2\n    /* \"#utility.yul\":5324:5342   */\n  swap1\n  pop\n    /* \"#utility.yul\":5201:5348   */\n  swap3\n  swap2\n  pop\n  pop\n  jump\t// out\n    /* \"#utility.yul\":5354:5450   */\ntag_74:\n    /* \"#utility.yul\":5391:5398   */\n  0x00\n    /* \"#utility.yul\":5420:5444   */\n  tag_119\n    /* \"#utility.yul\":5438:5443   */\n  dup3\n    /* \"#utility.yul\":5420:5444   */\n  tag_120\n  jump\t// in\ntag_119:\n    /* \"#utility.yul\":5409:5444   */\n  swap1\n  pop\n    /* \"#utility.yul\":5354:5450   */\n  swap2\n  swap1\n  pop\n  jump\t// out\n    /* \"#utility.yul\":5456:5533   */\ntag_78:\n    /* \"#utility.yul\":5493:5500   */\n  0x00\n    /* \"#utility.yul\":5522:5527   */\n  dup2\n    /* \"#utility.yul\":5511:5527   */\n  swap1\n  pop\n    /* \"#utility.yul\":5456:5533   */\n  swap2\n  swap1\n  pop\n  jump\t// out\n    /* \"#utility.yul\":5539:5648   */\ntag_122:\n    /* \"#utility.yul\":5589:5596   */\n  0x00\n    /* \"#utility.yul\":5618:5642   */\n  tag_124\n    /* \"#utility.yul\":5636:5641   */\n  dup3\n    /* \"#utility.yul\":5618:5642   */\n  tag_74\n  jump\t// in\ntag_124:\n    /* \"#utility.yul\":5607:5642   */\n  swap1\n  pop\n    /* \"#utility.yul\":5539:5648   */\n  swap2\n  swap1\n  pop\n  jump\t// out\n    /* \"#utility.yul\":5654:5780   */\ntag_120:\n    /* \"#utility.yul\":5691:5698   */\n  0x00\n    /* \"#utility.yul\":5731:5773   */\n  0xffffffffffffffffffffffffffffffffffffffff\n    /* \"#utility.yul\":5724:5729   */\n  dup3\n    /* \"#utility.yul\":5720:5774   */\n  and\n    /* \"#utility.yul\":5709:5774   */\n  swap1\n  pop\n    /* \"#utility.yul\":5654:5780   */\n  swap2\n  swap1\n  pop\n  jump\t// out\n    /* \"#utility.yul\":5786:5863   */\ntag_95:\n    /* \"#utility.yul\":5823:5830   */\n  0x00\n    /* \"#utility.yul\":5852:5857   */\n  dup2\n    /* \"#utility.yul\":5841:5857   */\n  swap1\n  pop\n    /* \"#utility.yul\":5786:5863   */\n  swap2\n  swap1\n  pop\n  jump\t// out\n    /* \"#utility.yul\":5869:5955   */\ntag_127:\n    /* \"#utility.yul\":5904:5911   */\n  0x00\n    /* \"#utility.yul\":5944:5948   */\n  0xff\n    /* \"#utility.yul\":5937:5942   */\n  dup3\n    /* \"#utility.yul\":5933:5949   */\n  and\n    /* \"#utility.yul\":5922:5949   */\n  swap1\n  pop\n    /* \"#utility.yul\":5869:5955   */\n  swap2\n  swap1\n  pop\n  jump\t// out\n    /* \"#utility.yul\":5961:6268   */\ntag_43:\n    /* \"#utility.yul\":6029:6030   */\n  0x00\n    /* \"#utility.yul\":6039:6152   */\ntag_130:\n    /* \"#utility.yul\":6053:6059   */\n  dup4\n    /* \"#utility.yul\":6050:6051   */\n  dup2\n    /* \"#utility.yul\":6047:6060   */\n  lt\n    /* \"#utility.yul\":6039:6152   */\n  iszero\n  tag_132\n  jumpi\n    /* \"#utility.yul\":6138:6139   */\n  dup1\n    /* \"#utility.yul\":6133:6136   */\n  dup3\n    /* \"#utility.yul\":6129:6140   */\n  add\n    /* \"#utility.yul\":6123:6141   */\n  mload\n    /* \"#utility.yul\":6119:6120   */\n  dup2\n    /* \"#utility.yul\":6114:6117   */\n  dup5\n    /* \"#utility.yul\":6110:6121   */\n  add\n    /* \"#utility.yul\":6103:6142   */\n  mstore\n    /* \"#utility.yul\":6075:6077   */\n  0x20\n    /* \"#utility.yul\":6072:6073   */\n  dup2\n    /* \"#utility.yul\":6068:6078   */\n  add\n    /* \"#utility.yul\":6063:6078   */\n  swap1\n  pop\n    /* \"#utility.yul\":6039:6152   */\n  jump(tag_130)\ntag_132:\n    /* \"#utility.yul\":6170:6176   */\n  dup4\n    /* \"#utility.yul\":6167:6168   */\n  dup2\n    /* \"#utility.yul\":6164:6177   */\n  gt\n    /* \"#utility.yul\":6161:6262   */\n  iszero\n  tag_133\n  jumpi\n    /* \"#utility.yul\":6250:6251   */\n  0x00\n    /* \"#utility.yul\":6241:6247   */\n  dup5\n    /* \"#utility.yul\":6236:6239   */\n  dup5\n    /* \"#utility.yul\":6232:6248   */\n  add\n    /* \"#utility.yul\":6225:6252   */\n  mstore\n    /* \"#utility.yul\":6161:6262   */\ntag_133:\n    /* \"#utility.yul\":6010:6268   */\n  pop\n    /* \"#utility.yul\":5961:6268   */\n  pop\n  pop\n  pop\n  jump\t// out\n    /* \"#utility.yul\":6274:6594   */\ntag_22:\n    /* \"#utility.yul\":6318:6324   */\n  0x00\n    /* \"#utility.yul\":6355:6356   */\n  0x02\n    /* \"#utility.yul\":6349:6353   */\n  dup3\n    /* \"#utility.yul\":6345:6357   */\n  div\n    /* \"#utility.yul\":6335:6357   */\n  swap1\n  pop\n    /* \"#utility.yul\":6402:6403   */\n  0x01\n    /* \"#utility.yul\":6396:6400   */\n  dup3\n    /* \"#utility.yul\":6392:6404   */\n  and\n    /* \"#utility.yul\":6423:6441   */\n  dup1\n    /* \"#utility.yul\":6413:6494   */\n  tag_135\n  jumpi\n    /* \"#utility.yul\":6479:6483   */\n  0x7f\n    /* \"#utility.yul\":6471:6477   */\n  dup3\n    /* \"#utility.yul\":6467:6484   */\n  and\n    /* \"#utility.yul\":6457:6484   */\n  swap2\n  pop\n    /* \"#utility.yul\":6413:6494   */\ntag_135:\n    /* \"#utility.yul\":6541:6543   */\n  0x20\n    /* \"#utility.yul\":6533:6539   */\n  dup3\n    /* \"#utility.yul\":6530:6544   */\n  lt\n    /* \"#utility.yul\":6510:6528   */\n  dup2\n    /* \"#utility.yul\":6507:6545   */\n  eq\n    /* \"#utility.yul\":6504:6588   */\n  iszero\n  tag_136\n  jumpi\n    /* \"#utility.yul\":6560:6578   */\n  tag_137\n  tag_138\n  jump\t// in\ntag_137:\n    /* \"#utility.yul\":6504:6588   */\ntag_136:\n    /* \"#utility.yul\":6325:6594   */\n  pop\n    /* \"#utility.yul\":6274:6594   */\n  swap2\n  swap1\n  pop\n  jump\t// out\n    /* \"#utility.yul\":6600:6881   */\ntag_108:\n    /* \"#utility.yul\":6683:6710   */\n  tag_140\n    /* \"#utility.yul\":6705:6709   */\n  dup3\n    /* \"#utility.yul\":6683:6710   */\n  tag_115\n  jump\t// in\ntag_140:\n    /* \"#utility.yul\":6675:6681   */\n  dup2\n    /* \"#utility.yul\":6671:6711   */\n  add\n    /* \"#utility.yul\":6813:6819   */\n  dup2\n    /* \"#utility.yul\":6801:6811   */\n  dup2\n    /* \"#utility.yul\":6798:6820   */\n  lt\n    /* \"#utility.yul\":6777:6795   */\n  0xffffffffffffffff\n    /* \"#utility.yul\":6765:6775   */\n  dup3\n    /* \"#utility.yul\":6762:6796   */\n  gt\n    /* \"#utility.yul\":6759:6821   */\n  or\n    /* \"#utility.yul\":6756:6844   */\n  iszero\n  tag_141\n  jumpi\n    /* \"#utility.yul\":6824:6842   */\n  tag_142\n  tag_113\n  jump\t// in\ntag_142:\n    /* \"#utility.yul\":6756:6844   */\ntag_141:\n    /* \"#utility.yul\":6864:6874   */\n  dup1\n    /* \"#utility.yul\":6860:6862   */\n  0x40\n    /* \"#utility.yul\":6853:6875   */\n  mstore\n    /* \"#utility.yul\":6643:6881   */\n  pop\n    /* \"#utility.yul\":6600:6881   */\n  pop\n  pop\n  jump\t// out\n    /* \"#utility.yul\":6887:7067   */\ntag_138:\n    /* \"#utility.yul\":6935:7012   */\n  0x4e487b7100000000000000000000000000000000000000000000000000000000\n    /* \"#utility.yul\":6932:6933   */\n  0x00\n    /* \"#utility.yul\":6925:7013   */\n  mstore\n    /* \"#utility.yul\":7032:7036   */\n  0x22\n    /* \"#utility.yul\":7029:7030   */\n  0x04\n    /* \"#utility.yul\":7022:7037   */\n  mstore\n    /* \"#utility.yul\":7056:7060   */\n  0x24\n    /* \"#utility.yul\":7053:7054   */\n  0x00\n    /* \"#utility.yul\":7046:7061   */\n  revert\n    /* \"#utility.yul\":7073:7253   */\ntag_113:\n    /* \"#utility.yul\":7121:7198   */\n  0x4e487b7100000000000000000000000000000000000000000000000000000000\n    /* \"#utility.yul\":7118:7119   */\n  0x00\n    /* \"#utility.yul\":7111:7199   */\n  mstore\n    /* \"#utility.yul\":7218:7222   */\n  0x41\n    /* \"#utility.yul\":7215:7216   */\n  0x04\n    /* \"#utility.yul\":7208:7223   */\n  mstore\n    /* \"#utility.yul\":7242:7246   */\n  0x24\n    /* \"#utility.yul\":7239:7240   */\n  0x00\n    /* \"#utility.yul\":7232:7247   */\n  revert\n    /* \"#utility.yul\":7259:7376   */\ntag_52:\n    /* \"#utility.yul\":7368:7369   */\n  0x00\n    /* \"#utility.yul\":7365:7366   */\n  dup1\n    /* \"#utility.yul\":7358:7370   */\n  revert\n    /* \"#utility.yul\":7382:7499   */\ntag_41:\n    /* \"#utility.yul\":7491:7492   */\n  0x00\n    /* \"#utility.yul\":7488:7489   */\n  dup1\n    /* \"#utility.yul\":7481:7493   */\n  revert\n    /* \"#utility.yul\":7505:7622   */\ntag_65:\n    /* \"#utility.yul\":7614:7615   */\n  0x00\n    /* \"#utility.yul\":7611:7612   */\n  dup1\n    /* \"#utility.yul\":7604:7616   */\n  revert\n    /* \"#utility.yul\":7628:7745   */\ntag_61:\n    /* \"#utility.yul\":7737:7738   */\n  0x00\n    /* \"#utility.yul\":7734:7735   */\n  dup1\n    /* \"#utility.yul\":7727:7739   */\n  revert\n    /* \"#utility.yul\":7751:7853   */\ntag_115:\n    /* \"#utility.yul\":7792:7798   */\n  0x00\n    /* \"#utility.yul\":7843:7845   */\n  0x1f\n    /* \"#utility.yul\":7839:7846   */\n  not\n    /* \"#utility.yul\":7834:7836   */\n  0x1f\n    /* \"#utility.yul\":7827:7832   */\n  dup4\n    /* \"#utility.yul\":7823:7837   */\n  add\n    /* \"#utility.yul\":7819:7847   */\n  and\n    /* \"#utility.yul\":7809:7847   */\n  swap1\n  pop\n    /* \"#utility.yul\":7751:7853   */\n  swap2\n  swap1\n  pop\n  jump\t// out\n    /* \"#utility.yul\":7859:8007   */\ntag_47:\n    /* \"#utility.yul\":7945:7982   */\n  tag_151\n    /* \"#utility.yul\":7976:7981   */\n  dup2\n    /* \"#utility.yul\":7945:7982   */\n  tag_122\n  jump\t// in\ntag_151:\n    /* \"#utility.yul\":7938:7943   */\n  dup2\n    /* \"#utility.yul\":7935:7983   */\n  eq\n    /* \"#utility.yul\":7925:8001   */\n  tag_152\n  jumpi\n    /* \"#utility.yul\":7997:7998   */\n  0x00\n    /* \"#utility.yul\":7994:7995   */\n  dup1\n    /* \"#utility.yul\":7987:7999   */\n  revert\n    /* \"#utility.yul\":7925:8001   */\ntag_152:\n    /* \"#utility.yul\":7859:8007   */\n  pop\n  jump\t// out\n    /* \"#utility.yul\":8013:8131   */\ntag_57:\n    /* \"#utility.yul\":8084:8106   */\n  tag_154\n    /* \"#utility.yul\":8100:8105   */\n  dup2\n    /* \"#utility.yul\":8084:8106   */\n  tag_127\n  jump\t// in\ntag_154:\n    /* \"#utility.yul\":8077:8082   */\n  dup2\n    /* \"#utility.yul\":8074:8107   */\n  eq\n    /* \"#utility.yul\":8064:8125   */\n  tag_155\n  jumpi\n    /* \"#utility.yul\":8121:8122   */\n  0x00\n    /* \"#utility.yul\":8118:8119   */\n  dup1\n    /* \"#utility.yul\":8111:8123   */\n  revert\n    /* \"#utility.yul\":8064:8125   */\ntag_155:\n    /* \"#utility.yul\":8013:8131   */\n  pop\n  jump\t// out\n    /* \"MockERC4626.sol\":143:1018  contract MockERC4626 is ERC4626 {... */\ntag_15:\n  shr(0xf8, mload(0x80))\n  mload(0xa0)\n  mload(0xc0)\n  shr(0x60, mload(0xe0))\n  codecopy(0x00, dataOffset(sub_0), dataSize(sub_0))\n  0x00\n  assignImmutable(\"0xecac27c21aa9a89d7be9ad03c2d91e82cbd466284ecdf2bd5bad7f953539cc45\")\n  0x00\n  assignImmutable(\"0x880de8116b3dfac28e9ff528a9fef1d1e0a51449c1addce011ffec1f302992b6\")\n  0x00\n  assignImmutable(\"0xd67d834462ca31eaef1f30157e31659f60355143b7441e6fc7d9eae1fa79f3f8\")\n  0x00\n  assignImmutable(\"0x6585423cb6456b1d4957f6454d2f004f0c4f58d53a00082412d5c2ef4b1b31fd\")\n  return(0x00, dataSize(sub_0))\nstop\n\nsub_0: assembly {\n        /* \"MockERC4626.sol\":143:1018  contract MockERC4626 is ERC4626 {... */\n      mstore(0x40, 0x80)\n      callvalue\n      dup1\n      iszero\n      tag_1\n      jumpi\n      0x00\n      dup1\n      revert\n    tag_1:\n      pop\n      jumpi(tag_2, lt(calldatasize, 0x04))\n      shr(0xe0, calldataload(0x00))\n      dup1\n      0x94bf804d\n      gt\n      tag_33\n      jumpi\n      dup1\n      0xc63d75b6\n      gt\n      tag_34\n      jumpi\n      dup1\n      0xd905777e\n      gt\n      tag_35\n      jumpi\n      dup1\n      0xd905777e\n      eq\n      tag_29\n      jumpi\n      dup1\n      0xdd62ed3e\n      eq\n      tag_30\n      jumpi\n      dup1\n      0xef8b30f7\n      eq\n      tag_31\n      jumpi\n      dup1\n      0xfc407ae7\n      eq\n      tag_32\n      jumpi\n      jump(tag_2)\n    tag_35:\n      dup1\n      0xc63d75b6\n      eq\n      tag_25\n      jumpi\n      dup1\n      0xc6e6f592\n      eq\n      tag_26\n      jumpi\n      dup1\n      0xce96cb77\n      eq\n      tag_27\n      jumpi\n      dup1\n      0xd505accf\n      eq\n      tag_28\n      jumpi\n      jump(tag_2)\n    tag_34:\n      dup1\n      0xb3d7f6b9\n      gt\n      tag_36\n      jumpi\n      dup1\n      0xb3d7f6b9\n      eq\n      tag_21\n      jumpi\n      dup1\n      0xb460af94\n      eq\n      tag_22\n      jumpi\n      dup1\n      0xba087652\n      eq\n      tag_23\n      jumpi\n      dup1\n      0xbc368a8a\n      eq\n      tag_24\n      jumpi\n      jump(tag_2)\n    tag_36:\n      dup1\n      0x94bf804d\n      eq\n      tag_18\n      jumpi\n      dup1\n      0x95d89b41\n      eq\n      tag_19\n      jumpi\n      dup1\n      0xa9059cbb\n      eq\n      tag_20\n      jumpi\n      jump(tag_2)\n    tag_33:\n      dup1\n      0x313ce567\n      gt\n      tag_37\n      jumpi\n      dup1\n      0x4cdad506\n      gt\n      tag_38\n      jumpi\n      dup1\n      0x4cdad506\n      eq\n      tag_14\n      jumpi\n      dup1\n      0x6e553f65\n      eq\n      tag_15\n      jumpi\n      dup1\n      0x70a08231\n      eq\n      tag_16\n      jumpi\n      dup1\n      0x7ecebe00\n      eq\n      tag_17\n      jumpi\n      jump(tag_2)\n    tag_38:\n      dup1\n      0x313ce567\n      eq\n      tag_10\n      jumpi\n      dup1\n      0x3644e515\n      eq\n      tag_11\n      jumpi\n      dup1\n      0x38d52e0f\n      eq\n      tag_12\n      jumpi\n      dup1\n      0x402d267d\n      eq\n      tag_13\n      jumpi\n      jump(tag_2)\n    tag_37:\n      dup1\n      0x095ea7b3\n      gt\n      tag_39\n      jumpi\n      dup1\n      0x095ea7b3\n      eq\n      tag_6\n      jumpi\n      dup1\n      0x0a28a477\n      eq\n      tag_7\n      jumpi\n      dup1\n      0x18160ddd\n      eq\n      tag_8\n      jumpi\n      dup1\n      0x23b872dd\n      eq\n      tag_9\n      jumpi\n      jump(tag_2)\n    tag_39:\n      dup1\n      0x01e1d114\n      eq\n      tag_3\n      jumpi\n      dup1\n      0x06fdde03\n      eq\n      tag_4\n      jumpi\n      dup1\n      0x07a2d13a\n      eq\n      tag_5\n      jumpi\n    tag_2:\n      0x00\n      dup1\n      revert\n        /* \"MockERC4626.sol\":672:788  function totalAssets() public view override returns (uint256) {... */\n    tag_3:\n      tag_40\n      tag_41\n      jump\t// in\n    tag_40:\n      mload(0x40)\n      tag_42\n      swap2\n      swap1\n      tag_43\n      jump\t// in\n    tag_42:\n      mload(0x40)\n      dup1\n      swap2\n      sub\n      swap1\n      return\n        /* \"ERC20.sol\":1061:1079  string public name */\n    tag_4:\n      tag_44\n      tag_45\n      jump\t// in\n    tag_44:\n      mload(0x40)\n      tag_46\n      swap2\n      swap1\n      tag_47\n      jump\t// in\n    tag_46:\n      mload(0x40)\n      dup1\n      swap2\n      sub\n      swap1\n      return\n        /* \"ERC4626.sol\":4620:4913  function convertToAssets(uint256 shares)... */\n    tag_5:\n      tag_48\n      0x04\n      dup1\n      calldatasize\n      sub\n      dup2\n      add\n      swap1\n      tag_49\n      swap2\n      swap1\n      tag_50\n      jump\t// in\n    tag_49:\n      tag_51\n      jump\t// in\n    tag_48:\n      mload(0x40)\n      tag_52\n      swap2\n      swap1\n      tag_43\n      jump\t// in\n    tag_52:\n      mload(0x40)\n      dup1\n      swap2\n      sub\n      swap1\n      return\n        /* \"ERC20.sol\":2491:2730  function approve(address spender, uint256 amount)... */\n    tag_6:\n      tag_53\n      0x04\n      dup1\n      calldatasize\n      sub\n      dup2\n      add\n      swap1\n      tag_54\n      swap2\n      swap1\n      tag_55\n      jump\t// in\n    tag_54:\n      tag_56\n      jump\t// in\n    tag_53:\n      mload(0x40)\n      tag_57\n      swap2\n      swap1\n      tag_58\n      jump\t// in\n    tag_57:\n      mload(0x40)\n      dup1\n      swap2\n      sub\n      swap1\n      return\n        /* \"ERC4626.sol\":5343:5634  function previewWithdraw(uint256 assets)... */\n    tag_7:\n      tag_59\n      0x04\n      dup1\n      calldatasize\n      sub\n      dup2\n      add\n      swap1\n      tag_60\n      swap2\n      swap1\n      tag_50\n      jump\t// in\n    tag_60:\n      tag_61\n      jump\t// in\n    tag_59:\n      mload(0x40)\n      tag_62\n      swap2\n      swap1\n      tag_43\n      jump\t// in\n    tag_62:\n      mload(0x40)\n      dup1\n      swap2\n      sub\n      swap1\n      return\n        /* \"ERC20.sol\":1334:1360  uint256 public totalSupply */\n    tag_8:\n      tag_63\n      tag_64\n      jump\t// in\n    tag_63:\n      mload(0x40)\n      tag_65\n      swap2\n      swap1\n      tag_43\n      jump\t// in\n    tag_65:\n      mload(0x40)\n      dup1\n      swap2\n      sub\n      swap1\n      return\n        /* \"ERC20.sol\":3143:3747  function transferFrom(... */\n    tag_9:\n      tag_66\n      0x04\n      dup1\n      calldatasize\n      sub\n      dup2\n      add\n      swap1\n      tag_67\n      swap2\n      swap1\n      tag_68\n      jump\t// in\n    tag_67:\n      tag_69\n      jump\t// in\n    tag_66:\n      mload(0x40)\n      tag_70\n      swap2\n      swap1\n      tag_58\n      jump\t// in\n    tag_70:\n      mload(0x40)\n      dup1\n      swap2\n      sub\n      swap1\n      return\n        /* \"ERC20.sol\":1113:1144  uint8 public immutable decimals */\n    tag_10:\n      tag_71\n      tag_72\n      jump\t// in\n    tag_71:\n      mload(0x40)\n      tag_73\n      swap2\n      swap1\n      tag_74\n      jump\t// in\n    tag_73:\n      mload(0x40)\n      dup1\n      swap2\n      sub\n      swap1\n      return\n        /* \"ERC20.sol\":5471:5692  function DOMAIN_SEPARATOR() public view virtual returns (bytes32) {... */\n    tag_11:\n      tag_75\n      tag_76\n      jump\t// in\n    tag_75:\n      mload(0x40)\n      tag_77\n      swap2\n      swap1\n      tag_78\n      jump\t// in\n    tag_77:\n      mload(0x40)\n      dup1\n      swap2\n      sub\n      swap1\n      return\n        /* \"ERC4626.sol\":1165:1193  ERC20 public immutable asset */\n    tag_12:\n      tag_79\n      tag_80\n      jump\t// in\n    tag_79:\n      mload(0x40)\n      tag_81\n      swap2\n      swap1\n      tag_82\n      jump\t// in\n    tag_81:\n      mload(0x40)\n      dup1\n      swap2\n      sub\n      swap1\n      return\n        /* \"ERC4626.sol\":5997:6105  function maxDeposit(address) public view virtual returns (uint256) {... */\n    tag_13:\n      tag_83\n      0x04\n      dup1\n      calldatasize\n      sub\n      dup2\n      add\n      swap1\n      tag_84\n      swap2\n      swap1\n      tag_85\n      jump\t// in\n    tag_84:\n      tag_86\n      jump\t// in\n    tag_83:\n      mload(0x40)\n      tag_87\n      swap2\n      swap1\n      tag_43\n      jump\t// in\n    tag_87:\n      mload(0x40)\n      dup1\n      swap2\n      sub\n      swap1\n      return\n        /* \"ERC4626.sol\":5640:5800  function previewRedeem(uint256 shares)... */\n    tag_14:\n      tag_88\n      0x04\n      dup1\n      calldatasize\n      sub\n      dup2\n      add\n      swap1\n      tag_89\n      swap2\n      swap1\n      tag_50\n      jump\t// in\n    tag_89:\n      tag_90\n      jump\t// in\n    tag_88:\n      mload(0x40)\n      tag_91\n      swap2\n      swap1\n      tag_43\n      jump\t// in\n    tag_91:\n      mload(0x40)\n      dup1\n      swap2\n      sub\n      swap1\n      return\n        /* \"ERC4626.sol\":1583:2127  function deposit(uint256 assets, address receiver)... */\n    tag_15:\n      tag_92\n      0x04\n      dup1\n      calldatasize\n      sub\n      dup2\n      add\n      swap1\n      tag_93\n      swap2\n      swap1\n      tag_94\n      jump\t// in\n    tag_93:\n      tag_95\n      jump\t// in\n    tag_92:\n      mload(0x40)\n      tag_96\n      swap2\n      swap1\n      tag_43\n      jump\t// in\n    tag_96:\n      mload(0x40)\n      dup1\n      swap2\n      sub\n      swap1\n      return\n        /* \"ERC20.sol\":1367:1411  mapping(address => uint256) public balanceOf */\n    tag_16:\n      tag_97\n      0x04\n      dup1\n      calldatasize\n      sub\n      dup2\n      add\n      swap1\n      tag_98\n      swap2\n      swap1\n      tag_85\n      jump\t// in\n    tag_98:\n      tag_99\n      jump\t// in\n    tag_97:\n      mload(0x40)\n      tag_100\n      swap2\n      swap1\n      tag_43\n      jump\t// in\n    tag_100:\n      mload(0x40)\n      dup1\n      swap2\n      sub\n      swap1\n      return\n        /* \"ERC20.sol\":1781:1822  mapping(address => uint256) public nonces */\n    tag_17:\n      tag_101\n      0x04\n      dup1\n      calldatasize\n      sub\n      dup2\n      add\n      swap1\n      tag_102\n      swap2\n      swap1\n      tag_85\n      jump\t// in\n    tag_102:\n      tag_103\n      jump\t// in\n    tag_101:\n      mload(0x40)\n      tag_104\n      swap2\n      swap1\n      tag_43\n      jump\t// in\n    tag_104:\n      mload(0x40)\n      dup1\n      swap2\n      sub\n      swap1\n      return\n        /* \"ERC4626.sol\":2133:2628  function mint(uint256 shares, address receiver)... */\n    tag_18:\n      tag_105\n      0x04\n      dup1\n      calldatasize\n      sub\n      dup2\n      add\n      swap1\n      tag_106\n      swap2\n      swap1\n      tag_94\n      jump\t// in\n    tag_106:\n      tag_107\n      jump\t// in\n    tag_105:\n      mload(0x40)\n      tag_108\n      swap2\n      swap1\n      tag_43\n      jump\t// in\n    tag_108:\n      mload(0x40)\n      dup1\n      swap2\n      sub\n      swap1\n      return\n        /* \"ERC20.sol\":1086:1106  string public symbol */\n    tag_19:\n      tag_109\n      tag_110\n      jump\t// in\n    tag_109:\n      mload(0x40)\n      tag_111\n      swap2\n      swap1\n      tag_47\n      jump\t// in\n    tag_111:\n      mload(0x40)\n      dup1\n      swap2\n      sub\n      swap1\n      return\n        /* \"ERC20.sol\":2736:3137  function transfer(address to, uint256 amount)... */\n    tag_20:\n      tag_112\n      0x04\n      dup1\n      calldatasize\n      sub\n      dup2\n      add\n      swap1\n      tag_113\n      swap2\n      swap1\n      tag_55\n      jump\t// in\n    tag_113:\n      tag_114\n      jump\t// in\n    tag_112:\n      mload(0x40)\n      tag_115\n      swap2\n      swap1\n      tag_58\n      jump\t// in\n    tag_115:\n      mload(0x40)\n      dup1\n      swap2\n      sub\n      swap1\n      return\n        /* \"ERC4626.sol\":5086:5337  function previewMint(uint256 shares) public view virtual returns (uint256) {... */\n    tag_21:\n      tag_116\n      0x04\n      dup1\n      calldatasize\n      sub\n      dup2\n      add\n      swap1\n      tag_117\n      swap2\n      swap1\n      tag_50\n      jump\t// in\n    tag_117:\n      tag_118\n      jump\t// in\n    tag_116:\n      mload(0x40)\n      tag_119\n      swap2\n      swap1\n      tag_43\n      jump\t// in\n    tag_119:\n      mload(0x40)\n      dup1\n      swap2\n      sub\n      swap1\n      return\n        /* \"ERC4626.sol\":2634:3329  function withdraw(... */\n    tag_22:\n      tag_120\n      0x04\n      dup1\n      calldatasize\n      sub\n      dup2\n      add\n      swap1\n      tag_121\n      swap2\n      swap1\n      tag_122\n      jump\t// in\n    tag_121:\n      tag_123\n      jump\t// in\n    tag_120:\n      mload(0x40)\n      tag_124\n      swap2\n      swap1\n      tag_43\n      jump\t// in\n    tag_124:\n      mload(0x40)\n      dup1\n      swap2\n      sub\n      swap1\n      return\n        /* \"ERC4626.sol\":3335:4064  function redeem(... */\n    tag_23:\n      tag_125\n      0x04\n      dup1\n      calldatasize\n      sub\n      dup2\n      add\n      swap1\n      tag_126\n      swap2\n      swap1\n      tag_122\n      jump\t// in\n    tag_126:\n      tag_127\n      jump\t// in\n    tag_125:\n      mload(0x40)\n      tag_128\n      swap2\n      swap1\n      tag_43\n      jump\t// in\n    tag_128:\n      mload(0x40)\n      dup1\n      swap2\n      sub\n      swap1\n      return\n        /* \"MockERC4626.sol\":181:231  uint256 public beforeWithdrawHookCalledCounter = 0 */\n    tag_24:\n      tag_129\n      tag_130\n      jump\t// in\n    tag_129:\n      mload(0x40)\n      tag_131\n      swap2\n      swap1\n      tag_43\n      jump\t// in\n    tag_131:\n      mload(0x40)\n      dup1\n      swap2\n      sub\n      swap1\n      return\n        /* \"ERC4626.sol\":6111:6216  function maxMint(address) public view virtual returns (uint256) {... */\n    tag_25:\n      tag_132\n      0x04\n      dup1\n      calldatasize\n      sub\n      dup2\n      add\n      swap1\n      tag_133\n      swap2\n      swap1\n      tag_85\n      jump\t// in\n    tag_133:\n      tag_134\n      jump\t// in\n    tag_132:\n      mload(0x40)\n      tag_135\n      swap2\n      swap1\n      tag_43\n      jump\t// in\n    tag_135:\n      mload(0x40)\n      dup1\n      swap2\n      sub\n      swap1\n      return\n        /* \"ERC4626.sol\":4321:4614  function convertToShares(uint256 assets)... */\n    tag_26:\n      tag_136\n      0x04\n      dup1\n      calldatasize\n      sub\n      dup2\n      add\n      swap1\n      tag_137\n      swap2\n      swap1\n      tag_50\n      jump\t// in\n    tag_137:\n      tag_138\n      jump\t// in\n    tag_136:\n      mload(0x40)\n      tag_139\n      swap2\n      swap1\n      tag_43\n      jump\t// in\n    tag_139:\n      mload(0x40)\n      dup1\n      swap2\n      sub\n      swap1\n      return\n        /* \"ERC4626.sol\":6222:6353  function maxWithdraw(address owner) public view virtual returns (uint256) {... */\n    tag_27:\n      tag_140\n      0x04\n      dup1\n      calldatasize\n      sub\n      dup2\n      add\n      swap1\n      tag_141\n      swap2\n      swap1\n      tag_85\n      jump\t// in\n    tag_141:\n      tag_142\n      jump\t// in\n    tag_140:\n      mload(0x40)\n      tag_143\n      swap2\n      swap1\n      tag_43\n      jump\t// in\n    tag_143:\n      mload(0x40)\n      dup1\n      swap2\n      sub\n      swap1\n      return\n        /* \"ERC20.sol\":3936:5465  function permit(... */\n    tag_28:\n      tag_144\n      0x04\n      dup1\n      calldatasize\n      sub\n      dup2\n      add\n      swap1\n      tag_145\n      swap2\n      swap1\n      tag_146\n      jump\t// in\n    tag_145:\n      tag_147\n      jump\t// in\n    tag_144:\n      stop\n        /* \"ERC4626.sol\":6359:6471  function maxRedeem(address owner) public view virtual returns (uint256) {... */\n    tag_29:\n      tag_148\n      0x04\n      dup1\n      calldatasize\n      sub\n      dup2\n      add\n      swap1\n      tag_149\n      swap2\n      swap1\n      tag_85\n      jump\t// in\n    tag_149:\n      tag_150\n      jump\t// in\n    tag_148:\n      mload(0x40)\n      tag_151\n      swap2\n      swap1\n      tag_43\n      jump\t// in\n    tag_151:\n      mload(0x40)\n      dup1\n      swap2\n      sub\n      swap1\n      return\n        /* \"ERC20.sol\":1418:1482  mapping(address => mapping(address => uint256)) public allowance */\n    tag_30:\n      tag_152\n      0x04\n      dup1\n      calldatasize\n      sub\n      dup2\n      add\n      swap1\n      tag_153\n      swap2\n      swap1\n      tag_154\n      jump\t// in\n    tag_153:\n      tag_155\n      jump\t// in\n    tag_152:\n      mload(0x40)\n      tag_156\n      swap2\n      swap1\n      tag_43\n      jump\t// in\n    tag_156:\n      mload(0x40)\n      dup1\n      swap2\n      sub\n      swap1\n      return\n        /* \"ERC4626.sol\":4919:5080  function previewDeposit(uint256 assets)... */\n    tag_31:\n      tag_157\n      0x04\n      dup1\n      calldatasize\n      sub\n      dup2\n      add\n      swap1\n      tag_158\n      swap2\n      swap1\n      tag_50\n      jump\t// in\n    tag_158:\n      tag_159\n      jump\t// in\n    tag_157:\n      mload(0x40)\n      tag_160\n      swap2\n      swap1\n      tag_43\n      jump\t// in\n    tag_160:\n      mload(0x40)\n      dup1\n      swap2\n      sub\n      swap1\n      return\n        /* \"MockERC4626.sol\":237:285  uint256 public afterDepositHookCalledCounter = 0 */\n    tag_32:\n      tag_161\n      tag_162\n      jump\t// in\n    tag_161:\n      mload(0x40)\n      tag_163\n      swap2\n      swap1\n      tag_43\n      jump\t// in\n    tag_163:\n      mload(0x40)\n      dup1\n      swap2\n      sub\n      swap1\n      return\n        /* \"MockERC4626.sol\":672:788  function totalAssets() public view override returns (uint256) {... */\n    tag_41:\n        /* \"MockERC4626.sol\":725:732  uint256 */\n      0x00\n        /* \"MockERC4626.sol\":751:756  asset */\n      immutable(\"0xecac27c21aa9a89d7be9ad03c2d91e82cbd466284ecdf2bd5bad7f953539cc45\")\n        /* \"MockERC4626.sol\":751:766  asset.balanceOf */\n      0xffffffffffffffffffffffffffffffffffffffff\n      and\n      0x70a08231\n        /* \"MockERC4626.sol\":775:779  this */\n      address\n        /* \"MockERC4626.sol\":751:781  asset.balanceOf(address(this)) */\n      mload(0x40)\n      dup3\n      0xffffffff\n      and\n      0xe0\n      shl\n      dup2\n      mstore\n      0x04\n      add\n      tag_165\n      swap2\n      swap1\n      tag_166\n      jump\t// in\n    tag_165:\n      0x20\n      mload(0x40)\n      dup1\n      dup4\n      sub\n      dup2\n      dup7\n      dup1\n      extcodesize\n      iszero\n      dup1\n      iszero\n      tag_167\n      jumpi\n      0x00\n      dup1\n      revert\n    tag_167:\n      pop\n      gas\n      staticcall\n      iszero\n      dup1\n      iszero\n      tag_169\n      jumpi\n      returndatasize\n      0x00\n      dup1\n      returndatacopy\n      revert(0x00, returndatasize)\n    tag_169:\n      pop\n      pop\n      pop\n      pop\n      mload(0x40)\n      returndatasize\n      not(0x1f)\n      0x1f\n      dup3\n      add\n      and\n      dup3\n      add\n      dup1\n      0x40\n      mstore\n      pop\n      dup2\n      add\n      swap1\n      tag_170\n      swap2\n      swap1\n      tag_171\n      jump\t// in\n    tag_170:\n        /* \"MockERC4626.sol\":744:781  return asset.balanceOf(address(this)) */\n      swap1\n      pop\n        /* \"MockERC4626.sol\":672:788  function totalAssets() public view override returns (uint256) {... */\n      swap1\n      jump\t// out\n        /* \"ERC20.sol\":1061:1079  string public name */\n    tag_45:\n      0x00\n      dup1\n      sload\n      tag_172\n      swap1\n      tag_173\n      jump\t// in\n    tag_172:\n      dup1\n      0x1f\n      add\n      0x20\n      dup1\n      swap2\n      div\n      mul\n      0x20\n      add\n      mload(0x40)\n      swap1\n      dup2\n      add\n      0x40\n      mstore\n      dup1\n      swap3\n      swap2\n      swap1\n      dup2\n      dup2\n      mstore\n      0x20\n      add\n      dup3\n      dup1\n      sload\n      tag_174\n      swap1\n      tag_173\n      jump\t// in\n    tag_174:\n      dup1\n      iszero\n      tag_175\n      jumpi\n      dup1\n      0x1f\n      lt\n      tag_176\n      jumpi\n      0x0100\n      dup1\n      dup4\n      sload\n      div\n      mul\n      dup4\n      mstore\n      swap2\n      0x20\n      add\n      swap2\n      jump(tag_175)\n    tag_176:\n      dup3\n      add\n      swap2\n      swap1\n      0x00\n      mstore\n      keccak256(0x00, 0x20)\n      swap1\n    tag_177:\n      dup2\n      sload\n      dup2\n      mstore\n      swap1\n      0x01\n      add\n      swap1\n      0x20\n      add\n      dup1\n      dup4\n      gt\n      tag_177\n      jumpi\n      dup3\n      swap1\n      sub\n      0x1f\n      and\n      dup3\n      add\n      swap2\n    tag_175:\n      pop\n      pop\n      pop\n      pop\n      pop\n      dup2\n      jump\t// out\n        /* \"ERC4626.sol\":4620:4913  function convertToAssets(uint256 shares)... */\n    tag_51:\n        /* \"ERC4626.sol\":4722:4729  uint256 */\n      0x00\n        /* \"ERC4626.sol\":4745:4759  uint256 supply */\n      dup1\n        /* \"ERC4626.sol\":4762:4773  totalSupply */\n      sload(0x02)\n        /* \"ERC4626.sol\":4745:4773  uint256 supply = totalSupply */\n      swap1\n      pop\n        /* \"ERC4626.sol\":4853:4854  0 */\n      0x00\n        /* \"ERC4626.sol\":4843:4849  supply */\n      dup2\n        /* \"ERC4626.sol\":4843:4854  supply == 0 */\n      eq\n        /* \"ERC4626.sol\":4843:4906  supply == 0 ? shares : shares.mulDivDown(totalAssets(), supply) */\n      tag_179\n      jumpi\n        /* \"ERC4626.sol\":4866:4906  shares.mulDivDown(totalAssets(), supply) */\n      tag_180\n        /* \"ERC4626.sol\":4884:4897  totalAssets() */\n      tag_181\n        /* \"ERC4626.sol\":4884:4895  totalAssets */\n      tag_41\n        /* \"ERC4626.sol\":4884:4897  totalAssets() */\n      jump\t// in\n    tag_181:\n        /* \"ERC4626.sol\":4899:4905  supply */\n      dup3\n        /* \"ERC4626.sol\":4866:4872  shares */\n      dup6\n        /* \"ERC4626.sol\":4866:4883  shares.mulDivDown */\n      tag_182\n      swap1\n        /* \"ERC4626.sol\":4866:4906  shares.mulDivDown(totalAssets(), supply) */\n      swap3\n      swap2\n      swap1\n      0xffffffff\n      and\n      jump\t// in\n    tag_180:\n        /* \"ERC4626.sol\":4843:4906  supply == 0 ? shares : shares.mulDivDown(totalAssets(), supply) */\n      jump(tag_183)\n    tag_179:\n        /* \"ERC4626.sol\":4857:4863  shares */\n      dup3\n        /* \"ERC4626.sol\":4843:4906  supply == 0 ? shares : shares.mulDivDown(totalAssets(), supply) */\n    tag_183:\n        /* \"ERC4626.sol\":4836:4906  return supply == 0 ? shares : shares.mulDivDown(totalAssets(), supply) */\n      swap2\n      pop\n      pop\n        /* \"ERC4626.sol\":4620:4913  function convertToAssets(uint256 shares)... */\n      swap2\n      swap1\n      pop\n      jump\t// out\n        /* \"ERC20.sol\":2491:2730  function approve(address spender, uint256 amount)... */\n    tag_56:\n        /* \"ERC20.sol\":2589:2593  bool */\n      0x00\n        /* \"ERC20.sol\":2642:2648  amount */\n      dup2\n        /* \"ERC20.sol\":2609:2618  allowance */\n      0x04\n        /* \"ERC20.sol\":2609:2630  allowance[msg.sender] */\n      0x00\n        /* \"ERC20.sol\":2619:2629  msg.sender */\n      caller\n        /* \"ERC20.sol\":2609:2630  allowance[msg.sender] */\n      0xffffffffffffffffffffffffffffffffffffffff\n      and\n      0xffffffffffffffffffffffffffffffffffffffff\n      and\n      dup2\n      mstore\n      0x20\n      add\n      swap1\n      dup2\n      mstore\n      0x20\n      add\n      0x00\n      keccak256\n        /* \"ERC20.sol\":2609:2639  allowance[msg.sender][spender] */\n      0x00\n        /* \"ERC20.sol\":2631:2638  spender */\n      dup6\n        /* \"ERC20.sol\":2609:2639  allowance[msg.sender][spender] */\n      0xffffffffffffffffffffffffffffffffffffffff\n      and\n      0xffffffffffffffffffffffffffffffffffffffff\n      and\n      dup2\n      mstore\n      0x20\n      add\n      swap1\n      dup2\n      mstore\n      0x20\n      add\n      0x00\n      keccak256\n        /* \"ERC20.sol\":2609:2648  allowance[msg.sender][spender] = amount */\n      dup2\n      swap1\n      sstore\n      pop\n        /* \"ERC20.sol\":2685:2692  spender */\n      dup3\n        /* \"ERC20.sol\":2664:2701  Approval(msg.sender, spender, amount) */\n      0xffffffffffffffffffffffffffffffffffffffff\n      and\n        /* \"ERC20.sol\":2673:2683  msg.sender */\n      caller\n        /* \"ERC20.sol\":2664:2701  Approval(msg.sender, spender, amount) */\n      0xffffffffffffffffffffffffffffffffffffffff\n      and\n      0x8c5be1e5ebec7d5bd14f71427d1e84f3dd0314c0f7b2291e5b200ac8c7c3b925\n        /* \"ERC20.sol\":2694:2700  amount */\n      dup5\n        /* \"ERC20.sol\":2664:2701  Approval(msg.sender, spender, amount) */\n      mload(0x40)\n      tag_185\n      swap2\n      swap1\n      tag_43\n      jump\t// in\n    tag_185:\n      mload(0x40)\n      dup1\n      swap2\n      sub\n      swap1\n      log3\n        /* \"ERC20.sol\":2719:2723  true */\n      0x01\n        /* \"ERC20.sol\":2712:2723  return true */\n      swap1\n      pop\n        /* \"ERC20.sol\":2491:2730  function approve(address spender, uint256 amount)... */\n      swap3\n      swap2\n      pop\n      pop\n      jump\t// out\n        /* \"ERC4626.sol\":5343:5634  function previewWithdraw(uint256 assets)... */\n    tag_61:\n        /* \"ERC4626.sol\":5445:5452  uint256 */\n      0x00\n        /* \"ERC4626.sol\":5468:5482  uint256 supply */\n      dup1\n        /* \"ERC4626.sol\":5485:5496  totalSupply */\n      sload(0x02)\n        /* \"ERC4626.sol\":5468:5496  uint256 supply = totalSupply */\n      swap1\n      pop\n        /* \"ERC4626.sol\":5576:5577  0 */\n      0x00\n        /* \"ERC4626.sol\":5566:5572  supply */\n      dup2\n        /* \"ERC4626.sol\":5566:5577  supply == 0 */\n      eq\n        /* \"ERC4626.sol\":5566:5627  supply == 0 ? assets : assets.mulDivUp(supply, totalAssets()) */\n      tag_187\n      jumpi\n        /* \"ERC4626.sol\":5589:5627  assets.mulDivUp(supply, totalAssets()) */\n      tag_188\n        /* \"ERC4626.sol\":5605:5611  supply */\n      dup2\n        /* \"ERC4626.sol\":5613:5626  totalAssets() */\n      tag_189\n        /* \"ERC4626.sol\":5613:5624  totalAssets */\n      tag_41\n        /* \"ERC4626.sol\":5613:5626  totalAssets() */\n      jump\t// in\n    tag_189:\n        /* \"ERC4626.sol\":5589:5595  assets */\n      dup6\n        /* \"ERC4626.sol\":5589:5604  assets.mulDivUp */\n      tag_190\n      swap1\n        /* \"ERC4626.sol\":5589:5627  assets.mulDivUp(supply, totalAssets()) */\n      swap3\n      swap2\n      swap1\n      0xffffffff\n      and\n      jump\t// in\n    tag_188:\n        /* \"ERC4626.sol\":5566:5627  supply == 0 ? assets : assets.mulDivUp(supply, totalAssets()) */\n      jump(tag_191)\n    tag_187:\n        /* \"ERC4626.sol\":5580:5586  assets */\n      dup3\n        /* \"ERC4626.sol\":5566:5627  supply == 0 ? assets : assets.mulDivUp(supply, totalAssets()) */\n    tag_191:\n        /* \"ERC4626.sol\":5559:5627  return supply == 0 ? assets : assets.mulDivUp(supply, totalAssets()) */\n      swap2\n      pop\n      pop\n        /* \"ERC4626.sol\":5343:5634  function previewWithdraw(uint256 assets)... */\n      swap2\n      swap1\n      pop\n      jump\t// out\n        /* \"ERC20.sol\":1334:1360  uint256 public totalSupply */\n    tag_64:\n      sload(0x02)\n      dup2\n      jump\t// out\n        /* \"ERC20.sol\":3143:3747  function transferFrom(... */\n    tag_69:\n        /* \"ERC20.sol\":3261:3265  bool */\n      0x00\n        /* \"ERC20.sol\":3277:3292  uint256 allowed */\n      dup1\n        /* \"ERC20.sol\":3295:3304  allowance */\n      0x04\n        /* \"ERC20.sol\":3295:3310  allowance[from] */\n      0x00\n        /* \"ERC20.sol\":3305:3309  from */\n      dup7\n        /* \"ERC20.sol\":3295:3310  allowance[from] */\n      0xffffffffffffffffffffffffffffffffffffffff\n      and\n      0xffffffffffffffffffffffffffffffffffffffff\n      and\n      dup2\n      mstore\n      0x20\n      add\n      swap1\n      dup2\n      mstore\n      0x20\n      add\n      0x00\n      keccak256\n        /* \"ERC20.sol\":3295:3322  allowance[from][msg.sender] */\n      0x00\n        /* \"ERC20.sol\":3311:3321  msg.sender */\n      caller\n        /* \"ERC20.sol\":3295:3322  allowance[from][msg.sender] */\n      0xffffffffffffffffffffffffffffffffffffffff\n      and\n      0xffffffffffffffffffffffffffffffffffffffff\n      and\n      dup2\n      mstore\n      0x20\n      add\n      swap1\n      dup2\n      mstore\n      0x20\n      add\n      0x00\n      keccak256\n      sload\n        /* \"ERC20.sol\":3277:3322  uint256 allowed = allowance[from][msg.sender] */\n      swap1\n      pop\n        /* \"ERC20.sol\":3384:3401  type(uint256).max */\n      0xffffffffffffffffffffffffffffffffffffffffffffffffffffffffffffffff\n        /* \"ERC20.sol\":3373:3380  allowed */\n      dup2\n        /* \"ERC20.sol\":3373:3401  allowed != type(uint256).max */\n      eq\n        /* \"ERC20.sol\":3369:3461  if (allowed != type(uint256).max)... */\n      tag_193\n      jumpi\n        /* \"ERC20.sol\":3455:3461  amount */\n      dup3\n        /* \"ERC20.sol\":3445:3452  allowed */\n      dup2\n        /* \"ERC20.sol\":3445:3461  allowed - amount */\n      tag_194\n      swap2\n      swap1\n      tag_195\n      jump\t// in\n    tag_194:\n        /* \"ERC20.sol\":3415:3424  allowance */\n      0x04\n        /* \"ERC20.sol\":3415:3430  allowance[from] */\n      0x00\n        /* \"ERC20.sol\":3425:3429  from */\n      dup8\n        /* \"ERC20.sol\":3415:3430  allowance[from] */\n      0xffffffffffffffffffffffffffffffffffffffff\n      and\n      0xffffffffffffffffffffffffffffffffffffffff\n      and\n      dup2\n      mstore\n      0x20\n      add\n      swap1\n      dup2\n      mstore\n      0x20\n      add\n      0x00\n      keccak256\n        /* \"ERC20.sol\":3415:3442  allowance[from][msg.sender] */\n      0x00\n        /* \"ERC20.sol\":3431:3441  msg.sender */\n      caller\n        /* \"ERC20.sol\":3415:3442  allowance[from][msg.sender] */\n      0xffffffffffffffffffffffffffffffffffffffff\n      and\n      0xffffffffffffffffffffffffffffffffffffffff\n      and\n      dup2\n      mstore\n      0x20\n      add\n      swap1\n      dup2\n      mstore\n      0x20\n      add\n      0x00\n      keccak256\n        /* \"ERC20.sol\":3415:3461  allowance[from][msg.sender] = allowed - amount */\n      dup2\n      swap1\n      sstore\n      pop\n        /* \"ERC20.sol\":3369:3461  if (allowed != type(uint256).max)... */\n    tag_193:\n        /* \"ERC20.sol\":3491:3497  amount */\n      dup3\n        /* \"ERC20.sol\":3472:3481  balanceOf */\n      0x03\n        /* \"ERC20.sol\":3472:3487  balanceOf[from] */\n      0x00\n        /* \"ERC20.sol\":3482:3486  from */\n      dup8\n        /* \"ERC20.sol\":3472:3487  balanceOf[from] */\n      0xffffffffffffffffffffffffffffffffffffffff\n      and\n      0xffffffffffffffffffffffffffffffffffffffff\n      and\n      dup2\n      mstore\n      0x20\n      add\n      swap1\n      dup2\n      mstore\n      0x20\n      add\n      0x00\n      keccak256\n      0x00\n        /* \"ERC20.sol\":3472:3497  balanceOf[from] -= amount */\n      dup3\n      dup3\n      sload\n      tag_196\n      swap2\n      swap1\n      tag_195\n      jump\t// in\n    tag_196:\n      swap3\n      pop\n      pop\n      dup2\n      swap1\n      sstore\n      pop\n        /* \"ERC20.sol\":3660:3666  amount */\n      dup3\n        /* \"ERC20.sol\":3643:3652  balanceOf */\n      0x03\n        /* \"ERC20.sol\":3643:3656  balanceOf[to] */\n      0x00\n        /* \"ERC20.sol\":3653:3655  to */\n      dup7\n        /* \"ERC20.sol\":3643:3656  balanceOf[to] */\n      0xffffffffffffffffffffffffffffffffffffffff\n      and\n      0xffffffffffffffffffffffffffffffffffffffff\n      and\n      dup2\n      mstore\n      0x20\n      add\n      swap1\n      dup2\n      mstore\n      0x20\n      add\n      0x00\n      keccak256\n      0x00\n        /* \"ERC20.sol\":3643:3666  balanceOf[to] += amount */\n      dup3\n      dup3\n      sload\n      add\n      swap3\n      pop\n      pop\n      dup2\n      swap1\n      sstore\n      pop\n        /* \"ERC20.sol\":3707:3709  to */\n      dup4\n        /* \"ERC20.sol\":3692:3718  Transfer(from, to, amount) */\n      0xffffffffffffffffffffffffffffffffffffffff\n      and\n        /* \"ERC20.sol\":3701:3705  from */\n      dup6\n        /* \"ERC20.sol\":3692:3718  Transfer(from, to, amount) */\n      0xffffffffffffffffffffffffffffffffffffffff\n      and\n      0xddf252ad1be2c89b69c2b068fc378daa952ba7f163c4a11628f55a4df523b3ef\n        /* \"ERC20.sol\":3711:3717  amount */\n      dup6\n        /* \"ERC20.sol\":3692:3718  Transfer(from, to, amount) */\n      mload(0x40)\n      tag_197\n      swap2\n      swap1\n      tag_43\n      jump\t// in\n    tag_197:\n      mload(0x40)\n      dup1\n      swap2\n      sub\n      swap1\n      log3\n        /* \"ERC20.sol\":3736:3740  true */\n      0x01\n        /* \"ERC20.sol\":3729:3740  return true */\n      swap2\n      pop\n      pop\n        /* \"ERC20.sol\":3143:3747  function transferFrom(... */\n      swap4\n      swap3\n      pop\n      pop\n      pop\n      jump\t// out\n        /* \"ERC20.sol\":1113:1144  uint8 public immutable decimals */\n    tag_72:\n      immutable(\"0x6585423cb6456b1d4957f6454d2f004f0c4f58d53a00082412d5c2ef4b1b31fd\")\n      dup2\n      jump\t// out\n        /* \"ERC20.sol\":5471:5692  function DOMAIN_SEPARATOR() public view virtual returns (bytes32) {... */\n    tag_76:\n        /* \"ERC20.sol\":5528:5535  bytes32 */\n      0x00\n        /* \"ERC20.sol\":5583:5599  INITIAL_CHAIN_ID */\n      immutable(\"0xd67d834462ca31eaef1f30157e31659f60355143b7441e6fc7d9eae1fa79f3f8\")\n        /* \"ERC20.sol\":5566:5579  block.chainid */\n      chainid\n        /* \"ERC20.sol\":5566:5599  block.chainid == INITIAL_CHAIN_ID */\n      eq\n        /* \"ERC20.sol\":5566:5685  block.chainid == INITIAL_CHAIN_ID... */\n      tag_199\n      jumpi\n        /* \"ERC20.sol\":5661:5685  computeDomainSeparator() */\n      tag_200\n        /* \"ERC20.sol\":5661:5683  computeDomainSeparator */\n      tag_201\n        /* \"ERC20.sol\":5661:5685  computeDomainSeparator() */\n      jump\t// in\n    tag_200:\n        /* \"ERC20.sol\":5566:5685  block.chainid == INITIAL_CHAIN_ID... */\n      jump(tag_202)\n    tag_199:\n        /* \"ERC20.sol\":5618:5642  INITIAL_DOMAIN_SEPARATOR */\n      immutable(\"0x880de8116b3dfac28e9ff528a9fef1d1e0a51449c1addce011ffec1f302992b6\")\n        /* \"ERC20.sol\":5566:5685  block.chainid == INITIAL_CHAIN_ID... */\n    tag_202:\n        /* \"ERC20.sol\":5547:5685  return... */\n      swap1\n      pop\n        /* \"ERC20.sol\":5471:5692  function DOMAIN_SEPARATOR() public view virtual returns (bytes32) {... */\n      swap1\n      jump\t// out\n        /* \"ERC4626.sol\":1165:1193  ERC20 public immutable asset */\n    tag_80:\n      immutable(\"0xecac27c21aa9a89d7be9ad03c2d91e82cbd466284ecdf2bd5bad7f953539cc45\")\n      dup2\n      jump\t// out\n        /* \"ERC4626.sol\":5997:6105  function maxDeposit(address) public view virtual returns (uint256) {... */\n    tag_86:\n        /* \"ERC4626.sol\":6055:6062  uint256 */\n      0x00\n        /* \"ERC4626.sol\":6081:6098  type(uint256).max */\n      0xffffffffffffffffffffffffffffffffffffffffffffffffffffffffffffffff\n        /* \"ERC4626.sol\":6074:6098  return type(uint256).max */\n      swap1\n      pop\n        /* \"ERC4626.sol\":5997:6105  function maxDeposit(address) public view virtual returns (uint256) {... */\n      swap2\n      swap1\n      pop\n      jump\t// out\n        /* \"ERC4626.sol\":5640:5800  function previewRedeem(uint256 shares)... */\n    tag_90:\n        /* \"ERC4626.sol\":5740:5747  uint256 */\n      0x00\n        /* \"ERC4626.sol\":5770:5793  convertToAssets(shares) */\n      tag_205\n        /* \"ERC4626.sol\":5786:5792  shares */\n      dup3\n        /* \"ERC4626.sol\":5770:5785  convertToAssets */\n      tag_51\n        /* \"ERC4626.sol\":5770:5793  convertToAssets(shares) */\n      jump\t// in\n    tag_205:\n        /* \"ERC4626.sol\":5763:5793  return convertToAssets(shares) */\n      swap1\n      pop\n        /* \"ERC4626.sol\":5640:5800  function previewRedeem(uint256 shares)... */\n      swap2\n      swap1\n      pop\n      jump\t// out\n        /* \"ERC4626.sol\":1583:2127  function deposit(uint256 assets, address receiver)... */\n    tag_95:\n        /* \"ERC4626.sol\":1682:1696  uint256 shares */\n      0x00\n        /* \"ERC4626.sol\":1832:1833  0 */\n      dup1\n        /* \"ERC4626.sol\":1805:1827  previewDeposit(assets) */\n      tag_207\n        /* \"ERC4626.sol\":1820:1826  assets */\n      dup5\n        /* \"ERC4626.sol\":1805:1819  previewDeposit */\n      tag_159\n        /* \"ERC4626.sol\":1805:1827  previewDeposit(assets) */\n      jump\t// in\n    tag_207:\n        /* \"ERC4626.sol\":1796:1827  shares = previewDeposit(assets) */\n      swap2\n      pop\n      dup2\n        /* \"ERC4626.sol\":1795:1833  (shares = previewDeposit(assets)) != 0 */\n      eq\n      iszero\n        /* \"ERC4626.sol\":1787:1849  require((shares = previewDeposit(assets)) != 0, \"ZERO_SHARES\") */\n      tag_208\n      jumpi\n      mload(0x40)\n      0x08c379a000000000000000000000000000000000000000000000000000000000\n      dup2\n      mstore\n      0x04\n      add\n      tag_209\n      swap1\n      tag_210\n      jump\t// in\n    tag_209:\n      mload(0x40)\n      dup1\n      swap2\n      sub\n      swap1\n      revert\n    tag_208:\n        /* \"ERC4626.sol\":1929:1986  asset.safeTransferFrom(msg.sender, address(this), assets) */\n      tag_211\n        /* \"ERC4626.sol\":1952:1962  msg.sender */\n      caller\n        /* \"ERC4626.sol\":1972:1976  this */\n      address\n        /* \"ERC4626.sol\":1979:1985  assets */\n      dup6\n        /* \"ERC4626.sol\":1929:1934  asset */\n      immutable(\"0xecac27c21aa9a89d7be9ad03c2d91e82cbd466284ecdf2bd5bad7f953539cc45\")\n        /* \"ERC4626.sol\":1929:1951  asset.safeTransferFrom */\n      0xffffffffffffffffffffffffffffffffffffffff\n      and\n      tag_212\n      swap1\n        /* \"ERC4626.sol\":1929:1986  asset.safeTransferFrom(msg.sender, address(this), assets) */\n      swap4\n      swap3\n      swap2\n      swap1\n      0xffffffff\n      and\n      jump\t// in\n    tag_211:\n        /* \"ERC4626.sol\":1997:2020  _mint(receiver, shares) */\n      tag_213\n        /* \"ERC4626.sol\":2003:2011  receiver */\n      dup3\n        /* \"ERC4626.sol\":2013:2019  shares */\n      dup3\n        /* \"ERC4626.sol\":1997:2002  _mint */\n      tag_214\n        /* \"ERC4626.sol\":1997:2020  _mint(receiver, shares) */\n      jump\t// in\n    tag_213:\n        /* \"ERC4626.sol\":2056:2064  receiver */\n      dup2\n        /* \"ERC4626.sol\":2036:2081  Deposit(msg.sender, receiver, assets, shares) */\n      0xffffffffffffffffffffffffffffffffffffffff\n      and\n        /* \"ERC4626.sol\":2044:2054  msg.sender */\n      caller\n        /* \"ERC4626.sol\":2036:2081  Deposit(msg.sender, receiver, assets, shares) */\n      0xffffffffffffffffffffffffffffffffffffffff\n      and\n      0xdcbc1c05240f31ff3ad067ef1ee35ce4997762752e3a095284754544f4c709d7\n        /* \"ERC4626.sol\":2066:2072  assets */\n      dup6\n        /* \"ERC4626.sol\":2074:2080  shares */\n      dup5\n        /* \"ERC4626.sol\":2036:2081  Deposit(msg.sender, receiver, assets, shares) */\n      mload(0x40)\n      tag_215\n      swap3\n      swap2\n      swap1\n      tag_216\n      jump\t// in\n    tag_215:\n      mload(0x40)\n      dup1\n      swap2\n      sub\n      swap1\n      log3\n        /* \"ERC4626.sol\":2092:2120  afterDeposit(assets, shares) */\n      tag_217\n        /* \"ERC4626.sol\":2105:2111  assets */\n      dup4\n        /* \"ERC4626.sol\":2113:2119  shares */\n      dup3\n        /* \"ERC4626.sol\":2092:2104  afterDeposit */\n      tag_218\n        /* \"ERC4626.sol\":2092:2120  afterDeposit(assets, shares) */\n      jump\t// in\n    tag_217:\n        /* \"ERC4626.sol\":1583:2127  function deposit(uint256 assets, address receiver)... */\n      swap3\n      swap2\n      pop\n      pop\n      jump\t// out\n        /* \"ERC20.sol\":1367:1411  mapping(address => uint256) public balanceOf */\n    tag_99:\n      mstore(0x20, 0x03)\n      dup1\n      0x00\n      mstore\n      keccak256(0x00, 0x40)\n      0x00\n      swap2\n      pop\n      swap1\n      pop\n      sload\n      dup2\n      jump\t// out\n        /* \"ERC20.sol\":1781:1822  mapping(address => uint256) public nonces */\n    tag_103:\n      mstore(0x20, 0x05)\n      dup1\n      0x00\n      mstore\n      keccak256(0x00, 0x40)\n      0x00\n      swap2\n      pop\n      swap1\n      pop\n      sload\n      dup2\n      jump\t// out\n        /* \"ERC4626.sol\":2133:2628  function mint(uint256 shares, address receiver)... */\n    tag_107:\n        /* \"ERC4626.sol\":2229:2243  uint256 assets */\n      0x00\n        /* \"ERC4626.sol\":2268:2287  previewMint(shares) */\n      tag_220\n        /* \"ERC4626.sol\":2280:2286  shares */\n      dup4\n        /* \"ERC4626.sol\":2268:2279  previewMint */\n      tag_118\n        /* \"ERC4626.sol\":2268:2287  previewMint(shares) */\n      jump\t// in\n    tag_220:\n        /* \"ERC4626.sol\":2259:2287  assets = previewMint(shares) */\n      swap1\n      pop\n        /* \"ERC4626.sol\":2430:2487  asset.safeTransferFrom(msg.sender, address(this), assets) */\n      tag_221\n        /* \"ERC4626.sol\":2453:2463  msg.sender */\n      caller\n        /* \"ERC4626.sol\":2473:2477  this */\n      address\n        /* \"ERC4626.sol\":2480:2486  assets */\n      dup4\n        /* \"ERC4626.sol\":2430:2435  asset */\n      immutable(\"0xecac27c21aa9a89d7be9ad03c2d91e82cbd466284ecdf2bd5bad7f953539cc45\")\n        /* \"ERC4626.sol\":2430:2452  asset.safeTransferFrom */\n      0xffffffffffffffffffffffffffffffffffffffff\n      and\n      tag_212\n      swap1\n        /* \"ERC4626.sol\":2430:2487  asset.safeTransferFrom(msg.sender, address(this), assets) */\n      swap4\n      swap3\n      swap2\n      swap1\n      0xffffffff\n      and\n      jump\t// in\n    tag_221:\n        /* \"ERC4626.sol\":2498:2521  _mint(receiver, shares) */\n      tag_222\n        /* \"ERC4626.sol\":2504:2512  receiver */\n      dup3\n        /* \"ERC4626.sol\":2514:2520  shares */\n      dup5\n        /* \"ERC4626.sol\":2498:2503  _mint */\n      tag_214\n        /* \"ERC4626.sol\":2498:2521  _mint(receiver, shares) */\n      jump\t// in\n    tag_222:\n        /* \"ERC4626.sol\":2557:2565  receiver */\n      dup2\n        /* \"ERC4626.sol\":2537:2582  Deposit(msg.sender, receiver, assets, shares) */\n      0xffffffffffffffffffffffffffffffffffffffff\n      and\n        /* \"ERC4626.sol\":2545:2555  msg.sender */\n      caller\n        /* \"ERC4626.sol\":2537:2582  Deposit(msg.sender, receiver, assets, shares) */\n      0xffffffffffffffffffffffffffffffffffffffff\n      and\n      0xdcbc1c05240f31ff3ad067ef1ee35ce4997762752e3a095284754544f4c709d7\n        /* \"ERC4626.sol\":2567:2573  assets */\n      dup4\n        /* \"ERC4626.sol\":2575:2581  shares */\n      dup7\n        /* \"ERC4626.sol\":2537:2582  Deposit(msg.sender, receiver, assets, shares) */\n      mload(0x40)\n      tag_223\n      swap3\n      swap2\n      swap1\n      tag_216\n      jump\t// in\n    tag_223:\n      mload(0x40)\n      dup1\n      swap2\n      sub\n      swap1\n      log3\n        /* \"ERC4626.sol\":2593:2621  afterDeposit(assets, shares) */\n      tag_224\n        /* \"ERC4626.sol\":2606:2612  assets */\n      dup2\n        /* \"ERC4626.sol\":2614:2620  shares */\n      dup5\n        /* \"ERC4626.sol\":2593:2605  afterDeposit */\n      tag_218\n        /* \"ERC4626.sol\":2593:2621  afterDeposit(assets, shares) */\n      jump\t// in\n    tag_224:\n        /* \"ERC4626.sol\":2133:2628  function mint(uint256 shares, address receiver)... */\n      swap3\n      swap2\n      pop\n      pop\n      jump\t// out\n        /* \"ERC20.sol\":1086:1106  string public symbol */\n    tag_110:\n      0x01\n      dup1\n      sload\n      tag_225\n      swap1\n      tag_173\n      jump\t// in\n    tag_225:\n      dup1\n      0x1f\n      add\n      0x20\n      dup1\n      swap2\n      div\n      mul\n      0x20\n      add\n      mload(0x40)\n      swap1\n      dup2\n      add\n      0x40\n      mstore\n      dup1\n      swap3\n      swap2\n      swap1\n      dup2\n      dup2\n      mstore\n      0x20\n      add\n      dup3\n      dup1\n      sload\n      tag_226\n      swap1\n      tag_173\n      jump\t// in\n    tag_226:\n      dup1\n      iszero\n      tag_227\n      jumpi\n      dup1\n      0x1f\n      lt\n      tag_228\n      jumpi\n      0x0100\n      dup1\n      dup4\n      sload\n      div\n      mul\n      dup4\n      mstore\n      swap2\n      0x20\n      add\n      swap2\n      jump(tag_227)\n    tag_228:\n      dup3\n      add\n      swap2\n      swap1\n      0x00\n      mstore\n      keccak256(0x00, 0x20)\n      swap1\n    tag_229:\n      dup2\n      sload\n      dup2\n      mstore\n      swap1\n      0x01\n      add\n      swap1\n      0x20\n      add\n      dup1\n      dup4\n      gt\n      tag_229\n      jumpi\n      dup3\n      swap1\n      sub\n      0x1f\n      and\n      dup3\n      add\n      swap2\n    tag_227:\n      pop\n      pop\n      pop\n      pop\n      pop\n      dup2\n      jump\t// out\n        /* \"ERC20.sol\":2736:3137  function transfer(address to, uint256 amount)... */\n    tag_114:\n        /* \"ERC20.sol\":2830:2834  bool */\n      0x00\n        /* \"ERC20.sol\":2875:2881  amount */\n      dup2\n        /* \"ERC20.sol\":2850:2859  balanceOf */\n      0x03\n        /* \"ERC20.sol\":2850:2871  balanceOf[msg.sender] */\n      0x00\n        /* \"ERC20.sol\":2860:2870  msg.sender */\n      caller\n        /* \"ERC20.sol\":2850:2871  balanceOf[msg.sender] */\n      0xffffffffffffffffffffffffffffffffffffffff\n      and\n      0xffffffffffffffffffffffffffffffffffffffff\n      and\n      dup2\n      mstore\n      0x20\n      add\n      swap1\n      dup2\n      mstore\n      0x20\n      add\n      0x00\n      keccak256\n      0x00\n        /* \"ERC20.sol\":2850:2881  balanceOf[msg.sender] -= amount */\n      dup3\n      dup3\n      sload\n      tag_231\n      swap2\n      swap1\n      tag_195\n      jump\t// in\n    tag_231:\n      swap3\n      pop\n      pop\n      dup2\n      swap1\n      sstore\n      pop\n        /* \"ERC20.sol\":3044:3050  amount */\n      dup2\n        /* \"ERC20.sol\":3027:3036  balanceOf */\n      0x03\n        /* \"ERC20.sol\":3027:3040  balanceOf[to] */\n      0x00\n        /* \"ERC20.sol\":3037:3039  to */\n      dup6\n        /* \"ERC20.sol\":3027:3040  balanceOf[to] */\n      0xffffffffffffffffffffffffffffffffffffffff\n      and\n      0xffffffffffffffffffffffffffffffffffffffff\n      and\n      dup2\n      mstore\n      0x20\n      add\n      swap1\n      dup2\n      mstore\n      0x20\n      add\n      0x00\n      keccak256\n      0x00\n        /* \"ERC20.sol\":3027:3050  balanceOf[to] += amount */\n      dup3\n      dup3\n      sload\n      add\n      swap3\n      pop\n      pop\n      dup2\n      swap1\n      sstore\n      pop\n        /* \"ERC20.sol\":3097:3099  to */\n      dup3\n        /* \"ERC20.sol\":3076:3108  Transfer(msg.sender, to, amount) */\n      0xffffffffffffffffffffffffffffffffffffffff\n      and\n        /* \"ERC20.sol\":3085:3095  msg.sender */\n      caller\n        /* \"ERC20.sol\":3076:3108  Transfer(msg.sender, to, amount) */\n      0xffffffffffffffffffffffffffffffffffffffff\n      and\n      0xddf252ad1be2c89b69c2b068fc378daa952ba7f163c4a11628f55a4df523b3ef\n        /* \"ERC20.sol\":3101:3107  amount */\n      dup5\n        /* \"ERC20.sol\":3076:3108  Transfer(msg.sender, to, amount) */\n      mload(0x40)\n      tag_232\n      swap2\n      swap1\n      tag_43\n      jump\t// in\n    tag_232:\n      mload(0x40)\n      dup1\n      swap2\n      sub\n      swap1\n      log3\n        /* \"ERC20.sol\":3126:3130  true */\n      0x01\n        /* \"ERC20.sol\":3119:3130  return true */\n      swap1\n      pop\n        /* \"ERC20.sol\":2736:3137  function transfer(address to, uint256 amount)... */\n      swap3\n      swap2\n      pop\n      pop\n      jump\t// out\n        /* \"ERC4626.sol\":5086:5337  function previewMint(uint256 shares) public view virtual returns (uint256) {... */\n    tag_118:\n        /* \"ERC4626.sol\":5152:5159  uint256 */\n      0x00\n        /* \"ERC4626.sol\":5171:5185  uint256 supply */\n      dup1\n        /* \"ERC4626.sol\":5188:5199  totalSupply */\n      sload(0x02)\n        /* \"ERC4626.sol\":5171:5199  uint256 supply = totalSupply */\n      swap1\n      pop\n        /* \"ERC4626.sol\":5279:5280  0 */\n      0x00\n        /* \"ERC4626.sol\":5269:5275  supply */\n      dup2\n        /* \"ERC4626.sol\":5269:5280  supply == 0 */\n      eq\n        /* \"ERC4626.sol\":5269:5330  supply == 0 ? shares : shares.mulDivUp(totalAssets(), supply) */\n      tag_234\n      jumpi\n        /* \"ERC4626.sol\":5292:5330  shares.mulDivUp(totalAssets(), supply) */\n      tag_235\n        /* \"ERC4626.sol\":5308:5321  totalAssets() */\n      tag_236\n        /* \"ERC4626.sol\":5308:5319  totalAssets */\n      tag_41\n        /* \"ERC4626.sol\":5308:5321  totalAssets() */\n      jump\t// in\n    tag_236:\n        /* \"ERC4626.sol\":5323:5329  supply */\n      dup3\n        /* \"ERC4626.sol\":5292:5298  shares */\n      dup6\n        /* \"ERC4626.sol\":5292:5307  shares.mulDivUp */\n      tag_190\n      swap1\n        /* \"ERC4626.sol\":5292:5330  shares.mulDivUp(totalAssets(), supply) */\n      swap3\n      swap2\n      swap1\n      0xffffffff\n      and\n      jump\t// in\n    tag_235:\n        /* \"ERC4626.sol\":5269:5330  supply == 0 ? shares : shares.mulDivUp(totalAssets(), supply) */\n      jump(tag_237)\n    tag_234:\n        /* \"ERC4626.sol\":5283:5289  shares */\n      dup3\n        /* \"ERC4626.sol\":5269:5330  supply == 0 ? shares : shares.mulDivUp(totalAssets(), supply) */\n    tag_237:\n        /* \"ERC4626.sol\":5262:5330  return supply == 0 ? shares : shares.mulDivUp(totalAssets(), supply) */\n      swap2\n      pop\n      pop\n        /* \"ERC4626.sol\":5086:5337  function previewMint(uint256 shares) public view virtual returns (uint256) {... */\n      swap2\n      swap1\n      pop\n      jump\t// out\n        /* \"ERC4626.sol\":2634:3329  function withdraw(... */\n    tag_123:\n        /* \"ERC4626.sol\":2755:2769  uint256 shares */\n      0x00\n        /* \"ERC4626.sol\":2790:2813  previewWithdraw(assets) */\n      tag_239\n        /* \"ERC4626.sol\":2806:2812  assets */\n      dup5\n        /* \"ERC4626.sol\":2790:2805  previewWithdraw */\n      tag_61\n        /* \"ERC4626.sol\":2790:2813  previewWithdraw(assets) */\n      jump\t// in\n    tag_239:\n        /* \"ERC4626.sol\":2781:2813  shares = previewWithdraw(assets) */\n      swap1\n      pop\n        /* \"ERC4626.sol\":2909:2914  owner */\n      dup2\n        /* \"ERC4626.sol\":2895:2914  msg.sender != owner */\n      0xffffffffffffffffffffffffffffffffffffffff\n      and\n        /* \"ERC4626.sol\":2895:2905  msg.sender */\n      caller\n        /* \"ERC4626.sol\":2895:2914  msg.sender != owner */\n      0xffffffffffffffffffffffffffffffffffffffff\n      and\n      eq\n        /* \"ERC4626.sol\":2891:3135  if (msg.sender != owner) {... */\n      tag_240\n      jumpi\n        /* \"ERC4626.sol\":2930:2945  uint256 allowed */\n      0x00\n        /* \"ERC4626.sol\":2948:2957  allowance */\n      0x04\n        /* \"ERC4626.sol\":2948:2964  allowance[owner] */\n      0x00\n        /* \"ERC4626.sol\":2958:2963  owner */\n      dup5\n        /* \"ERC4626.sol\":2948:2964  allowance[owner] */\n      0xffffffffffffffffffffffffffffffffffffffff\n      and\n      0xffffffffffffffffffffffffffffffffffffffff\n      and\n      dup2\n      mstore\n      0x20\n      add\n      swap1\n      dup2\n      mstore\n      0x20\n      add\n      0x00\n      keccak256\n        /* \"ERC4626.sol\":2948:2976  allowance[owner][msg.sender] */\n      0x00\n        /* \"ERC4626.sol\":2965:2975  msg.sender */\n      caller\n        /* \"ERC4626.sol\":2948:2976  allowance[owner][msg.sender] */\n      0xffffffffffffffffffffffffffffffffffffffff\n      and\n      0xffffffffffffffffffffffffffffffffffffffff\n      and\n      dup2\n      mstore\n      0x20\n      add\n      swap1\n      dup2\n      mstore\n      0x20\n      add\n      0x00\n      keccak256\n      sload\n        /* \"ERC4626.sol\":2930:2976  uint256 allowed = allowance[owner][msg.sender] */\n      swap1\n      pop\n        /* \"ERC4626.sol\":3042:3059  type(uint256).max */\n      0xffffffffffffffffffffffffffffffffffffffffffffffffffffffffffffffff\n        /* \"ERC4626.sol\":3031:3038  allowed */\n      dup2\n        /* \"ERC4626.sol\":3031:3059  allowed != type(uint256).max */\n      eq\n        /* \"ERC4626.sol\":3027:3124  if (allowed != type(uint256).max)... */\n      tag_241\n      jumpi\n        /* \"ERC4626.sol\":3118:3124  shares */\n      dup2\n        /* \"ERC4626.sol\":3108:3115  allowed */\n      dup2\n        /* \"ERC4626.sol\":3108:3124  allowed - shares */\n      tag_242\n      swap2\n      swap1\n      tag_195\n      jump\t// in\n    tag_242:\n        /* \"ERC4626.sol\":3077:3086  allowance */\n      0x04\n        /* \"ERC4626.sol\":3077:3093  allowance[owner] */\n      0x00\n        /* \"ERC4626.sol\":3087:3092  owner */\n      dup6\n        /* \"ERC4626.sol\":3077:3093  allowance[owner] */\n      0xffffffffffffffffffffffffffffffffffffffff\n      and\n      0xffffffffffffffffffffffffffffffffffffffff\n      and\n      dup2\n      mstore\n      0x20\n      add\n      swap1\n      dup2\n      mstore\n      0x20\n      add\n      0x00\n      keccak256\n        /* \"ERC4626.sol\":3077:3105  allowance[owner][msg.sender] */\n      0x00\n        /* \"ERC4626.sol\":3094:3104  msg.sender */\n      caller\n        /* \"ERC4626.sol\":3077:3105  allowance[owner][msg.sender] */\n      0xffffffffffffffffffffffffffffffffffffffff\n      and\n      0xffffffffffffffffffffffffffffffffffffffff\n      and\n      dup2\n      mstore\n      0x20\n      add\n      swap1\n      dup2\n      mstore\n      0x20\n      add\n      0x00\n      keccak256\n        /* \"ERC4626.sol\":3077:3124  allowance[owner][msg.sender] = allowed - shares */\n      dup2\n      swap1\n      sstore\n      pop\n        /* \"ERC4626.sol\":3027:3124  if (allowed != type(uint256).max)... */\n    tag_241:\n        /* \"ERC4626.sol\":2916:3135  {... */\n      pop\n        /* \"ERC4626.sol\":2891:3135  if (msg.sender != owner) {... */\n    tag_240:\n        /* \"ERC4626.sol\":3145:3175  beforeWithdraw(assets, shares) */\n      tag_243\n        /* \"ERC4626.sol\":3160:3166  assets */\n      dup5\n        /* \"ERC4626.sol\":3168:3174  shares */\n      dup3\n        /* \"ERC4626.sol\":3145:3159  beforeWithdraw */\n      tag_244\n        /* \"ERC4626.sol\":3145:3175  beforeWithdraw(assets, shares) */\n      jump\t// in\n    tag_243:\n        /* \"ERC4626.sol\":3186:3206  _burn(owner, shares) */\n      tag_245\n        /* \"ERC4626.sol\":3192:3197  owner */\n      dup3\n        /* \"ERC4626.sol\":3199:3205  shares */\n      dup3\n        /* \"ERC4626.sol\":3186:3191  _burn */\n      tag_246\n        /* \"ERC4626.sol\":3186:3206  _burn(owner, shares) */\n      jump\t// in\n    tag_245:\n        /* \"ERC4626.sol\":3253:3258  owner */\n      dup2\n        /* \"ERC4626.sol\":3222:3275  Withdraw(msg.sender, receiver, owner, assets, shares) */\n      0xffffffffffffffffffffffffffffffffffffffff\n      and\n        /* \"ERC4626.sol\":3243:3251  receiver */\n      dup4\n        /* \"ERC4626.sol\":3222:3275  Withdraw(msg.sender, receiver, owner, assets, shares) */\n      0xffffffffffffffffffffffffffffffffffffffff\n      and\n        /* \"ERC4626.sol\":3231:3241  msg.sender */\n      caller\n        /* \"ERC4626.sol\":3222:3275  Withdraw(msg.sender, receiver, owner, assets, shares) */\n      0xffffffffffffffffffffffffffffffffffffffff\n      and\n      0xfbde797d201c681b91056529119e0b02407c7bb96a4a2c75c01fc9667232c8db\n        /* \"ERC4626.sol\":3260:3266  assets */\n      dup8\n        /* \"ERC4626.sol\":3268:3274  shares */\n      dup6\n        /* \"ERC4626.sol\":3222:3275  Withdraw(msg.sender, receiver, owner, assets, shares) */\n      mload(0x40)\n      tag_247\n      swap3\n      swap2\n      swap1\n      tag_216\n      jump\t// in\n    tag_247:\n      mload(0x40)\n      dup1\n      swap2\n      sub\n      swap1\n      log4\n        /* \"ERC4626.sol\":3286:3322  asset.safeTransfer(receiver, assets) */\n      tag_248\n        /* \"ERC4626.sol\":3305:3313  receiver */\n      dup4\n        /* \"ERC4626.sol\":3315:3321  assets */\n      dup6\n        /* \"ERC4626.sol\":3286:3291  asset */\n      immutable(\"0xecac27c21aa9a89d7be9ad03c2d91e82cbd466284ecdf2bd5bad7f953539cc45\")\n        /* \"ERC4626.sol\":3286:3304  asset.safeTransfer */\n      0xffffffffffffffffffffffffffffffffffffffff\n      and\n      tag_249\n      swap1\n        /* \"ERC4626.sol\":3286:3322  asset.safeTransfer(receiver, assets) */\n      swap3\n      swap2\n      swap1\n      0xffffffff\n      and\n      jump\t// in\n    tag_248:\n        /* \"ERC4626.sol\":2634:3329  function withdraw(... */\n      swap4\n      swap3\n      pop\n      pop\n      pop\n      jump\t// out\n        /* \"ERC4626.sol\":3335:4064  function redeem(... */\n    tag_127:\n        /* \"ERC4626.sol\":3454:3468  uint256 assets */\n      0x00\n        /* \"ERC4626.sol\":3498:3503  owner */\n      dup2\n        /* \"ERC4626.sol\":3484:3503  msg.sender != owner */\n      0xffffffffffffffffffffffffffffffffffffffff\n      and\n        /* \"ERC4626.sol\":3484:3494  msg.sender */\n      caller\n        /* \"ERC4626.sol\":3484:3503  msg.sender != owner */\n      0xffffffffffffffffffffffffffffffffffffffff\n      and\n      eq\n        /* \"ERC4626.sol\":3480:3724  if (msg.sender != owner) {... */\n      tag_251\n      jumpi\n        /* \"ERC4626.sol\":3519:3534  uint256 allowed */\n      0x00\n        /* \"ERC4626.sol\":3537:3546  allowance */\n      0x04\n        /* \"ERC4626.sol\":3537:3553  allowance[owner] */\n      0x00\n        /* \"ERC4626.sol\":3547:3552  owner */\n      dup5\n        /* \"ERC4626.sol\":3537:3553  allowance[owner] */\n      0xffffffffffffffffffffffffffffffffffffffff\n      and\n      0xffffffffffffffffffffffffffffffffffffffff\n      and\n      dup2\n      mstore\n      0x20\n      add\n      swap1\n      dup2\n      mstore\n      0x20\n      add\n      0x00\n      keccak256\n        /* \"ERC4626.sol\":3537:3565  allowance[owner][msg.sender] */\n      0x00\n        /* \"ERC4626.sol\":3554:3564  msg.sender */\n      caller\n        /* \"ERC4626.sol\":3537:3565  allowance[owner][msg.sender] */\n      0xffffffffffffffffffffffffffffffffffffffff\n      and\n      0xffffffffffffffffffffffffffffffffffffffff\n      and\n      dup2\n      mstore\n      0x20\n      add\n      swap1\n      dup2\n      mstore\n      0x20\n      add\n      0x00\n      keccak256\n      sload\n        /* \"ERC4626.sol\":3519:3565  uint256 allowed = allowance[owner][msg.sender] */\n      swap1\n      pop\n        /* \"ERC4626.sol\":3631:3648  type(uint256).max */\n      0xffffffffffffffffffffffffffffffffffffffffffffffffffffffffffffffff\n        /* \"ERC4626.sol\":3620:3627  allowed */\n      dup2\n        /* \"ERC4626.sol\":3620:3648  allowed != type(uint256).max */\n      eq\n        /* \"ERC4626.sol\":3616:3713  if (allowed != type(uint256).max)... */\n      tag_252\n      jumpi\n        /* \"ERC4626.sol\":3707:3713  shares */\n      dup5\n        /* \"ERC4626.sol\":3697:3704  allowed */\n      dup2\n        /* \"ERC4626.sol\":3697:3713  allowed - shares */\n      tag_253\n      swap2\n      swap1\n      tag_195\n      jump\t// in\n    tag_253:\n        /* \"ERC4626.sol\":3666:3675  allowance */\n      0x04\n        /* \"ERC4626.sol\":3666:3682  allowance[owner] */\n      0x00\n        /* \"ERC4626.sol\":3676:3681  owner */\n      dup6\n        /* \"ERC4626.sol\":3666:3682  allowance[owner] */\n      0xffffffffffffffffffffffffffffffffffffffff\n      and\n      0xffffffffffffffffffffffffffffffffffffffff\n      and\n      dup2\n      mstore\n      0x20\n      add\n      swap1\n      dup2\n      mstore\n      0x20\n      add\n      0x00\n      keccak256\n        /* \"ERC4626.sol\":3666:3694  allowance[owner][msg.sender] */\n      0x00\n        /* \"ERC4626.sol\":3683:3693  msg.sender */\n      caller\n        /* \"ERC4626.sol\":3666:3694  allowance[owner][msg.sender] */\n      0xffffffffffffffffffffffffffffffffffffffff\n      and\n      0xffffffffffffffffffffffffffffffffffffffff\n      and\n      dup2\n      mstore\n      0x20\n      add\n      swap1\n      dup2\n      mstore\n      0x20\n      add\n      0x00\n      keccak256\n        /* \"ERC4626.sol\":3666:3713  allowance[owner][msg.sender] = allowed - shares */\n      dup2\n      swap1\n      sstore\n      pop\n        /* \"ERC4626.sol\":3616:3713  if (allowed != type(uint256).max)... */\n    tag_252:\n        /* \"ERC4626.sol\":3505:3724  {... */\n      pop\n        /* \"ERC4626.sol\":3480:3724  if (msg.sender != owner) {... */\n    tag_251:\n        /* \"ERC4626.sol\":3852:3853  0 */\n      0x00\n        /* \"ERC4626.sol\":3826:3847  previewRedeem(shares) */\n      tag_254\n        /* \"ERC4626.sol\":3840:3846  shares */\n      dup6\n        /* \"ERC4626.sol\":3826:3839  previewRedeem */\n      tag_90\n        /* \"ERC4626.sol\":3826:3847  previewRedeem(shares) */\n      jump\t// in\n    tag_254:\n        /* \"ERC4626.sol\":3817:3847  assets = previewRedeem(shares) */\n      swap2\n      pop\n      dup2\n        /* \"ERC4626.sol\":3816:3853  (assets = previewRedeem(shares)) != 0 */\n      eq\n      iszero\n        /* \"ERC4626.sol\":3808:3869  require((assets = previewRedeem(shares)) != 0, \"ZERO_ASSETS\") */\n      tag_255\n      jumpi\n      mload(0x40)\n      0x08c379a000000000000000000000000000000000000000000000000000000000\n      dup2\n      mstore\n      0x04\n      add\n      tag_256\n      swap1\n      tag_257\n      jump\t// in\n    tag_256:\n      mload(0x40)\n      dup1\n      swap2\n      sub\n      swap1\n      revert\n    tag_255:\n        /* \"ERC4626.sol\":3880:3910  beforeWithdraw(assets, shares) */\n      tag_258\n        /* \"ERC4626.sol\":3895:3901  assets */\n      dup2\n        /* \"ERC4626.sol\":3903:3909  shares */\n      dup6\n        /* \"ERC4626.sol\":3880:3894  beforeWithdraw */\n      tag_244\n        /* \"ERC4626.sol\":3880:3910  beforeWithdraw(assets, shares) */\n      jump\t// in\n    tag_258:\n        /* \"ERC4626.sol\":3921:3941  _burn(owner, shares) */\n      tag_259\n        /* \"ERC4626.sol\":3927:3932  owner */\n      dup3\n        /* \"ERC4626.sol\":3934:3940  shares */\n      dup6\n        /* \"ERC4626.sol\":3921:3926  _burn */\n      tag_246\n        /* \"ERC4626.sol\":3921:3941  _burn(owner, shares) */\n      jump\t// in\n    tag_259:\n        /* \"ERC4626.sol\":3988:3993  owner */\n      dup2\n        /* \"ERC4626.sol\":3957:4010  Withdraw(msg.sender, receiver, owner, assets, shares) */\n      0xffffffffffffffffffffffffffffffffffffffff\n      and\n        /* \"ERC4626.sol\":3978:3986  receiver */\n      dup4\n        /* \"ERC4626.sol\":3957:4010  Withdraw(msg.sender, receiver, owner, assets, shares) */\n      0xffffffffffffffffffffffffffffffffffffffff\n      and\n        /* \"ERC4626.sol\":3966:3976  msg.sender */\n      caller\n        /* \"ERC4626.sol\":3957:4010  Withdraw(msg.sender, receiver, owner, assets, shares) */\n      0xffffffffffffffffffffffffffffffffffffffff\n      and\n      0xfbde797d201c681b91056529119e0b02407c7bb96a4a2c75c01fc9667232c8db\n        /* \"ERC4626.sol\":3995:4001  assets */\n      dup5\n        /* \"ERC4626.sol\":4003:4009  shares */\n      dup9\n        /* \"ERC4626.sol\":3957:4010  Withdraw(msg.sender, receiver, owner, assets, shares) */\n      mload(0x40)\n      tag_260\n      swap3\n      swap2\n      swap1\n      tag_216\n      jump\t// in\n    tag_260:\n      mload(0x40)\n      dup1\n      swap2\n      sub\n      swap1\n      log4\n        /* \"ERC4626.sol\":4021:4057  asset.safeTransfer(receiver, assets) */\n      tag_261\n        /* \"ERC4626.sol\":4040:4048  receiver */\n      dup4\n        /* \"ERC4626.sol\":4050:4056  assets */\n      dup3\n        /* \"ERC4626.sol\":4021:4026  asset */\n      immutable(\"0xecac27c21aa9a89d7be9ad03c2d91e82cbd466284ecdf2bd5bad7f953539cc45\")\n        /* \"ERC4626.sol\":4021:4039  asset.safeTransfer */\n      0xffffffffffffffffffffffffffffffffffffffff\n      and\n      tag_249\n      swap1\n        /* \"ERC4626.sol\":4021:4057  asset.safeTransfer(receiver, assets) */\n      swap3\n      swap2\n      swap1\n      0xffffffff\n      and\n      jump\t// in\n    tag_261:\n        /* \"ERC4626.sol\":3335:4064  function redeem(... */\n      swap4\n      swap3\n      pop\n      pop\n      pop\n      jump\t// out\n        /* \"MockERC4626.sol\":181:231  uint256 public beforeWithdrawHookCalledCounter = 0 */\n    tag_130:\n      sload(0x06)\n      dup2\n      jump\t// out\n        /* \"ERC4626.sol\":6111:6216  function maxMint(address) public view virtual returns (uint256) {... */\n    tag_134:\n        /* \"ERC4626.sol\":6166:6173  uint256 */\n      0x00\n        /* \"ERC4626.sol\":6192:6209  type(uint256).max */\n      0xffffffffffffffffffffffffffffffffffffffffffffffffffffffffffffffff\n        /* \"ERC4626.sol\":6185:6209  return type(uint256).max */\n      swap1\n      pop\n        /* \"ERC4626.sol\":6111:6216  function maxMint(address) public view virtual returns (uint256) {... */\n      swap2\n      swap1\n      pop\n      jump\t// out\n        /* \"ERC4626.sol\":4321:4614  function convertToShares(uint256 assets)... */\n    tag_138:\n        /* \"ERC4626.sol\":4423:4430  uint256 */\n      0x00\n        /* \"ERC4626.sol\":4446:4460  uint256 supply */\n      dup1\n        /* \"ERC4626.sol\":4463:4474  totalSupply */\n      sload(0x02)\n        /* \"ERC4626.sol\":4446:4474  uint256 supply = totalSupply */\n      swap1\n      pop\n        /* \"ERC4626.sol\":4554:4555  0 */\n      0x00\n        /* \"ERC4626.sol\":4544:4550  supply */\n      dup2\n        /* \"ERC4626.sol\":4544:4555  supply == 0 */\n      eq\n        /* \"ERC4626.sol\":4544:4607  supply == 0 ? assets : assets.mulDivDown(supply, totalAssets()) */\n      tag_264\n      jumpi\n        /* \"ERC4626.sol\":4567:4607  assets.mulDivDown(supply, totalAssets()) */\n      tag_265\n        /* \"ERC4626.sol\":4585:4591  supply */\n      dup2\n        /* \"ERC4626.sol\":4593:4606  totalAssets() */\n      tag_266\n        /* \"ERC4626.sol\":4593:4604  totalAssets */\n      tag_41\n        /* \"ERC4626.sol\":4593:4606  totalAssets() */\n      jump\t// in\n    tag_266:\n        /* \"ERC4626.sol\":4567:4573  assets */\n      dup6\n        /* \"ERC4626.sol\":4567:4584  assets.mulDivDown */\n      tag_182\n      swap1\n        /* \"ERC4626.sol\":4567:4607  assets.mulDivDown(supply, totalAssets()) */\n      swap3\n      swap2\n      swap1\n      0xffffffff\n      and\n      jump\t// in\n    tag_265:\n        /* \"ERC4626.sol\":4544:4607  supply == 0 ? assets : assets.mulDivDown(supply, totalAssets()) */\n      jump(tag_267)\n    tag_264:\n        /* \"ERC4626.sol\":4558:4564  assets */\n      dup3\n        /* \"ERC4626.sol\":4544:4607  supply == 0 ? assets : assets.mulDivDown(supply, totalAssets()) */\n    tag_267:\n        /* \"ERC4626.sol\":4537:4607  return supply == 0 ? assets : assets.mulDivDown(supply, totalAssets()) */\n      swap2\n      pop\n      pop\n        /* \"ERC4626.sol\":4321:4614  function convertToShares(uint256 assets)... */\n      swap2\n      swap1\n      pop\n      jump\t// out\n        /* \"ERC4626.sol\":6222:6353  function maxWithdraw(address owner) public view virtual returns (uint256) {... */\n    tag_142:\n        /* \"ERC4626.sol\":6287:6294  uint256 */\n      0x00\n        /* \"ERC4626.sol\":6313:6346  convertToAssets(balanceOf[owner]) */\n      tag_269\n        /* \"ERC4626.sol\":6329:6338  balanceOf */\n      0x03\n        /* \"ERC4626.sol\":6329:6345  balanceOf[owner] */\n      0x00\n        /* \"ERC4626.sol\":6339:6344  owner */\n      dup5\n        /* \"ERC4626.sol\":6329:6345  balanceOf[owner] */\n      0xffffffffffffffffffffffffffffffffffffffff\n      and\n      0xffffffffffffffffffffffffffffffffffffffff\n      and\n      dup2\n      mstore\n      0x20\n      add\n      swap1\n      dup2\n      mstore\n      0x20\n      add\n      0x00\n      keccak256\n      sload\n        /* \"ERC4626.sol\":6313:6328  convertToAssets */\n      tag_51\n        /* \"ERC4626.sol\":6313:6346  convertToAssets(balanceOf[owner]) */\n      jump\t// in\n    tag_269:\n        /* \"ERC4626.sol\":6306:6346  return convertToAssets(balanceOf[owner]) */\n      swap1\n      pop\n        /* \"ERC4626.sol\":6222:6353  function maxWithdraw(address owner) public view virtual returns (uint256) {... */\n      swap2\n      swap1\n      pop\n      jump\t// out\n        /* \"ERC20.sol\":3936:5465  function permit(... */\n    tag_147:\n        /* \"ERC20.sol\":4155:4170  block.timestamp */\n      timestamp\n        /* \"ERC20.sol\":4143:4151  deadline */\n      dup5\n        /* \"ERC20.sol\":4143:4170  deadline >= block.timestamp */\n      lt\n      iszero\n        /* \"ERC20.sol\":4135:4198  require(deadline >= block.timestamp, \"PERMIT_DEADLINE_EXPIRED\") */\n      tag_271\n      jumpi\n      mload(0x40)\n      0x08c379a000000000000000000000000000000000000000000000000000000000\n      dup2\n      mstore\n      0x04\n      add\n      tag_272\n      swap1\n      tag_273\n      jump\t// in\n    tag_272:\n      mload(0x40)\n      dup1\n      swap2\n      sub\n      swap1\n      revert\n    tag_271:\n        /* \"ERC20.sol\":4363:4387  address recoveredAddress */\n      0x00\n        /* \"ERC20.sol\":4390:5195  ecrecover(... */\n      0x01\n        /* \"ERC20.sol\":4526:4544  DOMAIN_SEPARATOR() */\n      tag_274\n        /* \"ERC20.sol\":4526:4542  DOMAIN_SEPARATOR */\n      tag_76\n        /* \"ERC20.sol\":4526:4544  DOMAIN_SEPARATOR() */\n      jump\t// in\n    tag_274:\n        /* \"ERC20.sol\":4653:4818  keccak256(... */\n      0x6e71edae12b1b97f4d1f60370fef10105fa2faae0126114a169c64845d6126c9\n        /* \"ERC20.sol\":4852:4857  owner */\n      dup11\n        /* \"ERC20.sol\":4891:4898  spender */\n      dup11\n        /* \"ERC20.sol\":4932:4937  value */\n      dup11\n        /* \"ERC20.sol\":4971:4977  nonces */\n      0x05\n        /* \"ERC20.sol\":4971:4984  nonces[owner] */\n      0x00\n        /* \"ERC20.sol\":4978:4983  owner */\n      dup16\n        /* \"ERC20.sol\":4971:4984  nonces[owner] */\n      0xffffffffffffffffffffffffffffffffffffffff\n      and\n      0xffffffffffffffffffffffffffffffffffffffff\n      and\n      dup2\n      mstore\n      0x20\n      add\n      swap1\n      dup2\n      mstore\n      0x20\n      add\n      0x00\n      keccak256\n      0x00\n        /* \"ERC20.sol\":4971:4986  nonces[owner]++ */\n      dup2\n      sload\n      dup1\n      swap3\n      swap2\n      swap1\n      0x01\n      add\n      swap2\n      swap1\n      pop\n      sstore\n        /* \"ERC20.sol\":5020:5028  deadline */\n      dup12\n        /* \"ERC20.sol\":4609:5058  abi.encode(... */\n      add(0x20, mload(0x40))\n      tag_275\n      swap7\n      swap6\n      swap5\n      swap4\n      swap3\n      swap2\n      swap1\n      tag_276\n      jump\t// in\n    tag_275:\n      mload(0x40)\n      0x20\n      dup2\n      dup4\n      sub\n      sub\n      dup2\n      mstore\n      swap1\n      0x40\n      mstore\n        /* \"ERC20.sol\":4570:5084  keccak256(... */\n      dup1\n      mload\n      swap1\n      0x20\n      add\n      keccak256\n        /* \"ERC20.sol\":4448:5106  abi.encodePacked(... */\n      add(0x20, mload(0x40))\n      tag_277\n      swap3\n      swap2\n      swap1\n      tag_278\n      jump\t// in\n    tag_277:\n      mload(0x40)\n      0x20\n      dup2\n      dup4\n      sub\n      sub\n      dup2\n      mstore\n      swap1\n      0x40\n      mstore\n        /* \"ERC20.sol\":4417:5124  keccak256(... */\n      dup1\n      mload\n      swap1\n      0x20\n      add\n      keccak256\n        /* \"ERC20.sol\":5142:5143  v */\n      dup6\n        /* \"ERC20.sol\":5161:5162  r */\n      dup6\n        /* \"ERC20.sol\":5180:5181  s */\n      dup6\n        /* \"ERC20.sol\":4390:5195  ecrecover(... */\n      mload(0x40)\n      0x00\n      dup2\n      mstore\n      0x20\n      add\n      0x40\n      mstore\n      mload(0x40)\n      tag_279\n      swap5\n      swap4\n      swap3\n      swap2\n      swap1\n      tag_280\n      jump\t// in\n    tag_279:\n      0x20\n      mload(0x40)\n      0x20\n      dup2\n      sub\n      swap1\n      dup1\n      dup5\n      sub\n      swap1\n      dup6\n      gas\n      staticcall\n      iszero\n      dup1\n      iszero\n      tag_282\n      jumpi\n      returndatasize\n      0x00\n      dup1\n      returndatacopy\n      revert(0x00, returndatasize)\n    tag_282:\n      pop\n      pop\n      pop\n      mload(sub(mload(0x40), 0x20))\n        /* \"ERC20.sol\":4363:5195  address recoveredAddress = ecrecover(... */\n      swap1\n      pop\n        /* \"ERC20.sol\":5263:5264  0 */\n      0x00\n        /* \"ERC20.sol\":5235:5265  recoveredAddress != address(0) */\n      0xffffffffffffffffffffffffffffffffffffffff\n      and\n        /* \"ERC20.sol\":5235:5251  recoveredAddress */\n      dup2\n        /* \"ERC20.sol\":5235:5265  recoveredAddress != address(0) */\n      0xffffffffffffffffffffffffffffffffffffffff\n      and\n      eq\n      iszero\n        /* \"ERC20.sol\":5235:5294  recoveredAddress != address(0) && recoveredAddress == owner */\n      dup1\n      iszero\n      tag_283\n      jumpi\n      pop\n        /* \"ERC20.sol\":5289:5294  owner */\n      dup8\n        /* \"ERC20.sol\":5269:5294  recoveredAddress == owner */\n      0xffffffffffffffffffffffffffffffffffffffff\n      and\n        /* \"ERC20.sol\":5269:5285  recoveredAddress */\n      dup2\n        /* \"ERC20.sol\":5269:5294  recoveredAddress == owner */\n      0xffffffffffffffffffffffffffffffffffffffff\n      and\n      eq\n        /* \"ERC20.sol\":5235:5294  recoveredAddress != address(0) && recoveredAddress == owner */\n    tag_283:\n        /* \"ERC20.sol\":5210:5342  require(... */\n      tag_284\n      jumpi\n      mload(0x40)\n      0x08c379a000000000000000000000000000000000000000000000000000000000\n      dup2\n      mstore\n      0x04\n      add\n      tag_285\n      swap1\n      tag_286\n      jump\t// in\n    tag_285:\n      mload(0x40)\n      dup1\n      swap2\n      sub\n      swap1\n      revert\n    tag_284:\n        /* \"ERC20.sol\":5396:5401  value */\n      dup6\n        /* \"ERC20.sol\":5357:5366  allowance */\n      0x04\n        /* \"ERC20.sol\":5357:5384  allowance[recoveredAddress] */\n      0x00\n        /* \"ERC20.sol\":5367:5383  recoveredAddress */\n      dup4\n        /* \"ERC20.sol\":5357:5384  allowance[recoveredAddress] */\n      0xffffffffffffffffffffffffffffffffffffffff\n      and\n      0xffffffffffffffffffffffffffffffffffffffff\n      and\n      dup2\n      mstore\n      0x20\n      add\n      swap1\n      dup2\n      mstore\n      0x20\n      add\n      0x00\n      keccak256\n        /* \"ERC20.sol\":5357:5393  allowance[recoveredAddress][spender] */\n      0x00\n        /* \"ERC20.sol\":5385:5392  spender */\n      dup10\n        /* \"ERC20.sol\":5357:5393  allowance[recoveredAddress][spender] */\n      0xffffffffffffffffffffffffffffffffffffffff\n      and\n      0xffffffffffffffffffffffffffffffffffffffff\n      and\n      dup2\n      mstore\n      0x20\n      add\n      swap1\n      dup2\n      mstore\n      0x20\n      add\n      0x00\n      keccak256\n        /* \"ERC20.sol\":5357:5401  allowance[recoveredAddress][spender] = value */\n      dup2\n      swap1\n      sstore\n      pop\n        /* \"ERC20.sol\":4339:5412  unchecked {... */\n      pop\n        /* \"ERC20.sol\":5443:5450  spender */\n      dup6\n        /* \"ERC20.sol\":5427:5458  Approval(owner, spender, value) */\n      0xffffffffffffffffffffffffffffffffffffffff\n      and\n        /* \"ERC20.sol\":5436:5441  owner */\n      dup8\n        /* \"ERC20.sol\":5427:5458  Approval(owner, spender, value) */\n      0xffffffffffffffffffffffffffffffffffffffff\n      and\n      0x8c5be1e5ebec7d5bd14f71427d1e84f3dd0314c0f7b2291e5b200ac8c7c3b925\n        /* \"ERC20.sol\":5452:5457  value */\n      dup8\n        /* \"ERC20.sol\":5427:5458  Approval(owner, spender, value) */\n      mload(0x40)\n      tag_287\n      swap2\n      swap1\n      tag_43\n      jump\t// in\n    tag_287:\n      mload(0x40)\n      dup1\n      swap2\n      sub\n      swap1\n      log3\n        /* \"ERC20.sol\":3936:5465  function permit(... */\n      pop\n      pop\n      pop\n      pop\n      pop\n      pop\n      pop\n      jump\t// out\n        /* \"ERC4626.sol\":6359:6471  function maxRedeem(address owner) public view virtual returns (uint256) {... */\n    tag_150:\n        /* \"ERC4626.sol\":6422:6429  uint256 */\n      0x00\n        /* \"ERC4626.sol\":6448:6457  balanceOf */\n      0x03\n        /* \"ERC4626.sol\":6448:6464  balanceOf[owner] */\n      0x00\n        /* \"ERC4626.sol\":6458:6463  owner */\n      dup4\n        /* \"ERC4626.sol\":6448:6464  balanceOf[owner] */\n      0xffffffffffffffffffffffffffffffffffffffff\n      and\n      0xffffffffffffffffffffffffffffffffffffffff\n      and\n      dup2\n      mstore\n      0x20\n      add\n      swap1\n      dup2\n      mstore\n      0x20\n      add\n      0x00\n      keccak256\n      sload\n        /* \"ERC4626.sol\":6441:6464  return balanceOf[owner] */\n      swap1\n      pop\n        /* \"ERC4626.sol\":6359:6471  function maxRedeem(address owner) public view virtual returns (uint256) {... */\n      swap2\n      swap1\n      pop\n      jump\t// out\n        /* \"ERC20.sol\":1418:1482  mapping(address => mapping(address => uint256)) public allowance */\n    tag_155:\n      mstore(0x20, 0x04)\n      dup2\n      0x00\n      mstore\n      mstore(0x20, keccak256(0x00, 0x40))\n      dup1\n      0x00\n      mstore\n      keccak256(0x00, 0x40)\n      0x00\n      swap2\n      pop\n      swap2\n      pop\n      pop\n      sload\n      dup2\n      jump\t// out\n        /* \"ERC4626.sol\":4919:5080  function previewDeposit(uint256 assets)... */\n    tag_159:\n        /* \"ERC4626.sol\":5020:5027  uint256 */\n      0x00\n        /* \"ERC4626.sol\":5050:5073  convertToShares(assets) */\n      tag_290\n        /* \"ERC4626.sol\":5066:5072  assets */\n      dup3\n        /* \"ERC4626.sol\":5050:5065  convertToShares */\n      tag_138\n        /* \"ERC4626.sol\":5050:5073  convertToShares(assets) */\n      jump\t// in\n    tag_290:\n        /* \"ERC4626.sol\":5043:5073  return convertToShares(assets) */\n      swap1\n      pop\n        /* \"ERC4626.sol\":4919:5080  function previewDeposit(uint256 assets)... */\n      swap2\n      swap1\n      pop\n      jump\t// out\n        /* \"MockERC4626.sol\":237:285  uint256 public afterDepositHookCalledCounter = 0 */\n    tag_162:\n      sload(0x07)\n      dup2\n      jump\t// out\n        /* \"FixedPointMathLib.sol\":1507:2130  function mulDivDown(... */\n    tag_182:\n        /* \"FixedPointMathLib.sol\":1623:1632  uint256 z */\n      0x00\n        /* \"FixedPointMathLib.sol\":1720:1721  y */\n      dup3\n        /* \"FixedPointMathLib.sol\":1717:1718  x */\n      dup5\n        /* \"FixedPointMathLib.sol\":1713:1722  mul(x, y) */\n      mul\n        /* \"FixedPointMathLib.sol\":1708:1722  z := mul(x, y) */\n      swap1\n      pop\n        /* \"FixedPointMathLib.sol\":1952:1953  y */\n      dup3\n        /* \"FixedPointMathLib.sol\":1948:1949  x */\n      dup5\n        /* \"FixedPointMathLib.sol\":1945:1946  z */\n      dup3\n        /* \"FixedPointMathLib.sol\":1941:1950  div(z, x) */\n      div\n        /* \"FixedPointMathLib.sol\":1938:1954  eq(div(z, x), y) */\n      eq\n        /* \"FixedPointMathLib.sol\":1934:1935  x */\n      dup5\n        /* \"FixedPointMathLib.sol\":1927:1936  iszero(x) */\n      iszero\n        /* \"FixedPointMathLib.sol\":1924:1955  or(iszero(x), eq(div(z, x), y)) */\n      or\n        /* \"FixedPointMathLib.sol\":1889:1900  denominator */\n      dup3\n        /* \"FixedPointMathLib.sol\":1882:1901  iszero(denominator) */\n      iszero\n        /* \"FixedPointMathLib.sol\":1875:1902  iszero(iszero(denominator)) */\n      iszero\n        /* \"FixedPointMathLib.sol\":1850:1973  and(... */\n      and\n        /* \"FixedPointMathLib.sol\":1823:2032  if iszero(... */\n      tag_292\n      jumpi\n        /* \"FixedPointMathLib.sol\":2016:2017  0 */\n      0x00\n        /* \"FixedPointMathLib.sol\":2013:2014  0 */\n      dup1\n        /* \"FixedPointMathLib.sol\":2006:2018  revert(0, 0) */\n      revert\n        /* \"FixedPointMathLib.sol\":1823:2032  if iszero(... */\n    tag_292:\n        /* \"FixedPointMathLib.sol\":2102:2113  denominator */\n      dup2\n        /* \"FixedPointMathLib.sol\":2099:2100  z */\n      dup2\n        /* \"FixedPointMathLib.sol\":2095:2114  div(z, denominator) */\n      div\n        /* \"FixedPointMathLib.sol\":2090:2114  z := div(z, denominator) */\n      swap1\n      pop\n        /* \"FixedPointMathLib.sol\":1507:2130  function mulDivDown(... */\n      swap4\n      swap3\n      pop\n      pop\n      pop\n      jump\t// out\n        /* \"FixedPointMathLib.sol\":2136:2976  function mulDivUp(... */\n    tag_190:\n        /* \"FixedPointMathLib.sol\":2250:2259  uint256 z */\n      0x00\n        /* \"FixedPointMathLib.sol\":2347:2348  y */\n      dup3\n        /* \"FixedPointMathLib.sol\":2344:2345  x */\n      dup5\n        /* \"FixedPointMathLib.sol\":2340:2349  mul(x, y) */\n      mul\n        /* \"FixedPointMathLib.sol\":2335:2349  z := mul(x, y) */\n      swap1\n      pop\n        /* \"FixedPointMathLib.sol\":2579:2580  y */\n      dup3\n        /* \"FixedPointMathLib.sol\":2575:2576  x */\n      dup5\n        /* \"FixedPointMathLib.sol\":2572:2573  z */\n      dup3\n        /* \"FixedPointMathLib.sol\":2568:2577  div(z, x) */\n      div\n        /* \"FixedPointMathLib.sol\":2565:2581  eq(div(z, x), y) */\n      eq\n        /* \"FixedPointMathLib.sol\":2561:2562  x */\n      dup5\n        /* \"FixedPointMathLib.sol\":2554:2563  iszero(x) */\n      iszero\n        /* \"FixedPointMathLib.sol\":2551:2582  or(iszero(x), eq(div(z, x), y)) */\n      or\n        /* \"FixedPointMathLib.sol\":2516:2527  denominator */\n      dup3\n        /* \"FixedPointMathLib.sol\":2509:2528  iszero(denominator) */\n      iszero\n        /* \"FixedPointMathLib.sol\":2502:2529  iszero(iszero(denominator)) */\n      iszero\n        /* \"FixedPointMathLib.sol\":2477:2600  and(... */\n      and\n        /* \"FixedPointMathLib.sol\":2450:2659  if iszero(... */\n      tag_294\n      jumpi\n        /* \"FixedPointMathLib.sol\":2643:2644  0 */\n      0x00\n        /* \"FixedPointMathLib.sol\":2640:2641  0 */\n      dup1\n        /* \"FixedPointMathLib.sol\":2633:2645  revert(0, 0) */\n      revert\n        /* \"FixedPointMathLib.sol\":2450:2659  if iszero(... */\n    tag_294:\n        /* \"FixedPointMathLib.sol\":2957:2958  1 */\n      0x01\n        /* \"FixedPointMathLib.sol\":2943:2954  denominator */\n      dup3\n        /* \"FixedPointMathLib.sol\":2939:2940  1 */\n      0x01\n        /* \"FixedPointMathLib.sol\":2936:2937  z */\n      dup4\n        /* \"FixedPointMathLib.sol\":2932:2941  sub(z, 1) */\n      sub\n        /* \"FixedPointMathLib.sol\":2928:2955  div(sub(z, 1), denominator) */\n      div\n        /* \"FixedPointMathLib.sol\":2924:2959  add(div(sub(z, 1), denominator), 1) */\n      add\n        /* \"FixedPointMathLib.sol\":2919:2920  z */\n      dup2\n        /* \"FixedPointMathLib.sol\":2912:2921  iszero(z) */\n      iszero\n        /* \"FixedPointMathLib.sol\":2905:2922  iszero(iszero(z)) */\n      iszero\n        /* \"FixedPointMathLib.sol\":2901:2960  mul(iszero(iszero(z)), add(div(sub(z, 1), denominator), 1)) */\n      mul\n        /* \"FixedPointMathLib.sol\":2896:2960  z := mul(iszero(iszero(z)), add(div(sub(z, 1), denominator), 1)) */\n      swap1\n      pop\n        /* \"FixedPointMathLib.sol\":2136:2976  function mulDivUp(... */\n      swap4\n      swap3\n      pop\n      pop\n      pop\n      jump\t// out\n        /* \"ERC20.sol\":5698:6190  function computeDomainSeparator() internal view virtual returns (bytes32) {... */\n    tag_201:\n        /* \"ERC20.sol\":5763:5770  bytes32 */\n      0x00\n        /* \"ERC20.sol\":5860:6001  keccak256(... */\n      0x8b73c3c69bb8fe3d512ecc4cf759cc79239f7b179b0ffacaa9a75d522b39400f\n        /* \"ERC20.sol\":6039:6043  name */\n      0x00\n        /* \"ERC20.sol\":6023:6045  keccak256(bytes(name)) */\n      mload(0x40)\n      tag_296\n      swap2\n      swap1\n      tag_297\n      jump\t// in\n    tag_296:\n      mload(0x40)\n      dup1\n      swap2\n      sub\n      swap1\n      keccak256\n        /* \"ERC20.sol\":6067:6081  keccak256(\"1\") */\n      0xc89efdaa54c0f20c7adf612882df0950f5a951637e0307cdcb4c672f298b8bc6\n        /* \"ERC20.sol\":6103:6116  block.chainid */\n      chainid\n        /* \"ERC20.sol\":6146:6150  this */\n      address\n        /* \"ERC20.sol\":5828:6169  abi.encode(... */\n      add(0x20, mload(0x40))\n      tag_298\n      swap6\n      swap5\n      swap4\n      swap3\n      swap2\n      swap1\n      tag_299\n      jump\t// in\n    tag_298:\n      mload(0x40)\n      0x20\n      dup2\n      dup4\n      sub\n      sub\n      dup2\n      mstore\n      swap1\n      0x40\n      mstore\n        /* \"ERC20.sol\":5801:6183  keccak256(... */\n      dup1\n      mload\n      swap1\n      0x20\n      add\n      keccak256\n        /* \"ERC20.sol\":5782:6183  return... */\n      swap1\n      pop\n        /* \"ERC20.sol\":5698:6190  function computeDomainSeparator() internal view virtual returns (bytes32) {... */\n      swap1\n      jump\t// out\n        /* \"SafeTransferLib.sol\":1277:2954  function safeTransferFrom(... */\n    tag_212:\n        /* \"SafeTransferLib.sol\":1415:1427  bool success */\n      0x00\n        /* \"SafeTransferLib.sol\":1542:1546  0x40 */\n      0x40\n        /* \"SafeTransferLib.sol\":1536:1547  mload(0x40) */\n      mload\n        /* \"SafeTransferLib.sol\":1717:1783  0x23b872dd00000000000000000000000000000000000000000000000000000000 */\n      0x23b872dd00000000000000000000000000000000000000000000000000000000\n        /* \"SafeTransferLib.sol\":1682:1699  freeMemoryPointer */\n      dup2\n        /* \"SafeTransferLib.sol\":1658:1797  mstore(... */\n      mstore\n        /* \"SafeTransferLib.sol\":1844:1848  from */\n      dup5\n        /* \"SafeTransferLib.sol\":1840:1841  4 */\n      0x04\n        /* \"SafeTransferLib.sol\":1821:1838  freeMemoryPointer */\n      dup3\n        /* \"SafeTransferLib.sol\":1817:1842  add(freeMemoryPointer, 4) */\n      add\n        /* \"SafeTransferLib.sol\":1810:1849  mstore(add(freeMemoryPointer, 4), from) */\n      mstore\n        /* \"SafeTransferLib.sol\":1928:1930  to */\n      dup4\n        /* \"SafeTransferLib.sol\":1923:1925  36 */\n      0x24\n        /* \"SafeTransferLib.sol\":1904:1921  freeMemoryPointer */\n      dup3\n        /* \"SafeTransferLib.sol\":1900:1926  add(freeMemoryPointer, 36) */\n      add\n        /* \"SafeTransferLib.sol\":1893:1931  mstore(add(freeMemoryPointer, 36), to) */\n      mstore\n        /* \"SafeTransferLib.sol\":2008:2014  amount */\n      dup3\n        /* \"SafeTransferLib.sol\":2003:2005  68 */\n      0x44\n        /* \"SafeTransferLib.sol\":1984:2001  freeMemoryPointer */\n      dup3\n        /* \"SafeTransferLib.sol\":1980:2006  add(freeMemoryPointer, 68) */\n      add\n        /* \"SafeTransferLib.sol\":1973:2015  mstore(add(freeMemoryPointer, 68), amount) */\n      mstore\n        /* \"SafeTransferLib.sol\":2870:2872  32 */\n      0x20\n        /* \"SafeTransferLib.sol\":2867:2868  0 */\n      0x00\n        /* \"SafeTransferLib.sol\":2862:2865  100 */\n      0x64\n        /* \"SafeTransferLib.sol\":2843:2860  freeMemoryPointer */\n      dup4\n        /* \"SafeTransferLib.sol\":2840:2841  0 */\n      0x00\n        /* \"SafeTransferLib.sol\":2833:2838  token */\n      dup11\n        /* \"SafeTransferLib.sol\":2826:2831  gas() */\n      gas\n        /* \"SafeTransferLib.sol\":2821:2873  call(gas(), token, 0, freeMemoryPointer, 100, 0, 32) */\n      call\n        /* \"SafeTransferLib.sol\":2372:2388  returndatasize() */\n      returndatasize\n        /* \"SafeTransferLib.sol\":2365:2389  iszero(returndatasize()) */\n      iszero\n        /* \"SafeTransferLib.sol\":2339:2341  31 */\n      0x1f\n        /* \"SafeTransferLib.sol\":2321:2337  returndatasize() */\n      returndatasize\n        /* \"SafeTransferLib.sol\":2318:2342  gt(returndatasize(), 31) */\n      gt\n        /* \"SafeTransferLib.sol\":2314:2315  1 */\n      0x01\n        /* \"SafeTransferLib.sol\":2310:2311  0 */\n      0x00\n        /* \"SafeTransferLib.sol\":2304:2312  mload(0) */\n      mload\n        /* \"SafeTransferLib.sol\":2301:2316  eq(mload(0), 1) */\n      eq\n        /* \"SafeTransferLib.sol\":2297:2343  and(eq(mload(0), 1), gt(returndatasize(), 31)) */\n      and\n        /* \"SafeTransferLib.sol\":2273:2407  or(... */\n      or\n        /* \"SafeTransferLib.sol\":2073:2887  and(... */\n      and\n        /* \"SafeTransferLib.sol\":2062:2887  success := and(... */\n      swap2\n      pop\n        /* \"SafeTransferLib.sol\":1447:2897  {... */\n      pop\n        /* \"SafeTransferLib.sol\":2915:2922  success */\n      dup1\n        /* \"SafeTransferLib.sol\":2907:2947  require(success, \"TRANSFER_FROM_FAILED\") */\n      tag_301\n      jumpi\n      mload(0x40)\n      0x08c379a000000000000000000000000000000000000000000000000000000000\n      dup2\n      mstore\n      0x04\n      add\n      tag_302\n      swap1\n      tag_303\n      jump\t// in\n    tag_302:\n      mload(0x40)\n      dup1\n      swap2\n      sub\n      swap1\n      revert\n    tag_301:\n        /* \"SafeTransferLib.sol\":1405:2954  {... */\n      pop\n        /* \"SafeTransferLib.sol\":1277:2954  function safeTransferFrom(... */\n      pop\n      pop\n      pop\n      pop\n      jump\t// out\n        /* \"ERC20.sol\":6384:6709  function _mint(address to, uint256 amount) internal virtual {... */\n    tag_214:\n        /* \"ERC20.sol\":6469:6475  amount */\n      dup1\n        /* \"ERC20.sol\":6454:6465  totalSupply */\n      0x02\n      0x00\n        /* \"ERC20.sol\":6454:6475  totalSupply += amount */\n      dup3\n      dup3\n      sload\n      tag_305\n      swap2\n      swap1\n      tag_306\n      jump\t// in\n    tag_305:\n      swap3\n      pop\n      pop\n      dup2\n      swap1\n      sstore\n      pop\n        /* \"ERC20.sol\":6638:6644  amount */\n      dup1\n        /* \"ERC20.sol\":6621:6630  balanceOf */\n      0x03\n        /* \"ERC20.sol\":6621:6634  balanceOf[to] */\n      0x00\n        /* \"ERC20.sol\":6631:6633  to */\n      dup5\n        /* \"ERC20.sol\":6621:6634  balanceOf[to] */\n      0xffffffffffffffffffffffffffffffffffffffff\n      and\n      0xffffffffffffffffffffffffffffffffffffffff\n      and\n      dup2\n      mstore\n      0x20\n      add\n      swap1\n      dup2\n      mstore\n      0x20\n      add\n      0x00\n      keccak256\n      0x00\n        /* \"ERC20.sol\":6621:6644  balanceOf[to] += amount */\n      dup3\n      dup3\n      sload\n      add\n      swap3\n      pop\n      pop\n      dup2\n      swap1\n      sstore\n      pop\n        /* \"ERC20.sol\":6691:6693  to */\n      dup2\n        /* \"ERC20.sol\":6670:6702  Transfer(address(0), to, amount) */\n      0xffffffffffffffffffffffffffffffffffffffff\n      and\n        /* \"ERC20.sol\":6687:6688  0 */\n      0x00\n        /* \"ERC20.sol\":6670:6702  Transfer(address(0), to, amount) */\n      0xffffffffffffffffffffffffffffffffffffffff\n      and\n      0xddf252ad1be2c89b69c2b068fc378daa952ba7f163c4a11628f55a4df523b3ef\n        /* \"ERC20.sol\":6695:6701  amount */\n      dup4\n        /* \"ERC20.sol\":6670:6702  Transfer(address(0), to, amount) */\n      mload(0x40)\n      tag_307\n      swap2\n      swap1\n      tag_43\n      jump\t// in\n    tag_307:\n      mload(0x40)\n      dup1\n      swap2\n      sub\n      swap1\n      log3\n        /* \"ERC20.sol\":6384:6709  function _mint(address to, uint256 amount) internal virtual {... */\n      pop\n      pop\n      jump\t// out\n        /* \"MockERC4626.sol\":910:1016  function afterDeposit(uint256, uint256) internal override {... */\n    tag_218:\n        /* \"MockERC4626.sol\":978:1007  afterDepositHookCalledCounter */\n      0x07\n      0x00\n        /* \"MockERC4626.sol\":978:1009  afterDepositHookCalledCounter++ */\n      dup2\n      sload\n      dup1\n      swap3\n      swap2\n      swap1\n      tag_309\n      swap1\n      tag_310\n      jump\t// in\n    tag_309:\n      swap2\n      swap1\n      pop\n      sstore\n      pop\n        /* \"MockERC4626.sol\":910:1016  function afterDeposit(uint256, uint256) internal override {... */\n      pop\n      pop\n      jump\t// out\n        /* \"MockERC4626.sol\":794:904  function beforeWithdraw(uint256, uint256) internal override {... */\n    tag_244:\n        /* \"MockERC4626.sol\":864:895  beforeWithdrawHookCalledCounter */\n      0x06\n      0x00\n        /* \"MockERC4626.sol\":864:897  beforeWithdrawHookCalledCounter++ */\n      dup2\n      sload\n      dup1\n      swap3\n      swap2\n      swap1\n      tag_312\n      swap1\n      tag_310\n      jump\t// in\n    tag_312:\n      swap2\n      swap1\n      pop\n      sstore\n      pop\n        /* \"MockERC4626.sol\":794:904  function beforeWithdraw(uint256, uint256) internal override {... */\n      pop\n      pop\n      jump\t// out\n        /* \"ERC20.sol\":6715:7043  function _burn(address from, uint256 amount) internal virtual {... */\n    tag_246:\n        /* \"ERC20.sol\":6806:6812  amount */\n      dup1\n        /* \"ERC20.sol\":6787:6796  balanceOf */\n      0x03\n        /* \"ERC20.sol\":6787:6802  balanceOf[from] */\n      0x00\n        /* \"ERC20.sol\":6797:6801  from */\n      dup5\n        /* \"ERC20.sol\":6787:6802  balanceOf[from] */\n      0xffffffffffffffffffffffffffffffffffffffff\n      and\n      0xffffffffffffffffffffffffffffffffffffffff\n      and\n      dup2\n      mstore\n      0x20\n      add\n      swap1\n      dup2\n      mstore\n      0x20\n      add\n      0x00\n      keccak256\n      0x00\n        /* \"ERC20.sol\":6787:6812  balanceOf[from] -= amount */\n      dup3\n      dup3\n      sload\n      tag_314\n      swap2\n      swap1\n      tag_195\n      jump\t// in\n    tag_314:\n      swap3\n      pop\n      pop\n      dup2\n      swap1\n      sstore\n      pop\n        /* \"ERC20.sol\":6970:6976  amount */\n      dup1\n        /* \"ERC20.sol\":6955:6966  totalSupply */\n      0x02\n      0x00\n        /* \"ERC20.sol\":6955:6976  totalSupply -= amount */\n      dup3\n      dup3\n      sload\n      sub\n      swap3\n      pop\n      pop\n      dup2\n      swap1\n      sstore\n      pop\n        /* \"ERC20.sol\":7025:7026  0 */\n      0x00\n        /* \"ERC20.sol\":7002:7036  Transfer(from, address(0), amount) */\n      0xffffffffffffffffffffffffffffffffffffffff\n      and\n        /* \"ERC20.sol\":7011:7015  from */\n      dup3\n        /* \"ERC20.sol\":7002:7036  Transfer(from, address(0), amount) */\n      0xffffffffffffffffffffffffffffffffffffffff\n      and\n      0xddf252ad1be2c89b69c2b068fc378daa952ba7f163c4a11628f55a4df523b3ef\n        /* \"ERC20.sol\":7029:7035  amount */\n      dup4\n        /* \"ERC20.sol\":7002:7036  Transfer(from, address(0), amount) */\n      mload(0x40)\n      tag_315\n      swap2\n      swap1\n      tag_43\n      jump\t// in\n    tag_315:\n      mload(0x40)\n      dup1\n      swap2\n      sub\n      swap1\n      log3\n        /* \"ERC20.sol\":6715:7043  function _burn(address from, uint256 amount) internal virtual {... */\n      pop\n      pop\n      jump\t// out\n        /* \"SafeTransferLib.sol\":2960:4520  function safeTransfer(... */\n    tag_249:\n        /* \"SafeTransferLib.sol\":3072:3084  bool success */\n      0x00\n        /* \"SafeTransferLib.sol\":3199:3203  0x40 */\n      0x40\n        /* \"SafeTransferLib.sol\":3193:3204  mload(0x40) */\n      mload\n        /* \"SafeTransferLib.sol\":3374:3440  0xa9059cbb00000000000000000000000000000000000000000000000000000000 */\n      0xa9059cbb00000000000000000000000000000000000000000000000000000000\n        /* \"SafeTransferLib.sol\":3339:3356  freeMemoryPointer */\n      dup2\n        /* \"SafeTransferLib.sol\":3315:3454  mstore(... */\n      mstore\n        /* \"SafeTransferLib.sol\":3501:3503  to */\n      dup4\n        /* \"SafeTransferLib.sol\":3497:3498  4 */\n      0x04\n        /* \"SafeTransferLib.sol\":3478:3495  freeMemoryPointer */\n      dup3\n        /* \"SafeTransferLib.sol\":3474:3499  add(freeMemoryPointer, 4) */\n      add\n        /* \"SafeTransferLib.sol\":3467:3504  mstore(add(freeMemoryPointer, 4), to) */\n      mstore\n        /* \"SafeTransferLib.sol\":3581:3587  amount */\n      dup3\n        /* \"SafeTransferLib.sol\":3576:3578  36 */\n      0x24\n        /* \"SafeTransferLib.sol\":3557:3574  freeMemoryPointer */\n      dup3\n        /* \"SafeTransferLib.sol\":3553:3579  add(freeMemoryPointer, 36) */\n      add\n        /* \"SafeTransferLib.sol\":3546:3588  mstore(add(freeMemoryPointer, 36), amount) */\n      mstore\n        /* \"SafeTransferLib.sol\":4441:4443  32 */\n      0x20\n        /* \"SafeTransferLib.sol\":4438:4439  0 */\n      0x00\n        /* \"SafeTransferLib.sol\":4434:4436  68 */\n      0x44\n        /* \"SafeTransferLib.sol\":4415:4432  freeMemoryPointer */\n      dup4\n        /* \"SafeTransferLib.sol\":4412:4413  0 */\n      0x00\n        /* \"SafeTransferLib.sol\":4405:4410  token */\n      dup10\n        /* \"SafeTransferLib.sol\":4398:4403  gas() */\n      gas\n        /* \"SafeTransferLib.sol\":4393:4444  call(gas(), token, 0, freeMemoryPointer, 68, 0, 32) */\n      call\n        /* \"SafeTransferLib.sol\":3945:3961  returndatasize() */\n      returndatasize\n        /* \"SafeTransferLib.sol\":3938:3962  iszero(returndatasize()) */\n      iszero\n        /* \"SafeTransferLib.sol\":3912:3914  31 */\n      0x1f\n        /* \"SafeTransferLib.sol\":3894:3910  returndatasize() */\n      returndatasize\n        /* \"SafeTransferLib.sol\":3891:3915  gt(returndatasize(), 31) */\n      gt\n        /* \"SafeTransferLib.sol\":3887:3888  1 */\n      0x01\n        /* \"SafeTransferLib.sol\":3883:3884  0 */\n      0x00\n        /* \"SafeTransferLib.sol\":3877:3885  mload(0) */\n      mload\n        /* \"SafeTransferLib.sol\":3874:3889  eq(mload(0), 1) */\n      eq\n        /* \"SafeTransferLib.sol\":3870:3916  and(eq(mload(0), 1), gt(returndatasize(), 31)) */\n      and\n        /* \"SafeTransferLib.sol\":3846:3980  or(... */\n      or\n        /* \"SafeTransferLib.sol\":3646:4458  and(... */\n      and\n        /* \"SafeTransferLib.sol\":3635:4458  success := and(... */\n      swap2\n      pop\n        /* \"SafeTransferLib.sol\":3104:4468  {... */\n      pop\n        /* \"SafeTransferLib.sol\":4486:4493  success */\n      dup1\n        /* \"SafeTransferLib.sol\":4478:4513  require(success, \"TRANSFER_FAILED\") */\n      tag_317\n      jumpi\n      mload(0x40)\n      0x08c379a000000000000000000000000000000000000000000000000000000000\n      dup2\n      mstore\n      0x04\n      add\n      tag_318\n      swap1\n      tag_319\n      jump\t// in\n    tag_318:\n      mload(0x40)\n      dup1\n      swap2\n      sub\n      swap1\n      revert\n    tag_317:\n        /* \"SafeTransferLib.sol\":3062:4520  {... */\n      pop\n        /* \"SafeTransferLib.sol\":2960:4520  function safeTransfer(... */\n      pop\n      pop\n      pop\n      jump\t// out\n        /* \"#utility.yul\":7:146   */\n    tag_321:\n        /* \"#utility.yul\":53:58   */\n      0x00\n        /* \"#utility.yul\":91:97   */\n      dup2\n        /* \"#utility.yul\":78:98   */\n      calldataload\n        /* \"#utility.yul\":69:98   */\n      swap1\n      pop\n        /* \"#utility.yul\":107:140   */\n      tag_323\n        /* \"#utility.yul\":134:139   */\n      dup2\n        /* \"#utility.yul\":107:140   */\n      tag_324\n      jump\t// in\n    tag_323:\n        /* \"#utility.yul\":7:146   */\n      swap3\n      swap2\n      pop\n      pop\n      jump\t// out\n        /* \"#utility.yul\":152:291   */\n    tag_325:\n        /* \"#utility.yul\":198:203   */\n      0x00\n        /* \"#utility.yul\":236:242   */\n      dup2\n        /* \"#utility.yul\":223:243   */\n      calldataload\n        /* \"#utility.yul\":214:243   */\n      swap1\n      pop\n        /* \"#utility.yul\":252:285   */\n      tag_327\n        /* \"#utility.yul\":279:284   */\n      dup2\n        /* \"#utility.yul\":252:285   */\n      tag_328\n      jump\t// in\n    tag_327:\n        /* \"#utility.yul\":152:291   */\n      swap3\n      swap2\n      pop\n      pop\n      jump\t// out\n        /* \"#utility.yul\":297:436   */\n    tag_329:\n        /* \"#utility.yul\":343:348   */\n      0x00\n        /* \"#utility.yul\":381:387   */\n      dup2\n        /* \"#utility.yul\":368:388   */\n      calldataload\n        /* \"#utility.yul\":359:388   */\n      swap1\n      pop\n        /* \"#utility.yul\":397:430   */\n      tag_331\n        /* \"#utility.yul\":424:429   */\n      dup2\n        /* \"#utility.yul\":397:430   */\n      tag_332\n      jump\t// in\n    tag_331:\n        /* \"#utility.yul\":297:436   */\n      swap3\n      swap2\n      pop\n      pop\n      jump\t// out\n        /* \"#utility.yul\":442:585   */\n    tag_333:\n        /* \"#utility.yul\":499:504   */\n      0x00\n        /* \"#utility.yul\":530:536   */\n      dup2\n        /* \"#utility.yul\":524:537   */\n      mload\n        /* \"#utility.yul\":515:537   */\n      swap1\n      pop\n        /* \"#utility.yul\":546:579   */\n      tag_335\n        /* \"#utility.yul\":573:578   */\n      dup2\n        /* \"#utility.yul\":546:579   */\n      tag_332\n      jump\t// in\n    tag_335:\n        /* \"#utility.yul\":442:585   */\n      swap3\n      swap2\n      pop\n      pop\n      jump\t// out\n        /* \"#utility.yul\":591:726   */\n    tag_336:\n        /* \"#utility.yul\":635:640   */\n      0x00\n        /* \"#utility.yul\":673:679   */\n      dup2\n        /* \"#utility.yul\":660:680   */\n      calldataload\n        /* \"#utility.yul\":651:680   */\n      swap1\n      pop\n        /* \"#utility.yul\":689:720   */\n      tag_338\n        /* \"#utility.yul\":714:719   */\n      dup2\n        /* \"#utility.yul\":689:720   */\n      tag_339\n      jump\t// in\n    tag_338:\n        /* \"#utility.yul\":591:726   */\n      swap3\n      swap2\n      pop\n      pop\n      jump\t// out\n        /* \"#utility.yul\":732:1061   */\n    tag_85:\n        /* \"#utility.yul\":791:797   */\n      0x00\n        /* \"#utility.yul\":840:842   */\n      0x20\n        /* \"#utility.yul\":828:837   */\n      dup3\n        /* \"#utility.yul\":819:826   */\n      dup5\n        /* \"#utility.yul\":815:838   */\n      sub\n        /* \"#utility.yul\":811:843   */\n      slt\n        /* \"#utility.yul\":808:927   */\n      iszero\n      tag_341\n      jumpi\n        /* \"#utility.yul\":846:925   */\n      tag_342\n      tag_343\n      jump\t// in\n    tag_342:\n        /* \"#utility.yul\":808:927   */\n    tag_341:\n        /* \"#utility.yul\":966:967   */\n      0x00\n        /* \"#utility.yul\":991:1044   */\n      tag_344\n        /* \"#utility.yul\":1036:1043   */\n      dup5\n        /* \"#utility.yul\":1027:1033   */\n      dup3\n        /* \"#utility.yul\":1016:1025   */\n      dup6\n        /* \"#utility.yul\":1012:1034   */\n      add\n        /* \"#utility.yul\":991:1044   */\n      tag_321\n      jump\t// in\n    tag_344:\n        /* \"#utility.yul\":981:1044   */\n      swap2\n      pop\n        /* \"#utility.yul\":937:1054   */\n      pop\n        /* \"#utility.yul\":732:1061   */\n      swap3\n      swap2\n      pop\n      pop\n      jump\t// out\n        /* \"#utility.yul\":1067:1541   */\n    tag_154:\n        /* \"#utility.yul\":1135:1141   */\n      0x00\n        /* \"#utility.yul\":1143:1149   */\n      dup1\n        /* \"#utility.yul\":1192:1194   */\n      0x40\n        /* \"#utility.yul\":1180:1189   */\n      dup4\n        /* \"#utility.yul\":1171:1178   */\n      dup6\n        /* \"#utility.yul\":1167:1190   */\n      sub\n        /* \"#utility.yul\":1163:1195   */\n      slt\n        /* \"#utility.yul\":1160:1279   */\n      iszero\n      tag_346\n      jumpi\n        /* \"#utility.yul\":1198:1277   */\n      tag_347\n      tag_343\n      jump\t// in\n    tag_347:\n        /* \"#utility.yul\":1160:1279   */\n    tag_346:\n        /* \"#utility.yul\":1318:1319   */\n      0x00\n        /* \"#utility.yul\":1343:1396   */\n      tag_348\n        /* \"#utility.yul\":1388:1395   */\n      dup6\n        /* \"#utility.yul\":1379:1385   */\n      dup3\n        /* \"#utility.yul\":1368:1377   */\n      dup7\n        /* \"#utility.yul\":1364:1386   */\n      add\n        /* \"#utility.yul\":1343:1396   */\n      tag_321\n      jump\t// in\n    tag_348:\n        /* \"#utility.yul\":1333:1396   */\n      swap3\n      pop\n        /* \"#utility.yul\":1289:1406   */\n      pop\n        /* \"#utility.yul\":1445:1447   */\n      0x20\n        /* \"#utility.yul\":1471:1524   */\n      tag_349\n        /* \"#utility.yul\":1516:1523   */\n      dup6\n        /* \"#utility.yul\":1507:1513   */\n      dup3\n        /* \"#utility.yul\":1496:1505   */\n      dup7\n        /* \"#utility.yul\":1492:1514   */\n      add\n        /* \"#utility.yul\":1471:1524   */\n      tag_321\n      jump\t// in\n    tag_349:\n        /* \"#utility.yul\":1461:1524   */\n      swap2\n      pop\n        /* \"#utility.yul\":1416:1534   */\n      pop\n        /* \"#utility.yul\":1067:1541   */\n      swap3\n      pop\n      swap3\n      swap1\n      pop\n      jump\t// out\n        /* \"#utility.yul\":1547:2166   */\n    tag_68:\n        /* \"#utility.yul\":1624:1630   */\n      0x00\n        /* \"#utility.yul\":1632:1638   */\n      dup1\n        /* \"#utility.yul\":1640:1646   */\n      0x00\n        /* \"#utility.yul\":1689:1691   */\n      0x60\n        /* \"#utility.yul\":1677:1686   */\n      dup5\n        /* \"#utility.yul\":1668:1675   */\n      dup7\n        /* \"#utility.yul\":1664:1687   */\n      sub\n        /* \"#utility.yul\":1660:1692   */\n      slt\n        /* \"#utility.yul\":1657:1776   */\n      iszero\n      tag_351\n      jumpi\n        /* \"#utility.yul\":1695:1774   */\n      tag_352\n      tag_343\n      jump\t// in\n    tag_352:\n        /* \"#utility.yul\":1657:1776   */\n    tag_351:\n        /* \"#utility.yul\":1815:1816   */\n      0x00\n        /* \"#utility.yul\":1840:1893   */\n      tag_353\n        /* \"#utility.yul\":1885:1892   */\n      dup7\n        /* \"#utility.yul\":1876:1882   */\n      dup3\n        /* \"#utility.yul\":1865:1874   */\n      dup8\n        /* \"#utility.yul\":1861:1883   */\n      add\n        /* \"#utility.yul\":1840:1893   */\n      tag_321\n      jump\t// in\n    tag_353:\n        /* \"#utility.yul\":1830:1893   */\n      swap4\n      pop\n        /* \"#utility.yul\":1786:1903   */\n      pop\n        /* \"#utility.yul\":1942:1944   */\n      0x20\n        /* \"#utility.yul\":1968:2021   */\n      tag_354\n        /* \"#utility.yul\":2013:2020   */\n      dup7\n        /* \"#utility.yul\":2004:2010   */\n      dup3\n        /* \"#utility.yul\":1993:2002   */\n      dup8\n        /* \"#utility.yul\":1989:2011   */\n      add\n        /* \"#utility.yul\":1968:2021   */\n      tag_321\n      jump\t// in\n    tag_354:\n        /* \"#utility.yul\":1958:2021   */\n      swap3\n      pop\n        /* \"#utility.yul\":1913:2031   */\n      pop\n        /* \"#utility.yul\":2070:2072   */\n      0x40\n        /* \"#utility.yul\":2096:2149   */\n      tag_355\n        /* \"#utility.yul\":2141:2148   */\n      dup7\n        /* \"#utility.yul\":2132:2138   */\n      dup3\n        /* \"#utility.yul\":2121:2130   */\n      dup8\n        /* \"#utility.yul\":2117:2139   */\n      add\n        /* \"#utility.yul\":2096:2149   */\n      tag_329\n      jump\t// in\n    tag_355:\n        /* \"#utility.yul\":2086:2149   */\n      swap2\n      pop\n        /* \"#utility.yul\":2041:2159   */\n      pop\n        /* \"#utility.yul\":1547:2166   */\n      swap3\n      pop\n      swap3\n      pop\n      swap3\n      jump\t// out\n        /* \"#utility.yul\":2172:3371   */\n    tag_146:\n        /* \"#utility.yul\":2283:2289   */\n      0x00\n        /* \"#utility.yul\":2291:2297   */\n      dup1\n        /* \"#utility.yul\":2299:2305   */\n      0x00\n        /* \"#utility.yul\":2307:2313   */\n      dup1\n        /* \"#utility.yul\":2315:2321   */\n      0x00\n        /* \"#utility.yul\":2323:2329   */\n      dup1\n        /* \"#utility.yul\":2331:2337   */\n      0x00\n        /* \"#utility.yul\":2380:2383   */\n      0xe0\n        /* \"#utility.yul\":2368:2377   */\n      dup9\n        /* \"#utility.yul\":2359:2366   */\n      dup11\n        /* \"#utility.yul\":2355:2378   */\n      sub\n        /* \"#utility.yul\":2351:2384   */\n      slt\n        /* \"#utility.yul\":2348:2468   */\n      iszero\n      tag_357\n      jumpi\n        /* \"#utility.yul\":2387:2466   */\n      tag_358\n      tag_343\n      jump\t// in\n    tag_358:\n        /* \"#utility.yul\":2348:2468   */\n    tag_357:\n        /* \"#utility.yul\":2507:2508   */\n      0x00\n        /* \"#utility.yul\":2532:2585   */\n      tag_359\n        /* \"#utility.yul\":2577:2584   */\n      dup11\n        /* \"#utility.yul\":2568:2574   */\n      dup3\n        /* \"#utility.yul\":2557:2566   */\n      dup12\n        /* \"#utility.yul\":2553:2575   */\n      add\n        /* \"#utility.yul\":2532:2585   */\n      tag_321\n      jump\t// in\n    tag_359:\n        /* \"#utility.yul\":2522:2585   */\n      swap8\n      pop\n        /* \"#utility.yul\":2478:2595   */\n      pop\n        /* \"#utility.yul\":2634:2636   */\n      0x20\n        /* \"#utility.yul\":2660:2713   */\n      tag_360\n        /* \"#utility.yul\":2705:2712   */\n      dup11\n        /* \"#utility.yul\":2696:2702   */\n      dup3\n        /* \"#utility.yul\":2685:2694   */\n      dup12\n        /* \"#utility.yul\":2681:2703   */\n      add\n        /* \"#utility.yul\":2660:2713   */\n      tag_321\n      jump\t// in\n    tag_360:\n        /* \"#utility.yul\":2650:2713   */\n      swap7\n      pop\n        /* \"#utility.yul\":2605:2723   */\n      pop\n        /* \"#utility.yul\":2762:2764   */\n      0x40\n        /* \"#utility.yul\":2788:2841   */\n      tag_361\n        /* \"#utility.yul\":2833:2840   */\n      dup11\n        /* \"#utility.yul\":2824:2830   */\n      dup3\n        /* \"#utility.yul\":2813:2822   */\n      dup12\n        /* \"#utility.yul\":2809:2831   */\n      add\n        /* \"#utility.yul\":2788:2841   */\n      tag_329\n      jump\t// in\n    tag_361:\n        /* \"#utility.yul\":2778:2841   */\n      swap6\n      pop\n        /* \"#utility.yul\":2733:2851   */\n      pop\n        /* \"#utility.yul\":2890:2892   */\n      0x60\n        /* \"#utility.yul\":2916:2969   */\n      tag_362\n        /* \"#utility.yul\":2961:2968   */\n      dup11\n        /* \"#utility.yul\":2952:2958   */\n      dup3\n        /* \"#utility.yul\":2941:2950   */\n      dup12\n        /* \"#utility.yul\":2937:2959   */\n      add\n        /* \"#utility.yul\":2916:2969   */\n      tag_329\n      jump\t// in\n    tag_362:\n        /* \"#utility.yul\":2906:2969   */\n      swap5\n      pop\n        /* \"#utility.yul\":2861:2979   */\n      pop\n        /* \"#utility.yul\":3018:3021   */\n      0x80\n        /* \"#utility.yul\":3045:3096   */\n      tag_363\n        /* \"#utility.yul\":3088:3095   */\n      dup11\n        /* \"#utility.yul\":3079:3085   */\n      dup3\n        /* \"#utility.yul\":3068:3077   */\n      dup12\n        /* \"#utility.yul\":3064:3086   */\n      add\n        /* \"#utility.yul\":3045:3096   */\n      tag_336\n      jump\t// in\n    tag_363:\n        /* \"#utility.yul\":3035:3096   */\n      swap4\n      pop\n        /* \"#utility.yul\":2989:3106   */\n      pop\n        /* \"#utility.yul\":3145:3148   */\n      0xa0\n        /* \"#utility.yul\":3172:3225   */\n      tag_364\n        /* \"#utility.yul\":3217:3224   */\n      dup11\n        /* \"#utility.yul\":3208:3214   */\n      dup3\n        /* \"#utility.yul\":3197:3206   */\n      dup12\n        /* \"#utility.yul\":3193:3215   */\n      add\n        /* \"#utility.yul\":3172:3225   */\n      tag_325\n      jump\t// in\n    tag_364:\n        /* \"#utility.yul\":3162:3225   */\n      swap3\n      pop\n        /* \"#utility.yul\":3116:3235   */\n      pop\n        /* \"#utility.yul\":3274:3277   */\n      0xc0\n        /* \"#utility.yul\":3301:3354   */\n      tag_365\n        /* \"#utility.yul\":3346:3353   */\n      dup11\n        /* \"#utility.yul\":3337:3343   */\n      dup3\n        /* \"#utility.yul\":3326:3335   */\n      dup12\n        /* \"#utility.yul\":3322:3344   */\n      add\n        /* \"#utility.yul\":3301:3354   */\n      tag_325\n      jump\t// in\n    tag_365:\n        /* \"#utility.yul\":3291:3354   */\n      swap2\n      pop\n        /* \"#utility.yul\":3245:3364   */\n      pop\n        /* \"#utility.yul\":2172:3371   */\n      swap3\n      swap6\n      swap9\n      swap2\n      swap5\n      swap8\n      pop\n      swap3\n      swap6\n      pop\n      jump\t// out\n        /* \"#utility.yul\":3377:3851   */\n    tag_55:\n        /* \"#utility.yul\":3445:3451   */\n      0x00\n        /* \"#utility.yul\":3453:3459   */\n      dup1\n        /* \"#utility.yul\":3502:3504   */\n      0x40\n        /* \"#utility.yul\":3490:3499   */\n      dup4\n        /* \"#utility.yul\":3481:3488   */\n      dup6\n        /* \"#utility.yul\":3477:3500   */\n      sub\n        /* \"#utility.yul\":3473:3505   */\n      slt\n        /* \"#utility.yul\":3470:3589   */\n      iszero\n      tag_367\n      jumpi\n        /* \"#utility.yul\":3508:3587   */\n      tag_368\n      tag_343\n      jump\t// in\n    tag_368:\n        /* \"#utility.yul\":3470:3589   */\n    tag_367:\n        /* \"#utility.yul\":3628:3629   */\n      0x00\n        /* \"#utility.yul\":3653:3706   */\n      tag_369\n        /* \"#utility.yul\":3698:3705   */\n      dup6\n        /* \"#utility.yul\":3689:3695   */\n      dup3\n        /* \"#utility.yul\":3678:3687   */\n      dup7\n        /* \"#utility.yul\":3674:3696   */\n      add\n        /* \"#utility.yul\":3653:3706   */\n      tag_321\n      jump\t// in\n    tag_369:\n        /* \"#utility.yul\":3643:3706   */\n      swap3\n      pop\n        /* \"#utility.yul\":3599:3716   */\n      pop\n        /* \"#utility.yul\":3755:3757   */\n      0x20\n        /* \"#utility.yul\":3781:3834   */\n      tag_370\n        /* \"#utility.yul\":3826:3833   */\n      dup6\n        /* \"#utility.yul\":3817:3823   */\n      dup3\n        /* \"#utility.yul\":3806:3815   */\n      dup7\n        /* \"#utility.yul\":3802:3824   */\n      add\n        /* \"#utility.yul\":3781:3834   */\n      tag_329\n      jump\t// in\n    tag_370:\n        /* \"#utility.yul\":3771:3834   */\n      swap2\n      pop\n        /* \"#utility.yul\":3726:3844   */\n      pop\n        /* \"#utility.yul\":3377:3851   */\n      swap3\n      pop\n      swap3\n      swap1\n      pop\n      jump\t// out\n        /* \"#utility.yul\":3857:4186   */\n    tag_50:\n        /* \"#utility.yul\":3916:3922   */\n      0x00\n        /* \"#utility.yul\":3965:3967   */\n      0x20\n        /* \"#utility.yul\":3953:3962   */\n      dup3\n        /* \"#utility.yul\":3944:3951   */\n      dup5\n        /* \"#utility.yul\":3940:3963   */\n      sub\n        /* \"#utility.yul\":3936:3968   */\n      slt\n        /* \"#utility.yul\":3933:4052   */\n      iszero\n      tag_372\n      jumpi\n        /* \"#utility.yul\":3971:4050   */\n      tag_373\n      tag_343\n      jump\t// in\n    tag_373:\n        /* \"#utility.yul\":3933:4052   */\n    tag_372:\n        /* \"#utility.yul\":4091:4092   */\n      0x00\n        /* \"#utility.yul\":4116:4169   */\n      tag_374\n        /* \"#utility.yul\":4161:4168   */\n      dup5\n        /* \"#utility.yul\":4152:4158   */\n      dup3\n        /* \"#utility.yul\":4141:4150   */\n      dup6\n        /* \"#utility.yul\":4137:4159   */\n      add\n        /* \"#utility.yul\":4116:4169   */\n      tag_329\n      jump\t// in\n    tag_374:\n        /* \"#utility.yul\":4106:4169   */\n      swap2\n      pop\n        /* \"#utility.yul\":4062:4179   */\n      pop\n        /* \"#utility.yul\":3857:4186   */\n      swap3\n      swap2\n      pop\n      pop\n      jump\t// out\n        /* \"#utility.yul\":4192:4543   */\n    tag_171:\n        /* \"#utility.yul\":4262:4268   */\n      0x00\n        /* \"#utility.yul\":4311:4313   */\n      0x20\n        /* \"#utility.yul\":4299:4308   */\n      dup3\n        /* \"#utility.yul\":4290:4297   */\n      dup5\n        /* \"#utility.yul\":4286:4309   */\n      sub\n        /* \"#utility.yul\":4282:4314   */\n      slt\n        /* \"#utility.yul\":4279:4398   */\n      iszero\n      tag_376\n      jumpi\n        /* \"#utility.yul\":4317:4396   */\n      tag_377\n      tag_343\n      jump\t// in\n    tag_377:\n        /* \"#utility.yul\":4279:4398   */\n    tag_376:\n        /* \"#utility.yul\":4437:4438   */\n      0x00\n        /* \"#utility.yul\":4462:4526   */\n      tag_378\n        /* \"#utility.yul\":4518:4525   */\n      dup5\n        /* \"#utility.yul\":4509:4515   */\n      dup3\n        /* \"#utility.yul\":4498:4507   */\n      dup6\n        /* \"#utility.yul\":4494:4516   */\n      add\n        /* \"#utility.yul\":4462:4526   */\n      tag_333\n      jump\t// in\n    tag_378:\n        /* \"#utility.yul\":4452:4526   */\n      swap2\n      pop\n        /* \"#utility.yul\":4408:4536   */\n      pop\n        /* \"#utility.yul\":4192:4543   */\n      swap3\n      swap2\n      pop\n      pop\n      jump\t// out\n        /* \"#utility.yul\":4549:5023   */\n    tag_94:\n        /* \"#utility.yul\":4617:4623   */\n      0x00\n        /* \"#utility.yul\":4625:4631   */\n      dup1\n        /* \"#utility.yul\":4674:4676   */\n      0x40\n        /* \"#utility.yul\":4662:4671   */\n      dup4\n        /* \"#utility.yul\":4653:4660   */\n      dup6\n        /* \"#utility.yul\":4649:4672   */\n      sub\n        /* \"#utility.yul\":4645:4677   */\n      slt\n        /* \"#utility.yul\":4642:4761   */\n      iszero\n      tag_380\n      jumpi\n        /* \"#utility.yul\":4680:4759   */\n      tag_381\n      tag_343\n      jump\t// in\n    tag_381:\n        /* \"#utility.yul\":4642:4761   */\n    tag_380:\n        /* \"#utility.yul\":4800:4801   */\n      0x00\n        /* \"#utility.yul\":4825:4878   */\n      tag_382\n        /* \"#utility.yul\":4870:4877   */\n      dup6\n        /* \"#utility.yul\":4861:4867   */\n      dup3\n        /* \"#utility.yul\":4850:4859   */\n      dup7\n        /* \"#utility.yul\":4846:4868   */\n      add\n        /* \"#utility.yul\":4825:4878   */\n      tag_329\n      jump\t// in\n    tag_382:\n        /* \"#utility.yul\":4815:4878   */\n      swap3\n      pop\n        /* \"#utility.yul\":4771:4888   */\n      pop\n        /* \"#utility.yul\":4927:4929   */\n      0x20\n        /* \"#utility.yul\":4953:5006   */\n      tag_383\n        /* \"#utility.yul\":4998:5005   */\n      dup6\n        /* \"#utility.yul\":4989:4995   */\n      dup3\n        /* \"#utility.yul\":4978:4987   */\n      dup7\n        /* \"#utility.yul\":4974:4996   */\n      add\n        /* \"#utility.yul\":4953:5006   */\n      tag_321\n      jump\t// in\n    tag_383:\n        /* \"#utility.yul\":4943:5006   */\n      swap2\n      pop\n        /* \"#utility.yul\":4898:5016   */\n      pop\n        /* \"#utility.yul\":4549:5023   */\n      swap3\n      pop\n      swap3\n      swap1\n      pop\n      jump\t// out\n        /* \"#utility.yul\":5029:5648   */\n    tag_122:\n        /* \"#utility.yul\":5106:5112   */\n      0x00\n        /* \"#utility.yul\":5114:5120   */\n      dup1\n        /* \"#utility.yul\":5122:5128   */\n      0x00\n        /* \"#utility.yul\":5171:5173   */\n      0x60\n        /* \"#utility.yul\":5159:5168   */\n      dup5\n        /* \"#utility.yul\":5150:5157   */\n      dup7\n        /* \"#utility.yul\":5146:5169   */\n      sub\n        /* \"#utility.yul\":5142:5174   */\n      slt\n        /* \"#utility.yul\":5139:5258   */\n      iszero\n      tag_385\n      jumpi\n        /* \"#utility.yul\":5177:5256   */\n      tag_386\n      tag_343\n      jump\t// in\n    tag_386:\n        /* \"#utility.yul\":5139:5258   */\n    tag_385:\n        /* \"#utility.yul\":5297:5298   */\n      0x00\n        /* \"#utility.yul\":5322:5375   */\n      tag_387\n        /* \"#utility.yul\":5367:5374   */\n      dup7\n        /* \"#utility.yul\":5358:5364   */\n      dup3\n        /* \"#utility.yul\":5347:5356   */\n      dup8\n        /* \"#utility.yul\":5343:5365   */\n      add\n        /* \"#utility.yul\":5322:5375   */\n      tag_329\n      jump\t// in\n    tag_387:\n        /* \"#utility.yul\":5312:5375   */\n      swap4\n      pop\n        /* \"#utility.yul\":5268:5385   */\n      pop\n        /* \"#utility.yul\":5424:5426   */\n      0x20\n        /* \"#utility.yul\":5450:5503   */\n      tag_388\n        /* \"#utility.yul\":5495:5502   */\n      dup7\n        /* \"#utility.yul\":5486:5492   */\n      dup3\n        /* \"#utility.yul\":5475:5484   */\n      dup8\n        /* \"#utility.yul\":5471:5493   */\n      add\n        /* \"#utility.yul\":5450:5503   */\n      tag_321\n      jump\t// in\n    tag_388:\n        /* \"#utility.yul\":5440:5503   */\n      swap3\n      pop\n        /* \"#utility.yul\":5395:5513   */\n      pop\n        /* \"#utility.yul\":5552:5554   */\n      0x40\n        /* \"#utility.yul\":5578:5631   */\n      tag_389\n        /* \"#utility.yul\":5623:5630   */\n      dup7\n        /* \"#utility.yul\":5614:5620   */\n      dup3\n        /* \"#utility.yul\":5603:5612   */\n      dup8\n        /* \"#utility.yul\":5599:5621   */\n      add\n        /* \"#utility.yul\":5578:5631   */\n      tag_321\n      jump\t// in\n    tag_389:\n        /* \"#utility.yul\":5568:5631   */\n      swap2\n      pop\n        /* \"#utility.yul\":5523:5641   */\n      pop\n        /* \"#utility.yul\":5029:5648   */\n      swap3\n      pop\n      swap3\n      pop\n      swap3\n      jump\t// out\n        /* \"#utility.yul\":5654:5772   */\n    tag_390:\n        /* \"#utility.yul\":5741:5765   */\n      tag_392\n        /* \"#utility.yul\":5759:5764   */\n      dup2\n        /* \"#utility.yul\":5741:5765   */\n      tag_393\n      jump\t// in\n    tag_392:\n        /* \"#utility.yul\":5736:5739   */\n      dup3\n        /* \"#utility.yul\":5729:5766   */\n      mstore\n        /* \"#utility.yul\":5654:5772   */\n      pop\n      pop\n      jump\t// out\n        /* \"#utility.yul\":5778:5887   */\n    tag_394:\n        /* \"#utility.yul\":5859:5880   */\n      tag_396\n        /* \"#utility.yul\":5874:5879   */\n      dup2\n        /* \"#utility.yul\":5859:5880   */\n      tag_397\n      jump\t// in\n    tag_396:\n        /* \"#utility.yul\":5854:5857   */\n      dup3\n        /* \"#utility.yul\":5847:5881   */\n      mstore\n        /* \"#utility.yul\":5778:5887   */\n      pop\n      pop\n      jump\t// out\n        /* \"#utility.yul\":5893:6011   */\n    tag_398:\n        /* \"#utility.yul\":5980:6004   */\n      tag_400\n        /* \"#utility.yul\":5998:6003   */\n      dup2\n        /* \"#utility.yul\":5980:6004   */\n      tag_401\n      jump\t// in\n    tag_400:\n        /* \"#utility.yul\":5975:5978   */\n      dup3\n        /* \"#utility.yul\":5968:6005   */\n      mstore\n        /* \"#utility.yul\":5893:6011   */\n      pop\n      pop\n      jump\t// out\n        /* \"#utility.yul\":6017:6174   */\n    tag_402:\n        /* \"#utility.yul\":6122:6167   */\n      tag_404\n        /* \"#utility.yul\":6142:6166   */\n      tag_405\n        /* \"#utility.yul\":6160:6165   */\n      dup3\n        /* \"#utility.yul\":6142:6166   */\n      tag_401\n      jump\t// in\n    tag_405:\n        /* \"#utility.yul\":6122:6167   */\n      tag_406\n      jump\t// in\n    tag_404:\n        /* \"#utility.yul\":6117:6120   */\n      dup3\n        /* \"#utility.yul\":6110:6168   */\n      mstore\n        /* \"#utility.yul\":6017:6174   */\n      pop\n      pop\n      jump\t// out\n        /* \"#utility.yul\":6202:7051   */\n    tag_407:\n        /* \"#utility.yul\":6307:6310   */\n      0x00\n        /* \"#utility.yul\":6344:6349   */\n      dup2\n        /* \"#utility.yul\":6338:6350   */\n      sload\n        /* \"#utility.yul\":6373:6409   */\n      tag_409\n        /* \"#utility.yul\":6399:6408   */\n      dup2\n        /* \"#utility.yul\":6373:6409   */\n      tag_173\n      jump\t// in\n    tag_409:\n        /* \"#utility.yul\":6425:6513   */\n      tag_410\n        /* \"#utility.yul\":6506:6512   */\n      dup2\n        /* \"#utility.yul\":6501:6504   */\n      dup7\n        /* \"#utility.yul\":6425:6513   */\n      tag_411\n      jump\t// in\n    tag_410:\n        /* \"#utility.yul\":6418:6513   */\n      swap5\n      pop\n        /* \"#utility.yul\":6544:6545   */\n      0x01\n        /* \"#utility.yul\":6533:6542   */\n      dup3\n        /* \"#utility.yul\":6529:6546   */\n      and\n        /* \"#utility.yul\":6560:6561   */\n      0x00\n        /* \"#utility.yul\":6555:6692   */\n      dup2\n      eq\n      tag_413\n      jumpi\n        /* \"#utility.yul\":6706:6707   */\n      0x01\n        /* \"#utility.yul\":6701:7045   */\n      dup2\n      eq\n      tag_414\n      jumpi\n        /* \"#utility.yul\":6522:7045   */\n      jump(tag_412)\n        /* \"#utility.yul\":6555:6692   */\n    tag_413:\n        /* \"#utility.yul\":6639:6643   */\n      0xff\n        /* \"#utility.yul\":6635:6644   */\n      not\n        /* \"#utility.yul\":6624:6633   */\n      dup4\n        /* \"#utility.yul\":6620:6645   */\n      and\n        /* \"#utility.yul\":6615:6618   */\n      dup7\n        /* \"#utility.yul\":6608:6646   */\n      mstore\n        /* \"#utility.yul\":6675:6681   */\n      dup2\n        /* \"#utility.yul\":6670:6673   */\n      dup7\n        /* \"#utility.yul\":6666:6682   */\n      add\n        /* \"#utility.yul\":6659:6682   */\n      swap4\n      pop\n        /* \"#utility.yul\":6555:6692   */\n      jump(tag_412)\n        /* \"#utility.yul\":6701:7045   */\n    tag_414:\n        /* \"#utility.yul\":6768:6809   */\n      tag_415\n        /* \"#utility.yul\":6803:6808   */\n      dup6\n        /* \"#utility.yul\":6768:6809   */\n      tag_416\n      jump\t// in\n    tag_415:\n        /* \"#utility.yul\":6831:6832   */\n      0x00\n        /* \"#utility.yul\":6845:6999   */\n    tag_417:\n        /* \"#utility.yul\":6859:6865   */\n      dup4\n        /* \"#utility.yul\":6856:6857   */\n      dup2\n        /* \"#utility.yul\":6853:6866   */\n      lt\n        /* \"#utility.yul\":6845:6999   */\n      iszero\n      tag_419\n      jumpi\n        /* \"#utility.yul\":6933:6940   */\n      dup2\n        /* \"#utility.yul\":6927:6941   */\n      sload\n        /* \"#utility.yul\":6923:6924   */\n      dup2\n        /* \"#utility.yul\":6918:6921   */\n      dup10\n        /* \"#utility.yul\":6914:6925   */\n      add\n        /* \"#utility.yul\":6907:6942   */\n      mstore\n        /* \"#utility.yul\":6983:6984   */\n      0x01\n        /* \"#utility.yul\":6974:6981   */\n      dup3\n        /* \"#utility.yul\":6970:6985   */\n      add\n        /* \"#utility.yul\":6959:6985   */\n      swap2\n      pop\n        /* \"#utility.yul\":6881:6885   */\n      0x20\n        /* \"#utility.yul\":6878:6879   */\n      dup2\n        /* \"#utility.yul\":6874:6886   */\n      add\n        /* \"#utility.yul\":6869:6886   */\n      swap1\n      pop\n        /* \"#utility.yul\":6845:6999   */\n      jump(tag_417)\n    tag_419:\n        /* \"#utility.yul\":7028:7034   */\n      dup4\n        /* \"#utility.yul\":7023:7026   */\n      dup9\n        /* \"#utility.yul\":7019:7035   */\n      add\n        /* \"#utility.yul\":7012:7035   */\n      swap6\n      pop\n        /* \"#utility.yul\":6708:7045   */\n      pop\n      pop\n        /* \"#utility.yul\":6522:7045   */\n    tag_412:\n      pop\n        /* \"#utility.yul\":6311:7051   */\n      pop\n      pop\n        /* \"#utility.yul\":6202:7051   */\n      swap3\n      swap2\n      pop\n      pop\n      jump\t// out\n        /* \"#utility.yul\":7057:7214   */\n    tag_420:\n        /* \"#utility.yul\":7157:7207   */\n      tag_422\n        /* \"#utility.yul\":7201:7206   */\n      dup2\n        /* \"#utility.yul\":7157:7207   */\n      tag_423\n      jump\t// in\n    tag_422:\n        /* \"#utility.yul\":7152:7155   */\n      dup3\n        /* \"#utility.yul\":7145:7208   */\n      mstore\n        /* \"#utility.yul\":7057:7214   */\n      pop\n      pop\n      jump\t// out\n        /* \"#utility.yul\":7220:7584   */\n    tag_424:\n        /* \"#utility.yul\":7308:7311   */\n      0x00\n        /* \"#utility.yul\":7336:7375   */\n      tag_426\n        /* \"#utility.yul\":7369:7374   */\n      dup3\n        /* \"#utility.yul\":7336:7375   */\n      tag_427\n      jump\t// in\n    tag_426:\n        /* \"#utility.yul\":7391:7462   */\n      tag_428\n        /* \"#utility.yul\":7455:7461   */\n      dup2\n        /* \"#utility.yul\":7450:7453   */\n      dup6\n        /* \"#utility.yul\":7391:7462   */\n      tag_429\n      jump\t// in\n    tag_428:\n        /* \"#utility.yul\":7384:7462   */\n      swap4\n      pop\n        /* \"#utility.yul\":7471:7523   */\n      tag_430\n        /* \"#utility.yul\":7516:7522   */\n      dup2\n        /* \"#utility.yul\":7511:7514   */\n      dup6\n        /* \"#utility.yul\":7504:7508   */\n      0x20\n        /* \"#utility.yul\":7497:7502   */\n      dup7\n        /* \"#utility.yul\":7493:7509   */\n      add\n        /* \"#utility.yul\":7471:7523   */\n      tag_431\n      jump\t// in\n    tag_430:\n        /* \"#utility.yul\":7548:7577   */\n      tag_432\n        /* \"#utility.yul\":7570:7576   */\n      dup2\n        /* \"#utility.yul\":7548:7577   */\n      tag_433\n      jump\t// in\n    tag_432:\n        /* \"#utility.yul\":7543:7546   */\n      dup5\n        /* \"#utility.yul\":7539:7578   */\n      add\n        /* \"#utility.yul\":7532:7578   */\n      swap2\n      pop\n        /* \"#utility.yul\":7312:7584   */\n      pop\n        /* \"#utility.yul\":7220:7584   */\n      swap3\n      swap2\n      pop\n      pop\n      jump\t// out\n        /* \"#utility.yul\":7590:7956   */\n    tag_434:\n        /* \"#utility.yul\":7732:7735   */\n      0x00\n        /* \"#utility.yul\":7753:7820   */\n      tag_436\n        /* \"#utility.yul\":7817:7819   */\n      0x0b\n        /* \"#utility.yul\":7812:7815   */\n      dup4\n        /* \"#utility.yul\":7753:7820   */\n      tag_429\n      jump\t// in\n    tag_436:\n        /* \"#utility.yul\":7746:7820   */\n      swap2\n      pop\n        /* \"#utility.yul\":7829:7922   */\n      tag_437\n        /* \"#utility.yul\":7918:7921   */\n      dup3\n        /* \"#utility.yul\":7829:7922   */\n      tag_438\n      jump\t// in\n    tag_437:\n        /* \"#utility.yul\":7947:7949   */\n      0x20\n        /* \"#utility.yul\":7942:7945   */\n      dup3\n        /* \"#utility.yul\":7938:7950   */\n      add\n        /* \"#utility.yul\":7931:7950   */\n      swap1\n      pop\n        /* \"#utility.yul\":7590:7956   */\n      swap2\n      swap1\n      pop\n      jump\t// out\n        /* \"#utility.yul\":7962:8362   */\n    tag_439:\n        /* \"#utility.yul\":8122:8125   */\n      0x00\n        /* \"#utility.yul\":8143:8227   */\n      tag_441\n        /* \"#utility.yul\":8225:8226   */\n      0x02\n        /* \"#utility.yul\":8220:8223   */\n      dup4\n        /* \"#utility.yul\":8143:8227   */\n      tag_442\n      jump\t// in\n    tag_441:\n        /* \"#utility.yul\":8136:8227   */\n      swap2\n      pop\n        /* \"#utility.yul\":8236:8329   */\n      tag_443\n        /* \"#utility.yul\":8325:8328   */\n      dup3\n        /* \"#utility.yul\":8236:8329   */\n      tag_444\n      jump\t// in\n    tag_443:\n        /* \"#utility.yul\":8354:8355   */\n      0x02\n        /* \"#utility.yul\":8349:8352   */\n      dup3\n        /* \"#utility.yul\":8345:8356   */\n      add\n        /* \"#utility.yul\":8338:8356   */\n      swap1\n      pop\n        /* \"#utility.yul\":7962:8362   */\n      swap2\n      swap1\n      pop\n      jump\t// out\n        /* \"#utility.yul\":8368:8734   */\n    tag_445:\n        /* \"#utility.yul\":8510:8513   */\n      0x00\n        /* \"#utility.yul\":8531:8598   */\n      tag_447\n        /* \"#utility.yul\":8595:8597   */\n      0x14\n        /* \"#utility.yul\":8590:8593   */\n      dup4\n        /* \"#utility.yul\":8531:8598   */\n      tag_429\n      jump\t// in\n    tag_447:\n        /* \"#utility.yul\":8524:8598   */\n      swap2\n      pop\n        /* \"#utility.yul\":8607:8700   */\n      tag_448\n        /* \"#utility.yul\":8696:8699   */\n      dup3\n        /* \"#utility.yul\":8607:8700   */\n      tag_449\n      jump\t// in\n    tag_448:\n        /* \"#utility.yul\":8725:8727   */\n      0x20\n        /* \"#utility.yul\":8720:8723   */\n      dup3\n        /* \"#utility.yul\":8716:8728   */\n      add\n        /* \"#utility.yul\":8709:8728   */\n      swap1\n      pop\n        /* \"#utility.yul\":8368:8734   */\n      swap2\n      swap1\n      pop\n      jump\t// out\n        /* \"#utility.yul\":8740:9106   */\n    tag_450:\n        /* \"#utility.yul\":8882:8885   */\n      0x00\n        /* \"#utility.yul\":8903:8970   */\n      tag_452\n        /* \"#utility.yul\":8967:8969   */\n      0x0f\n        /* \"#utility.yul\":8962:8965   */\n      dup4\n        /* \"#utility.yul\":8903:8970   */\n      tag_429\n      jump\t// in\n    tag_452:\n        /* \"#utility.yul\":8896:8970   */\n      swap2\n      pop\n        /* \"#utility.yul\":8979:9072   */\n      tag_453\n        /* \"#utility.yul\":9068:9071   */\n      dup3\n        /* \"#utility.yul\":8979:9072   */\n      tag_454\n      jump\t// in\n    tag_453:\n        /* \"#utility.yul\":9097:9099   */\n      0x20\n        /* \"#utility.yul\":9092:9095   */\n      dup3\n        /* \"#utility.yul\":9088:9100   */\n      add\n        /* \"#utility.yul\":9081:9100   */\n      swap1\n      pop\n        /* \"#utility.yul\":8740:9106   */\n      swap2\n      swap1\n      pop\n      jump\t// out\n        /* \"#utility.yul\":9112:9478   */\n    tag_455:\n        /* \"#utility.yul\":9254:9257   */\n      0x00\n        /* \"#utility.yul\":9275:9342   */\n      tag_457\n        /* \"#utility.yul\":9339:9341   */\n      0x0e\n        /* \"#utility.yul\":9334:9337   */\n      dup4\n        /* \"#utility.yul\":9275:9342   */\n      tag_429\n      jump\t// in\n    tag_457:\n        /* \"#utility.yul\":9268:9342   */\n      swap2\n      pop\n        /* \"#utility.yul\":9351:9444   */\n      tag_458\n        /* \"#utility.yul\":9440:9443   */\n      dup3\n        /* \"#utility.yul\":9351:9444   */\n      tag_459\n      jump\t// in\n    tag_458:\n        /* \"#utility.yul\":9469:9471   */\n      0x20\n        /* \"#utility.yul\":9464:9467   */\n      dup3\n        /* \"#utility.yul\":9460:9472   */\n      add\n        /* \"#utility.yul\":9453:9472   */\n      swap1\n      pop\n        /* \"#utility.yul\":9112:9478   */\n      swap2\n      swap1\n      pop\n      jump\t// out\n        /* \"#utility.yul\":9484:9850   */\n    tag_460:\n        /* \"#utility.yul\":9626:9629   */\n      0x00\n        /* \"#utility.yul\":9647:9714   */\n      tag_462\n        /* \"#utility.yul\":9711:9713   */\n      0x0b\n        /* \"#utility.yul\":9706:9709   */\n      dup4\n        /* \"#utility.yul\":9647:9714   */\n      tag_429\n      jump\t// in\n    tag_462:\n        /* \"#utility.yul\":9640:9714   */\n      swap2\n      pop\n        /* \"#utility.yul\":9723:9816   */\n      tag_463\n        /* \"#utility.yul\":9812:9815   */\n      dup3\n        /* \"#utility.yul\":9723:9816   */\n      tag_464\n      jump\t// in\n    tag_463:\n        /* \"#utility.yul\":9841:9843   */\n      0x20\n        /* \"#utility.yul\":9836:9839   */\n      dup3\n        /* \"#utility.yul\":9832:9844   */\n      add\n        /* \"#utility.yul\":9825:9844   */\n      swap1\n      pop\n        /* \"#utility.yul\":9484:9850   */\n      swap2\n      swap1\n      pop\n      jump\t// out\n        /* \"#utility.yul\":9856:10222   */\n    tag_465:\n        /* \"#utility.yul\":9998:10001   */\n      0x00\n        /* \"#utility.yul\":10019:10086   */\n      tag_467\n        /* \"#utility.yul\":10083:10085   */\n      0x17\n        /* \"#utility.yul\":10078:10081   */\n      dup4\n        /* \"#utility.yul\":10019:10086   */\n      tag_429\n      jump\t// in\n    tag_467:\n        /* \"#utility.yul\":10012:10086   */\n      swap2\n      pop\n        /* \"#utility.yul\":10095:10188   */\n      tag_468\n        /* \"#utility.yul\":10184:10187   */\n      dup3\n        /* \"#utility.yul\":10095:10188   */\n      tag_469\n      jump\t// in\n    tag_468:\n        /* \"#utility.yul\":10213:10215   */\n      0x20\n        /* \"#utility.yul\":10208:10211   */\n      dup3\n        /* \"#utility.yul\":10204:10216   */\n      add\n        /* \"#utility.yul\":10197:10216   */\n      swap1\n      pop\n        /* \"#utility.yul\":9856:10222   */\n      swap2\n      swap1\n      pop\n      jump\t// out\n        /* \"#utility.yul\":10228:10346   */\n    tag_470:\n        /* \"#utility.yul\":10315:10339   */\n      tag_472\n        /* \"#utility.yul\":10333:10338   */\n      dup2\n        /* \"#utility.yul\":10315:10339   */\n      tag_473\n      jump\t// in\n    tag_472:\n        /* \"#utility.yul\":10310:10313   */\n      dup3\n        /* \"#utility.yul\":10303:10340   */\n      mstore\n        /* \"#utility.yul\":10228:10346   */\n      pop\n      pop\n      jump\t// out\n        /* \"#utility.yul\":10352:10464   */\n    tag_474:\n        /* \"#utility.yul\":10435:10457   */\n      tag_476\n        /* \"#utility.yul\":10451:10456   */\n      dup2\n        /* \"#utility.yul\":10435:10457   */\n      tag_477\n      jump\t// in\n    tag_476:\n        /* \"#utility.yul\":10430:10433   */\n      dup3\n        /* \"#utility.yul\":10423:10458   */\n      mstore\n        /* \"#utility.yul\":10352:10464   */\n      pop\n      pop\n      jump\t// out\n        /* \"#utility.yul\":10470:10743   */\n    tag_297:\n        /* \"#utility.yul\":10601:10604   */\n      0x00\n        /* \"#utility.yul\":10623:10717   */\n      tag_479\n        /* \"#utility.yul\":10713:10716   */\n      dup3\n        /* \"#utility.yul\":10704:10710   */\n      dup5\n        /* \"#utility.yul\":10623:10717   */\n      tag_407\n      jump\t// in\n    tag_479:\n        /* \"#utility.yul\":10616:10717   */\n      swap2\n      pop\n        /* \"#utility.yul\":10734:10737   */\n      dup2\n        /* \"#utility.yul\":10727:10737   */\n      swap1\n      pop\n        /* \"#utility.yul\":10470:10743   */\n      swap3\n      swap2\n      pop\n      pop\n      jump\t// out\n        /* \"#utility.yul\":10749:11412   */\n    tag_278:\n        /* \"#utility.yul\":10990:10993   */\n      0x00\n        /* \"#utility.yul\":11012:11160   */\n      tag_481\n        /* \"#utility.yul\":11156:11159   */\n      dup3\n        /* \"#utility.yul\":11012:11160   */\n      tag_439\n      jump\t// in\n    tag_481:\n        /* \"#utility.yul\":11005:11160   */\n      swap2\n      pop\n        /* \"#utility.yul\":11170:11245   */\n      tag_482\n        /* \"#utility.yul\":11241:11244   */\n      dup3\n        /* \"#utility.yul\":11232:11238   */\n      dup6\n        /* \"#utility.yul\":11170:11245   */\n      tag_402\n      jump\t// in\n    tag_482:\n        /* \"#utility.yul\":11270:11272   */\n      0x20\n        /* \"#utility.yul\":11265:11268   */\n      dup3\n        /* \"#utility.yul\":11261:11273   */\n      add\n        /* \"#utility.yul\":11254:11273   */\n      swap2\n      pop\n        /* \"#utility.yul\":11283:11358   */\n      tag_483\n        /* \"#utility.yul\":11354:11357   */\n      dup3\n        /* \"#utility.yul\":11345:11351   */\n      dup5\n        /* \"#utility.yul\":11283:11358   */\n      tag_402\n      jump\t// in\n    tag_483:\n        /* \"#utility.yul\":11383:11385   */\n      0x20\n        /* \"#utility.yul\":11378:11381   */\n      dup3\n        /* \"#utility.yul\":11374:11386   */\n      add\n        /* \"#utility.yul\":11367:11386   */\n      swap2\n      pop\n        /* \"#utility.yul\":11403:11406   */\n      dup2\n        /* \"#utility.yul\":11396:11406   */\n      swap1\n      pop\n        /* \"#utility.yul\":10749:11412   */\n      swap4\n      swap3\n      pop\n      pop\n      pop\n      jump\t// out\n        /* \"#utility.yul\":11418:11640   */\n    tag_166:\n        /* \"#utility.yul\":11511:11515   */\n      0x00\n        /* \"#utility.yul\":11549:11551   */\n      0x20\n        /* \"#utility.yul\":11538:11547   */\n      dup3\n        /* \"#utility.yul\":11534:11552   */\n      add\n        /* \"#utility.yul\":11526:11552   */\n      swap1\n      pop\n        /* \"#utility.yul\":11562:11633   */\n      tag_485\n        /* \"#utility.yul\":11630:11631   */\n      0x00\n        /* \"#utility.yul\":11619:11628   */\n      dup4\n        /* \"#utility.yul\":11615:11632   */\n      add\n        /* \"#utility.yul\":11606:11612   */\n      dup5\n        /* \"#utility.yul\":11562:11633   */\n      tag_390\n      jump\t// in\n    tag_485:\n        /* \"#utility.yul\":11418:11640   */\n      swap3\n      swap2\n      pop\n      pop\n      jump\t// out\n        /* \"#utility.yul\":11646:11856   */\n    tag_58:\n        /* \"#utility.yul\":11733:11737   */\n      0x00\n        /* \"#utility.yul\":11771:11773   */\n      0x20\n        /* \"#utility.yul\":11760:11769   */\n      dup3\n        /* \"#utility.yul\":11756:11774   */\n      add\n        /* \"#utility.yul\":11748:11774   */\n      swap1\n      pop\n        /* \"#utility.yul\":11784:11849   */\n      tag_487\n        /* \"#utility.yul\":11846:11847   */\n      0x00\n        /* \"#utility.yul\":11835:11844   */\n      dup4\n        /* \"#utility.yul\":11831:11848   */\n      add\n        /* \"#utility.yul\":11822:11828   */\n      dup5\n        /* \"#utility.yul\":11784:11849   */\n      tag_394\n      jump\t// in\n    tag_487:\n        /* \"#utility.yul\":11646:11856   */\n      swap3\n      swap2\n      pop\n      pop\n      jump\t// out\n        /* \"#utility.yul\":11862:12084   */\n    tag_78:\n        /* \"#utility.yul\":11955:11959   */\n      0x00\n        /* \"#utility.yul\":11993:11995   */\n      0x20\n        /* \"#utility.yul\":11982:11991   */\n      dup3\n        /* \"#utility.yul\":11978:11996   */\n      add\n        /* \"#utility.yul\":11970:11996   */\n      swap1\n      pop\n        /* \"#utility.yul\":12006:12077   */\n      tag_489\n        /* \"#utility.yul\":12074:12075   */\n      0x00\n        /* \"#utility.yul\":12063:12072   */\n      dup4\n        /* \"#utility.yul\":12059:12076   */\n      add\n        /* \"#utility.yul\":12050:12056   */\n      dup5\n        /* \"#utility.yul\":12006:12077   */\n      tag_398\n      jump\t// in\n    tag_489:\n        /* \"#utility.yul\":11862:12084   */\n      swap3\n      swap2\n      pop\n      pop\n      jump\t// out\n        /* \"#utility.yul\":12090:12865   */\n    tag_276:\n        /* \"#utility.yul\":12323:12327   */\n      0x00\n        /* \"#utility.yul\":12361:12364   */\n      0xc0\n        /* \"#utility.yul\":12350:12359   */\n      dup3\n        /* \"#utility.yul\":12346:12365   */\n      add\n        /* \"#utility.yul\":12338:12365   */\n      swap1\n      pop\n        /* \"#utility.yul\":12375:12446   */\n      tag_491\n        /* \"#utility.yul\":12443:12444   */\n      0x00\n        /* \"#utility.yul\":12432:12441   */\n      dup4\n        /* \"#utility.yul\":12428:12445   */\n      add\n        /* \"#utility.yul\":12419:12425   */\n      dup10\n        /* \"#utility.yul\":12375:12446   */\n      tag_398\n      jump\t// in\n    tag_491:\n        /* \"#utility.yul\":12456:12528   */\n      tag_492\n        /* \"#utility.yul\":12524:12526   */\n      0x20\n        /* \"#utility.yul\":12513:12522   */\n      dup4\n        /* \"#utility.yul\":12509:12527   */\n      add\n        /* \"#utility.yul\":12500:12506   */\n      dup9\n        /* \"#utility.yul\":12456:12528   */\n      tag_390\n      jump\t// in\n    tag_492:\n        /* \"#utility.yul\":12538:12610   */\n      tag_493\n        /* \"#utility.yul\":12606:12608   */\n      0x40\n        /* \"#utility.yul\":12595:12604   */\n      dup4\n        /* \"#utility.yul\":12591:12609   */\n      add\n        /* \"#utility.yul\":12582:12588   */\n      dup8\n        /* \"#utility.yul\":12538:12610   */\n      tag_390\n      jump\t// in\n    tag_493:\n        /* \"#utility.yul\":12620:12692   */\n      tag_494\n        /* \"#utility.yul\":12688:12690   */\n      0x60\n        /* \"#utility.yul\":12677:12686   */\n      dup4\n        /* \"#utility.yul\":12673:12691   */\n      add\n        /* \"#utility.yul\":12664:12670   */\n      dup7\n        /* \"#utility.yul\":12620:12692   */\n      tag_470\n      jump\t// in\n    tag_494:\n        /* \"#utility.yul\":12702:12775   */\n      tag_495\n        /* \"#utility.yul\":12770:12773   */\n      0x80\n        /* \"#utility.yul\":12759:12768   */\n      dup4\n        /* \"#utility.yul\":12755:12774   */\n      add\n        /* \"#utility.yul\":12746:12752   */\n      dup6\n        /* \"#utility.yul\":12702:12775   */\n      tag_470\n      jump\t// in\n    tag_495:\n        /* \"#utility.yul\":12785:12858   */\n      tag_496\n        /* \"#utility.yul\":12853:12856   */\n      0xa0\n        /* \"#utility.yul\":12842:12851   */\n      dup4\n        /* \"#utility.yul\":12838:12857   */\n      add\n        /* \"#utility.yul\":12829:12835   */\n      dup5\n        /* \"#utility.yul\":12785:12858   */\n      tag_470\n      jump\t// in\n    tag_496:\n        /* \"#utility.yul\":12090:12865   */\n      swap8\n      swap7\n      pop\n      pop\n      pop\n      pop\n      pop\n      pop\n      pop\n      jump\t// out\n        /* \"#utility.yul\":12871:13535   */\n    tag_299:\n        /* \"#utility.yul\":13076:13080   */\n      0x00\n        /* \"#utility.yul\":13114:13117   */\n      0xa0\n        /* \"#utility.yul\":13103:13112   */\n      dup3\n        /* \"#utility.yul\":13099:13118   */\n      add\n        /* \"#utility.yul\":13091:13118   */\n      swap1\n      pop\n        /* \"#utility.yul\":13128:13199   */\n      tag_498\n        /* \"#utility.yul\":13196:13197   */\n      0x00\n        /* \"#utility.yul\":13185:13194   */\n      dup4\n        /* \"#utility.yul\":13181:13198   */\n      add\n        /* \"#utility.yul\":13172:13178   */\n      dup9\n        /* \"#utility.yul\":13128:13199   */\n      tag_398\n      jump\t// in\n    tag_498:\n        /* \"#utility.yul\":13209:13281   */\n      tag_499\n        /* \"#utility.yul\":13277:13279   */\n      0x20\n        /* \"#utility.yul\":13266:13275   */\n      dup4\n        /* \"#utility.yul\":13262:13280   */\n      add\n        /* \"#utility.yul\":13253:13259   */\n      dup8\n        /* \"#utility.yul\":13209:13281   */\n      tag_398\n      jump\t// in\n    tag_499:\n        /* \"#utility.yul\":13291:13363   */\n      tag_500\n        /* \"#utility.yul\":13359:13361   */\n      0x40\n        /* \"#utility.yul\":13348:13357   */\n      dup4\n        /* \"#utility.yul\":13344:13362   */\n      add\n        /* \"#utility.yul\":13335:13341   */\n      dup7\n        /* \"#utility.yul\":13291:13363   */\n      tag_398\n      jump\t// in\n    tag_500:\n        /* \"#utility.yul\":13373:13445   */\n      tag_501\n        /* \"#utility.yul\":13441:13443   */\n      0x60\n        /* \"#utility.yul\":13430:13439   */\n      dup4\n        /* \"#utility.yul\":13426:13444   */\n      add\n        /* \"#utility.yul\":13417:13423   */\n      dup6\n        /* \"#utility.yul\":13373:13445   */\n      tag_470\n      jump\t// in\n    tag_501:\n        /* \"#utility.yul\":13455:13528   */\n      tag_502\n        /* \"#utility.yul\":13523:13526   */\n      0x80\n        /* \"#utility.yul\":13512:13521   */\n      dup4\n        /* \"#utility.yul\":13508:13527   */\n      add\n        /* \"#utility.yul\":13499:13505   */\n      dup5\n        /* \"#utility.yul\":13455:13528   */\n      tag_390\n      jump\t// in\n    tag_502:\n        /* \"#utility.yul\":12871:13535   */\n      swap7\n      swap6\n      pop\n      pop\n      pop\n      pop\n      pop\n      pop\n      jump\t// out\n        /* \"#utility.yul\":13541:14086   */\n    tag_280:\n        /* \"#utility.yul\":13714:13718   */\n      0x00\n        /* \"#utility.yul\":13752:13755   */\n      0x80\n        /* \"#utility.yul\":13741:13750   */\n      dup3\n        /* \"#utility.yul\":13737:13756   */\n      add\n        /* \"#utility.yul\":13729:13756   */\n      swap1\n      pop\n        /* \"#utility.yul\":13766:13837   */\n      tag_504\n        /* \"#utility.yul\":13834:13835   */\n      0x00\n        /* \"#utility.yul\":13823:13832   */\n      dup4\n        /* \"#utility.yul\":13819:13836   */\n      add\n        /* \"#utility.yul\":13810:13816   */\n      dup8\n        /* \"#utility.yul\":13766:13837   */\n      tag_398\n      jump\t// in\n    tag_504:\n        /* \"#utility.yul\":13847:13915   */\n      tag_505\n        /* \"#utility.yul\":13911:13913   */\n      0x20\n        /* \"#utility.yul\":13900:13909   */\n      dup4\n        /* \"#utility.yul\":13896:13914   */\n      add\n        /* \"#utility.yul\":13887:13893   */\n      dup7\n        /* \"#utility.yul\":13847:13915   */\n      tag_474\n      jump\t// in\n    tag_505:\n        /* \"#utility.yul\":13925:13997   */\n      tag_506\n        /* \"#utility.yul\":13993:13995   */\n      0x40\n        /* \"#utility.yul\":13982:13991   */\n      dup4\n        /* \"#utility.yul\":13978:13996   */\n      add\n        /* \"#utility.yul\":13969:13975   */\n      dup6\n        /* \"#utility.yul\":13925:13997   */\n      tag_398\n      jump\t// in\n    tag_506:\n        /* \"#utility.yul\":14007:14079   */\n      tag_507\n        /* \"#utility.yul\":14075:14077   */\n      0x60\n        /* \"#utility.yul\":14064:14073   */\n      dup4\n        /* \"#utility.yul\":14060:14078   */\n      add\n        /* \"#utility.yul\":14051:14057   */\n      dup5\n        /* \"#utility.yul\":14007:14079   */\n      tag_398\n      jump\t// in\n    tag_507:\n        /* \"#utility.yul\":13541:14086   */\n      swap6\n      swap5\n      pop\n      pop\n      pop\n      pop\n      pop\n      jump\t// out\n        /* \"#utility.yul\":14092:14340   */\n    tag_82:\n        /* \"#utility.yul\":14198:14202   */\n      0x00\n        /* \"#utility.yul\":14236:14238   */\n      0x20\n        /* \"#utility.yul\":14225:14234   */\n      dup3\n        /* \"#utility.yul\":14221:14239   */\n      add\n        /* \"#utility.yul\":14213:14239   */\n      swap1\n      pop\n        /* \"#utility.yul\":14249:14333   */\n      tag_509\n        /* \"#utility.yul\":14330:14331   */\n      0x00\n        /* \"#utility.yul\":14319:14328   */\n      dup4\n        /* \"#utility.yul\":14315:14332   */\n      add\n        /* \"#utility.yul\":14306:14312   */\n      dup5\n        /* \"#utility.yul\":14249:14333   */\n      tag_420\n      jump\t// in\n    tag_509:\n        /* \"#utility.yul\":14092:14340   */\n      swap3\n      swap2\n      pop\n      pop\n      jump\t// out\n        /* \"#utility.yul\":14346:14659   */\n    tag_47:\n        /* \"#utility.yul\":14459:14463   */\n      0x00\n        /* \"#utility.yul\":14497:14499   */\n      0x20\n        /* \"#utility.yul\":14486:14495   */\n      dup3\n        /* \"#utility.yul\":14482:14500   */\n      add\n        /* \"#utility.yul\":14474:14500   */\n      swap1\n      pop\n        /* \"#utility.yul\":14546:14555   */\n      dup2\n        /* \"#utility.yul\":14540:14544   */\n      dup2\n        /* \"#utility.yul\":14536:14556   */\n      sub\n        /* \"#utility.yul\":14532:14533   */\n      0x00\n        /* \"#utility.yul\":14521:14530   */\n      dup4\n        /* \"#utility.yul\":14517:14534   */\n      add\n        /* \"#utility.yul\":14510:14557   */\n      mstore\n        /* \"#utility.yul\":14574:14652   */\n      tag_511\n        /* \"#utility.yul\":14647:14651   */\n      dup2\n        /* \"#utility.yul\":14638:14644   */\n      dup5\n        /* \"#utility.yul\":14574:14652   */\n      tag_424\n      jump\t// in\n    tag_511:\n        /* \"#utility.yul\":14566:14652   */\n      swap1\n      pop\n        /* \"#utility.yul\":14346:14659   */\n      swap3\n      swap2\n      pop\n      pop\n      jump\t// out\n        /* \"#utility.yul\":14665:15084   */\n    tag_210:\n        /* \"#utility.yul\":14831:14835   */\n      0x00\n        /* \"#utility.yul\":14869:14871   */\n      0x20\n        /* \"#utility.yul\":14858:14867   */\n      dup3\n        /* \"#utility.yul\":14854:14872   */\n      add\n        /* \"#utility.yul\":14846:14872   */\n      swap1\n      pop\n        /* \"#utility.yul\":14918:14927   */\n      dup2\n        /* \"#utility.yul\":14912:14916   */\n      dup2\n        /* \"#utility.yul\":14908:14928   */\n      sub\n        /* \"#utility.yul\":14904:14905   */\n      0x00\n        /* \"#utility.yul\":14893:14902   */\n      dup4\n        /* \"#utility.yul\":14889:14906   */\n      add\n        /* \"#utility.yul\":14882:14929   */\n      mstore\n        /* \"#utility.yul\":14946:15077   */\n      tag_513\n        /* \"#utility.yul\":15072:15076   */\n      dup2\n        /* \"#utility.yul\":14946:15077   */\n      tag_434\n      jump\t// in\n    tag_513:\n        /* \"#utility.yul\":14938:15077   */\n      swap1\n      pop\n        /* \"#utility.yul\":14665:15084   */\n      swap2\n      swap1\n      pop\n      jump\t// out\n        /* \"#utility.yul\":15090:15509   */\n    tag_303:\n        /* \"#utility.yul\":15256:15260   */\n      0x00\n        /* \"#utility.yul\":15294:15296   */\n      0x20\n        /* \"#utility.yul\":15283:15292   */\n      dup3\n        /* \"#utility.yul\":15279:15297   */\n      add\n        /* \"#utility.yul\":15271:15297   */\n      swap1\n      pop\n        /* \"#utility.yul\":15343:15352   */\n      dup2\n        /* \"#utility.yul\":15337:15341   */\n      dup2\n        /* \"#utility.yul\":15333:15353   */\n      sub\n        /* \"#utility.yul\":15329:15330   */\n      0x00\n        /* \"#utility.yul\":15318:15327   */\n      dup4\n        /* \"#utility.yul\":15314:15331   */\n      add\n        /* \"#utility.yul\":15307:15354   */\n      mstore\n        /* \"#utility.yul\":15371:15502   */\n      tag_515\n        /* \"#utility.yul\":15497:15501   */\n      dup2\n        /* \"#utility.yul\":15371:15502   */\n      tag_445\n      jump\t// in\n    tag_515:\n        /* \"#utility.yul\":15363:15502   */\n      swap1\n      pop\n        /* \"#utility.yul\":15090:15509   */\n      swap2\n      swap1\n      pop\n      jump\t// out\n        /* \"#utility.yul\":15515:15934   */\n    tag_319:\n        /* \"#utility.yul\":15681:15685   */\n      0x00\n        /* \"#utility.yul\":15719:15721   */\n      0x20\n        /* \"#utility.yul\":15708:15717   */\n      dup3\n        /* \"#utility.yul\":15704:15722   */\n      add\n        /* \"#utility.yul\":15696:15722   */\n      swap1\n      pop\n        /* \"#utility.yul\":15768:15777   */\n      dup2\n        /* \"#utility.yul\":15762:15766   */\n      dup2\n        /* \"#utility.yul\":15758:15778   */\n      sub\n        /* \"#utility.yul\":15754:15755   */\n      0x00\n        /* \"#utility.yul\":15743:15752   */\n      dup4\n        /* \"#utility.yul\":15739:15756   */\n      add\n        /* \"#utility.yul\":15732:15779   */\n      mstore\n        /* \"#utility.yul\":15796:15927   */\n      tag_517\n        /* \"#utility.yul\":15922:15926   */\n      dup2\n        /* \"#utility.yul\":15796:15927   */\n      tag_450\n      jump\t// in\n    tag_517:\n        /* \"#utility.yul\":15788:15927   */\n      swap1\n      pop\n        /* \"#utility.yul\":15515:15934   */\n      swap2\n      swap1\n      pop\n      jump\t// out\n        /* \"#utility.yul\":15940:16359   */\n    tag_286:\n        /* \"#utility.yul\":16106:16110   */\n      0x00\n        /* \"#utility.yul\":16144:16146   */\n      0x20\n        /* \"#utility.yul\":16133:16142   */\n      dup3\n        /* \"#utility.yul\":16129:16147   */\n      add\n        /* \"#utility.yul\":16121:16147   */\n      swap1\n      pop\n        /* \"#utility.yul\":16193:16202   */\n      dup2\n        /* \"#utility.yul\":16187:16191   */\n      dup2\n        /* \"#utility.yul\":16183:16203   */\n      sub\n        /* \"#utility.yul\":16179:16180   */\n      0x00\n        /* \"#utility.yul\":16168:16177   */\n      dup4\n        /* \"#utility.yul\":16164:16181   */\n      add\n        /* \"#utility.yul\":16157:16204   */\n      mstore\n        /* \"#utility.yul\":16221:16352   */\n      tag_519\n        /* \"#utility.yul\":16347:16351   */\n      dup2\n        /* \"#utility.yul\":16221:16352   */\n      tag_455\n      jump\t// in\n    tag_519:\n        /* \"#utility.yul\":16213:16352   */\n      swap1\n      pop\n        /* \"#utility.yul\":15940:16359   */\n      swap2\n      swap1\n      pop\n      jump\t// out\n        /* \"#utility.yul\":16365:16784   */\n    tag_257:\n        /* \"#utility.yul\":16531:16535   */\n      0x00\n        /* \"#utility.yul\":16569:16571   */\n      0x20\n        /* \"#utility.yul\":16558:16567   */\n      dup3\n        /* \"#utility.yul\":16554:16572   */\n      add\n        /* \"#utility.yul\":16546:16572   */\n      swap1\n      pop\n        /* \"#utility.yul\":16618:16627   */\n      dup2\n        /* \"#utility.yul\":16612:16616   */\n      dup2\n        /* \"#utility.yul\":16608:16628   */\n      sub\n        /* \"#utility.yul\":16604:16605   */\n      0x00\n        /* \"#utility.yul\":16593:16602   */\n      dup4\n        /* \"#utility.yul\":16589:16606   */\n      add\n        /* \"#utility.yul\":16582:16629   */\n      mstore\n        /* \"#utility.yul\":16646:16777   */\n      tag_521\n        /* \"#utility.yul\":16772:16776   */\n      dup2\n        /* \"#utility.yul\":16646:16777   */\n      tag_460\n      jump\t// in\n    tag_521:\n        /* \"#utility.yul\":16638:16777   */\n      swap1\n      pop\n        /* \"#utility.yul\":16365:16784   */\n      swap2\n      swap1\n      pop\n      jump\t// out\n        /* \"#utility.yul\":16790:17209   */\n    tag_273:\n        /* \"#utility.yul\":16956:16960   */\n      0x00\n        /* \"#utility.yul\":16994:16996   */\n      0x20\n        /* \"#utility.yul\":16983:16992   */\n      dup3\n        /* \"#utility.yul\":16979:16997   */\n      add\n        /* \"#utility.yul\":16971:16997   */\n      swap1\n      pop\n        /* \"#utility.yul\":17043:17052   */\n      dup2\n        /* \"#utility.yul\":17037:17041   */\n      dup2\n        /* \"#utility.yul\":17033:17053   */\n      sub\n        /* \"#utility.yul\":17029:17030   */\n      0x00\n        /* \"#utility.yul\":17018:17027   */\n      dup4\n        /* \"#utility.yul\":17014:17031   */\n      add\n        /* \"#utility.yul\":17007:17054   */\n      mstore\n        /* \"#utility.yul\":17071:17202   */\n      tag_523\n        /* \"#utility.yul\":17197:17201   */\n      dup2\n        /* \"#utility.yul\":17071:17202   */\n      tag_465\n      jump\t// in\n    tag_523:\n        /* \"#utility.yul\":17063:17202   */\n      swap1\n      pop\n        /* \"#utility.yul\":16790:17209   */\n      swap2\n      swap1\n      pop\n      jump\t// out\n        /* \"#utility.yul\":17215:17437   */\n    tag_43:\n        /* \"#utility.yul\":17308:17312   */\n      0x00\n        /* \"#utility.yul\":17346:17348   */\n      0x20\n        /* \"#utility.yul\":17335:17344   */\n      dup3\n        /* \"#utility.yul\":17331:17349   */\n      add\n        /* \"#utility.yul\":17323:17349   */\n      swap1\n      pop\n        /* \"#utility.yul\":17359:17430   */\n      tag_525\n        /* \"#utility.yul\":17427:17428   */\n      0x00\n        /* \"#utility.yul\":17416:17425   */\n      dup4\n        /* \"#utility.yul\":17412:17429   */\n      add\n        /* \"#utility.yul\":17403:17409   */\n      dup5\n        /* \"#utility.yul\":17359:17430   */\n      tag_470\n      jump\t// in\n    tag_525:\n        /* \"#utility.yul\":17215:17437   */\n      swap3\n      swap2\n      pop\n      pop\n      jump\t// out\n        /* \"#utility.yul\":17443:17775   */\n    tag_216:\n        /* \"#utility.yul\":17564:17568   */\n      0x00\n        /* \"#utility.yul\":17602:17604   */\n      0x40\n        /* \"#utility.yul\":17591:17600   */\n      dup3\n        /* \"#utility.yul\":17587:17605   */\n      add\n        /* \"#utility.yul\":17579:17605   */\n      swap1\n      pop\n        /* \"#utility.yul\":17615:17686   */\n      tag_527\n        /* \"#utility.yul\":17683:17684   */\n      0x00\n        /* \"#utility.yul\":17672:17681   */\n      dup4\n        /* \"#utility.yul\":17668:17685   */\n      add\n        /* \"#utility.yul\":17659:17665   */\n      dup6\n        /* \"#utility.yul\":17615:17686   */\n      tag_470\n      jump\t// in\n    tag_527:\n        /* \"#utility.yul\":17696:17768   */\n      tag_528\n        /* \"#utility.yul\":17764:17766   */\n      0x20\n        /* \"#utility.yul\":17753:17762   */\n      dup4\n        /* \"#utility.yul\":17749:17767   */\n      add\n        /* \"#utility.yul\":17740:17746   */\n      dup5\n        /* \"#utility.yul\":17696:17768   */\n      tag_470\n      jump\t// in\n    tag_528:\n        /* \"#utility.yul\":17443:17775   */\n      swap4\n      swap3\n      pop\n      pop\n      pop\n      jump\t// out\n        /* \"#utility.yul\":17781:17995   */\n    tag_74:\n        /* \"#utility.yul\":17870:17874   */\n      0x00\n        /* \"#utility.yul\":17908:17910   */\n      0x20\n        /* \"#utility.yul\":17897:17906   */\n      dup3\n        /* \"#utility.yul\":17893:17911   */\n      add\n        /* \"#utility.yul\":17885:17911   */\n      swap1\n      pop\n        /* \"#utility.yul\":17921:17988   */\n      tag_530\n        /* \"#utility.yul\":17985:17986   */\n      0x00\n        /* \"#utility.yul\":17974:17983   */\n      dup4\n        /* \"#utility.yul\":17970:17987   */\n      add\n        /* \"#utility.yul\":17961:17967   */\n      dup5\n        /* \"#utility.yul\":17921:17988   */\n      tag_474\n      jump\t// in\n    tag_530:\n        /* \"#utility.yul\":17781:17995   */\n      swap3\n      swap2\n      pop\n      pop\n      jump\t// out\n        /* \"#utility.yul\":18082:18226   */\n    tag_416:\n        /* \"#utility.yul\":18134:18138   */\n      0x00\n        /* \"#utility.yul\":18157:18160   */\n      dup2\n        /* \"#utility.yul\":18149:18160   */\n      swap1\n      pop\n        /* \"#utility.yul\":18180:18183   */\n      dup2\n        /* \"#utility.yul\":18177:18178   */\n      0x00\n        /* \"#utility.yul\":18170:18184   */\n      mstore\n        /* \"#utility.yul\":18214:18218   */\n      0x20\n        /* \"#utility.yul\":18211:18212   */\n      0x00\n        /* \"#utility.yul\":18201:18219   */\n      keccak256\n        /* \"#utility.yul\":18193:18219   */\n      swap1\n      pop\n        /* \"#utility.yul\":18082:18226   */\n      swap2\n      swap1\n      pop\n      jump\t// out\n        /* \"#utility.yul\":18232:18331   */\n    tag_427:\n        /* \"#utility.yul\":18284:18290   */\n      0x00\n        /* \"#utility.yul\":18318:18323   */\n      dup2\n        /* \"#utility.yul\":18312:18324   */\n      mload\n        /* \"#utility.yul\":18302:18324   */\n      swap1\n      pop\n        /* \"#utility.yul\":18232:18331   */\n      swap2\n      swap1\n      pop\n      jump\t// out\n        /* \"#utility.yul\":18337:18484   */\n    tag_411:\n        /* \"#utility.yul\":18438:18449   */\n      0x00\n        /* \"#utility.yul\":18475:18478   */\n      dup2\n        /* \"#utility.yul\":18460:18478   */\n      swap1\n      pop\n        /* \"#utility.yul\":18337:18484   */\n      swap3\n      swap2\n      pop\n      pop\n      jump\t// out\n        /* \"#utility.yul\":18490:18659   */\n    tag_429:\n        /* \"#utility.yul\":18574:18585   */\n      0x00\n        /* \"#utility.yul\":18608:18614   */\n      dup3\n        /* \"#utility.yul\":18603:18606   */\n      dup3\n        /* \"#utility.yul\":18596:18615   */\n      mstore\n        /* \"#utility.yul\":18648:18652   */\n      0x20\n        /* \"#utility.yul\":18643:18646   */\n      dup3\n        /* \"#utility.yul\":18639:18653   */\n      add\n        /* \"#utility.yul\":18624:18653   */\n      swap1\n      pop\n        /* \"#utility.yul\":18490:18659   */\n      swap3\n      swap2\n      pop\n      pop\n      jump\t// out\n        /* \"#utility.yul\":18665:18813   */\n    tag_442:\n        /* \"#utility.yul\":18767:18778   */\n      0x00\n        /* \"#utility.yul\":18804:18807   */\n      dup2\n        /* \"#utility.yul\":18789:18807   */\n      swap1\n      pop\n        /* \"#utility.yul\":18665:18813   */\n      swap3\n      swap2\n      pop\n      pop\n      jump\t// out\n        /* \"#utility.yul\":18819:19124   */\n    tag_306:\n        /* \"#utility.yul\":18859:18862   */\n      0x00\n        /* \"#utility.yul\":18878:18898   */\n      tag_539\n        /* \"#utility.yul\":18896:18897   */\n      dup3\n        /* \"#utility.yul\":18878:18898   */\n      tag_473\n      jump\t// in\n    tag_539:\n        /* \"#utility.yul\":18873:18898   */\n      swap2\n      pop\n        /* \"#utility.yul\":18912:18932   */\n      tag_540\n        /* \"#utility.yul\":18930:18931   */\n      dup4\n        /* \"#utility.yul\":18912:18932   */\n      tag_473\n      jump\t// in\n    tag_540:\n        /* \"#utility.yul\":18907:18932   */\n      swap3\n      pop\n        /* \"#utility.yul\":19066:19067   */\n      dup3\n        /* \"#utility.yul\":18998:19064   */\n      0xffffffffffffffffffffffffffffffffffffffffffffffffffffffffffffffff\n        /* \"#utility.yul\":18994:19068   */\n      sub\n        /* \"#utility.yul\":18991:18992   */\n      dup3\n        /* \"#utility.yul\":18988:19069   */\n      gt\n        /* \"#utility.yul\":18985:19092   */\n      iszero\n      tag_541\n      jumpi\n        /* \"#utility.yul\":19072:19090   */\n      tag_542\n      tag_543\n      jump\t// in\n    tag_542:\n        /* \"#utility.yul\":18985:19092   */\n    tag_541:\n        /* \"#utility.yul\":19116:19117   */\n      dup3\n        /* \"#utility.yul\":19113:19114   */\n      dup3\n        /* \"#utility.yul\":19109:19118   */\n      add\n        /* \"#utility.yul\":19102:19118   */\n      swap1\n      pop\n        /* \"#utility.yul\":18819:19124   */\n      swap3\n      swap2\n      pop\n      pop\n      jump\t// out\n        /* \"#utility.yul\":19130:19321   */\n    tag_195:\n        /* \"#utility.yul\":19170:19174   */\n      0x00\n        /* \"#utility.yul\":19190:19210   */\n      tag_545\n        /* \"#utility.yul\":19208:19209   */\n      dup3\n        /* \"#utility.yul\":19190:19210   */\n      tag_473\n      jump\t// in\n    tag_545:\n        /* \"#utility.yul\":19185:19210   */\n      swap2\n      pop\n        /* \"#utility.yul\":19224:19244   */\n      tag_546\n        /* \"#utility.yul\":19242:19243   */\n      dup4\n        /* \"#utility.yul\":19224:19244   */\n      tag_473\n      jump\t// in\n    tag_546:\n        /* \"#utility.yul\":19219:19244   */\n      swap3\n      pop\n        /* \"#utility.yul\":19263:19264   */\n      dup3\n        /* \"#utility.yul\":19260:19261   */\n      dup3\n        /* \"#utility.yul\":19257:19265   */\n      lt\n        /* \"#utility.yul\":19254:19288   */\n      iszero\n      tag_547\n      jumpi\n        /* \"#utility.yul\":19268:19286   */\n      tag_548\n      tag_543\n      jump\t// in\n    tag_548:\n        /* \"#utility.yul\":19254:19288   */\n    tag_547:\n        /* \"#utility.yul\":19313:19314   */\n      dup3\n        /* \"#utility.yul\":19310:19311   */\n      dup3\n        /* \"#utility.yul\":19306:19315   */\n      sub\n        /* \"#utility.yul\":19298:19315   */\n      swap1\n      pop\n        /* \"#utility.yul\":19130:19321   */\n      swap3\n      swap2\n      pop\n      pop\n      jump\t// out\n        /* \"#utility.yul\":19327:19423   */\n    tag_393:\n        /* \"#utility.yul\":19364:19371   */\n      0x00\n        /* \"#utility.yul\":19393:19417   */\n      tag_550\n        /* \"#utility.yul\":19411:19416   */\n      dup3\n        /* \"#utility.yul\":19393:19417   */\n      tag_551\n      jump\t// in\n    tag_550:\n        /* \"#utility.yul\":19382:19417   */\n      swap1\n      pop\n        /* \"#utility.yul\":19327:19423   */\n      swap2\n      swap1\n      pop\n      jump\t// out\n        /* \"#utility.yul\":19429:19519   */\n    tag_397:\n        /* \"#utility.yul\":19463:19470   */\n      0x00\n        /* \"#utility.yul\":19506:19511   */\n      dup2\n        /* \"#utility.yul\":19499:19512   */\n      iszero\n        /* \"#utility.yul\":19492:19513   */\n      iszero\n        /* \"#utility.yul\":19481:19513   */\n      swap1\n      pop\n        /* \"#utility.yul\":19429:19519   */\n      swap2\n      swap1\n      pop\n      jump\t// out\n        /* \"#utility.yul\":19525:19602   */\n    tag_401:\n        /* \"#utility.yul\":19562:19569   */\n      0x00\n        /* \"#utility.yul\":19591:19596   */\n      dup2\n        /* \"#utility.yul\":19580:19596   */\n      swap1\n      pop\n        /* \"#utility.yul\":19525:19602   */\n      swap2\n      swap1\n      pop\n      jump\t// out\n        /* \"#utility.yul\":19608:19734   */\n    tag_551:\n        /* \"#utility.yul\":19645:19652   */\n      0x00\n        /* \"#utility.yul\":19685:19727   */\n      0xffffffffffffffffffffffffffffffffffffffff\n        /* \"#utility.yul\":19678:19683   */\n      dup3\n        /* \"#utility.yul\":19674:19728   */\n      and\n        /* \"#utility.yul\":19663:19728   */\n      swap1\n      pop\n        /* \"#utility.yul\":19608:19734   */\n      swap2\n      swap1\n      pop\n      jump\t// out\n        /* \"#utility.yul\":19740:19817   */\n    tag_473:\n        /* \"#utility.yul\":19777:19784   */\n      0x00\n        /* \"#utility.yul\":19806:19811   */\n      dup2\n        /* \"#utility.yul\":19795:19811   */\n      swap1\n      pop\n        /* \"#utility.yul\":19740:19817   */\n      swap2\n      swap1\n      pop\n      jump\t// out\n        /* \"#utility.yul\":19823:19909   */\n    tag_477:\n        /* \"#utility.yul\":19858:19865   */\n      0x00\n        /* \"#utility.yul\":19898:19902   */\n      0xff\n        /* \"#utility.yul\":19891:19896   */\n      dup3\n        /* \"#utility.yul\":19887:19903   */\n      and\n        /* \"#utility.yul\":19876:19903   */\n      swap1\n      pop\n        /* \"#utility.yul\":19823:19909   */\n      swap2\n      swap1\n      pop\n      jump\t// out\n        /* \"#utility.yul\":19915:20054   */\n    tag_423:\n        /* \"#utility.yul\":19978:19987   */\n      0x00\n        /* \"#utility.yul\":20011:20048   */\n      tag_558\n        /* \"#utility.yul\":20042:20047   */\n      dup3\n        /* \"#utility.yul\":20011:20048   */\n      tag_559\n      jump\t// in\n    tag_558:\n        /* \"#utility.yul\":19998:20048   */\n      swap1\n      pop\n        /* \"#utility.yul\":19915:20054   */\n      swap2\n      swap1\n      pop\n      jump\t// out\n        /* \"#utility.yul\":20060:20186   */\n    tag_559:\n        /* \"#utility.yul\":20110:20119   */\n      0x00\n        /* \"#utility.yul\":20143:20180   */\n      tag_561\n        /* \"#utility.yul\":20174:20179   */\n      dup3\n        /* \"#utility.yul\":20143:20180   */\n      tag_562\n      jump\t// in\n    tag_561:\n        /* \"#utility.yul\":20130:20180   */\n      swap1\n      pop\n        /* \"#utility.yul\":20060:20186   */\n      swap2\n      swap1\n      pop\n      jump\t// out\n        /* \"#utility.yul\":20192:20305   */\n    tag_562:\n        /* \"#utility.yul\":20242:20251   */\n      0x00\n        /* \"#utility.yul\":20275:20299   */\n      tag_564\n        /* \"#utility.yul\":20293:20298   */\n      dup3\n        /* \"#utility.yul\":20275:20299   */\n      tag_551\n      jump\t// in\n    tag_564:\n        /* \"#utility.yul\":20262:20299   */\n      swap1\n      pop\n        /* \"#utility.yul\":20192:20305   */\n      swap2\n      swap1\n      pop\n      jump\t// out\n        /* \"#utility.yul\":20311:20618   */\n    tag_431:\n        /* \"#utility.yul\":20379:20380   */\n      0x00\n        /* \"#utility.yul\":20389:20502   */\n    tag_566:\n        /* \"#utility.yul\":20403:20409   */\n      dup4\n        /* \"#utility.yul\":20400:20401   */\n      dup2\n        /* \"#utility.yul\":20397:20410   */\n      lt\n        /* \"#utility.yul\":20389:20502   */\n      iszero\n      tag_568\n      jumpi\n        /* \"#utility.yul\":20488:20489   */\n      dup1\n        /* \"#utility.yul\":20483:20486   */\n      dup3\n        /* \"#utility.yul\":20479:20490   */\n      add\n        /* \"#utility.yul\":20473:20491   */\n      mload\n        /* \"#utility.yul\":20469:20470   */\n      dup2\n        /* \"#utility.yul\":20464:20467   */\n      dup5\n        /* \"#utility.yul\":20460:20471   */\n      add\n        /* \"#utility.yul\":20453:20492   */\n      mstore\n        /* \"#utility.yul\":20425:20427   */\n      0x20\n        /* \"#utility.yul\":20422:20423   */\n      dup2\n        /* \"#utility.yul\":20418:20428   */\n      add\n        /* \"#utility.yul\":20413:20428   */\n      swap1\n      pop\n        /* \"#utility.yul\":20389:20502   */\n      jump(tag_566)\n    tag_568:\n        /* \"#utility.yul\":20520:20526   */\n      dup4\n        /* \"#utility.yul\":20517:20518   */\n      dup2\n        /* \"#utility.yul\":20514:20527   */\n      gt\n        /* \"#utility.yul\":20511:20612   */\n      iszero\n      tag_569\n      jumpi\n        /* \"#utility.yul\":20600:20601   */\n      0x00\n        /* \"#utility.yul\":20591:20597   */\n      dup5\n        /* \"#utility.yul\":20586:20589   */\n      dup5\n        /* \"#utility.yul\":20582:20598   */\n      add\n        /* \"#utility.yul\":20575:20602   */\n      mstore\n        /* \"#utility.yul\":20511:20612   */\n    tag_569:\n        /* \"#utility.yul\":20360:20618   */\n      pop\n        /* \"#utility.yul\":20311:20618   */\n      pop\n      pop\n      pop\n      jump\t// out\n        /* \"#utility.yul\":20624:20944   */\n    tag_173:\n        /* \"#utility.yul\":20668:20674   */\n      0x00\n        /* \"#utility.yul\":20705:20706   */\n      0x02\n        /* \"#utility.yul\":20699:20703   */\n      dup3\n        /* \"#utility.yul\":20695:20707   */\n      div\n        /* \"#utility.yul\":20685:20707   */\n      swap1\n      pop\n        /* \"#utility.yul\":20752:20753   */\n      0x01\n        /* \"#utility.yul\":20746:20750   */\n      dup3\n        /* \"#utility.yul\":20742:20754   */\n      and\n        /* \"#utility.yul\":20773:20791   */\n      dup1\n        /* \"#utility.yul\":20763:20844   */\n      tag_571\n      jumpi\n        /* \"#utility.yul\":20829:20833   */\n      0x7f\n        /* \"#utility.yul\":20821:20827   */\n      dup3\n        /* \"#utility.yul\":20817:20834   */\n      and\n        /* \"#utility.yul\":20807:20834   */\n      swap2\n      pop\n        /* \"#utility.yul\":20763:20844   */\n    tag_571:\n        /* \"#utility.yul\":20891:20893   */\n      0x20\n        /* \"#utility.yul\":20883:20889   */\n      dup3\n        /* \"#utility.yul\":20880:20894   */\n      lt\n        /* \"#utility.yul\":20860:20878   */\n      dup2\n        /* \"#utility.yul\":20857:20895   */\n      eq\n        /* \"#utility.yul\":20854:20938   */\n      iszero\n      tag_572\n      jumpi\n        /* \"#utility.yul\":20910:20928   */\n      tag_573\n      tag_574\n      jump\t// in\n    tag_573:\n        /* \"#utility.yul\":20854:20938   */\n    tag_572:\n        /* \"#utility.yul\":20675:20944   */\n      pop\n        /* \"#utility.yul\":20624:20944   */\n      swap2\n      swap1\n      pop\n      jump\t// out\n        /* \"#utility.yul\":20950:21183   */\n    tag_310:\n        /* \"#utility.yul\":20989:20992   */\n      0x00\n        /* \"#utility.yul\":21012:21036   */\n      tag_576\n        /* \"#utility.yul\":21030:21035   */\n      dup3\n        /* \"#utility.yul\":21012:21036   */\n      tag_473\n      jump\t// in\n    tag_576:\n        /* \"#utility.yul\":21003:21036   */\n      swap2\n      pop\n        /* \"#utility.yul\":21058:21124   */\n      0xffffffffffffffffffffffffffffffffffffffffffffffffffffffffffffffff\n        /* \"#utility.yul\":21051:21056   */\n      dup3\n        /* \"#utility.yul\":21048:21125   */\n      eq\n        /* \"#utility.yul\":21045:21148   */\n      iszero\n      tag_577\n      jumpi\n        /* \"#utility.yul\":21128:21146   */\n      tag_578\n      tag_543\n      jump\t// in\n    tag_578:\n        /* \"#utility.yul\":21045:21148   */\n    tag_577:\n        /* \"#utility.yul\":21175:21176   */\n      0x01\n        /* \"#utility.yul\":21168:21173   */\n      dup3\n        /* \"#utility.yul\":21164:21177   */\n      add\n        /* \"#utility.yul\":21157:21177   */\n      swap1\n      pop\n        /* \"#utility.yul\":20950:21183   */\n      swap2\n      swap1\n      pop\n      jump\t// out\n        /* \"#utility.yul\":21189:21268   */\n    tag_406:\n        /* \"#utility.yul\":21228:21235   */\n      0x00\n        /* \"#utility.yul\":21257:21262   */\n      dup2\n        /* \"#utility.yul\":21246:21262   */\n      swap1\n      pop\n        /* \"#utility.yul\":21189:21268   */\n      swap2\n      swap1\n      pop\n      jump\t// out\n        /* \"#utility.yul\":21274:21454   */\n    tag_543:\n        /* \"#utility.yul\":21322:21399   */\n      0x4e487b7100000000000000000000000000000000000000000000000000000000\n        /* \"#utility.yul\":21319:21320   */\n      0x00\n        /* \"#utility.yul\":21312:21400   */\n      mstore\n        /* \"#utility.yul\":21419:21423   */\n      0x11\n        /* \"#utility.yul\":21416:21417   */\n      0x04\n        /* \"#utility.yul\":21409:21424   */\n      mstore\n        /* \"#utility.yul\":21443:21447   */\n      0x24\n        /* \"#utility.yul\":21440:21441   */\n      0x00\n        /* \"#utility.yul\":21433:21448   */\n      revert\n        /* \"#utility.yul\":21460:21640   */\n    tag_574:\n        /* \"#utility.yul\":21508:21585   */\n      0x4e487b7100000000000000000000000000000000000000000000000000000000\n        /* \"#utility.yul\":21505:21506   */\n      0x00\n        /* \"#utility.yul\":21498:21586   */\n      mstore\n        /* \"#utility.yul\":21605:21609   */\n      0x22\n        /* \"#utility.yul\":21602:21603   */\n      0x04\n        /* \"#utility.yul\":21595:21610   */\n      mstore\n        /* \"#utility.yul\":21629:21633   */\n      0x24\n        /* \"#utility.yul\":21626:21627   */\n      0x00\n        /* \"#utility.yul\":21619:21634   */\n      revert\n        /* \"#utility.yul\":21769:21886   */\n    tag_343:\n        /* \"#utility.yul\":21878:21879   */\n      0x00\n        /* \"#utility.yul\":21875:21876   */\n      dup1\n        /* \"#utility.yul\":21868:21880   */\n      revert\n        /* \"#utility.yul\":21892:21994   */\n    tag_433:\n        /* \"#utility.yul\":21933:21939   */\n      0x00\n        /* \"#utility.yul\":21984:21986   */\n      0x1f\n        /* \"#utility.yul\":21980:21987   */\n      not\n        /* \"#utility.yul\":21975:21977   */\n      0x1f\n        /* \"#utility.yul\":21968:21973   */\n      dup4\n        /* \"#utility.yul\":21964:21978   */\n      add\n        /* \"#utility.yul\":21960:21988   */\n      and\n        /* \"#utility.yul\":21950:21988   */\n      swap1\n      pop\n        /* \"#utility.yul\":21892:21994   */\n      swap2\n      swap1\n      pop\n      jump\t// out\n        /* \"#utility.yul\":22000:22161   */\n    tag_438:\n        /* \"#utility.yul\":22140:22153   */\n      0x5a45524f5f534841524553000000000000000000000000000000000000000000\n        /* \"#utility.yul\":22136:22137   */\n      0x00\n        /* \"#utility.yul\":22128:22134   */\n      dup3\n        /* \"#utility.yul\":22124:22138   */\n      add\n        /* \"#utility.yul\":22117:22154   */\n      mstore\n        /* \"#utility.yul\":22000:22161   */\n      pop\n      jump\t// out\n        /* \"#utility.yul\":22167:22381   */\n    tag_444:\n        /* \"#utility.yul\":22307:22373   */\n      0x1901000000000000000000000000000000000000000000000000000000000000\n        /* \"#utility.yul\":22303:22304   */\n      0x00\n        /* \"#utility.yul\":22295:22301   */\n      dup3\n        /* \"#utility.yul\":22291:22305   */\n      add\n        /* \"#utility.yul\":22284:22374   */\n      mstore\n        /* \"#utility.yul\":22167:22381   */\n      pop\n      jump\t// out\n        /* \"#utility.yul\":22387:22557   */\n    tag_449:\n        /* \"#utility.yul\":22527:22549   */\n      0x5452414e534645525f46524f4d5f4641494c4544000000000000000000000000\n        /* \"#utility.yul\":22523:22524   */\n      0x00\n        /* \"#utility.yul\":22515:22521   */\n      dup3\n        /* \"#utility.yul\":22511:22525   */\n      add\n        /* \"#utility.yul\":22504:22550   */\n      mstore\n        /* \"#utility.yul\":22387:22557   */\n      pop\n      jump\t// out\n        /* \"#utility.yul\":22563:22728   */\n    tag_454:\n        /* \"#utility.yul\":22703:22720   */\n      0x5452414e534645525f4641494c45440000000000000000000000000000000000\n        /* \"#utility.yul\":22699:22700   */\n      0x00\n        /* \"#utility.yul\":22691:22697   */\n      dup3\n        /* \"#utility.yul\":22687:22701   */\n      add\n        /* \"#utility.yul\":22680:22721   */\n      mstore\n        /* \"#utility.yul\":22563:22728   */\n      pop\n      jump\t// out\n        /* \"#utility.yul\":22734:22898   */\n    tag_459:\n        /* \"#utility.yul\":22874:22890   */\n      0x494e56414c49445f5349474e4552000000000000000000000000000000000000\n        /* \"#utility.yul\":22870:22871   */\n      0x00\n        /* \"#utility.yul\":22862:22868   */\n      dup3\n        /* \"#utility.yul\":22858:22872   */\n      add\n        /* \"#utility.yul\":22851:22891   */\n      mstore\n        /* \"#utility.yul\":22734:22898   */\n      pop\n      jump\t// out\n        /* \"#utility.yul\":22904:23065   */\n    tag_464:\n        /* \"#utility.yul\":23044:23057   */\n      0x5a45524f5f415353455453000000000000000000000000000000000000000000\n        /* \"#utility.yul\":23040:23041   */\n      0x00\n        /* \"#utility.yul\":23032:23038   */\n      dup3\n        /* \"#utility.yul\":23028:23042   */\n      add\n        /* \"#utility.yul\":23021:23058   */\n      mstore\n        /* \"#utility.yul\":22904:23065   */\n      pop\n      jump\t// out\n        /* \"#utility.yul\":23071:23244   */\n    tag_469:\n        /* \"#utility.yul\":23211:23236   */\n      0x5045524d49545f444541444c494e455f45585049524544000000000000000000\n        /* \"#utility.yul\":23207:23208   */\n      0x00\n        /* \"#utility.yul\":23199:23205   */\n      dup3\n        /* \"#utility.yul\":23195:23209   */\n      add\n        /* \"#utility.yul\":23188:23237   */\n      mstore\n        /* \"#utility.yul\":23071:23244   */\n      pop\n      jump\t// out\n        /* \"#utility.yul\":23250:23372   */\n    tag_324:\n        /* \"#utility.yul\":23323:23347   */\n      tag_594\n        /* \"#utility.yul\":23341:23346   */\n      dup2\n        /* \"#utility.yul\":23323:23347   */\n      tag_393\n      jump\t// in\n    tag_594:\n        /* \"#utility.yul\":23316:23321   */\n      dup2\n        /* \"#utility.yul\":23313:23348   */\n      eq\n        /* \"#utility.yul\":23303:23366   */\n      tag_595\n      jumpi\n        /* \"#utility.yul\":23362:23363   */\n      0x00\n        /* \"#utility.yul\":23359:23360   */\n      dup1\n        /* \"#utility.yul\":23352:23364   */\n      revert\n        /* \"#utility.yul\":23303:23366   */\n    tag_595:\n        /* \"#utility.yul\":23250:23372   */\n      pop\n      jump\t// out\n        /* \"#utility.yul\":23378:23500   */\n    tag_328:\n        /* \"#utility.yul\":23451:23475   */\n      tag_597\n        /* \"#utility.yul\":23469:23474   */\n      dup2\n        /* \"#utility.yul\":23451:23475   */\n      tag_401\n      jump\t// in\n    tag_597:\n        /* \"#utility.yul\":23444:23449   */\n      dup2\n        /* \"#utility.yul\":23441:23476   */\n      eq\n        /* \"#utility.yul\":23431:23494   */\n      tag_598\n      jumpi\n        /* \"#utility.yul\":23490:23491   */\n      0x00\n        /* \"#utility.yul\":23487:23488   */\n      dup1\n        /* \"#utility.yul\":23480:23492   */\n      revert\n        /* \"#utility.yul\":23431:23494   */\n    tag_598:\n        /* \"#utility.yul\":23378:23500   */\n      pop\n      jump\t// out\n        /* \"#utility.yul\":23506:23628   */\n    tag_332:\n        /* \"#utility.yul\":23579:23603   */\n      tag_600\n        /* \"#utility.yul\":23597:23602   */\n      dup2\n        /* \"#utility.yul\":23579:23603   */\n      tag_473\n      jump\t// in\n    tag_600:\n        /* \"#utility.yul\":23572:23577   */\n      dup2\n        /* \"#utility.yul\":23569:23604   */\n      eq\n        /* \"#utility.yul\":23559:23622   */\n      tag_601\n      jumpi\n        /* \"#utility.yul\":23618:23619   */\n      0x00\n        /* \"#utility.yul\":23615:23616   */\n      dup1\n        /* \"#utility.yul\":23608:23620   */\n      revert\n        /* \"#utility.yul\":23559:23622   */\n    tag_601:\n        /* \"#utility.yul\":23506:23628   */\n      pop\n      jump\t// out\n        /* \"#utility.yul\":23634:23752   */\n    tag_339:\n        /* \"#utility.yul\":23705:23727   */\n      tag_603\n        /* \"#utility.yul\":23721:23726   */\n      dup2\n        /* \"#utility.yul\":23705:23727   */\n      tag_477\n      jump\t// in\n    tag_603:\n        /* \"#utility.yul\":23698:23703   */\n      dup2\n        /* \"#utility.yul\":23695:23728   */\n      eq\n        /* \"#utility.yul\":23685:23746   */\n      tag_604\n      jumpi\n        /* \"#utility.yul\":23742:23743   */\n      0x00\n        /* \"#utility.yul\":23739:23740   */\n      dup1\n        /* \"#utility.yul\":23732:23744   */\n      revert\n        /* \"#utility.yul\":23685:23746   */\n    tag_604:\n        /* \"#utility.yul\":23634:23752   */\n      pop\n      jump\t// out\n\n    auxdata: 0xa26469706673582212204370c969ac03dc7bf1d2b7e7bd829cbbd04743b4f07cce6d7afd6885e5eb6a7b64736f6c63430008070033\n}\n",
				"bytecode": {
					"linkReferences": {},
					"object": "610100604052600060065560006007553480156200001c57600080fd5b5060405162003184380380620031848339818101604052810190620000429190620002df565b8383838382828282600090805190602001906200006192919062000183565b5081600190805190602001906200007a92919062000183565b508060ff1660808160ff1660f81b815250504660a08181525050620000a4620000f360201b60201c565b60c081815250505050508373ffffffffffffffffffffffffffffffffffffffff1660e08173ffffffffffffffffffffffffffffffffffffffff1660601b81525050505050505050505062000704565b60007f8b73c3c69bb8fe3d512ecc4cf759cc79239f7b179b0ffacaa9a75d522b39400f60006040516200012791906200044d565b60405180910390207fc89efdaa54c0f20c7adf612882df0950f5a951637e0307cdcb4c672f298b8bc646306040516020016200016895949392919062000466565b60405160208183030381529060405280519060200120905090565b8280546200019190620005e1565b90600052602060002090601f016020900481019282620001b5576000855562000201565b82601f10620001d057805160ff191683800117855562000201565b8280016001018555821562000201579182015b8281111562000200578251825591602001919060010190620001e3565b5b50905062000210919062000214565b5090565b5b808211156200022f57600081600090555060010162000215565b5090565b60006200024a6200024484620004ec565b620004c3565b905082815260208101848484011115620002695762000268620006b0565b5b62000276848285620005ab565b509392505050565b6000815190506200028f81620006d0565b92915050565b600082601f830112620002ad57620002ac620006ab565b5b8151620002bf84826020860162000233565b91505092915050565b600081519050620002d981620006ea565b92915050565b60008060008060808587031215620002fc57620002fb620006ba565b5b60006200030c878288016200027e565b945050602085015167ffffffffffffffff81111562000330576200032f620006b5565b5b6200033e8782880162000295565b935050604085015167ffffffffffffffff811115620003625762000361620006b5565b5b620003708782880162000295565b92505060606200038387828801620002c8565b91505092959194509250565b6200039a8162000542565b82525050565b620003ab8162000556565b82525050565b60008154620003c081620005e1565b620003cc818662000537565b94506001821660008114620003ea5760018114620003fc5762000433565b60ff1983168652818601935062000433565b620004078562000522565b60005b838110156200042b578154818901526001820191506020810190506200040a565b838801955050505b50505092915050565b620004478162000594565b82525050565b60006200045b8284620003b1565b915081905092915050565b600060a0820190506200047d6000830188620003a0565b6200048c6020830187620003a0565b6200049b6040830186620003a0565b620004aa60608301856200043c565b620004b960808301846200038f565b9695505050505050565b6000620004cf620004e2565b9050620004dd828262000617565b919050565b6000604051905090565b600067ffffffffffffffff8211156200050a57620005096200067c565b5b6200051582620006bf565b9050602081019050919050565b60008190508160005260206000209050919050565b600081905092915050565b60006200054f8262000574565b9050919050565b6000819050919050565b60006200056d8262000542565b9050919050565b600073ffffffffffffffffffffffffffffffffffffffff82169050919050565b6000819050919050565b600060ff82169050919050565b60005b83811015620005cb578082015181840152602081019050620005ae565b83811115620005db576000848401525b50505050565b60006002820490506001821680620005fa57607f821691505b602082108114156200061157620006106200064d565b5b50919050565b6200062282620006bf565b810181811067ffffffffffffffff821117156200064457620006436200067c565b5b80604052505050565b7f4e487b7100000000000000000000000000000000000000000000000000000000600052602260045260246000fd5b7f4e487b7100000000000000000000000000000000000000000000000000000000600052604160045260246000fd5b600080fd5b600080fd5b600080fd5b600080fd5b6000601f19601f8301169050919050565b620006db8162000560565b8114620006e757600080fd5b50565b620006f5816200059e565b81146200070157600080fd5b50565b60805160f81c60a05160c05160e05160601c612a1d62000767600039600081816106cd01528181610c4201528181610cf801528181610e03015281816112b6015261155501526000610c1b01526000610be701526000610bc10152612a1d6000f3fe608060405234801561001057600080fd5b50600436106101da5760003560e01c806394bf804d11610104578063c63d75b6116100a2578063d905777e11610071578063d905777e1461061b578063dd62ed3e1461064b578063ef8b30f71461067b578063fc407ae7146106ab576101da565b8063c63d75b61461056f578063c6e6f5921461059f578063ce96cb77146105cf578063d505accf146105ff576101da565b8063b3d7f6b9116100de578063b3d7f6b9146104c1578063b460af94146104f1578063ba08765214610521578063bc368a8a14610551576101da565b806394bf804d1461044357806395d89b4114610473578063a9059cbb14610491576101da565b8063313ce5671161017c5780634cdad5061161014b5780634cdad506146103835780636e553f65146103b357806370a08231146103e35780637ecebe0014610413576101da565b8063313ce567146102f95780633644e5151461031757806338d52e0f14610335578063402d267d14610353576101da565b8063095ea7b3116101b8578063095ea7b31461024b5780630a28a4771461027b57806318160ddd146102ab57806323b872dd146102c9576101da565b806301e1d114146101df57806306fdde03146101fd57806307a2d13a1461021b575b600080fd5b6101e76106c9565b6040516101f4919061257b565b60405180910390f35b610205610779565b6040516102129190612499565b60405180910390f35b61023560048036038101906102309190611fdb565b610807565b604051610242919061257b565b60405180910390f35b61026560048036038101906102609190611f9b565b610842565b604051610272919061234f565b60405180910390f35b61029560048036038101906102909190611fdb565b610934565b6040516102a2919061257b565b60405180910390f35b6102b361096f565b6040516102c0919061257b565b60405180910390f35b6102e360048036038101906102de9190611ea6565b610975565b6040516102f0919061234f565b60405180910390f35b610301610bbf565b60405161030e91906125bf565b60405180910390f35b61031f610be3565b60405161032c919061236a565b60405180910390f35b61033d610c40565b60405161034a919061247e565b60405180910390f35b61036d60048036038101906103689190611e39565b610c64565b60405161037a919061257b565b60405180910390f35b61039d60048036038101906103989190611fdb565b610c8e565b6040516103aa919061257b565b60405180910390f35b6103cd60048036038101906103c89190612035565b610ca0565b6040516103da919061257b565b60405180910390f35b6103fd60048036038101906103f89190611e39565b610dbe565b60405161040a919061257b565b60405180910390f35b61042d60048036038101906104289190611e39565b610dd6565b60405161043a919061257b565b60405180910390f35b61045d60048036038101906104589190612035565b610dee565b60405161046a919061257b565b60405180910390f35b61047b610ec9565b6040516104889190612499565b60405180910390f35b6104ab60048036038101906104a69190611f9b565b610f57565b6040516104b8919061234f565b60405180910390f35b6104db60048036038101906104d69190611fdb565b61106b565b6040516104e8919061257b565b60405180910390f35b61050b60048036038101906105069190612075565b6110a6565b604051610518919061257b565b60405180910390f35b61053b60048036038101906105369190612075565b611301565b604051610548919061257b565b60405180910390f35b6105596115a0565b604051610566919061257b565b60405180910390f35b61058960048036038101906105849190611e39565b6115a6565b604051610596919061257b565b60405180910390f35b6105b960048036038101906105b49190611fdb565b6115d0565b6040516105c6919061257b565b60405180910390f35b6105e960048036038101906105e49190611e39565b61160b565b6040516105f6919061257b565b60405180910390f35b61061960048036038101906106149190611ef9565b61165c565b005b61063560048036038101906106309190611e39565b611955565b604051610642919061257b565b60405180910390f35b61066560048036038101906106609190611e66565b61199e565b604051610672919061257b565b60405180910390f35b61069560048036038101906106909190611fdb565b6119c3565b6040516106a2919061257b565b60405180910390f35b6106b36119d5565b6040516106c0919061257b565b60405180910390f35b60007f000000000000000000000000000000000000000000000000000000000000000073ffffffffffffffffffffffffffffffffffffffff166370a08231306040518263ffffffff1660e01b81526004016107249190612334565b60206040518083038186803b15801561073c57600080fd5b505afa158015610750573d6000803e3d6000fd5b505050506040513d601f19601f820116820180604052508101906107749190612008565b905090565b6000805461078690612773565b80601f01602080910402602001604051908101604052809291908181526020018280546107b290612773565b80156107ff5780601f106107d4576101008083540402835291602001916107ff565b820191906000526020600020905b8154815290600101906020018083116107e257829003601f168201915b505050505081565b600080600254905060008114610838576108336108226106c9565b82856119db9092919063ffffffff16565b61083a565b825b915050919050565b600081600460003373ffffffffffffffffffffffffffffffffffffffff1673ffffffffffffffffffffffffffffffffffffffff16815260200190815260200160002060008573ffffffffffffffffffffffffffffffffffffffff1673ffffffffffffffffffffffffffffffffffffffff168152602001908152602001600020819055508273ffffffffffffffffffffffffffffffffffffffff163373ffffffffffffffffffffffffffffffffffffffff167f8c5be1e5ebec7d5bd14f71427d1e84f3dd0314c0f7b2291e5b200ac8c7c3b92584604051610922919061257b565b60405180910390a36001905092915050565b60008060025490506000811461096557610960816109506106c9565b85611a039092919063ffffffff16565b610967565b825b915050919050565b60025481565b600080600460008673ffffffffffffffffffffffffffffffffffffffff1673ffffffffffffffffffffffffffffffffffffffff16815260200190815260200160002060003373ffffffffffffffffffffffffffffffffffffffff1673ffffffffffffffffffffffffffffffffffffffff1681526020019081526020016000205490507fffffffffffffffffffffffffffffffffffffffffffffffffffffffffffffffff8114610aab578281610a2a9190612677565b600460008773ffffffffffffffffffffffffffffffffffffffff1673ffffffffffffffffffffffffffffffffffffffff16815260200190815260200160002060003373ffffffffffffffffffffffffffffffffffffffff1673ffffffffffffffffffffffffffffffffffffffff168152602001908152602001600020819055505b82600360008773ffffffffffffffffffffffffffffffffffffffff1673ffffffffffffffffffffffffffffffffffffffff1681526020019081526020016000206000828254610afa9190612677565b9250508190555082600360008673ffffffffffffffffffffffffffffffffffffffff1673ffffffffffffffffffffffffffffffffffffffff168152602001908152602001600020600082825401925050819055508373ffffffffffffffffffffffffffffffffffffffff168573ffffffffffffffffffffffffffffffffffffffff167fddf252ad1be2c89b69c2b068fc378daa952ba7f163c4a11628f55a4df523b3ef85604051610bab919061257b565b60405180910390a360019150509392505050565b7f000000000000000000000000000000000000000000000000000000000000000081565b60007f00000000000000000000000000000000000000000000000000000000000000004614610c1957610c14611a35565b610c3b565b7f00000000000000000000000000000000000000000000000000000000000000005b905090565b7f000000000000000000000000000000000000000000000000000000000000000081565b60007fffffffffffffffffffffffffffffffffffffffffffffffffffffffffffffffff9050919050565b6000610c9982610807565b9050919050565b600080610cac846119c3565b9150811415610cf0576040517f08c379a0000000000000000000000000000000000000000000000000000000008152600401610ce7906124bb565b60405180910390fd5b610d3d3330857f000000000000000000000000000000000000000000000000000000000000000073ffffffffffffffffffffffffffffffffffffffff16611ac1909392919063ffffffff16565b610d478282611b60565b8173ffffffffffffffffffffffffffffffffffffffff163373ffffffffffffffffffffffffffffffffffffffff167fdcbc1c05240f31ff3ad067ef1ee35ce4997762752e3a095284754544f4c709d78584604051610da6929190612596565b60405180910390a3610db88382611c30565b92915050565b60036020528060005260406000206000915090505481565b60056020528060005260406000206000915090505481565b6000610df98361106b565b9050610e483330837f000000000000000000000000000000000000000000000000000000000000000073ffffffffffffffffffffffffffffffffffffffff16611ac1909392919063ffffffff16565b610e528284611b60565b8173ffffffffffffffffffffffffffffffffffffffff163373ffffffffffffffffffffffffffffffffffffffff167fdcbc1c05240f31ff3ad067ef1ee35ce4997762752e3a095284754544f4c709d78386604051610eb1929190612596565b60405180910390a3610ec38184611c30565b92915050565b60018054610ed690612773565b80601f0160208091040260200160405190810160405280929190818152602001828054610f0290612773565b8015610f4f5780601f10610f2457610100808354040283529160200191610f4f565b820191906000526020600020905b815481529060010190602001808311610f3257829003601f168201915b505050505081565b600081600360003373ffffffffffffffffffffffffffffffffffffffff1673ffffffffffffffffffffffffffffffffffffffff1681526020019081526020016000206000828254610fa89190612677565b9250508190555081600360008573ffffffffffffffffffffffffffffffffffffffff1673ffffffffffffffffffffffffffffffffffffffff168152602001908152602001600020600082825401925050819055508273ffffffffffffffffffffffffffffffffffffffff163373ffffffffffffffffffffffffffffffffffffffff167fddf252ad1be2c89b69c2b068fc378daa952ba7f163c4a11628f55a4df523b3ef84604051611059919061257b565b60405180910390a36001905092915050565b60008060025490506000811461109c576110976110866106c9565b8285611a039092919063ffffffff16565b61109e565b825b915050919050565b60006110b184610934565b90508173ffffffffffffffffffffffffffffffffffffffff163373ffffffffffffffffffffffffffffffffffffffff161461121d576000600460008473ffffffffffffffffffffffffffffffffffffffff1673ffffffffffffffffffffffffffffffffffffffff16815260200190815260200160002060003373ffffffffffffffffffffffffffffffffffffffff1673ffffffffffffffffffffffffffffffffffffffff1681526020019081526020016000205490507fffffffffffffffffffffffffffffffffffffffffffffffffffffffffffffffff811461121b57818161119a9190612677565b600460008573ffffffffffffffffffffffffffffffffffffffff1673ffffffffffffffffffffffffffffffffffffffff16815260200190815260200160002060003373ffffffffffffffffffffffffffffffffffffffff1673ffffffffffffffffffffffffffffffffffffffff168152602001908152602001600020819055505b505b6112278482611c4c565b6112318282611c68565b8173ffffffffffffffffffffffffffffffffffffffff168373ffffffffffffffffffffffffffffffffffffffff163373ffffffffffffffffffffffffffffffffffffffff167ffbde797d201c681b91056529119e0b02407c7bb96a4a2c75c01fc9667232c8db87856040516112a7929190612596565b60405180910390a46112fa83857f000000000000000000000000000000000000000000000000000000000000000073ffffffffffffffffffffffffffffffffffffffff16611d389092919063ffffffff16565b9392505050565b60008173ffffffffffffffffffffffffffffffffffffffff163373ffffffffffffffffffffffffffffffffffffffff161461146d576000600460008473ffffffffffffffffffffffffffffffffffffffff1673ffffffffffffffffffffffffffffffffffffffff16815260200190815260200160002060003373ffffffffffffffffffffffffffffffffffffffff1673ffffffffffffffffffffffffffffffffffffffff1681526020019081526020016000205490507fffffffffffffffffffffffffffffffffffffffffffffffffffffffffffffffff811461146b5784816113ea9190612677565b600460008573ffffffffffffffffffffffffffffffffffffffff1673ffffffffffffffffffffffffffffffffffffffff16815260200190815260200160002060003373ffffffffffffffffffffffffffffffffffffffff1673ffffffffffffffffffffffffffffffffffffffff168152602001908152602001600020819055505b505b600061147885610c8e565b91508114156114bc576040517f08c379a00000000000000000000000000000000000000000000000000000000081526004016114b39061253b565b60405180910390fd5b6114c68185611c4c565b6114d08285611c68565b8173ffffffffffffffffffffffffffffffffffffffff168373ffffffffffffffffffffffffffffffffffffffff163373ffffffffffffffffffffffffffffffffffffffff167ffbde797d201c681b91056529119e0b02407c7bb96a4a2c75c01fc9667232c8db8488604051611546929190612596565b60405180910390a461159983827f000000000000000000000000000000000000000000000000000000000000000073ffffffffffffffffffffffffffffffffffffffff16611d389092919063ffffffff16565b9392505050565b60065481565b60007fffffffffffffffffffffffffffffffffffffffffffffffffffffffffffffffff9050919050565b600080600254905060008114611601576115fc816115ec6106c9565b856119db9092919063ffffffff16565b611603565b825b915050919050565b6000611655600360008473ffffffffffffffffffffffffffffffffffffffff1673ffffffffffffffffffffffffffffffffffffffff16815260200190815260200160002054610807565b9050919050565b4284101561169f576040517f08c379a00000000000000000000000000000000000000000000000000000000081526004016116969061255b565b60405180910390fd5b600060016116ab610be3565b7f6e71edae12b1b97f4d1f60370fef10105fa2faae0126114a169c64845d6126c98a8a8a600560008f73ffffffffffffffffffffffffffffffffffffffff1673ffffffffffffffffffffffffffffffffffffffff1681526020019081526020016000206000815480929190600101919050558b60405160200161173396959493929190612385565b6040516020818303038152906040528051906020012060405160200161175a9291906122fd565b60405160208183030381529060405280519060200120858585604051600081526020016040526040516117909493929190612439565b6020604051602081039080840390855afa1580156117b2573d6000803e3d6000fd5b505050602060405103519050600073ffffffffffffffffffffffffffffffffffffffff168173ffffffffffffffffffffffffffffffffffffffff161415801561182657508773ffffffffffffffffffffffffffffffffffffffff168173ffffffffffffffffffffffffffffffffffffffff16145b611865576040517f08c379a000000000000000000000000000000000000000000000000000000000815260040161185c9061251b565b60405180910390fd5b85600460008373ffffffffffffffffffffffffffffffffffffffff1673ffffffffffffffffffffffffffffffffffffffff16815260200190815260200160002060008973ffffffffffffffffffffffffffffffffffffffff1673ffffffffffffffffffffffffffffffffffffffff16815260200190815260200160002081905550508573ffffffffffffffffffffffffffffffffffffffff168773ffffffffffffffffffffffffffffffffffffffff167f8c5be1e5ebec7d5bd14f71427d1e84f3dd0314c0f7b2291e5b200ac8c7c3b92587604051611944919061257b565b60405180910390a350505050505050565b6000600360008373ffffffffffffffffffffffffffffffffffffffff1673ffffffffffffffffffffffffffffffffffffffff168152602001908152602001600020549050919050565b6004602052816000526040600020602052806000526040600020600091509150505481565b60006119ce826115d0565b9050919050565b60075481565b600082840290508284820414841517821515166119f757600080fd5b81810490509392505050565b60008284029050828482041484151782151516611a1f57600080fd5b6001826001830304018115150290509392505050565b60007f8b73c3c69bb8fe3d512ecc4cf759cc79239f7b179b0ffacaa9a75d522b39400f6000604051611a6791906122e6565b60405180910390207fc89efdaa54c0f20c7adf612882df0950f5a951637e0307cdcb4c672f298b8bc64630604051602001611aa69594939291906123e6565b60405160208183030381529060405280519060200120905090565b60006040517f23b872dd0000000000000000000000000000000000000000000000000000000081528460048201528360248201528260448201526020600060648360008a5af13d15601f3d1160016000511416171691505080611b59576040517f08c379a0000000000000000000000000000000000000000000000000000000008152600401611b50906124db565b60405180910390fd5b5050505050565b8060026000828254611b729190612621565b9250508190555080600360008473ffffffffffffffffffffffffffffffffffffffff1673ffffffffffffffffffffffffffffffffffffffff168152602001908152602001600020600082825401925050819055508173ffffffffffffffffffffffffffffffffffffffff16600073ffffffffffffffffffffffffffffffffffffffff167fddf252ad1be2c89b69c2b068fc378daa952ba7f163c4a11628f55a4df523b3ef83604051611c24919061257b565b60405180910390a35050565b60076000815480929190611c43906127a5565b91905055505050565b60066000815480929190611c5f906127a5565b91905055505050565b80600360008473ffffffffffffffffffffffffffffffffffffffff1673ffffffffffffffffffffffffffffffffffffffff1681526020019081526020016000206000828254611cb79190612677565b9250508190555080600260008282540392505081905550600073ffffffffffffffffffffffffffffffffffffffff168273ffffffffffffffffffffffffffffffffffffffff167fddf252ad1be2c89b69c2b068fc378daa952ba7f163c4a11628f55a4df523b3ef83604051611d2c919061257b565b60405180910390a35050565b60006040517fa9059cbb000000000000000000000000000000000000000000000000000000008152836004820152826024820152602060006044836000895af13d15601f3d1160016000511416171691505080611dca576040517f08c379a0000000000000000000000000000000000000000000000000000000008152600401611dc1906124fb565b60405180910390fd5b50505050565b600081359050611ddf8161298b565b92915050565b600081359050611df4816129a2565b92915050565b600081359050611e09816129b9565b92915050565b600081519050611e1e816129b9565b92915050565b600081359050611e33816129d0565b92915050565b600060208284031215611e4f57611e4e612856565b5b6000611e5d84828501611dd0565b91505092915050565b60008060408385031215611e7d57611e7c612856565b5b6000611e8b85828601611dd0565b9250506020611e9c85828601611dd0565b9150509250929050565b600080600060608486031215611ebf57611ebe612856565b5b6000611ecd86828701611dd0565b9350506020611ede86828701611dd0565b9250506040611eef86828701611dfa565b9150509250925092565b600080600080600080600060e0888a031215611f1857611f17612856565b5b6000611f268a828b01611dd0565b9750506020611f378a828b01611dd0565b9650506040611f488a828b01611dfa565b9550506060611f598a828b01611dfa565b9450506080611f6a8a828b01611e24565b93505060a0611f7b8a828b01611de5565b92505060c0611f8c8a828b01611de5565b91505092959891949750929550565b60008060408385031215611fb257611fb1612856565b5b6000611fc085828601611dd0565b9250506020611fd185828601611dfa565b9150509250929050565b600060208284031215611ff157611ff0612856565b5b6000611fff84828501611dfa565b91505092915050565b60006020828403121561201e5761201d612856565b5b600061202c84828501611e0f565b91505092915050565b6000806040838503121561204c5761204b612856565b5b600061205a85828601611dfa565b925050602061206b85828601611dd0565b9150509250929050565b60008060006060848603121561208e5761208d612856565b5b600061209c86828701611dfa565b93505060206120ad86828701611dd0565b92505060406120be86828701611dd0565b9150509250925092565b6120d1816126ab565b82525050565b6120e0816126bd565b82525050565b6120ef816126c9565b82525050565b612106612101826126c9565b6127ee565b82525050565b6000815461211981612773565b61212381866125fa565b9450600182166000811461213e576001811461214f57612182565b60ff19831686528186019350612182565b612158856125da565b60005b8381101561217a5781548189015260018201915060208101905061215b565b838801955050505b50505092915050565b6121948161270a565b82525050565b60006121a5826125ef565b6121af8185612605565b93506121bf818560208601612740565b6121c88161285b565b840191505092915050565b60006121e0600b83612605565b91506121eb8261286c565b602082019050919050565b6000612203600283612616565b915061220e82612895565b600282019050919050565b6000612226601483612605565b9150612231826128be565b602082019050919050565b6000612249600f83612605565b9150612254826128e7565b602082019050919050565b600061226c600e83612605565b915061227782612910565b602082019050919050565b600061228f600b83612605565b915061229a82612939565b602082019050919050565b60006122b2601783612605565b91506122bd82612962565b602082019050919050565b6122d1816126f3565b82525050565b6122e0816126fd565b82525050565b60006122f2828461210c565b915081905092915050565b6000612308826121f6565b915061231482856120f5565b60208201915061232482846120f5565b6020820191508190509392505050565b600060208201905061234960008301846120c8565b92915050565b600060208201905061236460008301846120d7565b92915050565b600060208201905061237f60008301846120e6565b92915050565b600060c08201905061239a60008301896120e6565b6123a760208301886120c8565b6123b460408301876120c8565b6123c160608301866122c8565b6123ce60808301856122c8565b6123db60a08301846122c8565b979650505050505050565b600060a0820190506123fb60008301886120e6565b61240860208301876120e6565b61241560408301866120e6565b61242260608301856122c8565b61242f60808301846120c8565b9695505050505050565b600060808201905061244e60008301876120e6565b61245b60208301866122d7565b61246860408301856120e6565b61247560608301846120e6565b95945050505050565b6000602082019050612493600083018461218b565b92915050565b600060208201905081810360008301526124b3818461219a565b905092915050565b600060208201905081810360008301526124d4816121d3565b9050919050565b600060208201905081810360008301526124f481612219565b9050919050565b600060208201905081810360008301526125148161223c565b9050919050565b600060208201905081810360008301526125348161225f565b9050919050565b6000602082019050818103600083015261255481612282565b9050919050565b60006020820190508181036000830152612574816122a5565b9050919050565b600060208201905061259060008301846122c8565b92915050565b60006040820190506125ab60008301856122c8565b6125b860208301846122c8565b9392505050565b60006020820190506125d460008301846122d7565b92915050565b60008190508160005260206000209050919050565b600081519050919050565b600081905092915050565b600082825260208201905092915050565b600081905092915050565b600061262c826126f3565b9150612637836126f3565b9250827fffffffffffffffffffffffffffffffffffffffffffffffffffffffffffffffff0382111561266c5761266b6127f8565b5b828201905092915050565b6000612682826126f3565b915061268d836126f3565b9250828210156126a05761269f6127f8565b5b828203905092915050565b60006126b6826126d3565b9050919050565b60008115159050919050565b6000819050919050565b600073ffffffffffffffffffffffffffffffffffffffff82169050919050565b6000819050919050565b600060ff82169050919050565b60006127158261271c565b9050919050565b60006127278261272e565b9050919050565b6000612739826126d3565b9050919050565b60005b8381101561275e578082015181840152602081019050612743565b8381111561276d576000848401525b50505050565b6000600282049050600182168061278b57607f821691505b6020821081141561279f5761279e612827565b5b50919050565b60006127b0826126f3565b91507fffffffffffffffffffffffffffffffffffffffffffffffffffffffffffffffff8214156127e3576127e26127f8565b5b600182019050919050565b6000819050919050565b7f4e487b7100000000000000000000000000000000000000000000000000000000600052601160045260246000fd5b7f4e487b7100000000000000000000000000000000000000000000000000000000600052602260045260246000fd5b600080fd5b6000601f19601f8301169050919050565b7f5a45524f5f534841524553000000000000000000000000000000000000000000600082015250565b7f1901000000000000000000000000000000000000000000000000000000000000600082015250565b7f5452414e534645525f46524f4d5f4641494c4544000000000000000000000000600082015250565b7f5452414e534645525f4641494c45440000000000000000000000000000000000600082015250565b7f494e56414c49445f5349474e4552000000000000000000000000000000000000600082015250565b7f5a45524f5f415353455453000000000000000000000000000000000000000000600082015250565b7f5045524d49545f444541444c494e455f45585049524544000000000000000000600082015250565b612994816126ab565b811461299f57600080fd5b50565b6129ab816126c9565b81146129b657600080fd5b50565b6129c2816126f3565b81146129cd57600080fd5b50565b6129d9816126fd565b81146129e457600080fd5b5056fea26469706673582212204370c969ac03dc7bf1d2b7e7bd829cbbd04743b4f07cce6d7afd6885e5eb6a7b64736f6c63430008070033",
					"opcodes": "PUSH2 0x100 PUSH1 0x40 MSTORE PUSH1 0x0 PUSH1 0x6 SSTORE PUSH1 0x0 PUSH1 0x7 SSTORE CALLVALUE DUP1 ISZERO PUSH3 0x1C JUMPI PUSH1 0x0 DUP1 REVERT JUMPDEST POP PUSH1 0x40 MLOAD PUSH3 0x3184 CODESIZE SUB DUP1 PUSH3 0x3184 DUP4 CODECOPY DUP2 DUP2 ADD PUSH1 0x40 MSTORE DUP2 ADD SWAP1 PUSH3 0x42 SWAP2 SWAP1 PUSH3 0x2DF JUMP JUMPDEST DUP4 DUP4 DUP4 DUP4 DUP3 DUP3 DUP3 DUP3 PUSH1 0x0 SWAP1 DUP1 MLOAD SWAP1 PUSH1 0x20 ADD SWAP1 PUSH3 0x61 SWAP3 SWAP2 SWAP1 PUSH3 0x183 JUMP JUMPDEST POP DUP2 PUSH1 0x1 SWAP1 DUP1 MLOAD SWAP1 PUSH1 0x20 ADD SWAP1 PUSH3 0x7A SWAP3 SWAP2 SWAP1 PUSH3 0x183 JUMP JUMPDEST POP DUP1 PUSH1 0xFF AND PUSH1 0x80 DUP2 PUSH1 0xFF AND PUSH1 0xF8 SHL DUP2 MSTORE POP POP CHAINID PUSH1 0xA0 DUP2 DUP2 MSTORE POP POP PUSH3 0xA4 PUSH3 0xF3 PUSH1 0x20 SHL PUSH1 0x20 SHR JUMP JUMPDEST PUSH1 0xC0 DUP2 DUP2 MSTORE POP POP POP POP POP DUP4 PUSH20 0xFFFFFFFFFFFFFFFFFFFFFFFFFFFFFFFFFFFFFFFF AND PUSH1 0xE0 DUP2 PUSH20 0xFFFFFFFFFFFFFFFFFFFFFFFFFFFFFFFFFFFFFFFF AND PUSH1 0x60 SHL DUP2 MSTORE POP POP POP POP POP POP POP POP POP POP PUSH3 0x704 JUMP JUMPDEST PUSH1 0x0 PUSH32 0x8B73C3C69BB8FE3D512ECC4CF759CC79239F7B179B0FFACAA9A75D522B39400F PUSH1 0x0 PUSH1 0x40 MLOAD PUSH3 0x127 SWAP2 SWAP1 PUSH3 0x44D JUMP JUMPDEST PUSH1 0x40 MLOAD DUP1 SWAP2 SUB SWAP1 KECCAK256 PUSH32 0xC89EFDAA54C0F20C7ADF612882DF0950F5A951637E0307CDCB4C672F298B8BC6 CHAINID ADDRESS PUSH1 0x40 MLOAD PUSH1 0x20 ADD PUSH3 0x168 SWAP6 SWAP5 SWAP4 SWAP3 SWAP2 SWAP1 PUSH3 0x466 JUMP JUMPDEST PUSH1 0x40 MLOAD PUSH1 0x20 DUP2 DUP4 SUB SUB DUP2 MSTORE SWAP1 PUSH1 0x40 MSTORE DUP1 MLOAD SWAP1 PUSH1 0x20 ADD KECCAK256 SWAP1 POP SWAP1 JUMP JUMPDEST DUP3 DUP1 SLOAD PUSH3 0x191 SWAP1 PUSH3 0x5E1 JUMP JUMPDEST SWAP1 PUSH1 0x0 MSTORE PUSH1 0x20 PUSH1 0x0 KECCAK256 SWAP1 PUSH1 0x1F ADD PUSH1 0x20 SWAP1 DIV DUP2 ADD SWAP3 DUP3 PUSH3 0x1B5 JUMPI PUSH1 0x0 DUP6 SSTORE PUSH3 0x201 JUMP JUMPDEST DUP3 PUSH1 0x1F LT PUSH3 0x1D0 JUMPI DUP1 MLOAD PUSH1 0xFF NOT AND DUP4 DUP1 ADD OR DUP6 SSTORE PUSH3 0x201 JUMP JUMPDEST DUP3 DUP1 ADD PUSH1 0x1 ADD DUP6 SSTORE DUP3 ISZERO PUSH3 0x201 JUMPI SWAP2 DUP3 ADD JUMPDEST DUP3 DUP2 GT ISZERO PUSH3 0x200 JUMPI DUP3 MLOAD DUP3 SSTORE SWAP2 PUSH1 0x20 ADD SWAP2 SWAP1 PUSH1 0x1 ADD SWAP1 PUSH3 0x1E3 JUMP JUMPDEST JUMPDEST POP SWAP1 POP PUSH3 0x210 SWAP2 SWAP1 PUSH3 0x214 JUMP JUMPDEST POP SWAP1 JUMP JUMPDEST JUMPDEST DUP1 DUP3 GT ISZERO PUSH3 0x22F JUMPI PUSH1 0x0 DUP2 PUSH1 0x0 SWAP1 SSTORE POP PUSH1 0x1 ADD PUSH3 0x215 JUMP JUMPDEST POP SWAP1 JUMP JUMPDEST PUSH1 0x0 PUSH3 0x24A PUSH3 0x244 DUP5 PUSH3 0x4EC JUMP JUMPDEST PUSH3 0x4C3 JUMP JUMPDEST SWAP1 POP DUP3 DUP2 MSTORE PUSH1 0x20 DUP2 ADD DUP5 DUP5 DUP5 ADD GT ISZERO PUSH3 0x269 JUMPI PUSH3 0x268 PUSH3 0x6B0 JUMP JUMPDEST JUMPDEST PUSH3 0x276 DUP5 DUP3 DUP6 PUSH3 0x5AB JUMP JUMPDEST POP SWAP4 SWAP3 POP POP POP JUMP JUMPDEST PUSH1 0x0 DUP2 MLOAD SWAP1 POP PUSH3 0x28F DUP2 PUSH3 0x6D0 JUMP JUMPDEST SWAP3 SWAP2 POP POP JUMP JUMPDEST PUSH1 0x0 DUP3 PUSH1 0x1F DUP4 ADD SLT PUSH3 0x2AD JUMPI PUSH3 0x2AC PUSH3 0x6AB JUMP JUMPDEST JUMPDEST DUP2 MLOAD PUSH3 0x2BF DUP5 DUP3 PUSH1 0x20 DUP7 ADD PUSH3 0x233 JUMP JUMPDEST SWAP2 POP POP SWAP3 SWAP2 POP POP JUMP JUMPDEST PUSH1 0x0 DUP2 MLOAD SWAP1 POP PUSH3 0x2D9 DUP2 PUSH3 0x6EA JUMP JUMPDEST SWAP3 SWAP2 POP POP JUMP JUMPDEST PUSH1 0x0 DUP1 PUSH1 0x0 DUP1 PUSH1 0x80 DUP6 DUP8 SUB SLT ISZERO PUSH3 0x2FC JUMPI PUSH3 0x2FB PUSH3 0x6BA JUMP JUMPDEST JUMPDEST PUSH1 0x0 PUSH3 0x30C DUP8 DUP3 DUP9 ADD PUSH3 0x27E JUMP JUMPDEST SWAP5 POP POP PUSH1 0x20 DUP6 ADD MLOAD PUSH8 0xFFFFFFFFFFFFFFFF DUP2 GT ISZERO PUSH3 0x330 JUMPI PUSH3 0x32F PUSH3 0x6B5 JUMP JUMPDEST JUMPDEST PUSH3 0x33E DUP8 DUP3 DUP9 ADD PUSH3 0x295 JUMP JUMPDEST SWAP4 POP POP PUSH1 0x40 DUP6 ADD MLOAD PUSH8 0xFFFFFFFFFFFFFFFF DUP2 GT ISZERO PUSH3 0x362 JUMPI PUSH3 0x361 PUSH3 0x6B5 JUMP JUMPDEST JUMPDEST PUSH3 0x370 DUP8 DUP3 DUP9 ADD PUSH3 0x295 JUMP JUMPDEST SWAP3 POP POP PUSH1 0x60 PUSH3 0x383 DUP8 DUP3 DUP9 ADD PUSH3 0x2C8 JUMP JUMPDEST SWAP2 POP POP SWAP3 SWAP6 SWAP2 SWAP5 POP SWAP3 POP JUMP JUMPDEST PUSH3 0x39A DUP2 PUSH3 0x542 JUMP JUMPDEST DUP3 MSTORE POP POP JUMP JUMPDEST PUSH3 0x3AB DUP2 PUSH3 0x556 JUMP JUMPDEST DUP3 MSTORE POP POP JUMP JUMPDEST PUSH1 0x0 DUP2 SLOAD PUSH3 0x3C0 DUP2 PUSH3 0x5E1 JUMP JUMPDEST PUSH3 0x3CC DUP2 DUP7 PUSH3 0x537 JUMP JUMPDEST SWAP5 POP PUSH1 0x1 DUP3 AND PUSH1 0x0 DUP2 EQ PUSH3 0x3EA JUMPI PUSH1 0x1 DUP2 EQ PUSH3 0x3FC JUMPI PUSH3 0x433 JUMP JUMPDEST PUSH1 0xFF NOT DUP4 AND DUP7 MSTORE DUP2 DUP7 ADD SWAP4 POP PUSH3 0x433 JUMP JUMPDEST PUSH3 0x407 DUP6 PUSH3 0x522 JUMP JUMPDEST PUSH1 0x0 JUMPDEST DUP4 DUP2 LT ISZERO PUSH3 0x42B JUMPI DUP2 SLOAD DUP2 DUP10 ADD MSTORE PUSH1 0x1 DUP3 ADD SWAP2 POP PUSH1 0x20 DUP2 ADD SWAP1 POP PUSH3 0x40A JUMP JUMPDEST DUP4 DUP9 ADD SWAP6 POP POP POP JUMPDEST POP POP POP SWAP3 SWAP2 POP POP JUMP JUMPDEST PUSH3 0x447 DUP2 PUSH3 0x594 JUMP JUMPDEST DUP3 MSTORE POP POP JUMP JUMPDEST PUSH1 0x0 PUSH3 0x45B DUP3 DUP5 PUSH3 0x3B1 JUMP JUMPDEST SWAP2 POP DUP2 SWAP1 POP SWAP3 SWAP2 POP POP JUMP JUMPDEST PUSH1 0x0 PUSH1 0xA0 DUP3 ADD SWAP1 POP PUSH3 0x47D PUSH1 0x0 DUP4 ADD DUP9 PUSH3 0x3A0 JUMP JUMPDEST PUSH3 0x48C PUSH1 0x20 DUP4 ADD DUP8 PUSH3 0x3A0 JUMP JUMPDEST PUSH3 0x49B PUSH1 0x40 DUP4 ADD DUP7 PUSH3 0x3A0 JUMP JUMPDEST PUSH3 0x4AA PUSH1 0x60 DUP4 ADD DUP6 PUSH3 0x43C JUMP JUMPDEST PUSH3 0x4B9 PUSH1 0x80 DUP4 ADD DUP5 PUSH3 0x38F JUMP JUMPDEST SWAP7 SWAP6 POP POP POP POP POP POP JUMP JUMPDEST PUSH1 0x0 PUSH3 0x4CF PUSH3 0x4E2 JUMP JUMPDEST SWAP1 POP PUSH3 0x4DD DUP3 DUP3 PUSH3 0x617 JUMP JUMPDEST SWAP2 SWAP1 POP JUMP JUMPDEST PUSH1 0x0 PUSH1 0x40 MLOAD SWAP1 POP SWAP1 JUMP JUMPDEST PUSH1 0x0 PUSH8 0xFFFFFFFFFFFFFFFF DUP3 GT ISZERO PUSH3 0x50A JUMPI PUSH3 0x509 PUSH3 0x67C JUMP JUMPDEST JUMPDEST PUSH3 0x515 DUP3 PUSH3 0x6BF JUMP JUMPDEST SWAP1 POP PUSH1 0x20 DUP2 ADD SWAP1 POP SWAP2 SWAP1 POP JUMP JUMPDEST PUSH1 0x0 DUP2 SWAP1 POP DUP2 PUSH1 0x0 MSTORE PUSH1 0x20 PUSH1 0x0 KECCAK256 SWAP1 POP SWAP2 SWAP1 POP JUMP JUMPDEST PUSH1 0x0 DUP2 SWAP1 POP SWAP3 SWAP2 POP POP JUMP JUMPDEST PUSH1 0x0 PUSH3 0x54F DUP3 PUSH3 0x574 JUMP JUMPDEST SWAP1 POP SWAP2 SWAP1 POP JUMP JUMPDEST PUSH1 0x0 DUP2 SWAP1 POP SWAP2 SWAP1 POP JUMP JUMPDEST PUSH1 0x0 PUSH3 0x56D DUP3 PUSH3 0x542 JUMP JUMPDEST SWAP1 POP SWAP2 SWAP1 POP JUMP JUMPDEST PUSH1 0x0 PUSH20 0xFFFFFFFFFFFFFFFFFFFFFFFFFFFFFFFFFFFFFFFF DUP3 AND SWAP1 POP SWAP2 SWAP1 POP JUMP JUMPDEST PUSH1 0x0 DUP2 SWAP1 POP SWAP2 SWAP1 POP JUMP JUMPDEST PUSH1 0x0 PUSH1 0xFF DUP3 AND SWAP1 POP SWAP2 SWAP1 POP JUMP JUMPDEST PUSH1 0x0 JUMPDEST DUP4 DUP2 LT ISZERO PUSH3 0x5CB JUMPI DUP1 DUP3 ADD MLOAD DUP2 DUP5 ADD MSTORE PUSH1 0x20 DUP2 ADD SWAP1 POP PUSH3 0x5AE JUMP JUMPDEST DUP4 DUP2 GT ISZERO PUSH3 0x5DB JUMPI PUSH1 0x0 DUP5 DUP5 ADD MSTORE JUMPDEST POP POP POP POP JUMP JUMPDEST PUSH1 0x0 PUSH1 0x2 DUP3 DIV SWAP1 POP PUSH1 0x1 DUP3 AND DUP1 PUSH3 0x5FA JUMPI PUSH1 0x7F DUP3 AND SWAP2 POP JUMPDEST PUSH1 0x20 DUP3 LT DUP2 EQ ISZERO PUSH3 0x611 JUMPI PUSH3 0x610 PUSH3 0x64D JUMP JUMPDEST JUMPDEST POP SWAP2 SWAP1 POP JUMP JUMPDEST PUSH3 0x622 DUP3 PUSH3 0x6BF JUMP JUMPDEST DUP2 ADD DUP2 DUP2 LT PUSH8 0xFFFFFFFFFFFFFFFF DUP3 GT OR ISZERO PUSH3 0x644 JUMPI PUSH3 0x643 PUSH3 0x67C JUMP JUMPDEST JUMPDEST DUP1 PUSH1 0x40 MSTORE POP POP POP JUMP JUMPDEST PUSH32 0x4E487B7100000000000000000000000000000000000000000000000000000000 PUSH1 0x0 MSTORE PUSH1 0x22 PUSH1 0x4 MSTORE PUSH1 0x24 PUSH1 0x0 REVERT JUMPDEST PUSH32 0x4E487B7100000000000000000000000000000000000000000000000000000000 PUSH1 0x0 MSTORE PUSH1 0x41 PUSH1 0x4 MSTORE PUSH1 0x24 PUSH1 0x0 REVERT JUMPDEST PUSH1 0x0 DUP1 REVERT JUMPDEST PUSH1 0x0 DUP1 REVERT JUMPDEST PUSH1 0x0 DUP1 REVERT JUMPDEST PUSH1 0x0 DUP1 REVERT JUMPDEST PUSH1 0x0 PUSH1 0x1F NOT PUSH1 0x1F DUP4 ADD AND SWAP1 POP SWAP2 SWAP1 POP JUMP JUMPDEST PUSH3 0x6DB DUP2 PUSH3 0x560 JUMP JUMPDEST DUP2 EQ PUSH3 0x6E7 JUMPI PUSH1 0x0 DUP1 REVERT JUMPDEST POP JUMP JUMPDEST PUSH3 0x6F5 DUP2 PUSH3 0x59E JUMP JUMPDEST DUP2 EQ PUSH3 0x701 JUMPI PUSH1 0x0 DUP1 REVERT JUMPDEST POP JUMP JUMPDEST PUSH1 0x80 MLOAD PUSH1 0xF8 SHR PUSH1 0xA0 MLOAD PUSH1 0xC0 MLOAD PUSH1 0xE0 MLOAD PUSH1 0x60 SHR PUSH2 0x2A1D PUSH3 0x767 PUSH1 0x0 CODECOPY PUSH1 0x0 DUP2 DUP2 PUSH2 0x6CD ADD MSTORE DUP2 DUP2 PUSH2 0xC42 ADD MSTORE DUP2 DUP2 PUSH2 0xCF8 ADD MSTORE DUP2 DUP2 PUSH2 0xE03 ADD MSTORE DUP2 DUP2 PUSH2 0x12B6 ADD MSTORE PUSH2 0x1555 ADD MSTORE PUSH1 0x0 PUSH2 0xC1B ADD MSTORE PUSH1 0x0 PUSH2 0xBE7 ADD MSTORE PUSH1 0x0 PUSH2 0xBC1 ADD MSTORE PUSH2 0x2A1D PUSH1 0x0 RETURN INVALID PUSH1 0x80 PUSH1 0x40 MSTORE CALLVALUE DUP1 ISZERO PUSH2 0x10 JUMPI PUSH1 0x0 DUP1 REVERT JUMPDEST POP PUSH1 0x4 CALLDATASIZE LT PUSH2 0x1DA JUMPI PUSH1 0x0 CALLDATALOAD PUSH1 0xE0 SHR DUP1 PUSH4 0x94BF804D GT PUSH2 0x104 JUMPI DUP1 PUSH4 0xC63D75B6 GT PUSH2 0xA2 JUMPI DUP1 PUSH4 0xD905777E GT PUSH2 0x71 JUMPI DUP1 PUSH4 0xD905777E EQ PUSH2 0x61B JUMPI DUP1 PUSH4 0xDD62ED3E EQ PUSH2 0x64B JUMPI DUP1 PUSH4 0xEF8B30F7 EQ PUSH2 0x67B JUMPI DUP1 PUSH4 0xFC407AE7 EQ PUSH2 0x6AB JUMPI PUSH2 0x1DA JUMP JUMPDEST DUP1 PUSH4 0xC63D75B6 EQ PUSH2 0x56F JUMPI DUP1 PUSH4 0xC6E6F592 EQ PUSH2 0x59F JUMPI DUP1 PUSH4 0xCE96CB77 EQ PUSH2 0x5CF JUMPI DUP1 PUSH4 0xD505ACCF EQ PUSH2 0x5FF JUMPI PUSH2 0x1DA JUMP JUMPDEST DUP1 PUSH4 0xB3D7F6B9 GT PUSH2 0xDE JUMPI DUP1 PUSH4 0xB3D7F6B9 EQ PUSH2 0x4C1 JUMPI DUP1 PUSH4 0xB460AF94 EQ PUSH2 0x4F1 JUMPI DUP1 PUSH4 0xBA087652 EQ PUSH2 0x521 JUMPI DUP1 PUSH4 0xBC368A8A EQ PUSH2 0x551 JUMPI PUSH2 0x1DA JUMP JUMPDEST DUP1 PUSH4 0x94BF804D EQ PUSH2 0x443 JUMPI DUP1 PUSH4 0x95D89B41 EQ PUSH2 0x473 JUMPI DUP1 PUSH4 0xA9059CBB EQ PUSH2 0x491 JUMPI PUSH2 0x1DA JUMP JUMPDEST DUP1 PUSH4 0x313CE567 GT PUSH2 0x17C JUMPI DUP1 PUSH4 0x4CDAD506 GT PUSH2 0x14B JUMPI DUP1 PUSH4 0x4CDAD506 EQ PUSH2 0x383 JUMPI DUP1 PUSH4 0x6E553F65 EQ PUSH2 0x3B3 JUMPI DUP1 PUSH4 0x70A08231 EQ PUSH2 0x3E3 JUMPI DUP1 PUSH4 0x7ECEBE00 EQ PUSH2 0x413 JUMPI PUSH2 0x1DA JUMP JUMPDEST DUP1 PUSH4 0x313CE567 EQ PUSH2 0x2F9 JUMPI DUP1 PUSH4 0x3644E515 EQ PUSH2 0x317 JUMPI DUP1 PUSH4 0x38D52E0F EQ PUSH2 0x335 JUMPI DUP1 PUSH4 0x402D267D EQ PUSH2 0x353 JUMPI PUSH2 0x1DA JUMP JUMPDEST DUP1 PUSH4 0x95EA7B3 GT PUSH2 0x1B8 JUMPI DUP1 PUSH4 0x95EA7B3 EQ PUSH2 0x24B JUMPI DUP1 PUSH4 0xA28A477 EQ PUSH2 0x27B JUMPI DUP1 PUSH4 0x18160DDD EQ PUSH2 0x2AB JUMPI DUP1 PUSH4 0x23B872DD EQ PUSH2 0x2C9 JUMPI PUSH2 0x1DA JUMP JUMPDEST DUP1 PUSH4 0x1E1D114 EQ PUSH2 0x1DF JUMPI DUP1 PUSH4 0x6FDDE03 EQ PUSH2 0x1FD JUMPI DUP1 PUSH4 0x7A2D13A EQ PUSH2 0x21B JUMPI JUMPDEST PUSH1 0x0 DUP1 REVERT JUMPDEST PUSH2 0x1E7 PUSH2 0x6C9 JUMP JUMPDEST PUSH1 0x40 MLOAD PUSH2 0x1F4 SWAP2 SWAP1 PUSH2 0x257B JUMP JUMPDEST PUSH1 0x40 MLOAD DUP1 SWAP2 SUB SWAP1 RETURN JUMPDEST PUSH2 0x205 PUSH2 0x779 JUMP JUMPDEST PUSH1 0x40 MLOAD PUSH2 0x212 SWAP2 SWAP1 PUSH2 0x2499 JUMP JUMPDEST PUSH1 0x40 MLOAD DUP1 SWAP2 SUB SWAP1 RETURN JUMPDEST PUSH2 0x235 PUSH1 0x4 DUP1 CALLDATASIZE SUB DUP2 ADD SWAP1 PUSH2 0x230 SWAP2 SWAP1 PUSH2 0x1FDB JUMP JUMPDEST PUSH2 0x807 JUMP JUMPDEST PUSH1 0x40 MLOAD PUSH2 0x242 SWAP2 SWAP1 PUSH2 0x257B JUMP JUMPDEST PUSH1 0x40 MLOAD DUP1 SWAP2 SUB SWAP1 RETURN JUMPDEST PUSH2 0x265 PUSH1 0x4 DUP1 CALLDATASIZE SUB DUP2 ADD SWAP1 PUSH2 0x260 SWAP2 SWAP1 PUSH2 0x1F9B JUMP JUMPDEST PUSH2 0x842 JUMP JUMPDEST PUSH1 0x40 MLOAD PUSH2 0x272 SWAP2 SWAP1 PUSH2 0x234F JUMP JUMPDEST PUSH1 0x40 MLOAD DUP1 SWAP2 SUB SWAP1 RETURN JUMPDEST PUSH2 0x295 PUSH1 0x4 DUP1 CALLDATASIZE SUB DUP2 ADD SWAP1 PUSH2 0x290 SWAP2 SWAP1 PUSH2 0x1FDB JUMP JUMPDEST PUSH2 0x934 JUMP JUMPDEST PUSH1 0x40 MLOAD PUSH2 0x2A2 SWAP2 SWAP1 PUSH2 0x257B JUMP JUMPDEST PUSH1 0x40 MLOAD DUP1 SWAP2 SUB SWAP1 RETURN JUMPDEST PUSH2 0x2B3 PUSH2 0x96F JUMP JUMPDEST PUSH1 0x40 MLOAD PUSH2 0x2C0 SWAP2 SWAP1 PUSH2 0x257B JUMP JUMPDEST PUSH1 0x40 MLOAD DUP1 SWAP2 SUB SWAP1 RETURN JUMPDEST PUSH2 0x2E3 PUSH1 0x4 DUP1 CALLDATASIZE SUB DUP2 ADD SWAP1 PUSH2 0x2DE SWAP2 SWAP1 PUSH2 0x1EA6 JUMP JUMPDEST PUSH2 0x975 JUMP JUMPDEST PUSH1 0x40 MLOAD PUSH2 0x2F0 SWAP2 SWAP1 PUSH2 0x234F JUMP JUMPDEST PUSH1 0x40 MLOAD DUP1 SWAP2 SUB SWAP1 RETURN JUMPDEST PUSH2 0x301 PUSH2 0xBBF JUMP JUMPDEST PUSH1 0x40 MLOAD PUSH2 0x30E SWAP2 SWAP1 PUSH2 0x25BF JUMP JUMPDEST PUSH1 0x40 MLOAD DUP1 SWAP2 SUB SWAP1 RETURN JUMPDEST PUSH2 0x31F PUSH2 0xBE3 JUMP JUMPDEST PUSH1 0x40 MLOAD PUSH2 0x32C SWAP2 SWAP1 PUSH2 0x236A JUMP JUMPDEST PUSH1 0x40 MLOAD DUP1 SWAP2 SUB SWAP1 RETURN JUMPDEST PUSH2 0x33D PUSH2 0xC40 JUMP JUMPDEST PUSH1 0x40 MLOAD PUSH2 0x34A SWAP2 SWAP1 PUSH2 0x247E JUMP JUMPDEST PUSH1 0x40 MLOAD DUP1 SWAP2 SUB SWAP1 RETURN JUMPDEST PUSH2 0x36D PUSH1 0x4 DUP1 CALLDATASIZE SUB DUP2 ADD SWAP1 PUSH2 0x368 SWAP2 SWAP1 PUSH2 0x1E39 JUMP JUMPDEST PUSH2 0xC64 JUMP JUMPDEST PUSH1 0x40 MLOAD PUSH2 0x37A SWAP2 SWAP1 PUSH2 0x257B JUMP JUMPDEST PUSH1 0x40 MLOAD DUP1 SWAP2 SUB SWAP1 RETURN JUMPDEST PUSH2 0x39D PUSH1 0x4 DUP1 CALLDATASIZE SUB DUP2 ADD SWAP1 PUSH2 0x398 SWAP2 SWAP1 PUSH2 0x1FDB JUMP JUMPDEST PUSH2 0xC8E JUMP JUMPDEST PUSH1 0x40 MLOAD PUSH2 0x3AA SWAP2 SWAP1 PUSH2 0x257B JUMP JUMPDEST PUSH1 0x40 MLOAD DUP1 SWAP2 SUB SWAP1 RETURN JUMPDEST PUSH2 0x3CD PUSH1 0x4 DUP1 CALLDATASIZE SUB DUP2 ADD SWAP1 PUSH2 0x3C8 SWAP2 SWAP1 PUSH2 0x2035 JUMP JUMPDEST PUSH2 0xCA0 JUMP JUMPDEST PUSH1 0x40 MLOAD PUSH2 0x3DA SWAP2 SWAP1 PUSH2 0x257B JUMP JUMPDEST PUSH1 0x40 MLOAD DUP1 SWAP2 SUB SWAP1 RETURN JUMPDEST PUSH2 0x3FD PUSH1 0x4 DUP1 CALLDATASIZE SUB DUP2 ADD SWAP1 PUSH2 0x3F8 SWAP2 SWAP1 PUSH2 0x1E39 JUMP JUMPDEST PUSH2 0xDBE JUMP JUMPDEST PUSH1 0x40 MLOAD PUSH2 0x40A SWAP2 SWAP1 PUSH2 0x257B JUMP JUMPDEST PUSH1 0x40 MLOAD DUP1 SWAP2 SUB SWAP1 RETURN JUMPDEST PUSH2 0x42D PUSH1 0x4 DUP1 CALLDATASIZE SUB DUP2 ADD SWAP1 PUSH2 0x428 SWAP2 SWAP1 PUSH2 0x1E39 JUMP JUMPDEST PUSH2 0xDD6 JUMP JUMPDEST PUSH1 0x40 MLOAD PUSH2 0x43A SWAP2 SWAP1 PUSH2 0x257B JUMP JUMPDEST PUSH1 0x40 MLOAD DUP1 SWAP2 SUB SWAP1 RETURN JUMPDEST PUSH2 0x45D PUSH1 0x4 DUP1 CALLDATASIZE SUB DUP2 ADD SWAP1 PUSH2 0x458 SWAP2 SWAP1 PUSH2 0x2035 JUMP JUMPDEST PUSH2 0xDEE JUMP JUMPDEST PUSH1 0x40 MLOAD PUSH2 0x46A SWAP2 SWAP1 PUSH2 0x257B JUMP JUMPDEST PUSH1 0x40 MLOAD DUP1 SWAP2 SUB SWAP1 RETURN JUMPDEST PUSH2 0x47B PUSH2 0xEC9 JUMP JUMPDEST PUSH1 0x40 MLOAD PUSH2 0x488 SWAP2 SWAP1 PUSH2 0x2499 JUMP JUMPDEST PUSH1 0x40 MLOAD DUP1 SWAP2 SUB SWAP1 RETURN JUMPDEST PUSH2 0x4AB PUSH1 0x4 DUP1 CALLDATASIZE SUB DUP2 ADD SWAP1 PUSH2 0x4A6 SWAP2 SWAP1 PUSH2 0x1F9B JUMP JUMPDEST PUSH2 0xF57 JUMP JUMPDEST PUSH1 0x40 MLOAD PUSH2 0x4B8 SWAP2 SWAP1 PUSH2 0x234F JUMP JUMPDEST PUSH1 0x40 MLOAD DUP1 SWAP2 SUB SWAP1 RETURN JUMPDEST PUSH2 0x4DB PUSH1 0x4 DUP1 CALLDATASIZE SUB DUP2 ADD SWAP1 PUSH2 0x4D6 SWAP2 SWAP1 PUSH2 0x1FDB JUMP JUMPDEST PUSH2 0x106B JUMP JUMPDEST PUSH1 0x40 MLOAD PUSH2 0x4E8 SWAP2 SWAP1 PUSH2 0x257B JUMP JUMPDEST PUSH1 0x40 MLOAD DUP1 SWAP2 SUB SWAP1 RETURN JUMPDEST PUSH2 0x50B PUSH1 0x4 DUP1 CALLDATASIZE SUB DUP2 ADD SWAP1 PUSH2 0x506 SWAP2 SWAP1 PUSH2 0x2075 JUMP JUMPDEST PUSH2 0x10A6 JUMP JUMPDEST PUSH1 0x40 MLOAD PUSH2 0x518 SWAP2 SWAP1 PUSH2 0x257B JUMP JUMPDEST PUSH1 0x40 MLOAD DUP1 SWAP2 SUB SWAP1 RETURN JUMPDEST PUSH2 0x53B PUSH1 0x4 DUP1 CALLDATASIZE SUB DUP2 ADD SWAP1 PUSH2 0x536 SWAP2 SWAP1 PUSH2 0x2075 JUMP JUMPDEST PUSH2 0x1301 JUMP JUMPDEST PUSH1 0x40 MLOAD PUSH2 0x548 SWAP2 SWAP1 PUSH2 0x257B JUMP JUMPDEST PUSH1 0x40 MLOAD DUP1 SWAP2 SUB SWAP1 RETURN JUMPDEST PUSH2 0x559 PUSH2 0x15A0 JUMP JUMPDEST PUSH1 0x40 MLOAD PUSH2 0x566 SWAP2 SWAP1 PUSH2 0x257B JUMP JUMPDEST PUSH1 0x40 MLOAD DUP1 SWAP2 SUB SWAP1 RETURN JUMPDEST PUSH2 0x589 PUSH1 0x4 DUP1 CALLDATASIZE SUB DUP2 ADD SWAP1 PUSH2 0x584 SWAP2 SWAP1 PUSH2 0x1E39 JUMP JUMPDEST PUSH2 0x15A6 JUMP JUMPDEST PUSH1 0x40 MLOAD PUSH2 0x596 SWAP2 SWAP1 PUSH2 0x257B JUMP JUMPDEST PUSH1 0x40 MLOAD DUP1 SWAP2 SUB SWAP1 RETURN JUMPDEST PUSH2 0x5B9 PUSH1 0x4 DUP1 CALLDATASIZE SUB DUP2 ADD SWAP1 PUSH2 0x5B4 SWAP2 SWAP1 PUSH2 0x1FDB JUMP JUMPDEST PUSH2 0x15D0 JUMP JUMPDEST PUSH1 0x40 MLOAD PUSH2 0x5C6 SWAP2 SWAP1 PUSH2 0x257B JUMP JUMPDEST PUSH1 0x40 MLOAD DUP1 SWAP2 SUB SWAP1 RETURN JUMPDEST PUSH2 0x5E9 PUSH1 0x4 DUP1 CALLDATASIZE SUB DUP2 ADD SWAP1 PUSH2 0x5E4 SWAP2 SWAP1 PUSH2 0x1E39 JUMP JUMPDEST PUSH2 0x160B JUMP JUMPDEST PUSH1 0x40 MLOAD PUSH2 0x5F6 SWAP2 SWAP1 PUSH2 0x257B JUMP JUMPDEST PUSH1 0x40 MLOAD DUP1 SWAP2 SUB SWAP1 RETURN JUMPDEST PUSH2 0x619 PUSH1 0x4 DUP1 CALLDATASIZE SUB DUP2 ADD SWAP1 PUSH2 0x614 SWAP2 SWAP1 PUSH2 0x1EF9 JUMP JUMPDEST PUSH2 0x165C JUMP JUMPDEST STOP JUMPDEST PUSH2 0x635 PUSH1 0x4 DUP1 CALLDATASIZE SUB DUP2 ADD SWAP1 PUSH2 0x630 SWAP2 SWAP1 PUSH2 0x1E39 JUMP JUMPDEST PUSH2 0x1955 JUMP JUMPDEST PUSH1 0x40 MLOAD PUSH2 0x642 SWAP2 SWAP1 PUSH2 0x257B JUMP JUMPDEST PUSH1 0x40 MLOAD DUP1 SWAP2 SUB SWAP1 RETURN JUMPDEST PUSH2 0x665 PUSH1 0x4 DUP1 CALLDATASIZE SUB DUP2 ADD SWAP1 PUSH2 0x660 SWAP2 SWAP1 PUSH2 0x1E66 JUMP JUMPDEST PUSH2 0x199E JUMP JUMPDEST PUSH1 0x40 MLOAD PUSH2 0x672 SWAP2 SWAP1 PUSH2 0x257B JUMP JUMPDEST PUSH1 0x40 MLOAD DUP1 SWAP2 SUB SWAP1 RETURN JUMPDEST PUSH2 0x695 PUSH1 0x4 DUP1 CALLDATASIZE SUB DUP2 ADD SWAP1 PUSH2 0x690 SWAP2 SWAP1 PUSH2 0x1FDB JUMP JUMPDEST PUSH2 0x19C3 JUMP JUMPDEST PUSH1 0x40 MLOAD PUSH2 0x6A2 SWAP2 SWAP1 PUSH2 0x257B JUMP JUMPDEST PUSH1 0x40 MLOAD DUP1 SWAP2 SUB SWAP1 RETURN JUMPDEST PUSH2 0x6B3 PUSH2 0x19D5 JUMP JUMPDEST PUSH1 0x40 MLOAD PUSH2 0x6C0 SWAP2 SWAP1 PUSH2 0x257B JUMP JUMPDEST PUSH1 0x40 MLOAD DUP1 SWAP2 SUB SWAP1 RETURN JUMPDEST PUSH1 0x0 PUSH32 0x0 PUSH20 0xFFFFFFFFFFFFFFFFFFFFFFFFFFFFFFFFFFFFFFFF AND PUSH4 0x70A08231 ADDRESS PUSH1 0x40 MLOAD DUP3 PUSH4 0xFFFFFFFF AND PUSH1 0xE0 SHL DUP2 MSTORE PUSH1 0x4 ADD PUSH2 0x724 SWAP2 SWAP1 PUSH2 0x2334 JUMP JUMPDEST PUSH1 0x20 PUSH1 0x40 MLOAD DUP1 DUP4 SUB DUP2 DUP7 DUP1 EXTCODESIZE ISZERO DUP1 ISZERO PUSH2 0x73C JUMPI PUSH1 0x0 DUP1 REVERT JUMPDEST POP GAS STATICCALL ISZERO DUP1 ISZERO PUSH2 0x750 JUMPI RETURNDATASIZE PUSH1 0x0 DUP1 RETURNDATACOPY RETURNDATASIZE PUSH1 0x0 REVERT JUMPDEST POP POP POP POP PUSH1 0x40 MLOAD RETURNDATASIZE PUSH1 0x1F NOT PUSH1 0x1F DUP3 ADD AND DUP3 ADD DUP1 PUSH1 0x40 MSTORE POP DUP2 ADD SWAP1 PUSH2 0x774 SWAP2 SWAP1 PUSH2 0x2008 JUMP JUMPDEST SWAP1 POP SWAP1 JUMP JUMPDEST PUSH1 0x0 DUP1 SLOAD PUSH2 0x786 SWAP1 PUSH2 0x2773 JUMP JUMPDEST DUP1 PUSH1 0x1F ADD PUSH1 0x20 DUP1 SWAP2 DIV MUL PUSH1 0x20 ADD PUSH1 0x40 MLOAD SWAP1 DUP2 ADD PUSH1 0x40 MSTORE DUP1 SWAP3 SWAP2 SWAP1 DUP2 DUP2 MSTORE PUSH1 0x20 ADD DUP3 DUP1 SLOAD PUSH2 0x7B2 SWAP1 PUSH2 0x2773 JUMP JUMPDEST DUP1 ISZERO PUSH2 0x7FF JUMPI DUP1 PUSH1 0x1F LT PUSH2 0x7D4 JUMPI PUSH2 0x100 DUP1 DUP4 SLOAD DIV MUL DUP4 MSTORE SWAP2 PUSH1 0x20 ADD SWAP2 PUSH2 0x7FF JUMP JUMPDEST DUP3 ADD SWAP2 SWAP1 PUSH1 0x0 MSTORE PUSH1 0x20 PUSH1 0x0 KECCAK256 SWAP1 JUMPDEST DUP2 SLOAD DUP2 MSTORE SWAP1 PUSH1 0x1 ADD SWAP1 PUSH1 0x20 ADD DUP1 DUP4 GT PUSH2 0x7E2 JUMPI DUP3 SWAP1 SUB PUSH1 0x1F AND DUP3 ADD SWAP2 JUMPDEST POP POP POP POP POP DUP2 JUMP JUMPDEST PUSH1 0x0 DUP1 PUSH1 0x2 SLOAD SWAP1 POP PUSH1 0x0 DUP2 EQ PUSH2 0x838 JUMPI PUSH2 0x833 PUSH2 0x822 PUSH2 0x6C9 JUMP JUMPDEST DUP3 DUP6 PUSH2 0x19DB SWAP1 SWAP3 SWAP2 SWAP1 PUSH4 0xFFFFFFFF AND JUMP JUMPDEST PUSH2 0x83A JUMP JUMPDEST DUP3 JUMPDEST SWAP2 POP POP SWAP2 SWAP1 POP JUMP JUMPDEST PUSH1 0x0 DUP2 PUSH1 0x4 PUSH1 0x0 CALLER PUSH20 0xFFFFFFFFFFFFFFFFFFFFFFFFFFFFFFFFFFFFFFFF AND PUSH20 0xFFFFFFFFFFFFFFFFFFFFFFFFFFFFFFFFFFFFFFFF AND DUP2 MSTORE PUSH1 0x20 ADD SWAP1 DUP2 MSTORE PUSH1 0x20 ADD PUSH1 0x0 KECCAK256 PUSH1 0x0 DUP6 PUSH20 0xFFFFFFFFFFFFFFFFFFFFFFFFFFFFFFFFFFFFFFFF AND PUSH20 0xFFFFFFFFFFFFFFFFFFFFFFFFFFFFFFFFFFFFFFFF AND DUP2 MSTORE PUSH1 0x20 ADD SWAP1 DUP2 MSTORE PUSH1 0x20 ADD PUSH1 0x0 KECCAK256 DUP2 SWAP1 SSTORE POP DUP3 PUSH20 0xFFFFFFFFFFFFFFFFFFFFFFFFFFFFFFFFFFFFFFFF AND CALLER PUSH20 0xFFFFFFFFFFFFFFFFFFFFFFFFFFFFFFFFFFFFFFFF AND PUSH32 0x8C5BE1E5EBEC7D5BD14F71427D1E84F3DD0314C0F7B2291E5B200AC8C7C3B925 DUP5 PUSH1 0x40 MLOAD PUSH2 0x922 SWAP2 SWAP1 PUSH2 0x257B JUMP JUMPDEST PUSH1 0x40 MLOAD DUP1 SWAP2 SUB SWAP1 LOG3 PUSH1 0x1 SWAP1 POP SWAP3 SWAP2 POP POP JUMP JUMPDEST PUSH1 0x0 DUP1 PUSH1 0x2 SLOAD SWAP1 POP PUSH1 0x0 DUP2 EQ PUSH2 0x965 JUMPI PUSH2 0x960 DUP2 PUSH2 0x950 PUSH2 0x6C9 JUMP JUMPDEST DUP6 PUSH2 0x1A03 SWAP1 SWAP3 SWAP2 SWAP1 PUSH4 0xFFFFFFFF AND JUMP JUMPDEST PUSH2 0x967 JUMP JUMPDEST DUP3 JUMPDEST SWAP2 POP POP SWAP2 SWAP1 POP JUMP JUMPDEST PUSH1 0x2 SLOAD DUP2 JUMP JUMPDEST PUSH1 0x0 DUP1 PUSH1 0x4 PUSH1 0x0 DUP7 PUSH20 0xFFFFFFFFFFFFFFFFFFFFFFFFFFFFFFFFFFFFFFFF AND PUSH20 0xFFFFFFFFFFFFFFFFFFFFFFFFFFFFFFFFFFFFFFFF AND DUP2 MSTORE PUSH1 0x20 ADD SWAP1 DUP2 MSTORE PUSH1 0x20 ADD PUSH1 0x0 KECCAK256 PUSH1 0x0 CALLER PUSH20 0xFFFFFFFFFFFFFFFFFFFFFFFFFFFFFFFFFFFFFFFF AND PUSH20 0xFFFFFFFFFFFFFFFFFFFFFFFFFFFFFFFFFFFFFFFF AND DUP2 MSTORE PUSH1 0x20 ADD SWAP1 DUP2 MSTORE PUSH1 0x20 ADD PUSH1 0x0 KECCAK256 SLOAD SWAP1 POP PUSH32 0xFFFFFFFFFFFFFFFFFFFFFFFFFFFFFFFFFFFFFFFFFFFFFFFFFFFFFFFFFFFFFFFF DUP2 EQ PUSH2 0xAAB JUMPI DUP3 DUP2 PUSH2 0xA2A SWAP2 SWAP1 PUSH2 0x2677 JUMP JUMPDEST PUSH1 0x4 PUSH1 0x0 DUP8 PUSH20 0xFFFFFFFFFFFFFFFFFFFFFFFFFFFFFFFFFFFFFFFF AND PUSH20 0xFFFFFFFFFFFFFFFFFFFFFFFFFFFFFFFFFFFFFFFF AND DUP2 MSTORE PUSH1 0x20 ADD SWAP1 DUP2 MSTORE PUSH1 0x20 ADD PUSH1 0x0 KECCAK256 PUSH1 0x0 CALLER PUSH20 0xFFFFFFFFFFFFFFFFFFFFFFFFFFFFFFFFFFFFFFFF AND PUSH20 0xFFFFFFFFFFFFFFFFFFFFFFFFFFFFFFFFFFFFFFFF AND DUP2 MSTORE PUSH1 0x20 ADD SWAP1 DUP2 MSTORE PUSH1 0x20 ADD PUSH1 0x0 KECCAK256 DUP2 SWAP1 SSTORE POP JUMPDEST DUP3 PUSH1 0x3 PUSH1 0x0 DUP8 PUSH20 0xFFFFFFFFFFFFFFFFFFFFFFFFFFFFFFFFFFFFFFFF AND PUSH20 0xFFFFFFFFFFFFFFFFFFFFFFFFFFFFFFFFFFFFFFFF AND DUP2 MSTORE PUSH1 0x20 ADD SWAP1 DUP2 MSTORE PUSH1 0x20 ADD PUSH1 0x0 KECCAK256 PUSH1 0x0 DUP3 DUP3 SLOAD PUSH2 0xAFA SWAP2 SWAP1 PUSH2 0x2677 JUMP JUMPDEST SWAP3 POP POP DUP2 SWAP1 SSTORE POP DUP3 PUSH1 0x3 PUSH1 0x0 DUP7 PUSH20 0xFFFFFFFFFFFFFFFFFFFFFFFFFFFFFFFFFFFFFFFF AND PUSH20 0xFFFFFFFFFFFFFFFFFFFFFFFFFFFFFFFFFFFFFFFF AND DUP2 MSTORE PUSH1 0x20 ADD SWAP1 DUP2 MSTORE PUSH1 0x20 ADD PUSH1 0x0 KECCAK256 PUSH1 0x0 DUP3 DUP3 SLOAD ADD SWAP3 POP POP DUP2 SWAP1 SSTORE POP DUP4 PUSH20 0xFFFFFFFFFFFFFFFFFFFFFFFFFFFFFFFFFFFFFFFF AND DUP6 PUSH20 0xFFFFFFFFFFFFFFFFFFFFFFFFFFFFFFFFFFFFFFFF AND PUSH32 0xDDF252AD1BE2C89B69C2B068FC378DAA952BA7F163C4A11628F55A4DF523B3EF DUP6 PUSH1 0x40 MLOAD PUSH2 0xBAB SWAP2 SWAP1 PUSH2 0x257B JUMP JUMPDEST PUSH1 0x40 MLOAD DUP1 SWAP2 SUB SWAP1 LOG3 PUSH1 0x1 SWAP2 POP POP SWAP4 SWAP3 POP POP POP JUMP JUMPDEST PUSH32 0x0 DUP2 JUMP JUMPDEST PUSH1 0x0 PUSH32 0x0 CHAINID EQ PUSH2 0xC19 JUMPI PUSH2 0xC14 PUSH2 0x1A35 JUMP JUMPDEST PUSH2 0xC3B JUMP JUMPDEST PUSH32 0x0 JUMPDEST SWAP1 POP SWAP1 JUMP JUMPDEST PUSH32 0x0 DUP2 JUMP JUMPDEST PUSH1 0x0 PUSH32 0xFFFFFFFFFFFFFFFFFFFFFFFFFFFFFFFFFFFFFFFFFFFFFFFFFFFFFFFFFFFFFFFF SWAP1 POP SWAP2 SWAP1 POP JUMP JUMPDEST PUSH1 0x0 PUSH2 0xC99 DUP3 PUSH2 0x807 JUMP JUMPDEST SWAP1 POP SWAP2 SWAP1 POP JUMP JUMPDEST PUSH1 0x0 DUP1 PUSH2 0xCAC DUP5 PUSH2 0x19C3 JUMP JUMPDEST SWAP2 POP DUP2 EQ ISZERO PUSH2 0xCF0 JUMPI PUSH1 0x40 MLOAD PUSH32 0x8C379A000000000000000000000000000000000000000000000000000000000 DUP2 MSTORE PUSH1 0x4 ADD PUSH2 0xCE7 SWAP1 PUSH2 0x24BB JUMP JUMPDEST PUSH1 0x40 MLOAD DUP1 SWAP2 SUB SWAP1 REVERT JUMPDEST PUSH2 0xD3D CALLER ADDRESS DUP6 PUSH32 0x0 PUSH20 0xFFFFFFFFFFFFFFFFFFFFFFFFFFFFFFFFFFFFFFFF AND PUSH2 0x1AC1 SWAP1 SWAP4 SWAP3 SWAP2 SWAP1 PUSH4 0xFFFFFFFF AND JUMP JUMPDEST PUSH2 0xD47 DUP3 DUP3 PUSH2 0x1B60 JUMP JUMPDEST DUP2 PUSH20 0xFFFFFFFFFFFFFFFFFFFFFFFFFFFFFFFFFFFFFFFF AND CALLER PUSH20 0xFFFFFFFFFFFFFFFFFFFFFFFFFFFFFFFFFFFFFFFF AND PUSH32 0xDCBC1C05240F31FF3AD067EF1EE35CE4997762752E3A095284754544F4C709D7 DUP6 DUP5 PUSH1 0x40 MLOAD PUSH2 0xDA6 SWAP3 SWAP2 SWAP1 PUSH2 0x2596 JUMP JUMPDEST PUSH1 0x40 MLOAD DUP1 SWAP2 SUB SWAP1 LOG3 PUSH2 0xDB8 DUP4 DUP3 PUSH2 0x1C30 JUMP JUMPDEST SWAP3 SWAP2 POP POP JUMP JUMPDEST PUSH1 0x3 PUSH1 0x20 MSTORE DUP1 PUSH1 0x0 MSTORE PUSH1 0x40 PUSH1 0x0 KECCAK256 PUSH1 0x0 SWAP2 POP SWAP1 POP SLOAD DUP2 JUMP JUMPDEST PUSH1 0x5 PUSH1 0x20 MSTORE DUP1 PUSH1 0x0 MSTORE PUSH1 0x40 PUSH1 0x0 KECCAK256 PUSH1 0x0 SWAP2 POP SWAP1 POP SLOAD DUP2 JUMP JUMPDEST PUSH1 0x0 PUSH2 0xDF9 DUP4 PUSH2 0x106B JUMP JUMPDEST SWAP1 POP PUSH2 0xE48 CALLER ADDRESS DUP4 PUSH32 0x0 PUSH20 0xFFFFFFFFFFFFFFFFFFFFFFFFFFFFFFFFFFFFFFFF AND PUSH2 0x1AC1 SWAP1 SWAP4 SWAP3 SWAP2 SWAP1 PUSH4 0xFFFFFFFF AND JUMP JUMPDEST PUSH2 0xE52 DUP3 DUP5 PUSH2 0x1B60 JUMP JUMPDEST DUP2 PUSH20 0xFFFFFFFFFFFFFFFFFFFFFFFFFFFFFFFFFFFFFFFF AND CALLER PUSH20 0xFFFFFFFFFFFFFFFFFFFFFFFFFFFFFFFFFFFFFFFF AND PUSH32 0xDCBC1C05240F31FF3AD067EF1EE35CE4997762752E3A095284754544F4C709D7 DUP4 DUP7 PUSH1 0x40 MLOAD PUSH2 0xEB1 SWAP3 SWAP2 SWAP1 PUSH2 0x2596 JUMP JUMPDEST PUSH1 0x40 MLOAD DUP1 SWAP2 SUB SWAP1 LOG3 PUSH2 0xEC3 DUP2 DUP5 PUSH2 0x1C30 JUMP JUMPDEST SWAP3 SWAP2 POP POP JUMP JUMPDEST PUSH1 0x1 DUP1 SLOAD PUSH2 0xED6 SWAP1 PUSH2 0x2773 JUMP JUMPDEST DUP1 PUSH1 0x1F ADD PUSH1 0x20 DUP1 SWAP2 DIV MUL PUSH1 0x20 ADD PUSH1 0x40 MLOAD SWAP1 DUP2 ADD PUSH1 0x40 MSTORE DUP1 SWAP3 SWAP2 SWAP1 DUP2 DUP2 MSTORE PUSH1 0x20 ADD DUP3 DUP1 SLOAD PUSH2 0xF02 SWAP1 PUSH2 0x2773 JUMP JUMPDEST DUP1 ISZERO PUSH2 0xF4F JUMPI DUP1 PUSH1 0x1F LT PUSH2 0xF24 JUMPI PUSH2 0x100 DUP1 DUP4 SLOAD DIV MUL DUP4 MSTORE SWAP2 PUSH1 0x20 ADD SWAP2 PUSH2 0xF4F JUMP JUMPDEST DUP3 ADD SWAP2 SWAP1 PUSH1 0x0 MSTORE PUSH1 0x20 PUSH1 0x0 KECCAK256 SWAP1 JUMPDEST DUP2 SLOAD DUP2 MSTORE SWAP1 PUSH1 0x1 ADD SWAP1 PUSH1 0x20 ADD DUP1 DUP4 GT PUSH2 0xF32 JUMPI DUP3 SWAP1 SUB PUSH1 0x1F AND DUP3 ADD SWAP2 JUMPDEST POP POP POP POP POP DUP2 JUMP JUMPDEST PUSH1 0x0 DUP2 PUSH1 0x3 PUSH1 0x0 CALLER PUSH20 0xFFFFFFFFFFFFFFFFFFFFFFFFFFFFFFFFFFFFFFFF AND PUSH20 0xFFFFFFFFFFFFFFFFFFFFFFFFFFFFFFFFFFFFFFFF AND DUP2 MSTORE PUSH1 0x20 ADD SWAP1 DUP2 MSTORE PUSH1 0x20 ADD PUSH1 0x0 KECCAK256 PUSH1 0x0 DUP3 DUP3 SLOAD PUSH2 0xFA8 SWAP2 SWAP1 PUSH2 0x2677 JUMP JUMPDEST SWAP3 POP POP DUP2 SWAP1 SSTORE POP DUP2 PUSH1 0x3 PUSH1 0x0 DUP6 PUSH20 0xFFFFFFFFFFFFFFFFFFFFFFFFFFFFFFFFFFFFFFFF AND PUSH20 0xFFFFFFFFFFFFFFFFFFFFFFFFFFFFFFFFFFFFFFFF AND DUP2 MSTORE PUSH1 0x20 ADD SWAP1 DUP2 MSTORE PUSH1 0x20 ADD PUSH1 0x0 KECCAK256 PUSH1 0x0 DUP3 DUP3 SLOAD ADD SWAP3 POP POP DUP2 SWAP1 SSTORE POP DUP3 PUSH20 0xFFFFFFFFFFFFFFFFFFFFFFFFFFFFFFFFFFFFFFFF AND CALLER PUSH20 0xFFFFFFFFFFFFFFFFFFFFFFFFFFFFFFFFFFFFFFFF AND PUSH32 0xDDF252AD1BE2C89B69C2B068FC378DAA952BA7F163C4A11628F55A4DF523B3EF DUP5 PUSH1 0x40 MLOAD PUSH2 0x1059 SWAP2 SWAP1 PUSH2 0x257B JUMP JUMPDEST PUSH1 0x40 MLOAD DUP1 SWAP2 SUB SWAP1 LOG3 PUSH1 0x1 SWAP1 POP SWAP3 SWAP2 POP POP JUMP JUMPDEST PUSH1 0x0 DUP1 PUSH1 0x2 SLOAD SWAP1 POP PUSH1 0x0 DUP2 EQ PUSH2 0x109C JUMPI PUSH2 0x1097 PUSH2 0x1086 PUSH2 0x6C9 JUMP JUMPDEST DUP3 DUP6 PUSH2 0x1A03 SWAP1 SWAP3 SWAP2 SWAP1 PUSH4 0xFFFFFFFF AND JUMP JUMPDEST PUSH2 0x109E JUMP JUMPDEST DUP3 JUMPDEST SWAP2 POP POP SWAP2 SWAP1 POP JUMP JUMPDEST PUSH1 0x0 PUSH2 0x10B1 DUP5 PUSH2 0x934 JUMP JUMPDEST SWAP1 POP DUP2 PUSH20 0xFFFFFFFFFFFFFFFFFFFFFFFFFFFFFFFFFFFFFFFF AND CALLER PUSH20 0xFFFFFFFFFFFFFFFFFFFFFFFFFFFFFFFFFFFFFFFF AND EQ PUSH2 0x121D JUMPI PUSH1 0x0 PUSH1 0x4 PUSH1 0x0 DUP5 PUSH20 0xFFFFFFFFFFFFFFFFFFFFFFFFFFFFFFFFFFFFFFFF AND PUSH20 0xFFFFFFFFFFFFFFFFFFFFFFFFFFFFFFFFFFFFFFFF AND DUP2 MSTORE PUSH1 0x20 ADD SWAP1 DUP2 MSTORE PUSH1 0x20 ADD PUSH1 0x0 KECCAK256 PUSH1 0x0 CALLER PUSH20 0xFFFFFFFFFFFFFFFFFFFFFFFFFFFFFFFFFFFFFFFF AND PUSH20 0xFFFFFFFFFFFFFFFFFFFFFFFFFFFFFFFFFFFFFFFF AND DUP2 MSTORE PUSH1 0x20 ADD SWAP1 DUP2 MSTORE PUSH1 0x20 ADD PUSH1 0x0 KECCAK256 SLOAD SWAP1 POP PUSH32 0xFFFFFFFFFFFFFFFFFFFFFFFFFFFFFFFFFFFFFFFFFFFFFFFFFFFFFFFFFFFFFFFF DUP2 EQ PUSH2 0x121B JUMPI DUP2 DUP2 PUSH2 0x119A SWAP2 SWAP1 PUSH2 0x2677 JUMP JUMPDEST PUSH1 0x4 PUSH1 0x0 DUP6 PUSH20 0xFFFFFFFFFFFFFFFFFFFFFFFFFFFFFFFFFFFFFFFF AND PUSH20 0xFFFFFFFFFFFFFFFFFFFFFFFFFFFFFFFFFFFFFFFF AND DUP2 MSTORE PUSH1 0x20 ADD SWAP1 DUP2 MSTORE PUSH1 0x20 ADD PUSH1 0x0 KECCAK256 PUSH1 0x0 CALLER PUSH20 0xFFFFFFFFFFFFFFFFFFFFFFFFFFFFFFFFFFFFFFFF AND PUSH20 0xFFFFFFFFFFFFFFFFFFFFFFFFFFFFFFFFFFFFFFFF AND DUP2 MSTORE PUSH1 0x20 ADD SWAP1 DUP2 MSTORE PUSH1 0x20 ADD PUSH1 0x0 KECCAK256 DUP2 SWAP1 SSTORE POP JUMPDEST POP JUMPDEST PUSH2 0x1227 DUP5 DUP3 PUSH2 0x1C4C JUMP JUMPDEST PUSH2 0x1231 DUP3 DUP3 PUSH2 0x1C68 JUMP JUMPDEST DUP2 PUSH20 0xFFFFFFFFFFFFFFFFFFFFFFFFFFFFFFFFFFFFFFFF AND DUP4 PUSH20 0xFFFFFFFFFFFFFFFFFFFFFFFFFFFFFFFFFFFFFFFF AND CALLER PUSH20 0xFFFFFFFFFFFFFFFFFFFFFFFFFFFFFFFFFFFFFFFF AND PUSH32 0xFBDE797D201C681B91056529119E0B02407C7BB96A4A2C75C01FC9667232C8DB DUP8 DUP6 PUSH1 0x40 MLOAD PUSH2 0x12A7 SWAP3 SWAP2 SWAP1 PUSH2 0x2596 JUMP JUMPDEST PUSH1 0x40 MLOAD DUP1 SWAP2 SUB SWAP1 LOG4 PUSH2 0x12FA DUP4 DUP6 PUSH32 0x0 PUSH20 0xFFFFFFFFFFFFFFFFFFFFFFFFFFFFFFFFFFFFFFFF AND PUSH2 0x1D38 SWAP1 SWAP3 SWAP2 SWAP1 PUSH4 0xFFFFFFFF AND JUMP JUMPDEST SWAP4 SWAP3 POP POP POP JUMP JUMPDEST PUSH1 0x0 DUP2 PUSH20 0xFFFFFFFFFFFFFFFFFFFFFFFFFFFFFFFFFFFFFFFF AND CALLER PUSH20 0xFFFFFFFFFFFFFFFFFFFFFFFFFFFFFFFFFFFFFFFF AND EQ PUSH2 0x146D JUMPI PUSH1 0x0 PUSH1 0x4 PUSH1 0x0 DUP5 PUSH20 0xFFFFFFFFFFFFFFFFFFFFFFFFFFFFFFFFFFFFFFFF AND PUSH20 0xFFFFFFFFFFFFFFFFFFFFFFFFFFFFFFFFFFFFFFFF AND DUP2 MSTORE PUSH1 0x20 ADD SWAP1 DUP2 MSTORE PUSH1 0x20 ADD PUSH1 0x0 KECCAK256 PUSH1 0x0 CALLER PUSH20 0xFFFFFFFFFFFFFFFFFFFFFFFFFFFFFFFFFFFFFFFF AND PUSH20 0xFFFFFFFFFFFFFFFFFFFFFFFFFFFFFFFFFFFFFFFF AND DUP2 MSTORE PUSH1 0x20 ADD SWAP1 DUP2 MSTORE PUSH1 0x20 ADD PUSH1 0x0 KECCAK256 SLOAD SWAP1 POP PUSH32 0xFFFFFFFFFFFFFFFFFFFFFFFFFFFFFFFFFFFFFFFFFFFFFFFFFFFFFFFFFFFFFFFF DUP2 EQ PUSH2 0x146B JUMPI DUP5 DUP2 PUSH2 0x13EA SWAP2 SWAP1 PUSH2 0x2677 JUMP JUMPDEST PUSH1 0x4 PUSH1 0x0 DUP6 PUSH20 0xFFFFFFFFFFFFFFFFFFFFFFFFFFFFFFFFFFFFFFFF AND PUSH20 0xFFFFFFFFFFFFFFFFFFFFFFFFFFFFFFFFFFFFFFFF AND DUP2 MSTORE PUSH1 0x20 ADD SWAP1 DUP2 MSTORE PUSH1 0x20 ADD PUSH1 0x0 KECCAK256 PUSH1 0x0 CALLER PUSH20 0xFFFFFFFFFFFFFFFFFFFFFFFFFFFFFFFFFFFFFFFF AND PUSH20 0xFFFFFFFFFFFFFFFFFFFFFFFFFFFFFFFFFFFFFFFF AND DUP2 MSTORE PUSH1 0x20 ADD SWAP1 DUP2 MSTORE PUSH1 0x20 ADD PUSH1 0x0 KECCAK256 DUP2 SWAP1 SSTORE POP JUMPDEST POP JUMPDEST PUSH1 0x0 PUSH2 0x1478 DUP6 PUSH2 0xC8E JUMP JUMPDEST SWAP2 POP DUP2 EQ ISZERO PUSH2 0x14BC JUMPI PUSH1 0x40 MLOAD PUSH32 0x8C379A000000000000000000000000000000000000000000000000000000000 DUP2 MSTORE PUSH1 0x4 ADD PUSH2 0x14B3 SWAP1 PUSH2 0x253B JUMP JUMPDEST PUSH1 0x40 MLOAD DUP1 SWAP2 SUB SWAP1 REVERT JUMPDEST PUSH2 0x14C6 DUP2 DUP6 PUSH2 0x1C4C JUMP JUMPDEST PUSH2 0x14D0 DUP3 DUP6 PUSH2 0x1C68 JUMP JUMPDEST DUP2 PUSH20 0xFFFFFFFFFFFFFFFFFFFFFFFFFFFFFFFFFFFFFFFF AND DUP4 PUSH20 0xFFFFFFFFFFFFFFFFFFFFFFFFFFFFFFFFFFFFFFFF AND CALLER PUSH20 0xFFFFFFFFFFFFFFFFFFFFFFFFFFFFFFFFFFFFFFFF AND PUSH32 0xFBDE797D201C681B91056529119E0B02407C7BB96A4A2C75C01FC9667232C8DB DUP5 DUP9 PUSH1 0x40 MLOAD PUSH2 0x1546 SWAP3 SWAP2 SWAP1 PUSH2 0x2596 JUMP JUMPDEST PUSH1 0x40 MLOAD DUP1 SWAP2 SUB SWAP1 LOG4 PUSH2 0x1599 DUP4 DUP3 PUSH32 0x0 PUSH20 0xFFFFFFFFFFFFFFFFFFFFFFFFFFFFFFFFFFFFFFFF AND PUSH2 0x1D38 SWAP1 SWAP3 SWAP2 SWAP1 PUSH4 0xFFFFFFFF AND JUMP JUMPDEST SWAP4 SWAP3 POP POP POP JUMP JUMPDEST PUSH1 0x6 SLOAD DUP2 JUMP JUMPDEST PUSH1 0x0 PUSH32 0xFFFFFFFFFFFFFFFFFFFFFFFFFFFFFFFFFFFFFFFFFFFFFFFFFFFFFFFFFFFFFFFF SWAP1 POP SWAP2 SWAP1 POP JUMP JUMPDEST PUSH1 0x0 DUP1 PUSH1 0x2 SLOAD SWAP1 POP PUSH1 0x0 DUP2 EQ PUSH2 0x1601 JUMPI PUSH2 0x15FC DUP2 PUSH2 0x15EC PUSH2 0x6C9 JUMP JUMPDEST DUP6 PUSH2 0x19DB SWAP1 SWAP3 SWAP2 SWAP1 PUSH4 0xFFFFFFFF AND JUMP JUMPDEST PUSH2 0x1603 JUMP JUMPDEST DUP3 JUMPDEST SWAP2 POP POP SWAP2 SWAP1 POP JUMP JUMPDEST PUSH1 0x0 PUSH2 0x1655 PUSH1 0x3 PUSH1 0x0 DUP5 PUSH20 0xFFFFFFFFFFFFFFFFFFFFFFFFFFFFFFFFFFFFFFFF AND PUSH20 0xFFFFFFFFFFFFFFFFFFFFFFFFFFFFFFFFFFFFFFFF AND DUP2 MSTORE PUSH1 0x20 ADD SWAP1 DUP2 MSTORE PUSH1 0x20 ADD PUSH1 0x0 KECCAK256 SLOAD PUSH2 0x807 JUMP JUMPDEST SWAP1 POP SWAP2 SWAP1 POP JUMP JUMPDEST TIMESTAMP DUP5 LT ISZERO PUSH2 0x169F JUMPI PUSH1 0x40 MLOAD PUSH32 0x8C379A000000000000000000000000000000000000000000000000000000000 DUP2 MSTORE PUSH1 0x4 ADD PUSH2 0x1696 SWAP1 PUSH2 0x255B JUMP JUMPDEST PUSH1 0x40 MLOAD DUP1 SWAP2 SUB SWAP1 REVERT JUMPDEST PUSH1 0x0 PUSH1 0x1 PUSH2 0x16AB PUSH2 0xBE3 JUMP JUMPDEST PUSH32 0x6E71EDAE12B1B97F4D1F60370FEF10105FA2FAAE0126114A169C64845D6126C9 DUP11 DUP11 DUP11 PUSH1 0x5 PUSH1 0x0 DUP16 PUSH20 0xFFFFFFFFFFFFFFFFFFFFFFFFFFFFFFFFFFFFFFFF AND PUSH20 0xFFFFFFFFFFFFFFFFFFFFFFFFFFFFFFFFFFFFFFFF AND DUP2 MSTORE PUSH1 0x20 ADD SWAP1 DUP2 MSTORE PUSH1 0x20 ADD PUSH1 0x0 KECCAK256 PUSH1 0x0 DUP2 SLOAD DUP1 SWAP3 SWAP2 SWAP1 PUSH1 0x1 ADD SWAP2 SWAP1 POP SSTORE DUP12 PUSH1 0x40 MLOAD PUSH1 0x20 ADD PUSH2 0x1733 SWAP7 SWAP6 SWAP5 SWAP4 SWAP3 SWAP2 SWAP1 PUSH2 0x2385 JUMP JUMPDEST PUSH1 0x40 MLOAD PUSH1 0x20 DUP2 DUP4 SUB SUB DUP2 MSTORE SWAP1 PUSH1 0x40 MSTORE DUP1 MLOAD SWAP1 PUSH1 0x20 ADD KECCAK256 PUSH1 0x40 MLOAD PUSH1 0x20 ADD PUSH2 0x175A SWAP3 SWAP2 SWAP1 PUSH2 0x22FD JUMP JUMPDEST PUSH1 0x40 MLOAD PUSH1 0x20 DUP2 DUP4 SUB SUB DUP2 MSTORE SWAP1 PUSH1 0x40 MSTORE DUP1 MLOAD SWAP1 PUSH1 0x20 ADD KECCAK256 DUP6 DUP6 DUP6 PUSH1 0x40 MLOAD PUSH1 0x0 DUP2 MSTORE PUSH1 0x20 ADD PUSH1 0x40 MSTORE PUSH1 0x40 MLOAD PUSH2 0x1790 SWAP5 SWAP4 SWAP3 SWAP2 SWAP1 PUSH2 0x2439 JUMP JUMPDEST PUSH1 0x20 PUSH1 0x40 MLOAD PUSH1 0x20 DUP2 SUB SWAP1 DUP1 DUP5 SUB SWAP1 DUP6 GAS STATICCALL ISZERO DUP1 ISZERO PUSH2 0x17B2 JUMPI RETURNDATASIZE PUSH1 0x0 DUP1 RETURNDATACOPY RETURNDATASIZE PUSH1 0x0 REVERT JUMPDEST POP POP POP PUSH1 0x20 PUSH1 0x40 MLOAD SUB MLOAD SWAP1 POP PUSH1 0x0 PUSH20 0xFFFFFFFFFFFFFFFFFFFFFFFFFFFFFFFFFFFFFFFF AND DUP2 PUSH20 0xFFFFFFFFFFFFFFFFFFFFFFFFFFFFFFFFFFFFFFFF AND EQ ISZERO DUP1 ISZERO PUSH2 0x1826 JUMPI POP DUP8 PUSH20 0xFFFFFFFFFFFFFFFFFFFFFFFFFFFFFFFFFFFFFFFF AND DUP2 PUSH20 0xFFFFFFFFFFFFFFFFFFFFFFFFFFFFFFFFFFFFFFFF AND EQ JUMPDEST PUSH2 0x1865 JUMPI PUSH1 0x40 MLOAD PUSH32 0x8C379A000000000000000000000000000000000000000000000000000000000 DUP2 MSTORE PUSH1 0x4 ADD PUSH2 0x185C SWAP1 PUSH2 0x251B JUMP JUMPDEST PUSH1 0x40 MLOAD DUP1 SWAP2 SUB SWAP1 REVERT JUMPDEST DUP6 PUSH1 0x4 PUSH1 0x0 DUP4 PUSH20 0xFFFFFFFFFFFFFFFFFFFFFFFFFFFFFFFFFFFFFFFF AND PUSH20 0xFFFFFFFFFFFFFFFFFFFFFFFFFFFFFFFFFFFFFFFF AND DUP2 MSTORE PUSH1 0x20 ADD SWAP1 DUP2 MSTORE PUSH1 0x20 ADD PUSH1 0x0 KECCAK256 PUSH1 0x0 DUP10 PUSH20 0xFFFFFFFFFFFFFFFFFFFFFFFFFFFFFFFFFFFFFFFF AND PUSH20 0xFFFFFFFFFFFFFFFFFFFFFFFFFFFFFFFFFFFFFFFF AND DUP2 MSTORE PUSH1 0x20 ADD SWAP1 DUP2 MSTORE PUSH1 0x20 ADD PUSH1 0x0 KECCAK256 DUP2 SWAP1 SSTORE POP POP DUP6 PUSH20 0xFFFFFFFFFFFFFFFFFFFFFFFFFFFFFFFFFFFFFFFF AND DUP8 PUSH20 0xFFFFFFFFFFFFFFFFFFFFFFFFFFFFFFFFFFFFFFFF AND PUSH32 0x8C5BE1E5EBEC7D5BD14F71427D1E84F3DD0314C0F7B2291E5B200AC8C7C3B925 DUP8 PUSH1 0x40 MLOAD PUSH2 0x1944 SWAP2 SWAP1 PUSH2 0x257B JUMP JUMPDEST PUSH1 0x40 MLOAD DUP1 SWAP2 SUB SWAP1 LOG3 POP POP POP POP POP POP POP JUMP JUMPDEST PUSH1 0x0 PUSH1 0x3 PUSH1 0x0 DUP4 PUSH20 0xFFFFFFFFFFFFFFFFFFFFFFFFFFFFFFFFFFFFFFFF AND PUSH20 0xFFFFFFFFFFFFFFFFFFFFFFFFFFFFFFFFFFFFFFFF AND DUP2 MSTORE PUSH1 0x20 ADD SWAP1 DUP2 MSTORE PUSH1 0x20 ADD PUSH1 0x0 KECCAK256 SLOAD SWAP1 POP SWAP2 SWAP1 POP JUMP JUMPDEST PUSH1 0x4 PUSH1 0x20 MSTORE DUP2 PUSH1 0x0 MSTORE PUSH1 0x40 PUSH1 0x0 KECCAK256 PUSH1 0x20 MSTORE DUP1 PUSH1 0x0 MSTORE PUSH1 0x40 PUSH1 0x0 KECCAK256 PUSH1 0x0 SWAP2 POP SWAP2 POP POP SLOAD DUP2 JUMP JUMPDEST PUSH1 0x0 PUSH2 0x19CE DUP3 PUSH2 0x15D0 JUMP JUMPDEST SWAP1 POP SWAP2 SWAP1 POP JUMP JUMPDEST PUSH1 0x7 SLOAD DUP2 JUMP JUMPDEST PUSH1 0x0 DUP3 DUP5 MUL SWAP1 POP DUP3 DUP5 DUP3 DIV EQ DUP5 ISZERO OR DUP3 ISZERO ISZERO AND PUSH2 0x19F7 JUMPI PUSH1 0x0 DUP1 REVERT JUMPDEST DUP2 DUP2 DIV SWAP1 POP SWAP4 SWAP3 POP POP POP JUMP JUMPDEST PUSH1 0x0 DUP3 DUP5 MUL SWAP1 POP DUP3 DUP5 DUP3 DIV EQ DUP5 ISZERO OR DUP3 ISZERO ISZERO AND PUSH2 0x1A1F JUMPI PUSH1 0x0 DUP1 REVERT JUMPDEST PUSH1 0x1 DUP3 PUSH1 0x1 DUP4 SUB DIV ADD DUP2 ISZERO ISZERO MUL SWAP1 POP SWAP4 SWAP3 POP POP POP JUMP JUMPDEST PUSH1 0x0 PUSH32 0x8B73C3C69BB8FE3D512ECC4CF759CC79239F7B179B0FFACAA9A75D522B39400F PUSH1 0x0 PUSH1 0x40 MLOAD PUSH2 0x1A67 SWAP2 SWAP1 PUSH2 0x22E6 JUMP JUMPDEST PUSH1 0x40 MLOAD DUP1 SWAP2 SUB SWAP1 KECCAK256 PUSH32 0xC89EFDAA54C0F20C7ADF612882DF0950F5A951637E0307CDCB4C672F298B8BC6 CHAINID ADDRESS PUSH1 0x40 MLOAD PUSH1 0x20 ADD PUSH2 0x1AA6 SWAP6 SWAP5 SWAP4 SWAP3 SWAP2 SWAP1 PUSH2 0x23E6 JUMP JUMPDEST PUSH1 0x40 MLOAD PUSH1 0x20 DUP2 DUP4 SUB SUB DUP2 MSTORE SWAP1 PUSH1 0x40 MSTORE DUP1 MLOAD SWAP1 PUSH1 0x20 ADD KECCAK256 SWAP1 POP SWAP1 JUMP JUMPDEST PUSH1 0x0 PUSH1 0x40 MLOAD PUSH32 0x23B872DD00000000000000000000000000000000000000000000000000000000 DUP2 MSTORE DUP5 PUSH1 0x4 DUP3 ADD MSTORE DUP4 PUSH1 0x24 DUP3 ADD MSTORE DUP3 PUSH1 0x44 DUP3 ADD MSTORE PUSH1 0x20 PUSH1 0x0 PUSH1 0x64 DUP4 PUSH1 0x0 DUP11 GAS CALL RETURNDATASIZE ISZERO PUSH1 0x1F RETURNDATASIZE GT PUSH1 0x1 PUSH1 0x0 MLOAD EQ AND OR AND SWAP2 POP POP DUP1 PUSH2 0x1B59 JUMPI PUSH1 0x40 MLOAD PUSH32 0x8C379A000000000000000000000000000000000000000000000000000000000 DUP2 MSTORE PUSH1 0x4 ADD PUSH2 0x1B50 SWAP1 PUSH2 0x24DB JUMP JUMPDEST PUSH1 0x40 MLOAD DUP1 SWAP2 SUB SWAP1 REVERT JUMPDEST POP POP POP POP POP JUMP JUMPDEST DUP1 PUSH1 0x2 PUSH1 0x0 DUP3 DUP3 SLOAD PUSH2 0x1B72 SWAP2 SWAP1 PUSH2 0x2621 JUMP JUMPDEST SWAP3 POP POP DUP2 SWAP1 SSTORE POP DUP1 PUSH1 0x3 PUSH1 0x0 DUP5 PUSH20 0xFFFFFFFFFFFFFFFFFFFFFFFFFFFFFFFFFFFFFFFF AND PUSH20 0xFFFFFFFFFFFFFFFFFFFFFFFFFFFFFFFFFFFFFFFF AND DUP2 MSTORE PUSH1 0x20 ADD SWAP1 DUP2 MSTORE PUSH1 0x20 ADD PUSH1 0x0 KECCAK256 PUSH1 0x0 DUP3 DUP3 SLOAD ADD SWAP3 POP POP DUP2 SWAP1 SSTORE POP DUP2 PUSH20 0xFFFFFFFFFFFFFFFFFFFFFFFFFFFFFFFFFFFFFFFF AND PUSH1 0x0 PUSH20 0xFFFFFFFFFFFFFFFFFFFFFFFFFFFFFFFFFFFFFFFF AND PUSH32 0xDDF252AD1BE2C89B69C2B068FC378DAA952BA7F163C4A11628F55A4DF523B3EF DUP4 PUSH1 0x40 MLOAD PUSH2 0x1C24 SWAP2 SWAP1 PUSH2 0x257B JUMP JUMPDEST PUSH1 0x40 MLOAD DUP1 SWAP2 SUB SWAP1 LOG3 POP POP JUMP JUMPDEST PUSH1 0x7 PUSH1 0x0 DUP2 SLOAD DUP1 SWAP3 SWAP2 SWAP1 PUSH2 0x1C43 SWAP1 PUSH2 0x27A5 JUMP JUMPDEST SWAP2 SWAP1 POP SSTORE POP POP POP JUMP JUMPDEST PUSH1 0x6 PUSH1 0x0 DUP2 SLOAD DUP1 SWAP3 SWAP2 SWAP1 PUSH2 0x1C5F SWAP1 PUSH2 0x27A5 JUMP JUMPDEST SWAP2 SWAP1 POP SSTORE POP POP POP JUMP JUMPDEST DUP1 PUSH1 0x3 PUSH1 0x0 DUP5 PUSH20 0xFFFFFFFFFFFFFFFFFFFFFFFFFFFFFFFFFFFFFFFF AND PUSH20 0xFFFFFFFFFFFFFFFFFFFFFFFFFFFFFFFFFFFFFFFF AND DUP2 MSTORE PUSH1 0x20 ADD SWAP1 DUP2 MSTORE PUSH1 0x20 ADD PUSH1 0x0 KECCAK256 PUSH1 0x0 DUP3 DUP3 SLOAD PUSH2 0x1CB7 SWAP2 SWAP1 PUSH2 0x2677 JUMP JUMPDEST SWAP3 POP POP DUP2 SWAP1 SSTORE POP DUP1 PUSH1 0x2 PUSH1 0x0 DUP3 DUP3 SLOAD SUB SWAP3 POP POP DUP2 SWAP1 SSTORE POP PUSH1 0x0 PUSH20 0xFFFFFFFFFFFFFFFFFFFFFFFFFFFFFFFFFFFFFFFF AND DUP3 PUSH20 0xFFFFFFFFFFFFFFFFFFFFFFFFFFFFFFFFFFFFFFFF AND PUSH32 0xDDF252AD1BE2C89B69C2B068FC378DAA952BA7F163C4A11628F55A4DF523B3EF DUP4 PUSH1 0x40 MLOAD PUSH2 0x1D2C SWAP2 SWAP1 PUSH2 0x257B JUMP JUMPDEST PUSH1 0x40 MLOAD DUP1 SWAP2 SUB SWAP1 LOG3 POP POP JUMP JUMPDEST PUSH1 0x0 PUSH1 0x40 MLOAD PUSH32 0xA9059CBB00000000000000000000000000000000000000000000000000000000 DUP2 MSTORE DUP4 PUSH1 0x4 DUP3 ADD MSTORE DUP3 PUSH1 0x24 DUP3 ADD MSTORE PUSH1 0x20 PUSH1 0x0 PUSH1 0x44 DUP4 PUSH1 0x0 DUP10 GAS CALL RETURNDATASIZE ISZERO PUSH1 0x1F RETURNDATASIZE GT PUSH1 0x1 PUSH1 0x0 MLOAD EQ AND OR AND SWAP2 POP POP DUP1 PUSH2 0x1DCA JUMPI PUSH1 0x40 MLOAD PUSH32 0x8C379A000000000000000000000000000000000000000000000000000000000 DUP2 MSTORE PUSH1 0x4 ADD PUSH2 0x1DC1 SWAP1 PUSH2 0x24FB JUMP JUMPDEST PUSH1 0x40 MLOAD DUP1 SWAP2 SUB SWAP1 REVERT JUMPDEST POP POP POP POP JUMP JUMPDEST PUSH1 0x0 DUP2 CALLDATALOAD SWAP1 POP PUSH2 0x1DDF DUP2 PUSH2 0x298B JUMP JUMPDEST SWAP3 SWAP2 POP POP JUMP JUMPDEST PUSH1 0x0 DUP2 CALLDATALOAD SWAP1 POP PUSH2 0x1DF4 DUP2 PUSH2 0x29A2 JUMP JUMPDEST SWAP3 SWAP2 POP POP JUMP JUMPDEST PUSH1 0x0 DUP2 CALLDATALOAD SWAP1 POP PUSH2 0x1E09 DUP2 PUSH2 0x29B9 JUMP JUMPDEST SWAP3 SWAP2 POP POP JUMP JUMPDEST PUSH1 0x0 DUP2 MLOAD SWAP1 POP PUSH2 0x1E1E DUP2 PUSH2 0x29B9 JUMP JUMPDEST SWAP3 SWAP2 POP POP JUMP JUMPDEST PUSH1 0x0 DUP2 CALLDATALOAD SWAP1 POP PUSH2 0x1E33 DUP2 PUSH2 0x29D0 JUMP JUMPDEST SWAP3 SWAP2 POP POP JUMP JUMPDEST PUSH1 0x0 PUSH1 0x20 DUP3 DUP5 SUB SLT ISZERO PUSH2 0x1E4F JUMPI PUSH2 0x1E4E PUSH2 0x2856 JUMP JUMPDEST JUMPDEST PUSH1 0x0 PUSH2 0x1E5D DUP5 DUP3 DUP6 ADD PUSH2 0x1DD0 JUMP JUMPDEST SWAP2 POP POP SWAP3 SWAP2 POP POP JUMP JUMPDEST PUSH1 0x0 DUP1 PUSH1 0x40 DUP4 DUP6 SUB SLT ISZERO PUSH2 0x1E7D JUMPI PUSH2 0x1E7C PUSH2 0x2856 JUMP JUMPDEST JUMPDEST PUSH1 0x0 PUSH2 0x1E8B DUP6 DUP3 DUP7 ADD PUSH2 0x1DD0 JUMP JUMPDEST SWAP3 POP POP PUSH1 0x20 PUSH2 0x1E9C DUP6 DUP3 DUP7 ADD PUSH2 0x1DD0 JUMP JUMPDEST SWAP2 POP POP SWAP3 POP SWAP3 SWAP1 POP JUMP JUMPDEST PUSH1 0x0 DUP1 PUSH1 0x0 PUSH1 0x60 DUP5 DUP7 SUB SLT ISZERO PUSH2 0x1EBF JUMPI PUSH2 0x1EBE PUSH2 0x2856 JUMP JUMPDEST JUMPDEST PUSH1 0x0 PUSH2 0x1ECD DUP7 DUP3 DUP8 ADD PUSH2 0x1DD0 JUMP JUMPDEST SWAP4 POP POP PUSH1 0x20 PUSH2 0x1EDE DUP7 DUP3 DUP8 ADD PUSH2 0x1DD0 JUMP JUMPDEST SWAP3 POP POP PUSH1 0x40 PUSH2 0x1EEF DUP7 DUP3 DUP8 ADD PUSH2 0x1DFA JUMP JUMPDEST SWAP2 POP POP SWAP3 POP SWAP3 POP SWAP3 JUMP JUMPDEST PUSH1 0x0 DUP1 PUSH1 0x0 DUP1 PUSH1 0x0 DUP1 PUSH1 0x0 PUSH1 0xE0 DUP9 DUP11 SUB SLT ISZERO PUSH2 0x1F18 JUMPI PUSH2 0x1F17 PUSH2 0x2856 JUMP JUMPDEST JUMPDEST PUSH1 0x0 PUSH2 0x1F26 DUP11 DUP3 DUP12 ADD PUSH2 0x1DD0 JUMP JUMPDEST SWAP8 POP POP PUSH1 0x20 PUSH2 0x1F37 DUP11 DUP3 DUP12 ADD PUSH2 0x1DD0 JUMP JUMPDEST SWAP7 POP POP PUSH1 0x40 PUSH2 0x1F48 DUP11 DUP3 DUP12 ADD PUSH2 0x1DFA JUMP JUMPDEST SWAP6 POP POP PUSH1 0x60 PUSH2 0x1F59 DUP11 DUP3 DUP12 ADD PUSH2 0x1DFA JUMP JUMPDEST SWAP5 POP POP PUSH1 0x80 PUSH2 0x1F6A DUP11 DUP3 DUP12 ADD PUSH2 0x1E24 JUMP JUMPDEST SWAP4 POP POP PUSH1 0xA0 PUSH2 0x1F7B DUP11 DUP3 DUP12 ADD PUSH2 0x1DE5 JUMP JUMPDEST SWAP3 POP POP PUSH1 0xC0 PUSH2 0x1F8C DUP11 DUP3 DUP12 ADD PUSH2 0x1DE5 JUMP JUMPDEST SWAP2 POP POP SWAP3 SWAP6 SWAP9 SWAP2 SWAP5 SWAP8 POP SWAP3 SWAP6 POP JUMP JUMPDEST PUSH1 0x0 DUP1 PUSH1 0x40 DUP4 DUP6 SUB SLT ISZERO PUSH2 0x1FB2 JUMPI PUSH2 0x1FB1 PUSH2 0x2856 JUMP JUMPDEST JUMPDEST PUSH1 0x0 PUSH2 0x1FC0 DUP6 DUP3 DUP7 ADD PUSH2 0x1DD0 JUMP JUMPDEST SWAP3 POP POP PUSH1 0x20 PUSH2 0x1FD1 DUP6 DUP3 DUP7 ADD PUSH2 0x1DFA JUMP JUMPDEST SWAP2 POP POP SWAP3 POP SWAP3 SWAP1 POP JUMP JUMPDEST PUSH1 0x0 PUSH1 0x20 DUP3 DUP5 SUB SLT ISZERO PUSH2 0x1FF1 JUMPI PUSH2 0x1FF0 PUSH2 0x2856 JUMP JUMPDEST JUMPDEST PUSH1 0x0 PUSH2 0x1FFF DUP5 DUP3 DUP6 ADD PUSH2 0x1DFA JUMP JUMPDEST SWAP2 POP POP SWAP3 SWAP2 POP POP JUMP JUMPDEST PUSH1 0x0 PUSH1 0x20 DUP3 DUP5 SUB SLT ISZERO PUSH2 0x201E JUMPI PUSH2 0x201D PUSH2 0x2856 JUMP JUMPDEST JUMPDEST PUSH1 0x0 PUSH2 0x202C DUP5 DUP3 DUP6 ADD PUSH2 0x1E0F JUMP JUMPDEST SWAP2 POP POP SWAP3 SWAP2 POP POP JUMP JUMPDEST PUSH1 0x0 DUP1 PUSH1 0x40 DUP4 DUP6 SUB SLT ISZERO PUSH2 0x204C JUMPI PUSH2 0x204B PUSH2 0x2856 JUMP JUMPDEST JUMPDEST PUSH1 0x0 PUSH2 0x205A DUP6 DUP3 DUP7 ADD PUSH2 0x1DFA JUMP JUMPDEST SWAP3 POP POP PUSH1 0x20 PUSH2 0x206B DUP6 DUP3 DUP7 ADD PUSH2 0x1DD0 JUMP JUMPDEST SWAP2 POP POP SWAP3 POP SWAP3 SWAP1 POP JUMP JUMPDEST PUSH1 0x0 DUP1 PUSH1 0x0 PUSH1 0x60 DUP5 DUP7 SUB SLT ISZERO PUSH2 0x208E JUMPI PUSH2 0x208D PUSH2 0x2856 JUMP JUMPDEST JUMPDEST PUSH1 0x0 PUSH2 0x209C DUP7 DUP3 DUP8 ADD PUSH2 0x1DFA JUMP JUMPDEST SWAP4 POP POP PUSH1 0x20 PUSH2 0x20AD DUP7 DUP3 DUP8 ADD PUSH2 0x1DD0 JUMP JUMPDEST SWAP3 POP POP PUSH1 0x40 PUSH2 0x20BE DUP7 DUP3 DUP8 ADD PUSH2 0x1DD0 JUMP JUMPDEST SWAP2 POP POP SWAP3 POP SWAP3 POP SWAP3 JUMP JUMPDEST PUSH2 0x20D1 DUP2 PUSH2 0x26AB JUMP JUMPDEST DUP3 MSTORE POP POP JUMP JUMPDEST PUSH2 0x20E0 DUP2 PUSH2 0x26BD JUMP JUMPDEST DUP3 MSTORE POP POP JUMP JUMPDEST PUSH2 0x20EF DUP2 PUSH2 0x26C9 JUMP JUMPDEST DUP3 MSTORE POP POP JUMP JUMPDEST PUSH2 0x2106 PUSH2 0x2101 DUP3 PUSH2 0x26C9 JUMP JUMPDEST PUSH2 0x27EE JUMP JUMPDEST DUP3 MSTORE POP POP JUMP JUMPDEST PUSH1 0x0 DUP2 SLOAD PUSH2 0x2119 DUP2 PUSH2 0x2773 JUMP JUMPDEST PUSH2 0x2123 DUP2 DUP7 PUSH2 0x25FA JUMP JUMPDEST SWAP5 POP PUSH1 0x1 DUP3 AND PUSH1 0x0 DUP2 EQ PUSH2 0x213E JUMPI PUSH1 0x1 DUP2 EQ PUSH2 0x214F JUMPI PUSH2 0x2182 JUMP JUMPDEST PUSH1 0xFF NOT DUP4 AND DUP7 MSTORE DUP2 DUP7 ADD SWAP4 POP PUSH2 0x2182 JUMP JUMPDEST PUSH2 0x2158 DUP6 PUSH2 0x25DA JUMP JUMPDEST PUSH1 0x0 JUMPDEST DUP4 DUP2 LT ISZERO PUSH2 0x217A JUMPI DUP2 SLOAD DUP2 DUP10 ADD MSTORE PUSH1 0x1 DUP3 ADD SWAP2 POP PUSH1 0x20 DUP2 ADD SWAP1 POP PUSH2 0x215B JUMP JUMPDEST DUP4 DUP9 ADD SWAP6 POP POP POP JUMPDEST POP POP POP SWAP3 SWAP2 POP POP JUMP JUMPDEST PUSH2 0x2194 DUP2 PUSH2 0x270A JUMP JUMPDEST DUP3 MSTORE POP POP JUMP JUMPDEST PUSH1 0x0 PUSH2 0x21A5 DUP3 PUSH2 0x25EF JUMP JUMPDEST PUSH2 0x21AF DUP2 DUP6 PUSH2 0x2605 JUMP JUMPDEST SWAP4 POP PUSH2 0x21BF DUP2 DUP6 PUSH1 0x20 DUP7 ADD PUSH2 0x2740 JUMP JUMPDEST PUSH2 0x21C8 DUP2 PUSH2 0x285B JUMP JUMPDEST DUP5 ADD SWAP2 POP POP SWAP3 SWAP2 POP POP JUMP JUMPDEST PUSH1 0x0 PUSH2 0x21E0 PUSH1 0xB DUP4 PUSH2 0x2605 JUMP JUMPDEST SWAP2 POP PUSH2 0x21EB DUP3 PUSH2 0x286C JUMP JUMPDEST PUSH1 0x20 DUP3 ADD SWAP1 POP SWAP2 SWAP1 POP JUMP JUMPDEST PUSH1 0x0 PUSH2 0x2203 PUSH1 0x2 DUP4 PUSH2 0x2616 JUMP JUMPDEST SWAP2 POP PUSH2 0x220E DUP3 PUSH2 0x2895 JUMP JUMPDEST PUSH1 0x2 DUP3 ADD SWAP1 POP SWAP2 SWAP1 POP JUMP JUMPDEST PUSH1 0x0 PUSH2 0x2226 PUSH1 0x14 DUP4 PUSH2 0x2605 JUMP JUMPDEST SWAP2 POP PUSH2 0x2231 DUP3 PUSH2 0x28BE JUMP JUMPDEST PUSH1 0x20 DUP3 ADD SWAP1 POP SWAP2 SWAP1 POP JUMP JUMPDEST PUSH1 0x0 PUSH2 0x2249 PUSH1 0xF DUP4 PUSH2 0x2605 JUMP JUMPDEST SWAP2 POP PUSH2 0x2254 DUP3 PUSH2 0x28E7 JUMP JUMPDEST PUSH1 0x20 DUP3 ADD SWAP1 POP SWAP2 SWAP1 POP JUMP JUMPDEST PUSH1 0x0 PUSH2 0x226C PUSH1 0xE DUP4 PUSH2 0x2605 JUMP JUMPDEST SWAP2 POP PUSH2 0x2277 DUP3 PUSH2 0x2910 JUMP JUMPDEST PUSH1 0x20 DUP3 ADD SWAP1 POP SWAP2 SWAP1 POP JUMP JUMPDEST PUSH1 0x0 PUSH2 0x228F PUSH1 0xB DUP4 PUSH2 0x2605 JUMP JUMPDEST SWAP2 POP PUSH2 0x229A DUP3 PUSH2 0x2939 JUMP JUMPDEST PUSH1 0x20 DUP3 ADD SWAP1 POP SWAP2 SWAP1 POP JUMP JUMPDEST PUSH1 0x0 PUSH2 0x22B2 PUSH1 0x17 DUP4 PUSH2 0x2605 JUMP JUMPDEST SWAP2 POP PUSH2 0x22BD DUP3 PUSH2 0x2962 JUMP JUMPDEST PUSH1 0x20 DUP3 ADD SWAP1 POP SWAP2 SWAP1 POP JUMP JUMPDEST PUSH2 0x22D1 DUP2 PUSH2 0x26F3 JUMP JUMPDEST DUP3 MSTORE POP POP JUMP JUMPDEST PUSH2 0x22E0 DUP2 PUSH2 0x26FD JUMP JUMPDEST DUP3 MSTORE POP POP JUMP JUMPDEST PUSH1 0x0 PUSH2 0x22F2 DUP3 DUP5 PUSH2 0x210C JUMP JUMPDEST SWAP2 POP DUP2 SWAP1 POP SWAP3 SWAP2 POP POP JUMP JUMPDEST PUSH1 0x0 PUSH2 0x2308 DUP3 PUSH2 0x21F6 JUMP JUMPDEST SWAP2 POP PUSH2 0x2314 DUP3 DUP6 PUSH2 0x20F5 JUMP JUMPDEST PUSH1 0x20 DUP3 ADD SWAP2 POP PUSH2 0x2324 DUP3 DUP5 PUSH2 0x20F5 JUMP JUMPDEST PUSH1 0x20 DUP3 ADD SWAP2 POP DUP2 SWAP1 POP SWAP4 SWAP3 POP POP POP JUMP JUMPDEST PUSH1 0x0 PUSH1 0x20 DUP3 ADD SWAP1 POP PUSH2 0x2349 PUSH1 0x0 DUP4 ADD DUP5 PUSH2 0x20C8 JUMP JUMPDEST SWAP3 SWAP2 POP POP JUMP JUMPDEST PUSH1 0x0 PUSH1 0x20 DUP3 ADD SWAP1 POP PUSH2 0x2364 PUSH1 0x0 DUP4 ADD DUP5 PUSH2 0x20D7 JUMP JUMPDEST SWAP3 SWAP2 POP POP JUMP JUMPDEST PUSH1 0x0 PUSH1 0x20 DUP3 ADD SWAP1 POP PUSH2 0x237F PUSH1 0x0 DUP4 ADD DUP5 PUSH2 0x20E6 JUMP JUMPDEST SWAP3 SWAP2 POP POP JUMP JUMPDEST PUSH1 0x0 PUSH1 0xC0 DUP3 ADD SWAP1 POP PUSH2 0x239A PUSH1 0x0 DUP4 ADD DUP10 PUSH2 0x20E6 JUMP JUMPDEST PUSH2 0x23A7 PUSH1 0x20 DUP4 ADD DUP9 PUSH2 0x20C8 JUMP JUMPDEST PUSH2 0x23B4 PUSH1 0x40 DUP4 ADD DUP8 PUSH2 0x20C8 JUMP JUMPDEST PUSH2 0x23C1 PUSH1 0x60 DUP4 ADD DUP7 PUSH2 0x22C8 JUMP JUMPDEST PUSH2 0x23CE PUSH1 0x80 DUP4 ADD DUP6 PUSH2 0x22C8 JUMP JUMPDEST PUSH2 0x23DB PUSH1 0xA0 DUP4 ADD DUP5 PUSH2 0x22C8 JUMP JUMPDEST SWAP8 SWAP7 POP POP POP POP POP POP POP JUMP JUMPDEST PUSH1 0x0 PUSH1 0xA0 DUP3 ADD SWAP1 POP PUSH2 0x23FB PUSH1 0x0 DUP4 ADD DUP9 PUSH2 0x20E6 JUMP JUMPDEST PUSH2 0x2408 PUSH1 0x20 DUP4 ADD DUP8 PUSH2 0x20E6 JUMP JUMPDEST PUSH2 0x2415 PUSH1 0x40 DUP4 ADD DUP7 PUSH2 0x20E6 JUMP JUMPDEST PUSH2 0x2422 PUSH1 0x60 DUP4 ADD DUP6 PUSH2 0x22C8 JUMP JUMPDEST PUSH2 0x242F PUSH1 0x80 DUP4 ADD DUP5 PUSH2 0x20C8 JUMP JUMPDEST SWAP7 SWAP6 POP POP POP POP POP POP JUMP JUMPDEST PUSH1 0x0 PUSH1 0x80 DUP3 ADD SWAP1 POP PUSH2 0x244E PUSH1 0x0 DUP4 ADD DUP8 PUSH2 0x20E6 JUMP JUMPDEST PUSH2 0x245B PUSH1 0x20 DUP4 ADD DUP7 PUSH2 0x22D7 JUMP JUMPDEST PUSH2 0x2468 PUSH1 0x40 DUP4 ADD DUP6 PUSH2 0x20E6 JUMP JUMPDEST PUSH2 0x2475 PUSH1 0x60 DUP4 ADD DUP5 PUSH2 0x20E6 JUMP JUMPDEST SWAP6 SWAP5 POP POP POP POP POP JUMP JUMPDEST PUSH1 0x0 PUSH1 0x20 DUP3 ADD SWAP1 POP PUSH2 0x2493 PUSH1 0x0 DUP4 ADD DUP5 PUSH2 0x218B JUMP JUMPDEST SWAP3 SWAP2 POP POP JUMP JUMPDEST PUSH1 0x0 PUSH1 0x20 DUP3 ADD SWAP1 POP DUP2 DUP2 SUB PUSH1 0x0 DUP4 ADD MSTORE PUSH2 0x24B3 DUP2 DUP5 PUSH2 0x219A JUMP JUMPDEST SWAP1 POP SWAP3 SWAP2 POP POP JUMP JUMPDEST PUSH1 0x0 PUSH1 0x20 DUP3 ADD SWAP1 POP DUP2 DUP2 SUB PUSH1 0x0 DUP4 ADD MSTORE PUSH2 0x24D4 DUP2 PUSH2 0x21D3 JUMP JUMPDEST SWAP1 POP SWAP2 SWAP1 POP JUMP JUMPDEST PUSH1 0x0 PUSH1 0x20 DUP3 ADD SWAP1 POP DUP2 DUP2 SUB PUSH1 0x0 DUP4 ADD MSTORE PUSH2 0x24F4 DUP2 PUSH2 0x2219 JUMP JUMPDEST SWAP1 POP SWAP2 SWAP1 POP JUMP JUMPDEST PUSH1 0x0 PUSH1 0x20 DUP3 ADD SWAP1 POP DUP2 DUP2 SUB PUSH1 0x0 DUP4 ADD MSTORE PUSH2 0x2514 DUP2 PUSH2 0x223C JUMP JUMPDEST SWAP1 POP SWAP2 SWAP1 POP JUMP JUMPDEST PUSH1 0x0 PUSH1 0x20 DUP3 ADD SWAP1 POP DUP2 DUP2 SUB PUSH1 0x0 DUP4 ADD MSTORE PUSH2 0x2534 DUP2 PUSH2 0x225F JUMP JUMPDEST SWAP1 POP SWAP2 SWAP1 POP JUMP JUMPDEST PUSH1 0x0 PUSH1 0x20 DUP3 ADD SWAP1 POP DUP2 DUP2 SUB PUSH1 0x0 DUP4 ADD MSTORE PUSH2 0x2554 DUP2 PUSH2 0x2282 JUMP JUMPDEST SWAP1 POP SWAP2 SWAP1 POP JUMP JUMPDEST PUSH1 0x0 PUSH1 0x20 DUP3 ADD SWAP1 POP DUP2 DUP2 SUB PUSH1 0x0 DUP4 ADD MSTORE PUSH2 0x2574 DUP2 PUSH2 0x22A5 JUMP JUMPDEST SWAP1 POP SWAP2 SWAP1 POP JUMP JUMPDEST PUSH1 0x0 PUSH1 0x20 DUP3 ADD SWAP1 POP PUSH2 0x2590 PUSH1 0x0 DUP4 ADD DUP5 PUSH2 0x22C8 JUMP JUMPDEST SWAP3 SWAP2 POP POP JUMP JUMPDEST PUSH1 0x0 PUSH1 0x40 DUP3 ADD SWAP1 POP PUSH2 0x25AB PUSH1 0x0 DUP4 ADD DUP6 PUSH2 0x22C8 JUMP JUMPDEST PUSH2 0x25B8 PUSH1 0x20 DUP4 ADD DUP5 PUSH2 0x22C8 JUMP JUMPDEST SWAP4 SWAP3 POP POP POP JUMP JUMPDEST PUSH1 0x0 PUSH1 0x20 DUP3 ADD SWAP1 POP PUSH2 0x25D4 PUSH1 0x0 DUP4 ADD DUP5 PUSH2 0x22D7 JUMP JUMPDEST SWAP3 SWAP2 POP POP JUMP JUMPDEST PUSH1 0x0 DUP2 SWAP1 POP DUP2 PUSH1 0x0 MSTORE PUSH1 0x20 PUSH1 0x0 KECCAK256 SWAP1 POP SWAP2 SWAP1 POP JUMP JUMPDEST PUSH1 0x0 DUP2 MLOAD SWAP1 POP SWAP2 SWAP1 POP JUMP JUMPDEST PUSH1 0x0 DUP2 SWAP1 POP SWAP3 SWAP2 POP POP JUMP JUMPDEST PUSH1 0x0 DUP3 DUP3 MSTORE PUSH1 0x20 DUP3 ADD SWAP1 POP SWAP3 SWAP2 POP POP JUMP JUMPDEST PUSH1 0x0 DUP2 SWAP1 POP SWAP3 SWAP2 POP POP JUMP JUMPDEST PUSH1 0x0 PUSH2 0x262C DUP3 PUSH2 0x26F3 JUMP JUMPDEST SWAP2 POP PUSH2 0x2637 DUP4 PUSH2 0x26F3 JUMP JUMPDEST SWAP3 POP DUP3 PUSH32 0xFFFFFFFFFFFFFFFFFFFFFFFFFFFFFFFFFFFFFFFFFFFFFFFFFFFFFFFFFFFFFFFF SUB DUP3 GT ISZERO PUSH2 0x266C JUMPI PUSH2 0x266B PUSH2 0x27F8 JUMP JUMPDEST JUMPDEST DUP3 DUP3 ADD SWAP1 POP SWAP3 SWAP2 POP POP JUMP JUMPDEST PUSH1 0x0 PUSH2 0x2682 DUP3 PUSH2 0x26F3 JUMP JUMPDEST SWAP2 POP PUSH2 0x268D DUP4 PUSH2 0x26F3 JUMP JUMPDEST SWAP3 POP DUP3 DUP3 LT ISZERO PUSH2 0x26A0 JUMPI PUSH2 0x269F PUSH2 0x27F8 JUMP JUMPDEST JUMPDEST DUP3 DUP3 SUB SWAP1 POP SWAP3 SWAP2 POP POP JUMP JUMPDEST PUSH1 0x0 PUSH2 0x26B6 DUP3 PUSH2 0x26D3 JUMP JUMPDEST SWAP1 POP SWAP2 SWAP1 POP JUMP JUMPDEST PUSH1 0x0 DUP2 ISZERO ISZERO SWAP1 POP SWAP2 SWAP1 POP JUMP JUMPDEST PUSH1 0x0 DUP2 SWAP1 POP SWAP2 SWAP1 POP JUMP JUMPDEST PUSH1 0x0 PUSH20 0xFFFFFFFFFFFFFFFFFFFFFFFFFFFFFFFFFFFFFFFF DUP3 AND SWAP1 POP SWAP2 SWAP1 POP JUMP JUMPDEST PUSH1 0x0 DUP2 SWAP1 POP SWAP2 SWAP1 POP JUMP JUMPDEST PUSH1 0x0 PUSH1 0xFF DUP3 AND SWAP1 POP SWAP2 SWAP1 POP JUMP JUMPDEST PUSH1 0x0 PUSH2 0x2715 DUP3 PUSH2 0x271C JUMP JUMPDEST SWAP1 POP SWAP2 SWAP1 POP JUMP JUMPDEST PUSH1 0x0 PUSH2 0x2727 DUP3 PUSH2 0x272E JUMP JUMPDEST SWAP1 POP SWAP2 SWAP1 POP JUMP JUMPDEST PUSH1 0x0 PUSH2 0x2739 DUP3 PUSH2 0x26D3 JUMP JUMPDEST SWAP1 POP SWAP2 SWAP1 POP JUMP JUMPDEST PUSH1 0x0 JUMPDEST DUP4 DUP2 LT ISZERO PUSH2 0x275E JUMPI DUP1 DUP3 ADD MLOAD DUP2 DUP5 ADD MSTORE PUSH1 0x20 DUP2 ADD SWAP1 POP PUSH2 0x2743 JUMP JUMPDEST DUP4 DUP2 GT ISZERO PUSH2 0x276D JUMPI PUSH1 0x0 DUP5 DUP5 ADD MSTORE JUMPDEST POP POP POP POP JUMP JUMPDEST PUSH1 0x0 PUSH1 0x2 DUP3 DIV SWAP1 POP PUSH1 0x1 DUP3 AND DUP1 PUSH2 0x278B JUMPI PUSH1 0x7F DUP3 AND SWAP2 POP JUMPDEST PUSH1 0x20 DUP3 LT DUP2 EQ ISZERO PUSH2 0x279F JUMPI PUSH2 0x279E PUSH2 0x2827 JUMP JUMPDEST JUMPDEST POP SWAP2 SWAP1 POP JUMP JUMPDEST PUSH1 0x0 PUSH2 0x27B0 DUP3 PUSH2 0x26F3 JUMP JUMPDEST SWAP2 POP PUSH32 0xFFFFFFFFFFFFFFFFFFFFFFFFFFFFFFFFFFFFFFFFFFFFFFFFFFFFFFFFFFFFFFFF DUP3 EQ ISZERO PUSH2 0x27E3 JUMPI PUSH2 0x27E2 PUSH2 0x27F8 JUMP JUMPDEST JUMPDEST PUSH1 0x1 DUP3 ADD SWAP1 POP SWAP2 SWAP1 POP JUMP JUMPDEST PUSH1 0x0 DUP2 SWAP1 POP SWAP2 SWAP1 POP JUMP JUMPDEST PUSH32 0x4E487B7100000000000000000000000000000000000000000000000000000000 PUSH1 0x0 MSTORE PUSH1 0x11 PUSH1 0x4 MSTORE PUSH1 0x24 PUSH1 0x0 REVERT JUMPDEST PUSH32 0x4E487B7100000000000000000000000000000000000000000000000000000000 PUSH1 0x0 MSTORE PUSH1 0x22 PUSH1 0x4 MSTORE PUSH1 0x24 PUSH1 0x0 REVERT JUMPDEST PUSH1 0x0 DUP1 REVERT JUMPDEST PUSH1 0x0 PUSH1 0x1F NOT PUSH1 0x1F DUP4 ADD AND SWAP1 POP SWAP2 SWAP1 POP JUMP JUMPDEST PUSH32 0x5A45524F5F534841524553000000000000000000000000000000000000000000 PUSH1 0x0 DUP3 ADD MSTORE POP JUMP JUMPDEST PUSH32 0x1901000000000000000000000000000000000000000000000000000000000000 PUSH1 0x0 DUP3 ADD MSTORE POP JUMP JUMPDEST PUSH32 0x5452414E534645525F46524F4D5F4641494C4544000000000000000000000000 PUSH1 0x0 DUP3 ADD MSTORE POP JUMP JUMPDEST PUSH32 0x5452414E534645525F4641494C45440000000000000000000000000000000000 PUSH1 0x0 DUP3 ADD MSTORE POP JUMP JUMPDEST PUSH32 0x494E56414C49445F5349474E4552000000000000000000000000000000000000 PUSH1 0x0 DUP3 ADD MSTORE POP JUMP JUMPDEST PUSH32 0x5A45524F5F415353455453000000000000000000000000000000000000000000 PUSH1 0x0 DUP3 ADD MSTORE POP JUMP JUMPDEST PUSH32 0x5045524D49545F444541444C494E455F45585049524544000000000000000000 PUSH1 0x0 DUP3 ADD MSTORE POP JUMP JUMPDEST PUSH2 0x2994 DUP2 PUSH2 0x26AB JUMP JUMPDEST DUP2 EQ PUSH2 0x299F JUMPI PUSH1 0x0 DUP1 REVERT JUMPDEST POP JUMP JUMPDEST PUSH2 0x29AB DUP2 PUSH2 0x26C9 JUMP JUMPDEST DUP2 EQ PUSH2 0x29B6 JUMPI PUSH1 0x0 DUP1 REVERT JUMPDEST POP JUMP JUMPDEST PUSH2 0x29C2 DUP2 PUSH2 0x26F3 JUMP JUMPDEST DUP2 EQ PUSH2 0x29CD JUMPI PUSH1 0x0 DUP1 REVERT JUMPDEST POP JUMP JUMPDEST PUSH2 0x29D9 DUP2 PUSH2 0x26FD JUMP JUMPDEST DUP2 EQ PUSH2 0x29E4 JUMPI PUSH1 0x0 DUP1 REVERT JUMPDEST POP JUMP INVALID LOG2 PUSH5 0x6970667358 0x22 SLT KECCAK256 NUMBER PUSH17 0xC969AC03DC7BF1D2B7E7BD829CBBD04743 0xB4 CREATE PUSH29 0xCE6D7AFD6885E5EB6A7B64736F6C634300080700330000000000000000 "
				},
				"gasEstimates": {
					"creation": {
						"codeDepositCost": "2156200",
						"executionCost": "infinite",
						"totalCost": "infinite"
					},
					"external": {
						"DOMAIN_SEPARATOR()": "infinite",
						"afterDepositHookCalledCounter()": "2539",
						"allowance(address,address)": "infinite",
						"approve(address,uint256)": "infinite",
						"asset()": "infinite",
						"balanceOf(address)": "2903",
						"beforeWithdrawHookCalledCounter()": "2540",
						"convertToAssets(uint256)": "infinite",
						"convertToShares(uint256)": "infinite",
						"decimals()": "infinite",
						"deposit(uint256,address)": "infinite",
						"maxDeposit(address)": "763",
						"maxMint(address)": "696",
						"maxRedeem(address)": "2885",
						"maxWithdraw(address)": "infinite",
						"mint(uint256,address)": "infinite",
						"name()": "infinite",
						"nonces(address)": "2925",
						"permit(address,address,uint256,uint256,uint8,bytes32,bytes32)": "infinite",
						"previewDeposit(uint256)": "infinite",
						"previewMint(uint256)": "infinite",
						"previewRedeem(uint256)": "infinite",
						"previewWithdraw(uint256)": "infinite",
						"redeem(uint256,address,address)": "infinite",
						"symbol()": "infinite",
						"totalAssets()": "infinite",
						"totalSupply()": "2519",
						"transfer(address,uint256)": "infinite",
						"transferFrom(address,address,uint256)": "infinite",
						"withdraw(uint256,address,address)": "infinite"
					},
					"internal": {
						"afterDeposit(uint256,uint256)": "24373",
						"beforeWithdraw(uint256,uint256)": "24373"
					}
				},
				"methodIdentifiers": {
					"DOMAIN_SEPARATOR()": "3644e515",
					"afterDepositHookCalledCounter()": "fc407ae7",
					"allowance(address,address)": "dd62ed3e",
					"approve(address,uint256)": "095ea7b3",
					"asset()": "38d52e0f",
					"balanceOf(address)": "70a08231",
					"beforeWithdrawHookCalledCounter()": "bc368a8a",
					"convertToAssets(uint256)": "07a2d13a",
					"convertToShares(uint256)": "c6e6f592",
					"decimals()": "313ce567",
					"deposit(uint256,address)": "6e553f65",
					"maxDeposit(address)": "402d267d",
					"maxMint(address)": "c63d75b6",
					"maxRedeem(address)": "d905777e",
					"maxWithdraw(address)": "ce96cb77",
					"mint(uint256,address)": "94bf804d",
					"name()": "06fdde03",
					"nonces(address)": "7ecebe00",
					"permit(address,address,uint256,uint256,uint8,bytes32,bytes32)": "d505accf",
					"previewDeposit(uint256)": "ef8b30f7",
					"previewMint(uint256)": "b3d7f6b9",
					"previewRedeem(uint256)": "4cdad506",
					"previewWithdraw(uint256)": "0a28a477",
					"redeem(uint256,address,address)": "ba087652",
					"symbol()": "95d89b41",
					"totalAssets()": "01e1d114",
					"totalSupply()": "18160ddd",
					"transfer(address,uint256)": "a9059cbb",
					"transferFrom(address,address,uint256)": "23b872dd",
					"withdraw(uint256,address,address)": "b460af94"
				}
			},
			"storageLayout": {
				"storage": [
					{
						"astId": 20,
						"contract": "MockERC4626.sol:MockERC4626",
						"label": "name",
						"offset": 0,
						"slot": "0",
						"type": "t_string_storage"
					},
					{
						"astId": 22,
						"contract": "MockERC4626.sol:MockERC4626",
						"label": "symbol",
						"offset": 0,
						"slot": "1",
						"type": "t_string_storage"
					},
					{
						"astId": 26,
						"contract": "MockERC4626.sol:MockERC4626",
						"label": "totalSupply",
						"offset": 0,
						"slot": "2",
						"type": "t_uint256"
					},
					{
						"astId": 30,
						"contract": "MockERC4626.sol:MockERC4626",
						"label": "balanceOf",
						"offset": 0,
						"slot": "3",
						"type": "t_mapping(t_address,t_uint256)"
					},
					{
						"astId": 36,
						"contract": "MockERC4626.sol:MockERC4626",
						"label": "allowance",
						"offset": 0,
						"slot": "4",
						"type": "t_mapping(t_address,t_mapping(t_address,t_uint256))"
					},
					{
						"astId": 44,
						"contract": "MockERC4626.sol:MockERC4626",
						"label": "nonces",
						"offset": 0,
						"slot": "5",
						"type": "t_mapping(t_address,t_uint256)"
					},
					{
						"astId": 1038,
						"contract": "MockERC4626.sol:MockERC4626",
						"label": "beforeWithdrawHookCalledCounter",
						"offset": 0,
						"slot": "6",
						"type": "t_uint256"
					},
					{
						"astId": 1041,
						"contract": "MockERC4626.sol:MockERC4626",
						"label": "afterDepositHookCalledCounter",
						"offset": 0,
						"slot": "7",
						"type": "t_uint256"
					}
				],
				"types": {
					"t_address": {
						"encoding": "inplace",
						"label": "address",
						"numberOfBytes": "20"
					},
					"t_mapping(t_address,t_mapping(t_address,t_uint256))": {
						"encoding": "mapping",
						"key": "t_address",
						"label": "mapping(address => mapping(address => uint256))",
						"numberOfBytes": "32",
						"value": "t_mapping(t_address,t_uint256)"
					},
					"t_mapping(t_address,t_uint256)": {
						"encoding": "mapping",
						"key": "t_address",
						"label": "mapping(address => uint256)",
						"numberOfBytes": "32",
						"value": "t_uint256"
					},
					"t_string_storage": {
						"encoding": "bytes",
						"label": "string",
						"numberOfBytes": "32"
					},
					"t_uint256": {
						"encoding": "inplace",
						"label": "uint256",
						"numberOfBytes": "32"
					}
				}
			},
			"userdoc": {
				"kind": "user",
				"methods": {},
				"version": 1
			}
		}
	}
}