{
	"SquiddyCore.sol": {
		"SquiddyCore": {
			"abi": [
				{
					"inputs": [
						{
							"internalType": "contract ERC20",
							"name": "_underlying",
							"type": "address"
						},
						{
							"internalType": "string",
							"name": "_name",
							"type": "string"
						},
						{
							"internalType": "string",
							"name": "_symbol",
							"type": "string"
						},
						{
							"internalType": "uint8",
							"name": "_decimals",
							"type": "uint8"
						}
					],
					"stateMutability": "nonpayable",
					"type": "constructor"
				},
				{
					"anonymous": false,
					"inputs": [
						{
							"indexed": true,
							"internalType": "address",
							"name": "owner",
							"type": "address"
						},
						{
							"indexed": true,
							"internalType": "address",
							"name": "spender",
							"type": "address"
						},
						{
							"indexed": false,
							"internalType": "uint256",
							"name": "amount",
							"type": "uint256"
						}
					],
					"name": "Approval",
					"type": "event"
				},
				{
					"anonymous": false,
					"inputs": [
						{
							"indexed": true,
							"internalType": "address",
							"name": "caller",
							"type": "address"
						},
						{
							"indexed": true,
							"internalType": "address",
							"name": "owner",
							"type": "address"
						},
						{
							"indexed": false,
							"internalType": "uint256",
							"name": "assets",
							"type": "uint256"
						},
						{
							"indexed": false,
							"internalType": "uint256",
							"name": "shares",
							"type": "uint256"
						}
					],
					"name": "Deposit",
					"type": "event"
				},
				{
					"anonymous": false,
					"inputs": [
						{
							"indexed": true,
							"internalType": "address",
							"name": "user",
							"type": "address"
						},
						{
							"indexed": false,
							"internalType": "uint256",
							"name": "newFeePercent",
							"type": "uint256"
						}
					],
					"name": "FeePercentUpdated",
					"type": "event"
				},
				{
					"anonymous": false,
					"inputs": [
						{
							"indexed": true,
							"internalType": "address",
							"name": "user",
							"type": "address"
						},
						{
							"indexed": false,
							"internalType": "uint256",
							"name": "sVTokenAmount",
							"type": "uint256"
						}
					],
					"name": "FeesClaimed",
					"type": "event"
				},
				{
					"anonymous": false,
					"inputs": [
						{
							"indexed": true,
							"internalType": "address",
							"name": "user",
							"type": "address"
						}
					],
					"name": "Initialized",
					"type": "event"
				},
				{
					"anonymous": false,
					"inputs": [
						{
							"indexed": true,
							"internalType": "address",
							"name": "previousManager",
							"type": "address"
						},
						{
							"indexed": true,
							"internalType": "address",
							"name": "newManager",
							"type": "address"
						}
					],
					"name": "OwnershipTransferred",
					"type": "event"
				},
				{
					"anonymous": false,
					"inputs": [
						{
							"indexed": true,
							"internalType": "address",
							"name": "searcher",
							"type": "address"
						},
						{
							"indexed": true,
							"internalType": "address",
							"name": "vault",
							"type": "address"
						},
						{
							"indexed": false,
							"internalType": "uint256",
							"name": "duration",
							"type": "uint256"
						}
					],
					"name": "StrategyAInitilized",
					"type": "event"
				},
				{
					"anonymous": false,
					"inputs": [
						{
							"indexed": true,
							"internalType": "address",
							"name": "stakePoolContract",
							"type": "address"
						},
						{
							"indexed": true,
							"internalType": "address",
							"name": "vault",
							"type": "address"
						},
						{
							"indexed": false,
							"internalType": "uint256",
							"name": "duration",
							"type": "uint256"
						}
					],
					"name": "StrategyBInitilized",
					"type": "event"
				},
				{
					"anonymous": false,
					"inputs": [
						{
							"indexed": true,
							"internalType": "address",
							"name": "user",
							"type": "address"
						},
						{
							"indexed": false,
							"internalType": "uint256",
							"name": "newTargetFloatPercent",
							"type": "uint256"
						}
					],
					"name": "TargetFloatPercentUpdated",
					"type": "event"
				},
				{
					"anonymous": false,
					"inputs": [
						{
							"indexed": true,
							"internalType": "address",
							"name": "from",
							"type": "address"
						},
						{
							"indexed": true,
							"internalType": "address",
							"name": "to",
							"type": "address"
						},
						{
							"indexed": false,
							"internalType": "uint256",
							"name": "amount",
							"type": "uint256"
						}
					],
					"name": "Transfer",
					"type": "event"
				},
				{
					"anonymous": false,
					"inputs": [
						{
							"indexed": true,
							"internalType": "address",
							"name": "user",
							"type": "address"
						},
						{
							"indexed": false,
							"internalType": "bool",
							"name": "newUnderlyingIsWETH",
							"type": "bool"
						}
					],
					"name": "UnderlyingIsWETHUpdated",
					"type": "event"
				},
				{
					"anonymous": false,
					"inputs": [
						{
							"indexed": true,
							"internalType": "address",
							"name": "caller",
							"type": "address"
						},
						{
							"indexed": true,
							"internalType": "address",
							"name": "receiver",
							"type": "address"
						},
						{
							"indexed": true,
							"internalType": "address",
							"name": "owner",
							"type": "address"
						},
						{
							"indexed": false,
							"internalType": "uint256",
							"name": "assets",
							"type": "uint256"
						},
						{
							"indexed": false,
							"internalType": "uint256",
							"name": "shares",
							"type": "uint256"
						}
					],
					"name": "Withdraw",
					"type": "event"
				},
				{
					"anonymous": false,
					"inputs": [
						{
							"indexed": false,
							"internalType": "bool",
							"name": "isPublicVault",
							"type": "bool"
						}
					],
					"name": "vaultPublic",
					"type": "event"
				},
				{
					"inputs": [],
					"name": "DOMAIN_SEPARATOR",
					"outputs": [
						{
							"internalType": "bytes32",
							"name": "",
							"type": "bytes32"
						}
					],
					"stateMutability": "view",
					"type": "function"
				},
				{
					"inputs": [],
					"name": "UNDERLYING",
					"outputs": [
						{
							"internalType": "contract ERC20",
							"name": "",
							"type": "address"
						}
					],
					"stateMutability": "view",
					"type": "function"
				},
				{
					"inputs": [],
					"name": "afterDepositHookCalledCounter",
					"outputs": [
						{
							"internalType": "uint256",
							"name": "",
							"type": "uint256"
						}
					],
					"stateMutability": "view",
					"type": "function"
				},
				{
					"inputs": [
						{
							"internalType": "address",
							"name": "",
							"type": "address"
						},
						{
							"internalType": "address",
							"name": "",
							"type": "address"
						}
					],
					"name": "allowance",
					"outputs": [
						{
							"internalType": "uint256",
							"name": "",
							"type": "uint256"
						}
					],
					"stateMutability": "view",
					"type": "function"
				},
				{
					"inputs": [
						{
							"internalType": "address",
							"name": "spender",
							"type": "address"
						},
						{
							"internalType": "uint256",
							"name": "amount",
							"type": "uint256"
						}
					],
					"name": "approve",
					"outputs": [
						{
							"internalType": "bool",
							"name": "",
							"type": "bool"
						}
					],
					"stateMutability": "nonpayable",
					"type": "function"
				},
				{
					"inputs": [],
					"name": "asset",
					"outputs": [
						{
							"internalType": "contract ERC20",
							"name": "",
							"type": "address"
						}
					],
					"stateMutability": "view",
					"type": "function"
				},
				{
					"inputs": [
						{
							"internalType": "address",
							"name": "",
							"type": "address"
						}
					],
					"name": "balanceOf",
					"outputs": [
						{
							"internalType": "uint256",
							"name": "",
							"type": "uint256"
						}
					],
					"stateMutability": "view",
					"type": "function"
				},
				{
					"inputs": [],
					"name": "beforeWithdrawHookCalledCounter",
					"outputs": [
						{
							"internalType": "uint256",
							"name": "",
							"type": "uint256"
						}
					],
					"stateMutability": "view",
					"type": "function"
				},
				{
					"inputs": [
						{
							"internalType": "uint256",
							"name": "sVTokenAmount",
							"type": "uint256"
						}
					],
					"name": "claimFees",
					"outputs": [],
					"stateMutability": "nonpayable",
					"type": "function"
				},
				{
					"inputs": [
						{
							"internalType": "uint256",
							"name": "shares",
							"type": "uint256"
						}
					],
					"name": "convertToAssets",
					"outputs": [
						{
							"internalType": "uint256",
							"name": "",
							"type": "uint256"
						}
					],
					"stateMutability": "view",
					"type": "function"
				},
				{
					"inputs": [
						{
							"internalType": "uint256",
							"name": "assets",
							"type": "uint256"
						}
					],
					"name": "convertToShares",
					"outputs": [
						{
							"internalType": "uint256",
							"name": "",
							"type": "uint256"
						}
					],
					"stateMutability": "view",
					"type": "function"
				},
				{
					"inputs": [],
					"name": "decimals",
					"outputs": [
						{
							"internalType": "uint8",
							"name": "",
							"type": "uint8"
						}
					],
					"stateMutability": "view",
					"type": "function"
				},
				{
					"inputs": [
						{
							"internalType": "uint256",
							"name": "assets",
							"type": "uint256"
						},
						{
							"internalType": "address",
							"name": "receiver",
							"type": "address"
						}
					],
					"name": "deposit",
					"outputs": [
						{
							"internalType": "uint256",
							"name": "shares",
							"type": "uint256"
						}
					],
					"stateMutability": "nonpayable",
					"type": "function"
				},
				{
					"inputs": [],
					"name": "destroy",
					"outputs": [],
					"stateMutability": "nonpayable",
					"type": "function"
				},
				{
					"inputs": [],
					"name": "feePercent",
					"outputs": [
						{
							"internalType": "uint256",
							"name": "",
							"type": "uint256"
						}
					],
					"stateMutability": "view",
					"type": "function"
				},
				{
					"inputs": [
						{
							"internalType": "address",
							"name": "_searcher",
							"type": "address"
						},
						{
							"internalType": "uint160",
							"name": "_duration",
							"type": "uint160"
						}
					],
					"name": "initialize",
					"outputs": [],
					"stateMutability": "nonpayable",
					"type": "function"
				},
				{
					"inputs": [],
					"name": "isInitialized",
					"outputs": [
						{
							"internalType": "bool",
							"name": "",
							"type": "bool"
						}
					],
					"stateMutability": "view",
					"type": "function"
				},
				{
					"inputs": [],
					"name": "isPublic",
					"outputs": [
						{
							"internalType": "bool",
							"name": "",
							"type": "bool"
						}
					],
					"stateMutability": "view",
					"type": "function"
				},
				{
					"inputs": [],
					"name": "manager",
					"outputs": [
						{
							"internalType": "address",
							"name": "",
							"type": "address"
						}
					],
					"stateMutability": "view",
					"type": "function"
				},
				{
					"inputs": [
						{
							"internalType": "address",
							"name": "",
							"type": "address"
						}
					],
					"name": "maxDeposit",
					"outputs": [
						{
							"internalType": "uint256",
							"name": "",
							"type": "uint256"
						}
					],
					"stateMutability": "view",
					"type": "function"
				},
				{
					"inputs": [
						{
							"internalType": "address",
							"name": "",
							"type": "address"
						}
					],
					"name": "maxMint",
					"outputs": [
						{
							"internalType": "uint256",
							"name": "",
							"type": "uint256"
						}
					],
					"stateMutability": "view",
					"type": "function"
				},
				{
					"inputs": [
						{
							"internalType": "address",
							"name": "owner",
							"type": "address"
						}
					],
					"name": "maxRedeem",
					"outputs": [
						{
							"internalType": "uint256",
							"name": "",
							"type": "uint256"
						}
					],
					"stateMutability": "view",
					"type": "function"
				},
				{
					"inputs": [
						{
							"internalType": "address",
							"name": "owner",
							"type": "address"
						}
					],
					"name": "maxWithdraw",
					"outputs": [
						{
							"internalType": "uint256",
							"name": "",
							"type": "uint256"
						}
					],
					"stateMutability": "view",
					"type": "function"
				},
				{
					"inputs": [
						{
							"internalType": "uint256",
							"name": "shares",
							"type": "uint256"
						},
						{
							"internalType": "address",
							"name": "receiver",
							"type": "address"
						}
					],
					"name": "mint",
					"outputs": [
						{
							"internalType": "uint256",
							"name": "assets",
							"type": "uint256"
						}
					],
					"stateMutability": "nonpayable",
					"type": "function"
				},
				{
					"inputs": [],
					"name": "name",
					"outputs": [
						{
							"internalType": "string",
							"name": "",
							"type": "string"
						}
					],
					"stateMutability": "view",
					"type": "function"
				},
				{
					"inputs": [
						{
							"internalType": "address",
							"name": "",
							"type": "address"
						}
					],
					"name": "nonces",
					"outputs": [
						{
							"internalType": "uint256",
							"name": "",
							"type": "uint256"
						}
					],
					"stateMutability": "view",
					"type": "function"
				},
				{
					"inputs": [
						{
							"internalType": "address",
							"name": "owner",
							"type": "address"
						},
						{
							"internalType": "address",
							"name": "spender",
							"type": "address"
						},
						{
							"internalType": "uint256",
							"name": "value",
							"type": "uint256"
						},
						{
							"internalType": "uint256",
							"name": "deadline",
							"type": "uint256"
						},
						{
							"internalType": "uint8",
							"name": "v",
							"type": "uint8"
						},
						{
							"internalType": "bytes32",
							"name": "r",
							"type": "bytes32"
						},
						{
							"internalType": "bytes32",
							"name": "s",
							"type": "bytes32"
						}
					],
					"name": "permit",
					"outputs": [],
					"stateMutability": "nonpayable",
					"type": "function"
				},
				{
					"inputs": [
						{
							"internalType": "uint256",
							"name": "assets",
							"type": "uint256"
						}
					],
					"name": "previewDeposit",
					"outputs": [
						{
							"internalType": "uint256",
							"name": "",
							"type": "uint256"
						}
					],
					"stateMutability": "view",
					"type": "function"
				},
				{
					"inputs": [
						{
							"internalType": "uint256",
							"name": "shares",
							"type": "uint256"
						}
					],
					"name": "previewMint",
					"outputs": [
						{
							"internalType": "uint256",
							"name": "",
							"type": "uint256"
						}
					],
					"stateMutability": "view",
					"type": "function"
				},
				{
					"inputs": [
						{
							"internalType": "uint256",
							"name": "shares",
							"type": "uint256"
						}
					],
					"name": "previewRedeem",
					"outputs": [
						{
							"internalType": "uint256",
							"name": "",
							"type": "uint256"
						}
					],
					"stateMutability": "view",
					"type": "function"
				},
				{
					"inputs": [
						{
							"internalType": "uint256",
							"name": "assets",
							"type": "uint256"
						}
					],
					"name": "previewWithdraw",
					"outputs": [
						{
							"internalType": "uint256",
							"name": "",
							"type": "uint256"
						}
					],
					"stateMutability": "view",
					"type": "function"
				},
				{
					"inputs": [
						{
							"internalType": "uint256",
							"name": "shares",
							"type": "uint256"
						},
						{
							"internalType": "address",
							"name": "receiver",
							"type": "address"
						},
						{
							"internalType": "address",
							"name": "owner",
							"type": "address"
						}
					],
					"name": "redeem",
					"outputs": [
						{
							"internalType": "uint256",
							"name": "assets",
							"type": "uint256"
						}
					],
					"stateMutability": "nonpayable",
					"type": "function"
				},
				{
					"inputs": [],
					"name": "renounceOwnership",
					"outputs": [],
					"stateMutability": "nonpayable",
					"type": "function"
				},
				{
					"inputs": [
						{
							"internalType": "uint256",
							"name": "newFeePercent",
							"type": "uint256"
						}
					],
					"name": "setFeePercent",
					"outputs": [],
					"stateMutability": "nonpayable",
					"type": "function"
				},
				{
					"inputs": [
						{
							"internalType": "uint256",
							"name": "newTargetFloatPercent",
							"type": "uint256"
						}
					],
					"name": "setTargetFloatPercent",
					"outputs": [],
					"stateMutability": "nonpayable",
					"type": "function"
				},
				{
					"inputs": [
						{
							"internalType": "bool",
							"name": "newUnderlyingIsWETH",
							"type": "bool"
						}
					],
					"name": "setUnderlyingIsWETH",
					"outputs": [],
					"stateMutability": "nonpayable",
					"type": "function"
				},
				{
					"inputs": [],
					"name": "symbol",
					"outputs": [
						{
							"internalType": "string",
							"name": "",
							"type": "string"
						}
					],
					"stateMutability": "view",
					"type": "function"
				},
				{
					"inputs": [],
					"name": "targetFloatPercent",
					"outputs": [
						{
							"internalType": "uint256",
							"name": "",
							"type": "uint256"
						}
					],
					"stateMutability": "view",
					"type": "function"
				},
				{
					"inputs": [],
					"name": "totalAssets",
					"outputs": [
						{
							"internalType": "uint256",
							"name": "",
							"type": "uint256"
						}
					],
					"stateMutability": "view",
					"type": "function"
				},
				{
					"inputs": [],
					"name": "totalStrategyHoldings",
					"outputs": [
						{
							"internalType": "uint256",
							"name": "",
							"type": "uint256"
						}
					],
					"stateMutability": "view",
					"type": "function"
				},
				{
					"inputs": [],
					"name": "totalSupply",
					"outputs": [
						{
							"internalType": "uint256",
							"name": "",
							"type": "uint256"
						}
					],
					"stateMutability": "view",
					"type": "function"
				},
				{
					"inputs": [
						{
							"internalType": "address",
							"name": "to",
							"type": "address"
						},
						{
							"internalType": "uint256",
							"name": "amount",
							"type": "uint256"
						}
					],
					"name": "transfer",
					"outputs": [
						{
							"internalType": "bool",
							"name": "",
							"type": "bool"
						}
					],
					"stateMutability": "nonpayable",
					"type": "function"
				},
				{
					"inputs": [
						{
							"internalType": "address",
							"name": "from",
							"type": "address"
						},
						{
							"internalType": "address",
							"name": "to",
							"type": "address"
						},
						{
							"internalType": "uint256",
							"name": "amount",
							"type": "uint256"
						}
					],
					"name": "transferFrom",
					"outputs": [
						{
							"internalType": "bool",
							"name": "",
							"type": "bool"
						}
					],
					"stateMutability": "nonpayable",
					"type": "function"
				},
				{
					"inputs": [
						{
							"internalType": "address",
							"name": "newOwner",
							"type": "address"
						}
					],
					"name": "transferOwnership",
					"outputs": [],
					"stateMutability": "nonpayable",
					"type": "function"
				},
				{
					"inputs": [],
					"name": "underlyingIsWETH",
					"outputs": [
						{
							"internalType": "bool",
							"name": "",
							"type": "bool"
						}
					],
					"stateMutability": "view",
					"type": "function"
				},
				{
					"inputs": [
						{
							"internalType": "uint256",
							"name": "assets",
							"type": "uint256"
						},
						{
							"internalType": "address",
							"name": "receiver",
							"type": "address"
						},
						{
							"internalType": "address",
							"name": "owner",
							"type": "address"
						}
					],
					"name": "withdraw",
					"outputs": [
						{
							"internalType": "uint256",
							"name": "shares",
							"type": "uint256"
						}
					],
					"stateMutability": "nonpayable",
					"type": "function"
				},
				{
					"stateMutability": "payable",
					"type": "receive"
				}
			],
			"devdoc": {
				"events": {
					"Initialized(address)": {
						"params": {
							"user": "The authorized user who triggered the initialization."
						}
					}
				},
				"kind": "dev",
				"methods": {
					"claimFees(uint256)": {
						"details": "Accrued fees are measured as rvTokens held by the Vault.",
						"params": {
							"sVTokenAmount": "The amount of rvTokens to claim."
						}
					},
					"destroy()": {
						"details": "Caller will receive any ETH held as float in the Vault."
					},
					"initialize(address,uint160)": {
						"details": "All critical parameters must already be set before calling."
					},
					"setFeePercent(uint256)": {
						"params": {
							"newFeePercent": "The new fee percentage."
						}
					},
					"setTargetFloatPercent(uint256)": {
						"params": {
							"newTargetFloatPercent": "The new target float percentage."
						}
					},
					"setUnderlyingIsWETH(bool)": {
						"details": "The underlying token must have 18 decimals, to match Ether's decimal scheme.",
						"params": {
							"newUnderlyingIsWETH": "Whether the Vault should treat the underlying as WETH."
						}
					}
				},
				"stateVariables": {
					"feePercent": {
						"details": "A fixed point number where 1e18 represents 100% and 0 represents 0%."
					},
					"isInitialized": {
						"details": "Can go from false to true, never from true to false."
					},
					"targetFloatPercent": {
						"details": "A fixed point number where 1e18 represents 100% and 0 represents 0%."
					},
					"totalStrategyHoldings": {
						"details": "Includes maxLockedProfit, must be correctly subtracted to compute available/free holdings."
					},
					"underlyingIsWETH": {
						"details": "If enabled the Vault will allow trusting strategies that accept Ether."
					}
				},
				"version": 1
			},
			"evm": {
				"assembly": "    /* \"SquiddyCore.sol\":144:9971  contract SquiddyCore is ERC4626 {... */\n  mstore(0x40, 0x0140)\n    /* \"SquiddyCore.sol\":267:268  0 */\n  0x00\n    /* \"SquiddyCore.sol\":218:268  uint256 public beforeWithdrawHookCalledCounter = 0 */\n  0x07\n  sstore\n    /* \"SquiddyCore.sol\":321:322  0 */\n  0x00\n    /* \"SquiddyCore.sol\":274:322  uint256 public afterDepositHookCalledCounter = 0 */\n  0x08\n  sstore\n    /* \"SquiddyCore.sol\":1813:2221  constructor(... */\n  callvalue\n  dup1\n  iszero\n  tag_1\n  jumpi\n  0x00\n  dup1\n  revert\ntag_1:\n  pop\n  mload(0x40)\n  sub(codesize, bytecodeSize)\n  dup1\n  bytecodeSize\n  dup4\n  codecopy\n  dup2\n  dup2\n  add\n  0x40\n  mstore\n  dup2\n  add\n  swap1\n  tag_2\n  swap2\n  swap1\n  tag_3\n  jump\t// in\ntag_2:\n    /* \"SquiddyCore.sol\":1951:1962  _underlying */\n  dup4\n    /* \"SquiddyCore.sol\":1964:1969  _name */\n  dup4\n    /* \"SquiddyCore.sol\":1971:1978  _symbol */\n  dup4\n    /* \"SquiddyCore.sol\":1980:1989  _decimals */\n  dup4\n    /* \"ERC4626.sol\":1331:1336  _name */\n  dup3\n    /* \"ERC4626.sol\":1338:1345  _symbol */\n  dup3\n    /* \"ERC4626.sol\":1347:1356  _decimals */\n  dup3\n    /* \"ERC20.sol\":2131:2136  _name */\n  dup3\n    /* \"ERC20.sol\":2124:2128  name */\n  0x00\n    /* \"ERC20.sol\":2124:2136  name = _name */\n  swap1\n  dup1\n  mload\n  swap1\n  0x20\n  add\n  swap1\n  tag_8\n  swap3\n  swap2\n  swap1\n  tag_9\n  jump\t// in\ntag_8:\n  pop\n    /* \"ERC20.sol\":2155:2162  _symbol */\n  dup2\n    /* \"ERC20.sol\":2146:2152  symbol */\n  0x01\n    /* \"ERC20.sol\":2146:2162  symbol = _symbol */\n  swap1\n  dup1\n  mload\n  swap1\n  0x20\n  add\n  swap1\n  tag_10\n  swap3\n  swap2\n  swap1\n  tag_9\n  jump\t// in\ntag_10:\n  pop\n    /* \"ERC20.sol\":2183:2192  _decimals */\n  dup1\n    /* \"ERC20.sol\":2172:2192  decimals = _decimals */\n  0xff\n  and\n  0x80\n  dup2\n  0xff\n  and\n  dup2\n  mstore\n  pop\n  pop\n    /* \"ERC20.sol\":2222:2235  block.chainid */\n  chainid\n    /* \"ERC20.sol\":2203:2235  INITIAL_CHAIN_ID = block.chainid */\n  0xa0\n  dup2\n  dup2\n  mstore\n  pop\n  pop\n    /* \"ERC20.sol\":2272:2296  computeDomainSeparator() */\n  tag_11\n    /* \"ERC20.sol\":2272:2294  computeDomainSeparator */\n  shl(0x20, tag_12)\n    /* \"ERC20.sol\":2272:2296  computeDomainSeparator() */\n  0x20\n  shr\n  jump\t// in\ntag_11:\n    /* \"ERC20.sol\":2245:2296  INITIAL_DOMAIN_SEPARATOR = computeDomainSeparator() */\n  0xc0\n  dup2\n  dup2\n  mstore\n  pop\n  pop\n    /* \"ERC20.sol\":2011:2303  constructor(... */\n  pop\n  pop\n  pop\n    /* \"ERC4626.sol\":1376:1382  _asset */\n  dup4\n    /* \"ERC4626.sol\":1368:1382  asset = _asset */\n  0xffffffffffffffffffffffffffffffffffffffff\n  and\n  0xe0\n  dup2\n  0xffffffffffffffffffffffffffffffffffffffff\n  and\n  dup2\n  mstore\n  pop\n  pop\n    /* \"ERC4626.sol\":1200:1389  constructor(... */\n  pop\n  pop\n  pop\n  pop\n    /* \"SquiddyCore.sol\":2014:2025  _underlying */\n  dup4\n    /* \"SquiddyCore.sol\":2001:2025  UNDERLYING = _underlying */\n  0xffffffffffffffffffffffffffffffffffffffff\n  and\n  0x0120\n  dup2\n  0xffffffffffffffffffffffffffffffffffffffff\n  and\n  dup2\n  mstore\n  pop\n  pop\n    /* \"SquiddyCore.sol\":2052:2060  decimals */\n  mload(0x80)\n    /* \"SquiddyCore.sol\":2048:2050  10 */\n  0x0a\n    /* \"SquiddyCore.sol\":2048:2060  10**decimals */\n  tag_15\n  swap2\n  swap1\n  tag_16\n  jump\t// in\ntag_15:\n    /* \"SquiddyCore.sol\":2036:2060  BASE_UNIT = 10**decimals */\n  0x0100\n  dup2\n  dup2\n  mstore\n  pop\n  pop\n    /* \"SquiddyCore.sol\":2188:2205  type(uint256).max */\n  0xffffffffffffffffffffffffffffffffffffffffffffffffffffffffffffffff\n    /* \"SquiddyCore.sol\":2174:2185  totalSupply */\n  0x02\n    /* \"SquiddyCore.sol\":2174:2205  totalSupply = type(uint256).max */\n  dup2\n  swap1\n  sstore\n  pop\n    /* \"SquiddyCore.sol\":1813:2221  constructor(... */\n  pop\n  pop\n  pop\n  pop\n    /* \"SquiddyCore.sol\":144:9971  contract SquiddyCore is ERC4626 {... */\n  jump(tag_17)\n    /* \"ERC20.sol\":5698:6190  function computeDomainSeparator() internal view virtual returns (bytes32) {... */\ntag_12:\n    /* \"ERC20.sol\":5763:5770  bytes32 */\n  0x00\n    /* \"ERC20.sol\":5860:6001  keccak256(... */\n  0x8b73c3c69bb8fe3d512ecc4cf759cc79239f7b179b0ffacaa9a75d522b39400f\n    /* \"ERC20.sol\":6039:6043  name */\n  0x00\n    /* \"ERC20.sol\":6023:6045  keccak256(bytes(name)) */\n  mload(0x40)\n  tag_19\n  swap2\n  swap1\n  tag_20\n  jump\t// in\ntag_19:\n  mload(0x40)\n  dup1\n  swap2\n  sub\n  swap1\n  keccak256\n    /* \"ERC20.sol\":6067:6081  keccak256(\"1\") */\n  0xc89efdaa54c0f20c7adf612882df0950f5a951637e0307cdcb4c672f298b8bc6\n    /* \"ERC20.sol\":6103:6116  block.chainid */\n  chainid\n    /* \"ERC20.sol\":6146:6150  this */\n  address\n    /* \"ERC20.sol\":5828:6169  abi.encode(... */\n  add(0x20, mload(0x40))\n  tag_21\n  swap6\n  swap5\n  swap4\n  swap3\n  swap2\n  swap1\n  tag_22\n  jump\t// in\ntag_21:\n  mload(0x40)\n  0x20\n  dup2\n  dup4\n  sub\n  sub\n  dup2\n  mstore\n  swap1\n  0x40\n  mstore\n    /* \"ERC20.sol\":5801:6183  keccak256(... */\n  dup1\n  mload\n  swap1\n  0x20\n  add\n  keccak256\n    /* \"ERC20.sol\":5782:6183  return... */\n  swap1\n  pop\n    /* \"ERC20.sol\":5698:6190  function computeDomainSeparator() internal view virtual returns (bytes32) {... */\n  swap1\n  jump\t// out\n    /* \"SquiddyCore.sol\":144:9971  contract SquiddyCore is ERC4626 {... */\ntag_9:\n  dup3\n  dup1\n  sload\n  tag_23\n  swap1\n  tag_24\n  jump\t// in\ntag_23:\n  swap1\n  0x00\n  mstore\n  keccak256(0x00, 0x20)\n  swap1\n  0x1f\n  add\n  0x20\n  swap1\n  div\n  dup2\n  add\n  swap3\n  dup3\n  tag_26\n  jumpi\n  0x00\n  dup6\n  sstore\n  jump(tag_25)\ntag_26:\n  dup3\n  0x1f\n  lt\n  tag_27\n  jumpi\n  dup1\n  mload\n  not(0xff)\n  and\n  dup4\n  dup1\n  add\n  or\n  dup6\n  sstore\n  jump(tag_25)\ntag_27:\n  dup3\n  dup1\n  add\n  0x01\n  add\n  dup6\n  sstore\n  dup3\n  iszero\n  tag_25\n  jumpi\n  swap2\n  dup3\n  add\ntag_28:\n  dup3\n  dup2\n  gt\n  iszero\n  tag_29\n  jumpi\n  dup3\n  mload\n  dup3\n  sstore\n  swap2\n  0x20\n  add\n  swap2\n  swap1\n  0x01\n  add\n  swap1\n  jump(tag_28)\ntag_29:\ntag_25:\n  pop\n  swap1\n  pop\n  tag_30\n  swap2\n  swap1\n  tag_31\n  jump\t// in\ntag_30:\n  pop\n  swap1\n  jump\t// out\ntag_31:\ntag_32:\n  dup1\n  dup3\n  gt\n  iszero\n  tag_33\n  jumpi\n  0x00\n  dup2\n  0x00\n  swap1\n  sstore\n  pop\n  0x01\n  add\n  jump(tag_32)\ntag_33:\n  pop\n  swap1\n  jump\t// out\n    /* \"#utility.yul\":7:82   */\ntag_34:\n    /* \"#utility.yul\":40:46   */\n  0x00\n    /* \"#utility.yul\":73:75   */\n  0x40\n    /* \"#utility.yul\":67:76   */\n  mload\n    /* \"#utility.yul\":57:76   */\n  swap1\n  pop\n    /* \"#utility.yul\":7:82   */\n  swap1\n  jump\t// out\n    /* \"#utility.yul\":88:205   */\ntag_35:\n    /* \"#utility.yul\":197:198   */\n  0x00\n    /* \"#utility.yul\":194:195   */\n  dup1\n    /* \"#utility.yul\":187:199   */\n  revert\n    /* \"#utility.yul\":211:328   */\ntag_36:\n    /* \"#utility.yul\":320:321   */\n  0x00\n    /* \"#utility.yul\":317:318   */\n  dup1\n    /* \"#utility.yul\":310:322   */\n  revert\n    /* \"#utility.yul\":334:460   */\ntag_37:\n    /* \"#utility.yul\":371:378   */\n  0x00\n    /* \"#utility.yul\":411:453   */\n  0xffffffffffffffffffffffffffffffffffffffff\n    /* \"#utility.yul\":404:409   */\n  dup3\n    /* \"#utility.yul\":400:454   */\n  and\n    /* \"#utility.yul\":389:454   */\n  swap1\n  pop\n    /* \"#utility.yul\":334:460   */\n  swap2\n  swap1\n  pop\n  jump\t// out\n    /* \"#utility.yul\":466:562   */\ntag_38:\n    /* \"#utility.yul\":503:510   */\n  0x00\n    /* \"#utility.yul\":532:556   */\n  tag_74\n    /* \"#utility.yul\":550:555   */\n  dup3\n    /* \"#utility.yul\":532:556   */\n  tag_37\n  jump\t// in\ntag_74:\n    /* \"#utility.yul\":521:556   */\n  swap1\n  pop\n    /* \"#utility.yul\":466:562   */\n  swap2\n  swap1\n  pop\n  jump\t// out\n    /* \"#utility.yul\":568:677   */\ntag_39:\n    /* \"#utility.yul\":618:625   */\n  0x00\n    /* \"#utility.yul\":647:671   */\n  tag_76\n    /* \"#utility.yul\":665:670   */\n  dup3\n    /* \"#utility.yul\":647:671   */\n  tag_38\n  jump\t// in\ntag_76:\n    /* \"#utility.yul\":636:671   */\n  swap1\n  pop\n    /* \"#utility.yul\":568:677   */\n  swap2\n  swap1\n  pop\n  jump\t// out\n    /* \"#utility.yul\":683:831   */\ntag_40:\n    /* \"#utility.yul\":769:806   */\n  tag_78\n    /* \"#utility.yul\":800:805   */\n  dup2\n    /* \"#utility.yul\":769:806   */\n  tag_39\n  jump\t// in\ntag_78:\n    /* \"#utility.yul\":762:767   */\n  dup2\n    /* \"#utility.yul\":759:807   */\n  eq\n    /* \"#utility.yul\":749:825   */\n  tag_79\n  jumpi\n    /* \"#utility.yul\":821:822   */\n  0x00\n    /* \"#utility.yul\":818:819   */\n  dup1\n    /* \"#utility.yul\":811:823   */\n  revert\n    /* \"#utility.yul\":749:825   */\ntag_79:\n    /* \"#utility.yul\":683:831   */\n  pop\n  jump\t// out\n    /* \"#utility.yul\":837:1006   */\ntag_41:\n    /* \"#utility.yul\":907:912   */\n  0x00\n    /* \"#utility.yul\":938:944   */\n  dup2\n    /* \"#utility.yul\":932:945   */\n  mload\n    /* \"#utility.yul\":923:945   */\n  swap1\n  pop\n    /* \"#utility.yul\":954:1000   */\n  tag_81\n    /* \"#utility.yul\":994:999   */\n  dup2\n    /* \"#utility.yul\":954:1000   */\n  tag_40\n  jump\t// in\ntag_81:\n    /* \"#utility.yul\":837:1006   */\n  swap3\n  swap2\n  pop\n  pop\n  jump\t// out\n    /* \"#utility.yul\":1012:1129   */\ntag_42:\n    /* \"#utility.yul\":1121:1122   */\n  0x00\n    /* \"#utility.yul\":1118:1119   */\n  dup1\n    /* \"#utility.yul\":1111:1123   */\n  revert\n    /* \"#utility.yul\":1135:1252   */\ntag_43:\n    /* \"#utility.yul\":1244:1245   */\n  0x00\n    /* \"#utility.yul\":1241:1242   */\n  dup1\n    /* \"#utility.yul\":1234:1246   */\n  revert\n    /* \"#utility.yul\":1258:1360   */\ntag_44:\n    /* \"#utility.yul\":1299:1305   */\n  0x00\n    /* \"#utility.yul\":1350:1352   */\n  0x1f\n    /* \"#utility.yul\":1346:1353   */\n  not\n    /* \"#utility.yul\":1341:1343   */\n  0x1f\n    /* \"#utility.yul\":1334:1339   */\n  dup4\n    /* \"#utility.yul\":1330:1344   */\n  add\n    /* \"#utility.yul\":1326:1354   */\n  and\n    /* \"#utility.yul\":1316:1354   */\n  swap1\n  pop\n    /* \"#utility.yul\":1258:1360   */\n  swap2\n  swap1\n  pop\n  jump\t// out\n    /* \"#utility.yul\":1366:1546   */\ntag_45:\n    /* \"#utility.yul\":1414:1491   */\n  0x4e487b7100000000000000000000000000000000000000000000000000000000\n    /* \"#utility.yul\":1411:1412   */\n  0x00\n    /* \"#utility.yul\":1404:1492   */\n  mstore\n    /* \"#utility.yul\":1511:1515   */\n  0x41\n    /* \"#utility.yul\":1508:1509   */\n  0x04\n    /* \"#utility.yul\":1501:1516   */\n  mstore\n    /* \"#utility.yul\":1535:1539   */\n  0x24\n    /* \"#utility.yul\":1532:1533   */\n  0x00\n    /* \"#utility.yul\":1525:1540   */\n  revert\n    /* \"#utility.yul\":1552:1833   */\ntag_46:\n    /* \"#utility.yul\":1635:1662   */\n  tag_87\n    /* \"#utility.yul\":1657:1661   */\n  dup3\n    /* \"#utility.yul\":1635:1662   */\n  tag_44\n  jump\t// in\ntag_87:\n    /* \"#utility.yul\":1627:1633   */\n  dup2\n    /* \"#utility.yul\":1623:1663   */\n  add\n    /* \"#utility.yul\":1765:1771   */\n  dup2\n    /* \"#utility.yul\":1753:1763   */\n  dup2\n    /* \"#utility.yul\":1750:1772   */\n  lt\n    /* \"#utility.yul\":1729:1747   */\n  0xffffffffffffffff\n    /* \"#utility.yul\":1717:1727   */\n  dup3\n    /* \"#utility.yul\":1714:1748   */\n  gt\n    /* \"#utility.yul\":1711:1773   */\n  or\n    /* \"#utility.yul\":1708:1796   */\n  iszero\n  tag_88\n  jumpi\n    /* \"#utility.yul\":1776:1794   */\n  tag_89\n  tag_45\n  jump\t// in\ntag_89:\n    /* \"#utility.yul\":1708:1796   */\ntag_88:\n    /* \"#utility.yul\":1816:1826   */\n  dup1\n    /* \"#utility.yul\":1812:1814   */\n  0x40\n    /* \"#utility.yul\":1805:1827   */\n  mstore\n    /* \"#utility.yul\":1595:1833   */\n  pop\n    /* \"#utility.yul\":1552:1833   */\n  pop\n  pop\n  jump\t// out\n    /* \"#utility.yul\":1839:1968   */\ntag_47:\n    /* \"#utility.yul\":1873:1879   */\n  0x00\n    /* \"#utility.yul\":1900:1920   */\n  tag_91\n  tag_34\n  jump\t// in\ntag_91:\n    /* \"#utility.yul\":1890:1920   */\n  swap1\n  pop\n    /* \"#utility.yul\":1929:1962   */\n  tag_92\n    /* \"#utility.yul\":1957:1961   */\n  dup3\n    /* \"#utility.yul\":1949:1955   */\n  dup3\n    /* \"#utility.yul\":1929:1962   */\n  tag_46\n  jump\t// in\ntag_92:\n    /* \"#utility.yul\":1839:1968   */\n  swap2\n  swap1\n  pop\n  jump\t// out\n    /* \"#utility.yul\":1974:2282   */\ntag_48:\n    /* \"#utility.yul\":2036:2040   */\n  0x00\n    /* \"#utility.yul\":2126:2144   */\n  0xffffffffffffffff\n    /* \"#utility.yul\":2118:2124   */\n  dup3\n    /* \"#utility.yul\":2115:2145   */\n  gt\n    /* \"#utility.yul\":2112:2168   */\n  iszero\n  tag_94\n  jumpi\n    /* \"#utility.yul\":2148:2166   */\n  tag_95\n  tag_45\n  jump\t// in\ntag_95:\n    /* \"#utility.yul\":2112:2168   */\ntag_94:\n    /* \"#utility.yul\":2186:2215   */\n  tag_96\n    /* \"#utility.yul\":2208:2214   */\n  dup3\n    /* \"#utility.yul\":2186:2215   */\n  tag_44\n  jump\t// in\ntag_96:\n    /* \"#utility.yul\":2178:2215   */\n  swap1\n  pop\n    /* \"#utility.yul\":2270:2274   */\n  0x20\n    /* \"#utility.yul\":2264:2268   */\n  dup2\n    /* \"#utility.yul\":2260:2275   */\n  add\n    /* \"#utility.yul\":2252:2275   */\n  swap1\n  pop\n    /* \"#utility.yul\":1974:2282   */\n  swap2\n  swap1\n  pop\n  jump\t// out\n    /* \"#utility.yul\":2288:2595   */\ntag_49:\n    /* \"#utility.yul\":2356:2357   */\n  0x00\n    /* \"#utility.yul\":2366:2479   */\ntag_98:\n    /* \"#utility.yul\":2380:2386   */\n  dup4\n    /* \"#utility.yul\":2377:2378   */\n  dup2\n    /* \"#utility.yul\":2374:2387   */\n  lt\n    /* \"#utility.yul\":2366:2479   */\n  iszero\n  tag_100\n  jumpi\n    /* \"#utility.yul\":2465:2466   */\n  dup1\n    /* \"#utility.yul\":2460:2463   */\n  dup3\n    /* \"#utility.yul\":2456:2467   */\n  add\n    /* \"#utility.yul\":2450:2468   */\n  mload\n    /* \"#utility.yul\":2446:2447   */\n  dup2\n    /* \"#utility.yul\":2441:2444   */\n  dup5\n    /* \"#utility.yul\":2437:2448   */\n  add\n    /* \"#utility.yul\":2430:2469   */\n  mstore\n    /* \"#utility.yul\":2402:2404   */\n  0x20\n    /* \"#utility.yul\":2399:2400   */\n  dup2\n    /* \"#utility.yul\":2395:2405   */\n  add\n    /* \"#utility.yul\":2390:2405   */\n  swap1\n  pop\n    /* \"#utility.yul\":2366:2479   */\n  jump(tag_98)\ntag_100:\n    /* \"#utility.yul\":2497:2503   */\n  dup4\n    /* \"#utility.yul\":2494:2495   */\n  dup2\n    /* \"#utility.yul\":2491:2504   */\n  gt\n    /* \"#utility.yul\":2488:2589   */\n  iszero\n  tag_101\n  jumpi\n    /* \"#utility.yul\":2577:2578   */\n  0x00\n    /* \"#utility.yul\":2568:2574   */\n  dup5\n    /* \"#utility.yul\":2563:2566   */\n  dup5\n    /* \"#utility.yul\":2559:2575   */\n  add\n    /* \"#utility.yul\":2552:2579   */\n  mstore\n    /* \"#utility.yul\":2488:2589   */\ntag_101:\n    /* \"#utility.yul\":2337:2595   */\n  pop\n    /* \"#utility.yul\":2288:2595   */\n  pop\n  pop\n  pop\n  jump\t// out\n    /* \"#utility.yul\":2601:3022   */\ntag_50:\n    /* \"#utility.yul\":2690:2695   */\n  0x00\n    /* \"#utility.yul\":2715:2781   */\n  tag_103\n    /* \"#utility.yul\":2731:2780   */\n  tag_104\n    /* \"#utility.yul\":2773:2779   */\n  dup5\n    /* \"#utility.yul\":2731:2780   */\n  tag_48\n  jump\t// in\ntag_104:\n    /* \"#utility.yul\":2715:2781   */\n  tag_47\n  jump\t// in\ntag_103:\n    /* \"#utility.yul\":2706:2781   */\n  swap1\n  pop\n    /* \"#utility.yul\":2804:2810   */\n  dup3\n    /* \"#utility.yul\":2797:2802   */\n  dup2\n    /* \"#utility.yul\":2790:2811   */\n  mstore\n    /* \"#utility.yul\":2842:2846   */\n  0x20\n    /* \"#utility.yul\":2835:2840   */\n  dup2\n    /* \"#utility.yul\":2831:2847   */\n  add\n    /* \"#utility.yul\":2880:2883   */\n  dup5\n    /* \"#utility.yul\":2871:2877   */\n  dup5\n    /* \"#utility.yul\":2866:2869   */\n  dup5\n    /* \"#utility.yul\":2862:2878   */\n  add\n    /* \"#utility.yul\":2859:2884   */\n  gt\n    /* \"#utility.yul\":2856:2968   */\n  iszero\n  tag_105\n  jumpi\n    /* \"#utility.yul\":2887:2966   */\n  tag_106\n  tag_43\n  jump\t// in\ntag_106:\n    /* \"#utility.yul\":2856:2968   */\ntag_105:\n    /* \"#utility.yul\":2977:3016   */\n  tag_107\n    /* \"#utility.yul\":3009:3015   */\n  dup5\n    /* \"#utility.yul\":3004:3007   */\n  dup3\n    /* \"#utility.yul\":2999:3002   */\n  dup6\n    /* \"#utility.yul\":2977:3016   */\n  tag_49\n  jump\t// in\ntag_107:\n    /* \"#utility.yul\":2696:3022   */\n  pop\n    /* \"#utility.yul\":2601:3022   */\n  swap4\n  swap3\n  pop\n  pop\n  pop\n  jump\t// out\n    /* \"#utility.yul\":3042:3397   */\ntag_51:\n    /* \"#utility.yul\":3109:3114   */\n  0x00\n    /* \"#utility.yul\":3158:3161   */\n  dup3\n    /* \"#utility.yul\":3151:3155   */\n  0x1f\n    /* \"#utility.yul\":3143:3149   */\n  dup4\n    /* \"#utility.yul\":3139:3156   */\n  add\n    /* \"#utility.yul\":3135:3162   */\n  slt\n    /* \"#utility.yul\":3125:3247   */\n  tag_109\n  jumpi\n    /* \"#utility.yul\":3166:3245   */\n  tag_110\n  tag_42\n  jump\t// in\ntag_110:\n    /* \"#utility.yul\":3125:3247   */\ntag_109:\n    /* \"#utility.yul\":3276:3282   */\n  dup2\n    /* \"#utility.yul\":3270:3283   */\n  mload\n    /* \"#utility.yul\":3301:3391   */\n  tag_111\n    /* \"#utility.yul\":3387:3390   */\n  dup5\n    /* \"#utility.yul\":3379:3385   */\n  dup3\n    /* \"#utility.yul\":3372:3376   */\n  0x20\n    /* \"#utility.yul\":3364:3370   */\n  dup7\n    /* \"#utility.yul\":3360:3377   */\n  add\n    /* \"#utility.yul\":3301:3391   */\n  tag_50\n  jump\t// in\ntag_111:\n    /* \"#utility.yul\":3292:3391   */\n  swap2\n  pop\n    /* \"#utility.yul\":3115:3397   */\n  pop\n    /* \"#utility.yul\":3042:3397   */\n  swap3\n  swap2\n  pop\n  pop\n  jump\t// out\n    /* \"#utility.yul\":3403:3489   */\ntag_52:\n    /* \"#utility.yul\":3438:3445   */\n  0x00\n    /* \"#utility.yul\":3478:3482   */\n  0xff\n    /* \"#utility.yul\":3471:3476   */\n  dup3\n    /* \"#utility.yul\":3467:3483   */\n  and\n    /* \"#utility.yul\":3456:3483   */\n  swap1\n  pop\n    /* \"#utility.yul\":3403:3489   */\n  swap2\n  swap1\n  pop\n  jump\t// out\n    /* \"#utility.yul\":3495:3613   */\ntag_53:\n    /* \"#utility.yul\":3566:3588   */\n  tag_114\n    /* \"#utility.yul\":3582:3587   */\n  dup2\n    /* \"#utility.yul\":3566:3588   */\n  tag_52\n  jump\t// in\ntag_114:\n    /* \"#utility.yul\":3559:3564   */\n  dup2\n    /* \"#utility.yul\":3556:3589   */\n  eq\n    /* \"#utility.yul\":3546:3607   */\n  tag_115\n  jumpi\n    /* \"#utility.yul\":3603:3604   */\n  0x00\n    /* \"#utility.yul\":3600:3601   */\n  dup1\n    /* \"#utility.yul\":3593:3605   */\n  revert\n    /* \"#utility.yul\":3546:3607   */\ntag_115:\n    /* \"#utility.yul\":3495:3613   */\n  pop\n  jump\t// out\n    /* \"#utility.yul\":3619:3758   */\ntag_54:\n    /* \"#utility.yul\":3674:3679   */\n  0x00\n    /* \"#utility.yul\":3705:3711   */\n  dup2\n    /* \"#utility.yul\":3699:3712   */\n  mload\n    /* \"#utility.yul\":3690:3712   */\n  swap1\n  pop\n    /* \"#utility.yul\":3721:3752   */\n  tag_117\n    /* \"#utility.yul\":3746:3751   */\n  dup2\n    /* \"#utility.yul\":3721:3752   */\n  tag_53\n  jump\t// in\ntag_117:\n    /* \"#utility.yul\":3619:3758   */\n  swap3\n  swap2\n  pop\n  pop\n  jump\t// out\n    /* \"#utility.yul\":3764:4952   */\ntag_3:\n    /* \"#utility.yul\":3892:3898   */\n  0x00\n    /* \"#utility.yul\":3900:3906   */\n  dup1\n    /* \"#utility.yul\":3908:3914   */\n  0x00\n    /* \"#utility.yul\":3916:3922   */\n  dup1\n    /* \"#utility.yul\":3965:3968   */\n  0x80\n    /* \"#utility.yul\":3953:3962   */\n  dup6\n    /* \"#utility.yul\":3944:3951   */\n  dup8\n    /* \"#utility.yul\":3940:3963   */\n  sub\n    /* \"#utility.yul\":3936:3969   */\n  slt\n    /* \"#utility.yul\":3933:4053   */\n  iszero\n  tag_119\n  jumpi\n    /* \"#utility.yul\":3972:4051   */\n  tag_120\n  tag_35\n  jump\t// in\ntag_120:\n    /* \"#utility.yul\":3933:4053   */\ntag_119:\n    /* \"#utility.yul\":4092:4093   */\n  0x00\n    /* \"#utility.yul\":4117:4194   */\n  tag_121\n    /* \"#utility.yul\":4186:4193   */\n  dup8\n    /* \"#utility.yul\":4177:4183   */\n  dup3\n    /* \"#utility.yul\":4166:4175   */\n  dup9\n    /* \"#utility.yul\":4162:4184   */\n  add\n    /* \"#utility.yul\":4117:4194   */\n  tag_41\n  jump\t// in\ntag_121:\n    /* \"#utility.yul\":4107:4194   */\n  swap5\n  pop\n    /* \"#utility.yul\":4063:4204   */\n  pop\n    /* \"#utility.yul\":4264:4266   */\n  0x20\n    /* \"#utility.yul\":4253:4262   */\n  dup6\n    /* \"#utility.yul\":4249:4267   */\n  add\n    /* \"#utility.yul\":4243:4268   */\n  mload\n    /* \"#utility.yul\":4295:4313   */\n  0xffffffffffffffff\n    /* \"#utility.yul\":4287:4293   */\n  dup2\n    /* \"#utility.yul\":4284:4314   */\n  gt\n    /* \"#utility.yul\":4281:4398   */\n  iszero\n  tag_122\n  jumpi\n    /* \"#utility.yul\":4317:4396   */\n  tag_123\n  tag_36\n  jump\t// in\ntag_123:\n    /* \"#utility.yul\":4281:4398   */\ntag_122:\n    /* \"#utility.yul\":4422:4496   */\n  tag_124\n    /* \"#utility.yul\":4488:4495   */\n  dup8\n    /* \"#utility.yul\":4479:4485   */\n  dup3\n    /* \"#utility.yul\":4468:4477   */\n  dup9\n    /* \"#utility.yul\":4464:4486   */\n  add\n    /* \"#utility.yul\":4422:4496   */\n  tag_51\n  jump\t// in\ntag_124:\n    /* \"#utility.yul\":4412:4496   */\n  swap4\n  pop\n    /* \"#utility.yul\":4214:4506   */\n  pop\n    /* \"#utility.yul\":4566:4568   */\n  0x40\n    /* \"#utility.yul\":4555:4564   */\n  dup6\n    /* \"#utility.yul\":4551:4569   */\n  add\n    /* \"#utility.yul\":4545:4570   */\n  mload\n    /* \"#utility.yul\":4597:4615   */\n  0xffffffffffffffff\n    /* \"#utility.yul\":4589:4595   */\n  dup2\n    /* \"#utility.yul\":4586:4616   */\n  gt\n    /* \"#utility.yul\":4583:4700   */\n  iszero\n  tag_125\n  jumpi\n    /* \"#utility.yul\":4619:4698   */\n  tag_126\n  tag_36\n  jump\t// in\ntag_126:\n    /* \"#utility.yul\":4583:4700   */\ntag_125:\n    /* \"#utility.yul\":4724:4798   */\n  tag_127\n    /* \"#utility.yul\":4790:4797   */\n  dup8\n    /* \"#utility.yul\":4781:4787   */\n  dup3\n    /* \"#utility.yul\":4770:4779   */\n  dup9\n    /* \"#utility.yul\":4766:4788   */\n  add\n    /* \"#utility.yul\":4724:4798   */\n  tag_51\n  jump\t// in\ntag_127:\n    /* \"#utility.yul\":4714:4798   */\n  swap3\n  pop\n    /* \"#utility.yul\":4516:4808   */\n  pop\n    /* \"#utility.yul\":4847:4849   */\n  0x60\n    /* \"#utility.yul\":4873:4935   */\n  tag_128\n    /* \"#utility.yul\":4927:4934   */\n  dup8\n    /* \"#utility.yul\":4918:4924   */\n  dup3\n    /* \"#utility.yul\":4907:4916   */\n  dup9\n    /* \"#utility.yul\":4903:4925   */\n  add\n    /* \"#utility.yul\":4873:4935   */\n  tag_54\n  jump\t// in\ntag_128:\n    /* \"#utility.yul\":4863:4935   */\n  swap2\n  pop\n    /* \"#utility.yul\":4818:4945   */\n  pop\n    /* \"#utility.yul\":3764:4952   */\n  swap3\n  swap6\n  swap2\n  swap5\n  pop\n  swap3\n  pop\n  jump\t// out\n    /* \"#utility.yul\":4958:5138   */\ntag_55:\n    /* \"#utility.yul\":5006:5083   */\n  0x4e487b7100000000000000000000000000000000000000000000000000000000\n    /* \"#utility.yul\":5003:5004   */\n  0x00\n    /* \"#utility.yul\":4996:5084   */\n  mstore\n    /* \"#utility.yul\":5103:5107   */\n  0x11\n    /* \"#utility.yul\":5100:5101   */\n  0x04\n    /* \"#utility.yul\":5093:5108   */\n  mstore\n    /* \"#utility.yul\":5127:5131   */\n  0x24\n    /* \"#utility.yul\":5124:5125   */\n  0x00\n    /* \"#utility.yul\":5117:5132   */\n  revert\n    /* \"#utility.yul\":5144:5246   */\ntag_56:\n    /* \"#utility.yul\":5186:5194   */\n  0x00\n    /* \"#utility.yul\":5233:5238   */\n  dup2\n    /* \"#utility.yul\":5230:5231   */\n  0x01\n    /* \"#utility.yul\":5226:5239   */\n  shr\n    /* \"#utility.yul\":5205:5239   */\n  swap1\n  pop\n    /* \"#utility.yul\":5144:5246   */\n  swap2\n  swap1\n  pop\n  jump\t// out\n    /* \"#utility.yul\":5252:6100   */\ntag_57:\n    /* \"#utility.yul\":5313:5318   */\n  0x00\n    /* \"#utility.yul\":5320:5324   */\n  dup1\n    /* \"#utility.yul\":5344:5350   */\n  dup3\n    /* \"#utility.yul\":5335:5350   */\n  swap2\n  pop\n    /* \"#utility.yul\":5368:5373   */\n  dup4\n    /* \"#utility.yul\":5359:5373   */\n  swap1\n  pop\n    /* \"#utility.yul\":5382:6094   */\ntag_132:\n    /* \"#utility.yul\":5403:5404   */\n  0x01\n    /* \"#utility.yul\":5393:5401   */\n  dup6\n    /* \"#utility.yul\":5390:5405   */\n  gt\n    /* \"#utility.yul\":5382:6094   */\n  iszero\n  tag_134\n  jumpi\n    /* \"#utility.yul\":5498:5502   */\n  dup1\n    /* \"#utility.yul\":5493:5496   */\n  dup7\n    /* \"#utility.yul\":5489:5503   */\n  div\n    /* \"#utility.yul\":5483:5487   */\n  dup2\n    /* \"#utility.yul\":5480:5504   */\n  gt\n    /* \"#utility.yul\":5477:5527   */\n  iszero\n  tag_135\n  jumpi\n    /* \"#utility.yul\":5507:5525   */\n  tag_136\n  tag_55\n  jump\t// in\ntag_136:\n    /* \"#utility.yul\":5477:5527   */\ntag_135:\n    /* \"#utility.yul\":5557:5558   */\n  0x01\n    /* \"#utility.yul\":5547:5555   */\n  dup6\n    /* \"#utility.yul\":5543:5559   */\n  and\n    /* \"#utility.yul\":5540:5991   */\n  iszero\n  tag_137\n  jumpi\n    /* \"#utility.yul\":5972:5976   */\n  dup1\n    /* \"#utility.yul\":5965:5970   */\n  dup3\n    /* \"#utility.yul\":5961:5977   */\n  mul\n    /* \"#utility.yul\":5952:5977   */\n  swap2\n  pop\n    /* \"#utility.yul\":5540:5991   */\ntag_137:\n    /* \"#utility.yul\":6022:6026   */\n  dup1\n    /* \"#utility.yul\":6016:6020   */\n  dup2\n    /* \"#utility.yul\":6012:6027   */\n  mul\n    /* \"#utility.yul\":6004:6027   */\n  swap1\n  pop\n    /* \"#utility.yul\":6052:6084   */\n  tag_138\n    /* \"#utility.yul\":6075:6083   */\n  dup6\n    /* \"#utility.yul\":6052:6084   */\n  tag_56\n  jump\t// in\ntag_138:\n    /* \"#utility.yul\":6040:6084   */\n  swap5\n  pop\n    /* \"#utility.yul\":5382:6094   */\n  jump(tag_132)\ntag_134:\n    /* \"#utility.yul\":5252:6100   */\n  swap5\n  pop\n  swap5\n  swap3\n  pop\n  pop\n  pop\n  jump\t// out\n    /* \"#utility.yul\":6106:7179   */\ntag_58:\n    /* \"#utility.yul\":6160:6165   */\n  0x00\n    /* \"#utility.yul\":6351:6359   */\n  dup3\n    /* \"#utility.yul\":6341:6381   */\n  tag_140\n  jumpi\n    /* \"#utility.yul\":6372:6373   */\n  0x01\n    /* \"#utility.yul\":6363:6373   */\n  swap1\n  pop\n    /* \"#utility.yul\":6374:6379   */\n  jump(tag_139)\n    /* \"#utility.yul\":6341:6381   */\ntag_140:\n    /* \"#utility.yul\":6400:6404   */\n  dup2\n    /* \"#utility.yul\":6390:6426   */\n  tag_141\n  jumpi\n    /* \"#utility.yul\":6417:6418   */\n  0x00\n    /* \"#utility.yul\":6408:6418   */\n  swap1\n  pop\n    /* \"#utility.yul\":6419:6424   */\n  jump(tag_139)\n    /* \"#utility.yul\":6390:6426   */\ntag_141:\n    /* \"#utility.yul\":6486:6490   */\n  dup2\n    /* \"#utility.yul\":6534:6535   */\n  0x01\n    /* \"#utility.yul\":6529:6556   */\n  dup2\n  eq\n  tag_143\n  jumpi\n    /* \"#utility.yul\":6570:6571   */\n  0x02\n    /* \"#utility.yul\":6565:6756   */\n  dup2\n  eq\n  tag_144\n  jumpi\n    /* \"#utility.yul\":6479:6756   */\n  jump(tag_142)\n    /* \"#utility.yul\":6529:6556   */\ntag_143:\n    /* \"#utility.yul\":6547:6548   */\n  0x01\n    /* \"#utility.yul\":6538:6548   */\n  swap2\n  pop\n    /* \"#utility.yul\":6549:6554   */\n  pop\n  jump(tag_139)\n    /* \"#utility.yul\":6565:6756   */\ntag_144:\n    /* \"#utility.yul\":6610:6613   */\n  0xff\n    /* \"#utility.yul\":6600:6608   */\n  dup5\n    /* \"#utility.yul\":6597:6614   */\n  gt\n    /* \"#utility.yul\":6594:6637   */\n  iszero\n  tag_145\n  jumpi\n    /* \"#utility.yul\":6617:6635   */\n  tag_146\n  tag_55\n  jump\t// in\ntag_146:\n    /* \"#utility.yul\":6594:6637   */\ntag_145:\n    /* \"#utility.yul\":6666:6674   */\n  dup4\n    /* \"#utility.yul\":6663:6664   */\n  0x02\n    /* \"#utility.yul\":6659:6675   */\n  exp\n    /* \"#utility.yul\":6650:6675   */\n  swap2\n  pop\n    /* \"#utility.yul\":6701:6704   */\n  dup5\n    /* \"#utility.yul\":6694:6699   */\n  dup3\n    /* \"#utility.yul\":6691:6705   */\n  gt\n    /* \"#utility.yul\":6688:6728   */\n  iszero\n  tag_147\n  jumpi\n    /* \"#utility.yul\":6708:6726   */\n  tag_148\n  tag_55\n  jump\t// in\ntag_148:\n    /* \"#utility.yul\":6688:6728   */\ntag_147:\n    /* \"#utility.yul\":6741:6746   */\n  pop\n  jump(tag_139)\n    /* \"#utility.yul\":6479:6756   */\ntag_142:\n  pop\n    /* \"#utility.yul\":6865:6867   */\n  0x20\n    /* \"#utility.yul\":6855:6863   */\n  dup4\n    /* \"#utility.yul\":6852:6868   */\n  lt\n    /* \"#utility.yul\":6846:6849   */\n  0x0133\n    /* \"#utility.yul\":6840:6844   */\n  dup4\n    /* \"#utility.yul\":6837:6850   */\n  lt\n    /* \"#utility.yul\":6833:6869   */\n  and\n    /* \"#utility.yul\":6815:6817   */\n  0x4e\n    /* \"#utility.yul\":6805:6813   */\n  dup5\n    /* \"#utility.yul\":6802:6818   */\n  lt\n    /* \"#utility.yul\":6797:6799   */\n  0x0b\n    /* \"#utility.yul\":6791:6795   */\n  dup5\n    /* \"#utility.yul\":6788:6800   */\n  lt\n    /* \"#utility.yul\":6784:6819   */\n  and\n    /* \"#utility.yul\":6768:6879   */\n  or\n    /* \"#utility.yul\":6765:7011   */\n  iszero\n  tag_149\n  jumpi\n    /* \"#utility.yul\":6921:6929   */\n  dup3\n    /* \"#utility.yul\":6915:6919   */\n  dup3\n    /* \"#utility.yul\":6911:6930   */\n  exp\n    /* \"#utility.yul\":6902:6930   */\n  swap1\n  pop\n    /* \"#utility.yul\":6956:6959   */\n  dup4\n    /* \"#utility.yul\":6949:6954   */\n  dup2\n    /* \"#utility.yul\":6946:6960   */\n  gt\n    /* \"#utility.yul\":6943:6983   */\n  iszero\n  tag_150\n  jumpi\n    /* \"#utility.yul\":6963:6981   */\n  tag_151\n  tag_55\n  jump\t// in\ntag_151:\n    /* \"#utility.yul\":6943:6983   */\ntag_150:\n    /* \"#utility.yul\":6996:7001   */\n  jump(tag_139)\n    /* \"#utility.yul\":6765:7011   */\ntag_149:\n    /* \"#utility.yul\":7036:7078   */\n  tag_152\n    /* \"#utility.yul\":7074:7077   */\n  dup5\n    /* \"#utility.yul\":7064:7072   */\n  dup5\n    /* \"#utility.yul\":7058:7062   */\n  dup5\n    /* \"#utility.yul\":7055:7056   */\n  0x01\n    /* \"#utility.yul\":7036:7078   */\n  tag_57\n  jump\t// in\ntag_152:\n    /* \"#utility.yul\":7021:7078   */\n  swap3\n  pop\n  swap1\n  pop\n    /* \"#utility.yul\":7110:7114   */\n  dup2\n    /* \"#utility.yul\":7105:7108   */\n  dup5\n    /* \"#utility.yul\":7101:7115   */\n  div\n    /* \"#utility.yul\":7094:7099   */\n  dup2\n    /* \"#utility.yul\":7091:7116   */\n  gt\n    /* \"#utility.yul\":7088:7139   */\n  iszero\n  tag_153\n  jumpi\n    /* \"#utility.yul\":7119:7137   */\n  tag_154\n  tag_55\n  jump\t// in\ntag_154:\n    /* \"#utility.yul\":7088:7139   */\ntag_153:\n    /* \"#utility.yul\":7168:7172   */\n  dup2\n    /* \"#utility.yul\":7161:7166   */\n  dup2\n    /* \"#utility.yul\":7157:7173   */\n  mul\n    /* \"#utility.yul\":7148:7173   */\n  swap1\n  pop\n    /* \"#utility.yul\":6106:7179   */\ntag_139:\n  swap4\n  swap3\n  pop\n  pop\n  pop\n  jump\t// out\n    /* \"#utility.yul\":7185:7262   */\ntag_59:\n    /* \"#utility.yul\":7222:7229   */\n  0x00\n    /* \"#utility.yul\":7251:7256   */\n  dup2\n    /* \"#utility.yul\":7240:7256   */\n  swap1\n  pop\n    /* \"#utility.yul\":7185:7262   */\n  swap2\n  swap1\n  pop\n  jump\t// out\n    /* \"#utility.yul\":7268:7549   */\ntag_16:\n    /* \"#utility.yul\":7326:7331   */\n  0x00\n    /* \"#utility.yul\":7350:7373   */\n  tag_157\n    /* \"#utility.yul\":7368:7372   */\n  dup3\n    /* \"#utility.yul\":7350:7373   */\n  tag_59\n  jump\t// in\ntag_157:\n    /* \"#utility.yul\":7342:7373   */\n  swap2\n  pop\n    /* \"#utility.yul\":7394:7419   */\n  tag_158\n    /* \"#utility.yul\":7410:7418   */\n  dup4\n    /* \"#utility.yul\":7394:7419   */\n  tag_52\n  jump\t// in\ntag_158:\n    /* \"#utility.yul\":7382:7419   */\n  swap3\n  pop\n    /* \"#utility.yul\":7438:7542   */\n  tag_159\n    /* \"#utility.yul\":7475:7541   */\n  0xffffffffffffffffffffffffffffffffffffffffffffffffffffffffffffffff\n    /* \"#utility.yul\":7465:7473   */\n  dup5\n    /* \"#utility.yul\":7459:7463   */\n  dup5\n    /* \"#utility.yul\":7438:7542   */\n  tag_58\n  jump\t// in\ntag_159:\n    /* \"#utility.yul\":7429:7542   */\n  swap1\n  pop\n    /* \"#utility.yul\":7268:7549   */\n  swap3\n  swap2\n  pop\n  pop\n  jump\t// out\n    /* \"#utility.yul\":7555:7735   */\ntag_60:\n    /* \"#utility.yul\":7603:7680   */\n  0x4e487b7100000000000000000000000000000000000000000000000000000000\n    /* \"#utility.yul\":7600:7601   */\n  0x00\n    /* \"#utility.yul\":7593:7681   */\n  mstore\n    /* \"#utility.yul\":7700:7704   */\n  0x22\n    /* \"#utility.yul\":7697:7698   */\n  0x04\n    /* \"#utility.yul\":7690:7705   */\n  mstore\n    /* \"#utility.yul\":7724:7728   */\n  0x24\n    /* \"#utility.yul\":7721:7722   */\n  0x00\n    /* \"#utility.yul\":7714:7729   */\n  revert\n    /* \"#utility.yul\":7741:8061   */\ntag_24:\n    /* \"#utility.yul\":7785:7791   */\n  0x00\n    /* \"#utility.yul\":7822:7823   */\n  0x02\n    /* \"#utility.yul\":7816:7820   */\n  dup3\n    /* \"#utility.yul\":7812:7824   */\n  div\n    /* \"#utility.yul\":7802:7824   */\n  swap1\n  pop\n    /* \"#utility.yul\":7869:7870   */\n  0x01\n    /* \"#utility.yul\":7863:7867   */\n  dup3\n    /* \"#utility.yul\":7859:7871   */\n  and\n    /* \"#utility.yul\":7890:7908   */\n  dup1\n    /* \"#utility.yul\":7880:7961   */\n  tag_162\n  jumpi\n    /* \"#utility.yul\":7946:7950   */\n  0x7f\n    /* \"#utility.yul\":7938:7944   */\n  dup3\n    /* \"#utility.yul\":7934:7951   */\n  and\n    /* \"#utility.yul\":7924:7951   */\n  swap2\n  pop\n    /* \"#utility.yul\":7880:7961   */\ntag_162:\n    /* \"#utility.yul\":8008:8010   */\n  0x20\n    /* \"#utility.yul\":8000:8006   */\n  dup3\n    /* \"#utility.yul\":7997:8011   */\n  lt\n    /* \"#utility.yul\":7977:7995   */\n  dup2\n    /* \"#utility.yul\":7974:8012   */\n  eq\n    /* \"#utility.yul\":7971:8055   */\n  iszero\n  tag_163\n  jumpi\n    /* \"#utility.yul\":8027:8045   */\n  tag_164\n  tag_60\n  jump\t// in\ntag_164:\n    /* \"#utility.yul\":7971:8055   */\ntag_163:\n    /* \"#utility.yul\":7792:8061   */\n  pop\n    /* \"#utility.yul\":7741:8061   */\n  swap2\n  swap1\n  pop\n  jump\t// out\n    /* \"#utility.yul\":8067:8214   */\ntag_61:\n    /* \"#utility.yul\":8168:8179   */\n  0x00\n    /* \"#utility.yul\":8205:8208   */\n  dup2\n    /* \"#utility.yul\":8190:8208   */\n  swap1\n  pop\n    /* \"#utility.yul\":8067:8214   */\n  swap3\n  swap2\n  pop\n  pop\n  jump\t// out\n    /* \"#utility.yul\":8220:8364   */\ntag_62:\n    /* \"#utility.yul\":8272:8276   */\n  0x00\n    /* \"#utility.yul\":8295:8298   */\n  dup2\n    /* \"#utility.yul\":8287:8298   */\n  swap1\n  pop\n    /* \"#utility.yul\":8318:8321   */\n  dup2\n    /* \"#utility.yul\":8315:8316   */\n  0x00\n    /* \"#utility.yul\":8308:8322   */\n  mstore\n    /* \"#utility.yul\":8352:8356   */\n  0x20\n    /* \"#utility.yul\":8349:8350   */\n  0x00\n    /* \"#utility.yul\":8339:8357   */\n  keccak256\n    /* \"#utility.yul\":8331:8357   */\n  swap1\n  pop\n    /* \"#utility.yul\":8220:8364   */\n  swap2\n  swap1\n  pop\n  jump\t// out\n    /* \"#utility.yul\":8392:9241   */\ntag_63:\n    /* \"#utility.yul\":8497:8500   */\n  0x00\n    /* \"#utility.yul\":8534:8539   */\n  dup2\n    /* \"#utility.yul\":8528:8540   */\n  sload\n    /* \"#utility.yul\":8563:8599   */\n  tag_168\n    /* \"#utility.yul\":8589:8598   */\n  dup2\n    /* \"#utility.yul\":8563:8599   */\n  tag_24\n  jump\t// in\ntag_168:\n    /* \"#utility.yul\":8615:8703   */\n  tag_169\n    /* \"#utility.yul\":8696:8702   */\n  dup2\n    /* \"#utility.yul\":8691:8694   */\n  dup7\n    /* \"#utility.yul\":8615:8703   */\n  tag_61\n  jump\t// in\ntag_169:\n    /* \"#utility.yul\":8608:8703   */\n  swap5\n  pop\n    /* \"#utility.yul\":8734:8735   */\n  0x01\n    /* \"#utility.yul\":8723:8732   */\n  dup3\n    /* \"#utility.yul\":8719:8736   */\n  and\n    /* \"#utility.yul\":8750:8751   */\n  0x00\n    /* \"#utility.yul\":8745:8882   */\n  dup2\n  eq\n  tag_171\n  jumpi\n    /* \"#utility.yul\":8896:8897   */\n  0x01\n    /* \"#utility.yul\":8891:9235   */\n  dup2\n  eq\n  tag_172\n  jumpi\n    /* \"#utility.yul\":8712:9235   */\n  jump(tag_170)\n    /* \"#utility.yul\":8745:8882   */\ntag_171:\n    /* \"#utility.yul\":8829:8833   */\n  0xff\n    /* \"#utility.yul\":8825:8834   */\n  not\n    /* \"#utility.yul\":8814:8823   */\n  dup4\n    /* \"#utility.yul\":8810:8835   */\n  and\n    /* \"#utility.yul\":8805:8808   */\n  dup7\n    /* \"#utility.yul\":8798:8836   */\n  mstore\n    /* \"#utility.yul\":8865:8871   */\n  dup2\n    /* \"#utility.yul\":8860:8863   */\n  dup7\n    /* \"#utility.yul\":8856:8872   */\n  add\n    /* \"#utility.yul\":8849:8872   */\n  swap4\n  pop\n    /* \"#utility.yul\":8745:8882   */\n  jump(tag_170)\n    /* \"#utility.yul\":8891:9235   */\ntag_172:\n    /* \"#utility.yul\":8958:8999   */\n  tag_173\n    /* \"#utility.yul\":8993:8998   */\n  dup6\n    /* \"#utility.yul\":8958:8999   */\n  tag_62\n  jump\t// in\ntag_173:\n    /* \"#utility.yul\":9021:9022   */\n  0x00\n    /* \"#utility.yul\":9035:9189   */\ntag_174:\n    /* \"#utility.yul\":9049:9055   */\n  dup4\n    /* \"#utility.yul\":9046:9047   */\n  dup2\n    /* \"#utility.yul\":9043:9056   */\n  lt\n    /* \"#utility.yul\":9035:9189   */\n  iszero\n  tag_176\n  jumpi\n    /* \"#utility.yul\":9123:9130   */\n  dup2\n    /* \"#utility.yul\":9117:9131   */\n  sload\n    /* \"#utility.yul\":9113:9114   */\n  dup2\n    /* \"#utility.yul\":9108:9111   */\n  dup10\n    /* \"#utility.yul\":9104:9115   */\n  add\n    /* \"#utility.yul\":9097:9132   */\n  mstore\n    /* \"#utility.yul\":9173:9174   */\n  0x01\n    /* \"#utility.yul\":9164:9171   */\n  dup3\n    /* \"#utility.yul\":9160:9175   */\n  add\n    /* \"#utility.yul\":9149:9175   */\n  swap2\n  pop\n    /* \"#utility.yul\":9071:9075   */\n  0x20\n    /* \"#utility.yul\":9068:9069   */\n  dup2\n    /* \"#utility.yul\":9064:9076   */\n  add\n    /* \"#utility.yul\":9059:9076   */\n  swap1\n  pop\n    /* \"#utility.yul\":9035:9189   */\n  jump(tag_174)\ntag_176:\n    /* \"#utility.yul\":9218:9224   */\n  dup4\n    /* \"#utility.yul\":9213:9216   */\n  dup9\n    /* \"#utility.yul\":9209:9225   */\n  add\n    /* \"#utility.yul\":9202:9225   */\n  swap6\n  pop\n    /* \"#utility.yul\":8898:9235   */\n  pop\n  pop\n    /* \"#utility.yul\":8712:9235   */\ntag_170:\n  pop\n    /* \"#utility.yul\":8501:9241   */\n  pop\n  pop\n    /* \"#utility.yul\":8392:9241   */\n  swap3\n  swap2\n  pop\n  pop\n  jump\t// out\n    /* \"#utility.yul\":9247:9520   */\ntag_20:\n    /* \"#utility.yul\":9378:9381   */\n  0x00\n    /* \"#utility.yul\":9400:9494   */\n  tag_178\n    /* \"#utility.yul\":9490:9493   */\n  dup3\n    /* \"#utility.yul\":9481:9487   */\n  dup5\n    /* \"#utility.yul\":9400:9494   */\n  tag_63\n  jump\t// in\ntag_178:\n    /* \"#utility.yul\":9393:9494   */\n  swap2\n  pop\n    /* \"#utility.yul\":9511:9514   */\n  dup2\n    /* \"#utility.yul\":9504:9514   */\n  swap1\n  pop\n    /* \"#utility.yul\":9247:9520   */\n  swap3\n  swap2\n  pop\n  pop\n  jump\t// out\n    /* \"#utility.yul\":9526:9603   */\ntag_64:\n    /* \"#utility.yul\":9563:9570   */\n  0x00\n    /* \"#utility.yul\":9592:9597   */\n  dup2\n    /* \"#utility.yul\":9581:9597   */\n  swap1\n  pop\n    /* \"#utility.yul\":9526:9603   */\n  swap2\n  swap1\n  pop\n  jump\t// out\n    /* \"#utility.yul\":9609:9727   */\ntag_65:\n    /* \"#utility.yul\":9696:9720   */\n  tag_181\n    /* \"#utility.yul\":9714:9719   */\n  dup2\n    /* \"#utility.yul\":9696:9720   */\n  tag_64\n  jump\t// in\ntag_181:\n    /* \"#utility.yul\":9691:9694   */\n  dup3\n    /* \"#utility.yul\":9684:9721   */\n  mstore\n    /* \"#utility.yul\":9609:9727   */\n  pop\n  pop\n  jump\t// out\n    /* \"#utility.yul\":9733:9851   */\ntag_66:\n    /* \"#utility.yul\":9820:9844   */\n  tag_183\n    /* \"#utility.yul\":9838:9843   */\n  dup2\n    /* \"#utility.yul\":9820:9844   */\n  tag_59\n  jump\t// in\ntag_183:\n    /* \"#utility.yul\":9815:9818   */\n  dup3\n    /* \"#utility.yul\":9808:9845   */\n  mstore\n    /* \"#utility.yul\":9733:9851   */\n  pop\n  pop\n  jump\t// out\n    /* \"#utility.yul\":9857:9975   */\ntag_67:\n    /* \"#utility.yul\":9944:9968   */\n  tag_185\n    /* \"#utility.yul\":9962:9967   */\n  dup2\n    /* \"#utility.yul\":9944:9968   */\n  tag_38\n  jump\t// in\ntag_185:\n    /* \"#utility.yul\":9939:9942   */\n  dup3\n    /* \"#utility.yul\":9932:9969   */\n  mstore\n    /* \"#utility.yul\":9857:9975   */\n  pop\n  pop\n  jump\t// out\n    /* \"#utility.yul\":9981:10645   */\ntag_22:\n    /* \"#utility.yul\":10186:10190   */\n  0x00\n    /* \"#utility.yul\":10224:10227   */\n  0xa0\n    /* \"#utility.yul\":10213:10222   */\n  dup3\n    /* \"#utility.yul\":10209:10228   */\n  add\n    /* \"#utility.yul\":10201:10228   */\n  swap1\n  pop\n    /* \"#utility.yul\":10238:10309   */\n  tag_187\n    /* \"#utility.yul\":10306:10307   */\n  0x00\n    /* \"#utility.yul\":10295:10304   */\n  dup4\n    /* \"#utility.yul\":10291:10308   */\n  add\n    /* \"#utility.yul\":10282:10288   */\n  dup9\n    /* \"#utility.yul\":10238:10309   */\n  tag_65\n  jump\t// in\ntag_187:\n    /* \"#utility.yul\":10319:10391   */\n  tag_188\n    /* \"#utility.yul\":10387:10389   */\n  0x20\n    /* \"#utility.yul\":10376:10385   */\n  dup4\n    /* \"#utility.yul\":10372:10390   */\n  add\n    /* \"#utility.yul\":10363:10369   */\n  dup8\n    /* \"#utility.yul\":10319:10391   */\n  tag_65\n  jump\t// in\ntag_188:\n    /* \"#utility.yul\":10401:10473   */\n  tag_189\n    /* \"#utility.yul\":10469:10471   */\n  0x40\n    /* \"#utility.yul\":10458:10467   */\n  dup4\n    /* \"#utility.yul\":10454:10472   */\n  add\n    /* \"#utility.yul\":10445:10451   */\n  dup7\n    /* \"#utility.yul\":10401:10473   */\n  tag_65\n  jump\t// in\ntag_189:\n    /* \"#utility.yul\":10483:10555   */\n  tag_190\n    /* \"#utility.yul\":10551:10553   */\n  0x60\n    /* \"#utility.yul\":10540:10549   */\n  dup4\n    /* \"#utility.yul\":10536:10554   */\n  add\n    /* \"#utility.yul\":10527:10533   */\n  dup6\n    /* \"#utility.yul\":10483:10555   */\n  tag_66\n  jump\t// in\ntag_190:\n    /* \"#utility.yul\":10565:10638   */\n  tag_191\n    /* \"#utility.yul\":10633:10636   */\n  0x80\n    /* \"#utility.yul\":10622:10631   */\n  dup4\n    /* \"#utility.yul\":10618:10637   */\n  add\n    /* \"#utility.yul\":10609:10615   */\n  dup5\n    /* \"#utility.yul\":10565:10638   */\n  tag_67\n  jump\t// in\ntag_191:\n    /* \"#utility.yul\":9981:10645   */\n  swap7\n  swap6\n  pop\n  pop\n  pop\n  pop\n  pop\n  pop\n  jump\t// out\n    /* \"SquiddyCore.sol\":144:9971  contract SquiddyCore is ERC4626 {... */\ntag_17:\n  mload(0x80)\n  mload(0xa0)\n  mload(0xc0)\n  mload(0xe0)\n  mload(0x0100)\n  mload(0x0120)\n  codecopy(0x00, dataOffset(sub_0), dataSize(sub_0))\n  0x00\n  assignImmutable(\"0x6b5c062ff531e4aab4774f509e92f4d1142a84e2071479e43245c0e4a7940df4\")\n  0x00\n  assignImmutable(\"0xae7d027a27a067b0ce216b860399a31145ba05bee5d36a5aedd4d9d773c92c99\")\n  0x00\n  assignImmutable(\"0xecac27c21aa9a89d7be9ad03c2d91e82cbd466284ecdf2bd5bad7f953539cc45\")\n  0x00\n  assignImmutable(\"0x880de8116b3dfac28e9ff528a9fef1d1e0a51449c1addce011ffec1f302992b6\")\n  0x00\n  assignImmutable(\"0xd67d834462ca31eaef1f30157e31659f60355143b7441e6fc7d9eae1fa79f3f8\")\n  0x00\n  assignImmutable(\"0x6585423cb6456b1d4957f6454d2f004f0c4f58d53a00082412d5c2ef4b1b31fd\")\n  return(0x00, dataSize(sub_0))\nstop\n\nsub_0: assembly {\n        /* \"SquiddyCore.sol\":144:9971  contract SquiddyCore is ERC4626 {... */\n      mstore(0x40, 0x80)\n      jumpi(tag_1, lt(calldatasize, 0x04))\n      shr(0xe0, calldataload(0x00))\n      dup1\n      0x8bf0a96e\n      gt\n      tag_49\n      jumpi\n      dup1\n      0xc63d75b6\n      gt\n      tag_50\n      jumpi\n      dup1\n      0xdd62ed3e\n      gt\n      tag_51\n      jumpi\n      dup1\n      0xdd62ed3e\n      eq\n      tag_43\n      jumpi\n      dup1\n      0xecad9565\n      eq\n      tag_44\n      jumpi\n      dup1\n      0xef8b30f7\n      eq\n      tag_45\n      jumpi\n      dup1\n      0xf2fde38b\n      eq\n      tag_46\n      jumpi\n      dup1\n      0xf84d73f4\n      eq\n      tag_47\n      jumpi\n      dup1\n      0xfc407ae7\n      eq\n      tag_48\n      jumpi\n      jump(tag_2)\n    tag_51:\n      dup1\n      0xc63d75b6\n      eq\n      tag_37\n      jumpi\n      dup1\n      0xc6e6f592\n      eq\n      tag_38\n      jumpi\n      dup1\n      0xce96cb77\n      eq\n      tag_39\n      jumpi\n      dup1\n      0xd505accf\n      eq\n      tag_40\n      jumpi\n      dup1\n      0xd905777e\n      eq\n      tag_41\n      jumpi\n      dup1\n      0xdc9a1535\n      eq\n      tag_42\n      jumpi\n      jump(tag_2)\n    tag_50:\n      dup1\n      0xb3d7f6b9\n      gt\n      tag_52\n      jumpi\n      dup1\n      0xb3d7f6b9\n      eq\n      tag_31\n      jumpi\n      dup1\n      0xb460af94\n      eq\n      tag_32\n      jumpi\n      dup1\n      0xba087652\n      eq\n      tag_33\n      jumpi\n      dup1\n      0xbc368a8a\n      eq\n      tag_34\n      jumpi\n      dup1\n      0xbd662f88\n      eq\n      tag_35\n      jumpi\n      dup1\n      0xc5d664c6\n      eq\n      tag_36\n      jumpi\n      jump(tag_2)\n    tag_52:\n      dup1\n      0x8bf0a96e\n      eq\n      tag_26\n      jumpi\n      dup1\n      0x94bf804d\n      eq\n      tag_27\n      jumpi\n      dup1\n      0x95d89b41\n      eq\n      tag_28\n      jumpi\n      dup1\n      0xa9059cbb\n      eq\n      tag_29\n      jumpi\n      dup1\n      0xac68a748\n      eq\n      tag_30\n      jumpi\n      jump(tag_2)\n    tag_49:\n      dup1\n      0x38d52e0f\n      gt\n      tag_53\n      jumpi\n      dup1\n      0x70a08231\n      gt\n      tag_54\n      jumpi\n      dup1\n      0x70a08231\n      eq\n      tag_20\n      jumpi\n      dup1\n      0x715018a6\n      eq\n      tag_21\n      jumpi\n      dup1\n      0x7ce3489b\n      eq\n      tag_22\n      jumpi\n      dup1\n      0x7ecebe00\n      eq\n      tag_23\n      jumpi\n      dup1\n      0x7fd6f15c\n      eq\n      tag_24\n      jumpi\n      dup1\n      0x83197ef0\n      eq\n      tag_25\n      jumpi\n      jump(tag_2)\n    tag_54:\n      dup1\n      0x38d52e0f\n      eq\n      tag_14\n      jumpi\n      dup1\n      0x392e53cd\n      eq\n      tag_15\n      jumpi\n      dup1\n      0x402d267d\n      eq\n      tag_16\n      jumpi\n      dup1\n      0x481c6a75\n      eq\n      tag_17\n      jumpi\n      dup1\n      0x4cdad506\n      eq\n      tag_18\n      jumpi\n      dup1\n      0x6e553f65\n      eq\n      tag_19\n      jumpi\n      jump(tag_2)\n    tag_53:\n      dup1\n      0x18160ddd\n      gt\n      tag_55\n      jumpi\n      dup1\n      0x18160ddd\n      eq\n      tag_8\n      jumpi\n      dup1\n      0x1c693478\n      eq\n      tag_9\n      jumpi\n      dup1\n      0x23b872dd\n      eq\n      tag_10\n      jumpi\n      dup1\n      0x313ce567\n      eq\n      tag_11\n      jumpi\n      dup1\n      0x32ff7732\n      eq\n      tag_12\n      jumpi\n      dup1\n      0x3644e515\n      eq\n      tag_13\n      jumpi\n      jump(tag_2)\n    tag_55:\n      dup1\n      0x01e1d114\n      eq\n      tag_3\n      jumpi\n      dup1\n      0x06fdde03\n      eq\n      tag_4\n      jumpi\n      dup1\n      0x07a2d13a\n      eq\n      tag_5\n      jumpi\n      dup1\n      0x095ea7b3\n      eq\n      tag_6\n      jumpi\n      dup1\n      0x0a28a477\n      eq\n      tag_7\n      jumpi\n      jump(tag_2)\n    tag_1:\n      jumpi(tag_2, calldatasize)\n      stop\n    tag_2:\n      0x00\n      dup1\n      revert\n        /* \"SquiddyCore.sol\":7947:8063  function totalAssets() public view override returns (uint256) {... */\n    tag_3:\n      callvalue\n      dup1\n      iszero\n      tag_58\n      jumpi\n      0x00\n      dup1\n      revert\n    tag_58:\n      pop\n      tag_59\n      tag_60\n      jump\t// in\n    tag_59:\n      mload(0x40)\n      tag_61\n      swap2\n      swap1\n      tag_62\n      jump\t// in\n    tag_61:\n      mload(0x40)\n      dup1\n      swap2\n      sub\n      swap1\n      return\n        /* \"ERC20.sol\":1061:1079  string public name */\n    tag_4:\n      callvalue\n      dup1\n      iszero\n      tag_63\n      jumpi\n      0x00\n      dup1\n      revert\n    tag_63:\n      pop\n      tag_64\n      tag_65\n      jump\t// in\n    tag_64:\n      mload(0x40)\n      tag_66\n      swap2\n      swap1\n      tag_67\n      jump\t// in\n    tag_66:\n      mload(0x40)\n      dup1\n      swap2\n      sub\n      swap1\n      return\n        /* \"ERC4626.sol\":4620:4913  function convertToAssets(uint256 shares)... */\n    tag_5:\n      callvalue\n      dup1\n      iszero\n      tag_68\n      jumpi\n      0x00\n      dup1\n      revert\n    tag_68:\n      pop\n      tag_69\n      0x04\n      dup1\n      calldatasize\n      sub\n      dup2\n      add\n      swap1\n      tag_70\n      swap2\n      swap1\n      tag_71\n      jump\t// in\n    tag_70:\n      tag_72\n      jump\t// in\n    tag_69:\n      mload(0x40)\n      tag_73\n      swap2\n      swap1\n      tag_62\n      jump\t// in\n    tag_73:\n      mload(0x40)\n      dup1\n      swap2\n      sub\n      swap1\n      return\n        /* \"ERC20.sol\":2491:2730  function approve(address spender, uint256 amount)... */\n    tag_6:\n      callvalue\n      dup1\n      iszero\n      tag_74\n      jumpi\n      0x00\n      dup1\n      revert\n    tag_74:\n      pop\n      tag_75\n      0x04\n      dup1\n      calldatasize\n      sub\n      dup2\n      add\n      swap1\n      tag_76\n      swap2\n      swap1\n      tag_77\n      jump\t// in\n    tag_76:\n      tag_78\n      jump\t// in\n    tag_75:\n      mload(0x40)\n      tag_79\n      swap2\n      swap1\n      tag_80\n      jump\t// in\n    tag_79:\n      mload(0x40)\n      dup1\n      swap2\n      sub\n      swap1\n      return\n        /* \"ERC4626.sol\":5343:5634  function previewWithdraw(uint256 assets)... */\n    tag_7:\n      callvalue\n      dup1\n      iszero\n      tag_81\n      jumpi\n      0x00\n      dup1\n      revert\n    tag_81:\n      pop\n      tag_82\n      0x04\n      dup1\n      calldatasize\n      sub\n      dup2\n      add\n      swap1\n      tag_83\n      swap2\n      swap1\n      tag_71\n      jump\t// in\n    tag_83:\n      tag_84\n      jump\t// in\n    tag_82:\n      mload(0x40)\n      tag_85\n      swap2\n      swap1\n      tag_62\n      jump\t// in\n    tag_85:\n      mload(0x40)\n      dup1\n      swap2\n      sub\n      swap1\n      return\n        /* \"ERC20.sol\":1334:1360  uint256 public totalSupply */\n    tag_8:\n      callvalue\n      dup1\n      iszero\n      tag_86\n      jumpi\n      0x00\n      dup1\n      revert\n    tag_86:\n      pop\n      tag_87\n      tag_88\n      jump\t// in\n    tag_87:\n      mload(0x40)\n      tag_89\n      swap2\n      swap1\n      tag_62\n      jump\t// in\n    tag_89:\n      mload(0x40)\n      dup1\n      swap2\n      sub\n      swap1\n      return\n        /* \"SquiddyCore.sol\":4840:4873  uint256 public targetFloatPercent */\n    tag_9:\n      callvalue\n      dup1\n      iszero\n      tag_90\n      jumpi\n      0x00\n      dup1\n      revert\n    tag_90:\n      pop\n      tag_91\n      tag_92\n      jump\t// in\n    tag_91:\n      mload(0x40)\n      tag_93\n      swap2\n      swap1\n      tag_62\n      jump\t// in\n    tag_93:\n      mload(0x40)\n      dup1\n      swap2\n      sub\n      swap1\n      return\n        /* \"ERC20.sol\":3143:3747  function transferFrom(... */\n    tag_10:\n      callvalue\n      dup1\n      iszero\n      tag_94\n      jumpi\n      0x00\n      dup1\n      revert\n    tag_94:\n      pop\n      tag_95\n      0x04\n      dup1\n      calldatasize\n      sub\n      dup2\n      add\n      swap1\n      tag_96\n      swap2\n      swap1\n      tag_97\n      jump\t// in\n    tag_96:\n      tag_98\n      jump\t// in\n    tag_95:\n      mload(0x40)\n      tag_99\n      swap2\n      swap1\n      tag_80\n      jump\t// in\n    tag_99:\n      mload(0x40)\n      dup1\n      swap2\n      sub\n      swap1\n      return\n        /* \"ERC20.sol\":1113:1144  uint8 public immutable decimals */\n    tag_11:\n      callvalue\n      dup1\n      iszero\n      tag_100\n      jumpi\n      0x00\n      dup1\n      revert\n    tag_100:\n      pop\n      tag_101\n      tag_102\n      jump\t// in\n    tag_101:\n      mload(0x40)\n      tag_103\n      swap2\n      swap1\n      tag_104\n      jump\t// in\n    tag_103:\n      mload(0x40)\n      dup1\n      swap2\n      sub\n      swap1\n      return\n        /* \"SquiddyCore.sol\":6057:6560  function setUnderlyingIsWETH(bool newUnderlyingIsWETH)... */\n    tag_12:\n      callvalue\n      dup1\n      iszero\n      tag_105\n      jumpi\n      0x00\n      dup1\n      revert\n    tag_105:\n      pop\n      tag_106\n      0x04\n      dup1\n      calldatasize\n      sub\n      dup2\n      add\n      swap1\n      tag_107\n      swap2\n      swap1\n      tag_108\n      jump\t// in\n    tag_107:\n      tag_109\n      jump\t// in\n    tag_106:\n      stop\n        /* \"ERC20.sol\":5471:5692  function DOMAIN_SEPARATOR() public view virtual returns (bytes32) {... */\n    tag_13:\n      callvalue\n      dup1\n      iszero\n      tag_110\n      jumpi\n      0x00\n      dup1\n      revert\n    tag_110:\n      pop\n      tag_111\n      tag_112\n      jump\t// in\n    tag_111:\n      mload(0x40)\n      tag_113\n      swap2\n      swap1\n      tag_114\n      jump\t// in\n    tag_113:\n      mload(0x40)\n      dup1\n      swap2\n      sub\n      swap1\n      return\n        /* \"ERC4626.sol\":1165:1193  ERC20 public immutable asset */\n    tag_14:\n      callvalue\n      dup1\n      iszero\n      tag_115\n      jumpi\n      0x00\n      dup1\n      revert\n    tag_115:\n      pop\n      tag_116\n      tag_117\n      jump\t// in\n    tag_116:\n      mload(0x40)\n      tag_118\n      swap2\n      swap1\n      tag_119\n      jump\t// in\n    tag_118:\n      mload(0x40)\n      dup1\n      swap2\n      sub\n      swap1\n      return\n        /* \"SquiddyCore.sol\":8611:8636  bool public isInitialized */\n    tag_15:\n      callvalue\n      dup1\n      iszero\n      tag_120\n      jumpi\n      0x00\n      dup1\n      revert\n    tag_120:\n      pop\n      tag_121\n      tag_122\n      jump\t// in\n    tag_121:\n      mload(0x40)\n      tag_123\n      swap2\n      swap1\n      tag_80\n      jump\t// in\n    tag_123:\n      mload(0x40)\n      dup1\n      swap2\n      sub\n      swap1\n      return\n        /* \"ERC4626.sol\":5997:6105  function maxDeposit(address) public view virtual returns (uint256) {... */\n    tag_16:\n      callvalue\n      dup1\n      iszero\n      tag_124\n      jumpi\n      0x00\n      dup1\n      revert\n    tag_124:\n      pop\n      tag_125\n      0x04\n      dup1\n      calldatasize\n      sub\n      dup2\n      add\n      swap1\n      tag_126\n      swap2\n      swap1\n      tag_127\n      jump\t// in\n    tag_126:\n      tag_128\n      jump\t// in\n    tag_125:\n      mload(0x40)\n      tag_129\n      swap2\n      swap1\n      tag_62\n      jump\t// in\n    tag_129:\n      mload(0x40)\n      dup1\n      swap2\n      sub\n      swap1\n      return\n        /* \"SquiddyCore.sol\":2392:2481  function manager() public view virtual returns (address) {... */\n    tag_17:\n      callvalue\n      dup1\n      iszero\n      tag_130\n      jumpi\n      0x00\n      dup1\n      revert\n    tag_130:\n      pop\n      tag_131\n      tag_132\n      jump\t// in\n    tag_131:\n      mload(0x40)\n      tag_133\n      swap2\n      swap1\n      tag_134\n      jump\t// in\n    tag_133:\n      mload(0x40)\n      dup1\n      swap2\n      sub\n      swap1\n      return\n        /* \"ERC4626.sol\":5640:5800  function previewRedeem(uint256 shares)... */\n    tag_18:\n      callvalue\n      dup1\n      iszero\n      tag_135\n      jumpi\n      0x00\n      dup1\n      revert\n    tag_135:\n      pop\n      tag_136\n      0x04\n      dup1\n      calldatasize\n      sub\n      dup2\n      add\n      swap1\n      tag_137\n      swap2\n      swap1\n      tag_71\n      jump\t// in\n    tag_137:\n      tag_138\n      jump\t// in\n    tag_136:\n      mload(0x40)\n      tag_139\n      swap2\n      swap1\n      tag_62\n      jump\t// in\n    tag_139:\n      mload(0x40)\n      dup1\n      swap2\n      sub\n      swap1\n      return\n        /* \"ERC4626.sol\":1583:2127  function deposit(uint256 assets, address receiver)... */\n    tag_19:\n      callvalue\n      dup1\n      iszero\n      tag_140\n      jumpi\n      0x00\n      dup1\n      revert\n    tag_140:\n      pop\n      tag_141\n      0x04\n      dup1\n      calldatasize\n      sub\n      dup2\n      add\n      swap1\n      tag_142\n      swap2\n      swap1\n      tag_143\n      jump\t// in\n    tag_142:\n      tag_144\n      jump\t// in\n    tag_141:\n      mload(0x40)\n      tag_145\n      swap2\n      swap1\n      tag_62\n      jump\t// in\n    tag_145:\n      mload(0x40)\n      dup1\n      swap2\n      sub\n      swap1\n      return\n        /* \"ERC20.sol\":1367:1411  mapping(address => uint256) public balanceOf */\n    tag_20:\n      callvalue\n      dup1\n      iszero\n      tag_146\n      jumpi\n      0x00\n      dup1\n      revert\n    tag_146:\n      pop\n      tag_147\n      0x04\n      dup1\n      calldatasize\n      sub\n      dup2\n      add\n      swap1\n      tag_148\n      swap2\n      swap1\n      tag_127\n      jump\t// in\n    tag_148:\n      tag_149\n      jump\t// in\n    tag_147:\n      mload(0x40)\n      tag_150\n      swap2\n      swap1\n      tag_62\n      jump\t// in\n    tag_150:\n      mload(0x40)\n      dup1\n      swap2\n      sub\n      swap1\n      return\n        /* \"SquiddyCore.sol\":2660:2811  function renounceOwnership() public virtual onlyManager {... */\n    tag_21:\n      callvalue\n      dup1\n      iszero\n      tag_151\n      jumpi\n      0x00\n      dup1\n      revert\n    tag_151:\n      pop\n      tag_152\n      tag_153\n      jump\t// in\n    tag_152:\n      stop\n        /* \"SquiddyCore.sol\":3736:4059  function setFeePercent(uint256 newFeePercent) external onlyManager {... */\n    tag_22:\n      callvalue\n      dup1\n      iszero\n      tag_154\n      jumpi\n      0x00\n      dup1\n      revert\n    tag_154:\n      pop\n      tag_155\n      0x04\n      dup1\n      calldatasize\n      sub\n      dup2\n      add\n      swap1\n      tag_156\n      swap2\n      swap1\n      tag_71\n      jump\t// in\n    tag_156:\n      tag_157\n      jump\t// in\n    tag_155:\n      stop\n        /* \"ERC20.sol\":1781:1822  mapping(address => uint256) public nonces */\n    tag_23:\n      callvalue\n      dup1\n      iszero\n      tag_158\n      jumpi\n      0x00\n      dup1\n      revert\n    tag_158:\n      pop\n      tag_159\n      0x04\n      dup1\n      calldatasize\n      sub\n      dup2\n      add\n      swap1\n      tag_160\n      swap2\n      swap1\n      tag_127\n      jump\t// in\n    tag_160:\n      tag_161\n      jump\t// in\n    tag_159:\n      mload(0x40)\n      tag_162\n      swap2\n      swap1\n      tag_62\n      jump\t// in\n    tag_162:\n      mload(0x40)\n      dup1\n      swap2\n      sub\n      swap1\n      return\n        /* \"SquiddyCore.sol\":3607:3632  uint256 public feePercent */\n    tag_24:\n      callvalue\n      dup1\n      iszero\n      tag_163\n      jumpi\n      0x00\n      dup1\n      revert\n    tag_163:\n      pop\n      tag_164\n      tag_165\n      jump\t// in\n    tag_164:\n      mload(0x40)\n      tag_166\n      swap2\n      swap1\n      tag_62\n      jump\t// in\n    tag_166:\n      mload(0x40)\n      dup1\n      swap2\n      sub\n      swap1\n      return\n        /* \"SquiddyCore.sol\":9509:9599  function destroy() external onlyManager {... */\n    tag_25:\n      callvalue\n      dup1\n      iszero\n      tag_167\n      jumpi\n      0x00\n      dup1\n      revert\n    tag_167:\n      pop\n      tag_168\n      tag_169\n      jump\t// in\n    tag_168:\n      stop\n        /* \"SquiddyCore.sol\":8814:9362  function initialize(address _searcher, uint160 _duration ) external onlyManager {... */\n    tag_26:\n      callvalue\n      dup1\n      iszero\n      tag_170\n      jumpi\n      0x00\n      dup1\n      revert\n    tag_170:\n      pop\n      tag_171\n      0x04\n      dup1\n      calldatasize\n      sub\n      dup2\n      add\n      swap1\n      tag_172\n      swap2\n      swap1\n      tag_173\n      jump\t// in\n    tag_172:\n      tag_174\n      jump\t// in\n    tag_171:\n      stop\n        /* \"ERC4626.sol\":2133:2628  function mint(uint256 shares, address receiver)... */\n    tag_27:\n      callvalue\n      dup1\n      iszero\n      tag_175\n      jumpi\n      0x00\n      dup1\n      revert\n    tag_175:\n      pop\n      tag_176\n      0x04\n      dup1\n      calldatasize\n      sub\n      dup2\n      add\n      swap1\n      tag_177\n      swap2\n      swap1\n      tag_143\n      jump\t// in\n    tag_177:\n      tag_178\n      jump\t// in\n    tag_176:\n      mload(0x40)\n      tag_179\n      swap2\n      swap1\n      tag_62\n      jump\t// in\n    tag_179:\n      mload(0x40)\n      dup1\n      swap2\n      sub\n      swap1\n      return\n        /* \"ERC20.sol\":1086:1106  string public symbol */\n    tag_28:\n      callvalue\n      dup1\n      iszero\n      tag_180\n      jumpi\n      0x00\n      dup1\n      revert\n    tag_180:\n      pop\n      tag_181\n      tag_182\n      jump\t// in\n    tag_181:\n      mload(0x40)\n      tag_183\n      swap2\n      swap1\n      tag_67\n      jump\t// in\n    tag_183:\n      mload(0x40)\n      dup1\n      swap2\n      sub\n      swap1\n      return\n        /* \"ERC20.sol\":2736:3137  function transfer(address to, uint256 amount)... */\n    tag_29:\n      callvalue\n      dup1\n      iszero\n      tag_184\n      jumpi\n      0x00\n      dup1\n      revert\n    tag_184:\n      pop\n      tag_185\n      0x04\n      dup1\n      calldatasize\n      sub\n      dup2\n      add\n      swap1\n      tag_186\n      swap2\n      swap1\n      tag_77\n      jump\t// in\n    tag_186:\n      tag_187\n      jump\t// in\n    tag_185:\n      mload(0x40)\n      tag_188\n      swap2\n      swap1\n      tag_80\n      jump\t// in\n    tag_188:\n      mload(0x40)\n      dup1\n      swap2\n      sub\n      swap1\n      return\n        /* \"SquiddyCore.sol\":4252:4500  function claimFees(uint256 sVTokenAmount) external onlyManager {... */\n    tag_30:\n      callvalue\n      dup1\n      iszero\n      tag_189\n      jumpi\n      0x00\n      dup1\n      revert\n    tag_189:\n      pop\n      tag_190\n      0x04\n      dup1\n      calldatasize\n      sub\n      dup2\n      add\n      swap1\n      tag_191\n      swap2\n      swap1\n      tag_71\n      jump\t// in\n    tag_191:\n      tag_192\n      jump\t// in\n    tag_190:\n      stop\n        /* \"ERC4626.sol\":5086:5337  function previewMint(uint256 shares) public view virtual returns (uint256) {... */\n    tag_31:\n      callvalue\n      dup1\n      iszero\n      tag_193\n      jumpi\n      0x00\n      dup1\n      revert\n    tag_193:\n      pop\n      tag_194\n      0x04\n      dup1\n      calldatasize\n      sub\n      dup2\n      add\n      swap1\n      tag_195\n      swap2\n      swap1\n      tag_71\n      jump\t// in\n    tag_195:\n      tag_196\n      jump\t// in\n    tag_194:\n      mload(0x40)\n      tag_197\n      swap2\n      swap1\n      tag_62\n      jump\t// in\n    tag_197:\n      mload(0x40)\n      dup1\n      swap2\n      sub\n      swap1\n      return\n        /* \"ERC4626.sol\":2634:3329  function withdraw(... */\n    tag_32:\n      callvalue\n      dup1\n      iszero\n      tag_198\n      jumpi\n      0x00\n      dup1\n      revert\n    tag_198:\n      pop\n      tag_199\n      0x04\n      dup1\n      calldatasize\n      sub\n      dup2\n      add\n      swap1\n      tag_200\n      swap2\n      swap1\n      tag_201\n      jump\t// in\n    tag_200:\n      tag_202\n      jump\t// in\n    tag_199:\n      mload(0x40)\n      tag_203\n      swap2\n      swap1\n      tag_62\n      jump\t// in\n    tag_203:\n      mload(0x40)\n      dup1\n      swap2\n      sub\n      swap1\n      return\n        /* \"ERC4626.sol\":3335:4064  function redeem(... */\n    tag_33:\n      callvalue\n      dup1\n      iszero\n      tag_204\n      jumpi\n      0x00\n      dup1\n      revert\n    tag_204:\n      pop\n      tag_205\n      0x04\n      dup1\n      calldatasize\n      sub\n      dup2\n      add\n      swap1\n      tag_206\n      swap2\n      swap1\n      tag_201\n      jump\t// in\n    tag_206:\n      tag_207\n      jump\t// in\n    tag_205:\n      mload(0x40)\n      tag_208\n      swap2\n      swap1\n      tag_62\n      jump\t// in\n    tag_208:\n      mload(0x40)\n      dup1\n      swap2\n      sub\n      swap1\n      return\n        /* \"SquiddyCore.sol\":218:268  uint256 public beforeWithdrawHookCalledCounter = 0 */\n    tag_34:\n      callvalue\n      dup1\n      iszero\n      tag_209\n      jumpi\n      0x00\n      dup1\n      revert\n    tag_209:\n      pop\n      tag_210\n      tag_211\n      jump\t// in\n    tag_210:\n      mload(0x40)\n      tag_212\n      swap2\n      swap1\n      tag_62\n      jump\t// in\n    tag_212:\n      mload(0x40)\n      dup1\n      swap2\n      sub\n      swap1\n      return\n        /* \"SquiddyCore.sol\":5001:5421  function setTargetFloatPercent(uint256 newTargetFloatPercent)... */\n    tag_35:\n      callvalue\n      dup1\n      iszero\n      tag_213\n      jumpi\n      0x00\n      dup1\n      revert\n    tag_213:\n      pop\n      tag_214\n      0x04\n      dup1\n      calldatasize\n      sub\n      dup2\n      add\n      swap1\n      tag_215\n      swap2\n      swap1\n      tag_71\n      jump\t// in\n    tag_215:\n      tag_216\n      jump\t// in\n    tag_214:\n      stop\n        /* \"SquiddyCore.sol\":370:403  ERC20 public immutable UNDERLYING */\n    tag_36:\n      callvalue\n      dup1\n      iszero\n      tag_217\n      jumpi\n      0x00\n      dup1\n      revert\n    tag_217:\n      pop\n      tag_218\n      tag_219\n      jump\t// in\n    tag_218:\n      mload(0x40)\n      tag_220\n      swap2\n      swap1\n      tag_119\n      jump\t// in\n    tag_220:\n      mload(0x40)\n      dup1\n      swap2\n      sub\n      swap1\n      return\n        /* \"ERC4626.sol\":6111:6216  function maxMint(address) public view virtual returns (uint256) {... */\n    tag_37:\n      callvalue\n      dup1\n      iszero\n      tag_221\n      jumpi\n      0x00\n      dup1\n      revert\n    tag_221:\n      pop\n      tag_222\n      0x04\n      dup1\n      calldatasize\n      sub\n      dup2\n      add\n      swap1\n      tag_223\n      swap2\n      swap1\n      tag_127\n      jump\t// in\n    tag_223:\n      tag_224\n      jump\t// in\n    tag_222:\n      mload(0x40)\n      tag_225\n      swap2\n      swap1\n      tag_62\n      jump\t// in\n    tag_225:\n      mload(0x40)\n      dup1\n      swap2\n      sub\n      swap1\n      return\n        /* \"ERC4626.sol\":4321:4614  function convertToShares(uint256 assets)... */\n    tag_38:\n      callvalue\n      dup1\n      iszero\n      tag_226\n      jumpi\n      0x00\n      dup1\n      revert\n    tag_226:\n      pop\n      tag_227\n      0x04\n      dup1\n      calldatasize\n      sub\n      dup2\n      add\n      swap1\n      tag_228\n      swap2\n      swap1\n      tag_71\n      jump\t// in\n    tag_228:\n      tag_229\n      jump\t// in\n    tag_227:\n      mload(0x40)\n      tag_230\n      swap2\n      swap1\n      tag_62\n      jump\t// in\n    tag_230:\n      mload(0x40)\n      dup1\n      swap2\n      sub\n      swap1\n      return\n        /* \"ERC4626.sol\":6222:6353  function maxWithdraw(address owner) public view virtual returns (uint256) {... */\n    tag_39:\n      callvalue\n      dup1\n      iszero\n      tag_231\n      jumpi\n      0x00\n      dup1\n      revert\n    tag_231:\n      pop\n      tag_232\n      0x04\n      dup1\n      calldatasize\n      sub\n      dup2\n      add\n      swap1\n      tag_233\n      swap2\n      swap1\n      tag_127\n      jump\t// in\n    tag_233:\n      tag_234\n      jump\t// in\n    tag_232:\n      mload(0x40)\n      tag_235\n      swap2\n      swap1\n      tag_62\n      jump\t// in\n    tag_235:\n      mload(0x40)\n      dup1\n      swap2\n      sub\n      swap1\n      return\n        /* \"ERC20.sol\":3936:5465  function permit(... */\n    tag_40:\n      callvalue\n      dup1\n      iszero\n      tag_236\n      jumpi\n      0x00\n      dup1\n      revert\n    tag_236:\n      pop\n      tag_237\n      0x04\n      dup1\n      calldatasize\n      sub\n      dup2\n      add\n      swap1\n      tag_238\n      swap2\n      swap1\n      tag_239\n      jump\t// in\n    tag_238:\n      tag_240\n      jump\t// in\n    tag_237:\n      stop\n        /* \"ERC4626.sol\":6359:6471  function maxRedeem(address owner) public view virtual returns (uint256) {... */\n    tag_41:\n      callvalue\n      dup1\n      iszero\n      tag_241\n      jumpi\n      0x00\n      dup1\n      revert\n    tag_241:\n      pop\n      tag_242\n      0x04\n      dup1\n      calldatasize\n      sub\n      dup2\n      add\n      swap1\n      tag_243\n      swap2\n      swap1\n      tag_127\n      jump\t// in\n    tag_243:\n      tag_244\n      jump\t// in\n    tag_242:\n      mload(0x40)\n      tag_245\n      swap2\n      swap1\n      tag_62\n      jump\t// in\n    tag_245:\n      mload(0x40)\n      dup1\n      swap2\n      sub\n      swap1\n      return\n        /* \"SquiddyCore.sol\":8642:8662  bool public isPublic */\n    tag_42:\n      callvalue\n      dup1\n      iszero\n      tag_246\n      jumpi\n      0x00\n      dup1\n      revert\n    tag_246:\n      pop\n      tag_247\n      tag_248\n      jump\t// in\n    tag_247:\n      mload(0x40)\n      tag_249\n      swap2\n      swap1\n      tag_80\n      jump\t// in\n    tag_249:\n      mload(0x40)\n      dup1\n      swap2\n      sub\n      swap1\n      return\n        /* \"ERC20.sol\":1418:1482  mapping(address => mapping(address => uint256)) public allowance */\n    tag_43:\n      callvalue\n      dup1\n      iszero\n      tag_250\n      jumpi\n      0x00\n      dup1\n      revert\n    tag_250:\n      pop\n      tag_251\n      0x04\n      dup1\n      calldatasize\n      sub\n      dup2\n      add\n      swap1\n      tag_252\n      swap2\n      swap1\n      tag_253\n      jump\t// in\n    tag_252:\n      tag_254\n      jump\t// in\n    tag_251:\n      mload(0x40)\n      tag_255\n      swap2\n      swap1\n      tag_62\n      jump\t// in\n    tag_255:\n      mload(0x40)\n      dup1\n      swap2\n      sub\n      swap1\n      return\n        /* \"SquiddyCore.sol\":6962:6998  uint256 public totalStrategyHoldings */\n    tag_44:\n      callvalue\n      dup1\n      iszero\n      tag_256\n      jumpi\n      0x00\n      dup1\n      revert\n    tag_256:\n      pop\n      tag_257\n      tag_258\n      jump\t// in\n    tag_257:\n      mload(0x40)\n      tag_259\n      swap2\n      swap1\n      tag_62\n      jump\t// in\n    tag_259:\n      mload(0x40)\n      dup1\n      swap2\n      sub\n      swap1\n      return\n        /* \"ERC4626.sol\":4919:5080  function previewDeposit(uint256 assets)... */\n    tag_45:\n      callvalue\n      dup1\n      iszero\n      tag_260\n      jumpi\n      0x00\n      dup1\n      revert\n    tag_260:\n      pop\n      tag_261\n      0x04\n      dup1\n      calldatasize\n      sub\n      dup2\n      add\n      swap1\n      tag_262\n      swap2\n      swap1\n      tag_71\n      jump\t// in\n    tag_262:\n      tag_263\n      jump\t// in\n    tag_261:\n      mload(0x40)\n      tag_264\n      swap2\n      swap1\n      tag_62\n      jump\t// in\n    tag_264:\n      mload(0x40)\n      dup1\n      swap2\n      sub\n      swap1\n      return\n        /* \"SquiddyCore.sol\":2961:3243  function transferOwnership(address newOwner) public virtual onlyManager {... */\n    tag_46:\n      callvalue\n      dup1\n      iszero\n      tag_265\n      jumpi\n      0x00\n      dup1\n      revert\n    tag_265:\n      pop\n      tag_266\n      0x04\n      dup1\n      calldatasize\n      sub\n      dup2\n      add\n      swap1\n      tag_267\n      swap2\n      swap1\n      tag_127\n      jump\t// in\n    tag_267:\n      tag_268\n      jump\t// in\n    tag_266:\n      stop\n        /* \"SquiddyCore.sol\":5772:5800  bool public underlyingIsWETH */\n    tag_47:\n      callvalue\n      dup1\n      iszero\n      tag_269\n      jumpi\n      0x00\n      dup1\n      revert\n    tag_269:\n      pop\n      tag_270\n      tag_271\n      jump\t// in\n    tag_270:\n      mload(0x40)\n      tag_272\n      swap2\n      swap1\n      tag_80\n      jump\t// in\n    tag_272:\n      mload(0x40)\n      dup1\n      swap2\n      sub\n      swap1\n      return\n        /* \"SquiddyCore.sol\":274:322  uint256 public afterDepositHookCalledCounter = 0 */\n    tag_48:\n      callvalue\n      dup1\n      iszero\n      tag_273\n      jumpi\n      0x00\n      dup1\n      revert\n    tag_273:\n      pop\n      tag_274\n      tag_275\n      jump\t// in\n    tag_274:\n      mload(0x40)\n      tag_276\n      swap2\n      swap1\n      tag_62\n      jump\t// in\n    tag_276:\n      mload(0x40)\n      dup1\n      swap2\n      sub\n      swap1\n      return\n        /* \"SquiddyCore.sol\":7947:8063  function totalAssets() public view override returns (uint256) {... */\n    tag_60:\n        /* \"SquiddyCore.sol\":8000:8007  uint256 */\n      0x00\n        /* \"SquiddyCore.sol\":8026:8031  asset */\n      immutable(\"0xecac27c21aa9a89d7be9ad03c2d91e82cbd466284ecdf2bd5bad7f953539cc45\")\n        /* \"SquiddyCore.sol\":8026:8041  asset.balanceOf */\n      0xffffffffffffffffffffffffffffffffffffffff\n      and\n      0x70a08231\n        /* \"SquiddyCore.sol\":8050:8054  this */\n      address\n        /* \"SquiddyCore.sol\":8026:8056  asset.balanceOf(address(this)) */\n      mload(0x40)\n      dup3\n      0xffffffff\n      and\n      0xe0\n      shl\n      dup2\n      mstore\n      0x04\n      add\n      tag_278\n      swap2\n      swap1\n      tag_134\n      jump\t// in\n    tag_278:\n      0x20\n      mload(0x40)\n      dup1\n      dup4\n      sub\n      dup2\n      dup7\n      gas\n      staticcall\n      iszero\n      dup1\n      iszero\n      tag_280\n      jumpi\n      returndatasize\n      0x00\n      dup1\n      returndatacopy\n      revert(0x00, returndatasize)\n    tag_280:\n      pop\n      pop\n      pop\n      pop\n      mload(0x40)\n      returndatasize\n      not(0x1f)\n      0x1f\n      dup3\n      add\n      and\n      dup3\n      add\n      dup1\n      0x40\n      mstore\n      pop\n      dup2\n      add\n      swap1\n      tag_281\n      swap2\n      swap1\n      tag_282\n      jump\t// in\n    tag_281:\n        /* \"SquiddyCore.sol\":8019:8056  return asset.balanceOf(address(this)) */\n      swap1\n      pop\n        /* \"SquiddyCore.sol\":7947:8063  function totalAssets() public view override returns (uint256) {... */\n      swap1\n      jump\t// out\n        /* \"ERC20.sol\":1061:1079  string public name */\n    tag_65:\n      0x00\n      dup1\n      sload\n      tag_283\n      swap1\n      tag_284\n      jump\t// in\n    tag_283:\n      dup1\n      0x1f\n      add\n      0x20\n      dup1\n      swap2\n      div\n      mul\n      0x20\n      add\n      mload(0x40)\n      swap1\n      dup2\n      add\n      0x40\n      mstore\n      dup1\n      swap3\n      swap2\n      swap1\n      dup2\n      dup2\n      mstore\n      0x20\n      add\n      dup3\n      dup1\n      sload\n      tag_285\n      swap1\n      tag_284\n      jump\t// in\n    tag_285:\n      dup1\n      iszero\n      tag_286\n      jumpi\n      dup1\n      0x1f\n      lt\n      tag_287\n      jumpi\n      0x0100\n      dup1\n      dup4\n      sload\n      div\n      mul\n      dup4\n      mstore\n      swap2\n      0x20\n      add\n      swap2\n      jump(tag_286)\n    tag_287:\n      dup3\n      add\n      swap2\n      swap1\n      0x00\n      mstore\n      keccak256(0x00, 0x20)\n      swap1\n    tag_288:\n      dup2\n      sload\n      dup2\n      mstore\n      swap1\n      0x01\n      add\n      swap1\n      0x20\n      add\n      dup1\n      dup4\n      gt\n      tag_288\n      jumpi\n      dup3\n      swap1\n      sub\n      0x1f\n      and\n      dup3\n      add\n      swap2\n    tag_286:\n      pop\n      pop\n      pop\n      pop\n      pop\n      dup2\n      jump\t// out\n        /* \"ERC4626.sol\":4620:4913  function convertToAssets(uint256 shares)... */\n    tag_72:\n        /* \"ERC4626.sol\":4722:4729  uint256 */\n      0x00\n        /* \"ERC4626.sol\":4745:4759  uint256 supply */\n      dup1\n        /* \"ERC4626.sol\":4762:4773  totalSupply */\n      sload(0x02)\n        /* \"ERC4626.sol\":4745:4773  uint256 supply = totalSupply */\n      swap1\n      pop\n        /* \"ERC4626.sol\":4853:4854  0 */\n      0x00\n        /* \"ERC4626.sol\":4843:4849  supply */\n      dup2\n        /* \"ERC4626.sol\":4843:4854  supply == 0 */\n      eq\n        /* \"ERC4626.sol\":4843:4906  supply == 0 ? shares : shares.mulDivDown(totalAssets(), supply) */\n      tag_290\n      jumpi\n        /* \"ERC4626.sol\":4866:4906  shares.mulDivDown(totalAssets(), supply) */\n      tag_291\n        /* \"ERC4626.sol\":4884:4897  totalAssets() */\n      tag_292\n        /* \"ERC4626.sol\":4884:4895  totalAssets */\n      tag_60\n        /* \"ERC4626.sol\":4884:4897  totalAssets() */\n      jump\t// in\n    tag_292:\n        /* \"ERC4626.sol\":4899:4905  supply */\n      dup3\n        /* \"ERC4626.sol\":4866:4872  shares */\n      dup6\n        /* \"ERC4626.sol\":4866:4883  shares.mulDivDown */\n      tag_293\n      swap1\n        /* \"ERC4626.sol\":4866:4906  shares.mulDivDown(totalAssets(), supply) */\n      swap3\n      swap2\n      swap1\n      0xffffffff\n      and\n      jump\t// in\n    tag_291:\n        /* \"ERC4626.sol\":4843:4906  supply == 0 ? shares : shares.mulDivDown(totalAssets(), supply) */\n      jump(tag_294)\n    tag_290:\n        /* \"ERC4626.sol\":4857:4863  shares */\n      dup3\n        /* \"ERC4626.sol\":4843:4906  supply == 0 ? shares : shares.mulDivDown(totalAssets(), supply) */\n    tag_294:\n        /* \"ERC4626.sol\":4836:4906  return supply == 0 ? shares : shares.mulDivDown(totalAssets(), supply) */\n      swap2\n      pop\n      pop\n        /* \"ERC4626.sol\":4620:4913  function convertToAssets(uint256 shares)... */\n      swap2\n      swap1\n      pop\n      jump\t// out\n        /* \"ERC20.sol\":2491:2730  function approve(address spender, uint256 amount)... */\n    tag_78:\n        /* \"ERC20.sol\":2589:2593  bool */\n      0x00\n        /* \"ERC20.sol\":2642:2648  amount */\n      dup2\n        /* \"ERC20.sol\":2609:2618  allowance */\n      0x04\n        /* \"ERC20.sol\":2609:2630  allowance[msg.sender] */\n      0x00\n        /* \"ERC20.sol\":2619:2629  msg.sender */\n      caller\n        /* \"ERC20.sol\":2609:2630  allowance[msg.sender] */\n      0xffffffffffffffffffffffffffffffffffffffff\n      and\n      0xffffffffffffffffffffffffffffffffffffffff\n      and\n      dup2\n      mstore\n      0x20\n      add\n      swap1\n      dup2\n      mstore\n      0x20\n      add\n      0x00\n      keccak256\n        /* \"ERC20.sol\":2609:2639  allowance[msg.sender][spender] */\n      0x00\n        /* \"ERC20.sol\":2631:2638  spender */\n      dup6\n        /* \"ERC20.sol\":2609:2639  allowance[msg.sender][spender] */\n      0xffffffffffffffffffffffffffffffffffffffff\n      and\n      0xffffffffffffffffffffffffffffffffffffffff\n      and\n      dup2\n      mstore\n      0x20\n      add\n      swap1\n      dup2\n      mstore\n      0x20\n      add\n      0x00\n      keccak256\n        /* \"ERC20.sol\":2609:2648  allowance[msg.sender][spender] = amount */\n      dup2\n      swap1\n      sstore\n      pop\n        /* \"ERC20.sol\":2685:2692  spender */\n      dup3\n        /* \"ERC20.sol\":2664:2701  Approval(msg.sender, spender, amount) */\n      0xffffffffffffffffffffffffffffffffffffffff\n      and\n        /* \"ERC20.sol\":2673:2683  msg.sender */\n      caller\n        /* \"ERC20.sol\":2664:2701  Approval(msg.sender, spender, amount) */\n      0xffffffffffffffffffffffffffffffffffffffff\n      and\n      0x8c5be1e5ebec7d5bd14f71427d1e84f3dd0314c0f7b2291e5b200ac8c7c3b925\n        /* \"ERC20.sol\":2694:2700  amount */\n      dup5\n        /* \"ERC20.sol\":2664:2701  Approval(msg.sender, spender, amount) */\n      mload(0x40)\n      tag_296\n      swap2\n      swap1\n      tag_62\n      jump\t// in\n    tag_296:\n      mload(0x40)\n      dup1\n      swap2\n      sub\n      swap1\n      log3\n        /* \"ERC20.sol\":2719:2723  true */\n      0x01\n        /* \"ERC20.sol\":2712:2723  return true */\n      swap1\n      pop\n        /* \"ERC20.sol\":2491:2730  function approve(address spender, uint256 amount)... */\n      swap3\n      swap2\n      pop\n      pop\n      jump\t// out\n        /* \"ERC4626.sol\":5343:5634  function previewWithdraw(uint256 assets)... */\n    tag_84:\n        /* \"ERC4626.sol\":5445:5452  uint256 */\n      0x00\n        /* \"ERC4626.sol\":5468:5482  uint256 supply */\n      dup1\n        /* \"ERC4626.sol\":5485:5496  totalSupply */\n      sload(0x02)\n        /* \"ERC4626.sol\":5468:5496  uint256 supply = totalSupply */\n      swap1\n      pop\n        /* \"ERC4626.sol\":5576:5577  0 */\n      0x00\n        /* \"ERC4626.sol\":5566:5572  supply */\n      dup2\n        /* \"ERC4626.sol\":5566:5577  supply == 0 */\n      eq\n        /* \"ERC4626.sol\":5566:5627  supply == 0 ? assets : assets.mulDivUp(supply, totalAssets()) */\n      tag_298\n      jumpi\n        /* \"ERC4626.sol\":5589:5627  assets.mulDivUp(supply, totalAssets()) */\n      tag_299\n        /* \"ERC4626.sol\":5605:5611  supply */\n      dup2\n        /* \"ERC4626.sol\":5613:5626  totalAssets() */\n      tag_300\n        /* \"ERC4626.sol\":5613:5624  totalAssets */\n      tag_60\n        /* \"ERC4626.sol\":5613:5626  totalAssets() */\n      jump\t// in\n    tag_300:\n        /* \"ERC4626.sol\":5589:5595  assets */\n      dup6\n        /* \"ERC4626.sol\":5589:5604  assets.mulDivUp */\n      tag_301\n      swap1\n        /* \"ERC4626.sol\":5589:5627  assets.mulDivUp(supply, totalAssets()) */\n      swap3\n      swap2\n      swap1\n      0xffffffff\n      and\n      jump\t// in\n    tag_299:\n        /* \"ERC4626.sol\":5566:5627  supply == 0 ? assets : assets.mulDivUp(supply, totalAssets()) */\n      jump(tag_302)\n    tag_298:\n        /* \"ERC4626.sol\":5580:5586  assets */\n      dup3\n        /* \"ERC4626.sol\":5566:5627  supply == 0 ? assets : assets.mulDivUp(supply, totalAssets()) */\n    tag_302:\n        /* \"ERC4626.sol\":5559:5627  return supply == 0 ? assets : assets.mulDivUp(supply, totalAssets()) */\n      swap2\n      pop\n      pop\n        /* \"ERC4626.sol\":5343:5634  function previewWithdraw(uint256 assets)... */\n      swap2\n      swap1\n      pop\n      jump\t// out\n        /* \"ERC20.sol\":1334:1360  uint256 public totalSupply */\n    tag_88:\n      sload(0x02)\n      dup2\n      jump\t// out\n        /* \"SquiddyCore.sol\":4840:4873  uint256 public targetFloatPercent */\n    tag_92:\n      sload(0x0a)\n      dup2\n      jump\t// out\n        /* \"ERC20.sol\":3143:3747  function transferFrom(... */\n    tag_98:\n        /* \"ERC20.sol\":3261:3265  bool */\n      0x00\n        /* \"ERC20.sol\":3277:3292  uint256 allowed */\n      dup1\n        /* \"ERC20.sol\":3295:3304  allowance */\n      0x04\n        /* \"ERC20.sol\":3295:3310  allowance[from] */\n      0x00\n        /* \"ERC20.sol\":3305:3309  from */\n      dup7\n        /* \"ERC20.sol\":3295:3310  allowance[from] */\n      0xffffffffffffffffffffffffffffffffffffffff\n      and\n      0xffffffffffffffffffffffffffffffffffffffff\n      and\n      dup2\n      mstore\n      0x20\n      add\n      swap1\n      dup2\n      mstore\n      0x20\n      add\n      0x00\n      keccak256\n        /* \"ERC20.sol\":3295:3322  allowance[from][msg.sender] */\n      0x00\n        /* \"ERC20.sol\":3311:3321  msg.sender */\n      caller\n        /* \"ERC20.sol\":3295:3322  allowance[from][msg.sender] */\n      0xffffffffffffffffffffffffffffffffffffffff\n      and\n      0xffffffffffffffffffffffffffffffffffffffff\n      and\n      dup2\n      mstore\n      0x20\n      add\n      swap1\n      dup2\n      mstore\n      0x20\n      add\n      0x00\n      keccak256\n      sload\n        /* \"ERC20.sol\":3277:3322  uint256 allowed = allowance[from][msg.sender] */\n      swap1\n      pop\n        /* \"ERC20.sol\":3384:3401  type(uint256).max */\n      0xffffffffffffffffffffffffffffffffffffffffffffffffffffffffffffffff\n        /* \"ERC20.sol\":3373:3380  allowed */\n      dup2\n        /* \"ERC20.sol\":3373:3401  allowed != type(uint256).max */\n      eq\n        /* \"ERC20.sol\":3369:3461  if (allowed != type(uint256).max)... */\n      tag_304\n      jumpi\n        /* \"ERC20.sol\":3455:3461  amount */\n      dup3\n        /* \"ERC20.sol\":3445:3452  allowed */\n      dup2\n        /* \"ERC20.sol\":3445:3461  allowed - amount */\n      tag_305\n      swap2\n      swap1\n      tag_306\n      jump\t// in\n    tag_305:\n        /* \"ERC20.sol\":3415:3424  allowance */\n      0x04\n        /* \"ERC20.sol\":3415:3430  allowance[from] */\n      0x00\n        /* \"ERC20.sol\":3425:3429  from */\n      dup8\n        /* \"ERC20.sol\":3415:3430  allowance[from] */\n      0xffffffffffffffffffffffffffffffffffffffff\n      and\n      0xffffffffffffffffffffffffffffffffffffffff\n      and\n      dup2\n      mstore\n      0x20\n      add\n      swap1\n      dup2\n      mstore\n      0x20\n      add\n      0x00\n      keccak256\n        /* \"ERC20.sol\":3415:3442  allowance[from][msg.sender] */\n      0x00\n        /* \"ERC20.sol\":3431:3441  msg.sender */\n      caller\n        /* \"ERC20.sol\":3415:3442  allowance[from][msg.sender] */\n      0xffffffffffffffffffffffffffffffffffffffff\n      and\n      0xffffffffffffffffffffffffffffffffffffffff\n      and\n      dup2\n      mstore\n      0x20\n      add\n      swap1\n      dup2\n      mstore\n      0x20\n      add\n      0x00\n      keccak256\n        /* \"ERC20.sol\":3415:3461  allowance[from][msg.sender] = allowed - amount */\n      dup2\n      swap1\n      sstore\n      pop\n        /* \"ERC20.sol\":3369:3461  if (allowed != type(uint256).max)... */\n    tag_304:\n        /* \"ERC20.sol\":3491:3497  amount */\n      dup3\n        /* \"ERC20.sol\":3472:3481  balanceOf */\n      0x03\n        /* \"ERC20.sol\":3472:3487  balanceOf[from] */\n      0x00\n        /* \"ERC20.sol\":3482:3486  from */\n      dup8\n        /* \"ERC20.sol\":3472:3487  balanceOf[from] */\n      0xffffffffffffffffffffffffffffffffffffffff\n      and\n      0xffffffffffffffffffffffffffffffffffffffff\n      and\n      dup2\n      mstore\n      0x20\n      add\n      swap1\n      dup2\n      mstore\n      0x20\n      add\n      0x00\n      keccak256\n      0x00\n        /* \"ERC20.sol\":3472:3497  balanceOf[from] -= amount */\n      dup3\n      dup3\n      sload\n      tag_307\n      swap2\n      swap1\n      tag_306\n      jump\t// in\n    tag_307:\n      swap3\n      pop\n      pop\n      dup2\n      swap1\n      sstore\n      pop\n        /* \"ERC20.sol\":3660:3666  amount */\n      dup3\n        /* \"ERC20.sol\":3643:3652  balanceOf */\n      0x03\n        /* \"ERC20.sol\":3643:3656  balanceOf[to] */\n      0x00\n        /* \"ERC20.sol\":3653:3655  to */\n      dup7\n        /* \"ERC20.sol\":3643:3656  balanceOf[to] */\n      0xffffffffffffffffffffffffffffffffffffffff\n      and\n      0xffffffffffffffffffffffffffffffffffffffff\n      and\n      dup2\n      mstore\n      0x20\n      add\n      swap1\n      dup2\n      mstore\n      0x20\n      add\n      0x00\n      keccak256\n      0x00\n        /* \"ERC20.sol\":3643:3666  balanceOf[to] += amount */\n      dup3\n      dup3\n      sload\n      add\n      swap3\n      pop\n      pop\n      dup2\n      swap1\n      sstore\n      pop\n        /* \"ERC20.sol\":3707:3709  to */\n      dup4\n        /* \"ERC20.sol\":3692:3718  Transfer(from, to, amount) */\n      0xffffffffffffffffffffffffffffffffffffffff\n      and\n        /* \"ERC20.sol\":3701:3705  from */\n      dup6\n        /* \"ERC20.sol\":3692:3718  Transfer(from, to, amount) */\n      0xffffffffffffffffffffffffffffffffffffffff\n      and\n      0xddf252ad1be2c89b69c2b068fc378daa952ba7f163c4a11628f55a4df523b3ef\n        /* \"ERC20.sol\":3711:3717  amount */\n      dup6\n        /* \"ERC20.sol\":3692:3718  Transfer(from, to, amount) */\n      mload(0x40)\n      tag_308\n      swap2\n      swap1\n      tag_62\n      jump\t// in\n    tag_308:\n      mload(0x40)\n      dup1\n      swap2\n      sub\n      swap1\n      log3\n        /* \"ERC20.sol\":3736:3740  true */\n      0x01\n        /* \"ERC20.sol\":3729:3740  return true */\n      swap2\n      pop\n      pop\n        /* \"ERC20.sol\":3143:3747  function transferFrom(... */\n      swap4\n      swap3\n      pop\n      pop\n      pop\n      jump\t// out\n        /* \"ERC20.sol\":1113:1144  uint8 public immutable decimals */\n    tag_102:\n      immutable(\"0x6585423cb6456b1d4957f6454d2f004f0c4f58d53a00082412d5c2ef4b1b31fd\")\n      dup2\n      jump\t// out\n        /* \"SquiddyCore.sol\":6057:6560  function setUnderlyingIsWETH(bool newUnderlyingIsWETH)... */\n    tag_109:\n        /* \"SquiddyCore.sol\":1654:1664  msg.sender */\n      caller\n        /* \"SquiddyCore.sol\":1641:1664  manager() == msg.sender */\n      0xffffffffffffffffffffffffffffffffffffffff\n      and\n        /* \"SquiddyCore.sol\":1641:1650  manager() */\n      tag_310\n        /* \"SquiddyCore.sol\":1641:1648  manager */\n      tag_132\n        /* \"SquiddyCore.sol\":1641:1650  manager() */\n      jump\t// in\n    tag_310:\n        /* \"SquiddyCore.sol\":1641:1664  manager() == msg.sender */\n      0xffffffffffffffffffffffffffffffffffffffff\n      and\n      eq\n        /* \"SquiddyCore.sol\":1633:1703  require(manager() == msg.sender, \"Ownable: caller is not the manager\") */\n      tag_311\n      jumpi\n      mload(0x40)\n      0x08c379a000000000000000000000000000000000000000000000000000000000\n      dup2\n      mstore\n      0x04\n      add\n      tag_312\n      swap1\n      tag_313\n      jump\t// in\n    tag_312:\n      mload(0x40)\n      dup1\n      swap2\n      sub\n      swap1\n      revert\n    tag_311:\n        /* \"SquiddyCore.sol\":6275:6294  newUnderlyingIsWETH */\n      dup1\n        /* \"SquiddyCore.sol\":6274:6294  !newUnderlyingIsWETH */\n      iszero\n        /* \"SquiddyCore.sol\":6274:6325  !newUnderlyingIsWETH || UNDERLYING.decimals() == 18 */\n      dup1\n      tag_315\n      jumpi\n      pop\n        /* \"SquiddyCore.sol\":6323:6325  18 */\n      0x12\n        /* \"SquiddyCore.sol\":6298:6308  UNDERLYING */\n      immutable(\"0x6b5c062ff531e4aab4774f509e92f4d1142a84e2071479e43245c0e4a7940df4\")\n        /* \"SquiddyCore.sol\":6298:6317  UNDERLYING.decimals */\n      0xffffffffffffffffffffffffffffffffffffffff\n      and\n      0x313ce567\n        /* \"SquiddyCore.sol\":6298:6319  UNDERLYING.decimals() */\n      mload(0x40)\n      dup2\n      0xffffffff\n      and\n      0xe0\n      shl\n      dup2\n      mstore\n      0x04\n      add\n      0x20\n      mload(0x40)\n      dup1\n      dup4\n      sub\n      dup2\n      dup7\n      gas\n      staticcall\n      iszero\n      dup1\n      iszero\n      tag_317\n      jumpi\n      returndatasize\n      0x00\n      dup1\n      returndatacopy\n      revert(0x00, returndatasize)\n    tag_317:\n      pop\n      pop\n      pop\n      pop\n      mload(0x40)\n      returndatasize\n      not(0x1f)\n      0x1f\n      dup3\n      add\n      and\n      dup3\n      add\n      dup1\n      0x40\n      mstore\n      pop\n      dup2\n      add\n      swap1\n      tag_318\n      swap2\n      swap1\n      tag_319\n      jump\t// in\n    tag_318:\n        /* \"SquiddyCore.sol\":6298:6325  UNDERLYING.decimals() == 18 */\n      0xff\n      and\n      eq\n        /* \"SquiddyCore.sol\":6274:6325  !newUnderlyingIsWETH || UNDERLYING.decimals() == 18 */\n    tag_315:\n        /* \"SquiddyCore.sol\":6253:6365  require(... */\n      tag_320\n      jumpi\n      mload(0x40)\n      0x08c379a000000000000000000000000000000000000000000000000000000000\n      dup2\n      mstore\n      0x04\n      add\n      tag_321\n      swap1\n      tag_322\n      jump\t// in\n    tag_321:\n      mload(0x40)\n      dup1\n      swap2\n      sub\n      swap1\n      revert\n    tag_320:\n        /* \"SquiddyCore.sol\":6462:6481  newUnderlyingIsWETH */\n      dup1\n        /* \"SquiddyCore.sol\":6443:6459  underlyingIsWETH */\n      0x0b\n      0x00\n        /* \"SquiddyCore.sol\":6443:6481  underlyingIsWETH = newUnderlyingIsWETH */\n      0x0100\n      exp\n      dup2\n      sload\n      dup2\n      0xff\n      mul\n      not\n      and\n      swap1\n      dup4\n      iszero\n      iszero\n      mul\n      or\n      swap1\n      sstore\n      pop\n        /* \"SquiddyCore.sol\":6521:6531  msg.sender */\n      caller\n        /* \"SquiddyCore.sol\":6497:6553  UnderlyingIsWETHUpdated(msg.sender, newUnderlyingIsWETH) */\n      0xffffffffffffffffffffffffffffffffffffffff\n      and\n      0x6375b140d4463d47b864f1f47e5d2893cc3478e73aedcc268b054fab0230a841\n        /* \"SquiddyCore.sol\":6533:6552  newUnderlyingIsWETH */\n      dup3\n        /* \"SquiddyCore.sol\":6497:6553  UnderlyingIsWETHUpdated(msg.sender, newUnderlyingIsWETH) */\n      mload(0x40)\n      tag_323\n      swap2\n      swap1\n      tag_80\n      jump\t// in\n    tag_323:\n      mload(0x40)\n      dup1\n      swap2\n      sub\n      swap1\n      log2\n        /* \"SquiddyCore.sol\":6057:6560  function setUnderlyingIsWETH(bool newUnderlyingIsWETH)... */\n      pop\n      jump\t// out\n        /* \"ERC20.sol\":5471:5692  function DOMAIN_SEPARATOR() public view virtual returns (bytes32) {... */\n    tag_112:\n        /* \"ERC20.sol\":5528:5535  bytes32 */\n      0x00\n        /* \"ERC20.sol\":5583:5599  INITIAL_CHAIN_ID */\n      immutable(\"0xd67d834462ca31eaef1f30157e31659f60355143b7441e6fc7d9eae1fa79f3f8\")\n        /* \"ERC20.sol\":5566:5579  block.chainid */\n      chainid\n        /* \"ERC20.sol\":5566:5599  block.chainid == INITIAL_CHAIN_ID */\n      eq\n        /* \"ERC20.sol\":5566:5685  block.chainid == INITIAL_CHAIN_ID... */\n      tag_325\n      jumpi\n        /* \"ERC20.sol\":5661:5685  computeDomainSeparator() */\n      tag_326\n        /* \"ERC20.sol\":5661:5683  computeDomainSeparator */\n      tag_327\n        /* \"ERC20.sol\":5661:5685  computeDomainSeparator() */\n      jump\t// in\n    tag_326:\n        /* \"ERC20.sol\":5566:5685  block.chainid == INITIAL_CHAIN_ID... */\n      jump(tag_328)\n    tag_325:\n        /* \"ERC20.sol\":5618:5642  INITIAL_DOMAIN_SEPARATOR */\n      immutable(\"0x880de8116b3dfac28e9ff528a9fef1d1e0a51449c1addce011ffec1f302992b6\")\n        /* \"ERC20.sol\":5566:5685  block.chainid == INITIAL_CHAIN_ID... */\n    tag_328:\n        /* \"ERC20.sol\":5547:5685  return... */\n      swap1\n      pop\n        /* \"ERC20.sol\":5471:5692  function DOMAIN_SEPARATOR() public view virtual returns (bytes32) {... */\n      swap1\n      jump\t// out\n        /* \"ERC4626.sol\":1165:1193  ERC20 public immutable asset */\n    tag_117:\n      immutable(\"0xecac27c21aa9a89d7be9ad03c2d91e82cbd466284ecdf2bd5bad7f953539cc45\")\n      dup2\n      jump\t// out\n        /* \"SquiddyCore.sol\":8611:8636  bool public isInitialized */\n    tag_122:\n      0x0d\n      0x00\n      swap1\n      sload\n      swap1\n      0x0100\n      exp\n      swap1\n      div\n      0xff\n      and\n      dup2\n      jump\t// out\n        /* \"ERC4626.sol\":5997:6105  function maxDeposit(address) public view virtual returns (uint256) {... */\n    tag_128:\n        /* \"ERC4626.sol\":6055:6062  uint256 */\n      0x00\n        /* \"ERC4626.sol\":6081:6098  type(uint256).max */\n      0xffffffffffffffffffffffffffffffffffffffffffffffffffffffffffffffff\n        /* \"ERC4626.sol\":6074:6098  return type(uint256).max */\n      swap1\n      pop\n        /* \"ERC4626.sol\":5997:6105  function maxDeposit(address) public view virtual returns (uint256) {... */\n      swap2\n      swap1\n      pop\n      jump\t// out\n        /* \"SquiddyCore.sol\":2392:2481  function manager() public view virtual returns (address) {... */\n    tag_132:\n        /* \"SquiddyCore.sol\":2440:2447  address */\n      0x00\n        /* \"SquiddyCore.sol\":2466:2474  _manager */\n      0x06\n      0x00\n      swap1\n      sload\n      swap1\n      0x0100\n      exp\n      swap1\n      div\n      0xffffffffffffffffffffffffffffffffffffffff\n      and\n        /* \"SquiddyCore.sol\":2459:2474  return _manager */\n      swap1\n      pop\n        /* \"SquiddyCore.sol\":2392:2481  function manager() public view virtual returns (address) {... */\n      swap1\n      jump\t// out\n        /* \"ERC4626.sol\":5640:5800  function previewRedeem(uint256 shares)... */\n    tag_138:\n        /* \"ERC4626.sol\":5740:5747  uint256 */\n      0x00\n        /* \"ERC4626.sol\":5770:5793  convertToAssets(shares) */\n      tag_332\n        /* \"ERC4626.sol\":5786:5792  shares */\n      dup3\n        /* \"ERC4626.sol\":5770:5785  convertToAssets */\n      tag_72\n        /* \"ERC4626.sol\":5770:5793  convertToAssets(shares) */\n      jump\t// in\n    tag_332:\n        /* \"ERC4626.sol\":5763:5793  return convertToAssets(shares) */\n      swap1\n      pop\n        /* \"ERC4626.sol\":5640:5800  function previewRedeem(uint256 shares)... */\n      swap2\n      swap1\n      pop\n      jump\t// out\n        /* \"ERC4626.sol\":1583:2127  function deposit(uint256 assets, address receiver)... */\n    tag_144:\n        /* \"ERC4626.sol\":1682:1696  uint256 shares */\n      0x00\n        /* \"ERC4626.sol\":1832:1833  0 */\n      dup1\n        /* \"ERC4626.sol\":1805:1827  previewDeposit(assets) */\n      tag_334\n        /* \"ERC4626.sol\":1820:1826  assets */\n      dup5\n        /* \"ERC4626.sol\":1805:1819  previewDeposit */\n      tag_263\n        /* \"ERC4626.sol\":1805:1827  previewDeposit(assets) */\n      jump\t// in\n    tag_334:\n        /* \"ERC4626.sol\":1796:1827  shares = previewDeposit(assets) */\n      swap2\n      pop\n      dup2\n        /* \"ERC4626.sol\":1795:1833  (shares = previewDeposit(assets)) != 0 */\n      eq\n      iszero\n        /* \"ERC4626.sol\":1787:1849  require((shares = previewDeposit(assets)) != 0, \"ZERO_SHARES\") */\n      tag_335\n      jumpi\n      mload(0x40)\n      0x08c379a000000000000000000000000000000000000000000000000000000000\n      dup2\n      mstore\n      0x04\n      add\n      tag_336\n      swap1\n      tag_337\n      jump\t// in\n    tag_336:\n      mload(0x40)\n      dup1\n      swap2\n      sub\n      swap1\n      revert\n    tag_335:\n        /* \"ERC4626.sol\":1929:1986  asset.safeTransferFrom(msg.sender, address(this), assets) */\n      tag_338\n        /* \"ERC4626.sol\":1952:1962  msg.sender */\n      caller\n        /* \"ERC4626.sol\":1972:1976  this */\n      address\n        /* \"ERC4626.sol\":1979:1985  assets */\n      dup6\n        /* \"ERC4626.sol\":1929:1934  asset */\n      immutable(\"0xecac27c21aa9a89d7be9ad03c2d91e82cbd466284ecdf2bd5bad7f953539cc45\")\n        /* \"ERC4626.sol\":1929:1951  asset.safeTransferFrom */\n      0xffffffffffffffffffffffffffffffffffffffff\n      and\n      tag_339\n      swap1\n        /* \"ERC4626.sol\":1929:1986  asset.safeTransferFrom(msg.sender, address(this), assets) */\n      swap4\n      swap3\n      swap2\n      swap1\n      0xffffffff\n      and\n      jump\t// in\n    tag_338:\n        /* \"ERC4626.sol\":1997:2020  _mint(receiver, shares) */\n      tag_340\n        /* \"ERC4626.sol\":2003:2011  receiver */\n      dup3\n        /* \"ERC4626.sol\":2013:2019  shares */\n      dup3\n        /* \"ERC4626.sol\":1997:2002  _mint */\n      tag_341\n        /* \"ERC4626.sol\":1997:2020  _mint(receiver, shares) */\n      jump\t// in\n    tag_340:\n        /* \"ERC4626.sol\":2056:2064  receiver */\n      dup2\n        /* \"ERC4626.sol\":2036:2081  Deposit(msg.sender, receiver, assets, shares) */\n      0xffffffffffffffffffffffffffffffffffffffff\n      and\n        /* \"ERC4626.sol\":2044:2054  msg.sender */\n      caller\n        /* \"ERC4626.sol\":2036:2081  Deposit(msg.sender, receiver, assets, shares) */\n      0xffffffffffffffffffffffffffffffffffffffff\n      and\n      0xdcbc1c05240f31ff3ad067ef1ee35ce4997762752e3a095284754544f4c709d7\n        /* \"ERC4626.sol\":2066:2072  assets */\n      dup6\n        /* \"ERC4626.sol\":2074:2080  shares */\n      dup5\n        /* \"ERC4626.sol\":2036:2081  Deposit(msg.sender, receiver, assets, shares) */\n      mload(0x40)\n      tag_342\n      swap3\n      swap2\n      swap1\n      tag_343\n      jump\t// in\n    tag_342:\n      mload(0x40)\n      dup1\n      swap2\n      sub\n      swap1\n      log3\n        /* \"ERC4626.sol\":2092:2120  afterDeposit(assets, shares) */\n      tag_344\n        /* \"ERC4626.sol\":2105:2111  assets */\n      dup4\n        /* \"ERC4626.sol\":2113:2119  shares */\n      dup3\n        /* \"ERC4626.sol\":2092:2104  afterDeposit */\n      tag_345\n        /* \"ERC4626.sol\":2092:2120  afterDeposit(assets, shares) */\n      jump\t// in\n    tag_344:\n        /* \"ERC4626.sol\":1583:2127  function deposit(uint256 assets, address receiver)... */\n      swap3\n      swap2\n      pop\n      pop\n      jump\t// out\n        /* \"ERC20.sol\":1367:1411  mapping(address => uint256) public balanceOf */\n    tag_149:\n      mstore(0x20, 0x03)\n      dup1\n      0x00\n      mstore\n      keccak256(0x00, 0x40)\n      0x00\n      swap2\n      pop\n      swap1\n      pop\n      sload\n      dup2\n      jump\t// out\n        /* \"SquiddyCore.sol\":2660:2811  function renounceOwnership() public virtual onlyManager {... */\n    tag_153:\n        /* \"SquiddyCore.sol\":1654:1664  msg.sender */\n      caller\n        /* \"SquiddyCore.sol\":1641:1664  manager() == msg.sender */\n      0xffffffffffffffffffffffffffffffffffffffff\n      and\n        /* \"SquiddyCore.sol\":1641:1650  manager() */\n      tag_347\n        /* \"SquiddyCore.sol\":1641:1648  manager */\n      tag_132\n        /* \"SquiddyCore.sol\":1641:1650  manager() */\n      jump\t// in\n    tag_347:\n        /* \"SquiddyCore.sol\":1641:1664  manager() == msg.sender */\n      0xffffffffffffffffffffffffffffffffffffffff\n      and\n      eq\n        /* \"SquiddyCore.sol\":1633:1703  require(manager() == msg.sender, \"Ownable: caller is not the manager\") */\n      tag_348\n      jumpi\n      mload(0x40)\n      0x08c379a000000000000000000000000000000000000000000000000000000000\n      dup2\n      mstore\n      0x04\n      add\n      tag_349\n      swap1\n      tag_313\n      jump\t// in\n    tag_349:\n      mload(0x40)\n      dup1\n      swap2\n      sub\n      swap1\n      revert\n    tag_348:\n        /* \"SquiddyCore.sol\":2770:2771  0 */\n      0x00\n        /* \"SquiddyCore.sol\":2731:2773  OwnershipTransferred(_manager, address(0)) */\n      0xffffffffffffffffffffffffffffffffffffffff\n      and\n        /* \"SquiddyCore.sol\":2752:2760  _manager */\n      0x06\n      0x00\n      swap1\n      sload\n      swap1\n      0x0100\n      exp\n      swap1\n      div\n      0xffffffffffffffffffffffffffffffffffffffff\n      and\n        /* \"SquiddyCore.sol\":2731:2773  OwnershipTransferred(_manager, address(0)) */\n      0xffffffffffffffffffffffffffffffffffffffff\n      and\n      0x8be0079c531659141344cd1fd0a4f28419497f9722a3daafe3b4186f6b6457e0\n      mload(0x40)\n      mload(0x40)\n      dup1\n      swap2\n      sub\n      swap1\n      log3\n        /* \"SquiddyCore.sol\":2802:2803  0 */\n      0x00\n        /* \"SquiddyCore.sol\":2783:2791  _manager */\n      0x06\n      0x00\n        /* \"SquiddyCore.sol\":2783:2804  _manager = address(0) */\n      0x0100\n      exp\n      dup2\n      sload\n      dup2\n      0xffffffffffffffffffffffffffffffffffffffff\n      mul\n      not\n      and\n      swap1\n      dup4\n      0xffffffffffffffffffffffffffffffffffffffff\n      and\n      mul\n      or\n      swap1\n      sstore\n      pop\n        /* \"SquiddyCore.sol\":2660:2811  function renounceOwnership() public virtual onlyManager {... */\n      jump\t// out\n        /* \"SquiddyCore.sol\":3736:4059  function setFeePercent(uint256 newFeePercent) external onlyManager {... */\n    tag_157:\n        /* \"SquiddyCore.sol\":1654:1664  msg.sender */\n      caller\n        /* \"SquiddyCore.sol\":1641:1664  manager() == msg.sender */\n      0xffffffffffffffffffffffffffffffffffffffff\n      and\n        /* \"SquiddyCore.sol\":1641:1650  manager() */\n      tag_352\n        /* \"SquiddyCore.sol\":1641:1648  manager */\n      tag_132\n        /* \"SquiddyCore.sol\":1641:1650  manager() */\n      jump\t// in\n    tag_352:\n        /* \"SquiddyCore.sol\":1641:1664  manager() == msg.sender */\n      0xffffffffffffffffffffffffffffffffffffffff\n      and\n      eq\n        /* \"SquiddyCore.sol\":1633:1703  require(manager() == msg.sender, \"Ownable: caller is not the manager\") */\n      tag_353\n      jumpi\n      mload(0x40)\n      0x08c379a000000000000000000000000000000000000000000000000000000000\n      dup2\n      mstore\n      0x04\n      add\n      tag_354\n      swap1\n      tag_313\n      jump\t// in\n    tag_354:\n      mload(0x40)\n      dup1\n      swap2\n      sub\n      swap1\n      revert\n    tag_353:\n        /* \"SquiddyCore.sol\":3896:3900  1e18 */\n      0x0de0b6b3a7640000\n        /* \"SquiddyCore.sol\":3879:3892  newFeePercent */\n      dup2\n        /* \"SquiddyCore.sol\":3879:3900  newFeePercent <= 1e18 */\n      gt\n      iszero\n        /* \"SquiddyCore.sol\":3871:3917  require(newFeePercent <= 1e18, \"FEE_TOO_HIGH\") */\n      tag_356\n      jumpi\n      mload(0x40)\n      0x08c379a000000000000000000000000000000000000000000000000000000000\n      dup2\n      mstore\n      0x04\n      add\n      tag_357\n      swap1\n      tag_358\n      jump\t// in\n    tag_357:\n      mload(0x40)\n      dup1\n      swap2\n      sub\n      swap1\n      revert\n    tag_356:\n        /* \"SquiddyCore.sol\":3979:3992  newFeePercent */\n      dup1\n        /* \"SquiddyCore.sol\":3966:3976  feePercent */\n      0x09\n        /* \"SquiddyCore.sol\":3966:3992  feePercent = newFeePercent */\n      dup2\n      swap1\n      sstore\n      pop\n        /* \"SquiddyCore.sol\":4026:4036  msg.sender */\n      caller\n        /* \"SquiddyCore.sol\":4008:4052  FeePercentUpdated(msg.sender, newFeePercent) */\n      0xffffffffffffffffffffffffffffffffffffffff\n      and\n      0xec370615cc81fb334e5566fbc80664d9082377bf59288d64a79f3fbecf4323a9\n        /* \"SquiddyCore.sol\":4038:4051  newFeePercent */\n      dup3\n        /* \"SquiddyCore.sol\":4008:4052  FeePercentUpdated(msg.sender, newFeePercent) */\n      mload(0x40)\n      tag_359\n      swap2\n      swap1\n      tag_62\n      jump\t// in\n    tag_359:\n      mload(0x40)\n      dup1\n      swap2\n      sub\n      swap1\n      log2\n        /* \"SquiddyCore.sol\":3736:4059  function setFeePercent(uint256 newFeePercent) external onlyManager {... */\n      pop\n      jump\t// out\n        /* \"ERC20.sol\":1781:1822  mapping(address => uint256) public nonces */\n    tag_161:\n      mstore(0x20, 0x05)\n      dup1\n      0x00\n      mstore\n      keccak256(0x00, 0x40)\n      0x00\n      swap2\n      pop\n      swap1\n      pop\n      sload\n      dup2\n      jump\t// out\n        /* \"SquiddyCore.sol\":3607:3632  uint256 public feePercent */\n    tag_165:\n      sload(0x09)\n      dup2\n      jump\t// out\n        /* \"SquiddyCore.sol\":9509:9599  function destroy() external onlyManager {... */\n    tag_169:\n        /* \"SquiddyCore.sol\":1654:1664  msg.sender */\n      caller\n        /* \"SquiddyCore.sol\":1641:1664  manager() == msg.sender */\n      0xffffffffffffffffffffffffffffffffffffffff\n      and\n        /* \"SquiddyCore.sol\":1641:1650  manager() */\n      tag_361\n        /* \"SquiddyCore.sol\":1641:1648  manager */\n      tag_132\n        /* \"SquiddyCore.sol\":1641:1650  manager() */\n      jump\t// in\n    tag_361:\n        /* \"SquiddyCore.sol\":1641:1664  manager() == msg.sender */\n      0xffffffffffffffffffffffffffffffffffffffff\n      and\n      eq\n        /* \"SquiddyCore.sol\":1633:1703  require(manager() == msg.sender, \"Ownable: caller is not the manager\") */\n      tag_362\n      jumpi\n      mload(0x40)\n      0x08c379a000000000000000000000000000000000000000000000000000000000\n      dup2\n      mstore\n      0x04\n      add\n      tag_363\n      swap1\n      tag_313\n      jump\t// in\n    tag_363:\n      mload(0x40)\n      dup1\n      swap2\n      sub\n      swap1\n      revert\n    tag_362:\n        /* \"SquiddyCore.sol\":9580:9590  msg.sender */\n      caller\n        /* \"SquiddyCore.sol\":9559:9592  selfdestruct(payable(msg.sender)) */\n      0xffffffffffffffffffffffffffffffffffffffff\n      and\n      selfdestruct\n        /* \"SquiddyCore.sol\":8814:9362  function initialize(address _searcher, uint160 _duration ) external onlyManager {... */\n    tag_174:\n        /* \"SquiddyCore.sol\":1654:1664  msg.sender */\n      caller\n        /* \"SquiddyCore.sol\":1641:1664  manager() == msg.sender */\n      0xffffffffffffffffffffffffffffffffffffffff\n      and\n        /* \"SquiddyCore.sol\":1641:1650  manager() */\n      tag_366\n        /* \"SquiddyCore.sol\":1641:1648  manager */\n      tag_132\n        /* \"SquiddyCore.sol\":1641:1650  manager() */\n      jump\t// in\n    tag_366:\n        /* \"SquiddyCore.sol\":1641:1664  manager() == msg.sender */\n      0xffffffffffffffffffffffffffffffffffffffff\n      and\n      eq\n        /* \"SquiddyCore.sol\":1633:1703  require(manager() == msg.sender, \"Ownable: caller is not the manager\") */\n      tag_367\n      jumpi\n      mload(0x40)\n      0x08c379a000000000000000000000000000000000000000000000000000000000\n      dup2\n      mstore\n      0x04\n      add\n      tag_368\n      swap1\n      tag_313\n      jump\t// in\n    tag_368:\n      mload(0x40)\n      dup1\n      swap2\n      sub\n      swap1\n      revert\n    tag_367:\n        /* \"SquiddyCore.sol\":8975:8988  isInitialized */\n      0x0d\n      0x00\n      swap1\n      sload\n      swap1\n      0x0100\n      exp\n      swap1\n      div\n      0xff\n      and\n        /* \"SquiddyCore.sol\":8974:8988  !isInitialized */\n      iszero\n        /* \"SquiddyCore.sol\":8966:9012  require(!isInitialized, \"ALREADY_INITIALIZED\") */\n      tag_370\n      jumpi\n      mload(0x40)\n      0x08c379a000000000000000000000000000000000000000000000000000000000\n      dup2\n      mstore\n      0x04\n      add\n      tag_371\n      swap1\n      tag_372\n      jump\t// in\n    tag_371:\n      mload(0x40)\n      dup1\n      swap2\n      sub\n      swap1\n      revert\n    tag_370:\n        /* \"SquiddyCore.sol\":9081:9085  true */\n      0x01\n        /* \"SquiddyCore.sol\":9065:9078  isInitialized */\n      0x0d\n      0x00\n        /* \"SquiddyCore.sol\":9065:9085  isInitialized = true */\n      0x0100\n      exp\n      dup2\n      sload\n      dup2\n      0xff\n      mul\n      not\n      and\n      swap1\n      dup4\n      iszero\n      iszero\n      mul\n      or\n      swap1\n      sstore\n      pop\n        /* \"SquiddyCore.sol\":9141:9142  0 */\n      0x00\n        /* \"SquiddyCore.sol\":9127:9138  totalSupply */\n      0x02\n        /* \"SquiddyCore.sol\":9127:9142  totalSupply = 0 */\n      dup2\n      swap1\n      sstore\n      pop\n        /* \"SquiddyCore.sol\":9153:9196  strategyACall(_searcher, 100000, _duration) */\n      tag_373\n        /* \"SquiddyCore.sol\":9167:9176  _searcher */\n      dup3\n        /* \"SquiddyCore.sol\":9178:9184  100000 */\n      0x0186a0\n        /* \"SquiddyCore.sol\":9186:9195  _duration */\n      dup4\n        /* \"SquiddyCore.sol\":9153:9196  strategyACall(_searcher, 100000, _duration) */\n      0xffffffffffffffffffffffffffffffffffffffff\n      and\n        /* \"SquiddyCore.sol\":9153:9166  strategyACall */\n      tag_374\n        /* \"SquiddyCore.sol\":9153:9196  strategyACall(_searcher, 100000, _duration) */\n      jump\t// in\n    tag_373:\n      pop\n        /* \"SquiddyCore.sol\":9224:9234  msg.sender */\n      caller\n        /* \"SquiddyCore.sol\":9212:9235  Initialized(msg.sender) */\n      0xffffffffffffffffffffffffffffffffffffffff\n      and\n      0x908408e307fc569b417f6cbec5d5a06f44a0a505ac0479b47d421a4b2fd6a1e6\n      mload(0x40)\n      mload(0x40)\n      dup1\n      swap2\n      sub\n      swap1\n      log2\n        /* \"SquiddyCore.sol\":9249:9257  isPublic */\n      0x0d\n      0x01\n      swap1\n      sload\n      swap1\n      0x0100\n      exp\n      swap1\n      div\n      0xff\n      and\n        /* \"SquiddyCore.sol\":9245:9353  if (isPublic){... */\n      iszero\n      tag_375\n      jumpi\n        /* \"SquiddyCore.sol\":9273:9290  vaultPublic(true) */\n      0xda9fcd4a22655136641ea6451669f22ddb60b968c2cd77b015da4796ad8faeb9\n        /* \"SquiddyCore.sol\":9285:9289  true */\n      0x01\n        /* \"SquiddyCore.sol\":9273:9290  vaultPublic(true) */\n      mload(0x40)\n      tag_376\n      swap2\n      swap1\n      tag_80\n      jump\t// in\n    tag_376:\n      mload(0x40)\n      dup1\n      swap2\n      sub\n      swap1\n      log1\n        /* \"SquiddyCore.sol\":9245:9353  if (isPublic){... */\n      jump(tag_377)\n    tag_375:\n        /* \"SquiddyCore.sol\":9320:9338  vaultPublic(false) */\n      0xda9fcd4a22655136641ea6451669f22ddb60b968c2cd77b015da4796ad8faeb9\n        /* \"SquiddyCore.sol\":9332:9337  false */\n      0x00\n        /* \"SquiddyCore.sol\":9320:9338  vaultPublic(false) */\n      mload(0x40)\n      tag_378\n      swap2\n      swap1\n      tag_80\n      jump\t// in\n    tag_378:\n      mload(0x40)\n      dup1\n      swap2\n      sub\n      swap1\n      log1\n        /* \"SquiddyCore.sol\":9245:9353  if (isPublic){... */\n    tag_377:\n        /* \"SquiddyCore.sol\":8814:9362  function initialize(address _searcher, uint160 _duration ) external onlyManager {... */\n      pop\n      pop\n      jump\t// out\n        /* \"ERC4626.sol\":2133:2628  function mint(uint256 shares, address receiver)... */\n    tag_178:\n        /* \"ERC4626.sol\":2229:2243  uint256 assets */\n      0x00\n        /* \"ERC4626.sol\":2268:2287  previewMint(shares) */\n      tag_380\n        /* \"ERC4626.sol\":2280:2286  shares */\n      dup4\n        /* \"ERC4626.sol\":2268:2279  previewMint */\n      tag_196\n        /* \"ERC4626.sol\":2268:2287  previewMint(shares) */\n      jump\t// in\n    tag_380:\n        /* \"ERC4626.sol\":2259:2287  assets = previewMint(shares) */\n      swap1\n      pop\n        /* \"ERC4626.sol\":2430:2487  asset.safeTransferFrom(msg.sender, address(this), assets) */\n      tag_381\n        /* \"ERC4626.sol\":2453:2463  msg.sender */\n      caller\n        /* \"ERC4626.sol\":2473:2477  this */\n      address\n        /* \"ERC4626.sol\":2480:2486  assets */\n      dup4\n        /* \"ERC4626.sol\":2430:2435  asset */\n      immutable(\"0xecac27c21aa9a89d7be9ad03c2d91e82cbd466284ecdf2bd5bad7f953539cc45\")\n        /* \"ERC4626.sol\":2430:2452  asset.safeTransferFrom */\n      0xffffffffffffffffffffffffffffffffffffffff\n      and\n      tag_339\n      swap1\n        /* \"ERC4626.sol\":2430:2487  asset.safeTransferFrom(msg.sender, address(this), assets) */\n      swap4\n      swap3\n      swap2\n      swap1\n      0xffffffff\n      and\n      jump\t// in\n    tag_381:\n        /* \"ERC4626.sol\":2498:2521  _mint(receiver, shares) */\n      tag_382\n        /* \"ERC4626.sol\":2504:2512  receiver */\n      dup3\n        /* \"ERC4626.sol\":2514:2520  shares */\n      dup5\n        /* \"ERC4626.sol\":2498:2503  _mint */\n      tag_341\n        /* \"ERC4626.sol\":2498:2521  _mint(receiver, shares) */\n      jump\t// in\n    tag_382:\n        /* \"ERC4626.sol\":2557:2565  receiver */\n      dup2\n        /* \"ERC4626.sol\":2537:2582  Deposit(msg.sender, receiver, assets, shares) */\n      0xffffffffffffffffffffffffffffffffffffffff\n      and\n        /* \"ERC4626.sol\":2545:2555  msg.sender */\n      caller\n        /* \"ERC4626.sol\":2537:2582  Deposit(msg.sender, receiver, assets, shares) */\n      0xffffffffffffffffffffffffffffffffffffffff\n      and\n      0xdcbc1c05240f31ff3ad067ef1ee35ce4997762752e3a095284754544f4c709d7\n        /* \"ERC4626.sol\":2567:2573  assets */\n      dup4\n        /* \"ERC4626.sol\":2575:2581  shares */\n      dup7\n        /* \"ERC4626.sol\":2537:2582  Deposit(msg.sender, receiver, assets, shares) */\n      mload(0x40)\n      tag_383\n      swap3\n      swap2\n      swap1\n      tag_343\n      jump\t// in\n    tag_383:\n      mload(0x40)\n      dup1\n      swap2\n      sub\n      swap1\n      log3\n        /* \"ERC4626.sol\":2593:2621  afterDeposit(assets, shares) */\n      tag_384\n        /* \"ERC4626.sol\":2606:2612  assets */\n      dup2\n        /* \"ERC4626.sol\":2614:2620  shares */\n      dup5\n        /* \"ERC4626.sol\":2593:2605  afterDeposit */\n      tag_345\n        /* \"ERC4626.sol\":2593:2621  afterDeposit(assets, shares) */\n      jump\t// in\n    tag_384:\n        /* \"ERC4626.sol\":2133:2628  function mint(uint256 shares, address receiver)... */\n      swap3\n      swap2\n      pop\n      pop\n      jump\t// out\n        /* \"ERC20.sol\":1086:1106  string public symbol */\n    tag_182:\n      0x01\n      dup1\n      sload\n      tag_385\n      swap1\n      tag_284\n      jump\t// in\n    tag_385:\n      dup1\n      0x1f\n      add\n      0x20\n      dup1\n      swap2\n      div\n      mul\n      0x20\n      add\n      mload(0x40)\n      swap1\n      dup2\n      add\n      0x40\n      mstore\n      dup1\n      swap3\n      swap2\n      swap1\n      dup2\n      dup2\n      mstore\n      0x20\n      add\n      dup3\n      dup1\n      sload\n      tag_386\n      swap1\n      tag_284\n      jump\t// in\n    tag_386:\n      dup1\n      iszero\n      tag_387\n      jumpi\n      dup1\n      0x1f\n      lt\n      tag_388\n      jumpi\n      0x0100\n      dup1\n      dup4\n      sload\n      div\n      mul\n      dup4\n      mstore\n      swap2\n      0x20\n      add\n      swap2\n      jump(tag_387)\n    tag_388:\n      dup3\n      add\n      swap2\n      swap1\n      0x00\n      mstore\n      keccak256(0x00, 0x20)\n      swap1\n    tag_389:\n      dup2\n      sload\n      dup2\n      mstore\n      swap1\n      0x01\n      add\n      swap1\n      0x20\n      add\n      dup1\n      dup4\n      gt\n      tag_389\n      jumpi\n      dup3\n      swap1\n      sub\n      0x1f\n      and\n      dup3\n      add\n      swap2\n    tag_387:\n      pop\n      pop\n      pop\n      pop\n      pop\n      dup2\n      jump\t// out\n        /* \"ERC20.sol\":2736:3137  function transfer(address to, uint256 amount)... */\n    tag_187:\n        /* \"ERC20.sol\":2830:2834  bool */\n      0x00\n        /* \"ERC20.sol\":2875:2881  amount */\n      dup2\n        /* \"ERC20.sol\":2850:2859  balanceOf */\n      0x03\n        /* \"ERC20.sol\":2850:2871  balanceOf[msg.sender] */\n      0x00\n        /* \"ERC20.sol\":2860:2870  msg.sender */\n      caller\n        /* \"ERC20.sol\":2850:2871  balanceOf[msg.sender] */\n      0xffffffffffffffffffffffffffffffffffffffff\n      and\n      0xffffffffffffffffffffffffffffffffffffffff\n      and\n      dup2\n      mstore\n      0x20\n      add\n      swap1\n      dup2\n      mstore\n      0x20\n      add\n      0x00\n      keccak256\n      0x00\n        /* \"ERC20.sol\":2850:2881  balanceOf[msg.sender] -= amount */\n      dup3\n      dup3\n      sload\n      tag_391\n      swap2\n      swap1\n      tag_306\n      jump\t// in\n    tag_391:\n      swap3\n      pop\n      pop\n      dup2\n      swap1\n      sstore\n      pop\n        /* \"ERC20.sol\":3044:3050  amount */\n      dup2\n        /* \"ERC20.sol\":3027:3036  balanceOf */\n      0x03\n        /* \"ERC20.sol\":3027:3040  balanceOf[to] */\n      0x00\n        /* \"ERC20.sol\":3037:3039  to */\n      dup6\n        /* \"ERC20.sol\":3027:3040  balanceOf[to] */\n      0xffffffffffffffffffffffffffffffffffffffff\n      and\n      0xffffffffffffffffffffffffffffffffffffffff\n      and\n      dup2\n      mstore\n      0x20\n      add\n      swap1\n      dup2\n      mstore\n      0x20\n      add\n      0x00\n      keccak256\n      0x00\n        /* \"ERC20.sol\":3027:3050  balanceOf[to] += amount */\n      dup3\n      dup3\n      sload\n      add\n      swap3\n      pop\n      pop\n      dup2\n      swap1\n      sstore\n      pop\n        /* \"ERC20.sol\":3097:3099  to */\n      dup3\n        /* \"ERC20.sol\":3076:3108  Transfer(msg.sender, to, amount) */\n      0xffffffffffffffffffffffffffffffffffffffff\n      and\n        /* \"ERC20.sol\":3085:3095  msg.sender */\n      caller\n        /* \"ERC20.sol\":3076:3108  Transfer(msg.sender, to, amount) */\n      0xffffffffffffffffffffffffffffffffffffffff\n      and\n      0xddf252ad1be2c89b69c2b068fc378daa952ba7f163c4a11628f55a4df523b3ef\n        /* \"ERC20.sol\":3101:3107  amount */\n      dup5\n        /* \"ERC20.sol\":3076:3108  Transfer(msg.sender, to, amount) */\n      mload(0x40)\n      tag_392\n      swap2\n      swap1\n      tag_62\n      jump\t// in\n    tag_392:\n      mload(0x40)\n      dup1\n      swap2\n      sub\n      swap1\n      log3\n        /* \"ERC20.sol\":3126:3130  true */\n      0x01\n        /* \"ERC20.sol\":3119:3130  return true */\n      swap1\n      pop\n        /* \"ERC20.sol\":2736:3137  function transfer(address to, uint256 amount)... */\n      swap3\n      swap2\n      pop\n      pop\n      jump\t// out\n        /* \"SquiddyCore.sol\":4252:4500  function claimFees(uint256 sVTokenAmount) external onlyManager {... */\n    tag_192:\n        /* \"SquiddyCore.sol\":1654:1664  msg.sender */\n      caller\n        /* \"SquiddyCore.sol\":1641:1664  manager() == msg.sender */\n      0xffffffffffffffffffffffffffffffffffffffff\n      and\n        /* \"SquiddyCore.sol\":1641:1650  manager() */\n      tag_394\n        /* \"SquiddyCore.sol\":1641:1648  manager */\n      tag_132\n        /* \"SquiddyCore.sol\":1641:1650  manager() */\n      jump\t// in\n    tag_394:\n        /* \"SquiddyCore.sol\":1641:1664  manager() == msg.sender */\n      0xffffffffffffffffffffffffffffffffffffffff\n      and\n      eq\n        /* \"SquiddyCore.sol\":1633:1703  require(manager() == msg.sender, \"Ownable: caller is not the manager\") */\n      tag_395\n      jumpi\n      mload(0x40)\n      0x08c379a000000000000000000000000000000000000000000000000000000000\n      dup2\n      mstore\n      0x04\n      add\n      tag_396\n      swap1\n      tag_313\n      jump\t// in\n    tag_396:\n      mload(0x40)\n      dup1\n      swap2\n      sub\n      swap1\n      revert\n    tag_395:\n        /* \"SquiddyCore.sol\":4342:4352  msg.sender */\n      caller\n        /* \"SquiddyCore.sol\":4330:4368  FeesClaimed(msg.sender, sVTokenAmount) */\n      0xffffffffffffffffffffffffffffffffffffffff\n      and\n      0x9493e5bbe4e8e0ac67284469a2d677403d0378a85a59e341d3abc433d0d9a209\n        /* \"SquiddyCore.sol\":4354:4367  sVTokenAmount */\n      dup3\n        /* \"SquiddyCore.sol\":4330:4368  FeesClaimed(msg.sender, sVTokenAmount) */\n      mload(0x40)\n      tag_398\n      swap2\n      swap1\n      tag_62\n      jump\t// in\n    tag_398:\n      mload(0x40)\n      dup1\n      swap2\n      sub\n      swap1\n      log2\n        /* \"SquiddyCore.sol\":4452:4456  this */\n      address\n        /* \"SquiddyCore.sol\":4446:4466  ERC20(this).transfer */\n      0xffffffffffffffffffffffffffffffffffffffff\n      and\n      0xa9059cbb\n        /* \"SquiddyCore.sol\":4467:4477  msg.sender */\n      caller\n        /* \"SquiddyCore.sol\":4479:4492  sVTokenAmount */\n      dup4\n        /* \"SquiddyCore.sol\":4446:4493  ERC20(this).transfer(msg.sender, sVTokenAmount) */\n      mload(0x40)\n      dup4\n      0xffffffff\n      and\n      0xe0\n      shl\n      dup2\n      mstore\n      0x04\n      add\n      tag_399\n      swap3\n      swap2\n      swap1\n      tag_400\n      jump\t// in\n    tag_399:\n      0x20\n      mload(0x40)\n      dup1\n      dup4\n      sub\n      dup2\n      0x00\n      dup8\n      gas\n      call\n      iszero\n      dup1\n      iszero\n      tag_402\n      jumpi\n      returndatasize\n      0x00\n      dup1\n      returndatacopy\n      revert(0x00, returndatasize)\n    tag_402:\n      pop\n      pop\n      pop\n      pop\n      mload(0x40)\n      returndatasize\n      not(0x1f)\n      0x1f\n      dup3\n      add\n      and\n      dup3\n      add\n      dup1\n      0x40\n      mstore\n      pop\n      dup2\n      add\n      swap1\n      tag_403\n      swap2\n      swap1\n      tag_404\n      jump\t// in\n    tag_403:\n      pop\n        /* \"SquiddyCore.sol\":4252:4500  function claimFees(uint256 sVTokenAmount) external onlyManager {... */\n      pop\n      jump\t// out\n        /* \"ERC4626.sol\":5086:5337  function previewMint(uint256 shares) public view virtual returns (uint256) {... */\n    tag_196:\n        /* \"ERC4626.sol\":5152:5159  uint256 */\n      0x00\n        /* \"ERC4626.sol\":5171:5185  uint256 supply */\n      dup1\n        /* \"ERC4626.sol\":5188:5199  totalSupply */\n      sload(0x02)\n        /* \"ERC4626.sol\":5171:5199  uint256 supply = totalSupply */\n      swap1\n      pop\n        /* \"ERC4626.sol\":5279:5280  0 */\n      0x00\n        /* \"ERC4626.sol\":5269:5275  supply */\n      dup2\n        /* \"ERC4626.sol\":5269:5280  supply == 0 */\n      eq\n        /* \"ERC4626.sol\":5269:5330  supply == 0 ? shares : shares.mulDivUp(totalAssets(), supply) */\n      tag_406\n      jumpi\n        /* \"ERC4626.sol\":5292:5330  shares.mulDivUp(totalAssets(), supply) */\n      tag_407\n        /* \"ERC4626.sol\":5308:5321  totalAssets() */\n      tag_408\n        /* \"ERC4626.sol\":5308:5319  totalAssets */\n      tag_60\n        /* \"ERC4626.sol\":5308:5321  totalAssets() */\n      jump\t// in\n    tag_408:\n        /* \"ERC4626.sol\":5323:5329  supply */\n      dup3\n        /* \"ERC4626.sol\":5292:5298  shares */\n      dup6\n        /* \"ERC4626.sol\":5292:5307  shares.mulDivUp */\n      tag_301\n      swap1\n        /* \"ERC4626.sol\":5292:5330  shares.mulDivUp(totalAssets(), supply) */\n      swap3\n      swap2\n      swap1\n      0xffffffff\n      and\n      jump\t// in\n    tag_407:\n        /* \"ERC4626.sol\":5269:5330  supply == 0 ? shares : shares.mulDivUp(totalAssets(), supply) */\n      jump(tag_409)\n    tag_406:\n        /* \"ERC4626.sol\":5283:5289  shares */\n      dup3\n        /* \"ERC4626.sol\":5269:5330  supply == 0 ? shares : shares.mulDivUp(totalAssets(), supply) */\n    tag_409:\n        /* \"ERC4626.sol\":5262:5330  return supply == 0 ? shares : shares.mulDivUp(totalAssets(), supply) */\n      swap2\n      pop\n      pop\n        /* \"ERC4626.sol\":5086:5337  function previewMint(uint256 shares) public view virtual returns (uint256) {... */\n      swap2\n      swap1\n      pop\n      jump\t// out\n        /* \"ERC4626.sol\":2634:3329  function withdraw(... */\n    tag_202:\n        /* \"ERC4626.sol\":2755:2769  uint256 shares */\n      0x00\n        /* \"ERC4626.sol\":2790:2813  previewWithdraw(assets) */\n      tag_411\n        /* \"ERC4626.sol\":2806:2812  assets */\n      dup5\n        /* \"ERC4626.sol\":2790:2805  previewWithdraw */\n      tag_84\n        /* \"ERC4626.sol\":2790:2813  previewWithdraw(assets) */\n      jump\t// in\n    tag_411:\n        /* \"ERC4626.sol\":2781:2813  shares = previewWithdraw(assets) */\n      swap1\n      pop\n        /* \"ERC4626.sol\":2909:2914  owner */\n      dup2\n        /* \"ERC4626.sol\":2895:2914  msg.sender != owner */\n      0xffffffffffffffffffffffffffffffffffffffff\n      and\n        /* \"ERC4626.sol\":2895:2905  msg.sender */\n      caller\n        /* \"ERC4626.sol\":2895:2914  msg.sender != owner */\n      0xffffffffffffffffffffffffffffffffffffffff\n      and\n      eq\n        /* \"ERC4626.sol\":2891:3135  if (msg.sender != owner) {... */\n      tag_412\n      jumpi\n        /* \"ERC4626.sol\":2930:2945  uint256 allowed */\n      0x00\n        /* \"ERC4626.sol\":2948:2957  allowance */\n      0x04\n        /* \"ERC4626.sol\":2948:2964  allowance[owner] */\n      0x00\n        /* \"ERC4626.sol\":2958:2963  owner */\n      dup5\n        /* \"ERC4626.sol\":2948:2964  allowance[owner] */\n      0xffffffffffffffffffffffffffffffffffffffff\n      and\n      0xffffffffffffffffffffffffffffffffffffffff\n      and\n      dup2\n      mstore\n      0x20\n      add\n      swap1\n      dup2\n      mstore\n      0x20\n      add\n      0x00\n      keccak256\n        /* \"ERC4626.sol\":2948:2976  allowance[owner][msg.sender] */\n      0x00\n        /* \"ERC4626.sol\":2965:2975  msg.sender */\n      caller\n        /* \"ERC4626.sol\":2948:2976  allowance[owner][msg.sender] */\n      0xffffffffffffffffffffffffffffffffffffffff\n      and\n      0xffffffffffffffffffffffffffffffffffffffff\n      and\n      dup2\n      mstore\n      0x20\n      add\n      swap1\n      dup2\n      mstore\n      0x20\n      add\n      0x00\n      keccak256\n      sload\n        /* \"ERC4626.sol\":2930:2976  uint256 allowed = allowance[owner][msg.sender] */\n      swap1\n      pop\n        /* \"ERC4626.sol\":3042:3059  type(uint256).max */\n      0xffffffffffffffffffffffffffffffffffffffffffffffffffffffffffffffff\n        /* \"ERC4626.sol\":3031:3038  allowed */\n      dup2\n        /* \"ERC4626.sol\":3031:3059  allowed != type(uint256).max */\n      eq\n        /* \"ERC4626.sol\":3027:3124  if (allowed != type(uint256).max)... */\n      tag_413\n      jumpi\n        /* \"ERC4626.sol\":3118:3124  shares */\n      dup2\n        /* \"ERC4626.sol\":3108:3115  allowed */\n      dup2\n        /* \"ERC4626.sol\":3108:3124  allowed - shares */\n      tag_414\n      swap2\n      swap1\n      tag_306\n      jump\t// in\n    tag_414:\n        /* \"ERC4626.sol\":3077:3086  allowance */\n      0x04\n        /* \"ERC4626.sol\":3077:3093  allowance[owner] */\n      0x00\n        /* \"ERC4626.sol\":3087:3092  owner */\n      dup6\n        /* \"ERC4626.sol\":3077:3093  allowance[owner] */\n      0xffffffffffffffffffffffffffffffffffffffff\n      and\n      0xffffffffffffffffffffffffffffffffffffffff\n      and\n      dup2\n      mstore\n      0x20\n      add\n      swap1\n      dup2\n      mstore\n      0x20\n      add\n      0x00\n      keccak256\n        /* \"ERC4626.sol\":3077:3105  allowance[owner][msg.sender] */\n      0x00\n        /* \"ERC4626.sol\":3094:3104  msg.sender */\n      caller\n        /* \"ERC4626.sol\":3077:3105  allowance[owner][msg.sender] */\n      0xffffffffffffffffffffffffffffffffffffffff\n      and\n      0xffffffffffffffffffffffffffffffffffffffff\n      and\n      dup2\n      mstore\n      0x20\n      add\n      swap1\n      dup2\n      mstore\n      0x20\n      add\n      0x00\n      keccak256\n        /* \"ERC4626.sol\":3077:3124  allowance[owner][msg.sender] = allowed - shares */\n      dup2\n      swap1\n      sstore\n      pop\n        /* \"ERC4626.sol\":3027:3124  if (allowed != type(uint256).max)... */\n    tag_413:\n        /* \"ERC4626.sol\":2916:3135  {... */\n      pop\n        /* \"ERC4626.sol\":2891:3135  if (msg.sender != owner) {... */\n    tag_412:\n        /* \"ERC4626.sol\":3145:3175  beforeWithdraw(assets, shares) */\n      tag_415\n        /* \"ERC4626.sol\":3160:3166  assets */\n      dup5\n        /* \"ERC4626.sol\":3168:3174  shares */\n      dup3\n        /* \"ERC4626.sol\":3145:3159  beforeWithdraw */\n      tag_416\n        /* \"ERC4626.sol\":3145:3175  beforeWithdraw(assets, shares) */\n      jump\t// in\n    tag_415:\n        /* \"ERC4626.sol\":3186:3206  _burn(owner, shares) */\n      tag_417\n        /* \"ERC4626.sol\":3192:3197  owner */\n      dup3\n        /* \"ERC4626.sol\":3199:3205  shares */\n      dup3\n        /* \"ERC4626.sol\":3186:3191  _burn */\n      tag_418\n        /* \"ERC4626.sol\":3186:3206  _burn(owner, shares) */\n      jump\t// in\n    tag_417:\n        /* \"ERC4626.sol\":3253:3258  owner */\n      dup2\n        /* \"ERC4626.sol\":3222:3275  Withdraw(msg.sender, receiver, owner, assets, shares) */\n      0xffffffffffffffffffffffffffffffffffffffff\n      and\n        /* \"ERC4626.sol\":3243:3251  receiver */\n      dup4\n        /* \"ERC4626.sol\":3222:3275  Withdraw(msg.sender, receiver, owner, assets, shares) */\n      0xffffffffffffffffffffffffffffffffffffffff\n      and\n        /* \"ERC4626.sol\":3231:3241  msg.sender */\n      caller\n        /* \"ERC4626.sol\":3222:3275  Withdraw(msg.sender, receiver, owner, assets, shares) */\n      0xffffffffffffffffffffffffffffffffffffffff\n      and\n      0xfbde797d201c681b91056529119e0b02407c7bb96a4a2c75c01fc9667232c8db\n        /* \"ERC4626.sol\":3260:3266  assets */\n      dup8\n        /* \"ERC4626.sol\":3268:3274  shares */\n      dup6\n        /* \"ERC4626.sol\":3222:3275  Withdraw(msg.sender, receiver, owner, assets, shares) */\n      mload(0x40)\n      tag_419\n      swap3\n      swap2\n      swap1\n      tag_343\n      jump\t// in\n    tag_419:\n      mload(0x40)\n      dup1\n      swap2\n      sub\n      swap1\n      log4\n        /* \"ERC4626.sol\":3286:3322  asset.safeTransfer(receiver, assets) */\n      tag_420\n        /* \"ERC4626.sol\":3305:3313  receiver */\n      dup4\n        /* \"ERC4626.sol\":3315:3321  assets */\n      dup6\n        /* \"ERC4626.sol\":3286:3291  asset */\n      immutable(\"0xecac27c21aa9a89d7be9ad03c2d91e82cbd466284ecdf2bd5bad7f953539cc45\")\n        /* \"ERC4626.sol\":3286:3304  asset.safeTransfer */\n      0xffffffffffffffffffffffffffffffffffffffff\n      and\n      tag_421\n      swap1\n        /* \"ERC4626.sol\":3286:3322  asset.safeTransfer(receiver, assets) */\n      swap3\n      swap2\n      swap1\n      0xffffffff\n      and\n      jump\t// in\n    tag_420:\n        /* \"ERC4626.sol\":2634:3329  function withdraw(... */\n      swap4\n      swap3\n      pop\n      pop\n      pop\n      jump\t// out\n        /* \"ERC4626.sol\":3335:4064  function redeem(... */\n    tag_207:\n        /* \"ERC4626.sol\":3454:3468  uint256 assets */\n      0x00\n        /* \"ERC4626.sol\":3498:3503  owner */\n      dup2\n        /* \"ERC4626.sol\":3484:3503  msg.sender != owner */\n      0xffffffffffffffffffffffffffffffffffffffff\n      and\n        /* \"ERC4626.sol\":3484:3494  msg.sender */\n      caller\n        /* \"ERC4626.sol\":3484:3503  msg.sender != owner */\n      0xffffffffffffffffffffffffffffffffffffffff\n      and\n      eq\n        /* \"ERC4626.sol\":3480:3724  if (msg.sender != owner) {... */\n      tag_423\n      jumpi\n        /* \"ERC4626.sol\":3519:3534  uint256 allowed */\n      0x00\n        /* \"ERC4626.sol\":3537:3546  allowance */\n      0x04\n        /* \"ERC4626.sol\":3537:3553  allowance[owner] */\n      0x00\n        /* \"ERC4626.sol\":3547:3552  owner */\n      dup5\n        /* \"ERC4626.sol\":3537:3553  allowance[owner] */\n      0xffffffffffffffffffffffffffffffffffffffff\n      and\n      0xffffffffffffffffffffffffffffffffffffffff\n      and\n      dup2\n      mstore\n      0x20\n      add\n      swap1\n      dup2\n      mstore\n      0x20\n      add\n      0x00\n      keccak256\n        /* \"ERC4626.sol\":3537:3565  allowance[owner][msg.sender] */\n      0x00\n        /* \"ERC4626.sol\":3554:3564  msg.sender */\n      caller\n        /* \"ERC4626.sol\":3537:3565  allowance[owner][msg.sender] */\n      0xffffffffffffffffffffffffffffffffffffffff\n      and\n      0xffffffffffffffffffffffffffffffffffffffff\n      and\n      dup2\n      mstore\n      0x20\n      add\n      swap1\n      dup2\n      mstore\n      0x20\n      add\n      0x00\n      keccak256\n      sload\n        /* \"ERC4626.sol\":3519:3565  uint256 allowed = allowance[owner][msg.sender] */\n      swap1\n      pop\n        /* \"ERC4626.sol\":3631:3648  type(uint256).max */\n      0xffffffffffffffffffffffffffffffffffffffffffffffffffffffffffffffff\n        /* \"ERC4626.sol\":3620:3627  allowed */\n      dup2\n        /* \"ERC4626.sol\":3620:3648  allowed != type(uint256).max */\n      eq\n        /* \"ERC4626.sol\":3616:3713  if (allowed != type(uint256).max)... */\n      tag_424\n      jumpi\n        /* \"ERC4626.sol\":3707:3713  shares */\n      dup5\n        /* \"ERC4626.sol\":3697:3704  allowed */\n      dup2\n        /* \"ERC4626.sol\":3697:3713  allowed - shares */\n      tag_425\n      swap2\n      swap1\n      tag_306\n      jump\t// in\n    tag_425:\n        /* \"ERC4626.sol\":3666:3675  allowance */\n      0x04\n        /* \"ERC4626.sol\":3666:3682  allowance[owner] */\n      0x00\n        /* \"ERC4626.sol\":3676:3681  owner */\n      dup6\n        /* \"ERC4626.sol\":3666:3682  allowance[owner] */\n      0xffffffffffffffffffffffffffffffffffffffff\n      and\n      0xffffffffffffffffffffffffffffffffffffffff\n      and\n      dup2\n      mstore\n      0x20\n      add\n      swap1\n      dup2\n      mstore\n      0x20\n      add\n      0x00\n      keccak256\n        /* \"ERC4626.sol\":3666:3694  allowance[owner][msg.sender] */\n      0x00\n        /* \"ERC4626.sol\":3683:3693  msg.sender */\n      caller\n        /* \"ERC4626.sol\":3666:3694  allowance[owner][msg.sender] */\n      0xffffffffffffffffffffffffffffffffffffffff\n      and\n      0xffffffffffffffffffffffffffffffffffffffff\n      and\n      dup2\n      mstore\n      0x20\n      add\n      swap1\n      dup2\n      mstore\n      0x20\n      add\n      0x00\n      keccak256\n        /* \"ERC4626.sol\":3666:3713  allowance[owner][msg.sender] = allowed - shares */\n      dup2\n      swap1\n      sstore\n      pop\n        /* \"ERC4626.sol\":3616:3713  if (allowed != type(uint256).max)... */\n    tag_424:\n        /* \"ERC4626.sol\":3505:3724  {... */\n      pop\n        /* \"ERC4626.sol\":3480:3724  if (msg.sender != owner) {... */\n    tag_423:\n        /* \"ERC4626.sol\":3852:3853  0 */\n      0x00\n        /* \"ERC4626.sol\":3826:3847  previewRedeem(shares) */\n      tag_426\n        /* \"ERC4626.sol\":3840:3846  shares */\n      dup6\n        /* \"ERC4626.sol\":3826:3839  previewRedeem */\n      tag_138\n        /* \"ERC4626.sol\":3826:3847  previewRedeem(shares) */\n      jump\t// in\n    tag_426:\n        /* \"ERC4626.sol\":3817:3847  assets = previewRedeem(shares) */\n      swap2\n      pop\n      dup2\n        /* \"ERC4626.sol\":3816:3853  (assets = previewRedeem(shares)) != 0 */\n      eq\n      iszero\n        /* \"ERC4626.sol\":3808:3869  require((assets = previewRedeem(shares)) != 0, \"ZERO_ASSETS\") */\n      tag_427\n      jumpi\n      mload(0x40)\n      0x08c379a000000000000000000000000000000000000000000000000000000000\n      dup2\n      mstore\n      0x04\n      add\n      tag_428\n      swap1\n      tag_429\n      jump\t// in\n    tag_428:\n      mload(0x40)\n      dup1\n      swap2\n      sub\n      swap1\n      revert\n    tag_427:\n        /* \"ERC4626.sol\":3880:3910  beforeWithdraw(assets, shares) */\n      tag_430\n        /* \"ERC4626.sol\":3895:3901  assets */\n      dup2\n        /* \"ERC4626.sol\":3903:3909  shares */\n      dup6\n        /* \"ERC4626.sol\":3880:3894  beforeWithdraw */\n      tag_416\n        /* \"ERC4626.sol\":3880:3910  beforeWithdraw(assets, shares) */\n      jump\t// in\n    tag_430:\n        /* \"ERC4626.sol\":3921:3941  _burn(owner, shares) */\n      tag_431\n        /* \"ERC4626.sol\":3927:3932  owner */\n      dup3\n        /* \"ERC4626.sol\":3934:3940  shares */\n      dup6\n        /* \"ERC4626.sol\":3921:3926  _burn */\n      tag_418\n        /* \"ERC4626.sol\":3921:3941  _burn(owner, shares) */\n      jump\t// in\n    tag_431:\n        /* \"ERC4626.sol\":3988:3993  owner */\n      dup2\n        /* \"ERC4626.sol\":3957:4010  Withdraw(msg.sender, receiver, owner, assets, shares) */\n      0xffffffffffffffffffffffffffffffffffffffff\n      and\n        /* \"ERC4626.sol\":3978:3986  receiver */\n      dup4\n        /* \"ERC4626.sol\":3957:4010  Withdraw(msg.sender, receiver, owner, assets, shares) */\n      0xffffffffffffffffffffffffffffffffffffffff\n      and\n        /* \"ERC4626.sol\":3966:3976  msg.sender */\n      caller\n        /* \"ERC4626.sol\":3957:4010  Withdraw(msg.sender, receiver, owner, assets, shares) */\n      0xffffffffffffffffffffffffffffffffffffffff\n      and\n      0xfbde797d201c681b91056529119e0b02407c7bb96a4a2c75c01fc9667232c8db\n        /* \"ERC4626.sol\":3995:4001  assets */\n      dup5\n        /* \"ERC4626.sol\":4003:4009  shares */\n      dup9\n        /* \"ERC4626.sol\":3957:4010  Withdraw(msg.sender, receiver, owner, assets, shares) */\n      mload(0x40)\n      tag_432\n      swap3\n      swap2\n      swap1\n      tag_343\n      jump\t// in\n    tag_432:\n      mload(0x40)\n      dup1\n      swap2\n      sub\n      swap1\n      log4\n        /* \"ERC4626.sol\":4021:4057  asset.safeTransfer(receiver, assets) */\n      tag_433\n        /* \"ERC4626.sol\":4040:4048  receiver */\n      dup4\n        /* \"ERC4626.sol\":4050:4056  assets */\n      dup3\n        /* \"ERC4626.sol\":4021:4026  asset */\n      immutable(\"0xecac27c21aa9a89d7be9ad03c2d91e82cbd466284ecdf2bd5bad7f953539cc45\")\n        /* \"ERC4626.sol\":4021:4039  asset.safeTransfer */\n      0xffffffffffffffffffffffffffffffffffffffff\n      and\n      tag_421\n      swap1\n        /* \"ERC4626.sol\":4021:4057  asset.safeTransfer(receiver, assets) */\n      swap3\n      swap2\n      swap1\n      0xffffffff\n      and\n      jump\t// in\n    tag_433:\n        /* \"ERC4626.sol\":3335:4064  function redeem(... */\n      swap4\n      swap3\n      pop\n      pop\n      pop\n      jump\t// out\n        /* \"SquiddyCore.sol\":218:268  uint256 public beforeWithdrawHookCalledCounter = 0 */\n    tag_211:\n      sload(0x07)\n      dup2\n      jump\t// out\n        /* \"SquiddyCore.sol\":5001:5421  function setTargetFloatPercent(uint256 newTargetFloatPercent)... */\n    tag_216:\n        /* \"SquiddyCore.sol\":1654:1664  msg.sender */\n      caller\n        /* \"SquiddyCore.sol\":1641:1664  manager() == msg.sender */\n      0xffffffffffffffffffffffffffffffffffffffff\n      and\n        /* \"SquiddyCore.sol\":1641:1650  manager() */\n      tag_435\n        /* \"SquiddyCore.sol\":1641:1648  manager */\n      tag_132\n        /* \"SquiddyCore.sol\":1641:1650  manager() */\n      jump\t// in\n    tag_435:\n        /* \"SquiddyCore.sol\":1641:1664  manager() == msg.sender */\n      0xffffffffffffffffffffffffffffffffffffffff\n      and\n      eq\n        /* \"SquiddyCore.sol\":1633:1703  require(manager() == msg.sender, \"Ownable: caller is not the manager\") */\n      tag_436\n      jumpi\n      mload(0x40)\n      0x08c379a000000000000000000000000000000000000000000000000000000000\n      dup2\n      mstore\n      0x04\n      add\n      tag_437\n      swap1\n      tag_313\n      jump\t// in\n    tag_437:\n      mload(0x40)\n      dup1\n      swap2\n      sub\n      swap1\n      revert\n    tag_436:\n        /* \"SquiddyCore.sol\":5214:5218  1e18 */\n      0x0de0b6b3a7640000\n        /* \"SquiddyCore.sol\":5189:5210  newTargetFloatPercent */\n      dup2\n        /* \"SquiddyCore.sol\":5189:5218  newTargetFloatPercent <= 1e18 */\n      gt\n      iszero\n        /* \"SquiddyCore.sol\":5181:5238  require(newTargetFloatPercent <= 1e18, \"TARGET_TOO_HIGH\") */\n      tag_439\n      jumpi\n      mload(0x40)\n      0x08c379a000000000000000000000000000000000000000000000000000000000\n      dup2\n      mstore\n      0x04\n      add\n      tag_440\n      swap1\n      tag_441\n      jump\t// in\n    tag_440:\n      mload(0x40)\n      dup1\n      swap2\n      sub\n      swap1\n      revert\n    tag_439:\n        /* \"SquiddyCore.sol\":5317:5338  newTargetFloatPercent */\n      dup1\n        /* \"SquiddyCore.sol\":5296:5314  targetFloatPercent */\n      0x0a\n        /* \"SquiddyCore.sol\":5296:5338  targetFloatPercent = newTargetFloatPercent */\n      dup2\n      swap1\n      sstore\n      pop\n        /* \"SquiddyCore.sol\":5380:5390  msg.sender */\n      caller\n        /* \"SquiddyCore.sol\":5354:5414  TargetFloatPercentUpdated(msg.sender, newTargetFloatPercent) */\n      0xffffffffffffffffffffffffffffffffffffffff\n      and\n      0x95bc4480b51f4860106d42850bcae222cf3303fb2b7d433e896205e0ebefe369\n        /* \"SquiddyCore.sol\":5392:5413  newTargetFloatPercent */\n      dup3\n        /* \"SquiddyCore.sol\":5354:5414  TargetFloatPercentUpdated(msg.sender, newTargetFloatPercent) */\n      mload(0x40)\n      tag_442\n      swap2\n      swap1\n      tag_62\n      jump\t// in\n    tag_442:\n      mload(0x40)\n      dup1\n      swap2\n      sub\n      swap1\n      log2\n        /* \"SquiddyCore.sol\":5001:5421  function setTargetFloatPercent(uint256 newTargetFloatPercent)... */\n      pop\n      jump\t// out\n        /* \"SquiddyCore.sol\":370:403  ERC20 public immutable UNDERLYING */\n    tag_219:\n      immutable(\"0x6b5c062ff531e4aab4774f509e92f4d1142a84e2071479e43245c0e4a7940df4\")\n      dup2\n      jump\t// out\n        /* \"ERC4626.sol\":6111:6216  function maxMint(address) public view virtual returns (uint256) {... */\n    tag_224:\n        /* \"ERC4626.sol\":6166:6173  uint256 */\n      0x00\n        /* \"ERC4626.sol\":6192:6209  type(uint256).max */\n      0xffffffffffffffffffffffffffffffffffffffffffffffffffffffffffffffff\n        /* \"ERC4626.sol\":6185:6209  return type(uint256).max */\n      swap1\n      pop\n        /* \"ERC4626.sol\":6111:6216  function maxMint(address) public view virtual returns (uint256) {... */\n      swap2\n      swap1\n      pop\n      jump\t// out\n        /* \"ERC4626.sol\":4321:4614  function convertToShares(uint256 assets)... */\n    tag_229:\n        /* \"ERC4626.sol\":4423:4430  uint256 */\n      0x00\n        /* \"ERC4626.sol\":4446:4460  uint256 supply */\n      dup1\n        /* \"ERC4626.sol\":4463:4474  totalSupply */\n      sload(0x02)\n        /* \"ERC4626.sol\":4446:4474  uint256 supply = totalSupply */\n      swap1\n      pop\n        /* \"ERC4626.sol\":4554:4555  0 */\n      0x00\n        /* \"ERC4626.sol\":4544:4550  supply */\n      dup2\n        /* \"ERC4626.sol\":4544:4555  supply == 0 */\n      eq\n        /* \"ERC4626.sol\":4544:4607  supply == 0 ? assets : assets.mulDivDown(supply, totalAssets()) */\n      tag_445\n      jumpi\n        /* \"ERC4626.sol\":4567:4607  assets.mulDivDown(supply, totalAssets()) */\n      tag_446\n        /* \"ERC4626.sol\":4585:4591  supply */\n      dup2\n        /* \"ERC4626.sol\":4593:4606  totalAssets() */\n      tag_447\n        /* \"ERC4626.sol\":4593:4604  totalAssets */\n      tag_60\n        /* \"ERC4626.sol\":4593:4606  totalAssets() */\n      jump\t// in\n    tag_447:\n        /* \"ERC4626.sol\":4567:4573  assets */\n      dup6\n        /* \"ERC4626.sol\":4567:4584  assets.mulDivDown */\n      tag_293\n      swap1\n        /* \"ERC4626.sol\":4567:4607  assets.mulDivDown(supply, totalAssets()) */\n      swap3\n      swap2\n      swap1\n      0xffffffff\n      and\n      jump\t// in\n    tag_446:\n        /* \"ERC4626.sol\":4544:4607  supply == 0 ? assets : assets.mulDivDown(supply, totalAssets()) */\n      jump(tag_448)\n    tag_445:\n        /* \"ERC4626.sol\":4558:4564  assets */\n      dup3\n        /* \"ERC4626.sol\":4544:4607  supply == 0 ? assets : assets.mulDivDown(supply, totalAssets()) */\n    tag_448:\n        /* \"ERC4626.sol\":4537:4607  return supply == 0 ? assets : assets.mulDivDown(supply, totalAssets()) */\n      swap2\n      pop\n      pop\n        /* \"ERC4626.sol\":4321:4614  function convertToShares(uint256 assets)... */\n      swap2\n      swap1\n      pop\n      jump\t// out\n        /* \"ERC4626.sol\":6222:6353  function maxWithdraw(address owner) public view virtual returns (uint256) {... */\n    tag_234:\n        /* \"ERC4626.sol\":6287:6294  uint256 */\n      0x00\n        /* \"ERC4626.sol\":6313:6346  convertToAssets(balanceOf[owner]) */\n      tag_450\n        /* \"ERC4626.sol\":6329:6338  balanceOf */\n      0x03\n        /* \"ERC4626.sol\":6329:6345  balanceOf[owner] */\n      0x00\n        /* \"ERC4626.sol\":6339:6344  owner */\n      dup5\n        /* \"ERC4626.sol\":6329:6345  balanceOf[owner] */\n      0xffffffffffffffffffffffffffffffffffffffff\n      and\n      0xffffffffffffffffffffffffffffffffffffffff\n      and\n      dup2\n      mstore\n      0x20\n      add\n      swap1\n      dup2\n      mstore\n      0x20\n      add\n      0x00\n      keccak256\n      sload\n        /* \"ERC4626.sol\":6313:6328  convertToAssets */\n      tag_72\n        /* \"ERC4626.sol\":6313:6346  convertToAssets(balanceOf[owner]) */\n      jump\t// in\n    tag_450:\n        /* \"ERC4626.sol\":6306:6346  return convertToAssets(balanceOf[owner]) */\n      swap1\n      pop\n        /* \"ERC4626.sol\":6222:6353  function maxWithdraw(address owner) public view virtual returns (uint256) {... */\n      swap2\n      swap1\n      pop\n      jump\t// out\n        /* \"ERC20.sol\":3936:5465  function permit(... */\n    tag_240:\n        /* \"ERC20.sol\":4155:4170  block.timestamp */\n      timestamp\n        /* \"ERC20.sol\":4143:4151  deadline */\n      dup5\n        /* \"ERC20.sol\":4143:4170  deadline >= block.timestamp */\n      lt\n      iszero\n        /* \"ERC20.sol\":4135:4198  require(deadline >= block.timestamp, \"PERMIT_DEADLINE_EXPIRED\") */\n      tag_452\n      jumpi\n      mload(0x40)\n      0x08c379a000000000000000000000000000000000000000000000000000000000\n      dup2\n      mstore\n      0x04\n      add\n      tag_453\n      swap1\n      tag_454\n      jump\t// in\n    tag_453:\n      mload(0x40)\n      dup1\n      swap2\n      sub\n      swap1\n      revert\n    tag_452:\n        /* \"ERC20.sol\":4363:4387  address recoveredAddress */\n      0x00\n        /* \"ERC20.sol\":4390:5195  ecrecover(... */\n      0x01\n        /* \"ERC20.sol\":4526:4544  DOMAIN_SEPARATOR() */\n      tag_455\n        /* \"ERC20.sol\":4526:4542  DOMAIN_SEPARATOR */\n      tag_112\n        /* \"ERC20.sol\":4526:4544  DOMAIN_SEPARATOR() */\n      jump\t// in\n    tag_455:\n        /* \"ERC20.sol\":4653:4818  keccak256(... */\n      0x6e71edae12b1b97f4d1f60370fef10105fa2faae0126114a169c64845d6126c9\n        /* \"ERC20.sol\":4852:4857  owner */\n      dup11\n        /* \"ERC20.sol\":4891:4898  spender */\n      dup11\n        /* \"ERC20.sol\":4932:4937  value */\n      dup11\n        /* \"ERC20.sol\":4971:4977  nonces */\n      0x05\n        /* \"ERC20.sol\":4971:4984  nonces[owner] */\n      0x00\n        /* \"ERC20.sol\":4978:4983  owner */\n      dup16\n        /* \"ERC20.sol\":4971:4984  nonces[owner] */\n      0xffffffffffffffffffffffffffffffffffffffff\n      and\n      0xffffffffffffffffffffffffffffffffffffffff\n      and\n      dup2\n      mstore\n      0x20\n      add\n      swap1\n      dup2\n      mstore\n      0x20\n      add\n      0x00\n      keccak256\n      0x00\n        /* \"ERC20.sol\":4971:4986  nonces[owner]++ */\n      dup2\n      sload\n      dup1\n      swap3\n      swap2\n      swap1\n      0x01\n      add\n      swap2\n      swap1\n      pop\n      sstore\n        /* \"ERC20.sol\":5020:5028  deadline */\n      dup12\n        /* \"ERC20.sol\":4609:5058  abi.encode(... */\n      add(0x20, mload(0x40))\n      tag_456\n      swap7\n      swap6\n      swap5\n      swap4\n      swap3\n      swap2\n      swap1\n      tag_457\n      jump\t// in\n    tag_456:\n      mload(0x40)\n      0x20\n      dup2\n      dup4\n      sub\n      sub\n      dup2\n      mstore\n      swap1\n      0x40\n      mstore\n        /* \"ERC20.sol\":4570:5084  keccak256(... */\n      dup1\n      mload\n      swap1\n      0x20\n      add\n      keccak256\n        /* \"ERC20.sol\":4448:5106  abi.encodePacked(... */\n      add(0x20, mload(0x40))\n      tag_458\n      swap3\n      swap2\n      swap1\n      tag_459\n      jump\t// in\n    tag_458:\n      mload(0x40)\n      0x20\n      dup2\n      dup4\n      sub\n      sub\n      dup2\n      mstore\n      swap1\n      0x40\n      mstore\n        /* \"ERC20.sol\":4417:5124  keccak256(... */\n      dup1\n      mload\n      swap1\n      0x20\n      add\n      keccak256\n        /* \"ERC20.sol\":5142:5143  v */\n      dup6\n        /* \"ERC20.sol\":5161:5162  r */\n      dup6\n        /* \"ERC20.sol\":5180:5181  s */\n      dup6\n        /* \"ERC20.sol\":4390:5195  ecrecover(... */\n      mload(0x40)\n      0x00\n      dup2\n      mstore\n      0x20\n      add\n      0x40\n      mstore\n      mload(0x40)\n      tag_460\n      swap5\n      swap4\n      swap3\n      swap2\n      swap1\n      tag_461\n      jump\t// in\n    tag_460:\n      0x20\n      mload(0x40)\n      0x20\n      dup2\n      sub\n      swap1\n      dup1\n      dup5\n      sub\n      swap1\n      dup6\n      gas\n      staticcall\n      iszero\n      dup1\n      iszero\n      tag_463\n      jumpi\n      returndatasize\n      0x00\n      dup1\n      returndatacopy\n      revert(0x00, returndatasize)\n    tag_463:\n      pop\n      pop\n      pop\n      mload(sub(mload(0x40), 0x20))\n        /* \"ERC20.sol\":4363:5195  address recoveredAddress = ecrecover(... */\n      swap1\n      pop\n        /* \"ERC20.sol\":5263:5264  0 */\n      0x00\n        /* \"ERC20.sol\":5235:5265  recoveredAddress != address(0) */\n      0xffffffffffffffffffffffffffffffffffffffff\n      and\n        /* \"ERC20.sol\":5235:5251  recoveredAddress */\n      dup2\n        /* \"ERC20.sol\":5235:5265  recoveredAddress != address(0) */\n      0xffffffffffffffffffffffffffffffffffffffff\n      and\n      eq\n      iszero\n        /* \"ERC20.sol\":5235:5294  recoveredAddress != address(0) && recoveredAddress == owner */\n      dup1\n      iszero\n      tag_464\n      jumpi\n      pop\n        /* \"ERC20.sol\":5289:5294  owner */\n      dup8\n        /* \"ERC20.sol\":5269:5294  recoveredAddress == owner */\n      0xffffffffffffffffffffffffffffffffffffffff\n      and\n        /* \"ERC20.sol\":5269:5285  recoveredAddress */\n      dup2\n        /* \"ERC20.sol\":5269:5294  recoveredAddress == owner */\n      0xffffffffffffffffffffffffffffffffffffffff\n      and\n      eq\n        /* \"ERC20.sol\":5235:5294  recoveredAddress != address(0) && recoveredAddress == owner */\n    tag_464:\n        /* \"ERC20.sol\":5210:5342  require(... */\n      tag_465\n      jumpi\n      mload(0x40)\n      0x08c379a000000000000000000000000000000000000000000000000000000000\n      dup2\n      mstore\n      0x04\n      add\n      tag_466\n      swap1\n      tag_467\n      jump\t// in\n    tag_466:\n      mload(0x40)\n      dup1\n      swap2\n      sub\n      swap1\n      revert\n    tag_465:\n        /* \"ERC20.sol\":5396:5401  value */\n      dup6\n        /* \"ERC20.sol\":5357:5366  allowance */\n      0x04\n        /* \"ERC20.sol\":5357:5384  allowance[recoveredAddress] */\n      0x00\n        /* \"ERC20.sol\":5367:5383  recoveredAddress */\n      dup4\n        /* \"ERC20.sol\":5357:5384  allowance[recoveredAddress] */\n      0xffffffffffffffffffffffffffffffffffffffff\n      and\n      0xffffffffffffffffffffffffffffffffffffffff\n      and\n      dup2\n      mstore\n      0x20\n      add\n      swap1\n      dup2\n      mstore\n      0x20\n      add\n      0x00\n      keccak256\n        /* \"ERC20.sol\":5357:5393  allowance[recoveredAddress][spender] */\n      0x00\n        /* \"ERC20.sol\":5385:5392  spender */\n      dup10\n        /* \"ERC20.sol\":5357:5393  allowance[recoveredAddress][spender] */\n      0xffffffffffffffffffffffffffffffffffffffff\n      and\n      0xffffffffffffffffffffffffffffffffffffffff\n      and\n      dup2\n      mstore\n      0x20\n      add\n      swap1\n      dup2\n      mstore\n      0x20\n      add\n      0x00\n      keccak256\n        /* \"ERC20.sol\":5357:5401  allowance[recoveredAddress][spender] = value */\n      dup2\n      swap1\n      sstore\n      pop\n        /* \"ERC20.sol\":4339:5412  unchecked {... */\n      pop\n        /* \"ERC20.sol\":5443:5450  spender */\n      dup6\n        /* \"ERC20.sol\":5427:5458  Approval(owner, spender, value) */\n      0xffffffffffffffffffffffffffffffffffffffff\n      and\n        /* \"ERC20.sol\":5436:5441  owner */\n      dup8\n        /* \"ERC20.sol\":5427:5458  Approval(owner, spender, value) */\n      0xffffffffffffffffffffffffffffffffffffffff\n      and\n      0x8c5be1e5ebec7d5bd14f71427d1e84f3dd0314c0f7b2291e5b200ac8c7c3b925\n        /* \"ERC20.sol\":5452:5457  value */\n      dup8\n        /* \"ERC20.sol\":5427:5458  Approval(owner, spender, value) */\n      mload(0x40)\n      tag_468\n      swap2\n      swap1\n      tag_62\n      jump\t// in\n    tag_468:\n      mload(0x40)\n      dup1\n      swap2\n      sub\n      swap1\n      log3\n        /* \"ERC20.sol\":3936:5465  function permit(... */\n      pop\n      pop\n      pop\n      pop\n      pop\n      pop\n      pop\n      jump\t// out\n        /* \"ERC4626.sol\":6359:6471  function maxRedeem(address owner) public view virtual returns (uint256) {... */\n    tag_244:\n        /* \"ERC4626.sol\":6422:6429  uint256 */\n      0x00\n        /* \"ERC4626.sol\":6448:6457  balanceOf */\n      0x03\n        /* \"ERC4626.sol\":6448:6464  balanceOf[owner] */\n      0x00\n        /* \"ERC4626.sol\":6458:6463  owner */\n      dup4\n        /* \"ERC4626.sol\":6448:6464  balanceOf[owner] */\n      0xffffffffffffffffffffffffffffffffffffffff\n      and\n      0xffffffffffffffffffffffffffffffffffffffff\n      and\n      dup2\n      mstore\n      0x20\n      add\n      swap1\n      dup2\n      mstore\n      0x20\n      add\n      0x00\n      keccak256\n      sload\n        /* \"ERC4626.sol\":6441:6464  return balanceOf[owner] */\n      swap1\n      pop\n        /* \"ERC4626.sol\":6359:6471  function maxRedeem(address owner) public view virtual returns (uint256) {... */\n      swap2\n      swap1\n      pop\n      jump\t// out\n        /* \"SquiddyCore.sol\":8642:8662  bool public isPublic */\n    tag_248:\n      0x0d\n      0x01\n      swap1\n      sload\n      swap1\n      0x0100\n      exp\n      swap1\n      div\n      0xff\n      and\n      dup2\n      jump\t// out\n        /* \"ERC20.sol\":1418:1482  mapping(address => mapping(address => uint256)) public allowance */\n    tag_254:\n      mstore(0x20, 0x04)\n      dup2\n      0x00\n      mstore\n      mstore(0x20, keccak256(0x00, 0x40))\n      dup1\n      0x00\n      mstore\n      keccak256(0x00, 0x40)\n      0x00\n      swap2\n      pop\n      swap2\n      pop\n      pop\n      sload\n      dup2\n      jump\t// out\n        /* \"SquiddyCore.sol\":6962:6998  uint256 public totalStrategyHoldings */\n    tag_258:\n      sload(0x0c)\n      dup2\n      jump\t// out\n        /* \"ERC4626.sol\":4919:5080  function previewDeposit(uint256 assets)... */\n    tag_263:\n        /* \"ERC4626.sol\":5020:5027  uint256 */\n      0x00\n        /* \"ERC4626.sol\":5050:5073  convertToShares(assets) */\n      tag_471\n        /* \"ERC4626.sol\":5066:5072  assets */\n      dup3\n        /* \"ERC4626.sol\":5050:5065  convertToShares */\n      tag_229\n        /* \"ERC4626.sol\":5050:5073  convertToShares(assets) */\n      jump\t// in\n    tag_471:\n        /* \"ERC4626.sol\":5043:5073  return convertToShares(assets) */\n      swap1\n      pop\n        /* \"ERC4626.sol\":4919:5080  function previewDeposit(uint256 assets)... */\n      swap2\n      swap1\n      pop\n      jump\t// out\n        /* \"SquiddyCore.sol\":2961:3243  function transferOwnership(address newOwner) public virtual onlyManager {... */\n    tag_268:\n        /* \"SquiddyCore.sol\":1654:1664  msg.sender */\n      caller\n        /* \"SquiddyCore.sol\":1641:1664  manager() == msg.sender */\n      0xffffffffffffffffffffffffffffffffffffffff\n      and\n        /* \"SquiddyCore.sol\":1641:1650  manager() */\n      tag_473\n        /* \"SquiddyCore.sol\":1641:1648  manager */\n      tag_132\n        /* \"SquiddyCore.sol\":1641:1650  manager() */\n      jump\t// in\n    tag_473:\n        /* \"SquiddyCore.sol\":1641:1664  manager() == msg.sender */\n      0xffffffffffffffffffffffffffffffffffffffff\n      and\n      eq\n        /* \"SquiddyCore.sol\":1633:1703  require(manager() == msg.sender, \"Ownable: caller is not the manager\") */\n      tag_474\n      jumpi\n      mload(0x40)\n      0x08c379a000000000000000000000000000000000000000000000000000000000\n      dup2\n      mstore\n      0x04\n      add\n      tag_475\n      swap1\n      tag_313\n      jump\t// in\n    tag_475:\n      mload(0x40)\n      dup1\n      swap2\n      sub\n      swap1\n      revert\n    tag_474:\n        /* \"SquiddyCore.sol\":3084:3085  0 */\n      0x00\n        /* \"SquiddyCore.sol\":3064:3086  newOwner != address(0) */\n      0xffffffffffffffffffffffffffffffffffffffff\n      and\n        /* \"SquiddyCore.sol\":3064:3072  newOwner */\n      dup2\n        /* \"SquiddyCore.sol\":3064:3086  newOwner != address(0) */\n      0xffffffffffffffffffffffffffffffffffffffff\n      and\n      eq\n      iszero\n        /* \"SquiddyCore.sol\":3043:3152  require(... */\n      tag_477\n      jumpi\n      mload(0x40)\n      0x08c379a000000000000000000000000000000000000000000000000000000000\n      dup2\n      mstore\n      0x04\n      add\n      tag_478\n      swap1\n      tag_479\n      jump\t// in\n    tag_478:\n      mload(0x40)\n      dup1\n      swap2\n      sub\n      swap1\n      revert\n    tag_477:\n        /* \"SquiddyCore.sol\":3198:3206  newOwner */\n      dup1\n        /* \"SquiddyCore.sol\":3167:3207  OwnershipTransferred(_manager, newOwner) */\n      0xffffffffffffffffffffffffffffffffffffffff\n      and\n        /* \"SquiddyCore.sol\":3188:3196  _manager */\n      0x06\n      0x00\n      swap1\n      sload\n      swap1\n      0x0100\n      exp\n      swap1\n      div\n      0xffffffffffffffffffffffffffffffffffffffff\n      and\n        /* \"SquiddyCore.sol\":3167:3207  OwnershipTransferred(_manager, newOwner) */\n      0xffffffffffffffffffffffffffffffffffffffff\n      and\n      0x8be0079c531659141344cd1fd0a4f28419497f9722a3daafe3b4186f6b6457e0\n      mload(0x40)\n      mload(0x40)\n      dup1\n      swap2\n      sub\n      swap1\n      log3\n        /* \"SquiddyCore.sol\":3228:3236  newOwner */\n      dup1\n        /* \"SquiddyCore.sol\":3217:3225  _manager */\n      0x06\n      0x00\n        /* \"SquiddyCore.sol\":3217:3236  _manager = newOwner */\n      0x0100\n      exp\n      dup2\n      sload\n      dup2\n      0xffffffffffffffffffffffffffffffffffffffff\n      mul\n      not\n      and\n      swap1\n      dup4\n      0xffffffffffffffffffffffffffffffffffffffff\n      and\n      mul\n      or\n      swap1\n      sstore\n      pop\n        /* \"SquiddyCore.sol\":2961:3243  function transferOwnership(address newOwner) public virtual onlyManager {... */\n      pop\n      jump\t// out\n        /* \"SquiddyCore.sol\":5772:5800  bool public underlyingIsWETH */\n    tag_271:\n      0x0b\n      0x00\n      swap1\n      sload\n      swap1\n      0x0100\n      exp\n      swap1\n      div\n      0xff\n      and\n      dup2\n      jump\t// out\n        /* \"SquiddyCore.sol\":274:322  uint256 public afterDepositHookCalledCounter = 0 */\n    tag_275:\n      sload(0x08)\n      dup2\n      jump\t// out\n        /* \"FixedPointMathLib.sol\":1507:2130  function mulDivDown(... */\n    tag_293:\n        /* \"FixedPointMathLib.sol\":1623:1632  uint256 z */\n      0x00\n        /* \"FixedPointMathLib.sol\":1720:1721  y */\n      dup3\n        /* \"FixedPointMathLib.sol\":1717:1718  x */\n      dup5\n        /* \"FixedPointMathLib.sol\":1713:1722  mul(x, y) */\n      mul\n        /* \"FixedPointMathLib.sol\":1708:1722  z := mul(x, y) */\n      swap1\n      pop\n        /* \"FixedPointMathLib.sol\":1952:1953  y */\n      dup3\n        /* \"FixedPointMathLib.sol\":1948:1949  x */\n      dup5\n        /* \"FixedPointMathLib.sol\":1945:1946  z */\n      dup3\n        /* \"FixedPointMathLib.sol\":1941:1950  div(z, x) */\n      div\n        /* \"FixedPointMathLib.sol\":1938:1954  eq(div(z, x), y) */\n      eq\n        /* \"FixedPointMathLib.sol\":1934:1935  x */\n      dup5\n        /* \"FixedPointMathLib.sol\":1927:1936  iszero(x) */\n      iszero\n        /* \"FixedPointMathLib.sol\":1924:1955  or(iszero(x), eq(div(z, x), y)) */\n      or\n        /* \"FixedPointMathLib.sol\":1889:1900  denominator */\n      dup3\n        /* \"FixedPointMathLib.sol\":1882:1901  iszero(denominator) */\n      iszero\n        /* \"FixedPointMathLib.sol\":1875:1902  iszero(iszero(denominator)) */\n      iszero\n        /* \"FixedPointMathLib.sol\":1850:1973  and(... */\n      and\n        /* \"FixedPointMathLib.sol\":1823:2032  if iszero(... */\n      tag_481\n      jumpi\n        /* \"FixedPointMathLib.sol\":2016:2017  0 */\n      0x00\n        /* \"FixedPointMathLib.sol\":2013:2014  0 */\n      dup1\n        /* \"FixedPointMathLib.sol\":2006:2018  revert(0, 0) */\n      revert\n        /* \"FixedPointMathLib.sol\":1823:2032  if iszero(... */\n    tag_481:\n        /* \"FixedPointMathLib.sol\":2102:2113  denominator */\n      dup2\n        /* \"FixedPointMathLib.sol\":2099:2100  z */\n      dup2\n        /* \"FixedPointMathLib.sol\":2095:2114  div(z, denominator) */\n      div\n        /* \"FixedPointMathLib.sol\":2090:2114  z := div(z, denominator) */\n      swap1\n      pop\n        /* \"FixedPointMathLib.sol\":1507:2130  function mulDivDown(... */\n      swap4\n      swap3\n      pop\n      pop\n      pop\n      jump\t// out\n        /* \"FixedPointMathLib.sol\":2136:2976  function mulDivUp(... */\n    tag_301:\n        /* \"FixedPointMathLib.sol\":2250:2259  uint256 z */\n      0x00\n        /* \"FixedPointMathLib.sol\":2347:2348  y */\n      dup3\n        /* \"FixedPointMathLib.sol\":2344:2345  x */\n      dup5\n        /* \"FixedPointMathLib.sol\":2340:2349  mul(x, y) */\n      mul\n        /* \"FixedPointMathLib.sol\":2335:2349  z := mul(x, y) */\n      swap1\n      pop\n        /* \"FixedPointMathLib.sol\":2579:2580  y */\n      dup3\n        /* \"FixedPointMathLib.sol\":2575:2576  x */\n      dup5\n        /* \"FixedPointMathLib.sol\":2572:2573  z */\n      dup3\n        /* \"FixedPointMathLib.sol\":2568:2577  div(z, x) */\n      div\n        /* \"FixedPointMathLib.sol\":2565:2581  eq(div(z, x), y) */\n      eq\n        /* \"FixedPointMathLib.sol\":2561:2562  x */\n      dup5\n        /* \"FixedPointMathLib.sol\":2554:2563  iszero(x) */\n      iszero\n        /* \"FixedPointMathLib.sol\":2551:2582  or(iszero(x), eq(div(z, x), y)) */\n      or\n        /* \"FixedPointMathLib.sol\":2516:2527  denominator */\n      dup3\n        /* \"FixedPointMathLib.sol\":2509:2528  iszero(denominator) */\n      iszero\n        /* \"FixedPointMathLib.sol\":2502:2529  iszero(iszero(denominator)) */\n      iszero\n        /* \"FixedPointMathLib.sol\":2477:2600  and(... */\n      and\n        /* \"FixedPointMathLib.sol\":2450:2659  if iszero(... */\n      tag_483\n      jumpi\n        /* \"FixedPointMathLib.sol\":2643:2644  0 */\n      0x00\n        /* \"FixedPointMathLib.sol\":2640:2641  0 */\n      dup1\n        /* \"FixedPointMathLib.sol\":2633:2645  revert(0, 0) */\n      revert\n        /* \"FixedPointMathLib.sol\":2450:2659  if iszero(... */\n    tag_483:\n        /* \"FixedPointMathLib.sol\":2957:2958  1 */\n      0x01\n        /* \"FixedPointMathLib.sol\":2943:2954  denominator */\n      dup3\n        /* \"FixedPointMathLib.sol\":2939:2940  1 */\n      0x01\n        /* \"FixedPointMathLib.sol\":2936:2937  z */\n      dup4\n        /* \"FixedPointMathLib.sol\":2932:2941  sub(z, 1) */\n      sub\n        /* \"FixedPointMathLib.sol\":2928:2955  div(sub(z, 1), denominator) */\n      div\n        /* \"FixedPointMathLib.sol\":2924:2959  add(div(sub(z, 1), denominator), 1) */\n      add\n        /* \"FixedPointMathLib.sol\":2919:2920  z */\n      dup2\n        /* \"FixedPointMathLib.sol\":2912:2921  iszero(z) */\n      iszero\n        /* \"FixedPointMathLib.sol\":2905:2922  iszero(iszero(z)) */\n      iszero\n        /* \"FixedPointMathLib.sol\":2901:2960  mul(iszero(iszero(z)), add(div(sub(z, 1), denominator), 1)) */\n      mul\n        /* \"FixedPointMathLib.sol\":2896:2960  z := mul(iszero(iszero(z)), add(div(sub(z, 1), denominator), 1)) */\n      swap1\n      pop\n        /* \"FixedPointMathLib.sol\":2136:2976  function mulDivUp(... */\n      swap4\n      swap3\n      pop\n      pop\n      pop\n      jump\t// out\n        /* \"ERC20.sol\":5698:6190  function computeDomainSeparator() internal view virtual returns (bytes32) {... */\n    tag_327:\n        /* \"ERC20.sol\":5763:5770  bytes32 */\n      0x00\n        /* \"ERC20.sol\":5860:6001  keccak256(... */\n      0x8b73c3c69bb8fe3d512ecc4cf759cc79239f7b179b0ffacaa9a75d522b39400f\n        /* \"ERC20.sol\":6039:6043  name */\n      0x00\n        /* \"ERC20.sol\":6023:6045  keccak256(bytes(name)) */\n      mload(0x40)\n      tag_485\n      swap2\n      swap1\n      tag_486\n      jump\t// in\n    tag_485:\n      mload(0x40)\n      dup1\n      swap2\n      sub\n      swap1\n      keccak256\n        /* \"ERC20.sol\":6067:6081  keccak256(\"1\") */\n      0xc89efdaa54c0f20c7adf612882df0950f5a951637e0307cdcb4c672f298b8bc6\n        /* \"ERC20.sol\":6103:6116  block.chainid */\n      chainid\n        /* \"ERC20.sol\":6146:6150  this */\n      address\n        /* \"ERC20.sol\":5828:6169  abi.encode(... */\n      add(0x20, mload(0x40))\n      tag_487\n      swap6\n      swap5\n      swap4\n      swap3\n      swap2\n      swap1\n      tag_488\n      jump\t// in\n    tag_487:\n      mload(0x40)\n      0x20\n      dup2\n      dup4\n      sub\n      sub\n      dup2\n      mstore\n      swap1\n      0x40\n      mstore\n        /* \"ERC20.sol\":5801:6183  keccak256(... */\n      dup1\n      mload\n      swap1\n      0x20\n      add\n      keccak256\n        /* \"ERC20.sol\":5782:6183  return... */\n      swap1\n      pop\n        /* \"ERC20.sol\":5698:6190  function computeDomainSeparator() internal view virtual returns (bytes32) {... */\n      swap1\n      jump\t// out\n        /* \"SafeTransferLib.sol\":1277:2954  function safeTransferFrom(... */\n    tag_339:\n        /* \"SafeTransferLib.sol\":1415:1427  bool success */\n      0x00\n        /* \"SafeTransferLib.sol\":1542:1546  0x40 */\n      0x40\n        /* \"SafeTransferLib.sol\":1536:1547  mload(0x40) */\n      mload\n        /* \"SafeTransferLib.sol\":1717:1783  0x23b872dd00000000000000000000000000000000000000000000000000000000 */\n      0x23b872dd00000000000000000000000000000000000000000000000000000000\n        /* \"SafeTransferLib.sol\":1682:1699  freeMemoryPointer */\n      dup2\n        /* \"SafeTransferLib.sol\":1658:1797  mstore(... */\n      mstore\n        /* \"SafeTransferLib.sol\":1844:1848  from */\n      dup5\n        /* \"SafeTransferLib.sol\":1840:1841  4 */\n      0x04\n        /* \"SafeTransferLib.sol\":1821:1838  freeMemoryPointer */\n      dup3\n        /* \"SafeTransferLib.sol\":1817:1842  add(freeMemoryPointer, 4) */\n      add\n        /* \"SafeTransferLib.sol\":1810:1849  mstore(add(freeMemoryPointer, 4), from) */\n      mstore\n        /* \"SafeTransferLib.sol\":1928:1930  to */\n      dup4\n        /* \"SafeTransferLib.sol\":1923:1925  36 */\n      0x24\n        /* \"SafeTransferLib.sol\":1904:1921  freeMemoryPointer */\n      dup3\n        /* \"SafeTransferLib.sol\":1900:1926  add(freeMemoryPointer, 36) */\n      add\n        /* \"SafeTransferLib.sol\":1893:1931  mstore(add(freeMemoryPointer, 36), to) */\n      mstore\n        /* \"SafeTransferLib.sol\":2008:2014  amount */\n      dup3\n        /* \"SafeTransferLib.sol\":2003:2005  68 */\n      0x44\n        /* \"SafeTransferLib.sol\":1984:2001  freeMemoryPointer */\n      dup3\n        /* \"SafeTransferLib.sol\":1980:2006  add(freeMemoryPointer, 68) */\n      add\n        /* \"SafeTransferLib.sol\":1973:2015  mstore(add(freeMemoryPointer, 68), amount) */\n      mstore\n        /* \"SafeTransferLib.sol\":2870:2872  32 */\n      0x20\n        /* \"SafeTransferLib.sol\":2867:2868  0 */\n      0x00\n        /* \"SafeTransferLib.sol\":2862:2865  100 */\n      0x64\n        /* \"SafeTransferLib.sol\":2843:2860  freeMemoryPointer */\n      dup4\n        /* \"SafeTransferLib.sol\":2840:2841  0 */\n      0x00\n        /* \"SafeTransferLib.sol\":2833:2838  token */\n      dup11\n        /* \"SafeTransferLib.sol\":2826:2831  gas() */\n      gas\n        /* \"SafeTransferLib.sol\":2821:2873  call(gas(), token, 0, freeMemoryPointer, 100, 0, 32) */\n      call\n        /* \"SafeTransferLib.sol\":2372:2388  returndatasize() */\n      returndatasize\n        /* \"SafeTransferLib.sol\":2365:2389  iszero(returndatasize()) */\n      iszero\n        /* \"SafeTransferLib.sol\":2339:2341  31 */\n      0x1f\n        /* \"SafeTransferLib.sol\":2321:2337  returndatasize() */\n      returndatasize\n        /* \"SafeTransferLib.sol\":2318:2342  gt(returndatasize(), 31) */\n      gt\n        /* \"SafeTransferLib.sol\":2314:2315  1 */\n      0x01\n        /* \"SafeTransferLib.sol\":2310:2311  0 */\n      0x00\n        /* \"SafeTransferLib.sol\":2304:2312  mload(0) */\n      mload\n        /* \"SafeTransferLib.sol\":2301:2316  eq(mload(0), 1) */\n      eq\n        /* \"SafeTransferLib.sol\":2297:2343  and(eq(mload(0), 1), gt(returndatasize(), 31)) */\n      and\n        /* \"SafeTransferLib.sol\":2273:2407  or(... */\n      or\n        /* \"SafeTransferLib.sol\":2073:2887  and(... */\n      and\n        /* \"SafeTransferLib.sol\":2062:2887  success := and(... */\n      swap2\n      pop\n        /* \"SafeTransferLib.sol\":1447:2897  {... */\n      pop\n        /* \"SafeTransferLib.sol\":2915:2922  success */\n      dup1\n        /* \"SafeTransferLib.sol\":2907:2947  require(success, \"TRANSFER_FROM_FAILED\") */\n      tag_490\n      jumpi\n      mload(0x40)\n      0x08c379a000000000000000000000000000000000000000000000000000000000\n      dup2\n      mstore\n      0x04\n      add\n      tag_491\n      swap1\n      tag_492\n      jump\t// in\n    tag_491:\n      mload(0x40)\n      dup1\n      swap2\n      sub\n      swap1\n      revert\n    tag_490:\n        /* \"SafeTransferLib.sol\":1405:2954  {... */\n      pop\n        /* \"SafeTransferLib.sol\":1277:2954  function safeTransferFrom(... */\n      pop\n      pop\n      pop\n      pop\n      jump\t// out\n        /* \"ERC20.sol\":6384:6709  function _mint(address to, uint256 amount) internal virtual {... */\n    tag_341:\n        /* \"ERC20.sol\":6469:6475  amount */\n      dup1\n        /* \"ERC20.sol\":6454:6465  totalSupply */\n      0x02\n      0x00\n        /* \"ERC20.sol\":6454:6475  totalSupply += amount */\n      dup3\n      dup3\n      sload\n      tag_494\n      swap2\n      swap1\n      tag_495\n      jump\t// in\n    tag_494:\n      swap3\n      pop\n      pop\n      dup2\n      swap1\n      sstore\n      pop\n        /* \"ERC20.sol\":6638:6644  amount */\n      dup1\n        /* \"ERC20.sol\":6621:6630  balanceOf */\n      0x03\n        /* \"ERC20.sol\":6621:6634  balanceOf[to] */\n      0x00\n        /* \"ERC20.sol\":6631:6633  to */\n      dup5\n        /* \"ERC20.sol\":6621:6634  balanceOf[to] */\n      0xffffffffffffffffffffffffffffffffffffffff\n      and\n      0xffffffffffffffffffffffffffffffffffffffff\n      and\n      dup2\n      mstore\n      0x20\n      add\n      swap1\n      dup2\n      mstore\n      0x20\n      add\n      0x00\n      keccak256\n      0x00\n        /* \"ERC20.sol\":6621:6644  balanceOf[to] += amount */\n      dup3\n      dup3\n      sload\n      add\n      swap3\n      pop\n      pop\n      dup2\n      swap1\n      sstore\n      pop\n        /* \"ERC20.sol\":6691:6693  to */\n      dup2\n        /* \"ERC20.sol\":6670:6702  Transfer(address(0), to, amount) */\n      0xffffffffffffffffffffffffffffffffffffffff\n      and\n        /* \"ERC20.sol\":6687:6688  0 */\n      0x00\n        /* \"ERC20.sol\":6670:6702  Transfer(address(0), to, amount) */\n      0xffffffffffffffffffffffffffffffffffffffff\n      and\n      0xddf252ad1be2c89b69c2b068fc378daa952ba7f163c4a11628f55a4df523b3ef\n        /* \"ERC20.sol\":6695:6701  amount */\n      dup4\n        /* \"ERC20.sol\":6670:6702  Transfer(address(0), to, amount) */\n      mload(0x40)\n      tag_496\n      swap2\n      swap1\n      tag_62\n      jump\t// in\n    tag_496:\n      mload(0x40)\n      dup1\n      swap2\n      sub\n      swap1\n      log3\n        /* \"ERC20.sol\":6384:6709  function _mint(address to, uint256 amount) internal virtual {... */\n      pop\n      pop\n      jump\t// out\n        /* \"SquiddyCore.sol\":8185:8291  function afterDeposit(uint256, uint256) internal override {... */\n    tag_345:\n        /* \"SquiddyCore.sol\":8253:8282  afterDepositHookCalledCounter */\n      0x08\n      0x00\n        /* \"SquiddyCore.sol\":8253:8284  afterDepositHookCalledCounter++ */\n      dup2\n      sload\n      dup1\n      swap3\n      swap2\n      swap1\n      tag_498\n      swap1\n      tag_499\n      jump\t// in\n    tag_498:\n      swap2\n      swap1\n      pop\n      sstore\n      pop\n        /* \"SquiddyCore.sol\":8185:8291  function afterDeposit(uint256, uint256) internal override {... */\n      pop\n      pop\n      jump\t// out\n        /* \"SquiddyCore.sol\":7006:7363  function strategyACall(address _searcher,  uint160 _duration, uint _value ) private returns (bool) {... */\n    tag_374:\n        /* \"SquiddyCore.sol\":7099:7103  bool */\n      0x00\n        /* \"SquiddyCore.sol\":7116:7128  bool success */\n      dup1\n        /* \"SquiddyCore.sol\":7130:7147  bytes memory data */\n      0x00\n        /* \"SquiddyCore.sol\":7151:7160  _searcher */\n      dup6\n        /* \"SquiddyCore.sol\":7151:7165  _searcher.call */\n      0xffffffffffffffffffffffffffffffffffffffff\n      and\n        /* \"SquiddyCore.sol\":7173:7179  _value */\n      dup5\n        /* \"SquiddyCore.sol\":7151:7184  _searcher.call{value: _value}(\"\") */\n      mload(0x40)\n      tag_501\n      swap1\n      tag_502\n      jump\t// in\n    tag_501:\n      0x00\n      mload(0x40)\n      dup1\n      dup4\n      sub\n      dup2\n      dup6\n      dup8\n      gas\n      call\n      swap3\n      pop\n      pop\n      pop\n      returndatasize\n      dup1\n      0x00\n      dup2\n      eq\n      tag_505\n      jumpi\n      mload(0x40)\n      swap2\n      pop\n      and(add(returndatasize, 0x3f), not(0x1f))\n      dup3\n      add\n      0x40\n      mstore\n      returndatasize\n      dup3\n      mstore\n      returndatasize\n      0x00\n      0x20\n      dup5\n      add\n      returndatacopy\n      jump(tag_504)\n    tag_505:\n      0x60\n      swap2\n      pop\n    tag_504:\n      pop\n        /* \"SquiddyCore.sol\":7115:7184  (bool success, bytes memory data) = _searcher.call{value: _value}(\"\") */\n      swap2\n      pop\n      swap2\n      pop\n        /* \"SquiddyCore.sol\":7202:7209  success */\n      dup2\n        /* \"SquiddyCore.sol\":7194:7231  require(success, \"Strategy A failed\") */\n      tag_506\n      jumpi\n      mload(0x40)\n      0x08c379a000000000000000000000000000000000000000000000000000000000\n      dup2\n      mstore\n      0x04\n      add\n      tag_507\n      swap1\n      tag_508\n      jump\t// in\n    tag_507:\n      mload(0x40)\n      dup1\n      swap2\n      sub\n      swap1\n      revert\n    tag_506:\n        /* \"SquiddyCore.sol\":7285:7289  this */\n      address\n        /* \"SquiddyCore.sol\":7246:7302  StrategyAInitilized(_searcher, address(this), _duration) */\n      0xffffffffffffffffffffffffffffffffffffffff\n      and\n        /* \"SquiddyCore.sol\":7266:7275  _searcher */\n      dup7\n        /* \"SquiddyCore.sol\":7246:7302  StrategyAInitilized(_searcher, address(this), _duration) */\n      0xffffffffffffffffffffffffffffffffffffffff\n      and\n      0x921fce8b04203d2c416691cd9e563c8c78d2f6ac4d8f522a65f940640ff66091\n        /* \"SquiddyCore.sol\":7292:7301  _duration */\n      dup8\n        /* \"SquiddyCore.sol\":7246:7302  StrategyAInitilized(_searcher, address(this), _duration) */\n      mload(0x40)\n      tag_509\n      swap2\n      swap1\n      tag_510\n      jump\t// in\n    tag_509:\n      mload(0x40)\n      dup1\n      swap2\n      sub\n      swap1\n      log3\n        /* \"SquiddyCore.sol\":7330:7334  data */\n      dup1\n        /* \"SquiddyCore.sol\":7319:7343  abi.decode(data, (bool)) */\n      dup1\n      0x20\n      add\n      swap1\n      mload\n      dup2\n      add\n      swap1\n      tag_511\n      swap2\n      swap1\n      tag_404\n      jump\t// in\n    tag_511:\n        /* \"SquiddyCore.sol\":7312:7343  return abi.decode(data, (bool)) */\n      swap3\n      pop\n      pop\n      pop\n        /* \"SquiddyCore.sol\":7006:7363  function strategyACall(address _searcher,  uint160 _duration, uint _value ) private returns (bool) {... */\n      swap4\n      swap3\n      pop\n      pop\n      pop\n      jump\t// out\n        /* \"SquiddyCore.sol\":8069:8179  function beforeWithdraw(uint256, uint256) internal override {... */\n    tag_416:\n        /* \"SquiddyCore.sol\":8139:8170  beforeWithdrawHookCalledCounter */\n      0x07\n      0x00\n        /* \"SquiddyCore.sol\":8139:8172  beforeWithdrawHookCalledCounter++ */\n      dup2\n      sload\n      dup1\n      swap3\n      swap2\n      swap1\n      tag_513\n      swap1\n      tag_499\n      jump\t// in\n    tag_513:\n      swap2\n      swap1\n      pop\n      sstore\n      pop\n        /* \"SquiddyCore.sol\":8069:8179  function beforeWithdraw(uint256, uint256) internal override {... */\n      pop\n      pop\n      jump\t// out\n        /* \"ERC20.sol\":6715:7043  function _burn(address from, uint256 amount) internal virtual {... */\n    tag_418:\n        /* \"ERC20.sol\":6806:6812  amount */\n      dup1\n        /* \"ERC20.sol\":6787:6796  balanceOf */\n      0x03\n        /* \"ERC20.sol\":6787:6802  balanceOf[from] */\n      0x00\n        /* \"ERC20.sol\":6797:6801  from */\n      dup5\n        /* \"ERC20.sol\":6787:6802  balanceOf[from] */\n      0xffffffffffffffffffffffffffffffffffffffff\n      and\n      0xffffffffffffffffffffffffffffffffffffffff\n      and\n      dup2\n      mstore\n      0x20\n      add\n      swap1\n      dup2\n      mstore\n      0x20\n      add\n      0x00\n      keccak256\n      0x00\n        /* \"ERC20.sol\":6787:6812  balanceOf[from] -= amount */\n      dup3\n      dup3\n      sload\n      tag_515\n      swap2\n      swap1\n      tag_306\n      jump\t// in\n    tag_515:\n      swap3\n      pop\n      pop\n      dup2\n      swap1\n      sstore\n      pop\n        /* \"ERC20.sol\":6970:6976  amount */\n      dup1\n        /* \"ERC20.sol\":6955:6966  totalSupply */\n      0x02\n      0x00\n        /* \"ERC20.sol\":6955:6976  totalSupply -= amount */\n      dup3\n      dup3\n      sload\n      sub\n      swap3\n      pop\n      pop\n      dup2\n      swap1\n      sstore\n      pop\n        /* \"ERC20.sol\":7025:7026  0 */\n      0x00\n        /* \"ERC20.sol\":7002:7036  Transfer(from, address(0), amount) */\n      0xffffffffffffffffffffffffffffffffffffffff\n      and\n        /* \"ERC20.sol\":7011:7015  from */\n      dup3\n        /* \"ERC20.sol\":7002:7036  Transfer(from, address(0), amount) */\n      0xffffffffffffffffffffffffffffffffffffffff\n      and\n      0xddf252ad1be2c89b69c2b068fc378daa952ba7f163c4a11628f55a4df523b3ef\n        /* \"ERC20.sol\":7029:7035  amount */\n      dup4\n        /* \"ERC20.sol\":7002:7036  Transfer(from, address(0), amount) */\n      mload(0x40)\n      tag_516\n      swap2\n      swap1\n      tag_62\n      jump\t// in\n    tag_516:\n      mload(0x40)\n      dup1\n      swap2\n      sub\n      swap1\n      log3\n        /* \"ERC20.sol\":6715:7043  function _burn(address from, uint256 amount) internal virtual {... */\n      pop\n      pop\n      jump\t// out\n        /* \"SafeTransferLib.sol\":2960:4520  function safeTransfer(... */\n    tag_421:\n        /* \"SafeTransferLib.sol\":3072:3084  bool success */\n      0x00\n        /* \"SafeTransferLib.sol\":3199:3203  0x40 */\n      0x40\n        /* \"SafeTransferLib.sol\":3193:3204  mload(0x40) */\n      mload\n        /* \"SafeTransferLib.sol\":3374:3440  0xa9059cbb00000000000000000000000000000000000000000000000000000000 */\n      0xa9059cbb00000000000000000000000000000000000000000000000000000000\n        /* \"SafeTransferLib.sol\":3339:3356  freeMemoryPointer */\n      dup2\n        /* \"SafeTransferLib.sol\":3315:3454  mstore(... */\n      mstore\n        /* \"SafeTransferLib.sol\":3501:3503  to */\n      dup4\n        /* \"SafeTransferLib.sol\":3497:3498  4 */\n      0x04\n        /* \"SafeTransferLib.sol\":3478:3495  freeMemoryPointer */\n      dup3\n        /* \"SafeTransferLib.sol\":3474:3499  add(freeMemoryPointer, 4) */\n      add\n        /* \"SafeTransferLib.sol\":3467:3504  mstore(add(freeMemoryPointer, 4), to) */\n      mstore\n        /* \"SafeTransferLib.sol\":3581:3587  amount */\n      dup3\n        /* \"SafeTransferLib.sol\":3576:3578  36 */\n      0x24\n        /* \"SafeTransferLib.sol\":3557:3574  freeMemoryPointer */\n      dup3\n        /* \"SafeTransferLib.sol\":3553:3579  add(freeMemoryPointer, 36) */\n      add\n        /* \"SafeTransferLib.sol\":3546:3588  mstore(add(freeMemoryPointer, 36), amount) */\n      mstore\n        /* \"SafeTransferLib.sol\":4441:4443  32 */\n      0x20\n        /* \"SafeTransferLib.sol\":4438:4439  0 */\n      0x00\n        /* \"SafeTransferLib.sol\":4434:4436  68 */\n      0x44\n        /* \"SafeTransferLib.sol\":4415:4432  freeMemoryPointer */\n      dup4\n        /* \"SafeTransferLib.sol\":4412:4413  0 */\n      0x00\n        /* \"SafeTransferLib.sol\":4405:4410  token */\n      dup10\n        /* \"SafeTransferLib.sol\":4398:4403  gas() */\n      gas\n        /* \"SafeTransferLib.sol\":4393:4444  call(gas(), token, 0, freeMemoryPointer, 68, 0, 32) */\n      call\n        /* \"SafeTransferLib.sol\":3945:3961  returndatasize() */\n      returndatasize\n        /* \"SafeTransferLib.sol\":3938:3962  iszero(returndatasize()) */\n      iszero\n        /* \"SafeTransferLib.sol\":3912:3914  31 */\n      0x1f\n        /* \"SafeTransferLib.sol\":3894:3910  returndatasize() */\n      returndatasize\n        /* \"SafeTransferLib.sol\":3891:3915  gt(returndatasize(), 31) */\n      gt\n        /* \"SafeTransferLib.sol\":3887:3888  1 */\n      0x01\n        /* \"SafeTransferLib.sol\":3883:3884  0 */\n      0x00\n        /* \"SafeTransferLib.sol\":3877:3885  mload(0) */\n      mload\n        /* \"SafeTransferLib.sol\":3874:3889  eq(mload(0), 1) */\n      eq\n        /* \"SafeTransferLib.sol\":3870:3916  and(eq(mload(0), 1), gt(returndatasize(), 31)) */\n      and\n        /* \"SafeTransferLib.sol\":3846:3980  or(... */\n      or\n        /* \"SafeTransferLib.sol\":3646:4458  and(... */\n      and\n        /* \"SafeTransferLib.sol\":3635:4458  success := and(... */\n      swap2\n      pop\n        /* \"SafeTransferLib.sol\":3104:4468  {... */\n      pop\n        /* \"SafeTransferLib.sol\":4486:4493  success */\n      dup1\n        /* \"SafeTransferLib.sol\":4478:4513  require(success, \"TRANSFER_FAILED\") */\n      tag_518\n      jumpi\n      mload(0x40)\n      0x08c379a000000000000000000000000000000000000000000000000000000000\n      dup2\n      mstore\n      0x04\n      add\n      tag_519\n      swap1\n      tag_520\n      jump\t// in\n    tag_519:\n      mload(0x40)\n      dup1\n      swap2\n      sub\n      swap1\n      revert\n    tag_518:\n        /* \"SafeTransferLib.sol\":3062:4520  {... */\n      pop\n        /* \"SafeTransferLib.sol\":2960:4520  function safeTransfer(... */\n      pop\n      pop\n      pop\n      jump\t// out\n        /* \"#utility.yul\":7:84   */\n    tag_521:\n        /* \"#utility.yul\":44:51   */\n      0x00\n        /* \"#utility.yul\":73:78   */\n      dup2\n        /* \"#utility.yul\":62:78   */\n      swap1\n      pop\n        /* \"#utility.yul\":7:84   */\n      swap2\n      swap1\n      pop\n      jump\t// out\n        /* \"#utility.yul\":90:208   */\n    tag_522:\n        /* \"#utility.yul\":177:201   */\n      tag_603\n        /* \"#utility.yul\":195:200   */\n      dup2\n        /* \"#utility.yul\":177:201   */\n      tag_521\n      jump\t// in\n    tag_603:\n        /* \"#utility.yul\":172:175   */\n      dup3\n        /* \"#utility.yul\":165:202   */\n      mstore\n        /* \"#utility.yul\":90:208   */\n      pop\n      pop\n      jump\t// out\n        /* \"#utility.yul\":214:436   */\n    tag_62:\n        /* \"#utility.yul\":307:311   */\n      0x00\n        /* \"#utility.yul\":345:347   */\n      0x20\n        /* \"#utility.yul\":334:343   */\n      dup3\n        /* \"#utility.yul\":330:348   */\n      add\n        /* \"#utility.yul\":322:348   */\n      swap1\n      pop\n        /* \"#utility.yul\":358:429   */\n      tag_605\n        /* \"#utility.yul\":426:427   */\n      0x00\n        /* \"#utility.yul\":415:424   */\n      dup4\n        /* \"#utility.yul\":411:428   */\n      add\n        /* \"#utility.yul\":402:408   */\n      dup5\n        /* \"#utility.yul\":358:429   */\n      tag_522\n      jump\t// in\n    tag_605:\n        /* \"#utility.yul\":214:436   */\n      swap3\n      swap2\n      pop\n      pop\n      jump\t// out\n        /* \"#utility.yul\":442:541   */\n    tag_523:\n        /* \"#utility.yul\":494:500   */\n      0x00\n        /* \"#utility.yul\":528:533   */\n      dup2\n        /* \"#utility.yul\":522:534   */\n      mload\n        /* \"#utility.yul\":512:534   */\n      swap1\n      pop\n        /* \"#utility.yul\":442:541   */\n      swap2\n      swap1\n      pop\n      jump\t// out\n        /* \"#utility.yul\":547:716   */\n    tag_524:\n        /* \"#utility.yul\":631:642   */\n      0x00\n        /* \"#utility.yul\":665:671   */\n      dup3\n        /* \"#utility.yul\":660:663   */\n      dup3\n        /* \"#utility.yul\":653:672   */\n      mstore\n        /* \"#utility.yul\":705:709   */\n      0x20\n        /* \"#utility.yul\":700:703   */\n      dup3\n        /* \"#utility.yul\":696:710   */\n      add\n        /* \"#utility.yul\":681:710   */\n      swap1\n      pop\n        /* \"#utility.yul\":547:716   */\n      swap3\n      swap2\n      pop\n      pop\n      jump\t// out\n        /* \"#utility.yul\":722:1029   */\n    tag_525:\n        /* \"#utility.yul\":790:791   */\n      0x00\n        /* \"#utility.yul\":800:913   */\n    tag_609:\n        /* \"#utility.yul\":814:820   */\n      dup4\n        /* \"#utility.yul\":811:812   */\n      dup2\n        /* \"#utility.yul\":808:821   */\n      lt\n        /* \"#utility.yul\":800:913   */\n      iszero\n      tag_611\n      jumpi\n        /* \"#utility.yul\":899:900   */\n      dup1\n        /* \"#utility.yul\":894:897   */\n      dup3\n        /* \"#utility.yul\":890:901   */\n      add\n        /* \"#utility.yul\":884:902   */\n      mload\n        /* \"#utility.yul\":880:881   */\n      dup2\n        /* \"#utility.yul\":875:878   */\n      dup5\n        /* \"#utility.yul\":871:882   */\n      add\n        /* \"#utility.yul\":864:903   */\n      mstore\n        /* \"#utility.yul\":836:838   */\n      0x20\n        /* \"#utility.yul\":833:834   */\n      dup2\n        /* \"#utility.yul\":829:839   */\n      add\n        /* \"#utility.yul\":824:839   */\n      swap1\n      pop\n        /* \"#utility.yul\":800:913   */\n      jump(tag_609)\n    tag_611:\n        /* \"#utility.yul\":931:937   */\n      dup4\n        /* \"#utility.yul\":928:929   */\n      dup2\n        /* \"#utility.yul\":925:938   */\n      gt\n        /* \"#utility.yul\":922:1023   */\n      iszero\n      tag_612\n      jumpi\n        /* \"#utility.yul\":1011:1012   */\n      0x00\n        /* \"#utility.yul\":1002:1008   */\n      dup5\n        /* \"#utility.yul\":997:1000   */\n      dup5\n        /* \"#utility.yul\":993:1009   */\n      add\n        /* \"#utility.yul\":986:1013   */\n      mstore\n        /* \"#utility.yul\":922:1023   */\n    tag_612:\n        /* \"#utility.yul\":771:1029   */\n      pop\n        /* \"#utility.yul\":722:1029   */\n      pop\n      pop\n      pop\n      jump\t// out\n        /* \"#utility.yul\":1035:1137   */\n    tag_526:\n        /* \"#utility.yul\":1076:1082   */\n      0x00\n        /* \"#utility.yul\":1127:1129   */\n      0x1f\n        /* \"#utility.yul\":1123:1130   */\n      not\n        /* \"#utility.yul\":1118:1120   */\n      0x1f\n        /* \"#utility.yul\":1111:1116   */\n      dup4\n        /* \"#utility.yul\":1107:1121   */\n      add\n        /* \"#utility.yul\":1103:1131   */\n      and\n        /* \"#utility.yul\":1093:1131   */\n      swap1\n      pop\n        /* \"#utility.yul\":1035:1137   */\n      swap2\n      swap1\n      pop\n      jump\t// out\n        /* \"#utility.yul\":1143:1507   */\n    tag_527:\n        /* \"#utility.yul\":1231:1234   */\n      0x00\n        /* \"#utility.yul\":1259:1298   */\n      tag_615\n        /* \"#utility.yul\":1292:1297   */\n      dup3\n        /* \"#utility.yul\":1259:1298   */\n      tag_523\n      jump\t// in\n    tag_615:\n        /* \"#utility.yul\":1314:1385   */\n      tag_616\n        /* \"#utility.yul\":1378:1384   */\n      dup2\n        /* \"#utility.yul\":1373:1376   */\n      dup6\n        /* \"#utility.yul\":1314:1385   */\n      tag_524\n      jump\t// in\n    tag_616:\n        /* \"#utility.yul\":1307:1385   */\n      swap4\n      pop\n        /* \"#utility.yul\":1394:1446   */\n      tag_617\n        /* \"#utility.yul\":1439:1445   */\n      dup2\n        /* \"#utility.yul\":1434:1437   */\n      dup6\n        /* \"#utility.yul\":1427:1431   */\n      0x20\n        /* \"#utility.yul\":1420:1425   */\n      dup7\n        /* \"#utility.yul\":1416:1432   */\n      add\n        /* \"#utility.yul\":1394:1446   */\n      tag_525\n      jump\t// in\n    tag_617:\n        /* \"#utility.yul\":1471:1500   */\n      tag_618\n        /* \"#utility.yul\":1493:1499   */\n      dup2\n        /* \"#utility.yul\":1471:1500   */\n      tag_526\n      jump\t// in\n    tag_618:\n        /* \"#utility.yul\":1466:1469   */\n      dup5\n        /* \"#utility.yul\":1462:1501   */\n      add\n        /* \"#utility.yul\":1455:1501   */\n      swap2\n      pop\n        /* \"#utility.yul\":1235:1507   */\n      pop\n        /* \"#utility.yul\":1143:1507   */\n      swap3\n      swap2\n      pop\n      pop\n      jump\t// out\n        /* \"#utility.yul\":1513:1826   */\n    tag_67:\n        /* \"#utility.yul\":1626:1630   */\n      0x00\n        /* \"#utility.yul\":1664:1666   */\n      0x20\n        /* \"#utility.yul\":1653:1662   */\n      dup3\n        /* \"#utility.yul\":1649:1667   */\n      add\n        /* \"#utility.yul\":1641:1667   */\n      swap1\n      pop\n        /* \"#utility.yul\":1713:1722   */\n      dup2\n        /* \"#utility.yul\":1707:1711   */\n      dup2\n        /* \"#utility.yul\":1703:1723   */\n      sub\n        /* \"#utility.yul\":1699:1700   */\n      0x00\n        /* \"#utility.yul\":1688:1697   */\n      dup4\n        /* \"#utility.yul\":1684:1701   */\n      add\n        /* \"#utility.yul\":1677:1724   */\n      mstore\n        /* \"#utility.yul\":1741:1819   */\n      tag_620\n        /* \"#utility.yul\":1814:1818   */\n      dup2\n        /* \"#utility.yul\":1805:1811   */\n      dup5\n        /* \"#utility.yul\":1741:1819   */\n      tag_527\n      jump\t// in\n    tag_620:\n        /* \"#utility.yul\":1733:1819   */\n      swap1\n      pop\n        /* \"#utility.yul\":1513:1826   */\n      swap3\n      swap2\n      pop\n      pop\n      jump\t// out\n        /* \"#utility.yul\":1913:2030   */\n    tag_529:\n        /* \"#utility.yul\":2022:2023   */\n      0x00\n        /* \"#utility.yul\":2019:2020   */\n      dup1\n        /* \"#utility.yul\":2012:2024   */\n      revert\n        /* \"#utility.yul\":2159:2281   */\n    tag_531:\n        /* \"#utility.yul\":2232:2256   */\n      tag_625\n        /* \"#utility.yul\":2250:2255   */\n      dup2\n        /* \"#utility.yul\":2232:2256   */\n      tag_521\n      jump\t// in\n    tag_625:\n        /* \"#utility.yul\":2225:2230   */\n      dup2\n        /* \"#utility.yul\":2222:2257   */\n      eq\n        /* \"#utility.yul\":2212:2275   */\n      tag_626\n      jumpi\n        /* \"#utility.yul\":2271:2272   */\n      0x00\n        /* \"#utility.yul\":2268:2269   */\n      dup1\n        /* \"#utility.yul\":2261:2273   */\n      revert\n        /* \"#utility.yul\":2212:2275   */\n    tag_626:\n        /* \"#utility.yul\":2159:2281   */\n      pop\n      jump\t// out\n        /* \"#utility.yul\":2287:2426   */\n    tag_532:\n        /* \"#utility.yul\":2333:2338   */\n      0x00\n        /* \"#utility.yul\":2371:2377   */\n      dup2\n        /* \"#utility.yul\":2358:2378   */\n      calldataload\n        /* \"#utility.yul\":2349:2378   */\n      swap1\n      pop\n        /* \"#utility.yul\":2387:2420   */\n      tag_628\n        /* \"#utility.yul\":2414:2419   */\n      dup2\n        /* \"#utility.yul\":2387:2420   */\n      tag_531\n      jump\t// in\n    tag_628:\n        /* \"#utility.yul\":2287:2426   */\n      swap3\n      swap2\n      pop\n      pop\n      jump\t// out\n        /* \"#utility.yul\":2432:2761   */\n    tag_71:\n        /* \"#utility.yul\":2491:2497   */\n      0x00\n        /* \"#utility.yul\":2540:2542   */\n      0x20\n        /* \"#utility.yul\":2528:2537   */\n      dup3\n        /* \"#utility.yul\":2519:2526   */\n      dup5\n        /* \"#utility.yul\":2515:2538   */\n      sub\n        /* \"#utility.yul\":2511:2543   */\n      slt\n        /* \"#utility.yul\":2508:2627   */\n      iszero\n      tag_630\n      jumpi\n        /* \"#utility.yul\":2546:2625   */\n      tag_631\n      tag_529\n      jump\t// in\n    tag_631:\n        /* \"#utility.yul\":2508:2627   */\n    tag_630:\n        /* \"#utility.yul\":2666:2667   */\n      0x00\n        /* \"#utility.yul\":2691:2744   */\n      tag_632\n        /* \"#utility.yul\":2736:2743   */\n      dup5\n        /* \"#utility.yul\":2727:2733   */\n      dup3\n        /* \"#utility.yul\":2716:2725   */\n      dup6\n        /* \"#utility.yul\":2712:2734   */\n      add\n        /* \"#utility.yul\":2691:2744   */\n      tag_532\n      jump\t// in\n    tag_632:\n        /* \"#utility.yul\":2681:2744   */\n      swap2\n      pop\n        /* \"#utility.yul\":2637:2754   */\n      pop\n        /* \"#utility.yul\":2432:2761   */\n      swap3\n      swap2\n      pop\n      pop\n      jump\t// out\n        /* \"#utility.yul\":2767:2893   */\n    tag_533:\n        /* \"#utility.yul\":2804:2811   */\n      0x00\n        /* \"#utility.yul\":2844:2886   */\n      0xffffffffffffffffffffffffffffffffffffffff\n        /* \"#utility.yul\":2837:2842   */\n      dup3\n        /* \"#utility.yul\":2833:2887   */\n      and\n        /* \"#utility.yul\":2822:2887   */\n      swap1\n      pop\n        /* \"#utility.yul\":2767:2893   */\n      swap2\n      swap1\n      pop\n      jump\t// out\n        /* \"#utility.yul\":2899:2995   */\n    tag_534:\n        /* \"#utility.yul\":2936:2943   */\n      0x00\n        /* \"#utility.yul\":2965:2989   */\n      tag_635\n        /* \"#utility.yul\":2983:2988   */\n      dup3\n        /* \"#utility.yul\":2965:2989   */\n      tag_533\n      jump\t// in\n    tag_635:\n        /* \"#utility.yul\":2954:2989   */\n      swap1\n      pop\n        /* \"#utility.yul\":2899:2995   */\n      swap2\n      swap1\n      pop\n      jump\t// out\n        /* \"#utility.yul\":3001:3123   */\n    tag_535:\n        /* \"#utility.yul\":3074:3098   */\n      tag_637\n        /* \"#utility.yul\":3092:3097   */\n      dup2\n        /* \"#utility.yul\":3074:3098   */\n      tag_534\n      jump\t// in\n    tag_637:\n        /* \"#utility.yul\":3067:3072   */\n      dup2\n        /* \"#utility.yul\":3064:3099   */\n      eq\n        /* \"#utility.yul\":3054:3117   */\n      tag_638\n      jumpi\n        /* \"#utility.yul\":3113:3114   */\n      0x00\n        /* \"#utility.yul\":3110:3111   */\n      dup1\n        /* \"#utility.yul\":3103:3115   */\n      revert\n        /* \"#utility.yul\":3054:3117   */\n    tag_638:\n        /* \"#utility.yul\":3001:3123   */\n      pop\n      jump\t// out\n        /* \"#utility.yul\":3129:3268   */\n    tag_536:\n        /* \"#utility.yul\":3175:3180   */\n      0x00\n        /* \"#utility.yul\":3213:3219   */\n      dup2\n        /* \"#utility.yul\":3200:3220   */\n      calldataload\n        /* \"#utility.yul\":3191:3220   */\n      swap1\n      pop\n        /* \"#utility.yul\":3229:3262   */\n      tag_640\n        /* \"#utility.yul\":3256:3261   */\n      dup2\n        /* \"#utility.yul\":3229:3262   */\n      tag_535\n      jump\t// in\n    tag_640:\n        /* \"#utility.yul\":3129:3268   */\n      swap3\n      swap2\n      pop\n      pop\n      jump\t// out\n        /* \"#utility.yul\":3274:3748   */\n    tag_77:\n        /* \"#utility.yul\":3342:3348   */\n      0x00\n        /* \"#utility.yul\":3350:3356   */\n      dup1\n        /* \"#utility.yul\":3399:3401   */\n      0x40\n        /* \"#utility.yul\":3387:3396   */\n      dup4\n        /* \"#utility.yul\":3378:3385   */\n      dup6\n        /* \"#utility.yul\":3374:3397   */\n      sub\n        /* \"#utility.yul\":3370:3402   */\n      slt\n        /* \"#utility.yul\":3367:3486   */\n      iszero\n      tag_642\n      jumpi\n        /* \"#utility.yul\":3405:3484   */\n      tag_643\n      tag_529\n      jump\t// in\n    tag_643:\n        /* \"#utility.yul\":3367:3486   */\n    tag_642:\n        /* \"#utility.yul\":3525:3526   */\n      0x00\n        /* \"#utility.yul\":3550:3603   */\n      tag_644\n        /* \"#utility.yul\":3595:3602   */\n      dup6\n        /* \"#utility.yul\":3586:3592   */\n      dup3\n        /* \"#utility.yul\":3575:3584   */\n      dup7\n        /* \"#utility.yul\":3571:3593   */\n      add\n        /* \"#utility.yul\":3550:3603   */\n      tag_536\n      jump\t// in\n    tag_644:\n        /* \"#utility.yul\":3540:3603   */\n      swap3\n      pop\n        /* \"#utility.yul\":3496:3613   */\n      pop\n        /* \"#utility.yul\":3652:3654   */\n      0x20\n        /* \"#utility.yul\":3678:3731   */\n      tag_645\n        /* \"#utility.yul\":3723:3730   */\n      dup6\n        /* \"#utility.yul\":3714:3720   */\n      dup3\n        /* \"#utility.yul\":3703:3712   */\n      dup7\n        /* \"#utility.yul\":3699:3721   */\n      add\n        /* \"#utility.yul\":3678:3731   */\n      tag_532\n      jump\t// in\n    tag_645:\n        /* \"#utility.yul\":3668:3731   */\n      swap2\n      pop\n        /* \"#utility.yul\":3623:3741   */\n      pop\n        /* \"#utility.yul\":3274:3748   */\n      swap3\n      pop\n      swap3\n      swap1\n      pop\n      jump\t// out\n        /* \"#utility.yul\":3754:3844   */\n    tag_537:\n        /* \"#utility.yul\":3788:3795   */\n      0x00\n        /* \"#utility.yul\":3831:3836   */\n      dup2\n        /* \"#utility.yul\":3824:3837   */\n      iszero\n        /* \"#utility.yul\":3817:3838   */\n      iszero\n        /* \"#utility.yul\":3806:3838   */\n      swap1\n      pop\n        /* \"#utility.yul\":3754:3844   */\n      swap2\n      swap1\n      pop\n      jump\t// out\n        /* \"#utility.yul\":3850:3959   */\n    tag_538:\n        /* \"#utility.yul\":3931:3952   */\n      tag_648\n        /* \"#utility.yul\":3946:3951   */\n      dup2\n        /* \"#utility.yul\":3931:3952   */\n      tag_537\n      jump\t// in\n    tag_648:\n        /* \"#utility.yul\":3926:3929   */\n      dup3\n        /* \"#utility.yul\":3919:3953   */\n      mstore\n        /* \"#utility.yul\":3850:3959   */\n      pop\n      pop\n      jump\t// out\n        /* \"#utility.yul\":3965:4175   */\n    tag_80:\n        /* \"#utility.yul\":4052:4056   */\n      0x00\n        /* \"#utility.yul\":4090:4092   */\n      0x20\n        /* \"#utility.yul\":4079:4088   */\n      dup3\n        /* \"#utility.yul\":4075:4093   */\n      add\n        /* \"#utility.yul\":4067:4093   */\n      swap1\n      pop\n        /* \"#utility.yul\":4103:4168   */\n      tag_650\n        /* \"#utility.yul\":4165:4166   */\n      0x00\n        /* \"#utility.yul\":4154:4163   */\n      dup4\n        /* \"#utility.yul\":4150:4167   */\n      add\n        /* \"#utility.yul\":4141:4147   */\n      dup5\n        /* \"#utility.yul\":4103:4168   */\n      tag_538\n      jump\t// in\n    tag_650:\n        /* \"#utility.yul\":3965:4175   */\n      swap3\n      swap2\n      pop\n      pop\n      jump\t// out\n        /* \"#utility.yul\":4181:4800   */\n    tag_97:\n        /* \"#utility.yul\":4258:4264   */\n      0x00\n        /* \"#utility.yul\":4266:4272   */\n      dup1\n        /* \"#utility.yul\":4274:4280   */\n      0x00\n        /* \"#utility.yul\":4323:4325   */\n      0x60\n        /* \"#utility.yul\":4311:4320   */\n      dup5\n        /* \"#utility.yul\":4302:4309   */\n      dup7\n        /* \"#utility.yul\":4298:4321   */\n      sub\n        /* \"#utility.yul\":4294:4326   */\n      slt\n        /* \"#utility.yul\":4291:4410   */\n      iszero\n      tag_652\n      jumpi\n        /* \"#utility.yul\":4329:4408   */\n      tag_653\n      tag_529\n      jump\t// in\n    tag_653:\n        /* \"#utility.yul\":4291:4410   */\n    tag_652:\n        /* \"#utility.yul\":4449:4450   */\n      0x00\n        /* \"#utility.yul\":4474:4527   */\n      tag_654\n        /* \"#utility.yul\":4519:4526   */\n      dup7\n        /* \"#utility.yul\":4510:4516   */\n      dup3\n        /* \"#utility.yul\":4499:4508   */\n      dup8\n        /* \"#utility.yul\":4495:4517   */\n      add\n        /* \"#utility.yul\":4474:4527   */\n      tag_536\n      jump\t// in\n    tag_654:\n        /* \"#utility.yul\":4464:4527   */\n      swap4\n      pop\n        /* \"#utility.yul\":4420:4537   */\n      pop\n        /* \"#utility.yul\":4576:4578   */\n      0x20\n        /* \"#utility.yul\":4602:4655   */\n      tag_655\n        /* \"#utility.yul\":4647:4654   */\n      dup7\n        /* \"#utility.yul\":4638:4644   */\n      dup3\n        /* \"#utility.yul\":4627:4636   */\n      dup8\n        /* \"#utility.yul\":4623:4645   */\n      add\n        /* \"#utility.yul\":4602:4655   */\n      tag_536\n      jump\t// in\n    tag_655:\n        /* \"#utility.yul\":4592:4655   */\n      swap3\n      pop\n        /* \"#utility.yul\":4547:4665   */\n      pop\n        /* \"#utility.yul\":4704:4706   */\n      0x40\n        /* \"#utility.yul\":4730:4783   */\n      tag_656\n        /* \"#utility.yul\":4775:4782   */\n      dup7\n        /* \"#utility.yul\":4766:4772   */\n      dup3\n        /* \"#utility.yul\":4755:4764   */\n      dup8\n        /* \"#utility.yul\":4751:4773   */\n      add\n        /* \"#utility.yul\":4730:4783   */\n      tag_532\n      jump\t// in\n    tag_656:\n        /* \"#utility.yul\":4720:4783   */\n      swap2\n      pop\n        /* \"#utility.yul\":4675:4793   */\n      pop\n        /* \"#utility.yul\":4181:4800   */\n      swap3\n      pop\n      swap3\n      pop\n      swap3\n      jump\t// out\n        /* \"#utility.yul\":4806:4892   */\n    tag_539:\n        /* \"#utility.yul\":4841:4848   */\n      0x00\n        /* \"#utility.yul\":4881:4885   */\n      0xff\n        /* \"#utility.yul\":4874:4879   */\n      dup3\n        /* \"#utility.yul\":4870:4886   */\n      and\n        /* \"#utility.yul\":4859:4886   */\n      swap1\n      pop\n        /* \"#utility.yul\":4806:4892   */\n      swap2\n      swap1\n      pop\n      jump\t// out\n        /* \"#utility.yul\":4898:5010   */\n    tag_540:\n        /* \"#utility.yul\":4981:5003   */\n      tag_659\n        /* \"#utility.yul\":4997:5002   */\n      dup2\n        /* \"#utility.yul\":4981:5003   */\n      tag_539\n      jump\t// in\n    tag_659:\n        /* \"#utility.yul\":4976:4979   */\n      dup3\n        /* \"#utility.yul\":4969:5004   */\n      mstore\n        /* \"#utility.yul\":4898:5010   */\n      pop\n      pop\n      jump\t// out\n        /* \"#utility.yul\":5016:5230   */\n    tag_104:\n        /* \"#utility.yul\":5105:5109   */\n      0x00\n        /* \"#utility.yul\":5143:5145   */\n      0x20\n        /* \"#utility.yul\":5132:5141   */\n      dup3\n        /* \"#utility.yul\":5128:5146   */\n      add\n        /* \"#utility.yul\":5120:5146   */\n      swap1\n      pop\n        /* \"#utility.yul\":5156:5223   */\n      tag_661\n        /* \"#utility.yul\":5220:5221   */\n      0x00\n        /* \"#utility.yul\":5209:5218   */\n      dup4\n        /* \"#utility.yul\":5205:5222   */\n      add\n        /* \"#utility.yul\":5196:5202   */\n      dup5\n        /* \"#utility.yul\":5156:5223   */\n      tag_540\n      jump\t// in\n    tag_661:\n        /* \"#utility.yul\":5016:5230   */\n      swap3\n      swap2\n      pop\n      pop\n      jump\t// out\n        /* \"#utility.yul\":5236:5352   */\n    tag_541:\n        /* \"#utility.yul\":5306:5327   */\n      tag_663\n        /* \"#utility.yul\":5321:5326   */\n      dup2\n        /* \"#utility.yul\":5306:5327   */\n      tag_537\n      jump\t// in\n    tag_663:\n        /* \"#utility.yul\":5299:5304   */\n      dup2\n        /* \"#utility.yul\":5296:5328   */\n      eq\n        /* \"#utility.yul\":5286:5346   */\n      tag_664\n      jumpi\n        /* \"#utility.yul\":5342:5343   */\n      0x00\n        /* \"#utility.yul\":5339:5340   */\n      dup1\n        /* \"#utility.yul\":5332:5344   */\n      revert\n        /* \"#utility.yul\":5286:5346   */\n    tag_664:\n        /* \"#utility.yul\":5236:5352   */\n      pop\n      jump\t// out\n        /* \"#utility.yul\":5358:5491   */\n    tag_542:\n        /* \"#utility.yul\":5401:5406   */\n      0x00\n        /* \"#utility.yul\":5439:5445   */\n      dup2\n        /* \"#utility.yul\":5426:5446   */\n      calldataload\n        /* \"#utility.yul\":5417:5446   */\n      swap1\n      pop\n        /* \"#utility.yul\":5455:5485   */\n      tag_666\n        /* \"#utility.yul\":5479:5484   */\n      dup2\n        /* \"#utility.yul\":5455:5485   */\n      tag_541\n      jump\t// in\n    tag_666:\n        /* \"#utility.yul\":5358:5491   */\n      swap3\n      swap2\n      pop\n      pop\n      jump\t// out\n        /* \"#utility.yul\":5497:5820   */\n    tag_108:\n        /* \"#utility.yul\":5553:5559   */\n      0x00\n        /* \"#utility.yul\":5602:5604   */\n      0x20\n        /* \"#utility.yul\":5590:5599   */\n      dup3\n        /* \"#utility.yul\":5581:5588   */\n      dup5\n        /* \"#utility.yul\":5577:5600   */\n      sub\n        /* \"#utility.yul\":5573:5605   */\n      slt\n        /* \"#utility.yul\":5570:5689   */\n      iszero\n      tag_668\n      jumpi\n        /* \"#utility.yul\":5608:5687   */\n      tag_669\n      tag_529\n      jump\t// in\n    tag_669:\n        /* \"#utility.yul\":5570:5689   */\n    tag_668:\n        /* \"#utility.yul\":5728:5729   */\n      0x00\n        /* \"#utility.yul\":5753:5803   */\n      tag_670\n        /* \"#utility.yul\":5795:5802   */\n      dup5\n        /* \"#utility.yul\":5786:5792   */\n      dup3\n        /* \"#utility.yul\":5775:5784   */\n      dup6\n        /* \"#utility.yul\":5771:5793   */\n      add\n        /* \"#utility.yul\":5753:5803   */\n      tag_542\n      jump\t// in\n    tag_670:\n        /* \"#utility.yul\":5743:5803   */\n      swap2\n      pop\n        /* \"#utility.yul\":5699:5813   */\n      pop\n        /* \"#utility.yul\":5497:5820   */\n      swap3\n      swap2\n      pop\n      pop\n      jump\t// out\n        /* \"#utility.yul\":5826:5903   */\n    tag_543:\n        /* \"#utility.yul\":5863:5870   */\n      0x00\n        /* \"#utility.yul\":5892:5897   */\n      dup2\n        /* \"#utility.yul\":5881:5897   */\n      swap1\n      pop\n        /* \"#utility.yul\":5826:5903   */\n      swap2\n      swap1\n      pop\n      jump\t// out\n        /* \"#utility.yul\":5909:6027   */\n    tag_544:\n        /* \"#utility.yul\":5996:6020   */\n      tag_673\n        /* \"#utility.yul\":6014:6019   */\n      dup2\n        /* \"#utility.yul\":5996:6020   */\n      tag_543\n      jump\t// in\n    tag_673:\n        /* \"#utility.yul\":5991:5994   */\n      dup3\n        /* \"#utility.yul\":5984:6021   */\n      mstore\n        /* \"#utility.yul\":5909:6027   */\n      pop\n      pop\n      jump\t// out\n        /* \"#utility.yul\":6033:6255   */\n    tag_114:\n        /* \"#utility.yul\":6126:6130   */\n      0x00\n        /* \"#utility.yul\":6164:6166   */\n      0x20\n        /* \"#utility.yul\":6153:6162   */\n      dup3\n        /* \"#utility.yul\":6149:6167   */\n      add\n        /* \"#utility.yul\":6141:6167   */\n      swap1\n      pop\n        /* \"#utility.yul\":6177:6248   */\n      tag_675\n        /* \"#utility.yul\":6245:6246   */\n      0x00\n        /* \"#utility.yul\":6234:6243   */\n      dup4\n        /* \"#utility.yul\":6230:6247   */\n      add\n        /* \"#utility.yul\":6221:6227   */\n      dup5\n        /* \"#utility.yul\":6177:6248   */\n      tag_544\n      jump\t// in\n    tag_675:\n        /* \"#utility.yul\":6033:6255   */\n      swap3\n      swap2\n      pop\n      pop\n      jump\t// out\n        /* \"#utility.yul\":6261:6321   */\n    tag_545:\n        /* \"#utility.yul\":6289:6292   */\n      0x00\n        /* \"#utility.yul\":6310:6315   */\n      dup2\n        /* \"#utility.yul\":6303:6315   */\n      swap1\n      pop\n        /* \"#utility.yul\":6261:6321   */\n      swap2\n      swap1\n      pop\n      jump\t// out\n        /* \"#utility.yul\":6327:6469   */\n    tag_546:\n        /* \"#utility.yul\":6377:6386   */\n      0x00\n        /* \"#utility.yul\":6410:6463   */\n      tag_678\n        /* \"#utility.yul\":6428:6462   */\n      tag_679\n        /* \"#utility.yul\":6437:6461   */\n      tag_680\n        /* \"#utility.yul\":6455:6460   */\n      dup5\n        /* \"#utility.yul\":6437:6461   */\n      tag_533\n      jump\t// in\n    tag_680:\n        /* \"#utility.yul\":6428:6462   */\n      tag_545\n      jump\t// in\n    tag_679:\n        /* \"#utility.yul\":6410:6463   */\n      tag_533\n      jump\t// in\n    tag_678:\n        /* \"#utility.yul\":6397:6463   */\n      swap1\n      pop\n        /* \"#utility.yul\":6327:6469   */\n      swap2\n      swap1\n      pop\n      jump\t// out\n        /* \"#utility.yul\":6475:6601   */\n    tag_547:\n        /* \"#utility.yul\":6525:6534   */\n      0x00\n        /* \"#utility.yul\":6558:6595   */\n      tag_682\n        /* \"#utility.yul\":6589:6594   */\n      dup3\n        /* \"#utility.yul\":6558:6595   */\n      tag_546\n      jump\t// in\n    tag_682:\n        /* \"#utility.yul\":6545:6595   */\n      swap1\n      pop\n        /* \"#utility.yul\":6475:6601   */\n      swap2\n      swap1\n      pop\n      jump\t// out\n        /* \"#utility.yul\":6607:6746   */\n    tag_548:\n        /* \"#utility.yul\":6670:6679   */\n      0x00\n        /* \"#utility.yul\":6703:6740   */\n      tag_684\n        /* \"#utility.yul\":6734:6739   */\n      dup3\n        /* \"#utility.yul\":6703:6740   */\n      tag_547\n      jump\t// in\n    tag_684:\n        /* \"#utility.yul\":6690:6740   */\n      swap1\n      pop\n        /* \"#utility.yul\":6607:6746   */\n      swap2\n      swap1\n      pop\n      jump\t// out\n        /* \"#utility.yul\":6752:6909   */\n    tag_549:\n        /* \"#utility.yul\":6852:6902   */\n      tag_686\n        /* \"#utility.yul\":6896:6901   */\n      dup2\n        /* \"#utility.yul\":6852:6902   */\n      tag_548\n      jump\t// in\n    tag_686:\n        /* \"#utility.yul\":6847:6850   */\n      dup3\n        /* \"#utility.yul\":6840:6903   */\n      mstore\n        /* \"#utility.yul\":6752:6909   */\n      pop\n      pop\n      jump\t// out\n        /* \"#utility.yul\":6915:7163   */\n    tag_119:\n        /* \"#utility.yul\":7021:7025   */\n      0x00\n        /* \"#utility.yul\":7059:7061   */\n      0x20\n        /* \"#utility.yul\":7048:7057   */\n      dup3\n        /* \"#utility.yul\":7044:7062   */\n      add\n        /* \"#utility.yul\":7036:7062   */\n      swap1\n      pop\n        /* \"#utility.yul\":7072:7156   */\n      tag_688\n        /* \"#utility.yul\":7153:7154   */\n      0x00\n        /* \"#utility.yul\":7142:7151   */\n      dup4\n        /* \"#utility.yul\":7138:7155   */\n      add\n        /* \"#utility.yul\":7129:7135   */\n      dup5\n        /* \"#utility.yul\":7072:7156   */\n      tag_549\n      jump\t// in\n    tag_688:\n        /* \"#utility.yul\":6915:7163   */\n      swap3\n      swap2\n      pop\n      pop\n      jump\t// out\n        /* \"#utility.yul\":7169:7498   */\n    tag_127:\n        /* \"#utility.yul\":7228:7234   */\n      0x00\n        /* \"#utility.yul\":7277:7279   */\n      0x20\n        /* \"#utility.yul\":7265:7274   */\n      dup3\n        /* \"#utility.yul\":7256:7263   */\n      dup5\n        /* \"#utility.yul\":7252:7275   */\n      sub\n        /* \"#utility.yul\":7248:7280   */\n      slt\n        /* \"#utility.yul\":7245:7364   */\n      iszero\n      tag_690\n      jumpi\n        /* \"#utility.yul\":7283:7362   */\n      tag_691\n      tag_529\n      jump\t// in\n    tag_691:\n        /* \"#utility.yul\":7245:7364   */\n    tag_690:\n        /* \"#utility.yul\":7403:7404   */\n      0x00\n        /* \"#utility.yul\":7428:7481   */\n      tag_692\n        /* \"#utility.yul\":7473:7480   */\n      dup5\n        /* \"#utility.yul\":7464:7470   */\n      dup3\n        /* \"#utility.yul\":7453:7462   */\n      dup6\n        /* \"#utility.yul\":7449:7471   */\n      add\n        /* \"#utility.yul\":7428:7481   */\n      tag_536\n      jump\t// in\n    tag_692:\n        /* \"#utility.yul\":7418:7481   */\n      swap2\n      pop\n        /* \"#utility.yul\":7374:7491   */\n      pop\n        /* \"#utility.yul\":7169:7498   */\n      swap3\n      swap2\n      pop\n      pop\n      jump\t// out\n        /* \"#utility.yul\":7504:7622   */\n    tag_550:\n        /* \"#utility.yul\":7591:7615   */\n      tag_694\n        /* \"#utility.yul\":7609:7614   */\n      dup2\n        /* \"#utility.yul\":7591:7615   */\n      tag_534\n      jump\t// in\n    tag_694:\n        /* \"#utility.yul\":7586:7589   */\n      dup3\n        /* \"#utility.yul\":7579:7616   */\n      mstore\n        /* \"#utility.yul\":7504:7622   */\n      pop\n      pop\n      jump\t// out\n        /* \"#utility.yul\":7628:7850   */\n    tag_134:\n        /* \"#utility.yul\":7721:7725   */\n      0x00\n        /* \"#utility.yul\":7759:7761   */\n      0x20\n        /* \"#utility.yul\":7748:7757   */\n      dup3\n        /* \"#utility.yul\":7744:7762   */\n      add\n        /* \"#utility.yul\":7736:7762   */\n      swap1\n      pop\n        /* \"#utility.yul\":7772:7843   */\n      tag_696\n        /* \"#utility.yul\":7840:7841   */\n      0x00\n        /* \"#utility.yul\":7829:7838   */\n      dup4\n        /* \"#utility.yul\":7825:7842   */\n      add\n        /* \"#utility.yul\":7816:7822   */\n      dup5\n        /* \"#utility.yul\":7772:7843   */\n      tag_550\n      jump\t// in\n    tag_696:\n        /* \"#utility.yul\":7628:7850   */\n      swap3\n      swap2\n      pop\n      pop\n      jump\t// out\n        /* \"#utility.yul\":7856:8330   */\n    tag_143:\n        /* \"#utility.yul\":7924:7930   */\n      0x00\n        /* \"#utility.yul\":7932:7938   */\n      dup1\n        /* \"#utility.yul\":7981:7983   */\n      0x40\n        /* \"#utility.yul\":7969:7978   */\n      dup4\n        /* \"#utility.yul\":7960:7967   */\n      dup6\n        /* \"#utility.yul\":7956:7979   */\n      sub\n        /* \"#utility.yul\":7952:7984   */\n      slt\n        /* \"#utility.yul\":7949:8068   */\n      iszero\n      tag_698\n      jumpi\n        /* \"#utility.yul\":7987:8066   */\n      tag_699\n      tag_529\n      jump\t// in\n    tag_699:\n        /* \"#utility.yul\":7949:8068   */\n    tag_698:\n        /* \"#utility.yul\":8107:8108   */\n      0x00\n        /* \"#utility.yul\":8132:8185   */\n      tag_700\n        /* \"#utility.yul\":8177:8184   */\n      dup6\n        /* \"#utility.yul\":8168:8174   */\n      dup3\n        /* \"#utility.yul\":8157:8166   */\n      dup7\n        /* \"#utility.yul\":8153:8175   */\n      add\n        /* \"#utility.yul\":8132:8185   */\n      tag_532\n      jump\t// in\n    tag_700:\n        /* \"#utility.yul\":8122:8185   */\n      swap3\n      pop\n        /* \"#utility.yul\":8078:8195   */\n      pop\n        /* \"#utility.yul\":8234:8236   */\n      0x20\n        /* \"#utility.yul\":8260:8313   */\n      tag_701\n        /* \"#utility.yul\":8305:8312   */\n      dup6\n        /* \"#utility.yul\":8296:8302   */\n      dup3\n        /* \"#utility.yul\":8285:8294   */\n      dup7\n        /* \"#utility.yul\":8281:8303   */\n      add\n        /* \"#utility.yul\":8260:8313   */\n      tag_536\n      jump\t// in\n    tag_701:\n        /* \"#utility.yul\":8250:8313   */\n      swap2\n      pop\n        /* \"#utility.yul\":8205:8323   */\n      pop\n        /* \"#utility.yul\":7856:8330   */\n      swap3\n      pop\n      swap3\n      swap1\n      pop\n      jump\t// out\n        /* \"#utility.yul\":8336:8458   */\n    tag_551:\n        /* \"#utility.yul\":8409:8433   */\n      tag_703\n        /* \"#utility.yul\":8427:8432   */\n      dup2\n        /* \"#utility.yul\":8409:8433   */\n      tag_533\n      jump\t// in\n    tag_703:\n        /* \"#utility.yul\":8402:8407   */\n      dup2\n        /* \"#utility.yul\":8399:8434   */\n      eq\n        /* \"#utility.yul\":8389:8452   */\n      tag_704\n      jumpi\n        /* \"#utility.yul\":8448:8449   */\n      0x00\n        /* \"#utility.yul\":8445:8446   */\n      dup1\n        /* \"#utility.yul\":8438:8450   */\n      revert\n        /* \"#utility.yul\":8389:8452   */\n    tag_704:\n        /* \"#utility.yul\":8336:8458   */\n      pop\n      jump\t// out\n        /* \"#utility.yul\":8464:8603   */\n    tag_552:\n        /* \"#utility.yul\":8510:8515   */\n      0x00\n        /* \"#utility.yul\":8548:8554   */\n      dup2\n        /* \"#utility.yul\":8535:8555   */\n      calldataload\n        /* \"#utility.yul\":8526:8555   */\n      swap1\n      pop\n        /* \"#utility.yul\":8564:8597   */\n      tag_706\n        /* \"#utility.yul\":8591:8596   */\n      dup2\n        /* \"#utility.yul\":8564:8597   */\n      tag_551\n      jump\t// in\n    tag_706:\n        /* \"#utility.yul\":8464:8603   */\n      swap3\n      swap2\n      pop\n      pop\n      jump\t// out\n        /* \"#utility.yul\":8609:9083   */\n    tag_173:\n        /* \"#utility.yul\":8677:8683   */\n      0x00\n        /* \"#utility.yul\":8685:8691   */\n      dup1\n        /* \"#utility.yul\":8734:8736   */\n      0x40\n        /* \"#utility.yul\":8722:8731   */\n      dup4\n        /* \"#utility.yul\":8713:8720   */\n      dup6\n        /* \"#utility.yul\":8709:8732   */\n      sub\n        /* \"#utility.yul\":8705:8737   */\n      slt\n        /* \"#utility.yul\":8702:8821   */\n      iszero\n      tag_708\n      jumpi\n        /* \"#utility.yul\":8740:8819   */\n      tag_709\n      tag_529\n      jump\t// in\n    tag_709:\n        /* \"#utility.yul\":8702:8821   */\n    tag_708:\n        /* \"#utility.yul\":8860:8861   */\n      0x00\n        /* \"#utility.yul\":8885:8938   */\n      tag_710\n        /* \"#utility.yul\":8930:8937   */\n      dup6\n        /* \"#utility.yul\":8921:8927   */\n      dup3\n        /* \"#utility.yul\":8910:8919   */\n      dup7\n        /* \"#utility.yul\":8906:8928   */\n      add\n        /* \"#utility.yul\":8885:8938   */\n      tag_536\n      jump\t// in\n    tag_710:\n        /* \"#utility.yul\":8875:8938   */\n      swap3\n      pop\n        /* \"#utility.yul\":8831:8948   */\n      pop\n        /* \"#utility.yul\":8987:8989   */\n      0x20\n        /* \"#utility.yul\":9013:9066   */\n      tag_711\n        /* \"#utility.yul\":9058:9065   */\n      dup6\n        /* \"#utility.yul\":9049:9055   */\n      dup3\n        /* \"#utility.yul\":9038:9047   */\n      dup7\n        /* \"#utility.yul\":9034:9056   */\n      add\n        /* \"#utility.yul\":9013:9066   */\n      tag_552\n      jump\t// in\n    tag_711:\n        /* \"#utility.yul\":9003:9066   */\n      swap2\n      pop\n        /* \"#utility.yul\":8958:9076   */\n      pop\n        /* \"#utility.yul\":8609:9083   */\n      swap3\n      pop\n      swap3\n      swap1\n      pop\n      jump\t// out\n        /* \"#utility.yul\":9089:9708   */\n    tag_201:\n        /* \"#utility.yul\":9166:9172   */\n      0x00\n        /* \"#utility.yul\":9174:9180   */\n      dup1\n        /* \"#utility.yul\":9182:9188   */\n      0x00\n        /* \"#utility.yul\":9231:9233   */\n      0x60\n        /* \"#utility.yul\":9219:9228   */\n      dup5\n        /* \"#utility.yul\":9210:9217   */\n      dup7\n        /* \"#utility.yul\":9206:9229   */\n      sub\n        /* \"#utility.yul\":9202:9234   */\n      slt\n        /* \"#utility.yul\":9199:9318   */\n      iszero\n      tag_713\n      jumpi\n        /* \"#utility.yul\":9237:9316   */\n      tag_714\n      tag_529\n      jump\t// in\n    tag_714:\n        /* \"#utility.yul\":9199:9318   */\n    tag_713:\n        /* \"#utility.yul\":9357:9358   */\n      0x00\n        /* \"#utility.yul\":9382:9435   */\n      tag_715\n        /* \"#utility.yul\":9427:9434   */\n      dup7\n        /* \"#utility.yul\":9418:9424   */\n      dup3\n        /* \"#utility.yul\":9407:9416   */\n      dup8\n        /* \"#utility.yul\":9403:9425   */\n      add\n        /* \"#utility.yul\":9382:9435   */\n      tag_532\n      jump\t// in\n    tag_715:\n        /* \"#utility.yul\":9372:9435   */\n      swap4\n      pop\n        /* \"#utility.yul\":9328:9445   */\n      pop\n        /* \"#utility.yul\":9484:9486   */\n      0x20\n        /* \"#utility.yul\":9510:9563   */\n      tag_716\n        /* \"#utility.yul\":9555:9562   */\n      dup7\n        /* \"#utility.yul\":9546:9552   */\n      dup3\n        /* \"#utility.yul\":9535:9544   */\n      dup8\n        /* \"#utility.yul\":9531:9553   */\n      add\n        /* \"#utility.yul\":9510:9563   */\n      tag_536\n      jump\t// in\n    tag_716:\n        /* \"#utility.yul\":9500:9563   */\n      swap3\n      pop\n        /* \"#utility.yul\":9455:9573   */\n      pop\n        /* \"#utility.yul\":9612:9614   */\n      0x40\n        /* \"#utility.yul\":9638:9691   */\n      tag_717\n        /* \"#utility.yul\":9683:9690   */\n      dup7\n        /* \"#utility.yul\":9674:9680   */\n      dup3\n        /* \"#utility.yul\":9663:9672   */\n      dup8\n        /* \"#utility.yul\":9659:9681   */\n      add\n        /* \"#utility.yul\":9638:9691   */\n      tag_536\n      jump\t// in\n    tag_717:\n        /* \"#utility.yul\":9628:9691   */\n      swap2\n      pop\n        /* \"#utility.yul\":9583:9701   */\n      pop\n        /* \"#utility.yul\":9089:9708   */\n      swap3\n      pop\n      swap3\n      pop\n      swap3\n      jump\t// out\n        /* \"#utility.yul\":9714:9832   */\n    tag_553:\n        /* \"#utility.yul\":9785:9807   */\n      tag_719\n        /* \"#utility.yul\":9801:9806   */\n      dup2\n        /* \"#utility.yul\":9785:9807   */\n      tag_539\n      jump\t// in\n    tag_719:\n        /* \"#utility.yul\":9778:9783   */\n      dup2\n        /* \"#utility.yul\":9775:9808   */\n      eq\n        /* \"#utility.yul\":9765:9826   */\n      tag_720\n      jumpi\n        /* \"#utility.yul\":9822:9823   */\n      0x00\n        /* \"#utility.yul\":9819:9820   */\n      dup1\n        /* \"#utility.yul\":9812:9824   */\n      revert\n        /* \"#utility.yul\":9765:9826   */\n    tag_720:\n        /* \"#utility.yul\":9714:9832   */\n      pop\n      jump\t// out\n        /* \"#utility.yul\":9838:9973   */\n    tag_554:\n        /* \"#utility.yul\":9882:9887   */\n      0x00\n        /* \"#utility.yul\":9920:9926   */\n      dup2\n        /* \"#utility.yul\":9907:9927   */\n      calldataload\n        /* \"#utility.yul\":9898:9927   */\n      swap1\n      pop\n        /* \"#utility.yul\":9936:9967   */\n      tag_722\n        /* \"#utility.yul\":9961:9966   */\n      dup2\n        /* \"#utility.yul\":9936:9967   */\n      tag_553\n      jump\t// in\n    tag_722:\n        /* \"#utility.yul\":9838:9973   */\n      swap3\n      swap2\n      pop\n      pop\n      jump\t// out\n        /* \"#utility.yul\":9979:10101   */\n    tag_555:\n        /* \"#utility.yul\":10052:10076   */\n      tag_724\n        /* \"#utility.yul\":10070:10075   */\n      dup2\n        /* \"#utility.yul\":10052:10076   */\n      tag_543\n      jump\t// in\n    tag_724:\n        /* \"#utility.yul\":10045:10050   */\n      dup2\n        /* \"#utility.yul\":10042:10077   */\n      eq\n        /* \"#utility.yul\":10032:10095   */\n      tag_725\n      jumpi\n        /* \"#utility.yul\":10091:10092   */\n      0x00\n        /* \"#utility.yul\":10088:10089   */\n      dup1\n        /* \"#utility.yul\":10081:10093   */\n      revert\n        /* \"#utility.yul\":10032:10095   */\n    tag_725:\n        /* \"#utility.yul\":9979:10101   */\n      pop\n      jump\t// out\n        /* \"#utility.yul\":10107:10246   */\n    tag_556:\n        /* \"#utility.yul\":10153:10158   */\n      0x00\n        /* \"#utility.yul\":10191:10197   */\n      dup2\n        /* \"#utility.yul\":10178:10198   */\n      calldataload\n        /* \"#utility.yul\":10169:10198   */\n      swap1\n      pop\n        /* \"#utility.yul\":10207:10240   */\n      tag_727\n        /* \"#utility.yul\":10234:10239   */\n      dup2\n        /* \"#utility.yul\":10207:10240   */\n      tag_555\n      jump\t// in\n    tag_727:\n        /* \"#utility.yul\":10107:10246   */\n      swap3\n      swap2\n      pop\n      pop\n      jump\t// out\n        /* \"#utility.yul\":10252:11451   */\n    tag_239:\n        /* \"#utility.yul\":10363:10369   */\n      0x00\n        /* \"#utility.yul\":10371:10377   */\n      dup1\n        /* \"#utility.yul\":10379:10385   */\n      0x00\n        /* \"#utility.yul\":10387:10393   */\n      dup1\n        /* \"#utility.yul\":10395:10401   */\n      0x00\n        /* \"#utility.yul\":10403:10409   */\n      dup1\n        /* \"#utility.yul\":10411:10417   */\n      0x00\n        /* \"#utility.yul\":10460:10463   */\n      0xe0\n        /* \"#utility.yul\":10448:10457   */\n      dup9\n        /* \"#utility.yul\":10439:10446   */\n      dup11\n        /* \"#utility.yul\":10435:10458   */\n      sub\n        /* \"#utility.yul\":10431:10464   */\n      slt\n        /* \"#utility.yul\":10428:10548   */\n      iszero\n      tag_729\n      jumpi\n        /* \"#utility.yul\":10467:10546   */\n      tag_730\n      tag_529\n      jump\t// in\n    tag_730:\n        /* \"#utility.yul\":10428:10548   */\n    tag_729:\n        /* \"#utility.yul\":10587:10588   */\n      0x00\n        /* \"#utility.yul\":10612:10665   */\n      tag_731\n        /* \"#utility.yul\":10657:10664   */\n      dup11\n        /* \"#utility.yul\":10648:10654   */\n      dup3\n        /* \"#utility.yul\":10637:10646   */\n      dup12\n        /* \"#utility.yul\":10633:10655   */\n      add\n        /* \"#utility.yul\":10612:10665   */\n      tag_536\n      jump\t// in\n    tag_731:\n        /* \"#utility.yul\":10602:10665   */\n      swap8\n      pop\n        /* \"#utility.yul\":10558:10675   */\n      pop\n        /* \"#utility.yul\":10714:10716   */\n      0x20\n        /* \"#utility.yul\":10740:10793   */\n      tag_732\n        /* \"#utility.yul\":10785:10792   */\n      dup11\n        /* \"#utility.yul\":10776:10782   */\n      dup3\n        /* \"#utility.yul\":10765:10774   */\n      dup12\n        /* \"#utility.yul\":10761:10783   */\n      add\n        /* \"#utility.yul\":10740:10793   */\n      tag_536\n      jump\t// in\n    tag_732:\n        /* \"#utility.yul\":10730:10793   */\n      swap7\n      pop\n        /* \"#utility.yul\":10685:10803   */\n      pop\n        /* \"#utility.yul\":10842:10844   */\n      0x40\n        /* \"#utility.yul\":10868:10921   */\n      tag_733\n        /* \"#utility.yul\":10913:10920   */\n      dup11\n        /* \"#utility.yul\":10904:10910   */\n      dup3\n        /* \"#utility.yul\":10893:10902   */\n      dup12\n        /* \"#utility.yul\":10889:10911   */\n      add\n        /* \"#utility.yul\":10868:10921   */\n      tag_532\n      jump\t// in\n    tag_733:\n        /* \"#utility.yul\":10858:10921   */\n      swap6\n      pop\n        /* \"#utility.yul\":10813:10931   */\n      pop\n        /* \"#utility.yul\":10970:10972   */\n      0x60\n        /* \"#utility.yul\":10996:11049   */\n      tag_734\n        /* \"#utility.yul\":11041:11048   */\n      dup11\n        /* \"#utility.yul\":11032:11038   */\n      dup3\n        /* \"#utility.yul\":11021:11030   */\n      dup12\n        /* \"#utility.yul\":11017:11039   */\n      add\n        /* \"#utility.yul\":10996:11049   */\n      tag_532\n      jump\t// in\n    tag_734:\n        /* \"#utility.yul\":10986:11049   */\n      swap5\n      pop\n        /* \"#utility.yul\":10941:11059   */\n      pop\n        /* \"#utility.yul\":11098:11101   */\n      0x80\n        /* \"#utility.yul\":11125:11176   */\n      tag_735\n        /* \"#utility.yul\":11168:11175   */\n      dup11\n        /* \"#utility.yul\":11159:11165   */\n      dup3\n        /* \"#utility.yul\":11148:11157   */\n      dup12\n        /* \"#utility.yul\":11144:11166   */\n      add\n        /* \"#utility.yul\":11125:11176   */\n      tag_554\n      jump\t// in\n    tag_735:\n        /* \"#utility.yul\":11115:11176   */\n      swap4\n      pop\n        /* \"#utility.yul\":11069:11186   */\n      pop\n        /* \"#utility.yul\":11225:11228   */\n      0xa0\n        /* \"#utility.yul\":11252:11305   */\n      tag_736\n        /* \"#utility.yul\":11297:11304   */\n      dup11\n        /* \"#utility.yul\":11288:11294   */\n      dup3\n        /* \"#utility.yul\":11277:11286   */\n      dup12\n        /* \"#utility.yul\":11273:11295   */\n      add\n        /* \"#utility.yul\":11252:11305   */\n      tag_556\n      jump\t// in\n    tag_736:\n        /* \"#utility.yul\":11242:11305   */\n      swap3\n      pop\n        /* \"#utility.yul\":11196:11315   */\n      pop\n        /* \"#utility.yul\":11354:11357   */\n      0xc0\n        /* \"#utility.yul\":11381:11434   */\n      tag_737\n        /* \"#utility.yul\":11426:11433   */\n      dup11\n        /* \"#utility.yul\":11417:11423   */\n      dup3\n        /* \"#utility.yul\":11406:11415   */\n      dup12\n        /* \"#utility.yul\":11402:11424   */\n      add\n        /* \"#utility.yul\":11381:11434   */\n      tag_556\n      jump\t// in\n    tag_737:\n        /* \"#utility.yul\":11371:11434   */\n      swap2\n      pop\n        /* \"#utility.yul\":11325:11444   */\n      pop\n        /* \"#utility.yul\":10252:11451   */\n      swap3\n      swap6\n      swap9\n      swap2\n      swap5\n      swap8\n      pop\n      swap3\n      swap6\n      pop\n      jump\t// out\n        /* \"#utility.yul\":11457:11931   */\n    tag_253:\n        /* \"#utility.yul\":11525:11531   */\n      0x00\n        /* \"#utility.yul\":11533:11539   */\n      dup1\n        /* \"#utility.yul\":11582:11584   */\n      0x40\n        /* \"#utility.yul\":11570:11579   */\n      dup4\n        /* \"#utility.yul\":11561:11568   */\n      dup6\n        /* \"#utility.yul\":11557:11580   */\n      sub\n        /* \"#utility.yul\":11553:11585   */\n      slt\n        /* \"#utility.yul\":11550:11669   */\n      iszero\n      tag_739\n      jumpi\n        /* \"#utility.yul\":11588:11667   */\n      tag_740\n      tag_529\n      jump\t// in\n    tag_740:\n        /* \"#utility.yul\":11550:11669   */\n    tag_739:\n        /* \"#utility.yul\":11708:11709   */\n      0x00\n        /* \"#utility.yul\":11733:11786   */\n      tag_741\n        /* \"#utility.yul\":11778:11785   */\n      dup6\n        /* \"#utility.yul\":11769:11775   */\n      dup3\n        /* \"#utility.yul\":11758:11767   */\n      dup7\n        /* \"#utility.yul\":11754:11776   */\n      add\n        /* \"#utility.yul\":11733:11786   */\n      tag_536\n      jump\t// in\n    tag_741:\n        /* \"#utility.yul\":11723:11786   */\n      swap3\n      pop\n        /* \"#utility.yul\":11679:11796   */\n      pop\n        /* \"#utility.yul\":11835:11837   */\n      0x20\n        /* \"#utility.yul\":11861:11914   */\n      tag_742\n        /* \"#utility.yul\":11906:11913   */\n      dup6\n        /* \"#utility.yul\":11897:11903   */\n      dup3\n        /* \"#utility.yul\":11886:11895   */\n      dup7\n        /* \"#utility.yul\":11882:11904   */\n      add\n        /* \"#utility.yul\":11861:11914   */\n      tag_536\n      jump\t// in\n    tag_742:\n        /* \"#utility.yul\":11851:11914   */\n      swap2\n      pop\n        /* \"#utility.yul\":11806:11924   */\n      pop\n        /* \"#utility.yul\":11457:11931   */\n      swap3\n      pop\n      swap3\n      swap1\n      pop\n      jump\t// out\n        /* \"#utility.yul\":11937:12080   */\n    tag_557:\n        /* \"#utility.yul\":11994:11999   */\n      0x00\n        /* \"#utility.yul\":12025:12031   */\n      dup2\n        /* \"#utility.yul\":12019:12032   */\n      mload\n        /* \"#utility.yul\":12010:12032   */\n      swap1\n      pop\n        /* \"#utility.yul\":12041:12074   */\n      tag_744\n        /* \"#utility.yul\":12068:12073   */\n      dup2\n        /* \"#utility.yul\":12041:12074   */\n      tag_531\n      jump\t// in\n    tag_744:\n        /* \"#utility.yul\":11937:12080   */\n      swap3\n      swap2\n      pop\n      pop\n      jump\t// out\n        /* \"#utility.yul\":12086:12437   */\n    tag_282:\n        /* \"#utility.yul\":12156:12162   */\n      0x00\n        /* \"#utility.yul\":12205:12207   */\n      0x20\n        /* \"#utility.yul\":12193:12202   */\n      dup3\n        /* \"#utility.yul\":12184:12191   */\n      dup5\n        /* \"#utility.yul\":12180:12203   */\n      sub\n        /* \"#utility.yul\":12176:12208   */\n      slt\n        /* \"#utility.yul\":12173:12292   */\n      iszero\n      tag_746\n      jumpi\n        /* \"#utility.yul\":12211:12290   */\n      tag_747\n      tag_529\n      jump\t// in\n    tag_747:\n        /* \"#utility.yul\":12173:12292   */\n    tag_746:\n        /* \"#utility.yul\":12331:12332   */\n      0x00\n        /* \"#utility.yul\":12356:12420   */\n      tag_748\n        /* \"#utility.yul\":12412:12419   */\n      dup5\n        /* \"#utility.yul\":12403:12409   */\n      dup3\n        /* \"#utility.yul\":12392:12401   */\n      dup6\n        /* \"#utility.yul\":12388:12410   */\n      add\n        /* \"#utility.yul\":12356:12420   */\n      tag_557\n      jump\t// in\n    tag_748:\n        /* \"#utility.yul\":12346:12420   */\n      swap2\n      pop\n        /* \"#utility.yul\":12302:12430   */\n      pop\n        /* \"#utility.yul\":12086:12437   */\n      swap3\n      swap2\n      pop\n      pop\n      jump\t// out\n        /* \"#utility.yul\":12443:12623   */\n    tag_558:\n        /* \"#utility.yul\":12491:12568   */\n      0x4e487b7100000000000000000000000000000000000000000000000000000000\n        /* \"#utility.yul\":12488:12489   */\n      0x00\n        /* \"#utility.yul\":12481:12569   */\n      mstore\n        /* \"#utility.yul\":12588:12592   */\n      0x22\n        /* \"#utility.yul\":12585:12586   */\n      0x04\n        /* \"#utility.yul\":12578:12593   */\n      mstore\n        /* \"#utility.yul\":12612:12616   */\n      0x24\n        /* \"#utility.yul\":12609:12610   */\n      0x00\n        /* \"#utility.yul\":12602:12617   */\n      revert\n        /* \"#utility.yul\":12629:12949   */\n    tag_284:\n        /* \"#utility.yul\":12673:12679   */\n      0x00\n        /* \"#utility.yul\":12710:12711   */\n      0x02\n        /* \"#utility.yul\":12704:12708   */\n      dup3\n        /* \"#utility.yul\":12700:12712   */\n      div\n        /* \"#utility.yul\":12690:12712   */\n      swap1\n      pop\n        /* \"#utility.yul\":12757:12758   */\n      0x01\n        /* \"#utility.yul\":12751:12755   */\n      dup3\n        /* \"#utility.yul\":12747:12759   */\n      and\n        /* \"#utility.yul\":12778:12796   */\n      dup1\n        /* \"#utility.yul\":12768:12849   */\n      tag_751\n      jumpi\n        /* \"#utility.yul\":12834:12838   */\n      0x7f\n        /* \"#utility.yul\":12826:12832   */\n      dup3\n        /* \"#utility.yul\":12822:12839   */\n      and\n        /* \"#utility.yul\":12812:12839   */\n      swap2\n      pop\n        /* \"#utility.yul\":12768:12849   */\n    tag_751:\n        /* \"#utility.yul\":12896:12898   */\n      0x20\n        /* \"#utility.yul\":12888:12894   */\n      dup3\n        /* \"#utility.yul\":12885:12899   */\n      lt\n        /* \"#utility.yul\":12865:12883   */\n      dup2\n        /* \"#utility.yul\":12862:12900   */\n      eq\n        /* \"#utility.yul\":12859:12943   */\n      iszero\n      tag_752\n      jumpi\n        /* \"#utility.yul\":12915:12933   */\n      tag_753\n      tag_558\n      jump\t// in\n    tag_753:\n        /* \"#utility.yul\":12859:12943   */\n    tag_752:\n        /* \"#utility.yul\":12680:12949   */\n      pop\n        /* \"#utility.yul\":12629:12949   */\n      swap2\n      swap1\n      pop\n      jump\t// out\n        /* \"#utility.yul\":12955:13135   */\n    tag_559:\n        /* \"#utility.yul\":13003:13080   */\n      0x4e487b7100000000000000000000000000000000000000000000000000000000\n        /* \"#utility.yul\":13000:13001   */\n      0x00\n        /* \"#utility.yul\":12993:13081   */\n      mstore\n        /* \"#utility.yul\":13100:13104   */\n      0x11\n        /* \"#utility.yul\":13097:13098   */\n      0x04\n        /* \"#utility.yul\":13090:13105   */\n      mstore\n        /* \"#utility.yul\":13124:13128   */\n      0x24\n        /* \"#utility.yul\":13121:13122   */\n      0x00\n        /* \"#utility.yul\":13114:13129   */\n      revert\n        /* \"#utility.yul\":13141:13332   */\n    tag_306:\n        /* \"#utility.yul\":13181:13185   */\n      0x00\n        /* \"#utility.yul\":13201:13221   */\n      tag_756\n        /* \"#utility.yul\":13219:13220   */\n      dup3\n        /* \"#utility.yul\":13201:13221   */\n      tag_521\n      jump\t// in\n    tag_756:\n        /* \"#utility.yul\":13196:13221   */\n      swap2\n      pop\n        /* \"#utility.yul\":13235:13255   */\n      tag_757\n        /* \"#utility.yul\":13253:13254   */\n      dup4\n        /* \"#utility.yul\":13235:13255   */\n      tag_521\n      jump\t// in\n    tag_757:\n        /* \"#utility.yul\":13230:13255   */\n      swap3\n      pop\n        /* \"#utility.yul\":13274:13275   */\n      dup3\n        /* \"#utility.yul\":13271:13272   */\n      dup3\n        /* \"#utility.yul\":13268:13276   */\n      lt\n        /* \"#utility.yul\":13265:13299   */\n      iszero\n      tag_758\n      jumpi\n        /* \"#utility.yul\":13279:13297   */\n      tag_759\n      tag_559\n      jump\t// in\n    tag_759:\n        /* \"#utility.yul\":13265:13299   */\n    tag_758:\n        /* \"#utility.yul\":13324:13325   */\n      dup3\n        /* \"#utility.yul\":13321:13322   */\n      dup3\n        /* \"#utility.yul\":13317:13326   */\n      sub\n        /* \"#utility.yul\":13309:13326   */\n      swap1\n      pop\n        /* \"#utility.yul\":13141:13332   */\n      swap3\n      swap2\n      pop\n      pop\n      jump\t// out\n        /* \"#utility.yul\":13338:13559   */\n    tag_560:\n        /* \"#utility.yul\":13478:13512   */\n      0x4f776e61626c653a2063616c6c6572206973206e6f7420746865206d616e6167\n        /* \"#utility.yul\":13474:13475   */\n      0x00\n        /* \"#utility.yul\":13466:13472   */\n      dup3\n        /* \"#utility.yul\":13462:13476   */\n      add\n        /* \"#utility.yul\":13455:13513   */\n      mstore\n        /* \"#utility.yul\":13547:13551   */\n      0x6572000000000000000000000000000000000000000000000000000000000000\n        /* \"#utility.yul\":13542:13544   */\n      0x20\n        /* \"#utility.yul\":13534:13540   */\n      dup3\n        /* \"#utility.yul\":13530:13545   */\n      add\n        /* \"#utility.yul\":13523:13552   */\n      mstore\n        /* \"#utility.yul\":13338:13559   */\n      pop\n      jump\t// out\n        /* \"#utility.yul\":13565:13931   */\n    tag_561:\n        /* \"#utility.yul\":13707:13710   */\n      0x00\n        /* \"#utility.yul\":13728:13795   */\n      tag_762\n        /* \"#utility.yul\":13792:13794   */\n      0x22\n        /* \"#utility.yul\":13787:13790   */\n      dup4\n        /* \"#utility.yul\":13728:13795   */\n      tag_524\n      jump\t// in\n    tag_762:\n        /* \"#utility.yul\":13721:13795   */\n      swap2\n      pop\n        /* \"#utility.yul\":13804:13897   */\n      tag_763\n        /* \"#utility.yul\":13893:13896   */\n      dup3\n        /* \"#utility.yul\":13804:13897   */\n      tag_560\n      jump\t// in\n    tag_763:\n        /* \"#utility.yul\":13922:13924   */\n      0x40\n        /* \"#utility.yul\":13917:13920   */\n      dup3\n        /* \"#utility.yul\":13913:13925   */\n      add\n        /* \"#utility.yul\":13906:13925   */\n      swap1\n      pop\n        /* \"#utility.yul\":13565:13931   */\n      swap2\n      swap1\n      pop\n      jump\t// out\n        /* \"#utility.yul\":13937:14356   */\n    tag_313:\n        /* \"#utility.yul\":14103:14107   */\n      0x00\n        /* \"#utility.yul\":14141:14143   */\n      0x20\n        /* \"#utility.yul\":14130:14139   */\n      dup3\n        /* \"#utility.yul\":14126:14144   */\n      add\n        /* \"#utility.yul\":14118:14144   */\n      swap1\n      pop\n        /* \"#utility.yul\":14190:14199   */\n      dup2\n        /* \"#utility.yul\":14184:14188   */\n      dup2\n        /* \"#utility.yul\":14180:14200   */\n      sub\n        /* \"#utility.yul\":14176:14177   */\n      0x00\n        /* \"#utility.yul\":14165:14174   */\n      dup4\n        /* \"#utility.yul\":14161:14178   */\n      add\n        /* \"#utility.yul\":14154:14201   */\n      mstore\n        /* \"#utility.yul\":14218:14349   */\n      tag_765\n        /* \"#utility.yul\":14344:14348   */\n      dup2\n        /* \"#utility.yul\":14218:14349   */\n      tag_561\n      jump\t// in\n    tag_765:\n        /* \"#utility.yul\":14210:14349   */\n      swap1\n      pop\n        /* \"#utility.yul\":13937:14356   */\n      swap2\n      swap1\n      pop\n      jump\t// out\n        /* \"#utility.yul\":14362:14501   */\n    tag_562:\n        /* \"#utility.yul\":14417:14422   */\n      0x00\n        /* \"#utility.yul\":14448:14454   */\n      dup2\n        /* \"#utility.yul\":14442:14455   */\n      mload\n        /* \"#utility.yul\":14433:14455   */\n      swap1\n      pop\n        /* \"#utility.yul\":14464:14495   */\n      tag_767\n        /* \"#utility.yul\":14489:14494   */\n      dup2\n        /* \"#utility.yul\":14464:14495   */\n      tag_553\n      jump\t// in\n    tag_767:\n        /* \"#utility.yul\":14362:14501   */\n      swap3\n      swap2\n      pop\n      pop\n      jump\t// out\n        /* \"#utility.yul\":14507:14854   */\n    tag_319:\n        /* \"#utility.yul\":14575:14581   */\n      0x00\n        /* \"#utility.yul\":14624:14626   */\n      0x20\n        /* \"#utility.yul\":14612:14621   */\n      dup3\n        /* \"#utility.yul\":14603:14610   */\n      dup5\n        /* \"#utility.yul\":14599:14622   */\n      sub\n        /* \"#utility.yul\":14595:14627   */\n      slt\n        /* \"#utility.yul\":14592:14711   */\n      iszero\n      tag_769\n      jumpi\n        /* \"#utility.yul\":14630:14709   */\n      tag_770\n      tag_529\n      jump\t// in\n    tag_770:\n        /* \"#utility.yul\":14592:14711   */\n    tag_769:\n        /* \"#utility.yul\":14750:14751   */\n      0x00\n        /* \"#utility.yul\":14775:14837   */\n      tag_771\n        /* \"#utility.yul\":14829:14836   */\n      dup5\n        /* \"#utility.yul\":14820:14826   */\n      dup3\n        /* \"#utility.yul\":14809:14818   */\n      dup6\n        /* \"#utility.yul\":14805:14827   */\n      add\n        /* \"#utility.yul\":14775:14837   */\n      tag_562\n      jump\t// in\n    tag_771:\n        /* \"#utility.yul\":14765:14837   */\n      swap2\n      pop\n        /* \"#utility.yul\":14721:14847   */\n      pop\n        /* \"#utility.yul\":14507:14854   */\n      swap3\n      swap2\n      pop\n      pop\n      jump\t// out\n        /* \"#utility.yul\":14860:15024   */\n    tag_563:\n        /* \"#utility.yul\":15000:15016   */\n      0x57524f4e475f444543494d414c53000000000000000000000000000000000000\n        /* \"#utility.yul\":14996:14997   */\n      0x00\n        /* \"#utility.yul\":14988:14994   */\n      dup3\n        /* \"#utility.yul\":14984:14998   */\n      add\n        /* \"#utility.yul\":14977:15017   */\n      mstore\n        /* \"#utility.yul\":14860:15024   */\n      pop\n      jump\t// out\n        /* \"#utility.yul\":15030:15396   */\n    tag_564:\n        /* \"#utility.yul\":15172:15175   */\n      0x00\n        /* \"#utility.yul\":15193:15260   */\n      tag_774\n        /* \"#utility.yul\":15257:15259   */\n      0x0e\n        /* \"#utility.yul\":15252:15255   */\n      dup4\n        /* \"#utility.yul\":15193:15260   */\n      tag_524\n      jump\t// in\n    tag_774:\n        /* \"#utility.yul\":15186:15260   */\n      swap2\n      pop\n        /* \"#utility.yul\":15269:15362   */\n      tag_775\n        /* \"#utility.yul\":15358:15361   */\n      dup3\n        /* \"#utility.yul\":15269:15362   */\n      tag_563\n      jump\t// in\n    tag_775:\n        /* \"#utility.yul\":15387:15389   */\n      0x20\n        /* \"#utility.yul\":15382:15385   */\n      dup3\n        /* \"#utility.yul\":15378:15390   */\n      add\n        /* \"#utility.yul\":15371:15390   */\n      swap1\n      pop\n        /* \"#utility.yul\":15030:15396   */\n      swap2\n      swap1\n      pop\n      jump\t// out\n        /* \"#utility.yul\":15402:15821   */\n    tag_322:\n        /* \"#utility.yul\":15568:15572   */\n      0x00\n        /* \"#utility.yul\":15606:15608   */\n      0x20\n        /* \"#utility.yul\":15595:15604   */\n      dup3\n        /* \"#utility.yul\":15591:15609   */\n      add\n        /* \"#utility.yul\":15583:15609   */\n      swap1\n      pop\n        /* \"#utility.yul\":15655:15664   */\n      dup2\n        /* \"#utility.yul\":15649:15653   */\n      dup2\n        /* \"#utility.yul\":15645:15665   */\n      sub\n        /* \"#utility.yul\":15641:15642   */\n      0x00\n        /* \"#utility.yul\":15630:15639   */\n      dup4\n        /* \"#utility.yul\":15626:15643   */\n      add\n        /* \"#utility.yul\":15619:15666   */\n      mstore\n        /* \"#utility.yul\":15683:15814   */\n      tag_777\n        /* \"#utility.yul\":15809:15813   */\n      dup2\n        /* \"#utility.yul\":15683:15814   */\n      tag_564\n      jump\t// in\n    tag_777:\n        /* \"#utility.yul\":15675:15814   */\n      swap1\n      pop\n        /* \"#utility.yul\":15402:15821   */\n      swap2\n      swap1\n      pop\n      jump\t// out\n        /* \"#utility.yul\":15827:15988   */\n    tag_565:\n        /* \"#utility.yul\":15967:15980   */\n      0x5a45524f5f534841524553000000000000000000000000000000000000000000\n        /* \"#utility.yul\":15963:15964   */\n      0x00\n        /* \"#utility.yul\":15955:15961   */\n      dup3\n        /* \"#utility.yul\":15951:15965   */\n      add\n        /* \"#utility.yul\":15944:15981   */\n      mstore\n        /* \"#utility.yul\":15827:15988   */\n      pop\n      jump\t// out\n        /* \"#utility.yul\":15994:16360   */\n    tag_566:\n        /* \"#utility.yul\":16136:16139   */\n      0x00\n        /* \"#utility.yul\":16157:16224   */\n      tag_780\n        /* \"#utility.yul\":16221:16223   */\n      0x0b\n        /* \"#utility.yul\":16216:16219   */\n      dup4\n        /* \"#utility.yul\":16157:16224   */\n      tag_524\n      jump\t// in\n    tag_780:\n        /* \"#utility.yul\":16150:16224   */\n      swap2\n      pop\n        /* \"#utility.yul\":16233:16326   */\n      tag_781\n        /* \"#utility.yul\":16322:16325   */\n      dup3\n        /* \"#utility.yul\":16233:16326   */\n      tag_565\n      jump\t// in\n    tag_781:\n        /* \"#utility.yul\":16351:16353   */\n      0x20\n        /* \"#utility.yul\":16346:16349   */\n      dup3\n        /* \"#utility.yul\":16342:16354   */\n      add\n        /* \"#utility.yul\":16335:16354   */\n      swap1\n      pop\n        /* \"#utility.yul\":15994:16360   */\n      swap2\n      swap1\n      pop\n      jump\t// out\n        /* \"#utility.yul\":16366:16785   */\n    tag_337:\n        /* \"#utility.yul\":16532:16536   */\n      0x00\n        /* \"#utility.yul\":16570:16572   */\n      0x20\n        /* \"#utility.yul\":16559:16568   */\n      dup3\n        /* \"#utility.yul\":16555:16573   */\n      add\n        /* \"#utility.yul\":16547:16573   */\n      swap1\n      pop\n        /* \"#utility.yul\":16619:16628   */\n      dup2\n        /* \"#utility.yul\":16613:16617   */\n      dup2\n        /* \"#utility.yul\":16609:16629   */\n      sub\n        /* \"#utility.yul\":16605:16606   */\n      0x00\n        /* \"#utility.yul\":16594:16603   */\n      dup4\n        /* \"#utility.yul\":16590:16607   */\n      add\n        /* \"#utility.yul\":16583:16630   */\n      mstore\n        /* \"#utility.yul\":16647:16778   */\n      tag_783\n        /* \"#utility.yul\":16773:16777   */\n      dup2\n        /* \"#utility.yul\":16647:16778   */\n      tag_566\n      jump\t// in\n    tag_783:\n        /* \"#utility.yul\":16639:16778   */\n      swap1\n      pop\n        /* \"#utility.yul\":16366:16785   */\n      swap2\n      swap1\n      pop\n      jump\t// out\n        /* \"#utility.yul\":16791:17123   */\n    tag_343:\n        /* \"#utility.yul\":16912:16916   */\n      0x00\n        /* \"#utility.yul\":16950:16952   */\n      0x40\n        /* \"#utility.yul\":16939:16948   */\n      dup3\n        /* \"#utility.yul\":16935:16953   */\n      add\n        /* \"#utility.yul\":16927:16953   */\n      swap1\n      pop\n        /* \"#utility.yul\":16963:17034   */\n      tag_785\n        /* \"#utility.yul\":17031:17032   */\n      0x00\n        /* \"#utility.yul\":17020:17029   */\n      dup4\n        /* \"#utility.yul\":17016:17033   */\n      add\n        /* \"#utility.yul\":17007:17013   */\n      dup6\n        /* \"#utility.yul\":16963:17034   */\n      tag_522\n      jump\t// in\n    tag_785:\n        /* \"#utility.yul\":17044:17116   */\n      tag_786\n        /* \"#utility.yul\":17112:17114   */\n      0x20\n        /* \"#utility.yul\":17101:17110   */\n      dup4\n        /* \"#utility.yul\":17097:17115   */\n      add\n        /* \"#utility.yul\":17088:17094   */\n      dup5\n        /* \"#utility.yul\":17044:17116   */\n      tag_522\n      jump\t// in\n    tag_786:\n        /* \"#utility.yul\":16791:17123   */\n      swap4\n      swap3\n      pop\n      pop\n      pop\n      jump\t// out\n        /* \"#utility.yul\":17129:17291   */\n    tag_567:\n        /* \"#utility.yul\":17269:17283   */\n      0x4645455f544f4f5f484947480000000000000000000000000000000000000000\n        /* \"#utility.yul\":17265:17266   */\n      0x00\n        /* \"#utility.yul\":17257:17263   */\n      dup3\n        /* \"#utility.yul\":17253:17267   */\n      add\n        /* \"#utility.yul\":17246:17284   */\n      mstore\n        /* \"#utility.yul\":17129:17291   */\n      pop\n      jump\t// out\n        /* \"#utility.yul\":17297:17663   */\n    tag_568:\n        /* \"#utility.yul\":17439:17442   */\n      0x00\n        /* \"#utility.yul\":17460:17527   */\n      tag_789\n        /* \"#utility.yul\":17524:17526   */\n      0x0c\n        /* \"#utility.yul\":17519:17522   */\n      dup4\n        /* \"#utility.yul\":17460:17527   */\n      tag_524\n      jump\t// in\n    tag_789:\n        /* \"#utility.yul\":17453:17527   */\n      swap2\n      pop\n        /* \"#utility.yul\":17536:17629   */\n      tag_790\n        /* \"#utility.yul\":17625:17628   */\n      dup3\n        /* \"#utility.yul\":17536:17629   */\n      tag_567\n      jump\t// in\n    tag_790:\n        /* \"#utility.yul\":17654:17656   */\n      0x20\n        /* \"#utility.yul\":17649:17652   */\n      dup3\n        /* \"#utility.yul\":17645:17657   */\n      add\n        /* \"#utility.yul\":17638:17657   */\n      swap1\n      pop\n        /* \"#utility.yul\":17297:17663   */\n      swap2\n      swap1\n      pop\n      jump\t// out\n        /* \"#utility.yul\":17669:18088   */\n    tag_358:\n        /* \"#utility.yul\":17835:17839   */\n      0x00\n        /* \"#utility.yul\":17873:17875   */\n      0x20\n        /* \"#utility.yul\":17862:17871   */\n      dup3\n        /* \"#utility.yul\":17858:17876   */\n      add\n        /* \"#utility.yul\":17850:17876   */\n      swap1\n      pop\n        /* \"#utility.yul\":17922:17931   */\n      dup2\n        /* \"#utility.yul\":17916:17920   */\n      dup2\n        /* \"#utility.yul\":17912:17932   */\n      sub\n        /* \"#utility.yul\":17908:17909   */\n      0x00\n        /* \"#utility.yul\":17897:17906   */\n      dup4\n        /* \"#utility.yul\":17893:17910   */\n      add\n        /* \"#utility.yul\":17886:17933   */\n      mstore\n        /* \"#utility.yul\":17950:18081   */\n      tag_792\n        /* \"#utility.yul\":18076:18080   */\n      dup2\n        /* \"#utility.yul\":17950:18081   */\n      tag_568\n      jump\t// in\n    tag_792:\n        /* \"#utility.yul\":17942:18081   */\n      swap1\n      pop\n        /* \"#utility.yul\":17669:18088   */\n      swap2\n      swap1\n      pop\n      jump\t// out\n        /* \"#utility.yul\":18094:18263   */\n    tag_569:\n        /* \"#utility.yul\":18234:18255   */\n      0x414c52454144595f494e495449414c495a454400000000000000000000000000\n        /* \"#utility.yul\":18230:18231   */\n      0x00\n        /* \"#utility.yul\":18222:18228   */\n      dup3\n        /* \"#utility.yul\":18218:18232   */\n      add\n        /* \"#utility.yul\":18211:18256   */\n      mstore\n        /* \"#utility.yul\":18094:18263   */\n      pop\n      jump\t// out\n        /* \"#utility.yul\":18269:18635   */\n    tag_570:\n        /* \"#utility.yul\":18411:18414   */\n      0x00\n        /* \"#utility.yul\":18432:18499   */\n      tag_795\n        /* \"#utility.yul\":18496:18498   */\n      0x13\n        /* \"#utility.yul\":18491:18494   */\n      dup4\n        /* \"#utility.yul\":18432:18499   */\n      tag_524\n      jump\t// in\n    tag_795:\n        /* \"#utility.yul\":18425:18499   */\n      swap2\n      pop\n        /* \"#utility.yul\":18508:18601   */\n      tag_796\n        /* \"#utility.yul\":18597:18600   */\n      dup3\n        /* \"#utility.yul\":18508:18601   */\n      tag_569\n      jump\t// in\n    tag_796:\n        /* \"#utility.yul\":18626:18628   */\n      0x20\n        /* \"#utility.yul\":18621:18624   */\n      dup3\n        /* \"#utility.yul\":18617:18629   */\n      add\n        /* \"#utility.yul\":18610:18629   */\n      swap1\n      pop\n        /* \"#utility.yul\":18269:18635   */\n      swap2\n      swap1\n      pop\n      jump\t// out\n        /* \"#utility.yul\":18641:19060   */\n    tag_372:\n        /* \"#utility.yul\":18807:18811   */\n      0x00\n        /* \"#utility.yul\":18845:18847   */\n      0x20\n        /* \"#utility.yul\":18834:18843   */\n      dup3\n        /* \"#utility.yul\":18830:18848   */\n      add\n        /* \"#utility.yul\":18822:18848   */\n      swap1\n      pop\n        /* \"#utility.yul\":18894:18903   */\n      dup2\n        /* \"#utility.yul\":18888:18892   */\n      dup2\n        /* \"#utility.yul\":18884:18904   */\n      sub\n        /* \"#utility.yul\":18880:18881   */\n      0x00\n        /* \"#utility.yul\":18869:18878   */\n      dup4\n        /* \"#utility.yul\":18865:18882   */\n      add\n        /* \"#utility.yul\":18858:18905   */\n      mstore\n        /* \"#utility.yul\":18922:19053   */\n      tag_798\n        /* \"#utility.yul\":19048:19052   */\n      dup2\n        /* \"#utility.yul\":18922:19053   */\n      tag_570\n      jump\t// in\n    tag_798:\n        /* \"#utility.yul\":18914:19053   */\n      swap1\n      pop\n        /* \"#utility.yul\":18641:19060   */\n      swap2\n      swap1\n      pop\n      jump\t// out\n        /* \"#utility.yul\":19066:19398   */\n    tag_400:\n        /* \"#utility.yul\":19187:19191   */\n      0x00\n        /* \"#utility.yul\":19225:19227   */\n      0x40\n        /* \"#utility.yul\":19214:19223   */\n      dup3\n        /* \"#utility.yul\":19210:19228   */\n      add\n        /* \"#utility.yul\":19202:19228   */\n      swap1\n      pop\n        /* \"#utility.yul\":19238:19309   */\n      tag_800\n        /* \"#utility.yul\":19306:19307   */\n      0x00\n        /* \"#utility.yul\":19295:19304   */\n      dup4\n        /* \"#utility.yul\":19291:19308   */\n      add\n        /* \"#utility.yul\":19282:19288   */\n      dup6\n        /* \"#utility.yul\":19238:19309   */\n      tag_550\n      jump\t// in\n    tag_800:\n        /* \"#utility.yul\":19319:19391   */\n      tag_801\n        /* \"#utility.yul\":19387:19389   */\n      0x20\n        /* \"#utility.yul\":19376:19385   */\n      dup4\n        /* \"#utility.yul\":19372:19390   */\n      add\n        /* \"#utility.yul\":19363:19369   */\n      dup5\n        /* \"#utility.yul\":19319:19391   */\n      tag_522\n      jump\t// in\n    tag_801:\n        /* \"#utility.yul\":19066:19398   */\n      swap4\n      swap3\n      pop\n      pop\n      pop\n      jump\t// out\n        /* \"#utility.yul\":19404:19541   */\n    tag_571:\n        /* \"#utility.yul\":19458:19463   */\n      0x00\n        /* \"#utility.yul\":19489:19495   */\n      dup2\n        /* \"#utility.yul\":19483:19496   */\n      mload\n        /* \"#utility.yul\":19474:19496   */\n      swap1\n      pop\n        /* \"#utility.yul\":19505:19535   */\n      tag_803\n        /* \"#utility.yul\":19529:19534   */\n      dup2\n        /* \"#utility.yul\":19505:19535   */\n      tag_541\n      jump\t// in\n    tag_803:\n        /* \"#utility.yul\":19404:19541   */\n      swap3\n      swap2\n      pop\n      pop\n      jump\t// out\n        /* \"#utility.yul\":19547:19892   */\n    tag_404:\n        /* \"#utility.yul\":19614:19620   */\n      0x00\n        /* \"#utility.yul\":19663:19665   */\n      0x20\n        /* \"#utility.yul\":19651:19660   */\n      dup3\n        /* \"#utility.yul\":19642:19649   */\n      dup5\n        /* \"#utility.yul\":19638:19661   */\n      sub\n        /* \"#utility.yul\":19634:19666   */\n      slt\n        /* \"#utility.yul\":19631:19750   */\n      iszero\n      tag_805\n      jumpi\n        /* \"#utility.yul\":19669:19748   */\n      tag_806\n      tag_529\n      jump\t// in\n    tag_806:\n        /* \"#utility.yul\":19631:19750   */\n    tag_805:\n        /* \"#utility.yul\":19789:19790   */\n      0x00\n        /* \"#utility.yul\":19814:19875   */\n      tag_807\n        /* \"#utility.yul\":19867:19874   */\n      dup5\n        /* \"#utility.yul\":19858:19864   */\n      dup3\n        /* \"#utility.yul\":19847:19856   */\n      dup6\n        /* \"#utility.yul\":19843:19865   */\n      add\n        /* \"#utility.yul\":19814:19875   */\n      tag_571\n      jump\t// in\n    tag_807:\n        /* \"#utility.yul\":19804:19875   */\n      swap2\n      pop\n        /* \"#utility.yul\":19760:19885   */\n      pop\n        /* \"#utility.yul\":19547:19892   */\n      swap3\n      swap2\n      pop\n      pop\n      jump\t// out\n        /* \"#utility.yul\":19898:20059   */\n    tag_572:\n        /* \"#utility.yul\":20038:20051   */\n      0x5a45524f5f415353455453000000000000000000000000000000000000000000\n        /* \"#utility.yul\":20034:20035   */\n      0x00\n        /* \"#utility.yul\":20026:20032   */\n      dup3\n        /* \"#utility.yul\":20022:20036   */\n      add\n        /* \"#utility.yul\":20015:20052   */\n      mstore\n        /* \"#utility.yul\":19898:20059   */\n      pop\n      jump\t// out\n        /* \"#utility.yul\":20065:20431   */\n    tag_573:\n        /* \"#utility.yul\":20207:20210   */\n      0x00\n        /* \"#utility.yul\":20228:20295   */\n      tag_810\n        /* \"#utility.yul\":20292:20294   */\n      0x0b\n        /* \"#utility.yul\":20287:20290   */\n      dup4\n        /* \"#utility.yul\":20228:20295   */\n      tag_524\n      jump\t// in\n    tag_810:\n        /* \"#utility.yul\":20221:20295   */\n      swap2\n      pop\n        /* \"#utility.yul\":20304:20397   */\n      tag_811\n        /* \"#utility.yul\":20393:20396   */\n      dup3\n        /* \"#utility.yul\":20304:20397   */\n      tag_572\n      jump\t// in\n    tag_811:\n        /* \"#utility.yul\":20422:20424   */\n      0x20\n        /* \"#utility.yul\":20417:20420   */\n      dup3\n        /* \"#utility.yul\":20413:20425   */\n      add\n        /* \"#utility.yul\":20406:20425   */\n      swap1\n      pop\n        /* \"#utility.yul\":20065:20431   */\n      swap2\n      swap1\n      pop\n      jump\t// out\n        /* \"#utility.yul\":20437:20856   */\n    tag_429:\n        /* \"#utility.yul\":20603:20607   */\n      0x00\n        /* \"#utility.yul\":20641:20643   */\n      0x20\n        /* \"#utility.yul\":20630:20639   */\n      dup3\n        /* \"#utility.yul\":20626:20644   */\n      add\n        /* \"#utility.yul\":20618:20644   */\n      swap1\n      pop\n        /* \"#utility.yul\":20690:20699   */\n      dup2\n        /* \"#utility.yul\":20684:20688   */\n      dup2\n        /* \"#utility.yul\":20680:20700   */\n      sub\n        /* \"#utility.yul\":20676:20677   */\n      0x00\n        /* \"#utility.yul\":20665:20674   */\n      dup4\n        /* \"#utility.yul\":20661:20678   */\n      add\n        /* \"#utility.yul\":20654:20701   */\n      mstore\n        /* \"#utility.yul\":20718:20849   */\n      tag_813\n        /* \"#utility.yul\":20844:20848   */\n      dup2\n        /* \"#utility.yul\":20718:20849   */\n      tag_573\n      jump\t// in\n    tag_813:\n        /* \"#utility.yul\":20710:20849   */\n      swap1\n      pop\n        /* \"#utility.yul\":20437:20856   */\n      swap2\n      swap1\n      pop\n      jump\t// out\n        /* \"#utility.yul\":20862:21027   */\n    tag_574:\n        /* \"#utility.yul\":21002:21019   */\n      0x5441524745545f544f4f5f484947480000000000000000000000000000000000\n        /* \"#utility.yul\":20998:20999   */\n      0x00\n        /* \"#utility.yul\":20990:20996   */\n      dup3\n        /* \"#utility.yul\":20986:21000   */\n      add\n        /* \"#utility.yul\":20979:21020   */\n      mstore\n        /* \"#utility.yul\":20862:21027   */\n      pop\n      jump\t// out\n        /* \"#utility.yul\":21033:21399   */\n    tag_575:\n        /* \"#utility.yul\":21175:21178   */\n      0x00\n        /* \"#utility.yul\":21196:21263   */\n      tag_816\n        /* \"#utility.yul\":21260:21262   */\n      0x0f\n        /* \"#utility.yul\":21255:21258   */\n      dup4\n        /* \"#utility.yul\":21196:21263   */\n      tag_524\n      jump\t// in\n    tag_816:\n        /* \"#utility.yul\":21189:21263   */\n      swap2\n      pop\n        /* \"#utility.yul\":21272:21365   */\n      tag_817\n        /* \"#utility.yul\":21361:21364   */\n      dup3\n        /* \"#utility.yul\":21272:21365   */\n      tag_574\n      jump\t// in\n    tag_817:\n        /* \"#utility.yul\":21390:21392   */\n      0x20\n        /* \"#utility.yul\":21385:21388   */\n      dup3\n        /* \"#utility.yul\":21381:21393   */\n      add\n        /* \"#utility.yul\":21374:21393   */\n      swap1\n      pop\n        /* \"#utility.yul\":21033:21399   */\n      swap2\n      swap1\n      pop\n      jump\t// out\n        /* \"#utility.yul\":21405:21824   */\n    tag_441:\n        /* \"#utility.yul\":21571:21575   */\n      0x00\n        /* \"#utility.yul\":21609:21611   */\n      0x20\n        /* \"#utility.yul\":21598:21607   */\n      dup3\n        /* \"#utility.yul\":21594:21612   */\n      add\n        /* \"#utility.yul\":21586:21612   */\n      swap1\n      pop\n        /* \"#utility.yul\":21658:21667   */\n      dup2\n        /* \"#utility.yul\":21652:21656   */\n      dup2\n        /* \"#utility.yul\":21648:21668   */\n      sub\n        /* \"#utility.yul\":21644:21645   */\n      0x00\n        /* \"#utility.yul\":21633:21642   */\n      dup4\n        /* \"#utility.yul\":21629:21646   */\n      add\n        /* \"#utility.yul\":21622:21669   */\n      mstore\n        /* \"#utility.yul\":21686:21817   */\n      tag_819\n        /* \"#utility.yul\":21812:21816   */\n      dup2\n        /* \"#utility.yul\":21686:21817   */\n      tag_575\n      jump\t// in\n    tag_819:\n        /* \"#utility.yul\":21678:21817   */\n      swap1\n      pop\n        /* \"#utility.yul\":21405:21824   */\n      swap2\n      swap1\n      pop\n      jump\t// out\n        /* \"#utility.yul\":21830:22003   */\n    tag_576:\n        /* \"#utility.yul\":21970:21995   */\n      0x5045524d49545f444541444c494e455f45585049524544000000000000000000\n        /* \"#utility.yul\":21966:21967   */\n      0x00\n        /* \"#utility.yul\":21958:21964   */\n      dup3\n        /* \"#utility.yul\":21954:21968   */\n      add\n        /* \"#utility.yul\":21947:21996   */\n      mstore\n        /* \"#utility.yul\":21830:22003   */\n      pop\n      jump\t// out\n        /* \"#utility.yul\":22009:22375   */\n    tag_577:\n        /* \"#utility.yul\":22151:22154   */\n      0x00\n        /* \"#utility.yul\":22172:22239   */\n      tag_822\n        /* \"#utility.yul\":22236:22238   */\n      0x17\n        /* \"#utility.yul\":22231:22234   */\n      dup4\n        /* \"#utility.yul\":22172:22239   */\n      tag_524\n      jump\t// in\n    tag_822:\n        /* \"#utility.yul\":22165:22239   */\n      swap2\n      pop\n        /* \"#utility.yul\":22248:22341   */\n      tag_823\n        /* \"#utility.yul\":22337:22340   */\n      dup3\n        /* \"#utility.yul\":22248:22341   */\n      tag_576\n      jump\t// in\n    tag_823:\n        /* \"#utility.yul\":22366:22368   */\n      0x20\n        /* \"#utility.yul\":22361:22364   */\n      dup3\n        /* \"#utility.yul\":22357:22369   */\n      add\n        /* \"#utility.yul\":22350:22369   */\n      swap1\n      pop\n        /* \"#utility.yul\":22009:22375   */\n      swap2\n      swap1\n      pop\n      jump\t// out\n        /* \"#utility.yul\":22381:22800   */\n    tag_454:\n        /* \"#utility.yul\":22547:22551   */\n      0x00\n        /* \"#utility.yul\":22585:22587   */\n      0x20\n        /* \"#utility.yul\":22574:22583   */\n      dup3\n        /* \"#utility.yul\":22570:22588   */\n      add\n        /* \"#utility.yul\":22562:22588   */\n      swap1\n      pop\n        /* \"#utility.yul\":22634:22643   */\n      dup2\n        /* \"#utility.yul\":22628:22632   */\n      dup2\n        /* \"#utility.yul\":22624:22644   */\n      sub\n        /* \"#utility.yul\":22620:22621   */\n      0x00\n        /* \"#utility.yul\":22609:22618   */\n      dup4\n        /* \"#utility.yul\":22605:22622   */\n      add\n        /* \"#utility.yul\":22598:22645   */\n      mstore\n        /* \"#utility.yul\":22662:22793   */\n      tag_825\n        /* \"#utility.yul\":22788:22792   */\n      dup2\n        /* \"#utility.yul\":22662:22793   */\n      tag_577\n      jump\t// in\n    tag_825:\n        /* \"#utility.yul\":22654:22793   */\n      swap1\n      pop\n        /* \"#utility.yul\":22381:22800   */\n      swap2\n      swap1\n      pop\n      jump\t// out\n        /* \"#utility.yul\":22806:23581   */\n    tag_457:\n        /* \"#utility.yul\":23039:23043   */\n      0x00\n        /* \"#utility.yul\":23077:23080   */\n      0xc0\n        /* \"#utility.yul\":23066:23075   */\n      dup3\n        /* \"#utility.yul\":23062:23081   */\n      add\n        /* \"#utility.yul\":23054:23081   */\n      swap1\n      pop\n        /* \"#utility.yul\":23091:23162   */\n      tag_827\n        /* \"#utility.yul\":23159:23160   */\n      0x00\n        /* \"#utility.yul\":23148:23157   */\n      dup4\n        /* \"#utility.yul\":23144:23161   */\n      add\n        /* \"#utility.yul\":23135:23141   */\n      dup10\n        /* \"#utility.yul\":23091:23162   */\n      tag_544\n      jump\t// in\n    tag_827:\n        /* \"#utility.yul\":23172:23244   */\n      tag_828\n        /* \"#utility.yul\":23240:23242   */\n      0x20\n        /* \"#utility.yul\":23229:23238   */\n      dup4\n        /* \"#utility.yul\":23225:23243   */\n      add\n        /* \"#utility.yul\":23216:23222   */\n      dup9\n        /* \"#utility.yul\":23172:23244   */\n      tag_550\n      jump\t// in\n    tag_828:\n        /* \"#utility.yul\":23254:23326   */\n      tag_829\n        /* \"#utility.yul\":23322:23324   */\n      0x40\n        /* \"#utility.yul\":23311:23320   */\n      dup4\n        /* \"#utility.yul\":23307:23325   */\n      add\n        /* \"#utility.yul\":23298:23304   */\n      dup8\n        /* \"#utility.yul\":23254:23326   */\n      tag_550\n      jump\t// in\n    tag_829:\n        /* \"#utility.yul\":23336:23408   */\n      tag_830\n        /* \"#utility.yul\":23404:23406   */\n      0x60\n        /* \"#utility.yul\":23393:23402   */\n      dup4\n        /* \"#utility.yul\":23389:23407   */\n      add\n        /* \"#utility.yul\":23380:23386   */\n      dup7\n        /* \"#utility.yul\":23336:23408   */\n      tag_522\n      jump\t// in\n    tag_830:\n        /* \"#utility.yul\":23418:23491   */\n      tag_831\n        /* \"#utility.yul\":23486:23489   */\n      0x80\n        /* \"#utility.yul\":23475:23484   */\n      dup4\n        /* \"#utility.yul\":23471:23490   */\n      add\n        /* \"#utility.yul\":23462:23468   */\n      dup6\n        /* \"#utility.yul\":23418:23491   */\n      tag_522\n      jump\t// in\n    tag_831:\n        /* \"#utility.yul\":23501:23574   */\n      tag_832\n        /* \"#utility.yul\":23569:23572   */\n      0xa0\n        /* \"#utility.yul\":23558:23567   */\n      dup4\n        /* \"#utility.yul\":23554:23573   */\n      add\n        /* \"#utility.yul\":23545:23551   */\n      dup5\n        /* \"#utility.yul\":23501:23574   */\n      tag_522\n      jump\t// in\n    tag_832:\n        /* \"#utility.yul\":22806:23581   */\n      swap8\n      swap7\n      pop\n      pop\n      pop\n      pop\n      pop\n      pop\n      pop\n      jump\t// out\n        /* \"#utility.yul\":23587:23735   */\n    tag_578:\n        /* \"#utility.yul\":23689:23700   */\n      0x00\n        /* \"#utility.yul\":23726:23729   */\n      dup2\n        /* \"#utility.yul\":23711:23729   */\n      swap1\n      pop\n        /* \"#utility.yul\":23587:23735   */\n      swap3\n      swap2\n      pop\n      pop\n      jump\t// out\n        /* \"#utility.yul\":23741:23955   */\n    tag_579:\n        /* \"#utility.yul\":23881:23947   */\n      0x1901000000000000000000000000000000000000000000000000000000000000\n        /* \"#utility.yul\":23877:23878   */\n      0x00\n        /* \"#utility.yul\":23869:23875   */\n      dup3\n        /* \"#utility.yul\":23865:23879   */\n      add\n        /* \"#utility.yul\":23858:23948   */\n      mstore\n        /* \"#utility.yul\":23741:23955   */\n      pop\n      jump\t// out\n        /* \"#utility.yul\":23961:24361   */\n    tag_580:\n        /* \"#utility.yul\":24121:24124   */\n      0x00\n        /* \"#utility.yul\":24142:24226   */\n      tag_836\n        /* \"#utility.yul\":24224:24225   */\n      0x02\n        /* \"#utility.yul\":24219:24222   */\n      dup4\n        /* \"#utility.yul\":24142:24226   */\n      tag_578\n      jump\t// in\n    tag_836:\n        /* \"#utility.yul\":24135:24226   */\n      swap2\n      pop\n        /* \"#utility.yul\":24235:24328   */\n      tag_837\n        /* \"#utility.yul\":24324:24327   */\n      dup3\n        /* \"#utility.yul\":24235:24328   */\n      tag_579\n      jump\t// in\n    tag_837:\n        /* \"#utility.yul\":24353:24354   */\n      0x02\n        /* \"#utility.yul\":24348:24351   */\n      dup3\n        /* \"#utility.yul\":24344:24355   */\n      add\n        /* \"#utility.yul\":24337:24355   */\n      swap1\n      pop\n        /* \"#utility.yul\":23961:24361   */\n      swap2\n      swap1\n      pop\n      jump\t// out\n        /* \"#utility.yul\":24367:24446   */\n    tag_581:\n        /* \"#utility.yul\":24406:24413   */\n      0x00\n        /* \"#utility.yul\":24435:24440   */\n      dup2\n        /* \"#utility.yul\":24424:24440   */\n      swap1\n      pop\n        /* \"#utility.yul\":24367:24446   */\n      swap2\n      swap1\n      pop\n      jump\t// out\n        /* \"#utility.yul\":24452:24609   */\n    tag_582:\n        /* \"#utility.yul\":24557:24602   */\n      tag_840\n        /* \"#utility.yul\":24577:24601   */\n      tag_841\n        /* \"#utility.yul\":24595:24600   */\n      dup3\n        /* \"#utility.yul\":24577:24601   */\n      tag_543\n      jump\t// in\n    tag_841:\n        /* \"#utility.yul\":24557:24602   */\n      tag_581\n      jump\t// in\n    tag_840:\n        /* \"#utility.yul\":24552:24555   */\n      dup3\n        /* \"#utility.yul\":24545:24603   */\n      mstore\n        /* \"#utility.yul\":24452:24609   */\n      pop\n      pop\n      jump\t// out\n        /* \"#utility.yul\":24615:25278   */\n    tag_459:\n        /* \"#utility.yul\":24856:24859   */\n      0x00\n        /* \"#utility.yul\":24878:25026   */\n      tag_843\n        /* \"#utility.yul\":25022:25025   */\n      dup3\n        /* \"#utility.yul\":24878:25026   */\n      tag_580\n      jump\t// in\n    tag_843:\n        /* \"#utility.yul\":24871:25026   */\n      swap2\n      pop\n        /* \"#utility.yul\":25036:25111   */\n      tag_844\n        /* \"#utility.yul\":25107:25110   */\n      dup3\n        /* \"#utility.yul\":25098:25104   */\n      dup6\n        /* \"#utility.yul\":25036:25111   */\n      tag_582\n      jump\t// in\n    tag_844:\n        /* \"#utility.yul\":25136:25138   */\n      0x20\n        /* \"#utility.yul\":25131:25134   */\n      dup3\n        /* \"#utility.yul\":25127:25139   */\n      add\n        /* \"#utility.yul\":25120:25139   */\n      swap2\n      pop\n        /* \"#utility.yul\":25149:25224   */\n      tag_845\n        /* \"#utility.yul\":25220:25223   */\n      dup3\n        /* \"#utility.yul\":25211:25217   */\n      dup5\n        /* \"#utility.yul\":25149:25224   */\n      tag_582\n      jump\t// in\n    tag_845:\n        /* \"#utility.yul\":25249:25251   */\n      0x20\n        /* \"#utility.yul\":25244:25247   */\n      dup3\n        /* \"#utility.yul\":25240:25252   */\n      add\n        /* \"#utility.yul\":25233:25252   */\n      swap2\n      pop\n        /* \"#utility.yul\":25269:25272   */\n      dup2\n        /* \"#utility.yul\":25262:25272   */\n      swap1\n      pop\n        /* \"#utility.yul\":24615:25278   */\n      swap4\n      swap3\n      pop\n      pop\n      pop\n      jump\t// out\n        /* \"#utility.yul\":25284:25829   */\n    tag_461:\n        /* \"#utility.yul\":25457:25461   */\n      0x00\n        /* \"#utility.yul\":25495:25498   */\n      0x80\n        /* \"#utility.yul\":25484:25493   */\n      dup3\n        /* \"#utility.yul\":25480:25499   */\n      add\n        /* \"#utility.yul\":25472:25499   */\n      swap1\n      pop\n        /* \"#utility.yul\":25509:25580   */\n      tag_847\n        /* \"#utility.yul\":25577:25578   */\n      0x00\n        /* \"#utility.yul\":25566:25575   */\n      dup4\n        /* \"#utility.yul\":25562:25579   */\n      add\n        /* \"#utility.yul\":25553:25559   */\n      dup8\n        /* \"#utility.yul\":25509:25580   */\n      tag_544\n      jump\t// in\n    tag_847:\n        /* \"#utility.yul\":25590:25658   */\n      tag_848\n        /* \"#utility.yul\":25654:25656   */\n      0x20\n        /* \"#utility.yul\":25643:25652   */\n      dup4\n        /* \"#utility.yul\":25639:25657   */\n      add\n        /* \"#utility.yul\":25630:25636   */\n      dup7\n        /* \"#utility.yul\":25590:25658   */\n      tag_540\n      jump\t// in\n    tag_848:\n        /* \"#utility.yul\":25668:25740   */\n      tag_849\n        /* \"#utility.yul\":25736:25738   */\n      0x40\n        /* \"#utility.yul\":25725:25734   */\n      dup4\n        /* \"#utility.yul\":25721:25739   */\n      add\n        /* \"#utility.yul\":25712:25718   */\n      dup6\n        /* \"#utility.yul\":25668:25740   */\n      tag_544\n      jump\t// in\n    tag_849:\n        /* \"#utility.yul\":25750:25822   */\n      tag_850\n        /* \"#utility.yul\":25818:25820   */\n      0x60\n        /* \"#utility.yul\":25807:25816   */\n      dup4\n        /* \"#utility.yul\":25803:25821   */\n      add\n        /* \"#utility.yul\":25794:25800   */\n      dup5\n        /* \"#utility.yul\":25750:25822   */\n      tag_544\n      jump\t// in\n    tag_850:\n        /* \"#utility.yul\":25284:25829   */\n      swap6\n      swap5\n      pop\n      pop\n      pop\n      pop\n      pop\n      jump\t// out\n        /* \"#utility.yul\":25835:25999   */\n    tag_583:\n        /* \"#utility.yul\":25975:25991   */\n      0x494e56414c49445f5349474e4552000000000000000000000000000000000000\n        /* \"#utility.yul\":25971:25972   */\n      0x00\n        /* \"#utility.yul\":25963:25969   */\n      dup3\n        /* \"#utility.yul\":25959:25973   */\n      add\n        /* \"#utility.yul\":25952:25992   */\n      mstore\n        /* \"#utility.yul\":25835:25999   */\n      pop\n      jump\t// out\n        /* \"#utility.yul\":26005:26371   */\n    tag_584:\n        /* \"#utility.yul\":26147:26150   */\n      0x00\n        /* \"#utility.yul\":26168:26235   */\n      tag_853\n        /* \"#utility.yul\":26232:26234   */\n      0x0e\n        /* \"#utility.yul\":26227:26230   */\n      dup4\n        /* \"#utility.yul\":26168:26235   */\n      tag_524\n      jump\t// in\n    tag_853:\n        /* \"#utility.yul\":26161:26235   */\n      swap2\n      pop\n        /* \"#utility.yul\":26244:26337   */\n      tag_854\n        /* \"#utility.yul\":26333:26336   */\n      dup3\n        /* \"#utility.yul\":26244:26337   */\n      tag_583\n      jump\t// in\n    tag_854:\n        /* \"#utility.yul\":26362:26364   */\n      0x20\n        /* \"#utility.yul\":26357:26360   */\n      dup3\n        /* \"#utility.yul\":26353:26365   */\n      add\n        /* \"#utility.yul\":26346:26365   */\n      swap1\n      pop\n        /* \"#utility.yul\":26005:26371   */\n      swap2\n      swap1\n      pop\n      jump\t// out\n        /* \"#utility.yul\":26377:26796   */\n    tag_467:\n        /* \"#utility.yul\":26543:26547   */\n      0x00\n        /* \"#utility.yul\":26581:26583   */\n      0x20\n        /* \"#utility.yul\":26570:26579   */\n      dup3\n        /* \"#utility.yul\":26566:26584   */\n      add\n        /* \"#utility.yul\":26558:26584   */\n      swap1\n      pop\n        /* \"#utility.yul\":26630:26639   */\n      dup2\n        /* \"#utility.yul\":26624:26628   */\n      dup2\n        /* \"#utility.yul\":26620:26640   */\n      sub\n        /* \"#utility.yul\":26616:26617   */\n      0x00\n        /* \"#utility.yul\":26605:26614   */\n      dup4\n        /* \"#utility.yul\":26601:26618   */\n      add\n        /* \"#utility.yul\":26594:26641   */\n      mstore\n        /* \"#utility.yul\":26658:26789   */\n      tag_856\n        /* \"#utility.yul\":26784:26788   */\n      dup2\n        /* \"#utility.yul\":26658:26789   */\n      tag_584\n      jump\t// in\n    tag_856:\n        /* \"#utility.yul\":26650:26789   */\n      swap1\n      pop\n        /* \"#utility.yul\":26377:26796   */\n      swap2\n      swap1\n      pop\n      jump\t// out\n        /* \"#utility.yul\":26802:27029   */\n    tag_585:\n        /* \"#utility.yul\":26942:26976   */\n      0x4f776e61626c653a206e6577206d616e6167657220697320746865207a65726f\n        /* \"#utility.yul\":26938:26939   */\n      0x00\n        /* \"#utility.yul\":26930:26936   */\n      dup3\n        /* \"#utility.yul\":26926:26940   */\n      add\n        /* \"#utility.yul\":26919:26977   */\n      mstore\n        /* \"#utility.yul\":27011:27021   */\n      0x2061646472657373000000000000000000000000000000000000000000000000\n        /* \"#utility.yul\":27006:27008   */\n      0x20\n        /* \"#utility.yul\":26998:27004   */\n      dup3\n        /* \"#utility.yul\":26994:27009   */\n      add\n        /* \"#utility.yul\":26987:27022   */\n      mstore\n        /* \"#utility.yul\":26802:27029   */\n      pop\n      jump\t// out\n        /* \"#utility.yul\":27035:27401   */\n    tag_586:\n        /* \"#utility.yul\":27177:27180   */\n      0x00\n        /* \"#utility.yul\":27198:27265   */\n      tag_859\n        /* \"#utility.yul\":27262:27264   */\n      0x28\n        /* \"#utility.yul\":27257:27260   */\n      dup4\n        /* \"#utility.yul\":27198:27265   */\n      tag_524\n      jump\t// in\n    tag_859:\n        /* \"#utility.yul\":27191:27265   */\n      swap2\n      pop\n        /* \"#utility.yul\":27274:27367   */\n      tag_860\n        /* \"#utility.yul\":27363:27366   */\n      dup3\n        /* \"#utility.yul\":27274:27367   */\n      tag_585\n      jump\t// in\n    tag_860:\n        /* \"#utility.yul\":27392:27394   */\n      0x40\n        /* \"#utility.yul\":27387:27390   */\n      dup3\n        /* \"#utility.yul\":27383:27395   */\n      add\n        /* \"#utility.yul\":27376:27395   */\n      swap1\n      pop\n        /* \"#utility.yul\":27035:27401   */\n      swap2\n      swap1\n      pop\n      jump\t// out\n        /* \"#utility.yul\":27407:27826   */\n    tag_479:\n        /* \"#utility.yul\":27573:27577   */\n      0x00\n        /* \"#utility.yul\":27611:27613   */\n      0x20\n        /* \"#utility.yul\":27600:27609   */\n      dup3\n        /* \"#utility.yul\":27596:27614   */\n      add\n        /* \"#utility.yul\":27588:27614   */\n      swap1\n      pop\n        /* \"#utility.yul\":27660:27669   */\n      dup2\n        /* \"#utility.yul\":27654:27658   */\n      dup2\n        /* \"#utility.yul\":27650:27670   */\n      sub\n        /* \"#utility.yul\":27646:27647   */\n      0x00\n        /* \"#utility.yul\":27635:27644   */\n      dup4\n        /* \"#utility.yul\":27631:27648   */\n      add\n        /* \"#utility.yul\":27624:27671   */\n      mstore\n        /* \"#utility.yul\":27688:27819   */\n      tag_862\n        /* \"#utility.yul\":27814:27818   */\n      dup2\n        /* \"#utility.yul\":27688:27819   */\n      tag_586\n      jump\t// in\n    tag_862:\n        /* \"#utility.yul\":27680:27819   */\n      swap1\n      pop\n        /* \"#utility.yul\":27407:27826   */\n      swap2\n      swap1\n      pop\n      jump\t// out\n        /* \"#utility.yul\":27832:27979   */\n    tag_587:\n        /* \"#utility.yul\":27933:27944   */\n      0x00\n        /* \"#utility.yul\":27970:27973   */\n      dup2\n        /* \"#utility.yul\":27955:27973   */\n      swap1\n      pop\n        /* \"#utility.yul\":27832:27979   */\n      swap3\n      swap2\n      pop\n      pop\n      jump\t// out\n        /* \"#utility.yul\":27985:28129   */\n    tag_588:\n        /* \"#utility.yul\":28037:28041   */\n      0x00\n        /* \"#utility.yul\":28060:28063   */\n      dup2\n        /* \"#utility.yul\":28052:28063   */\n      swap1\n      pop\n        /* \"#utility.yul\":28083:28086   */\n      dup2\n        /* \"#utility.yul\":28080:28081   */\n      0x00\n        /* \"#utility.yul\":28073:28087   */\n      mstore\n        /* \"#utility.yul\":28117:28121   */\n      0x20\n        /* \"#utility.yul\":28114:28115   */\n      0x00\n        /* \"#utility.yul\":28104:28122   */\n      keccak256\n        /* \"#utility.yul\":28096:28122   */\n      swap1\n      pop\n        /* \"#utility.yul\":27985:28129   */\n      swap2\n      swap1\n      pop\n      jump\t// out\n        /* \"#utility.yul\":28157:29006   */\n    tag_589:\n        /* \"#utility.yul\":28262:28265   */\n      0x00\n        /* \"#utility.yul\":28299:28304   */\n      dup2\n        /* \"#utility.yul\":28293:28305   */\n      sload\n        /* \"#utility.yul\":28328:28364   */\n      tag_866\n        /* \"#utility.yul\":28354:28363   */\n      dup2\n        /* \"#utility.yul\":28328:28364   */\n      tag_284\n      jump\t// in\n    tag_866:\n        /* \"#utility.yul\":28380:28468   */\n      tag_867\n        /* \"#utility.yul\":28461:28467   */\n      dup2\n        /* \"#utility.yul\":28456:28459   */\n      dup7\n        /* \"#utility.yul\":28380:28468   */\n      tag_587\n      jump\t// in\n    tag_867:\n        /* \"#utility.yul\":28373:28468   */\n      swap5\n      pop\n        /* \"#utility.yul\":28499:28500   */\n      0x01\n        /* \"#utility.yul\":28488:28497   */\n      dup3\n        /* \"#utility.yul\":28484:28501   */\n      and\n        /* \"#utility.yul\":28515:28516   */\n      0x00\n        /* \"#utility.yul\":28510:28647   */\n      dup2\n      eq\n      tag_869\n      jumpi\n        /* \"#utility.yul\":28661:28662   */\n      0x01\n        /* \"#utility.yul\":28656:29000   */\n      dup2\n      eq\n      tag_870\n      jumpi\n        /* \"#utility.yul\":28477:29000   */\n      jump(tag_868)\n        /* \"#utility.yul\":28510:28647   */\n    tag_869:\n        /* \"#utility.yul\":28594:28598   */\n      0xff\n        /* \"#utility.yul\":28590:28599   */\n      not\n        /* \"#utility.yul\":28579:28588   */\n      dup4\n        /* \"#utility.yul\":28575:28600   */\n      and\n        /* \"#utility.yul\":28570:28573   */\n      dup7\n        /* \"#utility.yul\":28563:28601   */\n      mstore\n        /* \"#utility.yul\":28630:28636   */\n      dup2\n        /* \"#utility.yul\":28625:28628   */\n      dup7\n        /* \"#utility.yul\":28621:28637   */\n      add\n        /* \"#utility.yul\":28614:28637   */\n      swap4\n      pop\n        /* \"#utility.yul\":28510:28647   */\n      jump(tag_868)\n        /* \"#utility.yul\":28656:29000   */\n    tag_870:\n        /* \"#utility.yul\":28723:28764   */\n      tag_871\n        /* \"#utility.yul\":28758:28763   */\n      dup6\n        /* \"#utility.yul\":28723:28764   */\n      tag_588\n      jump\t// in\n    tag_871:\n        /* \"#utility.yul\":28786:28787   */\n      0x00\n        /* \"#utility.yul\":28800:28954   */\n    tag_872:\n        /* \"#utility.yul\":28814:28820   */\n      dup4\n        /* \"#utility.yul\":28811:28812   */\n      dup2\n        /* \"#utility.yul\":28808:28821   */\n      lt\n        /* \"#utility.yul\":28800:28954   */\n      iszero\n      tag_874\n      jumpi\n        /* \"#utility.yul\":28888:28895   */\n      dup2\n        /* \"#utility.yul\":28882:28896   */\n      sload\n        /* \"#utility.yul\":28878:28879   */\n      dup2\n        /* \"#utility.yul\":28873:28876   */\n      dup10\n        /* \"#utility.yul\":28869:28880   */\n      add\n        /* \"#utility.yul\":28862:28897   */\n      mstore\n        /* \"#utility.yul\":28938:28939   */\n      0x01\n        /* \"#utility.yul\":28929:28936   */\n      dup3\n        /* \"#utility.yul\":28925:28940   */\n      add\n        /* \"#utility.yul\":28914:28940   */\n      swap2\n      pop\n        /* \"#utility.yul\":28836:28840   */\n      0x20\n        /* \"#utility.yul\":28833:28834   */\n      dup2\n        /* \"#utility.yul\":28829:28841   */\n      add\n        /* \"#utility.yul\":28824:28841   */\n      swap1\n      pop\n        /* \"#utility.yul\":28800:28954   */\n      jump(tag_872)\n    tag_874:\n        /* \"#utility.yul\":28983:28989   */\n      dup4\n        /* \"#utility.yul\":28978:28981   */\n      dup9\n        /* \"#utility.yul\":28974:28990   */\n      add\n        /* \"#utility.yul\":28967:28990   */\n      swap6\n      pop\n        /* \"#utility.yul\":28663:29000   */\n      pop\n      pop\n        /* \"#utility.yul\":28477:29000   */\n    tag_868:\n      pop\n        /* \"#utility.yul\":28266:29006   */\n      pop\n      pop\n        /* \"#utility.yul\":28157:29006   */\n      swap3\n      swap2\n      pop\n      pop\n      jump\t// out\n        /* \"#utility.yul\":29012:29285   */\n    tag_486:\n        /* \"#utility.yul\":29143:29146   */\n      0x00\n        /* \"#utility.yul\":29165:29259   */\n      tag_876\n        /* \"#utility.yul\":29255:29258   */\n      dup3\n        /* \"#utility.yul\":29246:29252   */\n      dup5\n        /* \"#utility.yul\":29165:29259   */\n      tag_589\n      jump\t// in\n    tag_876:\n        /* \"#utility.yul\":29158:29259   */\n      swap2\n      pop\n        /* \"#utility.yul\":29276:29279   */\n      dup2\n        /* \"#utility.yul\":29269:29279   */\n      swap1\n      pop\n        /* \"#utility.yul\":29012:29285   */\n      swap3\n      swap2\n      pop\n      pop\n      jump\t// out\n        /* \"#utility.yul\":29291:29955   */\n    tag_488:\n        /* \"#utility.yul\":29496:29500   */\n      0x00\n        /* \"#utility.yul\":29534:29537   */\n      0xa0\n        /* \"#utility.yul\":29523:29532   */\n      dup3\n        /* \"#utility.yul\":29519:29538   */\n      add\n        /* \"#utility.yul\":29511:29538   */\n      swap1\n      pop\n        /* \"#utility.yul\":29548:29619   */\n      tag_878\n        /* \"#utility.yul\":29616:29617   */\n      0x00\n        /* \"#utility.yul\":29605:29614   */\n      dup4\n        /* \"#utility.yul\":29601:29618   */\n      add\n        /* \"#utility.yul\":29592:29598   */\n      dup9\n        /* \"#utility.yul\":29548:29619   */\n      tag_544\n      jump\t// in\n    tag_878:\n        /* \"#utility.yul\":29629:29701   */\n      tag_879\n        /* \"#utility.yul\":29697:29699   */\n      0x20\n        /* \"#utility.yul\":29686:29695   */\n      dup4\n        /* \"#utility.yul\":29682:29700   */\n      add\n        /* \"#utility.yul\":29673:29679   */\n      dup8\n        /* \"#utility.yul\":29629:29701   */\n      tag_544\n      jump\t// in\n    tag_879:\n        /* \"#utility.yul\":29711:29783   */\n      tag_880\n        /* \"#utility.yul\":29779:29781   */\n      0x40\n        /* \"#utility.yul\":29768:29777   */\n      dup4\n        /* \"#utility.yul\":29764:29782   */\n      add\n        /* \"#utility.yul\":29755:29761   */\n      dup7\n        /* \"#utility.yul\":29711:29783   */\n      tag_544\n      jump\t// in\n    tag_880:\n        /* \"#utility.yul\":29793:29865   */\n      tag_881\n        /* \"#utility.yul\":29861:29863   */\n      0x60\n        /* \"#utility.yul\":29850:29859   */\n      dup4\n        /* \"#utility.yul\":29846:29864   */\n      add\n        /* \"#utility.yul\":29837:29843   */\n      dup6\n        /* \"#utility.yul\":29793:29865   */\n      tag_522\n      jump\t// in\n    tag_881:\n        /* \"#utility.yul\":29875:29948   */\n      tag_882\n        /* \"#utility.yul\":29943:29946   */\n      0x80\n        /* \"#utility.yul\":29932:29941   */\n      dup4\n        /* \"#utility.yul\":29928:29947   */\n      add\n        /* \"#utility.yul\":29919:29925   */\n      dup5\n        /* \"#utility.yul\":29875:29948   */\n      tag_550\n      jump\t// in\n    tag_882:\n        /* \"#utility.yul\":29291:29955   */\n      swap7\n      swap6\n      pop\n      pop\n      pop\n      pop\n      pop\n      pop\n      jump\t// out\n        /* \"#utility.yul\":29961:30131   */\n    tag_590:\n        /* \"#utility.yul\":30101:30123   */\n      0x5452414e534645525f46524f4d5f4641494c4544000000000000000000000000\n        /* \"#utility.yul\":30097:30098   */\n      0x00\n        /* \"#utility.yul\":30089:30095   */\n      dup3\n        /* \"#utility.yul\":30085:30099   */\n      add\n        /* \"#utility.yul\":30078:30124   */\n      mstore\n        /* \"#utility.yul\":29961:30131   */\n      pop\n      jump\t// out\n        /* \"#utility.yul\":30137:30503   */\n    tag_591:\n        /* \"#utility.yul\":30279:30282   */\n      0x00\n        /* \"#utility.yul\":30300:30367   */\n      tag_885\n        /* \"#utility.yul\":30364:30366   */\n      0x14\n        /* \"#utility.yul\":30359:30362   */\n      dup4\n        /* \"#utility.yul\":30300:30367   */\n      tag_524\n      jump\t// in\n    tag_885:\n        /* \"#utility.yul\":30293:30367   */\n      swap2\n      pop\n        /* \"#utility.yul\":30376:30469   */\n      tag_886\n        /* \"#utility.yul\":30465:30468   */\n      dup3\n        /* \"#utility.yul\":30376:30469   */\n      tag_590\n      jump\t// in\n    tag_886:\n        /* \"#utility.yul\":30494:30496   */\n      0x20\n        /* \"#utility.yul\":30489:30492   */\n      dup3\n        /* \"#utility.yul\":30485:30497   */\n      add\n        /* \"#utility.yul\":30478:30497   */\n      swap1\n      pop\n        /* \"#utility.yul\":30137:30503   */\n      swap2\n      swap1\n      pop\n      jump\t// out\n        /* \"#utility.yul\":30509:30928   */\n    tag_492:\n        /* \"#utility.yul\":30675:30679   */\n      0x00\n        /* \"#utility.yul\":30713:30715   */\n      0x20\n        /* \"#utility.yul\":30702:30711   */\n      dup3\n        /* \"#utility.yul\":30698:30716   */\n      add\n        /* \"#utility.yul\":30690:30716   */\n      swap1\n      pop\n        /* \"#utility.yul\":30762:30771   */\n      dup2\n        /* \"#utility.yul\":30756:30760   */\n      dup2\n        /* \"#utility.yul\":30752:30772   */\n      sub\n        /* \"#utility.yul\":30748:30749   */\n      0x00\n        /* \"#utility.yul\":30737:30746   */\n      dup4\n        /* \"#utility.yul\":30733:30750   */\n      add\n        /* \"#utility.yul\":30726:30773   */\n      mstore\n        /* \"#utility.yul\":30790:30921   */\n      tag_888\n        /* \"#utility.yul\":30916:30920   */\n      dup2\n        /* \"#utility.yul\":30790:30921   */\n      tag_591\n      jump\t// in\n    tag_888:\n        /* \"#utility.yul\":30782:30921   */\n      swap1\n      pop\n        /* \"#utility.yul\":30509:30928   */\n      swap2\n      swap1\n      pop\n      jump\t// out\n        /* \"#utility.yul\":30934:31239   */\n    tag_495:\n        /* \"#utility.yul\":30974:30977   */\n      0x00\n        /* \"#utility.yul\":30993:31013   */\n      tag_890\n        /* \"#utility.yul\":31011:31012   */\n      dup3\n        /* \"#utility.yul\":30993:31013   */\n      tag_521\n      jump\t// in\n    tag_890:\n        /* \"#utility.yul\":30988:31013   */\n      swap2\n      pop\n        /* \"#utility.yul\":31027:31047   */\n      tag_891\n        /* \"#utility.yul\":31045:31046   */\n      dup4\n        /* \"#utility.yul\":31027:31047   */\n      tag_521\n      jump\t// in\n    tag_891:\n        /* \"#utility.yul\":31022:31047   */\n      swap3\n      pop\n        /* \"#utility.yul\":31181:31182   */\n      dup3\n        /* \"#utility.yul\":31113:31179   */\n      0xffffffffffffffffffffffffffffffffffffffffffffffffffffffffffffffff\n        /* \"#utility.yul\":31109:31183   */\n      sub\n        /* \"#utility.yul\":31106:31107   */\n      dup3\n        /* \"#utility.yul\":31103:31184   */\n      gt\n        /* \"#utility.yul\":31100:31207   */\n      iszero\n      tag_892\n      jumpi\n        /* \"#utility.yul\":31187:31205   */\n      tag_893\n      tag_559\n      jump\t// in\n    tag_893:\n        /* \"#utility.yul\":31100:31207   */\n    tag_892:\n        /* \"#utility.yul\":31231:31232   */\n      dup3\n        /* \"#utility.yul\":31228:31229   */\n      dup3\n        /* \"#utility.yul\":31224:31233   */\n      add\n        /* \"#utility.yul\":31217:31233   */\n      swap1\n      pop\n        /* \"#utility.yul\":30934:31239   */\n      swap3\n      swap2\n      pop\n      pop\n      jump\t// out\n        /* \"#utility.yul\":31245:31478   */\n    tag_499:\n        /* \"#utility.yul\":31284:31287   */\n      0x00\n        /* \"#utility.yul\":31307:31331   */\n      tag_895\n        /* \"#utility.yul\":31325:31330   */\n      dup3\n        /* \"#utility.yul\":31307:31331   */\n      tag_521\n      jump\t// in\n    tag_895:\n        /* \"#utility.yul\":31298:31331   */\n      swap2\n      pop\n        /* \"#utility.yul\":31353:31419   */\n      0xffffffffffffffffffffffffffffffffffffffffffffffffffffffffffffffff\n        /* \"#utility.yul\":31346:31351   */\n      dup3\n        /* \"#utility.yul\":31343:31420   */\n      eq\n        /* \"#utility.yul\":31340:31443   */\n      iszero\n      tag_896\n      jumpi\n        /* \"#utility.yul\":31423:31441   */\n      tag_897\n      tag_559\n      jump\t// in\n    tag_897:\n        /* \"#utility.yul\":31340:31443   */\n    tag_896:\n        /* \"#utility.yul\":31470:31471   */\n      0x01\n        /* \"#utility.yul\":31463:31468   */\n      dup3\n        /* \"#utility.yul\":31459:31472   */\n      add\n        /* \"#utility.yul\":31452:31472   */\n      swap1\n      pop\n        /* \"#utility.yul\":31245:31478   */\n      swap2\n      swap1\n      pop\n      jump\t// out\n        /* \"#utility.yul\":31484:31598   */\n    tag_592:\n      pop\n      jump\t// out\n        /* \"#utility.yul\":31604:32002   */\n    tag_593:\n        /* \"#utility.yul\":31763:31766   */\n      0x00\n        /* \"#utility.yul\":31784:31867   */\n      tag_900\n        /* \"#utility.yul\":31865:31866   */\n      0x00\n        /* \"#utility.yul\":31860:31863   */\n      dup4\n        /* \"#utility.yul\":31784:31867   */\n      tag_587\n      jump\t// in\n    tag_900:\n        /* \"#utility.yul\":31777:31867   */\n      swap2\n      pop\n        /* \"#utility.yul\":31876:31969   */\n      tag_901\n        /* \"#utility.yul\":31965:31968   */\n      dup3\n        /* \"#utility.yul\":31876:31969   */\n      tag_592\n      jump\t// in\n    tag_901:\n        /* \"#utility.yul\":31994:31995   */\n      0x00\n        /* \"#utility.yul\":31989:31992   */\n      dup3\n        /* \"#utility.yul\":31985:31996   */\n      add\n        /* \"#utility.yul\":31978:31996   */\n      swap1\n      pop\n        /* \"#utility.yul\":31604:32002   */\n      swap2\n      swap1\n      pop\n      jump\t// out\n        /* \"#utility.yul\":32008:32387   */\n    tag_502:\n        /* \"#utility.yul\":32192:32195   */\n      0x00\n        /* \"#utility.yul\":32214:32361   */\n      tag_903\n        /* \"#utility.yul\":32357:32360   */\n      dup3\n        /* \"#utility.yul\":32214:32361   */\n      tag_593\n      jump\t// in\n    tag_903:\n        /* \"#utility.yul\":32207:32361   */\n      swap2\n      pop\n        /* \"#utility.yul\":32378:32381   */\n      dup2\n        /* \"#utility.yul\":32371:32381   */\n      swap1\n      pop\n        /* \"#utility.yul\":32008:32387   */\n      swap2\n      swap1\n      pop\n      jump\t// out\n        /* \"#utility.yul\":32393:32560   */\n    tag_594:\n        /* \"#utility.yul\":32533:32552   */\n      0x53747261746567792041206661696c6564000000000000000000000000000000\n        /* \"#utility.yul\":32529:32530   */\n      0x00\n        /* \"#utility.yul\":32521:32527   */\n      dup3\n        /* \"#utility.yul\":32517:32531   */\n      add\n        /* \"#utility.yul\":32510:32553   */\n      mstore\n        /* \"#utility.yul\":32393:32560   */\n      pop\n      jump\t// out\n        /* \"#utility.yul\":32566:32932   */\n    tag_595:\n        /* \"#utility.yul\":32708:32711   */\n      0x00\n        /* \"#utility.yul\":32729:32796   */\n      tag_906\n        /* \"#utility.yul\":32793:32795   */\n      0x11\n        /* \"#utility.yul\":32788:32791   */\n      dup4\n        /* \"#utility.yul\":32729:32796   */\n      tag_524\n      jump\t// in\n    tag_906:\n        /* \"#utility.yul\":32722:32796   */\n      swap2\n      pop\n        /* \"#utility.yul\":32805:32898   */\n      tag_907\n        /* \"#utility.yul\":32894:32897   */\n      dup3\n        /* \"#utility.yul\":32805:32898   */\n      tag_594\n      jump\t// in\n    tag_907:\n        /* \"#utility.yul\":32923:32925   */\n      0x20\n        /* \"#utility.yul\":32918:32921   */\n      dup3\n        /* \"#utility.yul\":32914:32926   */\n      add\n        /* \"#utility.yul\":32907:32926   */\n      swap1\n      pop\n        /* \"#utility.yul\":32566:32932   */\n      swap2\n      swap1\n      pop\n      jump\t// out\n        /* \"#utility.yul\":32938:33357   */\n    tag_508:\n        /* \"#utility.yul\":33104:33108   */\n      0x00\n        /* \"#utility.yul\":33142:33144   */\n      0x20\n        /* \"#utility.yul\":33131:33140   */\n      dup3\n        /* \"#utility.yul\":33127:33145   */\n      add\n        /* \"#utility.yul\":33119:33145   */\n      swap1\n      pop\n        /* \"#utility.yul\":33191:33200   */\n      dup2\n        /* \"#utility.yul\":33185:33189   */\n      dup2\n        /* \"#utility.yul\":33181:33201   */\n      sub\n        /* \"#utility.yul\":33177:33178   */\n      0x00\n        /* \"#utility.yul\":33166:33175   */\n      dup4\n        /* \"#utility.yul\":33162:33179   */\n      add\n        /* \"#utility.yul\":33155:33202   */\n      mstore\n        /* \"#utility.yul\":33219:33350   */\n      tag_909\n        /* \"#utility.yul\":33345:33349   */\n      dup2\n        /* \"#utility.yul\":33219:33350   */\n      tag_595\n      jump\t// in\n    tag_909:\n        /* \"#utility.yul\":33211:33350   */\n      swap1\n      pop\n        /* \"#utility.yul\":32938:33357   */\n      swap2\n      swap1\n      pop\n      jump\t// out\n        /* \"#utility.yul\":33363:33505   */\n    tag_596:\n        /* \"#utility.yul\":33413:33422   */\n      0x00\n        /* \"#utility.yul\":33446:33499   */\n      tag_911\n        /* \"#utility.yul\":33464:33498   */\n      tag_912\n        /* \"#utility.yul\":33473:33497   */\n      tag_913\n        /* \"#utility.yul\":33491:33496   */\n      dup5\n        /* \"#utility.yul\":33473:33497   */\n      tag_533\n      jump\t// in\n    tag_913:\n        /* \"#utility.yul\":33464:33498   */\n      tag_545\n      jump\t// in\n    tag_912:\n        /* \"#utility.yul\":33446:33499   */\n      tag_521\n      jump\t// in\n    tag_911:\n        /* \"#utility.yul\":33433:33499   */\n      swap1\n      pop\n        /* \"#utility.yul\":33363:33505   */\n      swap2\n      swap1\n      pop\n      jump\t// out\n        /* \"#utility.yul\":33511:33642   */\n    tag_597:\n        /* \"#utility.yul\":33598:33635   */\n      tag_915\n        /* \"#utility.yul\":33629:33634   */\n      dup2\n        /* \"#utility.yul\":33598:33635   */\n      tag_596\n      jump\t// in\n    tag_915:\n        /* \"#utility.yul\":33593:33596   */\n      dup3\n        /* \"#utility.yul\":33586:33636   */\n      mstore\n        /* \"#utility.yul\":33511:33642   */\n      pop\n      pop\n      jump\t// out\n        /* \"#utility.yul\":33648:33870   */\n    tag_510:\n        /* \"#utility.yul\":33741:33745   */\n      0x00\n        /* \"#utility.yul\":33779:33781   */\n      0x20\n        /* \"#utility.yul\":33768:33777   */\n      dup3\n        /* \"#utility.yul\":33764:33782   */\n      add\n        /* \"#utility.yul\":33756:33782   */\n      swap1\n      pop\n        /* \"#utility.yul\":33792:33863   */\n      tag_917\n        /* \"#utility.yul\":33860:33861   */\n      0x00\n        /* \"#utility.yul\":33849:33858   */\n      dup4\n        /* \"#utility.yul\":33845:33862   */\n      add\n        /* \"#utility.yul\":33836:33842   */\n      dup5\n        /* \"#utility.yul\":33792:33863   */\n      tag_597\n      jump\t// in\n    tag_917:\n        /* \"#utility.yul\":33648:33870   */\n      swap3\n      swap2\n      pop\n      pop\n      jump\t// out\n        /* \"#utility.yul\":33876:34041   */\n    tag_598:\n        /* \"#utility.yul\":34016:34033   */\n      0x5452414e534645525f4641494c45440000000000000000000000000000000000\n        /* \"#utility.yul\":34012:34013   */\n      0x00\n        /* \"#utility.yul\":34004:34010   */\n      dup3\n        /* \"#utility.yul\":34000:34014   */\n      add\n        /* \"#utility.yul\":33993:34034   */\n      mstore\n        /* \"#utility.yul\":33876:34041   */\n      pop\n      jump\t// out\n        /* \"#utility.yul\":34047:34413   */\n    tag_599:\n        /* \"#utility.yul\":34189:34192   */\n      0x00\n        /* \"#utility.yul\":34210:34277   */\n      tag_920\n        /* \"#utility.yul\":34274:34276   */\n      0x0f\n        /* \"#utility.yul\":34269:34272   */\n      dup4\n        /* \"#utility.yul\":34210:34277   */\n      tag_524\n      jump\t// in\n    tag_920:\n        /* \"#utility.yul\":34203:34277   */\n      swap2\n      pop\n        /* \"#utility.yul\":34286:34379   */\n      tag_921\n        /* \"#utility.yul\":34375:34378   */\n      dup3\n        /* \"#utility.yul\":34286:34379   */\n      tag_598\n      jump\t// in\n    tag_921:\n        /* \"#utility.yul\":34404:34406   */\n      0x20\n        /* \"#utility.yul\":34399:34402   */\n      dup3\n        /* \"#utility.yul\":34395:34407   */\n      add\n        /* \"#utility.yul\":34388:34407   */\n      swap1\n      pop\n        /* \"#utility.yul\":34047:34413   */\n      swap2\n      swap1\n      pop\n      jump\t// out\n        /* \"#utility.yul\":34419:34838   */\n    tag_520:\n        /* \"#utility.yul\":34585:34589   */\n      0x00\n        /* \"#utility.yul\":34623:34625   */\n      0x20\n        /* \"#utility.yul\":34612:34621   */\n      dup3\n        /* \"#utility.yul\":34608:34626   */\n      add\n        /* \"#utility.yul\":34600:34626   */\n      swap1\n      pop\n        /* \"#utility.yul\":34672:34681   */\n      dup2\n        /* \"#utility.yul\":34666:34670   */\n      dup2\n        /* \"#utility.yul\":34662:34682   */\n      sub\n        /* \"#utility.yul\":34658:34659   */\n      0x00\n        /* \"#utility.yul\":34647:34656   */\n      dup4\n        /* \"#utility.yul\":34643:34660   */\n      add\n        /* \"#utility.yul\":34636:34683   */\n      mstore\n        /* \"#utility.yul\":34700:34831   */\n      tag_923\n        /* \"#utility.yul\":34826:34830   */\n      dup2\n        /* \"#utility.yul\":34700:34831   */\n      tag_599\n      jump\t// in\n    tag_923:\n        /* \"#utility.yul\":34692:34831   */\n      swap1\n      pop\n        /* \"#utility.yul\":34419:34838   */\n      swap2\n      swap1\n      pop\n      jump\t// out\n\n    auxdata: 0xa26469706673582212201c6d7b46b7b17e6a2c511d24170f87dabd9839b1b82e3564561c1ea341ea846a64736f6c634300080a0033\n}\n",
				"bytecode": {
					"linkReferences": {},
					"object": "610140604052600060075560006008553480156200001c57600080fd5b5060405162004a1638038062004a168339818101604052810190620000429190620004f6565b83838383828282826000908051906020019062000061929190620001f2565b5081600190805190602001906200007a929190620001f2565b508060ff1660808160ff16815250504660a08181525050620000a16200016260201b60201c565b60c081815250505050508373ffffffffffffffffffffffffffffffffffffffff1660e08173ffffffffffffffffffffffffffffffffffffffff1681525050505050508373ffffffffffffffffffffffffffffffffffffffff166101208173ffffffffffffffffffffffffffffffffffffffff1681525050608051600a62000129919062000733565b61010081815250507fffffffffffffffffffffffffffffffffffffffffffffffffffffffffffffffff6002819055505050505062000947565b60007f8b73c3c69bb8fe3d512ecc4cf759cc79239f7b179b0ffacaa9a75d522b39400f600060405162000196919062000894565b60405180910390207fc89efdaa54c0f20c7adf612882df0950f5a951637e0307cdcb4c672f298b8bc64630604051602001620001d7959493929190620008ea565b60405160208183030381529060405280519060200120905090565b8280546200020090620007b3565b90600052602060002090601f01602090048101928262000224576000855562000270565b82601f106200023f57805160ff191683800117855562000270565b8280016001018555821562000270579182015b828111156200026f57825182559160200191906001019062000252565b5b5090506200027f919062000283565b5090565b5b808211156200029e57600081600090555060010162000284565b5090565b6000604051905090565b600080fd5b600080fd5b600073ffffffffffffffffffffffffffffffffffffffff82169050919050565b6000620002e382620002b6565b9050919050565b6000620002f782620002d6565b9050919050565b6200030981620002ea565b81146200031557600080fd5b50565b6000815190506200032981620002fe565b92915050565b600080fd5b600080fd5b6000601f19601f8301169050919050565b7f4e487b7100000000000000000000000000000000000000000000000000000000600052604160045260246000fd5b620003848262000339565b810181811067ffffffffffffffff82111715620003a657620003a56200034a565b5b80604052505050565b6000620003bb620002a2565b9050620003c9828262000379565b919050565b600067ffffffffffffffff821115620003ec57620003eb6200034a565b5b620003f78262000339565b9050602081019050919050565b60005b838110156200042457808201518184015260208101905062000407565b8381111562000434576000848401525b50505050565b6000620004516200044b84620003ce565b620003af565b90508281526020810184848401111562000470576200046f62000334565b5b6200047d84828562000404565b509392505050565b600082601f8301126200049d576200049c6200032f565b5b8151620004af8482602086016200043a565b91505092915050565b600060ff82169050919050565b620004d081620004b8565b8114620004dc57600080fd5b50565b600081519050620004f081620004c5565b92915050565b60008060008060808587031215620005135762000512620002ac565b5b6000620005238782880162000318565b945050602085015167ffffffffffffffff811115620005475762000546620002b1565b5b620005558782880162000485565b935050604085015167ffffffffffffffff811115620005795762000578620002b1565b5b620005878782880162000485565b92505060606200059a87828801620004df565b91505092959194509250565b7f4e487b7100000000000000000000000000000000000000000000000000000000600052601160045260246000fd5b60008160011c9050919050565b6000808291508390505b600185111562000634578086048111156200060c576200060b620005a6565b5b60018516156200061c5780820291505b80810290506200062c85620005d5565b9450620005ec565b94509492505050565b6000826200064f576001905062000722565b816200065f576000905062000722565b81600181146200067857600281146200068357620006b9565b600191505062000722565b60ff841115620006985762000697620005a6565b5b8360020a915084821115620006b257620006b1620005a6565b5b5062000722565b5060208310610133831016604e8410600b8410161715620006f35782820a905083811115620006ed57620006ec620005a6565b5b62000722565b620007028484846001620005e2565b925090508184048111156200071c576200071b620005a6565b5b81810290505b9392505050565b6000819050919050565b6000620007408262000729565b91506200074d83620004b8565b92506200077c7fffffffffffffffffffffffffffffffffffffffffffffffffffffffffffffffff84846200063d565b905092915050565b7f4e487b7100000000000000000000000000000000000000000000000000000000600052602260045260246000fd5b60006002820490506001821680620007cc57607f821691505b60208210811415620007e357620007e262000784565b5b50919050565b600081905092915050565b60008190508160005260206000209050919050565b600081546200081881620007b3565b620008248186620007e9565b9450600182166000811462000842576001811462000854576200088b565b60ff198316865281860193506200088b565b6200085f85620007f4565b60005b83811015620008835781548189015260018201915060208101905062000862565b838801955050505b50505092915050565b6000620008a2828462000809565b915081905092915050565b6000819050919050565b620008c281620008ad565b82525050565b620008d38162000729565b82525050565b620008e481620002d6565b82525050565b600060a082019050620009016000830188620008b7565b620009106020830187620008b7565b6200091f6040830186620008b7565b6200092e6060830185620008c8565b6200093d6080830184620008d9565b9695505050505050565b60805160a05160c05160e0516101005161012051614058620009be6000396000818161110b015261236701526000505060008181610b7d015281816112a6015281816113990152818161196501528181611f5d01526121fc0152600061127f0152600061124b0152600061106801526140586000f3fe6080604052600436106102815760003560e01c80638bf0a96e1161014f578063c63d75b6116100c1578063dd62ed3e1161007a578063dd62ed3e14610a55578063ecad956514610a92578063ef8b30f714610abd578063f2fde38b14610afa578063f84d73f414610b23578063fc407ae714610b4e57610288565b8063c63d75b61461090d578063c6e6f5921461094a578063ce96cb7714610987578063d505accf146109c4578063d905777e146109ed578063dc9a153514610a2a57610288565b8063b3d7f6b911610113578063b3d7f6b9146107d7578063b460af9414610814578063ba08765214610851578063bc368a8a1461088e578063bd662f88146108b9578063c5d664c6146108e257610288565b80638bf0a96e146106e057806394bf804d1461070957806395d89b4114610746578063a9059cbb14610771578063ac68a748146107ae57610288565b806338d52e0f116101f357806370a08231116101ac57806370a08231146105e4578063715018a6146106215780637ce3489b146106385780637ecebe00146106615780637fd6f15c1461069e57806383197ef0146106c957610288565b806338d52e0f146104ac578063392e53cd146104d7578063402d267d14610502578063481c6a751461053f5780634cdad5061461056a5780636e553f65146105a757610288565b806318160ddd1161024557806318160ddd1461039a5780631c693478146103c557806323b872dd146103f0578063313ce5671461042d57806332ff7732146104585780633644e5151461048157610288565b806301e1d1141461028d57806306fdde03146102b857806307a2d13a146102e3578063095ea7b3146103205780630a28a4771461035d57610288565b3661028857005b600080fd5b34801561029957600080fd5b506102a2610b79565b6040516102af9190612ed1565b60405180910390f35b3480156102c457600080fd5b506102cd610c1a565b6040516102da9190612f85565b60405180910390f35b3480156102ef57600080fd5b5061030a60048036038101906103059190612fd8565b610ca8565b6040516103179190612ed1565b60405180910390f35b34801561032c57600080fd5b5061034760048036038101906103429190613063565b610ce3565b60405161035491906130be565b60405180910390f35b34801561036957600080fd5b50610384600480360381019061037f9190612fd8565b610dd5565b6040516103919190612ed1565b60405180910390f35b3480156103a657600080fd5b506103af610e10565b6040516103bc9190612ed1565b60405180910390f35b3480156103d157600080fd5b506103da610e16565b6040516103e79190612ed1565b60405180910390f35b3480156103fc57600080fd5b50610417600480360381019061041291906130d9565b610e1c565b60405161042491906130be565b60405180910390f35b34801561043957600080fd5b50610442611066565b60405161044f9190613148565b60405180910390f35b34801561046457600080fd5b5061047f600480360381019061047a919061318f565b61108a565b005b34801561048d57600080fd5b50610496611247565b6040516104a391906131d5565b60405180910390f35b3480156104b857600080fd5b506104c16112a4565b6040516104ce919061324f565b60405180910390f35b3480156104e357600080fd5b506104ec6112c8565b6040516104f991906130be565b60405180910390f35b34801561050e57600080fd5b506105296004803603810190610524919061326a565b6112db565b6040516105369190612ed1565b60405180910390f35b34801561054b57600080fd5b50610554611305565b60405161056191906132a6565b60405180910390f35b34801561057657600080fd5b50610591600480360381019061058c9190612fd8565b61132f565b60405161059e9190612ed1565b60405180910390f35b3480156105b357600080fd5b506105ce60048036038101906105c991906132c1565b611341565b6040516105db9190612ed1565b60405180910390f35b3480156105f057600080fd5b5061060b6004803603810190610606919061326a565b61145f565b6040516106189190612ed1565b60405180910390f35b34801561062d57600080fd5b50610636611477565b005b34801561064457600080fd5b5061065f600480360381019061065a9190612fd8565b6115ad565b005b34801561066d57600080fd5b506106886004803603810190610683919061326a565b6116c5565b6040516106959190612ed1565b60405180910390f35b3480156106aa57600080fd5b506106b36116dd565b6040516106c09190612ed1565b60405180910390f35b3480156106d557600080fd5b506106de6116e3565b005b3480156106ec57600080fd5b506107076004803603810190610702919061332d565b611771565b005b34801561071557600080fd5b50610730600480360381019061072b91906132c1565b611950565b60405161073d9190612ed1565b60405180910390f35b34801561075257600080fd5b5061075b611a2b565b6040516107689190612f85565b60405180910390f35b34801561077d57600080fd5b5061079860048036038101906107939190613063565b611ab9565b6040516107a591906130be565b60405180910390f35b3480156107ba57600080fd5b506107d560048036038101906107d09190612fd8565b611bcd565b005b3480156107e357600080fd5b506107fe60048036038101906107f99190612fd8565b611d12565b60405161080b9190612ed1565b60405180910390f35b34801561082057600080fd5b5061083b6004803603810190610836919061336d565b611d4d565b6040516108489190612ed1565b60405180910390f35b34801561085d57600080fd5b506108786004803603810190610873919061336d565b611fa8565b6040516108859190612ed1565b60405180910390f35b34801561089a57600080fd5b506108a3612247565b6040516108b09190612ed1565b60405180910390f35b3480156108c557600080fd5b506108e060048036038101906108db9190612fd8565b61224d565b005b3480156108ee57600080fd5b506108f7612365565b604051610904919061324f565b60405180910390f35b34801561091957600080fd5b50610934600480360381019061092f919061326a565b612389565b6040516109419190612ed1565b60405180910390f35b34801561095657600080fd5b50610971600480360381019061096c9190612fd8565b6123b3565b60405161097e9190612ed1565b60405180910390f35b34801561099357600080fd5b506109ae60048036038101906109a9919061326a565b6123ee565b6040516109bb9190612ed1565b60405180910390f35b3480156109d057600080fd5b506109eb60048036038101906109e69190613418565b61243f565b005b3480156109f957600080fd5b50610a146004803603810190610a0f919061326a565b612738565b604051610a219190612ed1565b60405180910390f35b348015610a3657600080fd5b50610a3f612781565b604051610a4c91906130be565b60405180910390f35b348015610a6157600080fd5b50610a7c6004803603810190610a7791906134ba565b612794565b604051610a899190612ed1565b60405180910390f35b348015610a9e57600080fd5b50610aa76127b9565b604051610ab49190612ed1565b60405180910390f35b348015610ac957600080fd5b50610ae46004803603810190610adf9190612fd8565b6127bf565b604051610af19190612ed1565b60405180910390f35b348015610b0657600080fd5b50610b216004803603810190610b1c919061326a565b6127d1565b005b348015610b2f57600080fd5b50610b38612976565b604051610b4591906130be565b60405180910390f35b348015610b5a57600080fd5b50610b63612989565b604051610b709190612ed1565b60405180910390f35b60007f000000000000000000000000000000000000000000000000000000000000000073ffffffffffffffffffffffffffffffffffffffff166370a08231306040518263ffffffff1660e01b8152600401610bd491906132a6565b602060405180830381865afa158015610bf1573d6000803e3d6000fd5b505050506040513d601f19601f82011682018060405250810190610c15919061350f565b905090565b60008054610c279061356b565b80601f0160208091040260200160405190810160405280929190818152602001828054610c539061356b565b8015610ca05780601f10610c7557610100808354040283529160200191610ca0565b820191906000526020600020905b815481529060010190602001808311610c8357829003601f168201915b505050505081565b600080600254905060008114610cd957610cd4610cc3610b79565b828561298f9092919063ffffffff16565b610cdb565b825b915050919050565b600081600460003373ffffffffffffffffffffffffffffffffffffffff1673ffffffffffffffffffffffffffffffffffffffff16815260200190815260200160002060008573ffffffffffffffffffffffffffffffffffffffff1673ffffffffffffffffffffffffffffffffffffffff168152602001908152602001600020819055508273ffffffffffffffffffffffffffffffffffffffff163373ffffffffffffffffffffffffffffffffffffffff167f8c5be1e5ebec7d5bd14f71427d1e84f3dd0314c0f7b2291e5b200ac8c7c3b92584604051610dc39190612ed1565b60405180910390a36001905092915050565b600080600254905060008114610e0657610e0181610df1610b79565b856129b79092919063ffffffff16565b610e08565b825b915050919050565b60025481565b600a5481565b600080600460008673ffffffffffffffffffffffffffffffffffffffff1673ffffffffffffffffffffffffffffffffffffffff16815260200190815260200160002060003373ffffffffffffffffffffffffffffffffffffffff1673ffffffffffffffffffffffffffffffffffffffff1681526020019081526020016000205490507fffffffffffffffffffffffffffffffffffffffffffffffffffffffffffffffff8114610f52578281610ed191906135cc565b600460008773ffffffffffffffffffffffffffffffffffffffff1673ffffffffffffffffffffffffffffffffffffffff16815260200190815260200160002060003373ffffffffffffffffffffffffffffffffffffffff1673ffffffffffffffffffffffffffffffffffffffff168152602001908152602001600020819055505b82600360008773ffffffffffffffffffffffffffffffffffffffff1673ffffffffffffffffffffffffffffffffffffffff1681526020019081526020016000206000828254610fa191906135cc565b9250508190555082600360008673ffffffffffffffffffffffffffffffffffffffff1673ffffffffffffffffffffffffffffffffffffffff168152602001908152602001600020600082825401925050819055508373ffffffffffffffffffffffffffffffffffffffff168573ffffffffffffffffffffffffffffffffffffffff167fddf252ad1be2c89b69c2b068fc378daa952ba7f163c4a11628f55a4df523b3ef856040516110529190612ed1565b60405180910390a360019150509392505050565b7f000000000000000000000000000000000000000000000000000000000000000081565b3373ffffffffffffffffffffffffffffffffffffffff166110a9611305565b73ffffffffffffffffffffffffffffffffffffffff16146110ff576040517f08c379a00000000000000000000000000000000000000000000000000000000081526004016110f690613672565b60405180910390fd5b80158061119d575060127f000000000000000000000000000000000000000000000000000000000000000073ffffffffffffffffffffffffffffffffffffffff1663313ce5676040518163ffffffff1660e01b8152600401602060405180830381865afa158015611174573d6000803e3d6000fd5b505050506040513d601f19601f8201168201806040525081019061119891906136a7565b60ff16145b6111dc576040517f08c379a00000000000000000000000000000000000000000000000000000000081526004016111d390613720565b60405180910390fd5b80600b60006101000a81548160ff0219169083151502179055503373ffffffffffffffffffffffffffffffffffffffff167f6375b140d4463d47b864f1f47e5d2893cc3478e73aedcc268b054fab0230a8418260405161123c91906130be565b60405180910390a250565b60007f0000000000000000000000000000000000000000000000000000000000000000461461127d576112786129e9565b61129f565b7f00000000000000000000000000000000000000000000000000000000000000005b905090565b7f000000000000000000000000000000000000000000000000000000000000000081565b600d60009054906101000a900460ff1681565b60007fffffffffffffffffffffffffffffffffffffffffffffffffffffffffffffffff9050919050565b6000600660009054906101000a900473ffffffffffffffffffffffffffffffffffffffff16905090565b600061133a82610ca8565b9050919050565b60008061134d846127bf565b9150811415611391576040517f08c379a00000000000000000000000000000000000000000000000000000000081526004016113889061378c565b60405180910390fd5b6113de3330857f000000000000000000000000000000000000000000000000000000000000000073ffffffffffffffffffffffffffffffffffffffff16612a75909392919063ffffffff16565b6113e88282612b14565b8173ffffffffffffffffffffffffffffffffffffffff163373ffffffffffffffffffffffffffffffffffffffff167fdcbc1c05240f31ff3ad067ef1ee35ce4997762752e3a095284754544f4c709d785846040516114479291906137ac565b60405180910390a36114598382612be4565b92915050565b60036020528060005260406000206000915090505481565b3373ffffffffffffffffffffffffffffffffffffffff16611496611305565b73ffffffffffffffffffffffffffffffffffffffff16146114ec576040517f08c379a00000000000000000000000000000000000000000000000000000000081526004016114e390613672565b60405180910390fd5b600073ffffffffffffffffffffffffffffffffffffffff16600660009054906101000a900473ffffffffffffffffffffffffffffffffffffffff1673ffffffffffffffffffffffffffffffffffffffff167f8be0079c531659141344cd1fd0a4f28419497f9722a3daafe3b4186f6b6457e060405160405180910390a36000600660006101000a81548173ffffffffffffffffffffffffffffffffffffffff021916908373ffffffffffffffffffffffffffffffffffffffff160217905550565b3373ffffffffffffffffffffffffffffffffffffffff166115cc611305565b73ffffffffffffffffffffffffffffffffffffffff1614611622576040517f08c379a000000000000000000000000000000000000000000000000000000000815260040161161990613672565b60405180910390fd5b670de0b6b3a764000081111561166d576040517f08c379a000000000000000000000000000000000000000000000000000000000815260040161166490613821565b60405180910390fd5b806009819055503373ffffffffffffffffffffffffffffffffffffffff167fec370615cc81fb334e5566fbc80664d9082377bf59288d64a79f3fbecf4323a9826040516116ba9190612ed1565b60405180910390a250565b60056020528060005260406000206000915090505481565b60095481565b3373ffffffffffffffffffffffffffffffffffffffff16611702611305565b73ffffffffffffffffffffffffffffffffffffffff1614611758576040517f08c379a000000000000000000000000000000000000000000000000000000000815260040161174f90613672565b60405180910390fd5b3373ffffffffffffffffffffffffffffffffffffffff16ff5b3373ffffffffffffffffffffffffffffffffffffffff16611790611305565b73ffffffffffffffffffffffffffffffffffffffff16146117e6576040517f08c379a00000000000000000000000000000000000000000000000000000000081526004016117dd90613672565b60405180910390fd5b600d60009054906101000a900460ff1615611836576040517f08c379a000000000000000000000000000000000000000000000000000000000815260040161182d9061388d565b60405180910390fd5b6001600d60006101000a81548160ff021916908315150217905550600060028190555061187d82620186a08373ffffffffffffffffffffffffffffffffffffffff16612c00565b503373ffffffffffffffffffffffffffffffffffffffff167f908408e307fc569b417f6cbec5d5a06f44a0a505ac0479b47d421a4b2fd6a1e660405160405180910390a2600d60019054906101000a900460ff1615611913577fda9fcd4a22655136641ea6451669f22ddb60b968c2cd77b015da4796ad8faeb9600160405161190691906130be565b60405180910390a161194c565b7fda9fcd4a22655136641ea6451669f22ddb60b968c2cd77b015da4796ad8faeb9600060405161194391906130be565b60405180910390a15b5050565b600061195b83611d12565b90506119aa3330837f000000000000000000000000000000000000000000000000000000000000000073ffffffffffffffffffffffffffffffffffffffff16612a75909392919063ffffffff16565b6119b48284612b14565b8173ffffffffffffffffffffffffffffffffffffffff163373ffffffffffffffffffffffffffffffffffffffff167fdcbc1c05240f31ff3ad067ef1ee35ce4997762752e3a095284754544f4c709d78386604051611a139291906137ac565b60405180910390a3611a258184612be4565b92915050565b60018054611a389061356b565b80601f0160208091040260200160405190810160405280929190818152602001828054611a649061356b565b8015611ab15780601f10611a8657610100808354040283529160200191611ab1565b820191906000526020600020905b815481529060010190602001808311611a9457829003601f168201915b505050505081565b600081600360003373ffffffffffffffffffffffffffffffffffffffff1673ffffffffffffffffffffffffffffffffffffffff1681526020019081526020016000206000828254611b0a91906135cc565b9250508190555081600360008573ffffffffffffffffffffffffffffffffffffffff1673ffffffffffffffffffffffffffffffffffffffff168152602001908152602001600020600082825401925050819055508273ffffffffffffffffffffffffffffffffffffffff163373ffffffffffffffffffffffffffffffffffffffff167fddf252ad1be2c89b69c2b068fc378daa952ba7f163c4a11628f55a4df523b3ef84604051611bbb9190612ed1565b60405180910390a36001905092915050565b3373ffffffffffffffffffffffffffffffffffffffff16611bec611305565b73ffffffffffffffffffffffffffffffffffffffff1614611c42576040517f08c379a0000000000000000000000000000000000000000000000000000000008152600401611c3990613672565b60405180910390fd5b3373ffffffffffffffffffffffffffffffffffffffff167f9493e5bbe4e8e0ac67284469a2d677403d0378a85a59e341d3abc433d0d9a20982604051611c889190612ed1565b60405180910390a23073ffffffffffffffffffffffffffffffffffffffff1663a9059cbb33836040518363ffffffff1660e01b8152600401611ccb9291906138ad565b6020604051808303816000875af1158015611cea573d6000803e3d6000fd5b505050506040513d601f19601f82011682018060405250810190611d0e91906138eb565b5050565b600080600254905060008114611d4357611d3e611d2d610b79565b82856129b79092919063ffffffff16565b611d45565b825b915050919050565b6000611d5884610dd5565b90508173ffffffffffffffffffffffffffffffffffffffff163373ffffffffffffffffffffffffffffffffffffffff1614611ec4576000600460008473ffffffffffffffffffffffffffffffffffffffff1673ffffffffffffffffffffffffffffffffffffffff16815260200190815260200160002060003373ffffffffffffffffffffffffffffffffffffffff1673ffffffffffffffffffffffffffffffffffffffff1681526020019081526020016000205490507fffffffffffffffffffffffffffffffffffffffffffffffffffffffffffffffff8114611ec2578181611e4191906135cc565b600460008573ffffffffffffffffffffffffffffffffffffffff1673ffffffffffffffffffffffffffffffffffffffff16815260200190815260200160002060003373ffffffffffffffffffffffffffffffffffffffff1673ffffffffffffffffffffffffffffffffffffffff168152602001908152602001600020819055505b505b611ece8482612d34565b611ed88282612d50565b8173ffffffffffffffffffffffffffffffffffffffff168373ffffffffffffffffffffffffffffffffffffffff163373ffffffffffffffffffffffffffffffffffffffff167ffbde797d201c681b91056529119e0b02407c7bb96a4a2c75c01fc9667232c8db8785604051611f4e9291906137ac565b60405180910390a4611fa183857f000000000000000000000000000000000000000000000000000000000000000073ffffffffffffffffffffffffffffffffffffffff16612e209092919063ffffffff16565b9392505050565b60008173ffffffffffffffffffffffffffffffffffffffff163373ffffffffffffffffffffffffffffffffffffffff1614612114576000600460008473ffffffffffffffffffffffffffffffffffffffff1673ffffffffffffffffffffffffffffffffffffffff16815260200190815260200160002060003373ffffffffffffffffffffffffffffffffffffffff1673ffffffffffffffffffffffffffffffffffffffff1681526020019081526020016000205490507fffffffffffffffffffffffffffffffffffffffffffffffffffffffffffffffff811461211257848161209191906135cc565b600460008573ffffffffffffffffffffffffffffffffffffffff1673ffffffffffffffffffffffffffffffffffffffff16815260200190815260200160002060003373ffffffffffffffffffffffffffffffffffffffff1673ffffffffffffffffffffffffffffffffffffffff168152602001908152602001600020819055505b505b600061211f8561132f565b9150811415612163576040517f08c379a000000000000000000000000000000000000000000000000000000000815260040161215a90613964565b60405180910390fd5b61216d8185612d34565b6121778285612d50565b8173ffffffffffffffffffffffffffffffffffffffff168373ffffffffffffffffffffffffffffffffffffffff163373ffffffffffffffffffffffffffffffffffffffff167ffbde797d201c681b91056529119e0b02407c7bb96a4a2c75c01fc9667232c8db84886040516121ed9291906137ac565b60405180910390a461224083827f000000000000000000000000000000000000000000000000000000000000000073ffffffffffffffffffffffffffffffffffffffff16612e209092919063ffffffff16565b9392505050565b60075481565b3373ffffffffffffffffffffffffffffffffffffffff1661226c611305565b73ffffffffffffffffffffffffffffffffffffffff16146122c2576040517f08c379a00000000000000000000000000000000000000000000000000000000081526004016122b990613672565b60405180910390fd5b670de0b6b3a764000081111561230d576040517f08c379a0000000000000000000000000000000000000000000000000000000008152600401612304906139d0565b60405180910390fd5b80600a819055503373ffffffffffffffffffffffffffffffffffffffff167f95bc4480b51f4860106d42850bcae222cf3303fb2b7d433e896205e0ebefe3698260405161235a9190612ed1565b60405180910390a250565b7f000000000000000000000000000000000000000000000000000000000000000081565b60007fffffffffffffffffffffffffffffffffffffffffffffffffffffffffffffffff9050919050565b6000806002549050600081146123e4576123df816123cf610b79565b8561298f9092919063ffffffff16565b6123e6565b825b915050919050565b6000612438600360008473ffffffffffffffffffffffffffffffffffffffff1673ffffffffffffffffffffffffffffffffffffffff16815260200190815260200160002054610ca8565b9050919050565b42841015612482576040517f08c379a000000000000000000000000000000000000000000000000000000000815260040161247990613a3c565b60405180910390fd5b6000600161248e611247565b7f6e71edae12b1b97f4d1f60370fef10105fa2faae0126114a169c64845d6126c98a8a8a600560008f73ffffffffffffffffffffffffffffffffffffffff1673ffffffffffffffffffffffffffffffffffffffff1681526020019081526020016000206000815480929190600101919050558b60405160200161251696959493929190613a5c565b6040516020818303038152906040528051906020012060405160200161253d929190613b35565b60405160208183030381529060405280519060200120858585604051600081526020016040526040516125739493929190613b6c565b6020604051602081039080840390855afa158015612595573d6000803e3d6000fd5b505050602060405103519050600073ffffffffffffffffffffffffffffffffffffffff168173ffffffffffffffffffffffffffffffffffffffff161415801561260957508773ffffffffffffffffffffffffffffffffffffffff168173ffffffffffffffffffffffffffffffffffffffff16145b612648576040517f08c379a000000000000000000000000000000000000000000000000000000000815260040161263f90613bfd565b60405180910390fd5b85600460008373ffffffffffffffffffffffffffffffffffffffff1673ffffffffffffffffffffffffffffffffffffffff16815260200190815260200160002060008973ffffffffffffffffffffffffffffffffffffffff1673ffffffffffffffffffffffffffffffffffffffff16815260200190815260200160002081905550508573ffffffffffffffffffffffffffffffffffffffff168773ffffffffffffffffffffffffffffffffffffffff167f8c5be1e5ebec7d5bd14f71427d1e84f3dd0314c0f7b2291e5b200ac8c7c3b925876040516127279190612ed1565b60405180910390a350505050505050565b6000600360008373ffffffffffffffffffffffffffffffffffffffff1673ffffffffffffffffffffffffffffffffffffffff168152602001908152602001600020549050919050565b600d60019054906101000a900460ff1681565b6004602052816000526040600020602052806000526040600020600091509150505481565b600c5481565b60006127ca826123b3565b9050919050565b3373ffffffffffffffffffffffffffffffffffffffff166127f0611305565b73ffffffffffffffffffffffffffffffffffffffff1614612846576040517f08c379a000000000000000000000000000000000000000000000000000000000815260040161283d90613672565b60405180910390fd5b600073ffffffffffffffffffffffffffffffffffffffff168173ffffffffffffffffffffffffffffffffffffffff1614156128b6576040517f08c379a00000000000000000000000000000000000000000000000000000000081526004016128ad90613c8f565b60405180910390fd5b8073ffffffffffffffffffffffffffffffffffffffff16600660009054906101000a900473ffffffffffffffffffffffffffffffffffffffff1673ffffffffffffffffffffffffffffffffffffffff167f8be0079c531659141344cd1fd0a4f28419497f9722a3daafe3b4186f6b6457e060405160405180910390a380600660006101000a81548173ffffffffffffffffffffffffffffffffffffffff021916908373ffffffffffffffffffffffffffffffffffffffff16021790555050565b600b60009054906101000a900460ff1681565b60085481565b600082840290508284820414841517821515166129ab57600080fd5b81810490509392505050565b600082840290508284820414841517821515166129d357600080fd5b6001826001830304018115150290509392505050565b60007f8b73c3c69bb8fe3d512ecc4cf759cc79239f7b179b0ffacaa9a75d522b39400f6000604051612a1b9190613d4e565b60405180910390207fc89efdaa54c0f20c7adf612882df0950f5a951637e0307cdcb4c672f298b8bc64630604051602001612a5a959493929190613d65565b60405160208183030381529060405280519060200120905090565b60006040517f23b872dd0000000000000000000000000000000000000000000000000000000081528460048201528360248201528260448201526020600060648360008a5af13d15601f3d1160016000511416171691505080612b0d576040517f08c379a0000000000000000000000000000000000000000000000000000000008152600401612b0490613e04565b60405180910390fd5b5050505050565b8060026000828254612b269190613e24565b9250508190555080600360008473ffffffffffffffffffffffffffffffffffffffff1673ffffffffffffffffffffffffffffffffffffffff168152602001908152602001600020600082825401925050819055508173ffffffffffffffffffffffffffffffffffffffff16600073ffffffffffffffffffffffffffffffffffffffff167fddf252ad1be2c89b69c2b068fc378daa952ba7f163c4a11628f55a4df523b3ef83604051612bd89190612ed1565b60405180910390a35050565b60086000815480929190612bf790613e7a565b91905055505050565b60008060008573ffffffffffffffffffffffffffffffffffffffff1684604051612c2990613ee9565b60006040518083038185875af1925050503d8060008114612c66576040519150601f19603f3d011682016040523d82523d6000602084013e612c6b565b606091505b509150915081612cb0576040517f08c379a0000000000000000000000000000000000000000000000000000000008152600401612ca790613f4a565b60405180910390fd5b3073ffffffffffffffffffffffffffffffffffffffff168673ffffffffffffffffffffffffffffffffffffffff167f921fce8b04203d2c416691cd9e563c8c78d2f6ac4d8f522a65f940640ff6609187604051612d0d9190613f9b565b60405180910390a380806020019051810190612d2991906138eb565b925050509392505050565b60076000815480929190612d4790613e7a565b91905055505050565b80600360008473ffffffffffffffffffffffffffffffffffffffff1673ffffffffffffffffffffffffffffffffffffffff1681526020019081526020016000206000828254612d9f91906135cc565b9250508190555080600260008282540392505081905550600073ffffffffffffffffffffffffffffffffffffffff168273ffffffffffffffffffffffffffffffffffffffff167fddf252ad1be2c89b69c2b068fc378daa952ba7f163c4a11628f55a4df523b3ef83604051612e149190612ed1565b60405180910390a35050565b60006040517fa9059cbb000000000000000000000000000000000000000000000000000000008152836004820152826024820152602060006044836000895af13d15601f3d1160016000511416171691505080612eb2576040517f08c379a0000000000000000000000000000000000000000000000000000000008152600401612ea990614002565b60405180910390fd5b50505050565b6000819050919050565b612ecb81612eb8565b82525050565b6000602082019050612ee66000830184612ec2565b92915050565b600081519050919050565b600082825260208201905092915050565b60005b83811015612f26578082015181840152602081019050612f0b565b83811115612f35576000848401525b50505050565b6000601f19601f8301169050919050565b6000612f5782612eec565b612f618185612ef7565b9350612f71818560208601612f08565b612f7a81612f3b565b840191505092915050565b60006020820190508181036000830152612f9f8184612f4c565b905092915050565b600080fd5b612fb581612eb8565b8114612fc057600080fd5b50565b600081359050612fd281612fac565b92915050565b600060208284031215612fee57612fed612fa7565b5b6000612ffc84828501612fc3565b91505092915050565b600073ffffffffffffffffffffffffffffffffffffffff82169050919050565b600061303082613005565b9050919050565b61304081613025565b811461304b57600080fd5b50565b60008135905061305d81613037565b92915050565b6000806040838503121561307a57613079612fa7565b5b60006130888582860161304e565b925050602061309985828601612fc3565b9150509250929050565b60008115159050919050565b6130b8816130a3565b82525050565b60006020820190506130d360008301846130af565b92915050565b6000806000606084860312156130f2576130f1612fa7565b5b60006131008682870161304e565b93505060206131118682870161304e565b925050604061312286828701612fc3565b9150509250925092565b600060ff82169050919050565b6131428161312c565b82525050565b600060208201905061315d6000830184613139565b92915050565b61316c816130a3565b811461317757600080fd5b50565b60008135905061318981613163565b92915050565b6000602082840312156131a5576131a4612fa7565b5b60006131b38482850161317a565b91505092915050565b6000819050919050565b6131cf816131bc565b82525050565b60006020820190506131ea60008301846131c6565b92915050565b6000819050919050565b600061321561321061320b84613005565b6131f0565b613005565b9050919050565b6000613227826131fa565b9050919050565b60006132398261321c565b9050919050565b6132498161322e565b82525050565b60006020820190506132646000830184613240565b92915050565b6000602082840312156132805761327f612fa7565b5b600061328e8482850161304e565b91505092915050565b6132a081613025565b82525050565b60006020820190506132bb6000830184613297565b92915050565b600080604083850312156132d8576132d7612fa7565b5b60006132e685828601612fc3565b92505060206132f78582860161304e565b9150509250929050565b61330a81613005565b811461331557600080fd5b50565b60008135905061332781613301565b92915050565b6000806040838503121561334457613343612fa7565b5b60006133528582860161304e565b925050602061336385828601613318565b9150509250929050565b60008060006060848603121561338657613385612fa7565b5b600061339486828701612fc3565b93505060206133a58682870161304e565b92505060406133b68682870161304e565b9150509250925092565b6133c98161312c565b81146133d457600080fd5b50565b6000813590506133e6816133c0565b92915050565b6133f5816131bc565b811461340057600080fd5b50565b600081359050613412816133ec565b92915050565b600080600080600080600060e0888a03121561343757613436612fa7565b5b60006134458a828b0161304e565b97505060206134568a828b0161304e565b96505060406134678a828b01612fc3565b95505060606134788a828b01612fc3565b94505060806134898a828b016133d7565b93505060a061349a8a828b01613403565b92505060c06134ab8a828b01613403565b91505092959891949750929550565b600080604083850312156134d1576134d0612fa7565b5b60006134df8582860161304e565b92505060206134f08582860161304e565b9150509250929050565b60008151905061350981612fac565b92915050565b60006020828403121561352557613524612fa7565b5b6000613533848285016134fa565b91505092915050565b7f4e487b7100000000000000000000000000000000000000000000000000000000600052602260045260246000fd5b6000600282049050600182168061358357607f821691505b602082108114156135975761359661353c565b5b50919050565b7f4e487b7100000000000000000000000000000000000000000000000000000000600052601160045260246000fd5b60006135d782612eb8565b91506135e283612eb8565b9250828210156135f5576135f461359d565b5b828203905092915050565b7f4f776e61626c653a2063616c6c6572206973206e6f7420746865206d616e616760008201527f6572000000000000000000000000000000000000000000000000000000000000602082015250565b600061365c602283612ef7565b915061366782613600565b604082019050919050565b6000602082019050818103600083015261368b8161364f565b9050919050565b6000815190506136a1816133c0565b92915050565b6000602082840312156136bd576136bc612fa7565b5b60006136cb84828501613692565b91505092915050565b7f57524f4e475f444543494d414c53000000000000000000000000000000000000600082015250565b600061370a600e83612ef7565b9150613715826136d4565b602082019050919050565b60006020820190508181036000830152613739816136fd565b9050919050565b7f5a45524f5f534841524553000000000000000000000000000000000000000000600082015250565b6000613776600b83612ef7565b915061378182613740565b602082019050919050565b600060208201905081810360008301526137a581613769565b9050919050565b60006040820190506137c16000830185612ec2565b6137ce6020830184612ec2565b9392505050565b7f4645455f544f4f5f484947480000000000000000000000000000000000000000600082015250565b600061380b600c83612ef7565b9150613816826137d5565b602082019050919050565b6000602082019050818103600083015261383a816137fe565b9050919050565b7f414c52454144595f494e495449414c495a454400000000000000000000000000600082015250565b6000613877601383612ef7565b915061388282613841565b602082019050919050565b600060208201905081810360008301526138a68161386a565b9050919050565b60006040820190506138c26000830185613297565b6138cf6020830184612ec2565b9392505050565b6000815190506138e581613163565b92915050565b60006020828403121561390157613900612fa7565b5b600061390f848285016138d6565b91505092915050565b7f5a45524f5f415353455453000000000000000000000000000000000000000000600082015250565b600061394e600b83612ef7565b915061395982613918565b602082019050919050565b6000602082019050818103600083015261397d81613941565b9050919050565b7f5441524745545f544f4f5f484947480000000000000000000000000000000000600082015250565b60006139ba600f83612ef7565b91506139c582613984565b602082019050919050565b600060208201905081810360008301526139e9816139ad565b9050919050565b7f5045524d49545f444541444c494e455f45585049524544000000000000000000600082015250565b6000613a26601783612ef7565b9150613a31826139f0565b602082019050919050565b60006020820190508181036000830152613a5581613a19565b9050919050565b600060c082019050613a7160008301896131c6565b613a7e6020830188613297565b613a8b6040830187613297565b613a986060830186612ec2565b613aa56080830185612ec2565b613ab260a0830184612ec2565b979650505050505050565b600081905092915050565b7f1901000000000000000000000000000000000000000000000000000000000000600082015250565b6000613afe600283613abd565b9150613b0982613ac8565b600282019050919050565b6000819050919050565b613b2f613b2a826131bc565b613b14565b82525050565b6000613b4082613af1565b9150613b4c8285613b1e565b602082019150613b5c8284613b1e565b6020820191508190509392505050565b6000608082019050613b8160008301876131c6565b613b8e6020830186613139565b613b9b60408301856131c6565b613ba860608301846131c6565b95945050505050565b7f494e56414c49445f5349474e4552000000000000000000000000000000000000600082015250565b6000613be7600e83612ef7565b9150613bf282613bb1565b602082019050919050565b60006020820190508181036000830152613c1681613bda565b9050919050565b7f4f776e61626c653a206e6577206d616e6167657220697320746865207a65726f60008201527f2061646472657373000000000000000000000000000000000000000000000000602082015250565b6000613c79602883612ef7565b9150613c8482613c1d565b604082019050919050565b60006020820190508181036000830152613ca881613c6c565b9050919050565b600081905092915050565b60008190508160005260206000209050919050565b60008154613cdc8161356b565b613ce68186613caf565b94506001821660008114613d015760018114613d1257613d45565b60ff19831686528186019350613d45565b613d1b85613cba565b60005b83811015613d3d57815481890152600182019150602081019050613d1e565b838801955050505b50505092915050565b6000613d5a8284613ccf565b915081905092915050565b600060a082019050613d7a60008301886131c6565b613d8760208301876131c6565b613d9460408301866131c6565b613da16060830185612ec2565b613dae6080830184613297565b9695505050505050565b7f5452414e534645525f46524f4d5f4641494c4544000000000000000000000000600082015250565b6000613dee601483612ef7565b9150613df982613db8565b602082019050919050565b60006020820190508181036000830152613e1d81613de1565b9050919050565b6000613e2f82612eb8565b9150613e3a83612eb8565b9250827fffffffffffffffffffffffffffffffffffffffffffffffffffffffffffffffff03821115613e6f57613e6e61359d565b5b828201905092915050565b6000613e8582612eb8565b91507fffffffffffffffffffffffffffffffffffffffffffffffffffffffffffffffff821415613eb857613eb761359d565b5b600182019050919050565b50565b6000613ed3600083613caf565b9150613ede82613ec3565b600082019050919050565b6000613ef482613ec6565b9150819050919050565b7f53747261746567792041206661696c6564000000000000000000000000000000600082015250565b6000613f34601183612ef7565b9150613f3f82613efe565b602082019050919050565b60006020820190508181036000830152613f6381613f27565b9050919050565b6000613f85613f80613f7b84613005565b6131f0565b612eb8565b9050919050565b613f9581613f6a565b82525050565b6000602082019050613fb06000830184613f8c565b92915050565b7f5452414e534645525f4641494c45440000000000000000000000000000000000600082015250565b6000613fec600f83612ef7565b9150613ff782613fb6565b602082019050919050565b6000602082019050818103600083015261401b81613fdf565b905091905056fea26469706673582212201c6d7b46b7b17e6a2c511d24170f87dabd9839b1b82e3564561c1ea341ea846a64736f6c634300080a0033",
					"opcodes": "PUSH2 0x140 PUSH1 0x40 MSTORE PUSH1 0x0 PUSH1 0x7 SSTORE PUSH1 0x0 PUSH1 0x8 SSTORE CALLVALUE DUP1 ISZERO PUSH3 0x1C JUMPI PUSH1 0x0 DUP1 REVERT JUMPDEST POP PUSH1 0x40 MLOAD PUSH3 0x4A16 CODESIZE SUB DUP1 PUSH3 0x4A16 DUP4 CODECOPY DUP2 DUP2 ADD PUSH1 0x40 MSTORE DUP2 ADD SWAP1 PUSH3 0x42 SWAP2 SWAP1 PUSH3 0x4F6 JUMP JUMPDEST DUP4 DUP4 DUP4 DUP4 DUP3 DUP3 DUP3 DUP3 PUSH1 0x0 SWAP1 DUP1 MLOAD SWAP1 PUSH1 0x20 ADD SWAP1 PUSH3 0x61 SWAP3 SWAP2 SWAP1 PUSH3 0x1F2 JUMP JUMPDEST POP DUP2 PUSH1 0x1 SWAP1 DUP1 MLOAD SWAP1 PUSH1 0x20 ADD SWAP1 PUSH3 0x7A SWAP3 SWAP2 SWAP1 PUSH3 0x1F2 JUMP JUMPDEST POP DUP1 PUSH1 0xFF AND PUSH1 0x80 DUP2 PUSH1 0xFF AND DUP2 MSTORE POP POP CHAINID PUSH1 0xA0 DUP2 DUP2 MSTORE POP POP PUSH3 0xA1 PUSH3 0x162 PUSH1 0x20 SHL PUSH1 0x20 SHR JUMP JUMPDEST PUSH1 0xC0 DUP2 DUP2 MSTORE POP POP POP POP POP DUP4 PUSH20 0xFFFFFFFFFFFFFFFFFFFFFFFFFFFFFFFFFFFFFFFF AND PUSH1 0xE0 DUP2 PUSH20 0xFFFFFFFFFFFFFFFFFFFFFFFFFFFFFFFFFFFFFFFF AND DUP2 MSTORE POP POP POP POP POP POP DUP4 PUSH20 0xFFFFFFFFFFFFFFFFFFFFFFFFFFFFFFFFFFFFFFFF AND PUSH2 0x120 DUP2 PUSH20 0xFFFFFFFFFFFFFFFFFFFFFFFFFFFFFFFFFFFFFFFF AND DUP2 MSTORE POP POP PUSH1 0x80 MLOAD PUSH1 0xA PUSH3 0x129 SWAP2 SWAP1 PUSH3 0x733 JUMP JUMPDEST PUSH2 0x100 DUP2 DUP2 MSTORE POP POP PUSH32 0xFFFFFFFFFFFFFFFFFFFFFFFFFFFFFFFFFFFFFFFFFFFFFFFFFFFFFFFFFFFFFFFF PUSH1 0x2 DUP2 SWAP1 SSTORE POP POP POP POP POP PUSH3 0x947 JUMP JUMPDEST PUSH1 0x0 PUSH32 0x8B73C3C69BB8FE3D512ECC4CF759CC79239F7B179B0FFACAA9A75D522B39400F PUSH1 0x0 PUSH1 0x40 MLOAD PUSH3 0x196 SWAP2 SWAP1 PUSH3 0x894 JUMP JUMPDEST PUSH1 0x40 MLOAD DUP1 SWAP2 SUB SWAP1 KECCAK256 PUSH32 0xC89EFDAA54C0F20C7ADF612882DF0950F5A951637E0307CDCB4C672F298B8BC6 CHAINID ADDRESS PUSH1 0x40 MLOAD PUSH1 0x20 ADD PUSH3 0x1D7 SWAP6 SWAP5 SWAP4 SWAP3 SWAP2 SWAP1 PUSH3 0x8EA JUMP JUMPDEST PUSH1 0x40 MLOAD PUSH1 0x20 DUP2 DUP4 SUB SUB DUP2 MSTORE SWAP1 PUSH1 0x40 MSTORE DUP1 MLOAD SWAP1 PUSH1 0x20 ADD KECCAK256 SWAP1 POP SWAP1 JUMP JUMPDEST DUP3 DUP1 SLOAD PUSH3 0x200 SWAP1 PUSH3 0x7B3 JUMP JUMPDEST SWAP1 PUSH1 0x0 MSTORE PUSH1 0x20 PUSH1 0x0 KECCAK256 SWAP1 PUSH1 0x1F ADD PUSH1 0x20 SWAP1 DIV DUP2 ADD SWAP3 DUP3 PUSH3 0x224 JUMPI PUSH1 0x0 DUP6 SSTORE PUSH3 0x270 JUMP JUMPDEST DUP3 PUSH1 0x1F LT PUSH3 0x23F JUMPI DUP1 MLOAD PUSH1 0xFF NOT AND DUP4 DUP1 ADD OR DUP6 SSTORE PUSH3 0x270 JUMP JUMPDEST DUP3 DUP1 ADD PUSH1 0x1 ADD DUP6 SSTORE DUP3 ISZERO PUSH3 0x270 JUMPI SWAP2 DUP3 ADD JUMPDEST DUP3 DUP2 GT ISZERO PUSH3 0x26F JUMPI DUP3 MLOAD DUP3 SSTORE SWAP2 PUSH1 0x20 ADD SWAP2 SWAP1 PUSH1 0x1 ADD SWAP1 PUSH3 0x252 JUMP JUMPDEST JUMPDEST POP SWAP1 POP PUSH3 0x27F SWAP2 SWAP1 PUSH3 0x283 JUMP JUMPDEST POP SWAP1 JUMP JUMPDEST JUMPDEST DUP1 DUP3 GT ISZERO PUSH3 0x29E JUMPI PUSH1 0x0 DUP2 PUSH1 0x0 SWAP1 SSTORE POP PUSH1 0x1 ADD PUSH3 0x284 JUMP JUMPDEST POP SWAP1 JUMP JUMPDEST PUSH1 0x0 PUSH1 0x40 MLOAD SWAP1 POP SWAP1 JUMP JUMPDEST PUSH1 0x0 DUP1 REVERT JUMPDEST PUSH1 0x0 DUP1 REVERT JUMPDEST PUSH1 0x0 PUSH20 0xFFFFFFFFFFFFFFFFFFFFFFFFFFFFFFFFFFFFFFFF DUP3 AND SWAP1 POP SWAP2 SWAP1 POP JUMP JUMPDEST PUSH1 0x0 PUSH3 0x2E3 DUP3 PUSH3 0x2B6 JUMP JUMPDEST SWAP1 POP SWAP2 SWAP1 POP JUMP JUMPDEST PUSH1 0x0 PUSH3 0x2F7 DUP3 PUSH3 0x2D6 JUMP JUMPDEST SWAP1 POP SWAP2 SWAP1 POP JUMP JUMPDEST PUSH3 0x309 DUP2 PUSH3 0x2EA JUMP JUMPDEST DUP2 EQ PUSH3 0x315 JUMPI PUSH1 0x0 DUP1 REVERT JUMPDEST POP JUMP JUMPDEST PUSH1 0x0 DUP2 MLOAD SWAP1 POP PUSH3 0x329 DUP2 PUSH3 0x2FE JUMP JUMPDEST SWAP3 SWAP2 POP POP JUMP JUMPDEST PUSH1 0x0 DUP1 REVERT JUMPDEST PUSH1 0x0 DUP1 REVERT JUMPDEST PUSH1 0x0 PUSH1 0x1F NOT PUSH1 0x1F DUP4 ADD AND SWAP1 POP SWAP2 SWAP1 POP JUMP JUMPDEST PUSH32 0x4E487B7100000000000000000000000000000000000000000000000000000000 PUSH1 0x0 MSTORE PUSH1 0x41 PUSH1 0x4 MSTORE PUSH1 0x24 PUSH1 0x0 REVERT JUMPDEST PUSH3 0x384 DUP3 PUSH3 0x339 JUMP JUMPDEST DUP2 ADD DUP2 DUP2 LT PUSH8 0xFFFFFFFFFFFFFFFF DUP3 GT OR ISZERO PUSH3 0x3A6 JUMPI PUSH3 0x3A5 PUSH3 0x34A JUMP JUMPDEST JUMPDEST DUP1 PUSH1 0x40 MSTORE POP POP POP JUMP JUMPDEST PUSH1 0x0 PUSH3 0x3BB PUSH3 0x2A2 JUMP JUMPDEST SWAP1 POP PUSH3 0x3C9 DUP3 DUP3 PUSH3 0x379 JUMP JUMPDEST SWAP2 SWAP1 POP JUMP JUMPDEST PUSH1 0x0 PUSH8 0xFFFFFFFFFFFFFFFF DUP3 GT ISZERO PUSH3 0x3EC JUMPI PUSH3 0x3EB PUSH3 0x34A JUMP JUMPDEST JUMPDEST PUSH3 0x3F7 DUP3 PUSH3 0x339 JUMP JUMPDEST SWAP1 POP PUSH1 0x20 DUP2 ADD SWAP1 POP SWAP2 SWAP1 POP JUMP JUMPDEST PUSH1 0x0 JUMPDEST DUP4 DUP2 LT ISZERO PUSH3 0x424 JUMPI DUP1 DUP3 ADD MLOAD DUP2 DUP5 ADD MSTORE PUSH1 0x20 DUP2 ADD SWAP1 POP PUSH3 0x407 JUMP JUMPDEST DUP4 DUP2 GT ISZERO PUSH3 0x434 JUMPI PUSH1 0x0 DUP5 DUP5 ADD MSTORE JUMPDEST POP POP POP POP JUMP JUMPDEST PUSH1 0x0 PUSH3 0x451 PUSH3 0x44B DUP5 PUSH3 0x3CE JUMP JUMPDEST PUSH3 0x3AF JUMP JUMPDEST SWAP1 POP DUP3 DUP2 MSTORE PUSH1 0x20 DUP2 ADD DUP5 DUP5 DUP5 ADD GT ISZERO PUSH3 0x470 JUMPI PUSH3 0x46F PUSH3 0x334 JUMP JUMPDEST JUMPDEST PUSH3 0x47D DUP5 DUP3 DUP6 PUSH3 0x404 JUMP JUMPDEST POP SWAP4 SWAP3 POP POP POP JUMP JUMPDEST PUSH1 0x0 DUP3 PUSH1 0x1F DUP4 ADD SLT PUSH3 0x49D JUMPI PUSH3 0x49C PUSH3 0x32F JUMP JUMPDEST JUMPDEST DUP2 MLOAD PUSH3 0x4AF DUP5 DUP3 PUSH1 0x20 DUP7 ADD PUSH3 0x43A JUMP JUMPDEST SWAP2 POP POP SWAP3 SWAP2 POP POP JUMP JUMPDEST PUSH1 0x0 PUSH1 0xFF DUP3 AND SWAP1 POP SWAP2 SWAP1 POP JUMP JUMPDEST PUSH3 0x4D0 DUP2 PUSH3 0x4B8 JUMP JUMPDEST DUP2 EQ PUSH3 0x4DC JUMPI PUSH1 0x0 DUP1 REVERT JUMPDEST POP JUMP JUMPDEST PUSH1 0x0 DUP2 MLOAD SWAP1 POP PUSH3 0x4F0 DUP2 PUSH3 0x4C5 JUMP JUMPDEST SWAP3 SWAP2 POP POP JUMP JUMPDEST PUSH1 0x0 DUP1 PUSH1 0x0 DUP1 PUSH1 0x80 DUP6 DUP8 SUB SLT ISZERO PUSH3 0x513 JUMPI PUSH3 0x512 PUSH3 0x2AC JUMP JUMPDEST JUMPDEST PUSH1 0x0 PUSH3 0x523 DUP8 DUP3 DUP9 ADD PUSH3 0x318 JUMP JUMPDEST SWAP5 POP POP PUSH1 0x20 DUP6 ADD MLOAD PUSH8 0xFFFFFFFFFFFFFFFF DUP2 GT ISZERO PUSH3 0x547 JUMPI PUSH3 0x546 PUSH3 0x2B1 JUMP JUMPDEST JUMPDEST PUSH3 0x555 DUP8 DUP3 DUP9 ADD PUSH3 0x485 JUMP JUMPDEST SWAP4 POP POP PUSH1 0x40 DUP6 ADD MLOAD PUSH8 0xFFFFFFFFFFFFFFFF DUP2 GT ISZERO PUSH3 0x579 JUMPI PUSH3 0x578 PUSH3 0x2B1 JUMP JUMPDEST JUMPDEST PUSH3 0x587 DUP8 DUP3 DUP9 ADD PUSH3 0x485 JUMP JUMPDEST SWAP3 POP POP PUSH1 0x60 PUSH3 0x59A DUP8 DUP3 DUP9 ADD PUSH3 0x4DF JUMP JUMPDEST SWAP2 POP POP SWAP3 SWAP6 SWAP2 SWAP5 POP SWAP3 POP JUMP JUMPDEST PUSH32 0x4E487B7100000000000000000000000000000000000000000000000000000000 PUSH1 0x0 MSTORE PUSH1 0x11 PUSH1 0x4 MSTORE PUSH1 0x24 PUSH1 0x0 REVERT JUMPDEST PUSH1 0x0 DUP2 PUSH1 0x1 SHR SWAP1 POP SWAP2 SWAP1 POP JUMP JUMPDEST PUSH1 0x0 DUP1 DUP3 SWAP2 POP DUP4 SWAP1 POP JUMPDEST PUSH1 0x1 DUP6 GT ISZERO PUSH3 0x634 JUMPI DUP1 DUP7 DIV DUP2 GT ISZERO PUSH3 0x60C JUMPI PUSH3 0x60B PUSH3 0x5A6 JUMP JUMPDEST JUMPDEST PUSH1 0x1 DUP6 AND ISZERO PUSH3 0x61C JUMPI DUP1 DUP3 MUL SWAP2 POP JUMPDEST DUP1 DUP2 MUL SWAP1 POP PUSH3 0x62C DUP6 PUSH3 0x5D5 JUMP JUMPDEST SWAP5 POP PUSH3 0x5EC JUMP JUMPDEST SWAP5 POP SWAP5 SWAP3 POP POP POP JUMP JUMPDEST PUSH1 0x0 DUP3 PUSH3 0x64F JUMPI PUSH1 0x1 SWAP1 POP PUSH3 0x722 JUMP JUMPDEST DUP2 PUSH3 0x65F JUMPI PUSH1 0x0 SWAP1 POP PUSH3 0x722 JUMP JUMPDEST DUP2 PUSH1 0x1 DUP2 EQ PUSH3 0x678 JUMPI PUSH1 0x2 DUP2 EQ PUSH3 0x683 JUMPI PUSH3 0x6B9 JUMP JUMPDEST PUSH1 0x1 SWAP2 POP POP PUSH3 0x722 JUMP JUMPDEST PUSH1 0xFF DUP5 GT ISZERO PUSH3 0x698 JUMPI PUSH3 0x697 PUSH3 0x5A6 JUMP JUMPDEST JUMPDEST DUP4 PUSH1 0x2 EXP SWAP2 POP DUP5 DUP3 GT ISZERO PUSH3 0x6B2 JUMPI PUSH3 0x6B1 PUSH3 0x5A6 JUMP JUMPDEST JUMPDEST POP PUSH3 0x722 JUMP JUMPDEST POP PUSH1 0x20 DUP4 LT PUSH2 0x133 DUP4 LT AND PUSH1 0x4E DUP5 LT PUSH1 0xB DUP5 LT AND OR ISZERO PUSH3 0x6F3 JUMPI DUP3 DUP3 EXP SWAP1 POP DUP4 DUP2 GT ISZERO PUSH3 0x6ED JUMPI PUSH3 0x6EC PUSH3 0x5A6 JUMP JUMPDEST JUMPDEST PUSH3 0x722 JUMP JUMPDEST PUSH3 0x702 DUP5 DUP5 DUP5 PUSH1 0x1 PUSH3 0x5E2 JUMP JUMPDEST SWAP3 POP SWAP1 POP DUP2 DUP5 DIV DUP2 GT ISZERO PUSH3 0x71C JUMPI PUSH3 0x71B PUSH3 0x5A6 JUMP JUMPDEST JUMPDEST DUP2 DUP2 MUL SWAP1 POP JUMPDEST SWAP4 SWAP3 POP POP POP JUMP JUMPDEST PUSH1 0x0 DUP2 SWAP1 POP SWAP2 SWAP1 POP JUMP JUMPDEST PUSH1 0x0 PUSH3 0x740 DUP3 PUSH3 0x729 JUMP JUMPDEST SWAP2 POP PUSH3 0x74D DUP4 PUSH3 0x4B8 JUMP JUMPDEST SWAP3 POP PUSH3 0x77C PUSH32 0xFFFFFFFFFFFFFFFFFFFFFFFFFFFFFFFFFFFFFFFFFFFFFFFFFFFFFFFFFFFFFFFF DUP5 DUP5 PUSH3 0x63D JUMP JUMPDEST SWAP1 POP SWAP3 SWAP2 POP POP JUMP JUMPDEST PUSH32 0x4E487B7100000000000000000000000000000000000000000000000000000000 PUSH1 0x0 MSTORE PUSH1 0x22 PUSH1 0x4 MSTORE PUSH1 0x24 PUSH1 0x0 REVERT JUMPDEST PUSH1 0x0 PUSH1 0x2 DUP3 DIV SWAP1 POP PUSH1 0x1 DUP3 AND DUP1 PUSH3 0x7CC JUMPI PUSH1 0x7F DUP3 AND SWAP2 POP JUMPDEST PUSH1 0x20 DUP3 LT DUP2 EQ ISZERO PUSH3 0x7E3 JUMPI PUSH3 0x7E2 PUSH3 0x784 JUMP JUMPDEST JUMPDEST POP SWAP2 SWAP1 POP JUMP JUMPDEST PUSH1 0x0 DUP2 SWAP1 POP SWAP3 SWAP2 POP POP JUMP JUMPDEST PUSH1 0x0 DUP2 SWAP1 POP DUP2 PUSH1 0x0 MSTORE PUSH1 0x20 PUSH1 0x0 KECCAK256 SWAP1 POP SWAP2 SWAP1 POP JUMP JUMPDEST PUSH1 0x0 DUP2 SLOAD PUSH3 0x818 DUP2 PUSH3 0x7B3 JUMP JUMPDEST PUSH3 0x824 DUP2 DUP7 PUSH3 0x7E9 JUMP JUMPDEST SWAP5 POP PUSH1 0x1 DUP3 AND PUSH1 0x0 DUP2 EQ PUSH3 0x842 JUMPI PUSH1 0x1 DUP2 EQ PUSH3 0x854 JUMPI PUSH3 0x88B JUMP JUMPDEST PUSH1 0xFF NOT DUP4 AND DUP7 MSTORE DUP2 DUP7 ADD SWAP4 POP PUSH3 0x88B JUMP JUMPDEST PUSH3 0x85F DUP6 PUSH3 0x7F4 JUMP JUMPDEST PUSH1 0x0 JUMPDEST DUP4 DUP2 LT ISZERO PUSH3 0x883 JUMPI DUP2 SLOAD DUP2 DUP10 ADD MSTORE PUSH1 0x1 DUP3 ADD SWAP2 POP PUSH1 0x20 DUP2 ADD SWAP1 POP PUSH3 0x862 JUMP JUMPDEST DUP4 DUP9 ADD SWAP6 POP POP POP JUMPDEST POP POP POP SWAP3 SWAP2 POP POP JUMP JUMPDEST PUSH1 0x0 PUSH3 0x8A2 DUP3 DUP5 PUSH3 0x809 JUMP JUMPDEST SWAP2 POP DUP2 SWAP1 POP SWAP3 SWAP2 POP POP JUMP JUMPDEST PUSH1 0x0 DUP2 SWAP1 POP SWAP2 SWAP1 POP JUMP JUMPDEST PUSH3 0x8C2 DUP2 PUSH3 0x8AD JUMP JUMPDEST DUP3 MSTORE POP POP JUMP JUMPDEST PUSH3 0x8D3 DUP2 PUSH3 0x729 JUMP JUMPDEST DUP3 MSTORE POP POP JUMP JUMPDEST PUSH3 0x8E4 DUP2 PUSH3 0x2D6 JUMP JUMPDEST DUP3 MSTORE POP POP JUMP JUMPDEST PUSH1 0x0 PUSH1 0xA0 DUP3 ADD SWAP1 POP PUSH3 0x901 PUSH1 0x0 DUP4 ADD DUP9 PUSH3 0x8B7 JUMP JUMPDEST PUSH3 0x910 PUSH1 0x20 DUP4 ADD DUP8 PUSH3 0x8B7 JUMP JUMPDEST PUSH3 0x91F PUSH1 0x40 DUP4 ADD DUP7 PUSH3 0x8B7 JUMP JUMPDEST PUSH3 0x92E PUSH1 0x60 DUP4 ADD DUP6 PUSH3 0x8C8 JUMP JUMPDEST PUSH3 0x93D PUSH1 0x80 DUP4 ADD DUP5 PUSH3 0x8D9 JUMP JUMPDEST SWAP7 SWAP6 POP POP POP POP POP POP JUMP JUMPDEST PUSH1 0x80 MLOAD PUSH1 0xA0 MLOAD PUSH1 0xC0 MLOAD PUSH1 0xE0 MLOAD PUSH2 0x100 MLOAD PUSH2 0x120 MLOAD PUSH2 0x4058 PUSH3 0x9BE PUSH1 0x0 CODECOPY PUSH1 0x0 DUP2 DUP2 PUSH2 0x110B ADD MSTORE PUSH2 0x2367 ADD MSTORE PUSH1 0x0 POP POP PUSH1 0x0 DUP2 DUP2 PUSH2 0xB7D ADD MSTORE DUP2 DUP2 PUSH2 0x12A6 ADD MSTORE DUP2 DUP2 PUSH2 0x1399 ADD MSTORE DUP2 DUP2 PUSH2 0x1965 ADD MSTORE DUP2 DUP2 PUSH2 0x1F5D ADD MSTORE PUSH2 0x21FC ADD MSTORE PUSH1 0x0 PUSH2 0x127F ADD MSTORE PUSH1 0x0 PUSH2 0x124B ADD MSTORE PUSH1 0x0 PUSH2 0x1068 ADD MSTORE PUSH2 0x4058 PUSH1 0x0 RETURN INVALID PUSH1 0x80 PUSH1 0x40 MSTORE PUSH1 0x4 CALLDATASIZE LT PUSH2 0x281 JUMPI PUSH1 0x0 CALLDATALOAD PUSH1 0xE0 SHR DUP1 PUSH4 0x8BF0A96E GT PUSH2 0x14F JUMPI DUP1 PUSH4 0xC63D75B6 GT PUSH2 0xC1 JUMPI DUP1 PUSH4 0xDD62ED3E GT PUSH2 0x7A JUMPI DUP1 PUSH4 0xDD62ED3E EQ PUSH2 0xA55 JUMPI DUP1 PUSH4 0xECAD9565 EQ PUSH2 0xA92 JUMPI DUP1 PUSH4 0xEF8B30F7 EQ PUSH2 0xABD JUMPI DUP1 PUSH4 0xF2FDE38B EQ PUSH2 0xAFA JUMPI DUP1 PUSH4 0xF84D73F4 EQ PUSH2 0xB23 JUMPI DUP1 PUSH4 0xFC407AE7 EQ PUSH2 0xB4E JUMPI PUSH2 0x288 JUMP JUMPDEST DUP1 PUSH4 0xC63D75B6 EQ PUSH2 0x90D JUMPI DUP1 PUSH4 0xC6E6F592 EQ PUSH2 0x94A JUMPI DUP1 PUSH4 0xCE96CB77 EQ PUSH2 0x987 JUMPI DUP1 PUSH4 0xD505ACCF EQ PUSH2 0x9C4 JUMPI DUP1 PUSH4 0xD905777E EQ PUSH2 0x9ED JUMPI DUP1 PUSH4 0xDC9A1535 EQ PUSH2 0xA2A JUMPI PUSH2 0x288 JUMP JUMPDEST DUP1 PUSH4 0xB3D7F6B9 GT PUSH2 0x113 JUMPI DUP1 PUSH4 0xB3D7F6B9 EQ PUSH2 0x7D7 JUMPI DUP1 PUSH4 0xB460AF94 EQ PUSH2 0x814 JUMPI DUP1 PUSH4 0xBA087652 EQ PUSH2 0x851 JUMPI DUP1 PUSH4 0xBC368A8A EQ PUSH2 0x88E JUMPI DUP1 PUSH4 0xBD662F88 EQ PUSH2 0x8B9 JUMPI DUP1 PUSH4 0xC5D664C6 EQ PUSH2 0x8E2 JUMPI PUSH2 0x288 JUMP JUMPDEST DUP1 PUSH4 0x8BF0A96E EQ PUSH2 0x6E0 JUMPI DUP1 PUSH4 0x94BF804D EQ PUSH2 0x709 JUMPI DUP1 PUSH4 0x95D89B41 EQ PUSH2 0x746 JUMPI DUP1 PUSH4 0xA9059CBB EQ PUSH2 0x771 JUMPI DUP1 PUSH4 0xAC68A748 EQ PUSH2 0x7AE JUMPI PUSH2 0x288 JUMP JUMPDEST DUP1 PUSH4 0x38D52E0F GT PUSH2 0x1F3 JUMPI DUP1 PUSH4 0x70A08231 GT PUSH2 0x1AC JUMPI DUP1 PUSH4 0x70A08231 EQ PUSH2 0x5E4 JUMPI DUP1 PUSH4 0x715018A6 EQ PUSH2 0x621 JUMPI DUP1 PUSH4 0x7CE3489B EQ PUSH2 0x638 JUMPI DUP1 PUSH4 0x7ECEBE00 EQ PUSH2 0x661 JUMPI DUP1 PUSH4 0x7FD6F15C EQ PUSH2 0x69E JUMPI DUP1 PUSH4 0x83197EF0 EQ PUSH2 0x6C9 JUMPI PUSH2 0x288 JUMP JUMPDEST DUP1 PUSH4 0x38D52E0F EQ PUSH2 0x4AC JUMPI DUP1 PUSH4 0x392E53CD EQ PUSH2 0x4D7 JUMPI DUP1 PUSH4 0x402D267D EQ PUSH2 0x502 JUMPI DUP1 PUSH4 0x481C6A75 EQ PUSH2 0x53F JUMPI DUP1 PUSH4 0x4CDAD506 EQ PUSH2 0x56A JUMPI DUP1 PUSH4 0x6E553F65 EQ PUSH2 0x5A7 JUMPI PUSH2 0x288 JUMP JUMPDEST DUP1 PUSH4 0x18160DDD GT PUSH2 0x245 JUMPI DUP1 PUSH4 0x18160DDD EQ PUSH2 0x39A JUMPI DUP1 PUSH4 0x1C693478 EQ PUSH2 0x3C5 JUMPI DUP1 PUSH4 0x23B872DD EQ PUSH2 0x3F0 JUMPI DUP1 PUSH4 0x313CE567 EQ PUSH2 0x42D JUMPI DUP1 PUSH4 0x32FF7732 EQ PUSH2 0x458 JUMPI DUP1 PUSH4 0x3644E515 EQ PUSH2 0x481 JUMPI PUSH2 0x288 JUMP JUMPDEST DUP1 PUSH4 0x1E1D114 EQ PUSH2 0x28D JUMPI DUP1 PUSH4 0x6FDDE03 EQ PUSH2 0x2B8 JUMPI DUP1 PUSH4 0x7A2D13A EQ PUSH2 0x2E3 JUMPI DUP1 PUSH4 0x95EA7B3 EQ PUSH2 0x320 JUMPI DUP1 PUSH4 0xA28A477 EQ PUSH2 0x35D JUMPI PUSH2 0x288 JUMP JUMPDEST CALLDATASIZE PUSH2 0x288 JUMPI STOP JUMPDEST PUSH1 0x0 DUP1 REVERT JUMPDEST CALLVALUE DUP1 ISZERO PUSH2 0x299 JUMPI PUSH1 0x0 DUP1 REVERT JUMPDEST POP PUSH2 0x2A2 PUSH2 0xB79 JUMP JUMPDEST PUSH1 0x40 MLOAD PUSH2 0x2AF SWAP2 SWAP1 PUSH2 0x2ED1 JUMP JUMPDEST PUSH1 0x40 MLOAD DUP1 SWAP2 SUB SWAP1 RETURN JUMPDEST CALLVALUE DUP1 ISZERO PUSH2 0x2C4 JUMPI PUSH1 0x0 DUP1 REVERT JUMPDEST POP PUSH2 0x2CD PUSH2 0xC1A JUMP JUMPDEST PUSH1 0x40 MLOAD PUSH2 0x2DA SWAP2 SWAP1 PUSH2 0x2F85 JUMP JUMPDEST PUSH1 0x40 MLOAD DUP1 SWAP2 SUB SWAP1 RETURN JUMPDEST CALLVALUE DUP1 ISZERO PUSH2 0x2EF JUMPI PUSH1 0x0 DUP1 REVERT JUMPDEST POP PUSH2 0x30A PUSH1 0x4 DUP1 CALLDATASIZE SUB DUP2 ADD SWAP1 PUSH2 0x305 SWAP2 SWAP1 PUSH2 0x2FD8 JUMP JUMPDEST PUSH2 0xCA8 JUMP JUMPDEST PUSH1 0x40 MLOAD PUSH2 0x317 SWAP2 SWAP1 PUSH2 0x2ED1 JUMP JUMPDEST PUSH1 0x40 MLOAD DUP1 SWAP2 SUB SWAP1 RETURN JUMPDEST CALLVALUE DUP1 ISZERO PUSH2 0x32C JUMPI PUSH1 0x0 DUP1 REVERT JUMPDEST POP PUSH2 0x347 PUSH1 0x4 DUP1 CALLDATASIZE SUB DUP2 ADD SWAP1 PUSH2 0x342 SWAP2 SWAP1 PUSH2 0x3063 JUMP JUMPDEST PUSH2 0xCE3 JUMP JUMPDEST PUSH1 0x40 MLOAD PUSH2 0x354 SWAP2 SWAP1 PUSH2 0x30BE JUMP JUMPDEST PUSH1 0x40 MLOAD DUP1 SWAP2 SUB SWAP1 RETURN JUMPDEST CALLVALUE DUP1 ISZERO PUSH2 0x369 JUMPI PUSH1 0x0 DUP1 REVERT JUMPDEST POP PUSH2 0x384 PUSH1 0x4 DUP1 CALLDATASIZE SUB DUP2 ADD SWAP1 PUSH2 0x37F SWAP2 SWAP1 PUSH2 0x2FD8 JUMP JUMPDEST PUSH2 0xDD5 JUMP JUMPDEST PUSH1 0x40 MLOAD PUSH2 0x391 SWAP2 SWAP1 PUSH2 0x2ED1 JUMP JUMPDEST PUSH1 0x40 MLOAD DUP1 SWAP2 SUB SWAP1 RETURN JUMPDEST CALLVALUE DUP1 ISZERO PUSH2 0x3A6 JUMPI PUSH1 0x0 DUP1 REVERT JUMPDEST POP PUSH2 0x3AF PUSH2 0xE10 JUMP JUMPDEST PUSH1 0x40 MLOAD PUSH2 0x3BC SWAP2 SWAP1 PUSH2 0x2ED1 JUMP JUMPDEST PUSH1 0x40 MLOAD DUP1 SWAP2 SUB SWAP1 RETURN JUMPDEST CALLVALUE DUP1 ISZERO PUSH2 0x3D1 JUMPI PUSH1 0x0 DUP1 REVERT JUMPDEST POP PUSH2 0x3DA PUSH2 0xE16 JUMP JUMPDEST PUSH1 0x40 MLOAD PUSH2 0x3E7 SWAP2 SWAP1 PUSH2 0x2ED1 JUMP JUMPDEST PUSH1 0x40 MLOAD DUP1 SWAP2 SUB SWAP1 RETURN JUMPDEST CALLVALUE DUP1 ISZERO PUSH2 0x3FC JUMPI PUSH1 0x0 DUP1 REVERT JUMPDEST POP PUSH2 0x417 PUSH1 0x4 DUP1 CALLDATASIZE SUB DUP2 ADD SWAP1 PUSH2 0x412 SWAP2 SWAP1 PUSH2 0x30D9 JUMP JUMPDEST PUSH2 0xE1C JUMP JUMPDEST PUSH1 0x40 MLOAD PUSH2 0x424 SWAP2 SWAP1 PUSH2 0x30BE JUMP JUMPDEST PUSH1 0x40 MLOAD DUP1 SWAP2 SUB SWAP1 RETURN JUMPDEST CALLVALUE DUP1 ISZERO PUSH2 0x439 JUMPI PUSH1 0x0 DUP1 REVERT JUMPDEST POP PUSH2 0x442 PUSH2 0x1066 JUMP JUMPDEST PUSH1 0x40 MLOAD PUSH2 0x44F SWAP2 SWAP1 PUSH2 0x3148 JUMP JUMPDEST PUSH1 0x40 MLOAD DUP1 SWAP2 SUB SWAP1 RETURN JUMPDEST CALLVALUE DUP1 ISZERO PUSH2 0x464 JUMPI PUSH1 0x0 DUP1 REVERT JUMPDEST POP PUSH2 0x47F PUSH1 0x4 DUP1 CALLDATASIZE SUB DUP2 ADD SWAP1 PUSH2 0x47A SWAP2 SWAP1 PUSH2 0x318F JUMP JUMPDEST PUSH2 0x108A JUMP JUMPDEST STOP JUMPDEST CALLVALUE DUP1 ISZERO PUSH2 0x48D JUMPI PUSH1 0x0 DUP1 REVERT JUMPDEST POP PUSH2 0x496 PUSH2 0x1247 JUMP JUMPDEST PUSH1 0x40 MLOAD PUSH2 0x4A3 SWAP2 SWAP1 PUSH2 0x31D5 JUMP JUMPDEST PUSH1 0x40 MLOAD DUP1 SWAP2 SUB SWAP1 RETURN JUMPDEST CALLVALUE DUP1 ISZERO PUSH2 0x4B8 JUMPI PUSH1 0x0 DUP1 REVERT JUMPDEST POP PUSH2 0x4C1 PUSH2 0x12A4 JUMP JUMPDEST PUSH1 0x40 MLOAD PUSH2 0x4CE SWAP2 SWAP1 PUSH2 0x324F JUMP JUMPDEST PUSH1 0x40 MLOAD DUP1 SWAP2 SUB SWAP1 RETURN JUMPDEST CALLVALUE DUP1 ISZERO PUSH2 0x4E3 JUMPI PUSH1 0x0 DUP1 REVERT JUMPDEST POP PUSH2 0x4EC PUSH2 0x12C8 JUMP JUMPDEST PUSH1 0x40 MLOAD PUSH2 0x4F9 SWAP2 SWAP1 PUSH2 0x30BE JUMP JUMPDEST PUSH1 0x40 MLOAD DUP1 SWAP2 SUB SWAP1 RETURN JUMPDEST CALLVALUE DUP1 ISZERO PUSH2 0x50E JUMPI PUSH1 0x0 DUP1 REVERT JUMPDEST POP PUSH2 0x529 PUSH1 0x4 DUP1 CALLDATASIZE SUB DUP2 ADD SWAP1 PUSH2 0x524 SWAP2 SWAP1 PUSH2 0x326A JUMP JUMPDEST PUSH2 0x12DB JUMP JUMPDEST PUSH1 0x40 MLOAD PUSH2 0x536 SWAP2 SWAP1 PUSH2 0x2ED1 JUMP JUMPDEST PUSH1 0x40 MLOAD DUP1 SWAP2 SUB SWAP1 RETURN JUMPDEST CALLVALUE DUP1 ISZERO PUSH2 0x54B JUMPI PUSH1 0x0 DUP1 REVERT JUMPDEST POP PUSH2 0x554 PUSH2 0x1305 JUMP JUMPDEST PUSH1 0x40 MLOAD PUSH2 0x561 SWAP2 SWAP1 PUSH2 0x32A6 JUMP JUMPDEST PUSH1 0x40 MLOAD DUP1 SWAP2 SUB SWAP1 RETURN JUMPDEST CALLVALUE DUP1 ISZERO PUSH2 0x576 JUMPI PUSH1 0x0 DUP1 REVERT JUMPDEST POP PUSH2 0x591 PUSH1 0x4 DUP1 CALLDATASIZE SUB DUP2 ADD SWAP1 PUSH2 0x58C SWAP2 SWAP1 PUSH2 0x2FD8 JUMP JUMPDEST PUSH2 0x132F JUMP JUMPDEST PUSH1 0x40 MLOAD PUSH2 0x59E SWAP2 SWAP1 PUSH2 0x2ED1 JUMP JUMPDEST PUSH1 0x40 MLOAD DUP1 SWAP2 SUB SWAP1 RETURN JUMPDEST CALLVALUE DUP1 ISZERO PUSH2 0x5B3 JUMPI PUSH1 0x0 DUP1 REVERT JUMPDEST POP PUSH2 0x5CE PUSH1 0x4 DUP1 CALLDATASIZE SUB DUP2 ADD SWAP1 PUSH2 0x5C9 SWAP2 SWAP1 PUSH2 0x32C1 JUMP JUMPDEST PUSH2 0x1341 JUMP JUMPDEST PUSH1 0x40 MLOAD PUSH2 0x5DB SWAP2 SWAP1 PUSH2 0x2ED1 JUMP JUMPDEST PUSH1 0x40 MLOAD DUP1 SWAP2 SUB SWAP1 RETURN JUMPDEST CALLVALUE DUP1 ISZERO PUSH2 0x5F0 JUMPI PUSH1 0x0 DUP1 REVERT JUMPDEST POP PUSH2 0x60B PUSH1 0x4 DUP1 CALLDATASIZE SUB DUP2 ADD SWAP1 PUSH2 0x606 SWAP2 SWAP1 PUSH2 0x326A JUMP JUMPDEST PUSH2 0x145F JUMP JUMPDEST PUSH1 0x40 MLOAD PUSH2 0x618 SWAP2 SWAP1 PUSH2 0x2ED1 JUMP JUMPDEST PUSH1 0x40 MLOAD DUP1 SWAP2 SUB SWAP1 RETURN JUMPDEST CALLVALUE DUP1 ISZERO PUSH2 0x62D JUMPI PUSH1 0x0 DUP1 REVERT JUMPDEST POP PUSH2 0x636 PUSH2 0x1477 JUMP JUMPDEST STOP JUMPDEST CALLVALUE DUP1 ISZERO PUSH2 0x644 JUMPI PUSH1 0x0 DUP1 REVERT JUMPDEST POP PUSH2 0x65F PUSH1 0x4 DUP1 CALLDATASIZE SUB DUP2 ADD SWAP1 PUSH2 0x65A SWAP2 SWAP1 PUSH2 0x2FD8 JUMP JUMPDEST PUSH2 0x15AD JUMP JUMPDEST STOP JUMPDEST CALLVALUE DUP1 ISZERO PUSH2 0x66D JUMPI PUSH1 0x0 DUP1 REVERT JUMPDEST POP PUSH2 0x688 PUSH1 0x4 DUP1 CALLDATASIZE SUB DUP2 ADD SWAP1 PUSH2 0x683 SWAP2 SWAP1 PUSH2 0x326A JUMP JUMPDEST PUSH2 0x16C5 JUMP JUMPDEST PUSH1 0x40 MLOAD PUSH2 0x695 SWAP2 SWAP1 PUSH2 0x2ED1 JUMP JUMPDEST PUSH1 0x40 MLOAD DUP1 SWAP2 SUB SWAP1 RETURN JUMPDEST CALLVALUE DUP1 ISZERO PUSH2 0x6AA JUMPI PUSH1 0x0 DUP1 REVERT JUMPDEST POP PUSH2 0x6B3 PUSH2 0x16DD JUMP JUMPDEST PUSH1 0x40 MLOAD PUSH2 0x6C0 SWAP2 SWAP1 PUSH2 0x2ED1 JUMP JUMPDEST PUSH1 0x40 MLOAD DUP1 SWAP2 SUB SWAP1 RETURN JUMPDEST CALLVALUE DUP1 ISZERO PUSH2 0x6D5 JUMPI PUSH1 0x0 DUP1 REVERT JUMPDEST POP PUSH2 0x6DE PUSH2 0x16E3 JUMP JUMPDEST STOP JUMPDEST CALLVALUE DUP1 ISZERO PUSH2 0x6EC JUMPI PUSH1 0x0 DUP1 REVERT JUMPDEST POP PUSH2 0x707 PUSH1 0x4 DUP1 CALLDATASIZE SUB DUP2 ADD SWAP1 PUSH2 0x702 SWAP2 SWAP1 PUSH2 0x332D JUMP JUMPDEST PUSH2 0x1771 JUMP JUMPDEST STOP JUMPDEST CALLVALUE DUP1 ISZERO PUSH2 0x715 JUMPI PUSH1 0x0 DUP1 REVERT JUMPDEST POP PUSH2 0x730 PUSH1 0x4 DUP1 CALLDATASIZE SUB DUP2 ADD SWAP1 PUSH2 0x72B SWAP2 SWAP1 PUSH2 0x32C1 JUMP JUMPDEST PUSH2 0x1950 JUMP JUMPDEST PUSH1 0x40 MLOAD PUSH2 0x73D SWAP2 SWAP1 PUSH2 0x2ED1 JUMP JUMPDEST PUSH1 0x40 MLOAD DUP1 SWAP2 SUB SWAP1 RETURN JUMPDEST CALLVALUE DUP1 ISZERO PUSH2 0x752 JUMPI PUSH1 0x0 DUP1 REVERT JUMPDEST POP PUSH2 0x75B PUSH2 0x1A2B JUMP JUMPDEST PUSH1 0x40 MLOAD PUSH2 0x768 SWAP2 SWAP1 PUSH2 0x2F85 JUMP JUMPDEST PUSH1 0x40 MLOAD DUP1 SWAP2 SUB SWAP1 RETURN JUMPDEST CALLVALUE DUP1 ISZERO PUSH2 0x77D JUMPI PUSH1 0x0 DUP1 REVERT JUMPDEST POP PUSH2 0x798 PUSH1 0x4 DUP1 CALLDATASIZE SUB DUP2 ADD SWAP1 PUSH2 0x793 SWAP2 SWAP1 PUSH2 0x3063 JUMP JUMPDEST PUSH2 0x1AB9 JUMP JUMPDEST PUSH1 0x40 MLOAD PUSH2 0x7A5 SWAP2 SWAP1 PUSH2 0x30BE JUMP JUMPDEST PUSH1 0x40 MLOAD DUP1 SWAP2 SUB SWAP1 RETURN JUMPDEST CALLVALUE DUP1 ISZERO PUSH2 0x7BA JUMPI PUSH1 0x0 DUP1 REVERT JUMPDEST POP PUSH2 0x7D5 PUSH1 0x4 DUP1 CALLDATASIZE SUB DUP2 ADD SWAP1 PUSH2 0x7D0 SWAP2 SWAP1 PUSH2 0x2FD8 JUMP JUMPDEST PUSH2 0x1BCD JUMP JUMPDEST STOP JUMPDEST CALLVALUE DUP1 ISZERO PUSH2 0x7E3 JUMPI PUSH1 0x0 DUP1 REVERT JUMPDEST POP PUSH2 0x7FE PUSH1 0x4 DUP1 CALLDATASIZE SUB DUP2 ADD SWAP1 PUSH2 0x7F9 SWAP2 SWAP1 PUSH2 0x2FD8 JUMP JUMPDEST PUSH2 0x1D12 JUMP JUMPDEST PUSH1 0x40 MLOAD PUSH2 0x80B SWAP2 SWAP1 PUSH2 0x2ED1 JUMP JUMPDEST PUSH1 0x40 MLOAD DUP1 SWAP2 SUB SWAP1 RETURN JUMPDEST CALLVALUE DUP1 ISZERO PUSH2 0x820 JUMPI PUSH1 0x0 DUP1 REVERT JUMPDEST POP PUSH2 0x83B PUSH1 0x4 DUP1 CALLDATASIZE SUB DUP2 ADD SWAP1 PUSH2 0x836 SWAP2 SWAP1 PUSH2 0x336D JUMP JUMPDEST PUSH2 0x1D4D JUMP JUMPDEST PUSH1 0x40 MLOAD PUSH2 0x848 SWAP2 SWAP1 PUSH2 0x2ED1 JUMP JUMPDEST PUSH1 0x40 MLOAD DUP1 SWAP2 SUB SWAP1 RETURN JUMPDEST CALLVALUE DUP1 ISZERO PUSH2 0x85D JUMPI PUSH1 0x0 DUP1 REVERT JUMPDEST POP PUSH2 0x878 PUSH1 0x4 DUP1 CALLDATASIZE SUB DUP2 ADD SWAP1 PUSH2 0x873 SWAP2 SWAP1 PUSH2 0x336D JUMP JUMPDEST PUSH2 0x1FA8 JUMP JUMPDEST PUSH1 0x40 MLOAD PUSH2 0x885 SWAP2 SWAP1 PUSH2 0x2ED1 JUMP JUMPDEST PUSH1 0x40 MLOAD DUP1 SWAP2 SUB SWAP1 RETURN JUMPDEST CALLVALUE DUP1 ISZERO PUSH2 0x89A JUMPI PUSH1 0x0 DUP1 REVERT JUMPDEST POP PUSH2 0x8A3 PUSH2 0x2247 JUMP JUMPDEST PUSH1 0x40 MLOAD PUSH2 0x8B0 SWAP2 SWAP1 PUSH2 0x2ED1 JUMP JUMPDEST PUSH1 0x40 MLOAD DUP1 SWAP2 SUB SWAP1 RETURN JUMPDEST CALLVALUE DUP1 ISZERO PUSH2 0x8C5 JUMPI PUSH1 0x0 DUP1 REVERT JUMPDEST POP PUSH2 0x8E0 PUSH1 0x4 DUP1 CALLDATASIZE SUB DUP2 ADD SWAP1 PUSH2 0x8DB SWAP2 SWAP1 PUSH2 0x2FD8 JUMP JUMPDEST PUSH2 0x224D JUMP JUMPDEST STOP JUMPDEST CALLVALUE DUP1 ISZERO PUSH2 0x8EE JUMPI PUSH1 0x0 DUP1 REVERT JUMPDEST POP PUSH2 0x8F7 PUSH2 0x2365 JUMP JUMPDEST PUSH1 0x40 MLOAD PUSH2 0x904 SWAP2 SWAP1 PUSH2 0x324F JUMP JUMPDEST PUSH1 0x40 MLOAD DUP1 SWAP2 SUB SWAP1 RETURN JUMPDEST CALLVALUE DUP1 ISZERO PUSH2 0x919 JUMPI PUSH1 0x0 DUP1 REVERT JUMPDEST POP PUSH2 0x934 PUSH1 0x4 DUP1 CALLDATASIZE SUB DUP2 ADD SWAP1 PUSH2 0x92F SWAP2 SWAP1 PUSH2 0x326A JUMP JUMPDEST PUSH2 0x2389 JUMP JUMPDEST PUSH1 0x40 MLOAD PUSH2 0x941 SWAP2 SWAP1 PUSH2 0x2ED1 JUMP JUMPDEST PUSH1 0x40 MLOAD DUP1 SWAP2 SUB SWAP1 RETURN JUMPDEST CALLVALUE DUP1 ISZERO PUSH2 0x956 JUMPI PUSH1 0x0 DUP1 REVERT JUMPDEST POP PUSH2 0x971 PUSH1 0x4 DUP1 CALLDATASIZE SUB DUP2 ADD SWAP1 PUSH2 0x96C SWAP2 SWAP1 PUSH2 0x2FD8 JUMP JUMPDEST PUSH2 0x23B3 JUMP JUMPDEST PUSH1 0x40 MLOAD PUSH2 0x97E SWAP2 SWAP1 PUSH2 0x2ED1 JUMP JUMPDEST PUSH1 0x40 MLOAD DUP1 SWAP2 SUB SWAP1 RETURN JUMPDEST CALLVALUE DUP1 ISZERO PUSH2 0x993 JUMPI PUSH1 0x0 DUP1 REVERT JUMPDEST POP PUSH2 0x9AE PUSH1 0x4 DUP1 CALLDATASIZE SUB DUP2 ADD SWAP1 PUSH2 0x9A9 SWAP2 SWAP1 PUSH2 0x326A JUMP JUMPDEST PUSH2 0x23EE JUMP JUMPDEST PUSH1 0x40 MLOAD PUSH2 0x9BB SWAP2 SWAP1 PUSH2 0x2ED1 JUMP JUMPDEST PUSH1 0x40 MLOAD DUP1 SWAP2 SUB SWAP1 RETURN JUMPDEST CALLVALUE DUP1 ISZERO PUSH2 0x9D0 JUMPI PUSH1 0x0 DUP1 REVERT JUMPDEST POP PUSH2 0x9EB PUSH1 0x4 DUP1 CALLDATASIZE SUB DUP2 ADD SWAP1 PUSH2 0x9E6 SWAP2 SWAP1 PUSH2 0x3418 JUMP JUMPDEST PUSH2 0x243F JUMP JUMPDEST STOP JUMPDEST CALLVALUE DUP1 ISZERO PUSH2 0x9F9 JUMPI PUSH1 0x0 DUP1 REVERT JUMPDEST POP PUSH2 0xA14 PUSH1 0x4 DUP1 CALLDATASIZE SUB DUP2 ADD SWAP1 PUSH2 0xA0F SWAP2 SWAP1 PUSH2 0x326A JUMP JUMPDEST PUSH2 0x2738 JUMP JUMPDEST PUSH1 0x40 MLOAD PUSH2 0xA21 SWAP2 SWAP1 PUSH2 0x2ED1 JUMP JUMPDEST PUSH1 0x40 MLOAD DUP1 SWAP2 SUB SWAP1 RETURN JUMPDEST CALLVALUE DUP1 ISZERO PUSH2 0xA36 JUMPI PUSH1 0x0 DUP1 REVERT JUMPDEST POP PUSH2 0xA3F PUSH2 0x2781 JUMP JUMPDEST PUSH1 0x40 MLOAD PUSH2 0xA4C SWAP2 SWAP1 PUSH2 0x30BE JUMP JUMPDEST PUSH1 0x40 MLOAD DUP1 SWAP2 SUB SWAP1 RETURN JUMPDEST CALLVALUE DUP1 ISZERO PUSH2 0xA61 JUMPI PUSH1 0x0 DUP1 REVERT JUMPDEST POP PUSH2 0xA7C PUSH1 0x4 DUP1 CALLDATASIZE SUB DUP2 ADD SWAP1 PUSH2 0xA77 SWAP2 SWAP1 PUSH2 0x34BA JUMP JUMPDEST PUSH2 0x2794 JUMP JUMPDEST PUSH1 0x40 MLOAD PUSH2 0xA89 SWAP2 SWAP1 PUSH2 0x2ED1 JUMP JUMPDEST PUSH1 0x40 MLOAD DUP1 SWAP2 SUB SWAP1 RETURN JUMPDEST CALLVALUE DUP1 ISZERO PUSH2 0xA9E JUMPI PUSH1 0x0 DUP1 REVERT JUMPDEST POP PUSH2 0xAA7 PUSH2 0x27B9 JUMP JUMPDEST PUSH1 0x40 MLOAD PUSH2 0xAB4 SWAP2 SWAP1 PUSH2 0x2ED1 JUMP JUMPDEST PUSH1 0x40 MLOAD DUP1 SWAP2 SUB SWAP1 RETURN JUMPDEST CALLVALUE DUP1 ISZERO PUSH2 0xAC9 JUMPI PUSH1 0x0 DUP1 REVERT JUMPDEST POP PUSH2 0xAE4 PUSH1 0x4 DUP1 CALLDATASIZE SUB DUP2 ADD SWAP1 PUSH2 0xADF SWAP2 SWAP1 PUSH2 0x2FD8 JUMP JUMPDEST PUSH2 0x27BF JUMP JUMPDEST PUSH1 0x40 MLOAD PUSH2 0xAF1 SWAP2 SWAP1 PUSH2 0x2ED1 JUMP JUMPDEST PUSH1 0x40 MLOAD DUP1 SWAP2 SUB SWAP1 RETURN JUMPDEST CALLVALUE DUP1 ISZERO PUSH2 0xB06 JUMPI PUSH1 0x0 DUP1 REVERT JUMPDEST POP PUSH2 0xB21 PUSH1 0x4 DUP1 CALLDATASIZE SUB DUP2 ADD SWAP1 PUSH2 0xB1C SWAP2 SWAP1 PUSH2 0x326A JUMP JUMPDEST PUSH2 0x27D1 JUMP JUMPDEST STOP JUMPDEST CALLVALUE DUP1 ISZERO PUSH2 0xB2F JUMPI PUSH1 0x0 DUP1 REVERT JUMPDEST POP PUSH2 0xB38 PUSH2 0x2976 JUMP JUMPDEST PUSH1 0x40 MLOAD PUSH2 0xB45 SWAP2 SWAP1 PUSH2 0x30BE JUMP JUMPDEST PUSH1 0x40 MLOAD DUP1 SWAP2 SUB SWAP1 RETURN JUMPDEST CALLVALUE DUP1 ISZERO PUSH2 0xB5A JUMPI PUSH1 0x0 DUP1 REVERT JUMPDEST POP PUSH2 0xB63 PUSH2 0x2989 JUMP JUMPDEST PUSH1 0x40 MLOAD PUSH2 0xB70 SWAP2 SWAP1 PUSH2 0x2ED1 JUMP JUMPDEST PUSH1 0x40 MLOAD DUP1 SWAP2 SUB SWAP1 RETURN JUMPDEST PUSH1 0x0 PUSH32 0x0 PUSH20 0xFFFFFFFFFFFFFFFFFFFFFFFFFFFFFFFFFFFFFFFF AND PUSH4 0x70A08231 ADDRESS PUSH1 0x40 MLOAD DUP3 PUSH4 0xFFFFFFFF AND PUSH1 0xE0 SHL DUP2 MSTORE PUSH1 0x4 ADD PUSH2 0xBD4 SWAP2 SWAP1 PUSH2 0x32A6 JUMP JUMPDEST PUSH1 0x20 PUSH1 0x40 MLOAD DUP1 DUP4 SUB DUP2 DUP7 GAS STATICCALL ISZERO DUP1 ISZERO PUSH2 0xBF1 JUMPI RETURNDATASIZE PUSH1 0x0 DUP1 RETURNDATACOPY RETURNDATASIZE PUSH1 0x0 REVERT JUMPDEST POP POP POP POP PUSH1 0x40 MLOAD RETURNDATASIZE PUSH1 0x1F NOT PUSH1 0x1F DUP3 ADD AND DUP3 ADD DUP1 PUSH1 0x40 MSTORE POP DUP2 ADD SWAP1 PUSH2 0xC15 SWAP2 SWAP1 PUSH2 0x350F JUMP JUMPDEST SWAP1 POP SWAP1 JUMP JUMPDEST PUSH1 0x0 DUP1 SLOAD PUSH2 0xC27 SWAP1 PUSH2 0x356B JUMP JUMPDEST DUP1 PUSH1 0x1F ADD PUSH1 0x20 DUP1 SWAP2 DIV MUL PUSH1 0x20 ADD PUSH1 0x40 MLOAD SWAP1 DUP2 ADD PUSH1 0x40 MSTORE DUP1 SWAP3 SWAP2 SWAP1 DUP2 DUP2 MSTORE PUSH1 0x20 ADD DUP3 DUP1 SLOAD PUSH2 0xC53 SWAP1 PUSH2 0x356B JUMP JUMPDEST DUP1 ISZERO PUSH2 0xCA0 JUMPI DUP1 PUSH1 0x1F LT PUSH2 0xC75 JUMPI PUSH2 0x100 DUP1 DUP4 SLOAD DIV MUL DUP4 MSTORE SWAP2 PUSH1 0x20 ADD SWAP2 PUSH2 0xCA0 JUMP JUMPDEST DUP3 ADD SWAP2 SWAP1 PUSH1 0x0 MSTORE PUSH1 0x20 PUSH1 0x0 KECCAK256 SWAP1 JUMPDEST DUP2 SLOAD DUP2 MSTORE SWAP1 PUSH1 0x1 ADD SWAP1 PUSH1 0x20 ADD DUP1 DUP4 GT PUSH2 0xC83 JUMPI DUP3 SWAP1 SUB PUSH1 0x1F AND DUP3 ADD SWAP2 JUMPDEST POP POP POP POP POP DUP2 JUMP JUMPDEST PUSH1 0x0 DUP1 PUSH1 0x2 SLOAD SWAP1 POP PUSH1 0x0 DUP2 EQ PUSH2 0xCD9 JUMPI PUSH2 0xCD4 PUSH2 0xCC3 PUSH2 0xB79 JUMP JUMPDEST DUP3 DUP6 PUSH2 0x298F SWAP1 SWAP3 SWAP2 SWAP1 PUSH4 0xFFFFFFFF AND JUMP JUMPDEST PUSH2 0xCDB JUMP JUMPDEST DUP3 JUMPDEST SWAP2 POP POP SWAP2 SWAP1 POP JUMP JUMPDEST PUSH1 0x0 DUP2 PUSH1 0x4 PUSH1 0x0 CALLER PUSH20 0xFFFFFFFFFFFFFFFFFFFFFFFFFFFFFFFFFFFFFFFF AND PUSH20 0xFFFFFFFFFFFFFFFFFFFFFFFFFFFFFFFFFFFFFFFF AND DUP2 MSTORE PUSH1 0x20 ADD SWAP1 DUP2 MSTORE PUSH1 0x20 ADD PUSH1 0x0 KECCAK256 PUSH1 0x0 DUP6 PUSH20 0xFFFFFFFFFFFFFFFFFFFFFFFFFFFFFFFFFFFFFFFF AND PUSH20 0xFFFFFFFFFFFFFFFFFFFFFFFFFFFFFFFFFFFFFFFF AND DUP2 MSTORE PUSH1 0x20 ADD SWAP1 DUP2 MSTORE PUSH1 0x20 ADD PUSH1 0x0 KECCAK256 DUP2 SWAP1 SSTORE POP DUP3 PUSH20 0xFFFFFFFFFFFFFFFFFFFFFFFFFFFFFFFFFFFFFFFF AND CALLER PUSH20 0xFFFFFFFFFFFFFFFFFFFFFFFFFFFFFFFFFFFFFFFF AND PUSH32 0x8C5BE1E5EBEC7D5BD14F71427D1E84F3DD0314C0F7B2291E5B200AC8C7C3B925 DUP5 PUSH1 0x40 MLOAD PUSH2 0xDC3 SWAP2 SWAP1 PUSH2 0x2ED1 JUMP JUMPDEST PUSH1 0x40 MLOAD DUP1 SWAP2 SUB SWAP1 LOG3 PUSH1 0x1 SWAP1 POP SWAP3 SWAP2 POP POP JUMP JUMPDEST PUSH1 0x0 DUP1 PUSH1 0x2 SLOAD SWAP1 POP PUSH1 0x0 DUP2 EQ PUSH2 0xE06 JUMPI PUSH2 0xE01 DUP2 PUSH2 0xDF1 PUSH2 0xB79 JUMP JUMPDEST DUP6 PUSH2 0x29B7 SWAP1 SWAP3 SWAP2 SWAP1 PUSH4 0xFFFFFFFF AND JUMP JUMPDEST PUSH2 0xE08 JUMP JUMPDEST DUP3 JUMPDEST SWAP2 POP POP SWAP2 SWAP1 POP JUMP JUMPDEST PUSH1 0x2 SLOAD DUP2 JUMP JUMPDEST PUSH1 0xA SLOAD DUP2 JUMP JUMPDEST PUSH1 0x0 DUP1 PUSH1 0x4 PUSH1 0x0 DUP7 PUSH20 0xFFFFFFFFFFFFFFFFFFFFFFFFFFFFFFFFFFFFFFFF AND PUSH20 0xFFFFFFFFFFFFFFFFFFFFFFFFFFFFFFFFFFFFFFFF AND DUP2 MSTORE PUSH1 0x20 ADD SWAP1 DUP2 MSTORE PUSH1 0x20 ADD PUSH1 0x0 KECCAK256 PUSH1 0x0 CALLER PUSH20 0xFFFFFFFFFFFFFFFFFFFFFFFFFFFFFFFFFFFFFFFF AND PUSH20 0xFFFFFFFFFFFFFFFFFFFFFFFFFFFFFFFFFFFFFFFF AND DUP2 MSTORE PUSH1 0x20 ADD SWAP1 DUP2 MSTORE PUSH1 0x20 ADD PUSH1 0x0 KECCAK256 SLOAD SWAP1 POP PUSH32 0xFFFFFFFFFFFFFFFFFFFFFFFFFFFFFFFFFFFFFFFFFFFFFFFFFFFFFFFFFFFFFFFF DUP2 EQ PUSH2 0xF52 JUMPI DUP3 DUP2 PUSH2 0xED1 SWAP2 SWAP1 PUSH2 0x35CC JUMP JUMPDEST PUSH1 0x4 PUSH1 0x0 DUP8 PUSH20 0xFFFFFFFFFFFFFFFFFFFFFFFFFFFFFFFFFFFFFFFF AND PUSH20 0xFFFFFFFFFFFFFFFFFFFFFFFFFFFFFFFFFFFFFFFF AND DUP2 MSTORE PUSH1 0x20 ADD SWAP1 DUP2 MSTORE PUSH1 0x20 ADD PUSH1 0x0 KECCAK256 PUSH1 0x0 CALLER PUSH20 0xFFFFFFFFFFFFFFFFFFFFFFFFFFFFFFFFFFFFFFFF AND PUSH20 0xFFFFFFFFFFFFFFFFFFFFFFFFFFFFFFFFFFFFFFFF AND DUP2 MSTORE PUSH1 0x20 ADD SWAP1 DUP2 MSTORE PUSH1 0x20 ADD PUSH1 0x0 KECCAK256 DUP2 SWAP1 SSTORE POP JUMPDEST DUP3 PUSH1 0x3 PUSH1 0x0 DUP8 PUSH20 0xFFFFFFFFFFFFFFFFFFFFFFFFFFFFFFFFFFFFFFFF AND PUSH20 0xFFFFFFFFFFFFFFFFFFFFFFFFFFFFFFFFFFFFFFFF AND DUP2 MSTORE PUSH1 0x20 ADD SWAP1 DUP2 MSTORE PUSH1 0x20 ADD PUSH1 0x0 KECCAK256 PUSH1 0x0 DUP3 DUP3 SLOAD PUSH2 0xFA1 SWAP2 SWAP1 PUSH2 0x35CC JUMP JUMPDEST SWAP3 POP POP DUP2 SWAP1 SSTORE POP DUP3 PUSH1 0x3 PUSH1 0x0 DUP7 PUSH20 0xFFFFFFFFFFFFFFFFFFFFFFFFFFFFFFFFFFFFFFFF AND PUSH20 0xFFFFFFFFFFFFFFFFFFFFFFFFFFFFFFFFFFFFFFFF AND DUP2 MSTORE PUSH1 0x20 ADD SWAP1 DUP2 MSTORE PUSH1 0x20 ADD PUSH1 0x0 KECCAK256 PUSH1 0x0 DUP3 DUP3 SLOAD ADD SWAP3 POP POP DUP2 SWAP1 SSTORE POP DUP4 PUSH20 0xFFFFFFFFFFFFFFFFFFFFFFFFFFFFFFFFFFFFFFFF AND DUP6 PUSH20 0xFFFFFFFFFFFFFFFFFFFFFFFFFFFFFFFFFFFFFFFF AND PUSH32 0xDDF252AD1BE2C89B69C2B068FC378DAA952BA7F163C4A11628F55A4DF523B3EF DUP6 PUSH1 0x40 MLOAD PUSH2 0x1052 SWAP2 SWAP1 PUSH2 0x2ED1 JUMP JUMPDEST PUSH1 0x40 MLOAD DUP1 SWAP2 SUB SWAP1 LOG3 PUSH1 0x1 SWAP2 POP POP SWAP4 SWAP3 POP POP POP JUMP JUMPDEST PUSH32 0x0 DUP2 JUMP JUMPDEST CALLER PUSH20 0xFFFFFFFFFFFFFFFFFFFFFFFFFFFFFFFFFFFFFFFF AND PUSH2 0x10A9 PUSH2 0x1305 JUMP JUMPDEST PUSH20 0xFFFFFFFFFFFFFFFFFFFFFFFFFFFFFFFFFFFFFFFF AND EQ PUSH2 0x10FF JUMPI PUSH1 0x40 MLOAD PUSH32 0x8C379A000000000000000000000000000000000000000000000000000000000 DUP2 MSTORE PUSH1 0x4 ADD PUSH2 0x10F6 SWAP1 PUSH2 0x3672 JUMP JUMPDEST PUSH1 0x40 MLOAD DUP1 SWAP2 SUB SWAP1 REVERT JUMPDEST DUP1 ISZERO DUP1 PUSH2 0x119D JUMPI POP PUSH1 0x12 PUSH32 0x0 PUSH20 0xFFFFFFFFFFFFFFFFFFFFFFFFFFFFFFFFFFFFFFFF AND PUSH4 0x313CE567 PUSH1 0x40 MLOAD DUP2 PUSH4 0xFFFFFFFF AND PUSH1 0xE0 SHL DUP2 MSTORE PUSH1 0x4 ADD PUSH1 0x20 PUSH1 0x40 MLOAD DUP1 DUP4 SUB DUP2 DUP7 GAS STATICCALL ISZERO DUP1 ISZERO PUSH2 0x1174 JUMPI RETURNDATASIZE PUSH1 0x0 DUP1 RETURNDATACOPY RETURNDATASIZE PUSH1 0x0 REVERT JUMPDEST POP POP POP POP PUSH1 0x40 MLOAD RETURNDATASIZE PUSH1 0x1F NOT PUSH1 0x1F DUP3 ADD AND DUP3 ADD DUP1 PUSH1 0x40 MSTORE POP DUP2 ADD SWAP1 PUSH2 0x1198 SWAP2 SWAP1 PUSH2 0x36A7 JUMP JUMPDEST PUSH1 0xFF AND EQ JUMPDEST PUSH2 0x11DC JUMPI PUSH1 0x40 MLOAD PUSH32 0x8C379A000000000000000000000000000000000000000000000000000000000 DUP2 MSTORE PUSH1 0x4 ADD PUSH2 0x11D3 SWAP1 PUSH2 0x3720 JUMP JUMPDEST PUSH1 0x40 MLOAD DUP1 SWAP2 SUB SWAP1 REVERT JUMPDEST DUP1 PUSH1 0xB PUSH1 0x0 PUSH2 0x100 EXP DUP2 SLOAD DUP2 PUSH1 0xFF MUL NOT AND SWAP1 DUP4 ISZERO ISZERO MUL OR SWAP1 SSTORE POP CALLER PUSH20 0xFFFFFFFFFFFFFFFFFFFFFFFFFFFFFFFFFFFFFFFF AND PUSH32 0x6375B140D4463D47B864F1F47E5D2893CC3478E73AEDCC268B054FAB0230A841 DUP3 PUSH1 0x40 MLOAD PUSH2 0x123C SWAP2 SWAP1 PUSH2 0x30BE JUMP JUMPDEST PUSH1 0x40 MLOAD DUP1 SWAP2 SUB SWAP1 LOG2 POP JUMP JUMPDEST PUSH1 0x0 PUSH32 0x0 CHAINID EQ PUSH2 0x127D JUMPI PUSH2 0x1278 PUSH2 0x29E9 JUMP JUMPDEST PUSH2 0x129F JUMP JUMPDEST PUSH32 0x0 JUMPDEST SWAP1 POP SWAP1 JUMP JUMPDEST PUSH32 0x0 DUP2 JUMP JUMPDEST PUSH1 0xD PUSH1 0x0 SWAP1 SLOAD SWAP1 PUSH2 0x100 EXP SWAP1 DIV PUSH1 0xFF AND DUP2 JUMP JUMPDEST PUSH1 0x0 PUSH32 0xFFFFFFFFFFFFFFFFFFFFFFFFFFFFFFFFFFFFFFFFFFFFFFFFFFFFFFFFFFFFFFFF SWAP1 POP SWAP2 SWAP1 POP JUMP JUMPDEST PUSH1 0x0 PUSH1 0x6 PUSH1 0x0 SWAP1 SLOAD SWAP1 PUSH2 0x100 EXP SWAP1 DIV PUSH20 0xFFFFFFFFFFFFFFFFFFFFFFFFFFFFFFFFFFFFFFFF AND SWAP1 POP SWAP1 JUMP JUMPDEST PUSH1 0x0 PUSH2 0x133A DUP3 PUSH2 0xCA8 JUMP JUMPDEST SWAP1 POP SWAP2 SWAP1 POP JUMP JUMPDEST PUSH1 0x0 DUP1 PUSH2 0x134D DUP5 PUSH2 0x27BF JUMP JUMPDEST SWAP2 POP DUP2 EQ ISZERO PUSH2 0x1391 JUMPI PUSH1 0x40 MLOAD PUSH32 0x8C379A000000000000000000000000000000000000000000000000000000000 DUP2 MSTORE PUSH1 0x4 ADD PUSH2 0x1388 SWAP1 PUSH2 0x378C JUMP JUMPDEST PUSH1 0x40 MLOAD DUP1 SWAP2 SUB SWAP1 REVERT JUMPDEST PUSH2 0x13DE CALLER ADDRESS DUP6 PUSH32 0x0 PUSH20 0xFFFFFFFFFFFFFFFFFFFFFFFFFFFFFFFFFFFFFFFF AND PUSH2 0x2A75 SWAP1 SWAP4 SWAP3 SWAP2 SWAP1 PUSH4 0xFFFFFFFF AND JUMP JUMPDEST PUSH2 0x13E8 DUP3 DUP3 PUSH2 0x2B14 JUMP JUMPDEST DUP2 PUSH20 0xFFFFFFFFFFFFFFFFFFFFFFFFFFFFFFFFFFFFFFFF AND CALLER PUSH20 0xFFFFFFFFFFFFFFFFFFFFFFFFFFFFFFFFFFFFFFFF AND PUSH32 0xDCBC1C05240F31FF3AD067EF1EE35CE4997762752E3A095284754544F4C709D7 DUP6 DUP5 PUSH1 0x40 MLOAD PUSH2 0x1447 SWAP3 SWAP2 SWAP1 PUSH2 0x37AC JUMP JUMPDEST PUSH1 0x40 MLOAD DUP1 SWAP2 SUB SWAP1 LOG3 PUSH2 0x1459 DUP4 DUP3 PUSH2 0x2BE4 JUMP JUMPDEST SWAP3 SWAP2 POP POP JUMP JUMPDEST PUSH1 0x3 PUSH1 0x20 MSTORE DUP1 PUSH1 0x0 MSTORE PUSH1 0x40 PUSH1 0x0 KECCAK256 PUSH1 0x0 SWAP2 POP SWAP1 POP SLOAD DUP2 JUMP JUMPDEST CALLER PUSH20 0xFFFFFFFFFFFFFFFFFFFFFFFFFFFFFFFFFFFFFFFF AND PUSH2 0x1496 PUSH2 0x1305 JUMP JUMPDEST PUSH20 0xFFFFFFFFFFFFFFFFFFFFFFFFFFFFFFFFFFFFFFFF AND EQ PUSH2 0x14EC JUMPI PUSH1 0x40 MLOAD PUSH32 0x8C379A000000000000000000000000000000000000000000000000000000000 DUP2 MSTORE PUSH1 0x4 ADD PUSH2 0x14E3 SWAP1 PUSH2 0x3672 JUMP JUMPDEST PUSH1 0x40 MLOAD DUP1 SWAP2 SUB SWAP1 REVERT JUMPDEST PUSH1 0x0 PUSH20 0xFFFFFFFFFFFFFFFFFFFFFFFFFFFFFFFFFFFFFFFF AND PUSH1 0x6 PUSH1 0x0 SWAP1 SLOAD SWAP1 PUSH2 0x100 EXP SWAP1 DIV PUSH20 0xFFFFFFFFFFFFFFFFFFFFFFFFFFFFFFFFFFFFFFFF AND PUSH20 0xFFFFFFFFFFFFFFFFFFFFFFFFFFFFFFFFFFFFFFFF AND PUSH32 0x8BE0079C531659141344CD1FD0A4F28419497F9722A3DAAFE3B4186F6B6457E0 PUSH1 0x40 MLOAD PUSH1 0x40 MLOAD DUP1 SWAP2 SUB SWAP1 LOG3 PUSH1 0x0 PUSH1 0x6 PUSH1 0x0 PUSH2 0x100 EXP DUP2 SLOAD DUP2 PUSH20 0xFFFFFFFFFFFFFFFFFFFFFFFFFFFFFFFFFFFFFFFF MUL NOT AND SWAP1 DUP4 PUSH20 0xFFFFFFFFFFFFFFFFFFFFFFFFFFFFFFFFFFFFFFFF AND MUL OR SWAP1 SSTORE POP JUMP JUMPDEST CALLER PUSH20 0xFFFFFFFFFFFFFFFFFFFFFFFFFFFFFFFFFFFFFFFF AND PUSH2 0x15CC PUSH2 0x1305 JUMP JUMPDEST PUSH20 0xFFFFFFFFFFFFFFFFFFFFFFFFFFFFFFFFFFFFFFFF AND EQ PUSH2 0x1622 JUMPI PUSH1 0x40 MLOAD PUSH32 0x8C379A000000000000000000000000000000000000000000000000000000000 DUP2 MSTORE PUSH1 0x4 ADD PUSH2 0x1619 SWAP1 PUSH2 0x3672 JUMP JUMPDEST PUSH1 0x40 MLOAD DUP1 SWAP2 SUB SWAP1 REVERT JUMPDEST PUSH8 0xDE0B6B3A7640000 DUP2 GT ISZERO PUSH2 0x166D JUMPI PUSH1 0x40 MLOAD PUSH32 0x8C379A000000000000000000000000000000000000000000000000000000000 DUP2 MSTORE PUSH1 0x4 ADD PUSH2 0x1664 SWAP1 PUSH2 0x3821 JUMP JUMPDEST PUSH1 0x40 MLOAD DUP1 SWAP2 SUB SWAP1 REVERT JUMPDEST DUP1 PUSH1 0x9 DUP2 SWAP1 SSTORE POP CALLER PUSH20 0xFFFFFFFFFFFFFFFFFFFFFFFFFFFFFFFFFFFFFFFF AND PUSH32 0xEC370615CC81FB334E5566FBC80664D9082377BF59288D64A79F3FBECF4323A9 DUP3 PUSH1 0x40 MLOAD PUSH2 0x16BA SWAP2 SWAP1 PUSH2 0x2ED1 JUMP JUMPDEST PUSH1 0x40 MLOAD DUP1 SWAP2 SUB SWAP1 LOG2 POP JUMP JUMPDEST PUSH1 0x5 PUSH1 0x20 MSTORE DUP1 PUSH1 0x0 MSTORE PUSH1 0x40 PUSH1 0x0 KECCAK256 PUSH1 0x0 SWAP2 POP SWAP1 POP SLOAD DUP2 JUMP JUMPDEST PUSH1 0x9 SLOAD DUP2 JUMP JUMPDEST CALLER PUSH20 0xFFFFFFFFFFFFFFFFFFFFFFFFFFFFFFFFFFFFFFFF AND PUSH2 0x1702 PUSH2 0x1305 JUMP JUMPDEST PUSH20 0xFFFFFFFFFFFFFFFFFFFFFFFFFFFFFFFFFFFFFFFF AND EQ PUSH2 0x1758 JUMPI PUSH1 0x40 MLOAD PUSH32 0x8C379A000000000000000000000000000000000000000000000000000000000 DUP2 MSTORE PUSH1 0x4 ADD PUSH2 0x174F SWAP1 PUSH2 0x3672 JUMP JUMPDEST PUSH1 0x40 MLOAD DUP1 SWAP2 SUB SWAP1 REVERT JUMPDEST CALLER PUSH20 0xFFFFFFFFFFFFFFFFFFFFFFFFFFFFFFFFFFFFFFFF AND SELFDESTRUCT JUMPDEST CALLER PUSH20 0xFFFFFFFFFFFFFFFFFFFFFFFFFFFFFFFFFFFFFFFF AND PUSH2 0x1790 PUSH2 0x1305 JUMP JUMPDEST PUSH20 0xFFFFFFFFFFFFFFFFFFFFFFFFFFFFFFFFFFFFFFFF AND EQ PUSH2 0x17E6 JUMPI PUSH1 0x40 MLOAD PUSH32 0x8C379A000000000000000000000000000000000000000000000000000000000 DUP2 MSTORE PUSH1 0x4 ADD PUSH2 0x17DD SWAP1 PUSH2 0x3672 JUMP JUMPDEST PUSH1 0x40 MLOAD DUP1 SWAP2 SUB SWAP1 REVERT JUMPDEST PUSH1 0xD PUSH1 0x0 SWAP1 SLOAD SWAP1 PUSH2 0x100 EXP SWAP1 DIV PUSH1 0xFF AND ISZERO PUSH2 0x1836 JUMPI PUSH1 0x40 MLOAD PUSH32 0x8C379A000000000000000000000000000000000000000000000000000000000 DUP2 MSTORE PUSH1 0x4 ADD PUSH2 0x182D SWAP1 PUSH2 0x388D JUMP JUMPDEST PUSH1 0x40 MLOAD DUP1 SWAP2 SUB SWAP1 REVERT JUMPDEST PUSH1 0x1 PUSH1 0xD PUSH1 0x0 PUSH2 0x100 EXP DUP2 SLOAD DUP2 PUSH1 0xFF MUL NOT AND SWAP1 DUP4 ISZERO ISZERO MUL OR SWAP1 SSTORE POP PUSH1 0x0 PUSH1 0x2 DUP2 SWAP1 SSTORE POP PUSH2 0x187D DUP3 PUSH3 0x186A0 DUP4 PUSH20 0xFFFFFFFFFFFFFFFFFFFFFFFFFFFFFFFFFFFFFFFF AND PUSH2 0x2C00 JUMP JUMPDEST POP CALLER PUSH20 0xFFFFFFFFFFFFFFFFFFFFFFFFFFFFFFFFFFFFFFFF AND PUSH32 0x908408E307FC569B417F6CBEC5D5A06F44A0A505AC0479B47D421A4B2FD6A1E6 PUSH1 0x40 MLOAD PUSH1 0x40 MLOAD DUP1 SWAP2 SUB SWAP1 LOG2 PUSH1 0xD PUSH1 0x1 SWAP1 SLOAD SWAP1 PUSH2 0x100 EXP SWAP1 DIV PUSH1 0xFF AND ISZERO PUSH2 0x1913 JUMPI PUSH32 0xDA9FCD4A22655136641EA6451669F22DDB60B968C2CD77B015DA4796AD8FAEB9 PUSH1 0x1 PUSH1 0x40 MLOAD PUSH2 0x1906 SWAP2 SWAP1 PUSH2 0x30BE JUMP JUMPDEST PUSH1 0x40 MLOAD DUP1 SWAP2 SUB SWAP1 LOG1 PUSH2 0x194C JUMP JUMPDEST PUSH32 0xDA9FCD4A22655136641EA6451669F22DDB60B968C2CD77B015DA4796AD8FAEB9 PUSH1 0x0 PUSH1 0x40 MLOAD PUSH2 0x1943 SWAP2 SWAP1 PUSH2 0x30BE JUMP JUMPDEST PUSH1 0x40 MLOAD DUP1 SWAP2 SUB SWAP1 LOG1 JUMPDEST POP POP JUMP JUMPDEST PUSH1 0x0 PUSH2 0x195B DUP4 PUSH2 0x1D12 JUMP JUMPDEST SWAP1 POP PUSH2 0x19AA CALLER ADDRESS DUP4 PUSH32 0x0 PUSH20 0xFFFFFFFFFFFFFFFFFFFFFFFFFFFFFFFFFFFFFFFF AND PUSH2 0x2A75 SWAP1 SWAP4 SWAP3 SWAP2 SWAP1 PUSH4 0xFFFFFFFF AND JUMP JUMPDEST PUSH2 0x19B4 DUP3 DUP5 PUSH2 0x2B14 JUMP JUMPDEST DUP2 PUSH20 0xFFFFFFFFFFFFFFFFFFFFFFFFFFFFFFFFFFFFFFFF AND CALLER PUSH20 0xFFFFFFFFFFFFFFFFFFFFFFFFFFFFFFFFFFFFFFFF AND PUSH32 0xDCBC1C05240F31FF3AD067EF1EE35CE4997762752E3A095284754544F4C709D7 DUP4 DUP7 PUSH1 0x40 MLOAD PUSH2 0x1A13 SWAP3 SWAP2 SWAP1 PUSH2 0x37AC JUMP JUMPDEST PUSH1 0x40 MLOAD DUP1 SWAP2 SUB SWAP1 LOG3 PUSH2 0x1A25 DUP2 DUP5 PUSH2 0x2BE4 JUMP JUMPDEST SWAP3 SWAP2 POP POP JUMP JUMPDEST PUSH1 0x1 DUP1 SLOAD PUSH2 0x1A38 SWAP1 PUSH2 0x356B JUMP JUMPDEST DUP1 PUSH1 0x1F ADD PUSH1 0x20 DUP1 SWAP2 DIV MUL PUSH1 0x20 ADD PUSH1 0x40 MLOAD SWAP1 DUP2 ADD PUSH1 0x40 MSTORE DUP1 SWAP3 SWAP2 SWAP1 DUP2 DUP2 MSTORE PUSH1 0x20 ADD DUP3 DUP1 SLOAD PUSH2 0x1A64 SWAP1 PUSH2 0x356B JUMP JUMPDEST DUP1 ISZERO PUSH2 0x1AB1 JUMPI DUP1 PUSH1 0x1F LT PUSH2 0x1A86 JUMPI PUSH2 0x100 DUP1 DUP4 SLOAD DIV MUL DUP4 MSTORE SWAP2 PUSH1 0x20 ADD SWAP2 PUSH2 0x1AB1 JUMP JUMPDEST DUP3 ADD SWAP2 SWAP1 PUSH1 0x0 MSTORE PUSH1 0x20 PUSH1 0x0 KECCAK256 SWAP1 JUMPDEST DUP2 SLOAD DUP2 MSTORE SWAP1 PUSH1 0x1 ADD SWAP1 PUSH1 0x20 ADD DUP1 DUP4 GT PUSH2 0x1A94 JUMPI DUP3 SWAP1 SUB PUSH1 0x1F AND DUP3 ADD SWAP2 JUMPDEST POP POP POP POP POP DUP2 JUMP JUMPDEST PUSH1 0x0 DUP2 PUSH1 0x3 PUSH1 0x0 CALLER PUSH20 0xFFFFFFFFFFFFFFFFFFFFFFFFFFFFFFFFFFFFFFFF AND PUSH20 0xFFFFFFFFFFFFFFFFFFFFFFFFFFFFFFFFFFFFFFFF AND DUP2 MSTORE PUSH1 0x20 ADD SWAP1 DUP2 MSTORE PUSH1 0x20 ADD PUSH1 0x0 KECCAK256 PUSH1 0x0 DUP3 DUP3 SLOAD PUSH2 0x1B0A SWAP2 SWAP1 PUSH2 0x35CC JUMP JUMPDEST SWAP3 POP POP DUP2 SWAP1 SSTORE POP DUP2 PUSH1 0x3 PUSH1 0x0 DUP6 PUSH20 0xFFFFFFFFFFFFFFFFFFFFFFFFFFFFFFFFFFFFFFFF AND PUSH20 0xFFFFFFFFFFFFFFFFFFFFFFFFFFFFFFFFFFFFFFFF AND DUP2 MSTORE PUSH1 0x20 ADD SWAP1 DUP2 MSTORE PUSH1 0x20 ADD PUSH1 0x0 KECCAK256 PUSH1 0x0 DUP3 DUP3 SLOAD ADD SWAP3 POP POP DUP2 SWAP1 SSTORE POP DUP3 PUSH20 0xFFFFFFFFFFFFFFFFFFFFFFFFFFFFFFFFFFFFFFFF AND CALLER PUSH20 0xFFFFFFFFFFFFFFFFFFFFFFFFFFFFFFFFFFFFFFFF AND PUSH32 0xDDF252AD1BE2C89B69C2B068FC378DAA952BA7F163C4A11628F55A4DF523B3EF DUP5 PUSH1 0x40 MLOAD PUSH2 0x1BBB SWAP2 SWAP1 PUSH2 0x2ED1 JUMP JUMPDEST PUSH1 0x40 MLOAD DUP1 SWAP2 SUB SWAP1 LOG3 PUSH1 0x1 SWAP1 POP SWAP3 SWAP2 POP POP JUMP JUMPDEST CALLER PUSH20 0xFFFFFFFFFFFFFFFFFFFFFFFFFFFFFFFFFFFFFFFF AND PUSH2 0x1BEC PUSH2 0x1305 JUMP JUMPDEST PUSH20 0xFFFFFFFFFFFFFFFFFFFFFFFFFFFFFFFFFFFFFFFF AND EQ PUSH2 0x1C42 JUMPI PUSH1 0x40 MLOAD PUSH32 0x8C379A000000000000000000000000000000000000000000000000000000000 DUP2 MSTORE PUSH1 0x4 ADD PUSH2 0x1C39 SWAP1 PUSH2 0x3672 JUMP JUMPDEST PUSH1 0x40 MLOAD DUP1 SWAP2 SUB SWAP1 REVERT JUMPDEST CALLER PUSH20 0xFFFFFFFFFFFFFFFFFFFFFFFFFFFFFFFFFFFFFFFF AND PUSH32 0x9493E5BBE4E8E0AC67284469A2D677403D0378A85A59E341D3ABC433D0D9A209 DUP3 PUSH1 0x40 MLOAD PUSH2 0x1C88 SWAP2 SWAP1 PUSH2 0x2ED1 JUMP JUMPDEST PUSH1 0x40 MLOAD DUP1 SWAP2 SUB SWAP1 LOG2 ADDRESS PUSH20 0xFFFFFFFFFFFFFFFFFFFFFFFFFFFFFFFFFFFFFFFF AND PUSH4 0xA9059CBB CALLER DUP4 PUSH1 0x40 MLOAD DUP4 PUSH4 0xFFFFFFFF AND PUSH1 0xE0 SHL DUP2 MSTORE PUSH1 0x4 ADD PUSH2 0x1CCB SWAP3 SWAP2 SWAP1 PUSH2 0x38AD JUMP JUMPDEST PUSH1 0x20 PUSH1 0x40 MLOAD DUP1 DUP4 SUB DUP2 PUSH1 0x0 DUP8 GAS CALL ISZERO DUP1 ISZERO PUSH2 0x1CEA JUMPI RETURNDATASIZE PUSH1 0x0 DUP1 RETURNDATACOPY RETURNDATASIZE PUSH1 0x0 REVERT JUMPDEST POP POP POP POP PUSH1 0x40 MLOAD RETURNDATASIZE PUSH1 0x1F NOT PUSH1 0x1F DUP3 ADD AND DUP3 ADD DUP1 PUSH1 0x40 MSTORE POP DUP2 ADD SWAP1 PUSH2 0x1D0E SWAP2 SWAP1 PUSH2 0x38EB JUMP JUMPDEST POP POP JUMP JUMPDEST PUSH1 0x0 DUP1 PUSH1 0x2 SLOAD SWAP1 POP PUSH1 0x0 DUP2 EQ PUSH2 0x1D43 JUMPI PUSH2 0x1D3E PUSH2 0x1D2D PUSH2 0xB79 JUMP JUMPDEST DUP3 DUP6 PUSH2 0x29B7 SWAP1 SWAP3 SWAP2 SWAP1 PUSH4 0xFFFFFFFF AND JUMP JUMPDEST PUSH2 0x1D45 JUMP JUMPDEST DUP3 JUMPDEST SWAP2 POP POP SWAP2 SWAP1 POP JUMP JUMPDEST PUSH1 0x0 PUSH2 0x1D58 DUP5 PUSH2 0xDD5 JUMP JUMPDEST SWAP1 POP DUP2 PUSH20 0xFFFFFFFFFFFFFFFFFFFFFFFFFFFFFFFFFFFFFFFF AND CALLER PUSH20 0xFFFFFFFFFFFFFFFFFFFFFFFFFFFFFFFFFFFFFFFF AND EQ PUSH2 0x1EC4 JUMPI PUSH1 0x0 PUSH1 0x4 PUSH1 0x0 DUP5 PUSH20 0xFFFFFFFFFFFFFFFFFFFFFFFFFFFFFFFFFFFFFFFF AND PUSH20 0xFFFFFFFFFFFFFFFFFFFFFFFFFFFFFFFFFFFFFFFF AND DUP2 MSTORE PUSH1 0x20 ADD SWAP1 DUP2 MSTORE PUSH1 0x20 ADD PUSH1 0x0 KECCAK256 PUSH1 0x0 CALLER PUSH20 0xFFFFFFFFFFFFFFFFFFFFFFFFFFFFFFFFFFFFFFFF AND PUSH20 0xFFFFFFFFFFFFFFFFFFFFFFFFFFFFFFFFFFFFFFFF AND DUP2 MSTORE PUSH1 0x20 ADD SWAP1 DUP2 MSTORE PUSH1 0x20 ADD PUSH1 0x0 KECCAK256 SLOAD SWAP1 POP PUSH32 0xFFFFFFFFFFFFFFFFFFFFFFFFFFFFFFFFFFFFFFFFFFFFFFFFFFFFFFFFFFFFFFFF DUP2 EQ PUSH2 0x1EC2 JUMPI DUP2 DUP2 PUSH2 0x1E41 SWAP2 SWAP1 PUSH2 0x35CC JUMP JUMPDEST PUSH1 0x4 PUSH1 0x0 DUP6 PUSH20 0xFFFFFFFFFFFFFFFFFFFFFFFFFFFFFFFFFFFFFFFF AND PUSH20 0xFFFFFFFFFFFFFFFFFFFFFFFFFFFFFFFFFFFFFFFF AND DUP2 MSTORE PUSH1 0x20 ADD SWAP1 DUP2 MSTORE PUSH1 0x20 ADD PUSH1 0x0 KECCAK256 PUSH1 0x0 CALLER PUSH20 0xFFFFFFFFFFFFFFFFFFFFFFFFFFFFFFFFFFFFFFFF AND PUSH20 0xFFFFFFFFFFFFFFFFFFFFFFFFFFFFFFFFFFFFFFFF AND DUP2 MSTORE PUSH1 0x20 ADD SWAP1 DUP2 MSTORE PUSH1 0x20 ADD PUSH1 0x0 KECCAK256 DUP2 SWAP1 SSTORE POP JUMPDEST POP JUMPDEST PUSH2 0x1ECE DUP5 DUP3 PUSH2 0x2D34 JUMP JUMPDEST PUSH2 0x1ED8 DUP3 DUP3 PUSH2 0x2D50 JUMP JUMPDEST DUP2 PUSH20 0xFFFFFFFFFFFFFFFFFFFFFFFFFFFFFFFFFFFFFFFF AND DUP4 PUSH20 0xFFFFFFFFFFFFFFFFFFFFFFFFFFFFFFFFFFFFFFFF AND CALLER PUSH20 0xFFFFFFFFFFFFFFFFFFFFFFFFFFFFFFFFFFFFFFFF AND PUSH32 0xFBDE797D201C681B91056529119E0B02407C7BB96A4A2C75C01FC9667232C8DB DUP8 DUP6 PUSH1 0x40 MLOAD PUSH2 0x1F4E SWAP3 SWAP2 SWAP1 PUSH2 0x37AC JUMP JUMPDEST PUSH1 0x40 MLOAD DUP1 SWAP2 SUB SWAP1 LOG4 PUSH2 0x1FA1 DUP4 DUP6 PUSH32 0x0 PUSH20 0xFFFFFFFFFFFFFFFFFFFFFFFFFFFFFFFFFFFFFFFF AND PUSH2 0x2E20 SWAP1 SWAP3 SWAP2 SWAP1 PUSH4 0xFFFFFFFF AND JUMP JUMPDEST SWAP4 SWAP3 POP POP POP JUMP JUMPDEST PUSH1 0x0 DUP2 PUSH20 0xFFFFFFFFFFFFFFFFFFFFFFFFFFFFFFFFFFFFFFFF AND CALLER PUSH20 0xFFFFFFFFFFFFFFFFFFFFFFFFFFFFFFFFFFFFFFFF AND EQ PUSH2 0x2114 JUMPI PUSH1 0x0 PUSH1 0x4 PUSH1 0x0 DUP5 PUSH20 0xFFFFFFFFFFFFFFFFFFFFFFFFFFFFFFFFFFFFFFFF AND PUSH20 0xFFFFFFFFFFFFFFFFFFFFFFFFFFFFFFFFFFFFFFFF AND DUP2 MSTORE PUSH1 0x20 ADD SWAP1 DUP2 MSTORE PUSH1 0x20 ADD PUSH1 0x0 KECCAK256 PUSH1 0x0 CALLER PUSH20 0xFFFFFFFFFFFFFFFFFFFFFFFFFFFFFFFFFFFFFFFF AND PUSH20 0xFFFFFFFFFFFFFFFFFFFFFFFFFFFFFFFFFFFFFFFF AND DUP2 MSTORE PUSH1 0x20 ADD SWAP1 DUP2 MSTORE PUSH1 0x20 ADD PUSH1 0x0 KECCAK256 SLOAD SWAP1 POP PUSH32 0xFFFFFFFFFFFFFFFFFFFFFFFFFFFFFFFFFFFFFFFFFFFFFFFFFFFFFFFFFFFFFFFF DUP2 EQ PUSH2 0x2112 JUMPI DUP5 DUP2 PUSH2 0x2091 SWAP2 SWAP1 PUSH2 0x35CC JUMP JUMPDEST PUSH1 0x4 PUSH1 0x0 DUP6 PUSH20 0xFFFFFFFFFFFFFFFFFFFFFFFFFFFFFFFFFFFFFFFF AND PUSH20 0xFFFFFFFFFFFFFFFFFFFFFFFFFFFFFFFFFFFFFFFF AND DUP2 MSTORE PUSH1 0x20 ADD SWAP1 DUP2 MSTORE PUSH1 0x20 ADD PUSH1 0x0 KECCAK256 PUSH1 0x0 CALLER PUSH20 0xFFFFFFFFFFFFFFFFFFFFFFFFFFFFFFFFFFFFFFFF AND PUSH20 0xFFFFFFFFFFFFFFFFFFFFFFFFFFFFFFFFFFFFFFFF AND DUP2 MSTORE PUSH1 0x20 ADD SWAP1 DUP2 MSTORE PUSH1 0x20 ADD PUSH1 0x0 KECCAK256 DUP2 SWAP1 SSTORE POP JUMPDEST POP JUMPDEST PUSH1 0x0 PUSH2 0x211F DUP6 PUSH2 0x132F JUMP JUMPDEST SWAP2 POP DUP2 EQ ISZERO PUSH2 0x2163 JUMPI PUSH1 0x40 MLOAD PUSH32 0x8C379A000000000000000000000000000000000000000000000000000000000 DUP2 MSTORE PUSH1 0x4 ADD PUSH2 0x215A SWAP1 PUSH2 0x3964 JUMP JUMPDEST PUSH1 0x40 MLOAD DUP1 SWAP2 SUB SWAP1 REVERT JUMPDEST PUSH2 0x216D DUP2 DUP6 PUSH2 0x2D34 JUMP JUMPDEST PUSH2 0x2177 DUP3 DUP6 PUSH2 0x2D50 JUMP JUMPDEST DUP2 PUSH20 0xFFFFFFFFFFFFFFFFFFFFFFFFFFFFFFFFFFFFFFFF AND DUP4 PUSH20 0xFFFFFFFFFFFFFFFFFFFFFFFFFFFFFFFFFFFFFFFF AND CALLER PUSH20 0xFFFFFFFFFFFFFFFFFFFFFFFFFFFFFFFFFFFFFFFF AND PUSH32 0xFBDE797D201C681B91056529119E0B02407C7BB96A4A2C75C01FC9667232C8DB DUP5 DUP9 PUSH1 0x40 MLOAD PUSH2 0x21ED SWAP3 SWAP2 SWAP1 PUSH2 0x37AC JUMP JUMPDEST PUSH1 0x40 MLOAD DUP1 SWAP2 SUB SWAP1 LOG4 PUSH2 0x2240 DUP4 DUP3 PUSH32 0x0 PUSH20 0xFFFFFFFFFFFFFFFFFFFFFFFFFFFFFFFFFFFFFFFF AND PUSH2 0x2E20 SWAP1 SWAP3 SWAP2 SWAP1 PUSH4 0xFFFFFFFF AND JUMP JUMPDEST SWAP4 SWAP3 POP POP POP JUMP JUMPDEST PUSH1 0x7 SLOAD DUP2 JUMP JUMPDEST CALLER PUSH20 0xFFFFFFFFFFFFFFFFFFFFFFFFFFFFFFFFFFFFFFFF AND PUSH2 0x226C PUSH2 0x1305 JUMP JUMPDEST PUSH20 0xFFFFFFFFFFFFFFFFFFFFFFFFFFFFFFFFFFFFFFFF AND EQ PUSH2 0x22C2 JUMPI PUSH1 0x40 MLOAD PUSH32 0x8C379A000000000000000000000000000000000000000000000000000000000 DUP2 MSTORE PUSH1 0x4 ADD PUSH2 0x22B9 SWAP1 PUSH2 0x3672 JUMP JUMPDEST PUSH1 0x40 MLOAD DUP1 SWAP2 SUB SWAP1 REVERT JUMPDEST PUSH8 0xDE0B6B3A7640000 DUP2 GT ISZERO PUSH2 0x230D JUMPI PUSH1 0x40 MLOAD PUSH32 0x8C379A000000000000000000000000000000000000000000000000000000000 DUP2 MSTORE PUSH1 0x4 ADD PUSH2 0x2304 SWAP1 PUSH2 0x39D0 JUMP JUMPDEST PUSH1 0x40 MLOAD DUP1 SWAP2 SUB SWAP1 REVERT JUMPDEST DUP1 PUSH1 0xA DUP2 SWAP1 SSTORE POP CALLER PUSH20 0xFFFFFFFFFFFFFFFFFFFFFFFFFFFFFFFFFFFFFFFF AND PUSH32 0x95BC4480B51F4860106D42850BCAE222CF3303FB2B7D433E896205E0EBEFE369 DUP3 PUSH1 0x40 MLOAD PUSH2 0x235A SWAP2 SWAP1 PUSH2 0x2ED1 JUMP JUMPDEST PUSH1 0x40 MLOAD DUP1 SWAP2 SUB SWAP1 LOG2 POP JUMP JUMPDEST PUSH32 0x0 DUP2 JUMP JUMPDEST PUSH1 0x0 PUSH32 0xFFFFFFFFFFFFFFFFFFFFFFFFFFFFFFFFFFFFFFFFFFFFFFFFFFFFFFFFFFFFFFFF SWAP1 POP SWAP2 SWAP1 POP JUMP JUMPDEST PUSH1 0x0 DUP1 PUSH1 0x2 SLOAD SWAP1 POP PUSH1 0x0 DUP2 EQ PUSH2 0x23E4 JUMPI PUSH2 0x23DF DUP2 PUSH2 0x23CF PUSH2 0xB79 JUMP JUMPDEST DUP6 PUSH2 0x298F SWAP1 SWAP3 SWAP2 SWAP1 PUSH4 0xFFFFFFFF AND JUMP JUMPDEST PUSH2 0x23E6 JUMP JUMPDEST DUP3 JUMPDEST SWAP2 POP POP SWAP2 SWAP1 POP JUMP JUMPDEST PUSH1 0x0 PUSH2 0x2438 PUSH1 0x3 PUSH1 0x0 DUP5 PUSH20 0xFFFFFFFFFFFFFFFFFFFFFFFFFFFFFFFFFFFFFFFF AND PUSH20 0xFFFFFFFFFFFFFFFFFFFFFFFFFFFFFFFFFFFFFFFF AND DUP2 MSTORE PUSH1 0x20 ADD SWAP1 DUP2 MSTORE PUSH1 0x20 ADD PUSH1 0x0 KECCAK256 SLOAD PUSH2 0xCA8 JUMP JUMPDEST SWAP1 POP SWAP2 SWAP1 POP JUMP JUMPDEST TIMESTAMP DUP5 LT ISZERO PUSH2 0x2482 JUMPI PUSH1 0x40 MLOAD PUSH32 0x8C379A000000000000000000000000000000000000000000000000000000000 DUP2 MSTORE PUSH1 0x4 ADD PUSH2 0x2479 SWAP1 PUSH2 0x3A3C JUMP JUMPDEST PUSH1 0x40 MLOAD DUP1 SWAP2 SUB SWAP1 REVERT JUMPDEST PUSH1 0x0 PUSH1 0x1 PUSH2 0x248E PUSH2 0x1247 JUMP JUMPDEST PUSH32 0x6E71EDAE12B1B97F4D1F60370FEF10105FA2FAAE0126114A169C64845D6126C9 DUP11 DUP11 DUP11 PUSH1 0x5 PUSH1 0x0 DUP16 PUSH20 0xFFFFFFFFFFFFFFFFFFFFFFFFFFFFFFFFFFFFFFFF AND PUSH20 0xFFFFFFFFFFFFFFFFFFFFFFFFFFFFFFFFFFFFFFFF AND DUP2 MSTORE PUSH1 0x20 ADD SWAP1 DUP2 MSTORE PUSH1 0x20 ADD PUSH1 0x0 KECCAK256 PUSH1 0x0 DUP2 SLOAD DUP1 SWAP3 SWAP2 SWAP1 PUSH1 0x1 ADD SWAP2 SWAP1 POP SSTORE DUP12 PUSH1 0x40 MLOAD PUSH1 0x20 ADD PUSH2 0x2516 SWAP7 SWAP6 SWAP5 SWAP4 SWAP3 SWAP2 SWAP1 PUSH2 0x3A5C JUMP JUMPDEST PUSH1 0x40 MLOAD PUSH1 0x20 DUP2 DUP4 SUB SUB DUP2 MSTORE SWAP1 PUSH1 0x40 MSTORE DUP1 MLOAD SWAP1 PUSH1 0x20 ADD KECCAK256 PUSH1 0x40 MLOAD PUSH1 0x20 ADD PUSH2 0x253D SWAP3 SWAP2 SWAP1 PUSH2 0x3B35 JUMP JUMPDEST PUSH1 0x40 MLOAD PUSH1 0x20 DUP2 DUP4 SUB SUB DUP2 MSTORE SWAP1 PUSH1 0x40 MSTORE DUP1 MLOAD SWAP1 PUSH1 0x20 ADD KECCAK256 DUP6 DUP6 DUP6 PUSH1 0x40 MLOAD PUSH1 0x0 DUP2 MSTORE PUSH1 0x20 ADD PUSH1 0x40 MSTORE PUSH1 0x40 MLOAD PUSH2 0x2573 SWAP5 SWAP4 SWAP3 SWAP2 SWAP1 PUSH2 0x3B6C JUMP JUMPDEST PUSH1 0x20 PUSH1 0x40 MLOAD PUSH1 0x20 DUP2 SUB SWAP1 DUP1 DUP5 SUB SWAP1 DUP6 GAS STATICCALL ISZERO DUP1 ISZERO PUSH2 0x2595 JUMPI RETURNDATASIZE PUSH1 0x0 DUP1 RETURNDATACOPY RETURNDATASIZE PUSH1 0x0 REVERT JUMPDEST POP POP POP PUSH1 0x20 PUSH1 0x40 MLOAD SUB MLOAD SWAP1 POP PUSH1 0x0 PUSH20 0xFFFFFFFFFFFFFFFFFFFFFFFFFFFFFFFFFFFFFFFF AND DUP2 PUSH20 0xFFFFFFFFFFFFFFFFFFFFFFFFFFFFFFFFFFFFFFFF AND EQ ISZERO DUP1 ISZERO PUSH2 0x2609 JUMPI POP DUP8 PUSH20 0xFFFFFFFFFFFFFFFFFFFFFFFFFFFFFFFFFFFFFFFF AND DUP2 PUSH20 0xFFFFFFFFFFFFFFFFFFFFFFFFFFFFFFFFFFFFFFFF AND EQ JUMPDEST PUSH2 0x2648 JUMPI PUSH1 0x40 MLOAD PUSH32 0x8C379A000000000000000000000000000000000000000000000000000000000 DUP2 MSTORE PUSH1 0x4 ADD PUSH2 0x263F SWAP1 PUSH2 0x3BFD JUMP JUMPDEST PUSH1 0x40 MLOAD DUP1 SWAP2 SUB SWAP1 REVERT JUMPDEST DUP6 PUSH1 0x4 PUSH1 0x0 DUP4 PUSH20 0xFFFFFFFFFFFFFFFFFFFFFFFFFFFFFFFFFFFFFFFF AND PUSH20 0xFFFFFFFFFFFFFFFFFFFFFFFFFFFFFFFFFFFFFFFF AND DUP2 MSTORE PUSH1 0x20 ADD SWAP1 DUP2 MSTORE PUSH1 0x20 ADD PUSH1 0x0 KECCAK256 PUSH1 0x0 DUP10 PUSH20 0xFFFFFFFFFFFFFFFFFFFFFFFFFFFFFFFFFFFFFFFF AND PUSH20 0xFFFFFFFFFFFFFFFFFFFFFFFFFFFFFFFFFFFFFFFF AND DUP2 MSTORE PUSH1 0x20 ADD SWAP1 DUP2 MSTORE PUSH1 0x20 ADD PUSH1 0x0 KECCAK256 DUP2 SWAP1 SSTORE POP POP DUP6 PUSH20 0xFFFFFFFFFFFFFFFFFFFFFFFFFFFFFFFFFFFFFFFF AND DUP8 PUSH20 0xFFFFFFFFFFFFFFFFFFFFFFFFFFFFFFFFFFFFFFFF AND PUSH32 0x8C5BE1E5EBEC7D5BD14F71427D1E84F3DD0314C0F7B2291E5B200AC8C7C3B925 DUP8 PUSH1 0x40 MLOAD PUSH2 0x2727 SWAP2 SWAP1 PUSH2 0x2ED1 JUMP JUMPDEST PUSH1 0x40 MLOAD DUP1 SWAP2 SUB SWAP1 LOG3 POP POP POP POP POP POP POP JUMP JUMPDEST PUSH1 0x0 PUSH1 0x3 PUSH1 0x0 DUP4 PUSH20 0xFFFFFFFFFFFFFFFFFFFFFFFFFFFFFFFFFFFFFFFF AND PUSH20 0xFFFFFFFFFFFFFFFFFFFFFFFFFFFFFFFFFFFFFFFF AND DUP2 MSTORE PUSH1 0x20 ADD SWAP1 DUP2 MSTORE PUSH1 0x20 ADD PUSH1 0x0 KECCAK256 SLOAD SWAP1 POP SWAP2 SWAP1 POP JUMP JUMPDEST PUSH1 0xD PUSH1 0x1 SWAP1 SLOAD SWAP1 PUSH2 0x100 EXP SWAP1 DIV PUSH1 0xFF AND DUP2 JUMP JUMPDEST PUSH1 0x4 PUSH1 0x20 MSTORE DUP2 PUSH1 0x0 MSTORE PUSH1 0x40 PUSH1 0x0 KECCAK256 PUSH1 0x20 MSTORE DUP1 PUSH1 0x0 MSTORE PUSH1 0x40 PUSH1 0x0 KECCAK256 PUSH1 0x0 SWAP2 POP SWAP2 POP POP SLOAD DUP2 JUMP JUMPDEST PUSH1 0xC SLOAD DUP2 JUMP JUMPDEST PUSH1 0x0 PUSH2 0x27CA DUP3 PUSH2 0x23B3 JUMP JUMPDEST SWAP1 POP SWAP2 SWAP1 POP JUMP JUMPDEST CALLER PUSH20 0xFFFFFFFFFFFFFFFFFFFFFFFFFFFFFFFFFFFFFFFF AND PUSH2 0x27F0 PUSH2 0x1305 JUMP JUMPDEST PUSH20 0xFFFFFFFFFFFFFFFFFFFFFFFFFFFFFFFFFFFFFFFF AND EQ PUSH2 0x2846 JUMPI PUSH1 0x40 MLOAD PUSH32 0x8C379A000000000000000000000000000000000000000000000000000000000 DUP2 MSTORE PUSH1 0x4 ADD PUSH2 0x283D SWAP1 PUSH2 0x3672 JUMP JUMPDEST PUSH1 0x40 MLOAD DUP1 SWAP2 SUB SWAP1 REVERT JUMPDEST PUSH1 0x0 PUSH20 0xFFFFFFFFFFFFFFFFFFFFFFFFFFFFFFFFFFFFFFFF AND DUP2 PUSH20 0xFFFFFFFFFFFFFFFFFFFFFFFFFFFFFFFFFFFFFFFF AND EQ ISZERO PUSH2 0x28B6 JUMPI PUSH1 0x40 MLOAD PUSH32 0x8C379A000000000000000000000000000000000000000000000000000000000 DUP2 MSTORE PUSH1 0x4 ADD PUSH2 0x28AD SWAP1 PUSH2 0x3C8F JUMP JUMPDEST PUSH1 0x40 MLOAD DUP1 SWAP2 SUB SWAP1 REVERT JUMPDEST DUP1 PUSH20 0xFFFFFFFFFFFFFFFFFFFFFFFFFFFFFFFFFFFFFFFF AND PUSH1 0x6 PUSH1 0x0 SWAP1 SLOAD SWAP1 PUSH2 0x100 EXP SWAP1 DIV PUSH20 0xFFFFFFFFFFFFFFFFFFFFFFFFFFFFFFFFFFFFFFFF AND PUSH20 0xFFFFFFFFFFFFFFFFFFFFFFFFFFFFFFFFFFFFFFFF AND PUSH32 0x8BE0079C531659141344CD1FD0A4F28419497F9722A3DAAFE3B4186F6B6457E0 PUSH1 0x40 MLOAD PUSH1 0x40 MLOAD DUP1 SWAP2 SUB SWAP1 LOG3 DUP1 PUSH1 0x6 PUSH1 0x0 PUSH2 0x100 EXP DUP2 SLOAD DUP2 PUSH20 0xFFFFFFFFFFFFFFFFFFFFFFFFFFFFFFFFFFFFFFFF MUL NOT AND SWAP1 DUP4 PUSH20 0xFFFFFFFFFFFFFFFFFFFFFFFFFFFFFFFFFFFFFFFF AND MUL OR SWAP1 SSTORE POP POP JUMP JUMPDEST PUSH1 0xB PUSH1 0x0 SWAP1 SLOAD SWAP1 PUSH2 0x100 EXP SWAP1 DIV PUSH1 0xFF AND DUP2 JUMP JUMPDEST PUSH1 0x8 SLOAD DUP2 JUMP JUMPDEST PUSH1 0x0 DUP3 DUP5 MUL SWAP1 POP DUP3 DUP5 DUP3 DIV EQ DUP5 ISZERO OR DUP3 ISZERO ISZERO AND PUSH2 0x29AB JUMPI PUSH1 0x0 DUP1 REVERT JUMPDEST DUP2 DUP2 DIV SWAP1 POP SWAP4 SWAP3 POP POP POP JUMP JUMPDEST PUSH1 0x0 DUP3 DUP5 MUL SWAP1 POP DUP3 DUP5 DUP3 DIV EQ DUP5 ISZERO OR DUP3 ISZERO ISZERO AND PUSH2 0x29D3 JUMPI PUSH1 0x0 DUP1 REVERT JUMPDEST PUSH1 0x1 DUP3 PUSH1 0x1 DUP4 SUB DIV ADD DUP2 ISZERO ISZERO MUL SWAP1 POP SWAP4 SWAP3 POP POP POP JUMP JUMPDEST PUSH1 0x0 PUSH32 0x8B73C3C69BB8FE3D512ECC4CF759CC79239F7B179B0FFACAA9A75D522B39400F PUSH1 0x0 PUSH1 0x40 MLOAD PUSH2 0x2A1B SWAP2 SWAP1 PUSH2 0x3D4E JUMP JUMPDEST PUSH1 0x40 MLOAD DUP1 SWAP2 SUB SWAP1 KECCAK256 PUSH32 0xC89EFDAA54C0F20C7ADF612882DF0950F5A951637E0307CDCB4C672F298B8BC6 CHAINID ADDRESS PUSH1 0x40 MLOAD PUSH1 0x20 ADD PUSH2 0x2A5A SWAP6 SWAP5 SWAP4 SWAP3 SWAP2 SWAP1 PUSH2 0x3D65 JUMP JUMPDEST PUSH1 0x40 MLOAD PUSH1 0x20 DUP2 DUP4 SUB SUB DUP2 MSTORE SWAP1 PUSH1 0x40 MSTORE DUP1 MLOAD SWAP1 PUSH1 0x20 ADD KECCAK256 SWAP1 POP SWAP1 JUMP JUMPDEST PUSH1 0x0 PUSH1 0x40 MLOAD PUSH32 0x23B872DD00000000000000000000000000000000000000000000000000000000 DUP2 MSTORE DUP5 PUSH1 0x4 DUP3 ADD MSTORE DUP4 PUSH1 0x24 DUP3 ADD MSTORE DUP3 PUSH1 0x44 DUP3 ADD MSTORE PUSH1 0x20 PUSH1 0x0 PUSH1 0x64 DUP4 PUSH1 0x0 DUP11 GAS CALL RETURNDATASIZE ISZERO PUSH1 0x1F RETURNDATASIZE GT PUSH1 0x1 PUSH1 0x0 MLOAD EQ AND OR AND SWAP2 POP POP DUP1 PUSH2 0x2B0D JUMPI PUSH1 0x40 MLOAD PUSH32 0x8C379A000000000000000000000000000000000000000000000000000000000 DUP2 MSTORE PUSH1 0x4 ADD PUSH2 0x2B04 SWAP1 PUSH2 0x3E04 JUMP JUMPDEST PUSH1 0x40 MLOAD DUP1 SWAP2 SUB SWAP1 REVERT JUMPDEST POP POP POP POP POP JUMP JUMPDEST DUP1 PUSH1 0x2 PUSH1 0x0 DUP3 DUP3 SLOAD PUSH2 0x2B26 SWAP2 SWAP1 PUSH2 0x3E24 JUMP JUMPDEST SWAP3 POP POP DUP2 SWAP1 SSTORE POP DUP1 PUSH1 0x3 PUSH1 0x0 DUP5 PUSH20 0xFFFFFFFFFFFFFFFFFFFFFFFFFFFFFFFFFFFFFFFF AND PUSH20 0xFFFFFFFFFFFFFFFFFFFFFFFFFFFFFFFFFFFFFFFF AND DUP2 MSTORE PUSH1 0x20 ADD SWAP1 DUP2 MSTORE PUSH1 0x20 ADD PUSH1 0x0 KECCAK256 PUSH1 0x0 DUP3 DUP3 SLOAD ADD SWAP3 POP POP DUP2 SWAP1 SSTORE POP DUP2 PUSH20 0xFFFFFFFFFFFFFFFFFFFFFFFFFFFFFFFFFFFFFFFF AND PUSH1 0x0 PUSH20 0xFFFFFFFFFFFFFFFFFFFFFFFFFFFFFFFFFFFFFFFF AND PUSH32 0xDDF252AD1BE2C89B69C2B068FC378DAA952BA7F163C4A11628F55A4DF523B3EF DUP4 PUSH1 0x40 MLOAD PUSH2 0x2BD8 SWAP2 SWAP1 PUSH2 0x2ED1 JUMP JUMPDEST PUSH1 0x40 MLOAD DUP1 SWAP2 SUB SWAP1 LOG3 POP POP JUMP JUMPDEST PUSH1 0x8 PUSH1 0x0 DUP2 SLOAD DUP1 SWAP3 SWAP2 SWAP1 PUSH2 0x2BF7 SWAP1 PUSH2 0x3E7A JUMP JUMPDEST SWAP2 SWAP1 POP SSTORE POP POP POP JUMP JUMPDEST PUSH1 0x0 DUP1 PUSH1 0x0 DUP6 PUSH20 0xFFFFFFFFFFFFFFFFFFFFFFFFFFFFFFFFFFFFFFFF AND DUP5 PUSH1 0x40 MLOAD PUSH2 0x2C29 SWAP1 PUSH2 0x3EE9 JUMP JUMPDEST PUSH1 0x0 PUSH1 0x40 MLOAD DUP1 DUP4 SUB DUP2 DUP6 DUP8 GAS CALL SWAP3 POP POP POP RETURNDATASIZE DUP1 PUSH1 0x0 DUP2 EQ PUSH2 0x2C66 JUMPI PUSH1 0x40 MLOAD SWAP2 POP PUSH1 0x1F NOT PUSH1 0x3F RETURNDATASIZE ADD AND DUP3 ADD PUSH1 0x40 MSTORE RETURNDATASIZE DUP3 MSTORE RETURNDATASIZE PUSH1 0x0 PUSH1 0x20 DUP5 ADD RETURNDATACOPY PUSH2 0x2C6B JUMP JUMPDEST PUSH1 0x60 SWAP2 POP JUMPDEST POP SWAP2 POP SWAP2 POP DUP2 PUSH2 0x2CB0 JUMPI PUSH1 0x40 MLOAD PUSH32 0x8C379A000000000000000000000000000000000000000000000000000000000 DUP2 MSTORE PUSH1 0x4 ADD PUSH2 0x2CA7 SWAP1 PUSH2 0x3F4A JUMP JUMPDEST PUSH1 0x40 MLOAD DUP1 SWAP2 SUB SWAP1 REVERT JUMPDEST ADDRESS PUSH20 0xFFFFFFFFFFFFFFFFFFFFFFFFFFFFFFFFFFFFFFFF AND DUP7 PUSH20 0xFFFFFFFFFFFFFFFFFFFFFFFFFFFFFFFFFFFFFFFF AND PUSH32 0x921FCE8B04203D2C416691CD9E563C8C78D2F6AC4D8F522A65F940640FF66091 DUP8 PUSH1 0x40 MLOAD PUSH2 0x2D0D SWAP2 SWAP1 PUSH2 0x3F9B JUMP JUMPDEST PUSH1 0x40 MLOAD DUP1 SWAP2 SUB SWAP1 LOG3 DUP1 DUP1 PUSH1 0x20 ADD SWAP1 MLOAD DUP2 ADD SWAP1 PUSH2 0x2D29 SWAP2 SWAP1 PUSH2 0x38EB JUMP JUMPDEST SWAP3 POP POP POP SWAP4 SWAP3 POP POP POP JUMP JUMPDEST PUSH1 0x7 PUSH1 0x0 DUP2 SLOAD DUP1 SWAP3 SWAP2 SWAP1 PUSH2 0x2D47 SWAP1 PUSH2 0x3E7A JUMP JUMPDEST SWAP2 SWAP1 POP SSTORE POP POP POP JUMP JUMPDEST DUP1 PUSH1 0x3 PUSH1 0x0 DUP5 PUSH20 0xFFFFFFFFFFFFFFFFFFFFFFFFFFFFFFFFFFFFFFFF AND PUSH20 0xFFFFFFFFFFFFFFFFFFFFFFFFFFFFFFFFFFFFFFFF AND DUP2 MSTORE PUSH1 0x20 ADD SWAP1 DUP2 MSTORE PUSH1 0x20 ADD PUSH1 0x0 KECCAK256 PUSH1 0x0 DUP3 DUP3 SLOAD PUSH2 0x2D9F SWAP2 SWAP1 PUSH2 0x35CC JUMP JUMPDEST SWAP3 POP POP DUP2 SWAP1 SSTORE POP DUP1 PUSH1 0x2 PUSH1 0x0 DUP3 DUP3 SLOAD SUB SWAP3 POP POP DUP2 SWAP1 SSTORE POP PUSH1 0x0 PUSH20 0xFFFFFFFFFFFFFFFFFFFFFFFFFFFFFFFFFFFFFFFF AND DUP3 PUSH20 0xFFFFFFFFFFFFFFFFFFFFFFFFFFFFFFFFFFFFFFFF AND PUSH32 0xDDF252AD1BE2C89B69C2B068FC378DAA952BA7F163C4A11628F55A4DF523B3EF DUP4 PUSH1 0x40 MLOAD PUSH2 0x2E14 SWAP2 SWAP1 PUSH2 0x2ED1 JUMP JUMPDEST PUSH1 0x40 MLOAD DUP1 SWAP2 SUB SWAP1 LOG3 POP POP JUMP JUMPDEST PUSH1 0x0 PUSH1 0x40 MLOAD PUSH32 0xA9059CBB00000000000000000000000000000000000000000000000000000000 DUP2 MSTORE DUP4 PUSH1 0x4 DUP3 ADD MSTORE DUP3 PUSH1 0x24 DUP3 ADD MSTORE PUSH1 0x20 PUSH1 0x0 PUSH1 0x44 DUP4 PUSH1 0x0 DUP10 GAS CALL RETURNDATASIZE ISZERO PUSH1 0x1F RETURNDATASIZE GT PUSH1 0x1 PUSH1 0x0 MLOAD EQ AND OR AND SWAP2 POP POP DUP1 PUSH2 0x2EB2 JUMPI PUSH1 0x40 MLOAD PUSH32 0x8C379A000000000000000000000000000000000000000000000000000000000 DUP2 MSTORE PUSH1 0x4 ADD PUSH2 0x2EA9 SWAP1 PUSH2 0x4002 JUMP JUMPDEST PUSH1 0x40 MLOAD DUP1 SWAP2 SUB SWAP1 REVERT JUMPDEST POP POP POP POP JUMP JUMPDEST PUSH1 0x0 DUP2 SWAP1 POP SWAP2 SWAP1 POP JUMP JUMPDEST PUSH2 0x2ECB DUP2 PUSH2 0x2EB8 JUMP JUMPDEST DUP3 MSTORE POP POP JUMP JUMPDEST PUSH1 0x0 PUSH1 0x20 DUP3 ADD SWAP1 POP PUSH2 0x2EE6 PUSH1 0x0 DUP4 ADD DUP5 PUSH2 0x2EC2 JUMP JUMPDEST SWAP3 SWAP2 POP POP JUMP JUMPDEST PUSH1 0x0 DUP2 MLOAD SWAP1 POP SWAP2 SWAP1 POP JUMP JUMPDEST PUSH1 0x0 DUP3 DUP3 MSTORE PUSH1 0x20 DUP3 ADD SWAP1 POP SWAP3 SWAP2 POP POP JUMP JUMPDEST PUSH1 0x0 JUMPDEST DUP4 DUP2 LT ISZERO PUSH2 0x2F26 JUMPI DUP1 DUP3 ADD MLOAD DUP2 DUP5 ADD MSTORE PUSH1 0x20 DUP2 ADD SWAP1 POP PUSH2 0x2F0B JUMP JUMPDEST DUP4 DUP2 GT ISZERO PUSH2 0x2F35 JUMPI PUSH1 0x0 DUP5 DUP5 ADD MSTORE JUMPDEST POP POP POP POP JUMP JUMPDEST PUSH1 0x0 PUSH1 0x1F NOT PUSH1 0x1F DUP4 ADD AND SWAP1 POP SWAP2 SWAP1 POP JUMP JUMPDEST PUSH1 0x0 PUSH2 0x2F57 DUP3 PUSH2 0x2EEC JUMP JUMPDEST PUSH2 0x2F61 DUP2 DUP6 PUSH2 0x2EF7 JUMP JUMPDEST SWAP4 POP PUSH2 0x2F71 DUP2 DUP6 PUSH1 0x20 DUP7 ADD PUSH2 0x2F08 JUMP JUMPDEST PUSH2 0x2F7A DUP2 PUSH2 0x2F3B JUMP JUMPDEST DUP5 ADD SWAP2 POP POP SWAP3 SWAP2 POP POP JUMP JUMPDEST PUSH1 0x0 PUSH1 0x20 DUP3 ADD SWAP1 POP DUP2 DUP2 SUB PUSH1 0x0 DUP4 ADD MSTORE PUSH2 0x2F9F DUP2 DUP5 PUSH2 0x2F4C JUMP JUMPDEST SWAP1 POP SWAP3 SWAP2 POP POP JUMP JUMPDEST PUSH1 0x0 DUP1 REVERT JUMPDEST PUSH2 0x2FB5 DUP2 PUSH2 0x2EB8 JUMP JUMPDEST DUP2 EQ PUSH2 0x2FC0 JUMPI PUSH1 0x0 DUP1 REVERT JUMPDEST POP JUMP JUMPDEST PUSH1 0x0 DUP2 CALLDATALOAD SWAP1 POP PUSH2 0x2FD2 DUP2 PUSH2 0x2FAC JUMP JUMPDEST SWAP3 SWAP2 POP POP JUMP JUMPDEST PUSH1 0x0 PUSH1 0x20 DUP3 DUP5 SUB SLT ISZERO PUSH2 0x2FEE JUMPI PUSH2 0x2FED PUSH2 0x2FA7 JUMP JUMPDEST JUMPDEST PUSH1 0x0 PUSH2 0x2FFC DUP5 DUP3 DUP6 ADD PUSH2 0x2FC3 JUMP JUMPDEST SWAP2 POP POP SWAP3 SWAP2 POP POP JUMP JUMPDEST PUSH1 0x0 PUSH20 0xFFFFFFFFFFFFFFFFFFFFFFFFFFFFFFFFFFFFFFFF DUP3 AND SWAP1 POP SWAP2 SWAP1 POP JUMP JUMPDEST PUSH1 0x0 PUSH2 0x3030 DUP3 PUSH2 0x3005 JUMP JUMPDEST SWAP1 POP SWAP2 SWAP1 POP JUMP JUMPDEST PUSH2 0x3040 DUP2 PUSH2 0x3025 JUMP JUMPDEST DUP2 EQ PUSH2 0x304B JUMPI PUSH1 0x0 DUP1 REVERT JUMPDEST POP JUMP JUMPDEST PUSH1 0x0 DUP2 CALLDATALOAD SWAP1 POP PUSH2 0x305D DUP2 PUSH2 0x3037 JUMP JUMPDEST SWAP3 SWAP2 POP POP JUMP JUMPDEST PUSH1 0x0 DUP1 PUSH1 0x40 DUP4 DUP6 SUB SLT ISZERO PUSH2 0x307A JUMPI PUSH2 0x3079 PUSH2 0x2FA7 JUMP JUMPDEST JUMPDEST PUSH1 0x0 PUSH2 0x3088 DUP6 DUP3 DUP7 ADD PUSH2 0x304E JUMP JUMPDEST SWAP3 POP POP PUSH1 0x20 PUSH2 0x3099 DUP6 DUP3 DUP7 ADD PUSH2 0x2FC3 JUMP JUMPDEST SWAP2 POP POP SWAP3 POP SWAP3 SWAP1 POP JUMP JUMPDEST PUSH1 0x0 DUP2 ISZERO ISZERO SWAP1 POP SWAP2 SWAP1 POP JUMP JUMPDEST PUSH2 0x30B8 DUP2 PUSH2 0x30A3 JUMP JUMPDEST DUP3 MSTORE POP POP JUMP JUMPDEST PUSH1 0x0 PUSH1 0x20 DUP3 ADD SWAP1 POP PUSH2 0x30D3 PUSH1 0x0 DUP4 ADD DUP5 PUSH2 0x30AF JUMP JUMPDEST SWAP3 SWAP2 POP POP JUMP JUMPDEST PUSH1 0x0 DUP1 PUSH1 0x0 PUSH1 0x60 DUP5 DUP7 SUB SLT ISZERO PUSH2 0x30F2 JUMPI PUSH2 0x30F1 PUSH2 0x2FA7 JUMP JUMPDEST JUMPDEST PUSH1 0x0 PUSH2 0x3100 DUP7 DUP3 DUP8 ADD PUSH2 0x304E JUMP JUMPDEST SWAP4 POP POP PUSH1 0x20 PUSH2 0x3111 DUP7 DUP3 DUP8 ADD PUSH2 0x304E JUMP JUMPDEST SWAP3 POP POP PUSH1 0x40 PUSH2 0x3122 DUP7 DUP3 DUP8 ADD PUSH2 0x2FC3 JUMP JUMPDEST SWAP2 POP POP SWAP3 POP SWAP3 POP SWAP3 JUMP JUMPDEST PUSH1 0x0 PUSH1 0xFF DUP3 AND SWAP1 POP SWAP2 SWAP1 POP JUMP JUMPDEST PUSH2 0x3142 DUP2 PUSH2 0x312C JUMP JUMPDEST DUP3 MSTORE POP POP JUMP JUMPDEST PUSH1 0x0 PUSH1 0x20 DUP3 ADD SWAP1 POP PUSH2 0x315D PUSH1 0x0 DUP4 ADD DUP5 PUSH2 0x3139 JUMP JUMPDEST SWAP3 SWAP2 POP POP JUMP JUMPDEST PUSH2 0x316C DUP2 PUSH2 0x30A3 JUMP JUMPDEST DUP2 EQ PUSH2 0x3177 JUMPI PUSH1 0x0 DUP1 REVERT JUMPDEST POP JUMP JUMPDEST PUSH1 0x0 DUP2 CALLDATALOAD SWAP1 POP PUSH2 0x3189 DUP2 PUSH2 0x3163 JUMP JUMPDEST SWAP3 SWAP2 POP POP JUMP JUMPDEST PUSH1 0x0 PUSH1 0x20 DUP3 DUP5 SUB SLT ISZERO PUSH2 0x31A5 JUMPI PUSH2 0x31A4 PUSH2 0x2FA7 JUMP JUMPDEST JUMPDEST PUSH1 0x0 PUSH2 0x31B3 DUP5 DUP3 DUP6 ADD PUSH2 0x317A JUMP JUMPDEST SWAP2 POP POP SWAP3 SWAP2 POP POP JUMP JUMPDEST PUSH1 0x0 DUP2 SWAP1 POP SWAP2 SWAP1 POP JUMP JUMPDEST PUSH2 0x31CF DUP2 PUSH2 0x31BC JUMP JUMPDEST DUP3 MSTORE POP POP JUMP JUMPDEST PUSH1 0x0 PUSH1 0x20 DUP3 ADD SWAP1 POP PUSH2 0x31EA PUSH1 0x0 DUP4 ADD DUP5 PUSH2 0x31C6 JUMP JUMPDEST SWAP3 SWAP2 POP POP JUMP JUMPDEST PUSH1 0x0 DUP2 SWAP1 POP SWAP2 SWAP1 POP JUMP JUMPDEST PUSH1 0x0 PUSH2 0x3215 PUSH2 0x3210 PUSH2 0x320B DUP5 PUSH2 0x3005 JUMP JUMPDEST PUSH2 0x31F0 JUMP JUMPDEST PUSH2 0x3005 JUMP JUMPDEST SWAP1 POP SWAP2 SWAP1 POP JUMP JUMPDEST PUSH1 0x0 PUSH2 0x3227 DUP3 PUSH2 0x31FA JUMP JUMPDEST SWAP1 POP SWAP2 SWAP1 POP JUMP JUMPDEST PUSH1 0x0 PUSH2 0x3239 DUP3 PUSH2 0x321C JUMP JUMPDEST SWAP1 POP SWAP2 SWAP1 POP JUMP JUMPDEST PUSH2 0x3249 DUP2 PUSH2 0x322E JUMP JUMPDEST DUP3 MSTORE POP POP JUMP JUMPDEST PUSH1 0x0 PUSH1 0x20 DUP3 ADD SWAP1 POP PUSH2 0x3264 PUSH1 0x0 DUP4 ADD DUP5 PUSH2 0x3240 JUMP JUMPDEST SWAP3 SWAP2 POP POP JUMP JUMPDEST PUSH1 0x0 PUSH1 0x20 DUP3 DUP5 SUB SLT ISZERO PUSH2 0x3280 JUMPI PUSH2 0x327F PUSH2 0x2FA7 JUMP JUMPDEST JUMPDEST PUSH1 0x0 PUSH2 0x328E DUP5 DUP3 DUP6 ADD PUSH2 0x304E JUMP JUMPDEST SWAP2 POP POP SWAP3 SWAP2 POP POP JUMP JUMPDEST PUSH2 0x32A0 DUP2 PUSH2 0x3025 JUMP JUMPDEST DUP3 MSTORE POP POP JUMP JUMPDEST PUSH1 0x0 PUSH1 0x20 DUP3 ADD SWAP1 POP PUSH2 0x32BB PUSH1 0x0 DUP4 ADD DUP5 PUSH2 0x3297 JUMP JUMPDEST SWAP3 SWAP2 POP POP JUMP JUMPDEST PUSH1 0x0 DUP1 PUSH1 0x40 DUP4 DUP6 SUB SLT ISZERO PUSH2 0x32D8 JUMPI PUSH2 0x32D7 PUSH2 0x2FA7 JUMP JUMPDEST JUMPDEST PUSH1 0x0 PUSH2 0x32E6 DUP6 DUP3 DUP7 ADD PUSH2 0x2FC3 JUMP JUMPDEST SWAP3 POP POP PUSH1 0x20 PUSH2 0x32F7 DUP6 DUP3 DUP7 ADD PUSH2 0x304E JUMP JUMPDEST SWAP2 POP POP SWAP3 POP SWAP3 SWAP1 POP JUMP JUMPDEST PUSH2 0x330A DUP2 PUSH2 0x3005 JUMP JUMPDEST DUP2 EQ PUSH2 0x3315 JUMPI PUSH1 0x0 DUP1 REVERT JUMPDEST POP JUMP JUMPDEST PUSH1 0x0 DUP2 CALLDATALOAD SWAP1 POP PUSH2 0x3327 DUP2 PUSH2 0x3301 JUMP JUMPDEST SWAP3 SWAP2 POP POP JUMP JUMPDEST PUSH1 0x0 DUP1 PUSH1 0x40 DUP4 DUP6 SUB SLT ISZERO PUSH2 0x3344 JUMPI PUSH2 0x3343 PUSH2 0x2FA7 JUMP JUMPDEST JUMPDEST PUSH1 0x0 PUSH2 0x3352 DUP6 DUP3 DUP7 ADD PUSH2 0x304E JUMP JUMPDEST SWAP3 POP POP PUSH1 0x20 PUSH2 0x3363 DUP6 DUP3 DUP7 ADD PUSH2 0x3318 JUMP JUMPDEST SWAP2 POP POP SWAP3 POP SWAP3 SWAP1 POP JUMP JUMPDEST PUSH1 0x0 DUP1 PUSH1 0x0 PUSH1 0x60 DUP5 DUP7 SUB SLT ISZERO PUSH2 0x3386 JUMPI PUSH2 0x3385 PUSH2 0x2FA7 JUMP JUMPDEST JUMPDEST PUSH1 0x0 PUSH2 0x3394 DUP7 DUP3 DUP8 ADD PUSH2 0x2FC3 JUMP JUMPDEST SWAP4 POP POP PUSH1 0x20 PUSH2 0x33A5 DUP7 DUP3 DUP8 ADD PUSH2 0x304E JUMP JUMPDEST SWAP3 POP POP PUSH1 0x40 PUSH2 0x33B6 DUP7 DUP3 DUP8 ADD PUSH2 0x304E JUMP JUMPDEST SWAP2 POP POP SWAP3 POP SWAP3 POP SWAP3 JUMP JUMPDEST PUSH2 0x33C9 DUP2 PUSH2 0x312C JUMP JUMPDEST DUP2 EQ PUSH2 0x33D4 JUMPI PUSH1 0x0 DUP1 REVERT JUMPDEST POP JUMP JUMPDEST PUSH1 0x0 DUP2 CALLDATALOAD SWAP1 POP PUSH2 0x33E6 DUP2 PUSH2 0x33C0 JUMP JUMPDEST SWAP3 SWAP2 POP POP JUMP JUMPDEST PUSH2 0x33F5 DUP2 PUSH2 0x31BC JUMP JUMPDEST DUP2 EQ PUSH2 0x3400 JUMPI PUSH1 0x0 DUP1 REVERT JUMPDEST POP JUMP JUMPDEST PUSH1 0x0 DUP2 CALLDATALOAD SWAP1 POP PUSH2 0x3412 DUP2 PUSH2 0x33EC JUMP JUMPDEST SWAP3 SWAP2 POP POP JUMP JUMPDEST PUSH1 0x0 DUP1 PUSH1 0x0 DUP1 PUSH1 0x0 DUP1 PUSH1 0x0 PUSH1 0xE0 DUP9 DUP11 SUB SLT ISZERO PUSH2 0x3437 JUMPI PUSH2 0x3436 PUSH2 0x2FA7 JUMP JUMPDEST JUMPDEST PUSH1 0x0 PUSH2 0x3445 DUP11 DUP3 DUP12 ADD PUSH2 0x304E JUMP JUMPDEST SWAP8 POP POP PUSH1 0x20 PUSH2 0x3456 DUP11 DUP3 DUP12 ADD PUSH2 0x304E JUMP JUMPDEST SWAP7 POP POP PUSH1 0x40 PUSH2 0x3467 DUP11 DUP3 DUP12 ADD PUSH2 0x2FC3 JUMP JUMPDEST SWAP6 POP POP PUSH1 0x60 PUSH2 0x3478 DUP11 DUP3 DUP12 ADD PUSH2 0x2FC3 JUMP JUMPDEST SWAP5 POP POP PUSH1 0x80 PUSH2 0x3489 DUP11 DUP3 DUP12 ADD PUSH2 0x33D7 JUMP JUMPDEST SWAP4 POP POP PUSH1 0xA0 PUSH2 0x349A DUP11 DUP3 DUP12 ADD PUSH2 0x3403 JUMP JUMPDEST SWAP3 POP POP PUSH1 0xC0 PUSH2 0x34AB DUP11 DUP3 DUP12 ADD PUSH2 0x3403 JUMP JUMPDEST SWAP2 POP POP SWAP3 SWAP6 SWAP9 SWAP2 SWAP5 SWAP8 POP SWAP3 SWAP6 POP JUMP JUMPDEST PUSH1 0x0 DUP1 PUSH1 0x40 DUP4 DUP6 SUB SLT ISZERO PUSH2 0x34D1 JUMPI PUSH2 0x34D0 PUSH2 0x2FA7 JUMP JUMPDEST JUMPDEST PUSH1 0x0 PUSH2 0x34DF DUP6 DUP3 DUP7 ADD PUSH2 0x304E JUMP JUMPDEST SWAP3 POP POP PUSH1 0x20 PUSH2 0x34F0 DUP6 DUP3 DUP7 ADD PUSH2 0x304E JUMP JUMPDEST SWAP2 POP POP SWAP3 POP SWAP3 SWAP1 POP JUMP JUMPDEST PUSH1 0x0 DUP2 MLOAD SWAP1 POP PUSH2 0x3509 DUP2 PUSH2 0x2FAC JUMP JUMPDEST SWAP3 SWAP2 POP POP JUMP JUMPDEST PUSH1 0x0 PUSH1 0x20 DUP3 DUP5 SUB SLT ISZERO PUSH2 0x3525 JUMPI PUSH2 0x3524 PUSH2 0x2FA7 JUMP JUMPDEST JUMPDEST PUSH1 0x0 PUSH2 0x3533 DUP5 DUP3 DUP6 ADD PUSH2 0x34FA JUMP JUMPDEST SWAP2 POP POP SWAP3 SWAP2 POP POP JUMP JUMPDEST PUSH32 0x4E487B7100000000000000000000000000000000000000000000000000000000 PUSH1 0x0 MSTORE PUSH1 0x22 PUSH1 0x4 MSTORE PUSH1 0x24 PUSH1 0x0 REVERT JUMPDEST PUSH1 0x0 PUSH1 0x2 DUP3 DIV SWAP1 POP PUSH1 0x1 DUP3 AND DUP1 PUSH2 0x3583 JUMPI PUSH1 0x7F DUP3 AND SWAP2 POP JUMPDEST PUSH1 0x20 DUP3 LT DUP2 EQ ISZERO PUSH2 0x3597 JUMPI PUSH2 0x3596 PUSH2 0x353C JUMP JUMPDEST JUMPDEST POP SWAP2 SWAP1 POP JUMP JUMPDEST PUSH32 0x4E487B7100000000000000000000000000000000000000000000000000000000 PUSH1 0x0 MSTORE PUSH1 0x11 PUSH1 0x4 MSTORE PUSH1 0x24 PUSH1 0x0 REVERT JUMPDEST PUSH1 0x0 PUSH2 0x35D7 DUP3 PUSH2 0x2EB8 JUMP JUMPDEST SWAP2 POP PUSH2 0x35E2 DUP4 PUSH2 0x2EB8 JUMP JUMPDEST SWAP3 POP DUP3 DUP3 LT ISZERO PUSH2 0x35F5 JUMPI PUSH2 0x35F4 PUSH2 0x359D JUMP JUMPDEST JUMPDEST DUP3 DUP3 SUB SWAP1 POP SWAP3 SWAP2 POP POP JUMP JUMPDEST PUSH32 0x4F776E61626C653A2063616C6C6572206973206E6F7420746865206D616E6167 PUSH1 0x0 DUP3 ADD MSTORE PUSH32 0x6572000000000000000000000000000000000000000000000000000000000000 PUSH1 0x20 DUP3 ADD MSTORE POP JUMP JUMPDEST PUSH1 0x0 PUSH2 0x365C PUSH1 0x22 DUP4 PUSH2 0x2EF7 JUMP JUMPDEST SWAP2 POP PUSH2 0x3667 DUP3 PUSH2 0x3600 JUMP JUMPDEST PUSH1 0x40 DUP3 ADD SWAP1 POP SWAP2 SWAP1 POP JUMP JUMPDEST PUSH1 0x0 PUSH1 0x20 DUP3 ADD SWAP1 POP DUP2 DUP2 SUB PUSH1 0x0 DUP4 ADD MSTORE PUSH2 0x368B DUP2 PUSH2 0x364F JUMP JUMPDEST SWAP1 POP SWAP2 SWAP1 POP JUMP JUMPDEST PUSH1 0x0 DUP2 MLOAD SWAP1 POP PUSH2 0x36A1 DUP2 PUSH2 0x33C0 JUMP JUMPDEST SWAP3 SWAP2 POP POP JUMP JUMPDEST PUSH1 0x0 PUSH1 0x20 DUP3 DUP5 SUB SLT ISZERO PUSH2 0x36BD JUMPI PUSH2 0x36BC PUSH2 0x2FA7 JUMP JUMPDEST JUMPDEST PUSH1 0x0 PUSH2 0x36CB DUP5 DUP3 DUP6 ADD PUSH2 0x3692 JUMP JUMPDEST SWAP2 POP POP SWAP3 SWAP2 POP POP JUMP JUMPDEST PUSH32 0x57524F4E475F444543494D414C53000000000000000000000000000000000000 PUSH1 0x0 DUP3 ADD MSTORE POP JUMP JUMPDEST PUSH1 0x0 PUSH2 0x370A PUSH1 0xE DUP4 PUSH2 0x2EF7 JUMP JUMPDEST SWAP2 POP PUSH2 0x3715 DUP3 PUSH2 0x36D4 JUMP JUMPDEST PUSH1 0x20 DUP3 ADD SWAP1 POP SWAP2 SWAP1 POP JUMP JUMPDEST PUSH1 0x0 PUSH1 0x20 DUP3 ADD SWAP1 POP DUP2 DUP2 SUB PUSH1 0x0 DUP4 ADD MSTORE PUSH2 0x3739 DUP2 PUSH2 0x36FD JUMP JUMPDEST SWAP1 POP SWAP2 SWAP1 POP JUMP JUMPDEST PUSH32 0x5A45524F5F534841524553000000000000000000000000000000000000000000 PUSH1 0x0 DUP3 ADD MSTORE POP JUMP JUMPDEST PUSH1 0x0 PUSH2 0x3776 PUSH1 0xB DUP4 PUSH2 0x2EF7 JUMP JUMPDEST SWAP2 POP PUSH2 0x3781 DUP3 PUSH2 0x3740 JUMP JUMPDEST PUSH1 0x20 DUP3 ADD SWAP1 POP SWAP2 SWAP1 POP JUMP JUMPDEST PUSH1 0x0 PUSH1 0x20 DUP3 ADD SWAP1 POP DUP2 DUP2 SUB PUSH1 0x0 DUP4 ADD MSTORE PUSH2 0x37A5 DUP2 PUSH2 0x3769 JUMP JUMPDEST SWAP1 POP SWAP2 SWAP1 POP JUMP JUMPDEST PUSH1 0x0 PUSH1 0x40 DUP3 ADD SWAP1 POP PUSH2 0x37C1 PUSH1 0x0 DUP4 ADD DUP6 PUSH2 0x2EC2 JUMP JUMPDEST PUSH2 0x37CE PUSH1 0x20 DUP4 ADD DUP5 PUSH2 0x2EC2 JUMP JUMPDEST SWAP4 SWAP3 POP POP POP JUMP JUMPDEST PUSH32 0x4645455F544F4F5F484947480000000000000000000000000000000000000000 PUSH1 0x0 DUP3 ADD MSTORE POP JUMP JUMPDEST PUSH1 0x0 PUSH2 0x380B PUSH1 0xC DUP4 PUSH2 0x2EF7 JUMP JUMPDEST SWAP2 POP PUSH2 0x3816 DUP3 PUSH2 0x37D5 JUMP JUMPDEST PUSH1 0x20 DUP3 ADD SWAP1 POP SWAP2 SWAP1 POP JUMP JUMPDEST PUSH1 0x0 PUSH1 0x20 DUP3 ADD SWAP1 POP DUP2 DUP2 SUB PUSH1 0x0 DUP4 ADD MSTORE PUSH2 0x383A DUP2 PUSH2 0x37FE JUMP JUMPDEST SWAP1 POP SWAP2 SWAP1 POP JUMP JUMPDEST PUSH32 0x414C52454144595F494E495449414C495A454400000000000000000000000000 PUSH1 0x0 DUP3 ADD MSTORE POP JUMP JUMPDEST PUSH1 0x0 PUSH2 0x3877 PUSH1 0x13 DUP4 PUSH2 0x2EF7 JUMP JUMPDEST SWAP2 POP PUSH2 0x3882 DUP3 PUSH2 0x3841 JUMP JUMPDEST PUSH1 0x20 DUP3 ADD SWAP1 POP SWAP2 SWAP1 POP JUMP JUMPDEST PUSH1 0x0 PUSH1 0x20 DUP3 ADD SWAP1 POP DUP2 DUP2 SUB PUSH1 0x0 DUP4 ADD MSTORE PUSH2 0x38A6 DUP2 PUSH2 0x386A JUMP JUMPDEST SWAP1 POP SWAP2 SWAP1 POP JUMP JUMPDEST PUSH1 0x0 PUSH1 0x40 DUP3 ADD SWAP1 POP PUSH2 0x38C2 PUSH1 0x0 DUP4 ADD DUP6 PUSH2 0x3297 JUMP JUMPDEST PUSH2 0x38CF PUSH1 0x20 DUP4 ADD DUP5 PUSH2 0x2EC2 JUMP JUMPDEST SWAP4 SWAP3 POP POP POP JUMP JUMPDEST PUSH1 0x0 DUP2 MLOAD SWAP1 POP PUSH2 0x38E5 DUP2 PUSH2 0x3163 JUMP JUMPDEST SWAP3 SWAP2 POP POP JUMP JUMPDEST PUSH1 0x0 PUSH1 0x20 DUP3 DUP5 SUB SLT ISZERO PUSH2 0x3901 JUMPI PUSH2 0x3900 PUSH2 0x2FA7 JUMP JUMPDEST JUMPDEST PUSH1 0x0 PUSH2 0x390F DUP5 DUP3 DUP6 ADD PUSH2 0x38D6 JUMP JUMPDEST SWAP2 POP POP SWAP3 SWAP2 POP POP JUMP JUMPDEST PUSH32 0x5A45524F5F415353455453000000000000000000000000000000000000000000 PUSH1 0x0 DUP3 ADD MSTORE POP JUMP JUMPDEST PUSH1 0x0 PUSH2 0x394E PUSH1 0xB DUP4 PUSH2 0x2EF7 JUMP JUMPDEST SWAP2 POP PUSH2 0x3959 DUP3 PUSH2 0x3918 JUMP JUMPDEST PUSH1 0x20 DUP3 ADD SWAP1 POP SWAP2 SWAP1 POP JUMP JUMPDEST PUSH1 0x0 PUSH1 0x20 DUP3 ADD SWAP1 POP DUP2 DUP2 SUB PUSH1 0x0 DUP4 ADD MSTORE PUSH2 0x397D DUP2 PUSH2 0x3941 JUMP JUMPDEST SWAP1 POP SWAP2 SWAP1 POP JUMP JUMPDEST PUSH32 0x5441524745545F544F4F5F484947480000000000000000000000000000000000 PUSH1 0x0 DUP3 ADD MSTORE POP JUMP JUMPDEST PUSH1 0x0 PUSH2 0x39BA PUSH1 0xF DUP4 PUSH2 0x2EF7 JUMP JUMPDEST SWAP2 POP PUSH2 0x39C5 DUP3 PUSH2 0x3984 JUMP JUMPDEST PUSH1 0x20 DUP3 ADD SWAP1 POP SWAP2 SWAP1 POP JUMP JUMPDEST PUSH1 0x0 PUSH1 0x20 DUP3 ADD SWAP1 POP DUP2 DUP2 SUB PUSH1 0x0 DUP4 ADD MSTORE PUSH2 0x39E9 DUP2 PUSH2 0x39AD JUMP JUMPDEST SWAP1 POP SWAP2 SWAP1 POP JUMP JUMPDEST PUSH32 0x5045524D49545F444541444C494E455F45585049524544000000000000000000 PUSH1 0x0 DUP3 ADD MSTORE POP JUMP JUMPDEST PUSH1 0x0 PUSH2 0x3A26 PUSH1 0x17 DUP4 PUSH2 0x2EF7 JUMP JUMPDEST SWAP2 POP PUSH2 0x3A31 DUP3 PUSH2 0x39F0 JUMP JUMPDEST PUSH1 0x20 DUP3 ADD SWAP1 POP SWAP2 SWAP1 POP JUMP JUMPDEST PUSH1 0x0 PUSH1 0x20 DUP3 ADD SWAP1 POP DUP2 DUP2 SUB PUSH1 0x0 DUP4 ADD MSTORE PUSH2 0x3A55 DUP2 PUSH2 0x3A19 JUMP JUMPDEST SWAP1 POP SWAP2 SWAP1 POP JUMP JUMPDEST PUSH1 0x0 PUSH1 0xC0 DUP3 ADD SWAP1 POP PUSH2 0x3A71 PUSH1 0x0 DUP4 ADD DUP10 PUSH2 0x31C6 JUMP JUMPDEST PUSH2 0x3A7E PUSH1 0x20 DUP4 ADD DUP9 PUSH2 0x3297 JUMP JUMPDEST PUSH2 0x3A8B PUSH1 0x40 DUP4 ADD DUP8 PUSH2 0x3297 JUMP JUMPDEST PUSH2 0x3A98 PUSH1 0x60 DUP4 ADD DUP7 PUSH2 0x2EC2 JUMP JUMPDEST PUSH2 0x3AA5 PUSH1 0x80 DUP4 ADD DUP6 PUSH2 0x2EC2 JUMP JUMPDEST PUSH2 0x3AB2 PUSH1 0xA0 DUP4 ADD DUP5 PUSH2 0x2EC2 JUMP JUMPDEST SWAP8 SWAP7 POP POP POP POP POP POP POP JUMP JUMPDEST PUSH1 0x0 DUP2 SWAP1 POP SWAP3 SWAP2 POP POP JUMP JUMPDEST PUSH32 0x1901000000000000000000000000000000000000000000000000000000000000 PUSH1 0x0 DUP3 ADD MSTORE POP JUMP JUMPDEST PUSH1 0x0 PUSH2 0x3AFE PUSH1 0x2 DUP4 PUSH2 0x3ABD JUMP JUMPDEST SWAP2 POP PUSH2 0x3B09 DUP3 PUSH2 0x3AC8 JUMP JUMPDEST PUSH1 0x2 DUP3 ADD SWAP1 POP SWAP2 SWAP1 POP JUMP JUMPDEST PUSH1 0x0 DUP2 SWAP1 POP SWAP2 SWAP1 POP JUMP JUMPDEST PUSH2 0x3B2F PUSH2 0x3B2A DUP3 PUSH2 0x31BC JUMP JUMPDEST PUSH2 0x3B14 JUMP JUMPDEST DUP3 MSTORE POP POP JUMP JUMPDEST PUSH1 0x0 PUSH2 0x3B40 DUP3 PUSH2 0x3AF1 JUMP JUMPDEST SWAP2 POP PUSH2 0x3B4C DUP3 DUP6 PUSH2 0x3B1E JUMP JUMPDEST PUSH1 0x20 DUP3 ADD SWAP2 POP PUSH2 0x3B5C DUP3 DUP5 PUSH2 0x3B1E JUMP JUMPDEST PUSH1 0x20 DUP3 ADD SWAP2 POP DUP2 SWAP1 POP SWAP4 SWAP3 POP POP POP JUMP JUMPDEST PUSH1 0x0 PUSH1 0x80 DUP3 ADD SWAP1 POP PUSH2 0x3B81 PUSH1 0x0 DUP4 ADD DUP8 PUSH2 0x31C6 JUMP JUMPDEST PUSH2 0x3B8E PUSH1 0x20 DUP4 ADD DUP7 PUSH2 0x3139 JUMP JUMPDEST PUSH2 0x3B9B PUSH1 0x40 DUP4 ADD DUP6 PUSH2 0x31C6 JUMP JUMPDEST PUSH2 0x3BA8 PUSH1 0x60 DUP4 ADD DUP5 PUSH2 0x31C6 JUMP JUMPDEST SWAP6 SWAP5 POP POP POP POP POP JUMP JUMPDEST PUSH32 0x494E56414C49445F5349474E4552000000000000000000000000000000000000 PUSH1 0x0 DUP3 ADD MSTORE POP JUMP JUMPDEST PUSH1 0x0 PUSH2 0x3BE7 PUSH1 0xE DUP4 PUSH2 0x2EF7 JUMP JUMPDEST SWAP2 POP PUSH2 0x3BF2 DUP3 PUSH2 0x3BB1 JUMP JUMPDEST PUSH1 0x20 DUP3 ADD SWAP1 POP SWAP2 SWAP1 POP JUMP JUMPDEST PUSH1 0x0 PUSH1 0x20 DUP3 ADD SWAP1 POP DUP2 DUP2 SUB PUSH1 0x0 DUP4 ADD MSTORE PUSH2 0x3C16 DUP2 PUSH2 0x3BDA JUMP JUMPDEST SWAP1 POP SWAP2 SWAP1 POP JUMP JUMPDEST PUSH32 0x4F776E61626C653A206E6577206D616E6167657220697320746865207A65726F PUSH1 0x0 DUP3 ADD MSTORE PUSH32 0x2061646472657373000000000000000000000000000000000000000000000000 PUSH1 0x20 DUP3 ADD MSTORE POP JUMP JUMPDEST PUSH1 0x0 PUSH2 0x3C79 PUSH1 0x28 DUP4 PUSH2 0x2EF7 JUMP JUMPDEST SWAP2 POP PUSH2 0x3C84 DUP3 PUSH2 0x3C1D JUMP JUMPDEST PUSH1 0x40 DUP3 ADD SWAP1 POP SWAP2 SWAP1 POP JUMP JUMPDEST PUSH1 0x0 PUSH1 0x20 DUP3 ADD SWAP1 POP DUP2 DUP2 SUB PUSH1 0x0 DUP4 ADD MSTORE PUSH2 0x3CA8 DUP2 PUSH2 0x3C6C JUMP JUMPDEST SWAP1 POP SWAP2 SWAP1 POP JUMP JUMPDEST PUSH1 0x0 DUP2 SWAP1 POP SWAP3 SWAP2 POP POP JUMP JUMPDEST PUSH1 0x0 DUP2 SWAP1 POP DUP2 PUSH1 0x0 MSTORE PUSH1 0x20 PUSH1 0x0 KECCAK256 SWAP1 POP SWAP2 SWAP1 POP JUMP JUMPDEST PUSH1 0x0 DUP2 SLOAD PUSH2 0x3CDC DUP2 PUSH2 0x356B JUMP JUMPDEST PUSH2 0x3CE6 DUP2 DUP7 PUSH2 0x3CAF JUMP JUMPDEST SWAP5 POP PUSH1 0x1 DUP3 AND PUSH1 0x0 DUP2 EQ PUSH2 0x3D01 JUMPI PUSH1 0x1 DUP2 EQ PUSH2 0x3D12 JUMPI PUSH2 0x3D45 JUMP JUMPDEST PUSH1 0xFF NOT DUP4 AND DUP7 MSTORE DUP2 DUP7 ADD SWAP4 POP PUSH2 0x3D45 JUMP JUMPDEST PUSH2 0x3D1B DUP6 PUSH2 0x3CBA JUMP JUMPDEST PUSH1 0x0 JUMPDEST DUP4 DUP2 LT ISZERO PUSH2 0x3D3D JUMPI DUP2 SLOAD DUP2 DUP10 ADD MSTORE PUSH1 0x1 DUP3 ADD SWAP2 POP PUSH1 0x20 DUP2 ADD SWAP1 POP PUSH2 0x3D1E JUMP JUMPDEST DUP4 DUP9 ADD SWAP6 POP POP POP JUMPDEST POP POP POP SWAP3 SWAP2 POP POP JUMP JUMPDEST PUSH1 0x0 PUSH2 0x3D5A DUP3 DUP5 PUSH2 0x3CCF JUMP JUMPDEST SWAP2 POP DUP2 SWAP1 POP SWAP3 SWAP2 POP POP JUMP JUMPDEST PUSH1 0x0 PUSH1 0xA0 DUP3 ADD SWAP1 POP PUSH2 0x3D7A PUSH1 0x0 DUP4 ADD DUP9 PUSH2 0x31C6 JUMP JUMPDEST PUSH2 0x3D87 PUSH1 0x20 DUP4 ADD DUP8 PUSH2 0x31C6 JUMP JUMPDEST PUSH2 0x3D94 PUSH1 0x40 DUP4 ADD DUP7 PUSH2 0x31C6 JUMP JUMPDEST PUSH2 0x3DA1 PUSH1 0x60 DUP4 ADD DUP6 PUSH2 0x2EC2 JUMP JUMPDEST PUSH2 0x3DAE PUSH1 0x80 DUP4 ADD DUP5 PUSH2 0x3297 JUMP JUMPDEST SWAP7 SWAP6 POP POP POP POP POP POP JUMP JUMPDEST PUSH32 0x5452414E534645525F46524F4D5F4641494C4544000000000000000000000000 PUSH1 0x0 DUP3 ADD MSTORE POP JUMP JUMPDEST PUSH1 0x0 PUSH2 0x3DEE PUSH1 0x14 DUP4 PUSH2 0x2EF7 JUMP JUMPDEST SWAP2 POP PUSH2 0x3DF9 DUP3 PUSH2 0x3DB8 JUMP JUMPDEST PUSH1 0x20 DUP3 ADD SWAP1 POP SWAP2 SWAP1 POP JUMP JUMPDEST PUSH1 0x0 PUSH1 0x20 DUP3 ADD SWAP1 POP DUP2 DUP2 SUB PUSH1 0x0 DUP4 ADD MSTORE PUSH2 0x3E1D DUP2 PUSH2 0x3DE1 JUMP JUMPDEST SWAP1 POP SWAP2 SWAP1 POP JUMP JUMPDEST PUSH1 0x0 PUSH2 0x3E2F DUP3 PUSH2 0x2EB8 JUMP JUMPDEST SWAP2 POP PUSH2 0x3E3A DUP4 PUSH2 0x2EB8 JUMP JUMPDEST SWAP3 POP DUP3 PUSH32 0xFFFFFFFFFFFFFFFFFFFFFFFFFFFFFFFFFFFFFFFFFFFFFFFFFFFFFFFFFFFFFFFF SUB DUP3 GT ISZERO PUSH2 0x3E6F JUMPI PUSH2 0x3E6E PUSH2 0x359D JUMP JUMPDEST JUMPDEST DUP3 DUP3 ADD SWAP1 POP SWAP3 SWAP2 POP POP JUMP JUMPDEST PUSH1 0x0 PUSH2 0x3E85 DUP3 PUSH2 0x2EB8 JUMP JUMPDEST SWAP2 POP PUSH32 0xFFFFFFFFFFFFFFFFFFFFFFFFFFFFFFFFFFFFFFFFFFFFFFFFFFFFFFFFFFFFFFFF DUP3 EQ ISZERO PUSH2 0x3EB8 JUMPI PUSH2 0x3EB7 PUSH2 0x359D JUMP JUMPDEST JUMPDEST PUSH1 0x1 DUP3 ADD SWAP1 POP SWAP2 SWAP1 POP JUMP JUMPDEST POP JUMP JUMPDEST PUSH1 0x0 PUSH2 0x3ED3 PUSH1 0x0 DUP4 PUSH2 0x3CAF JUMP JUMPDEST SWAP2 POP PUSH2 0x3EDE DUP3 PUSH2 0x3EC3 JUMP JUMPDEST PUSH1 0x0 DUP3 ADD SWAP1 POP SWAP2 SWAP1 POP JUMP JUMPDEST PUSH1 0x0 PUSH2 0x3EF4 DUP3 PUSH2 0x3EC6 JUMP JUMPDEST SWAP2 POP DUP2 SWAP1 POP SWAP2 SWAP1 POP JUMP JUMPDEST PUSH32 0x53747261746567792041206661696C6564000000000000000000000000000000 PUSH1 0x0 DUP3 ADD MSTORE POP JUMP JUMPDEST PUSH1 0x0 PUSH2 0x3F34 PUSH1 0x11 DUP4 PUSH2 0x2EF7 JUMP JUMPDEST SWAP2 POP PUSH2 0x3F3F DUP3 PUSH2 0x3EFE JUMP JUMPDEST PUSH1 0x20 DUP3 ADD SWAP1 POP SWAP2 SWAP1 POP JUMP JUMPDEST PUSH1 0x0 PUSH1 0x20 DUP3 ADD SWAP1 POP DUP2 DUP2 SUB PUSH1 0x0 DUP4 ADD MSTORE PUSH2 0x3F63 DUP2 PUSH2 0x3F27 JUMP JUMPDEST SWAP1 POP SWAP2 SWAP1 POP JUMP JUMPDEST PUSH1 0x0 PUSH2 0x3F85 PUSH2 0x3F80 PUSH2 0x3F7B DUP5 PUSH2 0x3005 JUMP JUMPDEST PUSH2 0x31F0 JUMP JUMPDEST PUSH2 0x2EB8 JUMP JUMPDEST SWAP1 POP SWAP2 SWAP1 POP JUMP JUMPDEST PUSH2 0x3F95 DUP2 PUSH2 0x3F6A JUMP JUMPDEST DUP3 MSTORE POP POP JUMP JUMPDEST PUSH1 0x0 PUSH1 0x20 DUP3 ADD SWAP1 POP PUSH2 0x3FB0 PUSH1 0x0 DUP4 ADD DUP5 PUSH2 0x3F8C JUMP JUMPDEST SWAP3 SWAP2 POP POP JUMP JUMPDEST PUSH32 0x5452414E534645525F4641494C45440000000000000000000000000000000000 PUSH1 0x0 DUP3 ADD MSTORE POP JUMP JUMPDEST PUSH1 0x0 PUSH2 0x3FEC PUSH1 0xF DUP4 PUSH2 0x2EF7 JUMP JUMPDEST SWAP2 POP PUSH2 0x3FF7 DUP3 PUSH2 0x3FB6 JUMP JUMPDEST PUSH1 0x20 DUP3 ADD SWAP1 POP SWAP2 SWAP1 POP JUMP JUMPDEST PUSH1 0x0 PUSH1 0x20 DUP3 ADD SWAP1 POP DUP2 DUP2 SUB PUSH1 0x0 DUP4 ADD MSTORE PUSH2 0x401B DUP2 PUSH2 0x3FDF JUMP JUMPDEST SWAP1 POP SWAP2 SWAP1 POP JUMP INVALID LOG2 PUSH5 0x6970667358 0x22 SLT KECCAK256 SHR PUSH14 0x7B46B7B17E6A2C511D24170F87DA 0xBD SWAP9 CODECOPY 0xB1 0xB8 0x2E CALLDATALOAD PUSH5 0x561C1EA341 0xEA DUP5 PUSH11 0x64736F6C634300080A0033 "
				},
				"gasEstimates": {
					"creation": {
						"codeDepositCost": "3294400",
						"executionCost": "infinite",
						"totalCost": "infinite"
					},
					"external": {
						"DOMAIN_SEPARATOR()": "infinite",
						"UNDERLYING()": "infinite",
						"afterDepositHookCalledCounter()": "2583",
						"allowance(address,address)": "infinite",
						"approve(address,uint256)": "infinite",
						"asset()": "infinite",
						"balanceOf(address)": "2859",
						"beforeWithdrawHookCalledCounter()": "2540",
						"claimFees(uint256)": "infinite",
						"convertToAssets(uint256)": "infinite",
						"convertToShares(uint256)": "infinite",
						"decimals()": "infinite",
						"deposit(uint256,address)": "infinite",
						"destroy()": "30103",
						"feePercent()": "2562",
						"initialize(address,uint160)": "infinite",
						"isInitialized()": "2539",
						"isPublic()": "2676",
						"manager()": "2634",
						"maxDeposit(address)": "741",
						"maxMint(address)": "696",
						"maxRedeem(address)": "2974",
						"maxWithdraw(address)": "infinite",
						"mint(uint256,address)": "infinite",
						"name()": "infinite",
						"nonces(address)": "2925",
						"permit(address,address,uint256,uint256,uint8,bytes32,bytes32)": "infinite",
						"previewDeposit(uint256)": "infinite",
						"previewMint(uint256)": "infinite",
						"previewRedeem(uint256)": "infinite",
						"previewWithdraw(uint256)": "infinite",
						"redeem(uint256,address,address)": "infinite",
						"renounceOwnership()": "30364",
						"setFeePercent(uint256)": "infinite",
						"setTargetFloatPercent(uint256)": "infinite",
						"setUnderlyingIsWETH(bool)": "infinite",
						"symbol()": "infinite",
						"targetFloatPercent()": "2497",
						"totalAssets()": "infinite",
						"totalStrategyHoldings()": "2495",
						"totalSupply()": "2475",
						"transfer(address,uint256)": "infinite",
						"transferFrom(address,address,uint256)": "infinite",
						"transferOwnership(address)": "30756",
						"underlyingIsWETH()": "2603",
						"withdraw(uint256,address,address)": "infinite"
					},
					"internal": {
						"afterDeposit(uint256,uint256)": "24373",
						"beforeWithdraw(uint256,uint256)": "24373",
						"strategyACall(address,uint160,uint256)": "infinite",
						"strategyBCall(address,uint160,uint256)": "infinite"
					}
				},
				"methodIdentifiers": {
					"DOMAIN_SEPARATOR()": "3644e515",
					"UNDERLYING()": "c5d664c6",
					"afterDepositHookCalledCounter()": "fc407ae7",
					"allowance(address,address)": "dd62ed3e",
					"approve(address,uint256)": "095ea7b3",
					"asset()": "38d52e0f",
					"balanceOf(address)": "70a08231",
					"beforeWithdrawHookCalledCounter()": "bc368a8a",
					"claimFees(uint256)": "ac68a748",
					"convertToAssets(uint256)": "07a2d13a",
					"convertToShares(uint256)": "c6e6f592",
					"decimals()": "313ce567",
					"deposit(uint256,address)": "6e553f65",
					"destroy()": "83197ef0",
					"feePercent()": "7fd6f15c",
					"initialize(address,uint160)": "8bf0a96e",
					"isInitialized()": "392e53cd",
					"isPublic()": "dc9a1535",
					"manager()": "481c6a75",
					"maxDeposit(address)": "402d267d",
					"maxMint(address)": "c63d75b6",
					"maxRedeem(address)": "d905777e",
					"maxWithdraw(address)": "ce96cb77",
					"mint(uint256,address)": "94bf804d",
					"name()": "06fdde03",
					"nonces(address)": "7ecebe00",
					"permit(address,address,uint256,uint256,uint8,bytes32,bytes32)": "d505accf",
					"previewDeposit(uint256)": "ef8b30f7",
					"previewMint(uint256)": "b3d7f6b9",
					"previewRedeem(uint256)": "4cdad506",
					"previewWithdraw(uint256)": "0a28a477",
					"redeem(uint256,address,address)": "ba087652",
					"renounceOwnership()": "715018a6",
					"setFeePercent(uint256)": "7ce3489b",
					"setTargetFloatPercent(uint256)": "bd662f88",
					"setUnderlyingIsWETH(bool)": "32ff7732",
					"symbol()": "95d89b41",
					"targetFloatPercent()": "1c693478",
					"totalAssets()": "01e1d114",
					"totalStrategyHoldings()": "ecad9565",
					"totalSupply()": "18160ddd",
					"transfer(address,uint256)": "a9059cbb",
					"transferFrom(address,address,uint256)": "23b872dd",
					"transferOwnership(address)": "f2fde38b",
					"underlyingIsWETH()": "f84d73f4",
					"withdraw(uint256,address,address)": "b460af94"
				}
			},
			"storageLayout": {
				"storage": [
					{
						"astId": 20,
						"contract": "SquiddyCore.sol:SquiddyCore",
						"label": "name",
						"offset": 0,
						"slot": "0",
						"type": "t_string_storage"
					},
					{
						"astId": 22,
						"contract": "SquiddyCore.sol:SquiddyCore",
						"label": "symbol",
						"offset": 0,
						"slot": "1",
						"type": "t_string_storage"
					},
					{
						"astId": 26,
						"contract": "SquiddyCore.sol:SquiddyCore",
						"label": "totalSupply",
						"offset": 0,
						"slot": "2",
						"type": "t_uint256"
					},
					{
						"astId": 30,
						"contract": "SquiddyCore.sol:SquiddyCore",
						"label": "balanceOf",
						"offset": 0,
						"slot": "3",
						"type": "t_mapping(t_address,t_uint256)"
					},
					{
						"astId": 36,
						"contract": "SquiddyCore.sol:SquiddyCore",
						"label": "allowance",
						"offset": 0,
						"slot": "4",
						"type": "t_mapping(t_address,t_mapping(t_address,t_uint256))"
					},
					{
						"astId": 44,
						"contract": "SquiddyCore.sol:SquiddyCore",
						"label": "nonces",
						"offset": 0,
						"slot": "5",
						"type": "t_mapping(t_address,t_uint256)"
					},
					{
						"astId": 1122,
						"contract": "SquiddyCore.sol:SquiddyCore",
						"label": "_manager",
						"offset": 0,
						"slot": "6",
						"type": "t_address"
					},
					{
						"astId": 1125,
						"contract": "SquiddyCore.sol:SquiddyCore",
						"label": "beforeWithdrawHookCalledCounter",
						"offset": 0,
						"slot": "7",
						"type": "t_uint256"
					},
					{
						"astId": 1128,
						"contract": "SquiddyCore.sol:SquiddyCore",
						"label": "afterDepositHookCalledCounter",
						"offset": 0,
						"slot": "8",
						"type": "t_uint256"
					},
					{
						"astId": 1297,
						"contract": "SquiddyCore.sol:SquiddyCore",
						"label": "feePercent",
						"offset": 0,
						"slot": "9",
						"type": "t_uint256"
					},
					{
						"astId": 1350,
						"contract": "SquiddyCore.sol:SquiddyCore",
						"label": "targetFloatPercent",
						"offset": 0,
						"slot": "10",
						"type": "t_uint256"
					},
					{
						"astId": 1379,
						"contract": "SquiddyCore.sol:SquiddyCore",
						"label": "underlyingIsWETH",
						"offset": 0,
						"slot": "11",
						"type": "t_bool"
					},
					{
						"astId": 1413,
						"contract": "SquiddyCore.sol:SquiddyCore",
						"label": "totalStrategyHoldings",
						"offset": 0,
						"slot": "12",
						"type": "t_uint256"
					},
					{
						"astId": 1545,
						"contract": "SquiddyCore.sol:SquiddyCore",
						"label": "isInitialized",
						"offset": 0,
						"slot": "13",
						"type": "t_bool"
					},
					{
						"astId": 1547,
						"contract": "SquiddyCore.sol:SquiddyCore",
						"label": "isPublic",
						"offset": 1,
						"slot": "13",
						"type": "t_bool"
					}
				],
				"types": {
					"t_address": {
						"encoding": "inplace",
						"label": "address",
						"numberOfBytes": "20"
					},
					"t_bool": {
						"encoding": "inplace",
						"label": "bool",
						"numberOfBytes": "1"
					},
					"t_mapping(t_address,t_mapping(t_address,t_uint256))": {
						"encoding": "mapping",
						"key": "t_address",
						"label": "mapping(address => mapping(address => uint256))",
						"numberOfBytes": "32",
						"value": "t_mapping(t_address,t_uint256)"
					},
					"t_mapping(t_address,t_uint256)": {
						"encoding": "mapping",
						"key": "t_address",
						"label": "mapping(address => uint256)",
						"numberOfBytes": "32",
						"value": "t_uint256"
					},
					"t_string_storage": {
						"encoding": "bytes",
						"label": "string",
						"numberOfBytes": "32"
					},
					"t_uint256": {
						"encoding": "inplace",
						"label": "uint256",
						"numberOfBytes": "32"
					}
				}
			},
			"userdoc": {
				"events": {
					"Initialized(address)": {
						"notice": "Emitted when the Vault is initialized."
					}
				},
				"kind": "user",
				"methods": {
					"claimFees(uint256)": {
						"notice": "Claims fees accrued from harvests."
					},
					"destroy()": {
						"notice": "Self destructs a Vault, enabling it to be redeployed."
					},
					"feePercent()": {
						"notice": "The percentage of profit recognized each harvest to reserve as fees."
					},
					"initialize(address,uint160)": {
						"notice": "Initializes the Vault, enabling it to receive deposits."
					},
					"isInitialized()": {
						"notice": "Whether the Vault has been initialized yet."
					},
					"setFeePercent(uint256)": {
						"notice": "Sets a new fee percentage."
					},
					"setTargetFloatPercent(uint256)": {
						"notice": "Set a new target float percentage."
					},
					"setUnderlyingIsWETH(bool)": {
						"notice": "Sets whether the Vault treats the underlying as WETH."
					},
					"targetFloatPercent()": {
						"notice": "The desired percentage of the Vault's holdings to keep as float."
					},
					"totalStrategyHoldings()": {
						"notice": "The total amount of underlying tokens held in strategies at the time of the last harvest."
					},
					"underlyingIsWETH()": {
						"notice": "Whether the Vault should treat the underlying token as WETH compatible."
					}
				},
				"version": 1
			}
		}
	}
}