{
	"SquiddyCore.sol": {
		"SquiddyCore": {
			"abi": [
				{
					"inputs": [
						{
							"internalType": "contract ERC20",
							"name": "_underlying",
							"type": "address"
						},
						{
							"internalType": "string",
							"name": "_name",
							"type": "string"
						},
						{
							"internalType": "string",
							"name": "_symbol",
							"type": "string"
						},
						{
							"internalType": "uint8",
							"name": "_decimals",
							"type": "uint8"
						}
					],
					"stateMutability": "nonpayable",
					"type": "constructor"
				},
				{
					"anonymous": false,
					"inputs": [
						{
							"indexed": true,
							"internalType": "address",
							"name": "owner",
							"type": "address"
						},
						{
							"indexed": true,
							"internalType": "address",
							"name": "spender",
							"type": "address"
						},
						{
							"indexed": false,
							"internalType": "uint256",
							"name": "amount",
							"type": "uint256"
						}
					],
					"name": "Approval",
					"type": "event"
				},
				{
					"anonymous": false,
					"inputs": [
						{
							"indexed": true,
							"internalType": "address",
							"name": "caller",
							"type": "address"
						},
						{
							"indexed": true,
							"internalType": "address",
							"name": "owner",
							"type": "address"
						},
						{
							"indexed": false,
							"internalType": "uint256",
							"name": "assets",
							"type": "uint256"
						},
						{
							"indexed": false,
							"internalType": "uint256",
							"name": "shares",
							"type": "uint256"
						}
					],
					"name": "Deposit",
					"type": "event"
				},
				{
					"anonymous": false,
					"inputs": [
						{
							"indexed": true,
							"internalType": "address",
							"name": "user",
							"type": "address"
						},
						{
							"indexed": false,
							"internalType": "uint256",
							"name": "newFeePercent",
							"type": "uint256"
						}
					],
					"name": "FeePercentUpdated",
					"type": "event"
				},
				{
					"anonymous": false,
					"inputs": [
						{
							"indexed": true,
							"internalType": "address",
							"name": "user",
							"type": "address"
						},
						{
							"indexed": false,
							"internalType": "uint256",
							"name": "sVTokenAmount",
							"type": "uint256"
						}
					],
					"name": "FeesClaimed",
					"type": "event"
				},
				{
					"anonymous": false,
					"inputs": [
						{
							"indexed": true,
							"internalType": "address",
							"name": "vault",
							"type": "address"
						},
						{
							"indexed": false,
							"internalType": "uint256",
							"name": "profitOverLoss",
							"type": "uint256"
						}
					],
					"name": "HarvestStrategyA",
					"type": "event"
				},
				{
					"anonymous": false,
					"inputs": [
						{
							"indexed": true,
							"internalType": "address",
							"name": "vault",
							"type": "address"
						},
						{
							"indexed": false,
							"internalType": "uint256",
							"name": "profitOverLoss",
							"type": "uint256"
						}
					],
					"name": "HarvestStrategyB",
					"type": "event"
				},
				{
					"anonymous": false,
					"inputs": [
						{
							"indexed": true,
							"internalType": "address",
							"name": "previousManager",
							"type": "address"
						},
						{
							"indexed": true,
							"internalType": "address",
							"name": "newManager",
							"type": "address"
						}
					],
					"name": "OwnershipTransferred",
					"type": "event"
				},
				{
					"anonymous": false,
					"inputs": [
						{
							"indexed": true,
							"internalType": "address",
							"name": "searcher",
							"type": "address"
						},
						{
							"indexed": true,
							"internalType": "address",
							"name": "vault",
							"type": "address"
						},
						{
							"indexed": false,
							"internalType": "uint256",
							"name": "value",
							"type": "uint256"
						},
						{
							"indexed": false,
							"internalType": "uint256",
							"name": "duration",
							"type": "uint256"
						}
					],
					"name": "StrategyAInitilized",
					"type": "event"
				},
				{
					"anonymous": false,
					"inputs": [
						{
							"indexed": true,
							"internalType": "address",
							"name": "stakePoolContract",
							"type": "address"
						},
						{
							"indexed": true,
							"internalType": "address",
							"name": "vault",
							"type": "address"
						},
						{
							"indexed": false,
							"internalType": "uint256",
							"name": "value",
							"type": "uint256"
						},
						{
							"indexed": false,
							"internalType": "uint256",
							"name": "duration",
							"type": "uint256"
						}
					],
					"name": "StrategyBInitilized",
					"type": "event"
				},
				{
					"anonymous": false,
					"inputs": [
						{
							"indexed": true,
							"internalType": "address",
							"name": "user",
							"type": "address"
						},
						{
							"indexed": false,
							"internalType": "uint256",
							"name": "newTargetFloatPercent",
							"type": "uint256"
						}
					],
					"name": "TargetFloatPercentUpdated",
					"type": "event"
				},
				{
					"anonymous": false,
					"inputs": [
						{
							"indexed": true,
							"internalType": "address",
							"name": "from",
							"type": "address"
						},
						{
							"indexed": true,
							"internalType": "address",
							"name": "to",
							"type": "address"
						},
						{
							"indexed": false,
							"internalType": "uint256",
							"name": "amount",
							"type": "uint256"
						}
					],
					"name": "Transfer",
					"type": "event"
				},
				{
					"anonymous": false,
					"inputs": [
						{
							"indexed": true,
							"internalType": "address",
							"name": "user",
							"type": "address"
						},
						{
							"indexed": false,
							"internalType": "bool",
							"name": "newUnderlyingIsWETH",
							"type": "bool"
						}
					],
					"name": "UnderlyingIsWETHUpdated",
					"type": "event"
				},
				{
					"anonymous": false,
					"inputs": [
						{
							"indexed": true,
							"internalType": "address",
							"name": "caller",
							"type": "address"
						},
						{
							"indexed": true,
							"internalType": "address",
							"name": "receiver",
							"type": "address"
						},
						{
							"indexed": true,
							"internalType": "address",
							"name": "owner",
							"type": "address"
						},
						{
							"indexed": false,
							"internalType": "uint256",
							"name": "assets",
							"type": "uint256"
						},
						{
							"indexed": false,
							"internalType": "uint256",
							"name": "shares",
							"type": "uint256"
						}
					],
					"name": "Withdraw",
					"type": "event"
				},
				{
					"inputs": [],
					"name": "DOMAIN_SEPARATOR",
					"outputs": [
						{
							"internalType": "bytes32",
							"name": "",
							"type": "bytes32"
						}
					],
					"stateMutability": "view",
					"type": "function"
				},
				{
					"inputs": [],
					"name": "UNDERLYING",
					"outputs": [
						{
							"internalType": "contract ERC20",
							"name": "",
							"type": "address"
						}
					],
					"stateMutability": "view",
					"type": "function"
				},
				{
					"inputs": [],
					"name": "afterDepositHookCalledCounter",
					"outputs": [
						{
							"internalType": "uint256",
							"name": "",
							"type": "uint256"
						}
					],
					"stateMutability": "view",
					"type": "function"
				},
				{
					"inputs": [
						{
							"internalType": "address",
							"name": "",
							"type": "address"
						},
						{
							"internalType": "address",
							"name": "",
							"type": "address"
						}
					],
					"name": "allowance",
					"outputs": [
						{
							"internalType": "uint256",
							"name": "",
							"type": "uint256"
						}
					],
					"stateMutability": "view",
					"type": "function"
				},
				{
					"inputs": [
						{
							"internalType": "address",
							"name": "spender",
							"type": "address"
						},
						{
							"internalType": "uint256",
							"name": "amount",
							"type": "uint256"
						}
					],
					"name": "approve",
					"outputs": [
						{
							"internalType": "bool",
							"name": "",
							"type": "bool"
						}
					],
					"stateMutability": "nonpayable",
					"type": "function"
				},
				{
					"inputs": [],
					"name": "asset",
					"outputs": [
						{
							"internalType": "contract ERC20",
							"name": "",
							"type": "address"
						}
					],
					"stateMutability": "view",
					"type": "function"
				},
				{
					"inputs": [
						{
							"internalType": "address",
							"name": "",
							"type": "address"
						}
					],
					"name": "balanceOf",
					"outputs": [
						{
							"internalType": "uint256",
							"name": "",
							"type": "uint256"
						}
					],
					"stateMutability": "view",
					"type": "function"
				},
				{
					"inputs": [],
					"name": "beforeWithdrawHookCalledCounter",
					"outputs": [
						{
							"internalType": "uint256",
							"name": "",
							"type": "uint256"
						}
					],
					"stateMutability": "view",
					"type": "function"
				},
				{
					"inputs": [
						{
							"internalType": "uint256",
							"name": "sVTokenAmount",
							"type": "uint256"
						}
					],
					"name": "claimFees",
					"outputs": [],
					"stateMutability": "nonpayable",
					"type": "function"
				},
				{
					"inputs": [
						{
							"internalType": "uint256",
							"name": "shares",
							"type": "uint256"
						}
					],
					"name": "convertToAssets",
					"outputs": [
						{
							"internalType": "uint256",
							"name": "",
							"type": "uint256"
						}
					],
					"stateMutability": "view",
					"type": "function"
				},
				{
					"inputs": [
						{
							"internalType": "uint256",
							"name": "assets",
							"type": "uint256"
						}
					],
					"name": "convertToShares",
					"outputs": [
						{
							"internalType": "uint256",
							"name": "",
							"type": "uint256"
						}
					],
					"stateMutability": "view",
					"type": "function"
				},
				{
					"inputs": [],
					"name": "decimals",
					"outputs": [
						{
							"internalType": "uint8",
							"name": "",
							"type": "uint8"
						}
					],
					"stateMutability": "view",
					"type": "function"
				},
				{
					"inputs": [
						{
							"internalType": "uint256",
							"name": "assets",
							"type": "uint256"
						},
						{
							"internalType": "address",
							"name": "receiver",
							"type": "address"
						}
					],
					"name": "deposit",
					"outputs": [
						{
							"internalType": "uint256",
							"name": "shares",
							"type": "uint256"
						}
					],
					"stateMutability": "nonpayable",
					"type": "function"
				},
				{
					"inputs": [],
					"name": "exchangeRate",
					"outputs": [
						{
							"internalType": "uint256",
							"name": "",
							"type": "uint256"
						}
					],
					"stateMutability": "view",
					"type": "function"
				},
				{
					"inputs": [],
					"name": "feePercent",
					"outputs": [
						{
							"internalType": "uint256",
							"name": "",
							"type": "uint256"
						}
					],
					"stateMutability": "view",
					"type": "function"
				},
				{
					"inputs": [],
					"name": "manager",
					"outputs": [
						{
							"internalType": "address",
							"name": "",
							"type": "address"
						}
					],
					"stateMutability": "view",
					"type": "function"
				},
				{
					"inputs": [
						{
							"internalType": "address",
							"name": "",
							"type": "address"
						}
					],
					"name": "maxDeposit",
					"outputs": [
						{
							"internalType": "uint256",
							"name": "",
							"type": "uint256"
						}
					],
					"stateMutability": "view",
					"type": "function"
				},
				{
					"inputs": [
						{
							"internalType": "address",
							"name": "",
							"type": "address"
						}
					],
					"name": "maxMint",
					"outputs": [
						{
							"internalType": "uint256",
							"name": "",
							"type": "uint256"
						}
					],
					"stateMutability": "view",
					"type": "function"
				},
				{
					"inputs": [
						{
							"internalType": "address",
							"name": "owner",
							"type": "address"
						}
					],
					"name": "maxRedeem",
					"outputs": [
						{
							"internalType": "uint256",
							"name": "",
							"type": "uint256"
						}
					],
					"stateMutability": "view",
					"type": "function"
				},
				{
					"inputs": [
						{
							"internalType": "address",
							"name": "owner",
							"type": "address"
						}
					],
					"name": "maxWithdraw",
					"outputs": [
						{
							"internalType": "uint256",
							"name": "",
							"type": "uint256"
						}
					],
					"stateMutability": "view",
					"type": "function"
				},
				{
					"inputs": [
						{
							"internalType": "uint256",
							"name": "shares",
							"type": "uint256"
						},
						{
							"internalType": "address",
							"name": "receiver",
							"type": "address"
						}
					],
					"name": "mint",
					"outputs": [
						{
							"internalType": "uint256",
							"name": "assets",
							"type": "uint256"
						}
					],
					"stateMutability": "nonpayable",
					"type": "function"
				},
				{
					"inputs": [],
					"name": "name",
					"outputs": [
						{
							"internalType": "string",
							"name": "",
							"type": "string"
						}
					],
					"stateMutability": "view",
					"type": "function"
				},
				{
					"inputs": [
						{
							"internalType": "address",
							"name": "",
							"type": "address"
						}
					],
					"name": "nonces",
					"outputs": [
						{
							"internalType": "uint256",
							"name": "",
							"type": "uint256"
						}
					],
					"stateMutability": "view",
					"type": "function"
				},
				{
					"inputs": [
						{
							"internalType": "address",
							"name": "owner",
							"type": "address"
						},
						{
							"internalType": "address",
							"name": "spender",
							"type": "address"
						},
						{
							"internalType": "uint256",
							"name": "value",
							"type": "uint256"
						},
						{
							"internalType": "uint256",
							"name": "deadline",
							"type": "uint256"
						},
						{
							"internalType": "uint8",
							"name": "v",
							"type": "uint8"
						},
						{
							"internalType": "bytes32",
							"name": "r",
							"type": "bytes32"
						},
						{
							"internalType": "bytes32",
							"name": "s",
							"type": "bytes32"
						}
					],
					"name": "permit",
					"outputs": [],
					"stateMutability": "nonpayable",
					"type": "function"
				},
				{
					"inputs": [
						{
							"internalType": "uint256",
							"name": "assets",
							"type": "uint256"
						}
					],
					"name": "previewDeposit",
					"outputs": [
						{
							"internalType": "uint256",
							"name": "",
							"type": "uint256"
						}
					],
					"stateMutability": "view",
					"type": "function"
				},
				{
					"inputs": [
						{
							"internalType": "uint256",
							"name": "shares",
							"type": "uint256"
						}
					],
					"name": "previewMint",
					"outputs": [
						{
							"internalType": "uint256",
							"name": "",
							"type": "uint256"
						}
					],
					"stateMutability": "view",
					"type": "function"
				},
				{
					"inputs": [
						{
							"internalType": "uint256",
							"name": "shares",
							"type": "uint256"
						}
					],
					"name": "previewRedeem",
					"outputs": [
						{
							"internalType": "uint256",
							"name": "",
							"type": "uint256"
						}
					],
					"stateMutability": "view",
					"type": "function"
				},
				{
					"inputs": [
						{
							"internalType": "uint256",
							"name": "assets",
							"type": "uint256"
						}
					],
					"name": "previewWithdraw",
					"outputs": [
						{
							"internalType": "uint256",
							"name": "",
							"type": "uint256"
						}
					],
					"stateMutability": "view",
					"type": "function"
				},
				{
					"inputs": [
						{
							"internalType": "uint256",
							"name": "shares",
							"type": "uint256"
						},
						{
							"internalType": "address",
							"name": "receiver",
							"type": "address"
						},
						{
							"internalType": "address",
							"name": "owner",
							"type": "address"
						}
					],
					"name": "redeem",
					"outputs": [
						{
							"internalType": "uint256",
							"name": "assets",
							"type": "uint256"
						}
					],
					"stateMutability": "nonpayable",
					"type": "function"
				},
				{
					"inputs": [],
					"name": "renounceOwnership",
					"outputs": [],
					"stateMutability": "nonpayable",
					"type": "function"
				},
				{
					"inputs": [
						{
							"internalType": "uint256",
							"name": "newFeePercent",
							"type": "uint256"
						}
					],
					"name": "setFeePercent",
					"outputs": [],
					"stateMutability": "nonpayable",
					"type": "function"
				},
				{
					"inputs": [
						{
							"internalType": "uint256",
							"name": "newTargetFloatPercent",
							"type": "uint256"
						}
					],
					"name": "setTargetFloatPercent",
					"outputs": [],
					"stateMutability": "nonpayable",
					"type": "function"
				},
				{
					"inputs": [
						{
							"internalType": "bool",
							"name": "newUnderlyingIsWETH",
							"type": "bool"
						}
					],
					"name": "setUnderlyingIsWETH",
					"outputs": [],
					"stateMutability": "nonpayable",
					"type": "function"
				},
				{
					"inputs": [],
					"name": "symbol",
					"outputs": [
						{
							"internalType": "string",
							"name": "",
							"type": "string"
						}
					],
					"stateMutability": "view",
					"type": "function"
				},
				{
					"inputs": [],
					"name": "targetFloatPercent",
					"outputs": [
						{
							"internalType": "uint256",
							"name": "",
							"type": "uint256"
						}
					],
					"stateMutability": "view",
					"type": "function"
				},
				{
					"inputs": [],
					"name": "totalAssets",
					"outputs": [
						{
							"internalType": "uint256",
							"name": "",
							"type": "uint256"
						}
					],
					"stateMutability": "view",
					"type": "function"
				},
				{
					"inputs": [],
					"name": "totalStrategyHoldings",
					"outputs": [
						{
							"internalType": "uint256",
							"name": "",
							"type": "uint256"
						}
					],
					"stateMutability": "view",
					"type": "function"
				},
				{
					"inputs": [],
					"name": "totalSupply",
					"outputs": [
						{
							"internalType": "uint256",
							"name": "",
							"type": "uint256"
						}
					],
					"stateMutability": "view",
					"type": "function"
				},
				{
					"inputs": [
						{
							"internalType": "address",
							"name": "to",
							"type": "address"
						},
						{
							"internalType": "uint256",
							"name": "amount",
							"type": "uint256"
						}
					],
					"name": "transfer",
					"outputs": [
						{
							"internalType": "bool",
							"name": "",
							"type": "bool"
						}
					],
					"stateMutability": "nonpayable",
					"type": "function"
				},
				{
					"inputs": [
						{
							"internalType": "address",
							"name": "from",
							"type": "address"
						},
						{
							"internalType": "address",
							"name": "to",
							"type": "address"
						},
						{
							"internalType": "uint256",
							"name": "amount",
							"type": "uint256"
						}
					],
					"name": "transferFrom",
					"outputs": [
						{
							"internalType": "bool",
							"name": "",
							"type": "bool"
						}
					],
					"stateMutability": "nonpayable",
					"type": "function"
				},
				{
					"inputs": [
						{
							"internalType": "address",
							"name": "newOwner",
							"type": "address"
						}
					],
					"name": "transferOwnership",
					"outputs": [],
					"stateMutability": "nonpayable",
					"type": "function"
				},
				{
					"inputs": [],
					"name": "underlyingIsWETH",
					"outputs": [
						{
							"internalType": "bool",
							"name": "",
							"type": "bool"
						}
					],
					"stateMutability": "view",
					"type": "function"
				},
				{
					"inputs": [
						{
							"internalType": "uint256",
							"name": "assets",
							"type": "uint256"
						},
						{
							"internalType": "address",
							"name": "receiver",
							"type": "address"
						},
						{
							"internalType": "address",
							"name": "owner",
							"type": "address"
						}
					],
					"name": "withdraw",
					"outputs": [
						{
							"internalType": "uint256",
							"name": "shares",
							"type": "uint256"
						}
					],
					"stateMutability": "nonpayable",
					"type": "function"
				}
			],
			"devdoc": {
				"kind": "dev",
				"methods": {
					"claimFees(uint256)": {
						"details": "Accrued fees are measured as rvTokens held by the Vault.",
						"params": {
							"sVTokenAmount": "The amount of rvTokens to claim."
						}
					},
					"exchangeRate()": {
						"returns": {
							"_0": "The amount of underlying tokens an rvToken can be redeemed for."
						}
					},
					"renounceOwnership()": {
						"details": "Leaves the contract without manager. It will not be possible to call `onlyManager` functions anymore. Can only be called by the current manager. NOTE: Renouncing ownership will leave the contract without an manager, thereby removing any functionality that is only available to the manager."
					},
					"setFeePercent(uint256)": {
						"params": {
							"newFeePercent": "The new fee percentage."
						}
					},
					"setTargetFloatPercent(uint256)": {
						"params": {
							"newTargetFloatPercent": "The new target float percentage."
						}
					},
					"setUnderlyingIsWETH(bool)": {
						"details": "The underlying token must have 18 decimals, to match Ether's decimal scheme.",
						"params": {
							"newUnderlyingIsWETH": "Whether the Vault should treat the underlying as WETH."
						}
					},
					"transferOwnership(address)": {
						"details": "Transfers ownership of the contract to a new account (`newOwner`). Can only be called by the current manager."
					}
				},
				"stateVariables": {
					"feePercent": {
						"details": "A fixed point number where 1e18 represents 100% and 0 represents 0%."
					},
					"targetFloatPercent": {
						"details": "A fixed point number where 1e18 represents 100% and 0 represents 0%."
					},
					"totalStrategyHoldings": {
						"details": "Includes maxLockedProfit, must be correctly subtracted to compute available/free holdings."
					},
					"underlyingIsWETH": {
						"details": "If enabled the Vault will allow trusting strategies that accept Ether."
					}
				},
				"version": 1
			},
			"evm": {
				"assembly": "    /* \"SquiddyCore.sol\":143:8938  contract SquiddyCore is ERC4626 {... */\n  mstore(0x40, 0x0140)\n    /* \"SquiddyCore.sol\":266:267  0 */\n  0x00\n    /* \"SquiddyCore.sol\":217:267  uint256 public beforeWithdrawHookCalledCounter = 0 */\n  0x07\n  sstore\n    /* \"SquiddyCore.sol\":320:321  0 */\n  0x00\n    /* \"SquiddyCore.sol\":273:321  uint256 public afterDepositHookCalledCounter = 0 */\n  0x08\n  sstore\n    /* \"SquiddyCore.sol\":1840:2227  constructor(... */\n  callvalue\n  dup1\n  iszero\n  tag_1\n  jumpi\n  0x00\n  dup1\n  revert\ntag_1:\n  pop\n  mload(0x40)\n  sub(codesize, bytecodeSize)\n  dup1\n  bytecodeSize\n  dup4\n  codecopy\n  dup2\n  dup2\n  add\n  0x40\n  mstore\n  dup2\n  add\n  swap1\n  tag_2\n  swap2\n  swap1\n  tag_3\n  jump\t// in\ntag_2:\n    /* \"SquiddyCore.sol\":1978:1989  _underlying */\n  dup4\n    /* \"SquiddyCore.sol\":1991:1996  _name */\n  dup4\n    /* \"SquiddyCore.sol\":1998:2005  _symbol */\n  dup4\n    /* \"SquiddyCore.sol\":2007:2016  _decimals */\n  dup4\n    /* \"ERC4626.sol\":1331:1336  _name */\n  dup3\n    /* \"ERC4626.sol\":1338:1345  _symbol */\n  dup3\n    /* \"ERC4626.sol\":1347:1356  _decimals */\n  dup3\n    /* \"ERC20.sol\":2131:2136  _name */\n  dup3\n    /* \"ERC20.sol\":2124:2128  name */\n  0x00\n    /* \"ERC20.sol\":2124:2136  name = _name */\n  swap1\n  dup2\n  tag_8\n  swap2\n  swap1\n  tag_9\n  jump\t// in\ntag_8:\n  pop\n    /* \"ERC20.sol\":2155:2162  _symbol */\n  dup2\n    /* \"ERC20.sol\":2146:2152  symbol */\n  0x01\n    /* \"ERC20.sol\":2146:2162  symbol = _symbol */\n  swap1\n  dup2\n  tag_10\n  swap2\n  swap1\n  tag_9\n  jump\t// in\ntag_10:\n  pop\n    /* \"ERC20.sol\":2183:2192  _decimals */\n  dup1\n    /* \"ERC20.sol\":2172:2192  decimals = _decimals */\n  0xff\n  and\n  0x80\n  dup2\n  0xff\n  and\n  dup2\n  mstore\n  pop\n  pop\n    /* \"ERC20.sol\":2222:2235  block.chainid */\n  chainid\n    /* \"ERC20.sol\":2203:2235  INITIAL_CHAIN_ID = block.chainid */\n  0xa0\n  dup2\n  dup2\n  mstore\n  pop\n  pop\n    /* \"ERC20.sol\":2272:2296  computeDomainSeparator() */\n  tag_11\n    /* \"ERC20.sol\":2272:2294  computeDomainSeparator */\n  shl(0x20, tag_12)\n    /* \"ERC20.sol\":2272:2296  computeDomainSeparator() */\n  0x20\n  shr\n  jump\t// in\ntag_11:\n    /* \"ERC20.sol\":2245:2296  INITIAL_DOMAIN_SEPARATOR = computeDomainSeparator() */\n  0xc0\n  dup2\n  dup2\n  mstore\n  pop\n  pop\n    /* \"ERC20.sol\":2011:2303  constructor(... */\n  pop\n  pop\n  pop\n    /* \"ERC4626.sol\":1376:1382  _asset */\n  dup4\n    /* \"ERC4626.sol\":1368:1382  asset = _asset */\n  0xffffffffffffffffffffffffffffffffffffffff\n  and\n  0xe0\n  dup2\n  0xffffffffffffffffffffffffffffffffffffffff\n  and\n  dup2\n  mstore\n  pop\n  pop\n    /* \"ERC4626.sol\":1200:1389  constructor(... */\n  pop\n  pop\n  pop\n  pop\n    /* \"SquiddyCore.sol\":2041:2052  _underlying */\n  dup4\n    /* \"SquiddyCore.sol\":2028:2052  UNDERLYING = _underlying */\n  0xffffffffffffffffffffffffffffffffffffffff\n  and\n  0x0120\n  dup2\n  0xffffffffffffffffffffffffffffffffffffffff\n  and\n  dup2\n  mstore\n  pop\n  pop\n    /* \"SquiddyCore.sol\":2079:2087  decimals */\n  mload(0x80)\n    /* \"SquiddyCore.sol\":2075:2077  10 */\n  0x0a\n    /* \"SquiddyCore.sol\":2075:2087  10**decimals */\n  tag_15\n  swap2\n  swap1\n  tag_16\n  jump\t// in\ntag_15:\n    /* \"SquiddyCore.sol\":2063:2087  BASE_UNIT = 10**decimals */\n  0x0100\n  dup2\n  dup2\n  mstore\n  pop\n  pop\n    /* \"SquiddyCore.sol\":2203:2220  type(uint256).max */\n  0xffffffffffffffffffffffffffffffffffffffffffffffffffffffffffffffff\n    /* \"SquiddyCore.sol\":2189:2200  totalSupply */\n  0x02\n    /* \"SquiddyCore.sol\":2189:2220  totalSupply = type(uint256).max */\n  dup2\n  swap1\n  sstore\n  pop\n    /* \"SquiddyCore.sol\":1840:2227  constructor(... */\n  pop\n  pop\n  pop\n  pop\n    /* \"SquiddyCore.sol\":143:8938  contract SquiddyCore is ERC4626 {... */\n  jump(tag_17)\n    /* \"ERC20.sol\":5698:6190  function computeDomainSeparator() internal view virtual returns (bytes32) {... */\ntag_12:\n    /* \"ERC20.sol\":5763:5770  bytes32 */\n  0x00\n    /* \"ERC20.sol\":5860:6001  keccak256(... */\n  0x8b73c3c69bb8fe3d512ecc4cf759cc79239f7b179b0ffacaa9a75d522b39400f\n    /* \"ERC20.sol\":6039:6043  name */\n  0x00\n    /* \"ERC20.sol\":6023:6045  keccak256(bytes(name)) */\n  mload(0x40)\n  tag_19\n  swap2\n  swap1\n  tag_20\n  jump\t// in\ntag_19:\n  mload(0x40)\n  dup1\n  swap2\n  sub\n  swap1\n  keccak256\n    /* \"ERC20.sol\":6067:6081  keccak256(\"1\") */\n  0xc89efdaa54c0f20c7adf612882df0950f5a951637e0307cdcb4c672f298b8bc6\n    /* \"ERC20.sol\":6103:6116  block.chainid */\n  chainid\n    /* \"ERC20.sol\":6146:6150  this */\n  address\n    /* \"ERC20.sol\":5828:6169  abi.encode(... */\n  add(0x20, mload(0x40))\n  tag_21\n  swap6\n  swap5\n  swap4\n  swap3\n  swap2\n  swap1\n  tag_22\n  jump\t// in\ntag_21:\n  mload(0x40)\n  0x20\n  dup2\n  dup4\n  sub\n  sub\n  dup2\n  mstore\n  swap1\n  0x40\n  mstore\n    /* \"ERC20.sol\":5801:6183  keccak256(... */\n  dup1\n  mload\n  swap1\n  0x20\n  add\n  keccak256\n    /* \"ERC20.sol\":5782:6183  return... */\n  swap1\n  pop\n    /* \"ERC20.sol\":5698:6190  function computeDomainSeparator() internal view virtual returns (bytes32) {... */\n  swap1\n  jump\t// out\n    /* \"#utility.yul\":7:82   */\ntag_23:\n    /* \"#utility.yul\":40:46   */\n  0x00\n    /* \"#utility.yul\":73:75   */\n  0x40\n    /* \"#utility.yul\":67:76   */\n  mload\n    /* \"#utility.yul\":57:76   */\n  swap1\n  pop\n    /* \"#utility.yul\":7:82   */\n  swap1\n  jump\t// out\n    /* \"#utility.yul\":88:205   */\ntag_24:\n    /* \"#utility.yul\":197:198   */\n  0x00\n    /* \"#utility.yul\":194:195   */\n  dup1\n    /* \"#utility.yul\":187:199   */\n  revert\n    /* \"#utility.yul\":211:328   */\ntag_25:\n    /* \"#utility.yul\":320:321   */\n  0x00\n    /* \"#utility.yul\":317:318   */\n  dup1\n    /* \"#utility.yul\":310:322   */\n  revert\n    /* \"#utility.yul\":334:460   */\ntag_26:\n    /* \"#utility.yul\":371:378   */\n  0x00\n    /* \"#utility.yul\":411:453   */\n  0xffffffffffffffffffffffffffffffffffffffff\n    /* \"#utility.yul\":404:409   */\n  dup3\n    /* \"#utility.yul\":400:454   */\n  and\n    /* \"#utility.yul\":389:454   */\n  swap1\n  pop\n    /* \"#utility.yul\":334:460   */\n  swap2\n  swap1\n  pop\n  jump\t// out\n    /* \"#utility.yul\":466:562   */\ntag_27:\n    /* \"#utility.yul\":503:510   */\n  0x00\n    /* \"#utility.yul\":532:556   */\n  tag_80\n    /* \"#utility.yul\":550:555   */\n  dup3\n    /* \"#utility.yul\":532:556   */\n  tag_26\n  jump\t// in\ntag_80:\n    /* \"#utility.yul\":521:556   */\n  swap1\n  pop\n    /* \"#utility.yul\":466:562   */\n  swap2\n  swap1\n  pop\n  jump\t// out\n    /* \"#utility.yul\":568:677   */\ntag_28:\n    /* \"#utility.yul\":618:625   */\n  0x00\n    /* \"#utility.yul\":647:671   */\n  tag_82\n    /* \"#utility.yul\":665:670   */\n  dup3\n    /* \"#utility.yul\":647:671   */\n  tag_27\n  jump\t// in\ntag_82:\n    /* \"#utility.yul\":636:671   */\n  swap1\n  pop\n    /* \"#utility.yul\":568:677   */\n  swap2\n  swap1\n  pop\n  jump\t// out\n    /* \"#utility.yul\":683:831   */\ntag_29:\n    /* \"#utility.yul\":769:806   */\n  tag_84\n    /* \"#utility.yul\":800:805   */\n  dup2\n    /* \"#utility.yul\":769:806   */\n  tag_28\n  jump\t// in\ntag_84:\n    /* \"#utility.yul\":762:767   */\n  dup2\n    /* \"#utility.yul\":759:807   */\n  eq\n    /* \"#utility.yul\":749:825   */\n  tag_85\n  jumpi\n    /* \"#utility.yul\":821:822   */\n  0x00\n    /* \"#utility.yul\":818:819   */\n  dup1\n    /* \"#utility.yul\":811:823   */\n  revert\n    /* \"#utility.yul\":749:825   */\ntag_85:\n    /* \"#utility.yul\":683:831   */\n  pop\n  jump\t// out\n    /* \"#utility.yul\":837:1006   */\ntag_30:\n    /* \"#utility.yul\":907:912   */\n  0x00\n    /* \"#utility.yul\":938:944   */\n  dup2\n    /* \"#utility.yul\":932:945   */\n  mload\n    /* \"#utility.yul\":923:945   */\n  swap1\n  pop\n    /* \"#utility.yul\":954:1000   */\n  tag_87\n    /* \"#utility.yul\":994:999   */\n  dup2\n    /* \"#utility.yul\":954:1000   */\n  tag_29\n  jump\t// in\ntag_87:\n    /* \"#utility.yul\":837:1006   */\n  swap3\n  swap2\n  pop\n  pop\n  jump\t// out\n    /* \"#utility.yul\":1012:1129   */\ntag_31:\n    /* \"#utility.yul\":1121:1122   */\n  0x00\n    /* \"#utility.yul\":1118:1119   */\n  dup1\n    /* \"#utility.yul\":1111:1123   */\n  revert\n    /* \"#utility.yul\":1135:1252   */\ntag_32:\n    /* \"#utility.yul\":1244:1245   */\n  0x00\n    /* \"#utility.yul\":1241:1242   */\n  dup1\n    /* \"#utility.yul\":1234:1246   */\n  revert\n    /* \"#utility.yul\":1258:1360   */\ntag_33:\n    /* \"#utility.yul\":1299:1305   */\n  0x00\n    /* \"#utility.yul\":1350:1352   */\n  0x1f\n    /* \"#utility.yul\":1346:1353   */\n  not\n    /* \"#utility.yul\":1341:1343   */\n  0x1f\n    /* \"#utility.yul\":1334:1339   */\n  dup4\n    /* \"#utility.yul\":1330:1344   */\n  add\n    /* \"#utility.yul\":1326:1354   */\n  and\n    /* \"#utility.yul\":1316:1354   */\n  swap1\n  pop\n    /* \"#utility.yul\":1258:1360   */\n  swap2\n  swap1\n  pop\n  jump\t// out\n    /* \"#utility.yul\":1366:1546   */\ntag_34:\n    /* \"#utility.yul\":1414:1491   */\n  0x4e487b7100000000000000000000000000000000000000000000000000000000\n    /* \"#utility.yul\":1411:1412   */\n  0x00\n    /* \"#utility.yul\":1404:1492   */\n  mstore\n    /* \"#utility.yul\":1511:1515   */\n  0x41\n    /* \"#utility.yul\":1508:1509   */\n  0x04\n    /* \"#utility.yul\":1501:1516   */\n  mstore\n    /* \"#utility.yul\":1535:1539   */\n  0x24\n    /* \"#utility.yul\":1532:1533   */\n  0x00\n    /* \"#utility.yul\":1525:1540   */\n  revert\n    /* \"#utility.yul\":1552:1833   */\ntag_35:\n    /* \"#utility.yul\":1635:1662   */\n  tag_93\n    /* \"#utility.yul\":1657:1661   */\n  dup3\n    /* \"#utility.yul\":1635:1662   */\n  tag_33\n  jump\t// in\ntag_93:\n    /* \"#utility.yul\":1627:1633   */\n  dup2\n    /* \"#utility.yul\":1623:1663   */\n  add\n    /* \"#utility.yul\":1765:1771   */\n  dup2\n    /* \"#utility.yul\":1753:1763   */\n  dup2\n    /* \"#utility.yul\":1750:1772   */\n  lt\n    /* \"#utility.yul\":1729:1747   */\n  0xffffffffffffffff\n    /* \"#utility.yul\":1717:1727   */\n  dup3\n    /* \"#utility.yul\":1714:1748   */\n  gt\n    /* \"#utility.yul\":1711:1773   */\n  or\n    /* \"#utility.yul\":1708:1796   */\n  iszero\n  tag_94\n  jumpi\n    /* \"#utility.yul\":1776:1794   */\n  tag_95\n  tag_34\n  jump\t// in\ntag_95:\n    /* \"#utility.yul\":1708:1796   */\ntag_94:\n    /* \"#utility.yul\":1816:1826   */\n  dup1\n    /* \"#utility.yul\":1812:1814   */\n  0x40\n    /* \"#utility.yul\":1805:1827   */\n  mstore\n    /* \"#utility.yul\":1595:1833   */\n  pop\n    /* \"#utility.yul\":1552:1833   */\n  pop\n  pop\n  jump\t// out\n    /* \"#utility.yul\":1839:1968   */\ntag_36:\n    /* \"#utility.yul\":1873:1879   */\n  0x00\n    /* \"#utility.yul\":1900:1920   */\n  tag_97\n  tag_23\n  jump\t// in\ntag_97:\n    /* \"#utility.yul\":1890:1920   */\n  swap1\n  pop\n    /* \"#utility.yul\":1929:1962   */\n  tag_98\n    /* \"#utility.yul\":1957:1961   */\n  dup3\n    /* \"#utility.yul\":1949:1955   */\n  dup3\n    /* \"#utility.yul\":1929:1962   */\n  tag_35\n  jump\t// in\ntag_98:\n    /* \"#utility.yul\":1839:1968   */\n  swap2\n  swap1\n  pop\n  jump\t// out\n    /* \"#utility.yul\":1974:2282   */\ntag_37:\n    /* \"#utility.yul\":2036:2040   */\n  0x00\n    /* \"#utility.yul\":2126:2144   */\n  0xffffffffffffffff\n    /* \"#utility.yul\":2118:2124   */\n  dup3\n    /* \"#utility.yul\":2115:2145   */\n  gt\n    /* \"#utility.yul\":2112:2168   */\n  iszero\n  tag_100\n  jumpi\n    /* \"#utility.yul\":2148:2166   */\n  tag_101\n  tag_34\n  jump\t// in\ntag_101:\n    /* \"#utility.yul\":2112:2168   */\ntag_100:\n    /* \"#utility.yul\":2186:2215   */\n  tag_102\n    /* \"#utility.yul\":2208:2214   */\n  dup3\n    /* \"#utility.yul\":2186:2215   */\n  tag_33\n  jump\t// in\ntag_102:\n    /* \"#utility.yul\":2178:2215   */\n  swap1\n  pop\n    /* \"#utility.yul\":2270:2274   */\n  0x20\n    /* \"#utility.yul\":2264:2268   */\n  dup2\n    /* \"#utility.yul\":2260:2275   */\n  add\n    /* \"#utility.yul\":2252:2275   */\n  swap1\n  pop\n    /* \"#utility.yul\":1974:2282   */\n  swap2\n  swap1\n  pop\n  jump\t// out\n    /* \"#utility.yul\":2288:2534   */\ntag_38:\n    /* \"#utility.yul\":2369:2370   */\n  0x00\n    /* \"#utility.yul\":2379:2492   */\ntag_104:\n    /* \"#utility.yul\":2393:2399   */\n  dup4\n    /* \"#utility.yul\":2390:2391   */\n  dup2\n    /* \"#utility.yul\":2387:2400   */\n  lt\n    /* \"#utility.yul\":2379:2492   */\n  iszero\n  tag_106\n  jumpi\n    /* \"#utility.yul\":2478:2479   */\n  dup1\n    /* \"#utility.yul\":2473:2476   */\n  dup3\n    /* \"#utility.yul\":2469:2480   */\n  add\n    /* \"#utility.yul\":2463:2481   */\n  mload\n    /* \"#utility.yul\":2459:2460   */\n  dup2\n    /* \"#utility.yul\":2454:2457   */\n  dup5\n    /* \"#utility.yul\":2450:2461   */\n  add\n    /* \"#utility.yul\":2443:2482   */\n  mstore\n    /* \"#utility.yul\":2415:2417   */\n  0x20\n    /* \"#utility.yul\":2412:2413   */\n  dup2\n    /* \"#utility.yul\":2408:2418   */\n  add\n    /* \"#utility.yul\":2403:2418   */\n  swap1\n  pop\n    /* \"#utility.yul\":2379:2492   */\n  jump(tag_104)\ntag_106:\n    /* \"#utility.yul\":2526:2527   */\n  0x00\n    /* \"#utility.yul\":2517:2523   */\n  dup5\n    /* \"#utility.yul\":2512:2515   */\n  dup5\n    /* \"#utility.yul\":2508:2524   */\n  add\n    /* \"#utility.yul\":2501:2528   */\n  mstore\n    /* \"#utility.yul\":2350:2534   */\n  pop\n    /* \"#utility.yul\":2288:2534   */\n  pop\n  pop\n  pop\n  jump\t// out\n    /* \"#utility.yul\":2540:2974   */\ntag_39:\n    /* \"#utility.yul\":2629:2634   */\n  0x00\n    /* \"#utility.yul\":2654:2720   */\n  tag_108\n    /* \"#utility.yul\":2670:2719   */\n  tag_109\n    /* \"#utility.yul\":2712:2718   */\n  dup5\n    /* \"#utility.yul\":2670:2719   */\n  tag_37\n  jump\t// in\ntag_109:\n    /* \"#utility.yul\":2654:2720   */\n  tag_36\n  jump\t// in\ntag_108:\n    /* \"#utility.yul\":2645:2720   */\n  swap1\n  pop\n    /* \"#utility.yul\":2743:2749   */\n  dup3\n    /* \"#utility.yul\":2736:2741   */\n  dup2\n    /* \"#utility.yul\":2729:2750   */\n  mstore\n    /* \"#utility.yul\":2781:2785   */\n  0x20\n    /* \"#utility.yul\":2774:2779   */\n  dup2\n    /* \"#utility.yul\":2770:2786   */\n  add\n    /* \"#utility.yul\":2819:2822   */\n  dup5\n    /* \"#utility.yul\":2810:2816   */\n  dup5\n    /* \"#utility.yul\":2805:2808   */\n  dup5\n    /* \"#utility.yul\":2801:2817   */\n  add\n    /* \"#utility.yul\":2798:2823   */\n  gt\n    /* \"#utility.yul\":2795:2907   */\n  iszero\n  tag_110\n  jumpi\n    /* \"#utility.yul\":2826:2905   */\n  tag_111\n  tag_32\n  jump\t// in\ntag_111:\n    /* \"#utility.yul\":2795:2907   */\ntag_110:\n    /* \"#utility.yul\":2916:2968   */\n  tag_112\n    /* \"#utility.yul\":2961:2967   */\n  dup5\n    /* \"#utility.yul\":2956:2959   */\n  dup3\n    /* \"#utility.yul\":2951:2954   */\n  dup6\n    /* \"#utility.yul\":2916:2968   */\n  tag_38\n  jump\t// in\ntag_112:\n    /* \"#utility.yul\":2635:2974   */\n  pop\n    /* \"#utility.yul\":2540:2974   */\n  swap4\n  swap3\n  pop\n  pop\n  pop\n  jump\t// out\n    /* \"#utility.yul\":2994:3349   */\ntag_40:\n    /* \"#utility.yul\":3061:3066   */\n  0x00\n    /* \"#utility.yul\":3110:3113   */\n  dup3\n    /* \"#utility.yul\":3103:3107   */\n  0x1f\n    /* \"#utility.yul\":3095:3101   */\n  dup4\n    /* \"#utility.yul\":3091:3108   */\n  add\n    /* \"#utility.yul\":3087:3114   */\n  slt\n    /* \"#utility.yul\":3077:3199   */\n  tag_114\n  jumpi\n    /* \"#utility.yul\":3118:3197   */\n  tag_115\n  tag_31\n  jump\t// in\ntag_115:\n    /* \"#utility.yul\":3077:3199   */\ntag_114:\n    /* \"#utility.yul\":3228:3234   */\n  dup2\n    /* \"#utility.yul\":3222:3235   */\n  mload\n    /* \"#utility.yul\":3253:3343   */\n  tag_116\n    /* \"#utility.yul\":3339:3342   */\n  dup5\n    /* \"#utility.yul\":3331:3337   */\n  dup3\n    /* \"#utility.yul\":3324:3328   */\n  0x20\n    /* \"#utility.yul\":3316:3322   */\n  dup7\n    /* \"#utility.yul\":3312:3329   */\n  add\n    /* \"#utility.yul\":3253:3343   */\n  tag_39\n  jump\t// in\ntag_116:\n    /* \"#utility.yul\":3244:3343   */\n  swap2\n  pop\n    /* \"#utility.yul\":3067:3349   */\n  pop\n    /* \"#utility.yul\":2994:3349   */\n  swap3\n  swap2\n  pop\n  pop\n  jump\t// out\n    /* \"#utility.yul\":3355:3441   */\ntag_41:\n    /* \"#utility.yul\":3390:3397   */\n  0x00\n    /* \"#utility.yul\":3430:3434   */\n  0xff\n    /* \"#utility.yul\":3423:3428   */\n  dup3\n    /* \"#utility.yul\":3419:3435   */\n  and\n    /* \"#utility.yul\":3408:3435   */\n  swap1\n  pop\n    /* \"#utility.yul\":3355:3441   */\n  swap2\n  swap1\n  pop\n  jump\t// out\n    /* \"#utility.yul\":3447:3565   */\ntag_42:\n    /* \"#utility.yul\":3518:3540   */\n  tag_119\n    /* \"#utility.yul\":3534:3539   */\n  dup2\n    /* \"#utility.yul\":3518:3540   */\n  tag_41\n  jump\t// in\ntag_119:\n    /* \"#utility.yul\":3511:3516   */\n  dup2\n    /* \"#utility.yul\":3508:3541   */\n  eq\n    /* \"#utility.yul\":3498:3559   */\n  tag_120\n  jumpi\n    /* \"#utility.yul\":3555:3556   */\n  0x00\n    /* \"#utility.yul\":3552:3553   */\n  dup1\n    /* \"#utility.yul\":3545:3557   */\n  revert\n    /* \"#utility.yul\":3498:3559   */\ntag_120:\n    /* \"#utility.yul\":3447:3565   */\n  pop\n  jump\t// out\n    /* \"#utility.yul\":3571:3710   */\ntag_43:\n    /* \"#utility.yul\":3626:3631   */\n  0x00\n    /* \"#utility.yul\":3657:3663   */\n  dup2\n    /* \"#utility.yul\":3651:3664   */\n  mload\n    /* \"#utility.yul\":3642:3664   */\n  swap1\n  pop\n    /* \"#utility.yul\":3673:3704   */\n  tag_122\n    /* \"#utility.yul\":3698:3703   */\n  dup2\n    /* \"#utility.yul\":3673:3704   */\n  tag_42\n  jump\t// in\ntag_122:\n    /* \"#utility.yul\":3571:3710   */\n  swap3\n  swap2\n  pop\n  pop\n  jump\t// out\n    /* \"#utility.yul\":3716:4904   */\ntag_3:\n    /* \"#utility.yul\":3844:3850   */\n  0x00\n    /* \"#utility.yul\":3852:3858   */\n  dup1\n    /* \"#utility.yul\":3860:3866   */\n  0x00\n    /* \"#utility.yul\":3868:3874   */\n  dup1\n    /* \"#utility.yul\":3917:3920   */\n  0x80\n    /* \"#utility.yul\":3905:3914   */\n  dup6\n    /* \"#utility.yul\":3896:3903   */\n  dup8\n    /* \"#utility.yul\":3892:3915   */\n  sub\n    /* \"#utility.yul\":3888:3921   */\n  slt\n    /* \"#utility.yul\":3885:4005   */\n  iszero\n  tag_124\n  jumpi\n    /* \"#utility.yul\":3924:4003   */\n  tag_125\n  tag_24\n  jump\t// in\ntag_125:\n    /* \"#utility.yul\":3885:4005   */\ntag_124:\n    /* \"#utility.yul\":4044:4045   */\n  0x00\n    /* \"#utility.yul\":4069:4146   */\n  tag_126\n    /* \"#utility.yul\":4138:4145   */\n  dup8\n    /* \"#utility.yul\":4129:4135   */\n  dup3\n    /* \"#utility.yul\":4118:4127   */\n  dup9\n    /* \"#utility.yul\":4114:4136   */\n  add\n    /* \"#utility.yul\":4069:4146   */\n  tag_30\n  jump\t// in\ntag_126:\n    /* \"#utility.yul\":4059:4146   */\n  swap5\n  pop\n    /* \"#utility.yul\":4015:4156   */\n  pop\n    /* \"#utility.yul\":4216:4218   */\n  0x20\n    /* \"#utility.yul\":4205:4214   */\n  dup6\n    /* \"#utility.yul\":4201:4219   */\n  add\n    /* \"#utility.yul\":4195:4220   */\n  mload\n    /* \"#utility.yul\":4247:4265   */\n  0xffffffffffffffff\n    /* \"#utility.yul\":4239:4245   */\n  dup2\n    /* \"#utility.yul\":4236:4266   */\n  gt\n    /* \"#utility.yul\":4233:4350   */\n  iszero\n  tag_127\n  jumpi\n    /* \"#utility.yul\":4269:4348   */\n  tag_128\n  tag_25\n  jump\t// in\ntag_128:\n    /* \"#utility.yul\":4233:4350   */\ntag_127:\n    /* \"#utility.yul\":4374:4448   */\n  tag_129\n    /* \"#utility.yul\":4440:4447   */\n  dup8\n    /* \"#utility.yul\":4431:4437   */\n  dup3\n    /* \"#utility.yul\":4420:4429   */\n  dup9\n    /* \"#utility.yul\":4416:4438   */\n  add\n    /* \"#utility.yul\":4374:4448   */\n  tag_40\n  jump\t// in\ntag_129:\n    /* \"#utility.yul\":4364:4448   */\n  swap4\n  pop\n    /* \"#utility.yul\":4166:4458   */\n  pop\n    /* \"#utility.yul\":4518:4520   */\n  0x40\n    /* \"#utility.yul\":4507:4516   */\n  dup6\n    /* \"#utility.yul\":4503:4521   */\n  add\n    /* \"#utility.yul\":4497:4522   */\n  mload\n    /* \"#utility.yul\":4549:4567   */\n  0xffffffffffffffff\n    /* \"#utility.yul\":4541:4547   */\n  dup2\n    /* \"#utility.yul\":4538:4568   */\n  gt\n    /* \"#utility.yul\":4535:4652   */\n  iszero\n  tag_130\n  jumpi\n    /* \"#utility.yul\":4571:4650   */\n  tag_131\n  tag_25\n  jump\t// in\ntag_131:\n    /* \"#utility.yul\":4535:4652   */\ntag_130:\n    /* \"#utility.yul\":4676:4750   */\n  tag_132\n    /* \"#utility.yul\":4742:4749   */\n  dup8\n    /* \"#utility.yul\":4733:4739   */\n  dup3\n    /* \"#utility.yul\":4722:4731   */\n  dup9\n    /* \"#utility.yul\":4718:4740   */\n  add\n    /* \"#utility.yul\":4676:4750   */\n  tag_40\n  jump\t// in\ntag_132:\n    /* \"#utility.yul\":4666:4750   */\n  swap3\n  pop\n    /* \"#utility.yul\":4468:4760   */\n  pop\n    /* \"#utility.yul\":4799:4801   */\n  0x60\n    /* \"#utility.yul\":4825:4887   */\n  tag_133\n    /* \"#utility.yul\":4879:4886   */\n  dup8\n    /* \"#utility.yul\":4870:4876   */\n  dup3\n    /* \"#utility.yul\":4859:4868   */\n  dup9\n    /* \"#utility.yul\":4855:4877   */\n  add\n    /* \"#utility.yul\":4825:4887   */\n  tag_43\n  jump\t// in\ntag_133:\n    /* \"#utility.yul\":4815:4887   */\n  swap2\n  pop\n    /* \"#utility.yul\":4770:4897   */\n  pop\n    /* \"#utility.yul\":3716:4904   */\n  swap3\n  swap6\n  swap2\n  swap5\n  pop\n  swap3\n  pop\n  jump\t// out\n    /* \"#utility.yul\":4910:5009   */\ntag_44:\n    /* \"#utility.yul\":4962:4968   */\n  0x00\n    /* \"#utility.yul\":4996:5001   */\n  dup2\n    /* \"#utility.yul\":4990:5002   */\n  mload\n    /* \"#utility.yul\":4980:5002   */\n  swap1\n  pop\n    /* \"#utility.yul\":4910:5009   */\n  swap2\n  swap1\n  pop\n  jump\t// out\n    /* \"#utility.yul\":5015:5195   */\ntag_45:\n    /* \"#utility.yul\":5063:5140   */\n  0x4e487b7100000000000000000000000000000000000000000000000000000000\n    /* \"#utility.yul\":5060:5061   */\n  0x00\n    /* \"#utility.yul\":5053:5141   */\n  mstore\n    /* \"#utility.yul\":5160:5164   */\n  0x22\n    /* \"#utility.yul\":5157:5158   */\n  0x04\n    /* \"#utility.yul\":5150:5165   */\n  mstore\n    /* \"#utility.yul\":5184:5188   */\n  0x24\n    /* \"#utility.yul\":5181:5182   */\n  0x00\n    /* \"#utility.yul\":5174:5189   */\n  revert\n    /* \"#utility.yul\":5201:5521   */\ntag_46:\n    /* \"#utility.yul\":5245:5251   */\n  0x00\n    /* \"#utility.yul\":5282:5283   */\n  0x02\n    /* \"#utility.yul\":5276:5280   */\n  dup3\n    /* \"#utility.yul\":5272:5284   */\n  div\n    /* \"#utility.yul\":5262:5284   */\n  swap1\n  pop\n    /* \"#utility.yul\":5329:5330   */\n  0x01\n    /* \"#utility.yul\":5323:5327   */\n  dup3\n    /* \"#utility.yul\":5319:5331   */\n  and\n    /* \"#utility.yul\":5350:5368   */\n  dup1\n    /* \"#utility.yul\":5340:5421   */\n  tag_137\n  jumpi\n    /* \"#utility.yul\":5406:5410   */\n  0x7f\n    /* \"#utility.yul\":5398:5404   */\n  dup3\n    /* \"#utility.yul\":5394:5411   */\n  and\n    /* \"#utility.yul\":5384:5411   */\n  swap2\n  pop\n    /* \"#utility.yul\":5340:5421   */\ntag_137:\n    /* \"#utility.yul\":5468:5470   */\n  0x20\n    /* \"#utility.yul\":5460:5466   */\n  dup3\n    /* \"#utility.yul\":5457:5471   */\n  lt\n    /* \"#utility.yul\":5437:5455   */\n  dup2\n    /* \"#utility.yul\":5434:5472   */\n  sub\n    /* \"#utility.yul\":5431:5515   */\n  tag_138\n  jumpi\n    /* \"#utility.yul\":5487:5505   */\n  tag_139\n  tag_45\n  jump\t// in\ntag_139:\n    /* \"#utility.yul\":5431:5515   */\ntag_138:\n    /* \"#utility.yul\":5252:5521   */\n  pop\n    /* \"#utility.yul\":5201:5521   */\n  swap2\n  swap1\n  pop\n  jump\t// out\n    /* \"#utility.yul\":5527:5668   */\ntag_47:\n    /* \"#utility.yul\":5576:5580   */\n  0x00\n    /* \"#utility.yul\":5599:5602   */\n  dup2\n    /* \"#utility.yul\":5591:5602   */\n  swap1\n  pop\n    /* \"#utility.yul\":5622:5625   */\n  dup2\n    /* \"#utility.yul\":5619:5620   */\n  0x00\n    /* \"#utility.yul\":5612:5626   */\n  mstore\n    /* \"#utility.yul\":5656:5660   */\n  0x20\n    /* \"#utility.yul\":5653:5654   */\n  0x00\n    /* \"#utility.yul\":5643:5661   */\n  keccak256\n    /* \"#utility.yul\":5635:5661   */\n  swap1\n  pop\n    /* \"#utility.yul\":5527:5668   */\n  swap2\n  swap1\n  pop\n  jump\t// out\n    /* \"#utility.yul\":5674:5767   */\ntag_48:\n    /* \"#utility.yul\":5711:5717   */\n  0x00\n    /* \"#utility.yul\":5758:5760   */\n  0x20\n    /* \"#utility.yul\":5753:5755   */\n  0x1f\n    /* \"#utility.yul\":5746:5751   */\n  dup4\n    /* \"#utility.yul\":5742:5756   */\n  add\n    /* \"#utility.yul\":5738:5761   */\n  div\n    /* \"#utility.yul\":5728:5761   */\n  swap1\n  pop\n    /* \"#utility.yul\":5674:5767   */\n  swap2\n  swap1\n  pop\n  jump\t// out\n    /* \"#utility.yul\":5773:5880   */\ntag_49:\n    /* \"#utility.yul\":5817:5825   */\n  0x00\n    /* \"#utility.yul\":5867:5872   */\n  dup3\n    /* \"#utility.yul\":5861:5865   */\n  dup3\n    /* \"#utility.yul\":5857:5873   */\n  shl\n    /* \"#utility.yul\":5836:5873   */\n  swap1\n  pop\n    /* \"#utility.yul\":5773:5880   */\n  swap3\n  swap2\n  pop\n  pop\n  jump\t// out\n    /* \"#utility.yul\":5886:6279   */\ntag_50:\n    /* \"#utility.yul\":5955:5961   */\n  0x00\n    /* \"#utility.yul\":6005:6006   */\n  0x08\n    /* \"#utility.yul\":5993:6003   */\n  dup4\n    /* \"#utility.yul\":5989:6007   */\n  mul\n    /* \"#utility.yul\":6028:6125   */\n  tag_144\n    /* \"#utility.yul\":6058:6124   */\n  0xffffffffffffffffffffffffffffffffffffffffffffffffffffffffffffffff\n    /* \"#utility.yul\":6047:6056   */\n  dup3\n    /* \"#utility.yul\":6028:6125   */\n  tag_49\n  jump\t// in\ntag_144:\n    /* \"#utility.yul\":6146:6185   */\n  tag_145\n    /* \"#utility.yul\":6176:6184   */\n  dup7\n    /* \"#utility.yul\":6165:6174   */\n  dup4\n    /* \"#utility.yul\":6146:6185   */\n  tag_49\n  jump\t// in\ntag_145:\n    /* \"#utility.yul\":6134:6185   */\n  swap6\n  pop\n    /* \"#utility.yul\":6218:6222   */\n  dup1\n    /* \"#utility.yul\":6214:6223   */\n  not\n    /* \"#utility.yul\":6207:6212   */\n  dup5\n    /* \"#utility.yul\":6203:6224   */\n  and\n    /* \"#utility.yul\":6194:6224   */\n  swap4\n  pop\n    /* \"#utility.yul\":6267:6271   */\n  dup1\n    /* \"#utility.yul\":6257:6265   */\n  dup7\n    /* \"#utility.yul\":6253:6272   */\n  and\n    /* \"#utility.yul\":6246:6251   */\n  dup5\n    /* \"#utility.yul\":6243:6273   */\n  or\n    /* \"#utility.yul\":6233:6273   */\n  swap3\n  pop\n    /* \"#utility.yul\":5962:6279   */\n  pop\n  pop\n    /* \"#utility.yul\":5886:6279   */\n  swap4\n  swap3\n  pop\n  pop\n  pop\n  jump\t// out\n    /* \"#utility.yul\":6285:6362   */\ntag_51:\n    /* \"#utility.yul\":6322:6329   */\n  0x00\n    /* \"#utility.yul\":6351:6356   */\n  dup2\n    /* \"#utility.yul\":6340:6356   */\n  swap1\n  pop\n    /* \"#utility.yul\":6285:6362   */\n  swap2\n  swap1\n  pop\n  jump\t// out\n    /* \"#utility.yul\":6368:6428   */\ntag_52:\n    /* \"#utility.yul\":6396:6399   */\n  0x00\n    /* \"#utility.yul\":6417:6422   */\n  dup2\n    /* \"#utility.yul\":6410:6422   */\n  swap1\n  pop\n    /* \"#utility.yul\":6368:6428   */\n  swap2\n  swap1\n  pop\n  jump\t// out\n    /* \"#utility.yul\":6434:6576   */\ntag_53:\n    /* \"#utility.yul\":6484:6493   */\n  0x00\n    /* \"#utility.yul\":6517:6570   */\n  tag_149\n    /* \"#utility.yul\":6535:6569   */\n  tag_150\n    /* \"#utility.yul\":6544:6568   */\n  tag_151\n    /* \"#utility.yul\":6562:6567   */\n  dup5\n    /* \"#utility.yul\":6544:6568   */\n  tag_51\n  jump\t// in\ntag_151:\n    /* \"#utility.yul\":6535:6569   */\n  tag_52\n  jump\t// in\ntag_150:\n    /* \"#utility.yul\":6517:6570   */\n  tag_51\n  jump\t// in\ntag_149:\n    /* \"#utility.yul\":6504:6570   */\n  swap1\n  pop\n    /* \"#utility.yul\":6434:6576   */\n  swap2\n  swap1\n  pop\n  jump\t// out\n    /* \"#utility.yul\":6582:6657   */\ntag_54:\n    /* \"#utility.yul\":6625:6628   */\n  0x00\n    /* \"#utility.yul\":6646:6651   */\n  dup2\n    /* \"#utility.yul\":6639:6651   */\n  swap1\n  pop\n    /* \"#utility.yul\":6582:6657   */\n  swap2\n  swap1\n  pop\n  jump\t// out\n    /* \"#utility.yul\":6663:6932   */\ntag_55:\n    /* \"#utility.yul\":6773:6812   */\n  tag_154\n    /* \"#utility.yul\":6804:6811   */\n  dup4\n    /* \"#utility.yul\":6773:6812   */\n  tag_53\n  jump\t// in\ntag_154:\n    /* \"#utility.yul\":6834:6925   */\n  tag_155\n    /* \"#utility.yul\":6883:6924   */\n  tag_156\n    /* \"#utility.yul\":6907:6923   */\n  dup3\n    /* \"#utility.yul\":6883:6924   */\n  tag_54\n  jump\t// in\ntag_156:\n    /* \"#utility.yul\":6875:6881   */\n  dup5\n    /* \"#utility.yul\":6868:6872   */\n  dup5\n    /* \"#utility.yul\":6862:6873   */\n  sload\n    /* \"#utility.yul\":6834:6925   */\n  tag_50\n  jump\t// in\ntag_155:\n    /* \"#utility.yul\":6828:6832   */\n  dup3\n    /* \"#utility.yul\":6821:6926   */\n  sstore\n    /* \"#utility.yul\":6739:6932   */\n  pop\n    /* \"#utility.yul\":6663:6932   */\n  pop\n  pop\n  pop\n  jump\t// out\n    /* \"#utility.yul\":6938:7011   */\ntag_56:\n    /* \"#utility.yul\":6983:6986   */\n  0x00\n    /* \"#utility.yul\":6938:7011   */\n  swap1\n  jump\t// out\n    /* \"#utility.yul\":7017:7206   */\ntag_57:\n    /* \"#utility.yul\":7094:7126   */\n  tag_159\n  tag_56\n  jump\t// in\ntag_159:\n    /* \"#utility.yul\":7135:7200   */\n  tag_160\n    /* \"#utility.yul\":7193:7199   */\n  dup2\n    /* \"#utility.yul\":7185:7191   */\n  dup5\n    /* \"#utility.yul\":7179:7183   */\n  dup5\n    /* \"#utility.yul\":7135:7200   */\n  tag_55\n  jump\t// in\ntag_160:\n    /* \"#utility.yul\":7070:7206   */\n  pop\n    /* \"#utility.yul\":7017:7206   */\n  pop\n  pop\n  jump\t// out\n    /* \"#utility.yul\":7212:7398   */\ntag_58:\n    /* \"#utility.yul\":7272:7392   */\ntag_162:\n    /* \"#utility.yul\":7289:7292   */\n  dup2\n    /* \"#utility.yul\":7282:7287   */\n  dup2\n    /* \"#utility.yul\":7279:7293   */\n  lt\n    /* \"#utility.yul\":7272:7392   */\n  iszero\n  tag_164\n  jumpi\n    /* \"#utility.yul\":7343:7382   */\n  tag_165\n    /* \"#utility.yul\":7380:7381   */\n  0x00\n    /* \"#utility.yul\":7373:7378   */\n  dup3\n    /* \"#utility.yul\":7343:7382   */\n  tag_57\n  jump\t// in\ntag_165:\n    /* \"#utility.yul\":7316:7317   */\n  0x01\n    /* \"#utility.yul\":7309:7314   */\n  dup2\n    /* \"#utility.yul\":7305:7318   */\n  add\n    /* \"#utility.yul\":7296:7318   */\n  swap1\n  pop\n    /* \"#utility.yul\":7272:7392   */\n  jump(tag_162)\ntag_164:\n    /* \"#utility.yul\":7212:7398   */\n  pop\n  pop\n  jump\t// out\n    /* \"#utility.yul\":7404:7947   */\ntag_59:\n    /* \"#utility.yul\":7505:7507   */\n  0x1f\n    /* \"#utility.yul\":7500:7503   */\n  dup3\n    /* \"#utility.yul\":7497:7508   */\n  gt\n    /* \"#utility.yul\":7494:7940   */\n  iszero\n  tag_167\n  jumpi\n    /* \"#utility.yul\":7539:7577   */\n  tag_168\n    /* \"#utility.yul\":7571:7576   */\n  dup2\n    /* \"#utility.yul\":7539:7577   */\n  tag_47\n  jump\t// in\ntag_168:\n    /* \"#utility.yul\":7623:7652   */\n  tag_169\n    /* \"#utility.yul\":7641:7651   */\n  dup5\n    /* \"#utility.yul\":7623:7652   */\n  tag_48\n  jump\t// in\ntag_169:\n    /* \"#utility.yul\":7613:7621   */\n  dup2\n    /* \"#utility.yul\":7609:7653   */\n  add\n    /* \"#utility.yul\":7806:7808   */\n  0x20\n    /* \"#utility.yul\":7794:7804   */\n  dup6\n    /* \"#utility.yul\":7791:7809   */\n  lt\n    /* \"#utility.yul\":7788:7837   */\n  iszero\n  tag_170\n  jumpi\n    /* \"#utility.yul\":7827:7835   */\n  dup2\n    /* \"#utility.yul\":7812:7835   */\n  swap1\n  pop\n    /* \"#utility.yul\":7788:7837   */\ntag_170:\n    /* \"#utility.yul\":7850:7930   */\n  tag_171\n    /* \"#utility.yul\":7906:7928   */\n  tag_172\n    /* \"#utility.yul\":7924:7927   */\n  dup6\n    /* \"#utility.yul\":7906:7928   */\n  tag_48\n  jump\t// in\ntag_172:\n    /* \"#utility.yul\":7896:7904   */\n  dup4\n    /* \"#utility.yul\":7892:7929   */\n  add\n    /* \"#utility.yul\":7879:7890   */\n  dup3\n    /* \"#utility.yul\":7850:7930   */\n  tag_58\n  jump\t// in\ntag_171:\n    /* \"#utility.yul\":7509:7940   */\n  pop\n  pop\n    /* \"#utility.yul\":7494:7940   */\ntag_167:\n    /* \"#utility.yul\":7404:7947   */\n  pop\n  pop\n  pop\n  jump\t// out\n    /* \"#utility.yul\":7953:8070   */\ntag_60:\n    /* \"#utility.yul\":8007:8015   */\n  0x00\n    /* \"#utility.yul\":8057:8062   */\n  dup3\n    /* \"#utility.yul\":8051:8055   */\n  dup3\n    /* \"#utility.yul\":8047:8063   */\n  shr\n    /* \"#utility.yul\":8026:8063   */\n  swap1\n  pop\n    /* \"#utility.yul\":7953:8070   */\n  swap3\n  swap2\n  pop\n  pop\n  jump\t// out\n    /* \"#utility.yul\":8076:8245   */\ntag_61:\n    /* \"#utility.yul\":8120:8126   */\n  0x00\n    /* \"#utility.yul\":8153:8204   */\n  tag_175\n    /* \"#utility.yul\":8201:8202   */\n  0x00\n    /* \"#utility.yul\":8197:8203   */\n  not\n    /* \"#utility.yul\":8189:8194   */\n  dup5\n    /* \"#utility.yul\":8186:8187   */\n  0x08\n    /* \"#utility.yul\":8182:8195   */\n  mul\n    /* \"#utility.yul\":8153:8204   */\n  tag_60\n  jump\t// in\ntag_175:\n    /* \"#utility.yul\":8149:8205   */\n  not\n    /* \"#utility.yul\":8234:8238   */\n  dup1\n    /* \"#utility.yul\":8228:8232   */\n  dup4\n    /* \"#utility.yul\":8224:8239   */\n  and\n    /* \"#utility.yul\":8214:8239   */\n  swap2\n  pop\n    /* \"#utility.yul\":8127:8245   */\n  pop\n    /* \"#utility.yul\":8076:8245   */\n  swap3\n  swap2\n  pop\n  pop\n  jump\t// out\n    /* \"#utility.yul\":8250:8545   */\ntag_62:\n    /* \"#utility.yul\":8326:8330   */\n  0x00\n    /* \"#utility.yul\":8472:8501   */\n  tag_177\n    /* \"#utility.yul\":8497:8500   */\n  dup4\n    /* \"#utility.yul\":8491:8495   */\n  dup4\n    /* \"#utility.yul\":8472:8501   */\n  tag_61\n  jump\t// in\ntag_177:\n    /* \"#utility.yul\":8464:8501   */\n  swap2\n  pop\n    /* \"#utility.yul\":8534:8537   */\n  dup3\n    /* \"#utility.yul\":8531:8532   */\n  0x02\n    /* \"#utility.yul\":8527:8538   */\n  mul\n    /* \"#utility.yul\":8521:8525   */\n  dup3\n    /* \"#utility.yul\":8518:8539   */\n  or\n    /* \"#utility.yul\":8510:8539   */\n  swap1\n  pop\n    /* \"#utility.yul\":8250:8545   */\n  swap3\n  swap2\n  pop\n  pop\n  jump\t// out\n    /* \"#utility.yul\":8550:9945   */\ntag_9:\n    /* \"#utility.yul\":8667:8704   */\n  tag_179\n    /* \"#utility.yul\":8700:8703   */\n  dup3\n    /* \"#utility.yul\":8667:8704   */\n  tag_44\n  jump\t// in\ntag_179:\n    /* \"#utility.yul\":8769:8787   */\n  0xffffffffffffffff\n    /* \"#utility.yul\":8761:8767   */\n  dup2\n    /* \"#utility.yul\":8758:8788   */\n  gt\n    /* \"#utility.yul\":8755:8811   */\n  iszero\n  tag_180\n  jumpi\n    /* \"#utility.yul\":8791:8809   */\n  tag_181\n  tag_34\n  jump\t// in\ntag_181:\n    /* \"#utility.yul\":8755:8811   */\ntag_180:\n    /* \"#utility.yul\":8835:8873   */\n  tag_182\n    /* \"#utility.yul\":8867:8871   */\n  dup3\n    /* \"#utility.yul\":8861:8872   */\n  sload\n    /* \"#utility.yul\":8835:8873   */\n  tag_46\n  jump\t// in\ntag_182:\n    /* \"#utility.yul\":8920:8987   */\n  tag_183\n    /* \"#utility.yul\":8980:8986   */\n  dup3\n    /* \"#utility.yul\":8972:8978   */\n  dup3\n    /* \"#utility.yul\":8966:8970   */\n  dup6\n    /* \"#utility.yul\":8920:8987   */\n  tag_59\n  jump\t// in\ntag_183:\n    /* \"#utility.yul\":9014:9015   */\n  0x00\n    /* \"#utility.yul\":9038:9042   */\n  0x20\n    /* \"#utility.yul\":9025:9042   */\n  swap1\n  pop\n    /* \"#utility.yul\":9070:9072   */\n  0x1f\n    /* \"#utility.yul\":9062:9068   */\n  dup4\n    /* \"#utility.yul\":9059:9073   */\n  gt\n    /* \"#utility.yul\":9087:9088   */\n  0x01\n    /* \"#utility.yul\":9082:9700   */\n  dup2\n  eq\n  tag_185\n  jumpi\n    /* \"#utility.yul\":9744:9745   */\n  0x00\n    /* \"#utility.yul\":9761:9767   */\n  dup5\n    /* \"#utility.yul\":9758:9835   */\n  iszero\n  tag_186\n  jumpi\n    /* \"#utility.yul\":9810:9819   */\n  dup3\n    /* \"#utility.yul\":9805:9808   */\n  dup8\n    /* \"#utility.yul\":9801:9820   */\n  add\n    /* \"#utility.yul\":9795:9821   */\n  mload\n    /* \"#utility.yul\":9786:9821   */\n  swap1\n  pop\n    /* \"#utility.yul\":9758:9835   */\ntag_186:\n    /* \"#utility.yul\":9861:9928   */\n  tag_187\n    /* \"#utility.yul\":9921:9927   */\n  dup6\n    /* \"#utility.yul\":9914:9919   */\n  dup3\n    /* \"#utility.yul\":9861:9928   */\n  tag_62\n  jump\t// in\ntag_187:\n    /* \"#utility.yul\":9855:9859   */\n  dup7\n    /* \"#utility.yul\":9848:9929   */\n  sstore\n    /* \"#utility.yul\":9717:9939   */\n  pop\n    /* \"#utility.yul\":9052:9939   */\n  jump(tag_184)\n    /* \"#utility.yul\":9082:9700   */\ntag_185:\n    /* \"#utility.yul\":9134:9138   */\n  0x1f\n    /* \"#utility.yul\":9130:9139   */\n  not\n    /* \"#utility.yul\":9122:9128   */\n  dup5\n    /* \"#utility.yul\":9118:9140   */\n  and\n    /* \"#utility.yul\":9168:9205   */\n  tag_188\n    /* \"#utility.yul\":9200:9204   */\n  dup7\n    /* \"#utility.yul\":9168:9205   */\n  tag_47\n  jump\t// in\ntag_188:\n    /* \"#utility.yul\":9227:9228   */\n  0x00\n    /* \"#utility.yul\":9241:9449   */\ntag_189:\n    /* \"#utility.yul\":9255:9262   */\n  dup3\n    /* \"#utility.yul\":9252:9253   */\n  dup2\n    /* \"#utility.yul\":9249:9263   */\n  lt\n    /* \"#utility.yul\":9241:9449   */\n  iszero\n  tag_191\n  jumpi\n    /* \"#utility.yul\":9334:9343   */\n  dup5\n    /* \"#utility.yul\":9329:9332   */\n  dup10\n    /* \"#utility.yul\":9325:9344   */\n  add\n    /* \"#utility.yul\":9319:9345   */\n  mload\n    /* \"#utility.yul\":9311:9317   */\n  dup3\n    /* \"#utility.yul\":9304:9346   */\n  sstore\n    /* \"#utility.yul\":9385:9386   */\n  0x01\n    /* \"#utility.yul\":9377:9383   */\n  dup3\n    /* \"#utility.yul\":9373:9387   */\n  add\n    /* \"#utility.yul\":9363:9387   */\n  swap2\n  pop\n    /* \"#utility.yul\":9432:9434   */\n  0x20\n    /* \"#utility.yul\":9421:9430   */\n  dup6\n    /* \"#utility.yul\":9417:9435   */\n  add\n    /* \"#utility.yul\":9404:9435   */\n  swap5\n  pop\n    /* \"#utility.yul\":9278:9282   */\n  0x20\n    /* \"#utility.yul\":9275:9276   */\n  dup2\n    /* \"#utility.yul\":9271:9283   */\n  add\n    /* \"#utility.yul\":9266:9283   */\n  swap1\n  pop\n    /* \"#utility.yul\":9241:9449   */\n  jump(tag_189)\ntag_191:\n    /* \"#utility.yul\":9477:9483   */\n  dup7\n    /* \"#utility.yul\":9468:9475   */\n  dup4\n    /* \"#utility.yul\":9465:9484   */\n  lt\n    /* \"#utility.yul\":9462:9641   */\n  iszero\n  tag_192\n  jumpi\n    /* \"#utility.yul\":9535:9544   */\n  dup5\n    /* \"#utility.yul\":9530:9533   */\n  dup10\n    /* \"#utility.yul\":9526:9545   */\n  add\n    /* \"#utility.yul\":9520:9546   */\n  mload\n    /* \"#utility.yul\":9578:9626   */\n  tag_193\n    /* \"#utility.yul\":9620:9624   */\n  0x1f\n    /* \"#utility.yul\":9612:9618   */\n  dup10\n    /* \"#utility.yul\":9608:9625   */\n  and\n    /* \"#utility.yul\":9597:9606   */\n  dup3\n    /* \"#utility.yul\":9578:9626   */\n  tag_61\n  jump\t// in\ntag_193:\n    /* \"#utility.yul\":9570:9576   */\n  dup4\n    /* \"#utility.yul\":9563:9627   */\n  sstore\n    /* \"#utility.yul\":9485:9641   */\n  pop\n    /* \"#utility.yul\":9462:9641   */\ntag_192:\n    /* \"#utility.yul\":9687:9688   */\n  0x01\n    /* \"#utility.yul\":9683:9684   */\n  0x02\n    /* \"#utility.yul\":9675:9681   */\n  dup9\n    /* \"#utility.yul\":9671:9685   */\n  mul\n    /* \"#utility.yul\":9667:9689   */\n  add\n    /* \"#utility.yul\":9661:9665   */\n  dup9\n    /* \"#utility.yul\":9654:9690   */\n  sstore\n    /* \"#utility.yul\":9089:9700   */\n  pop\n  pop\n  pop\n    /* \"#utility.yul\":9052:9939   */\ntag_184:\n  pop\n    /* \"#utility.yul\":8642:9945   */\n  pop\n  pop\n  pop\n    /* \"#utility.yul\":8550:9945   */\n  pop\n  pop\n  jump\t// out\n    /* \"#utility.yul\":9951:10131   */\ntag_63:\n    /* \"#utility.yul\":9999:10076   */\n  0x4e487b7100000000000000000000000000000000000000000000000000000000\n    /* \"#utility.yul\":9996:9997   */\n  0x00\n    /* \"#utility.yul\":9989:10077   */\n  mstore\n    /* \"#utility.yul\":10096:10100   */\n  0x11\n    /* \"#utility.yul\":10093:10094   */\n  0x04\n    /* \"#utility.yul\":10086:10101   */\n  mstore\n    /* \"#utility.yul\":10120:10124   */\n  0x24\n    /* \"#utility.yul\":10117:10118   */\n  0x00\n    /* \"#utility.yul\":10110:10125   */\n  revert\n    /* \"#utility.yul\":10137:10239   */\ntag_64:\n    /* \"#utility.yul\":10179:10187   */\n  0x00\n    /* \"#utility.yul\":10226:10231   */\n  dup2\n    /* \"#utility.yul\":10223:10224   */\n  0x01\n    /* \"#utility.yul\":10219:10232   */\n  shr\n    /* \"#utility.yul\":10198:10232   */\n  swap1\n  pop\n    /* \"#utility.yul\":10137:10239   */\n  swap2\n  swap1\n  pop\n  jump\t// out\n    /* \"#utility.yul\":10245:11093   */\ntag_65:\n    /* \"#utility.yul\":10306:10311   */\n  0x00\n    /* \"#utility.yul\":10313:10317   */\n  dup1\n    /* \"#utility.yul\":10337:10343   */\n  dup3\n    /* \"#utility.yul\":10328:10343   */\n  swap2\n  pop\n    /* \"#utility.yul\":10361:10366   */\n  dup4\n    /* \"#utility.yul\":10352:10366   */\n  swap1\n  pop\n    /* \"#utility.yul\":10375:11087   */\ntag_197:\n    /* \"#utility.yul\":10396:10397   */\n  0x01\n    /* \"#utility.yul\":10386:10394   */\n  dup6\n    /* \"#utility.yul\":10383:10398   */\n  gt\n    /* \"#utility.yul\":10375:11087   */\n  iszero\n  tag_199\n  jumpi\n    /* \"#utility.yul\":10491:10495   */\n  dup1\n    /* \"#utility.yul\":10486:10489   */\n  dup7\n    /* \"#utility.yul\":10482:10496   */\n  div\n    /* \"#utility.yul\":10476:10480   */\n  dup2\n    /* \"#utility.yul\":10473:10497   */\n  gt\n    /* \"#utility.yul\":10470:10520   */\n  iszero\n  tag_200\n  jumpi\n    /* \"#utility.yul\":10500:10518   */\n  tag_201\n  tag_63\n  jump\t// in\ntag_201:\n    /* \"#utility.yul\":10470:10520   */\ntag_200:\n    /* \"#utility.yul\":10550:10551   */\n  0x01\n    /* \"#utility.yul\":10540:10548   */\n  dup6\n    /* \"#utility.yul\":10536:10552   */\n  and\n    /* \"#utility.yul\":10533:10984   */\n  iszero\n  tag_202\n  jumpi\n    /* \"#utility.yul\":10965:10969   */\n  dup1\n    /* \"#utility.yul\":10958:10963   */\n  dup3\n    /* \"#utility.yul\":10954:10970   */\n  mul\n    /* \"#utility.yul\":10945:10970   */\n  swap2\n  pop\n    /* \"#utility.yul\":10533:10984   */\ntag_202:\n    /* \"#utility.yul\":11015:11019   */\n  dup1\n    /* \"#utility.yul\":11009:11013   */\n  dup2\n    /* \"#utility.yul\":11005:11020   */\n  mul\n    /* \"#utility.yul\":10997:11020   */\n  swap1\n  pop\n    /* \"#utility.yul\":11045:11077   */\n  tag_203\n    /* \"#utility.yul\":11068:11076   */\n  dup6\n    /* \"#utility.yul\":11045:11077   */\n  tag_64\n  jump\t// in\ntag_203:\n    /* \"#utility.yul\":11033:11077   */\n  swap5\n  pop\n    /* \"#utility.yul\":10375:11087   */\n  jump(tag_197)\ntag_199:\n    /* \"#utility.yul\":10245:11093   */\n  swap5\n  pop\n  swap5\n  swap3\n  pop\n  pop\n  pop\n  jump\t// out\n    /* \"#utility.yul\":11099:12172   */\ntag_66:\n    /* \"#utility.yul\":11153:11158   */\n  0x00\n    /* \"#utility.yul\":11344:11352   */\n  dup3\n    /* \"#utility.yul\":11334:11374   */\n  tag_205\n  jumpi\n    /* \"#utility.yul\":11365:11366   */\n  0x01\n    /* \"#utility.yul\":11356:11366   */\n  swap1\n  pop\n    /* \"#utility.yul\":11367:11372   */\n  jump(tag_204)\n    /* \"#utility.yul\":11334:11374   */\ntag_205:\n    /* \"#utility.yul\":11393:11397   */\n  dup2\n    /* \"#utility.yul\":11383:11419   */\n  tag_206\n  jumpi\n    /* \"#utility.yul\":11410:11411   */\n  0x00\n    /* \"#utility.yul\":11401:11411   */\n  swap1\n  pop\n    /* \"#utility.yul\":11412:11417   */\n  jump(tag_204)\n    /* \"#utility.yul\":11383:11419   */\ntag_206:\n    /* \"#utility.yul\":11479:11483   */\n  dup2\n    /* \"#utility.yul\":11527:11528   */\n  0x01\n    /* \"#utility.yul\":11522:11549   */\n  dup2\n  eq\n  tag_208\n  jumpi\n    /* \"#utility.yul\":11563:11564   */\n  0x02\n    /* \"#utility.yul\":11558:11749   */\n  dup2\n  eq\n  tag_209\n  jumpi\n    /* \"#utility.yul\":11472:11749   */\n  jump(tag_207)\n    /* \"#utility.yul\":11522:11549   */\ntag_208:\n    /* \"#utility.yul\":11540:11541   */\n  0x01\n    /* \"#utility.yul\":11531:11541   */\n  swap2\n  pop\n    /* \"#utility.yul\":11542:11547   */\n  pop\n  jump(tag_204)\n    /* \"#utility.yul\":11558:11749   */\ntag_209:\n    /* \"#utility.yul\":11603:11606   */\n  0xff\n    /* \"#utility.yul\":11593:11601   */\n  dup5\n    /* \"#utility.yul\":11590:11607   */\n  gt\n    /* \"#utility.yul\":11587:11630   */\n  iszero\n  tag_210\n  jumpi\n    /* \"#utility.yul\":11610:11628   */\n  tag_211\n  tag_63\n  jump\t// in\ntag_211:\n    /* \"#utility.yul\":11587:11630   */\ntag_210:\n    /* \"#utility.yul\":11659:11667   */\n  dup4\n    /* \"#utility.yul\":11656:11657   */\n  0x02\n    /* \"#utility.yul\":11652:11668   */\n  exp\n    /* \"#utility.yul\":11643:11668   */\n  swap2\n  pop\n    /* \"#utility.yul\":11694:11697   */\n  dup5\n    /* \"#utility.yul\":11687:11692   */\n  dup3\n    /* \"#utility.yul\":11684:11698   */\n  gt\n    /* \"#utility.yul\":11681:11721   */\n  iszero\n  tag_212\n  jumpi\n    /* \"#utility.yul\":11701:11719   */\n  tag_213\n  tag_63\n  jump\t// in\ntag_213:\n    /* \"#utility.yul\":11681:11721   */\ntag_212:\n    /* \"#utility.yul\":11734:11739   */\n  pop\n  jump(tag_204)\n    /* \"#utility.yul\":11472:11749   */\ntag_207:\n  pop\n    /* \"#utility.yul\":11858:11860   */\n  0x20\n    /* \"#utility.yul\":11848:11856   */\n  dup4\n    /* \"#utility.yul\":11845:11861   */\n  lt\n    /* \"#utility.yul\":11839:11842   */\n  0x0133\n    /* \"#utility.yul\":11833:11837   */\n  dup4\n    /* \"#utility.yul\":11830:11843   */\n  lt\n    /* \"#utility.yul\":11826:11862   */\n  and\n    /* \"#utility.yul\":11808:11810   */\n  0x4e\n    /* \"#utility.yul\":11798:11806   */\n  dup5\n    /* \"#utility.yul\":11795:11811   */\n  lt\n    /* \"#utility.yul\":11790:11792   */\n  0x0b\n    /* \"#utility.yul\":11784:11788   */\n  dup5\n    /* \"#utility.yul\":11781:11793   */\n  lt\n    /* \"#utility.yul\":11777:11812   */\n  and\n    /* \"#utility.yul\":11761:11872   */\n  or\n    /* \"#utility.yul\":11758:12004   */\n  iszero\n  tag_214\n  jumpi\n    /* \"#utility.yul\":11914:11922   */\n  dup3\n    /* \"#utility.yul\":11908:11912   */\n  dup3\n    /* \"#utility.yul\":11904:11923   */\n  exp\n    /* \"#utility.yul\":11895:11923   */\n  swap1\n  pop\n    /* \"#utility.yul\":11949:11952   */\n  dup4\n    /* \"#utility.yul\":11942:11947   */\n  dup2\n    /* \"#utility.yul\":11939:11953   */\n  gt\n    /* \"#utility.yul\":11936:11976   */\n  iszero\n  tag_215\n  jumpi\n    /* \"#utility.yul\":11956:11974   */\n  tag_216\n  tag_63\n  jump\t// in\ntag_216:\n    /* \"#utility.yul\":11936:11976   */\ntag_215:\n    /* \"#utility.yul\":11989:11994   */\n  jump(tag_204)\n    /* \"#utility.yul\":11758:12004   */\ntag_214:\n    /* \"#utility.yul\":12029:12071   */\n  tag_217\n    /* \"#utility.yul\":12067:12070   */\n  dup5\n    /* \"#utility.yul\":12057:12065   */\n  dup5\n    /* \"#utility.yul\":12051:12055   */\n  dup5\n    /* \"#utility.yul\":12048:12049   */\n  0x01\n    /* \"#utility.yul\":12029:12071   */\n  tag_65\n  jump\t// in\ntag_217:\n    /* \"#utility.yul\":12014:12071   */\n  swap3\n  pop\n  swap1\n  pop\n    /* \"#utility.yul\":12103:12107   */\n  dup2\n    /* \"#utility.yul\":12098:12101   */\n  dup5\n    /* \"#utility.yul\":12094:12108   */\n  div\n    /* \"#utility.yul\":12087:12092   */\n  dup2\n    /* \"#utility.yul\":12084:12109   */\n  gt\n    /* \"#utility.yul\":12081:12132   */\n  iszero\n  tag_218\n  jumpi\n    /* \"#utility.yul\":12112:12130   */\n  tag_219\n  tag_63\n  jump\t// in\ntag_219:\n    /* \"#utility.yul\":12081:12132   */\ntag_218:\n    /* \"#utility.yul\":12161:12165   */\n  dup2\n    /* \"#utility.yul\":12154:12159   */\n  dup2\n    /* \"#utility.yul\":12150:12166   */\n  mul\n    /* \"#utility.yul\":12141:12166   */\n  swap1\n  pop\n    /* \"#utility.yul\":11099:12172   */\ntag_204:\n  swap4\n  swap3\n  pop\n  pop\n  pop\n  jump\t// out\n    /* \"#utility.yul\":12178:12459   */\ntag_16:\n    /* \"#utility.yul\":12236:12241   */\n  0x00\n    /* \"#utility.yul\":12260:12283   */\n  tag_221\n    /* \"#utility.yul\":12278:12282   */\n  dup3\n    /* \"#utility.yul\":12260:12283   */\n  tag_51\n  jump\t// in\ntag_221:\n    /* \"#utility.yul\":12252:12283   */\n  swap2\n  pop\n    /* \"#utility.yul\":12304:12329   */\n  tag_222\n    /* \"#utility.yul\":12320:12328   */\n  dup4\n    /* \"#utility.yul\":12304:12329   */\n  tag_41\n  jump\t// in\ntag_222:\n    /* \"#utility.yul\":12292:12329   */\n  swap3\n  pop\n    /* \"#utility.yul\":12348:12452   */\n  tag_223\n    /* \"#utility.yul\":12385:12451   */\n  0xffffffffffffffffffffffffffffffffffffffffffffffffffffffffffffffff\n    /* \"#utility.yul\":12375:12383   */\n  dup5\n    /* \"#utility.yul\":12369:12373   */\n  dup5\n    /* \"#utility.yul\":12348:12452   */\n  tag_66\n  jump\t// in\ntag_223:\n    /* \"#utility.yul\":12339:12452   */\n  swap1\n  pop\n    /* \"#utility.yul\":12178:12459   */\n  swap3\n  swap2\n  pop\n  pop\n  jump\t// out\n    /* \"#utility.yul\":12465:12612   */\ntag_67:\n    /* \"#utility.yul\":12566:12577   */\n  0x00\n    /* \"#utility.yul\":12603:12606   */\n  dup2\n    /* \"#utility.yul\":12588:12606   */\n  swap1\n  pop\n    /* \"#utility.yul\":12465:12612   */\n  swap3\n  swap2\n  pop\n  pop\n  jump\t// out\n    /* \"#utility.yul\":12618:12762   */\ntag_68:\n    /* \"#utility.yul\":12670:12674   */\n  0x00\n    /* \"#utility.yul\":12693:12696   */\n  dup2\n    /* \"#utility.yul\":12685:12696   */\n  swap1\n  pop\n    /* \"#utility.yul\":12716:12719   */\n  dup2\n    /* \"#utility.yul\":12713:12714   */\n  0x00\n    /* \"#utility.yul\":12706:12720   */\n  mstore\n    /* \"#utility.yul\":12750:12754   */\n  0x20\n    /* \"#utility.yul\":12747:12748   */\n  0x00\n    /* \"#utility.yul\":12737:12755   */\n  keccak256\n    /* \"#utility.yul\":12729:12755   */\n  swap1\n  pop\n    /* \"#utility.yul\":12618:12762   */\n  swap2\n  swap1\n  pop\n  jump\t// out\n    /* \"#utility.yul\":12790:13668   */\ntag_69:\n    /* \"#utility.yul\":12895:12898   */\n  0x00\n    /* \"#utility.yul\":12932:12937   */\n  dup2\n    /* \"#utility.yul\":12926:12938   */\n  sload\n    /* \"#utility.yul\":12961:12997   */\n  tag_227\n    /* \"#utility.yul\":12987:12996   */\n  dup2\n    /* \"#utility.yul\":12961:12997   */\n  tag_46\n  jump\t// in\ntag_227:\n    /* \"#utility.yul\":13013:13101   */\n  tag_228\n    /* \"#utility.yul\":13094:13100   */\n  dup2\n    /* \"#utility.yul\":13089:13092   */\n  dup7\n    /* \"#utility.yul\":13013:13101   */\n  tag_67\n  jump\t// in\ntag_228:\n    /* \"#utility.yul\":13006:13101   */\n  swap5\n  pop\n    /* \"#utility.yul\":13132:13133   */\n  0x01\n    /* \"#utility.yul\":13121:13130   */\n  dup3\n    /* \"#utility.yul\":13117:13134   */\n  and\n    /* \"#utility.yul\":13148:13149   */\n  0x00\n    /* \"#utility.yul\":13143:13309   */\n  dup2\n  eq\n  tag_230\n  jumpi\n    /* \"#utility.yul\":13323:13324   */\n  0x01\n    /* \"#utility.yul\":13318:13662   */\n  dup2\n  eq\n  tag_231\n  jumpi\n    /* \"#utility.yul\":13110:13662   */\n  jump(tag_229)\n    /* \"#utility.yul\":13143:13309   */\ntag_230:\n    /* \"#utility.yul\":13227:13231   */\n  0xff\n    /* \"#utility.yul\":13223:13232   */\n  not\n    /* \"#utility.yul\":13212:13221   */\n  dup4\n    /* \"#utility.yul\":13208:13233   */\n  and\n    /* \"#utility.yul\":13203:13206   */\n  dup7\n    /* \"#utility.yul\":13196:13234   */\n  mstore\n    /* \"#utility.yul\":13289:13295   */\n  dup2\n    /* \"#utility.yul\":13282:13296   */\n  iszero\n    /* \"#utility.yul\":13275:13297   */\n  iszero\n    /* \"#utility.yul\":13267:13273   */\n  dup3\n    /* \"#utility.yul\":13263:13298   */\n  mul\n    /* \"#utility.yul\":13258:13261   */\n  dup7\n    /* \"#utility.yul\":13254:13299   */\n  add\n    /* \"#utility.yul\":13247:13299   */\n  swap4\n  pop\n    /* \"#utility.yul\":13143:13309   */\n  jump(tag_229)\n    /* \"#utility.yul\":13318:13662   */\ntag_231:\n    /* \"#utility.yul\":13385:13426   */\n  tag_232\n    /* \"#utility.yul\":13420:13425   */\n  dup6\n    /* \"#utility.yul\":13385:13426   */\n  tag_68\n  jump\t// in\ntag_232:\n    /* \"#utility.yul\":13448:13449   */\n  0x00\n    /* \"#utility.yul\":13462:13616   */\ntag_233:\n    /* \"#utility.yul\":13476:13482   */\n  dup4\n    /* \"#utility.yul\":13473:13474   */\n  dup2\n    /* \"#utility.yul\":13470:13483   */\n  lt\n    /* \"#utility.yul\":13462:13616   */\n  iszero\n  tag_235\n  jumpi\n    /* \"#utility.yul\":13550:13557   */\n  dup2\n    /* \"#utility.yul\":13544:13558   */\n  sload\n    /* \"#utility.yul\":13540:13541   */\n  dup2\n    /* \"#utility.yul\":13535:13538   */\n  dup10\n    /* \"#utility.yul\":13531:13542   */\n  add\n    /* \"#utility.yul\":13524:13559   */\n  mstore\n    /* \"#utility.yul\":13600:13601   */\n  0x01\n    /* \"#utility.yul\":13591:13598   */\n  dup3\n    /* \"#utility.yul\":13587:13602   */\n  add\n    /* \"#utility.yul\":13576:13602   */\n  swap2\n  pop\n    /* \"#utility.yul\":13498:13502   */\n  0x20\n    /* \"#utility.yul\":13495:13496   */\n  dup2\n    /* \"#utility.yul\":13491:13503   */\n  add\n    /* \"#utility.yul\":13486:13503   */\n  swap1\n  pop\n    /* \"#utility.yul\":13462:13616   */\n  jump(tag_233)\ntag_235:\n    /* \"#utility.yul\":13645:13651   */\n  dup4\n    /* \"#utility.yul\":13640:13643   */\n  dup9\n    /* \"#utility.yul\":13636:13652   */\n  add\n    /* \"#utility.yul\":13629:13652   */\n  swap6\n  pop\n    /* \"#utility.yul\":13325:13662   */\n  pop\n  pop\n    /* \"#utility.yul\":13110:13662   */\ntag_229:\n  pop\n    /* \"#utility.yul\":12899:13668   */\n  pop\n  pop\n    /* \"#utility.yul\":12790:13668   */\n  swap3\n  swap2\n  pop\n  pop\n  jump\t// out\n    /* \"#utility.yul\":13674:13947   */\ntag_20:\n    /* \"#utility.yul\":13805:13808   */\n  0x00\n    /* \"#utility.yul\":13827:13921   */\n  tag_237\n    /* \"#utility.yul\":13917:13920   */\n  dup3\n    /* \"#utility.yul\":13908:13914   */\n  dup5\n    /* \"#utility.yul\":13827:13921   */\n  tag_69\n  jump\t// in\ntag_237:\n    /* \"#utility.yul\":13820:13921   */\n  swap2\n  pop\n    /* \"#utility.yul\":13938:13941   */\n  dup2\n    /* \"#utility.yul\":13931:13941   */\n  swap1\n  pop\n    /* \"#utility.yul\":13674:13947   */\n  swap3\n  swap2\n  pop\n  pop\n  jump\t// out\n    /* \"#utility.yul\":13953:14030   */\ntag_70:\n    /* \"#utility.yul\":13990:13997   */\n  0x00\n    /* \"#utility.yul\":14019:14024   */\n  dup2\n    /* \"#utility.yul\":14008:14024   */\n  swap1\n  pop\n    /* \"#utility.yul\":13953:14030   */\n  swap2\n  swap1\n  pop\n  jump\t// out\n    /* \"#utility.yul\":14036:14154   */\ntag_71:\n    /* \"#utility.yul\":14123:14147   */\n  tag_240\n    /* \"#utility.yul\":14141:14146   */\n  dup2\n    /* \"#utility.yul\":14123:14147   */\n  tag_70\n  jump\t// in\ntag_240:\n    /* \"#utility.yul\":14118:14121   */\n  dup3\n    /* \"#utility.yul\":14111:14148   */\n  mstore\n    /* \"#utility.yul\":14036:14154   */\n  pop\n  pop\n  jump\t// out\n    /* \"#utility.yul\":14160:14278   */\ntag_72:\n    /* \"#utility.yul\":14247:14271   */\n  tag_242\n    /* \"#utility.yul\":14265:14270   */\n  dup2\n    /* \"#utility.yul\":14247:14271   */\n  tag_51\n  jump\t// in\ntag_242:\n    /* \"#utility.yul\":14242:14245   */\n  dup3\n    /* \"#utility.yul\":14235:14272   */\n  mstore\n    /* \"#utility.yul\":14160:14278   */\n  pop\n  pop\n  jump\t// out\n    /* \"#utility.yul\":14284:14402   */\ntag_73:\n    /* \"#utility.yul\":14371:14395   */\n  tag_244\n    /* \"#utility.yul\":14389:14394   */\n  dup2\n    /* \"#utility.yul\":14371:14395   */\n  tag_27\n  jump\t// in\ntag_244:\n    /* \"#utility.yul\":14366:14369   */\n  dup3\n    /* \"#utility.yul\":14359:14396   */\n  mstore\n    /* \"#utility.yul\":14284:14402   */\n  pop\n  pop\n  jump\t// out\n    /* \"#utility.yul\":14408:15072   */\ntag_22:\n    /* \"#utility.yul\":14613:14617   */\n  0x00\n    /* \"#utility.yul\":14651:14654   */\n  0xa0\n    /* \"#utility.yul\":14640:14649   */\n  dup3\n    /* \"#utility.yul\":14636:14655   */\n  add\n    /* \"#utility.yul\":14628:14655   */\n  swap1\n  pop\n    /* \"#utility.yul\":14665:14736   */\n  tag_246\n    /* \"#utility.yul\":14733:14734   */\n  0x00\n    /* \"#utility.yul\":14722:14731   */\n  dup4\n    /* \"#utility.yul\":14718:14735   */\n  add\n    /* \"#utility.yul\":14709:14715   */\n  dup9\n    /* \"#utility.yul\":14665:14736   */\n  tag_71\n  jump\t// in\ntag_246:\n    /* \"#utility.yul\":14746:14818   */\n  tag_247\n    /* \"#utility.yul\":14814:14816   */\n  0x20\n    /* \"#utility.yul\":14803:14812   */\n  dup4\n    /* \"#utility.yul\":14799:14817   */\n  add\n    /* \"#utility.yul\":14790:14796   */\n  dup8\n    /* \"#utility.yul\":14746:14818   */\n  tag_71\n  jump\t// in\ntag_247:\n    /* \"#utility.yul\":14828:14900   */\n  tag_248\n    /* \"#utility.yul\":14896:14898   */\n  0x40\n    /* \"#utility.yul\":14885:14894   */\n  dup4\n    /* \"#utility.yul\":14881:14899   */\n  add\n    /* \"#utility.yul\":14872:14878   */\n  dup7\n    /* \"#utility.yul\":14828:14900   */\n  tag_71\n  jump\t// in\ntag_248:\n    /* \"#utility.yul\":14910:14982   */\n  tag_249\n    /* \"#utility.yul\":14978:14980   */\n  0x60\n    /* \"#utility.yul\":14967:14976   */\n  dup4\n    /* \"#utility.yul\":14963:14981   */\n  add\n    /* \"#utility.yul\":14954:14960   */\n  dup6\n    /* \"#utility.yul\":14910:14982   */\n  tag_72\n  jump\t// in\ntag_249:\n    /* \"#utility.yul\":14992:15065   */\n  tag_250\n    /* \"#utility.yul\":15060:15063   */\n  0x80\n    /* \"#utility.yul\":15049:15058   */\n  dup4\n    /* \"#utility.yul\":15045:15064   */\n  add\n    /* \"#utility.yul\":15036:15042   */\n  dup5\n    /* \"#utility.yul\":14992:15065   */\n  tag_73\n  jump\t// in\ntag_250:\n    /* \"#utility.yul\":14408:15072   */\n  swap7\n  swap6\n  pop\n  pop\n  pop\n  pop\n  pop\n  pop\n  jump\t// out\n    /* \"SquiddyCore.sol\":143:8938  contract SquiddyCore is ERC4626 {... */\ntag_17:\n  mload(0x80)\n  mload(0xa0)\n  mload(0xc0)\n  mload(0xe0)\n  mload(0x0100)\n  mload(0x0120)\n  codecopy(0x00, dataOffset(sub_0), dataSize(sub_0))\n  0x00\n  assignImmutable(\"0x6b5c062ff531e4aab4774f509e92f4d1142a84e2071479e43245c0e4a7940df4\")\n  0x00\n  assignImmutable(\"0xae7d027a27a067b0ce216b860399a31145ba05bee5d36a5aedd4d9d773c92c99\")\n  0x00\n  assignImmutable(\"0xecac27c21aa9a89d7be9ad03c2d91e82cbd466284ecdf2bd5bad7f953539cc45\")\n  0x00\n  assignImmutable(\"0x880de8116b3dfac28e9ff528a9fef1d1e0a51449c1addce011ffec1f302992b6\")\n  0x00\n  assignImmutable(\"0xd67d834462ca31eaef1f30157e31659f60355143b7441e6fc7d9eae1fa79f3f8\")\n  0x00\n  assignImmutable(\"0x6585423cb6456b1d4957f6454d2f004f0c4f58d53a00082412d5c2ef4b1b31fd\")\n  return(0x00, dataSize(sub_0))\nstop\n\nsub_0: assembly {\n        /* \"SquiddyCore.sol\":143:8938  contract SquiddyCore is ERC4626 {... */\n      mstore(0x40, 0x80)\n      callvalue\n      dup1\n      iszero\n      tag_1\n      jumpi\n      0x00\n      dup1\n      revert\n    tag_1:\n      pop\n      jumpi(tag_2, lt(calldatasize, 0x04))\n      shr(0xe0, calldataload(0x00))\n      dup1\n      0x7fd6f15c\n      gt\n      tag_46\n      jumpi\n      dup1\n      0xc63d75b6\n      gt\n      tag_47\n      jumpi\n      dup1\n      0xdd62ed3e\n      gt\n      tag_48\n      jumpi\n      dup1\n      0xdd62ed3e\n      eq\n      tag_40\n      jumpi\n      dup1\n      0xecad9565\n      eq\n      tag_41\n      jumpi\n      dup1\n      0xef8b30f7\n      eq\n      tag_42\n      jumpi\n      dup1\n      0xf2fde38b\n      eq\n      tag_43\n      jumpi\n      dup1\n      0xf84d73f4\n      eq\n      tag_44\n      jumpi\n      dup1\n      0xfc407ae7\n      eq\n      tag_45\n      jumpi\n      jump(tag_2)\n    tag_48:\n      dup1\n      0xc63d75b6\n      eq\n      tag_35\n      jumpi\n      dup1\n      0xc6e6f592\n      eq\n      tag_36\n      jumpi\n      dup1\n      0xce96cb77\n      eq\n      tag_37\n      jumpi\n      dup1\n      0xd505accf\n      eq\n      tag_38\n      jumpi\n      dup1\n      0xd905777e\n      eq\n      tag_39\n      jumpi\n      jump(tag_2)\n    tag_47:\n      dup1\n      0xb3d7f6b9\n      gt\n      tag_49\n      jumpi\n      dup1\n      0xb3d7f6b9\n      eq\n      tag_29\n      jumpi\n      dup1\n      0xb460af94\n      eq\n      tag_30\n      jumpi\n      dup1\n      0xba087652\n      eq\n      tag_31\n      jumpi\n      dup1\n      0xbc368a8a\n      eq\n      tag_32\n      jumpi\n      dup1\n      0xbd662f88\n      eq\n      tag_33\n      jumpi\n      dup1\n      0xc5d664c6\n      eq\n      tag_34\n      jumpi\n      jump(tag_2)\n    tag_49:\n      dup1\n      0x7fd6f15c\n      eq\n      tag_24\n      jumpi\n      dup1\n      0x94bf804d\n      eq\n      tag_25\n      jumpi\n      dup1\n      0x95d89b41\n      eq\n      tag_26\n      jumpi\n      dup1\n      0xa9059cbb\n      eq\n      tag_27\n      jumpi\n      dup1\n      0xac68a748\n      eq\n      tag_28\n      jumpi\n      jump(tag_2)\n    tag_46:\n      dup1\n      0x3644e515\n      gt\n      tag_50\n      jumpi\n      dup1\n      0x4cdad506\n      gt\n      tag_51\n      jumpi\n      dup1\n      0x4cdad506\n      eq\n      tag_18\n      jumpi\n      dup1\n      0x6e553f65\n      eq\n      tag_19\n      jumpi\n      dup1\n      0x70a08231\n      eq\n      tag_20\n      jumpi\n      dup1\n      0x715018a6\n      eq\n      tag_21\n      jumpi\n      dup1\n      0x7ce3489b\n      eq\n      tag_22\n      jumpi\n      dup1\n      0x7ecebe00\n      eq\n      tag_23\n      jumpi\n      jump(tag_2)\n    tag_51:\n      dup1\n      0x3644e515\n      eq\n      tag_13\n      jumpi\n      dup1\n      0x38d52e0f\n      eq\n      tag_14\n      jumpi\n      dup1\n      0x3ba0b9a9\n      eq\n      tag_15\n      jumpi\n      dup1\n      0x402d267d\n      eq\n      tag_16\n      jumpi\n      dup1\n      0x481c6a75\n      eq\n      tag_17\n      jumpi\n      jump(tag_2)\n    tag_50:\n      dup1\n      0x18160ddd\n      gt\n      tag_52\n      jumpi\n      dup1\n      0x18160ddd\n      eq\n      tag_8\n      jumpi\n      dup1\n      0x1c693478\n      eq\n      tag_9\n      jumpi\n      dup1\n      0x23b872dd\n      eq\n      tag_10\n      jumpi\n      dup1\n      0x313ce567\n      eq\n      tag_11\n      jumpi\n      dup1\n      0x32ff7732\n      eq\n      tag_12\n      jumpi\n      jump(tag_2)\n    tag_52:\n      dup1\n      0x01e1d114\n      eq\n      tag_3\n      jumpi\n      dup1\n      0x06fdde03\n      eq\n      tag_4\n      jumpi\n      dup1\n      0x07a2d13a\n      eq\n      tag_5\n      jumpi\n      dup1\n      0x095ea7b3\n      eq\n      tag_6\n      jumpi\n      dup1\n      0x0a28a477\n      eq\n      tag_7\n      jumpi\n    tag_2:\n      0x00\n      dup1\n      revert\n        /* \"SquiddyCore.sol\":8587:8703  function totalAssets() public view override returns (uint256) {... */\n    tag_3:\n      tag_53\n      tag_54\n      jump\t// in\n    tag_53:\n      mload(0x40)\n      tag_55\n      swap2\n      swap1\n      tag_56\n      jump\t// in\n    tag_55:\n      mload(0x40)\n      dup1\n      swap2\n      sub\n      swap1\n      return\n        /* \"ERC20.sol\":1061:1079  string public name */\n    tag_4:\n      tag_57\n      tag_58\n      jump\t// in\n    tag_57:\n      mload(0x40)\n      tag_59\n      swap2\n      swap1\n      tag_60\n      jump\t// in\n    tag_59:\n      mload(0x40)\n      dup1\n      swap2\n      sub\n      swap1\n      return\n        /* \"ERC4626.sol\":4620:4913  function convertToAssets(uint256 shares)... */\n    tag_5:\n      tag_61\n      0x04\n      dup1\n      calldatasize\n      sub\n      dup2\n      add\n      swap1\n      tag_62\n      swap2\n      swap1\n      tag_63\n      jump\t// in\n    tag_62:\n      tag_64\n      jump\t// in\n    tag_61:\n      mload(0x40)\n      tag_65\n      swap2\n      swap1\n      tag_56\n      jump\t// in\n    tag_65:\n      mload(0x40)\n      dup1\n      swap2\n      sub\n      swap1\n      return\n        /* \"ERC20.sol\":2491:2730  function approve(address spender, uint256 amount)... */\n    tag_6:\n      tag_66\n      0x04\n      dup1\n      calldatasize\n      sub\n      dup2\n      add\n      swap1\n      tag_67\n      swap2\n      swap1\n      tag_68\n      jump\t// in\n    tag_67:\n      tag_69\n      jump\t// in\n    tag_66:\n      mload(0x40)\n      tag_70\n      swap2\n      swap1\n      tag_71\n      jump\t// in\n    tag_70:\n      mload(0x40)\n      dup1\n      swap2\n      sub\n      swap1\n      return\n        /* \"ERC4626.sol\":5343:5634  function previewWithdraw(uint256 assets)... */\n    tag_7:\n      tag_72\n      0x04\n      dup1\n      calldatasize\n      sub\n      dup2\n      add\n      swap1\n      tag_73\n      swap2\n      swap1\n      tag_63\n      jump\t// in\n    tag_73:\n      tag_74\n      jump\t// in\n    tag_72:\n      mload(0x40)\n      tag_75\n      swap2\n      swap1\n      tag_56\n      jump\t// in\n    tag_75:\n      mload(0x40)\n      dup1\n      swap2\n      sub\n      swap1\n      return\n        /* \"ERC20.sol\":1334:1360  uint256 public totalSupply */\n    tag_8:\n      tag_76\n      tag_77\n      jump\t// in\n    tag_76:\n      mload(0x40)\n      tag_78\n      swap2\n      swap1\n      tag_56\n      jump\t// in\n    tag_78:\n      mload(0x40)\n      dup1\n      swap2\n      sub\n      swap1\n      return\n        /* \"SquiddyCore.sol\":5021:5054  uint256 public targetFloatPercent */\n    tag_9:\n      tag_79\n      tag_80\n      jump\t// in\n    tag_79:\n      mload(0x40)\n      tag_81\n      swap2\n      swap1\n      tag_56\n      jump\t// in\n    tag_81:\n      mload(0x40)\n      dup1\n      swap2\n      sub\n      swap1\n      return\n        /* \"ERC20.sol\":3143:3747  function transferFrom(... */\n    tag_10:\n      tag_82\n      0x04\n      dup1\n      calldatasize\n      sub\n      dup2\n      add\n      swap1\n      tag_83\n      swap2\n      swap1\n      tag_84\n      jump\t// in\n    tag_83:\n      tag_85\n      jump\t// in\n    tag_82:\n      mload(0x40)\n      tag_86\n      swap2\n      swap1\n      tag_71\n      jump\t// in\n    tag_86:\n      mload(0x40)\n      dup1\n      swap2\n      sub\n      swap1\n      return\n        /* \"ERC20.sol\":1113:1144  uint8 public immutable decimals */\n    tag_11:\n      tag_87\n      tag_88\n      jump\t// in\n    tag_87:\n      mload(0x40)\n      tag_89\n      swap2\n      swap1\n      tag_90\n      jump\t// in\n    tag_89:\n      mload(0x40)\n      dup1\n      swap2\n      sub\n      swap1\n      return\n        /* \"SquiddyCore.sol\":6238:6741  function setUnderlyingIsWETH(bool newUnderlyingIsWETH)... */\n    tag_12:\n      tag_91\n      0x04\n      dup1\n      calldatasize\n      sub\n      dup2\n      add\n      swap1\n      tag_92\n      swap2\n      swap1\n      tag_93\n      jump\t// in\n    tag_92:\n      tag_94\n      jump\t// in\n    tag_91:\n      stop\n        /* \"ERC20.sol\":5471:5692  function DOMAIN_SEPARATOR() public view virtual returns (bytes32) {... */\n    tag_13:\n      tag_95\n      tag_96\n      jump\t// in\n    tag_95:\n      mload(0x40)\n      tag_97\n      swap2\n      swap1\n      tag_98\n      jump\t// in\n    tag_97:\n      mload(0x40)\n      dup1\n      swap2\n      sub\n      swap1\n      return\n        /* \"ERC4626.sol\":1165:1193  ERC20 public immutable asset */\n    tag_14:\n      tag_99\n      tag_100\n      jump\t// in\n    tag_99:\n      mload(0x40)\n      tag_101\n      swap2\n      swap1\n      tag_102\n      jump\t// in\n    tag_101:\n      mload(0x40)\n      dup1\n      swap2\n      sub\n      swap1\n      return\n        /* \"SquiddyCore.sol\":8294:8581  function exchangeRate() public view returns (uint256) {... */\n    tag_15:\n      tag_103\n      tag_104\n      jump\t// in\n    tag_103:\n      mload(0x40)\n      tag_105\n      swap2\n      swap1\n      tag_56\n      jump\t// in\n    tag_105:\n      mload(0x40)\n      dup1\n      swap2\n      sub\n      swap1\n      return\n        /* \"ERC4626.sol\":5997:6105  function maxDeposit(address) public view virtual returns (uint256) {... */\n    tag_16:\n      tag_106\n      0x04\n      dup1\n      calldatasize\n      sub\n      dup2\n      add\n      swap1\n      tag_107\n      swap2\n      swap1\n      tag_108\n      jump\t// in\n    tag_107:\n      tag_109\n      jump\t// in\n    tag_106:\n      mload(0x40)\n      tag_110\n      swap2\n      swap1\n      tag_56\n      jump\t// in\n    tag_110:\n      mload(0x40)\n      dup1\n      swap2\n      sub\n      swap1\n      return\n        /* \"SquiddyCore.sol\":2400:2489  function manager() public view virtual returns (address) {... */\n    tag_17:\n      tag_111\n      tag_112\n      jump\t// in\n    tag_111:\n      mload(0x40)\n      tag_113\n      swap2\n      swap1\n      tag_114\n      jump\t// in\n    tag_113:\n      mload(0x40)\n      dup1\n      swap2\n      sub\n      swap1\n      return\n        /* \"ERC4626.sol\":5640:5800  function previewRedeem(uint256 shares)... */\n    tag_18:\n      tag_115\n      0x04\n      dup1\n      calldatasize\n      sub\n      dup2\n      add\n      swap1\n      tag_116\n      swap2\n      swap1\n      tag_63\n      jump\t// in\n    tag_116:\n      tag_117\n      jump\t// in\n    tag_115:\n      mload(0x40)\n      tag_118\n      swap2\n      swap1\n      tag_56\n      jump\t// in\n    tag_118:\n      mload(0x40)\n      dup1\n      swap2\n      sub\n      swap1\n      return\n        /* \"ERC4626.sol\":1583:2127  function deposit(uint256 assets, address receiver)... */\n    tag_19:\n      tag_119\n      0x04\n      dup1\n      calldatasize\n      sub\n      dup2\n      add\n      swap1\n      tag_120\n      swap2\n      swap1\n      tag_121\n      jump\t// in\n    tag_120:\n      tag_122\n      jump\t// in\n    tag_119:\n      mload(0x40)\n      tag_123\n      swap2\n      swap1\n      tag_56\n      jump\t// in\n    tag_123:\n      mload(0x40)\n      dup1\n      swap2\n      sub\n      swap1\n      return\n        /* \"ERC20.sol\":1367:1411  mapping(address => uint256) public balanceOf */\n    tag_20:\n      tag_124\n      0x04\n      dup1\n      calldatasize\n      sub\n      dup2\n      add\n      swap1\n      tag_125\n      swap2\n      swap1\n      tag_108\n      jump\t// in\n    tag_125:\n      tag_126\n      jump\t// in\n    tag_124:\n      mload(0x40)\n      tag_127\n      swap2\n      swap1\n      tag_56\n      jump\t// in\n    tag_127:\n      mload(0x40)\n      dup1\n      swap2\n      sub\n      swap1\n      return\n        /* \"SquiddyCore.sol\":2840:2991  function renounceOwnership() public virtual onlyManager {... */\n    tag_21:\n      tag_128\n      tag_129\n      jump\t// in\n    tag_128:\n      stop\n        /* \"SquiddyCore.sol\":3917:4240  function setFeePercent(uint256 newFeePercent) external onlyManager {... */\n    tag_22:\n      tag_130\n      0x04\n      dup1\n      calldatasize\n      sub\n      dup2\n      add\n      swap1\n      tag_131\n      swap2\n      swap1\n      tag_63\n      jump\t// in\n    tag_131:\n      tag_132\n      jump\t// in\n    tag_130:\n      stop\n        /* \"ERC20.sol\":1781:1822  mapping(address => uint256) public nonces */\n    tag_23:\n      tag_133\n      0x04\n      dup1\n      calldatasize\n      sub\n      dup2\n      add\n      swap1\n      tag_134\n      swap2\n      swap1\n      tag_108\n      jump\t// in\n    tag_134:\n      tag_135\n      jump\t// in\n    tag_133:\n      mload(0x40)\n      tag_136\n      swap2\n      swap1\n      tag_56\n      jump\t// in\n    tag_136:\n      mload(0x40)\n      dup1\n      swap2\n      sub\n      swap1\n      return\n        /* \"SquiddyCore.sol\":3788:3813  uint256 public feePercent */\n    tag_24:\n      tag_137\n      tag_138\n      jump\t// in\n    tag_137:\n      mload(0x40)\n      tag_139\n      swap2\n      swap1\n      tag_56\n      jump\t// in\n    tag_139:\n      mload(0x40)\n      dup1\n      swap2\n      sub\n      swap1\n      return\n        /* \"ERC4626.sol\":2133:2628  function mint(uint256 shares, address receiver)... */\n    tag_25:\n      tag_140\n      0x04\n      dup1\n      calldatasize\n      sub\n      dup2\n      add\n      swap1\n      tag_141\n      swap2\n      swap1\n      tag_121\n      jump\t// in\n    tag_141:\n      tag_142\n      jump\t// in\n    tag_140:\n      mload(0x40)\n      tag_143\n      swap2\n      swap1\n      tag_56\n      jump\t// in\n    tag_143:\n      mload(0x40)\n      dup1\n      swap2\n      sub\n      swap1\n      return\n        /* \"ERC20.sol\":1086:1106  string public symbol */\n    tag_26:\n      tag_144\n      tag_145\n      jump\t// in\n    tag_144:\n      mload(0x40)\n      tag_146\n      swap2\n      swap1\n      tag_60\n      jump\t// in\n    tag_146:\n      mload(0x40)\n      dup1\n      swap2\n      sub\n      swap1\n      return\n        /* \"ERC20.sol\":2736:3137  function transfer(address to, uint256 amount)... */\n    tag_27:\n      tag_147\n      0x04\n      dup1\n      calldatasize\n      sub\n      dup2\n      add\n      swap1\n      tag_148\n      swap2\n      swap1\n      tag_68\n      jump\t// in\n    tag_148:\n      tag_149\n      jump\t// in\n    tag_147:\n      mload(0x40)\n      tag_150\n      swap2\n      swap1\n      tag_71\n      jump\t// in\n    tag_150:\n      mload(0x40)\n      dup1\n      swap2\n      sub\n      swap1\n      return\n        /* \"SquiddyCore.sol\":4433:4681  function claimFees(uint256 sVTokenAmount) external onlyManager {... */\n    tag_28:\n      tag_151\n      0x04\n      dup1\n      calldatasize\n      sub\n      dup2\n      add\n      swap1\n      tag_152\n      swap2\n      swap1\n      tag_63\n      jump\t// in\n    tag_152:\n      tag_153\n      jump\t// in\n    tag_151:\n      stop\n        /* \"ERC4626.sol\":5086:5337  function previewMint(uint256 shares) public view virtual returns (uint256) {... */\n    tag_29:\n      tag_154\n      0x04\n      dup1\n      calldatasize\n      sub\n      dup2\n      add\n      swap1\n      tag_155\n      swap2\n      swap1\n      tag_63\n      jump\t// in\n    tag_155:\n      tag_156\n      jump\t// in\n    tag_154:\n      mload(0x40)\n      tag_157\n      swap2\n      swap1\n      tag_56\n      jump\t// in\n    tag_157:\n      mload(0x40)\n      dup1\n      swap2\n      sub\n      swap1\n      return\n        /* \"ERC4626.sol\":2634:3329  function withdraw(... */\n    tag_30:\n      tag_158\n      0x04\n      dup1\n      calldatasize\n      sub\n      dup2\n      add\n      swap1\n      tag_159\n      swap2\n      swap1\n      tag_160\n      jump\t// in\n    tag_159:\n      tag_161\n      jump\t// in\n    tag_158:\n      mload(0x40)\n      tag_162\n      swap2\n      swap1\n      tag_56\n      jump\t// in\n    tag_162:\n      mload(0x40)\n      dup1\n      swap2\n      sub\n      swap1\n      return\n        /* \"ERC4626.sol\":3335:4064  function redeem(... */\n    tag_31:\n      tag_163\n      0x04\n      dup1\n      calldatasize\n      sub\n      dup2\n      add\n      swap1\n      tag_164\n      swap2\n      swap1\n      tag_160\n      jump\t// in\n    tag_164:\n      tag_165\n      jump\t// in\n    tag_163:\n      mload(0x40)\n      tag_166\n      swap2\n      swap1\n      tag_56\n      jump\t// in\n    tag_166:\n      mload(0x40)\n      dup1\n      swap2\n      sub\n      swap1\n      return\n        /* \"SquiddyCore.sol\":217:267  uint256 public beforeWithdrawHookCalledCounter = 0 */\n    tag_32:\n      tag_167\n      tag_168\n      jump\t// in\n    tag_167:\n      mload(0x40)\n      tag_169\n      swap2\n      swap1\n      tag_56\n      jump\t// in\n    tag_169:\n      mload(0x40)\n      dup1\n      swap2\n      sub\n      swap1\n      return\n        /* \"SquiddyCore.sol\":5182:5602  function setTargetFloatPercent(uint256 newTargetFloatPercent)... */\n    tag_33:\n      tag_170\n      0x04\n      dup1\n      calldatasize\n      sub\n      dup2\n      add\n      swap1\n      tag_171\n      swap2\n      swap1\n      tag_63\n      jump\t// in\n    tag_171:\n      tag_172\n      jump\t// in\n    tag_170:\n      stop\n        /* \"SquiddyCore.sol\":369:402  ERC20 public immutable UNDERLYING */\n    tag_34:\n      tag_173\n      tag_174\n      jump\t// in\n    tag_173:\n      mload(0x40)\n      tag_175\n      swap2\n      swap1\n      tag_102\n      jump\t// in\n    tag_175:\n      mload(0x40)\n      dup1\n      swap2\n      sub\n      swap1\n      return\n        /* \"ERC4626.sol\":6111:6216  function maxMint(address) public view virtual returns (uint256) {... */\n    tag_35:\n      tag_176\n      0x04\n      dup1\n      calldatasize\n      sub\n      dup2\n      add\n      swap1\n      tag_177\n      swap2\n      swap1\n      tag_108\n      jump\t// in\n    tag_177:\n      tag_178\n      jump\t// in\n    tag_176:\n      mload(0x40)\n      tag_179\n      swap2\n      swap1\n      tag_56\n      jump\t// in\n    tag_179:\n      mload(0x40)\n      dup1\n      swap2\n      sub\n      swap1\n      return\n        /* \"ERC4626.sol\":4321:4614  function convertToShares(uint256 assets)... */\n    tag_36:\n      tag_180\n      0x04\n      dup1\n      calldatasize\n      sub\n      dup2\n      add\n      swap1\n      tag_181\n      swap2\n      swap1\n      tag_63\n      jump\t// in\n    tag_181:\n      tag_182\n      jump\t// in\n    tag_180:\n      mload(0x40)\n      tag_183\n      swap2\n      swap1\n      tag_56\n      jump\t// in\n    tag_183:\n      mload(0x40)\n      dup1\n      swap2\n      sub\n      swap1\n      return\n        /* \"ERC4626.sol\":6222:6353  function maxWithdraw(address owner) public view virtual returns (uint256) {... */\n    tag_37:\n      tag_184\n      0x04\n      dup1\n      calldatasize\n      sub\n      dup2\n      add\n      swap1\n      tag_185\n      swap2\n      swap1\n      tag_108\n      jump\t// in\n    tag_185:\n      tag_186\n      jump\t// in\n    tag_184:\n      mload(0x40)\n      tag_187\n      swap2\n      swap1\n      tag_56\n      jump\t// in\n    tag_187:\n      mload(0x40)\n      dup1\n      swap2\n      sub\n      swap1\n      return\n        /* \"ERC20.sol\":3936:5465  function permit(... */\n    tag_38:\n      tag_188\n      0x04\n      dup1\n      calldatasize\n      sub\n      dup2\n      add\n      swap1\n      tag_189\n      swap2\n      swap1\n      tag_190\n      jump\t// in\n    tag_189:\n      tag_191\n      jump\t// in\n    tag_188:\n      stop\n        /* \"ERC4626.sol\":6359:6471  function maxRedeem(address owner) public view virtual returns (uint256) {... */\n    tag_39:\n      tag_192\n      0x04\n      dup1\n      calldatasize\n      sub\n      dup2\n      add\n      swap1\n      tag_193\n      swap2\n      swap1\n      tag_108\n      jump\t// in\n    tag_193:\n      tag_194\n      jump\t// in\n    tag_192:\n      mload(0x40)\n      tag_195\n      swap2\n      swap1\n      tag_56\n      jump\t// in\n    tag_195:\n      mload(0x40)\n      dup1\n      swap2\n      sub\n      swap1\n      return\n        /* \"ERC20.sol\":1418:1482  mapping(address => mapping(address => uint256)) public allowance */\n    tag_40:\n      tag_196\n      0x04\n      dup1\n      calldatasize\n      sub\n      dup2\n      add\n      swap1\n      tag_197\n      swap2\n      swap1\n      tag_198\n      jump\t// in\n    tag_197:\n      tag_199\n      jump\t// in\n    tag_196:\n      mload(0x40)\n      tag_200\n      swap2\n      swap1\n      tag_56\n      jump\t// in\n    tag_200:\n      mload(0x40)\n      dup1\n      swap2\n      sub\n      swap1\n      return\n        /* \"SquiddyCore.sol\":7143:7179  uint256 public totalStrategyHoldings */\n    tag_41:\n      tag_201\n      tag_202\n      jump\t// in\n    tag_201:\n      mload(0x40)\n      tag_203\n      swap2\n      swap1\n      tag_56\n      jump\t// in\n    tag_203:\n      mload(0x40)\n      dup1\n      swap2\n      sub\n      swap1\n      return\n        /* \"ERC4626.sol\":4919:5080  function previewDeposit(uint256 assets)... */\n    tag_42:\n      tag_204\n      0x04\n      dup1\n      calldatasize\n      sub\n      dup2\n      add\n      swap1\n      tag_205\n      swap2\n      swap1\n      tag_63\n      jump\t// in\n    tag_205:\n      tag_206\n      jump\t// in\n    tag_204:\n      mload(0x40)\n      tag_207\n      swap2\n      swap1\n      tag_56\n      jump\t// in\n    tag_207:\n      mload(0x40)\n      dup1\n      swap2\n      sub\n      swap1\n      return\n        /* \"SquiddyCore.sol\":3142:3424  function transferOwnership(address newOwner) public virtual onlyManager {... */\n    tag_43:\n      tag_208\n      0x04\n      dup1\n      calldatasize\n      sub\n      dup2\n      add\n      swap1\n      tag_209\n      swap2\n      swap1\n      tag_108\n      jump\t// in\n    tag_209:\n      tag_210\n      jump\t// in\n    tag_208:\n      stop\n        /* \"SquiddyCore.sol\":5953:5981  bool public underlyingIsWETH */\n    tag_44:\n      tag_211\n      tag_212\n      jump\t// in\n    tag_211:\n      mload(0x40)\n      tag_213\n      swap2\n      swap1\n      tag_71\n      jump\t// in\n    tag_213:\n      mload(0x40)\n      dup1\n      swap2\n      sub\n      swap1\n      return\n        /* \"SquiddyCore.sol\":273:321  uint256 public afterDepositHookCalledCounter = 0 */\n    tag_45:\n      tag_214\n      tag_215\n      jump\t// in\n    tag_214:\n      mload(0x40)\n      tag_216\n      swap2\n      swap1\n      tag_56\n      jump\t// in\n    tag_216:\n      mload(0x40)\n      dup1\n      swap2\n      sub\n      swap1\n      return\n        /* \"SquiddyCore.sol\":8587:8703  function totalAssets() public view override returns (uint256) {... */\n    tag_54:\n        /* \"SquiddyCore.sol\":8640:8647  uint256 */\n      0x00\n        /* \"SquiddyCore.sol\":8666:8671  asset */\n      immutable(\"0xecac27c21aa9a89d7be9ad03c2d91e82cbd466284ecdf2bd5bad7f953539cc45\")\n        /* \"SquiddyCore.sol\":8666:8681  asset.balanceOf */\n      0xffffffffffffffffffffffffffffffffffffffff\n      and\n      0x70a08231\n        /* \"SquiddyCore.sol\":8690:8694  this */\n      address\n        /* \"SquiddyCore.sol\":8666:8696  asset.balanceOf(address(this)) */\n      mload(0x40)\n      dup3\n      0xffffffff\n      and\n      0xe0\n      shl\n      dup2\n      mstore\n      0x04\n      add\n      tag_218\n      swap2\n      swap1\n      tag_114\n      jump\t// in\n    tag_218:\n      0x20\n      mload(0x40)\n      dup1\n      dup4\n      sub\n      dup2\n      dup7\n      gas\n      staticcall\n      iszero\n      dup1\n      iszero\n      tag_220\n      jumpi\n      returndatasize\n      0x00\n      dup1\n      returndatacopy\n      revert(0x00, returndatasize)\n    tag_220:\n      pop\n      pop\n      pop\n      pop\n      mload(0x40)\n      returndatasize\n      not(0x1f)\n      0x1f\n      dup3\n      add\n      and\n      dup3\n      add\n      dup1\n      0x40\n      mstore\n      pop\n      dup2\n      add\n      swap1\n      tag_221\n      swap2\n      swap1\n      tag_222\n      jump\t// in\n    tag_221:\n        /* \"SquiddyCore.sol\":8659:8696  return asset.balanceOf(address(this)) */\n      swap1\n      pop\n        /* \"SquiddyCore.sol\":8587:8703  function totalAssets() public view override returns (uint256) {... */\n      swap1\n      jump\t// out\n        /* \"ERC20.sol\":1061:1079  string public name */\n    tag_58:\n      0x00\n      dup1\n      sload\n      tag_223\n      swap1\n      tag_224\n      jump\t// in\n    tag_223:\n      dup1\n      0x1f\n      add\n      0x20\n      dup1\n      swap2\n      div\n      mul\n      0x20\n      add\n      mload(0x40)\n      swap1\n      dup2\n      add\n      0x40\n      mstore\n      dup1\n      swap3\n      swap2\n      swap1\n      dup2\n      dup2\n      mstore\n      0x20\n      add\n      dup3\n      dup1\n      sload\n      tag_225\n      swap1\n      tag_224\n      jump\t// in\n    tag_225:\n      dup1\n      iszero\n      tag_226\n      jumpi\n      dup1\n      0x1f\n      lt\n      tag_227\n      jumpi\n      0x0100\n      dup1\n      dup4\n      sload\n      div\n      mul\n      dup4\n      mstore\n      swap2\n      0x20\n      add\n      swap2\n      jump(tag_226)\n    tag_227:\n      dup3\n      add\n      swap2\n      swap1\n      0x00\n      mstore\n      keccak256(0x00, 0x20)\n      swap1\n    tag_228:\n      dup2\n      sload\n      dup2\n      mstore\n      swap1\n      0x01\n      add\n      swap1\n      0x20\n      add\n      dup1\n      dup4\n      gt\n      tag_228\n      jumpi\n      dup3\n      swap1\n      sub\n      0x1f\n      and\n      dup3\n      add\n      swap2\n    tag_226:\n      pop\n      pop\n      pop\n      pop\n      pop\n      dup2\n      jump\t// out\n        /* \"ERC4626.sol\":4620:4913  function convertToAssets(uint256 shares)... */\n    tag_64:\n        /* \"ERC4626.sol\":4722:4729  uint256 */\n      0x00\n        /* \"ERC4626.sol\":4745:4759  uint256 supply */\n      dup1\n        /* \"ERC4626.sol\":4762:4773  totalSupply */\n      sload(0x02)\n        /* \"ERC4626.sol\":4745:4773  uint256 supply = totalSupply */\n      swap1\n      pop\n        /* \"ERC4626.sol\":4853:4854  0 */\n      0x00\n        /* \"ERC4626.sol\":4843:4849  supply */\n      dup2\n        /* \"ERC4626.sol\":4843:4854  supply == 0 */\n      eq\n        /* \"ERC4626.sol\":4843:4906  supply == 0 ? shares : shares.mulDivDown(totalAssets(), supply) */\n      tag_230\n      jumpi\n        /* \"ERC4626.sol\":4866:4906  shares.mulDivDown(totalAssets(), supply) */\n      tag_231\n        /* \"ERC4626.sol\":4884:4897  totalAssets() */\n      tag_232\n        /* \"ERC4626.sol\":4884:4895  totalAssets */\n      tag_54\n        /* \"ERC4626.sol\":4884:4897  totalAssets() */\n      jump\t// in\n    tag_232:\n        /* \"ERC4626.sol\":4899:4905  supply */\n      dup3\n        /* \"ERC4626.sol\":4866:4872  shares */\n      dup6\n        /* \"ERC4626.sol\":4866:4883  shares.mulDivDown */\n      tag_233\n      swap1\n        /* \"ERC4626.sol\":4866:4906  shares.mulDivDown(totalAssets(), supply) */\n      swap3\n      swap2\n      swap1\n      0xffffffff\n      and\n      jump\t// in\n    tag_231:\n        /* \"ERC4626.sol\":4843:4906  supply == 0 ? shares : shares.mulDivDown(totalAssets(), supply) */\n      jump(tag_234)\n    tag_230:\n        /* \"ERC4626.sol\":4857:4863  shares */\n      dup3\n        /* \"ERC4626.sol\":4843:4906  supply == 0 ? shares : shares.mulDivDown(totalAssets(), supply) */\n    tag_234:\n        /* \"ERC4626.sol\":4836:4906  return supply == 0 ? shares : shares.mulDivDown(totalAssets(), supply) */\n      swap2\n      pop\n      pop\n        /* \"ERC4626.sol\":4620:4913  function convertToAssets(uint256 shares)... */\n      swap2\n      swap1\n      pop\n      jump\t// out\n        /* \"ERC20.sol\":2491:2730  function approve(address spender, uint256 amount)... */\n    tag_69:\n        /* \"ERC20.sol\":2589:2593  bool */\n      0x00\n        /* \"ERC20.sol\":2642:2648  amount */\n      dup2\n        /* \"ERC20.sol\":2609:2618  allowance */\n      0x04\n        /* \"ERC20.sol\":2609:2630  allowance[msg.sender] */\n      0x00\n        /* \"ERC20.sol\":2619:2629  msg.sender */\n      caller\n        /* \"ERC20.sol\":2609:2630  allowance[msg.sender] */\n      0xffffffffffffffffffffffffffffffffffffffff\n      and\n      0xffffffffffffffffffffffffffffffffffffffff\n      and\n      dup2\n      mstore\n      0x20\n      add\n      swap1\n      dup2\n      mstore\n      0x20\n      add\n      0x00\n      keccak256\n        /* \"ERC20.sol\":2609:2639  allowance[msg.sender][spender] */\n      0x00\n        /* \"ERC20.sol\":2631:2638  spender */\n      dup6\n        /* \"ERC20.sol\":2609:2639  allowance[msg.sender][spender] */\n      0xffffffffffffffffffffffffffffffffffffffff\n      and\n      0xffffffffffffffffffffffffffffffffffffffff\n      and\n      dup2\n      mstore\n      0x20\n      add\n      swap1\n      dup2\n      mstore\n      0x20\n      add\n      0x00\n      keccak256\n        /* \"ERC20.sol\":2609:2648  allowance[msg.sender][spender] = amount */\n      dup2\n      swap1\n      sstore\n      pop\n        /* \"ERC20.sol\":2685:2692  spender */\n      dup3\n        /* \"ERC20.sol\":2664:2701  Approval(msg.sender, spender, amount) */\n      0xffffffffffffffffffffffffffffffffffffffff\n      and\n        /* \"ERC20.sol\":2673:2683  msg.sender */\n      caller\n        /* \"ERC20.sol\":2664:2701  Approval(msg.sender, spender, amount) */\n      0xffffffffffffffffffffffffffffffffffffffff\n      and\n      0x8c5be1e5ebec7d5bd14f71427d1e84f3dd0314c0f7b2291e5b200ac8c7c3b925\n        /* \"ERC20.sol\":2694:2700  amount */\n      dup5\n        /* \"ERC20.sol\":2664:2701  Approval(msg.sender, spender, amount) */\n      mload(0x40)\n      tag_236\n      swap2\n      swap1\n      tag_56\n      jump\t// in\n    tag_236:\n      mload(0x40)\n      dup1\n      swap2\n      sub\n      swap1\n      log3\n        /* \"ERC20.sol\":2719:2723  true */\n      0x01\n        /* \"ERC20.sol\":2712:2723  return true */\n      swap1\n      pop\n        /* \"ERC20.sol\":2491:2730  function approve(address spender, uint256 amount)... */\n      swap3\n      swap2\n      pop\n      pop\n      jump\t// out\n        /* \"ERC4626.sol\":5343:5634  function previewWithdraw(uint256 assets)... */\n    tag_74:\n        /* \"ERC4626.sol\":5445:5452  uint256 */\n      0x00\n        /* \"ERC4626.sol\":5468:5482  uint256 supply */\n      dup1\n        /* \"ERC4626.sol\":5485:5496  totalSupply */\n      sload(0x02)\n        /* \"ERC4626.sol\":5468:5496  uint256 supply = totalSupply */\n      swap1\n      pop\n        /* \"ERC4626.sol\":5576:5577  0 */\n      0x00\n        /* \"ERC4626.sol\":5566:5572  supply */\n      dup2\n        /* \"ERC4626.sol\":5566:5577  supply == 0 */\n      eq\n        /* \"ERC4626.sol\":5566:5627  supply == 0 ? assets : assets.mulDivUp(supply, totalAssets()) */\n      tag_238\n      jumpi\n        /* \"ERC4626.sol\":5589:5627  assets.mulDivUp(supply, totalAssets()) */\n      tag_239\n        /* \"ERC4626.sol\":5605:5611  supply */\n      dup2\n        /* \"ERC4626.sol\":5613:5626  totalAssets() */\n      tag_240\n        /* \"ERC4626.sol\":5613:5624  totalAssets */\n      tag_54\n        /* \"ERC4626.sol\":5613:5626  totalAssets() */\n      jump\t// in\n    tag_240:\n        /* \"ERC4626.sol\":5589:5595  assets */\n      dup6\n        /* \"ERC4626.sol\":5589:5604  assets.mulDivUp */\n      tag_241\n      swap1\n        /* \"ERC4626.sol\":5589:5627  assets.mulDivUp(supply, totalAssets()) */\n      swap3\n      swap2\n      swap1\n      0xffffffff\n      and\n      jump\t// in\n    tag_239:\n        /* \"ERC4626.sol\":5566:5627  supply == 0 ? assets : assets.mulDivUp(supply, totalAssets()) */\n      jump(tag_242)\n    tag_238:\n        /* \"ERC4626.sol\":5580:5586  assets */\n      dup3\n        /* \"ERC4626.sol\":5566:5627  supply == 0 ? assets : assets.mulDivUp(supply, totalAssets()) */\n    tag_242:\n        /* \"ERC4626.sol\":5559:5627  return supply == 0 ? assets : assets.mulDivUp(supply, totalAssets()) */\n      swap2\n      pop\n      pop\n        /* \"ERC4626.sol\":5343:5634  function previewWithdraw(uint256 assets)... */\n      swap2\n      swap1\n      pop\n      jump\t// out\n        /* \"ERC20.sol\":1334:1360  uint256 public totalSupply */\n    tag_77:\n      sload(0x02)\n      dup2\n      jump\t// out\n        /* \"SquiddyCore.sol\":5021:5054  uint256 public targetFloatPercent */\n    tag_80:\n      sload(0x0a)\n      dup2\n      jump\t// out\n        /* \"ERC20.sol\":3143:3747  function transferFrom(... */\n    tag_85:\n        /* \"ERC20.sol\":3261:3265  bool */\n      0x00\n        /* \"ERC20.sol\":3277:3292  uint256 allowed */\n      dup1\n        /* \"ERC20.sol\":3295:3304  allowance */\n      0x04\n        /* \"ERC20.sol\":3295:3310  allowance[from] */\n      0x00\n        /* \"ERC20.sol\":3305:3309  from */\n      dup7\n        /* \"ERC20.sol\":3295:3310  allowance[from] */\n      0xffffffffffffffffffffffffffffffffffffffff\n      and\n      0xffffffffffffffffffffffffffffffffffffffff\n      and\n      dup2\n      mstore\n      0x20\n      add\n      swap1\n      dup2\n      mstore\n      0x20\n      add\n      0x00\n      keccak256\n        /* \"ERC20.sol\":3295:3322  allowance[from][msg.sender] */\n      0x00\n        /* \"ERC20.sol\":3311:3321  msg.sender */\n      caller\n        /* \"ERC20.sol\":3295:3322  allowance[from][msg.sender] */\n      0xffffffffffffffffffffffffffffffffffffffff\n      and\n      0xffffffffffffffffffffffffffffffffffffffff\n      and\n      dup2\n      mstore\n      0x20\n      add\n      swap1\n      dup2\n      mstore\n      0x20\n      add\n      0x00\n      keccak256\n      sload\n        /* \"ERC20.sol\":3277:3322  uint256 allowed = allowance[from][msg.sender] */\n      swap1\n      pop\n        /* \"ERC20.sol\":3384:3401  type(uint256).max */\n      0xffffffffffffffffffffffffffffffffffffffffffffffffffffffffffffffff\n        /* \"ERC20.sol\":3373:3380  allowed */\n      dup2\n        /* \"ERC20.sol\":3373:3401  allowed != type(uint256).max */\n      eq\n        /* \"ERC20.sol\":3369:3461  if (allowed != type(uint256).max)... */\n      tag_244\n      jumpi\n        /* \"ERC20.sol\":3455:3461  amount */\n      dup3\n        /* \"ERC20.sol\":3445:3452  allowed */\n      dup2\n        /* \"ERC20.sol\":3445:3461  allowed - amount */\n      tag_245\n      swap2\n      swap1\n      tag_246\n      jump\t// in\n    tag_245:\n        /* \"ERC20.sol\":3415:3424  allowance */\n      0x04\n        /* \"ERC20.sol\":3415:3430  allowance[from] */\n      0x00\n        /* \"ERC20.sol\":3425:3429  from */\n      dup8\n        /* \"ERC20.sol\":3415:3430  allowance[from] */\n      0xffffffffffffffffffffffffffffffffffffffff\n      and\n      0xffffffffffffffffffffffffffffffffffffffff\n      and\n      dup2\n      mstore\n      0x20\n      add\n      swap1\n      dup2\n      mstore\n      0x20\n      add\n      0x00\n      keccak256\n        /* \"ERC20.sol\":3415:3442  allowance[from][msg.sender] */\n      0x00\n        /* \"ERC20.sol\":3431:3441  msg.sender */\n      caller\n        /* \"ERC20.sol\":3415:3442  allowance[from][msg.sender] */\n      0xffffffffffffffffffffffffffffffffffffffff\n      and\n      0xffffffffffffffffffffffffffffffffffffffff\n      and\n      dup2\n      mstore\n      0x20\n      add\n      swap1\n      dup2\n      mstore\n      0x20\n      add\n      0x00\n      keccak256\n        /* \"ERC20.sol\":3415:3461  allowance[from][msg.sender] = allowed - amount */\n      dup2\n      swap1\n      sstore\n      pop\n        /* \"ERC20.sol\":3369:3461  if (allowed != type(uint256).max)... */\n    tag_244:\n        /* \"ERC20.sol\":3491:3497  amount */\n      dup3\n        /* \"ERC20.sol\":3472:3481  balanceOf */\n      0x03\n        /* \"ERC20.sol\":3472:3487  balanceOf[from] */\n      0x00\n        /* \"ERC20.sol\":3482:3486  from */\n      dup8\n        /* \"ERC20.sol\":3472:3487  balanceOf[from] */\n      0xffffffffffffffffffffffffffffffffffffffff\n      and\n      0xffffffffffffffffffffffffffffffffffffffff\n      and\n      dup2\n      mstore\n      0x20\n      add\n      swap1\n      dup2\n      mstore\n      0x20\n      add\n      0x00\n      keccak256\n      0x00\n        /* \"ERC20.sol\":3472:3497  balanceOf[from] -= amount */\n      dup3\n      dup3\n      sload\n      tag_247\n      swap2\n      swap1\n      tag_246\n      jump\t// in\n    tag_247:\n      swap3\n      pop\n      pop\n      dup2\n      swap1\n      sstore\n      pop\n        /* \"ERC20.sol\":3660:3666  amount */\n      dup3\n        /* \"ERC20.sol\":3643:3652  balanceOf */\n      0x03\n        /* \"ERC20.sol\":3643:3656  balanceOf[to] */\n      0x00\n        /* \"ERC20.sol\":3653:3655  to */\n      dup7\n        /* \"ERC20.sol\":3643:3656  balanceOf[to] */\n      0xffffffffffffffffffffffffffffffffffffffff\n      and\n      0xffffffffffffffffffffffffffffffffffffffff\n      and\n      dup2\n      mstore\n      0x20\n      add\n      swap1\n      dup2\n      mstore\n      0x20\n      add\n      0x00\n      keccak256\n      0x00\n        /* \"ERC20.sol\":3643:3666  balanceOf[to] += amount */\n      dup3\n      dup3\n      sload\n      add\n      swap3\n      pop\n      pop\n      dup2\n      swap1\n      sstore\n      pop\n        /* \"ERC20.sol\":3707:3709  to */\n      dup4\n        /* \"ERC20.sol\":3692:3718  Transfer(from, to, amount) */\n      0xffffffffffffffffffffffffffffffffffffffff\n      and\n        /* \"ERC20.sol\":3701:3705  from */\n      dup6\n        /* \"ERC20.sol\":3692:3718  Transfer(from, to, amount) */\n      0xffffffffffffffffffffffffffffffffffffffff\n      and\n      0xddf252ad1be2c89b69c2b068fc378daa952ba7f163c4a11628f55a4df523b3ef\n        /* \"ERC20.sol\":3711:3717  amount */\n      dup6\n        /* \"ERC20.sol\":3692:3718  Transfer(from, to, amount) */\n      mload(0x40)\n      tag_248\n      swap2\n      swap1\n      tag_56\n      jump\t// in\n    tag_248:\n      mload(0x40)\n      dup1\n      swap2\n      sub\n      swap1\n      log3\n        /* \"ERC20.sol\":3736:3740  true */\n      0x01\n        /* \"ERC20.sol\":3729:3740  return true */\n      swap2\n      pop\n      pop\n        /* \"ERC20.sol\":3143:3747  function transferFrom(... */\n      swap4\n      swap3\n      pop\n      pop\n      pop\n      jump\t// out\n        /* \"ERC20.sol\":1113:1144  uint8 public immutable decimals */\n    tag_88:\n      immutable(\"0x6585423cb6456b1d4957f6454d2f004f0c4f58d53a00082412d5c2ef4b1b31fd\")\n      dup2\n      jump\t// out\n        /* \"SquiddyCore.sol\":6238:6741  function setUnderlyingIsWETH(bool newUnderlyingIsWETH)... */\n    tag_94:\n        /* \"SquiddyCore.sol\":1682:1692  msg.sender */\n      caller\n        /* \"SquiddyCore.sol\":1669:1692  manager() == msg.sender */\n      0xffffffffffffffffffffffffffffffffffffffff\n      and\n        /* \"SquiddyCore.sol\":1669:1678  manager() */\n      tag_250\n        /* \"SquiddyCore.sol\":1669:1676  manager */\n      tag_112\n        /* \"SquiddyCore.sol\":1669:1678  manager() */\n      jump\t// in\n    tag_250:\n        /* \"SquiddyCore.sol\":1669:1692  manager() == msg.sender */\n      0xffffffffffffffffffffffffffffffffffffffff\n      and\n      eq\n        /* \"SquiddyCore.sol\":1661:1731  require(manager() == msg.sender, \"Ownable: caller is not the manager\") */\n      tag_251\n      jumpi\n      mload(0x40)\n      0x08c379a000000000000000000000000000000000000000000000000000000000\n      dup2\n      mstore\n      0x04\n      add\n      tag_252\n      swap1\n      tag_253\n      jump\t// in\n    tag_252:\n      mload(0x40)\n      dup1\n      swap2\n      sub\n      swap1\n      revert\n    tag_251:\n        /* \"SquiddyCore.sol\":6456:6475  newUnderlyingIsWETH */\n      dup1\n        /* \"SquiddyCore.sol\":6455:6475  !newUnderlyingIsWETH */\n      iszero\n        /* \"SquiddyCore.sol\":6455:6506  !newUnderlyingIsWETH || UNDERLYING.decimals() == 18 */\n      dup1\n      tag_255\n      jumpi\n      pop\n        /* \"SquiddyCore.sol\":6504:6506  18 */\n      0x12\n        /* \"SquiddyCore.sol\":6479:6489  UNDERLYING */\n      immutable(\"0x6b5c062ff531e4aab4774f509e92f4d1142a84e2071479e43245c0e4a7940df4\")\n        /* \"SquiddyCore.sol\":6479:6498  UNDERLYING.decimals */\n      0xffffffffffffffffffffffffffffffffffffffff\n      and\n      0x313ce567\n        /* \"SquiddyCore.sol\":6479:6500  UNDERLYING.decimals() */\n      mload(0x40)\n      dup2\n      0xffffffff\n      and\n      0xe0\n      shl\n      dup2\n      mstore\n      0x04\n      add\n      0x20\n      mload(0x40)\n      dup1\n      dup4\n      sub\n      dup2\n      dup7\n      gas\n      staticcall\n      iszero\n      dup1\n      iszero\n      tag_257\n      jumpi\n      returndatasize\n      0x00\n      dup1\n      returndatacopy\n      revert(0x00, returndatasize)\n    tag_257:\n      pop\n      pop\n      pop\n      pop\n      mload(0x40)\n      returndatasize\n      not(0x1f)\n      0x1f\n      dup3\n      add\n      and\n      dup3\n      add\n      dup1\n      0x40\n      mstore\n      pop\n      dup2\n      add\n      swap1\n      tag_258\n      swap2\n      swap1\n      tag_259\n      jump\t// in\n    tag_258:\n        /* \"SquiddyCore.sol\":6479:6506  UNDERLYING.decimals() == 18 */\n      0xff\n      and\n      eq\n        /* \"SquiddyCore.sol\":6455:6506  !newUnderlyingIsWETH || UNDERLYING.decimals() == 18 */\n    tag_255:\n        /* \"SquiddyCore.sol\":6434:6546  require(... */\n      tag_260\n      jumpi\n      mload(0x40)\n      0x08c379a000000000000000000000000000000000000000000000000000000000\n      dup2\n      mstore\n      0x04\n      add\n      tag_261\n      swap1\n      tag_262\n      jump\t// in\n    tag_261:\n      mload(0x40)\n      dup1\n      swap2\n      sub\n      swap1\n      revert\n    tag_260:\n        /* \"SquiddyCore.sol\":6643:6662  newUnderlyingIsWETH */\n      dup1\n        /* \"SquiddyCore.sol\":6624:6640  underlyingIsWETH */\n      0x0b\n      0x00\n        /* \"SquiddyCore.sol\":6624:6662  underlyingIsWETH = newUnderlyingIsWETH */\n      0x0100\n      exp\n      dup2\n      sload\n      dup2\n      0xff\n      mul\n      not\n      and\n      swap1\n      dup4\n      iszero\n      iszero\n      mul\n      or\n      swap1\n      sstore\n      pop\n        /* \"SquiddyCore.sol\":6702:6712  msg.sender */\n      caller\n        /* \"SquiddyCore.sol\":6678:6734  UnderlyingIsWETHUpdated(msg.sender, newUnderlyingIsWETH) */\n      0xffffffffffffffffffffffffffffffffffffffff\n      and\n      0x6375b140d4463d47b864f1f47e5d2893cc3478e73aedcc268b054fab0230a841\n        /* \"SquiddyCore.sol\":6714:6733  newUnderlyingIsWETH */\n      dup3\n        /* \"SquiddyCore.sol\":6678:6734  UnderlyingIsWETHUpdated(msg.sender, newUnderlyingIsWETH) */\n      mload(0x40)\n      tag_263\n      swap2\n      swap1\n      tag_71\n      jump\t// in\n    tag_263:\n      mload(0x40)\n      dup1\n      swap2\n      sub\n      swap1\n      log2\n        /* \"SquiddyCore.sol\":6238:6741  function setUnderlyingIsWETH(bool newUnderlyingIsWETH)... */\n      pop\n      jump\t// out\n        /* \"ERC20.sol\":5471:5692  function DOMAIN_SEPARATOR() public view virtual returns (bytes32) {... */\n    tag_96:\n        /* \"ERC20.sol\":5528:5535  bytes32 */\n      0x00\n        /* \"ERC20.sol\":5583:5599  INITIAL_CHAIN_ID */\n      immutable(\"0xd67d834462ca31eaef1f30157e31659f60355143b7441e6fc7d9eae1fa79f3f8\")\n        /* \"ERC20.sol\":5566:5579  block.chainid */\n      chainid\n        /* \"ERC20.sol\":5566:5599  block.chainid == INITIAL_CHAIN_ID */\n      eq\n        /* \"ERC20.sol\":5566:5685  block.chainid == INITIAL_CHAIN_ID... */\n      tag_265\n      jumpi\n        /* \"ERC20.sol\":5661:5685  computeDomainSeparator() */\n      tag_266\n        /* \"ERC20.sol\":5661:5683  computeDomainSeparator */\n      tag_267\n        /* \"ERC20.sol\":5661:5685  computeDomainSeparator() */\n      jump\t// in\n    tag_266:\n        /* \"ERC20.sol\":5566:5685  block.chainid == INITIAL_CHAIN_ID... */\n      jump(tag_268)\n    tag_265:\n        /* \"ERC20.sol\":5618:5642  INITIAL_DOMAIN_SEPARATOR */\n      immutable(\"0x880de8116b3dfac28e9ff528a9fef1d1e0a51449c1addce011ffec1f302992b6\")\n        /* \"ERC20.sol\":5566:5685  block.chainid == INITIAL_CHAIN_ID... */\n    tag_268:\n        /* \"ERC20.sol\":5547:5685  return... */\n      swap1\n      pop\n        /* \"ERC20.sol\":5471:5692  function DOMAIN_SEPARATOR() public view virtual returns (bytes32) {... */\n      swap1\n      jump\t// out\n        /* \"ERC4626.sol\":1165:1193  ERC20 public immutable asset */\n    tag_100:\n      immutable(\"0xecac27c21aa9a89d7be9ad03c2d91e82cbd466284ecdf2bd5bad7f953539cc45\")\n      dup2\n      jump\t// out\n        /* \"SquiddyCore.sol\":8294:8581  function exchangeRate() public view returns (uint256) {... */\n    tag_104:\n        /* \"SquiddyCore.sol\":8339:8346  uint256 */\n      0x00\n        /* \"SquiddyCore.sol\":8403:8424  uint256 sVTokenSupply */\n      dup1\n        /* \"SquiddyCore.sol\":8427:8438  totalSupply */\n      sload(0x02)\n        /* \"SquiddyCore.sol\":8403:8438  uint256 sVTokenSupply = totalSupply */\n      swap1\n      pop\n        /* \"SquiddyCore.sol\":8554:8555  0 */\n      0x00\n        /* \"SquiddyCore.sol\":8537:8550  sVTokenSupply */\n      dup2\n        /* \"SquiddyCore.sol\":8537:8555  sVTokenSupply == 0 */\n      sub\n        /* \"SquiddyCore.sol\":8533:8573  if (sVTokenSupply == 0) return BASE_UNIT */\n      tag_270\n      jumpi\n        /* \"SquiddyCore.sol\":8564:8573  BASE_UNIT */\n      immutable(\"0xae7d027a27a067b0ce216b860399a31145ba05bee5d36a5aedd4d9d773c92c99\")\n        /* \"SquiddyCore.sol\":8557:8573  return BASE_UNIT */\n      swap2\n      pop\n      pop\n      jump(tag_269)\n        /* \"SquiddyCore.sol\":8533:8573  if (sVTokenSupply == 0) return BASE_UNIT */\n    tag_270:\n        /* \"SquiddyCore.sol\":8348:8581  {... */\n      pop\n        /* \"SquiddyCore.sol\":8294:8581  function exchangeRate() public view returns (uint256) {... */\n    tag_269:\n      swap1\n      jump\t// out\n        /* \"ERC4626.sol\":5997:6105  function maxDeposit(address) public view virtual returns (uint256) {... */\n    tag_109:\n        /* \"ERC4626.sol\":6055:6062  uint256 */\n      0x00\n        /* \"ERC4626.sol\":6081:6098  type(uint256).max */\n      0xffffffffffffffffffffffffffffffffffffffffffffffffffffffffffffffff\n        /* \"ERC4626.sol\":6074:6098  return type(uint256).max */\n      swap1\n      pop\n        /* \"ERC4626.sol\":5997:6105  function maxDeposit(address) public view virtual returns (uint256) {... */\n      swap2\n      swap1\n      pop\n      jump\t// out\n        /* \"SquiddyCore.sol\":2400:2489  function manager() public view virtual returns (address) {... */\n    tag_112:\n        /* \"SquiddyCore.sol\":2448:2455  address */\n      0x00\n        /* \"SquiddyCore.sol\":2474:2482  _manager */\n      0x06\n      0x00\n      swap1\n      sload\n      swap1\n      0x0100\n      exp\n      swap1\n      div\n      0xffffffffffffffffffffffffffffffffffffffff\n      and\n        /* \"SquiddyCore.sol\":2467:2482  return _manager */\n      swap1\n      pop\n        /* \"SquiddyCore.sol\":2400:2489  function manager() public view virtual returns (address) {... */\n      swap1\n      jump\t// out\n        /* \"ERC4626.sol\":5640:5800  function previewRedeem(uint256 shares)... */\n    tag_117:\n        /* \"ERC4626.sol\":5740:5747  uint256 */\n      0x00\n        /* \"ERC4626.sol\":5770:5793  convertToAssets(shares) */\n      tag_274\n        /* \"ERC4626.sol\":5786:5792  shares */\n      dup3\n        /* \"ERC4626.sol\":5770:5785  convertToAssets */\n      tag_64\n        /* \"ERC4626.sol\":5770:5793  convertToAssets(shares) */\n      jump\t// in\n    tag_274:\n        /* \"ERC4626.sol\":5763:5793  return convertToAssets(shares) */\n      swap1\n      pop\n        /* \"ERC4626.sol\":5640:5800  function previewRedeem(uint256 shares)... */\n      swap2\n      swap1\n      pop\n      jump\t// out\n        /* \"ERC4626.sol\":1583:2127  function deposit(uint256 assets, address receiver)... */\n    tag_122:\n        /* \"ERC4626.sol\":1682:1696  uint256 shares */\n      0x00\n        /* \"ERC4626.sol\":1832:1833  0 */\n      dup1\n        /* \"ERC4626.sol\":1805:1827  previewDeposit(assets) */\n      tag_276\n        /* \"ERC4626.sol\":1820:1826  assets */\n      dup5\n        /* \"ERC4626.sol\":1805:1819  previewDeposit */\n      tag_206\n        /* \"ERC4626.sol\":1805:1827  previewDeposit(assets) */\n      jump\t// in\n    tag_276:\n        /* \"ERC4626.sol\":1796:1827  shares = previewDeposit(assets) */\n      swap2\n      pop\n      dup2\n        /* \"ERC4626.sol\":1795:1833  (shares = previewDeposit(assets)) != 0 */\n      sub\n        /* \"ERC4626.sol\":1787:1849  require((shares = previewDeposit(assets)) != 0, \"ZERO_SHARES\") */\n      tag_277\n      jumpi\n      mload(0x40)\n      0x08c379a000000000000000000000000000000000000000000000000000000000\n      dup2\n      mstore\n      0x04\n      add\n      tag_278\n      swap1\n      tag_279\n      jump\t// in\n    tag_278:\n      mload(0x40)\n      dup1\n      swap2\n      sub\n      swap1\n      revert\n    tag_277:\n        /* \"ERC4626.sol\":1929:1986  asset.safeTransferFrom(msg.sender, address(this), assets) */\n      tag_280\n        /* \"ERC4626.sol\":1952:1962  msg.sender */\n      caller\n        /* \"ERC4626.sol\":1972:1976  this */\n      address\n        /* \"ERC4626.sol\":1979:1985  assets */\n      dup6\n        /* \"ERC4626.sol\":1929:1934  asset */\n      immutable(\"0xecac27c21aa9a89d7be9ad03c2d91e82cbd466284ecdf2bd5bad7f953539cc45\")\n        /* \"ERC4626.sol\":1929:1951  asset.safeTransferFrom */\n      0xffffffffffffffffffffffffffffffffffffffff\n      and\n      tag_281\n      swap1\n        /* \"ERC4626.sol\":1929:1986  asset.safeTransferFrom(msg.sender, address(this), assets) */\n      swap4\n      swap3\n      swap2\n      swap1\n      0xffffffff\n      and\n      jump\t// in\n    tag_280:\n        /* \"ERC4626.sol\":1997:2020  _mint(receiver, shares) */\n      tag_282\n        /* \"ERC4626.sol\":2003:2011  receiver */\n      dup3\n        /* \"ERC4626.sol\":2013:2019  shares */\n      dup3\n        /* \"ERC4626.sol\":1997:2002  _mint */\n      tag_283\n        /* \"ERC4626.sol\":1997:2020  _mint(receiver, shares) */\n      jump\t// in\n    tag_282:\n        /* \"ERC4626.sol\":2056:2064  receiver */\n      dup2\n        /* \"ERC4626.sol\":2036:2081  Deposit(msg.sender, receiver, assets, shares) */\n      0xffffffffffffffffffffffffffffffffffffffff\n      and\n        /* \"ERC4626.sol\":2044:2054  msg.sender */\n      caller\n        /* \"ERC4626.sol\":2036:2081  Deposit(msg.sender, receiver, assets, shares) */\n      0xffffffffffffffffffffffffffffffffffffffff\n      and\n      0xdcbc1c05240f31ff3ad067ef1ee35ce4997762752e3a095284754544f4c709d7\n        /* \"ERC4626.sol\":2066:2072  assets */\n      dup6\n        /* \"ERC4626.sol\":2074:2080  shares */\n      dup5\n        /* \"ERC4626.sol\":2036:2081  Deposit(msg.sender, receiver, assets, shares) */\n      mload(0x40)\n      tag_284\n      swap3\n      swap2\n      swap1\n      tag_285\n      jump\t// in\n    tag_284:\n      mload(0x40)\n      dup1\n      swap2\n      sub\n      swap1\n      log3\n        /* \"ERC4626.sol\":2092:2120  afterDeposit(assets, shares) */\n      tag_286\n        /* \"ERC4626.sol\":2105:2111  assets */\n      dup4\n        /* \"ERC4626.sol\":2113:2119  shares */\n      dup3\n        /* \"ERC4626.sol\":2092:2104  afterDeposit */\n      tag_287\n        /* \"ERC4626.sol\":2092:2120  afterDeposit(assets, shares) */\n      jump\t// in\n    tag_286:\n        /* \"ERC4626.sol\":1583:2127  function deposit(uint256 assets, address receiver)... */\n      swap3\n      swap2\n      pop\n      pop\n      jump\t// out\n        /* \"ERC20.sol\":1367:1411  mapping(address => uint256) public balanceOf */\n    tag_126:\n      mstore(0x20, 0x03)\n      dup1\n      0x00\n      mstore\n      keccak256(0x00, 0x40)\n      0x00\n      swap2\n      pop\n      swap1\n      pop\n      sload\n      dup2\n      jump\t// out\n        /* \"SquiddyCore.sol\":2840:2991  function renounceOwnership() public virtual onlyManager {... */\n    tag_129:\n        /* \"SquiddyCore.sol\":1682:1692  msg.sender */\n      caller\n        /* \"SquiddyCore.sol\":1669:1692  manager() == msg.sender */\n      0xffffffffffffffffffffffffffffffffffffffff\n      and\n        /* \"SquiddyCore.sol\":1669:1678  manager() */\n      tag_289\n        /* \"SquiddyCore.sol\":1669:1676  manager */\n      tag_112\n        /* \"SquiddyCore.sol\":1669:1678  manager() */\n      jump\t// in\n    tag_289:\n        /* \"SquiddyCore.sol\":1669:1692  manager() == msg.sender */\n      0xffffffffffffffffffffffffffffffffffffffff\n      and\n      eq\n        /* \"SquiddyCore.sol\":1661:1731  require(manager() == msg.sender, \"Ownable: caller is not the manager\") */\n      tag_290\n      jumpi\n      mload(0x40)\n      0x08c379a000000000000000000000000000000000000000000000000000000000\n      dup2\n      mstore\n      0x04\n      add\n      tag_291\n      swap1\n      tag_253\n      jump\t// in\n    tag_291:\n      mload(0x40)\n      dup1\n      swap2\n      sub\n      swap1\n      revert\n    tag_290:\n        /* \"SquiddyCore.sol\":2950:2951  0 */\n      0x00\n        /* \"SquiddyCore.sol\":2911:2953  OwnershipTransferred(_manager, address(0)) */\n      0xffffffffffffffffffffffffffffffffffffffff\n      and\n        /* \"SquiddyCore.sol\":2932:2940  _manager */\n      0x06\n      0x00\n      swap1\n      sload\n      swap1\n      0x0100\n      exp\n      swap1\n      div\n      0xffffffffffffffffffffffffffffffffffffffff\n      and\n        /* \"SquiddyCore.sol\":2911:2953  OwnershipTransferred(_manager, address(0)) */\n      0xffffffffffffffffffffffffffffffffffffffff\n      and\n      0x8be0079c531659141344cd1fd0a4f28419497f9722a3daafe3b4186f6b6457e0\n      mload(0x40)\n      mload(0x40)\n      dup1\n      swap2\n      sub\n      swap1\n      log3\n        /* \"SquiddyCore.sol\":2982:2983  0 */\n      0x00\n        /* \"SquiddyCore.sol\":2963:2971  _manager */\n      0x06\n      0x00\n        /* \"SquiddyCore.sol\":2963:2984  _manager = address(0) */\n      0x0100\n      exp\n      dup2\n      sload\n      dup2\n      0xffffffffffffffffffffffffffffffffffffffff\n      mul\n      not\n      and\n      swap1\n      dup4\n      0xffffffffffffffffffffffffffffffffffffffff\n      and\n      mul\n      or\n      swap1\n      sstore\n      pop\n        /* \"SquiddyCore.sol\":2840:2991  function renounceOwnership() public virtual onlyManager {... */\n      jump\t// out\n        /* \"SquiddyCore.sol\":3917:4240  function setFeePercent(uint256 newFeePercent) external onlyManager {... */\n    tag_132:\n        /* \"SquiddyCore.sol\":1682:1692  msg.sender */\n      caller\n        /* \"SquiddyCore.sol\":1669:1692  manager() == msg.sender */\n      0xffffffffffffffffffffffffffffffffffffffff\n      and\n        /* \"SquiddyCore.sol\":1669:1678  manager() */\n      tag_294\n        /* \"SquiddyCore.sol\":1669:1676  manager */\n      tag_112\n        /* \"SquiddyCore.sol\":1669:1678  manager() */\n      jump\t// in\n    tag_294:\n        /* \"SquiddyCore.sol\":1669:1692  manager() == msg.sender */\n      0xffffffffffffffffffffffffffffffffffffffff\n      and\n      eq\n        /* \"SquiddyCore.sol\":1661:1731  require(manager() == msg.sender, \"Ownable: caller is not the manager\") */\n      tag_295\n      jumpi\n      mload(0x40)\n      0x08c379a000000000000000000000000000000000000000000000000000000000\n      dup2\n      mstore\n      0x04\n      add\n      tag_296\n      swap1\n      tag_253\n      jump\t// in\n    tag_296:\n      mload(0x40)\n      dup1\n      swap2\n      sub\n      swap1\n      revert\n    tag_295:\n        /* \"SquiddyCore.sol\":4077:4081  1e18 */\n      0x0de0b6b3a7640000\n        /* \"SquiddyCore.sol\":4060:4073  newFeePercent */\n      dup2\n        /* \"SquiddyCore.sol\":4060:4081  newFeePercent <= 1e18 */\n      gt\n      iszero\n        /* \"SquiddyCore.sol\":4052:4098  require(newFeePercent <= 1e18, \"FEE_TOO_HIGH\") */\n      tag_298\n      jumpi\n      mload(0x40)\n      0x08c379a000000000000000000000000000000000000000000000000000000000\n      dup2\n      mstore\n      0x04\n      add\n      tag_299\n      swap1\n      tag_300\n      jump\t// in\n    tag_299:\n      mload(0x40)\n      dup1\n      swap2\n      sub\n      swap1\n      revert\n    tag_298:\n        /* \"SquiddyCore.sol\":4160:4173  newFeePercent */\n      dup1\n        /* \"SquiddyCore.sol\":4147:4157  feePercent */\n      0x09\n        /* \"SquiddyCore.sol\":4147:4173  feePercent = newFeePercent */\n      dup2\n      swap1\n      sstore\n      pop\n        /* \"SquiddyCore.sol\":4207:4217  msg.sender */\n      caller\n        /* \"SquiddyCore.sol\":4189:4233  FeePercentUpdated(msg.sender, newFeePercent) */\n      0xffffffffffffffffffffffffffffffffffffffff\n      and\n      0xec370615cc81fb334e5566fbc80664d9082377bf59288d64a79f3fbecf4323a9\n        /* \"SquiddyCore.sol\":4219:4232  newFeePercent */\n      dup3\n        /* \"SquiddyCore.sol\":4189:4233  FeePercentUpdated(msg.sender, newFeePercent) */\n      mload(0x40)\n      tag_301\n      swap2\n      swap1\n      tag_56\n      jump\t// in\n    tag_301:\n      mload(0x40)\n      dup1\n      swap2\n      sub\n      swap1\n      log2\n        /* \"SquiddyCore.sol\":3917:4240  function setFeePercent(uint256 newFeePercent) external onlyManager {... */\n      pop\n      jump\t// out\n        /* \"ERC20.sol\":1781:1822  mapping(address => uint256) public nonces */\n    tag_135:\n      mstore(0x20, 0x05)\n      dup1\n      0x00\n      mstore\n      keccak256(0x00, 0x40)\n      0x00\n      swap2\n      pop\n      swap1\n      pop\n      sload\n      dup2\n      jump\t// out\n        /* \"SquiddyCore.sol\":3788:3813  uint256 public feePercent */\n    tag_138:\n      sload(0x09)\n      dup2\n      jump\t// out\n        /* \"ERC4626.sol\":2133:2628  function mint(uint256 shares, address receiver)... */\n    tag_142:\n        /* \"ERC4626.sol\":2229:2243  uint256 assets */\n      0x00\n        /* \"ERC4626.sol\":2268:2287  previewMint(shares) */\n      tag_303\n        /* \"ERC4626.sol\":2280:2286  shares */\n      dup4\n        /* \"ERC4626.sol\":2268:2279  previewMint */\n      tag_156\n        /* \"ERC4626.sol\":2268:2287  previewMint(shares) */\n      jump\t// in\n    tag_303:\n        /* \"ERC4626.sol\":2259:2287  assets = previewMint(shares) */\n      swap1\n      pop\n        /* \"ERC4626.sol\":2430:2487  asset.safeTransferFrom(msg.sender, address(this), assets) */\n      tag_304\n        /* \"ERC4626.sol\":2453:2463  msg.sender */\n      caller\n        /* \"ERC4626.sol\":2473:2477  this */\n      address\n        /* \"ERC4626.sol\":2480:2486  assets */\n      dup4\n        /* \"ERC4626.sol\":2430:2435  asset */\n      immutable(\"0xecac27c21aa9a89d7be9ad03c2d91e82cbd466284ecdf2bd5bad7f953539cc45\")\n        /* \"ERC4626.sol\":2430:2452  asset.safeTransferFrom */\n      0xffffffffffffffffffffffffffffffffffffffff\n      and\n      tag_281\n      swap1\n        /* \"ERC4626.sol\":2430:2487  asset.safeTransferFrom(msg.sender, address(this), assets) */\n      swap4\n      swap3\n      swap2\n      swap1\n      0xffffffff\n      and\n      jump\t// in\n    tag_304:\n        /* \"ERC4626.sol\":2498:2521  _mint(receiver, shares) */\n      tag_305\n        /* \"ERC4626.sol\":2504:2512  receiver */\n      dup3\n        /* \"ERC4626.sol\":2514:2520  shares */\n      dup5\n        /* \"ERC4626.sol\":2498:2503  _mint */\n      tag_283\n        /* \"ERC4626.sol\":2498:2521  _mint(receiver, shares) */\n      jump\t// in\n    tag_305:\n        /* \"ERC4626.sol\":2557:2565  receiver */\n      dup2\n        /* \"ERC4626.sol\":2537:2582  Deposit(msg.sender, receiver, assets, shares) */\n      0xffffffffffffffffffffffffffffffffffffffff\n      and\n        /* \"ERC4626.sol\":2545:2555  msg.sender */\n      caller\n        /* \"ERC4626.sol\":2537:2582  Deposit(msg.sender, receiver, assets, shares) */\n      0xffffffffffffffffffffffffffffffffffffffff\n      and\n      0xdcbc1c05240f31ff3ad067ef1ee35ce4997762752e3a095284754544f4c709d7\n        /* \"ERC4626.sol\":2567:2573  assets */\n      dup4\n        /* \"ERC4626.sol\":2575:2581  shares */\n      dup7\n        /* \"ERC4626.sol\":2537:2582  Deposit(msg.sender, receiver, assets, shares) */\n      mload(0x40)\n      tag_306\n      swap3\n      swap2\n      swap1\n      tag_285\n      jump\t// in\n    tag_306:\n      mload(0x40)\n      dup1\n      swap2\n      sub\n      swap1\n      log3\n        /* \"ERC4626.sol\":2593:2621  afterDeposit(assets, shares) */\n      tag_307\n        /* \"ERC4626.sol\":2606:2612  assets */\n      dup2\n        /* \"ERC4626.sol\":2614:2620  shares */\n      dup5\n        /* \"ERC4626.sol\":2593:2605  afterDeposit */\n      tag_287\n        /* \"ERC4626.sol\":2593:2621  afterDeposit(assets, shares) */\n      jump\t// in\n    tag_307:\n        /* \"ERC4626.sol\":2133:2628  function mint(uint256 shares, address receiver)... */\n      swap3\n      swap2\n      pop\n      pop\n      jump\t// out\n        /* \"ERC20.sol\":1086:1106  string public symbol */\n    tag_145:\n      0x01\n      dup1\n      sload\n      tag_308\n      swap1\n      tag_224\n      jump\t// in\n    tag_308:\n      dup1\n      0x1f\n      add\n      0x20\n      dup1\n      swap2\n      div\n      mul\n      0x20\n      add\n      mload(0x40)\n      swap1\n      dup2\n      add\n      0x40\n      mstore\n      dup1\n      swap3\n      swap2\n      swap1\n      dup2\n      dup2\n      mstore\n      0x20\n      add\n      dup3\n      dup1\n      sload\n      tag_309\n      swap1\n      tag_224\n      jump\t// in\n    tag_309:\n      dup1\n      iszero\n      tag_310\n      jumpi\n      dup1\n      0x1f\n      lt\n      tag_311\n      jumpi\n      0x0100\n      dup1\n      dup4\n      sload\n      div\n      mul\n      dup4\n      mstore\n      swap2\n      0x20\n      add\n      swap2\n      jump(tag_310)\n    tag_311:\n      dup3\n      add\n      swap2\n      swap1\n      0x00\n      mstore\n      keccak256(0x00, 0x20)\n      swap1\n    tag_312:\n      dup2\n      sload\n      dup2\n      mstore\n      swap1\n      0x01\n      add\n      swap1\n      0x20\n      add\n      dup1\n      dup4\n      gt\n      tag_312\n      jumpi\n      dup3\n      swap1\n      sub\n      0x1f\n      and\n      dup3\n      add\n      swap2\n    tag_310:\n      pop\n      pop\n      pop\n      pop\n      pop\n      dup2\n      jump\t// out\n        /* \"ERC20.sol\":2736:3137  function transfer(address to, uint256 amount)... */\n    tag_149:\n        /* \"ERC20.sol\":2830:2834  bool */\n      0x00\n        /* \"ERC20.sol\":2875:2881  amount */\n      dup2\n        /* \"ERC20.sol\":2850:2859  balanceOf */\n      0x03\n        /* \"ERC20.sol\":2850:2871  balanceOf[msg.sender] */\n      0x00\n        /* \"ERC20.sol\":2860:2870  msg.sender */\n      caller\n        /* \"ERC20.sol\":2850:2871  balanceOf[msg.sender] */\n      0xffffffffffffffffffffffffffffffffffffffff\n      and\n      0xffffffffffffffffffffffffffffffffffffffff\n      and\n      dup2\n      mstore\n      0x20\n      add\n      swap1\n      dup2\n      mstore\n      0x20\n      add\n      0x00\n      keccak256\n      0x00\n        /* \"ERC20.sol\":2850:2881  balanceOf[msg.sender] -= amount */\n      dup3\n      dup3\n      sload\n      tag_314\n      swap2\n      swap1\n      tag_246\n      jump\t// in\n    tag_314:\n      swap3\n      pop\n      pop\n      dup2\n      swap1\n      sstore\n      pop\n        /* \"ERC20.sol\":3044:3050  amount */\n      dup2\n        /* \"ERC20.sol\":3027:3036  balanceOf */\n      0x03\n        /* \"ERC20.sol\":3027:3040  balanceOf[to] */\n      0x00\n        /* \"ERC20.sol\":3037:3039  to */\n      dup6\n        /* \"ERC20.sol\":3027:3040  balanceOf[to] */\n      0xffffffffffffffffffffffffffffffffffffffff\n      and\n      0xffffffffffffffffffffffffffffffffffffffff\n      and\n      dup2\n      mstore\n      0x20\n      add\n      swap1\n      dup2\n      mstore\n      0x20\n      add\n      0x00\n      keccak256\n      0x00\n        /* \"ERC20.sol\":3027:3050  balanceOf[to] += amount */\n      dup3\n      dup3\n      sload\n      add\n      swap3\n      pop\n      pop\n      dup2\n      swap1\n      sstore\n      pop\n        /* \"ERC20.sol\":3097:3099  to */\n      dup3\n        /* \"ERC20.sol\":3076:3108  Transfer(msg.sender, to, amount) */\n      0xffffffffffffffffffffffffffffffffffffffff\n      and\n        /* \"ERC20.sol\":3085:3095  msg.sender */\n      caller\n        /* \"ERC20.sol\":3076:3108  Transfer(msg.sender, to, amount) */\n      0xffffffffffffffffffffffffffffffffffffffff\n      and\n      0xddf252ad1be2c89b69c2b068fc378daa952ba7f163c4a11628f55a4df523b3ef\n        /* \"ERC20.sol\":3101:3107  amount */\n      dup5\n        /* \"ERC20.sol\":3076:3108  Transfer(msg.sender, to, amount) */\n      mload(0x40)\n      tag_315\n      swap2\n      swap1\n      tag_56\n      jump\t// in\n    tag_315:\n      mload(0x40)\n      dup1\n      swap2\n      sub\n      swap1\n      log3\n        /* \"ERC20.sol\":3126:3130  true */\n      0x01\n        /* \"ERC20.sol\":3119:3130  return true */\n      swap1\n      pop\n        /* \"ERC20.sol\":2736:3137  function transfer(address to, uint256 amount)... */\n      swap3\n      swap2\n      pop\n      pop\n      jump\t// out\n        /* \"SquiddyCore.sol\":4433:4681  function claimFees(uint256 sVTokenAmount) external onlyManager {... */\n    tag_153:\n        /* \"SquiddyCore.sol\":1682:1692  msg.sender */\n      caller\n        /* \"SquiddyCore.sol\":1669:1692  manager() == msg.sender */\n      0xffffffffffffffffffffffffffffffffffffffff\n      and\n        /* \"SquiddyCore.sol\":1669:1678  manager() */\n      tag_317\n        /* \"SquiddyCore.sol\":1669:1676  manager */\n      tag_112\n        /* \"SquiddyCore.sol\":1669:1678  manager() */\n      jump\t// in\n    tag_317:\n        /* \"SquiddyCore.sol\":1669:1692  manager() == msg.sender */\n      0xffffffffffffffffffffffffffffffffffffffff\n      and\n      eq\n        /* \"SquiddyCore.sol\":1661:1731  require(manager() == msg.sender, \"Ownable: caller is not the manager\") */\n      tag_318\n      jumpi\n      mload(0x40)\n      0x08c379a000000000000000000000000000000000000000000000000000000000\n      dup2\n      mstore\n      0x04\n      add\n      tag_319\n      swap1\n      tag_253\n      jump\t// in\n    tag_319:\n      mload(0x40)\n      dup1\n      swap2\n      sub\n      swap1\n      revert\n    tag_318:\n        /* \"SquiddyCore.sol\":4523:4533  msg.sender */\n      caller\n        /* \"SquiddyCore.sol\":4511:4549  FeesClaimed(msg.sender, sVTokenAmount) */\n      0xffffffffffffffffffffffffffffffffffffffff\n      and\n      0x9493e5bbe4e8e0ac67284469a2d677403d0378a85a59e341d3abc433d0d9a209\n        /* \"SquiddyCore.sol\":4535:4548  sVTokenAmount */\n      dup3\n        /* \"SquiddyCore.sol\":4511:4549  FeesClaimed(msg.sender, sVTokenAmount) */\n      mload(0x40)\n      tag_321\n      swap2\n      swap1\n      tag_56\n      jump\t// in\n    tag_321:\n      mload(0x40)\n      dup1\n      swap2\n      sub\n      swap1\n      log2\n        /* \"SquiddyCore.sol\":4633:4637  this */\n      address\n        /* \"SquiddyCore.sol\":4627:4647  ERC20(this).transfer */\n      0xffffffffffffffffffffffffffffffffffffffff\n      and\n      0xa9059cbb\n        /* \"SquiddyCore.sol\":4648:4658  msg.sender */\n      caller\n        /* \"SquiddyCore.sol\":4660:4673  sVTokenAmount */\n      dup4\n        /* \"SquiddyCore.sol\":4627:4674  ERC20(this).transfer(msg.sender, sVTokenAmount) */\n      mload(0x40)\n      dup4\n      0xffffffff\n      and\n      0xe0\n      shl\n      dup2\n      mstore\n      0x04\n      add\n      tag_322\n      swap3\n      swap2\n      swap1\n      tag_323\n      jump\t// in\n    tag_322:\n      0x20\n      mload(0x40)\n      dup1\n      dup4\n      sub\n      dup2\n      0x00\n      dup8\n      gas\n      call\n      iszero\n      dup1\n      iszero\n      tag_325\n      jumpi\n      returndatasize\n      0x00\n      dup1\n      returndatacopy\n      revert(0x00, returndatasize)\n    tag_325:\n      pop\n      pop\n      pop\n      pop\n      mload(0x40)\n      returndatasize\n      not(0x1f)\n      0x1f\n      dup3\n      add\n      and\n      dup3\n      add\n      dup1\n      0x40\n      mstore\n      pop\n      dup2\n      add\n      swap1\n      tag_326\n      swap2\n      swap1\n      tag_327\n      jump\t// in\n    tag_326:\n      pop\n        /* \"SquiddyCore.sol\":4433:4681  function claimFees(uint256 sVTokenAmount) external onlyManager {... */\n      pop\n      jump\t// out\n        /* \"ERC4626.sol\":5086:5337  function previewMint(uint256 shares) public view virtual returns (uint256) {... */\n    tag_156:\n        /* \"ERC4626.sol\":5152:5159  uint256 */\n      0x00\n        /* \"ERC4626.sol\":5171:5185  uint256 supply */\n      dup1\n        /* \"ERC4626.sol\":5188:5199  totalSupply */\n      sload(0x02)\n        /* \"ERC4626.sol\":5171:5199  uint256 supply = totalSupply */\n      swap1\n      pop\n        /* \"ERC4626.sol\":5279:5280  0 */\n      0x00\n        /* \"ERC4626.sol\":5269:5275  supply */\n      dup2\n        /* \"ERC4626.sol\":5269:5280  supply == 0 */\n      eq\n        /* \"ERC4626.sol\":5269:5330  supply == 0 ? shares : shares.mulDivUp(totalAssets(), supply) */\n      tag_329\n      jumpi\n        /* \"ERC4626.sol\":5292:5330  shares.mulDivUp(totalAssets(), supply) */\n      tag_330\n        /* \"ERC4626.sol\":5308:5321  totalAssets() */\n      tag_331\n        /* \"ERC4626.sol\":5308:5319  totalAssets */\n      tag_54\n        /* \"ERC4626.sol\":5308:5321  totalAssets() */\n      jump\t// in\n    tag_331:\n        /* \"ERC4626.sol\":5323:5329  supply */\n      dup3\n        /* \"ERC4626.sol\":5292:5298  shares */\n      dup6\n        /* \"ERC4626.sol\":5292:5307  shares.mulDivUp */\n      tag_241\n      swap1\n        /* \"ERC4626.sol\":5292:5330  shares.mulDivUp(totalAssets(), supply) */\n      swap3\n      swap2\n      swap1\n      0xffffffff\n      and\n      jump\t// in\n    tag_330:\n        /* \"ERC4626.sol\":5269:5330  supply == 0 ? shares : shares.mulDivUp(totalAssets(), supply) */\n      jump(tag_332)\n    tag_329:\n        /* \"ERC4626.sol\":5283:5289  shares */\n      dup3\n        /* \"ERC4626.sol\":5269:5330  supply == 0 ? shares : shares.mulDivUp(totalAssets(), supply) */\n    tag_332:\n        /* \"ERC4626.sol\":5262:5330  return supply == 0 ? shares : shares.mulDivUp(totalAssets(), supply) */\n      swap2\n      pop\n      pop\n        /* \"ERC4626.sol\":5086:5337  function previewMint(uint256 shares) public view virtual returns (uint256) {... */\n      swap2\n      swap1\n      pop\n      jump\t// out\n        /* \"ERC4626.sol\":2634:3329  function withdraw(... */\n    tag_161:\n        /* \"ERC4626.sol\":2755:2769  uint256 shares */\n      0x00\n        /* \"ERC4626.sol\":2790:2813  previewWithdraw(assets) */\n      tag_334\n        /* \"ERC4626.sol\":2806:2812  assets */\n      dup5\n        /* \"ERC4626.sol\":2790:2805  previewWithdraw */\n      tag_74\n        /* \"ERC4626.sol\":2790:2813  previewWithdraw(assets) */\n      jump\t// in\n    tag_334:\n        /* \"ERC4626.sol\":2781:2813  shares = previewWithdraw(assets) */\n      swap1\n      pop\n        /* \"ERC4626.sol\":2909:2914  owner */\n      dup2\n        /* \"ERC4626.sol\":2895:2914  msg.sender != owner */\n      0xffffffffffffffffffffffffffffffffffffffff\n      and\n        /* \"ERC4626.sol\":2895:2905  msg.sender */\n      caller\n        /* \"ERC4626.sol\":2895:2914  msg.sender != owner */\n      0xffffffffffffffffffffffffffffffffffffffff\n      and\n      eq\n        /* \"ERC4626.sol\":2891:3135  if (msg.sender != owner) {... */\n      tag_335\n      jumpi\n        /* \"ERC4626.sol\":2930:2945  uint256 allowed */\n      0x00\n        /* \"ERC4626.sol\":2948:2957  allowance */\n      0x04\n        /* \"ERC4626.sol\":2948:2964  allowance[owner] */\n      0x00\n        /* \"ERC4626.sol\":2958:2963  owner */\n      dup5\n        /* \"ERC4626.sol\":2948:2964  allowance[owner] */\n      0xffffffffffffffffffffffffffffffffffffffff\n      and\n      0xffffffffffffffffffffffffffffffffffffffff\n      and\n      dup2\n      mstore\n      0x20\n      add\n      swap1\n      dup2\n      mstore\n      0x20\n      add\n      0x00\n      keccak256\n        /* \"ERC4626.sol\":2948:2976  allowance[owner][msg.sender] */\n      0x00\n        /* \"ERC4626.sol\":2965:2975  msg.sender */\n      caller\n        /* \"ERC4626.sol\":2948:2976  allowance[owner][msg.sender] */\n      0xffffffffffffffffffffffffffffffffffffffff\n      and\n      0xffffffffffffffffffffffffffffffffffffffff\n      and\n      dup2\n      mstore\n      0x20\n      add\n      swap1\n      dup2\n      mstore\n      0x20\n      add\n      0x00\n      keccak256\n      sload\n        /* \"ERC4626.sol\":2930:2976  uint256 allowed = allowance[owner][msg.sender] */\n      swap1\n      pop\n        /* \"ERC4626.sol\":3042:3059  type(uint256).max */\n      0xffffffffffffffffffffffffffffffffffffffffffffffffffffffffffffffff\n        /* \"ERC4626.sol\":3031:3038  allowed */\n      dup2\n        /* \"ERC4626.sol\":3031:3059  allowed != type(uint256).max */\n      eq\n        /* \"ERC4626.sol\":3027:3124  if (allowed != type(uint256).max)... */\n      tag_336\n      jumpi\n        /* \"ERC4626.sol\":3118:3124  shares */\n      dup2\n        /* \"ERC4626.sol\":3108:3115  allowed */\n      dup2\n        /* \"ERC4626.sol\":3108:3124  allowed - shares */\n      tag_337\n      swap2\n      swap1\n      tag_246\n      jump\t// in\n    tag_337:\n        /* \"ERC4626.sol\":3077:3086  allowance */\n      0x04\n        /* \"ERC4626.sol\":3077:3093  allowance[owner] */\n      0x00\n        /* \"ERC4626.sol\":3087:3092  owner */\n      dup6\n        /* \"ERC4626.sol\":3077:3093  allowance[owner] */\n      0xffffffffffffffffffffffffffffffffffffffff\n      and\n      0xffffffffffffffffffffffffffffffffffffffff\n      and\n      dup2\n      mstore\n      0x20\n      add\n      swap1\n      dup2\n      mstore\n      0x20\n      add\n      0x00\n      keccak256\n        /* \"ERC4626.sol\":3077:3105  allowance[owner][msg.sender] */\n      0x00\n        /* \"ERC4626.sol\":3094:3104  msg.sender */\n      caller\n        /* \"ERC4626.sol\":3077:3105  allowance[owner][msg.sender] */\n      0xffffffffffffffffffffffffffffffffffffffff\n      and\n      0xffffffffffffffffffffffffffffffffffffffff\n      and\n      dup2\n      mstore\n      0x20\n      add\n      swap1\n      dup2\n      mstore\n      0x20\n      add\n      0x00\n      keccak256\n        /* \"ERC4626.sol\":3077:3124  allowance[owner][msg.sender] = allowed - shares */\n      dup2\n      swap1\n      sstore\n      pop\n        /* \"ERC4626.sol\":3027:3124  if (allowed != type(uint256).max)... */\n    tag_336:\n        /* \"ERC4626.sol\":2916:3135  {... */\n      pop\n        /* \"ERC4626.sol\":2891:3135  if (msg.sender != owner) {... */\n    tag_335:\n        /* \"ERC4626.sol\":3145:3175  beforeWithdraw(assets, shares) */\n      tag_338\n        /* \"ERC4626.sol\":3160:3166  assets */\n      dup5\n        /* \"ERC4626.sol\":3168:3174  shares */\n      dup3\n        /* \"ERC4626.sol\":3145:3159  beforeWithdraw */\n      tag_339\n        /* \"ERC4626.sol\":3145:3175  beforeWithdraw(assets, shares) */\n      jump\t// in\n    tag_338:\n        /* \"ERC4626.sol\":3186:3206  _burn(owner, shares) */\n      tag_340\n        /* \"ERC4626.sol\":3192:3197  owner */\n      dup3\n        /* \"ERC4626.sol\":3199:3205  shares */\n      dup3\n        /* \"ERC4626.sol\":3186:3191  _burn */\n      tag_341\n        /* \"ERC4626.sol\":3186:3206  _burn(owner, shares) */\n      jump\t// in\n    tag_340:\n        /* \"ERC4626.sol\":3253:3258  owner */\n      dup2\n        /* \"ERC4626.sol\":3222:3275  Withdraw(msg.sender, receiver, owner, assets, shares) */\n      0xffffffffffffffffffffffffffffffffffffffff\n      and\n        /* \"ERC4626.sol\":3243:3251  receiver */\n      dup4\n        /* \"ERC4626.sol\":3222:3275  Withdraw(msg.sender, receiver, owner, assets, shares) */\n      0xffffffffffffffffffffffffffffffffffffffff\n      and\n        /* \"ERC4626.sol\":3231:3241  msg.sender */\n      caller\n        /* \"ERC4626.sol\":3222:3275  Withdraw(msg.sender, receiver, owner, assets, shares) */\n      0xffffffffffffffffffffffffffffffffffffffff\n      and\n      0xfbde797d201c681b91056529119e0b02407c7bb96a4a2c75c01fc9667232c8db\n        /* \"ERC4626.sol\":3260:3266  assets */\n      dup8\n        /* \"ERC4626.sol\":3268:3274  shares */\n      dup6\n        /* \"ERC4626.sol\":3222:3275  Withdraw(msg.sender, receiver, owner, assets, shares) */\n      mload(0x40)\n      tag_342\n      swap3\n      swap2\n      swap1\n      tag_285\n      jump\t// in\n    tag_342:\n      mload(0x40)\n      dup1\n      swap2\n      sub\n      swap1\n      log4\n        /* \"ERC4626.sol\":3286:3322  asset.safeTransfer(receiver, assets) */\n      tag_343\n        /* \"ERC4626.sol\":3305:3313  receiver */\n      dup4\n        /* \"ERC4626.sol\":3315:3321  assets */\n      dup6\n        /* \"ERC4626.sol\":3286:3291  asset */\n      immutable(\"0xecac27c21aa9a89d7be9ad03c2d91e82cbd466284ecdf2bd5bad7f953539cc45\")\n        /* \"ERC4626.sol\":3286:3304  asset.safeTransfer */\n      0xffffffffffffffffffffffffffffffffffffffff\n      and\n      tag_344\n      swap1\n        /* \"ERC4626.sol\":3286:3322  asset.safeTransfer(receiver, assets) */\n      swap3\n      swap2\n      swap1\n      0xffffffff\n      and\n      jump\t// in\n    tag_343:\n        /* \"ERC4626.sol\":2634:3329  function withdraw(... */\n      swap4\n      swap3\n      pop\n      pop\n      pop\n      jump\t// out\n        /* \"ERC4626.sol\":3335:4064  function redeem(... */\n    tag_165:\n        /* \"ERC4626.sol\":3454:3468  uint256 assets */\n      0x00\n        /* \"ERC4626.sol\":3498:3503  owner */\n      dup2\n        /* \"ERC4626.sol\":3484:3503  msg.sender != owner */\n      0xffffffffffffffffffffffffffffffffffffffff\n      and\n        /* \"ERC4626.sol\":3484:3494  msg.sender */\n      caller\n        /* \"ERC4626.sol\":3484:3503  msg.sender != owner */\n      0xffffffffffffffffffffffffffffffffffffffff\n      and\n      eq\n        /* \"ERC4626.sol\":3480:3724  if (msg.sender != owner) {... */\n      tag_346\n      jumpi\n        /* \"ERC4626.sol\":3519:3534  uint256 allowed */\n      0x00\n        /* \"ERC4626.sol\":3537:3546  allowance */\n      0x04\n        /* \"ERC4626.sol\":3537:3553  allowance[owner] */\n      0x00\n        /* \"ERC4626.sol\":3547:3552  owner */\n      dup5\n        /* \"ERC4626.sol\":3537:3553  allowance[owner] */\n      0xffffffffffffffffffffffffffffffffffffffff\n      and\n      0xffffffffffffffffffffffffffffffffffffffff\n      and\n      dup2\n      mstore\n      0x20\n      add\n      swap1\n      dup2\n      mstore\n      0x20\n      add\n      0x00\n      keccak256\n        /* \"ERC4626.sol\":3537:3565  allowance[owner][msg.sender] */\n      0x00\n        /* \"ERC4626.sol\":3554:3564  msg.sender */\n      caller\n        /* \"ERC4626.sol\":3537:3565  allowance[owner][msg.sender] */\n      0xffffffffffffffffffffffffffffffffffffffff\n      and\n      0xffffffffffffffffffffffffffffffffffffffff\n      and\n      dup2\n      mstore\n      0x20\n      add\n      swap1\n      dup2\n      mstore\n      0x20\n      add\n      0x00\n      keccak256\n      sload\n        /* \"ERC4626.sol\":3519:3565  uint256 allowed = allowance[owner][msg.sender] */\n      swap1\n      pop\n        /* \"ERC4626.sol\":3631:3648  type(uint256).max */\n      0xffffffffffffffffffffffffffffffffffffffffffffffffffffffffffffffff\n        /* \"ERC4626.sol\":3620:3627  allowed */\n      dup2\n        /* \"ERC4626.sol\":3620:3648  allowed != type(uint256).max */\n      eq\n        /* \"ERC4626.sol\":3616:3713  if (allowed != type(uint256).max)... */\n      tag_347\n      jumpi\n        /* \"ERC4626.sol\":3707:3713  shares */\n      dup5\n        /* \"ERC4626.sol\":3697:3704  allowed */\n      dup2\n        /* \"ERC4626.sol\":3697:3713  allowed - shares */\n      tag_348\n      swap2\n      swap1\n      tag_246\n      jump\t// in\n    tag_348:\n        /* \"ERC4626.sol\":3666:3675  allowance */\n      0x04\n        /* \"ERC4626.sol\":3666:3682  allowance[owner] */\n      0x00\n        /* \"ERC4626.sol\":3676:3681  owner */\n      dup6\n        /* \"ERC4626.sol\":3666:3682  allowance[owner] */\n      0xffffffffffffffffffffffffffffffffffffffff\n      and\n      0xffffffffffffffffffffffffffffffffffffffff\n      and\n      dup2\n      mstore\n      0x20\n      add\n      swap1\n      dup2\n      mstore\n      0x20\n      add\n      0x00\n      keccak256\n        /* \"ERC4626.sol\":3666:3694  allowance[owner][msg.sender] */\n      0x00\n        /* \"ERC4626.sol\":3683:3693  msg.sender */\n      caller\n        /* \"ERC4626.sol\":3666:3694  allowance[owner][msg.sender] */\n      0xffffffffffffffffffffffffffffffffffffffff\n      and\n      0xffffffffffffffffffffffffffffffffffffffff\n      and\n      dup2\n      mstore\n      0x20\n      add\n      swap1\n      dup2\n      mstore\n      0x20\n      add\n      0x00\n      keccak256\n        /* \"ERC4626.sol\":3666:3713  allowance[owner][msg.sender] = allowed - shares */\n      dup2\n      swap1\n      sstore\n      pop\n        /* \"ERC4626.sol\":3616:3713  if (allowed != type(uint256).max)... */\n    tag_347:\n        /* \"ERC4626.sol\":3505:3724  {... */\n      pop\n        /* \"ERC4626.sol\":3480:3724  if (msg.sender != owner) {... */\n    tag_346:\n        /* \"ERC4626.sol\":3852:3853  0 */\n      0x00\n        /* \"ERC4626.sol\":3826:3847  previewRedeem(shares) */\n      tag_349\n        /* \"ERC4626.sol\":3840:3846  shares */\n      dup6\n        /* \"ERC4626.sol\":3826:3839  previewRedeem */\n      tag_117\n        /* \"ERC4626.sol\":3826:3847  previewRedeem(shares) */\n      jump\t// in\n    tag_349:\n        /* \"ERC4626.sol\":3817:3847  assets = previewRedeem(shares) */\n      swap2\n      pop\n      dup2\n        /* \"ERC4626.sol\":3816:3853  (assets = previewRedeem(shares)) != 0 */\n      sub\n        /* \"ERC4626.sol\":3808:3869  require((assets = previewRedeem(shares)) != 0, \"ZERO_ASSETS\") */\n      tag_350\n      jumpi\n      mload(0x40)\n      0x08c379a000000000000000000000000000000000000000000000000000000000\n      dup2\n      mstore\n      0x04\n      add\n      tag_351\n      swap1\n      tag_352\n      jump\t// in\n    tag_351:\n      mload(0x40)\n      dup1\n      swap2\n      sub\n      swap1\n      revert\n    tag_350:\n        /* \"ERC4626.sol\":3880:3910  beforeWithdraw(assets, shares) */\n      tag_353\n        /* \"ERC4626.sol\":3895:3901  assets */\n      dup2\n        /* \"ERC4626.sol\":3903:3909  shares */\n      dup6\n        /* \"ERC4626.sol\":3880:3894  beforeWithdraw */\n      tag_339\n        /* \"ERC4626.sol\":3880:3910  beforeWithdraw(assets, shares) */\n      jump\t// in\n    tag_353:\n        /* \"ERC4626.sol\":3921:3941  _burn(owner, shares) */\n      tag_354\n        /* \"ERC4626.sol\":3927:3932  owner */\n      dup3\n        /* \"ERC4626.sol\":3934:3940  shares */\n      dup6\n        /* \"ERC4626.sol\":3921:3926  _burn */\n      tag_341\n        /* \"ERC4626.sol\":3921:3941  _burn(owner, shares) */\n      jump\t// in\n    tag_354:\n        /* \"ERC4626.sol\":3988:3993  owner */\n      dup2\n        /* \"ERC4626.sol\":3957:4010  Withdraw(msg.sender, receiver, owner, assets, shares) */\n      0xffffffffffffffffffffffffffffffffffffffff\n      and\n        /* \"ERC4626.sol\":3978:3986  receiver */\n      dup4\n        /* \"ERC4626.sol\":3957:4010  Withdraw(msg.sender, receiver, owner, assets, shares) */\n      0xffffffffffffffffffffffffffffffffffffffff\n      and\n        /* \"ERC4626.sol\":3966:3976  msg.sender */\n      caller\n        /* \"ERC4626.sol\":3957:4010  Withdraw(msg.sender, receiver, owner, assets, shares) */\n      0xffffffffffffffffffffffffffffffffffffffff\n      and\n      0xfbde797d201c681b91056529119e0b02407c7bb96a4a2c75c01fc9667232c8db\n        /* \"ERC4626.sol\":3995:4001  assets */\n      dup5\n        /* \"ERC4626.sol\":4003:4009  shares */\n      dup9\n        /* \"ERC4626.sol\":3957:4010  Withdraw(msg.sender, receiver, owner, assets, shares) */\n      mload(0x40)\n      tag_355\n      swap3\n      swap2\n      swap1\n      tag_285\n      jump\t// in\n    tag_355:\n      mload(0x40)\n      dup1\n      swap2\n      sub\n      swap1\n      log4\n        /* \"ERC4626.sol\":4021:4057  asset.safeTransfer(receiver, assets) */\n      tag_356\n        /* \"ERC4626.sol\":4040:4048  receiver */\n      dup4\n        /* \"ERC4626.sol\":4050:4056  assets */\n      dup3\n        /* \"ERC4626.sol\":4021:4026  asset */\n      immutable(\"0xecac27c21aa9a89d7be9ad03c2d91e82cbd466284ecdf2bd5bad7f953539cc45\")\n        /* \"ERC4626.sol\":4021:4039  asset.safeTransfer */\n      0xffffffffffffffffffffffffffffffffffffffff\n      and\n      tag_344\n      swap1\n        /* \"ERC4626.sol\":4021:4057  asset.safeTransfer(receiver, assets) */\n      swap3\n      swap2\n      swap1\n      0xffffffff\n      and\n      jump\t// in\n    tag_356:\n        /* \"ERC4626.sol\":3335:4064  function redeem(... */\n      swap4\n      swap3\n      pop\n      pop\n      pop\n      jump\t// out\n        /* \"SquiddyCore.sol\":217:267  uint256 public beforeWithdrawHookCalledCounter = 0 */\n    tag_168:\n      sload(0x07)\n      dup2\n      jump\t// out\n        /* \"SquiddyCore.sol\":5182:5602  function setTargetFloatPercent(uint256 newTargetFloatPercent)... */\n    tag_172:\n        /* \"SquiddyCore.sol\":1682:1692  msg.sender */\n      caller\n        /* \"SquiddyCore.sol\":1669:1692  manager() == msg.sender */\n      0xffffffffffffffffffffffffffffffffffffffff\n      and\n        /* \"SquiddyCore.sol\":1669:1678  manager() */\n      tag_358\n        /* \"SquiddyCore.sol\":1669:1676  manager */\n      tag_112\n        /* \"SquiddyCore.sol\":1669:1678  manager() */\n      jump\t// in\n    tag_358:\n        /* \"SquiddyCore.sol\":1669:1692  manager() == msg.sender */\n      0xffffffffffffffffffffffffffffffffffffffff\n      and\n      eq\n        /* \"SquiddyCore.sol\":1661:1731  require(manager() == msg.sender, \"Ownable: caller is not the manager\") */\n      tag_359\n      jumpi\n      mload(0x40)\n      0x08c379a000000000000000000000000000000000000000000000000000000000\n      dup2\n      mstore\n      0x04\n      add\n      tag_360\n      swap1\n      tag_253\n      jump\t// in\n    tag_360:\n      mload(0x40)\n      dup1\n      swap2\n      sub\n      swap1\n      revert\n    tag_359:\n        /* \"SquiddyCore.sol\":5395:5399  1e18 */\n      0x0de0b6b3a7640000\n        /* \"SquiddyCore.sol\":5370:5391  newTargetFloatPercent */\n      dup2\n        /* \"SquiddyCore.sol\":5370:5399  newTargetFloatPercent <= 1e18 */\n      gt\n      iszero\n        /* \"SquiddyCore.sol\":5362:5419  require(newTargetFloatPercent <= 1e18, \"TARGET_TOO_HIGH\") */\n      tag_362\n      jumpi\n      mload(0x40)\n      0x08c379a000000000000000000000000000000000000000000000000000000000\n      dup2\n      mstore\n      0x04\n      add\n      tag_363\n      swap1\n      tag_364\n      jump\t// in\n    tag_363:\n      mload(0x40)\n      dup1\n      swap2\n      sub\n      swap1\n      revert\n    tag_362:\n        /* \"SquiddyCore.sol\":5498:5519  newTargetFloatPercent */\n      dup1\n        /* \"SquiddyCore.sol\":5477:5495  targetFloatPercent */\n      0x0a\n        /* \"SquiddyCore.sol\":5477:5519  targetFloatPercent = newTargetFloatPercent */\n      dup2\n      swap1\n      sstore\n      pop\n        /* \"SquiddyCore.sol\":5561:5571  msg.sender */\n      caller\n        /* \"SquiddyCore.sol\":5535:5595  TargetFloatPercentUpdated(msg.sender, newTargetFloatPercent) */\n      0xffffffffffffffffffffffffffffffffffffffff\n      and\n      0x95bc4480b51f4860106d42850bcae222cf3303fb2b7d433e896205e0ebefe369\n        /* \"SquiddyCore.sol\":5573:5594  newTargetFloatPercent */\n      dup3\n        /* \"SquiddyCore.sol\":5535:5595  TargetFloatPercentUpdated(msg.sender, newTargetFloatPercent) */\n      mload(0x40)\n      tag_365\n      swap2\n      swap1\n      tag_56\n      jump\t// in\n    tag_365:\n      mload(0x40)\n      dup1\n      swap2\n      sub\n      swap1\n      log2\n        /* \"SquiddyCore.sol\":5182:5602  function setTargetFloatPercent(uint256 newTargetFloatPercent)... */\n      pop\n      jump\t// out\n        /* \"SquiddyCore.sol\":369:402  ERC20 public immutable UNDERLYING */\n    tag_174:\n      immutable(\"0x6b5c062ff531e4aab4774f509e92f4d1142a84e2071479e43245c0e4a7940df4\")\n      dup2\n      jump\t// out\n        /* \"ERC4626.sol\":6111:6216  function maxMint(address) public view virtual returns (uint256) {... */\n    tag_178:\n        /* \"ERC4626.sol\":6166:6173  uint256 */\n      0x00\n        /* \"ERC4626.sol\":6192:6209  type(uint256).max */\n      0xffffffffffffffffffffffffffffffffffffffffffffffffffffffffffffffff\n        /* \"ERC4626.sol\":6185:6209  return type(uint256).max */\n      swap1\n      pop\n        /* \"ERC4626.sol\":6111:6216  function maxMint(address) public view virtual returns (uint256) {... */\n      swap2\n      swap1\n      pop\n      jump\t// out\n        /* \"ERC4626.sol\":4321:4614  function convertToShares(uint256 assets)... */\n    tag_182:\n        /* \"ERC4626.sol\":4423:4430  uint256 */\n      0x00\n        /* \"ERC4626.sol\":4446:4460  uint256 supply */\n      dup1\n        /* \"ERC4626.sol\":4463:4474  totalSupply */\n      sload(0x02)\n        /* \"ERC4626.sol\":4446:4474  uint256 supply = totalSupply */\n      swap1\n      pop\n        /* \"ERC4626.sol\":4554:4555  0 */\n      0x00\n        /* \"ERC4626.sol\":4544:4550  supply */\n      dup2\n        /* \"ERC4626.sol\":4544:4555  supply == 0 */\n      eq\n        /* \"ERC4626.sol\":4544:4607  supply == 0 ? assets : assets.mulDivDown(supply, totalAssets()) */\n      tag_368\n      jumpi\n        /* \"ERC4626.sol\":4567:4607  assets.mulDivDown(supply, totalAssets()) */\n      tag_369\n        /* \"ERC4626.sol\":4585:4591  supply */\n      dup2\n        /* \"ERC4626.sol\":4593:4606  totalAssets() */\n      tag_370\n        /* \"ERC4626.sol\":4593:4604  totalAssets */\n      tag_54\n        /* \"ERC4626.sol\":4593:4606  totalAssets() */\n      jump\t// in\n    tag_370:\n        /* \"ERC4626.sol\":4567:4573  assets */\n      dup6\n        /* \"ERC4626.sol\":4567:4584  assets.mulDivDown */\n      tag_233\n      swap1\n        /* \"ERC4626.sol\":4567:4607  assets.mulDivDown(supply, totalAssets()) */\n      swap3\n      swap2\n      swap1\n      0xffffffff\n      and\n      jump\t// in\n    tag_369:\n        /* \"ERC4626.sol\":4544:4607  supply == 0 ? assets : assets.mulDivDown(supply, totalAssets()) */\n      jump(tag_371)\n    tag_368:\n        /* \"ERC4626.sol\":4558:4564  assets */\n      dup3\n        /* \"ERC4626.sol\":4544:4607  supply == 0 ? assets : assets.mulDivDown(supply, totalAssets()) */\n    tag_371:\n        /* \"ERC4626.sol\":4537:4607  return supply == 0 ? assets : assets.mulDivDown(supply, totalAssets()) */\n      swap2\n      pop\n      pop\n        /* \"ERC4626.sol\":4321:4614  function convertToShares(uint256 assets)... */\n      swap2\n      swap1\n      pop\n      jump\t// out\n        /* \"ERC4626.sol\":6222:6353  function maxWithdraw(address owner) public view virtual returns (uint256) {... */\n    tag_186:\n        /* \"ERC4626.sol\":6287:6294  uint256 */\n      0x00\n        /* \"ERC4626.sol\":6313:6346  convertToAssets(balanceOf[owner]) */\n      tag_373\n        /* \"ERC4626.sol\":6329:6338  balanceOf */\n      0x03\n        /* \"ERC4626.sol\":6329:6345  balanceOf[owner] */\n      0x00\n        /* \"ERC4626.sol\":6339:6344  owner */\n      dup5\n        /* \"ERC4626.sol\":6329:6345  balanceOf[owner] */\n      0xffffffffffffffffffffffffffffffffffffffff\n      and\n      0xffffffffffffffffffffffffffffffffffffffff\n      and\n      dup2\n      mstore\n      0x20\n      add\n      swap1\n      dup2\n      mstore\n      0x20\n      add\n      0x00\n      keccak256\n      sload\n        /* \"ERC4626.sol\":6313:6328  convertToAssets */\n      tag_64\n        /* \"ERC4626.sol\":6313:6346  convertToAssets(balanceOf[owner]) */\n      jump\t// in\n    tag_373:\n        /* \"ERC4626.sol\":6306:6346  return convertToAssets(balanceOf[owner]) */\n      swap1\n      pop\n        /* \"ERC4626.sol\":6222:6353  function maxWithdraw(address owner) public view virtual returns (uint256) {... */\n      swap2\n      swap1\n      pop\n      jump\t// out\n        /* \"ERC20.sol\":3936:5465  function permit(... */\n    tag_191:\n        /* \"ERC20.sol\":4155:4170  block.timestamp */\n      timestamp\n        /* \"ERC20.sol\":4143:4151  deadline */\n      dup5\n        /* \"ERC20.sol\":4143:4170  deadline >= block.timestamp */\n      lt\n      iszero\n        /* \"ERC20.sol\":4135:4198  require(deadline >= block.timestamp, \"PERMIT_DEADLINE_EXPIRED\") */\n      tag_375\n      jumpi\n      mload(0x40)\n      0x08c379a000000000000000000000000000000000000000000000000000000000\n      dup2\n      mstore\n      0x04\n      add\n      tag_376\n      swap1\n      tag_377\n      jump\t// in\n    tag_376:\n      mload(0x40)\n      dup1\n      swap2\n      sub\n      swap1\n      revert\n    tag_375:\n        /* \"ERC20.sol\":4363:4387  address recoveredAddress */\n      0x00\n        /* \"ERC20.sol\":4390:5195  ecrecover(... */\n      0x01\n        /* \"ERC20.sol\":4526:4544  DOMAIN_SEPARATOR() */\n      tag_378\n        /* \"ERC20.sol\":4526:4542  DOMAIN_SEPARATOR */\n      tag_96\n        /* \"ERC20.sol\":4526:4544  DOMAIN_SEPARATOR() */\n      jump\t// in\n    tag_378:\n        /* \"ERC20.sol\":4653:4818  keccak256(... */\n      0x6e71edae12b1b97f4d1f60370fef10105fa2faae0126114a169c64845d6126c9\n        /* \"ERC20.sol\":4852:4857  owner */\n      dup11\n        /* \"ERC20.sol\":4891:4898  spender */\n      dup11\n        /* \"ERC20.sol\":4932:4937  value */\n      dup11\n        /* \"ERC20.sol\":4971:4977  nonces */\n      0x05\n        /* \"ERC20.sol\":4971:4984  nonces[owner] */\n      0x00\n        /* \"ERC20.sol\":4978:4983  owner */\n      dup16\n        /* \"ERC20.sol\":4971:4984  nonces[owner] */\n      0xffffffffffffffffffffffffffffffffffffffff\n      and\n      0xffffffffffffffffffffffffffffffffffffffff\n      and\n      dup2\n      mstore\n      0x20\n      add\n      swap1\n      dup2\n      mstore\n      0x20\n      add\n      0x00\n      keccak256\n      0x00\n        /* \"ERC20.sol\":4971:4986  nonces[owner]++ */\n      dup2\n      sload\n      dup1\n      swap3\n      swap2\n      swap1\n      0x01\n      add\n      swap2\n      swap1\n      pop\n      sstore\n        /* \"ERC20.sol\":5020:5028  deadline */\n      dup12\n        /* \"ERC20.sol\":4609:5058  abi.encode(... */\n      add(0x20, mload(0x40))\n      tag_379\n      swap7\n      swap6\n      swap5\n      swap4\n      swap3\n      swap2\n      swap1\n      tag_380\n      jump\t// in\n    tag_379:\n      mload(0x40)\n      0x20\n      dup2\n      dup4\n      sub\n      sub\n      dup2\n      mstore\n      swap1\n      0x40\n      mstore\n        /* \"ERC20.sol\":4570:5084  keccak256(... */\n      dup1\n      mload\n      swap1\n      0x20\n      add\n      keccak256\n        /* \"ERC20.sol\":4448:5106  abi.encodePacked(... */\n      add(0x20, mload(0x40))\n      tag_381\n      swap3\n      swap2\n      swap1\n      tag_382\n      jump\t// in\n    tag_381:\n      mload(0x40)\n      0x20\n      dup2\n      dup4\n      sub\n      sub\n      dup2\n      mstore\n      swap1\n      0x40\n      mstore\n        /* \"ERC20.sol\":4417:5124  keccak256(... */\n      dup1\n      mload\n      swap1\n      0x20\n      add\n      keccak256\n        /* \"ERC20.sol\":5142:5143  v */\n      dup6\n        /* \"ERC20.sol\":5161:5162  r */\n      dup6\n        /* \"ERC20.sol\":5180:5181  s */\n      dup6\n        /* \"ERC20.sol\":4390:5195  ecrecover(... */\n      mload(0x40)\n      0x00\n      dup2\n      mstore\n      0x20\n      add\n      0x40\n      mstore\n      mload(0x40)\n      tag_383\n      swap5\n      swap4\n      swap3\n      swap2\n      swap1\n      tag_384\n      jump\t// in\n    tag_383:\n      0x20\n      mload(0x40)\n      0x20\n      dup2\n      sub\n      swap1\n      dup1\n      dup5\n      sub\n      swap1\n      dup6\n      gas\n      staticcall\n      iszero\n      dup1\n      iszero\n      tag_386\n      jumpi\n      returndatasize\n      0x00\n      dup1\n      returndatacopy\n      revert(0x00, returndatasize)\n    tag_386:\n      pop\n      pop\n      pop\n      mload(sub(mload(0x40), 0x20))\n        /* \"ERC20.sol\":4363:5195  address recoveredAddress = ecrecover(... */\n      swap1\n      pop\n        /* \"ERC20.sol\":5263:5264  0 */\n      0x00\n        /* \"ERC20.sol\":5235:5265  recoveredAddress != address(0) */\n      0xffffffffffffffffffffffffffffffffffffffff\n      and\n        /* \"ERC20.sol\":5235:5251  recoveredAddress */\n      dup2\n        /* \"ERC20.sol\":5235:5265  recoveredAddress != address(0) */\n      0xffffffffffffffffffffffffffffffffffffffff\n      and\n      eq\n      iszero\n        /* \"ERC20.sol\":5235:5294  recoveredAddress != address(0) && recoveredAddress == owner */\n      dup1\n      iszero\n      tag_387\n      jumpi\n      pop\n        /* \"ERC20.sol\":5289:5294  owner */\n      dup8\n        /* \"ERC20.sol\":5269:5294  recoveredAddress == owner */\n      0xffffffffffffffffffffffffffffffffffffffff\n      and\n        /* \"ERC20.sol\":5269:5285  recoveredAddress */\n      dup2\n        /* \"ERC20.sol\":5269:5294  recoveredAddress == owner */\n      0xffffffffffffffffffffffffffffffffffffffff\n      and\n      eq\n        /* \"ERC20.sol\":5235:5294  recoveredAddress != address(0) && recoveredAddress == owner */\n    tag_387:\n        /* \"ERC20.sol\":5210:5342  require(... */\n      tag_388\n      jumpi\n      mload(0x40)\n      0x08c379a000000000000000000000000000000000000000000000000000000000\n      dup2\n      mstore\n      0x04\n      add\n      tag_389\n      swap1\n      tag_390\n      jump\t// in\n    tag_389:\n      mload(0x40)\n      dup1\n      swap2\n      sub\n      swap1\n      revert\n    tag_388:\n        /* \"ERC20.sol\":5396:5401  value */\n      dup6\n        /* \"ERC20.sol\":5357:5366  allowance */\n      0x04\n        /* \"ERC20.sol\":5357:5384  allowance[recoveredAddress] */\n      0x00\n        /* \"ERC20.sol\":5367:5383  recoveredAddress */\n      dup4\n        /* \"ERC20.sol\":5357:5384  allowance[recoveredAddress] */\n      0xffffffffffffffffffffffffffffffffffffffff\n      and\n      0xffffffffffffffffffffffffffffffffffffffff\n      and\n      dup2\n      mstore\n      0x20\n      add\n      swap1\n      dup2\n      mstore\n      0x20\n      add\n      0x00\n      keccak256\n        /* \"ERC20.sol\":5357:5393  allowance[recoveredAddress][spender] */\n      0x00\n        /* \"ERC20.sol\":5385:5392  spender */\n      dup10\n        /* \"ERC20.sol\":5357:5393  allowance[recoveredAddress][spender] */\n      0xffffffffffffffffffffffffffffffffffffffff\n      and\n      0xffffffffffffffffffffffffffffffffffffffff\n      and\n      dup2\n      mstore\n      0x20\n      add\n      swap1\n      dup2\n      mstore\n      0x20\n      add\n      0x00\n      keccak256\n        /* \"ERC20.sol\":5357:5401  allowance[recoveredAddress][spender] = value */\n      dup2\n      swap1\n      sstore\n      pop\n        /* \"ERC20.sol\":4339:5412  unchecked {... */\n      pop\n        /* \"ERC20.sol\":5443:5450  spender */\n      dup6\n        /* \"ERC20.sol\":5427:5458  Approval(owner, spender, value) */\n      0xffffffffffffffffffffffffffffffffffffffff\n      and\n        /* \"ERC20.sol\":5436:5441  owner */\n      dup8\n        /* \"ERC20.sol\":5427:5458  Approval(owner, spender, value) */\n      0xffffffffffffffffffffffffffffffffffffffff\n      and\n      0x8c5be1e5ebec7d5bd14f71427d1e84f3dd0314c0f7b2291e5b200ac8c7c3b925\n        /* \"ERC20.sol\":5452:5457  value */\n      dup8\n        /* \"ERC20.sol\":5427:5458  Approval(owner, spender, value) */\n      mload(0x40)\n      tag_391\n      swap2\n      swap1\n      tag_56\n      jump\t// in\n    tag_391:\n      mload(0x40)\n      dup1\n      swap2\n      sub\n      swap1\n      log3\n        /* \"ERC20.sol\":3936:5465  function permit(... */\n      pop\n      pop\n      pop\n      pop\n      pop\n      pop\n      pop\n      jump\t// out\n        /* \"ERC4626.sol\":6359:6471  function maxRedeem(address owner) public view virtual returns (uint256) {... */\n    tag_194:\n        /* \"ERC4626.sol\":6422:6429  uint256 */\n      0x00\n        /* \"ERC4626.sol\":6448:6457  balanceOf */\n      0x03\n        /* \"ERC4626.sol\":6448:6464  balanceOf[owner] */\n      0x00\n        /* \"ERC4626.sol\":6458:6463  owner */\n      dup4\n        /* \"ERC4626.sol\":6448:6464  balanceOf[owner] */\n      0xffffffffffffffffffffffffffffffffffffffff\n      and\n      0xffffffffffffffffffffffffffffffffffffffff\n      and\n      dup2\n      mstore\n      0x20\n      add\n      swap1\n      dup2\n      mstore\n      0x20\n      add\n      0x00\n      keccak256\n      sload\n        /* \"ERC4626.sol\":6441:6464  return balanceOf[owner] */\n      swap1\n      pop\n        /* \"ERC4626.sol\":6359:6471  function maxRedeem(address owner) public view virtual returns (uint256) {... */\n      swap2\n      swap1\n      pop\n      jump\t// out\n        /* \"ERC20.sol\":1418:1482  mapping(address => mapping(address => uint256)) public allowance */\n    tag_199:\n      mstore(0x20, 0x04)\n      dup2\n      0x00\n      mstore\n      mstore(0x20, keccak256(0x00, 0x40))\n      dup1\n      0x00\n      mstore\n      keccak256(0x00, 0x40)\n      0x00\n      swap2\n      pop\n      swap2\n      pop\n      pop\n      sload\n      dup2\n      jump\t// out\n        /* \"SquiddyCore.sol\":7143:7179  uint256 public totalStrategyHoldings */\n    tag_202:\n      sload(0x0c)\n      dup2\n      jump\t// out\n        /* \"ERC4626.sol\":4919:5080  function previewDeposit(uint256 assets)... */\n    tag_206:\n        /* \"ERC4626.sol\":5020:5027  uint256 */\n      0x00\n        /* \"ERC4626.sol\":5050:5073  convertToShares(assets) */\n      tag_394\n        /* \"ERC4626.sol\":5066:5072  assets */\n      dup3\n        /* \"ERC4626.sol\":5050:5065  convertToShares */\n      tag_182\n        /* \"ERC4626.sol\":5050:5073  convertToShares(assets) */\n      jump\t// in\n    tag_394:\n        /* \"ERC4626.sol\":5043:5073  return convertToShares(assets) */\n      swap1\n      pop\n        /* \"ERC4626.sol\":4919:5080  function previewDeposit(uint256 assets)... */\n      swap2\n      swap1\n      pop\n      jump\t// out\n        /* \"SquiddyCore.sol\":3142:3424  function transferOwnership(address newOwner) public virtual onlyManager {... */\n    tag_210:\n        /* \"SquiddyCore.sol\":1682:1692  msg.sender */\n      caller\n        /* \"SquiddyCore.sol\":1669:1692  manager() == msg.sender */\n      0xffffffffffffffffffffffffffffffffffffffff\n      and\n        /* \"SquiddyCore.sol\":1669:1678  manager() */\n      tag_396\n        /* \"SquiddyCore.sol\":1669:1676  manager */\n      tag_112\n        /* \"SquiddyCore.sol\":1669:1678  manager() */\n      jump\t// in\n    tag_396:\n        /* \"SquiddyCore.sol\":1669:1692  manager() == msg.sender */\n      0xffffffffffffffffffffffffffffffffffffffff\n      and\n      eq\n        /* \"SquiddyCore.sol\":1661:1731  require(manager() == msg.sender, \"Ownable: caller is not the manager\") */\n      tag_397\n      jumpi\n      mload(0x40)\n      0x08c379a000000000000000000000000000000000000000000000000000000000\n      dup2\n      mstore\n      0x04\n      add\n      tag_398\n      swap1\n      tag_253\n      jump\t// in\n    tag_398:\n      mload(0x40)\n      dup1\n      swap2\n      sub\n      swap1\n      revert\n    tag_397:\n        /* \"SquiddyCore.sol\":3265:3266  0 */\n      0x00\n        /* \"SquiddyCore.sol\":3245:3267  newOwner != address(0) */\n      0xffffffffffffffffffffffffffffffffffffffff\n      and\n        /* \"SquiddyCore.sol\":3245:3253  newOwner */\n      dup2\n        /* \"SquiddyCore.sol\":3245:3267  newOwner != address(0) */\n      0xffffffffffffffffffffffffffffffffffffffff\n      and\n      sub\n        /* \"SquiddyCore.sol\":3224:3333  require(... */\n      tag_400\n      jumpi\n      mload(0x40)\n      0x08c379a000000000000000000000000000000000000000000000000000000000\n      dup2\n      mstore\n      0x04\n      add\n      tag_401\n      swap1\n      tag_402\n      jump\t// in\n    tag_401:\n      mload(0x40)\n      dup1\n      swap2\n      sub\n      swap1\n      revert\n    tag_400:\n        /* \"SquiddyCore.sol\":3379:3387  newOwner */\n      dup1\n        /* \"SquiddyCore.sol\":3348:3388  OwnershipTransferred(_manager, newOwner) */\n      0xffffffffffffffffffffffffffffffffffffffff\n      and\n        /* \"SquiddyCore.sol\":3369:3377  _manager */\n      0x06\n      0x00\n      swap1\n      sload\n      swap1\n      0x0100\n      exp\n      swap1\n      div\n      0xffffffffffffffffffffffffffffffffffffffff\n      and\n        /* \"SquiddyCore.sol\":3348:3388  OwnershipTransferred(_manager, newOwner) */\n      0xffffffffffffffffffffffffffffffffffffffff\n      and\n      0x8be0079c531659141344cd1fd0a4f28419497f9722a3daafe3b4186f6b6457e0\n      mload(0x40)\n      mload(0x40)\n      dup1\n      swap2\n      sub\n      swap1\n      log3\n        /* \"SquiddyCore.sol\":3409:3417  newOwner */\n      dup1\n        /* \"SquiddyCore.sol\":3398:3406  _manager */\n      0x06\n      0x00\n        /* \"SquiddyCore.sol\":3398:3417  _manager = newOwner */\n      0x0100\n      exp\n      dup2\n      sload\n      dup2\n      0xffffffffffffffffffffffffffffffffffffffff\n      mul\n      not\n      and\n      swap1\n      dup4\n      0xffffffffffffffffffffffffffffffffffffffff\n      and\n      mul\n      or\n      swap1\n      sstore\n      pop\n        /* \"SquiddyCore.sol\":3142:3424  function transferOwnership(address newOwner) public virtual onlyManager {... */\n      pop\n      jump\t// out\n        /* \"SquiddyCore.sol\":5953:5981  bool public underlyingIsWETH */\n    tag_212:\n      0x0b\n      0x00\n      swap1\n      sload\n      swap1\n      0x0100\n      exp\n      swap1\n      div\n      0xff\n      and\n      dup2\n      jump\t// out\n        /* \"SquiddyCore.sol\":273:321  uint256 public afterDepositHookCalledCounter = 0 */\n    tag_215:\n      sload(0x08)\n      dup2\n      jump\t// out\n        /* \"FixedPointMathLib.sol\":1507:2130  function mulDivDown(... */\n    tag_233:\n        /* \"FixedPointMathLib.sol\":1623:1632  uint256 z */\n      0x00\n        /* \"FixedPointMathLib.sol\":1720:1721  y */\n      dup3\n        /* \"FixedPointMathLib.sol\":1717:1718  x */\n      dup5\n        /* \"FixedPointMathLib.sol\":1713:1722  mul(x, y) */\n      mul\n        /* \"FixedPointMathLib.sol\":1708:1722  z := mul(x, y) */\n      swap1\n      pop\n        /* \"FixedPointMathLib.sol\":1952:1953  y */\n      dup3\n        /* \"FixedPointMathLib.sol\":1948:1949  x */\n      dup5\n        /* \"FixedPointMathLib.sol\":1945:1946  z */\n      dup3\n        /* \"FixedPointMathLib.sol\":1941:1950  div(z, x) */\n      div\n        /* \"FixedPointMathLib.sol\":1938:1954  eq(div(z, x), y) */\n      eq\n        /* \"FixedPointMathLib.sol\":1934:1935  x */\n      dup5\n        /* \"FixedPointMathLib.sol\":1927:1936  iszero(x) */\n      iszero\n        /* \"FixedPointMathLib.sol\":1924:1955  or(iszero(x), eq(div(z, x), y)) */\n      or\n        /* \"FixedPointMathLib.sol\":1889:1900  denominator */\n      dup3\n        /* \"FixedPointMathLib.sol\":1882:1901  iszero(denominator) */\n      iszero\n        /* \"FixedPointMathLib.sol\":1875:1902  iszero(iszero(denominator)) */\n      iszero\n        /* \"FixedPointMathLib.sol\":1850:1973  and(... */\n      and\n        /* \"FixedPointMathLib.sol\":1823:2032  if iszero(... */\n      tag_404\n      jumpi\n        /* \"FixedPointMathLib.sol\":2016:2017  0 */\n      0x00\n        /* \"FixedPointMathLib.sol\":2013:2014  0 */\n      dup1\n        /* \"FixedPointMathLib.sol\":2006:2018  revert(0, 0) */\n      revert\n        /* \"FixedPointMathLib.sol\":1823:2032  if iszero(... */\n    tag_404:\n        /* \"FixedPointMathLib.sol\":2102:2113  denominator */\n      dup2\n        /* \"FixedPointMathLib.sol\":2099:2100  z */\n      dup2\n        /* \"FixedPointMathLib.sol\":2095:2114  div(z, denominator) */\n      div\n        /* \"FixedPointMathLib.sol\":2090:2114  z := div(z, denominator) */\n      swap1\n      pop\n        /* \"FixedPointMathLib.sol\":1507:2130  function mulDivDown(... */\n      swap4\n      swap3\n      pop\n      pop\n      pop\n      jump\t// out\n        /* \"FixedPointMathLib.sol\":2136:2976  function mulDivUp(... */\n    tag_241:\n        /* \"FixedPointMathLib.sol\":2250:2259  uint256 z */\n      0x00\n        /* \"FixedPointMathLib.sol\":2347:2348  y */\n      dup3\n        /* \"FixedPointMathLib.sol\":2344:2345  x */\n      dup5\n        /* \"FixedPointMathLib.sol\":2340:2349  mul(x, y) */\n      mul\n        /* \"FixedPointMathLib.sol\":2335:2349  z := mul(x, y) */\n      swap1\n      pop\n        /* \"FixedPointMathLib.sol\":2579:2580  y */\n      dup3\n        /* \"FixedPointMathLib.sol\":2575:2576  x */\n      dup5\n        /* \"FixedPointMathLib.sol\":2572:2573  z */\n      dup3\n        /* \"FixedPointMathLib.sol\":2568:2577  div(z, x) */\n      div\n        /* \"FixedPointMathLib.sol\":2565:2581  eq(div(z, x), y) */\n      eq\n        /* \"FixedPointMathLib.sol\":2561:2562  x */\n      dup5\n        /* \"FixedPointMathLib.sol\":2554:2563  iszero(x) */\n      iszero\n        /* \"FixedPointMathLib.sol\":2551:2582  or(iszero(x), eq(div(z, x), y)) */\n      or\n        /* \"FixedPointMathLib.sol\":2516:2527  denominator */\n      dup3\n        /* \"FixedPointMathLib.sol\":2509:2528  iszero(denominator) */\n      iszero\n        /* \"FixedPointMathLib.sol\":2502:2529  iszero(iszero(denominator)) */\n      iszero\n        /* \"FixedPointMathLib.sol\":2477:2600  and(... */\n      and\n        /* \"FixedPointMathLib.sol\":2450:2659  if iszero(... */\n      tag_406\n      jumpi\n        /* \"FixedPointMathLib.sol\":2643:2644  0 */\n      0x00\n        /* \"FixedPointMathLib.sol\":2640:2641  0 */\n      dup1\n        /* \"FixedPointMathLib.sol\":2633:2645  revert(0, 0) */\n      revert\n        /* \"FixedPointMathLib.sol\":2450:2659  if iszero(... */\n    tag_406:\n        /* \"FixedPointMathLib.sol\":2957:2958  1 */\n      0x01\n        /* \"FixedPointMathLib.sol\":2943:2954  denominator */\n      dup3\n        /* \"FixedPointMathLib.sol\":2939:2940  1 */\n      0x01\n        /* \"FixedPointMathLib.sol\":2936:2937  z */\n      dup4\n        /* \"FixedPointMathLib.sol\":2932:2941  sub(z, 1) */\n      sub\n        /* \"FixedPointMathLib.sol\":2928:2955  div(sub(z, 1), denominator) */\n      div\n        /* \"FixedPointMathLib.sol\":2924:2959  add(div(sub(z, 1), denominator), 1) */\n      add\n        /* \"FixedPointMathLib.sol\":2919:2920  z */\n      dup2\n        /* \"FixedPointMathLib.sol\":2912:2921  iszero(z) */\n      iszero\n        /* \"FixedPointMathLib.sol\":2905:2922  iszero(iszero(z)) */\n      iszero\n        /* \"FixedPointMathLib.sol\":2901:2960  mul(iszero(iszero(z)), add(div(sub(z, 1), denominator), 1)) */\n      mul\n        /* \"FixedPointMathLib.sol\":2896:2960  z := mul(iszero(iszero(z)), add(div(sub(z, 1), denominator), 1)) */\n      swap1\n      pop\n        /* \"FixedPointMathLib.sol\":2136:2976  function mulDivUp(... */\n      swap4\n      swap3\n      pop\n      pop\n      pop\n      jump\t// out\n        /* \"ERC20.sol\":5698:6190  function computeDomainSeparator() internal view virtual returns (bytes32) {... */\n    tag_267:\n        /* \"ERC20.sol\":5763:5770  bytes32 */\n      0x00\n        /* \"ERC20.sol\":5860:6001  keccak256(... */\n      0x8b73c3c69bb8fe3d512ecc4cf759cc79239f7b179b0ffacaa9a75d522b39400f\n        /* \"ERC20.sol\":6039:6043  name */\n      0x00\n        /* \"ERC20.sol\":6023:6045  keccak256(bytes(name)) */\n      mload(0x40)\n      tag_408\n      swap2\n      swap1\n      tag_409\n      jump\t// in\n    tag_408:\n      mload(0x40)\n      dup1\n      swap2\n      sub\n      swap1\n      keccak256\n        /* \"ERC20.sol\":6067:6081  keccak256(\"1\") */\n      0xc89efdaa54c0f20c7adf612882df0950f5a951637e0307cdcb4c672f298b8bc6\n        /* \"ERC20.sol\":6103:6116  block.chainid */\n      chainid\n        /* \"ERC20.sol\":6146:6150  this */\n      address\n        /* \"ERC20.sol\":5828:6169  abi.encode(... */\n      add(0x20, mload(0x40))\n      tag_410\n      swap6\n      swap5\n      swap4\n      swap3\n      swap2\n      swap1\n      tag_411\n      jump\t// in\n    tag_410:\n      mload(0x40)\n      0x20\n      dup2\n      dup4\n      sub\n      sub\n      dup2\n      mstore\n      swap1\n      0x40\n      mstore\n        /* \"ERC20.sol\":5801:6183  keccak256(... */\n      dup1\n      mload\n      swap1\n      0x20\n      add\n      keccak256\n        /* \"ERC20.sol\":5782:6183  return... */\n      swap1\n      pop\n        /* \"ERC20.sol\":5698:6190  function computeDomainSeparator() internal view virtual returns (bytes32) {... */\n      swap1\n      jump\t// out\n        /* \"SafeTransferLib.sol\":1277:2954  function safeTransferFrom(... */\n    tag_281:\n        /* \"SafeTransferLib.sol\":1415:1427  bool success */\n      0x00\n        /* \"SafeTransferLib.sol\":1542:1546  0x40 */\n      0x40\n        /* \"SafeTransferLib.sol\":1536:1547  mload(0x40) */\n      mload\n        /* \"SafeTransferLib.sol\":1717:1783  0x23b872dd00000000000000000000000000000000000000000000000000000000 */\n      0x23b872dd00000000000000000000000000000000000000000000000000000000\n        /* \"SafeTransferLib.sol\":1682:1699  freeMemoryPointer */\n      dup2\n        /* \"SafeTransferLib.sol\":1658:1797  mstore(... */\n      mstore\n        /* \"SafeTransferLib.sol\":1844:1848  from */\n      dup5\n        /* \"SafeTransferLib.sol\":1840:1841  4 */\n      0x04\n        /* \"SafeTransferLib.sol\":1821:1838  freeMemoryPointer */\n      dup3\n        /* \"SafeTransferLib.sol\":1817:1842  add(freeMemoryPointer, 4) */\n      add\n        /* \"SafeTransferLib.sol\":1810:1849  mstore(add(freeMemoryPointer, 4), from) */\n      mstore\n        /* \"SafeTransferLib.sol\":1928:1930  to */\n      dup4\n        /* \"SafeTransferLib.sol\":1923:1925  36 */\n      0x24\n        /* \"SafeTransferLib.sol\":1904:1921  freeMemoryPointer */\n      dup3\n        /* \"SafeTransferLib.sol\":1900:1926  add(freeMemoryPointer, 36) */\n      add\n        /* \"SafeTransferLib.sol\":1893:1931  mstore(add(freeMemoryPointer, 36), to) */\n      mstore\n        /* \"SafeTransferLib.sol\":2008:2014  amount */\n      dup3\n        /* \"SafeTransferLib.sol\":2003:2005  68 */\n      0x44\n        /* \"SafeTransferLib.sol\":1984:2001  freeMemoryPointer */\n      dup3\n        /* \"SafeTransferLib.sol\":1980:2006  add(freeMemoryPointer, 68) */\n      add\n        /* \"SafeTransferLib.sol\":1973:2015  mstore(add(freeMemoryPointer, 68), amount) */\n      mstore\n        /* \"SafeTransferLib.sol\":2870:2872  32 */\n      0x20\n        /* \"SafeTransferLib.sol\":2867:2868  0 */\n      0x00\n        /* \"SafeTransferLib.sol\":2862:2865  100 */\n      0x64\n        /* \"SafeTransferLib.sol\":2843:2860  freeMemoryPointer */\n      dup4\n        /* \"SafeTransferLib.sol\":2840:2841  0 */\n      0x00\n        /* \"SafeTransferLib.sol\":2833:2838  token */\n      dup11\n        /* \"SafeTransferLib.sol\":2826:2831  gas() */\n      gas\n        /* \"SafeTransferLib.sol\":2821:2873  call(gas(), token, 0, freeMemoryPointer, 100, 0, 32) */\n      call\n        /* \"SafeTransferLib.sol\":2372:2388  returndatasize() */\n      returndatasize\n        /* \"SafeTransferLib.sol\":2365:2389  iszero(returndatasize()) */\n      iszero\n        /* \"SafeTransferLib.sol\":2339:2341  31 */\n      0x1f\n        /* \"SafeTransferLib.sol\":2321:2337  returndatasize() */\n      returndatasize\n        /* \"SafeTransferLib.sol\":2318:2342  gt(returndatasize(), 31) */\n      gt\n        /* \"SafeTransferLib.sol\":2314:2315  1 */\n      0x01\n        /* \"SafeTransferLib.sol\":2310:2311  0 */\n      0x00\n        /* \"SafeTransferLib.sol\":2304:2312  mload(0) */\n      mload\n        /* \"SafeTransferLib.sol\":2301:2316  eq(mload(0), 1) */\n      eq\n        /* \"SafeTransferLib.sol\":2297:2343  and(eq(mload(0), 1), gt(returndatasize(), 31)) */\n      and\n        /* \"SafeTransferLib.sol\":2273:2407  or(... */\n      or\n        /* \"SafeTransferLib.sol\":2073:2887  and(... */\n      and\n        /* \"SafeTransferLib.sol\":2062:2887  success := and(... */\n      swap2\n      pop\n        /* \"SafeTransferLib.sol\":1447:2897  {... */\n      pop\n        /* \"SafeTransferLib.sol\":2915:2922  success */\n      dup1\n        /* \"SafeTransferLib.sol\":2907:2947  require(success, \"TRANSFER_FROM_FAILED\") */\n      tag_413\n      jumpi\n      mload(0x40)\n      0x08c379a000000000000000000000000000000000000000000000000000000000\n      dup2\n      mstore\n      0x04\n      add\n      tag_414\n      swap1\n      tag_415\n      jump\t// in\n    tag_414:\n      mload(0x40)\n      dup1\n      swap2\n      sub\n      swap1\n      revert\n    tag_413:\n        /* \"SafeTransferLib.sol\":1405:2954  {... */\n      pop\n        /* \"SafeTransferLib.sol\":1277:2954  function safeTransferFrom(... */\n      pop\n      pop\n      pop\n      pop\n      jump\t// out\n        /* \"ERC20.sol\":6384:6709  function _mint(address to, uint256 amount) internal virtual {... */\n    tag_283:\n        /* \"ERC20.sol\":6469:6475  amount */\n      dup1\n        /* \"ERC20.sol\":6454:6465  totalSupply */\n      0x02\n      0x00\n        /* \"ERC20.sol\":6454:6475  totalSupply += amount */\n      dup3\n      dup3\n      sload\n      tag_417\n      swap2\n      swap1\n      tag_418\n      jump\t// in\n    tag_417:\n      swap3\n      pop\n      pop\n      dup2\n      swap1\n      sstore\n      pop\n        /* \"ERC20.sol\":6638:6644  amount */\n      dup1\n        /* \"ERC20.sol\":6621:6630  balanceOf */\n      0x03\n        /* \"ERC20.sol\":6621:6634  balanceOf[to] */\n      0x00\n        /* \"ERC20.sol\":6631:6633  to */\n      dup5\n        /* \"ERC20.sol\":6621:6634  balanceOf[to] */\n      0xffffffffffffffffffffffffffffffffffffffff\n      and\n      0xffffffffffffffffffffffffffffffffffffffff\n      and\n      dup2\n      mstore\n      0x20\n      add\n      swap1\n      dup2\n      mstore\n      0x20\n      add\n      0x00\n      keccak256\n      0x00\n        /* \"ERC20.sol\":6621:6644  balanceOf[to] += amount */\n      dup3\n      dup3\n      sload\n      add\n      swap3\n      pop\n      pop\n      dup2\n      swap1\n      sstore\n      pop\n        /* \"ERC20.sol\":6691:6693  to */\n      dup2\n        /* \"ERC20.sol\":6670:6702  Transfer(address(0), to, amount) */\n      0xffffffffffffffffffffffffffffffffffffffff\n      and\n        /* \"ERC20.sol\":6687:6688  0 */\n      0x00\n        /* \"ERC20.sol\":6670:6702  Transfer(address(0), to, amount) */\n      0xffffffffffffffffffffffffffffffffffffffff\n      and\n      0xddf252ad1be2c89b69c2b068fc378daa952ba7f163c4a11628f55a4df523b3ef\n        /* \"ERC20.sol\":6695:6701  amount */\n      dup4\n        /* \"ERC20.sol\":6670:6702  Transfer(address(0), to, amount) */\n      mload(0x40)\n      tag_419\n      swap2\n      swap1\n      tag_56\n      jump\t// in\n    tag_419:\n      mload(0x40)\n      dup1\n      swap2\n      sub\n      swap1\n      log3\n        /* \"ERC20.sol\":6384:6709  function _mint(address to, uint256 amount) internal virtual {... */\n      pop\n      pop\n      jump\t// out\n        /* \"SquiddyCore.sol\":8825:8931  function afterDeposit(uint256, uint256) internal override {... */\n    tag_287:\n        /* \"SquiddyCore.sol\":8893:8922  afterDepositHookCalledCounter */\n      0x08\n      0x00\n        /* \"SquiddyCore.sol\":8893:8924  afterDepositHookCalledCounter++ */\n      dup2\n      sload\n      dup1\n      swap3\n      swap2\n      swap1\n      tag_421\n      swap1\n      tag_422\n      jump\t// in\n    tag_421:\n      swap2\n      swap1\n      pop\n      sstore\n      pop\n        /* \"SquiddyCore.sol\":8825:8931  function afterDeposit(uint256, uint256) internal override {... */\n      pop\n      pop\n      jump\t// out\n        /* \"SquiddyCore.sol\":8709:8819  function beforeWithdraw(uint256, uint256) internal override {... */\n    tag_339:\n        /* \"SquiddyCore.sol\":8779:8810  beforeWithdrawHookCalledCounter */\n      0x07\n      0x00\n        /* \"SquiddyCore.sol\":8779:8812  beforeWithdrawHookCalledCounter++ */\n      dup2\n      sload\n      dup1\n      swap3\n      swap2\n      swap1\n      tag_424\n      swap1\n      tag_422\n      jump\t// in\n    tag_424:\n      swap2\n      swap1\n      pop\n      sstore\n      pop\n        /* \"SquiddyCore.sol\":8709:8819  function beforeWithdraw(uint256, uint256) internal override {... */\n      pop\n      pop\n      jump\t// out\n        /* \"ERC20.sol\":6715:7043  function _burn(address from, uint256 amount) internal virtual {... */\n    tag_341:\n        /* \"ERC20.sol\":6806:6812  amount */\n      dup1\n        /* \"ERC20.sol\":6787:6796  balanceOf */\n      0x03\n        /* \"ERC20.sol\":6787:6802  balanceOf[from] */\n      0x00\n        /* \"ERC20.sol\":6797:6801  from */\n      dup5\n        /* \"ERC20.sol\":6787:6802  balanceOf[from] */\n      0xffffffffffffffffffffffffffffffffffffffff\n      and\n      0xffffffffffffffffffffffffffffffffffffffff\n      and\n      dup2\n      mstore\n      0x20\n      add\n      swap1\n      dup2\n      mstore\n      0x20\n      add\n      0x00\n      keccak256\n      0x00\n        /* \"ERC20.sol\":6787:6812  balanceOf[from] -= amount */\n      dup3\n      dup3\n      sload\n      tag_426\n      swap2\n      swap1\n      tag_246\n      jump\t// in\n    tag_426:\n      swap3\n      pop\n      pop\n      dup2\n      swap1\n      sstore\n      pop\n        /* \"ERC20.sol\":6970:6976  amount */\n      dup1\n        /* \"ERC20.sol\":6955:6966  totalSupply */\n      0x02\n      0x00\n        /* \"ERC20.sol\":6955:6976  totalSupply -= amount */\n      dup3\n      dup3\n      sload\n      sub\n      swap3\n      pop\n      pop\n      dup2\n      swap1\n      sstore\n      pop\n        /* \"ERC20.sol\":7025:7026  0 */\n      0x00\n        /* \"ERC20.sol\":7002:7036  Transfer(from, address(0), amount) */\n      0xffffffffffffffffffffffffffffffffffffffff\n      and\n        /* \"ERC20.sol\":7011:7015  from */\n      dup3\n        /* \"ERC20.sol\":7002:7036  Transfer(from, address(0), amount) */\n      0xffffffffffffffffffffffffffffffffffffffff\n      and\n      0xddf252ad1be2c89b69c2b068fc378daa952ba7f163c4a11628f55a4df523b3ef\n        /* \"ERC20.sol\":7029:7035  amount */\n      dup4\n        /* \"ERC20.sol\":7002:7036  Transfer(from, address(0), amount) */\n      mload(0x40)\n      tag_427\n      swap2\n      swap1\n      tag_56\n      jump\t// in\n    tag_427:\n      mload(0x40)\n      dup1\n      swap2\n      sub\n      swap1\n      log3\n        /* \"ERC20.sol\":6715:7043  function _burn(address from, uint256 amount) internal virtual {... */\n      pop\n      pop\n      jump\t// out\n        /* \"SafeTransferLib.sol\":2960:4520  function safeTransfer(... */\n    tag_344:\n        /* \"SafeTransferLib.sol\":3072:3084  bool success */\n      0x00\n        /* \"SafeTransferLib.sol\":3199:3203  0x40 */\n      0x40\n        /* \"SafeTransferLib.sol\":3193:3204  mload(0x40) */\n      mload\n        /* \"SafeTransferLib.sol\":3374:3440  0xa9059cbb00000000000000000000000000000000000000000000000000000000 */\n      0xa9059cbb00000000000000000000000000000000000000000000000000000000\n        /* \"SafeTransferLib.sol\":3339:3356  freeMemoryPointer */\n      dup2\n        /* \"SafeTransferLib.sol\":3315:3454  mstore(... */\n      mstore\n        /* \"SafeTransferLib.sol\":3501:3503  to */\n      dup4\n        /* \"SafeTransferLib.sol\":3497:3498  4 */\n      0x04\n        /* \"SafeTransferLib.sol\":3478:3495  freeMemoryPointer */\n      dup3\n        /* \"SafeTransferLib.sol\":3474:3499  add(freeMemoryPointer, 4) */\n      add\n        /* \"SafeTransferLib.sol\":3467:3504  mstore(add(freeMemoryPointer, 4), to) */\n      mstore\n        /* \"SafeTransferLib.sol\":3581:3587  amount */\n      dup3\n        /* \"SafeTransferLib.sol\":3576:3578  36 */\n      0x24\n        /* \"SafeTransferLib.sol\":3557:3574  freeMemoryPointer */\n      dup3\n        /* \"SafeTransferLib.sol\":3553:3579  add(freeMemoryPointer, 36) */\n      add\n        /* \"SafeTransferLib.sol\":3546:3588  mstore(add(freeMemoryPointer, 36), amount) */\n      mstore\n        /* \"SafeTransferLib.sol\":4441:4443  32 */\n      0x20\n        /* \"SafeTransferLib.sol\":4438:4439  0 */\n      0x00\n        /* \"SafeTransferLib.sol\":4434:4436  68 */\n      0x44\n        /* \"SafeTransferLib.sol\":4415:4432  freeMemoryPointer */\n      dup4\n        /* \"SafeTransferLib.sol\":4412:4413  0 */\n      0x00\n        /* \"SafeTransferLib.sol\":4405:4410  token */\n      dup10\n        /* \"SafeTransferLib.sol\":4398:4403  gas() */\n      gas\n        /* \"SafeTransferLib.sol\":4393:4444  call(gas(), token, 0, freeMemoryPointer, 68, 0, 32) */\n      call\n        /* \"SafeTransferLib.sol\":3945:3961  returndatasize() */\n      returndatasize\n        /* \"SafeTransferLib.sol\":3938:3962  iszero(returndatasize()) */\n      iszero\n        /* \"SafeTransferLib.sol\":3912:3914  31 */\n      0x1f\n        /* \"SafeTransferLib.sol\":3894:3910  returndatasize() */\n      returndatasize\n        /* \"SafeTransferLib.sol\":3891:3915  gt(returndatasize(), 31) */\n      gt\n        /* \"SafeTransferLib.sol\":3887:3888  1 */\n      0x01\n        /* \"SafeTransferLib.sol\":3883:3884  0 */\n      0x00\n        /* \"SafeTransferLib.sol\":3877:3885  mload(0) */\n      mload\n        /* \"SafeTransferLib.sol\":3874:3889  eq(mload(0), 1) */\n      eq\n        /* \"SafeTransferLib.sol\":3870:3916  and(eq(mload(0), 1), gt(returndatasize(), 31)) */\n      and\n        /* \"SafeTransferLib.sol\":3846:3980  or(... */\n      or\n        /* \"SafeTransferLib.sol\":3646:4458  and(... */\n      and\n        /* \"SafeTransferLib.sol\":3635:4458  success := and(... */\n      swap2\n      pop\n        /* \"SafeTransferLib.sol\":3104:4468  {... */\n      pop\n        /* \"SafeTransferLib.sol\":4486:4493  success */\n      dup1\n        /* \"SafeTransferLib.sol\":4478:4513  require(success, \"TRANSFER_FAILED\") */\n      tag_429\n      jumpi\n      mload(0x40)\n      0x08c379a000000000000000000000000000000000000000000000000000000000\n      dup2\n      mstore\n      0x04\n      add\n      tag_430\n      swap1\n      tag_431\n      jump\t// in\n    tag_430:\n      mload(0x40)\n      dup1\n      swap2\n      sub\n      swap1\n      revert\n    tag_429:\n        /* \"SafeTransferLib.sol\":3062:4520  {... */\n      pop\n        /* \"SafeTransferLib.sol\":2960:4520  function safeTransfer(... */\n      pop\n      pop\n      pop\n      jump\t// out\n        /* \"#utility.yul\":7:84   */\n    tag_432:\n        /* \"#utility.yul\":44:51   */\n      0x00\n        /* \"#utility.yul\":73:78   */\n      dup2\n        /* \"#utility.yul\":62:78   */\n      swap1\n      pop\n        /* \"#utility.yul\":7:84   */\n      swap2\n      swap1\n      pop\n      jump\t// out\n        /* \"#utility.yul\":90:208   */\n    tag_433:\n        /* \"#utility.yul\":177:201   */\n      tag_504\n        /* \"#utility.yul\":195:200   */\n      dup2\n        /* \"#utility.yul\":177:201   */\n      tag_432\n      jump\t// in\n    tag_504:\n        /* \"#utility.yul\":172:175   */\n      dup3\n        /* \"#utility.yul\":165:202   */\n      mstore\n        /* \"#utility.yul\":90:208   */\n      pop\n      pop\n      jump\t// out\n        /* \"#utility.yul\":214:436   */\n    tag_56:\n        /* \"#utility.yul\":307:311   */\n      0x00\n        /* \"#utility.yul\":345:347   */\n      0x20\n        /* \"#utility.yul\":334:343   */\n      dup3\n        /* \"#utility.yul\":330:348   */\n      add\n        /* \"#utility.yul\":322:348   */\n      swap1\n      pop\n        /* \"#utility.yul\":358:429   */\n      tag_506\n        /* \"#utility.yul\":426:427   */\n      0x00\n        /* \"#utility.yul\":415:424   */\n      dup4\n        /* \"#utility.yul\":411:428   */\n      add\n        /* \"#utility.yul\":402:408   */\n      dup5\n        /* \"#utility.yul\":358:429   */\n      tag_433\n      jump\t// in\n    tag_506:\n        /* \"#utility.yul\":214:436   */\n      swap3\n      swap2\n      pop\n      pop\n      jump\t// out\n        /* \"#utility.yul\":442:541   */\n    tag_434:\n        /* \"#utility.yul\":494:500   */\n      0x00\n        /* \"#utility.yul\":528:533   */\n      dup2\n        /* \"#utility.yul\":522:534   */\n      mload\n        /* \"#utility.yul\":512:534   */\n      swap1\n      pop\n        /* \"#utility.yul\":442:541   */\n      swap2\n      swap1\n      pop\n      jump\t// out\n        /* \"#utility.yul\":547:716   */\n    tag_435:\n        /* \"#utility.yul\":631:642   */\n      0x00\n        /* \"#utility.yul\":665:671   */\n      dup3\n        /* \"#utility.yul\":660:663   */\n      dup3\n        /* \"#utility.yul\":653:672   */\n      mstore\n        /* \"#utility.yul\":705:709   */\n      0x20\n        /* \"#utility.yul\":700:703   */\n      dup3\n        /* \"#utility.yul\":696:710   */\n      add\n        /* \"#utility.yul\":681:710   */\n      swap1\n      pop\n        /* \"#utility.yul\":547:716   */\n      swap3\n      swap2\n      pop\n      pop\n      jump\t// out\n        /* \"#utility.yul\":722:968   */\n    tag_436:\n        /* \"#utility.yul\":803:804   */\n      0x00\n        /* \"#utility.yul\":813:926   */\n    tag_510:\n        /* \"#utility.yul\":827:833   */\n      dup4\n        /* \"#utility.yul\":824:825   */\n      dup2\n        /* \"#utility.yul\":821:834   */\n      lt\n        /* \"#utility.yul\":813:926   */\n      iszero\n      tag_512\n      jumpi\n        /* \"#utility.yul\":912:913   */\n      dup1\n        /* \"#utility.yul\":907:910   */\n      dup3\n        /* \"#utility.yul\":903:914   */\n      add\n        /* \"#utility.yul\":897:915   */\n      mload\n        /* \"#utility.yul\":893:894   */\n      dup2\n        /* \"#utility.yul\":888:891   */\n      dup5\n        /* \"#utility.yul\":884:895   */\n      add\n        /* \"#utility.yul\":877:916   */\n      mstore\n        /* \"#utility.yul\":849:851   */\n      0x20\n        /* \"#utility.yul\":846:847   */\n      dup2\n        /* \"#utility.yul\":842:852   */\n      add\n        /* \"#utility.yul\":837:852   */\n      swap1\n      pop\n        /* \"#utility.yul\":813:926   */\n      jump(tag_510)\n    tag_512:\n        /* \"#utility.yul\":960:961   */\n      0x00\n        /* \"#utility.yul\":951:957   */\n      dup5\n        /* \"#utility.yul\":946:949   */\n      dup5\n        /* \"#utility.yul\":942:958   */\n      add\n        /* \"#utility.yul\":935:962   */\n      mstore\n        /* \"#utility.yul\":784:968   */\n      pop\n        /* \"#utility.yul\":722:968   */\n      pop\n      pop\n      pop\n      jump\t// out\n        /* \"#utility.yul\":974:1076   */\n    tag_437:\n        /* \"#utility.yul\":1015:1021   */\n      0x00\n        /* \"#utility.yul\":1066:1068   */\n      0x1f\n        /* \"#utility.yul\":1062:1069   */\n      not\n        /* \"#utility.yul\":1057:1059   */\n      0x1f\n        /* \"#utility.yul\":1050:1055   */\n      dup4\n        /* \"#utility.yul\":1046:1060   */\n      add\n        /* \"#utility.yul\":1042:1070   */\n      and\n        /* \"#utility.yul\":1032:1070   */\n      swap1\n      pop\n        /* \"#utility.yul\":974:1076   */\n      swap2\n      swap1\n      pop\n      jump\t// out\n        /* \"#utility.yul\":1082:1459   */\n    tag_438:\n        /* \"#utility.yul\":1170:1173   */\n      0x00\n        /* \"#utility.yul\":1198:1237   */\n      tag_515\n        /* \"#utility.yul\":1231:1236   */\n      dup3\n        /* \"#utility.yul\":1198:1237   */\n      tag_434\n      jump\t// in\n    tag_515:\n        /* \"#utility.yul\":1253:1324   */\n      tag_516\n        /* \"#utility.yul\":1317:1323   */\n      dup2\n        /* \"#utility.yul\":1312:1315   */\n      dup6\n        /* \"#utility.yul\":1253:1324   */\n      tag_435\n      jump\t// in\n    tag_516:\n        /* \"#utility.yul\":1246:1324   */\n      swap4\n      pop\n        /* \"#utility.yul\":1333:1398   */\n      tag_517\n        /* \"#utility.yul\":1391:1397   */\n      dup2\n        /* \"#utility.yul\":1386:1389   */\n      dup6\n        /* \"#utility.yul\":1379:1383   */\n      0x20\n        /* \"#utility.yul\":1372:1377   */\n      dup7\n        /* \"#utility.yul\":1368:1384   */\n      add\n        /* \"#utility.yul\":1333:1398   */\n      tag_436\n      jump\t// in\n    tag_517:\n        /* \"#utility.yul\":1423:1452   */\n      tag_518\n        /* \"#utility.yul\":1445:1451   */\n      dup2\n        /* \"#utility.yul\":1423:1452   */\n      tag_437\n      jump\t// in\n    tag_518:\n        /* \"#utility.yul\":1418:1421   */\n      dup5\n        /* \"#utility.yul\":1414:1453   */\n      add\n        /* \"#utility.yul\":1407:1453   */\n      swap2\n      pop\n        /* \"#utility.yul\":1174:1459   */\n      pop\n        /* \"#utility.yul\":1082:1459   */\n      swap3\n      swap2\n      pop\n      pop\n      jump\t// out\n        /* \"#utility.yul\":1465:1778   */\n    tag_60:\n        /* \"#utility.yul\":1578:1582   */\n      0x00\n        /* \"#utility.yul\":1616:1618   */\n      0x20\n        /* \"#utility.yul\":1605:1614   */\n      dup3\n        /* \"#utility.yul\":1601:1619   */\n      add\n        /* \"#utility.yul\":1593:1619   */\n      swap1\n      pop\n        /* \"#utility.yul\":1665:1674   */\n      dup2\n        /* \"#utility.yul\":1659:1663   */\n      dup2\n        /* \"#utility.yul\":1655:1675   */\n      sub\n        /* \"#utility.yul\":1651:1652   */\n      0x00\n        /* \"#utility.yul\":1640:1649   */\n      dup4\n        /* \"#utility.yul\":1636:1653   */\n      add\n        /* \"#utility.yul\":1629:1676   */\n      mstore\n        /* \"#utility.yul\":1693:1771   */\n      tag_520\n        /* \"#utility.yul\":1766:1770   */\n      dup2\n        /* \"#utility.yul\":1757:1763   */\n      dup5\n        /* \"#utility.yul\":1693:1771   */\n      tag_438\n      jump\t// in\n    tag_520:\n        /* \"#utility.yul\":1685:1771   */\n      swap1\n      pop\n        /* \"#utility.yul\":1465:1778   */\n      swap3\n      swap2\n      pop\n      pop\n      jump\t// out\n        /* \"#utility.yul\":1865:1982   */\n    tag_440:\n        /* \"#utility.yul\":1974:1975   */\n      0x00\n        /* \"#utility.yul\":1971:1972   */\n      dup1\n        /* \"#utility.yul\":1964:1976   */\n      revert\n        /* \"#utility.yul\":2111:2233   */\n    tag_442:\n        /* \"#utility.yul\":2184:2208   */\n      tag_525\n        /* \"#utility.yul\":2202:2207   */\n      dup2\n        /* \"#utility.yul\":2184:2208   */\n      tag_432\n      jump\t// in\n    tag_525:\n        /* \"#utility.yul\":2177:2182   */\n      dup2\n        /* \"#utility.yul\":2174:2209   */\n      eq\n        /* \"#utility.yul\":2164:2227   */\n      tag_526\n      jumpi\n        /* \"#utility.yul\":2223:2224   */\n      0x00\n        /* \"#utility.yul\":2220:2221   */\n      dup1\n        /* \"#utility.yul\":2213:2225   */\n      revert\n        /* \"#utility.yul\":2164:2227   */\n    tag_526:\n        /* \"#utility.yul\":2111:2233   */\n      pop\n      jump\t// out\n        /* \"#utility.yul\":2239:2378   */\n    tag_443:\n        /* \"#utility.yul\":2285:2290   */\n      0x00\n        /* \"#utility.yul\":2323:2329   */\n      dup2\n        /* \"#utility.yul\":2310:2330   */\n      calldataload\n        /* \"#utility.yul\":2301:2330   */\n      swap1\n      pop\n        /* \"#utility.yul\":2339:2372   */\n      tag_528\n        /* \"#utility.yul\":2366:2371   */\n      dup2\n        /* \"#utility.yul\":2339:2372   */\n      tag_442\n      jump\t// in\n    tag_528:\n        /* \"#utility.yul\":2239:2378   */\n      swap3\n      swap2\n      pop\n      pop\n      jump\t// out\n        /* \"#utility.yul\":2384:2713   */\n    tag_63:\n        /* \"#utility.yul\":2443:2449   */\n      0x00\n        /* \"#utility.yul\":2492:2494   */\n      0x20\n        /* \"#utility.yul\":2480:2489   */\n      dup3\n        /* \"#utility.yul\":2471:2478   */\n      dup5\n        /* \"#utility.yul\":2467:2490   */\n      sub\n        /* \"#utility.yul\":2463:2495   */\n      slt\n        /* \"#utility.yul\":2460:2579   */\n      iszero\n      tag_530\n      jumpi\n        /* \"#utility.yul\":2498:2577   */\n      tag_531\n      tag_440\n      jump\t// in\n    tag_531:\n        /* \"#utility.yul\":2460:2579   */\n    tag_530:\n        /* \"#utility.yul\":2618:2619   */\n      0x00\n        /* \"#utility.yul\":2643:2696   */\n      tag_532\n        /* \"#utility.yul\":2688:2695   */\n      dup5\n        /* \"#utility.yul\":2679:2685   */\n      dup3\n        /* \"#utility.yul\":2668:2677   */\n      dup6\n        /* \"#utility.yul\":2664:2686   */\n      add\n        /* \"#utility.yul\":2643:2696   */\n      tag_443\n      jump\t// in\n    tag_532:\n        /* \"#utility.yul\":2633:2696   */\n      swap2\n      pop\n        /* \"#utility.yul\":2589:2706   */\n      pop\n        /* \"#utility.yul\":2384:2713   */\n      swap3\n      swap2\n      pop\n      pop\n      jump\t// out\n        /* \"#utility.yul\":2719:2845   */\n    tag_444:\n        /* \"#utility.yul\":2756:2763   */\n      0x00\n        /* \"#utility.yul\":2796:2838   */\n      0xffffffffffffffffffffffffffffffffffffffff\n        /* \"#utility.yul\":2789:2794   */\n      dup3\n        /* \"#utility.yul\":2785:2839   */\n      and\n        /* \"#utility.yul\":2774:2839   */\n      swap1\n      pop\n        /* \"#utility.yul\":2719:2845   */\n      swap2\n      swap1\n      pop\n      jump\t// out\n        /* \"#utility.yul\":2851:2947   */\n    tag_445:\n        /* \"#utility.yul\":2888:2895   */\n      0x00\n        /* \"#utility.yul\":2917:2941   */\n      tag_535\n        /* \"#utility.yul\":2935:2940   */\n      dup3\n        /* \"#utility.yul\":2917:2941   */\n      tag_444\n      jump\t// in\n    tag_535:\n        /* \"#utility.yul\":2906:2941   */\n      swap1\n      pop\n        /* \"#utility.yul\":2851:2947   */\n      swap2\n      swap1\n      pop\n      jump\t// out\n        /* \"#utility.yul\":2953:3075   */\n    tag_446:\n        /* \"#utility.yul\":3026:3050   */\n      tag_537\n        /* \"#utility.yul\":3044:3049   */\n      dup2\n        /* \"#utility.yul\":3026:3050   */\n      tag_445\n      jump\t// in\n    tag_537:\n        /* \"#utility.yul\":3019:3024   */\n      dup2\n        /* \"#utility.yul\":3016:3051   */\n      eq\n        /* \"#utility.yul\":3006:3069   */\n      tag_538\n      jumpi\n        /* \"#utility.yul\":3065:3066   */\n      0x00\n        /* \"#utility.yul\":3062:3063   */\n      dup1\n        /* \"#utility.yul\":3055:3067   */\n      revert\n        /* \"#utility.yul\":3006:3069   */\n    tag_538:\n        /* \"#utility.yul\":2953:3075   */\n      pop\n      jump\t// out\n        /* \"#utility.yul\":3081:3220   */\n    tag_447:\n        /* \"#utility.yul\":3127:3132   */\n      0x00\n        /* \"#utility.yul\":3165:3171   */\n      dup2\n        /* \"#utility.yul\":3152:3172   */\n      calldataload\n        /* \"#utility.yul\":3143:3172   */\n      swap1\n      pop\n        /* \"#utility.yul\":3181:3214   */\n      tag_540\n        /* \"#utility.yul\":3208:3213   */\n      dup2\n        /* \"#utility.yul\":3181:3214   */\n      tag_446\n      jump\t// in\n    tag_540:\n        /* \"#utility.yul\":3081:3220   */\n      swap3\n      swap2\n      pop\n      pop\n      jump\t// out\n        /* \"#utility.yul\":3226:3700   */\n    tag_68:\n        /* \"#utility.yul\":3294:3300   */\n      0x00\n        /* \"#utility.yul\":3302:3308   */\n      dup1\n        /* \"#utility.yul\":3351:3353   */\n      0x40\n        /* \"#utility.yul\":3339:3348   */\n      dup4\n        /* \"#utility.yul\":3330:3337   */\n      dup6\n        /* \"#utility.yul\":3326:3349   */\n      sub\n        /* \"#utility.yul\":3322:3354   */\n      slt\n        /* \"#utility.yul\":3319:3438   */\n      iszero\n      tag_542\n      jumpi\n        /* \"#utility.yul\":3357:3436   */\n      tag_543\n      tag_440\n      jump\t// in\n    tag_543:\n        /* \"#utility.yul\":3319:3438   */\n    tag_542:\n        /* \"#utility.yul\":3477:3478   */\n      0x00\n        /* \"#utility.yul\":3502:3555   */\n      tag_544\n        /* \"#utility.yul\":3547:3554   */\n      dup6\n        /* \"#utility.yul\":3538:3544   */\n      dup3\n        /* \"#utility.yul\":3527:3536   */\n      dup7\n        /* \"#utility.yul\":3523:3545   */\n      add\n        /* \"#utility.yul\":3502:3555   */\n      tag_447\n      jump\t// in\n    tag_544:\n        /* \"#utility.yul\":3492:3555   */\n      swap3\n      pop\n        /* \"#utility.yul\":3448:3565   */\n      pop\n        /* \"#utility.yul\":3604:3606   */\n      0x20\n        /* \"#utility.yul\":3630:3683   */\n      tag_545\n        /* \"#utility.yul\":3675:3682   */\n      dup6\n        /* \"#utility.yul\":3666:3672   */\n      dup3\n        /* \"#utility.yul\":3655:3664   */\n      dup7\n        /* \"#utility.yul\":3651:3673   */\n      add\n        /* \"#utility.yul\":3630:3683   */\n      tag_443\n      jump\t// in\n    tag_545:\n        /* \"#utility.yul\":3620:3683   */\n      swap2\n      pop\n        /* \"#utility.yul\":3575:3693   */\n      pop\n        /* \"#utility.yul\":3226:3700   */\n      swap3\n      pop\n      swap3\n      swap1\n      pop\n      jump\t// out\n        /* \"#utility.yul\":3706:3796   */\n    tag_448:\n        /* \"#utility.yul\":3740:3747   */\n      0x00\n        /* \"#utility.yul\":3783:3788   */\n      dup2\n        /* \"#utility.yul\":3776:3789   */\n      iszero\n        /* \"#utility.yul\":3769:3790   */\n      iszero\n        /* \"#utility.yul\":3758:3790   */\n      swap1\n      pop\n        /* \"#utility.yul\":3706:3796   */\n      swap2\n      swap1\n      pop\n      jump\t// out\n        /* \"#utility.yul\":3802:3911   */\n    tag_449:\n        /* \"#utility.yul\":3883:3904   */\n      tag_548\n        /* \"#utility.yul\":3898:3903   */\n      dup2\n        /* \"#utility.yul\":3883:3904   */\n      tag_448\n      jump\t// in\n    tag_548:\n        /* \"#utility.yul\":3878:3881   */\n      dup3\n        /* \"#utility.yul\":3871:3905   */\n      mstore\n        /* \"#utility.yul\":3802:3911   */\n      pop\n      pop\n      jump\t// out\n        /* \"#utility.yul\":3917:4127   */\n    tag_71:\n        /* \"#utility.yul\":4004:4008   */\n      0x00\n        /* \"#utility.yul\":4042:4044   */\n      0x20\n        /* \"#utility.yul\":4031:4040   */\n      dup3\n        /* \"#utility.yul\":4027:4045   */\n      add\n        /* \"#utility.yul\":4019:4045   */\n      swap1\n      pop\n        /* \"#utility.yul\":4055:4120   */\n      tag_550\n        /* \"#utility.yul\":4117:4118   */\n      0x00\n        /* \"#utility.yul\":4106:4115   */\n      dup4\n        /* \"#utility.yul\":4102:4119   */\n      add\n        /* \"#utility.yul\":4093:4099   */\n      dup5\n        /* \"#utility.yul\":4055:4120   */\n      tag_449\n      jump\t// in\n    tag_550:\n        /* \"#utility.yul\":3917:4127   */\n      swap3\n      swap2\n      pop\n      pop\n      jump\t// out\n        /* \"#utility.yul\":4133:4752   */\n    tag_84:\n        /* \"#utility.yul\":4210:4216   */\n      0x00\n        /* \"#utility.yul\":4218:4224   */\n      dup1\n        /* \"#utility.yul\":4226:4232   */\n      0x00\n        /* \"#utility.yul\":4275:4277   */\n      0x60\n        /* \"#utility.yul\":4263:4272   */\n      dup5\n        /* \"#utility.yul\":4254:4261   */\n      dup7\n        /* \"#utility.yul\":4250:4273   */\n      sub\n        /* \"#utility.yul\":4246:4278   */\n      slt\n        /* \"#utility.yul\":4243:4362   */\n      iszero\n      tag_552\n      jumpi\n        /* \"#utility.yul\":4281:4360   */\n      tag_553\n      tag_440\n      jump\t// in\n    tag_553:\n        /* \"#utility.yul\":4243:4362   */\n    tag_552:\n        /* \"#utility.yul\":4401:4402   */\n      0x00\n        /* \"#utility.yul\":4426:4479   */\n      tag_554\n        /* \"#utility.yul\":4471:4478   */\n      dup7\n        /* \"#utility.yul\":4462:4468   */\n      dup3\n        /* \"#utility.yul\":4451:4460   */\n      dup8\n        /* \"#utility.yul\":4447:4469   */\n      add\n        /* \"#utility.yul\":4426:4479   */\n      tag_447\n      jump\t// in\n    tag_554:\n        /* \"#utility.yul\":4416:4479   */\n      swap4\n      pop\n        /* \"#utility.yul\":4372:4489   */\n      pop\n        /* \"#utility.yul\":4528:4530   */\n      0x20\n        /* \"#utility.yul\":4554:4607   */\n      tag_555\n        /* \"#utility.yul\":4599:4606   */\n      dup7\n        /* \"#utility.yul\":4590:4596   */\n      dup3\n        /* \"#utility.yul\":4579:4588   */\n      dup8\n        /* \"#utility.yul\":4575:4597   */\n      add\n        /* \"#utility.yul\":4554:4607   */\n      tag_447\n      jump\t// in\n    tag_555:\n        /* \"#utility.yul\":4544:4607   */\n      swap3\n      pop\n        /* \"#utility.yul\":4499:4617   */\n      pop\n        /* \"#utility.yul\":4656:4658   */\n      0x40\n        /* \"#utility.yul\":4682:4735   */\n      tag_556\n        /* \"#utility.yul\":4727:4734   */\n      dup7\n        /* \"#utility.yul\":4718:4724   */\n      dup3\n        /* \"#utility.yul\":4707:4716   */\n      dup8\n        /* \"#utility.yul\":4703:4725   */\n      add\n        /* \"#utility.yul\":4682:4735   */\n      tag_443\n      jump\t// in\n    tag_556:\n        /* \"#utility.yul\":4672:4735   */\n      swap2\n      pop\n        /* \"#utility.yul\":4627:4745   */\n      pop\n        /* \"#utility.yul\":4133:4752   */\n      swap3\n      pop\n      swap3\n      pop\n      swap3\n      jump\t// out\n        /* \"#utility.yul\":4758:4844   */\n    tag_450:\n        /* \"#utility.yul\":4793:4800   */\n      0x00\n        /* \"#utility.yul\":4833:4837   */\n      0xff\n        /* \"#utility.yul\":4826:4831   */\n      dup3\n        /* \"#utility.yul\":4822:4838   */\n      and\n        /* \"#utility.yul\":4811:4838   */\n      swap1\n      pop\n        /* \"#utility.yul\":4758:4844   */\n      swap2\n      swap1\n      pop\n      jump\t// out\n        /* \"#utility.yul\":4850:4962   */\n    tag_451:\n        /* \"#utility.yul\":4933:4955   */\n      tag_559\n        /* \"#utility.yul\":4949:4954   */\n      dup2\n        /* \"#utility.yul\":4933:4955   */\n      tag_450\n      jump\t// in\n    tag_559:\n        /* \"#utility.yul\":4928:4931   */\n      dup3\n        /* \"#utility.yul\":4921:4956   */\n      mstore\n        /* \"#utility.yul\":4850:4962   */\n      pop\n      pop\n      jump\t// out\n        /* \"#utility.yul\":4968:5182   */\n    tag_90:\n        /* \"#utility.yul\":5057:5061   */\n      0x00\n        /* \"#utility.yul\":5095:5097   */\n      0x20\n        /* \"#utility.yul\":5084:5093   */\n      dup3\n        /* \"#utility.yul\":5080:5098   */\n      add\n        /* \"#utility.yul\":5072:5098   */\n      swap1\n      pop\n        /* \"#utility.yul\":5108:5175   */\n      tag_561\n        /* \"#utility.yul\":5172:5173   */\n      0x00\n        /* \"#utility.yul\":5161:5170   */\n      dup4\n        /* \"#utility.yul\":5157:5174   */\n      add\n        /* \"#utility.yul\":5148:5154   */\n      dup5\n        /* \"#utility.yul\":5108:5175   */\n      tag_451\n      jump\t// in\n    tag_561:\n        /* \"#utility.yul\":4968:5182   */\n      swap3\n      swap2\n      pop\n      pop\n      jump\t// out\n        /* \"#utility.yul\":5188:5304   */\n    tag_452:\n        /* \"#utility.yul\":5258:5279   */\n      tag_563\n        /* \"#utility.yul\":5273:5278   */\n      dup2\n        /* \"#utility.yul\":5258:5279   */\n      tag_448\n      jump\t// in\n    tag_563:\n        /* \"#utility.yul\":5251:5256   */\n      dup2\n        /* \"#utility.yul\":5248:5280   */\n      eq\n        /* \"#utility.yul\":5238:5298   */\n      tag_564\n      jumpi\n        /* \"#utility.yul\":5294:5295   */\n      0x00\n        /* \"#utility.yul\":5291:5292   */\n      dup1\n        /* \"#utility.yul\":5284:5296   */\n      revert\n        /* \"#utility.yul\":5238:5298   */\n    tag_564:\n        /* \"#utility.yul\":5188:5304   */\n      pop\n      jump\t// out\n        /* \"#utility.yul\":5310:5443   */\n    tag_453:\n        /* \"#utility.yul\":5353:5358   */\n      0x00\n        /* \"#utility.yul\":5391:5397   */\n      dup2\n        /* \"#utility.yul\":5378:5398   */\n      calldataload\n        /* \"#utility.yul\":5369:5398   */\n      swap1\n      pop\n        /* \"#utility.yul\":5407:5437   */\n      tag_566\n        /* \"#utility.yul\":5431:5436   */\n      dup2\n        /* \"#utility.yul\":5407:5437   */\n      tag_452\n      jump\t// in\n    tag_566:\n        /* \"#utility.yul\":5310:5443   */\n      swap3\n      swap2\n      pop\n      pop\n      jump\t// out\n        /* \"#utility.yul\":5449:5772   */\n    tag_93:\n        /* \"#utility.yul\":5505:5511   */\n      0x00\n        /* \"#utility.yul\":5554:5556   */\n      0x20\n        /* \"#utility.yul\":5542:5551   */\n      dup3\n        /* \"#utility.yul\":5533:5540   */\n      dup5\n        /* \"#utility.yul\":5529:5552   */\n      sub\n        /* \"#utility.yul\":5525:5557   */\n      slt\n        /* \"#utility.yul\":5522:5641   */\n      iszero\n      tag_568\n      jumpi\n        /* \"#utility.yul\":5560:5639   */\n      tag_569\n      tag_440\n      jump\t// in\n    tag_569:\n        /* \"#utility.yul\":5522:5641   */\n    tag_568:\n        /* \"#utility.yul\":5680:5681   */\n      0x00\n        /* \"#utility.yul\":5705:5755   */\n      tag_570\n        /* \"#utility.yul\":5747:5754   */\n      dup5\n        /* \"#utility.yul\":5738:5744   */\n      dup3\n        /* \"#utility.yul\":5727:5736   */\n      dup6\n        /* \"#utility.yul\":5723:5745   */\n      add\n        /* \"#utility.yul\":5705:5755   */\n      tag_453\n      jump\t// in\n    tag_570:\n        /* \"#utility.yul\":5695:5755   */\n      swap2\n      pop\n        /* \"#utility.yul\":5651:5765   */\n      pop\n        /* \"#utility.yul\":5449:5772   */\n      swap3\n      swap2\n      pop\n      pop\n      jump\t// out\n        /* \"#utility.yul\":5778:5855   */\n    tag_454:\n        /* \"#utility.yul\":5815:5822   */\n      0x00\n        /* \"#utility.yul\":5844:5849   */\n      dup2\n        /* \"#utility.yul\":5833:5849   */\n      swap1\n      pop\n        /* \"#utility.yul\":5778:5855   */\n      swap2\n      swap1\n      pop\n      jump\t// out\n        /* \"#utility.yul\":5861:5979   */\n    tag_455:\n        /* \"#utility.yul\":5948:5972   */\n      tag_573\n        /* \"#utility.yul\":5966:5971   */\n      dup2\n        /* \"#utility.yul\":5948:5972   */\n      tag_454\n      jump\t// in\n    tag_573:\n        /* \"#utility.yul\":5943:5946   */\n      dup3\n        /* \"#utility.yul\":5936:5973   */\n      mstore\n        /* \"#utility.yul\":5861:5979   */\n      pop\n      pop\n      jump\t// out\n        /* \"#utility.yul\":5985:6207   */\n    tag_98:\n        /* \"#utility.yul\":6078:6082   */\n      0x00\n        /* \"#utility.yul\":6116:6118   */\n      0x20\n        /* \"#utility.yul\":6105:6114   */\n      dup3\n        /* \"#utility.yul\":6101:6119   */\n      add\n        /* \"#utility.yul\":6093:6119   */\n      swap1\n      pop\n        /* \"#utility.yul\":6129:6200   */\n      tag_575\n        /* \"#utility.yul\":6197:6198   */\n      0x00\n        /* \"#utility.yul\":6186:6195   */\n      dup4\n        /* \"#utility.yul\":6182:6199   */\n      add\n        /* \"#utility.yul\":6173:6179   */\n      dup5\n        /* \"#utility.yul\":6129:6200   */\n      tag_455\n      jump\t// in\n    tag_575:\n        /* \"#utility.yul\":5985:6207   */\n      swap3\n      swap2\n      pop\n      pop\n      jump\t// out\n        /* \"#utility.yul\":6213:6273   */\n    tag_456:\n        /* \"#utility.yul\":6241:6244   */\n      0x00\n        /* \"#utility.yul\":6262:6267   */\n      dup2\n        /* \"#utility.yul\":6255:6267   */\n      swap1\n      pop\n        /* \"#utility.yul\":6213:6273   */\n      swap2\n      swap1\n      pop\n      jump\t// out\n        /* \"#utility.yul\":6279:6421   */\n    tag_457:\n        /* \"#utility.yul\":6329:6338   */\n      0x00\n        /* \"#utility.yul\":6362:6415   */\n      tag_578\n        /* \"#utility.yul\":6380:6414   */\n      tag_579\n        /* \"#utility.yul\":6389:6413   */\n      tag_580\n        /* \"#utility.yul\":6407:6412   */\n      dup5\n        /* \"#utility.yul\":6389:6413   */\n      tag_444\n      jump\t// in\n    tag_580:\n        /* \"#utility.yul\":6380:6414   */\n      tag_456\n      jump\t// in\n    tag_579:\n        /* \"#utility.yul\":6362:6415   */\n      tag_444\n      jump\t// in\n    tag_578:\n        /* \"#utility.yul\":6349:6415   */\n      swap1\n      pop\n        /* \"#utility.yul\":6279:6421   */\n      swap2\n      swap1\n      pop\n      jump\t// out\n        /* \"#utility.yul\":6427:6553   */\n    tag_458:\n        /* \"#utility.yul\":6477:6486   */\n      0x00\n        /* \"#utility.yul\":6510:6547   */\n      tag_582\n        /* \"#utility.yul\":6541:6546   */\n      dup3\n        /* \"#utility.yul\":6510:6547   */\n      tag_457\n      jump\t// in\n    tag_582:\n        /* \"#utility.yul\":6497:6547   */\n      swap1\n      pop\n        /* \"#utility.yul\":6427:6553   */\n      swap2\n      swap1\n      pop\n      jump\t// out\n        /* \"#utility.yul\":6559:6698   */\n    tag_459:\n        /* \"#utility.yul\":6622:6631   */\n      0x00\n        /* \"#utility.yul\":6655:6692   */\n      tag_584\n        /* \"#utility.yul\":6686:6691   */\n      dup3\n        /* \"#utility.yul\":6655:6692   */\n      tag_458\n      jump\t// in\n    tag_584:\n        /* \"#utility.yul\":6642:6692   */\n      swap1\n      pop\n        /* \"#utility.yul\":6559:6698   */\n      swap2\n      swap1\n      pop\n      jump\t// out\n        /* \"#utility.yul\":6704:6861   */\n    tag_460:\n        /* \"#utility.yul\":6804:6854   */\n      tag_586\n        /* \"#utility.yul\":6848:6853   */\n      dup2\n        /* \"#utility.yul\":6804:6854   */\n      tag_459\n      jump\t// in\n    tag_586:\n        /* \"#utility.yul\":6799:6802   */\n      dup3\n        /* \"#utility.yul\":6792:6855   */\n      mstore\n        /* \"#utility.yul\":6704:6861   */\n      pop\n      pop\n      jump\t// out\n        /* \"#utility.yul\":6867:7115   */\n    tag_102:\n        /* \"#utility.yul\":6973:6977   */\n      0x00\n        /* \"#utility.yul\":7011:7013   */\n      0x20\n        /* \"#utility.yul\":7000:7009   */\n      dup3\n        /* \"#utility.yul\":6996:7014   */\n      add\n        /* \"#utility.yul\":6988:7014   */\n      swap1\n      pop\n        /* \"#utility.yul\":7024:7108   */\n      tag_588\n        /* \"#utility.yul\":7105:7106   */\n      0x00\n        /* \"#utility.yul\":7094:7103   */\n      dup4\n        /* \"#utility.yul\":7090:7107   */\n      add\n        /* \"#utility.yul\":7081:7087   */\n      dup5\n        /* \"#utility.yul\":7024:7108   */\n      tag_460\n      jump\t// in\n    tag_588:\n        /* \"#utility.yul\":6867:7115   */\n      swap3\n      swap2\n      pop\n      pop\n      jump\t// out\n        /* \"#utility.yul\":7121:7450   */\n    tag_108:\n        /* \"#utility.yul\":7180:7186   */\n      0x00\n        /* \"#utility.yul\":7229:7231   */\n      0x20\n        /* \"#utility.yul\":7217:7226   */\n      dup3\n        /* \"#utility.yul\":7208:7215   */\n      dup5\n        /* \"#utility.yul\":7204:7227   */\n      sub\n        /* \"#utility.yul\":7200:7232   */\n      slt\n        /* \"#utility.yul\":7197:7316   */\n      iszero\n      tag_590\n      jumpi\n        /* \"#utility.yul\":7235:7314   */\n      tag_591\n      tag_440\n      jump\t// in\n    tag_591:\n        /* \"#utility.yul\":7197:7316   */\n    tag_590:\n        /* \"#utility.yul\":7355:7356   */\n      0x00\n        /* \"#utility.yul\":7380:7433   */\n      tag_592\n        /* \"#utility.yul\":7425:7432   */\n      dup5\n        /* \"#utility.yul\":7416:7422   */\n      dup3\n        /* \"#utility.yul\":7405:7414   */\n      dup6\n        /* \"#utility.yul\":7401:7423   */\n      add\n        /* \"#utility.yul\":7380:7433   */\n      tag_447\n      jump\t// in\n    tag_592:\n        /* \"#utility.yul\":7370:7433   */\n      swap2\n      pop\n        /* \"#utility.yul\":7326:7443   */\n      pop\n        /* \"#utility.yul\":7121:7450   */\n      swap3\n      swap2\n      pop\n      pop\n      jump\t// out\n        /* \"#utility.yul\":7456:7574   */\n    tag_461:\n        /* \"#utility.yul\":7543:7567   */\n      tag_594\n        /* \"#utility.yul\":7561:7566   */\n      dup2\n        /* \"#utility.yul\":7543:7567   */\n      tag_445\n      jump\t// in\n    tag_594:\n        /* \"#utility.yul\":7538:7541   */\n      dup3\n        /* \"#utility.yul\":7531:7568   */\n      mstore\n        /* \"#utility.yul\":7456:7574   */\n      pop\n      pop\n      jump\t// out\n        /* \"#utility.yul\":7580:7802   */\n    tag_114:\n        /* \"#utility.yul\":7673:7677   */\n      0x00\n        /* \"#utility.yul\":7711:7713   */\n      0x20\n        /* \"#utility.yul\":7700:7709   */\n      dup3\n        /* \"#utility.yul\":7696:7714   */\n      add\n        /* \"#utility.yul\":7688:7714   */\n      swap1\n      pop\n        /* \"#utility.yul\":7724:7795   */\n      tag_596\n        /* \"#utility.yul\":7792:7793   */\n      0x00\n        /* \"#utility.yul\":7781:7790   */\n      dup4\n        /* \"#utility.yul\":7777:7794   */\n      add\n        /* \"#utility.yul\":7768:7774   */\n      dup5\n        /* \"#utility.yul\":7724:7795   */\n      tag_461\n      jump\t// in\n    tag_596:\n        /* \"#utility.yul\":7580:7802   */\n      swap3\n      swap2\n      pop\n      pop\n      jump\t// out\n        /* \"#utility.yul\":7808:8282   */\n    tag_121:\n        /* \"#utility.yul\":7876:7882   */\n      0x00\n        /* \"#utility.yul\":7884:7890   */\n      dup1\n        /* \"#utility.yul\":7933:7935   */\n      0x40\n        /* \"#utility.yul\":7921:7930   */\n      dup4\n        /* \"#utility.yul\":7912:7919   */\n      dup6\n        /* \"#utility.yul\":7908:7931   */\n      sub\n        /* \"#utility.yul\":7904:7936   */\n      slt\n        /* \"#utility.yul\":7901:8020   */\n      iszero\n      tag_598\n      jumpi\n        /* \"#utility.yul\":7939:8018   */\n      tag_599\n      tag_440\n      jump\t// in\n    tag_599:\n        /* \"#utility.yul\":7901:8020   */\n    tag_598:\n        /* \"#utility.yul\":8059:8060   */\n      0x00\n        /* \"#utility.yul\":8084:8137   */\n      tag_600\n        /* \"#utility.yul\":8129:8136   */\n      dup6\n        /* \"#utility.yul\":8120:8126   */\n      dup3\n        /* \"#utility.yul\":8109:8118   */\n      dup7\n        /* \"#utility.yul\":8105:8127   */\n      add\n        /* \"#utility.yul\":8084:8137   */\n      tag_443\n      jump\t// in\n    tag_600:\n        /* \"#utility.yul\":8074:8137   */\n      swap3\n      pop\n        /* \"#utility.yul\":8030:8147   */\n      pop\n        /* \"#utility.yul\":8186:8188   */\n      0x20\n        /* \"#utility.yul\":8212:8265   */\n      tag_601\n        /* \"#utility.yul\":8257:8264   */\n      dup6\n        /* \"#utility.yul\":8248:8254   */\n      dup3\n        /* \"#utility.yul\":8237:8246   */\n      dup7\n        /* \"#utility.yul\":8233:8255   */\n      add\n        /* \"#utility.yul\":8212:8265   */\n      tag_447\n      jump\t// in\n    tag_601:\n        /* \"#utility.yul\":8202:8265   */\n      swap2\n      pop\n        /* \"#utility.yul\":8157:8275   */\n      pop\n        /* \"#utility.yul\":7808:8282   */\n      swap3\n      pop\n      swap3\n      swap1\n      pop\n      jump\t// out\n        /* \"#utility.yul\":8288:8907   */\n    tag_160:\n        /* \"#utility.yul\":8365:8371   */\n      0x00\n        /* \"#utility.yul\":8373:8379   */\n      dup1\n        /* \"#utility.yul\":8381:8387   */\n      0x00\n        /* \"#utility.yul\":8430:8432   */\n      0x60\n        /* \"#utility.yul\":8418:8427   */\n      dup5\n        /* \"#utility.yul\":8409:8416   */\n      dup7\n        /* \"#utility.yul\":8405:8428   */\n      sub\n        /* \"#utility.yul\":8401:8433   */\n      slt\n        /* \"#utility.yul\":8398:8517   */\n      iszero\n      tag_603\n      jumpi\n        /* \"#utility.yul\":8436:8515   */\n      tag_604\n      tag_440\n      jump\t// in\n    tag_604:\n        /* \"#utility.yul\":8398:8517   */\n    tag_603:\n        /* \"#utility.yul\":8556:8557   */\n      0x00\n        /* \"#utility.yul\":8581:8634   */\n      tag_605\n        /* \"#utility.yul\":8626:8633   */\n      dup7\n        /* \"#utility.yul\":8617:8623   */\n      dup3\n        /* \"#utility.yul\":8606:8615   */\n      dup8\n        /* \"#utility.yul\":8602:8624   */\n      add\n        /* \"#utility.yul\":8581:8634   */\n      tag_443\n      jump\t// in\n    tag_605:\n        /* \"#utility.yul\":8571:8634   */\n      swap4\n      pop\n        /* \"#utility.yul\":8527:8644   */\n      pop\n        /* \"#utility.yul\":8683:8685   */\n      0x20\n        /* \"#utility.yul\":8709:8762   */\n      tag_606\n        /* \"#utility.yul\":8754:8761   */\n      dup7\n        /* \"#utility.yul\":8745:8751   */\n      dup3\n        /* \"#utility.yul\":8734:8743   */\n      dup8\n        /* \"#utility.yul\":8730:8752   */\n      add\n        /* \"#utility.yul\":8709:8762   */\n      tag_447\n      jump\t// in\n    tag_606:\n        /* \"#utility.yul\":8699:8762   */\n      swap3\n      pop\n        /* \"#utility.yul\":8654:8772   */\n      pop\n        /* \"#utility.yul\":8811:8813   */\n      0x40\n        /* \"#utility.yul\":8837:8890   */\n      tag_607\n        /* \"#utility.yul\":8882:8889   */\n      dup7\n        /* \"#utility.yul\":8873:8879   */\n      dup3\n        /* \"#utility.yul\":8862:8871   */\n      dup8\n        /* \"#utility.yul\":8858:8880   */\n      add\n        /* \"#utility.yul\":8837:8890   */\n      tag_447\n      jump\t// in\n    tag_607:\n        /* \"#utility.yul\":8827:8890   */\n      swap2\n      pop\n        /* \"#utility.yul\":8782:8900   */\n      pop\n        /* \"#utility.yul\":8288:8907   */\n      swap3\n      pop\n      swap3\n      pop\n      swap3\n      jump\t// out\n        /* \"#utility.yul\":8913:9031   */\n    tag_462:\n        /* \"#utility.yul\":8984:9006   */\n      tag_609\n        /* \"#utility.yul\":9000:9005   */\n      dup2\n        /* \"#utility.yul\":8984:9006   */\n      tag_450\n      jump\t// in\n    tag_609:\n        /* \"#utility.yul\":8977:8982   */\n      dup2\n        /* \"#utility.yul\":8974:9007   */\n      eq\n        /* \"#utility.yul\":8964:9025   */\n      tag_610\n      jumpi\n        /* \"#utility.yul\":9021:9022   */\n      0x00\n        /* \"#utility.yul\":9018:9019   */\n      dup1\n        /* \"#utility.yul\":9011:9023   */\n      revert\n        /* \"#utility.yul\":8964:9025   */\n    tag_610:\n        /* \"#utility.yul\":8913:9031   */\n      pop\n      jump\t// out\n        /* \"#utility.yul\":9037:9172   */\n    tag_463:\n        /* \"#utility.yul\":9081:9086   */\n      0x00\n        /* \"#utility.yul\":9119:9125   */\n      dup2\n        /* \"#utility.yul\":9106:9126   */\n      calldataload\n        /* \"#utility.yul\":9097:9126   */\n      swap1\n      pop\n        /* \"#utility.yul\":9135:9166   */\n      tag_612\n        /* \"#utility.yul\":9160:9165   */\n      dup2\n        /* \"#utility.yul\":9135:9166   */\n      tag_462\n      jump\t// in\n    tag_612:\n        /* \"#utility.yul\":9037:9172   */\n      swap3\n      swap2\n      pop\n      pop\n      jump\t// out\n        /* \"#utility.yul\":9178:9300   */\n    tag_464:\n        /* \"#utility.yul\":9251:9275   */\n      tag_614\n        /* \"#utility.yul\":9269:9274   */\n      dup2\n        /* \"#utility.yul\":9251:9275   */\n      tag_454\n      jump\t// in\n    tag_614:\n        /* \"#utility.yul\":9244:9249   */\n      dup2\n        /* \"#utility.yul\":9241:9276   */\n      eq\n        /* \"#utility.yul\":9231:9294   */\n      tag_615\n      jumpi\n        /* \"#utility.yul\":9290:9291   */\n      0x00\n        /* \"#utility.yul\":9287:9288   */\n      dup1\n        /* \"#utility.yul\":9280:9292   */\n      revert\n        /* \"#utility.yul\":9231:9294   */\n    tag_615:\n        /* \"#utility.yul\":9178:9300   */\n      pop\n      jump\t// out\n        /* \"#utility.yul\":9306:9445   */\n    tag_465:\n        /* \"#utility.yul\":9352:9357   */\n      0x00\n        /* \"#utility.yul\":9390:9396   */\n      dup2\n        /* \"#utility.yul\":9377:9397   */\n      calldataload\n        /* \"#utility.yul\":9368:9397   */\n      swap1\n      pop\n        /* \"#utility.yul\":9406:9439   */\n      tag_617\n        /* \"#utility.yul\":9433:9438   */\n      dup2\n        /* \"#utility.yul\":9406:9439   */\n      tag_464\n      jump\t// in\n    tag_617:\n        /* \"#utility.yul\":9306:9445   */\n      swap3\n      swap2\n      pop\n      pop\n      jump\t// out\n        /* \"#utility.yul\":9451:10650   */\n    tag_190:\n        /* \"#utility.yul\":9562:9568   */\n      0x00\n        /* \"#utility.yul\":9570:9576   */\n      dup1\n        /* \"#utility.yul\":9578:9584   */\n      0x00\n        /* \"#utility.yul\":9586:9592   */\n      dup1\n        /* \"#utility.yul\":9594:9600   */\n      0x00\n        /* \"#utility.yul\":9602:9608   */\n      dup1\n        /* \"#utility.yul\":9610:9616   */\n      0x00\n        /* \"#utility.yul\":9659:9662   */\n      0xe0\n        /* \"#utility.yul\":9647:9656   */\n      dup9\n        /* \"#utility.yul\":9638:9645   */\n      dup11\n        /* \"#utility.yul\":9634:9657   */\n      sub\n        /* \"#utility.yul\":9630:9663   */\n      slt\n        /* \"#utility.yul\":9627:9747   */\n      iszero\n      tag_619\n      jumpi\n        /* \"#utility.yul\":9666:9745   */\n      tag_620\n      tag_440\n      jump\t// in\n    tag_620:\n        /* \"#utility.yul\":9627:9747   */\n    tag_619:\n        /* \"#utility.yul\":9786:9787   */\n      0x00\n        /* \"#utility.yul\":9811:9864   */\n      tag_621\n        /* \"#utility.yul\":9856:9863   */\n      dup11\n        /* \"#utility.yul\":9847:9853   */\n      dup3\n        /* \"#utility.yul\":9836:9845   */\n      dup12\n        /* \"#utility.yul\":9832:9854   */\n      add\n        /* \"#utility.yul\":9811:9864   */\n      tag_447\n      jump\t// in\n    tag_621:\n        /* \"#utility.yul\":9801:9864   */\n      swap8\n      pop\n        /* \"#utility.yul\":9757:9874   */\n      pop\n        /* \"#utility.yul\":9913:9915   */\n      0x20\n        /* \"#utility.yul\":9939:9992   */\n      tag_622\n        /* \"#utility.yul\":9984:9991   */\n      dup11\n        /* \"#utility.yul\":9975:9981   */\n      dup3\n        /* \"#utility.yul\":9964:9973   */\n      dup12\n        /* \"#utility.yul\":9960:9982   */\n      add\n        /* \"#utility.yul\":9939:9992   */\n      tag_447\n      jump\t// in\n    tag_622:\n        /* \"#utility.yul\":9929:9992   */\n      swap7\n      pop\n        /* \"#utility.yul\":9884:10002   */\n      pop\n        /* \"#utility.yul\":10041:10043   */\n      0x40\n        /* \"#utility.yul\":10067:10120   */\n      tag_623\n        /* \"#utility.yul\":10112:10119   */\n      dup11\n        /* \"#utility.yul\":10103:10109   */\n      dup3\n        /* \"#utility.yul\":10092:10101   */\n      dup12\n        /* \"#utility.yul\":10088:10110   */\n      add\n        /* \"#utility.yul\":10067:10120   */\n      tag_443\n      jump\t// in\n    tag_623:\n        /* \"#utility.yul\":10057:10120   */\n      swap6\n      pop\n        /* \"#utility.yul\":10012:10130   */\n      pop\n        /* \"#utility.yul\":10169:10171   */\n      0x60\n        /* \"#utility.yul\":10195:10248   */\n      tag_624\n        /* \"#utility.yul\":10240:10247   */\n      dup11\n        /* \"#utility.yul\":10231:10237   */\n      dup3\n        /* \"#utility.yul\":10220:10229   */\n      dup12\n        /* \"#utility.yul\":10216:10238   */\n      add\n        /* \"#utility.yul\":10195:10248   */\n      tag_443\n      jump\t// in\n    tag_624:\n        /* \"#utility.yul\":10185:10248   */\n      swap5\n      pop\n        /* \"#utility.yul\":10140:10258   */\n      pop\n        /* \"#utility.yul\":10297:10300   */\n      0x80\n        /* \"#utility.yul\":10324:10375   */\n      tag_625\n        /* \"#utility.yul\":10367:10374   */\n      dup11\n        /* \"#utility.yul\":10358:10364   */\n      dup3\n        /* \"#utility.yul\":10347:10356   */\n      dup12\n        /* \"#utility.yul\":10343:10365   */\n      add\n        /* \"#utility.yul\":10324:10375   */\n      tag_463\n      jump\t// in\n    tag_625:\n        /* \"#utility.yul\":10314:10375   */\n      swap4\n      pop\n        /* \"#utility.yul\":10268:10385   */\n      pop\n        /* \"#utility.yul\":10424:10427   */\n      0xa0\n        /* \"#utility.yul\":10451:10504   */\n      tag_626\n        /* \"#utility.yul\":10496:10503   */\n      dup11\n        /* \"#utility.yul\":10487:10493   */\n      dup3\n        /* \"#utility.yul\":10476:10485   */\n      dup12\n        /* \"#utility.yul\":10472:10494   */\n      add\n        /* \"#utility.yul\":10451:10504   */\n      tag_465\n      jump\t// in\n    tag_626:\n        /* \"#utility.yul\":10441:10504   */\n      swap3\n      pop\n        /* \"#utility.yul\":10395:10514   */\n      pop\n        /* \"#utility.yul\":10553:10556   */\n      0xc0\n        /* \"#utility.yul\":10580:10633   */\n      tag_627\n        /* \"#utility.yul\":10625:10632   */\n      dup11\n        /* \"#utility.yul\":10616:10622   */\n      dup3\n        /* \"#utility.yul\":10605:10614   */\n      dup12\n        /* \"#utility.yul\":10601:10623   */\n      add\n        /* \"#utility.yul\":10580:10633   */\n      tag_465\n      jump\t// in\n    tag_627:\n        /* \"#utility.yul\":10570:10633   */\n      swap2\n      pop\n        /* \"#utility.yul\":10524:10643   */\n      pop\n        /* \"#utility.yul\":9451:10650   */\n      swap3\n      swap6\n      swap9\n      swap2\n      swap5\n      swap8\n      pop\n      swap3\n      swap6\n      pop\n      jump\t// out\n        /* \"#utility.yul\":10656:11130   */\n    tag_198:\n        /* \"#utility.yul\":10724:10730   */\n      0x00\n        /* \"#utility.yul\":10732:10738   */\n      dup1\n        /* \"#utility.yul\":10781:10783   */\n      0x40\n        /* \"#utility.yul\":10769:10778   */\n      dup4\n        /* \"#utility.yul\":10760:10767   */\n      dup6\n        /* \"#utility.yul\":10756:10779   */\n      sub\n        /* \"#utility.yul\":10752:10784   */\n      slt\n        /* \"#utility.yul\":10749:10868   */\n      iszero\n      tag_629\n      jumpi\n        /* \"#utility.yul\":10787:10866   */\n      tag_630\n      tag_440\n      jump\t// in\n    tag_630:\n        /* \"#utility.yul\":10749:10868   */\n    tag_629:\n        /* \"#utility.yul\":10907:10908   */\n      0x00\n        /* \"#utility.yul\":10932:10985   */\n      tag_631\n        /* \"#utility.yul\":10977:10984   */\n      dup6\n        /* \"#utility.yul\":10968:10974   */\n      dup3\n        /* \"#utility.yul\":10957:10966   */\n      dup7\n        /* \"#utility.yul\":10953:10975   */\n      add\n        /* \"#utility.yul\":10932:10985   */\n      tag_447\n      jump\t// in\n    tag_631:\n        /* \"#utility.yul\":10922:10985   */\n      swap3\n      pop\n        /* \"#utility.yul\":10878:10995   */\n      pop\n        /* \"#utility.yul\":11034:11036   */\n      0x20\n        /* \"#utility.yul\":11060:11113   */\n      tag_632\n        /* \"#utility.yul\":11105:11112   */\n      dup6\n        /* \"#utility.yul\":11096:11102   */\n      dup3\n        /* \"#utility.yul\":11085:11094   */\n      dup7\n        /* \"#utility.yul\":11081:11103   */\n      add\n        /* \"#utility.yul\":11060:11113   */\n      tag_447\n      jump\t// in\n    tag_632:\n        /* \"#utility.yul\":11050:11113   */\n      swap2\n      pop\n        /* \"#utility.yul\":11005:11123   */\n      pop\n        /* \"#utility.yul\":10656:11130   */\n      swap3\n      pop\n      swap3\n      swap1\n      pop\n      jump\t// out\n        /* \"#utility.yul\":11136:11279   */\n    tag_466:\n        /* \"#utility.yul\":11193:11198   */\n      0x00\n        /* \"#utility.yul\":11224:11230   */\n      dup2\n        /* \"#utility.yul\":11218:11231   */\n      mload\n        /* \"#utility.yul\":11209:11231   */\n      swap1\n      pop\n        /* \"#utility.yul\":11240:11273   */\n      tag_634\n        /* \"#utility.yul\":11267:11272   */\n      dup2\n        /* \"#utility.yul\":11240:11273   */\n      tag_442\n      jump\t// in\n    tag_634:\n        /* \"#utility.yul\":11136:11279   */\n      swap3\n      swap2\n      pop\n      pop\n      jump\t// out\n        /* \"#utility.yul\":11285:11636   */\n    tag_222:\n        /* \"#utility.yul\":11355:11361   */\n      0x00\n        /* \"#utility.yul\":11404:11406   */\n      0x20\n        /* \"#utility.yul\":11392:11401   */\n      dup3\n        /* \"#utility.yul\":11383:11390   */\n      dup5\n        /* \"#utility.yul\":11379:11402   */\n      sub\n        /* \"#utility.yul\":11375:11407   */\n      slt\n        /* \"#utility.yul\":11372:11491   */\n      iszero\n      tag_636\n      jumpi\n        /* \"#utility.yul\":11410:11489   */\n      tag_637\n      tag_440\n      jump\t// in\n    tag_637:\n        /* \"#utility.yul\":11372:11491   */\n    tag_636:\n        /* \"#utility.yul\":11530:11531   */\n      0x00\n        /* \"#utility.yul\":11555:11619   */\n      tag_638\n        /* \"#utility.yul\":11611:11618   */\n      dup5\n        /* \"#utility.yul\":11602:11608   */\n      dup3\n        /* \"#utility.yul\":11591:11600   */\n      dup6\n        /* \"#utility.yul\":11587:11609   */\n      add\n        /* \"#utility.yul\":11555:11619   */\n      tag_466\n      jump\t// in\n    tag_638:\n        /* \"#utility.yul\":11545:11619   */\n      swap2\n      pop\n        /* \"#utility.yul\":11501:11629   */\n      pop\n        /* \"#utility.yul\":11285:11636   */\n      swap3\n      swap2\n      pop\n      pop\n      jump\t// out\n        /* \"#utility.yul\":11642:11822   */\n    tag_467:\n        /* \"#utility.yul\":11690:11767   */\n      0x4e487b7100000000000000000000000000000000000000000000000000000000\n        /* \"#utility.yul\":11687:11688   */\n      0x00\n        /* \"#utility.yul\":11680:11768   */\n      mstore\n        /* \"#utility.yul\":11787:11791   */\n      0x22\n        /* \"#utility.yul\":11784:11785   */\n      0x04\n        /* \"#utility.yul\":11777:11792   */\n      mstore\n        /* \"#utility.yul\":11811:11815   */\n      0x24\n        /* \"#utility.yul\":11808:11809   */\n      0x00\n        /* \"#utility.yul\":11801:11816   */\n      revert\n        /* \"#utility.yul\":11828:12148   */\n    tag_224:\n        /* \"#utility.yul\":11872:11878   */\n      0x00\n        /* \"#utility.yul\":11909:11910   */\n      0x02\n        /* \"#utility.yul\":11903:11907   */\n      dup3\n        /* \"#utility.yul\":11899:11911   */\n      div\n        /* \"#utility.yul\":11889:11911   */\n      swap1\n      pop\n        /* \"#utility.yul\":11956:11957   */\n      0x01\n        /* \"#utility.yul\":11950:11954   */\n      dup3\n        /* \"#utility.yul\":11946:11958   */\n      and\n        /* \"#utility.yul\":11977:11995   */\n      dup1\n        /* \"#utility.yul\":11967:12048   */\n      tag_641\n      jumpi\n        /* \"#utility.yul\":12033:12037   */\n      0x7f\n        /* \"#utility.yul\":12025:12031   */\n      dup3\n        /* \"#utility.yul\":12021:12038   */\n      and\n        /* \"#utility.yul\":12011:12038   */\n      swap2\n      pop\n        /* \"#utility.yul\":11967:12048   */\n    tag_641:\n        /* \"#utility.yul\":12095:12097   */\n      0x20\n        /* \"#utility.yul\":12087:12093   */\n      dup3\n        /* \"#utility.yul\":12084:12098   */\n      lt\n        /* \"#utility.yul\":12064:12082   */\n      dup2\n        /* \"#utility.yul\":12061:12099   */\n      sub\n        /* \"#utility.yul\":12058:12142   */\n      tag_642\n      jumpi\n        /* \"#utility.yul\":12114:12132   */\n      tag_643\n      tag_467\n      jump\t// in\n    tag_643:\n        /* \"#utility.yul\":12058:12142   */\n    tag_642:\n        /* \"#utility.yul\":11879:12148   */\n      pop\n        /* \"#utility.yul\":11828:12148   */\n      swap2\n      swap1\n      pop\n      jump\t// out\n        /* \"#utility.yul\":12154:12334   */\n    tag_468:\n        /* \"#utility.yul\":12202:12279   */\n      0x4e487b7100000000000000000000000000000000000000000000000000000000\n        /* \"#utility.yul\":12199:12200   */\n      0x00\n        /* \"#utility.yul\":12192:12280   */\n      mstore\n        /* \"#utility.yul\":12299:12303   */\n      0x11\n        /* \"#utility.yul\":12296:12297   */\n      0x04\n        /* \"#utility.yul\":12289:12304   */\n      mstore\n        /* \"#utility.yul\":12323:12327   */\n      0x24\n        /* \"#utility.yul\":12320:12321   */\n      0x00\n        /* \"#utility.yul\":12313:12328   */\n      revert\n        /* \"#utility.yul\":12340:12534   */\n    tag_246:\n        /* \"#utility.yul\":12380:12384   */\n      0x00\n        /* \"#utility.yul\":12400:12420   */\n      tag_646\n        /* \"#utility.yul\":12418:12419   */\n      dup3\n        /* \"#utility.yul\":12400:12420   */\n      tag_432\n      jump\t// in\n    tag_646:\n        /* \"#utility.yul\":12395:12420   */\n      swap2\n      pop\n        /* \"#utility.yul\":12434:12454   */\n      tag_647\n        /* \"#utility.yul\":12452:12453   */\n      dup4\n        /* \"#utility.yul\":12434:12454   */\n      tag_432\n      jump\t// in\n    tag_647:\n        /* \"#utility.yul\":12429:12454   */\n      swap3\n      pop\n        /* \"#utility.yul\":12478:12479   */\n      dup3\n        /* \"#utility.yul\":12475:12476   */\n      dup3\n        /* \"#utility.yul\":12471:12480   */\n      sub\n        /* \"#utility.yul\":12463:12480   */\n      swap1\n      pop\n        /* \"#utility.yul\":12502:12503   */\n      dup2\n        /* \"#utility.yul\":12496:12500   */\n      dup2\n        /* \"#utility.yul\":12493:12504   */\n      gt\n        /* \"#utility.yul\":12490:12527   */\n      iszero\n      tag_648\n      jumpi\n        /* \"#utility.yul\":12507:12525   */\n      tag_649\n      tag_468\n      jump\t// in\n    tag_649:\n        /* \"#utility.yul\":12490:12527   */\n    tag_648:\n        /* \"#utility.yul\":12340:12534   */\n      swap3\n      swap2\n      pop\n      pop\n      jump\t// out\n        /* \"#utility.yul\":12540:12761   */\n    tag_469:\n        /* \"#utility.yul\":12680:12714   */\n      0x4f776e61626c653a2063616c6c6572206973206e6f7420746865206d616e6167\n        /* \"#utility.yul\":12676:12677   */\n      0x00\n        /* \"#utility.yul\":12668:12674   */\n      dup3\n        /* \"#utility.yul\":12664:12678   */\n      add\n        /* \"#utility.yul\":12657:12715   */\n      mstore\n        /* \"#utility.yul\":12749:12753   */\n      0x6572000000000000000000000000000000000000000000000000000000000000\n        /* \"#utility.yul\":12744:12746   */\n      0x20\n        /* \"#utility.yul\":12736:12742   */\n      dup3\n        /* \"#utility.yul\":12732:12747   */\n      add\n        /* \"#utility.yul\":12725:12754   */\n      mstore\n        /* \"#utility.yul\":12540:12761   */\n      pop\n      jump\t// out\n        /* \"#utility.yul\":12767:13133   */\n    tag_470:\n        /* \"#utility.yul\":12909:12912   */\n      0x00\n        /* \"#utility.yul\":12930:12997   */\n      tag_652\n        /* \"#utility.yul\":12994:12996   */\n      0x22\n        /* \"#utility.yul\":12989:12992   */\n      dup4\n        /* \"#utility.yul\":12930:12997   */\n      tag_435\n      jump\t// in\n    tag_652:\n        /* \"#utility.yul\":12923:12997   */\n      swap2\n      pop\n        /* \"#utility.yul\":13006:13099   */\n      tag_653\n        /* \"#utility.yul\":13095:13098   */\n      dup3\n        /* \"#utility.yul\":13006:13099   */\n      tag_469\n      jump\t// in\n    tag_653:\n        /* \"#utility.yul\":13124:13126   */\n      0x40\n        /* \"#utility.yul\":13119:13122   */\n      dup3\n        /* \"#utility.yul\":13115:13127   */\n      add\n        /* \"#utility.yul\":13108:13127   */\n      swap1\n      pop\n        /* \"#utility.yul\":12767:13133   */\n      swap2\n      swap1\n      pop\n      jump\t// out\n        /* \"#utility.yul\":13139:13558   */\n    tag_253:\n        /* \"#utility.yul\":13305:13309   */\n      0x00\n        /* \"#utility.yul\":13343:13345   */\n      0x20\n        /* \"#utility.yul\":13332:13341   */\n      dup3\n        /* \"#utility.yul\":13328:13346   */\n      add\n        /* \"#utility.yul\":13320:13346   */\n      swap1\n      pop\n        /* \"#utility.yul\":13392:13401   */\n      dup2\n        /* \"#utility.yul\":13386:13390   */\n      dup2\n        /* \"#utility.yul\":13382:13402   */\n      sub\n        /* \"#utility.yul\":13378:13379   */\n      0x00\n        /* \"#utility.yul\":13367:13376   */\n      dup4\n        /* \"#utility.yul\":13363:13380   */\n      add\n        /* \"#utility.yul\":13356:13403   */\n      mstore\n        /* \"#utility.yul\":13420:13551   */\n      tag_655\n        /* \"#utility.yul\":13546:13550   */\n      dup2\n        /* \"#utility.yul\":13420:13551   */\n      tag_470\n      jump\t// in\n    tag_655:\n        /* \"#utility.yul\":13412:13551   */\n      swap1\n      pop\n        /* \"#utility.yul\":13139:13558   */\n      swap2\n      swap1\n      pop\n      jump\t// out\n        /* \"#utility.yul\":13564:13703   */\n    tag_471:\n        /* \"#utility.yul\":13619:13624   */\n      0x00\n        /* \"#utility.yul\":13650:13656   */\n      dup2\n        /* \"#utility.yul\":13644:13657   */\n      mload\n        /* \"#utility.yul\":13635:13657   */\n      swap1\n      pop\n        /* \"#utility.yul\":13666:13697   */\n      tag_657\n        /* \"#utility.yul\":13691:13696   */\n      dup2\n        /* \"#utility.yul\":13666:13697   */\n      tag_462\n      jump\t// in\n    tag_657:\n        /* \"#utility.yul\":13564:13703   */\n      swap3\n      swap2\n      pop\n      pop\n      jump\t// out\n        /* \"#utility.yul\":13709:14056   */\n    tag_259:\n        /* \"#utility.yul\":13777:13783   */\n      0x00\n        /* \"#utility.yul\":13826:13828   */\n      0x20\n        /* \"#utility.yul\":13814:13823   */\n      dup3\n        /* \"#utility.yul\":13805:13812   */\n      dup5\n        /* \"#utility.yul\":13801:13824   */\n      sub\n        /* \"#utility.yul\":13797:13829   */\n      slt\n        /* \"#utility.yul\":13794:13913   */\n      iszero\n      tag_659\n      jumpi\n        /* \"#utility.yul\":13832:13911   */\n      tag_660\n      tag_440\n      jump\t// in\n    tag_660:\n        /* \"#utility.yul\":13794:13913   */\n    tag_659:\n        /* \"#utility.yul\":13952:13953   */\n      0x00\n        /* \"#utility.yul\":13977:14039   */\n      tag_661\n        /* \"#utility.yul\":14031:14038   */\n      dup5\n        /* \"#utility.yul\":14022:14028   */\n      dup3\n        /* \"#utility.yul\":14011:14020   */\n      dup6\n        /* \"#utility.yul\":14007:14029   */\n      add\n        /* \"#utility.yul\":13977:14039   */\n      tag_471\n      jump\t// in\n    tag_661:\n        /* \"#utility.yul\":13967:14039   */\n      swap2\n      pop\n        /* \"#utility.yul\":13923:14049   */\n      pop\n        /* \"#utility.yul\":13709:14056   */\n      swap3\n      swap2\n      pop\n      pop\n      jump\t// out\n        /* \"#utility.yul\":14062:14226   */\n    tag_472:\n        /* \"#utility.yul\":14202:14218   */\n      0x57524f4e475f444543494d414c53000000000000000000000000000000000000\n        /* \"#utility.yul\":14198:14199   */\n      0x00\n        /* \"#utility.yul\":14190:14196   */\n      dup3\n        /* \"#utility.yul\":14186:14200   */\n      add\n        /* \"#utility.yul\":14179:14219   */\n      mstore\n        /* \"#utility.yul\":14062:14226   */\n      pop\n      jump\t// out\n        /* \"#utility.yul\":14232:14598   */\n    tag_473:\n        /* \"#utility.yul\":14374:14377   */\n      0x00\n        /* \"#utility.yul\":14395:14462   */\n      tag_664\n        /* \"#utility.yul\":14459:14461   */\n      0x0e\n        /* \"#utility.yul\":14454:14457   */\n      dup4\n        /* \"#utility.yul\":14395:14462   */\n      tag_435\n      jump\t// in\n    tag_664:\n        /* \"#utility.yul\":14388:14462   */\n      swap2\n      pop\n        /* \"#utility.yul\":14471:14564   */\n      tag_665\n        /* \"#utility.yul\":14560:14563   */\n      dup3\n        /* \"#utility.yul\":14471:14564   */\n      tag_472\n      jump\t// in\n    tag_665:\n        /* \"#utility.yul\":14589:14591   */\n      0x20\n        /* \"#utility.yul\":14584:14587   */\n      dup3\n        /* \"#utility.yul\":14580:14592   */\n      add\n        /* \"#utility.yul\":14573:14592   */\n      swap1\n      pop\n        /* \"#utility.yul\":14232:14598   */\n      swap2\n      swap1\n      pop\n      jump\t// out\n        /* \"#utility.yul\":14604:15023   */\n    tag_262:\n        /* \"#utility.yul\":14770:14774   */\n      0x00\n        /* \"#utility.yul\":14808:14810   */\n      0x20\n        /* \"#utility.yul\":14797:14806   */\n      dup3\n        /* \"#utility.yul\":14793:14811   */\n      add\n        /* \"#utility.yul\":14785:14811   */\n      swap1\n      pop\n        /* \"#utility.yul\":14857:14866   */\n      dup2\n        /* \"#utility.yul\":14851:14855   */\n      dup2\n        /* \"#utility.yul\":14847:14867   */\n      sub\n        /* \"#utility.yul\":14843:14844   */\n      0x00\n        /* \"#utility.yul\":14832:14841   */\n      dup4\n        /* \"#utility.yul\":14828:14845   */\n      add\n        /* \"#utility.yul\":14821:14868   */\n      mstore\n        /* \"#utility.yul\":14885:15016   */\n      tag_667\n        /* \"#utility.yul\":15011:15015   */\n      dup2\n        /* \"#utility.yul\":14885:15016   */\n      tag_473\n      jump\t// in\n    tag_667:\n        /* \"#utility.yul\":14877:15016   */\n      swap1\n      pop\n        /* \"#utility.yul\":14604:15023   */\n      swap2\n      swap1\n      pop\n      jump\t// out\n        /* \"#utility.yul\":15029:15190   */\n    tag_474:\n        /* \"#utility.yul\":15169:15182   */\n      0x5a45524f5f534841524553000000000000000000000000000000000000000000\n        /* \"#utility.yul\":15165:15166   */\n      0x00\n        /* \"#utility.yul\":15157:15163   */\n      dup3\n        /* \"#utility.yul\":15153:15167   */\n      add\n        /* \"#utility.yul\":15146:15183   */\n      mstore\n        /* \"#utility.yul\":15029:15190   */\n      pop\n      jump\t// out\n        /* \"#utility.yul\":15196:15562   */\n    tag_475:\n        /* \"#utility.yul\":15338:15341   */\n      0x00\n        /* \"#utility.yul\":15359:15426   */\n      tag_670\n        /* \"#utility.yul\":15423:15425   */\n      0x0b\n        /* \"#utility.yul\":15418:15421   */\n      dup4\n        /* \"#utility.yul\":15359:15426   */\n      tag_435\n      jump\t// in\n    tag_670:\n        /* \"#utility.yul\":15352:15426   */\n      swap2\n      pop\n        /* \"#utility.yul\":15435:15528   */\n      tag_671\n        /* \"#utility.yul\":15524:15527   */\n      dup3\n        /* \"#utility.yul\":15435:15528   */\n      tag_474\n      jump\t// in\n    tag_671:\n        /* \"#utility.yul\":15553:15555   */\n      0x20\n        /* \"#utility.yul\":15548:15551   */\n      dup3\n        /* \"#utility.yul\":15544:15556   */\n      add\n        /* \"#utility.yul\":15537:15556   */\n      swap1\n      pop\n        /* \"#utility.yul\":15196:15562   */\n      swap2\n      swap1\n      pop\n      jump\t// out\n        /* \"#utility.yul\":15568:15987   */\n    tag_279:\n        /* \"#utility.yul\":15734:15738   */\n      0x00\n        /* \"#utility.yul\":15772:15774   */\n      0x20\n        /* \"#utility.yul\":15761:15770   */\n      dup3\n        /* \"#utility.yul\":15757:15775   */\n      add\n        /* \"#utility.yul\":15749:15775   */\n      swap1\n      pop\n        /* \"#utility.yul\":15821:15830   */\n      dup2\n        /* \"#utility.yul\":15815:15819   */\n      dup2\n        /* \"#utility.yul\":15811:15831   */\n      sub\n        /* \"#utility.yul\":15807:15808   */\n      0x00\n        /* \"#utility.yul\":15796:15805   */\n      dup4\n        /* \"#utility.yul\":15792:15809   */\n      add\n        /* \"#utility.yul\":15785:15832   */\n      mstore\n        /* \"#utility.yul\":15849:15980   */\n      tag_673\n        /* \"#utility.yul\":15975:15979   */\n      dup2\n        /* \"#utility.yul\":15849:15980   */\n      tag_475\n      jump\t// in\n    tag_673:\n        /* \"#utility.yul\":15841:15980   */\n      swap1\n      pop\n        /* \"#utility.yul\":15568:15987   */\n      swap2\n      swap1\n      pop\n      jump\t// out\n        /* \"#utility.yul\":15993:16325   */\n    tag_285:\n        /* \"#utility.yul\":16114:16118   */\n      0x00\n        /* \"#utility.yul\":16152:16154   */\n      0x40\n        /* \"#utility.yul\":16141:16150   */\n      dup3\n        /* \"#utility.yul\":16137:16155   */\n      add\n        /* \"#utility.yul\":16129:16155   */\n      swap1\n      pop\n        /* \"#utility.yul\":16165:16236   */\n      tag_675\n        /* \"#utility.yul\":16233:16234   */\n      0x00\n        /* \"#utility.yul\":16222:16231   */\n      dup4\n        /* \"#utility.yul\":16218:16235   */\n      add\n        /* \"#utility.yul\":16209:16215   */\n      dup6\n        /* \"#utility.yul\":16165:16236   */\n      tag_433\n      jump\t// in\n    tag_675:\n        /* \"#utility.yul\":16246:16318   */\n      tag_676\n        /* \"#utility.yul\":16314:16316   */\n      0x20\n        /* \"#utility.yul\":16303:16312   */\n      dup4\n        /* \"#utility.yul\":16299:16317   */\n      add\n        /* \"#utility.yul\":16290:16296   */\n      dup5\n        /* \"#utility.yul\":16246:16318   */\n      tag_433\n      jump\t// in\n    tag_676:\n        /* \"#utility.yul\":15993:16325   */\n      swap4\n      swap3\n      pop\n      pop\n      pop\n      jump\t// out\n        /* \"#utility.yul\":16331:16493   */\n    tag_476:\n        /* \"#utility.yul\":16471:16485   */\n      0x4645455f544f4f5f484947480000000000000000000000000000000000000000\n        /* \"#utility.yul\":16467:16468   */\n      0x00\n        /* \"#utility.yul\":16459:16465   */\n      dup3\n        /* \"#utility.yul\":16455:16469   */\n      add\n        /* \"#utility.yul\":16448:16486   */\n      mstore\n        /* \"#utility.yul\":16331:16493   */\n      pop\n      jump\t// out\n        /* \"#utility.yul\":16499:16865   */\n    tag_477:\n        /* \"#utility.yul\":16641:16644   */\n      0x00\n        /* \"#utility.yul\":16662:16729   */\n      tag_679\n        /* \"#utility.yul\":16726:16728   */\n      0x0c\n        /* \"#utility.yul\":16721:16724   */\n      dup4\n        /* \"#utility.yul\":16662:16729   */\n      tag_435\n      jump\t// in\n    tag_679:\n        /* \"#utility.yul\":16655:16729   */\n      swap2\n      pop\n        /* \"#utility.yul\":16738:16831   */\n      tag_680\n        /* \"#utility.yul\":16827:16830   */\n      dup3\n        /* \"#utility.yul\":16738:16831   */\n      tag_476\n      jump\t// in\n    tag_680:\n        /* \"#utility.yul\":16856:16858   */\n      0x20\n        /* \"#utility.yul\":16851:16854   */\n      dup3\n        /* \"#utility.yul\":16847:16859   */\n      add\n        /* \"#utility.yul\":16840:16859   */\n      swap1\n      pop\n        /* \"#utility.yul\":16499:16865   */\n      swap2\n      swap1\n      pop\n      jump\t// out\n        /* \"#utility.yul\":16871:17290   */\n    tag_300:\n        /* \"#utility.yul\":17037:17041   */\n      0x00\n        /* \"#utility.yul\":17075:17077   */\n      0x20\n        /* \"#utility.yul\":17064:17073   */\n      dup3\n        /* \"#utility.yul\":17060:17078   */\n      add\n        /* \"#utility.yul\":17052:17078   */\n      swap1\n      pop\n        /* \"#utility.yul\":17124:17133   */\n      dup2\n        /* \"#utility.yul\":17118:17122   */\n      dup2\n        /* \"#utility.yul\":17114:17134   */\n      sub\n        /* \"#utility.yul\":17110:17111   */\n      0x00\n        /* \"#utility.yul\":17099:17108   */\n      dup4\n        /* \"#utility.yul\":17095:17112   */\n      add\n        /* \"#utility.yul\":17088:17135   */\n      mstore\n        /* \"#utility.yul\":17152:17283   */\n      tag_682\n        /* \"#utility.yul\":17278:17282   */\n      dup2\n        /* \"#utility.yul\":17152:17283   */\n      tag_477\n      jump\t// in\n    tag_682:\n        /* \"#utility.yul\":17144:17283   */\n      swap1\n      pop\n        /* \"#utility.yul\":16871:17290   */\n      swap2\n      swap1\n      pop\n      jump\t// out\n        /* \"#utility.yul\":17296:17628   */\n    tag_323:\n        /* \"#utility.yul\":17417:17421   */\n      0x00\n        /* \"#utility.yul\":17455:17457   */\n      0x40\n        /* \"#utility.yul\":17444:17453   */\n      dup3\n        /* \"#utility.yul\":17440:17458   */\n      add\n        /* \"#utility.yul\":17432:17458   */\n      swap1\n      pop\n        /* \"#utility.yul\":17468:17539   */\n      tag_684\n        /* \"#utility.yul\":17536:17537   */\n      0x00\n        /* \"#utility.yul\":17525:17534   */\n      dup4\n        /* \"#utility.yul\":17521:17538   */\n      add\n        /* \"#utility.yul\":17512:17518   */\n      dup6\n        /* \"#utility.yul\":17468:17539   */\n      tag_461\n      jump\t// in\n    tag_684:\n        /* \"#utility.yul\":17549:17621   */\n      tag_685\n        /* \"#utility.yul\":17617:17619   */\n      0x20\n        /* \"#utility.yul\":17606:17615   */\n      dup4\n        /* \"#utility.yul\":17602:17620   */\n      add\n        /* \"#utility.yul\":17593:17599   */\n      dup5\n        /* \"#utility.yul\":17549:17621   */\n      tag_433\n      jump\t// in\n    tag_685:\n        /* \"#utility.yul\":17296:17628   */\n      swap4\n      swap3\n      pop\n      pop\n      pop\n      jump\t// out\n        /* \"#utility.yul\":17634:17771   */\n    tag_478:\n        /* \"#utility.yul\":17688:17693   */\n      0x00\n        /* \"#utility.yul\":17719:17725   */\n      dup2\n        /* \"#utility.yul\":17713:17726   */\n      mload\n        /* \"#utility.yul\":17704:17726   */\n      swap1\n      pop\n        /* \"#utility.yul\":17735:17765   */\n      tag_687\n        /* \"#utility.yul\":17759:17764   */\n      dup2\n        /* \"#utility.yul\":17735:17765   */\n      tag_452\n      jump\t// in\n    tag_687:\n        /* \"#utility.yul\":17634:17771   */\n      swap3\n      swap2\n      pop\n      pop\n      jump\t// out\n        /* \"#utility.yul\":17777:18122   */\n    tag_327:\n        /* \"#utility.yul\":17844:17850   */\n      0x00\n        /* \"#utility.yul\":17893:17895   */\n      0x20\n        /* \"#utility.yul\":17881:17890   */\n      dup3\n        /* \"#utility.yul\":17872:17879   */\n      dup5\n        /* \"#utility.yul\":17868:17891   */\n      sub\n        /* \"#utility.yul\":17864:17896   */\n      slt\n        /* \"#utility.yul\":17861:17980   */\n      iszero\n      tag_689\n      jumpi\n        /* \"#utility.yul\":17899:17978   */\n      tag_690\n      tag_440\n      jump\t// in\n    tag_690:\n        /* \"#utility.yul\":17861:17980   */\n    tag_689:\n        /* \"#utility.yul\":18019:18020   */\n      0x00\n        /* \"#utility.yul\":18044:18105   */\n      tag_691\n        /* \"#utility.yul\":18097:18104   */\n      dup5\n        /* \"#utility.yul\":18088:18094   */\n      dup3\n        /* \"#utility.yul\":18077:18086   */\n      dup6\n        /* \"#utility.yul\":18073:18095   */\n      add\n        /* \"#utility.yul\":18044:18105   */\n      tag_478\n      jump\t// in\n    tag_691:\n        /* \"#utility.yul\":18034:18105   */\n      swap2\n      pop\n        /* \"#utility.yul\":17990:18115   */\n      pop\n        /* \"#utility.yul\":17777:18122   */\n      swap3\n      swap2\n      pop\n      pop\n      jump\t// out\n        /* \"#utility.yul\":18128:18289   */\n    tag_479:\n        /* \"#utility.yul\":18268:18281   */\n      0x5a45524f5f415353455453000000000000000000000000000000000000000000\n        /* \"#utility.yul\":18264:18265   */\n      0x00\n        /* \"#utility.yul\":18256:18262   */\n      dup3\n        /* \"#utility.yul\":18252:18266   */\n      add\n        /* \"#utility.yul\":18245:18282   */\n      mstore\n        /* \"#utility.yul\":18128:18289   */\n      pop\n      jump\t// out\n        /* \"#utility.yul\":18295:18661   */\n    tag_480:\n        /* \"#utility.yul\":18437:18440   */\n      0x00\n        /* \"#utility.yul\":18458:18525   */\n      tag_694\n        /* \"#utility.yul\":18522:18524   */\n      0x0b\n        /* \"#utility.yul\":18517:18520   */\n      dup4\n        /* \"#utility.yul\":18458:18525   */\n      tag_435\n      jump\t// in\n    tag_694:\n        /* \"#utility.yul\":18451:18525   */\n      swap2\n      pop\n        /* \"#utility.yul\":18534:18627   */\n      tag_695\n        /* \"#utility.yul\":18623:18626   */\n      dup3\n        /* \"#utility.yul\":18534:18627   */\n      tag_479\n      jump\t// in\n    tag_695:\n        /* \"#utility.yul\":18652:18654   */\n      0x20\n        /* \"#utility.yul\":18647:18650   */\n      dup3\n        /* \"#utility.yul\":18643:18655   */\n      add\n        /* \"#utility.yul\":18636:18655   */\n      swap1\n      pop\n        /* \"#utility.yul\":18295:18661   */\n      swap2\n      swap1\n      pop\n      jump\t// out\n        /* \"#utility.yul\":18667:19086   */\n    tag_352:\n        /* \"#utility.yul\":18833:18837   */\n      0x00\n        /* \"#utility.yul\":18871:18873   */\n      0x20\n        /* \"#utility.yul\":18860:18869   */\n      dup3\n        /* \"#utility.yul\":18856:18874   */\n      add\n        /* \"#utility.yul\":18848:18874   */\n      swap1\n      pop\n        /* \"#utility.yul\":18920:18929   */\n      dup2\n        /* \"#utility.yul\":18914:18918   */\n      dup2\n        /* \"#utility.yul\":18910:18930   */\n      sub\n        /* \"#utility.yul\":18906:18907   */\n      0x00\n        /* \"#utility.yul\":18895:18904   */\n      dup4\n        /* \"#utility.yul\":18891:18908   */\n      add\n        /* \"#utility.yul\":18884:18931   */\n      mstore\n        /* \"#utility.yul\":18948:19079   */\n      tag_697\n        /* \"#utility.yul\":19074:19078   */\n      dup2\n        /* \"#utility.yul\":18948:19079   */\n      tag_480\n      jump\t// in\n    tag_697:\n        /* \"#utility.yul\":18940:19079   */\n      swap1\n      pop\n        /* \"#utility.yul\":18667:19086   */\n      swap2\n      swap1\n      pop\n      jump\t// out\n        /* \"#utility.yul\":19092:19257   */\n    tag_481:\n        /* \"#utility.yul\":19232:19249   */\n      0x5441524745545f544f4f5f484947480000000000000000000000000000000000\n        /* \"#utility.yul\":19228:19229   */\n      0x00\n        /* \"#utility.yul\":19220:19226   */\n      dup3\n        /* \"#utility.yul\":19216:19230   */\n      add\n        /* \"#utility.yul\":19209:19250   */\n      mstore\n        /* \"#utility.yul\":19092:19257   */\n      pop\n      jump\t// out\n        /* \"#utility.yul\":19263:19629   */\n    tag_482:\n        /* \"#utility.yul\":19405:19408   */\n      0x00\n        /* \"#utility.yul\":19426:19493   */\n      tag_700\n        /* \"#utility.yul\":19490:19492   */\n      0x0f\n        /* \"#utility.yul\":19485:19488   */\n      dup4\n        /* \"#utility.yul\":19426:19493   */\n      tag_435\n      jump\t// in\n    tag_700:\n        /* \"#utility.yul\":19419:19493   */\n      swap2\n      pop\n        /* \"#utility.yul\":19502:19595   */\n      tag_701\n        /* \"#utility.yul\":19591:19594   */\n      dup3\n        /* \"#utility.yul\":19502:19595   */\n      tag_481\n      jump\t// in\n    tag_701:\n        /* \"#utility.yul\":19620:19622   */\n      0x20\n        /* \"#utility.yul\":19615:19618   */\n      dup3\n        /* \"#utility.yul\":19611:19623   */\n      add\n        /* \"#utility.yul\":19604:19623   */\n      swap1\n      pop\n        /* \"#utility.yul\":19263:19629   */\n      swap2\n      swap1\n      pop\n      jump\t// out\n        /* \"#utility.yul\":19635:20054   */\n    tag_364:\n        /* \"#utility.yul\":19801:19805   */\n      0x00\n        /* \"#utility.yul\":19839:19841   */\n      0x20\n        /* \"#utility.yul\":19828:19837   */\n      dup3\n        /* \"#utility.yul\":19824:19842   */\n      add\n        /* \"#utility.yul\":19816:19842   */\n      swap1\n      pop\n        /* \"#utility.yul\":19888:19897   */\n      dup2\n        /* \"#utility.yul\":19882:19886   */\n      dup2\n        /* \"#utility.yul\":19878:19898   */\n      sub\n        /* \"#utility.yul\":19874:19875   */\n      0x00\n        /* \"#utility.yul\":19863:19872   */\n      dup4\n        /* \"#utility.yul\":19859:19876   */\n      add\n        /* \"#utility.yul\":19852:19899   */\n      mstore\n        /* \"#utility.yul\":19916:20047   */\n      tag_703\n        /* \"#utility.yul\":20042:20046   */\n      dup2\n        /* \"#utility.yul\":19916:20047   */\n      tag_482\n      jump\t// in\n    tag_703:\n        /* \"#utility.yul\":19908:20047   */\n      swap1\n      pop\n        /* \"#utility.yul\":19635:20054   */\n      swap2\n      swap1\n      pop\n      jump\t// out\n        /* \"#utility.yul\":20060:20233   */\n    tag_483:\n        /* \"#utility.yul\":20200:20225   */\n      0x5045524d49545f444541444c494e455f45585049524544000000000000000000\n        /* \"#utility.yul\":20196:20197   */\n      0x00\n        /* \"#utility.yul\":20188:20194   */\n      dup3\n        /* \"#utility.yul\":20184:20198   */\n      add\n        /* \"#utility.yul\":20177:20226   */\n      mstore\n        /* \"#utility.yul\":20060:20233   */\n      pop\n      jump\t// out\n        /* \"#utility.yul\":20239:20605   */\n    tag_484:\n        /* \"#utility.yul\":20381:20384   */\n      0x00\n        /* \"#utility.yul\":20402:20469   */\n      tag_706\n        /* \"#utility.yul\":20466:20468   */\n      0x17\n        /* \"#utility.yul\":20461:20464   */\n      dup4\n        /* \"#utility.yul\":20402:20469   */\n      tag_435\n      jump\t// in\n    tag_706:\n        /* \"#utility.yul\":20395:20469   */\n      swap2\n      pop\n        /* \"#utility.yul\":20478:20571   */\n      tag_707\n        /* \"#utility.yul\":20567:20570   */\n      dup3\n        /* \"#utility.yul\":20478:20571   */\n      tag_483\n      jump\t// in\n    tag_707:\n        /* \"#utility.yul\":20596:20598   */\n      0x20\n        /* \"#utility.yul\":20591:20594   */\n      dup3\n        /* \"#utility.yul\":20587:20599   */\n      add\n        /* \"#utility.yul\":20580:20599   */\n      swap1\n      pop\n        /* \"#utility.yul\":20239:20605   */\n      swap2\n      swap1\n      pop\n      jump\t// out\n        /* \"#utility.yul\":20611:21030   */\n    tag_377:\n        /* \"#utility.yul\":20777:20781   */\n      0x00\n        /* \"#utility.yul\":20815:20817   */\n      0x20\n        /* \"#utility.yul\":20804:20813   */\n      dup3\n        /* \"#utility.yul\":20800:20818   */\n      add\n        /* \"#utility.yul\":20792:20818   */\n      swap1\n      pop\n        /* \"#utility.yul\":20864:20873   */\n      dup2\n        /* \"#utility.yul\":20858:20862   */\n      dup2\n        /* \"#utility.yul\":20854:20874   */\n      sub\n        /* \"#utility.yul\":20850:20851   */\n      0x00\n        /* \"#utility.yul\":20839:20848   */\n      dup4\n        /* \"#utility.yul\":20835:20852   */\n      add\n        /* \"#utility.yul\":20828:20875   */\n      mstore\n        /* \"#utility.yul\":20892:21023   */\n      tag_709\n        /* \"#utility.yul\":21018:21022   */\n      dup2\n        /* \"#utility.yul\":20892:21023   */\n      tag_484\n      jump\t// in\n    tag_709:\n        /* \"#utility.yul\":20884:21023   */\n      swap1\n      pop\n        /* \"#utility.yul\":20611:21030   */\n      swap2\n      swap1\n      pop\n      jump\t// out\n        /* \"#utility.yul\":21036:21811   */\n    tag_380:\n        /* \"#utility.yul\":21269:21273   */\n      0x00\n        /* \"#utility.yul\":21307:21310   */\n      0xc0\n        /* \"#utility.yul\":21296:21305   */\n      dup3\n        /* \"#utility.yul\":21292:21311   */\n      add\n        /* \"#utility.yul\":21284:21311   */\n      swap1\n      pop\n        /* \"#utility.yul\":21321:21392   */\n      tag_711\n        /* \"#utility.yul\":21389:21390   */\n      0x00\n        /* \"#utility.yul\":21378:21387   */\n      dup4\n        /* \"#utility.yul\":21374:21391   */\n      add\n        /* \"#utility.yul\":21365:21371   */\n      dup10\n        /* \"#utility.yul\":21321:21392   */\n      tag_455\n      jump\t// in\n    tag_711:\n        /* \"#utility.yul\":21402:21474   */\n      tag_712\n        /* \"#utility.yul\":21470:21472   */\n      0x20\n        /* \"#utility.yul\":21459:21468   */\n      dup4\n        /* \"#utility.yul\":21455:21473   */\n      add\n        /* \"#utility.yul\":21446:21452   */\n      dup9\n        /* \"#utility.yul\":21402:21474   */\n      tag_461\n      jump\t// in\n    tag_712:\n        /* \"#utility.yul\":21484:21556   */\n      tag_713\n        /* \"#utility.yul\":21552:21554   */\n      0x40\n        /* \"#utility.yul\":21541:21550   */\n      dup4\n        /* \"#utility.yul\":21537:21555   */\n      add\n        /* \"#utility.yul\":21528:21534   */\n      dup8\n        /* \"#utility.yul\":21484:21556   */\n      tag_461\n      jump\t// in\n    tag_713:\n        /* \"#utility.yul\":21566:21638   */\n      tag_714\n        /* \"#utility.yul\":21634:21636   */\n      0x60\n        /* \"#utility.yul\":21623:21632   */\n      dup4\n        /* \"#utility.yul\":21619:21637   */\n      add\n        /* \"#utility.yul\":21610:21616   */\n      dup7\n        /* \"#utility.yul\":21566:21638   */\n      tag_433\n      jump\t// in\n    tag_714:\n        /* \"#utility.yul\":21648:21721   */\n      tag_715\n        /* \"#utility.yul\":21716:21719   */\n      0x80\n        /* \"#utility.yul\":21705:21714   */\n      dup4\n        /* \"#utility.yul\":21701:21720   */\n      add\n        /* \"#utility.yul\":21692:21698   */\n      dup6\n        /* \"#utility.yul\":21648:21721   */\n      tag_433\n      jump\t// in\n    tag_715:\n        /* \"#utility.yul\":21731:21804   */\n      tag_716\n        /* \"#utility.yul\":21799:21802   */\n      0xa0\n        /* \"#utility.yul\":21788:21797   */\n      dup4\n        /* \"#utility.yul\":21784:21803   */\n      add\n        /* \"#utility.yul\":21775:21781   */\n      dup5\n        /* \"#utility.yul\":21731:21804   */\n      tag_433\n      jump\t// in\n    tag_716:\n        /* \"#utility.yul\":21036:21811   */\n      swap8\n      swap7\n      pop\n      pop\n      pop\n      pop\n      pop\n      pop\n      pop\n      jump\t// out\n        /* \"#utility.yul\":21817:21965   */\n    tag_485:\n        /* \"#utility.yul\":21919:21930   */\n      0x00\n        /* \"#utility.yul\":21956:21959   */\n      dup2\n        /* \"#utility.yul\":21941:21959   */\n      swap1\n      pop\n        /* \"#utility.yul\":21817:21965   */\n      swap3\n      swap2\n      pop\n      pop\n      jump\t// out\n        /* \"#utility.yul\":21971:22185   */\n    tag_486:\n        /* \"#utility.yul\":22111:22177   */\n      0x1901000000000000000000000000000000000000000000000000000000000000\n        /* \"#utility.yul\":22107:22108   */\n      0x00\n        /* \"#utility.yul\":22099:22105   */\n      dup3\n        /* \"#utility.yul\":22095:22109   */\n      add\n        /* \"#utility.yul\":22088:22178   */\n      mstore\n        /* \"#utility.yul\":21971:22185   */\n      pop\n      jump\t// out\n        /* \"#utility.yul\":22191:22591   */\n    tag_487:\n        /* \"#utility.yul\":22351:22354   */\n      0x00\n        /* \"#utility.yul\":22372:22456   */\n      tag_720\n        /* \"#utility.yul\":22454:22455   */\n      0x02\n        /* \"#utility.yul\":22449:22452   */\n      dup4\n        /* \"#utility.yul\":22372:22456   */\n      tag_485\n      jump\t// in\n    tag_720:\n        /* \"#utility.yul\":22365:22456   */\n      swap2\n      pop\n        /* \"#utility.yul\":22465:22558   */\n      tag_721\n        /* \"#utility.yul\":22554:22557   */\n      dup3\n        /* \"#utility.yul\":22465:22558   */\n      tag_486\n      jump\t// in\n    tag_721:\n        /* \"#utility.yul\":22583:22584   */\n      0x02\n        /* \"#utility.yul\":22578:22581   */\n      dup3\n        /* \"#utility.yul\":22574:22585   */\n      add\n        /* \"#utility.yul\":22567:22585   */\n      swap1\n      pop\n        /* \"#utility.yul\":22191:22591   */\n      swap2\n      swap1\n      pop\n      jump\t// out\n        /* \"#utility.yul\":22597:22676   */\n    tag_488:\n        /* \"#utility.yul\":22636:22643   */\n      0x00\n        /* \"#utility.yul\":22665:22670   */\n      dup2\n        /* \"#utility.yul\":22654:22670   */\n      swap1\n      pop\n        /* \"#utility.yul\":22597:22676   */\n      swap2\n      swap1\n      pop\n      jump\t// out\n        /* \"#utility.yul\":22682:22839   */\n    tag_489:\n        /* \"#utility.yul\":22787:22832   */\n      tag_724\n        /* \"#utility.yul\":22807:22831   */\n      tag_725\n        /* \"#utility.yul\":22825:22830   */\n      dup3\n        /* \"#utility.yul\":22807:22831   */\n      tag_454\n      jump\t// in\n    tag_725:\n        /* \"#utility.yul\":22787:22832   */\n      tag_488\n      jump\t// in\n    tag_724:\n        /* \"#utility.yul\":22782:22785   */\n      dup3\n        /* \"#utility.yul\":22775:22833   */\n      mstore\n        /* \"#utility.yul\":22682:22839   */\n      pop\n      pop\n      jump\t// out\n        /* \"#utility.yul\":22845:23508   */\n    tag_382:\n        /* \"#utility.yul\":23086:23089   */\n      0x00\n        /* \"#utility.yul\":23108:23256   */\n      tag_727\n        /* \"#utility.yul\":23252:23255   */\n      dup3\n        /* \"#utility.yul\":23108:23256   */\n      tag_487\n      jump\t// in\n    tag_727:\n        /* \"#utility.yul\":23101:23256   */\n      swap2\n      pop\n        /* \"#utility.yul\":23266:23341   */\n      tag_728\n        /* \"#utility.yul\":23337:23340   */\n      dup3\n        /* \"#utility.yul\":23328:23334   */\n      dup6\n        /* \"#utility.yul\":23266:23341   */\n      tag_489\n      jump\t// in\n    tag_728:\n        /* \"#utility.yul\":23366:23368   */\n      0x20\n        /* \"#utility.yul\":23361:23364   */\n      dup3\n        /* \"#utility.yul\":23357:23369   */\n      add\n        /* \"#utility.yul\":23350:23369   */\n      swap2\n      pop\n        /* \"#utility.yul\":23379:23454   */\n      tag_729\n        /* \"#utility.yul\":23450:23453   */\n      dup3\n        /* \"#utility.yul\":23441:23447   */\n      dup5\n        /* \"#utility.yul\":23379:23454   */\n      tag_489\n      jump\t// in\n    tag_729:\n        /* \"#utility.yul\":23479:23481   */\n      0x20\n        /* \"#utility.yul\":23474:23477   */\n      dup3\n        /* \"#utility.yul\":23470:23482   */\n      add\n        /* \"#utility.yul\":23463:23482   */\n      swap2\n      pop\n        /* \"#utility.yul\":23499:23502   */\n      dup2\n        /* \"#utility.yul\":23492:23502   */\n      swap1\n      pop\n        /* \"#utility.yul\":22845:23508   */\n      swap4\n      swap3\n      pop\n      pop\n      pop\n      jump\t// out\n        /* \"#utility.yul\":23514:24059   */\n    tag_384:\n        /* \"#utility.yul\":23687:23691   */\n      0x00\n        /* \"#utility.yul\":23725:23728   */\n      0x80\n        /* \"#utility.yul\":23714:23723   */\n      dup3\n        /* \"#utility.yul\":23710:23729   */\n      add\n        /* \"#utility.yul\":23702:23729   */\n      swap1\n      pop\n        /* \"#utility.yul\":23739:23810   */\n      tag_731\n        /* \"#utility.yul\":23807:23808   */\n      0x00\n        /* \"#utility.yul\":23796:23805   */\n      dup4\n        /* \"#utility.yul\":23792:23809   */\n      add\n        /* \"#utility.yul\":23783:23789   */\n      dup8\n        /* \"#utility.yul\":23739:23810   */\n      tag_455\n      jump\t// in\n    tag_731:\n        /* \"#utility.yul\":23820:23888   */\n      tag_732\n        /* \"#utility.yul\":23884:23886   */\n      0x20\n        /* \"#utility.yul\":23873:23882   */\n      dup4\n        /* \"#utility.yul\":23869:23887   */\n      add\n        /* \"#utility.yul\":23860:23866   */\n      dup7\n        /* \"#utility.yul\":23820:23888   */\n      tag_451\n      jump\t// in\n    tag_732:\n        /* \"#utility.yul\":23898:23970   */\n      tag_733\n        /* \"#utility.yul\":23966:23968   */\n      0x40\n        /* \"#utility.yul\":23955:23964   */\n      dup4\n        /* \"#utility.yul\":23951:23969   */\n      add\n        /* \"#utility.yul\":23942:23948   */\n      dup6\n        /* \"#utility.yul\":23898:23970   */\n      tag_455\n      jump\t// in\n    tag_733:\n        /* \"#utility.yul\":23980:24052   */\n      tag_734\n        /* \"#utility.yul\":24048:24050   */\n      0x60\n        /* \"#utility.yul\":24037:24046   */\n      dup4\n        /* \"#utility.yul\":24033:24051   */\n      add\n        /* \"#utility.yul\":24024:24030   */\n      dup5\n        /* \"#utility.yul\":23980:24052   */\n      tag_455\n      jump\t// in\n    tag_734:\n        /* \"#utility.yul\":23514:24059   */\n      swap6\n      swap5\n      pop\n      pop\n      pop\n      pop\n      pop\n      jump\t// out\n        /* \"#utility.yul\":24065:24229   */\n    tag_490:\n        /* \"#utility.yul\":24205:24221   */\n      0x494e56414c49445f5349474e4552000000000000000000000000000000000000\n        /* \"#utility.yul\":24201:24202   */\n      0x00\n        /* \"#utility.yul\":24193:24199   */\n      dup3\n        /* \"#utility.yul\":24189:24203   */\n      add\n        /* \"#utility.yul\":24182:24222   */\n      mstore\n        /* \"#utility.yul\":24065:24229   */\n      pop\n      jump\t// out\n        /* \"#utility.yul\":24235:24601   */\n    tag_491:\n        /* \"#utility.yul\":24377:24380   */\n      0x00\n        /* \"#utility.yul\":24398:24465   */\n      tag_737\n        /* \"#utility.yul\":24462:24464   */\n      0x0e\n        /* \"#utility.yul\":24457:24460   */\n      dup4\n        /* \"#utility.yul\":24398:24465   */\n      tag_435\n      jump\t// in\n    tag_737:\n        /* \"#utility.yul\":24391:24465   */\n      swap2\n      pop\n        /* \"#utility.yul\":24474:24567   */\n      tag_738\n        /* \"#utility.yul\":24563:24566   */\n      dup3\n        /* \"#utility.yul\":24474:24567   */\n      tag_490\n      jump\t// in\n    tag_738:\n        /* \"#utility.yul\":24592:24594   */\n      0x20\n        /* \"#utility.yul\":24587:24590   */\n      dup3\n        /* \"#utility.yul\":24583:24595   */\n      add\n        /* \"#utility.yul\":24576:24595   */\n      swap1\n      pop\n        /* \"#utility.yul\":24235:24601   */\n      swap2\n      swap1\n      pop\n      jump\t// out\n        /* \"#utility.yul\":24607:25026   */\n    tag_390:\n        /* \"#utility.yul\":24773:24777   */\n      0x00\n        /* \"#utility.yul\":24811:24813   */\n      0x20\n        /* \"#utility.yul\":24800:24809   */\n      dup3\n        /* \"#utility.yul\":24796:24814   */\n      add\n        /* \"#utility.yul\":24788:24814   */\n      swap1\n      pop\n        /* \"#utility.yul\":24860:24869   */\n      dup2\n        /* \"#utility.yul\":24854:24858   */\n      dup2\n        /* \"#utility.yul\":24850:24870   */\n      sub\n        /* \"#utility.yul\":24846:24847   */\n      0x00\n        /* \"#utility.yul\":24835:24844   */\n      dup4\n        /* \"#utility.yul\":24831:24848   */\n      add\n        /* \"#utility.yul\":24824:24871   */\n      mstore\n        /* \"#utility.yul\":24888:25019   */\n      tag_740\n        /* \"#utility.yul\":25014:25018   */\n      dup2\n        /* \"#utility.yul\":24888:25019   */\n      tag_491\n      jump\t// in\n    tag_740:\n        /* \"#utility.yul\":24880:25019   */\n      swap1\n      pop\n        /* \"#utility.yul\":24607:25026   */\n      swap2\n      swap1\n      pop\n      jump\t// out\n        /* \"#utility.yul\":25032:25259   */\n    tag_492:\n        /* \"#utility.yul\":25172:25206   */\n      0x4f776e61626c653a206e6577206d616e6167657220697320746865207a65726f\n        /* \"#utility.yul\":25168:25169   */\n      0x00\n        /* \"#utility.yul\":25160:25166   */\n      dup3\n        /* \"#utility.yul\":25156:25170   */\n      add\n        /* \"#utility.yul\":25149:25207   */\n      mstore\n        /* \"#utility.yul\":25241:25251   */\n      0x2061646472657373000000000000000000000000000000000000000000000000\n        /* \"#utility.yul\":25236:25238   */\n      0x20\n        /* \"#utility.yul\":25228:25234   */\n      dup3\n        /* \"#utility.yul\":25224:25239   */\n      add\n        /* \"#utility.yul\":25217:25252   */\n      mstore\n        /* \"#utility.yul\":25032:25259   */\n      pop\n      jump\t// out\n        /* \"#utility.yul\":25265:25631   */\n    tag_493:\n        /* \"#utility.yul\":25407:25410   */\n      0x00\n        /* \"#utility.yul\":25428:25495   */\n      tag_743\n        /* \"#utility.yul\":25492:25494   */\n      0x28\n        /* \"#utility.yul\":25487:25490   */\n      dup4\n        /* \"#utility.yul\":25428:25495   */\n      tag_435\n      jump\t// in\n    tag_743:\n        /* \"#utility.yul\":25421:25495   */\n      swap2\n      pop\n        /* \"#utility.yul\":25504:25597   */\n      tag_744\n        /* \"#utility.yul\":25593:25596   */\n      dup3\n        /* \"#utility.yul\":25504:25597   */\n      tag_492\n      jump\t// in\n    tag_744:\n        /* \"#utility.yul\":25622:25624   */\n      0x40\n        /* \"#utility.yul\":25617:25620   */\n      dup3\n        /* \"#utility.yul\":25613:25625   */\n      add\n        /* \"#utility.yul\":25606:25625   */\n      swap1\n      pop\n        /* \"#utility.yul\":25265:25631   */\n      swap2\n      swap1\n      pop\n      jump\t// out\n        /* \"#utility.yul\":25637:26056   */\n    tag_402:\n        /* \"#utility.yul\":25803:25807   */\n      0x00\n        /* \"#utility.yul\":25841:25843   */\n      0x20\n        /* \"#utility.yul\":25830:25839   */\n      dup3\n        /* \"#utility.yul\":25826:25844   */\n      add\n        /* \"#utility.yul\":25818:25844   */\n      swap1\n      pop\n        /* \"#utility.yul\":25890:25899   */\n      dup2\n        /* \"#utility.yul\":25884:25888   */\n      dup2\n        /* \"#utility.yul\":25880:25900   */\n      sub\n        /* \"#utility.yul\":25876:25877   */\n      0x00\n        /* \"#utility.yul\":25865:25874   */\n      dup4\n        /* \"#utility.yul\":25861:25878   */\n      add\n        /* \"#utility.yul\":25854:25901   */\n      mstore\n        /* \"#utility.yul\":25918:26049   */\n      tag_746\n        /* \"#utility.yul\":26044:26048   */\n      dup2\n        /* \"#utility.yul\":25918:26049   */\n      tag_493\n      jump\t// in\n    tag_746:\n        /* \"#utility.yul\":25910:26049   */\n      swap1\n      pop\n        /* \"#utility.yul\":25637:26056   */\n      swap2\n      swap1\n      pop\n      jump\t// out\n        /* \"#utility.yul\":26062:26209   */\n    tag_494:\n        /* \"#utility.yul\":26163:26174   */\n      0x00\n        /* \"#utility.yul\":26200:26203   */\n      dup2\n        /* \"#utility.yul\":26185:26203   */\n      swap1\n      pop\n        /* \"#utility.yul\":26062:26209   */\n      swap3\n      swap2\n      pop\n      pop\n      jump\t// out\n        /* \"#utility.yul\":26215:26359   */\n    tag_495:\n        /* \"#utility.yul\":26267:26271   */\n      0x00\n        /* \"#utility.yul\":26290:26293   */\n      dup2\n        /* \"#utility.yul\":26282:26293   */\n      swap1\n      pop\n        /* \"#utility.yul\":26313:26316   */\n      dup2\n        /* \"#utility.yul\":26310:26311   */\n      0x00\n        /* \"#utility.yul\":26303:26317   */\n      mstore\n        /* \"#utility.yul\":26347:26351   */\n      0x20\n        /* \"#utility.yul\":26344:26345   */\n      0x00\n        /* \"#utility.yul\":26334:26352   */\n      keccak256\n        /* \"#utility.yul\":26326:26352   */\n      swap1\n      pop\n        /* \"#utility.yul\":26215:26359   */\n      swap2\n      swap1\n      pop\n      jump\t// out\n        /* \"#utility.yul\":26387:27265   */\n    tag_496:\n        /* \"#utility.yul\":26492:26495   */\n      0x00\n        /* \"#utility.yul\":26529:26534   */\n      dup2\n        /* \"#utility.yul\":26523:26535   */\n      sload\n        /* \"#utility.yul\":26558:26594   */\n      tag_750\n        /* \"#utility.yul\":26584:26593   */\n      dup2\n        /* \"#utility.yul\":26558:26594   */\n      tag_224\n      jump\t// in\n    tag_750:\n        /* \"#utility.yul\":26610:26698   */\n      tag_751\n        /* \"#utility.yul\":26691:26697   */\n      dup2\n        /* \"#utility.yul\":26686:26689   */\n      dup7\n        /* \"#utility.yul\":26610:26698   */\n      tag_494\n      jump\t// in\n    tag_751:\n        /* \"#utility.yul\":26603:26698   */\n      swap5\n      pop\n        /* \"#utility.yul\":26729:26730   */\n      0x01\n        /* \"#utility.yul\":26718:26727   */\n      dup3\n        /* \"#utility.yul\":26714:26731   */\n      and\n        /* \"#utility.yul\":26745:26746   */\n      0x00\n        /* \"#utility.yul\":26740:26906   */\n      dup2\n      eq\n      tag_753\n      jumpi\n        /* \"#utility.yul\":26920:26921   */\n      0x01\n        /* \"#utility.yul\":26915:27259   */\n      dup2\n      eq\n      tag_754\n      jumpi\n        /* \"#utility.yul\":26707:27259   */\n      jump(tag_752)\n        /* \"#utility.yul\":26740:26906   */\n    tag_753:\n        /* \"#utility.yul\":26824:26828   */\n      0xff\n        /* \"#utility.yul\":26820:26829   */\n      not\n        /* \"#utility.yul\":26809:26818   */\n      dup4\n        /* \"#utility.yul\":26805:26830   */\n      and\n        /* \"#utility.yul\":26800:26803   */\n      dup7\n        /* \"#utility.yul\":26793:26831   */\n      mstore\n        /* \"#utility.yul\":26886:26892   */\n      dup2\n        /* \"#utility.yul\":26879:26893   */\n      iszero\n        /* \"#utility.yul\":26872:26894   */\n      iszero\n        /* \"#utility.yul\":26864:26870   */\n      dup3\n        /* \"#utility.yul\":26860:26895   */\n      mul\n        /* \"#utility.yul\":26855:26858   */\n      dup7\n        /* \"#utility.yul\":26851:26896   */\n      add\n        /* \"#utility.yul\":26844:26896   */\n      swap4\n      pop\n        /* \"#utility.yul\":26740:26906   */\n      jump(tag_752)\n        /* \"#utility.yul\":26915:27259   */\n    tag_754:\n        /* \"#utility.yul\":26982:27023   */\n      tag_755\n        /* \"#utility.yul\":27017:27022   */\n      dup6\n        /* \"#utility.yul\":26982:27023   */\n      tag_495\n      jump\t// in\n    tag_755:\n        /* \"#utility.yul\":27045:27046   */\n      0x00\n        /* \"#utility.yul\":27059:27213   */\n    tag_756:\n        /* \"#utility.yul\":27073:27079   */\n      dup4\n        /* \"#utility.yul\":27070:27071   */\n      dup2\n        /* \"#utility.yul\":27067:27080   */\n      lt\n        /* \"#utility.yul\":27059:27213   */\n      iszero\n      tag_758\n      jumpi\n        /* \"#utility.yul\":27147:27154   */\n      dup2\n        /* \"#utility.yul\":27141:27155   */\n      sload\n        /* \"#utility.yul\":27137:27138   */\n      dup2\n        /* \"#utility.yul\":27132:27135   */\n      dup10\n        /* \"#utility.yul\":27128:27139   */\n      add\n        /* \"#utility.yul\":27121:27156   */\n      mstore\n        /* \"#utility.yul\":27197:27198   */\n      0x01\n        /* \"#utility.yul\":27188:27195   */\n      dup3\n        /* \"#utility.yul\":27184:27199   */\n      add\n        /* \"#utility.yul\":27173:27199   */\n      swap2\n      pop\n        /* \"#utility.yul\":27095:27099   */\n      0x20\n        /* \"#utility.yul\":27092:27093   */\n      dup2\n        /* \"#utility.yul\":27088:27100   */\n      add\n        /* \"#utility.yul\":27083:27100   */\n      swap1\n      pop\n        /* \"#utility.yul\":27059:27213   */\n      jump(tag_756)\n    tag_758:\n        /* \"#utility.yul\":27242:27248   */\n      dup4\n        /* \"#utility.yul\":27237:27240   */\n      dup9\n        /* \"#utility.yul\":27233:27249   */\n      add\n        /* \"#utility.yul\":27226:27249   */\n      swap6\n      pop\n        /* \"#utility.yul\":26922:27259   */\n      pop\n      pop\n        /* \"#utility.yul\":26707:27259   */\n    tag_752:\n      pop\n        /* \"#utility.yul\":26496:27265   */\n      pop\n      pop\n        /* \"#utility.yul\":26387:27265   */\n      swap3\n      swap2\n      pop\n      pop\n      jump\t// out\n        /* \"#utility.yul\":27271:27544   */\n    tag_409:\n        /* \"#utility.yul\":27402:27405   */\n      0x00\n        /* \"#utility.yul\":27424:27518   */\n      tag_760\n        /* \"#utility.yul\":27514:27517   */\n      dup3\n        /* \"#utility.yul\":27505:27511   */\n      dup5\n        /* \"#utility.yul\":27424:27518   */\n      tag_496\n      jump\t// in\n    tag_760:\n        /* \"#utility.yul\":27417:27518   */\n      swap2\n      pop\n        /* \"#utility.yul\":27535:27538   */\n      dup2\n        /* \"#utility.yul\":27528:27538   */\n      swap1\n      pop\n        /* \"#utility.yul\":27271:27544   */\n      swap3\n      swap2\n      pop\n      pop\n      jump\t// out\n        /* \"#utility.yul\":27550:28214   */\n    tag_411:\n        /* \"#utility.yul\":27755:27759   */\n      0x00\n        /* \"#utility.yul\":27793:27796   */\n      0xa0\n        /* \"#utility.yul\":27782:27791   */\n      dup3\n        /* \"#utility.yul\":27778:27797   */\n      add\n        /* \"#utility.yul\":27770:27797   */\n      swap1\n      pop\n        /* \"#utility.yul\":27807:27878   */\n      tag_762\n        /* \"#utility.yul\":27875:27876   */\n      0x00\n        /* \"#utility.yul\":27864:27873   */\n      dup4\n        /* \"#utility.yul\":27860:27877   */\n      add\n        /* \"#utility.yul\":27851:27857   */\n      dup9\n        /* \"#utility.yul\":27807:27878   */\n      tag_455\n      jump\t// in\n    tag_762:\n        /* \"#utility.yul\":27888:27960   */\n      tag_763\n        /* \"#utility.yul\":27956:27958   */\n      0x20\n        /* \"#utility.yul\":27945:27954   */\n      dup4\n        /* \"#utility.yul\":27941:27959   */\n      add\n        /* \"#utility.yul\":27932:27938   */\n      dup8\n        /* \"#utility.yul\":27888:27960   */\n      tag_455\n      jump\t// in\n    tag_763:\n        /* \"#utility.yul\":27970:28042   */\n      tag_764\n        /* \"#utility.yul\":28038:28040   */\n      0x40\n        /* \"#utility.yul\":28027:28036   */\n      dup4\n        /* \"#utility.yul\":28023:28041   */\n      add\n        /* \"#utility.yul\":28014:28020   */\n      dup7\n        /* \"#utility.yul\":27970:28042   */\n      tag_455\n      jump\t// in\n    tag_764:\n        /* \"#utility.yul\":28052:28124   */\n      tag_765\n        /* \"#utility.yul\":28120:28122   */\n      0x60\n        /* \"#utility.yul\":28109:28118   */\n      dup4\n        /* \"#utility.yul\":28105:28123   */\n      add\n        /* \"#utility.yul\":28096:28102   */\n      dup6\n        /* \"#utility.yul\":28052:28124   */\n      tag_433\n      jump\t// in\n    tag_765:\n        /* \"#utility.yul\":28134:28207   */\n      tag_766\n        /* \"#utility.yul\":28202:28205   */\n      0x80\n        /* \"#utility.yul\":28191:28200   */\n      dup4\n        /* \"#utility.yul\":28187:28206   */\n      add\n        /* \"#utility.yul\":28178:28184   */\n      dup5\n        /* \"#utility.yul\":28134:28207   */\n      tag_461\n      jump\t// in\n    tag_766:\n        /* \"#utility.yul\":27550:28214   */\n      swap7\n      swap6\n      pop\n      pop\n      pop\n      pop\n      pop\n      pop\n      jump\t// out\n        /* \"#utility.yul\":28220:28390   */\n    tag_497:\n        /* \"#utility.yul\":28360:28382   */\n      0x5452414e534645525f46524f4d5f4641494c4544000000000000000000000000\n        /* \"#utility.yul\":28356:28357   */\n      0x00\n        /* \"#utility.yul\":28348:28354   */\n      dup3\n        /* \"#utility.yul\":28344:28358   */\n      add\n        /* \"#utility.yul\":28337:28383   */\n      mstore\n        /* \"#utility.yul\":28220:28390   */\n      pop\n      jump\t// out\n        /* \"#utility.yul\":28396:28762   */\n    tag_498:\n        /* \"#utility.yul\":28538:28541   */\n      0x00\n        /* \"#utility.yul\":28559:28626   */\n      tag_769\n        /* \"#utility.yul\":28623:28625   */\n      0x14\n        /* \"#utility.yul\":28618:28621   */\n      dup4\n        /* \"#utility.yul\":28559:28626   */\n      tag_435\n      jump\t// in\n    tag_769:\n        /* \"#utility.yul\":28552:28626   */\n      swap2\n      pop\n        /* \"#utility.yul\":28635:28728   */\n      tag_770\n        /* \"#utility.yul\":28724:28727   */\n      dup3\n        /* \"#utility.yul\":28635:28728   */\n      tag_497\n      jump\t// in\n    tag_770:\n        /* \"#utility.yul\":28753:28755   */\n      0x20\n        /* \"#utility.yul\":28748:28751   */\n      dup3\n        /* \"#utility.yul\":28744:28756   */\n      add\n        /* \"#utility.yul\":28737:28756   */\n      swap1\n      pop\n        /* \"#utility.yul\":28396:28762   */\n      swap2\n      swap1\n      pop\n      jump\t// out\n        /* \"#utility.yul\":28768:29187   */\n    tag_415:\n        /* \"#utility.yul\":28934:28938   */\n      0x00\n        /* \"#utility.yul\":28972:28974   */\n      0x20\n        /* \"#utility.yul\":28961:28970   */\n      dup3\n        /* \"#utility.yul\":28957:28975   */\n      add\n        /* \"#utility.yul\":28949:28975   */\n      swap1\n      pop\n        /* \"#utility.yul\":29021:29030   */\n      dup2\n        /* \"#utility.yul\":29015:29019   */\n      dup2\n        /* \"#utility.yul\":29011:29031   */\n      sub\n        /* \"#utility.yul\":29007:29008   */\n      0x00\n        /* \"#utility.yul\":28996:29005   */\n      dup4\n        /* \"#utility.yul\":28992:29009   */\n      add\n        /* \"#utility.yul\":28985:29032   */\n      mstore\n        /* \"#utility.yul\":29049:29180   */\n      tag_772\n        /* \"#utility.yul\":29175:29179   */\n      dup2\n        /* \"#utility.yul\":29049:29180   */\n      tag_498\n      jump\t// in\n    tag_772:\n        /* \"#utility.yul\":29041:29180   */\n      swap1\n      pop\n        /* \"#utility.yul\":28768:29187   */\n      swap2\n      swap1\n      pop\n      jump\t// out\n        /* \"#utility.yul\":29193:29384   */\n    tag_418:\n        /* \"#utility.yul\":29233:29236   */\n      0x00\n        /* \"#utility.yul\":29252:29272   */\n      tag_774\n        /* \"#utility.yul\":29270:29271   */\n      dup3\n        /* \"#utility.yul\":29252:29272   */\n      tag_432\n      jump\t// in\n    tag_774:\n        /* \"#utility.yul\":29247:29272   */\n      swap2\n      pop\n        /* \"#utility.yul\":29286:29306   */\n      tag_775\n        /* \"#utility.yul\":29304:29305   */\n      dup4\n        /* \"#utility.yul\":29286:29306   */\n      tag_432\n      jump\t// in\n    tag_775:\n        /* \"#utility.yul\":29281:29306   */\n      swap3\n      pop\n        /* \"#utility.yul\":29329:29330   */\n      dup3\n        /* \"#utility.yul\":29326:29327   */\n      dup3\n        /* \"#utility.yul\":29322:29331   */\n      add\n        /* \"#utility.yul\":29315:29331   */\n      swap1\n      pop\n        /* \"#utility.yul\":29350:29353   */\n      dup1\n        /* \"#utility.yul\":29347:29348   */\n      dup3\n        /* \"#utility.yul\":29344:29354   */\n      gt\n        /* \"#utility.yul\":29341:29377   */\n      iszero\n      tag_776\n      jumpi\n        /* \"#utility.yul\":29357:29375   */\n      tag_777\n      tag_468\n      jump\t// in\n    tag_777:\n        /* \"#utility.yul\":29341:29377   */\n    tag_776:\n        /* \"#utility.yul\":29193:29384   */\n      swap3\n      swap2\n      pop\n      pop\n      jump\t// out\n        /* \"#utility.yul\":29390:29623   */\n    tag_422:\n        /* \"#utility.yul\":29429:29432   */\n      0x00\n        /* \"#utility.yul\":29452:29476   */\n      tag_779\n        /* \"#utility.yul\":29470:29475   */\n      dup3\n        /* \"#utility.yul\":29452:29476   */\n      tag_432\n      jump\t// in\n    tag_779:\n        /* \"#utility.yul\":29443:29476   */\n      swap2\n      pop\n        /* \"#utility.yul\":29498:29564   */\n      0xffffffffffffffffffffffffffffffffffffffffffffffffffffffffffffffff\n        /* \"#utility.yul\":29491:29496   */\n      dup3\n        /* \"#utility.yul\":29488:29565   */\n      sub\n        /* \"#utility.yul\":29485:29588   */\n      tag_780\n      jumpi\n        /* \"#utility.yul\":29568:29586   */\n      tag_781\n      tag_468\n      jump\t// in\n    tag_781:\n        /* \"#utility.yul\":29485:29588   */\n    tag_780:\n        /* \"#utility.yul\":29615:29616   */\n      0x01\n        /* \"#utility.yul\":29608:29613   */\n      dup3\n        /* \"#utility.yul\":29604:29617   */\n      add\n        /* \"#utility.yul\":29597:29617   */\n      swap1\n      pop\n        /* \"#utility.yul\":29390:29623   */\n      swap2\n      swap1\n      pop\n      jump\t// out\n        /* \"#utility.yul\":29629:29794   */\n    tag_499:\n        /* \"#utility.yul\":29769:29786   */\n      0x5452414e534645525f4641494c45440000000000000000000000000000000000\n        /* \"#utility.yul\":29765:29766   */\n      0x00\n        /* \"#utility.yul\":29757:29763   */\n      dup3\n        /* \"#utility.yul\":29753:29767   */\n      add\n        /* \"#utility.yul\":29746:29787   */\n      mstore\n        /* \"#utility.yul\":29629:29794   */\n      pop\n      jump\t// out\n        /* \"#utility.yul\":29800:30166   */\n    tag_500:\n        /* \"#utility.yul\":29942:29945   */\n      0x00\n        /* \"#utility.yul\":29963:30030   */\n      tag_784\n        /* \"#utility.yul\":30027:30029   */\n      0x0f\n        /* \"#utility.yul\":30022:30025   */\n      dup4\n        /* \"#utility.yul\":29963:30030   */\n      tag_435\n      jump\t// in\n    tag_784:\n        /* \"#utility.yul\":29956:30030   */\n      swap2\n      pop\n        /* \"#utility.yul\":30039:30132   */\n      tag_785\n        /* \"#utility.yul\":30128:30131   */\n      dup3\n        /* \"#utility.yul\":30039:30132   */\n      tag_499\n      jump\t// in\n    tag_785:\n        /* \"#utility.yul\":30157:30159   */\n      0x20\n        /* \"#utility.yul\":30152:30155   */\n      dup3\n        /* \"#utility.yul\":30148:30160   */\n      add\n        /* \"#utility.yul\":30141:30160   */\n      swap1\n      pop\n        /* \"#utility.yul\":29800:30166   */\n      swap2\n      swap1\n      pop\n      jump\t// out\n        /* \"#utility.yul\":30172:30591   */\n    tag_431:\n        /* \"#utility.yul\":30338:30342   */\n      0x00\n        /* \"#utility.yul\":30376:30378   */\n      0x20\n        /* \"#utility.yul\":30365:30374   */\n      dup3\n        /* \"#utility.yul\":30361:30379   */\n      add\n        /* \"#utility.yul\":30353:30379   */\n      swap1\n      pop\n        /* \"#utility.yul\":30425:30434   */\n      dup2\n        /* \"#utility.yul\":30419:30423   */\n      dup2\n        /* \"#utility.yul\":30415:30435   */\n      sub\n        /* \"#utility.yul\":30411:30412   */\n      0x00\n        /* \"#utility.yul\":30400:30409   */\n      dup4\n        /* \"#utility.yul\":30396:30413   */\n      add\n        /* \"#utility.yul\":30389:30436   */\n      mstore\n        /* \"#utility.yul\":30453:30584   */\n      tag_787\n        /* \"#utility.yul\":30579:30583   */\n      dup2\n        /* \"#utility.yul\":30453:30584   */\n      tag_500\n      jump\t// in\n    tag_787:\n        /* \"#utility.yul\":30445:30584   */\n      swap1\n      pop\n        /* \"#utility.yul\":30172:30591   */\n      swap2\n      swap1\n      pop\n      jump\t// out\n\n    auxdata: 0xa26469706673582212201f269816f08c1841d1019bb9c2be9c453d345fffb211e594e717cb8883b5949764736f6c63430008100033\n}\n",
				"bytecode": {
					"linkReferences": {},
					"object": "610140604052600060075560006008553480156200001c57600080fd5b50604051620043df380380620043df83398181016040528101906200004291906200042e565b8383838382828282600090816200005a919062000729565b5081600190816200006c919062000729565b508060ff1660808160ff16815250504660a08181525050620000936200015460201b60201c565b60c081815250505050508373ffffffffffffffffffffffffffffffffffffffff1660e08173ffffffffffffffffffffffffffffffffffffffff1681525050505050508373ffffffffffffffffffffffffffffffffffffffff166101208173ffffffffffffffffffffffffffffffffffffffff1681525050608051600a6200011b919062000993565b61010081815250507fffffffffffffffffffffffffffffffffffffffffffffffffffffffffffffffff6002819055505050505062000b46565b60007f8b73c3c69bb8fe3d512ecc4cf759cc79239f7b179b0ffacaa9a75d522b39400f600060405162000188919062000a93565b60405180910390207fc89efdaa54c0f20c7adf612882df0950f5a951637e0307cdcb4c672f298b8bc64630604051602001620001c995949392919062000ae9565b60405160208183030381529060405280519060200120905090565b6000604051905090565b600080fd5b600080fd5b600073ffffffffffffffffffffffffffffffffffffffff82169050919050565b60006200022582620001f8565b9050919050565b6000620002398262000218565b9050919050565b6200024b816200022c565b81146200025757600080fd5b50565b6000815190506200026b8162000240565b92915050565b600080fd5b600080fd5b6000601f19601f8301169050919050565b7f4e487b7100000000000000000000000000000000000000000000000000000000600052604160045260246000fd5b620002c6826200027b565b810181811067ffffffffffffffff82111715620002e857620002e76200028c565b5b80604052505050565b6000620002fd620001e4565b90506200030b8282620002bb565b919050565b600067ffffffffffffffff8211156200032e576200032d6200028c565b5b62000339826200027b565b9050602081019050919050565b60005b838110156200036657808201518184015260208101905062000349565b60008484015250505050565b600062000389620003838462000310565b620002f1565b905082815260208101848484011115620003a857620003a762000276565b5b620003b584828562000346565b509392505050565b600082601f830112620003d557620003d462000271565b5b8151620003e784826020860162000372565b91505092915050565b600060ff82169050919050565b6200040881620003f0565b81146200041457600080fd5b50565b6000815190506200042881620003fd565b92915050565b600080600080608085870312156200044b576200044a620001ee565b5b60006200045b878288016200025a565b945050602085015167ffffffffffffffff8111156200047f576200047e620001f3565b5b6200048d87828801620003bd565b935050604085015167ffffffffffffffff811115620004b157620004b0620001f3565b5b620004bf87828801620003bd565b9250506060620004d28782880162000417565b91505092959194509250565b600081519050919050565b7f4e487b7100000000000000000000000000000000000000000000000000000000600052602260045260246000fd5b600060028204905060018216806200053157607f821691505b602082108103620005475762000546620004e9565b5b50919050565b60008190508160005260206000209050919050565b60006020601f8301049050919050565b600082821b905092915050565b600060088302620005b17fffffffffffffffffffffffffffffffffffffffffffffffffffffffffffffffff8262000572565b620005bd868362000572565b95508019841693508086168417925050509392505050565b6000819050919050565b6000819050919050565b60006200060a62000604620005fe84620005d5565b620005df565b620005d5565b9050919050565b6000819050919050565b6200062683620005e9565b6200063e620006358262000611565b8484546200057f565b825550505050565b600090565b6200065562000646565b620006628184846200061b565b505050565b5b818110156200068a576200067e6000826200064b565b60018101905062000668565b5050565b601f821115620006d957620006a3816200054d565b620006ae8462000562565b81016020851015620006be578190505b620006d6620006cd8562000562565b83018262000667565b50505b505050565b600082821c905092915050565b6000620006fe60001984600802620006de565b1980831691505092915050565b6000620007198383620006eb565b9150826002028217905092915050565b6200073482620004de565b67ffffffffffffffff81111562000750576200074f6200028c565b5b6200075c825462000518565b620007698282856200068e565b600060209050601f831160018114620007a157600084156200078c578287015190505b6200079885826200070b565b86555062000808565b601f198416620007b1866200054d565b60005b82811015620007db57848901518255600182019150602085019450602081019050620007b4565b86831015620007fb5784890151620007f7601f891682620006eb565b8355505b6001600288020188555050505b505050505050565b7f4e487b7100000000000000000000000000000000000000000000000000000000600052601160045260246000fd5b60008160011c9050919050565b6000808291508390505b60018511156200089e5780860481111562000876576200087562000810565b5b6001851615620008865780820291505b808102905062000896856200083f565b945062000856565b94509492505050565b600082620008b957600190506200098c565b81620008c957600090506200098c565b8160018114620008e25760028114620008ed5762000923565b60019150506200098c565b60ff84111562000902576200090162000810565b5b8360020a9150848211156200091c576200091b62000810565b5b506200098c565b5060208310610133831016604e8410600b84101617156200095d5782820a90508381111562000957576200095662000810565b5b6200098c565b6200096c84848460016200084c565b9250905081840481111562000986576200098562000810565b5b81810290505b9392505050565b6000620009a082620005d5565b9150620009ad83620003f0565b9250620009dc7fffffffffffffffffffffffffffffffffffffffffffffffffffffffffffffffff8484620008a7565b905092915050565b600081905092915050565b60008190508160005260206000209050919050565b6000815462000a138162000518565b62000a1f8186620009e4565b9450600182166000811462000a3d576001811462000a535762000a8a565b60ff198316865281151582028601935062000a8a565b62000a5e85620009ef565b60005b8381101562000a825781548189015260018201915060208101905062000a61565b838801955050505b50505092915050565b600062000aa1828462000a04565b915081905092915050565b6000819050919050565b62000ac18162000aac565b82525050565b62000ad281620005d5565b82525050565b62000ae38162000218565b82525050565b600060a08201905062000b00600083018862000ab6565b62000b0f602083018762000ab6565b62000b1e604083018662000ab6565b62000b2d606083018562000ac7565b62000b3c608083018462000ad8565b9695505050505050565b60805160a05160c05160e051610100516101205161381f62000bc060003960008181610e520152611e6a015260006110210152600081816108c401528181610fed0152818161110a0152818161146901528181611a610152611cff01526000610fc601526000610f9201526000610daf015261381f6000f3fe608060405234801561001057600080fd5b50600436106102695760003560e01c80637fd6f15c11610151578063c63d75b6116100c3578063dd62ed3e11610087578063dd62ed3e146107ea578063ecad95651461081a578063ef8b30f714610838578063f2fde38b14610868578063f84d73f414610884578063fc407ae7146108a257610269565b8063c63d75b61461070e578063c6e6f5921461073e578063ce96cb771461076e578063d505accf1461079e578063d905777e146107ba57610269565b8063b3d7f6b911610115578063b3d7f6b914610626578063b460af9414610656578063ba08765214610686578063bc368a8a146106b6578063bd662f88146106d4578063c5d664c6146106f057610269565b80637fd6f15c1461056e57806394bf804d1461058c57806395d89b41146105bc578063a9059cbb146105da578063ac68a7481461060a57610269565b80633644e515116101ea5780634cdad506116101ae5780634cdad506146104885780636e553f65146104b857806370a08231146104e8578063715018a6146105185780637ce3489b146105225780637ecebe001461053e57610269565b80633644e515146103e057806338d52e0f146103fe5780633ba0b9a91461041c578063402d267d1461043a578063481c6a751461046a57610269565b806318160ddd1161023157806318160ddd1461033a5780631c6934781461035857806323b872dd14610376578063313ce567146103a657806332ff7732146103c457610269565b806301e1d1141461026e57806306fdde031461028c57806307a2d13a146102aa578063095ea7b3146102da5780630a28a4771461030a575b600080fd5b6102766108c0565b604051610283919061288c565b60405180910390f35b610294610961565b6040516102a19190612937565b60405180910390f35b6102c460048036038101906102bf919061298a565b6109ef565b6040516102d1919061288c565b60405180910390f35b6102f460048036038101906102ef9190612a15565b610a2a565b6040516103019190612a70565b60405180910390f35b610324600480360381019061031f919061298a565b610b1c565b604051610331919061288c565b60405180910390f35b610342610b57565b60405161034f919061288c565b60405180910390f35b610360610b5d565b60405161036d919061288c565b60405180910390f35b610390600480360381019061038b9190612a8b565b610b63565b60405161039d9190612a70565b60405180910390f35b6103ae610dad565b6040516103bb9190612afa565b60405180910390f35b6103de60048036038101906103d99190612b41565b610dd1565b005b6103e8610f8e565b6040516103f59190612b87565b60405180910390f35b610406610feb565b6040516104139190612c01565b60405180910390f35b61042461100f565b604051610431919061288c565b60405180910390f35b610454600480360381019061044f9190612c1c565b61104d565b604051610461919061288c565b60405180910390f35b610472611077565b60405161047f9190612c58565b60405180910390f35b6104a2600480360381019061049d919061298a565b6110a1565b6040516104af919061288c565b60405180910390f35b6104d260048036038101906104cd9190612c73565b6110b3565b6040516104df919061288c565b60405180910390f35b61050260048036038101906104fd9190612c1c565b6111d0565b60405161050f919061288c565b60405180910390f35b6105206111e8565b005b61053c6004803603810190610537919061298a565b61131e565b005b61055860048036038101906105539190612c1c565b611436565b604051610565919061288c565b60405180910390f35b61057661144e565b604051610583919061288c565b60405180910390f35b6105a660048036038101906105a19190612c73565b611454565b6040516105b3919061288c565b60405180910390f35b6105c461152f565b6040516105d19190612937565b60405180910390f35b6105f460048036038101906105ef9190612a15565b6115bd565b6040516106019190612a70565b60405180910390f35b610624600480360381019061061f919061298a565b6116d1565b005b610640600480360381019061063b919061298a565b611816565b60405161064d919061288c565b60405180910390f35b610670600480360381019061066b9190612cb3565b611851565b60405161067d919061288c565b60405180910390f35b6106a0600480360381019061069b9190612cb3565b611aac565b6040516106ad919061288c565b60405180910390f35b6106be611d4a565b6040516106cb919061288c565b60405180910390f35b6106ee60048036038101906106e9919061298a565b611d50565b005b6106f8611e68565b6040516107059190612c01565b60405180910390f35b61072860048036038101906107239190612c1c565b611e8c565b604051610735919061288c565b60405180910390f35b6107586004803603810190610753919061298a565b611eb6565b604051610765919061288c565b60405180910390f35b61078860048036038101906107839190612c1c565b611ef1565b604051610795919061288c565b60405180910390f35b6107b860048036038101906107b39190612d5e565b611f42565b005b6107d460048036038101906107cf9190612c1c565b61223b565b6040516107e1919061288c565b60405180910390f35b61080460048036038101906107ff9190612e00565b612284565b604051610811919061288c565b60405180910390f35b6108226122a9565b60405161082f919061288c565b60405180910390f35b610852600480360381019061084d919061298a565b6122af565b60405161085f919061288c565b60405180910390f35b610882600480360381019061087d9190612c1c565b6122c1565b005b61088c612465565b6040516108999190612a70565b60405180910390f35b6108aa612478565b6040516108b7919061288c565b60405180910390f35b60007f000000000000000000000000000000000000000000000000000000000000000073ffffffffffffffffffffffffffffffffffffffff166370a08231306040518263ffffffff1660e01b815260040161091b9190612c58565b602060405180830381865afa158015610938573d6000803e3d6000fd5b505050506040513d601f19601f8201168201806040525081019061095c9190612e55565b905090565b6000805461096e90612eb1565b80601f016020809104026020016040519081016040528092919081815260200182805461099a90612eb1565b80156109e75780601f106109bc576101008083540402835291602001916109e7565b820191906000526020600020905b8154815290600101906020018083116109ca57829003601f168201915b505050505081565b600080600254905060008114610a2057610a1b610a0a6108c0565b828561247e9092919063ffffffff16565b610a22565b825b915050919050565b600081600460003373ffffffffffffffffffffffffffffffffffffffff1673ffffffffffffffffffffffffffffffffffffffff16815260200190815260200160002060008573ffffffffffffffffffffffffffffffffffffffff1673ffffffffffffffffffffffffffffffffffffffff168152602001908152602001600020819055508273ffffffffffffffffffffffffffffffffffffffff163373ffffffffffffffffffffffffffffffffffffffff167f8c5be1e5ebec7d5bd14f71427d1e84f3dd0314c0f7b2291e5b200ac8c7c3b92584604051610b0a919061288c565b60405180910390a36001905092915050565b600080600254905060008114610b4d57610b4881610b386108c0565b856124a69092919063ffffffff16565b610b4f565b825b915050919050565b60025481565b600a5481565b600080600460008673ffffffffffffffffffffffffffffffffffffffff1673ffffffffffffffffffffffffffffffffffffffff16815260200190815260200160002060003373ffffffffffffffffffffffffffffffffffffffff1673ffffffffffffffffffffffffffffffffffffffff1681526020019081526020016000205490507fffffffffffffffffffffffffffffffffffffffffffffffffffffffffffffffff8114610c99578281610c189190612f11565b600460008773ffffffffffffffffffffffffffffffffffffffff1673ffffffffffffffffffffffffffffffffffffffff16815260200190815260200160002060003373ffffffffffffffffffffffffffffffffffffffff1673ffffffffffffffffffffffffffffffffffffffff168152602001908152602001600020819055505b82600360008773ffffffffffffffffffffffffffffffffffffffff1673ffffffffffffffffffffffffffffffffffffffff1681526020019081526020016000206000828254610ce89190612f11565b9250508190555082600360008673ffffffffffffffffffffffffffffffffffffffff1673ffffffffffffffffffffffffffffffffffffffff168152602001908152602001600020600082825401925050819055508373ffffffffffffffffffffffffffffffffffffffff168573ffffffffffffffffffffffffffffffffffffffff167fddf252ad1be2c89b69c2b068fc378daa952ba7f163c4a11628f55a4df523b3ef85604051610d99919061288c565b60405180910390a360019150509392505050565b7f000000000000000000000000000000000000000000000000000000000000000081565b3373ffffffffffffffffffffffffffffffffffffffff16610df0611077565b73ffffffffffffffffffffffffffffffffffffffff1614610e46576040517f08c379a0000000000000000000000000000000000000000000000000000000008152600401610e3d90612fb7565b60405180910390fd5b801580610ee4575060127f000000000000000000000000000000000000000000000000000000000000000073ffffffffffffffffffffffffffffffffffffffff1663313ce5676040518163ffffffff1660e01b8152600401602060405180830381865afa158015610ebb573d6000803e3d6000fd5b505050506040513d601f19601f82011682018060405250810190610edf9190612fec565b60ff16145b610f23576040517f08c379a0000000000000000000000000000000000000000000000000000000008152600401610f1a90613065565b60405180910390fd5b80600b60006101000a81548160ff0219169083151502179055503373ffffffffffffffffffffffffffffffffffffffff167f6375b140d4463d47b864f1f47e5d2893cc3478e73aedcc268b054fab0230a84182604051610f839190612a70565b60405180910390a250565b60007f00000000000000000000000000000000000000000000000000000000000000004614610fc457610fbf6124d8565b610fe6565b7f00000000000000000000000000000000000000000000000000000000000000005b905090565b7f000000000000000000000000000000000000000000000000000000000000000081565b600080600254905060008103611048577f000000000000000000000000000000000000000000000000000000000000000091505061104a565b505b90565b60007fffffffffffffffffffffffffffffffffffffffffffffffffffffffffffffffff9050919050565b6000600660009054906101000a900473ffffffffffffffffffffffffffffffffffffffff16905090565b60006110ac826109ef565b9050919050565b6000806110bf846122af565b91508103611102576040517f08c379a00000000000000000000000000000000000000000000000000000000081526004016110f9906130d1565b60405180910390fd5b61114f3330857f000000000000000000000000000000000000000000000000000000000000000073ffffffffffffffffffffffffffffffffffffffff16612564909392919063ffffffff16565b6111598282612603565b8173ffffffffffffffffffffffffffffffffffffffff163373ffffffffffffffffffffffffffffffffffffffff167fdcbc1c05240f31ff3ad067ef1ee35ce4997762752e3a095284754544f4c709d785846040516111b89291906130f1565b60405180910390a36111ca83826126d3565b92915050565b60036020528060005260406000206000915090505481565b3373ffffffffffffffffffffffffffffffffffffffff16611207611077565b73ffffffffffffffffffffffffffffffffffffffff161461125d576040517f08c379a000000000000000000000000000000000000000000000000000000000815260040161125490612fb7565b60405180910390fd5b600073ffffffffffffffffffffffffffffffffffffffff16600660009054906101000a900473ffffffffffffffffffffffffffffffffffffffff1673ffffffffffffffffffffffffffffffffffffffff167f8be0079c531659141344cd1fd0a4f28419497f9722a3daafe3b4186f6b6457e060405160405180910390a36000600660006101000a81548173ffffffffffffffffffffffffffffffffffffffff021916908373ffffffffffffffffffffffffffffffffffffffff160217905550565b3373ffffffffffffffffffffffffffffffffffffffff1661133d611077565b73ffffffffffffffffffffffffffffffffffffffff1614611393576040517f08c379a000000000000000000000000000000000000000000000000000000000815260040161138a90612fb7565b60405180910390fd5b670de0b6b3a76400008111156113de576040517f08c379a00000000000000000000000000000000000000000000000000000000081526004016113d590613166565b60405180910390fd5b806009819055503373ffffffffffffffffffffffffffffffffffffffff167fec370615cc81fb334e5566fbc80664d9082377bf59288d64a79f3fbecf4323a98260405161142b919061288c565b60405180910390a250565b60056020528060005260406000206000915090505481565b60095481565b600061145f83611816565b90506114ae3330837f000000000000000000000000000000000000000000000000000000000000000073ffffffffffffffffffffffffffffffffffffffff16612564909392919063ffffffff16565b6114b88284612603565b8173ffffffffffffffffffffffffffffffffffffffff163373ffffffffffffffffffffffffffffffffffffffff167fdcbc1c05240f31ff3ad067ef1ee35ce4997762752e3a095284754544f4c709d783866040516115179291906130f1565b60405180910390a361152981846126d3565b92915050565b6001805461153c90612eb1565b80601f016020809104026020016040519081016040528092919081815260200182805461156890612eb1565b80156115b55780601f1061158a576101008083540402835291602001916115b5565b820191906000526020600020905b81548152906001019060200180831161159857829003601f168201915b505050505081565b600081600360003373ffffffffffffffffffffffffffffffffffffffff1673ffffffffffffffffffffffffffffffffffffffff168152602001908152602001600020600082825461160e9190612f11565b9250508190555081600360008573ffffffffffffffffffffffffffffffffffffffff1673ffffffffffffffffffffffffffffffffffffffff168152602001908152602001600020600082825401925050819055508273ffffffffffffffffffffffffffffffffffffffff163373ffffffffffffffffffffffffffffffffffffffff167fddf252ad1be2c89b69c2b068fc378daa952ba7f163c4a11628f55a4df523b3ef846040516116bf919061288c565b60405180910390a36001905092915050565b3373ffffffffffffffffffffffffffffffffffffffff166116f0611077565b73ffffffffffffffffffffffffffffffffffffffff1614611746576040517f08c379a000000000000000000000000000000000000000000000000000000000815260040161173d90612fb7565b60405180910390fd5b3373ffffffffffffffffffffffffffffffffffffffff167f9493e5bbe4e8e0ac67284469a2d677403d0378a85a59e341d3abc433d0d9a2098260405161178c919061288c565b60405180910390a23073ffffffffffffffffffffffffffffffffffffffff1663a9059cbb33836040518363ffffffff1660e01b81526004016117cf929190613186565b6020604051808303816000875af11580156117ee573d6000803e3d6000fd5b505050506040513d601f19601f8201168201806040525081019061181291906131c4565b5050565b600080600254905060008114611847576118426118316108c0565b82856124a69092919063ffffffff16565b611849565b825b915050919050565b600061185c84610b1c565b90508173ffffffffffffffffffffffffffffffffffffffff163373ffffffffffffffffffffffffffffffffffffffff16146119c8576000600460008473ffffffffffffffffffffffffffffffffffffffff1673ffffffffffffffffffffffffffffffffffffffff16815260200190815260200160002060003373ffffffffffffffffffffffffffffffffffffffff1673ffffffffffffffffffffffffffffffffffffffff1681526020019081526020016000205490507fffffffffffffffffffffffffffffffffffffffffffffffffffffffffffffffff81146119c65781816119459190612f11565b600460008573ffffffffffffffffffffffffffffffffffffffff1673ffffffffffffffffffffffffffffffffffffffff16815260200190815260200160002060003373ffffffffffffffffffffffffffffffffffffffff1673ffffffffffffffffffffffffffffffffffffffff168152602001908152602001600020819055505b505b6119d284826126ef565b6119dc828261270b565b8173ffffffffffffffffffffffffffffffffffffffff168373ffffffffffffffffffffffffffffffffffffffff163373ffffffffffffffffffffffffffffffffffffffff167ffbde797d201c681b91056529119e0b02407c7bb96a4a2c75c01fc9667232c8db8785604051611a529291906130f1565b60405180910390a4611aa583857f000000000000000000000000000000000000000000000000000000000000000073ffffffffffffffffffffffffffffffffffffffff166127db9092919063ffffffff16565b9392505050565b60008173ffffffffffffffffffffffffffffffffffffffff163373ffffffffffffffffffffffffffffffffffffffff1614611c18576000600460008473ffffffffffffffffffffffffffffffffffffffff1673ffffffffffffffffffffffffffffffffffffffff16815260200190815260200160002060003373ffffffffffffffffffffffffffffffffffffffff1673ffffffffffffffffffffffffffffffffffffffff1681526020019081526020016000205490507fffffffffffffffffffffffffffffffffffffffffffffffffffffffffffffffff8114611c16578481611b959190612f11565b600460008573ffffffffffffffffffffffffffffffffffffffff1673ffffffffffffffffffffffffffffffffffffffff16815260200190815260200160002060003373ffffffffffffffffffffffffffffffffffffffff1673ffffffffffffffffffffffffffffffffffffffff168152602001908152602001600020819055505b505b6000611c23856110a1565b91508103611c66576040517f08c379a0000000000000000000000000000000000000000000000000000000008152600401611c5d9061323d565b60405180910390fd5b611c7081856126ef565b611c7a828561270b565b8173ffffffffffffffffffffffffffffffffffffffff168373ffffffffffffffffffffffffffffffffffffffff163373ffffffffffffffffffffffffffffffffffffffff167ffbde797d201c681b91056529119e0b02407c7bb96a4a2c75c01fc9667232c8db8488604051611cf09291906130f1565b60405180910390a4611d4383827f000000000000000000000000000000000000000000000000000000000000000073ffffffffffffffffffffffffffffffffffffffff166127db9092919063ffffffff16565b9392505050565b60075481565b3373ffffffffffffffffffffffffffffffffffffffff16611d6f611077565b73ffffffffffffffffffffffffffffffffffffffff1614611dc5576040517f08c379a0000000000000000000000000000000000000000000000000000000008152600401611dbc90612fb7565b60405180910390fd5b670de0b6b3a7640000811115611e10576040517f08c379a0000000000000000000000000000000000000000000000000000000008152600401611e07906132a9565b60405180910390fd5b80600a819055503373ffffffffffffffffffffffffffffffffffffffff167f95bc4480b51f4860106d42850bcae222cf3303fb2b7d433e896205e0ebefe36982604051611e5d919061288c565b60405180910390a250565b7f000000000000000000000000000000000000000000000000000000000000000081565b60007fffffffffffffffffffffffffffffffffffffffffffffffffffffffffffffffff9050919050565b600080600254905060008114611ee757611ee281611ed26108c0565b8561247e9092919063ffffffff16565b611ee9565b825b915050919050565b6000611f3b600360008473ffffffffffffffffffffffffffffffffffffffff1673ffffffffffffffffffffffffffffffffffffffff168152602001908152602001600020546109ef565b9050919050565b42841015611f85576040517f08c379a0000000000000000000000000000000000000000000000000000000008152600401611f7c90613315565b60405180910390fd5b60006001611f91610f8e565b7f6e71edae12b1b97f4d1f60370fef10105fa2faae0126114a169c64845d6126c98a8a8a600560008f73ffffffffffffffffffffffffffffffffffffffff1673ffffffffffffffffffffffffffffffffffffffff1681526020019081526020016000206000815480929190600101919050558b60405160200161201996959493929190613335565b6040516020818303038152906040528051906020012060405160200161204092919061340e565b60405160208183030381529060405280519060200120858585604051600081526020016040526040516120769493929190613445565b6020604051602081039080840390855afa158015612098573d6000803e3d6000fd5b505050602060405103519050600073ffffffffffffffffffffffffffffffffffffffff168173ffffffffffffffffffffffffffffffffffffffff161415801561210c57508773ffffffffffffffffffffffffffffffffffffffff168173ffffffffffffffffffffffffffffffffffffffff16145b61214b576040517f08c379a0000000000000000000000000000000000000000000000000000000008152600401612142906134d6565b60405180910390fd5b85600460008373ffffffffffffffffffffffffffffffffffffffff1673ffffffffffffffffffffffffffffffffffffffff16815260200190815260200160002060008973ffffffffffffffffffffffffffffffffffffffff1673ffffffffffffffffffffffffffffffffffffffff16815260200190815260200160002081905550508573ffffffffffffffffffffffffffffffffffffffff168773ffffffffffffffffffffffffffffffffffffffff167f8c5be1e5ebec7d5bd14f71427d1e84f3dd0314c0f7b2291e5b200ac8c7c3b9258760405161222a919061288c565b60405180910390a350505050505050565b6000600360008373ffffffffffffffffffffffffffffffffffffffff1673ffffffffffffffffffffffffffffffffffffffff168152602001908152602001600020549050919050565b6004602052816000526040600020602052806000526040600020600091509150505481565b600c5481565b60006122ba82611eb6565b9050919050565b3373ffffffffffffffffffffffffffffffffffffffff166122e0611077565b73ffffffffffffffffffffffffffffffffffffffff1614612336576040517f08c379a000000000000000000000000000000000000000000000000000000000815260040161232d90612fb7565b60405180910390fd5b600073ffffffffffffffffffffffffffffffffffffffff168173ffffffffffffffffffffffffffffffffffffffff16036123a5576040517f08c379a000000000000000000000000000000000000000000000000000000000815260040161239c90613568565b60405180910390fd5b8073ffffffffffffffffffffffffffffffffffffffff16600660009054906101000a900473ffffffffffffffffffffffffffffffffffffffff1673ffffffffffffffffffffffffffffffffffffffff167f8be0079c531659141344cd1fd0a4f28419497f9722a3daafe3b4186f6b6457e060405160405180910390a380600660006101000a81548173ffffffffffffffffffffffffffffffffffffffff021916908373ffffffffffffffffffffffffffffffffffffffff16021790555050565b600b60009054906101000a900460ff1681565b60085481565b6000828402905082848204148415178215151661249a57600080fd5b81810490509392505050565b600082840290508284820414841517821515166124c257600080fd5b6001826001830304018115150290509392505050565b60007f8b73c3c69bb8fe3d512ecc4cf759cc79239f7b179b0ffacaa9a75d522b39400f600060405161250a919061362b565b60405180910390207fc89efdaa54c0f20c7adf612882df0950f5a951637e0307cdcb4c672f298b8bc64630604051602001612549959493929190613642565b60405160208183030381529060405280519060200120905090565b60006040517f23b872dd0000000000000000000000000000000000000000000000000000000081528460048201528360248201528260448201526020600060648360008a5af13d15601f3d11600160005114161716915050806125fc576040517f08c379a00000000000000000000000000000000000000000000000000000000081526004016125f3906136e1565b60405180910390fd5b5050505050565b80600260008282546126159190613701565b9250508190555080600360008473ffffffffffffffffffffffffffffffffffffffff1673ffffffffffffffffffffffffffffffffffffffff168152602001908152602001600020600082825401925050819055508173ffffffffffffffffffffffffffffffffffffffff16600073ffffffffffffffffffffffffffffffffffffffff167fddf252ad1be2c89b69c2b068fc378daa952ba7f163c4a11628f55a4df523b3ef836040516126c7919061288c565b60405180910390a35050565b600860008154809291906126e690613735565b91905055505050565b6007600081548092919061270290613735565b91905055505050565b80600360008473ffffffffffffffffffffffffffffffffffffffff1673ffffffffffffffffffffffffffffffffffffffff168152602001908152602001600020600082825461275a9190612f11565b9250508190555080600260008282540392505081905550600073ffffffffffffffffffffffffffffffffffffffff168273ffffffffffffffffffffffffffffffffffffffff167fddf252ad1be2c89b69c2b068fc378daa952ba7f163c4a11628f55a4df523b3ef836040516127cf919061288c565b60405180910390a35050565b60006040517fa9059cbb000000000000000000000000000000000000000000000000000000008152836004820152826024820152602060006044836000895af13d15601f3d116001600051141617169150508061286d576040517f08c379a0000000000000000000000000000000000000000000000000000000008152600401612864906137c9565b60405180910390fd5b50505050565b6000819050919050565b61288681612873565b82525050565b60006020820190506128a1600083018461287d565b92915050565b600081519050919050565b600082825260208201905092915050565b60005b838110156128e15780820151818401526020810190506128c6565b60008484015250505050565b6000601f19601f8301169050919050565b6000612909826128a7565b61291381856128b2565b93506129238185602086016128c3565b61292c816128ed565b840191505092915050565b6000602082019050818103600083015261295181846128fe565b905092915050565b600080fd5b61296781612873565b811461297257600080fd5b50565b6000813590506129848161295e565b92915050565b6000602082840312156129a05761299f612959565b5b60006129ae84828501612975565b91505092915050565b600073ffffffffffffffffffffffffffffffffffffffff82169050919050565b60006129e2826129b7565b9050919050565b6129f2816129d7565b81146129fd57600080fd5b50565b600081359050612a0f816129e9565b92915050565b60008060408385031215612a2c57612a2b612959565b5b6000612a3a85828601612a00565b9250506020612a4b85828601612975565b9150509250929050565b60008115159050919050565b612a6a81612a55565b82525050565b6000602082019050612a856000830184612a61565b92915050565b600080600060608486031215612aa457612aa3612959565b5b6000612ab286828701612a00565b9350506020612ac386828701612a00565b9250506040612ad486828701612975565b9150509250925092565b600060ff82169050919050565b612af481612ade565b82525050565b6000602082019050612b0f6000830184612aeb565b92915050565b612b1e81612a55565b8114612b2957600080fd5b50565b600081359050612b3b81612b15565b92915050565b600060208284031215612b5757612b56612959565b5b6000612b6584828501612b2c565b91505092915050565b6000819050919050565b612b8181612b6e565b82525050565b6000602082019050612b9c6000830184612b78565b92915050565b6000819050919050565b6000612bc7612bc2612bbd846129b7565b612ba2565b6129b7565b9050919050565b6000612bd982612bac565b9050919050565b6000612beb82612bce565b9050919050565b612bfb81612be0565b82525050565b6000602082019050612c166000830184612bf2565b92915050565b600060208284031215612c3257612c31612959565b5b6000612c4084828501612a00565b91505092915050565b612c52816129d7565b82525050565b6000602082019050612c6d6000830184612c49565b92915050565b60008060408385031215612c8a57612c89612959565b5b6000612c9885828601612975565b9250506020612ca985828601612a00565b9150509250929050565b600080600060608486031215612ccc57612ccb612959565b5b6000612cda86828701612975565b9350506020612ceb86828701612a00565b9250506040612cfc86828701612a00565b9150509250925092565b612d0f81612ade565b8114612d1a57600080fd5b50565b600081359050612d2c81612d06565b92915050565b612d3b81612b6e565b8114612d4657600080fd5b50565b600081359050612d5881612d32565b92915050565b600080600080600080600060e0888a031215612d7d57612d7c612959565b5b6000612d8b8a828b01612a00565b9750506020612d9c8a828b01612a00565b9650506040612dad8a828b01612975565b9550506060612dbe8a828b01612975565b9450506080612dcf8a828b01612d1d565b93505060a0612de08a828b01612d49565b92505060c0612df18a828b01612d49565b91505092959891949750929550565b60008060408385031215612e1757612e16612959565b5b6000612e2585828601612a00565b9250506020612e3685828601612a00565b9150509250929050565b600081519050612e4f8161295e565b92915050565b600060208284031215612e6b57612e6a612959565b5b6000612e7984828501612e40565b91505092915050565b7f4e487b7100000000000000000000000000000000000000000000000000000000600052602260045260246000fd5b60006002820490506001821680612ec957607f821691505b602082108103612edc57612edb612e82565b5b50919050565b7f4e487b7100000000000000000000000000000000000000000000000000000000600052601160045260246000fd5b6000612f1c82612873565b9150612f2783612873565b9250828203905081811115612f3f57612f3e612ee2565b5b92915050565b7f4f776e61626c653a2063616c6c6572206973206e6f7420746865206d616e616760008201527f6572000000000000000000000000000000000000000000000000000000000000602082015250565b6000612fa16022836128b2565b9150612fac82612f45565b604082019050919050565b60006020820190508181036000830152612fd081612f94565b9050919050565b600081519050612fe681612d06565b92915050565b60006020828403121561300257613001612959565b5b600061301084828501612fd7565b91505092915050565b7f57524f4e475f444543494d414c53000000000000000000000000000000000000600082015250565b600061304f600e836128b2565b915061305a82613019565b602082019050919050565b6000602082019050818103600083015261307e81613042565b9050919050565b7f5a45524f5f534841524553000000000000000000000000000000000000000000600082015250565b60006130bb600b836128b2565b91506130c682613085565b602082019050919050565b600060208201905081810360008301526130ea816130ae565b9050919050565b6000604082019050613106600083018561287d565b613113602083018461287d565b9392505050565b7f4645455f544f4f5f484947480000000000000000000000000000000000000000600082015250565b6000613150600c836128b2565b915061315b8261311a565b602082019050919050565b6000602082019050818103600083015261317f81613143565b9050919050565b600060408201905061319b6000830185612c49565b6131a8602083018461287d565b9392505050565b6000815190506131be81612b15565b92915050565b6000602082840312156131da576131d9612959565b5b60006131e8848285016131af565b91505092915050565b7f5a45524f5f415353455453000000000000000000000000000000000000000000600082015250565b6000613227600b836128b2565b9150613232826131f1565b602082019050919050565b600060208201905081810360008301526132568161321a565b9050919050565b7f5441524745545f544f4f5f484947480000000000000000000000000000000000600082015250565b6000613293600f836128b2565b915061329e8261325d565b602082019050919050565b600060208201905081810360008301526132c281613286565b9050919050565b7f5045524d49545f444541444c494e455f45585049524544000000000000000000600082015250565b60006132ff6017836128b2565b915061330a826132c9565b602082019050919050565b6000602082019050818103600083015261332e816132f2565b9050919050565b600060c08201905061334a6000830189612b78565b6133576020830188612c49565b6133646040830187612c49565b613371606083018661287d565b61337e608083018561287d565b61338b60a083018461287d565b979650505050505050565b600081905092915050565b7f1901000000000000000000000000000000000000000000000000000000000000600082015250565b60006133d7600283613396565b91506133e2826133a1565b600282019050919050565b6000819050919050565b61340861340382612b6e565b6133ed565b82525050565b6000613419826133ca565b915061342582856133f7565b60208201915061343582846133f7565b6020820191508190509392505050565b600060808201905061345a6000830187612b78565b6134676020830186612aeb565b6134746040830185612b78565b6134816060830184612b78565b95945050505050565b7f494e56414c49445f5349474e4552000000000000000000000000000000000000600082015250565b60006134c0600e836128b2565b91506134cb8261348a565b602082019050919050565b600060208201905081810360008301526134ef816134b3565b9050919050565b7f4f776e61626c653a206e6577206d616e6167657220697320746865207a65726f60008201527f2061646472657373000000000000000000000000000000000000000000000000602082015250565b60006135526028836128b2565b915061355d826134f6565b604082019050919050565b6000602082019050818103600083015261358181613545565b9050919050565b600081905092915050565b60008190508160005260206000209050919050565b600081546135b581612eb1565b6135bf8186613588565b945060018216600081146135da57600181146135ef57613622565b60ff1983168652811515820286019350613622565b6135f885613593565b60005b8381101561361a578154818901526001820191506020810190506135fb565b838801955050505b50505092915050565b600061363782846135a8565b915081905092915050565b600060a0820190506136576000830188612b78565b6136646020830187612b78565b6136716040830186612b78565b61367e606083018561287d565b61368b6080830184612c49565b9695505050505050565b7f5452414e534645525f46524f4d5f4641494c4544000000000000000000000000600082015250565b60006136cb6014836128b2565b91506136d682613695565b602082019050919050565b600060208201905081810360008301526136fa816136be565b9050919050565b600061370c82612873565b915061371783612873565b925082820190508082111561372f5761372e612ee2565b5b92915050565b600061374082612873565b91507fffffffffffffffffffffffffffffffffffffffffffffffffffffffffffffffff820361377257613771612ee2565b5b600182019050919050565b7f5452414e534645525f4641494c45440000000000000000000000000000000000600082015250565b60006137b3600f836128b2565b91506137be8261377d565b602082019050919050565b600060208201905081810360008301526137e2816137a6565b905091905056fea26469706673582212201f269816f08c1841d1019bb9c2be9c453d345fffb211e594e717cb8883b5949764736f6c63430008100033",
					"opcodes": "PUSH2 0x140 PUSH1 0x40 MSTORE PUSH1 0x0 PUSH1 0x7 SSTORE PUSH1 0x0 PUSH1 0x8 SSTORE CALLVALUE DUP1 ISZERO PUSH3 0x1C JUMPI PUSH1 0x0 DUP1 REVERT JUMPDEST POP PUSH1 0x40 MLOAD PUSH3 0x43DF CODESIZE SUB DUP1 PUSH3 0x43DF DUP4 CODECOPY DUP2 DUP2 ADD PUSH1 0x40 MSTORE DUP2 ADD SWAP1 PUSH3 0x42 SWAP2 SWAP1 PUSH3 0x42E JUMP JUMPDEST DUP4 DUP4 DUP4 DUP4 DUP3 DUP3 DUP3 DUP3 PUSH1 0x0 SWAP1 DUP2 PUSH3 0x5A SWAP2 SWAP1 PUSH3 0x729 JUMP JUMPDEST POP DUP2 PUSH1 0x1 SWAP1 DUP2 PUSH3 0x6C SWAP2 SWAP1 PUSH3 0x729 JUMP JUMPDEST POP DUP1 PUSH1 0xFF AND PUSH1 0x80 DUP2 PUSH1 0xFF AND DUP2 MSTORE POP POP CHAINID PUSH1 0xA0 DUP2 DUP2 MSTORE POP POP PUSH3 0x93 PUSH3 0x154 PUSH1 0x20 SHL PUSH1 0x20 SHR JUMP JUMPDEST PUSH1 0xC0 DUP2 DUP2 MSTORE POP POP POP POP POP DUP4 PUSH20 0xFFFFFFFFFFFFFFFFFFFFFFFFFFFFFFFFFFFFFFFF AND PUSH1 0xE0 DUP2 PUSH20 0xFFFFFFFFFFFFFFFFFFFFFFFFFFFFFFFFFFFFFFFF AND DUP2 MSTORE POP POP POP POP POP POP DUP4 PUSH20 0xFFFFFFFFFFFFFFFFFFFFFFFFFFFFFFFFFFFFFFFF AND PUSH2 0x120 DUP2 PUSH20 0xFFFFFFFFFFFFFFFFFFFFFFFFFFFFFFFFFFFFFFFF AND DUP2 MSTORE POP POP PUSH1 0x80 MLOAD PUSH1 0xA PUSH3 0x11B SWAP2 SWAP1 PUSH3 0x993 JUMP JUMPDEST PUSH2 0x100 DUP2 DUP2 MSTORE POP POP PUSH32 0xFFFFFFFFFFFFFFFFFFFFFFFFFFFFFFFFFFFFFFFFFFFFFFFFFFFFFFFFFFFFFFFF PUSH1 0x2 DUP2 SWAP1 SSTORE POP POP POP POP POP PUSH3 0xB46 JUMP JUMPDEST PUSH1 0x0 PUSH32 0x8B73C3C69BB8FE3D512ECC4CF759CC79239F7B179B0FFACAA9A75D522B39400F PUSH1 0x0 PUSH1 0x40 MLOAD PUSH3 0x188 SWAP2 SWAP1 PUSH3 0xA93 JUMP JUMPDEST PUSH1 0x40 MLOAD DUP1 SWAP2 SUB SWAP1 KECCAK256 PUSH32 0xC89EFDAA54C0F20C7ADF612882DF0950F5A951637E0307CDCB4C672F298B8BC6 CHAINID ADDRESS PUSH1 0x40 MLOAD PUSH1 0x20 ADD PUSH3 0x1C9 SWAP6 SWAP5 SWAP4 SWAP3 SWAP2 SWAP1 PUSH3 0xAE9 JUMP JUMPDEST PUSH1 0x40 MLOAD PUSH1 0x20 DUP2 DUP4 SUB SUB DUP2 MSTORE SWAP1 PUSH1 0x40 MSTORE DUP1 MLOAD SWAP1 PUSH1 0x20 ADD KECCAK256 SWAP1 POP SWAP1 JUMP JUMPDEST PUSH1 0x0 PUSH1 0x40 MLOAD SWAP1 POP SWAP1 JUMP JUMPDEST PUSH1 0x0 DUP1 REVERT JUMPDEST PUSH1 0x0 DUP1 REVERT JUMPDEST PUSH1 0x0 PUSH20 0xFFFFFFFFFFFFFFFFFFFFFFFFFFFFFFFFFFFFFFFF DUP3 AND SWAP1 POP SWAP2 SWAP1 POP JUMP JUMPDEST PUSH1 0x0 PUSH3 0x225 DUP3 PUSH3 0x1F8 JUMP JUMPDEST SWAP1 POP SWAP2 SWAP1 POP JUMP JUMPDEST PUSH1 0x0 PUSH3 0x239 DUP3 PUSH3 0x218 JUMP JUMPDEST SWAP1 POP SWAP2 SWAP1 POP JUMP JUMPDEST PUSH3 0x24B DUP2 PUSH3 0x22C JUMP JUMPDEST DUP2 EQ PUSH3 0x257 JUMPI PUSH1 0x0 DUP1 REVERT JUMPDEST POP JUMP JUMPDEST PUSH1 0x0 DUP2 MLOAD SWAP1 POP PUSH3 0x26B DUP2 PUSH3 0x240 JUMP JUMPDEST SWAP3 SWAP2 POP POP JUMP JUMPDEST PUSH1 0x0 DUP1 REVERT JUMPDEST PUSH1 0x0 DUP1 REVERT JUMPDEST PUSH1 0x0 PUSH1 0x1F NOT PUSH1 0x1F DUP4 ADD AND SWAP1 POP SWAP2 SWAP1 POP JUMP JUMPDEST PUSH32 0x4E487B7100000000000000000000000000000000000000000000000000000000 PUSH1 0x0 MSTORE PUSH1 0x41 PUSH1 0x4 MSTORE PUSH1 0x24 PUSH1 0x0 REVERT JUMPDEST PUSH3 0x2C6 DUP3 PUSH3 0x27B JUMP JUMPDEST DUP2 ADD DUP2 DUP2 LT PUSH8 0xFFFFFFFFFFFFFFFF DUP3 GT OR ISZERO PUSH3 0x2E8 JUMPI PUSH3 0x2E7 PUSH3 0x28C JUMP JUMPDEST JUMPDEST DUP1 PUSH1 0x40 MSTORE POP POP POP JUMP JUMPDEST PUSH1 0x0 PUSH3 0x2FD PUSH3 0x1E4 JUMP JUMPDEST SWAP1 POP PUSH3 0x30B DUP3 DUP3 PUSH3 0x2BB JUMP JUMPDEST SWAP2 SWAP1 POP JUMP JUMPDEST PUSH1 0x0 PUSH8 0xFFFFFFFFFFFFFFFF DUP3 GT ISZERO PUSH3 0x32E JUMPI PUSH3 0x32D PUSH3 0x28C JUMP JUMPDEST JUMPDEST PUSH3 0x339 DUP3 PUSH3 0x27B JUMP JUMPDEST SWAP1 POP PUSH1 0x20 DUP2 ADD SWAP1 POP SWAP2 SWAP1 POP JUMP JUMPDEST PUSH1 0x0 JUMPDEST DUP4 DUP2 LT ISZERO PUSH3 0x366 JUMPI DUP1 DUP3 ADD MLOAD DUP2 DUP5 ADD MSTORE PUSH1 0x20 DUP2 ADD SWAP1 POP PUSH3 0x349 JUMP JUMPDEST PUSH1 0x0 DUP5 DUP5 ADD MSTORE POP POP POP POP JUMP JUMPDEST PUSH1 0x0 PUSH3 0x389 PUSH3 0x383 DUP5 PUSH3 0x310 JUMP JUMPDEST PUSH3 0x2F1 JUMP JUMPDEST SWAP1 POP DUP3 DUP2 MSTORE PUSH1 0x20 DUP2 ADD DUP5 DUP5 DUP5 ADD GT ISZERO PUSH3 0x3A8 JUMPI PUSH3 0x3A7 PUSH3 0x276 JUMP JUMPDEST JUMPDEST PUSH3 0x3B5 DUP5 DUP3 DUP6 PUSH3 0x346 JUMP JUMPDEST POP SWAP4 SWAP3 POP POP POP JUMP JUMPDEST PUSH1 0x0 DUP3 PUSH1 0x1F DUP4 ADD SLT PUSH3 0x3D5 JUMPI PUSH3 0x3D4 PUSH3 0x271 JUMP JUMPDEST JUMPDEST DUP2 MLOAD PUSH3 0x3E7 DUP5 DUP3 PUSH1 0x20 DUP7 ADD PUSH3 0x372 JUMP JUMPDEST SWAP2 POP POP SWAP3 SWAP2 POP POP JUMP JUMPDEST PUSH1 0x0 PUSH1 0xFF DUP3 AND SWAP1 POP SWAP2 SWAP1 POP JUMP JUMPDEST PUSH3 0x408 DUP2 PUSH3 0x3F0 JUMP JUMPDEST DUP2 EQ PUSH3 0x414 JUMPI PUSH1 0x0 DUP1 REVERT JUMPDEST POP JUMP JUMPDEST PUSH1 0x0 DUP2 MLOAD SWAP1 POP PUSH3 0x428 DUP2 PUSH3 0x3FD JUMP JUMPDEST SWAP3 SWAP2 POP POP JUMP JUMPDEST PUSH1 0x0 DUP1 PUSH1 0x0 DUP1 PUSH1 0x80 DUP6 DUP8 SUB SLT ISZERO PUSH3 0x44B JUMPI PUSH3 0x44A PUSH3 0x1EE JUMP JUMPDEST JUMPDEST PUSH1 0x0 PUSH3 0x45B DUP8 DUP3 DUP9 ADD PUSH3 0x25A JUMP JUMPDEST SWAP5 POP POP PUSH1 0x20 DUP6 ADD MLOAD PUSH8 0xFFFFFFFFFFFFFFFF DUP2 GT ISZERO PUSH3 0x47F JUMPI PUSH3 0x47E PUSH3 0x1F3 JUMP JUMPDEST JUMPDEST PUSH3 0x48D DUP8 DUP3 DUP9 ADD PUSH3 0x3BD JUMP JUMPDEST SWAP4 POP POP PUSH1 0x40 DUP6 ADD MLOAD PUSH8 0xFFFFFFFFFFFFFFFF DUP2 GT ISZERO PUSH3 0x4B1 JUMPI PUSH3 0x4B0 PUSH3 0x1F3 JUMP JUMPDEST JUMPDEST PUSH3 0x4BF DUP8 DUP3 DUP9 ADD PUSH3 0x3BD JUMP JUMPDEST SWAP3 POP POP PUSH1 0x60 PUSH3 0x4D2 DUP8 DUP3 DUP9 ADD PUSH3 0x417 JUMP JUMPDEST SWAP2 POP POP SWAP3 SWAP6 SWAP2 SWAP5 POP SWAP3 POP JUMP JUMPDEST PUSH1 0x0 DUP2 MLOAD SWAP1 POP SWAP2 SWAP1 POP JUMP JUMPDEST PUSH32 0x4E487B7100000000000000000000000000000000000000000000000000000000 PUSH1 0x0 MSTORE PUSH1 0x22 PUSH1 0x4 MSTORE PUSH1 0x24 PUSH1 0x0 REVERT JUMPDEST PUSH1 0x0 PUSH1 0x2 DUP3 DIV SWAP1 POP PUSH1 0x1 DUP3 AND DUP1 PUSH3 0x531 JUMPI PUSH1 0x7F DUP3 AND SWAP2 POP JUMPDEST PUSH1 0x20 DUP3 LT DUP2 SUB PUSH3 0x547 JUMPI PUSH3 0x546 PUSH3 0x4E9 JUMP JUMPDEST JUMPDEST POP SWAP2 SWAP1 POP JUMP JUMPDEST PUSH1 0x0 DUP2 SWAP1 POP DUP2 PUSH1 0x0 MSTORE PUSH1 0x20 PUSH1 0x0 KECCAK256 SWAP1 POP SWAP2 SWAP1 POP JUMP JUMPDEST PUSH1 0x0 PUSH1 0x20 PUSH1 0x1F DUP4 ADD DIV SWAP1 POP SWAP2 SWAP1 POP JUMP JUMPDEST PUSH1 0x0 DUP3 DUP3 SHL SWAP1 POP SWAP3 SWAP2 POP POP JUMP JUMPDEST PUSH1 0x0 PUSH1 0x8 DUP4 MUL PUSH3 0x5B1 PUSH32 0xFFFFFFFFFFFFFFFFFFFFFFFFFFFFFFFFFFFFFFFFFFFFFFFFFFFFFFFFFFFFFFFF DUP3 PUSH3 0x572 JUMP JUMPDEST PUSH3 0x5BD DUP7 DUP4 PUSH3 0x572 JUMP JUMPDEST SWAP6 POP DUP1 NOT DUP5 AND SWAP4 POP DUP1 DUP7 AND DUP5 OR SWAP3 POP POP POP SWAP4 SWAP3 POP POP POP JUMP JUMPDEST PUSH1 0x0 DUP2 SWAP1 POP SWAP2 SWAP1 POP JUMP JUMPDEST PUSH1 0x0 DUP2 SWAP1 POP SWAP2 SWAP1 POP JUMP JUMPDEST PUSH1 0x0 PUSH3 0x60A PUSH3 0x604 PUSH3 0x5FE DUP5 PUSH3 0x5D5 JUMP JUMPDEST PUSH3 0x5DF JUMP JUMPDEST PUSH3 0x5D5 JUMP JUMPDEST SWAP1 POP SWAP2 SWAP1 POP JUMP JUMPDEST PUSH1 0x0 DUP2 SWAP1 POP SWAP2 SWAP1 POP JUMP JUMPDEST PUSH3 0x626 DUP4 PUSH3 0x5E9 JUMP JUMPDEST PUSH3 0x63E PUSH3 0x635 DUP3 PUSH3 0x611 JUMP JUMPDEST DUP5 DUP5 SLOAD PUSH3 0x57F JUMP JUMPDEST DUP3 SSTORE POP POP POP POP JUMP JUMPDEST PUSH1 0x0 SWAP1 JUMP JUMPDEST PUSH3 0x655 PUSH3 0x646 JUMP JUMPDEST PUSH3 0x662 DUP2 DUP5 DUP5 PUSH3 0x61B JUMP JUMPDEST POP POP POP JUMP JUMPDEST JUMPDEST DUP2 DUP2 LT ISZERO PUSH3 0x68A JUMPI PUSH3 0x67E PUSH1 0x0 DUP3 PUSH3 0x64B JUMP JUMPDEST PUSH1 0x1 DUP2 ADD SWAP1 POP PUSH3 0x668 JUMP JUMPDEST POP POP JUMP JUMPDEST PUSH1 0x1F DUP3 GT ISZERO PUSH3 0x6D9 JUMPI PUSH3 0x6A3 DUP2 PUSH3 0x54D JUMP JUMPDEST PUSH3 0x6AE DUP5 PUSH3 0x562 JUMP JUMPDEST DUP2 ADD PUSH1 0x20 DUP6 LT ISZERO PUSH3 0x6BE JUMPI DUP2 SWAP1 POP JUMPDEST PUSH3 0x6D6 PUSH3 0x6CD DUP6 PUSH3 0x562 JUMP JUMPDEST DUP4 ADD DUP3 PUSH3 0x667 JUMP JUMPDEST POP POP JUMPDEST POP POP POP JUMP JUMPDEST PUSH1 0x0 DUP3 DUP3 SHR SWAP1 POP SWAP3 SWAP2 POP POP JUMP JUMPDEST PUSH1 0x0 PUSH3 0x6FE PUSH1 0x0 NOT DUP5 PUSH1 0x8 MUL PUSH3 0x6DE JUMP JUMPDEST NOT DUP1 DUP4 AND SWAP2 POP POP SWAP3 SWAP2 POP POP JUMP JUMPDEST PUSH1 0x0 PUSH3 0x719 DUP4 DUP4 PUSH3 0x6EB JUMP JUMPDEST SWAP2 POP DUP3 PUSH1 0x2 MUL DUP3 OR SWAP1 POP SWAP3 SWAP2 POP POP JUMP JUMPDEST PUSH3 0x734 DUP3 PUSH3 0x4DE JUMP JUMPDEST PUSH8 0xFFFFFFFFFFFFFFFF DUP2 GT ISZERO PUSH3 0x750 JUMPI PUSH3 0x74F PUSH3 0x28C JUMP JUMPDEST JUMPDEST PUSH3 0x75C DUP3 SLOAD PUSH3 0x518 JUMP JUMPDEST PUSH3 0x769 DUP3 DUP3 DUP6 PUSH3 0x68E JUMP JUMPDEST PUSH1 0x0 PUSH1 0x20 SWAP1 POP PUSH1 0x1F DUP4 GT PUSH1 0x1 DUP2 EQ PUSH3 0x7A1 JUMPI PUSH1 0x0 DUP5 ISZERO PUSH3 0x78C JUMPI DUP3 DUP8 ADD MLOAD SWAP1 POP JUMPDEST PUSH3 0x798 DUP6 DUP3 PUSH3 0x70B JUMP JUMPDEST DUP7 SSTORE POP PUSH3 0x808 JUMP JUMPDEST PUSH1 0x1F NOT DUP5 AND PUSH3 0x7B1 DUP7 PUSH3 0x54D JUMP JUMPDEST PUSH1 0x0 JUMPDEST DUP3 DUP2 LT ISZERO PUSH3 0x7DB JUMPI DUP5 DUP10 ADD MLOAD DUP3 SSTORE PUSH1 0x1 DUP3 ADD SWAP2 POP PUSH1 0x20 DUP6 ADD SWAP5 POP PUSH1 0x20 DUP2 ADD SWAP1 POP PUSH3 0x7B4 JUMP JUMPDEST DUP7 DUP4 LT ISZERO PUSH3 0x7FB JUMPI DUP5 DUP10 ADD MLOAD PUSH3 0x7F7 PUSH1 0x1F DUP10 AND DUP3 PUSH3 0x6EB JUMP JUMPDEST DUP4 SSTORE POP JUMPDEST PUSH1 0x1 PUSH1 0x2 DUP9 MUL ADD DUP9 SSTORE POP POP POP JUMPDEST POP POP POP POP POP POP JUMP JUMPDEST PUSH32 0x4E487B7100000000000000000000000000000000000000000000000000000000 PUSH1 0x0 MSTORE PUSH1 0x11 PUSH1 0x4 MSTORE PUSH1 0x24 PUSH1 0x0 REVERT JUMPDEST PUSH1 0x0 DUP2 PUSH1 0x1 SHR SWAP1 POP SWAP2 SWAP1 POP JUMP JUMPDEST PUSH1 0x0 DUP1 DUP3 SWAP2 POP DUP4 SWAP1 POP JUMPDEST PUSH1 0x1 DUP6 GT ISZERO PUSH3 0x89E JUMPI DUP1 DUP7 DIV DUP2 GT ISZERO PUSH3 0x876 JUMPI PUSH3 0x875 PUSH3 0x810 JUMP JUMPDEST JUMPDEST PUSH1 0x1 DUP6 AND ISZERO PUSH3 0x886 JUMPI DUP1 DUP3 MUL SWAP2 POP JUMPDEST DUP1 DUP2 MUL SWAP1 POP PUSH3 0x896 DUP6 PUSH3 0x83F JUMP JUMPDEST SWAP5 POP PUSH3 0x856 JUMP JUMPDEST SWAP5 POP SWAP5 SWAP3 POP POP POP JUMP JUMPDEST PUSH1 0x0 DUP3 PUSH3 0x8B9 JUMPI PUSH1 0x1 SWAP1 POP PUSH3 0x98C JUMP JUMPDEST DUP2 PUSH3 0x8C9 JUMPI PUSH1 0x0 SWAP1 POP PUSH3 0x98C JUMP JUMPDEST DUP2 PUSH1 0x1 DUP2 EQ PUSH3 0x8E2 JUMPI PUSH1 0x2 DUP2 EQ PUSH3 0x8ED JUMPI PUSH3 0x923 JUMP JUMPDEST PUSH1 0x1 SWAP2 POP POP PUSH3 0x98C JUMP JUMPDEST PUSH1 0xFF DUP5 GT ISZERO PUSH3 0x902 JUMPI PUSH3 0x901 PUSH3 0x810 JUMP JUMPDEST JUMPDEST DUP4 PUSH1 0x2 EXP SWAP2 POP DUP5 DUP3 GT ISZERO PUSH3 0x91C JUMPI PUSH3 0x91B PUSH3 0x810 JUMP JUMPDEST JUMPDEST POP PUSH3 0x98C JUMP JUMPDEST POP PUSH1 0x20 DUP4 LT PUSH2 0x133 DUP4 LT AND PUSH1 0x4E DUP5 LT PUSH1 0xB DUP5 LT AND OR ISZERO PUSH3 0x95D JUMPI DUP3 DUP3 EXP SWAP1 POP DUP4 DUP2 GT ISZERO PUSH3 0x957 JUMPI PUSH3 0x956 PUSH3 0x810 JUMP JUMPDEST JUMPDEST PUSH3 0x98C JUMP JUMPDEST PUSH3 0x96C DUP5 DUP5 DUP5 PUSH1 0x1 PUSH3 0x84C JUMP JUMPDEST SWAP3 POP SWAP1 POP DUP2 DUP5 DIV DUP2 GT ISZERO PUSH3 0x986 JUMPI PUSH3 0x985 PUSH3 0x810 JUMP JUMPDEST JUMPDEST DUP2 DUP2 MUL SWAP1 POP JUMPDEST SWAP4 SWAP3 POP POP POP JUMP JUMPDEST PUSH1 0x0 PUSH3 0x9A0 DUP3 PUSH3 0x5D5 JUMP JUMPDEST SWAP2 POP PUSH3 0x9AD DUP4 PUSH3 0x3F0 JUMP JUMPDEST SWAP3 POP PUSH3 0x9DC PUSH32 0xFFFFFFFFFFFFFFFFFFFFFFFFFFFFFFFFFFFFFFFFFFFFFFFFFFFFFFFFFFFFFFFF DUP5 DUP5 PUSH3 0x8A7 JUMP JUMPDEST SWAP1 POP SWAP3 SWAP2 POP POP JUMP JUMPDEST PUSH1 0x0 DUP2 SWAP1 POP SWAP3 SWAP2 POP POP JUMP JUMPDEST PUSH1 0x0 DUP2 SWAP1 POP DUP2 PUSH1 0x0 MSTORE PUSH1 0x20 PUSH1 0x0 KECCAK256 SWAP1 POP SWAP2 SWAP1 POP JUMP JUMPDEST PUSH1 0x0 DUP2 SLOAD PUSH3 0xA13 DUP2 PUSH3 0x518 JUMP JUMPDEST PUSH3 0xA1F DUP2 DUP7 PUSH3 0x9E4 JUMP JUMPDEST SWAP5 POP PUSH1 0x1 DUP3 AND PUSH1 0x0 DUP2 EQ PUSH3 0xA3D JUMPI PUSH1 0x1 DUP2 EQ PUSH3 0xA53 JUMPI PUSH3 0xA8A JUMP JUMPDEST PUSH1 0xFF NOT DUP4 AND DUP7 MSTORE DUP2 ISZERO ISZERO DUP3 MUL DUP7 ADD SWAP4 POP PUSH3 0xA8A JUMP JUMPDEST PUSH3 0xA5E DUP6 PUSH3 0x9EF JUMP JUMPDEST PUSH1 0x0 JUMPDEST DUP4 DUP2 LT ISZERO PUSH3 0xA82 JUMPI DUP2 SLOAD DUP2 DUP10 ADD MSTORE PUSH1 0x1 DUP3 ADD SWAP2 POP PUSH1 0x20 DUP2 ADD SWAP1 POP PUSH3 0xA61 JUMP JUMPDEST DUP4 DUP9 ADD SWAP6 POP POP POP JUMPDEST POP POP POP SWAP3 SWAP2 POP POP JUMP JUMPDEST PUSH1 0x0 PUSH3 0xAA1 DUP3 DUP5 PUSH3 0xA04 JUMP JUMPDEST SWAP2 POP DUP2 SWAP1 POP SWAP3 SWAP2 POP POP JUMP JUMPDEST PUSH1 0x0 DUP2 SWAP1 POP SWAP2 SWAP1 POP JUMP JUMPDEST PUSH3 0xAC1 DUP2 PUSH3 0xAAC JUMP JUMPDEST DUP3 MSTORE POP POP JUMP JUMPDEST PUSH3 0xAD2 DUP2 PUSH3 0x5D5 JUMP JUMPDEST DUP3 MSTORE POP POP JUMP JUMPDEST PUSH3 0xAE3 DUP2 PUSH3 0x218 JUMP JUMPDEST DUP3 MSTORE POP POP JUMP JUMPDEST PUSH1 0x0 PUSH1 0xA0 DUP3 ADD SWAP1 POP PUSH3 0xB00 PUSH1 0x0 DUP4 ADD DUP9 PUSH3 0xAB6 JUMP JUMPDEST PUSH3 0xB0F PUSH1 0x20 DUP4 ADD DUP8 PUSH3 0xAB6 JUMP JUMPDEST PUSH3 0xB1E PUSH1 0x40 DUP4 ADD DUP7 PUSH3 0xAB6 JUMP JUMPDEST PUSH3 0xB2D PUSH1 0x60 DUP4 ADD DUP6 PUSH3 0xAC7 JUMP JUMPDEST PUSH3 0xB3C PUSH1 0x80 DUP4 ADD DUP5 PUSH3 0xAD8 JUMP JUMPDEST SWAP7 SWAP6 POP POP POP POP POP POP JUMP JUMPDEST PUSH1 0x80 MLOAD PUSH1 0xA0 MLOAD PUSH1 0xC0 MLOAD PUSH1 0xE0 MLOAD PUSH2 0x100 MLOAD PUSH2 0x120 MLOAD PUSH2 0x381F PUSH3 0xBC0 PUSH1 0x0 CODECOPY PUSH1 0x0 DUP2 DUP2 PUSH2 0xE52 ADD MSTORE PUSH2 0x1E6A ADD MSTORE PUSH1 0x0 PUSH2 0x1021 ADD MSTORE PUSH1 0x0 DUP2 DUP2 PUSH2 0x8C4 ADD MSTORE DUP2 DUP2 PUSH2 0xFED ADD MSTORE DUP2 DUP2 PUSH2 0x110A ADD MSTORE DUP2 DUP2 PUSH2 0x1469 ADD MSTORE DUP2 DUP2 PUSH2 0x1A61 ADD MSTORE PUSH2 0x1CFF ADD MSTORE PUSH1 0x0 PUSH2 0xFC6 ADD MSTORE PUSH1 0x0 PUSH2 0xF92 ADD MSTORE PUSH1 0x0 PUSH2 0xDAF ADD MSTORE PUSH2 0x381F PUSH1 0x0 RETURN INVALID PUSH1 0x80 PUSH1 0x40 MSTORE CALLVALUE DUP1 ISZERO PUSH2 0x10 JUMPI PUSH1 0x0 DUP1 REVERT JUMPDEST POP PUSH1 0x4 CALLDATASIZE LT PUSH2 0x269 JUMPI PUSH1 0x0 CALLDATALOAD PUSH1 0xE0 SHR DUP1 PUSH4 0x7FD6F15C GT PUSH2 0x151 JUMPI DUP1 PUSH4 0xC63D75B6 GT PUSH2 0xC3 JUMPI DUP1 PUSH4 0xDD62ED3E GT PUSH2 0x87 JUMPI DUP1 PUSH4 0xDD62ED3E EQ PUSH2 0x7EA JUMPI DUP1 PUSH4 0xECAD9565 EQ PUSH2 0x81A JUMPI DUP1 PUSH4 0xEF8B30F7 EQ PUSH2 0x838 JUMPI DUP1 PUSH4 0xF2FDE38B EQ PUSH2 0x868 JUMPI DUP1 PUSH4 0xF84D73F4 EQ PUSH2 0x884 JUMPI DUP1 PUSH4 0xFC407AE7 EQ PUSH2 0x8A2 JUMPI PUSH2 0x269 JUMP JUMPDEST DUP1 PUSH4 0xC63D75B6 EQ PUSH2 0x70E JUMPI DUP1 PUSH4 0xC6E6F592 EQ PUSH2 0x73E JUMPI DUP1 PUSH4 0xCE96CB77 EQ PUSH2 0x76E JUMPI DUP1 PUSH4 0xD505ACCF EQ PUSH2 0x79E JUMPI DUP1 PUSH4 0xD905777E EQ PUSH2 0x7BA JUMPI PUSH2 0x269 JUMP JUMPDEST DUP1 PUSH4 0xB3D7F6B9 GT PUSH2 0x115 JUMPI DUP1 PUSH4 0xB3D7F6B9 EQ PUSH2 0x626 JUMPI DUP1 PUSH4 0xB460AF94 EQ PUSH2 0x656 JUMPI DUP1 PUSH4 0xBA087652 EQ PUSH2 0x686 JUMPI DUP1 PUSH4 0xBC368A8A EQ PUSH2 0x6B6 JUMPI DUP1 PUSH4 0xBD662F88 EQ PUSH2 0x6D4 JUMPI DUP1 PUSH4 0xC5D664C6 EQ PUSH2 0x6F0 JUMPI PUSH2 0x269 JUMP JUMPDEST DUP1 PUSH4 0x7FD6F15C EQ PUSH2 0x56E JUMPI DUP1 PUSH4 0x94BF804D EQ PUSH2 0x58C JUMPI DUP1 PUSH4 0x95D89B41 EQ PUSH2 0x5BC JUMPI DUP1 PUSH4 0xA9059CBB EQ PUSH2 0x5DA JUMPI DUP1 PUSH4 0xAC68A748 EQ PUSH2 0x60A JUMPI PUSH2 0x269 JUMP JUMPDEST DUP1 PUSH4 0x3644E515 GT PUSH2 0x1EA JUMPI DUP1 PUSH4 0x4CDAD506 GT PUSH2 0x1AE JUMPI DUP1 PUSH4 0x4CDAD506 EQ PUSH2 0x488 JUMPI DUP1 PUSH4 0x6E553F65 EQ PUSH2 0x4B8 JUMPI DUP1 PUSH4 0x70A08231 EQ PUSH2 0x4E8 JUMPI DUP1 PUSH4 0x715018A6 EQ PUSH2 0x518 JUMPI DUP1 PUSH4 0x7CE3489B EQ PUSH2 0x522 JUMPI DUP1 PUSH4 0x7ECEBE00 EQ PUSH2 0x53E JUMPI PUSH2 0x269 JUMP JUMPDEST DUP1 PUSH4 0x3644E515 EQ PUSH2 0x3E0 JUMPI DUP1 PUSH4 0x38D52E0F EQ PUSH2 0x3FE JUMPI DUP1 PUSH4 0x3BA0B9A9 EQ PUSH2 0x41C JUMPI DUP1 PUSH4 0x402D267D EQ PUSH2 0x43A JUMPI DUP1 PUSH4 0x481C6A75 EQ PUSH2 0x46A JUMPI PUSH2 0x269 JUMP JUMPDEST DUP1 PUSH4 0x18160DDD GT PUSH2 0x231 JUMPI DUP1 PUSH4 0x18160DDD EQ PUSH2 0x33A JUMPI DUP1 PUSH4 0x1C693478 EQ PUSH2 0x358 JUMPI DUP1 PUSH4 0x23B872DD EQ PUSH2 0x376 JUMPI DUP1 PUSH4 0x313CE567 EQ PUSH2 0x3A6 JUMPI DUP1 PUSH4 0x32FF7732 EQ PUSH2 0x3C4 JUMPI PUSH2 0x269 JUMP JUMPDEST DUP1 PUSH4 0x1E1D114 EQ PUSH2 0x26E JUMPI DUP1 PUSH4 0x6FDDE03 EQ PUSH2 0x28C JUMPI DUP1 PUSH4 0x7A2D13A EQ PUSH2 0x2AA JUMPI DUP1 PUSH4 0x95EA7B3 EQ PUSH2 0x2DA JUMPI DUP1 PUSH4 0xA28A477 EQ PUSH2 0x30A JUMPI JUMPDEST PUSH1 0x0 DUP1 REVERT JUMPDEST PUSH2 0x276 PUSH2 0x8C0 JUMP JUMPDEST PUSH1 0x40 MLOAD PUSH2 0x283 SWAP2 SWAP1 PUSH2 0x288C JUMP JUMPDEST PUSH1 0x40 MLOAD DUP1 SWAP2 SUB SWAP1 RETURN JUMPDEST PUSH2 0x294 PUSH2 0x961 JUMP JUMPDEST PUSH1 0x40 MLOAD PUSH2 0x2A1 SWAP2 SWAP1 PUSH2 0x2937 JUMP JUMPDEST PUSH1 0x40 MLOAD DUP1 SWAP2 SUB SWAP1 RETURN JUMPDEST PUSH2 0x2C4 PUSH1 0x4 DUP1 CALLDATASIZE SUB DUP2 ADD SWAP1 PUSH2 0x2BF SWAP2 SWAP1 PUSH2 0x298A JUMP JUMPDEST PUSH2 0x9EF JUMP JUMPDEST PUSH1 0x40 MLOAD PUSH2 0x2D1 SWAP2 SWAP1 PUSH2 0x288C JUMP JUMPDEST PUSH1 0x40 MLOAD DUP1 SWAP2 SUB SWAP1 RETURN JUMPDEST PUSH2 0x2F4 PUSH1 0x4 DUP1 CALLDATASIZE SUB DUP2 ADD SWAP1 PUSH2 0x2EF SWAP2 SWAP1 PUSH2 0x2A15 JUMP JUMPDEST PUSH2 0xA2A JUMP JUMPDEST PUSH1 0x40 MLOAD PUSH2 0x301 SWAP2 SWAP1 PUSH2 0x2A70 JUMP JUMPDEST PUSH1 0x40 MLOAD DUP1 SWAP2 SUB SWAP1 RETURN JUMPDEST PUSH2 0x324 PUSH1 0x4 DUP1 CALLDATASIZE SUB DUP2 ADD SWAP1 PUSH2 0x31F SWAP2 SWAP1 PUSH2 0x298A JUMP JUMPDEST PUSH2 0xB1C JUMP JUMPDEST PUSH1 0x40 MLOAD PUSH2 0x331 SWAP2 SWAP1 PUSH2 0x288C JUMP JUMPDEST PUSH1 0x40 MLOAD DUP1 SWAP2 SUB SWAP1 RETURN JUMPDEST PUSH2 0x342 PUSH2 0xB57 JUMP JUMPDEST PUSH1 0x40 MLOAD PUSH2 0x34F SWAP2 SWAP1 PUSH2 0x288C JUMP JUMPDEST PUSH1 0x40 MLOAD DUP1 SWAP2 SUB SWAP1 RETURN JUMPDEST PUSH2 0x360 PUSH2 0xB5D JUMP JUMPDEST PUSH1 0x40 MLOAD PUSH2 0x36D SWAP2 SWAP1 PUSH2 0x288C JUMP JUMPDEST PUSH1 0x40 MLOAD DUP1 SWAP2 SUB SWAP1 RETURN JUMPDEST PUSH2 0x390 PUSH1 0x4 DUP1 CALLDATASIZE SUB DUP2 ADD SWAP1 PUSH2 0x38B SWAP2 SWAP1 PUSH2 0x2A8B JUMP JUMPDEST PUSH2 0xB63 JUMP JUMPDEST PUSH1 0x40 MLOAD PUSH2 0x39D SWAP2 SWAP1 PUSH2 0x2A70 JUMP JUMPDEST PUSH1 0x40 MLOAD DUP1 SWAP2 SUB SWAP1 RETURN JUMPDEST PUSH2 0x3AE PUSH2 0xDAD JUMP JUMPDEST PUSH1 0x40 MLOAD PUSH2 0x3BB SWAP2 SWAP1 PUSH2 0x2AFA JUMP JUMPDEST PUSH1 0x40 MLOAD DUP1 SWAP2 SUB SWAP1 RETURN JUMPDEST PUSH2 0x3DE PUSH1 0x4 DUP1 CALLDATASIZE SUB DUP2 ADD SWAP1 PUSH2 0x3D9 SWAP2 SWAP1 PUSH2 0x2B41 JUMP JUMPDEST PUSH2 0xDD1 JUMP JUMPDEST STOP JUMPDEST PUSH2 0x3E8 PUSH2 0xF8E JUMP JUMPDEST PUSH1 0x40 MLOAD PUSH2 0x3F5 SWAP2 SWAP1 PUSH2 0x2B87 JUMP JUMPDEST PUSH1 0x40 MLOAD DUP1 SWAP2 SUB SWAP1 RETURN JUMPDEST PUSH2 0x406 PUSH2 0xFEB JUMP JUMPDEST PUSH1 0x40 MLOAD PUSH2 0x413 SWAP2 SWAP1 PUSH2 0x2C01 JUMP JUMPDEST PUSH1 0x40 MLOAD DUP1 SWAP2 SUB SWAP1 RETURN JUMPDEST PUSH2 0x424 PUSH2 0x100F JUMP JUMPDEST PUSH1 0x40 MLOAD PUSH2 0x431 SWAP2 SWAP1 PUSH2 0x288C JUMP JUMPDEST PUSH1 0x40 MLOAD DUP1 SWAP2 SUB SWAP1 RETURN JUMPDEST PUSH2 0x454 PUSH1 0x4 DUP1 CALLDATASIZE SUB DUP2 ADD SWAP1 PUSH2 0x44F SWAP2 SWAP1 PUSH2 0x2C1C JUMP JUMPDEST PUSH2 0x104D JUMP JUMPDEST PUSH1 0x40 MLOAD PUSH2 0x461 SWAP2 SWAP1 PUSH2 0x288C JUMP JUMPDEST PUSH1 0x40 MLOAD DUP1 SWAP2 SUB SWAP1 RETURN JUMPDEST PUSH2 0x472 PUSH2 0x1077 JUMP JUMPDEST PUSH1 0x40 MLOAD PUSH2 0x47F SWAP2 SWAP1 PUSH2 0x2C58 JUMP JUMPDEST PUSH1 0x40 MLOAD DUP1 SWAP2 SUB SWAP1 RETURN JUMPDEST PUSH2 0x4A2 PUSH1 0x4 DUP1 CALLDATASIZE SUB DUP2 ADD SWAP1 PUSH2 0x49D SWAP2 SWAP1 PUSH2 0x298A JUMP JUMPDEST PUSH2 0x10A1 JUMP JUMPDEST PUSH1 0x40 MLOAD PUSH2 0x4AF SWAP2 SWAP1 PUSH2 0x288C JUMP JUMPDEST PUSH1 0x40 MLOAD DUP1 SWAP2 SUB SWAP1 RETURN JUMPDEST PUSH2 0x4D2 PUSH1 0x4 DUP1 CALLDATASIZE SUB DUP2 ADD SWAP1 PUSH2 0x4CD SWAP2 SWAP1 PUSH2 0x2C73 JUMP JUMPDEST PUSH2 0x10B3 JUMP JUMPDEST PUSH1 0x40 MLOAD PUSH2 0x4DF SWAP2 SWAP1 PUSH2 0x288C JUMP JUMPDEST PUSH1 0x40 MLOAD DUP1 SWAP2 SUB SWAP1 RETURN JUMPDEST PUSH2 0x502 PUSH1 0x4 DUP1 CALLDATASIZE SUB DUP2 ADD SWAP1 PUSH2 0x4FD SWAP2 SWAP1 PUSH2 0x2C1C JUMP JUMPDEST PUSH2 0x11D0 JUMP JUMPDEST PUSH1 0x40 MLOAD PUSH2 0x50F SWAP2 SWAP1 PUSH2 0x288C JUMP JUMPDEST PUSH1 0x40 MLOAD DUP1 SWAP2 SUB SWAP1 RETURN JUMPDEST PUSH2 0x520 PUSH2 0x11E8 JUMP JUMPDEST STOP JUMPDEST PUSH2 0x53C PUSH1 0x4 DUP1 CALLDATASIZE SUB DUP2 ADD SWAP1 PUSH2 0x537 SWAP2 SWAP1 PUSH2 0x298A JUMP JUMPDEST PUSH2 0x131E JUMP JUMPDEST STOP JUMPDEST PUSH2 0x558 PUSH1 0x4 DUP1 CALLDATASIZE SUB DUP2 ADD SWAP1 PUSH2 0x553 SWAP2 SWAP1 PUSH2 0x2C1C JUMP JUMPDEST PUSH2 0x1436 JUMP JUMPDEST PUSH1 0x40 MLOAD PUSH2 0x565 SWAP2 SWAP1 PUSH2 0x288C JUMP JUMPDEST PUSH1 0x40 MLOAD DUP1 SWAP2 SUB SWAP1 RETURN JUMPDEST PUSH2 0x576 PUSH2 0x144E JUMP JUMPDEST PUSH1 0x40 MLOAD PUSH2 0x583 SWAP2 SWAP1 PUSH2 0x288C JUMP JUMPDEST PUSH1 0x40 MLOAD DUP1 SWAP2 SUB SWAP1 RETURN JUMPDEST PUSH2 0x5A6 PUSH1 0x4 DUP1 CALLDATASIZE SUB DUP2 ADD SWAP1 PUSH2 0x5A1 SWAP2 SWAP1 PUSH2 0x2C73 JUMP JUMPDEST PUSH2 0x1454 JUMP JUMPDEST PUSH1 0x40 MLOAD PUSH2 0x5B3 SWAP2 SWAP1 PUSH2 0x288C JUMP JUMPDEST PUSH1 0x40 MLOAD DUP1 SWAP2 SUB SWAP1 RETURN JUMPDEST PUSH2 0x5C4 PUSH2 0x152F JUMP JUMPDEST PUSH1 0x40 MLOAD PUSH2 0x5D1 SWAP2 SWAP1 PUSH2 0x2937 JUMP JUMPDEST PUSH1 0x40 MLOAD DUP1 SWAP2 SUB SWAP1 RETURN JUMPDEST PUSH2 0x5F4 PUSH1 0x4 DUP1 CALLDATASIZE SUB DUP2 ADD SWAP1 PUSH2 0x5EF SWAP2 SWAP1 PUSH2 0x2A15 JUMP JUMPDEST PUSH2 0x15BD JUMP JUMPDEST PUSH1 0x40 MLOAD PUSH2 0x601 SWAP2 SWAP1 PUSH2 0x2A70 JUMP JUMPDEST PUSH1 0x40 MLOAD DUP1 SWAP2 SUB SWAP1 RETURN JUMPDEST PUSH2 0x624 PUSH1 0x4 DUP1 CALLDATASIZE SUB DUP2 ADD SWAP1 PUSH2 0x61F SWAP2 SWAP1 PUSH2 0x298A JUMP JUMPDEST PUSH2 0x16D1 JUMP JUMPDEST STOP JUMPDEST PUSH2 0x640 PUSH1 0x4 DUP1 CALLDATASIZE SUB DUP2 ADD SWAP1 PUSH2 0x63B SWAP2 SWAP1 PUSH2 0x298A JUMP JUMPDEST PUSH2 0x1816 JUMP JUMPDEST PUSH1 0x40 MLOAD PUSH2 0x64D SWAP2 SWAP1 PUSH2 0x288C JUMP JUMPDEST PUSH1 0x40 MLOAD DUP1 SWAP2 SUB SWAP1 RETURN JUMPDEST PUSH2 0x670 PUSH1 0x4 DUP1 CALLDATASIZE SUB DUP2 ADD SWAP1 PUSH2 0x66B SWAP2 SWAP1 PUSH2 0x2CB3 JUMP JUMPDEST PUSH2 0x1851 JUMP JUMPDEST PUSH1 0x40 MLOAD PUSH2 0x67D SWAP2 SWAP1 PUSH2 0x288C JUMP JUMPDEST PUSH1 0x40 MLOAD DUP1 SWAP2 SUB SWAP1 RETURN JUMPDEST PUSH2 0x6A0 PUSH1 0x4 DUP1 CALLDATASIZE SUB DUP2 ADD SWAP1 PUSH2 0x69B SWAP2 SWAP1 PUSH2 0x2CB3 JUMP JUMPDEST PUSH2 0x1AAC JUMP JUMPDEST PUSH1 0x40 MLOAD PUSH2 0x6AD SWAP2 SWAP1 PUSH2 0x288C JUMP JUMPDEST PUSH1 0x40 MLOAD DUP1 SWAP2 SUB SWAP1 RETURN JUMPDEST PUSH2 0x6BE PUSH2 0x1D4A JUMP JUMPDEST PUSH1 0x40 MLOAD PUSH2 0x6CB SWAP2 SWAP1 PUSH2 0x288C JUMP JUMPDEST PUSH1 0x40 MLOAD DUP1 SWAP2 SUB SWAP1 RETURN JUMPDEST PUSH2 0x6EE PUSH1 0x4 DUP1 CALLDATASIZE SUB DUP2 ADD SWAP1 PUSH2 0x6E9 SWAP2 SWAP1 PUSH2 0x298A JUMP JUMPDEST PUSH2 0x1D50 JUMP JUMPDEST STOP JUMPDEST PUSH2 0x6F8 PUSH2 0x1E68 JUMP JUMPDEST PUSH1 0x40 MLOAD PUSH2 0x705 SWAP2 SWAP1 PUSH2 0x2C01 JUMP JUMPDEST PUSH1 0x40 MLOAD DUP1 SWAP2 SUB SWAP1 RETURN JUMPDEST PUSH2 0x728 PUSH1 0x4 DUP1 CALLDATASIZE SUB DUP2 ADD SWAP1 PUSH2 0x723 SWAP2 SWAP1 PUSH2 0x2C1C JUMP JUMPDEST PUSH2 0x1E8C JUMP JUMPDEST PUSH1 0x40 MLOAD PUSH2 0x735 SWAP2 SWAP1 PUSH2 0x288C JUMP JUMPDEST PUSH1 0x40 MLOAD DUP1 SWAP2 SUB SWAP1 RETURN JUMPDEST PUSH2 0x758 PUSH1 0x4 DUP1 CALLDATASIZE SUB DUP2 ADD SWAP1 PUSH2 0x753 SWAP2 SWAP1 PUSH2 0x298A JUMP JUMPDEST PUSH2 0x1EB6 JUMP JUMPDEST PUSH1 0x40 MLOAD PUSH2 0x765 SWAP2 SWAP1 PUSH2 0x288C JUMP JUMPDEST PUSH1 0x40 MLOAD DUP1 SWAP2 SUB SWAP1 RETURN JUMPDEST PUSH2 0x788 PUSH1 0x4 DUP1 CALLDATASIZE SUB DUP2 ADD SWAP1 PUSH2 0x783 SWAP2 SWAP1 PUSH2 0x2C1C JUMP JUMPDEST PUSH2 0x1EF1 JUMP JUMPDEST PUSH1 0x40 MLOAD PUSH2 0x795 SWAP2 SWAP1 PUSH2 0x288C JUMP JUMPDEST PUSH1 0x40 MLOAD DUP1 SWAP2 SUB SWAP1 RETURN JUMPDEST PUSH2 0x7B8 PUSH1 0x4 DUP1 CALLDATASIZE SUB DUP2 ADD SWAP1 PUSH2 0x7B3 SWAP2 SWAP1 PUSH2 0x2D5E JUMP JUMPDEST PUSH2 0x1F42 JUMP JUMPDEST STOP JUMPDEST PUSH2 0x7D4 PUSH1 0x4 DUP1 CALLDATASIZE SUB DUP2 ADD SWAP1 PUSH2 0x7CF SWAP2 SWAP1 PUSH2 0x2C1C JUMP JUMPDEST PUSH2 0x223B JUMP JUMPDEST PUSH1 0x40 MLOAD PUSH2 0x7E1 SWAP2 SWAP1 PUSH2 0x288C JUMP JUMPDEST PUSH1 0x40 MLOAD DUP1 SWAP2 SUB SWAP1 RETURN JUMPDEST PUSH2 0x804 PUSH1 0x4 DUP1 CALLDATASIZE SUB DUP2 ADD SWAP1 PUSH2 0x7FF SWAP2 SWAP1 PUSH2 0x2E00 JUMP JUMPDEST PUSH2 0x2284 JUMP JUMPDEST PUSH1 0x40 MLOAD PUSH2 0x811 SWAP2 SWAP1 PUSH2 0x288C JUMP JUMPDEST PUSH1 0x40 MLOAD DUP1 SWAP2 SUB SWAP1 RETURN JUMPDEST PUSH2 0x822 PUSH2 0x22A9 JUMP JUMPDEST PUSH1 0x40 MLOAD PUSH2 0x82F SWAP2 SWAP1 PUSH2 0x288C JUMP JUMPDEST PUSH1 0x40 MLOAD DUP1 SWAP2 SUB SWAP1 RETURN JUMPDEST PUSH2 0x852 PUSH1 0x4 DUP1 CALLDATASIZE SUB DUP2 ADD SWAP1 PUSH2 0x84D SWAP2 SWAP1 PUSH2 0x298A JUMP JUMPDEST PUSH2 0x22AF JUMP JUMPDEST PUSH1 0x40 MLOAD PUSH2 0x85F SWAP2 SWAP1 PUSH2 0x288C JUMP JUMPDEST PUSH1 0x40 MLOAD DUP1 SWAP2 SUB SWAP1 RETURN JUMPDEST PUSH2 0x882 PUSH1 0x4 DUP1 CALLDATASIZE SUB DUP2 ADD SWAP1 PUSH2 0x87D SWAP2 SWAP1 PUSH2 0x2C1C JUMP JUMPDEST PUSH2 0x22C1 JUMP JUMPDEST STOP JUMPDEST PUSH2 0x88C PUSH2 0x2465 JUMP JUMPDEST PUSH1 0x40 MLOAD PUSH2 0x899 SWAP2 SWAP1 PUSH2 0x2A70 JUMP JUMPDEST PUSH1 0x40 MLOAD DUP1 SWAP2 SUB SWAP1 RETURN JUMPDEST PUSH2 0x8AA PUSH2 0x2478 JUMP JUMPDEST PUSH1 0x40 MLOAD PUSH2 0x8B7 SWAP2 SWAP1 PUSH2 0x288C JUMP JUMPDEST PUSH1 0x40 MLOAD DUP1 SWAP2 SUB SWAP1 RETURN JUMPDEST PUSH1 0x0 PUSH32 0x0 PUSH20 0xFFFFFFFFFFFFFFFFFFFFFFFFFFFFFFFFFFFFFFFF AND PUSH4 0x70A08231 ADDRESS PUSH1 0x40 MLOAD DUP3 PUSH4 0xFFFFFFFF AND PUSH1 0xE0 SHL DUP2 MSTORE PUSH1 0x4 ADD PUSH2 0x91B SWAP2 SWAP1 PUSH2 0x2C58 JUMP JUMPDEST PUSH1 0x20 PUSH1 0x40 MLOAD DUP1 DUP4 SUB DUP2 DUP7 GAS STATICCALL ISZERO DUP1 ISZERO PUSH2 0x938 JUMPI RETURNDATASIZE PUSH1 0x0 DUP1 RETURNDATACOPY RETURNDATASIZE PUSH1 0x0 REVERT JUMPDEST POP POP POP POP PUSH1 0x40 MLOAD RETURNDATASIZE PUSH1 0x1F NOT PUSH1 0x1F DUP3 ADD AND DUP3 ADD DUP1 PUSH1 0x40 MSTORE POP DUP2 ADD SWAP1 PUSH2 0x95C SWAP2 SWAP1 PUSH2 0x2E55 JUMP JUMPDEST SWAP1 POP SWAP1 JUMP JUMPDEST PUSH1 0x0 DUP1 SLOAD PUSH2 0x96E SWAP1 PUSH2 0x2EB1 JUMP JUMPDEST DUP1 PUSH1 0x1F ADD PUSH1 0x20 DUP1 SWAP2 DIV MUL PUSH1 0x20 ADD PUSH1 0x40 MLOAD SWAP1 DUP2 ADD PUSH1 0x40 MSTORE DUP1 SWAP3 SWAP2 SWAP1 DUP2 DUP2 MSTORE PUSH1 0x20 ADD DUP3 DUP1 SLOAD PUSH2 0x99A SWAP1 PUSH2 0x2EB1 JUMP JUMPDEST DUP1 ISZERO PUSH2 0x9E7 JUMPI DUP1 PUSH1 0x1F LT PUSH2 0x9BC JUMPI PUSH2 0x100 DUP1 DUP4 SLOAD DIV MUL DUP4 MSTORE SWAP2 PUSH1 0x20 ADD SWAP2 PUSH2 0x9E7 JUMP JUMPDEST DUP3 ADD SWAP2 SWAP1 PUSH1 0x0 MSTORE PUSH1 0x20 PUSH1 0x0 KECCAK256 SWAP1 JUMPDEST DUP2 SLOAD DUP2 MSTORE SWAP1 PUSH1 0x1 ADD SWAP1 PUSH1 0x20 ADD DUP1 DUP4 GT PUSH2 0x9CA JUMPI DUP3 SWAP1 SUB PUSH1 0x1F AND DUP3 ADD SWAP2 JUMPDEST POP POP POP POP POP DUP2 JUMP JUMPDEST PUSH1 0x0 DUP1 PUSH1 0x2 SLOAD SWAP1 POP PUSH1 0x0 DUP2 EQ PUSH2 0xA20 JUMPI PUSH2 0xA1B PUSH2 0xA0A PUSH2 0x8C0 JUMP JUMPDEST DUP3 DUP6 PUSH2 0x247E SWAP1 SWAP3 SWAP2 SWAP1 PUSH4 0xFFFFFFFF AND JUMP JUMPDEST PUSH2 0xA22 JUMP JUMPDEST DUP3 JUMPDEST SWAP2 POP POP SWAP2 SWAP1 POP JUMP JUMPDEST PUSH1 0x0 DUP2 PUSH1 0x4 PUSH1 0x0 CALLER PUSH20 0xFFFFFFFFFFFFFFFFFFFFFFFFFFFFFFFFFFFFFFFF AND PUSH20 0xFFFFFFFFFFFFFFFFFFFFFFFFFFFFFFFFFFFFFFFF AND DUP2 MSTORE PUSH1 0x20 ADD SWAP1 DUP2 MSTORE PUSH1 0x20 ADD PUSH1 0x0 KECCAK256 PUSH1 0x0 DUP6 PUSH20 0xFFFFFFFFFFFFFFFFFFFFFFFFFFFFFFFFFFFFFFFF AND PUSH20 0xFFFFFFFFFFFFFFFFFFFFFFFFFFFFFFFFFFFFFFFF AND DUP2 MSTORE PUSH1 0x20 ADD SWAP1 DUP2 MSTORE PUSH1 0x20 ADD PUSH1 0x0 KECCAK256 DUP2 SWAP1 SSTORE POP DUP3 PUSH20 0xFFFFFFFFFFFFFFFFFFFFFFFFFFFFFFFFFFFFFFFF AND CALLER PUSH20 0xFFFFFFFFFFFFFFFFFFFFFFFFFFFFFFFFFFFFFFFF AND PUSH32 0x8C5BE1E5EBEC7D5BD14F71427D1E84F3DD0314C0F7B2291E5B200AC8C7C3B925 DUP5 PUSH1 0x40 MLOAD PUSH2 0xB0A SWAP2 SWAP1 PUSH2 0x288C JUMP JUMPDEST PUSH1 0x40 MLOAD DUP1 SWAP2 SUB SWAP1 LOG3 PUSH1 0x1 SWAP1 POP SWAP3 SWAP2 POP POP JUMP JUMPDEST PUSH1 0x0 DUP1 PUSH1 0x2 SLOAD SWAP1 POP PUSH1 0x0 DUP2 EQ PUSH2 0xB4D JUMPI PUSH2 0xB48 DUP2 PUSH2 0xB38 PUSH2 0x8C0 JUMP JUMPDEST DUP6 PUSH2 0x24A6 SWAP1 SWAP3 SWAP2 SWAP1 PUSH4 0xFFFFFFFF AND JUMP JUMPDEST PUSH2 0xB4F JUMP JUMPDEST DUP3 JUMPDEST SWAP2 POP POP SWAP2 SWAP1 POP JUMP JUMPDEST PUSH1 0x2 SLOAD DUP2 JUMP JUMPDEST PUSH1 0xA SLOAD DUP2 JUMP JUMPDEST PUSH1 0x0 DUP1 PUSH1 0x4 PUSH1 0x0 DUP7 PUSH20 0xFFFFFFFFFFFFFFFFFFFFFFFFFFFFFFFFFFFFFFFF AND PUSH20 0xFFFFFFFFFFFFFFFFFFFFFFFFFFFFFFFFFFFFFFFF AND DUP2 MSTORE PUSH1 0x20 ADD SWAP1 DUP2 MSTORE PUSH1 0x20 ADD PUSH1 0x0 KECCAK256 PUSH1 0x0 CALLER PUSH20 0xFFFFFFFFFFFFFFFFFFFFFFFFFFFFFFFFFFFFFFFF AND PUSH20 0xFFFFFFFFFFFFFFFFFFFFFFFFFFFFFFFFFFFFFFFF AND DUP2 MSTORE PUSH1 0x20 ADD SWAP1 DUP2 MSTORE PUSH1 0x20 ADD PUSH1 0x0 KECCAK256 SLOAD SWAP1 POP PUSH32 0xFFFFFFFFFFFFFFFFFFFFFFFFFFFFFFFFFFFFFFFFFFFFFFFFFFFFFFFFFFFFFFFF DUP2 EQ PUSH2 0xC99 JUMPI DUP3 DUP2 PUSH2 0xC18 SWAP2 SWAP1 PUSH2 0x2F11 JUMP JUMPDEST PUSH1 0x4 PUSH1 0x0 DUP8 PUSH20 0xFFFFFFFFFFFFFFFFFFFFFFFFFFFFFFFFFFFFFFFF AND PUSH20 0xFFFFFFFFFFFFFFFFFFFFFFFFFFFFFFFFFFFFFFFF AND DUP2 MSTORE PUSH1 0x20 ADD SWAP1 DUP2 MSTORE PUSH1 0x20 ADD PUSH1 0x0 KECCAK256 PUSH1 0x0 CALLER PUSH20 0xFFFFFFFFFFFFFFFFFFFFFFFFFFFFFFFFFFFFFFFF AND PUSH20 0xFFFFFFFFFFFFFFFFFFFFFFFFFFFFFFFFFFFFFFFF AND DUP2 MSTORE PUSH1 0x20 ADD SWAP1 DUP2 MSTORE PUSH1 0x20 ADD PUSH1 0x0 KECCAK256 DUP2 SWAP1 SSTORE POP JUMPDEST DUP3 PUSH1 0x3 PUSH1 0x0 DUP8 PUSH20 0xFFFFFFFFFFFFFFFFFFFFFFFFFFFFFFFFFFFFFFFF AND PUSH20 0xFFFFFFFFFFFFFFFFFFFFFFFFFFFFFFFFFFFFFFFF AND DUP2 MSTORE PUSH1 0x20 ADD SWAP1 DUP2 MSTORE PUSH1 0x20 ADD PUSH1 0x0 KECCAK256 PUSH1 0x0 DUP3 DUP3 SLOAD PUSH2 0xCE8 SWAP2 SWAP1 PUSH2 0x2F11 JUMP JUMPDEST SWAP3 POP POP DUP2 SWAP1 SSTORE POP DUP3 PUSH1 0x3 PUSH1 0x0 DUP7 PUSH20 0xFFFFFFFFFFFFFFFFFFFFFFFFFFFFFFFFFFFFFFFF AND PUSH20 0xFFFFFFFFFFFFFFFFFFFFFFFFFFFFFFFFFFFFFFFF AND DUP2 MSTORE PUSH1 0x20 ADD SWAP1 DUP2 MSTORE PUSH1 0x20 ADD PUSH1 0x0 KECCAK256 PUSH1 0x0 DUP3 DUP3 SLOAD ADD SWAP3 POP POP DUP2 SWAP1 SSTORE POP DUP4 PUSH20 0xFFFFFFFFFFFFFFFFFFFFFFFFFFFFFFFFFFFFFFFF AND DUP6 PUSH20 0xFFFFFFFFFFFFFFFFFFFFFFFFFFFFFFFFFFFFFFFF AND PUSH32 0xDDF252AD1BE2C89B69C2B068FC378DAA952BA7F163C4A11628F55A4DF523B3EF DUP6 PUSH1 0x40 MLOAD PUSH2 0xD99 SWAP2 SWAP1 PUSH2 0x288C JUMP JUMPDEST PUSH1 0x40 MLOAD DUP1 SWAP2 SUB SWAP1 LOG3 PUSH1 0x1 SWAP2 POP POP SWAP4 SWAP3 POP POP POP JUMP JUMPDEST PUSH32 0x0 DUP2 JUMP JUMPDEST CALLER PUSH20 0xFFFFFFFFFFFFFFFFFFFFFFFFFFFFFFFFFFFFFFFF AND PUSH2 0xDF0 PUSH2 0x1077 JUMP JUMPDEST PUSH20 0xFFFFFFFFFFFFFFFFFFFFFFFFFFFFFFFFFFFFFFFF AND EQ PUSH2 0xE46 JUMPI PUSH1 0x40 MLOAD PUSH32 0x8C379A000000000000000000000000000000000000000000000000000000000 DUP2 MSTORE PUSH1 0x4 ADD PUSH2 0xE3D SWAP1 PUSH2 0x2FB7 JUMP JUMPDEST PUSH1 0x40 MLOAD DUP1 SWAP2 SUB SWAP1 REVERT JUMPDEST DUP1 ISZERO DUP1 PUSH2 0xEE4 JUMPI POP PUSH1 0x12 PUSH32 0x0 PUSH20 0xFFFFFFFFFFFFFFFFFFFFFFFFFFFFFFFFFFFFFFFF AND PUSH4 0x313CE567 PUSH1 0x40 MLOAD DUP2 PUSH4 0xFFFFFFFF AND PUSH1 0xE0 SHL DUP2 MSTORE PUSH1 0x4 ADD PUSH1 0x20 PUSH1 0x40 MLOAD DUP1 DUP4 SUB DUP2 DUP7 GAS STATICCALL ISZERO DUP1 ISZERO PUSH2 0xEBB JUMPI RETURNDATASIZE PUSH1 0x0 DUP1 RETURNDATACOPY RETURNDATASIZE PUSH1 0x0 REVERT JUMPDEST POP POP POP POP PUSH1 0x40 MLOAD RETURNDATASIZE PUSH1 0x1F NOT PUSH1 0x1F DUP3 ADD AND DUP3 ADD DUP1 PUSH1 0x40 MSTORE POP DUP2 ADD SWAP1 PUSH2 0xEDF SWAP2 SWAP1 PUSH2 0x2FEC JUMP JUMPDEST PUSH1 0xFF AND EQ JUMPDEST PUSH2 0xF23 JUMPI PUSH1 0x40 MLOAD PUSH32 0x8C379A000000000000000000000000000000000000000000000000000000000 DUP2 MSTORE PUSH1 0x4 ADD PUSH2 0xF1A SWAP1 PUSH2 0x3065 JUMP JUMPDEST PUSH1 0x40 MLOAD DUP1 SWAP2 SUB SWAP1 REVERT JUMPDEST DUP1 PUSH1 0xB PUSH1 0x0 PUSH2 0x100 EXP DUP2 SLOAD DUP2 PUSH1 0xFF MUL NOT AND SWAP1 DUP4 ISZERO ISZERO MUL OR SWAP1 SSTORE POP CALLER PUSH20 0xFFFFFFFFFFFFFFFFFFFFFFFFFFFFFFFFFFFFFFFF AND PUSH32 0x6375B140D4463D47B864F1F47E5D2893CC3478E73AEDCC268B054FAB0230A841 DUP3 PUSH1 0x40 MLOAD PUSH2 0xF83 SWAP2 SWAP1 PUSH2 0x2A70 JUMP JUMPDEST PUSH1 0x40 MLOAD DUP1 SWAP2 SUB SWAP1 LOG2 POP JUMP JUMPDEST PUSH1 0x0 PUSH32 0x0 CHAINID EQ PUSH2 0xFC4 JUMPI PUSH2 0xFBF PUSH2 0x24D8 JUMP JUMPDEST PUSH2 0xFE6 JUMP JUMPDEST PUSH32 0x0 JUMPDEST SWAP1 POP SWAP1 JUMP JUMPDEST PUSH32 0x0 DUP2 JUMP JUMPDEST PUSH1 0x0 DUP1 PUSH1 0x2 SLOAD SWAP1 POP PUSH1 0x0 DUP2 SUB PUSH2 0x1048 JUMPI PUSH32 0x0 SWAP2 POP POP PUSH2 0x104A JUMP JUMPDEST POP JUMPDEST SWAP1 JUMP JUMPDEST PUSH1 0x0 PUSH32 0xFFFFFFFFFFFFFFFFFFFFFFFFFFFFFFFFFFFFFFFFFFFFFFFFFFFFFFFFFFFFFFFF SWAP1 POP SWAP2 SWAP1 POP JUMP JUMPDEST PUSH1 0x0 PUSH1 0x6 PUSH1 0x0 SWAP1 SLOAD SWAP1 PUSH2 0x100 EXP SWAP1 DIV PUSH20 0xFFFFFFFFFFFFFFFFFFFFFFFFFFFFFFFFFFFFFFFF AND SWAP1 POP SWAP1 JUMP JUMPDEST PUSH1 0x0 PUSH2 0x10AC DUP3 PUSH2 0x9EF JUMP JUMPDEST SWAP1 POP SWAP2 SWAP1 POP JUMP JUMPDEST PUSH1 0x0 DUP1 PUSH2 0x10BF DUP5 PUSH2 0x22AF JUMP JUMPDEST SWAP2 POP DUP2 SUB PUSH2 0x1102 JUMPI PUSH1 0x40 MLOAD PUSH32 0x8C379A000000000000000000000000000000000000000000000000000000000 DUP2 MSTORE PUSH1 0x4 ADD PUSH2 0x10F9 SWAP1 PUSH2 0x30D1 JUMP JUMPDEST PUSH1 0x40 MLOAD DUP1 SWAP2 SUB SWAP1 REVERT JUMPDEST PUSH2 0x114F CALLER ADDRESS DUP6 PUSH32 0x0 PUSH20 0xFFFFFFFFFFFFFFFFFFFFFFFFFFFFFFFFFFFFFFFF AND PUSH2 0x2564 SWAP1 SWAP4 SWAP3 SWAP2 SWAP1 PUSH4 0xFFFFFFFF AND JUMP JUMPDEST PUSH2 0x1159 DUP3 DUP3 PUSH2 0x2603 JUMP JUMPDEST DUP2 PUSH20 0xFFFFFFFFFFFFFFFFFFFFFFFFFFFFFFFFFFFFFFFF AND CALLER PUSH20 0xFFFFFFFFFFFFFFFFFFFFFFFFFFFFFFFFFFFFFFFF AND PUSH32 0xDCBC1C05240F31FF3AD067EF1EE35CE4997762752E3A095284754544F4C709D7 DUP6 DUP5 PUSH1 0x40 MLOAD PUSH2 0x11B8 SWAP3 SWAP2 SWAP1 PUSH2 0x30F1 JUMP JUMPDEST PUSH1 0x40 MLOAD DUP1 SWAP2 SUB SWAP1 LOG3 PUSH2 0x11CA DUP4 DUP3 PUSH2 0x26D3 JUMP JUMPDEST SWAP3 SWAP2 POP POP JUMP JUMPDEST PUSH1 0x3 PUSH1 0x20 MSTORE DUP1 PUSH1 0x0 MSTORE PUSH1 0x40 PUSH1 0x0 KECCAK256 PUSH1 0x0 SWAP2 POP SWAP1 POP SLOAD DUP2 JUMP JUMPDEST CALLER PUSH20 0xFFFFFFFFFFFFFFFFFFFFFFFFFFFFFFFFFFFFFFFF AND PUSH2 0x1207 PUSH2 0x1077 JUMP JUMPDEST PUSH20 0xFFFFFFFFFFFFFFFFFFFFFFFFFFFFFFFFFFFFFFFF AND EQ PUSH2 0x125D JUMPI PUSH1 0x40 MLOAD PUSH32 0x8C379A000000000000000000000000000000000000000000000000000000000 DUP2 MSTORE PUSH1 0x4 ADD PUSH2 0x1254 SWAP1 PUSH2 0x2FB7 JUMP JUMPDEST PUSH1 0x40 MLOAD DUP1 SWAP2 SUB SWAP1 REVERT JUMPDEST PUSH1 0x0 PUSH20 0xFFFFFFFFFFFFFFFFFFFFFFFFFFFFFFFFFFFFFFFF AND PUSH1 0x6 PUSH1 0x0 SWAP1 SLOAD SWAP1 PUSH2 0x100 EXP SWAP1 DIV PUSH20 0xFFFFFFFFFFFFFFFFFFFFFFFFFFFFFFFFFFFFFFFF AND PUSH20 0xFFFFFFFFFFFFFFFFFFFFFFFFFFFFFFFFFFFFFFFF AND PUSH32 0x8BE0079C531659141344CD1FD0A4F28419497F9722A3DAAFE3B4186F6B6457E0 PUSH1 0x40 MLOAD PUSH1 0x40 MLOAD DUP1 SWAP2 SUB SWAP1 LOG3 PUSH1 0x0 PUSH1 0x6 PUSH1 0x0 PUSH2 0x100 EXP DUP2 SLOAD DUP2 PUSH20 0xFFFFFFFFFFFFFFFFFFFFFFFFFFFFFFFFFFFFFFFF MUL NOT AND SWAP1 DUP4 PUSH20 0xFFFFFFFFFFFFFFFFFFFFFFFFFFFFFFFFFFFFFFFF AND MUL OR SWAP1 SSTORE POP JUMP JUMPDEST CALLER PUSH20 0xFFFFFFFFFFFFFFFFFFFFFFFFFFFFFFFFFFFFFFFF AND PUSH2 0x133D PUSH2 0x1077 JUMP JUMPDEST PUSH20 0xFFFFFFFFFFFFFFFFFFFFFFFFFFFFFFFFFFFFFFFF AND EQ PUSH2 0x1393 JUMPI PUSH1 0x40 MLOAD PUSH32 0x8C379A000000000000000000000000000000000000000000000000000000000 DUP2 MSTORE PUSH1 0x4 ADD PUSH2 0x138A SWAP1 PUSH2 0x2FB7 JUMP JUMPDEST PUSH1 0x40 MLOAD DUP1 SWAP2 SUB SWAP1 REVERT JUMPDEST PUSH8 0xDE0B6B3A7640000 DUP2 GT ISZERO PUSH2 0x13DE JUMPI PUSH1 0x40 MLOAD PUSH32 0x8C379A000000000000000000000000000000000000000000000000000000000 DUP2 MSTORE PUSH1 0x4 ADD PUSH2 0x13D5 SWAP1 PUSH2 0x3166 JUMP JUMPDEST PUSH1 0x40 MLOAD DUP1 SWAP2 SUB SWAP1 REVERT JUMPDEST DUP1 PUSH1 0x9 DUP2 SWAP1 SSTORE POP CALLER PUSH20 0xFFFFFFFFFFFFFFFFFFFFFFFFFFFFFFFFFFFFFFFF AND PUSH32 0xEC370615CC81FB334E5566FBC80664D9082377BF59288D64A79F3FBECF4323A9 DUP3 PUSH1 0x40 MLOAD PUSH2 0x142B SWAP2 SWAP1 PUSH2 0x288C JUMP JUMPDEST PUSH1 0x40 MLOAD DUP1 SWAP2 SUB SWAP1 LOG2 POP JUMP JUMPDEST PUSH1 0x5 PUSH1 0x20 MSTORE DUP1 PUSH1 0x0 MSTORE PUSH1 0x40 PUSH1 0x0 KECCAK256 PUSH1 0x0 SWAP2 POP SWAP1 POP SLOAD DUP2 JUMP JUMPDEST PUSH1 0x9 SLOAD DUP2 JUMP JUMPDEST PUSH1 0x0 PUSH2 0x145F DUP4 PUSH2 0x1816 JUMP JUMPDEST SWAP1 POP PUSH2 0x14AE CALLER ADDRESS DUP4 PUSH32 0x0 PUSH20 0xFFFFFFFFFFFFFFFFFFFFFFFFFFFFFFFFFFFFFFFF AND PUSH2 0x2564 SWAP1 SWAP4 SWAP3 SWAP2 SWAP1 PUSH4 0xFFFFFFFF AND JUMP JUMPDEST PUSH2 0x14B8 DUP3 DUP5 PUSH2 0x2603 JUMP JUMPDEST DUP2 PUSH20 0xFFFFFFFFFFFFFFFFFFFFFFFFFFFFFFFFFFFFFFFF AND CALLER PUSH20 0xFFFFFFFFFFFFFFFFFFFFFFFFFFFFFFFFFFFFFFFF AND PUSH32 0xDCBC1C05240F31FF3AD067EF1EE35CE4997762752E3A095284754544F4C709D7 DUP4 DUP7 PUSH1 0x40 MLOAD PUSH2 0x1517 SWAP3 SWAP2 SWAP1 PUSH2 0x30F1 JUMP JUMPDEST PUSH1 0x40 MLOAD DUP1 SWAP2 SUB SWAP1 LOG3 PUSH2 0x1529 DUP2 DUP5 PUSH2 0x26D3 JUMP JUMPDEST SWAP3 SWAP2 POP POP JUMP JUMPDEST PUSH1 0x1 DUP1 SLOAD PUSH2 0x153C SWAP1 PUSH2 0x2EB1 JUMP JUMPDEST DUP1 PUSH1 0x1F ADD PUSH1 0x20 DUP1 SWAP2 DIV MUL PUSH1 0x20 ADD PUSH1 0x40 MLOAD SWAP1 DUP2 ADD PUSH1 0x40 MSTORE DUP1 SWAP3 SWAP2 SWAP1 DUP2 DUP2 MSTORE PUSH1 0x20 ADD DUP3 DUP1 SLOAD PUSH2 0x1568 SWAP1 PUSH2 0x2EB1 JUMP JUMPDEST DUP1 ISZERO PUSH2 0x15B5 JUMPI DUP1 PUSH1 0x1F LT PUSH2 0x158A JUMPI PUSH2 0x100 DUP1 DUP4 SLOAD DIV MUL DUP4 MSTORE SWAP2 PUSH1 0x20 ADD SWAP2 PUSH2 0x15B5 JUMP JUMPDEST DUP3 ADD SWAP2 SWAP1 PUSH1 0x0 MSTORE PUSH1 0x20 PUSH1 0x0 KECCAK256 SWAP1 JUMPDEST DUP2 SLOAD DUP2 MSTORE SWAP1 PUSH1 0x1 ADD SWAP1 PUSH1 0x20 ADD DUP1 DUP4 GT PUSH2 0x1598 JUMPI DUP3 SWAP1 SUB PUSH1 0x1F AND DUP3 ADD SWAP2 JUMPDEST POP POP POP POP POP DUP2 JUMP JUMPDEST PUSH1 0x0 DUP2 PUSH1 0x3 PUSH1 0x0 CALLER PUSH20 0xFFFFFFFFFFFFFFFFFFFFFFFFFFFFFFFFFFFFFFFF AND PUSH20 0xFFFFFFFFFFFFFFFFFFFFFFFFFFFFFFFFFFFFFFFF AND DUP2 MSTORE PUSH1 0x20 ADD SWAP1 DUP2 MSTORE PUSH1 0x20 ADD PUSH1 0x0 KECCAK256 PUSH1 0x0 DUP3 DUP3 SLOAD PUSH2 0x160E SWAP2 SWAP1 PUSH2 0x2F11 JUMP JUMPDEST SWAP3 POP POP DUP2 SWAP1 SSTORE POP DUP2 PUSH1 0x3 PUSH1 0x0 DUP6 PUSH20 0xFFFFFFFFFFFFFFFFFFFFFFFFFFFFFFFFFFFFFFFF AND PUSH20 0xFFFFFFFFFFFFFFFFFFFFFFFFFFFFFFFFFFFFFFFF AND DUP2 MSTORE PUSH1 0x20 ADD SWAP1 DUP2 MSTORE PUSH1 0x20 ADD PUSH1 0x0 KECCAK256 PUSH1 0x0 DUP3 DUP3 SLOAD ADD SWAP3 POP POP DUP2 SWAP1 SSTORE POP DUP3 PUSH20 0xFFFFFFFFFFFFFFFFFFFFFFFFFFFFFFFFFFFFFFFF AND CALLER PUSH20 0xFFFFFFFFFFFFFFFFFFFFFFFFFFFFFFFFFFFFFFFF AND PUSH32 0xDDF252AD1BE2C89B69C2B068FC378DAA952BA7F163C4A11628F55A4DF523B3EF DUP5 PUSH1 0x40 MLOAD PUSH2 0x16BF SWAP2 SWAP1 PUSH2 0x288C JUMP JUMPDEST PUSH1 0x40 MLOAD DUP1 SWAP2 SUB SWAP1 LOG3 PUSH1 0x1 SWAP1 POP SWAP3 SWAP2 POP POP JUMP JUMPDEST CALLER PUSH20 0xFFFFFFFFFFFFFFFFFFFFFFFFFFFFFFFFFFFFFFFF AND PUSH2 0x16F0 PUSH2 0x1077 JUMP JUMPDEST PUSH20 0xFFFFFFFFFFFFFFFFFFFFFFFFFFFFFFFFFFFFFFFF AND EQ PUSH2 0x1746 JUMPI PUSH1 0x40 MLOAD PUSH32 0x8C379A000000000000000000000000000000000000000000000000000000000 DUP2 MSTORE PUSH1 0x4 ADD PUSH2 0x173D SWAP1 PUSH2 0x2FB7 JUMP JUMPDEST PUSH1 0x40 MLOAD DUP1 SWAP2 SUB SWAP1 REVERT JUMPDEST CALLER PUSH20 0xFFFFFFFFFFFFFFFFFFFFFFFFFFFFFFFFFFFFFFFF AND PUSH32 0x9493E5BBE4E8E0AC67284469A2D677403D0378A85A59E341D3ABC433D0D9A209 DUP3 PUSH1 0x40 MLOAD PUSH2 0x178C SWAP2 SWAP1 PUSH2 0x288C JUMP JUMPDEST PUSH1 0x40 MLOAD DUP1 SWAP2 SUB SWAP1 LOG2 ADDRESS PUSH20 0xFFFFFFFFFFFFFFFFFFFFFFFFFFFFFFFFFFFFFFFF AND PUSH4 0xA9059CBB CALLER DUP4 PUSH1 0x40 MLOAD DUP4 PUSH4 0xFFFFFFFF AND PUSH1 0xE0 SHL DUP2 MSTORE PUSH1 0x4 ADD PUSH2 0x17CF SWAP3 SWAP2 SWAP1 PUSH2 0x3186 JUMP JUMPDEST PUSH1 0x20 PUSH1 0x40 MLOAD DUP1 DUP4 SUB DUP2 PUSH1 0x0 DUP8 GAS CALL ISZERO DUP1 ISZERO PUSH2 0x17EE JUMPI RETURNDATASIZE PUSH1 0x0 DUP1 RETURNDATACOPY RETURNDATASIZE PUSH1 0x0 REVERT JUMPDEST POP POP POP POP PUSH1 0x40 MLOAD RETURNDATASIZE PUSH1 0x1F NOT PUSH1 0x1F DUP3 ADD AND DUP3 ADD DUP1 PUSH1 0x40 MSTORE POP DUP2 ADD SWAP1 PUSH2 0x1812 SWAP2 SWAP1 PUSH2 0x31C4 JUMP JUMPDEST POP POP JUMP JUMPDEST PUSH1 0x0 DUP1 PUSH1 0x2 SLOAD SWAP1 POP PUSH1 0x0 DUP2 EQ PUSH2 0x1847 JUMPI PUSH2 0x1842 PUSH2 0x1831 PUSH2 0x8C0 JUMP JUMPDEST DUP3 DUP6 PUSH2 0x24A6 SWAP1 SWAP3 SWAP2 SWAP1 PUSH4 0xFFFFFFFF AND JUMP JUMPDEST PUSH2 0x1849 JUMP JUMPDEST DUP3 JUMPDEST SWAP2 POP POP SWAP2 SWAP1 POP JUMP JUMPDEST PUSH1 0x0 PUSH2 0x185C DUP5 PUSH2 0xB1C JUMP JUMPDEST SWAP1 POP DUP2 PUSH20 0xFFFFFFFFFFFFFFFFFFFFFFFFFFFFFFFFFFFFFFFF AND CALLER PUSH20 0xFFFFFFFFFFFFFFFFFFFFFFFFFFFFFFFFFFFFFFFF AND EQ PUSH2 0x19C8 JUMPI PUSH1 0x0 PUSH1 0x4 PUSH1 0x0 DUP5 PUSH20 0xFFFFFFFFFFFFFFFFFFFFFFFFFFFFFFFFFFFFFFFF AND PUSH20 0xFFFFFFFFFFFFFFFFFFFFFFFFFFFFFFFFFFFFFFFF AND DUP2 MSTORE PUSH1 0x20 ADD SWAP1 DUP2 MSTORE PUSH1 0x20 ADD PUSH1 0x0 KECCAK256 PUSH1 0x0 CALLER PUSH20 0xFFFFFFFFFFFFFFFFFFFFFFFFFFFFFFFFFFFFFFFF AND PUSH20 0xFFFFFFFFFFFFFFFFFFFFFFFFFFFFFFFFFFFFFFFF AND DUP2 MSTORE PUSH1 0x20 ADD SWAP1 DUP2 MSTORE PUSH1 0x20 ADD PUSH1 0x0 KECCAK256 SLOAD SWAP1 POP PUSH32 0xFFFFFFFFFFFFFFFFFFFFFFFFFFFFFFFFFFFFFFFFFFFFFFFFFFFFFFFFFFFFFFFF DUP2 EQ PUSH2 0x19C6 JUMPI DUP2 DUP2 PUSH2 0x1945 SWAP2 SWAP1 PUSH2 0x2F11 JUMP JUMPDEST PUSH1 0x4 PUSH1 0x0 DUP6 PUSH20 0xFFFFFFFFFFFFFFFFFFFFFFFFFFFFFFFFFFFFFFFF AND PUSH20 0xFFFFFFFFFFFFFFFFFFFFFFFFFFFFFFFFFFFFFFFF AND DUP2 MSTORE PUSH1 0x20 ADD SWAP1 DUP2 MSTORE PUSH1 0x20 ADD PUSH1 0x0 KECCAK256 PUSH1 0x0 CALLER PUSH20 0xFFFFFFFFFFFFFFFFFFFFFFFFFFFFFFFFFFFFFFFF AND PUSH20 0xFFFFFFFFFFFFFFFFFFFFFFFFFFFFFFFFFFFFFFFF AND DUP2 MSTORE PUSH1 0x20 ADD SWAP1 DUP2 MSTORE PUSH1 0x20 ADD PUSH1 0x0 KECCAK256 DUP2 SWAP1 SSTORE POP JUMPDEST POP JUMPDEST PUSH2 0x19D2 DUP5 DUP3 PUSH2 0x26EF JUMP JUMPDEST PUSH2 0x19DC DUP3 DUP3 PUSH2 0x270B JUMP JUMPDEST DUP2 PUSH20 0xFFFFFFFFFFFFFFFFFFFFFFFFFFFFFFFFFFFFFFFF AND DUP4 PUSH20 0xFFFFFFFFFFFFFFFFFFFFFFFFFFFFFFFFFFFFFFFF AND CALLER PUSH20 0xFFFFFFFFFFFFFFFFFFFFFFFFFFFFFFFFFFFFFFFF AND PUSH32 0xFBDE797D201C681B91056529119E0B02407C7BB96A4A2C75C01FC9667232C8DB DUP8 DUP6 PUSH1 0x40 MLOAD PUSH2 0x1A52 SWAP3 SWAP2 SWAP1 PUSH2 0x30F1 JUMP JUMPDEST PUSH1 0x40 MLOAD DUP1 SWAP2 SUB SWAP1 LOG4 PUSH2 0x1AA5 DUP4 DUP6 PUSH32 0x0 PUSH20 0xFFFFFFFFFFFFFFFFFFFFFFFFFFFFFFFFFFFFFFFF AND PUSH2 0x27DB SWAP1 SWAP3 SWAP2 SWAP1 PUSH4 0xFFFFFFFF AND JUMP JUMPDEST SWAP4 SWAP3 POP POP POP JUMP JUMPDEST PUSH1 0x0 DUP2 PUSH20 0xFFFFFFFFFFFFFFFFFFFFFFFFFFFFFFFFFFFFFFFF AND CALLER PUSH20 0xFFFFFFFFFFFFFFFFFFFFFFFFFFFFFFFFFFFFFFFF AND EQ PUSH2 0x1C18 JUMPI PUSH1 0x0 PUSH1 0x4 PUSH1 0x0 DUP5 PUSH20 0xFFFFFFFFFFFFFFFFFFFFFFFFFFFFFFFFFFFFFFFF AND PUSH20 0xFFFFFFFFFFFFFFFFFFFFFFFFFFFFFFFFFFFFFFFF AND DUP2 MSTORE PUSH1 0x20 ADD SWAP1 DUP2 MSTORE PUSH1 0x20 ADD PUSH1 0x0 KECCAK256 PUSH1 0x0 CALLER PUSH20 0xFFFFFFFFFFFFFFFFFFFFFFFFFFFFFFFFFFFFFFFF AND PUSH20 0xFFFFFFFFFFFFFFFFFFFFFFFFFFFFFFFFFFFFFFFF AND DUP2 MSTORE PUSH1 0x20 ADD SWAP1 DUP2 MSTORE PUSH1 0x20 ADD PUSH1 0x0 KECCAK256 SLOAD SWAP1 POP PUSH32 0xFFFFFFFFFFFFFFFFFFFFFFFFFFFFFFFFFFFFFFFFFFFFFFFFFFFFFFFFFFFFFFFF DUP2 EQ PUSH2 0x1C16 JUMPI DUP5 DUP2 PUSH2 0x1B95 SWAP2 SWAP1 PUSH2 0x2F11 JUMP JUMPDEST PUSH1 0x4 PUSH1 0x0 DUP6 PUSH20 0xFFFFFFFFFFFFFFFFFFFFFFFFFFFFFFFFFFFFFFFF AND PUSH20 0xFFFFFFFFFFFFFFFFFFFFFFFFFFFFFFFFFFFFFFFF AND DUP2 MSTORE PUSH1 0x20 ADD SWAP1 DUP2 MSTORE PUSH1 0x20 ADD PUSH1 0x0 KECCAK256 PUSH1 0x0 CALLER PUSH20 0xFFFFFFFFFFFFFFFFFFFFFFFFFFFFFFFFFFFFFFFF AND PUSH20 0xFFFFFFFFFFFFFFFFFFFFFFFFFFFFFFFFFFFFFFFF AND DUP2 MSTORE PUSH1 0x20 ADD SWAP1 DUP2 MSTORE PUSH1 0x20 ADD PUSH1 0x0 KECCAK256 DUP2 SWAP1 SSTORE POP JUMPDEST POP JUMPDEST PUSH1 0x0 PUSH2 0x1C23 DUP6 PUSH2 0x10A1 JUMP JUMPDEST SWAP2 POP DUP2 SUB PUSH2 0x1C66 JUMPI PUSH1 0x40 MLOAD PUSH32 0x8C379A000000000000000000000000000000000000000000000000000000000 DUP2 MSTORE PUSH1 0x4 ADD PUSH2 0x1C5D SWAP1 PUSH2 0x323D JUMP JUMPDEST PUSH1 0x40 MLOAD DUP1 SWAP2 SUB SWAP1 REVERT JUMPDEST PUSH2 0x1C70 DUP2 DUP6 PUSH2 0x26EF JUMP JUMPDEST PUSH2 0x1C7A DUP3 DUP6 PUSH2 0x270B JUMP JUMPDEST DUP2 PUSH20 0xFFFFFFFFFFFFFFFFFFFFFFFFFFFFFFFFFFFFFFFF AND DUP4 PUSH20 0xFFFFFFFFFFFFFFFFFFFFFFFFFFFFFFFFFFFFFFFF AND CALLER PUSH20 0xFFFFFFFFFFFFFFFFFFFFFFFFFFFFFFFFFFFFFFFF AND PUSH32 0xFBDE797D201C681B91056529119E0B02407C7BB96A4A2C75C01FC9667232C8DB DUP5 DUP9 PUSH1 0x40 MLOAD PUSH2 0x1CF0 SWAP3 SWAP2 SWAP1 PUSH2 0x30F1 JUMP JUMPDEST PUSH1 0x40 MLOAD DUP1 SWAP2 SUB SWAP1 LOG4 PUSH2 0x1D43 DUP4 DUP3 PUSH32 0x0 PUSH20 0xFFFFFFFFFFFFFFFFFFFFFFFFFFFFFFFFFFFFFFFF AND PUSH2 0x27DB SWAP1 SWAP3 SWAP2 SWAP1 PUSH4 0xFFFFFFFF AND JUMP JUMPDEST SWAP4 SWAP3 POP POP POP JUMP JUMPDEST PUSH1 0x7 SLOAD DUP2 JUMP JUMPDEST CALLER PUSH20 0xFFFFFFFFFFFFFFFFFFFFFFFFFFFFFFFFFFFFFFFF AND PUSH2 0x1D6F PUSH2 0x1077 JUMP JUMPDEST PUSH20 0xFFFFFFFFFFFFFFFFFFFFFFFFFFFFFFFFFFFFFFFF AND EQ PUSH2 0x1DC5 JUMPI PUSH1 0x40 MLOAD PUSH32 0x8C379A000000000000000000000000000000000000000000000000000000000 DUP2 MSTORE PUSH1 0x4 ADD PUSH2 0x1DBC SWAP1 PUSH2 0x2FB7 JUMP JUMPDEST PUSH1 0x40 MLOAD DUP1 SWAP2 SUB SWAP1 REVERT JUMPDEST PUSH8 0xDE0B6B3A7640000 DUP2 GT ISZERO PUSH2 0x1E10 JUMPI PUSH1 0x40 MLOAD PUSH32 0x8C379A000000000000000000000000000000000000000000000000000000000 DUP2 MSTORE PUSH1 0x4 ADD PUSH2 0x1E07 SWAP1 PUSH2 0x32A9 JUMP JUMPDEST PUSH1 0x40 MLOAD DUP1 SWAP2 SUB SWAP1 REVERT JUMPDEST DUP1 PUSH1 0xA DUP2 SWAP1 SSTORE POP CALLER PUSH20 0xFFFFFFFFFFFFFFFFFFFFFFFFFFFFFFFFFFFFFFFF AND PUSH32 0x95BC4480B51F4860106D42850BCAE222CF3303FB2B7D433E896205E0EBEFE369 DUP3 PUSH1 0x40 MLOAD PUSH2 0x1E5D SWAP2 SWAP1 PUSH2 0x288C JUMP JUMPDEST PUSH1 0x40 MLOAD DUP1 SWAP2 SUB SWAP1 LOG2 POP JUMP JUMPDEST PUSH32 0x0 DUP2 JUMP JUMPDEST PUSH1 0x0 PUSH32 0xFFFFFFFFFFFFFFFFFFFFFFFFFFFFFFFFFFFFFFFFFFFFFFFFFFFFFFFFFFFFFFFF SWAP1 POP SWAP2 SWAP1 POP JUMP JUMPDEST PUSH1 0x0 DUP1 PUSH1 0x2 SLOAD SWAP1 POP PUSH1 0x0 DUP2 EQ PUSH2 0x1EE7 JUMPI PUSH2 0x1EE2 DUP2 PUSH2 0x1ED2 PUSH2 0x8C0 JUMP JUMPDEST DUP6 PUSH2 0x247E SWAP1 SWAP3 SWAP2 SWAP1 PUSH4 0xFFFFFFFF AND JUMP JUMPDEST PUSH2 0x1EE9 JUMP JUMPDEST DUP3 JUMPDEST SWAP2 POP POP SWAP2 SWAP1 POP JUMP JUMPDEST PUSH1 0x0 PUSH2 0x1F3B PUSH1 0x3 PUSH1 0x0 DUP5 PUSH20 0xFFFFFFFFFFFFFFFFFFFFFFFFFFFFFFFFFFFFFFFF AND PUSH20 0xFFFFFFFFFFFFFFFFFFFFFFFFFFFFFFFFFFFFFFFF AND DUP2 MSTORE PUSH1 0x20 ADD SWAP1 DUP2 MSTORE PUSH1 0x20 ADD PUSH1 0x0 KECCAK256 SLOAD PUSH2 0x9EF JUMP JUMPDEST SWAP1 POP SWAP2 SWAP1 POP JUMP JUMPDEST TIMESTAMP DUP5 LT ISZERO PUSH2 0x1F85 JUMPI PUSH1 0x40 MLOAD PUSH32 0x8C379A000000000000000000000000000000000000000000000000000000000 DUP2 MSTORE PUSH1 0x4 ADD PUSH2 0x1F7C SWAP1 PUSH2 0x3315 JUMP JUMPDEST PUSH1 0x40 MLOAD DUP1 SWAP2 SUB SWAP1 REVERT JUMPDEST PUSH1 0x0 PUSH1 0x1 PUSH2 0x1F91 PUSH2 0xF8E JUMP JUMPDEST PUSH32 0x6E71EDAE12B1B97F4D1F60370FEF10105FA2FAAE0126114A169C64845D6126C9 DUP11 DUP11 DUP11 PUSH1 0x5 PUSH1 0x0 DUP16 PUSH20 0xFFFFFFFFFFFFFFFFFFFFFFFFFFFFFFFFFFFFFFFF AND PUSH20 0xFFFFFFFFFFFFFFFFFFFFFFFFFFFFFFFFFFFFFFFF AND DUP2 MSTORE PUSH1 0x20 ADD SWAP1 DUP2 MSTORE PUSH1 0x20 ADD PUSH1 0x0 KECCAK256 PUSH1 0x0 DUP2 SLOAD DUP1 SWAP3 SWAP2 SWAP1 PUSH1 0x1 ADD SWAP2 SWAP1 POP SSTORE DUP12 PUSH1 0x40 MLOAD PUSH1 0x20 ADD PUSH2 0x2019 SWAP7 SWAP6 SWAP5 SWAP4 SWAP3 SWAP2 SWAP1 PUSH2 0x3335 JUMP JUMPDEST PUSH1 0x40 MLOAD PUSH1 0x20 DUP2 DUP4 SUB SUB DUP2 MSTORE SWAP1 PUSH1 0x40 MSTORE DUP1 MLOAD SWAP1 PUSH1 0x20 ADD KECCAK256 PUSH1 0x40 MLOAD PUSH1 0x20 ADD PUSH2 0x2040 SWAP3 SWAP2 SWAP1 PUSH2 0x340E JUMP JUMPDEST PUSH1 0x40 MLOAD PUSH1 0x20 DUP2 DUP4 SUB SUB DUP2 MSTORE SWAP1 PUSH1 0x40 MSTORE DUP1 MLOAD SWAP1 PUSH1 0x20 ADD KECCAK256 DUP6 DUP6 DUP6 PUSH1 0x40 MLOAD PUSH1 0x0 DUP2 MSTORE PUSH1 0x20 ADD PUSH1 0x40 MSTORE PUSH1 0x40 MLOAD PUSH2 0x2076 SWAP5 SWAP4 SWAP3 SWAP2 SWAP1 PUSH2 0x3445 JUMP JUMPDEST PUSH1 0x20 PUSH1 0x40 MLOAD PUSH1 0x20 DUP2 SUB SWAP1 DUP1 DUP5 SUB SWAP1 DUP6 GAS STATICCALL ISZERO DUP1 ISZERO PUSH2 0x2098 JUMPI RETURNDATASIZE PUSH1 0x0 DUP1 RETURNDATACOPY RETURNDATASIZE PUSH1 0x0 REVERT JUMPDEST POP POP POP PUSH1 0x20 PUSH1 0x40 MLOAD SUB MLOAD SWAP1 POP PUSH1 0x0 PUSH20 0xFFFFFFFFFFFFFFFFFFFFFFFFFFFFFFFFFFFFFFFF AND DUP2 PUSH20 0xFFFFFFFFFFFFFFFFFFFFFFFFFFFFFFFFFFFFFFFF AND EQ ISZERO DUP1 ISZERO PUSH2 0x210C JUMPI POP DUP8 PUSH20 0xFFFFFFFFFFFFFFFFFFFFFFFFFFFFFFFFFFFFFFFF AND DUP2 PUSH20 0xFFFFFFFFFFFFFFFFFFFFFFFFFFFFFFFFFFFFFFFF AND EQ JUMPDEST PUSH2 0x214B JUMPI PUSH1 0x40 MLOAD PUSH32 0x8C379A000000000000000000000000000000000000000000000000000000000 DUP2 MSTORE PUSH1 0x4 ADD PUSH2 0x2142 SWAP1 PUSH2 0x34D6 JUMP JUMPDEST PUSH1 0x40 MLOAD DUP1 SWAP2 SUB SWAP1 REVERT JUMPDEST DUP6 PUSH1 0x4 PUSH1 0x0 DUP4 PUSH20 0xFFFFFFFFFFFFFFFFFFFFFFFFFFFFFFFFFFFFFFFF AND PUSH20 0xFFFFFFFFFFFFFFFFFFFFFFFFFFFFFFFFFFFFFFFF AND DUP2 MSTORE PUSH1 0x20 ADD SWAP1 DUP2 MSTORE PUSH1 0x20 ADD PUSH1 0x0 KECCAK256 PUSH1 0x0 DUP10 PUSH20 0xFFFFFFFFFFFFFFFFFFFFFFFFFFFFFFFFFFFFFFFF AND PUSH20 0xFFFFFFFFFFFFFFFFFFFFFFFFFFFFFFFFFFFFFFFF AND DUP2 MSTORE PUSH1 0x20 ADD SWAP1 DUP2 MSTORE PUSH1 0x20 ADD PUSH1 0x0 KECCAK256 DUP2 SWAP1 SSTORE POP POP DUP6 PUSH20 0xFFFFFFFFFFFFFFFFFFFFFFFFFFFFFFFFFFFFFFFF AND DUP8 PUSH20 0xFFFFFFFFFFFFFFFFFFFFFFFFFFFFFFFFFFFFFFFF AND PUSH32 0x8C5BE1E5EBEC7D5BD14F71427D1E84F3DD0314C0F7B2291E5B200AC8C7C3B925 DUP8 PUSH1 0x40 MLOAD PUSH2 0x222A SWAP2 SWAP1 PUSH2 0x288C JUMP JUMPDEST PUSH1 0x40 MLOAD DUP1 SWAP2 SUB SWAP1 LOG3 POP POP POP POP POP POP POP JUMP JUMPDEST PUSH1 0x0 PUSH1 0x3 PUSH1 0x0 DUP4 PUSH20 0xFFFFFFFFFFFFFFFFFFFFFFFFFFFFFFFFFFFFFFFF AND PUSH20 0xFFFFFFFFFFFFFFFFFFFFFFFFFFFFFFFFFFFFFFFF AND DUP2 MSTORE PUSH1 0x20 ADD SWAP1 DUP2 MSTORE PUSH1 0x20 ADD PUSH1 0x0 KECCAK256 SLOAD SWAP1 POP SWAP2 SWAP1 POP JUMP JUMPDEST PUSH1 0x4 PUSH1 0x20 MSTORE DUP2 PUSH1 0x0 MSTORE PUSH1 0x40 PUSH1 0x0 KECCAK256 PUSH1 0x20 MSTORE DUP1 PUSH1 0x0 MSTORE PUSH1 0x40 PUSH1 0x0 KECCAK256 PUSH1 0x0 SWAP2 POP SWAP2 POP POP SLOAD DUP2 JUMP JUMPDEST PUSH1 0xC SLOAD DUP2 JUMP JUMPDEST PUSH1 0x0 PUSH2 0x22BA DUP3 PUSH2 0x1EB6 JUMP JUMPDEST SWAP1 POP SWAP2 SWAP1 POP JUMP JUMPDEST CALLER PUSH20 0xFFFFFFFFFFFFFFFFFFFFFFFFFFFFFFFFFFFFFFFF AND PUSH2 0x22E0 PUSH2 0x1077 JUMP JUMPDEST PUSH20 0xFFFFFFFFFFFFFFFFFFFFFFFFFFFFFFFFFFFFFFFF AND EQ PUSH2 0x2336 JUMPI PUSH1 0x40 MLOAD PUSH32 0x8C379A000000000000000000000000000000000000000000000000000000000 DUP2 MSTORE PUSH1 0x4 ADD PUSH2 0x232D SWAP1 PUSH2 0x2FB7 JUMP JUMPDEST PUSH1 0x40 MLOAD DUP1 SWAP2 SUB SWAP1 REVERT JUMPDEST PUSH1 0x0 PUSH20 0xFFFFFFFFFFFFFFFFFFFFFFFFFFFFFFFFFFFFFFFF AND DUP2 PUSH20 0xFFFFFFFFFFFFFFFFFFFFFFFFFFFFFFFFFFFFFFFF AND SUB PUSH2 0x23A5 JUMPI PUSH1 0x40 MLOAD PUSH32 0x8C379A000000000000000000000000000000000000000000000000000000000 DUP2 MSTORE PUSH1 0x4 ADD PUSH2 0x239C SWAP1 PUSH2 0x3568 JUMP JUMPDEST PUSH1 0x40 MLOAD DUP1 SWAP2 SUB SWAP1 REVERT JUMPDEST DUP1 PUSH20 0xFFFFFFFFFFFFFFFFFFFFFFFFFFFFFFFFFFFFFFFF AND PUSH1 0x6 PUSH1 0x0 SWAP1 SLOAD SWAP1 PUSH2 0x100 EXP SWAP1 DIV PUSH20 0xFFFFFFFFFFFFFFFFFFFFFFFFFFFFFFFFFFFFFFFF AND PUSH20 0xFFFFFFFFFFFFFFFFFFFFFFFFFFFFFFFFFFFFFFFF AND PUSH32 0x8BE0079C531659141344CD1FD0A4F28419497F9722A3DAAFE3B4186F6B6457E0 PUSH1 0x40 MLOAD PUSH1 0x40 MLOAD DUP1 SWAP2 SUB SWAP1 LOG3 DUP1 PUSH1 0x6 PUSH1 0x0 PUSH2 0x100 EXP DUP2 SLOAD DUP2 PUSH20 0xFFFFFFFFFFFFFFFFFFFFFFFFFFFFFFFFFFFFFFFF MUL NOT AND SWAP1 DUP4 PUSH20 0xFFFFFFFFFFFFFFFFFFFFFFFFFFFFFFFFFFFFFFFF AND MUL OR SWAP1 SSTORE POP POP JUMP JUMPDEST PUSH1 0xB PUSH1 0x0 SWAP1 SLOAD SWAP1 PUSH2 0x100 EXP SWAP1 DIV PUSH1 0xFF AND DUP2 JUMP JUMPDEST PUSH1 0x8 SLOAD DUP2 JUMP JUMPDEST PUSH1 0x0 DUP3 DUP5 MUL SWAP1 POP DUP3 DUP5 DUP3 DIV EQ DUP5 ISZERO OR DUP3 ISZERO ISZERO AND PUSH2 0x249A JUMPI PUSH1 0x0 DUP1 REVERT JUMPDEST DUP2 DUP2 DIV SWAP1 POP SWAP4 SWAP3 POP POP POP JUMP JUMPDEST PUSH1 0x0 DUP3 DUP5 MUL SWAP1 POP DUP3 DUP5 DUP3 DIV EQ DUP5 ISZERO OR DUP3 ISZERO ISZERO AND PUSH2 0x24C2 JUMPI PUSH1 0x0 DUP1 REVERT JUMPDEST PUSH1 0x1 DUP3 PUSH1 0x1 DUP4 SUB DIV ADD DUP2 ISZERO ISZERO MUL SWAP1 POP SWAP4 SWAP3 POP POP POP JUMP JUMPDEST PUSH1 0x0 PUSH32 0x8B73C3C69BB8FE3D512ECC4CF759CC79239F7B179B0FFACAA9A75D522B39400F PUSH1 0x0 PUSH1 0x40 MLOAD PUSH2 0x250A SWAP2 SWAP1 PUSH2 0x362B JUMP JUMPDEST PUSH1 0x40 MLOAD DUP1 SWAP2 SUB SWAP1 KECCAK256 PUSH32 0xC89EFDAA54C0F20C7ADF612882DF0950F5A951637E0307CDCB4C672F298B8BC6 CHAINID ADDRESS PUSH1 0x40 MLOAD PUSH1 0x20 ADD PUSH2 0x2549 SWAP6 SWAP5 SWAP4 SWAP3 SWAP2 SWAP1 PUSH2 0x3642 JUMP JUMPDEST PUSH1 0x40 MLOAD PUSH1 0x20 DUP2 DUP4 SUB SUB DUP2 MSTORE SWAP1 PUSH1 0x40 MSTORE DUP1 MLOAD SWAP1 PUSH1 0x20 ADD KECCAK256 SWAP1 POP SWAP1 JUMP JUMPDEST PUSH1 0x0 PUSH1 0x40 MLOAD PUSH32 0x23B872DD00000000000000000000000000000000000000000000000000000000 DUP2 MSTORE DUP5 PUSH1 0x4 DUP3 ADD MSTORE DUP4 PUSH1 0x24 DUP3 ADD MSTORE DUP3 PUSH1 0x44 DUP3 ADD MSTORE PUSH1 0x20 PUSH1 0x0 PUSH1 0x64 DUP4 PUSH1 0x0 DUP11 GAS CALL RETURNDATASIZE ISZERO PUSH1 0x1F RETURNDATASIZE GT PUSH1 0x1 PUSH1 0x0 MLOAD EQ AND OR AND SWAP2 POP POP DUP1 PUSH2 0x25FC JUMPI PUSH1 0x40 MLOAD PUSH32 0x8C379A000000000000000000000000000000000000000000000000000000000 DUP2 MSTORE PUSH1 0x4 ADD PUSH2 0x25F3 SWAP1 PUSH2 0x36E1 JUMP JUMPDEST PUSH1 0x40 MLOAD DUP1 SWAP2 SUB SWAP1 REVERT JUMPDEST POP POP POP POP POP JUMP JUMPDEST DUP1 PUSH1 0x2 PUSH1 0x0 DUP3 DUP3 SLOAD PUSH2 0x2615 SWAP2 SWAP1 PUSH2 0x3701 JUMP JUMPDEST SWAP3 POP POP DUP2 SWAP1 SSTORE POP DUP1 PUSH1 0x3 PUSH1 0x0 DUP5 PUSH20 0xFFFFFFFFFFFFFFFFFFFFFFFFFFFFFFFFFFFFFFFF AND PUSH20 0xFFFFFFFFFFFFFFFFFFFFFFFFFFFFFFFFFFFFFFFF AND DUP2 MSTORE PUSH1 0x20 ADD SWAP1 DUP2 MSTORE PUSH1 0x20 ADD PUSH1 0x0 KECCAK256 PUSH1 0x0 DUP3 DUP3 SLOAD ADD SWAP3 POP POP DUP2 SWAP1 SSTORE POP DUP2 PUSH20 0xFFFFFFFFFFFFFFFFFFFFFFFFFFFFFFFFFFFFFFFF AND PUSH1 0x0 PUSH20 0xFFFFFFFFFFFFFFFFFFFFFFFFFFFFFFFFFFFFFFFF AND PUSH32 0xDDF252AD1BE2C89B69C2B068FC378DAA952BA7F163C4A11628F55A4DF523B3EF DUP4 PUSH1 0x40 MLOAD PUSH2 0x26C7 SWAP2 SWAP1 PUSH2 0x288C JUMP JUMPDEST PUSH1 0x40 MLOAD DUP1 SWAP2 SUB SWAP1 LOG3 POP POP JUMP JUMPDEST PUSH1 0x8 PUSH1 0x0 DUP2 SLOAD DUP1 SWAP3 SWAP2 SWAP1 PUSH2 0x26E6 SWAP1 PUSH2 0x3735 JUMP JUMPDEST SWAP2 SWAP1 POP SSTORE POP POP POP JUMP JUMPDEST PUSH1 0x7 PUSH1 0x0 DUP2 SLOAD DUP1 SWAP3 SWAP2 SWAP1 PUSH2 0x2702 SWAP1 PUSH2 0x3735 JUMP JUMPDEST SWAP2 SWAP1 POP SSTORE POP POP POP JUMP JUMPDEST DUP1 PUSH1 0x3 PUSH1 0x0 DUP5 PUSH20 0xFFFFFFFFFFFFFFFFFFFFFFFFFFFFFFFFFFFFFFFF AND PUSH20 0xFFFFFFFFFFFFFFFFFFFFFFFFFFFFFFFFFFFFFFFF AND DUP2 MSTORE PUSH1 0x20 ADD SWAP1 DUP2 MSTORE PUSH1 0x20 ADD PUSH1 0x0 KECCAK256 PUSH1 0x0 DUP3 DUP3 SLOAD PUSH2 0x275A SWAP2 SWAP1 PUSH2 0x2F11 JUMP JUMPDEST SWAP3 POP POP DUP2 SWAP1 SSTORE POP DUP1 PUSH1 0x2 PUSH1 0x0 DUP3 DUP3 SLOAD SUB SWAP3 POP POP DUP2 SWAP1 SSTORE POP PUSH1 0x0 PUSH20 0xFFFFFFFFFFFFFFFFFFFFFFFFFFFFFFFFFFFFFFFF AND DUP3 PUSH20 0xFFFFFFFFFFFFFFFFFFFFFFFFFFFFFFFFFFFFFFFF AND PUSH32 0xDDF252AD1BE2C89B69C2B068FC378DAA952BA7F163C4A11628F55A4DF523B3EF DUP4 PUSH1 0x40 MLOAD PUSH2 0x27CF SWAP2 SWAP1 PUSH2 0x288C JUMP JUMPDEST PUSH1 0x40 MLOAD DUP1 SWAP2 SUB SWAP1 LOG3 POP POP JUMP JUMPDEST PUSH1 0x0 PUSH1 0x40 MLOAD PUSH32 0xA9059CBB00000000000000000000000000000000000000000000000000000000 DUP2 MSTORE DUP4 PUSH1 0x4 DUP3 ADD MSTORE DUP3 PUSH1 0x24 DUP3 ADD MSTORE PUSH1 0x20 PUSH1 0x0 PUSH1 0x44 DUP4 PUSH1 0x0 DUP10 GAS CALL RETURNDATASIZE ISZERO PUSH1 0x1F RETURNDATASIZE GT PUSH1 0x1 PUSH1 0x0 MLOAD EQ AND OR AND SWAP2 POP POP DUP1 PUSH2 0x286D JUMPI PUSH1 0x40 MLOAD PUSH32 0x8C379A000000000000000000000000000000000000000000000000000000000 DUP2 MSTORE PUSH1 0x4 ADD PUSH2 0x2864 SWAP1 PUSH2 0x37C9 JUMP JUMPDEST PUSH1 0x40 MLOAD DUP1 SWAP2 SUB SWAP1 REVERT JUMPDEST POP POP POP POP JUMP JUMPDEST PUSH1 0x0 DUP2 SWAP1 POP SWAP2 SWAP1 POP JUMP JUMPDEST PUSH2 0x2886 DUP2 PUSH2 0x2873 JUMP JUMPDEST DUP3 MSTORE POP POP JUMP JUMPDEST PUSH1 0x0 PUSH1 0x20 DUP3 ADD SWAP1 POP PUSH2 0x28A1 PUSH1 0x0 DUP4 ADD DUP5 PUSH2 0x287D JUMP JUMPDEST SWAP3 SWAP2 POP POP JUMP JUMPDEST PUSH1 0x0 DUP2 MLOAD SWAP1 POP SWAP2 SWAP1 POP JUMP JUMPDEST PUSH1 0x0 DUP3 DUP3 MSTORE PUSH1 0x20 DUP3 ADD SWAP1 POP SWAP3 SWAP2 POP POP JUMP JUMPDEST PUSH1 0x0 JUMPDEST DUP4 DUP2 LT ISZERO PUSH2 0x28E1 JUMPI DUP1 DUP3 ADD MLOAD DUP2 DUP5 ADD MSTORE PUSH1 0x20 DUP2 ADD SWAP1 POP PUSH2 0x28C6 JUMP JUMPDEST PUSH1 0x0 DUP5 DUP5 ADD MSTORE POP POP POP POP JUMP JUMPDEST PUSH1 0x0 PUSH1 0x1F NOT PUSH1 0x1F DUP4 ADD AND SWAP1 POP SWAP2 SWAP1 POP JUMP JUMPDEST PUSH1 0x0 PUSH2 0x2909 DUP3 PUSH2 0x28A7 JUMP JUMPDEST PUSH2 0x2913 DUP2 DUP6 PUSH2 0x28B2 JUMP JUMPDEST SWAP4 POP PUSH2 0x2923 DUP2 DUP6 PUSH1 0x20 DUP7 ADD PUSH2 0x28C3 JUMP JUMPDEST PUSH2 0x292C DUP2 PUSH2 0x28ED JUMP JUMPDEST DUP5 ADD SWAP2 POP POP SWAP3 SWAP2 POP POP JUMP JUMPDEST PUSH1 0x0 PUSH1 0x20 DUP3 ADD SWAP1 POP DUP2 DUP2 SUB PUSH1 0x0 DUP4 ADD MSTORE PUSH2 0x2951 DUP2 DUP5 PUSH2 0x28FE JUMP JUMPDEST SWAP1 POP SWAP3 SWAP2 POP POP JUMP JUMPDEST PUSH1 0x0 DUP1 REVERT JUMPDEST PUSH2 0x2967 DUP2 PUSH2 0x2873 JUMP JUMPDEST DUP2 EQ PUSH2 0x2972 JUMPI PUSH1 0x0 DUP1 REVERT JUMPDEST POP JUMP JUMPDEST PUSH1 0x0 DUP2 CALLDATALOAD SWAP1 POP PUSH2 0x2984 DUP2 PUSH2 0x295E JUMP JUMPDEST SWAP3 SWAP2 POP POP JUMP JUMPDEST PUSH1 0x0 PUSH1 0x20 DUP3 DUP5 SUB SLT ISZERO PUSH2 0x29A0 JUMPI PUSH2 0x299F PUSH2 0x2959 JUMP JUMPDEST JUMPDEST PUSH1 0x0 PUSH2 0x29AE DUP5 DUP3 DUP6 ADD PUSH2 0x2975 JUMP JUMPDEST SWAP2 POP POP SWAP3 SWAP2 POP POP JUMP JUMPDEST PUSH1 0x0 PUSH20 0xFFFFFFFFFFFFFFFFFFFFFFFFFFFFFFFFFFFFFFFF DUP3 AND SWAP1 POP SWAP2 SWAP1 POP JUMP JUMPDEST PUSH1 0x0 PUSH2 0x29E2 DUP3 PUSH2 0x29B7 JUMP JUMPDEST SWAP1 POP SWAP2 SWAP1 POP JUMP JUMPDEST PUSH2 0x29F2 DUP2 PUSH2 0x29D7 JUMP JUMPDEST DUP2 EQ PUSH2 0x29FD JUMPI PUSH1 0x0 DUP1 REVERT JUMPDEST POP JUMP JUMPDEST PUSH1 0x0 DUP2 CALLDATALOAD SWAP1 POP PUSH2 0x2A0F DUP2 PUSH2 0x29E9 JUMP JUMPDEST SWAP3 SWAP2 POP POP JUMP JUMPDEST PUSH1 0x0 DUP1 PUSH1 0x40 DUP4 DUP6 SUB SLT ISZERO PUSH2 0x2A2C JUMPI PUSH2 0x2A2B PUSH2 0x2959 JUMP JUMPDEST JUMPDEST PUSH1 0x0 PUSH2 0x2A3A DUP6 DUP3 DUP7 ADD PUSH2 0x2A00 JUMP JUMPDEST SWAP3 POP POP PUSH1 0x20 PUSH2 0x2A4B DUP6 DUP3 DUP7 ADD PUSH2 0x2975 JUMP JUMPDEST SWAP2 POP POP SWAP3 POP SWAP3 SWAP1 POP JUMP JUMPDEST PUSH1 0x0 DUP2 ISZERO ISZERO SWAP1 POP SWAP2 SWAP1 POP JUMP JUMPDEST PUSH2 0x2A6A DUP2 PUSH2 0x2A55 JUMP JUMPDEST DUP3 MSTORE POP POP JUMP JUMPDEST PUSH1 0x0 PUSH1 0x20 DUP3 ADD SWAP1 POP PUSH2 0x2A85 PUSH1 0x0 DUP4 ADD DUP5 PUSH2 0x2A61 JUMP JUMPDEST SWAP3 SWAP2 POP POP JUMP JUMPDEST PUSH1 0x0 DUP1 PUSH1 0x0 PUSH1 0x60 DUP5 DUP7 SUB SLT ISZERO PUSH2 0x2AA4 JUMPI PUSH2 0x2AA3 PUSH2 0x2959 JUMP JUMPDEST JUMPDEST PUSH1 0x0 PUSH2 0x2AB2 DUP7 DUP3 DUP8 ADD PUSH2 0x2A00 JUMP JUMPDEST SWAP4 POP POP PUSH1 0x20 PUSH2 0x2AC3 DUP7 DUP3 DUP8 ADD PUSH2 0x2A00 JUMP JUMPDEST SWAP3 POP POP PUSH1 0x40 PUSH2 0x2AD4 DUP7 DUP3 DUP8 ADD PUSH2 0x2975 JUMP JUMPDEST SWAP2 POP POP SWAP3 POP SWAP3 POP SWAP3 JUMP JUMPDEST PUSH1 0x0 PUSH1 0xFF DUP3 AND SWAP1 POP SWAP2 SWAP1 POP JUMP JUMPDEST PUSH2 0x2AF4 DUP2 PUSH2 0x2ADE JUMP JUMPDEST DUP3 MSTORE POP POP JUMP JUMPDEST PUSH1 0x0 PUSH1 0x20 DUP3 ADD SWAP1 POP PUSH2 0x2B0F PUSH1 0x0 DUP4 ADD DUP5 PUSH2 0x2AEB JUMP JUMPDEST SWAP3 SWAP2 POP POP JUMP JUMPDEST PUSH2 0x2B1E DUP2 PUSH2 0x2A55 JUMP JUMPDEST DUP2 EQ PUSH2 0x2B29 JUMPI PUSH1 0x0 DUP1 REVERT JUMPDEST POP JUMP JUMPDEST PUSH1 0x0 DUP2 CALLDATALOAD SWAP1 POP PUSH2 0x2B3B DUP2 PUSH2 0x2B15 JUMP JUMPDEST SWAP3 SWAP2 POP POP JUMP JUMPDEST PUSH1 0x0 PUSH1 0x20 DUP3 DUP5 SUB SLT ISZERO PUSH2 0x2B57 JUMPI PUSH2 0x2B56 PUSH2 0x2959 JUMP JUMPDEST JUMPDEST PUSH1 0x0 PUSH2 0x2B65 DUP5 DUP3 DUP6 ADD PUSH2 0x2B2C JUMP JUMPDEST SWAP2 POP POP SWAP3 SWAP2 POP POP JUMP JUMPDEST PUSH1 0x0 DUP2 SWAP1 POP SWAP2 SWAP1 POP JUMP JUMPDEST PUSH2 0x2B81 DUP2 PUSH2 0x2B6E JUMP JUMPDEST DUP3 MSTORE POP POP JUMP JUMPDEST PUSH1 0x0 PUSH1 0x20 DUP3 ADD SWAP1 POP PUSH2 0x2B9C PUSH1 0x0 DUP4 ADD DUP5 PUSH2 0x2B78 JUMP JUMPDEST SWAP3 SWAP2 POP POP JUMP JUMPDEST PUSH1 0x0 DUP2 SWAP1 POP SWAP2 SWAP1 POP JUMP JUMPDEST PUSH1 0x0 PUSH2 0x2BC7 PUSH2 0x2BC2 PUSH2 0x2BBD DUP5 PUSH2 0x29B7 JUMP JUMPDEST PUSH2 0x2BA2 JUMP JUMPDEST PUSH2 0x29B7 JUMP JUMPDEST SWAP1 POP SWAP2 SWAP1 POP JUMP JUMPDEST PUSH1 0x0 PUSH2 0x2BD9 DUP3 PUSH2 0x2BAC JUMP JUMPDEST SWAP1 POP SWAP2 SWAP1 POP JUMP JUMPDEST PUSH1 0x0 PUSH2 0x2BEB DUP3 PUSH2 0x2BCE JUMP JUMPDEST SWAP1 POP SWAP2 SWAP1 POP JUMP JUMPDEST PUSH2 0x2BFB DUP2 PUSH2 0x2BE0 JUMP JUMPDEST DUP3 MSTORE POP POP JUMP JUMPDEST PUSH1 0x0 PUSH1 0x20 DUP3 ADD SWAP1 POP PUSH2 0x2C16 PUSH1 0x0 DUP4 ADD DUP5 PUSH2 0x2BF2 JUMP JUMPDEST SWAP3 SWAP2 POP POP JUMP JUMPDEST PUSH1 0x0 PUSH1 0x20 DUP3 DUP5 SUB SLT ISZERO PUSH2 0x2C32 JUMPI PUSH2 0x2C31 PUSH2 0x2959 JUMP JUMPDEST JUMPDEST PUSH1 0x0 PUSH2 0x2C40 DUP5 DUP3 DUP6 ADD PUSH2 0x2A00 JUMP JUMPDEST SWAP2 POP POP SWAP3 SWAP2 POP POP JUMP JUMPDEST PUSH2 0x2C52 DUP2 PUSH2 0x29D7 JUMP JUMPDEST DUP3 MSTORE POP POP JUMP JUMPDEST PUSH1 0x0 PUSH1 0x20 DUP3 ADD SWAP1 POP PUSH2 0x2C6D PUSH1 0x0 DUP4 ADD DUP5 PUSH2 0x2C49 JUMP JUMPDEST SWAP3 SWAP2 POP POP JUMP JUMPDEST PUSH1 0x0 DUP1 PUSH1 0x40 DUP4 DUP6 SUB SLT ISZERO PUSH2 0x2C8A JUMPI PUSH2 0x2C89 PUSH2 0x2959 JUMP JUMPDEST JUMPDEST PUSH1 0x0 PUSH2 0x2C98 DUP6 DUP3 DUP7 ADD PUSH2 0x2975 JUMP JUMPDEST SWAP3 POP POP PUSH1 0x20 PUSH2 0x2CA9 DUP6 DUP3 DUP7 ADD PUSH2 0x2A00 JUMP JUMPDEST SWAP2 POP POP SWAP3 POP SWAP3 SWAP1 POP JUMP JUMPDEST PUSH1 0x0 DUP1 PUSH1 0x0 PUSH1 0x60 DUP5 DUP7 SUB SLT ISZERO PUSH2 0x2CCC JUMPI PUSH2 0x2CCB PUSH2 0x2959 JUMP JUMPDEST JUMPDEST PUSH1 0x0 PUSH2 0x2CDA DUP7 DUP3 DUP8 ADD PUSH2 0x2975 JUMP JUMPDEST SWAP4 POP POP PUSH1 0x20 PUSH2 0x2CEB DUP7 DUP3 DUP8 ADD PUSH2 0x2A00 JUMP JUMPDEST SWAP3 POP POP PUSH1 0x40 PUSH2 0x2CFC DUP7 DUP3 DUP8 ADD PUSH2 0x2A00 JUMP JUMPDEST SWAP2 POP POP SWAP3 POP SWAP3 POP SWAP3 JUMP JUMPDEST PUSH2 0x2D0F DUP2 PUSH2 0x2ADE JUMP JUMPDEST DUP2 EQ PUSH2 0x2D1A JUMPI PUSH1 0x0 DUP1 REVERT JUMPDEST POP JUMP JUMPDEST PUSH1 0x0 DUP2 CALLDATALOAD SWAP1 POP PUSH2 0x2D2C DUP2 PUSH2 0x2D06 JUMP JUMPDEST SWAP3 SWAP2 POP POP JUMP JUMPDEST PUSH2 0x2D3B DUP2 PUSH2 0x2B6E JUMP JUMPDEST DUP2 EQ PUSH2 0x2D46 JUMPI PUSH1 0x0 DUP1 REVERT JUMPDEST POP JUMP JUMPDEST PUSH1 0x0 DUP2 CALLDATALOAD SWAP1 POP PUSH2 0x2D58 DUP2 PUSH2 0x2D32 JUMP JUMPDEST SWAP3 SWAP2 POP POP JUMP JUMPDEST PUSH1 0x0 DUP1 PUSH1 0x0 DUP1 PUSH1 0x0 DUP1 PUSH1 0x0 PUSH1 0xE0 DUP9 DUP11 SUB SLT ISZERO PUSH2 0x2D7D JUMPI PUSH2 0x2D7C PUSH2 0x2959 JUMP JUMPDEST JUMPDEST PUSH1 0x0 PUSH2 0x2D8B DUP11 DUP3 DUP12 ADD PUSH2 0x2A00 JUMP JUMPDEST SWAP8 POP POP PUSH1 0x20 PUSH2 0x2D9C DUP11 DUP3 DUP12 ADD PUSH2 0x2A00 JUMP JUMPDEST SWAP7 POP POP PUSH1 0x40 PUSH2 0x2DAD DUP11 DUP3 DUP12 ADD PUSH2 0x2975 JUMP JUMPDEST SWAP6 POP POP PUSH1 0x60 PUSH2 0x2DBE DUP11 DUP3 DUP12 ADD PUSH2 0x2975 JUMP JUMPDEST SWAP5 POP POP PUSH1 0x80 PUSH2 0x2DCF DUP11 DUP3 DUP12 ADD PUSH2 0x2D1D JUMP JUMPDEST SWAP4 POP POP PUSH1 0xA0 PUSH2 0x2DE0 DUP11 DUP3 DUP12 ADD PUSH2 0x2D49 JUMP JUMPDEST SWAP3 POP POP PUSH1 0xC0 PUSH2 0x2DF1 DUP11 DUP3 DUP12 ADD PUSH2 0x2D49 JUMP JUMPDEST SWAP2 POP POP SWAP3 SWAP6 SWAP9 SWAP2 SWAP5 SWAP8 POP SWAP3 SWAP6 POP JUMP JUMPDEST PUSH1 0x0 DUP1 PUSH1 0x40 DUP4 DUP6 SUB SLT ISZERO PUSH2 0x2E17 JUMPI PUSH2 0x2E16 PUSH2 0x2959 JUMP JUMPDEST JUMPDEST PUSH1 0x0 PUSH2 0x2E25 DUP6 DUP3 DUP7 ADD PUSH2 0x2A00 JUMP JUMPDEST SWAP3 POP POP PUSH1 0x20 PUSH2 0x2E36 DUP6 DUP3 DUP7 ADD PUSH2 0x2A00 JUMP JUMPDEST SWAP2 POP POP SWAP3 POP SWAP3 SWAP1 POP JUMP JUMPDEST PUSH1 0x0 DUP2 MLOAD SWAP1 POP PUSH2 0x2E4F DUP2 PUSH2 0x295E JUMP JUMPDEST SWAP3 SWAP2 POP POP JUMP JUMPDEST PUSH1 0x0 PUSH1 0x20 DUP3 DUP5 SUB SLT ISZERO PUSH2 0x2E6B JUMPI PUSH2 0x2E6A PUSH2 0x2959 JUMP JUMPDEST JUMPDEST PUSH1 0x0 PUSH2 0x2E79 DUP5 DUP3 DUP6 ADD PUSH2 0x2E40 JUMP JUMPDEST SWAP2 POP POP SWAP3 SWAP2 POP POP JUMP JUMPDEST PUSH32 0x4E487B7100000000000000000000000000000000000000000000000000000000 PUSH1 0x0 MSTORE PUSH1 0x22 PUSH1 0x4 MSTORE PUSH1 0x24 PUSH1 0x0 REVERT JUMPDEST PUSH1 0x0 PUSH1 0x2 DUP3 DIV SWAP1 POP PUSH1 0x1 DUP3 AND DUP1 PUSH2 0x2EC9 JUMPI PUSH1 0x7F DUP3 AND SWAP2 POP JUMPDEST PUSH1 0x20 DUP3 LT DUP2 SUB PUSH2 0x2EDC JUMPI PUSH2 0x2EDB PUSH2 0x2E82 JUMP JUMPDEST JUMPDEST POP SWAP2 SWAP1 POP JUMP JUMPDEST PUSH32 0x4E487B7100000000000000000000000000000000000000000000000000000000 PUSH1 0x0 MSTORE PUSH1 0x11 PUSH1 0x4 MSTORE PUSH1 0x24 PUSH1 0x0 REVERT JUMPDEST PUSH1 0x0 PUSH2 0x2F1C DUP3 PUSH2 0x2873 JUMP JUMPDEST SWAP2 POP PUSH2 0x2F27 DUP4 PUSH2 0x2873 JUMP JUMPDEST SWAP3 POP DUP3 DUP3 SUB SWAP1 POP DUP2 DUP2 GT ISZERO PUSH2 0x2F3F JUMPI PUSH2 0x2F3E PUSH2 0x2EE2 JUMP JUMPDEST JUMPDEST SWAP3 SWAP2 POP POP JUMP JUMPDEST PUSH32 0x4F776E61626C653A2063616C6C6572206973206E6F7420746865206D616E6167 PUSH1 0x0 DUP3 ADD MSTORE PUSH32 0x6572000000000000000000000000000000000000000000000000000000000000 PUSH1 0x20 DUP3 ADD MSTORE POP JUMP JUMPDEST PUSH1 0x0 PUSH2 0x2FA1 PUSH1 0x22 DUP4 PUSH2 0x28B2 JUMP JUMPDEST SWAP2 POP PUSH2 0x2FAC DUP3 PUSH2 0x2F45 JUMP JUMPDEST PUSH1 0x40 DUP3 ADD SWAP1 POP SWAP2 SWAP1 POP JUMP JUMPDEST PUSH1 0x0 PUSH1 0x20 DUP3 ADD SWAP1 POP DUP2 DUP2 SUB PUSH1 0x0 DUP4 ADD MSTORE PUSH2 0x2FD0 DUP2 PUSH2 0x2F94 JUMP JUMPDEST SWAP1 POP SWAP2 SWAP1 POP JUMP JUMPDEST PUSH1 0x0 DUP2 MLOAD SWAP1 POP PUSH2 0x2FE6 DUP2 PUSH2 0x2D06 JUMP JUMPDEST SWAP3 SWAP2 POP POP JUMP JUMPDEST PUSH1 0x0 PUSH1 0x20 DUP3 DUP5 SUB SLT ISZERO PUSH2 0x3002 JUMPI PUSH2 0x3001 PUSH2 0x2959 JUMP JUMPDEST JUMPDEST PUSH1 0x0 PUSH2 0x3010 DUP5 DUP3 DUP6 ADD PUSH2 0x2FD7 JUMP JUMPDEST SWAP2 POP POP SWAP3 SWAP2 POP POP JUMP JUMPDEST PUSH32 0x57524F4E475F444543494D414C53000000000000000000000000000000000000 PUSH1 0x0 DUP3 ADD MSTORE POP JUMP JUMPDEST PUSH1 0x0 PUSH2 0x304F PUSH1 0xE DUP4 PUSH2 0x28B2 JUMP JUMPDEST SWAP2 POP PUSH2 0x305A DUP3 PUSH2 0x3019 JUMP JUMPDEST PUSH1 0x20 DUP3 ADD SWAP1 POP SWAP2 SWAP1 POP JUMP JUMPDEST PUSH1 0x0 PUSH1 0x20 DUP3 ADD SWAP1 POP DUP2 DUP2 SUB PUSH1 0x0 DUP4 ADD MSTORE PUSH2 0x307E DUP2 PUSH2 0x3042 JUMP JUMPDEST SWAP1 POP SWAP2 SWAP1 POP JUMP JUMPDEST PUSH32 0x5A45524F5F534841524553000000000000000000000000000000000000000000 PUSH1 0x0 DUP3 ADD MSTORE POP JUMP JUMPDEST PUSH1 0x0 PUSH2 0x30BB PUSH1 0xB DUP4 PUSH2 0x28B2 JUMP JUMPDEST SWAP2 POP PUSH2 0x30C6 DUP3 PUSH2 0x3085 JUMP JUMPDEST PUSH1 0x20 DUP3 ADD SWAP1 POP SWAP2 SWAP1 POP JUMP JUMPDEST PUSH1 0x0 PUSH1 0x20 DUP3 ADD SWAP1 POP DUP2 DUP2 SUB PUSH1 0x0 DUP4 ADD MSTORE PUSH2 0x30EA DUP2 PUSH2 0x30AE JUMP JUMPDEST SWAP1 POP SWAP2 SWAP1 POP JUMP JUMPDEST PUSH1 0x0 PUSH1 0x40 DUP3 ADD SWAP1 POP PUSH2 0x3106 PUSH1 0x0 DUP4 ADD DUP6 PUSH2 0x287D JUMP JUMPDEST PUSH2 0x3113 PUSH1 0x20 DUP4 ADD DUP5 PUSH2 0x287D JUMP JUMPDEST SWAP4 SWAP3 POP POP POP JUMP JUMPDEST PUSH32 0x4645455F544F4F5F484947480000000000000000000000000000000000000000 PUSH1 0x0 DUP3 ADD MSTORE POP JUMP JUMPDEST PUSH1 0x0 PUSH2 0x3150 PUSH1 0xC DUP4 PUSH2 0x28B2 JUMP JUMPDEST SWAP2 POP PUSH2 0x315B DUP3 PUSH2 0x311A JUMP JUMPDEST PUSH1 0x20 DUP3 ADD SWAP1 POP SWAP2 SWAP1 POP JUMP JUMPDEST PUSH1 0x0 PUSH1 0x20 DUP3 ADD SWAP1 POP DUP2 DUP2 SUB PUSH1 0x0 DUP4 ADD MSTORE PUSH2 0x317F DUP2 PUSH2 0x3143 JUMP JUMPDEST SWAP1 POP SWAP2 SWAP1 POP JUMP JUMPDEST PUSH1 0x0 PUSH1 0x40 DUP3 ADD SWAP1 POP PUSH2 0x319B PUSH1 0x0 DUP4 ADD DUP6 PUSH2 0x2C49 JUMP JUMPDEST PUSH2 0x31A8 PUSH1 0x20 DUP4 ADD DUP5 PUSH2 0x287D JUMP JUMPDEST SWAP4 SWAP3 POP POP POP JUMP JUMPDEST PUSH1 0x0 DUP2 MLOAD SWAP1 POP PUSH2 0x31BE DUP2 PUSH2 0x2B15 JUMP JUMPDEST SWAP3 SWAP2 POP POP JUMP JUMPDEST PUSH1 0x0 PUSH1 0x20 DUP3 DUP5 SUB SLT ISZERO PUSH2 0x31DA JUMPI PUSH2 0x31D9 PUSH2 0x2959 JUMP JUMPDEST JUMPDEST PUSH1 0x0 PUSH2 0x31E8 DUP5 DUP3 DUP6 ADD PUSH2 0x31AF JUMP JUMPDEST SWAP2 POP POP SWAP3 SWAP2 POP POP JUMP JUMPDEST PUSH32 0x5A45524F5F415353455453000000000000000000000000000000000000000000 PUSH1 0x0 DUP3 ADD MSTORE POP JUMP JUMPDEST PUSH1 0x0 PUSH2 0x3227 PUSH1 0xB DUP4 PUSH2 0x28B2 JUMP JUMPDEST SWAP2 POP PUSH2 0x3232 DUP3 PUSH2 0x31F1 JUMP JUMPDEST PUSH1 0x20 DUP3 ADD SWAP1 POP SWAP2 SWAP1 POP JUMP JUMPDEST PUSH1 0x0 PUSH1 0x20 DUP3 ADD SWAP1 POP DUP2 DUP2 SUB PUSH1 0x0 DUP4 ADD MSTORE PUSH2 0x3256 DUP2 PUSH2 0x321A JUMP JUMPDEST SWAP1 POP SWAP2 SWAP1 POP JUMP JUMPDEST PUSH32 0x5441524745545F544F4F5F484947480000000000000000000000000000000000 PUSH1 0x0 DUP3 ADD MSTORE POP JUMP JUMPDEST PUSH1 0x0 PUSH2 0x3293 PUSH1 0xF DUP4 PUSH2 0x28B2 JUMP JUMPDEST SWAP2 POP PUSH2 0x329E DUP3 PUSH2 0x325D JUMP JUMPDEST PUSH1 0x20 DUP3 ADD SWAP1 POP SWAP2 SWAP1 POP JUMP JUMPDEST PUSH1 0x0 PUSH1 0x20 DUP3 ADD SWAP1 POP DUP2 DUP2 SUB PUSH1 0x0 DUP4 ADD MSTORE PUSH2 0x32C2 DUP2 PUSH2 0x3286 JUMP JUMPDEST SWAP1 POP SWAP2 SWAP1 POP JUMP JUMPDEST PUSH32 0x5045524D49545F444541444C494E455F45585049524544000000000000000000 PUSH1 0x0 DUP3 ADD MSTORE POP JUMP JUMPDEST PUSH1 0x0 PUSH2 0x32FF PUSH1 0x17 DUP4 PUSH2 0x28B2 JUMP JUMPDEST SWAP2 POP PUSH2 0x330A DUP3 PUSH2 0x32C9 JUMP JUMPDEST PUSH1 0x20 DUP3 ADD SWAP1 POP SWAP2 SWAP1 POP JUMP JUMPDEST PUSH1 0x0 PUSH1 0x20 DUP3 ADD SWAP1 POP DUP2 DUP2 SUB PUSH1 0x0 DUP4 ADD MSTORE PUSH2 0x332E DUP2 PUSH2 0x32F2 JUMP JUMPDEST SWAP1 POP SWAP2 SWAP1 POP JUMP JUMPDEST PUSH1 0x0 PUSH1 0xC0 DUP3 ADD SWAP1 POP PUSH2 0x334A PUSH1 0x0 DUP4 ADD DUP10 PUSH2 0x2B78 JUMP JUMPDEST PUSH2 0x3357 PUSH1 0x20 DUP4 ADD DUP9 PUSH2 0x2C49 JUMP JUMPDEST PUSH2 0x3364 PUSH1 0x40 DUP4 ADD DUP8 PUSH2 0x2C49 JUMP JUMPDEST PUSH2 0x3371 PUSH1 0x60 DUP4 ADD DUP7 PUSH2 0x287D JUMP JUMPDEST PUSH2 0x337E PUSH1 0x80 DUP4 ADD DUP6 PUSH2 0x287D JUMP JUMPDEST PUSH2 0x338B PUSH1 0xA0 DUP4 ADD DUP5 PUSH2 0x287D JUMP JUMPDEST SWAP8 SWAP7 POP POP POP POP POP POP POP JUMP JUMPDEST PUSH1 0x0 DUP2 SWAP1 POP SWAP3 SWAP2 POP POP JUMP JUMPDEST PUSH32 0x1901000000000000000000000000000000000000000000000000000000000000 PUSH1 0x0 DUP3 ADD MSTORE POP JUMP JUMPDEST PUSH1 0x0 PUSH2 0x33D7 PUSH1 0x2 DUP4 PUSH2 0x3396 JUMP JUMPDEST SWAP2 POP PUSH2 0x33E2 DUP3 PUSH2 0x33A1 JUMP JUMPDEST PUSH1 0x2 DUP3 ADD SWAP1 POP SWAP2 SWAP1 POP JUMP JUMPDEST PUSH1 0x0 DUP2 SWAP1 POP SWAP2 SWAP1 POP JUMP JUMPDEST PUSH2 0x3408 PUSH2 0x3403 DUP3 PUSH2 0x2B6E JUMP JUMPDEST PUSH2 0x33ED JUMP JUMPDEST DUP3 MSTORE POP POP JUMP JUMPDEST PUSH1 0x0 PUSH2 0x3419 DUP3 PUSH2 0x33CA JUMP JUMPDEST SWAP2 POP PUSH2 0x3425 DUP3 DUP6 PUSH2 0x33F7 JUMP JUMPDEST PUSH1 0x20 DUP3 ADD SWAP2 POP PUSH2 0x3435 DUP3 DUP5 PUSH2 0x33F7 JUMP JUMPDEST PUSH1 0x20 DUP3 ADD SWAP2 POP DUP2 SWAP1 POP SWAP4 SWAP3 POP POP POP JUMP JUMPDEST PUSH1 0x0 PUSH1 0x80 DUP3 ADD SWAP1 POP PUSH2 0x345A PUSH1 0x0 DUP4 ADD DUP8 PUSH2 0x2B78 JUMP JUMPDEST PUSH2 0x3467 PUSH1 0x20 DUP4 ADD DUP7 PUSH2 0x2AEB JUMP JUMPDEST PUSH2 0x3474 PUSH1 0x40 DUP4 ADD DUP6 PUSH2 0x2B78 JUMP JUMPDEST PUSH2 0x3481 PUSH1 0x60 DUP4 ADD DUP5 PUSH2 0x2B78 JUMP JUMPDEST SWAP6 SWAP5 POP POP POP POP POP JUMP JUMPDEST PUSH32 0x494E56414C49445F5349474E4552000000000000000000000000000000000000 PUSH1 0x0 DUP3 ADD MSTORE POP JUMP JUMPDEST PUSH1 0x0 PUSH2 0x34C0 PUSH1 0xE DUP4 PUSH2 0x28B2 JUMP JUMPDEST SWAP2 POP PUSH2 0x34CB DUP3 PUSH2 0x348A JUMP JUMPDEST PUSH1 0x20 DUP3 ADD SWAP1 POP SWAP2 SWAP1 POP JUMP JUMPDEST PUSH1 0x0 PUSH1 0x20 DUP3 ADD SWAP1 POP DUP2 DUP2 SUB PUSH1 0x0 DUP4 ADD MSTORE PUSH2 0x34EF DUP2 PUSH2 0x34B3 JUMP JUMPDEST SWAP1 POP SWAP2 SWAP1 POP JUMP JUMPDEST PUSH32 0x4F776E61626C653A206E6577206D616E6167657220697320746865207A65726F PUSH1 0x0 DUP3 ADD MSTORE PUSH32 0x2061646472657373000000000000000000000000000000000000000000000000 PUSH1 0x20 DUP3 ADD MSTORE POP JUMP JUMPDEST PUSH1 0x0 PUSH2 0x3552 PUSH1 0x28 DUP4 PUSH2 0x28B2 JUMP JUMPDEST SWAP2 POP PUSH2 0x355D DUP3 PUSH2 0x34F6 JUMP JUMPDEST PUSH1 0x40 DUP3 ADD SWAP1 POP SWAP2 SWAP1 POP JUMP JUMPDEST PUSH1 0x0 PUSH1 0x20 DUP3 ADD SWAP1 POP DUP2 DUP2 SUB PUSH1 0x0 DUP4 ADD MSTORE PUSH2 0x3581 DUP2 PUSH2 0x3545 JUMP JUMPDEST SWAP1 POP SWAP2 SWAP1 POP JUMP JUMPDEST PUSH1 0x0 DUP2 SWAP1 POP SWAP3 SWAP2 POP POP JUMP JUMPDEST PUSH1 0x0 DUP2 SWAP1 POP DUP2 PUSH1 0x0 MSTORE PUSH1 0x20 PUSH1 0x0 KECCAK256 SWAP1 POP SWAP2 SWAP1 POP JUMP JUMPDEST PUSH1 0x0 DUP2 SLOAD PUSH2 0x35B5 DUP2 PUSH2 0x2EB1 JUMP JUMPDEST PUSH2 0x35BF DUP2 DUP7 PUSH2 0x3588 JUMP JUMPDEST SWAP5 POP PUSH1 0x1 DUP3 AND PUSH1 0x0 DUP2 EQ PUSH2 0x35DA JUMPI PUSH1 0x1 DUP2 EQ PUSH2 0x35EF JUMPI PUSH2 0x3622 JUMP JUMPDEST PUSH1 0xFF NOT DUP4 AND DUP7 MSTORE DUP2 ISZERO ISZERO DUP3 MUL DUP7 ADD SWAP4 POP PUSH2 0x3622 JUMP JUMPDEST PUSH2 0x35F8 DUP6 PUSH2 0x3593 JUMP JUMPDEST PUSH1 0x0 JUMPDEST DUP4 DUP2 LT ISZERO PUSH2 0x361A JUMPI DUP2 SLOAD DUP2 DUP10 ADD MSTORE PUSH1 0x1 DUP3 ADD SWAP2 POP PUSH1 0x20 DUP2 ADD SWAP1 POP PUSH2 0x35FB JUMP JUMPDEST DUP4 DUP9 ADD SWAP6 POP POP POP JUMPDEST POP POP POP SWAP3 SWAP2 POP POP JUMP JUMPDEST PUSH1 0x0 PUSH2 0x3637 DUP3 DUP5 PUSH2 0x35A8 JUMP JUMPDEST SWAP2 POP DUP2 SWAP1 POP SWAP3 SWAP2 POP POP JUMP JUMPDEST PUSH1 0x0 PUSH1 0xA0 DUP3 ADD SWAP1 POP PUSH2 0x3657 PUSH1 0x0 DUP4 ADD DUP9 PUSH2 0x2B78 JUMP JUMPDEST PUSH2 0x3664 PUSH1 0x20 DUP4 ADD DUP8 PUSH2 0x2B78 JUMP JUMPDEST PUSH2 0x3671 PUSH1 0x40 DUP4 ADD DUP7 PUSH2 0x2B78 JUMP JUMPDEST PUSH2 0x367E PUSH1 0x60 DUP4 ADD DUP6 PUSH2 0x287D JUMP JUMPDEST PUSH2 0x368B PUSH1 0x80 DUP4 ADD DUP5 PUSH2 0x2C49 JUMP JUMPDEST SWAP7 SWAP6 POP POP POP POP POP POP JUMP JUMPDEST PUSH32 0x5452414E534645525F46524F4D5F4641494C4544000000000000000000000000 PUSH1 0x0 DUP3 ADD MSTORE POP JUMP JUMPDEST PUSH1 0x0 PUSH2 0x36CB PUSH1 0x14 DUP4 PUSH2 0x28B2 JUMP JUMPDEST SWAP2 POP PUSH2 0x36D6 DUP3 PUSH2 0x3695 JUMP JUMPDEST PUSH1 0x20 DUP3 ADD SWAP1 POP SWAP2 SWAP1 POP JUMP JUMPDEST PUSH1 0x0 PUSH1 0x20 DUP3 ADD SWAP1 POP DUP2 DUP2 SUB PUSH1 0x0 DUP4 ADD MSTORE PUSH2 0x36FA DUP2 PUSH2 0x36BE JUMP JUMPDEST SWAP1 POP SWAP2 SWAP1 POP JUMP JUMPDEST PUSH1 0x0 PUSH2 0x370C DUP3 PUSH2 0x2873 JUMP JUMPDEST SWAP2 POP PUSH2 0x3717 DUP4 PUSH2 0x2873 JUMP JUMPDEST SWAP3 POP DUP3 DUP3 ADD SWAP1 POP DUP1 DUP3 GT ISZERO PUSH2 0x372F JUMPI PUSH2 0x372E PUSH2 0x2EE2 JUMP JUMPDEST JUMPDEST SWAP3 SWAP2 POP POP JUMP JUMPDEST PUSH1 0x0 PUSH2 0x3740 DUP3 PUSH2 0x2873 JUMP JUMPDEST SWAP2 POP PUSH32 0xFFFFFFFFFFFFFFFFFFFFFFFFFFFFFFFFFFFFFFFFFFFFFFFFFFFFFFFFFFFFFFFF DUP3 SUB PUSH2 0x3772 JUMPI PUSH2 0x3771 PUSH2 0x2EE2 JUMP JUMPDEST JUMPDEST PUSH1 0x1 DUP3 ADD SWAP1 POP SWAP2 SWAP1 POP JUMP JUMPDEST PUSH32 0x5452414E534645525F4641494C45440000000000000000000000000000000000 PUSH1 0x0 DUP3 ADD MSTORE POP JUMP JUMPDEST PUSH1 0x0 PUSH2 0x37B3 PUSH1 0xF DUP4 PUSH2 0x28B2 JUMP JUMPDEST SWAP2 POP PUSH2 0x37BE DUP3 PUSH2 0x377D JUMP JUMPDEST PUSH1 0x20 DUP3 ADD SWAP1 POP SWAP2 SWAP1 POP JUMP JUMPDEST PUSH1 0x0 PUSH1 0x20 DUP3 ADD SWAP1 POP DUP2 DUP2 SUB PUSH1 0x0 DUP4 ADD MSTORE PUSH2 0x37E2 DUP2 PUSH2 0x37A6 JUMP JUMPDEST SWAP1 POP SWAP2 SWAP1 POP JUMP INVALID LOG2 PUSH5 0x6970667358 0x22 SLT KECCAK256 0x1F 0x26 SWAP9 AND CREATE DUP13 XOR COINBASE 0xD1 ADD SWAP12 0xB9 0xC2 0xBE SWAP13 GASLIMIT RETURNDATASIZE CALLVALUE 0x5F SELFDESTRUCT 0xB2 GT 0xE5 SWAP5 0xE7 OR 0xCB DUP9 DUP4 0xB5 SWAP5 SWAP8 PUSH5 0x736F6C6343 STOP ADDMOD LT STOP CALLER "
				},
				"gasEstimates": {
					"creation": {
						"codeDepositCost": "2873400",
						"executionCost": "infinite",
						"totalCost": "infinite"
					},
					"external": {
						"DOMAIN_SEPARATOR()": "infinite",
						"UNDERLYING()": "infinite",
						"afterDepositHookCalledCounter()": "2583",
						"allowance(address,address)": "infinite",
						"approve(address,uint256)": "infinite",
						"asset()": "infinite",
						"balanceOf(address)": "2903",
						"beforeWithdrawHookCalledCounter()": "2540",
						"claimFees(uint256)": "infinite",
						"convertToAssets(uint256)": "infinite",
						"convertToShares(uint256)": "infinite",
						"decimals()": "infinite",
						"deposit(uint256,address)": "infinite",
						"exchangeRate()": "infinite",
						"feePercent()": "2475",
						"manager()": "2656",
						"maxDeposit(address)": "763",
						"maxMint(address)": "696",
						"maxRedeem(address)": "2974",
						"maxWithdraw(address)": "infinite",
						"mint(uint256,address)": "infinite",
						"name()": "infinite",
						"nonces(address)": "2969",
						"permit(address,address,uint256,uint256,uint8,bytes32,bytes32)": "infinite",
						"previewDeposit(uint256)": "infinite",
						"previewMint(uint256)": "infinite",
						"previewRedeem(uint256)": "infinite",
						"previewWithdraw(uint256)": "infinite",
						"redeem(uint256,address,address)": "infinite",
						"renounceOwnership()": "30408",
						"setFeePercent(uint256)": "infinite",
						"setTargetFloatPercent(uint256)": "infinite",
						"setUnderlyingIsWETH(bool)": "infinite",
						"symbol()": "infinite",
						"targetFloatPercent()": "2497",
						"totalAssets()": "infinite",
						"totalStrategyHoldings()": "2495",
						"totalSupply()": "2475",
						"transfer(address,uint256)": "infinite",
						"transferFrom(address,address,uint256)": "infinite",
						"transferOwnership(address)": "30753",
						"underlyingIsWETH()": "2603",
						"withdraw(uint256,address,address)": "infinite"
					},
					"internal": {
						"afterDeposit(uint256,uint256)": "24370",
						"beforeWithdraw(uint256,uint256)": "24370",
						"strategyACall(address,uint256,uint160)": "infinite"
					}
				},
				"methodIdentifiers": {
					"DOMAIN_SEPARATOR()": "3644e515",
					"UNDERLYING()": "c5d664c6",
					"afterDepositHookCalledCounter()": "fc407ae7",
					"allowance(address,address)": "dd62ed3e",
					"approve(address,uint256)": "095ea7b3",
					"asset()": "38d52e0f",
					"balanceOf(address)": "70a08231",
					"beforeWithdrawHookCalledCounter()": "bc368a8a",
					"claimFees(uint256)": "ac68a748",
					"convertToAssets(uint256)": "07a2d13a",
					"convertToShares(uint256)": "c6e6f592",
					"decimals()": "313ce567",
					"deposit(uint256,address)": "6e553f65",
					"exchangeRate()": "3ba0b9a9",
					"feePercent()": "7fd6f15c",
					"manager()": "481c6a75",
					"maxDeposit(address)": "402d267d",
					"maxMint(address)": "c63d75b6",
					"maxRedeem(address)": "d905777e",
					"maxWithdraw(address)": "ce96cb77",
					"mint(uint256,address)": "94bf804d",
					"name()": "06fdde03",
					"nonces(address)": "7ecebe00",
					"permit(address,address,uint256,uint256,uint8,bytes32,bytes32)": "d505accf",
					"previewDeposit(uint256)": "ef8b30f7",
					"previewMint(uint256)": "b3d7f6b9",
					"previewRedeem(uint256)": "4cdad506",
					"previewWithdraw(uint256)": "0a28a477",
					"redeem(uint256,address,address)": "ba087652",
					"renounceOwnership()": "715018a6",
					"setFeePercent(uint256)": "7ce3489b",
					"setTargetFloatPercent(uint256)": "bd662f88",
					"setUnderlyingIsWETH(bool)": "32ff7732",
					"symbol()": "95d89b41",
					"targetFloatPercent()": "1c693478",
					"totalAssets()": "01e1d114",
					"totalStrategyHoldings()": "ecad9565",
					"totalSupply()": "18160ddd",
					"transfer(address,uint256)": "a9059cbb",
					"transferFrom(address,address,uint256)": "23b872dd",
					"transferOwnership(address)": "f2fde38b",
					"underlyingIsWETH()": "f84d73f4",
					"withdraw(uint256,address,address)": "b460af94"
				}
			},
			"storageLayout": {
				"storage": [
					{
						"astId": 20,
						"contract": "SquiddyCore.sol:SquiddyCore",
						"label": "name",
						"offset": 0,
						"slot": "0",
						"type": "t_string_storage"
					},
					{
						"astId": 22,
						"contract": "SquiddyCore.sol:SquiddyCore",
						"label": "symbol",
						"offset": 0,
						"slot": "1",
						"type": "t_string_storage"
					},
					{
						"astId": 26,
						"contract": "SquiddyCore.sol:SquiddyCore",
						"label": "totalSupply",
						"offset": 0,
						"slot": "2",
						"type": "t_uint256"
					},
					{
						"astId": 30,
						"contract": "SquiddyCore.sol:SquiddyCore",
						"label": "balanceOf",
						"offset": 0,
						"slot": "3",
						"type": "t_mapping(t_address,t_uint256)"
					},
					{
						"astId": 36,
						"contract": "SquiddyCore.sol:SquiddyCore",
						"label": "allowance",
						"offset": 0,
						"slot": "4",
						"type": "t_mapping(t_address,t_mapping(t_address,t_uint256))"
					},
					{
						"astId": 44,
						"contract": "SquiddyCore.sol:SquiddyCore",
						"label": "nonces",
						"offset": 0,
						"slot": "5",
						"type": "t_mapping(t_address,t_uint256)"
					},
					{
						"astId": 1122,
						"contract": "SquiddyCore.sol:SquiddyCore",
						"label": "_manager",
						"offset": 0,
						"slot": "6",
						"type": "t_address"
					},
					{
						"astId": 1125,
						"contract": "SquiddyCore.sol:SquiddyCore",
						"label": "beforeWithdrawHookCalledCounter",
						"offset": 0,
						"slot": "7",
						"type": "t_uint256"
					},
					{
						"astId": 1128,
						"contract": "SquiddyCore.sol:SquiddyCore",
						"label": "afterDepositHookCalledCounter",
						"offset": 0,
						"slot": "8",
						"type": "t_uint256"
					},
					{
						"astId": 1306,
						"contract": "SquiddyCore.sol:SquiddyCore",
						"label": "feePercent",
						"offset": 0,
						"slot": "9",
						"type": "t_uint256"
					},
					{
						"astId": 1359,
						"contract": "SquiddyCore.sol:SquiddyCore",
						"label": "targetFloatPercent",
						"offset": 0,
						"slot": "10",
						"type": "t_uint256"
					},
					{
						"astId": 1388,
						"contract": "SquiddyCore.sol:SquiddyCore",
						"label": "underlyingIsWETH",
						"offset": 0,
						"slot": "11",
						"type": "t_bool"
					},
					{
						"astId": 1422,
						"contract": "SquiddyCore.sol:SquiddyCore",
						"label": "totalStrategyHoldings",
						"offset": 0,
						"slot": "12",
						"type": "t_uint256"
					}
				],
				"types": {
					"t_address": {
						"encoding": "inplace",
						"label": "address",
						"numberOfBytes": "20"
					},
					"t_bool": {
						"encoding": "inplace",
						"label": "bool",
						"numberOfBytes": "1"
					},
					"t_mapping(t_address,t_mapping(t_address,t_uint256))": {
						"encoding": "mapping",
						"key": "t_address",
						"label": "mapping(address => mapping(address => uint256))",
						"numberOfBytes": "32",
						"value": "t_mapping(t_address,t_uint256)"
					},
					"t_mapping(t_address,t_uint256)": {
						"encoding": "mapping",
						"key": "t_address",
						"label": "mapping(address => uint256)",
						"numberOfBytes": "32",
						"value": "t_uint256"
					},
					"t_string_storage": {
						"encoding": "bytes",
						"label": "string",
						"numberOfBytes": "32"
					},
					"t_uint256": {
						"encoding": "inplace",
						"label": "uint256",
						"numberOfBytes": "32"
					}
				}
			},
			"userdoc": {
				"kind": "user",
				"methods": {
					"claimFees(uint256)": {
						"notice": "Claims fees accrued from harvests."
					},
					"exchangeRate()": {
						"notice": "Returns the amount of underlying tokens an rvToken can be redeemed for."
					},
					"feePercent()": {
						"notice": "The percentage of profit recognized each harvest to reserve as fees."
					},
					"setFeePercent(uint256)": {
						"notice": "Sets a new fee percentage."
					},
					"setTargetFloatPercent(uint256)": {
						"notice": "Set a new target float percentage."
					},
					"setUnderlyingIsWETH(bool)": {
						"notice": "Sets whether the Vault treats the underlying as WETH."
					},
					"targetFloatPercent()": {
						"notice": "The desired percentage of the Vault's holdings to keep as float."
					},
					"totalStrategyHoldings()": {
						"notice": "The total amount of underlying tokens held in strategies at the time of the last harvest."
					},
					"underlyingIsWETH()": {
						"notice": "Whether the Vault should treat the underlying token as WETH compatible."
					}
				},
				"version": 1
			}
		}
	}
}