{
	"SquiddyCore.sol": {
		"SquiddyCore": {
			"abi": [
				{
					"inputs": [
						{
							"internalType": "contract ERC20",
							"name": "_underlying",
							"type": "address"
						},
						{
							"internalType": "string",
							"name": "_name",
							"type": "string"
						},
						{
							"internalType": "string",
							"name": "_symbol",
							"type": "string"
						},
						{
							"internalType": "uint8",
							"name": "_decimals",
							"type": "uint8"
						}
					],
					"stateMutability": "nonpayable",
					"type": "constructor"
				},
				{
					"anonymous": false,
					"inputs": [
						{
							"indexed": true,
							"internalType": "address",
							"name": "owner",
							"type": "address"
						},
						{
							"indexed": true,
							"internalType": "address",
							"name": "spender",
							"type": "address"
						},
						{
							"indexed": false,
							"internalType": "uint256",
							"name": "amount",
							"type": "uint256"
						}
					],
					"name": "Approval",
					"type": "event"
				},
				{
					"anonymous": false,
					"inputs": [
						{
							"indexed": true,
							"internalType": "address",
							"name": "caller",
							"type": "address"
						},
						{
							"indexed": true,
							"internalType": "address",
							"name": "owner",
							"type": "address"
						},
						{
							"indexed": false,
							"internalType": "uint256",
							"name": "assets",
							"type": "uint256"
						},
						{
							"indexed": false,
							"internalType": "uint256",
							"name": "shares",
							"type": "uint256"
						}
					],
					"name": "Deposit",
					"type": "event"
				},
				{
					"anonymous": false,
					"inputs": [
						{
							"indexed": true,
							"internalType": "address",
							"name": "user",
							"type": "address"
						},
						{
							"indexed": false,
							"internalType": "uint256",
							"name": "newFeePercent",
							"type": "uint256"
						}
					],
					"name": "FeePercentUpdated",
					"type": "event"
				},
				{
					"anonymous": false,
					"inputs": [
						{
							"indexed": true,
							"internalType": "address",
							"name": "user",
							"type": "address"
						},
						{
							"indexed": false,
							"internalType": "uint256",
							"name": "sVTokenAmount",
							"type": "uint256"
						}
					],
					"name": "FeesClaimed",
					"type": "event"
				},
				{
					"anonymous": false,
					"inputs": [
						{
							"indexed": true,
							"internalType": "address",
							"name": "vault",
							"type": "address"
						},
						{
							"indexed": false,
							"internalType": "uint256",
							"name": "profitOverLoss",
							"type": "uint256"
						}
					],
					"name": "HarvestStrategyA",
					"type": "event"
				},
				{
					"anonymous": false,
					"inputs": [
						{
							"indexed": true,
							"internalType": "address",
							"name": "vault",
							"type": "address"
						},
						{
							"indexed": false,
							"internalType": "uint256",
							"name": "profitOverLoss",
							"type": "uint256"
						}
					],
					"name": "HarvestStrategyB",
					"type": "event"
				},
				{
					"anonymous": false,
					"inputs": [
						{
							"indexed": true,
							"internalType": "address",
							"name": "previousManager",
							"type": "address"
						},
						{
							"indexed": true,
							"internalType": "address",
							"name": "newManager",
							"type": "address"
						}
					],
					"name": "OwnershipTransferred",
					"type": "event"
				},
				{
					"anonymous": false,
					"inputs": [
						{
							"indexed": true,
							"internalType": "address",
							"name": "searcher",
							"type": "address"
						},
						{
							"indexed": true,
							"internalType": "address",
							"name": "vault",
							"type": "address"
						},
						{
							"indexed": false,
							"internalType": "uint256",
							"name": "value",
							"type": "uint256"
						},
						{
							"indexed": false,
							"internalType": "uint256",
							"name": "duration",
							"type": "uint256"
						}
					],
					"name": "StrategyAInitilized",
					"type": "event"
				},
				{
					"anonymous": false,
					"inputs": [
						{
							"indexed": true,
							"internalType": "address",
							"name": "stakePoolContract",
							"type": "address"
						},
						{
							"indexed": true,
							"internalType": "address",
							"name": "vault",
							"type": "address"
						},
						{
							"indexed": false,
							"internalType": "uint256",
							"name": "value",
							"type": "uint256"
						},
						{
							"indexed": false,
							"internalType": "uint256",
							"name": "duration",
							"type": "uint256"
						}
					],
					"name": "StrategyBInitilized",
					"type": "event"
				},
				{
					"anonymous": false,
					"inputs": [
						{
							"indexed": true,
							"internalType": "address",
							"name": "user",
							"type": "address"
						},
						{
							"indexed": false,
							"internalType": "uint256",
							"name": "newTargetFloatPercent",
							"type": "uint256"
						}
					],
					"name": "TargetFloatPercentUpdated",
					"type": "event"
				},
				{
					"anonymous": false,
					"inputs": [
						{
							"indexed": true,
							"internalType": "address",
							"name": "from",
							"type": "address"
						},
						{
							"indexed": true,
							"internalType": "address",
							"name": "to",
							"type": "address"
						},
						{
							"indexed": false,
							"internalType": "uint256",
							"name": "amount",
							"type": "uint256"
						}
					],
					"name": "Transfer",
					"type": "event"
				},
				{
					"anonymous": false,
					"inputs": [
						{
							"indexed": true,
							"internalType": "address",
							"name": "user",
							"type": "address"
						},
						{
							"indexed": false,
							"internalType": "bool",
							"name": "newUnderlyingIsWETH",
							"type": "bool"
						}
					],
					"name": "UnderlyingIsWETHUpdated",
					"type": "event"
				},
				{
					"anonymous": false,
					"inputs": [
						{
							"indexed": true,
							"internalType": "address",
							"name": "caller",
							"type": "address"
						},
						{
							"indexed": true,
							"internalType": "address",
							"name": "receiver",
							"type": "address"
						},
						{
							"indexed": true,
							"internalType": "address",
							"name": "owner",
							"type": "address"
						},
						{
							"indexed": false,
							"internalType": "uint256",
							"name": "assets",
							"type": "uint256"
						},
						{
							"indexed": false,
							"internalType": "uint256",
							"name": "shares",
							"type": "uint256"
						}
					],
					"name": "Withdraw",
					"type": "event"
				},
				{
					"inputs": [],
					"name": "DOMAIN_SEPARATOR",
					"outputs": [
						{
							"internalType": "bytes32",
							"name": "",
							"type": "bytes32"
						}
					],
					"stateMutability": "view",
					"type": "function"
				},
				{
					"inputs": [],
					"name": "UNDERLYING",
					"outputs": [
						{
							"internalType": "contract ERC20",
							"name": "",
							"type": "address"
						}
					],
					"stateMutability": "view",
					"type": "function"
				},
				{
					"inputs": [],
					"name": "afterDepositHookCalledCounter",
					"outputs": [
						{
							"internalType": "uint256",
							"name": "",
							"type": "uint256"
						}
					],
					"stateMutability": "view",
					"type": "function"
				},
				{
					"inputs": [
						{
							"internalType": "address",
							"name": "",
							"type": "address"
						},
						{
							"internalType": "address",
							"name": "",
							"type": "address"
						}
					],
					"name": "allowance",
					"outputs": [
						{
							"internalType": "uint256",
							"name": "",
							"type": "uint256"
						}
					],
					"stateMutability": "view",
					"type": "function"
				},
				{
					"inputs": [
						{
							"internalType": "address",
							"name": "spender",
							"type": "address"
						},
						{
							"internalType": "uint256",
							"name": "amount",
							"type": "uint256"
						}
					],
					"name": "approve",
					"outputs": [
						{
							"internalType": "bool",
							"name": "",
							"type": "bool"
						}
					],
					"stateMutability": "nonpayable",
					"type": "function"
				},
				{
					"inputs": [],
					"name": "asset",
					"outputs": [
						{
							"internalType": "contract ERC20",
							"name": "",
							"type": "address"
						}
					],
					"stateMutability": "view",
					"type": "function"
				},
				{
					"inputs": [
						{
							"internalType": "address",
							"name": "",
							"type": "address"
						}
					],
					"name": "balanceOf",
					"outputs": [
						{
							"internalType": "uint256",
							"name": "",
							"type": "uint256"
						}
					],
					"stateMutability": "view",
					"type": "function"
				},
				{
					"inputs": [],
					"name": "beforeWithdrawHookCalledCounter",
					"outputs": [
						{
							"internalType": "uint256",
							"name": "",
							"type": "uint256"
						}
					],
					"stateMutability": "view",
					"type": "function"
				},
				{
					"inputs": [
						{
							"internalType": "uint256",
							"name": "sVTokenAmount",
							"type": "uint256"
						}
					],
					"name": "claimFees",
					"outputs": [],
					"stateMutability": "nonpayable",
					"type": "function"
				},
				{
					"inputs": [
						{
							"internalType": "uint256",
							"name": "shares",
							"type": "uint256"
						}
					],
					"name": "convertToAssets",
					"outputs": [
						{
							"internalType": "uint256",
							"name": "",
							"type": "uint256"
						}
					],
					"stateMutability": "view",
					"type": "function"
				},
				{
					"inputs": [
						{
							"internalType": "uint256",
							"name": "assets",
							"type": "uint256"
						}
					],
					"name": "convertToShares",
					"outputs": [
						{
							"internalType": "uint256",
							"name": "",
							"type": "uint256"
						}
					],
					"stateMutability": "view",
					"type": "function"
				},
				{
					"inputs": [],
					"name": "decimals",
					"outputs": [
						{
							"internalType": "uint8",
							"name": "",
							"type": "uint8"
						}
					],
					"stateMutability": "view",
					"type": "function"
				},
				{
					"inputs": [
						{
							"internalType": "uint256",
							"name": "assets",
							"type": "uint256"
						},
						{
							"internalType": "address",
							"name": "receiver",
							"type": "address"
						}
					],
					"name": "deposit",
					"outputs": [
						{
							"internalType": "uint256",
							"name": "shares",
							"type": "uint256"
						}
					],
					"stateMutability": "nonpayable",
					"type": "function"
				},
				{
					"inputs": [],
					"name": "feePercent",
					"outputs": [
						{
							"internalType": "uint256",
							"name": "",
							"type": "uint256"
						}
					],
					"stateMutability": "view",
					"type": "function"
				},
				{
					"inputs": [],
					"name": "manager",
					"outputs": [
						{
							"internalType": "address",
							"name": "",
							"type": "address"
						}
					],
					"stateMutability": "view",
					"type": "function"
				},
				{
					"inputs": [
						{
							"internalType": "address",
							"name": "",
							"type": "address"
						}
					],
					"name": "maxDeposit",
					"outputs": [
						{
							"internalType": "uint256",
							"name": "",
							"type": "uint256"
						}
					],
					"stateMutability": "view",
					"type": "function"
				},
				{
					"inputs": [
						{
							"internalType": "address",
							"name": "",
							"type": "address"
						}
					],
					"name": "maxMint",
					"outputs": [
						{
							"internalType": "uint256",
							"name": "",
							"type": "uint256"
						}
					],
					"stateMutability": "view",
					"type": "function"
				},
				{
					"inputs": [
						{
							"internalType": "address",
							"name": "owner",
							"type": "address"
						}
					],
					"name": "maxRedeem",
					"outputs": [
						{
							"internalType": "uint256",
							"name": "",
							"type": "uint256"
						}
					],
					"stateMutability": "view",
					"type": "function"
				},
				{
					"inputs": [
						{
							"internalType": "address",
							"name": "owner",
							"type": "address"
						}
					],
					"name": "maxWithdraw",
					"outputs": [
						{
							"internalType": "uint256",
							"name": "",
							"type": "uint256"
						}
					],
					"stateMutability": "view",
					"type": "function"
				},
				{
					"inputs": [
						{
							"internalType": "uint256",
							"name": "shares",
							"type": "uint256"
						},
						{
							"internalType": "address",
							"name": "receiver",
							"type": "address"
						}
					],
					"name": "mint",
					"outputs": [
						{
							"internalType": "uint256",
							"name": "assets",
							"type": "uint256"
						}
					],
					"stateMutability": "nonpayable",
					"type": "function"
				},
				{
					"inputs": [],
					"name": "name",
					"outputs": [
						{
							"internalType": "string",
							"name": "",
							"type": "string"
						}
					],
					"stateMutability": "view",
					"type": "function"
				},
				{
					"inputs": [
						{
							"internalType": "address",
							"name": "",
							"type": "address"
						}
					],
					"name": "nonces",
					"outputs": [
						{
							"internalType": "uint256",
							"name": "",
							"type": "uint256"
						}
					],
					"stateMutability": "view",
					"type": "function"
				},
				{
					"inputs": [
						{
							"internalType": "address",
							"name": "owner",
							"type": "address"
						},
						{
							"internalType": "address",
							"name": "spender",
							"type": "address"
						},
						{
							"internalType": "uint256",
							"name": "value",
							"type": "uint256"
						},
						{
							"internalType": "uint256",
							"name": "deadline",
							"type": "uint256"
						},
						{
							"internalType": "uint8",
							"name": "v",
							"type": "uint8"
						},
						{
							"internalType": "bytes32",
							"name": "r",
							"type": "bytes32"
						},
						{
							"internalType": "bytes32",
							"name": "s",
							"type": "bytes32"
						}
					],
					"name": "permit",
					"outputs": [],
					"stateMutability": "nonpayable",
					"type": "function"
				},
				{
					"inputs": [
						{
							"internalType": "uint256",
							"name": "assets",
							"type": "uint256"
						}
					],
					"name": "previewDeposit",
					"outputs": [
						{
							"internalType": "uint256",
							"name": "",
							"type": "uint256"
						}
					],
					"stateMutability": "view",
					"type": "function"
				},
				{
					"inputs": [
						{
							"internalType": "uint256",
							"name": "shares",
							"type": "uint256"
						}
					],
					"name": "previewMint",
					"outputs": [
						{
							"internalType": "uint256",
							"name": "",
							"type": "uint256"
						}
					],
					"stateMutability": "view",
					"type": "function"
				},
				{
					"inputs": [
						{
							"internalType": "uint256",
							"name": "shares",
							"type": "uint256"
						}
					],
					"name": "previewRedeem",
					"outputs": [
						{
							"internalType": "uint256",
							"name": "",
							"type": "uint256"
						}
					],
					"stateMutability": "view",
					"type": "function"
				},
				{
					"inputs": [
						{
							"internalType": "uint256",
							"name": "assets",
							"type": "uint256"
						}
					],
					"name": "previewWithdraw",
					"outputs": [
						{
							"internalType": "uint256",
							"name": "",
							"type": "uint256"
						}
					],
					"stateMutability": "view",
					"type": "function"
				},
				{
					"inputs": [
						{
							"internalType": "uint256",
							"name": "shares",
							"type": "uint256"
						},
						{
							"internalType": "address",
							"name": "receiver",
							"type": "address"
						},
						{
							"internalType": "address",
							"name": "owner",
							"type": "address"
						}
					],
					"name": "redeem",
					"outputs": [
						{
							"internalType": "uint256",
							"name": "assets",
							"type": "uint256"
						}
					],
					"stateMutability": "nonpayable",
					"type": "function"
				},
				{
					"inputs": [],
					"name": "renounceOwnership",
					"outputs": [],
					"stateMutability": "nonpayable",
					"type": "function"
				},
				{
					"inputs": [
						{
							"internalType": "uint256",
							"name": "newFeePercent",
							"type": "uint256"
						}
					],
					"name": "setFeePercent",
					"outputs": [],
					"stateMutability": "nonpayable",
					"type": "function"
				},
				{
					"inputs": [
						{
							"internalType": "uint256",
							"name": "newTargetFloatPercent",
							"type": "uint256"
						}
					],
					"name": "setTargetFloatPercent",
					"outputs": [],
					"stateMutability": "nonpayable",
					"type": "function"
				},
				{
					"inputs": [
						{
							"internalType": "bool",
							"name": "newUnderlyingIsWETH",
							"type": "bool"
						}
					],
					"name": "setUnderlyingIsWETH",
					"outputs": [],
					"stateMutability": "nonpayable",
					"type": "function"
				},
				{
					"inputs": [],
					"name": "symbol",
					"outputs": [
						{
							"internalType": "string",
							"name": "",
							"type": "string"
						}
					],
					"stateMutability": "view",
					"type": "function"
				},
				{
					"inputs": [],
					"name": "targetFloatPercent",
					"outputs": [
						{
							"internalType": "uint256",
							"name": "",
							"type": "uint256"
						}
					],
					"stateMutability": "view",
					"type": "function"
				},
				{
					"inputs": [],
					"name": "totalAssets",
					"outputs": [
						{
							"internalType": "uint256",
							"name": "",
							"type": "uint256"
						}
					],
					"stateMutability": "view",
					"type": "function"
				},
				{
					"inputs": [],
					"name": "totalStrategyHoldings",
					"outputs": [
						{
							"internalType": "uint256",
							"name": "",
							"type": "uint256"
						}
					],
					"stateMutability": "view",
					"type": "function"
				},
				{
					"inputs": [],
					"name": "totalSupply",
					"outputs": [
						{
							"internalType": "uint256",
							"name": "",
							"type": "uint256"
						}
					],
					"stateMutability": "view",
					"type": "function"
				},
				{
					"inputs": [
						{
							"internalType": "address",
							"name": "to",
							"type": "address"
						},
						{
							"internalType": "uint256",
							"name": "amount",
							"type": "uint256"
						}
					],
					"name": "transfer",
					"outputs": [
						{
							"internalType": "bool",
							"name": "",
							"type": "bool"
						}
					],
					"stateMutability": "nonpayable",
					"type": "function"
				},
				{
					"inputs": [
						{
							"internalType": "address",
							"name": "from",
							"type": "address"
						},
						{
							"internalType": "address",
							"name": "to",
							"type": "address"
						},
						{
							"internalType": "uint256",
							"name": "amount",
							"type": "uint256"
						}
					],
					"name": "transferFrom",
					"outputs": [
						{
							"internalType": "bool",
							"name": "",
							"type": "bool"
						}
					],
					"stateMutability": "nonpayable",
					"type": "function"
				},
				{
					"inputs": [
						{
							"internalType": "address",
							"name": "newOwner",
							"type": "address"
						}
					],
					"name": "transferOwnership",
					"outputs": [],
					"stateMutability": "nonpayable",
					"type": "function"
				},
				{
					"inputs": [],
					"name": "underlyingIsWETH",
					"outputs": [
						{
							"internalType": "bool",
							"name": "",
							"type": "bool"
						}
					],
					"stateMutability": "view",
					"type": "function"
				},
				{
					"inputs": [
						{
							"internalType": "uint256",
							"name": "assets",
							"type": "uint256"
						},
						{
							"internalType": "address",
							"name": "receiver",
							"type": "address"
						},
						{
							"internalType": "address",
							"name": "owner",
							"type": "address"
						}
					],
					"name": "withdraw",
					"outputs": [
						{
							"internalType": "uint256",
							"name": "shares",
							"type": "uint256"
						}
					],
					"stateMutability": "nonpayable",
					"type": "function"
				}
			],
			"devdoc": {
				"kind": "dev",
				"methods": {
					"claimFees(uint256)": {
						"details": "Accrued fees are measured as rvTokens held by the Vault.",
						"params": {
							"sVTokenAmount": "The amount of rvTokens to claim."
						}
					},
					"renounceOwnership()": {
						"details": "Leaves the contract without manager. It will not be possible to call `onlyManager` functions anymore. Can only be called by the current manager. NOTE: Renouncing ownership will leave the contract without an manager, thereby removing any functionality that is only available to the manager."
					},
					"setFeePercent(uint256)": {
						"params": {
							"newFeePercent": "The new fee percentage."
						}
					},
					"setTargetFloatPercent(uint256)": {
						"params": {
							"newTargetFloatPercent": "The new target float percentage."
						}
					},
					"setUnderlyingIsWETH(bool)": {
						"details": "The underlying token must have 18 decimals, to match Ether's decimal scheme.",
						"params": {
							"newUnderlyingIsWETH": "Whether the Vault should treat the underlying as WETH."
						}
					},
					"transferOwnership(address)": {
						"details": "Transfers ownership of the contract to a new account (`newOwner`). Can only be called by the current manager."
					}
				},
				"stateVariables": {
					"feePercent": {
						"details": "A fixed point number where 1e18 represents 100% and 0 represents 0%."
					},
					"targetFloatPercent": {
						"details": "A fixed point number where 1e18 represents 100% and 0 represents 0%."
					},
					"totalStrategyHoldings": {
						"details": "Includes maxLockedProfit, must be correctly subtracted to compute available/free holdings."
					},
					"underlyingIsWETH": {
						"details": "If enabled the Vault will allow trusting strategies that accept Ether."
					}
				},
				"version": 1
			},
			"evm": {
				"assembly": "    /* \"SquiddyCore.sol\":143:7948  contract SquiddyCore is ERC4626 {... */\n  mstore(0x40, 0x0140)\n    /* \"SquiddyCore.sol\":266:267  0 */\n  0x00\n    /* \"SquiddyCore.sol\":217:267  uint256 public beforeWithdrawHookCalledCounter = 0 */\n  0x07\n  sstore\n    /* \"SquiddyCore.sol\":320:321  0 */\n  0x00\n    /* \"SquiddyCore.sol\":273:321  uint256 public afterDepositHookCalledCounter = 0 */\n  0x08\n  sstore\n    /* \"SquiddyCore.sol\":1840:2227  constructor(... */\n  callvalue\n  dup1\n  iszero\n  tag_1\n  jumpi\n  0x00\n  dup1\n  revert\ntag_1:\n  pop\n  mload(0x40)\n  sub(codesize, bytecodeSize)\n  dup1\n  bytecodeSize\n  dup4\n  codecopy\n  dup2\n  dup2\n  add\n  0x40\n  mstore\n  dup2\n  add\n  swap1\n  tag_2\n  swap2\n  swap1\n  tag_3\n  jump\t// in\ntag_2:\n    /* \"SquiddyCore.sol\":1978:1989  _underlying */\n  dup4\n    /* \"SquiddyCore.sol\":1991:1996  _name */\n  dup4\n    /* \"SquiddyCore.sol\":1998:2005  _symbol */\n  dup4\n    /* \"SquiddyCore.sol\":2007:2016  _decimals */\n  dup4\n    /* \"ERC4626.sol\":1331:1336  _name */\n  dup3\n    /* \"ERC4626.sol\":1338:1345  _symbol */\n  dup3\n    /* \"ERC4626.sol\":1347:1356  _decimals */\n  dup3\n    /* \"ERC20.sol\":2131:2136  _name */\n  dup3\n    /* \"ERC20.sol\":2124:2128  name */\n  0x00\n    /* \"ERC20.sol\":2124:2136  name = _name */\n  swap1\n  dup1\n  mload\n  swap1\n  0x20\n  add\n  swap1\n  tag_8\n  swap3\n  swap2\n  swap1\n  tag_9\n  jump\t// in\ntag_8:\n  pop\n    /* \"ERC20.sol\":2155:2162  _symbol */\n  dup2\n    /* \"ERC20.sol\":2146:2152  symbol */\n  0x01\n    /* \"ERC20.sol\":2146:2162  symbol = _symbol */\n  swap1\n  dup1\n  mload\n  swap1\n  0x20\n  add\n  swap1\n  tag_10\n  swap3\n  swap2\n  swap1\n  tag_9\n  jump\t// in\ntag_10:\n  pop\n    /* \"ERC20.sol\":2183:2192  _decimals */\n  dup1\n    /* \"ERC20.sol\":2172:2192  decimals = _decimals */\n  0xff\n  and\n  0x80\n  dup2\n  0xff\n  and\n  dup2\n  mstore\n  pop\n  pop\n    /* \"ERC20.sol\":2222:2235  block.chainid */\n  chainid\n    /* \"ERC20.sol\":2203:2235  INITIAL_CHAIN_ID = block.chainid */\n  0xa0\n  dup2\n  dup2\n  mstore\n  pop\n  pop\n    /* \"ERC20.sol\":2272:2296  computeDomainSeparator() */\n  tag_11\n    /* \"ERC20.sol\":2272:2294  computeDomainSeparator */\n  shl(0x20, tag_12)\n    /* \"ERC20.sol\":2272:2296  computeDomainSeparator() */\n  0x20\n  shr\n  jump\t// in\ntag_11:\n    /* \"ERC20.sol\":2245:2296  INITIAL_DOMAIN_SEPARATOR = computeDomainSeparator() */\n  0xc0\n  dup2\n  dup2\n  mstore\n  pop\n  pop\n    /* \"ERC20.sol\":2011:2303  constructor(... */\n  pop\n  pop\n  pop\n    /* \"ERC4626.sol\":1376:1382  _asset */\n  dup4\n    /* \"ERC4626.sol\":1368:1382  asset = _asset */\n  0xffffffffffffffffffffffffffffffffffffffff\n  and\n  0xe0\n  dup2\n  0xffffffffffffffffffffffffffffffffffffffff\n  and\n  dup2\n  mstore\n  pop\n  pop\n    /* \"ERC4626.sol\":1200:1389  constructor(... */\n  pop\n  pop\n  pop\n  pop\n    /* \"SquiddyCore.sol\":2041:2052  _underlying */\n  dup4\n    /* \"SquiddyCore.sol\":2028:2052  UNDERLYING = _underlying */\n  0xffffffffffffffffffffffffffffffffffffffff\n  and\n  0x0120\n  dup2\n  0xffffffffffffffffffffffffffffffffffffffff\n  and\n  dup2\n  mstore\n  pop\n  pop\n    /* \"SquiddyCore.sol\":2079:2087  decimals */\n  mload(0x80)\n    /* \"SquiddyCore.sol\":2075:2077  10 */\n  0x0a\n    /* \"SquiddyCore.sol\":2075:2087  10**decimals */\n  tag_15\n  swap2\n  swap1\n  tag_16\n  jump\t// in\ntag_15:\n    /* \"SquiddyCore.sol\":2063:2087  BASE_UNIT = 10**decimals */\n  0x0100\n  dup2\n  dup2\n  mstore\n  pop\n  pop\n    /* \"SquiddyCore.sol\":2203:2220  type(uint256).max */\n  0xffffffffffffffffffffffffffffffffffffffffffffffffffffffffffffffff\n    /* \"SquiddyCore.sol\":2189:2200  totalSupply */\n  0x02\n    /* \"SquiddyCore.sol\":2189:2220  totalSupply = type(uint256).max */\n  dup2\n  swap1\n  sstore\n  pop\n    /* \"SquiddyCore.sol\":1840:2227  constructor(... */\n  pop\n  pop\n  pop\n  pop\n    /* \"SquiddyCore.sol\":143:7948  contract SquiddyCore is ERC4626 {... */\n  jump(tag_17)\n    /* \"ERC20.sol\":5698:6190  function computeDomainSeparator() internal view virtual returns (bytes32) {... */\ntag_12:\n    /* \"ERC20.sol\":5763:5770  bytes32 */\n  0x00\n    /* \"ERC20.sol\":5860:6001  keccak256(... */\n  0x8b73c3c69bb8fe3d512ecc4cf759cc79239f7b179b0ffacaa9a75d522b39400f\n    /* \"ERC20.sol\":6039:6043  name */\n  0x00\n    /* \"ERC20.sol\":6023:6045  keccak256(bytes(name)) */\n  mload(0x40)\n  tag_19\n  swap2\n  swap1\n  tag_20\n  jump\t// in\ntag_19:\n  mload(0x40)\n  dup1\n  swap2\n  sub\n  swap1\n  keccak256\n    /* \"ERC20.sol\":6067:6081  keccak256(\"1\") */\n  0xc89efdaa54c0f20c7adf612882df0950f5a951637e0307cdcb4c672f298b8bc6\n    /* \"ERC20.sol\":6103:6116  block.chainid */\n  chainid\n    /* \"ERC20.sol\":6146:6150  this */\n  address\n    /* \"ERC20.sol\":5828:6169  abi.encode(... */\n  add(0x20, mload(0x40))\n  tag_21\n  swap6\n  swap5\n  swap4\n  swap3\n  swap2\n  swap1\n  tag_22\n  jump\t// in\ntag_21:\n  mload(0x40)\n  0x20\n  dup2\n  dup4\n  sub\n  sub\n  dup2\n  mstore\n  swap1\n  0x40\n  mstore\n    /* \"ERC20.sol\":5801:6183  keccak256(... */\n  dup1\n  mload\n  swap1\n  0x20\n  add\n  keccak256\n    /* \"ERC20.sol\":5782:6183  return... */\n  swap1\n  pop\n    /* \"ERC20.sol\":5698:6190  function computeDomainSeparator() internal view virtual returns (bytes32) {... */\n  swap1\n  jump\t// out\n    /* \"SquiddyCore.sol\":143:7948  contract SquiddyCore is ERC4626 {... */\ntag_9:\n  dup3\n  dup1\n  sload\n  tag_23\n  swap1\n  tag_24\n  jump\t// in\ntag_23:\n  swap1\n  0x00\n  mstore\n  keccak256(0x00, 0x20)\n  swap1\n  0x1f\n  add\n  0x20\n  swap1\n  div\n  dup2\n  add\n  swap3\n  dup3\n  tag_26\n  jumpi\n  0x00\n  dup6\n  sstore\n  jump(tag_25)\ntag_26:\n  dup3\n  0x1f\n  lt\n  tag_27\n  jumpi\n  dup1\n  mload\n  not(0xff)\n  and\n  dup4\n  dup1\n  add\n  or\n  dup6\n  sstore\n  jump(tag_25)\ntag_27:\n  dup3\n  dup1\n  add\n  0x01\n  add\n  dup6\n  sstore\n  dup3\n  iszero\n  tag_25\n  jumpi\n  swap2\n  dup3\n  add\ntag_28:\n  dup3\n  dup2\n  gt\n  iszero\n  tag_29\n  jumpi\n  dup3\n  mload\n  dup3\n  sstore\n  swap2\n  0x20\n  add\n  swap2\n  swap1\n  0x01\n  add\n  swap1\n  jump(tag_28)\ntag_29:\ntag_25:\n  pop\n  swap1\n  pop\n  tag_30\n  swap2\n  swap1\n  tag_31\n  jump\t// in\ntag_30:\n  pop\n  swap1\n  jump\t// out\ntag_31:\ntag_32:\n  dup1\n  dup3\n  gt\n  iszero\n  tag_33\n  jumpi\n  0x00\n  dup2\n  0x00\n  swap1\n  sstore\n  pop\n  0x01\n  add\n  jump(tag_32)\ntag_33:\n  pop\n  swap1\n  jump\t// out\n    /* \"#utility.yul\":7:82   */\ntag_34:\n    /* \"#utility.yul\":40:46   */\n  0x00\n    /* \"#utility.yul\":73:75   */\n  0x40\n    /* \"#utility.yul\":67:76   */\n  mload\n    /* \"#utility.yul\":57:76   */\n  swap1\n  pop\n    /* \"#utility.yul\":7:82   */\n  swap1\n  jump\t// out\n    /* \"#utility.yul\":88:205   */\ntag_35:\n    /* \"#utility.yul\":197:198   */\n  0x00\n    /* \"#utility.yul\":194:195   */\n  dup1\n    /* \"#utility.yul\":187:199   */\n  revert\n    /* \"#utility.yul\":211:328   */\ntag_36:\n    /* \"#utility.yul\":320:321   */\n  0x00\n    /* \"#utility.yul\":317:318   */\n  dup1\n    /* \"#utility.yul\":310:322   */\n  revert\n    /* \"#utility.yul\":334:460   */\ntag_37:\n    /* \"#utility.yul\":371:378   */\n  0x00\n    /* \"#utility.yul\":411:453   */\n  0xffffffffffffffffffffffffffffffffffffffff\n    /* \"#utility.yul\":404:409   */\n  dup3\n    /* \"#utility.yul\":400:454   */\n  and\n    /* \"#utility.yul\":389:454   */\n  swap1\n  pop\n    /* \"#utility.yul\":334:460   */\n  swap2\n  swap1\n  pop\n  jump\t// out\n    /* \"#utility.yul\":466:562   */\ntag_38:\n    /* \"#utility.yul\":503:510   */\n  0x00\n    /* \"#utility.yul\":532:556   */\n  tag_74\n    /* \"#utility.yul\":550:555   */\n  dup3\n    /* \"#utility.yul\":532:556   */\n  tag_37\n  jump\t// in\ntag_74:\n    /* \"#utility.yul\":521:556   */\n  swap1\n  pop\n    /* \"#utility.yul\":466:562   */\n  swap2\n  swap1\n  pop\n  jump\t// out\n    /* \"#utility.yul\":568:677   */\ntag_39:\n    /* \"#utility.yul\":618:625   */\n  0x00\n    /* \"#utility.yul\":647:671   */\n  tag_76\n    /* \"#utility.yul\":665:670   */\n  dup3\n    /* \"#utility.yul\":647:671   */\n  tag_38\n  jump\t// in\ntag_76:\n    /* \"#utility.yul\":636:671   */\n  swap1\n  pop\n    /* \"#utility.yul\":568:677   */\n  swap2\n  swap1\n  pop\n  jump\t// out\n    /* \"#utility.yul\":683:831   */\ntag_40:\n    /* \"#utility.yul\":769:806   */\n  tag_78\n    /* \"#utility.yul\":800:805   */\n  dup2\n    /* \"#utility.yul\":769:806   */\n  tag_39\n  jump\t// in\ntag_78:\n    /* \"#utility.yul\":762:767   */\n  dup2\n    /* \"#utility.yul\":759:807   */\n  eq\n    /* \"#utility.yul\":749:825   */\n  tag_79\n  jumpi\n    /* \"#utility.yul\":821:822   */\n  0x00\n    /* \"#utility.yul\":818:819   */\n  dup1\n    /* \"#utility.yul\":811:823   */\n  revert\n    /* \"#utility.yul\":749:825   */\ntag_79:\n    /* \"#utility.yul\":683:831   */\n  pop\n  jump\t// out\n    /* \"#utility.yul\":837:1006   */\ntag_41:\n    /* \"#utility.yul\":907:912   */\n  0x00\n    /* \"#utility.yul\":938:944   */\n  dup2\n    /* \"#utility.yul\":932:945   */\n  mload\n    /* \"#utility.yul\":923:945   */\n  swap1\n  pop\n    /* \"#utility.yul\":954:1000   */\n  tag_81\n    /* \"#utility.yul\":994:999   */\n  dup2\n    /* \"#utility.yul\":954:1000   */\n  tag_40\n  jump\t// in\ntag_81:\n    /* \"#utility.yul\":837:1006   */\n  swap3\n  swap2\n  pop\n  pop\n  jump\t// out\n    /* \"#utility.yul\":1012:1129   */\ntag_42:\n    /* \"#utility.yul\":1121:1122   */\n  0x00\n    /* \"#utility.yul\":1118:1119   */\n  dup1\n    /* \"#utility.yul\":1111:1123   */\n  revert\n    /* \"#utility.yul\":1135:1252   */\ntag_43:\n    /* \"#utility.yul\":1244:1245   */\n  0x00\n    /* \"#utility.yul\":1241:1242   */\n  dup1\n    /* \"#utility.yul\":1234:1246   */\n  revert\n    /* \"#utility.yul\":1258:1360   */\ntag_44:\n    /* \"#utility.yul\":1299:1305   */\n  0x00\n    /* \"#utility.yul\":1350:1352   */\n  0x1f\n    /* \"#utility.yul\":1346:1353   */\n  not\n    /* \"#utility.yul\":1341:1343   */\n  0x1f\n    /* \"#utility.yul\":1334:1339   */\n  dup4\n    /* \"#utility.yul\":1330:1344   */\n  add\n    /* \"#utility.yul\":1326:1354   */\n  and\n    /* \"#utility.yul\":1316:1354   */\n  swap1\n  pop\n    /* \"#utility.yul\":1258:1360   */\n  swap2\n  swap1\n  pop\n  jump\t// out\n    /* \"#utility.yul\":1366:1546   */\ntag_45:\n    /* \"#utility.yul\":1414:1491   */\n  0x4e487b7100000000000000000000000000000000000000000000000000000000\n    /* \"#utility.yul\":1411:1412   */\n  0x00\n    /* \"#utility.yul\":1404:1492   */\n  mstore\n    /* \"#utility.yul\":1511:1515   */\n  0x41\n    /* \"#utility.yul\":1508:1509   */\n  0x04\n    /* \"#utility.yul\":1501:1516   */\n  mstore\n    /* \"#utility.yul\":1535:1539   */\n  0x24\n    /* \"#utility.yul\":1532:1533   */\n  0x00\n    /* \"#utility.yul\":1525:1540   */\n  revert\n    /* \"#utility.yul\":1552:1833   */\ntag_46:\n    /* \"#utility.yul\":1635:1662   */\n  tag_87\n    /* \"#utility.yul\":1657:1661   */\n  dup3\n    /* \"#utility.yul\":1635:1662   */\n  tag_44\n  jump\t// in\ntag_87:\n    /* \"#utility.yul\":1627:1633   */\n  dup2\n    /* \"#utility.yul\":1623:1663   */\n  add\n    /* \"#utility.yul\":1765:1771   */\n  dup2\n    /* \"#utility.yul\":1753:1763   */\n  dup2\n    /* \"#utility.yul\":1750:1772   */\n  lt\n    /* \"#utility.yul\":1729:1747   */\n  0xffffffffffffffff\n    /* \"#utility.yul\":1717:1727   */\n  dup3\n    /* \"#utility.yul\":1714:1748   */\n  gt\n    /* \"#utility.yul\":1711:1773   */\n  or\n    /* \"#utility.yul\":1708:1796   */\n  iszero\n  tag_88\n  jumpi\n    /* \"#utility.yul\":1776:1794   */\n  tag_89\n  tag_45\n  jump\t// in\ntag_89:\n    /* \"#utility.yul\":1708:1796   */\ntag_88:\n    /* \"#utility.yul\":1816:1826   */\n  dup1\n    /* \"#utility.yul\":1812:1814   */\n  0x40\n    /* \"#utility.yul\":1805:1827   */\n  mstore\n    /* \"#utility.yul\":1595:1833   */\n  pop\n    /* \"#utility.yul\":1552:1833   */\n  pop\n  pop\n  jump\t// out\n    /* \"#utility.yul\":1839:1968   */\ntag_47:\n    /* \"#utility.yul\":1873:1879   */\n  0x00\n    /* \"#utility.yul\":1900:1920   */\n  tag_91\n  tag_34\n  jump\t// in\ntag_91:\n    /* \"#utility.yul\":1890:1920   */\n  swap1\n  pop\n    /* \"#utility.yul\":1929:1962   */\n  tag_92\n    /* \"#utility.yul\":1957:1961   */\n  dup3\n    /* \"#utility.yul\":1949:1955   */\n  dup3\n    /* \"#utility.yul\":1929:1962   */\n  tag_46\n  jump\t// in\ntag_92:\n    /* \"#utility.yul\":1839:1968   */\n  swap2\n  swap1\n  pop\n  jump\t// out\n    /* \"#utility.yul\":1974:2282   */\ntag_48:\n    /* \"#utility.yul\":2036:2040   */\n  0x00\n    /* \"#utility.yul\":2126:2144   */\n  0xffffffffffffffff\n    /* \"#utility.yul\":2118:2124   */\n  dup3\n    /* \"#utility.yul\":2115:2145   */\n  gt\n    /* \"#utility.yul\":2112:2168   */\n  iszero\n  tag_94\n  jumpi\n    /* \"#utility.yul\":2148:2166   */\n  tag_95\n  tag_45\n  jump\t// in\ntag_95:\n    /* \"#utility.yul\":2112:2168   */\ntag_94:\n    /* \"#utility.yul\":2186:2215   */\n  tag_96\n    /* \"#utility.yul\":2208:2214   */\n  dup3\n    /* \"#utility.yul\":2186:2215   */\n  tag_44\n  jump\t// in\ntag_96:\n    /* \"#utility.yul\":2178:2215   */\n  swap1\n  pop\n    /* \"#utility.yul\":2270:2274   */\n  0x20\n    /* \"#utility.yul\":2264:2268   */\n  dup2\n    /* \"#utility.yul\":2260:2275   */\n  add\n    /* \"#utility.yul\":2252:2275   */\n  swap1\n  pop\n    /* \"#utility.yul\":1974:2282   */\n  swap2\n  swap1\n  pop\n  jump\t// out\n    /* \"#utility.yul\":2288:2595   */\ntag_49:\n    /* \"#utility.yul\":2356:2357   */\n  0x00\n    /* \"#utility.yul\":2366:2479   */\ntag_98:\n    /* \"#utility.yul\":2380:2386   */\n  dup4\n    /* \"#utility.yul\":2377:2378   */\n  dup2\n    /* \"#utility.yul\":2374:2387   */\n  lt\n    /* \"#utility.yul\":2366:2479   */\n  iszero\n  tag_100\n  jumpi\n    /* \"#utility.yul\":2465:2466   */\n  dup1\n    /* \"#utility.yul\":2460:2463   */\n  dup3\n    /* \"#utility.yul\":2456:2467   */\n  add\n    /* \"#utility.yul\":2450:2468   */\n  mload\n    /* \"#utility.yul\":2446:2447   */\n  dup2\n    /* \"#utility.yul\":2441:2444   */\n  dup5\n    /* \"#utility.yul\":2437:2448   */\n  add\n    /* \"#utility.yul\":2430:2469   */\n  mstore\n    /* \"#utility.yul\":2402:2404   */\n  0x20\n    /* \"#utility.yul\":2399:2400   */\n  dup2\n    /* \"#utility.yul\":2395:2405   */\n  add\n    /* \"#utility.yul\":2390:2405   */\n  swap1\n  pop\n    /* \"#utility.yul\":2366:2479   */\n  jump(tag_98)\ntag_100:\n    /* \"#utility.yul\":2497:2503   */\n  dup4\n    /* \"#utility.yul\":2494:2495   */\n  dup2\n    /* \"#utility.yul\":2491:2504   */\n  gt\n    /* \"#utility.yul\":2488:2589   */\n  iszero\n  tag_101\n  jumpi\n    /* \"#utility.yul\":2577:2578   */\n  0x00\n    /* \"#utility.yul\":2568:2574   */\n  dup5\n    /* \"#utility.yul\":2563:2566   */\n  dup5\n    /* \"#utility.yul\":2559:2575   */\n  add\n    /* \"#utility.yul\":2552:2579   */\n  mstore\n    /* \"#utility.yul\":2488:2589   */\ntag_101:\n    /* \"#utility.yul\":2337:2595   */\n  pop\n    /* \"#utility.yul\":2288:2595   */\n  pop\n  pop\n  pop\n  jump\t// out\n    /* \"#utility.yul\":2601:3022   */\ntag_50:\n    /* \"#utility.yul\":2690:2695   */\n  0x00\n    /* \"#utility.yul\":2715:2781   */\n  tag_103\n    /* \"#utility.yul\":2731:2780   */\n  tag_104\n    /* \"#utility.yul\":2773:2779   */\n  dup5\n    /* \"#utility.yul\":2731:2780   */\n  tag_48\n  jump\t// in\ntag_104:\n    /* \"#utility.yul\":2715:2781   */\n  tag_47\n  jump\t// in\ntag_103:\n    /* \"#utility.yul\":2706:2781   */\n  swap1\n  pop\n    /* \"#utility.yul\":2804:2810   */\n  dup3\n    /* \"#utility.yul\":2797:2802   */\n  dup2\n    /* \"#utility.yul\":2790:2811   */\n  mstore\n    /* \"#utility.yul\":2842:2846   */\n  0x20\n    /* \"#utility.yul\":2835:2840   */\n  dup2\n    /* \"#utility.yul\":2831:2847   */\n  add\n    /* \"#utility.yul\":2880:2883   */\n  dup5\n    /* \"#utility.yul\":2871:2877   */\n  dup5\n    /* \"#utility.yul\":2866:2869   */\n  dup5\n    /* \"#utility.yul\":2862:2878   */\n  add\n    /* \"#utility.yul\":2859:2884   */\n  gt\n    /* \"#utility.yul\":2856:2968   */\n  iszero\n  tag_105\n  jumpi\n    /* \"#utility.yul\":2887:2966   */\n  tag_106\n  tag_43\n  jump\t// in\ntag_106:\n    /* \"#utility.yul\":2856:2968   */\ntag_105:\n    /* \"#utility.yul\":2977:3016   */\n  tag_107\n    /* \"#utility.yul\":3009:3015   */\n  dup5\n    /* \"#utility.yul\":3004:3007   */\n  dup3\n    /* \"#utility.yul\":2999:3002   */\n  dup6\n    /* \"#utility.yul\":2977:3016   */\n  tag_49\n  jump\t// in\ntag_107:\n    /* \"#utility.yul\":2696:3022   */\n  pop\n    /* \"#utility.yul\":2601:3022   */\n  swap4\n  swap3\n  pop\n  pop\n  pop\n  jump\t// out\n    /* \"#utility.yul\":3042:3397   */\ntag_51:\n    /* \"#utility.yul\":3109:3114   */\n  0x00\n    /* \"#utility.yul\":3158:3161   */\n  dup3\n    /* \"#utility.yul\":3151:3155   */\n  0x1f\n    /* \"#utility.yul\":3143:3149   */\n  dup4\n    /* \"#utility.yul\":3139:3156   */\n  add\n    /* \"#utility.yul\":3135:3162   */\n  slt\n    /* \"#utility.yul\":3125:3247   */\n  tag_109\n  jumpi\n    /* \"#utility.yul\":3166:3245   */\n  tag_110\n  tag_42\n  jump\t// in\ntag_110:\n    /* \"#utility.yul\":3125:3247   */\ntag_109:\n    /* \"#utility.yul\":3276:3282   */\n  dup2\n    /* \"#utility.yul\":3270:3283   */\n  mload\n    /* \"#utility.yul\":3301:3391   */\n  tag_111\n    /* \"#utility.yul\":3387:3390   */\n  dup5\n    /* \"#utility.yul\":3379:3385   */\n  dup3\n    /* \"#utility.yul\":3372:3376   */\n  0x20\n    /* \"#utility.yul\":3364:3370   */\n  dup7\n    /* \"#utility.yul\":3360:3377   */\n  add\n    /* \"#utility.yul\":3301:3391   */\n  tag_50\n  jump\t// in\ntag_111:\n    /* \"#utility.yul\":3292:3391   */\n  swap2\n  pop\n    /* \"#utility.yul\":3115:3397   */\n  pop\n    /* \"#utility.yul\":3042:3397   */\n  swap3\n  swap2\n  pop\n  pop\n  jump\t// out\n    /* \"#utility.yul\":3403:3489   */\ntag_52:\n    /* \"#utility.yul\":3438:3445   */\n  0x00\n    /* \"#utility.yul\":3478:3482   */\n  0xff\n    /* \"#utility.yul\":3471:3476   */\n  dup3\n    /* \"#utility.yul\":3467:3483   */\n  and\n    /* \"#utility.yul\":3456:3483   */\n  swap1\n  pop\n    /* \"#utility.yul\":3403:3489   */\n  swap2\n  swap1\n  pop\n  jump\t// out\n    /* \"#utility.yul\":3495:3613   */\ntag_53:\n    /* \"#utility.yul\":3566:3588   */\n  tag_114\n    /* \"#utility.yul\":3582:3587   */\n  dup2\n    /* \"#utility.yul\":3566:3588   */\n  tag_52\n  jump\t// in\ntag_114:\n    /* \"#utility.yul\":3559:3564   */\n  dup2\n    /* \"#utility.yul\":3556:3589   */\n  eq\n    /* \"#utility.yul\":3546:3607   */\n  tag_115\n  jumpi\n    /* \"#utility.yul\":3603:3604   */\n  0x00\n    /* \"#utility.yul\":3600:3601   */\n  dup1\n    /* \"#utility.yul\":3593:3605   */\n  revert\n    /* \"#utility.yul\":3546:3607   */\ntag_115:\n    /* \"#utility.yul\":3495:3613   */\n  pop\n  jump\t// out\n    /* \"#utility.yul\":3619:3758   */\ntag_54:\n    /* \"#utility.yul\":3674:3679   */\n  0x00\n    /* \"#utility.yul\":3705:3711   */\n  dup2\n    /* \"#utility.yul\":3699:3712   */\n  mload\n    /* \"#utility.yul\":3690:3712   */\n  swap1\n  pop\n    /* \"#utility.yul\":3721:3752   */\n  tag_117\n    /* \"#utility.yul\":3746:3751   */\n  dup2\n    /* \"#utility.yul\":3721:3752   */\n  tag_53\n  jump\t// in\ntag_117:\n    /* \"#utility.yul\":3619:3758   */\n  swap3\n  swap2\n  pop\n  pop\n  jump\t// out\n    /* \"#utility.yul\":3764:4952   */\ntag_3:\n    /* \"#utility.yul\":3892:3898   */\n  0x00\n    /* \"#utility.yul\":3900:3906   */\n  dup1\n    /* \"#utility.yul\":3908:3914   */\n  0x00\n    /* \"#utility.yul\":3916:3922   */\n  dup1\n    /* \"#utility.yul\":3965:3968   */\n  0x80\n    /* \"#utility.yul\":3953:3962   */\n  dup6\n    /* \"#utility.yul\":3944:3951   */\n  dup8\n    /* \"#utility.yul\":3940:3963   */\n  sub\n    /* \"#utility.yul\":3936:3969   */\n  slt\n    /* \"#utility.yul\":3933:4053   */\n  iszero\n  tag_119\n  jumpi\n    /* \"#utility.yul\":3972:4051   */\n  tag_120\n  tag_35\n  jump\t// in\ntag_120:\n    /* \"#utility.yul\":3933:4053   */\ntag_119:\n    /* \"#utility.yul\":4092:4093   */\n  0x00\n    /* \"#utility.yul\":4117:4194   */\n  tag_121\n    /* \"#utility.yul\":4186:4193   */\n  dup8\n    /* \"#utility.yul\":4177:4183   */\n  dup3\n    /* \"#utility.yul\":4166:4175   */\n  dup9\n    /* \"#utility.yul\":4162:4184   */\n  add\n    /* \"#utility.yul\":4117:4194   */\n  tag_41\n  jump\t// in\ntag_121:\n    /* \"#utility.yul\":4107:4194   */\n  swap5\n  pop\n    /* \"#utility.yul\":4063:4204   */\n  pop\n    /* \"#utility.yul\":4264:4266   */\n  0x20\n    /* \"#utility.yul\":4253:4262   */\n  dup6\n    /* \"#utility.yul\":4249:4267   */\n  add\n    /* \"#utility.yul\":4243:4268   */\n  mload\n    /* \"#utility.yul\":4295:4313   */\n  0xffffffffffffffff\n    /* \"#utility.yul\":4287:4293   */\n  dup2\n    /* \"#utility.yul\":4284:4314   */\n  gt\n    /* \"#utility.yul\":4281:4398   */\n  iszero\n  tag_122\n  jumpi\n    /* \"#utility.yul\":4317:4396   */\n  tag_123\n  tag_36\n  jump\t// in\ntag_123:\n    /* \"#utility.yul\":4281:4398   */\ntag_122:\n    /* \"#utility.yul\":4422:4496   */\n  tag_124\n    /* \"#utility.yul\":4488:4495   */\n  dup8\n    /* \"#utility.yul\":4479:4485   */\n  dup3\n    /* \"#utility.yul\":4468:4477   */\n  dup9\n    /* \"#utility.yul\":4464:4486   */\n  add\n    /* \"#utility.yul\":4422:4496   */\n  tag_51\n  jump\t// in\ntag_124:\n    /* \"#utility.yul\":4412:4496   */\n  swap4\n  pop\n    /* \"#utility.yul\":4214:4506   */\n  pop\n    /* \"#utility.yul\":4566:4568   */\n  0x40\n    /* \"#utility.yul\":4555:4564   */\n  dup6\n    /* \"#utility.yul\":4551:4569   */\n  add\n    /* \"#utility.yul\":4545:4570   */\n  mload\n    /* \"#utility.yul\":4597:4615   */\n  0xffffffffffffffff\n    /* \"#utility.yul\":4589:4595   */\n  dup2\n    /* \"#utility.yul\":4586:4616   */\n  gt\n    /* \"#utility.yul\":4583:4700   */\n  iszero\n  tag_125\n  jumpi\n    /* \"#utility.yul\":4619:4698   */\n  tag_126\n  tag_36\n  jump\t// in\ntag_126:\n    /* \"#utility.yul\":4583:4700   */\ntag_125:\n    /* \"#utility.yul\":4724:4798   */\n  tag_127\n    /* \"#utility.yul\":4790:4797   */\n  dup8\n    /* \"#utility.yul\":4781:4787   */\n  dup3\n    /* \"#utility.yul\":4770:4779   */\n  dup9\n    /* \"#utility.yul\":4766:4788   */\n  add\n    /* \"#utility.yul\":4724:4798   */\n  tag_51\n  jump\t// in\ntag_127:\n    /* \"#utility.yul\":4714:4798   */\n  swap3\n  pop\n    /* \"#utility.yul\":4516:4808   */\n  pop\n    /* \"#utility.yul\":4847:4849   */\n  0x60\n    /* \"#utility.yul\":4873:4935   */\n  tag_128\n    /* \"#utility.yul\":4927:4934   */\n  dup8\n    /* \"#utility.yul\":4918:4924   */\n  dup3\n    /* \"#utility.yul\":4907:4916   */\n  dup9\n    /* \"#utility.yul\":4903:4925   */\n  add\n    /* \"#utility.yul\":4873:4935   */\n  tag_54\n  jump\t// in\ntag_128:\n    /* \"#utility.yul\":4863:4935   */\n  swap2\n  pop\n    /* \"#utility.yul\":4818:4945   */\n  pop\n    /* \"#utility.yul\":3764:4952   */\n  swap3\n  swap6\n  swap2\n  swap5\n  pop\n  swap3\n  pop\n  jump\t// out\n    /* \"#utility.yul\":4958:5138   */\ntag_55:\n    /* \"#utility.yul\":5006:5083   */\n  0x4e487b7100000000000000000000000000000000000000000000000000000000\n    /* \"#utility.yul\":5003:5004   */\n  0x00\n    /* \"#utility.yul\":4996:5084   */\n  mstore\n    /* \"#utility.yul\":5103:5107   */\n  0x11\n    /* \"#utility.yul\":5100:5101   */\n  0x04\n    /* \"#utility.yul\":5093:5108   */\n  mstore\n    /* \"#utility.yul\":5127:5131   */\n  0x24\n    /* \"#utility.yul\":5124:5125   */\n  0x00\n    /* \"#utility.yul\":5117:5132   */\n  revert\n    /* \"#utility.yul\":5144:5246   */\ntag_56:\n    /* \"#utility.yul\":5186:5194   */\n  0x00\n    /* \"#utility.yul\":5233:5238   */\n  dup2\n    /* \"#utility.yul\":5230:5231   */\n  0x01\n    /* \"#utility.yul\":5226:5239   */\n  shr\n    /* \"#utility.yul\":5205:5239   */\n  swap1\n  pop\n    /* \"#utility.yul\":5144:5246   */\n  swap2\n  swap1\n  pop\n  jump\t// out\n    /* \"#utility.yul\":5252:6100   */\ntag_57:\n    /* \"#utility.yul\":5313:5318   */\n  0x00\n    /* \"#utility.yul\":5320:5324   */\n  dup1\n    /* \"#utility.yul\":5344:5350   */\n  dup3\n    /* \"#utility.yul\":5335:5350   */\n  swap2\n  pop\n    /* \"#utility.yul\":5368:5373   */\n  dup4\n    /* \"#utility.yul\":5359:5373   */\n  swap1\n  pop\n    /* \"#utility.yul\":5382:6094   */\ntag_132:\n    /* \"#utility.yul\":5403:5404   */\n  0x01\n    /* \"#utility.yul\":5393:5401   */\n  dup6\n    /* \"#utility.yul\":5390:5405   */\n  gt\n    /* \"#utility.yul\":5382:6094   */\n  iszero\n  tag_134\n  jumpi\n    /* \"#utility.yul\":5498:5502   */\n  dup1\n    /* \"#utility.yul\":5493:5496   */\n  dup7\n    /* \"#utility.yul\":5489:5503   */\n  div\n    /* \"#utility.yul\":5483:5487   */\n  dup2\n    /* \"#utility.yul\":5480:5504   */\n  gt\n    /* \"#utility.yul\":5477:5527   */\n  iszero\n  tag_135\n  jumpi\n    /* \"#utility.yul\":5507:5525   */\n  tag_136\n  tag_55\n  jump\t// in\ntag_136:\n    /* \"#utility.yul\":5477:5527   */\ntag_135:\n    /* \"#utility.yul\":5557:5558   */\n  0x01\n    /* \"#utility.yul\":5547:5555   */\n  dup6\n    /* \"#utility.yul\":5543:5559   */\n  and\n    /* \"#utility.yul\":5540:5991   */\n  iszero\n  tag_137\n  jumpi\n    /* \"#utility.yul\":5972:5976   */\n  dup1\n    /* \"#utility.yul\":5965:5970   */\n  dup3\n    /* \"#utility.yul\":5961:5977   */\n  mul\n    /* \"#utility.yul\":5952:5977   */\n  swap2\n  pop\n    /* \"#utility.yul\":5540:5991   */\ntag_137:\n    /* \"#utility.yul\":6022:6026   */\n  dup1\n    /* \"#utility.yul\":6016:6020   */\n  dup2\n    /* \"#utility.yul\":6012:6027   */\n  mul\n    /* \"#utility.yul\":6004:6027   */\n  swap1\n  pop\n    /* \"#utility.yul\":6052:6084   */\n  tag_138\n    /* \"#utility.yul\":6075:6083   */\n  dup6\n    /* \"#utility.yul\":6052:6084   */\n  tag_56\n  jump\t// in\ntag_138:\n    /* \"#utility.yul\":6040:6084   */\n  swap5\n  pop\n    /* \"#utility.yul\":5382:6094   */\n  jump(tag_132)\ntag_134:\n    /* \"#utility.yul\":5252:6100   */\n  swap5\n  pop\n  swap5\n  swap3\n  pop\n  pop\n  pop\n  jump\t// out\n    /* \"#utility.yul\":6106:7179   */\ntag_58:\n    /* \"#utility.yul\":6160:6165   */\n  0x00\n    /* \"#utility.yul\":6351:6359   */\n  dup3\n    /* \"#utility.yul\":6341:6381   */\n  tag_140\n  jumpi\n    /* \"#utility.yul\":6372:6373   */\n  0x01\n    /* \"#utility.yul\":6363:6373   */\n  swap1\n  pop\n    /* \"#utility.yul\":6374:6379   */\n  jump(tag_139)\n    /* \"#utility.yul\":6341:6381   */\ntag_140:\n    /* \"#utility.yul\":6400:6404   */\n  dup2\n    /* \"#utility.yul\":6390:6426   */\n  tag_141\n  jumpi\n    /* \"#utility.yul\":6417:6418   */\n  0x00\n    /* \"#utility.yul\":6408:6418   */\n  swap1\n  pop\n    /* \"#utility.yul\":6419:6424   */\n  jump(tag_139)\n    /* \"#utility.yul\":6390:6426   */\ntag_141:\n    /* \"#utility.yul\":6486:6490   */\n  dup2\n    /* \"#utility.yul\":6534:6535   */\n  0x01\n    /* \"#utility.yul\":6529:6556   */\n  dup2\n  eq\n  tag_143\n  jumpi\n    /* \"#utility.yul\":6570:6571   */\n  0x02\n    /* \"#utility.yul\":6565:6756   */\n  dup2\n  eq\n  tag_144\n  jumpi\n    /* \"#utility.yul\":6479:6756   */\n  jump(tag_142)\n    /* \"#utility.yul\":6529:6556   */\ntag_143:\n    /* \"#utility.yul\":6547:6548   */\n  0x01\n    /* \"#utility.yul\":6538:6548   */\n  swap2\n  pop\n    /* \"#utility.yul\":6549:6554   */\n  pop\n  jump(tag_139)\n    /* \"#utility.yul\":6565:6756   */\ntag_144:\n    /* \"#utility.yul\":6610:6613   */\n  0xff\n    /* \"#utility.yul\":6600:6608   */\n  dup5\n    /* \"#utility.yul\":6597:6614   */\n  gt\n    /* \"#utility.yul\":6594:6637   */\n  iszero\n  tag_145\n  jumpi\n    /* \"#utility.yul\":6617:6635   */\n  tag_146\n  tag_55\n  jump\t// in\ntag_146:\n    /* \"#utility.yul\":6594:6637   */\ntag_145:\n    /* \"#utility.yul\":6666:6674   */\n  dup4\n    /* \"#utility.yul\":6663:6664   */\n  0x02\n    /* \"#utility.yul\":6659:6675   */\n  exp\n    /* \"#utility.yul\":6650:6675   */\n  swap2\n  pop\n    /* \"#utility.yul\":6701:6704   */\n  dup5\n    /* \"#utility.yul\":6694:6699   */\n  dup3\n    /* \"#utility.yul\":6691:6705   */\n  gt\n    /* \"#utility.yul\":6688:6728   */\n  iszero\n  tag_147\n  jumpi\n    /* \"#utility.yul\":6708:6726   */\n  tag_148\n  tag_55\n  jump\t// in\ntag_148:\n    /* \"#utility.yul\":6688:6728   */\ntag_147:\n    /* \"#utility.yul\":6741:6746   */\n  pop\n  jump(tag_139)\n    /* \"#utility.yul\":6479:6756   */\ntag_142:\n  pop\n    /* \"#utility.yul\":6865:6867   */\n  0x20\n    /* \"#utility.yul\":6855:6863   */\n  dup4\n    /* \"#utility.yul\":6852:6868   */\n  lt\n    /* \"#utility.yul\":6846:6849   */\n  0x0133\n    /* \"#utility.yul\":6840:6844   */\n  dup4\n    /* \"#utility.yul\":6837:6850   */\n  lt\n    /* \"#utility.yul\":6833:6869   */\n  and\n    /* \"#utility.yul\":6815:6817   */\n  0x4e\n    /* \"#utility.yul\":6805:6813   */\n  dup5\n    /* \"#utility.yul\":6802:6818   */\n  lt\n    /* \"#utility.yul\":6797:6799   */\n  0x0b\n    /* \"#utility.yul\":6791:6795   */\n  dup5\n    /* \"#utility.yul\":6788:6800   */\n  lt\n    /* \"#utility.yul\":6784:6819   */\n  and\n    /* \"#utility.yul\":6768:6879   */\n  or\n    /* \"#utility.yul\":6765:7011   */\n  iszero\n  tag_149\n  jumpi\n    /* \"#utility.yul\":6921:6929   */\n  dup3\n    /* \"#utility.yul\":6915:6919   */\n  dup3\n    /* \"#utility.yul\":6911:6930   */\n  exp\n    /* \"#utility.yul\":6902:6930   */\n  swap1\n  pop\n    /* \"#utility.yul\":6956:6959   */\n  dup4\n    /* \"#utility.yul\":6949:6954   */\n  dup2\n    /* \"#utility.yul\":6946:6960   */\n  gt\n    /* \"#utility.yul\":6943:6983   */\n  iszero\n  tag_150\n  jumpi\n    /* \"#utility.yul\":6963:6981   */\n  tag_151\n  tag_55\n  jump\t// in\ntag_151:\n    /* \"#utility.yul\":6943:6983   */\ntag_150:\n    /* \"#utility.yul\":6996:7001   */\n  jump(tag_139)\n    /* \"#utility.yul\":6765:7011   */\ntag_149:\n    /* \"#utility.yul\":7036:7078   */\n  tag_152\n    /* \"#utility.yul\":7074:7077   */\n  dup5\n    /* \"#utility.yul\":7064:7072   */\n  dup5\n    /* \"#utility.yul\":7058:7062   */\n  dup5\n    /* \"#utility.yul\":7055:7056   */\n  0x01\n    /* \"#utility.yul\":7036:7078   */\n  tag_57\n  jump\t// in\ntag_152:\n    /* \"#utility.yul\":7021:7078   */\n  swap3\n  pop\n  swap1\n  pop\n    /* \"#utility.yul\":7110:7114   */\n  dup2\n    /* \"#utility.yul\":7105:7108   */\n  dup5\n    /* \"#utility.yul\":7101:7115   */\n  div\n    /* \"#utility.yul\":7094:7099   */\n  dup2\n    /* \"#utility.yul\":7091:7116   */\n  gt\n    /* \"#utility.yul\":7088:7139   */\n  iszero\n  tag_153\n  jumpi\n    /* \"#utility.yul\":7119:7137   */\n  tag_154\n  tag_55\n  jump\t// in\ntag_154:\n    /* \"#utility.yul\":7088:7139   */\ntag_153:\n    /* \"#utility.yul\":7168:7172   */\n  dup2\n    /* \"#utility.yul\":7161:7166   */\n  dup2\n    /* \"#utility.yul\":7157:7173   */\n  mul\n    /* \"#utility.yul\":7148:7173   */\n  swap1\n  pop\n    /* \"#utility.yul\":6106:7179   */\ntag_139:\n  swap4\n  swap3\n  pop\n  pop\n  pop\n  jump\t// out\n    /* \"#utility.yul\":7185:7262   */\ntag_59:\n    /* \"#utility.yul\":7222:7229   */\n  0x00\n    /* \"#utility.yul\":7251:7256   */\n  dup2\n    /* \"#utility.yul\":7240:7256   */\n  swap1\n  pop\n    /* \"#utility.yul\":7185:7262   */\n  swap2\n  swap1\n  pop\n  jump\t// out\n    /* \"#utility.yul\":7268:7549   */\ntag_16:\n    /* \"#utility.yul\":7326:7331   */\n  0x00\n    /* \"#utility.yul\":7350:7373   */\n  tag_157\n    /* \"#utility.yul\":7368:7372   */\n  dup3\n    /* \"#utility.yul\":7350:7373   */\n  tag_59\n  jump\t// in\ntag_157:\n    /* \"#utility.yul\":7342:7373   */\n  swap2\n  pop\n    /* \"#utility.yul\":7394:7419   */\n  tag_158\n    /* \"#utility.yul\":7410:7418   */\n  dup4\n    /* \"#utility.yul\":7394:7419   */\n  tag_52\n  jump\t// in\ntag_158:\n    /* \"#utility.yul\":7382:7419   */\n  swap3\n  pop\n    /* \"#utility.yul\":7438:7542   */\n  tag_159\n    /* \"#utility.yul\":7475:7541   */\n  0xffffffffffffffffffffffffffffffffffffffffffffffffffffffffffffffff\n    /* \"#utility.yul\":7465:7473   */\n  dup5\n    /* \"#utility.yul\":7459:7463   */\n  dup5\n    /* \"#utility.yul\":7438:7542   */\n  tag_58\n  jump\t// in\ntag_159:\n    /* \"#utility.yul\":7429:7542   */\n  swap1\n  pop\n    /* \"#utility.yul\":7268:7549   */\n  swap3\n  swap2\n  pop\n  pop\n  jump\t// out\n    /* \"#utility.yul\":7555:7735   */\ntag_60:\n    /* \"#utility.yul\":7603:7680   */\n  0x4e487b7100000000000000000000000000000000000000000000000000000000\n    /* \"#utility.yul\":7600:7601   */\n  0x00\n    /* \"#utility.yul\":7593:7681   */\n  mstore\n    /* \"#utility.yul\":7700:7704   */\n  0x22\n    /* \"#utility.yul\":7697:7698   */\n  0x04\n    /* \"#utility.yul\":7690:7705   */\n  mstore\n    /* \"#utility.yul\":7724:7728   */\n  0x24\n    /* \"#utility.yul\":7721:7722   */\n  0x00\n    /* \"#utility.yul\":7714:7729   */\n  revert\n    /* \"#utility.yul\":7741:8061   */\ntag_24:\n    /* \"#utility.yul\":7785:7791   */\n  0x00\n    /* \"#utility.yul\":7822:7823   */\n  0x02\n    /* \"#utility.yul\":7816:7820   */\n  dup3\n    /* \"#utility.yul\":7812:7824   */\n  div\n    /* \"#utility.yul\":7802:7824   */\n  swap1\n  pop\n    /* \"#utility.yul\":7869:7870   */\n  0x01\n    /* \"#utility.yul\":7863:7867   */\n  dup3\n    /* \"#utility.yul\":7859:7871   */\n  and\n    /* \"#utility.yul\":7890:7908   */\n  dup1\n    /* \"#utility.yul\":7880:7961   */\n  tag_162\n  jumpi\n    /* \"#utility.yul\":7946:7950   */\n  0x7f\n    /* \"#utility.yul\":7938:7944   */\n  dup3\n    /* \"#utility.yul\":7934:7951   */\n  and\n    /* \"#utility.yul\":7924:7951   */\n  swap2\n  pop\n    /* \"#utility.yul\":7880:7961   */\ntag_162:\n    /* \"#utility.yul\":8008:8010   */\n  0x20\n    /* \"#utility.yul\":8000:8006   */\n  dup3\n    /* \"#utility.yul\":7997:8011   */\n  lt\n    /* \"#utility.yul\":7977:7995   */\n  dup2\n    /* \"#utility.yul\":7974:8012   */\n  eq\n    /* \"#utility.yul\":7971:8055   */\n  iszero\n  tag_163\n  jumpi\n    /* \"#utility.yul\":8027:8045   */\n  tag_164\n  tag_60\n  jump\t// in\ntag_164:\n    /* \"#utility.yul\":7971:8055   */\ntag_163:\n    /* \"#utility.yul\":7792:8061   */\n  pop\n    /* \"#utility.yul\":7741:8061   */\n  swap2\n  swap1\n  pop\n  jump\t// out\n    /* \"#utility.yul\":8067:8214   */\ntag_61:\n    /* \"#utility.yul\":8168:8179   */\n  0x00\n    /* \"#utility.yul\":8205:8208   */\n  dup2\n    /* \"#utility.yul\":8190:8208   */\n  swap1\n  pop\n    /* \"#utility.yul\":8067:8214   */\n  swap3\n  swap2\n  pop\n  pop\n  jump\t// out\n    /* \"#utility.yul\":8220:8364   */\ntag_62:\n    /* \"#utility.yul\":8272:8276   */\n  0x00\n    /* \"#utility.yul\":8295:8298   */\n  dup2\n    /* \"#utility.yul\":8287:8298   */\n  swap1\n  pop\n    /* \"#utility.yul\":8318:8321   */\n  dup2\n    /* \"#utility.yul\":8315:8316   */\n  0x00\n    /* \"#utility.yul\":8308:8322   */\n  mstore\n    /* \"#utility.yul\":8352:8356   */\n  0x20\n    /* \"#utility.yul\":8349:8350   */\n  0x00\n    /* \"#utility.yul\":8339:8357   */\n  keccak256\n    /* \"#utility.yul\":8331:8357   */\n  swap1\n  pop\n    /* \"#utility.yul\":8220:8364   */\n  swap2\n  swap1\n  pop\n  jump\t// out\n    /* \"#utility.yul\":8392:9241   */\ntag_63:\n    /* \"#utility.yul\":8497:8500   */\n  0x00\n    /* \"#utility.yul\":8534:8539   */\n  dup2\n    /* \"#utility.yul\":8528:8540   */\n  sload\n    /* \"#utility.yul\":8563:8599   */\n  tag_168\n    /* \"#utility.yul\":8589:8598   */\n  dup2\n    /* \"#utility.yul\":8563:8599   */\n  tag_24\n  jump\t// in\ntag_168:\n    /* \"#utility.yul\":8615:8703   */\n  tag_169\n    /* \"#utility.yul\":8696:8702   */\n  dup2\n    /* \"#utility.yul\":8691:8694   */\n  dup7\n    /* \"#utility.yul\":8615:8703   */\n  tag_61\n  jump\t// in\ntag_169:\n    /* \"#utility.yul\":8608:8703   */\n  swap5\n  pop\n    /* \"#utility.yul\":8734:8735   */\n  0x01\n    /* \"#utility.yul\":8723:8732   */\n  dup3\n    /* \"#utility.yul\":8719:8736   */\n  and\n    /* \"#utility.yul\":8750:8751   */\n  0x00\n    /* \"#utility.yul\":8745:8882   */\n  dup2\n  eq\n  tag_171\n  jumpi\n    /* \"#utility.yul\":8896:8897   */\n  0x01\n    /* \"#utility.yul\":8891:9235   */\n  dup2\n  eq\n  tag_172\n  jumpi\n    /* \"#utility.yul\":8712:9235   */\n  jump(tag_170)\n    /* \"#utility.yul\":8745:8882   */\ntag_171:\n    /* \"#utility.yul\":8829:8833   */\n  0xff\n    /* \"#utility.yul\":8825:8834   */\n  not\n    /* \"#utility.yul\":8814:8823   */\n  dup4\n    /* \"#utility.yul\":8810:8835   */\n  and\n    /* \"#utility.yul\":8805:8808   */\n  dup7\n    /* \"#utility.yul\":8798:8836   */\n  mstore\n    /* \"#utility.yul\":8865:8871   */\n  dup2\n    /* \"#utility.yul\":8860:8863   */\n  dup7\n    /* \"#utility.yul\":8856:8872   */\n  add\n    /* \"#utility.yul\":8849:8872   */\n  swap4\n  pop\n    /* \"#utility.yul\":8745:8882   */\n  jump(tag_170)\n    /* \"#utility.yul\":8891:9235   */\ntag_172:\n    /* \"#utility.yul\":8958:8999   */\n  tag_173\n    /* \"#utility.yul\":8993:8998   */\n  dup6\n    /* \"#utility.yul\":8958:8999   */\n  tag_62\n  jump\t// in\ntag_173:\n    /* \"#utility.yul\":9021:9022   */\n  0x00\n    /* \"#utility.yul\":9035:9189   */\ntag_174:\n    /* \"#utility.yul\":9049:9055   */\n  dup4\n    /* \"#utility.yul\":9046:9047   */\n  dup2\n    /* \"#utility.yul\":9043:9056   */\n  lt\n    /* \"#utility.yul\":9035:9189   */\n  iszero\n  tag_176\n  jumpi\n    /* \"#utility.yul\":9123:9130   */\n  dup2\n    /* \"#utility.yul\":9117:9131   */\n  sload\n    /* \"#utility.yul\":9113:9114   */\n  dup2\n    /* \"#utility.yul\":9108:9111   */\n  dup10\n    /* \"#utility.yul\":9104:9115   */\n  add\n    /* \"#utility.yul\":9097:9132   */\n  mstore\n    /* \"#utility.yul\":9173:9174   */\n  0x01\n    /* \"#utility.yul\":9164:9171   */\n  dup3\n    /* \"#utility.yul\":9160:9175   */\n  add\n    /* \"#utility.yul\":9149:9175   */\n  swap2\n  pop\n    /* \"#utility.yul\":9071:9075   */\n  0x20\n    /* \"#utility.yul\":9068:9069   */\n  dup2\n    /* \"#utility.yul\":9064:9076   */\n  add\n    /* \"#utility.yul\":9059:9076   */\n  swap1\n  pop\n    /* \"#utility.yul\":9035:9189   */\n  jump(tag_174)\ntag_176:\n    /* \"#utility.yul\":9218:9224   */\n  dup4\n    /* \"#utility.yul\":9213:9216   */\n  dup9\n    /* \"#utility.yul\":9209:9225   */\n  add\n    /* \"#utility.yul\":9202:9225   */\n  swap6\n  pop\n    /* \"#utility.yul\":8898:9235   */\n  pop\n  pop\n    /* \"#utility.yul\":8712:9235   */\ntag_170:\n  pop\n    /* \"#utility.yul\":8501:9241   */\n  pop\n  pop\n    /* \"#utility.yul\":8392:9241   */\n  swap3\n  swap2\n  pop\n  pop\n  jump\t// out\n    /* \"#utility.yul\":9247:9520   */\ntag_20:\n    /* \"#utility.yul\":9378:9381   */\n  0x00\n    /* \"#utility.yul\":9400:9494   */\n  tag_178\n    /* \"#utility.yul\":9490:9493   */\n  dup3\n    /* \"#utility.yul\":9481:9487   */\n  dup5\n    /* \"#utility.yul\":9400:9494   */\n  tag_63\n  jump\t// in\ntag_178:\n    /* \"#utility.yul\":9393:9494   */\n  swap2\n  pop\n    /* \"#utility.yul\":9511:9514   */\n  dup2\n    /* \"#utility.yul\":9504:9514   */\n  swap1\n  pop\n    /* \"#utility.yul\":9247:9520   */\n  swap3\n  swap2\n  pop\n  pop\n  jump\t// out\n    /* \"#utility.yul\":9526:9603   */\ntag_64:\n    /* \"#utility.yul\":9563:9570   */\n  0x00\n    /* \"#utility.yul\":9592:9597   */\n  dup2\n    /* \"#utility.yul\":9581:9597   */\n  swap1\n  pop\n    /* \"#utility.yul\":9526:9603   */\n  swap2\n  swap1\n  pop\n  jump\t// out\n    /* \"#utility.yul\":9609:9727   */\ntag_65:\n    /* \"#utility.yul\":9696:9720   */\n  tag_181\n    /* \"#utility.yul\":9714:9719   */\n  dup2\n    /* \"#utility.yul\":9696:9720   */\n  tag_64\n  jump\t// in\ntag_181:\n    /* \"#utility.yul\":9691:9694   */\n  dup3\n    /* \"#utility.yul\":9684:9721   */\n  mstore\n    /* \"#utility.yul\":9609:9727   */\n  pop\n  pop\n  jump\t// out\n    /* \"#utility.yul\":9733:9851   */\ntag_66:\n    /* \"#utility.yul\":9820:9844   */\n  tag_183\n    /* \"#utility.yul\":9838:9843   */\n  dup2\n    /* \"#utility.yul\":9820:9844   */\n  tag_59\n  jump\t// in\ntag_183:\n    /* \"#utility.yul\":9815:9818   */\n  dup3\n    /* \"#utility.yul\":9808:9845   */\n  mstore\n    /* \"#utility.yul\":9733:9851   */\n  pop\n  pop\n  jump\t// out\n    /* \"#utility.yul\":9857:9975   */\ntag_67:\n    /* \"#utility.yul\":9944:9968   */\n  tag_185\n    /* \"#utility.yul\":9962:9967   */\n  dup2\n    /* \"#utility.yul\":9944:9968   */\n  tag_38\n  jump\t// in\ntag_185:\n    /* \"#utility.yul\":9939:9942   */\n  dup3\n    /* \"#utility.yul\":9932:9969   */\n  mstore\n    /* \"#utility.yul\":9857:9975   */\n  pop\n  pop\n  jump\t// out\n    /* \"#utility.yul\":9981:10645   */\ntag_22:\n    /* \"#utility.yul\":10186:10190   */\n  0x00\n    /* \"#utility.yul\":10224:10227   */\n  0xa0\n    /* \"#utility.yul\":10213:10222   */\n  dup3\n    /* \"#utility.yul\":10209:10228   */\n  add\n    /* \"#utility.yul\":10201:10228   */\n  swap1\n  pop\n    /* \"#utility.yul\":10238:10309   */\n  tag_187\n    /* \"#utility.yul\":10306:10307   */\n  0x00\n    /* \"#utility.yul\":10295:10304   */\n  dup4\n    /* \"#utility.yul\":10291:10308   */\n  add\n    /* \"#utility.yul\":10282:10288   */\n  dup9\n    /* \"#utility.yul\":10238:10309   */\n  tag_65\n  jump\t// in\ntag_187:\n    /* \"#utility.yul\":10319:10391   */\n  tag_188\n    /* \"#utility.yul\":10387:10389   */\n  0x20\n    /* \"#utility.yul\":10376:10385   */\n  dup4\n    /* \"#utility.yul\":10372:10390   */\n  add\n    /* \"#utility.yul\":10363:10369   */\n  dup8\n    /* \"#utility.yul\":10319:10391   */\n  tag_65\n  jump\t// in\ntag_188:\n    /* \"#utility.yul\":10401:10473   */\n  tag_189\n    /* \"#utility.yul\":10469:10471   */\n  0x40\n    /* \"#utility.yul\":10458:10467   */\n  dup4\n    /* \"#utility.yul\":10454:10472   */\n  add\n    /* \"#utility.yul\":10445:10451   */\n  dup7\n    /* \"#utility.yul\":10401:10473   */\n  tag_65\n  jump\t// in\ntag_189:\n    /* \"#utility.yul\":10483:10555   */\n  tag_190\n    /* \"#utility.yul\":10551:10553   */\n  0x60\n    /* \"#utility.yul\":10540:10549   */\n  dup4\n    /* \"#utility.yul\":10536:10554   */\n  add\n    /* \"#utility.yul\":10527:10533   */\n  dup6\n    /* \"#utility.yul\":10483:10555   */\n  tag_66\n  jump\t// in\ntag_190:\n    /* \"#utility.yul\":10565:10638   */\n  tag_191\n    /* \"#utility.yul\":10633:10636   */\n  0x80\n    /* \"#utility.yul\":10622:10631   */\n  dup4\n    /* \"#utility.yul\":10618:10637   */\n  add\n    /* \"#utility.yul\":10609:10615   */\n  dup5\n    /* \"#utility.yul\":10565:10638   */\n  tag_67\n  jump\t// in\ntag_191:\n    /* \"#utility.yul\":9981:10645   */\n  swap7\n  swap6\n  pop\n  pop\n  pop\n  pop\n  pop\n  pop\n  jump\t// out\n    /* \"SquiddyCore.sol\":143:7948  contract SquiddyCore is ERC4626 {... */\ntag_17:\n  mload(0x80)\n  mload(0xa0)\n  mload(0xc0)\n  mload(0xe0)\n  mload(0x0100)\n  mload(0x0120)\n  codecopy(0x00, dataOffset(sub_0), dataSize(sub_0))\n  0x00\n  assignImmutable(\"0x6b5c062ff531e4aab4774f509e92f4d1142a84e2071479e43245c0e4a7940df4\")\n  0x00\n  assignImmutable(\"0xae7d027a27a067b0ce216b860399a31145ba05bee5d36a5aedd4d9d773c92c99\")\n  0x00\n  assignImmutable(\"0xecac27c21aa9a89d7be9ad03c2d91e82cbd466284ecdf2bd5bad7f953539cc45\")\n  0x00\n  assignImmutable(\"0x880de8116b3dfac28e9ff528a9fef1d1e0a51449c1addce011ffec1f302992b6\")\n  0x00\n  assignImmutable(\"0xd67d834462ca31eaef1f30157e31659f60355143b7441e6fc7d9eae1fa79f3f8\")\n  0x00\n  assignImmutable(\"0x6585423cb6456b1d4957f6454d2f004f0c4f58d53a00082412d5c2ef4b1b31fd\")\n  return(0x00, dataSize(sub_0))\nstop\n\nsub_0: assembly {\n        /* \"SquiddyCore.sol\":143:7948  contract SquiddyCore is ERC4626 {... */\n      mstore(0x40, 0x80)\n      callvalue\n      dup1\n      iszero\n      tag_1\n      jumpi\n      0x00\n      dup1\n      revert\n    tag_1:\n      pop\n      jumpi(tag_2, lt(calldatasize, 0x04))\n      shr(0xe0, calldataload(0x00))\n      dup1\n      0x94bf804d\n      gt\n      tag_45\n      jumpi\n      dup1\n      0xc63d75b6\n      gt\n      tag_46\n      jumpi\n      dup1\n      0xdd62ed3e\n      gt\n      tag_47\n      jumpi\n      dup1\n      0xdd62ed3e\n      eq\n      tag_39\n      jumpi\n      dup1\n      0xecad9565\n      eq\n      tag_40\n      jumpi\n      dup1\n      0xef8b30f7\n      eq\n      tag_41\n      jumpi\n      dup1\n      0xf2fde38b\n      eq\n      tag_42\n      jumpi\n      dup1\n      0xf84d73f4\n      eq\n      tag_43\n      jumpi\n      dup1\n      0xfc407ae7\n      eq\n      tag_44\n      jumpi\n      jump(tag_2)\n    tag_47:\n      dup1\n      0xc63d75b6\n      eq\n      tag_34\n      jumpi\n      dup1\n      0xc6e6f592\n      eq\n      tag_35\n      jumpi\n      dup1\n      0xce96cb77\n      eq\n      tag_36\n      jumpi\n      dup1\n      0xd505accf\n      eq\n      tag_37\n      jumpi\n      dup1\n      0xd905777e\n      eq\n      tag_38\n      jumpi\n      jump(tag_2)\n    tag_46:\n      dup1\n      0xb460af94\n      gt\n      tag_48\n      jumpi\n      dup1\n      0xb460af94\n      eq\n      tag_29\n      jumpi\n      dup1\n      0xba087652\n      eq\n      tag_30\n      jumpi\n      dup1\n      0xbc368a8a\n      eq\n      tag_31\n      jumpi\n      dup1\n      0xbd662f88\n      eq\n      tag_32\n      jumpi\n      dup1\n      0xc5d664c6\n      eq\n      tag_33\n      jumpi\n      jump(tag_2)\n    tag_48:\n      dup1\n      0x94bf804d\n      eq\n      tag_24\n      jumpi\n      dup1\n      0x95d89b41\n      eq\n      tag_25\n      jumpi\n      dup1\n      0xa9059cbb\n      eq\n      tag_26\n      jumpi\n      dup1\n      0xac68a748\n      eq\n      tag_27\n      jumpi\n      dup1\n      0xb3d7f6b9\n      eq\n      tag_28\n      jumpi\n      jump(tag_2)\n    tag_45:\n      dup1\n      0x3644e515\n      gt\n      tag_49\n      jumpi\n      dup1\n      0x6e553f65\n      gt\n      tag_50\n      jumpi\n      dup1\n      0x6e553f65\n      eq\n      tag_18\n      jumpi\n      dup1\n      0x70a08231\n      eq\n      tag_19\n      jumpi\n      dup1\n      0x715018a6\n      eq\n      tag_20\n      jumpi\n      dup1\n      0x7ce3489b\n      eq\n      tag_21\n      jumpi\n      dup1\n      0x7ecebe00\n      eq\n      tag_22\n      jumpi\n      dup1\n      0x7fd6f15c\n      eq\n      tag_23\n      jumpi\n      jump(tag_2)\n    tag_50:\n      dup1\n      0x3644e515\n      eq\n      tag_13\n      jumpi\n      dup1\n      0x38d52e0f\n      eq\n      tag_14\n      jumpi\n      dup1\n      0x402d267d\n      eq\n      tag_15\n      jumpi\n      dup1\n      0x481c6a75\n      eq\n      tag_16\n      jumpi\n      dup1\n      0x4cdad506\n      eq\n      tag_17\n      jumpi\n      jump(tag_2)\n    tag_49:\n      dup1\n      0x18160ddd\n      gt\n      tag_51\n      jumpi\n      dup1\n      0x18160ddd\n      eq\n      tag_8\n      jumpi\n      dup1\n      0x1c693478\n      eq\n      tag_9\n      jumpi\n      dup1\n      0x23b872dd\n      eq\n      tag_10\n      jumpi\n      dup1\n      0x313ce567\n      eq\n      tag_11\n      jumpi\n      dup1\n      0x32ff7732\n      eq\n      tag_12\n      jumpi\n      jump(tag_2)\n    tag_51:\n      dup1\n      0x01e1d114\n      eq\n      tag_3\n      jumpi\n      dup1\n      0x06fdde03\n      eq\n      tag_4\n      jumpi\n      dup1\n      0x07a2d13a\n      eq\n      tag_5\n      jumpi\n      dup1\n      0x095ea7b3\n      eq\n      tag_6\n      jumpi\n      dup1\n      0x0a28a477\n      eq\n      tag_7\n      jumpi\n    tag_2:\n      0x00\n      dup1\n      revert\n        /* \"SquiddyCore.sol\":2235:2351  function totalAssets() public view override returns (uint256) {... */\n    tag_3:\n      tag_52\n      tag_53\n      jump\t// in\n    tag_52:\n      mload(0x40)\n      tag_54\n      swap2\n      swap1\n      tag_55\n      jump\t// in\n    tag_54:\n      mload(0x40)\n      dup1\n      swap2\n      sub\n      swap1\n      return\n        /* \"ERC20.sol\":1061:1079  string public name */\n    tag_4:\n      tag_56\n      tag_57\n      jump\t// in\n    tag_56:\n      mload(0x40)\n      tag_58\n      swap2\n      swap1\n      tag_59\n      jump\t// in\n    tag_58:\n      mload(0x40)\n      dup1\n      swap2\n      sub\n      swap1\n      return\n        /* \"ERC4626.sol\":4620:4913  function convertToAssets(uint256 shares)... */\n    tag_5:\n      tag_60\n      0x04\n      dup1\n      calldatasize\n      sub\n      dup2\n      add\n      swap1\n      tag_61\n      swap2\n      swap1\n      tag_62\n      jump\t// in\n    tag_61:\n      tag_63\n      jump\t// in\n    tag_60:\n      mload(0x40)\n      tag_64\n      swap2\n      swap1\n      tag_55\n      jump\t// in\n    tag_64:\n      mload(0x40)\n      dup1\n      swap2\n      sub\n      swap1\n      return\n        /* \"ERC20.sol\":2491:2730  function approve(address spender, uint256 amount)... */\n    tag_6:\n      tag_65\n      0x04\n      dup1\n      calldatasize\n      sub\n      dup2\n      add\n      swap1\n      tag_66\n      swap2\n      swap1\n      tag_67\n      jump\t// in\n    tag_66:\n      tag_68\n      jump\t// in\n    tag_65:\n      mload(0x40)\n      tag_69\n      swap2\n      swap1\n      tag_70\n      jump\t// in\n    tag_69:\n      mload(0x40)\n      dup1\n      swap2\n      sub\n      swap1\n      return\n        /* \"ERC4626.sol\":5343:5634  function previewWithdraw(uint256 assets)... */\n    tag_7:\n      tag_71\n      0x04\n      dup1\n      calldatasize\n      sub\n      dup2\n      add\n      swap1\n      tag_72\n      swap2\n      swap1\n      tag_62\n      jump\t// in\n    tag_72:\n      tag_73\n      jump\t// in\n    tag_71:\n      mload(0x40)\n      tag_74\n      swap2\n      swap1\n      tag_55\n      jump\t// in\n    tag_74:\n      mload(0x40)\n      dup1\n      swap2\n      sub\n      swap1\n      return\n        /* \"ERC20.sol\":1334:1360  uint256 public totalSupply */\n    tag_8:\n      tag_75\n      tag_76\n      jump\t// in\n    tag_75:\n      mload(0x40)\n      tag_77\n      swap2\n      swap1\n      tag_55\n      jump\t// in\n    tag_77:\n      mload(0x40)\n      dup1\n      swap2\n      sub\n      swap1\n      return\n        /* \"SquiddyCore.sol\":5126:5159  uint256 public targetFloatPercent */\n    tag_9:\n      tag_78\n      tag_79\n      jump\t// in\n    tag_78:\n      mload(0x40)\n      tag_80\n      swap2\n      swap1\n      tag_55\n      jump\t// in\n    tag_80:\n      mload(0x40)\n      dup1\n      swap2\n      sub\n      swap1\n      return\n        /* \"ERC20.sol\":3143:3747  function transferFrom(... */\n    tag_10:\n      tag_81\n      0x04\n      dup1\n      calldatasize\n      sub\n      dup2\n      add\n      swap1\n      tag_82\n      swap2\n      swap1\n      tag_83\n      jump\t// in\n    tag_82:\n      tag_84\n      jump\t// in\n    tag_81:\n      mload(0x40)\n      tag_85\n      swap2\n      swap1\n      tag_70\n      jump\t// in\n    tag_85:\n      mload(0x40)\n      dup1\n      swap2\n      sub\n      swap1\n      return\n        /* \"ERC20.sol\":1113:1144  uint8 public immutable decimals */\n    tag_11:\n      tag_86\n      tag_87\n      jump\t// in\n    tag_86:\n      mload(0x40)\n      tag_88\n      swap2\n      swap1\n      tag_89\n      jump\t// in\n    tag_88:\n      mload(0x40)\n      dup1\n      swap2\n      sub\n      swap1\n      return\n        /* \"SquiddyCore.sol\":6264:6767  function setUnderlyingIsWETH(bool newUnderlyingIsWETH)... */\n    tag_12:\n      tag_90\n      0x04\n      dup1\n      calldatasize\n      sub\n      dup2\n      add\n      swap1\n      tag_91\n      swap2\n      swap1\n      tag_92\n      jump\t// in\n    tag_91:\n      tag_93\n      jump\t// in\n    tag_90:\n      stop\n        /* \"ERC20.sol\":5471:5692  function DOMAIN_SEPARATOR() public view virtual returns (bytes32) {... */\n    tag_13:\n      tag_94\n      tag_95\n      jump\t// in\n    tag_94:\n      mload(0x40)\n      tag_96\n      swap2\n      swap1\n      tag_97\n      jump\t// in\n    tag_96:\n      mload(0x40)\n      dup1\n      swap2\n      sub\n      swap1\n      return\n        /* \"ERC4626.sol\":1165:1193  ERC20 public immutable asset */\n    tag_14:\n      tag_98\n      tag_99\n      jump\t// in\n    tag_98:\n      mload(0x40)\n      tag_100\n      swap2\n      swap1\n      tag_101\n      jump\t// in\n    tag_100:\n      mload(0x40)\n      dup1\n      swap2\n      sub\n      swap1\n      return\n        /* \"ERC4626.sol\":5997:6105  function maxDeposit(address) public view virtual returns (uint256) {... */\n    tag_15:\n      tag_102\n      0x04\n      dup1\n      calldatasize\n      sub\n      dup2\n      add\n      swap1\n      tag_103\n      swap2\n      swap1\n      tag_104\n      jump\t// in\n    tag_103:\n      tag_105\n      jump\t// in\n    tag_102:\n      mload(0x40)\n      tag_106\n      swap2\n      swap1\n      tag_55\n      jump\t// in\n    tag_106:\n      mload(0x40)\n      dup1\n      swap2\n      sub\n      swap1\n      return\n        /* \"SquiddyCore.sol\":2655:2744  function manager() public view virtual returns (address) {... */\n    tag_16:\n      tag_107\n      tag_108\n      jump\t// in\n    tag_107:\n      mload(0x40)\n      tag_109\n      swap2\n      swap1\n      tag_110\n      jump\t// in\n    tag_109:\n      mload(0x40)\n      dup1\n      swap2\n      sub\n      swap1\n      return\n        /* \"ERC4626.sol\":5640:5800  function previewRedeem(uint256 shares)... */\n    tag_17:\n      tag_111\n      0x04\n      dup1\n      calldatasize\n      sub\n      dup2\n      add\n      swap1\n      tag_112\n      swap2\n      swap1\n      tag_62\n      jump\t// in\n    tag_112:\n      tag_113\n      jump\t// in\n    tag_111:\n      mload(0x40)\n      tag_114\n      swap2\n      swap1\n      tag_55\n      jump\t// in\n    tag_114:\n      mload(0x40)\n      dup1\n      swap2\n      sub\n      swap1\n      return\n        /* \"ERC4626.sol\":1583:2127  function deposit(uint256 assets, address receiver)... */\n    tag_18:\n      tag_115\n      0x04\n      dup1\n      calldatasize\n      sub\n      dup2\n      add\n      swap1\n      tag_116\n      swap2\n      swap1\n      tag_117\n      jump\t// in\n    tag_116:\n      tag_118\n      jump\t// in\n    tag_115:\n      mload(0x40)\n      tag_119\n      swap2\n      swap1\n      tag_55\n      jump\t// in\n    tag_119:\n      mload(0x40)\n      dup1\n      swap2\n      sub\n      swap1\n      return\n        /* \"ERC20.sol\":1367:1411  mapping(address => uint256) public balanceOf */\n    tag_19:\n      tag_120\n      0x04\n      dup1\n      calldatasize\n      sub\n      dup2\n      add\n      swap1\n      tag_121\n      swap2\n      swap1\n      tag_104\n      jump\t// in\n    tag_121:\n      tag_122\n      jump\t// in\n    tag_120:\n      mload(0x40)\n      tag_123\n      swap2\n      swap1\n      tag_55\n      jump\t// in\n    tag_123:\n      mload(0x40)\n      dup1\n      swap2\n      sub\n      swap1\n      return\n        /* \"SquiddyCore.sol\":3095:3246  function renounceOwnership() public virtual onlyManager {... */\n    tag_20:\n      tag_124\n      tag_125\n      jump\t// in\n    tag_124:\n      stop\n        /* \"SquiddyCore.sol\":4090:4413  function setFeePercent(uint256 newFeePercent) external onlyManager {... */\n    tag_21:\n      tag_126\n      0x04\n      dup1\n      calldatasize\n      sub\n      dup2\n      add\n      swap1\n      tag_127\n      swap2\n      swap1\n      tag_62\n      jump\t// in\n    tag_127:\n      tag_128\n      jump\t// in\n    tag_126:\n      stop\n        /* \"ERC20.sol\":1781:1822  mapping(address => uint256) public nonces */\n    tag_22:\n      tag_129\n      0x04\n      dup1\n      calldatasize\n      sub\n      dup2\n      add\n      swap1\n      tag_130\n      swap2\n      swap1\n      tag_104\n      jump\t// in\n    tag_130:\n      tag_131\n      jump\t// in\n    tag_129:\n      mload(0x40)\n      tag_132\n      swap2\n      swap1\n      tag_55\n      jump\t// in\n    tag_132:\n      mload(0x40)\n      dup1\n      swap2\n      sub\n      swap1\n      return\n        /* \"SquiddyCore.sol\":3961:3986  uint256 public feePercent */\n    tag_23:\n      tag_133\n      tag_134\n      jump\t// in\n    tag_133:\n      mload(0x40)\n      tag_135\n      swap2\n      swap1\n      tag_55\n      jump\t// in\n    tag_135:\n      mload(0x40)\n      dup1\n      swap2\n      sub\n      swap1\n      return\n        /* \"ERC4626.sol\":2133:2628  function mint(uint256 shares, address receiver)... */\n    tag_24:\n      tag_136\n      0x04\n      dup1\n      calldatasize\n      sub\n      dup2\n      add\n      swap1\n      tag_137\n      swap2\n      swap1\n      tag_117\n      jump\t// in\n    tag_137:\n      tag_138\n      jump\t// in\n    tag_136:\n      mload(0x40)\n      tag_139\n      swap2\n      swap1\n      tag_55\n      jump\t// in\n    tag_139:\n      mload(0x40)\n      dup1\n      swap2\n      sub\n      swap1\n      return\n        /* \"ERC20.sol\":1086:1106  string public symbol */\n    tag_25:\n      tag_140\n      tag_141\n      jump\t// in\n    tag_140:\n      mload(0x40)\n      tag_142\n      swap2\n      swap1\n      tag_59\n      jump\t// in\n    tag_142:\n      mload(0x40)\n      dup1\n      swap2\n      sub\n      swap1\n      return\n        /* \"ERC20.sol\":2736:3137  function transfer(address to, uint256 amount)... */\n    tag_26:\n      tag_143\n      0x04\n      dup1\n      calldatasize\n      sub\n      dup2\n      add\n      swap1\n      tag_144\n      swap2\n      swap1\n      tag_67\n      jump\t// in\n    tag_144:\n      tag_145\n      jump\t// in\n    tag_143:\n      mload(0x40)\n      tag_146\n      swap2\n      swap1\n      tag_70\n      jump\t// in\n    tag_146:\n      mload(0x40)\n      dup1\n      swap2\n      sub\n      swap1\n      return\n        /* \"SquiddyCore.sol\":4606:4854  function claimFees(uint256 sVTokenAmount) external onlyManager {... */\n    tag_27:\n      tag_147\n      0x04\n      dup1\n      calldatasize\n      sub\n      dup2\n      add\n      swap1\n      tag_148\n      swap2\n      swap1\n      tag_62\n      jump\t// in\n    tag_148:\n      tag_149\n      jump\t// in\n    tag_147:\n      stop\n        /* \"ERC4626.sol\":5086:5337  function previewMint(uint256 shares) public view virtual returns (uint256) {... */\n    tag_28:\n      tag_150\n      0x04\n      dup1\n      calldatasize\n      sub\n      dup2\n      add\n      swap1\n      tag_151\n      swap2\n      swap1\n      tag_62\n      jump\t// in\n    tag_151:\n      tag_152\n      jump\t// in\n    tag_150:\n      mload(0x40)\n      tag_153\n      swap2\n      swap1\n      tag_55\n      jump\t// in\n    tag_153:\n      mload(0x40)\n      dup1\n      swap2\n      sub\n      swap1\n      return\n        /* \"ERC4626.sol\":2634:3329  function withdraw(... */\n    tag_29:\n      tag_154\n      0x04\n      dup1\n      calldatasize\n      sub\n      dup2\n      add\n      swap1\n      tag_155\n      swap2\n      swap1\n      tag_156\n      jump\t// in\n    tag_155:\n      tag_157\n      jump\t// in\n    tag_154:\n      mload(0x40)\n      tag_158\n      swap2\n      swap1\n      tag_55\n      jump\t// in\n    tag_158:\n      mload(0x40)\n      dup1\n      swap2\n      sub\n      swap1\n      return\n        /* \"ERC4626.sol\":3335:4064  function redeem(... */\n    tag_30:\n      tag_159\n      0x04\n      dup1\n      calldatasize\n      sub\n      dup2\n      add\n      swap1\n      tag_160\n      swap2\n      swap1\n      tag_156\n      jump\t// in\n    tag_160:\n      tag_161\n      jump\t// in\n    tag_159:\n      mload(0x40)\n      tag_162\n      swap2\n      swap1\n      tag_55\n      jump\t// in\n    tag_162:\n      mload(0x40)\n      dup1\n      swap2\n      sub\n      swap1\n      return\n        /* \"SquiddyCore.sol\":217:267  uint256 public beforeWithdrawHookCalledCounter = 0 */\n    tag_31:\n      tag_163\n      tag_164\n      jump\t// in\n    tag_163:\n      mload(0x40)\n      tag_165\n      swap2\n      swap1\n      tag_55\n      jump\t// in\n    tag_165:\n      mload(0x40)\n      dup1\n      swap2\n      sub\n      swap1\n      return\n        /* \"SquiddyCore.sol\":5287:5707  function setTargetFloatPercent(uint256 newTargetFloatPercent)... */\n    tag_32:\n      tag_166\n      0x04\n      dup1\n      calldatasize\n      sub\n      dup2\n      add\n      swap1\n      tag_167\n      swap2\n      swap1\n      tag_62\n      jump\t// in\n    tag_167:\n      tag_168\n      jump\t// in\n    tag_166:\n      stop\n        /* \"SquiddyCore.sol\":369:402  ERC20 public immutable UNDERLYING */\n    tag_33:\n      tag_169\n      tag_170\n      jump\t// in\n    tag_169:\n      mload(0x40)\n      tag_171\n      swap2\n      swap1\n      tag_101\n      jump\t// in\n    tag_171:\n      mload(0x40)\n      dup1\n      swap2\n      sub\n      swap1\n      return\n        /* \"ERC4626.sol\":6111:6216  function maxMint(address) public view virtual returns (uint256) {... */\n    tag_34:\n      tag_172\n      0x04\n      dup1\n      calldatasize\n      sub\n      dup2\n      add\n      swap1\n      tag_173\n      swap2\n      swap1\n      tag_104\n      jump\t// in\n    tag_173:\n      tag_174\n      jump\t// in\n    tag_172:\n      mload(0x40)\n      tag_175\n      swap2\n      swap1\n      tag_55\n      jump\t// in\n    tag_175:\n      mload(0x40)\n      dup1\n      swap2\n      sub\n      swap1\n      return\n        /* \"ERC4626.sol\":4321:4614  function convertToShares(uint256 assets)... */\n    tag_35:\n      tag_176\n      0x04\n      dup1\n      calldatasize\n      sub\n      dup2\n      add\n      swap1\n      tag_177\n      swap2\n      swap1\n      tag_62\n      jump\t// in\n    tag_177:\n      tag_178\n      jump\t// in\n    tag_176:\n      mload(0x40)\n      tag_179\n      swap2\n      swap1\n      tag_55\n      jump\t// in\n    tag_179:\n      mload(0x40)\n      dup1\n      swap2\n      sub\n      swap1\n      return\n        /* \"ERC4626.sol\":6222:6353  function maxWithdraw(address owner) public view virtual returns (uint256) {... */\n    tag_36:\n      tag_180\n      0x04\n      dup1\n      calldatasize\n      sub\n      dup2\n      add\n      swap1\n      tag_181\n      swap2\n      swap1\n      tag_104\n      jump\t// in\n    tag_181:\n      tag_182\n      jump\t// in\n    tag_180:\n      mload(0x40)\n      tag_183\n      swap2\n      swap1\n      tag_55\n      jump\t// in\n    tag_183:\n      mload(0x40)\n      dup1\n      swap2\n      sub\n      swap1\n      return\n        /* \"ERC20.sol\":3936:5465  function permit(... */\n    tag_37:\n      tag_184\n      0x04\n      dup1\n      calldatasize\n      sub\n      dup2\n      add\n      swap1\n      tag_185\n      swap2\n      swap1\n      tag_186\n      jump\t// in\n    tag_185:\n      tag_187\n      jump\t// in\n    tag_184:\n      stop\n        /* \"ERC4626.sol\":6359:6471  function maxRedeem(address owner) public view virtual returns (uint256) {... */\n    tag_38:\n      tag_188\n      0x04\n      dup1\n      calldatasize\n      sub\n      dup2\n      add\n      swap1\n      tag_189\n      swap2\n      swap1\n      tag_104\n      jump\t// in\n    tag_189:\n      tag_190\n      jump\t// in\n    tag_188:\n      mload(0x40)\n      tag_191\n      swap2\n      swap1\n      tag_55\n      jump\t// in\n    tag_191:\n      mload(0x40)\n      dup1\n      swap2\n      sub\n      swap1\n      return\n        /* \"ERC20.sol\":1418:1482  mapping(address => mapping(address => uint256)) public allowance */\n    tag_39:\n      tag_192\n      0x04\n      dup1\n      calldatasize\n      sub\n      dup2\n      add\n      swap1\n      tag_193\n      swap2\n      swap1\n      tag_194\n      jump\t// in\n    tag_193:\n      tag_195\n      jump\t// in\n    tag_192:\n      mload(0x40)\n      tag_196\n      swap2\n      swap1\n      tag_55\n      jump\t// in\n    tag_196:\n      mload(0x40)\n      dup1\n      swap2\n      sub\n      swap1\n      return\n        /* \"SquiddyCore.sol\":7077:7113  uint256 public totalStrategyHoldings */\n    tag_40:\n      tag_197\n      tag_198\n      jump\t// in\n    tag_197:\n      mload(0x40)\n      tag_199\n      swap2\n      swap1\n      tag_55\n      jump\t// in\n    tag_199:\n      mload(0x40)\n      dup1\n      swap2\n      sub\n      swap1\n      return\n        /* \"ERC4626.sol\":4919:5080  function previewDeposit(uint256 assets)... */\n    tag_41:\n      tag_200\n      0x04\n      dup1\n      calldatasize\n      sub\n      dup2\n      add\n      swap1\n      tag_201\n      swap2\n      swap1\n      tag_62\n      jump\t// in\n    tag_201:\n      tag_202\n      jump\t// in\n    tag_200:\n      mload(0x40)\n      tag_203\n      swap2\n      swap1\n      tag_55\n      jump\t// in\n    tag_203:\n      mload(0x40)\n      dup1\n      swap2\n      sub\n      swap1\n      return\n        /* \"SquiddyCore.sol\":3397:3679  function transferOwnership(address newOwner) public virtual onlyManager {... */\n    tag_42:\n      tag_204\n      0x04\n      dup1\n      calldatasize\n      sub\n      dup2\n      add\n      swap1\n      tag_205\n      swap2\n      swap1\n      tag_104\n      jump\t// in\n    tag_205:\n      tag_206\n      jump\t// in\n    tag_204:\n      stop\n        /* \"SquiddyCore.sol\":5979:6007  bool public underlyingIsWETH */\n    tag_43:\n      tag_207\n      tag_208\n      jump\t// in\n    tag_207:\n      mload(0x40)\n      tag_209\n      swap2\n      swap1\n      tag_70\n      jump\t// in\n    tag_209:\n      mload(0x40)\n      dup1\n      swap2\n      sub\n      swap1\n      return\n        /* \"SquiddyCore.sol\":273:321  uint256 public afterDepositHookCalledCounter = 0 */\n    tag_44:\n      tag_210\n      tag_211\n      jump\t// in\n    tag_210:\n      mload(0x40)\n      tag_212\n      swap2\n      swap1\n      tag_55\n      jump\t// in\n    tag_212:\n      mload(0x40)\n      dup1\n      swap2\n      sub\n      swap1\n      return\n        /* \"SquiddyCore.sol\":2235:2351  function totalAssets() public view override returns (uint256) {... */\n    tag_53:\n        /* \"SquiddyCore.sol\":2288:2295  uint256 */\n      0x00\n        /* \"SquiddyCore.sol\":2314:2319  asset */\n      immutable(\"0xecac27c21aa9a89d7be9ad03c2d91e82cbd466284ecdf2bd5bad7f953539cc45\")\n        /* \"SquiddyCore.sol\":2314:2329  asset.balanceOf */\n      0xffffffffffffffffffffffffffffffffffffffff\n      and\n      0x70a08231\n        /* \"SquiddyCore.sol\":2338:2342  this */\n      address\n        /* \"SquiddyCore.sol\":2314:2344  asset.balanceOf(address(this)) */\n      mload(0x40)\n      dup3\n      0xffffffff\n      and\n      0xe0\n      shl\n      dup2\n      mstore\n      0x04\n      add\n      tag_214\n      swap2\n      swap1\n      tag_110\n      jump\t// in\n    tag_214:\n      0x20\n      mload(0x40)\n      dup1\n      dup4\n      sub\n      dup2\n      dup7\n      gas\n      staticcall\n      iszero\n      dup1\n      iszero\n      tag_216\n      jumpi\n      returndatasize\n      0x00\n      dup1\n      returndatacopy\n      revert(0x00, returndatasize)\n    tag_216:\n      pop\n      pop\n      pop\n      pop\n      mload(0x40)\n      returndatasize\n      not(0x1f)\n      0x1f\n      dup3\n      add\n      and\n      dup3\n      add\n      dup1\n      0x40\n      mstore\n      pop\n      dup2\n      add\n      swap1\n      tag_217\n      swap2\n      swap1\n      tag_218\n      jump\t// in\n    tag_217:\n        /* \"SquiddyCore.sol\":2307:2344  return asset.balanceOf(address(this)) */\n      swap1\n      pop\n        /* \"SquiddyCore.sol\":2235:2351  function totalAssets() public view override returns (uint256) {... */\n      swap1\n      jump\t// out\n        /* \"ERC20.sol\":1061:1079  string public name */\n    tag_57:\n      0x00\n      dup1\n      sload\n      tag_219\n      swap1\n      tag_220\n      jump\t// in\n    tag_219:\n      dup1\n      0x1f\n      add\n      0x20\n      dup1\n      swap2\n      div\n      mul\n      0x20\n      add\n      mload(0x40)\n      swap1\n      dup2\n      add\n      0x40\n      mstore\n      dup1\n      swap3\n      swap2\n      swap1\n      dup2\n      dup2\n      mstore\n      0x20\n      add\n      dup3\n      dup1\n      sload\n      tag_221\n      swap1\n      tag_220\n      jump\t// in\n    tag_221:\n      dup1\n      iszero\n      tag_222\n      jumpi\n      dup1\n      0x1f\n      lt\n      tag_223\n      jumpi\n      0x0100\n      dup1\n      dup4\n      sload\n      div\n      mul\n      dup4\n      mstore\n      swap2\n      0x20\n      add\n      swap2\n      jump(tag_222)\n    tag_223:\n      dup3\n      add\n      swap2\n      swap1\n      0x00\n      mstore\n      keccak256(0x00, 0x20)\n      swap1\n    tag_224:\n      dup2\n      sload\n      dup2\n      mstore\n      swap1\n      0x01\n      add\n      swap1\n      0x20\n      add\n      dup1\n      dup4\n      gt\n      tag_224\n      jumpi\n      dup3\n      swap1\n      sub\n      0x1f\n      and\n      dup3\n      add\n      swap2\n    tag_222:\n      pop\n      pop\n      pop\n      pop\n      pop\n      dup2\n      jump\t// out\n        /* \"ERC4626.sol\":4620:4913  function convertToAssets(uint256 shares)... */\n    tag_63:\n        /* \"ERC4626.sol\":4722:4729  uint256 */\n      0x00\n        /* \"ERC4626.sol\":4745:4759  uint256 supply */\n      dup1\n        /* \"ERC4626.sol\":4762:4773  totalSupply */\n      sload(0x02)\n        /* \"ERC4626.sol\":4745:4773  uint256 supply = totalSupply */\n      swap1\n      pop\n        /* \"ERC4626.sol\":4853:4854  0 */\n      0x00\n        /* \"ERC4626.sol\":4843:4849  supply */\n      dup2\n        /* \"ERC4626.sol\":4843:4854  supply == 0 */\n      eq\n        /* \"ERC4626.sol\":4843:4906  supply == 0 ? shares : shares.mulDivDown(totalAssets(), supply) */\n      tag_226\n      jumpi\n        /* \"ERC4626.sol\":4866:4906  shares.mulDivDown(totalAssets(), supply) */\n      tag_227\n        /* \"ERC4626.sol\":4884:4897  totalAssets() */\n      tag_228\n        /* \"ERC4626.sol\":4884:4895  totalAssets */\n      tag_53\n        /* \"ERC4626.sol\":4884:4897  totalAssets() */\n      jump\t// in\n    tag_228:\n        /* \"ERC4626.sol\":4899:4905  supply */\n      dup3\n        /* \"ERC4626.sol\":4866:4872  shares */\n      dup6\n        /* \"ERC4626.sol\":4866:4883  shares.mulDivDown */\n      tag_229\n      swap1\n        /* \"ERC4626.sol\":4866:4906  shares.mulDivDown(totalAssets(), supply) */\n      swap3\n      swap2\n      swap1\n      0xffffffff\n      and\n      jump\t// in\n    tag_227:\n        /* \"ERC4626.sol\":4843:4906  supply == 0 ? shares : shares.mulDivDown(totalAssets(), supply) */\n      jump(tag_230)\n    tag_226:\n        /* \"ERC4626.sol\":4857:4863  shares */\n      dup3\n        /* \"ERC4626.sol\":4843:4906  supply == 0 ? shares : shares.mulDivDown(totalAssets(), supply) */\n    tag_230:\n        /* \"ERC4626.sol\":4836:4906  return supply == 0 ? shares : shares.mulDivDown(totalAssets(), supply) */\n      swap2\n      pop\n      pop\n        /* \"ERC4626.sol\":4620:4913  function convertToAssets(uint256 shares)... */\n      swap2\n      swap1\n      pop\n      jump\t// out\n        /* \"ERC20.sol\":2491:2730  function approve(address spender, uint256 amount)... */\n    tag_68:\n        /* \"ERC20.sol\":2589:2593  bool */\n      0x00\n        /* \"ERC20.sol\":2642:2648  amount */\n      dup2\n        /* \"ERC20.sol\":2609:2618  allowance */\n      0x04\n        /* \"ERC20.sol\":2609:2630  allowance[msg.sender] */\n      0x00\n        /* \"ERC20.sol\":2619:2629  msg.sender */\n      caller\n        /* \"ERC20.sol\":2609:2630  allowance[msg.sender] */\n      0xffffffffffffffffffffffffffffffffffffffff\n      and\n      0xffffffffffffffffffffffffffffffffffffffff\n      and\n      dup2\n      mstore\n      0x20\n      add\n      swap1\n      dup2\n      mstore\n      0x20\n      add\n      0x00\n      keccak256\n        /* \"ERC20.sol\":2609:2639  allowance[msg.sender][spender] */\n      0x00\n        /* \"ERC20.sol\":2631:2638  spender */\n      dup6\n        /* \"ERC20.sol\":2609:2639  allowance[msg.sender][spender] */\n      0xffffffffffffffffffffffffffffffffffffffff\n      and\n      0xffffffffffffffffffffffffffffffffffffffff\n      and\n      dup2\n      mstore\n      0x20\n      add\n      swap1\n      dup2\n      mstore\n      0x20\n      add\n      0x00\n      keccak256\n        /* \"ERC20.sol\":2609:2648  allowance[msg.sender][spender] = amount */\n      dup2\n      swap1\n      sstore\n      pop\n        /* \"ERC20.sol\":2685:2692  spender */\n      dup3\n        /* \"ERC20.sol\":2664:2701  Approval(msg.sender, spender, amount) */\n      0xffffffffffffffffffffffffffffffffffffffff\n      and\n        /* \"ERC20.sol\":2673:2683  msg.sender */\n      caller\n        /* \"ERC20.sol\":2664:2701  Approval(msg.sender, spender, amount) */\n      0xffffffffffffffffffffffffffffffffffffffff\n      and\n      0x8c5be1e5ebec7d5bd14f71427d1e84f3dd0314c0f7b2291e5b200ac8c7c3b925\n        /* \"ERC20.sol\":2694:2700  amount */\n      dup5\n        /* \"ERC20.sol\":2664:2701  Approval(msg.sender, spender, amount) */\n      mload(0x40)\n      tag_232\n      swap2\n      swap1\n      tag_55\n      jump\t// in\n    tag_232:\n      mload(0x40)\n      dup1\n      swap2\n      sub\n      swap1\n      log3\n        /* \"ERC20.sol\":2719:2723  true */\n      0x01\n        /* \"ERC20.sol\":2712:2723  return true */\n      swap1\n      pop\n        /* \"ERC20.sol\":2491:2730  function approve(address spender, uint256 amount)... */\n      swap3\n      swap2\n      pop\n      pop\n      jump\t// out\n        /* \"ERC4626.sol\":5343:5634  function previewWithdraw(uint256 assets)... */\n    tag_73:\n        /* \"ERC4626.sol\":5445:5452  uint256 */\n      0x00\n        /* \"ERC4626.sol\":5468:5482  uint256 supply */\n      dup1\n        /* \"ERC4626.sol\":5485:5496  totalSupply */\n      sload(0x02)\n        /* \"ERC4626.sol\":5468:5496  uint256 supply = totalSupply */\n      swap1\n      pop\n        /* \"ERC4626.sol\":5576:5577  0 */\n      0x00\n        /* \"ERC4626.sol\":5566:5572  supply */\n      dup2\n        /* \"ERC4626.sol\":5566:5577  supply == 0 */\n      eq\n        /* \"ERC4626.sol\":5566:5627  supply == 0 ? assets : assets.mulDivUp(supply, totalAssets()) */\n      tag_234\n      jumpi\n        /* \"ERC4626.sol\":5589:5627  assets.mulDivUp(supply, totalAssets()) */\n      tag_235\n        /* \"ERC4626.sol\":5605:5611  supply */\n      dup2\n        /* \"ERC4626.sol\":5613:5626  totalAssets() */\n      tag_236\n        /* \"ERC4626.sol\":5613:5624  totalAssets */\n      tag_53\n        /* \"ERC4626.sol\":5613:5626  totalAssets() */\n      jump\t// in\n    tag_236:\n        /* \"ERC4626.sol\":5589:5595  assets */\n      dup6\n        /* \"ERC4626.sol\":5589:5604  assets.mulDivUp */\n      tag_237\n      swap1\n        /* \"ERC4626.sol\":5589:5627  assets.mulDivUp(supply, totalAssets()) */\n      swap3\n      swap2\n      swap1\n      0xffffffff\n      and\n      jump\t// in\n    tag_235:\n        /* \"ERC4626.sol\":5566:5627  supply == 0 ? assets : assets.mulDivUp(supply, totalAssets()) */\n      jump(tag_238)\n    tag_234:\n        /* \"ERC4626.sol\":5580:5586  assets */\n      dup3\n        /* \"ERC4626.sol\":5566:5627  supply == 0 ? assets : assets.mulDivUp(supply, totalAssets()) */\n    tag_238:\n        /* \"ERC4626.sol\":5559:5627  return supply == 0 ? assets : assets.mulDivUp(supply, totalAssets()) */\n      swap2\n      pop\n      pop\n        /* \"ERC4626.sol\":5343:5634  function previewWithdraw(uint256 assets)... */\n      swap2\n      swap1\n      pop\n      jump\t// out\n        /* \"ERC20.sol\":1334:1360  uint256 public totalSupply */\n    tag_76:\n      sload(0x02)\n      dup2\n      jump\t// out\n        /* \"SquiddyCore.sol\":5126:5159  uint256 public targetFloatPercent */\n    tag_79:\n      sload(0x0a)\n      dup2\n      jump\t// out\n        /* \"ERC20.sol\":3143:3747  function transferFrom(... */\n    tag_84:\n        /* \"ERC20.sol\":3261:3265  bool */\n      0x00\n        /* \"ERC20.sol\":3277:3292  uint256 allowed */\n      dup1\n        /* \"ERC20.sol\":3295:3304  allowance */\n      0x04\n        /* \"ERC20.sol\":3295:3310  allowance[from] */\n      0x00\n        /* \"ERC20.sol\":3305:3309  from */\n      dup7\n        /* \"ERC20.sol\":3295:3310  allowance[from] */\n      0xffffffffffffffffffffffffffffffffffffffff\n      and\n      0xffffffffffffffffffffffffffffffffffffffff\n      and\n      dup2\n      mstore\n      0x20\n      add\n      swap1\n      dup2\n      mstore\n      0x20\n      add\n      0x00\n      keccak256\n        /* \"ERC20.sol\":3295:3322  allowance[from][msg.sender] */\n      0x00\n        /* \"ERC20.sol\":3311:3321  msg.sender */\n      caller\n        /* \"ERC20.sol\":3295:3322  allowance[from][msg.sender] */\n      0xffffffffffffffffffffffffffffffffffffffff\n      and\n      0xffffffffffffffffffffffffffffffffffffffff\n      and\n      dup2\n      mstore\n      0x20\n      add\n      swap1\n      dup2\n      mstore\n      0x20\n      add\n      0x00\n      keccak256\n      sload\n        /* \"ERC20.sol\":3277:3322  uint256 allowed = allowance[from][msg.sender] */\n      swap1\n      pop\n        /* \"ERC20.sol\":3384:3401  type(uint256).max */\n      0xffffffffffffffffffffffffffffffffffffffffffffffffffffffffffffffff\n        /* \"ERC20.sol\":3373:3380  allowed */\n      dup2\n        /* \"ERC20.sol\":3373:3401  allowed != type(uint256).max */\n      eq\n        /* \"ERC20.sol\":3369:3461  if (allowed != type(uint256).max)... */\n      tag_240\n      jumpi\n        /* \"ERC20.sol\":3455:3461  amount */\n      dup3\n        /* \"ERC20.sol\":3445:3452  allowed */\n      dup2\n        /* \"ERC20.sol\":3445:3461  allowed - amount */\n      tag_241\n      swap2\n      swap1\n      tag_242\n      jump\t// in\n    tag_241:\n        /* \"ERC20.sol\":3415:3424  allowance */\n      0x04\n        /* \"ERC20.sol\":3415:3430  allowance[from] */\n      0x00\n        /* \"ERC20.sol\":3425:3429  from */\n      dup8\n        /* \"ERC20.sol\":3415:3430  allowance[from] */\n      0xffffffffffffffffffffffffffffffffffffffff\n      and\n      0xffffffffffffffffffffffffffffffffffffffff\n      and\n      dup2\n      mstore\n      0x20\n      add\n      swap1\n      dup2\n      mstore\n      0x20\n      add\n      0x00\n      keccak256\n        /* \"ERC20.sol\":3415:3442  allowance[from][msg.sender] */\n      0x00\n        /* \"ERC20.sol\":3431:3441  msg.sender */\n      caller\n        /* \"ERC20.sol\":3415:3442  allowance[from][msg.sender] */\n      0xffffffffffffffffffffffffffffffffffffffff\n      and\n      0xffffffffffffffffffffffffffffffffffffffff\n      and\n      dup2\n      mstore\n      0x20\n      add\n      swap1\n      dup2\n      mstore\n      0x20\n      add\n      0x00\n      keccak256\n        /* \"ERC20.sol\":3415:3461  allowance[from][msg.sender] = allowed - amount */\n      dup2\n      swap1\n      sstore\n      pop\n        /* \"ERC20.sol\":3369:3461  if (allowed != type(uint256).max)... */\n    tag_240:\n        /* \"ERC20.sol\":3491:3497  amount */\n      dup3\n        /* \"ERC20.sol\":3472:3481  balanceOf */\n      0x03\n        /* \"ERC20.sol\":3472:3487  balanceOf[from] */\n      0x00\n        /* \"ERC20.sol\":3482:3486  from */\n      dup8\n        /* \"ERC20.sol\":3472:3487  balanceOf[from] */\n      0xffffffffffffffffffffffffffffffffffffffff\n      and\n      0xffffffffffffffffffffffffffffffffffffffff\n      and\n      dup2\n      mstore\n      0x20\n      add\n      swap1\n      dup2\n      mstore\n      0x20\n      add\n      0x00\n      keccak256\n      0x00\n        /* \"ERC20.sol\":3472:3497  balanceOf[from] -= amount */\n      dup3\n      dup3\n      sload\n      tag_243\n      swap2\n      swap1\n      tag_242\n      jump\t// in\n    tag_243:\n      swap3\n      pop\n      pop\n      dup2\n      swap1\n      sstore\n      pop\n        /* \"ERC20.sol\":3660:3666  amount */\n      dup3\n        /* \"ERC20.sol\":3643:3652  balanceOf */\n      0x03\n        /* \"ERC20.sol\":3643:3656  balanceOf[to] */\n      0x00\n        /* \"ERC20.sol\":3653:3655  to */\n      dup7\n        /* \"ERC20.sol\":3643:3656  balanceOf[to] */\n      0xffffffffffffffffffffffffffffffffffffffff\n      and\n      0xffffffffffffffffffffffffffffffffffffffff\n      and\n      dup2\n      mstore\n      0x20\n      add\n      swap1\n      dup2\n      mstore\n      0x20\n      add\n      0x00\n      keccak256\n      0x00\n        /* \"ERC20.sol\":3643:3666  balanceOf[to] += amount */\n      dup3\n      dup3\n      sload\n      add\n      swap3\n      pop\n      pop\n      dup2\n      swap1\n      sstore\n      pop\n        /* \"ERC20.sol\":3707:3709  to */\n      dup4\n        /* \"ERC20.sol\":3692:3718  Transfer(from, to, amount) */\n      0xffffffffffffffffffffffffffffffffffffffff\n      and\n        /* \"ERC20.sol\":3701:3705  from */\n      dup6\n        /* \"ERC20.sol\":3692:3718  Transfer(from, to, amount) */\n      0xffffffffffffffffffffffffffffffffffffffff\n      and\n      0xddf252ad1be2c89b69c2b068fc378daa952ba7f163c4a11628f55a4df523b3ef\n        /* \"ERC20.sol\":3711:3717  amount */\n      dup6\n        /* \"ERC20.sol\":3692:3718  Transfer(from, to, amount) */\n      mload(0x40)\n      tag_244\n      swap2\n      swap1\n      tag_55\n      jump\t// in\n    tag_244:\n      mload(0x40)\n      dup1\n      swap2\n      sub\n      swap1\n      log3\n        /* \"ERC20.sol\":3736:3740  true */\n      0x01\n        /* \"ERC20.sol\":3729:3740  return true */\n      swap2\n      pop\n      pop\n        /* \"ERC20.sol\":3143:3747  function transferFrom(... */\n      swap4\n      swap3\n      pop\n      pop\n      pop\n      jump\t// out\n        /* \"ERC20.sol\":1113:1144  uint8 public immutable decimals */\n    tag_87:\n      immutable(\"0x6585423cb6456b1d4957f6454d2f004f0c4f58d53a00082412d5c2ef4b1b31fd\")\n      dup2\n      jump\t// out\n        /* \"SquiddyCore.sol\":6264:6767  function setUnderlyingIsWETH(bool newUnderlyingIsWETH)... */\n    tag_93:\n        /* \"SquiddyCore.sol\":1682:1692  msg.sender */\n      caller\n        /* \"SquiddyCore.sol\":1669:1692  manager() == msg.sender */\n      0xffffffffffffffffffffffffffffffffffffffff\n      and\n        /* \"SquiddyCore.sol\":1669:1678  manager() */\n      tag_246\n        /* \"SquiddyCore.sol\":1669:1676  manager */\n      tag_108\n        /* \"SquiddyCore.sol\":1669:1678  manager() */\n      jump\t// in\n    tag_246:\n        /* \"SquiddyCore.sol\":1669:1692  manager() == msg.sender */\n      0xffffffffffffffffffffffffffffffffffffffff\n      and\n      eq\n        /* \"SquiddyCore.sol\":1661:1731  require(manager() == msg.sender, \"Ownable: caller is not the manager\") */\n      tag_247\n      jumpi\n      mload(0x40)\n      0x08c379a000000000000000000000000000000000000000000000000000000000\n      dup2\n      mstore\n      0x04\n      add\n      tag_248\n      swap1\n      tag_249\n      jump\t// in\n    tag_248:\n      mload(0x40)\n      dup1\n      swap2\n      sub\n      swap1\n      revert\n    tag_247:\n        /* \"SquiddyCore.sol\":6482:6501  newUnderlyingIsWETH */\n      dup1\n        /* \"SquiddyCore.sol\":6481:6501  !newUnderlyingIsWETH */\n      iszero\n        /* \"SquiddyCore.sol\":6481:6532  !newUnderlyingIsWETH || UNDERLYING.decimals() == 18 */\n      dup1\n      tag_251\n      jumpi\n      pop\n        /* \"SquiddyCore.sol\":6530:6532  18 */\n      0x12\n        /* \"SquiddyCore.sol\":6505:6515  UNDERLYING */\n      immutable(\"0x6b5c062ff531e4aab4774f509e92f4d1142a84e2071479e43245c0e4a7940df4\")\n        /* \"SquiddyCore.sol\":6505:6524  UNDERLYING.decimals */\n      0xffffffffffffffffffffffffffffffffffffffff\n      and\n      0x313ce567\n        /* \"SquiddyCore.sol\":6505:6526  UNDERLYING.decimals() */\n      mload(0x40)\n      dup2\n      0xffffffff\n      and\n      0xe0\n      shl\n      dup2\n      mstore\n      0x04\n      add\n      0x20\n      mload(0x40)\n      dup1\n      dup4\n      sub\n      dup2\n      dup7\n      gas\n      staticcall\n      iszero\n      dup1\n      iszero\n      tag_253\n      jumpi\n      returndatasize\n      0x00\n      dup1\n      returndatacopy\n      revert(0x00, returndatasize)\n    tag_253:\n      pop\n      pop\n      pop\n      pop\n      mload(0x40)\n      returndatasize\n      not(0x1f)\n      0x1f\n      dup3\n      add\n      and\n      dup3\n      add\n      dup1\n      0x40\n      mstore\n      pop\n      dup2\n      add\n      swap1\n      tag_254\n      swap2\n      swap1\n      tag_255\n      jump\t// in\n    tag_254:\n        /* \"SquiddyCore.sol\":6505:6532  UNDERLYING.decimals() == 18 */\n      0xff\n      and\n      eq\n        /* \"SquiddyCore.sol\":6481:6532  !newUnderlyingIsWETH || UNDERLYING.decimals() == 18 */\n    tag_251:\n        /* \"SquiddyCore.sol\":6460:6572  require(... */\n      tag_256\n      jumpi\n      mload(0x40)\n      0x08c379a000000000000000000000000000000000000000000000000000000000\n      dup2\n      mstore\n      0x04\n      add\n      tag_257\n      swap1\n      tag_258\n      jump\t// in\n    tag_257:\n      mload(0x40)\n      dup1\n      swap2\n      sub\n      swap1\n      revert\n    tag_256:\n        /* \"SquiddyCore.sol\":6669:6688  newUnderlyingIsWETH */\n      dup1\n        /* \"SquiddyCore.sol\":6650:6666  underlyingIsWETH */\n      0x0b\n      0x00\n        /* \"SquiddyCore.sol\":6650:6688  underlyingIsWETH = newUnderlyingIsWETH */\n      0x0100\n      exp\n      dup2\n      sload\n      dup2\n      0xff\n      mul\n      not\n      and\n      swap1\n      dup4\n      iszero\n      iszero\n      mul\n      or\n      swap1\n      sstore\n      pop\n        /* \"SquiddyCore.sol\":6728:6738  msg.sender */\n      caller\n        /* \"SquiddyCore.sol\":6704:6760  UnderlyingIsWETHUpdated(msg.sender, newUnderlyingIsWETH) */\n      0xffffffffffffffffffffffffffffffffffffffff\n      and\n      0x6375b140d4463d47b864f1f47e5d2893cc3478e73aedcc268b054fab0230a841\n        /* \"SquiddyCore.sol\":6740:6759  newUnderlyingIsWETH */\n      dup3\n        /* \"SquiddyCore.sol\":6704:6760  UnderlyingIsWETHUpdated(msg.sender, newUnderlyingIsWETH) */\n      mload(0x40)\n      tag_259\n      swap2\n      swap1\n      tag_70\n      jump\t// in\n    tag_259:\n      mload(0x40)\n      dup1\n      swap2\n      sub\n      swap1\n      log2\n        /* \"SquiddyCore.sol\":6264:6767  function setUnderlyingIsWETH(bool newUnderlyingIsWETH)... */\n      pop\n      jump\t// out\n        /* \"ERC20.sol\":5471:5692  function DOMAIN_SEPARATOR() public view virtual returns (bytes32) {... */\n    tag_95:\n        /* \"ERC20.sol\":5528:5535  bytes32 */\n      0x00\n        /* \"ERC20.sol\":5583:5599  INITIAL_CHAIN_ID */\n      immutable(\"0xd67d834462ca31eaef1f30157e31659f60355143b7441e6fc7d9eae1fa79f3f8\")\n        /* \"ERC20.sol\":5566:5579  block.chainid */\n      chainid\n        /* \"ERC20.sol\":5566:5599  block.chainid == INITIAL_CHAIN_ID */\n      eq\n        /* \"ERC20.sol\":5566:5685  block.chainid == INITIAL_CHAIN_ID... */\n      tag_261\n      jumpi\n        /* \"ERC20.sol\":5661:5685  computeDomainSeparator() */\n      tag_262\n        /* \"ERC20.sol\":5661:5683  computeDomainSeparator */\n      tag_263\n        /* \"ERC20.sol\":5661:5685  computeDomainSeparator() */\n      jump\t// in\n    tag_262:\n        /* \"ERC20.sol\":5566:5685  block.chainid == INITIAL_CHAIN_ID... */\n      jump(tag_264)\n    tag_261:\n        /* \"ERC20.sol\":5618:5642  INITIAL_DOMAIN_SEPARATOR */\n      immutable(\"0x880de8116b3dfac28e9ff528a9fef1d1e0a51449c1addce011ffec1f302992b6\")\n        /* \"ERC20.sol\":5566:5685  block.chainid == INITIAL_CHAIN_ID... */\n    tag_264:\n        /* \"ERC20.sol\":5547:5685  return... */\n      swap1\n      pop\n        /* \"ERC20.sol\":5471:5692  function DOMAIN_SEPARATOR() public view virtual returns (bytes32) {... */\n      swap1\n      jump\t// out\n        /* \"ERC4626.sol\":1165:1193  ERC20 public immutable asset */\n    tag_99:\n      immutable(\"0xecac27c21aa9a89d7be9ad03c2d91e82cbd466284ecdf2bd5bad7f953539cc45\")\n      dup2\n      jump\t// out\n        /* \"ERC4626.sol\":5997:6105  function maxDeposit(address) public view virtual returns (uint256) {... */\n    tag_105:\n        /* \"ERC4626.sol\":6055:6062  uint256 */\n      0x00\n        /* \"ERC4626.sol\":6081:6098  type(uint256).max */\n      0xffffffffffffffffffffffffffffffffffffffffffffffffffffffffffffffff\n        /* \"ERC4626.sol\":6074:6098  return type(uint256).max */\n      swap1\n      pop\n        /* \"ERC4626.sol\":5997:6105  function maxDeposit(address) public view virtual returns (uint256) {... */\n      swap2\n      swap1\n      pop\n      jump\t// out\n        /* \"SquiddyCore.sol\":2655:2744  function manager() public view virtual returns (address) {... */\n    tag_108:\n        /* \"SquiddyCore.sol\":2703:2710  address */\n      0x00\n        /* \"SquiddyCore.sol\":2729:2737  _manager */\n      0x06\n      0x00\n      swap1\n      sload\n      swap1\n      0x0100\n      exp\n      swap1\n      div\n      0xffffffffffffffffffffffffffffffffffffffff\n      and\n        /* \"SquiddyCore.sol\":2722:2737  return _manager */\n      swap1\n      pop\n        /* \"SquiddyCore.sol\":2655:2744  function manager() public view virtual returns (address) {... */\n      swap1\n      jump\t// out\n        /* \"ERC4626.sol\":5640:5800  function previewRedeem(uint256 shares)... */\n    tag_113:\n        /* \"ERC4626.sol\":5740:5747  uint256 */\n      0x00\n        /* \"ERC4626.sol\":5770:5793  convertToAssets(shares) */\n      tag_268\n        /* \"ERC4626.sol\":5786:5792  shares */\n      dup3\n        /* \"ERC4626.sol\":5770:5785  convertToAssets */\n      tag_63\n        /* \"ERC4626.sol\":5770:5793  convertToAssets(shares) */\n      jump\t// in\n    tag_268:\n        /* \"ERC4626.sol\":5763:5793  return convertToAssets(shares) */\n      swap1\n      pop\n        /* \"ERC4626.sol\":5640:5800  function previewRedeem(uint256 shares)... */\n      swap2\n      swap1\n      pop\n      jump\t// out\n        /* \"ERC4626.sol\":1583:2127  function deposit(uint256 assets, address receiver)... */\n    tag_118:\n        /* \"ERC4626.sol\":1682:1696  uint256 shares */\n      0x00\n        /* \"ERC4626.sol\":1832:1833  0 */\n      dup1\n        /* \"ERC4626.sol\":1805:1827  previewDeposit(assets) */\n      tag_270\n        /* \"ERC4626.sol\":1820:1826  assets */\n      dup5\n        /* \"ERC4626.sol\":1805:1819  previewDeposit */\n      tag_202\n        /* \"ERC4626.sol\":1805:1827  previewDeposit(assets) */\n      jump\t// in\n    tag_270:\n        /* \"ERC4626.sol\":1796:1827  shares = previewDeposit(assets) */\n      swap2\n      pop\n      dup2\n        /* \"ERC4626.sol\":1795:1833  (shares = previewDeposit(assets)) != 0 */\n      eq\n      iszero\n        /* \"ERC4626.sol\":1787:1849  require((shares = previewDeposit(assets)) != 0, \"ZERO_SHARES\") */\n      tag_271\n      jumpi\n      mload(0x40)\n      0x08c379a000000000000000000000000000000000000000000000000000000000\n      dup2\n      mstore\n      0x04\n      add\n      tag_272\n      swap1\n      tag_273\n      jump\t// in\n    tag_272:\n      mload(0x40)\n      dup1\n      swap2\n      sub\n      swap1\n      revert\n    tag_271:\n        /* \"ERC4626.sol\":1929:1986  asset.safeTransferFrom(msg.sender, address(this), assets) */\n      tag_274\n        /* \"ERC4626.sol\":1952:1962  msg.sender */\n      caller\n        /* \"ERC4626.sol\":1972:1976  this */\n      address\n        /* \"ERC4626.sol\":1979:1985  assets */\n      dup6\n        /* \"ERC4626.sol\":1929:1934  asset */\n      immutable(\"0xecac27c21aa9a89d7be9ad03c2d91e82cbd466284ecdf2bd5bad7f953539cc45\")\n        /* \"ERC4626.sol\":1929:1951  asset.safeTransferFrom */\n      0xffffffffffffffffffffffffffffffffffffffff\n      and\n      tag_275\n      swap1\n        /* \"ERC4626.sol\":1929:1986  asset.safeTransferFrom(msg.sender, address(this), assets) */\n      swap4\n      swap3\n      swap2\n      swap1\n      0xffffffff\n      and\n      jump\t// in\n    tag_274:\n        /* \"ERC4626.sol\":1997:2020  _mint(receiver, shares) */\n      tag_276\n        /* \"ERC4626.sol\":2003:2011  receiver */\n      dup3\n        /* \"ERC4626.sol\":2013:2019  shares */\n      dup3\n        /* \"ERC4626.sol\":1997:2002  _mint */\n      tag_277\n        /* \"ERC4626.sol\":1997:2020  _mint(receiver, shares) */\n      jump\t// in\n    tag_276:\n        /* \"ERC4626.sol\":2056:2064  receiver */\n      dup2\n        /* \"ERC4626.sol\":2036:2081  Deposit(msg.sender, receiver, assets, shares) */\n      0xffffffffffffffffffffffffffffffffffffffff\n      and\n        /* \"ERC4626.sol\":2044:2054  msg.sender */\n      caller\n        /* \"ERC4626.sol\":2036:2081  Deposit(msg.sender, receiver, assets, shares) */\n      0xffffffffffffffffffffffffffffffffffffffff\n      and\n      0xdcbc1c05240f31ff3ad067ef1ee35ce4997762752e3a095284754544f4c709d7\n        /* \"ERC4626.sol\":2066:2072  assets */\n      dup6\n        /* \"ERC4626.sol\":2074:2080  shares */\n      dup5\n        /* \"ERC4626.sol\":2036:2081  Deposit(msg.sender, receiver, assets, shares) */\n      mload(0x40)\n      tag_278\n      swap3\n      swap2\n      swap1\n      tag_279\n      jump\t// in\n    tag_278:\n      mload(0x40)\n      dup1\n      swap2\n      sub\n      swap1\n      log3\n        /* \"ERC4626.sol\":2092:2120  afterDeposit(assets, shares) */\n      tag_280\n        /* \"ERC4626.sol\":2105:2111  assets */\n      dup4\n        /* \"ERC4626.sol\":2113:2119  shares */\n      dup3\n        /* \"ERC4626.sol\":2092:2104  afterDeposit */\n      tag_281\n        /* \"ERC4626.sol\":2092:2120  afterDeposit(assets, shares) */\n      jump\t// in\n    tag_280:\n        /* \"ERC4626.sol\":1583:2127  function deposit(uint256 assets, address receiver)... */\n      swap3\n      swap2\n      pop\n      pop\n      jump\t// out\n        /* \"ERC20.sol\":1367:1411  mapping(address => uint256) public balanceOf */\n    tag_122:\n      mstore(0x20, 0x03)\n      dup1\n      0x00\n      mstore\n      keccak256(0x00, 0x40)\n      0x00\n      swap2\n      pop\n      swap1\n      pop\n      sload\n      dup2\n      jump\t// out\n        /* \"SquiddyCore.sol\":3095:3246  function renounceOwnership() public virtual onlyManager {... */\n    tag_125:\n        /* \"SquiddyCore.sol\":1682:1692  msg.sender */\n      caller\n        /* \"SquiddyCore.sol\":1669:1692  manager() == msg.sender */\n      0xffffffffffffffffffffffffffffffffffffffff\n      and\n        /* \"SquiddyCore.sol\":1669:1678  manager() */\n      tag_283\n        /* \"SquiddyCore.sol\":1669:1676  manager */\n      tag_108\n        /* \"SquiddyCore.sol\":1669:1678  manager() */\n      jump\t// in\n    tag_283:\n        /* \"SquiddyCore.sol\":1669:1692  manager() == msg.sender */\n      0xffffffffffffffffffffffffffffffffffffffff\n      and\n      eq\n        /* \"SquiddyCore.sol\":1661:1731  require(manager() == msg.sender, \"Ownable: caller is not the manager\") */\n      tag_284\n      jumpi\n      mload(0x40)\n      0x08c379a000000000000000000000000000000000000000000000000000000000\n      dup2\n      mstore\n      0x04\n      add\n      tag_285\n      swap1\n      tag_249\n      jump\t// in\n    tag_285:\n      mload(0x40)\n      dup1\n      swap2\n      sub\n      swap1\n      revert\n    tag_284:\n        /* \"SquiddyCore.sol\":3205:3206  0 */\n      0x00\n        /* \"SquiddyCore.sol\":3166:3208  OwnershipTransferred(_manager, address(0)) */\n      0xffffffffffffffffffffffffffffffffffffffff\n      and\n        /* \"SquiddyCore.sol\":3187:3195  _manager */\n      0x06\n      0x00\n      swap1\n      sload\n      swap1\n      0x0100\n      exp\n      swap1\n      div\n      0xffffffffffffffffffffffffffffffffffffffff\n      and\n        /* \"SquiddyCore.sol\":3166:3208  OwnershipTransferred(_manager, address(0)) */\n      0xffffffffffffffffffffffffffffffffffffffff\n      and\n      0x8be0079c531659141344cd1fd0a4f28419497f9722a3daafe3b4186f6b6457e0\n      mload(0x40)\n      mload(0x40)\n      dup1\n      swap2\n      sub\n      swap1\n      log3\n        /* \"SquiddyCore.sol\":3237:3238  0 */\n      0x00\n        /* \"SquiddyCore.sol\":3218:3226  _manager */\n      0x06\n      0x00\n        /* \"SquiddyCore.sol\":3218:3239  _manager = address(0) */\n      0x0100\n      exp\n      dup2\n      sload\n      dup2\n      0xffffffffffffffffffffffffffffffffffffffff\n      mul\n      not\n      and\n      swap1\n      dup4\n      0xffffffffffffffffffffffffffffffffffffffff\n      and\n      mul\n      or\n      swap1\n      sstore\n      pop\n        /* \"SquiddyCore.sol\":3095:3246  function renounceOwnership() public virtual onlyManager {... */\n      jump\t// out\n        /* \"SquiddyCore.sol\":4090:4413  function setFeePercent(uint256 newFeePercent) external onlyManager {... */\n    tag_128:\n        /* \"SquiddyCore.sol\":1682:1692  msg.sender */\n      caller\n        /* \"SquiddyCore.sol\":1669:1692  manager() == msg.sender */\n      0xffffffffffffffffffffffffffffffffffffffff\n      and\n        /* \"SquiddyCore.sol\":1669:1678  manager() */\n      tag_288\n        /* \"SquiddyCore.sol\":1669:1676  manager */\n      tag_108\n        /* \"SquiddyCore.sol\":1669:1678  manager() */\n      jump\t// in\n    tag_288:\n        /* \"SquiddyCore.sol\":1669:1692  manager() == msg.sender */\n      0xffffffffffffffffffffffffffffffffffffffff\n      and\n      eq\n        /* \"SquiddyCore.sol\":1661:1731  require(manager() == msg.sender, \"Ownable: caller is not the manager\") */\n      tag_289\n      jumpi\n      mload(0x40)\n      0x08c379a000000000000000000000000000000000000000000000000000000000\n      dup2\n      mstore\n      0x04\n      add\n      tag_290\n      swap1\n      tag_249\n      jump\t// in\n    tag_290:\n      mload(0x40)\n      dup1\n      swap2\n      sub\n      swap1\n      revert\n    tag_289:\n        /* \"SquiddyCore.sol\":4250:4254  1e18 */\n      0x0de0b6b3a7640000\n        /* \"SquiddyCore.sol\":4233:4246  newFeePercent */\n      dup2\n        /* \"SquiddyCore.sol\":4233:4254  newFeePercent <= 1e18 */\n      gt\n      iszero\n        /* \"SquiddyCore.sol\":4225:4271  require(newFeePercent <= 1e18, \"FEE_TOO_HIGH\") */\n      tag_292\n      jumpi\n      mload(0x40)\n      0x08c379a000000000000000000000000000000000000000000000000000000000\n      dup2\n      mstore\n      0x04\n      add\n      tag_293\n      swap1\n      tag_294\n      jump\t// in\n    tag_293:\n      mload(0x40)\n      dup1\n      swap2\n      sub\n      swap1\n      revert\n    tag_292:\n        /* \"SquiddyCore.sol\":4333:4346  newFeePercent */\n      dup1\n        /* \"SquiddyCore.sol\":4320:4330  feePercent */\n      0x09\n        /* \"SquiddyCore.sol\":4320:4346  feePercent = newFeePercent */\n      dup2\n      swap1\n      sstore\n      pop\n        /* \"SquiddyCore.sol\":4380:4390  msg.sender */\n      caller\n        /* \"SquiddyCore.sol\":4362:4406  FeePercentUpdated(msg.sender, newFeePercent) */\n      0xffffffffffffffffffffffffffffffffffffffff\n      and\n      0xec370615cc81fb334e5566fbc80664d9082377bf59288d64a79f3fbecf4323a9\n        /* \"SquiddyCore.sol\":4392:4405  newFeePercent */\n      dup3\n        /* \"SquiddyCore.sol\":4362:4406  FeePercentUpdated(msg.sender, newFeePercent) */\n      mload(0x40)\n      tag_295\n      swap2\n      swap1\n      tag_55\n      jump\t// in\n    tag_295:\n      mload(0x40)\n      dup1\n      swap2\n      sub\n      swap1\n      log2\n        /* \"SquiddyCore.sol\":4090:4413  function setFeePercent(uint256 newFeePercent) external onlyManager {... */\n      pop\n      jump\t// out\n        /* \"ERC20.sol\":1781:1822  mapping(address => uint256) public nonces */\n    tag_131:\n      mstore(0x20, 0x05)\n      dup1\n      0x00\n      mstore\n      keccak256(0x00, 0x40)\n      0x00\n      swap2\n      pop\n      swap1\n      pop\n      sload\n      dup2\n      jump\t// out\n        /* \"SquiddyCore.sol\":3961:3986  uint256 public feePercent */\n    tag_134:\n      sload(0x09)\n      dup2\n      jump\t// out\n        /* \"ERC4626.sol\":2133:2628  function mint(uint256 shares, address receiver)... */\n    tag_138:\n        /* \"ERC4626.sol\":2229:2243  uint256 assets */\n      0x00\n        /* \"ERC4626.sol\":2268:2287  previewMint(shares) */\n      tag_297\n        /* \"ERC4626.sol\":2280:2286  shares */\n      dup4\n        /* \"ERC4626.sol\":2268:2279  previewMint */\n      tag_152\n        /* \"ERC4626.sol\":2268:2287  previewMint(shares) */\n      jump\t// in\n    tag_297:\n        /* \"ERC4626.sol\":2259:2287  assets = previewMint(shares) */\n      swap1\n      pop\n        /* \"ERC4626.sol\":2430:2487  asset.safeTransferFrom(msg.sender, address(this), assets) */\n      tag_298\n        /* \"ERC4626.sol\":2453:2463  msg.sender */\n      caller\n        /* \"ERC4626.sol\":2473:2477  this */\n      address\n        /* \"ERC4626.sol\":2480:2486  assets */\n      dup4\n        /* \"ERC4626.sol\":2430:2435  asset */\n      immutable(\"0xecac27c21aa9a89d7be9ad03c2d91e82cbd466284ecdf2bd5bad7f953539cc45\")\n        /* \"ERC4626.sol\":2430:2452  asset.safeTransferFrom */\n      0xffffffffffffffffffffffffffffffffffffffff\n      and\n      tag_275\n      swap1\n        /* \"ERC4626.sol\":2430:2487  asset.safeTransferFrom(msg.sender, address(this), assets) */\n      swap4\n      swap3\n      swap2\n      swap1\n      0xffffffff\n      and\n      jump\t// in\n    tag_298:\n        /* \"ERC4626.sol\":2498:2521  _mint(receiver, shares) */\n      tag_299\n        /* \"ERC4626.sol\":2504:2512  receiver */\n      dup3\n        /* \"ERC4626.sol\":2514:2520  shares */\n      dup5\n        /* \"ERC4626.sol\":2498:2503  _mint */\n      tag_277\n        /* \"ERC4626.sol\":2498:2521  _mint(receiver, shares) */\n      jump\t// in\n    tag_299:\n        /* \"ERC4626.sol\":2557:2565  receiver */\n      dup2\n        /* \"ERC4626.sol\":2537:2582  Deposit(msg.sender, receiver, assets, shares) */\n      0xffffffffffffffffffffffffffffffffffffffff\n      and\n        /* \"ERC4626.sol\":2545:2555  msg.sender */\n      caller\n        /* \"ERC4626.sol\":2537:2582  Deposit(msg.sender, receiver, assets, shares) */\n      0xffffffffffffffffffffffffffffffffffffffff\n      and\n      0xdcbc1c05240f31ff3ad067ef1ee35ce4997762752e3a095284754544f4c709d7\n        /* \"ERC4626.sol\":2567:2573  assets */\n      dup4\n        /* \"ERC4626.sol\":2575:2581  shares */\n      dup7\n        /* \"ERC4626.sol\":2537:2582  Deposit(msg.sender, receiver, assets, shares) */\n      mload(0x40)\n      tag_300\n      swap3\n      swap2\n      swap1\n      tag_279\n      jump\t// in\n    tag_300:\n      mload(0x40)\n      dup1\n      swap2\n      sub\n      swap1\n      log3\n        /* \"ERC4626.sol\":2593:2621  afterDeposit(assets, shares) */\n      tag_301\n        /* \"ERC4626.sol\":2606:2612  assets */\n      dup2\n        /* \"ERC4626.sol\":2614:2620  shares */\n      dup5\n        /* \"ERC4626.sol\":2593:2605  afterDeposit */\n      tag_281\n        /* \"ERC4626.sol\":2593:2621  afterDeposit(assets, shares) */\n      jump\t// in\n    tag_301:\n        /* \"ERC4626.sol\":2133:2628  function mint(uint256 shares, address receiver)... */\n      swap3\n      swap2\n      pop\n      pop\n      jump\t// out\n        /* \"ERC20.sol\":1086:1106  string public symbol */\n    tag_141:\n      0x01\n      dup1\n      sload\n      tag_302\n      swap1\n      tag_220\n      jump\t// in\n    tag_302:\n      dup1\n      0x1f\n      add\n      0x20\n      dup1\n      swap2\n      div\n      mul\n      0x20\n      add\n      mload(0x40)\n      swap1\n      dup2\n      add\n      0x40\n      mstore\n      dup1\n      swap3\n      swap2\n      swap1\n      dup2\n      dup2\n      mstore\n      0x20\n      add\n      dup3\n      dup1\n      sload\n      tag_303\n      swap1\n      tag_220\n      jump\t// in\n    tag_303:\n      dup1\n      iszero\n      tag_304\n      jumpi\n      dup1\n      0x1f\n      lt\n      tag_305\n      jumpi\n      0x0100\n      dup1\n      dup4\n      sload\n      div\n      mul\n      dup4\n      mstore\n      swap2\n      0x20\n      add\n      swap2\n      jump(tag_304)\n    tag_305:\n      dup3\n      add\n      swap2\n      swap1\n      0x00\n      mstore\n      keccak256(0x00, 0x20)\n      swap1\n    tag_306:\n      dup2\n      sload\n      dup2\n      mstore\n      swap1\n      0x01\n      add\n      swap1\n      0x20\n      add\n      dup1\n      dup4\n      gt\n      tag_306\n      jumpi\n      dup3\n      swap1\n      sub\n      0x1f\n      and\n      dup3\n      add\n      swap2\n    tag_304:\n      pop\n      pop\n      pop\n      pop\n      pop\n      dup2\n      jump\t// out\n        /* \"ERC20.sol\":2736:3137  function transfer(address to, uint256 amount)... */\n    tag_145:\n        /* \"ERC20.sol\":2830:2834  bool */\n      0x00\n        /* \"ERC20.sol\":2875:2881  amount */\n      dup2\n        /* \"ERC20.sol\":2850:2859  balanceOf */\n      0x03\n        /* \"ERC20.sol\":2850:2871  balanceOf[msg.sender] */\n      0x00\n        /* \"ERC20.sol\":2860:2870  msg.sender */\n      caller\n        /* \"ERC20.sol\":2850:2871  balanceOf[msg.sender] */\n      0xffffffffffffffffffffffffffffffffffffffff\n      and\n      0xffffffffffffffffffffffffffffffffffffffff\n      and\n      dup2\n      mstore\n      0x20\n      add\n      swap1\n      dup2\n      mstore\n      0x20\n      add\n      0x00\n      keccak256\n      0x00\n        /* \"ERC20.sol\":2850:2881  balanceOf[msg.sender] -= amount */\n      dup3\n      dup3\n      sload\n      tag_308\n      swap2\n      swap1\n      tag_242\n      jump\t// in\n    tag_308:\n      swap3\n      pop\n      pop\n      dup2\n      swap1\n      sstore\n      pop\n        /* \"ERC20.sol\":3044:3050  amount */\n      dup2\n        /* \"ERC20.sol\":3027:3036  balanceOf */\n      0x03\n        /* \"ERC20.sol\":3027:3040  balanceOf[to] */\n      0x00\n        /* \"ERC20.sol\":3037:3039  to */\n      dup6\n        /* \"ERC20.sol\":3027:3040  balanceOf[to] */\n      0xffffffffffffffffffffffffffffffffffffffff\n      and\n      0xffffffffffffffffffffffffffffffffffffffff\n      and\n      dup2\n      mstore\n      0x20\n      add\n      swap1\n      dup2\n      mstore\n      0x20\n      add\n      0x00\n      keccak256\n      0x00\n        /* \"ERC20.sol\":3027:3050  balanceOf[to] += amount */\n      dup3\n      dup3\n      sload\n      add\n      swap3\n      pop\n      pop\n      dup2\n      swap1\n      sstore\n      pop\n        /* \"ERC20.sol\":3097:3099  to */\n      dup3\n        /* \"ERC20.sol\":3076:3108  Transfer(msg.sender, to, amount) */\n      0xffffffffffffffffffffffffffffffffffffffff\n      and\n        /* \"ERC20.sol\":3085:3095  msg.sender */\n      caller\n        /* \"ERC20.sol\":3076:3108  Transfer(msg.sender, to, amount) */\n      0xffffffffffffffffffffffffffffffffffffffff\n      and\n      0xddf252ad1be2c89b69c2b068fc378daa952ba7f163c4a11628f55a4df523b3ef\n        /* \"ERC20.sol\":3101:3107  amount */\n      dup5\n        /* \"ERC20.sol\":3076:3108  Transfer(msg.sender, to, amount) */\n      mload(0x40)\n      tag_309\n      swap2\n      swap1\n      tag_55\n      jump\t// in\n    tag_309:\n      mload(0x40)\n      dup1\n      swap2\n      sub\n      swap1\n      log3\n        /* \"ERC20.sol\":3126:3130  true */\n      0x01\n        /* \"ERC20.sol\":3119:3130  return true */\n      swap1\n      pop\n        /* \"ERC20.sol\":2736:3137  function transfer(address to, uint256 amount)... */\n      swap3\n      swap2\n      pop\n      pop\n      jump\t// out\n        /* \"SquiddyCore.sol\":4606:4854  function claimFees(uint256 sVTokenAmount) external onlyManager {... */\n    tag_149:\n        /* \"SquiddyCore.sol\":1682:1692  msg.sender */\n      caller\n        /* \"SquiddyCore.sol\":1669:1692  manager() == msg.sender */\n      0xffffffffffffffffffffffffffffffffffffffff\n      and\n        /* \"SquiddyCore.sol\":1669:1678  manager() */\n      tag_311\n        /* \"SquiddyCore.sol\":1669:1676  manager */\n      tag_108\n        /* \"SquiddyCore.sol\":1669:1678  manager() */\n      jump\t// in\n    tag_311:\n        /* \"SquiddyCore.sol\":1669:1692  manager() == msg.sender */\n      0xffffffffffffffffffffffffffffffffffffffff\n      and\n      eq\n        /* \"SquiddyCore.sol\":1661:1731  require(manager() == msg.sender, \"Ownable: caller is not the manager\") */\n      tag_312\n      jumpi\n      mload(0x40)\n      0x08c379a000000000000000000000000000000000000000000000000000000000\n      dup2\n      mstore\n      0x04\n      add\n      tag_313\n      swap1\n      tag_249\n      jump\t// in\n    tag_313:\n      mload(0x40)\n      dup1\n      swap2\n      sub\n      swap1\n      revert\n    tag_312:\n        /* \"SquiddyCore.sol\":4696:4706  msg.sender */\n      caller\n        /* \"SquiddyCore.sol\":4684:4722  FeesClaimed(msg.sender, sVTokenAmount) */\n      0xffffffffffffffffffffffffffffffffffffffff\n      and\n      0x9493e5bbe4e8e0ac67284469a2d677403d0378a85a59e341d3abc433d0d9a209\n        /* \"SquiddyCore.sol\":4708:4721  sVTokenAmount */\n      dup3\n        /* \"SquiddyCore.sol\":4684:4722  FeesClaimed(msg.sender, sVTokenAmount) */\n      mload(0x40)\n      tag_315\n      swap2\n      swap1\n      tag_55\n      jump\t// in\n    tag_315:\n      mload(0x40)\n      dup1\n      swap2\n      sub\n      swap1\n      log2\n        /* \"SquiddyCore.sol\":4806:4810  this */\n      address\n        /* \"SquiddyCore.sol\":4800:4820  ERC20(this).transfer */\n      0xffffffffffffffffffffffffffffffffffffffff\n      and\n      0xa9059cbb\n        /* \"SquiddyCore.sol\":4821:4831  msg.sender */\n      caller\n        /* \"SquiddyCore.sol\":4833:4846  sVTokenAmount */\n      dup4\n        /* \"SquiddyCore.sol\":4800:4847  ERC20(this).transfer(msg.sender, sVTokenAmount) */\n      mload(0x40)\n      dup4\n      0xffffffff\n      and\n      0xe0\n      shl\n      dup2\n      mstore\n      0x04\n      add\n      tag_316\n      swap3\n      swap2\n      swap1\n      tag_317\n      jump\t// in\n    tag_316:\n      0x20\n      mload(0x40)\n      dup1\n      dup4\n      sub\n      dup2\n      0x00\n      dup8\n      gas\n      call\n      iszero\n      dup1\n      iszero\n      tag_319\n      jumpi\n      returndatasize\n      0x00\n      dup1\n      returndatacopy\n      revert(0x00, returndatasize)\n    tag_319:\n      pop\n      pop\n      pop\n      pop\n      mload(0x40)\n      returndatasize\n      not(0x1f)\n      0x1f\n      dup3\n      add\n      and\n      dup3\n      add\n      dup1\n      0x40\n      mstore\n      pop\n      dup2\n      add\n      swap1\n      tag_320\n      swap2\n      swap1\n      tag_321\n      jump\t// in\n    tag_320:\n      pop\n        /* \"SquiddyCore.sol\":4606:4854  function claimFees(uint256 sVTokenAmount) external onlyManager {... */\n      pop\n      jump\t// out\n        /* \"ERC4626.sol\":5086:5337  function previewMint(uint256 shares) public view virtual returns (uint256) {... */\n    tag_152:\n        /* \"ERC4626.sol\":5152:5159  uint256 */\n      0x00\n        /* \"ERC4626.sol\":5171:5185  uint256 supply */\n      dup1\n        /* \"ERC4626.sol\":5188:5199  totalSupply */\n      sload(0x02)\n        /* \"ERC4626.sol\":5171:5199  uint256 supply = totalSupply */\n      swap1\n      pop\n        /* \"ERC4626.sol\":5279:5280  0 */\n      0x00\n        /* \"ERC4626.sol\":5269:5275  supply */\n      dup2\n        /* \"ERC4626.sol\":5269:5280  supply == 0 */\n      eq\n        /* \"ERC4626.sol\":5269:5330  supply == 0 ? shares : shares.mulDivUp(totalAssets(), supply) */\n      tag_323\n      jumpi\n        /* \"ERC4626.sol\":5292:5330  shares.mulDivUp(totalAssets(), supply) */\n      tag_324\n        /* \"ERC4626.sol\":5308:5321  totalAssets() */\n      tag_325\n        /* \"ERC4626.sol\":5308:5319  totalAssets */\n      tag_53\n        /* \"ERC4626.sol\":5308:5321  totalAssets() */\n      jump\t// in\n    tag_325:\n        /* \"ERC4626.sol\":5323:5329  supply */\n      dup3\n        /* \"ERC4626.sol\":5292:5298  shares */\n      dup6\n        /* \"ERC4626.sol\":5292:5307  shares.mulDivUp */\n      tag_237\n      swap1\n        /* \"ERC4626.sol\":5292:5330  shares.mulDivUp(totalAssets(), supply) */\n      swap3\n      swap2\n      swap1\n      0xffffffff\n      and\n      jump\t// in\n    tag_324:\n        /* \"ERC4626.sol\":5269:5330  supply == 0 ? shares : shares.mulDivUp(totalAssets(), supply) */\n      jump(tag_326)\n    tag_323:\n        /* \"ERC4626.sol\":5283:5289  shares */\n      dup3\n        /* \"ERC4626.sol\":5269:5330  supply == 0 ? shares : shares.mulDivUp(totalAssets(), supply) */\n    tag_326:\n        /* \"ERC4626.sol\":5262:5330  return supply == 0 ? shares : shares.mulDivUp(totalAssets(), supply) */\n      swap2\n      pop\n      pop\n        /* \"ERC4626.sol\":5086:5337  function previewMint(uint256 shares) public view virtual returns (uint256) {... */\n      swap2\n      swap1\n      pop\n      jump\t// out\n        /* \"ERC4626.sol\":2634:3329  function withdraw(... */\n    tag_157:\n        /* \"ERC4626.sol\":2755:2769  uint256 shares */\n      0x00\n        /* \"ERC4626.sol\":2790:2813  previewWithdraw(assets) */\n      tag_328\n        /* \"ERC4626.sol\":2806:2812  assets */\n      dup5\n        /* \"ERC4626.sol\":2790:2805  previewWithdraw */\n      tag_73\n        /* \"ERC4626.sol\":2790:2813  previewWithdraw(assets) */\n      jump\t// in\n    tag_328:\n        /* \"ERC4626.sol\":2781:2813  shares = previewWithdraw(assets) */\n      swap1\n      pop\n        /* \"ERC4626.sol\":2909:2914  owner */\n      dup2\n        /* \"ERC4626.sol\":2895:2914  msg.sender != owner */\n      0xffffffffffffffffffffffffffffffffffffffff\n      and\n        /* \"ERC4626.sol\":2895:2905  msg.sender */\n      caller\n        /* \"ERC4626.sol\":2895:2914  msg.sender != owner */\n      0xffffffffffffffffffffffffffffffffffffffff\n      and\n      eq\n        /* \"ERC4626.sol\":2891:3135  if (msg.sender != owner) {... */\n      tag_329\n      jumpi\n        /* \"ERC4626.sol\":2930:2945  uint256 allowed */\n      0x00\n        /* \"ERC4626.sol\":2948:2957  allowance */\n      0x04\n        /* \"ERC4626.sol\":2948:2964  allowance[owner] */\n      0x00\n        /* \"ERC4626.sol\":2958:2963  owner */\n      dup5\n        /* \"ERC4626.sol\":2948:2964  allowance[owner] */\n      0xffffffffffffffffffffffffffffffffffffffff\n      and\n      0xffffffffffffffffffffffffffffffffffffffff\n      and\n      dup2\n      mstore\n      0x20\n      add\n      swap1\n      dup2\n      mstore\n      0x20\n      add\n      0x00\n      keccak256\n        /* \"ERC4626.sol\":2948:2976  allowance[owner][msg.sender] */\n      0x00\n        /* \"ERC4626.sol\":2965:2975  msg.sender */\n      caller\n        /* \"ERC4626.sol\":2948:2976  allowance[owner][msg.sender] */\n      0xffffffffffffffffffffffffffffffffffffffff\n      and\n      0xffffffffffffffffffffffffffffffffffffffff\n      and\n      dup2\n      mstore\n      0x20\n      add\n      swap1\n      dup2\n      mstore\n      0x20\n      add\n      0x00\n      keccak256\n      sload\n        /* \"ERC4626.sol\":2930:2976  uint256 allowed = allowance[owner][msg.sender] */\n      swap1\n      pop\n        /* \"ERC4626.sol\":3042:3059  type(uint256).max */\n      0xffffffffffffffffffffffffffffffffffffffffffffffffffffffffffffffff\n        /* \"ERC4626.sol\":3031:3038  allowed */\n      dup2\n        /* \"ERC4626.sol\":3031:3059  allowed != type(uint256).max */\n      eq\n        /* \"ERC4626.sol\":3027:3124  if (allowed != type(uint256).max)... */\n      tag_330\n      jumpi\n        /* \"ERC4626.sol\":3118:3124  shares */\n      dup2\n        /* \"ERC4626.sol\":3108:3115  allowed */\n      dup2\n        /* \"ERC4626.sol\":3108:3124  allowed - shares */\n      tag_331\n      swap2\n      swap1\n      tag_242\n      jump\t// in\n    tag_331:\n        /* \"ERC4626.sol\":3077:3086  allowance */\n      0x04\n        /* \"ERC4626.sol\":3077:3093  allowance[owner] */\n      0x00\n        /* \"ERC4626.sol\":3087:3092  owner */\n      dup6\n        /* \"ERC4626.sol\":3077:3093  allowance[owner] */\n      0xffffffffffffffffffffffffffffffffffffffff\n      and\n      0xffffffffffffffffffffffffffffffffffffffff\n      and\n      dup2\n      mstore\n      0x20\n      add\n      swap1\n      dup2\n      mstore\n      0x20\n      add\n      0x00\n      keccak256\n        /* \"ERC4626.sol\":3077:3105  allowance[owner][msg.sender] */\n      0x00\n        /* \"ERC4626.sol\":3094:3104  msg.sender */\n      caller\n        /* \"ERC4626.sol\":3077:3105  allowance[owner][msg.sender] */\n      0xffffffffffffffffffffffffffffffffffffffff\n      and\n      0xffffffffffffffffffffffffffffffffffffffff\n      and\n      dup2\n      mstore\n      0x20\n      add\n      swap1\n      dup2\n      mstore\n      0x20\n      add\n      0x00\n      keccak256\n        /* \"ERC4626.sol\":3077:3124  allowance[owner][msg.sender] = allowed - shares */\n      dup2\n      swap1\n      sstore\n      pop\n        /* \"ERC4626.sol\":3027:3124  if (allowed != type(uint256).max)... */\n    tag_330:\n        /* \"ERC4626.sol\":2916:3135  {... */\n      pop\n        /* \"ERC4626.sol\":2891:3135  if (msg.sender != owner) {... */\n    tag_329:\n        /* \"ERC4626.sol\":3145:3175  beforeWithdraw(assets, shares) */\n      tag_332\n        /* \"ERC4626.sol\":3160:3166  assets */\n      dup5\n        /* \"ERC4626.sol\":3168:3174  shares */\n      dup3\n        /* \"ERC4626.sol\":3145:3159  beforeWithdraw */\n      tag_333\n        /* \"ERC4626.sol\":3145:3175  beforeWithdraw(assets, shares) */\n      jump\t// in\n    tag_332:\n        /* \"ERC4626.sol\":3186:3206  _burn(owner, shares) */\n      tag_334\n        /* \"ERC4626.sol\":3192:3197  owner */\n      dup3\n        /* \"ERC4626.sol\":3199:3205  shares */\n      dup3\n        /* \"ERC4626.sol\":3186:3191  _burn */\n      tag_335\n        /* \"ERC4626.sol\":3186:3206  _burn(owner, shares) */\n      jump\t// in\n    tag_334:\n        /* \"ERC4626.sol\":3253:3258  owner */\n      dup2\n        /* \"ERC4626.sol\":3222:3275  Withdraw(msg.sender, receiver, owner, assets, shares) */\n      0xffffffffffffffffffffffffffffffffffffffff\n      and\n        /* \"ERC4626.sol\":3243:3251  receiver */\n      dup4\n        /* \"ERC4626.sol\":3222:3275  Withdraw(msg.sender, receiver, owner, assets, shares) */\n      0xffffffffffffffffffffffffffffffffffffffff\n      and\n        /* \"ERC4626.sol\":3231:3241  msg.sender */\n      caller\n        /* \"ERC4626.sol\":3222:3275  Withdraw(msg.sender, receiver, owner, assets, shares) */\n      0xffffffffffffffffffffffffffffffffffffffff\n      and\n      0xfbde797d201c681b91056529119e0b02407c7bb96a4a2c75c01fc9667232c8db\n        /* \"ERC4626.sol\":3260:3266  assets */\n      dup8\n        /* \"ERC4626.sol\":3268:3274  shares */\n      dup6\n        /* \"ERC4626.sol\":3222:3275  Withdraw(msg.sender, receiver, owner, assets, shares) */\n      mload(0x40)\n      tag_336\n      swap3\n      swap2\n      swap1\n      tag_279\n      jump\t// in\n    tag_336:\n      mload(0x40)\n      dup1\n      swap2\n      sub\n      swap1\n      log4\n        /* \"ERC4626.sol\":3286:3322  asset.safeTransfer(receiver, assets) */\n      tag_337\n        /* \"ERC4626.sol\":3305:3313  receiver */\n      dup4\n        /* \"ERC4626.sol\":3315:3321  assets */\n      dup6\n        /* \"ERC4626.sol\":3286:3291  asset */\n      immutable(\"0xecac27c21aa9a89d7be9ad03c2d91e82cbd466284ecdf2bd5bad7f953539cc45\")\n        /* \"ERC4626.sol\":3286:3304  asset.safeTransfer */\n      0xffffffffffffffffffffffffffffffffffffffff\n      and\n      tag_338\n      swap1\n        /* \"ERC4626.sol\":3286:3322  asset.safeTransfer(receiver, assets) */\n      swap3\n      swap2\n      swap1\n      0xffffffff\n      and\n      jump\t// in\n    tag_337:\n        /* \"ERC4626.sol\":2634:3329  function withdraw(... */\n      swap4\n      swap3\n      pop\n      pop\n      pop\n      jump\t// out\n        /* \"ERC4626.sol\":3335:4064  function redeem(... */\n    tag_161:\n        /* \"ERC4626.sol\":3454:3468  uint256 assets */\n      0x00\n        /* \"ERC4626.sol\":3498:3503  owner */\n      dup2\n        /* \"ERC4626.sol\":3484:3503  msg.sender != owner */\n      0xffffffffffffffffffffffffffffffffffffffff\n      and\n        /* \"ERC4626.sol\":3484:3494  msg.sender */\n      caller\n        /* \"ERC4626.sol\":3484:3503  msg.sender != owner */\n      0xffffffffffffffffffffffffffffffffffffffff\n      and\n      eq\n        /* \"ERC4626.sol\":3480:3724  if (msg.sender != owner) {... */\n      tag_340\n      jumpi\n        /* \"ERC4626.sol\":3519:3534  uint256 allowed */\n      0x00\n        /* \"ERC4626.sol\":3537:3546  allowance */\n      0x04\n        /* \"ERC4626.sol\":3537:3553  allowance[owner] */\n      0x00\n        /* \"ERC4626.sol\":3547:3552  owner */\n      dup5\n        /* \"ERC4626.sol\":3537:3553  allowance[owner] */\n      0xffffffffffffffffffffffffffffffffffffffff\n      and\n      0xffffffffffffffffffffffffffffffffffffffff\n      and\n      dup2\n      mstore\n      0x20\n      add\n      swap1\n      dup2\n      mstore\n      0x20\n      add\n      0x00\n      keccak256\n        /* \"ERC4626.sol\":3537:3565  allowance[owner][msg.sender] */\n      0x00\n        /* \"ERC4626.sol\":3554:3564  msg.sender */\n      caller\n        /* \"ERC4626.sol\":3537:3565  allowance[owner][msg.sender] */\n      0xffffffffffffffffffffffffffffffffffffffff\n      and\n      0xffffffffffffffffffffffffffffffffffffffff\n      and\n      dup2\n      mstore\n      0x20\n      add\n      swap1\n      dup2\n      mstore\n      0x20\n      add\n      0x00\n      keccak256\n      sload\n        /* \"ERC4626.sol\":3519:3565  uint256 allowed = allowance[owner][msg.sender] */\n      swap1\n      pop\n        /* \"ERC4626.sol\":3631:3648  type(uint256).max */\n      0xffffffffffffffffffffffffffffffffffffffffffffffffffffffffffffffff\n        /* \"ERC4626.sol\":3620:3627  allowed */\n      dup2\n        /* \"ERC4626.sol\":3620:3648  allowed != type(uint256).max */\n      eq\n        /* \"ERC4626.sol\":3616:3713  if (allowed != type(uint256).max)... */\n      tag_341\n      jumpi\n        /* \"ERC4626.sol\":3707:3713  shares */\n      dup5\n        /* \"ERC4626.sol\":3697:3704  allowed */\n      dup2\n        /* \"ERC4626.sol\":3697:3713  allowed - shares */\n      tag_342\n      swap2\n      swap1\n      tag_242\n      jump\t// in\n    tag_342:\n        /* \"ERC4626.sol\":3666:3675  allowance */\n      0x04\n        /* \"ERC4626.sol\":3666:3682  allowance[owner] */\n      0x00\n        /* \"ERC4626.sol\":3676:3681  owner */\n      dup6\n        /* \"ERC4626.sol\":3666:3682  allowance[owner] */\n      0xffffffffffffffffffffffffffffffffffffffff\n      and\n      0xffffffffffffffffffffffffffffffffffffffff\n      and\n      dup2\n      mstore\n      0x20\n      add\n      swap1\n      dup2\n      mstore\n      0x20\n      add\n      0x00\n      keccak256\n        /* \"ERC4626.sol\":3666:3694  allowance[owner][msg.sender] */\n      0x00\n        /* \"ERC4626.sol\":3683:3693  msg.sender */\n      caller\n        /* \"ERC4626.sol\":3666:3694  allowance[owner][msg.sender] */\n      0xffffffffffffffffffffffffffffffffffffffff\n      and\n      0xffffffffffffffffffffffffffffffffffffffff\n      and\n      dup2\n      mstore\n      0x20\n      add\n      swap1\n      dup2\n      mstore\n      0x20\n      add\n      0x00\n      keccak256\n        /* \"ERC4626.sol\":3666:3713  allowance[owner][msg.sender] = allowed - shares */\n      dup2\n      swap1\n      sstore\n      pop\n        /* \"ERC4626.sol\":3616:3713  if (allowed != type(uint256).max)... */\n    tag_341:\n        /* \"ERC4626.sol\":3505:3724  {... */\n      pop\n        /* \"ERC4626.sol\":3480:3724  if (msg.sender != owner) {... */\n    tag_340:\n        /* \"ERC4626.sol\":3852:3853  0 */\n      0x00\n        /* \"ERC4626.sol\":3826:3847  previewRedeem(shares) */\n      tag_343\n        /* \"ERC4626.sol\":3840:3846  shares */\n      dup6\n        /* \"ERC4626.sol\":3826:3839  previewRedeem */\n      tag_113\n        /* \"ERC4626.sol\":3826:3847  previewRedeem(shares) */\n      jump\t// in\n    tag_343:\n        /* \"ERC4626.sol\":3817:3847  assets = previewRedeem(shares) */\n      swap2\n      pop\n      dup2\n        /* \"ERC4626.sol\":3816:3853  (assets = previewRedeem(shares)) != 0 */\n      eq\n      iszero\n        /* \"ERC4626.sol\":3808:3869  require((assets = previewRedeem(shares)) != 0, \"ZERO_ASSETS\") */\n      tag_344\n      jumpi\n      mload(0x40)\n      0x08c379a000000000000000000000000000000000000000000000000000000000\n      dup2\n      mstore\n      0x04\n      add\n      tag_345\n      swap1\n      tag_346\n      jump\t// in\n    tag_345:\n      mload(0x40)\n      dup1\n      swap2\n      sub\n      swap1\n      revert\n    tag_344:\n        /* \"ERC4626.sol\":3880:3910  beforeWithdraw(assets, shares) */\n      tag_347\n        /* \"ERC4626.sol\":3895:3901  assets */\n      dup2\n        /* \"ERC4626.sol\":3903:3909  shares */\n      dup6\n        /* \"ERC4626.sol\":3880:3894  beforeWithdraw */\n      tag_333\n        /* \"ERC4626.sol\":3880:3910  beforeWithdraw(assets, shares) */\n      jump\t// in\n    tag_347:\n        /* \"ERC4626.sol\":3921:3941  _burn(owner, shares) */\n      tag_348\n        /* \"ERC4626.sol\":3927:3932  owner */\n      dup3\n        /* \"ERC4626.sol\":3934:3940  shares */\n      dup6\n        /* \"ERC4626.sol\":3921:3926  _burn */\n      tag_335\n        /* \"ERC4626.sol\":3921:3941  _burn(owner, shares) */\n      jump\t// in\n    tag_348:\n        /* \"ERC4626.sol\":3988:3993  owner */\n      dup2\n        /* \"ERC4626.sol\":3957:4010  Withdraw(msg.sender, receiver, owner, assets, shares) */\n      0xffffffffffffffffffffffffffffffffffffffff\n      and\n        /* \"ERC4626.sol\":3978:3986  receiver */\n      dup4\n        /* \"ERC4626.sol\":3957:4010  Withdraw(msg.sender, receiver, owner, assets, shares) */\n      0xffffffffffffffffffffffffffffffffffffffff\n      and\n        /* \"ERC4626.sol\":3966:3976  msg.sender */\n      caller\n        /* \"ERC4626.sol\":3957:4010  Withdraw(msg.sender, receiver, owner, assets, shares) */\n      0xffffffffffffffffffffffffffffffffffffffff\n      and\n      0xfbde797d201c681b91056529119e0b02407c7bb96a4a2c75c01fc9667232c8db\n        /* \"ERC4626.sol\":3995:4001  assets */\n      dup5\n        /* \"ERC4626.sol\":4003:4009  shares */\n      dup9\n        /* \"ERC4626.sol\":3957:4010  Withdraw(msg.sender, receiver, owner, assets, shares) */\n      mload(0x40)\n      tag_349\n      swap3\n      swap2\n      swap1\n      tag_279\n      jump\t// in\n    tag_349:\n      mload(0x40)\n      dup1\n      swap2\n      sub\n      swap1\n      log4\n        /* \"ERC4626.sol\":4021:4057  asset.safeTransfer(receiver, assets) */\n      tag_350\n        /* \"ERC4626.sol\":4040:4048  receiver */\n      dup4\n        /* \"ERC4626.sol\":4050:4056  assets */\n      dup3\n        /* \"ERC4626.sol\":4021:4026  asset */\n      immutable(\"0xecac27c21aa9a89d7be9ad03c2d91e82cbd466284ecdf2bd5bad7f953539cc45\")\n        /* \"ERC4626.sol\":4021:4039  asset.safeTransfer */\n      0xffffffffffffffffffffffffffffffffffffffff\n      and\n      tag_338\n      swap1\n        /* \"ERC4626.sol\":4021:4057  asset.safeTransfer(receiver, assets) */\n      swap3\n      swap2\n      swap1\n      0xffffffff\n      and\n      jump\t// in\n    tag_350:\n        /* \"ERC4626.sol\":3335:4064  function redeem(... */\n      swap4\n      swap3\n      pop\n      pop\n      pop\n      jump\t// out\n        /* \"SquiddyCore.sol\":217:267  uint256 public beforeWithdrawHookCalledCounter = 0 */\n    tag_164:\n      sload(0x07)\n      dup2\n      jump\t// out\n        /* \"SquiddyCore.sol\":5287:5707  function setTargetFloatPercent(uint256 newTargetFloatPercent)... */\n    tag_168:\n        /* \"SquiddyCore.sol\":1682:1692  msg.sender */\n      caller\n        /* \"SquiddyCore.sol\":1669:1692  manager() == msg.sender */\n      0xffffffffffffffffffffffffffffffffffffffff\n      and\n        /* \"SquiddyCore.sol\":1669:1678  manager() */\n      tag_352\n        /* \"SquiddyCore.sol\":1669:1676  manager */\n      tag_108\n        /* \"SquiddyCore.sol\":1669:1678  manager() */\n      jump\t// in\n    tag_352:\n        /* \"SquiddyCore.sol\":1669:1692  manager() == msg.sender */\n      0xffffffffffffffffffffffffffffffffffffffff\n      and\n      eq\n        /* \"SquiddyCore.sol\":1661:1731  require(manager() == msg.sender, \"Ownable: caller is not the manager\") */\n      tag_353\n      jumpi\n      mload(0x40)\n      0x08c379a000000000000000000000000000000000000000000000000000000000\n      dup2\n      mstore\n      0x04\n      add\n      tag_354\n      swap1\n      tag_249\n      jump\t// in\n    tag_354:\n      mload(0x40)\n      dup1\n      swap2\n      sub\n      swap1\n      revert\n    tag_353:\n        /* \"SquiddyCore.sol\":5500:5504  1e18 */\n      0x0de0b6b3a7640000\n        /* \"SquiddyCore.sol\":5475:5496  newTargetFloatPercent */\n      dup2\n        /* \"SquiddyCore.sol\":5475:5504  newTargetFloatPercent <= 1e18 */\n      gt\n      iszero\n        /* \"SquiddyCore.sol\":5467:5524  require(newTargetFloatPercent <= 1e18, \"TARGET_TOO_HIGH\") */\n      tag_356\n      jumpi\n      mload(0x40)\n      0x08c379a000000000000000000000000000000000000000000000000000000000\n      dup2\n      mstore\n      0x04\n      add\n      tag_357\n      swap1\n      tag_358\n      jump\t// in\n    tag_357:\n      mload(0x40)\n      dup1\n      swap2\n      sub\n      swap1\n      revert\n    tag_356:\n        /* \"SquiddyCore.sol\":5603:5624  newTargetFloatPercent */\n      dup1\n        /* \"SquiddyCore.sol\":5582:5600  targetFloatPercent */\n      0x0a\n        /* \"SquiddyCore.sol\":5582:5624  targetFloatPercent = newTargetFloatPercent */\n      dup2\n      swap1\n      sstore\n      pop\n        /* \"SquiddyCore.sol\":5666:5676  msg.sender */\n      caller\n        /* \"SquiddyCore.sol\":5640:5700  TargetFloatPercentUpdated(msg.sender, newTargetFloatPercent) */\n      0xffffffffffffffffffffffffffffffffffffffff\n      and\n      0x95bc4480b51f4860106d42850bcae222cf3303fb2b7d433e896205e0ebefe369\n        /* \"SquiddyCore.sol\":5678:5699  newTargetFloatPercent */\n      dup3\n        /* \"SquiddyCore.sol\":5640:5700  TargetFloatPercentUpdated(msg.sender, newTargetFloatPercent) */\n      mload(0x40)\n      tag_359\n      swap2\n      swap1\n      tag_55\n      jump\t// in\n    tag_359:\n      mload(0x40)\n      dup1\n      swap2\n      sub\n      swap1\n      log2\n        /* \"SquiddyCore.sol\":5287:5707  function setTargetFloatPercent(uint256 newTargetFloatPercent)... */\n      pop\n      jump\t// out\n        /* \"SquiddyCore.sol\":369:402  ERC20 public immutable UNDERLYING */\n    tag_170:\n      immutable(\"0x6b5c062ff531e4aab4774f509e92f4d1142a84e2071479e43245c0e4a7940df4\")\n      dup2\n      jump\t// out\n        /* \"ERC4626.sol\":6111:6216  function maxMint(address) public view virtual returns (uint256) {... */\n    tag_174:\n        /* \"ERC4626.sol\":6166:6173  uint256 */\n      0x00\n        /* \"ERC4626.sol\":6192:6209  type(uint256).max */\n      0xffffffffffffffffffffffffffffffffffffffffffffffffffffffffffffffff\n        /* \"ERC4626.sol\":6185:6209  return type(uint256).max */\n      swap1\n      pop\n        /* \"ERC4626.sol\":6111:6216  function maxMint(address) public view virtual returns (uint256) {... */\n      swap2\n      swap1\n      pop\n      jump\t// out\n        /* \"ERC4626.sol\":4321:4614  function convertToShares(uint256 assets)... */\n    tag_178:\n        /* \"ERC4626.sol\":4423:4430  uint256 */\n      0x00\n        /* \"ERC4626.sol\":4446:4460  uint256 supply */\n      dup1\n        /* \"ERC4626.sol\":4463:4474  totalSupply */\n      sload(0x02)\n        /* \"ERC4626.sol\":4446:4474  uint256 supply = totalSupply */\n      swap1\n      pop\n        /* \"ERC4626.sol\":4554:4555  0 */\n      0x00\n        /* \"ERC4626.sol\":4544:4550  supply */\n      dup2\n        /* \"ERC4626.sol\":4544:4555  supply == 0 */\n      eq\n        /* \"ERC4626.sol\":4544:4607  supply == 0 ? assets : assets.mulDivDown(supply, totalAssets()) */\n      tag_362\n      jumpi\n        /* \"ERC4626.sol\":4567:4607  assets.mulDivDown(supply, totalAssets()) */\n      tag_363\n        /* \"ERC4626.sol\":4585:4591  supply */\n      dup2\n        /* \"ERC4626.sol\":4593:4606  totalAssets() */\n      tag_364\n        /* \"ERC4626.sol\":4593:4604  totalAssets */\n      tag_53\n        /* \"ERC4626.sol\":4593:4606  totalAssets() */\n      jump\t// in\n    tag_364:\n        /* \"ERC4626.sol\":4567:4573  assets */\n      dup6\n        /* \"ERC4626.sol\":4567:4584  assets.mulDivDown */\n      tag_229\n      swap1\n        /* \"ERC4626.sol\":4567:4607  assets.mulDivDown(supply, totalAssets()) */\n      swap3\n      swap2\n      swap1\n      0xffffffff\n      and\n      jump\t// in\n    tag_363:\n        /* \"ERC4626.sol\":4544:4607  supply == 0 ? assets : assets.mulDivDown(supply, totalAssets()) */\n      jump(tag_365)\n    tag_362:\n        /* \"ERC4626.sol\":4558:4564  assets */\n      dup3\n        /* \"ERC4626.sol\":4544:4607  supply == 0 ? assets : assets.mulDivDown(supply, totalAssets()) */\n    tag_365:\n        /* \"ERC4626.sol\":4537:4607  return supply == 0 ? assets : assets.mulDivDown(supply, totalAssets()) */\n      swap2\n      pop\n      pop\n        /* \"ERC4626.sol\":4321:4614  function convertToShares(uint256 assets)... */\n      swap2\n      swap1\n      pop\n      jump\t// out\n        /* \"ERC4626.sol\":6222:6353  function maxWithdraw(address owner) public view virtual returns (uint256) {... */\n    tag_182:\n        /* \"ERC4626.sol\":6287:6294  uint256 */\n      0x00\n        /* \"ERC4626.sol\":6313:6346  convertToAssets(balanceOf[owner]) */\n      tag_367\n        /* \"ERC4626.sol\":6329:6338  balanceOf */\n      0x03\n        /* \"ERC4626.sol\":6329:6345  balanceOf[owner] */\n      0x00\n        /* \"ERC4626.sol\":6339:6344  owner */\n      dup5\n        /* \"ERC4626.sol\":6329:6345  balanceOf[owner] */\n      0xffffffffffffffffffffffffffffffffffffffff\n      and\n      0xffffffffffffffffffffffffffffffffffffffff\n      and\n      dup2\n      mstore\n      0x20\n      add\n      swap1\n      dup2\n      mstore\n      0x20\n      add\n      0x00\n      keccak256\n      sload\n        /* \"ERC4626.sol\":6313:6328  convertToAssets */\n      tag_63\n        /* \"ERC4626.sol\":6313:6346  convertToAssets(balanceOf[owner]) */\n      jump\t// in\n    tag_367:\n        /* \"ERC4626.sol\":6306:6346  return convertToAssets(balanceOf[owner]) */\n      swap1\n      pop\n        /* \"ERC4626.sol\":6222:6353  function maxWithdraw(address owner) public view virtual returns (uint256) {... */\n      swap2\n      swap1\n      pop\n      jump\t// out\n        /* \"ERC20.sol\":3936:5465  function permit(... */\n    tag_187:\n        /* \"ERC20.sol\":4155:4170  block.timestamp */\n      timestamp\n        /* \"ERC20.sol\":4143:4151  deadline */\n      dup5\n        /* \"ERC20.sol\":4143:4170  deadline >= block.timestamp */\n      lt\n      iszero\n        /* \"ERC20.sol\":4135:4198  require(deadline >= block.timestamp, \"PERMIT_DEADLINE_EXPIRED\") */\n      tag_369\n      jumpi\n      mload(0x40)\n      0x08c379a000000000000000000000000000000000000000000000000000000000\n      dup2\n      mstore\n      0x04\n      add\n      tag_370\n      swap1\n      tag_371\n      jump\t// in\n    tag_370:\n      mload(0x40)\n      dup1\n      swap2\n      sub\n      swap1\n      revert\n    tag_369:\n        /* \"ERC20.sol\":4363:4387  address recoveredAddress */\n      0x00\n        /* \"ERC20.sol\":4390:5195  ecrecover(... */\n      0x01\n        /* \"ERC20.sol\":4526:4544  DOMAIN_SEPARATOR() */\n      tag_372\n        /* \"ERC20.sol\":4526:4542  DOMAIN_SEPARATOR */\n      tag_95\n        /* \"ERC20.sol\":4526:4544  DOMAIN_SEPARATOR() */\n      jump\t// in\n    tag_372:\n        /* \"ERC20.sol\":4653:4818  keccak256(... */\n      0x6e71edae12b1b97f4d1f60370fef10105fa2faae0126114a169c64845d6126c9\n        /* \"ERC20.sol\":4852:4857  owner */\n      dup11\n        /* \"ERC20.sol\":4891:4898  spender */\n      dup11\n        /* \"ERC20.sol\":4932:4937  value */\n      dup11\n        /* \"ERC20.sol\":4971:4977  nonces */\n      0x05\n        /* \"ERC20.sol\":4971:4984  nonces[owner] */\n      0x00\n        /* \"ERC20.sol\":4978:4983  owner */\n      dup16\n        /* \"ERC20.sol\":4971:4984  nonces[owner] */\n      0xffffffffffffffffffffffffffffffffffffffff\n      and\n      0xffffffffffffffffffffffffffffffffffffffff\n      and\n      dup2\n      mstore\n      0x20\n      add\n      swap1\n      dup2\n      mstore\n      0x20\n      add\n      0x00\n      keccak256\n      0x00\n        /* \"ERC20.sol\":4971:4986  nonces[owner]++ */\n      dup2\n      sload\n      dup1\n      swap3\n      swap2\n      swap1\n      0x01\n      add\n      swap2\n      swap1\n      pop\n      sstore\n        /* \"ERC20.sol\":5020:5028  deadline */\n      dup12\n        /* \"ERC20.sol\":4609:5058  abi.encode(... */\n      add(0x20, mload(0x40))\n      tag_373\n      swap7\n      swap6\n      swap5\n      swap4\n      swap3\n      swap2\n      swap1\n      tag_374\n      jump\t// in\n    tag_373:\n      mload(0x40)\n      0x20\n      dup2\n      dup4\n      sub\n      sub\n      dup2\n      mstore\n      swap1\n      0x40\n      mstore\n        /* \"ERC20.sol\":4570:5084  keccak256(... */\n      dup1\n      mload\n      swap1\n      0x20\n      add\n      keccak256\n        /* \"ERC20.sol\":4448:5106  abi.encodePacked(... */\n      add(0x20, mload(0x40))\n      tag_375\n      swap3\n      swap2\n      swap1\n      tag_376\n      jump\t// in\n    tag_375:\n      mload(0x40)\n      0x20\n      dup2\n      dup4\n      sub\n      sub\n      dup2\n      mstore\n      swap1\n      0x40\n      mstore\n        /* \"ERC20.sol\":4417:5124  keccak256(... */\n      dup1\n      mload\n      swap1\n      0x20\n      add\n      keccak256\n        /* \"ERC20.sol\":5142:5143  v */\n      dup6\n        /* \"ERC20.sol\":5161:5162  r */\n      dup6\n        /* \"ERC20.sol\":5180:5181  s */\n      dup6\n        /* \"ERC20.sol\":4390:5195  ecrecover(... */\n      mload(0x40)\n      0x00\n      dup2\n      mstore\n      0x20\n      add\n      0x40\n      mstore\n      mload(0x40)\n      tag_377\n      swap5\n      swap4\n      swap3\n      swap2\n      swap1\n      tag_378\n      jump\t// in\n    tag_377:\n      0x20\n      mload(0x40)\n      0x20\n      dup2\n      sub\n      swap1\n      dup1\n      dup5\n      sub\n      swap1\n      dup6\n      gas\n      staticcall\n      iszero\n      dup1\n      iszero\n      tag_380\n      jumpi\n      returndatasize\n      0x00\n      dup1\n      returndatacopy\n      revert(0x00, returndatasize)\n    tag_380:\n      pop\n      pop\n      pop\n      mload(sub(mload(0x40), 0x20))\n        /* \"ERC20.sol\":4363:5195  address recoveredAddress = ecrecover(... */\n      swap1\n      pop\n        /* \"ERC20.sol\":5263:5264  0 */\n      0x00\n        /* \"ERC20.sol\":5235:5265  recoveredAddress != address(0) */\n      0xffffffffffffffffffffffffffffffffffffffff\n      and\n        /* \"ERC20.sol\":5235:5251  recoveredAddress */\n      dup2\n        /* \"ERC20.sol\":5235:5265  recoveredAddress != address(0) */\n      0xffffffffffffffffffffffffffffffffffffffff\n      and\n      eq\n      iszero\n        /* \"ERC20.sol\":5235:5294  recoveredAddress != address(0) && recoveredAddress == owner */\n      dup1\n      iszero\n      tag_381\n      jumpi\n      pop\n        /* \"ERC20.sol\":5289:5294  owner */\n      dup8\n        /* \"ERC20.sol\":5269:5294  recoveredAddress == owner */\n      0xffffffffffffffffffffffffffffffffffffffff\n      and\n        /* \"ERC20.sol\":5269:5285  recoveredAddress */\n      dup2\n        /* \"ERC20.sol\":5269:5294  recoveredAddress == owner */\n      0xffffffffffffffffffffffffffffffffffffffff\n      and\n      eq\n        /* \"ERC20.sol\":5235:5294  recoveredAddress != address(0) && recoveredAddress == owner */\n    tag_381:\n        /* \"ERC20.sol\":5210:5342  require(... */\n      tag_382\n      jumpi\n      mload(0x40)\n      0x08c379a000000000000000000000000000000000000000000000000000000000\n      dup2\n      mstore\n      0x04\n      add\n      tag_383\n      swap1\n      tag_384\n      jump\t// in\n    tag_383:\n      mload(0x40)\n      dup1\n      swap2\n      sub\n      swap1\n      revert\n    tag_382:\n        /* \"ERC20.sol\":5396:5401  value */\n      dup6\n        /* \"ERC20.sol\":5357:5366  allowance */\n      0x04\n        /* \"ERC20.sol\":5357:5384  allowance[recoveredAddress] */\n      0x00\n        /* \"ERC20.sol\":5367:5383  recoveredAddress */\n      dup4\n        /* \"ERC20.sol\":5357:5384  allowance[recoveredAddress] */\n      0xffffffffffffffffffffffffffffffffffffffff\n      and\n      0xffffffffffffffffffffffffffffffffffffffff\n      and\n      dup2\n      mstore\n      0x20\n      add\n      swap1\n      dup2\n      mstore\n      0x20\n      add\n      0x00\n      keccak256\n        /* \"ERC20.sol\":5357:5393  allowance[recoveredAddress][spender] */\n      0x00\n        /* \"ERC20.sol\":5385:5392  spender */\n      dup10\n        /* \"ERC20.sol\":5357:5393  allowance[recoveredAddress][spender] */\n      0xffffffffffffffffffffffffffffffffffffffff\n      and\n      0xffffffffffffffffffffffffffffffffffffffff\n      and\n      dup2\n      mstore\n      0x20\n      add\n      swap1\n      dup2\n      mstore\n      0x20\n      add\n      0x00\n      keccak256\n        /* \"ERC20.sol\":5357:5401  allowance[recoveredAddress][spender] = value */\n      dup2\n      swap1\n      sstore\n      pop\n        /* \"ERC20.sol\":4339:5412  unchecked {... */\n      pop\n        /* \"ERC20.sol\":5443:5450  spender */\n      dup6\n        /* \"ERC20.sol\":5427:5458  Approval(owner, spender, value) */\n      0xffffffffffffffffffffffffffffffffffffffff\n      and\n        /* \"ERC20.sol\":5436:5441  owner */\n      dup8\n        /* \"ERC20.sol\":5427:5458  Approval(owner, spender, value) */\n      0xffffffffffffffffffffffffffffffffffffffff\n      and\n      0x8c5be1e5ebec7d5bd14f71427d1e84f3dd0314c0f7b2291e5b200ac8c7c3b925\n        /* \"ERC20.sol\":5452:5457  value */\n      dup8\n        /* \"ERC20.sol\":5427:5458  Approval(owner, spender, value) */\n      mload(0x40)\n      tag_385\n      swap2\n      swap1\n      tag_55\n      jump\t// in\n    tag_385:\n      mload(0x40)\n      dup1\n      swap2\n      sub\n      swap1\n      log3\n        /* \"ERC20.sol\":3936:5465  function permit(... */\n      pop\n      pop\n      pop\n      pop\n      pop\n      pop\n      pop\n      jump\t// out\n        /* \"ERC4626.sol\":6359:6471  function maxRedeem(address owner) public view virtual returns (uint256) {... */\n    tag_190:\n        /* \"ERC4626.sol\":6422:6429  uint256 */\n      0x00\n        /* \"ERC4626.sol\":6448:6457  balanceOf */\n      0x03\n        /* \"ERC4626.sol\":6448:6464  balanceOf[owner] */\n      0x00\n        /* \"ERC4626.sol\":6458:6463  owner */\n      dup4\n        /* \"ERC4626.sol\":6448:6464  balanceOf[owner] */\n      0xffffffffffffffffffffffffffffffffffffffff\n      and\n      0xffffffffffffffffffffffffffffffffffffffff\n      and\n      dup2\n      mstore\n      0x20\n      add\n      swap1\n      dup2\n      mstore\n      0x20\n      add\n      0x00\n      keccak256\n      sload\n        /* \"ERC4626.sol\":6441:6464  return balanceOf[owner] */\n      swap1\n      pop\n        /* \"ERC4626.sol\":6359:6471  function maxRedeem(address owner) public view virtual returns (uint256) {... */\n      swap2\n      swap1\n      pop\n      jump\t// out\n        /* \"ERC20.sol\":1418:1482  mapping(address => mapping(address => uint256)) public allowance */\n    tag_195:\n      mstore(0x20, 0x04)\n      dup2\n      0x00\n      mstore\n      mstore(0x20, keccak256(0x00, 0x40))\n      dup1\n      0x00\n      mstore\n      keccak256(0x00, 0x40)\n      0x00\n      swap2\n      pop\n      swap2\n      pop\n      pop\n      sload\n      dup2\n      jump\t// out\n        /* \"SquiddyCore.sol\":7077:7113  uint256 public totalStrategyHoldings */\n    tag_198:\n      sload(0x0c)\n      dup2\n      jump\t// out\n        /* \"ERC4626.sol\":4919:5080  function previewDeposit(uint256 assets)... */\n    tag_202:\n        /* \"ERC4626.sol\":5020:5027  uint256 */\n      0x00\n        /* \"ERC4626.sol\":5050:5073  convertToShares(assets) */\n      tag_388\n        /* \"ERC4626.sol\":5066:5072  assets */\n      dup3\n        /* \"ERC4626.sol\":5050:5065  convertToShares */\n      tag_178\n        /* \"ERC4626.sol\":5050:5073  convertToShares(assets) */\n      jump\t// in\n    tag_388:\n        /* \"ERC4626.sol\":5043:5073  return convertToShares(assets) */\n      swap1\n      pop\n        /* \"ERC4626.sol\":4919:5080  function previewDeposit(uint256 assets)... */\n      swap2\n      swap1\n      pop\n      jump\t// out\n        /* \"SquiddyCore.sol\":3397:3679  function transferOwnership(address newOwner) public virtual onlyManager {... */\n    tag_206:\n        /* \"SquiddyCore.sol\":1682:1692  msg.sender */\n      caller\n        /* \"SquiddyCore.sol\":1669:1692  manager() == msg.sender */\n      0xffffffffffffffffffffffffffffffffffffffff\n      and\n        /* \"SquiddyCore.sol\":1669:1678  manager() */\n      tag_390\n        /* \"SquiddyCore.sol\":1669:1676  manager */\n      tag_108\n        /* \"SquiddyCore.sol\":1669:1678  manager() */\n      jump\t// in\n    tag_390:\n        /* \"SquiddyCore.sol\":1669:1692  manager() == msg.sender */\n      0xffffffffffffffffffffffffffffffffffffffff\n      and\n      eq\n        /* \"SquiddyCore.sol\":1661:1731  require(manager() == msg.sender, \"Ownable: caller is not the manager\") */\n      tag_391\n      jumpi\n      mload(0x40)\n      0x08c379a000000000000000000000000000000000000000000000000000000000\n      dup2\n      mstore\n      0x04\n      add\n      tag_392\n      swap1\n      tag_249\n      jump\t// in\n    tag_392:\n      mload(0x40)\n      dup1\n      swap2\n      sub\n      swap1\n      revert\n    tag_391:\n        /* \"SquiddyCore.sol\":3520:3521  0 */\n      0x00\n        /* \"SquiddyCore.sol\":3500:3522  newOwner != address(0) */\n      0xffffffffffffffffffffffffffffffffffffffff\n      and\n        /* \"SquiddyCore.sol\":3500:3508  newOwner */\n      dup2\n        /* \"SquiddyCore.sol\":3500:3522  newOwner != address(0) */\n      0xffffffffffffffffffffffffffffffffffffffff\n      and\n      eq\n      iszero\n        /* \"SquiddyCore.sol\":3479:3588  require(... */\n      tag_394\n      jumpi\n      mload(0x40)\n      0x08c379a000000000000000000000000000000000000000000000000000000000\n      dup2\n      mstore\n      0x04\n      add\n      tag_395\n      swap1\n      tag_396\n      jump\t// in\n    tag_395:\n      mload(0x40)\n      dup1\n      swap2\n      sub\n      swap1\n      revert\n    tag_394:\n        /* \"SquiddyCore.sol\":3634:3642  newOwner */\n      dup1\n        /* \"SquiddyCore.sol\":3603:3643  OwnershipTransferred(_manager, newOwner) */\n      0xffffffffffffffffffffffffffffffffffffffff\n      and\n        /* \"SquiddyCore.sol\":3624:3632  _manager */\n      0x06\n      0x00\n      swap1\n      sload\n      swap1\n      0x0100\n      exp\n      swap1\n      div\n      0xffffffffffffffffffffffffffffffffffffffff\n      and\n        /* \"SquiddyCore.sol\":3603:3643  OwnershipTransferred(_manager, newOwner) */\n      0xffffffffffffffffffffffffffffffffffffffff\n      and\n      0x8be0079c531659141344cd1fd0a4f28419497f9722a3daafe3b4186f6b6457e0\n      mload(0x40)\n      mload(0x40)\n      dup1\n      swap2\n      sub\n      swap1\n      log3\n        /* \"SquiddyCore.sol\":3664:3672  newOwner */\n      dup1\n        /* \"SquiddyCore.sol\":3653:3661  _manager */\n      0x06\n      0x00\n        /* \"SquiddyCore.sol\":3653:3672  _manager = newOwner */\n      0x0100\n      exp\n      dup2\n      sload\n      dup2\n      0xffffffffffffffffffffffffffffffffffffffff\n      mul\n      not\n      and\n      swap1\n      dup4\n      0xffffffffffffffffffffffffffffffffffffffff\n      and\n      mul\n      or\n      swap1\n      sstore\n      pop\n        /* \"SquiddyCore.sol\":3397:3679  function transferOwnership(address newOwner) public virtual onlyManager {... */\n      pop\n      jump\t// out\n        /* \"SquiddyCore.sol\":5979:6007  bool public underlyingIsWETH */\n    tag_208:\n      0x0b\n      0x00\n      swap1\n      sload\n      swap1\n      0x0100\n      exp\n      swap1\n      div\n      0xff\n      and\n      dup2\n      jump\t// out\n        /* \"SquiddyCore.sol\":273:321  uint256 public afterDepositHookCalledCounter = 0 */\n    tag_211:\n      sload(0x08)\n      dup2\n      jump\t// out\n        /* \"FixedPointMathLib.sol\":1507:2130  function mulDivDown(... */\n    tag_229:\n        /* \"FixedPointMathLib.sol\":1623:1632  uint256 z */\n      0x00\n        /* \"FixedPointMathLib.sol\":1720:1721  y */\n      dup3\n        /* \"FixedPointMathLib.sol\":1717:1718  x */\n      dup5\n        /* \"FixedPointMathLib.sol\":1713:1722  mul(x, y) */\n      mul\n        /* \"FixedPointMathLib.sol\":1708:1722  z := mul(x, y) */\n      swap1\n      pop\n        /* \"FixedPointMathLib.sol\":1952:1953  y */\n      dup3\n        /* \"FixedPointMathLib.sol\":1948:1949  x */\n      dup5\n        /* \"FixedPointMathLib.sol\":1945:1946  z */\n      dup3\n        /* \"FixedPointMathLib.sol\":1941:1950  div(z, x) */\n      div\n        /* \"FixedPointMathLib.sol\":1938:1954  eq(div(z, x), y) */\n      eq\n        /* \"FixedPointMathLib.sol\":1934:1935  x */\n      dup5\n        /* \"FixedPointMathLib.sol\":1927:1936  iszero(x) */\n      iszero\n        /* \"FixedPointMathLib.sol\":1924:1955  or(iszero(x), eq(div(z, x), y)) */\n      or\n        /* \"FixedPointMathLib.sol\":1889:1900  denominator */\n      dup3\n        /* \"FixedPointMathLib.sol\":1882:1901  iszero(denominator) */\n      iszero\n        /* \"FixedPointMathLib.sol\":1875:1902  iszero(iszero(denominator)) */\n      iszero\n        /* \"FixedPointMathLib.sol\":1850:1973  and(... */\n      and\n        /* \"FixedPointMathLib.sol\":1823:2032  if iszero(... */\n      tag_398\n      jumpi\n        /* \"FixedPointMathLib.sol\":2016:2017  0 */\n      0x00\n        /* \"FixedPointMathLib.sol\":2013:2014  0 */\n      dup1\n        /* \"FixedPointMathLib.sol\":2006:2018  revert(0, 0) */\n      revert\n        /* \"FixedPointMathLib.sol\":1823:2032  if iszero(... */\n    tag_398:\n        /* \"FixedPointMathLib.sol\":2102:2113  denominator */\n      dup2\n        /* \"FixedPointMathLib.sol\":2099:2100  z */\n      dup2\n        /* \"FixedPointMathLib.sol\":2095:2114  div(z, denominator) */\n      div\n        /* \"FixedPointMathLib.sol\":2090:2114  z := div(z, denominator) */\n      swap1\n      pop\n        /* \"FixedPointMathLib.sol\":1507:2130  function mulDivDown(... */\n      swap4\n      swap3\n      pop\n      pop\n      pop\n      jump\t// out\n        /* \"FixedPointMathLib.sol\":2136:2976  function mulDivUp(... */\n    tag_237:\n        /* \"FixedPointMathLib.sol\":2250:2259  uint256 z */\n      0x00\n        /* \"FixedPointMathLib.sol\":2347:2348  y */\n      dup3\n        /* \"FixedPointMathLib.sol\":2344:2345  x */\n      dup5\n        /* \"FixedPointMathLib.sol\":2340:2349  mul(x, y) */\n      mul\n        /* \"FixedPointMathLib.sol\":2335:2349  z := mul(x, y) */\n      swap1\n      pop\n        /* \"FixedPointMathLib.sol\":2579:2580  y */\n      dup3\n        /* \"FixedPointMathLib.sol\":2575:2576  x */\n      dup5\n        /* \"FixedPointMathLib.sol\":2572:2573  z */\n      dup3\n        /* \"FixedPointMathLib.sol\":2568:2577  div(z, x) */\n      div\n        /* \"FixedPointMathLib.sol\":2565:2581  eq(div(z, x), y) */\n      eq\n        /* \"FixedPointMathLib.sol\":2561:2562  x */\n      dup5\n        /* \"FixedPointMathLib.sol\":2554:2563  iszero(x) */\n      iszero\n        /* \"FixedPointMathLib.sol\":2551:2582  or(iszero(x), eq(div(z, x), y)) */\n      or\n        /* \"FixedPointMathLib.sol\":2516:2527  denominator */\n      dup3\n        /* \"FixedPointMathLib.sol\":2509:2528  iszero(denominator) */\n      iszero\n        /* \"FixedPointMathLib.sol\":2502:2529  iszero(iszero(denominator)) */\n      iszero\n        /* \"FixedPointMathLib.sol\":2477:2600  and(... */\n      and\n        /* \"FixedPointMathLib.sol\":2450:2659  if iszero(... */\n      tag_400\n      jumpi\n        /* \"FixedPointMathLib.sol\":2643:2644  0 */\n      0x00\n        /* \"FixedPointMathLib.sol\":2640:2641  0 */\n      dup1\n        /* \"FixedPointMathLib.sol\":2633:2645  revert(0, 0) */\n      revert\n        /* \"FixedPointMathLib.sol\":2450:2659  if iszero(... */\n    tag_400:\n        /* \"FixedPointMathLib.sol\":2957:2958  1 */\n      0x01\n        /* \"FixedPointMathLib.sol\":2943:2954  denominator */\n      dup3\n        /* \"FixedPointMathLib.sol\":2939:2940  1 */\n      0x01\n        /* \"FixedPointMathLib.sol\":2936:2937  z */\n      dup4\n        /* \"FixedPointMathLib.sol\":2932:2941  sub(z, 1) */\n      sub\n        /* \"FixedPointMathLib.sol\":2928:2955  div(sub(z, 1), denominator) */\n      div\n        /* \"FixedPointMathLib.sol\":2924:2959  add(div(sub(z, 1), denominator), 1) */\n      add\n        /* \"FixedPointMathLib.sol\":2919:2920  z */\n      dup2\n        /* \"FixedPointMathLib.sol\":2912:2921  iszero(z) */\n      iszero\n        /* \"FixedPointMathLib.sol\":2905:2922  iszero(iszero(z)) */\n      iszero\n        /* \"FixedPointMathLib.sol\":2901:2960  mul(iszero(iszero(z)), add(div(sub(z, 1), denominator), 1)) */\n      mul\n        /* \"FixedPointMathLib.sol\":2896:2960  z := mul(iszero(iszero(z)), add(div(sub(z, 1), denominator), 1)) */\n      swap1\n      pop\n        /* \"FixedPointMathLib.sol\":2136:2976  function mulDivUp(... */\n      swap4\n      swap3\n      pop\n      pop\n      pop\n      jump\t// out\n        /* \"ERC20.sol\":5698:6190  function computeDomainSeparator() internal view virtual returns (bytes32) {... */\n    tag_263:\n        /* \"ERC20.sol\":5763:5770  bytes32 */\n      0x00\n        /* \"ERC20.sol\":5860:6001  keccak256(... */\n      0x8b73c3c69bb8fe3d512ecc4cf759cc79239f7b179b0ffacaa9a75d522b39400f\n        /* \"ERC20.sol\":6039:6043  name */\n      0x00\n        /* \"ERC20.sol\":6023:6045  keccak256(bytes(name)) */\n      mload(0x40)\n      tag_402\n      swap2\n      swap1\n      tag_403\n      jump\t// in\n    tag_402:\n      mload(0x40)\n      dup1\n      swap2\n      sub\n      swap1\n      keccak256\n        /* \"ERC20.sol\":6067:6081  keccak256(\"1\") */\n      0xc89efdaa54c0f20c7adf612882df0950f5a951637e0307cdcb4c672f298b8bc6\n        /* \"ERC20.sol\":6103:6116  block.chainid */\n      chainid\n        /* \"ERC20.sol\":6146:6150  this */\n      address\n        /* \"ERC20.sol\":5828:6169  abi.encode(... */\n      add(0x20, mload(0x40))\n      tag_404\n      swap6\n      swap5\n      swap4\n      swap3\n      swap2\n      swap1\n      tag_405\n      jump\t// in\n    tag_404:\n      mload(0x40)\n      0x20\n      dup2\n      dup4\n      sub\n      sub\n      dup2\n      mstore\n      swap1\n      0x40\n      mstore\n        /* \"ERC20.sol\":5801:6183  keccak256(... */\n      dup1\n      mload\n      swap1\n      0x20\n      add\n      keccak256\n        /* \"ERC20.sol\":5782:6183  return... */\n      swap1\n      pop\n        /* \"ERC20.sol\":5698:6190  function computeDomainSeparator() internal view virtual returns (bytes32) {... */\n      swap1\n      jump\t// out\n        /* \"SafeTransferLib.sol\":1277:2954  function safeTransferFrom(... */\n    tag_275:\n        /* \"SafeTransferLib.sol\":1415:1427  bool success */\n      0x00\n        /* \"SafeTransferLib.sol\":1542:1546  0x40 */\n      0x40\n        /* \"SafeTransferLib.sol\":1536:1547  mload(0x40) */\n      mload\n        /* \"SafeTransferLib.sol\":1717:1783  0x23b872dd00000000000000000000000000000000000000000000000000000000 */\n      0x23b872dd00000000000000000000000000000000000000000000000000000000\n        /* \"SafeTransferLib.sol\":1682:1699  freeMemoryPointer */\n      dup2\n        /* \"SafeTransferLib.sol\":1658:1797  mstore(... */\n      mstore\n        /* \"SafeTransferLib.sol\":1844:1848  from */\n      dup5\n        /* \"SafeTransferLib.sol\":1840:1841  4 */\n      0x04\n        /* \"SafeTransferLib.sol\":1821:1838  freeMemoryPointer */\n      dup3\n        /* \"SafeTransferLib.sol\":1817:1842  add(freeMemoryPointer, 4) */\n      add\n        /* \"SafeTransferLib.sol\":1810:1849  mstore(add(freeMemoryPointer, 4), from) */\n      mstore\n        /* \"SafeTransferLib.sol\":1928:1930  to */\n      dup4\n        /* \"SafeTransferLib.sol\":1923:1925  36 */\n      0x24\n        /* \"SafeTransferLib.sol\":1904:1921  freeMemoryPointer */\n      dup3\n        /* \"SafeTransferLib.sol\":1900:1926  add(freeMemoryPointer, 36) */\n      add\n        /* \"SafeTransferLib.sol\":1893:1931  mstore(add(freeMemoryPointer, 36), to) */\n      mstore\n        /* \"SafeTransferLib.sol\":2008:2014  amount */\n      dup3\n        /* \"SafeTransferLib.sol\":2003:2005  68 */\n      0x44\n        /* \"SafeTransferLib.sol\":1984:2001  freeMemoryPointer */\n      dup3\n        /* \"SafeTransferLib.sol\":1980:2006  add(freeMemoryPointer, 68) */\n      add\n        /* \"SafeTransferLib.sol\":1973:2015  mstore(add(freeMemoryPointer, 68), amount) */\n      mstore\n        /* \"SafeTransferLib.sol\":2870:2872  32 */\n      0x20\n        /* \"SafeTransferLib.sol\":2867:2868  0 */\n      0x00\n        /* \"SafeTransferLib.sol\":2862:2865  100 */\n      0x64\n        /* \"SafeTransferLib.sol\":2843:2860  freeMemoryPointer */\n      dup4\n        /* \"SafeTransferLib.sol\":2840:2841  0 */\n      0x00\n        /* \"SafeTransferLib.sol\":2833:2838  token */\n      dup11\n        /* \"SafeTransferLib.sol\":2826:2831  gas() */\n      gas\n        /* \"SafeTransferLib.sol\":2821:2873  call(gas(), token, 0, freeMemoryPointer, 100, 0, 32) */\n      call\n        /* \"SafeTransferLib.sol\":2372:2388  returndatasize() */\n      returndatasize\n        /* \"SafeTransferLib.sol\":2365:2389  iszero(returndatasize()) */\n      iszero\n        /* \"SafeTransferLib.sol\":2339:2341  31 */\n      0x1f\n        /* \"SafeTransferLib.sol\":2321:2337  returndatasize() */\n      returndatasize\n        /* \"SafeTransferLib.sol\":2318:2342  gt(returndatasize(), 31) */\n      gt\n        /* \"SafeTransferLib.sol\":2314:2315  1 */\n      0x01\n        /* \"SafeTransferLib.sol\":2310:2311  0 */\n      0x00\n        /* \"SafeTransferLib.sol\":2304:2312  mload(0) */\n      mload\n        /* \"SafeTransferLib.sol\":2301:2316  eq(mload(0), 1) */\n      eq\n        /* \"SafeTransferLib.sol\":2297:2343  and(eq(mload(0), 1), gt(returndatasize(), 31)) */\n      and\n        /* \"SafeTransferLib.sol\":2273:2407  or(... */\n      or\n        /* \"SafeTransferLib.sol\":2073:2887  and(... */\n      and\n        /* \"SafeTransferLib.sol\":2062:2887  success := and(... */\n      swap2\n      pop\n        /* \"SafeTransferLib.sol\":1447:2897  {... */\n      pop\n        /* \"SafeTransferLib.sol\":2915:2922  success */\n      dup1\n        /* \"SafeTransferLib.sol\":2907:2947  require(success, \"TRANSFER_FROM_FAILED\") */\n      tag_407\n      jumpi\n      mload(0x40)\n      0x08c379a000000000000000000000000000000000000000000000000000000000\n      dup2\n      mstore\n      0x04\n      add\n      tag_408\n      swap1\n      tag_409\n      jump\t// in\n    tag_408:\n      mload(0x40)\n      dup1\n      swap2\n      sub\n      swap1\n      revert\n    tag_407:\n        /* \"SafeTransferLib.sol\":1405:2954  {... */\n      pop\n        /* \"SafeTransferLib.sol\":1277:2954  function safeTransferFrom(... */\n      pop\n      pop\n      pop\n      pop\n      jump\t// out\n        /* \"ERC20.sol\":6384:6709  function _mint(address to, uint256 amount) internal virtual {... */\n    tag_277:\n        /* \"ERC20.sol\":6469:6475  amount */\n      dup1\n        /* \"ERC20.sol\":6454:6465  totalSupply */\n      0x02\n      0x00\n        /* \"ERC20.sol\":6454:6475  totalSupply += amount */\n      dup3\n      dup3\n      sload\n      tag_411\n      swap2\n      swap1\n      tag_412\n      jump\t// in\n    tag_411:\n      swap3\n      pop\n      pop\n      dup2\n      swap1\n      sstore\n      pop\n        /* \"ERC20.sol\":6638:6644  amount */\n      dup1\n        /* \"ERC20.sol\":6621:6630  balanceOf */\n      0x03\n        /* \"ERC20.sol\":6621:6634  balanceOf[to] */\n      0x00\n        /* \"ERC20.sol\":6631:6633  to */\n      dup5\n        /* \"ERC20.sol\":6621:6634  balanceOf[to] */\n      0xffffffffffffffffffffffffffffffffffffffff\n      and\n      0xffffffffffffffffffffffffffffffffffffffff\n      and\n      dup2\n      mstore\n      0x20\n      add\n      swap1\n      dup2\n      mstore\n      0x20\n      add\n      0x00\n      keccak256\n      0x00\n        /* \"ERC20.sol\":6621:6644  balanceOf[to] += amount */\n      dup3\n      dup3\n      sload\n      add\n      swap3\n      pop\n      pop\n      dup2\n      swap1\n      sstore\n      pop\n        /* \"ERC20.sol\":6691:6693  to */\n      dup2\n        /* \"ERC20.sol\":6670:6702  Transfer(address(0), to, amount) */\n      0xffffffffffffffffffffffffffffffffffffffff\n      and\n        /* \"ERC20.sol\":6687:6688  0 */\n      0x00\n        /* \"ERC20.sol\":6670:6702  Transfer(address(0), to, amount) */\n      0xffffffffffffffffffffffffffffffffffffffff\n      and\n      0xddf252ad1be2c89b69c2b068fc378daa952ba7f163c4a11628f55a4df523b3ef\n        /* \"ERC20.sol\":6695:6701  amount */\n      dup4\n        /* \"ERC20.sol\":6670:6702  Transfer(address(0), to, amount) */\n      mload(0x40)\n      tag_413\n      swap2\n      swap1\n      tag_55\n      jump\t// in\n    tag_413:\n      mload(0x40)\n      dup1\n      swap2\n      sub\n      swap1\n      log3\n        /* \"ERC20.sol\":6384:6709  function _mint(address to, uint256 amount) internal virtual {... */\n      pop\n      pop\n      jump\t// out\n        /* \"SquiddyCore.sol\":2473:2579  function afterDeposit(uint256, uint256) internal override {... */\n    tag_281:\n        /* \"SquiddyCore.sol\":2541:2570  afterDepositHookCalledCounter */\n      0x08\n      0x00\n        /* \"SquiddyCore.sol\":2541:2572  afterDepositHookCalledCounter++ */\n      dup2\n      sload\n      dup1\n      swap3\n      swap2\n      swap1\n      tag_415\n      swap1\n      tag_416\n      jump\t// in\n    tag_415:\n      swap2\n      swap1\n      pop\n      sstore\n      pop\n        /* \"SquiddyCore.sol\":2473:2579  function afterDeposit(uint256, uint256) internal override {... */\n      pop\n      pop\n      jump\t// out\n        /* \"SquiddyCore.sol\":2357:2467  function beforeWithdraw(uint256, uint256) internal override {... */\n    tag_333:\n        /* \"SquiddyCore.sol\":2427:2458  beforeWithdrawHookCalledCounter */\n      0x07\n      0x00\n        /* \"SquiddyCore.sol\":2427:2460  beforeWithdrawHookCalledCounter++ */\n      dup2\n      sload\n      dup1\n      swap3\n      swap2\n      swap1\n      tag_418\n      swap1\n      tag_416\n      jump\t// in\n    tag_418:\n      swap2\n      swap1\n      pop\n      sstore\n      pop\n        /* \"SquiddyCore.sol\":2357:2467  function beforeWithdraw(uint256, uint256) internal override {... */\n      pop\n      pop\n      jump\t// out\n        /* \"ERC20.sol\":6715:7043  function _burn(address from, uint256 amount) internal virtual {... */\n    tag_335:\n        /* \"ERC20.sol\":6806:6812  amount */\n      dup1\n        /* \"ERC20.sol\":6787:6796  balanceOf */\n      0x03\n        /* \"ERC20.sol\":6787:6802  balanceOf[from] */\n      0x00\n        /* \"ERC20.sol\":6797:6801  from */\n      dup5\n        /* \"ERC20.sol\":6787:6802  balanceOf[from] */\n      0xffffffffffffffffffffffffffffffffffffffff\n      and\n      0xffffffffffffffffffffffffffffffffffffffff\n      and\n      dup2\n      mstore\n      0x20\n      add\n      swap1\n      dup2\n      mstore\n      0x20\n      add\n      0x00\n      keccak256\n      0x00\n        /* \"ERC20.sol\":6787:6812  balanceOf[from] -= amount */\n      dup3\n      dup3\n      sload\n      tag_420\n      swap2\n      swap1\n      tag_242\n      jump\t// in\n    tag_420:\n      swap3\n      pop\n      pop\n      dup2\n      swap1\n      sstore\n      pop\n        /* \"ERC20.sol\":6970:6976  amount */\n      dup1\n        /* \"ERC20.sol\":6955:6966  totalSupply */\n      0x02\n      0x00\n        /* \"ERC20.sol\":6955:6976  totalSupply -= amount */\n      dup3\n      dup3\n      sload\n      sub\n      swap3\n      pop\n      pop\n      dup2\n      swap1\n      sstore\n      pop\n        /* \"ERC20.sol\":7025:7026  0 */\n      0x00\n        /* \"ERC20.sol\":7002:7036  Transfer(from, address(0), amount) */\n      0xffffffffffffffffffffffffffffffffffffffff\n      and\n        /* \"ERC20.sol\":7011:7015  from */\n      dup3\n        /* \"ERC20.sol\":7002:7036  Transfer(from, address(0), amount) */\n      0xffffffffffffffffffffffffffffffffffffffff\n      and\n      0xddf252ad1be2c89b69c2b068fc378daa952ba7f163c4a11628f55a4df523b3ef\n        /* \"ERC20.sol\":7029:7035  amount */\n      dup4\n        /* \"ERC20.sol\":7002:7036  Transfer(from, address(0), amount) */\n      mload(0x40)\n      tag_421\n      swap2\n      swap1\n      tag_55\n      jump\t// in\n    tag_421:\n      mload(0x40)\n      dup1\n      swap2\n      sub\n      swap1\n      log3\n        /* \"ERC20.sol\":6715:7043  function _burn(address from, uint256 amount) internal virtual {... */\n      pop\n      pop\n      jump\t// out\n        /* \"SafeTransferLib.sol\":2960:4520  function safeTransfer(... */\n    tag_338:\n        /* \"SafeTransferLib.sol\":3072:3084  bool success */\n      0x00\n        /* \"SafeTransferLib.sol\":3199:3203  0x40 */\n      0x40\n        /* \"SafeTransferLib.sol\":3193:3204  mload(0x40) */\n      mload\n        /* \"SafeTransferLib.sol\":3374:3440  0xa9059cbb00000000000000000000000000000000000000000000000000000000 */\n      0xa9059cbb00000000000000000000000000000000000000000000000000000000\n        /* \"SafeTransferLib.sol\":3339:3356  freeMemoryPointer */\n      dup2\n        /* \"SafeTransferLib.sol\":3315:3454  mstore(... */\n      mstore\n        /* \"SafeTransferLib.sol\":3501:3503  to */\n      dup4\n        /* \"SafeTransferLib.sol\":3497:3498  4 */\n      0x04\n        /* \"SafeTransferLib.sol\":3478:3495  freeMemoryPointer */\n      dup3\n        /* \"SafeTransferLib.sol\":3474:3499  add(freeMemoryPointer, 4) */\n      add\n        /* \"SafeTransferLib.sol\":3467:3504  mstore(add(freeMemoryPointer, 4), to) */\n      mstore\n        /* \"SafeTransferLib.sol\":3581:3587  amount */\n      dup3\n        /* \"SafeTransferLib.sol\":3576:3578  36 */\n      0x24\n        /* \"SafeTransferLib.sol\":3557:3574  freeMemoryPointer */\n      dup3\n        /* \"SafeTransferLib.sol\":3553:3579  add(freeMemoryPointer, 36) */\n      add\n        /* \"SafeTransferLib.sol\":3546:3588  mstore(add(freeMemoryPointer, 36), amount) */\n      mstore\n        /* \"SafeTransferLib.sol\":4441:4443  32 */\n      0x20\n        /* \"SafeTransferLib.sol\":4438:4439  0 */\n      0x00\n        /* \"SafeTransferLib.sol\":4434:4436  68 */\n      0x44\n        /* \"SafeTransferLib.sol\":4415:4432  freeMemoryPointer */\n      dup4\n        /* \"SafeTransferLib.sol\":4412:4413  0 */\n      0x00\n        /* \"SafeTransferLib.sol\":4405:4410  token */\n      dup10\n        /* \"SafeTransferLib.sol\":4398:4403  gas() */\n      gas\n        /* \"SafeTransferLib.sol\":4393:4444  call(gas(), token, 0, freeMemoryPointer, 68, 0, 32) */\n      call\n        /* \"SafeTransferLib.sol\":3945:3961  returndatasize() */\n      returndatasize\n        /* \"SafeTransferLib.sol\":3938:3962  iszero(returndatasize()) */\n      iszero\n        /* \"SafeTransferLib.sol\":3912:3914  31 */\n      0x1f\n        /* \"SafeTransferLib.sol\":3894:3910  returndatasize() */\n      returndatasize\n        /* \"SafeTransferLib.sol\":3891:3915  gt(returndatasize(), 31) */\n      gt\n        /* \"SafeTransferLib.sol\":3887:3888  1 */\n      0x01\n        /* \"SafeTransferLib.sol\":3883:3884  0 */\n      0x00\n        /* \"SafeTransferLib.sol\":3877:3885  mload(0) */\n      mload\n        /* \"SafeTransferLib.sol\":3874:3889  eq(mload(0), 1) */\n      eq\n        /* \"SafeTransferLib.sol\":3870:3916  and(eq(mload(0), 1), gt(returndatasize(), 31)) */\n      and\n        /* \"SafeTransferLib.sol\":3846:3980  or(... */\n      or\n        /* \"SafeTransferLib.sol\":3646:4458  and(... */\n      and\n        /* \"SafeTransferLib.sol\":3635:4458  success := and(... */\n      swap2\n      pop\n        /* \"SafeTransferLib.sol\":3104:4468  {... */\n      pop\n        /* \"SafeTransferLib.sol\":4486:4493  success */\n      dup1\n        /* \"SafeTransferLib.sol\":4478:4513  require(success, \"TRANSFER_FAILED\") */\n      tag_423\n      jumpi\n      mload(0x40)\n      0x08c379a000000000000000000000000000000000000000000000000000000000\n      dup2\n      mstore\n      0x04\n      add\n      tag_424\n      swap1\n      tag_425\n      jump\t// in\n    tag_424:\n      mload(0x40)\n      dup1\n      swap2\n      sub\n      swap1\n      revert\n    tag_423:\n        /* \"SafeTransferLib.sol\":3062:4520  {... */\n      pop\n        /* \"SafeTransferLib.sol\":2960:4520  function safeTransfer(... */\n      pop\n      pop\n      pop\n      jump\t// out\n        /* \"#utility.yul\":7:84   */\n    tag_426:\n        /* \"#utility.yul\":44:51   */\n      0x00\n        /* \"#utility.yul\":73:78   */\n      dup2\n        /* \"#utility.yul\":62:78   */\n      swap1\n      pop\n        /* \"#utility.yul\":7:84   */\n      swap2\n      swap1\n      pop\n      jump\t// out\n        /* \"#utility.yul\":90:208   */\n    tag_427:\n        /* \"#utility.yul\":177:201   */\n      tag_498\n        /* \"#utility.yul\":195:200   */\n      dup2\n        /* \"#utility.yul\":177:201   */\n      tag_426\n      jump\t// in\n    tag_498:\n        /* \"#utility.yul\":172:175   */\n      dup3\n        /* \"#utility.yul\":165:202   */\n      mstore\n        /* \"#utility.yul\":90:208   */\n      pop\n      pop\n      jump\t// out\n        /* \"#utility.yul\":214:436   */\n    tag_55:\n        /* \"#utility.yul\":307:311   */\n      0x00\n        /* \"#utility.yul\":345:347   */\n      0x20\n        /* \"#utility.yul\":334:343   */\n      dup3\n        /* \"#utility.yul\":330:348   */\n      add\n        /* \"#utility.yul\":322:348   */\n      swap1\n      pop\n        /* \"#utility.yul\":358:429   */\n      tag_500\n        /* \"#utility.yul\":426:427   */\n      0x00\n        /* \"#utility.yul\":415:424   */\n      dup4\n        /* \"#utility.yul\":411:428   */\n      add\n        /* \"#utility.yul\":402:408   */\n      dup5\n        /* \"#utility.yul\":358:429   */\n      tag_427\n      jump\t// in\n    tag_500:\n        /* \"#utility.yul\":214:436   */\n      swap3\n      swap2\n      pop\n      pop\n      jump\t// out\n        /* \"#utility.yul\":442:541   */\n    tag_428:\n        /* \"#utility.yul\":494:500   */\n      0x00\n        /* \"#utility.yul\":528:533   */\n      dup2\n        /* \"#utility.yul\":522:534   */\n      mload\n        /* \"#utility.yul\":512:534   */\n      swap1\n      pop\n        /* \"#utility.yul\":442:541   */\n      swap2\n      swap1\n      pop\n      jump\t// out\n        /* \"#utility.yul\":547:716   */\n    tag_429:\n        /* \"#utility.yul\":631:642   */\n      0x00\n        /* \"#utility.yul\":665:671   */\n      dup3\n        /* \"#utility.yul\":660:663   */\n      dup3\n        /* \"#utility.yul\":653:672   */\n      mstore\n        /* \"#utility.yul\":705:709   */\n      0x20\n        /* \"#utility.yul\":700:703   */\n      dup3\n        /* \"#utility.yul\":696:710   */\n      add\n        /* \"#utility.yul\":681:710   */\n      swap1\n      pop\n        /* \"#utility.yul\":547:716   */\n      swap3\n      swap2\n      pop\n      pop\n      jump\t// out\n        /* \"#utility.yul\":722:1029   */\n    tag_430:\n        /* \"#utility.yul\":790:791   */\n      0x00\n        /* \"#utility.yul\":800:913   */\n    tag_504:\n        /* \"#utility.yul\":814:820   */\n      dup4\n        /* \"#utility.yul\":811:812   */\n      dup2\n        /* \"#utility.yul\":808:821   */\n      lt\n        /* \"#utility.yul\":800:913   */\n      iszero\n      tag_506\n      jumpi\n        /* \"#utility.yul\":899:900   */\n      dup1\n        /* \"#utility.yul\":894:897   */\n      dup3\n        /* \"#utility.yul\":890:901   */\n      add\n        /* \"#utility.yul\":884:902   */\n      mload\n        /* \"#utility.yul\":880:881   */\n      dup2\n        /* \"#utility.yul\":875:878   */\n      dup5\n        /* \"#utility.yul\":871:882   */\n      add\n        /* \"#utility.yul\":864:903   */\n      mstore\n        /* \"#utility.yul\":836:838   */\n      0x20\n        /* \"#utility.yul\":833:834   */\n      dup2\n        /* \"#utility.yul\":829:839   */\n      add\n        /* \"#utility.yul\":824:839   */\n      swap1\n      pop\n        /* \"#utility.yul\":800:913   */\n      jump(tag_504)\n    tag_506:\n        /* \"#utility.yul\":931:937   */\n      dup4\n        /* \"#utility.yul\":928:929   */\n      dup2\n        /* \"#utility.yul\":925:938   */\n      gt\n        /* \"#utility.yul\":922:1023   */\n      iszero\n      tag_507\n      jumpi\n        /* \"#utility.yul\":1011:1012   */\n      0x00\n        /* \"#utility.yul\":1002:1008   */\n      dup5\n        /* \"#utility.yul\":997:1000   */\n      dup5\n        /* \"#utility.yul\":993:1009   */\n      add\n        /* \"#utility.yul\":986:1013   */\n      mstore\n        /* \"#utility.yul\":922:1023   */\n    tag_507:\n        /* \"#utility.yul\":771:1029   */\n      pop\n        /* \"#utility.yul\":722:1029   */\n      pop\n      pop\n      pop\n      jump\t// out\n        /* \"#utility.yul\":1035:1137   */\n    tag_431:\n        /* \"#utility.yul\":1076:1082   */\n      0x00\n        /* \"#utility.yul\":1127:1129   */\n      0x1f\n        /* \"#utility.yul\":1123:1130   */\n      not\n        /* \"#utility.yul\":1118:1120   */\n      0x1f\n        /* \"#utility.yul\":1111:1116   */\n      dup4\n        /* \"#utility.yul\":1107:1121   */\n      add\n        /* \"#utility.yul\":1103:1131   */\n      and\n        /* \"#utility.yul\":1093:1131   */\n      swap1\n      pop\n        /* \"#utility.yul\":1035:1137   */\n      swap2\n      swap1\n      pop\n      jump\t// out\n        /* \"#utility.yul\":1143:1507   */\n    tag_432:\n        /* \"#utility.yul\":1231:1234   */\n      0x00\n        /* \"#utility.yul\":1259:1298   */\n      tag_510\n        /* \"#utility.yul\":1292:1297   */\n      dup3\n        /* \"#utility.yul\":1259:1298   */\n      tag_428\n      jump\t// in\n    tag_510:\n        /* \"#utility.yul\":1314:1385   */\n      tag_511\n        /* \"#utility.yul\":1378:1384   */\n      dup2\n        /* \"#utility.yul\":1373:1376   */\n      dup6\n        /* \"#utility.yul\":1314:1385   */\n      tag_429\n      jump\t// in\n    tag_511:\n        /* \"#utility.yul\":1307:1385   */\n      swap4\n      pop\n        /* \"#utility.yul\":1394:1446   */\n      tag_512\n        /* \"#utility.yul\":1439:1445   */\n      dup2\n        /* \"#utility.yul\":1434:1437   */\n      dup6\n        /* \"#utility.yul\":1427:1431   */\n      0x20\n        /* \"#utility.yul\":1420:1425   */\n      dup7\n        /* \"#utility.yul\":1416:1432   */\n      add\n        /* \"#utility.yul\":1394:1446   */\n      tag_430\n      jump\t// in\n    tag_512:\n        /* \"#utility.yul\":1471:1500   */\n      tag_513\n        /* \"#utility.yul\":1493:1499   */\n      dup2\n        /* \"#utility.yul\":1471:1500   */\n      tag_431\n      jump\t// in\n    tag_513:\n        /* \"#utility.yul\":1466:1469   */\n      dup5\n        /* \"#utility.yul\":1462:1501   */\n      add\n        /* \"#utility.yul\":1455:1501   */\n      swap2\n      pop\n        /* \"#utility.yul\":1235:1507   */\n      pop\n        /* \"#utility.yul\":1143:1507   */\n      swap3\n      swap2\n      pop\n      pop\n      jump\t// out\n        /* \"#utility.yul\":1513:1826   */\n    tag_59:\n        /* \"#utility.yul\":1626:1630   */\n      0x00\n        /* \"#utility.yul\":1664:1666   */\n      0x20\n        /* \"#utility.yul\":1653:1662   */\n      dup3\n        /* \"#utility.yul\":1649:1667   */\n      add\n        /* \"#utility.yul\":1641:1667   */\n      swap1\n      pop\n        /* \"#utility.yul\":1713:1722   */\n      dup2\n        /* \"#utility.yul\":1707:1711   */\n      dup2\n        /* \"#utility.yul\":1703:1723   */\n      sub\n        /* \"#utility.yul\":1699:1700   */\n      0x00\n        /* \"#utility.yul\":1688:1697   */\n      dup4\n        /* \"#utility.yul\":1684:1701   */\n      add\n        /* \"#utility.yul\":1677:1724   */\n      mstore\n        /* \"#utility.yul\":1741:1819   */\n      tag_515\n        /* \"#utility.yul\":1814:1818   */\n      dup2\n        /* \"#utility.yul\":1805:1811   */\n      dup5\n        /* \"#utility.yul\":1741:1819   */\n      tag_432\n      jump\t// in\n    tag_515:\n        /* \"#utility.yul\":1733:1819   */\n      swap1\n      pop\n        /* \"#utility.yul\":1513:1826   */\n      swap3\n      swap2\n      pop\n      pop\n      jump\t// out\n        /* \"#utility.yul\":1913:2030   */\n    tag_434:\n        /* \"#utility.yul\":2022:2023   */\n      0x00\n        /* \"#utility.yul\":2019:2020   */\n      dup1\n        /* \"#utility.yul\":2012:2024   */\n      revert\n        /* \"#utility.yul\":2159:2281   */\n    tag_436:\n        /* \"#utility.yul\":2232:2256   */\n      tag_520\n        /* \"#utility.yul\":2250:2255   */\n      dup2\n        /* \"#utility.yul\":2232:2256   */\n      tag_426\n      jump\t// in\n    tag_520:\n        /* \"#utility.yul\":2225:2230   */\n      dup2\n        /* \"#utility.yul\":2222:2257   */\n      eq\n        /* \"#utility.yul\":2212:2275   */\n      tag_521\n      jumpi\n        /* \"#utility.yul\":2271:2272   */\n      0x00\n        /* \"#utility.yul\":2268:2269   */\n      dup1\n        /* \"#utility.yul\":2261:2273   */\n      revert\n        /* \"#utility.yul\":2212:2275   */\n    tag_521:\n        /* \"#utility.yul\":2159:2281   */\n      pop\n      jump\t// out\n        /* \"#utility.yul\":2287:2426   */\n    tag_437:\n        /* \"#utility.yul\":2333:2338   */\n      0x00\n        /* \"#utility.yul\":2371:2377   */\n      dup2\n        /* \"#utility.yul\":2358:2378   */\n      calldataload\n        /* \"#utility.yul\":2349:2378   */\n      swap1\n      pop\n        /* \"#utility.yul\":2387:2420   */\n      tag_523\n        /* \"#utility.yul\":2414:2419   */\n      dup2\n        /* \"#utility.yul\":2387:2420   */\n      tag_436\n      jump\t// in\n    tag_523:\n        /* \"#utility.yul\":2287:2426   */\n      swap3\n      swap2\n      pop\n      pop\n      jump\t// out\n        /* \"#utility.yul\":2432:2761   */\n    tag_62:\n        /* \"#utility.yul\":2491:2497   */\n      0x00\n        /* \"#utility.yul\":2540:2542   */\n      0x20\n        /* \"#utility.yul\":2528:2537   */\n      dup3\n        /* \"#utility.yul\":2519:2526   */\n      dup5\n        /* \"#utility.yul\":2515:2538   */\n      sub\n        /* \"#utility.yul\":2511:2543   */\n      slt\n        /* \"#utility.yul\":2508:2627   */\n      iszero\n      tag_525\n      jumpi\n        /* \"#utility.yul\":2546:2625   */\n      tag_526\n      tag_434\n      jump\t// in\n    tag_526:\n        /* \"#utility.yul\":2508:2627   */\n    tag_525:\n        /* \"#utility.yul\":2666:2667   */\n      0x00\n        /* \"#utility.yul\":2691:2744   */\n      tag_527\n        /* \"#utility.yul\":2736:2743   */\n      dup5\n        /* \"#utility.yul\":2727:2733   */\n      dup3\n        /* \"#utility.yul\":2716:2725   */\n      dup6\n        /* \"#utility.yul\":2712:2734   */\n      add\n        /* \"#utility.yul\":2691:2744   */\n      tag_437\n      jump\t// in\n    tag_527:\n        /* \"#utility.yul\":2681:2744   */\n      swap2\n      pop\n        /* \"#utility.yul\":2637:2754   */\n      pop\n        /* \"#utility.yul\":2432:2761   */\n      swap3\n      swap2\n      pop\n      pop\n      jump\t// out\n        /* \"#utility.yul\":2767:2893   */\n    tag_438:\n        /* \"#utility.yul\":2804:2811   */\n      0x00\n        /* \"#utility.yul\":2844:2886   */\n      0xffffffffffffffffffffffffffffffffffffffff\n        /* \"#utility.yul\":2837:2842   */\n      dup3\n        /* \"#utility.yul\":2833:2887   */\n      and\n        /* \"#utility.yul\":2822:2887   */\n      swap1\n      pop\n        /* \"#utility.yul\":2767:2893   */\n      swap2\n      swap1\n      pop\n      jump\t// out\n        /* \"#utility.yul\":2899:2995   */\n    tag_439:\n        /* \"#utility.yul\":2936:2943   */\n      0x00\n        /* \"#utility.yul\":2965:2989   */\n      tag_530\n        /* \"#utility.yul\":2983:2988   */\n      dup3\n        /* \"#utility.yul\":2965:2989   */\n      tag_438\n      jump\t// in\n    tag_530:\n        /* \"#utility.yul\":2954:2989   */\n      swap1\n      pop\n        /* \"#utility.yul\":2899:2995   */\n      swap2\n      swap1\n      pop\n      jump\t// out\n        /* \"#utility.yul\":3001:3123   */\n    tag_440:\n        /* \"#utility.yul\":3074:3098   */\n      tag_532\n        /* \"#utility.yul\":3092:3097   */\n      dup2\n        /* \"#utility.yul\":3074:3098   */\n      tag_439\n      jump\t// in\n    tag_532:\n        /* \"#utility.yul\":3067:3072   */\n      dup2\n        /* \"#utility.yul\":3064:3099   */\n      eq\n        /* \"#utility.yul\":3054:3117   */\n      tag_533\n      jumpi\n        /* \"#utility.yul\":3113:3114   */\n      0x00\n        /* \"#utility.yul\":3110:3111   */\n      dup1\n        /* \"#utility.yul\":3103:3115   */\n      revert\n        /* \"#utility.yul\":3054:3117   */\n    tag_533:\n        /* \"#utility.yul\":3001:3123   */\n      pop\n      jump\t// out\n        /* \"#utility.yul\":3129:3268   */\n    tag_441:\n        /* \"#utility.yul\":3175:3180   */\n      0x00\n        /* \"#utility.yul\":3213:3219   */\n      dup2\n        /* \"#utility.yul\":3200:3220   */\n      calldataload\n        /* \"#utility.yul\":3191:3220   */\n      swap1\n      pop\n        /* \"#utility.yul\":3229:3262   */\n      tag_535\n        /* \"#utility.yul\":3256:3261   */\n      dup2\n        /* \"#utility.yul\":3229:3262   */\n      tag_440\n      jump\t// in\n    tag_535:\n        /* \"#utility.yul\":3129:3268   */\n      swap3\n      swap2\n      pop\n      pop\n      jump\t// out\n        /* \"#utility.yul\":3274:3748   */\n    tag_67:\n        /* \"#utility.yul\":3342:3348   */\n      0x00\n        /* \"#utility.yul\":3350:3356   */\n      dup1\n        /* \"#utility.yul\":3399:3401   */\n      0x40\n        /* \"#utility.yul\":3387:3396   */\n      dup4\n        /* \"#utility.yul\":3378:3385   */\n      dup6\n        /* \"#utility.yul\":3374:3397   */\n      sub\n        /* \"#utility.yul\":3370:3402   */\n      slt\n        /* \"#utility.yul\":3367:3486   */\n      iszero\n      tag_537\n      jumpi\n        /* \"#utility.yul\":3405:3484   */\n      tag_538\n      tag_434\n      jump\t// in\n    tag_538:\n        /* \"#utility.yul\":3367:3486   */\n    tag_537:\n        /* \"#utility.yul\":3525:3526   */\n      0x00\n        /* \"#utility.yul\":3550:3603   */\n      tag_539\n        /* \"#utility.yul\":3595:3602   */\n      dup6\n        /* \"#utility.yul\":3586:3592   */\n      dup3\n        /* \"#utility.yul\":3575:3584   */\n      dup7\n        /* \"#utility.yul\":3571:3593   */\n      add\n        /* \"#utility.yul\":3550:3603   */\n      tag_441\n      jump\t// in\n    tag_539:\n        /* \"#utility.yul\":3540:3603   */\n      swap3\n      pop\n        /* \"#utility.yul\":3496:3613   */\n      pop\n        /* \"#utility.yul\":3652:3654   */\n      0x20\n        /* \"#utility.yul\":3678:3731   */\n      tag_540\n        /* \"#utility.yul\":3723:3730   */\n      dup6\n        /* \"#utility.yul\":3714:3720   */\n      dup3\n        /* \"#utility.yul\":3703:3712   */\n      dup7\n        /* \"#utility.yul\":3699:3721   */\n      add\n        /* \"#utility.yul\":3678:3731   */\n      tag_437\n      jump\t// in\n    tag_540:\n        /* \"#utility.yul\":3668:3731   */\n      swap2\n      pop\n        /* \"#utility.yul\":3623:3741   */\n      pop\n        /* \"#utility.yul\":3274:3748   */\n      swap3\n      pop\n      swap3\n      swap1\n      pop\n      jump\t// out\n        /* \"#utility.yul\":3754:3844   */\n    tag_442:\n        /* \"#utility.yul\":3788:3795   */\n      0x00\n        /* \"#utility.yul\":3831:3836   */\n      dup2\n        /* \"#utility.yul\":3824:3837   */\n      iszero\n        /* \"#utility.yul\":3817:3838   */\n      iszero\n        /* \"#utility.yul\":3806:3838   */\n      swap1\n      pop\n        /* \"#utility.yul\":3754:3844   */\n      swap2\n      swap1\n      pop\n      jump\t// out\n        /* \"#utility.yul\":3850:3959   */\n    tag_443:\n        /* \"#utility.yul\":3931:3952   */\n      tag_543\n        /* \"#utility.yul\":3946:3951   */\n      dup2\n        /* \"#utility.yul\":3931:3952   */\n      tag_442\n      jump\t// in\n    tag_543:\n        /* \"#utility.yul\":3926:3929   */\n      dup3\n        /* \"#utility.yul\":3919:3953   */\n      mstore\n        /* \"#utility.yul\":3850:3959   */\n      pop\n      pop\n      jump\t// out\n        /* \"#utility.yul\":3965:4175   */\n    tag_70:\n        /* \"#utility.yul\":4052:4056   */\n      0x00\n        /* \"#utility.yul\":4090:4092   */\n      0x20\n        /* \"#utility.yul\":4079:4088   */\n      dup3\n        /* \"#utility.yul\":4075:4093   */\n      add\n        /* \"#utility.yul\":4067:4093   */\n      swap1\n      pop\n        /* \"#utility.yul\":4103:4168   */\n      tag_545\n        /* \"#utility.yul\":4165:4166   */\n      0x00\n        /* \"#utility.yul\":4154:4163   */\n      dup4\n        /* \"#utility.yul\":4150:4167   */\n      add\n        /* \"#utility.yul\":4141:4147   */\n      dup5\n        /* \"#utility.yul\":4103:4168   */\n      tag_443\n      jump\t// in\n    tag_545:\n        /* \"#utility.yul\":3965:4175   */\n      swap3\n      swap2\n      pop\n      pop\n      jump\t// out\n        /* \"#utility.yul\":4181:4800   */\n    tag_83:\n        /* \"#utility.yul\":4258:4264   */\n      0x00\n        /* \"#utility.yul\":4266:4272   */\n      dup1\n        /* \"#utility.yul\":4274:4280   */\n      0x00\n        /* \"#utility.yul\":4323:4325   */\n      0x60\n        /* \"#utility.yul\":4311:4320   */\n      dup5\n        /* \"#utility.yul\":4302:4309   */\n      dup7\n        /* \"#utility.yul\":4298:4321   */\n      sub\n        /* \"#utility.yul\":4294:4326   */\n      slt\n        /* \"#utility.yul\":4291:4410   */\n      iszero\n      tag_547\n      jumpi\n        /* \"#utility.yul\":4329:4408   */\n      tag_548\n      tag_434\n      jump\t// in\n    tag_548:\n        /* \"#utility.yul\":4291:4410   */\n    tag_547:\n        /* \"#utility.yul\":4449:4450   */\n      0x00\n        /* \"#utility.yul\":4474:4527   */\n      tag_549\n        /* \"#utility.yul\":4519:4526   */\n      dup7\n        /* \"#utility.yul\":4510:4516   */\n      dup3\n        /* \"#utility.yul\":4499:4508   */\n      dup8\n        /* \"#utility.yul\":4495:4517   */\n      add\n        /* \"#utility.yul\":4474:4527   */\n      tag_441\n      jump\t// in\n    tag_549:\n        /* \"#utility.yul\":4464:4527   */\n      swap4\n      pop\n        /* \"#utility.yul\":4420:4537   */\n      pop\n        /* \"#utility.yul\":4576:4578   */\n      0x20\n        /* \"#utility.yul\":4602:4655   */\n      tag_550\n        /* \"#utility.yul\":4647:4654   */\n      dup7\n        /* \"#utility.yul\":4638:4644   */\n      dup3\n        /* \"#utility.yul\":4627:4636   */\n      dup8\n        /* \"#utility.yul\":4623:4645   */\n      add\n        /* \"#utility.yul\":4602:4655   */\n      tag_441\n      jump\t// in\n    tag_550:\n        /* \"#utility.yul\":4592:4655   */\n      swap3\n      pop\n        /* \"#utility.yul\":4547:4665   */\n      pop\n        /* \"#utility.yul\":4704:4706   */\n      0x40\n        /* \"#utility.yul\":4730:4783   */\n      tag_551\n        /* \"#utility.yul\":4775:4782   */\n      dup7\n        /* \"#utility.yul\":4766:4772   */\n      dup3\n        /* \"#utility.yul\":4755:4764   */\n      dup8\n        /* \"#utility.yul\":4751:4773   */\n      add\n        /* \"#utility.yul\":4730:4783   */\n      tag_437\n      jump\t// in\n    tag_551:\n        /* \"#utility.yul\":4720:4783   */\n      swap2\n      pop\n        /* \"#utility.yul\":4675:4793   */\n      pop\n        /* \"#utility.yul\":4181:4800   */\n      swap3\n      pop\n      swap3\n      pop\n      swap3\n      jump\t// out\n        /* \"#utility.yul\":4806:4892   */\n    tag_444:\n        /* \"#utility.yul\":4841:4848   */\n      0x00\n        /* \"#utility.yul\":4881:4885   */\n      0xff\n        /* \"#utility.yul\":4874:4879   */\n      dup3\n        /* \"#utility.yul\":4870:4886   */\n      and\n        /* \"#utility.yul\":4859:4886   */\n      swap1\n      pop\n        /* \"#utility.yul\":4806:4892   */\n      swap2\n      swap1\n      pop\n      jump\t// out\n        /* \"#utility.yul\":4898:5010   */\n    tag_445:\n        /* \"#utility.yul\":4981:5003   */\n      tag_554\n        /* \"#utility.yul\":4997:5002   */\n      dup2\n        /* \"#utility.yul\":4981:5003   */\n      tag_444\n      jump\t// in\n    tag_554:\n        /* \"#utility.yul\":4976:4979   */\n      dup3\n        /* \"#utility.yul\":4969:5004   */\n      mstore\n        /* \"#utility.yul\":4898:5010   */\n      pop\n      pop\n      jump\t// out\n        /* \"#utility.yul\":5016:5230   */\n    tag_89:\n        /* \"#utility.yul\":5105:5109   */\n      0x00\n        /* \"#utility.yul\":5143:5145   */\n      0x20\n        /* \"#utility.yul\":5132:5141   */\n      dup3\n        /* \"#utility.yul\":5128:5146   */\n      add\n        /* \"#utility.yul\":5120:5146   */\n      swap1\n      pop\n        /* \"#utility.yul\":5156:5223   */\n      tag_556\n        /* \"#utility.yul\":5220:5221   */\n      0x00\n        /* \"#utility.yul\":5209:5218   */\n      dup4\n        /* \"#utility.yul\":5205:5222   */\n      add\n        /* \"#utility.yul\":5196:5202   */\n      dup5\n        /* \"#utility.yul\":5156:5223   */\n      tag_445\n      jump\t// in\n    tag_556:\n        /* \"#utility.yul\":5016:5230   */\n      swap3\n      swap2\n      pop\n      pop\n      jump\t// out\n        /* \"#utility.yul\":5236:5352   */\n    tag_446:\n        /* \"#utility.yul\":5306:5327   */\n      tag_558\n        /* \"#utility.yul\":5321:5326   */\n      dup2\n        /* \"#utility.yul\":5306:5327   */\n      tag_442\n      jump\t// in\n    tag_558:\n        /* \"#utility.yul\":5299:5304   */\n      dup2\n        /* \"#utility.yul\":5296:5328   */\n      eq\n        /* \"#utility.yul\":5286:5346   */\n      tag_559\n      jumpi\n        /* \"#utility.yul\":5342:5343   */\n      0x00\n        /* \"#utility.yul\":5339:5340   */\n      dup1\n        /* \"#utility.yul\":5332:5344   */\n      revert\n        /* \"#utility.yul\":5286:5346   */\n    tag_559:\n        /* \"#utility.yul\":5236:5352   */\n      pop\n      jump\t// out\n        /* \"#utility.yul\":5358:5491   */\n    tag_447:\n        /* \"#utility.yul\":5401:5406   */\n      0x00\n        /* \"#utility.yul\":5439:5445   */\n      dup2\n        /* \"#utility.yul\":5426:5446   */\n      calldataload\n        /* \"#utility.yul\":5417:5446   */\n      swap1\n      pop\n        /* \"#utility.yul\":5455:5485   */\n      tag_561\n        /* \"#utility.yul\":5479:5484   */\n      dup2\n        /* \"#utility.yul\":5455:5485   */\n      tag_446\n      jump\t// in\n    tag_561:\n        /* \"#utility.yul\":5358:5491   */\n      swap3\n      swap2\n      pop\n      pop\n      jump\t// out\n        /* \"#utility.yul\":5497:5820   */\n    tag_92:\n        /* \"#utility.yul\":5553:5559   */\n      0x00\n        /* \"#utility.yul\":5602:5604   */\n      0x20\n        /* \"#utility.yul\":5590:5599   */\n      dup3\n        /* \"#utility.yul\":5581:5588   */\n      dup5\n        /* \"#utility.yul\":5577:5600   */\n      sub\n        /* \"#utility.yul\":5573:5605   */\n      slt\n        /* \"#utility.yul\":5570:5689   */\n      iszero\n      tag_563\n      jumpi\n        /* \"#utility.yul\":5608:5687   */\n      tag_564\n      tag_434\n      jump\t// in\n    tag_564:\n        /* \"#utility.yul\":5570:5689   */\n    tag_563:\n        /* \"#utility.yul\":5728:5729   */\n      0x00\n        /* \"#utility.yul\":5753:5803   */\n      tag_565\n        /* \"#utility.yul\":5795:5802   */\n      dup5\n        /* \"#utility.yul\":5786:5792   */\n      dup3\n        /* \"#utility.yul\":5775:5784   */\n      dup6\n        /* \"#utility.yul\":5771:5793   */\n      add\n        /* \"#utility.yul\":5753:5803   */\n      tag_447\n      jump\t// in\n    tag_565:\n        /* \"#utility.yul\":5743:5803   */\n      swap2\n      pop\n        /* \"#utility.yul\":5699:5813   */\n      pop\n        /* \"#utility.yul\":5497:5820   */\n      swap3\n      swap2\n      pop\n      pop\n      jump\t// out\n        /* \"#utility.yul\":5826:5903   */\n    tag_448:\n        /* \"#utility.yul\":5863:5870   */\n      0x00\n        /* \"#utility.yul\":5892:5897   */\n      dup2\n        /* \"#utility.yul\":5881:5897   */\n      swap1\n      pop\n        /* \"#utility.yul\":5826:5903   */\n      swap2\n      swap1\n      pop\n      jump\t// out\n        /* \"#utility.yul\":5909:6027   */\n    tag_449:\n        /* \"#utility.yul\":5996:6020   */\n      tag_568\n        /* \"#utility.yul\":6014:6019   */\n      dup2\n        /* \"#utility.yul\":5996:6020   */\n      tag_448\n      jump\t// in\n    tag_568:\n        /* \"#utility.yul\":5991:5994   */\n      dup3\n        /* \"#utility.yul\":5984:6021   */\n      mstore\n        /* \"#utility.yul\":5909:6027   */\n      pop\n      pop\n      jump\t// out\n        /* \"#utility.yul\":6033:6255   */\n    tag_97:\n        /* \"#utility.yul\":6126:6130   */\n      0x00\n        /* \"#utility.yul\":6164:6166   */\n      0x20\n        /* \"#utility.yul\":6153:6162   */\n      dup3\n        /* \"#utility.yul\":6149:6167   */\n      add\n        /* \"#utility.yul\":6141:6167   */\n      swap1\n      pop\n        /* \"#utility.yul\":6177:6248   */\n      tag_570\n        /* \"#utility.yul\":6245:6246   */\n      0x00\n        /* \"#utility.yul\":6234:6243   */\n      dup4\n        /* \"#utility.yul\":6230:6247   */\n      add\n        /* \"#utility.yul\":6221:6227   */\n      dup5\n        /* \"#utility.yul\":6177:6248   */\n      tag_449\n      jump\t// in\n    tag_570:\n        /* \"#utility.yul\":6033:6255   */\n      swap3\n      swap2\n      pop\n      pop\n      jump\t// out\n        /* \"#utility.yul\":6261:6321   */\n    tag_450:\n        /* \"#utility.yul\":6289:6292   */\n      0x00\n        /* \"#utility.yul\":6310:6315   */\n      dup2\n        /* \"#utility.yul\":6303:6315   */\n      swap1\n      pop\n        /* \"#utility.yul\":6261:6321   */\n      swap2\n      swap1\n      pop\n      jump\t// out\n        /* \"#utility.yul\":6327:6469   */\n    tag_451:\n        /* \"#utility.yul\":6377:6386   */\n      0x00\n        /* \"#utility.yul\":6410:6463   */\n      tag_573\n        /* \"#utility.yul\":6428:6462   */\n      tag_574\n        /* \"#utility.yul\":6437:6461   */\n      tag_575\n        /* \"#utility.yul\":6455:6460   */\n      dup5\n        /* \"#utility.yul\":6437:6461   */\n      tag_438\n      jump\t// in\n    tag_575:\n        /* \"#utility.yul\":6428:6462   */\n      tag_450\n      jump\t// in\n    tag_574:\n        /* \"#utility.yul\":6410:6463   */\n      tag_438\n      jump\t// in\n    tag_573:\n        /* \"#utility.yul\":6397:6463   */\n      swap1\n      pop\n        /* \"#utility.yul\":6327:6469   */\n      swap2\n      swap1\n      pop\n      jump\t// out\n        /* \"#utility.yul\":6475:6601   */\n    tag_452:\n        /* \"#utility.yul\":6525:6534   */\n      0x00\n        /* \"#utility.yul\":6558:6595   */\n      tag_577\n        /* \"#utility.yul\":6589:6594   */\n      dup3\n        /* \"#utility.yul\":6558:6595   */\n      tag_451\n      jump\t// in\n    tag_577:\n        /* \"#utility.yul\":6545:6595   */\n      swap1\n      pop\n        /* \"#utility.yul\":6475:6601   */\n      swap2\n      swap1\n      pop\n      jump\t// out\n        /* \"#utility.yul\":6607:6746   */\n    tag_453:\n        /* \"#utility.yul\":6670:6679   */\n      0x00\n        /* \"#utility.yul\":6703:6740   */\n      tag_579\n        /* \"#utility.yul\":6734:6739   */\n      dup3\n        /* \"#utility.yul\":6703:6740   */\n      tag_452\n      jump\t// in\n    tag_579:\n        /* \"#utility.yul\":6690:6740   */\n      swap1\n      pop\n        /* \"#utility.yul\":6607:6746   */\n      swap2\n      swap1\n      pop\n      jump\t// out\n        /* \"#utility.yul\":6752:6909   */\n    tag_454:\n        /* \"#utility.yul\":6852:6902   */\n      tag_581\n        /* \"#utility.yul\":6896:6901   */\n      dup2\n        /* \"#utility.yul\":6852:6902   */\n      tag_453\n      jump\t// in\n    tag_581:\n        /* \"#utility.yul\":6847:6850   */\n      dup3\n        /* \"#utility.yul\":6840:6903   */\n      mstore\n        /* \"#utility.yul\":6752:6909   */\n      pop\n      pop\n      jump\t// out\n        /* \"#utility.yul\":6915:7163   */\n    tag_101:\n        /* \"#utility.yul\":7021:7025   */\n      0x00\n        /* \"#utility.yul\":7059:7061   */\n      0x20\n        /* \"#utility.yul\":7048:7057   */\n      dup3\n        /* \"#utility.yul\":7044:7062   */\n      add\n        /* \"#utility.yul\":7036:7062   */\n      swap1\n      pop\n        /* \"#utility.yul\":7072:7156   */\n      tag_583\n        /* \"#utility.yul\":7153:7154   */\n      0x00\n        /* \"#utility.yul\":7142:7151   */\n      dup4\n        /* \"#utility.yul\":7138:7155   */\n      add\n        /* \"#utility.yul\":7129:7135   */\n      dup5\n        /* \"#utility.yul\":7072:7156   */\n      tag_454\n      jump\t// in\n    tag_583:\n        /* \"#utility.yul\":6915:7163   */\n      swap3\n      swap2\n      pop\n      pop\n      jump\t// out\n        /* \"#utility.yul\":7169:7498   */\n    tag_104:\n        /* \"#utility.yul\":7228:7234   */\n      0x00\n        /* \"#utility.yul\":7277:7279   */\n      0x20\n        /* \"#utility.yul\":7265:7274   */\n      dup3\n        /* \"#utility.yul\":7256:7263   */\n      dup5\n        /* \"#utility.yul\":7252:7275   */\n      sub\n        /* \"#utility.yul\":7248:7280   */\n      slt\n        /* \"#utility.yul\":7245:7364   */\n      iszero\n      tag_585\n      jumpi\n        /* \"#utility.yul\":7283:7362   */\n      tag_586\n      tag_434\n      jump\t// in\n    tag_586:\n        /* \"#utility.yul\":7245:7364   */\n    tag_585:\n        /* \"#utility.yul\":7403:7404   */\n      0x00\n        /* \"#utility.yul\":7428:7481   */\n      tag_587\n        /* \"#utility.yul\":7473:7480   */\n      dup5\n        /* \"#utility.yul\":7464:7470   */\n      dup3\n        /* \"#utility.yul\":7453:7462   */\n      dup6\n        /* \"#utility.yul\":7449:7471   */\n      add\n        /* \"#utility.yul\":7428:7481   */\n      tag_441\n      jump\t// in\n    tag_587:\n        /* \"#utility.yul\":7418:7481   */\n      swap2\n      pop\n        /* \"#utility.yul\":7374:7491   */\n      pop\n        /* \"#utility.yul\":7169:7498   */\n      swap3\n      swap2\n      pop\n      pop\n      jump\t// out\n        /* \"#utility.yul\":7504:7622   */\n    tag_455:\n        /* \"#utility.yul\":7591:7615   */\n      tag_589\n        /* \"#utility.yul\":7609:7614   */\n      dup2\n        /* \"#utility.yul\":7591:7615   */\n      tag_439\n      jump\t// in\n    tag_589:\n        /* \"#utility.yul\":7586:7589   */\n      dup3\n        /* \"#utility.yul\":7579:7616   */\n      mstore\n        /* \"#utility.yul\":7504:7622   */\n      pop\n      pop\n      jump\t// out\n        /* \"#utility.yul\":7628:7850   */\n    tag_110:\n        /* \"#utility.yul\":7721:7725   */\n      0x00\n        /* \"#utility.yul\":7759:7761   */\n      0x20\n        /* \"#utility.yul\":7748:7757   */\n      dup3\n        /* \"#utility.yul\":7744:7762   */\n      add\n        /* \"#utility.yul\":7736:7762   */\n      swap1\n      pop\n        /* \"#utility.yul\":7772:7843   */\n      tag_591\n        /* \"#utility.yul\":7840:7841   */\n      0x00\n        /* \"#utility.yul\":7829:7838   */\n      dup4\n        /* \"#utility.yul\":7825:7842   */\n      add\n        /* \"#utility.yul\":7816:7822   */\n      dup5\n        /* \"#utility.yul\":7772:7843   */\n      tag_455\n      jump\t// in\n    tag_591:\n        /* \"#utility.yul\":7628:7850   */\n      swap3\n      swap2\n      pop\n      pop\n      jump\t// out\n        /* \"#utility.yul\":7856:8330   */\n    tag_117:\n        /* \"#utility.yul\":7924:7930   */\n      0x00\n        /* \"#utility.yul\":7932:7938   */\n      dup1\n        /* \"#utility.yul\":7981:7983   */\n      0x40\n        /* \"#utility.yul\":7969:7978   */\n      dup4\n        /* \"#utility.yul\":7960:7967   */\n      dup6\n        /* \"#utility.yul\":7956:7979   */\n      sub\n        /* \"#utility.yul\":7952:7984   */\n      slt\n        /* \"#utility.yul\":7949:8068   */\n      iszero\n      tag_593\n      jumpi\n        /* \"#utility.yul\":7987:8066   */\n      tag_594\n      tag_434\n      jump\t// in\n    tag_594:\n        /* \"#utility.yul\":7949:8068   */\n    tag_593:\n        /* \"#utility.yul\":8107:8108   */\n      0x00\n        /* \"#utility.yul\":8132:8185   */\n      tag_595\n        /* \"#utility.yul\":8177:8184   */\n      dup6\n        /* \"#utility.yul\":8168:8174   */\n      dup3\n        /* \"#utility.yul\":8157:8166   */\n      dup7\n        /* \"#utility.yul\":8153:8175   */\n      add\n        /* \"#utility.yul\":8132:8185   */\n      tag_437\n      jump\t// in\n    tag_595:\n        /* \"#utility.yul\":8122:8185   */\n      swap3\n      pop\n        /* \"#utility.yul\":8078:8195   */\n      pop\n        /* \"#utility.yul\":8234:8236   */\n      0x20\n        /* \"#utility.yul\":8260:8313   */\n      tag_596\n        /* \"#utility.yul\":8305:8312   */\n      dup6\n        /* \"#utility.yul\":8296:8302   */\n      dup3\n        /* \"#utility.yul\":8285:8294   */\n      dup7\n        /* \"#utility.yul\":8281:8303   */\n      add\n        /* \"#utility.yul\":8260:8313   */\n      tag_441\n      jump\t// in\n    tag_596:\n        /* \"#utility.yul\":8250:8313   */\n      swap2\n      pop\n        /* \"#utility.yul\":8205:8323   */\n      pop\n        /* \"#utility.yul\":7856:8330   */\n      swap3\n      pop\n      swap3\n      swap1\n      pop\n      jump\t// out\n        /* \"#utility.yul\":8336:8955   */\n    tag_156:\n        /* \"#utility.yul\":8413:8419   */\n      0x00\n        /* \"#utility.yul\":8421:8427   */\n      dup1\n        /* \"#utility.yul\":8429:8435   */\n      0x00\n        /* \"#utility.yul\":8478:8480   */\n      0x60\n        /* \"#utility.yul\":8466:8475   */\n      dup5\n        /* \"#utility.yul\":8457:8464   */\n      dup7\n        /* \"#utility.yul\":8453:8476   */\n      sub\n        /* \"#utility.yul\":8449:8481   */\n      slt\n        /* \"#utility.yul\":8446:8565   */\n      iszero\n      tag_598\n      jumpi\n        /* \"#utility.yul\":8484:8563   */\n      tag_599\n      tag_434\n      jump\t// in\n    tag_599:\n        /* \"#utility.yul\":8446:8565   */\n    tag_598:\n        /* \"#utility.yul\":8604:8605   */\n      0x00\n        /* \"#utility.yul\":8629:8682   */\n      tag_600\n        /* \"#utility.yul\":8674:8681   */\n      dup7\n        /* \"#utility.yul\":8665:8671   */\n      dup3\n        /* \"#utility.yul\":8654:8663   */\n      dup8\n        /* \"#utility.yul\":8650:8672   */\n      add\n        /* \"#utility.yul\":8629:8682   */\n      tag_437\n      jump\t// in\n    tag_600:\n        /* \"#utility.yul\":8619:8682   */\n      swap4\n      pop\n        /* \"#utility.yul\":8575:8692   */\n      pop\n        /* \"#utility.yul\":8731:8733   */\n      0x20\n        /* \"#utility.yul\":8757:8810   */\n      tag_601\n        /* \"#utility.yul\":8802:8809   */\n      dup7\n        /* \"#utility.yul\":8793:8799   */\n      dup3\n        /* \"#utility.yul\":8782:8791   */\n      dup8\n        /* \"#utility.yul\":8778:8800   */\n      add\n        /* \"#utility.yul\":8757:8810   */\n      tag_441\n      jump\t// in\n    tag_601:\n        /* \"#utility.yul\":8747:8810   */\n      swap3\n      pop\n        /* \"#utility.yul\":8702:8820   */\n      pop\n        /* \"#utility.yul\":8859:8861   */\n      0x40\n        /* \"#utility.yul\":8885:8938   */\n      tag_602\n        /* \"#utility.yul\":8930:8937   */\n      dup7\n        /* \"#utility.yul\":8921:8927   */\n      dup3\n        /* \"#utility.yul\":8910:8919   */\n      dup8\n        /* \"#utility.yul\":8906:8928   */\n      add\n        /* \"#utility.yul\":8885:8938   */\n      tag_441\n      jump\t// in\n    tag_602:\n        /* \"#utility.yul\":8875:8938   */\n      swap2\n      pop\n        /* \"#utility.yul\":8830:8948   */\n      pop\n        /* \"#utility.yul\":8336:8955   */\n      swap3\n      pop\n      swap3\n      pop\n      swap3\n      jump\t// out\n        /* \"#utility.yul\":8961:9079   */\n    tag_456:\n        /* \"#utility.yul\":9032:9054   */\n      tag_604\n        /* \"#utility.yul\":9048:9053   */\n      dup2\n        /* \"#utility.yul\":9032:9054   */\n      tag_444\n      jump\t// in\n    tag_604:\n        /* \"#utility.yul\":9025:9030   */\n      dup2\n        /* \"#utility.yul\":9022:9055   */\n      eq\n        /* \"#utility.yul\":9012:9073   */\n      tag_605\n      jumpi\n        /* \"#utility.yul\":9069:9070   */\n      0x00\n        /* \"#utility.yul\":9066:9067   */\n      dup1\n        /* \"#utility.yul\":9059:9071   */\n      revert\n        /* \"#utility.yul\":9012:9073   */\n    tag_605:\n        /* \"#utility.yul\":8961:9079   */\n      pop\n      jump\t// out\n        /* \"#utility.yul\":9085:9220   */\n    tag_457:\n        /* \"#utility.yul\":9129:9134   */\n      0x00\n        /* \"#utility.yul\":9167:9173   */\n      dup2\n        /* \"#utility.yul\":9154:9174   */\n      calldataload\n        /* \"#utility.yul\":9145:9174   */\n      swap1\n      pop\n        /* \"#utility.yul\":9183:9214   */\n      tag_607\n        /* \"#utility.yul\":9208:9213   */\n      dup2\n        /* \"#utility.yul\":9183:9214   */\n      tag_456\n      jump\t// in\n    tag_607:\n        /* \"#utility.yul\":9085:9220   */\n      swap3\n      swap2\n      pop\n      pop\n      jump\t// out\n        /* \"#utility.yul\":9226:9348   */\n    tag_458:\n        /* \"#utility.yul\":9299:9323   */\n      tag_609\n        /* \"#utility.yul\":9317:9322   */\n      dup2\n        /* \"#utility.yul\":9299:9323   */\n      tag_448\n      jump\t// in\n    tag_609:\n        /* \"#utility.yul\":9292:9297   */\n      dup2\n        /* \"#utility.yul\":9289:9324   */\n      eq\n        /* \"#utility.yul\":9279:9342   */\n      tag_610\n      jumpi\n        /* \"#utility.yul\":9338:9339   */\n      0x00\n        /* \"#utility.yul\":9335:9336   */\n      dup1\n        /* \"#utility.yul\":9328:9340   */\n      revert\n        /* \"#utility.yul\":9279:9342   */\n    tag_610:\n        /* \"#utility.yul\":9226:9348   */\n      pop\n      jump\t// out\n        /* \"#utility.yul\":9354:9493   */\n    tag_459:\n        /* \"#utility.yul\":9400:9405   */\n      0x00\n        /* \"#utility.yul\":9438:9444   */\n      dup2\n        /* \"#utility.yul\":9425:9445   */\n      calldataload\n        /* \"#utility.yul\":9416:9445   */\n      swap1\n      pop\n        /* \"#utility.yul\":9454:9487   */\n      tag_612\n        /* \"#utility.yul\":9481:9486   */\n      dup2\n        /* \"#utility.yul\":9454:9487   */\n      tag_458\n      jump\t// in\n    tag_612:\n        /* \"#utility.yul\":9354:9493   */\n      swap3\n      swap2\n      pop\n      pop\n      jump\t// out\n        /* \"#utility.yul\":9499:10698   */\n    tag_186:\n        /* \"#utility.yul\":9610:9616   */\n      0x00\n        /* \"#utility.yul\":9618:9624   */\n      dup1\n        /* \"#utility.yul\":9626:9632   */\n      0x00\n        /* \"#utility.yul\":9634:9640   */\n      dup1\n        /* \"#utility.yul\":9642:9648   */\n      0x00\n        /* \"#utility.yul\":9650:9656   */\n      dup1\n        /* \"#utility.yul\":9658:9664   */\n      0x00\n        /* \"#utility.yul\":9707:9710   */\n      0xe0\n        /* \"#utility.yul\":9695:9704   */\n      dup9\n        /* \"#utility.yul\":9686:9693   */\n      dup11\n        /* \"#utility.yul\":9682:9705   */\n      sub\n        /* \"#utility.yul\":9678:9711   */\n      slt\n        /* \"#utility.yul\":9675:9795   */\n      iszero\n      tag_614\n      jumpi\n        /* \"#utility.yul\":9714:9793   */\n      tag_615\n      tag_434\n      jump\t// in\n    tag_615:\n        /* \"#utility.yul\":9675:9795   */\n    tag_614:\n        /* \"#utility.yul\":9834:9835   */\n      0x00\n        /* \"#utility.yul\":9859:9912   */\n      tag_616\n        /* \"#utility.yul\":9904:9911   */\n      dup11\n        /* \"#utility.yul\":9895:9901   */\n      dup3\n        /* \"#utility.yul\":9884:9893   */\n      dup12\n        /* \"#utility.yul\":9880:9902   */\n      add\n        /* \"#utility.yul\":9859:9912   */\n      tag_441\n      jump\t// in\n    tag_616:\n        /* \"#utility.yul\":9849:9912   */\n      swap8\n      pop\n        /* \"#utility.yul\":9805:9922   */\n      pop\n        /* \"#utility.yul\":9961:9963   */\n      0x20\n        /* \"#utility.yul\":9987:10040   */\n      tag_617\n        /* \"#utility.yul\":10032:10039   */\n      dup11\n        /* \"#utility.yul\":10023:10029   */\n      dup3\n        /* \"#utility.yul\":10012:10021   */\n      dup12\n        /* \"#utility.yul\":10008:10030   */\n      add\n        /* \"#utility.yul\":9987:10040   */\n      tag_441\n      jump\t// in\n    tag_617:\n        /* \"#utility.yul\":9977:10040   */\n      swap7\n      pop\n        /* \"#utility.yul\":9932:10050   */\n      pop\n        /* \"#utility.yul\":10089:10091   */\n      0x40\n        /* \"#utility.yul\":10115:10168   */\n      tag_618\n        /* \"#utility.yul\":10160:10167   */\n      dup11\n        /* \"#utility.yul\":10151:10157   */\n      dup3\n        /* \"#utility.yul\":10140:10149   */\n      dup12\n        /* \"#utility.yul\":10136:10158   */\n      add\n        /* \"#utility.yul\":10115:10168   */\n      tag_437\n      jump\t// in\n    tag_618:\n        /* \"#utility.yul\":10105:10168   */\n      swap6\n      pop\n        /* \"#utility.yul\":10060:10178   */\n      pop\n        /* \"#utility.yul\":10217:10219   */\n      0x60\n        /* \"#utility.yul\":10243:10296   */\n      tag_619\n        /* \"#utility.yul\":10288:10295   */\n      dup11\n        /* \"#utility.yul\":10279:10285   */\n      dup3\n        /* \"#utility.yul\":10268:10277   */\n      dup12\n        /* \"#utility.yul\":10264:10286   */\n      add\n        /* \"#utility.yul\":10243:10296   */\n      tag_437\n      jump\t// in\n    tag_619:\n        /* \"#utility.yul\":10233:10296   */\n      swap5\n      pop\n        /* \"#utility.yul\":10188:10306   */\n      pop\n        /* \"#utility.yul\":10345:10348   */\n      0x80\n        /* \"#utility.yul\":10372:10423   */\n      tag_620\n        /* \"#utility.yul\":10415:10422   */\n      dup11\n        /* \"#utility.yul\":10406:10412   */\n      dup3\n        /* \"#utility.yul\":10395:10404   */\n      dup12\n        /* \"#utility.yul\":10391:10413   */\n      add\n        /* \"#utility.yul\":10372:10423   */\n      tag_457\n      jump\t// in\n    tag_620:\n        /* \"#utility.yul\":10362:10423   */\n      swap4\n      pop\n        /* \"#utility.yul\":10316:10433   */\n      pop\n        /* \"#utility.yul\":10472:10475   */\n      0xa0\n        /* \"#utility.yul\":10499:10552   */\n      tag_621\n        /* \"#utility.yul\":10544:10551   */\n      dup11\n        /* \"#utility.yul\":10535:10541   */\n      dup3\n        /* \"#utility.yul\":10524:10533   */\n      dup12\n        /* \"#utility.yul\":10520:10542   */\n      add\n        /* \"#utility.yul\":10499:10552   */\n      tag_459\n      jump\t// in\n    tag_621:\n        /* \"#utility.yul\":10489:10552   */\n      swap3\n      pop\n        /* \"#utility.yul\":10443:10562   */\n      pop\n        /* \"#utility.yul\":10601:10604   */\n      0xc0\n        /* \"#utility.yul\":10628:10681   */\n      tag_622\n        /* \"#utility.yul\":10673:10680   */\n      dup11\n        /* \"#utility.yul\":10664:10670   */\n      dup3\n        /* \"#utility.yul\":10653:10662   */\n      dup12\n        /* \"#utility.yul\":10649:10671   */\n      add\n        /* \"#utility.yul\":10628:10681   */\n      tag_459\n      jump\t// in\n    tag_622:\n        /* \"#utility.yul\":10618:10681   */\n      swap2\n      pop\n        /* \"#utility.yul\":10572:10691   */\n      pop\n        /* \"#utility.yul\":9499:10698   */\n      swap3\n      swap6\n      swap9\n      swap2\n      swap5\n      swap8\n      pop\n      swap3\n      swap6\n      pop\n      jump\t// out\n        /* \"#utility.yul\":10704:11178   */\n    tag_194:\n        /* \"#utility.yul\":10772:10778   */\n      0x00\n        /* \"#utility.yul\":10780:10786   */\n      dup1\n        /* \"#utility.yul\":10829:10831   */\n      0x40\n        /* \"#utility.yul\":10817:10826   */\n      dup4\n        /* \"#utility.yul\":10808:10815   */\n      dup6\n        /* \"#utility.yul\":10804:10827   */\n      sub\n        /* \"#utility.yul\":10800:10832   */\n      slt\n        /* \"#utility.yul\":10797:10916   */\n      iszero\n      tag_624\n      jumpi\n        /* \"#utility.yul\":10835:10914   */\n      tag_625\n      tag_434\n      jump\t// in\n    tag_625:\n        /* \"#utility.yul\":10797:10916   */\n    tag_624:\n        /* \"#utility.yul\":10955:10956   */\n      0x00\n        /* \"#utility.yul\":10980:11033   */\n      tag_626\n        /* \"#utility.yul\":11025:11032   */\n      dup6\n        /* \"#utility.yul\":11016:11022   */\n      dup3\n        /* \"#utility.yul\":11005:11014   */\n      dup7\n        /* \"#utility.yul\":11001:11023   */\n      add\n        /* \"#utility.yul\":10980:11033   */\n      tag_441\n      jump\t// in\n    tag_626:\n        /* \"#utility.yul\":10970:11033   */\n      swap3\n      pop\n        /* \"#utility.yul\":10926:11043   */\n      pop\n        /* \"#utility.yul\":11082:11084   */\n      0x20\n        /* \"#utility.yul\":11108:11161   */\n      tag_627\n        /* \"#utility.yul\":11153:11160   */\n      dup6\n        /* \"#utility.yul\":11144:11150   */\n      dup3\n        /* \"#utility.yul\":11133:11142   */\n      dup7\n        /* \"#utility.yul\":11129:11151   */\n      add\n        /* \"#utility.yul\":11108:11161   */\n      tag_441\n      jump\t// in\n    tag_627:\n        /* \"#utility.yul\":11098:11161   */\n      swap2\n      pop\n        /* \"#utility.yul\":11053:11171   */\n      pop\n        /* \"#utility.yul\":10704:11178   */\n      swap3\n      pop\n      swap3\n      swap1\n      pop\n      jump\t// out\n        /* \"#utility.yul\":11184:11327   */\n    tag_460:\n        /* \"#utility.yul\":11241:11246   */\n      0x00\n        /* \"#utility.yul\":11272:11278   */\n      dup2\n        /* \"#utility.yul\":11266:11279   */\n      mload\n        /* \"#utility.yul\":11257:11279   */\n      swap1\n      pop\n        /* \"#utility.yul\":11288:11321   */\n      tag_629\n        /* \"#utility.yul\":11315:11320   */\n      dup2\n        /* \"#utility.yul\":11288:11321   */\n      tag_436\n      jump\t// in\n    tag_629:\n        /* \"#utility.yul\":11184:11327   */\n      swap3\n      swap2\n      pop\n      pop\n      jump\t// out\n        /* \"#utility.yul\":11333:11684   */\n    tag_218:\n        /* \"#utility.yul\":11403:11409   */\n      0x00\n        /* \"#utility.yul\":11452:11454   */\n      0x20\n        /* \"#utility.yul\":11440:11449   */\n      dup3\n        /* \"#utility.yul\":11431:11438   */\n      dup5\n        /* \"#utility.yul\":11427:11450   */\n      sub\n        /* \"#utility.yul\":11423:11455   */\n      slt\n        /* \"#utility.yul\":11420:11539   */\n      iszero\n      tag_631\n      jumpi\n        /* \"#utility.yul\":11458:11537   */\n      tag_632\n      tag_434\n      jump\t// in\n    tag_632:\n        /* \"#utility.yul\":11420:11539   */\n    tag_631:\n        /* \"#utility.yul\":11578:11579   */\n      0x00\n        /* \"#utility.yul\":11603:11667   */\n      tag_633\n        /* \"#utility.yul\":11659:11666   */\n      dup5\n        /* \"#utility.yul\":11650:11656   */\n      dup3\n        /* \"#utility.yul\":11639:11648   */\n      dup6\n        /* \"#utility.yul\":11635:11657   */\n      add\n        /* \"#utility.yul\":11603:11667   */\n      tag_460\n      jump\t// in\n    tag_633:\n        /* \"#utility.yul\":11593:11667   */\n      swap2\n      pop\n        /* \"#utility.yul\":11549:11677   */\n      pop\n        /* \"#utility.yul\":11333:11684   */\n      swap3\n      swap2\n      pop\n      pop\n      jump\t// out\n        /* \"#utility.yul\":11690:11870   */\n    tag_461:\n        /* \"#utility.yul\":11738:11815   */\n      0x4e487b7100000000000000000000000000000000000000000000000000000000\n        /* \"#utility.yul\":11735:11736   */\n      0x00\n        /* \"#utility.yul\":11728:11816   */\n      mstore\n        /* \"#utility.yul\":11835:11839   */\n      0x22\n        /* \"#utility.yul\":11832:11833   */\n      0x04\n        /* \"#utility.yul\":11825:11840   */\n      mstore\n        /* \"#utility.yul\":11859:11863   */\n      0x24\n        /* \"#utility.yul\":11856:11857   */\n      0x00\n        /* \"#utility.yul\":11849:11864   */\n      revert\n        /* \"#utility.yul\":11876:12196   */\n    tag_220:\n        /* \"#utility.yul\":11920:11926   */\n      0x00\n        /* \"#utility.yul\":11957:11958   */\n      0x02\n        /* \"#utility.yul\":11951:11955   */\n      dup3\n        /* \"#utility.yul\":11947:11959   */\n      div\n        /* \"#utility.yul\":11937:11959   */\n      swap1\n      pop\n        /* \"#utility.yul\":12004:12005   */\n      0x01\n        /* \"#utility.yul\":11998:12002   */\n      dup3\n        /* \"#utility.yul\":11994:12006   */\n      and\n        /* \"#utility.yul\":12025:12043   */\n      dup1\n        /* \"#utility.yul\":12015:12096   */\n      tag_636\n      jumpi\n        /* \"#utility.yul\":12081:12085   */\n      0x7f\n        /* \"#utility.yul\":12073:12079   */\n      dup3\n        /* \"#utility.yul\":12069:12086   */\n      and\n        /* \"#utility.yul\":12059:12086   */\n      swap2\n      pop\n        /* \"#utility.yul\":12015:12096   */\n    tag_636:\n        /* \"#utility.yul\":12143:12145   */\n      0x20\n        /* \"#utility.yul\":12135:12141   */\n      dup3\n        /* \"#utility.yul\":12132:12146   */\n      lt\n        /* \"#utility.yul\":12112:12130   */\n      dup2\n        /* \"#utility.yul\":12109:12147   */\n      eq\n        /* \"#utility.yul\":12106:12190   */\n      iszero\n      tag_637\n      jumpi\n        /* \"#utility.yul\":12162:12180   */\n      tag_638\n      tag_461\n      jump\t// in\n    tag_638:\n        /* \"#utility.yul\":12106:12190   */\n    tag_637:\n        /* \"#utility.yul\":11927:12196   */\n      pop\n        /* \"#utility.yul\":11876:12196   */\n      swap2\n      swap1\n      pop\n      jump\t// out\n        /* \"#utility.yul\":12202:12382   */\n    tag_462:\n        /* \"#utility.yul\":12250:12327   */\n      0x4e487b7100000000000000000000000000000000000000000000000000000000\n        /* \"#utility.yul\":12247:12248   */\n      0x00\n        /* \"#utility.yul\":12240:12328   */\n      mstore\n        /* \"#utility.yul\":12347:12351   */\n      0x11\n        /* \"#utility.yul\":12344:12345   */\n      0x04\n        /* \"#utility.yul\":12337:12352   */\n      mstore\n        /* \"#utility.yul\":12371:12375   */\n      0x24\n        /* \"#utility.yul\":12368:12369   */\n      0x00\n        /* \"#utility.yul\":12361:12376   */\n      revert\n        /* \"#utility.yul\":12388:12579   */\n    tag_242:\n        /* \"#utility.yul\":12428:12432   */\n      0x00\n        /* \"#utility.yul\":12448:12468   */\n      tag_641\n        /* \"#utility.yul\":12466:12467   */\n      dup3\n        /* \"#utility.yul\":12448:12468   */\n      tag_426\n      jump\t// in\n    tag_641:\n        /* \"#utility.yul\":12443:12468   */\n      swap2\n      pop\n        /* \"#utility.yul\":12482:12502   */\n      tag_642\n        /* \"#utility.yul\":12500:12501   */\n      dup4\n        /* \"#utility.yul\":12482:12502   */\n      tag_426\n      jump\t// in\n    tag_642:\n        /* \"#utility.yul\":12477:12502   */\n      swap3\n      pop\n        /* \"#utility.yul\":12521:12522   */\n      dup3\n        /* \"#utility.yul\":12518:12519   */\n      dup3\n        /* \"#utility.yul\":12515:12523   */\n      lt\n        /* \"#utility.yul\":12512:12546   */\n      iszero\n      tag_643\n      jumpi\n        /* \"#utility.yul\":12526:12544   */\n      tag_644\n      tag_462\n      jump\t// in\n    tag_644:\n        /* \"#utility.yul\":12512:12546   */\n    tag_643:\n        /* \"#utility.yul\":12571:12572   */\n      dup3\n        /* \"#utility.yul\":12568:12569   */\n      dup3\n        /* \"#utility.yul\":12564:12573   */\n      sub\n        /* \"#utility.yul\":12556:12573   */\n      swap1\n      pop\n        /* \"#utility.yul\":12388:12579   */\n      swap3\n      swap2\n      pop\n      pop\n      jump\t// out\n        /* \"#utility.yul\":12585:12806   */\n    tag_463:\n        /* \"#utility.yul\":12725:12759   */\n      0x4f776e61626c653a2063616c6c6572206973206e6f7420746865206d616e6167\n        /* \"#utility.yul\":12721:12722   */\n      0x00\n        /* \"#utility.yul\":12713:12719   */\n      dup3\n        /* \"#utility.yul\":12709:12723   */\n      add\n        /* \"#utility.yul\":12702:12760   */\n      mstore\n        /* \"#utility.yul\":12794:12798   */\n      0x6572000000000000000000000000000000000000000000000000000000000000\n        /* \"#utility.yul\":12789:12791   */\n      0x20\n        /* \"#utility.yul\":12781:12787   */\n      dup3\n        /* \"#utility.yul\":12777:12792   */\n      add\n        /* \"#utility.yul\":12770:12799   */\n      mstore\n        /* \"#utility.yul\":12585:12806   */\n      pop\n      jump\t// out\n        /* \"#utility.yul\":12812:13178   */\n    tag_464:\n        /* \"#utility.yul\":12954:12957   */\n      0x00\n        /* \"#utility.yul\":12975:13042   */\n      tag_647\n        /* \"#utility.yul\":13039:13041   */\n      0x22\n        /* \"#utility.yul\":13034:13037   */\n      dup4\n        /* \"#utility.yul\":12975:13042   */\n      tag_429\n      jump\t// in\n    tag_647:\n        /* \"#utility.yul\":12968:13042   */\n      swap2\n      pop\n        /* \"#utility.yul\":13051:13144   */\n      tag_648\n        /* \"#utility.yul\":13140:13143   */\n      dup3\n        /* \"#utility.yul\":13051:13144   */\n      tag_463\n      jump\t// in\n    tag_648:\n        /* \"#utility.yul\":13169:13171   */\n      0x40\n        /* \"#utility.yul\":13164:13167   */\n      dup3\n        /* \"#utility.yul\":13160:13172   */\n      add\n        /* \"#utility.yul\":13153:13172   */\n      swap1\n      pop\n        /* \"#utility.yul\":12812:13178   */\n      swap2\n      swap1\n      pop\n      jump\t// out\n        /* \"#utility.yul\":13184:13603   */\n    tag_249:\n        /* \"#utility.yul\":13350:13354   */\n      0x00\n        /* \"#utility.yul\":13388:13390   */\n      0x20\n        /* \"#utility.yul\":13377:13386   */\n      dup3\n        /* \"#utility.yul\":13373:13391   */\n      add\n        /* \"#utility.yul\":13365:13391   */\n      swap1\n      pop\n        /* \"#utility.yul\":13437:13446   */\n      dup2\n        /* \"#utility.yul\":13431:13435   */\n      dup2\n        /* \"#utility.yul\":13427:13447   */\n      sub\n        /* \"#utility.yul\":13423:13424   */\n      0x00\n        /* \"#utility.yul\":13412:13421   */\n      dup4\n        /* \"#utility.yul\":13408:13425   */\n      add\n        /* \"#utility.yul\":13401:13448   */\n      mstore\n        /* \"#utility.yul\":13465:13596   */\n      tag_650\n        /* \"#utility.yul\":13591:13595   */\n      dup2\n        /* \"#utility.yul\":13465:13596   */\n      tag_464\n      jump\t// in\n    tag_650:\n        /* \"#utility.yul\":13457:13596   */\n      swap1\n      pop\n        /* \"#utility.yul\":13184:13603   */\n      swap2\n      swap1\n      pop\n      jump\t// out\n        /* \"#utility.yul\":13609:13748   */\n    tag_465:\n        /* \"#utility.yul\":13664:13669   */\n      0x00\n        /* \"#utility.yul\":13695:13701   */\n      dup2\n        /* \"#utility.yul\":13689:13702   */\n      mload\n        /* \"#utility.yul\":13680:13702   */\n      swap1\n      pop\n        /* \"#utility.yul\":13711:13742   */\n      tag_652\n        /* \"#utility.yul\":13736:13741   */\n      dup2\n        /* \"#utility.yul\":13711:13742   */\n      tag_456\n      jump\t// in\n    tag_652:\n        /* \"#utility.yul\":13609:13748   */\n      swap3\n      swap2\n      pop\n      pop\n      jump\t// out\n        /* \"#utility.yul\":13754:14101   */\n    tag_255:\n        /* \"#utility.yul\":13822:13828   */\n      0x00\n        /* \"#utility.yul\":13871:13873   */\n      0x20\n        /* \"#utility.yul\":13859:13868   */\n      dup3\n        /* \"#utility.yul\":13850:13857   */\n      dup5\n        /* \"#utility.yul\":13846:13869   */\n      sub\n        /* \"#utility.yul\":13842:13874   */\n      slt\n        /* \"#utility.yul\":13839:13958   */\n      iszero\n      tag_654\n      jumpi\n        /* \"#utility.yul\":13877:13956   */\n      tag_655\n      tag_434\n      jump\t// in\n    tag_655:\n        /* \"#utility.yul\":13839:13958   */\n    tag_654:\n        /* \"#utility.yul\":13997:13998   */\n      0x00\n        /* \"#utility.yul\":14022:14084   */\n      tag_656\n        /* \"#utility.yul\":14076:14083   */\n      dup5\n        /* \"#utility.yul\":14067:14073   */\n      dup3\n        /* \"#utility.yul\":14056:14065   */\n      dup6\n        /* \"#utility.yul\":14052:14074   */\n      add\n        /* \"#utility.yul\":14022:14084   */\n      tag_465\n      jump\t// in\n    tag_656:\n        /* \"#utility.yul\":14012:14084   */\n      swap2\n      pop\n        /* \"#utility.yul\":13968:14094   */\n      pop\n        /* \"#utility.yul\":13754:14101   */\n      swap3\n      swap2\n      pop\n      pop\n      jump\t// out\n        /* \"#utility.yul\":14107:14271   */\n    tag_466:\n        /* \"#utility.yul\":14247:14263   */\n      0x57524f4e475f444543494d414c53000000000000000000000000000000000000\n        /* \"#utility.yul\":14243:14244   */\n      0x00\n        /* \"#utility.yul\":14235:14241   */\n      dup3\n        /* \"#utility.yul\":14231:14245   */\n      add\n        /* \"#utility.yul\":14224:14264   */\n      mstore\n        /* \"#utility.yul\":14107:14271   */\n      pop\n      jump\t// out\n        /* \"#utility.yul\":14277:14643   */\n    tag_467:\n        /* \"#utility.yul\":14419:14422   */\n      0x00\n        /* \"#utility.yul\":14440:14507   */\n      tag_659\n        /* \"#utility.yul\":14504:14506   */\n      0x0e\n        /* \"#utility.yul\":14499:14502   */\n      dup4\n        /* \"#utility.yul\":14440:14507   */\n      tag_429\n      jump\t// in\n    tag_659:\n        /* \"#utility.yul\":14433:14507   */\n      swap2\n      pop\n        /* \"#utility.yul\":14516:14609   */\n      tag_660\n        /* \"#utility.yul\":14605:14608   */\n      dup3\n        /* \"#utility.yul\":14516:14609   */\n      tag_466\n      jump\t// in\n    tag_660:\n        /* \"#utility.yul\":14634:14636   */\n      0x20\n        /* \"#utility.yul\":14629:14632   */\n      dup3\n        /* \"#utility.yul\":14625:14637   */\n      add\n        /* \"#utility.yul\":14618:14637   */\n      swap1\n      pop\n        /* \"#utility.yul\":14277:14643   */\n      swap2\n      swap1\n      pop\n      jump\t// out\n        /* \"#utility.yul\":14649:15068   */\n    tag_258:\n        /* \"#utility.yul\":14815:14819   */\n      0x00\n        /* \"#utility.yul\":14853:14855   */\n      0x20\n        /* \"#utility.yul\":14842:14851   */\n      dup3\n        /* \"#utility.yul\":14838:14856   */\n      add\n        /* \"#utility.yul\":14830:14856   */\n      swap1\n      pop\n        /* \"#utility.yul\":14902:14911   */\n      dup2\n        /* \"#utility.yul\":14896:14900   */\n      dup2\n        /* \"#utility.yul\":14892:14912   */\n      sub\n        /* \"#utility.yul\":14888:14889   */\n      0x00\n        /* \"#utility.yul\":14877:14886   */\n      dup4\n        /* \"#utility.yul\":14873:14890   */\n      add\n        /* \"#utility.yul\":14866:14913   */\n      mstore\n        /* \"#utility.yul\":14930:15061   */\n      tag_662\n        /* \"#utility.yul\":15056:15060   */\n      dup2\n        /* \"#utility.yul\":14930:15061   */\n      tag_467\n      jump\t// in\n    tag_662:\n        /* \"#utility.yul\":14922:15061   */\n      swap1\n      pop\n        /* \"#utility.yul\":14649:15068   */\n      swap2\n      swap1\n      pop\n      jump\t// out\n        /* \"#utility.yul\":15074:15235   */\n    tag_468:\n        /* \"#utility.yul\":15214:15227   */\n      0x5a45524f5f534841524553000000000000000000000000000000000000000000\n        /* \"#utility.yul\":15210:15211   */\n      0x00\n        /* \"#utility.yul\":15202:15208   */\n      dup3\n        /* \"#utility.yul\":15198:15212   */\n      add\n        /* \"#utility.yul\":15191:15228   */\n      mstore\n        /* \"#utility.yul\":15074:15235   */\n      pop\n      jump\t// out\n        /* \"#utility.yul\":15241:15607   */\n    tag_469:\n        /* \"#utility.yul\":15383:15386   */\n      0x00\n        /* \"#utility.yul\":15404:15471   */\n      tag_665\n        /* \"#utility.yul\":15468:15470   */\n      0x0b\n        /* \"#utility.yul\":15463:15466   */\n      dup4\n        /* \"#utility.yul\":15404:15471   */\n      tag_429\n      jump\t// in\n    tag_665:\n        /* \"#utility.yul\":15397:15471   */\n      swap2\n      pop\n        /* \"#utility.yul\":15480:15573   */\n      tag_666\n        /* \"#utility.yul\":15569:15572   */\n      dup3\n        /* \"#utility.yul\":15480:15573   */\n      tag_468\n      jump\t// in\n    tag_666:\n        /* \"#utility.yul\":15598:15600   */\n      0x20\n        /* \"#utility.yul\":15593:15596   */\n      dup3\n        /* \"#utility.yul\":15589:15601   */\n      add\n        /* \"#utility.yul\":15582:15601   */\n      swap1\n      pop\n        /* \"#utility.yul\":15241:15607   */\n      swap2\n      swap1\n      pop\n      jump\t// out\n        /* \"#utility.yul\":15613:16032   */\n    tag_273:\n        /* \"#utility.yul\":15779:15783   */\n      0x00\n        /* \"#utility.yul\":15817:15819   */\n      0x20\n        /* \"#utility.yul\":15806:15815   */\n      dup3\n        /* \"#utility.yul\":15802:15820   */\n      add\n        /* \"#utility.yul\":15794:15820   */\n      swap1\n      pop\n        /* \"#utility.yul\":15866:15875   */\n      dup2\n        /* \"#utility.yul\":15860:15864   */\n      dup2\n        /* \"#utility.yul\":15856:15876   */\n      sub\n        /* \"#utility.yul\":15852:15853   */\n      0x00\n        /* \"#utility.yul\":15841:15850   */\n      dup4\n        /* \"#utility.yul\":15837:15854   */\n      add\n        /* \"#utility.yul\":15830:15877   */\n      mstore\n        /* \"#utility.yul\":15894:16025   */\n      tag_668\n        /* \"#utility.yul\":16020:16024   */\n      dup2\n        /* \"#utility.yul\":15894:16025   */\n      tag_469\n      jump\t// in\n    tag_668:\n        /* \"#utility.yul\":15886:16025   */\n      swap1\n      pop\n        /* \"#utility.yul\":15613:16032   */\n      swap2\n      swap1\n      pop\n      jump\t// out\n        /* \"#utility.yul\":16038:16370   */\n    tag_279:\n        /* \"#utility.yul\":16159:16163   */\n      0x00\n        /* \"#utility.yul\":16197:16199   */\n      0x40\n        /* \"#utility.yul\":16186:16195   */\n      dup3\n        /* \"#utility.yul\":16182:16200   */\n      add\n        /* \"#utility.yul\":16174:16200   */\n      swap1\n      pop\n        /* \"#utility.yul\":16210:16281   */\n      tag_670\n        /* \"#utility.yul\":16278:16279   */\n      0x00\n        /* \"#utility.yul\":16267:16276   */\n      dup4\n        /* \"#utility.yul\":16263:16280   */\n      add\n        /* \"#utility.yul\":16254:16260   */\n      dup6\n        /* \"#utility.yul\":16210:16281   */\n      tag_427\n      jump\t// in\n    tag_670:\n        /* \"#utility.yul\":16291:16363   */\n      tag_671\n        /* \"#utility.yul\":16359:16361   */\n      0x20\n        /* \"#utility.yul\":16348:16357   */\n      dup4\n        /* \"#utility.yul\":16344:16362   */\n      add\n        /* \"#utility.yul\":16335:16341   */\n      dup5\n        /* \"#utility.yul\":16291:16363   */\n      tag_427\n      jump\t// in\n    tag_671:\n        /* \"#utility.yul\":16038:16370   */\n      swap4\n      swap3\n      pop\n      pop\n      pop\n      jump\t// out\n        /* \"#utility.yul\":16376:16538   */\n    tag_470:\n        /* \"#utility.yul\":16516:16530   */\n      0x4645455f544f4f5f484947480000000000000000000000000000000000000000\n        /* \"#utility.yul\":16512:16513   */\n      0x00\n        /* \"#utility.yul\":16504:16510   */\n      dup3\n        /* \"#utility.yul\":16500:16514   */\n      add\n        /* \"#utility.yul\":16493:16531   */\n      mstore\n        /* \"#utility.yul\":16376:16538   */\n      pop\n      jump\t// out\n        /* \"#utility.yul\":16544:16910   */\n    tag_471:\n        /* \"#utility.yul\":16686:16689   */\n      0x00\n        /* \"#utility.yul\":16707:16774   */\n      tag_674\n        /* \"#utility.yul\":16771:16773   */\n      0x0c\n        /* \"#utility.yul\":16766:16769   */\n      dup4\n        /* \"#utility.yul\":16707:16774   */\n      tag_429\n      jump\t// in\n    tag_674:\n        /* \"#utility.yul\":16700:16774   */\n      swap2\n      pop\n        /* \"#utility.yul\":16783:16876   */\n      tag_675\n        /* \"#utility.yul\":16872:16875   */\n      dup3\n        /* \"#utility.yul\":16783:16876   */\n      tag_470\n      jump\t// in\n    tag_675:\n        /* \"#utility.yul\":16901:16903   */\n      0x20\n        /* \"#utility.yul\":16896:16899   */\n      dup3\n        /* \"#utility.yul\":16892:16904   */\n      add\n        /* \"#utility.yul\":16885:16904   */\n      swap1\n      pop\n        /* \"#utility.yul\":16544:16910   */\n      swap2\n      swap1\n      pop\n      jump\t// out\n        /* \"#utility.yul\":16916:17335   */\n    tag_294:\n        /* \"#utility.yul\":17082:17086   */\n      0x00\n        /* \"#utility.yul\":17120:17122   */\n      0x20\n        /* \"#utility.yul\":17109:17118   */\n      dup3\n        /* \"#utility.yul\":17105:17123   */\n      add\n        /* \"#utility.yul\":17097:17123   */\n      swap1\n      pop\n        /* \"#utility.yul\":17169:17178   */\n      dup2\n        /* \"#utility.yul\":17163:17167   */\n      dup2\n        /* \"#utility.yul\":17159:17179   */\n      sub\n        /* \"#utility.yul\":17155:17156   */\n      0x00\n        /* \"#utility.yul\":17144:17153   */\n      dup4\n        /* \"#utility.yul\":17140:17157   */\n      add\n        /* \"#utility.yul\":17133:17180   */\n      mstore\n        /* \"#utility.yul\":17197:17328   */\n      tag_677\n        /* \"#utility.yul\":17323:17327   */\n      dup2\n        /* \"#utility.yul\":17197:17328   */\n      tag_471\n      jump\t// in\n    tag_677:\n        /* \"#utility.yul\":17189:17328   */\n      swap1\n      pop\n        /* \"#utility.yul\":16916:17335   */\n      swap2\n      swap1\n      pop\n      jump\t// out\n        /* \"#utility.yul\":17341:17673   */\n    tag_317:\n        /* \"#utility.yul\":17462:17466   */\n      0x00\n        /* \"#utility.yul\":17500:17502   */\n      0x40\n        /* \"#utility.yul\":17489:17498   */\n      dup3\n        /* \"#utility.yul\":17485:17503   */\n      add\n        /* \"#utility.yul\":17477:17503   */\n      swap1\n      pop\n        /* \"#utility.yul\":17513:17584   */\n      tag_679\n        /* \"#utility.yul\":17581:17582   */\n      0x00\n        /* \"#utility.yul\":17570:17579   */\n      dup4\n        /* \"#utility.yul\":17566:17583   */\n      add\n        /* \"#utility.yul\":17557:17563   */\n      dup6\n        /* \"#utility.yul\":17513:17584   */\n      tag_455\n      jump\t// in\n    tag_679:\n        /* \"#utility.yul\":17594:17666   */\n      tag_680\n        /* \"#utility.yul\":17662:17664   */\n      0x20\n        /* \"#utility.yul\":17651:17660   */\n      dup4\n        /* \"#utility.yul\":17647:17665   */\n      add\n        /* \"#utility.yul\":17638:17644   */\n      dup5\n        /* \"#utility.yul\":17594:17666   */\n      tag_427\n      jump\t// in\n    tag_680:\n        /* \"#utility.yul\":17341:17673   */\n      swap4\n      swap3\n      pop\n      pop\n      pop\n      jump\t// out\n        /* \"#utility.yul\":17679:17816   */\n    tag_472:\n        /* \"#utility.yul\":17733:17738   */\n      0x00\n        /* \"#utility.yul\":17764:17770   */\n      dup2\n        /* \"#utility.yul\":17758:17771   */\n      mload\n        /* \"#utility.yul\":17749:17771   */\n      swap1\n      pop\n        /* \"#utility.yul\":17780:17810   */\n      tag_682\n        /* \"#utility.yul\":17804:17809   */\n      dup2\n        /* \"#utility.yul\":17780:17810   */\n      tag_446\n      jump\t// in\n    tag_682:\n        /* \"#utility.yul\":17679:17816   */\n      swap3\n      swap2\n      pop\n      pop\n      jump\t// out\n        /* \"#utility.yul\":17822:18167   */\n    tag_321:\n        /* \"#utility.yul\":17889:17895   */\n      0x00\n        /* \"#utility.yul\":17938:17940   */\n      0x20\n        /* \"#utility.yul\":17926:17935   */\n      dup3\n        /* \"#utility.yul\":17917:17924   */\n      dup5\n        /* \"#utility.yul\":17913:17936   */\n      sub\n        /* \"#utility.yul\":17909:17941   */\n      slt\n        /* \"#utility.yul\":17906:18025   */\n      iszero\n      tag_684\n      jumpi\n        /* \"#utility.yul\":17944:18023   */\n      tag_685\n      tag_434\n      jump\t// in\n    tag_685:\n        /* \"#utility.yul\":17906:18025   */\n    tag_684:\n        /* \"#utility.yul\":18064:18065   */\n      0x00\n        /* \"#utility.yul\":18089:18150   */\n      tag_686\n        /* \"#utility.yul\":18142:18149   */\n      dup5\n        /* \"#utility.yul\":18133:18139   */\n      dup3\n        /* \"#utility.yul\":18122:18131   */\n      dup6\n        /* \"#utility.yul\":18118:18140   */\n      add\n        /* \"#utility.yul\":18089:18150   */\n      tag_472\n      jump\t// in\n    tag_686:\n        /* \"#utility.yul\":18079:18150   */\n      swap2\n      pop\n        /* \"#utility.yul\":18035:18160   */\n      pop\n        /* \"#utility.yul\":17822:18167   */\n      swap3\n      swap2\n      pop\n      pop\n      jump\t// out\n        /* \"#utility.yul\":18173:18334   */\n    tag_473:\n        /* \"#utility.yul\":18313:18326   */\n      0x5a45524f5f415353455453000000000000000000000000000000000000000000\n        /* \"#utility.yul\":18309:18310   */\n      0x00\n        /* \"#utility.yul\":18301:18307   */\n      dup3\n        /* \"#utility.yul\":18297:18311   */\n      add\n        /* \"#utility.yul\":18290:18327   */\n      mstore\n        /* \"#utility.yul\":18173:18334   */\n      pop\n      jump\t// out\n        /* \"#utility.yul\":18340:18706   */\n    tag_474:\n        /* \"#utility.yul\":18482:18485   */\n      0x00\n        /* \"#utility.yul\":18503:18570   */\n      tag_689\n        /* \"#utility.yul\":18567:18569   */\n      0x0b\n        /* \"#utility.yul\":18562:18565   */\n      dup4\n        /* \"#utility.yul\":18503:18570   */\n      tag_429\n      jump\t// in\n    tag_689:\n        /* \"#utility.yul\":18496:18570   */\n      swap2\n      pop\n        /* \"#utility.yul\":18579:18672   */\n      tag_690\n        /* \"#utility.yul\":18668:18671   */\n      dup3\n        /* \"#utility.yul\":18579:18672   */\n      tag_473\n      jump\t// in\n    tag_690:\n        /* \"#utility.yul\":18697:18699   */\n      0x20\n        /* \"#utility.yul\":18692:18695   */\n      dup3\n        /* \"#utility.yul\":18688:18700   */\n      add\n        /* \"#utility.yul\":18681:18700   */\n      swap1\n      pop\n        /* \"#utility.yul\":18340:18706   */\n      swap2\n      swap1\n      pop\n      jump\t// out\n        /* \"#utility.yul\":18712:19131   */\n    tag_346:\n        /* \"#utility.yul\":18878:18882   */\n      0x00\n        /* \"#utility.yul\":18916:18918   */\n      0x20\n        /* \"#utility.yul\":18905:18914   */\n      dup3\n        /* \"#utility.yul\":18901:18919   */\n      add\n        /* \"#utility.yul\":18893:18919   */\n      swap1\n      pop\n        /* \"#utility.yul\":18965:18974   */\n      dup2\n        /* \"#utility.yul\":18959:18963   */\n      dup2\n        /* \"#utility.yul\":18955:18975   */\n      sub\n        /* \"#utility.yul\":18951:18952   */\n      0x00\n        /* \"#utility.yul\":18940:18949   */\n      dup4\n        /* \"#utility.yul\":18936:18953   */\n      add\n        /* \"#utility.yul\":18929:18976   */\n      mstore\n        /* \"#utility.yul\":18993:19124   */\n      tag_692\n        /* \"#utility.yul\":19119:19123   */\n      dup2\n        /* \"#utility.yul\":18993:19124   */\n      tag_474\n      jump\t// in\n    tag_692:\n        /* \"#utility.yul\":18985:19124   */\n      swap1\n      pop\n        /* \"#utility.yul\":18712:19131   */\n      swap2\n      swap1\n      pop\n      jump\t// out\n        /* \"#utility.yul\":19137:19302   */\n    tag_475:\n        /* \"#utility.yul\":19277:19294   */\n      0x5441524745545f544f4f5f484947480000000000000000000000000000000000\n        /* \"#utility.yul\":19273:19274   */\n      0x00\n        /* \"#utility.yul\":19265:19271   */\n      dup3\n        /* \"#utility.yul\":19261:19275   */\n      add\n        /* \"#utility.yul\":19254:19295   */\n      mstore\n        /* \"#utility.yul\":19137:19302   */\n      pop\n      jump\t// out\n        /* \"#utility.yul\":19308:19674   */\n    tag_476:\n        /* \"#utility.yul\":19450:19453   */\n      0x00\n        /* \"#utility.yul\":19471:19538   */\n      tag_695\n        /* \"#utility.yul\":19535:19537   */\n      0x0f\n        /* \"#utility.yul\":19530:19533   */\n      dup4\n        /* \"#utility.yul\":19471:19538   */\n      tag_429\n      jump\t// in\n    tag_695:\n        /* \"#utility.yul\":19464:19538   */\n      swap2\n      pop\n        /* \"#utility.yul\":19547:19640   */\n      tag_696\n        /* \"#utility.yul\":19636:19639   */\n      dup3\n        /* \"#utility.yul\":19547:19640   */\n      tag_475\n      jump\t// in\n    tag_696:\n        /* \"#utility.yul\":19665:19667   */\n      0x20\n        /* \"#utility.yul\":19660:19663   */\n      dup3\n        /* \"#utility.yul\":19656:19668   */\n      add\n        /* \"#utility.yul\":19649:19668   */\n      swap1\n      pop\n        /* \"#utility.yul\":19308:19674   */\n      swap2\n      swap1\n      pop\n      jump\t// out\n        /* \"#utility.yul\":19680:20099   */\n    tag_358:\n        /* \"#utility.yul\":19846:19850   */\n      0x00\n        /* \"#utility.yul\":19884:19886   */\n      0x20\n        /* \"#utility.yul\":19873:19882   */\n      dup3\n        /* \"#utility.yul\":19869:19887   */\n      add\n        /* \"#utility.yul\":19861:19887   */\n      swap1\n      pop\n        /* \"#utility.yul\":19933:19942   */\n      dup2\n        /* \"#utility.yul\":19927:19931   */\n      dup2\n        /* \"#utility.yul\":19923:19943   */\n      sub\n        /* \"#utility.yul\":19919:19920   */\n      0x00\n        /* \"#utility.yul\":19908:19917   */\n      dup4\n        /* \"#utility.yul\":19904:19921   */\n      add\n        /* \"#utility.yul\":19897:19944   */\n      mstore\n        /* \"#utility.yul\":19961:20092   */\n      tag_698\n        /* \"#utility.yul\":20087:20091   */\n      dup2\n        /* \"#utility.yul\":19961:20092   */\n      tag_476\n      jump\t// in\n    tag_698:\n        /* \"#utility.yul\":19953:20092   */\n      swap1\n      pop\n        /* \"#utility.yul\":19680:20099   */\n      swap2\n      swap1\n      pop\n      jump\t// out\n        /* \"#utility.yul\":20105:20278   */\n    tag_477:\n        /* \"#utility.yul\":20245:20270   */\n      0x5045524d49545f444541444c494e455f45585049524544000000000000000000\n        /* \"#utility.yul\":20241:20242   */\n      0x00\n        /* \"#utility.yul\":20233:20239   */\n      dup3\n        /* \"#utility.yul\":20229:20243   */\n      add\n        /* \"#utility.yul\":20222:20271   */\n      mstore\n        /* \"#utility.yul\":20105:20278   */\n      pop\n      jump\t// out\n        /* \"#utility.yul\":20284:20650   */\n    tag_478:\n        /* \"#utility.yul\":20426:20429   */\n      0x00\n        /* \"#utility.yul\":20447:20514   */\n      tag_701\n        /* \"#utility.yul\":20511:20513   */\n      0x17\n        /* \"#utility.yul\":20506:20509   */\n      dup4\n        /* \"#utility.yul\":20447:20514   */\n      tag_429\n      jump\t// in\n    tag_701:\n        /* \"#utility.yul\":20440:20514   */\n      swap2\n      pop\n        /* \"#utility.yul\":20523:20616   */\n      tag_702\n        /* \"#utility.yul\":20612:20615   */\n      dup3\n        /* \"#utility.yul\":20523:20616   */\n      tag_477\n      jump\t// in\n    tag_702:\n        /* \"#utility.yul\":20641:20643   */\n      0x20\n        /* \"#utility.yul\":20636:20639   */\n      dup3\n        /* \"#utility.yul\":20632:20644   */\n      add\n        /* \"#utility.yul\":20625:20644   */\n      swap1\n      pop\n        /* \"#utility.yul\":20284:20650   */\n      swap2\n      swap1\n      pop\n      jump\t// out\n        /* \"#utility.yul\":20656:21075   */\n    tag_371:\n        /* \"#utility.yul\":20822:20826   */\n      0x00\n        /* \"#utility.yul\":20860:20862   */\n      0x20\n        /* \"#utility.yul\":20849:20858   */\n      dup3\n        /* \"#utility.yul\":20845:20863   */\n      add\n        /* \"#utility.yul\":20837:20863   */\n      swap1\n      pop\n        /* \"#utility.yul\":20909:20918   */\n      dup2\n        /* \"#utility.yul\":20903:20907   */\n      dup2\n        /* \"#utility.yul\":20899:20919   */\n      sub\n        /* \"#utility.yul\":20895:20896   */\n      0x00\n        /* \"#utility.yul\":20884:20893   */\n      dup4\n        /* \"#utility.yul\":20880:20897   */\n      add\n        /* \"#utility.yul\":20873:20920   */\n      mstore\n        /* \"#utility.yul\":20937:21068   */\n      tag_704\n        /* \"#utility.yul\":21063:21067   */\n      dup2\n        /* \"#utility.yul\":20937:21068   */\n      tag_478\n      jump\t// in\n    tag_704:\n        /* \"#utility.yul\":20929:21068   */\n      swap1\n      pop\n        /* \"#utility.yul\":20656:21075   */\n      swap2\n      swap1\n      pop\n      jump\t// out\n        /* \"#utility.yul\":21081:21856   */\n    tag_374:\n        /* \"#utility.yul\":21314:21318   */\n      0x00\n        /* \"#utility.yul\":21352:21355   */\n      0xc0\n        /* \"#utility.yul\":21341:21350   */\n      dup3\n        /* \"#utility.yul\":21337:21356   */\n      add\n        /* \"#utility.yul\":21329:21356   */\n      swap1\n      pop\n        /* \"#utility.yul\":21366:21437   */\n      tag_706\n        /* \"#utility.yul\":21434:21435   */\n      0x00\n        /* \"#utility.yul\":21423:21432   */\n      dup4\n        /* \"#utility.yul\":21419:21436   */\n      add\n        /* \"#utility.yul\":21410:21416   */\n      dup10\n        /* \"#utility.yul\":21366:21437   */\n      tag_449\n      jump\t// in\n    tag_706:\n        /* \"#utility.yul\":21447:21519   */\n      tag_707\n        /* \"#utility.yul\":21515:21517   */\n      0x20\n        /* \"#utility.yul\":21504:21513   */\n      dup4\n        /* \"#utility.yul\":21500:21518   */\n      add\n        /* \"#utility.yul\":21491:21497   */\n      dup9\n        /* \"#utility.yul\":21447:21519   */\n      tag_455\n      jump\t// in\n    tag_707:\n        /* \"#utility.yul\":21529:21601   */\n      tag_708\n        /* \"#utility.yul\":21597:21599   */\n      0x40\n        /* \"#utility.yul\":21586:21595   */\n      dup4\n        /* \"#utility.yul\":21582:21600   */\n      add\n        /* \"#utility.yul\":21573:21579   */\n      dup8\n        /* \"#utility.yul\":21529:21601   */\n      tag_455\n      jump\t// in\n    tag_708:\n        /* \"#utility.yul\":21611:21683   */\n      tag_709\n        /* \"#utility.yul\":21679:21681   */\n      0x60\n        /* \"#utility.yul\":21668:21677   */\n      dup4\n        /* \"#utility.yul\":21664:21682   */\n      add\n        /* \"#utility.yul\":21655:21661   */\n      dup7\n        /* \"#utility.yul\":21611:21683   */\n      tag_427\n      jump\t// in\n    tag_709:\n        /* \"#utility.yul\":21693:21766   */\n      tag_710\n        /* \"#utility.yul\":21761:21764   */\n      0x80\n        /* \"#utility.yul\":21750:21759   */\n      dup4\n        /* \"#utility.yul\":21746:21765   */\n      add\n        /* \"#utility.yul\":21737:21743   */\n      dup6\n        /* \"#utility.yul\":21693:21766   */\n      tag_427\n      jump\t// in\n    tag_710:\n        /* \"#utility.yul\":21776:21849   */\n      tag_711\n        /* \"#utility.yul\":21844:21847   */\n      0xa0\n        /* \"#utility.yul\":21833:21842   */\n      dup4\n        /* \"#utility.yul\":21829:21848   */\n      add\n        /* \"#utility.yul\":21820:21826   */\n      dup5\n        /* \"#utility.yul\":21776:21849   */\n      tag_427\n      jump\t// in\n    tag_711:\n        /* \"#utility.yul\":21081:21856   */\n      swap8\n      swap7\n      pop\n      pop\n      pop\n      pop\n      pop\n      pop\n      pop\n      jump\t// out\n        /* \"#utility.yul\":21862:22010   */\n    tag_479:\n        /* \"#utility.yul\":21964:21975   */\n      0x00\n        /* \"#utility.yul\":22001:22004   */\n      dup2\n        /* \"#utility.yul\":21986:22004   */\n      swap1\n      pop\n        /* \"#utility.yul\":21862:22010   */\n      swap3\n      swap2\n      pop\n      pop\n      jump\t// out\n        /* \"#utility.yul\":22016:22230   */\n    tag_480:\n        /* \"#utility.yul\":22156:22222   */\n      0x1901000000000000000000000000000000000000000000000000000000000000\n        /* \"#utility.yul\":22152:22153   */\n      0x00\n        /* \"#utility.yul\":22144:22150   */\n      dup3\n        /* \"#utility.yul\":22140:22154   */\n      add\n        /* \"#utility.yul\":22133:22223   */\n      mstore\n        /* \"#utility.yul\":22016:22230   */\n      pop\n      jump\t// out\n        /* \"#utility.yul\":22236:22636   */\n    tag_481:\n        /* \"#utility.yul\":22396:22399   */\n      0x00\n        /* \"#utility.yul\":22417:22501   */\n      tag_715\n        /* \"#utility.yul\":22499:22500   */\n      0x02\n        /* \"#utility.yul\":22494:22497   */\n      dup4\n        /* \"#utility.yul\":22417:22501   */\n      tag_479\n      jump\t// in\n    tag_715:\n        /* \"#utility.yul\":22410:22501   */\n      swap2\n      pop\n        /* \"#utility.yul\":22510:22603   */\n      tag_716\n        /* \"#utility.yul\":22599:22602   */\n      dup3\n        /* \"#utility.yul\":22510:22603   */\n      tag_480\n      jump\t// in\n    tag_716:\n        /* \"#utility.yul\":22628:22629   */\n      0x02\n        /* \"#utility.yul\":22623:22626   */\n      dup3\n        /* \"#utility.yul\":22619:22630   */\n      add\n        /* \"#utility.yul\":22612:22630   */\n      swap1\n      pop\n        /* \"#utility.yul\":22236:22636   */\n      swap2\n      swap1\n      pop\n      jump\t// out\n        /* \"#utility.yul\":22642:22721   */\n    tag_482:\n        /* \"#utility.yul\":22681:22688   */\n      0x00\n        /* \"#utility.yul\":22710:22715   */\n      dup2\n        /* \"#utility.yul\":22699:22715   */\n      swap1\n      pop\n        /* \"#utility.yul\":22642:22721   */\n      swap2\n      swap1\n      pop\n      jump\t// out\n        /* \"#utility.yul\":22727:22884   */\n    tag_483:\n        /* \"#utility.yul\":22832:22877   */\n      tag_719\n        /* \"#utility.yul\":22852:22876   */\n      tag_720\n        /* \"#utility.yul\":22870:22875   */\n      dup3\n        /* \"#utility.yul\":22852:22876   */\n      tag_448\n      jump\t// in\n    tag_720:\n        /* \"#utility.yul\":22832:22877   */\n      tag_482\n      jump\t// in\n    tag_719:\n        /* \"#utility.yul\":22827:22830   */\n      dup3\n        /* \"#utility.yul\":22820:22878   */\n      mstore\n        /* \"#utility.yul\":22727:22884   */\n      pop\n      pop\n      jump\t// out\n        /* \"#utility.yul\":22890:23553   */\n    tag_376:\n        /* \"#utility.yul\":23131:23134   */\n      0x00\n        /* \"#utility.yul\":23153:23301   */\n      tag_722\n        /* \"#utility.yul\":23297:23300   */\n      dup3\n        /* \"#utility.yul\":23153:23301   */\n      tag_481\n      jump\t// in\n    tag_722:\n        /* \"#utility.yul\":23146:23301   */\n      swap2\n      pop\n        /* \"#utility.yul\":23311:23386   */\n      tag_723\n        /* \"#utility.yul\":23382:23385   */\n      dup3\n        /* \"#utility.yul\":23373:23379   */\n      dup6\n        /* \"#utility.yul\":23311:23386   */\n      tag_483\n      jump\t// in\n    tag_723:\n        /* \"#utility.yul\":23411:23413   */\n      0x20\n        /* \"#utility.yul\":23406:23409   */\n      dup3\n        /* \"#utility.yul\":23402:23414   */\n      add\n        /* \"#utility.yul\":23395:23414   */\n      swap2\n      pop\n        /* \"#utility.yul\":23424:23499   */\n      tag_724\n        /* \"#utility.yul\":23495:23498   */\n      dup3\n        /* \"#utility.yul\":23486:23492   */\n      dup5\n        /* \"#utility.yul\":23424:23499   */\n      tag_483\n      jump\t// in\n    tag_724:\n        /* \"#utility.yul\":23524:23526   */\n      0x20\n        /* \"#utility.yul\":23519:23522   */\n      dup3\n        /* \"#utility.yul\":23515:23527   */\n      add\n        /* \"#utility.yul\":23508:23527   */\n      swap2\n      pop\n        /* \"#utility.yul\":23544:23547   */\n      dup2\n        /* \"#utility.yul\":23537:23547   */\n      swap1\n      pop\n        /* \"#utility.yul\":22890:23553   */\n      swap4\n      swap3\n      pop\n      pop\n      pop\n      jump\t// out\n        /* \"#utility.yul\":23559:24104   */\n    tag_378:\n        /* \"#utility.yul\":23732:23736   */\n      0x00\n        /* \"#utility.yul\":23770:23773   */\n      0x80\n        /* \"#utility.yul\":23759:23768   */\n      dup3\n        /* \"#utility.yul\":23755:23774   */\n      add\n        /* \"#utility.yul\":23747:23774   */\n      swap1\n      pop\n        /* \"#utility.yul\":23784:23855   */\n      tag_726\n        /* \"#utility.yul\":23852:23853   */\n      0x00\n        /* \"#utility.yul\":23841:23850   */\n      dup4\n        /* \"#utility.yul\":23837:23854   */\n      add\n        /* \"#utility.yul\":23828:23834   */\n      dup8\n        /* \"#utility.yul\":23784:23855   */\n      tag_449\n      jump\t// in\n    tag_726:\n        /* \"#utility.yul\":23865:23933   */\n      tag_727\n        /* \"#utility.yul\":23929:23931   */\n      0x20\n        /* \"#utility.yul\":23918:23927   */\n      dup4\n        /* \"#utility.yul\":23914:23932   */\n      add\n        /* \"#utility.yul\":23905:23911   */\n      dup7\n        /* \"#utility.yul\":23865:23933   */\n      tag_445\n      jump\t// in\n    tag_727:\n        /* \"#utility.yul\":23943:24015   */\n      tag_728\n        /* \"#utility.yul\":24011:24013   */\n      0x40\n        /* \"#utility.yul\":24000:24009   */\n      dup4\n        /* \"#utility.yul\":23996:24014   */\n      add\n        /* \"#utility.yul\":23987:23993   */\n      dup6\n        /* \"#utility.yul\":23943:24015   */\n      tag_449\n      jump\t// in\n    tag_728:\n        /* \"#utility.yul\":24025:24097   */\n      tag_729\n        /* \"#utility.yul\":24093:24095   */\n      0x60\n        /* \"#utility.yul\":24082:24091   */\n      dup4\n        /* \"#utility.yul\":24078:24096   */\n      add\n        /* \"#utility.yul\":24069:24075   */\n      dup5\n        /* \"#utility.yul\":24025:24097   */\n      tag_449\n      jump\t// in\n    tag_729:\n        /* \"#utility.yul\":23559:24104   */\n      swap6\n      swap5\n      pop\n      pop\n      pop\n      pop\n      pop\n      jump\t// out\n        /* \"#utility.yul\":24110:24274   */\n    tag_484:\n        /* \"#utility.yul\":24250:24266   */\n      0x494e56414c49445f5349474e4552000000000000000000000000000000000000\n        /* \"#utility.yul\":24246:24247   */\n      0x00\n        /* \"#utility.yul\":24238:24244   */\n      dup3\n        /* \"#utility.yul\":24234:24248   */\n      add\n        /* \"#utility.yul\":24227:24267   */\n      mstore\n        /* \"#utility.yul\":24110:24274   */\n      pop\n      jump\t// out\n        /* \"#utility.yul\":24280:24646   */\n    tag_485:\n        /* \"#utility.yul\":24422:24425   */\n      0x00\n        /* \"#utility.yul\":24443:24510   */\n      tag_732\n        /* \"#utility.yul\":24507:24509   */\n      0x0e\n        /* \"#utility.yul\":24502:24505   */\n      dup4\n        /* \"#utility.yul\":24443:24510   */\n      tag_429\n      jump\t// in\n    tag_732:\n        /* \"#utility.yul\":24436:24510   */\n      swap2\n      pop\n        /* \"#utility.yul\":24519:24612   */\n      tag_733\n        /* \"#utility.yul\":24608:24611   */\n      dup3\n        /* \"#utility.yul\":24519:24612   */\n      tag_484\n      jump\t// in\n    tag_733:\n        /* \"#utility.yul\":24637:24639   */\n      0x20\n        /* \"#utility.yul\":24632:24635   */\n      dup3\n        /* \"#utility.yul\":24628:24640   */\n      add\n        /* \"#utility.yul\":24621:24640   */\n      swap1\n      pop\n        /* \"#utility.yul\":24280:24646   */\n      swap2\n      swap1\n      pop\n      jump\t// out\n        /* \"#utility.yul\":24652:25071   */\n    tag_384:\n        /* \"#utility.yul\":24818:24822   */\n      0x00\n        /* \"#utility.yul\":24856:24858   */\n      0x20\n        /* \"#utility.yul\":24845:24854   */\n      dup3\n        /* \"#utility.yul\":24841:24859   */\n      add\n        /* \"#utility.yul\":24833:24859   */\n      swap1\n      pop\n        /* \"#utility.yul\":24905:24914   */\n      dup2\n        /* \"#utility.yul\":24899:24903   */\n      dup2\n        /* \"#utility.yul\":24895:24915   */\n      sub\n        /* \"#utility.yul\":24891:24892   */\n      0x00\n        /* \"#utility.yul\":24880:24889   */\n      dup4\n        /* \"#utility.yul\":24876:24893   */\n      add\n        /* \"#utility.yul\":24869:24916   */\n      mstore\n        /* \"#utility.yul\":24933:25064   */\n      tag_735\n        /* \"#utility.yul\":25059:25063   */\n      dup2\n        /* \"#utility.yul\":24933:25064   */\n      tag_485\n      jump\t// in\n    tag_735:\n        /* \"#utility.yul\":24925:25064   */\n      swap1\n      pop\n        /* \"#utility.yul\":24652:25071   */\n      swap2\n      swap1\n      pop\n      jump\t// out\n        /* \"#utility.yul\":25077:25304   */\n    tag_486:\n        /* \"#utility.yul\":25217:25251   */\n      0x4f776e61626c653a206e6577206d616e6167657220697320746865207a65726f\n        /* \"#utility.yul\":25213:25214   */\n      0x00\n        /* \"#utility.yul\":25205:25211   */\n      dup3\n        /* \"#utility.yul\":25201:25215   */\n      add\n        /* \"#utility.yul\":25194:25252   */\n      mstore\n        /* \"#utility.yul\":25286:25296   */\n      0x2061646472657373000000000000000000000000000000000000000000000000\n        /* \"#utility.yul\":25281:25283   */\n      0x20\n        /* \"#utility.yul\":25273:25279   */\n      dup3\n        /* \"#utility.yul\":25269:25284   */\n      add\n        /* \"#utility.yul\":25262:25297   */\n      mstore\n        /* \"#utility.yul\":25077:25304   */\n      pop\n      jump\t// out\n        /* \"#utility.yul\":25310:25676   */\n    tag_487:\n        /* \"#utility.yul\":25452:25455   */\n      0x00\n        /* \"#utility.yul\":25473:25540   */\n      tag_738\n        /* \"#utility.yul\":25537:25539   */\n      0x28\n        /* \"#utility.yul\":25532:25535   */\n      dup4\n        /* \"#utility.yul\":25473:25540   */\n      tag_429\n      jump\t// in\n    tag_738:\n        /* \"#utility.yul\":25466:25540   */\n      swap2\n      pop\n        /* \"#utility.yul\":25549:25642   */\n      tag_739\n        /* \"#utility.yul\":25638:25641   */\n      dup3\n        /* \"#utility.yul\":25549:25642   */\n      tag_486\n      jump\t// in\n    tag_739:\n        /* \"#utility.yul\":25667:25669   */\n      0x40\n        /* \"#utility.yul\":25662:25665   */\n      dup3\n        /* \"#utility.yul\":25658:25670   */\n      add\n        /* \"#utility.yul\":25651:25670   */\n      swap1\n      pop\n        /* \"#utility.yul\":25310:25676   */\n      swap2\n      swap1\n      pop\n      jump\t// out\n        /* \"#utility.yul\":25682:26101   */\n    tag_396:\n        /* \"#utility.yul\":25848:25852   */\n      0x00\n        /* \"#utility.yul\":25886:25888   */\n      0x20\n        /* \"#utility.yul\":25875:25884   */\n      dup3\n        /* \"#utility.yul\":25871:25889   */\n      add\n        /* \"#utility.yul\":25863:25889   */\n      swap1\n      pop\n        /* \"#utility.yul\":25935:25944   */\n      dup2\n        /* \"#utility.yul\":25929:25933   */\n      dup2\n        /* \"#utility.yul\":25925:25945   */\n      sub\n        /* \"#utility.yul\":25921:25922   */\n      0x00\n        /* \"#utility.yul\":25910:25919   */\n      dup4\n        /* \"#utility.yul\":25906:25923   */\n      add\n        /* \"#utility.yul\":25899:25946   */\n      mstore\n        /* \"#utility.yul\":25963:26094   */\n      tag_741\n        /* \"#utility.yul\":26089:26093   */\n      dup2\n        /* \"#utility.yul\":25963:26094   */\n      tag_487\n      jump\t// in\n    tag_741:\n        /* \"#utility.yul\":25955:26094   */\n      swap1\n      pop\n        /* \"#utility.yul\":25682:26101   */\n      swap2\n      swap1\n      pop\n      jump\t// out\n        /* \"#utility.yul\":26107:26254   */\n    tag_488:\n        /* \"#utility.yul\":26208:26219   */\n      0x00\n        /* \"#utility.yul\":26245:26248   */\n      dup2\n        /* \"#utility.yul\":26230:26248   */\n      swap1\n      pop\n        /* \"#utility.yul\":26107:26254   */\n      swap3\n      swap2\n      pop\n      pop\n      jump\t// out\n        /* \"#utility.yul\":26260:26404   */\n    tag_489:\n        /* \"#utility.yul\":26312:26316   */\n      0x00\n        /* \"#utility.yul\":26335:26338   */\n      dup2\n        /* \"#utility.yul\":26327:26338   */\n      swap1\n      pop\n        /* \"#utility.yul\":26358:26361   */\n      dup2\n        /* \"#utility.yul\":26355:26356   */\n      0x00\n        /* \"#utility.yul\":26348:26362   */\n      mstore\n        /* \"#utility.yul\":26392:26396   */\n      0x20\n        /* \"#utility.yul\":26389:26390   */\n      0x00\n        /* \"#utility.yul\":26379:26397   */\n      keccak256\n        /* \"#utility.yul\":26371:26397   */\n      swap1\n      pop\n        /* \"#utility.yul\":26260:26404   */\n      swap2\n      swap1\n      pop\n      jump\t// out\n        /* \"#utility.yul\":26432:27281   */\n    tag_490:\n        /* \"#utility.yul\":26537:26540   */\n      0x00\n        /* \"#utility.yul\":26574:26579   */\n      dup2\n        /* \"#utility.yul\":26568:26580   */\n      sload\n        /* \"#utility.yul\":26603:26639   */\n      tag_745\n        /* \"#utility.yul\":26629:26638   */\n      dup2\n        /* \"#utility.yul\":26603:26639   */\n      tag_220\n      jump\t// in\n    tag_745:\n        /* \"#utility.yul\":26655:26743   */\n      tag_746\n        /* \"#utility.yul\":26736:26742   */\n      dup2\n        /* \"#utility.yul\":26731:26734   */\n      dup7\n        /* \"#utility.yul\":26655:26743   */\n      tag_488\n      jump\t// in\n    tag_746:\n        /* \"#utility.yul\":26648:26743   */\n      swap5\n      pop\n        /* \"#utility.yul\":26774:26775   */\n      0x01\n        /* \"#utility.yul\":26763:26772   */\n      dup3\n        /* \"#utility.yul\":26759:26776   */\n      and\n        /* \"#utility.yul\":26790:26791   */\n      0x00\n        /* \"#utility.yul\":26785:26922   */\n      dup2\n      eq\n      tag_748\n      jumpi\n        /* \"#utility.yul\":26936:26937   */\n      0x01\n        /* \"#utility.yul\":26931:27275   */\n      dup2\n      eq\n      tag_749\n      jumpi\n        /* \"#utility.yul\":26752:27275   */\n      jump(tag_747)\n        /* \"#utility.yul\":26785:26922   */\n    tag_748:\n        /* \"#utility.yul\":26869:26873   */\n      0xff\n        /* \"#utility.yul\":26865:26874   */\n      not\n        /* \"#utility.yul\":26854:26863   */\n      dup4\n        /* \"#utility.yul\":26850:26875   */\n      and\n        /* \"#utility.yul\":26845:26848   */\n      dup7\n        /* \"#utility.yul\":26838:26876   */\n      mstore\n        /* \"#utility.yul\":26905:26911   */\n      dup2\n        /* \"#utility.yul\":26900:26903   */\n      dup7\n        /* \"#utility.yul\":26896:26912   */\n      add\n        /* \"#utility.yul\":26889:26912   */\n      swap4\n      pop\n        /* \"#utility.yul\":26785:26922   */\n      jump(tag_747)\n        /* \"#utility.yul\":26931:27275   */\n    tag_749:\n        /* \"#utility.yul\":26998:27039   */\n      tag_750\n        /* \"#utility.yul\":27033:27038   */\n      dup6\n        /* \"#utility.yul\":26998:27039   */\n      tag_489\n      jump\t// in\n    tag_750:\n        /* \"#utility.yul\":27061:27062   */\n      0x00\n        /* \"#utility.yul\":27075:27229   */\n    tag_751:\n        /* \"#utility.yul\":27089:27095   */\n      dup4\n        /* \"#utility.yul\":27086:27087   */\n      dup2\n        /* \"#utility.yul\":27083:27096   */\n      lt\n        /* \"#utility.yul\":27075:27229   */\n      iszero\n      tag_753\n      jumpi\n        /* \"#utility.yul\":27163:27170   */\n      dup2\n        /* \"#utility.yul\":27157:27171   */\n      sload\n        /* \"#utility.yul\":27153:27154   */\n      dup2\n        /* \"#utility.yul\":27148:27151   */\n      dup10\n        /* \"#utility.yul\":27144:27155   */\n      add\n        /* \"#utility.yul\":27137:27172   */\n      mstore\n        /* \"#utility.yul\":27213:27214   */\n      0x01\n        /* \"#utility.yul\":27204:27211   */\n      dup3\n        /* \"#utility.yul\":27200:27215   */\n      add\n        /* \"#utility.yul\":27189:27215   */\n      swap2\n      pop\n        /* \"#utility.yul\":27111:27115   */\n      0x20\n        /* \"#utility.yul\":27108:27109   */\n      dup2\n        /* \"#utility.yul\":27104:27116   */\n      add\n        /* \"#utility.yul\":27099:27116   */\n      swap1\n      pop\n        /* \"#utility.yul\":27075:27229   */\n      jump(tag_751)\n    tag_753:\n        /* \"#utility.yul\":27258:27264   */\n      dup4\n        /* \"#utility.yul\":27253:27256   */\n      dup9\n        /* \"#utility.yul\":27249:27265   */\n      add\n        /* \"#utility.yul\":27242:27265   */\n      swap6\n      pop\n        /* \"#utility.yul\":26938:27275   */\n      pop\n      pop\n        /* \"#utility.yul\":26752:27275   */\n    tag_747:\n      pop\n        /* \"#utility.yul\":26541:27281   */\n      pop\n      pop\n        /* \"#utility.yul\":26432:27281   */\n      swap3\n      swap2\n      pop\n      pop\n      jump\t// out\n        /* \"#utility.yul\":27287:27560   */\n    tag_403:\n        /* \"#utility.yul\":27418:27421   */\n      0x00\n        /* \"#utility.yul\":27440:27534   */\n      tag_755\n        /* \"#utility.yul\":27530:27533   */\n      dup3\n        /* \"#utility.yul\":27521:27527   */\n      dup5\n        /* \"#utility.yul\":27440:27534   */\n      tag_490\n      jump\t// in\n    tag_755:\n        /* \"#utility.yul\":27433:27534   */\n      swap2\n      pop\n        /* \"#utility.yul\":27551:27554   */\n      dup2\n        /* \"#utility.yul\":27544:27554   */\n      swap1\n      pop\n        /* \"#utility.yul\":27287:27560   */\n      swap3\n      swap2\n      pop\n      pop\n      jump\t// out\n        /* \"#utility.yul\":27566:28230   */\n    tag_405:\n        /* \"#utility.yul\":27771:27775   */\n      0x00\n        /* \"#utility.yul\":27809:27812   */\n      0xa0\n        /* \"#utility.yul\":27798:27807   */\n      dup3\n        /* \"#utility.yul\":27794:27813   */\n      add\n        /* \"#utility.yul\":27786:27813   */\n      swap1\n      pop\n        /* \"#utility.yul\":27823:27894   */\n      tag_757\n        /* \"#utility.yul\":27891:27892   */\n      0x00\n        /* \"#utility.yul\":27880:27889   */\n      dup4\n        /* \"#utility.yul\":27876:27893   */\n      add\n        /* \"#utility.yul\":27867:27873   */\n      dup9\n        /* \"#utility.yul\":27823:27894   */\n      tag_449\n      jump\t// in\n    tag_757:\n        /* \"#utility.yul\":27904:27976   */\n      tag_758\n        /* \"#utility.yul\":27972:27974   */\n      0x20\n        /* \"#utility.yul\":27961:27970   */\n      dup4\n        /* \"#utility.yul\":27957:27975   */\n      add\n        /* \"#utility.yul\":27948:27954   */\n      dup8\n        /* \"#utility.yul\":27904:27976   */\n      tag_449\n      jump\t// in\n    tag_758:\n        /* \"#utility.yul\":27986:28058   */\n      tag_759\n        /* \"#utility.yul\":28054:28056   */\n      0x40\n        /* \"#utility.yul\":28043:28052   */\n      dup4\n        /* \"#utility.yul\":28039:28057   */\n      add\n        /* \"#utility.yul\":28030:28036   */\n      dup7\n        /* \"#utility.yul\":27986:28058   */\n      tag_449\n      jump\t// in\n    tag_759:\n        /* \"#utility.yul\":28068:28140   */\n      tag_760\n        /* \"#utility.yul\":28136:28138   */\n      0x60\n        /* \"#utility.yul\":28125:28134   */\n      dup4\n        /* \"#utility.yul\":28121:28139   */\n      add\n        /* \"#utility.yul\":28112:28118   */\n      dup6\n        /* \"#utility.yul\":28068:28140   */\n      tag_427\n      jump\t// in\n    tag_760:\n        /* \"#utility.yul\":28150:28223   */\n      tag_761\n        /* \"#utility.yul\":28218:28221   */\n      0x80\n        /* \"#utility.yul\":28207:28216   */\n      dup4\n        /* \"#utility.yul\":28203:28222   */\n      add\n        /* \"#utility.yul\":28194:28200   */\n      dup5\n        /* \"#utility.yul\":28150:28223   */\n      tag_455\n      jump\t// in\n    tag_761:\n        /* \"#utility.yul\":27566:28230   */\n      swap7\n      swap6\n      pop\n      pop\n      pop\n      pop\n      pop\n      pop\n      jump\t// out\n        /* \"#utility.yul\":28236:28406   */\n    tag_491:\n        /* \"#utility.yul\":28376:28398   */\n      0x5452414e534645525f46524f4d5f4641494c4544000000000000000000000000\n        /* \"#utility.yul\":28372:28373   */\n      0x00\n        /* \"#utility.yul\":28364:28370   */\n      dup3\n        /* \"#utility.yul\":28360:28374   */\n      add\n        /* \"#utility.yul\":28353:28399   */\n      mstore\n        /* \"#utility.yul\":28236:28406   */\n      pop\n      jump\t// out\n        /* \"#utility.yul\":28412:28778   */\n    tag_492:\n        /* \"#utility.yul\":28554:28557   */\n      0x00\n        /* \"#utility.yul\":28575:28642   */\n      tag_764\n        /* \"#utility.yul\":28639:28641   */\n      0x14\n        /* \"#utility.yul\":28634:28637   */\n      dup4\n        /* \"#utility.yul\":28575:28642   */\n      tag_429\n      jump\t// in\n    tag_764:\n        /* \"#utility.yul\":28568:28642   */\n      swap2\n      pop\n        /* \"#utility.yul\":28651:28744   */\n      tag_765\n        /* \"#utility.yul\":28740:28743   */\n      dup3\n        /* \"#utility.yul\":28651:28744   */\n      tag_491\n      jump\t// in\n    tag_765:\n        /* \"#utility.yul\":28769:28771   */\n      0x20\n        /* \"#utility.yul\":28764:28767   */\n      dup3\n        /* \"#utility.yul\":28760:28772   */\n      add\n        /* \"#utility.yul\":28753:28772   */\n      swap1\n      pop\n        /* \"#utility.yul\":28412:28778   */\n      swap2\n      swap1\n      pop\n      jump\t// out\n        /* \"#utility.yul\":28784:29203   */\n    tag_409:\n        /* \"#utility.yul\":28950:28954   */\n      0x00\n        /* \"#utility.yul\":28988:28990   */\n      0x20\n        /* \"#utility.yul\":28977:28986   */\n      dup3\n        /* \"#utility.yul\":28973:28991   */\n      add\n        /* \"#utility.yul\":28965:28991   */\n      swap1\n      pop\n        /* \"#utility.yul\":29037:29046   */\n      dup2\n        /* \"#utility.yul\":29031:29035   */\n      dup2\n        /* \"#utility.yul\":29027:29047   */\n      sub\n        /* \"#utility.yul\":29023:29024   */\n      0x00\n        /* \"#utility.yul\":29012:29021   */\n      dup4\n        /* \"#utility.yul\":29008:29025   */\n      add\n        /* \"#utility.yul\":29001:29048   */\n      mstore\n        /* \"#utility.yul\":29065:29196   */\n      tag_767\n        /* \"#utility.yul\":29191:29195   */\n      dup2\n        /* \"#utility.yul\":29065:29196   */\n      tag_492\n      jump\t// in\n    tag_767:\n        /* \"#utility.yul\":29057:29196   */\n      swap1\n      pop\n        /* \"#utility.yul\":28784:29203   */\n      swap2\n      swap1\n      pop\n      jump\t// out\n        /* \"#utility.yul\":29209:29514   */\n    tag_412:\n        /* \"#utility.yul\":29249:29252   */\n      0x00\n        /* \"#utility.yul\":29268:29288   */\n      tag_769\n        /* \"#utility.yul\":29286:29287   */\n      dup3\n        /* \"#utility.yul\":29268:29288   */\n      tag_426\n      jump\t// in\n    tag_769:\n        /* \"#utility.yul\":29263:29288   */\n      swap2\n      pop\n        /* \"#utility.yul\":29302:29322   */\n      tag_770\n        /* \"#utility.yul\":29320:29321   */\n      dup4\n        /* \"#utility.yul\":29302:29322   */\n      tag_426\n      jump\t// in\n    tag_770:\n        /* \"#utility.yul\":29297:29322   */\n      swap3\n      pop\n        /* \"#utility.yul\":29456:29457   */\n      dup3\n        /* \"#utility.yul\":29388:29454   */\n      0xffffffffffffffffffffffffffffffffffffffffffffffffffffffffffffffff\n        /* \"#utility.yul\":29384:29458   */\n      sub\n        /* \"#utility.yul\":29381:29382   */\n      dup3\n        /* \"#utility.yul\":29378:29459   */\n      gt\n        /* \"#utility.yul\":29375:29482   */\n      iszero\n      tag_771\n      jumpi\n        /* \"#utility.yul\":29462:29480   */\n      tag_772\n      tag_462\n      jump\t// in\n    tag_772:\n        /* \"#utility.yul\":29375:29482   */\n    tag_771:\n        /* \"#utility.yul\":29506:29507   */\n      dup3\n        /* \"#utility.yul\":29503:29504   */\n      dup3\n        /* \"#utility.yul\":29499:29508   */\n      add\n        /* \"#utility.yul\":29492:29508   */\n      swap1\n      pop\n        /* \"#utility.yul\":29209:29514   */\n      swap3\n      swap2\n      pop\n      pop\n      jump\t// out\n        /* \"#utility.yul\":29520:29753   */\n    tag_416:\n        /* \"#utility.yul\":29559:29562   */\n      0x00\n        /* \"#utility.yul\":29582:29606   */\n      tag_774\n        /* \"#utility.yul\":29600:29605   */\n      dup3\n        /* \"#utility.yul\":29582:29606   */\n      tag_426\n      jump\t// in\n    tag_774:\n        /* \"#utility.yul\":29573:29606   */\n      swap2\n      pop\n        /* \"#utility.yul\":29628:29694   */\n      0xffffffffffffffffffffffffffffffffffffffffffffffffffffffffffffffff\n        /* \"#utility.yul\":29621:29626   */\n      dup3\n        /* \"#utility.yul\":29618:29695   */\n      eq\n        /* \"#utility.yul\":29615:29718   */\n      iszero\n      tag_775\n      jumpi\n        /* \"#utility.yul\":29698:29716   */\n      tag_776\n      tag_462\n      jump\t// in\n    tag_776:\n        /* \"#utility.yul\":29615:29718   */\n    tag_775:\n        /* \"#utility.yul\":29745:29746   */\n      0x01\n        /* \"#utility.yul\":29738:29743   */\n      dup3\n        /* \"#utility.yul\":29734:29747   */\n      add\n        /* \"#utility.yul\":29727:29747   */\n      swap1\n      pop\n        /* \"#utility.yul\":29520:29753   */\n      swap2\n      swap1\n      pop\n      jump\t// out\n        /* \"#utility.yul\":29759:29924   */\n    tag_493:\n        /* \"#utility.yul\":29899:29916   */\n      0x5452414e534645525f4641494c45440000000000000000000000000000000000\n        /* \"#utility.yul\":29895:29896   */\n      0x00\n        /* \"#utility.yul\":29887:29893   */\n      dup3\n        /* \"#utility.yul\":29883:29897   */\n      add\n        /* \"#utility.yul\":29876:29917   */\n      mstore\n        /* \"#utility.yul\":29759:29924   */\n      pop\n      jump\t// out\n        /* \"#utility.yul\":29930:30296   */\n    tag_494:\n        /* \"#utility.yul\":30072:30075   */\n      0x00\n        /* \"#utility.yul\":30093:30160   */\n      tag_779\n        /* \"#utility.yul\":30157:30159   */\n      0x0f\n        /* \"#utility.yul\":30152:30155   */\n      dup4\n        /* \"#utility.yul\":30093:30160   */\n      tag_429\n      jump\t// in\n    tag_779:\n        /* \"#utility.yul\":30086:30160   */\n      swap2\n      pop\n        /* \"#utility.yul\":30169:30262   */\n      tag_780\n        /* \"#utility.yul\":30258:30261   */\n      dup3\n        /* \"#utility.yul\":30169:30262   */\n      tag_493\n      jump\t// in\n    tag_780:\n        /* \"#utility.yul\":30287:30289   */\n      0x20\n        /* \"#utility.yul\":30282:30285   */\n      dup3\n        /* \"#utility.yul\":30278:30290   */\n      add\n        /* \"#utility.yul\":30271:30290   */\n      swap1\n      pop\n        /* \"#utility.yul\":29930:30296   */\n      swap2\n      swap1\n      pop\n      jump\t// out\n        /* \"#utility.yul\":30302:30721   */\n    tag_425:\n        /* \"#utility.yul\":30468:30472   */\n      0x00\n        /* \"#utility.yul\":30506:30508   */\n      0x20\n        /* \"#utility.yul\":30495:30504   */\n      dup3\n        /* \"#utility.yul\":30491:30509   */\n      add\n        /* \"#utility.yul\":30483:30509   */\n      swap1\n      pop\n        /* \"#utility.yul\":30555:30564   */\n      dup2\n        /* \"#utility.yul\":30549:30553   */\n      dup2\n        /* \"#utility.yul\":30545:30565   */\n      sub\n        /* \"#utility.yul\":30541:30542   */\n      0x00\n        /* \"#utility.yul\":30530:30539   */\n      dup4\n        /* \"#utility.yul\":30526:30543   */\n      add\n        /* \"#utility.yul\":30519:30566   */\n      mstore\n        /* \"#utility.yul\":30583:30714   */\n      tag_782\n        /* \"#utility.yul\":30709:30713   */\n      dup2\n        /* \"#utility.yul\":30583:30714   */\n      tag_494\n      jump\t// in\n    tag_782:\n        /* \"#utility.yul\":30575:30714   */\n      swap1\n      pop\n        /* \"#utility.yul\":30302:30721   */\n      swap2\n      swap1\n      pop\n      jump\t// out\n\n    auxdata: 0xa2646970667358221220c3fa1ce69418621516a0ee659c6d3a92f5d517feb41acd7f1b3c86da6304e5b564736f6c634300080a0033\n}\n",
				"bytecode": {
					"linkReferences": {},
					"object": "610140604052600060075560006008553480156200001c57600080fd5b50604051620041a2380380620041a28339818101604052810190620000429190620004f6565b83838383828282826000908051906020019062000061929190620001f2565b5081600190805190602001906200007a929190620001f2565b508060ff1660808160ff16815250504660a08181525050620000a16200016260201b60201c565b60c081815250505050508373ffffffffffffffffffffffffffffffffffffffff1660e08173ffffffffffffffffffffffffffffffffffffffff1681525050505050508373ffffffffffffffffffffffffffffffffffffffff166101208173ffffffffffffffffffffffffffffffffffffffff1681525050608051600a62000129919062000733565b61010081815250507fffffffffffffffffffffffffffffffffffffffffffffffffffffffffffffffff6002819055505050505062000947565b60007f8b73c3c69bb8fe3d512ecc4cf759cc79239f7b179b0ffacaa9a75d522b39400f600060405162000196919062000894565b60405180910390207fc89efdaa54c0f20c7adf612882df0950f5a951637e0307cdcb4c672f298b8bc64630604051602001620001d7959493929190620008ea565b60405160208183030381529060405280519060200120905090565b8280546200020090620007b3565b90600052602060002090601f01602090048101928262000224576000855562000270565b82601f106200023f57805160ff191683800117855562000270565b8280016001018555821562000270579182015b828111156200026f57825182559160200191906001019062000252565b5b5090506200027f919062000283565b5090565b5b808211156200029e57600081600090555060010162000284565b5090565b6000604051905090565b600080fd5b600080fd5b600073ffffffffffffffffffffffffffffffffffffffff82169050919050565b6000620002e382620002b6565b9050919050565b6000620002f782620002d6565b9050919050565b6200030981620002ea565b81146200031557600080fd5b50565b6000815190506200032981620002fe565b92915050565b600080fd5b600080fd5b6000601f19601f8301169050919050565b7f4e487b7100000000000000000000000000000000000000000000000000000000600052604160045260246000fd5b620003848262000339565b810181811067ffffffffffffffff82111715620003a657620003a56200034a565b5b80604052505050565b6000620003bb620002a2565b9050620003c9828262000379565b919050565b600067ffffffffffffffff821115620003ec57620003eb6200034a565b5b620003f78262000339565b9050602081019050919050565b60005b838110156200042457808201518184015260208101905062000407565b8381111562000434576000848401525b50505050565b6000620004516200044b84620003ce565b620003af565b90508281526020810184848401111562000470576200046f62000334565b5b6200047d84828562000404565b509392505050565b600082601f8301126200049d576200049c6200032f565b5b8151620004af8482602086016200043a565b91505092915050565b600060ff82169050919050565b620004d081620004b8565b8114620004dc57600080fd5b50565b600081519050620004f081620004c5565b92915050565b60008060008060808587031215620005135762000512620002ac565b5b6000620005238782880162000318565b945050602085015167ffffffffffffffff811115620005475762000546620002b1565b5b620005558782880162000485565b935050604085015167ffffffffffffffff811115620005795762000578620002b1565b5b620005878782880162000485565b92505060606200059a87828801620004df565b91505092959194509250565b7f4e487b7100000000000000000000000000000000000000000000000000000000600052601160045260246000fd5b60008160011c9050919050565b6000808291508390505b600185111562000634578086048111156200060c576200060b620005a6565b5b60018516156200061c5780820291505b80810290506200062c85620005d5565b9450620005ec565b94509492505050565b6000826200064f576001905062000722565b816200065f576000905062000722565b81600181146200067857600281146200068357620006b9565b600191505062000722565b60ff841115620006985762000697620005a6565b5b8360020a915084821115620006b257620006b1620005a6565b5b5062000722565b5060208310610133831016604e8410600b8410161715620006f35782820a905083811115620006ed57620006ec620005a6565b5b62000722565b620007028484846001620005e2565b925090508184048111156200071c576200071b620005a6565b5b81810290505b9392505050565b6000819050919050565b6000620007408262000729565b91506200074d83620004b8565b92506200077c7fffffffffffffffffffffffffffffffffffffffffffffffffffffffffffffffff84846200063d565b905092915050565b7f4e487b7100000000000000000000000000000000000000000000000000000000600052602260045260246000fd5b60006002820490506001821680620007cc57607f821691505b60208210811415620007e357620007e262000784565b5b50919050565b600081905092915050565b60008190508160005260206000209050919050565b600081546200081881620007b3565b620008248186620007e9565b9450600182166000811462000842576001811462000854576200088b565b60ff198316865281860193506200088b565b6200085f85620007f4565b60005b83811015620008835781548189015260018201915060208101905062000862565b838801955050505b50505092915050565b6000620008a2828462000809565b915081905092915050565b6000819050919050565b620008c281620008ad565b82525050565b620008d38162000729565b82525050565b620008e481620002d6565b82525050565b600060a082019050620009016000830188620008b7565b620009106020830187620008b7565b6200091f6040830186620008b7565b6200092e6060830185620008c8565b6200093d6080830184620008d9565b9695505050505050565b60805160a05160c05160e05161010051610120516137e4620009be60003960008181610e290152611e050152600050506000818161089b01528181610fc4015281816110a401528181611403015281816119fb0152611c9a01526000610f9d01526000610f6901526000610d8601526137e46000f3fe608060405234801561001057600080fd5b506004361061025e5760003560e01c806394bf804d11610146578063c63d75b6116100c3578063dd62ed3e11610087578063dd62ed3e146107c1578063ecad9565146107f1578063ef8b30f71461080f578063f2fde38b1461083f578063f84d73f41461085b578063fc407ae7146108795761025e565b8063c63d75b6146106e5578063c6e6f59214610715578063ce96cb7714610745578063d505accf14610775578063d905777e146107915761025e565b8063b460af941161010a578063b460af941461062d578063ba0876521461065d578063bc368a8a1461068d578063bd662f88146106ab578063c5d664c6146106c75761025e565b806394bf804d1461056357806395d89b4114610593578063a9059cbb146105b1578063ac68a748146105e1578063b3d7f6b9146105fd5761025e565b80633644e515116101df5780636e553f65116101a35780636e553f651461048f57806370a08231146104bf578063715018a6146104ef5780637ce3489b146104f95780637ecebe00146105155780637fd6f15c146105455761025e565b80633644e515146103d557806338d52e0f146103f3578063402d267d14610411578063481c6a75146104415780634cdad5061461045f5761025e565b806318160ddd1161022657806318160ddd1461032f5780631c6934781461034d57806323b872dd1461036b578063313ce5671461039b57806332ff7732146103b95761025e565b806301e1d1141461026357806306fdde031461028157806307a2d13a1461029f578063095ea7b3146102cf5780630a28a477146102ff575b600080fd5b61026b610897565b6040516102789190612828565b60405180910390f35b610289610938565b60405161029691906128dc565b60405180910390f35b6102b960048036038101906102b4919061292f565b6109c6565b6040516102c69190612828565b60405180910390f35b6102e960048036038101906102e491906129ba565b610a01565b6040516102f69190612a15565b60405180910390f35b6103196004803603810190610314919061292f565b610af3565b6040516103269190612828565b60405180910390f35b610337610b2e565b6040516103449190612828565b60405180910390f35b610355610b34565b6040516103629190612828565b60405180910390f35b61038560048036038101906103809190612a30565b610b3a565b6040516103929190612a15565b60405180910390f35b6103a3610d84565b6040516103b09190612a9f565b60405180910390f35b6103d360048036038101906103ce9190612ae6565b610da8565b005b6103dd610f65565b6040516103ea9190612b2c565b60405180910390f35b6103fb610fc2565b6040516104089190612ba6565b60405180910390f35b61042b60048036038101906104269190612bc1565b610fe6565b6040516104389190612828565b60405180910390f35b610449611010565b6040516104569190612bfd565b60405180910390f35b6104796004803603810190610474919061292f565b61103a565b6040516104869190612828565b60405180910390f35b6104a960048036038101906104a49190612c18565b61104c565b6040516104b69190612828565b60405180910390f35b6104d960048036038101906104d49190612bc1565b61116a565b6040516104e69190612828565b60405180910390f35b6104f7611182565b005b610513600480360381019061050e919061292f565b6112b8565b005b61052f600480360381019061052a9190612bc1565b6113d0565b60405161053c9190612828565b60405180910390f35b61054d6113e8565b60405161055a9190612828565b60405180910390f35b61057d60048036038101906105789190612c18565b6113ee565b60405161058a9190612828565b60405180910390f35b61059b6114c9565b6040516105a891906128dc565b60405180910390f35b6105cb60048036038101906105c691906129ba565b611557565b6040516105d89190612a15565b60405180910390f35b6105fb60048036038101906105f6919061292f565b61166b565b005b6106176004803603810190610612919061292f565b6117b0565b6040516106249190612828565b60405180910390f35b61064760048036038101906106429190612c58565b6117eb565b6040516106549190612828565b60405180910390f35b61067760048036038101906106729190612c58565b611a46565b6040516106849190612828565b60405180910390f35b610695611ce5565b6040516106a29190612828565b60405180910390f35b6106c560048036038101906106c0919061292f565b611ceb565b005b6106cf611e03565b6040516106dc9190612ba6565b60405180910390f35b6106ff60048036038101906106fa9190612bc1565b611e27565b60405161070c9190612828565b60405180910390f35b61072f600480360381019061072a919061292f565b611e51565b60405161073c9190612828565b60405180910390f35b61075f600480360381019061075a9190612bc1565b611e8c565b60405161076c9190612828565b60405180910390f35b61078f600480360381019061078a9190612d03565b611edd565b005b6107ab60048036038101906107a69190612bc1565b6121d6565b6040516107b89190612828565b60405180910390f35b6107db60048036038101906107d69190612da5565b61221f565b6040516107e89190612828565b60405180910390f35b6107f9612244565b6040516108069190612828565b60405180910390f35b6108296004803603810190610824919061292f565b61224a565b6040516108369190612828565b60405180910390f35b61085960048036038101906108549190612bc1565b61225c565b005b610863612401565b6040516108709190612a15565b60405180910390f35b610881612414565b60405161088e9190612828565b60405180910390f35b60007f000000000000000000000000000000000000000000000000000000000000000073ffffffffffffffffffffffffffffffffffffffff166370a08231306040518263ffffffff1660e01b81526004016108f29190612bfd565b602060405180830381865afa15801561090f573d6000803e3d6000fd5b505050506040513d601f19601f820116820180604052508101906109339190612dfa565b905090565b6000805461094590612e56565b80601f016020809104026020016040519081016040528092919081815260200182805461097190612e56565b80156109be5780601f10610993576101008083540402835291602001916109be565b820191906000526020600020905b8154815290600101906020018083116109a157829003601f168201915b505050505081565b6000806002549050600081146109f7576109f26109e1610897565b828561241a9092919063ffffffff16565b6109f9565b825b915050919050565b600081600460003373ffffffffffffffffffffffffffffffffffffffff1673ffffffffffffffffffffffffffffffffffffffff16815260200190815260200160002060008573ffffffffffffffffffffffffffffffffffffffff1673ffffffffffffffffffffffffffffffffffffffff168152602001908152602001600020819055508273ffffffffffffffffffffffffffffffffffffffff163373ffffffffffffffffffffffffffffffffffffffff167f8c5be1e5ebec7d5bd14f71427d1e84f3dd0314c0f7b2291e5b200ac8c7c3b92584604051610ae19190612828565b60405180910390a36001905092915050565b600080600254905060008114610b2457610b1f81610b0f610897565b856124429092919063ffffffff16565b610b26565b825b915050919050565b60025481565b600a5481565b600080600460008673ffffffffffffffffffffffffffffffffffffffff1673ffffffffffffffffffffffffffffffffffffffff16815260200190815260200160002060003373ffffffffffffffffffffffffffffffffffffffff1673ffffffffffffffffffffffffffffffffffffffff1681526020019081526020016000205490507fffffffffffffffffffffffffffffffffffffffffffffffffffffffffffffffff8114610c70578281610bef9190612eb7565b600460008773ffffffffffffffffffffffffffffffffffffffff1673ffffffffffffffffffffffffffffffffffffffff16815260200190815260200160002060003373ffffffffffffffffffffffffffffffffffffffff1673ffffffffffffffffffffffffffffffffffffffff168152602001908152602001600020819055505b82600360008773ffffffffffffffffffffffffffffffffffffffff1673ffffffffffffffffffffffffffffffffffffffff1681526020019081526020016000206000828254610cbf9190612eb7565b9250508190555082600360008673ffffffffffffffffffffffffffffffffffffffff1673ffffffffffffffffffffffffffffffffffffffff168152602001908152602001600020600082825401925050819055508373ffffffffffffffffffffffffffffffffffffffff168573ffffffffffffffffffffffffffffffffffffffff167fddf252ad1be2c89b69c2b068fc378daa952ba7f163c4a11628f55a4df523b3ef85604051610d709190612828565b60405180910390a360019150509392505050565b7f000000000000000000000000000000000000000000000000000000000000000081565b3373ffffffffffffffffffffffffffffffffffffffff16610dc7611010565b73ffffffffffffffffffffffffffffffffffffffff1614610e1d576040517f08c379a0000000000000000000000000000000000000000000000000000000008152600401610e1490612f5d565b60405180910390fd5b801580610ebb575060127f000000000000000000000000000000000000000000000000000000000000000073ffffffffffffffffffffffffffffffffffffffff1663313ce5676040518163ffffffff1660e01b8152600401602060405180830381865afa158015610e92573d6000803e3d6000fd5b505050506040513d601f19601f82011682018060405250810190610eb69190612f92565b60ff16145b610efa576040517f08c379a0000000000000000000000000000000000000000000000000000000008152600401610ef19061300b565b60405180910390fd5b80600b60006101000a81548160ff0219169083151502179055503373ffffffffffffffffffffffffffffffffffffffff167f6375b140d4463d47b864f1f47e5d2893cc3478e73aedcc268b054fab0230a84182604051610f5a9190612a15565b60405180910390a250565b60007f00000000000000000000000000000000000000000000000000000000000000004614610f9b57610f96612474565b610fbd565b7f00000000000000000000000000000000000000000000000000000000000000005b905090565b7f000000000000000000000000000000000000000000000000000000000000000081565b60007fffffffffffffffffffffffffffffffffffffffffffffffffffffffffffffffff9050919050565b6000600660009054906101000a900473ffffffffffffffffffffffffffffffffffffffff16905090565b6000611045826109c6565b9050919050565b6000806110588461224a565b915081141561109c576040517f08c379a000000000000000000000000000000000000000000000000000000000815260040161109390613077565b60405180910390fd5b6110e93330857f000000000000000000000000000000000000000000000000000000000000000073ffffffffffffffffffffffffffffffffffffffff16612500909392919063ffffffff16565b6110f3828261259f565b8173ffffffffffffffffffffffffffffffffffffffff163373ffffffffffffffffffffffffffffffffffffffff167fdcbc1c05240f31ff3ad067ef1ee35ce4997762752e3a095284754544f4c709d78584604051611152929190613097565b60405180910390a3611164838261266f565b92915050565b60036020528060005260406000206000915090505481565b3373ffffffffffffffffffffffffffffffffffffffff166111a1611010565b73ffffffffffffffffffffffffffffffffffffffff16146111f7576040517f08c379a00000000000000000000000000000000000000000000000000000000081526004016111ee90612f5d565b60405180910390fd5b600073ffffffffffffffffffffffffffffffffffffffff16600660009054906101000a900473ffffffffffffffffffffffffffffffffffffffff1673ffffffffffffffffffffffffffffffffffffffff167f8be0079c531659141344cd1fd0a4f28419497f9722a3daafe3b4186f6b6457e060405160405180910390a36000600660006101000a81548173ffffffffffffffffffffffffffffffffffffffff021916908373ffffffffffffffffffffffffffffffffffffffff160217905550565b3373ffffffffffffffffffffffffffffffffffffffff166112d7611010565b73ffffffffffffffffffffffffffffffffffffffff161461132d576040517f08c379a000000000000000000000000000000000000000000000000000000000815260040161132490612f5d565b60405180910390fd5b670de0b6b3a7640000811115611378576040517f08c379a000000000000000000000000000000000000000000000000000000000815260040161136f9061310c565b60405180910390fd5b806009819055503373ffffffffffffffffffffffffffffffffffffffff167fec370615cc81fb334e5566fbc80664d9082377bf59288d64a79f3fbecf4323a9826040516113c59190612828565b60405180910390a250565b60056020528060005260406000206000915090505481565b60095481565b60006113f9836117b0565b90506114483330837f000000000000000000000000000000000000000000000000000000000000000073ffffffffffffffffffffffffffffffffffffffff16612500909392919063ffffffff16565b611452828461259f565b8173ffffffffffffffffffffffffffffffffffffffff163373ffffffffffffffffffffffffffffffffffffffff167fdcbc1c05240f31ff3ad067ef1ee35ce4997762752e3a095284754544f4c709d783866040516114b1929190613097565b60405180910390a36114c3818461266f565b92915050565b600180546114d690612e56565b80601f016020809104026020016040519081016040528092919081815260200182805461150290612e56565b801561154f5780601f106115245761010080835404028352916020019161154f565b820191906000526020600020905b81548152906001019060200180831161153257829003601f168201915b505050505081565b600081600360003373ffffffffffffffffffffffffffffffffffffffff1673ffffffffffffffffffffffffffffffffffffffff16815260200190815260200160002060008282546115a89190612eb7565b9250508190555081600360008573ffffffffffffffffffffffffffffffffffffffff1673ffffffffffffffffffffffffffffffffffffffff168152602001908152602001600020600082825401925050819055508273ffffffffffffffffffffffffffffffffffffffff163373ffffffffffffffffffffffffffffffffffffffff167fddf252ad1be2c89b69c2b068fc378daa952ba7f163c4a11628f55a4df523b3ef846040516116599190612828565b60405180910390a36001905092915050565b3373ffffffffffffffffffffffffffffffffffffffff1661168a611010565b73ffffffffffffffffffffffffffffffffffffffff16146116e0576040517f08c379a00000000000000000000000000000000000000000000000000000000081526004016116d790612f5d565b60405180910390fd5b3373ffffffffffffffffffffffffffffffffffffffff167f9493e5bbe4e8e0ac67284469a2d677403d0378a85a59e341d3abc433d0d9a209826040516117269190612828565b60405180910390a23073ffffffffffffffffffffffffffffffffffffffff1663a9059cbb33836040518363ffffffff1660e01b815260040161176992919061312c565b6020604051808303816000875af1158015611788573d6000803e3d6000fd5b505050506040513d601f19601f820116820180604052508101906117ac919061316a565b5050565b6000806002549050600081146117e1576117dc6117cb610897565b82856124429092919063ffffffff16565b6117e3565b825b915050919050565b60006117f684610af3565b90508173ffffffffffffffffffffffffffffffffffffffff163373ffffffffffffffffffffffffffffffffffffffff1614611962576000600460008473ffffffffffffffffffffffffffffffffffffffff1673ffffffffffffffffffffffffffffffffffffffff16815260200190815260200160002060003373ffffffffffffffffffffffffffffffffffffffff1673ffffffffffffffffffffffffffffffffffffffff1681526020019081526020016000205490507fffffffffffffffffffffffffffffffffffffffffffffffffffffffffffffffff81146119605781816118df9190612eb7565b600460008573ffffffffffffffffffffffffffffffffffffffff1673ffffffffffffffffffffffffffffffffffffffff16815260200190815260200160002060003373ffffffffffffffffffffffffffffffffffffffff1673ffffffffffffffffffffffffffffffffffffffff168152602001908152602001600020819055505b505b61196c848261268b565b61197682826126a7565b8173ffffffffffffffffffffffffffffffffffffffff168373ffffffffffffffffffffffffffffffffffffffff163373ffffffffffffffffffffffffffffffffffffffff167ffbde797d201c681b91056529119e0b02407c7bb96a4a2c75c01fc9667232c8db87856040516119ec929190613097565b60405180910390a4611a3f83857f000000000000000000000000000000000000000000000000000000000000000073ffffffffffffffffffffffffffffffffffffffff166127779092919063ffffffff16565b9392505050565b60008173ffffffffffffffffffffffffffffffffffffffff163373ffffffffffffffffffffffffffffffffffffffff1614611bb2576000600460008473ffffffffffffffffffffffffffffffffffffffff1673ffffffffffffffffffffffffffffffffffffffff16815260200190815260200160002060003373ffffffffffffffffffffffffffffffffffffffff1673ffffffffffffffffffffffffffffffffffffffff1681526020019081526020016000205490507fffffffffffffffffffffffffffffffffffffffffffffffffffffffffffffffff8114611bb0578481611b2f9190612eb7565b600460008573ffffffffffffffffffffffffffffffffffffffff1673ffffffffffffffffffffffffffffffffffffffff16815260200190815260200160002060003373ffffffffffffffffffffffffffffffffffffffff1673ffffffffffffffffffffffffffffffffffffffff168152602001908152602001600020819055505b505b6000611bbd8561103a565b9150811415611c01576040517f08c379a0000000000000000000000000000000000000000000000000000000008152600401611bf8906131e3565b60405180910390fd5b611c0b818561268b565b611c1582856126a7565b8173ffffffffffffffffffffffffffffffffffffffff168373ffffffffffffffffffffffffffffffffffffffff163373ffffffffffffffffffffffffffffffffffffffff167ffbde797d201c681b91056529119e0b02407c7bb96a4a2c75c01fc9667232c8db8488604051611c8b929190613097565b60405180910390a4611cde83827f000000000000000000000000000000000000000000000000000000000000000073ffffffffffffffffffffffffffffffffffffffff166127779092919063ffffffff16565b9392505050565b60075481565b3373ffffffffffffffffffffffffffffffffffffffff16611d0a611010565b73ffffffffffffffffffffffffffffffffffffffff1614611d60576040517f08c379a0000000000000000000000000000000000000000000000000000000008152600401611d5790612f5d565b60405180910390fd5b670de0b6b3a7640000811115611dab576040517f08c379a0000000000000000000000000000000000000000000000000000000008152600401611da29061324f565b60405180910390fd5b80600a819055503373ffffffffffffffffffffffffffffffffffffffff167f95bc4480b51f4860106d42850bcae222cf3303fb2b7d433e896205e0ebefe36982604051611df89190612828565b60405180910390a250565b7f000000000000000000000000000000000000000000000000000000000000000081565b60007fffffffffffffffffffffffffffffffffffffffffffffffffffffffffffffffff9050919050565b600080600254905060008114611e8257611e7d81611e6d610897565b8561241a9092919063ffffffff16565b611e84565b825b915050919050565b6000611ed6600360008473ffffffffffffffffffffffffffffffffffffffff1673ffffffffffffffffffffffffffffffffffffffff168152602001908152602001600020546109c6565b9050919050565b42841015611f20576040517f08c379a0000000000000000000000000000000000000000000000000000000008152600401611f17906132bb565b60405180910390fd5b60006001611f2c610f65565b7f6e71edae12b1b97f4d1f60370fef10105fa2faae0126114a169c64845d6126c98a8a8a600560008f73ffffffffffffffffffffffffffffffffffffffff1673ffffffffffffffffffffffffffffffffffffffff1681526020019081526020016000206000815480929190600101919050558b604051602001611fb4969594939291906132db565b60405160208183030381529060405280519060200120604051602001611fdb9291906133b4565b604051602081830303815290604052805190602001208585856040516000815260200160405260405161201194939291906133eb565b6020604051602081039080840390855afa158015612033573d6000803e3d6000fd5b505050602060405103519050600073ffffffffffffffffffffffffffffffffffffffff168173ffffffffffffffffffffffffffffffffffffffff16141580156120a757508773ffffffffffffffffffffffffffffffffffffffff168173ffffffffffffffffffffffffffffffffffffffff16145b6120e6576040517f08c379a00000000000000000000000000000000000000000000000000000000081526004016120dd9061347c565b60405180910390fd5b85600460008373ffffffffffffffffffffffffffffffffffffffff1673ffffffffffffffffffffffffffffffffffffffff16815260200190815260200160002060008973ffffffffffffffffffffffffffffffffffffffff1673ffffffffffffffffffffffffffffffffffffffff16815260200190815260200160002081905550508573ffffffffffffffffffffffffffffffffffffffff168773ffffffffffffffffffffffffffffffffffffffff167f8c5be1e5ebec7d5bd14f71427d1e84f3dd0314c0f7b2291e5b200ac8c7c3b925876040516121c59190612828565b60405180910390a350505050505050565b6000600360008373ffffffffffffffffffffffffffffffffffffffff1673ffffffffffffffffffffffffffffffffffffffff168152602001908152602001600020549050919050565b6004602052816000526040600020602052806000526040600020600091509150505481565b600c5481565b600061225582611e51565b9050919050565b3373ffffffffffffffffffffffffffffffffffffffff1661227b611010565b73ffffffffffffffffffffffffffffffffffffffff16146122d1576040517f08c379a00000000000000000000000000000000000000000000000000000000081526004016122c890612f5d565b60405180910390fd5b600073ffffffffffffffffffffffffffffffffffffffff168173ffffffffffffffffffffffffffffffffffffffff161415612341576040517f08c379a00000000000000000000000000000000000000000000000000000000081526004016123389061350e565b60405180910390fd5b8073ffffffffffffffffffffffffffffffffffffffff16600660009054906101000a900473ffffffffffffffffffffffffffffffffffffffff1673ffffffffffffffffffffffffffffffffffffffff167f8be0079c531659141344cd1fd0a4f28419497f9722a3daafe3b4186f6b6457e060405160405180910390a380600660006101000a81548173ffffffffffffffffffffffffffffffffffffffff021916908373ffffffffffffffffffffffffffffffffffffffff16021790555050565b600b60009054906101000a900460ff1681565b60085481565b6000828402905082848204148415178215151661243657600080fd5b81810490509392505050565b6000828402905082848204148415178215151661245e57600080fd5b6001826001830304018115150290509392505050565b60007f8b73c3c69bb8fe3d512ecc4cf759cc79239f7b179b0ffacaa9a75d522b39400f60006040516124a691906135cd565b60405180910390207fc89efdaa54c0f20c7adf612882df0950f5a951637e0307cdcb4c672f298b8bc646306040516020016124e59594939291906135e4565b60405160208183030381529060405280519060200120905090565b60006040517f23b872dd0000000000000000000000000000000000000000000000000000000081528460048201528360248201528260448201526020600060648360008a5af13d15601f3d1160016000511416171691505080612598576040517f08c379a000000000000000000000000000000000000000000000000000000000815260040161258f90613683565b60405180910390fd5b5050505050565b80600260008282546125b191906136a3565b9250508190555080600360008473ffffffffffffffffffffffffffffffffffffffff1673ffffffffffffffffffffffffffffffffffffffff168152602001908152602001600020600082825401925050819055508173ffffffffffffffffffffffffffffffffffffffff16600073ffffffffffffffffffffffffffffffffffffffff167fddf252ad1be2c89b69c2b068fc378daa952ba7f163c4a11628f55a4df523b3ef836040516126639190612828565b60405180910390a35050565b60086000815480929190612682906136f9565b91905055505050565b6007600081548092919061269e906136f9565b91905055505050565b80600360008473ffffffffffffffffffffffffffffffffffffffff1673ffffffffffffffffffffffffffffffffffffffff16815260200190815260200160002060008282546126f69190612eb7565b9250508190555080600260008282540392505081905550600073ffffffffffffffffffffffffffffffffffffffff168273ffffffffffffffffffffffffffffffffffffffff167fddf252ad1be2c89b69c2b068fc378daa952ba7f163c4a11628f55a4df523b3ef8360405161276b9190612828565b60405180910390a35050565b60006040517fa9059cbb000000000000000000000000000000000000000000000000000000008152836004820152826024820152602060006044836000895af13d15601f3d1160016000511416171691505080612809576040517f08c379a00000000000000000000000000000000000000000000000000000000081526004016128009061378e565b60405180910390fd5b50505050565b6000819050919050565b6128228161280f565b82525050565b600060208201905061283d6000830184612819565b92915050565b600081519050919050565b600082825260208201905092915050565b60005b8381101561287d578082015181840152602081019050612862565b8381111561288c576000848401525b50505050565b6000601f19601f8301169050919050565b60006128ae82612843565b6128b8818561284e565b93506128c881856020860161285f565b6128d181612892565b840191505092915050565b600060208201905081810360008301526128f681846128a3565b905092915050565b600080fd5b61290c8161280f565b811461291757600080fd5b50565b60008135905061292981612903565b92915050565b600060208284031215612945576129446128fe565b5b60006129538482850161291a565b91505092915050565b600073ffffffffffffffffffffffffffffffffffffffff82169050919050565b60006129878261295c565b9050919050565b6129978161297c565b81146129a257600080fd5b50565b6000813590506129b48161298e565b92915050565b600080604083850312156129d1576129d06128fe565b5b60006129df858286016129a5565b92505060206129f08582860161291a565b9150509250929050565b60008115159050919050565b612a0f816129fa565b82525050565b6000602082019050612a2a6000830184612a06565b92915050565b600080600060608486031215612a4957612a486128fe565b5b6000612a57868287016129a5565b9350506020612a68868287016129a5565b9250506040612a798682870161291a565b9150509250925092565b600060ff82169050919050565b612a9981612a83565b82525050565b6000602082019050612ab46000830184612a90565b92915050565b612ac3816129fa565b8114612ace57600080fd5b50565b600081359050612ae081612aba565b92915050565b600060208284031215612afc57612afb6128fe565b5b6000612b0a84828501612ad1565b91505092915050565b6000819050919050565b612b2681612b13565b82525050565b6000602082019050612b416000830184612b1d565b92915050565b6000819050919050565b6000612b6c612b67612b628461295c565b612b47565b61295c565b9050919050565b6000612b7e82612b51565b9050919050565b6000612b9082612b73565b9050919050565b612ba081612b85565b82525050565b6000602082019050612bbb6000830184612b97565b92915050565b600060208284031215612bd757612bd66128fe565b5b6000612be5848285016129a5565b91505092915050565b612bf78161297c565b82525050565b6000602082019050612c126000830184612bee565b92915050565b60008060408385031215612c2f57612c2e6128fe565b5b6000612c3d8582860161291a565b9250506020612c4e858286016129a5565b9150509250929050565b600080600060608486031215612c7157612c706128fe565b5b6000612c7f8682870161291a565b9350506020612c90868287016129a5565b9250506040612ca1868287016129a5565b9150509250925092565b612cb481612a83565b8114612cbf57600080fd5b50565b600081359050612cd181612cab565b92915050565b612ce081612b13565b8114612ceb57600080fd5b50565b600081359050612cfd81612cd7565b92915050565b600080600080600080600060e0888a031215612d2257612d216128fe565b5b6000612d308a828b016129a5565b9750506020612d418a828b016129a5565b9650506040612d528a828b0161291a565b9550506060612d638a828b0161291a565b9450506080612d748a828b01612cc2565b93505060a0612d858a828b01612cee565b92505060c0612d968a828b01612cee565b91505092959891949750929550565b60008060408385031215612dbc57612dbb6128fe565b5b6000612dca858286016129a5565b9250506020612ddb858286016129a5565b9150509250929050565b600081519050612df481612903565b92915050565b600060208284031215612e1057612e0f6128fe565b5b6000612e1e84828501612de5565b91505092915050565b7f4e487b7100000000000000000000000000000000000000000000000000000000600052602260045260246000fd5b60006002820490506001821680612e6e57607f821691505b60208210811415612e8257612e81612e27565b5b50919050565b7f4e487b7100000000000000000000000000000000000000000000000000000000600052601160045260246000fd5b6000612ec28261280f565b9150612ecd8361280f565b925082821015612ee057612edf612e88565b5b828203905092915050565b7f4f776e61626c653a2063616c6c6572206973206e6f7420746865206d616e616760008201527f6572000000000000000000000000000000000000000000000000000000000000602082015250565b6000612f4760228361284e565b9150612f5282612eeb565b604082019050919050565b60006020820190508181036000830152612f7681612f3a565b9050919050565b600081519050612f8c81612cab565b92915050565b600060208284031215612fa857612fa76128fe565b5b6000612fb684828501612f7d565b91505092915050565b7f57524f4e475f444543494d414c53000000000000000000000000000000000000600082015250565b6000612ff5600e8361284e565b915061300082612fbf565b602082019050919050565b6000602082019050818103600083015261302481612fe8565b9050919050565b7f5a45524f5f534841524553000000000000000000000000000000000000000000600082015250565b6000613061600b8361284e565b915061306c8261302b565b602082019050919050565b6000602082019050818103600083015261309081613054565b9050919050565b60006040820190506130ac6000830185612819565b6130b96020830184612819565b9392505050565b7f4645455f544f4f5f484947480000000000000000000000000000000000000000600082015250565b60006130f6600c8361284e565b9150613101826130c0565b602082019050919050565b60006020820190508181036000830152613125816130e9565b9050919050565b60006040820190506131416000830185612bee565b61314e6020830184612819565b9392505050565b60008151905061316481612aba565b92915050565b6000602082840312156131805761317f6128fe565b5b600061318e84828501613155565b91505092915050565b7f5a45524f5f415353455453000000000000000000000000000000000000000000600082015250565b60006131cd600b8361284e565b91506131d882613197565b602082019050919050565b600060208201905081810360008301526131fc816131c0565b9050919050565b7f5441524745545f544f4f5f484947480000000000000000000000000000000000600082015250565b6000613239600f8361284e565b915061324482613203565b602082019050919050565b600060208201905081810360008301526132688161322c565b9050919050565b7f5045524d49545f444541444c494e455f45585049524544000000000000000000600082015250565b60006132a560178361284e565b91506132b08261326f565b602082019050919050565b600060208201905081810360008301526132d481613298565b9050919050565b600060c0820190506132f06000830189612b1d565b6132fd6020830188612bee565b61330a6040830187612bee565b6133176060830186612819565b6133246080830185612819565b61333160a0830184612819565b979650505050505050565b600081905092915050565b7f1901000000000000000000000000000000000000000000000000000000000000600082015250565b600061337d60028361333c565b915061338882613347565b600282019050919050565b6000819050919050565b6133ae6133a982612b13565b613393565b82525050565b60006133bf82613370565b91506133cb828561339d565b6020820191506133db828461339d565b6020820191508190509392505050565b60006080820190506134006000830187612b1d565b61340d6020830186612a90565b61341a6040830185612b1d565b6134276060830184612b1d565b95945050505050565b7f494e56414c49445f5349474e4552000000000000000000000000000000000000600082015250565b6000613466600e8361284e565b915061347182613430565b602082019050919050565b6000602082019050818103600083015261349581613459565b9050919050565b7f4f776e61626c653a206e6577206d616e6167657220697320746865207a65726f60008201527f2061646472657373000000000000000000000000000000000000000000000000602082015250565b60006134f860288361284e565b91506135038261349c565b604082019050919050565b60006020820190508181036000830152613527816134eb565b9050919050565b600081905092915050565b60008190508160005260206000209050919050565b6000815461355b81612e56565b613565818661352e565b945060018216600081146135805760018114613591576135c4565b60ff198316865281860193506135c4565b61359a85613539565b60005b838110156135bc5781548189015260018201915060208101905061359d565b838801955050505b50505092915050565b60006135d9828461354e565b915081905092915050565b600060a0820190506135f96000830188612b1d565b6136066020830187612b1d565b6136136040830186612b1d565b6136206060830185612819565b61362d6080830184612bee565b9695505050505050565b7f5452414e534645525f46524f4d5f4641494c4544000000000000000000000000600082015250565b600061366d60148361284e565b915061367882613637565b602082019050919050565b6000602082019050818103600083015261369c81613660565b9050919050565b60006136ae8261280f565b91506136b98361280f565b9250827fffffffffffffffffffffffffffffffffffffffffffffffffffffffffffffffff038211156136ee576136ed612e88565b5b828201905092915050565b60006137048261280f565b91507fffffffffffffffffffffffffffffffffffffffffffffffffffffffffffffffff82141561373757613736612e88565b5b600182019050919050565b7f5452414e534645525f4641494c45440000000000000000000000000000000000600082015250565b6000613778600f8361284e565b915061378382613742565b602082019050919050565b600060208201905081810360008301526137a78161376b565b905091905056fea2646970667358221220c3fa1ce69418621516a0ee659c6d3a92f5d517feb41acd7f1b3c86da6304e5b564736f6c634300080a0033",
					"opcodes": "PUSH2 0x140 PUSH1 0x40 MSTORE PUSH1 0x0 PUSH1 0x7 SSTORE PUSH1 0x0 PUSH1 0x8 SSTORE CALLVALUE DUP1 ISZERO PUSH3 0x1C JUMPI PUSH1 0x0 DUP1 REVERT JUMPDEST POP PUSH1 0x40 MLOAD PUSH3 0x41A2 CODESIZE SUB DUP1 PUSH3 0x41A2 DUP4 CODECOPY DUP2 DUP2 ADD PUSH1 0x40 MSTORE DUP2 ADD SWAP1 PUSH3 0x42 SWAP2 SWAP1 PUSH3 0x4F6 JUMP JUMPDEST DUP4 DUP4 DUP4 DUP4 DUP3 DUP3 DUP3 DUP3 PUSH1 0x0 SWAP1 DUP1 MLOAD SWAP1 PUSH1 0x20 ADD SWAP1 PUSH3 0x61 SWAP3 SWAP2 SWAP1 PUSH3 0x1F2 JUMP JUMPDEST POP DUP2 PUSH1 0x1 SWAP1 DUP1 MLOAD SWAP1 PUSH1 0x20 ADD SWAP1 PUSH3 0x7A SWAP3 SWAP2 SWAP1 PUSH3 0x1F2 JUMP JUMPDEST POP DUP1 PUSH1 0xFF AND PUSH1 0x80 DUP2 PUSH1 0xFF AND DUP2 MSTORE POP POP CHAINID PUSH1 0xA0 DUP2 DUP2 MSTORE POP POP PUSH3 0xA1 PUSH3 0x162 PUSH1 0x20 SHL PUSH1 0x20 SHR JUMP JUMPDEST PUSH1 0xC0 DUP2 DUP2 MSTORE POP POP POP POP POP DUP4 PUSH20 0xFFFFFFFFFFFFFFFFFFFFFFFFFFFFFFFFFFFFFFFF AND PUSH1 0xE0 DUP2 PUSH20 0xFFFFFFFFFFFFFFFFFFFFFFFFFFFFFFFFFFFFFFFF AND DUP2 MSTORE POP POP POP POP POP POP DUP4 PUSH20 0xFFFFFFFFFFFFFFFFFFFFFFFFFFFFFFFFFFFFFFFF AND PUSH2 0x120 DUP2 PUSH20 0xFFFFFFFFFFFFFFFFFFFFFFFFFFFFFFFFFFFFFFFF AND DUP2 MSTORE POP POP PUSH1 0x80 MLOAD PUSH1 0xA PUSH3 0x129 SWAP2 SWAP1 PUSH3 0x733 JUMP JUMPDEST PUSH2 0x100 DUP2 DUP2 MSTORE POP POP PUSH32 0xFFFFFFFFFFFFFFFFFFFFFFFFFFFFFFFFFFFFFFFFFFFFFFFFFFFFFFFFFFFFFFFF PUSH1 0x2 DUP2 SWAP1 SSTORE POP POP POP POP POP PUSH3 0x947 JUMP JUMPDEST PUSH1 0x0 PUSH32 0x8B73C3C69BB8FE3D512ECC4CF759CC79239F7B179B0FFACAA9A75D522B39400F PUSH1 0x0 PUSH1 0x40 MLOAD PUSH3 0x196 SWAP2 SWAP1 PUSH3 0x894 JUMP JUMPDEST PUSH1 0x40 MLOAD DUP1 SWAP2 SUB SWAP1 KECCAK256 PUSH32 0xC89EFDAA54C0F20C7ADF612882DF0950F5A951637E0307CDCB4C672F298B8BC6 CHAINID ADDRESS PUSH1 0x40 MLOAD PUSH1 0x20 ADD PUSH3 0x1D7 SWAP6 SWAP5 SWAP4 SWAP3 SWAP2 SWAP1 PUSH3 0x8EA JUMP JUMPDEST PUSH1 0x40 MLOAD PUSH1 0x20 DUP2 DUP4 SUB SUB DUP2 MSTORE SWAP1 PUSH1 0x40 MSTORE DUP1 MLOAD SWAP1 PUSH1 0x20 ADD KECCAK256 SWAP1 POP SWAP1 JUMP JUMPDEST DUP3 DUP1 SLOAD PUSH3 0x200 SWAP1 PUSH3 0x7B3 JUMP JUMPDEST SWAP1 PUSH1 0x0 MSTORE PUSH1 0x20 PUSH1 0x0 KECCAK256 SWAP1 PUSH1 0x1F ADD PUSH1 0x20 SWAP1 DIV DUP2 ADD SWAP3 DUP3 PUSH3 0x224 JUMPI PUSH1 0x0 DUP6 SSTORE PUSH3 0x270 JUMP JUMPDEST DUP3 PUSH1 0x1F LT PUSH3 0x23F JUMPI DUP1 MLOAD PUSH1 0xFF NOT AND DUP4 DUP1 ADD OR DUP6 SSTORE PUSH3 0x270 JUMP JUMPDEST DUP3 DUP1 ADD PUSH1 0x1 ADD DUP6 SSTORE DUP3 ISZERO PUSH3 0x270 JUMPI SWAP2 DUP3 ADD JUMPDEST DUP3 DUP2 GT ISZERO PUSH3 0x26F JUMPI DUP3 MLOAD DUP3 SSTORE SWAP2 PUSH1 0x20 ADD SWAP2 SWAP1 PUSH1 0x1 ADD SWAP1 PUSH3 0x252 JUMP JUMPDEST JUMPDEST POP SWAP1 POP PUSH3 0x27F SWAP2 SWAP1 PUSH3 0x283 JUMP JUMPDEST POP SWAP1 JUMP JUMPDEST JUMPDEST DUP1 DUP3 GT ISZERO PUSH3 0x29E JUMPI PUSH1 0x0 DUP2 PUSH1 0x0 SWAP1 SSTORE POP PUSH1 0x1 ADD PUSH3 0x284 JUMP JUMPDEST POP SWAP1 JUMP JUMPDEST PUSH1 0x0 PUSH1 0x40 MLOAD SWAP1 POP SWAP1 JUMP JUMPDEST PUSH1 0x0 DUP1 REVERT JUMPDEST PUSH1 0x0 DUP1 REVERT JUMPDEST PUSH1 0x0 PUSH20 0xFFFFFFFFFFFFFFFFFFFFFFFFFFFFFFFFFFFFFFFF DUP3 AND SWAP1 POP SWAP2 SWAP1 POP JUMP JUMPDEST PUSH1 0x0 PUSH3 0x2E3 DUP3 PUSH3 0x2B6 JUMP JUMPDEST SWAP1 POP SWAP2 SWAP1 POP JUMP JUMPDEST PUSH1 0x0 PUSH3 0x2F7 DUP3 PUSH3 0x2D6 JUMP JUMPDEST SWAP1 POP SWAP2 SWAP1 POP JUMP JUMPDEST PUSH3 0x309 DUP2 PUSH3 0x2EA JUMP JUMPDEST DUP2 EQ PUSH3 0x315 JUMPI PUSH1 0x0 DUP1 REVERT JUMPDEST POP JUMP JUMPDEST PUSH1 0x0 DUP2 MLOAD SWAP1 POP PUSH3 0x329 DUP2 PUSH3 0x2FE JUMP JUMPDEST SWAP3 SWAP2 POP POP JUMP JUMPDEST PUSH1 0x0 DUP1 REVERT JUMPDEST PUSH1 0x0 DUP1 REVERT JUMPDEST PUSH1 0x0 PUSH1 0x1F NOT PUSH1 0x1F DUP4 ADD AND SWAP1 POP SWAP2 SWAP1 POP JUMP JUMPDEST PUSH32 0x4E487B7100000000000000000000000000000000000000000000000000000000 PUSH1 0x0 MSTORE PUSH1 0x41 PUSH1 0x4 MSTORE PUSH1 0x24 PUSH1 0x0 REVERT JUMPDEST PUSH3 0x384 DUP3 PUSH3 0x339 JUMP JUMPDEST DUP2 ADD DUP2 DUP2 LT PUSH8 0xFFFFFFFFFFFFFFFF DUP3 GT OR ISZERO PUSH3 0x3A6 JUMPI PUSH3 0x3A5 PUSH3 0x34A JUMP JUMPDEST JUMPDEST DUP1 PUSH1 0x40 MSTORE POP POP POP JUMP JUMPDEST PUSH1 0x0 PUSH3 0x3BB PUSH3 0x2A2 JUMP JUMPDEST SWAP1 POP PUSH3 0x3C9 DUP3 DUP3 PUSH3 0x379 JUMP JUMPDEST SWAP2 SWAP1 POP JUMP JUMPDEST PUSH1 0x0 PUSH8 0xFFFFFFFFFFFFFFFF DUP3 GT ISZERO PUSH3 0x3EC JUMPI PUSH3 0x3EB PUSH3 0x34A JUMP JUMPDEST JUMPDEST PUSH3 0x3F7 DUP3 PUSH3 0x339 JUMP JUMPDEST SWAP1 POP PUSH1 0x20 DUP2 ADD SWAP1 POP SWAP2 SWAP1 POP JUMP JUMPDEST PUSH1 0x0 JUMPDEST DUP4 DUP2 LT ISZERO PUSH3 0x424 JUMPI DUP1 DUP3 ADD MLOAD DUP2 DUP5 ADD MSTORE PUSH1 0x20 DUP2 ADD SWAP1 POP PUSH3 0x407 JUMP JUMPDEST DUP4 DUP2 GT ISZERO PUSH3 0x434 JUMPI PUSH1 0x0 DUP5 DUP5 ADD MSTORE JUMPDEST POP POP POP POP JUMP JUMPDEST PUSH1 0x0 PUSH3 0x451 PUSH3 0x44B DUP5 PUSH3 0x3CE JUMP JUMPDEST PUSH3 0x3AF JUMP JUMPDEST SWAP1 POP DUP3 DUP2 MSTORE PUSH1 0x20 DUP2 ADD DUP5 DUP5 DUP5 ADD GT ISZERO PUSH3 0x470 JUMPI PUSH3 0x46F PUSH3 0x334 JUMP JUMPDEST JUMPDEST PUSH3 0x47D DUP5 DUP3 DUP6 PUSH3 0x404 JUMP JUMPDEST POP SWAP4 SWAP3 POP POP POP JUMP JUMPDEST PUSH1 0x0 DUP3 PUSH1 0x1F DUP4 ADD SLT PUSH3 0x49D JUMPI PUSH3 0x49C PUSH3 0x32F JUMP JUMPDEST JUMPDEST DUP2 MLOAD PUSH3 0x4AF DUP5 DUP3 PUSH1 0x20 DUP7 ADD PUSH3 0x43A JUMP JUMPDEST SWAP2 POP POP SWAP3 SWAP2 POP POP JUMP JUMPDEST PUSH1 0x0 PUSH1 0xFF DUP3 AND SWAP1 POP SWAP2 SWAP1 POP JUMP JUMPDEST PUSH3 0x4D0 DUP2 PUSH3 0x4B8 JUMP JUMPDEST DUP2 EQ PUSH3 0x4DC JUMPI PUSH1 0x0 DUP1 REVERT JUMPDEST POP JUMP JUMPDEST PUSH1 0x0 DUP2 MLOAD SWAP1 POP PUSH3 0x4F0 DUP2 PUSH3 0x4C5 JUMP JUMPDEST SWAP3 SWAP2 POP POP JUMP JUMPDEST PUSH1 0x0 DUP1 PUSH1 0x0 DUP1 PUSH1 0x80 DUP6 DUP8 SUB SLT ISZERO PUSH3 0x513 JUMPI PUSH3 0x512 PUSH3 0x2AC JUMP JUMPDEST JUMPDEST PUSH1 0x0 PUSH3 0x523 DUP8 DUP3 DUP9 ADD PUSH3 0x318 JUMP JUMPDEST SWAP5 POP POP PUSH1 0x20 DUP6 ADD MLOAD PUSH8 0xFFFFFFFFFFFFFFFF DUP2 GT ISZERO PUSH3 0x547 JUMPI PUSH3 0x546 PUSH3 0x2B1 JUMP JUMPDEST JUMPDEST PUSH3 0x555 DUP8 DUP3 DUP9 ADD PUSH3 0x485 JUMP JUMPDEST SWAP4 POP POP PUSH1 0x40 DUP6 ADD MLOAD PUSH8 0xFFFFFFFFFFFFFFFF DUP2 GT ISZERO PUSH3 0x579 JUMPI PUSH3 0x578 PUSH3 0x2B1 JUMP JUMPDEST JUMPDEST PUSH3 0x587 DUP8 DUP3 DUP9 ADD PUSH3 0x485 JUMP JUMPDEST SWAP3 POP POP PUSH1 0x60 PUSH3 0x59A DUP8 DUP3 DUP9 ADD PUSH3 0x4DF JUMP JUMPDEST SWAP2 POP POP SWAP3 SWAP6 SWAP2 SWAP5 POP SWAP3 POP JUMP JUMPDEST PUSH32 0x4E487B7100000000000000000000000000000000000000000000000000000000 PUSH1 0x0 MSTORE PUSH1 0x11 PUSH1 0x4 MSTORE PUSH1 0x24 PUSH1 0x0 REVERT JUMPDEST PUSH1 0x0 DUP2 PUSH1 0x1 SHR SWAP1 POP SWAP2 SWAP1 POP JUMP JUMPDEST PUSH1 0x0 DUP1 DUP3 SWAP2 POP DUP4 SWAP1 POP JUMPDEST PUSH1 0x1 DUP6 GT ISZERO PUSH3 0x634 JUMPI DUP1 DUP7 DIV DUP2 GT ISZERO PUSH3 0x60C JUMPI PUSH3 0x60B PUSH3 0x5A6 JUMP JUMPDEST JUMPDEST PUSH1 0x1 DUP6 AND ISZERO PUSH3 0x61C JUMPI DUP1 DUP3 MUL SWAP2 POP JUMPDEST DUP1 DUP2 MUL SWAP1 POP PUSH3 0x62C DUP6 PUSH3 0x5D5 JUMP JUMPDEST SWAP5 POP PUSH3 0x5EC JUMP JUMPDEST SWAP5 POP SWAP5 SWAP3 POP POP POP JUMP JUMPDEST PUSH1 0x0 DUP3 PUSH3 0x64F JUMPI PUSH1 0x1 SWAP1 POP PUSH3 0x722 JUMP JUMPDEST DUP2 PUSH3 0x65F JUMPI PUSH1 0x0 SWAP1 POP PUSH3 0x722 JUMP JUMPDEST DUP2 PUSH1 0x1 DUP2 EQ PUSH3 0x678 JUMPI PUSH1 0x2 DUP2 EQ PUSH3 0x683 JUMPI PUSH3 0x6B9 JUMP JUMPDEST PUSH1 0x1 SWAP2 POP POP PUSH3 0x722 JUMP JUMPDEST PUSH1 0xFF DUP5 GT ISZERO PUSH3 0x698 JUMPI PUSH3 0x697 PUSH3 0x5A6 JUMP JUMPDEST JUMPDEST DUP4 PUSH1 0x2 EXP SWAP2 POP DUP5 DUP3 GT ISZERO PUSH3 0x6B2 JUMPI PUSH3 0x6B1 PUSH3 0x5A6 JUMP JUMPDEST JUMPDEST POP PUSH3 0x722 JUMP JUMPDEST POP PUSH1 0x20 DUP4 LT PUSH2 0x133 DUP4 LT AND PUSH1 0x4E DUP5 LT PUSH1 0xB DUP5 LT AND OR ISZERO PUSH3 0x6F3 JUMPI DUP3 DUP3 EXP SWAP1 POP DUP4 DUP2 GT ISZERO PUSH3 0x6ED JUMPI PUSH3 0x6EC PUSH3 0x5A6 JUMP JUMPDEST JUMPDEST PUSH3 0x722 JUMP JUMPDEST PUSH3 0x702 DUP5 DUP5 DUP5 PUSH1 0x1 PUSH3 0x5E2 JUMP JUMPDEST SWAP3 POP SWAP1 POP DUP2 DUP5 DIV DUP2 GT ISZERO PUSH3 0x71C JUMPI PUSH3 0x71B PUSH3 0x5A6 JUMP JUMPDEST JUMPDEST DUP2 DUP2 MUL SWAP1 POP JUMPDEST SWAP4 SWAP3 POP POP POP JUMP JUMPDEST PUSH1 0x0 DUP2 SWAP1 POP SWAP2 SWAP1 POP JUMP JUMPDEST PUSH1 0x0 PUSH3 0x740 DUP3 PUSH3 0x729 JUMP JUMPDEST SWAP2 POP PUSH3 0x74D DUP4 PUSH3 0x4B8 JUMP JUMPDEST SWAP3 POP PUSH3 0x77C PUSH32 0xFFFFFFFFFFFFFFFFFFFFFFFFFFFFFFFFFFFFFFFFFFFFFFFFFFFFFFFFFFFFFFFF DUP5 DUP5 PUSH3 0x63D JUMP JUMPDEST SWAP1 POP SWAP3 SWAP2 POP POP JUMP JUMPDEST PUSH32 0x4E487B7100000000000000000000000000000000000000000000000000000000 PUSH1 0x0 MSTORE PUSH1 0x22 PUSH1 0x4 MSTORE PUSH1 0x24 PUSH1 0x0 REVERT JUMPDEST PUSH1 0x0 PUSH1 0x2 DUP3 DIV SWAP1 POP PUSH1 0x1 DUP3 AND DUP1 PUSH3 0x7CC JUMPI PUSH1 0x7F DUP3 AND SWAP2 POP JUMPDEST PUSH1 0x20 DUP3 LT DUP2 EQ ISZERO PUSH3 0x7E3 JUMPI PUSH3 0x7E2 PUSH3 0x784 JUMP JUMPDEST JUMPDEST POP SWAP2 SWAP1 POP JUMP JUMPDEST PUSH1 0x0 DUP2 SWAP1 POP SWAP3 SWAP2 POP POP JUMP JUMPDEST PUSH1 0x0 DUP2 SWAP1 POP DUP2 PUSH1 0x0 MSTORE PUSH1 0x20 PUSH1 0x0 KECCAK256 SWAP1 POP SWAP2 SWAP1 POP JUMP JUMPDEST PUSH1 0x0 DUP2 SLOAD PUSH3 0x818 DUP2 PUSH3 0x7B3 JUMP JUMPDEST PUSH3 0x824 DUP2 DUP7 PUSH3 0x7E9 JUMP JUMPDEST SWAP5 POP PUSH1 0x1 DUP3 AND PUSH1 0x0 DUP2 EQ PUSH3 0x842 JUMPI PUSH1 0x1 DUP2 EQ PUSH3 0x854 JUMPI PUSH3 0x88B JUMP JUMPDEST PUSH1 0xFF NOT DUP4 AND DUP7 MSTORE DUP2 DUP7 ADD SWAP4 POP PUSH3 0x88B JUMP JUMPDEST PUSH3 0x85F DUP6 PUSH3 0x7F4 JUMP JUMPDEST PUSH1 0x0 JUMPDEST DUP4 DUP2 LT ISZERO PUSH3 0x883 JUMPI DUP2 SLOAD DUP2 DUP10 ADD MSTORE PUSH1 0x1 DUP3 ADD SWAP2 POP PUSH1 0x20 DUP2 ADD SWAP1 POP PUSH3 0x862 JUMP JUMPDEST DUP4 DUP9 ADD SWAP6 POP POP POP JUMPDEST POP POP POP SWAP3 SWAP2 POP POP JUMP JUMPDEST PUSH1 0x0 PUSH3 0x8A2 DUP3 DUP5 PUSH3 0x809 JUMP JUMPDEST SWAP2 POP DUP2 SWAP1 POP SWAP3 SWAP2 POP POP JUMP JUMPDEST PUSH1 0x0 DUP2 SWAP1 POP SWAP2 SWAP1 POP JUMP JUMPDEST PUSH3 0x8C2 DUP2 PUSH3 0x8AD JUMP JUMPDEST DUP3 MSTORE POP POP JUMP JUMPDEST PUSH3 0x8D3 DUP2 PUSH3 0x729 JUMP JUMPDEST DUP3 MSTORE POP POP JUMP JUMPDEST PUSH3 0x8E4 DUP2 PUSH3 0x2D6 JUMP JUMPDEST DUP3 MSTORE POP POP JUMP JUMPDEST PUSH1 0x0 PUSH1 0xA0 DUP3 ADD SWAP1 POP PUSH3 0x901 PUSH1 0x0 DUP4 ADD DUP9 PUSH3 0x8B7 JUMP JUMPDEST PUSH3 0x910 PUSH1 0x20 DUP4 ADD DUP8 PUSH3 0x8B7 JUMP JUMPDEST PUSH3 0x91F PUSH1 0x40 DUP4 ADD DUP7 PUSH3 0x8B7 JUMP JUMPDEST PUSH3 0x92E PUSH1 0x60 DUP4 ADD DUP6 PUSH3 0x8C8 JUMP JUMPDEST PUSH3 0x93D PUSH1 0x80 DUP4 ADD DUP5 PUSH3 0x8D9 JUMP JUMPDEST SWAP7 SWAP6 POP POP POP POP POP POP JUMP JUMPDEST PUSH1 0x80 MLOAD PUSH1 0xA0 MLOAD PUSH1 0xC0 MLOAD PUSH1 0xE0 MLOAD PUSH2 0x100 MLOAD PUSH2 0x120 MLOAD PUSH2 0x37E4 PUSH3 0x9BE PUSH1 0x0 CODECOPY PUSH1 0x0 DUP2 DUP2 PUSH2 0xE29 ADD MSTORE PUSH2 0x1E05 ADD MSTORE PUSH1 0x0 POP POP PUSH1 0x0 DUP2 DUP2 PUSH2 0x89B ADD MSTORE DUP2 DUP2 PUSH2 0xFC4 ADD MSTORE DUP2 DUP2 PUSH2 0x10A4 ADD MSTORE DUP2 DUP2 PUSH2 0x1403 ADD MSTORE DUP2 DUP2 PUSH2 0x19FB ADD MSTORE PUSH2 0x1C9A ADD MSTORE PUSH1 0x0 PUSH2 0xF9D ADD MSTORE PUSH1 0x0 PUSH2 0xF69 ADD MSTORE PUSH1 0x0 PUSH2 0xD86 ADD MSTORE PUSH2 0x37E4 PUSH1 0x0 RETURN INVALID PUSH1 0x80 PUSH1 0x40 MSTORE CALLVALUE DUP1 ISZERO PUSH2 0x10 JUMPI PUSH1 0x0 DUP1 REVERT JUMPDEST POP PUSH1 0x4 CALLDATASIZE LT PUSH2 0x25E JUMPI PUSH1 0x0 CALLDATALOAD PUSH1 0xE0 SHR DUP1 PUSH4 0x94BF804D GT PUSH2 0x146 JUMPI DUP1 PUSH4 0xC63D75B6 GT PUSH2 0xC3 JUMPI DUP1 PUSH4 0xDD62ED3E GT PUSH2 0x87 JUMPI DUP1 PUSH4 0xDD62ED3E EQ PUSH2 0x7C1 JUMPI DUP1 PUSH4 0xECAD9565 EQ PUSH2 0x7F1 JUMPI DUP1 PUSH4 0xEF8B30F7 EQ PUSH2 0x80F JUMPI DUP1 PUSH4 0xF2FDE38B EQ PUSH2 0x83F JUMPI DUP1 PUSH4 0xF84D73F4 EQ PUSH2 0x85B JUMPI DUP1 PUSH4 0xFC407AE7 EQ PUSH2 0x879 JUMPI PUSH2 0x25E JUMP JUMPDEST DUP1 PUSH4 0xC63D75B6 EQ PUSH2 0x6E5 JUMPI DUP1 PUSH4 0xC6E6F592 EQ PUSH2 0x715 JUMPI DUP1 PUSH4 0xCE96CB77 EQ PUSH2 0x745 JUMPI DUP1 PUSH4 0xD505ACCF EQ PUSH2 0x775 JUMPI DUP1 PUSH4 0xD905777E EQ PUSH2 0x791 JUMPI PUSH2 0x25E JUMP JUMPDEST DUP1 PUSH4 0xB460AF94 GT PUSH2 0x10A JUMPI DUP1 PUSH4 0xB460AF94 EQ PUSH2 0x62D JUMPI DUP1 PUSH4 0xBA087652 EQ PUSH2 0x65D JUMPI DUP1 PUSH4 0xBC368A8A EQ PUSH2 0x68D JUMPI DUP1 PUSH4 0xBD662F88 EQ PUSH2 0x6AB JUMPI DUP1 PUSH4 0xC5D664C6 EQ PUSH2 0x6C7 JUMPI PUSH2 0x25E JUMP JUMPDEST DUP1 PUSH4 0x94BF804D EQ PUSH2 0x563 JUMPI DUP1 PUSH4 0x95D89B41 EQ PUSH2 0x593 JUMPI DUP1 PUSH4 0xA9059CBB EQ PUSH2 0x5B1 JUMPI DUP1 PUSH4 0xAC68A748 EQ PUSH2 0x5E1 JUMPI DUP1 PUSH4 0xB3D7F6B9 EQ PUSH2 0x5FD JUMPI PUSH2 0x25E JUMP JUMPDEST DUP1 PUSH4 0x3644E515 GT PUSH2 0x1DF JUMPI DUP1 PUSH4 0x6E553F65 GT PUSH2 0x1A3 JUMPI DUP1 PUSH4 0x6E553F65 EQ PUSH2 0x48F JUMPI DUP1 PUSH4 0x70A08231 EQ PUSH2 0x4BF JUMPI DUP1 PUSH4 0x715018A6 EQ PUSH2 0x4EF JUMPI DUP1 PUSH4 0x7CE3489B EQ PUSH2 0x4F9 JUMPI DUP1 PUSH4 0x7ECEBE00 EQ PUSH2 0x515 JUMPI DUP1 PUSH4 0x7FD6F15C EQ PUSH2 0x545 JUMPI PUSH2 0x25E JUMP JUMPDEST DUP1 PUSH4 0x3644E515 EQ PUSH2 0x3D5 JUMPI DUP1 PUSH4 0x38D52E0F EQ PUSH2 0x3F3 JUMPI DUP1 PUSH4 0x402D267D EQ PUSH2 0x411 JUMPI DUP1 PUSH4 0x481C6A75 EQ PUSH2 0x441 JUMPI DUP1 PUSH4 0x4CDAD506 EQ PUSH2 0x45F JUMPI PUSH2 0x25E JUMP JUMPDEST DUP1 PUSH4 0x18160DDD GT PUSH2 0x226 JUMPI DUP1 PUSH4 0x18160DDD EQ PUSH2 0x32F JUMPI DUP1 PUSH4 0x1C693478 EQ PUSH2 0x34D JUMPI DUP1 PUSH4 0x23B872DD EQ PUSH2 0x36B JUMPI DUP1 PUSH4 0x313CE567 EQ PUSH2 0x39B JUMPI DUP1 PUSH4 0x32FF7732 EQ PUSH2 0x3B9 JUMPI PUSH2 0x25E JUMP JUMPDEST DUP1 PUSH4 0x1E1D114 EQ PUSH2 0x263 JUMPI DUP1 PUSH4 0x6FDDE03 EQ PUSH2 0x281 JUMPI DUP1 PUSH4 0x7A2D13A EQ PUSH2 0x29F JUMPI DUP1 PUSH4 0x95EA7B3 EQ PUSH2 0x2CF JUMPI DUP1 PUSH4 0xA28A477 EQ PUSH2 0x2FF JUMPI JUMPDEST PUSH1 0x0 DUP1 REVERT JUMPDEST PUSH2 0x26B PUSH2 0x897 JUMP JUMPDEST PUSH1 0x40 MLOAD PUSH2 0x278 SWAP2 SWAP1 PUSH2 0x2828 JUMP JUMPDEST PUSH1 0x40 MLOAD DUP1 SWAP2 SUB SWAP1 RETURN JUMPDEST PUSH2 0x289 PUSH2 0x938 JUMP JUMPDEST PUSH1 0x40 MLOAD PUSH2 0x296 SWAP2 SWAP1 PUSH2 0x28DC JUMP JUMPDEST PUSH1 0x40 MLOAD DUP1 SWAP2 SUB SWAP1 RETURN JUMPDEST PUSH2 0x2B9 PUSH1 0x4 DUP1 CALLDATASIZE SUB DUP2 ADD SWAP1 PUSH2 0x2B4 SWAP2 SWAP1 PUSH2 0x292F JUMP JUMPDEST PUSH2 0x9C6 JUMP JUMPDEST PUSH1 0x40 MLOAD PUSH2 0x2C6 SWAP2 SWAP1 PUSH2 0x2828 JUMP JUMPDEST PUSH1 0x40 MLOAD DUP1 SWAP2 SUB SWAP1 RETURN JUMPDEST PUSH2 0x2E9 PUSH1 0x4 DUP1 CALLDATASIZE SUB DUP2 ADD SWAP1 PUSH2 0x2E4 SWAP2 SWAP1 PUSH2 0x29BA JUMP JUMPDEST PUSH2 0xA01 JUMP JUMPDEST PUSH1 0x40 MLOAD PUSH2 0x2F6 SWAP2 SWAP1 PUSH2 0x2A15 JUMP JUMPDEST PUSH1 0x40 MLOAD DUP1 SWAP2 SUB SWAP1 RETURN JUMPDEST PUSH2 0x319 PUSH1 0x4 DUP1 CALLDATASIZE SUB DUP2 ADD SWAP1 PUSH2 0x314 SWAP2 SWAP1 PUSH2 0x292F JUMP JUMPDEST PUSH2 0xAF3 JUMP JUMPDEST PUSH1 0x40 MLOAD PUSH2 0x326 SWAP2 SWAP1 PUSH2 0x2828 JUMP JUMPDEST PUSH1 0x40 MLOAD DUP1 SWAP2 SUB SWAP1 RETURN JUMPDEST PUSH2 0x337 PUSH2 0xB2E JUMP JUMPDEST PUSH1 0x40 MLOAD PUSH2 0x344 SWAP2 SWAP1 PUSH2 0x2828 JUMP JUMPDEST PUSH1 0x40 MLOAD DUP1 SWAP2 SUB SWAP1 RETURN JUMPDEST PUSH2 0x355 PUSH2 0xB34 JUMP JUMPDEST PUSH1 0x40 MLOAD PUSH2 0x362 SWAP2 SWAP1 PUSH2 0x2828 JUMP JUMPDEST PUSH1 0x40 MLOAD DUP1 SWAP2 SUB SWAP1 RETURN JUMPDEST PUSH2 0x385 PUSH1 0x4 DUP1 CALLDATASIZE SUB DUP2 ADD SWAP1 PUSH2 0x380 SWAP2 SWAP1 PUSH2 0x2A30 JUMP JUMPDEST PUSH2 0xB3A JUMP JUMPDEST PUSH1 0x40 MLOAD PUSH2 0x392 SWAP2 SWAP1 PUSH2 0x2A15 JUMP JUMPDEST PUSH1 0x40 MLOAD DUP1 SWAP2 SUB SWAP1 RETURN JUMPDEST PUSH2 0x3A3 PUSH2 0xD84 JUMP JUMPDEST PUSH1 0x40 MLOAD PUSH2 0x3B0 SWAP2 SWAP1 PUSH2 0x2A9F JUMP JUMPDEST PUSH1 0x40 MLOAD DUP1 SWAP2 SUB SWAP1 RETURN JUMPDEST PUSH2 0x3D3 PUSH1 0x4 DUP1 CALLDATASIZE SUB DUP2 ADD SWAP1 PUSH2 0x3CE SWAP2 SWAP1 PUSH2 0x2AE6 JUMP JUMPDEST PUSH2 0xDA8 JUMP JUMPDEST STOP JUMPDEST PUSH2 0x3DD PUSH2 0xF65 JUMP JUMPDEST PUSH1 0x40 MLOAD PUSH2 0x3EA SWAP2 SWAP1 PUSH2 0x2B2C JUMP JUMPDEST PUSH1 0x40 MLOAD DUP1 SWAP2 SUB SWAP1 RETURN JUMPDEST PUSH2 0x3FB PUSH2 0xFC2 JUMP JUMPDEST PUSH1 0x40 MLOAD PUSH2 0x408 SWAP2 SWAP1 PUSH2 0x2BA6 JUMP JUMPDEST PUSH1 0x40 MLOAD DUP1 SWAP2 SUB SWAP1 RETURN JUMPDEST PUSH2 0x42B PUSH1 0x4 DUP1 CALLDATASIZE SUB DUP2 ADD SWAP1 PUSH2 0x426 SWAP2 SWAP1 PUSH2 0x2BC1 JUMP JUMPDEST PUSH2 0xFE6 JUMP JUMPDEST PUSH1 0x40 MLOAD PUSH2 0x438 SWAP2 SWAP1 PUSH2 0x2828 JUMP JUMPDEST PUSH1 0x40 MLOAD DUP1 SWAP2 SUB SWAP1 RETURN JUMPDEST PUSH2 0x449 PUSH2 0x1010 JUMP JUMPDEST PUSH1 0x40 MLOAD PUSH2 0x456 SWAP2 SWAP1 PUSH2 0x2BFD JUMP JUMPDEST PUSH1 0x40 MLOAD DUP1 SWAP2 SUB SWAP1 RETURN JUMPDEST PUSH2 0x479 PUSH1 0x4 DUP1 CALLDATASIZE SUB DUP2 ADD SWAP1 PUSH2 0x474 SWAP2 SWAP1 PUSH2 0x292F JUMP JUMPDEST PUSH2 0x103A JUMP JUMPDEST PUSH1 0x40 MLOAD PUSH2 0x486 SWAP2 SWAP1 PUSH2 0x2828 JUMP JUMPDEST PUSH1 0x40 MLOAD DUP1 SWAP2 SUB SWAP1 RETURN JUMPDEST PUSH2 0x4A9 PUSH1 0x4 DUP1 CALLDATASIZE SUB DUP2 ADD SWAP1 PUSH2 0x4A4 SWAP2 SWAP1 PUSH2 0x2C18 JUMP JUMPDEST PUSH2 0x104C JUMP JUMPDEST PUSH1 0x40 MLOAD PUSH2 0x4B6 SWAP2 SWAP1 PUSH2 0x2828 JUMP JUMPDEST PUSH1 0x40 MLOAD DUP1 SWAP2 SUB SWAP1 RETURN JUMPDEST PUSH2 0x4D9 PUSH1 0x4 DUP1 CALLDATASIZE SUB DUP2 ADD SWAP1 PUSH2 0x4D4 SWAP2 SWAP1 PUSH2 0x2BC1 JUMP JUMPDEST PUSH2 0x116A JUMP JUMPDEST PUSH1 0x40 MLOAD PUSH2 0x4E6 SWAP2 SWAP1 PUSH2 0x2828 JUMP JUMPDEST PUSH1 0x40 MLOAD DUP1 SWAP2 SUB SWAP1 RETURN JUMPDEST PUSH2 0x4F7 PUSH2 0x1182 JUMP JUMPDEST STOP JUMPDEST PUSH2 0x513 PUSH1 0x4 DUP1 CALLDATASIZE SUB DUP2 ADD SWAP1 PUSH2 0x50E SWAP2 SWAP1 PUSH2 0x292F JUMP JUMPDEST PUSH2 0x12B8 JUMP JUMPDEST STOP JUMPDEST PUSH2 0x52F PUSH1 0x4 DUP1 CALLDATASIZE SUB DUP2 ADD SWAP1 PUSH2 0x52A SWAP2 SWAP1 PUSH2 0x2BC1 JUMP JUMPDEST PUSH2 0x13D0 JUMP JUMPDEST PUSH1 0x40 MLOAD PUSH2 0x53C SWAP2 SWAP1 PUSH2 0x2828 JUMP JUMPDEST PUSH1 0x40 MLOAD DUP1 SWAP2 SUB SWAP1 RETURN JUMPDEST PUSH2 0x54D PUSH2 0x13E8 JUMP JUMPDEST PUSH1 0x40 MLOAD PUSH2 0x55A SWAP2 SWAP1 PUSH2 0x2828 JUMP JUMPDEST PUSH1 0x40 MLOAD DUP1 SWAP2 SUB SWAP1 RETURN JUMPDEST PUSH2 0x57D PUSH1 0x4 DUP1 CALLDATASIZE SUB DUP2 ADD SWAP1 PUSH2 0x578 SWAP2 SWAP1 PUSH2 0x2C18 JUMP JUMPDEST PUSH2 0x13EE JUMP JUMPDEST PUSH1 0x40 MLOAD PUSH2 0x58A SWAP2 SWAP1 PUSH2 0x2828 JUMP JUMPDEST PUSH1 0x40 MLOAD DUP1 SWAP2 SUB SWAP1 RETURN JUMPDEST PUSH2 0x59B PUSH2 0x14C9 JUMP JUMPDEST PUSH1 0x40 MLOAD PUSH2 0x5A8 SWAP2 SWAP1 PUSH2 0x28DC JUMP JUMPDEST PUSH1 0x40 MLOAD DUP1 SWAP2 SUB SWAP1 RETURN JUMPDEST PUSH2 0x5CB PUSH1 0x4 DUP1 CALLDATASIZE SUB DUP2 ADD SWAP1 PUSH2 0x5C6 SWAP2 SWAP1 PUSH2 0x29BA JUMP JUMPDEST PUSH2 0x1557 JUMP JUMPDEST PUSH1 0x40 MLOAD PUSH2 0x5D8 SWAP2 SWAP1 PUSH2 0x2A15 JUMP JUMPDEST PUSH1 0x40 MLOAD DUP1 SWAP2 SUB SWAP1 RETURN JUMPDEST PUSH2 0x5FB PUSH1 0x4 DUP1 CALLDATASIZE SUB DUP2 ADD SWAP1 PUSH2 0x5F6 SWAP2 SWAP1 PUSH2 0x292F JUMP JUMPDEST PUSH2 0x166B JUMP JUMPDEST STOP JUMPDEST PUSH2 0x617 PUSH1 0x4 DUP1 CALLDATASIZE SUB DUP2 ADD SWAP1 PUSH2 0x612 SWAP2 SWAP1 PUSH2 0x292F JUMP JUMPDEST PUSH2 0x17B0 JUMP JUMPDEST PUSH1 0x40 MLOAD PUSH2 0x624 SWAP2 SWAP1 PUSH2 0x2828 JUMP JUMPDEST PUSH1 0x40 MLOAD DUP1 SWAP2 SUB SWAP1 RETURN JUMPDEST PUSH2 0x647 PUSH1 0x4 DUP1 CALLDATASIZE SUB DUP2 ADD SWAP1 PUSH2 0x642 SWAP2 SWAP1 PUSH2 0x2C58 JUMP JUMPDEST PUSH2 0x17EB JUMP JUMPDEST PUSH1 0x40 MLOAD PUSH2 0x654 SWAP2 SWAP1 PUSH2 0x2828 JUMP JUMPDEST PUSH1 0x40 MLOAD DUP1 SWAP2 SUB SWAP1 RETURN JUMPDEST PUSH2 0x677 PUSH1 0x4 DUP1 CALLDATASIZE SUB DUP2 ADD SWAP1 PUSH2 0x672 SWAP2 SWAP1 PUSH2 0x2C58 JUMP JUMPDEST PUSH2 0x1A46 JUMP JUMPDEST PUSH1 0x40 MLOAD PUSH2 0x684 SWAP2 SWAP1 PUSH2 0x2828 JUMP JUMPDEST PUSH1 0x40 MLOAD DUP1 SWAP2 SUB SWAP1 RETURN JUMPDEST PUSH2 0x695 PUSH2 0x1CE5 JUMP JUMPDEST PUSH1 0x40 MLOAD PUSH2 0x6A2 SWAP2 SWAP1 PUSH2 0x2828 JUMP JUMPDEST PUSH1 0x40 MLOAD DUP1 SWAP2 SUB SWAP1 RETURN JUMPDEST PUSH2 0x6C5 PUSH1 0x4 DUP1 CALLDATASIZE SUB DUP2 ADD SWAP1 PUSH2 0x6C0 SWAP2 SWAP1 PUSH2 0x292F JUMP JUMPDEST PUSH2 0x1CEB JUMP JUMPDEST STOP JUMPDEST PUSH2 0x6CF PUSH2 0x1E03 JUMP JUMPDEST PUSH1 0x40 MLOAD PUSH2 0x6DC SWAP2 SWAP1 PUSH2 0x2BA6 JUMP JUMPDEST PUSH1 0x40 MLOAD DUP1 SWAP2 SUB SWAP1 RETURN JUMPDEST PUSH2 0x6FF PUSH1 0x4 DUP1 CALLDATASIZE SUB DUP2 ADD SWAP1 PUSH2 0x6FA SWAP2 SWAP1 PUSH2 0x2BC1 JUMP JUMPDEST PUSH2 0x1E27 JUMP JUMPDEST PUSH1 0x40 MLOAD PUSH2 0x70C SWAP2 SWAP1 PUSH2 0x2828 JUMP JUMPDEST PUSH1 0x40 MLOAD DUP1 SWAP2 SUB SWAP1 RETURN JUMPDEST PUSH2 0x72F PUSH1 0x4 DUP1 CALLDATASIZE SUB DUP2 ADD SWAP1 PUSH2 0x72A SWAP2 SWAP1 PUSH2 0x292F JUMP JUMPDEST PUSH2 0x1E51 JUMP JUMPDEST PUSH1 0x40 MLOAD PUSH2 0x73C SWAP2 SWAP1 PUSH2 0x2828 JUMP JUMPDEST PUSH1 0x40 MLOAD DUP1 SWAP2 SUB SWAP1 RETURN JUMPDEST PUSH2 0x75F PUSH1 0x4 DUP1 CALLDATASIZE SUB DUP2 ADD SWAP1 PUSH2 0x75A SWAP2 SWAP1 PUSH2 0x2BC1 JUMP JUMPDEST PUSH2 0x1E8C JUMP JUMPDEST PUSH1 0x40 MLOAD PUSH2 0x76C SWAP2 SWAP1 PUSH2 0x2828 JUMP JUMPDEST PUSH1 0x40 MLOAD DUP1 SWAP2 SUB SWAP1 RETURN JUMPDEST PUSH2 0x78F PUSH1 0x4 DUP1 CALLDATASIZE SUB DUP2 ADD SWAP1 PUSH2 0x78A SWAP2 SWAP1 PUSH2 0x2D03 JUMP JUMPDEST PUSH2 0x1EDD JUMP JUMPDEST STOP JUMPDEST PUSH2 0x7AB PUSH1 0x4 DUP1 CALLDATASIZE SUB DUP2 ADD SWAP1 PUSH2 0x7A6 SWAP2 SWAP1 PUSH2 0x2BC1 JUMP JUMPDEST PUSH2 0x21D6 JUMP JUMPDEST PUSH1 0x40 MLOAD PUSH2 0x7B8 SWAP2 SWAP1 PUSH2 0x2828 JUMP JUMPDEST PUSH1 0x40 MLOAD DUP1 SWAP2 SUB SWAP1 RETURN JUMPDEST PUSH2 0x7DB PUSH1 0x4 DUP1 CALLDATASIZE SUB DUP2 ADD SWAP1 PUSH2 0x7D6 SWAP2 SWAP1 PUSH2 0x2DA5 JUMP JUMPDEST PUSH2 0x221F JUMP JUMPDEST PUSH1 0x40 MLOAD PUSH2 0x7E8 SWAP2 SWAP1 PUSH2 0x2828 JUMP JUMPDEST PUSH1 0x40 MLOAD DUP1 SWAP2 SUB SWAP1 RETURN JUMPDEST PUSH2 0x7F9 PUSH2 0x2244 JUMP JUMPDEST PUSH1 0x40 MLOAD PUSH2 0x806 SWAP2 SWAP1 PUSH2 0x2828 JUMP JUMPDEST PUSH1 0x40 MLOAD DUP1 SWAP2 SUB SWAP1 RETURN JUMPDEST PUSH2 0x829 PUSH1 0x4 DUP1 CALLDATASIZE SUB DUP2 ADD SWAP1 PUSH2 0x824 SWAP2 SWAP1 PUSH2 0x292F JUMP JUMPDEST PUSH2 0x224A JUMP JUMPDEST PUSH1 0x40 MLOAD PUSH2 0x836 SWAP2 SWAP1 PUSH2 0x2828 JUMP JUMPDEST PUSH1 0x40 MLOAD DUP1 SWAP2 SUB SWAP1 RETURN JUMPDEST PUSH2 0x859 PUSH1 0x4 DUP1 CALLDATASIZE SUB DUP2 ADD SWAP1 PUSH2 0x854 SWAP2 SWAP1 PUSH2 0x2BC1 JUMP JUMPDEST PUSH2 0x225C JUMP JUMPDEST STOP JUMPDEST PUSH2 0x863 PUSH2 0x2401 JUMP JUMPDEST PUSH1 0x40 MLOAD PUSH2 0x870 SWAP2 SWAP1 PUSH2 0x2A15 JUMP JUMPDEST PUSH1 0x40 MLOAD DUP1 SWAP2 SUB SWAP1 RETURN JUMPDEST PUSH2 0x881 PUSH2 0x2414 JUMP JUMPDEST PUSH1 0x40 MLOAD PUSH2 0x88E SWAP2 SWAP1 PUSH2 0x2828 JUMP JUMPDEST PUSH1 0x40 MLOAD DUP1 SWAP2 SUB SWAP1 RETURN JUMPDEST PUSH1 0x0 PUSH32 0x0 PUSH20 0xFFFFFFFFFFFFFFFFFFFFFFFFFFFFFFFFFFFFFFFF AND PUSH4 0x70A08231 ADDRESS PUSH1 0x40 MLOAD DUP3 PUSH4 0xFFFFFFFF AND PUSH1 0xE0 SHL DUP2 MSTORE PUSH1 0x4 ADD PUSH2 0x8F2 SWAP2 SWAP1 PUSH2 0x2BFD JUMP JUMPDEST PUSH1 0x20 PUSH1 0x40 MLOAD DUP1 DUP4 SUB DUP2 DUP7 GAS STATICCALL ISZERO DUP1 ISZERO PUSH2 0x90F JUMPI RETURNDATASIZE PUSH1 0x0 DUP1 RETURNDATACOPY RETURNDATASIZE PUSH1 0x0 REVERT JUMPDEST POP POP POP POP PUSH1 0x40 MLOAD RETURNDATASIZE PUSH1 0x1F NOT PUSH1 0x1F DUP3 ADD AND DUP3 ADD DUP1 PUSH1 0x40 MSTORE POP DUP2 ADD SWAP1 PUSH2 0x933 SWAP2 SWAP1 PUSH2 0x2DFA JUMP JUMPDEST SWAP1 POP SWAP1 JUMP JUMPDEST PUSH1 0x0 DUP1 SLOAD PUSH2 0x945 SWAP1 PUSH2 0x2E56 JUMP JUMPDEST DUP1 PUSH1 0x1F ADD PUSH1 0x20 DUP1 SWAP2 DIV MUL PUSH1 0x20 ADD PUSH1 0x40 MLOAD SWAP1 DUP2 ADD PUSH1 0x40 MSTORE DUP1 SWAP3 SWAP2 SWAP1 DUP2 DUP2 MSTORE PUSH1 0x20 ADD DUP3 DUP1 SLOAD PUSH2 0x971 SWAP1 PUSH2 0x2E56 JUMP JUMPDEST DUP1 ISZERO PUSH2 0x9BE JUMPI DUP1 PUSH1 0x1F LT PUSH2 0x993 JUMPI PUSH2 0x100 DUP1 DUP4 SLOAD DIV MUL DUP4 MSTORE SWAP2 PUSH1 0x20 ADD SWAP2 PUSH2 0x9BE JUMP JUMPDEST DUP3 ADD SWAP2 SWAP1 PUSH1 0x0 MSTORE PUSH1 0x20 PUSH1 0x0 KECCAK256 SWAP1 JUMPDEST DUP2 SLOAD DUP2 MSTORE SWAP1 PUSH1 0x1 ADD SWAP1 PUSH1 0x20 ADD DUP1 DUP4 GT PUSH2 0x9A1 JUMPI DUP3 SWAP1 SUB PUSH1 0x1F AND DUP3 ADD SWAP2 JUMPDEST POP POP POP POP POP DUP2 JUMP JUMPDEST PUSH1 0x0 DUP1 PUSH1 0x2 SLOAD SWAP1 POP PUSH1 0x0 DUP2 EQ PUSH2 0x9F7 JUMPI PUSH2 0x9F2 PUSH2 0x9E1 PUSH2 0x897 JUMP JUMPDEST DUP3 DUP6 PUSH2 0x241A SWAP1 SWAP3 SWAP2 SWAP1 PUSH4 0xFFFFFFFF AND JUMP JUMPDEST PUSH2 0x9F9 JUMP JUMPDEST DUP3 JUMPDEST SWAP2 POP POP SWAP2 SWAP1 POP JUMP JUMPDEST PUSH1 0x0 DUP2 PUSH1 0x4 PUSH1 0x0 CALLER PUSH20 0xFFFFFFFFFFFFFFFFFFFFFFFFFFFFFFFFFFFFFFFF AND PUSH20 0xFFFFFFFFFFFFFFFFFFFFFFFFFFFFFFFFFFFFFFFF AND DUP2 MSTORE PUSH1 0x20 ADD SWAP1 DUP2 MSTORE PUSH1 0x20 ADD PUSH1 0x0 KECCAK256 PUSH1 0x0 DUP6 PUSH20 0xFFFFFFFFFFFFFFFFFFFFFFFFFFFFFFFFFFFFFFFF AND PUSH20 0xFFFFFFFFFFFFFFFFFFFFFFFFFFFFFFFFFFFFFFFF AND DUP2 MSTORE PUSH1 0x20 ADD SWAP1 DUP2 MSTORE PUSH1 0x20 ADD PUSH1 0x0 KECCAK256 DUP2 SWAP1 SSTORE POP DUP3 PUSH20 0xFFFFFFFFFFFFFFFFFFFFFFFFFFFFFFFFFFFFFFFF AND CALLER PUSH20 0xFFFFFFFFFFFFFFFFFFFFFFFFFFFFFFFFFFFFFFFF AND PUSH32 0x8C5BE1E5EBEC7D5BD14F71427D1E84F3DD0314C0F7B2291E5B200AC8C7C3B925 DUP5 PUSH1 0x40 MLOAD PUSH2 0xAE1 SWAP2 SWAP1 PUSH2 0x2828 JUMP JUMPDEST PUSH1 0x40 MLOAD DUP1 SWAP2 SUB SWAP1 LOG3 PUSH1 0x1 SWAP1 POP SWAP3 SWAP2 POP POP JUMP JUMPDEST PUSH1 0x0 DUP1 PUSH1 0x2 SLOAD SWAP1 POP PUSH1 0x0 DUP2 EQ PUSH2 0xB24 JUMPI PUSH2 0xB1F DUP2 PUSH2 0xB0F PUSH2 0x897 JUMP JUMPDEST DUP6 PUSH2 0x2442 SWAP1 SWAP3 SWAP2 SWAP1 PUSH4 0xFFFFFFFF AND JUMP JUMPDEST PUSH2 0xB26 JUMP JUMPDEST DUP3 JUMPDEST SWAP2 POP POP SWAP2 SWAP1 POP JUMP JUMPDEST PUSH1 0x2 SLOAD DUP2 JUMP JUMPDEST PUSH1 0xA SLOAD DUP2 JUMP JUMPDEST PUSH1 0x0 DUP1 PUSH1 0x4 PUSH1 0x0 DUP7 PUSH20 0xFFFFFFFFFFFFFFFFFFFFFFFFFFFFFFFFFFFFFFFF AND PUSH20 0xFFFFFFFFFFFFFFFFFFFFFFFFFFFFFFFFFFFFFFFF AND DUP2 MSTORE PUSH1 0x20 ADD SWAP1 DUP2 MSTORE PUSH1 0x20 ADD PUSH1 0x0 KECCAK256 PUSH1 0x0 CALLER PUSH20 0xFFFFFFFFFFFFFFFFFFFFFFFFFFFFFFFFFFFFFFFF AND PUSH20 0xFFFFFFFFFFFFFFFFFFFFFFFFFFFFFFFFFFFFFFFF AND DUP2 MSTORE PUSH1 0x20 ADD SWAP1 DUP2 MSTORE PUSH1 0x20 ADD PUSH1 0x0 KECCAK256 SLOAD SWAP1 POP PUSH32 0xFFFFFFFFFFFFFFFFFFFFFFFFFFFFFFFFFFFFFFFFFFFFFFFFFFFFFFFFFFFFFFFF DUP2 EQ PUSH2 0xC70 JUMPI DUP3 DUP2 PUSH2 0xBEF SWAP2 SWAP1 PUSH2 0x2EB7 JUMP JUMPDEST PUSH1 0x4 PUSH1 0x0 DUP8 PUSH20 0xFFFFFFFFFFFFFFFFFFFFFFFFFFFFFFFFFFFFFFFF AND PUSH20 0xFFFFFFFFFFFFFFFFFFFFFFFFFFFFFFFFFFFFFFFF AND DUP2 MSTORE PUSH1 0x20 ADD SWAP1 DUP2 MSTORE PUSH1 0x20 ADD PUSH1 0x0 KECCAK256 PUSH1 0x0 CALLER PUSH20 0xFFFFFFFFFFFFFFFFFFFFFFFFFFFFFFFFFFFFFFFF AND PUSH20 0xFFFFFFFFFFFFFFFFFFFFFFFFFFFFFFFFFFFFFFFF AND DUP2 MSTORE PUSH1 0x20 ADD SWAP1 DUP2 MSTORE PUSH1 0x20 ADD PUSH1 0x0 KECCAK256 DUP2 SWAP1 SSTORE POP JUMPDEST DUP3 PUSH1 0x3 PUSH1 0x0 DUP8 PUSH20 0xFFFFFFFFFFFFFFFFFFFFFFFFFFFFFFFFFFFFFFFF AND PUSH20 0xFFFFFFFFFFFFFFFFFFFFFFFFFFFFFFFFFFFFFFFF AND DUP2 MSTORE PUSH1 0x20 ADD SWAP1 DUP2 MSTORE PUSH1 0x20 ADD PUSH1 0x0 KECCAK256 PUSH1 0x0 DUP3 DUP3 SLOAD PUSH2 0xCBF SWAP2 SWAP1 PUSH2 0x2EB7 JUMP JUMPDEST SWAP3 POP POP DUP2 SWAP1 SSTORE POP DUP3 PUSH1 0x3 PUSH1 0x0 DUP7 PUSH20 0xFFFFFFFFFFFFFFFFFFFFFFFFFFFFFFFFFFFFFFFF AND PUSH20 0xFFFFFFFFFFFFFFFFFFFFFFFFFFFFFFFFFFFFFFFF AND DUP2 MSTORE PUSH1 0x20 ADD SWAP1 DUP2 MSTORE PUSH1 0x20 ADD PUSH1 0x0 KECCAK256 PUSH1 0x0 DUP3 DUP3 SLOAD ADD SWAP3 POP POP DUP2 SWAP1 SSTORE POP DUP4 PUSH20 0xFFFFFFFFFFFFFFFFFFFFFFFFFFFFFFFFFFFFFFFF AND DUP6 PUSH20 0xFFFFFFFFFFFFFFFFFFFFFFFFFFFFFFFFFFFFFFFF AND PUSH32 0xDDF252AD1BE2C89B69C2B068FC378DAA952BA7F163C4A11628F55A4DF523B3EF DUP6 PUSH1 0x40 MLOAD PUSH2 0xD70 SWAP2 SWAP1 PUSH2 0x2828 JUMP JUMPDEST PUSH1 0x40 MLOAD DUP1 SWAP2 SUB SWAP1 LOG3 PUSH1 0x1 SWAP2 POP POP SWAP4 SWAP3 POP POP POP JUMP JUMPDEST PUSH32 0x0 DUP2 JUMP JUMPDEST CALLER PUSH20 0xFFFFFFFFFFFFFFFFFFFFFFFFFFFFFFFFFFFFFFFF AND PUSH2 0xDC7 PUSH2 0x1010 JUMP JUMPDEST PUSH20 0xFFFFFFFFFFFFFFFFFFFFFFFFFFFFFFFFFFFFFFFF AND EQ PUSH2 0xE1D JUMPI PUSH1 0x40 MLOAD PUSH32 0x8C379A000000000000000000000000000000000000000000000000000000000 DUP2 MSTORE PUSH1 0x4 ADD PUSH2 0xE14 SWAP1 PUSH2 0x2F5D JUMP JUMPDEST PUSH1 0x40 MLOAD DUP1 SWAP2 SUB SWAP1 REVERT JUMPDEST DUP1 ISZERO DUP1 PUSH2 0xEBB JUMPI POP PUSH1 0x12 PUSH32 0x0 PUSH20 0xFFFFFFFFFFFFFFFFFFFFFFFFFFFFFFFFFFFFFFFF AND PUSH4 0x313CE567 PUSH1 0x40 MLOAD DUP2 PUSH4 0xFFFFFFFF AND PUSH1 0xE0 SHL DUP2 MSTORE PUSH1 0x4 ADD PUSH1 0x20 PUSH1 0x40 MLOAD DUP1 DUP4 SUB DUP2 DUP7 GAS STATICCALL ISZERO DUP1 ISZERO PUSH2 0xE92 JUMPI RETURNDATASIZE PUSH1 0x0 DUP1 RETURNDATACOPY RETURNDATASIZE PUSH1 0x0 REVERT JUMPDEST POP POP POP POP PUSH1 0x40 MLOAD RETURNDATASIZE PUSH1 0x1F NOT PUSH1 0x1F DUP3 ADD AND DUP3 ADD DUP1 PUSH1 0x40 MSTORE POP DUP2 ADD SWAP1 PUSH2 0xEB6 SWAP2 SWAP1 PUSH2 0x2F92 JUMP JUMPDEST PUSH1 0xFF AND EQ JUMPDEST PUSH2 0xEFA JUMPI PUSH1 0x40 MLOAD PUSH32 0x8C379A000000000000000000000000000000000000000000000000000000000 DUP2 MSTORE PUSH1 0x4 ADD PUSH2 0xEF1 SWAP1 PUSH2 0x300B JUMP JUMPDEST PUSH1 0x40 MLOAD DUP1 SWAP2 SUB SWAP1 REVERT JUMPDEST DUP1 PUSH1 0xB PUSH1 0x0 PUSH2 0x100 EXP DUP2 SLOAD DUP2 PUSH1 0xFF MUL NOT AND SWAP1 DUP4 ISZERO ISZERO MUL OR SWAP1 SSTORE POP CALLER PUSH20 0xFFFFFFFFFFFFFFFFFFFFFFFFFFFFFFFFFFFFFFFF AND PUSH32 0x6375B140D4463D47B864F1F47E5D2893CC3478E73AEDCC268B054FAB0230A841 DUP3 PUSH1 0x40 MLOAD PUSH2 0xF5A SWAP2 SWAP1 PUSH2 0x2A15 JUMP JUMPDEST PUSH1 0x40 MLOAD DUP1 SWAP2 SUB SWAP1 LOG2 POP JUMP JUMPDEST PUSH1 0x0 PUSH32 0x0 CHAINID EQ PUSH2 0xF9B JUMPI PUSH2 0xF96 PUSH2 0x2474 JUMP JUMPDEST PUSH2 0xFBD JUMP JUMPDEST PUSH32 0x0 JUMPDEST SWAP1 POP SWAP1 JUMP JUMPDEST PUSH32 0x0 DUP2 JUMP JUMPDEST PUSH1 0x0 PUSH32 0xFFFFFFFFFFFFFFFFFFFFFFFFFFFFFFFFFFFFFFFFFFFFFFFFFFFFFFFFFFFFFFFF SWAP1 POP SWAP2 SWAP1 POP JUMP JUMPDEST PUSH1 0x0 PUSH1 0x6 PUSH1 0x0 SWAP1 SLOAD SWAP1 PUSH2 0x100 EXP SWAP1 DIV PUSH20 0xFFFFFFFFFFFFFFFFFFFFFFFFFFFFFFFFFFFFFFFF AND SWAP1 POP SWAP1 JUMP JUMPDEST PUSH1 0x0 PUSH2 0x1045 DUP3 PUSH2 0x9C6 JUMP JUMPDEST SWAP1 POP SWAP2 SWAP1 POP JUMP JUMPDEST PUSH1 0x0 DUP1 PUSH2 0x1058 DUP5 PUSH2 0x224A JUMP JUMPDEST SWAP2 POP DUP2 EQ ISZERO PUSH2 0x109C JUMPI PUSH1 0x40 MLOAD PUSH32 0x8C379A000000000000000000000000000000000000000000000000000000000 DUP2 MSTORE PUSH1 0x4 ADD PUSH2 0x1093 SWAP1 PUSH2 0x3077 JUMP JUMPDEST PUSH1 0x40 MLOAD DUP1 SWAP2 SUB SWAP1 REVERT JUMPDEST PUSH2 0x10E9 CALLER ADDRESS DUP6 PUSH32 0x0 PUSH20 0xFFFFFFFFFFFFFFFFFFFFFFFFFFFFFFFFFFFFFFFF AND PUSH2 0x2500 SWAP1 SWAP4 SWAP3 SWAP2 SWAP1 PUSH4 0xFFFFFFFF AND JUMP JUMPDEST PUSH2 0x10F3 DUP3 DUP3 PUSH2 0x259F JUMP JUMPDEST DUP2 PUSH20 0xFFFFFFFFFFFFFFFFFFFFFFFFFFFFFFFFFFFFFFFF AND CALLER PUSH20 0xFFFFFFFFFFFFFFFFFFFFFFFFFFFFFFFFFFFFFFFF AND PUSH32 0xDCBC1C05240F31FF3AD067EF1EE35CE4997762752E3A095284754544F4C709D7 DUP6 DUP5 PUSH1 0x40 MLOAD PUSH2 0x1152 SWAP3 SWAP2 SWAP1 PUSH2 0x3097 JUMP JUMPDEST PUSH1 0x40 MLOAD DUP1 SWAP2 SUB SWAP1 LOG3 PUSH2 0x1164 DUP4 DUP3 PUSH2 0x266F JUMP JUMPDEST SWAP3 SWAP2 POP POP JUMP JUMPDEST PUSH1 0x3 PUSH1 0x20 MSTORE DUP1 PUSH1 0x0 MSTORE PUSH1 0x40 PUSH1 0x0 KECCAK256 PUSH1 0x0 SWAP2 POP SWAP1 POP SLOAD DUP2 JUMP JUMPDEST CALLER PUSH20 0xFFFFFFFFFFFFFFFFFFFFFFFFFFFFFFFFFFFFFFFF AND PUSH2 0x11A1 PUSH2 0x1010 JUMP JUMPDEST PUSH20 0xFFFFFFFFFFFFFFFFFFFFFFFFFFFFFFFFFFFFFFFF AND EQ PUSH2 0x11F7 JUMPI PUSH1 0x40 MLOAD PUSH32 0x8C379A000000000000000000000000000000000000000000000000000000000 DUP2 MSTORE PUSH1 0x4 ADD PUSH2 0x11EE SWAP1 PUSH2 0x2F5D JUMP JUMPDEST PUSH1 0x40 MLOAD DUP1 SWAP2 SUB SWAP1 REVERT JUMPDEST PUSH1 0x0 PUSH20 0xFFFFFFFFFFFFFFFFFFFFFFFFFFFFFFFFFFFFFFFF AND PUSH1 0x6 PUSH1 0x0 SWAP1 SLOAD SWAP1 PUSH2 0x100 EXP SWAP1 DIV PUSH20 0xFFFFFFFFFFFFFFFFFFFFFFFFFFFFFFFFFFFFFFFF AND PUSH20 0xFFFFFFFFFFFFFFFFFFFFFFFFFFFFFFFFFFFFFFFF AND PUSH32 0x8BE0079C531659141344CD1FD0A4F28419497F9722A3DAAFE3B4186F6B6457E0 PUSH1 0x40 MLOAD PUSH1 0x40 MLOAD DUP1 SWAP2 SUB SWAP1 LOG3 PUSH1 0x0 PUSH1 0x6 PUSH1 0x0 PUSH2 0x100 EXP DUP2 SLOAD DUP2 PUSH20 0xFFFFFFFFFFFFFFFFFFFFFFFFFFFFFFFFFFFFFFFF MUL NOT AND SWAP1 DUP4 PUSH20 0xFFFFFFFFFFFFFFFFFFFFFFFFFFFFFFFFFFFFFFFF AND MUL OR SWAP1 SSTORE POP JUMP JUMPDEST CALLER PUSH20 0xFFFFFFFFFFFFFFFFFFFFFFFFFFFFFFFFFFFFFFFF AND PUSH2 0x12D7 PUSH2 0x1010 JUMP JUMPDEST PUSH20 0xFFFFFFFFFFFFFFFFFFFFFFFFFFFFFFFFFFFFFFFF AND EQ PUSH2 0x132D JUMPI PUSH1 0x40 MLOAD PUSH32 0x8C379A000000000000000000000000000000000000000000000000000000000 DUP2 MSTORE PUSH1 0x4 ADD PUSH2 0x1324 SWAP1 PUSH2 0x2F5D JUMP JUMPDEST PUSH1 0x40 MLOAD DUP1 SWAP2 SUB SWAP1 REVERT JUMPDEST PUSH8 0xDE0B6B3A7640000 DUP2 GT ISZERO PUSH2 0x1378 JUMPI PUSH1 0x40 MLOAD PUSH32 0x8C379A000000000000000000000000000000000000000000000000000000000 DUP2 MSTORE PUSH1 0x4 ADD PUSH2 0x136F SWAP1 PUSH2 0x310C JUMP JUMPDEST PUSH1 0x40 MLOAD DUP1 SWAP2 SUB SWAP1 REVERT JUMPDEST DUP1 PUSH1 0x9 DUP2 SWAP1 SSTORE POP CALLER PUSH20 0xFFFFFFFFFFFFFFFFFFFFFFFFFFFFFFFFFFFFFFFF AND PUSH32 0xEC370615CC81FB334E5566FBC80664D9082377BF59288D64A79F3FBECF4323A9 DUP3 PUSH1 0x40 MLOAD PUSH2 0x13C5 SWAP2 SWAP1 PUSH2 0x2828 JUMP JUMPDEST PUSH1 0x40 MLOAD DUP1 SWAP2 SUB SWAP1 LOG2 POP JUMP JUMPDEST PUSH1 0x5 PUSH1 0x20 MSTORE DUP1 PUSH1 0x0 MSTORE PUSH1 0x40 PUSH1 0x0 KECCAK256 PUSH1 0x0 SWAP2 POP SWAP1 POP SLOAD DUP2 JUMP JUMPDEST PUSH1 0x9 SLOAD DUP2 JUMP JUMPDEST PUSH1 0x0 PUSH2 0x13F9 DUP4 PUSH2 0x17B0 JUMP JUMPDEST SWAP1 POP PUSH2 0x1448 CALLER ADDRESS DUP4 PUSH32 0x0 PUSH20 0xFFFFFFFFFFFFFFFFFFFFFFFFFFFFFFFFFFFFFFFF AND PUSH2 0x2500 SWAP1 SWAP4 SWAP3 SWAP2 SWAP1 PUSH4 0xFFFFFFFF AND JUMP JUMPDEST PUSH2 0x1452 DUP3 DUP5 PUSH2 0x259F JUMP JUMPDEST DUP2 PUSH20 0xFFFFFFFFFFFFFFFFFFFFFFFFFFFFFFFFFFFFFFFF AND CALLER PUSH20 0xFFFFFFFFFFFFFFFFFFFFFFFFFFFFFFFFFFFFFFFF AND PUSH32 0xDCBC1C05240F31FF3AD067EF1EE35CE4997762752E3A095284754544F4C709D7 DUP4 DUP7 PUSH1 0x40 MLOAD PUSH2 0x14B1 SWAP3 SWAP2 SWAP1 PUSH2 0x3097 JUMP JUMPDEST PUSH1 0x40 MLOAD DUP1 SWAP2 SUB SWAP1 LOG3 PUSH2 0x14C3 DUP2 DUP5 PUSH2 0x266F JUMP JUMPDEST SWAP3 SWAP2 POP POP JUMP JUMPDEST PUSH1 0x1 DUP1 SLOAD PUSH2 0x14D6 SWAP1 PUSH2 0x2E56 JUMP JUMPDEST DUP1 PUSH1 0x1F ADD PUSH1 0x20 DUP1 SWAP2 DIV MUL PUSH1 0x20 ADD PUSH1 0x40 MLOAD SWAP1 DUP2 ADD PUSH1 0x40 MSTORE DUP1 SWAP3 SWAP2 SWAP1 DUP2 DUP2 MSTORE PUSH1 0x20 ADD DUP3 DUP1 SLOAD PUSH2 0x1502 SWAP1 PUSH2 0x2E56 JUMP JUMPDEST DUP1 ISZERO PUSH2 0x154F JUMPI DUP1 PUSH1 0x1F LT PUSH2 0x1524 JUMPI PUSH2 0x100 DUP1 DUP4 SLOAD DIV MUL DUP4 MSTORE SWAP2 PUSH1 0x20 ADD SWAP2 PUSH2 0x154F JUMP JUMPDEST DUP3 ADD SWAP2 SWAP1 PUSH1 0x0 MSTORE PUSH1 0x20 PUSH1 0x0 KECCAK256 SWAP1 JUMPDEST DUP2 SLOAD DUP2 MSTORE SWAP1 PUSH1 0x1 ADD SWAP1 PUSH1 0x20 ADD DUP1 DUP4 GT PUSH2 0x1532 JUMPI DUP3 SWAP1 SUB PUSH1 0x1F AND DUP3 ADD SWAP2 JUMPDEST POP POP POP POP POP DUP2 JUMP JUMPDEST PUSH1 0x0 DUP2 PUSH1 0x3 PUSH1 0x0 CALLER PUSH20 0xFFFFFFFFFFFFFFFFFFFFFFFFFFFFFFFFFFFFFFFF AND PUSH20 0xFFFFFFFFFFFFFFFFFFFFFFFFFFFFFFFFFFFFFFFF AND DUP2 MSTORE PUSH1 0x20 ADD SWAP1 DUP2 MSTORE PUSH1 0x20 ADD PUSH1 0x0 KECCAK256 PUSH1 0x0 DUP3 DUP3 SLOAD PUSH2 0x15A8 SWAP2 SWAP1 PUSH2 0x2EB7 JUMP JUMPDEST SWAP3 POP POP DUP2 SWAP1 SSTORE POP DUP2 PUSH1 0x3 PUSH1 0x0 DUP6 PUSH20 0xFFFFFFFFFFFFFFFFFFFFFFFFFFFFFFFFFFFFFFFF AND PUSH20 0xFFFFFFFFFFFFFFFFFFFFFFFFFFFFFFFFFFFFFFFF AND DUP2 MSTORE PUSH1 0x20 ADD SWAP1 DUP2 MSTORE PUSH1 0x20 ADD PUSH1 0x0 KECCAK256 PUSH1 0x0 DUP3 DUP3 SLOAD ADD SWAP3 POP POP DUP2 SWAP1 SSTORE POP DUP3 PUSH20 0xFFFFFFFFFFFFFFFFFFFFFFFFFFFFFFFFFFFFFFFF AND CALLER PUSH20 0xFFFFFFFFFFFFFFFFFFFFFFFFFFFFFFFFFFFFFFFF AND PUSH32 0xDDF252AD1BE2C89B69C2B068FC378DAA952BA7F163C4A11628F55A4DF523B3EF DUP5 PUSH1 0x40 MLOAD PUSH2 0x1659 SWAP2 SWAP1 PUSH2 0x2828 JUMP JUMPDEST PUSH1 0x40 MLOAD DUP1 SWAP2 SUB SWAP1 LOG3 PUSH1 0x1 SWAP1 POP SWAP3 SWAP2 POP POP JUMP JUMPDEST CALLER PUSH20 0xFFFFFFFFFFFFFFFFFFFFFFFFFFFFFFFFFFFFFFFF AND PUSH2 0x168A PUSH2 0x1010 JUMP JUMPDEST PUSH20 0xFFFFFFFFFFFFFFFFFFFFFFFFFFFFFFFFFFFFFFFF AND EQ PUSH2 0x16E0 JUMPI PUSH1 0x40 MLOAD PUSH32 0x8C379A000000000000000000000000000000000000000000000000000000000 DUP2 MSTORE PUSH1 0x4 ADD PUSH2 0x16D7 SWAP1 PUSH2 0x2F5D JUMP JUMPDEST PUSH1 0x40 MLOAD DUP1 SWAP2 SUB SWAP1 REVERT JUMPDEST CALLER PUSH20 0xFFFFFFFFFFFFFFFFFFFFFFFFFFFFFFFFFFFFFFFF AND PUSH32 0x9493E5BBE4E8E0AC67284469A2D677403D0378A85A59E341D3ABC433D0D9A209 DUP3 PUSH1 0x40 MLOAD PUSH2 0x1726 SWAP2 SWAP1 PUSH2 0x2828 JUMP JUMPDEST PUSH1 0x40 MLOAD DUP1 SWAP2 SUB SWAP1 LOG2 ADDRESS PUSH20 0xFFFFFFFFFFFFFFFFFFFFFFFFFFFFFFFFFFFFFFFF AND PUSH4 0xA9059CBB CALLER DUP4 PUSH1 0x40 MLOAD DUP4 PUSH4 0xFFFFFFFF AND PUSH1 0xE0 SHL DUP2 MSTORE PUSH1 0x4 ADD PUSH2 0x1769 SWAP3 SWAP2 SWAP1 PUSH2 0x312C JUMP JUMPDEST PUSH1 0x20 PUSH1 0x40 MLOAD DUP1 DUP4 SUB DUP2 PUSH1 0x0 DUP8 GAS CALL ISZERO DUP1 ISZERO PUSH2 0x1788 JUMPI RETURNDATASIZE PUSH1 0x0 DUP1 RETURNDATACOPY RETURNDATASIZE PUSH1 0x0 REVERT JUMPDEST POP POP POP POP PUSH1 0x40 MLOAD RETURNDATASIZE PUSH1 0x1F NOT PUSH1 0x1F DUP3 ADD AND DUP3 ADD DUP1 PUSH1 0x40 MSTORE POP DUP2 ADD SWAP1 PUSH2 0x17AC SWAP2 SWAP1 PUSH2 0x316A JUMP JUMPDEST POP POP JUMP JUMPDEST PUSH1 0x0 DUP1 PUSH1 0x2 SLOAD SWAP1 POP PUSH1 0x0 DUP2 EQ PUSH2 0x17E1 JUMPI PUSH2 0x17DC PUSH2 0x17CB PUSH2 0x897 JUMP JUMPDEST DUP3 DUP6 PUSH2 0x2442 SWAP1 SWAP3 SWAP2 SWAP1 PUSH4 0xFFFFFFFF AND JUMP JUMPDEST PUSH2 0x17E3 JUMP JUMPDEST DUP3 JUMPDEST SWAP2 POP POP SWAP2 SWAP1 POP JUMP JUMPDEST PUSH1 0x0 PUSH2 0x17F6 DUP5 PUSH2 0xAF3 JUMP JUMPDEST SWAP1 POP DUP2 PUSH20 0xFFFFFFFFFFFFFFFFFFFFFFFFFFFFFFFFFFFFFFFF AND CALLER PUSH20 0xFFFFFFFFFFFFFFFFFFFFFFFFFFFFFFFFFFFFFFFF AND EQ PUSH2 0x1962 JUMPI PUSH1 0x0 PUSH1 0x4 PUSH1 0x0 DUP5 PUSH20 0xFFFFFFFFFFFFFFFFFFFFFFFFFFFFFFFFFFFFFFFF AND PUSH20 0xFFFFFFFFFFFFFFFFFFFFFFFFFFFFFFFFFFFFFFFF AND DUP2 MSTORE PUSH1 0x20 ADD SWAP1 DUP2 MSTORE PUSH1 0x20 ADD PUSH1 0x0 KECCAK256 PUSH1 0x0 CALLER PUSH20 0xFFFFFFFFFFFFFFFFFFFFFFFFFFFFFFFFFFFFFFFF AND PUSH20 0xFFFFFFFFFFFFFFFFFFFFFFFFFFFFFFFFFFFFFFFF AND DUP2 MSTORE PUSH1 0x20 ADD SWAP1 DUP2 MSTORE PUSH1 0x20 ADD PUSH1 0x0 KECCAK256 SLOAD SWAP1 POP PUSH32 0xFFFFFFFFFFFFFFFFFFFFFFFFFFFFFFFFFFFFFFFFFFFFFFFFFFFFFFFFFFFFFFFF DUP2 EQ PUSH2 0x1960 JUMPI DUP2 DUP2 PUSH2 0x18DF SWAP2 SWAP1 PUSH2 0x2EB7 JUMP JUMPDEST PUSH1 0x4 PUSH1 0x0 DUP6 PUSH20 0xFFFFFFFFFFFFFFFFFFFFFFFFFFFFFFFFFFFFFFFF AND PUSH20 0xFFFFFFFFFFFFFFFFFFFFFFFFFFFFFFFFFFFFFFFF AND DUP2 MSTORE PUSH1 0x20 ADD SWAP1 DUP2 MSTORE PUSH1 0x20 ADD PUSH1 0x0 KECCAK256 PUSH1 0x0 CALLER PUSH20 0xFFFFFFFFFFFFFFFFFFFFFFFFFFFFFFFFFFFFFFFF AND PUSH20 0xFFFFFFFFFFFFFFFFFFFFFFFFFFFFFFFFFFFFFFFF AND DUP2 MSTORE PUSH1 0x20 ADD SWAP1 DUP2 MSTORE PUSH1 0x20 ADD PUSH1 0x0 KECCAK256 DUP2 SWAP1 SSTORE POP JUMPDEST POP JUMPDEST PUSH2 0x196C DUP5 DUP3 PUSH2 0x268B JUMP JUMPDEST PUSH2 0x1976 DUP3 DUP3 PUSH2 0x26A7 JUMP JUMPDEST DUP2 PUSH20 0xFFFFFFFFFFFFFFFFFFFFFFFFFFFFFFFFFFFFFFFF AND DUP4 PUSH20 0xFFFFFFFFFFFFFFFFFFFFFFFFFFFFFFFFFFFFFFFF AND CALLER PUSH20 0xFFFFFFFFFFFFFFFFFFFFFFFFFFFFFFFFFFFFFFFF AND PUSH32 0xFBDE797D201C681B91056529119E0B02407C7BB96A4A2C75C01FC9667232C8DB DUP8 DUP6 PUSH1 0x40 MLOAD PUSH2 0x19EC SWAP3 SWAP2 SWAP1 PUSH2 0x3097 JUMP JUMPDEST PUSH1 0x40 MLOAD DUP1 SWAP2 SUB SWAP1 LOG4 PUSH2 0x1A3F DUP4 DUP6 PUSH32 0x0 PUSH20 0xFFFFFFFFFFFFFFFFFFFFFFFFFFFFFFFFFFFFFFFF AND PUSH2 0x2777 SWAP1 SWAP3 SWAP2 SWAP1 PUSH4 0xFFFFFFFF AND JUMP JUMPDEST SWAP4 SWAP3 POP POP POP JUMP JUMPDEST PUSH1 0x0 DUP2 PUSH20 0xFFFFFFFFFFFFFFFFFFFFFFFFFFFFFFFFFFFFFFFF AND CALLER PUSH20 0xFFFFFFFFFFFFFFFFFFFFFFFFFFFFFFFFFFFFFFFF AND EQ PUSH2 0x1BB2 JUMPI PUSH1 0x0 PUSH1 0x4 PUSH1 0x0 DUP5 PUSH20 0xFFFFFFFFFFFFFFFFFFFFFFFFFFFFFFFFFFFFFFFF AND PUSH20 0xFFFFFFFFFFFFFFFFFFFFFFFFFFFFFFFFFFFFFFFF AND DUP2 MSTORE PUSH1 0x20 ADD SWAP1 DUP2 MSTORE PUSH1 0x20 ADD PUSH1 0x0 KECCAK256 PUSH1 0x0 CALLER PUSH20 0xFFFFFFFFFFFFFFFFFFFFFFFFFFFFFFFFFFFFFFFF AND PUSH20 0xFFFFFFFFFFFFFFFFFFFFFFFFFFFFFFFFFFFFFFFF AND DUP2 MSTORE PUSH1 0x20 ADD SWAP1 DUP2 MSTORE PUSH1 0x20 ADD PUSH1 0x0 KECCAK256 SLOAD SWAP1 POP PUSH32 0xFFFFFFFFFFFFFFFFFFFFFFFFFFFFFFFFFFFFFFFFFFFFFFFFFFFFFFFFFFFFFFFF DUP2 EQ PUSH2 0x1BB0 JUMPI DUP5 DUP2 PUSH2 0x1B2F SWAP2 SWAP1 PUSH2 0x2EB7 JUMP JUMPDEST PUSH1 0x4 PUSH1 0x0 DUP6 PUSH20 0xFFFFFFFFFFFFFFFFFFFFFFFFFFFFFFFFFFFFFFFF AND PUSH20 0xFFFFFFFFFFFFFFFFFFFFFFFFFFFFFFFFFFFFFFFF AND DUP2 MSTORE PUSH1 0x20 ADD SWAP1 DUP2 MSTORE PUSH1 0x20 ADD PUSH1 0x0 KECCAK256 PUSH1 0x0 CALLER PUSH20 0xFFFFFFFFFFFFFFFFFFFFFFFFFFFFFFFFFFFFFFFF AND PUSH20 0xFFFFFFFFFFFFFFFFFFFFFFFFFFFFFFFFFFFFFFFF AND DUP2 MSTORE PUSH1 0x20 ADD SWAP1 DUP2 MSTORE PUSH1 0x20 ADD PUSH1 0x0 KECCAK256 DUP2 SWAP1 SSTORE POP JUMPDEST POP JUMPDEST PUSH1 0x0 PUSH2 0x1BBD DUP6 PUSH2 0x103A JUMP JUMPDEST SWAP2 POP DUP2 EQ ISZERO PUSH2 0x1C01 JUMPI PUSH1 0x40 MLOAD PUSH32 0x8C379A000000000000000000000000000000000000000000000000000000000 DUP2 MSTORE PUSH1 0x4 ADD PUSH2 0x1BF8 SWAP1 PUSH2 0x31E3 JUMP JUMPDEST PUSH1 0x40 MLOAD DUP1 SWAP2 SUB SWAP1 REVERT JUMPDEST PUSH2 0x1C0B DUP2 DUP6 PUSH2 0x268B JUMP JUMPDEST PUSH2 0x1C15 DUP3 DUP6 PUSH2 0x26A7 JUMP JUMPDEST DUP2 PUSH20 0xFFFFFFFFFFFFFFFFFFFFFFFFFFFFFFFFFFFFFFFF AND DUP4 PUSH20 0xFFFFFFFFFFFFFFFFFFFFFFFFFFFFFFFFFFFFFFFF AND CALLER PUSH20 0xFFFFFFFFFFFFFFFFFFFFFFFFFFFFFFFFFFFFFFFF AND PUSH32 0xFBDE797D201C681B91056529119E0B02407C7BB96A4A2C75C01FC9667232C8DB DUP5 DUP9 PUSH1 0x40 MLOAD PUSH2 0x1C8B SWAP3 SWAP2 SWAP1 PUSH2 0x3097 JUMP JUMPDEST PUSH1 0x40 MLOAD DUP1 SWAP2 SUB SWAP1 LOG4 PUSH2 0x1CDE DUP4 DUP3 PUSH32 0x0 PUSH20 0xFFFFFFFFFFFFFFFFFFFFFFFFFFFFFFFFFFFFFFFF AND PUSH2 0x2777 SWAP1 SWAP3 SWAP2 SWAP1 PUSH4 0xFFFFFFFF AND JUMP JUMPDEST SWAP4 SWAP3 POP POP POP JUMP JUMPDEST PUSH1 0x7 SLOAD DUP2 JUMP JUMPDEST CALLER PUSH20 0xFFFFFFFFFFFFFFFFFFFFFFFFFFFFFFFFFFFFFFFF AND PUSH2 0x1D0A PUSH2 0x1010 JUMP JUMPDEST PUSH20 0xFFFFFFFFFFFFFFFFFFFFFFFFFFFFFFFFFFFFFFFF AND EQ PUSH2 0x1D60 JUMPI PUSH1 0x40 MLOAD PUSH32 0x8C379A000000000000000000000000000000000000000000000000000000000 DUP2 MSTORE PUSH1 0x4 ADD PUSH2 0x1D57 SWAP1 PUSH2 0x2F5D JUMP JUMPDEST PUSH1 0x40 MLOAD DUP1 SWAP2 SUB SWAP1 REVERT JUMPDEST PUSH8 0xDE0B6B3A7640000 DUP2 GT ISZERO PUSH2 0x1DAB JUMPI PUSH1 0x40 MLOAD PUSH32 0x8C379A000000000000000000000000000000000000000000000000000000000 DUP2 MSTORE PUSH1 0x4 ADD PUSH2 0x1DA2 SWAP1 PUSH2 0x324F JUMP JUMPDEST PUSH1 0x40 MLOAD DUP1 SWAP2 SUB SWAP1 REVERT JUMPDEST DUP1 PUSH1 0xA DUP2 SWAP1 SSTORE POP CALLER PUSH20 0xFFFFFFFFFFFFFFFFFFFFFFFFFFFFFFFFFFFFFFFF AND PUSH32 0x95BC4480B51F4860106D42850BCAE222CF3303FB2B7D433E896205E0EBEFE369 DUP3 PUSH1 0x40 MLOAD PUSH2 0x1DF8 SWAP2 SWAP1 PUSH2 0x2828 JUMP JUMPDEST PUSH1 0x40 MLOAD DUP1 SWAP2 SUB SWAP1 LOG2 POP JUMP JUMPDEST PUSH32 0x0 DUP2 JUMP JUMPDEST PUSH1 0x0 PUSH32 0xFFFFFFFFFFFFFFFFFFFFFFFFFFFFFFFFFFFFFFFFFFFFFFFFFFFFFFFFFFFFFFFF SWAP1 POP SWAP2 SWAP1 POP JUMP JUMPDEST PUSH1 0x0 DUP1 PUSH1 0x2 SLOAD SWAP1 POP PUSH1 0x0 DUP2 EQ PUSH2 0x1E82 JUMPI PUSH2 0x1E7D DUP2 PUSH2 0x1E6D PUSH2 0x897 JUMP JUMPDEST DUP6 PUSH2 0x241A SWAP1 SWAP3 SWAP2 SWAP1 PUSH4 0xFFFFFFFF AND JUMP JUMPDEST PUSH2 0x1E84 JUMP JUMPDEST DUP3 JUMPDEST SWAP2 POP POP SWAP2 SWAP1 POP JUMP JUMPDEST PUSH1 0x0 PUSH2 0x1ED6 PUSH1 0x3 PUSH1 0x0 DUP5 PUSH20 0xFFFFFFFFFFFFFFFFFFFFFFFFFFFFFFFFFFFFFFFF AND PUSH20 0xFFFFFFFFFFFFFFFFFFFFFFFFFFFFFFFFFFFFFFFF AND DUP2 MSTORE PUSH1 0x20 ADD SWAP1 DUP2 MSTORE PUSH1 0x20 ADD PUSH1 0x0 KECCAK256 SLOAD PUSH2 0x9C6 JUMP JUMPDEST SWAP1 POP SWAP2 SWAP1 POP JUMP JUMPDEST TIMESTAMP DUP5 LT ISZERO PUSH2 0x1F20 JUMPI PUSH1 0x40 MLOAD PUSH32 0x8C379A000000000000000000000000000000000000000000000000000000000 DUP2 MSTORE PUSH1 0x4 ADD PUSH2 0x1F17 SWAP1 PUSH2 0x32BB JUMP JUMPDEST PUSH1 0x40 MLOAD DUP1 SWAP2 SUB SWAP1 REVERT JUMPDEST PUSH1 0x0 PUSH1 0x1 PUSH2 0x1F2C PUSH2 0xF65 JUMP JUMPDEST PUSH32 0x6E71EDAE12B1B97F4D1F60370FEF10105FA2FAAE0126114A169C64845D6126C9 DUP11 DUP11 DUP11 PUSH1 0x5 PUSH1 0x0 DUP16 PUSH20 0xFFFFFFFFFFFFFFFFFFFFFFFFFFFFFFFFFFFFFFFF AND PUSH20 0xFFFFFFFFFFFFFFFFFFFFFFFFFFFFFFFFFFFFFFFF AND DUP2 MSTORE PUSH1 0x20 ADD SWAP1 DUP2 MSTORE PUSH1 0x20 ADD PUSH1 0x0 KECCAK256 PUSH1 0x0 DUP2 SLOAD DUP1 SWAP3 SWAP2 SWAP1 PUSH1 0x1 ADD SWAP2 SWAP1 POP SSTORE DUP12 PUSH1 0x40 MLOAD PUSH1 0x20 ADD PUSH2 0x1FB4 SWAP7 SWAP6 SWAP5 SWAP4 SWAP3 SWAP2 SWAP1 PUSH2 0x32DB JUMP JUMPDEST PUSH1 0x40 MLOAD PUSH1 0x20 DUP2 DUP4 SUB SUB DUP2 MSTORE SWAP1 PUSH1 0x40 MSTORE DUP1 MLOAD SWAP1 PUSH1 0x20 ADD KECCAK256 PUSH1 0x40 MLOAD PUSH1 0x20 ADD PUSH2 0x1FDB SWAP3 SWAP2 SWAP1 PUSH2 0x33B4 JUMP JUMPDEST PUSH1 0x40 MLOAD PUSH1 0x20 DUP2 DUP4 SUB SUB DUP2 MSTORE SWAP1 PUSH1 0x40 MSTORE DUP1 MLOAD SWAP1 PUSH1 0x20 ADD KECCAK256 DUP6 DUP6 DUP6 PUSH1 0x40 MLOAD PUSH1 0x0 DUP2 MSTORE PUSH1 0x20 ADD PUSH1 0x40 MSTORE PUSH1 0x40 MLOAD PUSH2 0x2011 SWAP5 SWAP4 SWAP3 SWAP2 SWAP1 PUSH2 0x33EB JUMP JUMPDEST PUSH1 0x20 PUSH1 0x40 MLOAD PUSH1 0x20 DUP2 SUB SWAP1 DUP1 DUP5 SUB SWAP1 DUP6 GAS STATICCALL ISZERO DUP1 ISZERO PUSH2 0x2033 JUMPI RETURNDATASIZE PUSH1 0x0 DUP1 RETURNDATACOPY RETURNDATASIZE PUSH1 0x0 REVERT JUMPDEST POP POP POP PUSH1 0x20 PUSH1 0x40 MLOAD SUB MLOAD SWAP1 POP PUSH1 0x0 PUSH20 0xFFFFFFFFFFFFFFFFFFFFFFFFFFFFFFFFFFFFFFFF AND DUP2 PUSH20 0xFFFFFFFFFFFFFFFFFFFFFFFFFFFFFFFFFFFFFFFF AND EQ ISZERO DUP1 ISZERO PUSH2 0x20A7 JUMPI POP DUP8 PUSH20 0xFFFFFFFFFFFFFFFFFFFFFFFFFFFFFFFFFFFFFFFF AND DUP2 PUSH20 0xFFFFFFFFFFFFFFFFFFFFFFFFFFFFFFFFFFFFFFFF AND EQ JUMPDEST PUSH2 0x20E6 JUMPI PUSH1 0x40 MLOAD PUSH32 0x8C379A000000000000000000000000000000000000000000000000000000000 DUP2 MSTORE PUSH1 0x4 ADD PUSH2 0x20DD SWAP1 PUSH2 0x347C JUMP JUMPDEST PUSH1 0x40 MLOAD DUP1 SWAP2 SUB SWAP1 REVERT JUMPDEST DUP6 PUSH1 0x4 PUSH1 0x0 DUP4 PUSH20 0xFFFFFFFFFFFFFFFFFFFFFFFFFFFFFFFFFFFFFFFF AND PUSH20 0xFFFFFFFFFFFFFFFFFFFFFFFFFFFFFFFFFFFFFFFF AND DUP2 MSTORE PUSH1 0x20 ADD SWAP1 DUP2 MSTORE PUSH1 0x20 ADD PUSH1 0x0 KECCAK256 PUSH1 0x0 DUP10 PUSH20 0xFFFFFFFFFFFFFFFFFFFFFFFFFFFFFFFFFFFFFFFF AND PUSH20 0xFFFFFFFFFFFFFFFFFFFFFFFFFFFFFFFFFFFFFFFF AND DUP2 MSTORE PUSH1 0x20 ADD SWAP1 DUP2 MSTORE PUSH1 0x20 ADD PUSH1 0x0 KECCAK256 DUP2 SWAP1 SSTORE POP POP DUP6 PUSH20 0xFFFFFFFFFFFFFFFFFFFFFFFFFFFFFFFFFFFFFFFF AND DUP8 PUSH20 0xFFFFFFFFFFFFFFFFFFFFFFFFFFFFFFFFFFFFFFFF AND PUSH32 0x8C5BE1E5EBEC7D5BD14F71427D1E84F3DD0314C0F7B2291E5B200AC8C7C3B925 DUP8 PUSH1 0x40 MLOAD PUSH2 0x21C5 SWAP2 SWAP1 PUSH2 0x2828 JUMP JUMPDEST PUSH1 0x40 MLOAD DUP1 SWAP2 SUB SWAP1 LOG3 POP POP POP POP POP POP POP JUMP JUMPDEST PUSH1 0x0 PUSH1 0x3 PUSH1 0x0 DUP4 PUSH20 0xFFFFFFFFFFFFFFFFFFFFFFFFFFFFFFFFFFFFFFFF AND PUSH20 0xFFFFFFFFFFFFFFFFFFFFFFFFFFFFFFFFFFFFFFFF AND DUP2 MSTORE PUSH1 0x20 ADD SWAP1 DUP2 MSTORE PUSH1 0x20 ADD PUSH1 0x0 KECCAK256 SLOAD SWAP1 POP SWAP2 SWAP1 POP JUMP JUMPDEST PUSH1 0x4 PUSH1 0x20 MSTORE DUP2 PUSH1 0x0 MSTORE PUSH1 0x40 PUSH1 0x0 KECCAK256 PUSH1 0x20 MSTORE DUP1 PUSH1 0x0 MSTORE PUSH1 0x40 PUSH1 0x0 KECCAK256 PUSH1 0x0 SWAP2 POP SWAP2 POP POP SLOAD DUP2 JUMP JUMPDEST PUSH1 0xC SLOAD DUP2 JUMP JUMPDEST PUSH1 0x0 PUSH2 0x2255 DUP3 PUSH2 0x1E51 JUMP JUMPDEST SWAP1 POP SWAP2 SWAP1 POP JUMP JUMPDEST CALLER PUSH20 0xFFFFFFFFFFFFFFFFFFFFFFFFFFFFFFFFFFFFFFFF AND PUSH2 0x227B PUSH2 0x1010 JUMP JUMPDEST PUSH20 0xFFFFFFFFFFFFFFFFFFFFFFFFFFFFFFFFFFFFFFFF AND EQ PUSH2 0x22D1 JUMPI PUSH1 0x40 MLOAD PUSH32 0x8C379A000000000000000000000000000000000000000000000000000000000 DUP2 MSTORE PUSH1 0x4 ADD PUSH2 0x22C8 SWAP1 PUSH2 0x2F5D JUMP JUMPDEST PUSH1 0x40 MLOAD DUP1 SWAP2 SUB SWAP1 REVERT JUMPDEST PUSH1 0x0 PUSH20 0xFFFFFFFFFFFFFFFFFFFFFFFFFFFFFFFFFFFFFFFF AND DUP2 PUSH20 0xFFFFFFFFFFFFFFFFFFFFFFFFFFFFFFFFFFFFFFFF AND EQ ISZERO PUSH2 0x2341 JUMPI PUSH1 0x40 MLOAD PUSH32 0x8C379A000000000000000000000000000000000000000000000000000000000 DUP2 MSTORE PUSH1 0x4 ADD PUSH2 0x2338 SWAP1 PUSH2 0x350E JUMP JUMPDEST PUSH1 0x40 MLOAD DUP1 SWAP2 SUB SWAP1 REVERT JUMPDEST DUP1 PUSH20 0xFFFFFFFFFFFFFFFFFFFFFFFFFFFFFFFFFFFFFFFF AND PUSH1 0x6 PUSH1 0x0 SWAP1 SLOAD SWAP1 PUSH2 0x100 EXP SWAP1 DIV PUSH20 0xFFFFFFFFFFFFFFFFFFFFFFFFFFFFFFFFFFFFFFFF AND PUSH20 0xFFFFFFFFFFFFFFFFFFFFFFFFFFFFFFFFFFFFFFFF AND PUSH32 0x8BE0079C531659141344CD1FD0A4F28419497F9722A3DAAFE3B4186F6B6457E0 PUSH1 0x40 MLOAD PUSH1 0x40 MLOAD DUP1 SWAP2 SUB SWAP1 LOG3 DUP1 PUSH1 0x6 PUSH1 0x0 PUSH2 0x100 EXP DUP2 SLOAD DUP2 PUSH20 0xFFFFFFFFFFFFFFFFFFFFFFFFFFFFFFFFFFFFFFFF MUL NOT AND SWAP1 DUP4 PUSH20 0xFFFFFFFFFFFFFFFFFFFFFFFFFFFFFFFFFFFFFFFF AND MUL OR SWAP1 SSTORE POP POP JUMP JUMPDEST PUSH1 0xB PUSH1 0x0 SWAP1 SLOAD SWAP1 PUSH2 0x100 EXP SWAP1 DIV PUSH1 0xFF AND DUP2 JUMP JUMPDEST PUSH1 0x8 SLOAD DUP2 JUMP JUMPDEST PUSH1 0x0 DUP3 DUP5 MUL SWAP1 POP DUP3 DUP5 DUP3 DIV EQ DUP5 ISZERO OR DUP3 ISZERO ISZERO AND PUSH2 0x2436 JUMPI PUSH1 0x0 DUP1 REVERT JUMPDEST DUP2 DUP2 DIV SWAP1 POP SWAP4 SWAP3 POP POP POP JUMP JUMPDEST PUSH1 0x0 DUP3 DUP5 MUL SWAP1 POP DUP3 DUP5 DUP3 DIV EQ DUP5 ISZERO OR DUP3 ISZERO ISZERO AND PUSH2 0x245E JUMPI PUSH1 0x0 DUP1 REVERT JUMPDEST PUSH1 0x1 DUP3 PUSH1 0x1 DUP4 SUB DIV ADD DUP2 ISZERO ISZERO MUL SWAP1 POP SWAP4 SWAP3 POP POP POP JUMP JUMPDEST PUSH1 0x0 PUSH32 0x8B73C3C69BB8FE3D512ECC4CF759CC79239F7B179B0FFACAA9A75D522B39400F PUSH1 0x0 PUSH1 0x40 MLOAD PUSH2 0x24A6 SWAP2 SWAP1 PUSH2 0x35CD JUMP JUMPDEST PUSH1 0x40 MLOAD DUP1 SWAP2 SUB SWAP1 KECCAK256 PUSH32 0xC89EFDAA54C0F20C7ADF612882DF0950F5A951637E0307CDCB4C672F298B8BC6 CHAINID ADDRESS PUSH1 0x40 MLOAD PUSH1 0x20 ADD PUSH2 0x24E5 SWAP6 SWAP5 SWAP4 SWAP3 SWAP2 SWAP1 PUSH2 0x35E4 JUMP JUMPDEST PUSH1 0x40 MLOAD PUSH1 0x20 DUP2 DUP4 SUB SUB DUP2 MSTORE SWAP1 PUSH1 0x40 MSTORE DUP1 MLOAD SWAP1 PUSH1 0x20 ADD KECCAK256 SWAP1 POP SWAP1 JUMP JUMPDEST PUSH1 0x0 PUSH1 0x40 MLOAD PUSH32 0x23B872DD00000000000000000000000000000000000000000000000000000000 DUP2 MSTORE DUP5 PUSH1 0x4 DUP3 ADD MSTORE DUP4 PUSH1 0x24 DUP3 ADD MSTORE DUP3 PUSH1 0x44 DUP3 ADD MSTORE PUSH1 0x20 PUSH1 0x0 PUSH1 0x64 DUP4 PUSH1 0x0 DUP11 GAS CALL RETURNDATASIZE ISZERO PUSH1 0x1F RETURNDATASIZE GT PUSH1 0x1 PUSH1 0x0 MLOAD EQ AND OR AND SWAP2 POP POP DUP1 PUSH2 0x2598 JUMPI PUSH1 0x40 MLOAD PUSH32 0x8C379A000000000000000000000000000000000000000000000000000000000 DUP2 MSTORE PUSH1 0x4 ADD PUSH2 0x258F SWAP1 PUSH2 0x3683 JUMP JUMPDEST PUSH1 0x40 MLOAD DUP1 SWAP2 SUB SWAP1 REVERT JUMPDEST POP POP POP POP POP JUMP JUMPDEST DUP1 PUSH1 0x2 PUSH1 0x0 DUP3 DUP3 SLOAD PUSH2 0x25B1 SWAP2 SWAP1 PUSH2 0x36A3 JUMP JUMPDEST SWAP3 POP POP DUP2 SWAP1 SSTORE POP DUP1 PUSH1 0x3 PUSH1 0x0 DUP5 PUSH20 0xFFFFFFFFFFFFFFFFFFFFFFFFFFFFFFFFFFFFFFFF AND PUSH20 0xFFFFFFFFFFFFFFFFFFFFFFFFFFFFFFFFFFFFFFFF AND DUP2 MSTORE PUSH1 0x20 ADD SWAP1 DUP2 MSTORE PUSH1 0x20 ADD PUSH1 0x0 KECCAK256 PUSH1 0x0 DUP3 DUP3 SLOAD ADD SWAP3 POP POP DUP2 SWAP1 SSTORE POP DUP2 PUSH20 0xFFFFFFFFFFFFFFFFFFFFFFFFFFFFFFFFFFFFFFFF AND PUSH1 0x0 PUSH20 0xFFFFFFFFFFFFFFFFFFFFFFFFFFFFFFFFFFFFFFFF AND PUSH32 0xDDF252AD1BE2C89B69C2B068FC378DAA952BA7F163C4A11628F55A4DF523B3EF DUP4 PUSH1 0x40 MLOAD PUSH2 0x2663 SWAP2 SWAP1 PUSH2 0x2828 JUMP JUMPDEST PUSH1 0x40 MLOAD DUP1 SWAP2 SUB SWAP1 LOG3 POP POP JUMP JUMPDEST PUSH1 0x8 PUSH1 0x0 DUP2 SLOAD DUP1 SWAP3 SWAP2 SWAP1 PUSH2 0x2682 SWAP1 PUSH2 0x36F9 JUMP JUMPDEST SWAP2 SWAP1 POP SSTORE POP POP POP JUMP JUMPDEST PUSH1 0x7 PUSH1 0x0 DUP2 SLOAD DUP1 SWAP3 SWAP2 SWAP1 PUSH2 0x269E SWAP1 PUSH2 0x36F9 JUMP JUMPDEST SWAP2 SWAP1 POP SSTORE POP POP POP JUMP JUMPDEST DUP1 PUSH1 0x3 PUSH1 0x0 DUP5 PUSH20 0xFFFFFFFFFFFFFFFFFFFFFFFFFFFFFFFFFFFFFFFF AND PUSH20 0xFFFFFFFFFFFFFFFFFFFFFFFFFFFFFFFFFFFFFFFF AND DUP2 MSTORE PUSH1 0x20 ADD SWAP1 DUP2 MSTORE PUSH1 0x20 ADD PUSH1 0x0 KECCAK256 PUSH1 0x0 DUP3 DUP3 SLOAD PUSH2 0x26F6 SWAP2 SWAP1 PUSH2 0x2EB7 JUMP JUMPDEST SWAP3 POP POP DUP2 SWAP1 SSTORE POP DUP1 PUSH1 0x2 PUSH1 0x0 DUP3 DUP3 SLOAD SUB SWAP3 POP POP DUP2 SWAP1 SSTORE POP PUSH1 0x0 PUSH20 0xFFFFFFFFFFFFFFFFFFFFFFFFFFFFFFFFFFFFFFFF AND DUP3 PUSH20 0xFFFFFFFFFFFFFFFFFFFFFFFFFFFFFFFFFFFFFFFF AND PUSH32 0xDDF252AD1BE2C89B69C2B068FC378DAA952BA7F163C4A11628F55A4DF523B3EF DUP4 PUSH1 0x40 MLOAD PUSH2 0x276B SWAP2 SWAP1 PUSH2 0x2828 JUMP JUMPDEST PUSH1 0x40 MLOAD DUP1 SWAP2 SUB SWAP1 LOG3 POP POP JUMP JUMPDEST PUSH1 0x0 PUSH1 0x40 MLOAD PUSH32 0xA9059CBB00000000000000000000000000000000000000000000000000000000 DUP2 MSTORE DUP4 PUSH1 0x4 DUP3 ADD MSTORE DUP3 PUSH1 0x24 DUP3 ADD MSTORE PUSH1 0x20 PUSH1 0x0 PUSH1 0x44 DUP4 PUSH1 0x0 DUP10 GAS CALL RETURNDATASIZE ISZERO PUSH1 0x1F RETURNDATASIZE GT PUSH1 0x1 PUSH1 0x0 MLOAD EQ AND OR AND SWAP2 POP POP DUP1 PUSH2 0x2809 JUMPI PUSH1 0x40 MLOAD PUSH32 0x8C379A000000000000000000000000000000000000000000000000000000000 DUP2 MSTORE PUSH1 0x4 ADD PUSH2 0x2800 SWAP1 PUSH2 0x378E JUMP JUMPDEST PUSH1 0x40 MLOAD DUP1 SWAP2 SUB SWAP1 REVERT JUMPDEST POP POP POP POP JUMP JUMPDEST PUSH1 0x0 DUP2 SWAP1 POP SWAP2 SWAP1 POP JUMP JUMPDEST PUSH2 0x2822 DUP2 PUSH2 0x280F JUMP JUMPDEST DUP3 MSTORE POP POP JUMP JUMPDEST PUSH1 0x0 PUSH1 0x20 DUP3 ADD SWAP1 POP PUSH2 0x283D PUSH1 0x0 DUP4 ADD DUP5 PUSH2 0x2819 JUMP JUMPDEST SWAP3 SWAP2 POP POP JUMP JUMPDEST PUSH1 0x0 DUP2 MLOAD SWAP1 POP SWAP2 SWAP1 POP JUMP JUMPDEST PUSH1 0x0 DUP3 DUP3 MSTORE PUSH1 0x20 DUP3 ADD SWAP1 POP SWAP3 SWAP2 POP POP JUMP JUMPDEST PUSH1 0x0 JUMPDEST DUP4 DUP2 LT ISZERO PUSH2 0x287D JUMPI DUP1 DUP3 ADD MLOAD DUP2 DUP5 ADD MSTORE PUSH1 0x20 DUP2 ADD SWAP1 POP PUSH2 0x2862 JUMP JUMPDEST DUP4 DUP2 GT ISZERO PUSH2 0x288C JUMPI PUSH1 0x0 DUP5 DUP5 ADD MSTORE JUMPDEST POP POP POP POP JUMP JUMPDEST PUSH1 0x0 PUSH1 0x1F NOT PUSH1 0x1F DUP4 ADD AND SWAP1 POP SWAP2 SWAP1 POP JUMP JUMPDEST PUSH1 0x0 PUSH2 0x28AE DUP3 PUSH2 0x2843 JUMP JUMPDEST PUSH2 0x28B8 DUP2 DUP6 PUSH2 0x284E JUMP JUMPDEST SWAP4 POP PUSH2 0x28C8 DUP2 DUP6 PUSH1 0x20 DUP7 ADD PUSH2 0x285F JUMP JUMPDEST PUSH2 0x28D1 DUP2 PUSH2 0x2892 JUMP JUMPDEST DUP5 ADD SWAP2 POP POP SWAP3 SWAP2 POP POP JUMP JUMPDEST PUSH1 0x0 PUSH1 0x20 DUP3 ADD SWAP1 POP DUP2 DUP2 SUB PUSH1 0x0 DUP4 ADD MSTORE PUSH2 0x28F6 DUP2 DUP5 PUSH2 0x28A3 JUMP JUMPDEST SWAP1 POP SWAP3 SWAP2 POP POP JUMP JUMPDEST PUSH1 0x0 DUP1 REVERT JUMPDEST PUSH2 0x290C DUP2 PUSH2 0x280F JUMP JUMPDEST DUP2 EQ PUSH2 0x2917 JUMPI PUSH1 0x0 DUP1 REVERT JUMPDEST POP JUMP JUMPDEST PUSH1 0x0 DUP2 CALLDATALOAD SWAP1 POP PUSH2 0x2929 DUP2 PUSH2 0x2903 JUMP JUMPDEST SWAP3 SWAP2 POP POP JUMP JUMPDEST PUSH1 0x0 PUSH1 0x20 DUP3 DUP5 SUB SLT ISZERO PUSH2 0x2945 JUMPI PUSH2 0x2944 PUSH2 0x28FE JUMP JUMPDEST JUMPDEST PUSH1 0x0 PUSH2 0x2953 DUP5 DUP3 DUP6 ADD PUSH2 0x291A JUMP JUMPDEST SWAP2 POP POP SWAP3 SWAP2 POP POP JUMP JUMPDEST PUSH1 0x0 PUSH20 0xFFFFFFFFFFFFFFFFFFFFFFFFFFFFFFFFFFFFFFFF DUP3 AND SWAP1 POP SWAP2 SWAP1 POP JUMP JUMPDEST PUSH1 0x0 PUSH2 0x2987 DUP3 PUSH2 0x295C JUMP JUMPDEST SWAP1 POP SWAP2 SWAP1 POP JUMP JUMPDEST PUSH2 0x2997 DUP2 PUSH2 0x297C JUMP JUMPDEST DUP2 EQ PUSH2 0x29A2 JUMPI PUSH1 0x0 DUP1 REVERT JUMPDEST POP JUMP JUMPDEST PUSH1 0x0 DUP2 CALLDATALOAD SWAP1 POP PUSH2 0x29B4 DUP2 PUSH2 0x298E JUMP JUMPDEST SWAP3 SWAP2 POP POP JUMP JUMPDEST PUSH1 0x0 DUP1 PUSH1 0x40 DUP4 DUP6 SUB SLT ISZERO PUSH2 0x29D1 JUMPI PUSH2 0x29D0 PUSH2 0x28FE JUMP JUMPDEST JUMPDEST PUSH1 0x0 PUSH2 0x29DF DUP6 DUP3 DUP7 ADD PUSH2 0x29A5 JUMP JUMPDEST SWAP3 POP POP PUSH1 0x20 PUSH2 0x29F0 DUP6 DUP3 DUP7 ADD PUSH2 0x291A JUMP JUMPDEST SWAP2 POP POP SWAP3 POP SWAP3 SWAP1 POP JUMP JUMPDEST PUSH1 0x0 DUP2 ISZERO ISZERO SWAP1 POP SWAP2 SWAP1 POP JUMP JUMPDEST PUSH2 0x2A0F DUP2 PUSH2 0x29FA JUMP JUMPDEST DUP3 MSTORE POP POP JUMP JUMPDEST PUSH1 0x0 PUSH1 0x20 DUP3 ADD SWAP1 POP PUSH2 0x2A2A PUSH1 0x0 DUP4 ADD DUP5 PUSH2 0x2A06 JUMP JUMPDEST SWAP3 SWAP2 POP POP JUMP JUMPDEST PUSH1 0x0 DUP1 PUSH1 0x0 PUSH1 0x60 DUP5 DUP7 SUB SLT ISZERO PUSH2 0x2A49 JUMPI PUSH2 0x2A48 PUSH2 0x28FE JUMP JUMPDEST JUMPDEST PUSH1 0x0 PUSH2 0x2A57 DUP7 DUP3 DUP8 ADD PUSH2 0x29A5 JUMP JUMPDEST SWAP4 POP POP PUSH1 0x20 PUSH2 0x2A68 DUP7 DUP3 DUP8 ADD PUSH2 0x29A5 JUMP JUMPDEST SWAP3 POP POP PUSH1 0x40 PUSH2 0x2A79 DUP7 DUP3 DUP8 ADD PUSH2 0x291A JUMP JUMPDEST SWAP2 POP POP SWAP3 POP SWAP3 POP SWAP3 JUMP JUMPDEST PUSH1 0x0 PUSH1 0xFF DUP3 AND SWAP1 POP SWAP2 SWAP1 POP JUMP JUMPDEST PUSH2 0x2A99 DUP2 PUSH2 0x2A83 JUMP JUMPDEST DUP3 MSTORE POP POP JUMP JUMPDEST PUSH1 0x0 PUSH1 0x20 DUP3 ADD SWAP1 POP PUSH2 0x2AB4 PUSH1 0x0 DUP4 ADD DUP5 PUSH2 0x2A90 JUMP JUMPDEST SWAP3 SWAP2 POP POP JUMP JUMPDEST PUSH2 0x2AC3 DUP2 PUSH2 0x29FA JUMP JUMPDEST DUP2 EQ PUSH2 0x2ACE JUMPI PUSH1 0x0 DUP1 REVERT JUMPDEST POP JUMP JUMPDEST PUSH1 0x0 DUP2 CALLDATALOAD SWAP1 POP PUSH2 0x2AE0 DUP2 PUSH2 0x2ABA JUMP JUMPDEST SWAP3 SWAP2 POP POP JUMP JUMPDEST PUSH1 0x0 PUSH1 0x20 DUP3 DUP5 SUB SLT ISZERO PUSH2 0x2AFC JUMPI PUSH2 0x2AFB PUSH2 0x28FE JUMP JUMPDEST JUMPDEST PUSH1 0x0 PUSH2 0x2B0A DUP5 DUP3 DUP6 ADD PUSH2 0x2AD1 JUMP JUMPDEST SWAP2 POP POP SWAP3 SWAP2 POP POP JUMP JUMPDEST PUSH1 0x0 DUP2 SWAP1 POP SWAP2 SWAP1 POP JUMP JUMPDEST PUSH2 0x2B26 DUP2 PUSH2 0x2B13 JUMP JUMPDEST DUP3 MSTORE POP POP JUMP JUMPDEST PUSH1 0x0 PUSH1 0x20 DUP3 ADD SWAP1 POP PUSH2 0x2B41 PUSH1 0x0 DUP4 ADD DUP5 PUSH2 0x2B1D JUMP JUMPDEST SWAP3 SWAP2 POP POP JUMP JUMPDEST PUSH1 0x0 DUP2 SWAP1 POP SWAP2 SWAP1 POP JUMP JUMPDEST PUSH1 0x0 PUSH2 0x2B6C PUSH2 0x2B67 PUSH2 0x2B62 DUP5 PUSH2 0x295C JUMP JUMPDEST PUSH2 0x2B47 JUMP JUMPDEST PUSH2 0x295C JUMP JUMPDEST SWAP1 POP SWAP2 SWAP1 POP JUMP JUMPDEST PUSH1 0x0 PUSH2 0x2B7E DUP3 PUSH2 0x2B51 JUMP JUMPDEST SWAP1 POP SWAP2 SWAP1 POP JUMP JUMPDEST PUSH1 0x0 PUSH2 0x2B90 DUP3 PUSH2 0x2B73 JUMP JUMPDEST SWAP1 POP SWAP2 SWAP1 POP JUMP JUMPDEST PUSH2 0x2BA0 DUP2 PUSH2 0x2B85 JUMP JUMPDEST DUP3 MSTORE POP POP JUMP JUMPDEST PUSH1 0x0 PUSH1 0x20 DUP3 ADD SWAP1 POP PUSH2 0x2BBB PUSH1 0x0 DUP4 ADD DUP5 PUSH2 0x2B97 JUMP JUMPDEST SWAP3 SWAP2 POP POP JUMP JUMPDEST PUSH1 0x0 PUSH1 0x20 DUP3 DUP5 SUB SLT ISZERO PUSH2 0x2BD7 JUMPI PUSH2 0x2BD6 PUSH2 0x28FE JUMP JUMPDEST JUMPDEST PUSH1 0x0 PUSH2 0x2BE5 DUP5 DUP3 DUP6 ADD PUSH2 0x29A5 JUMP JUMPDEST SWAP2 POP POP SWAP3 SWAP2 POP POP JUMP JUMPDEST PUSH2 0x2BF7 DUP2 PUSH2 0x297C JUMP JUMPDEST DUP3 MSTORE POP POP JUMP JUMPDEST PUSH1 0x0 PUSH1 0x20 DUP3 ADD SWAP1 POP PUSH2 0x2C12 PUSH1 0x0 DUP4 ADD DUP5 PUSH2 0x2BEE JUMP JUMPDEST SWAP3 SWAP2 POP POP JUMP JUMPDEST PUSH1 0x0 DUP1 PUSH1 0x40 DUP4 DUP6 SUB SLT ISZERO PUSH2 0x2C2F JUMPI PUSH2 0x2C2E PUSH2 0x28FE JUMP JUMPDEST JUMPDEST PUSH1 0x0 PUSH2 0x2C3D DUP6 DUP3 DUP7 ADD PUSH2 0x291A JUMP JUMPDEST SWAP3 POP POP PUSH1 0x20 PUSH2 0x2C4E DUP6 DUP3 DUP7 ADD PUSH2 0x29A5 JUMP JUMPDEST SWAP2 POP POP SWAP3 POP SWAP3 SWAP1 POP JUMP JUMPDEST PUSH1 0x0 DUP1 PUSH1 0x0 PUSH1 0x60 DUP5 DUP7 SUB SLT ISZERO PUSH2 0x2C71 JUMPI PUSH2 0x2C70 PUSH2 0x28FE JUMP JUMPDEST JUMPDEST PUSH1 0x0 PUSH2 0x2C7F DUP7 DUP3 DUP8 ADD PUSH2 0x291A JUMP JUMPDEST SWAP4 POP POP PUSH1 0x20 PUSH2 0x2C90 DUP7 DUP3 DUP8 ADD PUSH2 0x29A5 JUMP JUMPDEST SWAP3 POP POP PUSH1 0x40 PUSH2 0x2CA1 DUP7 DUP3 DUP8 ADD PUSH2 0x29A5 JUMP JUMPDEST SWAP2 POP POP SWAP3 POP SWAP3 POP SWAP3 JUMP JUMPDEST PUSH2 0x2CB4 DUP2 PUSH2 0x2A83 JUMP JUMPDEST DUP2 EQ PUSH2 0x2CBF JUMPI PUSH1 0x0 DUP1 REVERT JUMPDEST POP JUMP JUMPDEST PUSH1 0x0 DUP2 CALLDATALOAD SWAP1 POP PUSH2 0x2CD1 DUP2 PUSH2 0x2CAB JUMP JUMPDEST SWAP3 SWAP2 POP POP JUMP JUMPDEST PUSH2 0x2CE0 DUP2 PUSH2 0x2B13 JUMP JUMPDEST DUP2 EQ PUSH2 0x2CEB JUMPI PUSH1 0x0 DUP1 REVERT JUMPDEST POP JUMP JUMPDEST PUSH1 0x0 DUP2 CALLDATALOAD SWAP1 POP PUSH2 0x2CFD DUP2 PUSH2 0x2CD7 JUMP JUMPDEST SWAP3 SWAP2 POP POP JUMP JUMPDEST PUSH1 0x0 DUP1 PUSH1 0x0 DUP1 PUSH1 0x0 DUP1 PUSH1 0x0 PUSH1 0xE0 DUP9 DUP11 SUB SLT ISZERO PUSH2 0x2D22 JUMPI PUSH2 0x2D21 PUSH2 0x28FE JUMP JUMPDEST JUMPDEST PUSH1 0x0 PUSH2 0x2D30 DUP11 DUP3 DUP12 ADD PUSH2 0x29A5 JUMP JUMPDEST SWAP8 POP POP PUSH1 0x20 PUSH2 0x2D41 DUP11 DUP3 DUP12 ADD PUSH2 0x29A5 JUMP JUMPDEST SWAP7 POP POP PUSH1 0x40 PUSH2 0x2D52 DUP11 DUP3 DUP12 ADD PUSH2 0x291A JUMP JUMPDEST SWAP6 POP POP PUSH1 0x60 PUSH2 0x2D63 DUP11 DUP3 DUP12 ADD PUSH2 0x291A JUMP JUMPDEST SWAP5 POP POP PUSH1 0x80 PUSH2 0x2D74 DUP11 DUP3 DUP12 ADD PUSH2 0x2CC2 JUMP JUMPDEST SWAP4 POP POP PUSH1 0xA0 PUSH2 0x2D85 DUP11 DUP3 DUP12 ADD PUSH2 0x2CEE JUMP JUMPDEST SWAP3 POP POP PUSH1 0xC0 PUSH2 0x2D96 DUP11 DUP3 DUP12 ADD PUSH2 0x2CEE JUMP JUMPDEST SWAP2 POP POP SWAP3 SWAP6 SWAP9 SWAP2 SWAP5 SWAP8 POP SWAP3 SWAP6 POP JUMP JUMPDEST PUSH1 0x0 DUP1 PUSH1 0x40 DUP4 DUP6 SUB SLT ISZERO PUSH2 0x2DBC JUMPI PUSH2 0x2DBB PUSH2 0x28FE JUMP JUMPDEST JUMPDEST PUSH1 0x0 PUSH2 0x2DCA DUP6 DUP3 DUP7 ADD PUSH2 0x29A5 JUMP JUMPDEST SWAP3 POP POP PUSH1 0x20 PUSH2 0x2DDB DUP6 DUP3 DUP7 ADD PUSH2 0x29A5 JUMP JUMPDEST SWAP2 POP POP SWAP3 POP SWAP3 SWAP1 POP JUMP JUMPDEST PUSH1 0x0 DUP2 MLOAD SWAP1 POP PUSH2 0x2DF4 DUP2 PUSH2 0x2903 JUMP JUMPDEST SWAP3 SWAP2 POP POP JUMP JUMPDEST PUSH1 0x0 PUSH1 0x20 DUP3 DUP5 SUB SLT ISZERO PUSH2 0x2E10 JUMPI PUSH2 0x2E0F PUSH2 0x28FE JUMP JUMPDEST JUMPDEST PUSH1 0x0 PUSH2 0x2E1E DUP5 DUP3 DUP6 ADD PUSH2 0x2DE5 JUMP JUMPDEST SWAP2 POP POP SWAP3 SWAP2 POP POP JUMP JUMPDEST PUSH32 0x4E487B7100000000000000000000000000000000000000000000000000000000 PUSH1 0x0 MSTORE PUSH1 0x22 PUSH1 0x4 MSTORE PUSH1 0x24 PUSH1 0x0 REVERT JUMPDEST PUSH1 0x0 PUSH1 0x2 DUP3 DIV SWAP1 POP PUSH1 0x1 DUP3 AND DUP1 PUSH2 0x2E6E JUMPI PUSH1 0x7F DUP3 AND SWAP2 POP JUMPDEST PUSH1 0x20 DUP3 LT DUP2 EQ ISZERO PUSH2 0x2E82 JUMPI PUSH2 0x2E81 PUSH2 0x2E27 JUMP JUMPDEST JUMPDEST POP SWAP2 SWAP1 POP JUMP JUMPDEST PUSH32 0x4E487B7100000000000000000000000000000000000000000000000000000000 PUSH1 0x0 MSTORE PUSH1 0x11 PUSH1 0x4 MSTORE PUSH1 0x24 PUSH1 0x0 REVERT JUMPDEST PUSH1 0x0 PUSH2 0x2EC2 DUP3 PUSH2 0x280F JUMP JUMPDEST SWAP2 POP PUSH2 0x2ECD DUP4 PUSH2 0x280F JUMP JUMPDEST SWAP3 POP DUP3 DUP3 LT ISZERO PUSH2 0x2EE0 JUMPI PUSH2 0x2EDF PUSH2 0x2E88 JUMP JUMPDEST JUMPDEST DUP3 DUP3 SUB SWAP1 POP SWAP3 SWAP2 POP POP JUMP JUMPDEST PUSH32 0x4F776E61626C653A2063616C6C6572206973206E6F7420746865206D616E6167 PUSH1 0x0 DUP3 ADD MSTORE PUSH32 0x6572000000000000000000000000000000000000000000000000000000000000 PUSH1 0x20 DUP3 ADD MSTORE POP JUMP JUMPDEST PUSH1 0x0 PUSH2 0x2F47 PUSH1 0x22 DUP4 PUSH2 0x284E JUMP JUMPDEST SWAP2 POP PUSH2 0x2F52 DUP3 PUSH2 0x2EEB JUMP JUMPDEST PUSH1 0x40 DUP3 ADD SWAP1 POP SWAP2 SWAP1 POP JUMP JUMPDEST PUSH1 0x0 PUSH1 0x20 DUP3 ADD SWAP1 POP DUP2 DUP2 SUB PUSH1 0x0 DUP4 ADD MSTORE PUSH2 0x2F76 DUP2 PUSH2 0x2F3A JUMP JUMPDEST SWAP1 POP SWAP2 SWAP1 POP JUMP JUMPDEST PUSH1 0x0 DUP2 MLOAD SWAP1 POP PUSH2 0x2F8C DUP2 PUSH2 0x2CAB JUMP JUMPDEST SWAP3 SWAP2 POP POP JUMP JUMPDEST PUSH1 0x0 PUSH1 0x20 DUP3 DUP5 SUB SLT ISZERO PUSH2 0x2FA8 JUMPI PUSH2 0x2FA7 PUSH2 0x28FE JUMP JUMPDEST JUMPDEST PUSH1 0x0 PUSH2 0x2FB6 DUP5 DUP3 DUP6 ADD PUSH2 0x2F7D JUMP JUMPDEST SWAP2 POP POP SWAP3 SWAP2 POP POP JUMP JUMPDEST PUSH32 0x57524F4E475F444543494D414C53000000000000000000000000000000000000 PUSH1 0x0 DUP3 ADD MSTORE POP JUMP JUMPDEST PUSH1 0x0 PUSH2 0x2FF5 PUSH1 0xE DUP4 PUSH2 0x284E JUMP JUMPDEST SWAP2 POP PUSH2 0x3000 DUP3 PUSH2 0x2FBF JUMP JUMPDEST PUSH1 0x20 DUP3 ADD SWAP1 POP SWAP2 SWAP1 POP JUMP JUMPDEST PUSH1 0x0 PUSH1 0x20 DUP3 ADD SWAP1 POP DUP2 DUP2 SUB PUSH1 0x0 DUP4 ADD MSTORE PUSH2 0x3024 DUP2 PUSH2 0x2FE8 JUMP JUMPDEST SWAP1 POP SWAP2 SWAP1 POP JUMP JUMPDEST PUSH32 0x5A45524F5F534841524553000000000000000000000000000000000000000000 PUSH1 0x0 DUP3 ADD MSTORE POP JUMP JUMPDEST PUSH1 0x0 PUSH2 0x3061 PUSH1 0xB DUP4 PUSH2 0x284E JUMP JUMPDEST SWAP2 POP PUSH2 0x306C DUP3 PUSH2 0x302B JUMP JUMPDEST PUSH1 0x20 DUP3 ADD SWAP1 POP SWAP2 SWAP1 POP JUMP JUMPDEST PUSH1 0x0 PUSH1 0x20 DUP3 ADD SWAP1 POP DUP2 DUP2 SUB PUSH1 0x0 DUP4 ADD MSTORE PUSH2 0x3090 DUP2 PUSH2 0x3054 JUMP JUMPDEST SWAP1 POP SWAP2 SWAP1 POP JUMP JUMPDEST PUSH1 0x0 PUSH1 0x40 DUP3 ADD SWAP1 POP PUSH2 0x30AC PUSH1 0x0 DUP4 ADD DUP6 PUSH2 0x2819 JUMP JUMPDEST PUSH2 0x30B9 PUSH1 0x20 DUP4 ADD DUP5 PUSH2 0x2819 JUMP JUMPDEST SWAP4 SWAP3 POP POP POP JUMP JUMPDEST PUSH32 0x4645455F544F4F5F484947480000000000000000000000000000000000000000 PUSH1 0x0 DUP3 ADD MSTORE POP JUMP JUMPDEST PUSH1 0x0 PUSH2 0x30F6 PUSH1 0xC DUP4 PUSH2 0x284E JUMP JUMPDEST SWAP2 POP PUSH2 0x3101 DUP3 PUSH2 0x30C0 JUMP JUMPDEST PUSH1 0x20 DUP3 ADD SWAP1 POP SWAP2 SWAP1 POP JUMP JUMPDEST PUSH1 0x0 PUSH1 0x20 DUP3 ADD SWAP1 POP DUP2 DUP2 SUB PUSH1 0x0 DUP4 ADD MSTORE PUSH2 0x3125 DUP2 PUSH2 0x30E9 JUMP JUMPDEST SWAP1 POP SWAP2 SWAP1 POP JUMP JUMPDEST PUSH1 0x0 PUSH1 0x40 DUP3 ADD SWAP1 POP PUSH2 0x3141 PUSH1 0x0 DUP4 ADD DUP6 PUSH2 0x2BEE JUMP JUMPDEST PUSH2 0x314E PUSH1 0x20 DUP4 ADD DUP5 PUSH2 0x2819 JUMP JUMPDEST SWAP4 SWAP3 POP POP POP JUMP JUMPDEST PUSH1 0x0 DUP2 MLOAD SWAP1 POP PUSH2 0x3164 DUP2 PUSH2 0x2ABA JUMP JUMPDEST SWAP3 SWAP2 POP POP JUMP JUMPDEST PUSH1 0x0 PUSH1 0x20 DUP3 DUP5 SUB SLT ISZERO PUSH2 0x3180 JUMPI PUSH2 0x317F PUSH2 0x28FE JUMP JUMPDEST JUMPDEST PUSH1 0x0 PUSH2 0x318E DUP5 DUP3 DUP6 ADD PUSH2 0x3155 JUMP JUMPDEST SWAP2 POP POP SWAP3 SWAP2 POP POP JUMP JUMPDEST PUSH32 0x5A45524F5F415353455453000000000000000000000000000000000000000000 PUSH1 0x0 DUP3 ADD MSTORE POP JUMP JUMPDEST PUSH1 0x0 PUSH2 0x31CD PUSH1 0xB DUP4 PUSH2 0x284E JUMP JUMPDEST SWAP2 POP PUSH2 0x31D8 DUP3 PUSH2 0x3197 JUMP JUMPDEST PUSH1 0x20 DUP3 ADD SWAP1 POP SWAP2 SWAP1 POP JUMP JUMPDEST PUSH1 0x0 PUSH1 0x20 DUP3 ADD SWAP1 POP DUP2 DUP2 SUB PUSH1 0x0 DUP4 ADD MSTORE PUSH2 0x31FC DUP2 PUSH2 0x31C0 JUMP JUMPDEST SWAP1 POP SWAP2 SWAP1 POP JUMP JUMPDEST PUSH32 0x5441524745545F544F4F5F484947480000000000000000000000000000000000 PUSH1 0x0 DUP3 ADD MSTORE POP JUMP JUMPDEST PUSH1 0x0 PUSH2 0x3239 PUSH1 0xF DUP4 PUSH2 0x284E JUMP JUMPDEST SWAP2 POP PUSH2 0x3244 DUP3 PUSH2 0x3203 JUMP JUMPDEST PUSH1 0x20 DUP3 ADD SWAP1 POP SWAP2 SWAP1 POP JUMP JUMPDEST PUSH1 0x0 PUSH1 0x20 DUP3 ADD SWAP1 POP DUP2 DUP2 SUB PUSH1 0x0 DUP4 ADD MSTORE PUSH2 0x3268 DUP2 PUSH2 0x322C JUMP JUMPDEST SWAP1 POP SWAP2 SWAP1 POP JUMP JUMPDEST PUSH32 0x5045524D49545F444541444C494E455F45585049524544000000000000000000 PUSH1 0x0 DUP3 ADD MSTORE POP JUMP JUMPDEST PUSH1 0x0 PUSH2 0x32A5 PUSH1 0x17 DUP4 PUSH2 0x284E JUMP JUMPDEST SWAP2 POP PUSH2 0x32B0 DUP3 PUSH2 0x326F JUMP JUMPDEST PUSH1 0x20 DUP3 ADD SWAP1 POP SWAP2 SWAP1 POP JUMP JUMPDEST PUSH1 0x0 PUSH1 0x20 DUP3 ADD SWAP1 POP DUP2 DUP2 SUB PUSH1 0x0 DUP4 ADD MSTORE PUSH2 0x32D4 DUP2 PUSH2 0x3298 JUMP JUMPDEST SWAP1 POP SWAP2 SWAP1 POP JUMP JUMPDEST PUSH1 0x0 PUSH1 0xC0 DUP3 ADD SWAP1 POP PUSH2 0x32F0 PUSH1 0x0 DUP4 ADD DUP10 PUSH2 0x2B1D JUMP JUMPDEST PUSH2 0x32FD PUSH1 0x20 DUP4 ADD DUP9 PUSH2 0x2BEE JUMP JUMPDEST PUSH2 0x330A PUSH1 0x40 DUP4 ADD DUP8 PUSH2 0x2BEE JUMP JUMPDEST PUSH2 0x3317 PUSH1 0x60 DUP4 ADD DUP7 PUSH2 0x2819 JUMP JUMPDEST PUSH2 0x3324 PUSH1 0x80 DUP4 ADD DUP6 PUSH2 0x2819 JUMP JUMPDEST PUSH2 0x3331 PUSH1 0xA0 DUP4 ADD DUP5 PUSH2 0x2819 JUMP JUMPDEST SWAP8 SWAP7 POP POP POP POP POP POP POP JUMP JUMPDEST PUSH1 0x0 DUP2 SWAP1 POP SWAP3 SWAP2 POP POP JUMP JUMPDEST PUSH32 0x1901000000000000000000000000000000000000000000000000000000000000 PUSH1 0x0 DUP3 ADD MSTORE POP JUMP JUMPDEST PUSH1 0x0 PUSH2 0x337D PUSH1 0x2 DUP4 PUSH2 0x333C JUMP JUMPDEST SWAP2 POP PUSH2 0x3388 DUP3 PUSH2 0x3347 JUMP JUMPDEST PUSH1 0x2 DUP3 ADD SWAP1 POP SWAP2 SWAP1 POP JUMP JUMPDEST PUSH1 0x0 DUP2 SWAP1 POP SWAP2 SWAP1 POP JUMP JUMPDEST PUSH2 0x33AE PUSH2 0x33A9 DUP3 PUSH2 0x2B13 JUMP JUMPDEST PUSH2 0x3393 JUMP JUMPDEST DUP3 MSTORE POP POP JUMP JUMPDEST PUSH1 0x0 PUSH2 0x33BF DUP3 PUSH2 0x3370 JUMP JUMPDEST SWAP2 POP PUSH2 0x33CB DUP3 DUP6 PUSH2 0x339D JUMP JUMPDEST PUSH1 0x20 DUP3 ADD SWAP2 POP PUSH2 0x33DB DUP3 DUP5 PUSH2 0x339D JUMP JUMPDEST PUSH1 0x20 DUP3 ADD SWAP2 POP DUP2 SWAP1 POP SWAP4 SWAP3 POP POP POP JUMP JUMPDEST PUSH1 0x0 PUSH1 0x80 DUP3 ADD SWAP1 POP PUSH2 0x3400 PUSH1 0x0 DUP4 ADD DUP8 PUSH2 0x2B1D JUMP JUMPDEST PUSH2 0x340D PUSH1 0x20 DUP4 ADD DUP7 PUSH2 0x2A90 JUMP JUMPDEST PUSH2 0x341A PUSH1 0x40 DUP4 ADD DUP6 PUSH2 0x2B1D JUMP JUMPDEST PUSH2 0x3427 PUSH1 0x60 DUP4 ADD DUP5 PUSH2 0x2B1D JUMP JUMPDEST SWAP6 SWAP5 POP POP POP POP POP JUMP JUMPDEST PUSH32 0x494E56414C49445F5349474E4552000000000000000000000000000000000000 PUSH1 0x0 DUP3 ADD MSTORE POP JUMP JUMPDEST PUSH1 0x0 PUSH2 0x3466 PUSH1 0xE DUP4 PUSH2 0x284E JUMP JUMPDEST SWAP2 POP PUSH2 0x3471 DUP3 PUSH2 0x3430 JUMP JUMPDEST PUSH1 0x20 DUP3 ADD SWAP1 POP SWAP2 SWAP1 POP JUMP JUMPDEST PUSH1 0x0 PUSH1 0x20 DUP3 ADD SWAP1 POP DUP2 DUP2 SUB PUSH1 0x0 DUP4 ADD MSTORE PUSH2 0x3495 DUP2 PUSH2 0x3459 JUMP JUMPDEST SWAP1 POP SWAP2 SWAP1 POP JUMP JUMPDEST PUSH32 0x4F776E61626C653A206E6577206D616E6167657220697320746865207A65726F PUSH1 0x0 DUP3 ADD MSTORE PUSH32 0x2061646472657373000000000000000000000000000000000000000000000000 PUSH1 0x20 DUP3 ADD MSTORE POP JUMP JUMPDEST PUSH1 0x0 PUSH2 0x34F8 PUSH1 0x28 DUP4 PUSH2 0x284E JUMP JUMPDEST SWAP2 POP PUSH2 0x3503 DUP3 PUSH2 0x349C JUMP JUMPDEST PUSH1 0x40 DUP3 ADD SWAP1 POP SWAP2 SWAP1 POP JUMP JUMPDEST PUSH1 0x0 PUSH1 0x20 DUP3 ADD SWAP1 POP DUP2 DUP2 SUB PUSH1 0x0 DUP4 ADD MSTORE PUSH2 0x3527 DUP2 PUSH2 0x34EB JUMP JUMPDEST SWAP1 POP SWAP2 SWAP1 POP JUMP JUMPDEST PUSH1 0x0 DUP2 SWAP1 POP SWAP3 SWAP2 POP POP JUMP JUMPDEST PUSH1 0x0 DUP2 SWAP1 POP DUP2 PUSH1 0x0 MSTORE PUSH1 0x20 PUSH1 0x0 KECCAK256 SWAP1 POP SWAP2 SWAP1 POP JUMP JUMPDEST PUSH1 0x0 DUP2 SLOAD PUSH2 0x355B DUP2 PUSH2 0x2E56 JUMP JUMPDEST PUSH2 0x3565 DUP2 DUP7 PUSH2 0x352E JUMP JUMPDEST SWAP5 POP PUSH1 0x1 DUP3 AND PUSH1 0x0 DUP2 EQ PUSH2 0x3580 JUMPI PUSH1 0x1 DUP2 EQ PUSH2 0x3591 JUMPI PUSH2 0x35C4 JUMP JUMPDEST PUSH1 0xFF NOT DUP4 AND DUP7 MSTORE DUP2 DUP7 ADD SWAP4 POP PUSH2 0x35C4 JUMP JUMPDEST PUSH2 0x359A DUP6 PUSH2 0x3539 JUMP JUMPDEST PUSH1 0x0 JUMPDEST DUP4 DUP2 LT ISZERO PUSH2 0x35BC JUMPI DUP2 SLOAD DUP2 DUP10 ADD MSTORE PUSH1 0x1 DUP3 ADD SWAP2 POP PUSH1 0x20 DUP2 ADD SWAP1 POP PUSH2 0x359D JUMP JUMPDEST DUP4 DUP9 ADD SWAP6 POP POP POP JUMPDEST POP POP POP SWAP3 SWAP2 POP POP JUMP JUMPDEST PUSH1 0x0 PUSH2 0x35D9 DUP3 DUP5 PUSH2 0x354E JUMP JUMPDEST SWAP2 POP DUP2 SWAP1 POP SWAP3 SWAP2 POP POP JUMP JUMPDEST PUSH1 0x0 PUSH1 0xA0 DUP3 ADD SWAP1 POP PUSH2 0x35F9 PUSH1 0x0 DUP4 ADD DUP9 PUSH2 0x2B1D JUMP JUMPDEST PUSH2 0x3606 PUSH1 0x20 DUP4 ADD DUP8 PUSH2 0x2B1D JUMP JUMPDEST PUSH2 0x3613 PUSH1 0x40 DUP4 ADD DUP7 PUSH2 0x2B1D JUMP JUMPDEST PUSH2 0x3620 PUSH1 0x60 DUP4 ADD DUP6 PUSH2 0x2819 JUMP JUMPDEST PUSH2 0x362D PUSH1 0x80 DUP4 ADD DUP5 PUSH2 0x2BEE JUMP JUMPDEST SWAP7 SWAP6 POP POP POP POP POP POP JUMP JUMPDEST PUSH32 0x5452414E534645525F46524F4D5F4641494C4544000000000000000000000000 PUSH1 0x0 DUP3 ADD MSTORE POP JUMP JUMPDEST PUSH1 0x0 PUSH2 0x366D PUSH1 0x14 DUP4 PUSH2 0x284E JUMP JUMPDEST SWAP2 POP PUSH2 0x3678 DUP3 PUSH2 0x3637 JUMP JUMPDEST PUSH1 0x20 DUP3 ADD SWAP1 POP SWAP2 SWAP1 POP JUMP JUMPDEST PUSH1 0x0 PUSH1 0x20 DUP3 ADD SWAP1 POP DUP2 DUP2 SUB PUSH1 0x0 DUP4 ADD MSTORE PUSH2 0x369C DUP2 PUSH2 0x3660 JUMP JUMPDEST SWAP1 POP SWAP2 SWAP1 POP JUMP JUMPDEST PUSH1 0x0 PUSH2 0x36AE DUP3 PUSH2 0x280F JUMP JUMPDEST SWAP2 POP PUSH2 0x36B9 DUP4 PUSH2 0x280F JUMP JUMPDEST SWAP3 POP DUP3 PUSH32 0xFFFFFFFFFFFFFFFFFFFFFFFFFFFFFFFFFFFFFFFFFFFFFFFFFFFFFFFFFFFFFFFF SUB DUP3 GT ISZERO PUSH2 0x36EE JUMPI PUSH2 0x36ED PUSH2 0x2E88 JUMP JUMPDEST JUMPDEST DUP3 DUP3 ADD SWAP1 POP SWAP3 SWAP2 POP POP JUMP JUMPDEST PUSH1 0x0 PUSH2 0x3704 DUP3 PUSH2 0x280F JUMP JUMPDEST SWAP2 POP PUSH32 0xFFFFFFFFFFFFFFFFFFFFFFFFFFFFFFFFFFFFFFFFFFFFFFFFFFFFFFFFFFFFFFFF DUP3 EQ ISZERO PUSH2 0x3737 JUMPI PUSH2 0x3736 PUSH2 0x2E88 JUMP JUMPDEST JUMPDEST PUSH1 0x1 DUP3 ADD SWAP1 POP SWAP2 SWAP1 POP JUMP JUMPDEST PUSH32 0x5452414E534645525F4641494C45440000000000000000000000000000000000 PUSH1 0x0 DUP3 ADD MSTORE POP JUMP JUMPDEST PUSH1 0x0 PUSH2 0x3778 PUSH1 0xF DUP4 PUSH2 0x284E JUMP JUMPDEST SWAP2 POP PUSH2 0x3783 DUP3 PUSH2 0x3742 JUMP JUMPDEST PUSH1 0x20 DUP3 ADD SWAP1 POP SWAP2 SWAP1 POP JUMP JUMPDEST PUSH1 0x0 PUSH1 0x20 DUP3 ADD SWAP1 POP DUP2 DUP2 SUB PUSH1 0x0 DUP4 ADD MSTORE PUSH2 0x37A7 DUP2 PUSH2 0x376B JUMP JUMPDEST SWAP1 POP SWAP2 SWAP1 POP JUMP INVALID LOG2 PUSH5 0x6970667358 0x22 SLT KECCAK256 0xC3 STATICCALL SHR 0xE6 SWAP5 XOR PUSH3 0x1516A0 0xEE PUSH6 0x9C6D3A92F5D5 OR INVALID 0xB4 BYTE 0xCD PUSH32 0x1B3C86DA6304E5B564736F6C634300080A003300000000000000000000000000 "
				},
				"gasEstimates": {
					"creation": {
						"codeDepositCost": "2861600",
						"executionCost": "infinite",
						"totalCost": "infinite"
					},
					"external": {
						"DOMAIN_SEPARATOR()": "infinite",
						"UNDERLYING()": "infinite",
						"afterDepositHookCalledCounter()": "2583",
						"allowance(address,address)": "infinite",
						"approve(address,uint256)": "infinite",
						"asset()": "infinite",
						"balanceOf(address)": "2881",
						"beforeWithdrawHookCalledCounter()": "2518",
						"claimFees(uint256)": "infinite",
						"convertToAssets(uint256)": "infinite",
						"convertToShares(uint256)": "infinite",
						"decimals()": "infinite",
						"deposit(uint256,address)": "infinite",
						"feePercent()": "2584",
						"manager()": "2634",
						"maxDeposit(address)": "741",
						"maxMint(address)": "696",
						"maxRedeem(address)": "2974",
						"maxWithdraw(address)": "infinite",
						"mint(uint256,address)": "infinite",
						"name()": "infinite",
						"nonces(address)": "2947",
						"permit(address,address,uint256,uint256,uint8,bytes32,bytes32)": "infinite",
						"previewDeposit(uint256)": "infinite",
						"previewMint(uint256)": "infinite",
						"previewRedeem(uint256)": "infinite",
						"previewWithdraw(uint256)": "infinite",
						"redeem(uint256,address,address)": "infinite",
						"renounceOwnership()": "30386",
						"setFeePercent(uint256)": "infinite",
						"setTargetFloatPercent(uint256)": "infinite",
						"setUnderlyingIsWETH(bool)": "infinite",
						"symbol()": "infinite",
						"targetFloatPercent()": "2497",
						"totalAssets()": "infinite",
						"totalStrategyHoldings()": "2495",
						"totalSupply()": "2475",
						"transfer(address,uint256)": "infinite",
						"transferFrom(address,address,uint256)": "infinite",
						"transferOwnership(address)": "30756",
						"underlyingIsWETH()": "2603",
						"withdraw(uint256,address,address)": "infinite"
					},
					"internal": {
						"afterDeposit(uint256,uint256)": "24373",
						"beforeWithdraw(uint256,uint256)": "24373",
						"strategyACall(address,uint256,uint160)": "infinite"
					}
				},
				"methodIdentifiers": {
					"DOMAIN_SEPARATOR()": "3644e515",
					"UNDERLYING()": "c5d664c6",
					"afterDepositHookCalledCounter()": "fc407ae7",
					"allowance(address,address)": "dd62ed3e",
					"approve(address,uint256)": "095ea7b3",
					"asset()": "38d52e0f",
					"balanceOf(address)": "70a08231",
					"beforeWithdrawHookCalledCounter()": "bc368a8a",
					"claimFees(uint256)": "ac68a748",
					"convertToAssets(uint256)": "07a2d13a",
					"convertToShares(uint256)": "c6e6f592",
					"decimals()": "313ce567",
					"deposit(uint256,address)": "6e553f65",
					"feePercent()": "7fd6f15c",
					"manager()": "481c6a75",
					"maxDeposit(address)": "402d267d",
					"maxMint(address)": "c63d75b6",
					"maxRedeem(address)": "d905777e",
					"maxWithdraw(address)": "ce96cb77",
					"mint(uint256,address)": "94bf804d",
					"name()": "06fdde03",
					"nonces(address)": "7ecebe00",
					"permit(address,address,uint256,uint256,uint8,bytes32,bytes32)": "d505accf",
					"previewDeposit(uint256)": "ef8b30f7",
					"previewMint(uint256)": "b3d7f6b9",
					"previewRedeem(uint256)": "4cdad506",
					"previewWithdraw(uint256)": "0a28a477",
					"redeem(uint256,address,address)": "ba087652",
					"renounceOwnership()": "715018a6",
					"setFeePercent(uint256)": "7ce3489b",
					"setTargetFloatPercent(uint256)": "bd662f88",
					"setUnderlyingIsWETH(bool)": "32ff7732",
					"symbol()": "95d89b41",
					"targetFloatPercent()": "1c693478",
					"totalAssets()": "01e1d114",
					"totalStrategyHoldings()": "ecad9565",
					"totalSupply()": "18160ddd",
					"transfer(address,uint256)": "a9059cbb",
					"transferFrom(address,address,uint256)": "23b872dd",
					"transferOwnership(address)": "f2fde38b",
					"underlyingIsWETH()": "f84d73f4",
					"withdraw(uint256,address,address)": "b460af94"
				}
			},
			"storageLayout": {
				"storage": [
					{
						"astId": 20,
						"contract": "SquiddyCore.sol:SquiddyCore",
						"label": "name",
						"offset": 0,
						"slot": "0",
						"type": "t_string_storage"
					},
					{
						"astId": 22,
						"contract": "SquiddyCore.sol:SquiddyCore",
						"label": "symbol",
						"offset": 0,
						"slot": "1",
						"type": "t_string_storage"
					},
					{
						"astId": 26,
						"contract": "SquiddyCore.sol:SquiddyCore",
						"label": "totalSupply",
						"offset": 0,
						"slot": "2",
						"type": "t_uint256"
					},
					{
						"astId": 30,
						"contract": "SquiddyCore.sol:SquiddyCore",
						"label": "balanceOf",
						"offset": 0,
						"slot": "3",
						"type": "t_mapping(t_address,t_uint256)"
					},
					{
						"astId": 36,
						"contract": "SquiddyCore.sol:SquiddyCore",
						"label": "allowance",
						"offset": 0,
						"slot": "4",
						"type": "t_mapping(t_address,t_mapping(t_address,t_uint256))"
					},
					{
						"astId": 44,
						"contract": "SquiddyCore.sol:SquiddyCore",
						"label": "nonces",
						"offset": 0,
						"slot": "5",
						"type": "t_mapping(t_address,t_uint256)"
					},
					{
						"astId": 1122,
						"contract": "SquiddyCore.sol:SquiddyCore",
						"label": "_manager",
						"offset": 0,
						"slot": "6",
						"type": "t_address"
					},
					{
						"astId": 1125,
						"contract": "SquiddyCore.sol:SquiddyCore",
						"label": "beforeWithdrawHookCalledCounter",
						"offset": 0,
						"slot": "7",
						"type": "t_uint256"
					},
					{
						"astId": 1128,
						"contract": "SquiddyCore.sol:SquiddyCore",
						"label": "afterDepositHookCalledCounter",
						"offset": 0,
						"slot": "8",
						"type": "t_uint256"
					},
					{
						"astId": 1345,
						"contract": "SquiddyCore.sol:SquiddyCore",
						"label": "feePercent",
						"offset": 0,
						"slot": "9",
						"type": "t_uint256"
					},
					{
						"astId": 1398,
						"contract": "SquiddyCore.sol:SquiddyCore",
						"label": "targetFloatPercent",
						"offset": 0,
						"slot": "10",
						"type": "t_uint256"
					},
					{
						"astId": 1427,
						"contract": "SquiddyCore.sol:SquiddyCore",
						"label": "underlyingIsWETH",
						"offset": 0,
						"slot": "11",
						"type": "t_bool"
					},
					{
						"astId": 1461,
						"contract": "SquiddyCore.sol:SquiddyCore",
						"label": "totalStrategyHoldings",
						"offset": 0,
						"slot": "12",
						"type": "t_uint256"
					}
				],
				"types": {
					"t_address": {
						"encoding": "inplace",
						"label": "address",
						"numberOfBytes": "20"
					},
					"t_bool": {
						"encoding": "inplace",
						"label": "bool",
						"numberOfBytes": "1"
					},
					"t_mapping(t_address,t_mapping(t_address,t_uint256))": {
						"encoding": "mapping",
						"key": "t_address",
						"label": "mapping(address => mapping(address => uint256))",
						"numberOfBytes": "32",
						"value": "t_mapping(t_address,t_uint256)"
					},
					"t_mapping(t_address,t_uint256)": {
						"encoding": "mapping",
						"key": "t_address",
						"label": "mapping(address => uint256)",
						"numberOfBytes": "32",
						"value": "t_uint256"
					},
					"t_string_storage": {
						"encoding": "bytes",
						"label": "string",
						"numberOfBytes": "32"
					},
					"t_uint256": {
						"encoding": "inplace",
						"label": "uint256",
						"numberOfBytes": "32"
					}
				}
			},
			"userdoc": {
				"kind": "user",
				"methods": {
					"claimFees(uint256)": {
						"notice": "Claims fees accrued from harvests."
					},
					"feePercent()": {
						"notice": "The percentage of profit recognized each harvest to reserve as fees."
					},
					"setFeePercent(uint256)": {
						"notice": "Sets a new fee percentage."
					},
					"setTargetFloatPercent(uint256)": {
						"notice": "Set a new target float percentage."
					},
					"setUnderlyingIsWETH(bool)": {
						"notice": "Sets whether the Vault treats the underlying as WETH."
					},
					"targetFloatPercent()": {
						"notice": "The desired percentage of the Vault's holdings to keep as float."
					},
					"totalStrategyHoldings()": {
						"notice": "The total amount of underlying tokens held in strategies at the time of the last harvest."
					},
					"underlyingIsWETH()": {
						"notice": "Whether the Vault should treat the underlying token as WETH compatible."
					}
				},
				"version": 1
			}
		}
	}
}