{
	"SquiddyCore.sol": {
		"SquiddyCore": {
			"abi": [
				{
					"inputs": [
						{
							"internalType": "contract ERC20",
							"name": "_underlying",
							"type": "address"
						},
						{
							"internalType": "string",
							"name": "_name",
							"type": "string"
						},
						{
							"internalType": "string",
							"name": "_symbol",
							"type": "string"
						},
						{
							"internalType": "uint8",
							"name": "_decimals",
							"type": "uint8"
						}
					],
					"stateMutability": "nonpayable",
					"type": "constructor"
				},
				{
					"anonymous": false,
					"inputs": [
						{
							"indexed": true,
							"internalType": "address",
							"name": "owner",
							"type": "address"
						},
						{
							"indexed": true,
							"internalType": "address",
							"name": "spender",
							"type": "address"
						},
						{
							"indexed": false,
							"internalType": "uint256",
							"name": "amount",
							"type": "uint256"
						}
					],
					"name": "Approval",
					"type": "event"
				},
				{
					"anonymous": false,
					"inputs": [
						{
							"indexed": true,
							"internalType": "address",
							"name": "caller",
							"type": "address"
						},
						{
							"indexed": true,
							"internalType": "address",
							"name": "owner",
							"type": "address"
						},
						{
							"indexed": false,
							"internalType": "uint256",
							"name": "assets",
							"type": "uint256"
						},
						{
							"indexed": false,
							"internalType": "uint256",
							"name": "shares",
							"type": "uint256"
						}
					],
					"name": "Deposit",
					"type": "event"
				},
				{
					"anonymous": false,
					"inputs": [
						{
							"indexed": true,
							"internalType": "address",
							"name": "user",
							"type": "address"
						},
						{
							"indexed": false,
							"internalType": "uint256",
							"name": "newFeePercent",
							"type": "uint256"
						}
					],
					"name": "FeePercentUpdated",
					"type": "event"
				},
				{
					"anonymous": false,
					"inputs": [
						{
							"indexed": true,
							"internalType": "address",
							"name": "vault",
							"type": "address"
						},
						{
							"indexed": false,
							"internalType": "uint256",
							"name": "profitOverLoss",
							"type": "uint256"
						}
					],
					"name": "HarvestStrategyA",
					"type": "event"
				},
				{
					"anonymous": false,
					"inputs": [
						{
							"indexed": true,
							"internalType": "address",
							"name": "vault",
							"type": "address"
						},
						{
							"indexed": false,
							"internalType": "uint256",
							"name": "profitOverLoss",
							"type": "uint256"
						}
					],
					"name": "HarvestStrategyB",
					"type": "event"
				},
				{
					"anonymous": false,
					"inputs": [
						{
							"indexed": true,
							"internalType": "address",
							"name": "previousManager",
							"type": "address"
						},
						{
							"indexed": true,
							"internalType": "address",
							"name": "newManager",
							"type": "address"
						}
					],
					"name": "OwnershipTransferred",
					"type": "event"
				},
				{
					"anonymous": false,
					"inputs": [
						{
							"indexed": true,
							"internalType": "address",
							"name": "searcher",
							"type": "address"
						},
						{
							"indexed": true,
							"internalType": "address",
							"name": "vault",
							"type": "address"
						},
						{
							"indexed": false,
							"internalType": "uint256",
							"name": "value",
							"type": "uint256"
						},
						{
							"indexed": false,
							"internalType": "uint256",
							"name": "duration",
							"type": "uint256"
						}
					],
					"name": "StrategyAInitilized",
					"type": "event"
				},
				{
					"anonymous": false,
					"inputs": [
						{
							"indexed": true,
							"internalType": "address",
							"name": "stakePoolContract",
							"type": "address"
						},
						{
							"indexed": true,
							"internalType": "address",
							"name": "vault",
							"type": "address"
						},
						{
							"indexed": false,
							"internalType": "uint256",
							"name": "value",
							"type": "uint256"
						},
						{
							"indexed": false,
							"internalType": "uint256",
							"name": "duration",
							"type": "uint256"
						}
					],
					"name": "StrategyBInitilized",
					"type": "event"
				},
				{
					"anonymous": false,
					"inputs": [
						{
							"indexed": true,
							"internalType": "address",
							"name": "from",
							"type": "address"
						},
						{
							"indexed": true,
							"internalType": "address",
							"name": "to",
							"type": "address"
						},
						{
							"indexed": false,
							"internalType": "uint256",
							"name": "amount",
							"type": "uint256"
						}
					],
					"name": "Transfer",
					"type": "event"
				},
				{
					"anonymous": false,
					"inputs": [
						{
							"indexed": true,
							"internalType": "address",
							"name": "caller",
							"type": "address"
						},
						{
							"indexed": true,
							"internalType": "address",
							"name": "receiver",
							"type": "address"
						},
						{
							"indexed": true,
							"internalType": "address",
							"name": "owner",
							"type": "address"
						},
						{
							"indexed": false,
							"internalType": "uint256",
							"name": "assets",
							"type": "uint256"
						},
						{
							"indexed": false,
							"internalType": "uint256",
							"name": "shares",
							"type": "uint256"
						}
					],
					"name": "Withdraw",
					"type": "event"
				},
				{
					"inputs": [],
					"name": "DOMAIN_SEPARATOR",
					"outputs": [
						{
							"internalType": "bytes32",
							"name": "",
							"type": "bytes32"
						}
					],
					"stateMutability": "view",
					"type": "function"
				},
				{
					"inputs": [],
					"name": "afterDepositHookCalledCounter",
					"outputs": [
						{
							"internalType": "uint256",
							"name": "",
							"type": "uint256"
						}
					],
					"stateMutability": "view",
					"type": "function"
				},
				{
					"inputs": [
						{
							"internalType": "address",
							"name": "",
							"type": "address"
						},
						{
							"internalType": "address",
							"name": "",
							"type": "address"
						}
					],
					"name": "allowance",
					"outputs": [
						{
							"internalType": "uint256",
							"name": "",
							"type": "uint256"
						}
					],
					"stateMutability": "view",
					"type": "function"
				},
				{
					"inputs": [
						{
							"internalType": "address",
							"name": "spender",
							"type": "address"
						},
						{
							"internalType": "uint256",
							"name": "amount",
							"type": "uint256"
						}
					],
					"name": "approve",
					"outputs": [
						{
							"internalType": "bool",
							"name": "",
							"type": "bool"
						}
					],
					"stateMutability": "nonpayable",
					"type": "function"
				},
				{
					"inputs": [],
					"name": "asset",
					"outputs": [
						{
							"internalType": "contract ERC20",
							"name": "",
							"type": "address"
						}
					],
					"stateMutability": "view",
					"type": "function"
				},
				{
					"inputs": [
						{
							"internalType": "address",
							"name": "",
							"type": "address"
						}
					],
					"name": "balanceOf",
					"outputs": [
						{
							"internalType": "uint256",
							"name": "",
							"type": "uint256"
						}
					],
					"stateMutability": "view",
					"type": "function"
				},
				{
					"inputs": [],
					"name": "beforeWithdrawHookCalledCounter",
					"outputs": [
						{
							"internalType": "uint256",
							"name": "",
							"type": "uint256"
						}
					],
					"stateMutability": "view",
					"type": "function"
				},
				{
					"inputs": [
						{
							"internalType": "uint256",
							"name": "shares",
							"type": "uint256"
						}
					],
					"name": "convertToAssets",
					"outputs": [
						{
							"internalType": "uint256",
							"name": "",
							"type": "uint256"
						}
					],
					"stateMutability": "view",
					"type": "function"
				},
				{
					"inputs": [
						{
							"internalType": "uint256",
							"name": "assets",
							"type": "uint256"
						}
					],
					"name": "convertToShares",
					"outputs": [
						{
							"internalType": "uint256",
							"name": "",
							"type": "uint256"
						}
					],
					"stateMutability": "view",
					"type": "function"
				},
				{
					"inputs": [],
					"name": "decimals",
					"outputs": [
						{
							"internalType": "uint8",
							"name": "",
							"type": "uint8"
						}
					],
					"stateMutability": "view",
					"type": "function"
				},
				{
					"inputs": [
						{
							"internalType": "uint256",
							"name": "assets",
							"type": "uint256"
						},
						{
							"internalType": "address",
							"name": "receiver",
							"type": "address"
						}
					],
					"name": "deposit",
					"outputs": [
						{
							"internalType": "uint256",
							"name": "shares",
							"type": "uint256"
						}
					],
					"stateMutability": "nonpayable",
					"type": "function"
				},
				{
					"inputs": [],
					"name": "feePercent",
					"outputs": [
						{
							"internalType": "uint256",
							"name": "",
							"type": "uint256"
						}
					],
					"stateMutability": "view",
					"type": "function"
				},
				{
					"inputs": [],
					"name": "manager",
					"outputs": [
						{
							"internalType": "address",
							"name": "",
							"type": "address"
						}
					],
					"stateMutability": "view",
					"type": "function"
				},
				{
					"inputs": [
						{
							"internalType": "address",
							"name": "",
							"type": "address"
						}
					],
					"name": "maxDeposit",
					"outputs": [
						{
							"internalType": "uint256",
							"name": "",
							"type": "uint256"
						}
					],
					"stateMutability": "view",
					"type": "function"
				},
				{
					"inputs": [
						{
							"internalType": "address",
							"name": "",
							"type": "address"
						}
					],
					"name": "maxMint",
					"outputs": [
						{
							"internalType": "uint256",
							"name": "",
							"type": "uint256"
						}
					],
					"stateMutability": "view",
					"type": "function"
				},
				{
					"inputs": [
						{
							"internalType": "address",
							"name": "owner",
							"type": "address"
						}
					],
					"name": "maxRedeem",
					"outputs": [
						{
							"internalType": "uint256",
							"name": "",
							"type": "uint256"
						}
					],
					"stateMutability": "view",
					"type": "function"
				},
				{
					"inputs": [
						{
							"internalType": "address",
							"name": "owner",
							"type": "address"
						}
					],
					"name": "maxWithdraw",
					"outputs": [
						{
							"internalType": "uint256",
							"name": "",
							"type": "uint256"
						}
					],
					"stateMutability": "view",
					"type": "function"
				},
				{
					"inputs": [
						{
							"internalType": "uint256",
							"name": "shares",
							"type": "uint256"
						},
						{
							"internalType": "address",
							"name": "receiver",
							"type": "address"
						}
					],
					"name": "mint",
					"outputs": [
						{
							"internalType": "uint256",
							"name": "assets",
							"type": "uint256"
						}
					],
					"stateMutability": "nonpayable",
					"type": "function"
				},
				{
					"inputs": [],
					"name": "name",
					"outputs": [
						{
							"internalType": "string",
							"name": "",
							"type": "string"
						}
					],
					"stateMutability": "view",
					"type": "function"
				},
				{
					"inputs": [
						{
							"internalType": "address",
							"name": "",
							"type": "address"
						}
					],
					"name": "nonces",
					"outputs": [
						{
							"internalType": "uint256",
							"name": "",
							"type": "uint256"
						}
					],
					"stateMutability": "view",
					"type": "function"
				},
				{
					"inputs": [
						{
							"internalType": "address",
							"name": "owner",
							"type": "address"
						},
						{
							"internalType": "address",
							"name": "spender",
							"type": "address"
						},
						{
							"internalType": "uint256",
							"name": "value",
							"type": "uint256"
						},
						{
							"internalType": "uint256",
							"name": "deadline",
							"type": "uint256"
						},
						{
							"internalType": "uint8",
							"name": "v",
							"type": "uint8"
						},
						{
							"internalType": "bytes32",
							"name": "r",
							"type": "bytes32"
						},
						{
							"internalType": "bytes32",
							"name": "s",
							"type": "bytes32"
						}
					],
					"name": "permit",
					"outputs": [],
					"stateMutability": "nonpayable",
					"type": "function"
				},
				{
					"inputs": [
						{
							"internalType": "uint256",
							"name": "assets",
							"type": "uint256"
						}
					],
					"name": "previewDeposit",
					"outputs": [
						{
							"internalType": "uint256",
							"name": "",
							"type": "uint256"
						}
					],
					"stateMutability": "view",
					"type": "function"
				},
				{
					"inputs": [
						{
							"internalType": "uint256",
							"name": "shares",
							"type": "uint256"
						}
					],
					"name": "previewMint",
					"outputs": [
						{
							"internalType": "uint256",
							"name": "",
							"type": "uint256"
						}
					],
					"stateMutability": "view",
					"type": "function"
				},
				{
					"inputs": [
						{
							"internalType": "uint256",
							"name": "shares",
							"type": "uint256"
						}
					],
					"name": "previewRedeem",
					"outputs": [
						{
							"internalType": "uint256",
							"name": "",
							"type": "uint256"
						}
					],
					"stateMutability": "view",
					"type": "function"
				},
				{
					"inputs": [
						{
							"internalType": "uint256",
							"name": "assets",
							"type": "uint256"
						}
					],
					"name": "previewWithdraw",
					"outputs": [
						{
							"internalType": "uint256",
							"name": "",
							"type": "uint256"
						}
					],
					"stateMutability": "view",
					"type": "function"
				},
				{
					"inputs": [
						{
							"internalType": "uint256",
							"name": "shares",
							"type": "uint256"
						},
						{
							"internalType": "address",
							"name": "receiver",
							"type": "address"
						},
						{
							"internalType": "address",
							"name": "owner",
							"type": "address"
						}
					],
					"name": "redeem",
					"outputs": [
						{
							"internalType": "uint256",
							"name": "assets",
							"type": "uint256"
						}
					],
					"stateMutability": "nonpayable",
					"type": "function"
				},
				{
					"inputs": [],
					"name": "renounceOwnership",
					"outputs": [],
					"stateMutability": "nonpayable",
					"type": "function"
				},
				{
					"inputs": [
						{
							"internalType": "uint256",
							"name": "newFeePercent",
							"type": "uint256"
						}
					],
					"name": "setFeePercent",
					"outputs": [],
					"stateMutability": "nonpayable",
					"type": "function"
				},
				{
					"inputs": [],
					"name": "symbol",
					"outputs": [
						{
							"internalType": "string",
							"name": "",
							"type": "string"
						}
					],
					"stateMutability": "view",
					"type": "function"
				},
				{
					"inputs": [],
					"name": "totalAssets",
					"outputs": [
						{
							"internalType": "uint256",
							"name": "",
							"type": "uint256"
						}
					],
					"stateMutability": "view",
					"type": "function"
				},
				{
					"inputs": [],
					"name": "totalSupply",
					"outputs": [
						{
							"internalType": "uint256",
							"name": "",
							"type": "uint256"
						}
					],
					"stateMutability": "view",
					"type": "function"
				},
				{
					"inputs": [
						{
							"internalType": "address",
							"name": "to",
							"type": "address"
						},
						{
							"internalType": "uint256",
							"name": "amount",
							"type": "uint256"
						}
					],
					"name": "transfer",
					"outputs": [
						{
							"internalType": "bool",
							"name": "",
							"type": "bool"
						}
					],
					"stateMutability": "nonpayable",
					"type": "function"
				},
				{
					"inputs": [
						{
							"internalType": "address",
							"name": "from",
							"type": "address"
						},
						{
							"internalType": "address",
							"name": "to",
							"type": "address"
						},
						{
							"internalType": "uint256",
							"name": "amount",
							"type": "uint256"
						}
					],
					"name": "transferFrom",
					"outputs": [
						{
							"internalType": "bool",
							"name": "",
							"type": "bool"
						}
					],
					"stateMutability": "nonpayable",
					"type": "function"
				},
				{
					"inputs": [
						{
							"internalType": "address",
							"name": "newOwner",
							"type": "address"
						}
					],
					"name": "transferOwnership",
					"outputs": [],
					"stateMutability": "nonpayable",
					"type": "function"
				},
				{
					"inputs": [
						{
							"internalType": "uint256",
							"name": "assets",
							"type": "uint256"
						},
						{
							"internalType": "address",
							"name": "receiver",
							"type": "address"
						},
						{
							"internalType": "address",
							"name": "owner",
							"type": "address"
						}
					],
					"name": "withdraw",
					"outputs": [
						{
							"internalType": "uint256",
							"name": "shares",
							"type": "uint256"
						}
					],
					"stateMutability": "nonpayable",
					"type": "function"
				}
			],
			"devdoc": {
				"events": {
					"FeePercentUpdated(address,uint256)": {
						"params": {
							"newFeePercent": "The new fee percentage.",
							"user": "The authorized user who triggered the update."
						}
					}
				},
				"kind": "dev",
				"methods": {
					"renounceOwnership()": {
						"details": "Leaves the contract without manager. It will not be possible to call `onlyManager` functions anymore. Can only be called by the current manager. NOTE: Renouncing ownership will leave the contract without an manager, thereby removing any functionality that is only available to the manager."
					},
					"setFeePercent(uint256)": {
						"params": {
							"newFeePercent": "The new fee percentage."
						}
					},
					"transferOwnership(address)": {
						"details": "Transfers ownership of the contract to a new account (`newOwner`). Can only be called by the current manager."
					}
				},
				"stateVariables": {
					"feePercent": {
						"details": "A fixed point number where 1e18 represents 100% and 0 represents 0%."
					}
				},
				"version": 1
			},
			"evm": {
				"assembly": "    /* \"SquiddyCore.sol\":143:4432  contract SquiddyCore is ERC4626 {... */\n  mstore(0x40, 0x0100)\n    /* \"SquiddyCore.sol\":261:262  0 */\n  0x00\n    /* \"SquiddyCore.sol\":212:262  uint256 public beforeWithdrawHookCalledCounter = 0 */\n  0x07\n  sstore\n    /* \"SquiddyCore.sol\":315:316  0 */\n  0x00\n    /* \"SquiddyCore.sol\":268:316  uint256 public afterDepositHookCalledCounter = 0 */\n  0x08\n  sstore\n    /* \"SquiddyCore.sol\":1410:1727  constructor(... */\n  callvalue\n  dup1\n  iszero\n  tag_1\n  jumpi\n  0x00\n  dup1\n  revert\ntag_1:\n  pop\n  mload(0x40)\n  sub(codesize, bytecodeSize)\n  dup1\n  bytecodeSize\n  dup4\n  codecopy\n  dup2\n  dup2\n  add\n  0x40\n  mstore\n  dup2\n  add\n  swap1\n  tag_2\n  swap2\n  swap1\n  tag_3\n  jump\t// in\ntag_2:\n    /* \"SquiddyCore.sol\":1548:1559  _underlying */\n  dup4\n    /* \"SquiddyCore.sol\":1561:1566  _name */\n  dup4\n    /* \"SquiddyCore.sol\":1568:1575  _symbol */\n  dup4\n    /* \"SquiddyCore.sol\":1577:1586  _decimals */\n  dup4\n    /* \"ERC4626.sol\":1331:1336  _name */\n  dup3\n    /* \"ERC4626.sol\":1338:1345  _symbol */\n  dup3\n    /* \"ERC4626.sol\":1347:1356  _decimals */\n  dup3\n    /* \"ERC20.sol\":2131:2136  _name */\n  dup3\n    /* \"ERC20.sol\":2124:2128  name */\n  0x00\n    /* \"ERC20.sol\":2124:2136  name = _name */\n  swap1\n  dup1\n  mload\n  swap1\n  0x20\n  add\n  swap1\n  tag_8\n  swap3\n  swap2\n  swap1\n  tag_9\n  jump\t// in\ntag_8:\n  pop\n    /* \"ERC20.sol\":2155:2162  _symbol */\n  dup2\n    /* \"ERC20.sol\":2146:2152  symbol */\n  0x01\n    /* \"ERC20.sol\":2146:2162  symbol = _symbol */\n  swap1\n  dup1\n  mload\n  swap1\n  0x20\n  add\n  swap1\n  tag_10\n  swap3\n  swap2\n  swap1\n  tag_9\n  jump\t// in\ntag_10:\n  pop\n    /* \"ERC20.sol\":2183:2192  _decimals */\n  dup1\n    /* \"ERC20.sol\":2172:2192  decimals = _decimals */\n  0xff\n  and\n  0x80\n  dup2\n  0xff\n  and\n  dup2\n  mstore\n  pop\n  pop\n    /* \"ERC20.sol\":2222:2235  block.chainid */\n  chainid\n    /* \"ERC20.sol\":2203:2235  INITIAL_CHAIN_ID = block.chainid */\n  0xa0\n  dup2\n  dup2\n  mstore\n  pop\n  pop\n    /* \"ERC20.sol\":2272:2296  computeDomainSeparator() */\n  tag_11\n    /* \"ERC20.sol\":2272:2294  computeDomainSeparator */\n  shl(0x20, tag_12)\n    /* \"ERC20.sol\":2272:2296  computeDomainSeparator() */\n  0x20\n  shr\n  jump\t// in\ntag_11:\n    /* \"ERC20.sol\":2245:2296  INITIAL_DOMAIN_SEPARATOR = computeDomainSeparator() */\n  0xc0\n  dup2\n  dup2\n  mstore\n  pop\n  pop\n    /* \"ERC20.sol\":2011:2303  constructor(... */\n  pop\n  pop\n  pop\n    /* \"ERC4626.sol\":1376:1382  _asset */\n  dup4\n    /* \"ERC4626.sol\":1368:1382  asset = _asset */\n  0xffffffffffffffffffffffffffffffffffffffff\n  and\n  0xe0\n  dup2\n  0xffffffffffffffffffffffffffffffffffffffff\n  and\n  dup2\n  mstore\n  pop\n  pop\n    /* \"ERC4626.sol\":1200:1389  constructor(... */\n  pop\n  pop\n  pop\n  pop\n    /* \"SquiddyCore.sol\":1703:1720  type(uint256).max */\n  0xffffffffffffffffffffffffffffffffffffffffffffffffffffffffffffffff\n    /* \"SquiddyCore.sol\":1689:1700  totalSupply */\n  0x02\n    /* \"SquiddyCore.sol\":1689:1720  totalSupply = type(uint256).max */\n  dup2\n  swap1\n  sstore\n  pop\n    /* \"SquiddyCore.sol\":1410:1727  constructor(... */\n  pop\n  pop\n  pop\n  pop\n    /* \"SquiddyCore.sol\":143:4432  contract SquiddyCore is ERC4626 {... */\n  jump(tag_15)\n    /* \"ERC20.sol\":5698:6190  function computeDomainSeparator() internal view virtual returns (bytes32) {... */\ntag_12:\n    /* \"ERC20.sol\":5763:5770  bytes32 */\n  0x00\n    /* \"ERC20.sol\":5860:6001  keccak256(... */\n  0x8b73c3c69bb8fe3d512ecc4cf759cc79239f7b179b0ffacaa9a75d522b39400f\n    /* \"ERC20.sol\":6039:6043  name */\n  0x00\n    /* \"ERC20.sol\":6023:6045  keccak256(bytes(name)) */\n  mload(0x40)\n  tag_17\n  swap2\n  swap1\n  tag_18\n  jump\t// in\ntag_17:\n  mload(0x40)\n  dup1\n  swap2\n  sub\n  swap1\n  keccak256\n    /* \"ERC20.sol\":6067:6081  keccak256(\"1\") */\n  0xc89efdaa54c0f20c7adf612882df0950f5a951637e0307cdcb4c672f298b8bc6\n    /* \"ERC20.sol\":6103:6116  block.chainid */\n  chainid\n    /* \"ERC20.sol\":6146:6150  this */\n  address\n    /* \"ERC20.sol\":5828:6169  abi.encode(... */\n  add(0x20, mload(0x40))\n  tag_19\n  swap6\n  swap5\n  swap4\n  swap3\n  swap2\n  swap1\n  tag_20\n  jump\t// in\ntag_19:\n  mload(0x40)\n  0x20\n  dup2\n  dup4\n  sub\n  sub\n  dup2\n  mstore\n  swap1\n  0x40\n  mstore\n    /* \"ERC20.sol\":5801:6183  keccak256(... */\n  dup1\n  mload\n  swap1\n  0x20\n  add\n  keccak256\n    /* \"ERC20.sol\":5782:6183  return... */\n  swap1\n  pop\n    /* \"ERC20.sol\":5698:6190  function computeDomainSeparator() internal view virtual returns (bytes32) {... */\n  swap1\n  jump\t// out\n    /* \"SquiddyCore.sol\":143:4432  contract SquiddyCore is ERC4626 {... */\ntag_9:\n  dup3\n  dup1\n  sload\n  tag_21\n  swap1\n  tag_22\n  jump\t// in\ntag_21:\n  swap1\n  0x00\n  mstore\n  keccak256(0x00, 0x20)\n  swap1\n  0x1f\n  add\n  0x20\n  swap1\n  div\n  dup2\n  add\n  swap3\n  dup3\n  tag_24\n  jumpi\n  0x00\n  dup6\n  sstore\n  jump(tag_23)\ntag_24:\n  dup3\n  0x1f\n  lt\n  tag_25\n  jumpi\n  dup1\n  mload\n  not(0xff)\n  and\n  dup4\n  dup1\n  add\n  or\n  dup6\n  sstore\n  jump(tag_23)\ntag_25:\n  dup3\n  dup1\n  add\n  0x01\n  add\n  dup6\n  sstore\n  dup3\n  iszero\n  tag_23\n  jumpi\n  swap2\n  dup3\n  add\ntag_26:\n  dup3\n  dup2\n  gt\n  iszero\n  tag_27\n  jumpi\n  dup3\n  mload\n  dup3\n  sstore\n  swap2\n  0x20\n  add\n  swap2\n  swap1\n  0x01\n  add\n  swap1\n  jump(tag_26)\ntag_27:\ntag_23:\n  pop\n  swap1\n  pop\n  tag_28\n  swap2\n  swap1\n  tag_29\n  jump\t// in\ntag_28:\n  pop\n  swap1\n  jump\t// out\ntag_29:\ntag_30:\n  dup1\n  dup3\n  gt\n  iszero\n  tag_31\n  jumpi\n  0x00\n  dup2\n  0x00\n  swap1\n  sstore\n  pop\n  0x01\n  add\n  jump(tag_30)\ntag_31:\n  pop\n  swap1\n  jump\t// out\n    /* \"#utility.yul\":7:82   */\ntag_32:\n    /* \"#utility.yul\":40:46   */\n  0x00\n    /* \"#utility.yul\":73:75   */\n  0x40\n    /* \"#utility.yul\":67:76   */\n  mload\n    /* \"#utility.yul\":57:76   */\n  swap1\n  pop\n    /* \"#utility.yul\":7:82   */\n  swap1\n  jump\t// out\n    /* \"#utility.yul\":88:205   */\ntag_33:\n    /* \"#utility.yul\":197:198   */\n  0x00\n    /* \"#utility.yul\":194:195   */\n  dup1\n    /* \"#utility.yul\":187:199   */\n  revert\n    /* \"#utility.yul\":211:328   */\ntag_34:\n    /* \"#utility.yul\":320:321   */\n  0x00\n    /* \"#utility.yul\":317:318   */\n  dup1\n    /* \"#utility.yul\":310:322   */\n  revert\n    /* \"#utility.yul\":334:460   */\ntag_35:\n    /* \"#utility.yul\":371:378   */\n  0x00\n    /* \"#utility.yul\":411:453   */\n  0xffffffffffffffffffffffffffffffffffffffff\n    /* \"#utility.yul\":404:409   */\n  dup3\n    /* \"#utility.yul\":400:454   */\n  and\n    /* \"#utility.yul\":389:454   */\n  swap1\n  pop\n    /* \"#utility.yul\":334:460   */\n  swap2\n  swap1\n  pop\n  jump\t// out\n    /* \"#utility.yul\":466:562   */\ntag_36:\n    /* \"#utility.yul\":503:510   */\n  0x00\n    /* \"#utility.yul\":532:556   */\n  tag_68\n    /* \"#utility.yul\":550:555   */\n  dup3\n    /* \"#utility.yul\":532:556   */\n  tag_35\n  jump\t// in\ntag_68:\n    /* \"#utility.yul\":521:556   */\n  swap1\n  pop\n    /* \"#utility.yul\":466:562   */\n  swap2\n  swap1\n  pop\n  jump\t// out\n    /* \"#utility.yul\":568:677   */\ntag_37:\n    /* \"#utility.yul\":618:625   */\n  0x00\n    /* \"#utility.yul\":647:671   */\n  tag_70\n    /* \"#utility.yul\":665:670   */\n  dup3\n    /* \"#utility.yul\":647:671   */\n  tag_36\n  jump\t// in\ntag_70:\n    /* \"#utility.yul\":636:671   */\n  swap1\n  pop\n    /* \"#utility.yul\":568:677   */\n  swap2\n  swap1\n  pop\n  jump\t// out\n    /* \"#utility.yul\":683:831   */\ntag_38:\n    /* \"#utility.yul\":769:806   */\n  tag_72\n    /* \"#utility.yul\":800:805   */\n  dup2\n    /* \"#utility.yul\":769:806   */\n  tag_37\n  jump\t// in\ntag_72:\n    /* \"#utility.yul\":762:767   */\n  dup2\n    /* \"#utility.yul\":759:807   */\n  eq\n    /* \"#utility.yul\":749:825   */\n  tag_73\n  jumpi\n    /* \"#utility.yul\":821:822   */\n  0x00\n    /* \"#utility.yul\":818:819   */\n  dup1\n    /* \"#utility.yul\":811:823   */\n  revert\n    /* \"#utility.yul\":749:825   */\ntag_73:\n    /* \"#utility.yul\":683:831   */\n  pop\n  jump\t// out\n    /* \"#utility.yul\":837:1006   */\ntag_39:\n    /* \"#utility.yul\":907:912   */\n  0x00\n    /* \"#utility.yul\":938:944   */\n  dup2\n    /* \"#utility.yul\":932:945   */\n  mload\n    /* \"#utility.yul\":923:945   */\n  swap1\n  pop\n    /* \"#utility.yul\":954:1000   */\n  tag_75\n    /* \"#utility.yul\":994:999   */\n  dup2\n    /* \"#utility.yul\":954:1000   */\n  tag_38\n  jump\t// in\ntag_75:\n    /* \"#utility.yul\":837:1006   */\n  swap3\n  swap2\n  pop\n  pop\n  jump\t// out\n    /* \"#utility.yul\":1012:1129   */\ntag_40:\n    /* \"#utility.yul\":1121:1122   */\n  0x00\n    /* \"#utility.yul\":1118:1119   */\n  dup1\n    /* \"#utility.yul\":1111:1123   */\n  revert\n    /* \"#utility.yul\":1135:1252   */\ntag_41:\n    /* \"#utility.yul\":1244:1245   */\n  0x00\n    /* \"#utility.yul\":1241:1242   */\n  dup1\n    /* \"#utility.yul\":1234:1246   */\n  revert\n    /* \"#utility.yul\":1258:1360   */\ntag_42:\n    /* \"#utility.yul\":1299:1305   */\n  0x00\n    /* \"#utility.yul\":1350:1352   */\n  0x1f\n    /* \"#utility.yul\":1346:1353   */\n  not\n    /* \"#utility.yul\":1341:1343   */\n  0x1f\n    /* \"#utility.yul\":1334:1339   */\n  dup4\n    /* \"#utility.yul\":1330:1344   */\n  add\n    /* \"#utility.yul\":1326:1354   */\n  and\n    /* \"#utility.yul\":1316:1354   */\n  swap1\n  pop\n    /* \"#utility.yul\":1258:1360   */\n  swap2\n  swap1\n  pop\n  jump\t// out\n    /* \"#utility.yul\":1366:1546   */\ntag_43:\n    /* \"#utility.yul\":1414:1491   */\n  0x4e487b7100000000000000000000000000000000000000000000000000000000\n    /* \"#utility.yul\":1411:1412   */\n  0x00\n    /* \"#utility.yul\":1404:1492   */\n  mstore\n    /* \"#utility.yul\":1511:1515   */\n  0x41\n    /* \"#utility.yul\":1508:1509   */\n  0x04\n    /* \"#utility.yul\":1501:1516   */\n  mstore\n    /* \"#utility.yul\":1535:1539   */\n  0x24\n    /* \"#utility.yul\":1532:1533   */\n  0x00\n    /* \"#utility.yul\":1525:1540   */\n  revert\n    /* \"#utility.yul\":1552:1833   */\ntag_44:\n    /* \"#utility.yul\":1635:1662   */\n  tag_81\n    /* \"#utility.yul\":1657:1661   */\n  dup3\n    /* \"#utility.yul\":1635:1662   */\n  tag_42\n  jump\t// in\ntag_81:\n    /* \"#utility.yul\":1627:1633   */\n  dup2\n    /* \"#utility.yul\":1623:1663   */\n  add\n    /* \"#utility.yul\":1765:1771   */\n  dup2\n    /* \"#utility.yul\":1753:1763   */\n  dup2\n    /* \"#utility.yul\":1750:1772   */\n  lt\n    /* \"#utility.yul\":1729:1747   */\n  0xffffffffffffffff\n    /* \"#utility.yul\":1717:1727   */\n  dup3\n    /* \"#utility.yul\":1714:1748   */\n  gt\n    /* \"#utility.yul\":1711:1773   */\n  or\n    /* \"#utility.yul\":1708:1796   */\n  iszero\n  tag_82\n  jumpi\n    /* \"#utility.yul\":1776:1794   */\n  tag_83\n  tag_43\n  jump\t// in\ntag_83:\n    /* \"#utility.yul\":1708:1796   */\ntag_82:\n    /* \"#utility.yul\":1816:1826   */\n  dup1\n    /* \"#utility.yul\":1812:1814   */\n  0x40\n    /* \"#utility.yul\":1805:1827   */\n  mstore\n    /* \"#utility.yul\":1595:1833   */\n  pop\n    /* \"#utility.yul\":1552:1833   */\n  pop\n  pop\n  jump\t// out\n    /* \"#utility.yul\":1839:1968   */\ntag_45:\n    /* \"#utility.yul\":1873:1879   */\n  0x00\n    /* \"#utility.yul\":1900:1920   */\n  tag_85\n  tag_32\n  jump\t// in\ntag_85:\n    /* \"#utility.yul\":1890:1920   */\n  swap1\n  pop\n    /* \"#utility.yul\":1929:1962   */\n  tag_86\n    /* \"#utility.yul\":1957:1961   */\n  dup3\n    /* \"#utility.yul\":1949:1955   */\n  dup3\n    /* \"#utility.yul\":1929:1962   */\n  tag_44\n  jump\t// in\ntag_86:\n    /* \"#utility.yul\":1839:1968   */\n  swap2\n  swap1\n  pop\n  jump\t// out\n    /* \"#utility.yul\":1974:2282   */\ntag_46:\n    /* \"#utility.yul\":2036:2040   */\n  0x00\n    /* \"#utility.yul\":2126:2144   */\n  0xffffffffffffffff\n    /* \"#utility.yul\":2118:2124   */\n  dup3\n    /* \"#utility.yul\":2115:2145   */\n  gt\n    /* \"#utility.yul\":2112:2168   */\n  iszero\n  tag_88\n  jumpi\n    /* \"#utility.yul\":2148:2166   */\n  tag_89\n  tag_43\n  jump\t// in\ntag_89:\n    /* \"#utility.yul\":2112:2168   */\ntag_88:\n    /* \"#utility.yul\":2186:2215   */\n  tag_90\n    /* \"#utility.yul\":2208:2214   */\n  dup3\n    /* \"#utility.yul\":2186:2215   */\n  tag_42\n  jump\t// in\ntag_90:\n    /* \"#utility.yul\":2178:2215   */\n  swap1\n  pop\n    /* \"#utility.yul\":2270:2274   */\n  0x20\n    /* \"#utility.yul\":2264:2268   */\n  dup2\n    /* \"#utility.yul\":2260:2275   */\n  add\n    /* \"#utility.yul\":2252:2275   */\n  swap1\n  pop\n    /* \"#utility.yul\":1974:2282   */\n  swap2\n  swap1\n  pop\n  jump\t// out\n    /* \"#utility.yul\":2288:2595   */\ntag_47:\n    /* \"#utility.yul\":2356:2357   */\n  0x00\n    /* \"#utility.yul\":2366:2479   */\ntag_92:\n    /* \"#utility.yul\":2380:2386   */\n  dup4\n    /* \"#utility.yul\":2377:2378   */\n  dup2\n    /* \"#utility.yul\":2374:2387   */\n  lt\n    /* \"#utility.yul\":2366:2479   */\n  iszero\n  tag_94\n  jumpi\n    /* \"#utility.yul\":2465:2466   */\n  dup1\n    /* \"#utility.yul\":2460:2463   */\n  dup3\n    /* \"#utility.yul\":2456:2467   */\n  add\n    /* \"#utility.yul\":2450:2468   */\n  mload\n    /* \"#utility.yul\":2446:2447   */\n  dup2\n    /* \"#utility.yul\":2441:2444   */\n  dup5\n    /* \"#utility.yul\":2437:2448   */\n  add\n    /* \"#utility.yul\":2430:2469   */\n  mstore\n    /* \"#utility.yul\":2402:2404   */\n  0x20\n    /* \"#utility.yul\":2399:2400   */\n  dup2\n    /* \"#utility.yul\":2395:2405   */\n  add\n    /* \"#utility.yul\":2390:2405   */\n  swap1\n  pop\n    /* \"#utility.yul\":2366:2479   */\n  jump(tag_92)\ntag_94:\n    /* \"#utility.yul\":2497:2503   */\n  dup4\n    /* \"#utility.yul\":2494:2495   */\n  dup2\n    /* \"#utility.yul\":2491:2504   */\n  gt\n    /* \"#utility.yul\":2488:2589   */\n  iszero\n  tag_95\n  jumpi\n    /* \"#utility.yul\":2577:2578   */\n  0x00\n    /* \"#utility.yul\":2568:2574   */\n  dup5\n    /* \"#utility.yul\":2563:2566   */\n  dup5\n    /* \"#utility.yul\":2559:2575   */\n  add\n    /* \"#utility.yul\":2552:2579   */\n  mstore\n    /* \"#utility.yul\":2488:2589   */\ntag_95:\n    /* \"#utility.yul\":2337:2595   */\n  pop\n    /* \"#utility.yul\":2288:2595   */\n  pop\n  pop\n  pop\n  jump\t// out\n    /* \"#utility.yul\":2601:3022   */\ntag_48:\n    /* \"#utility.yul\":2690:2695   */\n  0x00\n    /* \"#utility.yul\":2715:2781   */\n  tag_97\n    /* \"#utility.yul\":2731:2780   */\n  tag_98\n    /* \"#utility.yul\":2773:2779   */\n  dup5\n    /* \"#utility.yul\":2731:2780   */\n  tag_46\n  jump\t// in\ntag_98:\n    /* \"#utility.yul\":2715:2781   */\n  tag_45\n  jump\t// in\ntag_97:\n    /* \"#utility.yul\":2706:2781   */\n  swap1\n  pop\n    /* \"#utility.yul\":2804:2810   */\n  dup3\n    /* \"#utility.yul\":2797:2802   */\n  dup2\n    /* \"#utility.yul\":2790:2811   */\n  mstore\n    /* \"#utility.yul\":2842:2846   */\n  0x20\n    /* \"#utility.yul\":2835:2840   */\n  dup2\n    /* \"#utility.yul\":2831:2847   */\n  add\n    /* \"#utility.yul\":2880:2883   */\n  dup5\n    /* \"#utility.yul\":2871:2877   */\n  dup5\n    /* \"#utility.yul\":2866:2869   */\n  dup5\n    /* \"#utility.yul\":2862:2878   */\n  add\n    /* \"#utility.yul\":2859:2884   */\n  gt\n    /* \"#utility.yul\":2856:2968   */\n  iszero\n  tag_99\n  jumpi\n    /* \"#utility.yul\":2887:2966   */\n  tag_100\n  tag_41\n  jump\t// in\ntag_100:\n    /* \"#utility.yul\":2856:2968   */\ntag_99:\n    /* \"#utility.yul\":2977:3016   */\n  tag_101\n    /* \"#utility.yul\":3009:3015   */\n  dup5\n    /* \"#utility.yul\":3004:3007   */\n  dup3\n    /* \"#utility.yul\":2999:3002   */\n  dup6\n    /* \"#utility.yul\":2977:3016   */\n  tag_47\n  jump\t// in\ntag_101:\n    /* \"#utility.yul\":2696:3022   */\n  pop\n    /* \"#utility.yul\":2601:3022   */\n  swap4\n  swap3\n  pop\n  pop\n  pop\n  jump\t// out\n    /* \"#utility.yul\":3042:3397   */\ntag_49:\n    /* \"#utility.yul\":3109:3114   */\n  0x00\n    /* \"#utility.yul\":3158:3161   */\n  dup3\n    /* \"#utility.yul\":3151:3155   */\n  0x1f\n    /* \"#utility.yul\":3143:3149   */\n  dup4\n    /* \"#utility.yul\":3139:3156   */\n  add\n    /* \"#utility.yul\":3135:3162   */\n  slt\n    /* \"#utility.yul\":3125:3247   */\n  tag_103\n  jumpi\n    /* \"#utility.yul\":3166:3245   */\n  tag_104\n  tag_40\n  jump\t// in\ntag_104:\n    /* \"#utility.yul\":3125:3247   */\ntag_103:\n    /* \"#utility.yul\":3276:3282   */\n  dup2\n    /* \"#utility.yul\":3270:3283   */\n  mload\n    /* \"#utility.yul\":3301:3391   */\n  tag_105\n    /* \"#utility.yul\":3387:3390   */\n  dup5\n    /* \"#utility.yul\":3379:3385   */\n  dup3\n    /* \"#utility.yul\":3372:3376   */\n  0x20\n    /* \"#utility.yul\":3364:3370   */\n  dup7\n    /* \"#utility.yul\":3360:3377   */\n  add\n    /* \"#utility.yul\":3301:3391   */\n  tag_48\n  jump\t// in\ntag_105:\n    /* \"#utility.yul\":3292:3391   */\n  swap2\n  pop\n    /* \"#utility.yul\":3115:3397   */\n  pop\n    /* \"#utility.yul\":3042:3397   */\n  swap3\n  swap2\n  pop\n  pop\n  jump\t// out\n    /* \"#utility.yul\":3403:3489   */\ntag_50:\n    /* \"#utility.yul\":3438:3445   */\n  0x00\n    /* \"#utility.yul\":3478:3482   */\n  0xff\n    /* \"#utility.yul\":3471:3476   */\n  dup3\n    /* \"#utility.yul\":3467:3483   */\n  and\n    /* \"#utility.yul\":3456:3483   */\n  swap1\n  pop\n    /* \"#utility.yul\":3403:3489   */\n  swap2\n  swap1\n  pop\n  jump\t// out\n    /* \"#utility.yul\":3495:3613   */\ntag_51:\n    /* \"#utility.yul\":3566:3588   */\n  tag_108\n    /* \"#utility.yul\":3582:3587   */\n  dup2\n    /* \"#utility.yul\":3566:3588   */\n  tag_50\n  jump\t// in\ntag_108:\n    /* \"#utility.yul\":3559:3564   */\n  dup2\n    /* \"#utility.yul\":3556:3589   */\n  eq\n    /* \"#utility.yul\":3546:3607   */\n  tag_109\n  jumpi\n    /* \"#utility.yul\":3603:3604   */\n  0x00\n    /* \"#utility.yul\":3600:3601   */\n  dup1\n    /* \"#utility.yul\":3593:3605   */\n  revert\n    /* \"#utility.yul\":3546:3607   */\ntag_109:\n    /* \"#utility.yul\":3495:3613   */\n  pop\n  jump\t// out\n    /* \"#utility.yul\":3619:3758   */\ntag_52:\n    /* \"#utility.yul\":3674:3679   */\n  0x00\n    /* \"#utility.yul\":3705:3711   */\n  dup2\n    /* \"#utility.yul\":3699:3712   */\n  mload\n    /* \"#utility.yul\":3690:3712   */\n  swap1\n  pop\n    /* \"#utility.yul\":3721:3752   */\n  tag_111\n    /* \"#utility.yul\":3746:3751   */\n  dup2\n    /* \"#utility.yul\":3721:3752   */\n  tag_51\n  jump\t// in\ntag_111:\n    /* \"#utility.yul\":3619:3758   */\n  swap3\n  swap2\n  pop\n  pop\n  jump\t// out\n    /* \"#utility.yul\":3764:4952   */\ntag_3:\n    /* \"#utility.yul\":3892:3898   */\n  0x00\n    /* \"#utility.yul\":3900:3906   */\n  dup1\n    /* \"#utility.yul\":3908:3914   */\n  0x00\n    /* \"#utility.yul\":3916:3922   */\n  dup1\n    /* \"#utility.yul\":3965:3968   */\n  0x80\n    /* \"#utility.yul\":3953:3962   */\n  dup6\n    /* \"#utility.yul\":3944:3951   */\n  dup8\n    /* \"#utility.yul\":3940:3963   */\n  sub\n    /* \"#utility.yul\":3936:3969   */\n  slt\n    /* \"#utility.yul\":3933:4053   */\n  iszero\n  tag_113\n  jumpi\n    /* \"#utility.yul\":3972:4051   */\n  tag_114\n  tag_33\n  jump\t// in\ntag_114:\n    /* \"#utility.yul\":3933:4053   */\ntag_113:\n    /* \"#utility.yul\":4092:4093   */\n  0x00\n    /* \"#utility.yul\":4117:4194   */\n  tag_115\n    /* \"#utility.yul\":4186:4193   */\n  dup8\n    /* \"#utility.yul\":4177:4183   */\n  dup3\n    /* \"#utility.yul\":4166:4175   */\n  dup9\n    /* \"#utility.yul\":4162:4184   */\n  add\n    /* \"#utility.yul\":4117:4194   */\n  tag_39\n  jump\t// in\ntag_115:\n    /* \"#utility.yul\":4107:4194   */\n  swap5\n  pop\n    /* \"#utility.yul\":4063:4204   */\n  pop\n    /* \"#utility.yul\":4264:4266   */\n  0x20\n    /* \"#utility.yul\":4253:4262   */\n  dup6\n    /* \"#utility.yul\":4249:4267   */\n  add\n    /* \"#utility.yul\":4243:4268   */\n  mload\n    /* \"#utility.yul\":4295:4313   */\n  0xffffffffffffffff\n    /* \"#utility.yul\":4287:4293   */\n  dup2\n    /* \"#utility.yul\":4284:4314   */\n  gt\n    /* \"#utility.yul\":4281:4398   */\n  iszero\n  tag_116\n  jumpi\n    /* \"#utility.yul\":4317:4396   */\n  tag_117\n  tag_34\n  jump\t// in\ntag_117:\n    /* \"#utility.yul\":4281:4398   */\ntag_116:\n    /* \"#utility.yul\":4422:4496   */\n  tag_118\n    /* \"#utility.yul\":4488:4495   */\n  dup8\n    /* \"#utility.yul\":4479:4485   */\n  dup3\n    /* \"#utility.yul\":4468:4477   */\n  dup9\n    /* \"#utility.yul\":4464:4486   */\n  add\n    /* \"#utility.yul\":4422:4496   */\n  tag_49\n  jump\t// in\ntag_118:\n    /* \"#utility.yul\":4412:4496   */\n  swap4\n  pop\n    /* \"#utility.yul\":4214:4506   */\n  pop\n    /* \"#utility.yul\":4566:4568   */\n  0x40\n    /* \"#utility.yul\":4555:4564   */\n  dup6\n    /* \"#utility.yul\":4551:4569   */\n  add\n    /* \"#utility.yul\":4545:4570   */\n  mload\n    /* \"#utility.yul\":4597:4615   */\n  0xffffffffffffffff\n    /* \"#utility.yul\":4589:4595   */\n  dup2\n    /* \"#utility.yul\":4586:4616   */\n  gt\n    /* \"#utility.yul\":4583:4700   */\n  iszero\n  tag_119\n  jumpi\n    /* \"#utility.yul\":4619:4698   */\n  tag_120\n  tag_34\n  jump\t// in\ntag_120:\n    /* \"#utility.yul\":4583:4700   */\ntag_119:\n    /* \"#utility.yul\":4724:4798   */\n  tag_121\n    /* \"#utility.yul\":4790:4797   */\n  dup8\n    /* \"#utility.yul\":4781:4787   */\n  dup3\n    /* \"#utility.yul\":4770:4779   */\n  dup9\n    /* \"#utility.yul\":4766:4788   */\n  add\n    /* \"#utility.yul\":4724:4798   */\n  tag_49\n  jump\t// in\ntag_121:\n    /* \"#utility.yul\":4714:4798   */\n  swap3\n  pop\n    /* \"#utility.yul\":4516:4808   */\n  pop\n    /* \"#utility.yul\":4847:4849   */\n  0x60\n    /* \"#utility.yul\":4873:4935   */\n  tag_122\n    /* \"#utility.yul\":4927:4934   */\n  dup8\n    /* \"#utility.yul\":4918:4924   */\n  dup3\n    /* \"#utility.yul\":4907:4916   */\n  dup9\n    /* \"#utility.yul\":4903:4925   */\n  add\n    /* \"#utility.yul\":4873:4935   */\n  tag_52\n  jump\t// in\ntag_122:\n    /* \"#utility.yul\":4863:4935   */\n  swap2\n  pop\n    /* \"#utility.yul\":4818:4945   */\n  pop\n    /* \"#utility.yul\":3764:4952   */\n  swap3\n  swap6\n  swap2\n  swap5\n  pop\n  swap3\n  pop\n  jump\t// out\n    /* \"#utility.yul\":4958:5138   */\ntag_53:\n    /* \"#utility.yul\":5006:5083   */\n  0x4e487b7100000000000000000000000000000000000000000000000000000000\n    /* \"#utility.yul\":5003:5004   */\n  0x00\n    /* \"#utility.yul\":4996:5084   */\n  mstore\n    /* \"#utility.yul\":5103:5107   */\n  0x22\n    /* \"#utility.yul\":5100:5101   */\n  0x04\n    /* \"#utility.yul\":5093:5108   */\n  mstore\n    /* \"#utility.yul\":5127:5131   */\n  0x24\n    /* \"#utility.yul\":5124:5125   */\n  0x00\n    /* \"#utility.yul\":5117:5132   */\n  revert\n    /* \"#utility.yul\":5144:5464   */\ntag_22:\n    /* \"#utility.yul\":5188:5194   */\n  0x00\n    /* \"#utility.yul\":5225:5226   */\n  0x02\n    /* \"#utility.yul\":5219:5223   */\n  dup3\n    /* \"#utility.yul\":5215:5227   */\n  div\n    /* \"#utility.yul\":5205:5227   */\n  swap1\n  pop\n    /* \"#utility.yul\":5272:5273   */\n  0x01\n    /* \"#utility.yul\":5266:5270   */\n  dup3\n    /* \"#utility.yul\":5262:5274   */\n  and\n    /* \"#utility.yul\":5293:5311   */\n  dup1\n    /* \"#utility.yul\":5283:5364   */\n  tag_125\n  jumpi\n    /* \"#utility.yul\":5349:5353   */\n  0x7f\n    /* \"#utility.yul\":5341:5347   */\n  dup3\n    /* \"#utility.yul\":5337:5354   */\n  and\n    /* \"#utility.yul\":5327:5354   */\n  swap2\n  pop\n    /* \"#utility.yul\":5283:5364   */\ntag_125:\n    /* \"#utility.yul\":5411:5413   */\n  0x20\n    /* \"#utility.yul\":5403:5409   */\n  dup3\n    /* \"#utility.yul\":5400:5414   */\n  lt\n    /* \"#utility.yul\":5380:5398   */\n  dup2\n    /* \"#utility.yul\":5377:5415   */\n  eq\n    /* \"#utility.yul\":5374:5458   */\n  iszero\n  tag_126\n  jumpi\n    /* \"#utility.yul\":5430:5448   */\n  tag_127\n  tag_53\n  jump\t// in\ntag_127:\n    /* \"#utility.yul\":5374:5458   */\ntag_126:\n    /* \"#utility.yul\":5195:5464   */\n  pop\n    /* \"#utility.yul\":5144:5464   */\n  swap2\n  swap1\n  pop\n  jump\t// out\n    /* \"#utility.yul\":5470:5617   */\ntag_54:\n    /* \"#utility.yul\":5571:5582   */\n  0x00\n    /* \"#utility.yul\":5608:5611   */\n  dup2\n    /* \"#utility.yul\":5593:5611   */\n  swap1\n  pop\n    /* \"#utility.yul\":5470:5617   */\n  swap3\n  swap2\n  pop\n  pop\n  jump\t// out\n    /* \"#utility.yul\":5623:5767   */\ntag_55:\n    /* \"#utility.yul\":5675:5679   */\n  0x00\n    /* \"#utility.yul\":5698:5701   */\n  dup2\n    /* \"#utility.yul\":5690:5701   */\n  swap1\n  pop\n    /* \"#utility.yul\":5721:5724   */\n  dup2\n    /* \"#utility.yul\":5718:5719   */\n  0x00\n    /* \"#utility.yul\":5711:5725   */\n  mstore\n    /* \"#utility.yul\":5755:5759   */\n  0x20\n    /* \"#utility.yul\":5752:5753   */\n  0x00\n    /* \"#utility.yul\":5742:5760   */\n  keccak256\n    /* \"#utility.yul\":5734:5760   */\n  swap1\n  pop\n    /* \"#utility.yul\":5623:5767   */\n  swap2\n  swap1\n  pop\n  jump\t// out\n    /* \"#utility.yul\":5795:6644   */\ntag_56:\n    /* \"#utility.yul\":5900:5903   */\n  0x00\n    /* \"#utility.yul\":5937:5942   */\n  dup2\n    /* \"#utility.yul\":5931:5943   */\n  sload\n    /* \"#utility.yul\":5966:6002   */\n  tag_131\n    /* \"#utility.yul\":5992:6001   */\n  dup2\n    /* \"#utility.yul\":5966:6002   */\n  tag_22\n  jump\t// in\ntag_131:\n    /* \"#utility.yul\":6018:6106   */\n  tag_132\n    /* \"#utility.yul\":6099:6105   */\n  dup2\n    /* \"#utility.yul\":6094:6097   */\n  dup7\n    /* \"#utility.yul\":6018:6106   */\n  tag_54\n  jump\t// in\ntag_132:\n    /* \"#utility.yul\":6011:6106   */\n  swap5\n  pop\n    /* \"#utility.yul\":6137:6138   */\n  0x01\n    /* \"#utility.yul\":6126:6135   */\n  dup3\n    /* \"#utility.yul\":6122:6139   */\n  and\n    /* \"#utility.yul\":6153:6154   */\n  0x00\n    /* \"#utility.yul\":6148:6285   */\n  dup2\n  eq\n  tag_134\n  jumpi\n    /* \"#utility.yul\":6299:6300   */\n  0x01\n    /* \"#utility.yul\":6294:6638   */\n  dup2\n  eq\n  tag_135\n  jumpi\n    /* \"#utility.yul\":6115:6638   */\n  jump(tag_133)\n    /* \"#utility.yul\":6148:6285   */\ntag_134:\n    /* \"#utility.yul\":6232:6236   */\n  0xff\n    /* \"#utility.yul\":6228:6237   */\n  not\n    /* \"#utility.yul\":6217:6226   */\n  dup4\n    /* \"#utility.yul\":6213:6238   */\n  and\n    /* \"#utility.yul\":6208:6211   */\n  dup7\n    /* \"#utility.yul\":6201:6239   */\n  mstore\n    /* \"#utility.yul\":6268:6274   */\n  dup2\n    /* \"#utility.yul\":6263:6266   */\n  dup7\n    /* \"#utility.yul\":6259:6275   */\n  add\n    /* \"#utility.yul\":6252:6275   */\n  swap4\n  pop\n    /* \"#utility.yul\":6148:6285   */\n  jump(tag_133)\n    /* \"#utility.yul\":6294:6638   */\ntag_135:\n    /* \"#utility.yul\":6361:6402   */\n  tag_136\n    /* \"#utility.yul\":6396:6401   */\n  dup6\n    /* \"#utility.yul\":6361:6402   */\n  tag_55\n  jump\t// in\ntag_136:\n    /* \"#utility.yul\":6424:6425   */\n  0x00\n    /* \"#utility.yul\":6438:6592   */\ntag_137:\n    /* \"#utility.yul\":6452:6458   */\n  dup4\n    /* \"#utility.yul\":6449:6450   */\n  dup2\n    /* \"#utility.yul\":6446:6459   */\n  lt\n    /* \"#utility.yul\":6438:6592   */\n  iszero\n  tag_139\n  jumpi\n    /* \"#utility.yul\":6526:6533   */\n  dup2\n    /* \"#utility.yul\":6520:6534   */\n  sload\n    /* \"#utility.yul\":6516:6517   */\n  dup2\n    /* \"#utility.yul\":6511:6514   */\n  dup10\n    /* \"#utility.yul\":6507:6518   */\n  add\n    /* \"#utility.yul\":6500:6535   */\n  mstore\n    /* \"#utility.yul\":6576:6577   */\n  0x01\n    /* \"#utility.yul\":6567:6574   */\n  dup3\n    /* \"#utility.yul\":6563:6578   */\n  add\n    /* \"#utility.yul\":6552:6578   */\n  swap2\n  pop\n    /* \"#utility.yul\":6474:6478   */\n  0x20\n    /* \"#utility.yul\":6471:6472   */\n  dup2\n    /* \"#utility.yul\":6467:6479   */\n  add\n    /* \"#utility.yul\":6462:6479   */\n  swap1\n  pop\n    /* \"#utility.yul\":6438:6592   */\n  jump(tag_137)\ntag_139:\n    /* \"#utility.yul\":6621:6627   */\n  dup4\n    /* \"#utility.yul\":6616:6619   */\n  dup9\n    /* \"#utility.yul\":6612:6628   */\n  add\n    /* \"#utility.yul\":6605:6628   */\n  swap6\n  pop\n    /* \"#utility.yul\":6301:6638   */\n  pop\n  pop\n    /* \"#utility.yul\":6115:6638   */\ntag_133:\n  pop\n    /* \"#utility.yul\":5904:6644   */\n  pop\n  pop\n    /* \"#utility.yul\":5795:6644   */\n  swap3\n  swap2\n  pop\n  pop\n  jump\t// out\n    /* \"#utility.yul\":6650:6923   */\ntag_18:\n    /* \"#utility.yul\":6781:6784   */\n  0x00\n    /* \"#utility.yul\":6803:6897   */\n  tag_141\n    /* \"#utility.yul\":6893:6896   */\n  dup3\n    /* \"#utility.yul\":6884:6890   */\n  dup5\n    /* \"#utility.yul\":6803:6897   */\n  tag_56\n  jump\t// in\ntag_141:\n    /* \"#utility.yul\":6796:6897   */\n  swap2\n  pop\n    /* \"#utility.yul\":6914:6917   */\n  dup2\n    /* \"#utility.yul\":6907:6917   */\n  swap1\n  pop\n    /* \"#utility.yul\":6650:6923   */\n  swap3\n  swap2\n  pop\n  pop\n  jump\t// out\n    /* \"#utility.yul\":6929:7006   */\ntag_57:\n    /* \"#utility.yul\":6966:6973   */\n  0x00\n    /* \"#utility.yul\":6995:7000   */\n  dup2\n    /* \"#utility.yul\":6984:7000   */\n  swap1\n  pop\n    /* \"#utility.yul\":6929:7006   */\n  swap2\n  swap1\n  pop\n  jump\t// out\n    /* \"#utility.yul\":7012:7130   */\ntag_58:\n    /* \"#utility.yul\":7099:7123   */\n  tag_144\n    /* \"#utility.yul\":7117:7122   */\n  dup2\n    /* \"#utility.yul\":7099:7123   */\n  tag_57\n  jump\t// in\ntag_144:\n    /* \"#utility.yul\":7094:7097   */\n  dup3\n    /* \"#utility.yul\":7087:7124   */\n  mstore\n    /* \"#utility.yul\":7012:7130   */\n  pop\n  pop\n  jump\t// out\n    /* \"#utility.yul\":7136:7213   */\ntag_59:\n    /* \"#utility.yul\":7173:7180   */\n  0x00\n    /* \"#utility.yul\":7202:7207   */\n  dup2\n    /* \"#utility.yul\":7191:7207   */\n  swap1\n  pop\n    /* \"#utility.yul\":7136:7213   */\n  swap2\n  swap1\n  pop\n  jump\t// out\n    /* \"#utility.yul\":7219:7337   */\ntag_60:\n    /* \"#utility.yul\":7306:7330   */\n  tag_147\n    /* \"#utility.yul\":7324:7329   */\n  dup2\n    /* \"#utility.yul\":7306:7330   */\n  tag_59\n  jump\t// in\ntag_147:\n    /* \"#utility.yul\":7301:7304   */\n  dup3\n    /* \"#utility.yul\":7294:7331   */\n  mstore\n    /* \"#utility.yul\":7219:7337   */\n  pop\n  pop\n  jump\t// out\n    /* \"#utility.yul\":7343:7461   */\ntag_61:\n    /* \"#utility.yul\":7430:7454   */\n  tag_149\n    /* \"#utility.yul\":7448:7453   */\n  dup2\n    /* \"#utility.yul\":7430:7454   */\n  tag_36\n  jump\t// in\ntag_149:\n    /* \"#utility.yul\":7425:7428   */\n  dup3\n    /* \"#utility.yul\":7418:7455   */\n  mstore\n    /* \"#utility.yul\":7343:7461   */\n  pop\n  pop\n  jump\t// out\n    /* \"#utility.yul\":7467:8131   */\ntag_20:\n    /* \"#utility.yul\":7672:7676   */\n  0x00\n    /* \"#utility.yul\":7710:7713   */\n  0xa0\n    /* \"#utility.yul\":7699:7708   */\n  dup3\n    /* \"#utility.yul\":7695:7714   */\n  add\n    /* \"#utility.yul\":7687:7714   */\n  swap1\n  pop\n    /* \"#utility.yul\":7724:7795   */\n  tag_151\n    /* \"#utility.yul\":7792:7793   */\n  0x00\n    /* \"#utility.yul\":7781:7790   */\n  dup4\n    /* \"#utility.yul\":7777:7794   */\n  add\n    /* \"#utility.yul\":7768:7774   */\n  dup9\n    /* \"#utility.yul\":7724:7795   */\n  tag_58\n  jump\t// in\ntag_151:\n    /* \"#utility.yul\":7805:7877   */\n  tag_152\n    /* \"#utility.yul\":7873:7875   */\n  0x20\n    /* \"#utility.yul\":7862:7871   */\n  dup4\n    /* \"#utility.yul\":7858:7876   */\n  add\n    /* \"#utility.yul\":7849:7855   */\n  dup8\n    /* \"#utility.yul\":7805:7877   */\n  tag_58\n  jump\t// in\ntag_152:\n    /* \"#utility.yul\":7887:7959   */\n  tag_153\n    /* \"#utility.yul\":7955:7957   */\n  0x40\n    /* \"#utility.yul\":7944:7953   */\n  dup4\n    /* \"#utility.yul\":7940:7958   */\n  add\n    /* \"#utility.yul\":7931:7937   */\n  dup7\n    /* \"#utility.yul\":7887:7959   */\n  tag_58\n  jump\t// in\ntag_153:\n    /* \"#utility.yul\":7969:8041   */\n  tag_154\n    /* \"#utility.yul\":8037:8039   */\n  0x60\n    /* \"#utility.yul\":8026:8035   */\n  dup4\n    /* \"#utility.yul\":8022:8040   */\n  add\n    /* \"#utility.yul\":8013:8019   */\n  dup6\n    /* \"#utility.yul\":7969:8041   */\n  tag_60\n  jump\t// in\ntag_154:\n    /* \"#utility.yul\":8051:8124   */\n  tag_155\n    /* \"#utility.yul\":8119:8122   */\n  0x80\n    /* \"#utility.yul\":8108:8117   */\n  dup4\n    /* \"#utility.yul\":8104:8123   */\n  add\n    /* \"#utility.yul\":8095:8101   */\n  dup5\n    /* \"#utility.yul\":8051:8124   */\n  tag_61\n  jump\t// in\ntag_155:\n    /* \"#utility.yul\":7467:8131   */\n  swap7\n  swap6\n  pop\n  pop\n  pop\n  pop\n  pop\n  pop\n  jump\t// out\n    /* \"SquiddyCore.sol\":143:4432  contract SquiddyCore is ERC4626 {... */\ntag_15:\n  mload(0x80)\n  mload(0xa0)\n  mload(0xc0)\n  mload(0xe0)\n  codecopy(0x00, dataOffset(sub_0), dataSize(sub_0))\n  0x00\n  assignImmutable(\"0xecac27c21aa9a89d7be9ad03c2d91e82cbd466284ecdf2bd5bad7f953539cc45\")\n  0x00\n  assignImmutable(\"0x880de8116b3dfac28e9ff528a9fef1d1e0a51449c1addce011ffec1f302992b6\")\n  0x00\n  assignImmutable(\"0xd67d834462ca31eaef1f30157e31659f60355143b7441e6fc7d9eae1fa79f3f8\")\n  0x00\n  assignImmutable(\"0x6585423cb6456b1d4957f6454d2f004f0c4f58d53a00082412d5c2ef4b1b31fd\")\n  return(0x00, dataSize(sub_0))\nstop\n\nsub_0: assembly {\n        /* \"SquiddyCore.sol\":143:4432  contract SquiddyCore is ERC4626 {... */\n      mstore(0x40, 0x80)\n      callvalue\n      dup1\n      iszero\n      tag_1\n      jumpi\n      0x00\n      dup1\n      revert\n    tag_1:\n      pop\n      jumpi(tag_2, lt(calldatasize, 0x04))\n      shr(0xe0, calldataload(0x00))\n      dup1\n      0x7ecebe00\n      gt\n      tag_38\n      jumpi\n      dup1\n      0xc63d75b6\n      gt\n      tag_39\n      jumpi\n      dup1\n      0xd905777e\n      gt\n      tag_40\n      jumpi\n      dup1\n      0xd905777e\n      eq\n      tag_33\n      jumpi\n      dup1\n      0xdd62ed3e\n      eq\n      tag_34\n      jumpi\n      dup1\n      0xef8b30f7\n      eq\n      tag_35\n      jumpi\n      dup1\n      0xf2fde38b\n      eq\n      tag_36\n      jumpi\n      dup1\n      0xfc407ae7\n      eq\n      tag_37\n      jumpi\n      jump(tag_2)\n    tag_40:\n      dup1\n      0xc63d75b6\n      eq\n      tag_29\n      jumpi\n      dup1\n      0xc6e6f592\n      eq\n      tag_30\n      jumpi\n      dup1\n      0xce96cb77\n      eq\n      tag_31\n      jumpi\n      dup1\n      0xd505accf\n      eq\n      tag_32\n      jumpi\n      jump(tag_2)\n    tag_39:\n      dup1\n      0xa9059cbb\n      gt\n      tag_41\n      jumpi\n      dup1\n      0xa9059cbb\n      eq\n      tag_24\n      jumpi\n      dup1\n      0xb3d7f6b9\n      eq\n      tag_25\n      jumpi\n      dup1\n      0xb460af94\n      eq\n      tag_26\n      jumpi\n      dup1\n      0xba087652\n      eq\n      tag_27\n      jumpi\n      dup1\n      0xbc368a8a\n      eq\n      tag_28\n      jumpi\n      jump(tag_2)\n    tag_41:\n      dup1\n      0x7ecebe00\n      eq\n      tag_20\n      jumpi\n      dup1\n      0x7fd6f15c\n      eq\n      tag_21\n      jumpi\n      dup1\n      0x94bf804d\n      eq\n      tag_22\n      jumpi\n      dup1\n      0x95d89b41\n      eq\n      tag_23\n      jumpi\n      jump(tag_2)\n    tag_38:\n      dup1\n      0x3644e515\n      gt\n      tag_42\n      jumpi\n      dup1\n      0x4cdad506\n      gt\n      tag_43\n      jumpi\n      dup1\n      0x4cdad506\n      eq\n      tag_15\n      jumpi\n      dup1\n      0x6e553f65\n      eq\n      tag_16\n      jumpi\n      dup1\n      0x70a08231\n      eq\n      tag_17\n      jumpi\n      dup1\n      0x715018a6\n      eq\n      tag_18\n      jumpi\n      dup1\n      0x7ce3489b\n      eq\n      tag_19\n      jumpi\n      jump(tag_2)\n    tag_43:\n      dup1\n      0x3644e515\n      eq\n      tag_11\n      jumpi\n      dup1\n      0x38d52e0f\n      eq\n      tag_12\n      jumpi\n      dup1\n      0x402d267d\n      eq\n      tag_13\n      jumpi\n      dup1\n      0x481c6a75\n      eq\n      tag_14\n      jumpi\n      jump(tag_2)\n    tag_42:\n      dup1\n      0x0a28a477\n      gt\n      tag_44\n      jumpi\n      dup1\n      0x0a28a477\n      eq\n      tag_7\n      jumpi\n      dup1\n      0x18160ddd\n      eq\n      tag_8\n      jumpi\n      dup1\n      0x23b872dd\n      eq\n      tag_9\n      jumpi\n      dup1\n      0x313ce567\n      eq\n      tag_10\n      jumpi\n      jump(tag_2)\n    tag_44:\n      dup1\n      0x01e1d114\n      eq\n      tag_3\n      jumpi\n      dup1\n      0x06fdde03\n      eq\n      tag_4\n      jumpi\n      dup1\n      0x07a2d13a\n      eq\n      tag_5\n      jumpi\n      dup1\n      0x095ea7b3\n      eq\n      tag_6\n      jumpi\n    tag_2:\n      0x00\n      dup1\n      revert\n        /* \"SquiddyCore.sol\":1735:1851  function totalAssets() public view override returns (uint256) {... */\n    tag_3:\n      tag_45\n      tag_46\n      jump\t// in\n    tag_45:\n      mload(0x40)\n      tag_47\n      swap2\n      swap1\n      tag_48\n      jump\t// in\n    tag_47:\n      mload(0x40)\n      dup1\n      swap2\n      sub\n      swap1\n      return\n        /* \"ERC20.sol\":1061:1079  string public name */\n    tag_4:\n      tag_49\n      tag_50\n      jump\t// in\n    tag_49:\n      mload(0x40)\n      tag_51\n      swap2\n      swap1\n      tag_52\n      jump\t// in\n    tag_51:\n      mload(0x40)\n      dup1\n      swap2\n      sub\n      swap1\n      return\n        /* \"ERC4626.sol\":4620:4913  function convertToAssets(uint256 shares)... */\n    tag_5:\n      tag_53\n      0x04\n      dup1\n      calldatasize\n      sub\n      dup2\n      add\n      swap1\n      tag_54\n      swap2\n      swap1\n      tag_55\n      jump\t// in\n    tag_54:\n      tag_56\n      jump\t// in\n    tag_53:\n      mload(0x40)\n      tag_57\n      swap2\n      swap1\n      tag_48\n      jump\t// in\n    tag_57:\n      mload(0x40)\n      dup1\n      swap2\n      sub\n      swap1\n      return\n        /* \"ERC20.sol\":2491:2730  function approve(address spender, uint256 amount)... */\n    tag_6:\n      tag_58\n      0x04\n      dup1\n      calldatasize\n      sub\n      dup2\n      add\n      swap1\n      tag_59\n      swap2\n      swap1\n      tag_60\n      jump\t// in\n    tag_59:\n      tag_61\n      jump\t// in\n    tag_58:\n      mload(0x40)\n      tag_62\n      swap2\n      swap1\n      tag_63\n      jump\t// in\n    tag_62:\n      mload(0x40)\n      dup1\n      swap2\n      sub\n      swap1\n      return\n        /* \"ERC4626.sol\":5343:5634  function previewWithdraw(uint256 assets)... */\n    tag_7:\n      tag_64\n      0x04\n      dup1\n      calldatasize\n      sub\n      dup2\n      add\n      swap1\n      tag_65\n      swap2\n      swap1\n      tag_55\n      jump\t// in\n    tag_65:\n      tag_66\n      jump\t// in\n    tag_64:\n      mload(0x40)\n      tag_67\n      swap2\n      swap1\n      tag_48\n      jump\t// in\n    tag_67:\n      mload(0x40)\n      dup1\n      swap2\n      sub\n      swap1\n      return\n        /* \"ERC20.sol\":1334:1360  uint256 public totalSupply */\n    tag_8:\n      tag_68\n      tag_69\n      jump\t// in\n    tag_68:\n      mload(0x40)\n      tag_70\n      swap2\n      swap1\n      tag_48\n      jump\t// in\n    tag_70:\n      mload(0x40)\n      dup1\n      swap2\n      sub\n      swap1\n      return\n        /* \"ERC20.sol\":3143:3747  function transferFrom(... */\n    tag_9:\n      tag_71\n      0x04\n      dup1\n      calldatasize\n      sub\n      dup2\n      add\n      swap1\n      tag_72\n      swap2\n      swap1\n      tag_73\n      jump\t// in\n    tag_72:\n      tag_74\n      jump\t// in\n    tag_71:\n      mload(0x40)\n      tag_75\n      swap2\n      swap1\n      tag_63\n      jump\t// in\n    tag_75:\n      mload(0x40)\n      dup1\n      swap2\n      sub\n      swap1\n      return\n        /* \"ERC20.sol\":1113:1144  uint8 public immutable decimals */\n    tag_10:\n      tag_76\n      tag_77\n      jump\t// in\n    tag_76:\n      mload(0x40)\n      tag_78\n      swap2\n      swap1\n      tag_79\n      jump\t// in\n    tag_78:\n      mload(0x40)\n      dup1\n      swap2\n      sub\n      swap1\n      return\n        /* \"ERC20.sol\":5471:5692  function DOMAIN_SEPARATOR() public view virtual returns (bytes32) {... */\n    tag_11:\n      tag_80\n      tag_81\n      jump\t// in\n    tag_80:\n      mload(0x40)\n      tag_82\n      swap2\n      swap1\n      tag_83\n      jump\t// in\n    tag_82:\n      mload(0x40)\n      dup1\n      swap2\n      sub\n      swap1\n      return\n        /* \"ERC4626.sol\":1165:1193  ERC20 public immutable asset */\n    tag_12:\n      tag_84\n      tag_85\n      jump\t// in\n    tag_84:\n      mload(0x40)\n      tag_86\n      swap2\n      swap1\n      tag_87\n      jump\t// in\n    tag_86:\n      mload(0x40)\n      dup1\n      swap2\n      sub\n      swap1\n      return\n        /* \"ERC4626.sol\":5997:6105  function maxDeposit(address) public view virtual returns (uint256) {... */\n    tag_13:\n      tag_88\n      0x04\n      dup1\n      calldatasize\n      sub\n      dup2\n      add\n      swap1\n      tag_89\n      swap2\n      swap1\n      tag_90\n      jump\t// in\n    tag_89:\n      tag_91\n      jump\t// in\n    tag_88:\n      mload(0x40)\n      tag_92\n      swap2\n      swap1\n      tag_48\n      jump\t// in\n    tag_92:\n      mload(0x40)\n      dup1\n      swap2\n      sub\n      swap1\n      return\n        /* \"SquiddyCore.sol\":2352:2441  function manager() public view virtual returns (address) {... */\n    tag_14:\n      tag_93\n      tag_94\n      jump\t// in\n    tag_93:\n      mload(0x40)\n      tag_95\n      swap2\n      swap1\n      tag_96\n      jump\t// in\n    tag_95:\n      mload(0x40)\n      dup1\n      swap2\n      sub\n      swap1\n      return\n        /* \"ERC4626.sol\":5640:5800  function previewRedeem(uint256 shares)... */\n    tag_15:\n      tag_97\n      0x04\n      dup1\n      calldatasize\n      sub\n      dup2\n      add\n      swap1\n      tag_98\n      swap2\n      swap1\n      tag_55\n      jump\t// in\n    tag_98:\n      tag_99\n      jump\t// in\n    tag_97:\n      mload(0x40)\n      tag_100\n      swap2\n      swap1\n      tag_48\n      jump\t// in\n    tag_100:\n      mload(0x40)\n      dup1\n      swap2\n      sub\n      swap1\n      return\n        /* \"ERC4626.sol\":1583:2127  function deposit(uint256 assets, address receiver)... */\n    tag_16:\n      tag_101\n      0x04\n      dup1\n      calldatasize\n      sub\n      dup2\n      add\n      swap1\n      tag_102\n      swap2\n      swap1\n      tag_103\n      jump\t// in\n    tag_102:\n      tag_104\n      jump\t// in\n    tag_101:\n      mload(0x40)\n      tag_105\n      swap2\n      swap1\n      tag_48\n      jump\t// in\n    tag_105:\n      mload(0x40)\n      dup1\n      swap2\n      sub\n      swap1\n      return\n        /* \"ERC20.sol\":1367:1411  mapping(address => uint256) public balanceOf */\n    tag_17:\n      tag_106\n      0x04\n      dup1\n      calldatasize\n      sub\n      dup2\n      add\n      swap1\n      tag_107\n      swap2\n      swap1\n      tag_90\n      jump\t// in\n    tag_107:\n      tag_108\n      jump\t// in\n    tag_106:\n      mload(0x40)\n      tag_109\n      swap2\n      swap1\n      tag_48\n      jump\t// in\n    tag_109:\n      mload(0x40)\n      dup1\n      swap2\n      sub\n      swap1\n      return\n        /* \"SquiddyCore.sol\":2792:2943  function renounceOwnership() public virtual onlyManager {... */\n    tag_18:\n      tag_110\n      tag_111\n      jump\t// in\n    tag_110:\n      stop\n        /* \"SquiddyCore.sol\":4034:4357  function setFeePercent(uint256 newFeePercent) external onlyManager {... */\n    tag_19:\n      tag_112\n      0x04\n      dup1\n      calldatasize\n      sub\n      dup2\n      add\n      swap1\n      tag_113\n      swap2\n      swap1\n      tag_55\n      jump\t// in\n    tag_113:\n      tag_114\n      jump\t// in\n    tag_112:\n      stop\n        /* \"ERC20.sol\":1781:1822  mapping(address => uint256) public nonces */\n    tag_20:\n      tag_115\n      0x04\n      dup1\n      calldatasize\n      sub\n      dup2\n      add\n      swap1\n      tag_116\n      swap2\n      swap1\n      tag_90\n      jump\t// in\n    tag_116:\n      tag_117\n      jump\t// in\n    tag_115:\n      mload(0x40)\n      tag_118\n      swap2\n      swap1\n      tag_48\n      jump\t// in\n    tag_118:\n      mload(0x40)\n      dup1\n      swap2\n      sub\n      swap1\n      return\n        /* \"SquiddyCore.sol\":3652:3677  uint256 public feePercent */\n    tag_21:\n      tag_119\n      tag_120\n      jump\t// in\n    tag_119:\n      mload(0x40)\n      tag_121\n      swap2\n      swap1\n      tag_48\n      jump\t// in\n    tag_121:\n      mload(0x40)\n      dup1\n      swap2\n      sub\n      swap1\n      return\n        /* \"ERC4626.sol\":2133:2628  function mint(uint256 shares, address receiver)... */\n    tag_22:\n      tag_122\n      0x04\n      dup1\n      calldatasize\n      sub\n      dup2\n      add\n      swap1\n      tag_123\n      swap2\n      swap1\n      tag_103\n      jump\t// in\n    tag_123:\n      tag_124\n      jump\t// in\n    tag_122:\n      mload(0x40)\n      tag_125\n      swap2\n      swap1\n      tag_48\n      jump\t// in\n    tag_125:\n      mload(0x40)\n      dup1\n      swap2\n      sub\n      swap1\n      return\n        /* \"ERC20.sol\":1086:1106  string public symbol */\n    tag_23:\n      tag_126\n      tag_127\n      jump\t// in\n    tag_126:\n      mload(0x40)\n      tag_128\n      swap2\n      swap1\n      tag_52\n      jump\t// in\n    tag_128:\n      mload(0x40)\n      dup1\n      swap2\n      sub\n      swap1\n      return\n        /* \"ERC20.sol\":2736:3137  function transfer(address to, uint256 amount)... */\n    tag_24:\n      tag_129\n      0x04\n      dup1\n      calldatasize\n      sub\n      dup2\n      add\n      swap1\n      tag_130\n      swap2\n      swap1\n      tag_60\n      jump\t// in\n    tag_130:\n      tag_131\n      jump\t// in\n    tag_129:\n      mload(0x40)\n      tag_132\n      swap2\n      swap1\n      tag_63\n      jump\t// in\n    tag_132:\n      mload(0x40)\n      dup1\n      swap2\n      sub\n      swap1\n      return\n        /* \"ERC4626.sol\":5086:5337  function previewMint(uint256 shares) public view virtual returns (uint256) {... */\n    tag_25:\n      tag_133\n      0x04\n      dup1\n      calldatasize\n      sub\n      dup2\n      add\n      swap1\n      tag_134\n      swap2\n      swap1\n      tag_55\n      jump\t// in\n    tag_134:\n      tag_135\n      jump\t// in\n    tag_133:\n      mload(0x40)\n      tag_136\n      swap2\n      swap1\n      tag_48\n      jump\t// in\n    tag_136:\n      mload(0x40)\n      dup1\n      swap2\n      sub\n      swap1\n      return\n        /* \"ERC4626.sol\":2634:3329  function withdraw(... */\n    tag_26:\n      tag_137\n      0x04\n      dup1\n      calldatasize\n      sub\n      dup2\n      add\n      swap1\n      tag_138\n      swap2\n      swap1\n      tag_139\n      jump\t// in\n    tag_138:\n      tag_140\n      jump\t// in\n    tag_137:\n      mload(0x40)\n      tag_141\n      swap2\n      swap1\n      tag_48\n      jump\t// in\n    tag_141:\n      mload(0x40)\n      dup1\n      swap2\n      sub\n      swap1\n      return\n        /* \"ERC4626.sol\":3335:4064  function redeem(... */\n    tag_27:\n      tag_142\n      0x04\n      dup1\n      calldatasize\n      sub\n      dup2\n      add\n      swap1\n      tag_143\n      swap2\n      swap1\n      tag_139\n      jump\t// in\n    tag_143:\n      tag_144\n      jump\t// in\n    tag_142:\n      mload(0x40)\n      tag_145\n      swap2\n      swap1\n      tag_48\n      jump\t// in\n    tag_145:\n      mload(0x40)\n      dup1\n      swap2\n      sub\n      swap1\n      return\n        /* \"SquiddyCore.sol\":212:262  uint256 public beforeWithdrawHookCalledCounter = 0 */\n    tag_28:\n      tag_146\n      tag_147\n      jump\t// in\n    tag_146:\n      mload(0x40)\n      tag_148\n      swap2\n      swap1\n      tag_48\n      jump\t// in\n    tag_148:\n      mload(0x40)\n      dup1\n      swap2\n      sub\n      swap1\n      return\n        /* \"ERC4626.sol\":6111:6216  function maxMint(address) public view virtual returns (uint256) {... */\n    tag_29:\n      tag_149\n      0x04\n      dup1\n      calldatasize\n      sub\n      dup2\n      add\n      swap1\n      tag_150\n      swap2\n      swap1\n      tag_90\n      jump\t// in\n    tag_150:\n      tag_151\n      jump\t// in\n    tag_149:\n      mload(0x40)\n      tag_152\n      swap2\n      swap1\n      tag_48\n      jump\t// in\n    tag_152:\n      mload(0x40)\n      dup1\n      swap2\n      sub\n      swap1\n      return\n        /* \"ERC4626.sol\":4321:4614  function convertToShares(uint256 assets)... */\n    tag_30:\n      tag_153\n      0x04\n      dup1\n      calldatasize\n      sub\n      dup2\n      add\n      swap1\n      tag_154\n      swap2\n      swap1\n      tag_55\n      jump\t// in\n    tag_154:\n      tag_155\n      jump\t// in\n    tag_153:\n      mload(0x40)\n      tag_156\n      swap2\n      swap1\n      tag_48\n      jump\t// in\n    tag_156:\n      mload(0x40)\n      dup1\n      swap2\n      sub\n      swap1\n      return\n        /* \"ERC4626.sol\":6222:6353  function maxWithdraw(address owner) public view virtual returns (uint256) {... */\n    tag_31:\n      tag_157\n      0x04\n      dup1\n      calldatasize\n      sub\n      dup2\n      add\n      swap1\n      tag_158\n      swap2\n      swap1\n      tag_90\n      jump\t// in\n    tag_158:\n      tag_159\n      jump\t// in\n    tag_157:\n      mload(0x40)\n      tag_160\n      swap2\n      swap1\n      tag_48\n      jump\t// in\n    tag_160:\n      mload(0x40)\n      dup1\n      swap2\n      sub\n      swap1\n      return\n        /* \"ERC20.sol\":3936:5465  function permit(... */\n    tag_32:\n      tag_161\n      0x04\n      dup1\n      calldatasize\n      sub\n      dup2\n      add\n      swap1\n      tag_162\n      swap2\n      swap1\n      tag_163\n      jump\t// in\n    tag_162:\n      tag_164\n      jump\t// in\n    tag_161:\n      stop\n        /* \"ERC4626.sol\":6359:6471  function maxRedeem(address owner) public view virtual returns (uint256) {... */\n    tag_33:\n      tag_165\n      0x04\n      dup1\n      calldatasize\n      sub\n      dup2\n      add\n      swap1\n      tag_166\n      swap2\n      swap1\n      tag_90\n      jump\t// in\n    tag_166:\n      tag_167\n      jump\t// in\n    tag_165:\n      mload(0x40)\n      tag_168\n      swap2\n      swap1\n      tag_48\n      jump\t// in\n    tag_168:\n      mload(0x40)\n      dup1\n      swap2\n      sub\n      swap1\n      return\n        /* \"ERC20.sol\":1418:1482  mapping(address => mapping(address => uint256)) public allowance */\n    tag_34:\n      tag_169\n      0x04\n      dup1\n      calldatasize\n      sub\n      dup2\n      add\n      swap1\n      tag_170\n      swap2\n      swap1\n      tag_171\n      jump\t// in\n    tag_170:\n      tag_172\n      jump\t// in\n    tag_169:\n      mload(0x40)\n      tag_173\n      swap2\n      swap1\n      tag_48\n      jump\t// in\n    tag_173:\n      mload(0x40)\n      dup1\n      swap2\n      sub\n      swap1\n      return\n        /* \"ERC4626.sol\":4919:5080  function previewDeposit(uint256 assets)... */\n    tag_35:\n      tag_174\n      0x04\n      dup1\n      calldatasize\n      sub\n      dup2\n      add\n      swap1\n      tag_175\n      swap2\n      swap1\n      tag_55\n      jump\t// in\n    tag_175:\n      tag_176\n      jump\t// in\n    tag_174:\n      mload(0x40)\n      tag_177\n      swap2\n      swap1\n      tag_48\n      jump\t// in\n    tag_177:\n      mload(0x40)\n      dup1\n      swap2\n      sub\n      swap1\n      return\n        /* \"SquiddyCore.sol\":3094:3376  function transferOwnership(address newOwner) public virtual onlyManager {... */\n    tag_36:\n      tag_178\n      0x04\n      dup1\n      calldatasize\n      sub\n      dup2\n      add\n      swap1\n      tag_179\n      swap2\n      swap1\n      tag_90\n      jump\t// in\n    tag_179:\n      tag_180\n      jump\t// in\n    tag_178:\n      stop\n        /* \"SquiddyCore.sol\":268:316  uint256 public afterDepositHookCalledCounter = 0 */\n    tag_37:\n      tag_181\n      tag_182\n      jump\t// in\n    tag_181:\n      mload(0x40)\n      tag_183\n      swap2\n      swap1\n      tag_48\n      jump\t// in\n    tag_183:\n      mload(0x40)\n      dup1\n      swap2\n      sub\n      swap1\n      return\n        /* \"SquiddyCore.sol\":1735:1851  function totalAssets() public view override returns (uint256) {... */\n    tag_46:\n        /* \"SquiddyCore.sol\":1788:1795  uint256 */\n      0x00\n        /* \"SquiddyCore.sol\":1814:1819  asset */\n      immutable(\"0xecac27c21aa9a89d7be9ad03c2d91e82cbd466284ecdf2bd5bad7f953539cc45\")\n        /* \"SquiddyCore.sol\":1814:1829  asset.balanceOf */\n      0xffffffffffffffffffffffffffffffffffffffff\n      and\n      0x70a08231\n        /* \"SquiddyCore.sol\":1838:1842  this */\n      address\n        /* \"SquiddyCore.sol\":1814:1844  asset.balanceOf(address(this)) */\n      mload(0x40)\n      dup3\n      0xffffffff\n      and\n      0xe0\n      shl\n      dup2\n      mstore\n      0x04\n      add\n      tag_185\n      swap2\n      swap1\n      tag_96\n      jump\t// in\n    tag_185:\n      0x20\n      mload(0x40)\n      dup1\n      dup4\n      sub\n      dup2\n      dup7\n      gas\n      staticcall\n      iszero\n      dup1\n      iszero\n      tag_187\n      jumpi\n      returndatasize\n      0x00\n      dup1\n      returndatacopy\n      revert(0x00, returndatasize)\n    tag_187:\n      pop\n      pop\n      pop\n      pop\n      mload(0x40)\n      returndatasize\n      not(0x1f)\n      0x1f\n      dup3\n      add\n      and\n      dup3\n      add\n      dup1\n      0x40\n      mstore\n      pop\n      dup2\n      add\n      swap1\n      tag_188\n      swap2\n      swap1\n      tag_189\n      jump\t// in\n    tag_188:\n        /* \"SquiddyCore.sol\":1807:1844  return asset.balanceOf(address(this)) */\n      swap1\n      pop\n        /* \"SquiddyCore.sol\":1735:1851  function totalAssets() public view override returns (uint256) {... */\n      swap1\n      jump\t// out\n        /* \"ERC20.sol\":1061:1079  string public name */\n    tag_50:\n      0x00\n      dup1\n      sload\n      tag_190\n      swap1\n      tag_191\n      jump\t// in\n    tag_190:\n      dup1\n      0x1f\n      add\n      0x20\n      dup1\n      swap2\n      div\n      mul\n      0x20\n      add\n      mload(0x40)\n      swap1\n      dup2\n      add\n      0x40\n      mstore\n      dup1\n      swap3\n      swap2\n      swap1\n      dup2\n      dup2\n      mstore\n      0x20\n      add\n      dup3\n      dup1\n      sload\n      tag_192\n      swap1\n      tag_191\n      jump\t// in\n    tag_192:\n      dup1\n      iszero\n      tag_193\n      jumpi\n      dup1\n      0x1f\n      lt\n      tag_194\n      jumpi\n      0x0100\n      dup1\n      dup4\n      sload\n      div\n      mul\n      dup4\n      mstore\n      swap2\n      0x20\n      add\n      swap2\n      jump(tag_193)\n    tag_194:\n      dup3\n      add\n      swap2\n      swap1\n      0x00\n      mstore\n      keccak256(0x00, 0x20)\n      swap1\n    tag_195:\n      dup2\n      sload\n      dup2\n      mstore\n      swap1\n      0x01\n      add\n      swap1\n      0x20\n      add\n      dup1\n      dup4\n      gt\n      tag_195\n      jumpi\n      dup3\n      swap1\n      sub\n      0x1f\n      and\n      dup3\n      add\n      swap2\n    tag_193:\n      pop\n      pop\n      pop\n      pop\n      pop\n      dup2\n      jump\t// out\n        /* \"ERC4626.sol\":4620:4913  function convertToAssets(uint256 shares)... */\n    tag_56:\n        /* \"ERC4626.sol\":4722:4729  uint256 */\n      0x00\n        /* \"ERC4626.sol\":4745:4759  uint256 supply */\n      dup1\n        /* \"ERC4626.sol\":4762:4773  totalSupply */\n      sload(0x02)\n        /* \"ERC4626.sol\":4745:4773  uint256 supply = totalSupply */\n      swap1\n      pop\n        /* \"ERC4626.sol\":4853:4854  0 */\n      0x00\n        /* \"ERC4626.sol\":4843:4849  supply */\n      dup2\n        /* \"ERC4626.sol\":4843:4854  supply == 0 */\n      eq\n        /* \"ERC4626.sol\":4843:4906  supply == 0 ? shares : shares.mulDivDown(totalAssets(), supply) */\n      tag_197\n      jumpi\n        /* \"ERC4626.sol\":4866:4906  shares.mulDivDown(totalAssets(), supply) */\n      tag_198\n        /* \"ERC4626.sol\":4884:4897  totalAssets() */\n      tag_199\n        /* \"ERC4626.sol\":4884:4895  totalAssets */\n      tag_46\n        /* \"ERC4626.sol\":4884:4897  totalAssets() */\n      jump\t// in\n    tag_199:\n        /* \"ERC4626.sol\":4899:4905  supply */\n      dup3\n        /* \"ERC4626.sol\":4866:4872  shares */\n      dup6\n        /* \"ERC4626.sol\":4866:4883  shares.mulDivDown */\n      tag_200\n      swap1\n        /* \"ERC4626.sol\":4866:4906  shares.mulDivDown(totalAssets(), supply) */\n      swap3\n      swap2\n      swap1\n      0xffffffff\n      and\n      jump\t// in\n    tag_198:\n        /* \"ERC4626.sol\":4843:4906  supply == 0 ? shares : shares.mulDivDown(totalAssets(), supply) */\n      jump(tag_201)\n    tag_197:\n        /* \"ERC4626.sol\":4857:4863  shares */\n      dup3\n        /* \"ERC4626.sol\":4843:4906  supply == 0 ? shares : shares.mulDivDown(totalAssets(), supply) */\n    tag_201:\n        /* \"ERC4626.sol\":4836:4906  return supply == 0 ? shares : shares.mulDivDown(totalAssets(), supply) */\n      swap2\n      pop\n      pop\n        /* \"ERC4626.sol\":4620:4913  function convertToAssets(uint256 shares)... */\n      swap2\n      swap1\n      pop\n      jump\t// out\n        /* \"ERC20.sol\":2491:2730  function approve(address spender, uint256 amount)... */\n    tag_61:\n        /* \"ERC20.sol\":2589:2593  bool */\n      0x00\n        /* \"ERC20.sol\":2642:2648  amount */\n      dup2\n        /* \"ERC20.sol\":2609:2618  allowance */\n      0x04\n        /* \"ERC20.sol\":2609:2630  allowance[msg.sender] */\n      0x00\n        /* \"ERC20.sol\":2619:2629  msg.sender */\n      caller\n        /* \"ERC20.sol\":2609:2630  allowance[msg.sender] */\n      0xffffffffffffffffffffffffffffffffffffffff\n      and\n      0xffffffffffffffffffffffffffffffffffffffff\n      and\n      dup2\n      mstore\n      0x20\n      add\n      swap1\n      dup2\n      mstore\n      0x20\n      add\n      0x00\n      keccak256\n        /* \"ERC20.sol\":2609:2639  allowance[msg.sender][spender] */\n      0x00\n        /* \"ERC20.sol\":2631:2638  spender */\n      dup6\n        /* \"ERC20.sol\":2609:2639  allowance[msg.sender][spender] */\n      0xffffffffffffffffffffffffffffffffffffffff\n      and\n      0xffffffffffffffffffffffffffffffffffffffff\n      and\n      dup2\n      mstore\n      0x20\n      add\n      swap1\n      dup2\n      mstore\n      0x20\n      add\n      0x00\n      keccak256\n        /* \"ERC20.sol\":2609:2648  allowance[msg.sender][spender] = amount */\n      dup2\n      swap1\n      sstore\n      pop\n        /* \"ERC20.sol\":2685:2692  spender */\n      dup3\n        /* \"ERC20.sol\":2664:2701  Approval(msg.sender, spender, amount) */\n      0xffffffffffffffffffffffffffffffffffffffff\n      and\n        /* \"ERC20.sol\":2673:2683  msg.sender */\n      caller\n        /* \"ERC20.sol\":2664:2701  Approval(msg.sender, spender, amount) */\n      0xffffffffffffffffffffffffffffffffffffffff\n      and\n      0x8c5be1e5ebec7d5bd14f71427d1e84f3dd0314c0f7b2291e5b200ac8c7c3b925\n        /* \"ERC20.sol\":2694:2700  amount */\n      dup5\n        /* \"ERC20.sol\":2664:2701  Approval(msg.sender, spender, amount) */\n      mload(0x40)\n      tag_203\n      swap2\n      swap1\n      tag_48\n      jump\t// in\n    tag_203:\n      mload(0x40)\n      dup1\n      swap2\n      sub\n      swap1\n      log3\n        /* \"ERC20.sol\":2719:2723  true */\n      0x01\n        /* \"ERC20.sol\":2712:2723  return true */\n      swap1\n      pop\n        /* \"ERC20.sol\":2491:2730  function approve(address spender, uint256 amount)... */\n      swap3\n      swap2\n      pop\n      pop\n      jump\t// out\n        /* \"ERC4626.sol\":5343:5634  function previewWithdraw(uint256 assets)... */\n    tag_66:\n        /* \"ERC4626.sol\":5445:5452  uint256 */\n      0x00\n        /* \"ERC4626.sol\":5468:5482  uint256 supply */\n      dup1\n        /* \"ERC4626.sol\":5485:5496  totalSupply */\n      sload(0x02)\n        /* \"ERC4626.sol\":5468:5496  uint256 supply = totalSupply */\n      swap1\n      pop\n        /* \"ERC4626.sol\":5576:5577  0 */\n      0x00\n        /* \"ERC4626.sol\":5566:5572  supply */\n      dup2\n        /* \"ERC4626.sol\":5566:5577  supply == 0 */\n      eq\n        /* \"ERC4626.sol\":5566:5627  supply == 0 ? assets : assets.mulDivUp(supply, totalAssets()) */\n      tag_205\n      jumpi\n        /* \"ERC4626.sol\":5589:5627  assets.mulDivUp(supply, totalAssets()) */\n      tag_206\n        /* \"ERC4626.sol\":5605:5611  supply */\n      dup2\n        /* \"ERC4626.sol\":5613:5626  totalAssets() */\n      tag_207\n        /* \"ERC4626.sol\":5613:5624  totalAssets */\n      tag_46\n        /* \"ERC4626.sol\":5613:5626  totalAssets() */\n      jump\t// in\n    tag_207:\n        /* \"ERC4626.sol\":5589:5595  assets */\n      dup6\n        /* \"ERC4626.sol\":5589:5604  assets.mulDivUp */\n      tag_208\n      swap1\n        /* \"ERC4626.sol\":5589:5627  assets.mulDivUp(supply, totalAssets()) */\n      swap3\n      swap2\n      swap1\n      0xffffffff\n      and\n      jump\t// in\n    tag_206:\n        /* \"ERC4626.sol\":5566:5627  supply == 0 ? assets : assets.mulDivUp(supply, totalAssets()) */\n      jump(tag_209)\n    tag_205:\n        /* \"ERC4626.sol\":5580:5586  assets */\n      dup3\n        /* \"ERC4626.sol\":5566:5627  supply == 0 ? assets : assets.mulDivUp(supply, totalAssets()) */\n    tag_209:\n        /* \"ERC4626.sol\":5559:5627  return supply == 0 ? assets : assets.mulDivUp(supply, totalAssets()) */\n      swap2\n      pop\n      pop\n        /* \"ERC4626.sol\":5343:5634  function previewWithdraw(uint256 assets)... */\n      swap2\n      swap1\n      pop\n      jump\t// out\n        /* \"ERC20.sol\":1334:1360  uint256 public totalSupply */\n    tag_69:\n      sload(0x02)\n      dup2\n      jump\t// out\n        /* \"ERC20.sol\":3143:3747  function transferFrom(... */\n    tag_74:\n        /* \"ERC20.sol\":3261:3265  bool */\n      0x00\n        /* \"ERC20.sol\":3277:3292  uint256 allowed */\n      dup1\n        /* \"ERC20.sol\":3295:3304  allowance */\n      0x04\n        /* \"ERC20.sol\":3295:3310  allowance[from] */\n      0x00\n        /* \"ERC20.sol\":3305:3309  from */\n      dup7\n        /* \"ERC20.sol\":3295:3310  allowance[from] */\n      0xffffffffffffffffffffffffffffffffffffffff\n      and\n      0xffffffffffffffffffffffffffffffffffffffff\n      and\n      dup2\n      mstore\n      0x20\n      add\n      swap1\n      dup2\n      mstore\n      0x20\n      add\n      0x00\n      keccak256\n        /* \"ERC20.sol\":3295:3322  allowance[from][msg.sender] */\n      0x00\n        /* \"ERC20.sol\":3311:3321  msg.sender */\n      caller\n        /* \"ERC20.sol\":3295:3322  allowance[from][msg.sender] */\n      0xffffffffffffffffffffffffffffffffffffffff\n      and\n      0xffffffffffffffffffffffffffffffffffffffff\n      and\n      dup2\n      mstore\n      0x20\n      add\n      swap1\n      dup2\n      mstore\n      0x20\n      add\n      0x00\n      keccak256\n      sload\n        /* \"ERC20.sol\":3277:3322  uint256 allowed = allowance[from][msg.sender] */\n      swap1\n      pop\n        /* \"ERC20.sol\":3384:3401  type(uint256).max */\n      0xffffffffffffffffffffffffffffffffffffffffffffffffffffffffffffffff\n        /* \"ERC20.sol\":3373:3380  allowed */\n      dup2\n        /* \"ERC20.sol\":3373:3401  allowed != type(uint256).max */\n      eq\n        /* \"ERC20.sol\":3369:3461  if (allowed != type(uint256).max)... */\n      tag_211\n      jumpi\n        /* \"ERC20.sol\":3455:3461  amount */\n      dup3\n        /* \"ERC20.sol\":3445:3452  allowed */\n      dup2\n        /* \"ERC20.sol\":3445:3461  allowed - amount */\n      tag_212\n      swap2\n      swap1\n      tag_213\n      jump\t// in\n    tag_212:\n        /* \"ERC20.sol\":3415:3424  allowance */\n      0x04\n        /* \"ERC20.sol\":3415:3430  allowance[from] */\n      0x00\n        /* \"ERC20.sol\":3425:3429  from */\n      dup8\n        /* \"ERC20.sol\":3415:3430  allowance[from] */\n      0xffffffffffffffffffffffffffffffffffffffff\n      and\n      0xffffffffffffffffffffffffffffffffffffffff\n      and\n      dup2\n      mstore\n      0x20\n      add\n      swap1\n      dup2\n      mstore\n      0x20\n      add\n      0x00\n      keccak256\n        /* \"ERC20.sol\":3415:3442  allowance[from][msg.sender] */\n      0x00\n        /* \"ERC20.sol\":3431:3441  msg.sender */\n      caller\n        /* \"ERC20.sol\":3415:3442  allowance[from][msg.sender] */\n      0xffffffffffffffffffffffffffffffffffffffff\n      and\n      0xffffffffffffffffffffffffffffffffffffffff\n      and\n      dup2\n      mstore\n      0x20\n      add\n      swap1\n      dup2\n      mstore\n      0x20\n      add\n      0x00\n      keccak256\n        /* \"ERC20.sol\":3415:3461  allowance[from][msg.sender] = allowed - amount */\n      dup2\n      swap1\n      sstore\n      pop\n        /* \"ERC20.sol\":3369:3461  if (allowed != type(uint256).max)... */\n    tag_211:\n        /* \"ERC20.sol\":3491:3497  amount */\n      dup3\n        /* \"ERC20.sol\":3472:3481  balanceOf */\n      0x03\n        /* \"ERC20.sol\":3472:3487  balanceOf[from] */\n      0x00\n        /* \"ERC20.sol\":3482:3486  from */\n      dup8\n        /* \"ERC20.sol\":3472:3487  balanceOf[from] */\n      0xffffffffffffffffffffffffffffffffffffffff\n      and\n      0xffffffffffffffffffffffffffffffffffffffff\n      and\n      dup2\n      mstore\n      0x20\n      add\n      swap1\n      dup2\n      mstore\n      0x20\n      add\n      0x00\n      keccak256\n      0x00\n        /* \"ERC20.sol\":3472:3497  balanceOf[from] -= amount */\n      dup3\n      dup3\n      sload\n      tag_214\n      swap2\n      swap1\n      tag_213\n      jump\t// in\n    tag_214:\n      swap3\n      pop\n      pop\n      dup2\n      swap1\n      sstore\n      pop\n        /* \"ERC20.sol\":3660:3666  amount */\n      dup3\n        /* \"ERC20.sol\":3643:3652  balanceOf */\n      0x03\n        /* \"ERC20.sol\":3643:3656  balanceOf[to] */\n      0x00\n        /* \"ERC20.sol\":3653:3655  to */\n      dup7\n        /* \"ERC20.sol\":3643:3656  balanceOf[to] */\n      0xffffffffffffffffffffffffffffffffffffffff\n      and\n      0xffffffffffffffffffffffffffffffffffffffff\n      and\n      dup2\n      mstore\n      0x20\n      add\n      swap1\n      dup2\n      mstore\n      0x20\n      add\n      0x00\n      keccak256\n      0x00\n        /* \"ERC20.sol\":3643:3666  balanceOf[to] += amount */\n      dup3\n      dup3\n      sload\n      add\n      swap3\n      pop\n      pop\n      dup2\n      swap1\n      sstore\n      pop\n        /* \"ERC20.sol\":3707:3709  to */\n      dup4\n        /* \"ERC20.sol\":3692:3718  Transfer(from, to, amount) */\n      0xffffffffffffffffffffffffffffffffffffffff\n      and\n        /* \"ERC20.sol\":3701:3705  from */\n      dup6\n        /* \"ERC20.sol\":3692:3718  Transfer(from, to, amount) */\n      0xffffffffffffffffffffffffffffffffffffffff\n      and\n      0xddf252ad1be2c89b69c2b068fc378daa952ba7f163c4a11628f55a4df523b3ef\n        /* \"ERC20.sol\":3711:3717  amount */\n      dup6\n        /* \"ERC20.sol\":3692:3718  Transfer(from, to, amount) */\n      mload(0x40)\n      tag_215\n      swap2\n      swap1\n      tag_48\n      jump\t// in\n    tag_215:\n      mload(0x40)\n      dup1\n      swap2\n      sub\n      swap1\n      log3\n        /* \"ERC20.sol\":3736:3740  true */\n      0x01\n        /* \"ERC20.sol\":3729:3740  return true */\n      swap2\n      pop\n      pop\n        /* \"ERC20.sol\":3143:3747  function transferFrom(... */\n      swap4\n      swap3\n      pop\n      pop\n      pop\n      jump\t// out\n        /* \"ERC20.sol\":1113:1144  uint8 public immutable decimals */\n    tag_77:\n      immutable(\"0x6585423cb6456b1d4957f6454d2f004f0c4f58d53a00082412d5c2ef4b1b31fd\")\n      dup2\n      jump\t// out\n        /* \"ERC20.sol\":5471:5692  function DOMAIN_SEPARATOR() public view virtual returns (bytes32) {... */\n    tag_81:\n        /* \"ERC20.sol\":5528:5535  bytes32 */\n      0x00\n        /* \"ERC20.sol\":5583:5599  INITIAL_CHAIN_ID */\n      immutable(\"0xd67d834462ca31eaef1f30157e31659f60355143b7441e6fc7d9eae1fa79f3f8\")\n        /* \"ERC20.sol\":5566:5579  block.chainid */\n      chainid\n        /* \"ERC20.sol\":5566:5599  block.chainid == INITIAL_CHAIN_ID */\n      eq\n        /* \"ERC20.sol\":5566:5685  block.chainid == INITIAL_CHAIN_ID... */\n      tag_217\n      jumpi\n        /* \"ERC20.sol\":5661:5685  computeDomainSeparator() */\n      tag_218\n        /* \"ERC20.sol\":5661:5683  computeDomainSeparator */\n      tag_219\n        /* \"ERC20.sol\":5661:5685  computeDomainSeparator() */\n      jump\t// in\n    tag_218:\n        /* \"ERC20.sol\":5566:5685  block.chainid == INITIAL_CHAIN_ID... */\n      jump(tag_220)\n    tag_217:\n        /* \"ERC20.sol\":5618:5642  INITIAL_DOMAIN_SEPARATOR */\n      immutable(\"0x880de8116b3dfac28e9ff528a9fef1d1e0a51449c1addce011ffec1f302992b6\")\n        /* \"ERC20.sol\":5566:5685  block.chainid == INITIAL_CHAIN_ID... */\n    tag_220:\n        /* \"ERC20.sol\":5547:5685  return... */\n      swap1\n      pop\n        /* \"ERC20.sol\":5471:5692  function DOMAIN_SEPARATOR() public view virtual returns (bytes32) {... */\n      swap1\n      jump\t// out\n        /* \"ERC4626.sol\":1165:1193  ERC20 public immutable asset */\n    tag_85:\n      immutable(\"0xecac27c21aa9a89d7be9ad03c2d91e82cbd466284ecdf2bd5bad7f953539cc45\")\n      dup2\n      jump\t// out\n        /* \"ERC4626.sol\":5997:6105  function maxDeposit(address) public view virtual returns (uint256) {... */\n    tag_91:\n        /* \"ERC4626.sol\":6055:6062  uint256 */\n      0x00\n        /* \"ERC4626.sol\":6081:6098  type(uint256).max */\n      0xffffffffffffffffffffffffffffffffffffffffffffffffffffffffffffffff\n        /* \"ERC4626.sol\":6074:6098  return type(uint256).max */\n      swap1\n      pop\n        /* \"ERC4626.sol\":5997:6105  function maxDeposit(address) public view virtual returns (uint256) {... */\n      swap2\n      swap1\n      pop\n      jump\t// out\n        /* \"SquiddyCore.sol\":2352:2441  function manager() public view virtual returns (address) {... */\n    tag_94:\n        /* \"SquiddyCore.sol\":2400:2407  address */\n      0x00\n        /* \"SquiddyCore.sol\":2426:2434  _manager */\n      0x06\n      0x00\n      swap1\n      sload\n      swap1\n      0x0100\n      exp\n      swap1\n      div\n      0xffffffffffffffffffffffffffffffffffffffff\n      and\n        /* \"SquiddyCore.sol\":2419:2434  return _manager */\n      swap1\n      pop\n        /* \"SquiddyCore.sol\":2352:2441  function manager() public view virtual returns (address) {... */\n      swap1\n      jump\t// out\n        /* \"ERC4626.sol\":5640:5800  function previewRedeem(uint256 shares)... */\n    tag_99:\n        /* \"ERC4626.sol\":5740:5747  uint256 */\n      0x00\n        /* \"ERC4626.sol\":5770:5793  convertToAssets(shares) */\n      tag_224\n        /* \"ERC4626.sol\":5786:5792  shares */\n      dup3\n        /* \"ERC4626.sol\":5770:5785  convertToAssets */\n      tag_56\n        /* \"ERC4626.sol\":5770:5793  convertToAssets(shares) */\n      jump\t// in\n    tag_224:\n        /* \"ERC4626.sol\":5763:5793  return convertToAssets(shares) */\n      swap1\n      pop\n        /* \"ERC4626.sol\":5640:5800  function previewRedeem(uint256 shares)... */\n      swap2\n      swap1\n      pop\n      jump\t// out\n        /* \"ERC4626.sol\":1583:2127  function deposit(uint256 assets, address receiver)... */\n    tag_104:\n        /* \"ERC4626.sol\":1682:1696  uint256 shares */\n      0x00\n        /* \"ERC4626.sol\":1832:1833  0 */\n      dup1\n        /* \"ERC4626.sol\":1805:1827  previewDeposit(assets) */\n      tag_226\n        /* \"ERC4626.sol\":1820:1826  assets */\n      dup5\n        /* \"ERC4626.sol\":1805:1819  previewDeposit */\n      tag_176\n        /* \"ERC4626.sol\":1805:1827  previewDeposit(assets) */\n      jump\t// in\n    tag_226:\n        /* \"ERC4626.sol\":1796:1827  shares = previewDeposit(assets) */\n      swap2\n      pop\n      dup2\n        /* \"ERC4626.sol\":1795:1833  (shares = previewDeposit(assets)) != 0 */\n      eq\n      iszero\n        /* \"ERC4626.sol\":1787:1849  require((shares = previewDeposit(assets)) != 0, \"ZERO_SHARES\") */\n      tag_227\n      jumpi\n      mload(0x40)\n      0x08c379a000000000000000000000000000000000000000000000000000000000\n      dup2\n      mstore\n      0x04\n      add\n      tag_228\n      swap1\n      tag_229\n      jump\t// in\n    tag_228:\n      mload(0x40)\n      dup1\n      swap2\n      sub\n      swap1\n      revert\n    tag_227:\n        /* \"ERC4626.sol\":1929:1986  asset.safeTransferFrom(msg.sender, address(this), assets) */\n      tag_230\n        /* \"ERC4626.sol\":1952:1962  msg.sender */\n      caller\n        /* \"ERC4626.sol\":1972:1976  this */\n      address\n        /* \"ERC4626.sol\":1979:1985  assets */\n      dup6\n        /* \"ERC4626.sol\":1929:1934  asset */\n      immutable(\"0xecac27c21aa9a89d7be9ad03c2d91e82cbd466284ecdf2bd5bad7f953539cc45\")\n        /* \"ERC4626.sol\":1929:1951  asset.safeTransferFrom */\n      0xffffffffffffffffffffffffffffffffffffffff\n      and\n      tag_231\n      swap1\n        /* \"ERC4626.sol\":1929:1986  asset.safeTransferFrom(msg.sender, address(this), assets) */\n      swap4\n      swap3\n      swap2\n      swap1\n      0xffffffff\n      and\n      jump\t// in\n    tag_230:\n        /* \"ERC4626.sol\":1997:2020  _mint(receiver, shares) */\n      tag_232\n        /* \"ERC4626.sol\":2003:2011  receiver */\n      dup3\n        /* \"ERC4626.sol\":2013:2019  shares */\n      dup3\n        /* \"ERC4626.sol\":1997:2002  _mint */\n      tag_233\n        /* \"ERC4626.sol\":1997:2020  _mint(receiver, shares) */\n      jump\t// in\n    tag_232:\n        /* \"ERC4626.sol\":2056:2064  receiver */\n      dup2\n        /* \"ERC4626.sol\":2036:2081  Deposit(msg.sender, receiver, assets, shares) */\n      0xffffffffffffffffffffffffffffffffffffffff\n      and\n        /* \"ERC4626.sol\":2044:2054  msg.sender */\n      caller\n        /* \"ERC4626.sol\":2036:2081  Deposit(msg.sender, receiver, assets, shares) */\n      0xffffffffffffffffffffffffffffffffffffffff\n      and\n      0xdcbc1c05240f31ff3ad067ef1ee35ce4997762752e3a095284754544f4c709d7\n        /* \"ERC4626.sol\":2066:2072  assets */\n      dup6\n        /* \"ERC4626.sol\":2074:2080  shares */\n      dup5\n        /* \"ERC4626.sol\":2036:2081  Deposit(msg.sender, receiver, assets, shares) */\n      mload(0x40)\n      tag_234\n      swap3\n      swap2\n      swap1\n      tag_235\n      jump\t// in\n    tag_234:\n      mload(0x40)\n      dup1\n      swap2\n      sub\n      swap1\n      log3\n        /* \"ERC4626.sol\":2092:2120  afterDeposit(assets, shares) */\n      tag_236\n        /* \"ERC4626.sol\":2105:2111  assets */\n      dup4\n        /* \"ERC4626.sol\":2113:2119  shares */\n      dup3\n        /* \"ERC4626.sol\":2092:2104  afterDeposit */\n      tag_237\n        /* \"ERC4626.sol\":2092:2120  afterDeposit(assets, shares) */\n      jump\t// in\n    tag_236:\n        /* \"ERC4626.sol\":1583:2127  function deposit(uint256 assets, address receiver)... */\n      swap3\n      swap2\n      pop\n      pop\n      jump\t// out\n        /* \"ERC20.sol\":1367:1411  mapping(address => uint256) public balanceOf */\n    tag_108:\n      mstore(0x20, 0x03)\n      dup1\n      0x00\n      mstore\n      keccak256(0x00, 0x40)\n      0x00\n      swap2\n      pop\n      swap1\n      pop\n      sload\n      dup2\n      jump\t// out\n        /* \"SquiddyCore.sol\":2792:2943  function renounceOwnership() public virtual onlyManager {... */\n    tag_111:\n        /* \"SquiddyCore.sol\":1252:1262  msg.sender */\n      caller\n        /* \"SquiddyCore.sol\":1239:1262  manager() == msg.sender */\n      0xffffffffffffffffffffffffffffffffffffffff\n      and\n        /* \"SquiddyCore.sol\":1239:1248  manager() */\n      tag_239\n        /* \"SquiddyCore.sol\":1239:1246  manager */\n      tag_94\n        /* \"SquiddyCore.sol\":1239:1248  manager() */\n      jump\t// in\n    tag_239:\n        /* \"SquiddyCore.sol\":1239:1262  manager() == msg.sender */\n      0xffffffffffffffffffffffffffffffffffffffff\n      and\n      eq\n        /* \"SquiddyCore.sol\":1231:1301  require(manager() == msg.sender, \"Ownable: caller is not the manager\") */\n      tag_240\n      jumpi\n      mload(0x40)\n      0x08c379a000000000000000000000000000000000000000000000000000000000\n      dup2\n      mstore\n      0x04\n      add\n      tag_241\n      swap1\n      tag_242\n      jump\t// in\n    tag_241:\n      mload(0x40)\n      dup1\n      swap2\n      sub\n      swap1\n      revert\n    tag_240:\n        /* \"SquiddyCore.sol\":2902:2903  0 */\n      0x00\n        /* \"SquiddyCore.sol\":2863:2905  OwnershipTransferred(_manager, address(0)) */\n      0xffffffffffffffffffffffffffffffffffffffff\n      and\n        /* \"SquiddyCore.sol\":2884:2892  _manager */\n      0x06\n      0x00\n      swap1\n      sload\n      swap1\n      0x0100\n      exp\n      swap1\n      div\n      0xffffffffffffffffffffffffffffffffffffffff\n      and\n        /* \"SquiddyCore.sol\":2863:2905  OwnershipTransferred(_manager, address(0)) */\n      0xffffffffffffffffffffffffffffffffffffffff\n      and\n      0x8be0079c531659141344cd1fd0a4f28419497f9722a3daafe3b4186f6b6457e0\n      mload(0x40)\n      mload(0x40)\n      dup1\n      swap2\n      sub\n      swap1\n      log3\n        /* \"SquiddyCore.sol\":2934:2935  0 */\n      0x00\n        /* \"SquiddyCore.sol\":2915:2923  _manager */\n      0x06\n      0x00\n        /* \"SquiddyCore.sol\":2915:2936  _manager = address(0) */\n      0x0100\n      exp\n      dup2\n      sload\n      dup2\n      0xffffffffffffffffffffffffffffffffffffffff\n      mul\n      not\n      and\n      swap1\n      dup4\n      0xffffffffffffffffffffffffffffffffffffffff\n      and\n      mul\n      or\n      swap1\n      sstore\n      pop\n        /* \"SquiddyCore.sol\":2792:2943  function renounceOwnership() public virtual onlyManager {... */\n      jump\t// out\n        /* \"SquiddyCore.sol\":4034:4357  function setFeePercent(uint256 newFeePercent) external onlyManager {... */\n    tag_114:\n        /* \"SquiddyCore.sol\":1252:1262  msg.sender */\n      caller\n        /* \"SquiddyCore.sol\":1239:1262  manager() == msg.sender */\n      0xffffffffffffffffffffffffffffffffffffffff\n      and\n        /* \"SquiddyCore.sol\":1239:1248  manager() */\n      tag_245\n        /* \"SquiddyCore.sol\":1239:1246  manager */\n      tag_94\n        /* \"SquiddyCore.sol\":1239:1248  manager() */\n      jump\t// in\n    tag_245:\n        /* \"SquiddyCore.sol\":1239:1262  manager() == msg.sender */\n      0xffffffffffffffffffffffffffffffffffffffff\n      and\n      eq\n        /* \"SquiddyCore.sol\":1231:1301  require(manager() == msg.sender, \"Ownable: caller is not the manager\") */\n      tag_246\n      jumpi\n      mload(0x40)\n      0x08c379a000000000000000000000000000000000000000000000000000000000\n      dup2\n      mstore\n      0x04\n      add\n      tag_247\n      swap1\n      tag_242\n      jump\t// in\n    tag_247:\n      mload(0x40)\n      dup1\n      swap2\n      sub\n      swap1\n      revert\n    tag_246:\n        /* \"SquiddyCore.sol\":4194:4198  1e18 */\n      0x0de0b6b3a7640000\n        /* \"SquiddyCore.sol\":4177:4190  newFeePercent */\n      dup2\n        /* \"SquiddyCore.sol\":4177:4198  newFeePercent <= 1e18 */\n      gt\n      iszero\n        /* \"SquiddyCore.sol\":4169:4215  require(newFeePercent <= 1e18, \"FEE_TOO_HIGH\") */\n      tag_249\n      jumpi\n      mload(0x40)\n      0x08c379a000000000000000000000000000000000000000000000000000000000\n      dup2\n      mstore\n      0x04\n      add\n      tag_250\n      swap1\n      tag_251\n      jump\t// in\n    tag_250:\n      mload(0x40)\n      dup1\n      swap2\n      sub\n      swap1\n      revert\n    tag_249:\n        /* \"SquiddyCore.sol\":4277:4290  newFeePercent */\n      dup1\n        /* \"SquiddyCore.sol\":4264:4274  feePercent */\n      0x09\n        /* \"SquiddyCore.sol\":4264:4290  feePercent = newFeePercent */\n      dup2\n      swap1\n      sstore\n      pop\n        /* \"SquiddyCore.sol\":4324:4334  msg.sender */\n      caller\n        /* \"SquiddyCore.sol\":4306:4350  FeePercentUpdated(msg.sender, newFeePercent) */\n      0xffffffffffffffffffffffffffffffffffffffff\n      and\n      0xec370615cc81fb334e5566fbc80664d9082377bf59288d64a79f3fbecf4323a9\n        /* \"SquiddyCore.sol\":4336:4349  newFeePercent */\n      dup3\n        /* \"SquiddyCore.sol\":4306:4350  FeePercentUpdated(msg.sender, newFeePercent) */\n      mload(0x40)\n      tag_252\n      swap2\n      swap1\n      tag_48\n      jump\t// in\n    tag_252:\n      mload(0x40)\n      dup1\n      swap2\n      sub\n      swap1\n      log2\n        /* \"SquiddyCore.sol\":4034:4357  function setFeePercent(uint256 newFeePercent) external onlyManager {... */\n      pop\n      jump\t// out\n        /* \"ERC20.sol\":1781:1822  mapping(address => uint256) public nonces */\n    tag_117:\n      mstore(0x20, 0x05)\n      dup1\n      0x00\n      mstore\n      keccak256(0x00, 0x40)\n      0x00\n      swap2\n      pop\n      swap1\n      pop\n      sload\n      dup2\n      jump\t// out\n        /* \"SquiddyCore.sol\":3652:3677  uint256 public feePercent */\n    tag_120:\n      sload(0x09)\n      dup2\n      jump\t// out\n        /* \"ERC4626.sol\":2133:2628  function mint(uint256 shares, address receiver)... */\n    tag_124:\n        /* \"ERC4626.sol\":2229:2243  uint256 assets */\n      0x00\n        /* \"ERC4626.sol\":2268:2287  previewMint(shares) */\n      tag_254\n        /* \"ERC4626.sol\":2280:2286  shares */\n      dup4\n        /* \"ERC4626.sol\":2268:2279  previewMint */\n      tag_135\n        /* \"ERC4626.sol\":2268:2287  previewMint(shares) */\n      jump\t// in\n    tag_254:\n        /* \"ERC4626.sol\":2259:2287  assets = previewMint(shares) */\n      swap1\n      pop\n        /* \"ERC4626.sol\":2430:2487  asset.safeTransferFrom(msg.sender, address(this), assets) */\n      tag_255\n        /* \"ERC4626.sol\":2453:2463  msg.sender */\n      caller\n        /* \"ERC4626.sol\":2473:2477  this */\n      address\n        /* \"ERC4626.sol\":2480:2486  assets */\n      dup4\n        /* \"ERC4626.sol\":2430:2435  asset */\n      immutable(\"0xecac27c21aa9a89d7be9ad03c2d91e82cbd466284ecdf2bd5bad7f953539cc45\")\n        /* \"ERC4626.sol\":2430:2452  asset.safeTransferFrom */\n      0xffffffffffffffffffffffffffffffffffffffff\n      and\n      tag_231\n      swap1\n        /* \"ERC4626.sol\":2430:2487  asset.safeTransferFrom(msg.sender, address(this), assets) */\n      swap4\n      swap3\n      swap2\n      swap1\n      0xffffffff\n      and\n      jump\t// in\n    tag_255:\n        /* \"ERC4626.sol\":2498:2521  _mint(receiver, shares) */\n      tag_256\n        /* \"ERC4626.sol\":2504:2512  receiver */\n      dup3\n        /* \"ERC4626.sol\":2514:2520  shares */\n      dup5\n        /* \"ERC4626.sol\":2498:2503  _mint */\n      tag_233\n        /* \"ERC4626.sol\":2498:2521  _mint(receiver, shares) */\n      jump\t// in\n    tag_256:\n        /* \"ERC4626.sol\":2557:2565  receiver */\n      dup2\n        /* \"ERC4626.sol\":2537:2582  Deposit(msg.sender, receiver, assets, shares) */\n      0xffffffffffffffffffffffffffffffffffffffff\n      and\n        /* \"ERC4626.sol\":2545:2555  msg.sender */\n      caller\n        /* \"ERC4626.sol\":2537:2582  Deposit(msg.sender, receiver, assets, shares) */\n      0xffffffffffffffffffffffffffffffffffffffff\n      and\n      0xdcbc1c05240f31ff3ad067ef1ee35ce4997762752e3a095284754544f4c709d7\n        /* \"ERC4626.sol\":2567:2573  assets */\n      dup4\n        /* \"ERC4626.sol\":2575:2581  shares */\n      dup7\n        /* \"ERC4626.sol\":2537:2582  Deposit(msg.sender, receiver, assets, shares) */\n      mload(0x40)\n      tag_257\n      swap3\n      swap2\n      swap1\n      tag_235\n      jump\t// in\n    tag_257:\n      mload(0x40)\n      dup1\n      swap2\n      sub\n      swap1\n      log3\n        /* \"ERC4626.sol\":2593:2621  afterDeposit(assets, shares) */\n      tag_258\n        /* \"ERC4626.sol\":2606:2612  assets */\n      dup2\n        /* \"ERC4626.sol\":2614:2620  shares */\n      dup5\n        /* \"ERC4626.sol\":2593:2605  afterDeposit */\n      tag_237\n        /* \"ERC4626.sol\":2593:2621  afterDeposit(assets, shares) */\n      jump\t// in\n    tag_258:\n        /* \"ERC4626.sol\":2133:2628  function mint(uint256 shares, address receiver)... */\n      swap3\n      swap2\n      pop\n      pop\n      jump\t// out\n        /* \"ERC20.sol\":1086:1106  string public symbol */\n    tag_127:\n      0x01\n      dup1\n      sload\n      tag_259\n      swap1\n      tag_191\n      jump\t// in\n    tag_259:\n      dup1\n      0x1f\n      add\n      0x20\n      dup1\n      swap2\n      div\n      mul\n      0x20\n      add\n      mload(0x40)\n      swap1\n      dup2\n      add\n      0x40\n      mstore\n      dup1\n      swap3\n      swap2\n      swap1\n      dup2\n      dup2\n      mstore\n      0x20\n      add\n      dup3\n      dup1\n      sload\n      tag_260\n      swap1\n      tag_191\n      jump\t// in\n    tag_260:\n      dup1\n      iszero\n      tag_261\n      jumpi\n      dup1\n      0x1f\n      lt\n      tag_262\n      jumpi\n      0x0100\n      dup1\n      dup4\n      sload\n      div\n      mul\n      dup4\n      mstore\n      swap2\n      0x20\n      add\n      swap2\n      jump(tag_261)\n    tag_262:\n      dup3\n      add\n      swap2\n      swap1\n      0x00\n      mstore\n      keccak256(0x00, 0x20)\n      swap1\n    tag_263:\n      dup2\n      sload\n      dup2\n      mstore\n      swap1\n      0x01\n      add\n      swap1\n      0x20\n      add\n      dup1\n      dup4\n      gt\n      tag_263\n      jumpi\n      dup3\n      swap1\n      sub\n      0x1f\n      and\n      dup3\n      add\n      swap2\n    tag_261:\n      pop\n      pop\n      pop\n      pop\n      pop\n      dup2\n      jump\t// out\n        /* \"ERC20.sol\":2736:3137  function transfer(address to, uint256 amount)... */\n    tag_131:\n        /* \"ERC20.sol\":2830:2834  bool */\n      0x00\n        /* \"ERC20.sol\":2875:2881  amount */\n      dup2\n        /* \"ERC20.sol\":2850:2859  balanceOf */\n      0x03\n        /* \"ERC20.sol\":2850:2871  balanceOf[msg.sender] */\n      0x00\n        /* \"ERC20.sol\":2860:2870  msg.sender */\n      caller\n        /* \"ERC20.sol\":2850:2871  balanceOf[msg.sender] */\n      0xffffffffffffffffffffffffffffffffffffffff\n      and\n      0xffffffffffffffffffffffffffffffffffffffff\n      and\n      dup2\n      mstore\n      0x20\n      add\n      swap1\n      dup2\n      mstore\n      0x20\n      add\n      0x00\n      keccak256\n      0x00\n        /* \"ERC20.sol\":2850:2881  balanceOf[msg.sender] -= amount */\n      dup3\n      dup3\n      sload\n      tag_265\n      swap2\n      swap1\n      tag_213\n      jump\t// in\n    tag_265:\n      swap3\n      pop\n      pop\n      dup2\n      swap1\n      sstore\n      pop\n        /* \"ERC20.sol\":3044:3050  amount */\n      dup2\n        /* \"ERC20.sol\":3027:3036  balanceOf */\n      0x03\n        /* \"ERC20.sol\":3027:3040  balanceOf[to] */\n      0x00\n        /* \"ERC20.sol\":3037:3039  to */\n      dup6\n        /* \"ERC20.sol\":3027:3040  balanceOf[to] */\n      0xffffffffffffffffffffffffffffffffffffffff\n      and\n      0xffffffffffffffffffffffffffffffffffffffff\n      and\n      dup2\n      mstore\n      0x20\n      add\n      swap1\n      dup2\n      mstore\n      0x20\n      add\n      0x00\n      keccak256\n      0x00\n        /* \"ERC20.sol\":3027:3050  balanceOf[to] += amount */\n      dup3\n      dup3\n      sload\n      add\n      swap3\n      pop\n      pop\n      dup2\n      swap1\n      sstore\n      pop\n        /* \"ERC20.sol\":3097:3099  to */\n      dup3\n        /* \"ERC20.sol\":3076:3108  Transfer(msg.sender, to, amount) */\n      0xffffffffffffffffffffffffffffffffffffffff\n      and\n        /* \"ERC20.sol\":3085:3095  msg.sender */\n      caller\n        /* \"ERC20.sol\":3076:3108  Transfer(msg.sender, to, amount) */\n      0xffffffffffffffffffffffffffffffffffffffff\n      and\n      0xddf252ad1be2c89b69c2b068fc378daa952ba7f163c4a11628f55a4df523b3ef\n        /* \"ERC20.sol\":3101:3107  amount */\n      dup5\n        /* \"ERC20.sol\":3076:3108  Transfer(msg.sender, to, amount) */\n      mload(0x40)\n      tag_266\n      swap2\n      swap1\n      tag_48\n      jump\t// in\n    tag_266:\n      mload(0x40)\n      dup1\n      swap2\n      sub\n      swap1\n      log3\n        /* \"ERC20.sol\":3126:3130  true */\n      0x01\n        /* \"ERC20.sol\":3119:3130  return true */\n      swap1\n      pop\n        /* \"ERC20.sol\":2736:3137  function transfer(address to, uint256 amount)... */\n      swap3\n      swap2\n      pop\n      pop\n      jump\t// out\n        /* \"ERC4626.sol\":5086:5337  function previewMint(uint256 shares) public view virtual returns (uint256) {... */\n    tag_135:\n        /* \"ERC4626.sol\":5152:5159  uint256 */\n      0x00\n        /* \"ERC4626.sol\":5171:5185  uint256 supply */\n      dup1\n        /* \"ERC4626.sol\":5188:5199  totalSupply */\n      sload(0x02)\n        /* \"ERC4626.sol\":5171:5199  uint256 supply = totalSupply */\n      swap1\n      pop\n        /* \"ERC4626.sol\":5279:5280  0 */\n      0x00\n        /* \"ERC4626.sol\":5269:5275  supply */\n      dup2\n        /* \"ERC4626.sol\":5269:5280  supply == 0 */\n      eq\n        /* \"ERC4626.sol\":5269:5330  supply == 0 ? shares : shares.mulDivUp(totalAssets(), supply) */\n      tag_268\n      jumpi\n        /* \"ERC4626.sol\":5292:5330  shares.mulDivUp(totalAssets(), supply) */\n      tag_269\n        /* \"ERC4626.sol\":5308:5321  totalAssets() */\n      tag_270\n        /* \"ERC4626.sol\":5308:5319  totalAssets */\n      tag_46\n        /* \"ERC4626.sol\":5308:5321  totalAssets() */\n      jump\t// in\n    tag_270:\n        /* \"ERC4626.sol\":5323:5329  supply */\n      dup3\n        /* \"ERC4626.sol\":5292:5298  shares */\n      dup6\n        /* \"ERC4626.sol\":5292:5307  shares.mulDivUp */\n      tag_208\n      swap1\n        /* \"ERC4626.sol\":5292:5330  shares.mulDivUp(totalAssets(), supply) */\n      swap3\n      swap2\n      swap1\n      0xffffffff\n      and\n      jump\t// in\n    tag_269:\n        /* \"ERC4626.sol\":5269:5330  supply == 0 ? shares : shares.mulDivUp(totalAssets(), supply) */\n      jump(tag_271)\n    tag_268:\n        /* \"ERC4626.sol\":5283:5289  shares */\n      dup3\n        /* \"ERC4626.sol\":5269:5330  supply == 0 ? shares : shares.mulDivUp(totalAssets(), supply) */\n    tag_271:\n        /* \"ERC4626.sol\":5262:5330  return supply == 0 ? shares : shares.mulDivUp(totalAssets(), supply) */\n      swap2\n      pop\n      pop\n        /* \"ERC4626.sol\":5086:5337  function previewMint(uint256 shares) public view virtual returns (uint256) {... */\n      swap2\n      swap1\n      pop\n      jump\t// out\n        /* \"ERC4626.sol\":2634:3329  function withdraw(... */\n    tag_140:\n        /* \"ERC4626.sol\":2755:2769  uint256 shares */\n      0x00\n        /* \"ERC4626.sol\":2790:2813  previewWithdraw(assets) */\n      tag_273\n        /* \"ERC4626.sol\":2806:2812  assets */\n      dup5\n        /* \"ERC4626.sol\":2790:2805  previewWithdraw */\n      tag_66\n        /* \"ERC4626.sol\":2790:2813  previewWithdraw(assets) */\n      jump\t// in\n    tag_273:\n        /* \"ERC4626.sol\":2781:2813  shares = previewWithdraw(assets) */\n      swap1\n      pop\n        /* \"ERC4626.sol\":2909:2914  owner */\n      dup2\n        /* \"ERC4626.sol\":2895:2914  msg.sender != owner */\n      0xffffffffffffffffffffffffffffffffffffffff\n      and\n        /* \"ERC4626.sol\":2895:2905  msg.sender */\n      caller\n        /* \"ERC4626.sol\":2895:2914  msg.sender != owner */\n      0xffffffffffffffffffffffffffffffffffffffff\n      and\n      eq\n        /* \"ERC4626.sol\":2891:3135  if (msg.sender != owner) {... */\n      tag_274\n      jumpi\n        /* \"ERC4626.sol\":2930:2945  uint256 allowed */\n      0x00\n        /* \"ERC4626.sol\":2948:2957  allowance */\n      0x04\n        /* \"ERC4626.sol\":2948:2964  allowance[owner] */\n      0x00\n        /* \"ERC4626.sol\":2958:2963  owner */\n      dup5\n        /* \"ERC4626.sol\":2948:2964  allowance[owner] */\n      0xffffffffffffffffffffffffffffffffffffffff\n      and\n      0xffffffffffffffffffffffffffffffffffffffff\n      and\n      dup2\n      mstore\n      0x20\n      add\n      swap1\n      dup2\n      mstore\n      0x20\n      add\n      0x00\n      keccak256\n        /* \"ERC4626.sol\":2948:2976  allowance[owner][msg.sender] */\n      0x00\n        /* \"ERC4626.sol\":2965:2975  msg.sender */\n      caller\n        /* \"ERC4626.sol\":2948:2976  allowance[owner][msg.sender] */\n      0xffffffffffffffffffffffffffffffffffffffff\n      and\n      0xffffffffffffffffffffffffffffffffffffffff\n      and\n      dup2\n      mstore\n      0x20\n      add\n      swap1\n      dup2\n      mstore\n      0x20\n      add\n      0x00\n      keccak256\n      sload\n        /* \"ERC4626.sol\":2930:2976  uint256 allowed = allowance[owner][msg.sender] */\n      swap1\n      pop\n        /* \"ERC4626.sol\":3042:3059  type(uint256).max */\n      0xffffffffffffffffffffffffffffffffffffffffffffffffffffffffffffffff\n        /* \"ERC4626.sol\":3031:3038  allowed */\n      dup2\n        /* \"ERC4626.sol\":3031:3059  allowed != type(uint256).max */\n      eq\n        /* \"ERC4626.sol\":3027:3124  if (allowed != type(uint256).max)... */\n      tag_275\n      jumpi\n        /* \"ERC4626.sol\":3118:3124  shares */\n      dup2\n        /* \"ERC4626.sol\":3108:3115  allowed */\n      dup2\n        /* \"ERC4626.sol\":3108:3124  allowed - shares */\n      tag_276\n      swap2\n      swap1\n      tag_213\n      jump\t// in\n    tag_276:\n        /* \"ERC4626.sol\":3077:3086  allowance */\n      0x04\n        /* \"ERC4626.sol\":3077:3093  allowance[owner] */\n      0x00\n        /* \"ERC4626.sol\":3087:3092  owner */\n      dup6\n        /* \"ERC4626.sol\":3077:3093  allowance[owner] */\n      0xffffffffffffffffffffffffffffffffffffffff\n      and\n      0xffffffffffffffffffffffffffffffffffffffff\n      and\n      dup2\n      mstore\n      0x20\n      add\n      swap1\n      dup2\n      mstore\n      0x20\n      add\n      0x00\n      keccak256\n        /* \"ERC4626.sol\":3077:3105  allowance[owner][msg.sender] */\n      0x00\n        /* \"ERC4626.sol\":3094:3104  msg.sender */\n      caller\n        /* \"ERC4626.sol\":3077:3105  allowance[owner][msg.sender] */\n      0xffffffffffffffffffffffffffffffffffffffff\n      and\n      0xffffffffffffffffffffffffffffffffffffffff\n      and\n      dup2\n      mstore\n      0x20\n      add\n      swap1\n      dup2\n      mstore\n      0x20\n      add\n      0x00\n      keccak256\n        /* \"ERC4626.sol\":3077:3124  allowance[owner][msg.sender] = allowed - shares */\n      dup2\n      swap1\n      sstore\n      pop\n        /* \"ERC4626.sol\":3027:3124  if (allowed != type(uint256).max)... */\n    tag_275:\n        /* \"ERC4626.sol\":2916:3135  {... */\n      pop\n        /* \"ERC4626.sol\":2891:3135  if (msg.sender != owner) {... */\n    tag_274:\n        /* \"ERC4626.sol\":3145:3175  beforeWithdraw(assets, shares) */\n      tag_277\n        /* \"ERC4626.sol\":3160:3166  assets */\n      dup5\n        /* \"ERC4626.sol\":3168:3174  shares */\n      dup3\n        /* \"ERC4626.sol\":3145:3159  beforeWithdraw */\n      tag_278\n        /* \"ERC4626.sol\":3145:3175  beforeWithdraw(assets, shares) */\n      jump\t// in\n    tag_277:\n        /* \"ERC4626.sol\":3186:3206  _burn(owner, shares) */\n      tag_279\n        /* \"ERC4626.sol\":3192:3197  owner */\n      dup3\n        /* \"ERC4626.sol\":3199:3205  shares */\n      dup3\n        /* \"ERC4626.sol\":3186:3191  _burn */\n      tag_280\n        /* \"ERC4626.sol\":3186:3206  _burn(owner, shares) */\n      jump\t// in\n    tag_279:\n        /* \"ERC4626.sol\":3253:3258  owner */\n      dup2\n        /* \"ERC4626.sol\":3222:3275  Withdraw(msg.sender, receiver, owner, assets, shares) */\n      0xffffffffffffffffffffffffffffffffffffffff\n      and\n        /* \"ERC4626.sol\":3243:3251  receiver */\n      dup4\n        /* \"ERC4626.sol\":3222:3275  Withdraw(msg.sender, receiver, owner, assets, shares) */\n      0xffffffffffffffffffffffffffffffffffffffff\n      and\n        /* \"ERC4626.sol\":3231:3241  msg.sender */\n      caller\n        /* \"ERC4626.sol\":3222:3275  Withdraw(msg.sender, receiver, owner, assets, shares) */\n      0xffffffffffffffffffffffffffffffffffffffff\n      and\n      0xfbde797d201c681b91056529119e0b02407c7bb96a4a2c75c01fc9667232c8db\n        /* \"ERC4626.sol\":3260:3266  assets */\n      dup8\n        /* \"ERC4626.sol\":3268:3274  shares */\n      dup6\n        /* \"ERC4626.sol\":3222:3275  Withdraw(msg.sender, receiver, owner, assets, shares) */\n      mload(0x40)\n      tag_281\n      swap3\n      swap2\n      swap1\n      tag_235\n      jump\t// in\n    tag_281:\n      mload(0x40)\n      dup1\n      swap2\n      sub\n      swap1\n      log4\n        /* \"ERC4626.sol\":3286:3322  asset.safeTransfer(receiver, assets) */\n      tag_282\n        /* \"ERC4626.sol\":3305:3313  receiver */\n      dup4\n        /* \"ERC4626.sol\":3315:3321  assets */\n      dup6\n        /* \"ERC4626.sol\":3286:3291  asset */\n      immutable(\"0xecac27c21aa9a89d7be9ad03c2d91e82cbd466284ecdf2bd5bad7f953539cc45\")\n        /* \"ERC4626.sol\":3286:3304  asset.safeTransfer */\n      0xffffffffffffffffffffffffffffffffffffffff\n      and\n      tag_283\n      swap1\n        /* \"ERC4626.sol\":3286:3322  asset.safeTransfer(receiver, assets) */\n      swap3\n      swap2\n      swap1\n      0xffffffff\n      and\n      jump\t// in\n    tag_282:\n        /* \"ERC4626.sol\":2634:3329  function withdraw(... */\n      swap4\n      swap3\n      pop\n      pop\n      pop\n      jump\t// out\n        /* \"ERC4626.sol\":3335:4064  function redeem(... */\n    tag_144:\n        /* \"ERC4626.sol\":3454:3468  uint256 assets */\n      0x00\n        /* \"ERC4626.sol\":3498:3503  owner */\n      dup2\n        /* \"ERC4626.sol\":3484:3503  msg.sender != owner */\n      0xffffffffffffffffffffffffffffffffffffffff\n      and\n        /* \"ERC4626.sol\":3484:3494  msg.sender */\n      caller\n        /* \"ERC4626.sol\":3484:3503  msg.sender != owner */\n      0xffffffffffffffffffffffffffffffffffffffff\n      and\n      eq\n        /* \"ERC4626.sol\":3480:3724  if (msg.sender != owner) {... */\n      tag_285\n      jumpi\n        /* \"ERC4626.sol\":3519:3534  uint256 allowed */\n      0x00\n        /* \"ERC4626.sol\":3537:3546  allowance */\n      0x04\n        /* \"ERC4626.sol\":3537:3553  allowance[owner] */\n      0x00\n        /* \"ERC4626.sol\":3547:3552  owner */\n      dup5\n        /* \"ERC4626.sol\":3537:3553  allowance[owner] */\n      0xffffffffffffffffffffffffffffffffffffffff\n      and\n      0xffffffffffffffffffffffffffffffffffffffff\n      and\n      dup2\n      mstore\n      0x20\n      add\n      swap1\n      dup2\n      mstore\n      0x20\n      add\n      0x00\n      keccak256\n        /* \"ERC4626.sol\":3537:3565  allowance[owner][msg.sender] */\n      0x00\n        /* \"ERC4626.sol\":3554:3564  msg.sender */\n      caller\n        /* \"ERC4626.sol\":3537:3565  allowance[owner][msg.sender] */\n      0xffffffffffffffffffffffffffffffffffffffff\n      and\n      0xffffffffffffffffffffffffffffffffffffffff\n      and\n      dup2\n      mstore\n      0x20\n      add\n      swap1\n      dup2\n      mstore\n      0x20\n      add\n      0x00\n      keccak256\n      sload\n        /* \"ERC4626.sol\":3519:3565  uint256 allowed = allowance[owner][msg.sender] */\n      swap1\n      pop\n        /* \"ERC4626.sol\":3631:3648  type(uint256).max */\n      0xffffffffffffffffffffffffffffffffffffffffffffffffffffffffffffffff\n        /* \"ERC4626.sol\":3620:3627  allowed */\n      dup2\n        /* \"ERC4626.sol\":3620:3648  allowed != type(uint256).max */\n      eq\n        /* \"ERC4626.sol\":3616:3713  if (allowed != type(uint256).max)... */\n      tag_286\n      jumpi\n        /* \"ERC4626.sol\":3707:3713  shares */\n      dup5\n        /* \"ERC4626.sol\":3697:3704  allowed */\n      dup2\n        /* \"ERC4626.sol\":3697:3713  allowed - shares */\n      tag_287\n      swap2\n      swap1\n      tag_213\n      jump\t// in\n    tag_287:\n        /* \"ERC4626.sol\":3666:3675  allowance */\n      0x04\n        /* \"ERC4626.sol\":3666:3682  allowance[owner] */\n      0x00\n        /* \"ERC4626.sol\":3676:3681  owner */\n      dup6\n        /* \"ERC4626.sol\":3666:3682  allowance[owner] */\n      0xffffffffffffffffffffffffffffffffffffffff\n      and\n      0xffffffffffffffffffffffffffffffffffffffff\n      and\n      dup2\n      mstore\n      0x20\n      add\n      swap1\n      dup2\n      mstore\n      0x20\n      add\n      0x00\n      keccak256\n        /* \"ERC4626.sol\":3666:3694  allowance[owner][msg.sender] */\n      0x00\n        /* \"ERC4626.sol\":3683:3693  msg.sender */\n      caller\n        /* \"ERC4626.sol\":3666:3694  allowance[owner][msg.sender] */\n      0xffffffffffffffffffffffffffffffffffffffff\n      and\n      0xffffffffffffffffffffffffffffffffffffffff\n      and\n      dup2\n      mstore\n      0x20\n      add\n      swap1\n      dup2\n      mstore\n      0x20\n      add\n      0x00\n      keccak256\n        /* \"ERC4626.sol\":3666:3713  allowance[owner][msg.sender] = allowed - shares */\n      dup2\n      swap1\n      sstore\n      pop\n        /* \"ERC4626.sol\":3616:3713  if (allowed != type(uint256).max)... */\n    tag_286:\n        /* \"ERC4626.sol\":3505:3724  {... */\n      pop\n        /* \"ERC4626.sol\":3480:3724  if (msg.sender != owner) {... */\n    tag_285:\n        /* \"ERC4626.sol\":3852:3853  0 */\n      0x00\n        /* \"ERC4626.sol\":3826:3847  previewRedeem(shares) */\n      tag_288\n        /* \"ERC4626.sol\":3840:3846  shares */\n      dup6\n        /* \"ERC4626.sol\":3826:3839  previewRedeem */\n      tag_99\n        /* \"ERC4626.sol\":3826:3847  previewRedeem(shares) */\n      jump\t// in\n    tag_288:\n        /* \"ERC4626.sol\":3817:3847  assets = previewRedeem(shares) */\n      swap2\n      pop\n      dup2\n        /* \"ERC4626.sol\":3816:3853  (assets = previewRedeem(shares)) != 0 */\n      eq\n      iszero\n        /* \"ERC4626.sol\":3808:3869  require((assets = previewRedeem(shares)) != 0, \"ZERO_ASSETS\") */\n      tag_289\n      jumpi\n      mload(0x40)\n      0x08c379a000000000000000000000000000000000000000000000000000000000\n      dup2\n      mstore\n      0x04\n      add\n      tag_290\n      swap1\n      tag_291\n      jump\t// in\n    tag_290:\n      mload(0x40)\n      dup1\n      swap2\n      sub\n      swap1\n      revert\n    tag_289:\n        /* \"ERC4626.sol\":3880:3910  beforeWithdraw(assets, shares) */\n      tag_292\n        /* \"ERC4626.sol\":3895:3901  assets */\n      dup2\n        /* \"ERC4626.sol\":3903:3909  shares */\n      dup6\n        /* \"ERC4626.sol\":3880:3894  beforeWithdraw */\n      tag_278\n        /* \"ERC4626.sol\":3880:3910  beforeWithdraw(assets, shares) */\n      jump\t// in\n    tag_292:\n        /* \"ERC4626.sol\":3921:3941  _burn(owner, shares) */\n      tag_293\n        /* \"ERC4626.sol\":3927:3932  owner */\n      dup3\n        /* \"ERC4626.sol\":3934:3940  shares */\n      dup6\n        /* \"ERC4626.sol\":3921:3926  _burn */\n      tag_280\n        /* \"ERC4626.sol\":3921:3941  _burn(owner, shares) */\n      jump\t// in\n    tag_293:\n        /* \"ERC4626.sol\":3988:3993  owner */\n      dup2\n        /* \"ERC4626.sol\":3957:4010  Withdraw(msg.sender, receiver, owner, assets, shares) */\n      0xffffffffffffffffffffffffffffffffffffffff\n      and\n        /* \"ERC4626.sol\":3978:3986  receiver */\n      dup4\n        /* \"ERC4626.sol\":3957:4010  Withdraw(msg.sender, receiver, owner, assets, shares) */\n      0xffffffffffffffffffffffffffffffffffffffff\n      and\n        /* \"ERC4626.sol\":3966:3976  msg.sender */\n      caller\n        /* \"ERC4626.sol\":3957:4010  Withdraw(msg.sender, receiver, owner, assets, shares) */\n      0xffffffffffffffffffffffffffffffffffffffff\n      and\n      0xfbde797d201c681b91056529119e0b02407c7bb96a4a2c75c01fc9667232c8db\n        /* \"ERC4626.sol\":3995:4001  assets */\n      dup5\n        /* \"ERC4626.sol\":4003:4009  shares */\n      dup9\n        /* \"ERC4626.sol\":3957:4010  Withdraw(msg.sender, receiver, owner, assets, shares) */\n      mload(0x40)\n      tag_294\n      swap3\n      swap2\n      swap1\n      tag_235\n      jump\t// in\n    tag_294:\n      mload(0x40)\n      dup1\n      swap2\n      sub\n      swap1\n      log4\n        /* \"ERC4626.sol\":4021:4057  asset.safeTransfer(receiver, assets) */\n      tag_295\n        /* \"ERC4626.sol\":4040:4048  receiver */\n      dup4\n        /* \"ERC4626.sol\":4050:4056  assets */\n      dup3\n        /* \"ERC4626.sol\":4021:4026  asset */\n      immutable(\"0xecac27c21aa9a89d7be9ad03c2d91e82cbd466284ecdf2bd5bad7f953539cc45\")\n        /* \"ERC4626.sol\":4021:4039  asset.safeTransfer */\n      0xffffffffffffffffffffffffffffffffffffffff\n      and\n      tag_283\n      swap1\n        /* \"ERC4626.sol\":4021:4057  asset.safeTransfer(receiver, assets) */\n      swap3\n      swap2\n      swap1\n      0xffffffff\n      and\n      jump\t// in\n    tag_295:\n        /* \"ERC4626.sol\":3335:4064  function redeem(... */\n      swap4\n      swap3\n      pop\n      pop\n      pop\n      jump\t// out\n        /* \"SquiddyCore.sol\":212:262  uint256 public beforeWithdrawHookCalledCounter = 0 */\n    tag_147:\n      sload(0x07)\n      dup2\n      jump\t// out\n        /* \"ERC4626.sol\":6111:6216  function maxMint(address) public view virtual returns (uint256) {... */\n    tag_151:\n        /* \"ERC4626.sol\":6166:6173  uint256 */\n      0x00\n        /* \"ERC4626.sol\":6192:6209  type(uint256).max */\n      0xffffffffffffffffffffffffffffffffffffffffffffffffffffffffffffffff\n        /* \"ERC4626.sol\":6185:6209  return type(uint256).max */\n      swap1\n      pop\n        /* \"ERC4626.sol\":6111:6216  function maxMint(address) public view virtual returns (uint256) {... */\n      swap2\n      swap1\n      pop\n      jump\t// out\n        /* \"ERC4626.sol\":4321:4614  function convertToShares(uint256 assets)... */\n    tag_155:\n        /* \"ERC4626.sol\":4423:4430  uint256 */\n      0x00\n        /* \"ERC4626.sol\":4446:4460  uint256 supply */\n      dup1\n        /* \"ERC4626.sol\":4463:4474  totalSupply */\n      sload(0x02)\n        /* \"ERC4626.sol\":4446:4474  uint256 supply = totalSupply */\n      swap1\n      pop\n        /* \"ERC4626.sol\":4554:4555  0 */\n      0x00\n        /* \"ERC4626.sol\":4544:4550  supply */\n      dup2\n        /* \"ERC4626.sol\":4544:4555  supply == 0 */\n      eq\n        /* \"ERC4626.sol\":4544:4607  supply == 0 ? assets : assets.mulDivDown(supply, totalAssets()) */\n      tag_298\n      jumpi\n        /* \"ERC4626.sol\":4567:4607  assets.mulDivDown(supply, totalAssets()) */\n      tag_299\n        /* \"ERC4626.sol\":4585:4591  supply */\n      dup2\n        /* \"ERC4626.sol\":4593:4606  totalAssets() */\n      tag_300\n        /* \"ERC4626.sol\":4593:4604  totalAssets */\n      tag_46\n        /* \"ERC4626.sol\":4593:4606  totalAssets() */\n      jump\t// in\n    tag_300:\n        /* \"ERC4626.sol\":4567:4573  assets */\n      dup6\n        /* \"ERC4626.sol\":4567:4584  assets.mulDivDown */\n      tag_200\n      swap1\n        /* \"ERC4626.sol\":4567:4607  assets.mulDivDown(supply, totalAssets()) */\n      swap3\n      swap2\n      swap1\n      0xffffffff\n      and\n      jump\t// in\n    tag_299:\n        /* \"ERC4626.sol\":4544:4607  supply == 0 ? assets : assets.mulDivDown(supply, totalAssets()) */\n      jump(tag_301)\n    tag_298:\n        /* \"ERC4626.sol\":4558:4564  assets */\n      dup3\n        /* \"ERC4626.sol\":4544:4607  supply == 0 ? assets : assets.mulDivDown(supply, totalAssets()) */\n    tag_301:\n        /* \"ERC4626.sol\":4537:4607  return supply == 0 ? assets : assets.mulDivDown(supply, totalAssets()) */\n      swap2\n      pop\n      pop\n        /* \"ERC4626.sol\":4321:4614  function convertToShares(uint256 assets)... */\n      swap2\n      swap1\n      pop\n      jump\t// out\n        /* \"ERC4626.sol\":6222:6353  function maxWithdraw(address owner) public view virtual returns (uint256) {... */\n    tag_159:\n        /* \"ERC4626.sol\":6287:6294  uint256 */\n      0x00\n        /* \"ERC4626.sol\":6313:6346  convertToAssets(balanceOf[owner]) */\n      tag_303\n        /* \"ERC4626.sol\":6329:6338  balanceOf */\n      0x03\n        /* \"ERC4626.sol\":6329:6345  balanceOf[owner] */\n      0x00\n        /* \"ERC4626.sol\":6339:6344  owner */\n      dup5\n        /* \"ERC4626.sol\":6329:6345  balanceOf[owner] */\n      0xffffffffffffffffffffffffffffffffffffffff\n      and\n      0xffffffffffffffffffffffffffffffffffffffff\n      and\n      dup2\n      mstore\n      0x20\n      add\n      swap1\n      dup2\n      mstore\n      0x20\n      add\n      0x00\n      keccak256\n      sload\n        /* \"ERC4626.sol\":6313:6328  convertToAssets */\n      tag_56\n        /* \"ERC4626.sol\":6313:6346  convertToAssets(balanceOf[owner]) */\n      jump\t// in\n    tag_303:\n        /* \"ERC4626.sol\":6306:6346  return convertToAssets(balanceOf[owner]) */\n      swap1\n      pop\n        /* \"ERC4626.sol\":6222:6353  function maxWithdraw(address owner) public view virtual returns (uint256) {... */\n      swap2\n      swap1\n      pop\n      jump\t// out\n        /* \"ERC20.sol\":3936:5465  function permit(... */\n    tag_164:\n        /* \"ERC20.sol\":4155:4170  block.timestamp */\n      timestamp\n        /* \"ERC20.sol\":4143:4151  deadline */\n      dup5\n        /* \"ERC20.sol\":4143:4170  deadline >= block.timestamp */\n      lt\n      iszero\n        /* \"ERC20.sol\":4135:4198  require(deadline >= block.timestamp, \"PERMIT_DEADLINE_EXPIRED\") */\n      tag_305\n      jumpi\n      mload(0x40)\n      0x08c379a000000000000000000000000000000000000000000000000000000000\n      dup2\n      mstore\n      0x04\n      add\n      tag_306\n      swap1\n      tag_307\n      jump\t// in\n    tag_306:\n      mload(0x40)\n      dup1\n      swap2\n      sub\n      swap1\n      revert\n    tag_305:\n        /* \"ERC20.sol\":4363:4387  address recoveredAddress */\n      0x00\n        /* \"ERC20.sol\":4390:5195  ecrecover(... */\n      0x01\n        /* \"ERC20.sol\":4526:4544  DOMAIN_SEPARATOR() */\n      tag_308\n        /* \"ERC20.sol\":4526:4542  DOMAIN_SEPARATOR */\n      tag_81\n        /* \"ERC20.sol\":4526:4544  DOMAIN_SEPARATOR() */\n      jump\t// in\n    tag_308:\n        /* \"ERC20.sol\":4653:4818  keccak256(... */\n      0x6e71edae12b1b97f4d1f60370fef10105fa2faae0126114a169c64845d6126c9\n        /* \"ERC20.sol\":4852:4857  owner */\n      dup11\n        /* \"ERC20.sol\":4891:4898  spender */\n      dup11\n        /* \"ERC20.sol\":4932:4937  value */\n      dup11\n        /* \"ERC20.sol\":4971:4977  nonces */\n      0x05\n        /* \"ERC20.sol\":4971:4984  nonces[owner] */\n      0x00\n        /* \"ERC20.sol\":4978:4983  owner */\n      dup16\n        /* \"ERC20.sol\":4971:4984  nonces[owner] */\n      0xffffffffffffffffffffffffffffffffffffffff\n      and\n      0xffffffffffffffffffffffffffffffffffffffff\n      and\n      dup2\n      mstore\n      0x20\n      add\n      swap1\n      dup2\n      mstore\n      0x20\n      add\n      0x00\n      keccak256\n      0x00\n        /* \"ERC20.sol\":4971:4986  nonces[owner]++ */\n      dup2\n      sload\n      dup1\n      swap3\n      swap2\n      swap1\n      0x01\n      add\n      swap2\n      swap1\n      pop\n      sstore\n        /* \"ERC20.sol\":5020:5028  deadline */\n      dup12\n        /* \"ERC20.sol\":4609:5058  abi.encode(... */\n      add(0x20, mload(0x40))\n      tag_309\n      swap7\n      swap6\n      swap5\n      swap4\n      swap3\n      swap2\n      swap1\n      tag_310\n      jump\t// in\n    tag_309:\n      mload(0x40)\n      0x20\n      dup2\n      dup4\n      sub\n      sub\n      dup2\n      mstore\n      swap1\n      0x40\n      mstore\n        /* \"ERC20.sol\":4570:5084  keccak256(... */\n      dup1\n      mload\n      swap1\n      0x20\n      add\n      keccak256\n        /* \"ERC20.sol\":4448:5106  abi.encodePacked(... */\n      add(0x20, mload(0x40))\n      tag_311\n      swap3\n      swap2\n      swap1\n      tag_312\n      jump\t// in\n    tag_311:\n      mload(0x40)\n      0x20\n      dup2\n      dup4\n      sub\n      sub\n      dup2\n      mstore\n      swap1\n      0x40\n      mstore\n        /* \"ERC20.sol\":4417:5124  keccak256(... */\n      dup1\n      mload\n      swap1\n      0x20\n      add\n      keccak256\n        /* \"ERC20.sol\":5142:5143  v */\n      dup6\n        /* \"ERC20.sol\":5161:5162  r */\n      dup6\n        /* \"ERC20.sol\":5180:5181  s */\n      dup6\n        /* \"ERC20.sol\":4390:5195  ecrecover(... */\n      mload(0x40)\n      0x00\n      dup2\n      mstore\n      0x20\n      add\n      0x40\n      mstore\n      mload(0x40)\n      tag_313\n      swap5\n      swap4\n      swap3\n      swap2\n      swap1\n      tag_314\n      jump\t// in\n    tag_313:\n      0x20\n      mload(0x40)\n      0x20\n      dup2\n      sub\n      swap1\n      dup1\n      dup5\n      sub\n      swap1\n      dup6\n      gas\n      staticcall\n      iszero\n      dup1\n      iszero\n      tag_316\n      jumpi\n      returndatasize\n      0x00\n      dup1\n      returndatacopy\n      revert(0x00, returndatasize)\n    tag_316:\n      pop\n      pop\n      pop\n      mload(sub(mload(0x40), 0x20))\n        /* \"ERC20.sol\":4363:5195  address recoveredAddress = ecrecover(... */\n      swap1\n      pop\n        /* \"ERC20.sol\":5263:5264  0 */\n      0x00\n        /* \"ERC20.sol\":5235:5265  recoveredAddress != address(0) */\n      0xffffffffffffffffffffffffffffffffffffffff\n      and\n        /* \"ERC20.sol\":5235:5251  recoveredAddress */\n      dup2\n        /* \"ERC20.sol\":5235:5265  recoveredAddress != address(0) */\n      0xffffffffffffffffffffffffffffffffffffffff\n      and\n      eq\n      iszero\n        /* \"ERC20.sol\":5235:5294  recoveredAddress != address(0) && recoveredAddress == owner */\n      dup1\n      iszero\n      tag_317\n      jumpi\n      pop\n        /* \"ERC20.sol\":5289:5294  owner */\n      dup8\n        /* \"ERC20.sol\":5269:5294  recoveredAddress == owner */\n      0xffffffffffffffffffffffffffffffffffffffff\n      and\n        /* \"ERC20.sol\":5269:5285  recoveredAddress */\n      dup2\n        /* \"ERC20.sol\":5269:5294  recoveredAddress == owner */\n      0xffffffffffffffffffffffffffffffffffffffff\n      and\n      eq\n        /* \"ERC20.sol\":5235:5294  recoveredAddress != address(0) && recoveredAddress == owner */\n    tag_317:\n        /* \"ERC20.sol\":5210:5342  require(... */\n      tag_318\n      jumpi\n      mload(0x40)\n      0x08c379a000000000000000000000000000000000000000000000000000000000\n      dup2\n      mstore\n      0x04\n      add\n      tag_319\n      swap1\n      tag_320\n      jump\t// in\n    tag_319:\n      mload(0x40)\n      dup1\n      swap2\n      sub\n      swap1\n      revert\n    tag_318:\n        /* \"ERC20.sol\":5396:5401  value */\n      dup6\n        /* \"ERC20.sol\":5357:5366  allowance */\n      0x04\n        /* \"ERC20.sol\":5357:5384  allowance[recoveredAddress] */\n      0x00\n        /* \"ERC20.sol\":5367:5383  recoveredAddress */\n      dup4\n        /* \"ERC20.sol\":5357:5384  allowance[recoveredAddress] */\n      0xffffffffffffffffffffffffffffffffffffffff\n      and\n      0xffffffffffffffffffffffffffffffffffffffff\n      and\n      dup2\n      mstore\n      0x20\n      add\n      swap1\n      dup2\n      mstore\n      0x20\n      add\n      0x00\n      keccak256\n        /* \"ERC20.sol\":5357:5393  allowance[recoveredAddress][spender] */\n      0x00\n        /* \"ERC20.sol\":5385:5392  spender */\n      dup10\n        /* \"ERC20.sol\":5357:5393  allowance[recoveredAddress][spender] */\n      0xffffffffffffffffffffffffffffffffffffffff\n      and\n      0xffffffffffffffffffffffffffffffffffffffff\n      and\n      dup2\n      mstore\n      0x20\n      add\n      swap1\n      dup2\n      mstore\n      0x20\n      add\n      0x00\n      keccak256\n        /* \"ERC20.sol\":5357:5401  allowance[recoveredAddress][spender] = value */\n      dup2\n      swap1\n      sstore\n      pop\n        /* \"ERC20.sol\":4339:5412  unchecked {... */\n      pop\n        /* \"ERC20.sol\":5443:5450  spender */\n      dup6\n        /* \"ERC20.sol\":5427:5458  Approval(owner, spender, value) */\n      0xffffffffffffffffffffffffffffffffffffffff\n      and\n        /* \"ERC20.sol\":5436:5441  owner */\n      dup8\n        /* \"ERC20.sol\":5427:5458  Approval(owner, spender, value) */\n      0xffffffffffffffffffffffffffffffffffffffff\n      and\n      0x8c5be1e5ebec7d5bd14f71427d1e84f3dd0314c0f7b2291e5b200ac8c7c3b925\n        /* \"ERC20.sol\":5452:5457  value */\n      dup8\n        /* \"ERC20.sol\":5427:5458  Approval(owner, spender, value) */\n      mload(0x40)\n      tag_321\n      swap2\n      swap1\n      tag_48\n      jump\t// in\n    tag_321:\n      mload(0x40)\n      dup1\n      swap2\n      sub\n      swap1\n      log3\n        /* \"ERC20.sol\":3936:5465  function permit(... */\n      pop\n      pop\n      pop\n      pop\n      pop\n      pop\n      pop\n      jump\t// out\n        /* \"ERC4626.sol\":6359:6471  function maxRedeem(address owner) public view virtual returns (uint256) {... */\n    tag_167:\n        /* \"ERC4626.sol\":6422:6429  uint256 */\n      0x00\n        /* \"ERC4626.sol\":6448:6457  balanceOf */\n      0x03\n        /* \"ERC4626.sol\":6448:6464  balanceOf[owner] */\n      0x00\n        /* \"ERC4626.sol\":6458:6463  owner */\n      dup4\n        /* \"ERC4626.sol\":6448:6464  balanceOf[owner] */\n      0xffffffffffffffffffffffffffffffffffffffff\n      and\n      0xffffffffffffffffffffffffffffffffffffffff\n      and\n      dup2\n      mstore\n      0x20\n      add\n      swap1\n      dup2\n      mstore\n      0x20\n      add\n      0x00\n      keccak256\n      sload\n        /* \"ERC4626.sol\":6441:6464  return balanceOf[owner] */\n      swap1\n      pop\n        /* \"ERC4626.sol\":6359:6471  function maxRedeem(address owner) public view virtual returns (uint256) {... */\n      swap2\n      swap1\n      pop\n      jump\t// out\n        /* \"ERC20.sol\":1418:1482  mapping(address => mapping(address => uint256)) public allowance */\n    tag_172:\n      mstore(0x20, 0x04)\n      dup2\n      0x00\n      mstore\n      mstore(0x20, keccak256(0x00, 0x40))\n      dup1\n      0x00\n      mstore\n      keccak256(0x00, 0x40)\n      0x00\n      swap2\n      pop\n      swap2\n      pop\n      pop\n      sload\n      dup2\n      jump\t// out\n        /* \"ERC4626.sol\":4919:5080  function previewDeposit(uint256 assets)... */\n    tag_176:\n        /* \"ERC4626.sol\":5020:5027  uint256 */\n      0x00\n        /* \"ERC4626.sol\":5050:5073  convertToShares(assets) */\n      tag_324\n        /* \"ERC4626.sol\":5066:5072  assets */\n      dup3\n        /* \"ERC4626.sol\":5050:5065  convertToShares */\n      tag_155\n        /* \"ERC4626.sol\":5050:5073  convertToShares(assets) */\n      jump\t// in\n    tag_324:\n        /* \"ERC4626.sol\":5043:5073  return convertToShares(assets) */\n      swap1\n      pop\n        /* \"ERC4626.sol\":4919:5080  function previewDeposit(uint256 assets)... */\n      swap2\n      swap1\n      pop\n      jump\t// out\n        /* \"SquiddyCore.sol\":3094:3376  function transferOwnership(address newOwner) public virtual onlyManager {... */\n    tag_180:\n        /* \"SquiddyCore.sol\":1252:1262  msg.sender */\n      caller\n        /* \"SquiddyCore.sol\":1239:1262  manager() == msg.sender */\n      0xffffffffffffffffffffffffffffffffffffffff\n      and\n        /* \"SquiddyCore.sol\":1239:1248  manager() */\n      tag_326\n        /* \"SquiddyCore.sol\":1239:1246  manager */\n      tag_94\n        /* \"SquiddyCore.sol\":1239:1248  manager() */\n      jump\t// in\n    tag_326:\n        /* \"SquiddyCore.sol\":1239:1262  manager() == msg.sender */\n      0xffffffffffffffffffffffffffffffffffffffff\n      and\n      eq\n        /* \"SquiddyCore.sol\":1231:1301  require(manager() == msg.sender, \"Ownable: caller is not the manager\") */\n      tag_327\n      jumpi\n      mload(0x40)\n      0x08c379a000000000000000000000000000000000000000000000000000000000\n      dup2\n      mstore\n      0x04\n      add\n      tag_328\n      swap1\n      tag_242\n      jump\t// in\n    tag_328:\n      mload(0x40)\n      dup1\n      swap2\n      sub\n      swap1\n      revert\n    tag_327:\n        /* \"SquiddyCore.sol\":3217:3218  0 */\n      0x00\n        /* \"SquiddyCore.sol\":3197:3219  newOwner != address(0) */\n      0xffffffffffffffffffffffffffffffffffffffff\n      and\n        /* \"SquiddyCore.sol\":3197:3205  newOwner */\n      dup2\n        /* \"SquiddyCore.sol\":3197:3219  newOwner != address(0) */\n      0xffffffffffffffffffffffffffffffffffffffff\n      and\n      eq\n      iszero\n        /* \"SquiddyCore.sol\":3176:3285  require(... */\n      tag_330\n      jumpi\n      mload(0x40)\n      0x08c379a000000000000000000000000000000000000000000000000000000000\n      dup2\n      mstore\n      0x04\n      add\n      tag_331\n      swap1\n      tag_332\n      jump\t// in\n    tag_331:\n      mload(0x40)\n      dup1\n      swap2\n      sub\n      swap1\n      revert\n    tag_330:\n        /* \"SquiddyCore.sol\":3331:3339  newOwner */\n      dup1\n        /* \"SquiddyCore.sol\":3300:3340  OwnershipTransferred(_manager, newOwner) */\n      0xffffffffffffffffffffffffffffffffffffffff\n      and\n        /* \"SquiddyCore.sol\":3321:3329  _manager */\n      0x06\n      0x00\n      swap1\n      sload\n      swap1\n      0x0100\n      exp\n      swap1\n      div\n      0xffffffffffffffffffffffffffffffffffffffff\n      and\n        /* \"SquiddyCore.sol\":3300:3340  OwnershipTransferred(_manager, newOwner) */\n      0xffffffffffffffffffffffffffffffffffffffff\n      and\n      0x8be0079c531659141344cd1fd0a4f28419497f9722a3daafe3b4186f6b6457e0\n      mload(0x40)\n      mload(0x40)\n      dup1\n      swap2\n      sub\n      swap1\n      log3\n        /* \"SquiddyCore.sol\":3361:3369  newOwner */\n      dup1\n        /* \"SquiddyCore.sol\":3350:3358  _manager */\n      0x06\n      0x00\n        /* \"SquiddyCore.sol\":3350:3369  _manager = newOwner */\n      0x0100\n      exp\n      dup2\n      sload\n      dup2\n      0xffffffffffffffffffffffffffffffffffffffff\n      mul\n      not\n      and\n      swap1\n      dup4\n      0xffffffffffffffffffffffffffffffffffffffff\n      and\n      mul\n      or\n      swap1\n      sstore\n      pop\n        /* \"SquiddyCore.sol\":3094:3376  function transferOwnership(address newOwner) public virtual onlyManager {... */\n      pop\n      jump\t// out\n        /* \"SquiddyCore.sol\":268:316  uint256 public afterDepositHookCalledCounter = 0 */\n    tag_182:\n      sload(0x08)\n      dup2\n      jump\t// out\n        /* \"FixedPointMathLib.sol\":1507:2130  function mulDivDown(... */\n    tag_200:\n        /* \"FixedPointMathLib.sol\":1623:1632  uint256 z */\n      0x00\n        /* \"FixedPointMathLib.sol\":1720:1721  y */\n      dup3\n        /* \"FixedPointMathLib.sol\":1717:1718  x */\n      dup5\n        /* \"FixedPointMathLib.sol\":1713:1722  mul(x, y) */\n      mul\n        /* \"FixedPointMathLib.sol\":1708:1722  z := mul(x, y) */\n      swap1\n      pop\n        /* \"FixedPointMathLib.sol\":1952:1953  y */\n      dup3\n        /* \"FixedPointMathLib.sol\":1948:1949  x */\n      dup5\n        /* \"FixedPointMathLib.sol\":1945:1946  z */\n      dup3\n        /* \"FixedPointMathLib.sol\":1941:1950  div(z, x) */\n      div\n        /* \"FixedPointMathLib.sol\":1938:1954  eq(div(z, x), y) */\n      eq\n        /* \"FixedPointMathLib.sol\":1934:1935  x */\n      dup5\n        /* \"FixedPointMathLib.sol\":1927:1936  iszero(x) */\n      iszero\n        /* \"FixedPointMathLib.sol\":1924:1955  or(iszero(x), eq(div(z, x), y)) */\n      or\n        /* \"FixedPointMathLib.sol\":1889:1900  denominator */\n      dup3\n        /* \"FixedPointMathLib.sol\":1882:1901  iszero(denominator) */\n      iszero\n        /* \"FixedPointMathLib.sol\":1875:1902  iszero(iszero(denominator)) */\n      iszero\n        /* \"FixedPointMathLib.sol\":1850:1973  and(... */\n      and\n        /* \"FixedPointMathLib.sol\":1823:2032  if iszero(... */\n      tag_334\n      jumpi\n        /* \"FixedPointMathLib.sol\":2016:2017  0 */\n      0x00\n        /* \"FixedPointMathLib.sol\":2013:2014  0 */\n      dup1\n        /* \"FixedPointMathLib.sol\":2006:2018  revert(0, 0) */\n      revert\n        /* \"FixedPointMathLib.sol\":1823:2032  if iszero(... */\n    tag_334:\n        /* \"FixedPointMathLib.sol\":2102:2113  denominator */\n      dup2\n        /* \"FixedPointMathLib.sol\":2099:2100  z */\n      dup2\n        /* \"FixedPointMathLib.sol\":2095:2114  div(z, denominator) */\n      div\n        /* \"FixedPointMathLib.sol\":2090:2114  z := div(z, denominator) */\n      swap1\n      pop\n        /* \"FixedPointMathLib.sol\":1507:2130  function mulDivDown(... */\n      swap4\n      swap3\n      pop\n      pop\n      pop\n      jump\t// out\n        /* \"FixedPointMathLib.sol\":2136:2976  function mulDivUp(... */\n    tag_208:\n        /* \"FixedPointMathLib.sol\":2250:2259  uint256 z */\n      0x00\n        /* \"FixedPointMathLib.sol\":2347:2348  y */\n      dup3\n        /* \"FixedPointMathLib.sol\":2344:2345  x */\n      dup5\n        /* \"FixedPointMathLib.sol\":2340:2349  mul(x, y) */\n      mul\n        /* \"FixedPointMathLib.sol\":2335:2349  z := mul(x, y) */\n      swap1\n      pop\n        /* \"FixedPointMathLib.sol\":2579:2580  y */\n      dup3\n        /* \"FixedPointMathLib.sol\":2575:2576  x */\n      dup5\n        /* \"FixedPointMathLib.sol\":2572:2573  z */\n      dup3\n        /* \"FixedPointMathLib.sol\":2568:2577  div(z, x) */\n      div\n        /* \"FixedPointMathLib.sol\":2565:2581  eq(div(z, x), y) */\n      eq\n        /* \"FixedPointMathLib.sol\":2561:2562  x */\n      dup5\n        /* \"FixedPointMathLib.sol\":2554:2563  iszero(x) */\n      iszero\n        /* \"FixedPointMathLib.sol\":2551:2582  or(iszero(x), eq(div(z, x), y)) */\n      or\n        /* \"FixedPointMathLib.sol\":2516:2527  denominator */\n      dup3\n        /* \"FixedPointMathLib.sol\":2509:2528  iszero(denominator) */\n      iszero\n        /* \"FixedPointMathLib.sol\":2502:2529  iszero(iszero(denominator)) */\n      iszero\n        /* \"FixedPointMathLib.sol\":2477:2600  and(... */\n      and\n        /* \"FixedPointMathLib.sol\":2450:2659  if iszero(... */\n      tag_336\n      jumpi\n        /* \"FixedPointMathLib.sol\":2643:2644  0 */\n      0x00\n        /* \"FixedPointMathLib.sol\":2640:2641  0 */\n      dup1\n        /* \"FixedPointMathLib.sol\":2633:2645  revert(0, 0) */\n      revert\n        /* \"FixedPointMathLib.sol\":2450:2659  if iszero(... */\n    tag_336:\n        /* \"FixedPointMathLib.sol\":2957:2958  1 */\n      0x01\n        /* \"FixedPointMathLib.sol\":2943:2954  denominator */\n      dup3\n        /* \"FixedPointMathLib.sol\":2939:2940  1 */\n      0x01\n        /* \"FixedPointMathLib.sol\":2936:2937  z */\n      dup4\n        /* \"FixedPointMathLib.sol\":2932:2941  sub(z, 1) */\n      sub\n        /* \"FixedPointMathLib.sol\":2928:2955  div(sub(z, 1), denominator) */\n      div\n        /* \"FixedPointMathLib.sol\":2924:2959  add(div(sub(z, 1), denominator), 1) */\n      add\n        /* \"FixedPointMathLib.sol\":2919:2920  z */\n      dup2\n        /* \"FixedPointMathLib.sol\":2912:2921  iszero(z) */\n      iszero\n        /* \"FixedPointMathLib.sol\":2905:2922  iszero(iszero(z)) */\n      iszero\n        /* \"FixedPointMathLib.sol\":2901:2960  mul(iszero(iszero(z)), add(div(sub(z, 1), denominator), 1)) */\n      mul\n        /* \"FixedPointMathLib.sol\":2896:2960  z := mul(iszero(iszero(z)), add(div(sub(z, 1), denominator), 1)) */\n      swap1\n      pop\n        /* \"FixedPointMathLib.sol\":2136:2976  function mulDivUp(... */\n      swap4\n      swap3\n      pop\n      pop\n      pop\n      jump\t// out\n        /* \"ERC20.sol\":5698:6190  function computeDomainSeparator() internal view virtual returns (bytes32) {... */\n    tag_219:\n        /* \"ERC20.sol\":5763:5770  bytes32 */\n      0x00\n        /* \"ERC20.sol\":5860:6001  keccak256(... */\n      0x8b73c3c69bb8fe3d512ecc4cf759cc79239f7b179b0ffacaa9a75d522b39400f\n        /* \"ERC20.sol\":6039:6043  name */\n      0x00\n        /* \"ERC20.sol\":6023:6045  keccak256(bytes(name)) */\n      mload(0x40)\n      tag_338\n      swap2\n      swap1\n      tag_339\n      jump\t// in\n    tag_338:\n      mload(0x40)\n      dup1\n      swap2\n      sub\n      swap1\n      keccak256\n        /* \"ERC20.sol\":6067:6081  keccak256(\"1\") */\n      0xc89efdaa54c0f20c7adf612882df0950f5a951637e0307cdcb4c672f298b8bc6\n        /* \"ERC20.sol\":6103:6116  block.chainid */\n      chainid\n        /* \"ERC20.sol\":6146:6150  this */\n      address\n        /* \"ERC20.sol\":5828:6169  abi.encode(... */\n      add(0x20, mload(0x40))\n      tag_340\n      swap6\n      swap5\n      swap4\n      swap3\n      swap2\n      swap1\n      tag_341\n      jump\t// in\n    tag_340:\n      mload(0x40)\n      0x20\n      dup2\n      dup4\n      sub\n      sub\n      dup2\n      mstore\n      swap1\n      0x40\n      mstore\n        /* \"ERC20.sol\":5801:6183  keccak256(... */\n      dup1\n      mload\n      swap1\n      0x20\n      add\n      keccak256\n        /* \"ERC20.sol\":5782:6183  return... */\n      swap1\n      pop\n        /* \"ERC20.sol\":5698:6190  function computeDomainSeparator() internal view virtual returns (bytes32) {... */\n      swap1\n      jump\t// out\n        /* \"SafeTransferLib.sol\":1277:2954  function safeTransferFrom(... */\n    tag_231:\n        /* \"SafeTransferLib.sol\":1415:1427  bool success */\n      0x00\n        /* \"SafeTransferLib.sol\":1542:1546  0x40 */\n      0x40\n        /* \"SafeTransferLib.sol\":1536:1547  mload(0x40) */\n      mload\n        /* \"SafeTransferLib.sol\":1717:1783  0x23b872dd00000000000000000000000000000000000000000000000000000000 */\n      0x23b872dd00000000000000000000000000000000000000000000000000000000\n        /* \"SafeTransferLib.sol\":1682:1699  freeMemoryPointer */\n      dup2\n        /* \"SafeTransferLib.sol\":1658:1797  mstore(... */\n      mstore\n        /* \"SafeTransferLib.sol\":1844:1848  from */\n      dup5\n        /* \"SafeTransferLib.sol\":1840:1841  4 */\n      0x04\n        /* \"SafeTransferLib.sol\":1821:1838  freeMemoryPointer */\n      dup3\n        /* \"SafeTransferLib.sol\":1817:1842  add(freeMemoryPointer, 4) */\n      add\n        /* \"SafeTransferLib.sol\":1810:1849  mstore(add(freeMemoryPointer, 4), from) */\n      mstore\n        /* \"SafeTransferLib.sol\":1928:1930  to */\n      dup4\n        /* \"SafeTransferLib.sol\":1923:1925  36 */\n      0x24\n        /* \"SafeTransferLib.sol\":1904:1921  freeMemoryPointer */\n      dup3\n        /* \"SafeTransferLib.sol\":1900:1926  add(freeMemoryPointer, 36) */\n      add\n        /* \"SafeTransferLib.sol\":1893:1931  mstore(add(freeMemoryPointer, 36), to) */\n      mstore\n        /* \"SafeTransferLib.sol\":2008:2014  amount */\n      dup3\n        /* \"SafeTransferLib.sol\":2003:2005  68 */\n      0x44\n        /* \"SafeTransferLib.sol\":1984:2001  freeMemoryPointer */\n      dup3\n        /* \"SafeTransferLib.sol\":1980:2006  add(freeMemoryPointer, 68) */\n      add\n        /* \"SafeTransferLib.sol\":1973:2015  mstore(add(freeMemoryPointer, 68), amount) */\n      mstore\n        /* \"SafeTransferLib.sol\":2870:2872  32 */\n      0x20\n        /* \"SafeTransferLib.sol\":2867:2868  0 */\n      0x00\n        /* \"SafeTransferLib.sol\":2862:2865  100 */\n      0x64\n        /* \"SafeTransferLib.sol\":2843:2860  freeMemoryPointer */\n      dup4\n        /* \"SafeTransferLib.sol\":2840:2841  0 */\n      0x00\n        /* \"SafeTransferLib.sol\":2833:2838  token */\n      dup11\n        /* \"SafeTransferLib.sol\":2826:2831  gas() */\n      gas\n        /* \"SafeTransferLib.sol\":2821:2873  call(gas(), token, 0, freeMemoryPointer, 100, 0, 32) */\n      call\n        /* \"SafeTransferLib.sol\":2372:2388  returndatasize() */\n      returndatasize\n        /* \"SafeTransferLib.sol\":2365:2389  iszero(returndatasize()) */\n      iszero\n        /* \"SafeTransferLib.sol\":2339:2341  31 */\n      0x1f\n        /* \"SafeTransferLib.sol\":2321:2337  returndatasize() */\n      returndatasize\n        /* \"SafeTransferLib.sol\":2318:2342  gt(returndatasize(), 31) */\n      gt\n        /* \"SafeTransferLib.sol\":2314:2315  1 */\n      0x01\n        /* \"SafeTransferLib.sol\":2310:2311  0 */\n      0x00\n        /* \"SafeTransferLib.sol\":2304:2312  mload(0) */\n      mload\n        /* \"SafeTransferLib.sol\":2301:2316  eq(mload(0), 1) */\n      eq\n        /* \"SafeTransferLib.sol\":2297:2343  and(eq(mload(0), 1), gt(returndatasize(), 31)) */\n      and\n        /* \"SafeTransferLib.sol\":2273:2407  or(... */\n      or\n        /* \"SafeTransferLib.sol\":2073:2887  and(... */\n      and\n        /* \"SafeTransferLib.sol\":2062:2887  success := and(... */\n      swap2\n      pop\n        /* \"SafeTransferLib.sol\":1447:2897  {... */\n      pop\n        /* \"SafeTransferLib.sol\":2915:2922  success */\n      dup1\n        /* \"SafeTransferLib.sol\":2907:2947  require(success, \"TRANSFER_FROM_FAILED\") */\n      tag_343\n      jumpi\n      mload(0x40)\n      0x08c379a000000000000000000000000000000000000000000000000000000000\n      dup2\n      mstore\n      0x04\n      add\n      tag_344\n      swap1\n      tag_345\n      jump\t// in\n    tag_344:\n      mload(0x40)\n      dup1\n      swap2\n      sub\n      swap1\n      revert\n    tag_343:\n        /* \"SafeTransferLib.sol\":1405:2954  {... */\n      pop\n        /* \"SafeTransferLib.sol\":1277:2954  function safeTransferFrom(... */\n      pop\n      pop\n      pop\n      pop\n      jump\t// out\n        /* \"ERC20.sol\":6384:6709  function _mint(address to, uint256 amount) internal virtual {... */\n    tag_233:\n        /* \"ERC20.sol\":6469:6475  amount */\n      dup1\n        /* \"ERC20.sol\":6454:6465  totalSupply */\n      0x02\n      0x00\n        /* \"ERC20.sol\":6454:6475  totalSupply += amount */\n      dup3\n      dup3\n      sload\n      tag_347\n      swap2\n      swap1\n      tag_348\n      jump\t// in\n    tag_347:\n      swap3\n      pop\n      pop\n      dup2\n      swap1\n      sstore\n      pop\n        /* \"ERC20.sol\":6638:6644  amount */\n      dup1\n        /* \"ERC20.sol\":6621:6630  balanceOf */\n      0x03\n        /* \"ERC20.sol\":6621:6634  balanceOf[to] */\n      0x00\n        /* \"ERC20.sol\":6631:6633  to */\n      dup5\n        /* \"ERC20.sol\":6621:6634  balanceOf[to] */\n      0xffffffffffffffffffffffffffffffffffffffff\n      and\n      0xffffffffffffffffffffffffffffffffffffffff\n      and\n      dup2\n      mstore\n      0x20\n      add\n      swap1\n      dup2\n      mstore\n      0x20\n      add\n      0x00\n      keccak256\n      0x00\n        /* \"ERC20.sol\":6621:6644  balanceOf[to] += amount */\n      dup3\n      dup3\n      sload\n      add\n      swap3\n      pop\n      pop\n      dup2\n      swap1\n      sstore\n      pop\n        /* \"ERC20.sol\":6691:6693  to */\n      dup2\n        /* \"ERC20.sol\":6670:6702  Transfer(address(0), to, amount) */\n      0xffffffffffffffffffffffffffffffffffffffff\n      and\n        /* \"ERC20.sol\":6687:6688  0 */\n      0x00\n        /* \"ERC20.sol\":6670:6702  Transfer(address(0), to, amount) */\n      0xffffffffffffffffffffffffffffffffffffffff\n      and\n      0xddf252ad1be2c89b69c2b068fc378daa952ba7f163c4a11628f55a4df523b3ef\n        /* \"ERC20.sol\":6695:6701  amount */\n      dup4\n        /* \"ERC20.sol\":6670:6702  Transfer(address(0), to, amount) */\n      mload(0x40)\n      tag_349\n      swap2\n      swap1\n      tag_48\n      jump\t// in\n    tag_349:\n      mload(0x40)\n      dup1\n      swap2\n      sub\n      swap1\n      log3\n        /* \"ERC20.sol\":6384:6709  function _mint(address to, uint256 amount) internal virtual {... */\n      pop\n      pop\n      jump\t// out\n        /* \"SquiddyCore.sol\":1973:2079  function afterDeposit(uint256, uint256) internal override {... */\n    tag_237:\n        /* \"SquiddyCore.sol\":2041:2070  afterDepositHookCalledCounter */\n      0x08\n      0x00\n        /* \"SquiddyCore.sol\":2041:2072  afterDepositHookCalledCounter++ */\n      dup2\n      sload\n      dup1\n      swap3\n      swap2\n      swap1\n      tag_351\n      swap1\n      tag_352\n      jump\t// in\n    tag_351:\n      swap2\n      swap1\n      pop\n      sstore\n      pop\n        /* \"SquiddyCore.sol\":1973:2079  function afterDeposit(uint256, uint256) internal override {... */\n      pop\n      pop\n      jump\t// out\n        /* \"SquiddyCore.sol\":1857:1967  function beforeWithdraw(uint256, uint256) internal override {... */\n    tag_278:\n        /* \"SquiddyCore.sol\":1927:1958  beforeWithdrawHookCalledCounter */\n      0x07\n      0x00\n        /* \"SquiddyCore.sol\":1927:1960  beforeWithdrawHookCalledCounter++ */\n      dup2\n      sload\n      dup1\n      swap3\n      swap2\n      swap1\n      tag_354\n      swap1\n      tag_352\n      jump\t// in\n    tag_354:\n      swap2\n      swap1\n      pop\n      sstore\n      pop\n        /* \"SquiddyCore.sol\":1857:1967  function beforeWithdraw(uint256, uint256) internal override {... */\n      pop\n      pop\n      jump\t// out\n        /* \"ERC20.sol\":6715:7043  function _burn(address from, uint256 amount) internal virtual {... */\n    tag_280:\n        /* \"ERC20.sol\":6806:6812  amount */\n      dup1\n        /* \"ERC20.sol\":6787:6796  balanceOf */\n      0x03\n        /* \"ERC20.sol\":6787:6802  balanceOf[from] */\n      0x00\n        /* \"ERC20.sol\":6797:6801  from */\n      dup5\n        /* \"ERC20.sol\":6787:6802  balanceOf[from] */\n      0xffffffffffffffffffffffffffffffffffffffff\n      and\n      0xffffffffffffffffffffffffffffffffffffffff\n      and\n      dup2\n      mstore\n      0x20\n      add\n      swap1\n      dup2\n      mstore\n      0x20\n      add\n      0x00\n      keccak256\n      0x00\n        /* \"ERC20.sol\":6787:6812  balanceOf[from] -= amount */\n      dup3\n      dup3\n      sload\n      tag_356\n      swap2\n      swap1\n      tag_213\n      jump\t// in\n    tag_356:\n      swap3\n      pop\n      pop\n      dup2\n      swap1\n      sstore\n      pop\n        /* \"ERC20.sol\":6970:6976  amount */\n      dup1\n        /* \"ERC20.sol\":6955:6966  totalSupply */\n      0x02\n      0x00\n        /* \"ERC20.sol\":6955:6976  totalSupply -= amount */\n      dup3\n      dup3\n      sload\n      sub\n      swap3\n      pop\n      pop\n      dup2\n      swap1\n      sstore\n      pop\n        /* \"ERC20.sol\":7025:7026  0 */\n      0x00\n        /* \"ERC20.sol\":7002:7036  Transfer(from, address(0), amount) */\n      0xffffffffffffffffffffffffffffffffffffffff\n      and\n        /* \"ERC20.sol\":7011:7015  from */\n      dup3\n        /* \"ERC20.sol\":7002:7036  Transfer(from, address(0), amount) */\n      0xffffffffffffffffffffffffffffffffffffffff\n      and\n      0xddf252ad1be2c89b69c2b068fc378daa952ba7f163c4a11628f55a4df523b3ef\n        /* \"ERC20.sol\":7029:7035  amount */\n      dup4\n        /* \"ERC20.sol\":7002:7036  Transfer(from, address(0), amount) */\n      mload(0x40)\n      tag_357\n      swap2\n      swap1\n      tag_48\n      jump\t// in\n    tag_357:\n      mload(0x40)\n      dup1\n      swap2\n      sub\n      swap1\n      log3\n        /* \"ERC20.sol\":6715:7043  function _burn(address from, uint256 amount) internal virtual {... */\n      pop\n      pop\n      jump\t// out\n        /* \"SafeTransferLib.sol\":2960:4520  function safeTransfer(... */\n    tag_283:\n        /* \"SafeTransferLib.sol\":3072:3084  bool success */\n      0x00\n        /* \"SafeTransferLib.sol\":3199:3203  0x40 */\n      0x40\n        /* \"SafeTransferLib.sol\":3193:3204  mload(0x40) */\n      mload\n        /* \"SafeTransferLib.sol\":3374:3440  0xa9059cbb00000000000000000000000000000000000000000000000000000000 */\n      0xa9059cbb00000000000000000000000000000000000000000000000000000000\n        /* \"SafeTransferLib.sol\":3339:3356  freeMemoryPointer */\n      dup2\n        /* \"SafeTransferLib.sol\":3315:3454  mstore(... */\n      mstore\n        /* \"SafeTransferLib.sol\":3501:3503  to */\n      dup4\n        /* \"SafeTransferLib.sol\":3497:3498  4 */\n      0x04\n        /* \"SafeTransferLib.sol\":3478:3495  freeMemoryPointer */\n      dup3\n        /* \"SafeTransferLib.sol\":3474:3499  add(freeMemoryPointer, 4) */\n      add\n        /* \"SafeTransferLib.sol\":3467:3504  mstore(add(freeMemoryPointer, 4), to) */\n      mstore\n        /* \"SafeTransferLib.sol\":3581:3587  amount */\n      dup3\n        /* \"SafeTransferLib.sol\":3576:3578  36 */\n      0x24\n        /* \"SafeTransferLib.sol\":3557:3574  freeMemoryPointer */\n      dup3\n        /* \"SafeTransferLib.sol\":3553:3579  add(freeMemoryPointer, 36) */\n      add\n        /* \"SafeTransferLib.sol\":3546:3588  mstore(add(freeMemoryPointer, 36), amount) */\n      mstore\n        /* \"SafeTransferLib.sol\":4441:4443  32 */\n      0x20\n        /* \"SafeTransferLib.sol\":4438:4439  0 */\n      0x00\n        /* \"SafeTransferLib.sol\":4434:4436  68 */\n      0x44\n        /* \"SafeTransferLib.sol\":4415:4432  freeMemoryPointer */\n      dup4\n        /* \"SafeTransferLib.sol\":4412:4413  0 */\n      0x00\n        /* \"SafeTransferLib.sol\":4405:4410  token */\n      dup10\n        /* \"SafeTransferLib.sol\":4398:4403  gas() */\n      gas\n        /* \"SafeTransferLib.sol\":4393:4444  call(gas(), token, 0, freeMemoryPointer, 68, 0, 32) */\n      call\n        /* \"SafeTransferLib.sol\":3945:3961  returndatasize() */\n      returndatasize\n        /* \"SafeTransferLib.sol\":3938:3962  iszero(returndatasize()) */\n      iszero\n        /* \"SafeTransferLib.sol\":3912:3914  31 */\n      0x1f\n        /* \"SafeTransferLib.sol\":3894:3910  returndatasize() */\n      returndatasize\n        /* \"SafeTransferLib.sol\":3891:3915  gt(returndatasize(), 31) */\n      gt\n        /* \"SafeTransferLib.sol\":3887:3888  1 */\n      0x01\n        /* \"SafeTransferLib.sol\":3883:3884  0 */\n      0x00\n        /* \"SafeTransferLib.sol\":3877:3885  mload(0) */\n      mload\n        /* \"SafeTransferLib.sol\":3874:3889  eq(mload(0), 1) */\n      eq\n        /* \"SafeTransferLib.sol\":3870:3916  and(eq(mload(0), 1), gt(returndatasize(), 31)) */\n      and\n        /* \"SafeTransferLib.sol\":3846:3980  or(... */\n      or\n        /* \"SafeTransferLib.sol\":3646:4458  and(... */\n      and\n        /* \"SafeTransferLib.sol\":3635:4458  success := and(... */\n      swap2\n      pop\n        /* \"SafeTransferLib.sol\":3104:4468  {... */\n      pop\n        /* \"SafeTransferLib.sol\":4486:4493  success */\n      dup1\n        /* \"SafeTransferLib.sol\":4478:4513  require(success, \"TRANSFER_FAILED\") */\n      tag_359\n      jumpi\n      mload(0x40)\n      0x08c379a000000000000000000000000000000000000000000000000000000000\n      dup2\n      mstore\n      0x04\n      add\n      tag_360\n      swap1\n      tag_361\n      jump\t// in\n    tag_360:\n      mload(0x40)\n      dup1\n      swap2\n      sub\n      swap1\n      revert\n    tag_359:\n        /* \"SafeTransferLib.sol\":3062:4520  {... */\n      pop\n        /* \"SafeTransferLib.sol\":2960:4520  function safeTransfer(... */\n      pop\n      pop\n      pop\n      jump\t// out\n        /* \"#utility.yul\":7:84   */\n    tag_362:\n        /* \"#utility.yul\":44:51   */\n      0x00\n        /* \"#utility.yul\":73:78   */\n      dup2\n        /* \"#utility.yul\":62:78   */\n      swap1\n      pop\n        /* \"#utility.yul\":7:84   */\n      swap2\n      swap1\n      pop\n      jump\t// out\n        /* \"#utility.yul\":90:208   */\n    tag_363:\n        /* \"#utility.yul\":177:201   */\n      tag_426\n        /* \"#utility.yul\":195:200   */\n      dup2\n        /* \"#utility.yul\":177:201   */\n      tag_362\n      jump\t// in\n    tag_426:\n        /* \"#utility.yul\":172:175   */\n      dup3\n        /* \"#utility.yul\":165:202   */\n      mstore\n        /* \"#utility.yul\":90:208   */\n      pop\n      pop\n      jump\t// out\n        /* \"#utility.yul\":214:436   */\n    tag_48:\n        /* \"#utility.yul\":307:311   */\n      0x00\n        /* \"#utility.yul\":345:347   */\n      0x20\n        /* \"#utility.yul\":334:343   */\n      dup3\n        /* \"#utility.yul\":330:348   */\n      add\n        /* \"#utility.yul\":322:348   */\n      swap1\n      pop\n        /* \"#utility.yul\":358:429   */\n      tag_428\n        /* \"#utility.yul\":426:427   */\n      0x00\n        /* \"#utility.yul\":415:424   */\n      dup4\n        /* \"#utility.yul\":411:428   */\n      add\n        /* \"#utility.yul\":402:408   */\n      dup5\n        /* \"#utility.yul\":358:429   */\n      tag_363\n      jump\t// in\n    tag_428:\n        /* \"#utility.yul\":214:436   */\n      swap3\n      swap2\n      pop\n      pop\n      jump\t// out\n        /* \"#utility.yul\":442:541   */\n    tag_364:\n        /* \"#utility.yul\":494:500   */\n      0x00\n        /* \"#utility.yul\":528:533   */\n      dup2\n        /* \"#utility.yul\":522:534   */\n      mload\n        /* \"#utility.yul\":512:534   */\n      swap1\n      pop\n        /* \"#utility.yul\":442:541   */\n      swap2\n      swap1\n      pop\n      jump\t// out\n        /* \"#utility.yul\":547:716   */\n    tag_365:\n        /* \"#utility.yul\":631:642   */\n      0x00\n        /* \"#utility.yul\":665:671   */\n      dup3\n        /* \"#utility.yul\":660:663   */\n      dup3\n        /* \"#utility.yul\":653:672   */\n      mstore\n        /* \"#utility.yul\":705:709   */\n      0x20\n        /* \"#utility.yul\":700:703   */\n      dup3\n        /* \"#utility.yul\":696:710   */\n      add\n        /* \"#utility.yul\":681:710   */\n      swap1\n      pop\n        /* \"#utility.yul\":547:716   */\n      swap3\n      swap2\n      pop\n      pop\n      jump\t// out\n        /* \"#utility.yul\":722:1029   */\n    tag_366:\n        /* \"#utility.yul\":790:791   */\n      0x00\n        /* \"#utility.yul\":800:913   */\n    tag_432:\n        /* \"#utility.yul\":814:820   */\n      dup4\n        /* \"#utility.yul\":811:812   */\n      dup2\n        /* \"#utility.yul\":808:821   */\n      lt\n        /* \"#utility.yul\":800:913   */\n      iszero\n      tag_434\n      jumpi\n        /* \"#utility.yul\":899:900   */\n      dup1\n        /* \"#utility.yul\":894:897   */\n      dup3\n        /* \"#utility.yul\":890:901   */\n      add\n        /* \"#utility.yul\":884:902   */\n      mload\n        /* \"#utility.yul\":880:881   */\n      dup2\n        /* \"#utility.yul\":875:878   */\n      dup5\n        /* \"#utility.yul\":871:882   */\n      add\n        /* \"#utility.yul\":864:903   */\n      mstore\n        /* \"#utility.yul\":836:838   */\n      0x20\n        /* \"#utility.yul\":833:834   */\n      dup2\n        /* \"#utility.yul\":829:839   */\n      add\n        /* \"#utility.yul\":824:839   */\n      swap1\n      pop\n        /* \"#utility.yul\":800:913   */\n      jump(tag_432)\n    tag_434:\n        /* \"#utility.yul\":931:937   */\n      dup4\n        /* \"#utility.yul\":928:929   */\n      dup2\n        /* \"#utility.yul\":925:938   */\n      gt\n        /* \"#utility.yul\":922:1023   */\n      iszero\n      tag_435\n      jumpi\n        /* \"#utility.yul\":1011:1012   */\n      0x00\n        /* \"#utility.yul\":1002:1008   */\n      dup5\n        /* \"#utility.yul\":997:1000   */\n      dup5\n        /* \"#utility.yul\":993:1009   */\n      add\n        /* \"#utility.yul\":986:1013   */\n      mstore\n        /* \"#utility.yul\":922:1023   */\n    tag_435:\n        /* \"#utility.yul\":771:1029   */\n      pop\n        /* \"#utility.yul\":722:1029   */\n      pop\n      pop\n      pop\n      jump\t// out\n        /* \"#utility.yul\":1035:1137   */\n    tag_367:\n        /* \"#utility.yul\":1076:1082   */\n      0x00\n        /* \"#utility.yul\":1127:1129   */\n      0x1f\n        /* \"#utility.yul\":1123:1130   */\n      not\n        /* \"#utility.yul\":1118:1120   */\n      0x1f\n        /* \"#utility.yul\":1111:1116   */\n      dup4\n        /* \"#utility.yul\":1107:1121   */\n      add\n        /* \"#utility.yul\":1103:1131   */\n      and\n        /* \"#utility.yul\":1093:1131   */\n      swap1\n      pop\n        /* \"#utility.yul\":1035:1137   */\n      swap2\n      swap1\n      pop\n      jump\t// out\n        /* \"#utility.yul\":1143:1507   */\n    tag_368:\n        /* \"#utility.yul\":1231:1234   */\n      0x00\n        /* \"#utility.yul\":1259:1298   */\n      tag_438\n        /* \"#utility.yul\":1292:1297   */\n      dup3\n        /* \"#utility.yul\":1259:1298   */\n      tag_364\n      jump\t// in\n    tag_438:\n        /* \"#utility.yul\":1314:1385   */\n      tag_439\n        /* \"#utility.yul\":1378:1384   */\n      dup2\n        /* \"#utility.yul\":1373:1376   */\n      dup6\n        /* \"#utility.yul\":1314:1385   */\n      tag_365\n      jump\t// in\n    tag_439:\n        /* \"#utility.yul\":1307:1385   */\n      swap4\n      pop\n        /* \"#utility.yul\":1394:1446   */\n      tag_440\n        /* \"#utility.yul\":1439:1445   */\n      dup2\n        /* \"#utility.yul\":1434:1437   */\n      dup6\n        /* \"#utility.yul\":1427:1431   */\n      0x20\n        /* \"#utility.yul\":1420:1425   */\n      dup7\n        /* \"#utility.yul\":1416:1432   */\n      add\n        /* \"#utility.yul\":1394:1446   */\n      tag_366\n      jump\t// in\n    tag_440:\n        /* \"#utility.yul\":1471:1500   */\n      tag_441\n        /* \"#utility.yul\":1493:1499   */\n      dup2\n        /* \"#utility.yul\":1471:1500   */\n      tag_367\n      jump\t// in\n    tag_441:\n        /* \"#utility.yul\":1466:1469   */\n      dup5\n        /* \"#utility.yul\":1462:1501   */\n      add\n        /* \"#utility.yul\":1455:1501   */\n      swap2\n      pop\n        /* \"#utility.yul\":1235:1507   */\n      pop\n        /* \"#utility.yul\":1143:1507   */\n      swap3\n      swap2\n      pop\n      pop\n      jump\t// out\n        /* \"#utility.yul\":1513:1826   */\n    tag_52:\n        /* \"#utility.yul\":1626:1630   */\n      0x00\n        /* \"#utility.yul\":1664:1666   */\n      0x20\n        /* \"#utility.yul\":1653:1662   */\n      dup3\n        /* \"#utility.yul\":1649:1667   */\n      add\n        /* \"#utility.yul\":1641:1667   */\n      swap1\n      pop\n        /* \"#utility.yul\":1713:1722   */\n      dup2\n        /* \"#utility.yul\":1707:1711   */\n      dup2\n        /* \"#utility.yul\":1703:1723   */\n      sub\n        /* \"#utility.yul\":1699:1700   */\n      0x00\n        /* \"#utility.yul\":1688:1697   */\n      dup4\n        /* \"#utility.yul\":1684:1701   */\n      add\n        /* \"#utility.yul\":1677:1724   */\n      mstore\n        /* \"#utility.yul\":1741:1819   */\n      tag_443\n        /* \"#utility.yul\":1814:1818   */\n      dup2\n        /* \"#utility.yul\":1805:1811   */\n      dup5\n        /* \"#utility.yul\":1741:1819   */\n      tag_368\n      jump\t// in\n    tag_443:\n        /* \"#utility.yul\":1733:1819   */\n      swap1\n      pop\n        /* \"#utility.yul\":1513:1826   */\n      swap3\n      swap2\n      pop\n      pop\n      jump\t// out\n        /* \"#utility.yul\":1913:2030   */\n    tag_370:\n        /* \"#utility.yul\":2022:2023   */\n      0x00\n        /* \"#utility.yul\":2019:2020   */\n      dup1\n        /* \"#utility.yul\":2012:2024   */\n      revert\n        /* \"#utility.yul\":2159:2281   */\n    tag_372:\n        /* \"#utility.yul\":2232:2256   */\n      tag_448\n        /* \"#utility.yul\":2250:2255   */\n      dup2\n        /* \"#utility.yul\":2232:2256   */\n      tag_362\n      jump\t// in\n    tag_448:\n        /* \"#utility.yul\":2225:2230   */\n      dup2\n        /* \"#utility.yul\":2222:2257   */\n      eq\n        /* \"#utility.yul\":2212:2275   */\n      tag_449\n      jumpi\n        /* \"#utility.yul\":2271:2272   */\n      0x00\n        /* \"#utility.yul\":2268:2269   */\n      dup1\n        /* \"#utility.yul\":2261:2273   */\n      revert\n        /* \"#utility.yul\":2212:2275   */\n    tag_449:\n        /* \"#utility.yul\":2159:2281   */\n      pop\n      jump\t// out\n        /* \"#utility.yul\":2287:2426   */\n    tag_373:\n        /* \"#utility.yul\":2333:2338   */\n      0x00\n        /* \"#utility.yul\":2371:2377   */\n      dup2\n        /* \"#utility.yul\":2358:2378   */\n      calldataload\n        /* \"#utility.yul\":2349:2378   */\n      swap1\n      pop\n        /* \"#utility.yul\":2387:2420   */\n      tag_451\n        /* \"#utility.yul\":2414:2419   */\n      dup2\n        /* \"#utility.yul\":2387:2420   */\n      tag_372\n      jump\t// in\n    tag_451:\n        /* \"#utility.yul\":2287:2426   */\n      swap3\n      swap2\n      pop\n      pop\n      jump\t// out\n        /* \"#utility.yul\":2432:2761   */\n    tag_55:\n        /* \"#utility.yul\":2491:2497   */\n      0x00\n        /* \"#utility.yul\":2540:2542   */\n      0x20\n        /* \"#utility.yul\":2528:2537   */\n      dup3\n        /* \"#utility.yul\":2519:2526   */\n      dup5\n        /* \"#utility.yul\":2515:2538   */\n      sub\n        /* \"#utility.yul\":2511:2543   */\n      slt\n        /* \"#utility.yul\":2508:2627   */\n      iszero\n      tag_453\n      jumpi\n        /* \"#utility.yul\":2546:2625   */\n      tag_454\n      tag_370\n      jump\t// in\n    tag_454:\n        /* \"#utility.yul\":2508:2627   */\n    tag_453:\n        /* \"#utility.yul\":2666:2667   */\n      0x00\n        /* \"#utility.yul\":2691:2744   */\n      tag_455\n        /* \"#utility.yul\":2736:2743   */\n      dup5\n        /* \"#utility.yul\":2727:2733   */\n      dup3\n        /* \"#utility.yul\":2716:2725   */\n      dup6\n        /* \"#utility.yul\":2712:2734   */\n      add\n        /* \"#utility.yul\":2691:2744   */\n      tag_373\n      jump\t// in\n    tag_455:\n        /* \"#utility.yul\":2681:2744   */\n      swap2\n      pop\n        /* \"#utility.yul\":2637:2754   */\n      pop\n        /* \"#utility.yul\":2432:2761   */\n      swap3\n      swap2\n      pop\n      pop\n      jump\t// out\n        /* \"#utility.yul\":2767:2893   */\n    tag_374:\n        /* \"#utility.yul\":2804:2811   */\n      0x00\n        /* \"#utility.yul\":2844:2886   */\n      0xffffffffffffffffffffffffffffffffffffffff\n        /* \"#utility.yul\":2837:2842   */\n      dup3\n        /* \"#utility.yul\":2833:2887   */\n      and\n        /* \"#utility.yul\":2822:2887   */\n      swap1\n      pop\n        /* \"#utility.yul\":2767:2893   */\n      swap2\n      swap1\n      pop\n      jump\t// out\n        /* \"#utility.yul\":2899:2995   */\n    tag_375:\n        /* \"#utility.yul\":2936:2943   */\n      0x00\n        /* \"#utility.yul\":2965:2989   */\n      tag_458\n        /* \"#utility.yul\":2983:2988   */\n      dup3\n        /* \"#utility.yul\":2965:2989   */\n      tag_374\n      jump\t// in\n    tag_458:\n        /* \"#utility.yul\":2954:2989   */\n      swap1\n      pop\n        /* \"#utility.yul\":2899:2995   */\n      swap2\n      swap1\n      pop\n      jump\t// out\n        /* \"#utility.yul\":3001:3123   */\n    tag_376:\n        /* \"#utility.yul\":3074:3098   */\n      tag_460\n        /* \"#utility.yul\":3092:3097   */\n      dup2\n        /* \"#utility.yul\":3074:3098   */\n      tag_375\n      jump\t// in\n    tag_460:\n        /* \"#utility.yul\":3067:3072   */\n      dup2\n        /* \"#utility.yul\":3064:3099   */\n      eq\n        /* \"#utility.yul\":3054:3117   */\n      tag_461\n      jumpi\n        /* \"#utility.yul\":3113:3114   */\n      0x00\n        /* \"#utility.yul\":3110:3111   */\n      dup1\n        /* \"#utility.yul\":3103:3115   */\n      revert\n        /* \"#utility.yul\":3054:3117   */\n    tag_461:\n        /* \"#utility.yul\":3001:3123   */\n      pop\n      jump\t// out\n        /* \"#utility.yul\":3129:3268   */\n    tag_377:\n        /* \"#utility.yul\":3175:3180   */\n      0x00\n        /* \"#utility.yul\":3213:3219   */\n      dup2\n        /* \"#utility.yul\":3200:3220   */\n      calldataload\n        /* \"#utility.yul\":3191:3220   */\n      swap1\n      pop\n        /* \"#utility.yul\":3229:3262   */\n      tag_463\n        /* \"#utility.yul\":3256:3261   */\n      dup2\n        /* \"#utility.yul\":3229:3262   */\n      tag_376\n      jump\t// in\n    tag_463:\n        /* \"#utility.yul\":3129:3268   */\n      swap3\n      swap2\n      pop\n      pop\n      jump\t// out\n        /* \"#utility.yul\":3274:3748   */\n    tag_60:\n        /* \"#utility.yul\":3342:3348   */\n      0x00\n        /* \"#utility.yul\":3350:3356   */\n      dup1\n        /* \"#utility.yul\":3399:3401   */\n      0x40\n        /* \"#utility.yul\":3387:3396   */\n      dup4\n        /* \"#utility.yul\":3378:3385   */\n      dup6\n        /* \"#utility.yul\":3374:3397   */\n      sub\n        /* \"#utility.yul\":3370:3402   */\n      slt\n        /* \"#utility.yul\":3367:3486   */\n      iszero\n      tag_465\n      jumpi\n        /* \"#utility.yul\":3405:3484   */\n      tag_466\n      tag_370\n      jump\t// in\n    tag_466:\n        /* \"#utility.yul\":3367:3486   */\n    tag_465:\n        /* \"#utility.yul\":3525:3526   */\n      0x00\n        /* \"#utility.yul\":3550:3603   */\n      tag_467\n        /* \"#utility.yul\":3595:3602   */\n      dup6\n        /* \"#utility.yul\":3586:3592   */\n      dup3\n        /* \"#utility.yul\":3575:3584   */\n      dup7\n        /* \"#utility.yul\":3571:3593   */\n      add\n        /* \"#utility.yul\":3550:3603   */\n      tag_377\n      jump\t// in\n    tag_467:\n        /* \"#utility.yul\":3540:3603   */\n      swap3\n      pop\n        /* \"#utility.yul\":3496:3613   */\n      pop\n        /* \"#utility.yul\":3652:3654   */\n      0x20\n        /* \"#utility.yul\":3678:3731   */\n      tag_468\n        /* \"#utility.yul\":3723:3730   */\n      dup6\n        /* \"#utility.yul\":3714:3720   */\n      dup3\n        /* \"#utility.yul\":3703:3712   */\n      dup7\n        /* \"#utility.yul\":3699:3721   */\n      add\n        /* \"#utility.yul\":3678:3731   */\n      tag_373\n      jump\t// in\n    tag_468:\n        /* \"#utility.yul\":3668:3731   */\n      swap2\n      pop\n        /* \"#utility.yul\":3623:3741   */\n      pop\n        /* \"#utility.yul\":3274:3748   */\n      swap3\n      pop\n      swap3\n      swap1\n      pop\n      jump\t// out\n        /* \"#utility.yul\":3754:3844   */\n    tag_378:\n        /* \"#utility.yul\":3788:3795   */\n      0x00\n        /* \"#utility.yul\":3831:3836   */\n      dup2\n        /* \"#utility.yul\":3824:3837   */\n      iszero\n        /* \"#utility.yul\":3817:3838   */\n      iszero\n        /* \"#utility.yul\":3806:3838   */\n      swap1\n      pop\n        /* \"#utility.yul\":3754:3844   */\n      swap2\n      swap1\n      pop\n      jump\t// out\n        /* \"#utility.yul\":3850:3959   */\n    tag_379:\n        /* \"#utility.yul\":3931:3952   */\n      tag_471\n        /* \"#utility.yul\":3946:3951   */\n      dup2\n        /* \"#utility.yul\":3931:3952   */\n      tag_378\n      jump\t// in\n    tag_471:\n        /* \"#utility.yul\":3926:3929   */\n      dup3\n        /* \"#utility.yul\":3919:3953   */\n      mstore\n        /* \"#utility.yul\":3850:3959   */\n      pop\n      pop\n      jump\t// out\n        /* \"#utility.yul\":3965:4175   */\n    tag_63:\n        /* \"#utility.yul\":4052:4056   */\n      0x00\n        /* \"#utility.yul\":4090:4092   */\n      0x20\n        /* \"#utility.yul\":4079:4088   */\n      dup3\n        /* \"#utility.yul\":4075:4093   */\n      add\n        /* \"#utility.yul\":4067:4093   */\n      swap1\n      pop\n        /* \"#utility.yul\":4103:4168   */\n      tag_473\n        /* \"#utility.yul\":4165:4166   */\n      0x00\n        /* \"#utility.yul\":4154:4163   */\n      dup4\n        /* \"#utility.yul\":4150:4167   */\n      add\n        /* \"#utility.yul\":4141:4147   */\n      dup5\n        /* \"#utility.yul\":4103:4168   */\n      tag_379\n      jump\t// in\n    tag_473:\n        /* \"#utility.yul\":3965:4175   */\n      swap3\n      swap2\n      pop\n      pop\n      jump\t// out\n        /* \"#utility.yul\":4181:4800   */\n    tag_73:\n        /* \"#utility.yul\":4258:4264   */\n      0x00\n        /* \"#utility.yul\":4266:4272   */\n      dup1\n        /* \"#utility.yul\":4274:4280   */\n      0x00\n        /* \"#utility.yul\":4323:4325   */\n      0x60\n        /* \"#utility.yul\":4311:4320   */\n      dup5\n        /* \"#utility.yul\":4302:4309   */\n      dup7\n        /* \"#utility.yul\":4298:4321   */\n      sub\n        /* \"#utility.yul\":4294:4326   */\n      slt\n        /* \"#utility.yul\":4291:4410   */\n      iszero\n      tag_475\n      jumpi\n        /* \"#utility.yul\":4329:4408   */\n      tag_476\n      tag_370\n      jump\t// in\n    tag_476:\n        /* \"#utility.yul\":4291:4410   */\n    tag_475:\n        /* \"#utility.yul\":4449:4450   */\n      0x00\n        /* \"#utility.yul\":4474:4527   */\n      tag_477\n        /* \"#utility.yul\":4519:4526   */\n      dup7\n        /* \"#utility.yul\":4510:4516   */\n      dup3\n        /* \"#utility.yul\":4499:4508   */\n      dup8\n        /* \"#utility.yul\":4495:4517   */\n      add\n        /* \"#utility.yul\":4474:4527   */\n      tag_377\n      jump\t// in\n    tag_477:\n        /* \"#utility.yul\":4464:4527   */\n      swap4\n      pop\n        /* \"#utility.yul\":4420:4537   */\n      pop\n        /* \"#utility.yul\":4576:4578   */\n      0x20\n        /* \"#utility.yul\":4602:4655   */\n      tag_478\n        /* \"#utility.yul\":4647:4654   */\n      dup7\n        /* \"#utility.yul\":4638:4644   */\n      dup3\n        /* \"#utility.yul\":4627:4636   */\n      dup8\n        /* \"#utility.yul\":4623:4645   */\n      add\n        /* \"#utility.yul\":4602:4655   */\n      tag_377\n      jump\t// in\n    tag_478:\n        /* \"#utility.yul\":4592:4655   */\n      swap3\n      pop\n        /* \"#utility.yul\":4547:4665   */\n      pop\n        /* \"#utility.yul\":4704:4706   */\n      0x40\n        /* \"#utility.yul\":4730:4783   */\n      tag_479\n        /* \"#utility.yul\":4775:4782   */\n      dup7\n        /* \"#utility.yul\":4766:4772   */\n      dup3\n        /* \"#utility.yul\":4755:4764   */\n      dup8\n        /* \"#utility.yul\":4751:4773   */\n      add\n        /* \"#utility.yul\":4730:4783   */\n      tag_373\n      jump\t// in\n    tag_479:\n        /* \"#utility.yul\":4720:4783   */\n      swap2\n      pop\n        /* \"#utility.yul\":4675:4793   */\n      pop\n        /* \"#utility.yul\":4181:4800   */\n      swap3\n      pop\n      swap3\n      pop\n      swap3\n      jump\t// out\n        /* \"#utility.yul\":4806:4892   */\n    tag_380:\n        /* \"#utility.yul\":4841:4848   */\n      0x00\n        /* \"#utility.yul\":4881:4885   */\n      0xff\n        /* \"#utility.yul\":4874:4879   */\n      dup3\n        /* \"#utility.yul\":4870:4886   */\n      and\n        /* \"#utility.yul\":4859:4886   */\n      swap1\n      pop\n        /* \"#utility.yul\":4806:4892   */\n      swap2\n      swap1\n      pop\n      jump\t// out\n        /* \"#utility.yul\":4898:5010   */\n    tag_381:\n        /* \"#utility.yul\":4981:5003   */\n      tag_482\n        /* \"#utility.yul\":4997:5002   */\n      dup2\n        /* \"#utility.yul\":4981:5003   */\n      tag_380\n      jump\t// in\n    tag_482:\n        /* \"#utility.yul\":4976:4979   */\n      dup3\n        /* \"#utility.yul\":4969:5004   */\n      mstore\n        /* \"#utility.yul\":4898:5010   */\n      pop\n      pop\n      jump\t// out\n        /* \"#utility.yul\":5016:5230   */\n    tag_79:\n        /* \"#utility.yul\":5105:5109   */\n      0x00\n        /* \"#utility.yul\":5143:5145   */\n      0x20\n        /* \"#utility.yul\":5132:5141   */\n      dup3\n        /* \"#utility.yul\":5128:5146   */\n      add\n        /* \"#utility.yul\":5120:5146   */\n      swap1\n      pop\n        /* \"#utility.yul\":5156:5223   */\n      tag_484\n        /* \"#utility.yul\":5220:5221   */\n      0x00\n        /* \"#utility.yul\":5209:5218   */\n      dup4\n        /* \"#utility.yul\":5205:5222   */\n      add\n        /* \"#utility.yul\":5196:5202   */\n      dup5\n        /* \"#utility.yul\":5156:5223   */\n      tag_381\n      jump\t// in\n    tag_484:\n        /* \"#utility.yul\":5016:5230   */\n      swap3\n      swap2\n      pop\n      pop\n      jump\t// out\n        /* \"#utility.yul\":5236:5313   */\n    tag_382:\n        /* \"#utility.yul\":5273:5280   */\n      0x00\n        /* \"#utility.yul\":5302:5307   */\n      dup2\n        /* \"#utility.yul\":5291:5307   */\n      swap1\n      pop\n        /* \"#utility.yul\":5236:5313   */\n      swap2\n      swap1\n      pop\n      jump\t// out\n        /* \"#utility.yul\":5319:5437   */\n    tag_383:\n        /* \"#utility.yul\":5406:5430   */\n      tag_487\n        /* \"#utility.yul\":5424:5429   */\n      dup2\n        /* \"#utility.yul\":5406:5430   */\n      tag_382\n      jump\t// in\n    tag_487:\n        /* \"#utility.yul\":5401:5404   */\n      dup3\n        /* \"#utility.yul\":5394:5431   */\n      mstore\n        /* \"#utility.yul\":5319:5437   */\n      pop\n      pop\n      jump\t// out\n        /* \"#utility.yul\":5443:5665   */\n    tag_83:\n        /* \"#utility.yul\":5536:5540   */\n      0x00\n        /* \"#utility.yul\":5574:5576   */\n      0x20\n        /* \"#utility.yul\":5563:5572   */\n      dup3\n        /* \"#utility.yul\":5559:5577   */\n      add\n        /* \"#utility.yul\":5551:5577   */\n      swap1\n      pop\n        /* \"#utility.yul\":5587:5658   */\n      tag_489\n        /* \"#utility.yul\":5655:5656   */\n      0x00\n        /* \"#utility.yul\":5644:5653   */\n      dup4\n        /* \"#utility.yul\":5640:5657   */\n      add\n        /* \"#utility.yul\":5631:5637   */\n      dup5\n        /* \"#utility.yul\":5587:5658   */\n      tag_383\n      jump\t// in\n    tag_489:\n        /* \"#utility.yul\":5443:5665   */\n      swap3\n      swap2\n      pop\n      pop\n      jump\t// out\n        /* \"#utility.yul\":5671:5731   */\n    tag_384:\n        /* \"#utility.yul\":5699:5702   */\n      0x00\n        /* \"#utility.yul\":5720:5725   */\n      dup2\n        /* \"#utility.yul\":5713:5725   */\n      swap1\n      pop\n        /* \"#utility.yul\":5671:5731   */\n      swap2\n      swap1\n      pop\n      jump\t// out\n        /* \"#utility.yul\":5737:5879   */\n    tag_385:\n        /* \"#utility.yul\":5787:5796   */\n      0x00\n        /* \"#utility.yul\":5820:5873   */\n      tag_492\n        /* \"#utility.yul\":5838:5872   */\n      tag_493\n        /* \"#utility.yul\":5847:5871   */\n      tag_494\n        /* \"#utility.yul\":5865:5870   */\n      dup5\n        /* \"#utility.yul\":5847:5871   */\n      tag_374\n      jump\t// in\n    tag_494:\n        /* \"#utility.yul\":5838:5872   */\n      tag_384\n      jump\t// in\n    tag_493:\n        /* \"#utility.yul\":5820:5873   */\n      tag_374\n      jump\t// in\n    tag_492:\n        /* \"#utility.yul\":5807:5873   */\n      swap1\n      pop\n        /* \"#utility.yul\":5737:5879   */\n      swap2\n      swap1\n      pop\n      jump\t// out\n        /* \"#utility.yul\":5885:6011   */\n    tag_386:\n        /* \"#utility.yul\":5935:5944   */\n      0x00\n        /* \"#utility.yul\":5968:6005   */\n      tag_496\n        /* \"#utility.yul\":5999:6004   */\n      dup3\n        /* \"#utility.yul\":5968:6005   */\n      tag_385\n      jump\t// in\n    tag_496:\n        /* \"#utility.yul\":5955:6005   */\n      swap1\n      pop\n        /* \"#utility.yul\":5885:6011   */\n      swap2\n      swap1\n      pop\n      jump\t// out\n        /* \"#utility.yul\":6017:6156   */\n    tag_387:\n        /* \"#utility.yul\":6080:6089   */\n      0x00\n        /* \"#utility.yul\":6113:6150   */\n      tag_498\n        /* \"#utility.yul\":6144:6149   */\n      dup3\n        /* \"#utility.yul\":6113:6150   */\n      tag_386\n      jump\t// in\n    tag_498:\n        /* \"#utility.yul\":6100:6150   */\n      swap1\n      pop\n        /* \"#utility.yul\":6017:6156   */\n      swap2\n      swap1\n      pop\n      jump\t// out\n        /* \"#utility.yul\":6162:6319   */\n    tag_388:\n        /* \"#utility.yul\":6262:6312   */\n      tag_500\n        /* \"#utility.yul\":6306:6311   */\n      dup2\n        /* \"#utility.yul\":6262:6312   */\n      tag_387\n      jump\t// in\n    tag_500:\n        /* \"#utility.yul\":6257:6260   */\n      dup3\n        /* \"#utility.yul\":6250:6313   */\n      mstore\n        /* \"#utility.yul\":6162:6319   */\n      pop\n      pop\n      jump\t// out\n        /* \"#utility.yul\":6325:6573   */\n    tag_87:\n        /* \"#utility.yul\":6431:6435   */\n      0x00\n        /* \"#utility.yul\":6469:6471   */\n      0x20\n        /* \"#utility.yul\":6458:6467   */\n      dup3\n        /* \"#utility.yul\":6454:6472   */\n      add\n        /* \"#utility.yul\":6446:6472   */\n      swap1\n      pop\n        /* \"#utility.yul\":6482:6566   */\n      tag_502\n        /* \"#utility.yul\":6563:6564   */\n      0x00\n        /* \"#utility.yul\":6552:6561   */\n      dup4\n        /* \"#utility.yul\":6548:6565   */\n      add\n        /* \"#utility.yul\":6539:6545   */\n      dup5\n        /* \"#utility.yul\":6482:6566   */\n      tag_388\n      jump\t// in\n    tag_502:\n        /* \"#utility.yul\":6325:6573   */\n      swap3\n      swap2\n      pop\n      pop\n      jump\t// out\n        /* \"#utility.yul\":6579:6908   */\n    tag_90:\n        /* \"#utility.yul\":6638:6644   */\n      0x00\n        /* \"#utility.yul\":6687:6689   */\n      0x20\n        /* \"#utility.yul\":6675:6684   */\n      dup3\n        /* \"#utility.yul\":6666:6673   */\n      dup5\n        /* \"#utility.yul\":6662:6685   */\n      sub\n        /* \"#utility.yul\":6658:6690   */\n      slt\n        /* \"#utility.yul\":6655:6774   */\n      iszero\n      tag_504\n      jumpi\n        /* \"#utility.yul\":6693:6772   */\n      tag_505\n      tag_370\n      jump\t// in\n    tag_505:\n        /* \"#utility.yul\":6655:6774   */\n    tag_504:\n        /* \"#utility.yul\":6813:6814   */\n      0x00\n        /* \"#utility.yul\":6838:6891   */\n      tag_506\n        /* \"#utility.yul\":6883:6890   */\n      dup5\n        /* \"#utility.yul\":6874:6880   */\n      dup3\n        /* \"#utility.yul\":6863:6872   */\n      dup6\n        /* \"#utility.yul\":6859:6881   */\n      add\n        /* \"#utility.yul\":6838:6891   */\n      tag_377\n      jump\t// in\n    tag_506:\n        /* \"#utility.yul\":6828:6891   */\n      swap2\n      pop\n        /* \"#utility.yul\":6784:6901   */\n      pop\n        /* \"#utility.yul\":6579:6908   */\n      swap3\n      swap2\n      pop\n      pop\n      jump\t// out\n        /* \"#utility.yul\":6914:7032   */\n    tag_389:\n        /* \"#utility.yul\":7001:7025   */\n      tag_508\n        /* \"#utility.yul\":7019:7024   */\n      dup2\n        /* \"#utility.yul\":7001:7025   */\n      tag_375\n      jump\t// in\n    tag_508:\n        /* \"#utility.yul\":6996:6999   */\n      dup3\n        /* \"#utility.yul\":6989:7026   */\n      mstore\n        /* \"#utility.yul\":6914:7032   */\n      pop\n      pop\n      jump\t// out\n        /* \"#utility.yul\":7038:7260   */\n    tag_96:\n        /* \"#utility.yul\":7131:7135   */\n      0x00\n        /* \"#utility.yul\":7169:7171   */\n      0x20\n        /* \"#utility.yul\":7158:7167   */\n      dup3\n        /* \"#utility.yul\":7154:7172   */\n      add\n        /* \"#utility.yul\":7146:7172   */\n      swap1\n      pop\n        /* \"#utility.yul\":7182:7253   */\n      tag_510\n        /* \"#utility.yul\":7250:7251   */\n      0x00\n        /* \"#utility.yul\":7239:7248   */\n      dup4\n        /* \"#utility.yul\":7235:7252   */\n      add\n        /* \"#utility.yul\":7226:7232   */\n      dup5\n        /* \"#utility.yul\":7182:7253   */\n      tag_389\n      jump\t// in\n    tag_510:\n        /* \"#utility.yul\":7038:7260   */\n      swap3\n      swap2\n      pop\n      pop\n      jump\t// out\n        /* \"#utility.yul\":7266:7740   */\n    tag_103:\n        /* \"#utility.yul\":7334:7340   */\n      0x00\n        /* \"#utility.yul\":7342:7348   */\n      dup1\n        /* \"#utility.yul\":7391:7393   */\n      0x40\n        /* \"#utility.yul\":7379:7388   */\n      dup4\n        /* \"#utility.yul\":7370:7377   */\n      dup6\n        /* \"#utility.yul\":7366:7389   */\n      sub\n        /* \"#utility.yul\":7362:7394   */\n      slt\n        /* \"#utility.yul\":7359:7478   */\n      iszero\n      tag_512\n      jumpi\n        /* \"#utility.yul\":7397:7476   */\n      tag_513\n      tag_370\n      jump\t// in\n    tag_513:\n        /* \"#utility.yul\":7359:7478   */\n    tag_512:\n        /* \"#utility.yul\":7517:7518   */\n      0x00\n        /* \"#utility.yul\":7542:7595   */\n      tag_514\n        /* \"#utility.yul\":7587:7594   */\n      dup6\n        /* \"#utility.yul\":7578:7584   */\n      dup3\n        /* \"#utility.yul\":7567:7576   */\n      dup7\n        /* \"#utility.yul\":7563:7585   */\n      add\n        /* \"#utility.yul\":7542:7595   */\n      tag_373\n      jump\t// in\n    tag_514:\n        /* \"#utility.yul\":7532:7595   */\n      swap3\n      pop\n        /* \"#utility.yul\":7488:7605   */\n      pop\n        /* \"#utility.yul\":7644:7646   */\n      0x20\n        /* \"#utility.yul\":7670:7723   */\n      tag_515\n        /* \"#utility.yul\":7715:7722   */\n      dup6\n        /* \"#utility.yul\":7706:7712   */\n      dup3\n        /* \"#utility.yul\":7695:7704   */\n      dup7\n        /* \"#utility.yul\":7691:7713   */\n      add\n        /* \"#utility.yul\":7670:7723   */\n      tag_377\n      jump\t// in\n    tag_515:\n        /* \"#utility.yul\":7660:7723   */\n      swap2\n      pop\n        /* \"#utility.yul\":7615:7733   */\n      pop\n        /* \"#utility.yul\":7266:7740   */\n      swap3\n      pop\n      swap3\n      swap1\n      pop\n      jump\t// out\n        /* \"#utility.yul\":7746:8365   */\n    tag_139:\n        /* \"#utility.yul\":7823:7829   */\n      0x00\n        /* \"#utility.yul\":7831:7837   */\n      dup1\n        /* \"#utility.yul\":7839:7845   */\n      0x00\n        /* \"#utility.yul\":7888:7890   */\n      0x60\n        /* \"#utility.yul\":7876:7885   */\n      dup5\n        /* \"#utility.yul\":7867:7874   */\n      dup7\n        /* \"#utility.yul\":7863:7886   */\n      sub\n        /* \"#utility.yul\":7859:7891   */\n      slt\n        /* \"#utility.yul\":7856:7975   */\n      iszero\n      tag_517\n      jumpi\n        /* \"#utility.yul\":7894:7973   */\n      tag_518\n      tag_370\n      jump\t// in\n    tag_518:\n        /* \"#utility.yul\":7856:7975   */\n    tag_517:\n        /* \"#utility.yul\":8014:8015   */\n      0x00\n        /* \"#utility.yul\":8039:8092   */\n      tag_519\n        /* \"#utility.yul\":8084:8091   */\n      dup7\n        /* \"#utility.yul\":8075:8081   */\n      dup3\n        /* \"#utility.yul\":8064:8073   */\n      dup8\n        /* \"#utility.yul\":8060:8082   */\n      add\n        /* \"#utility.yul\":8039:8092   */\n      tag_373\n      jump\t// in\n    tag_519:\n        /* \"#utility.yul\":8029:8092   */\n      swap4\n      pop\n        /* \"#utility.yul\":7985:8102   */\n      pop\n        /* \"#utility.yul\":8141:8143   */\n      0x20\n        /* \"#utility.yul\":8167:8220   */\n      tag_520\n        /* \"#utility.yul\":8212:8219   */\n      dup7\n        /* \"#utility.yul\":8203:8209   */\n      dup3\n        /* \"#utility.yul\":8192:8201   */\n      dup8\n        /* \"#utility.yul\":8188:8210   */\n      add\n        /* \"#utility.yul\":8167:8220   */\n      tag_377\n      jump\t// in\n    tag_520:\n        /* \"#utility.yul\":8157:8220   */\n      swap3\n      pop\n        /* \"#utility.yul\":8112:8230   */\n      pop\n        /* \"#utility.yul\":8269:8271   */\n      0x40\n        /* \"#utility.yul\":8295:8348   */\n      tag_521\n        /* \"#utility.yul\":8340:8347   */\n      dup7\n        /* \"#utility.yul\":8331:8337   */\n      dup3\n        /* \"#utility.yul\":8320:8329   */\n      dup8\n        /* \"#utility.yul\":8316:8338   */\n      add\n        /* \"#utility.yul\":8295:8348   */\n      tag_377\n      jump\t// in\n    tag_521:\n        /* \"#utility.yul\":8285:8348   */\n      swap2\n      pop\n        /* \"#utility.yul\":8240:8358   */\n      pop\n        /* \"#utility.yul\":7746:8365   */\n      swap3\n      pop\n      swap3\n      pop\n      swap3\n      jump\t// out\n        /* \"#utility.yul\":8371:8489   */\n    tag_390:\n        /* \"#utility.yul\":8442:8464   */\n      tag_523\n        /* \"#utility.yul\":8458:8463   */\n      dup2\n        /* \"#utility.yul\":8442:8464   */\n      tag_380\n      jump\t// in\n    tag_523:\n        /* \"#utility.yul\":8435:8440   */\n      dup2\n        /* \"#utility.yul\":8432:8465   */\n      eq\n        /* \"#utility.yul\":8422:8483   */\n      tag_524\n      jumpi\n        /* \"#utility.yul\":8479:8480   */\n      0x00\n        /* \"#utility.yul\":8476:8477   */\n      dup1\n        /* \"#utility.yul\":8469:8481   */\n      revert\n        /* \"#utility.yul\":8422:8483   */\n    tag_524:\n        /* \"#utility.yul\":8371:8489   */\n      pop\n      jump\t// out\n        /* \"#utility.yul\":8495:8630   */\n    tag_391:\n        /* \"#utility.yul\":8539:8544   */\n      0x00\n        /* \"#utility.yul\":8577:8583   */\n      dup2\n        /* \"#utility.yul\":8564:8584   */\n      calldataload\n        /* \"#utility.yul\":8555:8584   */\n      swap1\n      pop\n        /* \"#utility.yul\":8593:8624   */\n      tag_526\n        /* \"#utility.yul\":8618:8623   */\n      dup2\n        /* \"#utility.yul\":8593:8624   */\n      tag_390\n      jump\t// in\n    tag_526:\n        /* \"#utility.yul\":8495:8630   */\n      swap3\n      swap2\n      pop\n      pop\n      jump\t// out\n        /* \"#utility.yul\":8636:8758   */\n    tag_392:\n        /* \"#utility.yul\":8709:8733   */\n      tag_528\n        /* \"#utility.yul\":8727:8732   */\n      dup2\n        /* \"#utility.yul\":8709:8733   */\n      tag_382\n      jump\t// in\n    tag_528:\n        /* \"#utility.yul\":8702:8707   */\n      dup2\n        /* \"#utility.yul\":8699:8734   */\n      eq\n        /* \"#utility.yul\":8689:8752   */\n      tag_529\n      jumpi\n        /* \"#utility.yul\":8748:8749   */\n      0x00\n        /* \"#utility.yul\":8745:8746   */\n      dup1\n        /* \"#utility.yul\":8738:8750   */\n      revert\n        /* \"#utility.yul\":8689:8752   */\n    tag_529:\n        /* \"#utility.yul\":8636:8758   */\n      pop\n      jump\t// out\n        /* \"#utility.yul\":8764:8903   */\n    tag_393:\n        /* \"#utility.yul\":8810:8815   */\n      0x00\n        /* \"#utility.yul\":8848:8854   */\n      dup2\n        /* \"#utility.yul\":8835:8855   */\n      calldataload\n        /* \"#utility.yul\":8826:8855   */\n      swap1\n      pop\n        /* \"#utility.yul\":8864:8897   */\n      tag_531\n        /* \"#utility.yul\":8891:8896   */\n      dup2\n        /* \"#utility.yul\":8864:8897   */\n      tag_392\n      jump\t// in\n    tag_531:\n        /* \"#utility.yul\":8764:8903   */\n      swap3\n      swap2\n      pop\n      pop\n      jump\t// out\n        /* \"#utility.yul\":8909:10108   */\n    tag_163:\n        /* \"#utility.yul\":9020:9026   */\n      0x00\n        /* \"#utility.yul\":9028:9034   */\n      dup1\n        /* \"#utility.yul\":9036:9042   */\n      0x00\n        /* \"#utility.yul\":9044:9050   */\n      dup1\n        /* \"#utility.yul\":9052:9058   */\n      0x00\n        /* \"#utility.yul\":9060:9066   */\n      dup1\n        /* \"#utility.yul\":9068:9074   */\n      0x00\n        /* \"#utility.yul\":9117:9120   */\n      0xe0\n        /* \"#utility.yul\":9105:9114   */\n      dup9\n        /* \"#utility.yul\":9096:9103   */\n      dup11\n        /* \"#utility.yul\":9092:9115   */\n      sub\n        /* \"#utility.yul\":9088:9121   */\n      slt\n        /* \"#utility.yul\":9085:9205   */\n      iszero\n      tag_533\n      jumpi\n        /* \"#utility.yul\":9124:9203   */\n      tag_534\n      tag_370\n      jump\t// in\n    tag_534:\n        /* \"#utility.yul\":9085:9205   */\n    tag_533:\n        /* \"#utility.yul\":9244:9245   */\n      0x00\n        /* \"#utility.yul\":9269:9322   */\n      tag_535\n        /* \"#utility.yul\":9314:9321   */\n      dup11\n        /* \"#utility.yul\":9305:9311   */\n      dup3\n        /* \"#utility.yul\":9294:9303   */\n      dup12\n        /* \"#utility.yul\":9290:9312   */\n      add\n        /* \"#utility.yul\":9269:9322   */\n      tag_377\n      jump\t// in\n    tag_535:\n        /* \"#utility.yul\":9259:9322   */\n      swap8\n      pop\n        /* \"#utility.yul\":9215:9332   */\n      pop\n        /* \"#utility.yul\":9371:9373   */\n      0x20\n        /* \"#utility.yul\":9397:9450   */\n      tag_536\n        /* \"#utility.yul\":9442:9449   */\n      dup11\n        /* \"#utility.yul\":9433:9439   */\n      dup3\n        /* \"#utility.yul\":9422:9431   */\n      dup12\n        /* \"#utility.yul\":9418:9440   */\n      add\n        /* \"#utility.yul\":9397:9450   */\n      tag_377\n      jump\t// in\n    tag_536:\n        /* \"#utility.yul\":9387:9450   */\n      swap7\n      pop\n        /* \"#utility.yul\":9342:9460   */\n      pop\n        /* \"#utility.yul\":9499:9501   */\n      0x40\n        /* \"#utility.yul\":9525:9578   */\n      tag_537\n        /* \"#utility.yul\":9570:9577   */\n      dup11\n        /* \"#utility.yul\":9561:9567   */\n      dup3\n        /* \"#utility.yul\":9550:9559   */\n      dup12\n        /* \"#utility.yul\":9546:9568   */\n      add\n        /* \"#utility.yul\":9525:9578   */\n      tag_373\n      jump\t// in\n    tag_537:\n        /* \"#utility.yul\":9515:9578   */\n      swap6\n      pop\n        /* \"#utility.yul\":9470:9588   */\n      pop\n        /* \"#utility.yul\":9627:9629   */\n      0x60\n        /* \"#utility.yul\":9653:9706   */\n      tag_538\n        /* \"#utility.yul\":9698:9705   */\n      dup11\n        /* \"#utility.yul\":9689:9695   */\n      dup3\n        /* \"#utility.yul\":9678:9687   */\n      dup12\n        /* \"#utility.yul\":9674:9696   */\n      add\n        /* \"#utility.yul\":9653:9706   */\n      tag_373\n      jump\t// in\n    tag_538:\n        /* \"#utility.yul\":9643:9706   */\n      swap5\n      pop\n        /* \"#utility.yul\":9598:9716   */\n      pop\n        /* \"#utility.yul\":9755:9758   */\n      0x80\n        /* \"#utility.yul\":9782:9833   */\n      tag_539\n        /* \"#utility.yul\":9825:9832   */\n      dup11\n        /* \"#utility.yul\":9816:9822   */\n      dup3\n        /* \"#utility.yul\":9805:9814   */\n      dup12\n        /* \"#utility.yul\":9801:9823   */\n      add\n        /* \"#utility.yul\":9782:9833   */\n      tag_391\n      jump\t// in\n    tag_539:\n        /* \"#utility.yul\":9772:9833   */\n      swap4\n      pop\n        /* \"#utility.yul\":9726:9843   */\n      pop\n        /* \"#utility.yul\":9882:9885   */\n      0xa0\n        /* \"#utility.yul\":9909:9962   */\n      tag_540\n        /* \"#utility.yul\":9954:9961   */\n      dup11\n        /* \"#utility.yul\":9945:9951   */\n      dup3\n        /* \"#utility.yul\":9934:9943   */\n      dup12\n        /* \"#utility.yul\":9930:9952   */\n      add\n        /* \"#utility.yul\":9909:9962   */\n      tag_393\n      jump\t// in\n    tag_540:\n        /* \"#utility.yul\":9899:9962   */\n      swap3\n      pop\n        /* \"#utility.yul\":9853:9972   */\n      pop\n        /* \"#utility.yul\":10011:10014   */\n      0xc0\n        /* \"#utility.yul\":10038:10091   */\n      tag_541\n        /* \"#utility.yul\":10083:10090   */\n      dup11\n        /* \"#utility.yul\":10074:10080   */\n      dup3\n        /* \"#utility.yul\":10063:10072   */\n      dup12\n        /* \"#utility.yul\":10059:10081   */\n      add\n        /* \"#utility.yul\":10038:10091   */\n      tag_393\n      jump\t// in\n    tag_541:\n        /* \"#utility.yul\":10028:10091   */\n      swap2\n      pop\n        /* \"#utility.yul\":9982:10101   */\n      pop\n        /* \"#utility.yul\":8909:10108   */\n      swap3\n      swap6\n      swap9\n      swap2\n      swap5\n      swap8\n      pop\n      swap3\n      swap6\n      pop\n      jump\t// out\n        /* \"#utility.yul\":10114:10588   */\n    tag_171:\n        /* \"#utility.yul\":10182:10188   */\n      0x00\n        /* \"#utility.yul\":10190:10196   */\n      dup1\n        /* \"#utility.yul\":10239:10241   */\n      0x40\n        /* \"#utility.yul\":10227:10236   */\n      dup4\n        /* \"#utility.yul\":10218:10225   */\n      dup6\n        /* \"#utility.yul\":10214:10237   */\n      sub\n        /* \"#utility.yul\":10210:10242   */\n      slt\n        /* \"#utility.yul\":10207:10326   */\n      iszero\n      tag_543\n      jumpi\n        /* \"#utility.yul\":10245:10324   */\n      tag_544\n      tag_370\n      jump\t// in\n    tag_544:\n        /* \"#utility.yul\":10207:10326   */\n    tag_543:\n        /* \"#utility.yul\":10365:10366   */\n      0x00\n        /* \"#utility.yul\":10390:10443   */\n      tag_545\n        /* \"#utility.yul\":10435:10442   */\n      dup6\n        /* \"#utility.yul\":10426:10432   */\n      dup3\n        /* \"#utility.yul\":10415:10424   */\n      dup7\n        /* \"#utility.yul\":10411:10433   */\n      add\n        /* \"#utility.yul\":10390:10443   */\n      tag_377\n      jump\t// in\n    tag_545:\n        /* \"#utility.yul\":10380:10443   */\n      swap3\n      pop\n        /* \"#utility.yul\":10336:10453   */\n      pop\n        /* \"#utility.yul\":10492:10494   */\n      0x20\n        /* \"#utility.yul\":10518:10571   */\n      tag_546\n        /* \"#utility.yul\":10563:10570   */\n      dup6\n        /* \"#utility.yul\":10554:10560   */\n      dup3\n        /* \"#utility.yul\":10543:10552   */\n      dup7\n        /* \"#utility.yul\":10539:10561   */\n      add\n        /* \"#utility.yul\":10518:10571   */\n      tag_377\n      jump\t// in\n    tag_546:\n        /* \"#utility.yul\":10508:10571   */\n      swap2\n      pop\n        /* \"#utility.yul\":10463:10581   */\n      pop\n        /* \"#utility.yul\":10114:10588   */\n      swap3\n      pop\n      swap3\n      swap1\n      pop\n      jump\t// out\n        /* \"#utility.yul\":10594:10737   */\n    tag_394:\n        /* \"#utility.yul\":10651:10656   */\n      0x00\n        /* \"#utility.yul\":10682:10688   */\n      dup2\n        /* \"#utility.yul\":10676:10689   */\n      mload\n        /* \"#utility.yul\":10667:10689   */\n      swap1\n      pop\n        /* \"#utility.yul\":10698:10731   */\n      tag_548\n        /* \"#utility.yul\":10725:10730   */\n      dup2\n        /* \"#utility.yul\":10698:10731   */\n      tag_372\n      jump\t// in\n    tag_548:\n        /* \"#utility.yul\":10594:10737   */\n      swap3\n      swap2\n      pop\n      pop\n      jump\t// out\n        /* \"#utility.yul\":10743:11094   */\n    tag_189:\n        /* \"#utility.yul\":10813:10819   */\n      0x00\n        /* \"#utility.yul\":10862:10864   */\n      0x20\n        /* \"#utility.yul\":10850:10859   */\n      dup3\n        /* \"#utility.yul\":10841:10848   */\n      dup5\n        /* \"#utility.yul\":10837:10860   */\n      sub\n        /* \"#utility.yul\":10833:10865   */\n      slt\n        /* \"#utility.yul\":10830:10949   */\n      iszero\n      tag_550\n      jumpi\n        /* \"#utility.yul\":10868:10947   */\n      tag_551\n      tag_370\n      jump\t// in\n    tag_551:\n        /* \"#utility.yul\":10830:10949   */\n    tag_550:\n        /* \"#utility.yul\":10988:10989   */\n      0x00\n        /* \"#utility.yul\":11013:11077   */\n      tag_552\n        /* \"#utility.yul\":11069:11076   */\n      dup5\n        /* \"#utility.yul\":11060:11066   */\n      dup3\n        /* \"#utility.yul\":11049:11058   */\n      dup6\n        /* \"#utility.yul\":11045:11067   */\n      add\n        /* \"#utility.yul\":11013:11077   */\n      tag_394\n      jump\t// in\n    tag_552:\n        /* \"#utility.yul\":11003:11077   */\n      swap2\n      pop\n        /* \"#utility.yul\":10959:11087   */\n      pop\n        /* \"#utility.yul\":10743:11094   */\n      swap3\n      swap2\n      pop\n      pop\n      jump\t// out\n        /* \"#utility.yul\":11100:11280   */\n    tag_395:\n        /* \"#utility.yul\":11148:11225   */\n      0x4e487b7100000000000000000000000000000000000000000000000000000000\n        /* \"#utility.yul\":11145:11146   */\n      0x00\n        /* \"#utility.yul\":11138:11226   */\n      mstore\n        /* \"#utility.yul\":11245:11249   */\n      0x22\n        /* \"#utility.yul\":11242:11243   */\n      0x04\n        /* \"#utility.yul\":11235:11250   */\n      mstore\n        /* \"#utility.yul\":11269:11273   */\n      0x24\n        /* \"#utility.yul\":11266:11267   */\n      0x00\n        /* \"#utility.yul\":11259:11274   */\n      revert\n        /* \"#utility.yul\":11286:11606   */\n    tag_191:\n        /* \"#utility.yul\":11330:11336   */\n      0x00\n        /* \"#utility.yul\":11367:11368   */\n      0x02\n        /* \"#utility.yul\":11361:11365   */\n      dup3\n        /* \"#utility.yul\":11357:11369   */\n      div\n        /* \"#utility.yul\":11347:11369   */\n      swap1\n      pop\n        /* \"#utility.yul\":11414:11415   */\n      0x01\n        /* \"#utility.yul\":11408:11412   */\n      dup3\n        /* \"#utility.yul\":11404:11416   */\n      and\n        /* \"#utility.yul\":11435:11453   */\n      dup1\n        /* \"#utility.yul\":11425:11506   */\n      tag_555\n      jumpi\n        /* \"#utility.yul\":11491:11495   */\n      0x7f\n        /* \"#utility.yul\":11483:11489   */\n      dup3\n        /* \"#utility.yul\":11479:11496   */\n      and\n        /* \"#utility.yul\":11469:11496   */\n      swap2\n      pop\n        /* \"#utility.yul\":11425:11506   */\n    tag_555:\n        /* \"#utility.yul\":11553:11555   */\n      0x20\n        /* \"#utility.yul\":11545:11551   */\n      dup3\n        /* \"#utility.yul\":11542:11556   */\n      lt\n        /* \"#utility.yul\":11522:11540   */\n      dup2\n        /* \"#utility.yul\":11519:11557   */\n      eq\n        /* \"#utility.yul\":11516:11600   */\n      iszero\n      tag_556\n      jumpi\n        /* \"#utility.yul\":11572:11590   */\n      tag_557\n      tag_395\n      jump\t// in\n    tag_557:\n        /* \"#utility.yul\":11516:11600   */\n    tag_556:\n        /* \"#utility.yul\":11337:11606   */\n      pop\n        /* \"#utility.yul\":11286:11606   */\n      swap2\n      swap1\n      pop\n      jump\t// out\n        /* \"#utility.yul\":11612:11792   */\n    tag_396:\n        /* \"#utility.yul\":11660:11737   */\n      0x4e487b7100000000000000000000000000000000000000000000000000000000\n        /* \"#utility.yul\":11657:11658   */\n      0x00\n        /* \"#utility.yul\":11650:11738   */\n      mstore\n        /* \"#utility.yul\":11757:11761   */\n      0x11\n        /* \"#utility.yul\":11754:11755   */\n      0x04\n        /* \"#utility.yul\":11747:11762   */\n      mstore\n        /* \"#utility.yul\":11781:11785   */\n      0x24\n        /* \"#utility.yul\":11778:11779   */\n      0x00\n        /* \"#utility.yul\":11771:11786   */\n      revert\n        /* \"#utility.yul\":11798:11989   */\n    tag_213:\n        /* \"#utility.yul\":11838:11842   */\n      0x00\n        /* \"#utility.yul\":11858:11878   */\n      tag_560\n        /* \"#utility.yul\":11876:11877   */\n      dup3\n        /* \"#utility.yul\":11858:11878   */\n      tag_362\n      jump\t// in\n    tag_560:\n        /* \"#utility.yul\":11853:11878   */\n      swap2\n      pop\n        /* \"#utility.yul\":11892:11912   */\n      tag_561\n        /* \"#utility.yul\":11910:11911   */\n      dup4\n        /* \"#utility.yul\":11892:11912   */\n      tag_362\n      jump\t// in\n    tag_561:\n        /* \"#utility.yul\":11887:11912   */\n      swap3\n      pop\n        /* \"#utility.yul\":11931:11932   */\n      dup3\n        /* \"#utility.yul\":11928:11929   */\n      dup3\n        /* \"#utility.yul\":11925:11933   */\n      lt\n        /* \"#utility.yul\":11922:11956   */\n      iszero\n      tag_562\n      jumpi\n        /* \"#utility.yul\":11936:11954   */\n      tag_563\n      tag_396\n      jump\t// in\n    tag_563:\n        /* \"#utility.yul\":11922:11956   */\n    tag_562:\n        /* \"#utility.yul\":11981:11982   */\n      dup3\n        /* \"#utility.yul\":11978:11979   */\n      dup3\n        /* \"#utility.yul\":11974:11983   */\n      sub\n        /* \"#utility.yul\":11966:11983   */\n      swap1\n      pop\n        /* \"#utility.yul\":11798:11989   */\n      swap3\n      swap2\n      pop\n      pop\n      jump\t// out\n        /* \"#utility.yul\":11995:12156   */\n    tag_397:\n        /* \"#utility.yul\":12135:12148   */\n      0x5a45524f5f534841524553000000000000000000000000000000000000000000\n        /* \"#utility.yul\":12131:12132   */\n      0x00\n        /* \"#utility.yul\":12123:12129   */\n      dup3\n        /* \"#utility.yul\":12119:12133   */\n      add\n        /* \"#utility.yul\":12112:12149   */\n      mstore\n        /* \"#utility.yul\":11995:12156   */\n      pop\n      jump\t// out\n        /* \"#utility.yul\":12162:12528   */\n    tag_398:\n        /* \"#utility.yul\":12304:12307   */\n      0x00\n        /* \"#utility.yul\":12325:12392   */\n      tag_566\n        /* \"#utility.yul\":12389:12391   */\n      0x0b\n        /* \"#utility.yul\":12384:12387   */\n      dup4\n        /* \"#utility.yul\":12325:12392   */\n      tag_365\n      jump\t// in\n    tag_566:\n        /* \"#utility.yul\":12318:12392   */\n      swap2\n      pop\n        /* \"#utility.yul\":12401:12494   */\n      tag_567\n        /* \"#utility.yul\":12490:12493   */\n      dup3\n        /* \"#utility.yul\":12401:12494   */\n      tag_397\n      jump\t// in\n    tag_567:\n        /* \"#utility.yul\":12519:12521   */\n      0x20\n        /* \"#utility.yul\":12514:12517   */\n      dup3\n        /* \"#utility.yul\":12510:12522   */\n      add\n        /* \"#utility.yul\":12503:12522   */\n      swap1\n      pop\n        /* \"#utility.yul\":12162:12528   */\n      swap2\n      swap1\n      pop\n      jump\t// out\n        /* \"#utility.yul\":12534:12953   */\n    tag_229:\n        /* \"#utility.yul\":12700:12704   */\n      0x00\n        /* \"#utility.yul\":12738:12740   */\n      0x20\n        /* \"#utility.yul\":12727:12736   */\n      dup3\n        /* \"#utility.yul\":12723:12741   */\n      add\n        /* \"#utility.yul\":12715:12741   */\n      swap1\n      pop\n        /* \"#utility.yul\":12787:12796   */\n      dup2\n        /* \"#utility.yul\":12781:12785   */\n      dup2\n        /* \"#utility.yul\":12777:12797   */\n      sub\n        /* \"#utility.yul\":12773:12774   */\n      0x00\n        /* \"#utility.yul\":12762:12771   */\n      dup4\n        /* \"#utility.yul\":12758:12775   */\n      add\n        /* \"#utility.yul\":12751:12798   */\n      mstore\n        /* \"#utility.yul\":12815:12946   */\n      tag_569\n        /* \"#utility.yul\":12941:12945   */\n      dup2\n        /* \"#utility.yul\":12815:12946   */\n      tag_398\n      jump\t// in\n    tag_569:\n        /* \"#utility.yul\":12807:12946   */\n      swap1\n      pop\n        /* \"#utility.yul\":12534:12953   */\n      swap2\n      swap1\n      pop\n      jump\t// out\n        /* \"#utility.yul\":12959:13291   */\n    tag_235:\n        /* \"#utility.yul\":13080:13084   */\n      0x00\n        /* \"#utility.yul\":13118:13120   */\n      0x40\n        /* \"#utility.yul\":13107:13116   */\n      dup3\n        /* \"#utility.yul\":13103:13121   */\n      add\n        /* \"#utility.yul\":13095:13121   */\n      swap1\n      pop\n        /* \"#utility.yul\":13131:13202   */\n      tag_571\n        /* \"#utility.yul\":13199:13200   */\n      0x00\n        /* \"#utility.yul\":13188:13197   */\n      dup4\n        /* \"#utility.yul\":13184:13201   */\n      add\n        /* \"#utility.yul\":13175:13181   */\n      dup6\n        /* \"#utility.yul\":13131:13202   */\n      tag_363\n      jump\t// in\n    tag_571:\n        /* \"#utility.yul\":13212:13284   */\n      tag_572\n        /* \"#utility.yul\":13280:13282   */\n      0x20\n        /* \"#utility.yul\":13269:13278   */\n      dup4\n        /* \"#utility.yul\":13265:13283   */\n      add\n        /* \"#utility.yul\":13256:13262   */\n      dup5\n        /* \"#utility.yul\":13212:13284   */\n      tag_363\n      jump\t// in\n    tag_572:\n        /* \"#utility.yul\":12959:13291   */\n      swap4\n      swap3\n      pop\n      pop\n      pop\n      jump\t// out\n        /* \"#utility.yul\":13297:13518   */\n    tag_399:\n        /* \"#utility.yul\":13437:13471   */\n      0x4f776e61626c653a2063616c6c6572206973206e6f7420746865206d616e6167\n        /* \"#utility.yul\":13433:13434   */\n      0x00\n        /* \"#utility.yul\":13425:13431   */\n      dup3\n        /* \"#utility.yul\":13421:13435   */\n      add\n        /* \"#utility.yul\":13414:13472   */\n      mstore\n        /* \"#utility.yul\":13506:13510   */\n      0x6572000000000000000000000000000000000000000000000000000000000000\n        /* \"#utility.yul\":13501:13503   */\n      0x20\n        /* \"#utility.yul\":13493:13499   */\n      dup3\n        /* \"#utility.yul\":13489:13504   */\n      add\n        /* \"#utility.yul\":13482:13511   */\n      mstore\n        /* \"#utility.yul\":13297:13518   */\n      pop\n      jump\t// out\n        /* \"#utility.yul\":13524:13890   */\n    tag_400:\n        /* \"#utility.yul\":13666:13669   */\n      0x00\n        /* \"#utility.yul\":13687:13754   */\n      tag_575\n        /* \"#utility.yul\":13751:13753   */\n      0x22\n        /* \"#utility.yul\":13746:13749   */\n      dup4\n        /* \"#utility.yul\":13687:13754   */\n      tag_365\n      jump\t// in\n    tag_575:\n        /* \"#utility.yul\":13680:13754   */\n      swap2\n      pop\n        /* \"#utility.yul\":13763:13856   */\n      tag_576\n        /* \"#utility.yul\":13852:13855   */\n      dup3\n        /* \"#utility.yul\":13763:13856   */\n      tag_399\n      jump\t// in\n    tag_576:\n        /* \"#utility.yul\":13881:13883   */\n      0x40\n        /* \"#utility.yul\":13876:13879   */\n      dup3\n        /* \"#utility.yul\":13872:13884   */\n      add\n        /* \"#utility.yul\":13865:13884   */\n      swap1\n      pop\n        /* \"#utility.yul\":13524:13890   */\n      swap2\n      swap1\n      pop\n      jump\t// out\n        /* \"#utility.yul\":13896:14315   */\n    tag_242:\n        /* \"#utility.yul\":14062:14066   */\n      0x00\n        /* \"#utility.yul\":14100:14102   */\n      0x20\n        /* \"#utility.yul\":14089:14098   */\n      dup3\n        /* \"#utility.yul\":14085:14103   */\n      add\n        /* \"#utility.yul\":14077:14103   */\n      swap1\n      pop\n        /* \"#utility.yul\":14149:14158   */\n      dup2\n        /* \"#utility.yul\":14143:14147   */\n      dup2\n        /* \"#utility.yul\":14139:14159   */\n      sub\n        /* \"#utility.yul\":14135:14136   */\n      0x00\n        /* \"#utility.yul\":14124:14133   */\n      dup4\n        /* \"#utility.yul\":14120:14137   */\n      add\n        /* \"#utility.yul\":14113:14160   */\n      mstore\n        /* \"#utility.yul\":14177:14308   */\n      tag_578\n        /* \"#utility.yul\":14303:14307   */\n      dup2\n        /* \"#utility.yul\":14177:14308   */\n      tag_400\n      jump\t// in\n    tag_578:\n        /* \"#utility.yul\":14169:14308   */\n      swap1\n      pop\n        /* \"#utility.yul\":13896:14315   */\n      swap2\n      swap1\n      pop\n      jump\t// out\n        /* \"#utility.yul\":14321:14483   */\n    tag_401:\n        /* \"#utility.yul\":14461:14475   */\n      0x4645455f544f4f5f484947480000000000000000000000000000000000000000\n        /* \"#utility.yul\":14457:14458   */\n      0x00\n        /* \"#utility.yul\":14449:14455   */\n      dup3\n        /* \"#utility.yul\":14445:14459   */\n      add\n        /* \"#utility.yul\":14438:14476   */\n      mstore\n        /* \"#utility.yul\":14321:14483   */\n      pop\n      jump\t// out\n        /* \"#utility.yul\":14489:14855   */\n    tag_402:\n        /* \"#utility.yul\":14631:14634   */\n      0x00\n        /* \"#utility.yul\":14652:14719   */\n      tag_581\n        /* \"#utility.yul\":14716:14718   */\n      0x0c\n        /* \"#utility.yul\":14711:14714   */\n      dup4\n        /* \"#utility.yul\":14652:14719   */\n      tag_365\n      jump\t// in\n    tag_581:\n        /* \"#utility.yul\":14645:14719   */\n      swap2\n      pop\n        /* \"#utility.yul\":14728:14821   */\n      tag_582\n        /* \"#utility.yul\":14817:14820   */\n      dup3\n        /* \"#utility.yul\":14728:14821   */\n      tag_401\n      jump\t// in\n    tag_582:\n        /* \"#utility.yul\":14846:14848   */\n      0x20\n        /* \"#utility.yul\":14841:14844   */\n      dup3\n        /* \"#utility.yul\":14837:14849   */\n      add\n        /* \"#utility.yul\":14830:14849   */\n      swap1\n      pop\n        /* \"#utility.yul\":14489:14855   */\n      swap2\n      swap1\n      pop\n      jump\t// out\n        /* \"#utility.yul\":14861:15280   */\n    tag_251:\n        /* \"#utility.yul\":15027:15031   */\n      0x00\n        /* \"#utility.yul\":15065:15067   */\n      0x20\n        /* \"#utility.yul\":15054:15063   */\n      dup3\n        /* \"#utility.yul\":15050:15068   */\n      add\n        /* \"#utility.yul\":15042:15068   */\n      swap1\n      pop\n        /* \"#utility.yul\":15114:15123   */\n      dup2\n        /* \"#utility.yul\":15108:15112   */\n      dup2\n        /* \"#utility.yul\":15104:15124   */\n      sub\n        /* \"#utility.yul\":15100:15101   */\n      0x00\n        /* \"#utility.yul\":15089:15098   */\n      dup4\n        /* \"#utility.yul\":15085:15102   */\n      add\n        /* \"#utility.yul\":15078:15125   */\n      mstore\n        /* \"#utility.yul\":15142:15273   */\n      tag_584\n        /* \"#utility.yul\":15268:15272   */\n      dup2\n        /* \"#utility.yul\":15142:15273   */\n      tag_402\n      jump\t// in\n    tag_584:\n        /* \"#utility.yul\":15134:15273   */\n      swap1\n      pop\n        /* \"#utility.yul\":14861:15280   */\n      swap2\n      swap1\n      pop\n      jump\t// out\n        /* \"#utility.yul\":15286:15447   */\n    tag_403:\n        /* \"#utility.yul\":15426:15439   */\n      0x5a45524f5f415353455453000000000000000000000000000000000000000000\n        /* \"#utility.yul\":15422:15423   */\n      0x00\n        /* \"#utility.yul\":15414:15420   */\n      dup3\n        /* \"#utility.yul\":15410:15424   */\n      add\n        /* \"#utility.yul\":15403:15440   */\n      mstore\n        /* \"#utility.yul\":15286:15447   */\n      pop\n      jump\t// out\n        /* \"#utility.yul\":15453:15819   */\n    tag_404:\n        /* \"#utility.yul\":15595:15598   */\n      0x00\n        /* \"#utility.yul\":15616:15683   */\n      tag_587\n        /* \"#utility.yul\":15680:15682   */\n      0x0b\n        /* \"#utility.yul\":15675:15678   */\n      dup4\n        /* \"#utility.yul\":15616:15683   */\n      tag_365\n      jump\t// in\n    tag_587:\n        /* \"#utility.yul\":15609:15683   */\n      swap2\n      pop\n        /* \"#utility.yul\":15692:15785   */\n      tag_588\n        /* \"#utility.yul\":15781:15784   */\n      dup3\n        /* \"#utility.yul\":15692:15785   */\n      tag_403\n      jump\t// in\n    tag_588:\n        /* \"#utility.yul\":15810:15812   */\n      0x20\n        /* \"#utility.yul\":15805:15808   */\n      dup3\n        /* \"#utility.yul\":15801:15813   */\n      add\n        /* \"#utility.yul\":15794:15813   */\n      swap1\n      pop\n        /* \"#utility.yul\":15453:15819   */\n      swap2\n      swap1\n      pop\n      jump\t// out\n        /* \"#utility.yul\":15825:16244   */\n    tag_291:\n        /* \"#utility.yul\":15991:15995   */\n      0x00\n        /* \"#utility.yul\":16029:16031   */\n      0x20\n        /* \"#utility.yul\":16018:16027   */\n      dup3\n        /* \"#utility.yul\":16014:16032   */\n      add\n        /* \"#utility.yul\":16006:16032   */\n      swap1\n      pop\n        /* \"#utility.yul\":16078:16087   */\n      dup2\n        /* \"#utility.yul\":16072:16076   */\n      dup2\n        /* \"#utility.yul\":16068:16088   */\n      sub\n        /* \"#utility.yul\":16064:16065   */\n      0x00\n        /* \"#utility.yul\":16053:16062   */\n      dup4\n        /* \"#utility.yul\":16049:16066   */\n      add\n        /* \"#utility.yul\":16042:16089   */\n      mstore\n        /* \"#utility.yul\":16106:16237   */\n      tag_590\n        /* \"#utility.yul\":16232:16236   */\n      dup2\n        /* \"#utility.yul\":16106:16237   */\n      tag_404\n      jump\t// in\n    tag_590:\n        /* \"#utility.yul\":16098:16237   */\n      swap1\n      pop\n        /* \"#utility.yul\":15825:16244   */\n      swap2\n      swap1\n      pop\n      jump\t// out\n        /* \"#utility.yul\":16250:16423   */\n    tag_405:\n        /* \"#utility.yul\":16390:16415   */\n      0x5045524d49545f444541444c494e455f45585049524544000000000000000000\n        /* \"#utility.yul\":16386:16387   */\n      0x00\n        /* \"#utility.yul\":16378:16384   */\n      dup3\n        /* \"#utility.yul\":16374:16388   */\n      add\n        /* \"#utility.yul\":16367:16416   */\n      mstore\n        /* \"#utility.yul\":16250:16423   */\n      pop\n      jump\t// out\n        /* \"#utility.yul\":16429:16795   */\n    tag_406:\n        /* \"#utility.yul\":16571:16574   */\n      0x00\n        /* \"#utility.yul\":16592:16659   */\n      tag_593\n        /* \"#utility.yul\":16656:16658   */\n      0x17\n        /* \"#utility.yul\":16651:16654   */\n      dup4\n        /* \"#utility.yul\":16592:16659   */\n      tag_365\n      jump\t// in\n    tag_593:\n        /* \"#utility.yul\":16585:16659   */\n      swap2\n      pop\n        /* \"#utility.yul\":16668:16761   */\n      tag_594\n        /* \"#utility.yul\":16757:16760   */\n      dup3\n        /* \"#utility.yul\":16668:16761   */\n      tag_405\n      jump\t// in\n    tag_594:\n        /* \"#utility.yul\":16786:16788   */\n      0x20\n        /* \"#utility.yul\":16781:16784   */\n      dup3\n        /* \"#utility.yul\":16777:16789   */\n      add\n        /* \"#utility.yul\":16770:16789   */\n      swap1\n      pop\n        /* \"#utility.yul\":16429:16795   */\n      swap2\n      swap1\n      pop\n      jump\t// out\n        /* \"#utility.yul\":16801:17220   */\n    tag_307:\n        /* \"#utility.yul\":16967:16971   */\n      0x00\n        /* \"#utility.yul\":17005:17007   */\n      0x20\n        /* \"#utility.yul\":16994:17003   */\n      dup3\n        /* \"#utility.yul\":16990:17008   */\n      add\n        /* \"#utility.yul\":16982:17008   */\n      swap1\n      pop\n        /* \"#utility.yul\":17054:17063   */\n      dup2\n        /* \"#utility.yul\":17048:17052   */\n      dup2\n        /* \"#utility.yul\":17044:17064   */\n      sub\n        /* \"#utility.yul\":17040:17041   */\n      0x00\n        /* \"#utility.yul\":17029:17038   */\n      dup4\n        /* \"#utility.yul\":17025:17042   */\n      add\n        /* \"#utility.yul\":17018:17065   */\n      mstore\n        /* \"#utility.yul\":17082:17213   */\n      tag_596\n        /* \"#utility.yul\":17208:17212   */\n      dup2\n        /* \"#utility.yul\":17082:17213   */\n      tag_406\n      jump\t// in\n    tag_596:\n        /* \"#utility.yul\":17074:17213   */\n      swap1\n      pop\n        /* \"#utility.yul\":16801:17220   */\n      swap2\n      swap1\n      pop\n      jump\t// out\n        /* \"#utility.yul\":17226:18001   */\n    tag_310:\n        /* \"#utility.yul\":17459:17463   */\n      0x00\n        /* \"#utility.yul\":17497:17500   */\n      0xc0\n        /* \"#utility.yul\":17486:17495   */\n      dup3\n        /* \"#utility.yul\":17482:17501   */\n      add\n        /* \"#utility.yul\":17474:17501   */\n      swap1\n      pop\n        /* \"#utility.yul\":17511:17582   */\n      tag_598\n        /* \"#utility.yul\":17579:17580   */\n      0x00\n        /* \"#utility.yul\":17568:17577   */\n      dup4\n        /* \"#utility.yul\":17564:17581   */\n      add\n        /* \"#utility.yul\":17555:17561   */\n      dup10\n        /* \"#utility.yul\":17511:17582   */\n      tag_383\n      jump\t// in\n    tag_598:\n        /* \"#utility.yul\":17592:17664   */\n      tag_599\n        /* \"#utility.yul\":17660:17662   */\n      0x20\n        /* \"#utility.yul\":17649:17658   */\n      dup4\n        /* \"#utility.yul\":17645:17663   */\n      add\n        /* \"#utility.yul\":17636:17642   */\n      dup9\n        /* \"#utility.yul\":17592:17664   */\n      tag_389\n      jump\t// in\n    tag_599:\n        /* \"#utility.yul\":17674:17746   */\n      tag_600\n        /* \"#utility.yul\":17742:17744   */\n      0x40\n        /* \"#utility.yul\":17731:17740   */\n      dup4\n        /* \"#utility.yul\":17727:17745   */\n      add\n        /* \"#utility.yul\":17718:17724   */\n      dup8\n        /* \"#utility.yul\":17674:17746   */\n      tag_389\n      jump\t// in\n    tag_600:\n        /* \"#utility.yul\":17756:17828   */\n      tag_601\n        /* \"#utility.yul\":17824:17826   */\n      0x60\n        /* \"#utility.yul\":17813:17822   */\n      dup4\n        /* \"#utility.yul\":17809:17827   */\n      add\n        /* \"#utility.yul\":17800:17806   */\n      dup7\n        /* \"#utility.yul\":17756:17828   */\n      tag_363\n      jump\t// in\n    tag_601:\n        /* \"#utility.yul\":17838:17911   */\n      tag_602\n        /* \"#utility.yul\":17906:17909   */\n      0x80\n        /* \"#utility.yul\":17895:17904   */\n      dup4\n        /* \"#utility.yul\":17891:17910   */\n      add\n        /* \"#utility.yul\":17882:17888   */\n      dup6\n        /* \"#utility.yul\":17838:17911   */\n      tag_363\n      jump\t// in\n    tag_602:\n        /* \"#utility.yul\":17921:17994   */\n      tag_603\n        /* \"#utility.yul\":17989:17992   */\n      0xa0\n        /* \"#utility.yul\":17978:17987   */\n      dup4\n        /* \"#utility.yul\":17974:17993   */\n      add\n        /* \"#utility.yul\":17965:17971   */\n      dup5\n        /* \"#utility.yul\":17921:17994   */\n      tag_363\n      jump\t// in\n    tag_603:\n        /* \"#utility.yul\":17226:18001   */\n      swap8\n      swap7\n      pop\n      pop\n      pop\n      pop\n      pop\n      pop\n      pop\n      jump\t// out\n        /* \"#utility.yul\":18007:18155   */\n    tag_407:\n        /* \"#utility.yul\":18109:18120   */\n      0x00\n        /* \"#utility.yul\":18146:18149   */\n      dup2\n        /* \"#utility.yul\":18131:18149   */\n      swap1\n      pop\n        /* \"#utility.yul\":18007:18155   */\n      swap3\n      swap2\n      pop\n      pop\n      jump\t// out\n        /* \"#utility.yul\":18161:18375   */\n    tag_408:\n        /* \"#utility.yul\":18301:18367   */\n      0x1901000000000000000000000000000000000000000000000000000000000000\n        /* \"#utility.yul\":18297:18298   */\n      0x00\n        /* \"#utility.yul\":18289:18295   */\n      dup3\n        /* \"#utility.yul\":18285:18299   */\n      add\n        /* \"#utility.yul\":18278:18368   */\n      mstore\n        /* \"#utility.yul\":18161:18375   */\n      pop\n      jump\t// out\n        /* \"#utility.yul\":18381:18781   */\n    tag_409:\n        /* \"#utility.yul\":18541:18544   */\n      0x00\n        /* \"#utility.yul\":18562:18646   */\n      tag_607\n        /* \"#utility.yul\":18644:18645   */\n      0x02\n        /* \"#utility.yul\":18639:18642   */\n      dup4\n        /* \"#utility.yul\":18562:18646   */\n      tag_407\n      jump\t// in\n    tag_607:\n        /* \"#utility.yul\":18555:18646   */\n      swap2\n      pop\n        /* \"#utility.yul\":18655:18748   */\n      tag_608\n        /* \"#utility.yul\":18744:18747   */\n      dup3\n        /* \"#utility.yul\":18655:18748   */\n      tag_408\n      jump\t// in\n    tag_608:\n        /* \"#utility.yul\":18773:18774   */\n      0x02\n        /* \"#utility.yul\":18768:18771   */\n      dup3\n        /* \"#utility.yul\":18764:18775   */\n      add\n        /* \"#utility.yul\":18757:18775   */\n      swap1\n      pop\n        /* \"#utility.yul\":18381:18781   */\n      swap2\n      swap1\n      pop\n      jump\t// out\n        /* \"#utility.yul\":18787:18866   */\n    tag_410:\n        /* \"#utility.yul\":18826:18833   */\n      0x00\n        /* \"#utility.yul\":18855:18860   */\n      dup2\n        /* \"#utility.yul\":18844:18860   */\n      swap1\n      pop\n        /* \"#utility.yul\":18787:18866   */\n      swap2\n      swap1\n      pop\n      jump\t// out\n        /* \"#utility.yul\":18872:19029   */\n    tag_411:\n        /* \"#utility.yul\":18977:19022   */\n      tag_611\n        /* \"#utility.yul\":18997:19021   */\n      tag_612\n        /* \"#utility.yul\":19015:19020   */\n      dup3\n        /* \"#utility.yul\":18997:19021   */\n      tag_382\n      jump\t// in\n    tag_612:\n        /* \"#utility.yul\":18977:19022   */\n      tag_410\n      jump\t// in\n    tag_611:\n        /* \"#utility.yul\":18972:18975   */\n      dup3\n        /* \"#utility.yul\":18965:19023   */\n      mstore\n        /* \"#utility.yul\":18872:19029   */\n      pop\n      pop\n      jump\t// out\n        /* \"#utility.yul\":19035:19698   */\n    tag_312:\n        /* \"#utility.yul\":19276:19279   */\n      0x00\n        /* \"#utility.yul\":19298:19446   */\n      tag_614\n        /* \"#utility.yul\":19442:19445   */\n      dup3\n        /* \"#utility.yul\":19298:19446   */\n      tag_409\n      jump\t// in\n    tag_614:\n        /* \"#utility.yul\":19291:19446   */\n      swap2\n      pop\n        /* \"#utility.yul\":19456:19531   */\n      tag_615\n        /* \"#utility.yul\":19527:19530   */\n      dup3\n        /* \"#utility.yul\":19518:19524   */\n      dup6\n        /* \"#utility.yul\":19456:19531   */\n      tag_411\n      jump\t// in\n    tag_615:\n        /* \"#utility.yul\":19556:19558   */\n      0x20\n        /* \"#utility.yul\":19551:19554   */\n      dup3\n        /* \"#utility.yul\":19547:19559   */\n      add\n        /* \"#utility.yul\":19540:19559   */\n      swap2\n      pop\n        /* \"#utility.yul\":19569:19644   */\n      tag_616\n        /* \"#utility.yul\":19640:19643   */\n      dup3\n        /* \"#utility.yul\":19631:19637   */\n      dup5\n        /* \"#utility.yul\":19569:19644   */\n      tag_411\n      jump\t// in\n    tag_616:\n        /* \"#utility.yul\":19669:19671   */\n      0x20\n        /* \"#utility.yul\":19664:19667   */\n      dup3\n        /* \"#utility.yul\":19660:19672   */\n      add\n        /* \"#utility.yul\":19653:19672   */\n      swap2\n      pop\n        /* \"#utility.yul\":19689:19692   */\n      dup2\n        /* \"#utility.yul\":19682:19692   */\n      swap1\n      pop\n        /* \"#utility.yul\":19035:19698   */\n      swap4\n      swap3\n      pop\n      pop\n      pop\n      jump\t// out\n        /* \"#utility.yul\":19704:20249   */\n    tag_314:\n        /* \"#utility.yul\":19877:19881   */\n      0x00\n        /* \"#utility.yul\":19915:19918   */\n      0x80\n        /* \"#utility.yul\":19904:19913   */\n      dup3\n        /* \"#utility.yul\":19900:19919   */\n      add\n        /* \"#utility.yul\":19892:19919   */\n      swap1\n      pop\n        /* \"#utility.yul\":19929:20000   */\n      tag_618\n        /* \"#utility.yul\":19997:19998   */\n      0x00\n        /* \"#utility.yul\":19986:19995   */\n      dup4\n        /* \"#utility.yul\":19982:19999   */\n      add\n        /* \"#utility.yul\":19973:19979   */\n      dup8\n        /* \"#utility.yul\":19929:20000   */\n      tag_383\n      jump\t// in\n    tag_618:\n        /* \"#utility.yul\":20010:20078   */\n      tag_619\n        /* \"#utility.yul\":20074:20076   */\n      0x20\n        /* \"#utility.yul\":20063:20072   */\n      dup4\n        /* \"#utility.yul\":20059:20077   */\n      add\n        /* \"#utility.yul\":20050:20056   */\n      dup7\n        /* \"#utility.yul\":20010:20078   */\n      tag_381\n      jump\t// in\n    tag_619:\n        /* \"#utility.yul\":20088:20160   */\n      tag_620\n        /* \"#utility.yul\":20156:20158   */\n      0x40\n        /* \"#utility.yul\":20145:20154   */\n      dup4\n        /* \"#utility.yul\":20141:20159   */\n      add\n        /* \"#utility.yul\":20132:20138   */\n      dup6\n        /* \"#utility.yul\":20088:20160   */\n      tag_383\n      jump\t// in\n    tag_620:\n        /* \"#utility.yul\":20170:20242   */\n      tag_621\n        /* \"#utility.yul\":20238:20240   */\n      0x60\n        /* \"#utility.yul\":20227:20236   */\n      dup4\n        /* \"#utility.yul\":20223:20241   */\n      add\n        /* \"#utility.yul\":20214:20220   */\n      dup5\n        /* \"#utility.yul\":20170:20242   */\n      tag_383\n      jump\t// in\n    tag_621:\n        /* \"#utility.yul\":19704:20249   */\n      swap6\n      swap5\n      pop\n      pop\n      pop\n      pop\n      pop\n      jump\t// out\n        /* \"#utility.yul\":20255:20419   */\n    tag_412:\n        /* \"#utility.yul\":20395:20411   */\n      0x494e56414c49445f5349474e4552000000000000000000000000000000000000\n        /* \"#utility.yul\":20391:20392   */\n      0x00\n        /* \"#utility.yul\":20383:20389   */\n      dup3\n        /* \"#utility.yul\":20379:20393   */\n      add\n        /* \"#utility.yul\":20372:20412   */\n      mstore\n        /* \"#utility.yul\":20255:20419   */\n      pop\n      jump\t// out\n        /* \"#utility.yul\":20425:20791   */\n    tag_413:\n        /* \"#utility.yul\":20567:20570   */\n      0x00\n        /* \"#utility.yul\":20588:20655   */\n      tag_624\n        /* \"#utility.yul\":20652:20654   */\n      0x0e\n        /* \"#utility.yul\":20647:20650   */\n      dup4\n        /* \"#utility.yul\":20588:20655   */\n      tag_365\n      jump\t// in\n    tag_624:\n        /* \"#utility.yul\":20581:20655   */\n      swap2\n      pop\n        /* \"#utility.yul\":20664:20757   */\n      tag_625\n        /* \"#utility.yul\":20753:20756   */\n      dup3\n        /* \"#utility.yul\":20664:20757   */\n      tag_412\n      jump\t// in\n    tag_625:\n        /* \"#utility.yul\":20782:20784   */\n      0x20\n        /* \"#utility.yul\":20777:20780   */\n      dup3\n        /* \"#utility.yul\":20773:20785   */\n      add\n        /* \"#utility.yul\":20766:20785   */\n      swap1\n      pop\n        /* \"#utility.yul\":20425:20791   */\n      swap2\n      swap1\n      pop\n      jump\t// out\n        /* \"#utility.yul\":20797:21216   */\n    tag_320:\n        /* \"#utility.yul\":20963:20967   */\n      0x00\n        /* \"#utility.yul\":21001:21003   */\n      0x20\n        /* \"#utility.yul\":20990:20999   */\n      dup3\n        /* \"#utility.yul\":20986:21004   */\n      add\n        /* \"#utility.yul\":20978:21004   */\n      swap1\n      pop\n        /* \"#utility.yul\":21050:21059   */\n      dup2\n        /* \"#utility.yul\":21044:21048   */\n      dup2\n        /* \"#utility.yul\":21040:21060   */\n      sub\n        /* \"#utility.yul\":21036:21037   */\n      0x00\n        /* \"#utility.yul\":21025:21034   */\n      dup4\n        /* \"#utility.yul\":21021:21038   */\n      add\n        /* \"#utility.yul\":21014:21061   */\n      mstore\n        /* \"#utility.yul\":21078:21209   */\n      tag_627\n        /* \"#utility.yul\":21204:21208   */\n      dup2\n        /* \"#utility.yul\":21078:21209   */\n      tag_413\n      jump\t// in\n    tag_627:\n        /* \"#utility.yul\":21070:21209   */\n      swap1\n      pop\n        /* \"#utility.yul\":20797:21216   */\n      swap2\n      swap1\n      pop\n      jump\t// out\n        /* \"#utility.yul\":21222:21449   */\n    tag_414:\n        /* \"#utility.yul\":21362:21396   */\n      0x4f776e61626c653a206e6577206d616e6167657220697320746865207a65726f\n        /* \"#utility.yul\":21358:21359   */\n      0x00\n        /* \"#utility.yul\":21350:21356   */\n      dup3\n        /* \"#utility.yul\":21346:21360   */\n      add\n        /* \"#utility.yul\":21339:21397   */\n      mstore\n        /* \"#utility.yul\":21431:21441   */\n      0x2061646472657373000000000000000000000000000000000000000000000000\n        /* \"#utility.yul\":21426:21428   */\n      0x20\n        /* \"#utility.yul\":21418:21424   */\n      dup3\n        /* \"#utility.yul\":21414:21429   */\n      add\n        /* \"#utility.yul\":21407:21442   */\n      mstore\n        /* \"#utility.yul\":21222:21449   */\n      pop\n      jump\t// out\n        /* \"#utility.yul\":21455:21821   */\n    tag_415:\n        /* \"#utility.yul\":21597:21600   */\n      0x00\n        /* \"#utility.yul\":21618:21685   */\n      tag_630\n        /* \"#utility.yul\":21682:21684   */\n      0x28\n        /* \"#utility.yul\":21677:21680   */\n      dup4\n        /* \"#utility.yul\":21618:21685   */\n      tag_365\n      jump\t// in\n    tag_630:\n        /* \"#utility.yul\":21611:21685   */\n      swap2\n      pop\n        /* \"#utility.yul\":21694:21787   */\n      tag_631\n        /* \"#utility.yul\":21783:21786   */\n      dup3\n        /* \"#utility.yul\":21694:21787   */\n      tag_414\n      jump\t// in\n    tag_631:\n        /* \"#utility.yul\":21812:21814   */\n      0x40\n        /* \"#utility.yul\":21807:21810   */\n      dup3\n        /* \"#utility.yul\":21803:21815   */\n      add\n        /* \"#utility.yul\":21796:21815   */\n      swap1\n      pop\n        /* \"#utility.yul\":21455:21821   */\n      swap2\n      swap1\n      pop\n      jump\t// out\n        /* \"#utility.yul\":21827:22246   */\n    tag_332:\n        /* \"#utility.yul\":21993:21997   */\n      0x00\n        /* \"#utility.yul\":22031:22033   */\n      0x20\n        /* \"#utility.yul\":22020:22029   */\n      dup3\n        /* \"#utility.yul\":22016:22034   */\n      add\n        /* \"#utility.yul\":22008:22034   */\n      swap1\n      pop\n        /* \"#utility.yul\":22080:22089   */\n      dup2\n        /* \"#utility.yul\":22074:22078   */\n      dup2\n        /* \"#utility.yul\":22070:22090   */\n      sub\n        /* \"#utility.yul\":22066:22067   */\n      0x00\n        /* \"#utility.yul\":22055:22064   */\n      dup4\n        /* \"#utility.yul\":22051:22068   */\n      add\n        /* \"#utility.yul\":22044:22091   */\n      mstore\n        /* \"#utility.yul\":22108:22239   */\n      tag_633\n        /* \"#utility.yul\":22234:22238   */\n      dup2\n        /* \"#utility.yul\":22108:22239   */\n      tag_415\n      jump\t// in\n    tag_633:\n        /* \"#utility.yul\":22100:22239   */\n      swap1\n      pop\n        /* \"#utility.yul\":21827:22246   */\n      swap2\n      swap1\n      pop\n      jump\t// out\n        /* \"#utility.yul\":22252:22399   */\n    tag_416:\n        /* \"#utility.yul\":22353:22364   */\n      0x00\n        /* \"#utility.yul\":22390:22393   */\n      dup2\n        /* \"#utility.yul\":22375:22393   */\n      swap1\n      pop\n        /* \"#utility.yul\":22252:22399   */\n      swap3\n      swap2\n      pop\n      pop\n      jump\t// out\n        /* \"#utility.yul\":22405:22549   */\n    tag_417:\n        /* \"#utility.yul\":22457:22461   */\n      0x00\n        /* \"#utility.yul\":22480:22483   */\n      dup2\n        /* \"#utility.yul\":22472:22483   */\n      swap1\n      pop\n        /* \"#utility.yul\":22503:22506   */\n      dup2\n        /* \"#utility.yul\":22500:22501   */\n      0x00\n        /* \"#utility.yul\":22493:22507   */\n      mstore\n        /* \"#utility.yul\":22537:22541   */\n      0x20\n        /* \"#utility.yul\":22534:22535   */\n      0x00\n        /* \"#utility.yul\":22524:22542   */\n      keccak256\n        /* \"#utility.yul\":22516:22542   */\n      swap1\n      pop\n        /* \"#utility.yul\":22405:22549   */\n      swap2\n      swap1\n      pop\n      jump\t// out\n        /* \"#utility.yul\":22577:23426   */\n    tag_418:\n        /* \"#utility.yul\":22682:22685   */\n      0x00\n        /* \"#utility.yul\":22719:22724   */\n      dup2\n        /* \"#utility.yul\":22713:22725   */\n      sload\n        /* \"#utility.yul\":22748:22784   */\n      tag_637\n        /* \"#utility.yul\":22774:22783   */\n      dup2\n        /* \"#utility.yul\":22748:22784   */\n      tag_191\n      jump\t// in\n    tag_637:\n        /* \"#utility.yul\":22800:22888   */\n      tag_638\n        /* \"#utility.yul\":22881:22887   */\n      dup2\n        /* \"#utility.yul\":22876:22879   */\n      dup7\n        /* \"#utility.yul\":22800:22888   */\n      tag_416\n      jump\t// in\n    tag_638:\n        /* \"#utility.yul\":22793:22888   */\n      swap5\n      pop\n        /* \"#utility.yul\":22919:22920   */\n      0x01\n        /* \"#utility.yul\":22908:22917   */\n      dup3\n        /* \"#utility.yul\":22904:22921   */\n      and\n        /* \"#utility.yul\":22935:22936   */\n      0x00\n        /* \"#utility.yul\":22930:23067   */\n      dup2\n      eq\n      tag_640\n      jumpi\n        /* \"#utility.yul\":23081:23082   */\n      0x01\n        /* \"#utility.yul\":23076:23420   */\n      dup2\n      eq\n      tag_641\n      jumpi\n        /* \"#utility.yul\":22897:23420   */\n      jump(tag_639)\n        /* \"#utility.yul\":22930:23067   */\n    tag_640:\n        /* \"#utility.yul\":23014:23018   */\n      0xff\n        /* \"#utility.yul\":23010:23019   */\n      not\n        /* \"#utility.yul\":22999:23008   */\n      dup4\n        /* \"#utility.yul\":22995:23020   */\n      and\n        /* \"#utility.yul\":22990:22993   */\n      dup7\n        /* \"#utility.yul\":22983:23021   */\n      mstore\n        /* \"#utility.yul\":23050:23056   */\n      dup2\n        /* \"#utility.yul\":23045:23048   */\n      dup7\n        /* \"#utility.yul\":23041:23057   */\n      add\n        /* \"#utility.yul\":23034:23057   */\n      swap4\n      pop\n        /* \"#utility.yul\":22930:23067   */\n      jump(tag_639)\n        /* \"#utility.yul\":23076:23420   */\n    tag_641:\n        /* \"#utility.yul\":23143:23184   */\n      tag_642\n        /* \"#utility.yul\":23178:23183   */\n      dup6\n        /* \"#utility.yul\":23143:23184   */\n      tag_417\n      jump\t// in\n    tag_642:\n        /* \"#utility.yul\":23206:23207   */\n      0x00\n        /* \"#utility.yul\":23220:23374   */\n    tag_643:\n        /* \"#utility.yul\":23234:23240   */\n      dup4\n        /* \"#utility.yul\":23231:23232   */\n      dup2\n        /* \"#utility.yul\":23228:23241   */\n      lt\n        /* \"#utility.yul\":23220:23374   */\n      iszero\n      tag_645\n      jumpi\n        /* \"#utility.yul\":23308:23315   */\n      dup2\n        /* \"#utility.yul\":23302:23316   */\n      sload\n        /* \"#utility.yul\":23298:23299   */\n      dup2\n        /* \"#utility.yul\":23293:23296   */\n      dup10\n        /* \"#utility.yul\":23289:23300   */\n      add\n        /* \"#utility.yul\":23282:23317   */\n      mstore\n        /* \"#utility.yul\":23358:23359   */\n      0x01\n        /* \"#utility.yul\":23349:23356   */\n      dup3\n        /* \"#utility.yul\":23345:23360   */\n      add\n        /* \"#utility.yul\":23334:23360   */\n      swap2\n      pop\n        /* \"#utility.yul\":23256:23260   */\n      0x20\n        /* \"#utility.yul\":23253:23254   */\n      dup2\n        /* \"#utility.yul\":23249:23261   */\n      add\n        /* \"#utility.yul\":23244:23261   */\n      swap1\n      pop\n        /* \"#utility.yul\":23220:23374   */\n      jump(tag_643)\n    tag_645:\n        /* \"#utility.yul\":23403:23409   */\n      dup4\n        /* \"#utility.yul\":23398:23401   */\n      dup9\n        /* \"#utility.yul\":23394:23410   */\n      add\n        /* \"#utility.yul\":23387:23410   */\n      swap6\n      pop\n        /* \"#utility.yul\":23083:23420   */\n      pop\n      pop\n        /* \"#utility.yul\":22897:23420   */\n    tag_639:\n      pop\n        /* \"#utility.yul\":22686:23426   */\n      pop\n      pop\n        /* \"#utility.yul\":22577:23426   */\n      swap3\n      swap2\n      pop\n      pop\n      jump\t// out\n        /* \"#utility.yul\":23432:23705   */\n    tag_339:\n        /* \"#utility.yul\":23563:23566   */\n      0x00\n        /* \"#utility.yul\":23585:23679   */\n      tag_647\n        /* \"#utility.yul\":23675:23678   */\n      dup3\n        /* \"#utility.yul\":23666:23672   */\n      dup5\n        /* \"#utility.yul\":23585:23679   */\n      tag_418\n      jump\t// in\n    tag_647:\n        /* \"#utility.yul\":23578:23679   */\n      swap2\n      pop\n        /* \"#utility.yul\":23696:23699   */\n      dup2\n        /* \"#utility.yul\":23689:23699   */\n      swap1\n      pop\n        /* \"#utility.yul\":23432:23705   */\n      swap3\n      swap2\n      pop\n      pop\n      jump\t// out\n        /* \"#utility.yul\":23711:24375   */\n    tag_341:\n        /* \"#utility.yul\":23916:23920   */\n      0x00\n        /* \"#utility.yul\":23954:23957   */\n      0xa0\n        /* \"#utility.yul\":23943:23952   */\n      dup3\n        /* \"#utility.yul\":23939:23958   */\n      add\n        /* \"#utility.yul\":23931:23958   */\n      swap1\n      pop\n        /* \"#utility.yul\":23968:24039   */\n      tag_649\n        /* \"#utility.yul\":24036:24037   */\n      0x00\n        /* \"#utility.yul\":24025:24034   */\n      dup4\n        /* \"#utility.yul\":24021:24038   */\n      add\n        /* \"#utility.yul\":24012:24018   */\n      dup9\n        /* \"#utility.yul\":23968:24039   */\n      tag_383\n      jump\t// in\n    tag_649:\n        /* \"#utility.yul\":24049:24121   */\n      tag_650\n        /* \"#utility.yul\":24117:24119   */\n      0x20\n        /* \"#utility.yul\":24106:24115   */\n      dup4\n        /* \"#utility.yul\":24102:24120   */\n      add\n        /* \"#utility.yul\":24093:24099   */\n      dup8\n        /* \"#utility.yul\":24049:24121   */\n      tag_383\n      jump\t// in\n    tag_650:\n        /* \"#utility.yul\":24131:24203   */\n      tag_651\n        /* \"#utility.yul\":24199:24201   */\n      0x40\n        /* \"#utility.yul\":24188:24197   */\n      dup4\n        /* \"#utility.yul\":24184:24202   */\n      add\n        /* \"#utility.yul\":24175:24181   */\n      dup7\n        /* \"#utility.yul\":24131:24203   */\n      tag_383\n      jump\t// in\n    tag_651:\n        /* \"#utility.yul\":24213:24285   */\n      tag_652\n        /* \"#utility.yul\":24281:24283   */\n      0x60\n        /* \"#utility.yul\":24270:24279   */\n      dup4\n        /* \"#utility.yul\":24266:24284   */\n      add\n        /* \"#utility.yul\":24257:24263   */\n      dup6\n        /* \"#utility.yul\":24213:24285   */\n      tag_363\n      jump\t// in\n    tag_652:\n        /* \"#utility.yul\":24295:24368   */\n      tag_653\n        /* \"#utility.yul\":24363:24366   */\n      0x80\n        /* \"#utility.yul\":24352:24361   */\n      dup4\n        /* \"#utility.yul\":24348:24367   */\n      add\n        /* \"#utility.yul\":24339:24345   */\n      dup5\n        /* \"#utility.yul\":24295:24368   */\n      tag_389\n      jump\t// in\n    tag_653:\n        /* \"#utility.yul\":23711:24375   */\n      swap7\n      swap6\n      pop\n      pop\n      pop\n      pop\n      pop\n      pop\n      jump\t// out\n        /* \"#utility.yul\":24381:24551   */\n    tag_419:\n        /* \"#utility.yul\":24521:24543   */\n      0x5452414e534645525f46524f4d5f4641494c4544000000000000000000000000\n        /* \"#utility.yul\":24517:24518   */\n      0x00\n        /* \"#utility.yul\":24509:24515   */\n      dup3\n        /* \"#utility.yul\":24505:24519   */\n      add\n        /* \"#utility.yul\":24498:24544   */\n      mstore\n        /* \"#utility.yul\":24381:24551   */\n      pop\n      jump\t// out\n        /* \"#utility.yul\":24557:24923   */\n    tag_420:\n        /* \"#utility.yul\":24699:24702   */\n      0x00\n        /* \"#utility.yul\":24720:24787   */\n      tag_656\n        /* \"#utility.yul\":24784:24786   */\n      0x14\n        /* \"#utility.yul\":24779:24782   */\n      dup4\n        /* \"#utility.yul\":24720:24787   */\n      tag_365\n      jump\t// in\n    tag_656:\n        /* \"#utility.yul\":24713:24787   */\n      swap2\n      pop\n        /* \"#utility.yul\":24796:24889   */\n      tag_657\n        /* \"#utility.yul\":24885:24888   */\n      dup3\n        /* \"#utility.yul\":24796:24889   */\n      tag_419\n      jump\t// in\n    tag_657:\n        /* \"#utility.yul\":24914:24916   */\n      0x20\n        /* \"#utility.yul\":24909:24912   */\n      dup3\n        /* \"#utility.yul\":24905:24917   */\n      add\n        /* \"#utility.yul\":24898:24917   */\n      swap1\n      pop\n        /* \"#utility.yul\":24557:24923   */\n      swap2\n      swap1\n      pop\n      jump\t// out\n        /* \"#utility.yul\":24929:25348   */\n    tag_345:\n        /* \"#utility.yul\":25095:25099   */\n      0x00\n        /* \"#utility.yul\":25133:25135   */\n      0x20\n        /* \"#utility.yul\":25122:25131   */\n      dup3\n        /* \"#utility.yul\":25118:25136   */\n      add\n        /* \"#utility.yul\":25110:25136   */\n      swap1\n      pop\n        /* \"#utility.yul\":25182:25191   */\n      dup2\n        /* \"#utility.yul\":25176:25180   */\n      dup2\n        /* \"#utility.yul\":25172:25192   */\n      sub\n        /* \"#utility.yul\":25168:25169   */\n      0x00\n        /* \"#utility.yul\":25157:25166   */\n      dup4\n        /* \"#utility.yul\":25153:25170   */\n      add\n        /* \"#utility.yul\":25146:25193   */\n      mstore\n        /* \"#utility.yul\":25210:25341   */\n      tag_659\n        /* \"#utility.yul\":25336:25340   */\n      dup2\n        /* \"#utility.yul\":25210:25341   */\n      tag_420\n      jump\t// in\n    tag_659:\n        /* \"#utility.yul\":25202:25341   */\n      swap1\n      pop\n        /* \"#utility.yul\":24929:25348   */\n      swap2\n      swap1\n      pop\n      jump\t// out\n        /* \"#utility.yul\":25354:25659   */\n    tag_348:\n        /* \"#utility.yul\":25394:25397   */\n      0x00\n        /* \"#utility.yul\":25413:25433   */\n      tag_661\n        /* \"#utility.yul\":25431:25432   */\n      dup3\n        /* \"#utility.yul\":25413:25433   */\n      tag_362\n      jump\t// in\n    tag_661:\n        /* \"#utility.yul\":25408:25433   */\n      swap2\n      pop\n        /* \"#utility.yul\":25447:25467   */\n      tag_662\n        /* \"#utility.yul\":25465:25466   */\n      dup4\n        /* \"#utility.yul\":25447:25467   */\n      tag_362\n      jump\t// in\n    tag_662:\n        /* \"#utility.yul\":25442:25467   */\n      swap3\n      pop\n        /* \"#utility.yul\":25601:25602   */\n      dup3\n        /* \"#utility.yul\":25533:25599   */\n      0xffffffffffffffffffffffffffffffffffffffffffffffffffffffffffffffff\n        /* \"#utility.yul\":25529:25603   */\n      sub\n        /* \"#utility.yul\":25526:25527   */\n      dup3\n        /* \"#utility.yul\":25523:25604   */\n      gt\n        /* \"#utility.yul\":25520:25627   */\n      iszero\n      tag_663\n      jumpi\n        /* \"#utility.yul\":25607:25625   */\n      tag_664\n      tag_396\n      jump\t// in\n    tag_664:\n        /* \"#utility.yul\":25520:25627   */\n    tag_663:\n        /* \"#utility.yul\":25651:25652   */\n      dup3\n        /* \"#utility.yul\":25648:25649   */\n      dup3\n        /* \"#utility.yul\":25644:25653   */\n      add\n        /* \"#utility.yul\":25637:25653   */\n      swap1\n      pop\n        /* \"#utility.yul\":25354:25659   */\n      swap3\n      swap2\n      pop\n      pop\n      jump\t// out\n        /* \"#utility.yul\":25665:25898   */\n    tag_352:\n        /* \"#utility.yul\":25704:25707   */\n      0x00\n        /* \"#utility.yul\":25727:25751   */\n      tag_666\n        /* \"#utility.yul\":25745:25750   */\n      dup3\n        /* \"#utility.yul\":25727:25751   */\n      tag_362\n      jump\t// in\n    tag_666:\n        /* \"#utility.yul\":25718:25751   */\n      swap2\n      pop\n        /* \"#utility.yul\":25773:25839   */\n      0xffffffffffffffffffffffffffffffffffffffffffffffffffffffffffffffff\n        /* \"#utility.yul\":25766:25771   */\n      dup3\n        /* \"#utility.yul\":25763:25840   */\n      eq\n        /* \"#utility.yul\":25760:25863   */\n      iszero\n      tag_667\n      jumpi\n        /* \"#utility.yul\":25843:25861   */\n      tag_668\n      tag_396\n      jump\t// in\n    tag_668:\n        /* \"#utility.yul\":25760:25863   */\n    tag_667:\n        /* \"#utility.yul\":25890:25891   */\n      0x01\n        /* \"#utility.yul\":25883:25888   */\n      dup3\n        /* \"#utility.yul\":25879:25892   */\n      add\n        /* \"#utility.yul\":25872:25892   */\n      swap1\n      pop\n        /* \"#utility.yul\":25665:25898   */\n      swap2\n      swap1\n      pop\n      jump\t// out\n        /* \"#utility.yul\":25904:26069   */\n    tag_421:\n        /* \"#utility.yul\":26044:26061   */\n      0x5452414e534645525f4641494c45440000000000000000000000000000000000\n        /* \"#utility.yul\":26040:26041   */\n      0x00\n        /* \"#utility.yul\":26032:26038   */\n      dup3\n        /* \"#utility.yul\":26028:26042   */\n      add\n        /* \"#utility.yul\":26021:26062   */\n      mstore\n        /* \"#utility.yul\":25904:26069   */\n      pop\n      jump\t// out\n        /* \"#utility.yul\":26075:26441   */\n    tag_422:\n        /* \"#utility.yul\":26217:26220   */\n      0x00\n        /* \"#utility.yul\":26238:26305   */\n      tag_671\n        /* \"#utility.yul\":26302:26304   */\n      0x0f\n        /* \"#utility.yul\":26297:26300   */\n      dup4\n        /* \"#utility.yul\":26238:26305   */\n      tag_365\n      jump\t// in\n    tag_671:\n        /* \"#utility.yul\":26231:26305   */\n      swap2\n      pop\n        /* \"#utility.yul\":26314:26407   */\n      tag_672\n        /* \"#utility.yul\":26403:26406   */\n      dup3\n        /* \"#utility.yul\":26314:26407   */\n      tag_421\n      jump\t// in\n    tag_672:\n        /* \"#utility.yul\":26432:26434   */\n      0x20\n        /* \"#utility.yul\":26427:26430   */\n      dup3\n        /* \"#utility.yul\":26423:26435   */\n      add\n        /* \"#utility.yul\":26416:26435   */\n      swap1\n      pop\n        /* \"#utility.yul\":26075:26441   */\n      swap2\n      swap1\n      pop\n      jump\t// out\n        /* \"#utility.yul\":26447:26866   */\n    tag_361:\n        /* \"#utility.yul\":26613:26617   */\n      0x00\n        /* \"#utility.yul\":26651:26653   */\n      0x20\n        /* \"#utility.yul\":26640:26649   */\n      dup3\n        /* \"#utility.yul\":26636:26654   */\n      add\n        /* \"#utility.yul\":26628:26654   */\n      swap1\n      pop\n        /* \"#utility.yul\":26700:26709   */\n      dup2\n        /* \"#utility.yul\":26694:26698   */\n      dup2\n        /* \"#utility.yul\":26690:26710   */\n      sub\n        /* \"#utility.yul\":26686:26687   */\n      0x00\n        /* \"#utility.yul\":26675:26684   */\n      dup4\n        /* \"#utility.yul\":26671:26688   */\n      add\n        /* \"#utility.yul\":26664:26711   */\n      mstore\n        /* \"#utility.yul\":26728:26859   */\n      tag_674\n        /* \"#utility.yul\":26854:26858   */\n      dup2\n        /* \"#utility.yul\":26728:26859   */\n      tag_422\n      jump\t// in\n    tag_674:\n        /* \"#utility.yul\":26720:26859   */\n      swap1\n      pop\n        /* \"#utility.yul\":26447:26866   */\n      swap2\n      swap1\n      pop\n      jump\t// out\n\n    auxdata: 0xa264697066735822122081d244fb204493329c32e52ed0eb0e2ee61ebbe2dd4034abb6ea9df21e05998464736f6c634300080a0033\n}\n",
				"bytecode": {
					"linkReferences": {},
					"object": "610100604052600060075560006008553480156200001c57600080fd5b5060405162003812380380620038128339818101604052810190620000429190620004a8565b83838383828282826000908051906020019062000061929190620001a4565b5081600190805190602001906200007a929190620001a4565b508060ff1660808160ff16815250504660a08181525050620000a16200011460201b60201c565b60c081815250505050508373ffffffffffffffffffffffffffffffffffffffff1660e08173ffffffffffffffffffffffffffffffffffffffff1681525050505050507fffffffffffffffffffffffffffffffffffffffffffffffffffffffffffffffff6002819055505050505062000725565b60007f8b73c3c69bb8fe3d512ecc4cf759cc79239f7b179b0ffacaa9a75d522b39400f600060405162000148919062000668565b60405180910390207fc89efdaa54c0f20c7adf612882df0950f5a951637e0307cdcb4c672f298b8bc6463060405160200162000189959493929190620006c8565b60405160208183030381529060405280519060200120905090565b828054620001b29062000587565b90600052602060002090601f016020900481019282620001d6576000855562000222565b82601f10620001f157805160ff191683800117855562000222565b8280016001018555821562000222579182015b828111156200022157825182559160200191906001019062000204565b5b50905062000231919062000235565b5090565b5b808211156200025057600081600090555060010162000236565b5090565b6000604051905090565b600080fd5b600080fd5b600073ffffffffffffffffffffffffffffffffffffffff82169050919050565b6000620002958262000268565b9050919050565b6000620002a98262000288565b9050919050565b620002bb816200029c565b8114620002c757600080fd5b50565b600081519050620002db81620002b0565b92915050565b600080fd5b600080fd5b6000601f19601f8301169050919050565b7f4e487b7100000000000000000000000000000000000000000000000000000000600052604160045260246000fd5b6200033682620002eb565b810181811067ffffffffffffffff82111715620003585762000357620002fc565b5b80604052505050565b60006200036d62000254565b90506200037b82826200032b565b919050565b600067ffffffffffffffff8211156200039e576200039d620002fc565b5b620003a982620002eb565b9050602081019050919050565b60005b83811015620003d6578082015181840152602081019050620003b9565b83811115620003e6576000848401525b50505050565b600062000403620003fd8462000380565b62000361565b905082815260208101848484011115620004225762000421620002e6565b5b6200042f848285620003b6565b509392505050565b600082601f8301126200044f576200044e620002e1565b5b815162000461848260208601620003ec565b91505092915050565b600060ff82169050919050565b62000482816200046a565b81146200048e57600080fd5b50565b600081519050620004a28162000477565b92915050565b60008060008060808587031215620004c557620004c46200025e565b5b6000620004d587828801620002ca565b945050602085015167ffffffffffffffff811115620004f957620004f862000263565b5b620005078782880162000437565b935050604085015167ffffffffffffffff8111156200052b576200052a62000263565b5b620005398782880162000437565b92505060606200054c8782880162000491565b91505092959194509250565b7f4e487b7100000000000000000000000000000000000000000000000000000000600052602260045260246000fd5b60006002820490506001821680620005a057607f821691505b60208210811415620005b757620005b662000558565b5b50919050565b600081905092915050565b60008190508160005260206000209050919050565b60008154620005ec8162000587565b620005f88186620005bd565b9450600182166000811462000616576001811462000628576200065f565b60ff198316865281860193506200065f565b6200063385620005c8565b60005b83811015620006575781548189015260018201915060208101905062000636565b838801955050505b50505092915050565b6000620006768284620005dd565b915081905092915050565b6000819050919050565b620006968162000681565b82525050565b6000819050919050565b620006b1816200069c565b82525050565b620006c28162000288565b82525050565b600060a082019050620006df60008301886200068b565b620006ee60208301876200068b565b620006fd60408301866200068b565b6200070c6060830185620006a6565b6200071b6080830184620006b7565b9695505050505050565b60805160a05160c05160e051613090620007826000396000818161078201528181610ce801528181610dc801528181611127015281816115da015261187901526000610cc101526000610c8d01526000610c6701526130906000f3fe608060405234801561001057600080fd5b50600436106102115760003560e01c80637ecebe0011610125578063c63d75b6116100ad578063d905777e1161007c578063d905777e146106b4578063dd62ed3e146106e4578063ef8b30f714610714578063f2fde38b14610744578063fc407ae71461076057610211565b8063c63d75b614610608578063c6e6f59214610638578063ce96cb7714610668578063d505accf1461069857610211565b8063a9059cbb116100f4578063a9059cbb1461052a578063b3d7f6b91461055a578063b460af941461058a578063ba087652146105ba578063bc368a8a146105ea57610211565b80637ecebe001461048e5780637fd6f15c146104be57806394bf804d146104dc57806395d89b411461050c57610211565b80633644e515116101a85780634cdad506116101775780634cdad506146103d85780636e553f651461040857806370a0823114610438578063715018a6146104685780637ce3489b1461047257610211565b80633644e5151461034e57806338d52e0f1461036c578063402d267d1461038a578063481c6a75146103ba57610211565b80630a28a477116101e45780630a28a477146102b257806318160ddd146102e257806323b872dd14610300578063313ce5671461033057610211565b806301e1d1141461021657806306fdde031461023457806307a2d13a14610252578063095ea7b314610282575b600080fd5b61021e61077e565b60405161022b91906122b2565b60405180910390f35b61023c61081f565b6040516102499190612366565b60405180910390f35b61026c600480360381019061026791906123b9565b6108ad565b60405161027991906122b2565b60405180910390f35b61029c60048036038101906102979190612444565b6108e8565b6040516102a9919061249f565b60405180910390f35b6102cc60048036038101906102c791906123b9565b6109da565b6040516102d991906122b2565b60405180910390f35b6102ea610a15565b6040516102f791906122b2565b60405180910390f35b61031a600480360381019061031591906124ba565b610a1b565b604051610327919061249f565b60405180910390f35b610338610c65565b6040516103459190612529565b60405180910390f35b610356610c89565b604051610363919061255d565b60405180910390f35b610374610ce6565b60405161038191906125d7565b60405180910390f35b6103a4600480360381019061039f91906125f2565b610d0a565b6040516103b191906122b2565b60405180910390f35b6103c2610d34565b6040516103cf919061262e565b60405180910390f35b6103f260048036038101906103ed91906123b9565b610d5e565b6040516103ff91906122b2565b60405180910390f35b610422600480360381019061041d9190612649565b610d70565b60405161042f91906122b2565b60405180910390f35b610452600480360381019061044d91906125f2565b610e8e565b60405161045f91906122b2565b60405180910390f35b610470610ea6565b005b61048c600480360381019061048791906123b9565b610fdc565b005b6104a860048036038101906104a391906125f2565b6110f4565b6040516104b591906122b2565b60405180910390f35b6104c661110c565b6040516104d391906122b2565b60405180910390f35b6104f660048036038101906104f19190612649565b611112565b60405161050391906122b2565b60405180910390f35b6105146111ed565b6040516105219190612366565b60405180910390f35b610544600480360381019061053f9190612444565b61127b565b604051610551919061249f565b60405180910390f35b610574600480360381019061056f91906123b9565b61138f565b60405161058191906122b2565b60405180910390f35b6105a4600480360381019061059f9190612689565b6113ca565b6040516105b191906122b2565b60405180910390f35b6105d460048036038101906105cf9190612689565b611625565b6040516105e191906122b2565b60405180910390f35b6105f26118c4565b6040516105ff91906122b2565b60405180910390f35b610622600480360381019061061d91906125f2565b6118ca565b60405161062f91906122b2565b60405180910390f35b610652600480360381019061064d91906123b9565b6118f4565b60405161065f91906122b2565b60405180910390f35b610682600480360381019061067d91906125f2565b61192f565b60405161068f91906122b2565b60405180910390f35b6106b260048036038101906106ad9190612734565b611980565b005b6106ce60048036038101906106c991906125f2565b611c79565b6040516106db91906122b2565b60405180910390f35b6106fe60048036038101906106f991906127d6565b611cc2565b60405161070b91906122b2565b60405180910390f35b61072e600480360381019061072991906123b9565b611ce7565b60405161073b91906122b2565b60405180910390f35b61075e600480360381019061075991906125f2565b611cf9565b005b610768611e9e565b60405161077591906122b2565b60405180910390f35b60007f000000000000000000000000000000000000000000000000000000000000000073ffffffffffffffffffffffffffffffffffffffff166370a08231306040518263ffffffff1660e01b81526004016107d9919061262e565b602060405180830381865afa1580156107f6573d6000803e3d6000fd5b505050506040513d601f19601f8201168201806040525081019061081a919061282b565b905090565b6000805461082c90612887565b80601f016020809104026020016040519081016040528092919081815260200182805461085890612887565b80156108a55780601f1061087a576101008083540402835291602001916108a5565b820191906000526020600020905b81548152906001019060200180831161088857829003601f168201915b505050505081565b6000806002549050600081146108de576108d96108c861077e565b8285611ea49092919063ffffffff16565b6108e0565b825b915050919050565b600081600460003373ffffffffffffffffffffffffffffffffffffffff1673ffffffffffffffffffffffffffffffffffffffff16815260200190815260200160002060008573ffffffffffffffffffffffffffffffffffffffff1673ffffffffffffffffffffffffffffffffffffffff168152602001908152602001600020819055508273ffffffffffffffffffffffffffffffffffffffff163373ffffffffffffffffffffffffffffffffffffffff167f8c5be1e5ebec7d5bd14f71427d1e84f3dd0314c0f7b2291e5b200ac8c7c3b925846040516109c891906122b2565b60405180910390a36001905092915050565b600080600254905060008114610a0b57610a06816109f661077e565b85611ecc9092919063ffffffff16565b610a0d565b825b915050919050565b60025481565b600080600460008673ffffffffffffffffffffffffffffffffffffffff1673ffffffffffffffffffffffffffffffffffffffff16815260200190815260200160002060003373ffffffffffffffffffffffffffffffffffffffff1673ffffffffffffffffffffffffffffffffffffffff1681526020019081526020016000205490507fffffffffffffffffffffffffffffffffffffffffffffffffffffffffffffffff8114610b51578281610ad091906128e8565b600460008773ffffffffffffffffffffffffffffffffffffffff1673ffffffffffffffffffffffffffffffffffffffff16815260200190815260200160002060003373ffffffffffffffffffffffffffffffffffffffff1673ffffffffffffffffffffffffffffffffffffffff168152602001908152602001600020819055505b82600360008773ffffffffffffffffffffffffffffffffffffffff1673ffffffffffffffffffffffffffffffffffffffff1681526020019081526020016000206000828254610ba091906128e8565b9250508190555082600360008673ffffffffffffffffffffffffffffffffffffffff1673ffffffffffffffffffffffffffffffffffffffff168152602001908152602001600020600082825401925050819055508373ffffffffffffffffffffffffffffffffffffffff168573ffffffffffffffffffffffffffffffffffffffff167fddf252ad1be2c89b69c2b068fc378daa952ba7f163c4a11628f55a4df523b3ef85604051610c5191906122b2565b60405180910390a360019150509392505050565b7f000000000000000000000000000000000000000000000000000000000000000081565b60007f00000000000000000000000000000000000000000000000000000000000000004614610cbf57610cba611efe565b610ce1565b7f00000000000000000000000000000000000000000000000000000000000000005b905090565b7f000000000000000000000000000000000000000000000000000000000000000081565b60007fffffffffffffffffffffffffffffffffffffffffffffffffffffffffffffffff9050919050565b6000600660009054906101000a900473ffffffffffffffffffffffffffffffffffffffff16905090565b6000610d69826108ad565b9050919050565b600080610d7c84611ce7565b9150811415610dc0576040517f08c379a0000000000000000000000000000000000000000000000000000000008152600401610db790612968565b60405180910390fd5b610e0d3330857f000000000000000000000000000000000000000000000000000000000000000073ffffffffffffffffffffffffffffffffffffffff16611f8a909392919063ffffffff16565b610e178282612029565b8173ffffffffffffffffffffffffffffffffffffffff163373ffffffffffffffffffffffffffffffffffffffff167fdcbc1c05240f31ff3ad067ef1ee35ce4997762752e3a095284754544f4c709d78584604051610e76929190612988565b60405180910390a3610e8883826120f9565b92915050565b60036020528060005260406000206000915090505481565b3373ffffffffffffffffffffffffffffffffffffffff16610ec5610d34565b73ffffffffffffffffffffffffffffffffffffffff1614610f1b576040517f08c379a0000000000000000000000000000000000000000000000000000000008152600401610f1290612a23565b60405180910390fd5b600073ffffffffffffffffffffffffffffffffffffffff16600660009054906101000a900473ffffffffffffffffffffffffffffffffffffffff1673ffffffffffffffffffffffffffffffffffffffff167f8be0079c531659141344cd1fd0a4f28419497f9722a3daafe3b4186f6b6457e060405160405180910390a36000600660006101000a81548173ffffffffffffffffffffffffffffffffffffffff021916908373ffffffffffffffffffffffffffffffffffffffff160217905550565b3373ffffffffffffffffffffffffffffffffffffffff16610ffb610d34565b73ffffffffffffffffffffffffffffffffffffffff1614611051576040517f08c379a000000000000000000000000000000000000000000000000000000000815260040161104890612a23565b60405180910390fd5b670de0b6b3a764000081111561109c576040517f08c379a000000000000000000000000000000000000000000000000000000000815260040161109390612a8f565b60405180910390fd5b806009819055503373ffffffffffffffffffffffffffffffffffffffff167fec370615cc81fb334e5566fbc80664d9082377bf59288d64a79f3fbecf4323a9826040516110e991906122b2565b60405180910390a250565b60056020528060005260406000206000915090505481565b60095481565b600061111d8361138f565b905061116c3330837f000000000000000000000000000000000000000000000000000000000000000073ffffffffffffffffffffffffffffffffffffffff16611f8a909392919063ffffffff16565b6111768284612029565b8173ffffffffffffffffffffffffffffffffffffffff163373ffffffffffffffffffffffffffffffffffffffff167fdcbc1c05240f31ff3ad067ef1ee35ce4997762752e3a095284754544f4c709d783866040516111d5929190612988565b60405180910390a36111e781846120f9565b92915050565b600180546111fa90612887565b80601f016020809104026020016040519081016040528092919081815260200182805461122690612887565b80156112735780601f1061124857610100808354040283529160200191611273565b820191906000526020600020905b81548152906001019060200180831161125657829003601f168201915b505050505081565b600081600360003373ffffffffffffffffffffffffffffffffffffffff1673ffffffffffffffffffffffffffffffffffffffff16815260200190815260200160002060008282546112cc91906128e8565b9250508190555081600360008573ffffffffffffffffffffffffffffffffffffffff1673ffffffffffffffffffffffffffffffffffffffff168152602001908152602001600020600082825401925050819055508273ffffffffffffffffffffffffffffffffffffffff163373ffffffffffffffffffffffffffffffffffffffff167fddf252ad1be2c89b69c2b068fc378daa952ba7f163c4a11628f55a4df523b3ef8460405161137d91906122b2565b60405180910390a36001905092915050565b6000806002549050600081146113c0576113bb6113aa61077e565b8285611ecc9092919063ffffffff16565b6113c2565b825b915050919050565b60006113d5846109da565b90508173ffffffffffffffffffffffffffffffffffffffff163373ffffffffffffffffffffffffffffffffffffffff1614611541576000600460008473ffffffffffffffffffffffffffffffffffffffff1673ffffffffffffffffffffffffffffffffffffffff16815260200190815260200160002060003373ffffffffffffffffffffffffffffffffffffffff1673ffffffffffffffffffffffffffffffffffffffff1681526020019081526020016000205490507fffffffffffffffffffffffffffffffffffffffffffffffffffffffffffffffff811461153f5781816114be91906128e8565b600460008573ffffffffffffffffffffffffffffffffffffffff1673ffffffffffffffffffffffffffffffffffffffff16815260200190815260200160002060003373ffffffffffffffffffffffffffffffffffffffff1673ffffffffffffffffffffffffffffffffffffffff168152602001908152602001600020819055505b505b61154b8482612115565b6115558282612131565b8173ffffffffffffffffffffffffffffffffffffffff168373ffffffffffffffffffffffffffffffffffffffff163373ffffffffffffffffffffffffffffffffffffffff167ffbde797d201c681b91056529119e0b02407c7bb96a4a2c75c01fc9667232c8db87856040516115cb929190612988565b60405180910390a461161e83857f000000000000000000000000000000000000000000000000000000000000000073ffffffffffffffffffffffffffffffffffffffff166122019092919063ffffffff16565b9392505050565b60008173ffffffffffffffffffffffffffffffffffffffff163373ffffffffffffffffffffffffffffffffffffffff1614611791576000600460008473ffffffffffffffffffffffffffffffffffffffff1673ffffffffffffffffffffffffffffffffffffffff16815260200190815260200160002060003373ffffffffffffffffffffffffffffffffffffffff1673ffffffffffffffffffffffffffffffffffffffff1681526020019081526020016000205490507fffffffffffffffffffffffffffffffffffffffffffffffffffffffffffffffff811461178f57848161170e91906128e8565b600460008573ffffffffffffffffffffffffffffffffffffffff1673ffffffffffffffffffffffffffffffffffffffff16815260200190815260200160002060003373ffffffffffffffffffffffffffffffffffffffff1673ffffffffffffffffffffffffffffffffffffffff168152602001908152602001600020819055505b505b600061179c85610d5e565b91508114156117e0576040517f08c379a00000000000000000000000000000000000000000000000000000000081526004016117d790612afb565b60405180910390fd5b6117ea8185612115565b6117f48285612131565b8173ffffffffffffffffffffffffffffffffffffffff168373ffffffffffffffffffffffffffffffffffffffff163373ffffffffffffffffffffffffffffffffffffffff167ffbde797d201c681b91056529119e0b02407c7bb96a4a2c75c01fc9667232c8db848860405161186a929190612988565b60405180910390a46118bd83827f000000000000000000000000000000000000000000000000000000000000000073ffffffffffffffffffffffffffffffffffffffff166122019092919063ffffffff16565b9392505050565b60075481565b60007fffffffffffffffffffffffffffffffffffffffffffffffffffffffffffffffff9050919050565b600080600254905060008114611925576119208161191061077e565b85611ea49092919063ffffffff16565b611927565b825b915050919050565b6000611979600360008473ffffffffffffffffffffffffffffffffffffffff1673ffffffffffffffffffffffffffffffffffffffff168152602001908152602001600020546108ad565b9050919050565b428410156119c3576040517f08c379a00000000000000000000000000000000000000000000000000000000081526004016119ba90612b67565b60405180910390fd5b600060016119cf610c89565b7f6e71edae12b1b97f4d1f60370fef10105fa2faae0126114a169c64845d6126c98a8a8a600560008f73ffffffffffffffffffffffffffffffffffffffff1673ffffffffffffffffffffffffffffffffffffffff1681526020019081526020016000206000815480929190600101919050558b604051602001611a5796959493929190612b87565b60405160208183030381529060405280519060200120604051602001611a7e929190612c60565b6040516020818303038152906040528051906020012085858560405160008152602001604052604051611ab49493929190612c97565b6020604051602081039080840390855afa158015611ad6573d6000803e3d6000fd5b505050602060405103519050600073ffffffffffffffffffffffffffffffffffffffff168173ffffffffffffffffffffffffffffffffffffffff1614158015611b4a57508773ffffffffffffffffffffffffffffffffffffffff168173ffffffffffffffffffffffffffffffffffffffff16145b611b89576040517f08c379a0000000000000000000000000000000000000000000000000000000008152600401611b8090612d28565b60405180910390fd5b85600460008373ffffffffffffffffffffffffffffffffffffffff1673ffffffffffffffffffffffffffffffffffffffff16815260200190815260200160002060008973ffffffffffffffffffffffffffffffffffffffff1673ffffffffffffffffffffffffffffffffffffffff16815260200190815260200160002081905550508573ffffffffffffffffffffffffffffffffffffffff168773ffffffffffffffffffffffffffffffffffffffff167f8c5be1e5ebec7d5bd14f71427d1e84f3dd0314c0f7b2291e5b200ac8c7c3b92587604051611c6891906122b2565b60405180910390a350505050505050565b6000600360008373ffffffffffffffffffffffffffffffffffffffff1673ffffffffffffffffffffffffffffffffffffffff168152602001908152602001600020549050919050565b6004602052816000526040600020602052806000526040600020600091509150505481565b6000611cf2826118f4565b9050919050565b3373ffffffffffffffffffffffffffffffffffffffff16611d18610d34565b73ffffffffffffffffffffffffffffffffffffffff1614611d6e576040517f08c379a0000000000000000000000000000000000000000000000000000000008152600401611d6590612a23565b60405180910390fd5b600073ffffffffffffffffffffffffffffffffffffffff168173ffffffffffffffffffffffffffffffffffffffff161415611dde576040517f08c379a0000000000000000000000000000000000000000000000000000000008152600401611dd590612dba565b60405180910390fd5b8073ffffffffffffffffffffffffffffffffffffffff16600660009054906101000a900473ffffffffffffffffffffffffffffffffffffffff1673ffffffffffffffffffffffffffffffffffffffff167f8be0079c531659141344cd1fd0a4f28419497f9722a3daafe3b4186f6b6457e060405160405180910390a380600660006101000a81548173ffffffffffffffffffffffffffffffffffffffff021916908373ffffffffffffffffffffffffffffffffffffffff16021790555050565b60085481565b60008284029050828482041484151782151516611ec057600080fd5b81810490509392505050565b60008284029050828482041484151782151516611ee857600080fd5b6001826001830304018115150290509392505050565b60007f8b73c3c69bb8fe3d512ecc4cf759cc79239f7b179b0ffacaa9a75d522b39400f6000604051611f309190612e79565b60405180910390207fc89efdaa54c0f20c7adf612882df0950f5a951637e0307cdcb4c672f298b8bc64630604051602001611f6f959493929190612e90565b60405160208183030381529060405280519060200120905090565b60006040517f23b872dd0000000000000000000000000000000000000000000000000000000081528460048201528360248201528260448201526020600060648360008a5af13d15601f3d1160016000511416171691505080612022576040517f08c379a000000000000000000000000000000000000000000000000000000000815260040161201990612f2f565b60405180910390fd5b5050505050565b806002600082825461203b9190612f4f565b9250508190555080600360008473ffffffffffffffffffffffffffffffffffffffff1673ffffffffffffffffffffffffffffffffffffffff168152602001908152602001600020600082825401925050819055508173ffffffffffffffffffffffffffffffffffffffff16600073ffffffffffffffffffffffffffffffffffffffff167fddf252ad1be2c89b69c2b068fc378daa952ba7f163c4a11628f55a4df523b3ef836040516120ed91906122b2565b60405180910390a35050565b6008600081548092919061210c90612fa5565b91905055505050565b6007600081548092919061212890612fa5565b91905055505050565b80600360008473ffffffffffffffffffffffffffffffffffffffff1673ffffffffffffffffffffffffffffffffffffffff168152602001908152602001600020600082825461218091906128e8565b9250508190555080600260008282540392505081905550600073ffffffffffffffffffffffffffffffffffffffff168273ffffffffffffffffffffffffffffffffffffffff167fddf252ad1be2c89b69c2b068fc378daa952ba7f163c4a11628f55a4df523b3ef836040516121f591906122b2565b60405180910390a35050565b60006040517fa9059cbb000000000000000000000000000000000000000000000000000000008152836004820152826024820152602060006044836000895af13d15601f3d1160016000511416171691505080612293576040517f08c379a000000000000000000000000000000000000000000000000000000000815260040161228a9061303a565b60405180910390fd5b50505050565b6000819050919050565b6122ac81612299565b82525050565b60006020820190506122c760008301846122a3565b92915050565b600081519050919050565b600082825260208201905092915050565b60005b838110156123075780820151818401526020810190506122ec565b83811115612316576000848401525b50505050565b6000601f19601f8301169050919050565b6000612338826122cd565b61234281856122d8565b93506123528185602086016122e9565b61235b8161231c565b840191505092915050565b60006020820190508181036000830152612380818461232d565b905092915050565b600080fd5b61239681612299565b81146123a157600080fd5b50565b6000813590506123b38161238d565b92915050565b6000602082840312156123cf576123ce612388565b5b60006123dd848285016123a4565b91505092915050565b600073ffffffffffffffffffffffffffffffffffffffff82169050919050565b6000612411826123e6565b9050919050565b61242181612406565b811461242c57600080fd5b50565b60008135905061243e81612418565b92915050565b6000806040838503121561245b5761245a612388565b5b60006124698582860161242f565b925050602061247a858286016123a4565b9150509250929050565b60008115159050919050565b61249981612484565b82525050565b60006020820190506124b46000830184612490565b92915050565b6000806000606084860312156124d3576124d2612388565b5b60006124e18682870161242f565b93505060206124f28682870161242f565b9250506040612503868287016123a4565b9150509250925092565b600060ff82169050919050565b6125238161250d565b82525050565b600060208201905061253e600083018461251a565b92915050565b6000819050919050565b61255781612544565b82525050565b6000602082019050612572600083018461254e565b92915050565b6000819050919050565b600061259d612598612593846123e6565b612578565b6123e6565b9050919050565b60006125af82612582565b9050919050565b60006125c1826125a4565b9050919050565b6125d1816125b6565b82525050565b60006020820190506125ec60008301846125c8565b92915050565b60006020828403121561260857612607612388565b5b60006126168482850161242f565b91505092915050565b61262881612406565b82525050565b6000602082019050612643600083018461261f565b92915050565b600080604083850312156126605761265f612388565b5b600061266e858286016123a4565b925050602061267f8582860161242f565b9150509250929050565b6000806000606084860312156126a2576126a1612388565b5b60006126b0868287016123a4565b93505060206126c18682870161242f565b92505060406126d28682870161242f565b9150509250925092565b6126e58161250d565b81146126f057600080fd5b50565b600081359050612702816126dc565b92915050565b61271181612544565b811461271c57600080fd5b50565b60008135905061272e81612708565b92915050565b600080600080600080600060e0888a03121561275357612752612388565b5b60006127618a828b0161242f565b97505060206127728a828b0161242f565b96505060406127838a828b016123a4565b95505060606127948a828b016123a4565b94505060806127a58a828b016126f3565b93505060a06127b68a828b0161271f565b92505060c06127c78a828b0161271f565b91505092959891949750929550565b600080604083850312156127ed576127ec612388565b5b60006127fb8582860161242f565b925050602061280c8582860161242f565b9150509250929050565b6000815190506128258161238d565b92915050565b60006020828403121561284157612840612388565b5b600061284f84828501612816565b91505092915050565b7f4e487b7100000000000000000000000000000000000000000000000000000000600052602260045260246000fd5b6000600282049050600182168061289f57607f821691505b602082108114156128b3576128b2612858565b5b50919050565b7f4e487b7100000000000000000000000000000000000000000000000000000000600052601160045260246000fd5b60006128f382612299565b91506128fe83612299565b925082821015612911576129106128b9565b5b828203905092915050565b7f5a45524f5f534841524553000000000000000000000000000000000000000000600082015250565b6000612952600b836122d8565b915061295d8261291c565b602082019050919050565b6000602082019050818103600083015261298181612945565b9050919050565b600060408201905061299d60008301856122a3565b6129aa60208301846122a3565b9392505050565b7f4f776e61626c653a2063616c6c6572206973206e6f7420746865206d616e616760008201527f6572000000000000000000000000000000000000000000000000000000000000602082015250565b6000612a0d6022836122d8565b9150612a18826129b1565b604082019050919050565b60006020820190508181036000830152612a3c81612a00565b9050919050565b7f4645455f544f4f5f484947480000000000000000000000000000000000000000600082015250565b6000612a79600c836122d8565b9150612a8482612a43565b602082019050919050565b60006020820190508181036000830152612aa881612a6c565b9050919050565b7f5a45524f5f415353455453000000000000000000000000000000000000000000600082015250565b6000612ae5600b836122d8565b9150612af082612aaf565b602082019050919050565b60006020820190508181036000830152612b1481612ad8565b9050919050565b7f5045524d49545f444541444c494e455f45585049524544000000000000000000600082015250565b6000612b516017836122d8565b9150612b5c82612b1b565b602082019050919050565b60006020820190508181036000830152612b8081612b44565b9050919050565b600060c082019050612b9c600083018961254e565b612ba9602083018861261f565b612bb6604083018761261f565b612bc360608301866122a3565b612bd060808301856122a3565b612bdd60a08301846122a3565b979650505050505050565b600081905092915050565b7f1901000000000000000000000000000000000000000000000000000000000000600082015250565b6000612c29600283612be8565b9150612c3482612bf3565b600282019050919050565b6000819050919050565b612c5a612c5582612544565b612c3f565b82525050565b6000612c6b82612c1c565b9150612c778285612c49565b602082019150612c878284612c49565b6020820191508190509392505050565b6000608082019050612cac600083018761254e565b612cb9602083018661251a565b612cc6604083018561254e565b612cd3606083018461254e565b95945050505050565b7f494e56414c49445f5349474e4552000000000000000000000000000000000000600082015250565b6000612d12600e836122d8565b9150612d1d82612cdc565b602082019050919050565b60006020820190508181036000830152612d4181612d05565b9050919050565b7f4f776e61626c653a206e6577206d616e6167657220697320746865207a65726f60008201527f2061646472657373000000000000000000000000000000000000000000000000602082015250565b6000612da46028836122d8565b9150612daf82612d48565b604082019050919050565b60006020820190508181036000830152612dd381612d97565b9050919050565b600081905092915050565b60008190508160005260206000209050919050565b60008154612e0781612887565b612e118186612dda565b94506001821660008114612e2c5760018114612e3d57612e70565b60ff19831686528186019350612e70565b612e4685612de5565b60005b83811015612e6857815481890152600182019150602081019050612e49565b838801955050505b50505092915050565b6000612e858284612dfa565b915081905092915050565b600060a082019050612ea5600083018861254e565b612eb2602083018761254e565b612ebf604083018661254e565b612ecc60608301856122a3565b612ed9608083018461261f565b9695505050505050565b7f5452414e534645525f46524f4d5f4641494c4544000000000000000000000000600082015250565b6000612f196014836122d8565b9150612f2482612ee3565b602082019050919050565b60006020820190508181036000830152612f4881612f0c565b9050919050565b6000612f5a82612299565b9150612f6583612299565b9250827fffffffffffffffffffffffffffffffffffffffffffffffffffffffffffffffff03821115612f9a57612f996128b9565b5b828201905092915050565b6000612fb082612299565b91507fffffffffffffffffffffffffffffffffffffffffffffffffffffffffffffffff821415612fe357612fe26128b9565b5b600182019050919050565b7f5452414e534645525f4641494c45440000000000000000000000000000000000600082015250565b6000613024600f836122d8565b915061302f82612fee565b602082019050919050565b6000602082019050818103600083015261305381613017565b905091905056fea264697066735822122081d244fb204493329c32e52ed0eb0e2ee61ebbe2dd4034abb6ea9df21e05998464736f6c634300080a0033",
					"opcodes": "PUSH2 0x100 PUSH1 0x40 MSTORE PUSH1 0x0 PUSH1 0x7 SSTORE PUSH1 0x0 PUSH1 0x8 SSTORE CALLVALUE DUP1 ISZERO PUSH3 0x1C JUMPI PUSH1 0x0 DUP1 REVERT JUMPDEST POP PUSH1 0x40 MLOAD PUSH3 0x3812 CODESIZE SUB DUP1 PUSH3 0x3812 DUP4 CODECOPY DUP2 DUP2 ADD PUSH1 0x40 MSTORE DUP2 ADD SWAP1 PUSH3 0x42 SWAP2 SWAP1 PUSH3 0x4A8 JUMP JUMPDEST DUP4 DUP4 DUP4 DUP4 DUP3 DUP3 DUP3 DUP3 PUSH1 0x0 SWAP1 DUP1 MLOAD SWAP1 PUSH1 0x20 ADD SWAP1 PUSH3 0x61 SWAP3 SWAP2 SWAP1 PUSH3 0x1A4 JUMP JUMPDEST POP DUP2 PUSH1 0x1 SWAP1 DUP1 MLOAD SWAP1 PUSH1 0x20 ADD SWAP1 PUSH3 0x7A SWAP3 SWAP2 SWAP1 PUSH3 0x1A4 JUMP JUMPDEST POP DUP1 PUSH1 0xFF AND PUSH1 0x80 DUP2 PUSH1 0xFF AND DUP2 MSTORE POP POP CHAINID PUSH1 0xA0 DUP2 DUP2 MSTORE POP POP PUSH3 0xA1 PUSH3 0x114 PUSH1 0x20 SHL PUSH1 0x20 SHR JUMP JUMPDEST PUSH1 0xC0 DUP2 DUP2 MSTORE POP POP POP POP POP DUP4 PUSH20 0xFFFFFFFFFFFFFFFFFFFFFFFFFFFFFFFFFFFFFFFF AND PUSH1 0xE0 DUP2 PUSH20 0xFFFFFFFFFFFFFFFFFFFFFFFFFFFFFFFFFFFFFFFF AND DUP2 MSTORE POP POP POP POP POP POP PUSH32 0xFFFFFFFFFFFFFFFFFFFFFFFFFFFFFFFFFFFFFFFFFFFFFFFFFFFFFFFFFFFFFFFF PUSH1 0x2 DUP2 SWAP1 SSTORE POP POP POP POP POP PUSH3 0x725 JUMP JUMPDEST PUSH1 0x0 PUSH32 0x8B73C3C69BB8FE3D512ECC4CF759CC79239F7B179B0FFACAA9A75D522B39400F PUSH1 0x0 PUSH1 0x40 MLOAD PUSH3 0x148 SWAP2 SWAP1 PUSH3 0x668 JUMP JUMPDEST PUSH1 0x40 MLOAD DUP1 SWAP2 SUB SWAP1 KECCAK256 PUSH32 0xC89EFDAA54C0F20C7ADF612882DF0950F5A951637E0307CDCB4C672F298B8BC6 CHAINID ADDRESS PUSH1 0x40 MLOAD PUSH1 0x20 ADD PUSH3 0x189 SWAP6 SWAP5 SWAP4 SWAP3 SWAP2 SWAP1 PUSH3 0x6C8 JUMP JUMPDEST PUSH1 0x40 MLOAD PUSH1 0x20 DUP2 DUP4 SUB SUB DUP2 MSTORE SWAP1 PUSH1 0x40 MSTORE DUP1 MLOAD SWAP1 PUSH1 0x20 ADD KECCAK256 SWAP1 POP SWAP1 JUMP JUMPDEST DUP3 DUP1 SLOAD PUSH3 0x1B2 SWAP1 PUSH3 0x587 JUMP JUMPDEST SWAP1 PUSH1 0x0 MSTORE PUSH1 0x20 PUSH1 0x0 KECCAK256 SWAP1 PUSH1 0x1F ADD PUSH1 0x20 SWAP1 DIV DUP2 ADD SWAP3 DUP3 PUSH3 0x1D6 JUMPI PUSH1 0x0 DUP6 SSTORE PUSH3 0x222 JUMP JUMPDEST DUP3 PUSH1 0x1F LT PUSH3 0x1F1 JUMPI DUP1 MLOAD PUSH1 0xFF NOT AND DUP4 DUP1 ADD OR DUP6 SSTORE PUSH3 0x222 JUMP JUMPDEST DUP3 DUP1 ADD PUSH1 0x1 ADD DUP6 SSTORE DUP3 ISZERO PUSH3 0x222 JUMPI SWAP2 DUP3 ADD JUMPDEST DUP3 DUP2 GT ISZERO PUSH3 0x221 JUMPI DUP3 MLOAD DUP3 SSTORE SWAP2 PUSH1 0x20 ADD SWAP2 SWAP1 PUSH1 0x1 ADD SWAP1 PUSH3 0x204 JUMP JUMPDEST JUMPDEST POP SWAP1 POP PUSH3 0x231 SWAP2 SWAP1 PUSH3 0x235 JUMP JUMPDEST POP SWAP1 JUMP JUMPDEST JUMPDEST DUP1 DUP3 GT ISZERO PUSH3 0x250 JUMPI PUSH1 0x0 DUP2 PUSH1 0x0 SWAP1 SSTORE POP PUSH1 0x1 ADD PUSH3 0x236 JUMP JUMPDEST POP SWAP1 JUMP JUMPDEST PUSH1 0x0 PUSH1 0x40 MLOAD SWAP1 POP SWAP1 JUMP JUMPDEST PUSH1 0x0 DUP1 REVERT JUMPDEST PUSH1 0x0 DUP1 REVERT JUMPDEST PUSH1 0x0 PUSH20 0xFFFFFFFFFFFFFFFFFFFFFFFFFFFFFFFFFFFFFFFF DUP3 AND SWAP1 POP SWAP2 SWAP1 POP JUMP JUMPDEST PUSH1 0x0 PUSH3 0x295 DUP3 PUSH3 0x268 JUMP JUMPDEST SWAP1 POP SWAP2 SWAP1 POP JUMP JUMPDEST PUSH1 0x0 PUSH3 0x2A9 DUP3 PUSH3 0x288 JUMP JUMPDEST SWAP1 POP SWAP2 SWAP1 POP JUMP JUMPDEST PUSH3 0x2BB DUP2 PUSH3 0x29C JUMP JUMPDEST DUP2 EQ PUSH3 0x2C7 JUMPI PUSH1 0x0 DUP1 REVERT JUMPDEST POP JUMP JUMPDEST PUSH1 0x0 DUP2 MLOAD SWAP1 POP PUSH3 0x2DB DUP2 PUSH3 0x2B0 JUMP JUMPDEST SWAP3 SWAP2 POP POP JUMP JUMPDEST PUSH1 0x0 DUP1 REVERT JUMPDEST PUSH1 0x0 DUP1 REVERT JUMPDEST PUSH1 0x0 PUSH1 0x1F NOT PUSH1 0x1F DUP4 ADD AND SWAP1 POP SWAP2 SWAP1 POP JUMP JUMPDEST PUSH32 0x4E487B7100000000000000000000000000000000000000000000000000000000 PUSH1 0x0 MSTORE PUSH1 0x41 PUSH1 0x4 MSTORE PUSH1 0x24 PUSH1 0x0 REVERT JUMPDEST PUSH3 0x336 DUP3 PUSH3 0x2EB JUMP JUMPDEST DUP2 ADD DUP2 DUP2 LT PUSH8 0xFFFFFFFFFFFFFFFF DUP3 GT OR ISZERO PUSH3 0x358 JUMPI PUSH3 0x357 PUSH3 0x2FC JUMP JUMPDEST JUMPDEST DUP1 PUSH1 0x40 MSTORE POP POP POP JUMP JUMPDEST PUSH1 0x0 PUSH3 0x36D PUSH3 0x254 JUMP JUMPDEST SWAP1 POP PUSH3 0x37B DUP3 DUP3 PUSH3 0x32B JUMP JUMPDEST SWAP2 SWAP1 POP JUMP JUMPDEST PUSH1 0x0 PUSH8 0xFFFFFFFFFFFFFFFF DUP3 GT ISZERO PUSH3 0x39E JUMPI PUSH3 0x39D PUSH3 0x2FC JUMP JUMPDEST JUMPDEST PUSH3 0x3A9 DUP3 PUSH3 0x2EB JUMP JUMPDEST SWAP1 POP PUSH1 0x20 DUP2 ADD SWAP1 POP SWAP2 SWAP1 POP JUMP JUMPDEST PUSH1 0x0 JUMPDEST DUP4 DUP2 LT ISZERO PUSH3 0x3D6 JUMPI DUP1 DUP3 ADD MLOAD DUP2 DUP5 ADD MSTORE PUSH1 0x20 DUP2 ADD SWAP1 POP PUSH3 0x3B9 JUMP JUMPDEST DUP4 DUP2 GT ISZERO PUSH3 0x3E6 JUMPI PUSH1 0x0 DUP5 DUP5 ADD MSTORE JUMPDEST POP POP POP POP JUMP JUMPDEST PUSH1 0x0 PUSH3 0x403 PUSH3 0x3FD DUP5 PUSH3 0x380 JUMP JUMPDEST PUSH3 0x361 JUMP JUMPDEST SWAP1 POP DUP3 DUP2 MSTORE PUSH1 0x20 DUP2 ADD DUP5 DUP5 DUP5 ADD GT ISZERO PUSH3 0x422 JUMPI PUSH3 0x421 PUSH3 0x2E6 JUMP JUMPDEST JUMPDEST PUSH3 0x42F DUP5 DUP3 DUP6 PUSH3 0x3B6 JUMP JUMPDEST POP SWAP4 SWAP3 POP POP POP JUMP JUMPDEST PUSH1 0x0 DUP3 PUSH1 0x1F DUP4 ADD SLT PUSH3 0x44F JUMPI PUSH3 0x44E PUSH3 0x2E1 JUMP JUMPDEST JUMPDEST DUP2 MLOAD PUSH3 0x461 DUP5 DUP3 PUSH1 0x20 DUP7 ADD PUSH3 0x3EC JUMP JUMPDEST SWAP2 POP POP SWAP3 SWAP2 POP POP JUMP JUMPDEST PUSH1 0x0 PUSH1 0xFF DUP3 AND SWAP1 POP SWAP2 SWAP1 POP JUMP JUMPDEST PUSH3 0x482 DUP2 PUSH3 0x46A JUMP JUMPDEST DUP2 EQ PUSH3 0x48E JUMPI PUSH1 0x0 DUP1 REVERT JUMPDEST POP JUMP JUMPDEST PUSH1 0x0 DUP2 MLOAD SWAP1 POP PUSH3 0x4A2 DUP2 PUSH3 0x477 JUMP JUMPDEST SWAP3 SWAP2 POP POP JUMP JUMPDEST PUSH1 0x0 DUP1 PUSH1 0x0 DUP1 PUSH1 0x80 DUP6 DUP8 SUB SLT ISZERO PUSH3 0x4C5 JUMPI PUSH3 0x4C4 PUSH3 0x25E JUMP JUMPDEST JUMPDEST PUSH1 0x0 PUSH3 0x4D5 DUP8 DUP3 DUP9 ADD PUSH3 0x2CA JUMP JUMPDEST SWAP5 POP POP PUSH1 0x20 DUP6 ADD MLOAD PUSH8 0xFFFFFFFFFFFFFFFF DUP2 GT ISZERO PUSH3 0x4F9 JUMPI PUSH3 0x4F8 PUSH3 0x263 JUMP JUMPDEST JUMPDEST PUSH3 0x507 DUP8 DUP3 DUP9 ADD PUSH3 0x437 JUMP JUMPDEST SWAP4 POP POP PUSH1 0x40 DUP6 ADD MLOAD PUSH8 0xFFFFFFFFFFFFFFFF DUP2 GT ISZERO PUSH3 0x52B JUMPI PUSH3 0x52A PUSH3 0x263 JUMP JUMPDEST JUMPDEST PUSH3 0x539 DUP8 DUP3 DUP9 ADD PUSH3 0x437 JUMP JUMPDEST SWAP3 POP POP PUSH1 0x60 PUSH3 0x54C DUP8 DUP3 DUP9 ADD PUSH3 0x491 JUMP JUMPDEST SWAP2 POP POP SWAP3 SWAP6 SWAP2 SWAP5 POP SWAP3 POP JUMP JUMPDEST PUSH32 0x4E487B7100000000000000000000000000000000000000000000000000000000 PUSH1 0x0 MSTORE PUSH1 0x22 PUSH1 0x4 MSTORE PUSH1 0x24 PUSH1 0x0 REVERT JUMPDEST PUSH1 0x0 PUSH1 0x2 DUP3 DIV SWAP1 POP PUSH1 0x1 DUP3 AND DUP1 PUSH3 0x5A0 JUMPI PUSH1 0x7F DUP3 AND SWAP2 POP JUMPDEST PUSH1 0x20 DUP3 LT DUP2 EQ ISZERO PUSH3 0x5B7 JUMPI PUSH3 0x5B6 PUSH3 0x558 JUMP JUMPDEST JUMPDEST POP SWAP2 SWAP1 POP JUMP JUMPDEST PUSH1 0x0 DUP2 SWAP1 POP SWAP3 SWAP2 POP POP JUMP JUMPDEST PUSH1 0x0 DUP2 SWAP1 POP DUP2 PUSH1 0x0 MSTORE PUSH1 0x20 PUSH1 0x0 KECCAK256 SWAP1 POP SWAP2 SWAP1 POP JUMP JUMPDEST PUSH1 0x0 DUP2 SLOAD PUSH3 0x5EC DUP2 PUSH3 0x587 JUMP JUMPDEST PUSH3 0x5F8 DUP2 DUP7 PUSH3 0x5BD JUMP JUMPDEST SWAP5 POP PUSH1 0x1 DUP3 AND PUSH1 0x0 DUP2 EQ PUSH3 0x616 JUMPI PUSH1 0x1 DUP2 EQ PUSH3 0x628 JUMPI PUSH3 0x65F JUMP JUMPDEST PUSH1 0xFF NOT DUP4 AND DUP7 MSTORE DUP2 DUP7 ADD SWAP4 POP PUSH3 0x65F JUMP JUMPDEST PUSH3 0x633 DUP6 PUSH3 0x5C8 JUMP JUMPDEST PUSH1 0x0 JUMPDEST DUP4 DUP2 LT ISZERO PUSH3 0x657 JUMPI DUP2 SLOAD DUP2 DUP10 ADD MSTORE PUSH1 0x1 DUP3 ADD SWAP2 POP PUSH1 0x20 DUP2 ADD SWAP1 POP PUSH3 0x636 JUMP JUMPDEST DUP4 DUP9 ADD SWAP6 POP POP POP JUMPDEST POP POP POP SWAP3 SWAP2 POP POP JUMP JUMPDEST PUSH1 0x0 PUSH3 0x676 DUP3 DUP5 PUSH3 0x5DD JUMP JUMPDEST SWAP2 POP DUP2 SWAP1 POP SWAP3 SWAP2 POP POP JUMP JUMPDEST PUSH1 0x0 DUP2 SWAP1 POP SWAP2 SWAP1 POP JUMP JUMPDEST PUSH3 0x696 DUP2 PUSH3 0x681 JUMP JUMPDEST DUP3 MSTORE POP POP JUMP JUMPDEST PUSH1 0x0 DUP2 SWAP1 POP SWAP2 SWAP1 POP JUMP JUMPDEST PUSH3 0x6B1 DUP2 PUSH3 0x69C JUMP JUMPDEST DUP3 MSTORE POP POP JUMP JUMPDEST PUSH3 0x6C2 DUP2 PUSH3 0x288 JUMP JUMPDEST DUP3 MSTORE POP POP JUMP JUMPDEST PUSH1 0x0 PUSH1 0xA0 DUP3 ADD SWAP1 POP PUSH3 0x6DF PUSH1 0x0 DUP4 ADD DUP9 PUSH3 0x68B JUMP JUMPDEST PUSH3 0x6EE PUSH1 0x20 DUP4 ADD DUP8 PUSH3 0x68B JUMP JUMPDEST PUSH3 0x6FD PUSH1 0x40 DUP4 ADD DUP7 PUSH3 0x68B JUMP JUMPDEST PUSH3 0x70C PUSH1 0x60 DUP4 ADD DUP6 PUSH3 0x6A6 JUMP JUMPDEST PUSH3 0x71B PUSH1 0x80 DUP4 ADD DUP5 PUSH3 0x6B7 JUMP JUMPDEST SWAP7 SWAP6 POP POP POP POP POP POP JUMP JUMPDEST PUSH1 0x80 MLOAD PUSH1 0xA0 MLOAD PUSH1 0xC0 MLOAD PUSH1 0xE0 MLOAD PUSH2 0x3090 PUSH3 0x782 PUSH1 0x0 CODECOPY PUSH1 0x0 DUP2 DUP2 PUSH2 0x782 ADD MSTORE DUP2 DUP2 PUSH2 0xCE8 ADD MSTORE DUP2 DUP2 PUSH2 0xDC8 ADD MSTORE DUP2 DUP2 PUSH2 0x1127 ADD MSTORE DUP2 DUP2 PUSH2 0x15DA ADD MSTORE PUSH2 0x1879 ADD MSTORE PUSH1 0x0 PUSH2 0xCC1 ADD MSTORE PUSH1 0x0 PUSH2 0xC8D ADD MSTORE PUSH1 0x0 PUSH2 0xC67 ADD MSTORE PUSH2 0x3090 PUSH1 0x0 RETURN INVALID PUSH1 0x80 PUSH1 0x40 MSTORE CALLVALUE DUP1 ISZERO PUSH2 0x10 JUMPI PUSH1 0x0 DUP1 REVERT JUMPDEST POP PUSH1 0x4 CALLDATASIZE LT PUSH2 0x211 JUMPI PUSH1 0x0 CALLDATALOAD PUSH1 0xE0 SHR DUP1 PUSH4 0x7ECEBE00 GT PUSH2 0x125 JUMPI DUP1 PUSH4 0xC63D75B6 GT PUSH2 0xAD JUMPI DUP1 PUSH4 0xD905777E GT PUSH2 0x7C JUMPI DUP1 PUSH4 0xD905777E EQ PUSH2 0x6B4 JUMPI DUP1 PUSH4 0xDD62ED3E EQ PUSH2 0x6E4 JUMPI DUP1 PUSH4 0xEF8B30F7 EQ PUSH2 0x714 JUMPI DUP1 PUSH4 0xF2FDE38B EQ PUSH2 0x744 JUMPI DUP1 PUSH4 0xFC407AE7 EQ PUSH2 0x760 JUMPI PUSH2 0x211 JUMP JUMPDEST DUP1 PUSH4 0xC63D75B6 EQ PUSH2 0x608 JUMPI DUP1 PUSH4 0xC6E6F592 EQ PUSH2 0x638 JUMPI DUP1 PUSH4 0xCE96CB77 EQ PUSH2 0x668 JUMPI DUP1 PUSH4 0xD505ACCF EQ PUSH2 0x698 JUMPI PUSH2 0x211 JUMP JUMPDEST DUP1 PUSH4 0xA9059CBB GT PUSH2 0xF4 JUMPI DUP1 PUSH4 0xA9059CBB EQ PUSH2 0x52A JUMPI DUP1 PUSH4 0xB3D7F6B9 EQ PUSH2 0x55A JUMPI DUP1 PUSH4 0xB460AF94 EQ PUSH2 0x58A JUMPI DUP1 PUSH4 0xBA087652 EQ PUSH2 0x5BA JUMPI DUP1 PUSH4 0xBC368A8A EQ PUSH2 0x5EA JUMPI PUSH2 0x211 JUMP JUMPDEST DUP1 PUSH4 0x7ECEBE00 EQ PUSH2 0x48E JUMPI DUP1 PUSH4 0x7FD6F15C EQ PUSH2 0x4BE JUMPI DUP1 PUSH4 0x94BF804D EQ PUSH2 0x4DC JUMPI DUP1 PUSH4 0x95D89B41 EQ PUSH2 0x50C JUMPI PUSH2 0x211 JUMP JUMPDEST DUP1 PUSH4 0x3644E515 GT PUSH2 0x1A8 JUMPI DUP1 PUSH4 0x4CDAD506 GT PUSH2 0x177 JUMPI DUP1 PUSH4 0x4CDAD506 EQ PUSH2 0x3D8 JUMPI DUP1 PUSH4 0x6E553F65 EQ PUSH2 0x408 JUMPI DUP1 PUSH4 0x70A08231 EQ PUSH2 0x438 JUMPI DUP1 PUSH4 0x715018A6 EQ PUSH2 0x468 JUMPI DUP1 PUSH4 0x7CE3489B EQ PUSH2 0x472 JUMPI PUSH2 0x211 JUMP JUMPDEST DUP1 PUSH4 0x3644E515 EQ PUSH2 0x34E JUMPI DUP1 PUSH4 0x38D52E0F EQ PUSH2 0x36C JUMPI DUP1 PUSH4 0x402D267D EQ PUSH2 0x38A JUMPI DUP1 PUSH4 0x481C6A75 EQ PUSH2 0x3BA JUMPI PUSH2 0x211 JUMP JUMPDEST DUP1 PUSH4 0xA28A477 GT PUSH2 0x1E4 JUMPI DUP1 PUSH4 0xA28A477 EQ PUSH2 0x2B2 JUMPI DUP1 PUSH4 0x18160DDD EQ PUSH2 0x2E2 JUMPI DUP1 PUSH4 0x23B872DD EQ PUSH2 0x300 JUMPI DUP1 PUSH4 0x313CE567 EQ PUSH2 0x330 JUMPI PUSH2 0x211 JUMP JUMPDEST DUP1 PUSH4 0x1E1D114 EQ PUSH2 0x216 JUMPI DUP1 PUSH4 0x6FDDE03 EQ PUSH2 0x234 JUMPI DUP1 PUSH4 0x7A2D13A EQ PUSH2 0x252 JUMPI DUP1 PUSH4 0x95EA7B3 EQ PUSH2 0x282 JUMPI JUMPDEST PUSH1 0x0 DUP1 REVERT JUMPDEST PUSH2 0x21E PUSH2 0x77E JUMP JUMPDEST PUSH1 0x40 MLOAD PUSH2 0x22B SWAP2 SWAP1 PUSH2 0x22B2 JUMP JUMPDEST PUSH1 0x40 MLOAD DUP1 SWAP2 SUB SWAP1 RETURN JUMPDEST PUSH2 0x23C PUSH2 0x81F JUMP JUMPDEST PUSH1 0x40 MLOAD PUSH2 0x249 SWAP2 SWAP1 PUSH2 0x2366 JUMP JUMPDEST PUSH1 0x40 MLOAD DUP1 SWAP2 SUB SWAP1 RETURN JUMPDEST PUSH2 0x26C PUSH1 0x4 DUP1 CALLDATASIZE SUB DUP2 ADD SWAP1 PUSH2 0x267 SWAP2 SWAP1 PUSH2 0x23B9 JUMP JUMPDEST PUSH2 0x8AD JUMP JUMPDEST PUSH1 0x40 MLOAD PUSH2 0x279 SWAP2 SWAP1 PUSH2 0x22B2 JUMP JUMPDEST PUSH1 0x40 MLOAD DUP1 SWAP2 SUB SWAP1 RETURN JUMPDEST PUSH2 0x29C PUSH1 0x4 DUP1 CALLDATASIZE SUB DUP2 ADD SWAP1 PUSH2 0x297 SWAP2 SWAP1 PUSH2 0x2444 JUMP JUMPDEST PUSH2 0x8E8 JUMP JUMPDEST PUSH1 0x40 MLOAD PUSH2 0x2A9 SWAP2 SWAP1 PUSH2 0x249F JUMP JUMPDEST PUSH1 0x40 MLOAD DUP1 SWAP2 SUB SWAP1 RETURN JUMPDEST PUSH2 0x2CC PUSH1 0x4 DUP1 CALLDATASIZE SUB DUP2 ADD SWAP1 PUSH2 0x2C7 SWAP2 SWAP1 PUSH2 0x23B9 JUMP JUMPDEST PUSH2 0x9DA JUMP JUMPDEST PUSH1 0x40 MLOAD PUSH2 0x2D9 SWAP2 SWAP1 PUSH2 0x22B2 JUMP JUMPDEST PUSH1 0x40 MLOAD DUP1 SWAP2 SUB SWAP1 RETURN JUMPDEST PUSH2 0x2EA PUSH2 0xA15 JUMP JUMPDEST PUSH1 0x40 MLOAD PUSH2 0x2F7 SWAP2 SWAP1 PUSH2 0x22B2 JUMP JUMPDEST PUSH1 0x40 MLOAD DUP1 SWAP2 SUB SWAP1 RETURN JUMPDEST PUSH2 0x31A PUSH1 0x4 DUP1 CALLDATASIZE SUB DUP2 ADD SWAP1 PUSH2 0x315 SWAP2 SWAP1 PUSH2 0x24BA JUMP JUMPDEST PUSH2 0xA1B JUMP JUMPDEST PUSH1 0x40 MLOAD PUSH2 0x327 SWAP2 SWAP1 PUSH2 0x249F JUMP JUMPDEST PUSH1 0x40 MLOAD DUP1 SWAP2 SUB SWAP1 RETURN JUMPDEST PUSH2 0x338 PUSH2 0xC65 JUMP JUMPDEST PUSH1 0x40 MLOAD PUSH2 0x345 SWAP2 SWAP1 PUSH2 0x2529 JUMP JUMPDEST PUSH1 0x40 MLOAD DUP1 SWAP2 SUB SWAP1 RETURN JUMPDEST PUSH2 0x356 PUSH2 0xC89 JUMP JUMPDEST PUSH1 0x40 MLOAD PUSH2 0x363 SWAP2 SWAP1 PUSH2 0x255D JUMP JUMPDEST PUSH1 0x40 MLOAD DUP1 SWAP2 SUB SWAP1 RETURN JUMPDEST PUSH2 0x374 PUSH2 0xCE6 JUMP JUMPDEST PUSH1 0x40 MLOAD PUSH2 0x381 SWAP2 SWAP1 PUSH2 0x25D7 JUMP JUMPDEST PUSH1 0x40 MLOAD DUP1 SWAP2 SUB SWAP1 RETURN JUMPDEST PUSH2 0x3A4 PUSH1 0x4 DUP1 CALLDATASIZE SUB DUP2 ADD SWAP1 PUSH2 0x39F SWAP2 SWAP1 PUSH2 0x25F2 JUMP JUMPDEST PUSH2 0xD0A JUMP JUMPDEST PUSH1 0x40 MLOAD PUSH2 0x3B1 SWAP2 SWAP1 PUSH2 0x22B2 JUMP JUMPDEST PUSH1 0x40 MLOAD DUP1 SWAP2 SUB SWAP1 RETURN JUMPDEST PUSH2 0x3C2 PUSH2 0xD34 JUMP JUMPDEST PUSH1 0x40 MLOAD PUSH2 0x3CF SWAP2 SWAP1 PUSH2 0x262E JUMP JUMPDEST PUSH1 0x40 MLOAD DUP1 SWAP2 SUB SWAP1 RETURN JUMPDEST PUSH2 0x3F2 PUSH1 0x4 DUP1 CALLDATASIZE SUB DUP2 ADD SWAP1 PUSH2 0x3ED SWAP2 SWAP1 PUSH2 0x23B9 JUMP JUMPDEST PUSH2 0xD5E JUMP JUMPDEST PUSH1 0x40 MLOAD PUSH2 0x3FF SWAP2 SWAP1 PUSH2 0x22B2 JUMP JUMPDEST PUSH1 0x40 MLOAD DUP1 SWAP2 SUB SWAP1 RETURN JUMPDEST PUSH2 0x422 PUSH1 0x4 DUP1 CALLDATASIZE SUB DUP2 ADD SWAP1 PUSH2 0x41D SWAP2 SWAP1 PUSH2 0x2649 JUMP JUMPDEST PUSH2 0xD70 JUMP JUMPDEST PUSH1 0x40 MLOAD PUSH2 0x42F SWAP2 SWAP1 PUSH2 0x22B2 JUMP JUMPDEST PUSH1 0x40 MLOAD DUP1 SWAP2 SUB SWAP1 RETURN JUMPDEST PUSH2 0x452 PUSH1 0x4 DUP1 CALLDATASIZE SUB DUP2 ADD SWAP1 PUSH2 0x44D SWAP2 SWAP1 PUSH2 0x25F2 JUMP JUMPDEST PUSH2 0xE8E JUMP JUMPDEST PUSH1 0x40 MLOAD PUSH2 0x45F SWAP2 SWAP1 PUSH2 0x22B2 JUMP JUMPDEST PUSH1 0x40 MLOAD DUP1 SWAP2 SUB SWAP1 RETURN JUMPDEST PUSH2 0x470 PUSH2 0xEA6 JUMP JUMPDEST STOP JUMPDEST PUSH2 0x48C PUSH1 0x4 DUP1 CALLDATASIZE SUB DUP2 ADD SWAP1 PUSH2 0x487 SWAP2 SWAP1 PUSH2 0x23B9 JUMP JUMPDEST PUSH2 0xFDC JUMP JUMPDEST STOP JUMPDEST PUSH2 0x4A8 PUSH1 0x4 DUP1 CALLDATASIZE SUB DUP2 ADD SWAP1 PUSH2 0x4A3 SWAP2 SWAP1 PUSH2 0x25F2 JUMP JUMPDEST PUSH2 0x10F4 JUMP JUMPDEST PUSH1 0x40 MLOAD PUSH2 0x4B5 SWAP2 SWAP1 PUSH2 0x22B2 JUMP JUMPDEST PUSH1 0x40 MLOAD DUP1 SWAP2 SUB SWAP1 RETURN JUMPDEST PUSH2 0x4C6 PUSH2 0x110C JUMP JUMPDEST PUSH1 0x40 MLOAD PUSH2 0x4D3 SWAP2 SWAP1 PUSH2 0x22B2 JUMP JUMPDEST PUSH1 0x40 MLOAD DUP1 SWAP2 SUB SWAP1 RETURN JUMPDEST PUSH2 0x4F6 PUSH1 0x4 DUP1 CALLDATASIZE SUB DUP2 ADD SWAP1 PUSH2 0x4F1 SWAP2 SWAP1 PUSH2 0x2649 JUMP JUMPDEST PUSH2 0x1112 JUMP JUMPDEST PUSH1 0x40 MLOAD PUSH2 0x503 SWAP2 SWAP1 PUSH2 0x22B2 JUMP JUMPDEST PUSH1 0x40 MLOAD DUP1 SWAP2 SUB SWAP1 RETURN JUMPDEST PUSH2 0x514 PUSH2 0x11ED JUMP JUMPDEST PUSH1 0x40 MLOAD PUSH2 0x521 SWAP2 SWAP1 PUSH2 0x2366 JUMP JUMPDEST PUSH1 0x40 MLOAD DUP1 SWAP2 SUB SWAP1 RETURN JUMPDEST PUSH2 0x544 PUSH1 0x4 DUP1 CALLDATASIZE SUB DUP2 ADD SWAP1 PUSH2 0x53F SWAP2 SWAP1 PUSH2 0x2444 JUMP JUMPDEST PUSH2 0x127B JUMP JUMPDEST PUSH1 0x40 MLOAD PUSH2 0x551 SWAP2 SWAP1 PUSH2 0x249F JUMP JUMPDEST PUSH1 0x40 MLOAD DUP1 SWAP2 SUB SWAP1 RETURN JUMPDEST PUSH2 0x574 PUSH1 0x4 DUP1 CALLDATASIZE SUB DUP2 ADD SWAP1 PUSH2 0x56F SWAP2 SWAP1 PUSH2 0x23B9 JUMP JUMPDEST PUSH2 0x138F JUMP JUMPDEST PUSH1 0x40 MLOAD PUSH2 0x581 SWAP2 SWAP1 PUSH2 0x22B2 JUMP JUMPDEST PUSH1 0x40 MLOAD DUP1 SWAP2 SUB SWAP1 RETURN JUMPDEST PUSH2 0x5A4 PUSH1 0x4 DUP1 CALLDATASIZE SUB DUP2 ADD SWAP1 PUSH2 0x59F SWAP2 SWAP1 PUSH2 0x2689 JUMP JUMPDEST PUSH2 0x13CA JUMP JUMPDEST PUSH1 0x40 MLOAD PUSH2 0x5B1 SWAP2 SWAP1 PUSH2 0x22B2 JUMP JUMPDEST PUSH1 0x40 MLOAD DUP1 SWAP2 SUB SWAP1 RETURN JUMPDEST PUSH2 0x5D4 PUSH1 0x4 DUP1 CALLDATASIZE SUB DUP2 ADD SWAP1 PUSH2 0x5CF SWAP2 SWAP1 PUSH2 0x2689 JUMP JUMPDEST PUSH2 0x1625 JUMP JUMPDEST PUSH1 0x40 MLOAD PUSH2 0x5E1 SWAP2 SWAP1 PUSH2 0x22B2 JUMP JUMPDEST PUSH1 0x40 MLOAD DUP1 SWAP2 SUB SWAP1 RETURN JUMPDEST PUSH2 0x5F2 PUSH2 0x18C4 JUMP JUMPDEST PUSH1 0x40 MLOAD PUSH2 0x5FF SWAP2 SWAP1 PUSH2 0x22B2 JUMP JUMPDEST PUSH1 0x40 MLOAD DUP1 SWAP2 SUB SWAP1 RETURN JUMPDEST PUSH2 0x622 PUSH1 0x4 DUP1 CALLDATASIZE SUB DUP2 ADD SWAP1 PUSH2 0x61D SWAP2 SWAP1 PUSH2 0x25F2 JUMP JUMPDEST PUSH2 0x18CA JUMP JUMPDEST PUSH1 0x40 MLOAD PUSH2 0x62F SWAP2 SWAP1 PUSH2 0x22B2 JUMP JUMPDEST PUSH1 0x40 MLOAD DUP1 SWAP2 SUB SWAP1 RETURN JUMPDEST PUSH2 0x652 PUSH1 0x4 DUP1 CALLDATASIZE SUB DUP2 ADD SWAP1 PUSH2 0x64D SWAP2 SWAP1 PUSH2 0x23B9 JUMP JUMPDEST PUSH2 0x18F4 JUMP JUMPDEST PUSH1 0x40 MLOAD PUSH2 0x65F SWAP2 SWAP1 PUSH2 0x22B2 JUMP JUMPDEST PUSH1 0x40 MLOAD DUP1 SWAP2 SUB SWAP1 RETURN JUMPDEST PUSH2 0x682 PUSH1 0x4 DUP1 CALLDATASIZE SUB DUP2 ADD SWAP1 PUSH2 0x67D SWAP2 SWAP1 PUSH2 0x25F2 JUMP JUMPDEST PUSH2 0x192F JUMP JUMPDEST PUSH1 0x40 MLOAD PUSH2 0x68F SWAP2 SWAP1 PUSH2 0x22B2 JUMP JUMPDEST PUSH1 0x40 MLOAD DUP1 SWAP2 SUB SWAP1 RETURN JUMPDEST PUSH2 0x6B2 PUSH1 0x4 DUP1 CALLDATASIZE SUB DUP2 ADD SWAP1 PUSH2 0x6AD SWAP2 SWAP1 PUSH2 0x2734 JUMP JUMPDEST PUSH2 0x1980 JUMP JUMPDEST STOP JUMPDEST PUSH2 0x6CE PUSH1 0x4 DUP1 CALLDATASIZE SUB DUP2 ADD SWAP1 PUSH2 0x6C9 SWAP2 SWAP1 PUSH2 0x25F2 JUMP JUMPDEST PUSH2 0x1C79 JUMP JUMPDEST PUSH1 0x40 MLOAD PUSH2 0x6DB SWAP2 SWAP1 PUSH2 0x22B2 JUMP JUMPDEST PUSH1 0x40 MLOAD DUP1 SWAP2 SUB SWAP1 RETURN JUMPDEST PUSH2 0x6FE PUSH1 0x4 DUP1 CALLDATASIZE SUB DUP2 ADD SWAP1 PUSH2 0x6F9 SWAP2 SWAP1 PUSH2 0x27D6 JUMP JUMPDEST PUSH2 0x1CC2 JUMP JUMPDEST PUSH1 0x40 MLOAD PUSH2 0x70B SWAP2 SWAP1 PUSH2 0x22B2 JUMP JUMPDEST PUSH1 0x40 MLOAD DUP1 SWAP2 SUB SWAP1 RETURN JUMPDEST PUSH2 0x72E PUSH1 0x4 DUP1 CALLDATASIZE SUB DUP2 ADD SWAP1 PUSH2 0x729 SWAP2 SWAP1 PUSH2 0x23B9 JUMP JUMPDEST PUSH2 0x1CE7 JUMP JUMPDEST PUSH1 0x40 MLOAD PUSH2 0x73B SWAP2 SWAP1 PUSH2 0x22B2 JUMP JUMPDEST PUSH1 0x40 MLOAD DUP1 SWAP2 SUB SWAP1 RETURN JUMPDEST PUSH2 0x75E PUSH1 0x4 DUP1 CALLDATASIZE SUB DUP2 ADD SWAP1 PUSH2 0x759 SWAP2 SWAP1 PUSH2 0x25F2 JUMP JUMPDEST PUSH2 0x1CF9 JUMP JUMPDEST STOP JUMPDEST PUSH2 0x768 PUSH2 0x1E9E JUMP JUMPDEST PUSH1 0x40 MLOAD PUSH2 0x775 SWAP2 SWAP1 PUSH2 0x22B2 JUMP JUMPDEST PUSH1 0x40 MLOAD DUP1 SWAP2 SUB SWAP1 RETURN JUMPDEST PUSH1 0x0 PUSH32 0x0 PUSH20 0xFFFFFFFFFFFFFFFFFFFFFFFFFFFFFFFFFFFFFFFF AND PUSH4 0x70A08231 ADDRESS PUSH1 0x40 MLOAD DUP3 PUSH4 0xFFFFFFFF AND PUSH1 0xE0 SHL DUP2 MSTORE PUSH1 0x4 ADD PUSH2 0x7D9 SWAP2 SWAP1 PUSH2 0x262E JUMP JUMPDEST PUSH1 0x20 PUSH1 0x40 MLOAD DUP1 DUP4 SUB DUP2 DUP7 GAS STATICCALL ISZERO DUP1 ISZERO PUSH2 0x7F6 JUMPI RETURNDATASIZE PUSH1 0x0 DUP1 RETURNDATACOPY RETURNDATASIZE PUSH1 0x0 REVERT JUMPDEST POP POP POP POP PUSH1 0x40 MLOAD RETURNDATASIZE PUSH1 0x1F NOT PUSH1 0x1F DUP3 ADD AND DUP3 ADD DUP1 PUSH1 0x40 MSTORE POP DUP2 ADD SWAP1 PUSH2 0x81A SWAP2 SWAP1 PUSH2 0x282B JUMP JUMPDEST SWAP1 POP SWAP1 JUMP JUMPDEST PUSH1 0x0 DUP1 SLOAD PUSH2 0x82C SWAP1 PUSH2 0x2887 JUMP JUMPDEST DUP1 PUSH1 0x1F ADD PUSH1 0x20 DUP1 SWAP2 DIV MUL PUSH1 0x20 ADD PUSH1 0x40 MLOAD SWAP1 DUP2 ADD PUSH1 0x40 MSTORE DUP1 SWAP3 SWAP2 SWAP1 DUP2 DUP2 MSTORE PUSH1 0x20 ADD DUP3 DUP1 SLOAD PUSH2 0x858 SWAP1 PUSH2 0x2887 JUMP JUMPDEST DUP1 ISZERO PUSH2 0x8A5 JUMPI DUP1 PUSH1 0x1F LT PUSH2 0x87A JUMPI PUSH2 0x100 DUP1 DUP4 SLOAD DIV MUL DUP4 MSTORE SWAP2 PUSH1 0x20 ADD SWAP2 PUSH2 0x8A5 JUMP JUMPDEST DUP3 ADD SWAP2 SWAP1 PUSH1 0x0 MSTORE PUSH1 0x20 PUSH1 0x0 KECCAK256 SWAP1 JUMPDEST DUP2 SLOAD DUP2 MSTORE SWAP1 PUSH1 0x1 ADD SWAP1 PUSH1 0x20 ADD DUP1 DUP4 GT PUSH2 0x888 JUMPI DUP3 SWAP1 SUB PUSH1 0x1F AND DUP3 ADD SWAP2 JUMPDEST POP POP POP POP POP DUP2 JUMP JUMPDEST PUSH1 0x0 DUP1 PUSH1 0x2 SLOAD SWAP1 POP PUSH1 0x0 DUP2 EQ PUSH2 0x8DE JUMPI PUSH2 0x8D9 PUSH2 0x8C8 PUSH2 0x77E JUMP JUMPDEST DUP3 DUP6 PUSH2 0x1EA4 SWAP1 SWAP3 SWAP2 SWAP1 PUSH4 0xFFFFFFFF AND JUMP JUMPDEST PUSH2 0x8E0 JUMP JUMPDEST DUP3 JUMPDEST SWAP2 POP POP SWAP2 SWAP1 POP JUMP JUMPDEST PUSH1 0x0 DUP2 PUSH1 0x4 PUSH1 0x0 CALLER PUSH20 0xFFFFFFFFFFFFFFFFFFFFFFFFFFFFFFFFFFFFFFFF AND PUSH20 0xFFFFFFFFFFFFFFFFFFFFFFFFFFFFFFFFFFFFFFFF AND DUP2 MSTORE PUSH1 0x20 ADD SWAP1 DUP2 MSTORE PUSH1 0x20 ADD PUSH1 0x0 KECCAK256 PUSH1 0x0 DUP6 PUSH20 0xFFFFFFFFFFFFFFFFFFFFFFFFFFFFFFFFFFFFFFFF AND PUSH20 0xFFFFFFFFFFFFFFFFFFFFFFFFFFFFFFFFFFFFFFFF AND DUP2 MSTORE PUSH1 0x20 ADD SWAP1 DUP2 MSTORE PUSH1 0x20 ADD PUSH1 0x0 KECCAK256 DUP2 SWAP1 SSTORE POP DUP3 PUSH20 0xFFFFFFFFFFFFFFFFFFFFFFFFFFFFFFFFFFFFFFFF AND CALLER PUSH20 0xFFFFFFFFFFFFFFFFFFFFFFFFFFFFFFFFFFFFFFFF AND PUSH32 0x8C5BE1E5EBEC7D5BD14F71427D1E84F3DD0314C0F7B2291E5B200AC8C7C3B925 DUP5 PUSH1 0x40 MLOAD PUSH2 0x9C8 SWAP2 SWAP1 PUSH2 0x22B2 JUMP JUMPDEST PUSH1 0x40 MLOAD DUP1 SWAP2 SUB SWAP1 LOG3 PUSH1 0x1 SWAP1 POP SWAP3 SWAP2 POP POP JUMP JUMPDEST PUSH1 0x0 DUP1 PUSH1 0x2 SLOAD SWAP1 POP PUSH1 0x0 DUP2 EQ PUSH2 0xA0B JUMPI PUSH2 0xA06 DUP2 PUSH2 0x9F6 PUSH2 0x77E JUMP JUMPDEST DUP6 PUSH2 0x1ECC SWAP1 SWAP3 SWAP2 SWAP1 PUSH4 0xFFFFFFFF AND JUMP JUMPDEST PUSH2 0xA0D JUMP JUMPDEST DUP3 JUMPDEST SWAP2 POP POP SWAP2 SWAP1 POP JUMP JUMPDEST PUSH1 0x2 SLOAD DUP2 JUMP JUMPDEST PUSH1 0x0 DUP1 PUSH1 0x4 PUSH1 0x0 DUP7 PUSH20 0xFFFFFFFFFFFFFFFFFFFFFFFFFFFFFFFFFFFFFFFF AND PUSH20 0xFFFFFFFFFFFFFFFFFFFFFFFFFFFFFFFFFFFFFFFF AND DUP2 MSTORE PUSH1 0x20 ADD SWAP1 DUP2 MSTORE PUSH1 0x20 ADD PUSH1 0x0 KECCAK256 PUSH1 0x0 CALLER PUSH20 0xFFFFFFFFFFFFFFFFFFFFFFFFFFFFFFFFFFFFFFFF AND PUSH20 0xFFFFFFFFFFFFFFFFFFFFFFFFFFFFFFFFFFFFFFFF AND DUP2 MSTORE PUSH1 0x20 ADD SWAP1 DUP2 MSTORE PUSH1 0x20 ADD PUSH1 0x0 KECCAK256 SLOAD SWAP1 POP PUSH32 0xFFFFFFFFFFFFFFFFFFFFFFFFFFFFFFFFFFFFFFFFFFFFFFFFFFFFFFFFFFFFFFFF DUP2 EQ PUSH2 0xB51 JUMPI DUP3 DUP2 PUSH2 0xAD0 SWAP2 SWAP1 PUSH2 0x28E8 JUMP JUMPDEST PUSH1 0x4 PUSH1 0x0 DUP8 PUSH20 0xFFFFFFFFFFFFFFFFFFFFFFFFFFFFFFFFFFFFFFFF AND PUSH20 0xFFFFFFFFFFFFFFFFFFFFFFFFFFFFFFFFFFFFFFFF AND DUP2 MSTORE PUSH1 0x20 ADD SWAP1 DUP2 MSTORE PUSH1 0x20 ADD PUSH1 0x0 KECCAK256 PUSH1 0x0 CALLER PUSH20 0xFFFFFFFFFFFFFFFFFFFFFFFFFFFFFFFFFFFFFFFF AND PUSH20 0xFFFFFFFFFFFFFFFFFFFFFFFFFFFFFFFFFFFFFFFF AND DUP2 MSTORE PUSH1 0x20 ADD SWAP1 DUP2 MSTORE PUSH1 0x20 ADD PUSH1 0x0 KECCAK256 DUP2 SWAP1 SSTORE POP JUMPDEST DUP3 PUSH1 0x3 PUSH1 0x0 DUP8 PUSH20 0xFFFFFFFFFFFFFFFFFFFFFFFFFFFFFFFFFFFFFFFF AND PUSH20 0xFFFFFFFFFFFFFFFFFFFFFFFFFFFFFFFFFFFFFFFF AND DUP2 MSTORE PUSH1 0x20 ADD SWAP1 DUP2 MSTORE PUSH1 0x20 ADD PUSH1 0x0 KECCAK256 PUSH1 0x0 DUP3 DUP3 SLOAD PUSH2 0xBA0 SWAP2 SWAP1 PUSH2 0x28E8 JUMP JUMPDEST SWAP3 POP POP DUP2 SWAP1 SSTORE POP DUP3 PUSH1 0x3 PUSH1 0x0 DUP7 PUSH20 0xFFFFFFFFFFFFFFFFFFFFFFFFFFFFFFFFFFFFFFFF AND PUSH20 0xFFFFFFFFFFFFFFFFFFFFFFFFFFFFFFFFFFFFFFFF AND DUP2 MSTORE PUSH1 0x20 ADD SWAP1 DUP2 MSTORE PUSH1 0x20 ADD PUSH1 0x0 KECCAK256 PUSH1 0x0 DUP3 DUP3 SLOAD ADD SWAP3 POP POP DUP2 SWAP1 SSTORE POP DUP4 PUSH20 0xFFFFFFFFFFFFFFFFFFFFFFFFFFFFFFFFFFFFFFFF AND DUP6 PUSH20 0xFFFFFFFFFFFFFFFFFFFFFFFFFFFFFFFFFFFFFFFF AND PUSH32 0xDDF252AD1BE2C89B69C2B068FC378DAA952BA7F163C4A11628F55A4DF523B3EF DUP6 PUSH1 0x40 MLOAD PUSH2 0xC51 SWAP2 SWAP1 PUSH2 0x22B2 JUMP JUMPDEST PUSH1 0x40 MLOAD DUP1 SWAP2 SUB SWAP1 LOG3 PUSH1 0x1 SWAP2 POP POP SWAP4 SWAP3 POP POP POP JUMP JUMPDEST PUSH32 0x0 DUP2 JUMP JUMPDEST PUSH1 0x0 PUSH32 0x0 CHAINID EQ PUSH2 0xCBF JUMPI PUSH2 0xCBA PUSH2 0x1EFE JUMP JUMPDEST PUSH2 0xCE1 JUMP JUMPDEST PUSH32 0x0 JUMPDEST SWAP1 POP SWAP1 JUMP JUMPDEST PUSH32 0x0 DUP2 JUMP JUMPDEST PUSH1 0x0 PUSH32 0xFFFFFFFFFFFFFFFFFFFFFFFFFFFFFFFFFFFFFFFFFFFFFFFFFFFFFFFFFFFFFFFF SWAP1 POP SWAP2 SWAP1 POP JUMP JUMPDEST PUSH1 0x0 PUSH1 0x6 PUSH1 0x0 SWAP1 SLOAD SWAP1 PUSH2 0x100 EXP SWAP1 DIV PUSH20 0xFFFFFFFFFFFFFFFFFFFFFFFFFFFFFFFFFFFFFFFF AND SWAP1 POP SWAP1 JUMP JUMPDEST PUSH1 0x0 PUSH2 0xD69 DUP3 PUSH2 0x8AD JUMP JUMPDEST SWAP1 POP SWAP2 SWAP1 POP JUMP JUMPDEST PUSH1 0x0 DUP1 PUSH2 0xD7C DUP5 PUSH2 0x1CE7 JUMP JUMPDEST SWAP2 POP DUP2 EQ ISZERO PUSH2 0xDC0 JUMPI PUSH1 0x40 MLOAD PUSH32 0x8C379A000000000000000000000000000000000000000000000000000000000 DUP2 MSTORE PUSH1 0x4 ADD PUSH2 0xDB7 SWAP1 PUSH2 0x2968 JUMP JUMPDEST PUSH1 0x40 MLOAD DUP1 SWAP2 SUB SWAP1 REVERT JUMPDEST PUSH2 0xE0D CALLER ADDRESS DUP6 PUSH32 0x0 PUSH20 0xFFFFFFFFFFFFFFFFFFFFFFFFFFFFFFFFFFFFFFFF AND PUSH2 0x1F8A SWAP1 SWAP4 SWAP3 SWAP2 SWAP1 PUSH4 0xFFFFFFFF AND JUMP JUMPDEST PUSH2 0xE17 DUP3 DUP3 PUSH2 0x2029 JUMP JUMPDEST DUP2 PUSH20 0xFFFFFFFFFFFFFFFFFFFFFFFFFFFFFFFFFFFFFFFF AND CALLER PUSH20 0xFFFFFFFFFFFFFFFFFFFFFFFFFFFFFFFFFFFFFFFF AND PUSH32 0xDCBC1C05240F31FF3AD067EF1EE35CE4997762752E3A095284754544F4C709D7 DUP6 DUP5 PUSH1 0x40 MLOAD PUSH2 0xE76 SWAP3 SWAP2 SWAP1 PUSH2 0x2988 JUMP JUMPDEST PUSH1 0x40 MLOAD DUP1 SWAP2 SUB SWAP1 LOG3 PUSH2 0xE88 DUP4 DUP3 PUSH2 0x20F9 JUMP JUMPDEST SWAP3 SWAP2 POP POP JUMP JUMPDEST PUSH1 0x3 PUSH1 0x20 MSTORE DUP1 PUSH1 0x0 MSTORE PUSH1 0x40 PUSH1 0x0 KECCAK256 PUSH1 0x0 SWAP2 POP SWAP1 POP SLOAD DUP2 JUMP JUMPDEST CALLER PUSH20 0xFFFFFFFFFFFFFFFFFFFFFFFFFFFFFFFFFFFFFFFF AND PUSH2 0xEC5 PUSH2 0xD34 JUMP JUMPDEST PUSH20 0xFFFFFFFFFFFFFFFFFFFFFFFFFFFFFFFFFFFFFFFF AND EQ PUSH2 0xF1B JUMPI PUSH1 0x40 MLOAD PUSH32 0x8C379A000000000000000000000000000000000000000000000000000000000 DUP2 MSTORE PUSH1 0x4 ADD PUSH2 0xF12 SWAP1 PUSH2 0x2A23 JUMP JUMPDEST PUSH1 0x40 MLOAD DUP1 SWAP2 SUB SWAP1 REVERT JUMPDEST PUSH1 0x0 PUSH20 0xFFFFFFFFFFFFFFFFFFFFFFFFFFFFFFFFFFFFFFFF AND PUSH1 0x6 PUSH1 0x0 SWAP1 SLOAD SWAP1 PUSH2 0x100 EXP SWAP1 DIV PUSH20 0xFFFFFFFFFFFFFFFFFFFFFFFFFFFFFFFFFFFFFFFF AND PUSH20 0xFFFFFFFFFFFFFFFFFFFFFFFFFFFFFFFFFFFFFFFF AND PUSH32 0x8BE0079C531659141344CD1FD0A4F28419497F9722A3DAAFE3B4186F6B6457E0 PUSH1 0x40 MLOAD PUSH1 0x40 MLOAD DUP1 SWAP2 SUB SWAP1 LOG3 PUSH1 0x0 PUSH1 0x6 PUSH1 0x0 PUSH2 0x100 EXP DUP2 SLOAD DUP2 PUSH20 0xFFFFFFFFFFFFFFFFFFFFFFFFFFFFFFFFFFFFFFFF MUL NOT AND SWAP1 DUP4 PUSH20 0xFFFFFFFFFFFFFFFFFFFFFFFFFFFFFFFFFFFFFFFF AND MUL OR SWAP1 SSTORE POP JUMP JUMPDEST CALLER PUSH20 0xFFFFFFFFFFFFFFFFFFFFFFFFFFFFFFFFFFFFFFFF AND PUSH2 0xFFB PUSH2 0xD34 JUMP JUMPDEST PUSH20 0xFFFFFFFFFFFFFFFFFFFFFFFFFFFFFFFFFFFFFFFF AND EQ PUSH2 0x1051 JUMPI PUSH1 0x40 MLOAD PUSH32 0x8C379A000000000000000000000000000000000000000000000000000000000 DUP2 MSTORE PUSH1 0x4 ADD PUSH2 0x1048 SWAP1 PUSH2 0x2A23 JUMP JUMPDEST PUSH1 0x40 MLOAD DUP1 SWAP2 SUB SWAP1 REVERT JUMPDEST PUSH8 0xDE0B6B3A7640000 DUP2 GT ISZERO PUSH2 0x109C JUMPI PUSH1 0x40 MLOAD PUSH32 0x8C379A000000000000000000000000000000000000000000000000000000000 DUP2 MSTORE PUSH1 0x4 ADD PUSH2 0x1093 SWAP1 PUSH2 0x2A8F JUMP JUMPDEST PUSH1 0x40 MLOAD DUP1 SWAP2 SUB SWAP1 REVERT JUMPDEST DUP1 PUSH1 0x9 DUP2 SWAP1 SSTORE POP CALLER PUSH20 0xFFFFFFFFFFFFFFFFFFFFFFFFFFFFFFFFFFFFFFFF AND PUSH32 0xEC370615CC81FB334E5566FBC80664D9082377BF59288D64A79F3FBECF4323A9 DUP3 PUSH1 0x40 MLOAD PUSH2 0x10E9 SWAP2 SWAP1 PUSH2 0x22B2 JUMP JUMPDEST PUSH1 0x40 MLOAD DUP1 SWAP2 SUB SWAP1 LOG2 POP JUMP JUMPDEST PUSH1 0x5 PUSH1 0x20 MSTORE DUP1 PUSH1 0x0 MSTORE PUSH1 0x40 PUSH1 0x0 KECCAK256 PUSH1 0x0 SWAP2 POP SWAP1 POP SLOAD DUP2 JUMP JUMPDEST PUSH1 0x9 SLOAD DUP2 JUMP JUMPDEST PUSH1 0x0 PUSH2 0x111D DUP4 PUSH2 0x138F JUMP JUMPDEST SWAP1 POP PUSH2 0x116C CALLER ADDRESS DUP4 PUSH32 0x0 PUSH20 0xFFFFFFFFFFFFFFFFFFFFFFFFFFFFFFFFFFFFFFFF AND PUSH2 0x1F8A SWAP1 SWAP4 SWAP3 SWAP2 SWAP1 PUSH4 0xFFFFFFFF AND JUMP JUMPDEST PUSH2 0x1176 DUP3 DUP5 PUSH2 0x2029 JUMP JUMPDEST DUP2 PUSH20 0xFFFFFFFFFFFFFFFFFFFFFFFFFFFFFFFFFFFFFFFF AND CALLER PUSH20 0xFFFFFFFFFFFFFFFFFFFFFFFFFFFFFFFFFFFFFFFF AND PUSH32 0xDCBC1C05240F31FF3AD067EF1EE35CE4997762752E3A095284754544F4C709D7 DUP4 DUP7 PUSH1 0x40 MLOAD PUSH2 0x11D5 SWAP3 SWAP2 SWAP1 PUSH2 0x2988 JUMP JUMPDEST PUSH1 0x40 MLOAD DUP1 SWAP2 SUB SWAP1 LOG3 PUSH2 0x11E7 DUP2 DUP5 PUSH2 0x20F9 JUMP JUMPDEST SWAP3 SWAP2 POP POP JUMP JUMPDEST PUSH1 0x1 DUP1 SLOAD PUSH2 0x11FA SWAP1 PUSH2 0x2887 JUMP JUMPDEST DUP1 PUSH1 0x1F ADD PUSH1 0x20 DUP1 SWAP2 DIV MUL PUSH1 0x20 ADD PUSH1 0x40 MLOAD SWAP1 DUP2 ADD PUSH1 0x40 MSTORE DUP1 SWAP3 SWAP2 SWAP1 DUP2 DUP2 MSTORE PUSH1 0x20 ADD DUP3 DUP1 SLOAD PUSH2 0x1226 SWAP1 PUSH2 0x2887 JUMP JUMPDEST DUP1 ISZERO PUSH2 0x1273 JUMPI DUP1 PUSH1 0x1F LT PUSH2 0x1248 JUMPI PUSH2 0x100 DUP1 DUP4 SLOAD DIV MUL DUP4 MSTORE SWAP2 PUSH1 0x20 ADD SWAP2 PUSH2 0x1273 JUMP JUMPDEST DUP3 ADD SWAP2 SWAP1 PUSH1 0x0 MSTORE PUSH1 0x20 PUSH1 0x0 KECCAK256 SWAP1 JUMPDEST DUP2 SLOAD DUP2 MSTORE SWAP1 PUSH1 0x1 ADD SWAP1 PUSH1 0x20 ADD DUP1 DUP4 GT PUSH2 0x1256 JUMPI DUP3 SWAP1 SUB PUSH1 0x1F AND DUP3 ADD SWAP2 JUMPDEST POP POP POP POP POP DUP2 JUMP JUMPDEST PUSH1 0x0 DUP2 PUSH1 0x3 PUSH1 0x0 CALLER PUSH20 0xFFFFFFFFFFFFFFFFFFFFFFFFFFFFFFFFFFFFFFFF AND PUSH20 0xFFFFFFFFFFFFFFFFFFFFFFFFFFFFFFFFFFFFFFFF AND DUP2 MSTORE PUSH1 0x20 ADD SWAP1 DUP2 MSTORE PUSH1 0x20 ADD PUSH1 0x0 KECCAK256 PUSH1 0x0 DUP3 DUP3 SLOAD PUSH2 0x12CC SWAP2 SWAP1 PUSH2 0x28E8 JUMP JUMPDEST SWAP3 POP POP DUP2 SWAP1 SSTORE POP DUP2 PUSH1 0x3 PUSH1 0x0 DUP6 PUSH20 0xFFFFFFFFFFFFFFFFFFFFFFFFFFFFFFFFFFFFFFFF AND PUSH20 0xFFFFFFFFFFFFFFFFFFFFFFFFFFFFFFFFFFFFFFFF AND DUP2 MSTORE PUSH1 0x20 ADD SWAP1 DUP2 MSTORE PUSH1 0x20 ADD PUSH1 0x0 KECCAK256 PUSH1 0x0 DUP3 DUP3 SLOAD ADD SWAP3 POP POP DUP2 SWAP1 SSTORE POP DUP3 PUSH20 0xFFFFFFFFFFFFFFFFFFFFFFFFFFFFFFFFFFFFFFFF AND CALLER PUSH20 0xFFFFFFFFFFFFFFFFFFFFFFFFFFFFFFFFFFFFFFFF AND PUSH32 0xDDF252AD1BE2C89B69C2B068FC378DAA952BA7F163C4A11628F55A4DF523B3EF DUP5 PUSH1 0x40 MLOAD PUSH2 0x137D SWAP2 SWAP1 PUSH2 0x22B2 JUMP JUMPDEST PUSH1 0x40 MLOAD DUP1 SWAP2 SUB SWAP1 LOG3 PUSH1 0x1 SWAP1 POP SWAP3 SWAP2 POP POP JUMP JUMPDEST PUSH1 0x0 DUP1 PUSH1 0x2 SLOAD SWAP1 POP PUSH1 0x0 DUP2 EQ PUSH2 0x13C0 JUMPI PUSH2 0x13BB PUSH2 0x13AA PUSH2 0x77E JUMP JUMPDEST DUP3 DUP6 PUSH2 0x1ECC SWAP1 SWAP3 SWAP2 SWAP1 PUSH4 0xFFFFFFFF AND JUMP JUMPDEST PUSH2 0x13C2 JUMP JUMPDEST DUP3 JUMPDEST SWAP2 POP POP SWAP2 SWAP1 POP JUMP JUMPDEST PUSH1 0x0 PUSH2 0x13D5 DUP5 PUSH2 0x9DA JUMP JUMPDEST SWAP1 POP DUP2 PUSH20 0xFFFFFFFFFFFFFFFFFFFFFFFFFFFFFFFFFFFFFFFF AND CALLER PUSH20 0xFFFFFFFFFFFFFFFFFFFFFFFFFFFFFFFFFFFFFFFF AND EQ PUSH2 0x1541 JUMPI PUSH1 0x0 PUSH1 0x4 PUSH1 0x0 DUP5 PUSH20 0xFFFFFFFFFFFFFFFFFFFFFFFFFFFFFFFFFFFFFFFF AND PUSH20 0xFFFFFFFFFFFFFFFFFFFFFFFFFFFFFFFFFFFFFFFF AND DUP2 MSTORE PUSH1 0x20 ADD SWAP1 DUP2 MSTORE PUSH1 0x20 ADD PUSH1 0x0 KECCAK256 PUSH1 0x0 CALLER PUSH20 0xFFFFFFFFFFFFFFFFFFFFFFFFFFFFFFFFFFFFFFFF AND PUSH20 0xFFFFFFFFFFFFFFFFFFFFFFFFFFFFFFFFFFFFFFFF AND DUP2 MSTORE PUSH1 0x20 ADD SWAP1 DUP2 MSTORE PUSH1 0x20 ADD PUSH1 0x0 KECCAK256 SLOAD SWAP1 POP PUSH32 0xFFFFFFFFFFFFFFFFFFFFFFFFFFFFFFFFFFFFFFFFFFFFFFFFFFFFFFFFFFFFFFFF DUP2 EQ PUSH2 0x153F JUMPI DUP2 DUP2 PUSH2 0x14BE SWAP2 SWAP1 PUSH2 0x28E8 JUMP JUMPDEST PUSH1 0x4 PUSH1 0x0 DUP6 PUSH20 0xFFFFFFFFFFFFFFFFFFFFFFFFFFFFFFFFFFFFFFFF AND PUSH20 0xFFFFFFFFFFFFFFFFFFFFFFFFFFFFFFFFFFFFFFFF AND DUP2 MSTORE PUSH1 0x20 ADD SWAP1 DUP2 MSTORE PUSH1 0x20 ADD PUSH1 0x0 KECCAK256 PUSH1 0x0 CALLER PUSH20 0xFFFFFFFFFFFFFFFFFFFFFFFFFFFFFFFFFFFFFFFF AND PUSH20 0xFFFFFFFFFFFFFFFFFFFFFFFFFFFFFFFFFFFFFFFF AND DUP2 MSTORE PUSH1 0x20 ADD SWAP1 DUP2 MSTORE PUSH1 0x20 ADD PUSH1 0x0 KECCAK256 DUP2 SWAP1 SSTORE POP JUMPDEST POP JUMPDEST PUSH2 0x154B DUP5 DUP3 PUSH2 0x2115 JUMP JUMPDEST PUSH2 0x1555 DUP3 DUP3 PUSH2 0x2131 JUMP JUMPDEST DUP2 PUSH20 0xFFFFFFFFFFFFFFFFFFFFFFFFFFFFFFFFFFFFFFFF AND DUP4 PUSH20 0xFFFFFFFFFFFFFFFFFFFFFFFFFFFFFFFFFFFFFFFF AND CALLER PUSH20 0xFFFFFFFFFFFFFFFFFFFFFFFFFFFFFFFFFFFFFFFF AND PUSH32 0xFBDE797D201C681B91056529119E0B02407C7BB96A4A2C75C01FC9667232C8DB DUP8 DUP6 PUSH1 0x40 MLOAD PUSH2 0x15CB SWAP3 SWAP2 SWAP1 PUSH2 0x2988 JUMP JUMPDEST PUSH1 0x40 MLOAD DUP1 SWAP2 SUB SWAP1 LOG4 PUSH2 0x161E DUP4 DUP6 PUSH32 0x0 PUSH20 0xFFFFFFFFFFFFFFFFFFFFFFFFFFFFFFFFFFFFFFFF AND PUSH2 0x2201 SWAP1 SWAP3 SWAP2 SWAP1 PUSH4 0xFFFFFFFF AND JUMP JUMPDEST SWAP4 SWAP3 POP POP POP JUMP JUMPDEST PUSH1 0x0 DUP2 PUSH20 0xFFFFFFFFFFFFFFFFFFFFFFFFFFFFFFFFFFFFFFFF AND CALLER PUSH20 0xFFFFFFFFFFFFFFFFFFFFFFFFFFFFFFFFFFFFFFFF AND EQ PUSH2 0x1791 JUMPI PUSH1 0x0 PUSH1 0x4 PUSH1 0x0 DUP5 PUSH20 0xFFFFFFFFFFFFFFFFFFFFFFFFFFFFFFFFFFFFFFFF AND PUSH20 0xFFFFFFFFFFFFFFFFFFFFFFFFFFFFFFFFFFFFFFFF AND DUP2 MSTORE PUSH1 0x20 ADD SWAP1 DUP2 MSTORE PUSH1 0x20 ADD PUSH1 0x0 KECCAK256 PUSH1 0x0 CALLER PUSH20 0xFFFFFFFFFFFFFFFFFFFFFFFFFFFFFFFFFFFFFFFF AND PUSH20 0xFFFFFFFFFFFFFFFFFFFFFFFFFFFFFFFFFFFFFFFF AND DUP2 MSTORE PUSH1 0x20 ADD SWAP1 DUP2 MSTORE PUSH1 0x20 ADD PUSH1 0x0 KECCAK256 SLOAD SWAP1 POP PUSH32 0xFFFFFFFFFFFFFFFFFFFFFFFFFFFFFFFFFFFFFFFFFFFFFFFFFFFFFFFFFFFFFFFF DUP2 EQ PUSH2 0x178F JUMPI DUP5 DUP2 PUSH2 0x170E SWAP2 SWAP1 PUSH2 0x28E8 JUMP JUMPDEST PUSH1 0x4 PUSH1 0x0 DUP6 PUSH20 0xFFFFFFFFFFFFFFFFFFFFFFFFFFFFFFFFFFFFFFFF AND PUSH20 0xFFFFFFFFFFFFFFFFFFFFFFFFFFFFFFFFFFFFFFFF AND DUP2 MSTORE PUSH1 0x20 ADD SWAP1 DUP2 MSTORE PUSH1 0x20 ADD PUSH1 0x0 KECCAK256 PUSH1 0x0 CALLER PUSH20 0xFFFFFFFFFFFFFFFFFFFFFFFFFFFFFFFFFFFFFFFF AND PUSH20 0xFFFFFFFFFFFFFFFFFFFFFFFFFFFFFFFFFFFFFFFF AND DUP2 MSTORE PUSH1 0x20 ADD SWAP1 DUP2 MSTORE PUSH1 0x20 ADD PUSH1 0x0 KECCAK256 DUP2 SWAP1 SSTORE POP JUMPDEST POP JUMPDEST PUSH1 0x0 PUSH2 0x179C DUP6 PUSH2 0xD5E JUMP JUMPDEST SWAP2 POP DUP2 EQ ISZERO PUSH2 0x17E0 JUMPI PUSH1 0x40 MLOAD PUSH32 0x8C379A000000000000000000000000000000000000000000000000000000000 DUP2 MSTORE PUSH1 0x4 ADD PUSH2 0x17D7 SWAP1 PUSH2 0x2AFB JUMP JUMPDEST PUSH1 0x40 MLOAD DUP1 SWAP2 SUB SWAP1 REVERT JUMPDEST PUSH2 0x17EA DUP2 DUP6 PUSH2 0x2115 JUMP JUMPDEST PUSH2 0x17F4 DUP3 DUP6 PUSH2 0x2131 JUMP JUMPDEST DUP2 PUSH20 0xFFFFFFFFFFFFFFFFFFFFFFFFFFFFFFFFFFFFFFFF AND DUP4 PUSH20 0xFFFFFFFFFFFFFFFFFFFFFFFFFFFFFFFFFFFFFFFF AND CALLER PUSH20 0xFFFFFFFFFFFFFFFFFFFFFFFFFFFFFFFFFFFFFFFF AND PUSH32 0xFBDE797D201C681B91056529119E0B02407C7BB96A4A2C75C01FC9667232C8DB DUP5 DUP9 PUSH1 0x40 MLOAD PUSH2 0x186A SWAP3 SWAP2 SWAP1 PUSH2 0x2988 JUMP JUMPDEST PUSH1 0x40 MLOAD DUP1 SWAP2 SUB SWAP1 LOG4 PUSH2 0x18BD DUP4 DUP3 PUSH32 0x0 PUSH20 0xFFFFFFFFFFFFFFFFFFFFFFFFFFFFFFFFFFFFFFFF AND PUSH2 0x2201 SWAP1 SWAP3 SWAP2 SWAP1 PUSH4 0xFFFFFFFF AND JUMP JUMPDEST SWAP4 SWAP3 POP POP POP JUMP JUMPDEST PUSH1 0x7 SLOAD DUP2 JUMP JUMPDEST PUSH1 0x0 PUSH32 0xFFFFFFFFFFFFFFFFFFFFFFFFFFFFFFFFFFFFFFFFFFFFFFFFFFFFFFFFFFFFFFFF SWAP1 POP SWAP2 SWAP1 POP JUMP JUMPDEST PUSH1 0x0 DUP1 PUSH1 0x2 SLOAD SWAP1 POP PUSH1 0x0 DUP2 EQ PUSH2 0x1925 JUMPI PUSH2 0x1920 DUP2 PUSH2 0x1910 PUSH2 0x77E JUMP JUMPDEST DUP6 PUSH2 0x1EA4 SWAP1 SWAP3 SWAP2 SWAP1 PUSH4 0xFFFFFFFF AND JUMP JUMPDEST PUSH2 0x1927 JUMP JUMPDEST DUP3 JUMPDEST SWAP2 POP POP SWAP2 SWAP1 POP JUMP JUMPDEST PUSH1 0x0 PUSH2 0x1979 PUSH1 0x3 PUSH1 0x0 DUP5 PUSH20 0xFFFFFFFFFFFFFFFFFFFFFFFFFFFFFFFFFFFFFFFF AND PUSH20 0xFFFFFFFFFFFFFFFFFFFFFFFFFFFFFFFFFFFFFFFF AND DUP2 MSTORE PUSH1 0x20 ADD SWAP1 DUP2 MSTORE PUSH1 0x20 ADD PUSH1 0x0 KECCAK256 SLOAD PUSH2 0x8AD JUMP JUMPDEST SWAP1 POP SWAP2 SWAP1 POP JUMP JUMPDEST TIMESTAMP DUP5 LT ISZERO PUSH2 0x19C3 JUMPI PUSH1 0x40 MLOAD PUSH32 0x8C379A000000000000000000000000000000000000000000000000000000000 DUP2 MSTORE PUSH1 0x4 ADD PUSH2 0x19BA SWAP1 PUSH2 0x2B67 JUMP JUMPDEST PUSH1 0x40 MLOAD DUP1 SWAP2 SUB SWAP1 REVERT JUMPDEST PUSH1 0x0 PUSH1 0x1 PUSH2 0x19CF PUSH2 0xC89 JUMP JUMPDEST PUSH32 0x6E71EDAE12B1B97F4D1F60370FEF10105FA2FAAE0126114A169C64845D6126C9 DUP11 DUP11 DUP11 PUSH1 0x5 PUSH1 0x0 DUP16 PUSH20 0xFFFFFFFFFFFFFFFFFFFFFFFFFFFFFFFFFFFFFFFF AND PUSH20 0xFFFFFFFFFFFFFFFFFFFFFFFFFFFFFFFFFFFFFFFF AND DUP2 MSTORE PUSH1 0x20 ADD SWAP1 DUP2 MSTORE PUSH1 0x20 ADD PUSH1 0x0 KECCAK256 PUSH1 0x0 DUP2 SLOAD DUP1 SWAP3 SWAP2 SWAP1 PUSH1 0x1 ADD SWAP2 SWAP1 POP SSTORE DUP12 PUSH1 0x40 MLOAD PUSH1 0x20 ADD PUSH2 0x1A57 SWAP7 SWAP6 SWAP5 SWAP4 SWAP3 SWAP2 SWAP1 PUSH2 0x2B87 JUMP JUMPDEST PUSH1 0x40 MLOAD PUSH1 0x20 DUP2 DUP4 SUB SUB DUP2 MSTORE SWAP1 PUSH1 0x40 MSTORE DUP1 MLOAD SWAP1 PUSH1 0x20 ADD KECCAK256 PUSH1 0x40 MLOAD PUSH1 0x20 ADD PUSH2 0x1A7E SWAP3 SWAP2 SWAP1 PUSH2 0x2C60 JUMP JUMPDEST PUSH1 0x40 MLOAD PUSH1 0x20 DUP2 DUP4 SUB SUB DUP2 MSTORE SWAP1 PUSH1 0x40 MSTORE DUP1 MLOAD SWAP1 PUSH1 0x20 ADD KECCAK256 DUP6 DUP6 DUP6 PUSH1 0x40 MLOAD PUSH1 0x0 DUP2 MSTORE PUSH1 0x20 ADD PUSH1 0x40 MSTORE PUSH1 0x40 MLOAD PUSH2 0x1AB4 SWAP5 SWAP4 SWAP3 SWAP2 SWAP1 PUSH2 0x2C97 JUMP JUMPDEST PUSH1 0x20 PUSH1 0x40 MLOAD PUSH1 0x20 DUP2 SUB SWAP1 DUP1 DUP5 SUB SWAP1 DUP6 GAS STATICCALL ISZERO DUP1 ISZERO PUSH2 0x1AD6 JUMPI RETURNDATASIZE PUSH1 0x0 DUP1 RETURNDATACOPY RETURNDATASIZE PUSH1 0x0 REVERT JUMPDEST POP POP POP PUSH1 0x20 PUSH1 0x40 MLOAD SUB MLOAD SWAP1 POP PUSH1 0x0 PUSH20 0xFFFFFFFFFFFFFFFFFFFFFFFFFFFFFFFFFFFFFFFF AND DUP2 PUSH20 0xFFFFFFFFFFFFFFFFFFFFFFFFFFFFFFFFFFFFFFFF AND EQ ISZERO DUP1 ISZERO PUSH2 0x1B4A JUMPI POP DUP8 PUSH20 0xFFFFFFFFFFFFFFFFFFFFFFFFFFFFFFFFFFFFFFFF AND DUP2 PUSH20 0xFFFFFFFFFFFFFFFFFFFFFFFFFFFFFFFFFFFFFFFF AND EQ JUMPDEST PUSH2 0x1B89 JUMPI PUSH1 0x40 MLOAD PUSH32 0x8C379A000000000000000000000000000000000000000000000000000000000 DUP2 MSTORE PUSH1 0x4 ADD PUSH2 0x1B80 SWAP1 PUSH2 0x2D28 JUMP JUMPDEST PUSH1 0x40 MLOAD DUP1 SWAP2 SUB SWAP1 REVERT JUMPDEST DUP6 PUSH1 0x4 PUSH1 0x0 DUP4 PUSH20 0xFFFFFFFFFFFFFFFFFFFFFFFFFFFFFFFFFFFFFFFF AND PUSH20 0xFFFFFFFFFFFFFFFFFFFFFFFFFFFFFFFFFFFFFFFF AND DUP2 MSTORE PUSH1 0x20 ADD SWAP1 DUP2 MSTORE PUSH1 0x20 ADD PUSH1 0x0 KECCAK256 PUSH1 0x0 DUP10 PUSH20 0xFFFFFFFFFFFFFFFFFFFFFFFFFFFFFFFFFFFFFFFF AND PUSH20 0xFFFFFFFFFFFFFFFFFFFFFFFFFFFFFFFFFFFFFFFF AND DUP2 MSTORE PUSH1 0x20 ADD SWAP1 DUP2 MSTORE PUSH1 0x20 ADD PUSH1 0x0 KECCAK256 DUP2 SWAP1 SSTORE POP POP DUP6 PUSH20 0xFFFFFFFFFFFFFFFFFFFFFFFFFFFFFFFFFFFFFFFF AND DUP8 PUSH20 0xFFFFFFFFFFFFFFFFFFFFFFFFFFFFFFFFFFFFFFFF AND PUSH32 0x8C5BE1E5EBEC7D5BD14F71427D1E84F3DD0314C0F7B2291E5B200AC8C7C3B925 DUP8 PUSH1 0x40 MLOAD PUSH2 0x1C68 SWAP2 SWAP1 PUSH2 0x22B2 JUMP JUMPDEST PUSH1 0x40 MLOAD DUP1 SWAP2 SUB SWAP1 LOG3 POP POP POP POP POP POP POP JUMP JUMPDEST PUSH1 0x0 PUSH1 0x3 PUSH1 0x0 DUP4 PUSH20 0xFFFFFFFFFFFFFFFFFFFFFFFFFFFFFFFFFFFFFFFF AND PUSH20 0xFFFFFFFFFFFFFFFFFFFFFFFFFFFFFFFFFFFFFFFF AND DUP2 MSTORE PUSH1 0x20 ADD SWAP1 DUP2 MSTORE PUSH1 0x20 ADD PUSH1 0x0 KECCAK256 SLOAD SWAP1 POP SWAP2 SWAP1 POP JUMP JUMPDEST PUSH1 0x4 PUSH1 0x20 MSTORE DUP2 PUSH1 0x0 MSTORE PUSH1 0x40 PUSH1 0x0 KECCAK256 PUSH1 0x20 MSTORE DUP1 PUSH1 0x0 MSTORE PUSH1 0x40 PUSH1 0x0 KECCAK256 PUSH1 0x0 SWAP2 POP SWAP2 POP POP SLOAD DUP2 JUMP JUMPDEST PUSH1 0x0 PUSH2 0x1CF2 DUP3 PUSH2 0x18F4 JUMP JUMPDEST SWAP1 POP SWAP2 SWAP1 POP JUMP JUMPDEST CALLER PUSH20 0xFFFFFFFFFFFFFFFFFFFFFFFFFFFFFFFFFFFFFFFF AND PUSH2 0x1D18 PUSH2 0xD34 JUMP JUMPDEST PUSH20 0xFFFFFFFFFFFFFFFFFFFFFFFFFFFFFFFFFFFFFFFF AND EQ PUSH2 0x1D6E JUMPI PUSH1 0x40 MLOAD PUSH32 0x8C379A000000000000000000000000000000000000000000000000000000000 DUP2 MSTORE PUSH1 0x4 ADD PUSH2 0x1D65 SWAP1 PUSH2 0x2A23 JUMP JUMPDEST PUSH1 0x40 MLOAD DUP1 SWAP2 SUB SWAP1 REVERT JUMPDEST PUSH1 0x0 PUSH20 0xFFFFFFFFFFFFFFFFFFFFFFFFFFFFFFFFFFFFFFFF AND DUP2 PUSH20 0xFFFFFFFFFFFFFFFFFFFFFFFFFFFFFFFFFFFFFFFF AND EQ ISZERO PUSH2 0x1DDE JUMPI PUSH1 0x40 MLOAD PUSH32 0x8C379A000000000000000000000000000000000000000000000000000000000 DUP2 MSTORE PUSH1 0x4 ADD PUSH2 0x1DD5 SWAP1 PUSH2 0x2DBA JUMP JUMPDEST PUSH1 0x40 MLOAD DUP1 SWAP2 SUB SWAP1 REVERT JUMPDEST DUP1 PUSH20 0xFFFFFFFFFFFFFFFFFFFFFFFFFFFFFFFFFFFFFFFF AND PUSH1 0x6 PUSH1 0x0 SWAP1 SLOAD SWAP1 PUSH2 0x100 EXP SWAP1 DIV PUSH20 0xFFFFFFFFFFFFFFFFFFFFFFFFFFFFFFFFFFFFFFFF AND PUSH20 0xFFFFFFFFFFFFFFFFFFFFFFFFFFFFFFFFFFFFFFFF AND PUSH32 0x8BE0079C531659141344CD1FD0A4F28419497F9722A3DAAFE3B4186F6B6457E0 PUSH1 0x40 MLOAD PUSH1 0x40 MLOAD DUP1 SWAP2 SUB SWAP1 LOG3 DUP1 PUSH1 0x6 PUSH1 0x0 PUSH2 0x100 EXP DUP2 SLOAD DUP2 PUSH20 0xFFFFFFFFFFFFFFFFFFFFFFFFFFFFFFFFFFFFFFFF MUL NOT AND SWAP1 DUP4 PUSH20 0xFFFFFFFFFFFFFFFFFFFFFFFFFFFFFFFFFFFFFFFF AND MUL OR SWAP1 SSTORE POP POP JUMP JUMPDEST PUSH1 0x8 SLOAD DUP2 JUMP JUMPDEST PUSH1 0x0 DUP3 DUP5 MUL SWAP1 POP DUP3 DUP5 DUP3 DIV EQ DUP5 ISZERO OR DUP3 ISZERO ISZERO AND PUSH2 0x1EC0 JUMPI PUSH1 0x0 DUP1 REVERT JUMPDEST DUP2 DUP2 DIV SWAP1 POP SWAP4 SWAP3 POP POP POP JUMP JUMPDEST PUSH1 0x0 DUP3 DUP5 MUL SWAP1 POP DUP3 DUP5 DUP3 DIV EQ DUP5 ISZERO OR DUP3 ISZERO ISZERO AND PUSH2 0x1EE8 JUMPI PUSH1 0x0 DUP1 REVERT JUMPDEST PUSH1 0x1 DUP3 PUSH1 0x1 DUP4 SUB DIV ADD DUP2 ISZERO ISZERO MUL SWAP1 POP SWAP4 SWAP3 POP POP POP JUMP JUMPDEST PUSH1 0x0 PUSH32 0x8B73C3C69BB8FE3D512ECC4CF759CC79239F7B179B0FFACAA9A75D522B39400F PUSH1 0x0 PUSH1 0x40 MLOAD PUSH2 0x1F30 SWAP2 SWAP1 PUSH2 0x2E79 JUMP JUMPDEST PUSH1 0x40 MLOAD DUP1 SWAP2 SUB SWAP1 KECCAK256 PUSH32 0xC89EFDAA54C0F20C7ADF612882DF0950F5A951637E0307CDCB4C672F298B8BC6 CHAINID ADDRESS PUSH1 0x40 MLOAD PUSH1 0x20 ADD PUSH2 0x1F6F SWAP6 SWAP5 SWAP4 SWAP3 SWAP2 SWAP1 PUSH2 0x2E90 JUMP JUMPDEST PUSH1 0x40 MLOAD PUSH1 0x20 DUP2 DUP4 SUB SUB DUP2 MSTORE SWAP1 PUSH1 0x40 MSTORE DUP1 MLOAD SWAP1 PUSH1 0x20 ADD KECCAK256 SWAP1 POP SWAP1 JUMP JUMPDEST PUSH1 0x0 PUSH1 0x40 MLOAD PUSH32 0x23B872DD00000000000000000000000000000000000000000000000000000000 DUP2 MSTORE DUP5 PUSH1 0x4 DUP3 ADD MSTORE DUP4 PUSH1 0x24 DUP3 ADD MSTORE DUP3 PUSH1 0x44 DUP3 ADD MSTORE PUSH1 0x20 PUSH1 0x0 PUSH1 0x64 DUP4 PUSH1 0x0 DUP11 GAS CALL RETURNDATASIZE ISZERO PUSH1 0x1F RETURNDATASIZE GT PUSH1 0x1 PUSH1 0x0 MLOAD EQ AND OR AND SWAP2 POP POP DUP1 PUSH2 0x2022 JUMPI PUSH1 0x40 MLOAD PUSH32 0x8C379A000000000000000000000000000000000000000000000000000000000 DUP2 MSTORE PUSH1 0x4 ADD PUSH2 0x2019 SWAP1 PUSH2 0x2F2F JUMP JUMPDEST PUSH1 0x40 MLOAD DUP1 SWAP2 SUB SWAP1 REVERT JUMPDEST POP POP POP POP POP JUMP JUMPDEST DUP1 PUSH1 0x2 PUSH1 0x0 DUP3 DUP3 SLOAD PUSH2 0x203B SWAP2 SWAP1 PUSH2 0x2F4F JUMP JUMPDEST SWAP3 POP POP DUP2 SWAP1 SSTORE POP DUP1 PUSH1 0x3 PUSH1 0x0 DUP5 PUSH20 0xFFFFFFFFFFFFFFFFFFFFFFFFFFFFFFFFFFFFFFFF AND PUSH20 0xFFFFFFFFFFFFFFFFFFFFFFFFFFFFFFFFFFFFFFFF AND DUP2 MSTORE PUSH1 0x20 ADD SWAP1 DUP2 MSTORE PUSH1 0x20 ADD PUSH1 0x0 KECCAK256 PUSH1 0x0 DUP3 DUP3 SLOAD ADD SWAP3 POP POP DUP2 SWAP1 SSTORE POP DUP2 PUSH20 0xFFFFFFFFFFFFFFFFFFFFFFFFFFFFFFFFFFFFFFFF AND PUSH1 0x0 PUSH20 0xFFFFFFFFFFFFFFFFFFFFFFFFFFFFFFFFFFFFFFFF AND PUSH32 0xDDF252AD1BE2C89B69C2B068FC378DAA952BA7F163C4A11628F55A4DF523B3EF DUP4 PUSH1 0x40 MLOAD PUSH2 0x20ED SWAP2 SWAP1 PUSH2 0x22B2 JUMP JUMPDEST PUSH1 0x40 MLOAD DUP1 SWAP2 SUB SWAP1 LOG3 POP POP JUMP JUMPDEST PUSH1 0x8 PUSH1 0x0 DUP2 SLOAD DUP1 SWAP3 SWAP2 SWAP1 PUSH2 0x210C SWAP1 PUSH2 0x2FA5 JUMP JUMPDEST SWAP2 SWAP1 POP SSTORE POP POP POP JUMP JUMPDEST PUSH1 0x7 PUSH1 0x0 DUP2 SLOAD DUP1 SWAP3 SWAP2 SWAP1 PUSH2 0x2128 SWAP1 PUSH2 0x2FA5 JUMP JUMPDEST SWAP2 SWAP1 POP SSTORE POP POP POP JUMP JUMPDEST DUP1 PUSH1 0x3 PUSH1 0x0 DUP5 PUSH20 0xFFFFFFFFFFFFFFFFFFFFFFFFFFFFFFFFFFFFFFFF AND PUSH20 0xFFFFFFFFFFFFFFFFFFFFFFFFFFFFFFFFFFFFFFFF AND DUP2 MSTORE PUSH1 0x20 ADD SWAP1 DUP2 MSTORE PUSH1 0x20 ADD PUSH1 0x0 KECCAK256 PUSH1 0x0 DUP3 DUP3 SLOAD PUSH2 0x2180 SWAP2 SWAP1 PUSH2 0x28E8 JUMP JUMPDEST SWAP3 POP POP DUP2 SWAP1 SSTORE POP DUP1 PUSH1 0x2 PUSH1 0x0 DUP3 DUP3 SLOAD SUB SWAP3 POP POP DUP2 SWAP1 SSTORE POP PUSH1 0x0 PUSH20 0xFFFFFFFFFFFFFFFFFFFFFFFFFFFFFFFFFFFFFFFF AND DUP3 PUSH20 0xFFFFFFFFFFFFFFFFFFFFFFFFFFFFFFFFFFFFFFFF AND PUSH32 0xDDF252AD1BE2C89B69C2B068FC378DAA952BA7F163C4A11628F55A4DF523B3EF DUP4 PUSH1 0x40 MLOAD PUSH2 0x21F5 SWAP2 SWAP1 PUSH2 0x22B2 JUMP JUMPDEST PUSH1 0x40 MLOAD DUP1 SWAP2 SUB SWAP1 LOG3 POP POP JUMP JUMPDEST PUSH1 0x0 PUSH1 0x40 MLOAD PUSH32 0xA9059CBB00000000000000000000000000000000000000000000000000000000 DUP2 MSTORE DUP4 PUSH1 0x4 DUP3 ADD MSTORE DUP3 PUSH1 0x24 DUP3 ADD MSTORE PUSH1 0x20 PUSH1 0x0 PUSH1 0x44 DUP4 PUSH1 0x0 DUP10 GAS CALL RETURNDATASIZE ISZERO PUSH1 0x1F RETURNDATASIZE GT PUSH1 0x1 PUSH1 0x0 MLOAD EQ AND OR AND SWAP2 POP POP DUP1 PUSH2 0x2293 JUMPI PUSH1 0x40 MLOAD PUSH32 0x8C379A000000000000000000000000000000000000000000000000000000000 DUP2 MSTORE PUSH1 0x4 ADD PUSH2 0x228A SWAP1 PUSH2 0x303A JUMP JUMPDEST PUSH1 0x40 MLOAD DUP1 SWAP2 SUB SWAP1 REVERT JUMPDEST POP POP POP POP JUMP JUMPDEST PUSH1 0x0 DUP2 SWAP1 POP SWAP2 SWAP1 POP JUMP JUMPDEST PUSH2 0x22AC DUP2 PUSH2 0x2299 JUMP JUMPDEST DUP3 MSTORE POP POP JUMP JUMPDEST PUSH1 0x0 PUSH1 0x20 DUP3 ADD SWAP1 POP PUSH2 0x22C7 PUSH1 0x0 DUP4 ADD DUP5 PUSH2 0x22A3 JUMP JUMPDEST SWAP3 SWAP2 POP POP JUMP JUMPDEST PUSH1 0x0 DUP2 MLOAD SWAP1 POP SWAP2 SWAP1 POP JUMP JUMPDEST PUSH1 0x0 DUP3 DUP3 MSTORE PUSH1 0x20 DUP3 ADD SWAP1 POP SWAP3 SWAP2 POP POP JUMP JUMPDEST PUSH1 0x0 JUMPDEST DUP4 DUP2 LT ISZERO PUSH2 0x2307 JUMPI DUP1 DUP3 ADD MLOAD DUP2 DUP5 ADD MSTORE PUSH1 0x20 DUP2 ADD SWAP1 POP PUSH2 0x22EC JUMP JUMPDEST DUP4 DUP2 GT ISZERO PUSH2 0x2316 JUMPI PUSH1 0x0 DUP5 DUP5 ADD MSTORE JUMPDEST POP POP POP POP JUMP JUMPDEST PUSH1 0x0 PUSH1 0x1F NOT PUSH1 0x1F DUP4 ADD AND SWAP1 POP SWAP2 SWAP1 POP JUMP JUMPDEST PUSH1 0x0 PUSH2 0x2338 DUP3 PUSH2 0x22CD JUMP JUMPDEST PUSH2 0x2342 DUP2 DUP6 PUSH2 0x22D8 JUMP JUMPDEST SWAP4 POP PUSH2 0x2352 DUP2 DUP6 PUSH1 0x20 DUP7 ADD PUSH2 0x22E9 JUMP JUMPDEST PUSH2 0x235B DUP2 PUSH2 0x231C JUMP JUMPDEST DUP5 ADD SWAP2 POP POP SWAP3 SWAP2 POP POP JUMP JUMPDEST PUSH1 0x0 PUSH1 0x20 DUP3 ADD SWAP1 POP DUP2 DUP2 SUB PUSH1 0x0 DUP4 ADD MSTORE PUSH2 0x2380 DUP2 DUP5 PUSH2 0x232D JUMP JUMPDEST SWAP1 POP SWAP3 SWAP2 POP POP JUMP JUMPDEST PUSH1 0x0 DUP1 REVERT JUMPDEST PUSH2 0x2396 DUP2 PUSH2 0x2299 JUMP JUMPDEST DUP2 EQ PUSH2 0x23A1 JUMPI PUSH1 0x0 DUP1 REVERT JUMPDEST POP JUMP JUMPDEST PUSH1 0x0 DUP2 CALLDATALOAD SWAP1 POP PUSH2 0x23B3 DUP2 PUSH2 0x238D JUMP JUMPDEST SWAP3 SWAP2 POP POP JUMP JUMPDEST PUSH1 0x0 PUSH1 0x20 DUP3 DUP5 SUB SLT ISZERO PUSH2 0x23CF JUMPI PUSH2 0x23CE PUSH2 0x2388 JUMP JUMPDEST JUMPDEST PUSH1 0x0 PUSH2 0x23DD DUP5 DUP3 DUP6 ADD PUSH2 0x23A4 JUMP JUMPDEST SWAP2 POP POP SWAP3 SWAP2 POP POP JUMP JUMPDEST PUSH1 0x0 PUSH20 0xFFFFFFFFFFFFFFFFFFFFFFFFFFFFFFFFFFFFFFFF DUP3 AND SWAP1 POP SWAP2 SWAP1 POP JUMP JUMPDEST PUSH1 0x0 PUSH2 0x2411 DUP3 PUSH2 0x23E6 JUMP JUMPDEST SWAP1 POP SWAP2 SWAP1 POP JUMP JUMPDEST PUSH2 0x2421 DUP2 PUSH2 0x2406 JUMP JUMPDEST DUP2 EQ PUSH2 0x242C JUMPI PUSH1 0x0 DUP1 REVERT JUMPDEST POP JUMP JUMPDEST PUSH1 0x0 DUP2 CALLDATALOAD SWAP1 POP PUSH2 0x243E DUP2 PUSH2 0x2418 JUMP JUMPDEST SWAP3 SWAP2 POP POP JUMP JUMPDEST PUSH1 0x0 DUP1 PUSH1 0x40 DUP4 DUP6 SUB SLT ISZERO PUSH2 0x245B JUMPI PUSH2 0x245A PUSH2 0x2388 JUMP JUMPDEST JUMPDEST PUSH1 0x0 PUSH2 0x2469 DUP6 DUP3 DUP7 ADD PUSH2 0x242F JUMP JUMPDEST SWAP3 POP POP PUSH1 0x20 PUSH2 0x247A DUP6 DUP3 DUP7 ADD PUSH2 0x23A4 JUMP JUMPDEST SWAP2 POP POP SWAP3 POP SWAP3 SWAP1 POP JUMP JUMPDEST PUSH1 0x0 DUP2 ISZERO ISZERO SWAP1 POP SWAP2 SWAP1 POP JUMP JUMPDEST PUSH2 0x2499 DUP2 PUSH2 0x2484 JUMP JUMPDEST DUP3 MSTORE POP POP JUMP JUMPDEST PUSH1 0x0 PUSH1 0x20 DUP3 ADD SWAP1 POP PUSH2 0x24B4 PUSH1 0x0 DUP4 ADD DUP5 PUSH2 0x2490 JUMP JUMPDEST SWAP3 SWAP2 POP POP JUMP JUMPDEST PUSH1 0x0 DUP1 PUSH1 0x0 PUSH1 0x60 DUP5 DUP7 SUB SLT ISZERO PUSH2 0x24D3 JUMPI PUSH2 0x24D2 PUSH2 0x2388 JUMP JUMPDEST JUMPDEST PUSH1 0x0 PUSH2 0x24E1 DUP7 DUP3 DUP8 ADD PUSH2 0x242F JUMP JUMPDEST SWAP4 POP POP PUSH1 0x20 PUSH2 0x24F2 DUP7 DUP3 DUP8 ADD PUSH2 0x242F JUMP JUMPDEST SWAP3 POP POP PUSH1 0x40 PUSH2 0x2503 DUP7 DUP3 DUP8 ADD PUSH2 0x23A4 JUMP JUMPDEST SWAP2 POP POP SWAP3 POP SWAP3 POP SWAP3 JUMP JUMPDEST PUSH1 0x0 PUSH1 0xFF DUP3 AND SWAP1 POP SWAP2 SWAP1 POP JUMP JUMPDEST PUSH2 0x2523 DUP2 PUSH2 0x250D JUMP JUMPDEST DUP3 MSTORE POP POP JUMP JUMPDEST PUSH1 0x0 PUSH1 0x20 DUP3 ADD SWAP1 POP PUSH2 0x253E PUSH1 0x0 DUP4 ADD DUP5 PUSH2 0x251A JUMP JUMPDEST SWAP3 SWAP2 POP POP JUMP JUMPDEST PUSH1 0x0 DUP2 SWAP1 POP SWAP2 SWAP1 POP JUMP JUMPDEST PUSH2 0x2557 DUP2 PUSH2 0x2544 JUMP JUMPDEST DUP3 MSTORE POP POP JUMP JUMPDEST PUSH1 0x0 PUSH1 0x20 DUP3 ADD SWAP1 POP PUSH2 0x2572 PUSH1 0x0 DUP4 ADD DUP5 PUSH2 0x254E JUMP JUMPDEST SWAP3 SWAP2 POP POP JUMP JUMPDEST PUSH1 0x0 DUP2 SWAP1 POP SWAP2 SWAP1 POP JUMP JUMPDEST PUSH1 0x0 PUSH2 0x259D PUSH2 0x2598 PUSH2 0x2593 DUP5 PUSH2 0x23E6 JUMP JUMPDEST PUSH2 0x2578 JUMP JUMPDEST PUSH2 0x23E6 JUMP JUMPDEST SWAP1 POP SWAP2 SWAP1 POP JUMP JUMPDEST PUSH1 0x0 PUSH2 0x25AF DUP3 PUSH2 0x2582 JUMP JUMPDEST SWAP1 POP SWAP2 SWAP1 POP JUMP JUMPDEST PUSH1 0x0 PUSH2 0x25C1 DUP3 PUSH2 0x25A4 JUMP JUMPDEST SWAP1 POP SWAP2 SWAP1 POP JUMP JUMPDEST PUSH2 0x25D1 DUP2 PUSH2 0x25B6 JUMP JUMPDEST DUP3 MSTORE POP POP JUMP JUMPDEST PUSH1 0x0 PUSH1 0x20 DUP3 ADD SWAP1 POP PUSH2 0x25EC PUSH1 0x0 DUP4 ADD DUP5 PUSH2 0x25C8 JUMP JUMPDEST SWAP3 SWAP2 POP POP JUMP JUMPDEST PUSH1 0x0 PUSH1 0x20 DUP3 DUP5 SUB SLT ISZERO PUSH2 0x2608 JUMPI PUSH2 0x2607 PUSH2 0x2388 JUMP JUMPDEST JUMPDEST PUSH1 0x0 PUSH2 0x2616 DUP5 DUP3 DUP6 ADD PUSH2 0x242F JUMP JUMPDEST SWAP2 POP POP SWAP3 SWAP2 POP POP JUMP JUMPDEST PUSH2 0x2628 DUP2 PUSH2 0x2406 JUMP JUMPDEST DUP3 MSTORE POP POP JUMP JUMPDEST PUSH1 0x0 PUSH1 0x20 DUP3 ADD SWAP1 POP PUSH2 0x2643 PUSH1 0x0 DUP4 ADD DUP5 PUSH2 0x261F JUMP JUMPDEST SWAP3 SWAP2 POP POP JUMP JUMPDEST PUSH1 0x0 DUP1 PUSH1 0x40 DUP4 DUP6 SUB SLT ISZERO PUSH2 0x2660 JUMPI PUSH2 0x265F PUSH2 0x2388 JUMP JUMPDEST JUMPDEST PUSH1 0x0 PUSH2 0x266E DUP6 DUP3 DUP7 ADD PUSH2 0x23A4 JUMP JUMPDEST SWAP3 POP POP PUSH1 0x20 PUSH2 0x267F DUP6 DUP3 DUP7 ADD PUSH2 0x242F JUMP JUMPDEST SWAP2 POP POP SWAP3 POP SWAP3 SWAP1 POP JUMP JUMPDEST PUSH1 0x0 DUP1 PUSH1 0x0 PUSH1 0x60 DUP5 DUP7 SUB SLT ISZERO PUSH2 0x26A2 JUMPI PUSH2 0x26A1 PUSH2 0x2388 JUMP JUMPDEST JUMPDEST PUSH1 0x0 PUSH2 0x26B0 DUP7 DUP3 DUP8 ADD PUSH2 0x23A4 JUMP JUMPDEST SWAP4 POP POP PUSH1 0x20 PUSH2 0x26C1 DUP7 DUP3 DUP8 ADD PUSH2 0x242F JUMP JUMPDEST SWAP3 POP POP PUSH1 0x40 PUSH2 0x26D2 DUP7 DUP3 DUP8 ADD PUSH2 0x242F JUMP JUMPDEST SWAP2 POP POP SWAP3 POP SWAP3 POP SWAP3 JUMP JUMPDEST PUSH2 0x26E5 DUP2 PUSH2 0x250D JUMP JUMPDEST DUP2 EQ PUSH2 0x26F0 JUMPI PUSH1 0x0 DUP1 REVERT JUMPDEST POP JUMP JUMPDEST PUSH1 0x0 DUP2 CALLDATALOAD SWAP1 POP PUSH2 0x2702 DUP2 PUSH2 0x26DC JUMP JUMPDEST SWAP3 SWAP2 POP POP JUMP JUMPDEST PUSH2 0x2711 DUP2 PUSH2 0x2544 JUMP JUMPDEST DUP2 EQ PUSH2 0x271C JUMPI PUSH1 0x0 DUP1 REVERT JUMPDEST POP JUMP JUMPDEST PUSH1 0x0 DUP2 CALLDATALOAD SWAP1 POP PUSH2 0x272E DUP2 PUSH2 0x2708 JUMP JUMPDEST SWAP3 SWAP2 POP POP JUMP JUMPDEST PUSH1 0x0 DUP1 PUSH1 0x0 DUP1 PUSH1 0x0 DUP1 PUSH1 0x0 PUSH1 0xE0 DUP9 DUP11 SUB SLT ISZERO PUSH2 0x2753 JUMPI PUSH2 0x2752 PUSH2 0x2388 JUMP JUMPDEST JUMPDEST PUSH1 0x0 PUSH2 0x2761 DUP11 DUP3 DUP12 ADD PUSH2 0x242F JUMP JUMPDEST SWAP8 POP POP PUSH1 0x20 PUSH2 0x2772 DUP11 DUP3 DUP12 ADD PUSH2 0x242F JUMP JUMPDEST SWAP7 POP POP PUSH1 0x40 PUSH2 0x2783 DUP11 DUP3 DUP12 ADD PUSH2 0x23A4 JUMP JUMPDEST SWAP6 POP POP PUSH1 0x60 PUSH2 0x2794 DUP11 DUP3 DUP12 ADD PUSH2 0x23A4 JUMP JUMPDEST SWAP5 POP POP PUSH1 0x80 PUSH2 0x27A5 DUP11 DUP3 DUP12 ADD PUSH2 0x26F3 JUMP JUMPDEST SWAP4 POP POP PUSH1 0xA0 PUSH2 0x27B6 DUP11 DUP3 DUP12 ADD PUSH2 0x271F JUMP JUMPDEST SWAP3 POP POP PUSH1 0xC0 PUSH2 0x27C7 DUP11 DUP3 DUP12 ADD PUSH2 0x271F JUMP JUMPDEST SWAP2 POP POP SWAP3 SWAP6 SWAP9 SWAP2 SWAP5 SWAP8 POP SWAP3 SWAP6 POP JUMP JUMPDEST PUSH1 0x0 DUP1 PUSH1 0x40 DUP4 DUP6 SUB SLT ISZERO PUSH2 0x27ED JUMPI PUSH2 0x27EC PUSH2 0x2388 JUMP JUMPDEST JUMPDEST PUSH1 0x0 PUSH2 0x27FB DUP6 DUP3 DUP7 ADD PUSH2 0x242F JUMP JUMPDEST SWAP3 POP POP PUSH1 0x20 PUSH2 0x280C DUP6 DUP3 DUP7 ADD PUSH2 0x242F JUMP JUMPDEST SWAP2 POP POP SWAP3 POP SWAP3 SWAP1 POP JUMP JUMPDEST PUSH1 0x0 DUP2 MLOAD SWAP1 POP PUSH2 0x2825 DUP2 PUSH2 0x238D JUMP JUMPDEST SWAP3 SWAP2 POP POP JUMP JUMPDEST PUSH1 0x0 PUSH1 0x20 DUP3 DUP5 SUB SLT ISZERO PUSH2 0x2841 JUMPI PUSH2 0x2840 PUSH2 0x2388 JUMP JUMPDEST JUMPDEST PUSH1 0x0 PUSH2 0x284F DUP5 DUP3 DUP6 ADD PUSH2 0x2816 JUMP JUMPDEST SWAP2 POP POP SWAP3 SWAP2 POP POP JUMP JUMPDEST PUSH32 0x4E487B7100000000000000000000000000000000000000000000000000000000 PUSH1 0x0 MSTORE PUSH1 0x22 PUSH1 0x4 MSTORE PUSH1 0x24 PUSH1 0x0 REVERT JUMPDEST PUSH1 0x0 PUSH1 0x2 DUP3 DIV SWAP1 POP PUSH1 0x1 DUP3 AND DUP1 PUSH2 0x289F JUMPI PUSH1 0x7F DUP3 AND SWAP2 POP JUMPDEST PUSH1 0x20 DUP3 LT DUP2 EQ ISZERO PUSH2 0x28B3 JUMPI PUSH2 0x28B2 PUSH2 0x2858 JUMP JUMPDEST JUMPDEST POP SWAP2 SWAP1 POP JUMP JUMPDEST PUSH32 0x4E487B7100000000000000000000000000000000000000000000000000000000 PUSH1 0x0 MSTORE PUSH1 0x11 PUSH1 0x4 MSTORE PUSH1 0x24 PUSH1 0x0 REVERT JUMPDEST PUSH1 0x0 PUSH2 0x28F3 DUP3 PUSH2 0x2299 JUMP JUMPDEST SWAP2 POP PUSH2 0x28FE DUP4 PUSH2 0x2299 JUMP JUMPDEST SWAP3 POP DUP3 DUP3 LT ISZERO PUSH2 0x2911 JUMPI PUSH2 0x2910 PUSH2 0x28B9 JUMP JUMPDEST JUMPDEST DUP3 DUP3 SUB SWAP1 POP SWAP3 SWAP2 POP POP JUMP JUMPDEST PUSH32 0x5A45524F5F534841524553000000000000000000000000000000000000000000 PUSH1 0x0 DUP3 ADD MSTORE POP JUMP JUMPDEST PUSH1 0x0 PUSH2 0x2952 PUSH1 0xB DUP4 PUSH2 0x22D8 JUMP JUMPDEST SWAP2 POP PUSH2 0x295D DUP3 PUSH2 0x291C JUMP JUMPDEST PUSH1 0x20 DUP3 ADD SWAP1 POP SWAP2 SWAP1 POP JUMP JUMPDEST PUSH1 0x0 PUSH1 0x20 DUP3 ADD SWAP1 POP DUP2 DUP2 SUB PUSH1 0x0 DUP4 ADD MSTORE PUSH2 0x2981 DUP2 PUSH2 0x2945 JUMP JUMPDEST SWAP1 POP SWAP2 SWAP1 POP JUMP JUMPDEST PUSH1 0x0 PUSH1 0x40 DUP3 ADD SWAP1 POP PUSH2 0x299D PUSH1 0x0 DUP4 ADD DUP6 PUSH2 0x22A3 JUMP JUMPDEST PUSH2 0x29AA PUSH1 0x20 DUP4 ADD DUP5 PUSH2 0x22A3 JUMP JUMPDEST SWAP4 SWAP3 POP POP POP JUMP JUMPDEST PUSH32 0x4F776E61626C653A2063616C6C6572206973206E6F7420746865206D616E6167 PUSH1 0x0 DUP3 ADD MSTORE PUSH32 0x6572000000000000000000000000000000000000000000000000000000000000 PUSH1 0x20 DUP3 ADD MSTORE POP JUMP JUMPDEST PUSH1 0x0 PUSH2 0x2A0D PUSH1 0x22 DUP4 PUSH2 0x22D8 JUMP JUMPDEST SWAP2 POP PUSH2 0x2A18 DUP3 PUSH2 0x29B1 JUMP JUMPDEST PUSH1 0x40 DUP3 ADD SWAP1 POP SWAP2 SWAP1 POP JUMP JUMPDEST PUSH1 0x0 PUSH1 0x20 DUP3 ADD SWAP1 POP DUP2 DUP2 SUB PUSH1 0x0 DUP4 ADD MSTORE PUSH2 0x2A3C DUP2 PUSH2 0x2A00 JUMP JUMPDEST SWAP1 POP SWAP2 SWAP1 POP JUMP JUMPDEST PUSH32 0x4645455F544F4F5F484947480000000000000000000000000000000000000000 PUSH1 0x0 DUP3 ADD MSTORE POP JUMP JUMPDEST PUSH1 0x0 PUSH2 0x2A79 PUSH1 0xC DUP4 PUSH2 0x22D8 JUMP JUMPDEST SWAP2 POP PUSH2 0x2A84 DUP3 PUSH2 0x2A43 JUMP JUMPDEST PUSH1 0x20 DUP3 ADD SWAP1 POP SWAP2 SWAP1 POP JUMP JUMPDEST PUSH1 0x0 PUSH1 0x20 DUP3 ADD SWAP1 POP DUP2 DUP2 SUB PUSH1 0x0 DUP4 ADD MSTORE PUSH2 0x2AA8 DUP2 PUSH2 0x2A6C JUMP JUMPDEST SWAP1 POP SWAP2 SWAP1 POP JUMP JUMPDEST PUSH32 0x5A45524F5F415353455453000000000000000000000000000000000000000000 PUSH1 0x0 DUP3 ADD MSTORE POP JUMP JUMPDEST PUSH1 0x0 PUSH2 0x2AE5 PUSH1 0xB DUP4 PUSH2 0x22D8 JUMP JUMPDEST SWAP2 POP PUSH2 0x2AF0 DUP3 PUSH2 0x2AAF JUMP JUMPDEST PUSH1 0x20 DUP3 ADD SWAP1 POP SWAP2 SWAP1 POP JUMP JUMPDEST PUSH1 0x0 PUSH1 0x20 DUP3 ADD SWAP1 POP DUP2 DUP2 SUB PUSH1 0x0 DUP4 ADD MSTORE PUSH2 0x2B14 DUP2 PUSH2 0x2AD8 JUMP JUMPDEST SWAP1 POP SWAP2 SWAP1 POP JUMP JUMPDEST PUSH32 0x5045524D49545F444541444C494E455F45585049524544000000000000000000 PUSH1 0x0 DUP3 ADD MSTORE POP JUMP JUMPDEST PUSH1 0x0 PUSH2 0x2B51 PUSH1 0x17 DUP4 PUSH2 0x22D8 JUMP JUMPDEST SWAP2 POP PUSH2 0x2B5C DUP3 PUSH2 0x2B1B JUMP JUMPDEST PUSH1 0x20 DUP3 ADD SWAP1 POP SWAP2 SWAP1 POP JUMP JUMPDEST PUSH1 0x0 PUSH1 0x20 DUP3 ADD SWAP1 POP DUP2 DUP2 SUB PUSH1 0x0 DUP4 ADD MSTORE PUSH2 0x2B80 DUP2 PUSH2 0x2B44 JUMP JUMPDEST SWAP1 POP SWAP2 SWAP1 POP JUMP JUMPDEST PUSH1 0x0 PUSH1 0xC0 DUP3 ADD SWAP1 POP PUSH2 0x2B9C PUSH1 0x0 DUP4 ADD DUP10 PUSH2 0x254E JUMP JUMPDEST PUSH2 0x2BA9 PUSH1 0x20 DUP4 ADD DUP9 PUSH2 0x261F JUMP JUMPDEST PUSH2 0x2BB6 PUSH1 0x40 DUP4 ADD DUP8 PUSH2 0x261F JUMP JUMPDEST PUSH2 0x2BC3 PUSH1 0x60 DUP4 ADD DUP7 PUSH2 0x22A3 JUMP JUMPDEST PUSH2 0x2BD0 PUSH1 0x80 DUP4 ADD DUP6 PUSH2 0x22A3 JUMP JUMPDEST PUSH2 0x2BDD PUSH1 0xA0 DUP4 ADD DUP5 PUSH2 0x22A3 JUMP JUMPDEST SWAP8 SWAP7 POP POP POP POP POP POP POP JUMP JUMPDEST PUSH1 0x0 DUP2 SWAP1 POP SWAP3 SWAP2 POP POP JUMP JUMPDEST PUSH32 0x1901000000000000000000000000000000000000000000000000000000000000 PUSH1 0x0 DUP3 ADD MSTORE POP JUMP JUMPDEST PUSH1 0x0 PUSH2 0x2C29 PUSH1 0x2 DUP4 PUSH2 0x2BE8 JUMP JUMPDEST SWAP2 POP PUSH2 0x2C34 DUP3 PUSH2 0x2BF3 JUMP JUMPDEST PUSH1 0x2 DUP3 ADD SWAP1 POP SWAP2 SWAP1 POP JUMP JUMPDEST PUSH1 0x0 DUP2 SWAP1 POP SWAP2 SWAP1 POP JUMP JUMPDEST PUSH2 0x2C5A PUSH2 0x2C55 DUP3 PUSH2 0x2544 JUMP JUMPDEST PUSH2 0x2C3F JUMP JUMPDEST DUP3 MSTORE POP POP JUMP JUMPDEST PUSH1 0x0 PUSH2 0x2C6B DUP3 PUSH2 0x2C1C JUMP JUMPDEST SWAP2 POP PUSH2 0x2C77 DUP3 DUP6 PUSH2 0x2C49 JUMP JUMPDEST PUSH1 0x20 DUP3 ADD SWAP2 POP PUSH2 0x2C87 DUP3 DUP5 PUSH2 0x2C49 JUMP JUMPDEST PUSH1 0x20 DUP3 ADD SWAP2 POP DUP2 SWAP1 POP SWAP4 SWAP3 POP POP POP JUMP JUMPDEST PUSH1 0x0 PUSH1 0x80 DUP3 ADD SWAP1 POP PUSH2 0x2CAC PUSH1 0x0 DUP4 ADD DUP8 PUSH2 0x254E JUMP JUMPDEST PUSH2 0x2CB9 PUSH1 0x20 DUP4 ADD DUP7 PUSH2 0x251A JUMP JUMPDEST PUSH2 0x2CC6 PUSH1 0x40 DUP4 ADD DUP6 PUSH2 0x254E JUMP JUMPDEST PUSH2 0x2CD3 PUSH1 0x60 DUP4 ADD DUP5 PUSH2 0x254E JUMP JUMPDEST SWAP6 SWAP5 POP POP POP POP POP JUMP JUMPDEST PUSH32 0x494E56414C49445F5349474E4552000000000000000000000000000000000000 PUSH1 0x0 DUP3 ADD MSTORE POP JUMP JUMPDEST PUSH1 0x0 PUSH2 0x2D12 PUSH1 0xE DUP4 PUSH2 0x22D8 JUMP JUMPDEST SWAP2 POP PUSH2 0x2D1D DUP3 PUSH2 0x2CDC JUMP JUMPDEST PUSH1 0x20 DUP3 ADD SWAP1 POP SWAP2 SWAP1 POP JUMP JUMPDEST PUSH1 0x0 PUSH1 0x20 DUP3 ADD SWAP1 POP DUP2 DUP2 SUB PUSH1 0x0 DUP4 ADD MSTORE PUSH2 0x2D41 DUP2 PUSH2 0x2D05 JUMP JUMPDEST SWAP1 POP SWAP2 SWAP1 POP JUMP JUMPDEST PUSH32 0x4F776E61626C653A206E6577206D616E6167657220697320746865207A65726F PUSH1 0x0 DUP3 ADD MSTORE PUSH32 0x2061646472657373000000000000000000000000000000000000000000000000 PUSH1 0x20 DUP3 ADD MSTORE POP JUMP JUMPDEST PUSH1 0x0 PUSH2 0x2DA4 PUSH1 0x28 DUP4 PUSH2 0x22D8 JUMP JUMPDEST SWAP2 POP PUSH2 0x2DAF DUP3 PUSH2 0x2D48 JUMP JUMPDEST PUSH1 0x40 DUP3 ADD SWAP1 POP SWAP2 SWAP1 POP JUMP JUMPDEST PUSH1 0x0 PUSH1 0x20 DUP3 ADD SWAP1 POP DUP2 DUP2 SUB PUSH1 0x0 DUP4 ADD MSTORE PUSH2 0x2DD3 DUP2 PUSH2 0x2D97 JUMP JUMPDEST SWAP1 POP SWAP2 SWAP1 POP JUMP JUMPDEST PUSH1 0x0 DUP2 SWAP1 POP SWAP3 SWAP2 POP POP JUMP JUMPDEST PUSH1 0x0 DUP2 SWAP1 POP DUP2 PUSH1 0x0 MSTORE PUSH1 0x20 PUSH1 0x0 KECCAK256 SWAP1 POP SWAP2 SWAP1 POP JUMP JUMPDEST PUSH1 0x0 DUP2 SLOAD PUSH2 0x2E07 DUP2 PUSH2 0x2887 JUMP JUMPDEST PUSH2 0x2E11 DUP2 DUP7 PUSH2 0x2DDA JUMP JUMPDEST SWAP5 POP PUSH1 0x1 DUP3 AND PUSH1 0x0 DUP2 EQ PUSH2 0x2E2C JUMPI PUSH1 0x1 DUP2 EQ PUSH2 0x2E3D JUMPI PUSH2 0x2E70 JUMP JUMPDEST PUSH1 0xFF NOT DUP4 AND DUP7 MSTORE DUP2 DUP7 ADD SWAP4 POP PUSH2 0x2E70 JUMP JUMPDEST PUSH2 0x2E46 DUP6 PUSH2 0x2DE5 JUMP JUMPDEST PUSH1 0x0 JUMPDEST DUP4 DUP2 LT ISZERO PUSH2 0x2E68 JUMPI DUP2 SLOAD DUP2 DUP10 ADD MSTORE PUSH1 0x1 DUP3 ADD SWAP2 POP PUSH1 0x20 DUP2 ADD SWAP1 POP PUSH2 0x2E49 JUMP JUMPDEST DUP4 DUP9 ADD SWAP6 POP POP POP JUMPDEST POP POP POP SWAP3 SWAP2 POP POP JUMP JUMPDEST PUSH1 0x0 PUSH2 0x2E85 DUP3 DUP5 PUSH2 0x2DFA JUMP JUMPDEST SWAP2 POP DUP2 SWAP1 POP SWAP3 SWAP2 POP POP JUMP JUMPDEST PUSH1 0x0 PUSH1 0xA0 DUP3 ADD SWAP1 POP PUSH2 0x2EA5 PUSH1 0x0 DUP4 ADD DUP9 PUSH2 0x254E JUMP JUMPDEST PUSH2 0x2EB2 PUSH1 0x20 DUP4 ADD DUP8 PUSH2 0x254E JUMP JUMPDEST PUSH2 0x2EBF PUSH1 0x40 DUP4 ADD DUP7 PUSH2 0x254E JUMP JUMPDEST PUSH2 0x2ECC PUSH1 0x60 DUP4 ADD DUP6 PUSH2 0x22A3 JUMP JUMPDEST PUSH2 0x2ED9 PUSH1 0x80 DUP4 ADD DUP5 PUSH2 0x261F JUMP JUMPDEST SWAP7 SWAP6 POP POP POP POP POP POP JUMP JUMPDEST PUSH32 0x5452414E534645525F46524F4D5F4641494C4544000000000000000000000000 PUSH1 0x0 DUP3 ADD MSTORE POP JUMP JUMPDEST PUSH1 0x0 PUSH2 0x2F19 PUSH1 0x14 DUP4 PUSH2 0x22D8 JUMP JUMPDEST SWAP2 POP PUSH2 0x2F24 DUP3 PUSH2 0x2EE3 JUMP JUMPDEST PUSH1 0x20 DUP3 ADD SWAP1 POP SWAP2 SWAP1 POP JUMP JUMPDEST PUSH1 0x0 PUSH1 0x20 DUP3 ADD SWAP1 POP DUP2 DUP2 SUB PUSH1 0x0 DUP4 ADD MSTORE PUSH2 0x2F48 DUP2 PUSH2 0x2F0C JUMP JUMPDEST SWAP1 POP SWAP2 SWAP1 POP JUMP JUMPDEST PUSH1 0x0 PUSH2 0x2F5A DUP3 PUSH2 0x2299 JUMP JUMPDEST SWAP2 POP PUSH2 0x2F65 DUP4 PUSH2 0x2299 JUMP JUMPDEST SWAP3 POP DUP3 PUSH32 0xFFFFFFFFFFFFFFFFFFFFFFFFFFFFFFFFFFFFFFFFFFFFFFFFFFFFFFFFFFFFFFFF SUB DUP3 GT ISZERO PUSH2 0x2F9A JUMPI PUSH2 0x2F99 PUSH2 0x28B9 JUMP JUMPDEST JUMPDEST DUP3 DUP3 ADD SWAP1 POP SWAP3 SWAP2 POP POP JUMP JUMPDEST PUSH1 0x0 PUSH2 0x2FB0 DUP3 PUSH2 0x2299 JUMP JUMPDEST SWAP2 POP PUSH32 0xFFFFFFFFFFFFFFFFFFFFFFFFFFFFFFFFFFFFFFFFFFFFFFFFFFFFFFFFFFFFFFFF DUP3 EQ ISZERO PUSH2 0x2FE3 JUMPI PUSH2 0x2FE2 PUSH2 0x28B9 JUMP JUMPDEST JUMPDEST PUSH1 0x1 DUP3 ADD SWAP1 POP SWAP2 SWAP1 POP JUMP JUMPDEST PUSH32 0x5452414E534645525F4641494C45440000000000000000000000000000000000 PUSH1 0x0 DUP3 ADD MSTORE POP JUMP JUMPDEST PUSH1 0x0 PUSH2 0x3024 PUSH1 0xF DUP4 PUSH2 0x22D8 JUMP JUMPDEST SWAP2 POP PUSH2 0x302F DUP3 PUSH2 0x2FEE JUMP JUMPDEST PUSH1 0x20 DUP3 ADD SWAP1 POP SWAP2 SWAP1 POP JUMP JUMPDEST PUSH1 0x0 PUSH1 0x20 DUP3 ADD SWAP1 POP DUP2 DUP2 SUB PUSH1 0x0 DUP4 ADD MSTORE PUSH2 0x3053 DUP2 PUSH2 0x3017 JUMP JUMPDEST SWAP1 POP SWAP2 SWAP1 POP JUMP INVALID LOG2 PUSH5 0x6970667358 0x22 SLT KECCAK256 DUP2 0xD2 DIFFICULTY 0xFB KECCAK256 DIFFICULTY SWAP4 ORIGIN SWAP13 ORIGIN 0xE5 0x2E 0xD0 0xEB 0xE 0x2E 0xE6 0x1E 0xBB 0xE2 0xDD BLOCKHASH CALLVALUE 0xAB 0xB6 0xEA SWAP14 CALLCODE 0x1E SDIV SWAP10 DUP5 PUSH5 0x736F6C6343 STOP ADDMOD EXP STOP CALLER "
				},
				"gasEstimates": {
					"creation": {
						"codeDepositCost": "2486400",
						"executionCost": "infinite",
						"totalCost": "infinite"
					},
					"external": {
						"DOMAIN_SEPARATOR()": "infinite",
						"afterDepositHookCalledCounter()": "2561",
						"allowance(address,address)": "infinite",
						"approve(address,uint256)": "infinite",
						"asset()": "infinite",
						"balanceOf(address)": "2903",
						"beforeWithdrawHookCalledCounter()": "2562",
						"convertToAssets(uint256)": "infinite",
						"convertToShares(uint256)": "infinite",
						"decimals()": "infinite",
						"deposit(uint256,address)": "infinite",
						"feePercent()": "2497",
						"manager()": "2634",
						"maxDeposit(address)": "741",
						"maxMint(address)": "696",
						"maxRedeem(address)": "2885",
						"maxWithdraw(address)": "infinite",
						"mint(uint256,address)": "infinite",
						"name()": "infinite",
						"nonces(address)": "2860",
						"permit(address,address,uint256,uint256,uint8,bytes32,bytes32)": "infinite",
						"previewDeposit(uint256)": "infinite",
						"previewMint(uint256)": "infinite",
						"previewRedeem(uint256)": "infinite",
						"previewWithdraw(uint256)": "infinite",
						"redeem(uint256,address,address)": "infinite",
						"renounceOwnership()": "30408",
						"setFeePercent(uint256)": "infinite",
						"symbol()": "infinite",
						"totalAssets()": "infinite",
						"totalSupply()": "2497",
						"transfer(address,uint256)": "infinite",
						"transferFrom(address,address,uint256)": "infinite",
						"transferOwnership(address)": "30756",
						"withdraw(uint256,address,address)": "infinite"
					},
					"internal": {
						"afterDeposit(uint256,uint256)": "24373",
						"beforeWithdraw(uint256,uint256)": "24373",
						"strategyACall(address,uint256,uint160)": "infinite"
					}
				},
				"methodIdentifiers": {
					"DOMAIN_SEPARATOR()": "3644e515",
					"afterDepositHookCalledCounter()": "fc407ae7",
					"allowance(address,address)": "dd62ed3e",
					"approve(address,uint256)": "095ea7b3",
					"asset()": "38d52e0f",
					"balanceOf(address)": "70a08231",
					"beforeWithdrawHookCalledCounter()": "bc368a8a",
					"convertToAssets(uint256)": "07a2d13a",
					"convertToShares(uint256)": "c6e6f592",
					"decimals()": "313ce567",
					"deposit(uint256,address)": "6e553f65",
					"feePercent()": "7fd6f15c",
					"manager()": "481c6a75",
					"maxDeposit(address)": "402d267d",
					"maxMint(address)": "c63d75b6",
					"maxRedeem(address)": "d905777e",
					"maxWithdraw(address)": "ce96cb77",
					"mint(uint256,address)": "94bf804d",
					"name()": "06fdde03",
					"nonces(address)": "7ecebe00",
					"permit(address,address,uint256,uint256,uint8,bytes32,bytes32)": "d505accf",
					"previewDeposit(uint256)": "ef8b30f7",
					"previewMint(uint256)": "b3d7f6b9",
					"previewRedeem(uint256)": "4cdad506",
					"previewWithdraw(uint256)": "0a28a477",
					"redeem(uint256,address,address)": "ba087652",
					"renounceOwnership()": "715018a6",
					"setFeePercent(uint256)": "7ce3489b",
					"symbol()": "95d89b41",
					"totalAssets()": "01e1d114",
					"totalSupply()": "18160ddd",
					"transfer(address,uint256)": "a9059cbb",
					"transferFrom(address,address,uint256)": "23b872dd",
					"transferOwnership(address)": "f2fde38b",
					"withdraw(uint256,address,address)": "b460af94"
				}
			},
			"storageLayout": {
				"storage": [
					{
						"astId": 20,
						"contract": "SquiddyCore.sol:SquiddyCore",
						"label": "name",
						"offset": 0,
						"slot": "0",
						"type": "t_string_storage"
					},
					{
						"astId": 22,
						"contract": "SquiddyCore.sol:SquiddyCore",
						"label": "symbol",
						"offset": 0,
						"slot": "1",
						"type": "t_string_storage"
					},
					{
						"astId": 26,
						"contract": "SquiddyCore.sol:SquiddyCore",
						"label": "totalSupply",
						"offset": 0,
						"slot": "2",
						"type": "t_uint256"
					},
					{
						"astId": 30,
						"contract": "SquiddyCore.sol:SquiddyCore",
						"label": "balanceOf",
						"offset": 0,
						"slot": "3",
						"type": "t_mapping(t_address,t_uint256)"
					},
					{
						"astId": 36,
						"contract": "SquiddyCore.sol:SquiddyCore",
						"label": "allowance",
						"offset": 0,
						"slot": "4",
						"type": "t_mapping(t_address,t_mapping(t_address,t_uint256))"
					},
					{
						"astId": 44,
						"contract": "SquiddyCore.sol:SquiddyCore",
						"label": "nonces",
						"offset": 0,
						"slot": "5",
						"type": "t_mapping(t_address,t_uint256)"
					},
					{
						"astId": 1122,
						"contract": "SquiddyCore.sol:SquiddyCore",
						"label": "_manager",
						"offset": 0,
						"slot": "6",
						"type": "t_address"
					},
					{
						"astId": 1125,
						"contract": "SquiddyCore.sol:SquiddyCore",
						"label": "beforeWithdrawHookCalledCounter",
						"offset": 0,
						"slot": "7",
						"type": "t_uint256"
					},
					{
						"astId": 1128,
						"contract": "SquiddyCore.sol:SquiddyCore",
						"label": "afterDepositHookCalledCounter",
						"offset": 0,
						"slot": "8",
						"type": "t_uint256"
					},
					{
						"astId": 1327,
						"contract": "SquiddyCore.sol:SquiddyCore",
						"label": "feePercent",
						"offset": 0,
						"slot": "9",
						"type": "t_uint256"
					}
				],
				"types": {
					"t_address": {
						"encoding": "inplace",
						"label": "address",
						"numberOfBytes": "20"
					},
					"t_mapping(t_address,t_mapping(t_address,t_uint256))": {
						"encoding": "mapping",
						"key": "t_address",
						"label": "mapping(address => mapping(address => uint256))",
						"numberOfBytes": "32",
						"value": "t_mapping(t_address,t_uint256)"
					},
					"t_mapping(t_address,t_uint256)": {
						"encoding": "mapping",
						"key": "t_address",
						"label": "mapping(address => uint256)",
						"numberOfBytes": "32",
						"value": "t_uint256"
					},
					"t_string_storage": {
						"encoding": "bytes",
						"label": "string",
						"numberOfBytes": "32"
					},
					"t_uint256": {
						"encoding": "inplace",
						"label": "uint256",
						"numberOfBytes": "32"
					}
				}
			},
			"userdoc": {
				"events": {
					"FeePercentUpdated(address,uint256)": {
						"notice": "Emitted when the fee percentage is updated."
					}
				},
				"kind": "user",
				"methods": {
					"feePercent()": {
						"notice": "The percentage of profit recognized each harvest to reserve as fees."
					},
					"setFeePercent(uint256)": {
						"notice": "Sets a new fee percentage."
					}
				},
				"version": 1
			}
		}
	}
}