{
	"SquiddyCore.sol": {
		"SquiddyCore": {
			"abi": [
				{
					"inputs": [
						{
							"internalType": "contract ERC20",
							"name": "_underlying",
							"type": "address"
						},
						{
							"internalType": "string",
							"name": "_name",
							"type": "string"
						},
						{
							"internalType": "string",
							"name": "_symbol",
							"type": "string"
						},
						{
							"internalType": "uint8",
							"name": "_decimals",
							"type": "uint8"
						}
					],
					"stateMutability": "nonpayable",
					"type": "constructor"
				},
				{
					"anonymous": false,
					"inputs": [
						{
							"indexed": true,
							"internalType": "address",
							"name": "owner",
							"type": "address"
						},
						{
							"indexed": true,
							"internalType": "address",
							"name": "spender",
							"type": "address"
						},
						{
							"indexed": false,
							"internalType": "uint256",
							"name": "amount",
							"type": "uint256"
						}
					],
					"name": "Approval",
					"type": "event"
				},
				{
					"anonymous": false,
					"inputs": [
						{
							"indexed": true,
							"internalType": "address",
							"name": "caller",
							"type": "address"
						},
						{
							"indexed": true,
							"internalType": "address",
							"name": "owner",
							"type": "address"
						},
						{
							"indexed": false,
							"internalType": "uint256",
							"name": "assets",
							"type": "uint256"
						},
						{
							"indexed": false,
							"internalType": "uint256",
							"name": "shares",
							"type": "uint256"
						}
					],
					"name": "Deposit",
					"type": "event"
				},
				{
					"anonymous": false,
					"inputs": [
						{
							"indexed": true,
							"internalType": "address",
							"name": "vault",
							"type": "address"
						},
						{
							"indexed": false,
							"internalType": "uint256",
							"name": "profitOverLoss",
							"type": "uint256"
						}
					],
					"name": "HarvestStrategyA",
					"type": "event"
				},
				{
					"anonymous": false,
					"inputs": [
						{
							"indexed": true,
							"internalType": "address",
							"name": "vault",
							"type": "address"
						},
						{
							"indexed": false,
							"internalType": "uint256",
							"name": "pr",
							"type": "uint256"
						}
					],
					"name": "HarvestStrategyB",
					"type": "event"
				},
				{
					"anonymous": false,
					"inputs": [
						{
							"indexed": true,
							"internalType": "address",
							"name": "searcher",
							"type": "address"
						},
						{
							"indexed": true,
							"internalType": "address",
							"name": "vault",
							"type": "address"
						},
						{
							"indexed": false,
							"internalType": "uint256",
							"name": "value",
							"type": "uint256"
						},
						{
							"indexed": false,
							"internalType": "uint256",
							"name": "duration",
							"type": "uint256"
						}
					],
					"name": "StrategyAInitilized",
					"type": "event"
				},
				{
					"anonymous": false,
					"inputs": [
						{
							"indexed": true,
							"internalType": "address",
							"name": "stakePoolContract",
							"type": "address"
						},
						{
							"indexed": true,
							"internalType": "address",
							"name": "vault",
							"type": "address"
						},
						{
							"indexed": false,
							"internalType": "uint256",
							"name": "value",
							"type": "uint256"
						},
						{
							"indexed": false,
							"internalType": "uint256",
							"name": "duration",
							"type": "uint256"
						}
					],
					"name": "StrategyBInitilized",
					"type": "event"
				},
				{
					"anonymous": false,
					"inputs": [
						{
							"indexed": true,
							"internalType": "address",
							"name": "from",
							"type": "address"
						},
						{
							"indexed": true,
							"internalType": "address",
							"name": "to",
							"type": "address"
						},
						{
							"indexed": false,
							"internalType": "uint256",
							"name": "amount",
							"type": "uint256"
						}
					],
					"name": "Transfer",
					"type": "event"
				},
				{
					"anonymous": false,
					"inputs": [
						{
							"indexed": true,
							"internalType": "address",
							"name": "caller",
							"type": "address"
						},
						{
							"indexed": true,
							"internalType": "address",
							"name": "receiver",
							"type": "address"
						},
						{
							"indexed": true,
							"internalType": "address",
							"name": "owner",
							"type": "address"
						},
						{
							"indexed": false,
							"internalType": "uint256",
							"name": "assets",
							"type": "uint256"
						},
						{
							"indexed": false,
							"internalType": "uint256",
							"name": "shares",
							"type": "uint256"
						}
					],
					"name": "Withdraw",
					"type": "event"
				},
				{
					"inputs": [],
					"name": "DOMAIN_SEPARATOR",
					"outputs": [
						{
							"internalType": "bytes32",
							"name": "",
							"type": "bytes32"
						}
					],
					"stateMutability": "view",
					"type": "function"
				},
				{
					"inputs": [],
					"name": "UNDERLYING",
					"outputs": [
						{
							"internalType": "contract ERC20",
							"name": "",
							"type": "address"
						}
					],
					"stateMutability": "view",
					"type": "function"
				},
				{
					"inputs": [],
					"name": "afterDepositHookCalledCounter",
					"outputs": [
						{
							"internalType": "uint256",
							"name": "",
							"type": "uint256"
						}
					],
					"stateMutability": "view",
					"type": "function"
				},
				{
					"inputs": [
						{
							"internalType": "address",
							"name": "",
							"type": "address"
						},
						{
							"internalType": "address",
							"name": "",
							"type": "address"
						}
					],
					"name": "allowance",
					"outputs": [
						{
							"internalType": "uint256",
							"name": "",
							"type": "uint256"
						}
					],
					"stateMutability": "view",
					"type": "function"
				},
				{
					"inputs": [
						{
							"internalType": "address",
							"name": "spender",
							"type": "address"
						},
						{
							"internalType": "uint256",
							"name": "amount",
							"type": "uint256"
						}
					],
					"name": "approve",
					"outputs": [
						{
							"internalType": "bool",
							"name": "",
							"type": "bool"
						}
					],
					"stateMutability": "nonpayable",
					"type": "function"
				},
				{
					"inputs": [],
					"name": "asset",
					"outputs": [
						{
							"internalType": "contract ERC20",
							"name": "",
							"type": "address"
						}
					],
					"stateMutability": "view",
					"type": "function"
				},
				{
					"inputs": [
						{
							"internalType": "address",
							"name": "",
							"type": "address"
						}
					],
					"name": "balanceOf",
					"outputs": [
						{
							"internalType": "uint256",
							"name": "",
							"type": "uint256"
						}
					],
					"stateMutability": "view",
					"type": "function"
				},
				{
					"inputs": [],
					"name": "beforeWithdrawHookCalledCounter",
					"outputs": [
						{
							"internalType": "uint256",
							"name": "",
							"type": "uint256"
						}
					],
					"stateMutability": "view",
					"type": "function"
				},
				{
					"inputs": [
						{
							"internalType": "uint256",
							"name": "shares",
							"type": "uint256"
						}
					],
					"name": "convertToAssets",
					"outputs": [
						{
							"internalType": "uint256",
							"name": "",
							"type": "uint256"
						}
					],
					"stateMutability": "view",
					"type": "function"
				},
				{
					"inputs": [
						{
							"internalType": "uint256",
							"name": "assets",
							"type": "uint256"
						}
					],
					"name": "convertToShares",
					"outputs": [
						{
							"internalType": "uint256",
							"name": "",
							"type": "uint256"
						}
					],
					"stateMutability": "view",
					"type": "function"
				},
				{
					"inputs": [],
					"name": "decimals",
					"outputs": [
						{
							"internalType": "uint8",
							"name": "",
							"type": "uint8"
						}
					],
					"stateMutability": "view",
					"type": "function"
				},
				{
					"inputs": [
						{
							"internalType": "uint256",
							"name": "assets",
							"type": "uint256"
						},
						{
							"internalType": "address",
							"name": "receiver",
							"type": "address"
						}
					],
					"name": "deposit",
					"outputs": [
						{
							"internalType": "uint256",
							"name": "shares",
							"type": "uint256"
						}
					],
					"stateMutability": "nonpayable",
					"type": "function"
				},
				{
					"inputs": [
						{
							"internalType": "address",
							"name": "",
							"type": "address"
						}
					],
					"name": "maxDeposit",
					"outputs": [
						{
							"internalType": "uint256",
							"name": "",
							"type": "uint256"
						}
					],
					"stateMutability": "view",
					"type": "function"
				},
				{
					"inputs": [
						{
							"internalType": "address",
							"name": "",
							"type": "address"
						}
					],
					"name": "maxMint",
					"outputs": [
						{
							"internalType": "uint256",
							"name": "",
							"type": "uint256"
						}
					],
					"stateMutability": "view",
					"type": "function"
				},
				{
					"inputs": [
						{
							"internalType": "address",
							"name": "owner",
							"type": "address"
						}
					],
					"name": "maxRedeem",
					"outputs": [
						{
							"internalType": "uint256",
							"name": "",
							"type": "uint256"
						}
					],
					"stateMutability": "view",
					"type": "function"
				},
				{
					"inputs": [
						{
							"internalType": "address",
							"name": "owner",
							"type": "address"
						}
					],
					"name": "maxWithdraw",
					"outputs": [
						{
							"internalType": "uint256",
							"name": "",
							"type": "uint256"
						}
					],
					"stateMutability": "view",
					"type": "function"
				},
				{
					"inputs": [
						{
							"internalType": "uint256",
							"name": "shares",
							"type": "uint256"
						},
						{
							"internalType": "address",
							"name": "receiver",
							"type": "address"
						}
					],
					"name": "mint",
					"outputs": [
						{
							"internalType": "uint256",
							"name": "assets",
							"type": "uint256"
						}
					],
					"stateMutability": "nonpayable",
					"type": "function"
				},
				{
					"inputs": [],
					"name": "name",
					"outputs": [
						{
							"internalType": "string",
							"name": "",
							"type": "string"
						}
					],
					"stateMutability": "view",
					"type": "function"
				},
				{
					"inputs": [
						{
							"internalType": "address",
							"name": "",
							"type": "address"
						}
					],
					"name": "nonces",
					"outputs": [
						{
							"internalType": "uint256",
							"name": "",
							"type": "uint256"
						}
					],
					"stateMutability": "view",
					"type": "function"
				},
				{
					"inputs": [
						{
							"internalType": "address",
							"name": "owner",
							"type": "address"
						},
						{
							"internalType": "address",
							"name": "spender",
							"type": "address"
						},
						{
							"internalType": "uint256",
							"name": "value",
							"type": "uint256"
						},
						{
							"internalType": "uint256",
							"name": "deadline",
							"type": "uint256"
						},
						{
							"internalType": "uint8",
							"name": "v",
							"type": "uint8"
						},
						{
							"internalType": "bytes32",
							"name": "r",
							"type": "bytes32"
						},
						{
							"internalType": "bytes32",
							"name": "s",
							"type": "bytes32"
						}
					],
					"name": "permit",
					"outputs": [],
					"stateMutability": "nonpayable",
					"type": "function"
				},
				{
					"inputs": [
						{
							"internalType": "uint256",
							"name": "assets",
							"type": "uint256"
						}
					],
					"name": "previewDeposit",
					"outputs": [
						{
							"internalType": "uint256",
							"name": "",
							"type": "uint256"
						}
					],
					"stateMutability": "view",
					"type": "function"
				},
				{
					"inputs": [
						{
							"internalType": "uint256",
							"name": "shares",
							"type": "uint256"
						}
					],
					"name": "previewMint",
					"outputs": [
						{
							"internalType": "uint256",
							"name": "",
							"type": "uint256"
						}
					],
					"stateMutability": "view",
					"type": "function"
				},
				{
					"inputs": [
						{
							"internalType": "uint256",
							"name": "shares",
							"type": "uint256"
						}
					],
					"name": "previewRedeem",
					"outputs": [
						{
							"internalType": "uint256",
							"name": "",
							"type": "uint256"
						}
					],
					"stateMutability": "view",
					"type": "function"
				},
				{
					"inputs": [
						{
							"internalType": "uint256",
							"name": "assets",
							"type": "uint256"
						}
					],
					"name": "previewWithdraw",
					"outputs": [
						{
							"internalType": "uint256",
							"name": "",
							"type": "uint256"
						}
					],
					"stateMutability": "view",
					"type": "function"
				},
				{
					"inputs": [
						{
							"internalType": "uint256",
							"name": "shares",
							"type": "uint256"
						},
						{
							"internalType": "address",
							"name": "receiver",
							"type": "address"
						},
						{
							"internalType": "address",
							"name": "owner",
							"type": "address"
						}
					],
					"name": "redeem",
					"outputs": [
						{
							"internalType": "uint256",
							"name": "assets",
							"type": "uint256"
						}
					],
					"stateMutability": "nonpayable",
					"type": "function"
				},
				{
					"inputs": [],
					"name": "symbol",
					"outputs": [
						{
							"internalType": "string",
							"name": "",
							"type": "string"
						}
					],
					"stateMutability": "view",
					"type": "function"
				},
				{
					"inputs": [],
					"name": "totalAssets",
					"outputs": [
						{
							"internalType": "uint256",
							"name": "",
							"type": "uint256"
						}
					],
					"stateMutability": "view",
					"type": "function"
				},
				{
					"inputs": [],
					"name": "totalSupply",
					"outputs": [
						{
							"internalType": "uint256",
							"name": "",
							"type": "uint256"
						}
					],
					"stateMutability": "view",
					"type": "function"
				},
				{
					"inputs": [
						{
							"internalType": "address",
							"name": "to",
							"type": "address"
						},
						{
							"internalType": "uint256",
							"name": "amount",
							"type": "uint256"
						}
					],
					"name": "transfer",
					"outputs": [
						{
							"internalType": "bool",
							"name": "",
							"type": "bool"
						}
					],
					"stateMutability": "nonpayable",
					"type": "function"
				},
				{
					"inputs": [
						{
							"internalType": "address",
							"name": "from",
							"type": "address"
						},
						{
							"internalType": "address",
							"name": "to",
							"type": "address"
						},
						{
							"internalType": "uint256",
							"name": "amount",
							"type": "uint256"
						}
					],
					"name": "transferFrom",
					"outputs": [
						{
							"internalType": "bool",
							"name": "",
							"type": "bool"
						}
					],
					"stateMutability": "nonpayable",
					"type": "function"
				},
				{
					"inputs": [
						{
							"internalType": "uint256",
							"name": "assets",
							"type": "uint256"
						},
						{
							"internalType": "address",
							"name": "receiver",
							"type": "address"
						},
						{
							"internalType": "address",
							"name": "owner",
							"type": "address"
						}
					],
					"name": "withdraw",
					"outputs": [
						{
							"internalType": "uint256",
							"name": "shares",
							"type": "uint256"
						}
					],
					"stateMutability": "nonpayable",
					"type": "function"
				}
			],
			"devdoc": {
				"kind": "dev",
				"methods": {},
				"version": 1
			},
			"evm": {
				"assembly": "    /* \"SquiddyCore.sol\":143:2340  contract SquiddyCore is ERC4626 {... */\n  mstore(0x40, 0x0140)\n    /* \"SquiddyCore.sol\":230:231  0 */\n  0x00\n    /* \"SquiddyCore.sol\":181:231  uint256 public beforeWithdrawHookCalledCounter = 0 */\n  0x06\n  sstore\n    /* \"SquiddyCore.sol\":284:285  0 */\n  0x00\n    /* \"SquiddyCore.sol\":237:285  uint256 public afterDepositHookCalledCounter = 0 */\n  0x07\n  sstore\n    /* \"SquiddyCore.sol\":1311:1696  constructor(... */\n  callvalue\n  dup1\n  iszero\n  tag_1\n  jumpi\n  0x00\n  dup1\n  revert\ntag_1:\n  pop\n  mload(0x40)\n  sub(codesize, bytecodeSize)\n  dup1\n  bytecodeSize\n  dup4\n  codecopy\n  dup2\n  dup2\n  add\n  0x40\n  mstore\n  dup2\n  add\n  swap1\n  tag_2\n  swap2\n  swap1\n  tag_3\n  jump\t// in\ntag_2:\n    /* \"SquiddyCore.sol\":1449:1460  _underlying */\n  dup4\n    /* \"SquiddyCore.sol\":1462:1467  _name */\n  dup4\n    /* \"SquiddyCore.sol\":1469:1476  _symbol */\n  dup4\n    /* \"SquiddyCore.sol\":1478:1487  _decimals */\n  dup4\n    /* \"ERC4626.sol\":1331:1336  _name */\n  dup3\n    /* \"ERC4626.sol\":1338:1345  _symbol */\n  dup3\n    /* \"ERC4626.sol\":1347:1356  _decimals */\n  dup3\n    /* \"ERC20.sol\":2131:2136  _name */\n  dup3\n    /* \"ERC20.sol\":2124:2128  name */\n  0x00\n    /* \"ERC20.sol\":2124:2136  name = _name */\n  swap1\n  dup1\n  mload\n  swap1\n  0x20\n  add\n  swap1\n  tag_8\n  swap3\n  swap2\n  swap1\n  tag_9\n  jump\t// in\ntag_8:\n  pop\n    /* \"ERC20.sol\":2155:2162  _symbol */\n  dup2\n    /* \"ERC20.sol\":2146:2152  symbol */\n  0x01\n    /* \"ERC20.sol\":2146:2162  symbol = _symbol */\n  swap1\n  dup1\n  mload\n  swap1\n  0x20\n  add\n  swap1\n  tag_10\n  swap3\n  swap2\n  swap1\n  tag_9\n  jump\t// in\ntag_10:\n  pop\n    /* \"ERC20.sol\":2183:2192  _decimals */\n  dup1\n    /* \"ERC20.sol\":2172:2192  decimals = _decimals */\n  0xff\n  and\n  0x80\n  dup2\n  0xff\n  and\n  dup2\n  mstore\n  pop\n  pop\n    /* \"ERC20.sol\":2222:2235  block.chainid */\n  chainid\n    /* \"ERC20.sol\":2203:2235  INITIAL_CHAIN_ID = block.chainid */\n  0xa0\n  dup2\n  dup2\n  mstore\n  pop\n  pop\n    /* \"ERC20.sol\":2272:2296  computeDomainSeparator() */\n  tag_11\n    /* \"ERC20.sol\":2272:2294  computeDomainSeparator */\n  shl(0x20, tag_12)\n    /* \"ERC20.sol\":2272:2296  computeDomainSeparator() */\n  0x20\n  shr\n  jump\t// in\ntag_11:\n    /* \"ERC20.sol\":2245:2296  INITIAL_DOMAIN_SEPARATOR = computeDomainSeparator() */\n  0xc0\n  dup2\n  dup2\n  mstore\n  pop\n  pop\n    /* \"ERC20.sol\":2011:2303  constructor(... */\n  pop\n  pop\n  pop\n    /* \"ERC4626.sol\":1376:1382  _asset */\n  dup4\n    /* \"ERC4626.sol\":1368:1382  asset = _asset */\n  0xffffffffffffffffffffffffffffffffffffffff\n  and\n  0xe0\n  dup2\n  0xffffffffffffffffffffffffffffffffffffffff\n  and\n  dup2\n  mstore\n  pop\n  pop\n    /* \"ERC4626.sol\":1200:1389  constructor(... */\n  pop\n  pop\n  pop\n  pop\n    /* \"SquiddyCore.sol\":1512:1523  _underlying */\n  dup4\n    /* \"SquiddyCore.sol\":1499:1523  UNDERLYING = _underlying */\n  0xffffffffffffffffffffffffffffffffffffffff\n  and\n  0x0100\n  dup2\n  0xffffffffffffffffffffffffffffffffffffffff\n  and\n  dup2\n  mstore\n  pop\n  pop\n    /* \"SquiddyCore.sol\":1549:1557  decimals */\n  mload(0x80)\n    /* \"SquiddyCore.sol\":1545:1547  10 */\n  0x0a\n    /* \"SquiddyCore.sol\":1545:1557  10**decimals */\n  tag_15\n  swap2\n  swap1\n  tag_16\n  jump\t// in\ntag_15:\n    /* \"SquiddyCore.sol\":1533:1557  BASE_UNIT = 10**decimals */\n  0x0120\n  dup2\n  dup2\n  mstore\n  pop\n  pop\n    /* \"SquiddyCore.sol\":1672:1689  type(uint256).max */\n  0xffffffffffffffffffffffffffffffffffffffffffffffffffffffffffffffff\n    /* \"SquiddyCore.sol\":1658:1669  totalSupply */\n  0x02\n    /* \"SquiddyCore.sol\":1658:1689  totalSupply = type(uint256).max */\n  dup2\n  swap1\n  sstore\n  pop\n    /* \"SquiddyCore.sol\":1311:1696  constructor(... */\n  pop\n  pop\n  pop\n  pop\n    /* \"SquiddyCore.sol\":143:2340  contract SquiddyCore is ERC4626 {... */\n  jump(tag_17)\n    /* \"ERC20.sol\":5698:6190  function computeDomainSeparator() internal view virtual returns (bytes32) {... */\ntag_12:\n    /* \"ERC20.sol\":5763:5770  bytes32 */\n  0x00\n    /* \"ERC20.sol\":5860:6001  keccak256(... */\n  0x8b73c3c69bb8fe3d512ecc4cf759cc79239f7b179b0ffacaa9a75d522b39400f\n    /* \"ERC20.sol\":6039:6043  name */\n  0x00\n    /* \"ERC20.sol\":6023:6045  keccak256(bytes(name)) */\n  mload(0x40)\n  tag_19\n  swap2\n  swap1\n  tag_20\n  jump\t// in\ntag_19:\n  mload(0x40)\n  dup1\n  swap2\n  sub\n  swap1\n  keccak256\n    /* \"ERC20.sol\":6067:6081  keccak256(\"1\") */\n  0xc89efdaa54c0f20c7adf612882df0950f5a951637e0307cdcb4c672f298b8bc6\n    /* \"ERC20.sol\":6103:6116  block.chainid */\n  chainid\n    /* \"ERC20.sol\":6146:6150  this */\n  address\n    /* \"ERC20.sol\":5828:6169  abi.encode(... */\n  add(0x20, mload(0x40))\n  tag_21\n  swap6\n  swap5\n  swap4\n  swap3\n  swap2\n  swap1\n  tag_22\n  jump\t// in\ntag_21:\n  mload(0x40)\n  0x20\n  dup2\n  dup4\n  sub\n  sub\n  dup2\n  mstore\n  swap1\n  0x40\n  mstore\n    /* \"ERC20.sol\":5801:6183  keccak256(... */\n  dup1\n  mload\n  swap1\n  0x20\n  add\n  keccak256\n    /* \"ERC20.sol\":5782:6183  return... */\n  swap1\n  pop\n    /* \"ERC20.sol\":5698:6190  function computeDomainSeparator() internal view virtual returns (bytes32) {... */\n  swap1\n  jump\t// out\n    /* \"SquiddyCore.sol\":143:2340  contract SquiddyCore is ERC4626 {... */\ntag_9:\n  dup3\n  dup1\n  sload\n  tag_23\n  swap1\n  tag_24\n  jump\t// in\ntag_23:\n  swap1\n  0x00\n  mstore\n  keccak256(0x00, 0x20)\n  swap1\n  0x1f\n  add\n  0x20\n  swap1\n  div\n  dup2\n  add\n  swap3\n  dup3\n  tag_26\n  jumpi\n  0x00\n  dup6\n  sstore\n  jump(tag_25)\ntag_26:\n  dup3\n  0x1f\n  lt\n  tag_27\n  jumpi\n  dup1\n  mload\n  not(0xff)\n  and\n  dup4\n  dup1\n  add\n  or\n  dup6\n  sstore\n  jump(tag_25)\ntag_27:\n  dup3\n  dup1\n  add\n  0x01\n  add\n  dup6\n  sstore\n  dup3\n  iszero\n  tag_25\n  jumpi\n  swap2\n  dup3\n  add\ntag_28:\n  dup3\n  dup2\n  gt\n  iszero\n  tag_29\n  jumpi\n  dup3\n  mload\n  dup3\n  sstore\n  swap2\n  0x20\n  add\n  swap2\n  swap1\n  0x01\n  add\n  swap1\n  jump(tag_28)\ntag_29:\ntag_25:\n  pop\n  swap1\n  pop\n  tag_30\n  swap2\n  swap1\n  tag_31\n  jump\t// in\ntag_30:\n  pop\n  swap1\n  jump\t// out\ntag_31:\ntag_32:\n  dup1\n  dup3\n  gt\n  iszero\n  tag_33\n  jumpi\n  0x00\n  dup2\n  0x00\n  swap1\n  sstore\n  pop\n  0x01\n  add\n  jump(tag_32)\ntag_33:\n  pop\n  swap1\n  jump\t// out\n    /* \"#utility.yul\":7:82   */\ntag_34:\n    /* \"#utility.yul\":40:46   */\n  0x00\n    /* \"#utility.yul\":73:75   */\n  0x40\n    /* \"#utility.yul\":67:76   */\n  mload\n    /* \"#utility.yul\":57:76   */\n  swap1\n  pop\n    /* \"#utility.yul\":7:82   */\n  swap1\n  jump\t// out\n    /* \"#utility.yul\":88:205   */\ntag_35:\n    /* \"#utility.yul\":197:198   */\n  0x00\n    /* \"#utility.yul\":194:195   */\n  dup1\n    /* \"#utility.yul\":187:199   */\n  revert\n    /* \"#utility.yul\":211:328   */\ntag_36:\n    /* \"#utility.yul\":320:321   */\n  0x00\n    /* \"#utility.yul\":317:318   */\n  dup1\n    /* \"#utility.yul\":310:322   */\n  revert\n    /* \"#utility.yul\":334:460   */\ntag_37:\n    /* \"#utility.yul\":371:378   */\n  0x00\n    /* \"#utility.yul\":411:453   */\n  0xffffffffffffffffffffffffffffffffffffffff\n    /* \"#utility.yul\":404:409   */\n  dup3\n    /* \"#utility.yul\":400:454   */\n  and\n    /* \"#utility.yul\":389:454   */\n  swap1\n  pop\n    /* \"#utility.yul\":334:460   */\n  swap2\n  swap1\n  pop\n  jump\t// out\n    /* \"#utility.yul\":466:562   */\ntag_38:\n    /* \"#utility.yul\":503:510   */\n  0x00\n    /* \"#utility.yul\":532:556   */\n  tag_74\n    /* \"#utility.yul\":550:555   */\n  dup3\n    /* \"#utility.yul\":532:556   */\n  tag_37\n  jump\t// in\ntag_74:\n    /* \"#utility.yul\":521:556   */\n  swap1\n  pop\n    /* \"#utility.yul\":466:562   */\n  swap2\n  swap1\n  pop\n  jump\t// out\n    /* \"#utility.yul\":568:677   */\ntag_39:\n    /* \"#utility.yul\":618:625   */\n  0x00\n    /* \"#utility.yul\":647:671   */\n  tag_76\n    /* \"#utility.yul\":665:670   */\n  dup3\n    /* \"#utility.yul\":647:671   */\n  tag_38\n  jump\t// in\ntag_76:\n    /* \"#utility.yul\":636:671   */\n  swap1\n  pop\n    /* \"#utility.yul\":568:677   */\n  swap2\n  swap1\n  pop\n  jump\t// out\n    /* \"#utility.yul\":683:831   */\ntag_40:\n    /* \"#utility.yul\":769:806   */\n  tag_78\n    /* \"#utility.yul\":800:805   */\n  dup2\n    /* \"#utility.yul\":769:806   */\n  tag_39\n  jump\t// in\ntag_78:\n    /* \"#utility.yul\":762:767   */\n  dup2\n    /* \"#utility.yul\":759:807   */\n  eq\n    /* \"#utility.yul\":749:825   */\n  tag_79\n  jumpi\n    /* \"#utility.yul\":821:822   */\n  0x00\n    /* \"#utility.yul\":818:819   */\n  dup1\n    /* \"#utility.yul\":811:823   */\n  revert\n    /* \"#utility.yul\":749:825   */\ntag_79:\n    /* \"#utility.yul\":683:831   */\n  pop\n  jump\t// out\n    /* \"#utility.yul\":837:1006   */\ntag_41:\n    /* \"#utility.yul\":907:912   */\n  0x00\n    /* \"#utility.yul\":938:944   */\n  dup2\n    /* \"#utility.yul\":932:945   */\n  mload\n    /* \"#utility.yul\":923:945   */\n  swap1\n  pop\n    /* \"#utility.yul\":954:1000   */\n  tag_81\n    /* \"#utility.yul\":994:999   */\n  dup2\n    /* \"#utility.yul\":954:1000   */\n  tag_40\n  jump\t// in\ntag_81:\n    /* \"#utility.yul\":837:1006   */\n  swap3\n  swap2\n  pop\n  pop\n  jump\t// out\n    /* \"#utility.yul\":1012:1129   */\ntag_42:\n    /* \"#utility.yul\":1121:1122   */\n  0x00\n    /* \"#utility.yul\":1118:1119   */\n  dup1\n    /* \"#utility.yul\":1111:1123   */\n  revert\n    /* \"#utility.yul\":1135:1252   */\ntag_43:\n    /* \"#utility.yul\":1244:1245   */\n  0x00\n    /* \"#utility.yul\":1241:1242   */\n  dup1\n    /* \"#utility.yul\":1234:1246   */\n  revert\n    /* \"#utility.yul\":1258:1360   */\ntag_44:\n    /* \"#utility.yul\":1299:1305   */\n  0x00\n    /* \"#utility.yul\":1350:1352   */\n  0x1f\n    /* \"#utility.yul\":1346:1353   */\n  not\n    /* \"#utility.yul\":1341:1343   */\n  0x1f\n    /* \"#utility.yul\":1334:1339   */\n  dup4\n    /* \"#utility.yul\":1330:1344   */\n  add\n    /* \"#utility.yul\":1326:1354   */\n  and\n    /* \"#utility.yul\":1316:1354   */\n  swap1\n  pop\n    /* \"#utility.yul\":1258:1360   */\n  swap2\n  swap1\n  pop\n  jump\t// out\n    /* \"#utility.yul\":1366:1546   */\ntag_45:\n    /* \"#utility.yul\":1414:1491   */\n  0x4e487b7100000000000000000000000000000000000000000000000000000000\n    /* \"#utility.yul\":1411:1412   */\n  0x00\n    /* \"#utility.yul\":1404:1492   */\n  mstore\n    /* \"#utility.yul\":1511:1515   */\n  0x41\n    /* \"#utility.yul\":1508:1509   */\n  0x04\n    /* \"#utility.yul\":1501:1516   */\n  mstore\n    /* \"#utility.yul\":1535:1539   */\n  0x24\n    /* \"#utility.yul\":1532:1533   */\n  0x00\n    /* \"#utility.yul\":1525:1540   */\n  revert\n    /* \"#utility.yul\":1552:1833   */\ntag_46:\n    /* \"#utility.yul\":1635:1662   */\n  tag_87\n    /* \"#utility.yul\":1657:1661   */\n  dup3\n    /* \"#utility.yul\":1635:1662   */\n  tag_44\n  jump\t// in\ntag_87:\n    /* \"#utility.yul\":1627:1633   */\n  dup2\n    /* \"#utility.yul\":1623:1663   */\n  add\n    /* \"#utility.yul\":1765:1771   */\n  dup2\n    /* \"#utility.yul\":1753:1763   */\n  dup2\n    /* \"#utility.yul\":1750:1772   */\n  lt\n    /* \"#utility.yul\":1729:1747   */\n  0xffffffffffffffff\n    /* \"#utility.yul\":1717:1727   */\n  dup3\n    /* \"#utility.yul\":1714:1748   */\n  gt\n    /* \"#utility.yul\":1711:1773   */\n  or\n    /* \"#utility.yul\":1708:1796   */\n  iszero\n  tag_88\n  jumpi\n    /* \"#utility.yul\":1776:1794   */\n  tag_89\n  tag_45\n  jump\t// in\ntag_89:\n    /* \"#utility.yul\":1708:1796   */\ntag_88:\n    /* \"#utility.yul\":1816:1826   */\n  dup1\n    /* \"#utility.yul\":1812:1814   */\n  0x40\n    /* \"#utility.yul\":1805:1827   */\n  mstore\n    /* \"#utility.yul\":1595:1833   */\n  pop\n    /* \"#utility.yul\":1552:1833   */\n  pop\n  pop\n  jump\t// out\n    /* \"#utility.yul\":1839:1968   */\ntag_47:\n    /* \"#utility.yul\":1873:1879   */\n  0x00\n    /* \"#utility.yul\":1900:1920   */\n  tag_91\n  tag_34\n  jump\t// in\ntag_91:\n    /* \"#utility.yul\":1890:1920   */\n  swap1\n  pop\n    /* \"#utility.yul\":1929:1962   */\n  tag_92\n    /* \"#utility.yul\":1957:1961   */\n  dup3\n    /* \"#utility.yul\":1949:1955   */\n  dup3\n    /* \"#utility.yul\":1929:1962   */\n  tag_46\n  jump\t// in\ntag_92:\n    /* \"#utility.yul\":1839:1968   */\n  swap2\n  swap1\n  pop\n  jump\t// out\n    /* \"#utility.yul\":1974:2282   */\ntag_48:\n    /* \"#utility.yul\":2036:2040   */\n  0x00\n    /* \"#utility.yul\":2126:2144   */\n  0xffffffffffffffff\n    /* \"#utility.yul\":2118:2124   */\n  dup3\n    /* \"#utility.yul\":2115:2145   */\n  gt\n    /* \"#utility.yul\":2112:2168   */\n  iszero\n  tag_94\n  jumpi\n    /* \"#utility.yul\":2148:2166   */\n  tag_95\n  tag_45\n  jump\t// in\ntag_95:\n    /* \"#utility.yul\":2112:2168   */\ntag_94:\n    /* \"#utility.yul\":2186:2215   */\n  tag_96\n    /* \"#utility.yul\":2208:2214   */\n  dup3\n    /* \"#utility.yul\":2186:2215   */\n  tag_44\n  jump\t// in\ntag_96:\n    /* \"#utility.yul\":2178:2215   */\n  swap1\n  pop\n    /* \"#utility.yul\":2270:2274   */\n  0x20\n    /* \"#utility.yul\":2264:2268   */\n  dup2\n    /* \"#utility.yul\":2260:2275   */\n  add\n    /* \"#utility.yul\":2252:2275   */\n  swap1\n  pop\n    /* \"#utility.yul\":1974:2282   */\n  swap2\n  swap1\n  pop\n  jump\t// out\n    /* \"#utility.yul\":2288:2595   */\ntag_49:\n    /* \"#utility.yul\":2356:2357   */\n  0x00\n    /* \"#utility.yul\":2366:2479   */\ntag_98:\n    /* \"#utility.yul\":2380:2386   */\n  dup4\n    /* \"#utility.yul\":2377:2378   */\n  dup2\n    /* \"#utility.yul\":2374:2387   */\n  lt\n    /* \"#utility.yul\":2366:2479   */\n  iszero\n  tag_100\n  jumpi\n    /* \"#utility.yul\":2465:2466   */\n  dup1\n    /* \"#utility.yul\":2460:2463   */\n  dup3\n    /* \"#utility.yul\":2456:2467   */\n  add\n    /* \"#utility.yul\":2450:2468   */\n  mload\n    /* \"#utility.yul\":2446:2447   */\n  dup2\n    /* \"#utility.yul\":2441:2444   */\n  dup5\n    /* \"#utility.yul\":2437:2448   */\n  add\n    /* \"#utility.yul\":2430:2469   */\n  mstore\n    /* \"#utility.yul\":2402:2404   */\n  0x20\n    /* \"#utility.yul\":2399:2400   */\n  dup2\n    /* \"#utility.yul\":2395:2405   */\n  add\n    /* \"#utility.yul\":2390:2405   */\n  swap1\n  pop\n    /* \"#utility.yul\":2366:2479   */\n  jump(tag_98)\ntag_100:\n    /* \"#utility.yul\":2497:2503   */\n  dup4\n    /* \"#utility.yul\":2494:2495   */\n  dup2\n    /* \"#utility.yul\":2491:2504   */\n  gt\n    /* \"#utility.yul\":2488:2589   */\n  iszero\n  tag_101\n  jumpi\n    /* \"#utility.yul\":2577:2578   */\n  0x00\n    /* \"#utility.yul\":2568:2574   */\n  dup5\n    /* \"#utility.yul\":2563:2566   */\n  dup5\n    /* \"#utility.yul\":2559:2575   */\n  add\n    /* \"#utility.yul\":2552:2579   */\n  mstore\n    /* \"#utility.yul\":2488:2589   */\ntag_101:\n    /* \"#utility.yul\":2337:2595   */\n  pop\n    /* \"#utility.yul\":2288:2595   */\n  pop\n  pop\n  pop\n  jump\t// out\n    /* \"#utility.yul\":2601:3022   */\ntag_50:\n    /* \"#utility.yul\":2690:2695   */\n  0x00\n    /* \"#utility.yul\":2715:2781   */\n  tag_103\n    /* \"#utility.yul\":2731:2780   */\n  tag_104\n    /* \"#utility.yul\":2773:2779   */\n  dup5\n    /* \"#utility.yul\":2731:2780   */\n  tag_48\n  jump\t// in\ntag_104:\n    /* \"#utility.yul\":2715:2781   */\n  tag_47\n  jump\t// in\ntag_103:\n    /* \"#utility.yul\":2706:2781   */\n  swap1\n  pop\n    /* \"#utility.yul\":2804:2810   */\n  dup3\n    /* \"#utility.yul\":2797:2802   */\n  dup2\n    /* \"#utility.yul\":2790:2811   */\n  mstore\n    /* \"#utility.yul\":2842:2846   */\n  0x20\n    /* \"#utility.yul\":2835:2840   */\n  dup2\n    /* \"#utility.yul\":2831:2847   */\n  add\n    /* \"#utility.yul\":2880:2883   */\n  dup5\n    /* \"#utility.yul\":2871:2877   */\n  dup5\n    /* \"#utility.yul\":2866:2869   */\n  dup5\n    /* \"#utility.yul\":2862:2878   */\n  add\n    /* \"#utility.yul\":2859:2884   */\n  gt\n    /* \"#utility.yul\":2856:2968   */\n  iszero\n  tag_105\n  jumpi\n    /* \"#utility.yul\":2887:2966   */\n  tag_106\n  tag_43\n  jump\t// in\ntag_106:\n    /* \"#utility.yul\":2856:2968   */\ntag_105:\n    /* \"#utility.yul\":2977:3016   */\n  tag_107\n    /* \"#utility.yul\":3009:3015   */\n  dup5\n    /* \"#utility.yul\":3004:3007   */\n  dup3\n    /* \"#utility.yul\":2999:3002   */\n  dup6\n    /* \"#utility.yul\":2977:3016   */\n  tag_49\n  jump\t// in\ntag_107:\n    /* \"#utility.yul\":2696:3022   */\n  pop\n    /* \"#utility.yul\":2601:3022   */\n  swap4\n  swap3\n  pop\n  pop\n  pop\n  jump\t// out\n    /* \"#utility.yul\":3042:3397   */\ntag_51:\n    /* \"#utility.yul\":3109:3114   */\n  0x00\n    /* \"#utility.yul\":3158:3161   */\n  dup3\n    /* \"#utility.yul\":3151:3155   */\n  0x1f\n    /* \"#utility.yul\":3143:3149   */\n  dup4\n    /* \"#utility.yul\":3139:3156   */\n  add\n    /* \"#utility.yul\":3135:3162   */\n  slt\n    /* \"#utility.yul\":3125:3247   */\n  tag_109\n  jumpi\n    /* \"#utility.yul\":3166:3245   */\n  tag_110\n  tag_42\n  jump\t// in\ntag_110:\n    /* \"#utility.yul\":3125:3247   */\ntag_109:\n    /* \"#utility.yul\":3276:3282   */\n  dup2\n    /* \"#utility.yul\":3270:3283   */\n  mload\n    /* \"#utility.yul\":3301:3391   */\n  tag_111\n    /* \"#utility.yul\":3387:3390   */\n  dup5\n    /* \"#utility.yul\":3379:3385   */\n  dup3\n    /* \"#utility.yul\":3372:3376   */\n  0x20\n    /* \"#utility.yul\":3364:3370   */\n  dup7\n    /* \"#utility.yul\":3360:3377   */\n  add\n    /* \"#utility.yul\":3301:3391   */\n  tag_50\n  jump\t// in\ntag_111:\n    /* \"#utility.yul\":3292:3391   */\n  swap2\n  pop\n    /* \"#utility.yul\":3115:3397   */\n  pop\n    /* \"#utility.yul\":3042:3397   */\n  swap3\n  swap2\n  pop\n  pop\n  jump\t// out\n    /* \"#utility.yul\":3403:3489   */\ntag_52:\n    /* \"#utility.yul\":3438:3445   */\n  0x00\n    /* \"#utility.yul\":3478:3482   */\n  0xff\n    /* \"#utility.yul\":3471:3476   */\n  dup3\n    /* \"#utility.yul\":3467:3483   */\n  and\n    /* \"#utility.yul\":3456:3483   */\n  swap1\n  pop\n    /* \"#utility.yul\":3403:3489   */\n  swap2\n  swap1\n  pop\n  jump\t// out\n    /* \"#utility.yul\":3495:3613   */\ntag_53:\n    /* \"#utility.yul\":3566:3588   */\n  tag_114\n    /* \"#utility.yul\":3582:3587   */\n  dup2\n    /* \"#utility.yul\":3566:3588   */\n  tag_52\n  jump\t// in\ntag_114:\n    /* \"#utility.yul\":3559:3564   */\n  dup2\n    /* \"#utility.yul\":3556:3589   */\n  eq\n    /* \"#utility.yul\":3546:3607   */\n  tag_115\n  jumpi\n    /* \"#utility.yul\":3603:3604   */\n  0x00\n    /* \"#utility.yul\":3600:3601   */\n  dup1\n    /* \"#utility.yul\":3593:3605   */\n  revert\n    /* \"#utility.yul\":3546:3607   */\ntag_115:\n    /* \"#utility.yul\":3495:3613   */\n  pop\n  jump\t// out\n    /* \"#utility.yul\":3619:3758   */\ntag_54:\n    /* \"#utility.yul\":3674:3679   */\n  0x00\n    /* \"#utility.yul\":3705:3711   */\n  dup2\n    /* \"#utility.yul\":3699:3712   */\n  mload\n    /* \"#utility.yul\":3690:3712   */\n  swap1\n  pop\n    /* \"#utility.yul\":3721:3752   */\n  tag_117\n    /* \"#utility.yul\":3746:3751   */\n  dup2\n    /* \"#utility.yul\":3721:3752   */\n  tag_53\n  jump\t// in\ntag_117:\n    /* \"#utility.yul\":3619:3758   */\n  swap3\n  swap2\n  pop\n  pop\n  jump\t// out\n    /* \"#utility.yul\":3764:4952   */\ntag_3:\n    /* \"#utility.yul\":3892:3898   */\n  0x00\n    /* \"#utility.yul\":3900:3906   */\n  dup1\n    /* \"#utility.yul\":3908:3914   */\n  0x00\n    /* \"#utility.yul\":3916:3922   */\n  dup1\n    /* \"#utility.yul\":3965:3968   */\n  0x80\n    /* \"#utility.yul\":3953:3962   */\n  dup6\n    /* \"#utility.yul\":3944:3951   */\n  dup8\n    /* \"#utility.yul\":3940:3963   */\n  sub\n    /* \"#utility.yul\":3936:3969   */\n  slt\n    /* \"#utility.yul\":3933:4053   */\n  iszero\n  tag_119\n  jumpi\n    /* \"#utility.yul\":3972:4051   */\n  tag_120\n  tag_35\n  jump\t// in\ntag_120:\n    /* \"#utility.yul\":3933:4053   */\ntag_119:\n    /* \"#utility.yul\":4092:4093   */\n  0x00\n    /* \"#utility.yul\":4117:4194   */\n  tag_121\n    /* \"#utility.yul\":4186:4193   */\n  dup8\n    /* \"#utility.yul\":4177:4183   */\n  dup3\n    /* \"#utility.yul\":4166:4175   */\n  dup9\n    /* \"#utility.yul\":4162:4184   */\n  add\n    /* \"#utility.yul\":4117:4194   */\n  tag_41\n  jump\t// in\ntag_121:\n    /* \"#utility.yul\":4107:4194   */\n  swap5\n  pop\n    /* \"#utility.yul\":4063:4204   */\n  pop\n    /* \"#utility.yul\":4264:4266   */\n  0x20\n    /* \"#utility.yul\":4253:4262   */\n  dup6\n    /* \"#utility.yul\":4249:4267   */\n  add\n    /* \"#utility.yul\":4243:4268   */\n  mload\n    /* \"#utility.yul\":4295:4313   */\n  0xffffffffffffffff\n    /* \"#utility.yul\":4287:4293   */\n  dup2\n    /* \"#utility.yul\":4284:4314   */\n  gt\n    /* \"#utility.yul\":4281:4398   */\n  iszero\n  tag_122\n  jumpi\n    /* \"#utility.yul\":4317:4396   */\n  tag_123\n  tag_36\n  jump\t// in\ntag_123:\n    /* \"#utility.yul\":4281:4398   */\ntag_122:\n    /* \"#utility.yul\":4422:4496   */\n  tag_124\n    /* \"#utility.yul\":4488:4495   */\n  dup8\n    /* \"#utility.yul\":4479:4485   */\n  dup3\n    /* \"#utility.yul\":4468:4477   */\n  dup9\n    /* \"#utility.yul\":4464:4486   */\n  add\n    /* \"#utility.yul\":4422:4496   */\n  tag_51\n  jump\t// in\ntag_124:\n    /* \"#utility.yul\":4412:4496   */\n  swap4\n  pop\n    /* \"#utility.yul\":4214:4506   */\n  pop\n    /* \"#utility.yul\":4566:4568   */\n  0x40\n    /* \"#utility.yul\":4555:4564   */\n  dup6\n    /* \"#utility.yul\":4551:4569   */\n  add\n    /* \"#utility.yul\":4545:4570   */\n  mload\n    /* \"#utility.yul\":4597:4615   */\n  0xffffffffffffffff\n    /* \"#utility.yul\":4589:4595   */\n  dup2\n    /* \"#utility.yul\":4586:4616   */\n  gt\n    /* \"#utility.yul\":4583:4700   */\n  iszero\n  tag_125\n  jumpi\n    /* \"#utility.yul\":4619:4698   */\n  tag_126\n  tag_36\n  jump\t// in\ntag_126:\n    /* \"#utility.yul\":4583:4700   */\ntag_125:\n    /* \"#utility.yul\":4724:4798   */\n  tag_127\n    /* \"#utility.yul\":4790:4797   */\n  dup8\n    /* \"#utility.yul\":4781:4787   */\n  dup3\n    /* \"#utility.yul\":4770:4779   */\n  dup9\n    /* \"#utility.yul\":4766:4788   */\n  add\n    /* \"#utility.yul\":4724:4798   */\n  tag_51\n  jump\t// in\ntag_127:\n    /* \"#utility.yul\":4714:4798   */\n  swap3\n  pop\n    /* \"#utility.yul\":4516:4808   */\n  pop\n    /* \"#utility.yul\":4847:4849   */\n  0x60\n    /* \"#utility.yul\":4873:4935   */\n  tag_128\n    /* \"#utility.yul\":4927:4934   */\n  dup8\n    /* \"#utility.yul\":4918:4924   */\n  dup3\n    /* \"#utility.yul\":4907:4916   */\n  dup9\n    /* \"#utility.yul\":4903:4925   */\n  add\n    /* \"#utility.yul\":4873:4935   */\n  tag_54\n  jump\t// in\ntag_128:\n    /* \"#utility.yul\":4863:4935   */\n  swap2\n  pop\n    /* \"#utility.yul\":4818:4945   */\n  pop\n    /* \"#utility.yul\":3764:4952   */\n  swap3\n  swap6\n  swap2\n  swap5\n  pop\n  swap3\n  pop\n  jump\t// out\n    /* \"#utility.yul\":4958:5138   */\ntag_55:\n    /* \"#utility.yul\":5006:5083   */\n  0x4e487b7100000000000000000000000000000000000000000000000000000000\n    /* \"#utility.yul\":5003:5004   */\n  0x00\n    /* \"#utility.yul\":4996:5084   */\n  mstore\n    /* \"#utility.yul\":5103:5107   */\n  0x11\n    /* \"#utility.yul\":5100:5101   */\n  0x04\n    /* \"#utility.yul\":5093:5108   */\n  mstore\n    /* \"#utility.yul\":5127:5131   */\n  0x24\n    /* \"#utility.yul\":5124:5125   */\n  0x00\n    /* \"#utility.yul\":5117:5132   */\n  revert\n    /* \"#utility.yul\":5144:5246   */\ntag_56:\n    /* \"#utility.yul\":5186:5194   */\n  0x00\n    /* \"#utility.yul\":5233:5238   */\n  dup2\n    /* \"#utility.yul\":5230:5231   */\n  0x01\n    /* \"#utility.yul\":5226:5239   */\n  shr\n    /* \"#utility.yul\":5205:5239   */\n  swap1\n  pop\n    /* \"#utility.yul\":5144:5246   */\n  swap2\n  swap1\n  pop\n  jump\t// out\n    /* \"#utility.yul\":5252:6100   */\ntag_57:\n    /* \"#utility.yul\":5313:5318   */\n  0x00\n    /* \"#utility.yul\":5320:5324   */\n  dup1\n    /* \"#utility.yul\":5344:5350   */\n  dup3\n    /* \"#utility.yul\":5335:5350   */\n  swap2\n  pop\n    /* \"#utility.yul\":5368:5373   */\n  dup4\n    /* \"#utility.yul\":5359:5373   */\n  swap1\n  pop\n    /* \"#utility.yul\":5382:6094   */\ntag_132:\n    /* \"#utility.yul\":5403:5404   */\n  0x01\n    /* \"#utility.yul\":5393:5401   */\n  dup6\n    /* \"#utility.yul\":5390:5405   */\n  gt\n    /* \"#utility.yul\":5382:6094   */\n  iszero\n  tag_134\n  jumpi\n    /* \"#utility.yul\":5498:5502   */\n  dup1\n    /* \"#utility.yul\":5493:5496   */\n  dup7\n    /* \"#utility.yul\":5489:5503   */\n  div\n    /* \"#utility.yul\":5483:5487   */\n  dup2\n    /* \"#utility.yul\":5480:5504   */\n  gt\n    /* \"#utility.yul\":5477:5527   */\n  iszero\n  tag_135\n  jumpi\n    /* \"#utility.yul\":5507:5525   */\n  tag_136\n  tag_55\n  jump\t// in\ntag_136:\n    /* \"#utility.yul\":5477:5527   */\ntag_135:\n    /* \"#utility.yul\":5557:5558   */\n  0x01\n    /* \"#utility.yul\":5547:5555   */\n  dup6\n    /* \"#utility.yul\":5543:5559   */\n  and\n    /* \"#utility.yul\":5540:5991   */\n  iszero\n  tag_137\n  jumpi\n    /* \"#utility.yul\":5972:5976   */\n  dup1\n    /* \"#utility.yul\":5965:5970   */\n  dup3\n    /* \"#utility.yul\":5961:5977   */\n  mul\n    /* \"#utility.yul\":5952:5977   */\n  swap2\n  pop\n    /* \"#utility.yul\":5540:5991   */\ntag_137:\n    /* \"#utility.yul\":6022:6026   */\n  dup1\n    /* \"#utility.yul\":6016:6020   */\n  dup2\n    /* \"#utility.yul\":6012:6027   */\n  mul\n    /* \"#utility.yul\":6004:6027   */\n  swap1\n  pop\n    /* \"#utility.yul\":6052:6084   */\n  tag_138\n    /* \"#utility.yul\":6075:6083   */\n  dup6\n    /* \"#utility.yul\":6052:6084   */\n  tag_56\n  jump\t// in\ntag_138:\n    /* \"#utility.yul\":6040:6084   */\n  swap5\n  pop\n    /* \"#utility.yul\":5382:6094   */\n  jump(tag_132)\ntag_134:\n    /* \"#utility.yul\":5252:6100   */\n  swap5\n  pop\n  swap5\n  swap3\n  pop\n  pop\n  pop\n  jump\t// out\n    /* \"#utility.yul\":6106:7179   */\ntag_58:\n    /* \"#utility.yul\":6160:6165   */\n  0x00\n    /* \"#utility.yul\":6351:6359   */\n  dup3\n    /* \"#utility.yul\":6341:6381   */\n  tag_140\n  jumpi\n    /* \"#utility.yul\":6372:6373   */\n  0x01\n    /* \"#utility.yul\":6363:6373   */\n  swap1\n  pop\n    /* \"#utility.yul\":6374:6379   */\n  jump(tag_139)\n    /* \"#utility.yul\":6341:6381   */\ntag_140:\n    /* \"#utility.yul\":6400:6404   */\n  dup2\n    /* \"#utility.yul\":6390:6426   */\n  tag_141\n  jumpi\n    /* \"#utility.yul\":6417:6418   */\n  0x00\n    /* \"#utility.yul\":6408:6418   */\n  swap1\n  pop\n    /* \"#utility.yul\":6419:6424   */\n  jump(tag_139)\n    /* \"#utility.yul\":6390:6426   */\ntag_141:\n    /* \"#utility.yul\":6486:6490   */\n  dup2\n    /* \"#utility.yul\":6534:6535   */\n  0x01\n    /* \"#utility.yul\":6529:6556   */\n  dup2\n  eq\n  tag_143\n  jumpi\n    /* \"#utility.yul\":6570:6571   */\n  0x02\n    /* \"#utility.yul\":6565:6756   */\n  dup2\n  eq\n  tag_144\n  jumpi\n    /* \"#utility.yul\":6479:6756   */\n  jump(tag_142)\n    /* \"#utility.yul\":6529:6556   */\ntag_143:\n    /* \"#utility.yul\":6547:6548   */\n  0x01\n    /* \"#utility.yul\":6538:6548   */\n  swap2\n  pop\n    /* \"#utility.yul\":6549:6554   */\n  pop\n  jump(tag_139)\n    /* \"#utility.yul\":6565:6756   */\ntag_144:\n    /* \"#utility.yul\":6610:6613   */\n  0xff\n    /* \"#utility.yul\":6600:6608   */\n  dup5\n    /* \"#utility.yul\":6597:6614   */\n  gt\n    /* \"#utility.yul\":6594:6637   */\n  iszero\n  tag_145\n  jumpi\n    /* \"#utility.yul\":6617:6635   */\n  tag_146\n  tag_55\n  jump\t// in\ntag_146:\n    /* \"#utility.yul\":6594:6637   */\ntag_145:\n    /* \"#utility.yul\":6666:6674   */\n  dup4\n    /* \"#utility.yul\":6663:6664   */\n  0x02\n    /* \"#utility.yul\":6659:6675   */\n  exp\n    /* \"#utility.yul\":6650:6675   */\n  swap2\n  pop\n    /* \"#utility.yul\":6701:6704   */\n  dup5\n    /* \"#utility.yul\":6694:6699   */\n  dup3\n    /* \"#utility.yul\":6691:6705   */\n  gt\n    /* \"#utility.yul\":6688:6728   */\n  iszero\n  tag_147\n  jumpi\n    /* \"#utility.yul\":6708:6726   */\n  tag_148\n  tag_55\n  jump\t// in\ntag_148:\n    /* \"#utility.yul\":6688:6728   */\ntag_147:\n    /* \"#utility.yul\":6741:6746   */\n  pop\n  jump(tag_139)\n    /* \"#utility.yul\":6479:6756   */\ntag_142:\n  pop\n    /* \"#utility.yul\":6865:6867   */\n  0x20\n    /* \"#utility.yul\":6855:6863   */\n  dup4\n    /* \"#utility.yul\":6852:6868   */\n  lt\n    /* \"#utility.yul\":6846:6849   */\n  0x0133\n    /* \"#utility.yul\":6840:6844   */\n  dup4\n    /* \"#utility.yul\":6837:6850   */\n  lt\n    /* \"#utility.yul\":6833:6869   */\n  and\n    /* \"#utility.yul\":6815:6817   */\n  0x4e\n    /* \"#utility.yul\":6805:6813   */\n  dup5\n    /* \"#utility.yul\":6802:6818   */\n  lt\n    /* \"#utility.yul\":6797:6799   */\n  0x0b\n    /* \"#utility.yul\":6791:6795   */\n  dup5\n    /* \"#utility.yul\":6788:6800   */\n  lt\n    /* \"#utility.yul\":6784:6819   */\n  and\n    /* \"#utility.yul\":6768:6879   */\n  or\n    /* \"#utility.yul\":6765:7011   */\n  iszero\n  tag_149\n  jumpi\n    /* \"#utility.yul\":6921:6929   */\n  dup3\n    /* \"#utility.yul\":6915:6919   */\n  dup3\n    /* \"#utility.yul\":6911:6930   */\n  exp\n    /* \"#utility.yul\":6902:6930   */\n  swap1\n  pop\n    /* \"#utility.yul\":6956:6959   */\n  dup4\n    /* \"#utility.yul\":6949:6954   */\n  dup2\n    /* \"#utility.yul\":6946:6960   */\n  gt\n    /* \"#utility.yul\":6943:6983   */\n  iszero\n  tag_150\n  jumpi\n    /* \"#utility.yul\":6963:6981   */\n  tag_151\n  tag_55\n  jump\t// in\ntag_151:\n    /* \"#utility.yul\":6943:6983   */\ntag_150:\n    /* \"#utility.yul\":6996:7001   */\n  jump(tag_139)\n    /* \"#utility.yul\":6765:7011   */\ntag_149:\n    /* \"#utility.yul\":7036:7078   */\n  tag_152\n    /* \"#utility.yul\":7074:7077   */\n  dup5\n    /* \"#utility.yul\":7064:7072   */\n  dup5\n    /* \"#utility.yul\":7058:7062   */\n  dup5\n    /* \"#utility.yul\":7055:7056   */\n  0x01\n    /* \"#utility.yul\":7036:7078   */\n  tag_57\n  jump\t// in\ntag_152:\n    /* \"#utility.yul\":7021:7078   */\n  swap3\n  pop\n  swap1\n  pop\n    /* \"#utility.yul\":7110:7114   */\n  dup2\n    /* \"#utility.yul\":7105:7108   */\n  dup5\n    /* \"#utility.yul\":7101:7115   */\n  div\n    /* \"#utility.yul\":7094:7099   */\n  dup2\n    /* \"#utility.yul\":7091:7116   */\n  gt\n    /* \"#utility.yul\":7088:7139   */\n  iszero\n  tag_153\n  jumpi\n    /* \"#utility.yul\":7119:7137   */\n  tag_154\n  tag_55\n  jump\t// in\ntag_154:\n    /* \"#utility.yul\":7088:7139   */\ntag_153:\n    /* \"#utility.yul\":7168:7172   */\n  dup2\n    /* \"#utility.yul\":7161:7166   */\n  dup2\n    /* \"#utility.yul\":7157:7173   */\n  mul\n    /* \"#utility.yul\":7148:7173   */\n  swap1\n  pop\n    /* \"#utility.yul\":6106:7179   */\ntag_139:\n  swap4\n  swap3\n  pop\n  pop\n  pop\n  jump\t// out\n    /* \"#utility.yul\":7185:7262   */\ntag_59:\n    /* \"#utility.yul\":7222:7229   */\n  0x00\n    /* \"#utility.yul\":7251:7256   */\n  dup2\n    /* \"#utility.yul\":7240:7256   */\n  swap1\n  pop\n    /* \"#utility.yul\":7185:7262   */\n  swap2\n  swap1\n  pop\n  jump\t// out\n    /* \"#utility.yul\":7268:7549   */\ntag_16:\n    /* \"#utility.yul\":7326:7331   */\n  0x00\n    /* \"#utility.yul\":7350:7373   */\n  tag_157\n    /* \"#utility.yul\":7368:7372   */\n  dup3\n    /* \"#utility.yul\":7350:7373   */\n  tag_59\n  jump\t// in\ntag_157:\n    /* \"#utility.yul\":7342:7373   */\n  swap2\n  pop\n    /* \"#utility.yul\":7394:7419   */\n  tag_158\n    /* \"#utility.yul\":7410:7418   */\n  dup4\n    /* \"#utility.yul\":7394:7419   */\n  tag_52\n  jump\t// in\ntag_158:\n    /* \"#utility.yul\":7382:7419   */\n  swap3\n  pop\n    /* \"#utility.yul\":7438:7542   */\n  tag_159\n    /* \"#utility.yul\":7475:7541   */\n  0xffffffffffffffffffffffffffffffffffffffffffffffffffffffffffffffff\n    /* \"#utility.yul\":7465:7473   */\n  dup5\n    /* \"#utility.yul\":7459:7463   */\n  dup5\n    /* \"#utility.yul\":7438:7542   */\n  tag_58\n  jump\t// in\ntag_159:\n    /* \"#utility.yul\":7429:7542   */\n  swap1\n  pop\n    /* \"#utility.yul\":7268:7549   */\n  swap3\n  swap2\n  pop\n  pop\n  jump\t// out\n    /* \"#utility.yul\":7555:7735   */\ntag_60:\n    /* \"#utility.yul\":7603:7680   */\n  0x4e487b7100000000000000000000000000000000000000000000000000000000\n    /* \"#utility.yul\":7600:7601   */\n  0x00\n    /* \"#utility.yul\":7593:7681   */\n  mstore\n    /* \"#utility.yul\":7700:7704   */\n  0x22\n    /* \"#utility.yul\":7697:7698   */\n  0x04\n    /* \"#utility.yul\":7690:7705   */\n  mstore\n    /* \"#utility.yul\":7724:7728   */\n  0x24\n    /* \"#utility.yul\":7721:7722   */\n  0x00\n    /* \"#utility.yul\":7714:7729   */\n  revert\n    /* \"#utility.yul\":7741:8061   */\ntag_24:\n    /* \"#utility.yul\":7785:7791   */\n  0x00\n    /* \"#utility.yul\":7822:7823   */\n  0x02\n    /* \"#utility.yul\":7816:7820   */\n  dup3\n    /* \"#utility.yul\":7812:7824   */\n  div\n    /* \"#utility.yul\":7802:7824   */\n  swap1\n  pop\n    /* \"#utility.yul\":7869:7870   */\n  0x01\n    /* \"#utility.yul\":7863:7867   */\n  dup3\n    /* \"#utility.yul\":7859:7871   */\n  and\n    /* \"#utility.yul\":7890:7908   */\n  dup1\n    /* \"#utility.yul\":7880:7961   */\n  tag_162\n  jumpi\n    /* \"#utility.yul\":7946:7950   */\n  0x7f\n    /* \"#utility.yul\":7938:7944   */\n  dup3\n    /* \"#utility.yul\":7934:7951   */\n  and\n    /* \"#utility.yul\":7924:7951   */\n  swap2\n  pop\n    /* \"#utility.yul\":7880:7961   */\ntag_162:\n    /* \"#utility.yul\":8008:8010   */\n  0x20\n    /* \"#utility.yul\":8000:8006   */\n  dup3\n    /* \"#utility.yul\":7997:8011   */\n  lt\n    /* \"#utility.yul\":7977:7995   */\n  dup2\n    /* \"#utility.yul\":7974:8012   */\n  eq\n    /* \"#utility.yul\":7971:8055   */\n  iszero\n  tag_163\n  jumpi\n    /* \"#utility.yul\":8027:8045   */\n  tag_164\n  tag_60\n  jump\t// in\ntag_164:\n    /* \"#utility.yul\":7971:8055   */\ntag_163:\n    /* \"#utility.yul\":7792:8061   */\n  pop\n    /* \"#utility.yul\":7741:8061   */\n  swap2\n  swap1\n  pop\n  jump\t// out\n    /* \"#utility.yul\":8067:8214   */\ntag_61:\n    /* \"#utility.yul\":8168:8179   */\n  0x00\n    /* \"#utility.yul\":8205:8208   */\n  dup2\n    /* \"#utility.yul\":8190:8208   */\n  swap1\n  pop\n    /* \"#utility.yul\":8067:8214   */\n  swap3\n  swap2\n  pop\n  pop\n  jump\t// out\n    /* \"#utility.yul\":8220:8364   */\ntag_62:\n    /* \"#utility.yul\":8272:8276   */\n  0x00\n    /* \"#utility.yul\":8295:8298   */\n  dup2\n    /* \"#utility.yul\":8287:8298   */\n  swap1\n  pop\n    /* \"#utility.yul\":8318:8321   */\n  dup2\n    /* \"#utility.yul\":8315:8316   */\n  0x00\n    /* \"#utility.yul\":8308:8322   */\n  mstore\n    /* \"#utility.yul\":8352:8356   */\n  0x20\n    /* \"#utility.yul\":8349:8350   */\n  0x00\n    /* \"#utility.yul\":8339:8357   */\n  keccak256\n    /* \"#utility.yul\":8331:8357   */\n  swap1\n  pop\n    /* \"#utility.yul\":8220:8364   */\n  swap2\n  swap1\n  pop\n  jump\t// out\n    /* \"#utility.yul\":8392:9241   */\ntag_63:\n    /* \"#utility.yul\":8497:8500   */\n  0x00\n    /* \"#utility.yul\":8534:8539   */\n  dup2\n    /* \"#utility.yul\":8528:8540   */\n  sload\n    /* \"#utility.yul\":8563:8599   */\n  tag_168\n    /* \"#utility.yul\":8589:8598   */\n  dup2\n    /* \"#utility.yul\":8563:8599   */\n  tag_24\n  jump\t// in\ntag_168:\n    /* \"#utility.yul\":8615:8703   */\n  tag_169\n    /* \"#utility.yul\":8696:8702   */\n  dup2\n    /* \"#utility.yul\":8691:8694   */\n  dup7\n    /* \"#utility.yul\":8615:8703   */\n  tag_61\n  jump\t// in\ntag_169:\n    /* \"#utility.yul\":8608:8703   */\n  swap5\n  pop\n    /* \"#utility.yul\":8734:8735   */\n  0x01\n    /* \"#utility.yul\":8723:8732   */\n  dup3\n    /* \"#utility.yul\":8719:8736   */\n  and\n    /* \"#utility.yul\":8750:8751   */\n  0x00\n    /* \"#utility.yul\":8745:8882   */\n  dup2\n  eq\n  tag_171\n  jumpi\n    /* \"#utility.yul\":8896:8897   */\n  0x01\n    /* \"#utility.yul\":8891:9235   */\n  dup2\n  eq\n  tag_172\n  jumpi\n    /* \"#utility.yul\":8712:9235   */\n  jump(tag_170)\n    /* \"#utility.yul\":8745:8882   */\ntag_171:\n    /* \"#utility.yul\":8829:8833   */\n  0xff\n    /* \"#utility.yul\":8825:8834   */\n  not\n    /* \"#utility.yul\":8814:8823   */\n  dup4\n    /* \"#utility.yul\":8810:8835   */\n  and\n    /* \"#utility.yul\":8805:8808   */\n  dup7\n    /* \"#utility.yul\":8798:8836   */\n  mstore\n    /* \"#utility.yul\":8865:8871   */\n  dup2\n    /* \"#utility.yul\":8860:8863   */\n  dup7\n    /* \"#utility.yul\":8856:8872   */\n  add\n    /* \"#utility.yul\":8849:8872   */\n  swap4\n  pop\n    /* \"#utility.yul\":8745:8882   */\n  jump(tag_170)\n    /* \"#utility.yul\":8891:9235   */\ntag_172:\n    /* \"#utility.yul\":8958:8999   */\n  tag_173\n    /* \"#utility.yul\":8993:8998   */\n  dup6\n    /* \"#utility.yul\":8958:8999   */\n  tag_62\n  jump\t// in\ntag_173:\n    /* \"#utility.yul\":9021:9022   */\n  0x00\n    /* \"#utility.yul\":9035:9189   */\ntag_174:\n    /* \"#utility.yul\":9049:9055   */\n  dup4\n    /* \"#utility.yul\":9046:9047   */\n  dup2\n    /* \"#utility.yul\":9043:9056   */\n  lt\n    /* \"#utility.yul\":9035:9189   */\n  iszero\n  tag_176\n  jumpi\n    /* \"#utility.yul\":9123:9130   */\n  dup2\n    /* \"#utility.yul\":9117:9131   */\n  sload\n    /* \"#utility.yul\":9113:9114   */\n  dup2\n    /* \"#utility.yul\":9108:9111   */\n  dup10\n    /* \"#utility.yul\":9104:9115   */\n  add\n    /* \"#utility.yul\":9097:9132   */\n  mstore\n    /* \"#utility.yul\":9173:9174   */\n  0x01\n    /* \"#utility.yul\":9164:9171   */\n  dup3\n    /* \"#utility.yul\":9160:9175   */\n  add\n    /* \"#utility.yul\":9149:9175   */\n  swap2\n  pop\n    /* \"#utility.yul\":9071:9075   */\n  0x20\n    /* \"#utility.yul\":9068:9069   */\n  dup2\n    /* \"#utility.yul\":9064:9076   */\n  add\n    /* \"#utility.yul\":9059:9076   */\n  swap1\n  pop\n    /* \"#utility.yul\":9035:9189   */\n  jump(tag_174)\ntag_176:\n    /* \"#utility.yul\":9218:9224   */\n  dup4\n    /* \"#utility.yul\":9213:9216   */\n  dup9\n    /* \"#utility.yul\":9209:9225   */\n  add\n    /* \"#utility.yul\":9202:9225   */\n  swap6\n  pop\n    /* \"#utility.yul\":8898:9235   */\n  pop\n  pop\n    /* \"#utility.yul\":8712:9235   */\ntag_170:\n  pop\n    /* \"#utility.yul\":8501:9241   */\n  pop\n  pop\n    /* \"#utility.yul\":8392:9241   */\n  swap3\n  swap2\n  pop\n  pop\n  jump\t// out\n    /* \"#utility.yul\":9247:9520   */\ntag_20:\n    /* \"#utility.yul\":9378:9381   */\n  0x00\n    /* \"#utility.yul\":9400:9494   */\n  tag_178\n    /* \"#utility.yul\":9490:9493   */\n  dup3\n    /* \"#utility.yul\":9481:9487   */\n  dup5\n    /* \"#utility.yul\":9400:9494   */\n  tag_63\n  jump\t// in\ntag_178:\n    /* \"#utility.yul\":9393:9494   */\n  swap2\n  pop\n    /* \"#utility.yul\":9511:9514   */\n  dup2\n    /* \"#utility.yul\":9504:9514   */\n  swap1\n  pop\n    /* \"#utility.yul\":9247:9520   */\n  swap3\n  swap2\n  pop\n  pop\n  jump\t// out\n    /* \"#utility.yul\":9526:9603   */\ntag_64:\n    /* \"#utility.yul\":9563:9570   */\n  0x00\n    /* \"#utility.yul\":9592:9597   */\n  dup2\n    /* \"#utility.yul\":9581:9597   */\n  swap1\n  pop\n    /* \"#utility.yul\":9526:9603   */\n  swap2\n  swap1\n  pop\n  jump\t// out\n    /* \"#utility.yul\":9609:9727   */\ntag_65:\n    /* \"#utility.yul\":9696:9720   */\n  tag_181\n    /* \"#utility.yul\":9714:9719   */\n  dup2\n    /* \"#utility.yul\":9696:9720   */\n  tag_64\n  jump\t// in\ntag_181:\n    /* \"#utility.yul\":9691:9694   */\n  dup3\n    /* \"#utility.yul\":9684:9721   */\n  mstore\n    /* \"#utility.yul\":9609:9727   */\n  pop\n  pop\n  jump\t// out\n    /* \"#utility.yul\":9733:9851   */\ntag_66:\n    /* \"#utility.yul\":9820:9844   */\n  tag_183\n    /* \"#utility.yul\":9838:9843   */\n  dup2\n    /* \"#utility.yul\":9820:9844   */\n  tag_59\n  jump\t// in\ntag_183:\n    /* \"#utility.yul\":9815:9818   */\n  dup3\n    /* \"#utility.yul\":9808:9845   */\n  mstore\n    /* \"#utility.yul\":9733:9851   */\n  pop\n  pop\n  jump\t// out\n    /* \"#utility.yul\":9857:9975   */\ntag_67:\n    /* \"#utility.yul\":9944:9968   */\n  tag_185\n    /* \"#utility.yul\":9962:9967   */\n  dup2\n    /* \"#utility.yul\":9944:9968   */\n  tag_38\n  jump\t// in\ntag_185:\n    /* \"#utility.yul\":9939:9942   */\n  dup3\n    /* \"#utility.yul\":9932:9969   */\n  mstore\n    /* \"#utility.yul\":9857:9975   */\n  pop\n  pop\n  jump\t// out\n    /* \"#utility.yul\":9981:10645   */\ntag_22:\n    /* \"#utility.yul\":10186:10190   */\n  0x00\n    /* \"#utility.yul\":10224:10227   */\n  0xa0\n    /* \"#utility.yul\":10213:10222   */\n  dup3\n    /* \"#utility.yul\":10209:10228   */\n  add\n    /* \"#utility.yul\":10201:10228   */\n  swap1\n  pop\n    /* \"#utility.yul\":10238:10309   */\n  tag_187\n    /* \"#utility.yul\":10306:10307   */\n  0x00\n    /* \"#utility.yul\":10295:10304   */\n  dup4\n    /* \"#utility.yul\":10291:10308   */\n  add\n    /* \"#utility.yul\":10282:10288   */\n  dup9\n    /* \"#utility.yul\":10238:10309   */\n  tag_65\n  jump\t// in\ntag_187:\n    /* \"#utility.yul\":10319:10391   */\n  tag_188\n    /* \"#utility.yul\":10387:10389   */\n  0x20\n    /* \"#utility.yul\":10376:10385   */\n  dup4\n    /* \"#utility.yul\":10372:10390   */\n  add\n    /* \"#utility.yul\":10363:10369   */\n  dup8\n    /* \"#utility.yul\":10319:10391   */\n  tag_65\n  jump\t// in\ntag_188:\n    /* \"#utility.yul\":10401:10473   */\n  tag_189\n    /* \"#utility.yul\":10469:10471   */\n  0x40\n    /* \"#utility.yul\":10458:10467   */\n  dup4\n    /* \"#utility.yul\":10454:10472   */\n  add\n    /* \"#utility.yul\":10445:10451   */\n  dup7\n    /* \"#utility.yul\":10401:10473   */\n  tag_65\n  jump\t// in\ntag_189:\n    /* \"#utility.yul\":10483:10555   */\n  tag_190\n    /* \"#utility.yul\":10551:10553   */\n  0x60\n    /* \"#utility.yul\":10540:10549   */\n  dup4\n    /* \"#utility.yul\":10536:10554   */\n  add\n    /* \"#utility.yul\":10527:10533   */\n  dup6\n    /* \"#utility.yul\":10483:10555   */\n  tag_66\n  jump\t// in\ntag_190:\n    /* \"#utility.yul\":10565:10638   */\n  tag_191\n    /* \"#utility.yul\":10633:10636   */\n  0x80\n    /* \"#utility.yul\":10622:10631   */\n  dup4\n    /* \"#utility.yul\":10618:10637   */\n  add\n    /* \"#utility.yul\":10609:10615   */\n  dup5\n    /* \"#utility.yul\":10565:10638   */\n  tag_67\n  jump\t// in\ntag_191:\n    /* \"#utility.yul\":9981:10645   */\n  swap7\n  swap6\n  pop\n  pop\n  pop\n  pop\n  pop\n  pop\n  jump\t// out\n    /* \"SquiddyCore.sol\":143:2340  contract SquiddyCore is ERC4626 {... */\ntag_17:\n  mload(0x80)\n  mload(0xa0)\n  mload(0xc0)\n  mload(0xe0)\n  mload(0x0100)\n  mload(0x0120)\n  codecopy(0x00, dataOffset(sub_0), dataSize(sub_0))\n  0x00\n  assignImmutable(\"0xecff6a52c6af6e695c04b8c3d2fd6b0f14a301cb45125b6456951bd34c0d386d\")\n  0x00\n  assignImmutable(\"0xd28890be762f499946cbe5c973d7574b40b34800c52cf06f23bfd0c81b3d4615\")\n  0x00\n  assignImmutable(\"0xecac27c21aa9a89d7be9ad03c2d91e82cbd466284ecdf2bd5bad7f953539cc45\")\n  0x00\n  assignImmutable(\"0x880de8116b3dfac28e9ff528a9fef1d1e0a51449c1addce011ffec1f302992b6\")\n  0x00\n  assignImmutable(\"0xd67d834462ca31eaef1f30157e31659f60355143b7441e6fc7d9eae1fa79f3f8\")\n  0x00\n  assignImmutable(\"0x6585423cb6456b1d4957f6454d2f004f0c4f58d53a00082412d5c2ef4b1b31fd\")\n  return(0x00, dataSize(sub_0))\nstop\n\nsub_0: assembly {\n        /* \"SquiddyCore.sol\":143:2340  contract SquiddyCore is ERC4626 {... */\n      mstore(0x40, 0x80)\n      callvalue\n      dup1\n      iszero\n      tag_1\n      jumpi\n      0x00\n      dup1\n      revert\n    tag_1:\n      pop\n      jumpi(tag_2, lt(calldatasize, 0x04))\n      shr(0xe0, calldataload(0x00))\n      dup1\n      0x94bf804d\n      gt\n      tag_34\n      jumpi\n      dup1\n      0xc63d75b6\n      gt\n      tag_35\n      jumpi\n      dup1\n      0xd905777e\n      gt\n      tag_36\n      jumpi\n      dup1\n      0xd905777e\n      eq\n      tag_30\n      jumpi\n      dup1\n      0xdd62ed3e\n      eq\n      tag_31\n      jumpi\n      dup1\n      0xef8b30f7\n      eq\n      tag_32\n      jumpi\n      dup1\n      0xfc407ae7\n      eq\n      tag_33\n      jumpi\n      jump(tag_2)\n    tag_36:\n      dup1\n      0xc63d75b6\n      eq\n      tag_26\n      jumpi\n      dup1\n      0xc6e6f592\n      eq\n      tag_27\n      jumpi\n      dup1\n      0xce96cb77\n      eq\n      tag_28\n      jumpi\n      dup1\n      0xd505accf\n      eq\n      tag_29\n      jumpi\n      jump(tag_2)\n    tag_35:\n      dup1\n      0xb460af94\n      gt\n      tag_37\n      jumpi\n      dup1\n      0xb460af94\n      eq\n      tag_22\n      jumpi\n      dup1\n      0xba087652\n      eq\n      tag_23\n      jumpi\n      dup1\n      0xbc368a8a\n      eq\n      tag_24\n      jumpi\n      dup1\n      0xc5d664c6\n      eq\n      tag_25\n      jumpi\n      jump(tag_2)\n    tag_37:\n      dup1\n      0x94bf804d\n      eq\n      tag_18\n      jumpi\n      dup1\n      0x95d89b41\n      eq\n      tag_19\n      jumpi\n      dup1\n      0xa9059cbb\n      eq\n      tag_20\n      jumpi\n      dup1\n      0xb3d7f6b9\n      eq\n      tag_21\n      jumpi\n      jump(tag_2)\n    tag_34:\n      dup1\n      0x313ce567\n      gt\n      tag_38\n      jumpi\n      dup1\n      0x4cdad506\n      gt\n      tag_39\n      jumpi\n      dup1\n      0x4cdad506\n      eq\n      tag_14\n      jumpi\n      dup1\n      0x6e553f65\n      eq\n      tag_15\n      jumpi\n      dup1\n      0x70a08231\n      eq\n      tag_16\n      jumpi\n      dup1\n      0x7ecebe00\n      eq\n      tag_17\n      jumpi\n      jump(tag_2)\n    tag_39:\n      dup1\n      0x313ce567\n      eq\n      tag_10\n      jumpi\n      dup1\n      0x3644e515\n      eq\n      tag_11\n      jumpi\n      dup1\n      0x38d52e0f\n      eq\n      tag_12\n      jumpi\n      dup1\n      0x402d267d\n      eq\n      tag_13\n      jumpi\n      jump(tag_2)\n    tag_38:\n      dup1\n      0x095ea7b3\n      gt\n      tag_40\n      jumpi\n      dup1\n      0x095ea7b3\n      eq\n      tag_6\n      jumpi\n      dup1\n      0x0a28a477\n      eq\n      tag_7\n      jumpi\n      dup1\n      0x18160ddd\n      eq\n      tag_8\n      jumpi\n      dup1\n      0x23b872dd\n      eq\n      tag_9\n      jumpi\n      jump(tag_2)\n    tag_40:\n      dup1\n      0x01e1d114\n      eq\n      tag_3\n      jumpi\n      dup1\n      0x06fdde03\n      eq\n      tag_4\n      jumpi\n      dup1\n      0x07a2d13a\n      eq\n      tag_5\n      jumpi\n    tag_2:\n      0x00\n      dup1\n      revert\n        /* \"SquiddyCore.sol\":1789:1905  function totalAssets() public view override returns (uint256) {... */\n    tag_3:\n      tag_41\n      tag_42\n      jump\t// in\n    tag_41:\n      mload(0x40)\n      tag_43\n      swap2\n      swap1\n      tag_44\n      jump\t// in\n    tag_43:\n      mload(0x40)\n      dup1\n      swap2\n      sub\n      swap1\n      return\n        /* \"ERC20.sol\":1061:1079  string public name */\n    tag_4:\n      tag_45\n      tag_46\n      jump\t// in\n    tag_45:\n      mload(0x40)\n      tag_47\n      swap2\n      swap1\n      tag_48\n      jump\t// in\n    tag_47:\n      mload(0x40)\n      dup1\n      swap2\n      sub\n      swap1\n      return\n        /* \"ERC4626.sol\":4620:4913  function convertToAssets(uint256 shares)... */\n    tag_5:\n      tag_49\n      0x04\n      dup1\n      calldatasize\n      sub\n      dup2\n      add\n      swap1\n      tag_50\n      swap2\n      swap1\n      tag_51\n      jump\t// in\n    tag_50:\n      tag_52\n      jump\t// in\n    tag_49:\n      mload(0x40)\n      tag_53\n      swap2\n      swap1\n      tag_44\n      jump\t// in\n    tag_53:\n      mload(0x40)\n      dup1\n      swap2\n      sub\n      swap1\n      return\n        /* \"ERC20.sol\":2491:2730  function approve(address spender, uint256 amount)... */\n    tag_6:\n      tag_54\n      0x04\n      dup1\n      calldatasize\n      sub\n      dup2\n      add\n      swap1\n      tag_55\n      swap2\n      swap1\n      tag_56\n      jump\t// in\n    tag_55:\n      tag_57\n      jump\t// in\n    tag_54:\n      mload(0x40)\n      tag_58\n      swap2\n      swap1\n      tag_59\n      jump\t// in\n    tag_58:\n      mload(0x40)\n      dup1\n      swap2\n      sub\n      swap1\n      return\n        /* \"ERC4626.sol\":5343:5634  function previewWithdraw(uint256 assets)... */\n    tag_7:\n      tag_60\n      0x04\n      dup1\n      calldatasize\n      sub\n      dup2\n      add\n      swap1\n      tag_61\n      swap2\n      swap1\n      tag_51\n      jump\t// in\n    tag_61:\n      tag_62\n      jump\t// in\n    tag_60:\n      mload(0x40)\n      tag_63\n      swap2\n      swap1\n      tag_44\n      jump\t// in\n    tag_63:\n      mload(0x40)\n      dup1\n      swap2\n      sub\n      swap1\n      return\n        /* \"ERC20.sol\":1334:1360  uint256 public totalSupply */\n    tag_8:\n      tag_64\n      tag_65\n      jump\t// in\n    tag_64:\n      mload(0x40)\n      tag_66\n      swap2\n      swap1\n      tag_44\n      jump\t// in\n    tag_66:\n      mload(0x40)\n      dup1\n      swap2\n      sub\n      swap1\n      return\n        /* \"ERC20.sol\":3143:3747  function transferFrom(... */\n    tag_9:\n      tag_67\n      0x04\n      dup1\n      calldatasize\n      sub\n      dup2\n      add\n      swap1\n      tag_68\n      swap2\n      swap1\n      tag_69\n      jump\t// in\n    tag_68:\n      tag_70\n      jump\t// in\n    tag_67:\n      mload(0x40)\n      tag_71\n      swap2\n      swap1\n      tag_59\n      jump\t// in\n    tag_71:\n      mload(0x40)\n      dup1\n      swap2\n      sub\n      swap1\n      return\n        /* \"ERC20.sol\":1113:1144  uint8 public immutable decimals */\n    tag_10:\n      tag_72\n      tag_73\n      jump\t// in\n    tag_72:\n      mload(0x40)\n      tag_74\n      swap2\n      swap1\n      tag_75\n      jump\t// in\n    tag_74:\n      mload(0x40)\n      dup1\n      swap2\n      sub\n      swap1\n      return\n        /* \"ERC20.sol\":5471:5692  function DOMAIN_SEPARATOR() public view virtual returns (bytes32) {... */\n    tag_11:\n      tag_76\n      tag_77\n      jump\t// in\n    tag_76:\n      mload(0x40)\n      tag_78\n      swap2\n      swap1\n      tag_79\n      jump\t// in\n    tag_78:\n      mload(0x40)\n      dup1\n      swap2\n      sub\n      swap1\n      return\n        /* \"ERC4626.sol\":1165:1193  ERC20 public immutable asset */\n    tag_12:\n      tag_80\n      tag_81\n      jump\t// in\n    tag_80:\n      mload(0x40)\n      tag_82\n      swap2\n      swap1\n      tag_83\n      jump\t// in\n    tag_82:\n      mload(0x40)\n      dup1\n      swap2\n      sub\n      swap1\n      return\n        /* \"ERC4626.sol\":5997:6105  function maxDeposit(address) public view virtual returns (uint256) {... */\n    tag_13:\n      tag_84\n      0x04\n      dup1\n      calldatasize\n      sub\n      dup2\n      add\n      swap1\n      tag_85\n      swap2\n      swap1\n      tag_86\n      jump\t// in\n    tag_85:\n      tag_87\n      jump\t// in\n    tag_84:\n      mload(0x40)\n      tag_88\n      swap2\n      swap1\n      tag_44\n      jump\t// in\n    tag_88:\n      mload(0x40)\n      dup1\n      swap2\n      sub\n      swap1\n      return\n        /* \"ERC4626.sol\":5640:5800  function previewRedeem(uint256 shares)... */\n    tag_14:\n      tag_89\n      0x04\n      dup1\n      calldatasize\n      sub\n      dup2\n      add\n      swap1\n      tag_90\n      swap2\n      swap1\n      tag_51\n      jump\t// in\n    tag_90:\n      tag_91\n      jump\t// in\n    tag_89:\n      mload(0x40)\n      tag_92\n      swap2\n      swap1\n      tag_44\n      jump\t// in\n    tag_92:\n      mload(0x40)\n      dup1\n      swap2\n      sub\n      swap1\n      return\n        /* \"ERC4626.sol\":1583:2127  function deposit(uint256 assets, address receiver)... */\n    tag_15:\n      tag_93\n      0x04\n      dup1\n      calldatasize\n      sub\n      dup2\n      add\n      swap1\n      tag_94\n      swap2\n      swap1\n      tag_95\n      jump\t// in\n    tag_94:\n      tag_96\n      jump\t// in\n    tag_93:\n      mload(0x40)\n      tag_97\n      swap2\n      swap1\n      tag_44\n      jump\t// in\n    tag_97:\n      mload(0x40)\n      dup1\n      swap2\n      sub\n      swap1\n      return\n        /* \"ERC20.sol\":1367:1411  mapping(address => uint256) public balanceOf */\n    tag_16:\n      tag_98\n      0x04\n      dup1\n      calldatasize\n      sub\n      dup2\n      add\n      swap1\n      tag_99\n      swap2\n      swap1\n      tag_86\n      jump\t// in\n    tag_99:\n      tag_100\n      jump\t// in\n    tag_98:\n      mload(0x40)\n      tag_101\n      swap2\n      swap1\n      tag_44\n      jump\t// in\n    tag_101:\n      mload(0x40)\n      dup1\n      swap2\n      sub\n      swap1\n      return\n        /* \"ERC20.sol\":1781:1822  mapping(address => uint256) public nonces */\n    tag_17:\n      tag_102\n      0x04\n      dup1\n      calldatasize\n      sub\n      dup2\n      add\n      swap1\n      tag_103\n      swap2\n      swap1\n      tag_86\n      jump\t// in\n    tag_103:\n      tag_104\n      jump\t// in\n    tag_102:\n      mload(0x40)\n      tag_105\n      swap2\n      swap1\n      tag_44\n      jump\t// in\n    tag_105:\n      mload(0x40)\n      dup1\n      swap2\n      sub\n      swap1\n      return\n        /* \"ERC4626.sol\":2133:2628  function mint(uint256 shares, address receiver)... */\n    tag_18:\n      tag_106\n      0x04\n      dup1\n      calldatasize\n      sub\n      dup2\n      add\n      swap1\n      tag_107\n      swap2\n      swap1\n      tag_95\n      jump\t// in\n    tag_107:\n      tag_108\n      jump\t// in\n    tag_106:\n      mload(0x40)\n      tag_109\n      swap2\n      swap1\n      tag_44\n      jump\t// in\n    tag_109:\n      mload(0x40)\n      dup1\n      swap2\n      sub\n      swap1\n      return\n        /* \"ERC20.sol\":1086:1106  string public symbol */\n    tag_19:\n      tag_110\n      tag_111\n      jump\t// in\n    tag_110:\n      mload(0x40)\n      tag_112\n      swap2\n      swap1\n      tag_48\n      jump\t// in\n    tag_112:\n      mload(0x40)\n      dup1\n      swap2\n      sub\n      swap1\n      return\n        /* \"ERC20.sol\":2736:3137  function transfer(address to, uint256 amount)... */\n    tag_20:\n      tag_113\n      0x04\n      dup1\n      calldatasize\n      sub\n      dup2\n      add\n      swap1\n      tag_114\n      swap2\n      swap1\n      tag_56\n      jump\t// in\n    tag_114:\n      tag_115\n      jump\t// in\n    tag_113:\n      mload(0x40)\n      tag_116\n      swap2\n      swap1\n      tag_59\n      jump\t// in\n    tag_116:\n      mload(0x40)\n      dup1\n      swap2\n      sub\n      swap1\n      return\n        /* \"ERC4626.sol\":5086:5337  function previewMint(uint256 shares) public view virtual returns (uint256) {... */\n    tag_21:\n      tag_117\n      0x04\n      dup1\n      calldatasize\n      sub\n      dup2\n      add\n      swap1\n      tag_118\n      swap2\n      swap1\n      tag_51\n      jump\t// in\n    tag_118:\n      tag_119\n      jump\t// in\n    tag_117:\n      mload(0x40)\n      tag_120\n      swap2\n      swap1\n      tag_44\n      jump\t// in\n    tag_120:\n      mload(0x40)\n      dup1\n      swap2\n      sub\n      swap1\n      return\n        /* \"ERC4626.sol\":2634:3329  function withdraw(... */\n    tag_22:\n      tag_121\n      0x04\n      dup1\n      calldatasize\n      sub\n      dup2\n      add\n      swap1\n      tag_122\n      swap2\n      swap1\n      tag_123\n      jump\t// in\n    tag_122:\n      tag_124\n      jump\t// in\n    tag_121:\n      mload(0x40)\n      tag_125\n      swap2\n      swap1\n      tag_44\n      jump\t// in\n    tag_125:\n      mload(0x40)\n      dup1\n      swap2\n      sub\n      swap1\n      return\n        /* \"ERC4626.sol\":3335:4064  function redeem(... */\n    tag_23:\n      tag_126\n      0x04\n      dup1\n      calldatasize\n      sub\n      dup2\n      add\n      swap1\n      tag_127\n      swap2\n      swap1\n      tag_123\n      jump\t// in\n    tag_127:\n      tag_128\n      jump\t// in\n    tag_126:\n      mload(0x40)\n      tag_129\n      swap2\n      swap1\n      tag_44\n      jump\t// in\n    tag_129:\n      mload(0x40)\n      dup1\n      swap2\n      sub\n      swap1\n      return\n        /* \"SquiddyCore.sol\":181:231  uint256 public beforeWithdrawHookCalledCounter = 0 */\n    tag_24:\n      tag_130\n      tag_131\n      jump\t// in\n    tag_130:\n      mload(0x40)\n      tag_132\n      swap2\n      swap1\n      tag_44\n      jump\t// in\n    tag_132:\n      mload(0x40)\n      dup1\n      swap2\n      sub\n      swap1\n      return\n        /* \"SquiddyCore.sol\":1098:1131  ERC20 public immutable UNDERLYING */\n    tag_25:\n      tag_133\n      tag_134\n      jump\t// in\n    tag_133:\n      mload(0x40)\n      tag_135\n      swap2\n      swap1\n      tag_83\n      jump\t// in\n    tag_135:\n      mload(0x40)\n      dup1\n      swap2\n      sub\n      swap1\n      return\n        /* \"ERC4626.sol\":6111:6216  function maxMint(address) public view virtual returns (uint256) {... */\n    tag_26:\n      tag_136\n      0x04\n      dup1\n      calldatasize\n      sub\n      dup2\n      add\n      swap1\n      tag_137\n      swap2\n      swap1\n      tag_86\n      jump\t// in\n    tag_137:\n      tag_138\n      jump\t// in\n    tag_136:\n      mload(0x40)\n      tag_139\n      swap2\n      swap1\n      tag_44\n      jump\t// in\n    tag_139:\n      mload(0x40)\n      dup1\n      swap2\n      sub\n      swap1\n      return\n        /* \"ERC4626.sol\":4321:4614  function convertToShares(uint256 assets)... */\n    tag_27:\n      tag_140\n      0x04\n      dup1\n      calldatasize\n      sub\n      dup2\n      add\n      swap1\n      tag_141\n      swap2\n      swap1\n      tag_51\n      jump\t// in\n    tag_141:\n      tag_142\n      jump\t// in\n    tag_140:\n      mload(0x40)\n      tag_143\n      swap2\n      swap1\n      tag_44\n      jump\t// in\n    tag_143:\n      mload(0x40)\n      dup1\n      swap2\n      sub\n      swap1\n      return\n        /* \"ERC4626.sol\":6222:6353  function maxWithdraw(address owner) public view virtual returns (uint256) {... */\n    tag_28:\n      tag_144\n      0x04\n      dup1\n      calldatasize\n      sub\n      dup2\n      add\n      swap1\n      tag_145\n      swap2\n      swap1\n      tag_86\n      jump\t// in\n    tag_145:\n      tag_146\n      jump\t// in\n    tag_144:\n      mload(0x40)\n      tag_147\n      swap2\n      swap1\n      tag_44\n      jump\t// in\n    tag_147:\n      mload(0x40)\n      dup1\n      swap2\n      sub\n      swap1\n      return\n        /* \"ERC20.sol\":3936:5465  function permit(... */\n    tag_29:\n      tag_148\n      0x04\n      dup1\n      calldatasize\n      sub\n      dup2\n      add\n      swap1\n      tag_149\n      swap2\n      swap1\n      tag_150\n      jump\t// in\n    tag_149:\n      tag_151\n      jump\t// in\n    tag_148:\n      stop\n        /* \"ERC4626.sol\":6359:6471  function maxRedeem(address owner) public view virtual returns (uint256) {... */\n    tag_30:\n      tag_152\n      0x04\n      dup1\n      calldatasize\n      sub\n      dup2\n      add\n      swap1\n      tag_153\n      swap2\n      swap1\n      tag_86\n      jump\t// in\n    tag_153:\n      tag_154\n      jump\t// in\n    tag_152:\n      mload(0x40)\n      tag_155\n      swap2\n      swap1\n      tag_44\n      jump\t// in\n    tag_155:\n      mload(0x40)\n      dup1\n      swap2\n      sub\n      swap1\n      return\n        /* \"ERC20.sol\":1418:1482  mapping(address => mapping(address => uint256)) public allowance */\n    tag_31:\n      tag_156\n      0x04\n      dup1\n      calldatasize\n      sub\n      dup2\n      add\n      swap1\n      tag_157\n      swap2\n      swap1\n      tag_158\n      jump\t// in\n    tag_157:\n      tag_159\n      jump\t// in\n    tag_156:\n      mload(0x40)\n      tag_160\n      swap2\n      swap1\n      tag_44\n      jump\t// in\n    tag_160:\n      mload(0x40)\n      dup1\n      swap2\n      sub\n      swap1\n      return\n        /* \"ERC4626.sol\":4919:5080  function previewDeposit(uint256 assets)... */\n    tag_32:\n      tag_161\n      0x04\n      dup1\n      calldatasize\n      sub\n      dup2\n      add\n      swap1\n      tag_162\n      swap2\n      swap1\n      tag_51\n      jump\t// in\n    tag_162:\n      tag_163\n      jump\t// in\n    tag_161:\n      mload(0x40)\n      tag_164\n      swap2\n      swap1\n      tag_44\n      jump\t// in\n    tag_164:\n      mload(0x40)\n      dup1\n      swap2\n      sub\n      swap1\n      return\n        /* \"SquiddyCore.sol\":237:285  uint256 public afterDepositHookCalledCounter = 0 */\n    tag_33:\n      tag_165\n      tag_166\n      jump\t// in\n    tag_165:\n      mload(0x40)\n      tag_167\n      swap2\n      swap1\n      tag_44\n      jump\t// in\n    tag_167:\n      mload(0x40)\n      dup1\n      swap2\n      sub\n      swap1\n      return\n        /* \"SquiddyCore.sol\":1789:1905  function totalAssets() public view override returns (uint256) {... */\n    tag_42:\n        /* \"SquiddyCore.sol\":1842:1849  uint256 */\n      0x00\n        /* \"SquiddyCore.sol\":1868:1873  asset */\n      immutable(\"0xecac27c21aa9a89d7be9ad03c2d91e82cbd466284ecdf2bd5bad7f953539cc45\")\n        /* \"SquiddyCore.sol\":1868:1883  asset.balanceOf */\n      0xffffffffffffffffffffffffffffffffffffffff\n      and\n      0x70a08231\n        /* \"SquiddyCore.sol\":1892:1896  this */\n      address\n        /* \"SquiddyCore.sol\":1868:1898  asset.balanceOf(address(this)) */\n      mload(0x40)\n      dup3\n      0xffffffff\n      and\n      0xe0\n      shl\n      dup2\n      mstore\n      0x04\n      add\n      tag_169\n      swap2\n      swap1\n      tag_170\n      jump\t// in\n    tag_169:\n      0x20\n      mload(0x40)\n      dup1\n      dup4\n      sub\n      dup2\n      dup7\n      gas\n      staticcall\n      iszero\n      dup1\n      iszero\n      tag_172\n      jumpi\n      returndatasize\n      0x00\n      dup1\n      returndatacopy\n      revert(0x00, returndatasize)\n    tag_172:\n      pop\n      pop\n      pop\n      pop\n      mload(0x40)\n      returndatasize\n      not(0x1f)\n      0x1f\n      dup3\n      add\n      and\n      dup3\n      add\n      dup1\n      0x40\n      mstore\n      pop\n      dup2\n      add\n      swap1\n      tag_173\n      swap2\n      swap1\n      tag_174\n      jump\t// in\n    tag_173:\n        /* \"SquiddyCore.sol\":1861:1898  return asset.balanceOf(address(this)) */\n      swap1\n      pop\n        /* \"SquiddyCore.sol\":1789:1905  function totalAssets() public view override returns (uint256) {... */\n      swap1\n      jump\t// out\n        /* \"ERC20.sol\":1061:1079  string public name */\n    tag_46:\n      0x00\n      dup1\n      sload\n      tag_175\n      swap1\n      tag_176\n      jump\t// in\n    tag_175:\n      dup1\n      0x1f\n      add\n      0x20\n      dup1\n      swap2\n      div\n      mul\n      0x20\n      add\n      mload(0x40)\n      swap1\n      dup2\n      add\n      0x40\n      mstore\n      dup1\n      swap3\n      swap2\n      swap1\n      dup2\n      dup2\n      mstore\n      0x20\n      add\n      dup3\n      dup1\n      sload\n      tag_177\n      swap1\n      tag_176\n      jump\t// in\n    tag_177:\n      dup1\n      iszero\n      tag_178\n      jumpi\n      dup1\n      0x1f\n      lt\n      tag_179\n      jumpi\n      0x0100\n      dup1\n      dup4\n      sload\n      div\n      mul\n      dup4\n      mstore\n      swap2\n      0x20\n      add\n      swap2\n      jump(tag_178)\n    tag_179:\n      dup3\n      add\n      swap2\n      swap1\n      0x00\n      mstore\n      keccak256(0x00, 0x20)\n      swap1\n    tag_180:\n      dup2\n      sload\n      dup2\n      mstore\n      swap1\n      0x01\n      add\n      swap1\n      0x20\n      add\n      dup1\n      dup4\n      gt\n      tag_180\n      jumpi\n      dup3\n      swap1\n      sub\n      0x1f\n      and\n      dup3\n      add\n      swap2\n    tag_178:\n      pop\n      pop\n      pop\n      pop\n      pop\n      dup2\n      jump\t// out\n        /* \"ERC4626.sol\":4620:4913  function convertToAssets(uint256 shares)... */\n    tag_52:\n        /* \"ERC4626.sol\":4722:4729  uint256 */\n      0x00\n        /* \"ERC4626.sol\":4745:4759  uint256 supply */\n      dup1\n        /* \"ERC4626.sol\":4762:4773  totalSupply */\n      sload(0x02)\n        /* \"ERC4626.sol\":4745:4773  uint256 supply = totalSupply */\n      swap1\n      pop\n        /* \"ERC4626.sol\":4853:4854  0 */\n      0x00\n        /* \"ERC4626.sol\":4843:4849  supply */\n      dup2\n        /* \"ERC4626.sol\":4843:4854  supply == 0 */\n      eq\n        /* \"ERC4626.sol\":4843:4906  supply == 0 ? shares : shares.mulDivDown(totalAssets(), supply) */\n      tag_182\n      jumpi\n        /* \"ERC4626.sol\":4866:4906  shares.mulDivDown(totalAssets(), supply) */\n      tag_183\n        /* \"ERC4626.sol\":4884:4897  totalAssets() */\n      tag_184\n        /* \"ERC4626.sol\":4884:4895  totalAssets */\n      tag_42\n        /* \"ERC4626.sol\":4884:4897  totalAssets() */\n      jump\t// in\n    tag_184:\n        /* \"ERC4626.sol\":4899:4905  supply */\n      dup3\n        /* \"ERC4626.sol\":4866:4872  shares */\n      dup6\n        /* \"ERC4626.sol\":4866:4883  shares.mulDivDown */\n      tag_185\n      swap1\n        /* \"ERC4626.sol\":4866:4906  shares.mulDivDown(totalAssets(), supply) */\n      swap3\n      swap2\n      swap1\n      0xffffffff\n      and\n      jump\t// in\n    tag_183:\n        /* \"ERC4626.sol\":4843:4906  supply == 0 ? shares : shares.mulDivDown(totalAssets(), supply) */\n      jump(tag_186)\n    tag_182:\n        /* \"ERC4626.sol\":4857:4863  shares */\n      dup3\n        /* \"ERC4626.sol\":4843:4906  supply == 0 ? shares : shares.mulDivDown(totalAssets(), supply) */\n    tag_186:\n        /* \"ERC4626.sol\":4836:4906  return supply == 0 ? shares : shares.mulDivDown(totalAssets(), supply) */\n      swap2\n      pop\n      pop\n        /* \"ERC4626.sol\":4620:4913  function convertToAssets(uint256 shares)... */\n      swap2\n      swap1\n      pop\n      jump\t// out\n        /* \"ERC20.sol\":2491:2730  function approve(address spender, uint256 amount)... */\n    tag_57:\n        /* \"ERC20.sol\":2589:2593  bool */\n      0x00\n        /* \"ERC20.sol\":2642:2648  amount */\n      dup2\n        /* \"ERC20.sol\":2609:2618  allowance */\n      0x04\n        /* \"ERC20.sol\":2609:2630  allowance[msg.sender] */\n      0x00\n        /* \"ERC20.sol\":2619:2629  msg.sender */\n      caller\n        /* \"ERC20.sol\":2609:2630  allowance[msg.sender] */\n      0xffffffffffffffffffffffffffffffffffffffff\n      and\n      0xffffffffffffffffffffffffffffffffffffffff\n      and\n      dup2\n      mstore\n      0x20\n      add\n      swap1\n      dup2\n      mstore\n      0x20\n      add\n      0x00\n      keccak256\n        /* \"ERC20.sol\":2609:2639  allowance[msg.sender][spender] */\n      0x00\n        /* \"ERC20.sol\":2631:2638  spender */\n      dup6\n        /* \"ERC20.sol\":2609:2639  allowance[msg.sender][spender] */\n      0xffffffffffffffffffffffffffffffffffffffff\n      and\n      0xffffffffffffffffffffffffffffffffffffffff\n      and\n      dup2\n      mstore\n      0x20\n      add\n      swap1\n      dup2\n      mstore\n      0x20\n      add\n      0x00\n      keccak256\n        /* \"ERC20.sol\":2609:2648  allowance[msg.sender][spender] = amount */\n      dup2\n      swap1\n      sstore\n      pop\n        /* \"ERC20.sol\":2685:2692  spender */\n      dup3\n        /* \"ERC20.sol\":2664:2701  Approval(msg.sender, spender, amount) */\n      0xffffffffffffffffffffffffffffffffffffffff\n      and\n        /* \"ERC20.sol\":2673:2683  msg.sender */\n      caller\n        /* \"ERC20.sol\":2664:2701  Approval(msg.sender, spender, amount) */\n      0xffffffffffffffffffffffffffffffffffffffff\n      and\n      0x8c5be1e5ebec7d5bd14f71427d1e84f3dd0314c0f7b2291e5b200ac8c7c3b925\n        /* \"ERC20.sol\":2694:2700  amount */\n      dup5\n        /* \"ERC20.sol\":2664:2701  Approval(msg.sender, spender, amount) */\n      mload(0x40)\n      tag_188\n      swap2\n      swap1\n      tag_44\n      jump\t// in\n    tag_188:\n      mload(0x40)\n      dup1\n      swap2\n      sub\n      swap1\n      log3\n        /* \"ERC20.sol\":2719:2723  true */\n      0x01\n        /* \"ERC20.sol\":2712:2723  return true */\n      swap1\n      pop\n        /* \"ERC20.sol\":2491:2730  function approve(address spender, uint256 amount)... */\n      swap3\n      swap2\n      pop\n      pop\n      jump\t// out\n        /* \"ERC4626.sol\":5343:5634  function previewWithdraw(uint256 assets)... */\n    tag_62:\n        /* \"ERC4626.sol\":5445:5452  uint256 */\n      0x00\n        /* \"ERC4626.sol\":5468:5482  uint256 supply */\n      dup1\n        /* \"ERC4626.sol\":5485:5496  totalSupply */\n      sload(0x02)\n        /* \"ERC4626.sol\":5468:5496  uint256 supply = totalSupply */\n      swap1\n      pop\n        /* \"ERC4626.sol\":5576:5577  0 */\n      0x00\n        /* \"ERC4626.sol\":5566:5572  supply */\n      dup2\n        /* \"ERC4626.sol\":5566:5577  supply == 0 */\n      eq\n        /* \"ERC4626.sol\":5566:5627  supply == 0 ? assets : assets.mulDivUp(supply, totalAssets()) */\n      tag_190\n      jumpi\n        /* \"ERC4626.sol\":5589:5627  assets.mulDivUp(supply, totalAssets()) */\n      tag_191\n        /* \"ERC4626.sol\":5605:5611  supply */\n      dup2\n        /* \"ERC4626.sol\":5613:5626  totalAssets() */\n      tag_192\n        /* \"ERC4626.sol\":5613:5624  totalAssets */\n      tag_42\n        /* \"ERC4626.sol\":5613:5626  totalAssets() */\n      jump\t// in\n    tag_192:\n        /* \"ERC4626.sol\":5589:5595  assets */\n      dup6\n        /* \"ERC4626.sol\":5589:5604  assets.mulDivUp */\n      tag_193\n      swap1\n        /* \"ERC4626.sol\":5589:5627  assets.mulDivUp(supply, totalAssets()) */\n      swap3\n      swap2\n      swap1\n      0xffffffff\n      and\n      jump\t// in\n    tag_191:\n        /* \"ERC4626.sol\":5566:5627  supply == 0 ? assets : assets.mulDivUp(supply, totalAssets()) */\n      jump(tag_194)\n    tag_190:\n        /* \"ERC4626.sol\":5580:5586  assets */\n      dup3\n        /* \"ERC4626.sol\":5566:5627  supply == 0 ? assets : assets.mulDivUp(supply, totalAssets()) */\n    tag_194:\n        /* \"ERC4626.sol\":5559:5627  return supply == 0 ? assets : assets.mulDivUp(supply, totalAssets()) */\n      swap2\n      pop\n      pop\n        /* \"ERC4626.sol\":5343:5634  function previewWithdraw(uint256 assets)... */\n      swap2\n      swap1\n      pop\n      jump\t// out\n        /* \"ERC20.sol\":1334:1360  uint256 public totalSupply */\n    tag_65:\n      sload(0x02)\n      dup2\n      jump\t// out\n        /* \"ERC20.sol\":3143:3747  function transferFrom(... */\n    tag_70:\n        /* \"ERC20.sol\":3261:3265  bool */\n      0x00\n        /* \"ERC20.sol\":3277:3292  uint256 allowed */\n      dup1\n        /* \"ERC20.sol\":3295:3304  allowance */\n      0x04\n        /* \"ERC20.sol\":3295:3310  allowance[from] */\n      0x00\n        /* \"ERC20.sol\":3305:3309  from */\n      dup7\n        /* \"ERC20.sol\":3295:3310  allowance[from] */\n      0xffffffffffffffffffffffffffffffffffffffff\n      and\n      0xffffffffffffffffffffffffffffffffffffffff\n      and\n      dup2\n      mstore\n      0x20\n      add\n      swap1\n      dup2\n      mstore\n      0x20\n      add\n      0x00\n      keccak256\n        /* \"ERC20.sol\":3295:3322  allowance[from][msg.sender] */\n      0x00\n        /* \"ERC20.sol\":3311:3321  msg.sender */\n      caller\n        /* \"ERC20.sol\":3295:3322  allowance[from][msg.sender] */\n      0xffffffffffffffffffffffffffffffffffffffff\n      and\n      0xffffffffffffffffffffffffffffffffffffffff\n      and\n      dup2\n      mstore\n      0x20\n      add\n      swap1\n      dup2\n      mstore\n      0x20\n      add\n      0x00\n      keccak256\n      sload\n        /* \"ERC20.sol\":3277:3322  uint256 allowed = allowance[from][msg.sender] */\n      swap1\n      pop\n        /* \"ERC20.sol\":3384:3401  type(uint256).max */\n      0xffffffffffffffffffffffffffffffffffffffffffffffffffffffffffffffff\n        /* \"ERC20.sol\":3373:3380  allowed */\n      dup2\n        /* \"ERC20.sol\":3373:3401  allowed != type(uint256).max */\n      eq\n        /* \"ERC20.sol\":3369:3461  if (allowed != type(uint256).max)... */\n      tag_196\n      jumpi\n        /* \"ERC20.sol\":3455:3461  amount */\n      dup3\n        /* \"ERC20.sol\":3445:3452  allowed */\n      dup2\n        /* \"ERC20.sol\":3445:3461  allowed - amount */\n      tag_197\n      swap2\n      swap1\n      tag_198\n      jump\t// in\n    tag_197:\n        /* \"ERC20.sol\":3415:3424  allowance */\n      0x04\n        /* \"ERC20.sol\":3415:3430  allowance[from] */\n      0x00\n        /* \"ERC20.sol\":3425:3429  from */\n      dup8\n        /* \"ERC20.sol\":3415:3430  allowance[from] */\n      0xffffffffffffffffffffffffffffffffffffffff\n      and\n      0xffffffffffffffffffffffffffffffffffffffff\n      and\n      dup2\n      mstore\n      0x20\n      add\n      swap1\n      dup2\n      mstore\n      0x20\n      add\n      0x00\n      keccak256\n        /* \"ERC20.sol\":3415:3442  allowance[from][msg.sender] */\n      0x00\n        /* \"ERC20.sol\":3431:3441  msg.sender */\n      caller\n        /* \"ERC20.sol\":3415:3442  allowance[from][msg.sender] */\n      0xffffffffffffffffffffffffffffffffffffffff\n      and\n      0xffffffffffffffffffffffffffffffffffffffff\n      and\n      dup2\n      mstore\n      0x20\n      add\n      swap1\n      dup2\n      mstore\n      0x20\n      add\n      0x00\n      keccak256\n        /* \"ERC20.sol\":3415:3461  allowance[from][msg.sender] = allowed - amount */\n      dup2\n      swap1\n      sstore\n      pop\n        /* \"ERC20.sol\":3369:3461  if (allowed != type(uint256).max)... */\n    tag_196:\n        /* \"ERC20.sol\":3491:3497  amount */\n      dup3\n        /* \"ERC20.sol\":3472:3481  balanceOf */\n      0x03\n        /* \"ERC20.sol\":3472:3487  balanceOf[from] */\n      0x00\n        /* \"ERC20.sol\":3482:3486  from */\n      dup8\n        /* \"ERC20.sol\":3472:3487  balanceOf[from] */\n      0xffffffffffffffffffffffffffffffffffffffff\n      and\n      0xffffffffffffffffffffffffffffffffffffffff\n      and\n      dup2\n      mstore\n      0x20\n      add\n      swap1\n      dup2\n      mstore\n      0x20\n      add\n      0x00\n      keccak256\n      0x00\n        /* \"ERC20.sol\":3472:3497  balanceOf[from] -= amount */\n      dup3\n      dup3\n      sload\n      tag_199\n      swap2\n      swap1\n      tag_198\n      jump\t// in\n    tag_199:\n      swap3\n      pop\n      pop\n      dup2\n      swap1\n      sstore\n      pop\n        /* \"ERC20.sol\":3660:3666  amount */\n      dup3\n        /* \"ERC20.sol\":3643:3652  balanceOf */\n      0x03\n        /* \"ERC20.sol\":3643:3656  balanceOf[to] */\n      0x00\n        /* \"ERC20.sol\":3653:3655  to */\n      dup7\n        /* \"ERC20.sol\":3643:3656  balanceOf[to] */\n      0xffffffffffffffffffffffffffffffffffffffff\n      and\n      0xffffffffffffffffffffffffffffffffffffffff\n      and\n      dup2\n      mstore\n      0x20\n      add\n      swap1\n      dup2\n      mstore\n      0x20\n      add\n      0x00\n      keccak256\n      0x00\n        /* \"ERC20.sol\":3643:3666  balanceOf[to] += amount */\n      dup3\n      dup3\n      sload\n      add\n      swap3\n      pop\n      pop\n      dup2\n      swap1\n      sstore\n      pop\n        /* \"ERC20.sol\":3707:3709  to */\n      dup4\n        /* \"ERC20.sol\":3692:3718  Transfer(from, to, amount) */\n      0xffffffffffffffffffffffffffffffffffffffff\n      and\n        /* \"ERC20.sol\":3701:3705  from */\n      dup6\n        /* \"ERC20.sol\":3692:3718  Transfer(from, to, amount) */\n      0xffffffffffffffffffffffffffffffffffffffff\n      and\n      0xddf252ad1be2c89b69c2b068fc378daa952ba7f163c4a11628f55a4df523b3ef\n        /* \"ERC20.sol\":3711:3717  amount */\n      dup6\n        /* \"ERC20.sol\":3692:3718  Transfer(from, to, amount) */\n      mload(0x40)\n      tag_200\n      swap2\n      swap1\n      tag_44\n      jump\t// in\n    tag_200:\n      mload(0x40)\n      dup1\n      swap2\n      sub\n      swap1\n      log3\n        /* \"ERC20.sol\":3736:3740  true */\n      0x01\n        /* \"ERC20.sol\":3729:3740  return true */\n      swap2\n      pop\n      pop\n        /* \"ERC20.sol\":3143:3747  function transferFrom(... */\n      swap4\n      swap3\n      pop\n      pop\n      pop\n      jump\t// out\n        /* \"ERC20.sol\":1113:1144  uint8 public immutable decimals */\n    tag_73:\n      immutable(\"0x6585423cb6456b1d4957f6454d2f004f0c4f58d53a00082412d5c2ef4b1b31fd\")\n      dup2\n      jump\t// out\n        /* \"ERC20.sol\":5471:5692  function DOMAIN_SEPARATOR() public view virtual returns (bytes32) {... */\n    tag_77:\n        /* \"ERC20.sol\":5528:5535  bytes32 */\n      0x00\n        /* \"ERC20.sol\":5583:5599  INITIAL_CHAIN_ID */\n      immutable(\"0xd67d834462ca31eaef1f30157e31659f60355143b7441e6fc7d9eae1fa79f3f8\")\n        /* \"ERC20.sol\":5566:5579  block.chainid */\n      chainid\n        /* \"ERC20.sol\":5566:5599  block.chainid == INITIAL_CHAIN_ID */\n      eq\n        /* \"ERC20.sol\":5566:5685  block.chainid == INITIAL_CHAIN_ID... */\n      tag_202\n      jumpi\n        /* \"ERC20.sol\":5661:5685  computeDomainSeparator() */\n      tag_203\n        /* \"ERC20.sol\":5661:5683  computeDomainSeparator */\n      tag_204\n        /* \"ERC20.sol\":5661:5685  computeDomainSeparator() */\n      jump\t// in\n    tag_203:\n        /* \"ERC20.sol\":5566:5685  block.chainid == INITIAL_CHAIN_ID... */\n      jump(tag_205)\n    tag_202:\n        /* \"ERC20.sol\":5618:5642  INITIAL_DOMAIN_SEPARATOR */\n      immutable(\"0x880de8116b3dfac28e9ff528a9fef1d1e0a51449c1addce011ffec1f302992b6\")\n        /* \"ERC20.sol\":5566:5685  block.chainid == INITIAL_CHAIN_ID... */\n    tag_205:\n        /* \"ERC20.sol\":5547:5685  return... */\n      swap1\n      pop\n        /* \"ERC20.sol\":5471:5692  function DOMAIN_SEPARATOR() public view virtual returns (bytes32) {... */\n      swap1\n      jump\t// out\n        /* \"ERC4626.sol\":1165:1193  ERC20 public immutable asset */\n    tag_81:\n      immutable(\"0xecac27c21aa9a89d7be9ad03c2d91e82cbd466284ecdf2bd5bad7f953539cc45\")\n      dup2\n      jump\t// out\n        /* \"ERC4626.sol\":5997:6105  function maxDeposit(address) public view virtual returns (uint256) {... */\n    tag_87:\n        /* \"ERC4626.sol\":6055:6062  uint256 */\n      0x00\n        /* \"ERC4626.sol\":6081:6098  type(uint256).max */\n      0xffffffffffffffffffffffffffffffffffffffffffffffffffffffffffffffff\n        /* \"ERC4626.sol\":6074:6098  return type(uint256).max */\n      swap1\n      pop\n        /* \"ERC4626.sol\":5997:6105  function maxDeposit(address) public view virtual returns (uint256) {... */\n      swap2\n      swap1\n      pop\n      jump\t// out\n        /* \"ERC4626.sol\":5640:5800  function previewRedeem(uint256 shares)... */\n    tag_91:\n        /* \"ERC4626.sol\":5740:5747  uint256 */\n      0x00\n        /* \"ERC4626.sol\":5770:5793  convertToAssets(shares) */\n      tag_208\n        /* \"ERC4626.sol\":5786:5792  shares */\n      dup3\n        /* \"ERC4626.sol\":5770:5785  convertToAssets */\n      tag_52\n        /* \"ERC4626.sol\":5770:5793  convertToAssets(shares) */\n      jump\t// in\n    tag_208:\n        /* \"ERC4626.sol\":5763:5793  return convertToAssets(shares) */\n      swap1\n      pop\n        /* \"ERC4626.sol\":5640:5800  function previewRedeem(uint256 shares)... */\n      swap2\n      swap1\n      pop\n      jump\t// out\n        /* \"ERC4626.sol\":1583:2127  function deposit(uint256 assets, address receiver)... */\n    tag_96:\n        /* \"ERC4626.sol\":1682:1696  uint256 shares */\n      0x00\n        /* \"ERC4626.sol\":1832:1833  0 */\n      dup1\n        /* \"ERC4626.sol\":1805:1827  previewDeposit(assets) */\n      tag_210\n        /* \"ERC4626.sol\":1820:1826  assets */\n      dup5\n        /* \"ERC4626.sol\":1805:1819  previewDeposit */\n      tag_163\n        /* \"ERC4626.sol\":1805:1827  previewDeposit(assets) */\n      jump\t// in\n    tag_210:\n        /* \"ERC4626.sol\":1796:1827  shares = previewDeposit(assets) */\n      swap2\n      pop\n      dup2\n        /* \"ERC4626.sol\":1795:1833  (shares = previewDeposit(assets)) != 0 */\n      eq\n      iszero\n        /* \"ERC4626.sol\":1787:1849  require((shares = previewDeposit(assets)) != 0, \"ZERO_SHARES\") */\n      tag_211\n      jumpi\n      mload(0x40)\n      0x08c379a000000000000000000000000000000000000000000000000000000000\n      dup2\n      mstore\n      0x04\n      add\n      tag_212\n      swap1\n      tag_213\n      jump\t// in\n    tag_212:\n      mload(0x40)\n      dup1\n      swap2\n      sub\n      swap1\n      revert\n    tag_211:\n        /* \"ERC4626.sol\":1929:1986  asset.safeTransferFrom(msg.sender, address(this), assets) */\n      tag_214\n        /* \"ERC4626.sol\":1952:1962  msg.sender */\n      caller\n        /* \"ERC4626.sol\":1972:1976  this */\n      address\n        /* \"ERC4626.sol\":1979:1985  assets */\n      dup6\n        /* \"ERC4626.sol\":1929:1934  asset */\n      immutable(\"0xecac27c21aa9a89d7be9ad03c2d91e82cbd466284ecdf2bd5bad7f953539cc45\")\n        /* \"ERC4626.sol\":1929:1951  asset.safeTransferFrom */\n      0xffffffffffffffffffffffffffffffffffffffff\n      and\n      tag_215\n      swap1\n        /* \"ERC4626.sol\":1929:1986  asset.safeTransferFrom(msg.sender, address(this), assets) */\n      swap4\n      swap3\n      swap2\n      swap1\n      0xffffffff\n      and\n      jump\t// in\n    tag_214:\n        /* \"ERC4626.sol\":1997:2020  _mint(receiver, shares) */\n      tag_216\n        /* \"ERC4626.sol\":2003:2011  receiver */\n      dup3\n        /* \"ERC4626.sol\":2013:2019  shares */\n      dup3\n        /* \"ERC4626.sol\":1997:2002  _mint */\n      tag_217\n        /* \"ERC4626.sol\":1997:2020  _mint(receiver, shares) */\n      jump\t// in\n    tag_216:\n        /* \"ERC4626.sol\":2056:2064  receiver */\n      dup2\n        /* \"ERC4626.sol\":2036:2081  Deposit(msg.sender, receiver, assets, shares) */\n      0xffffffffffffffffffffffffffffffffffffffff\n      and\n        /* \"ERC4626.sol\":2044:2054  msg.sender */\n      caller\n        /* \"ERC4626.sol\":2036:2081  Deposit(msg.sender, receiver, assets, shares) */\n      0xffffffffffffffffffffffffffffffffffffffff\n      and\n      0xdcbc1c05240f31ff3ad067ef1ee35ce4997762752e3a095284754544f4c709d7\n        /* \"ERC4626.sol\":2066:2072  assets */\n      dup6\n        /* \"ERC4626.sol\":2074:2080  shares */\n      dup5\n        /* \"ERC4626.sol\":2036:2081  Deposit(msg.sender, receiver, assets, shares) */\n      mload(0x40)\n      tag_218\n      swap3\n      swap2\n      swap1\n      tag_219\n      jump\t// in\n    tag_218:\n      mload(0x40)\n      dup1\n      swap2\n      sub\n      swap1\n      log3\n        /* \"ERC4626.sol\":2092:2120  afterDeposit(assets, shares) */\n      tag_220\n        /* \"ERC4626.sol\":2105:2111  assets */\n      dup4\n        /* \"ERC4626.sol\":2113:2119  shares */\n      dup3\n        /* \"ERC4626.sol\":2092:2104  afterDeposit */\n      tag_221\n        /* \"ERC4626.sol\":2092:2120  afterDeposit(assets, shares) */\n      jump\t// in\n    tag_220:\n        /* \"ERC4626.sol\":1583:2127  function deposit(uint256 assets, address receiver)... */\n      swap3\n      swap2\n      pop\n      pop\n      jump\t// out\n        /* \"ERC20.sol\":1367:1411  mapping(address => uint256) public balanceOf */\n    tag_100:\n      mstore(0x20, 0x03)\n      dup1\n      0x00\n      mstore\n      keccak256(0x00, 0x40)\n      0x00\n      swap2\n      pop\n      swap1\n      pop\n      sload\n      dup2\n      jump\t// out\n        /* \"ERC20.sol\":1781:1822  mapping(address => uint256) public nonces */\n    tag_104:\n      mstore(0x20, 0x05)\n      dup1\n      0x00\n      mstore\n      keccak256(0x00, 0x40)\n      0x00\n      swap2\n      pop\n      swap1\n      pop\n      sload\n      dup2\n      jump\t// out\n        /* \"ERC4626.sol\":2133:2628  function mint(uint256 shares, address receiver)... */\n    tag_108:\n        /* \"ERC4626.sol\":2229:2243  uint256 assets */\n      0x00\n        /* \"ERC4626.sol\":2268:2287  previewMint(shares) */\n      tag_223\n        /* \"ERC4626.sol\":2280:2286  shares */\n      dup4\n        /* \"ERC4626.sol\":2268:2279  previewMint */\n      tag_119\n        /* \"ERC4626.sol\":2268:2287  previewMint(shares) */\n      jump\t// in\n    tag_223:\n        /* \"ERC4626.sol\":2259:2287  assets = previewMint(shares) */\n      swap1\n      pop\n        /* \"ERC4626.sol\":2430:2487  asset.safeTransferFrom(msg.sender, address(this), assets) */\n      tag_224\n        /* \"ERC4626.sol\":2453:2463  msg.sender */\n      caller\n        /* \"ERC4626.sol\":2473:2477  this */\n      address\n        /* \"ERC4626.sol\":2480:2486  assets */\n      dup4\n        /* \"ERC4626.sol\":2430:2435  asset */\n      immutable(\"0xecac27c21aa9a89d7be9ad03c2d91e82cbd466284ecdf2bd5bad7f953539cc45\")\n        /* \"ERC4626.sol\":2430:2452  asset.safeTransferFrom */\n      0xffffffffffffffffffffffffffffffffffffffff\n      and\n      tag_215\n      swap1\n        /* \"ERC4626.sol\":2430:2487  asset.safeTransferFrom(msg.sender, address(this), assets) */\n      swap4\n      swap3\n      swap2\n      swap1\n      0xffffffff\n      and\n      jump\t// in\n    tag_224:\n        /* \"ERC4626.sol\":2498:2521  _mint(receiver, shares) */\n      tag_225\n        /* \"ERC4626.sol\":2504:2512  receiver */\n      dup3\n        /* \"ERC4626.sol\":2514:2520  shares */\n      dup5\n        /* \"ERC4626.sol\":2498:2503  _mint */\n      tag_217\n        /* \"ERC4626.sol\":2498:2521  _mint(receiver, shares) */\n      jump\t// in\n    tag_225:\n        /* \"ERC4626.sol\":2557:2565  receiver */\n      dup2\n        /* \"ERC4626.sol\":2537:2582  Deposit(msg.sender, receiver, assets, shares) */\n      0xffffffffffffffffffffffffffffffffffffffff\n      and\n        /* \"ERC4626.sol\":2545:2555  msg.sender */\n      caller\n        /* \"ERC4626.sol\":2537:2582  Deposit(msg.sender, receiver, assets, shares) */\n      0xffffffffffffffffffffffffffffffffffffffff\n      and\n      0xdcbc1c05240f31ff3ad067ef1ee35ce4997762752e3a095284754544f4c709d7\n        /* \"ERC4626.sol\":2567:2573  assets */\n      dup4\n        /* \"ERC4626.sol\":2575:2581  shares */\n      dup7\n        /* \"ERC4626.sol\":2537:2582  Deposit(msg.sender, receiver, assets, shares) */\n      mload(0x40)\n      tag_226\n      swap3\n      swap2\n      swap1\n      tag_219\n      jump\t// in\n    tag_226:\n      mload(0x40)\n      dup1\n      swap2\n      sub\n      swap1\n      log3\n        /* \"ERC4626.sol\":2593:2621  afterDeposit(assets, shares) */\n      tag_227\n        /* \"ERC4626.sol\":2606:2612  assets */\n      dup2\n        /* \"ERC4626.sol\":2614:2620  shares */\n      dup5\n        /* \"ERC4626.sol\":2593:2605  afterDeposit */\n      tag_221\n        /* \"ERC4626.sol\":2593:2621  afterDeposit(assets, shares) */\n      jump\t// in\n    tag_227:\n        /* \"ERC4626.sol\":2133:2628  function mint(uint256 shares, address receiver)... */\n      swap3\n      swap2\n      pop\n      pop\n      jump\t// out\n        /* \"ERC20.sol\":1086:1106  string public symbol */\n    tag_111:\n      0x01\n      dup1\n      sload\n      tag_228\n      swap1\n      tag_176\n      jump\t// in\n    tag_228:\n      dup1\n      0x1f\n      add\n      0x20\n      dup1\n      swap2\n      div\n      mul\n      0x20\n      add\n      mload(0x40)\n      swap1\n      dup2\n      add\n      0x40\n      mstore\n      dup1\n      swap3\n      swap2\n      swap1\n      dup2\n      dup2\n      mstore\n      0x20\n      add\n      dup3\n      dup1\n      sload\n      tag_229\n      swap1\n      tag_176\n      jump\t// in\n    tag_229:\n      dup1\n      iszero\n      tag_230\n      jumpi\n      dup1\n      0x1f\n      lt\n      tag_231\n      jumpi\n      0x0100\n      dup1\n      dup4\n      sload\n      div\n      mul\n      dup4\n      mstore\n      swap2\n      0x20\n      add\n      swap2\n      jump(tag_230)\n    tag_231:\n      dup3\n      add\n      swap2\n      swap1\n      0x00\n      mstore\n      keccak256(0x00, 0x20)\n      swap1\n    tag_232:\n      dup2\n      sload\n      dup2\n      mstore\n      swap1\n      0x01\n      add\n      swap1\n      0x20\n      add\n      dup1\n      dup4\n      gt\n      tag_232\n      jumpi\n      dup3\n      swap1\n      sub\n      0x1f\n      and\n      dup3\n      add\n      swap2\n    tag_230:\n      pop\n      pop\n      pop\n      pop\n      pop\n      dup2\n      jump\t// out\n        /* \"ERC20.sol\":2736:3137  function transfer(address to, uint256 amount)... */\n    tag_115:\n        /* \"ERC20.sol\":2830:2834  bool */\n      0x00\n        /* \"ERC20.sol\":2875:2881  amount */\n      dup2\n        /* \"ERC20.sol\":2850:2859  balanceOf */\n      0x03\n        /* \"ERC20.sol\":2850:2871  balanceOf[msg.sender] */\n      0x00\n        /* \"ERC20.sol\":2860:2870  msg.sender */\n      caller\n        /* \"ERC20.sol\":2850:2871  balanceOf[msg.sender] */\n      0xffffffffffffffffffffffffffffffffffffffff\n      and\n      0xffffffffffffffffffffffffffffffffffffffff\n      and\n      dup2\n      mstore\n      0x20\n      add\n      swap1\n      dup2\n      mstore\n      0x20\n      add\n      0x00\n      keccak256\n      0x00\n        /* \"ERC20.sol\":2850:2881  balanceOf[msg.sender] -= amount */\n      dup3\n      dup3\n      sload\n      tag_234\n      swap2\n      swap1\n      tag_198\n      jump\t// in\n    tag_234:\n      swap3\n      pop\n      pop\n      dup2\n      swap1\n      sstore\n      pop\n        /* \"ERC20.sol\":3044:3050  amount */\n      dup2\n        /* \"ERC20.sol\":3027:3036  balanceOf */\n      0x03\n        /* \"ERC20.sol\":3027:3040  balanceOf[to] */\n      0x00\n        /* \"ERC20.sol\":3037:3039  to */\n      dup6\n        /* \"ERC20.sol\":3027:3040  balanceOf[to] */\n      0xffffffffffffffffffffffffffffffffffffffff\n      and\n      0xffffffffffffffffffffffffffffffffffffffff\n      and\n      dup2\n      mstore\n      0x20\n      add\n      swap1\n      dup2\n      mstore\n      0x20\n      add\n      0x00\n      keccak256\n      0x00\n        /* \"ERC20.sol\":3027:3050  balanceOf[to] += amount */\n      dup3\n      dup3\n      sload\n      add\n      swap3\n      pop\n      pop\n      dup2\n      swap1\n      sstore\n      pop\n        /* \"ERC20.sol\":3097:3099  to */\n      dup3\n        /* \"ERC20.sol\":3076:3108  Transfer(msg.sender, to, amount) */\n      0xffffffffffffffffffffffffffffffffffffffff\n      and\n        /* \"ERC20.sol\":3085:3095  msg.sender */\n      caller\n        /* \"ERC20.sol\":3076:3108  Transfer(msg.sender, to, amount) */\n      0xffffffffffffffffffffffffffffffffffffffff\n      and\n      0xddf252ad1be2c89b69c2b068fc378daa952ba7f163c4a11628f55a4df523b3ef\n        /* \"ERC20.sol\":3101:3107  amount */\n      dup5\n        /* \"ERC20.sol\":3076:3108  Transfer(msg.sender, to, amount) */\n      mload(0x40)\n      tag_235\n      swap2\n      swap1\n      tag_44\n      jump\t// in\n    tag_235:\n      mload(0x40)\n      dup1\n      swap2\n      sub\n      swap1\n      log3\n        /* \"ERC20.sol\":3126:3130  true */\n      0x01\n        /* \"ERC20.sol\":3119:3130  return true */\n      swap1\n      pop\n        /* \"ERC20.sol\":2736:3137  function transfer(address to, uint256 amount)... */\n      swap3\n      swap2\n      pop\n      pop\n      jump\t// out\n        /* \"ERC4626.sol\":5086:5337  function previewMint(uint256 shares) public view virtual returns (uint256) {... */\n    tag_119:\n        /* \"ERC4626.sol\":5152:5159  uint256 */\n      0x00\n        /* \"ERC4626.sol\":5171:5185  uint256 supply */\n      dup1\n        /* \"ERC4626.sol\":5188:5199  totalSupply */\n      sload(0x02)\n        /* \"ERC4626.sol\":5171:5199  uint256 supply = totalSupply */\n      swap1\n      pop\n        /* \"ERC4626.sol\":5279:5280  0 */\n      0x00\n        /* \"ERC4626.sol\":5269:5275  supply */\n      dup2\n        /* \"ERC4626.sol\":5269:5280  supply == 0 */\n      eq\n        /* \"ERC4626.sol\":5269:5330  supply == 0 ? shares : shares.mulDivUp(totalAssets(), supply) */\n      tag_237\n      jumpi\n        /* \"ERC4626.sol\":5292:5330  shares.mulDivUp(totalAssets(), supply) */\n      tag_238\n        /* \"ERC4626.sol\":5308:5321  totalAssets() */\n      tag_239\n        /* \"ERC4626.sol\":5308:5319  totalAssets */\n      tag_42\n        /* \"ERC4626.sol\":5308:5321  totalAssets() */\n      jump\t// in\n    tag_239:\n        /* \"ERC4626.sol\":5323:5329  supply */\n      dup3\n        /* \"ERC4626.sol\":5292:5298  shares */\n      dup6\n        /* \"ERC4626.sol\":5292:5307  shares.mulDivUp */\n      tag_193\n      swap1\n        /* \"ERC4626.sol\":5292:5330  shares.mulDivUp(totalAssets(), supply) */\n      swap3\n      swap2\n      swap1\n      0xffffffff\n      and\n      jump\t// in\n    tag_238:\n        /* \"ERC4626.sol\":5269:5330  supply == 0 ? shares : shares.mulDivUp(totalAssets(), supply) */\n      jump(tag_240)\n    tag_237:\n        /* \"ERC4626.sol\":5283:5289  shares */\n      dup3\n        /* \"ERC4626.sol\":5269:5330  supply == 0 ? shares : shares.mulDivUp(totalAssets(), supply) */\n    tag_240:\n        /* \"ERC4626.sol\":5262:5330  return supply == 0 ? shares : shares.mulDivUp(totalAssets(), supply) */\n      swap2\n      pop\n      pop\n        /* \"ERC4626.sol\":5086:5337  function previewMint(uint256 shares) public view virtual returns (uint256) {... */\n      swap2\n      swap1\n      pop\n      jump\t// out\n        /* \"ERC4626.sol\":2634:3329  function withdraw(... */\n    tag_124:\n        /* \"ERC4626.sol\":2755:2769  uint256 shares */\n      0x00\n        /* \"ERC4626.sol\":2790:2813  previewWithdraw(assets) */\n      tag_242\n        /* \"ERC4626.sol\":2806:2812  assets */\n      dup5\n        /* \"ERC4626.sol\":2790:2805  previewWithdraw */\n      tag_62\n        /* \"ERC4626.sol\":2790:2813  previewWithdraw(assets) */\n      jump\t// in\n    tag_242:\n        /* \"ERC4626.sol\":2781:2813  shares = previewWithdraw(assets) */\n      swap1\n      pop\n        /* \"ERC4626.sol\":2909:2914  owner */\n      dup2\n        /* \"ERC4626.sol\":2895:2914  msg.sender != owner */\n      0xffffffffffffffffffffffffffffffffffffffff\n      and\n        /* \"ERC4626.sol\":2895:2905  msg.sender */\n      caller\n        /* \"ERC4626.sol\":2895:2914  msg.sender != owner */\n      0xffffffffffffffffffffffffffffffffffffffff\n      and\n      eq\n        /* \"ERC4626.sol\":2891:3135  if (msg.sender != owner) {... */\n      tag_243\n      jumpi\n        /* \"ERC4626.sol\":2930:2945  uint256 allowed */\n      0x00\n        /* \"ERC4626.sol\":2948:2957  allowance */\n      0x04\n        /* \"ERC4626.sol\":2948:2964  allowance[owner] */\n      0x00\n        /* \"ERC4626.sol\":2958:2963  owner */\n      dup5\n        /* \"ERC4626.sol\":2948:2964  allowance[owner] */\n      0xffffffffffffffffffffffffffffffffffffffff\n      and\n      0xffffffffffffffffffffffffffffffffffffffff\n      and\n      dup2\n      mstore\n      0x20\n      add\n      swap1\n      dup2\n      mstore\n      0x20\n      add\n      0x00\n      keccak256\n        /* \"ERC4626.sol\":2948:2976  allowance[owner][msg.sender] */\n      0x00\n        /* \"ERC4626.sol\":2965:2975  msg.sender */\n      caller\n        /* \"ERC4626.sol\":2948:2976  allowance[owner][msg.sender] */\n      0xffffffffffffffffffffffffffffffffffffffff\n      and\n      0xffffffffffffffffffffffffffffffffffffffff\n      and\n      dup2\n      mstore\n      0x20\n      add\n      swap1\n      dup2\n      mstore\n      0x20\n      add\n      0x00\n      keccak256\n      sload\n        /* \"ERC4626.sol\":2930:2976  uint256 allowed = allowance[owner][msg.sender] */\n      swap1\n      pop\n        /* \"ERC4626.sol\":3042:3059  type(uint256).max */\n      0xffffffffffffffffffffffffffffffffffffffffffffffffffffffffffffffff\n        /* \"ERC4626.sol\":3031:3038  allowed */\n      dup2\n        /* \"ERC4626.sol\":3031:3059  allowed != type(uint256).max */\n      eq\n        /* \"ERC4626.sol\":3027:3124  if (allowed != type(uint256).max)... */\n      tag_244\n      jumpi\n        /* \"ERC4626.sol\":3118:3124  shares */\n      dup2\n        /* \"ERC4626.sol\":3108:3115  allowed */\n      dup2\n        /* \"ERC4626.sol\":3108:3124  allowed - shares */\n      tag_245\n      swap2\n      swap1\n      tag_198\n      jump\t// in\n    tag_245:\n        /* \"ERC4626.sol\":3077:3086  allowance */\n      0x04\n        /* \"ERC4626.sol\":3077:3093  allowance[owner] */\n      0x00\n        /* \"ERC4626.sol\":3087:3092  owner */\n      dup6\n        /* \"ERC4626.sol\":3077:3093  allowance[owner] */\n      0xffffffffffffffffffffffffffffffffffffffff\n      and\n      0xffffffffffffffffffffffffffffffffffffffff\n      and\n      dup2\n      mstore\n      0x20\n      add\n      swap1\n      dup2\n      mstore\n      0x20\n      add\n      0x00\n      keccak256\n        /* \"ERC4626.sol\":3077:3105  allowance[owner][msg.sender] */\n      0x00\n        /* \"ERC4626.sol\":3094:3104  msg.sender */\n      caller\n        /* \"ERC4626.sol\":3077:3105  allowance[owner][msg.sender] */\n      0xffffffffffffffffffffffffffffffffffffffff\n      and\n      0xffffffffffffffffffffffffffffffffffffffff\n      and\n      dup2\n      mstore\n      0x20\n      add\n      swap1\n      dup2\n      mstore\n      0x20\n      add\n      0x00\n      keccak256\n        /* \"ERC4626.sol\":3077:3124  allowance[owner][msg.sender] = allowed - shares */\n      dup2\n      swap1\n      sstore\n      pop\n        /* \"ERC4626.sol\":3027:3124  if (allowed != type(uint256).max)... */\n    tag_244:\n        /* \"ERC4626.sol\":2916:3135  {... */\n      pop\n        /* \"ERC4626.sol\":2891:3135  if (msg.sender != owner) {... */\n    tag_243:\n        /* \"ERC4626.sol\":3145:3175  beforeWithdraw(assets, shares) */\n      tag_246\n        /* \"ERC4626.sol\":3160:3166  assets */\n      dup5\n        /* \"ERC4626.sol\":3168:3174  shares */\n      dup3\n        /* \"ERC4626.sol\":3145:3159  beforeWithdraw */\n      tag_247\n        /* \"ERC4626.sol\":3145:3175  beforeWithdraw(assets, shares) */\n      jump\t// in\n    tag_246:\n        /* \"ERC4626.sol\":3186:3206  _burn(owner, shares) */\n      tag_248\n        /* \"ERC4626.sol\":3192:3197  owner */\n      dup3\n        /* \"ERC4626.sol\":3199:3205  shares */\n      dup3\n        /* \"ERC4626.sol\":3186:3191  _burn */\n      tag_249\n        /* \"ERC4626.sol\":3186:3206  _burn(owner, shares) */\n      jump\t// in\n    tag_248:\n        /* \"ERC4626.sol\":3253:3258  owner */\n      dup2\n        /* \"ERC4626.sol\":3222:3275  Withdraw(msg.sender, receiver, owner, assets, shares) */\n      0xffffffffffffffffffffffffffffffffffffffff\n      and\n        /* \"ERC4626.sol\":3243:3251  receiver */\n      dup4\n        /* \"ERC4626.sol\":3222:3275  Withdraw(msg.sender, receiver, owner, assets, shares) */\n      0xffffffffffffffffffffffffffffffffffffffff\n      and\n        /* \"ERC4626.sol\":3231:3241  msg.sender */\n      caller\n        /* \"ERC4626.sol\":3222:3275  Withdraw(msg.sender, receiver, owner, assets, shares) */\n      0xffffffffffffffffffffffffffffffffffffffff\n      and\n      0xfbde797d201c681b91056529119e0b02407c7bb96a4a2c75c01fc9667232c8db\n        /* \"ERC4626.sol\":3260:3266  assets */\n      dup8\n        /* \"ERC4626.sol\":3268:3274  shares */\n      dup6\n        /* \"ERC4626.sol\":3222:3275  Withdraw(msg.sender, receiver, owner, assets, shares) */\n      mload(0x40)\n      tag_250\n      swap3\n      swap2\n      swap1\n      tag_219\n      jump\t// in\n    tag_250:\n      mload(0x40)\n      dup1\n      swap2\n      sub\n      swap1\n      log4\n        /* \"ERC4626.sol\":3286:3322  asset.safeTransfer(receiver, assets) */\n      tag_251\n        /* \"ERC4626.sol\":3305:3313  receiver */\n      dup4\n        /* \"ERC4626.sol\":3315:3321  assets */\n      dup6\n        /* \"ERC4626.sol\":3286:3291  asset */\n      immutable(\"0xecac27c21aa9a89d7be9ad03c2d91e82cbd466284ecdf2bd5bad7f953539cc45\")\n        /* \"ERC4626.sol\":3286:3304  asset.safeTransfer */\n      0xffffffffffffffffffffffffffffffffffffffff\n      and\n      tag_252\n      swap1\n        /* \"ERC4626.sol\":3286:3322  asset.safeTransfer(receiver, assets) */\n      swap3\n      swap2\n      swap1\n      0xffffffff\n      and\n      jump\t// in\n    tag_251:\n        /* \"ERC4626.sol\":2634:3329  function withdraw(... */\n      swap4\n      swap3\n      pop\n      pop\n      pop\n      jump\t// out\n        /* \"ERC4626.sol\":3335:4064  function redeem(... */\n    tag_128:\n        /* \"ERC4626.sol\":3454:3468  uint256 assets */\n      0x00\n        /* \"ERC4626.sol\":3498:3503  owner */\n      dup2\n        /* \"ERC4626.sol\":3484:3503  msg.sender != owner */\n      0xffffffffffffffffffffffffffffffffffffffff\n      and\n        /* \"ERC4626.sol\":3484:3494  msg.sender */\n      caller\n        /* \"ERC4626.sol\":3484:3503  msg.sender != owner */\n      0xffffffffffffffffffffffffffffffffffffffff\n      and\n      eq\n        /* \"ERC4626.sol\":3480:3724  if (msg.sender != owner) {... */\n      tag_254\n      jumpi\n        /* \"ERC4626.sol\":3519:3534  uint256 allowed */\n      0x00\n        /* \"ERC4626.sol\":3537:3546  allowance */\n      0x04\n        /* \"ERC4626.sol\":3537:3553  allowance[owner] */\n      0x00\n        /* \"ERC4626.sol\":3547:3552  owner */\n      dup5\n        /* \"ERC4626.sol\":3537:3553  allowance[owner] */\n      0xffffffffffffffffffffffffffffffffffffffff\n      and\n      0xffffffffffffffffffffffffffffffffffffffff\n      and\n      dup2\n      mstore\n      0x20\n      add\n      swap1\n      dup2\n      mstore\n      0x20\n      add\n      0x00\n      keccak256\n        /* \"ERC4626.sol\":3537:3565  allowance[owner][msg.sender] */\n      0x00\n        /* \"ERC4626.sol\":3554:3564  msg.sender */\n      caller\n        /* \"ERC4626.sol\":3537:3565  allowance[owner][msg.sender] */\n      0xffffffffffffffffffffffffffffffffffffffff\n      and\n      0xffffffffffffffffffffffffffffffffffffffff\n      and\n      dup2\n      mstore\n      0x20\n      add\n      swap1\n      dup2\n      mstore\n      0x20\n      add\n      0x00\n      keccak256\n      sload\n        /* \"ERC4626.sol\":3519:3565  uint256 allowed = allowance[owner][msg.sender] */\n      swap1\n      pop\n        /* \"ERC4626.sol\":3631:3648  type(uint256).max */\n      0xffffffffffffffffffffffffffffffffffffffffffffffffffffffffffffffff\n        /* \"ERC4626.sol\":3620:3627  allowed */\n      dup2\n        /* \"ERC4626.sol\":3620:3648  allowed != type(uint256).max */\n      eq\n        /* \"ERC4626.sol\":3616:3713  if (allowed != type(uint256).max)... */\n      tag_255\n      jumpi\n        /* \"ERC4626.sol\":3707:3713  shares */\n      dup5\n        /* \"ERC4626.sol\":3697:3704  allowed */\n      dup2\n        /* \"ERC4626.sol\":3697:3713  allowed - shares */\n      tag_256\n      swap2\n      swap1\n      tag_198\n      jump\t// in\n    tag_256:\n        /* \"ERC4626.sol\":3666:3675  allowance */\n      0x04\n        /* \"ERC4626.sol\":3666:3682  allowance[owner] */\n      0x00\n        /* \"ERC4626.sol\":3676:3681  owner */\n      dup6\n        /* \"ERC4626.sol\":3666:3682  allowance[owner] */\n      0xffffffffffffffffffffffffffffffffffffffff\n      and\n      0xffffffffffffffffffffffffffffffffffffffff\n      and\n      dup2\n      mstore\n      0x20\n      add\n      swap1\n      dup2\n      mstore\n      0x20\n      add\n      0x00\n      keccak256\n        /* \"ERC4626.sol\":3666:3694  allowance[owner][msg.sender] */\n      0x00\n        /* \"ERC4626.sol\":3683:3693  msg.sender */\n      caller\n        /* \"ERC4626.sol\":3666:3694  allowance[owner][msg.sender] */\n      0xffffffffffffffffffffffffffffffffffffffff\n      and\n      0xffffffffffffffffffffffffffffffffffffffff\n      and\n      dup2\n      mstore\n      0x20\n      add\n      swap1\n      dup2\n      mstore\n      0x20\n      add\n      0x00\n      keccak256\n        /* \"ERC4626.sol\":3666:3713  allowance[owner][msg.sender] = allowed - shares */\n      dup2\n      swap1\n      sstore\n      pop\n        /* \"ERC4626.sol\":3616:3713  if (allowed != type(uint256).max)... */\n    tag_255:\n        /* \"ERC4626.sol\":3505:3724  {... */\n      pop\n        /* \"ERC4626.sol\":3480:3724  if (msg.sender != owner) {... */\n    tag_254:\n        /* \"ERC4626.sol\":3852:3853  0 */\n      0x00\n        /* \"ERC4626.sol\":3826:3847  previewRedeem(shares) */\n      tag_257\n        /* \"ERC4626.sol\":3840:3846  shares */\n      dup6\n        /* \"ERC4626.sol\":3826:3839  previewRedeem */\n      tag_91\n        /* \"ERC4626.sol\":3826:3847  previewRedeem(shares) */\n      jump\t// in\n    tag_257:\n        /* \"ERC4626.sol\":3817:3847  assets = previewRedeem(shares) */\n      swap2\n      pop\n      dup2\n        /* \"ERC4626.sol\":3816:3853  (assets = previewRedeem(shares)) != 0 */\n      eq\n      iszero\n        /* \"ERC4626.sol\":3808:3869  require((assets = previewRedeem(shares)) != 0, \"ZERO_ASSETS\") */\n      tag_258\n      jumpi\n      mload(0x40)\n      0x08c379a000000000000000000000000000000000000000000000000000000000\n      dup2\n      mstore\n      0x04\n      add\n      tag_259\n      swap1\n      tag_260\n      jump\t// in\n    tag_259:\n      mload(0x40)\n      dup1\n      swap2\n      sub\n      swap1\n      revert\n    tag_258:\n        /* \"ERC4626.sol\":3880:3910  beforeWithdraw(assets, shares) */\n      tag_261\n        /* \"ERC4626.sol\":3895:3901  assets */\n      dup2\n        /* \"ERC4626.sol\":3903:3909  shares */\n      dup6\n        /* \"ERC4626.sol\":3880:3894  beforeWithdraw */\n      tag_247\n        /* \"ERC4626.sol\":3880:3910  beforeWithdraw(assets, shares) */\n      jump\t// in\n    tag_261:\n        /* \"ERC4626.sol\":3921:3941  _burn(owner, shares) */\n      tag_262\n        /* \"ERC4626.sol\":3927:3932  owner */\n      dup3\n        /* \"ERC4626.sol\":3934:3940  shares */\n      dup6\n        /* \"ERC4626.sol\":3921:3926  _burn */\n      tag_249\n        /* \"ERC4626.sol\":3921:3941  _burn(owner, shares) */\n      jump\t// in\n    tag_262:\n        /* \"ERC4626.sol\":3988:3993  owner */\n      dup2\n        /* \"ERC4626.sol\":3957:4010  Withdraw(msg.sender, receiver, owner, assets, shares) */\n      0xffffffffffffffffffffffffffffffffffffffff\n      and\n        /* \"ERC4626.sol\":3978:3986  receiver */\n      dup4\n        /* \"ERC4626.sol\":3957:4010  Withdraw(msg.sender, receiver, owner, assets, shares) */\n      0xffffffffffffffffffffffffffffffffffffffff\n      and\n        /* \"ERC4626.sol\":3966:3976  msg.sender */\n      caller\n        /* \"ERC4626.sol\":3957:4010  Withdraw(msg.sender, receiver, owner, assets, shares) */\n      0xffffffffffffffffffffffffffffffffffffffff\n      and\n      0xfbde797d201c681b91056529119e0b02407c7bb96a4a2c75c01fc9667232c8db\n        /* \"ERC4626.sol\":3995:4001  assets */\n      dup5\n        /* \"ERC4626.sol\":4003:4009  shares */\n      dup9\n        /* \"ERC4626.sol\":3957:4010  Withdraw(msg.sender, receiver, owner, assets, shares) */\n      mload(0x40)\n      tag_263\n      swap3\n      swap2\n      swap1\n      tag_219\n      jump\t// in\n    tag_263:\n      mload(0x40)\n      dup1\n      swap2\n      sub\n      swap1\n      log4\n        /* \"ERC4626.sol\":4021:4057  asset.safeTransfer(receiver, assets) */\n      tag_264\n        /* \"ERC4626.sol\":4040:4048  receiver */\n      dup4\n        /* \"ERC4626.sol\":4050:4056  assets */\n      dup3\n        /* \"ERC4626.sol\":4021:4026  asset */\n      immutable(\"0xecac27c21aa9a89d7be9ad03c2d91e82cbd466284ecdf2bd5bad7f953539cc45\")\n        /* \"ERC4626.sol\":4021:4039  asset.safeTransfer */\n      0xffffffffffffffffffffffffffffffffffffffff\n      and\n      tag_252\n      swap1\n        /* \"ERC4626.sol\":4021:4057  asset.safeTransfer(receiver, assets) */\n      swap3\n      swap2\n      swap1\n      0xffffffff\n      and\n      jump\t// in\n    tag_264:\n        /* \"ERC4626.sol\":3335:4064  function redeem(... */\n      swap4\n      swap3\n      pop\n      pop\n      pop\n      jump\t// out\n        /* \"SquiddyCore.sol\":181:231  uint256 public beforeWithdrawHookCalledCounter = 0 */\n    tag_131:\n      sload(0x06)\n      dup2\n      jump\t// out\n        /* \"SquiddyCore.sol\":1098:1131  ERC20 public immutable UNDERLYING */\n    tag_134:\n      immutable(\"0xd28890be762f499946cbe5c973d7574b40b34800c52cf06f23bfd0c81b3d4615\")\n      dup2\n      jump\t// out\n        /* \"ERC4626.sol\":6111:6216  function maxMint(address) public view virtual returns (uint256) {... */\n    tag_138:\n        /* \"ERC4626.sol\":6166:6173  uint256 */\n      0x00\n        /* \"ERC4626.sol\":6192:6209  type(uint256).max */\n      0xffffffffffffffffffffffffffffffffffffffffffffffffffffffffffffffff\n        /* \"ERC4626.sol\":6185:6209  return type(uint256).max */\n      swap1\n      pop\n        /* \"ERC4626.sol\":6111:6216  function maxMint(address) public view virtual returns (uint256) {... */\n      swap2\n      swap1\n      pop\n      jump\t// out\n        /* \"ERC4626.sol\":4321:4614  function convertToShares(uint256 assets)... */\n    tag_142:\n        /* \"ERC4626.sol\":4423:4430  uint256 */\n      0x00\n        /* \"ERC4626.sol\":4446:4460  uint256 supply */\n      dup1\n        /* \"ERC4626.sol\":4463:4474  totalSupply */\n      sload(0x02)\n        /* \"ERC4626.sol\":4446:4474  uint256 supply = totalSupply */\n      swap1\n      pop\n        /* \"ERC4626.sol\":4554:4555  0 */\n      0x00\n        /* \"ERC4626.sol\":4544:4550  supply */\n      dup2\n        /* \"ERC4626.sol\":4544:4555  supply == 0 */\n      eq\n        /* \"ERC4626.sol\":4544:4607  supply == 0 ? assets : assets.mulDivDown(supply, totalAssets()) */\n      tag_267\n      jumpi\n        /* \"ERC4626.sol\":4567:4607  assets.mulDivDown(supply, totalAssets()) */\n      tag_268\n        /* \"ERC4626.sol\":4585:4591  supply */\n      dup2\n        /* \"ERC4626.sol\":4593:4606  totalAssets() */\n      tag_269\n        /* \"ERC4626.sol\":4593:4604  totalAssets */\n      tag_42\n        /* \"ERC4626.sol\":4593:4606  totalAssets() */\n      jump\t// in\n    tag_269:\n        /* \"ERC4626.sol\":4567:4573  assets */\n      dup6\n        /* \"ERC4626.sol\":4567:4584  assets.mulDivDown */\n      tag_185\n      swap1\n        /* \"ERC4626.sol\":4567:4607  assets.mulDivDown(supply, totalAssets()) */\n      swap3\n      swap2\n      swap1\n      0xffffffff\n      and\n      jump\t// in\n    tag_268:\n        /* \"ERC4626.sol\":4544:4607  supply == 0 ? assets : assets.mulDivDown(supply, totalAssets()) */\n      jump(tag_270)\n    tag_267:\n        /* \"ERC4626.sol\":4558:4564  assets */\n      dup3\n        /* \"ERC4626.sol\":4544:4607  supply == 0 ? assets : assets.mulDivDown(supply, totalAssets()) */\n    tag_270:\n        /* \"ERC4626.sol\":4537:4607  return supply == 0 ? assets : assets.mulDivDown(supply, totalAssets()) */\n      swap2\n      pop\n      pop\n        /* \"ERC4626.sol\":4321:4614  function convertToShares(uint256 assets)... */\n      swap2\n      swap1\n      pop\n      jump\t// out\n        /* \"ERC4626.sol\":6222:6353  function maxWithdraw(address owner) public view virtual returns (uint256) {... */\n    tag_146:\n        /* \"ERC4626.sol\":6287:6294  uint256 */\n      0x00\n        /* \"ERC4626.sol\":6313:6346  convertToAssets(balanceOf[owner]) */\n      tag_272\n        /* \"ERC4626.sol\":6329:6338  balanceOf */\n      0x03\n        /* \"ERC4626.sol\":6329:6345  balanceOf[owner] */\n      0x00\n        /* \"ERC4626.sol\":6339:6344  owner */\n      dup5\n        /* \"ERC4626.sol\":6329:6345  balanceOf[owner] */\n      0xffffffffffffffffffffffffffffffffffffffff\n      and\n      0xffffffffffffffffffffffffffffffffffffffff\n      and\n      dup2\n      mstore\n      0x20\n      add\n      swap1\n      dup2\n      mstore\n      0x20\n      add\n      0x00\n      keccak256\n      sload\n        /* \"ERC4626.sol\":6313:6328  convertToAssets */\n      tag_52\n        /* \"ERC4626.sol\":6313:6346  convertToAssets(balanceOf[owner]) */\n      jump\t// in\n    tag_272:\n        /* \"ERC4626.sol\":6306:6346  return convertToAssets(balanceOf[owner]) */\n      swap1\n      pop\n        /* \"ERC4626.sol\":6222:6353  function maxWithdraw(address owner) public view virtual returns (uint256) {... */\n      swap2\n      swap1\n      pop\n      jump\t// out\n        /* \"ERC20.sol\":3936:5465  function permit(... */\n    tag_151:\n        /* \"ERC20.sol\":4155:4170  block.timestamp */\n      timestamp\n        /* \"ERC20.sol\":4143:4151  deadline */\n      dup5\n        /* \"ERC20.sol\":4143:4170  deadline >= block.timestamp */\n      lt\n      iszero\n        /* \"ERC20.sol\":4135:4198  require(deadline >= block.timestamp, \"PERMIT_DEADLINE_EXPIRED\") */\n      tag_274\n      jumpi\n      mload(0x40)\n      0x08c379a000000000000000000000000000000000000000000000000000000000\n      dup2\n      mstore\n      0x04\n      add\n      tag_275\n      swap1\n      tag_276\n      jump\t// in\n    tag_275:\n      mload(0x40)\n      dup1\n      swap2\n      sub\n      swap1\n      revert\n    tag_274:\n        /* \"ERC20.sol\":4363:4387  address recoveredAddress */\n      0x00\n        /* \"ERC20.sol\":4390:5195  ecrecover(... */\n      0x01\n        /* \"ERC20.sol\":4526:4544  DOMAIN_SEPARATOR() */\n      tag_277\n        /* \"ERC20.sol\":4526:4542  DOMAIN_SEPARATOR */\n      tag_77\n        /* \"ERC20.sol\":4526:4544  DOMAIN_SEPARATOR() */\n      jump\t// in\n    tag_277:\n        /* \"ERC20.sol\":4653:4818  keccak256(... */\n      0x6e71edae12b1b97f4d1f60370fef10105fa2faae0126114a169c64845d6126c9\n        /* \"ERC20.sol\":4852:4857  owner */\n      dup11\n        /* \"ERC20.sol\":4891:4898  spender */\n      dup11\n        /* \"ERC20.sol\":4932:4937  value */\n      dup11\n        /* \"ERC20.sol\":4971:4977  nonces */\n      0x05\n        /* \"ERC20.sol\":4971:4984  nonces[owner] */\n      0x00\n        /* \"ERC20.sol\":4978:4983  owner */\n      dup16\n        /* \"ERC20.sol\":4971:4984  nonces[owner] */\n      0xffffffffffffffffffffffffffffffffffffffff\n      and\n      0xffffffffffffffffffffffffffffffffffffffff\n      and\n      dup2\n      mstore\n      0x20\n      add\n      swap1\n      dup2\n      mstore\n      0x20\n      add\n      0x00\n      keccak256\n      0x00\n        /* \"ERC20.sol\":4971:4986  nonces[owner]++ */\n      dup2\n      sload\n      dup1\n      swap3\n      swap2\n      swap1\n      0x01\n      add\n      swap2\n      swap1\n      pop\n      sstore\n        /* \"ERC20.sol\":5020:5028  deadline */\n      dup12\n        /* \"ERC20.sol\":4609:5058  abi.encode(... */\n      add(0x20, mload(0x40))\n      tag_278\n      swap7\n      swap6\n      swap5\n      swap4\n      swap3\n      swap2\n      swap1\n      tag_279\n      jump\t// in\n    tag_278:\n      mload(0x40)\n      0x20\n      dup2\n      dup4\n      sub\n      sub\n      dup2\n      mstore\n      swap1\n      0x40\n      mstore\n        /* \"ERC20.sol\":4570:5084  keccak256(... */\n      dup1\n      mload\n      swap1\n      0x20\n      add\n      keccak256\n        /* \"ERC20.sol\":4448:5106  abi.encodePacked(... */\n      add(0x20, mload(0x40))\n      tag_280\n      swap3\n      swap2\n      swap1\n      tag_281\n      jump\t// in\n    tag_280:\n      mload(0x40)\n      0x20\n      dup2\n      dup4\n      sub\n      sub\n      dup2\n      mstore\n      swap1\n      0x40\n      mstore\n        /* \"ERC20.sol\":4417:5124  keccak256(... */\n      dup1\n      mload\n      swap1\n      0x20\n      add\n      keccak256\n        /* \"ERC20.sol\":5142:5143  v */\n      dup6\n        /* \"ERC20.sol\":5161:5162  r */\n      dup6\n        /* \"ERC20.sol\":5180:5181  s */\n      dup6\n        /* \"ERC20.sol\":4390:5195  ecrecover(... */\n      mload(0x40)\n      0x00\n      dup2\n      mstore\n      0x20\n      add\n      0x40\n      mstore\n      mload(0x40)\n      tag_282\n      swap5\n      swap4\n      swap3\n      swap2\n      swap1\n      tag_283\n      jump\t// in\n    tag_282:\n      0x20\n      mload(0x40)\n      0x20\n      dup2\n      sub\n      swap1\n      dup1\n      dup5\n      sub\n      swap1\n      dup6\n      gas\n      staticcall\n      iszero\n      dup1\n      iszero\n      tag_285\n      jumpi\n      returndatasize\n      0x00\n      dup1\n      returndatacopy\n      revert(0x00, returndatasize)\n    tag_285:\n      pop\n      pop\n      pop\n      mload(sub(mload(0x40), 0x20))\n        /* \"ERC20.sol\":4363:5195  address recoveredAddress = ecrecover(... */\n      swap1\n      pop\n        /* \"ERC20.sol\":5263:5264  0 */\n      0x00\n        /* \"ERC20.sol\":5235:5265  recoveredAddress != address(0) */\n      0xffffffffffffffffffffffffffffffffffffffff\n      and\n        /* \"ERC20.sol\":5235:5251  recoveredAddress */\n      dup2\n        /* \"ERC20.sol\":5235:5265  recoveredAddress != address(0) */\n      0xffffffffffffffffffffffffffffffffffffffff\n      and\n      eq\n      iszero\n        /* \"ERC20.sol\":5235:5294  recoveredAddress != address(0) && recoveredAddress == owner */\n      dup1\n      iszero\n      tag_286\n      jumpi\n      pop\n        /* \"ERC20.sol\":5289:5294  owner */\n      dup8\n        /* \"ERC20.sol\":5269:5294  recoveredAddress == owner */\n      0xffffffffffffffffffffffffffffffffffffffff\n      and\n        /* \"ERC20.sol\":5269:5285  recoveredAddress */\n      dup2\n        /* \"ERC20.sol\":5269:5294  recoveredAddress == owner */\n      0xffffffffffffffffffffffffffffffffffffffff\n      and\n      eq\n        /* \"ERC20.sol\":5235:5294  recoveredAddress != address(0) && recoveredAddress == owner */\n    tag_286:\n        /* \"ERC20.sol\":5210:5342  require(... */\n      tag_287\n      jumpi\n      mload(0x40)\n      0x08c379a000000000000000000000000000000000000000000000000000000000\n      dup2\n      mstore\n      0x04\n      add\n      tag_288\n      swap1\n      tag_289\n      jump\t// in\n    tag_288:\n      mload(0x40)\n      dup1\n      swap2\n      sub\n      swap1\n      revert\n    tag_287:\n        /* \"ERC20.sol\":5396:5401  value */\n      dup6\n        /* \"ERC20.sol\":5357:5366  allowance */\n      0x04\n        /* \"ERC20.sol\":5357:5384  allowance[recoveredAddress] */\n      0x00\n        /* \"ERC20.sol\":5367:5383  recoveredAddress */\n      dup4\n        /* \"ERC20.sol\":5357:5384  allowance[recoveredAddress] */\n      0xffffffffffffffffffffffffffffffffffffffff\n      and\n      0xffffffffffffffffffffffffffffffffffffffff\n      and\n      dup2\n      mstore\n      0x20\n      add\n      swap1\n      dup2\n      mstore\n      0x20\n      add\n      0x00\n      keccak256\n        /* \"ERC20.sol\":5357:5393  allowance[recoveredAddress][spender] */\n      0x00\n        /* \"ERC20.sol\":5385:5392  spender */\n      dup10\n        /* \"ERC20.sol\":5357:5393  allowance[recoveredAddress][spender] */\n      0xffffffffffffffffffffffffffffffffffffffff\n      and\n      0xffffffffffffffffffffffffffffffffffffffff\n      and\n      dup2\n      mstore\n      0x20\n      add\n      swap1\n      dup2\n      mstore\n      0x20\n      add\n      0x00\n      keccak256\n        /* \"ERC20.sol\":5357:5401  allowance[recoveredAddress][spender] = value */\n      dup2\n      swap1\n      sstore\n      pop\n        /* \"ERC20.sol\":4339:5412  unchecked {... */\n      pop\n        /* \"ERC20.sol\":5443:5450  spender */\n      dup6\n        /* \"ERC20.sol\":5427:5458  Approval(owner, spender, value) */\n      0xffffffffffffffffffffffffffffffffffffffff\n      and\n        /* \"ERC20.sol\":5436:5441  owner */\n      dup8\n        /* \"ERC20.sol\":5427:5458  Approval(owner, spender, value) */\n      0xffffffffffffffffffffffffffffffffffffffff\n      and\n      0x8c5be1e5ebec7d5bd14f71427d1e84f3dd0314c0f7b2291e5b200ac8c7c3b925\n        /* \"ERC20.sol\":5452:5457  value */\n      dup8\n        /* \"ERC20.sol\":5427:5458  Approval(owner, spender, value) */\n      mload(0x40)\n      tag_290\n      swap2\n      swap1\n      tag_44\n      jump\t// in\n    tag_290:\n      mload(0x40)\n      dup1\n      swap2\n      sub\n      swap1\n      log3\n        /* \"ERC20.sol\":3936:5465  function permit(... */\n      pop\n      pop\n      pop\n      pop\n      pop\n      pop\n      pop\n      jump\t// out\n        /* \"ERC4626.sol\":6359:6471  function maxRedeem(address owner) public view virtual returns (uint256) {... */\n    tag_154:\n        /* \"ERC4626.sol\":6422:6429  uint256 */\n      0x00\n        /* \"ERC4626.sol\":6448:6457  balanceOf */\n      0x03\n        /* \"ERC4626.sol\":6448:6464  balanceOf[owner] */\n      0x00\n        /* \"ERC4626.sol\":6458:6463  owner */\n      dup4\n        /* \"ERC4626.sol\":6448:6464  balanceOf[owner] */\n      0xffffffffffffffffffffffffffffffffffffffff\n      and\n      0xffffffffffffffffffffffffffffffffffffffff\n      and\n      dup2\n      mstore\n      0x20\n      add\n      swap1\n      dup2\n      mstore\n      0x20\n      add\n      0x00\n      keccak256\n      sload\n        /* \"ERC4626.sol\":6441:6464  return balanceOf[owner] */\n      swap1\n      pop\n        /* \"ERC4626.sol\":6359:6471  function maxRedeem(address owner) public view virtual returns (uint256) {... */\n      swap2\n      swap1\n      pop\n      jump\t// out\n        /* \"ERC20.sol\":1418:1482  mapping(address => mapping(address => uint256)) public allowance */\n    tag_159:\n      mstore(0x20, 0x04)\n      dup2\n      0x00\n      mstore\n      mstore(0x20, keccak256(0x00, 0x40))\n      dup1\n      0x00\n      mstore\n      keccak256(0x00, 0x40)\n      0x00\n      swap2\n      pop\n      swap2\n      pop\n      pop\n      sload\n      dup2\n      jump\t// out\n        /* \"ERC4626.sol\":4919:5080  function previewDeposit(uint256 assets)... */\n    tag_163:\n        /* \"ERC4626.sol\":5020:5027  uint256 */\n      0x00\n        /* \"ERC4626.sol\":5050:5073  convertToShares(assets) */\n      tag_293\n        /* \"ERC4626.sol\":5066:5072  assets */\n      dup3\n        /* \"ERC4626.sol\":5050:5065  convertToShares */\n      tag_142\n        /* \"ERC4626.sol\":5050:5073  convertToShares(assets) */\n      jump\t// in\n    tag_293:\n        /* \"ERC4626.sol\":5043:5073  return convertToShares(assets) */\n      swap1\n      pop\n        /* \"ERC4626.sol\":4919:5080  function previewDeposit(uint256 assets)... */\n      swap2\n      swap1\n      pop\n      jump\t// out\n        /* \"SquiddyCore.sol\":237:285  uint256 public afterDepositHookCalledCounter = 0 */\n    tag_166:\n      sload(0x07)\n      dup2\n      jump\t// out\n        /* \"FixedPointMathLib.sol\":1507:2130  function mulDivDown(... */\n    tag_185:\n        /* \"FixedPointMathLib.sol\":1623:1632  uint256 z */\n      0x00\n        /* \"FixedPointMathLib.sol\":1720:1721  y */\n      dup3\n        /* \"FixedPointMathLib.sol\":1717:1718  x */\n      dup5\n        /* \"FixedPointMathLib.sol\":1713:1722  mul(x, y) */\n      mul\n        /* \"FixedPointMathLib.sol\":1708:1722  z := mul(x, y) */\n      swap1\n      pop\n        /* \"FixedPointMathLib.sol\":1952:1953  y */\n      dup3\n        /* \"FixedPointMathLib.sol\":1948:1949  x */\n      dup5\n        /* \"FixedPointMathLib.sol\":1945:1946  z */\n      dup3\n        /* \"FixedPointMathLib.sol\":1941:1950  div(z, x) */\n      div\n        /* \"FixedPointMathLib.sol\":1938:1954  eq(div(z, x), y) */\n      eq\n        /* \"FixedPointMathLib.sol\":1934:1935  x */\n      dup5\n        /* \"FixedPointMathLib.sol\":1927:1936  iszero(x) */\n      iszero\n        /* \"FixedPointMathLib.sol\":1924:1955  or(iszero(x), eq(div(z, x), y)) */\n      or\n        /* \"FixedPointMathLib.sol\":1889:1900  denominator */\n      dup3\n        /* \"FixedPointMathLib.sol\":1882:1901  iszero(denominator) */\n      iszero\n        /* \"FixedPointMathLib.sol\":1875:1902  iszero(iszero(denominator)) */\n      iszero\n        /* \"FixedPointMathLib.sol\":1850:1973  and(... */\n      and\n        /* \"FixedPointMathLib.sol\":1823:2032  if iszero(... */\n      tag_295\n      jumpi\n        /* \"FixedPointMathLib.sol\":2016:2017  0 */\n      0x00\n        /* \"FixedPointMathLib.sol\":2013:2014  0 */\n      dup1\n        /* \"FixedPointMathLib.sol\":2006:2018  revert(0, 0) */\n      revert\n        /* \"FixedPointMathLib.sol\":1823:2032  if iszero(... */\n    tag_295:\n        /* \"FixedPointMathLib.sol\":2102:2113  denominator */\n      dup2\n        /* \"FixedPointMathLib.sol\":2099:2100  z */\n      dup2\n        /* \"FixedPointMathLib.sol\":2095:2114  div(z, denominator) */\n      div\n        /* \"FixedPointMathLib.sol\":2090:2114  z := div(z, denominator) */\n      swap1\n      pop\n        /* \"FixedPointMathLib.sol\":1507:2130  function mulDivDown(... */\n      swap4\n      swap3\n      pop\n      pop\n      pop\n      jump\t// out\n        /* \"FixedPointMathLib.sol\":2136:2976  function mulDivUp(... */\n    tag_193:\n        /* \"FixedPointMathLib.sol\":2250:2259  uint256 z */\n      0x00\n        /* \"FixedPointMathLib.sol\":2347:2348  y */\n      dup3\n        /* \"FixedPointMathLib.sol\":2344:2345  x */\n      dup5\n        /* \"FixedPointMathLib.sol\":2340:2349  mul(x, y) */\n      mul\n        /* \"FixedPointMathLib.sol\":2335:2349  z := mul(x, y) */\n      swap1\n      pop\n        /* \"FixedPointMathLib.sol\":2579:2580  y */\n      dup3\n        /* \"FixedPointMathLib.sol\":2575:2576  x */\n      dup5\n        /* \"FixedPointMathLib.sol\":2572:2573  z */\n      dup3\n        /* \"FixedPointMathLib.sol\":2568:2577  div(z, x) */\n      div\n        /* \"FixedPointMathLib.sol\":2565:2581  eq(div(z, x), y) */\n      eq\n        /* \"FixedPointMathLib.sol\":2561:2562  x */\n      dup5\n        /* \"FixedPointMathLib.sol\":2554:2563  iszero(x) */\n      iszero\n        /* \"FixedPointMathLib.sol\":2551:2582  or(iszero(x), eq(div(z, x), y)) */\n      or\n        /* \"FixedPointMathLib.sol\":2516:2527  denominator */\n      dup3\n        /* \"FixedPointMathLib.sol\":2509:2528  iszero(denominator) */\n      iszero\n        /* \"FixedPointMathLib.sol\":2502:2529  iszero(iszero(denominator)) */\n      iszero\n        /* \"FixedPointMathLib.sol\":2477:2600  and(... */\n      and\n        /* \"FixedPointMathLib.sol\":2450:2659  if iszero(... */\n      tag_297\n      jumpi\n        /* \"FixedPointMathLib.sol\":2643:2644  0 */\n      0x00\n        /* \"FixedPointMathLib.sol\":2640:2641  0 */\n      dup1\n        /* \"FixedPointMathLib.sol\":2633:2645  revert(0, 0) */\n      revert\n        /* \"FixedPointMathLib.sol\":2450:2659  if iszero(... */\n    tag_297:\n        /* \"FixedPointMathLib.sol\":2957:2958  1 */\n      0x01\n        /* \"FixedPointMathLib.sol\":2943:2954  denominator */\n      dup3\n        /* \"FixedPointMathLib.sol\":2939:2940  1 */\n      0x01\n        /* \"FixedPointMathLib.sol\":2936:2937  z */\n      dup4\n        /* \"FixedPointMathLib.sol\":2932:2941  sub(z, 1) */\n      sub\n        /* \"FixedPointMathLib.sol\":2928:2955  div(sub(z, 1), denominator) */\n      div\n        /* \"FixedPointMathLib.sol\":2924:2959  add(div(sub(z, 1), denominator), 1) */\n      add\n        /* \"FixedPointMathLib.sol\":2919:2920  z */\n      dup2\n        /* \"FixedPointMathLib.sol\":2912:2921  iszero(z) */\n      iszero\n        /* \"FixedPointMathLib.sol\":2905:2922  iszero(iszero(z)) */\n      iszero\n        /* \"FixedPointMathLib.sol\":2901:2960  mul(iszero(iszero(z)), add(div(sub(z, 1), denominator), 1)) */\n      mul\n        /* \"FixedPointMathLib.sol\":2896:2960  z := mul(iszero(iszero(z)), add(div(sub(z, 1), denominator), 1)) */\n      swap1\n      pop\n        /* \"FixedPointMathLib.sol\":2136:2976  function mulDivUp(... */\n      swap4\n      swap3\n      pop\n      pop\n      pop\n      jump\t// out\n        /* \"ERC20.sol\":5698:6190  function computeDomainSeparator() internal view virtual returns (bytes32) {... */\n    tag_204:\n        /* \"ERC20.sol\":5763:5770  bytes32 */\n      0x00\n        /* \"ERC20.sol\":5860:6001  keccak256(... */\n      0x8b73c3c69bb8fe3d512ecc4cf759cc79239f7b179b0ffacaa9a75d522b39400f\n        /* \"ERC20.sol\":6039:6043  name */\n      0x00\n        /* \"ERC20.sol\":6023:6045  keccak256(bytes(name)) */\n      mload(0x40)\n      tag_299\n      swap2\n      swap1\n      tag_300\n      jump\t// in\n    tag_299:\n      mload(0x40)\n      dup1\n      swap2\n      sub\n      swap1\n      keccak256\n        /* \"ERC20.sol\":6067:6081  keccak256(\"1\") */\n      0xc89efdaa54c0f20c7adf612882df0950f5a951637e0307cdcb4c672f298b8bc6\n        /* \"ERC20.sol\":6103:6116  block.chainid */\n      chainid\n        /* \"ERC20.sol\":6146:6150  this */\n      address\n        /* \"ERC20.sol\":5828:6169  abi.encode(... */\n      add(0x20, mload(0x40))\n      tag_301\n      swap6\n      swap5\n      swap4\n      swap3\n      swap2\n      swap1\n      tag_302\n      jump\t// in\n    tag_301:\n      mload(0x40)\n      0x20\n      dup2\n      dup4\n      sub\n      sub\n      dup2\n      mstore\n      swap1\n      0x40\n      mstore\n        /* \"ERC20.sol\":5801:6183  keccak256(... */\n      dup1\n      mload\n      swap1\n      0x20\n      add\n      keccak256\n        /* \"ERC20.sol\":5782:6183  return... */\n      swap1\n      pop\n        /* \"ERC20.sol\":5698:6190  function computeDomainSeparator() internal view virtual returns (bytes32) {... */\n      swap1\n      jump\t// out\n        /* \"SafeTransferLib.sol\":1277:2954  function safeTransferFrom(... */\n    tag_215:\n        /* \"SafeTransferLib.sol\":1415:1427  bool success */\n      0x00\n        /* \"SafeTransferLib.sol\":1542:1546  0x40 */\n      0x40\n        /* \"SafeTransferLib.sol\":1536:1547  mload(0x40) */\n      mload\n        /* \"SafeTransferLib.sol\":1717:1783  0x23b872dd00000000000000000000000000000000000000000000000000000000 */\n      0x23b872dd00000000000000000000000000000000000000000000000000000000\n        /* \"SafeTransferLib.sol\":1682:1699  freeMemoryPointer */\n      dup2\n        /* \"SafeTransferLib.sol\":1658:1797  mstore(... */\n      mstore\n        /* \"SafeTransferLib.sol\":1844:1848  from */\n      dup5\n        /* \"SafeTransferLib.sol\":1840:1841  4 */\n      0x04\n        /* \"SafeTransferLib.sol\":1821:1838  freeMemoryPointer */\n      dup3\n        /* \"SafeTransferLib.sol\":1817:1842  add(freeMemoryPointer, 4) */\n      add\n        /* \"SafeTransferLib.sol\":1810:1849  mstore(add(freeMemoryPointer, 4), from) */\n      mstore\n        /* \"SafeTransferLib.sol\":1928:1930  to */\n      dup4\n        /* \"SafeTransferLib.sol\":1923:1925  36 */\n      0x24\n        /* \"SafeTransferLib.sol\":1904:1921  freeMemoryPointer */\n      dup3\n        /* \"SafeTransferLib.sol\":1900:1926  add(freeMemoryPointer, 36) */\n      add\n        /* \"SafeTransferLib.sol\":1893:1931  mstore(add(freeMemoryPointer, 36), to) */\n      mstore\n        /* \"SafeTransferLib.sol\":2008:2014  amount */\n      dup3\n        /* \"SafeTransferLib.sol\":2003:2005  68 */\n      0x44\n        /* \"SafeTransferLib.sol\":1984:2001  freeMemoryPointer */\n      dup3\n        /* \"SafeTransferLib.sol\":1980:2006  add(freeMemoryPointer, 68) */\n      add\n        /* \"SafeTransferLib.sol\":1973:2015  mstore(add(freeMemoryPointer, 68), amount) */\n      mstore\n        /* \"SafeTransferLib.sol\":2870:2872  32 */\n      0x20\n        /* \"SafeTransferLib.sol\":2867:2868  0 */\n      0x00\n        /* \"SafeTransferLib.sol\":2862:2865  100 */\n      0x64\n        /* \"SafeTransferLib.sol\":2843:2860  freeMemoryPointer */\n      dup4\n        /* \"SafeTransferLib.sol\":2840:2841  0 */\n      0x00\n        /* \"SafeTransferLib.sol\":2833:2838  token */\n      dup11\n        /* \"SafeTransferLib.sol\":2826:2831  gas() */\n      gas\n        /* \"SafeTransferLib.sol\":2821:2873  call(gas(), token, 0, freeMemoryPointer, 100, 0, 32) */\n      call\n        /* \"SafeTransferLib.sol\":2372:2388  returndatasize() */\n      returndatasize\n        /* \"SafeTransferLib.sol\":2365:2389  iszero(returndatasize()) */\n      iszero\n        /* \"SafeTransferLib.sol\":2339:2341  31 */\n      0x1f\n        /* \"SafeTransferLib.sol\":2321:2337  returndatasize() */\n      returndatasize\n        /* \"SafeTransferLib.sol\":2318:2342  gt(returndatasize(), 31) */\n      gt\n        /* \"SafeTransferLib.sol\":2314:2315  1 */\n      0x01\n        /* \"SafeTransferLib.sol\":2310:2311  0 */\n      0x00\n        /* \"SafeTransferLib.sol\":2304:2312  mload(0) */\n      mload\n        /* \"SafeTransferLib.sol\":2301:2316  eq(mload(0), 1) */\n      eq\n        /* \"SafeTransferLib.sol\":2297:2343  and(eq(mload(0), 1), gt(returndatasize(), 31)) */\n      and\n        /* \"SafeTransferLib.sol\":2273:2407  or(... */\n      or\n        /* \"SafeTransferLib.sol\":2073:2887  and(... */\n      and\n        /* \"SafeTransferLib.sol\":2062:2887  success := and(... */\n      swap2\n      pop\n        /* \"SafeTransferLib.sol\":1447:2897  {... */\n      pop\n        /* \"SafeTransferLib.sol\":2915:2922  success */\n      dup1\n        /* \"SafeTransferLib.sol\":2907:2947  require(success, \"TRANSFER_FROM_FAILED\") */\n      tag_304\n      jumpi\n      mload(0x40)\n      0x08c379a000000000000000000000000000000000000000000000000000000000\n      dup2\n      mstore\n      0x04\n      add\n      tag_305\n      swap1\n      tag_306\n      jump\t// in\n    tag_305:\n      mload(0x40)\n      dup1\n      swap2\n      sub\n      swap1\n      revert\n    tag_304:\n        /* \"SafeTransferLib.sol\":1405:2954  {... */\n      pop\n        /* \"SafeTransferLib.sol\":1277:2954  function safeTransferFrom(... */\n      pop\n      pop\n      pop\n      pop\n      jump\t// out\n        /* \"ERC20.sol\":6384:6709  function _mint(address to, uint256 amount) internal virtual {... */\n    tag_217:\n        /* \"ERC20.sol\":6469:6475  amount */\n      dup1\n        /* \"ERC20.sol\":6454:6465  totalSupply */\n      0x02\n      0x00\n        /* \"ERC20.sol\":6454:6475  totalSupply += amount */\n      dup3\n      dup3\n      sload\n      tag_308\n      swap2\n      swap1\n      tag_309\n      jump\t// in\n    tag_308:\n      swap3\n      pop\n      pop\n      dup2\n      swap1\n      sstore\n      pop\n        /* \"ERC20.sol\":6638:6644  amount */\n      dup1\n        /* \"ERC20.sol\":6621:6630  balanceOf */\n      0x03\n        /* \"ERC20.sol\":6621:6634  balanceOf[to] */\n      0x00\n        /* \"ERC20.sol\":6631:6633  to */\n      dup5\n        /* \"ERC20.sol\":6621:6634  balanceOf[to] */\n      0xffffffffffffffffffffffffffffffffffffffff\n      and\n      0xffffffffffffffffffffffffffffffffffffffff\n      and\n      dup2\n      mstore\n      0x20\n      add\n      swap1\n      dup2\n      mstore\n      0x20\n      add\n      0x00\n      keccak256\n      0x00\n        /* \"ERC20.sol\":6621:6644  balanceOf[to] += amount */\n      dup3\n      dup3\n      sload\n      add\n      swap3\n      pop\n      pop\n      dup2\n      swap1\n      sstore\n      pop\n        /* \"ERC20.sol\":6691:6693  to */\n      dup2\n        /* \"ERC20.sol\":6670:6702  Transfer(address(0), to, amount) */\n      0xffffffffffffffffffffffffffffffffffffffff\n      and\n        /* \"ERC20.sol\":6687:6688  0 */\n      0x00\n        /* \"ERC20.sol\":6670:6702  Transfer(address(0), to, amount) */\n      0xffffffffffffffffffffffffffffffffffffffff\n      and\n      0xddf252ad1be2c89b69c2b068fc378daa952ba7f163c4a11628f55a4df523b3ef\n        /* \"ERC20.sol\":6695:6701  amount */\n      dup4\n        /* \"ERC20.sol\":6670:6702  Transfer(address(0), to, amount) */\n      mload(0x40)\n      tag_310\n      swap2\n      swap1\n      tag_44\n      jump\t// in\n    tag_310:\n      mload(0x40)\n      dup1\n      swap2\n      sub\n      swap1\n      log3\n        /* \"ERC20.sol\":6384:6709  function _mint(address to, uint256 amount) internal virtual {... */\n      pop\n      pop\n      jump\t// out\n        /* \"SquiddyCore.sol\":2027:2133  function afterDeposit(uint256, uint256) internal override {... */\n    tag_221:\n        /* \"SquiddyCore.sol\":2095:2124  afterDepositHookCalledCounter */\n      0x07\n      0x00\n        /* \"SquiddyCore.sol\":2095:2126  afterDepositHookCalledCounter++ */\n      dup2\n      sload\n      dup1\n      swap3\n      swap2\n      swap1\n      tag_312\n      swap1\n      tag_313\n      jump\t// in\n    tag_312:\n      swap2\n      swap1\n      pop\n      sstore\n      pop\n        /* \"SquiddyCore.sol\":2027:2133  function afterDeposit(uint256, uint256) internal override {... */\n      pop\n      pop\n      jump\t// out\n        /* \"SquiddyCore.sol\":1911:2021  function beforeWithdraw(uint256, uint256) internal override {... */\n    tag_247:\n        /* \"SquiddyCore.sol\":1981:2012  beforeWithdrawHookCalledCounter */\n      0x06\n      0x00\n        /* \"SquiddyCore.sol\":1981:2014  beforeWithdrawHookCalledCounter++ */\n      dup2\n      sload\n      dup1\n      swap3\n      swap2\n      swap1\n      tag_315\n      swap1\n      tag_313\n      jump\t// in\n    tag_315:\n      swap2\n      swap1\n      pop\n      sstore\n      pop\n        /* \"SquiddyCore.sol\":1911:2021  function beforeWithdraw(uint256, uint256) internal override {... */\n      pop\n      pop\n      jump\t// out\n        /* \"ERC20.sol\":6715:7043  function _burn(address from, uint256 amount) internal virtual {... */\n    tag_249:\n        /* \"ERC20.sol\":6806:6812  amount */\n      dup1\n        /* \"ERC20.sol\":6787:6796  balanceOf */\n      0x03\n        /* \"ERC20.sol\":6787:6802  balanceOf[from] */\n      0x00\n        /* \"ERC20.sol\":6797:6801  from */\n      dup5\n        /* \"ERC20.sol\":6787:6802  balanceOf[from] */\n      0xffffffffffffffffffffffffffffffffffffffff\n      and\n      0xffffffffffffffffffffffffffffffffffffffff\n      and\n      dup2\n      mstore\n      0x20\n      add\n      swap1\n      dup2\n      mstore\n      0x20\n      add\n      0x00\n      keccak256\n      0x00\n        /* \"ERC20.sol\":6787:6812  balanceOf[from] -= amount */\n      dup3\n      dup3\n      sload\n      tag_317\n      swap2\n      swap1\n      tag_198\n      jump\t// in\n    tag_317:\n      swap3\n      pop\n      pop\n      dup2\n      swap1\n      sstore\n      pop\n        /* \"ERC20.sol\":6970:6976  amount */\n      dup1\n        /* \"ERC20.sol\":6955:6966  totalSupply */\n      0x02\n      0x00\n        /* \"ERC20.sol\":6955:6976  totalSupply -= amount */\n      dup3\n      dup3\n      sload\n      sub\n      swap3\n      pop\n      pop\n      dup2\n      swap1\n      sstore\n      pop\n        /* \"ERC20.sol\":7025:7026  0 */\n      0x00\n        /* \"ERC20.sol\":7002:7036  Transfer(from, address(0), amount) */\n      0xffffffffffffffffffffffffffffffffffffffff\n      and\n        /* \"ERC20.sol\":7011:7015  from */\n      dup3\n        /* \"ERC20.sol\":7002:7036  Transfer(from, address(0), amount) */\n      0xffffffffffffffffffffffffffffffffffffffff\n      and\n      0xddf252ad1be2c89b69c2b068fc378daa952ba7f163c4a11628f55a4df523b3ef\n        /* \"ERC20.sol\":7029:7035  amount */\n      dup4\n        /* \"ERC20.sol\":7002:7036  Transfer(from, address(0), amount) */\n      mload(0x40)\n      tag_318\n      swap2\n      swap1\n      tag_44\n      jump\t// in\n    tag_318:\n      mload(0x40)\n      dup1\n      swap2\n      sub\n      swap1\n      log3\n        /* \"ERC20.sol\":6715:7043  function _burn(address from, uint256 amount) internal virtual {... */\n      pop\n      pop\n      jump\t// out\n        /* \"SafeTransferLib.sol\":2960:4520  function safeTransfer(... */\n    tag_252:\n        /* \"SafeTransferLib.sol\":3072:3084  bool success */\n      0x00\n        /* \"SafeTransferLib.sol\":3199:3203  0x40 */\n      0x40\n        /* \"SafeTransferLib.sol\":3193:3204  mload(0x40) */\n      mload\n        /* \"SafeTransferLib.sol\":3374:3440  0xa9059cbb00000000000000000000000000000000000000000000000000000000 */\n      0xa9059cbb00000000000000000000000000000000000000000000000000000000\n        /* \"SafeTransferLib.sol\":3339:3356  freeMemoryPointer */\n      dup2\n        /* \"SafeTransferLib.sol\":3315:3454  mstore(... */\n      mstore\n        /* \"SafeTransferLib.sol\":3501:3503  to */\n      dup4\n        /* \"SafeTransferLib.sol\":3497:3498  4 */\n      0x04\n        /* \"SafeTransferLib.sol\":3478:3495  freeMemoryPointer */\n      dup3\n        /* \"SafeTransferLib.sol\":3474:3499  add(freeMemoryPointer, 4) */\n      add\n        /* \"SafeTransferLib.sol\":3467:3504  mstore(add(freeMemoryPointer, 4), to) */\n      mstore\n        /* \"SafeTransferLib.sol\":3581:3587  amount */\n      dup3\n        /* \"SafeTransferLib.sol\":3576:3578  36 */\n      0x24\n        /* \"SafeTransferLib.sol\":3557:3574  freeMemoryPointer */\n      dup3\n        /* \"SafeTransferLib.sol\":3553:3579  add(freeMemoryPointer, 36) */\n      add\n        /* \"SafeTransferLib.sol\":3546:3588  mstore(add(freeMemoryPointer, 36), amount) */\n      mstore\n        /* \"SafeTransferLib.sol\":4441:4443  32 */\n      0x20\n        /* \"SafeTransferLib.sol\":4438:4439  0 */\n      0x00\n        /* \"SafeTransferLib.sol\":4434:4436  68 */\n      0x44\n        /* \"SafeTransferLib.sol\":4415:4432  freeMemoryPointer */\n      dup4\n        /* \"SafeTransferLib.sol\":4412:4413  0 */\n      0x00\n        /* \"SafeTransferLib.sol\":4405:4410  token */\n      dup10\n        /* \"SafeTransferLib.sol\":4398:4403  gas() */\n      gas\n        /* \"SafeTransferLib.sol\":4393:4444  call(gas(), token, 0, freeMemoryPointer, 68, 0, 32) */\n      call\n        /* \"SafeTransferLib.sol\":3945:3961  returndatasize() */\n      returndatasize\n        /* \"SafeTransferLib.sol\":3938:3962  iszero(returndatasize()) */\n      iszero\n        /* \"SafeTransferLib.sol\":3912:3914  31 */\n      0x1f\n        /* \"SafeTransferLib.sol\":3894:3910  returndatasize() */\n      returndatasize\n        /* \"SafeTransferLib.sol\":3891:3915  gt(returndatasize(), 31) */\n      gt\n        /* \"SafeTransferLib.sol\":3887:3888  1 */\n      0x01\n        /* \"SafeTransferLib.sol\":3883:3884  0 */\n      0x00\n        /* \"SafeTransferLib.sol\":3877:3885  mload(0) */\n      mload\n        /* \"SafeTransferLib.sol\":3874:3889  eq(mload(0), 1) */\n      eq\n        /* \"SafeTransferLib.sol\":3870:3916  and(eq(mload(0), 1), gt(returndatasize(), 31)) */\n      and\n        /* \"SafeTransferLib.sol\":3846:3980  or(... */\n      or\n        /* \"SafeTransferLib.sol\":3646:4458  and(... */\n      and\n        /* \"SafeTransferLib.sol\":3635:4458  success := and(... */\n      swap2\n      pop\n        /* \"SafeTransferLib.sol\":3104:4468  {... */\n      pop\n        /* \"SafeTransferLib.sol\":4486:4493  success */\n      dup1\n        /* \"SafeTransferLib.sol\":4478:4513  require(success, \"TRANSFER_FAILED\") */\n      tag_320\n      jumpi\n      mload(0x40)\n      0x08c379a000000000000000000000000000000000000000000000000000000000\n      dup2\n      mstore\n      0x04\n      add\n      tag_321\n      swap1\n      tag_322\n      jump\t// in\n    tag_321:\n      mload(0x40)\n      dup1\n      swap2\n      sub\n      swap1\n      revert\n    tag_320:\n        /* \"SafeTransferLib.sol\":3062:4520  {... */\n      pop\n        /* \"SafeTransferLib.sol\":2960:4520  function safeTransfer(... */\n      pop\n      pop\n      pop\n      jump\t// out\n        /* \"#utility.yul\":7:84   */\n    tag_323:\n        /* \"#utility.yul\":44:51   */\n      0x00\n        /* \"#utility.yul\":73:78   */\n      dup2\n        /* \"#utility.yul\":62:78   */\n      swap1\n      pop\n        /* \"#utility.yul\":7:84   */\n      swap2\n      swap1\n      pop\n      jump\t// out\n        /* \"#utility.yul\":90:208   */\n    tag_324:\n        /* \"#utility.yul\":177:201   */\n      tag_381\n        /* \"#utility.yul\":195:200   */\n      dup2\n        /* \"#utility.yul\":177:201   */\n      tag_323\n      jump\t// in\n    tag_381:\n        /* \"#utility.yul\":172:175   */\n      dup3\n        /* \"#utility.yul\":165:202   */\n      mstore\n        /* \"#utility.yul\":90:208   */\n      pop\n      pop\n      jump\t// out\n        /* \"#utility.yul\":214:436   */\n    tag_44:\n        /* \"#utility.yul\":307:311   */\n      0x00\n        /* \"#utility.yul\":345:347   */\n      0x20\n        /* \"#utility.yul\":334:343   */\n      dup3\n        /* \"#utility.yul\":330:348   */\n      add\n        /* \"#utility.yul\":322:348   */\n      swap1\n      pop\n        /* \"#utility.yul\":358:429   */\n      tag_383\n        /* \"#utility.yul\":426:427   */\n      0x00\n        /* \"#utility.yul\":415:424   */\n      dup4\n        /* \"#utility.yul\":411:428   */\n      add\n        /* \"#utility.yul\":402:408   */\n      dup5\n        /* \"#utility.yul\":358:429   */\n      tag_324\n      jump\t// in\n    tag_383:\n        /* \"#utility.yul\":214:436   */\n      swap3\n      swap2\n      pop\n      pop\n      jump\t// out\n        /* \"#utility.yul\":442:541   */\n    tag_325:\n        /* \"#utility.yul\":494:500   */\n      0x00\n        /* \"#utility.yul\":528:533   */\n      dup2\n        /* \"#utility.yul\":522:534   */\n      mload\n        /* \"#utility.yul\":512:534   */\n      swap1\n      pop\n        /* \"#utility.yul\":442:541   */\n      swap2\n      swap1\n      pop\n      jump\t// out\n        /* \"#utility.yul\":547:716   */\n    tag_326:\n        /* \"#utility.yul\":631:642   */\n      0x00\n        /* \"#utility.yul\":665:671   */\n      dup3\n        /* \"#utility.yul\":660:663   */\n      dup3\n        /* \"#utility.yul\":653:672   */\n      mstore\n        /* \"#utility.yul\":705:709   */\n      0x20\n        /* \"#utility.yul\":700:703   */\n      dup3\n        /* \"#utility.yul\":696:710   */\n      add\n        /* \"#utility.yul\":681:710   */\n      swap1\n      pop\n        /* \"#utility.yul\":547:716   */\n      swap3\n      swap2\n      pop\n      pop\n      jump\t// out\n        /* \"#utility.yul\":722:1029   */\n    tag_327:\n        /* \"#utility.yul\":790:791   */\n      0x00\n        /* \"#utility.yul\":800:913   */\n    tag_387:\n        /* \"#utility.yul\":814:820   */\n      dup4\n        /* \"#utility.yul\":811:812   */\n      dup2\n        /* \"#utility.yul\":808:821   */\n      lt\n        /* \"#utility.yul\":800:913   */\n      iszero\n      tag_389\n      jumpi\n        /* \"#utility.yul\":899:900   */\n      dup1\n        /* \"#utility.yul\":894:897   */\n      dup3\n        /* \"#utility.yul\":890:901   */\n      add\n        /* \"#utility.yul\":884:902   */\n      mload\n        /* \"#utility.yul\":880:881   */\n      dup2\n        /* \"#utility.yul\":875:878   */\n      dup5\n        /* \"#utility.yul\":871:882   */\n      add\n        /* \"#utility.yul\":864:903   */\n      mstore\n        /* \"#utility.yul\":836:838   */\n      0x20\n        /* \"#utility.yul\":833:834   */\n      dup2\n        /* \"#utility.yul\":829:839   */\n      add\n        /* \"#utility.yul\":824:839   */\n      swap1\n      pop\n        /* \"#utility.yul\":800:913   */\n      jump(tag_387)\n    tag_389:\n        /* \"#utility.yul\":931:937   */\n      dup4\n        /* \"#utility.yul\":928:929   */\n      dup2\n        /* \"#utility.yul\":925:938   */\n      gt\n        /* \"#utility.yul\":922:1023   */\n      iszero\n      tag_390\n      jumpi\n        /* \"#utility.yul\":1011:1012   */\n      0x00\n        /* \"#utility.yul\":1002:1008   */\n      dup5\n        /* \"#utility.yul\":997:1000   */\n      dup5\n        /* \"#utility.yul\":993:1009   */\n      add\n        /* \"#utility.yul\":986:1013   */\n      mstore\n        /* \"#utility.yul\":922:1023   */\n    tag_390:\n        /* \"#utility.yul\":771:1029   */\n      pop\n        /* \"#utility.yul\":722:1029   */\n      pop\n      pop\n      pop\n      jump\t// out\n        /* \"#utility.yul\":1035:1137   */\n    tag_328:\n        /* \"#utility.yul\":1076:1082   */\n      0x00\n        /* \"#utility.yul\":1127:1129   */\n      0x1f\n        /* \"#utility.yul\":1123:1130   */\n      not\n        /* \"#utility.yul\":1118:1120   */\n      0x1f\n        /* \"#utility.yul\":1111:1116   */\n      dup4\n        /* \"#utility.yul\":1107:1121   */\n      add\n        /* \"#utility.yul\":1103:1131   */\n      and\n        /* \"#utility.yul\":1093:1131   */\n      swap1\n      pop\n        /* \"#utility.yul\":1035:1137   */\n      swap2\n      swap1\n      pop\n      jump\t// out\n        /* \"#utility.yul\":1143:1507   */\n    tag_329:\n        /* \"#utility.yul\":1231:1234   */\n      0x00\n        /* \"#utility.yul\":1259:1298   */\n      tag_393\n        /* \"#utility.yul\":1292:1297   */\n      dup3\n        /* \"#utility.yul\":1259:1298   */\n      tag_325\n      jump\t// in\n    tag_393:\n        /* \"#utility.yul\":1314:1385   */\n      tag_394\n        /* \"#utility.yul\":1378:1384   */\n      dup2\n        /* \"#utility.yul\":1373:1376   */\n      dup6\n        /* \"#utility.yul\":1314:1385   */\n      tag_326\n      jump\t// in\n    tag_394:\n        /* \"#utility.yul\":1307:1385   */\n      swap4\n      pop\n        /* \"#utility.yul\":1394:1446   */\n      tag_395\n        /* \"#utility.yul\":1439:1445   */\n      dup2\n        /* \"#utility.yul\":1434:1437   */\n      dup6\n        /* \"#utility.yul\":1427:1431   */\n      0x20\n        /* \"#utility.yul\":1420:1425   */\n      dup7\n        /* \"#utility.yul\":1416:1432   */\n      add\n        /* \"#utility.yul\":1394:1446   */\n      tag_327\n      jump\t// in\n    tag_395:\n        /* \"#utility.yul\":1471:1500   */\n      tag_396\n        /* \"#utility.yul\":1493:1499   */\n      dup2\n        /* \"#utility.yul\":1471:1500   */\n      tag_328\n      jump\t// in\n    tag_396:\n        /* \"#utility.yul\":1466:1469   */\n      dup5\n        /* \"#utility.yul\":1462:1501   */\n      add\n        /* \"#utility.yul\":1455:1501   */\n      swap2\n      pop\n        /* \"#utility.yul\":1235:1507   */\n      pop\n        /* \"#utility.yul\":1143:1507   */\n      swap3\n      swap2\n      pop\n      pop\n      jump\t// out\n        /* \"#utility.yul\":1513:1826   */\n    tag_48:\n        /* \"#utility.yul\":1626:1630   */\n      0x00\n        /* \"#utility.yul\":1664:1666   */\n      0x20\n        /* \"#utility.yul\":1653:1662   */\n      dup3\n        /* \"#utility.yul\":1649:1667   */\n      add\n        /* \"#utility.yul\":1641:1667   */\n      swap1\n      pop\n        /* \"#utility.yul\":1713:1722   */\n      dup2\n        /* \"#utility.yul\":1707:1711   */\n      dup2\n        /* \"#utility.yul\":1703:1723   */\n      sub\n        /* \"#utility.yul\":1699:1700   */\n      0x00\n        /* \"#utility.yul\":1688:1697   */\n      dup4\n        /* \"#utility.yul\":1684:1701   */\n      add\n        /* \"#utility.yul\":1677:1724   */\n      mstore\n        /* \"#utility.yul\":1741:1819   */\n      tag_398\n        /* \"#utility.yul\":1814:1818   */\n      dup2\n        /* \"#utility.yul\":1805:1811   */\n      dup5\n        /* \"#utility.yul\":1741:1819   */\n      tag_329\n      jump\t// in\n    tag_398:\n        /* \"#utility.yul\":1733:1819   */\n      swap1\n      pop\n        /* \"#utility.yul\":1513:1826   */\n      swap3\n      swap2\n      pop\n      pop\n      jump\t// out\n        /* \"#utility.yul\":1913:2030   */\n    tag_331:\n        /* \"#utility.yul\":2022:2023   */\n      0x00\n        /* \"#utility.yul\":2019:2020   */\n      dup1\n        /* \"#utility.yul\":2012:2024   */\n      revert\n        /* \"#utility.yul\":2159:2281   */\n    tag_333:\n        /* \"#utility.yul\":2232:2256   */\n      tag_403\n        /* \"#utility.yul\":2250:2255   */\n      dup2\n        /* \"#utility.yul\":2232:2256   */\n      tag_323\n      jump\t// in\n    tag_403:\n        /* \"#utility.yul\":2225:2230   */\n      dup2\n        /* \"#utility.yul\":2222:2257   */\n      eq\n        /* \"#utility.yul\":2212:2275   */\n      tag_404\n      jumpi\n        /* \"#utility.yul\":2271:2272   */\n      0x00\n        /* \"#utility.yul\":2268:2269   */\n      dup1\n        /* \"#utility.yul\":2261:2273   */\n      revert\n        /* \"#utility.yul\":2212:2275   */\n    tag_404:\n        /* \"#utility.yul\":2159:2281   */\n      pop\n      jump\t// out\n        /* \"#utility.yul\":2287:2426   */\n    tag_334:\n        /* \"#utility.yul\":2333:2338   */\n      0x00\n        /* \"#utility.yul\":2371:2377   */\n      dup2\n        /* \"#utility.yul\":2358:2378   */\n      calldataload\n        /* \"#utility.yul\":2349:2378   */\n      swap1\n      pop\n        /* \"#utility.yul\":2387:2420   */\n      tag_406\n        /* \"#utility.yul\":2414:2419   */\n      dup2\n        /* \"#utility.yul\":2387:2420   */\n      tag_333\n      jump\t// in\n    tag_406:\n        /* \"#utility.yul\":2287:2426   */\n      swap3\n      swap2\n      pop\n      pop\n      jump\t// out\n        /* \"#utility.yul\":2432:2761   */\n    tag_51:\n        /* \"#utility.yul\":2491:2497   */\n      0x00\n        /* \"#utility.yul\":2540:2542   */\n      0x20\n        /* \"#utility.yul\":2528:2537   */\n      dup3\n        /* \"#utility.yul\":2519:2526   */\n      dup5\n        /* \"#utility.yul\":2515:2538   */\n      sub\n        /* \"#utility.yul\":2511:2543   */\n      slt\n        /* \"#utility.yul\":2508:2627   */\n      iszero\n      tag_408\n      jumpi\n        /* \"#utility.yul\":2546:2625   */\n      tag_409\n      tag_331\n      jump\t// in\n    tag_409:\n        /* \"#utility.yul\":2508:2627   */\n    tag_408:\n        /* \"#utility.yul\":2666:2667   */\n      0x00\n        /* \"#utility.yul\":2691:2744   */\n      tag_410\n        /* \"#utility.yul\":2736:2743   */\n      dup5\n        /* \"#utility.yul\":2727:2733   */\n      dup3\n        /* \"#utility.yul\":2716:2725   */\n      dup6\n        /* \"#utility.yul\":2712:2734   */\n      add\n        /* \"#utility.yul\":2691:2744   */\n      tag_334\n      jump\t// in\n    tag_410:\n        /* \"#utility.yul\":2681:2744   */\n      swap2\n      pop\n        /* \"#utility.yul\":2637:2754   */\n      pop\n        /* \"#utility.yul\":2432:2761   */\n      swap3\n      swap2\n      pop\n      pop\n      jump\t// out\n        /* \"#utility.yul\":2767:2893   */\n    tag_335:\n        /* \"#utility.yul\":2804:2811   */\n      0x00\n        /* \"#utility.yul\":2844:2886   */\n      0xffffffffffffffffffffffffffffffffffffffff\n        /* \"#utility.yul\":2837:2842   */\n      dup3\n        /* \"#utility.yul\":2833:2887   */\n      and\n        /* \"#utility.yul\":2822:2887   */\n      swap1\n      pop\n        /* \"#utility.yul\":2767:2893   */\n      swap2\n      swap1\n      pop\n      jump\t// out\n        /* \"#utility.yul\":2899:2995   */\n    tag_336:\n        /* \"#utility.yul\":2936:2943   */\n      0x00\n        /* \"#utility.yul\":2965:2989   */\n      tag_413\n        /* \"#utility.yul\":2983:2988   */\n      dup3\n        /* \"#utility.yul\":2965:2989   */\n      tag_335\n      jump\t// in\n    tag_413:\n        /* \"#utility.yul\":2954:2989   */\n      swap1\n      pop\n        /* \"#utility.yul\":2899:2995   */\n      swap2\n      swap1\n      pop\n      jump\t// out\n        /* \"#utility.yul\":3001:3123   */\n    tag_337:\n        /* \"#utility.yul\":3074:3098   */\n      tag_415\n        /* \"#utility.yul\":3092:3097   */\n      dup2\n        /* \"#utility.yul\":3074:3098   */\n      tag_336\n      jump\t// in\n    tag_415:\n        /* \"#utility.yul\":3067:3072   */\n      dup2\n        /* \"#utility.yul\":3064:3099   */\n      eq\n        /* \"#utility.yul\":3054:3117   */\n      tag_416\n      jumpi\n        /* \"#utility.yul\":3113:3114   */\n      0x00\n        /* \"#utility.yul\":3110:3111   */\n      dup1\n        /* \"#utility.yul\":3103:3115   */\n      revert\n        /* \"#utility.yul\":3054:3117   */\n    tag_416:\n        /* \"#utility.yul\":3001:3123   */\n      pop\n      jump\t// out\n        /* \"#utility.yul\":3129:3268   */\n    tag_338:\n        /* \"#utility.yul\":3175:3180   */\n      0x00\n        /* \"#utility.yul\":3213:3219   */\n      dup2\n        /* \"#utility.yul\":3200:3220   */\n      calldataload\n        /* \"#utility.yul\":3191:3220   */\n      swap1\n      pop\n        /* \"#utility.yul\":3229:3262   */\n      tag_418\n        /* \"#utility.yul\":3256:3261   */\n      dup2\n        /* \"#utility.yul\":3229:3262   */\n      tag_337\n      jump\t// in\n    tag_418:\n        /* \"#utility.yul\":3129:3268   */\n      swap3\n      swap2\n      pop\n      pop\n      jump\t// out\n        /* \"#utility.yul\":3274:3748   */\n    tag_56:\n        /* \"#utility.yul\":3342:3348   */\n      0x00\n        /* \"#utility.yul\":3350:3356   */\n      dup1\n        /* \"#utility.yul\":3399:3401   */\n      0x40\n        /* \"#utility.yul\":3387:3396   */\n      dup4\n        /* \"#utility.yul\":3378:3385   */\n      dup6\n        /* \"#utility.yul\":3374:3397   */\n      sub\n        /* \"#utility.yul\":3370:3402   */\n      slt\n        /* \"#utility.yul\":3367:3486   */\n      iszero\n      tag_420\n      jumpi\n        /* \"#utility.yul\":3405:3484   */\n      tag_421\n      tag_331\n      jump\t// in\n    tag_421:\n        /* \"#utility.yul\":3367:3486   */\n    tag_420:\n        /* \"#utility.yul\":3525:3526   */\n      0x00\n        /* \"#utility.yul\":3550:3603   */\n      tag_422\n        /* \"#utility.yul\":3595:3602   */\n      dup6\n        /* \"#utility.yul\":3586:3592   */\n      dup3\n        /* \"#utility.yul\":3575:3584   */\n      dup7\n        /* \"#utility.yul\":3571:3593   */\n      add\n        /* \"#utility.yul\":3550:3603   */\n      tag_338\n      jump\t// in\n    tag_422:\n        /* \"#utility.yul\":3540:3603   */\n      swap3\n      pop\n        /* \"#utility.yul\":3496:3613   */\n      pop\n        /* \"#utility.yul\":3652:3654   */\n      0x20\n        /* \"#utility.yul\":3678:3731   */\n      tag_423\n        /* \"#utility.yul\":3723:3730   */\n      dup6\n        /* \"#utility.yul\":3714:3720   */\n      dup3\n        /* \"#utility.yul\":3703:3712   */\n      dup7\n        /* \"#utility.yul\":3699:3721   */\n      add\n        /* \"#utility.yul\":3678:3731   */\n      tag_334\n      jump\t// in\n    tag_423:\n        /* \"#utility.yul\":3668:3731   */\n      swap2\n      pop\n        /* \"#utility.yul\":3623:3741   */\n      pop\n        /* \"#utility.yul\":3274:3748   */\n      swap3\n      pop\n      swap3\n      swap1\n      pop\n      jump\t// out\n        /* \"#utility.yul\":3754:3844   */\n    tag_339:\n        /* \"#utility.yul\":3788:3795   */\n      0x00\n        /* \"#utility.yul\":3831:3836   */\n      dup2\n        /* \"#utility.yul\":3824:3837   */\n      iszero\n        /* \"#utility.yul\":3817:3838   */\n      iszero\n        /* \"#utility.yul\":3806:3838   */\n      swap1\n      pop\n        /* \"#utility.yul\":3754:3844   */\n      swap2\n      swap1\n      pop\n      jump\t// out\n        /* \"#utility.yul\":3850:3959   */\n    tag_340:\n        /* \"#utility.yul\":3931:3952   */\n      tag_426\n        /* \"#utility.yul\":3946:3951   */\n      dup2\n        /* \"#utility.yul\":3931:3952   */\n      tag_339\n      jump\t// in\n    tag_426:\n        /* \"#utility.yul\":3926:3929   */\n      dup3\n        /* \"#utility.yul\":3919:3953   */\n      mstore\n        /* \"#utility.yul\":3850:3959   */\n      pop\n      pop\n      jump\t// out\n        /* \"#utility.yul\":3965:4175   */\n    tag_59:\n        /* \"#utility.yul\":4052:4056   */\n      0x00\n        /* \"#utility.yul\":4090:4092   */\n      0x20\n        /* \"#utility.yul\":4079:4088   */\n      dup3\n        /* \"#utility.yul\":4075:4093   */\n      add\n        /* \"#utility.yul\":4067:4093   */\n      swap1\n      pop\n        /* \"#utility.yul\":4103:4168   */\n      tag_428\n        /* \"#utility.yul\":4165:4166   */\n      0x00\n        /* \"#utility.yul\":4154:4163   */\n      dup4\n        /* \"#utility.yul\":4150:4167   */\n      add\n        /* \"#utility.yul\":4141:4147   */\n      dup5\n        /* \"#utility.yul\":4103:4168   */\n      tag_340\n      jump\t// in\n    tag_428:\n        /* \"#utility.yul\":3965:4175   */\n      swap3\n      swap2\n      pop\n      pop\n      jump\t// out\n        /* \"#utility.yul\":4181:4800   */\n    tag_69:\n        /* \"#utility.yul\":4258:4264   */\n      0x00\n        /* \"#utility.yul\":4266:4272   */\n      dup1\n        /* \"#utility.yul\":4274:4280   */\n      0x00\n        /* \"#utility.yul\":4323:4325   */\n      0x60\n        /* \"#utility.yul\":4311:4320   */\n      dup5\n        /* \"#utility.yul\":4302:4309   */\n      dup7\n        /* \"#utility.yul\":4298:4321   */\n      sub\n        /* \"#utility.yul\":4294:4326   */\n      slt\n        /* \"#utility.yul\":4291:4410   */\n      iszero\n      tag_430\n      jumpi\n        /* \"#utility.yul\":4329:4408   */\n      tag_431\n      tag_331\n      jump\t// in\n    tag_431:\n        /* \"#utility.yul\":4291:4410   */\n    tag_430:\n        /* \"#utility.yul\":4449:4450   */\n      0x00\n        /* \"#utility.yul\":4474:4527   */\n      tag_432\n        /* \"#utility.yul\":4519:4526   */\n      dup7\n        /* \"#utility.yul\":4510:4516   */\n      dup3\n        /* \"#utility.yul\":4499:4508   */\n      dup8\n        /* \"#utility.yul\":4495:4517   */\n      add\n        /* \"#utility.yul\":4474:4527   */\n      tag_338\n      jump\t// in\n    tag_432:\n        /* \"#utility.yul\":4464:4527   */\n      swap4\n      pop\n        /* \"#utility.yul\":4420:4537   */\n      pop\n        /* \"#utility.yul\":4576:4578   */\n      0x20\n        /* \"#utility.yul\":4602:4655   */\n      tag_433\n        /* \"#utility.yul\":4647:4654   */\n      dup7\n        /* \"#utility.yul\":4638:4644   */\n      dup3\n        /* \"#utility.yul\":4627:4636   */\n      dup8\n        /* \"#utility.yul\":4623:4645   */\n      add\n        /* \"#utility.yul\":4602:4655   */\n      tag_338\n      jump\t// in\n    tag_433:\n        /* \"#utility.yul\":4592:4655   */\n      swap3\n      pop\n        /* \"#utility.yul\":4547:4665   */\n      pop\n        /* \"#utility.yul\":4704:4706   */\n      0x40\n        /* \"#utility.yul\":4730:4783   */\n      tag_434\n        /* \"#utility.yul\":4775:4782   */\n      dup7\n        /* \"#utility.yul\":4766:4772   */\n      dup3\n        /* \"#utility.yul\":4755:4764   */\n      dup8\n        /* \"#utility.yul\":4751:4773   */\n      add\n        /* \"#utility.yul\":4730:4783   */\n      tag_334\n      jump\t// in\n    tag_434:\n        /* \"#utility.yul\":4720:4783   */\n      swap2\n      pop\n        /* \"#utility.yul\":4675:4793   */\n      pop\n        /* \"#utility.yul\":4181:4800   */\n      swap3\n      pop\n      swap3\n      pop\n      swap3\n      jump\t// out\n        /* \"#utility.yul\":4806:4892   */\n    tag_341:\n        /* \"#utility.yul\":4841:4848   */\n      0x00\n        /* \"#utility.yul\":4881:4885   */\n      0xff\n        /* \"#utility.yul\":4874:4879   */\n      dup3\n        /* \"#utility.yul\":4870:4886   */\n      and\n        /* \"#utility.yul\":4859:4886   */\n      swap1\n      pop\n        /* \"#utility.yul\":4806:4892   */\n      swap2\n      swap1\n      pop\n      jump\t// out\n        /* \"#utility.yul\":4898:5010   */\n    tag_342:\n        /* \"#utility.yul\":4981:5003   */\n      tag_437\n        /* \"#utility.yul\":4997:5002   */\n      dup2\n        /* \"#utility.yul\":4981:5003   */\n      tag_341\n      jump\t// in\n    tag_437:\n        /* \"#utility.yul\":4976:4979   */\n      dup3\n        /* \"#utility.yul\":4969:5004   */\n      mstore\n        /* \"#utility.yul\":4898:5010   */\n      pop\n      pop\n      jump\t// out\n        /* \"#utility.yul\":5016:5230   */\n    tag_75:\n        /* \"#utility.yul\":5105:5109   */\n      0x00\n        /* \"#utility.yul\":5143:5145   */\n      0x20\n        /* \"#utility.yul\":5132:5141   */\n      dup3\n        /* \"#utility.yul\":5128:5146   */\n      add\n        /* \"#utility.yul\":5120:5146   */\n      swap1\n      pop\n        /* \"#utility.yul\":5156:5223   */\n      tag_439\n        /* \"#utility.yul\":5220:5221   */\n      0x00\n        /* \"#utility.yul\":5209:5218   */\n      dup4\n        /* \"#utility.yul\":5205:5222   */\n      add\n        /* \"#utility.yul\":5196:5202   */\n      dup5\n        /* \"#utility.yul\":5156:5223   */\n      tag_342\n      jump\t// in\n    tag_439:\n        /* \"#utility.yul\":5016:5230   */\n      swap3\n      swap2\n      pop\n      pop\n      jump\t// out\n        /* \"#utility.yul\":5236:5313   */\n    tag_343:\n        /* \"#utility.yul\":5273:5280   */\n      0x00\n        /* \"#utility.yul\":5302:5307   */\n      dup2\n        /* \"#utility.yul\":5291:5307   */\n      swap1\n      pop\n        /* \"#utility.yul\":5236:5313   */\n      swap2\n      swap1\n      pop\n      jump\t// out\n        /* \"#utility.yul\":5319:5437   */\n    tag_344:\n        /* \"#utility.yul\":5406:5430   */\n      tag_442\n        /* \"#utility.yul\":5424:5429   */\n      dup2\n        /* \"#utility.yul\":5406:5430   */\n      tag_343\n      jump\t// in\n    tag_442:\n        /* \"#utility.yul\":5401:5404   */\n      dup3\n        /* \"#utility.yul\":5394:5431   */\n      mstore\n        /* \"#utility.yul\":5319:5437   */\n      pop\n      pop\n      jump\t// out\n        /* \"#utility.yul\":5443:5665   */\n    tag_79:\n        /* \"#utility.yul\":5536:5540   */\n      0x00\n        /* \"#utility.yul\":5574:5576   */\n      0x20\n        /* \"#utility.yul\":5563:5572   */\n      dup3\n        /* \"#utility.yul\":5559:5577   */\n      add\n        /* \"#utility.yul\":5551:5577   */\n      swap1\n      pop\n        /* \"#utility.yul\":5587:5658   */\n      tag_444\n        /* \"#utility.yul\":5655:5656   */\n      0x00\n        /* \"#utility.yul\":5644:5653   */\n      dup4\n        /* \"#utility.yul\":5640:5657   */\n      add\n        /* \"#utility.yul\":5631:5637   */\n      dup5\n        /* \"#utility.yul\":5587:5658   */\n      tag_344\n      jump\t// in\n    tag_444:\n        /* \"#utility.yul\":5443:5665   */\n      swap3\n      swap2\n      pop\n      pop\n      jump\t// out\n        /* \"#utility.yul\":5671:5731   */\n    tag_345:\n        /* \"#utility.yul\":5699:5702   */\n      0x00\n        /* \"#utility.yul\":5720:5725   */\n      dup2\n        /* \"#utility.yul\":5713:5725   */\n      swap1\n      pop\n        /* \"#utility.yul\":5671:5731   */\n      swap2\n      swap1\n      pop\n      jump\t// out\n        /* \"#utility.yul\":5737:5879   */\n    tag_346:\n        /* \"#utility.yul\":5787:5796   */\n      0x00\n        /* \"#utility.yul\":5820:5873   */\n      tag_447\n        /* \"#utility.yul\":5838:5872   */\n      tag_448\n        /* \"#utility.yul\":5847:5871   */\n      tag_449\n        /* \"#utility.yul\":5865:5870   */\n      dup5\n        /* \"#utility.yul\":5847:5871   */\n      tag_335\n      jump\t// in\n    tag_449:\n        /* \"#utility.yul\":5838:5872   */\n      tag_345\n      jump\t// in\n    tag_448:\n        /* \"#utility.yul\":5820:5873   */\n      tag_335\n      jump\t// in\n    tag_447:\n        /* \"#utility.yul\":5807:5873   */\n      swap1\n      pop\n        /* \"#utility.yul\":5737:5879   */\n      swap2\n      swap1\n      pop\n      jump\t// out\n        /* \"#utility.yul\":5885:6011   */\n    tag_347:\n        /* \"#utility.yul\":5935:5944   */\n      0x00\n        /* \"#utility.yul\":5968:6005   */\n      tag_451\n        /* \"#utility.yul\":5999:6004   */\n      dup3\n        /* \"#utility.yul\":5968:6005   */\n      tag_346\n      jump\t// in\n    tag_451:\n        /* \"#utility.yul\":5955:6005   */\n      swap1\n      pop\n        /* \"#utility.yul\":5885:6011   */\n      swap2\n      swap1\n      pop\n      jump\t// out\n        /* \"#utility.yul\":6017:6156   */\n    tag_348:\n        /* \"#utility.yul\":6080:6089   */\n      0x00\n        /* \"#utility.yul\":6113:6150   */\n      tag_453\n        /* \"#utility.yul\":6144:6149   */\n      dup3\n        /* \"#utility.yul\":6113:6150   */\n      tag_347\n      jump\t// in\n    tag_453:\n        /* \"#utility.yul\":6100:6150   */\n      swap1\n      pop\n        /* \"#utility.yul\":6017:6156   */\n      swap2\n      swap1\n      pop\n      jump\t// out\n        /* \"#utility.yul\":6162:6319   */\n    tag_349:\n        /* \"#utility.yul\":6262:6312   */\n      tag_455\n        /* \"#utility.yul\":6306:6311   */\n      dup2\n        /* \"#utility.yul\":6262:6312   */\n      tag_348\n      jump\t// in\n    tag_455:\n        /* \"#utility.yul\":6257:6260   */\n      dup3\n        /* \"#utility.yul\":6250:6313   */\n      mstore\n        /* \"#utility.yul\":6162:6319   */\n      pop\n      pop\n      jump\t// out\n        /* \"#utility.yul\":6325:6573   */\n    tag_83:\n        /* \"#utility.yul\":6431:6435   */\n      0x00\n        /* \"#utility.yul\":6469:6471   */\n      0x20\n        /* \"#utility.yul\":6458:6467   */\n      dup3\n        /* \"#utility.yul\":6454:6472   */\n      add\n        /* \"#utility.yul\":6446:6472   */\n      swap1\n      pop\n        /* \"#utility.yul\":6482:6566   */\n      tag_457\n        /* \"#utility.yul\":6563:6564   */\n      0x00\n        /* \"#utility.yul\":6552:6561   */\n      dup4\n        /* \"#utility.yul\":6548:6565   */\n      add\n        /* \"#utility.yul\":6539:6545   */\n      dup5\n        /* \"#utility.yul\":6482:6566   */\n      tag_349\n      jump\t// in\n    tag_457:\n        /* \"#utility.yul\":6325:6573   */\n      swap3\n      swap2\n      pop\n      pop\n      jump\t// out\n        /* \"#utility.yul\":6579:6908   */\n    tag_86:\n        /* \"#utility.yul\":6638:6644   */\n      0x00\n        /* \"#utility.yul\":6687:6689   */\n      0x20\n        /* \"#utility.yul\":6675:6684   */\n      dup3\n        /* \"#utility.yul\":6666:6673   */\n      dup5\n        /* \"#utility.yul\":6662:6685   */\n      sub\n        /* \"#utility.yul\":6658:6690   */\n      slt\n        /* \"#utility.yul\":6655:6774   */\n      iszero\n      tag_459\n      jumpi\n        /* \"#utility.yul\":6693:6772   */\n      tag_460\n      tag_331\n      jump\t// in\n    tag_460:\n        /* \"#utility.yul\":6655:6774   */\n    tag_459:\n        /* \"#utility.yul\":6813:6814   */\n      0x00\n        /* \"#utility.yul\":6838:6891   */\n      tag_461\n        /* \"#utility.yul\":6883:6890   */\n      dup5\n        /* \"#utility.yul\":6874:6880   */\n      dup3\n        /* \"#utility.yul\":6863:6872   */\n      dup6\n        /* \"#utility.yul\":6859:6881   */\n      add\n        /* \"#utility.yul\":6838:6891   */\n      tag_338\n      jump\t// in\n    tag_461:\n        /* \"#utility.yul\":6828:6891   */\n      swap2\n      pop\n        /* \"#utility.yul\":6784:6901   */\n      pop\n        /* \"#utility.yul\":6579:6908   */\n      swap3\n      swap2\n      pop\n      pop\n      jump\t// out\n        /* \"#utility.yul\":6914:7388   */\n    tag_95:\n        /* \"#utility.yul\":6982:6988   */\n      0x00\n        /* \"#utility.yul\":6990:6996   */\n      dup1\n        /* \"#utility.yul\":7039:7041   */\n      0x40\n        /* \"#utility.yul\":7027:7036   */\n      dup4\n        /* \"#utility.yul\":7018:7025   */\n      dup6\n        /* \"#utility.yul\":7014:7037   */\n      sub\n        /* \"#utility.yul\":7010:7042   */\n      slt\n        /* \"#utility.yul\":7007:7126   */\n      iszero\n      tag_463\n      jumpi\n        /* \"#utility.yul\":7045:7124   */\n      tag_464\n      tag_331\n      jump\t// in\n    tag_464:\n        /* \"#utility.yul\":7007:7126   */\n    tag_463:\n        /* \"#utility.yul\":7165:7166   */\n      0x00\n        /* \"#utility.yul\":7190:7243   */\n      tag_465\n        /* \"#utility.yul\":7235:7242   */\n      dup6\n        /* \"#utility.yul\":7226:7232   */\n      dup3\n        /* \"#utility.yul\":7215:7224   */\n      dup7\n        /* \"#utility.yul\":7211:7233   */\n      add\n        /* \"#utility.yul\":7190:7243   */\n      tag_334\n      jump\t// in\n    tag_465:\n        /* \"#utility.yul\":7180:7243   */\n      swap3\n      pop\n        /* \"#utility.yul\":7136:7253   */\n      pop\n        /* \"#utility.yul\":7292:7294   */\n      0x20\n        /* \"#utility.yul\":7318:7371   */\n      tag_466\n        /* \"#utility.yul\":7363:7370   */\n      dup6\n        /* \"#utility.yul\":7354:7360   */\n      dup3\n        /* \"#utility.yul\":7343:7352   */\n      dup7\n        /* \"#utility.yul\":7339:7361   */\n      add\n        /* \"#utility.yul\":7318:7371   */\n      tag_338\n      jump\t// in\n    tag_466:\n        /* \"#utility.yul\":7308:7371   */\n      swap2\n      pop\n        /* \"#utility.yul\":7263:7381   */\n      pop\n        /* \"#utility.yul\":6914:7388   */\n      swap3\n      pop\n      swap3\n      swap1\n      pop\n      jump\t// out\n        /* \"#utility.yul\":7394:8013   */\n    tag_123:\n        /* \"#utility.yul\":7471:7477   */\n      0x00\n        /* \"#utility.yul\":7479:7485   */\n      dup1\n        /* \"#utility.yul\":7487:7493   */\n      0x00\n        /* \"#utility.yul\":7536:7538   */\n      0x60\n        /* \"#utility.yul\":7524:7533   */\n      dup5\n        /* \"#utility.yul\":7515:7522   */\n      dup7\n        /* \"#utility.yul\":7511:7534   */\n      sub\n        /* \"#utility.yul\":7507:7539   */\n      slt\n        /* \"#utility.yul\":7504:7623   */\n      iszero\n      tag_468\n      jumpi\n        /* \"#utility.yul\":7542:7621   */\n      tag_469\n      tag_331\n      jump\t// in\n    tag_469:\n        /* \"#utility.yul\":7504:7623   */\n    tag_468:\n        /* \"#utility.yul\":7662:7663   */\n      0x00\n        /* \"#utility.yul\":7687:7740   */\n      tag_470\n        /* \"#utility.yul\":7732:7739   */\n      dup7\n        /* \"#utility.yul\":7723:7729   */\n      dup3\n        /* \"#utility.yul\":7712:7721   */\n      dup8\n        /* \"#utility.yul\":7708:7730   */\n      add\n        /* \"#utility.yul\":7687:7740   */\n      tag_334\n      jump\t// in\n    tag_470:\n        /* \"#utility.yul\":7677:7740   */\n      swap4\n      pop\n        /* \"#utility.yul\":7633:7750   */\n      pop\n        /* \"#utility.yul\":7789:7791   */\n      0x20\n        /* \"#utility.yul\":7815:7868   */\n      tag_471\n        /* \"#utility.yul\":7860:7867   */\n      dup7\n        /* \"#utility.yul\":7851:7857   */\n      dup3\n        /* \"#utility.yul\":7840:7849   */\n      dup8\n        /* \"#utility.yul\":7836:7858   */\n      add\n        /* \"#utility.yul\":7815:7868   */\n      tag_338\n      jump\t// in\n    tag_471:\n        /* \"#utility.yul\":7805:7868   */\n      swap3\n      pop\n        /* \"#utility.yul\":7760:7878   */\n      pop\n        /* \"#utility.yul\":7917:7919   */\n      0x40\n        /* \"#utility.yul\":7943:7996   */\n      tag_472\n        /* \"#utility.yul\":7988:7995   */\n      dup7\n        /* \"#utility.yul\":7979:7985   */\n      dup3\n        /* \"#utility.yul\":7968:7977   */\n      dup8\n        /* \"#utility.yul\":7964:7986   */\n      add\n        /* \"#utility.yul\":7943:7996   */\n      tag_338\n      jump\t// in\n    tag_472:\n        /* \"#utility.yul\":7933:7996   */\n      swap2\n      pop\n        /* \"#utility.yul\":7888:8006   */\n      pop\n        /* \"#utility.yul\":7394:8013   */\n      swap3\n      pop\n      swap3\n      pop\n      swap3\n      jump\t// out\n        /* \"#utility.yul\":8019:8137   */\n    tag_350:\n        /* \"#utility.yul\":8090:8112   */\n      tag_474\n        /* \"#utility.yul\":8106:8111   */\n      dup2\n        /* \"#utility.yul\":8090:8112   */\n      tag_341\n      jump\t// in\n    tag_474:\n        /* \"#utility.yul\":8083:8088   */\n      dup2\n        /* \"#utility.yul\":8080:8113   */\n      eq\n        /* \"#utility.yul\":8070:8131   */\n      tag_475\n      jumpi\n        /* \"#utility.yul\":8127:8128   */\n      0x00\n        /* \"#utility.yul\":8124:8125   */\n      dup1\n        /* \"#utility.yul\":8117:8129   */\n      revert\n        /* \"#utility.yul\":8070:8131   */\n    tag_475:\n        /* \"#utility.yul\":8019:8137   */\n      pop\n      jump\t// out\n        /* \"#utility.yul\":8143:8278   */\n    tag_351:\n        /* \"#utility.yul\":8187:8192   */\n      0x00\n        /* \"#utility.yul\":8225:8231   */\n      dup2\n        /* \"#utility.yul\":8212:8232   */\n      calldataload\n        /* \"#utility.yul\":8203:8232   */\n      swap1\n      pop\n        /* \"#utility.yul\":8241:8272   */\n      tag_477\n        /* \"#utility.yul\":8266:8271   */\n      dup2\n        /* \"#utility.yul\":8241:8272   */\n      tag_350\n      jump\t// in\n    tag_477:\n        /* \"#utility.yul\":8143:8278   */\n      swap3\n      swap2\n      pop\n      pop\n      jump\t// out\n        /* \"#utility.yul\":8284:8406   */\n    tag_352:\n        /* \"#utility.yul\":8357:8381   */\n      tag_479\n        /* \"#utility.yul\":8375:8380   */\n      dup2\n        /* \"#utility.yul\":8357:8381   */\n      tag_343\n      jump\t// in\n    tag_479:\n        /* \"#utility.yul\":8350:8355   */\n      dup2\n        /* \"#utility.yul\":8347:8382   */\n      eq\n        /* \"#utility.yul\":8337:8400   */\n      tag_480\n      jumpi\n        /* \"#utility.yul\":8396:8397   */\n      0x00\n        /* \"#utility.yul\":8393:8394   */\n      dup1\n        /* \"#utility.yul\":8386:8398   */\n      revert\n        /* \"#utility.yul\":8337:8400   */\n    tag_480:\n        /* \"#utility.yul\":8284:8406   */\n      pop\n      jump\t// out\n        /* \"#utility.yul\":8412:8551   */\n    tag_353:\n        /* \"#utility.yul\":8458:8463   */\n      0x00\n        /* \"#utility.yul\":8496:8502   */\n      dup2\n        /* \"#utility.yul\":8483:8503   */\n      calldataload\n        /* \"#utility.yul\":8474:8503   */\n      swap1\n      pop\n        /* \"#utility.yul\":8512:8545   */\n      tag_482\n        /* \"#utility.yul\":8539:8544   */\n      dup2\n        /* \"#utility.yul\":8512:8545   */\n      tag_352\n      jump\t// in\n    tag_482:\n        /* \"#utility.yul\":8412:8551   */\n      swap3\n      swap2\n      pop\n      pop\n      jump\t// out\n        /* \"#utility.yul\":8557:9756   */\n    tag_150:\n        /* \"#utility.yul\":8668:8674   */\n      0x00\n        /* \"#utility.yul\":8676:8682   */\n      dup1\n        /* \"#utility.yul\":8684:8690   */\n      0x00\n        /* \"#utility.yul\":8692:8698   */\n      dup1\n        /* \"#utility.yul\":8700:8706   */\n      0x00\n        /* \"#utility.yul\":8708:8714   */\n      dup1\n        /* \"#utility.yul\":8716:8722   */\n      0x00\n        /* \"#utility.yul\":8765:8768   */\n      0xe0\n        /* \"#utility.yul\":8753:8762   */\n      dup9\n        /* \"#utility.yul\":8744:8751   */\n      dup11\n        /* \"#utility.yul\":8740:8763   */\n      sub\n        /* \"#utility.yul\":8736:8769   */\n      slt\n        /* \"#utility.yul\":8733:8853   */\n      iszero\n      tag_484\n      jumpi\n        /* \"#utility.yul\":8772:8851   */\n      tag_485\n      tag_331\n      jump\t// in\n    tag_485:\n        /* \"#utility.yul\":8733:8853   */\n    tag_484:\n        /* \"#utility.yul\":8892:8893   */\n      0x00\n        /* \"#utility.yul\":8917:8970   */\n      tag_486\n        /* \"#utility.yul\":8962:8969   */\n      dup11\n        /* \"#utility.yul\":8953:8959   */\n      dup3\n        /* \"#utility.yul\":8942:8951   */\n      dup12\n        /* \"#utility.yul\":8938:8960   */\n      add\n        /* \"#utility.yul\":8917:8970   */\n      tag_338\n      jump\t// in\n    tag_486:\n        /* \"#utility.yul\":8907:8970   */\n      swap8\n      pop\n        /* \"#utility.yul\":8863:8980   */\n      pop\n        /* \"#utility.yul\":9019:9021   */\n      0x20\n        /* \"#utility.yul\":9045:9098   */\n      tag_487\n        /* \"#utility.yul\":9090:9097   */\n      dup11\n        /* \"#utility.yul\":9081:9087   */\n      dup3\n        /* \"#utility.yul\":9070:9079   */\n      dup12\n        /* \"#utility.yul\":9066:9088   */\n      add\n        /* \"#utility.yul\":9045:9098   */\n      tag_338\n      jump\t// in\n    tag_487:\n        /* \"#utility.yul\":9035:9098   */\n      swap7\n      pop\n        /* \"#utility.yul\":8990:9108   */\n      pop\n        /* \"#utility.yul\":9147:9149   */\n      0x40\n        /* \"#utility.yul\":9173:9226   */\n      tag_488\n        /* \"#utility.yul\":9218:9225   */\n      dup11\n        /* \"#utility.yul\":9209:9215   */\n      dup3\n        /* \"#utility.yul\":9198:9207   */\n      dup12\n        /* \"#utility.yul\":9194:9216   */\n      add\n        /* \"#utility.yul\":9173:9226   */\n      tag_334\n      jump\t// in\n    tag_488:\n        /* \"#utility.yul\":9163:9226   */\n      swap6\n      pop\n        /* \"#utility.yul\":9118:9236   */\n      pop\n        /* \"#utility.yul\":9275:9277   */\n      0x60\n        /* \"#utility.yul\":9301:9354   */\n      tag_489\n        /* \"#utility.yul\":9346:9353   */\n      dup11\n        /* \"#utility.yul\":9337:9343   */\n      dup3\n        /* \"#utility.yul\":9326:9335   */\n      dup12\n        /* \"#utility.yul\":9322:9344   */\n      add\n        /* \"#utility.yul\":9301:9354   */\n      tag_334\n      jump\t// in\n    tag_489:\n        /* \"#utility.yul\":9291:9354   */\n      swap5\n      pop\n        /* \"#utility.yul\":9246:9364   */\n      pop\n        /* \"#utility.yul\":9403:9406   */\n      0x80\n        /* \"#utility.yul\":9430:9481   */\n      tag_490\n        /* \"#utility.yul\":9473:9480   */\n      dup11\n        /* \"#utility.yul\":9464:9470   */\n      dup3\n        /* \"#utility.yul\":9453:9462   */\n      dup12\n        /* \"#utility.yul\":9449:9471   */\n      add\n        /* \"#utility.yul\":9430:9481   */\n      tag_351\n      jump\t// in\n    tag_490:\n        /* \"#utility.yul\":9420:9481   */\n      swap4\n      pop\n        /* \"#utility.yul\":9374:9491   */\n      pop\n        /* \"#utility.yul\":9530:9533   */\n      0xa0\n        /* \"#utility.yul\":9557:9610   */\n      tag_491\n        /* \"#utility.yul\":9602:9609   */\n      dup11\n        /* \"#utility.yul\":9593:9599   */\n      dup3\n        /* \"#utility.yul\":9582:9591   */\n      dup12\n        /* \"#utility.yul\":9578:9600   */\n      add\n        /* \"#utility.yul\":9557:9610   */\n      tag_353\n      jump\t// in\n    tag_491:\n        /* \"#utility.yul\":9547:9610   */\n      swap3\n      pop\n        /* \"#utility.yul\":9501:9620   */\n      pop\n        /* \"#utility.yul\":9659:9662   */\n      0xc0\n        /* \"#utility.yul\":9686:9739   */\n      tag_492\n        /* \"#utility.yul\":9731:9738   */\n      dup11\n        /* \"#utility.yul\":9722:9728   */\n      dup3\n        /* \"#utility.yul\":9711:9720   */\n      dup12\n        /* \"#utility.yul\":9707:9729   */\n      add\n        /* \"#utility.yul\":9686:9739   */\n      tag_353\n      jump\t// in\n    tag_492:\n        /* \"#utility.yul\":9676:9739   */\n      swap2\n      pop\n        /* \"#utility.yul\":9630:9749   */\n      pop\n        /* \"#utility.yul\":8557:9756   */\n      swap3\n      swap6\n      swap9\n      swap2\n      swap5\n      swap8\n      pop\n      swap3\n      swap6\n      pop\n      jump\t// out\n        /* \"#utility.yul\":9762:10236   */\n    tag_158:\n        /* \"#utility.yul\":9830:9836   */\n      0x00\n        /* \"#utility.yul\":9838:9844   */\n      dup1\n        /* \"#utility.yul\":9887:9889   */\n      0x40\n        /* \"#utility.yul\":9875:9884   */\n      dup4\n        /* \"#utility.yul\":9866:9873   */\n      dup6\n        /* \"#utility.yul\":9862:9885   */\n      sub\n        /* \"#utility.yul\":9858:9890   */\n      slt\n        /* \"#utility.yul\":9855:9974   */\n      iszero\n      tag_494\n      jumpi\n        /* \"#utility.yul\":9893:9972   */\n      tag_495\n      tag_331\n      jump\t// in\n    tag_495:\n        /* \"#utility.yul\":9855:9974   */\n    tag_494:\n        /* \"#utility.yul\":10013:10014   */\n      0x00\n        /* \"#utility.yul\":10038:10091   */\n      tag_496\n        /* \"#utility.yul\":10083:10090   */\n      dup6\n        /* \"#utility.yul\":10074:10080   */\n      dup3\n        /* \"#utility.yul\":10063:10072   */\n      dup7\n        /* \"#utility.yul\":10059:10081   */\n      add\n        /* \"#utility.yul\":10038:10091   */\n      tag_338\n      jump\t// in\n    tag_496:\n        /* \"#utility.yul\":10028:10091   */\n      swap3\n      pop\n        /* \"#utility.yul\":9984:10101   */\n      pop\n        /* \"#utility.yul\":10140:10142   */\n      0x20\n        /* \"#utility.yul\":10166:10219   */\n      tag_497\n        /* \"#utility.yul\":10211:10218   */\n      dup6\n        /* \"#utility.yul\":10202:10208   */\n      dup3\n        /* \"#utility.yul\":10191:10200   */\n      dup7\n        /* \"#utility.yul\":10187:10209   */\n      add\n        /* \"#utility.yul\":10166:10219   */\n      tag_338\n      jump\t// in\n    tag_497:\n        /* \"#utility.yul\":10156:10219   */\n      swap2\n      pop\n        /* \"#utility.yul\":10111:10229   */\n      pop\n        /* \"#utility.yul\":9762:10236   */\n      swap3\n      pop\n      swap3\n      swap1\n      pop\n      jump\t// out\n        /* \"#utility.yul\":10242:10360   */\n    tag_354:\n        /* \"#utility.yul\":10329:10353   */\n      tag_499\n        /* \"#utility.yul\":10347:10352   */\n      dup2\n        /* \"#utility.yul\":10329:10353   */\n      tag_336\n      jump\t// in\n    tag_499:\n        /* \"#utility.yul\":10324:10327   */\n      dup3\n        /* \"#utility.yul\":10317:10354   */\n      mstore\n        /* \"#utility.yul\":10242:10360   */\n      pop\n      pop\n      jump\t// out\n        /* \"#utility.yul\":10366:10588   */\n    tag_170:\n        /* \"#utility.yul\":10459:10463   */\n      0x00\n        /* \"#utility.yul\":10497:10499   */\n      0x20\n        /* \"#utility.yul\":10486:10495   */\n      dup3\n        /* \"#utility.yul\":10482:10500   */\n      add\n        /* \"#utility.yul\":10474:10500   */\n      swap1\n      pop\n        /* \"#utility.yul\":10510:10581   */\n      tag_501\n        /* \"#utility.yul\":10578:10579   */\n      0x00\n        /* \"#utility.yul\":10567:10576   */\n      dup4\n        /* \"#utility.yul\":10563:10580   */\n      add\n        /* \"#utility.yul\":10554:10560   */\n      dup5\n        /* \"#utility.yul\":10510:10581   */\n      tag_354\n      jump\t// in\n    tag_501:\n        /* \"#utility.yul\":10366:10588   */\n      swap3\n      swap2\n      pop\n      pop\n      jump\t// out\n        /* \"#utility.yul\":10594:10737   */\n    tag_355:\n        /* \"#utility.yul\":10651:10656   */\n      0x00\n        /* \"#utility.yul\":10682:10688   */\n      dup2\n        /* \"#utility.yul\":10676:10689   */\n      mload\n        /* \"#utility.yul\":10667:10689   */\n      swap1\n      pop\n        /* \"#utility.yul\":10698:10731   */\n      tag_503\n        /* \"#utility.yul\":10725:10730   */\n      dup2\n        /* \"#utility.yul\":10698:10731   */\n      tag_333\n      jump\t// in\n    tag_503:\n        /* \"#utility.yul\":10594:10737   */\n      swap3\n      swap2\n      pop\n      pop\n      jump\t// out\n        /* \"#utility.yul\":10743:11094   */\n    tag_174:\n        /* \"#utility.yul\":10813:10819   */\n      0x00\n        /* \"#utility.yul\":10862:10864   */\n      0x20\n        /* \"#utility.yul\":10850:10859   */\n      dup3\n        /* \"#utility.yul\":10841:10848   */\n      dup5\n        /* \"#utility.yul\":10837:10860   */\n      sub\n        /* \"#utility.yul\":10833:10865   */\n      slt\n        /* \"#utility.yul\":10830:10949   */\n      iszero\n      tag_505\n      jumpi\n        /* \"#utility.yul\":10868:10947   */\n      tag_506\n      tag_331\n      jump\t// in\n    tag_506:\n        /* \"#utility.yul\":10830:10949   */\n    tag_505:\n        /* \"#utility.yul\":10988:10989   */\n      0x00\n        /* \"#utility.yul\":11013:11077   */\n      tag_507\n        /* \"#utility.yul\":11069:11076   */\n      dup5\n        /* \"#utility.yul\":11060:11066   */\n      dup3\n        /* \"#utility.yul\":11049:11058   */\n      dup6\n        /* \"#utility.yul\":11045:11067   */\n      add\n        /* \"#utility.yul\":11013:11077   */\n      tag_355\n      jump\t// in\n    tag_507:\n        /* \"#utility.yul\":11003:11077   */\n      swap2\n      pop\n        /* \"#utility.yul\":10959:11087   */\n      pop\n        /* \"#utility.yul\":10743:11094   */\n      swap3\n      swap2\n      pop\n      pop\n      jump\t// out\n        /* \"#utility.yul\":11100:11280   */\n    tag_356:\n        /* \"#utility.yul\":11148:11225   */\n      0x4e487b7100000000000000000000000000000000000000000000000000000000\n        /* \"#utility.yul\":11145:11146   */\n      0x00\n        /* \"#utility.yul\":11138:11226   */\n      mstore\n        /* \"#utility.yul\":11245:11249   */\n      0x22\n        /* \"#utility.yul\":11242:11243   */\n      0x04\n        /* \"#utility.yul\":11235:11250   */\n      mstore\n        /* \"#utility.yul\":11269:11273   */\n      0x24\n        /* \"#utility.yul\":11266:11267   */\n      0x00\n        /* \"#utility.yul\":11259:11274   */\n      revert\n        /* \"#utility.yul\":11286:11606   */\n    tag_176:\n        /* \"#utility.yul\":11330:11336   */\n      0x00\n        /* \"#utility.yul\":11367:11368   */\n      0x02\n        /* \"#utility.yul\":11361:11365   */\n      dup3\n        /* \"#utility.yul\":11357:11369   */\n      div\n        /* \"#utility.yul\":11347:11369   */\n      swap1\n      pop\n        /* \"#utility.yul\":11414:11415   */\n      0x01\n        /* \"#utility.yul\":11408:11412   */\n      dup3\n        /* \"#utility.yul\":11404:11416   */\n      and\n        /* \"#utility.yul\":11435:11453   */\n      dup1\n        /* \"#utility.yul\":11425:11506   */\n      tag_510\n      jumpi\n        /* \"#utility.yul\":11491:11495   */\n      0x7f\n        /* \"#utility.yul\":11483:11489   */\n      dup3\n        /* \"#utility.yul\":11479:11496   */\n      and\n        /* \"#utility.yul\":11469:11496   */\n      swap2\n      pop\n        /* \"#utility.yul\":11425:11506   */\n    tag_510:\n        /* \"#utility.yul\":11553:11555   */\n      0x20\n        /* \"#utility.yul\":11545:11551   */\n      dup3\n        /* \"#utility.yul\":11542:11556   */\n      lt\n        /* \"#utility.yul\":11522:11540   */\n      dup2\n        /* \"#utility.yul\":11519:11557   */\n      eq\n        /* \"#utility.yul\":11516:11600   */\n      iszero\n      tag_511\n      jumpi\n        /* \"#utility.yul\":11572:11590   */\n      tag_512\n      tag_356\n      jump\t// in\n    tag_512:\n        /* \"#utility.yul\":11516:11600   */\n    tag_511:\n        /* \"#utility.yul\":11337:11606   */\n      pop\n        /* \"#utility.yul\":11286:11606   */\n      swap2\n      swap1\n      pop\n      jump\t// out\n        /* \"#utility.yul\":11612:11792   */\n    tag_357:\n        /* \"#utility.yul\":11660:11737   */\n      0x4e487b7100000000000000000000000000000000000000000000000000000000\n        /* \"#utility.yul\":11657:11658   */\n      0x00\n        /* \"#utility.yul\":11650:11738   */\n      mstore\n        /* \"#utility.yul\":11757:11761   */\n      0x11\n        /* \"#utility.yul\":11754:11755   */\n      0x04\n        /* \"#utility.yul\":11747:11762   */\n      mstore\n        /* \"#utility.yul\":11781:11785   */\n      0x24\n        /* \"#utility.yul\":11778:11779   */\n      0x00\n        /* \"#utility.yul\":11771:11786   */\n      revert\n        /* \"#utility.yul\":11798:11989   */\n    tag_198:\n        /* \"#utility.yul\":11838:11842   */\n      0x00\n        /* \"#utility.yul\":11858:11878   */\n      tag_515\n        /* \"#utility.yul\":11876:11877   */\n      dup3\n        /* \"#utility.yul\":11858:11878   */\n      tag_323\n      jump\t// in\n    tag_515:\n        /* \"#utility.yul\":11853:11878   */\n      swap2\n      pop\n        /* \"#utility.yul\":11892:11912   */\n      tag_516\n        /* \"#utility.yul\":11910:11911   */\n      dup4\n        /* \"#utility.yul\":11892:11912   */\n      tag_323\n      jump\t// in\n    tag_516:\n        /* \"#utility.yul\":11887:11912   */\n      swap3\n      pop\n        /* \"#utility.yul\":11931:11932   */\n      dup3\n        /* \"#utility.yul\":11928:11929   */\n      dup3\n        /* \"#utility.yul\":11925:11933   */\n      lt\n        /* \"#utility.yul\":11922:11956   */\n      iszero\n      tag_517\n      jumpi\n        /* \"#utility.yul\":11936:11954   */\n      tag_518\n      tag_357\n      jump\t// in\n    tag_518:\n        /* \"#utility.yul\":11922:11956   */\n    tag_517:\n        /* \"#utility.yul\":11981:11982   */\n      dup3\n        /* \"#utility.yul\":11978:11979   */\n      dup3\n        /* \"#utility.yul\":11974:11983   */\n      sub\n        /* \"#utility.yul\":11966:11983   */\n      swap1\n      pop\n        /* \"#utility.yul\":11798:11989   */\n      swap3\n      swap2\n      pop\n      pop\n      jump\t// out\n        /* \"#utility.yul\":11995:12156   */\n    tag_358:\n        /* \"#utility.yul\":12135:12148   */\n      0x5a45524f5f534841524553000000000000000000000000000000000000000000\n        /* \"#utility.yul\":12131:12132   */\n      0x00\n        /* \"#utility.yul\":12123:12129   */\n      dup3\n        /* \"#utility.yul\":12119:12133   */\n      add\n        /* \"#utility.yul\":12112:12149   */\n      mstore\n        /* \"#utility.yul\":11995:12156   */\n      pop\n      jump\t// out\n        /* \"#utility.yul\":12162:12528   */\n    tag_359:\n        /* \"#utility.yul\":12304:12307   */\n      0x00\n        /* \"#utility.yul\":12325:12392   */\n      tag_521\n        /* \"#utility.yul\":12389:12391   */\n      0x0b\n        /* \"#utility.yul\":12384:12387   */\n      dup4\n        /* \"#utility.yul\":12325:12392   */\n      tag_326\n      jump\t// in\n    tag_521:\n        /* \"#utility.yul\":12318:12392   */\n      swap2\n      pop\n        /* \"#utility.yul\":12401:12494   */\n      tag_522\n        /* \"#utility.yul\":12490:12493   */\n      dup3\n        /* \"#utility.yul\":12401:12494   */\n      tag_358\n      jump\t// in\n    tag_522:\n        /* \"#utility.yul\":12519:12521   */\n      0x20\n        /* \"#utility.yul\":12514:12517   */\n      dup3\n        /* \"#utility.yul\":12510:12522   */\n      add\n        /* \"#utility.yul\":12503:12522   */\n      swap1\n      pop\n        /* \"#utility.yul\":12162:12528   */\n      swap2\n      swap1\n      pop\n      jump\t// out\n        /* \"#utility.yul\":12534:12953   */\n    tag_213:\n        /* \"#utility.yul\":12700:12704   */\n      0x00\n        /* \"#utility.yul\":12738:12740   */\n      0x20\n        /* \"#utility.yul\":12727:12736   */\n      dup3\n        /* \"#utility.yul\":12723:12741   */\n      add\n        /* \"#utility.yul\":12715:12741   */\n      swap1\n      pop\n        /* \"#utility.yul\":12787:12796   */\n      dup2\n        /* \"#utility.yul\":12781:12785   */\n      dup2\n        /* \"#utility.yul\":12777:12797   */\n      sub\n        /* \"#utility.yul\":12773:12774   */\n      0x00\n        /* \"#utility.yul\":12762:12771   */\n      dup4\n        /* \"#utility.yul\":12758:12775   */\n      add\n        /* \"#utility.yul\":12751:12798   */\n      mstore\n        /* \"#utility.yul\":12815:12946   */\n      tag_524\n        /* \"#utility.yul\":12941:12945   */\n      dup2\n        /* \"#utility.yul\":12815:12946   */\n      tag_359\n      jump\t// in\n    tag_524:\n        /* \"#utility.yul\":12807:12946   */\n      swap1\n      pop\n        /* \"#utility.yul\":12534:12953   */\n      swap2\n      swap1\n      pop\n      jump\t// out\n        /* \"#utility.yul\":12959:13291   */\n    tag_219:\n        /* \"#utility.yul\":13080:13084   */\n      0x00\n        /* \"#utility.yul\":13118:13120   */\n      0x40\n        /* \"#utility.yul\":13107:13116   */\n      dup3\n        /* \"#utility.yul\":13103:13121   */\n      add\n        /* \"#utility.yul\":13095:13121   */\n      swap1\n      pop\n        /* \"#utility.yul\":13131:13202   */\n      tag_526\n        /* \"#utility.yul\":13199:13200   */\n      0x00\n        /* \"#utility.yul\":13188:13197   */\n      dup4\n        /* \"#utility.yul\":13184:13201   */\n      add\n        /* \"#utility.yul\":13175:13181   */\n      dup6\n        /* \"#utility.yul\":13131:13202   */\n      tag_324\n      jump\t// in\n    tag_526:\n        /* \"#utility.yul\":13212:13284   */\n      tag_527\n        /* \"#utility.yul\":13280:13282   */\n      0x20\n        /* \"#utility.yul\":13269:13278   */\n      dup4\n        /* \"#utility.yul\":13265:13283   */\n      add\n        /* \"#utility.yul\":13256:13262   */\n      dup5\n        /* \"#utility.yul\":13212:13284   */\n      tag_324\n      jump\t// in\n    tag_527:\n        /* \"#utility.yul\":12959:13291   */\n      swap4\n      swap3\n      pop\n      pop\n      pop\n      jump\t// out\n        /* \"#utility.yul\":13297:13458   */\n    tag_360:\n        /* \"#utility.yul\":13437:13450   */\n      0x5a45524f5f415353455453000000000000000000000000000000000000000000\n        /* \"#utility.yul\":13433:13434   */\n      0x00\n        /* \"#utility.yul\":13425:13431   */\n      dup3\n        /* \"#utility.yul\":13421:13435   */\n      add\n        /* \"#utility.yul\":13414:13451   */\n      mstore\n        /* \"#utility.yul\":13297:13458   */\n      pop\n      jump\t// out\n        /* \"#utility.yul\":13464:13830   */\n    tag_361:\n        /* \"#utility.yul\":13606:13609   */\n      0x00\n        /* \"#utility.yul\":13627:13694   */\n      tag_530\n        /* \"#utility.yul\":13691:13693   */\n      0x0b\n        /* \"#utility.yul\":13686:13689   */\n      dup4\n        /* \"#utility.yul\":13627:13694   */\n      tag_326\n      jump\t// in\n    tag_530:\n        /* \"#utility.yul\":13620:13694   */\n      swap2\n      pop\n        /* \"#utility.yul\":13703:13796   */\n      tag_531\n        /* \"#utility.yul\":13792:13795   */\n      dup3\n        /* \"#utility.yul\":13703:13796   */\n      tag_360\n      jump\t// in\n    tag_531:\n        /* \"#utility.yul\":13821:13823   */\n      0x20\n        /* \"#utility.yul\":13816:13819   */\n      dup3\n        /* \"#utility.yul\":13812:13824   */\n      add\n        /* \"#utility.yul\":13805:13824   */\n      swap1\n      pop\n        /* \"#utility.yul\":13464:13830   */\n      swap2\n      swap1\n      pop\n      jump\t// out\n        /* \"#utility.yul\":13836:14255   */\n    tag_260:\n        /* \"#utility.yul\":14002:14006   */\n      0x00\n        /* \"#utility.yul\":14040:14042   */\n      0x20\n        /* \"#utility.yul\":14029:14038   */\n      dup3\n        /* \"#utility.yul\":14025:14043   */\n      add\n        /* \"#utility.yul\":14017:14043   */\n      swap1\n      pop\n        /* \"#utility.yul\":14089:14098   */\n      dup2\n        /* \"#utility.yul\":14083:14087   */\n      dup2\n        /* \"#utility.yul\":14079:14099   */\n      sub\n        /* \"#utility.yul\":14075:14076   */\n      0x00\n        /* \"#utility.yul\":14064:14073   */\n      dup4\n        /* \"#utility.yul\":14060:14077   */\n      add\n        /* \"#utility.yul\":14053:14100   */\n      mstore\n        /* \"#utility.yul\":14117:14248   */\n      tag_533\n        /* \"#utility.yul\":14243:14247   */\n      dup2\n        /* \"#utility.yul\":14117:14248   */\n      tag_361\n      jump\t// in\n    tag_533:\n        /* \"#utility.yul\":14109:14248   */\n      swap1\n      pop\n        /* \"#utility.yul\":13836:14255   */\n      swap2\n      swap1\n      pop\n      jump\t// out\n        /* \"#utility.yul\":14261:14434   */\n    tag_362:\n        /* \"#utility.yul\":14401:14426   */\n      0x5045524d49545f444541444c494e455f45585049524544000000000000000000\n        /* \"#utility.yul\":14397:14398   */\n      0x00\n        /* \"#utility.yul\":14389:14395   */\n      dup3\n        /* \"#utility.yul\":14385:14399   */\n      add\n        /* \"#utility.yul\":14378:14427   */\n      mstore\n        /* \"#utility.yul\":14261:14434   */\n      pop\n      jump\t// out\n        /* \"#utility.yul\":14440:14806   */\n    tag_363:\n        /* \"#utility.yul\":14582:14585   */\n      0x00\n        /* \"#utility.yul\":14603:14670   */\n      tag_536\n        /* \"#utility.yul\":14667:14669   */\n      0x17\n        /* \"#utility.yul\":14662:14665   */\n      dup4\n        /* \"#utility.yul\":14603:14670   */\n      tag_326\n      jump\t// in\n    tag_536:\n        /* \"#utility.yul\":14596:14670   */\n      swap2\n      pop\n        /* \"#utility.yul\":14679:14772   */\n      tag_537\n        /* \"#utility.yul\":14768:14771   */\n      dup3\n        /* \"#utility.yul\":14679:14772   */\n      tag_362\n      jump\t// in\n    tag_537:\n        /* \"#utility.yul\":14797:14799   */\n      0x20\n        /* \"#utility.yul\":14792:14795   */\n      dup3\n        /* \"#utility.yul\":14788:14800   */\n      add\n        /* \"#utility.yul\":14781:14800   */\n      swap1\n      pop\n        /* \"#utility.yul\":14440:14806   */\n      swap2\n      swap1\n      pop\n      jump\t// out\n        /* \"#utility.yul\":14812:15231   */\n    tag_276:\n        /* \"#utility.yul\":14978:14982   */\n      0x00\n        /* \"#utility.yul\":15016:15018   */\n      0x20\n        /* \"#utility.yul\":15005:15014   */\n      dup3\n        /* \"#utility.yul\":15001:15019   */\n      add\n        /* \"#utility.yul\":14993:15019   */\n      swap1\n      pop\n        /* \"#utility.yul\":15065:15074   */\n      dup2\n        /* \"#utility.yul\":15059:15063   */\n      dup2\n        /* \"#utility.yul\":15055:15075   */\n      sub\n        /* \"#utility.yul\":15051:15052   */\n      0x00\n        /* \"#utility.yul\":15040:15049   */\n      dup4\n        /* \"#utility.yul\":15036:15053   */\n      add\n        /* \"#utility.yul\":15029:15076   */\n      mstore\n        /* \"#utility.yul\":15093:15224   */\n      tag_539\n        /* \"#utility.yul\":15219:15223   */\n      dup2\n        /* \"#utility.yul\":15093:15224   */\n      tag_363\n      jump\t// in\n    tag_539:\n        /* \"#utility.yul\":15085:15224   */\n      swap1\n      pop\n        /* \"#utility.yul\":14812:15231   */\n      swap2\n      swap1\n      pop\n      jump\t// out\n        /* \"#utility.yul\":15237:16012   */\n    tag_279:\n        /* \"#utility.yul\":15470:15474   */\n      0x00\n        /* \"#utility.yul\":15508:15511   */\n      0xc0\n        /* \"#utility.yul\":15497:15506   */\n      dup3\n        /* \"#utility.yul\":15493:15512   */\n      add\n        /* \"#utility.yul\":15485:15512   */\n      swap1\n      pop\n        /* \"#utility.yul\":15522:15593   */\n      tag_541\n        /* \"#utility.yul\":15590:15591   */\n      0x00\n        /* \"#utility.yul\":15579:15588   */\n      dup4\n        /* \"#utility.yul\":15575:15592   */\n      add\n        /* \"#utility.yul\":15566:15572   */\n      dup10\n        /* \"#utility.yul\":15522:15593   */\n      tag_344\n      jump\t// in\n    tag_541:\n        /* \"#utility.yul\":15603:15675   */\n      tag_542\n        /* \"#utility.yul\":15671:15673   */\n      0x20\n        /* \"#utility.yul\":15660:15669   */\n      dup4\n        /* \"#utility.yul\":15656:15674   */\n      add\n        /* \"#utility.yul\":15647:15653   */\n      dup9\n        /* \"#utility.yul\":15603:15675   */\n      tag_354\n      jump\t// in\n    tag_542:\n        /* \"#utility.yul\":15685:15757   */\n      tag_543\n        /* \"#utility.yul\":15753:15755   */\n      0x40\n        /* \"#utility.yul\":15742:15751   */\n      dup4\n        /* \"#utility.yul\":15738:15756   */\n      add\n        /* \"#utility.yul\":15729:15735   */\n      dup8\n        /* \"#utility.yul\":15685:15757   */\n      tag_354\n      jump\t// in\n    tag_543:\n        /* \"#utility.yul\":15767:15839   */\n      tag_544\n        /* \"#utility.yul\":15835:15837   */\n      0x60\n        /* \"#utility.yul\":15824:15833   */\n      dup4\n        /* \"#utility.yul\":15820:15838   */\n      add\n        /* \"#utility.yul\":15811:15817   */\n      dup7\n        /* \"#utility.yul\":15767:15839   */\n      tag_324\n      jump\t// in\n    tag_544:\n        /* \"#utility.yul\":15849:15922   */\n      tag_545\n        /* \"#utility.yul\":15917:15920   */\n      0x80\n        /* \"#utility.yul\":15906:15915   */\n      dup4\n        /* \"#utility.yul\":15902:15921   */\n      add\n        /* \"#utility.yul\":15893:15899   */\n      dup6\n        /* \"#utility.yul\":15849:15922   */\n      tag_324\n      jump\t// in\n    tag_545:\n        /* \"#utility.yul\":15932:16005   */\n      tag_546\n        /* \"#utility.yul\":16000:16003   */\n      0xa0\n        /* \"#utility.yul\":15989:15998   */\n      dup4\n        /* \"#utility.yul\":15985:16004   */\n      add\n        /* \"#utility.yul\":15976:15982   */\n      dup5\n        /* \"#utility.yul\":15932:16005   */\n      tag_324\n      jump\t// in\n    tag_546:\n        /* \"#utility.yul\":15237:16012   */\n      swap8\n      swap7\n      pop\n      pop\n      pop\n      pop\n      pop\n      pop\n      pop\n      jump\t// out\n        /* \"#utility.yul\":16018:16166   */\n    tag_364:\n        /* \"#utility.yul\":16120:16131   */\n      0x00\n        /* \"#utility.yul\":16157:16160   */\n      dup2\n        /* \"#utility.yul\":16142:16160   */\n      swap1\n      pop\n        /* \"#utility.yul\":16018:16166   */\n      swap3\n      swap2\n      pop\n      pop\n      jump\t// out\n        /* \"#utility.yul\":16172:16386   */\n    tag_365:\n        /* \"#utility.yul\":16312:16378   */\n      0x1901000000000000000000000000000000000000000000000000000000000000\n        /* \"#utility.yul\":16308:16309   */\n      0x00\n        /* \"#utility.yul\":16300:16306   */\n      dup3\n        /* \"#utility.yul\":16296:16310   */\n      add\n        /* \"#utility.yul\":16289:16379   */\n      mstore\n        /* \"#utility.yul\":16172:16386   */\n      pop\n      jump\t// out\n        /* \"#utility.yul\":16392:16792   */\n    tag_366:\n        /* \"#utility.yul\":16552:16555   */\n      0x00\n        /* \"#utility.yul\":16573:16657   */\n      tag_550\n        /* \"#utility.yul\":16655:16656   */\n      0x02\n        /* \"#utility.yul\":16650:16653   */\n      dup4\n        /* \"#utility.yul\":16573:16657   */\n      tag_364\n      jump\t// in\n    tag_550:\n        /* \"#utility.yul\":16566:16657   */\n      swap2\n      pop\n        /* \"#utility.yul\":16666:16759   */\n      tag_551\n        /* \"#utility.yul\":16755:16758   */\n      dup3\n        /* \"#utility.yul\":16666:16759   */\n      tag_365\n      jump\t// in\n    tag_551:\n        /* \"#utility.yul\":16784:16785   */\n      0x02\n        /* \"#utility.yul\":16779:16782   */\n      dup3\n        /* \"#utility.yul\":16775:16786   */\n      add\n        /* \"#utility.yul\":16768:16786   */\n      swap1\n      pop\n        /* \"#utility.yul\":16392:16792   */\n      swap2\n      swap1\n      pop\n      jump\t// out\n        /* \"#utility.yul\":16798:16877   */\n    tag_367:\n        /* \"#utility.yul\":16837:16844   */\n      0x00\n        /* \"#utility.yul\":16866:16871   */\n      dup2\n        /* \"#utility.yul\":16855:16871   */\n      swap1\n      pop\n        /* \"#utility.yul\":16798:16877   */\n      swap2\n      swap1\n      pop\n      jump\t// out\n        /* \"#utility.yul\":16883:17040   */\n    tag_368:\n        /* \"#utility.yul\":16988:17033   */\n      tag_554\n        /* \"#utility.yul\":17008:17032   */\n      tag_555\n        /* \"#utility.yul\":17026:17031   */\n      dup3\n        /* \"#utility.yul\":17008:17032   */\n      tag_343\n      jump\t// in\n    tag_555:\n        /* \"#utility.yul\":16988:17033   */\n      tag_367\n      jump\t// in\n    tag_554:\n        /* \"#utility.yul\":16983:16986   */\n      dup3\n        /* \"#utility.yul\":16976:17034   */\n      mstore\n        /* \"#utility.yul\":16883:17040   */\n      pop\n      pop\n      jump\t// out\n        /* \"#utility.yul\":17046:17709   */\n    tag_281:\n        /* \"#utility.yul\":17287:17290   */\n      0x00\n        /* \"#utility.yul\":17309:17457   */\n      tag_557\n        /* \"#utility.yul\":17453:17456   */\n      dup3\n        /* \"#utility.yul\":17309:17457   */\n      tag_366\n      jump\t// in\n    tag_557:\n        /* \"#utility.yul\":17302:17457   */\n      swap2\n      pop\n        /* \"#utility.yul\":17467:17542   */\n      tag_558\n        /* \"#utility.yul\":17538:17541   */\n      dup3\n        /* \"#utility.yul\":17529:17535   */\n      dup6\n        /* \"#utility.yul\":17467:17542   */\n      tag_368\n      jump\t// in\n    tag_558:\n        /* \"#utility.yul\":17567:17569   */\n      0x20\n        /* \"#utility.yul\":17562:17565   */\n      dup3\n        /* \"#utility.yul\":17558:17570   */\n      add\n        /* \"#utility.yul\":17551:17570   */\n      swap2\n      pop\n        /* \"#utility.yul\":17580:17655   */\n      tag_559\n        /* \"#utility.yul\":17651:17654   */\n      dup3\n        /* \"#utility.yul\":17642:17648   */\n      dup5\n        /* \"#utility.yul\":17580:17655   */\n      tag_368\n      jump\t// in\n    tag_559:\n        /* \"#utility.yul\":17680:17682   */\n      0x20\n        /* \"#utility.yul\":17675:17678   */\n      dup3\n        /* \"#utility.yul\":17671:17683   */\n      add\n        /* \"#utility.yul\":17664:17683   */\n      swap2\n      pop\n        /* \"#utility.yul\":17700:17703   */\n      dup2\n        /* \"#utility.yul\":17693:17703   */\n      swap1\n      pop\n        /* \"#utility.yul\":17046:17709   */\n      swap4\n      swap3\n      pop\n      pop\n      pop\n      jump\t// out\n        /* \"#utility.yul\":17715:18260   */\n    tag_283:\n        /* \"#utility.yul\":17888:17892   */\n      0x00\n        /* \"#utility.yul\":17926:17929   */\n      0x80\n        /* \"#utility.yul\":17915:17924   */\n      dup3\n        /* \"#utility.yul\":17911:17930   */\n      add\n        /* \"#utility.yul\":17903:17930   */\n      swap1\n      pop\n        /* \"#utility.yul\":17940:18011   */\n      tag_561\n        /* \"#utility.yul\":18008:18009   */\n      0x00\n        /* \"#utility.yul\":17997:18006   */\n      dup4\n        /* \"#utility.yul\":17993:18010   */\n      add\n        /* \"#utility.yul\":17984:17990   */\n      dup8\n        /* \"#utility.yul\":17940:18011   */\n      tag_344\n      jump\t// in\n    tag_561:\n        /* \"#utility.yul\":18021:18089   */\n      tag_562\n        /* \"#utility.yul\":18085:18087   */\n      0x20\n        /* \"#utility.yul\":18074:18083   */\n      dup4\n        /* \"#utility.yul\":18070:18088   */\n      add\n        /* \"#utility.yul\":18061:18067   */\n      dup7\n        /* \"#utility.yul\":18021:18089   */\n      tag_342\n      jump\t// in\n    tag_562:\n        /* \"#utility.yul\":18099:18171   */\n      tag_563\n        /* \"#utility.yul\":18167:18169   */\n      0x40\n        /* \"#utility.yul\":18156:18165   */\n      dup4\n        /* \"#utility.yul\":18152:18170   */\n      add\n        /* \"#utility.yul\":18143:18149   */\n      dup6\n        /* \"#utility.yul\":18099:18171   */\n      tag_344\n      jump\t// in\n    tag_563:\n        /* \"#utility.yul\":18181:18253   */\n      tag_564\n        /* \"#utility.yul\":18249:18251   */\n      0x60\n        /* \"#utility.yul\":18238:18247   */\n      dup4\n        /* \"#utility.yul\":18234:18252   */\n      add\n        /* \"#utility.yul\":18225:18231   */\n      dup5\n        /* \"#utility.yul\":18181:18253   */\n      tag_344\n      jump\t// in\n    tag_564:\n        /* \"#utility.yul\":17715:18260   */\n      swap6\n      swap5\n      pop\n      pop\n      pop\n      pop\n      pop\n      jump\t// out\n        /* \"#utility.yul\":18266:18430   */\n    tag_369:\n        /* \"#utility.yul\":18406:18422   */\n      0x494e56414c49445f5349474e4552000000000000000000000000000000000000\n        /* \"#utility.yul\":18402:18403   */\n      0x00\n        /* \"#utility.yul\":18394:18400   */\n      dup3\n        /* \"#utility.yul\":18390:18404   */\n      add\n        /* \"#utility.yul\":18383:18423   */\n      mstore\n        /* \"#utility.yul\":18266:18430   */\n      pop\n      jump\t// out\n        /* \"#utility.yul\":18436:18802   */\n    tag_370:\n        /* \"#utility.yul\":18578:18581   */\n      0x00\n        /* \"#utility.yul\":18599:18666   */\n      tag_567\n        /* \"#utility.yul\":18663:18665   */\n      0x0e\n        /* \"#utility.yul\":18658:18661   */\n      dup4\n        /* \"#utility.yul\":18599:18666   */\n      tag_326\n      jump\t// in\n    tag_567:\n        /* \"#utility.yul\":18592:18666   */\n      swap2\n      pop\n        /* \"#utility.yul\":18675:18768   */\n      tag_568\n        /* \"#utility.yul\":18764:18767   */\n      dup3\n        /* \"#utility.yul\":18675:18768   */\n      tag_369\n      jump\t// in\n    tag_568:\n        /* \"#utility.yul\":18793:18795   */\n      0x20\n        /* \"#utility.yul\":18788:18791   */\n      dup3\n        /* \"#utility.yul\":18784:18796   */\n      add\n        /* \"#utility.yul\":18777:18796   */\n      swap1\n      pop\n        /* \"#utility.yul\":18436:18802   */\n      swap2\n      swap1\n      pop\n      jump\t// out\n        /* \"#utility.yul\":18808:19227   */\n    tag_289:\n        /* \"#utility.yul\":18974:18978   */\n      0x00\n        /* \"#utility.yul\":19012:19014   */\n      0x20\n        /* \"#utility.yul\":19001:19010   */\n      dup3\n        /* \"#utility.yul\":18997:19015   */\n      add\n        /* \"#utility.yul\":18989:19015   */\n      swap1\n      pop\n        /* \"#utility.yul\":19061:19070   */\n      dup2\n        /* \"#utility.yul\":19055:19059   */\n      dup2\n        /* \"#utility.yul\":19051:19071   */\n      sub\n        /* \"#utility.yul\":19047:19048   */\n      0x00\n        /* \"#utility.yul\":19036:19045   */\n      dup4\n        /* \"#utility.yul\":19032:19049   */\n      add\n        /* \"#utility.yul\":19025:19072   */\n      mstore\n        /* \"#utility.yul\":19089:19220   */\n      tag_570\n        /* \"#utility.yul\":19215:19219   */\n      dup2\n        /* \"#utility.yul\":19089:19220   */\n      tag_370\n      jump\t// in\n    tag_570:\n        /* \"#utility.yul\":19081:19220   */\n      swap1\n      pop\n        /* \"#utility.yul\":18808:19227   */\n      swap2\n      swap1\n      pop\n      jump\t// out\n        /* \"#utility.yul\":19233:19380   */\n    tag_371:\n        /* \"#utility.yul\":19334:19345   */\n      0x00\n        /* \"#utility.yul\":19371:19374   */\n      dup2\n        /* \"#utility.yul\":19356:19374   */\n      swap1\n      pop\n        /* \"#utility.yul\":19233:19380   */\n      swap3\n      swap2\n      pop\n      pop\n      jump\t// out\n        /* \"#utility.yul\":19386:19530   */\n    tag_372:\n        /* \"#utility.yul\":19438:19442   */\n      0x00\n        /* \"#utility.yul\":19461:19464   */\n      dup2\n        /* \"#utility.yul\":19453:19464   */\n      swap1\n      pop\n        /* \"#utility.yul\":19484:19487   */\n      dup2\n        /* \"#utility.yul\":19481:19482   */\n      0x00\n        /* \"#utility.yul\":19474:19488   */\n      mstore\n        /* \"#utility.yul\":19518:19522   */\n      0x20\n        /* \"#utility.yul\":19515:19516   */\n      0x00\n        /* \"#utility.yul\":19505:19523   */\n      keccak256\n        /* \"#utility.yul\":19497:19523   */\n      swap1\n      pop\n        /* \"#utility.yul\":19386:19530   */\n      swap2\n      swap1\n      pop\n      jump\t// out\n        /* \"#utility.yul\":19558:20407   */\n    tag_373:\n        /* \"#utility.yul\":19663:19666   */\n      0x00\n        /* \"#utility.yul\":19700:19705   */\n      dup2\n        /* \"#utility.yul\":19694:19706   */\n      sload\n        /* \"#utility.yul\":19729:19765   */\n      tag_574\n        /* \"#utility.yul\":19755:19764   */\n      dup2\n        /* \"#utility.yul\":19729:19765   */\n      tag_176\n      jump\t// in\n    tag_574:\n        /* \"#utility.yul\":19781:19869   */\n      tag_575\n        /* \"#utility.yul\":19862:19868   */\n      dup2\n        /* \"#utility.yul\":19857:19860   */\n      dup7\n        /* \"#utility.yul\":19781:19869   */\n      tag_371\n      jump\t// in\n    tag_575:\n        /* \"#utility.yul\":19774:19869   */\n      swap5\n      pop\n        /* \"#utility.yul\":19900:19901   */\n      0x01\n        /* \"#utility.yul\":19889:19898   */\n      dup3\n        /* \"#utility.yul\":19885:19902   */\n      and\n        /* \"#utility.yul\":19916:19917   */\n      0x00\n        /* \"#utility.yul\":19911:20048   */\n      dup2\n      eq\n      tag_577\n      jumpi\n        /* \"#utility.yul\":20062:20063   */\n      0x01\n        /* \"#utility.yul\":20057:20401   */\n      dup2\n      eq\n      tag_578\n      jumpi\n        /* \"#utility.yul\":19878:20401   */\n      jump(tag_576)\n        /* \"#utility.yul\":19911:20048   */\n    tag_577:\n        /* \"#utility.yul\":19995:19999   */\n      0xff\n        /* \"#utility.yul\":19991:20000   */\n      not\n        /* \"#utility.yul\":19980:19989   */\n      dup4\n        /* \"#utility.yul\":19976:20001   */\n      and\n        /* \"#utility.yul\":19971:19974   */\n      dup7\n        /* \"#utility.yul\":19964:20002   */\n      mstore\n        /* \"#utility.yul\":20031:20037   */\n      dup2\n        /* \"#utility.yul\":20026:20029   */\n      dup7\n        /* \"#utility.yul\":20022:20038   */\n      add\n        /* \"#utility.yul\":20015:20038   */\n      swap4\n      pop\n        /* \"#utility.yul\":19911:20048   */\n      jump(tag_576)\n        /* \"#utility.yul\":20057:20401   */\n    tag_578:\n        /* \"#utility.yul\":20124:20165   */\n      tag_579\n        /* \"#utility.yul\":20159:20164   */\n      dup6\n        /* \"#utility.yul\":20124:20165   */\n      tag_372\n      jump\t// in\n    tag_579:\n        /* \"#utility.yul\":20187:20188   */\n      0x00\n        /* \"#utility.yul\":20201:20355   */\n    tag_580:\n        /* \"#utility.yul\":20215:20221   */\n      dup4\n        /* \"#utility.yul\":20212:20213   */\n      dup2\n        /* \"#utility.yul\":20209:20222   */\n      lt\n        /* \"#utility.yul\":20201:20355   */\n      iszero\n      tag_582\n      jumpi\n        /* \"#utility.yul\":20289:20296   */\n      dup2\n        /* \"#utility.yul\":20283:20297   */\n      sload\n        /* \"#utility.yul\":20279:20280   */\n      dup2\n        /* \"#utility.yul\":20274:20277   */\n      dup10\n        /* \"#utility.yul\":20270:20281   */\n      add\n        /* \"#utility.yul\":20263:20298   */\n      mstore\n        /* \"#utility.yul\":20339:20340   */\n      0x01\n        /* \"#utility.yul\":20330:20337   */\n      dup3\n        /* \"#utility.yul\":20326:20341   */\n      add\n        /* \"#utility.yul\":20315:20341   */\n      swap2\n      pop\n        /* \"#utility.yul\":20237:20241   */\n      0x20\n        /* \"#utility.yul\":20234:20235   */\n      dup2\n        /* \"#utility.yul\":20230:20242   */\n      add\n        /* \"#utility.yul\":20225:20242   */\n      swap1\n      pop\n        /* \"#utility.yul\":20201:20355   */\n      jump(tag_580)\n    tag_582:\n        /* \"#utility.yul\":20384:20390   */\n      dup4\n        /* \"#utility.yul\":20379:20382   */\n      dup9\n        /* \"#utility.yul\":20375:20391   */\n      add\n        /* \"#utility.yul\":20368:20391   */\n      swap6\n      pop\n        /* \"#utility.yul\":20064:20401   */\n      pop\n      pop\n        /* \"#utility.yul\":19878:20401   */\n    tag_576:\n      pop\n        /* \"#utility.yul\":19667:20407   */\n      pop\n      pop\n        /* \"#utility.yul\":19558:20407   */\n      swap3\n      swap2\n      pop\n      pop\n      jump\t// out\n        /* \"#utility.yul\":20413:20686   */\n    tag_300:\n        /* \"#utility.yul\":20544:20547   */\n      0x00\n        /* \"#utility.yul\":20566:20660   */\n      tag_584\n        /* \"#utility.yul\":20656:20659   */\n      dup3\n        /* \"#utility.yul\":20647:20653   */\n      dup5\n        /* \"#utility.yul\":20566:20660   */\n      tag_373\n      jump\t// in\n    tag_584:\n        /* \"#utility.yul\":20559:20660   */\n      swap2\n      pop\n        /* \"#utility.yul\":20677:20680   */\n      dup2\n        /* \"#utility.yul\":20670:20680   */\n      swap1\n      pop\n        /* \"#utility.yul\":20413:20686   */\n      swap3\n      swap2\n      pop\n      pop\n      jump\t// out\n        /* \"#utility.yul\":20692:21356   */\n    tag_302:\n        /* \"#utility.yul\":20897:20901   */\n      0x00\n        /* \"#utility.yul\":20935:20938   */\n      0xa0\n        /* \"#utility.yul\":20924:20933   */\n      dup3\n        /* \"#utility.yul\":20920:20939   */\n      add\n        /* \"#utility.yul\":20912:20939   */\n      swap1\n      pop\n        /* \"#utility.yul\":20949:21020   */\n      tag_586\n        /* \"#utility.yul\":21017:21018   */\n      0x00\n        /* \"#utility.yul\":21006:21015   */\n      dup4\n        /* \"#utility.yul\":21002:21019   */\n      add\n        /* \"#utility.yul\":20993:20999   */\n      dup9\n        /* \"#utility.yul\":20949:21020   */\n      tag_344\n      jump\t// in\n    tag_586:\n        /* \"#utility.yul\":21030:21102   */\n      tag_587\n        /* \"#utility.yul\":21098:21100   */\n      0x20\n        /* \"#utility.yul\":21087:21096   */\n      dup4\n        /* \"#utility.yul\":21083:21101   */\n      add\n        /* \"#utility.yul\":21074:21080   */\n      dup8\n        /* \"#utility.yul\":21030:21102   */\n      tag_344\n      jump\t// in\n    tag_587:\n        /* \"#utility.yul\":21112:21184   */\n      tag_588\n        /* \"#utility.yul\":21180:21182   */\n      0x40\n        /* \"#utility.yul\":21169:21178   */\n      dup4\n        /* \"#utility.yul\":21165:21183   */\n      add\n        /* \"#utility.yul\":21156:21162   */\n      dup7\n        /* \"#utility.yul\":21112:21184   */\n      tag_344\n      jump\t// in\n    tag_588:\n        /* \"#utility.yul\":21194:21266   */\n      tag_589\n        /* \"#utility.yul\":21262:21264   */\n      0x60\n        /* \"#utility.yul\":21251:21260   */\n      dup4\n        /* \"#utility.yul\":21247:21265   */\n      add\n        /* \"#utility.yul\":21238:21244   */\n      dup6\n        /* \"#utility.yul\":21194:21266   */\n      tag_324\n      jump\t// in\n    tag_589:\n        /* \"#utility.yul\":21276:21349   */\n      tag_590\n        /* \"#utility.yul\":21344:21347   */\n      0x80\n        /* \"#utility.yul\":21333:21342   */\n      dup4\n        /* \"#utility.yul\":21329:21348   */\n      add\n        /* \"#utility.yul\":21320:21326   */\n      dup5\n        /* \"#utility.yul\":21276:21349   */\n      tag_354\n      jump\t// in\n    tag_590:\n        /* \"#utility.yul\":20692:21356   */\n      swap7\n      swap6\n      pop\n      pop\n      pop\n      pop\n      pop\n      pop\n      jump\t// out\n        /* \"#utility.yul\":21362:21532   */\n    tag_374:\n        /* \"#utility.yul\":21502:21524   */\n      0x5452414e534645525f46524f4d5f4641494c4544000000000000000000000000\n        /* \"#utility.yul\":21498:21499   */\n      0x00\n        /* \"#utility.yul\":21490:21496   */\n      dup3\n        /* \"#utility.yul\":21486:21500   */\n      add\n        /* \"#utility.yul\":21479:21525   */\n      mstore\n        /* \"#utility.yul\":21362:21532   */\n      pop\n      jump\t// out\n        /* \"#utility.yul\":21538:21904   */\n    tag_375:\n        /* \"#utility.yul\":21680:21683   */\n      0x00\n        /* \"#utility.yul\":21701:21768   */\n      tag_593\n        /* \"#utility.yul\":21765:21767   */\n      0x14\n        /* \"#utility.yul\":21760:21763   */\n      dup4\n        /* \"#utility.yul\":21701:21768   */\n      tag_326\n      jump\t// in\n    tag_593:\n        /* \"#utility.yul\":21694:21768   */\n      swap2\n      pop\n        /* \"#utility.yul\":21777:21870   */\n      tag_594\n        /* \"#utility.yul\":21866:21869   */\n      dup3\n        /* \"#utility.yul\":21777:21870   */\n      tag_374\n      jump\t// in\n    tag_594:\n        /* \"#utility.yul\":21895:21897   */\n      0x20\n        /* \"#utility.yul\":21890:21893   */\n      dup3\n        /* \"#utility.yul\":21886:21898   */\n      add\n        /* \"#utility.yul\":21879:21898   */\n      swap1\n      pop\n        /* \"#utility.yul\":21538:21904   */\n      swap2\n      swap1\n      pop\n      jump\t// out\n        /* \"#utility.yul\":21910:22329   */\n    tag_306:\n        /* \"#utility.yul\":22076:22080   */\n      0x00\n        /* \"#utility.yul\":22114:22116   */\n      0x20\n        /* \"#utility.yul\":22103:22112   */\n      dup3\n        /* \"#utility.yul\":22099:22117   */\n      add\n        /* \"#utility.yul\":22091:22117   */\n      swap1\n      pop\n        /* \"#utility.yul\":22163:22172   */\n      dup2\n        /* \"#utility.yul\":22157:22161   */\n      dup2\n        /* \"#utility.yul\":22153:22173   */\n      sub\n        /* \"#utility.yul\":22149:22150   */\n      0x00\n        /* \"#utility.yul\":22138:22147   */\n      dup4\n        /* \"#utility.yul\":22134:22151   */\n      add\n        /* \"#utility.yul\":22127:22174   */\n      mstore\n        /* \"#utility.yul\":22191:22322   */\n      tag_596\n        /* \"#utility.yul\":22317:22321   */\n      dup2\n        /* \"#utility.yul\":22191:22322   */\n      tag_375\n      jump\t// in\n    tag_596:\n        /* \"#utility.yul\":22183:22322   */\n      swap1\n      pop\n        /* \"#utility.yul\":21910:22329   */\n      swap2\n      swap1\n      pop\n      jump\t// out\n        /* \"#utility.yul\":22335:22640   */\n    tag_309:\n        /* \"#utility.yul\":22375:22378   */\n      0x00\n        /* \"#utility.yul\":22394:22414   */\n      tag_598\n        /* \"#utility.yul\":22412:22413   */\n      dup3\n        /* \"#utility.yul\":22394:22414   */\n      tag_323\n      jump\t// in\n    tag_598:\n        /* \"#utility.yul\":22389:22414   */\n      swap2\n      pop\n        /* \"#utility.yul\":22428:22448   */\n      tag_599\n        /* \"#utility.yul\":22446:22447   */\n      dup4\n        /* \"#utility.yul\":22428:22448   */\n      tag_323\n      jump\t// in\n    tag_599:\n        /* \"#utility.yul\":22423:22448   */\n      swap3\n      pop\n        /* \"#utility.yul\":22582:22583   */\n      dup3\n        /* \"#utility.yul\":22514:22580   */\n      0xffffffffffffffffffffffffffffffffffffffffffffffffffffffffffffffff\n        /* \"#utility.yul\":22510:22584   */\n      sub\n        /* \"#utility.yul\":22507:22508   */\n      dup3\n        /* \"#utility.yul\":22504:22585   */\n      gt\n        /* \"#utility.yul\":22501:22608   */\n      iszero\n      tag_600\n      jumpi\n        /* \"#utility.yul\":22588:22606   */\n      tag_601\n      tag_357\n      jump\t// in\n    tag_601:\n        /* \"#utility.yul\":22501:22608   */\n    tag_600:\n        /* \"#utility.yul\":22632:22633   */\n      dup3\n        /* \"#utility.yul\":22629:22630   */\n      dup3\n        /* \"#utility.yul\":22625:22634   */\n      add\n        /* \"#utility.yul\":22618:22634   */\n      swap1\n      pop\n        /* \"#utility.yul\":22335:22640   */\n      swap3\n      swap2\n      pop\n      pop\n      jump\t// out\n        /* \"#utility.yul\":22646:22879   */\n    tag_313:\n        /* \"#utility.yul\":22685:22688   */\n      0x00\n        /* \"#utility.yul\":22708:22732   */\n      tag_603\n        /* \"#utility.yul\":22726:22731   */\n      dup3\n        /* \"#utility.yul\":22708:22732   */\n      tag_323\n      jump\t// in\n    tag_603:\n        /* \"#utility.yul\":22699:22732   */\n      swap2\n      pop\n        /* \"#utility.yul\":22754:22820   */\n      0xffffffffffffffffffffffffffffffffffffffffffffffffffffffffffffffff\n        /* \"#utility.yul\":22747:22752   */\n      dup3\n        /* \"#utility.yul\":22744:22821   */\n      eq\n        /* \"#utility.yul\":22741:22844   */\n      iszero\n      tag_604\n      jumpi\n        /* \"#utility.yul\":22824:22842   */\n      tag_605\n      tag_357\n      jump\t// in\n    tag_605:\n        /* \"#utility.yul\":22741:22844   */\n    tag_604:\n        /* \"#utility.yul\":22871:22872   */\n      0x01\n        /* \"#utility.yul\":22864:22869   */\n      dup3\n        /* \"#utility.yul\":22860:22873   */\n      add\n        /* \"#utility.yul\":22853:22873   */\n      swap1\n      pop\n        /* \"#utility.yul\":22646:22879   */\n      swap2\n      swap1\n      pop\n      jump\t// out\n        /* \"#utility.yul\":22885:23050   */\n    tag_376:\n        /* \"#utility.yul\":23025:23042   */\n      0x5452414e534645525f4641494c45440000000000000000000000000000000000\n        /* \"#utility.yul\":23021:23022   */\n      0x00\n        /* \"#utility.yul\":23013:23019   */\n      dup3\n        /* \"#utility.yul\":23009:23023   */\n      add\n        /* \"#utility.yul\":23002:23043   */\n      mstore\n        /* \"#utility.yul\":22885:23050   */\n      pop\n      jump\t// out\n        /* \"#utility.yul\":23056:23422   */\n    tag_377:\n        /* \"#utility.yul\":23198:23201   */\n      0x00\n        /* \"#utility.yul\":23219:23286   */\n      tag_608\n        /* \"#utility.yul\":23283:23285   */\n      0x0f\n        /* \"#utility.yul\":23278:23281   */\n      dup4\n        /* \"#utility.yul\":23219:23286   */\n      tag_326\n      jump\t// in\n    tag_608:\n        /* \"#utility.yul\":23212:23286   */\n      swap2\n      pop\n        /* \"#utility.yul\":23295:23388   */\n      tag_609\n        /* \"#utility.yul\":23384:23387   */\n      dup3\n        /* \"#utility.yul\":23295:23388   */\n      tag_376\n      jump\t// in\n    tag_609:\n        /* \"#utility.yul\":23413:23415   */\n      0x20\n        /* \"#utility.yul\":23408:23411   */\n      dup3\n        /* \"#utility.yul\":23404:23416   */\n      add\n        /* \"#utility.yul\":23397:23416   */\n      swap1\n      pop\n        /* \"#utility.yul\":23056:23422   */\n      swap2\n      swap1\n      pop\n      jump\t// out\n        /* \"#utility.yul\":23428:23847   */\n    tag_322:\n        /* \"#utility.yul\":23594:23598   */\n      0x00\n        /* \"#utility.yul\":23632:23634   */\n      0x20\n        /* \"#utility.yul\":23621:23630   */\n      dup3\n        /* \"#utility.yul\":23617:23635   */\n      add\n        /* \"#utility.yul\":23609:23635   */\n      swap1\n      pop\n        /* \"#utility.yul\":23681:23690   */\n      dup2\n        /* \"#utility.yul\":23675:23679   */\n      dup2\n        /* \"#utility.yul\":23671:23691   */\n      sub\n        /* \"#utility.yul\":23667:23668   */\n      0x00\n        /* \"#utility.yul\":23656:23665   */\n      dup4\n        /* \"#utility.yul\":23652:23669   */\n      add\n        /* \"#utility.yul\":23645:23692   */\n      mstore\n        /* \"#utility.yul\":23709:23840   */\n      tag_611\n        /* \"#utility.yul\":23835:23839   */\n      dup2\n        /* \"#utility.yul\":23709:23840   */\n      tag_377\n      jump\t// in\n    tag_611:\n        /* \"#utility.yul\":23701:23840   */\n      swap1\n      pop\n        /* \"#utility.yul\":23428:23847   */\n      swap2\n      swap1\n      pop\n      jump\t// out\n\n    auxdata: 0xa26469706673582212203a8973b9e8c0fb6efabcb18d83646afed98fc800f35bb084e35330e60fbaf89b64736f6c634300080a0033\n}\n",
				"bytecode": {
					"linkReferences": {},
					"object": "610140604052600060065560006007553480156200001c57600080fd5b506040516200342c3803806200342c8339818101604052810190620000429190620004f6565b83838383828282826000908051906020019062000061929190620001f2565b5081600190805190602001906200007a929190620001f2565b508060ff1660808160ff16815250504660a08181525050620000a16200016260201b60201c565b60c081815250505050508373ffffffffffffffffffffffffffffffffffffffff1660e08173ffffffffffffffffffffffffffffffffffffffff1681525050505050508373ffffffffffffffffffffffffffffffffffffffff166101008173ffffffffffffffffffffffffffffffffffffffff1681525050608051600a62000129919062000733565b61012081815250507fffffffffffffffffffffffffffffffffffffffffffffffffffffffffffffffff6002819055505050505062000947565b60007f8b73c3c69bb8fe3d512ecc4cf759cc79239f7b179b0ffacaa9a75d522b39400f600060405162000196919062000894565b60405180910390207fc89efdaa54c0f20c7adf612882df0950f5a951637e0307cdcb4c672f298b8bc64630604051602001620001d7959493929190620008ea565b60405160208183030381529060405280519060200120905090565b8280546200020090620007b3565b90600052602060002090601f01602090048101928262000224576000855562000270565b82601f106200023f57805160ff191683800117855562000270565b8280016001018555821562000270579182015b828111156200026f57825182559160200191906001019062000252565b5b5090506200027f919062000283565b5090565b5b808211156200029e57600081600090555060010162000284565b5090565b6000604051905090565b600080fd5b600080fd5b600073ffffffffffffffffffffffffffffffffffffffff82169050919050565b6000620002e382620002b6565b9050919050565b6000620002f782620002d6565b9050919050565b6200030981620002ea565b81146200031557600080fd5b50565b6000815190506200032981620002fe565b92915050565b600080fd5b600080fd5b6000601f19601f8301169050919050565b7f4e487b7100000000000000000000000000000000000000000000000000000000600052604160045260246000fd5b620003848262000339565b810181811067ffffffffffffffff82111715620003a657620003a56200034a565b5b80604052505050565b6000620003bb620002a2565b9050620003c9828262000379565b919050565b600067ffffffffffffffff821115620003ec57620003eb6200034a565b5b620003f78262000339565b9050602081019050919050565b60005b838110156200042457808201518184015260208101905062000407565b8381111562000434576000848401525b50505050565b6000620004516200044b84620003ce565b620003af565b90508281526020810184848401111562000470576200046f62000334565b5b6200047d84828562000404565b509392505050565b600082601f8301126200049d576200049c6200032f565b5b8151620004af8482602086016200043a565b91505092915050565b600060ff82169050919050565b620004d081620004b8565b8114620004dc57600080fd5b50565b600081519050620004f081620004c5565b92915050565b60008060008060808587031215620005135762000512620002ac565b5b6000620005238782880162000318565b945050602085015167ffffffffffffffff811115620005475762000546620002b1565b5b620005558782880162000485565b935050604085015167ffffffffffffffff811115620005795762000578620002b1565b5b620005878782880162000485565b92505060606200059a87828801620004df565b91505092959194509250565b7f4e487b7100000000000000000000000000000000000000000000000000000000600052601160045260246000fd5b60008160011c9050919050565b6000808291508390505b600185111562000634578086048111156200060c576200060b620005a6565b5b60018516156200061c5780820291505b80810290506200062c85620005d5565b9450620005ec565b94509492505050565b6000826200064f576001905062000722565b816200065f576000905062000722565b81600181146200067857600281146200068357620006b9565b600191505062000722565b60ff841115620006985762000697620005a6565b5b8360020a915084821115620006b257620006b1620005a6565b5b5062000722565b5060208310610133831016604e8410600b8410161715620006f35782820a905083811115620006ed57620006ec620005a6565b5b62000722565b620007028484846001620005e2565b925090508184048111156200071c576200071b620005a6565b5b81810290505b9392505050565b6000819050919050565b6000620007408262000729565b91506200074d83620004b8565b92506200077c7fffffffffffffffffffffffffffffffffffffffffffffffffffffffffffffffff84846200063d565b905092915050565b7f4e487b7100000000000000000000000000000000000000000000000000000000600052602260045260246000fd5b60006002820490506001821680620007cc57607f821691505b60208210811415620007e357620007e262000784565b5b50919050565b600081905092915050565b60008190508160005260206000209050919050565b600081546200081881620007b3565b620008248186620007e9565b9450600182166000811462000842576001811462000854576200088b565b60ff198316865281860193506200088b565b6200085f85620007f4565b60005b83811015620008835781548189015260018201915060208101905062000862565b838801955050505b50505092915050565b6000620008a2828462000809565b915081905092915050565b6000819050919050565b620008c281620008ad565b82525050565b620008d38162000729565b82525050565b620008e481620002d6565b82525050565b600060a082019050620009016000830188620008b7565b620009106020830187620008b7565b6200091f6040830186620008b7565b6200092e6060830185620008c8565b6200093d6080830184620008d9565b9695505050505050565b60805160a05160c05160e0516101005161012051612a75620009b76000396000505060006115c20152600081816106f601528181610c5c01528181610d1201528181610e1d015281816112d0015261156f01526000610c3501526000610c0101526000610bdb0152612a756000f3fe608060405234801561001057600080fd5b50600436106101e55760003560e01c806394bf804d1161010f578063c63d75b6116100a2578063d905777e11610071578063d905777e14610644578063dd62ed3e14610674578063ef8b30f7146106a4578063fc407ae7146106d4576101e5565b8063c63d75b614610598578063c6e6f592146105c8578063ce96cb77146105f8578063d505accf14610628576101e5565b8063b460af94116100de578063b460af94146104fc578063ba0876521461052c578063bc368a8a1461055c578063c5d664c61461057a576101e5565b806394bf804d1461044e57806395d89b411461047e578063a9059cbb1461049c578063b3d7f6b9146104cc576101e5565b8063313ce567116101875780634cdad506116101565780634cdad5061461038e5780636e553f65146103be57806370a08231146103ee5780637ecebe001461041e576101e5565b8063313ce567146103045780633644e5151461032257806338d52e0f14610340578063402d267d1461035e576101e5565b8063095ea7b3116101c3578063095ea7b3146102565780630a28a4771461028657806318160ddd146102b657806323b872dd146102d4576101e5565b806301e1d114146101ea57806306fdde031461020857806307a2d13a14610226575b600080fd5b6101f26106f2565b6040516101ff9190611e27565b60405180910390f35b610210610793565b60405161021d9190611edb565b60405180910390f35b610240600480360381019061023b9190611f2e565b610821565b60405161024d9190611e27565b60405180910390f35b610270600480360381019061026b9190611fb9565b61085c565b60405161027d9190612014565b60405180910390f35b6102a0600480360381019061029b9190611f2e565b61094e565b6040516102ad9190611e27565b60405180910390f35b6102be610989565b6040516102cb9190611e27565b60405180910390f35b6102ee60048036038101906102e9919061202f565b61098f565b6040516102fb9190612014565b60405180910390f35b61030c610bd9565b604051610319919061209e565b60405180910390f35b61032a610bfd565b60405161033791906120d2565b60405180910390f35b610348610c5a565b604051610355919061214c565b60405180910390f35b61037860048036038101906103739190612167565b610c7e565b6040516103859190611e27565b60405180910390f35b6103a860048036038101906103a39190611f2e565b610ca8565b6040516103b59190611e27565b60405180910390f35b6103d860048036038101906103d39190612194565b610cba565b6040516103e59190611e27565b60405180910390f35b61040860048036038101906104039190612167565b610dd8565b6040516104159190611e27565b60405180910390f35b61043860048036038101906104339190612167565b610df0565b6040516104459190611e27565b60405180910390f35b61046860048036038101906104639190612194565b610e08565b6040516104759190611e27565b60405180910390f35b610486610ee3565b6040516104939190611edb565b60405180910390f35b6104b660048036038101906104b19190611fb9565b610f71565b6040516104c39190612014565b60405180910390f35b6104e660048036038101906104e19190611f2e565b611085565b6040516104f39190611e27565b60405180910390f35b610516600480360381019061051191906121d4565b6110c0565b6040516105239190611e27565b60405180910390f35b610546600480360381019061054191906121d4565b61131b565b6040516105539190611e27565b60405180910390f35b6105646115ba565b6040516105719190611e27565b60405180910390f35b6105826115c0565b60405161058f919061214c565b60405180910390f35b6105b260048036038101906105ad9190612167565b6115e4565b6040516105bf9190611e27565b60405180910390f35b6105e260048036038101906105dd9190611f2e565b61160e565b6040516105ef9190611e27565b60405180910390f35b610612600480360381019061060d9190612167565b611649565b60405161061f9190611e27565b60405180910390f35b610642600480360381019061063d919061227f565b61169a565b005b61065e60048036038101906106599190612167565b611993565b60405161066b9190611e27565b60405180910390f35b61068e60048036038101906106899190612321565b6119dc565b60405161069b9190611e27565b60405180910390f35b6106be60048036038101906106b99190611f2e565b611a01565b6040516106cb9190611e27565b60405180910390f35b6106dc611a13565b6040516106e99190611e27565b60405180910390f35b60007f000000000000000000000000000000000000000000000000000000000000000073ffffffffffffffffffffffffffffffffffffffff166370a08231306040518263ffffffff1660e01b815260040161074d9190612370565b602060405180830381865afa15801561076a573d6000803e3d6000fd5b505050506040513d601f19601f8201168201806040525081019061078e91906123a0565b905090565b600080546107a0906123fc565b80601f01602080910402602001604051908101604052809291908181526020018280546107cc906123fc565b80156108195780601f106107ee57610100808354040283529160200191610819565b820191906000526020600020905b8154815290600101906020018083116107fc57829003601f168201915b505050505081565b6000806002549050600081146108525761084d61083c6106f2565b8285611a199092919063ffffffff16565b610854565b825b915050919050565b600081600460003373ffffffffffffffffffffffffffffffffffffffff1673ffffffffffffffffffffffffffffffffffffffff16815260200190815260200160002060008573ffffffffffffffffffffffffffffffffffffffff1673ffffffffffffffffffffffffffffffffffffffff168152602001908152602001600020819055508273ffffffffffffffffffffffffffffffffffffffff163373ffffffffffffffffffffffffffffffffffffffff167f8c5be1e5ebec7d5bd14f71427d1e84f3dd0314c0f7b2291e5b200ac8c7c3b9258460405161093c9190611e27565b60405180910390a36001905092915050565b60008060025490506000811461097f5761097a8161096a6106f2565b85611a419092919063ffffffff16565b610981565b825b915050919050565b60025481565b600080600460008673ffffffffffffffffffffffffffffffffffffffff1673ffffffffffffffffffffffffffffffffffffffff16815260200190815260200160002060003373ffffffffffffffffffffffffffffffffffffffff1673ffffffffffffffffffffffffffffffffffffffff1681526020019081526020016000205490507fffffffffffffffffffffffffffffffffffffffffffffffffffffffffffffffff8114610ac5578281610a44919061245d565b600460008773ffffffffffffffffffffffffffffffffffffffff1673ffffffffffffffffffffffffffffffffffffffff16815260200190815260200160002060003373ffffffffffffffffffffffffffffffffffffffff1673ffffffffffffffffffffffffffffffffffffffff168152602001908152602001600020819055505b82600360008773ffffffffffffffffffffffffffffffffffffffff1673ffffffffffffffffffffffffffffffffffffffff1681526020019081526020016000206000828254610b14919061245d565b9250508190555082600360008673ffffffffffffffffffffffffffffffffffffffff1673ffffffffffffffffffffffffffffffffffffffff168152602001908152602001600020600082825401925050819055508373ffffffffffffffffffffffffffffffffffffffff168573ffffffffffffffffffffffffffffffffffffffff167fddf252ad1be2c89b69c2b068fc378daa952ba7f163c4a11628f55a4df523b3ef85604051610bc59190611e27565b60405180910390a360019150509392505050565b7f000000000000000000000000000000000000000000000000000000000000000081565b60007f00000000000000000000000000000000000000000000000000000000000000004614610c3357610c2e611a73565b610c55565b7f00000000000000000000000000000000000000000000000000000000000000005b905090565b7f000000000000000000000000000000000000000000000000000000000000000081565b60007fffffffffffffffffffffffffffffffffffffffffffffffffffffffffffffffff9050919050565b6000610cb382610821565b9050919050565b600080610cc684611a01565b9150811415610d0a576040517f08c379a0000000000000000000000000000000000000000000000000000000008152600401610d01906124dd565b60405180910390fd5b610d573330857f000000000000000000000000000000000000000000000000000000000000000073ffffffffffffffffffffffffffffffffffffffff16611aff909392919063ffffffff16565b610d618282611b9e565b8173ffffffffffffffffffffffffffffffffffffffff163373ffffffffffffffffffffffffffffffffffffffff167fdcbc1c05240f31ff3ad067ef1ee35ce4997762752e3a095284754544f4c709d78584604051610dc09291906124fd565b60405180910390a3610dd28382611c6e565b92915050565b60036020528060005260406000206000915090505481565b60056020528060005260406000206000915090505481565b6000610e1383611085565b9050610e623330837f000000000000000000000000000000000000000000000000000000000000000073ffffffffffffffffffffffffffffffffffffffff16611aff909392919063ffffffff16565b610e6c8284611b9e565b8173ffffffffffffffffffffffffffffffffffffffff163373ffffffffffffffffffffffffffffffffffffffff167fdcbc1c05240f31ff3ad067ef1ee35ce4997762752e3a095284754544f4c709d78386604051610ecb9291906124fd565b60405180910390a3610edd8184611c6e565b92915050565b60018054610ef0906123fc565b80601f0160208091040260200160405190810160405280929190818152602001828054610f1c906123fc565b8015610f695780601f10610f3e57610100808354040283529160200191610f69565b820191906000526020600020905b815481529060010190602001808311610f4c57829003601f168201915b505050505081565b600081600360003373ffffffffffffffffffffffffffffffffffffffff1673ffffffffffffffffffffffffffffffffffffffff1681526020019081526020016000206000828254610fc2919061245d565b9250508190555081600360008573ffffffffffffffffffffffffffffffffffffffff1673ffffffffffffffffffffffffffffffffffffffff168152602001908152602001600020600082825401925050819055508273ffffffffffffffffffffffffffffffffffffffff163373ffffffffffffffffffffffffffffffffffffffff167fddf252ad1be2c89b69c2b068fc378daa952ba7f163c4a11628f55a4df523b3ef846040516110739190611e27565b60405180910390a36001905092915050565b6000806002549050600081146110b6576110b16110a06106f2565b8285611a419092919063ffffffff16565b6110b8565b825b915050919050565b60006110cb8461094e565b90508173ffffffffffffffffffffffffffffffffffffffff163373ffffffffffffffffffffffffffffffffffffffff1614611237576000600460008473ffffffffffffffffffffffffffffffffffffffff1673ffffffffffffffffffffffffffffffffffffffff16815260200190815260200160002060003373ffffffffffffffffffffffffffffffffffffffff1673ffffffffffffffffffffffffffffffffffffffff1681526020019081526020016000205490507fffffffffffffffffffffffffffffffffffffffffffffffffffffffffffffffff81146112355781816111b4919061245d565b600460008573ffffffffffffffffffffffffffffffffffffffff1673ffffffffffffffffffffffffffffffffffffffff16815260200190815260200160002060003373ffffffffffffffffffffffffffffffffffffffff1673ffffffffffffffffffffffffffffffffffffffff168152602001908152602001600020819055505b505b6112418482611c8a565b61124b8282611ca6565b8173ffffffffffffffffffffffffffffffffffffffff168373ffffffffffffffffffffffffffffffffffffffff163373ffffffffffffffffffffffffffffffffffffffff167ffbde797d201c681b91056529119e0b02407c7bb96a4a2c75c01fc9667232c8db87856040516112c19291906124fd565b60405180910390a461131483857f000000000000000000000000000000000000000000000000000000000000000073ffffffffffffffffffffffffffffffffffffffff16611d769092919063ffffffff16565b9392505050565b60008173ffffffffffffffffffffffffffffffffffffffff163373ffffffffffffffffffffffffffffffffffffffff1614611487576000600460008473ffffffffffffffffffffffffffffffffffffffff1673ffffffffffffffffffffffffffffffffffffffff16815260200190815260200160002060003373ffffffffffffffffffffffffffffffffffffffff1673ffffffffffffffffffffffffffffffffffffffff1681526020019081526020016000205490507fffffffffffffffffffffffffffffffffffffffffffffffffffffffffffffffff8114611485578481611404919061245d565b600460008573ffffffffffffffffffffffffffffffffffffffff1673ffffffffffffffffffffffffffffffffffffffff16815260200190815260200160002060003373ffffffffffffffffffffffffffffffffffffffff1673ffffffffffffffffffffffffffffffffffffffff168152602001908152602001600020819055505b505b600061149285610ca8565b91508114156114d6576040517f08c379a00000000000000000000000000000000000000000000000000000000081526004016114cd90612572565b60405180910390fd5b6114e08185611c8a565b6114ea8285611ca6565b8173ffffffffffffffffffffffffffffffffffffffff168373ffffffffffffffffffffffffffffffffffffffff163373ffffffffffffffffffffffffffffffffffffffff167ffbde797d201c681b91056529119e0b02407c7bb96a4a2c75c01fc9667232c8db84886040516115609291906124fd565b60405180910390a46115b383827f000000000000000000000000000000000000000000000000000000000000000073ffffffffffffffffffffffffffffffffffffffff16611d769092919063ffffffff16565b9392505050565b60065481565b7f000000000000000000000000000000000000000000000000000000000000000081565b60007fffffffffffffffffffffffffffffffffffffffffffffffffffffffffffffffff9050919050565b60008060025490506000811461163f5761163a8161162a6106f2565b85611a199092919063ffffffff16565b611641565b825b915050919050565b6000611693600360008473ffffffffffffffffffffffffffffffffffffffff1673ffffffffffffffffffffffffffffffffffffffff16815260200190815260200160002054610821565b9050919050565b428410156116dd576040517f08c379a00000000000000000000000000000000000000000000000000000000081526004016116d4906125de565b60405180910390fd5b600060016116e9610bfd565b7f6e71edae12b1b97f4d1f60370fef10105fa2faae0126114a169c64845d6126c98a8a8a600560008f73ffffffffffffffffffffffffffffffffffffffff1673ffffffffffffffffffffffffffffffffffffffff1681526020019081526020016000206000815480929190600101919050558b604051602001611771969594939291906125fe565b604051602081830303815290604052805190602001206040516020016117989291906126d7565b60405160208183030381529060405280519060200120858585604051600081526020016040526040516117ce949392919061270e565b6020604051602081039080840390855afa1580156117f0573d6000803e3d6000fd5b505050602060405103519050600073ffffffffffffffffffffffffffffffffffffffff168173ffffffffffffffffffffffffffffffffffffffff161415801561186457508773ffffffffffffffffffffffffffffffffffffffff168173ffffffffffffffffffffffffffffffffffffffff16145b6118a3576040517f08c379a000000000000000000000000000000000000000000000000000000000815260040161189a9061279f565b60405180910390fd5b85600460008373ffffffffffffffffffffffffffffffffffffffff1673ffffffffffffffffffffffffffffffffffffffff16815260200190815260200160002060008973ffffffffffffffffffffffffffffffffffffffff1673ffffffffffffffffffffffffffffffffffffffff16815260200190815260200160002081905550508573ffffffffffffffffffffffffffffffffffffffff168773ffffffffffffffffffffffffffffffffffffffff167f8c5be1e5ebec7d5bd14f71427d1e84f3dd0314c0f7b2291e5b200ac8c7c3b925876040516119829190611e27565b60405180910390a350505050505050565b6000600360008373ffffffffffffffffffffffffffffffffffffffff1673ffffffffffffffffffffffffffffffffffffffff168152602001908152602001600020549050919050565b6004602052816000526040600020602052806000526040600020600091509150505481565b6000611a0c8261160e565b9050919050565b60075481565b60008284029050828482041484151782151516611a3557600080fd5b81810490509392505050565b60008284029050828482041484151782151516611a5d57600080fd5b6001826001830304018115150290509392505050565b60007f8b73c3c69bb8fe3d512ecc4cf759cc79239f7b179b0ffacaa9a75d522b39400f6000604051611aa5919061285e565b60405180910390207fc89efdaa54c0f20c7adf612882df0950f5a951637e0307cdcb4c672f298b8bc64630604051602001611ae4959493929190612875565b60405160208183030381529060405280519060200120905090565b60006040517f23b872dd0000000000000000000000000000000000000000000000000000000081528460048201528360248201528260448201526020600060648360008a5af13d15601f3d1160016000511416171691505080611b97576040517f08c379a0000000000000000000000000000000000000000000000000000000008152600401611b8e90612914565b60405180910390fd5b5050505050565b8060026000828254611bb09190612934565b9250508190555080600360008473ffffffffffffffffffffffffffffffffffffffff1673ffffffffffffffffffffffffffffffffffffffff168152602001908152602001600020600082825401925050819055508173ffffffffffffffffffffffffffffffffffffffff16600073ffffffffffffffffffffffffffffffffffffffff167fddf252ad1be2c89b69c2b068fc378daa952ba7f163c4a11628f55a4df523b3ef83604051611c629190611e27565b60405180910390a35050565b60076000815480929190611c819061298a565b91905055505050565b60066000815480929190611c9d9061298a565b91905055505050565b80600360008473ffffffffffffffffffffffffffffffffffffffff1673ffffffffffffffffffffffffffffffffffffffff1681526020019081526020016000206000828254611cf5919061245d565b9250508190555080600260008282540392505081905550600073ffffffffffffffffffffffffffffffffffffffff168273ffffffffffffffffffffffffffffffffffffffff167fddf252ad1be2c89b69c2b068fc378daa952ba7f163c4a11628f55a4df523b3ef83604051611d6a9190611e27565b60405180910390a35050565b60006040517fa9059cbb000000000000000000000000000000000000000000000000000000008152836004820152826024820152602060006044836000895af13d15601f3d1160016000511416171691505080611e08576040517f08c379a0000000000000000000000000000000000000000000000000000000008152600401611dff90612a1f565b60405180910390fd5b50505050565b6000819050919050565b611e2181611e0e565b82525050565b6000602082019050611e3c6000830184611e18565b92915050565b600081519050919050565b600082825260208201905092915050565b60005b83811015611e7c578082015181840152602081019050611e61565b83811115611e8b576000848401525b50505050565b6000601f19601f8301169050919050565b6000611ead82611e42565b611eb78185611e4d565b9350611ec7818560208601611e5e565b611ed081611e91565b840191505092915050565b60006020820190508181036000830152611ef58184611ea2565b905092915050565b600080fd5b611f0b81611e0e565b8114611f1657600080fd5b50565b600081359050611f2881611f02565b92915050565b600060208284031215611f4457611f43611efd565b5b6000611f5284828501611f19565b91505092915050565b600073ffffffffffffffffffffffffffffffffffffffff82169050919050565b6000611f8682611f5b565b9050919050565b611f9681611f7b565b8114611fa157600080fd5b50565b600081359050611fb381611f8d565b92915050565b60008060408385031215611fd057611fcf611efd565b5b6000611fde85828601611fa4565b9250506020611fef85828601611f19565b9150509250929050565b60008115159050919050565b61200e81611ff9565b82525050565b60006020820190506120296000830184612005565b92915050565b60008060006060848603121561204857612047611efd565b5b600061205686828701611fa4565b935050602061206786828701611fa4565b925050604061207886828701611f19565b9150509250925092565b600060ff82169050919050565b61209881612082565b82525050565b60006020820190506120b3600083018461208f565b92915050565b6000819050919050565b6120cc816120b9565b82525050565b60006020820190506120e760008301846120c3565b92915050565b6000819050919050565b600061211261210d61210884611f5b565b6120ed565b611f5b565b9050919050565b6000612124826120f7565b9050919050565b600061213682612119565b9050919050565b6121468161212b565b82525050565b6000602082019050612161600083018461213d565b92915050565b60006020828403121561217d5761217c611efd565b5b600061218b84828501611fa4565b91505092915050565b600080604083850312156121ab576121aa611efd565b5b60006121b985828601611f19565b92505060206121ca85828601611fa4565b9150509250929050565b6000806000606084860312156121ed576121ec611efd565b5b60006121fb86828701611f19565b935050602061220c86828701611fa4565b925050604061221d86828701611fa4565b9150509250925092565b61223081612082565b811461223b57600080fd5b50565b60008135905061224d81612227565b92915050565b61225c816120b9565b811461226757600080fd5b50565b60008135905061227981612253565b92915050565b600080600080600080600060e0888a03121561229e5761229d611efd565b5b60006122ac8a828b01611fa4565b97505060206122bd8a828b01611fa4565b96505060406122ce8a828b01611f19565b95505060606122df8a828b01611f19565b94505060806122f08a828b0161223e565b93505060a06123018a828b0161226a565b92505060c06123128a828b0161226a565b91505092959891949750929550565b6000806040838503121561233857612337611efd565b5b600061234685828601611fa4565b925050602061235785828601611fa4565b9150509250929050565b61236a81611f7b565b82525050565b60006020820190506123856000830184612361565b92915050565b60008151905061239a81611f02565b92915050565b6000602082840312156123b6576123b5611efd565b5b60006123c48482850161238b565b91505092915050565b7f4e487b7100000000000000000000000000000000000000000000000000000000600052602260045260246000fd5b6000600282049050600182168061241457607f821691505b60208210811415612428576124276123cd565b5b50919050565b7f4e487b7100000000000000000000000000000000000000000000000000000000600052601160045260246000fd5b600061246882611e0e565b915061247383611e0e565b9250828210156124865761248561242e565b5b828203905092915050565b7f5a45524f5f534841524553000000000000000000000000000000000000000000600082015250565b60006124c7600b83611e4d565b91506124d282612491565b602082019050919050565b600060208201905081810360008301526124f6816124ba565b9050919050565b60006040820190506125126000830185611e18565b61251f6020830184611e18565b9392505050565b7f5a45524f5f415353455453000000000000000000000000000000000000000000600082015250565b600061255c600b83611e4d565b915061256782612526565b602082019050919050565b6000602082019050818103600083015261258b8161254f565b9050919050565b7f5045524d49545f444541444c494e455f45585049524544000000000000000000600082015250565b60006125c8601783611e4d565b91506125d382612592565b602082019050919050565b600060208201905081810360008301526125f7816125bb565b9050919050565b600060c08201905061261360008301896120c3565b6126206020830188612361565b61262d6040830187612361565b61263a6060830186611e18565b6126476080830185611e18565b61265460a0830184611e18565b979650505050505050565b600081905092915050565b7f1901000000000000000000000000000000000000000000000000000000000000600082015250565b60006126a060028361265f565b91506126ab8261266a565b600282019050919050565b6000819050919050565b6126d16126cc826120b9565b6126b6565b82525050565b60006126e282612693565b91506126ee82856126c0565b6020820191506126fe82846126c0565b6020820191508190509392505050565b600060808201905061272360008301876120c3565b612730602083018661208f565b61273d60408301856120c3565b61274a60608301846120c3565b95945050505050565b7f494e56414c49445f5349474e4552000000000000000000000000000000000000600082015250565b6000612789600e83611e4d565b915061279482612753565b602082019050919050565b600060208201905081810360008301526127b88161277c565b9050919050565b600081905092915050565b60008190508160005260206000209050919050565b600081546127ec816123fc565b6127f681866127bf565b94506001821660008114612811576001811461282257612855565b60ff19831686528186019350612855565b61282b856127ca565b60005b8381101561284d5781548189015260018201915060208101905061282e565b838801955050505b50505092915050565b600061286a82846127df565b915081905092915050565b600060a08201905061288a60008301886120c3565b61289760208301876120c3565b6128a460408301866120c3565b6128b16060830185611e18565b6128be6080830184612361565b9695505050505050565b7f5452414e534645525f46524f4d5f4641494c4544000000000000000000000000600082015250565b60006128fe601483611e4d565b9150612909826128c8565b602082019050919050565b6000602082019050818103600083015261292d816128f1565b9050919050565b600061293f82611e0e565b915061294a83611e0e565b9250827fffffffffffffffffffffffffffffffffffffffffffffffffffffffffffffffff0382111561297f5761297e61242e565b5b828201905092915050565b600061299582611e0e565b91507fffffffffffffffffffffffffffffffffffffffffffffffffffffffffffffffff8214156129c8576129c761242e565b5b600182019050919050565b7f5452414e534645525f4641494c45440000000000000000000000000000000000600082015250565b6000612a09600f83611e4d565b9150612a14826129d3565b602082019050919050565b60006020820190508181036000830152612a38816129fc565b905091905056fea26469706673582212203a8973b9e8c0fb6efabcb18d83646afed98fc800f35bb084e35330e60fbaf89b64736f6c634300080a0033",
					"opcodes": "PUSH2 0x140 PUSH1 0x40 MSTORE PUSH1 0x0 PUSH1 0x6 SSTORE PUSH1 0x0 PUSH1 0x7 SSTORE CALLVALUE DUP1 ISZERO PUSH3 0x1C JUMPI PUSH1 0x0 DUP1 REVERT JUMPDEST POP PUSH1 0x40 MLOAD PUSH3 0x342C CODESIZE SUB DUP1 PUSH3 0x342C DUP4 CODECOPY DUP2 DUP2 ADD PUSH1 0x40 MSTORE DUP2 ADD SWAP1 PUSH3 0x42 SWAP2 SWAP1 PUSH3 0x4F6 JUMP JUMPDEST DUP4 DUP4 DUP4 DUP4 DUP3 DUP3 DUP3 DUP3 PUSH1 0x0 SWAP1 DUP1 MLOAD SWAP1 PUSH1 0x20 ADD SWAP1 PUSH3 0x61 SWAP3 SWAP2 SWAP1 PUSH3 0x1F2 JUMP JUMPDEST POP DUP2 PUSH1 0x1 SWAP1 DUP1 MLOAD SWAP1 PUSH1 0x20 ADD SWAP1 PUSH3 0x7A SWAP3 SWAP2 SWAP1 PUSH3 0x1F2 JUMP JUMPDEST POP DUP1 PUSH1 0xFF AND PUSH1 0x80 DUP2 PUSH1 0xFF AND DUP2 MSTORE POP POP CHAINID PUSH1 0xA0 DUP2 DUP2 MSTORE POP POP PUSH3 0xA1 PUSH3 0x162 PUSH1 0x20 SHL PUSH1 0x20 SHR JUMP JUMPDEST PUSH1 0xC0 DUP2 DUP2 MSTORE POP POP POP POP POP DUP4 PUSH20 0xFFFFFFFFFFFFFFFFFFFFFFFFFFFFFFFFFFFFFFFF AND PUSH1 0xE0 DUP2 PUSH20 0xFFFFFFFFFFFFFFFFFFFFFFFFFFFFFFFFFFFFFFFF AND DUP2 MSTORE POP POP POP POP POP POP DUP4 PUSH20 0xFFFFFFFFFFFFFFFFFFFFFFFFFFFFFFFFFFFFFFFF AND PUSH2 0x100 DUP2 PUSH20 0xFFFFFFFFFFFFFFFFFFFFFFFFFFFFFFFFFFFFFFFF AND DUP2 MSTORE POP POP PUSH1 0x80 MLOAD PUSH1 0xA PUSH3 0x129 SWAP2 SWAP1 PUSH3 0x733 JUMP JUMPDEST PUSH2 0x120 DUP2 DUP2 MSTORE POP POP PUSH32 0xFFFFFFFFFFFFFFFFFFFFFFFFFFFFFFFFFFFFFFFFFFFFFFFFFFFFFFFFFFFFFFFF PUSH1 0x2 DUP2 SWAP1 SSTORE POP POP POP POP POP PUSH3 0x947 JUMP JUMPDEST PUSH1 0x0 PUSH32 0x8B73C3C69BB8FE3D512ECC4CF759CC79239F7B179B0FFACAA9A75D522B39400F PUSH1 0x0 PUSH1 0x40 MLOAD PUSH3 0x196 SWAP2 SWAP1 PUSH3 0x894 JUMP JUMPDEST PUSH1 0x40 MLOAD DUP1 SWAP2 SUB SWAP1 KECCAK256 PUSH32 0xC89EFDAA54C0F20C7ADF612882DF0950F5A951637E0307CDCB4C672F298B8BC6 CHAINID ADDRESS PUSH1 0x40 MLOAD PUSH1 0x20 ADD PUSH3 0x1D7 SWAP6 SWAP5 SWAP4 SWAP3 SWAP2 SWAP1 PUSH3 0x8EA JUMP JUMPDEST PUSH1 0x40 MLOAD PUSH1 0x20 DUP2 DUP4 SUB SUB DUP2 MSTORE SWAP1 PUSH1 0x40 MSTORE DUP1 MLOAD SWAP1 PUSH1 0x20 ADD KECCAK256 SWAP1 POP SWAP1 JUMP JUMPDEST DUP3 DUP1 SLOAD PUSH3 0x200 SWAP1 PUSH3 0x7B3 JUMP JUMPDEST SWAP1 PUSH1 0x0 MSTORE PUSH1 0x20 PUSH1 0x0 KECCAK256 SWAP1 PUSH1 0x1F ADD PUSH1 0x20 SWAP1 DIV DUP2 ADD SWAP3 DUP3 PUSH3 0x224 JUMPI PUSH1 0x0 DUP6 SSTORE PUSH3 0x270 JUMP JUMPDEST DUP3 PUSH1 0x1F LT PUSH3 0x23F JUMPI DUP1 MLOAD PUSH1 0xFF NOT AND DUP4 DUP1 ADD OR DUP6 SSTORE PUSH3 0x270 JUMP JUMPDEST DUP3 DUP1 ADD PUSH1 0x1 ADD DUP6 SSTORE DUP3 ISZERO PUSH3 0x270 JUMPI SWAP2 DUP3 ADD JUMPDEST DUP3 DUP2 GT ISZERO PUSH3 0x26F JUMPI DUP3 MLOAD DUP3 SSTORE SWAP2 PUSH1 0x20 ADD SWAP2 SWAP1 PUSH1 0x1 ADD SWAP1 PUSH3 0x252 JUMP JUMPDEST JUMPDEST POP SWAP1 POP PUSH3 0x27F SWAP2 SWAP1 PUSH3 0x283 JUMP JUMPDEST POP SWAP1 JUMP JUMPDEST JUMPDEST DUP1 DUP3 GT ISZERO PUSH3 0x29E JUMPI PUSH1 0x0 DUP2 PUSH1 0x0 SWAP1 SSTORE POP PUSH1 0x1 ADD PUSH3 0x284 JUMP JUMPDEST POP SWAP1 JUMP JUMPDEST PUSH1 0x0 PUSH1 0x40 MLOAD SWAP1 POP SWAP1 JUMP JUMPDEST PUSH1 0x0 DUP1 REVERT JUMPDEST PUSH1 0x0 DUP1 REVERT JUMPDEST PUSH1 0x0 PUSH20 0xFFFFFFFFFFFFFFFFFFFFFFFFFFFFFFFFFFFFFFFF DUP3 AND SWAP1 POP SWAP2 SWAP1 POP JUMP JUMPDEST PUSH1 0x0 PUSH3 0x2E3 DUP3 PUSH3 0x2B6 JUMP JUMPDEST SWAP1 POP SWAP2 SWAP1 POP JUMP JUMPDEST PUSH1 0x0 PUSH3 0x2F7 DUP3 PUSH3 0x2D6 JUMP JUMPDEST SWAP1 POP SWAP2 SWAP1 POP JUMP JUMPDEST PUSH3 0x309 DUP2 PUSH3 0x2EA JUMP JUMPDEST DUP2 EQ PUSH3 0x315 JUMPI PUSH1 0x0 DUP1 REVERT JUMPDEST POP JUMP JUMPDEST PUSH1 0x0 DUP2 MLOAD SWAP1 POP PUSH3 0x329 DUP2 PUSH3 0x2FE JUMP JUMPDEST SWAP3 SWAP2 POP POP JUMP JUMPDEST PUSH1 0x0 DUP1 REVERT JUMPDEST PUSH1 0x0 DUP1 REVERT JUMPDEST PUSH1 0x0 PUSH1 0x1F NOT PUSH1 0x1F DUP4 ADD AND SWAP1 POP SWAP2 SWAP1 POP JUMP JUMPDEST PUSH32 0x4E487B7100000000000000000000000000000000000000000000000000000000 PUSH1 0x0 MSTORE PUSH1 0x41 PUSH1 0x4 MSTORE PUSH1 0x24 PUSH1 0x0 REVERT JUMPDEST PUSH3 0x384 DUP3 PUSH3 0x339 JUMP JUMPDEST DUP2 ADD DUP2 DUP2 LT PUSH8 0xFFFFFFFFFFFFFFFF DUP3 GT OR ISZERO PUSH3 0x3A6 JUMPI PUSH3 0x3A5 PUSH3 0x34A JUMP JUMPDEST JUMPDEST DUP1 PUSH1 0x40 MSTORE POP POP POP JUMP JUMPDEST PUSH1 0x0 PUSH3 0x3BB PUSH3 0x2A2 JUMP JUMPDEST SWAP1 POP PUSH3 0x3C9 DUP3 DUP3 PUSH3 0x379 JUMP JUMPDEST SWAP2 SWAP1 POP JUMP JUMPDEST PUSH1 0x0 PUSH8 0xFFFFFFFFFFFFFFFF DUP3 GT ISZERO PUSH3 0x3EC JUMPI PUSH3 0x3EB PUSH3 0x34A JUMP JUMPDEST JUMPDEST PUSH3 0x3F7 DUP3 PUSH3 0x339 JUMP JUMPDEST SWAP1 POP PUSH1 0x20 DUP2 ADD SWAP1 POP SWAP2 SWAP1 POP JUMP JUMPDEST PUSH1 0x0 JUMPDEST DUP4 DUP2 LT ISZERO PUSH3 0x424 JUMPI DUP1 DUP3 ADD MLOAD DUP2 DUP5 ADD MSTORE PUSH1 0x20 DUP2 ADD SWAP1 POP PUSH3 0x407 JUMP JUMPDEST DUP4 DUP2 GT ISZERO PUSH3 0x434 JUMPI PUSH1 0x0 DUP5 DUP5 ADD MSTORE JUMPDEST POP POP POP POP JUMP JUMPDEST PUSH1 0x0 PUSH3 0x451 PUSH3 0x44B DUP5 PUSH3 0x3CE JUMP JUMPDEST PUSH3 0x3AF JUMP JUMPDEST SWAP1 POP DUP3 DUP2 MSTORE PUSH1 0x20 DUP2 ADD DUP5 DUP5 DUP5 ADD GT ISZERO PUSH3 0x470 JUMPI PUSH3 0x46F PUSH3 0x334 JUMP JUMPDEST JUMPDEST PUSH3 0x47D DUP5 DUP3 DUP6 PUSH3 0x404 JUMP JUMPDEST POP SWAP4 SWAP3 POP POP POP JUMP JUMPDEST PUSH1 0x0 DUP3 PUSH1 0x1F DUP4 ADD SLT PUSH3 0x49D JUMPI PUSH3 0x49C PUSH3 0x32F JUMP JUMPDEST JUMPDEST DUP2 MLOAD PUSH3 0x4AF DUP5 DUP3 PUSH1 0x20 DUP7 ADD PUSH3 0x43A JUMP JUMPDEST SWAP2 POP POP SWAP3 SWAP2 POP POP JUMP JUMPDEST PUSH1 0x0 PUSH1 0xFF DUP3 AND SWAP1 POP SWAP2 SWAP1 POP JUMP JUMPDEST PUSH3 0x4D0 DUP2 PUSH3 0x4B8 JUMP JUMPDEST DUP2 EQ PUSH3 0x4DC JUMPI PUSH1 0x0 DUP1 REVERT JUMPDEST POP JUMP JUMPDEST PUSH1 0x0 DUP2 MLOAD SWAP1 POP PUSH3 0x4F0 DUP2 PUSH3 0x4C5 JUMP JUMPDEST SWAP3 SWAP2 POP POP JUMP JUMPDEST PUSH1 0x0 DUP1 PUSH1 0x0 DUP1 PUSH1 0x80 DUP6 DUP8 SUB SLT ISZERO PUSH3 0x513 JUMPI PUSH3 0x512 PUSH3 0x2AC JUMP JUMPDEST JUMPDEST PUSH1 0x0 PUSH3 0x523 DUP8 DUP3 DUP9 ADD PUSH3 0x318 JUMP JUMPDEST SWAP5 POP POP PUSH1 0x20 DUP6 ADD MLOAD PUSH8 0xFFFFFFFFFFFFFFFF DUP2 GT ISZERO PUSH3 0x547 JUMPI PUSH3 0x546 PUSH3 0x2B1 JUMP JUMPDEST JUMPDEST PUSH3 0x555 DUP8 DUP3 DUP9 ADD PUSH3 0x485 JUMP JUMPDEST SWAP4 POP POP PUSH1 0x40 DUP6 ADD MLOAD PUSH8 0xFFFFFFFFFFFFFFFF DUP2 GT ISZERO PUSH3 0x579 JUMPI PUSH3 0x578 PUSH3 0x2B1 JUMP JUMPDEST JUMPDEST PUSH3 0x587 DUP8 DUP3 DUP9 ADD PUSH3 0x485 JUMP JUMPDEST SWAP3 POP POP PUSH1 0x60 PUSH3 0x59A DUP8 DUP3 DUP9 ADD PUSH3 0x4DF JUMP JUMPDEST SWAP2 POP POP SWAP3 SWAP6 SWAP2 SWAP5 POP SWAP3 POP JUMP JUMPDEST PUSH32 0x4E487B7100000000000000000000000000000000000000000000000000000000 PUSH1 0x0 MSTORE PUSH1 0x11 PUSH1 0x4 MSTORE PUSH1 0x24 PUSH1 0x0 REVERT JUMPDEST PUSH1 0x0 DUP2 PUSH1 0x1 SHR SWAP1 POP SWAP2 SWAP1 POP JUMP JUMPDEST PUSH1 0x0 DUP1 DUP3 SWAP2 POP DUP4 SWAP1 POP JUMPDEST PUSH1 0x1 DUP6 GT ISZERO PUSH3 0x634 JUMPI DUP1 DUP7 DIV DUP2 GT ISZERO PUSH3 0x60C JUMPI PUSH3 0x60B PUSH3 0x5A6 JUMP JUMPDEST JUMPDEST PUSH1 0x1 DUP6 AND ISZERO PUSH3 0x61C JUMPI DUP1 DUP3 MUL SWAP2 POP JUMPDEST DUP1 DUP2 MUL SWAP1 POP PUSH3 0x62C DUP6 PUSH3 0x5D5 JUMP JUMPDEST SWAP5 POP PUSH3 0x5EC JUMP JUMPDEST SWAP5 POP SWAP5 SWAP3 POP POP POP JUMP JUMPDEST PUSH1 0x0 DUP3 PUSH3 0x64F JUMPI PUSH1 0x1 SWAP1 POP PUSH3 0x722 JUMP JUMPDEST DUP2 PUSH3 0x65F JUMPI PUSH1 0x0 SWAP1 POP PUSH3 0x722 JUMP JUMPDEST DUP2 PUSH1 0x1 DUP2 EQ PUSH3 0x678 JUMPI PUSH1 0x2 DUP2 EQ PUSH3 0x683 JUMPI PUSH3 0x6B9 JUMP JUMPDEST PUSH1 0x1 SWAP2 POP POP PUSH3 0x722 JUMP JUMPDEST PUSH1 0xFF DUP5 GT ISZERO PUSH3 0x698 JUMPI PUSH3 0x697 PUSH3 0x5A6 JUMP JUMPDEST JUMPDEST DUP4 PUSH1 0x2 EXP SWAP2 POP DUP5 DUP3 GT ISZERO PUSH3 0x6B2 JUMPI PUSH3 0x6B1 PUSH3 0x5A6 JUMP JUMPDEST JUMPDEST POP PUSH3 0x722 JUMP JUMPDEST POP PUSH1 0x20 DUP4 LT PUSH2 0x133 DUP4 LT AND PUSH1 0x4E DUP5 LT PUSH1 0xB DUP5 LT AND OR ISZERO PUSH3 0x6F3 JUMPI DUP3 DUP3 EXP SWAP1 POP DUP4 DUP2 GT ISZERO PUSH3 0x6ED JUMPI PUSH3 0x6EC PUSH3 0x5A6 JUMP JUMPDEST JUMPDEST PUSH3 0x722 JUMP JUMPDEST PUSH3 0x702 DUP5 DUP5 DUP5 PUSH1 0x1 PUSH3 0x5E2 JUMP JUMPDEST SWAP3 POP SWAP1 POP DUP2 DUP5 DIV DUP2 GT ISZERO PUSH3 0x71C JUMPI PUSH3 0x71B PUSH3 0x5A6 JUMP JUMPDEST JUMPDEST DUP2 DUP2 MUL SWAP1 POP JUMPDEST SWAP4 SWAP3 POP POP POP JUMP JUMPDEST PUSH1 0x0 DUP2 SWAP1 POP SWAP2 SWAP1 POP JUMP JUMPDEST PUSH1 0x0 PUSH3 0x740 DUP3 PUSH3 0x729 JUMP JUMPDEST SWAP2 POP PUSH3 0x74D DUP4 PUSH3 0x4B8 JUMP JUMPDEST SWAP3 POP PUSH3 0x77C PUSH32 0xFFFFFFFFFFFFFFFFFFFFFFFFFFFFFFFFFFFFFFFFFFFFFFFFFFFFFFFFFFFFFFFF DUP5 DUP5 PUSH3 0x63D JUMP JUMPDEST SWAP1 POP SWAP3 SWAP2 POP POP JUMP JUMPDEST PUSH32 0x4E487B7100000000000000000000000000000000000000000000000000000000 PUSH1 0x0 MSTORE PUSH1 0x22 PUSH1 0x4 MSTORE PUSH1 0x24 PUSH1 0x0 REVERT JUMPDEST PUSH1 0x0 PUSH1 0x2 DUP3 DIV SWAP1 POP PUSH1 0x1 DUP3 AND DUP1 PUSH3 0x7CC JUMPI PUSH1 0x7F DUP3 AND SWAP2 POP JUMPDEST PUSH1 0x20 DUP3 LT DUP2 EQ ISZERO PUSH3 0x7E3 JUMPI PUSH3 0x7E2 PUSH3 0x784 JUMP JUMPDEST JUMPDEST POP SWAP2 SWAP1 POP JUMP JUMPDEST PUSH1 0x0 DUP2 SWAP1 POP SWAP3 SWAP2 POP POP JUMP JUMPDEST PUSH1 0x0 DUP2 SWAP1 POP DUP2 PUSH1 0x0 MSTORE PUSH1 0x20 PUSH1 0x0 KECCAK256 SWAP1 POP SWAP2 SWAP1 POP JUMP JUMPDEST PUSH1 0x0 DUP2 SLOAD PUSH3 0x818 DUP2 PUSH3 0x7B3 JUMP JUMPDEST PUSH3 0x824 DUP2 DUP7 PUSH3 0x7E9 JUMP JUMPDEST SWAP5 POP PUSH1 0x1 DUP3 AND PUSH1 0x0 DUP2 EQ PUSH3 0x842 JUMPI PUSH1 0x1 DUP2 EQ PUSH3 0x854 JUMPI PUSH3 0x88B JUMP JUMPDEST PUSH1 0xFF NOT DUP4 AND DUP7 MSTORE DUP2 DUP7 ADD SWAP4 POP PUSH3 0x88B JUMP JUMPDEST PUSH3 0x85F DUP6 PUSH3 0x7F4 JUMP JUMPDEST PUSH1 0x0 JUMPDEST DUP4 DUP2 LT ISZERO PUSH3 0x883 JUMPI DUP2 SLOAD DUP2 DUP10 ADD MSTORE PUSH1 0x1 DUP3 ADD SWAP2 POP PUSH1 0x20 DUP2 ADD SWAP1 POP PUSH3 0x862 JUMP JUMPDEST DUP4 DUP9 ADD SWAP6 POP POP POP JUMPDEST POP POP POP SWAP3 SWAP2 POP POP JUMP JUMPDEST PUSH1 0x0 PUSH3 0x8A2 DUP3 DUP5 PUSH3 0x809 JUMP JUMPDEST SWAP2 POP DUP2 SWAP1 POP SWAP3 SWAP2 POP POP JUMP JUMPDEST PUSH1 0x0 DUP2 SWAP1 POP SWAP2 SWAP1 POP JUMP JUMPDEST PUSH3 0x8C2 DUP2 PUSH3 0x8AD JUMP JUMPDEST DUP3 MSTORE POP POP JUMP JUMPDEST PUSH3 0x8D3 DUP2 PUSH3 0x729 JUMP JUMPDEST DUP3 MSTORE POP POP JUMP JUMPDEST PUSH3 0x8E4 DUP2 PUSH3 0x2D6 JUMP JUMPDEST DUP3 MSTORE POP POP JUMP JUMPDEST PUSH1 0x0 PUSH1 0xA0 DUP3 ADD SWAP1 POP PUSH3 0x901 PUSH1 0x0 DUP4 ADD DUP9 PUSH3 0x8B7 JUMP JUMPDEST PUSH3 0x910 PUSH1 0x20 DUP4 ADD DUP8 PUSH3 0x8B7 JUMP JUMPDEST PUSH3 0x91F PUSH1 0x40 DUP4 ADD DUP7 PUSH3 0x8B7 JUMP JUMPDEST PUSH3 0x92E PUSH1 0x60 DUP4 ADD DUP6 PUSH3 0x8C8 JUMP JUMPDEST PUSH3 0x93D PUSH1 0x80 DUP4 ADD DUP5 PUSH3 0x8D9 JUMP JUMPDEST SWAP7 SWAP6 POP POP POP POP POP POP JUMP JUMPDEST PUSH1 0x80 MLOAD PUSH1 0xA0 MLOAD PUSH1 0xC0 MLOAD PUSH1 0xE0 MLOAD PUSH2 0x100 MLOAD PUSH2 0x120 MLOAD PUSH2 0x2A75 PUSH3 0x9B7 PUSH1 0x0 CODECOPY PUSH1 0x0 POP POP PUSH1 0x0 PUSH2 0x15C2 ADD MSTORE PUSH1 0x0 DUP2 DUP2 PUSH2 0x6F6 ADD MSTORE DUP2 DUP2 PUSH2 0xC5C ADD MSTORE DUP2 DUP2 PUSH2 0xD12 ADD MSTORE DUP2 DUP2 PUSH2 0xE1D ADD MSTORE DUP2 DUP2 PUSH2 0x12D0 ADD MSTORE PUSH2 0x156F ADD MSTORE PUSH1 0x0 PUSH2 0xC35 ADD MSTORE PUSH1 0x0 PUSH2 0xC01 ADD MSTORE PUSH1 0x0 PUSH2 0xBDB ADD MSTORE PUSH2 0x2A75 PUSH1 0x0 RETURN INVALID PUSH1 0x80 PUSH1 0x40 MSTORE CALLVALUE DUP1 ISZERO PUSH2 0x10 JUMPI PUSH1 0x0 DUP1 REVERT JUMPDEST POP PUSH1 0x4 CALLDATASIZE LT PUSH2 0x1E5 JUMPI PUSH1 0x0 CALLDATALOAD PUSH1 0xE0 SHR DUP1 PUSH4 0x94BF804D GT PUSH2 0x10F JUMPI DUP1 PUSH4 0xC63D75B6 GT PUSH2 0xA2 JUMPI DUP1 PUSH4 0xD905777E GT PUSH2 0x71 JUMPI DUP1 PUSH4 0xD905777E EQ PUSH2 0x644 JUMPI DUP1 PUSH4 0xDD62ED3E EQ PUSH2 0x674 JUMPI DUP1 PUSH4 0xEF8B30F7 EQ PUSH2 0x6A4 JUMPI DUP1 PUSH4 0xFC407AE7 EQ PUSH2 0x6D4 JUMPI PUSH2 0x1E5 JUMP JUMPDEST DUP1 PUSH4 0xC63D75B6 EQ PUSH2 0x598 JUMPI DUP1 PUSH4 0xC6E6F592 EQ PUSH2 0x5C8 JUMPI DUP1 PUSH4 0xCE96CB77 EQ PUSH2 0x5F8 JUMPI DUP1 PUSH4 0xD505ACCF EQ PUSH2 0x628 JUMPI PUSH2 0x1E5 JUMP JUMPDEST DUP1 PUSH4 0xB460AF94 GT PUSH2 0xDE JUMPI DUP1 PUSH4 0xB460AF94 EQ PUSH2 0x4FC JUMPI DUP1 PUSH4 0xBA087652 EQ PUSH2 0x52C JUMPI DUP1 PUSH4 0xBC368A8A EQ PUSH2 0x55C JUMPI DUP1 PUSH4 0xC5D664C6 EQ PUSH2 0x57A JUMPI PUSH2 0x1E5 JUMP JUMPDEST DUP1 PUSH4 0x94BF804D EQ PUSH2 0x44E JUMPI DUP1 PUSH4 0x95D89B41 EQ PUSH2 0x47E JUMPI DUP1 PUSH4 0xA9059CBB EQ PUSH2 0x49C JUMPI DUP1 PUSH4 0xB3D7F6B9 EQ PUSH2 0x4CC JUMPI PUSH2 0x1E5 JUMP JUMPDEST DUP1 PUSH4 0x313CE567 GT PUSH2 0x187 JUMPI DUP1 PUSH4 0x4CDAD506 GT PUSH2 0x156 JUMPI DUP1 PUSH4 0x4CDAD506 EQ PUSH2 0x38E JUMPI DUP1 PUSH4 0x6E553F65 EQ PUSH2 0x3BE JUMPI DUP1 PUSH4 0x70A08231 EQ PUSH2 0x3EE JUMPI DUP1 PUSH4 0x7ECEBE00 EQ PUSH2 0x41E JUMPI PUSH2 0x1E5 JUMP JUMPDEST DUP1 PUSH4 0x313CE567 EQ PUSH2 0x304 JUMPI DUP1 PUSH4 0x3644E515 EQ PUSH2 0x322 JUMPI DUP1 PUSH4 0x38D52E0F EQ PUSH2 0x340 JUMPI DUP1 PUSH4 0x402D267D EQ PUSH2 0x35E JUMPI PUSH2 0x1E5 JUMP JUMPDEST DUP1 PUSH4 0x95EA7B3 GT PUSH2 0x1C3 JUMPI DUP1 PUSH4 0x95EA7B3 EQ PUSH2 0x256 JUMPI DUP1 PUSH4 0xA28A477 EQ PUSH2 0x286 JUMPI DUP1 PUSH4 0x18160DDD EQ PUSH2 0x2B6 JUMPI DUP1 PUSH4 0x23B872DD EQ PUSH2 0x2D4 JUMPI PUSH2 0x1E5 JUMP JUMPDEST DUP1 PUSH4 0x1E1D114 EQ PUSH2 0x1EA JUMPI DUP1 PUSH4 0x6FDDE03 EQ PUSH2 0x208 JUMPI DUP1 PUSH4 0x7A2D13A EQ PUSH2 0x226 JUMPI JUMPDEST PUSH1 0x0 DUP1 REVERT JUMPDEST PUSH2 0x1F2 PUSH2 0x6F2 JUMP JUMPDEST PUSH1 0x40 MLOAD PUSH2 0x1FF SWAP2 SWAP1 PUSH2 0x1E27 JUMP JUMPDEST PUSH1 0x40 MLOAD DUP1 SWAP2 SUB SWAP1 RETURN JUMPDEST PUSH2 0x210 PUSH2 0x793 JUMP JUMPDEST PUSH1 0x40 MLOAD PUSH2 0x21D SWAP2 SWAP1 PUSH2 0x1EDB JUMP JUMPDEST PUSH1 0x40 MLOAD DUP1 SWAP2 SUB SWAP1 RETURN JUMPDEST PUSH2 0x240 PUSH1 0x4 DUP1 CALLDATASIZE SUB DUP2 ADD SWAP1 PUSH2 0x23B SWAP2 SWAP1 PUSH2 0x1F2E JUMP JUMPDEST PUSH2 0x821 JUMP JUMPDEST PUSH1 0x40 MLOAD PUSH2 0x24D SWAP2 SWAP1 PUSH2 0x1E27 JUMP JUMPDEST PUSH1 0x40 MLOAD DUP1 SWAP2 SUB SWAP1 RETURN JUMPDEST PUSH2 0x270 PUSH1 0x4 DUP1 CALLDATASIZE SUB DUP2 ADD SWAP1 PUSH2 0x26B SWAP2 SWAP1 PUSH2 0x1FB9 JUMP JUMPDEST PUSH2 0x85C JUMP JUMPDEST PUSH1 0x40 MLOAD PUSH2 0x27D SWAP2 SWAP1 PUSH2 0x2014 JUMP JUMPDEST PUSH1 0x40 MLOAD DUP1 SWAP2 SUB SWAP1 RETURN JUMPDEST PUSH2 0x2A0 PUSH1 0x4 DUP1 CALLDATASIZE SUB DUP2 ADD SWAP1 PUSH2 0x29B SWAP2 SWAP1 PUSH2 0x1F2E JUMP JUMPDEST PUSH2 0x94E JUMP JUMPDEST PUSH1 0x40 MLOAD PUSH2 0x2AD SWAP2 SWAP1 PUSH2 0x1E27 JUMP JUMPDEST PUSH1 0x40 MLOAD DUP1 SWAP2 SUB SWAP1 RETURN JUMPDEST PUSH2 0x2BE PUSH2 0x989 JUMP JUMPDEST PUSH1 0x40 MLOAD PUSH2 0x2CB SWAP2 SWAP1 PUSH2 0x1E27 JUMP JUMPDEST PUSH1 0x40 MLOAD DUP1 SWAP2 SUB SWAP1 RETURN JUMPDEST PUSH2 0x2EE PUSH1 0x4 DUP1 CALLDATASIZE SUB DUP2 ADD SWAP1 PUSH2 0x2E9 SWAP2 SWAP1 PUSH2 0x202F JUMP JUMPDEST PUSH2 0x98F JUMP JUMPDEST PUSH1 0x40 MLOAD PUSH2 0x2FB SWAP2 SWAP1 PUSH2 0x2014 JUMP JUMPDEST PUSH1 0x40 MLOAD DUP1 SWAP2 SUB SWAP1 RETURN JUMPDEST PUSH2 0x30C PUSH2 0xBD9 JUMP JUMPDEST PUSH1 0x40 MLOAD PUSH2 0x319 SWAP2 SWAP1 PUSH2 0x209E JUMP JUMPDEST PUSH1 0x40 MLOAD DUP1 SWAP2 SUB SWAP1 RETURN JUMPDEST PUSH2 0x32A PUSH2 0xBFD JUMP JUMPDEST PUSH1 0x40 MLOAD PUSH2 0x337 SWAP2 SWAP1 PUSH2 0x20D2 JUMP JUMPDEST PUSH1 0x40 MLOAD DUP1 SWAP2 SUB SWAP1 RETURN JUMPDEST PUSH2 0x348 PUSH2 0xC5A JUMP JUMPDEST PUSH1 0x40 MLOAD PUSH2 0x355 SWAP2 SWAP1 PUSH2 0x214C JUMP JUMPDEST PUSH1 0x40 MLOAD DUP1 SWAP2 SUB SWAP1 RETURN JUMPDEST PUSH2 0x378 PUSH1 0x4 DUP1 CALLDATASIZE SUB DUP2 ADD SWAP1 PUSH2 0x373 SWAP2 SWAP1 PUSH2 0x2167 JUMP JUMPDEST PUSH2 0xC7E JUMP JUMPDEST PUSH1 0x40 MLOAD PUSH2 0x385 SWAP2 SWAP1 PUSH2 0x1E27 JUMP JUMPDEST PUSH1 0x40 MLOAD DUP1 SWAP2 SUB SWAP1 RETURN JUMPDEST PUSH2 0x3A8 PUSH1 0x4 DUP1 CALLDATASIZE SUB DUP2 ADD SWAP1 PUSH2 0x3A3 SWAP2 SWAP1 PUSH2 0x1F2E JUMP JUMPDEST PUSH2 0xCA8 JUMP JUMPDEST PUSH1 0x40 MLOAD PUSH2 0x3B5 SWAP2 SWAP1 PUSH2 0x1E27 JUMP JUMPDEST PUSH1 0x40 MLOAD DUP1 SWAP2 SUB SWAP1 RETURN JUMPDEST PUSH2 0x3D8 PUSH1 0x4 DUP1 CALLDATASIZE SUB DUP2 ADD SWAP1 PUSH2 0x3D3 SWAP2 SWAP1 PUSH2 0x2194 JUMP JUMPDEST PUSH2 0xCBA JUMP JUMPDEST PUSH1 0x40 MLOAD PUSH2 0x3E5 SWAP2 SWAP1 PUSH2 0x1E27 JUMP JUMPDEST PUSH1 0x40 MLOAD DUP1 SWAP2 SUB SWAP1 RETURN JUMPDEST PUSH2 0x408 PUSH1 0x4 DUP1 CALLDATASIZE SUB DUP2 ADD SWAP1 PUSH2 0x403 SWAP2 SWAP1 PUSH2 0x2167 JUMP JUMPDEST PUSH2 0xDD8 JUMP JUMPDEST PUSH1 0x40 MLOAD PUSH2 0x415 SWAP2 SWAP1 PUSH2 0x1E27 JUMP JUMPDEST PUSH1 0x40 MLOAD DUP1 SWAP2 SUB SWAP1 RETURN JUMPDEST PUSH2 0x438 PUSH1 0x4 DUP1 CALLDATASIZE SUB DUP2 ADD SWAP1 PUSH2 0x433 SWAP2 SWAP1 PUSH2 0x2167 JUMP JUMPDEST PUSH2 0xDF0 JUMP JUMPDEST PUSH1 0x40 MLOAD PUSH2 0x445 SWAP2 SWAP1 PUSH2 0x1E27 JUMP JUMPDEST PUSH1 0x40 MLOAD DUP1 SWAP2 SUB SWAP1 RETURN JUMPDEST PUSH2 0x468 PUSH1 0x4 DUP1 CALLDATASIZE SUB DUP2 ADD SWAP1 PUSH2 0x463 SWAP2 SWAP1 PUSH2 0x2194 JUMP JUMPDEST PUSH2 0xE08 JUMP JUMPDEST PUSH1 0x40 MLOAD PUSH2 0x475 SWAP2 SWAP1 PUSH2 0x1E27 JUMP JUMPDEST PUSH1 0x40 MLOAD DUP1 SWAP2 SUB SWAP1 RETURN JUMPDEST PUSH2 0x486 PUSH2 0xEE3 JUMP JUMPDEST PUSH1 0x40 MLOAD PUSH2 0x493 SWAP2 SWAP1 PUSH2 0x1EDB JUMP JUMPDEST PUSH1 0x40 MLOAD DUP1 SWAP2 SUB SWAP1 RETURN JUMPDEST PUSH2 0x4B6 PUSH1 0x4 DUP1 CALLDATASIZE SUB DUP2 ADD SWAP1 PUSH2 0x4B1 SWAP2 SWAP1 PUSH2 0x1FB9 JUMP JUMPDEST PUSH2 0xF71 JUMP JUMPDEST PUSH1 0x40 MLOAD PUSH2 0x4C3 SWAP2 SWAP1 PUSH2 0x2014 JUMP JUMPDEST PUSH1 0x40 MLOAD DUP1 SWAP2 SUB SWAP1 RETURN JUMPDEST PUSH2 0x4E6 PUSH1 0x4 DUP1 CALLDATASIZE SUB DUP2 ADD SWAP1 PUSH2 0x4E1 SWAP2 SWAP1 PUSH2 0x1F2E JUMP JUMPDEST PUSH2 0x1085 JUMP JUMPDEST PUSH1 0x40 MLOAD PUSH2 0x4F3 SWAP2 SWAP1 PUSH2 0x1E27 JUMP JUMPDEST PUSH1 0x40 MLOAD DUP1 SWAP2 SUB SWAP1 RETURN JUMPDEST PUSH2 0x516 PUSH1 0x4 DUP1 CALLDATASIZE SUB DUP2 ADD SWAP1 PUSH2 0x511 SWAP2 SWAP1 PUSH2 0x21D4 JUMP JUMPDEST PUSH2 0x10C0 JUMP JUMPDEST PUSH1 0x40 MLOAD PUSH2 0x523 SWAP2 SWAP1 PUSH2 0x1E27 JUMP JUMPDEST PUSH1 0x40 MLOAD DUP1 SWAP2 SUB SWAP1 RETURN JUMPDEST PUSH2 0x546 PUSH1 0x4 DUP1 CALLDATASIZE SUB DUP2 ADD SWAP1 PUSH2 0x541 SWAP2 SWAP1 PUSH2 0x21D4 JUMP JUMPDEST PUSH2 0x131B JUMP JUMPDEST PUSH1 0x40 MLOAD PUSH2 0x553 SWAP2 SWAP1 PUSH2 0x1E27 JUMP JUMPDEST PUSH1 0x40 MLOAD DUP1 SWAP2 SUB SWAP1 RETURN JUMPDEST PUSH2 0x564 PUSH2 0x15BA JUMP JUMPDEST PUSH1 0x40 MLOAD PUSH2 0x571 SWAP2 SWAP1 PUSH2 0x1E27 JUMP JUMPDEST PUSH1 0x40 MLOAD DUP1 SWAP2 SUB SWAP1 RETURN JUMPDEST PUSH2 0x582 PUSH2 0x15C0 JUMP JUMPDEST PUSH1 0x40 MLOAD PUSH2 0x58F SWAP2 SWAP1 PUSH2 0x214C JUMP JUMPDEST PUSH1 0x40 MLOAD DUP1 SWAP2 SUB SWAP1 RETURN JUMPDEST PUSH2 0x5B2 PUSH1 0x4 DUP1 CALLDATASIZE SUB DUP2 ADD SWAP1 PUSH2 0x5AD SWAP2 SWAP1 PUSH2 0x2167 JUMP JUMPDEST PUSH2 0x15E4 JUMP JUMPDEST PUSH1 0x40 MLOAD PUSH2 0x5BF SWAP2 SWAP1 PUSH2 0x1E27 JUMP JUMPDEST PUSH1 0x40 MLOAD DUP1 SWAP2 SUB SWAP1 RETURN JUMPDEST PUSH2 0x5E2 PUSH1 0x4 DUP1 CALLDATASIZE SUB DUP2 ADD SWAP1 PUSH2 0x5DD SWAP2 SWAP1 PUSH2 0x1F2E JUMP JUMPDEST PUSH2 0x160E JUMP JUMPDEST PUSH1 0x40 MLOAD PUSH2 0x5EF SWAP2 SWAP1 PUSH2 0x1E27 JUMP JUMPDEST PUSH1 0x40 MLOAD DUP1 SWAP2 SUB SWAP1 RETURN JUMPDEST PUSH2 0x612 PUSH1 0x4 DUP1 CALLDATASIZE SUB DUP2 ADD SWAP1 PUSH2 0x60D SWAP2 SWAP1 PUSH2 0x2167 JUMP JUMPDEST PUSH2 0x1649 JUMP JUMPDEST PUSH1 0x40 MLOAD PUSH2 0x61F SWAP2 SWAP1 PUSH2 0x1E27 JUMP JUMPDEST PUSH1 0x40 MLOAD DUP1 SWAP2 SUB SWAP1 RETURN JUMPDEST PUSH2 0x642 PUSH1 0x4 DUP1 CALLDATASIZE SUB DUP2 ADD SWAP1 PUSH2 0x63D SWAP2 SWAP1 PUSH2 0x227F JUMP JUMPDEST PUSH2 0x169A JUMP JUMPDEST STOP JUMPDEST PUSH2 0x65E PUSH1 0x4 DUP1 CALLDATASIZE SUB DUP2 ADD SWAP1 PUSH2 0x659 SWAP2 SWAP1 PUSH2 0x2167 JUMP JUMPDEST PUSH2 0x1993 JUMP JUMPDEST PUSH1 0x40 MLOAD PUSH2 0x66B SWAP2 SWAP1 PUSH2 0x1E27 JUMP JUMPDEST PUSH1 0x40 MLOAD DUP1 SWAP2 SUB SWAP1 RETURN JUMPDEST PUSH2 0x68E PUSH1 0x4 DUP1 CALLDATASIZE SUB DUP2 ADD SWAP1 PUSH2 0x689 SWAP2 SWAP1 PUSH2 0x2321 JUMP JUMPDEST PUSH2 0x19DC JUMP JUMPDEST PUSH1 0x40 MLOAD PUSH2 0x69B SWAP2 SWAP1 PUSH2 0x1E27 JUMP JUMPDEST PUSH1 0x40 MLOAD DUP1 SWAP2 SUB SWAP1 RETURN JUMPDEST PUSH2 0x6BE PUSH1 0x4 DUP1 CALLDATASIZE SUB DUP2 ADD SWAP1 PUSH2 0x6B9 SWAP2 SWAP1 PUSH2 0x1F2E JUMP JUMPDEST PUSH2 0x1A01 JUMP JUMPDEST PUSH1 0x40 MLOAD PUSH2 0x6CB SWAP2 SWAP1 PUSH2 0x1E27 JUMP JUMPDEST PUSH1 0x40 MLOAD DUP1 SWAP2 SUB SWAP1 RETURN JUMPDEST PUSH2 0x6DC PUSH2 0x1A13 JUMP JUMPDEST PUSH1 0x40 MLOAD PUSH2 0x6E9 SWAP2 SWAP1 PUSH2 0x1E27 JUMP JUMPDEST PUSH1 0x40 MLOAD DUP1 SWAP2 SUB SWAP1 RETURN JUMPDEST PUSH1 0x0 PUSH32 0x0 PUSH20 0xFFFFFFFFFFFFFFFFFFFFFFFFFFFFFFFFFFFFFFFF AND PUSH4 0x70A08231 ADDRESS PUSH1 0x40 MLOAD DUP3 PUSH4 0xFFFFFFFF AND PUSH1 0xE0 SHL DUP2 MSTORE PUSH1 0x4 ADD PUSH2 0x74D SWAP2 SWAP1 PUSH2 0x2370 JUMP JUMPDEST PUSH1 0x20 PUSH1 0x40 MLOAD DUP1 DUP4 SUB DUP2 DUP7 GAS STATICCALL ISZERO DUP1 ISZERO PUSH2 0x76A JUMPI RETURNDATASIZE PUSH1 0x0 DUP1 RETURNDATACOPY RETURNDATASIZE PUSH1 0x0 REVERT JUMPDEST POP POP POP POP PUSH1 0x40 MLOAD RETURNDATASIZE PUSH1 0x1F NOT PUSH1 0x1F DUP3 ADD AND DUP3 ADD DUP1 PUSH1 0x40 MSTORE POP DUP2 ADD SWAP1 PUSH2 0x78E SWAP2 SWAP1 PUSH2 0x23A0 JUMP JUMPDEST SWAP1 POP SWAP1 JUMP JUMPDEST PUSH1 0x0 DUP1 SLOAD PUSH2 0x7A0 SWAP1 PUSH2 0x23FC JUMP JUMPDEST DUP1 PUSH1 0x1F ADD PUSH1 0x20 DUP1 SWAP2 DIV MUL PUSH1 0x20 ADD PUSH1 0x40 MLOAD SWAP1 DUP2 ADD PUSH1 0x40 MSTORE DUP1 SWAP3 SWAP2 SWAP1 DUP2 DUP2 MSTORE PUSH1 0x20 ADD DUP3 DUP1 SLOAD PUSH2 0x7CC SWAP1 PUSH2 0x23FC JUMP JUMPDEST DUP1 ISZERO PUSH2 0x819 JUMPI DUP1 PUSH1 0x1F LT PUSH2 0x7EE JUMPI PUSH2 0x100 DUP1 DUP4 SLOAD DIV MUL DUP4 MSTORE SWAP2 PUSH1 0x20 ADD SWAP2 PUSH2 0x819 JUMP JUMPDEST DUP3 ADD SWAP2 SWAP1 PUSH1 0x0 MSTORE PUSH1 0x20 PUSH1 0x0 KECCAK256 SWAP1 JUMPDEST DUP2 SLOAD DUP2 MSTORE SWAP1 PUSH1 0x1 ADD SWAP1 PUSH1 0x20 ADD DUP1 DUP4 GT PUSH2 0x7FC JUMPI DUP3 SWAP1 SUB PUSH1 0x1F AND DUP3 ADD SWAP2 JUMPDEST POP POP POP POP POP DUP2 JUMP JUMPDEST PUSH1 0x0 DUP1 PUSH1 0x2 SLOAD SWAP1 POP PUSH1 0x0 DUP2 EQ PUSH2 0x852 JUMPI PUSH2 0x84D PUSH2 0x83C PUSH2 0x6F2 JUMP JUMPDEST DUP3 DUP6 PUSH2 0x1A19 SWAP1 SWAP3 SWAP2 SWAP1 PUSH4 0xFFFFFFFF AND JUMP JUMPDEST PUSH2 0x854 JUMP JUMPDEST DUP3 JUMPDEST SWAP2 POP POP SWAP2 SWAP1 POP JUMP JUMPDEST PUSH1 0x0 DUP2 PUSH1 0x4 PUSH1 0x0 CALLER PUSH20 0xFFFFFFFFFFFFFFFFFFFFFFFFFFFFFFFFFFFFFFFF AND PUSH20 0xFFFFFFFFFFFFFFFFFFFFFFFFFFFFFFFFFFFFFFFF AND DUP2 MSTORE PUSH1 0x20 ADD SWAP1 DUP2 MSTORE PUSH1 0x20 ADD PUSH1 0x0 KECCAK256 PUSH1 0x0 DUP6 PUSH20 0xFFFFFFFFFFFFFFFFFFFFFFFFFFFFFFFFFFFFFFFF AND PUSH20 0xFFFFFFFFFFFFFFFFFFFFFFFFFFFFFFFFFFFFFFFF AND DUP2 MSTORE PUSH1 0x20 ADD SWAP1 DUP2 MSTORE PUSH1 0x20 ADD PUSH1 0x0 KECCAK256 DUP2 SWAP1 SSTORE POP DUP3 PUSH20 0xFFFFFFFFFFFFFFFFFFFFFFFFFFFFFFFFFFFFFFFF AND CALLER PUSH20 0xFFFFFFFFFFFFFFFFFFFFFFFFFFFFFFFFFFFFFFFF AND PUSH32 0x8C5BE1E5EBEC7D5BD14F71427D1E84F3DD0314C0F7B2291E5B200AC8C7C3B925 DUP5 PUSH1 0x40 MLOAD PUSH2 0x93C SWAP2 SWAP1 PUSH2 0x1E27 JUMP JUMPDEST PUSH1 0x40 MLOAD DUP1 SWAP2 SUB SWAP1 LOG3 PUSH1 0x1 SWAP1 POP SWAP3 SWAP2 POP POP JUMP JUMPDEST PUSH1 0x0 DUP1 PUSH1 0x2 SLOAD SWAP1 POP PUSH1 0x0 DUP2 EQ PUSH2 0x97F JUMPI PUSH2 0x97A DUP2 PUSH2 0x96A PUSH2 0x6F2 JUMP JUMPDEST DUP6 PUSH2 0x1A41 SWAP1 SWAP3 SWAP2 SWAP1 PUSH4 0xFFFFFFFF AND JUMP JUMPDEST PUSH2 0x981 JUMP JUMPDEST DUP3 JUMPDEST SWAP2 POP POP SWAP2 SWAP1 POP JUMP JUMPDEST PUSH1 0x2 SLOAD DUP2 JUMP JUMPDEST PUSH1 0x0 DUP1 PUSH1 0x4 PUSH1 0x0 DUP7 PUSH20 0xFFFFFFFFFFFFFFFFFFFFFFFFFFFFFFFFFFFFFFFF AND PUSH20 0xFFFFFFFFFFFFFFFFFFFFFFFFFFFFFFFFFFFFFFFF AND DUP2 MSTORE PUSH1 0x20 ADD SWAP1 DUP2 MSTORE PUSH1 0x20 ADD PUSH1 0x0 KECCAK256 PUSH1 0x0 CALLER PUSH20 0xFFFFFFFFFFFFFFFFFFFFFFFFFFFFFFFFFFFFFFFF AND PUSH20 0xFFFFFFFFFFFFFFFFFFFFFFFFFFFFFFFFFFFFFFFF AND DUP2 MSTORE PUSH1 0x20 ADD SWAP1 DUP2 MSTORE PUSH1 0x20 ADD PUSH1 0x0 KECCAK256 SLOAD SWAP1 POP PUSH32 0xFFFFFFFFFFFFFFFFFFFFFFFFFFFFFFFFFFFFFFFFFFFFFFFFFFFFFFFFFFFFFFFF DUP2 EQ PUSH2 0xAC5 JUMPI DUP3 DUP2 PUSH2 0xA44 SWAP2 SWAP1 PUSH2 0x245D JUMP JUMPDEST PUSH1 0x4 PUSH1 0x0 DUP8 PUSH20 0xFFFFFFFFFFFFFFFFFFFFFFFFFFFFFFFFFFFFFFFF AND PUSH20 0xFFFFFFFFFFFFFFFFFFFFFFFFFFFFFFFFFFFFFFFF AND DUP2 MSTORE PUSH1 0x20 ADD SWAP1 DUP2 MSTORE PUSH1 0x20 ADD PUSH1 0x0 KECCAK256 PUSH1 0x0 CALLER PUSH20 0xFFFFFFFFFFFFFFFFFFFFFFFFFFFFFFFFFFFFFFFF AND PUSH20 0xFFFFFFFFFFFFFFFFFFFFFFFFFFFFFFFFFFFFFFFF AND DUP2 MSTORE PUSH1 0x20 ADD SWAP1 DUP2 MSTORE PUSH1 0x20 ADD PUSH1 0x0 KECCAK256 DUP2 SWAP1 SSTORE POP JUMPDEST DUP3 PUSH1 0x3 PUSH1 0x0 DUP8 PUSH20 0xFFFFFFFFFFFFFFFFFFFFFFFFFFFFFFFFFFFFFFFF AND PUSH20 0xFFFFFFFFFFFFFFFFFFFFFFFFFFFFFFFFFFFFFFFF AND DUP2 MSTORE PUSH1 0x20 ADD SWAP1 DUP2 MSTORE PUSH1 0x20 ADD PUSH1 0x0 KECCAK256 PUSH1 0x0 DUP3 DUP3 SLOAD PUSH2 0xB14 SWAP2 SWAP1 PUSH2 0x245D JUMP JUMPDEST SWAP3 POP POP DUP2 SWAP1 SSTORE POP DUP3 PUSH1 0x3 PUSH1 0x0 DUP7 PUSH20 0xFFFFFFFFFFFFFFFFFFFFFFFFFFFFFFFFFFFFFFFF AND PUSH20 0xFFFFFFFFFFFFFFFFFFFFFFFFFFFFFFFFFFFFFFFF AND DUP2 MSTORE PUSH1 0x20 ADD SWAP1 DUP2 MSTORE PUSH1 0x20 ADD PUSH1 0x0 KECCAK256 PUSH1 0x0 DUP3 DUP3 SLOAD ADD SWAP3 POP POP DUP2 SWAP1 SSTORE POP DUP4 PUSH20 0xFFFFFFFFFFFFFFFFFFFFFFFFFFFFFFFFFFFFFFFF AND DUP6 PUSH20 0xFFFFFFFFFFFFFFFFFFFFFFFFFFFFFFFFFFFFFFFF AND PUSH32 0xDDF252AD1BE2C89B69C2B068FC378DAA952BA7F163C4A11628F55A4DF523B3EF DUP6 PUSH1 0x40 MLOAD PUSH2 0xBC5 SWAP2 SWAP1 PUSH2 0x1E27 JUMP JUMPDEST PUSH1 0x40 MLOAD DUP1 SWAP2 SUB SWAP1 LOG3 PUSH1 0x1 SWAP2 POP POP SWAP4 SWAP3 POP POP POP JUMP JUMPDEST PUSH32 0x0 DUP2 JUMP JUMPDEST PUSH1 0x0 PUSH32 0x0 CHAINID EQ PUSH2 0xC33 JUMPI PUSH2 0xC2E PUSH2 0x1A73 JUMP JUMPDEST PUSH2 0xC55 JUMP JUMPDEST PUSH32 0x0 JUMPDEST SWAP1 POP SWAP1 JUMP JUMPDEST PUSH32 0x0 DUP2 JUMP JUMPDEST PUSH1 0x0 PUSH32 0xFFFFFFFFFFFFFFFFFFFFFFFFFFFFFFFFFFFFFFFFFFFFFFFFFFFFFFFFFFFFFFFF SWAP1 POP SWAP2 SWAP1 POP JUMP JUMPDEST PUSH1 0x0 PUSH2 0xCB3 DUP3 PUSH2 0x821 JUMP JUMPDEST SWAP1 POP SWAP2 SWAP1 POP JUMP JUMPDEST PUSH1 0x0 DUP1 PUSH2 0xCC6 DUP5 PUSH2 0x1A01 JUMP JUMPDEST SWAP2 POP DUP2 EQ ISZERO PUSH2 0xD0A JUMPI PUSH1 0x40 MLOAD PUSH32 0x8C379A000000000000000000000000000000000000000000000000000000000 DUP2 MSTORE PUSH1 0x4 ADD PUSH2 0xD01 SWAP1 PUSH2 0x24DD JUMP JUMPDEST PUSH1 0x40 MLOAD DUP1 SWAP2 SUB SWAP1 REVERT JUMPDEST PUSH2 0xD57 CALLER ADDRESS DUP6 PUSH32 0x0 PUSH20 0xFFFFFFFFFFFFFFFFFFFFFFFFFFFFFFFFFFFFFFFF AND PUSH2 0x1AFF SWAP1 SWAP4 SWAP3 SWAP2 SWAP1 PUSH4 0xFFFFFFFF AND JUMP JUMPDEST PUSH2 0xD61 DUP3 DUP3 PUSH2 0x1B9E JUMP JUMPDEST DUP2 PUSH20 0xFFFFFFFFFFFFFFFFFFFFFFFFFFFFFFFFFFFFFFFF AND CALLER PUSH20 0xFFFFFFFFFFFFFFFFFFFFFFFFFFFFFFFFFFFFFFFF AND PUSH32 0xDCBC1C05240F31FF3AD067EF1EE35CE4997762752E3A095284754544F4C709D7 DUP6 DUP5 PUSH1 0x40 MLOAD PUSH2 0xDC0 SWAP3 SWAP2 SWAP1 PUSH2 0x24FD JUMP JUMPDEST PUSH1 0x40 MLOAD DUP1 SWAP2 SUB SWAP1 LOG3 PUSH2 0xDD2 DUP4 DUP3 PUSH2 0x1C6E JUMP JUMPDEST SWAP3 SWAP2 POP POP JUMP JUMPDEST PUSH1 0x3 PUSH1 0x20 MSTORE DUP1 PUSH1 0x0 MSTORE PUSH1 0x40 PUSH1 0x0 KECCAK256 PUSH1 0x0 SWAP2 POP SWAP1 POP SLOAD DUP2 JUMP JUMPDEST PUSH1 0x5 PUSH1 0x20 MSTORE DUP1 PUSH1 0x0 MSTORE PUSH1 0x40 PUSH1 0x0 KECCAK256 PUSH1 0x0 SWAP2 POP SWAP1 POP SLOAD DUP2 JUMP JUMPDEST PUSH1 0x0 PUSH2 0xE13 DUP4 PUSH2 0x1085 JUMP JUMPDEST SWAP1 POP PUSH2 0xE62 CALLER ADDRESS DUP4 PUSH32 0x0 PUSH20 0xFFFFFFFFFFFFFFFFFFFFFFFFFFFFFFFFFFFFFFFF AND PUSH2 0x1AFF SWAP1 SWAP4 SWAP3 SWAP2 SWAP1 PUSH4 0xFFFFFFFF AND JUMP JUMPDEST PUSH2 0xE6C DUP3 DUP5 PUSH2 0x1B9E JUMP JUMPDEST DUP2 PUSH20 0xFFFFFFFFFFFFFFFFFFFFFFFFFFFFFFFFFFFFFFFF AND CALLER PUSH20 0xFFFFFFFFFFFFFFFFFFFFFFFFFFFFFFFFFFFFFFFF AND PUSH32 0xDCBC1C05240F31FF3AD067EF1EE35CE4997762752E3A095284754544F4C709D7 DUP4 DUP7 PUSH1 0x40 MLOAD PUSH2 0xECB SWAP3 SWAP2 SWAP1 PUSH2 0x24FD JUMP JUMPDEST PUSH1 0x40 MLOAD DUP1 SWAP2 SUB SWAP1 LOG3 PUSH2 0xEDD DUP2 DUP5 PUSH2 0x1C6E JUMP JUMPDEST SWAP3 SWAP2 POP POP JUMP JUMPDEST PUSH1 0x1 DUP1 SLOAD PUSH2 0xEF0 SWAP1 PUSH2 0x23FC JUMP JUMPDEST DUP1 PUSH1 0x1F ADD PUSH1 0x20 DUP1 SWAP2 DIV MUL PUSH1 0x20 ADD PUSH1 0x40 MLOAD SWAP1 DUP2 ADD PUSH1 0x40 MSTORE DUP1 SWAP3 SWAP2 SWAP1 DUP2 DUP2 MSTORE PUSH1 0x20 ADD DUP3 DUP1 SLOAD PUSH2 0xF1C SWAP1 PUSH2 0x23FC JUMP JUMPDEST DUP1 ISZERO PUSH2 0xF69 JUMPI DUP1 PUSH1 0x1F LT PUSH2 0xF3E JUMPI PUSH2 0x100 DUP1 DUP4 SLOAD DIV MUL DUP4 MSTORE SWAP2 PUSH1 0x20 ADD SWAP2 PUSH2 0xF69 JUMP JUMPDEST DUP3 ADD SWAP2 SWAP1 PUSH1 0x0 MSTORE PUSH1 0x20 PUSH1 0x0 KECCAK256 SWAP1 JUMPDEST DUP2 SLOAD DUP2 MSTORE SWAP1 PUSH1 0x1 ADD SWAP1 PUSH1 0x20 ADD DUP1 DUP4 GT PUSH2 0xF4C JUMPI DUP3 SWAP1 SUB PUSH1 0x1F AND DUP3 ADD SWAP2 JUMPDEST POP POP POP POP POP DUP2 JUMP JUMPDEST PUSH1 0x0 DUP2 PUSH1 0x3 PUSH1 0x0 CALLER PUSH20 0xFFFFFFFFFFFFFFFFFFFFFFFFFFFFFFFFFFFFFFFF AND PUSH20 0xFFFFFFFFFFFFFFFFFFFFFFFFFFFFFFFFFFFFFFFF AND DUP2 MSTORE PUSH1 0x20 ADD SWAP1 DUP2 MSTORE PUSH1 0x20 ADD PUSH1 0x0 KECCAK256 PUSH1 0x0 DUP3 DUP3 SLOAD PUSH2 0xFC2 SWAP2 SWAP1 PUSH2 0x245D JUMP JUMPDEST SWAP3 POP POP DUP2 SWAP1 SSTORE POP DUP2 PUSH1 0x3 PUSH1 0x0 DUP6 PUSH20 0xFFFFFFFFFFFFFFFFFFFFFFFFFFFFFFFFFFFFFFFF AND PUSH20 0xFFFFFFFFFFFFFFFFFFFFFFFFFFFFFFFFFFFFFFFF AND DUP2 MSTORE PUSH1 0x20 ADD SWAP1 DUP2 MSTORE PUSH1 0x20 ADD PUSH1 0x0 KECCAK256 PUSH1 0x0 DUP3 DUP3 SLOAD ADD SWAP3 POP POP DUP2 SWAP1 SSTORE POP DUP3 PUSH20 0xFFFFFFFFFFFFFFFFFFFFFFFFFFFFFFFFFFFFFFFF AND CALLER PUSH20 0xFFFFFFFFFFFFFFFFFFFFFFFFFFFFFFFFFFFFFFFF AND PUSH32 0xDDF252AD1BE2C89B69C2B068FC378DAA952BA7F163C4A11628F55A4DF523B3EF DUP5 PUSH1 0x40 MLOAD PUSH2 0x1073 SWAP2 SWAP1 PUSH2 0x1E27 JUMP JUMPDEST PUSH1 0x40 MLOAD DUP1 SWAP2 SUB SWAP1 LOG3 PUSH1 0x1 SWAP1 POP SWAP3 SWAP2 POP POP JUMP JUMPDEST PUSH1 0x0 DUP1 PUSH1 0x2 SLOAD SWAP1 POP PUSH1 0x0 DUP2 EQ PUSH2 0x10B6 JUMPI PUSH2 0x10B1 PUSH2 0x10A0 PUSH2 0x6F2 JUMP JUMPDEST DUP3 DUP6 PUSH2 0x1A41 SWAP1 SWAP3 SWAP2 SWAP1 PUSH4 0xFFFFFFFF AND JUMP JUMPDEST PUSH2 0x10B8 JUMP JUMPDEST DUP3 JUMPDEST SWAP2 POP POP SWAP2 SWAP1 POP JUMP JUMPDEST PUSH1 0x0 PUSH2 0x10CB DUP5 PUSH2 0x94E JUMP JUMPDEST SWAP1 POP DUP2 PUSH20 0xFFFFFFFFFFFFFFFFFFFFFFFFFFFFFFFFFFFFFFFF AND CALLER PUSH20 0xFFFFFFFFFFFFFFFFFFFFFFFFFFFFFFFFFFFFFFFF AND EQ PUSH2 0x1237 JUMPI PUSH1 0x0 PUSH1 0x4 PUSH1 0x0 DUP5 PUSH20 0xFFFFFFFFFFFFFFFFFFFFFFFFFFFFFFFFFFFFFFFF AND PUSH20 0xFFFFFFFFFFFFFFFFFFFFFFFFFFFFFFFFFFFFFFFF AND DUP2 MSTORE PUSH1 0x20 ADD SWAP1 DUP2 MSTORE PUSH1 0x20 ADD PUSH1 0x0 KECCAK256 PUSH1 0x0 CALLER PUSH20 0xFFFFFFFFFFFFFFFFFFFFFFFFFFFFFFFFFFFFFFFF AND PUSH20 0xFFFFFFFFFFFFFFFFFFFFFFFFFFFFFFFFFFFFFFFF AND DUP2 MSTORE PUSH1 0x20 ADD SWAP1 DUP2 MSTORE PUSH1 0x20 ADD PUSH1 0x0 KECCAK256 SLOAD SWAP1 POP PUSH32 0xFFFFFFFFFFFFFFFFFFFFFFFFFFFFFFFFFFFFFFFFFFFFFFFFFFFFFFFFFFFFFFFF DUP2 EQ PUSH2 0x1235 JUMPI DUP2 DUP2 PUSH2 0x11B4 SWAP2 SWAP1 PUSH2 0x245D JUMP JUMPDEST PUSH1 0x4 PUSH1 0x0 DUP6 PUSH20 0xFFFFFFFFFFFFFFFFFFFFFFFFFFFFFFFFFFFFFFFF AND PUSH20 0xFFFFFFFFFFFFFFFFFFFFFFFFFFFFFFFFFFFFFFFF AND DUP2 MSTORE PUSH1 0x20 ADD SWAP1 DUP2 MSTORE PUSH1 0x20 ADD PUSH1 0x0 KECCAK256 PUSH1 0x0 CALLER PUSH20 0xFFFFFFFFFFFFFFFFFFFFFFFFFFFFFFFFFFFFFFFF AND PUSH20 0xFFFFFFFFFFFFFFFFFFFFFFFFFFFFFFFFFFFFFFFF AND DUP2 MSTORE PUSH1 0x20 ADD SWAP1 DUP2 MSTORE PUSH1 0x20 ADD PUSH1 0x0 KECCAK256 DUP2 SWAP1 SSTORE POP JUMPDEST POP JUMPDEST PUSH2 0x1241 DUP5 DUP3 PUSH2 0x1C8A JUMP JUMPDEST PUSH2 0x124B DUP3 DUP3 PUSH2 0x1CA6 JUMP JUMPDEST DUP2 PUSH20 0xFFFFFFFFFFFFFFFFFFFFFFFFFFFFFFFFFFFFFFFF AND DUP4 PUSH20 0xFFFFFFFFFFFFFFFFFFFFFFFFFFFFFFFFFFFFFFFF AND CALLER PUSH20 0xFFFFFFFFFFFFFFFFFFFFFFFFFFFFFFFFFFFFFFFF AND PUSH32 0xFBDE797D201C681B91056529119E0B02407C7BB96A4A2C75C01FC9667232C8DB DUP8 DUP6 PUSH1 0x40 MLOAD PUSH2 0x12C1 SWAP3 SWAP2 SWAP1 PUSH2 0x24FD JUMP JUMPDEST PUSH1 0x40 MLOAD DUP1 SWAP2 SUB SWAP1 LOG4 PUSH2 0x1314 DUP4 DUP6 PUSH32 0x0 PUSH20 0xFFFFFFFFFFFFFFFFFFFFFFFFFFFFFFFFFFFFFFFF AND PUSH2 0x1D76 SWAP1 SWAP3 SWAP2 SWAP1 PUSH4 0xFFFFFFFF AND JUMP JUMPDEST SWAP4 SWAP3 POP POP POP JUMP JUMPDEST PUSH1 0x0 DUP2 PUSH20 0xFFFFFFFFFFFFFFFFFFFFFFFFFFFFFFFFFFFFFFFF AND CALLER PUSH20 0xFFFFFFFFFFFFFFFFFFFFFFFFFFFFFFFFFFFFFFFF AND EQ PUSH2 0x1487 JUMPI PUSH1 0x0 PUSH1 0x4 PUSH1 0x0 DUP5 PUSH20 0xFFFFFFFFFFFFFFFFFFFFFFFFFFFFFFFFFFFFFFFF AND PUSH20 0xFFFFFFFFFFFFFFFFFFFFFFFFFFFFFFFFFFFFFFFF AND DUP2 MSTORE PUSH1 0x20 ADD SWAP1 DUP2 MSTORE PUSH1 0x20 ADD PUSH1 0x0 KECCAK256 PUSH1 0x0 CALLER PUSH20 0xFFFFFFFFFFFFFFFFFFFFFFFFFFFFFFFFFFFFFFFF AND PUSH20 0xFFFFFFFFFFFFFFFFFFFFFFFFFFFFFFFFFFFFFFFF AND DUP2 MSTORE PUSH1 0x20 ADD SWAP1 DUP2 MSTORE PUSH1 0x20 ADD PUSH1 0x0 KECCAK256 SLOAD SWAP1 POP PUSH32 0xFFFFFFFFFFFFFFFFFFFFFFFFFFFFFFFFFFFFFFFFFFFFFFFFFFFFFFFFFFFFFFFF DUP2 EQ PUSH2 0x1485 JUMPI DUP5 DUP2 PUSH2 0x1404 SWAP2 SWAP1 PUSH2 0x245D JUMP JUMPDEST PUSH1 0x4 PUSH1 0x0 DUP6 PUSH20 0xFFFFFFFFFFFFFFFFFFFFFFFFFFFFFFFFFFFFFFFF AND PUSH20 0xFFFFFFFFFFFFFFFFFFFFFFFFFFFFFFFFFFFFFFFF AND DUP2 MSTORE PUSH1 0x20 ADD SWAP1 DUP2 MSTORE PUSH1 0x20 ADD PUSH1 0x0 KECCAK256 PUSH1 0x0 CALLER PUSH20 0xFFFFFFFFFFFFFFFFFFFFFFFFFFFFFFFFFFFFFFFF AND PUSH20 0xFFFFFFFFFFFFFFFFFFFFFFFFFFFFFFFFFFFFFFFF AND DUP2 MSTORE PUSH1 0x20 ADD SWAP1 DUP2 MSTORE PUSH1 0x20 ADD PUSH1 0x0 KECCAK256 DUP2 SWAP1 SSTORE POP JUMPDEST POP JUMPDEST PUSH1 0x0 PUSH2 0x1492 DUP6 PUSH2 0xCA8 JUMP JUMPDEST SWAP2 POP DUP2 EQ ISZERO PUSH2 0x14D6 JUMPI PUSH1 0x40 MLOAD PUSH32 0x8C379A000000000000000000000000000000000000000000000000000000000 DUP2 MSTORE PUSH1 0x4 ADD PUSH2 0x14CD SWAP1 PUSH2 0x2572 JUMP JUMPDEST PUSH1 0x40 MLOAD DUP1 SWAP2 SUB SWAP1 REVERT JUMPDEST PUSH2 0x14E0 DUP2 DUP6 PUSH2 0x1C8A JUMP JUMPDEST PUSH2 0x14EA DUP3 DUP6 PUSH2 0x1CA6 JUMP JUMPDEST DUP2 PUSH20 0xFFFFFFFFFFFFFFFFFFFFFFFFFFFFFFFFFFFFFFFF AND DUP4 PUSH20 0xFFFFFFFFFFFFFFFFFFFFFFFFFFFFFFFFFFFFFFFF AND CALLER PUSH20 0xFFFFFFFFFFFFFFFFFFFFFFFFFFFFFFFFFFFFFFFF AND PUSH32 0xFBDE797D201C681B91056529119E0B02407C7BB96A4A2C75C01FC9667232C8DB DUP5 DUP9 PUSH1 0x40 MLOAD PUSH2 0x1560 SWAP3 SWAP2 SWAP1 PUSH2 0x24FD JUMP JUMPDEST PUSH1 0x40 MLOAD DUP1 SWAP2 SUB SWAP1 LOG4 PUSH2 0x15B3 DUP4 DUP3 PUSH32 0x0 PUSH20 0xFFFFFFFFFFFFFFFFFFFFFFFFFFFFFFFFFFFFFFFF AND PUSH2 0x1D76 SWAP1 SWAP3 SWAP2 SWAP1 PUSH4 0xFFFFFFFF AND JUMP JUMPDEST SWAP4 SWAP3 POP POP POP JUMP JUMPDEST PUSH1 0x6 SLOAD DUP2 JUMP JUMPDEST PUSH32 0x0 DUP2 JUMP JUMPDEST PUSH1 0x0 PUSH32 0xFFFFFFFFFFFFFFFFFFFFFFFFFFFFFFFFFFFFFFFFFFFFFFFFFFFFFFFFFFFFFFFF SWAP1 POP SWAP2 SWAP1 POP JUMP JUMPDEST PUSH1 0x0 DUP1 PUSH1 0x2 SLOAD SWAP1 POP PUSH1 0x0 DUP2 EQ PUSH2 0x163F JUMPI PUSH2 0x163A DUP2 PUSH2 0x162A PUSH2 0x6F2 JUMP JUMPDEST DUP6 PUSH2 0x1A19 SWAP1 SWAP3 SWAP2 SWAP1 PUSH4 0xFFFFFFFF AND JUMP JUMPDEST PUSH2 0x1641 JUMP JUMPDEST DUP3 JUMPDEST SWAP2 POP POP SWAP2 SWAP1 POP JUMP JUMPDEST PUSH1 0x0 PUSH2 0x1693 PUSH1 0x3 PUSH1 0x0 DUP5 PUSH20 0xFFFFFFFFFFFFFFFFFFFFFFFFFFFFFFFFFFFFFFFF AND PUSH20 0xFFFFFFFFFFFFFFFFFFFFFFFFFFFFFFFFFFFFFFFF AND DUP2 MSTORE PUSH1 0x20 ADD SWAP1 DUP2 MSTORE PUSH1 0x20 ADD PUSH1 0x0 KECCAK256 SLOAD PUSH2 0x821 JUMP JUMPDEST SWAP1 POP SWAP2 SWAP1 POP JUMP JUMPDEST TIMESTAMP DUP5 LT ISZERO PUSH2 0x16DD JUMPI PUSH1 0x40 MLOAD PUSH32 0x8C379A000000000000000000000000000000000000000000000000000000000 DUP2 MSTORE PUSH1 0x4 ADD PUSH2 0x16D4 SWAP1 PUSH2 0x25DE JUMP JUMPDEST PUSH1 0x40 MLOAD DUP1 SWAP2 SUB SWAP1 REVERT JUMPDEST PUSH1 0x0 PUSH1 0x1 PUSH2 0x16E9 PUSH2 0xBFD JUMP JUMPDEST PUSH32 0x6E71EDAE12B1B97F4D1F60370FEF10105FA2FAAE0126114A169C64845D6126C9 DUP11 DUP11 DUP11 PUSH1 0x5 PUSH1 0x0 DUP16 PUSH20 0xFFFFFFFFFFFFFFFFFFFFFFFFFFFFFFFFFFFFFFFF AND PUSH20 0xFFFFFFFFFFFFFFFFFFFFFFFFFFFFFFFFFFFFFFFF AND DUP2 MSTORE PUSH1 0x20 ADD SWAP1 DUP2 MSTORE PUSH1 0x20 ADD PUSH1 0x0 KECCAK256 PUSH1 0x0 DUP2 SLOAD DUP1 SWAP3 SWAP2 SWAP1 PUSH1 0x1 ADD SWAP2 SWAP1 POP SSTORE DUP12 PUSH1 0x40 MLOAD PUSH1 0x20 ADD PUSH2 0x1771 SWAP7 SWAP6 SWAP5 SWAP4 SWAP3 SWAP2 SWAP1 PUSH2 0x25FE JUMP JUMPDEST PUSH1 0x40 MLOAD PUSH1 0x20 DUP2 DUP4 SUB SUB DUP2 MSTORE SWAP1 PUSH1 0x40 MSTORE DUP1 MLOAD SWAP1 PUSH1 0x20 ADD KECCAK256 PUSH1 0x40 MLOAD PUSH1 0x20 ADD PUSH2 0x1798 SWAP3 SWAP2 SWAP1 PUSH2 0x26D7 JUMP JUMPDEST PUSH1 0x40 MLOAD PUSH1 0x20 DUP2 DUP4 SUB SUB DUP2 MSTORE SWAP1 PUSH1 0x40 MSTORE DUP1 MLOAD SWAP1 PUSH1 0x20 ADD KECCAK256 DUP6 DUP6 DUP6 PUSH1 0x40 MLOAD PUSH1 0x0 DUP2 MSTORE PUSH1 0x20 ADD PUSH1 0x40 MSTORE PUSH1 0x40 MLOAD PUSH2 0x17CE SWAP5 SWAP4 SWAP3 SWAP2 SWAP1 PUSH2 0x270E JUMP JUMPDEST PUSH1 0x20 PUSH1 0x40 MLOAD PUSH1 0x20 DUP2 SUB SWAP1 DUP1 DUP5 SUB SWAP1 DUP6 GAS STATICCALL ISZERO DUP1 ISZERO PUSH2 0x17F0 JUMPI RETURNDATASIZE PUSH1 0x0 DUP1 RETURNDATACOPY RETURNDATASIZE PUSH1 0x0 REVERT JUMPDEST POP POP POP PUSH1 0x20 PUSH1 0x40 MLOAD SUB MLOAD SWAP1 POP PUSH1 0x0 PUSH20 0xFFFFFFFFFFFFFFFFFFFFFFFFFFFFFFFFFFFFFFFF AND DUP2 PUSH20 0xFFFFFFFFFFFFFFFFFFFFFFFFFFFFFFFFFFFFFFFF AND EQ ISZERO DUP1 ISZERO PUSH2 0x1864 JUMPI POP DUP8 PUSH20 0xFFFFFFFFFFFFFFFFFFFFFFFFFFFFFFFFFFFFFFFF AND DUP2 PUSH20 0xFFFFFFFFFFFFFFFFFFFFFFFFFFFFFFFFFFFFFFFF AND EQ JUMPDEST PUSH2 0x18A3 JUMPI PUSH1 0x40 MLOAD PUSH32 0x8C379A000000000000000000000000000000000000000000000000000000000 DUP2 MSTORE PUSH1 0x4 ADD PUSH2 0x189A SWAP1 PUSH2 0x279F JUMP JUMPDEST PUSH1 0x40 MLOAD DUP1 SWAP2 SUB SWAP1 REVERT JUMPDEST DUP6 PUSH1 0x4 PUSH1 0x0 DUP4 PUSH20 0xFFFFFFFFFFFFFFFFFFFFFFFFFFFFFFFFFFFFFFFF AND PUSH20 0xFFFFFFFFFFFFFFFFFFFFFFFFFFFFFFFFFFFFFFFF AND DUP2 MSTORE PUSH1 0x20 ADD SWAP1 DUP2 MSTORE PUSH1 0x20 ADD PUSH1 0x0 KECCAK256 PUSH1 0x0 DUP10 PUSH20 0xFFFFFFFFFFFFFFFFFFFFFFFFFFFFFFFFFFFFFFFF AND PUSH20 0xFFFFFFFFFFFFFFFFFFFFFFFFFFFFFFFFFFFFFFFF AND DUP2 MSTORE PUSH1 0x20 ADD SWAP1 DUP2 MSTORE PUSH1 0x20 ADD PUSH1 0x0 KECCAK256 DUP2 SWAP1 SSTORE POP POP DUP6 PUSH20 0xFFFFFFFFFFFFFFFFFFFFFFFFFFFFFFFFFFFFFFFF AND DUP8 PUSH20 0xFFFFFFFFFFFFFFFFFFFFFFFFFFFFFFFFFFFFFFFF AND PUSH32 0x8C5BE1E5EBEC7D5BD14F71427D1E84F3DD0314C0F7B2291E5B200AC8C7C3B925 DUP8 PUSH1 0x40 MLOAD PUSH2 0x1982 SWAP2 SWAP1 PUSH2 0x1E27 JUMP JUMPDEST PUSH1 0x40 MLOAD DUP1 SWAP2 SUB SWAP1 LOG3 POP POP POP POP POP POP POP JUMP JUMPDEST PUSH1 0x0 PUSH1 0x3 PUSH1 0x0 DUP4 PUSH20 0xFFFFFFFFFFFFFFFFFFFFFFFFFFFFFFFFFFFFFFFF AND PUSH20 0xFFFFFFFFFFFFFFFFFFFFFFFFFFFFFFFFFFFFFFFF AND DUP2 MSTORE PUSH1 0x20 ADD SWAP1 DUP2 MSTORE PUSH1 0x20 ADD PUSH1 0x0 KECCAK256 SLOAD SWAP1 POP SWAP2 SWAP1 POP JUMP JUMPDEST PUSH1 0x4 PUSH1 0x20 MSTORE DUP2 PUSH1 0x0 MSTORE PUSH1 0x40 PUSH1 0x0 KECCAK256 PUSH1 0x20 MSTORE DUP1 PUSH1 0x0 MSTORE PUSH1 0x40 PUSH1 0x0 KECCAK256 PUSH1 0x0 SWAP2 POP SWAP2 POP POP SLOAD DUP2 JUMP JUMPDEST PUSH1 0x0 PUSH2 0x1A0C DUP3 PUSH2 0x160E JUMP JUMPDEST SWAP1 POP SWAP2 SWAP1 POP JUMP JUMPDEST PUSH1 0x7 SLOAD DUP2 JUMP JUMPDEST PUSH1 0x0 DUP3 DUP5 MUL SWAP1 POP DUP3 DUP5 DUP3 DIV EQ DUP5 ISZERO OR DUP3 ISZERO ISZERO AND PUSH2 0x1A35 JUMPI PUSH1 0x0 DUP1 REVERT JUMPDEST DUP2 DUP2 DIV SWAP1 POP SWAP4 SWAP3 POP POP POP JUMP JUMPDEST PUSH1 0x0 DUP3 DUP5 MUL SWAP1 POP DUP3 DUP5 DUP3 DIV EQ DUP5 ISZERO OR DUP3 ISZERO ISZERO AND PUSH2 0x1A5D JUMPI PUSH1 0x0 DUP1 REVERT JUMPDEST PUSH1 0x1 DUP3 PUSH1 0x1 DUP4 SUB DIV ADD DUP2 ISZERO ISZERO MUL SWAP1 POP SWAP4 SWAP3 POP POP POP JUMP JUMPDEST PUSH1 0x0 PUSH32 0x8B73C3C69BB8FE3D512ECC4CF759CC79239F7B179B0FFACAA9A75D522B39400F PUSH1 0x0 PUSH1 0x40 MLOAD PUSH2 0x1AA5 SWAP2 SWAP1 PUSH2 0x285E JUMP JUMPDEST PUSH1 0x40 MLOAD DUP1 SWAP2 SUB SWAP1 KECCAK256 PUSH32 0xC89EFDAA54C0F20C7ADF612882DF0950F5A951637E0307CDCB4C672F298B8BC6 CHAINID ADDRESS PUSH1 0x40 MLOAD PUSH1 0x20 ADD PUSH2 0x1AE4 SWAP6 SWAP5 SWAP4 SWAP3 SWAP2 SWAP1 PUSH2 0x2875 JUMP JUMPDEST PUSH1 0x40 MLOAD PUSH1 0x20 DUP2 DUP4 SUB SUB DUP2 MSTORE SWAP1 PUSH1 0x40 MSTORE DUP1 MLOAD SWAP1 PUSH1 0x20 ADD KECCAK256 SWAP1 POP SWAP1 JUMP JUMPDEST PUSH1 0x0 PUSH1 0x40 MLOAD PUSH32 0x23B872DD00000000000000000000000000000000000000000000000000000000 DUP2 MSTORE DUP5 PUSH1 0x4 DUP3 ADD MSTORE DUP4 PUSH1 0x24 DUP3 ADD MSTORE DUP3 PUSH1 0x44 DUP3 ADD MSTORE PUSH1 0x20 PUSH1 0x0 PUSH1 0x64 DUP4 PUSH1 0x0 DUP11 GAS CALL RETURNDATASIZE ISZERO PUSH1 0x1F RETURNDATASIZE GT PUSH1 0x1 PUSH1 0x0 MLOAD EQ AND OR AND SWAP2 POP POP DUP1 PUSH2 0x1B97 JUMPI PUSH1 0x40 MLOAD PUSH32 0x8C379A000000000000000000000000000000000000000000000000000000000 DUP2 MSTORE PUSH1 0x4 ADD PUSH2 0x1B8E SWAP1 PUSH2 0x2914 JUMP JUMPDEST PUSH1 0x40 MLOAD DUP1 SWAP2 SUB SWAP1 REVERT JUMPDEST POP POP POP POP POP JUMP JUMPDEST DUP1 PUSH1 0x2 PUSH1 0x0 DUP3 DUP3 SLOAD PUSH2 0x1BB0 SWAP2 SWAP1 PUSH2 0x2934 JUMP JUMPDEST SWAP3 POP POP DUP2 SWAP1 SSTORE POP DUP1 PUSH1 0x3 PUSH1 0x0 DUP5 PUSH20 0xFFFFFFFFFFFFFFFFFFFFFFFFFFFFFFFFFFFFFFFF AND PUSH20 0xFFFFFFFFFFFFFFFFFFFFFFFFFFFFFFFFFFFFFFFF AND DUP2 MSTORE PUSH1 0x20 ADD SWAP1 DUP2 MSTORE PUSH1 0x20 ADD PUSH1 0x0 KECCAK256 PUSH1 0x0 DUP3 DUP3 SLOAD ADD SWAP3 POP POP DUP2 SWAP1 SSTORE POP DUP2 PUSH20 0xFFFFFFFFFFFFFFFFFFFFFFFFFFFFFFFFFFFFFFFF AND PUSH1 0x0 PUSH20 0xFFFFFFFFFFFFFFFFFFFFFFFFFFFFFFFFFFFFFFFF AND PUSH32 0xDDF252AD1BE2C89B69C2B068FC378DAA952BA7F163C4A11628F55A4DF523B3EF DUP4 PUSH1 0x40 MLOAD PUSH2 0x1C62 SWAP2 SWAP1 PUSH2 0x1E27 JUMP JUMPDEST PUSH1 0x40 MLOAD DUP1 SWAP2 SUB SWAP1 LOG3 POP POP JUMP JUMPDEST PUSH1 0x7 PUSH1 0x0 DUP2 SLOAD DUP1 SWAP3 SWAP2 SWAP1 PUSH2 0x1C81 SWAP1 PUSH2 0x298A JUMP JUMPDEST SWAP2 SWAP1 POP SSTORE POP POP POP JUMP JUMPDEST PUSH1 0x6 PUSH1 0x0 DUP2 SLOAD DUP1 SWAP3 SWAP2 SWAP1 PUSH2 0x1C9D SWAP1 PUSH2 0x298A JUMP JUMPDEST SWAP2 SWAP1 POP SSTORE POP POP POP JUMP JUMPDEST DUP1 PUSH1 0x3 PUSH1 0x0 DUP5 PUSH20 0xFFFFFFFFFFFFFFFFFFFFFFFFFFFFFFFFFFFFFFFF AND PUSH20 0xFFFFFFFFFFFFFFFFFFFFFFFFFFFFFFFFFFFFFFFF AND DUP2 MSTORE PUSH1 0x20 ADD SWAP1 DUP2 MSTORE PUSH1 0x20 ADD PUSH1 0x0 KECCAK256 PUSH1 0x0 DUP3 DUP3 SLOAD PUSH2 0x1CF5 SWAP2 SWAP1 PUSH2 0x245D JUMP JUMPDEST SWAP3 POP POP DUP2 SWAP1 SSTORE POP DUP1 PUSH1 0x2 PUSH1 0x0 DUP3 DUP3 SLOAD SUB SWAP3 POP POP DUP2 SWAP1 SSTORE POP PUSH1 0x0 PUSH20 0xFFFFFFFFFFFFFFFFFFFFFFFFFFFFFFFFFFFFFFFF AND DUP3 PUSH20 0xFFFFFFFFFFFFFFFFFFFFFFFFFFFFFFFFFFFFFFFF AND PUSH32 0xDDF252AD1BE2C89B69C2B068FC378DAA952BA7F163C4A11628F55A4DF523B3EF DUP4 PUSH1 0x40 MLOAD PUSH2 0x1D6A SWAP2 SWAP1 PUSH2 0x1E27 JUMP JUMPDEST PUSH1 0x40 MLOAD DUP1 SWAP2 SUB SWAP1 LOG3 POP POP JUMP JUMPDEST PUSH1 0x0 PUSH1 0x40 MLOAD PUSH32 0xA9059CBB00000000000000000000000000000000000000000000000000000000 DUP2 MSTORE DUP4 PUSH1 0x4 DUP3 ADD MSTORE DUP3 PUSH1 0x24 DUP3 ADD MSTORE PUSH1 0x20 PUSH1 0x0 PUSH1 0x44 DUP4 PUSH1 0x0 DUP10 GAS CALL RETURNDATASIZE ISZERO PUSH1 0x1F RETURNDATASIZE GT PUSH1 0x1 PUSH1 0x0 MLOAD EQ AND OR AND SWAP2 POP POP DUP1 PUSH2 0x1E08 JUMPI PUSH1 0x40 MLOAD PUSH32 0x8C379A000000000000000000000000000000000000000000000000000000000 DUP2 MSTORE PUSH1 0x4 ADD PUSH2 0x1DFF SWAP1 PUSH2 0x2A1F JUMP JUMPDEST PUSH1 0x40 MLOAD DUP1 SWAP2 SUB SWAP1 REVERT JUMPDEST POP POP POP POP JUMP JUMPDEST PUSH1 0x0 DUP2 SWAP1 POP SWAP2 SWAP1 POP JUMP JUMPDEST PUSH2 0x1E21 DUP2 PUSH2 0x1E0E JUMP JUMPDEST DUP3 MSTORE POP POP JUMP JUMPDEST PUSH1 0x0 PUSH1 0x20 DUP3 ADD SWAP1 POP PUSH2 0x1E3C PUSH1 0x0 DUP4 ADD DUP5 PUSH2 0x1E18 JUMP JUMPDEST SWAP3 SWAP2 POP POP JUMP JUMPDEST PUSH1 0x0 DUP2 MLOAD SWAP1 POP SWAP2 SWAP1 POP JUMP JUMPDEST PUSH1 0x0 DUP3 DUP3 MSTORE PUSH1 0x20 DUP3 ADD SWAP1 POP SWAP3 SWAP2 POP POP JUMP JUMPDEST PUSH1 0x0 JUMPDEST DUP4 DUP2 LT ISZERO PUSH2 0x1E7C JUMPI DUP1 DUP3 ADD MLOAD DUP2 DUP5 ADD MSTORE PUSH1 0x20 DUP2 ADD SWAP1 POP PUSH2 0x1E61 JUMP JUMPDEST DUP4 DUP2 GT ISZERO PUSH2 0x1E8B JUMPI PUSH1 0x0 DUP5 DUP5 ADD MSTORE JUMPDEST POP POP POP POP JUMP JUMPDEST PUSH1 0x0 PUSH1 0x1F NOT PUSH1 0x1F DUP4 ADD AND SWAP1 POP SWAP2 SWAP1 POP JUMP JUMPDEST PUSH1 0x0 PUSH2 0x1EAD DUP3 PUSH2 0x1E42 JUMP JUMPDEST PUSH2 0x1EB7 DUP2 DUP6 PUSH2 0x1E4D JUMP JUMPDEST SWAP4 POP PUSH2 0x1EC7 DUP2 DUP6 PUSH1 0x20 DUP7 ADD PUSH2 0x1E5E JUMP JUMPDEST PUSH2 0x1ED0 DUP2 PUSH2 0x1E91 JUMP JUMPDEST DUP5 ADD SWAP2 POP POP SWAP3 SWAP2 POP POP JUMP JUMPDEST PUSH1 0x0 PUSH1 0x20 DUP3 ADD SWAP1 POP DUP2 DUP2 SUB PUSH1 0x0 DUP4 ADD MSTORE PUSH2 0x1EF5 DUP2 DUP5 PUSH2 0x1EA2 JUMP JUMPDEST SWAP1 POP SWAP3 SWAP2 POP POP JUMP JUMPDEST PUSH1 0x0 DUP1 REVERT JUMPDEST PUSH2 0x1F0B DUP2 PUSH2 0x1E0E JUMP JUMPDEST DUP2 EQ PUSH2 0x1F16 JUMPI PUSH1 0x0 DUP1 REVERT JUMPDEST POP JUMP JUMPDEST PUSH1 0x0 DUP2 CALLDATALOAD SWAP1 POP PUSH2 0x1F28 DUP2 PUSH2 0x1F02 JUMP JUMPDEST SWAP3 SWAP2 POP POP JUMP JUMPDEST PUSH1 0x0 PUSH1 0x20 DUP3 DUP5 SUB SLT ISZERO PUSH2 0x1F44 JUMPI PUSH2 0x1F43 PUSH2 0x1EFD JUMP JUMPDEST JUMPDEST PUSH1 0x0 PUSH2 0x1F52 DUP5 DUP3 DUP6 ADD PUSH2 0x1F19 JUMP JUMPDEST SWAP2 POP POP SWAP3 SWAP2 POP POP JUMP JUMPDEST PUSH1 0x0 PUSH20 0xFFFFFFFFFFFFFFFFFFFFFFFFFFFFFFFFFFFFFFFF DUP3 AND SWAP1 POP SWAP2 SWAP1 POP JUMP JUMPDEST PUSH1 0x0 PUSH2 0x1F86 DUP3 PUSH2 0x1F5B JUMP JUMPDEST SWAP1 POP SWAP2 SWAP1 POP JUMP JUMPDEST PUSH2 0x1F96 DUP2 PUSH2 0x1F7B JUMP JUMPDEST DUP2 EQ PUSH2 0x1FA1 JUMPI PUSH1 0x0 DUP1 REVERT JUMPDEST POP JUMP JUMPDEST PUSH1 0x0 DUP2 CALLDATALOAD SWAP1 POP PUSH2 0x1FB3 DUP2 PUSH2 0x1F8D JUMP JUMPDEST SWAP3 SWAP2 POP POP JUMP JUMPDEST PUSH1 0x0 DUP1 PUSH1 0x40 DUP4 DUP6 SUB SLT ISZERO PUSH2 0x1FD0 JUMPI PUSH2 0x1FCF PUSH2 0x1EFD JUMP JUMPDEST JUMPDEST PUSH1 0x0 PUSH2 0x1FDE DUP6 DUP3 DUP7 ADD PUSH2 0x1FA4 JUMP JUMPDEST SWAP3 POP POP PUSH1 0x20 PUSH2 0x1FEF DUP6 DUP3 DUP7 ADD PUSH2 0x1F19 JUMP JUMPDEST SWAP2 POP POP SWAP3 POP SWAP3 SWAP1 POP JUMP JUMPDEST PUSH1 0x0 DUP2 ISZERO ISZERO SWAP1 POP SWAP2 SWAP1 POP JUMP JUMPDEST PUSH2 0x200E DUP2 PUSH2 0x1FF9 JUMP JUMPDEST DUP3 MSTORE POP POP JUMP JUMPDEST PUSH1 0x0 PUSH1 0x20 DUP3 ADD SWAP1 POP PUSH2 0x2029 PUSH1 0x0 DUP4 ADD DUP5 PUSH2 0x2005 JUMP JUMPDEST SWAP3 SWAP2 POP POP JUMP JUMPDEST PUSH1 0x0 DUP1 PUSH1 0x0 PUSH1 0x60 DUP5 DUP7 SUB SLT ISZERO PUSH2 0x2048 JUMPI PUSH2 0x2047 PUSH2 0x1EFD JUMP JUMPDEST JUMPDEST PUSH1 0x0 PUSH2 0x2056 DUP7 DUP3 DUP8 ADD PUSH2 0x1FA4 JUMP JUMPDEST SWAP4 POP POP PUSH1 0x20 PUSH2 0x2067 DUP7 DUP3 DUP8 ADD PUSH2 0x1FA4 JUMP JUMPDEST SWAP3 POP POP PUSH1 0x40 PUSH2 0x2078 DUP7 DUP3 DUP8 ADD PUSH2 0x1F19 JUMP JUMPDEST SWAP2 POP POP SWAP3 POP SWAP3 POP SWAP3 JUMP JUMPDEST PUSH1 0x0 PUSH1 0xFF DUP3 AND SWAP1 POP SWAP2 SWAP1 POP JUMP JUMPDEST PUSH2 0x2098 DUP2 PUSH2 0x2082 JUMP JUMPDEST DUP3 MSTORE POP POP JUMP JUMPDEST PUSH1 0x0 PUSH1 0x20 DUP3 ADD SWAP1 POP PUSH2 0x20B3 PUSH1 0x0 DUP4 ADD DUP5 PUSH2 0x208F JUMP JUMPDEST SWAP3 SWAP2 POP POP JUMP JUMPDEST PUSH1 0x0 DUP2 SWAP1 POP SWAP2 SWAP1 POP JUMP JUMPDEST PUSH2 0x20CC DUP2 PUSH2 0x20B9 JUMP JUMPDEST DUP3 MSTORE POP POP JUMP JUMPDEST PUSH1 0x0 PUSH1 0x20 DUP3 ADD SWAP1 POP PUSH2 0x20E7 PUSH1 0x0 DUP4 ADD DUP5 PUSH2 0x20C3 JUMP JUMPDEST SWAP3 SWAP2 POP POP JUMP JUMPDEST PUSH1 0x0 DUP2 SWAP1 POP SWAP2 SWAP1 POP JUMP JUMPDEST PUSH1 0x0 PUSH2 0x2112 PUSH2 0x210D PUSH2 0x2108 DUP5 PUSH2 0x1F5B JUMP JUMPDEST PUSH2 0x20ED JUMP JUMPDEST PUSH2 0x1F5B JUMP JUMPDEST SWAP1 POP SWAP2 SWAP1 POP JUMP JUMPDEST PUSH1 0x0 PUSH2 0x2124 DUP3 PUSH2 0x20F7 JUMP JUMPDEST SWAP1 POP SWAP2 SWAP1 POP JUMP JUMPDEST PUSH1 0x0 PUSH2 0x2136 DUP3 PUSH2 0x2119 JUMP JUMPDEST SWAP1 POP SWAP2 SWAP1 POP JUMP JUMPDEST PUSH2 0x2146 DUP2 PUSH2 0x212B JUMP JUMPDEST DUP3 MSTORE POP POP JUMP JUMPDEST PUSH1 0x0 PUSH1 0x20 DUP3 ADD SWAP1 POP PUSH2 0x2161 PUSH1 0x0 DUP4 ADD DUP5 PUSH2 0x213D JUMP JUMPDEST SWAP3 SWAP2 POP POP JUMP JUMPDEST PUSH1 0x0 PUSH1 0x20 DUP3 DUP5 SUB SLT ISZERO PUSH2 0x217D JUMPI PUSH2 0x217C PUSH2 0x1EFD JUMP JUMPDEST JUMPDEST PUSH1 0x0 PUSH2 0x218B DUP5 DUP3 DUP6 ADD PUSH2 0x1FA4 JUMP JUMPDEST SWAP2 POP POP SWAP3 SWAP2 POP POP JUMP JUMPDEST PUSH1 0x0 DUP1 PUSH1 0x40 DUP4 DUP6 SUB SLT ISZERO PUSH2 0x21AB JUMPI PUSH2 0x21AA PUSH2 0x1EFD JUMP JUMPDEST JUMPDEST PUSH1 0x0 PUSH2 0x21B9 DUP6 DUP3 DUP7 ADD PUSH2 0x1F19 JUMP JUMPDEST SWAP3 POP POP PUSH1 0x20 PUSH2 0x21CA DUP6 DUP3 DUP7 ADD PUSH2 0x1FA4 JUMP JUMPDEST SWAP2 POP POP SWAP3 POP SWAP3 SWAP1 POP JUMP JUMPDEST PUSH1 0x0 DUP1 PUSH1 0x0 PUSH1 0x60 DUP5 DUP7 SUB SLT ISZERO PUSH2 0x21ED JUMPI PUSH2 0x21EC PUSH2 0x1EFD JUMP JUMPDEST JUMPDEST PUSH1 0x0 PUSH2 0x21FB DUP7 DUP3 DUP8 ADD PUSH2 0x1F19 JUMP JUMPDEST SWAP4 POP POP PUSH1 0x20 PUSH2 0x220C DUP7 DUP3 DUP8 ADD PUSH2 0x1FA4 JUMP JUMPDEST SWAP3 POP POP PUSH1 0x40 PUSH2 0x221D DUP7 DUP3 DUP8 ADD PUSH2 0x1FA4 JUMP JUMPDEST SWAP2 POP POP SWAP3 POP SWAP3 POP SWAP3 JUMP JUMPDEST PUSH2 0x2230 DUP2 PUSH2 0x2082 JUMP JUMPDEST DUP2 EQ PUSH2 0x223B JUMPI PUSH1 0x0 DUP1 REVERT JUMPDEST POP JUMP JUMPDEST PUSH1 0x0 DUP2 CALLDATALOAD SWAP1 POP PUSH2 0x224D DUP2 PUSH2 0x2227 JUMP JUMPDEST SWAP3 SWAP2 POP POP JUMP JUMPDEST PUSH2 0x225C DUP2 PUSH2 0x20B9 JUMP JUMPDEST DUP2 EQ PUSH2 0x2267 JUMPI PUSH1 0x0 DUP1 REVERT JUMPDEST POP JUMP JUMPDEST PUSH1 0x0 DUP2 CALLDATALOAD SWAP1 POP PUSH2 0x2279 DUP2 PUSH2 0x2253 JUMP JUMPDEST SWAP3 SWAP2 POP POP JUMP JUMPDEST PUSH1 0x0 DUP1 PUSH1 0x0 DUP1 PUSH1 0x0 DUP1 PUSH1 0x0 PUSH1 0xE0 DUP9 DUP11 SUB SLT ISZERO PUSH2 0x229E JUMPI PUSH2 0x229D PUSH2 0x1EFD JUMP JUMPDEST JUMPDEST PUSH1 0x0 PUSH2 0x22AC DUP11 DUP3 DUP12 ADD PUSH2 0x1FA4 JUMP JUMPDEST SWAP8 POP POP PUSH1 0x20 PUSH2 0x22BD DUP11 DUP3 DUP12 ADD PUSH2 0x1FA4 JUMP JUMPDEST SWAP7 POP POP PUSH1 0x40 PUSH2 0x22CE DUP11 DUP3 DUP12 ADD PUSH2 0x1F19 JUMP JUMPDEST SWAP6 POP POP PUSH1 0x60 PUSH2 0x22DF DUP11 DUP3 DUP12 ADD PUSH2 0x1F19 JUMP JUMPDEST SWAP5 POP POP PUSH1 0x80 PUSH2 0x22F0 DUP11 DUP3 DUP12 ADD PUSH2 0x223E JUMP JUMPDEST SWAP4 POP POP PUSH1 0xA0 PUSH2 0x2301 DUP11 DUP3 DUP12 ADD PUSH2 0x226A JUMP JUMPDEST SWAP3 POP POP PUSH1 0xC0 PUSH2 0x2312 DUP11 DUP3 DUP12 ADD PUSH2 0x226A JUMP JUMPDEST SWAP2 POP POP SWAP3 SWAP6 SWAP9 SWAP2 SWAP5 SWAP8 POP SWAP3 SWAP6 POP JUMP JUMPDEST PUSH1 0x0 DUP1 PUSH1 0x40 DUP4 DUP6 SUB SLT ISZERO PUSH2 0x2338 JUMPI PUSH2 0x2337 PUSH2 0x1EFD JUMP JUMPDEST JUMPDEST PUSH1 0x0 PUSH2 0x2346 DUP6 DUP3 DUP7 ADD PUSH2 0x1FA4 JUMP JUMPDEST SWAP3 POP POP PUSH1 0x20 PUSH2 0x2357 DUP6 DUP3 DUP7 ADD PUSH2 0x1FA4 JUMP JUMPDEST SWAP2 POP POP SWAP3 POP SWAP3 SWAP1 POP JUMP JUMPDEST PUSH2 0x236A DUP2 PUSH2 0x1F7B JUMP JUMPDEST DUP3 MSTORE POP POP JUMP JUMPDEST PUSH1 0x0 PUSH1 0x20 DUP3 ADD SWAP1 POP PUSH2 0x2385 PUSH1 0x0 DUP4 ADD DUP5 PUSH2 0x2361 JUMP JUMPDEST SWAP3 SWAP2 POP POP JUMP JUMPDEST PUSH1 0x0 DUP2 MLOAD SWAP1 POP PUSH2 0x239A DUP2 PUSH2 0x1F02 JUMP JUMPDEST SWAP3 SWAP2 POP POP JUMP JUMPDEST PUSH1 0x0 PUSH1 0x20 DUP3 DUP5 SUB SLT ISZERO PUSH2 0x23B6 JUMPI PUSH2 0x23B5 PUSH2 0x1EFD JUMP JUMPDEST JUMPDEST PUSH1 0x0 PUSH2 0x23C4 DUP5 DUP3 DUP6 ADD PUSH2 0x238B JUMP JUMPDEST SWAP2 POP POP SWAP3 SWAP2 POP POP JUMP JUMPDEST PUSH32 0x4E487B7100000000000000000000000000000000000000000000000000000000 PUSH1 0x0 MSTORE PUSH1 0x22 PUSH1 0x4 MSTORE PUSH1 0x24 PUSH1 0x0 REVERT JUMPDEST PUSH1 0x0 PUSH1 0x2 DUP3 DIV SWAP1 POP PUSH1 0x1 DUP3 AND DUP1 PUSH2 0x2414 JUMPI PUSH1 0x7F DUP3 AND SWAP2 POP JUMPDEST PUSH1 0x20 DUP3 LT DUP2 EQ ISZERO PUSH2 0x2428 JUMPI PUSH2 0x2427 PUSH2 0x23CD JUMP JUMPDEST JUMPDEST POP SWAP2 SWAP1 POP JUMP JUMPDEST PUSH32 0x4E487B7100000000000000000000000000000000000000000000000000000000 PUSH1 0x0 MSTORE PUSH1 0x11 PUSH1 0x4 MSTORE PUSH1 0x24 PUSH1 0x0 REVERT JUMPDEST PUSH1 0x0 PUSH2 0x2468 DUP3 PUSH2 0x1E0E JUMP JUMPDEST SWAP2 POP PUSH2 0x2473 DUP4 PUSH2 0x1E0E JUMP JUMPDEST SWAP3 POP DUP3 DUP3 LT ISZERO PUSH2 0x2486 JUMPI PUSH2 0x2485 PUSH2 0x242E JUMP JUMPDEST JUMPDEST DUP3 DUP3 SUB SWAP1 POP SWAP3 SWAP2 POP POP JUMP JUMPDEST PUSH32 0x5A45524F5F534841524553000000000000000000000000000000000000000000 PUSH1 0x0 DUP3 ADD MSTORE POP JUMP JUMPDEST PUSH1 0x0 PUSH2 0x24C7 PUSH1 0xB DUP4 PUSH2 0x1E4D JUMP JUMPDEST SWAP2 POP PUSH2 0x24D2 DUP3 PUSH2 0x2491 JUMP JUMPDEST PUSH1 0x20 DUP3 ADD SWAP1 POP SWAP2 SWAP1 POP JUMP JUMPDEST PUSH1 0x0 PUSH1 0x20 DUP3 ADD SWAP1 POP DUP2 DUP2 SUB PUSH1 0x0 DUP4 ADD MSTORE PUSH2 0x24F6 DUP2 PUSH2 0x24BA JUMP JUMPDEST SWAP1 POP SWAP2 SWAP1 POP JUMP JUMPDEST PUSH1 0x0 PUSH1 0x40 DUP3 ADD SWAP1 POP PUSH2 0x2512 PUSH1 0x0 DUP4 ADD DUP6 PUSH2 0x1E18 JUMP JUMPDEST PUSH2 0x251F PUSH1 0x20 DUP4 ADD DUP5 PUSH2 0x1E18 JUMP JUMPDEST SWAP4 SWAP3 POP POP POP JUMP JUMPDEST PUSH32 0x5A45524F5F415353455453000000000000000000000000000000000000000000 PUSH1 0x0 DUP3 ADD MSTORE POP JUMP JUMPDEST PUSH1 0x0 PUSH2 0x255C PUSH1 0xB DUP4 PUSH2 0x1E4D JUMP JUMPDEST SWAP2 POP PUSH2 0x2567 DUP3 PUSH2 0x2526 JUMP JUMPDEST PUSH1 0x20 DUP3 ADD SWAP1 POP SWAP2 SWAP1 POP JUMP JUMPDEST PUSH1 0x0 PUSH1 0x20 DUP3 ADD SWAP1 POP DUP2 DUP2 SUB PUSH1 0x0 DUP4 ADD MSTORE PUSH2 0x258B DUP2 PUSH2 0x254F JUMP JUMPDEST SWAP1 POP SWAP2 SWAP1 POP JUMP JUMPDEST PUSH32 0x5045524D49545F444541444C494E455F45585049524544000000000000000000 PUSH1 0x0 DUP3 ADD MSTORE POP JUMP JUMPDEST PUSH1 0x0 PUSH2 0x25C8 PUSH1 0x17 DUP4 PUSH2 0x1E4D JUMP JUMPDEST SWAP2 POP PUSH2 0x25D3 DUP3 PUSH2 0x2592 JUMP JUMPDEST PUSH1 0x20 DUP3 ADD SWAP1 POP SWAP2 SWAP1 POP JUMP JUMPDEST PUSH1 0x0 PUSH1 0x20 DUP3 ADD SWAP1 POP DUP2 DUP2 SUB PUSH1 0x0 DUP4 ADD MSTORE PUSH2 0x25F7 DUP2 PUSH2 0x25BB JUMP JUMPDEST SWAP1 POP SWAP2 SWAP1 POP JUMP JUMPDEST PUSH1 0x0 PUSH1 0xC0 DUP3 ADD SWAP1 POP PUSH2 0x2613 PUSH1 0x0 DUP4 ADD DUP10 PUSH2 0x20C3 JUMP JUMPDEST PUSH2 0x2620 PUSH1 0x20 DUP4 ADD DUP9 PUSH2 0x2361 JUMP JUMPDEST PUSH2 0x262D PUSH1 0x40 DUP4 ADD DUP8 PUSH2 0x2361 JUMP JUMPDEST PUSH2 0x263A PUSH1 0x60 DUP4 ADD DUP7 PUSH2 0x1E18 JUMP JUMPDEST PUSH2 0x2647 PUSH1 0x80 DUP4 ADD DUP6 PUSH2 0x1E18 JUMP JUMPDEST PUSH2 0x2654 PUSH1 0xA0 DUP4 ADD DUP5 PUSH2 0x1E18 JUMP JUMPDEST SWAP8 SWAP7 POP POP POP POP POP POP POP JUMP JUMPDEST PUSH1 0x0 DUP2 SWAP1 POP SWAP3 SWAP2 POP POP JUMP JUMPDEST PUSH32 0x1901000000000000000000000000000000000000000000000000000000000000 PUSH1 0x0 DUP3 ADD MSTORE POP JUMP JUMPDEST PUSH1 0x0 PUSH2 0x26A0 PUSH1 0x2 DUP4 PUSH2 0x265F JUMP JUMPDEST SWAP2 POP PUSH2 0x26AB DUP3 PUSH2 0x266A JUMP JUMPDEST PUSH1 0x2 DUP3 ADD SWAP1 POP SWAP2 SWAP1 POP JUMP JUMPDEST PUSH1 0x0 DUP2 SWAP1 POP SWAP2 SWAP1 POP JUMP JUMPDEST PUSH2 0x26D1 PUSH2 0x26CC DUP3 PUSH2 0x20B9 JUMP JUMPDEST PUSH2 0x26B6 JUMP JUMPDEST DUP3 MSTORE POP POP JUMP JUMPDEST PUSH1 0x0 PUSH2 0x26E2 DUP3 PUSH2 0x2693 JUMP JUMPDEST SWAP2 POP PUSH2 0x26EE DUP3 DUP6 PUSH2 0x26C0 JUMP JUMPDEST PUSH1 0x20 DUP3 ADD SWAP2 POP PUSH2 0x26FE DUP3 DUP5 PUSH2 0x26C0 JUMP JUMPDEST PUSH1 0x20 DUP3 ADD SWAP2 POP DUP2 SWAP1 POP SWAP4 SWAP3 POP POP POP JUMP JUMPDEST PUSH1 0x0 PUSH1 0x80 DUP3 ADD SWAP1 POP PUSH2 0x2723 PUSH1 0x0 DUP4 ADD DUP8 PUSH2 0x20C3 JUMP JUMPDEST PUSH2 0x2730 PUSH1 0x20 DUP4 ADD DUP7 PUSH2 0x208F JUMP JUMPDEST PUSH2 0x273D PUSH1 0x40 DUP4 ADD DUP6 PUSH2 0x20C3 JUMP JUMPDEST PUSH2 0x274A PUSH1 0x60 DUP4 ADD DUP5 PUSH2 0x20C3 JUMP JUMPDEST SWAP6 SWAP5 POP POP POP POP POP JUMP JUMPDEST PUSH32 0x494E56414C49445F5349474E4552000000000000000000000000000000000000 PUSH1 0x0 DUP3 ADD MSTORE POP JUMP JUMPDEST PUSH1 0x0 PUSH2 0x2789 PUSH1 0xE DUP4 PUSH2 0x1E4D JUMP JUMPDEST SWAP2 POP PUSH2 0x2794 DUP3 PUSH2 0x2753 JUMP JUMPDEST PUSH1 0x20 DUP3 ADD SWAP1 POP SWAP2 SWAP1 POP JUMP JUMPDEST PUSH1 0x0 PUSH1 0x20 DUP3 ADD SWAP1 POP DUP2 DUP2 SUB PUSH1 0x0 DUP4 ADD MSTORE PUSH2 0x27B8 DUP2 PUSH2 0x277C JUMP JUMPDEST SWAP1 POP SWAP2 SWAP1 POP JUMP JUMPDEST PUSH1 0x0 DUP2 SWAP1 POP SWAP3 SWAP2 POP POP JUMP JUMPDEST PUSH1 0x0 DUP2 SWAP1 POP DUP2 PUSH1 0x0 MSTORE PUSH1 0x20 PUSH1 0x0 KECCAK256 SWAP1 POP SWAP2 SWAP1 POP JUMP JUMPDEST PUSH1 0x0 DUP2 SLOAD PUSH2 0x27EC DUP2 PUSH2 0x23FC JUMP JUMPDEST PUSH2 0x27F6 DUP2 DUP7 PUSH2 0x27BF JUMP JUMPDEST SWAP5 POP PUSH1 0x1 DUP3 AND PUSH1 0x0 DUP2 EQ PUSH2 0x2811 JUMPI PUSH1 0x1 DUP2 EQ PUSH2 0x2822 JUMPI PUSH2 0x2855 JUMP JUMPDEST PUSH1 0xFF NOT DUP4 AND DUP7 MSTORE DUP2 DUP7 ADD SWAP4 POP PUSH2 0x2855 JUMP JUMPDEST PUSH2 0x282B DUP6 PUSH2 0x27CA JUMP JUMPDEST PUSH1 0x0 JUMPDEST DUP4 DUP2 LT ISZERO PUSH2 0x284D JUMPI DUP2 SLOAD DUP2 DUP10 ADD MSTORE PUSH1 0x1 DUP3 ADD SWAP2 POP PUSH1 0x20 DUP2 ADD SWAP1 POP PUSH2 0x282E JUMP JUMPDEST DUP4 DUP9 ADD SWAP6 POP POP POP JUMPDEST POP POP POP SWAP3 SWAP2 POP POP JUMP JUMPDEST PUSH1 0x0 PUSH2 0x286A DUP3 DUP5 PUSH2 0x27DF JUMP JUMPDEST SWAP2 POP DUP2 SWAP1 POP SWAP3 SWAP2 POP POP JUMP JUMPDEST PUSH1 0x0 PUSH1 0xA0 DUP3 ADD SWAP1 POP PUSH2 0x288A PUSH1 0x0 DUP4 ADD DUP9 PUSH2 0x20C3 JUMP JUMPDEST PUSH2 0x2897 PUSH1 0x20 DUP4 ADD DUP8 PUSH2 0x20C3 JUMP JUMPDEST PUSH2 0x28A4 PUSH1 0x40 DUP4 ADD DUP7 PUSH2 0x20C3 JUMP JUMPDEST PUSH2 0x28B1 PUSH1 0x60 DUP4 ADD DUP6 PUSH2 0x1E18 JUMP JUMPDEST PUSH2 0x28BE PUSH1 0x80 DUP4 ADD DUP5 PUSH2 0x2361 JUMP JUMPDEST SWAP7 SWAP6 POP POP POP POP POP POP JUMP JUMPDEST PUSH32 0x5452414E534645525F46524F4D5F4641494C4544000000000000000000000000 PUSH1 0x0 DUP3 ADD MSTORE POP JUMP JUMPDEST PUSH1 0x0 PUSH2 0x28FE PUSH1 0x14 DUP4 PUSH2 0x1E4D JUMP JUMPDEST SWAP2 POP PUSH2 0x2909 DUP3 PUSH2 0x28C8 JUMP JUMPDEST PUSH1 0x20 DUP3 ADD SWAP1 POP SWAP2 SWAP1 POP JUMP JUMPDEST PUSH1 0x0 PUSH1 0x20 DUP3 ADD SWAP1 POP DUP2 DUP2 SUB PUSH1 0x0 DUP4 ADD MSTORE PUSH2 0x292D DUP2 PUSH2 0x28F1 JUMP JUMPDEST SWAP1 POP SWAP2 SWAP1 POP JUMP JUMPDEST PUSH1 0x0 PUSH2 0x293F DUP3 PUSH2 0x1E0E JUMP JUMPDEST SWAP2 POP PUSH2 0x294A DUP4 PUSH2 0x1E0E JUMP JUMPDEST SWAP3 POP DUP3 PUSH32 0xFFFFFFFFFFFFFFFFFFFFFFFFFFFFFFFFFFFFFFFFFFFFFFFFFFFFFFFFFFFFFFFF SUB DUP3 GT ISZERO PUSH2 0x297F JUMPI PUSH2 0x297E PUSH2 0x242E JUMP JUMPDEST JUMPDEST DUP3 DUP3 ADD SWAP1 POP SWAP3 SWAP2 POP POP JUMP JUMPDEST PUSH1 0x0 PUSH2 0x2995 DUP3 PUSH2 0x1E0E JUMP JUMPDEST SWAP2 POP PUSH32 0xFFFFFFFFFFFFFFFFFFFFFFFFFFFFFFFFFFFFFFFFFFFFFFFFFFFFFFFFFFFFFFFF DUP3 EQ ISZERO PUSH2 0x29C8 JUMPI PUSH2 0x29C7 PUSH2 0x242E JUMP JUMPDEST JUMPDEST PUSH1 0x1 DUP3 ADD SWAP1 POP SWAP2 SWAP1 POP JUMP JUMPDEST PUSH32 0x5452414E534645525F4641494C45440000000000000000000000000000000000 PUSH1 0x0 DUP3 ADD MSTORE POP JUMP JUMPDEST PUSH1 0x0 PUSH2 0x2A09 PUSH1 0xF DUP4 PUSH2 0x1E4D JUMP JUMPDEST SWAP2 POP PUSH2 0x2A14 DUP3 PUSH2 0x29D3 JUMP JUMPDEST PUSH1 0x20 DUP3 ADD SWAP1 POP SWAP2 SWAP1 POP JUMP JUMPDEST PUSH1 0x0 PUSH1 0x20 DUP3 ADD SWAP1 POP DUP2 DUP2 SUB PUSH1 0x0 DUP4 ADD MSTORE PUSH2 0x2A38 DUP2 PUSH2 0x29FC JUMP JUMPDEST SWAP1 POP SWAP2 SWAP1 POP JUMP INVALID LOG2 PUSH5 0x6970667358 0x22 SLT KECCAK256 GASPRICE DUP10 PUSH20 0xB9E8C0FB6EFABCB18D83646AFED98FC800F35BB0 DUP5 0xE3 MSTORE8 ADDRESS 0xE6 0xF 0xBA 0xF8 SWAP12 PUSH5 0x736F6C6343 STOP ADDMOD EXP STOP CALLER "
				},
				"gasEstimates": {
					"creation": {
						"codeDepositCost": "2173800",
						"executionCost": "infinite",
						"totalCost": "infinite"
					},
					"external": {
						"DOMAIN_SEPARATOR()": "infinite",
						"UNDERLYING()": "infinite",
						"afterDepositHookCalledCounter()": "2539",
						"allowance(address,address)": "infinite",
						"approve(address,uint256)": "infinite",
						"asset()": "infinite",
						"balanceOf(address)": "2903",
						"beforeWithdrawHookCalledCounter()": "2518",
						"convertToAssets(uint256)": "infinite",
						"convertToShares(uint256)": "infinite",
						"decimals()": "infinite",
						"deposit(uint256,address)": "infinite",
						"maxDeposit(address)": "763",
						"maxMint(address)": "696",
						"maxRedeem(address)": "2885",
						"maxWithdraw(address)": "infinite",
						"mint(uint256,address)": "infinite",
						"name()": "infinite",
						"nonces(address)": "2925",
						"permit(address,address,uint256,uint256,uint8,bytes32,bytes32)": "infinite",
						"previewDeposit(uint256)": "infinite",
						"previewMint(uint256)": "infinite",
						"previewRedeem(uint256)": "infinite",
						"previewWithdraw(uint256)": "infinite",
						"redeem(uint256,address,address)": "infinite",
						"symbol()": "infinite",
						"totalAssets()": "infinite",
						"totalSupply()": "2519",
						"transfer(address,uint256)": "infinite",
						"transferFrom(address,address,uint256)": "infinite",
						"withdraw(uint256,address,address)": "infinite"
					},
					"internal": {
						"afterDeposit(uint256,uint256)": "24373",
						"beforeWithdraw(uint256,uint256)": "24373",
						"strategyACall(address,uint256,uint160)": "infinite"
					}
				},
				"methodIdentifiers": {
					"DOMAIN_SEPARATOR()": "3644e515",
					"UNDERLYING()": "c5d664c6",
					"afterDepositHookCalledCounter()": "fc407ae7",
					"allowance(address,address)": "dd62ed3e",
					"approve(address,uint256)": "095ea7b3",
					"asset()": "38d52e0f",
					"balanceOf(address)": "70a08231",
					"beforeWithdrawHookCalledCounter()": "bc368a8a",
					"convertToAssets(uint256)": "07a2d13a",
					"convertToShares(uint256)": "c6e6f592",
					"decimals()": "313ce567",
					"deposit(uint256,address)": "6e553f65",
					"maxDeposit(address)": "402d267d",
					"maxMint(address)": "c63d75b6",
					"maxRedeem(address)": "d905777e",
					"maxWithdraw(address)": "ce96cb77",
					"mint(uint256,address)": "94bf804d",
					"name()": "06fdde03",
					"nonces(address)": "7ecebe00",
					"permit(address,address,uint256,uint256,uint8,bytes32,bytes32)": "d505accf",
					"previewDeposit(uint256)": "ef8b30f7",
					"previewMint(uint256)": "b3d7f6b9",
					"previewRedeem(uint256)": "4cdad506",
					"previewWithdraw(uint256)": "0a28a477",
					"redeem(uint256,address,address)": "ba087652",
					"symbol()": "95d89b41",
					"totalAssets()": "01e1d114",
					"totalSupply()": "18160ddd",
					"transfer(address,uint256)": "a9059cbb",
					"transferFrom(address,address,uint256)": "23b872dd",
					"withdraw(uint256,address,address)": "b460af94"
				}
			},
			"storageLayout": {
				"storage": [
					{
						"astId": 20,
						"contract": "SquiddyCore.sol:SquiddyCore",
						"label": "name",
						"offset": 0,
						"slot": "0",
						"type": "t_string_storage"
					},
					{
						"astId": 22,
						"contract": "SquiddyCore.sol:SquiddyCore",
						"label": "symbol",
						"offset": 0,
						"slot": "1",
						"type": "t_string_storage"
					},
					{
						"astId": 26,
						"contract": "SquiddyCore.sol:SquiddyCore",
						"label": "totalSupply",
						"offset": 0,
						"slot": "2",
						"type": "t_uint256"
					},
					{
						"astId": 30,
						"contract": "SquiddyCore.sol:SquiddyCore",
						"label": "balanceOf",
						"offset": 0,
						"slot": "3",
						"type": "t_mapping(t_address,t_uint256)"
					},
					{
						"astId": 36,
						"contract": "SquiddyCore.sol:SquiddyCore",
						"label": "allowance",
						"offset": 0,
						"slot": "4",
						"type": "t_mapping(t_address,t_mapping(t_address,t_uint256))"
					},
					{
						"astId": 44,
						"contract": "SquiddyCore.sol:SquiddyCore",
						"label": "nonces",
						"offset": 0,
						"slot": "5",
						"type": "t_mapping(t_address,t_uint256)"
					},
					{
						"astId": 1123,
						"contract": "SquiddyCore.sol:SquiddyCore",
						"label": "beforeWithdrawHookCalledCounter",
						"offset": 0,
						"slot": "6",
						"type": "t_uint256"
					},
					{
						"astId": 1126,
						"contract": "SquiddyCore.sol:SquiddyCore",
						"label": "afterDepositHookCalledCounter",
						"offset": 0,
						"slot": "7",
						"type": "t_uint256"
					}
				],
				"types": {
					"t_address": {
						"encoding": "inplace",
						"label": "address",
						"numberOfBytes": "20"
					},
					"t_mapping(t_address,t_mapping(t_address,t_uint256))": {
						"encoding": "mapping",
						"key": "t_address",
						"label": "mapping(address => mapping(address => uint256))",
						"numberOfBytes": "32",
						"value": "t_mapping(t_address,t_uint256)"
					},
					"t_mapping(t_address,t_uint256)": {
						"encoding": "mapping",
						"key": "t_address",
						"label": "mapping(address => uint256)",
						"numberOfBytes": "32",
						"value": "t_uint256"
					},
					"t_string_storage": {
						"encoding": "bytes",
						"label": "string",
						"numberOfBytes": "32"
					},
					"t_uint256": {
						"encoding": "inplace",
						"label": "uint256",
						"numberOfBytes": "32"
					}
				}
			},
			"userdoc": {
				"kind": "user",
				"methods": {
					"UNDERLYING()": {
						"notice": "The underlying token the squiddyVault accepts."
					}
				},
				"version": 1
			}
		}
	}
}