{
  "_format": "hh-sol-artifact-1",
  "contractName": "VaultFactory",
  "sourceName": "contracts/VaultFactory.sol",
  "abi": [
    {
      "inputs": [
        {
          "internalType": "address",
          "name": "_SquiddyCore",
          "type": "address"
        }
      ],
      "stateMutability": "nonpayable",
      "type": "constructor"
    },
    {
      "anonymous": false,
      "inputs": [
        {
          "indexed": true,
          "internalType": "string",
          "name": "name",
          "type": "string"
        },
        {
          "indexed": true,
          "internalType": "string",
          "name": "symbol",
          "type": "string"
        },
        {
          "indexed": true,
          "internalType": "address",
          "name": "vaultAddress",
          "type": "address"
        },
        {
          "indexed": false,
          "internalType": "address",
          "name": "strategyAddress",
          "type": "address"
        },
        {
          "indexed": false,
          "internalType": "address",
          "name": "managerAddress",
          "type": "address"
        },
        {
          "indexed": false,
          "internalType": "uint256",
          "name": "index",
          "type": "uint256"
        }
      ],
      "name": "NewVault",
      "type": "event"
    },
    {
      "anonymous": false,
      "inputs": [
        {
          "indexed": true,
          "internalType": "bytes32",
          "name": "role",
          "type": "bytes32"
        },
        {
          "indexed": true,
          "internalType": "bytes32",
          "name": "previousAdminRole",
          "type": "bytes32"
        },
        {
          "indexed": true,
          "internalType": "bytes32",
          "name": "newAdminRole",
          "type": "bytes32"
        }
      ],
      "name": "RoleAdminChanged",
      "type": "event"
    },
    {
      "anonymous": false,
      "inputs": [
        {
          "indexed": true,
          "internalType": "bytes32",
          "name": "role",
          "type": "bytes32"
        },
        {
          "indexed": true,
          "internalType": "address",
          "name": "account",
          "type": "address"
        },
        {
          "indexed": true,
          "internalType": "address",
          "name": "sender",
          "type": "address"
        }
      ],
      "name": "RoleGranted",
      "type": "event"
    },
    {
      "anonymous": false,
      "inputs": [
        {
          "indexed": true,
          "internalType": "bytes32",
          "name": "role",
          "type": "bytes32"
        },
        {
          "indexed": true,
          "internalType": "address",
          "name": "account",
          "type": "address"
        },
        {
          "indexed": true,
          "internalType": "address",
          "name": "sender",
          "type": "address"
        }
      ],
      "name": "RoleRevoked",
      "type": "event"
    },
    {
      "inputs": [],
      "name": "DEFAULT_ADMIN_ROLE",
      "outputs": [
        {
          "internalType": "bytes32",
          "name": "",
          "type": "bytes32"
        }
      ],
      "stateMutability": "view",
      "type": "function"
    },
    {
      "inputs": [],
      "name": "VAULT_ADMIN",
      "outputs": [
        {
          "internalType": "bytes32",
          "name": "",
          "type": "bytes32"
        }
      ],
      "stateMutability": "view",
      "type": "function"
    },
    {
      "inputs": [],
      "name": "VAULT_FACTORY_ROLE",
      "outputs": [
        {
          "internalType": "bytes32",
          "name": "",
          "type": "bytes32"
        }
      ],
      "stateMutability": "view",
      "type": "function"
    },
    {
      "inputs": [
        {
          "internalType": "string",
          "name": "_name",
          "type": "string"
        },
        {
          "internalType": "string",
          "name": "_symbol",
          "type": "string"
        },
        {
          "internalType": "address",
          "name": "_strategyAddress",
          "type": "address"
        },
        {
          "internalType": "address",
          "name": "_managerAddress",
          "type": "address"
        },
        {
          "internalType": "address",
          "name": "_assetAddress",
          "type": "address"
        },
        {
          "internalType": "uint8",
          "name": "_assetDecimals",
          "type": "uint8"
        }
      ],
      "name": "buildVault",
      "outputs": [],
      "stateMutability": "nonpayable",
      "type": "function"
    },
    {
      "inputs": [],
      "name": "fetchAllVaults",
      "outputs": [
        {
          "components": [
            {
              "internalType": "string",
              "name": "name",
              "type": "string"
            },
            {
              "internalType": "string",
              "name": "symbol",
              "type": "string"
            },
            {
              "internalType": "address",
              "name": "vaultAddress",
              "type": "address"
            },
            {
              "internalType": "address",
              "name": "strategyAddress",
              "type": "address"
            },
            {
              "internalType": "address",
              "name": "managerAddress",
              "type": "address"
            },
            {
              "internalType": "address",
              "name": "assetAddress",
              "type": "address"
            },
            {
              "internalType": "uint256",
              "name": "index",
              "type": "uint256"
            }
          ],
          "internalType": "struct VaultFactory.VaultDetails[]",
          "name": "",
          "type": "tuple[]"
        }
      ],
      "stateMutability": "view",
      "type": "function"
    },
    {
      "inputs": [],
      "name": "getBeacon",
      "outputs": [
        {
          "internalType": "address",
          "name": "",
          "type": "address"
        }
      ],
      "stateMutability": "view",
      "type": "function"
    },
    {
      "inputs": [],
      "name": "getImplementation",
      "outputs": [
        {
          "internalType": "address",
          "name": "",
          "type": "address"
        }
      ],
      "stateMutability": "view",
      "type": "function"
    },
    {
      "inputs": [
        {
          "internalType": "bytes32",
          "name": "role",
          "type": "bytes32"
        }
      ],
      "name": "getRoleAdmin",
      "outputs": [
        {
          "internalType": "bytes32",
          "name": "",
          "type": "bytes32"
        }
      ],
      "stateMutability": "view",
      "type": "function"
    },
    {
      "inputs": [
        {
          "internalType": "bytes32",
          "name": "role",
          "type": "bytes32"
        },
        {
          "internalType": "address",
          "name": "account",
          "type": "address"
        }
      ],
      "name": "grantRole",
      "outputs": [],
      "stateMutability": "nonpayable",
      "type": "function"
    },
    {
      "inputs": [
        {
          "internalType": "bytes32",
          "name": "role",
          "type": "bytes32"
        },
        {
          "internalType": "address",
          "name": "account",
          "type": "address"
        }
      ],
      "name": "hasRole",
      "outputs": [
        {
          "internalType": "bool",
          "name": "",
          "type": "bool"
        }
      ],
      "stateMutability": "view",
      "type": "function"
    },
    {
      "inputs": [
        {
          "internalType": "uint8",
          "name": "index",
          "type": "uint8"
        }
      ],
      "name": "removeVaultContractFromFrontend",
      "outputs": [],
      "stateMutability": "nonpayable",
      "type": "function"
    },
    {
      "inputs": [],
      "name": "removedVaults",
      "outputs": [
        {
          "internalType": "uint256",
          "name": "_value",
          "type": "uint256"
        }
      ],
      "stateMutability": "view",
      "type": "function"
    },
    {
      "inputs": [
        {
          "internalType": "bytes32",
          "name": "role",
          "type": "bytes32"
        },
        {
          "internalType": "address",
          "name": "account",
          "type": "address"
        }
      ],
      "name": "renounceRole",
      "outputs": [],
      "stateMutability": "nonpayable",
      "type": "function"
    },
    {
      "inputs": [
        {
          "internalType": "bytes32",
          "name": "role",
          "type": "bytes32"
        },
        {
          "internalType": "address",
          "name": "account",
          "type": "address"
        }
      ],
      "name": "revokeRole",
      "outputs": [],
      "stateMutability": "nonpayable",
      "type": "function"
    },
    {
      "inputs": [
        {
          "internalType": "bytes4",
          "name": "interfaceId",
          "type": "bytes4"
        }
      ],
      "name": "supportsInterface",
      "outputs": [
        {
          "internalType": "bool",
          "name": "",
          "type": "bool"
        }
      ],
      "stateMutability": "view",
      "type": "function"
    },
    {
      "inputs": [
        {
          "internalType": "address",
          "name": "",
          "type": "address"
        }
      ],
      "name": "vaultAddress_to_strategyAddress",
      "outputs": [
        {
          "internalType": "address",
          "name": "",
          "type": "address"
        }
      ],
      "stateMutability": "view",
      "type": "function"
    },
    {
      "inputs": [],
      "name": "vaultId",
      "outputs": [
        {
          "internalType": "uint256",
          "name": "_value",
          "type": "uint256"
        }
      ],
      "stateMutability": "view",
      "type": "function"
    },
    {
      "inputs": [
        {
          "internalType": "uint256",
          "name": "",
          "type": "uint256"
        }
      ],
      "name": "vaultId_to_isActive",
      "outputs": [
        {
          "internalType": "bool",
          "name": "",
          "type": "bool"
        }
      ],
      "stateMutability": "view",
      "type": "function"
    },
    {
      "inputs": [
        {
          "internalType": "uint256",
          "name": "",
          "type": "uint256"
        }
      ],
      "name": "vaultId_to_vaultAddress",
      "outputs": [
        {
          "internalType": "address",
          "name": "",
          "type": "address"
        }
      ],
      "stateMutability": "view",
      "type": "function"
    },
    {
      "inputs": [
        {
          "internalType": "uint256",
          "name": "",
          "type": "uint256"
        }
      ],
      "name": "vaultId_to_vaultDetails",
      "outputs": [
        {
          "internalType": "string",
          "name": "name",
          "type": "string"
        },
        {
          "internalType": "string",
          "name": "symbol",
          "type": "string"
        },
        {
          "internalType": "address",
          "name": "vaultAddress",
          "type": "address"
        },
        {
          "internalType": "address",
          "name": "strategyAddress",
          "type": "address"
        },
        {
          "internalType": "address",
          "name": "managerAddress",
          "type": "address"
        },
        {
          "internalType": "address",
          "name": "assetAddress",
          "type": "address"
        },
        {
          "internalType": "uint256",
          "name": "index",
          "type": "uint256"
        }
      ],
      "stateMutability": "view",
      "type": "function"
    }
  ],
  "bytecode": "0x60806040523480156200001157600080fd5b506040516200989c3803806200989c83398181016040528101906200003791906200045e565b6200006b7fe79bfc75b842a70817106b401cbae376e2430f48bb2aaa8a239f154c769a050660001b6200026a60201b60201c565b6200009f7f495a5e3b8b6cdc3a06a3209030483976adaa935ff47aa6c9c87288ed4f48ef1460001b6200026a60201b60201c565b620000d37fb94033f958f3142650336ebf854d5fb9e389ba970463e4025d6567ce8c7621f560001b6200026a60201b60201c565b80604051620000e290620003e6565b620000ee9190620004a1565b604051809103906000f0801580156200010b573d6000803e3d6000fd5b50600760006101000a81548173ffffffffffffffffffffffffffffffffffffffff021916908373ffffffffffffffffffffffffffffffffffffffff160217905550620001807fc398e899094c23a289cd43ec217edd921b425097dffee2cc184e8e7dfd55f0a560001b6200026a60201b60201c565b620001b47ff8235af2ee9918afaf7a539a39f6047a587bc28bd91ec7be20dea084de0f272260001b6200026a60201b60201c565b620001c96000801b336200026d60201b60201c565b620001fd7f72e22aa8e9b827b7099eb88bf8dab4c5158f28a82dfbafbe3fc5574e27cb326d60001b6200026a60201b60201c565b620002317f3915f427eef899245fe315978ffdd3e56095f24d99e044b3c0d4c6bafd7fb72360001b6200026a60201b60201c565b620002637fb15e2bb6de8e562b452dcfd0ca719f799c9919f6645dee389052d6326e77eb60336200026d60201b60201c565b50620004be565b50565b6200027f82826200028360201b60201c565b5050565b6200029582826200037460201b60201c565b6200037057600160008084815260200190815260200160002060000160008373ffffffffffffffffffffffffffffffffffffffff1673ffffffffffffffffffffffffffffffffffffffff16815260200190815260200160002060006101000a81548160ff02191690831515021790555062000315620003de60201b60201c565b73ffffffffffffffffffffffffffffffffffffffff168173ffffffffffffffffffffffffffffffffffffffff16837f2f8788117e7eff1d82e926ec794901d17c78024a50270940304540a733656f0d60405160405180910390a45b5050565b600080600084815260200190815260200160002060000160008373ffffffffffffffffffffffffffffffffffffffff1673ffffffffffffffffffffffffffffffffffffffff16815260200190815260200160002060009054906101000a900460ff16905092915050565b600033905090565b613328806200657483390190565b600080fd5b600073ffffffffffffffffffffffffffffffffffffffff82169050919050565b60006200042682620003f9565b9050919050565b620004388162000419565b81146200044457600080fd5b50565b60008151905062000458816200042d565b92915050565b600060208284031215620004775762000476620003f4565b5b6000620004878482850162000447565b91505092915050565b6200049b8162000419565b82525050565b6000602082019050620004b8600083018462000490565b92915050565b6160a680620004ce6000396000f3fe60806040523480156200001157600080fd5b5060043610620001475760003560e01c8063a217fddf11620000bd578063cb824373116200007b578063cb82437314620003ae578063ce38cb5c14620003d0578063d547741f1462000406578063d8c2c9ed1462000426578063e36965e114620004465762000147565b8063a217fddf14620002f2578063aa36082f1462000314578063aaf10f421462000334578063b258a6f51462000356578063b50a97be14620003785762000147565b80632d6b3a6b116200010b5780632d6b3a6b14620002385780632f2ff15d146200025a57806333194c0a146200027a57806336568abe146200029c57806391d1485414620002bc5762000147565b80621fe07d146200014c57806301ffc9a7146200016e5780630b7b6c2b14620001a4578063248a9ca314620001c6578063288b0ad814620001fc575b600080fd5b620001566200047c565b60405162000165919062002bd7565b60405180910390f35b6200018c600480360381019062000186919062002c6c565b62000e93565b6040516200019b919062002cbb565b60405180910390f35b620001ae62000f10565b604051620001bd919062002ce9565b60405180910390f35b620001e46004803603810190620001de919062002d41565b62000f1c565b604051620001f3919062002d84565b60405180910390f35b6200021a600480360381019062000214919062002dd2565b62000f3b565b6040516200022f979695949392919062002e67565b60405180910390f35b620002426200111d565b60405162000251919062002ef2565b60405180910390f35b62000278600480360381019062000272919062002f40565b620011d1565b005b62000284620011f8565b60405162000293919062002ce9565b60405180910390f35b620002ba6004803603810190620002b4919062002f40565b62001204565b005b620002da6004803603810190620002d4919062002f40565b6200128e565b604051620002e9919062002cbb565b60405180910390f35b620002fc620012f8565b6040516200030b919062002d84565b60405180910390f35b6200033260048036038101906200032c919062002fc5565b620012ff565b005b6200033e620017d5565b6040516200034d919062002ef2565b60405180910390f35b620003606200190a565b6040516200036f919062002d84565b60405180910390f35b62000396600480360381019062000390919062002ff7565b6200192e565b604051620003a5919062002ef2565b60405180910390f35b620003b862001961565b604051620003c7919062002d84565b60405180910390f35b620003ee6004803603810190620003e8919062002dd2565b62001985565b604051620003fd919062002ef2565b60405180910390f35b6200042460048036038101906200041e919062002f40565b620019b8565b005b6200044460048036038101906200043e91906200317a565b620019df565b005b6200046460048036038101906200045e919062002dd2565b62002260565b60405162000473919062002cbb565b60405180910390f35b6060620004ac7fba69e5e1253c2c2e6a7b6ec01e3f0e20317ec587a815c3944dcea9c254a9ddca60001b62002280565b620004da7f813891c66a7b7e82db3a95361fdc5c3d79a58b6fe21800f4f0ada6b8f08a0e0c60001b62002280565b620005087f980e8003dd01a517b9de83b3289460773332970a769252e6f4cde5e77f64c82f60001b62002280565b600062000516600162002283565b9050620005467f5cba81b333cfcc50e025ad8d3eeec6edb9669eedfcac186674d17f93c3a58a0960001b62002280565b620005747f61b30728120bb03270908658694db80d3a271672b0f1384d1c410cb11aa6e72260001b62002280565b600062000582600262002283565b6200058e600162002283565b6200059a919062003283565b9050620005ca7f4ecc70cf72ca056f776e22cccf905132ad85163412feb320e6f6f7f0d60cae0a60001b62002280565b620005f87f2392e6955b331a98f86085619b3024c4679c1d1fb55e634873d3296db782e51960001b62002280565b6000620006287fa207cedaaa789c83490cdcdb4c32e135fb180632dcc3c8cabfc50200224e491c60001b62002280565b620006567f25f56f5ee825c79205edd8feb5c588431f6da0526056dccff577c8d4832bafe360001b62002280565b60008267ffffffffffffffff81111562000675576200067462003033565b5b604051908082528060200260200182016040528015620006b257816020015b6200069e620027ff565b815260200190600190039081620006945790505b509050620006e37fad2b11a5028f2cdc976b97a80165578c93de7381a6556a7d3e5a54a6fd9ef7fb60001b62002280565b620007117fb781a543b20abfdd65438062225c478777dbe68ab00f34098d3271b51c32655060001b62002280565b6000841415620007b257620007497fc775e75511eadb29c42d8a62d09128d5a2ee1ebb7a163e45c1135eedda49711c60001b62002280565b620007777f6b49a76673bb955733d5495d2191b7dd773b56ee65c7c5447e04bcea49dc540560001b62002280565b620007a57fb34ba568149afdca75c69986ca24a418a63375f0be95ccd2f3aaa453869b967060001b62002280565b8094505050505062000e90565b620007e07f7849aaac079bd488728967b07b1161c2001ef8510fa72849ea7fb4cac53f5e3f60001b62002280565b6200080e7ffa7be99dbd0c91b118497f5dbfb1cc5572827d589bebb31715ceb0d8c197182660001b62002280565b6200083c7fc528267e88951204fbf29a1af681988b95adcf3827607b018d1a33d210bb1a6360001b62002280565b60005b8481101562000e2b57620008767f264e5e87adf14d12d7820e2564b294ad85a3c0246408fb5b9638d6382f8fbd5660001b62002280565b620008a47f92d313804d9e167d51805f5f3c0260215211645eac19833df60e95c5b22d320d60001b62002280565b600060066000600184620008b99190620032be565b815260200190815260200160002060009054906101000a900460ff169050620009057f46f6bb7d1e1ac84ec45851029b2ce0207a87288abb707b311a4751a60049fce460001b62002280565b620009337f7735404e40902db095f8ff3bf1f0b1a8f1609b6223ecdd768988dcbcb82c73c760001b62002280565b60011515811515141562000de5576200096f7f349560154193f8e5426ac7320a97f66066e8f4bf7fffe8fa28fde03140f49b8060001b62002280565b6200099d7f589a5ece4e95f6afe45dea2ce25caf7eac1a296bbc0139d1de23fd1c29cd7aa960001b62002280565b620009cb7f7ed7434f922e7f3cd326a03670f8ebead16cfdb056f909bc13b5e07f8bf733ac60001b62002280565b6000600183620009dc9190620032be565b905062000a0c7f038925c40ca4b25e6e1a85d2dd6ea7fdc2571c33e84e4ea16cd547ce3c33ca3560001b62002280565b62000a3a7f51dfc945ca95528d33789e32b9ef7f84c5dfe8b29eebab89657d88a3992f669b60001b62002280565b600060036000838152602001908152602001600020905062000a7f7fcf57feb1537e9407962afec33516edfb25b1c5147b72de10ce4669452b380a5d60001b62002280565b62000aad7f8984e12f4889a6b702e0660589b9e3f10c470668cbb388712a110ff172d2e59d60001b62002280565b806040518060e001604052908160008201805462000acb906200334a565b80601f016020809104026020016040519081016040528092919081815260200182805462000af9906200334a565b801562000b4a5780601f1062000b1e5761010080835404028352916020019162000b4a565b820191906000526020600020905b81548152906001019060200180831162000b2c57829003601f168201915b5050505050815260200160018201805462000b65906200334a565b80601f016020809104026020016040519081016040528092919081815260200182805462000b93906200334a565b801562000be45780601f1062000bb85761010080835404028352916020019162000be4565b820191906000526020600020905b81548152906001019060200180831162000bc657829003601f168201915b505050505081526020016002820160009054906101000a900473ffffffffffffffffffffffffffffffffffffffff1673ffffffffffffffffffffffffffffffffffffffff1673ffffffffffffffffffffffffffffffffffffffff1681526020016003820160009054906101000a900473ffffffffffffffffffffffffffffffffffffffff1673ffffffffffffffffffffffffffffffffffffffff1673ffffffffffffffffffffffffffffffffffffffff1681526020016004820160009054906101000a900473ffffffffffffffffffffffffffffffffffffffff1673ffffffffffffffffffffffffffffffffffffffff1673ffffffffffffffffffffffffffffffffffffffff1681526020016005820160009054906101000a900473ffffffffffffffffffffffffffffffffffffffff1673ffffffffffffffffffffffffffffffffffffffff1673ffffffffffffffffffffffffffffffffffffffff16815260200160068201548152505085878151811062000d655762000d6462003380565b5b602002602001018190525062000d9e7fa5d64f2e329296c6fd66846bb893f1687554538f0e9c397b7b1ef8a0e246f58260001b62002280565b62000dcc7f94dbbac865ff91214de1fb7acb6a771fcc274dc1dd32142324d63c6915b8610e60001b62002280565b60018662000ddb9190620032be565b9550505062000e14565b62000e137f0b95768058d13ee8b4553b5b8e41e6f05774d55f36c5e2d568e36d6ced5040c160001b62002280565b5b50808062000e2290620033af565b9150506200083f565b5062000e5a7fc9128d05e601c71b2bbb3fe1668e949c61b14140a6b31d7de53e08a8d554305f60001b62002280565b62000e887f04fd3181d4d6946542bc7ac23dd85b87af0fb0854100dd7437e73ac65f295cb160001b62002280565b809450505050505b90565b60007f7965db0b000000000000000000000000000000000000000000000000000000007bffffffffffffffffffffffffffffffffffffffffffffffffffffffff1916827bffffffffffffffffffffffffffffffffffffffffffffffffffffffff1916148062000f09575062000f088262002291565b5b9050919050565b60028060000154905081565b6000806000838152602001908152602001600020600101549050919050565b600360205280600052604060002060009150905080600001805462000f60906200334a565b80601f016020809104026020016040519081016040528092919081815260200182805462000f8e906200334a565b801562000fdf5780601f1062000fb35761010080835404028352916020019162000fdf565b820191906000526020600020905b81548152906001019060200180831162000fc157829003601f168201915b50505050509080600101805462000ff6906200334a565b80601f016020809104026020016040519081016040528092919081815260200182805462001024906200334a565b8015620010755780601f10620010495761010080835404028352916020019162001075565b820191906000526020600020905b8154815290600101906020018083116200105757829003601f168201915b5050505050908060020160009054906101000a900473ffffffffffffffffffffffffffffffffffffffff16908060030160009054906101000a900473ffffffffffffffffffffffffffffffffffffffff16908060040160009054906101000a900473ffffffffffffffffffffffffffffffffffffffff16908060050160009054906101000a900473ffffffffffffffffffffffffffffffffffffffff16908060060154905087565b60006200114d7fa51858c2f61f92192e660cb5312b7abe537d4b65ad5ce33b46eea02afae400dd60001b62002280565b6200117b7f3614ccf3ddb50272421ec230ebfebf85a65ce9a653272bb3abd1a7ae21bf438860001b62002280565b620011a97f7219892f5b0b4393166da56919e97a9cabbb7bc6c8fbfb4a07e93114603d863560001b62002280565b600760009054906101000a900473ffffffffffffffffffffffffffffffffffffffff16905090565b620011dc8262000f1c565b620011e781620022fb565b620011f3838362002313565b505050565b60018060000154905081565b6200120e620023f8565b73ffffffffffffffffffffffffffffffffffffffff168173ffffffffffffffffffffffffffffffffffffffff16146200127e576040517f08c379a0000000000000000000000000000000000000000000000000000000008152600401620012759062003473565b60405180910390fd5b6200128a828262002400565b5050565b600080600084815260200190815260200160002060000160008373ffffffffffffffffffffffffffffffffffffffff1673ffffffffffffffffffffffffffffffffffffffff16815260200190815260200160002060009054906101000a900460ff16905092915050565b6000801b81565b6200132d7f85454a7d8fcfcc11f15bf30194f8ae0d1449dd92863050cf25ca91c556bf6b9f60001b62002280565b6200135b7fd02dd8d2f2d22ea7bf2e62a6cc9ecfd4edd32ee616e0144dc15cf02413eb1e7f60001b62002280565b620013897fe3042f04e8210a2403417b3583d692104ec598dd0d1c12d6e4bc9ff55290bcc360001b62002280565b620013b77f6d8c63c7d43a77be8efc98175979ecbae1f276f8fb34a5fb9a9ea3b6c967510160001b62002280565b620013e37fb15e2bb6de8e562b452dcfd0ca719f799c9919f6645dee389052d6326e77eb60336200128e565b62001425576040517f08c379a00000000000000000000000000000000000000000000000000000000081526004016200141c906200350b565b60405180910390fd5b620014537fccd42769936ec5fac6187b15d4d856028f7128709c75ec3e193dbed753a917e060001b62002280565b620014817fdf9a6ba1553e7ebbd23c43d3f1375db8b4805d61f7997cf4108e58f2f0d967fc60001b62002280565b620014af7ff8459a8a9e713b6e86dad0fa4f2333a0382347e999ab55e01b978e05705a419660001b62002280565b6000620014bd600162002283565b9050620014ed7f64d9eabfc9745f65f987a1757beb29969352c89d2ce9afc044cfff7decabd70760001b62002280565b6200151b7f38c84b00bf1abbb5658ca6ee4d436cc9959fe137a0a8293da2b3fefb59fa5f1d60001b62002280565b620015497fb4a48fe79237a66f4052492a1a800a07b8e7bac224cc7893f335508b0f2dafa860001b62002280565b808260ff16111562001592576040517f08c379a00000000000000000000000000000000000000000000000000000000081526004016200158990620035a3565b60405180910390fd5b620015c07f62cb511b594f8801b2168c7b3e239643e6772f4ea7e190e46a5681303d24769c60001b62002280565b620015ee7f020a9edd4b8c2a1b2616ea9d01185c377e3b45e09f7114b22436cd6479d1884760001b62002280565b6200161c7f99dda7980ead1341caf82ba855dc3463d0748a7de2a5ccb126ccb4aaba67905e60001b62002280565b6200164a7f6bf22b0fd3b581e92a44eb149211835ecfc928eeadba9e8f9908489d57400e8e60001b62002280565b600660008360ff16815260200190815260200160002060009054906101000a900460ff16620016b0576040517f08c379a0000000000000000000000000000000000000000000000000000000008152600401620016a7906200363b565b60405180910390fd5b620016de7f57f609f91b7c76aa7460d06a1fd77b2831b646315f44b6a4212ad3914fcc5bf660001b62002280565b6200170c7f4e4ef03a727ab89a458a9f9d33b119fcfbf298a53be3c28180e3302855a966c960001b62002280565b6200173a7fe0f54037a0dd7acb92ae5a81b15a7e9bbae8f294f866d7fdac61da94edce5f8960001b62002280565b620017466002620024e6565b620017747f1388db61d77e031bbf1d8fd8e2f2c4a2ca6a9f80fd1fb73fa90c7ab272d7ecab60001b62002280565b620017a27faeb5349dec0ca3f2a19be860187bcb4b7ecd564d295dd96f6c0caddd228cdc6460001b62002280565b6000600660008460ff16815260200190815260200160002060006101000a81548160ff0219169083151502179055505050565b6000620018057fd42a2d315af3d7f00f011846146d1108111aa3a09ec3b3466926089fdbc24cdd60001b62002280565b620018337fd79b11cb22b7c63ba6cb61d2a5c0ebca93963122a6ff2372a7a2c61ea91043c960001b62002280565b620018617f14dc6e0d1b1b59d0e93a28ae15f179dd2e001c0755a82f5e147e16e37a8ad16c60001b62002280565b600760009054906101000a900473ffffffffffffffffffffffffffffffffffffffff1673ffffffffffffffffffffffffffffffffffffffff16635c60da1b6040518163ffffffff1660e01b815260040160206040518083038186803b158015620018ca57600080fd5b505afa158015620018df573d6000803e3d6000fd5b505050506040513d601f19601f8201168201806040525081019062001905919062003674565b905090565b7f7c3948777991e30efc945b298d109fc7a0c0de63dd562adfea7f970336f317b081565b60046020528060005260406000206000915054906101000a900473ffffffffffffffffffffffffffffffffffffffff1681565b7fb15e2bb6de8e562b452dcfd0ca719f799c9919f6645dee389052d6326e77eb6081565b60056020528060005260406000206000915054906101000a900473ffffffffffffffffffffffffffffffffffffffff1681565b620019c38262000f1c565b620019ce81620022fb565b620019da838362002400565b505050565b62001a0d7f5fd0d503720d7aa52cf853386315df0171d8b80a9ca1a8bcc95e081e15b805af60001b62002280565b62001a3b7ff2e95cb5fa86abba3e563fc80982bfa5aaf88b588b157c8b861b1fc734cfb51660001b62002280565b62001a697fad884123ed1f645bf1bb57cba849bd05cbeefcf8cc502af54c3818986a79fec760001b62002280565b62001a756001620024e6565b62001aa37f2cace25d694f92e89f477c5bfd19608436315152827a4d3c12556234fd793b0a60001b62002280565b62001ad17ffc03727e5f1acb0e2f2ccc913a5ca0297c83dc05c43336dd114d1864fa0215ef60001b62002280565b600062001adf600162002283565b905062001b0f7f817ff78eb78b235808e8da5dbdaf7faa5deccec7cbcbb36482fd5a9baf6d2e7e60001b62002280565b62001b3d7f5d5c1fb11f425484c234312b1e96faadfbcb147a7843f2e28e81edd350b931ee60001b62002280565b6000600760009054906101000a900473ffffffffffffffffffffffffffffffffffffffff16639309971c60e01b85878b8b8860405160240162001b85959493929190620036b7565b604051602081830303815290604052907bffffffffffffffffffffffffffffffffffffffffffffffffffffffff19166020820180517bffffffffffffffffffffffffffffffffffffffffffffffffffffffff838183161783525050505060405162001bf09062002894565b62001bfd9291906200377f565b604051809103906000f08015801562001c1a573d6000803e3d6000fd5b50905062001c4b7f9335e5cf00d9ced42fc42ada11106b460e6cb214c42db80c529fde5126f3d82d60001b62002280565b62001c797f8cc4d54c5fade7d8ec3f351be315452cbbcd13150719e44da277336e7e44f03360001b62002280565b6040518060e001604052808981526020018881526020018273ffffffffffffffffffffffffffffffffffffffff1681526020018773ffffffffffffffffffffffffffffffffffffffff1681526020018673ffffffffffffffffffffffffffffffffffffffff1681526020018573ffffffffffffffffffffffffffffffffffffffff168152602001838152505062001d337f6a9a103b3b0c92624bc58add8f25686e2ea1d70c38b9fa12502ce4098e197a5c60001b62002280565b62001d617f764c7ae071dd14197b73454e245c015d5aece7350a3195423d4c1a7272924f7e60001b62002280565b806005600084815260200190815260200160002060006101000a81548173ffffffffffffffffffffffffffffffffffffffff021916908373ffffffffffffffffffffffffffffffffffffffff16021790555062001de17fa637e21238cfc67365b973ac0f2f00c86252afb72258faf76be51844c9b7047460001b62002280565b62001e0f7fbc6e5c8b8ea6d3ec8cff1d2a2b8954fd7be02bb1f7978c389e206f4b5e02351e60001b62002280565b85600460008373ffffffffffffffffffffffffffffffffffffffff1673ffffffffffffffffffffffffffffffffffffffff16815260200190815260200160002060006101000a81548173ffffffffffffffffffffffffffffffffffffffff021916908373ffffffffffffffffffffffffffffffffffffffff16021790555062001ebb7f47c6165bdf324c5a80b668b306545fc5a8ee4f051b215c664c27685e9fe69f4760001b62002280565b62001ee97f2b36cca4edd7a9a44fc4307bc55330ae2415de595666a0d06840c65d9fe35e9560001b62002280565b60016006600084815260200190815260200160002060006101000a81548160ff02191690831515021790555062001f437f5a2aa5aaf59f0151862b2d1099dbcbf87af0e067002930b41653a113f4859e9060001b62002280565b62001f717fb0dcb3c8206d3a08cfdf58c17be56d126fd7ac2180a0087ded0d3ba03d84fd4b60001b62002280565b6040518060e001604052808981526020018881526020018273ffffffffffffffffffffffffffffffffffffffff1681526020018773ffffffffffffffffffffffffffffffffffffffff1681526020018673ffffffffffffffffffffffffffffffffffffffff1681526020018573ffffffffffffffffffffffffffffffffffffffff168152602001838152506003600084815260200190815260200160002060008201518160000190805190602001906200202d929190620028a2565b5060208201518160010190805190602001906200204c929190620028a2565b5060408201518160020160006101000a81548173ffffffffffffffffffffffffffffffffffffffff021916908373ffffffffffffffffffffffffffffffffffffffff16021790555060608201518160030160006101000a81548173ffffffffffffffffffffffffffffffffffffffff021916908373ffffffffffffffffffffffffffffffffffffffff16021790555060808201518160040160006101000a81548173ffffffffffffffffffffffffffffffffffffffff021916908373ffffffffffffffffffffffffffffffffffffffff16021790555060a08201518160050160006101000a81548173ffffffffffffffffffffffffffffffffffffffff021916908373ffffffffffffffffffffffffffffffffffffffff16021790555060c08201518160060155905050620021a47fdafef22a868389fcefa3583c8a76306ba3bbd62a1dc8f3879c72782575c99fa660001b62002280565b620021d27f541fe18cfa418a9f22838f636b1d809314394829ebdb3149ef10b50fae2b51db60001b62002280565b8073ffffffffffffffffffffffffffffffffffffffff1687604051620021f99190620037f5565b604051809103902089604051620022119190620037f5565b60405180910390207f7d3da5b1a4bf291efd521b7c555d224c68ad309d115cbedfd93eccf9d47907088989876040516200224e939291906200380e565b60405180910390a45050505050505050565b60066020528060005260406000206000915054906101000a900460ff1681565b50565b600081600001549050919050565b60007f01ffc9a7000000000000000000000000000000000000000000000000000000007bffffffffffffffffffffffffffffffffffffffffffffffffffffffff1916827bffffffffffffffffffffffffffffffffffffffffffffffffffffffff1916149050919050565b62002310816200230a620023f8565b620024fc565b50565b6200231f82826200128e565b620023f457600160008084815260200190815260200160002060000160008373ffffffffffffffffffffffffffffffffffffffff1673ffffffffffffffffffffffffffffffffffffffff16815260200190815260200160002060006101000a81548160ff02191690831515021790555062002399620023f8565b73ffffffffffffffffffffffffffffffffffffffff168173ffffffffffffffffffffffffffffffffffffffff16837f2f8788117e7eff1d82e926ec794901d17c78024a50270940304540a733656f0d60405160405180910390a45b5050565b600033905090565b6200240c82826200128e565b15620024e257600080600084815260200190815260200160002060000160008373ffffffffffffffffffffffffffffffffffffffff1673ffffffffffffffffffffffffffffffffffffffff16815260200190815260200160002060006101000a81548160ff02191690831515021790555062002487620023f8565b73ffffffffffffffffffffffffffffffffffffffff168173ffffffffffffffffffffffffffffffffffffffff16837ff6391f5c32d9c69d2a47ea670b442974b53935d1edc7fd64eb21e047a839171b60405160405180910390a45b5050565b6001816000016000828254019250508190555050565b6200250882826200128e565b620025a057620025308173ffffffffffffffffffffffffffffffffffffffff166014620025a4565b620025408360001c6020620025a4565b60405160200162002553929190620038eb565b6040516020818303038152906040526040517f08c379a00000000000000000000000000000000000000000000000000000000081526004016200259791906200392d565b60405180910390fd5b5050565b606060006002836002620025b9919062003951565b620025c59190620032be565b67ffffffffffffffff811115620025e157620025e062003033565b5b6040519080825280601f01601f191660200182016040528015620026145781602001600182028036833780820191505090505b5090507f3000000000000000000000000000000000000000000000000000000000000000816000815181106200264f576200264e62003380565b5b60200101907effffffffffffffffffffffffffffffffffffffffffffffffffffffffffffff1916908160001a9053507f780000000000000000000000000000000000000000000000000000000000000081600181518110620026b657620026b562003380565b5b60200101907effffffffffffffffffffffffffffffffffffffffffffffffffffffffffffff1916908160001a90535060006001846002620026f8919062003951565b620027049190620032be565b90505b6001811115620027ae577f3031323334353637383961626364656600000000000000000000000000000000600f8616601081106200274a576200274962003380565b5b1a60f81b82828151811062002764576200276362003380565b5b60200101907effffffffffffffffffffffffffffffffffffffffffffffffffffffffffffff1916908160001a905350600485901c945080620027a690620039b2565b905062002707565b5060008414620027f5576040517f08c379a0000000000000000000000000000000000000000000000000000000008152600401620027ec9062003a31565b60405180910390fd5b8091505092915050565b6040518060e001604052806060815260200160608152602001600073ffffffffffffffffffffffffffffffffffffffff168152602001600073ffffffffffffffffffffffffffffffffffffffff168152602001600073ffffffffffffffffffffffffffffffffffffffff168152602001600073ffffffffffffffffffffffffffffffffffffffff168152602001600081525090565b61261d8062003a5483390190565b828054620028b0906200334a565b90600052602060002090601f016020900481019282620028d4576000855562002920565b82601f10620028ef57805160ff191683800117855562002920565b8280016001018555821562002920579182015b828111156200291f57825182559160200191906001019062002902565b5b5090506200292f919062002933565b5090565b5b808211156200294e57600081600090555060010162002934565b5090565b600081519050919050565b600082825260208201905092915050565b6000819050602082019050919050565b600081519050919050565b600082825260208201905092915050565b60005b83811015620029ba5780820151818401526020810190506200299d565b83811115620029ca576000848401525b50505050565b6000601f19601f8301169050919050565b6000620029ee826200297e565b620029fa818562002989565b935062002a0c8185602086016200299a565b62002a1781620029d0565b840191505092915050565b600073ffffffffffffffffffffffffffffffffffffffff82169050919050565b600062002a4f8262002a22565b9050919050565b62002a618162002a42565b82525050565b6000819050919050565b62002a7c8162002a67565b82525050565b600060e083016000830151848203600086015262002aa18282620029e1565b9150506020830151848203602086015262002abd8282620029e1565b915050604083015162002ad4604086018262002a56565b50606083015162002ae9606086018262002a56565b50608083015162002afe608086018262002a56565b5060a083015162002b1360a086018262002a56565b5060c083015162002b2860c086018262002a71565b508091505092915050565b600062002b41838362002a82565b905092915050565b6000602082019050919050565b600062002b638262002952565b62002b6f81856200295d565b93508360208202850162002b83856200296e565b8060005b8581101562002bc5578484038952815162002ba3858262002b33565b945062002bb08362002b49565b925060208a0199505060018101905062002b87565b50829750879550505050505092915050565b6000602082019050818103600083015262002bf3818462002b56565b905092915050565b6000604051905090565b600080fd5b600080fd5b60007fffffffff0000000000000000000000000000000000000000000000000000000082169050919050565b62002c468162002c0f565b811462002c5257600080fd5b50565b60008135905062002c668162002c3b565b92915050565b60006020828403121562002c855762002c8462002c05565b5b600062002c958482850162002c55565b91505092915050565b60008115159050919050565b62002cb58162002c9e565b82525050565b600060208201905062002cd2600083018462002caa565b92915050565b62002ce38162002a67565b82525050565b600060208201905062002d00600083018462002cd8565b92915050565b6000819050919050565b62002d1b8162002d06565b811462002d2757600080fd5b50565b60008135905062002d3b8162002d10565b92915050565b60006020828403121562002d5a5762002d5962002c05565b5b600062002d6a8482850162002d2a565b91505092915050565b62002d7e8162002d06565b82525050565b600060208201905062002d9b600083018462002d73565b92915050565b62002dac8162002a67565b811462002db857600080fd5b50565b60008135905062002dcc8162002da1565b92915050565b60006020828403121562002deb5762002dea62002c05565b5b600062002dfb8482850162002dbb565b91505092915050565b600082825260208201905092915050565b600062002e22826200297e565b62002e2e818562002e04565b935062002e408185602086016200299a565b62002e4b81620029d0565b840191505092915050565b62002e618162002a42565b82525050565b600060e082019050818103600083015262002e83818a62002e15565b9050818103602083015262002e99818962002e15565b905062002eaa604083018862002e56565b62002eb9606083018762002e56565b62002ec8608083018662002e56565b62002ed760a083018562002e56565b62002ee660c083018462002cd8565b98975050505050505050565b600060208201905062002f09600083018462002e56565b92915050565b62002f1a8162002a42565b811462002f2657600080fd5b50565b60008135905062002f3a8162002f0f565b92915050565b6000806040838503121562002f5a5762002f5962002c05565b5b600062002f6a8582860162002d2a565b925050602062002f7d8582860162002f29565b9150509250929050565b600060ff82169050919050565b62002f9f8162002f87565b811462002fab57600080fd5b50565b60008135905062002fbf8162002f94565b92915050565b60006020828403121562002fde5762002fdd62002c05565b5b600062002fee8482850162002fae565b91505092915050565b60006020828403121562003010576200300f62002c05565b5b6000620030208482850162002f29565b91505092915050565b600080fd5b600080fd5b7f4e487b7100000000000000000000000000000000000000000000000000000000600052604160045260246000fd5b6200306d82620029d0565b810181811067ffffffffffffffff821117156200308f576200308e62003033565b5b80604052505050565b6000620030a462002bfb565b9050620030b2828262003062565b919050565b600067ffffffffffffffff821115620030d557620030d462003033565b5b620030e082620029d0565b9050602081019050919050565b82818337600083830152505050565b6000620031136200310d84620030b7565b62003098565b9050828152602081018484840111156200313257620031316200302e565b5b6200313f848285620030ed565b509392505050565b600082601f8301126200315f576200315e62003029565b5b813562003171848260208601620030fc565b91505092915050565b60008060008060008060c087890312156200319a576200319962002c05565b5b600087013567ffffffffffffffff811115620031bb57620031ba62002c0a565b5b620031c989828a0162003147565b965050602087013567ffffffffffffffff811115620031ed57620031ec62002c0a565b5b620031fb89828a0162003147565b95505060406200320e89828a0162002f29565b94505060606200322189828a0162002f29565b93505060806200323489828a0162002f29565b92505060a06200324789828a0162002fae565b9150509295509295509295565b7f4e487b7100000000000000000000000000000000000000000000000000000000600052601160045260246000fd5b6000620032908262002a67565b91506200329d8362002a67565b925082821015620032b357620032b262003254565b5b828203905092915050565b6000620032cb8262002a67565b9150620032d88362002a67565b9250827fffffffffffffffffffffffffffffffffffffffffffffffffffffffffffffffff0382111562003310576200330f62003254565b5b828201905092915050565b7f4e487b7100000000000000000000000000000000000000000000000000000000600052602260045260246000fd5b600060028204905060018216806200336357607f821691505b602082108114156200337a57620033796200331b565b5b50919050565b7f4e487b7100000000000000000000000000000000000000000000000000000000600052603260045260246000fd5b6000620033bc8262002a67565b91507fffffffffffffffffffffffffffffffffffffffffffffffffffffffffffffffff821415620033f257620033f162003254565b5b600182019050919050565b7f416363657373436f6e74726f6c3a2063616e206f6e6c792072656e6f756e636560008201527f20726f6c657320666f722073656c660000000000000000000000000000000000602082015250565b60006200345b602f8362002e04565b91506200346882620033fd565b604082019050919050565b600060208201905081810360008301526200348e816200344c565b9050919050565b7f5661756c74466163746f72793a206d7573742068617665207661756c7420616460008201527f6d696e20726f6c6520746f2072656d6f7665207661756c740000000000000000602082015250565b6000620034f360388362002e04565b9150620035008262003495565b604082019050919050565b600060208201905081810360008301526200352681620034e4565b9050919050565b7f5661756c74466163746f72793a20696e646578206d757374206265206c65737360008201527f207468616e207661756c7420636f756e74000000000000000000000000000000602082015250565b60006200358b60318362002e04565b915062003598826200352d565b604082019050919050565b60006020820190508181036000830152620035be816200357c565b9050919050565b7f5661756c74466163746f72793a207661756c7420616c72656164792072656d6f60008201527f7665640000000000000000000000000000000000000000000000000000000000602082015250565b60006200362360238362002e04565b91506200363082620035c5565b604082019050919050565b60006020820190508181036000830152620036568162003614565b9050919050565b6000815190506200366e8162002f0f565b92915050565b6000602082840312156200368d576200368c62002c05565b5b60006200369d848285016200365d565b91505092915050565b620036b18162002f87565b82525050565b600060a082019050620036ce600083018862002e56565b620036dd602083018762002e56565b8181036040830152620036f1818662002e15565b9050818103606083015262003707818562002e15565b9050620037186080830184620036a6565b9695505050505050565b600081519050919050565b600082825260208201905092915050565b60006200374b8262003722565b6200375781856200372d565b9350620037698185602086016200299a565b6200377481620029d0565b840191505092915050565b600060408201905062003796600083018562002e56565b8181036020830152620037aa81846200373e565b90509392505050565b600081905092915050565b6000620037cb826200297e565b620037d78185620037b3565b9350620037e98185602086016200299a565b80840191505092915050565b6000620038038284620037be565b915081905092915050565b600060608201905062003825600083018662002e56565b62003834602083018562002e56565b62003843604083018462002cd8565b949350505050565b7f416363657373436f6e74726f6c3a206163636f756e7420000000000000000000600082015250565b600062003883601783620037b3565b915062003890826200384b565b601782019050919050565b7f206973206d697373696e6720726f6c6520000000000000000000000000000000600082015250565b6000620038d3601183620037b3565b9150620038e0826200389b565b601182019050919050565b6000620038f88262003874565b9150620039068285620037be565b91506200391382620038c4565b9150620039218284620037be565b91508190509392505050565b6000602082019050818103600083015262003949818462002e15565b905092915050565b60006200395e8262002a67565b91506200396b8362002a67565b9250817fffffffffffffffffffffffffffffffffffffffffffffffffffffffffffffffff0483118215151615620039a757620039a662003254565b5b828202905092915050565b6000620039bf8262002a67565b91506000821415620039d657620039d562003254565b5b600182039050919050565b7f537472696e67733a20686578206c656e67746820696e73756666696369656e74600082015250565b600062003a1960208362002e04565b915062003a2682620039e1565b602082019050919050565b6000602082019050818103600083015262003a4c8162003a0a565b905091905056fe60806040526040516200261d3803806200261d8339818101604052810190620000299190620013b6565b6200005d7f0d4f85644a023c9760c488e155d9b3fc5d813d39de1fe5a8cfea420834f9e4f760001b620000e160201b60201c565b620000917f0ea2a33204f54687d1e93762792cc2bc5e3ce5f6a28c7ddcff0a97b9a3389f6c60001b620000e160201b60201c565b620000c57fe1ac926bdcc135210523bf01d538907b91ca996972e06b59b5f0e82803211e5760001b620000e160201b60201c565b620000d982826000620000e460201b60201c565b5050620016d7565b50565b620001187fef94b5efac3c79407755cf26c76d0ca1467393f7d6f121d0677d5e7d5540d2ac60001b6200042d60201b60201c565b6200014c7f38e8e0459779aa3ca8384783d7025654a4133dca9b61aa859ebdd0f393d5d12260001b6200042d60201b60201c565b620001807fd2f140840d5e828a760f1b433a89d75541d328c5324b895544cafabd573b0ccf60001b6200042d60201b60201c565b62000191836200043060201b60201c565b620001c57f6fb0017a51f73ec3b20d97acb11b820c23e6180bd2566da15f85998197aa59d060001b6200042d60201b60201c565b620001f97fd9144f4a0645b0ee7c15031968446df1252a7ec70038f6bab4d04fcf98600fd960001b6200042d60201b60201c565b8273ffffffffffffffffffffffffffffffffffffffff167f1cf3b03a6cf19fa2baba4df148e9dcabedea7f8a5c07840e207e5c089be95d3e60405160405180910390a2620002707f48fcf2ebacb5db7ae00e37c9e3ad65a59fd720cca442cb1ca77c18a50c89db1a60001b6200042d60201b60201c565b620002a47f6b5aa5870a1e6b1a09f4d53e078cacdbafa99a11381cf9f38cd998f7112d356b60001b6200042d60201b60201c565b600082511180620002b25750805b15620003f357620002ec7fccce3d5e92ec2ad08772310418c7941b840c9a4721f1c8ea561585b64d9ca05360001b6200042d60201b60201c565b620003207f201582ef213686e718e5d25977619928718bb5106dbd89962858ac1828612cb760001b6200042d60201b60201c565b620003547f6a1ca67cdaa76d9752057557ff1993864019a435511e6d2c47608530da414a0e60001b6200042d60201b60201c565b620003ec8373ffffffffffffffffffffffffffffffffffffffff16635c60da1b6040518163ffffffff1660e01b815260040160206040518083038186803b1580156200039f57600080fd5b505afa158015620003b4573d6000803e3d6000fd5b505050506040513d601f19601f82011682018060405250810190620003da91906200141c565b836200081b60201b620001c61760201c565b5062000428565b620004277fa5b680409c72ca5aed729974268b0204a8b21cd3448d19cdc8413bbf9977484360001b6200042d60201b60201c565b5b505050565b50565b620004647f2044b5d4d52accf01eebb2231eee9acc36f68c7d41f003f435b6c05d99282d4960001b6200042d60201b60201c565b620004987f236f58590a4778988f057ec2f8d30d254192a922042a37c7eb5a590bf145e69e60001b6200042d60201b60201c565b620004cc7fccfdae53c9ee7776902e444235ccac121af06d87f4f2b3a2bb9486b0ab036e6260001b6200042d60201b60201c565b620005007f43fb82891c60b975d7b6ee775747c11821f3b95e8755441c64b3ffe7dbdd899660001b6200042d60201b60201c565b6200051681620008ed60201b620002771760201c565b62000558576040517f08c379a00000000000000000000000000000000000000000000000000000000081526004016200054f90620014d5565b60405180910390fd5b6200058c7fbc602ab8c4ea4be2beaba0dc4d80b882952d63cf7ab937bd090df9986f30c54d60001b6200042d60201b60201c565b620005c07fd786e63f9b2d5012d3533619480beeda766d3f65923eaf3fc17d6fa975e8e60b60001b6200042d60201b60201c565b620005f47f5bae07e74dbd329109be1fd67a9947a2e710e1b2f888db2b086e99f26608662960001b6200042d60201b60201c565b620006287ff8d3bee0bafbf49f4b74c118956d594f90d5099dfdb0ea9cfbdc54d1b45effe560001b6200042d60201b60201c565b620006bf8173ffffffffffffffffffffffffffffffffffffffff16635c60da1b6040518163ffffffff1660e01b815260040160206040518083038186803b1580156200067357600080fd5b505afa15801562000688573d6000803e3d6000fd5b505050506040513d601f19601f82011682018060405250810190620006ae91906200141c565b620008ed60201b620002771760201c565b62000701576040517f08c379a0000000000000000000000000000000000000000000000000000000008152600401620006f8906200156d565b60405180910390fd5b620007357f8ce751e2de52fca2222c96a59517ffe52046d682c1b762b47ca22964c6dcd95060001b6200042d60201b60201c565b620007697f1dc3b0f10ca41b4254704dbfbf876c90ae718c88ee48f64e1b86f2335c5d0ad460001b6200042d60201b60201c565b6200079d7fc5a25f7fc1b6aa156c86f4f30aa10f6be9a1ac4f4ea07f13e914823234d771e560001b6200042d60201b60201c565b80620007d77fa3f0ad74e5423aebfd80d3ef4346578335a9a72aeaee59ff6cb3582b35133d5060001b620009ad60201b6200031f1760201c565b60000160006101000a81548173ffffffffffffffffffffffffffffffffffffffff021916908373ffffffffffffffffffffffffffffffffffffffff16021790555050565b6060620008517f6dd5d110f974d4f2ef79799644d809eb1853b4f504cd0b8f9e5cecaf3f2720de60001b62000a1f60201b60201c565b620008857ff575f28da36a50cb0eff9e2f64b9a3caa2ee76a8a6685aeda4ea1ddd876df17860001b62000a1f60201b60201c565b620008b97f1e8380a5c00f7f25ca3f9c0c94b34ffa4b223bba5c6ac8ba7e43edd77c2387e560001b62000a1f60201b60201c565b620008e58383604051806060016040528060278152602001620025f66027913962000a2260201b60201c565b905092915050565b6000620009237f7b2621245b02878c2d20f75cf0f9364d541ebf0b591954cc7842f75aefb4604560001b62000a1f60201b60201c565b620009577fff7ccd0f10dd2c1fbf0df485f26275d5462575765bee56088dcb0afac38ba9db60001b62000a1f60201b60201c565b6200098b7f57ca8476c3acbd433fca96575cea08f5da3cda5032c2042f6487d5b4ad0e1c5960001b62000a1f60201b60201c565b60008273ffffffffffffffffffffffffffffffffffffffff163b119050919050565b6000620009e37fc643b7f093a4c498b11d43216cbe9fdbf7d770592a95dc956e4d36519af0485260001b62000bb860201b60201c565b62000a177fc21091ff2dcb827b48594e387e5d4b4dae5dd18a99ab3c836b45c8e08adea3a360001b62000bb860201b60201c565b819050919050565b50565b606062000a587fdd96bff238e48a248c1b41f2ec848a6b57a1cbe549f8c7fd43b9bf17f67cc1dd60001b62000a1f60201b60201c565b62000a8c7fc2c432386e78090d5865decdfe729fdf20e639e99c3e7bdb28e63d16f68be91660001b62000a1f60201b60201c565b62000ac07fc18adba41f6ba9debccb4aa6c74b105d9b31ce9a90be2e283b5db8044058b77b60001b62000a1f60201b60201c565b6000808573ffffffffffffffffffffffffffffffffffffffff168560405162000aea9190620015dc565b600060405180830381855af49150503d806000811462000b27576040519150601f19603f3d011682016040523d82523d6000602084013e62000b2c565b606091505b509150915062000b657f432c169672a67aa8b6ff2d925dc06ea7cc4e211a79b4eefa99a95ce2f43118cb60001b62000a1f60201b60201c565b62000b997fb12626ac7625338c0624baaf8edfa73c875c8c93e200e4618271a3a0d622395a60001b62000a1f60201b60201c565b62000bad8683838762000bbb60201b60201c565b925050509392505050565b50565b606062000bf17f27d4ffc88e3c245aa88714d483606e2d16430fd319a6147a99fbd815deebcdbb60001b62000a1f60201b60201c565b62000c257f10e5e940cc539079e7af353786f0d03bc7d886a5643102bdceb3acab6807e79060001b62000a1f60201b60201c565b62000c597f9e0068bc2ec9e9b04122ce722c32087649e9304be53bd127004d749360c88e9460001b62000a1f60201b60201c565b831562000f0a5762000c947f582be28c98b10d0bfe56bf07b23fd7702f2dd24653c5e48b6d82ae863d46e81c60001b62000a1f60201b60201c565b62000cc87fa24c8358dedfc36e030adff46442c22aa21caf577c28aed9a8ca6637d328ad8760001b62000a1f60201b60201c565b62000cfc7ff3ef7e5ccc466591c23af629a7595f90a4981843a70a2c54b6f234cd7e4017fc60001b62000a1f60201b60201c565b60008351141562000e645762000d3b7fecd21c1a9c6edffb8858606baa9c8826ba33bb61f2afc4625dcd644f3a7e571060001b62000a1f60201b60201c565b62000d6f7f6064069e7a0359c6b796897096be8d6b3cccf3c5529ffe59091add77e641a12e60001b62000a1f60201b60201c565b62000da37fe1107fa4e484803c8094f76b52a1a1a644cac64ed4bc77f8159e6415d56c072660001b62000a1f60201b60201c565b62000dd77f5ab15c83458e987af27543918bd20f77fa136eb2cf59223ddf6f79ba8f0d6a6a60001b62000a1f60201b60201c565b62000de885620008ed60201b60201c565b62000e2a576040517f08c379a000000000000000000000000000000000000000000000000000000000815260040162000e219062001645565b60405180910390fd5b62000e5e7ff81331d238105f2d519fab0b70318c84ea5f2323b057bcee8bc328be585782d160001b62000a1f60201b60201c565b62000e99565b62000e987f3af7387c2b8dad07a3f1d0593a8cfdcb42ae22e8eeceeacf897a469f0b05f6fe60001b62000a1f60201b60201c565b5b62000ecd7f0d63445fffc2075f15088ce942184dcb864507ebeb1f7974ab300d14d4490c4060001b62000a1f60201b60201c565b62000f017f0529460b78cacb96d00f2d9775d12e7c5f58ea50fc11dbd50b02b68cd0320f3160001b62000a1f60201b60201c565b82905062000fb9565b62000f3e7fca481589b5abfd73cbb8c067de47d0028cbffe990e2d89b4991b30aa9c7fc77860001b62000a1f60201b60201c565b62000f727f761e70eb1eb0af6b91d0c475e978285586b98a8e744f14f53cd6021bafe38a1660001b62000a1f60201b60201c565b62000fa67f46ab1a537dbc8309675e2d57ffaa23ca08cda1a40ee2f7eb8fdb9f7dc8f9a1e260001b62000a1f60201b60201c565b62000fb8838362000fc160201b60201c565b5b949350505050565b62000ff57f80368db674415b9b36ff35b930eab81e1f631a4fa7816ee699a096a352d6c8f960001b62000a1f60201b60201c565b620010297fc9330ca77286c9bd90c5fec9d9cd336d16122e7baf63166dae7f55d3727c963a60001b62000a1f60201b60201c565b6200105d7f0475f533d7f815ef6fb5621ae91e76f8f9c35e429cd3d14737f9306f946cd86460001b62000a1f60201b60201c565b600082511115620010d9576200109c7f59b0b9798bf170663beea503148a5329f3a4ef440534cadc1ebd8f9b2e3995bf60001b62000a1f60201b60201c565b620010d07fc20fed80ecfeb054383282a7fa47bc478615b96cb7dfc769fde54587c34811bc60001b62000a1f60201b60201c565b81518083602001fd5b6200110d7fc682b341bff9eca6d67130bfba2b37fe1722e8802a72434389b9bea1e7ff7b5160001b62000a1f60201b60201c565b620011417f9cf0c65f0ea103a0a5a777c4adad02dc53024368c92f9d799517f1c34e069b9060001b62000a1f60201b60201c565b620011757f13614e40e1bdbae8e6588d2ee08ac34cc61b733d71db93951cb92ebcfb69188160001b62000a1f60201b60201c565b806040517f08c379a0000000000000000000000000000000000000000000000000000000008152600401620011ab9190620016b3565b60405180910390fd5b6000604051905090565b600080fd5b600080fd5b600073ffffffffffffffffffffffffffffffffffffffff82169050919050565b6000620011f582620011c8565b9050919050565b6200120781620011e8565b81146200121357600080fd5b50565b6000815190506200122781620011fc565b92915050565b600080fd5b600080fd5b6000601f19601f8301169050919050565b7f4e487b7100000000000000000000000000000000000000000000000000000000600052604160045260246000fd5b620012828262001237565b810181811067ffffffffffffffff82111715620012a457620012a362001248565b5b80604052505050565b6000620012b9620011b4565b9050620012c7828262001277565b919050565b600067ffffffffffffffff821115620012ea57620012e962001248565b5b620012f58262001237565b9050602081019050919050565b60005b838110156200132257808201518184015260208101905062001305565b8381111562001332576000848401525b50505050565b60006200134f6200134984620012cc565b620012ad565b9050828152602081018484840111156200136e576200136d62001232565b5b6200137b84828562001302565b509392505050565b600082601f8301126200139b576200139a6200122d565b5b8151620013ad84826020860162001338565b91505092915050565b60008060408385031215620013d057620013cf620011be565b5b6000620013e08582860162001216565b925050602083015167ffffffffffffffff811115620014045762001403620011c3565b5b620014128582860162001383565b9150509250929050565b600060208284031215620014355762001434620011be565b5b6000620014458482850162001216565b91505092915050565b600082825260208201905092915050565b7f455243313936373a206e657720626561636f6e206973206e6f74206120636f6e60008201527f7472616374000000000000000000000000000000000000000000000000000000602082015250565b6000620014bd6025836200144e565b9150620014ca826200145f565b604082019050919050565b60006020820190508181036000830152620014f081620014ae565b9050919050565b7f455243313936373a20626561636f6e20696d706c656d656e746174696f6e206960008201527f73206e6f74206120636f6e747261637400000000000000000000000000000000602082015250565b6000620015556030836200144e565b91506200156282620014f7565b604082019050919050565b60006020820190508181036000830152620015888162001546565b9050919050565b600081519050919050565b600081905092915050565b6000620015b2826200158f565b620015be81856200159a565b9350620015d081856020860162001302565b80840191505092915050565b6000620015ea8284620015a5565b915081905092915050565b7f416464726573733a2063616c6c20746f206e6f6e2d636f6e7472616374000000600082015250565b60006200162d601d836200144e565b91506200163a82620015f5565b602082019050919050565b6000602082019050818103600083015262001660816200161e565b9050919050565b600081519050919050565b60006200167f8262001667565b6200168b81856200144e565b93506200169d81856020860162001302565b620016a88162001237565b840191505092915050565b60006020820190508181036000830152620016cf818462001672565b905092915050565b610f0f80620016e76000396000f3fe60806040523661003f576100357fb239b9e6339ef77fcecd7ad9a3a3da730d4ab5ea3651df85a0d821da09b82d1160001b6100cd565b61003d6100d0565b005b61006b7f866b40baa522dc5c71de6332cfaae2fa211fc1d33fdbad9ec4bee4f6b6bcc07660001b6100cd565b6100977f55fe49cdcf0454e3476d0a1effcbb9784fa60a8ece215354256b0ea6d1d38d7a60001b6100cd565b6100c37fada399f37723349d84b341a6355823c9651618a8b182da187c9310cd0931bd5a60001b6100cd565b6100cb6100d0565b005b50565b6100fc7facd86cf56610f8e400ec1efa2dc165f9f24abdf443b0fec1031e82ade5931a9860001b6100cd565b6101287ff957f161cbb3cc419360276dca2a99d3442a627e0e8b691527f448c98e33e64c60001b6100cd565b6101547fcd2dfc378adb77a35ce8cb82c8c23c7710c8b3a9b4fd10cf5863b0166c722ee760001b6100cd565b61015c610381565b6101887fcf7aba23f093af95d300ff03f65da1a09ede7e5a5574a3b54357355b21ef3f6960001b6100cd565b6101b47f69a9b616e8a9eb3289b25594e6824dc41c9b068fe92ad0ab3c068622542a83e160001b6100cd565b6101c46101bf6103af565b6104bf565b565b60606101f47f6dd5d110f974d4f2ef79799644d809eb1853b4f504cd0b8f9e5cecaf3f2720de60001b61053d565b6102207ff575f28da36a50cb0eff9e2f64b9a3caa2ee76a8a6685aeda4ea1ddd876df17860001b61053d565b61024c7f1e8380a5c00f7f25ca3f9c0c94b34ffa4b223bba5c6ac8ba7e43edd77c2387e560001b61053d565b61026f8383604051806060016040528060278152602001610eb360279139610540565b905092915050565b60006102a57f7b2621245b02878c2d20f75cf0f9364d541ebf0b591954cc7842f75aefb4604560001b61053d565b6102d17fff7ccd0f10dd2c1fbf0df485f26275d5462575765bee56088dcb0afac38ba9db60001b61053d565b6102fd7f57ca8476c3acbd433fca96575cea08f5da3cda5032c2042f6487d5b4ad0e1c5960001b61053d565b60008273ffffffffffffffffffffffffffffffffffffffff163b119050919050565b600061034d7fc643b7f093a4c498b11d43216cbe9fdbf7d770592a95dc956e4d36519af0485260001b6106a2565b6103797fc21091ff2dcb827b48594e387e5d4b4dae5dd18a99ab3c836b45c8e08adea3a360001b6106a2565b819050919050565b6103ad7fc95d07015fec3d73626d0ecb0f4183e60a67f488c19097e711169b299895803d60001b6100cd565b565b60006103dd7ffe7b79227754fbebd009a1da6fb5a02025344d634cceb6476c8ad2db3b2d541660001b6106a5565b6104097fb7bbeac0501e241a48e30d8f16c07c1c036179ebcf8dcef00052aff538e6572660001b6106a5565b6104357fd9efaf34d09073796a9dd83b98ad59c16ba2c28997e2a39678614fbd1088672160001b6106a5565b61043d6106a8565b73ffffffffffffffffffffffffffffffffffffffff16635c60da1b6040518163ffffffff1660e01b815260040160206040518083038186803b15801561048257600080fd5b505afa158015610496573d6000803e3d6000fd5b505050506040513d601f19601f820116820180604052508101906104ba9190610d00565b905090565b6104eb7fb5c6eb634007a5fbcbe339ce03a980cb1c4823d4aa37f8c843bd40583e783e9b60001b6100cd565b6105177fb3fbf0543c7a6f688034080d7c5904d340b971faf057279ab810eb7b7e38638960001b6100cd565b3660008037600080366000845af43d6000803e8060008114610538573d6000f35b3d6000fd5b50565b606061056e7fdd96bff238e48a248c1b41f2ec848a6b57a1cbe549f8c7fd43b9bf17f67cc1dd60001b61053d565b61059a7fc2c432386e78090d5865decdfe729fdf20e639e99c3e7bdb28e63d16f68be91660001b61053d565b6105c67fc18adba41f6ba9debccb4aa6c74b105d9b31ce9a90be2e283b5db8044058b77b60001b61053d565b6000808573ffffffffffffffffffffffffffffffffffffffff16856040516105ee9190610da7565b600060405180830381855af49150503d8060008114610629576040519150601f19603f3d011682016040523d82523d6000602084013e61062e565b606091505b509150915061065f7f432c169672a67aa8b6ff2d925dc06ea7cc4e211a79b4eefa99a95ce2f43118cb60001b61053d565b61068b7fb12626ac7625338c0624baaf8edfa73c875c8c93e200e4618271a3a0d622395a60001b61053d565b61069786838387610783565b925050509392505050565b50565b50565b60006106d67f8cc50cd66764319850408580fbba2527425fc4b2ca7ce51f15bd6dc1b7bf308060001b610aea565b6107027fa7843e7ec3719f72c4b692050833bf145cf6c3207ebd74776c211c05d193ac4160001b610aea565b61072e7f2609541d0159a9f5696f78685bdf8f1aa86659bafb2593b6312fc2423e18557560001b610aea565b61075a7fa3f0ad74e5423aebfd80d3ef4346578335a9a72aeaee59ff6cb3582b35133d5060001b61031f565b60000160009054906101000a900473ffffffffffffffffffffffffffffffffffffffff16905090565b60606107b17f27d4ffc88e3c245aa88714d483606e2d16430fd319a6147a99fbd815deebcdbb60001b61053d565b6107dd7f10e5e940cc539079e7af353786f0d03bc7d886a5643102bdceb3acab6807e79060001b61053d565b6108097f9e0068bc2ec9e9b04122ce722c32087649e9304be53bd127004d749360c88e9460001b61053d565b8315610a535761083b7f582be28c98b10d0bfe56bf07b23fd7702f2dd24653c5e48b6d82ae863d46e81c60001b61053d565b6108677fa24c8358dedfc36e030adff46442c22aa21caf577c28aed9a8ca6637d328ad8760001b61053d565b6108937ff3ef7e5ccc466591c23af629a7595f90a4981843a70a2c54b6f234cd7e4017fc60001b61053d565b6000835114156109c6576108c97fecd21c1a9c6edffb8858606baa9c8826ba33bb61f2afc4625dcd644f3a7e571060001b61053d565b6108f57f6064069e7a0359c6b796897096be8d6b3cccf3c5529ffe59091add77e641a12e60001b61053d565b6109217fe1107fa4e484803c8094f76b52a1a1a644cac64ed4bc77f8159e6415d56c072660001b61053d565b61094d7f5ab15c83458e987af27543918bd20f77fa136eb2cf59223ddf6f79ba8f0d6a6a60001b61053d565b61095685610277565b610995576040517f08c379a000000000000000000000000000000000000000000000000000000000815260040161098c90610e1b565b60405180910390fd5b6109c17ff81331d238105f2d519fab0b70318c84ea5f2323b057bcee8bc328be585782d160001b61053d565b6109f3565b6109f27f3af7387c2b8dad07a3f1d0593a8cfdcb42ae22e8eeceeacf897a469f0b05f6fe60001b61053d565b5b610a1f7f0d63445fffc2075f15088ce942184dcb864507ebeb1f7974ab300d14d4490c4060001b61053d565b610a4b7f0529460b78cacb96d00f2d9775d12e7c5f58ea50fc11dbd50b02b68cd0320f3160001b61053d565b829050610ae2565b610a7f7fca481589b5abfd73cbb8c067de47d0028cbffe990e2d89b4991b30aa9c7fc77860001b61053d565b610aab7f761e70eb1eb0af6b91d0c475e978285586b98a8e744f14f53cd6021bafe38a1660001b61053d565b610ad77f46ab1a537dbc8309675e2d57ffaa23ca08cda1a40ee2f7eb8fdb9f7dc8f9a1e260001b61053d565b610ae18383610aed565b5b949350505050565b50565b610b197f80368db674415b9b36ff35b930eab81e1f631a4fa7816ee699a096a352d6c8f960001b61053d565b610b457fc9330ca77286c9bd90c5fec9d9cd336d16122e7baf63166dae7f55d3727c963a60001b61053d565b610b717f0475f533d7f815ef6fb5621ae91e76f8f9c35e429cd3d14737f9306f946cd86460001b61053d565b600082511115610bdc57610ba77f59b0b9798bf170663beea503148a5329f3a4ef440534cadc1ebd8f9b2e3995bf60001b61053d565b610bd37fc20fed80ecfeb054383282a7fa47bc478615b96cb7dfc769fde54587c34811bc60001b61053d565b81518083602001fd5b610c087fc682b341bff9eca6d67130bfba2b37fe1722e8802a72434389b9bea1e7ff7b5160001b61053d565b610c347f9cf0c65f0ea103a0a5a777c4adad02dc53024368c92f9d799517f1c34e069b9060001b61053d565b610c607f13614e40e1bdbae8e6588d2ee08ac34cc61b733d71db93951cb92ebcfb69188160001b61053d565b806040517f08c379a0000000000000000000000000000000000000000000000000000000008152600401610c949190610e90565b60405180910390fd5b600080fd5b600073ffffffffffffffffffffffffffffffffffffffff82169050919050565b6000610ccd82610ca2565b9050919050565b610cdd81610cc2565b8114610ce857600080fd5b50565b600081519050610cfa81610cd4565b92915050565b600060208284031215610d1657610d15610c9d565b5b6000610d2484828501610ceb565b91505092915050565b600081519050919050565b600081905092915050565b60005b83811015610d61578082015181840152602081019050610d46565b83811115610d70576000848401525b50505050565b6000610d8182610d2d565b610d8b8185610d38565b9350610d9b818560208601610d43565b80840191505092915050565b6000610db38284610d76565b915081905092915050565b600082825260208201905092915050565b7f416464726573733a2063616c6c20746f206e6f6e2d636f6e7472616374000000600082015250565b6000610e05601d83610dbe565b9150610e1082610dcf565b602082019050919050565b60006020820190508181036000830152610e3481610df8565b9050919050565b600081519050919050565b6000601f19601f8301169050919050565b6000610e6282610e3b565b610e6c8185610dbe565b9350610e7c818560208601610d43565b610e8581610e46565b840191505092915050565b60006020820190508181036000830152610eaa8184610e57565b90509291505056fe416464726573733a206c6f772d6c6576656c2064656c65676174652063616c6c206661696c6564a26469706673582212204f986199b0a05981ff4e16977b96b7b47e5b5696d28432a7527043e62264dbb864736f6c63430008080033416464726573733a206c6f772d6c6576656c2064656c65676174652063616c6c206661696c6564a2646970667358221220f7289c6fa988088870640ef9766328cbf5ae0de7ecf5c3ee73a998cf3169509964736f6c6343000808003360a06040523480156200001157600080fd5b506040516200332838038062003328833981810160405281019062000037919062000ae2565b6200006b7f15e5580772ed245bd2f4987a57f4debee57603b2e677a640de1fe4ec2da5644360001b6200031760201b60201c565b6200009f7ffe48e7bc7e6a7b94025ea196b45bfd70a69870784b74161b392e08376d7be99c60001b6200031760201b60201c565b620000d37fd0cda1f260b02a5077428ee5ba2502e73a1c7ebe92c7efe957b3c367d6ea754160001b6200031760201b60201c565b620000e4336200031a60201b60201c565b620001187f407efeb7b41890a259163d2c023b93dfa9364d500a00f8ba92bd4601285694a460001b6200054a60201b60201c565b6200014c7f5875d0db4d99cfdcc8f5c7015a5abf436943a5c33fe0c6ce4493fb65f0a3ce9260001b6200054a60201b60201c565b620001807f28292c7d333cab2f119853378400499faca1167a934a68c559ae7d06600d7d6f60001b6200054a60201b60201c565b806040516200018f9062000a6a565b6200019b919062000b25565b604051809103906000f080158015620001b8573d6000803e3d6000fd5b5073ffffffffffffffffffffffffffffffffffffffff1660808173ffffffffffffffffffffffffffffffffffffffff1660601b81525050620002227e6dd44ead9c1d13e26d98d8a0a68c386e602dc23aab13664f3506066af95c9760001b6200054a60201b60201c565b620002567fe91b97d7d0b1a60332cc4d02c491716d74bbbe52eda6315d8642ec9d66aa78bf60001b6200054a60201b60201c565b80600160006101000a81548173ffffffffffffffffffffffffffffffffffffffff021916908373ffffffffffffffffffffffffffffffffffffffff160217905550620002cb7fe9cc06dc2b084d3b2864396e7a374f582ea9ddbaec35f617a98589fc7f3c781760001b6200054a60201b60201c565b620002ff7f777c01cf415757e76e1e218839ab6d6646c8930f33bba4cf6eac85143cfc8cbe60001b6200054a60201b60201c565b62000310326200054d60201b60201c565b5062000c5d565b50565b6200034e7fc324cfdab8d5c27d73a9ee5dfcb4bce21b4a7cb6ddc34f90977317bb941e999a60001b6200031760201b60201c565b620003827fdcef3b3e4c1f890f0ee8962b4aa5047c88a5c9c333404b18f24d74c11ada4a3460001b6200031760201b60201c565b620003b67fa05f90c6676d7997fb18cc10e894b141720338d42727aafedafc8f98cedf5ba760001b6200031760201b60201c565b60008060009054906101000a900473ffffffffffffffffffffffffffffffffffffffff169050620004107f73b81b5a1b549e780f75a0d4033c06301955c5d8b7fd84f1187d61da8da0a4bc60001b6200031760201b60201c565b620004447f29a2c3925ea735c041d65233b393c87fd24e2d1faaa23fefa4e2fa393eec9e8960001b6200031760201b60201c565b816000806101000a81548173ffffffffffffffffffffffffffffffffffffffff021916908373ffffffffffffffffffffffffffffffffffffffff160217905550620004b87f128710db60f8800404838616ac276916e617bbd6f5d13703765c0e6039bb7cf960001b6200031760201b60201c565b620004ec7f46797aed52d2327a6c797d97648f1a75324486132d0bdbd79e4d529898b2712360001b6200031760201b60201c565b8173ffffffffffffffffffffffffffffffffffffffff168173ffffffffffffffffffffffffffffffffffffffff167f8be0079c531659141344cd1fd0a4f28419497f9722a3daafe3b4186f6b6457e060405160405180910390a35050565b50565b620005817f2f07460aa1bb5a75f129b35179a6dd3e115c80c14c45c90153c8f00618eaf4bf60001b6200031760201b60201c565b620005b57f991e1894caa8691f31e6db21fb9cbb92d37e3f6173c8f44131e1b172983cae6960001b6200031760201b60201c565b620005e97fe201be290de3adc141885d968be88a95ca38184fa6c0502026f4dc53f6bf070160001b6200031760201b60201c565b620005f96200082060201b60201c565b6200062d7fc8674ee09103eb73d2db5d7a283b75b824e8011e451213345b14b0c1fa76d44860001b6200031760201b60201c565b620006617f1677c2b1f1831bf9fd27239c0fb3bd1e3c5dbbbde9ad3223738f9274d03df70f60001b6200031760201b60201c565b620006957f425e3f96a2bf5e4b67c3146c6e6860f4d319cd533510acea8c837676e10f92da60001b6200031760201b60201c565b620006c97f62ee51e21c32a83b41269e18bf91189268f07a717a5b7c6bb9c460fa0615de0d60001b6200031760201b60201c565b620006fd7f5a111532ffd1fa083e23f807b8061bb1f71986c52b92204c04b0dc18e695ef9660001b6200031760201b60201c565b600073ffffffffffffffffffffffffffffffffffffffff168173ffffffffffffffffffffffffffffffffffffffff16141562000770576040517f08c379a0000000000000000000000000000000000000000000000000000000008152600401620007679062000bc9565b60405180910390fd5b620007a47f6a9787e703714938be1e1806406ce412402c7928c54c1136c06e59b0e6f8d1ad60001b6200031760201b60201c565b620007d87fed177be2eadfa4c9b22c0fd4468759e1511c31b5b8682d3452eeca180ed2418960001b6200031760201b60201c565b6200080c7f5541b764eda2c7bdf9a0e80a90673dc3c9859b57594c39128a08a9372da3300360001b6200031760201b60201c565b6200081d816200031a60201b60201c565b50565b620008547fb442cc05e56b89a42a8ca4a1f413c544b64d1f2dc68722807b810a4ecea962fb60001b6200031760201b60201c565b620008887fbc9bc84c1e8e3b7e1534457f5f22be4b0617899f529d6a34a78ca5eff1393b3060001b6200031760201b60201c565b620008bc7f149ef7277b105d5795493510856c6a45441fe39bafc553395655d74a55f8049860001b6200031760201b60201c565b620008f07f399fad5034421005a21b2246f8879ae31cd56464ab45d5946df616a73655b53c60001b6200031760201b60201c565b3373ffffffffffffffffffffffffffffffffffffffff1662000917620009a660201b60201c565b73ffffffffffffffffffffffffffffffffffffffff161462000970576040517f08c379a0000000000000000000000000000000000000000000000000000000008152600401620009679062000c3b565b60405180910390fd5b620009a47f5f024932b449d49cd4a1eaab7d221e17f1b4290c910c17672f04a412b42d445560001b6200031760201b60201c565b565b6000620009dc7fd96f2d7b8c7c8a3483514c182d2766208f3be4541d496021c6bc3650d425dfe960001b6200031760201b60201c565b62000a107f637ba82574ca757e84c0be34e9f22a827629e9b8aef763291bcb081737d49ad160001b6200031760201b60201c565b62000a447f8693162164ab7fc24691fa5d65acfc71fea92a472cfea95984c48527aef78c2e60001b6200031760201b60201c565b60008054906101000a900473ffffffffffffffffffffffffffffffffffffffff16905090565b6118028062001b2683390190565b600080fd5b600073ffffffffffffffffffffffffffffffffffffffff82169050919050565b600062000aaa8262000a7d565b9050919050565b62000abc8162000a9d565b811462000ac857600080fd5b50565b60008151905062000adc8162000ab1565b92915050565b60006020828403121562000afb5762000afa62000a78565b5b600062000b0b8482850162000acb565b91505092915050565b62000b1f8162000a9d565b82525050565b600060208201905062000b3c600083018462000b14565b92915050565b600082825260208201905092915050565b7f4f776e61626c653a206e6577206f776e657220697320746865207a65726f206160008201527f6464726573730000000000000000000000000000000000000000000000000000602082015250565b600062000bb160268362000b42565b915062000bbe8262000b53565b604082019050919050565b6000602082019050818103600083015262000be48162000ba2565b9050919050565b7f4f776e61626c653a2063616c6c6572206973206e6f7420746865206f776e6572600082015250565b600062000c2360208362000b42565b915062000c308262000beb565b602082019050919050565b6000602082019050818103600083015262000c568162000c14565b9050919050565b60805160601c610ea362000c836000396000818161024101526103ee0152610ea36000f3fe608060405234801561001057600080fd5b50600436106100625760003560e01c80631c1b8772146100675780635c60da1b146100835780635fe810b3146100a1578063715018a6146100bf5780638da5cb5b146100c9578063f2fde38b146100e7575b600080fd5b610081600480360381019061007c9190610cc5565b610103565b005b61008b610366565b6040516100989190610d01565b60405180910390f35b6100a961048f565b6040516100b69190610d01565b60405180910390f35b6100c76104b5565b005b6100d16105fd565b6040516100de9190610d01565b60405180910390f35b61010160048036038101906100fc9190610cc5565b6106a9565b005b61012f7f2f07460aa1bb5a75f129b35179a6dd3e115c80c14c45c90153c8f00618eaf4bf60001b610911565b61015b7f991e1894caa8691f31e6db21fb9cbb92d37e3f6173c8f44131e1b172983cae6960001b610911565b6101877fe201be290de3adc141885d968be88a95ca38184fa6c0502026f4dc53f6bf070160001b610911565b61018f610914565b6101bb7fc8674ee09103eb73d2db5d7a283b75b824e8011e451213345b14b0c1fa76d44860001b610911565b6101e77f23421fe60cc71905ae98e1af2de31998019011f640b3e7c679f9bce9ec1720a260001b610a67565b6102137f668cc587cf3c88d85ff324cef8b892fd57ce29fe384e5640b0eefde2be8da73960001b610a67565b61023f7f4f9213d6948d130c5c1a6899f66ee242034ab51630eb5b403fb09e368770ea9760001b610a67565b7f000000000000000000000000000000000000000000000000000000000000000073ffffffffffffffffffffffffffffffffffffffff16633659cfe6826040518263ffffffff1660e01b81526004016102989190610d01565b600060405180830381600087803b1580156102b257600080fd5b505af11580156102c6573d6000803e3d6000fd5b505050506102f67fffdf08e42d3b26c14dc12674d98bf51bfbfbdd8d52c8b27081885b52d37a042360001b610a67565b6103227fff4a7328da60a13ec12a01beebc906380bca75fcb24db3db768ad719d58ebd3e60001b610a67565b80600160006101000a81548173ffffffffffffffffffffffffffffffffffffffff021916908373ffffffffffffffffffffffffffffffffffffffff16021790555050565b60006103947f89ca9e1943336819a7686c9d36d9f5d97ed253db2b8ee1918e6c200bd4d227a660001b610a67565b6103c07ff53193b6b32e34dc916804aa488063bb7cbd31f7ee8823b8fe4454c3a6e9f11160001b610a67565b6103ec7f55d849e6e4bcdc9d3ca6c24bedbc264d6b5392ed6d0eef2edca05baba1a5186c60001b610a67565b7f000000000000000000000000000000000000000000000000000000000000000073ffffffffffffffffffffffffffffffffffffffff16635c60da1b6040518163ffffffff1660e01b815260040160206040518083038186803b15801561045257600080fd5b505afa158015610466573d6000803e3d6000fd5b505050506040513d601f19601f8201168201806040525081019061048a9190610d31565b905090565b600160009054906101000a900473ffffffffffffffffffffffffffffffffffffffff1681565b6104e17f2f07460aa1bb5a75f129b35179a6dd3e115c80c14c45c90153c8f00618eaf4bf60001b610911565b61050d7f991e1894caa8691f31e6db21fb9cbb92d37e3f6173c8f44131e1b172983cae6960001b610911565b6105397fe201be290de3adc141885d968be88a95ca38184fa6c0502026f4dc53f6bf070160001b610911565b610541610914565b61056d7fc8674ee09103eb73d2db5d7a283b75b824e8011e451213345b14b0c1fa76d44860001b610911565b6105997fca6510e773860b716aa3ac9fc98645a498ab7f409a2d26ac01b388584a779e4960001b610911565b6105c57f8fc1aea2b9a503b9874bc3d739e65e4504f13c320dabe895c8d1a7e6f89adb5b60001b610911565b6105f17f808af505074908d457b658b8a7a6c3683088f5830fdf3e96151516491a08ba1060001b610911565b6105fb6000610a6a565b565b600061062b7fd96f2d7b8c7c8a3483514c182d2766208f3be4541d496021c6bc3650d425dfe960001b610911565b6106577f637ba82574ca757e84c0be34e9f22a827629e9b8aef763291bcb081737d49ad160001b610911565b6106837f8693162164ab7fc24691fa5d65acfc71fea92a472cfea95984c48527aef78c2e60001b610911565b60008054906101000a900473ffffffffffffffffffffffffffffffffffffffff16905090565b6106d57f2f07460aa1bb5a75f129b35179a6dd3e115c80c14c45c90153c8f00618eaf4bf60001b610911565b6107017f991e1894caa8691f31e6db21fb9cbb92d37e3f6173c8f44131e1b172983cae6960001b610911565b61072d7fe201be290de3adc141885d968be88a95ca38184fa6c0502026f4dc53f6bf070160001b610911565b610735610914565b6107617fc8674ee09103eb73d2db5d7a283b75b824e8011e451213345b14b0c1fa76d44860001b610911565b61078d7f1677c2b1f1831bf9fd27239c0fb3bd1e3c5dbbbde9ad3223738f9274d03df70f60001b610911565b6107b97f425e3f96a2bf5e4b67c3146c6e6860f4d319cd533510acea8c837676e10f92da60001b610911565b6107e57f62ee51e21c32a83b41269e18bf91189268f07a717a5b7c6bb9c460fa0615de0d60001b610911565b6108117f5a111532ffd1fa083e23f807b8061bb1f71986c52b92204c04b0dc18e695ef9660001b610911565b600073ffffffffffffffffffffffffffffffffffffffff168173ffffffffffffffffffffffffffffffffffffffff161415610881576040517f08c379a000000000000000000000000000000000000000000000000000000000815260040161087890610de1565b60405180910390fd5b6108ad7f6a9787e703714938be1e1806406ce412402c7928c54c1136c06e59b0e6f8d1ad60001b610911565b6108d97fed177be2eadfa4c9b22c0fd4468759e1511c31b5b8682d3452eeca180ed2418960001b610911565b6109057f5541b764eda2c7bdf9a0e80a90673dc3c9859b57594c39128a08a9372da3300360001b610911565b61090e81610a6a565b50565b50565b6109407fb442cc05e56b89a42a8ca4a1f413c544b64d1f2dc68722807b810a4ecea962fb60001b610911565b61096c7fbc9bc84c1e8e3b7e1534457f5f22be4b0617899f529d6a34a78ca5eff1393b3060001b610911565b6109987f149ef7277b105d5795493510856c6a45441fe39bafc553395655d74a55f8049860001b610911565b6109c47f399fad5034421005a21b2246f8879ae31cd56464ab45d5946df616a73655b53c60001b610911565b3373ffffffffffffffffffffffffffffffffffffffff166109e36105fd565b73ffffffffffffffffffffffffffffffffffffffff1614610a39576040517f08c379a0000000000000000000000000000000000000000000000000000000008152600401610a3090610e4d565b60405180910390fd5b610a657f5f024932b449d49cd4a1eaab7d221e17f1b4290c910c17672f04a412b42d445560001b610911565b565b50565b610a967fc324cfdab8d5c27d73a9ee5dfcb4bce21b4a7cb6ddc34f90977317bb941e999a60001b610911565b610ac27fdcef3b3e4c1f890f0ee8962b4aa5047c88a5c9c333404b18f24d74c11ada4a3460001b610911565b610aee7fa05f90c6676d7997fb18cc10e894b141720338d42727aafedafc8f98cedf5ba760001b610911565b60008060009054906101000a900473ffffffffffffffffffffffffffffffffffffffff169050610b407f73b81b5a1b549e780f75a0d4033c06301955c5d8b7fd84f1187d61da8da0a4bc60001b610911565b610b6c7f29a2c3925ea735c041d65233b393c87fd24e2d1faaa23fefa4e2fa393eec9e8960001b610911565b816000806101000a81548173ffffffffffffffffffffffffffffffffffffffff021916908373ffffffffffffffffffffffffffffffffffffffff160217905550610bd87f128710db60f8800404838616ac276916e617bbd6f5d13703765c0e6039bb7cf960001b610911565b610c047f46797aed52d2327a6c797d97648f1a75324486132d0bdbd79e4d529898b2712360001b610911565b8173ffffffffffffffffffffffffffffffffffffffff168173ffffffffffffffffffffffffffffffffffffffff167f8be0079c531659141344cd1fd0a4f28419497f9722a3daafe3b4186f6b6457e060405160405180910390a35050565b600080fd5b600073ffffffffffffffffffffffffffffffffffffffff82169050919050565b6000610c9282610c67565b9050919050565b610ca281610c87565b8114610cad57600080fd5b50565b600081359050610cbf81610c99565b92915050565b600060208284031215610cdb57610cda610c62565b5b6000610ce984828501610cb0565b91505092915050565b610cfb81610c87565b82525050565b6000602082019050610d166000830184610cf2565b92915050565b600081519050610d2b81610c99565b92915050565b600060208284031215610d4757610d46610c62565b5b6000610d5584828501610d1c565b91505092915050565b600082825260208201905092915050565b7f4f776e61626c653a206e6577206f776e657220697320746865207a65726f206160008201527f6464726573730000000000000000000000000000000000000000000000000000602082015250565b6000610dcb602683610d5e565b9150610dd682610d6f565b604082019050919050565b60006020820190508181036000830152610dfa81610dbe565b9050919050565b7f4f776e61626c653a2063616c6c6572206973206e6f7420746865206f776e6572600082015250565b6000610e37602083610d5e565b9150610e4282610e01565b602082019050919050565b60006020820190508181036000830152610e6681610e2a565b905091905056fea2646970667358221220020600e82bdc9f0996813a06c69fce72f875fd4e38c5752ed58bc1fd5dd563e064736f6c6343000808003360806040523480156200001157600080fd5b506040516200180238038062001802833981810160405281019062000037919062000703565b6200006b7f15e5580772ed245bd2f4987a57f4debee57603b2e677a640de1fe4ec2da5644360001b6200019860201b60201c565b6200009f7ffe48e7bc7e6a7b94025ea196b45bfd70a69870784b74161b392e08376d7be99c60001b6200019860201b60201c565b620000d37fd0cda1f260b02a5077428ee5ba2502e73a1c7ebe92c7efe957b3c367d6ea754160001b6200019860201b60201c565b620000e4336200019b60201b60201c565b620001187fc3ecdedddd5081deee66a9564ec33f7161376a56d8f98760dfe23ee9ec8d9cb260001b620003cb60201b60201c565b6200014c7fe696adb72f19185d82065fdea2ae0e60f563ac9cf1ff96e63a1ed505cce1045e60001b620003cb60201b60201c565b620001807f59e6b4b7cbe038fabcbefff28b788e6a5f2537a065ebef2ba17a0b121910a84760001b620003cb60201b60201c565b6200019181620003ce60201b60201c565b50620007de565b50565b620001cf7fc324cfdab8d5c27d73a9ee5dfcb4bce21b4a7cb6ddc34f90977317bb941e999a60001b6200019860201b60201c565b620002037fdcef3b3e4c1f890f0ee8962b4aa5047c88a5c9c333404b18f24d74c11ada4a3460001b6200019860201b60201c565b620002377fa05f90c6676d7997fb18cc10e894b141720338d42727aafedafc8f98cedf5ba760001b6200019860201b60201c565b60008060009054906101000a900473ffffffffffffffffffffffffffffffffffffffff169050620002917f73b81b5a1b549e780f75a0d4033c06301955c5d8b7fd84f1187d61da8da0a4bc60001b6200019860201b60201c565b620002c57f29a2c3925ea735c041d65233b393c87fd24e2d1faaa23fefa4e2fa393eec9e8960001b6200019860201b60201c565b816000806101000a81548173ffffffffffffffffffffffffffffffffffffffff021916908373ffffffffffffffffffffffffffffffffffffffff160217905550620003397f128710db60f8800404838616ac276916e617bbd6f5d13703765c0e6039bb7cf960001b6200019860201b60201c565b6200036d7f46797aed52d2327a6c797d97648f1a75324486132d0bdbd79e4d529898b2712360001b6200019860201b60201c565b8173ffffffffffffffffffffffffffffffffffffffff168173ffffffffffffffffffffffffffffffffffffffff167f8be0079c531659141344cd1fd0a4f28419497f9722a3daafe3b4186f6b6457e060405160405180910390a35050565b50565b620004027f421cad2af04a83b555070f04b2799a62b004a93ed5532425b702197581ed303860001b620003cb60201b60201c565b620004367f563e2c645f4aae72bd26d79884905e7db0a4e5b2b15318c653fe9b99e3c51e5760001b620003cb60201b60201c565b6200046a7f783dacc556b6ff183d25c64f3e9d71debefa25925c2e97df649592c9806e9fd460001b620003cb60201b60201c565b6200049e7ffd1189d82b8bf2d5c3f591ff65b7edd51fb072b0d27c049223c5ad4b62f1d71460001b620003cb60201b60201c565b620004b481620005d660201b620007c71760201c565b620004f6576040517f08c379a0000000000000000000000000000000000000000000000000000000008152600401620004ed90620007bc565b60405180910390fd5b6200052a7f1544f67f3cb503427e649cc03b21c1c50deadcd2f696f59f4c6ff825713e881e60001b620003cb60201b60201c565b6200055e7fe428574fa5010eaddda3cb8e414b52e25e27501591d6300b3b391c86afa6c03360001b620003cb60201b60201c565b620005927f877cb943768d8d4695bca23edf0186073a51267fb168403bf78299f01c9da82260001b620003cb60201b60201c565b80600160006101000a81548173ffffffffffffffffffffffffffffffffffffffff021916908373ffffffffffffffffffffffffffffffffffffffff16021790555050565b60006200060c7f7b2621245b02878c2d20f75cf0f9364d541ebf0b591954cc7842f75aefb4604560001b6200069660201b60201c565b620006407fff7ccd0f10dd2c1fbf0df485f26275d5462575765bee56088dcb0afac38ba9db60001b6200069660201b60201c565b620006747f57ca8476c3acbd433fca96575cea08f5da3cda5032c2042f6487d5b4ad0e1c5960001b6200069660201b60201c565b60008273ffffffffffffffffffffffffffffffffffffffff163b119050919050565b50565b600080fd5b600073ffffffffffffffffffffffffffffffffffffffff82169050919050565b6000620006cb826200069e565b9050919050565b620006dd81620006be565b8114620006e957600080fd5b50565b600081519050620006fd81620006d2565b92915050565b6000602082840312156200071c576200071b62000699565b5b60006200072c84828501620006ec565b91505092915050565b600082825260208201905092915050565b7f5570677261646561626c65426561636f6e3a20696d706c656d656e746174696f60008201527f6e206973206e6f74206120636f6e747261637400000000000000000000000000602082015250565b6000620007a460338362000735565b9150620007b18262000746565b604082019050919050565b60006020820190508181036000830152620007d78162000795565b9050919050565b61101480620007ee6000396000f3fe608060405234801561001057600080fd5b50600436106100575760003560e01c80633659cfe61461005c5780635c60da1b14610078578063715018a6146100965780638da5cb5b146100a0578063f2fde38b146100be575b600080fd5b61007660048036038101906100719190610de6565b6100da565b005b6100806102bd565b60405161008d9190610e22565b60405180910390f35b61009e61036b565b005b6100a86104b3565b6040516100b59190610e22565b60405180910390f35b6100d860048036038101906100d39190610de6565b61055f565b005b6101067f2f07460aa1bb5a75f129b35179a6dd3e115c80c14c45c90153c8f00618eaf4bf60001b61086f565b6101327f991e1894caa8691f31e6db21fb9cbb92d37e3f6173c8f44131e1b172983cae6960001b61086f565b61015e7fe201be290de3adc141885d968be88a95ca38184fa6c0502026f4dc53f6bf070160001b61086f565b610166610872565b6101927fc8674ee09103eb73d2db5d7a283b75b824e8011e451213345b14b0c1fa76d44860001b61086f565b6101be7fd45ea4cce40d05bf468de09e8a64b22df05cd5dbe104ff29f66479a0ce77bbf560001b6109c5565b6101ea7f62d598970a121662a6e9f6657e337787dd2e5ac82766c2b386093f7cd2a3f35060001b6109c5565b6102167f901f7926cc8613a436deddc62bbb5ee20f818fb25af9e734ea1963fa72d2327760001b6109c5565b61021f816109c8565b61024b7f84aa6e0abe83b2c1b9a96a2e0919c6481d98ba801327711881aaf35d9281be4560001b6109c5565b6102777fbb39c497c420ae44e5612a8383a94babf9d412e53322ca752c1bb4d055223a5b60001b6109c5565b8073ffffffffffffffffffffffffffffffffffffffff167fbc7cd75a20ee27fd9adebab32041f755214dbc6bffa90cc0225b39da2e5c2d3b60405160405180910390a250565b60006102eb7f57b967a63050bbf0dfc84e123471cce2c5c800e6f96fe5c61ca0919b9781472360001b6109c5565b6103177f56586abcacb1d8a8b188dd029bc3dea263f18a6c42515d9f0e4f080207b1e06360001b6109c5565b6103437f8f5b9872390950d9c98c494f84c724544511b2a70d353b6fd9988db9775f73d760001b6109c5565b600160009054906101000a900473ffffffffffffffffffffffffffffffffffffffff16905090565b6103977f2f07460aa1bb5a75f129b35179a6dd3e115c80c14c45c90153c8f00618eaf4bf60001b61086f565b6103c37f991e1894caa8691f31e6db21fb9cbb92d37e3f6173c8f44131e1b172983cae6960001b61086f565b6103ef7fe201be290de3adc141885d968be88a95ca38184fa6c0502026f4dc53f6bf070160001b61086f565b6103f7610872565b6104237fc8674ee09103eb73d2db5d7a283b75b824e8011e451213345b14b0c1fa76d44860001b61086f565b61044f7fca6510e773860b716aa3ac9fc98645a498ab7f409a2d26ac01b388584a779e4960001b61086f565b61047b7f8fc1aea2b9a503b9874bc3d739e65e4504f13c320dabe895c8d1a7e6f89adb5b60001b61086f565b6104a77f808af505074908d457b658b8a7a6c3683088f5830fdf3e96151516491a08ba1060001b61086f565b6104b16000610b88565b565b60006104e17fd96f2d7b8c7c8a3483514c182d2766208f3be4541d496021c6bc3650d425dfe960001b61086f565b61050d7f637ba82574ca757e84c0be34e9f22a827629e9b8aef763291bcb081737d49ad160001b61086f565b6105397f8693162164ab7fc24691fa5d65acfc71fea92a472cfea95984c48527aef78c2e60001b61086f565b60008054906101000a900473ffffffffffffffffffffffffffffffffffffffff16905090565b61058b7f2f07460aa1bb5a75f129b35179a6dd3e115c80c14c45c90153c8f00618eaf4bf60001b61086f565b6105b77f991e1894caa8691f31e6db21fb9cbb92d37e3f6173c8f44131e1b172983cae6960001b61086f565b6105e37fe201be290de3adc141885d968be88a95ca38184fa6c0502026f4dc53f6bf070160001b61086f565b6105eb610872565b6106177fc8674ee09103eb73d2db5d7a283b75b824e8011e451213345b14b0c1fa76d44860001b61086f565b6106437f1677c2b1f1831bf9fd27239c0fb3bd1e3c5dbbbde9ad3223738f9274d03df70f60001b61086f565b61066f7f425e3f96a2bf5e4b67c3146c6e6860f4d319cd533510acea8c837676e10f92da60001b61086f565b61069b7f62ee51e21c32a83b41269e18bf91189268f07a717a5b7c6bb9c460fa0615de0d60001b61086f565b6106c77f5a111532ffd1fa083e23f807b8061bb1f71986c52b92204c04b0dc18e695ef9660001b61086f565b600073ffffffffffffffffffffffffffffffffffffffff168173ffffffffffffffffffffffffffffffffffffffff161415610737576040517f08c379a000000000000000000000000000000000000000000000000000000000815260040161072e90610ec0565b60405180910390fd5b6107637f6a9787e703714938be1e1806406ce412402c7928c54c1136c06e59b0e6f8d1ad60001b61086f565b61078f7fed177be2eadfa4c9b22c0fd4468759e1511c31b5b8682d3452eeca180ed2418960001b61086f565b6107bb7f5541b764eda2c7bdf9a0e80a90673dc3c9859b57594c39128a08a9372da3300360001b61086f565b6107c481610b88565b50565b60006107f57f7b2621245b02878c2d20f75cf0f9364d541ebf0b591954cc7842f75aefb4604560001b610d80565b6108217fff7ccd0f10dd2c1fbf0df485f26275d5462575765bee56088dcb0afac38ba9db60001b610d80565b61084d7f57ca8476c3acbd433fca96575cea08f5da3cda5032c2042f6487d5b4ad0e1c5960001b610d80565b60008273ffffffffffffffffffffffffffffffffffffffff163b119050919050565b50565b61089e7fb442cc05e56b89a42a8ca4a1f413c544b64d1f2dc68722807b810a4ecea962fb60001b61086f565b6108ca7fbc9bc84c1e8e3b7e1534457f5f22be4b0617899f529d6a34a78ca5eff1393b3060001b61086f565b6108f67f149ef7277b105d5795493510856c6a45441fe39bafc553395655d74a55f8049860001b61086f565b6109227f399fad5034421005a21b2246f8879ae31cd56464ab45d5946df616a73655b53c60001b61086f565b3373ffffffffffffffffffffffffffffffffffffffff166109416104b3565b73ffffffffffffffffffffffffffffffffffffffff1614610997576040517f08c379a000000000000000000000000000000000000000000000000000000000815260040161098e90610f2c565b60405180910390fd5b6109c37f5f024932b449d49cd4a1eaab7d221e17f1b4290c910c17672f04a412b42d445560001b61086f565b565b50565b6109f47f421cad2af04a83b555070f04b2799a62b004a93ed5532425b702197581ed303860001b6109c5565b610a207f563e2c645f4aae72bd26d79884905e7db0a4e5b2b15318c653fe9b99e3c51e5760001b6109c5565b610a4c7f783dacc556b6ff183d25c64f3e9d71debefa25925c2e97df649592c9806e9fd460001b6109c5565b610a787ffd1189d82b8bf2d5c3f591ff65b7edd51fb072b0d27c049223c5ad4b62f1d71460001b6109c5565b610a81816107c7565b610ac0576040517f08c379a0000000000000000000000000000000000000000000000000000000008152600401610ab790610fbe565b60405180910390fd5b610aec7f1544f67f3cb503427e649cc03b21c1c50deadcd2f696f59f4c6ff825713e881e60001b6109c5565b610b187fe428574fa5010eaddda3cb8e414b52e25e27501591d6300b3b391c86afa6c03360001b6109c5565b610b447f877cb943768d8d4695bca23edf0186073a51267fb168403bf78299f01c9da82260001b6109c5565b80600160006101000a81548173ffffffffffffffffffffffffffffffffffffffff021916908373ffffffffffffffffffffffffffffffffffffffff16021790555050565b610bb47fc324cfdab8d5c27d73a9ee5dfcb4bce21b4a7cb6ddc34f90977317bb941e999a60001b61086f565b610be07fdcef3b3e4c1f890f0ee8962b4aa5047c88a5c9c333404b18f24d74c11ada4a3460001b61086f565b610c0c7fa05f90c6676d7997fb18cc10e894b141720338d42727aafedafc8f98cedf5ba760001b61086f565b60008060009054906101000a900473ffffffffffffffffffffffffffffffffffffffff169050610c5e7f73b81b5a1b549e780f75a0d4033c06301955c5d8b7fd84f1187d61da8da0a4bc60001b61086f565b610c8a7f29a2c3925ea735c041d65233b393c87fd24e2d1faaa23fefa4e2fa393eec9e8960001b61086f565b816000806101000a81548173ffffffffffffffffffffffffffffffffffffffff021916908373ffffffffffffffffffffffffffffffffffffffff160217905550610cf67f128710db60f8800404838616ac276916e617bbd6f5d13703765c0e6039bb7cf960001b61086f565b610d227f46797aed52d2327a6c797d97648f1a75324486132d0bdbd79e4d529898b2712360001b61086f565b8173ffffffffffffffffffffffffffffffffffffffff168173ffffffffffffffffffffffffffffffffffffffff167f8be0079c531659141344cd1fd0a4f28419497f9722a3daafe3b4186f6b6457e060405160405180910390a35050565b50565b600080fd5b600073ffffffffffffffffffffffffffffffffffffffff82169050919050565b6000610db382610d88565b9050919050565b610dc381610da8565b8114610dce57600080fd5b50565b600081359050610de081610dba565b92915050565b600060208284031215610dfc57610dfb610d83565b5b6000610e0a84828501610dd1565b91505092915050565b610e1c81610da8565b82525050565b6000602082019050610e376000830184610e13565b92915050565b600082825260208201905092915050565b7f4f776e61626c653a206e6577206f776e657220697320746865207a65726f206160008201527f6464726573730000000000000000000000000000000000000000000000000000602082015250565b6000610eaa602683610e3d565b9150610eb582610e4e565b604082019050919050565b60006020820190508181036000830152610ed981610e9d565b9050919050565b7f4f776e61626c653a2063616c6c6572206973206e6f7420746865206f776e6572600082015250565b6000610f16602083610e3d565b9150610f2182610ee0565b602082019050919050565b60006020820190508181036000830152610f4581610f09565b9050919050565b7f5570677261646561626c65426561636f6e3a20696d706c656d656e746174696f60008201527f6e206973206e6f74206120636f6e747261637400000000000000000000000000602082015250565b6000610fa8603383610e3d565b9150610fb382610f4c565b604082019050919050565b60006020820190508181036000830152610fd781610f9b565b905091905056fea26469706673582212201965993c067caac999baf522f4ce9e505edf705eb0bf54c48dabb42983ee479064736f6c63430008080033",
  "linkReferences": {},
  "deployedLinkReferences": {}
}