{
  "_format": "hh-sol-artifact-1",
  "contractName": "VaultFactory",
  "sourceName": "contracts/VaultFactory.sol",
  "abi": [
    {
      "inputs": [
        {
          "internalType": "address",
          "name": "_SquiddyCore",
          "type": "address"
        }
      ],
      "stateMutability": "nonpayable",
      "type": "constructor"
    },
    {
      "anonymous": false,
      "inputs": [
        {
          "indexed": true,
          "internalType": "string",
          "name": "name",
          "type": "string"
        },
        {
          "indexed": true,
          "internalType": "string",
          "name": "symbol",
          "type": "string"
        },
        {
          "indexed": true,
          "internalType": "address",
          "name": "vaultAddress",
          "type": "address"
        },
        {
          "indexed": false,
          "internalType": "address",
          "name": "strategyAddress",
          "type": "address"
        },
        {
          "indexed": false,
          "internalType": "address",
          "name": "managerAddress",
          "type": "address"
        },
        {
          "indexed": false,
          "internalType": "uint256",
          "name": "index",
          "type": "uint256"
        }
      ],
      "name": "NewVault",
      "type": "event"
    },
    {
      "inputs": [],
      "name": "VAULT_FACTORY_ROLE",
      "outputs": [
        {
          "internalType": "bytes32",
          "name": "",
          "type": "bytes32"
        }
      ],
      "stateMutability": "view",
      "type": "function"
    },
    {
      "inputs": [
        {
          "internalType": "string",
          "name": "_name",
          "type": "string"
        },
        {
          "internalType": "string",
          "name": "_symbol",
          "type": "string"
        },
        {
          "internalType": "address",
          "name": "_strategyAddress",
          "type": "address"
        },
        {
          "internalType": "address",
          "name": "_managerAddress",
          "type": "address"
        },
        {
          "internalType": "address",
          "name": "_assetAddress",
          "type": "address"
        },
        {
          "internalType": "uint8",
          "name": "_assetDecimals",
          "type": "uint8"
        }
      ],
      "name": "buildVault",
      "outputs": [],
      "stateMutability": "nonpayable",
      "type": "function"
    },
    {
      "inputs": [],
      "name": "getBeacon",
      "outputs": [
        {
          "internalType": "address",
          "name": "",
          "type": "address"
        }
      ],
      "stateMutability": "view",
      "type": "function"
    },
    {
      "inputs": [],
      "name": "getImplementation",
      "outputs": [
        {
          "internalType": "address",
          "name": "",
          "type": "address"
        }
      ],
      "stateMutability": "view",
      "type": "function"
    },
    {
      "inputs": [
        {
          "internalType": "address",
          "name": "",
          "type": "address"
        }
      ],
      "name": "vaultAddress_to_strategyAddress",
      "outputs": [
        {
          "internalType": "address",
          "name": "",
          "type": "address"
        }
      ],
      "stateMutability": "view",
      "type": "function"
    },
    {
      "inputs": [
        {
          "internalType": "address",
          "name": "",
          "type": "address"
        }
      ],
      "name": "vaultDetails",
      "outputs": [
        {
          "internalType": "string",
          "name": "name",
          "type": "string"
        },
        {
          "internalType": "string",
          "name": "symbol",
          "type": "string"
        },
        {
          "internalType": "address",
          "name": "vaultAddress",
          "type": "address"
        },
        {
          "internalType": "address",
          "name": "strategyAddress",
          "type": "address"
        },
        {
          "internalType": "address",
          "name": "managerAddress",
          "type": "address"
        },
        {
          "internalType": "uint256",
          "name": "index",
          "type": "uint256"
        }
      ],
      "stateMutability": "view",
      "type": "function"
    },
    {
      "inputs": [
        {
          "internalType": "uint256",
          "name": "",
          "type": "uint256"
        }
      ],
      "name": "vaultId_to_vaultAddress",
      "outputs": [
        {
          "internalType": "address",
          "name": "",
          "type": "address"
        }
      ],
      "stateMutability": "view",
      "type": "function"
    }
  ],
  "bytecode": "0x60806040523480156200001157600080fd5b5060405162003a1d38038062003a1d83398181016040528101906200003791906200012f565b806040516200004690620000b7565b62000052919062000172565b604051809103906000f0801580156200006f573d6000803e3d6000fd5b50600560006101000a81548173ffffffffffffffffffffffffffffffffffffffff021916908373ffffffffffffffffffffffffffffffffffffffff160217905550506200018f565b6115bd806200246083390190565b600080fd5b600073ffffffffffffffffffffffffffffffffffffffff82169050919050565b6000620000f782620000ca565b9050919050565b6200010981620000ea565b81146200011557600080fd5b50565b6000815190506200012981620000fe565b92915050565b600060208284031215620001485762000147620000c5565b5b6000620001588482850162000118565b91505092915050565b6200016c81620000ea565b82525050565b600060208201905062000189600083018462000161565b92915050565b6122c1806200019f6000396000f3fe60806040523480156200001157600080fd5b5060043610620000885760003560e01c8063b258a6f51162000063578063b258a6f5146200010c578063b50a97be146200012e578063ce38cb5c1462000164578063d8c2c9ed146200019a5762000088565b80632a7ff153146200008d5780632d6b3a6b14620000c8578063aaf10f4214620000ea575b600080fd5b620000ab6004803603810190620000a5919062000c17565b620001ba565b604051620000bf9695949392919062000d19565b60405180910390f35b620000d262000376565b604051620000e1919062000d94565b60405180910390f35b620000f4620003a0565b60405162000103919062000d94565b60405180910390f35b620001166200044b565b60405162000125919062000dcc565b60405180910390f35b6200014c600480360381019062000146919062000c17565b6200046f565b6040516200015b919062000d94565b60405180910390f35b6200018260048036038101906200017c919062000e1a565b620004a2565b60405162000191919062000d94565b60405180910390f35b620001b86004803603810190620001b2919062000fdb565b620004d5565b005b6001602052806000526040600020600091509050806000018054620001df90620010e4565b80601f01602080910402602001604051908101604052809291908181526020018280546200020d90620010e4565b80156200025e5780601f1062000232576101008083540402835291602001916200025e565b820191906000526020600020905b8154815290600101906020018083116200024057829003601f168201915b5050505050908060010180546200027590620010e4565b80601f0160208091040260200160405190810160405280929190818152602001828054620002a390620010e4565b8015620002f45780601f10620002c857610100808354040283529160200191620002f4565b820191906000526020600020905b815481529060010190602001808311620002d657829003601f168201915b5050505050908060020160009054906101000a900473ffffffffffffffffffffffffffffffffffffffff16908060030160009054906101000a900473ffffffffffffffffffffffffffffffffffffffff16908060040160009054906101000a900473ffffffffffffffffffffffffffffffffffffffff16908060050154905086565b6000600560009054906101000a900473ffffffffffffffffffffffffffffffffffffffff16905090565b6000600560009054906101000a900473ffffffffffffffffffffffffffffffffffffffff1673ffffffffffffffffffffffffffffffffffffffff16635c60da1b6040518163ffffffff1660e01b815260040160206040518083038186803b1580156200040b57600080fd5b505afa15801562000420573d6000803e3d6000fd5b505050506040513d601f19601f8201168201806040525081019062000446919062001131565b905090565b7f7c3948777991e30efc945b298d109fc7a0c0de63dd562adfea7f970336f317b081565b60026020528060005260406000206000915054906101000a900473ffffffffffffffffffffffffffffffffffffffff1681565b60036020528060005260406000206000915054906101000a900473ffffffffffffffffffffffffffffffffffffffff1681565b620004e1600062000abc565b6000620004ef600062000ad2565b90506000600560009054906101000a900473ffffffffffffffffffffffffffffffffffffffff16639309971c60e01b85878b8b886040516024016200053995949392919062001174565b604051602081830303815290604052907bffffffffffffffffffffffffffffffffffffffffffffffffffffffff19166020820180517bffffffffffffffffffffffffffffffffffffffffffffffffffffffff8381831617835250505050604051620005a49062000ae0565b620005b19291906200123c565b604051809103906000f080158015620005ce573d6000803e3d6000fd5b50905060006040518060c001604052808a81526020018981526020018373ffffffffffffffffffffffffffffffffffffffff1681526020018873ffffffffffffffffffffffffffffffffffffffff1681526020018773ffffffffffffffffffffffffffffffffffffffff168152602001848152509050600481908060018154018082558091505060019003906000526020600020906006020160009091909190915060008201518160000190805190602001906200068e92919062000aee565b506020820151816001019080519060200190620006ad92919062000aee565b5060408201518160020160006101000a81548173ffffffffffffffffffffffffffffffffffffffff021916908373ffffffffffffffffffffffffffffffffffffffff16021790555060608201518160030160006101000a81548173ffffffffffffffffffffffffffffffffffffffff021916908373ffffffffffffffffffffffffffffffffffffffff16021790555060808201518160040160006101000a81548173ffffffffffffffffffffffffffffffffffffffff021916908373ffffffffffffffffffffffffffffffffffffffff16021790555060a082015181600501555050816003600085815260200190815260200160002060006101000a81548173ffffffffffffffffffffffffffffffffffffffff021916908373ffffffffffffffffffffffffffffffffffffffff16021790555086600260008473ffffffffffffffffffffffffffffffffffffffff1673ffffffffffffffffffffffffffffffffffffffff16815260200190815260200160002060006101000a81548173ffffffffffffffffffffffffffffffffffffffff021916908373ffffffffffffffffffffffffffffffffffffffff1602179055506040518060c001604052808a81526020018981526020018373ffffffffffffffffffffffffffffffffffffffff1681526020018873ffffffffffffffffffffffffffffffffffffffff1681526020018773ffffffffffffffffffffffffffffffffffffffff16815260200184815250600160008473ffffffffffffffffffffffffffffffffffffffff1673ffffffffffffffffffffffffffffffffffffffff16815260200190815260200160002060008201518160000190805190602001906200092b92919062000aee565b5060208201518160010190805190602001906200094a92919062000aee565b5060408201518160020160006101000a81548173ffffffffffffffffffffffffffffffffffffffff021916908373ffffffffffffffffffffffffffffffffffffffff16021790555060608201518160030160006101000a81548173ffffffffffffffffffffffffffffffffffffffff021916908373ffffffffffffffffffffffffffffffffffffffff16021790555060808201518160040160006101000a81548173ffffffffffffffffffffffffffffffffffffffff021916908373ffffffffffffffffffffffffffffffffffffffff16021790555060a082015181600501559050508173ffffffffffffffffffffffffffffffffffffffff168860405162000a549190620012b2565b60405180910390208a60405162000a6c9190620012b2565b60405180910390207f7d3da5b1a4bf291efd521b7c555d224c68ad309d115cbedfd93eccf9d47907088a8a8860405162000aa993929190620012cb565b60405180910390a4505050505050505050565b6001816000016000828254019250508190555050565b600081600001549050919050565b610f83806200130983390190565b82805462000afc90620010e4565b90600052602060002090601f01602090048101928262000b20576000855562000b6c565b82601f1062000b3b57805160ff191683800117855562000b6c565b8280016001018555821562000b6c579182015b8281111562000b6b57825182559160200191906001019062000b4e565b5b50905062000b7b919062000b7f565b5090565b5b8082111562000b9a57600081600090555060010162000b80565b5090565b6000604051905090565b600080fd5b600080fd5b600073ffffffffffffffffffffffffffffffffffffffff82169050919050565b600062000bdf8262000bb2565b9050919050565b62000bf18162000bd2565b811462000bfd57600080fd5b50565b60008135905062000c118162000be6565b92915050565b60006020828403121562000c305762000c2f62000ba8565b5b600062000c408482850162000c00565b91505092915050565b600081519050919050565b600082825260208201905092915050565b60005b8381101562000c8557808201518184015260208101905062000c68565b8381111562000c95576000848401525b50505050565b6000601f19601f8301169050919050565b600062000cb98262000c49565b62000cc5818562000c54565b935062000cd781856020860162000c65565b62000ce28162000c9b565b840191505092915050565b62000cf88162000bd2565b82525050565b6000819050919050565b62000d138162000cfe565b82525050565b600060c082019050818103600083015262000d35818962000cac565b9050818103602083015262000d4b818862000cac565b905062000d5c604083018762000ced565b62000d6b606083018662000ced565b62000d7a608083018562000ced565b62000d8960a083018462000d08565b979650505050505050565b600060208201905062000dab600083018462000ced565b92915050565b6000819050919050565b62000dc68162000db1565b82525050565b600060208201905062000de3600083018462000dbb565b92915050565b62000df48162000cfe565b811462000e0057600080fd5b50565b60008135905062000e148162000de9565b92915050565b60006020828403121562000e335762000e3262000ba8565b5b600062000e438482850162000e03565b91505092915050565b600080fd5b600080fd5b7f4e487b7100000000000000000000000000000000000000000000000000000000600052604160045260246000fd5b62000e908262000c9b565b810181811067ffffffffffffffff8211171562000eb25762000eb162000e56565b5b80604052505050565b600062000ec762000b9e565b905062000ed5828262000e85565b919050565b600067ffffffffffffffff82111562000ef85762000ef762000e56565b5b62000f038262000c9b565b9050602081019050919050565b82818337600083830152505050565b600062000f3662000f308462000eda565b62000ebb565b90508281526020810184848401111562000f555762000f5462000e51565b5b62000f6284828562000f10565b509392505050565b600082601f83011262000f825762000f8162000e4c565b5b813562000f9484826020860162000f1f565b91505092915050565b600060ff82169050919050565b62000fb58162000f9d565b811462000fc157600080fd5b50565b60008135905062000fd58162000faa565b92915050565b60008060008060008060c0878903121562000ffb5762000ffa62000ba8565b5b600087013567ffffffffffffffff8111156200101c576200101b62000bad565b5b6200102a89828a0162000f6a565b965050602087013567ffffffffffffffff8111156200104e576200104d62000bad565b5b6200105c89828a0162000f6a565b95505060406200106f89828a0162000c00565b94505060606200108289828a0162000c00565b93505060806200109589828a0162000c00565b92505060a0620010a889828a0162000fc4565b9150509295509295509295565b7f4e487b7100000000000000000000000000000000000000000000000000000000600052602260045260246000fd5b60006002820490506001821680620010fd57607f821691505b60208210811415620011145762001113620010b5565b5b50919050565b6000815190506200112b8162000be6565b92915050565b6000602082840312156200114a576200114962000ba8565b5b60006200115a848285016200111a565b91505092915050565b6200116e8162000f9d565b82525050565b600060a0820190506200118b600083018862000ced565b6200119a602083018762000ced565b8181036040830152620011ae818662000cac565b90508181036060830152620011c4818562000cac565b9050620011d5608083018462001163565b9695505050505050565b600081519050919050565b600082825260208201905092915050565b60006200120882620011df565b620012148185620011ea565b93506200122681856020860162000c65565b620012318162000c9b565b840191505092915050565b600060408201905062001253600083018562000ced565b8181036020830152620012678184620011fb565b90509392505050565b600081905092915050565b6000620012888262000c49565b62001294818562001270565b9350620012a681856020860162000c65565b80840191505092915050565b6000620012c082846200127b565b915081905092915050565b6000606082019050620012e2600083018662000ced565b620012f1602083018562000ced565b62001300604083018462000d08565b94935050505056fe608060405260405162000f8338038062000f838339818101604052810190620000299190620006d1565b6200003d828260006200004560201b60201c565b5050620009f2565b62000056836200014c60201b60201c565b8273ffffffffffffffffffffffffffffffffffffffff167f1cf3b03a6cf19fa2baba4df148e9dcabedea7f8a5c07840e207e5c089be95d3e60405160405180910390a2600082511180620000a75750805b156200014757620001458373ffffffffffffffffffffffffffffffffffffffff16635c60da1b6040518163ffffffff1660e01b815260040160206040518083038186803b158015620000f857600080fd5b505afa1580156200010d573d6000803e3d6000fd5b505050506040513d601f19601f8201168201806040525081019062000133919062000737565b83620002fb60201b620000371760201c565b505b505050565b62000162816200033160201b620000641760201c565b620001a4576040517f08c379a00000000000000000000000000000000000000000000000000000000081526004016200019b90620007f0565b60405180910390fd5b6200023b8173ffffffffffffffffffffffffffffffffffffffff16635c60da1b6040518163ffffffff1660e01b815260040160206040518083038186803b158015620001ef57600080fd5b505afa15801562000204573d6000803e3d6000fd5b505050506040513d601f19601f820116820180604052508101906200022a919062000737565b6200033160201b620000641760201c565b6200027d576040517f08c379a0000000000000000000000000000000000000000000000000000000008152600401620002749062000888565b60405180910390fd5b80620002b77fa3f0ad74e5423aebfd80d3ef4346578335a9a72aeaee59ff6cb3582b35133d5060001b6200035460201b620000871760201c565b60000160006101000a81548173ffffffffffffffffffffffffffffffffffffffff021916908373ffffffffffffffffffffffffffffffffffffffff16021790555050565b606062000329838360405180606001604052806027815260200162000f5c602791396200035e60201b60201c565b905092915050565b6000808273ffffffffffffffffffffffffffffffffffffffff163b119050919050565b6000819050919050565b60606000808573ffffffffffffffffffffffffffffffffffffffff16856040516200038a9190620008f7565b600060405180830381855af49150503d8060008114620003c7576040519150601f19603f3d011682016040523d82523d6000602084013e620003cc565b606091505b5091509150620003e586838387620003f060201b60201c565b925050509392505050565b606083156200046157600083511415620004585762000415856200033160201b60201c565b62000457576040517f08c379a00000000000000000000000000000000000000000000000000000000081526004016200044e9062000960565b60405180910390fd5b5b82905062000474565b6200047383836200047c60201b60201c565b5b949350505050565b600082511115620004905781518083602001fd5b806040517f08c379a0000000000000000000000000000000000000000000000000000000008152600401620004c69190620009ce565b60405180910390fd5b6000604051905090565b600080fd5b600080fd5b600073ffffffffffffffffffffffffffffffffffffffff82169050919050565b60006200051082620004e3565b9050919050565b620005228162000503565b81146200052e57600080fd5b50565b600081519050620005428162000517565b92915050565b600080fd5b600080fd5b6000601f19601f8301169050919050565b7f4e487b7100000000000000000000000000000000000000000000000000000000600052604160045260246000fd5b6200059d8262000552565b810181811067ffffffffffffffff82111715620005bf57620005be62000563565b5b80604052505050565b6000620005d4620004cf565b9050620005e2828262000592565b919050565b600067ffffffffffffffff82111562000605576200060462000563565b5b620006108262000552565b9050602081019050919050565b60005b838110156200063d57808201518184015260208101905062000620565b838111156200064d576000848401525b50505050565b60006200066a6200066484620005e7565b620005c8565b9050828152602081018484840111156200068957620006886200054d565b5b620006968482856200061d565b509392505050565b600082601f830112620006b657620006b562000548565b5b8151620006c884826020860162000653565b91505092915050565b60008060408385031215620006eb57620006ea620004d9565b5b6000620006fb8582860162000531565b925050602083015167ffffffffffffffff8111156200071f576200071e620004de565b5b6200072d858286016200069e565b9150509250929050565b60006020828403121562000750576200074f620004d9565b5b6000620007608482850162000531565b91505092915050565b600082825260208201905092915050565b7f455243313936373a206e657720626561636f6e206973206e6f74206120636f6e60008201527f7472616374000000000000000000000000000000000000000000000000000000602082015250565b6000620007d860258362000769565b9150620007e5826200077a565b604082019050919050565b600060208201905081810360008301526200080b81620007c9565b9050919050565b7f455243313936373a20626561636f6e20696d706c656d656e746174696f6e206960008201527f73206e6f74206120636f6e747261637400000000000000000000000000000000602082015250565b60006200087060308362000769565b91506200087d8262000812565b604082019050919050565b60006020820190508181036000830152620008a38162000861565b9050919050565b600081519050919050565b600081905092915050565b6000620008cd82620008aa565b620008d98185620008b5565b9350620008eb8185602086016200061d565b80840191505092915050565b6000620009058284620008c0565b915081905092915050565b7f416464726573733a2063616c6c20746f206e6f6e2d636f6e7472616374000000600082015250565b600062000948601d8362000769565b9150620009558262000910565b602082019050919050565b600060208201905081810360008301526200097b8162000939565b9050919050565b600081519050919050565b60006200099a8262000982565b620009a6818562000769565b9350620009b88185602086016200061d565b620009c38162000552565b840191505092915050565b60006020820190508181036000830152620009ea81846200098d565b905092915050565b61055a8062000a026000396000f3fe6080604052366100135761001161001d565b005b61001b61001d565b005b610025610091565b610035610030610093565b61011f565b565b606061005c83836040518060600160405280602781526020016104fe60279139610145565b905092915050565b6000808273ffffffffffffffffffffffffffffffffffffffff163b119050919050565b6000819050919050565b565b600061009d6101cb565b73ffffffffffffffffffffffffffffffffffffffff16635c60da1b6040518163ffffffff1660e01b815260040160206040518083038186803b1580156100e257600080fd5b505afa1580156100f6573d6000803e3d6000fd5b505050506040513d601f19601f8201168201806040525081019061011a919061034b565b905090565b3660008037600080366000845af43d6000803e8060008114610140573d6000f35b3d6000fd5b60606000808573ffffffffffffffffffffffffffffffffffffffff168560405161016f91906103f2565b600060405180830381855af49150503d80600081146101aa576040519150601f19603f3d011682016040523d82523d6000602084013e6101af565b606091505b50915091506101c086838387610222565b925050509392505050565b60006101f97fa3f0ad74e5423aebfd80d3ef4346578335a9a72aeaee59ff6cb3582b35133d5060001b610087565b60000160009054906101000a900473ffffffffffffffffffffffffffffffffffffffff16905090565b606083156102855760008351141561027d5761023d85610064565b61027c576040517f08c379a000000000000000000000000000000000000000000000000000000000815260040161027390610466565b60405180910390fd5b5b829050610290565b61028f8383610298565b5b949350505050565b6000825111156102ab5781518083602001fd5b806040517f08c379a00000000000000000000000000000000000000000000000000000000081526004016102df91906104db565b60405180910390fd5b600080fd5b600073ffffffffffffffffffffffffffffffffffffffff82169050919050565b6000610318826102ed565b9050919050565b6103288161030d565b811461033357600080fd5b50565b6000815190506103458161031f565b92915050565b600060208284031215610361576103606102e8565b5b600061036f84828501610336565b91505092915050565b600081519050919050565b600081905092915050565b60005b838110156103ac578082015181840152602081019050610391565b838111156103bb576000848401525b50505050565b60006103cc82610378565b6103d68185610383565b93506103e681856020860161038e565b80840191505092915050565b60006103fe82846103c1565b915081905092915050565b600082825260208201905092915050565b7f416464726573733a2063616c6c20746f206e6f6e2d636f6e7472616374000000600082015250565b6000610450601d83610409565b915061045b8261041a565b602082019050919050565b6000602082019050818103600083015261047f81610443565b9050919050565b600081519050919050565b6000601f19601f8301169050919050565b60006104ad82610486565b6104b78185610409565b93506104c781856020860161038e565b6104d081610491565b840191505092915050565b600060208201905081810360008301526104f581846104a2565b90509291505056fe416464726573733a206c6f772d6c6576656c2064656c65676174652063616c6c206661696c6564a2646970667358221220155e79e200f23defcdc5f0f1dc77c4c4abf1c8d4544ea363960ebc2c21cbcac764736f6c63430008080033416464726573733a206c6f772d6c6576656c2064656c65676174652063616c6c206661696c6564a2646970667358221220edd1c28d09991d54b5668728b26895df7dee35ca24079175b089037c2e5b5ebc64736f6c6343000808003360a06040523480156200001157600080fd5b50604051620015bd380380620015bd83398181016040528101906200003791906200038e565b62000048336200011060201b60201c565b80604051620000579062000316565b620000639190620003d1565b604051809103906000f08015801562000080573d6000803e3d6000fd5b5073ffffffffffffffffffffffffffffffffffffffff1660808173ffffffffffffffffffffffffffffffffffffffff1660601b8152505080600160006101000a81548173ffffffffffffffffffffffffffffffffffffffff021916908373ffffffffffffffffffffffffffffffffffffffff1602179055506200010932620001d460201b60201c565b5062000509565b60008060009054906101000a900473ffffffffffffffffffffffffffffffffffffffff169050816000806101000a81548173ffffffffffffffffffffffffffffffffffffffff021916908373ffffffffffffffffffffffffffffffffffffffff1602179055508173ffffffffffffffffffffffffffffffffffffffff168173ffffffffffffffffffffffffffffffffffffffff167f8be0079c531659141344cd1fd0a4f28419497f9722a3daafe3b4186f6b6457e060405160405180910390a35050565b620001e46200026b60201b60201c565b600073ffffffffffffffffffffffffffffffffffffffff168173ffffffffffffffffffffffffffffffffffffffff16141562000257576040517f08c379a00000000000000000000000000000000000000000000000000000000081526004016200024e9062000475565b60405180910390fd5b62000268816200011060201b60201c565b50565b3373ffffffffffffffffffffffffffffffffffffffff1662000292620002ed60201b60201c565b73ffffffffffffffffffffffffffffffffffffffff1614620002eb576040517f08c379a0000000000000000000000000000000000000000000000000000000008152600401620002e290620004e7565b60405180910390fd5b565b60008060009054906101000a900473ffffffffffffffffffffffffffffffffffffffff16905090565b6109ac8062000c1183390190565b600080fd5b600073ffffffffffffffffffffffffffffffffffffffff82169050919050565b6000620003568262000329565b9050919050565b620003688162000349565b81146200037457600080fd5b50565b60008151905062000388816200035d565b92915050565b600060208284031215620003a757620003a662000324565b5b6000620003b78482850162000377565b91505092915050565b620003cb8162000349565b82525050565b6000602082019050620003e86000830184620003c0565b92915050565b600082825260208201905092915050565b7f4f776e61626c653a206e6577206f776e657220697320746865207a65726f206160008201527f6464726573730000000000000000000000000000000000000000000000000000602082015250565b60006200045d602683620003ee565b91506200046a82620003ff565b604082019050919050565b6000602082019050818103600083015262000490816200044e565b9050919050565b7f4f776e61626c653a2063616c6c6572206973206e6f7420746865206f776e6572600082015250565b6000620004cf602083620003ee565b9150620004dc8262000497565b602082019050919050565b600060208201905081810360008301526200050281620004c0565b9050919050565b60805160601c6106e26200052f6000396000818161010d01526101de01526106e26000f3fe608060405234801561001057600080fd5b50600436106100625760003560e01c80631c1b8772146100675780635c60da1b146100835780635fe810b3146100a1578063715018a6146100bf5780638da5cb5b146100c9578063f2fde38b146100e7575b600080fd5b610081600480360381019061007c9190610504565b610103565b005b61008b6101da565b6040516100989190610540565b60405180910390f35b6100a961027f565b6040516100b69190610540565b60405180910390f35b6100c76102a5565b005b6100d16102b9565b6040516100de9190610540565b60405180910390f35b61010160048036038101906100fc9190610504565b6102e2565b005b61010b610366565b7f000000000000000000000000000000000000000000000000000000000000000073ffffffffffffffffffffffffffffffffffffffff16633659cfe6826040518263ffffffff1660e01b81526004016101649190610540565b600060405180830381600087803b15801561017e57600080fd5b505af1158015610192573d6000803e3d6000fd5b5050505080600160006101000a81548173ffffffffffffffffffffffffffffffffffffffff021916908373ffffffffffffffffffffffffffffffffffffffff16021790555050565b60007f000000000000000000000000000000000000000000000000000000000000000073ffffffffffffffffffffffffffffffffffffffff16635c60da1b6040518163ffffffff1660e01b815260040160206040518083038186803b15801561024257600080fd5b505afa158015610256573d6000803e3d6000fd5b505050506040513d601f19601f8201168201806040525081019061027a9190610570565b905090565b600160009054906101000a900473ffffffffffffffffffffffffffffffffffffffff1681565b6102ad610366565b6102b760006103dd565b565b60008060009054906101000a900473ffffffffffffffffffffffffffffffffffffffff16905090565b6102ea610366565b600073ffffffffffffffffffffffffffffffffffffffff168173ffffffffffffffffffffffffffffffffffffffff16141561035a576040517f08c379a000000000000000000000000000000000000000000000000000000000815260040161035190610620565b60405180910390fd5b610363816103dd565b50565b3373ffffffffffffffffffffffffffffffffffffffff166103856102b9565b73ffffffffffffffffffffffffffffffffffffffff16146103db576040517f08c379a00000000000000000000000000000000000000000000000000000000081526004016103d29061068c565b60405180910390fd5b565b60008060009054906101000a900473ffffffffffffffffffffffffffffffffffffffff169050816000806101000a81548173ffffffffffffffffffffffffffffffffffffffff021916908373ffffffffffffffffffffffffffffffffffffffff1602179055508173ffffffffffffffffffffffffffffffffffffffff168173ffffffffffffffffffffffffffffffffffffffff167f8be0079c531659141344cd1fd0a4f28419497f9722a3daafe3b4186f6b6457e060405160405180910390a35050565b600080fd5b600073ffffffffffffffffffffffffffffffffffffffff82169050919050565b60006104d1826104a6565b9050919050565b6104e1816104c6565b81146104ec57600080fd5b50565b6000813590506104fe816104d8565b92915050565b60006020828403121561051a576105196104a1565b5b6000610528848285016104ef565b91505092915050565b61053a816104c6565b82525050565b60006020820190506105556000830184610531565b92915050565b60008151905061056a816104d8565b92915050565b600060208284031215610586576105856104a1565b5b60006105948482850161055b565b91505092915050565b600082825260208201905092915050565b7f4f776e61626c653a206e6577206f776e657220697320746865207a65726f206160008201527f6464726573730000000000000000000000000000000000000000000000000000602082015250565b600061060a60268361059d565b9150610615826105ae565b604082019050919050565b60006020820190508181036000830152610639816105fd565b9050919050565b7f4f776e61626c653a2063616c6c6572206973206e6f7420746865206f776e6572600082015250565b600061067660208361059d565b915061068182610640565b602082019050919050565b600060208201905081810360008301526106a581610669565b905091905056fea2646970667358221220fac70f4a2925c499b85ab56a56086e63bf68f313a420c070deb0510c9bbb536664736f6c63430008080033608060405234801561001057600080fd5b506040516109ac3803806109ac83398181016040528101906100329190610236565b6100413361005660201b60201c565b6100508161011a60201b60201c565b50610306565b60008060009054906101000a900473ffffffffffffffffffffffffffffffffffffffff169050816000806101000a81548173ffffffffffffffffffffffffffffffffffffffff021916908373ffffffffffffffffffffffffffffffffffffffff1602179055508173ffffffffffffffffffffffffffffffffffffffff168173ffffffffffffffffffffffffffffffffffffffff167f8be0079c531659141344cd1fd0a4f28419497f9722a3daafe3b4186f6b6457e060405160405180910390a35050565b61012d816101b060201b61021c1760201c565b61016c576040517f08c379a0000000000000000000000000000000000000000000000000000000008152600401610163906102e6565b60405180910390fd5b80600160006101000a81548173ffffffffffffffffffffffffffffffffffffffff021916908373ffffffffffffffffffffffffffffffffffffffff16021790555050565b6000808273ffffffffffffffffffffffffffffffffffffffff163b119050919050565b600080fd5b600073ffffffffffffffffffffffffffffffffffffffff82169050919050565b6000610203826101d8565b9050919050565b610213816101f8565b811461021e57600080fd5b50565b6000815190506102308161020a565b92915050565b60006020828403121561024c5761024b6101d3565b5b600061025a84828501610221565b91505092915050565b600082825260208201905092915050565b7f5570677261646561626c65426561636f6e3a20696d706c656d656e746174696f60008201527f6e206973206e6f74206120636f6e747261637400000000000000000000000000602082015250565b60006102d0603383610263565b91506102db82610274565b604082019050919050565b600060208201905081810360008301526102ff816102c3565b9050919050565b610697806103156000396000f3fe608060405234801561001057600080fd5b50600436106100575760003560e01c80633659cfe61461005c5780635c60da1b14610078578063715018a6146100965780638da5cb5b146100a0578063f2fde38b146100be575b600080fd5b61007660048036038101906100719190610469565b6100da565b005b610080610131565b60405161008d91906104a5565b60405180910390f35b61009e61015b565b005b6100a861016f565b6040516100b591906104a5565b60405180910390f35b6100d860048036038101906100d39190610469565b610198565b005b6100e261023f565b6100eb816102b6565b8073ffffffffffffffffffffffffffffffffffffffff167fbc7cd75a20ee27fd9adebab32041f755214dbc6bffa90cc0225b39da2e5c2d3b60405160405180910390a250565b6000600160009054906101000a900473ffffffffffffffffffffffffffffffffffffffff16905090565b61016361023f565b61016d6000610342565b565b60008060009054906101000a900473ffffffffffffffffffffffffffffffffffffffff16905090565b6101a061023f565b600073ffffffffffffffffffffffffffffffffffffffff168173ffffffffffffffffffffffffffffffffffffffff161415610210576040517f08c379a000000000000000000000000000000000000000000000000000000000815260040161020790610543565b60405180910390fd5b61021981610342565b50565b6000808273ffffffffffffffffffffffffffffffffffffffff163b119050919050565b3373ffffffffffffffffffffffffffffffffffffffff1661025e61016f565b73ffffffffffffffffffffffffffffffffffffffff16146102b4576040517f08c379a00000000000000000000000000000000000000000000000000000000081526004016102ab906105af565b60405180910390fd5b565b6102bf8161021c565b6102fe576040517f08c379a00000000000000000000000000000000000000000000000000000000081526004016102f590610641565b60405180910390fd5b80600160006101000a81548173ffffffffffffffffffffffffffffffffffffffff021916908373ffffffffffffffffffffffffffffffffffffffff16021790555050565b60008060009054906101000a900473ffffffffffffffffffffffffffffffffffffffff169050816000806101000a81548173ffffffffffffffffffffffffffffffffffffffff021916908373ffffffffffffffffffffffffffffffffffffffff1602179055508173ffffffffffffffffffffffffffffffffffffffff168173ffffffffffffffffffffffffffffffffffffffff167f8be0079c531659141344cd1fd0a4f28419497f9722a3daafe3b4186f6b6457e060405160405180910390a35050565b600080fd5b600073ffffffffffffffffffffffffffffffffffffffff82169050919050565b60006104368261040b565b9050919050565b6104468161042b565b811461045157600080fd5b50565b6000813590506104638161043d565b92915050565b60006020828403121561047f5761047e610406565b5b600061048d84828501610454565b91505092915050565b61049f8161042b565b82525050565b60006020820190506104ba6000830184610496565b92915050565b600082825260208201905092915050565b7f4f776e61626c653a206e6577206f776e657220697320746865207a65726f206160008201527f6464726573730000000000000000000000000000000000000000000000000000602082015250565b600061052d6026836104c0565b9150610538826104d1565b604082019050919050565b6000602082019050818103600083015261055c81610520565b9050919050565b7f4f776e61626c653a2063616c6c6572206973206e6f7420746865206f776e6572600082015250565b60006105996020836104c0565b91506105a482610563565b602082019050919050565b600060208201905081810360008301526105c88161058c565b9050919050565b7f5570677261646561626c65426561636f6e3a20696d706c656d656e746174696f60008201527f6e206973206e6f74206120636f6e747261637400000000000000000000000000602082015250565b600061062b6033836104c0565b9150610636826105cf565b604082019050919050565b6000602082019050818103600083015261065a8161061e565b905091905056fea264697066735822122038414a8620da5a35c6143ed1e2feb0fb11411a203ebdb95edfeb50f8e8d37d6164736f6c63430008080033",
  "linkReferences": {},
  "deployedLinkReferences": {}
}