{
  "_format": "hh-sol-artifact-1",
  "contractName": "VaultFactory",
  "sourceName": "contracts/VaultFactory.sol",
  "abi": [
    {
      "inputs": [
        {
          "internalType": "address",
          "name": "_SquiddyCore",
          "type": "address"
        }
      ],
      "stateMutability": "nonpayable",
      "type": "constructor"
    },
    {
      "anonymous": false,
      "inputs": [
        {
          "indexed": true,
          "internalType": "string",
          "name": "name",
          "type": "string"
        },
        {
          "indexed": true,
          "internalType": "string",
          "name": "symbol",
          "type": "string"
        },
        {
          "indexed": true,
          "internalType": "address",
          "name": "vaultAddress",
          "type": "address"
        },
        {
          "indexed": false,
          "internalType": "address",
          "name": "strategyAddress",
          "type": "address"
        },
        {
          "indexed": false,
          "internalType": "address",
          "name": "managerAddress",
          "type": "address"
        },
        {
          "indexed": false,
          "internalType": "uint256",
          "name": "index",
          "type": "uint256"
        }
      ],
      "name": "NewVault",
      "type": "event"
    },
    {
      "anonymous": false,
      "inputs": [
        {
          "indexed": true,
          "internalType": "bytes32",
          "name": "role",
          "type": "bytes32"
        },
        {
          "indexed": true,
          "internalType": "bytes32",
          "name": "previousAdminRole",
          "type": "bytes32"
        },
        {
          "indexed": true,
          "internalType": "bytes32",
          "name": "newAdminRole",
          "type": "bytes32"
        }
      ],
      "name": "RoleAdminChanged",
      "type": "event"
    },
    {
      "anonymous": false,
      "inputs": [
        {
          "indexed": true,
          "internalType": "bytes32",
          "name": "role",
          "type": "bytes32"
        },
        {
          "indexed": true,
          "internalType": "address",
          "name": "account",
          "type": "address"
        },
        {
          "indexed": true,
          "internalType": "address",
          "name": "sender",
          "type": "address"
        }
      ],
      "name": "RoleGranted",
      "type": "event"
    },
    {
      "anonymous": false,
      "inputs": [
        {
          "indexed": true,
          "internalType": "bytes32",
          "name": "role",
          "type": "bytes32"
        },
        {
          "indexed": true,
          "internalType": "address",
          "name": "account",
          "type": "address"
        },
        {
          "indexed": true,
          "internalType": "address",
          "name": "sender",
          "type": "address"
        }
      ],
      "name": "RoleRevoked",
      "type": "event"
    },
    {
      "inputs": [],
      "name": "DEFAULT_ADMIN_ROLE",
      "outputs": [
        {
          "internalType": "bytes32",
          "name": "",
          "type": "bytes32"
        }
      ],
      "stateMutability": "view",
      "type": "function"
    },
    {
      "inputs": [],
      "name": "VAULT_ADMIN",
      "outputs": [
        {
          "internalType": "bytes32",
          "name": "",
          "type": "bytes32"
        }
      ],
      "stateMutability": "view",
      "type": "function"
    },
    {
      "inputs": [],
      "name": "VAULT_FACTORY_ROLE",
      "outputs": [
        {
          "internalType": "bytes32",
          "name": "",
          "type": "bytes32"
        }
      ],
      "stateMutability": "view",
      "type": "function"
    },
    {
      "inputs": [
        {
          "internalType": "string",
          "name": "_name",
          "type": "string"
        },
        {
          "internalType": "string",
          "name": "_symbol",
          "type": "string"
        },
        {
          "internalType": "address",
          "name": "_strategyAddress",
          "type": "address"
        },
        {
          "internalType": "address",
          "name": "_managerAddress",
          "type": "address"
        },
        {
          "internalType": "address",
          "name": "_assetAddress",
          "type": "address"
        },
        {
          "internalType": "uint8",
          "name": "_assetDecimals",
          "type": "uint8"
        }
      ],
      "name": "buildVault",
      "outputs": [],
      "stateMutability": "nonpayable",
      "type": "function"
    },
    {
      "inputs": [],
      "name": "fetchAllVaults",
      "outputs": [
        {
          "components": [
            {
              "internalType": "string",
              "name": "name",
              "type": "string"
            },
            {
              "internalType": "string",
              "name": "symbol",
              "type": "string"
            },
            {
              "internalType": "address",
              "name": "vaultAddress",
              "type": "address"
            },
            {
              "internalType": "address",
              "name": "strategyAddress",
              "type": "address"
            },
            {
              "internalType": "address",
              "name": "managerAddress",
              "type": "address"
            },
            {
              "internalType": "address",
              "name": "assetAddress",
              "type": "address"
            },
            {
              "internalType": "uint256",
              "name": "index",
              "type": "uint256"
            }
          ],
          "internalType": "struct VaultFactory.VaultDetails[]",
          "name": "",
          "type": "tuple[]"
        }
      ],
      "stateMutability": "view",
      "type": "function"
    },
    {
      "inputs": [],
      "name": "getBeacon",
      "outputs": [
        {
          "internalType": "address",
          "name": "",
          "type": "address"
        }
      ],
      "stateMutability": "view",
      "type": "function"
    },
    {
      "inputs": [],
      "name": "getImplementation",
      "outputs": [
        {
          "internalType": "address",
          "name": "",
          "type": "address"
        }
      ],
      "stateMutability": "view",
      "type": "function"
    },
    {
      "inputs": [
        {
          "internalType": "bytes32",
          "name": "role",
          "type": "bytes32"
        }
      ],
      "name": "getRoleAdmin",
      "outputs": [
        {
          "internalType": "bytes32",
          "name": "",
          "type": "bytes32"
        }
      ],
      "stateMutability": "view",
      "type": "function"
    },
    {
      "inputs": [
        {
          "internalType": "bytes32",
          "name": "role",
          "type": "bytes32"
        },
        {
          "internalType": "address",
          "name": "account",
          "type": "address"
        }
      ],
      "name": "grantRole",
      "outputs": [],
      "stateMutability": "nonpayable",
      "type": "function"
    },
    {
      "inputs": [
        {
          "internalType": "bytes32",
          "name": "role",
          "type": "bytes32"
        },
        {
          "internalType": "address",
          "name": "account",
          "type": "address"
        }
      ],
      "name": "hasRole",
      "outputs": [
        {
          "internalType": "bool",
          "name": "",
          "type": "bool"
        }
      ],
      "stateMutability": "view",
      "type": "function"
    },
    {
      "inputs": [
        {
          "internalType": "uint8",
          "name": "index",
          "type": "uint8"
        }
      ],
      "name": "removeVaultContractFromFrontend",
      "outputs": [],
      "stateMutability": "nonpayable",
      "type": "function"
    },
    {
      "inputs": [],
      "name": "removedVaults",
      "outputs": [
        {
          "internalType": "uint256",
          "name": "_value",
          "type": "uint256"
        }
      ],
      "stateMutability": "view",
      "type": "function"
    },
    {
      "inputs": [
        {
          "internalType": "bytes32",
          "name": "role",
          "type": "bytes32"
        },
        {
          "internalType": "address",
          "name": "account",
          "type": "address"
        }
      ],
      "name": "renounceRole",
      "outputs": [],
      "stateMutability": "nonpayable",
      "type": "function"
    },
    {
      "inputs": [
        {
          "internalType": "bytes32",
          "name": "role",
          "type": "bytes32"
        },
        {
          "internalType": "address",
          "name": "account",
          "type": "address"
        }
      ],
      "name": "revokeRole",
      "outputs": [],
      "stateMutability": "nonpayable",
      "type": "function"
    },
    {
      "inputs": [
        {
          "internalType": "bytes4",
          "name": "interfaceId",
          "type": "bytes4"
        }
      ],
      "name": "supportsInterface",
      "outputs": [
        {
          "internalType": "bool",
          "name": "",
          "type": "bool"
        }
      ],
      "stateMutability": "view",
      "type": "function"
    },
    {
      "inputs": [
        {
          "internalType": "address",
          "name": "",
          "type": "address"
        }
      ],
      "name": "vaultAddress_to_strategyAddress",
      "outputs": [
        {
          "internalType": "address",
          "name": "",
          "type": "address"
        }
      ],
      "stateMutability": "view",
      "type": "function"
    },
    {
      "inputs": [],
      "name": "vaultId",
      "outputs": [
        {
          "internalType": "uint256",
          "name": "_value",
          "type": "uint256"
        }
      ],
      "stateMutability": "view",
      "type": "function"
    },
    {
      "inputs": [
        {
          "internalType": "uint256",
          "name": "",
          "type": "uint256"
        }
      ],
      "name": "vaultId_to_isActive",
      "outputs": [
        {
          "internalType": "bool",
          "name": "",
          "type": "bool"
        }
      ],
      "stateMutability": "view",
      "type": "function"
    },
    {
      "inputs": [
        {
          "internalType": "uint256",
          "name": "",
          "type": "uint256"
        }
      ],
      "name": "vaultId_to_vaultAddress",
      "outputs": [
        {
          "internalType": "address",
          "name": "",
          "type": "address"
        }
      ],
      "stateMutability": "view",
      "type": "function"
    },
    {
      "inputs": [
        {
          "internalType": "uint256",
          "name": "",
          "type": "uint256"
        }
      ],
      "name": "vaultId_to_vaultDetails",
      "outputs": [
        {
          "internalType": "string",
          "name": "name",
          "type": "string"
        },
        {
          "internalType": "string",
          "name": "symbol",
          "type": "string"
        },
        {
          "internalType": "address",
          "name": "vaultAddress",
          "type": "address"
        },
        {
          "internalType": "address",
          "name": "strategyAddress",
          "type": "address"
        },
        {
          "internalType": "address",
          "name": "managerAddress",
          "type": "address"
        },
        {
          "internalType": "address",
          "name": "assetAddress",
          "type": "address"
        },
        {
          "internalType": "uint256",
          "name": "index",
          "type": "uint256"
        }
      ],
      "stateMutability": "view",
      "type": "function"
    }
  ],
  "bytecode": "0x60806040523480156200001157600080fd5b5060405162005548380380620055488339818101604052810190620000379190620002ef565b80604051620000469062000277565b62000052919062000332565b604051809103906000f0801580156200006f573d6000803e3d6000fd5b50600760006101000a81548173ffffffffffffffffffffffffffffffffffffffff021916908373ffffffffffffffffffffffffffffffffffffffff160217905550620000c56000801b33620000fe60201b60201c565b620000f77fb15e2bb6de8e562b452dcfd0ca719f799c9919f6645dee389052d6326e77eb6033620000fe60201b60201c565b506200034f565b6200011082826200011460201b60201c565b5050565b6200012682826200020560201b60201c565b6200020157600160008084815260200190815260200160002060000160008373ffffffffffffffffffffffffffffffffffffffff1673ffffffffffffffffffffffffffffffffffffffff16815260200190815260200160002060006101000a81548160ff021916908315150217905550620001a66200026f60201b60201c565b73ffffffffffffffffffffffffffffffffffffffff168173ffffffffffffffffffffffffffffffffffffffff16837f2f8788117e7eff1d82e926ec794901d17c78024a50270940304540a733656f0d60405160405180910390a45b5050565b600080600084815260200190815260200160002060000160008373ffffffffffffffffffffffffffffffffffffffff1673ffffffffffffffffffffffffffffffffffffffff16815260200190815260200160002060009054906101000a900460ff16905092915050565b600033905090565b6115bd8062003f8b83390190565b600080fd5b600073ffffffffffffffffffffffffffffffffffffffff82169050919050565b6000620002b7826200028a565b9050919050565b620002c981620002aa565b8114620002d557600080fd5b50565b600081519050620002e981620002be565b92915050565b60006020828403121562000308576200030762000285565b5b60006200031884828501620002d8565b91505092915050565b6200032c81620002aa565b82525050565b600060208201905062000349600083018462000321565b92915050565b613c2c806200035f6000396000f3fe60806040523480156200001157600080fd5b5060043610620001475760003560e01c8063a217fddf11620000bd578063cb824373116200007b578063cb82437314620003ae578063ce38cb5c14620003d0578063d547741f1462000406578063d8c2c9ed1462000426578063e36965e114620004465762000147565b8063a217fddf14620002f2578063aa36082f1462000314578063aaf10f421462000334578063b258a6f51462000356578063b50a97be14620003785762000147565b80632d6b3a6b116200010b5780632d6b3a6b14620002385780632f2ff15d146200025a57806333194c0a146200027a57806336568abe146200029c57806391d1485414620002bc5762000147565b80621fe07d146200014c57806301ffc9a7146200016e5780630b7b6c2b14620001a4578063248a9ca314620001c6578063288b0ad814620001fc575b600080fd5b620001566200047c565b60405162000165919062001df7565b60405180910390f35b6200018c600480360381019062000186919062001e8c565b6200089e565b6040516200019b919062001edb565b60405180910390f35b620001ae6200091b565b604051620001bd919062001f09565b60405180910390f35b620001e46004803603810190620001de919062001f61565b62000927565b604051620001f3919062001fa4565b60405180910390f35b6200021a600480360381019062000214919062001ff2565b62000946565b6040516200022f979695949392919062002087565b60405180910390f35b6200024262000b28565b60405162000251919062002112565b60405180910390f35b62000278600480360381019062000272919062002160565b62000b52565b005b6200028462000b79565b60405162000293919062001f09565b60405180910390f35b620002ba6004803603810190620002b4919062002160565b62000b85565b005b620002da6004803603810190620002d4919062002160565b62000c0f565b604051620002e9919062001edb565b60405180910390f35b620002fc62000c79565b6040516200030b919062001fa4565b60405180910390f35b6200033260048036038101906200032c9190620021e5565b62000c80565b005b6200033e62000dec565b6040516200034d919062002112565b60405180910390f35b6200036062000e97565b6040516200036f919062001fa4565b60405180910390f35b62000396600480360381019062000390919062002217565b62000ebb565b604051620003a5919062002112565b60405180910390f35b620003b862000eee565b604051620003c7919062001fa4565b60405180910390f35b620003ee6004803603810190620003e8919062001ff2565b62000f12565b604051620003fd919062002112565b60405180910390f35b6200042460048036038101906200041e919062002160565b62000f45565b005b6200044460048036038101906200043e91906200239a565b62000f6c565b005b6200046460048036038101906200045e919062001ff2565b62001483565b60405162000473919062001edb565b60405180910390f35b606060006200048c6001620014a3565b905060006200049c6002620014a3565b620004a86001620014a3565b620004b49190620024a3565b90506000808267ffffffffffffffff811115620004d657620004d562002253565b5b6040519080825280602002602001820160405280156200051357816020015b620004ff62001a1f565b815260200190600190039081620004f55790505b50905060008414156200052d57809450505050506200089b565b60005b8481101562000892576000600660006001846200054e9190620024de565b815260200190815260200160002060009054906101000a900460ff1690506001151581151514156200087b5760006001836200058b9190620024de565b90506000600360008381526020019081526020016000209050806040518060e0016040529081600082018054620005c2906200256a565b80601f0160208091040260200160405190810160405280929190818152602001828054620005f0906200256a565b8015620006415780601f10620006155761010080835404028352916020019162000641565b820191906000526020600020905b8154815290600101906020018083116200062357829003601f168201915b505050505081526020016001820180546200065c906200256a565b80601f01602080910402602001604051908101604052809291908181526020018280546200068a906200256a565b8015620006db5780601f10620006af57610100808354040283529160200191620006db565b820191906000526020600020905b815481529060010190602001808311620006bd57829003601f168201915b505050505081526020016002820160009054906101000a900473ffffffffffffffffffffffffffffffffffffffff1673ffffffffffffffffffffffffffffffffffffffff1673ffffffffffffffffffffffffffffffffffffffff1681526020016003820160009054906101000a900473ffffffffffffffffffffffffffffffffffffffff1673ffffffffffffffffffffffffffffffffffffffff1673ffffffffffffffffffffffffffffffffffffffff1681526020016004820160009054906101000a900473ffffffffffffffffffffffffffffffffffffffff1673ffffffffffffffffffffffffffffffffffffffff1673ffffffffffffffffffffffffffffffffffffffff1681526020016005820160009054906101000a900473ffffffffffffffffffffffffffffffffffffffff1673ffffffffffffffffffffffffffffffffffffffff1673ffffffffffffffffffffffffffffffffffffffff1681526020016006820154815250508587815181106200085c576200085b620025a0565b5b6020026020010181905250600186620008769190620024de565b955050505b5080806200088990620025cf565b91505062000530565b50809450505050505b90565b60007f7965db0b000000000000000000000000000000000000000000000000000000007bffffffffffffffffffffffffffffffffffffffffffffffffffffffff1916827bffffffffffffffffffffffffffffffffffffffffffffffffffffffff191614806200091457506200091382620014b1565b5b9050919050565b60028060000154905081565b6000806000838152602001908152602001600020600101549050919050565b60036020528060005260406000206000915090508060000180546200096b906200256a565b80601f016020809104026020016040519081016040528092919081815260200182805462000999906200256a565b8015620009ea5780601f10620009be57610100808354040283529160200191620009ea565b820191906000526020600020905b815481529060010190602001808311620009cc57829003601f168201915b50505050509080600101805462000a01906200256a565b80601f016020809104026020016040519081016040528092919081815260200182805462000a2f906200256a565b801562000a805780601f1062000a545761010080835404028352916020019162000a80565b820191906000526020600020905b81548152906001019060200180831162000a6257829003601f168201915b5050505050908060020160009054906101000a900473ffffffffffffffffffffffffffffffffffffffff16908060030160009054906101000a900473ffffffffffffffffffffffffffffffffffffffff16908060040160009054906101000a900473ffffffffffffffffffffffffffffffffffffffff16908060050160009054906101000a900473ffffffffffffffffffffffffffffffffffffffff16908060060154905087565b6000600760009054906101000a900473ffffffffffffffffffffffffffffffffffffffff16905090565b62000b5d8262000927565b62000b68816200151b565b62000b74838362001533565b505050565b60018060000154905081565b62000b8f62001618565b73ffffffffffffffffffffffffffffffffffffffff168173ffffffffffffffffffffffffffffffffffffffff161462000bff576040517f08c379a000000000000000000000000000000000000000000000000000000000815260040162000bf69062002693565b60405180910390fd5b62000c0b828262001620565b5050565b600080600084815260200190815260200160002060000160008373ffffffffffffffffffffffffffffffffffffffff1673ffffffffffffffffffffffffffffffffffffffff16815260200190815260200160002060009054906101000a900460ff16905092915050565b6000801b81565b62000cac7fb15e2bb6de8e562b452dcfd0ca719f799c9919f6645dee389052d6326e77eb603362000c0f565b62000cee576040517f08c379a000000000000000000000000000000000000000000000000000000000815260040162000ce5906200272b565b60405180910390fd5b600062000cfc6001620014a3565b9050808260ff16111562000d47576040517f08c379a000000000000000000000000000000000000000000000000000000000815260040162000d3e90620027c3565b60405180910390fd5b600660008360ff16815260200190815260200160002060009054906101000a900460ff1662000dad576040517f08c379a000000000000000000000000000000000000000000000000000000000815260040162000da4906200285b565b60405180910390fd5b62000db9600262001706565b6000600660008460ff16815260200190815260200160002060006101000a81548160ff0219169083151502179055505050565b6000600760009054906101000a900473ffffffffffffffffffffffffffffffffffffffff1673ffffffffffffffffffffffffffffffffffffffff16635c60da1b6040518163ffffffff1660e01b815260040160206040518083038186803b15801562000e5757600080fd5b505afa15801562000e6c573d6000803e3d6000fd5b505050506040513d601f19601f8201168201806040525081019062000e92919062002894565b905090565b7f7c3948777991e30efc945b298d109fc7a0c0de63dd562adfea7f970336f317b081565b60046020528060005260406000206000915054906101000a900473ffffffffffffffffffffffffffffffffffffffff1681565b7fb15e2bb6de8e562b452dcfd0ca719f799c9919f6645dee389052d6326e77eb6081565b60056020528060005260406000206000915054906101000a900473ffffffffffffffffffffffffffffffffffffffff1681565b62000f508262000927565b62000f5b816200151b565b62000f67838362001620565b505050565b62000f78600162001706565b600062000f866001620014a3565b90506000600760009054906101000a900473ffffffffffffffffffffffffffffffffffffffff16639309971c60e01b85878b8b8860405160240162000fd0959493929190620028d7565b604051602081830303815290604052907bffffffffffffffffffffffffffffffffffffffffffffffffffffffff19166020820180517bffffffffffffffffffffffffffffffffffffffffffffffffffffffff83818316178352505050506040516200103b9062001ab4565b620010489291906200299f565b604051809103906000f08015801562001065573d6000803e3d6000fd5b5090506040518060e001604052808981526020018881526020018273ffffffffffffffffffffffffffffffffffffffff1681526020018773ffffffffffffffffffffffffffffffffffffffff1681526020018673ffffffffffffffffffffffffffffffffffffffff1681526020018573ffffffffffffffffffffffffffffffffffffffff1681526020018381525050806005600084815260200190815260200160002060006101000a81548173ffffffffffffffffffffffffffffffffffffffff021916908373ffffffffffffffffffffffffffffffffffffffff16021790555085600460008373ffffffffffffffffffffffffffffffffffffffff1673ffffffffffffffffffffffffffffffffffffffff16815260200190815260200160002060006101000a81548173ffffffffffffffffffffffffffffffffffffffff021916908373ffffffffffffffffffffffffffffffffffffffff16021790555060016006600084815260200190815260200160002060006101000a81548160ff0219169083151502179055506040518060e001604052808981526020018881526020018273ffffffffffffffffffffffffffffffffffffffff1681526020018773ffffffffffffffffffffffffffffffffffffffff1681526020018673ffffffffffffffffffffffffffffffffffffffff1681526020018573ffffffffffffffffffffffffffffffffffffffff16815260200183815250600360008481526020019081526020016000206000820151816000019080519060200190620012ac92919062001ac2565b506020820151816001019080519060200190620012cb92919062001ac2565b5060408201518160020160006101000a81548173ffffffffffffffffffffffffffffffffffffffff021916908373ffffffffffffffffffffffffffffffffffffffff16021790555060608201518160030160006101000a81548173ffffffffffffffffffffffffffffffffffffffff021916908373ffffffffffffffffffffffffffffffffffffffff16021790555060808201518160040160006101000a81548173ffffffffffffffffffffffffffffffffffffffff021916908373ffffffffffffffffffffffffffffffffffffffff16021790555060a08201518160050160006101000a81548173ffffffffffffffffffffffffffffffffffffffff021916908373ffffffffffffffffffffffffffffffffffffffff16021790555060c082015181600601559050508073ffffffffffffffffffffffffffffffffffffffff16876040516200141c919062002a15565b60405180910390208960405162001434919062002a15565b60405180910390207f7d3da5b1a4bf291efd521b7c555d224c68ad309d115cbedfd93eccf9d4790708898987604051620014719392919062002a2e565b60405180910390a45050505050505050565b60066020528060005260406000206000915054906101000a900460ff1681565b600081600001549050919050565b60007f01ffc9a7000000000000000000000000000000000000000000000000000000007bffffffffffffffffffffffffffffffffffffffffffffffffffffffff1916827bffffffffffffffffffffffffffffffffffffffffffffffffffffffff1916149050919050565b62001530816200152a62001618565b6200171c565b50565b6200153f828262000c0f565b6200161457600160008084815260200190815260200160002060000160008373ffffffffffffffffffffffffffffffffffffffff1673ffffffffffffffffffffffffffffffffffffffff16815260200190815260200160002060006101000a81548160ff021916908315150217905550620015b962001618565b73ffffffffffffffffffffffffffffffffffffffff168173ffffffffffffffffffffffffffffffffffffffff16837f2f8788117e7eff1d82e926ec794901d17c78024a50270940304540a733656f0d60405160405180910390a45b5050565b600033905090565b6200162c828262000c0f565b156200170257600080600084815260200190815260200160002060000160008373ffffffffffffffffffffffffffffffffffffffff1673ffffffffffffffffffffffffffffffffffffffff16815260200190815260200160002060006101000a81548160ff021916908315150217905550620016a762001618565b73ffffffffffffffffffffffffffffffffffffffff168173ffffffffffffffffffffffffffffffffffffffff16837ff6391f5c32d9c69d2a47ea670b442974b53935d1edc7fd64eb21e047a839171b60405160405180910390a45b5050565b6001816000016000828254019250508190555050565b62001728828262000c0f565b620017c057620017508173ffffffffffffffffffffffffffffffffffffffff166014620017c4565b620017608360001c6020620017c4565b6040516020016200177392919062002b0b565b6040516020818303038152906040526040517f08c379a0000000000000000000000000000000000000000000000000000000008152600401620017b7919062002b4d565b60405180910390fd5b5050565b606060006002836002620017d9919062002b71565b620017e59190620024de565b67ffffffffffffffff81111562001801576200180062002253565b5b6040519080825280601f01601f191660200182016040528015620018345781602001600182028036833780820191505090505b5090507f3000000000000000000000000000000000000000000000000000000000000000816000815181106200186f576200186e620025a0565b5b60200101907effffffffffffffffffffffffffffffffffffffffffffffffffffffffffffff1916908160001a9053507f780000000000000000000000000000000000000000000000000000000000000081600181518110620018d657620018d5620025a0565b5b60200101907effffffffffffffffffffffffffffffffffffffffffffffffffffffffffffff1916908160001a9053506000600184600262001918919062002b71565b620019249190620024de565b90505b6001811115620019ce577f3031323334353637383961626364656600000000000000000000000000000000600f8616601081106200196a5762001969620025a0565b5b1a60f81b828281518110620019845762001983620025a0565b5b60200101907effffffffffffffffffffffffffffffffffffffffffffffffffffffffffffff1916908160001a905350600485901c945080620019c69062002bd2565b905062001927565b506000841462001a15576040517f08c379a000000000000000000000000000000000000000000000000000000000815260040162001a0c9062002c51565b60405180910390fd5b8091505092915050565b6040518060e001604052806060815260200160608152602001600073ffffffffffffffffffffffffffffffffffffffff168152602001600073ffffffffffffffffffffffffffffffffffffffff168152602001600073ffffffffffffffffffffffffffffffffffffffff168152602001600073ffffffffffffffffffffffffffffffffffffffff168152602001600081525090565b610f838062002c7483390190565b82805462001ad0906200256a565b90600052602060002090601f01602090048101928262001af4576000855562001b40565b82601f1062001b0f57805160ff191683800117855562001b40565b8280016001018555821562001b40579182015b8281111562001b3f57825182559160200191906001019062001b22565b5b50905062001b4f919062001b53565b5090565b5b8082111562001b6e57600081600090555060010162001b54565b5090565b600081519050919050565b600082825260208201905092915050565b6000819050602082019050919050565b600081519050919050565b600082825260208201905092915050565b60005b8381101562001bda57808201518184015260208101905062001bbd565b8381111562001bea576000848401525b50505050565b6000601f19601f8301169050919050565b600062001c0e8262001b9e565b62001c1a818562001ba9565b935062001c2c81856020860162001bba565b62001c378162001bf0565b840191505092915050565b600073ffffffffffffffffffffffffffffffffffffffff82169050919050565b600062001c6f8262001c42565b9050919050565b62001c818162001c62565b82525050565b6000819050919050565b62001c9c8162001c87565b82525050565b600060e083016000830151848203600086015262001cc1828262001c01565b9150506020830151848203602086015262001cdd828262001c01565b915050604083015162001cf4604086018262001c76565b50606083015162001d09606086018262001c76565b50608083015162001d1e608086018262001c76565b5060a083015162001d3360a086018262001c76565b5060c083015162001d4860c086018262001c91565b508091505092915050565b600062001d61838362001ca2565b905092915050565b6000602082019050919050565b600062001d838262001b72565b62001d8f818562001b7d565b93508360208202850162001da38562001b8e565b8060005b8581101562001de5578484038952815162001dc3858262001d53565b945062001dd08362001d69565b925060208a0199505060018101905062001da7565b50829750879550505050505092915050565b6000602082019050818103600083015262001e13818462001d76565b905092915050565b6000604051905090565b600080fd5b600080fd5b60007fffffffff0000000000000000000000000000000000000000000000000000000082169050919050565b62001e668162001e2f565b811462001e7257600080fd5b50565b60008135905062001e868162001e5b565b92915050565b60006020828403121562001ea55762001ea462001e25565b5b600062001eb58482850162001e75565b91505092915050565b60008115159050919050565b62001ed58162001ebe565b82525050565b600060208201905062001ef2600083018462001eca565b92915050565b62001f038162001c87565b82525050565b600060208201905062001f20600083018462001ef8565b92915050565b6000819050919050565b62001f3b8162001f26565b811462001f4757600080fd5b50565b60008135905062001f5b8162001f30565b92915050565b60006020828403121562001f7a5762001f7962001e25565b5b600062001f8a8482850162001f4a565b91505092915050565b62001f9e8162001f26565b82525050565b600060208201905062001fbb600083018462001f93565b92915050565b62001fcc8162001c87565b811462001fd857600080fd5b50565b60008135905062001fec8162001fc1565b92915050565b6000602082840312156200200b576200200a62001e25565b5b60006200201b8482850162001fdb565b91505092915050565b600082825260208201905092915050565b6000620020428262001b9e565b6200204e818562002024565b93506200206081856020860162001bba565b6200206b8162001bf0565b840191505092915050565b620020818162001c62565b82525050565b600060e0820190508181036000830152620020a3818a62002035565b90508181036020830152620020b9818962002035565b9050620020ca604083018862002076565b620020d9606083018762002076565b620020e8608083018662002076565b620020f760a083018562002076565b6200210660c083018462001ef8565b98975050505050505050565b600060208201905062002129600083018462002076565b92915050565b6200213a8162001c62565b81146200214657600080fd5b50565b6000813590506200215a816200212f565b92915050565b600080604083850312156200217a576200217962001e25565b5b60006200218a8582860162001f4a565b92505060206200219d8582860162002149565b9150509250929050565b600060ff82169050919050565b620021bf81620021a7565b8114620021cb57600080fd5b50565b600081359050620021df81620021b4565b92915050565b600060208284031215620021fe57620021fd62001e25565b5b60006200220e84828501620021ce565b91505092915050565b60006020828403121562002230576200222f62001e25565b5b6000620022408482850162002149565b91505092915050565b600080fd5b600080fd5b7f4e487b7100000000000000000000000000000000000000000000000000000000600052604160045260246000fd5b6200228d8262001bf0565b810181811067ffffffffffffffff82111715620022af57620022ae62002253565b5b80604052505050565b6000620022c462001e1b565b9050620022d2828262002282565b919050565b600067ffffffffffffffff821115620022f557620022f462002253565b5b620023008262001bf0565b9050602081019050919050565b82818337600083830152505050565b6000620023336200232d84620022d7565b620022b8565b9050828152602081018484840111156200235257620023516200224e565b5b6200235f8482856200230d565b509392505050565b600082601f8301126200237f576200237e62002249565b5b8135620023918482602086016200231c565b91505092915050565b60008060008060008060c08789031215620023ba57620023b962001e25565b5b600087013567ffffffffffffffff811115620023db57620023da62001e2a565b5b620023e989828a0162002367565b965050602087013567ffffffffffffffff8111156200240d576200240c62001e2a565b5b6200241b89828a0162002367565b95505060406200242e89828a0162002149565b94505060606200244189828a0162002149565b93505060806200245489828a0162002149565b92505060a06200246789828a01620021ce565b9150509295509295509295565b7f4e487b7100000000000000000000000000000000000000000000000000000000600052601160045260246000fd5b6000620024b08262001c87565b9150620024bd8362001c87565b925082821015620024d357620024d262002474565b5b828203905092915050565b6000620024eb8262001c87565b9150620024f88362001c87565b9250827fffffffffffffffffffffffffffffffffffffffffffffffffffffffffffffffff0382111562002530576200252f62002474565b5b828201905092915050565b7f4e487b7100000000000000000000000000000000000000000000000000000000600052602260045260246000fd5b600060028204905060018216806200258357607f821691505b602082108114156200259a57620025996200253b565b5b50919050565b7f4e487b7100000000000000000000000000000000000000000000000000000000600052603260045260246000fd5b6000620025dc8262001c87565b91507fffffffffffffffffffffffffffffffffffffffffffffffffffffffffffffffff82141562002612576200261162002474565b5b600182019050919050565b7f416363657373436f6e74726f6c3a2063616e206f6e6c792072656e6f756e636560008201527f20726f6c657320666f722073656c660000000000000000000000000000000000602082015250565b60006200267b602f8362002024565b915062002688826200261d565b604082019050919050565b60006020820190508181036000830152620026ae816200266c565b9050919050565b7f5661756c74466163746f72793a206d7573742068617665207661756c7420616460008201527f6d696e20726f6c6520746f2072656d6f7665207661756c740000000000000000602082015250565b60006200271360388362002024565b91506200272082620026b5565b604082019050919050565b60006020820190508181036000830152620027468162002704565b9050919050565b7f5661756c74466163746f72793a20696e646578206d757374206265206c65737360008201527f207468616e207661756c7420636f756e74000000000000000000000000000000602082015250565b6000620027ab60318362002024565b9150620027b8826200274d565b604082019050919050565b60006020820190508181036000830152620027de816200279c565b9050919050565b7f5661756c74466163746f72793a207661756c7420616c72656164792072656d6f60008201527f7665640000000000000000000000000000000000000000000000000000000000602082015250565b60006200284360238362002024565b91506200285082620027e5565b604082019050919050565b60006020820190508181036000830152620028768162002834565b9050919050565b6000815190506200288e816200212f565b92915050565b600060208284031215620028ad57620028ac62001e25565b5b6000620028bd848285016200287d565b91505092915050565b620028d181620021a7565b82525050565b600060a082019050620028ee600083018862002076565b620028fd602083018762002076565b818103604083015262002911818662002035565b9050818103606083015262002927818562002035565b9050620029386080830184620028c6565b9695505050505050565b600081519050919050565b600082825260208201905092915050565b60006200296b8262002942565b6200297781856200294d565b93506200298981856020860162001bba565b620029948162001bf0565b840191505092915050565b6000604082019050620029b6600083018562002076565b8181036020830152620029ca81846200295e565b90509392505050565b600081905092915050565b6000620029eb8262001b9e565b620029f78185620029d3565b935062002a0981856020860162001bba565b80840191505092915050565b600062002a238284620029de565b915081905092915050565b600060608201905062002a45600083018662002076565b62002a54602083018562002076565b62002a63604083018462001ef8565b949350505050565b7f416363657373436f6e74726f6c3a206163636f756e7420000000000000000000600082015250565b600062002aa3601783620029d3565b915062002ab08262002a6b565b601782019050919050565b7f206973206d697373696e6720726f6c6520000000000000000000000000000000600082015250565b600062002af3601183620029d3565b915062002b008262002abb565b601182019050919050565b600062002b188262002a94565b915062002b268285620029de565b915062002b338262002ae4565b915062002b418284620029de565b91508190509392505050565b6000602082019050818103600083015262002b69818462002035565b905092915050565b600062002b7e8262001c87565b915062002b8b8362001c87565b9250817fffffffffffffffffffffffffffffffffffffffffffffffffffffffffffffffff048311821515161562002bc75762002bc662002474565b5b828202905092915050565b600062002bdf8262001c87565b9150600082141562002bf65762002bf562002474565b5b600182039050919050565b7f537472696e67733a20686578206c656e67746820696e73756666696369656e74600082015250565b600062002c3960208362002024565b915062002c468262002c01565b602082019050919050565b6000602082019050818103600083015262002c6c8162002c2a565b905091905056fe608060405260405162000f8338038062000f838339818101604052810190620000299190620006d1565b6200003d828260006200004560201b60201c565b5050620009f2565b62000056836200014c60201b60201c565b8273ffffffffffffffffffffffffffffffffffffffff167f1cf3b03a6cf19fa2baba4df148e9dcabedea7f8a5c07840e207e5c089be95d3e60405160405180910390a2600082511180620000a75750805b156200014757620001458373ffffffffffffffffffffffffffffffffffffffff16635c60da1b6040518163ffffffff1660e01b815260040160206040518083038186803b158015620000f857600080fd5b505afa1580156200010d573d6000803e3d6000fd5b505050506040513d601f19601f8201168201806040525081019062000133919062000737565b83620002fb60201b620000371760201c565b505b505050565b62000162816200033160201b620000641760201c565b620001a4576040517f08c379a00000000000000000000000000000000000000000000000000000000081526004016200019b90620007f0565b60405180910390fd5b6200023b8173ffffffffffffffffffffffffffffffffffffffff16635c60da1b6040518163ffffffff1660e01b815260040160206040518083038186803b158015620001ef57600080fd5b505afa15801562000204573d6000803e3d6000fd5b505050506040513d601f19601f820116820180604052508101906200022a919062000737565b6200033160201b620000641760201c565b6200027d576040517f08c379a0000000000000000000000000000000000000000000000000000000008152600401620002749062000888565b60405180910390fd5b80620002b77fa3f0ad74e5423aebfd80d3ef4346578335a9a72aeaee59ff6cb3582b35133d5060001b6200035460201b620000871760201c565b60000160006101000a81548173ffffffffffffffffffffffffffffffffffffffff021916908373ffffffffffffffffffffffffffffffffffffffff16021790555050565b606062000329838360405180606001604052806027815260200162000f5c602791396200035e60201b60201c565b905092915050565b6000808273ffffffffffffffffffffffffffffffffffffffff163b119050919050565b6000819050919050565b60606000808573ffffffffffffffffffffffffffffffffffffffff16856040516200038a9190620008f7565b600060405180830381855af49150503d8060008114620003c7576040519150601f19603f3d011682016040523d82523d6000602084013e620003cc565b606091505b5091509150620003e586838387620003f060201b60201c565b925050509392505050565b606083156200046157600083511415620004585762000415856200033160201b60201c565b62000457576040517f08c379a00000000000000000000000000000000000000000000000000000000081526004016200044e9062000960565b60405180910390fd5b5b82905062000474565b6200047383836200047c60201b60201c565b5b949350505050565b600082511115620004905781518083602001fd5b806040517f08c379a0000000000000000000000000000000000000000000000000000000008152600401620004c69190620009ce565b60405180910390fd5b6000604051905090565b600080fd5b600080fd5b600073ffffffffffffffffffffffffffffffffffffffff82169050919050565b60006200051082620004e3565b9050919050565b620005228162000503565b81146200052e57600080fd5b50565b600081519050620005428162000517565b92915050565b600080fd5b600080fd5b6000601f19601f8301169050919050565b7f4e487b7100000000000000000000000000000000000000000000000000000000600052604160045260246000fd5b6200059d8262000552565b810181811067ffffffffffffffff82111715620005bf57620005be62000563565b5b80604052505050565b6000620005d4620004cf565b9050620005e2828262000592565b919050565b600067ffffffffffffffff82111562000605576200060462000563565b5b620006108262000552565b9050602081019050919050565b60005b838110156200063d57808201518184015260208101905062000620565b838111156200064d576000848401525b50505050565b60006200066a6200066484620005e7565b620005c8565b9050828152602081018484840111156200068957620006886200054d565b5b620006968482856200061d565b509392505050565b600082601f830112620006b657620006b562000548565b5b8151620006c884826020860162000653565b91505092915050565b60008060408385031215620006eb57620006ea620004d9565b5b6000620006fb8582860162000531565b925050602083015167ffffffffffffffff8111156200071f576200071e620004de565b5b6200072d858286016200069e565b9150509250929050565b60006020828403121562000750576200074f620004d9565b5b6000620007608482850162000531565b91505092915050565b600082825260208201905092915050565b7f455243313936373a206e657720626561636f6e206973206e6f74206120636f6e60008201527f7472616374000000000000000000000000000000000000000000000000000000602082015250565b6000620007d860258362000769565b9150620007e5826200077a565b604082019050919050565b600060208201905081810360008301526200080b81620007c9565b9050919050565b7f455243313936373a20626561636f6e20696d706c656d656e746174696f6e206960008201527f73206e6f74206120636f6e747261637400000000000000000000000000000000602082015250565b60006200087060308362000769565b91506200087d8262000812565b604082019050919050565b60006020820190508181036000830152620008a38162000861565b9050919050565b600081519050919050565b600081905092915050565b6000620008cd82620008aa565b620008d98185620008b5565b9350620008eb8185602086016200061d565b80840191505092915050565b6000620009058284620008c0565b915081905092915050565b7f416464726573733a2063616c6c20746f206e6f6e2d636f6e7472616374000000600082015250565b600062000948601d8362000769565b9150620009558262000910565b602082019050919050565b600060208201905081810360008301526200097b8162000939565b9050919050565b600081519050919050565b60006200099a8262000982565b620009a6818562000769565b9350620009b88185602086016200061d565b620009c38162000552565b840191505092915050565b60006020820190508181036000830152620009ea81846200098d565b905092915050565b61055a8062000a026000396000f3fe6080604052366100135761001161001d565b005b61001b61001d565b005b610025610091565b610035610030610093565b61011f565b565b606061005c83836040518060600160405280602781526020016104fe60279139610145565b905092915050565b6000808273ffffffffffffffffffffffffffffffffffffffff163b119050919050565b6000819050919050565b565b600061009d6101cb565b73ffffffffffffffffffffffffffffffffffffffff16635c60da1b6040518163ffffffff1660e01b815260040160206040518083038186803b1580156100e257600080fd5b505afa1580156100f6573d6000803e3d6000fd5b505050506040513d601f19601f8201168201806040525081019061011a919061034b565b905090565b3660008037600080366000845af43d6000803e8060008114610140573d6000f35b3d6000fd5b60606000808573ffffffffffffffffffffffffffffffffffffffff168560405161016f91906103f2565b600060405180830381855af49150503d80600081146101aa576040519150601f19603f3d011682016040523d82523d6000602084013e6101af565b606091505b50915091506101c086838387610222565b925050509392505050565b60006101f97fa3f0ad74e5423aebfd80d3ef4346578335a9a72aeaee59ff6cb3582b35133d5060001b610087565b60000160009054906101000a900473ffffffffffffffffffffffffffffffffffffffff16905090565b606083156102855760008351141561027d5761023d85610064565b61027c576040517f08c379a000000000000000000000000000000000000000000000000000000000815260040161027390610466565b60405180910390fd5b5b829050610290565b61028f8383610298565b5b949350505050565b6000825111156102ab5781518083602001fd5b806040517f08c379a00000000000000000000000000000000000000000000000000000000081526004016102df91906104db565b60405180910390fd5b600080fd5b600073ffffffffffffffffffffffffffffffffffffffff82169050919050565b6000610318826102ed565b9050919050565b6103288161030d565b811461033357600080fd5b50565b6000815190506103458161031f565b92915050565b600060208284031215610361576103606102e8565b5b600061036f84828501610336565b91505092915050565b600081519050919050565b600081905092915050565b60005b838110156103ac578082015181840152602081019050610391565b838111156103bb576000848401525b50505050565b60006103cc82610378565b6103d68185610383565b93506103e681856020860161038e565b80840191505092915050565b60006103fe82846103c1565b915081905092915050565b600082825260208201905092915050565b7f416464726573733a2063616c6c20746f206e6f6e2d636f6e7472616374000000600082015250565b6000610450601d83610409565b915061045b8261041a565b602082019050919050565b6000602082019050818103600083015261047f81610443565b9050919050565b600081519050919050565b6000601f19601f8301169050919050565b60006104ad82610486565b6104b78185610409565b93506104c781856020860161038e565b6104d081610491565b840191505092915050565b600060208201905081810360008301526104f581846104a2565b90509291505056fe416464726573733a206c6f772d6c6576656c2064656c65676174652063616c6c206661696c6564a2646970667358221220155e79e200f23defcdc5f0f1dc77c4c4abf1c8d4544ea363960ebc2c21cbcac764736f6c63430008080033416464726573733a206c6f772d6c6576656c2064656c65676174652063616c6c206661696c6564a2646970667358221220b2b19cbbc4e8450f4575cf4eaa4efadc7422e205864617faca02ae43cf82352364736f6c6343000808003360a06040523480156200001157600080fd5b50604051620015bd380380620015bd83398181016040528101906200003791906200038e565b62000048336200011060201b60201c565b80604051620000579062000316565b620000639190620003d1565b604051809103906000f08015801562000080573d6000803e3d6000fd5b5073ffffffffffffffffffffffffffffffffffffffff1660808173ffffffffffffffffffffffffffffffffffffffff1660601b8152505080600160006101000a81548173ffffffffffffffffffffffffffffffffffffffff021916908373ffffffffffffffffffffffffffffffffffffffff1602179055506200010932620001d460201b60201c565b5062000509565b60008060009054906101000a900473ffffffffffffffffffffffffffffffffffffffff169050816000806101000a81548173ffffffffffffffffffffffffffffffffffffffff021916908373ffffffffffffffffffffffffffffffffffffffff1602179055508173ffffffffffffffffffffffffffffffffffffffff168173ffffffffffffffffffffffffffffffffffffffff167f8be0079c531659141344cd1fd0a4f28419497f9722a3daafe3b4186f6b6457e060405160405180910390a35050565b620001e46200026b60201b60201c565b600073ffffffffffffffffffffffffffffffffffffffff168173ffffffffffffffffffffffffffffffffffffffff16141562000257576040517f08c379a00000000000000000000000000000000000000000000000000000000081526004016200024e9062000475565b60405180910390fd5b62000268816200011060201b60201c565b50565b3373ffffffffffffffffffffffffffffffffffffffff1662000292620002ed60201b60201c565b73ffffffffffffffffffffffffffffffffffffffff1614620002eb576040517f08c379a0000000000000000000000000000000000000000000000000000000008152600401620002e290620004e7565b60405180910390fd5b565b60008060009054906101000a900473ffffffffffffffffffffffffffffffffffffffff16905090565b6109ac8062000c1183390190565b600080fd5b600073ffffffffffffffffffffffffffffffffffffffff82169050919050565b6000620003568262000329565b9050919050565b620003688162000349565b81146200037457600080fd5b50565b60008151905062000388816200035d565b92915050565b600060208284031215620003a757620003a662000324565b5b6000620003b78482850162000377565b91505092915050565b620003cb8162000349565b82525050565b6000602082019050620003e86000830184620003c0565b92915050565b600082825260208201905092915050565b7f4f776e61626c653a206e6577206f776e657220697320746865207a65726f206160008201527f6464726573730000000000000000000000000000000000000000000000000000602082015250565b60006200045d602683620003ee565b91506200046a82620003ff565b604082019050919050565b6000602082019050818103600083015262000490816200044e565b9050919050565b7f4f776e61626c653a2063616c6c6572206973206e6f7420746865206f776e6572600082015250565b6000620004cf602083620003ee565b9150620004dc8262000497565b602082019050919050565b600060208201905081810360008301526200050281620004c0565b9050919050565b60805160601c6106e26200052f6000396000818161010d01526101de01526106e26000f3fe608060405234801561001057600080fd5b50600436106100625760003560e01c80631c1b8772146100675780635c60da1b146100835780635fe810b3146100a1578063715018a6146100bf5780638da5cb5b146100c9578063f2fde38b146100e7575b600080fd5b610081600480360381019061007c9190610504565b610103565b005b61008b6101da565b6040516100989190610540565b60405180910390f35b6100a961027f565b6040516100b69190610540565b60405180910390f35b6100c76102a5565b005b6100d16102b9565b6040516100de9190610540565b60405180910390f35b61010160048036038101906100fc9190610504565b6102e2565b005b61010b610366565b7f000000000000000000000000000000000000000000000000000000000000000073ffffffffffffffffffffffffffffffffffffffff16633659cfe6826040518263ffffffff1660e01b81526004016101649190610540565b600060405180830381600087803b15801561017e57600080fd5b505af1158015610192573d6000803e3d6000fd5b5050505080600160006101000a81548173ffffffffffffffffffffffffffffffffffffffff021916908373ffffffffffffffffffffffffffffffffffffffff16021790555050565b60007f000000000000000000000000000000000000000000000000000000000000000073ffffffffffffffffffffffffffffffffffffffff16635c60da1b6040518163ffffffff1660e01b815260040160206040518083038186803b15801561024257600080fd5b505afa158015610256573d6000803e3d6000fd5b505050506040513d601f19601f8201168201806040525081019061027a9190610570565b905090565b600160009054906101000a900473ffffffffffffffffffffffffffffffffffffffff1681565b6102ad610366565b6102b760006103dd565b565b60008060009054906101000a900473ffffffffffffffffffffffffffffffffffffffff16905090565b6102ea610366565b600073ffffffffffffffffffffffffffffffffffffffff168173ffffffffffffffffffffffffffffffffffffffff16141561035a576040517f08c379a000000000000000000000000000000000000000000000000000000000815260040161035190610620565b60405180910390fd5b610363816103dd565b50565b3373ffffffffffffffffffffffffffffffffffffffff166103856102b9565b73ffffffffffffffffffffffffffffffffffffffff16146103db576040517f08c379a00000000000000000000000000000000000000000000000000000000081526004016103d29061068c565b60405180910390fd5b565b60008060009054906101000a900473ffffffffffffffffffffffffffffffffffffffff169050816000806101000a81548173ffffffffffffffffffffffffffffffffffffffff021916908373ffffffffffffffffffffffffffffffffffffffff1602179055508173ffffffffffffffffffffffffffffffffffffffff168173ffffffffffffffffffffffffffffffffffffffff167f8be0079c531659141344cd1fd0a4f28419497f9722a3daafe3b4186f6b6457e060405160405180910390a35050565b600080fd5b600073ffffffffffffffffffffffffffffffffffffffff82169050919050565b60006104d1826104a6565b9050919050565b6104e1816104c6565b81146104ec57600080fd5b50565b6000813590506104fe816104d8565b92915050565b60006020828403121561051a576105196104a1565b5b6000610528848285016104ef565b91505092915050565b61053a816104c6565b82525050565b60006020820190506105556000830184610531565b92915050565b60008151905061056a816104d8565b92915050565b600060208284031215610586576105856104a1565b5b60006105948482850161055b565b91505092915050565b600082825260208201905092915050565b7f4f776e61626c653a206e6577206f776e657220697320746865207a65726f206160008201527f6464726573730000000000000000000000000000000000000000000000000000602082015250565b600061060a60268361059d565b9150610615826105ae565b604082019050919050565b60006020820190508181036000830152610639816105fd565b9050919050565b7f4f776e61626c653a2063616c6c6572206973206e6f7420746865206f776e6572600082015250565b600061067660208361059d565b915061068182610640565b602082019050919050565b600060208201905081810360008301526106a581610669565b905091905056fea2646970667358221220fac70f4a2925c499b85ab56a56086e63bf68f313a420c070deb0510c9bbb536664736f6c63430008080033608060405234801561001057600080fd5b506040516109ac3803806109ac83398181016040528101906100329190610236565b6100413361005660201b60201c565b6100508161011a60201b60201c565b50610306565b60008060009054906101000a900473ffffffffffffffffffffffffffffffffffffffff169050816000806101000a81548173ffffffffffffffffffffffffffffffffffffffff021916908373ffffffffffffffffffffffffffffffffffffffff1602179055508173ffffffffffffffffffffffffffffffffffffffff168173ffffffffffffffffffffffffffffffffffffffff167f8be0079c531659141344cd1fd0a4f28419497f9722a3daafe3b4186f6b6457e060405160405180910390a35050565b61012d816101b060201b61021c1760201c565b61016c576040517f08c379a0000000000000000000000000000000000000000000000000000000008152600401610163906102e6565b60405180910390fd5b80600160006101000a81548173ffffffffffffffffffffffffffffffffffffffff021916908373ffffffffffffffffffffffffffffffffffffffff16021790555050565b6000808273ffffffffffffffffffffffffffffffffffffffff163b119050919050565b600080fd5b600073ffffffffffffffffffffffffffffffffffffffff82169050919050565b6000610203826101d8565b9050919050565b610213816101f8565b811461021e57600080fd5b50565b6000815190506102308161020a565b92915050565b60006020828403121561024c5761024b6101d3565b5b600061025a84828501610221565b91505092915050565b600082825260208201905092915050565b7f5570677261646561626c65426561636f6e3a20696d706c656d656e746174696f60008201527f6e206973206e6f74206120636f6e747261637400000000000000000000000000602082015250565b60006102d0603383610263565b91506102db82610274565b604082019050919050565b600060208201905081810360008301526102ff816102c3565b9050919050565b610697806103156000396000f3fe608060405234801561001057600080fd5b50600436106100575760003560e01c80633659cfe61461005c5780635c60da1b14610078578063715018a6146100965780638da5cb5b146100a0578063f2fde38b146100be575b600080fd5b61007660048036038101906100719190610469565b6100da565b005b610080610131565b60405161008d91906104a5565b60405180910390f35b61009e61015b565b005b6100a861016f565b6040516100b591906104a5565b60405180910390f35b6100d860048036038101906100d39190610469565b610198565b005b6100e261023f565b6100eb816102b6565b8073ffffffffffffffffffffffffffffffffffffffff167fbc7cd75a20ee27fd9adebab32041f755214dbc6bffa90cc0225b39da2e5c2d3b60405160405180910390a250565b6000600160009054906101000a900473ffffffffffffffffffffffffffffffffffffffff16905090565b61016361023f565b61016d6000610342565b565b60008060009054906101000a900473ffffffffffffffffffffffffffffffffffffffff16905090565b6101a061023f565b600073ffffffffffffffffffffffffffffffffffffffff168173ffffffffffffffffffffffffffffffffffffffff161415610210576040517f08c379a000000000000000000000000000000000000000000000000000000000815260040161020790610543565b60405180910390fd5b61021981610342565b50565b6000808273ffffffffffffffffffffffffffffffffffffffff163b119050919050565b3373ffffffffffffffffffffffffffffffffffffffff1661025e61016f565b73ffffffffffffffffffffffffffffffffffffffff16146102b4576040517f08c379a00000000000000000000000000000000000000000000000000000000081526004016102ab906105af565b60405180910390fd5b565b6102bf8161021c565b6102fe576040517f08c379a00000000000000000000000000000000000000000000000000000000081526004016102f590610641565b60405180910390fd5b80600160006101000a81548173ffffffffffffffffffffffffffffffffffffffff021916908373ffffffffffffffffffffffffffffffffffffffff16021790555050565b60008060009054906101000a900473ffffffffffffffffffffffffffffffffffffffff169050816000806101000a81548173ffffffffffffffffffffffffffffffffffffffff021916908373ffffffffffffffffffffffffffffffffffffffff1602179055508173ffffffffffffffffffffffffffffffffffffffff168173ffffffffffffffffffffffffffffffffffffffff167f8be0079c531659141344cd1fd0a4f28419497f9722a3daafe3b4186f6b6457e060405160405180910390a35050565b600080fd5b600073ffffffffffffffffffffffffffffffffffffffff82169050919050565b60006104368261040b565b9050919050565b6104468161042b565b811461045157600080fd5b50565b6000813590506104638161043d565b92915050565b60006020828403121561047f5761047e610406565b5b600061048d84828501610454565b91505092915050565b61049f8161042b565b82525050565b60006020820190506104ba6000830184610496565b92915050565b600082825260208201905092915050565b7f4f776e61626c653a206e6577206f776e657220697320746865207a65726f206160008201527f6464726573730000000000000000000000000000000000000000000000000000602082015250565b600061052d6026836104c0565b9150610538826104d1565b604082019050919050565b6000602082019050818103600083015261055c81610520565b9050919050565b7f4f776e61626c653a2063616c6c6572206973206e6f7420746865206f776e6572600082015250565b60006105996020836104c0565b91506105a482610563565b602082019050919050565b600060208201905081810360008301526105c88161058c565b9050919050565b7f5570677261646561626c65426561636f6e3a20696d706c656d656e746174696f60008201527f6e206973206e6f74206120636f6e747261637400000000000000000000000000602082015250565b600061062b6033836104c0565b9150610636826105cf565b604082019050919050565b6000602082019050818103600083015261065a8161061e565b905091905056fea264697066735822122038414a8620da5a35c6143ed1e2feb0fb11411a203ebdb95edfeb50f8e8d37d6164736f6c63430008080033",
  "linkReferences": {},
  "deployedLinkReferences": {}
}