{
	"data": {
		"bytecode": {
			"linkReferences": {},
			"object": "60806040526000600c556000600d553480156200001b57600080fd5b50620000316000801b336200003760201b60201c565b620001b2565b6200004982826200004d60201b60201c565b5050565b6200005f82826200013f60201b60201c565b6200013b576001600a600084815260200190815260200160002060000160008373ffffffffffffffffffffffffffffffffffffffff1673ffffffffffffffffffffffffffffffffffffffff16815260200190815260200160002060006101000a81548160ff021916908315150217905550620000e0620001aa60201b60201c565b73ffffffffffffffffffffffffffffffffffffffff168173ffffffffffffffffffffffffffffffffffffffff16837f2f8788117e7eff1d82e926ec794901d17c78024a50270940304540a733656f0d60405160405180910390a45b5050565b6000600a600084815260200190815260200160002060000160008373ffffffffffffffffffffffffffffffffffffffff1673ffffffffffffffffffffffffffffffffffffffff16815260200190815260200160002060009054906101000a900460ff16905092915050565b600033905090565b6150c680620001c26000396000f3fe6080604052600436106103545760003560e01c806383197ef0116101c6578063c5d664c6116100f7578063dc9a153511610095578063ef8b30f71161006f578063ef8b30f714610d41578063f2fde38b14610d7e578063f84d73f414610da7578063fc407ae714610dd25761035b565b8063dc9a153514610cae578063dd62ed3e14610cd9578063ecad956514610d165761035b565b8063ce96cb77116100d1578063ce96cb7714610be2578063d505accf14610c1f578063d547741f14610c48578063d905777e14610c715761035b565b8063c5d664c614610b3d578063c63d75b614610b68578063c6e6f59214610ba55761035b565b8063ac68a74811610164578063b460af941161013e578063b460af9414610a6f578063ba08765214610aac578063bc368a8a14610ae9578063bd662f8814610b145761035b565b8063ac68a748146109de578063b258a6f514610a07578063b3d7f6b914610a325761035b565b806394bf804d116101a057806394bf804d1461090e57806395d89b411461094b578063a217fddf14610976578063a9059cbb146109a15761035b565b806383197ef01461089157806391d14854146108a85780639309971c146108e55761035b565b80633644e515116102a05780634cdad5061161023e578063715018a611610218578063715018a6146107e95780637ce3489b146108005780637ecebe00146108295780637fd6f15c146108665761035b565b80634cdad506146107325780636e553f651461076f57806370a08231146107ac5761035b565b8063392e53cd1161027a578063392e53cd14610676578063402d267d146106a1578063422f596f146106de578063481c6a75146107075761035b565b80633644e515146105f757806336568abe1461062257806338d52e0f1461064b5761035b565b806318160ddd1161030d578063248a9ca3116102e7578063248a9ca31461053d5780632f2ff15d1461057a578063313ce567146105a357806332ff7732146105ce5761035b565b806318160ddd146104aa5780631c693478146104d557806323b872dd146105005761035b565b806301e1d1141461036057806301ffc9a71461038b57806306fdde03146103c857806307a2d13a146103f3578063095ea7b3146104305780630a28a4771461046d5761035b565b3661035b57005b600080fd5b34801561036c57600080fd5b50610375610dfd565b604051610382919061371e565b60405180910390f35b34801561039757600080fd5b506103b260048036038101906103ad91906137a5565b610ea0565b6040516103bf91906137ed565b60405180910390f35b3480156103d457600080fd5b506103dd610f1a565b6040516103ea9190613898565b60405180910390f35b3480156103ff57600080fd5b5061041a600480360381019061041591906138e6565b610fa8565b604051610427919061371e565b60405180910390f35b34801561043c57600080fd5b5061045760048036038101906104529190613971565b610fe3565b60405161046491906137ed565b60405180910390f35b34801561047957600080fd5b50610494600480360381019061048f91906138e6565b6110d5565b6040516104a1919061371e565b60405180910390f35b3480156104b657600080fd5b506104bf611110565b6040516104cc919061371e565b60405180910390f35b3480156104e157600080fd5b506104ea611116565b6040516104f7919061371e565b60405180910390f35b34801561050c57600080fd5b50610527600480360381019061052291906139b1565b61111c565b60405161053491906137ed565b60405180910390f35b34801561054957600080fd5b50610564600480360381019061055f9190613a3a565b611366565b6040516105719190613a76565b60405180910390f35b34801561058657600080fd5b506105a1600480360381019061059c9190613a91565b611386565b005b3480156105af57600080fd5b506105b86113a7565b6040516105c59190613aed565b60405180910390f35b3480156105da57600080fd5b506105f560048036038101906105f09190613b34565b6113ba565b005b34801561060357600080fd5b5061060c611579565b6040516106199190613a76565b60405180910390f35b34801561062e57600080fd5b5061064960048036038101906106449190613a91565b61159a565b005b34801561065757600080fd5b5061066061161d565b60405161066d9190613bc0565b60405180910390f35b34801561068257600080fd5b5061068b611643565b60405161069891906137ed565b60405180910390f35b3480156106ad57600080fd5b506106c860048036038101906106c39190613bdb565b611656565b6040516106d5919061371e565b60405180910390f35b3480156106ea57600080fd5b5061070560048036038101906107009190613d69565b611680565b005b34801561071357600080fd5b5061071c6116d2565b6040516107299190613e17565b60405180910390f35b34801561073e57600080fd5b50610759600480360381019061075491906138e6565b6116fc565b604051610766919061371e565b60405180910390f35b34801561077b57600080fd5b5061079660048036038101906107919190613e32565b61170e565b6040516107a3919061371e565b60405180910390f35b3480156107b857600080fd5b506107d360048036038101906107ce9190613bdb565b61182d565b6040516107e0919061371e565b60405180910390f35b3480156107f557600080fd5b506107fe611845565b005b34801561080c57600080fd5b50610827600480360381019061082291906138e6565b61197b565b005b34801561083557600080fd5b50610850600480360381019061084b9190613bdb565b611a93565b60405161085d919061371e565b60405180910390f35b34801561087257600080fd5b5061087b611aab565b604051610888919061371e565b60405180910390f35b34801561089d57600080fd5b506108a6611ab1565b005b3480156108b457600080fd5b506108cf60048036038101906108ca9190613a91565b611b3f565b6040516108dc91906137ed565b60405180910390f35b3480156108f157600080fd5b5061090c60048036038101906109079190613e72565b611baa565b005b34801561091a57600080fd5b5061093560048036038101906109309190613e32565b611d08565b604051610942919061371e565b60405180910390f35b34801561095757600080fd5b50610960611de5565b60405161096d9190613898565b60405180910390f35b34801561098257600080fd5b5061098b611e73565b6040516109989190613a76565b60405180910390f35b3480156109ad57600080fd5b506109c860048036038101906109c39190613971565b611e7a565b6040516109d591906137ed565b60405180910390f35b3480156109ea57600080fd5b50610a056004803603810190610a0091906138e6565b611f8e565b005b348015610a1357600080fd5b50610a1c6120d3565b604051610a299190613a76565b60405180910390f35b348015610a3e57600080fd5b50610a596004803603810190610a5491906138e6565b6120f7565b604051610a66919061371e565b60405180910390f35b348015610a7b57600080fd5b50610a966004803603810190610a919190613f25565b612132565b604051610aa3919061371e565b60405180910390f35b348015610ab857600080fd5b50610ad36004803603810190610ace9190613f25565b61238f565b604051610ae0919061371e565b60405180910390f35b348015610af557600080fd5b50610afe61262f565b604051610b0b919061371e565b60405180910390f35b348015610b2057600080fd5b50610b3b6004803603810190610b3691906138e6565b612635565b005b348015610b4957600080fd5b50610b5261274d565b604051610b5f9190613bc0565b60405180910390f35b348015610b7457600080fd5b50610b8f6004803603810190610b8a9190613bdb565b612773565b604051610b9c919061371e565b60405180910390f35b348015610bb157600080fd5b50610bcc6004803603810190610bc791906138e6565b61279d565b604051610bd9919061371e565b60405180910390f35b348015610bee57600080fd5b50610c096004803603810190610c049190613bdb565b6127d8565b604051610c16919061371e565b60405180910390f35b348015610c2b57600080fd5b50610c466004803603810190610c419190613f78565b612829565b005b348015610c5457600080fd5b50610c6f6004803603810190610c6a9190613a91565b612b22565b005b348015610c7d57600080fd5b50610c986004803603810190610c939190613bdb565b612b43565b604051610ca5919061371e565b60405180910390f35b348015610cba57600080fd5b50610cc3612b8c565b604051610cd091906137ed565b60405180910390f35b348015610ce557600080fd5b50610d006004803603810190610cfb919061401a565b612b9f565b604051610d0d919061371e565b60405180910390f35b348015610d2257600080fd5b50610d2b612bc4565b604051610d38919061371e565b60405180910390f35b348015610d4d57600080fd5b50610d686004803603810190610d6391906138e6565b612bca565b604051610d75919061371e565b60405180910390f35b348015610d8a57600080fd5b50610da56004803603810190610da09190613bdb565b612bdc565b005b348015610db357600080fd5b50610dbc612d80565b604051610dc991906137ed565b60405180910390f35b348015610dde57600080fd5b50610de7612d93565b604051610df4919061371e565b60405180910390f35b6000600960009054906101000a900473ffffffffffffffffffffffffffffffffffffffff1673ffffffffffffffffffffffffffffffffffffffff166370a08231306040518263ffffffff1660e01b8152600401610e5a9190613e17565b602060405180830381865afa158015610e77573d6000803e3d6000fd5b505050506040513d601f19601f82011682018060405250810190610e9b919061406f565b905090565b60007f7965db0b000000000000000000000000000000000000000000000000000000007bffffffffffffffffffffffffffffffffffffffffffffffffffffffff1916827bffffffffffffffffffffffffffffffffffffffffffffffffffffffff19161480610f135750610f1282612d99565b5b9050919050565b60008054610f27906140cb565b80601f0160208091040260200160405190810160405280929190818152602001828054610f53906140cb565b8015610fa05780601f10610f7557610100808354040283529160200191610fa0565b820191906000526020600020905b815481529060010190602001808311610f8357829003601f168201915b505050505081565b600080600354905060008114610fd957610fd4610fc3610dfd565b8285612e039092919063ffffffff16565b610fdb565b825b915050919050565b600081600560003373ffffffffffffffffffffffffffffffffffffffff1673ffffffffffffffffffffffffffffffffffffffff16815260200190815260200160002060008573ffffffffffffffffffffffffffffffffffffffff1673ffffffffffffffffffffffffffffffffffffffff168152602001908152602001600020819055508273ffffffffffffffffffffffffffffffffffffffff163373ffffffffffffffffffffffffffffffffffffffff167f8c5be1e5ebec7d5bd14f71427d1e84f3dd0314c0f7b2291e5b200ac8c7c3b925846040516110c3919061371e565b60405180910390a36001905092915050565b60008060035490506000811461110657611101816110f1610dfd565b85612e2b9092919063ffffffff16565b611108565b825b915050919050565b60035481565b60115481565b600080600560008673ffffffffffffffffffffffffffffffffffffffff1673ffffffffffffffffffffffffffffffffffffffff16815260200190815260200160002060003373ffffffffffffffffffffffffffffffffffffffff1673ffffffffffffffffffffffffffffffffffffffff1681526020019081526020016000205490507fffffffffffffffffffffffffffffffffffffffffffffffffffffffffffffffff81146112525782816111d1919061412b565b600560008773ffffffffffffffffffffffffffffffffffffffff1673ffffffffffffffffffffffffffffffffffffffff16815260200190815260200160002060003373ffffffffffffffffffffffffffffffffffffffff1673ffffffffffffffffffffffffffffffffffffffff168152602001908152602001600020819055505b82600460008773ffffffffffffffffffffffffffffffffffffffff1673ffffffffffffffffffffffffffffffffffffffff16815260200190815260200160002060008282546112a1919061412b565b9250508190555082600460008673ffffffffffffffffffffffffffffffffffffffff1673ffffffffffffffffffffffffffffffffffffffff168152602001908152602001600020600082825401925050819055508373ffffffffffffffffffffffffffffffffffffffff168573ffffffffffffffffffffffffffffffffffffffff167fddf252ad1be2c89b69c2b068fc378daa952ba7f163c4a11628f55a4df523b3ef85604051611352919061371e565b60405180910390a360019150509392505050565b6000600a6000838152602001908152602001600020600101549050919050565b61138f82611366565b61139881612e5d565b6113a28383612e71565b505050565b600260009054906101000a900460ff1681565b3373ffffffffffffffffffffffffffffffffffffffff166113d96116d2565b73ffffffffffffffffffffffffffffffffffffffff161461142f576040517f08c379a0000000000000000000000000000000000000000000000000000000008152600401611426906141d1565b60405180910390fd5b8015806114cf57506012600f60009054906101000a900473ffffffffffffffffffffffffffffffffffffffff1673ffffffffffffffffffffffffffffffffffffffff1663313ce5676040518163ffffffff1660e01b8152600401602060405180830381865afa1580156114a6573d6000803e3d6000fd5b505050506040513d601f19601f820116820180604052508101906114ca9190614206565b60ff16145b61150e576040517f08c379a00000000000000000000000000000000000000000000000000000000081526004016115059061427f565b60405180910390fd5b80601260006101000a81548160ff0219169083151502179055503373ffffffffffffffffffffffffffffffffffffffff167f6375b140d4463d47b864f1f47e5d2893cc3478e73aedcc268b054fab0230a8418260405161156e91906137ed565b60405180910390a250565b600060065446146115915761158c612f52565b611595565b6007545b905090565b6115a2612fde565b73ffffffffffffffffffffffffffffffffffffffff168173ffffffffffffffffffffffffffffffffffffffff161461160f576040517f08c379a000000000000000000000000000000000000000000000000000000000815260040161160690614311565b60405180910390fd5b6116198282612fe6565b5050565b600960009054906101000a900473ffffffffffffffffffffffffffffffffffffffff1681565b601460009054906101000a900460ff1681565b60007fffffffffffffffffffffffffffffffffffffffffffffffffffffffffffffffff9050919050565b83600960006101000a81548173ffffffffffffffffffffffffffffffffffffffff021916908373ffffffffffffffffffffffffffffffffffffffff1602179055506116cc8383836130c8565b50505050565b6000600b60009054906101000a900473ffffffffffffffffffffffffffffffffffffffff16905090565b600061170782610fa8565b9050919050565b60008061171a84612bca565b9150810361175d576040517f08c379a00000000000000000000000000000000000000000000000000000000081526004016117549061437d565b60405180910390fd5b6117ac333085600960009054906101000a900473ffffffffffffffffffffffffffffffffffffffff1673ffffffffffffffffffffffffffffffffffffffff1661311d909392919063ffffffff16565b6117b682826131bc565b8173ffffffffffffffffffffffffffffffffffffffff163373ffffffffffffffffffffffffffffffffffffffff167fdcbc1c05240f31ff3ad067ef1ee35ce4997762752e3a095284754544f4c709d7858460405161181592919061439d565b60405180910390a3611827838261328c565b92915050565b60046020528060005260406000206000915090505481565b3373ffffffffffffffffffffffffffffffffffffffff166118646116d2565b73ffffffffffffffffffffffffffffffffffffffff16146118ba576040517f08c379a00000000000000000000000000000000000000000000000000000000081526004016118b1906141d1565b60405180910390fd5b600073ffffffffffffffffffffffffffffffffffffffff16600b60009054906101000a900473ffffffffffffffffffffffffffffffffffffffff1673ffffffffffffffffffffffffffffffffffffffff167f8be0079c531659141344cd1fd0a4f28419497f9722a3daafe3b4186f6b6457e060405160405180910390a36000600b60006101000a81548173ffffffffffffffffffffffffffffffffffffffff021916908373ffffffffffffffffffffffffffffffffffffffff160217905550565b3373ffffffffffffffffffffffffffffffffffffffff1661199a6116d2565b73ffffffffffffffffffffffffffffffffffffffff16146119f0576040517f08c379a00000000000000000000000000000000000000000000000000000000081526004016119e7906141d1565b60405180910390fd5b670de0b6b3a7640000811115611a3b576040517f08c379a0000000000000000000000000000000000000000000000000000000008152600401611a3290614412565b60405180910390fd5b806010819055503373ffffffffffffffffffffffffffffffffffffffff167fec370615cc81fb334e5566fbc80664d9082377bf59288d64a79f3fbecf4323a982604051611a88919061371e565b60405180910390a250565b60086020528060005260406000206000915090505481565b60105481565b3373ffffffffffffffffffffffffffffffffffffffff16611ad06116d2565b73ffffffffffffffffffffffffffffffffffffffff1614611b26576040517f08c379a0000000000000000000000000000000000000000000000000000000008152600401611b1d906141d1565b60405180910390fd5b3373ffffffffffffffffffffffffffffffffffffffff16ff5b6000600a600084815260200190815260200160002060000160008373ffffffffffffffffffffffffffffffffffffffff1673ffffffffffffffffffffffffffffffffffffffff16815260200190815260200160002060009054906101000a900460ff16905092915050565b84600f60006101000a81548173ffffffffffffffffffffffffffffffffffffffff021916908373ffffffffffffffffffffffffffffffffffffffff16021790555083600b60006101000a81548173ffffffffffffffffffffffffffffffffffffffff021916908373ffffffffffffffffffffffffffffffffffffffff160217905550600260009054906101000a900460ff16600a611c489190614565565b600e819055507fffffffffffffffffffffffffffffffffffffffffffffffffffffffffffffffff600381905550611c8185848484611680565b6001601460006101000a81548160ff021916908315150217905550600b60009054906101000a900473ffffffffffffffffffffffffffffffffffffffff1673ffffffffffffffffffffffffffffffffffffffff167f908408e307fc569b417f6cbec5d5a06f44a0a505ac0479b47d421a4b2fd6a1e660405160405180910390a25050505050565b6000611d13836120f7565b9050611d64333083600960009054906101000a900473ffffffffffffffffffffffffffffffffffffffff1673ffffffffffffffffffffffffffffffffffffffff1661311d909392919063ffffffff16565b611d6e82846131bc565b8173ffffffffffffffffffffffffffffffffffffffff163373ffffffffffffffffffffffffffffffffffffffff167fdcbc1c05240f31ff3ad067ef1ee35ce4997762752e3a095284754544f4c709d78386604051611dcd92919061439d565b60405180910390a3611ddf818461328c565b92915050565b60018054611df2906140cb565b80601f0160208091040260200160405190810160405280929190818152602001828054611e1e906140cb565b8015611e6b5780601f10611e4057610100808354040283529160200191611e6b565b820191906000526020600020905b815481529060010190602001808311611e4e57829003601f168201915b505050505081565b6000801b81565b600081600460003373ffffffffffffffffffffffffffffffffffffffff1673ffffffffffffffffffffffffffffffffffffffff1681526020019081526020016000206000828254611ecb919061412b565b9250508190555081600460008573ffffffffffffffffffffffffffffffffffffffff1673ffffffffffffffffffffffffffffffffffffffff168152602001908152602001600020600082825401925050819055508273ffffffffffffffffffffffffffffffffffffffff163373ffffffffffffffffffffffffffffffffffffffff167fddf252ad1be2c89b69c2b068fc378daa952ba7f163c4a11628f55a4df523b3ef84604051611f7c919061371e565b60405180910390a36001905092915050565b3373ffffffffffffffffffffffffffffffffffffffff16611fad6116d2565b73ffffffffffffffffffffffffffffffffffffffff1614612003576040517f08c379a0000000000000000000000000000000000000000000000000000000008152600401611ffa906141d1565b60405180910390fd5b3373ffffffffffffffffffffffffffffffffffffffff167f9493e5bbe4e8e0ac67284469a2d677403d0378a85a59e341d3abc433d0d9a20982604051612049919061371e565b60405180910390a23073ffffffffffffffffffffffffffffffffffffffff1663a9059cbb33836040518363ffffffff1660e01b815260040161208c9291906145b0565b6020604051808303816000875af11580156120ab573d6000803e3d6000fd5b505050506040513d601f19601f820116820180604052508101906120cf91906145ee565b5050565b7f7c3948777991e30efc945b298d109fc7a0c0de63dd562adfea7f970336f317b081565b60008060035490506000811461212857612123612112610dfd565b8285612e2b9092919063ffffffff16565b61212a565b825b915050919050565b600061213d846110d5565b90508173ffffffffffffffffffffffffffffffffffffffff163373ffffffffffffffffffffffffffffffffffffffff16146122a9576000600560008473ffffffffffffffffffffffffffffffffffffffff1673ffffffffffffffffffffffffffffffffffffffff16815260200190815260200160002060003373ffffffffffffffffffffffffffffffffffffffff1673ffffffffffffffffffffffffffffffffffffffff1681526020019081526020016000205490507fffffffffffffffffffffffffffffffffffffffffffffffffffffffffffffffff81146122a7578181612226919061412b565b600560008573ffffffffffffffffffffffffffffffffffffffff1673ffffffffffffffffffffffffffffffffffffffff16815260200190815260200160002060003373ffffffffffffffffffffffffffffffffffffffff1673ffffffffffffffffffffffffffffffffffffffff168152602001908152602001600020819055505b505b6122b384826132a8565b6122bd82826132c4565b8173ffffffffffffffffffffffffffffffffffffffff168373ffffffffffffffffffffffffffffffffffffffff163373ffffffffffffffffffffffffffffffffffffffff167ffbde797d201c681b91056529119e0b02407c7bb96a4a2c75c01fc9667232c8db878560405161233392919061439d565b60405180910390a46123888385600960009054906101000a900473ffffffffffffffffffffffffffffffffffffffff1673ffffffffffffffffffffffffffffffffffffffff166133949092919063ffffffff16565b9392505050565b60008173ffffffffffffffffffffffffffffffffffffffff163373ffffffffffffffffffffffffffffffffffffffff16146124fb576000600560008473ffffffffffffffffffffffffffffffffffffffff1673ffffffffffffffffffffffffffffffffffffffff16815260200190815260200160002060003373ffffffffffffffffffffffffffffffffffffffff1673ffffffffffffffffffffffffffffffffffffffff1681526020019081526020016000205490507fffffffffffffffffffffffffffffffffffffffffffffffffffffffffffffffff81146124f9578481612478919061412b565b600560008573ffffffffffffffffffffffffffffffffffffffff1673ffffffffffffffffffffffffffffffffffffffff16815260200190815260200160002060003373ffffffffffffffffffffffffffffffffffffffff1673ffffffffffffffffffffffffffffffffffffffff168152602001908152602001600020819055505b505b6000612506856116fc565b91508103612549576040517f08c379a000000000000000000000000000000000000000000000000000000000815260040161254090614667565b60405180910390fd5b61255381856132a8565b61255d82856132c4565b8173ffffffffffffffffffffffffffffffffffffffff168373ffffffffffffffffffffffffffffffffffffffff163373ffffffffffffffffffffffffffffffffffffffff167ffbde797d201c681b91056529119e0b02407c7bb96a4a2c75c01fc9667232c8db84886040516125d392919061439d565b60405180910390a46126288382600960009054906101000a900473ffffffffffffffffffffffffffffffffffffffff1673ffffffffffffffffffffffffffffffffffffffff166133949092919063ffffffff16565b9392505050565b600c5481565b3373ffffffffffffffffffffffffffffffffffffffff166126546116d2565b73ffffffffffffffffffffffffffffffffffffffff16146126aa576040517f08c379a00000000000000000000000000000000000000000000000000000000081526004016126a1906141d1565b60405180910390fd5b670de0b6b3a76400008111156126f5576040517f08c379a00000000000000000000000000000000000000000000000000000000081526004016126ec906146d3565b60405180910390fd5b806011819055503373ffffffffffffffffffffffffffffffffffffffff167f95bc4480b51f4860106d42850bcae222cf3303fb2b7d433e896205e0ebefe36982604051612742919061371e565b60405180910390a250565b600f60009054906101000a900473ffffffffffffffffffffffffffffffffffffffff1681565b60007fffffffffffffffffffffffffffffffffffffffffffffffffffffffffffffffff9050919050565b6000806003549050600081146127ce576127c9816127b9610dfd565b85612e039092919063ffffffff16565b6127d0565b825b915050919050565b6000612822600460008473ffffffffffffffffffffffffffffffffffffffff1673ffffffffffffffffffffffffffffffffffffffff16815260200190815260200160002054610fa8565b9050919050565b4284101561286c576040517f08c379a00000000000000000000000000000000000000000000000000000000081526004016128639061473f565b60405180910390fd5b60006001612878611579565b7f6e71edae12b1b97f4d1f60370fef10105fa2faae0126114a169c64845d6126c98a8a8a600860008f73ffffffffffffffffffffffffffffffffffffffff1673ffffffffffffffffffffffffffffffffffffffff1681526020019081526020016000206000815480929190600101919050558b6040516020016129009695949392919061475f565b60405160208183030381529060405280519060200120604051602001612927929190614838565b604051602081830303815290604052805190602001208585856040516000815260200160405260405161295d949392919061486f565b6020604051602081039080840390855afa15801561297f573d6000803e3d6000fd5b505050602060405103519050600073ffffffffffffffffffffffffffffffffffffffff168173ffffffffffffffffffffffffffffffffffffffff16141580156129f357508773ffffffffffffffffffffffffffffffffffffffff168173ffffffffffffffffffffffffffffffffffffffff16145b612a32576040517f08c379a0000000000000000000000000000000000000000000000000000000008152600401612a2990614900565b60405180910390fd5b85600560008373ffffffffffffffffffffffffffffffffffffffff1673ffffffffffffffffffffffffffffffffffffffff16815260200190815260200160002060008973ffffffffffffffffffffffffffffffffffffffff1673ffffffffffffffffffffffffffffffffffffffff16815260200190815260200160002081905550508573ffffffffffffffffffffffffffffffffffffffff168773ffffffffffffffffffffffffffffffffffffffff167f8c5be1e5ebec7d5bd14f71427d1e84f3dd0314c0f7b2291e5b200ac8c7c3b92587604051612b11919061371e565b60405180910390a350505050505050565b612b2b82611366565b612b3481612e5d565b612b3e8383612fe6565b505050565b6000600460008373ffffffffffffffffffffffffffffffffffffffff1673ffffffffffffffffffffffffffffffffffffffff168152602001908152602001600020549050919050565b601460019054906101000a900460ff1681565b6005602052816000526040600020602052806000526040600020600091509150505481565b60135481565b6000612bd58261279d565b9050919050565b3373ffffffffffffffffffffffffffffffffffffffff16612bfb6116d2565b73ffffffffffffffffffffffffffffffffffffffff1614612c51576040517f08c379a0000000000000000000000000000000000000000000000000000000008152600401612c48906141d1565b60405180910390fd5b600073ffffffffffffffffffffffffffffffffffffffff168173ffffffffffffffffffffffffffffffffffffffff1603612cc0576040517f08c379a0000000000000000000000000000000000000000000000000000000008152600401612cb790614992565b60405180910390fd5b8073ffffffffffffffffffffffffffffffffffffffff16600b60009054906101000a900473ffffffffffffffffffffffffffffffffffffffff1673ffffffffffffffffffffffffffffffffffffffff167f8be0079c531659141344cd1fd0a4f28419497f9722a3daafe3b4186f6b6457e060405160405180910390a380600b60006101000a81548173ffffffffffffffffffffffffffffffffffffffff021916908373ffffffffffffffffffffffffffffffffffffffff16021790555050565b601260009054906101000a900460ff1681565b600d5481565b60007f01ffc9a7000000000000000000000000000000000000000000000000000000007bffffffffffffffffffffffffffffffffffffffffffffffffffffffff1916827bffffffffffffffffffffffffffffffffffffffffffffffffffffffff1916149050919050565b60008284029050828482041484151782151516612e1f57600080fd5b81810490509392505050565b60008284029050828482041484151782151516612e4757600080fd5b6001826001830304018115150290509392505050565b612e6e81612e69612fde565b61342c565b50565b612e7b8282611b3f565b612f4e576001600a600084815260200190815260200160002060000160008373ffffffffffffffffffffffffffffffffffffffff1673ffffffffffffffffffffffffffffffffffffffff16815260200190815260200160002060006101000a81548160ff021916908315150217905550612ef3612fde565b73ffffffffffffffffffffffffffffffffffffffff168173ffffffffffffffffffffffffffffffffffffffff16837f2f8788117e7eff1d82e926ec794901d17c78024a50270940304540a733656f0d60405160405180910390a45b5050565b60007f8b73c3c69bb8fe3d512ecc4cf759cc79239f7b179b0ffacaa9a75d522b39400f6000604051612f849190614a55565b60405180910390207fc89efdaa54c0f20c7adf612882df0950f5a951637e0307cdcb4c672f298b8bc64630604051602001612fc3959493929190614a6c565b60405160208183030381529060405280519060200120905090565b600033905090565b612ff08282611b3f565b156130c4576000600a600084815260200190815260200160002060000160008373ffffffffffffffffffffffffffffffffffffffff1673ffffffffffffffffffffffffffffffffffffffff16815260200190815260200160002060006101000a81548160ff021916908315150217905550613069612fde565b73ffffffffffffffffffffffffffffffffffffffff168173ffffffffffffffffffffffffffffffffffffffff16837ff6391f5c32d9c69d2a47ea670b442974b53935d1edc7fd64eb21e047a839171b60405160405180910390a45b5050565b82600090816130d79190614c61565b5081600190816130e79190614c61565b5080600260006101000a81548160ff021916908360ff16021790555046600681905550613112612f52565b600781905550505050565b60006040517f23b872dd0000000000000000000000000000000000000000000000000000000081528460048201528360248201528260448201526020600060648360008a5af13d15601f3d11600160005114161716915050806131b5576040517f08c379a00000000000000000000000000000000000000000000000000000000081526004016131ac90614d7f565b60405180910390fd5b5050505050565b80600360008282546131ce9190614d9f565b9250508190555080600460008473ffffffffffffffffffffffffffffffffffffffff1673ffffffffffffffffffffffffffffffffffffffff168152602001908152602001600020600082825401925050819055508173ffffffffffffffffffffffffffffffffffffffff16600073ffffffffffffffffffffffffffffffffffffffff167fddf252ad1be2c89b69c2b068fc378daa952ba7f163c4a11628f55a4df523b3ef83604051613280919061371e565b60405180910390a35050565b600d600081548092919061329f90614dd3565b91905055505050565b600c60008154809291906132bb90614dd3565b91905055505050565b80600460008473ffffffffffffffffffffffffffffffffffffffff1673ffffffffffffffffffffffffffffffffffffffff1681526020019081526020016000206000828254613313919061412b565b9250508190555080600360008282540392505081905550600073ffffffffffffffffffffffffffffffffffffffff168273ffffffffffffffffffffffffffffffffffffffff167fddf252ad1be2c89b69c2b068fc378daa952ba7f163c4a11628f55a4df523b3ef83604051613388919061371e565b60405180910390a35050565b60006040517fa9059cbb000000000000000000000000000000000000000000000000000000008152836004820152826024820152602060006044836000895af13d15601f3d1160016000511416171691505080613426576040517f08c379a000000000000000000000000000000000000000000000000000000000815260040161341d90614e67565b60405180910390fd5b50505050565b6134368282611b3f565b6134c55761345b8173ffffffffffffffffffffffffffffffffffffffff1660146134c9565b6134698360001c60206134c9565b60405160200161347a929190614f50565b6040516020818303038152906040526040517f08c379a00000000000000000000000000000000000000000000000000000000081526004016134bc9190613898565b60405180910390fd5b5050565b6060600060028360026134dc9190614f8a565b6134e69190614d9f565b67ffffffffffffffff8111156134ff576134fe613c12565b5b6040519080825280601f01601f1916602001820160405280156135315781602001600182028036833780820191505090505b5090507f30000000000000000000000000000000000000000000000000000000000000008160008151811061356957613568614fcc565b5b60200101907effffffffffffffffffffffffffffffffffffffffffffffffffffffffffffff1916908160001a9053507f7800000000000000000000000000000000000000000000000000000000000000816001815181106135cd576135cc614fcc565b5b60200101907effffffffffffffffffffffffffffffffffffffffffffffffffffffffffffff1916908160001a9053506000600184600261360d9190614f8a565b6136179190614d9f565b90505b60018111156136b7577f3031323334353637383961626364656600000000000000000000000000000000600f86166010811061365957613658614fcc565b5b1a60f81b8282815181106136705761366f614fcc565b5b60200101907effffffffffffffffffffffffffffffffffffffffffffffffffffffffffffff1916908160001a905350600485901c9450806136b090614ffb565b905061361a565b50600084146136fb576040517f08c379a00000000000000000000000000000000000000000000000000000000081526004016136f290615070565b60405180910390fd5b8091505092915050565b6000819050919050565b61371881613705565b82525050565b6000602082019050613733600083018461370f565b92915050565b6000604051905090565b600080fd5b600080fd5b60007fffffffff0000000000000000000000000000000000000000000000000000000082169050919050565b6137828161374d565b811461378d57600080fd5b50565b60008135905061379f81613779565b92915050565b6000602082840312156137bb576137ba613743565b5b60006137c984828501613790565b91505092915050565b60008115159050919050565b6137e7816137d2565b82525050565b600060208201905061380260008301846137de565b92915050565b600081519050919050565b600082825260208201905092915050565b60005b83811015613842578082015181840152602081019050613827565b60008484015250505050565b6000601f19601f8301169050919050565b600061386a82613808565b6138748185613813565b9350613884818560208601613824565b61388d8161384e565b840191505092915050565b600060208201905081810360008301526138b2818461385f565b905092915050565b6138c381613705565b81146138ce57600080fd5b50565b6000813590506138e0816138ba565b92915050565b6000602082840312156138fc576138fb613743565b5b600061390a848285016138d1565b91505092915050565b600073ffffffffffffffffffffffffffffffffffffffff82169050919050565b600061393e82613913565b9050919050565b61394e81613933565b811461395957600080fd5b50565b60008135905061396b81613945565b92915050565b6000806040838503121561398857613987613743565b5b60006139968582860161395c565b92505060206139a7858286016138d1565b9150509250929050565b6000806000606084860312156139ca576139c9613743565b5b60006139d88682870161395c565b93505060206139e98682870161395c565b92505060406139fa868287016138d1565b9150509250925092565b6000819050919050565b613a1781613a04565b8114613a2257600080fd5b50565b600081359050613a3481613a0e565b92915050565b600060208284031215613a5057613a4f613743565b5b6000613a5e84828501613a25565b91505092915050565b613a7081613a04565b82525050565b6000602082019050613a8b6000830184613a67565b92915050565b60008060408385031215613aa857613aa7613743565b5b6000613ab685828601613a25565b9250506020613ac78582860161395c565b9150509250929050565b600060ff82169050919050565b613ae781613ad1565b82525050565b6000602082019050613b026000830184613ade565b92915050565b613b11816137d2565b8114613b1c57600080fd5b50565b600081359050613b2e81613b08565b92915050565b600060208284031215613b4a57613b49613743565b5b6000613b5884828501613b1f565b91505092915050565b6000819050919050565b6000613b86613b81613b7c84613913565b613b61565b613913565b9050919050565b6000613b9882613b6b565b9050919050565b6000613baa82613b8d565b9050919050565b613bba81613b9f565b82525050565b6000602082019050613bd56000830184613bb1565b92915050565b600060208284031215613bf157613bf0613743565b5b6000613bff8482850161395c565b91505092915050565b600080fd5b600080fd5b7f4e487b7100000000000000000000000000000000000000000000000000000000600052604160045260246000fd5b613c4a8261384e565b810181811067ffffffffffffffff82111715613c6957613c68613c12565b5b80604052505050565b6000613c7c613739565b9050613c888282613c41565b919050565b600067ffffffffffffffff821115613ca857613ca7613c12565b5b613cb18261384e565b9050602081019050919050565b82818337600083830152505050565b6000613ce0613cdb84613c8d565b613c72565b905082815260208101848484011115613cfc57613cfb613c0d565b5b613d07848285613cbe565b509392505050565b600082601f830112613d2457613d23613c08565b5b8135613d34848260208601613ccd565b91505092915050565b613d4681613ad1565b8114613d5157600080fd5b50565b600081359050613d6381613d3d565b92915050565b60008060008060808587031215613d8357613d82613743565b5b6000613d918782880161395c565b945050602085013567ffffffffffffffff811115613db257613db1613748565b5b613dbe87828801613d0f565b935050604085013567ffffffffffffffff811115613ddf57613dde613748565b5b613deb87828801613d0f565b9250506060613dfc87828801613d54565b91505092959194509250565b613e1181613933565b82525050565b6000602082019050613e2c6000830184613e08565b92915050565b60008060408385031215613e4957613e48613743565b5b6000613e57858286016138d1565b9250506020613e688582860161395c565b9150509250929050565b600080600080600060a08688031215613e8e57613e8d613743565b5b6000613e9c8882890161395c565b9550506020613ead8882890161395c565b945050604086013567ffffffffffffffff811115613ece57613ecd613748565b5b613eda88828901613d0f565b935050606086013567ffffffffffffffff811115613efb57613efa613748565b5b613f0788828901613d0f565b9250506080613f1888828901613d54565b9150509295509295909350565b600080600060608486031215613f3e57613f3d613743565b5b6000613f4c868287016138d1565b9350506020613f5d8682870161395c565b9250506040613f6e8682870161395c565b9150509250925092565b600080600080600080600060e0888a031215613f9757613f96613743565b5b6000613fa58a828b0161395c565b9750506020613fb68a828b0161395c565b9650506040613fc78a828b016138d1565b9550506060613fd88a828b016138d1565b9450506080613fe98a828b01613d54565b93505060a0613ffa8a828b01613a25565b92505060c061400b8a828b01613a25565b91505092959891949750929550565b6000806040838503121561403157614030613743565b5b600061403f8582860161395c565b92505060206140508582860161395c565b9150509250929050565b600081519050614069816138ba565b92915050565b60006020828403121561408557614084613743565b5b60006140938482850161405a565b91505092915050565b7f4e487b7100000000000000000000000000000000000000000000000000000000600052602260045260246000fd5b600060028204905060018216806140e357607f821691505b6020821081036140f6576140f561409c565b5b50919050565b7f4e487b7100000000000000000000000000000000000000000000000000000000600052601160045260246000fd5b600061413682613705565b915061414183613705565b9250828203905081811115614159576141586140fc565b5b92915050565b7f4f776e61626c653a2063616c6c6572206973206e6f7420746865206d616e616760008201527f6572000000000000000000000000000000000000000000000000000000000000602082015250565b60006141bb602283613813565b91506141c68261415f565b604082019050919050565b600060208201905081810360008301526141ea816141ae565b9050919050565b60008151905061420081613d3d565b92915050565b60006020828403121561421c5761421b613743565b5b600061422a848285016141f1565b91505092915050565b7f57524f4e475f444543494d414c53000000000000000000000000000000000000600082015250565b6000614269600e83613813565b915061427482614233565b602082019050919050565b600060208201905081810360008301526142988161425c565b9050919050565b7f416363657373436f6e74726f6c3a2063616e206f6e6c792072656e6f756e636560008201527f20726f6c657320666f722073656c660000000000000000000000000000000000602082015250565b60006142fb602f83613813565b91506143068261429f565b604082019050919050565b6000602082019050818103600083015261432a816142ee565b9050919050565b7f5a45524f5f534841524553000000000000000000000000000000000000000000600082015250565b6000614367600b83613813565b915061437282614331565b602082019050919050565b600060208201905081810360008301526143968161435a565b9050919050565b60006040820190506143b2600083018561370f565b6143bf602083018461370f565b9392505050565b7f4645455f544f4f5f484947480000000000000000000000000000000000000000600082015250565b60006143fc600c83613813565b9150614407826143c6565b602082019050919050565b6000602082019050818103600083015261442b816143ef565b9050919050565b60008160011c9050919050565b6000808291508390505b600185111561448957808604811115614465576144646140fc565b5b60018516156144745780820291505b808102905061448285614432565b9450614449565b94509492505050565b6000826144a2576001905061455e565b816144b0576000905061455e565b81600181146144c657600281146144d0576144ff565b600191505061455e565b60ff8411156144e2576144e16140fc565b5b8360020a9150848211156144f9576144f86140fc565b5b5061455e565b5060208310610133831016604e8410600b84101617156145345782820a90508381111561452f5761452e6140fc565b5b61455e565b614541848484600161443f565b92509050818404811115614558576145576140fc565b5b81810290505b9392505050565b600061457082613705565b915061457b83613ad1565b92506145a87fffffffffffffffffffffffffffffffffffffffffffffffffffffffffffffffff8484614492565b905092915050565b60006040820190506145c56000830185613e08565b6145d2602083018461370f565b9392505050565b6000815190506145e881613b08565b92915050565b60006020828403121561460457614603613743565b5b6000614612848285016145d9565b91505092915050565b7f5a45524f5f415353455453000000000000000000000000000000000000000000600082015250565b6000614651600b83613813565b915061465c8261461b565b602082019050919050565b6000602082019050818103600083015261468081614644565b9050919050565b7f5441524745545f544f4f5f484947480000000000000000000000000000000000600082015250565b60006146bd600f83613813565b91506146c882614687565b602082019050919050565b600060208201905081810360008301526146ec816146b0565b9050919050565b7f5045524d49545f444541444c494e455f45585049524544000000000000000000600082015250565b6000614729601783613813565b9150614734826146f3565b602082019050919050565b600060208201905081810360008301526147588161471c565b9050919050565b600060c0820190506147746000830189613a67565b6147816020830188613e08565b61478e6040830187613e08565b61479b606083018661370f565b6147a8608083018561370f565b6147b560a083018461370f565b979650505050505050565b600081905092915050565b7f1901000000000000000000000000000000000000000000000000000000000000600082015250565b60006148016002836147c0565b915061480c826147cb565b600282019050919050565b6000819050919050565b61483261482d82613a04565b614817565b82525050565b6000614843826147f4565b915061484f8285614821565b60208201915061485f8284614821565b6020820191508190509392505050565b60006080820190506148846000830187613a67565b6148916020830186613ade565b61489e6040830185613a67565b6148ab6060830184613a67565b95945050505050565b7f494e56414c49445f5349474e4552000000000000000000000000000000000000600082015250565b60006148ea600e83613813565b91506148f5826148b4565b602082019050919050565b60006020820190508181036000830152614919816148dd565b9050919050565b7f4f776e61626c653a206e6577206d616e6167657220697320746865207a65726f60008201527f2061646472657373000000000000000000000000000000000000000000000000602082015250565b600061497c602883613813565b915061498782614920565b604082019050919050565b600060208201905081810360008301526149ab8161496f565b9050919050565b600081905092915050565b60008190508160005260206000209050919050565b600081546149df816140cb565b6149e981866149b2565b94506001821660008114614a045760018114614a1957614a4c565b60ff1983168652811515820286019350614a4c565b614a22856149bd565b60005b83811015614a4457815481890152600182019150602081019050614a25565b838801955050505b50505092915050565b6000614a6182846149d2565b915081905092915050565b600060a082019050614a816000830188613a67565b614a8e6020830187613a67565b614a9b6040830186613a67565b614aa8606083018561370f565b614ab56080830184613e08565b9695505050505050565b60008190508160005260206000209050919050565b60006020601f8301049050919050565b600082821b905092915050565b600060088302614b217fffffffffffffffffffffffffffffffffffffffffffffffffffffffffffffffff82614ae4565b614b2b8683614ae4565b95508019841693508086168417925050509392505050565b6000614b5e614b59614b5484613705565b613b61565b613705565b9050919050565b6000819050919050565b614b7883614b43565b614b8c614b8482614b65565b848454614af1565b825550505050565b600090565b614ba1614b94565b614bac818484614b6f565b505050565b5b81811015614bd057614bc5600082614b99565b600181019050614bb2565b5050565b601f821115614c1557614be681614abf565b614bef84614ad4565b81016020851015614bfe578190505b614c12614c0a85614ad4565b830182614bb1565b50505b505050565b600082821c905092915050565b6000614c3860001984600802614c1a565b1980831691505092915050565b6000614c518383614c27565b9150826002028217905092915050565b614c6a82613808565b67ffffffffffffffff811115614c8357614c82613c12565b5b614c8d82546140cb565b614c98828285614bd4565b600060209050601f831160018114614ccb5760008415614cb9578287015190505b614cc38582614c45565b865550614d2b565b601f198416614cd986614abf565b60005b82811015614d0157848901518255600182019150602085019450602081019050614cdc565b86831015614d1e5784890151614d1a601f891682614c27565b8355505b6001600288020188555050505b505050505050565b7f5452414e534645525f46524f4d5f4641494c4544000000000000000000000000600082015250565b6000614d69601483613813565b9150614d7482614d33565b602082019050919050565b60006020820190508181036000830152614d9881614d5c565b9050919050565b6000614daa82613705565b9150614db583613705565b9250828201905080821115614dcd57614dcc6140fc565b5b92915050565b6000614dde82613705565b91507fffffffffffffffffffffffffffffffffffffffffffffffffffffffffffffffff8203614e1057614e0f6140fc565b5b600182019050919050565b7f5452414e534645525f4641494c45440000000000000000000000000000000000600082015250565b6000614e51600f83613813565b9150614e5c82614e1b565b602082019050919050565b60006020820190508181036000830152614e8081614e44565b9050919050565b7f416363657373436f6e74726f6c3a206163636f756e7420000000000000000000600082015250565b6000614ebd6017836147c0565b9150614ec882614e87565b601782019050919050565b6000614ede82613808565b614ee881856147c0565b9350614ef8818560208601613824565b80840191505092915050565b7f206973206d697373696e6720726f6c6520000000000000000000000000000000600082015250565b6000614f3a6011836147c0565b9150614f4582614f04565b601182019050919050565b6000614f5b82614eb0565b9150614f678285614ed3565b9150614f7282614f2d565b9150614f7e8284614ed3565b91508190509392505050565b6000614f9582613705565b9150614fa083613705565b9250828202614fae81613705565b91508282048414831517614fc557614fc46140fc565b5b5092915050565b7f4e487b7100000000000000000000000000000000000000000000000000000000600052603260045260246000fd5b600061500682613705565b915060008203615019576150186140fc565b5b600182039050919050565b7f537472696e67733a20686578206c656e67746820696e73756666696369656e74600082015250565b600061505a602083613813565b915061506582615024565b602082019050919050565b600060208201905081810360008301526150898161504d565b905091905056fea26469706673582212203d53eda64a38da28a5a345aa2f6f9c3317459bb573136515b0a4acb76a723c5f64736f6c63430008110033",
			"opcodes": "PUSH1 0x80 PUSH1 0x40 MSTORE PUSH1 0x0 PUSH1 0xC SSTORE PUSH1 0x0 PUSH1 0xD SSTORE CALLVALUE DUP1 ISZERO PUSH3 0x1B JUMPI PUSH1 0x0 DUP1 REVERT JUMPDEST POP PUSH3 0x31 PUSH1 0x0 DUP1 SHL CALLER PUSH3 0x37 PUSH1 0x20 SHL PUSH1 0x20 SHR JUMP JUMPDEST PUSH3 0x1B2 JUMP JUMPDEST PUSH3 0x49 DUP3 DUP3 PUSH3 0x4D PUSH1 0x20 SHL PUSH1 0x20 SHR JUMP JUMPDEST POP POP JUMP JUMPDEST PUSH3 0x5F DUP3 DUP3 PUSH3 0x13F PUSH1 0x20 SHL PUSH1 0x20 SHR JUMP JUMPDEST PUSH3 0x13B JUMPI PUSH1 0x1 PUSH1 0xA PUSH1 0x0 DUP5 DUP2 MSTORE PUSH1 0x20 ADD SWAP1 DUP2 MSTORE PUSH1 0x20 ADD PUSH1 0x0 KECCAK256 PUSH1 0x0 ADD PUSH1 0x0 DUP4 PUSH20 0xFFFFFFFFFFFFFFFFFFFFFFFFFFFFFFFFFFFFFFFF AND PUSH20 0xFFFFFFFFFFFFFFFFFFFFFFFFFFFFFFFFFFFFFFFF AND DUP2 MSTORE PUSH1 0x20 ADD SWAP1 DUP2 MSTORE PUSH1 0x20 ADD PUSH1 0x0 KECCAK256 PUSH1 0x0 PUSH2 0x100 EXP DUP2 SLOAD DUP2 PUSH1 0xFF MUL NOT AND SWAP1 DUP4 ISZERO ISZERO MUL OR SWAP1 SSTORE POP PUSH3 0xE0 PUSH3 0x1AA PUSH1 0x20 SHL PUSH1 0x20 SHR JUMP JUMPDEST PUSH20 0xFFFFFFFFFFFFFFFFFFFFFFFFFFFFFFFFFFFFFFFF AND DUP2 PUSH20 0xFFFFFFFFFFFFFFFFFFFFFFFFFFFFFFFFFFFFFFFF AND DUP4 PUSH32 0x2F8788117E7EFF1D82E926EC794901D17C78024A50270940304540A733656F0D PUSH1 0x40 MLOAD PUSH1 0x40 MLOAD DUP1 SWAP2 SUB SWAP1 LOG4 JUMPDEST POP POP JUMP JUMPDEST PUSH1 0x0 PUSH1 0xA PUSH1 0x0 DUP5 DUP2 MSTORE PUSH1 0x20 ADD SWAP1 DUP2 MSTORE PUSH1 0x20 ADD PUSH1 0x0 KECCAK256 PUSH1 0x0 ADD PUSH1 0x0 DUP4 PUSH20 0xFFFFFFFFFFFFFFFFFFFFFFFFFFFFFFFFFFFFFFFF AND PUSH20 0xFFFFFFFFFFFFFFFFFFFFFFFFFFFFFFFFFFFFFFFF AND DUP2 MSTORE PUSH1 0x20 ADD SWAP1 DUP2 MSTORE PUSH1 0x20 ADD PUSH1 0x0 KECCAK256 PUSH1 0x0 SWAP1 SLOAD SWAP1 PUSH2 0x100 EXP SWAP1 DIV PUSH1 0xFF AND SWAP1 POP SWAP3 SWAP2 POP POP JUMP JUMPDEST PUSH1 0x0 CALLER SWAP1 POP SWAP1 JUMP JUMPDEST PUSH2 0x50C6 DUP1 PUSH3 0x1C2 PUSH1 0x0 CODECOPY PUSH1 0x0 RETURN INVALID PUSH1 0x80 PUSH1 0x40 MSTORE PUSH1 0x4 CALLDATASIZE LT PUSH2 0x354 JUMPI PUSH1 0x0 CALLDATALOAD PUSH1 0xE0 SHR DUP1 PUSH4 0x83197EF0 GT PUSH2 0x1C6 JUMPI DUP1 PUSH4 0xC5D664C6 GT PUSH2 0xF7 JUMPI DUP1 PUSH4 0xDC9A1535 GT PUSH2 0x95 JUMPI DUP1 PUSH4 0xEF8B30F7 GT PUSH2 0x6F JUMPI DUP1 PUSH4 0xEF8B30F7 EQ PUSH2 0xD41 JUMPI DUP1 PUSH4 0xF2FDE38B EQ PUSH2 0xD7E JUMPI DUP1 PUSH4 0xF84D73F4 EQ PUSH2 0xDA7 JUMPI DUP1 PUSH4 0xFC407AE7 EQ PUSH2 0xDD2 JUMPI PUSH2 0x35B JUMP JUMPDEST DUP1 PUSH4 0xDC9A1535 EQ PUSH2 0xCAE JUMPI DUP1 PUSH4 0xDD62ED3E EQ PUSH2 0xCD9 JUMPI DUP1 PUSH4 0xECAD9565 EQ PUSH2 0xD16 JUMPI PUSH2 0x35B JUMP JUMPDEST DUP1 PUSH4 0xCE96CB77 GT PUSH2 0xD1 JUMPI DUP1 PUSH4 0xCE96CB77 EQ PUSH2 0xBE2 JUMPI DUP1 PUSH4 0xD505ACCF EQ PUSH2 0xC1F JUMPI DUP1 PUSH4 0xD547741F EQ PUSH2 0xC48 JUMPI DUP1 PUSH4 0xD905777E EQ PUSH2 0xC71 JUMPI PUSH2 0x35B JUMP JUMPDEST DUP1 PUSH4 0xC5D664C6 EQ PUSH2 0xB3D JUMPI DUP1 PUSH4 0xC63D75B6 EQ PUSH2 0xB68 JUMPI DUP1 PUSH4 0xC6E6F592 EQ PUSH2 0xBA5 JUMPI PUSH2 0x35B JUMP JUMPDEST DUP1 PUSH4 0xAC68A748 GT PUSH2 0x164 JUMPI DUP1 PUSH4 0xB460AF94 GT PUSH2 0x13E JUMPI DUP1 PUSH4 0xB460AF94 EQ PUSH2 0xA6F JUMPI DUP1 PUSH4 0xBA087652 EQ PUSH2 0xAAC JUMPI DUP1 PUSH4 0xBC368A8A EQ PUSH2 0xAE9 JUMPI DUP1 PUSH4 0xBD662F88 EQ PUSH2 0xB14 JUMPI PUSH2 0x35B JUMP JUMPDEST DUP1 PUSH4 0xAC68A748 EQ PUSH2 0x9DE JUMPI DUP1 PUSH4 0xB258A6F5 EQ PUSH2 0xA07 JUMPI DUP1 PUSH4 0xB3D7F6B9 EQ PUSH2 0xA32 JUMPI PUSH2 0x35B JUMP JUMPDEST DUP1 PUSH4 0x94BF804D GT PUSH2 0x1A0 JUMPI DUP1 PUSH4 0x94BF804D EQ PUSH2 0x90E JUMPI DUP1 PUSH4 0x95D89B41 EQ PUSH2 0x94B JUMPI DUP1 PUSH4 0xA217FDDF EQ PUSH2 0x976 JUMPI DUP1 PUSH4 0xA9059CBB EQ PUSH2 0x9A1 JUMPI PUSH2 0x35B JUMP JUMPDEST DUP1 PUSH4 0x83197EF0 EQ PUSH2 0x891 JUMPI DUP1 PUSH4 0x91D14854 EQ PUSH2 0x8A8 JUMPI DUP1 PUSH4 0x9309971C EQ PUSH2 0x8E5 JUMPI PUSH2 0x35B JUMP JUMPDEST DUP1 PUSH4 0x3644E515 GT PUSH2 0x2A0 JUMPI DUP1 PUSH4 0x4CDAD506 GT PUSH2 0x23E JUMPI DUP1 PUSH4 0x715018A6 GT PUSH2 0x218 JUMPI DUP1 PUSH4 0x715018A6 EQ PUSH2 0x7E9 JUMPI DUP1 PUSH4 0x7CE3489B EQ PUSH2 0x800 JUMPI DUP1 PUSH4 0x7ECEBE00 EQ PUSH2 0x829 JUMPI DUP1 PUSH4 0x7FD6F15C EQ PUSH2 0x866 JUMPI PUSH2 0x35B JUMP JUMPDEST DUP1 PUSH4 0x4CDAD506 EQ PUSH2 0x732 JUMPI DUP1 PUSH4 0x6E553F65 EQ PUSH2 0x76F JUMPI DUP1 PUSH4 0x70A08231 EQ PUSH2 0x7AC JUMPI PUSH2 0x35B JUMP JUMPDEST DUP1 PUSH4 0x392E53CD GT PUSH2 0x27A JUMPI DUP1 PUSH4 0x392E53CD EQ PUSH2 0x676 JUMPI DUP1 PUSH4 0x402D267D EQ PUSH2 0x6A1 JUMPI DUP1 PUSH4 0x422F596F EQ PUSH2 0x6DE JUMPI DUP1 PUSH4 0x481C6A75 EQ PUSH2 0x707 JUMPI PUSH2 0x35B JUMP JUMPDEST DUP1 PUSH4 0x3644E515 EQ PUSH2 0x5F7 JUMPI DUP1 PUSH4 0x36568ABE EQ PUSH2 0x622 JUMPI DUP1 PUSH4 0x38D52E0F EQ PUSH2 0x64B JUMPI PUSH2 0x35B JUMP JUMPDEST DUP1 PUSH4 0x18160DDD GT PUSH2 0x30D JUMPI DUP1 PUSH4 0x248A9CA3 GT PUSH2 0x2E7 JUMPI DUP1 PUSH4 0x248A9CA3 EQ PUSH2 0x53D JUMPI DUP1 PUSH4 0x2F2FF15D EQ PUSH2 0x57A JUMPI DUP1 PUSH4 0x313CE567 EQ PUSH2 0x5A3 JUMPI DUP1 PUSH4 0x32FF7732 EQ PUSH2 0x5CE JUMPI PUSH2 0x35B JUMP JUMPDEST DUP1 PUSH4 0x18160DDD EQ PUSH2 0x4AA JUMPI DUP1 PUSH4 0x1C693478 EQ PUSH2 0x4D5 JUMPI DUP1 PUSH4 0x23B872DD EQ PUSH2 0x500 JUMPI PUSH2 0x35B JUMP JUMPDEST DUP1 PUSH4 0x1E1D114 EQ PUSH2 0x360 JUMPI DUP1 PUSH4 0x1FFC9A7 EQ PUSH2 0x38B JUMPI DUP1 PUSH4 0x6FDDE03 EQ PUSH2 0x3C8 JUMPI DUP1 PUSH4 0x7A2D13A EQ PUSH2 0x3F3 JUMPI DUP1 PUSH4 0x95EA7B3 EQ PUSH2 0x430 JUMPI DUP1 PUSH4 0xA28A477 EQ PUSH2 0x46D JUMPI PUSH2 0x35B JUMP JUMPDEST CALLDATASIZE PUSH2 0x35B JUMPI STOP JUMPDEST PUSH1 0x0 DUP1 REVERT JUMPDEST CALLVALUE DUP1 ISZERO PUSH2 0x36C JUMPI PUSH1 0x0 DUP1 REVERT JUMPDEST POP PUSH2 0x375 PUSH2 0xDFD JUMP JUMPDEST PUSH1 0x40 MLOAD PUSH2 0x382 SWAP2 SWAP1 PUSH2 0x371E JUMP JUMPDEST PUSH1 0x40 MLOAD DUP1 SWAP2 SUB SWAP1 RETURN JUMPDEST CALLVALUE DUP1 ISZERO PUSH2 0x397 JUMPI PUSH1 0x0 DUP1 REVERT JUMPDEST POP PUSH2 0x3B2 PUSH1 0x4 DUP1 CALLDATASIZE SUB DUP2 ADD SWAP1 PUSH2 0x3AD SWAP2 SWAP1 PUSH2 0x37A5 JUMP JUMPDEST PUSH2 0xEA0 JUMP JUMPDEST PUSH1 0x40 MLOAD PUSH2 0x3BF SWAP2 SWAP1 PUSH2 0x37ED JUMP JUMPDEST PUSH1 0x40 MLOAD DUP1 SWAP2 SUB SWAP1 RETURN JUMPDEST CALLVALUE DUP1 ISZERO PUSH2 0x3D4 JUMPI PUSH1 0x0 DUP1 REVERT JUMPDEST POP PUSH2 0x3DD PUSH2 0xF1A JUMP JUMPDEST PUSH1 0x40 MLOAD PUSH2 0x3EA SWAP2 SWAP1 PUSH2 0x3898 JUMP JUMPDEST PUSH1 0x40 MLOAD DUP1 SWAP2 SUB SWAP1 RETURN JUMPDEST CALLVALUE DUP1 ISZERO PUSH2 0x3FF JUMPI PUSH1 0x0 DUP1 REVERT JUMPDEST POP PUSH2 0x41A PUSH1 0x4 DUP1 CALLDATASIZE SUB DUP2 ADD SWAP1 PUSH2 0x415 SWAP2 SWAP1 PUSH2 0x38E6 JUMP JUMPDEST PUSH2 0xFA8 JUMP JUMPDEST PUSH1 0x40 MLOAD PUSH2 0x427 SWAP2 SWAP1 PUSH2 0x371E JUMP JUMPDEST PUSH1 0x40 MLOAD DUP1 SWAP2 SUB SWAP1 RETURN JUMPDEST CALLVALUE DUP1 ISZERO PUSH2 0x43C JUMPI PUSH1 0x0 DUP1 REVERT JUMPDEST POP PUSH2 0x457 PUSH1 0x4 DUP1 CALLDATASIZE SUB DUP2 ADD SWAP1 PUSH2 0x452 SWAP2 SWAP1 PUSH2 0x3971 JUMP JUMPDEST PUSH2 0xFE3 JUMP JUMPDEST PUSH1 0x40 MLOAD PUSH2 0x464 SWAP2 SWAP1 PUSH2 0x37ED JUMP JUMPDEST PUSH1 0x40 MLOAD DUP1 SWAP2 SUB SWAP1 RETURN JUMPDEST CALLVALUE DUP1 ISZERO PUSH2 0x479 JUMPI PUSH1 0x0 DUP1 REVERT JUMPDEST POP PUSH2 0x494 PUSH1 0x4 DUP1 CALLDATASIZE SUB DUP2 ADD SWAP1 PUSH2 0x48F SWAP2 SWAP1 PUSH2 0x38E6 JUMP JUMPDEST PUSH2 0x10D5 JUMP JUMPDEST PUSH1 0x40 MLOAD PUSH2 0x4A1 SWAP2 SWAP1 PUSH2 0x371E JUMP JUMPDEST PUSH1 0x40 MLOAD DUP1 SWAP2 SUB SWAP1 RETURN JUMPDEST CALLVALUE DUP1 ISZERO PUSH2 0x4B6 JUMPI PUSH1 0x0 DUP1 REVERT JUMPDEST POP PUSH2 0x4BF PUSH2 0x1110 JUMP JUMPDEST PUSH1 0x40 MLOAD PUSH2 0x4CC SWAP2 SWAP1 PUSH2 0x371E JUMP JUMPDEST PUSH1 0x40 MLOAD DUP1 SWAP2 SUB SWAP1 RETURN JUMPDEST CALLVALUE DUP1 ISZERO PUSH2 0x4E1 JUMPI PUSH1 0x0 DUP1 REVERT JUMPDEST POP PUSH2 0x4EA PUSH2 0x1116 JUMP JUMPDEST PUSH1 0x40 MLOAD PUSH2 0x4F7 SWAP2 SWAP1 PUSH2 0x371E JUMP JUMPDEST PUSH1 0x40 MLOAD DUP1 SWAP2 SUB SWAP1 RETURN JUMPDEST CALLVALUE DUP1 ISZERO PUSH2 0x50C JUMPI PUSH1 0x0 DUP1 REVERT JUMPDEST POP PUSH2 0x527 PUSH1 0x4 DUP1 CALLDATASIZE SUB DUP2 ADD SWAP1 PUSH2 0x522 SWAP2 SWAP1 PUSH2 0x39B1 JUMP JUMPDEST PUSH2 0x111C JUMP JUMPDEST PUSH1 0x40 MLOAD PUSH2 0x534 SWAP2 SWAP1 PUSH2 0x37ED JUMP JUMPDEST PUSH1 0x40 MLOAD DUP1 SWAP2 SUB SWAP1 RETURN JUMPDEST CALLVALUE DUP1 ISZERO PUSH2 0x549 JUMPI PUSH1 0x0 DUP1 REVERT JUMPDEST POP PUSH2 0x564 PUSH1 0x4 DUP1 CALLDATASIZE SUB DUP2 ADD SWAP1 PUSH2 0x55F SWAP2 SWAP1 PUSH2 0x3A3A JUMP JUMPDEST PUSH2 0x1366 JUMP JUMPDEST PUSH1 0x40 MLOAD PUSH2 0x571 SWAP2 SWAP1 PUSH2 0x3A76 JUMP JUMPDEST PUSH1 0x40 MLOAD DUP1 SWAP2 SUB SWAP1 RETURN JUMPDEST CALLVALUE DUP1 ISZERO PUSH2 0x586 JUMPI PUSH1 0x0 DUP1 REVERT JUMPDEST POP PUSH2 0x5A1 PUSH1 0x4 DUP1 CALLDATASIZE SUB DUP2 ADD SWAP1 PUSH2 0x59C SWAP2 SWAP1 PUSH2 0x3A91 JUMP JUMPDEST PUSH2 0x1386 JUMP JUMPDEST STOP JUMPDEST CALLVALUE DUP1 ISZERO PUSH2 0x5AF JUMPI PUSH1 0x0 DUP1 REVERT JUMPDEST POP PUSH2 0x5B8 PUSH2 0x13A7 JUMP JUMPDEST PUSH1 0x40 MLOAD PUSH2 0x5C5 SWAP2 SWAP1 PUSH2 0x3AED JUMP JUMPDEST PUSH1 0x40 MLOAD DUP1 SWAP2 SUB SWAP1 RETURN JUMPDEST CALLVALUE DUP1 ISZERO PUSH2 0x5DA JUMPI PUSH1 0x0 DUP1 REVERT JUMPDEST POP PUSH2 0x5F5 PUSH1 0x4 DUP1 CALLDATASIZE SUB DUP2 ADD SWAP1 PUSH2 0x5F0 SWAP2 SWAP1 PUSH2 0x3B34 JUMP JUMPDEST PUSH2 0x13BA JUMP JUMPDEST STOP JUMPDEST CALLVALUE DUP1 ISZERO PUSH2 0x603 JUMPI PUSH1 0x0 DUP1 REVERT JUMPDEST POP PUSH2 0x60C PUSH2 0x1579 JUMP JUMPDEST PUSH1 0x40 MLOAD PUSH2 0x619 SWAP2 SWAP1 PUSH2 0x3A76 JUMP JUMPDEST PUSH1 0x40 MLOAD DUP1 SWAP2 SUB SWAP1 RETURN JUMPDEST CALLVALUE DUP1 ISZERO PUSH2 0x62E JUMPI PUSH1 0x0 DUP1 REVERT JUMPDEST POP PUSH2 0x649 PUSH1 0x4 DUP1 CALLDATASIZE SUB DUP2 ADD SWAP1 PUSH2 0x644 SWAP2 SWAP1 PUSH2 0x3A91 JUMP JUMPDEST PUSH2 0x159A JUMP JUMPDEST STOP JUMPDEST CALLVALUE DUP1 ISZERO PUSH2 0x657 JUMPI PUSH1 0x0 DUP1 REVERT JUMPDEST POP PUSH2 0x660 PUSH2 0x161D JUMP JUMPDEST PUSH1 0x40 MLOAD PUSH2 0x66D SWAP2 SWAP1 PUSH2 0x3BC0 JUMP JUMPDEST PUSH1 0x40 MLOAD DUP1 SWAP2 SUB SWAP1 RETURN JUMPDEST CALLVALUE DUP1 ISZERO PUSH2 0x682 JUMPI PUSH1 0x0 DUP1 REVERT JUMPDEST POP PUSH2 0x68B PUSH2 0x1643 JUMP JUMPDEST PUSH1 0x40 MLOAD PUSH2 0x698 SWAP2 SWAP1 PUSH2 0x37ED JUMP JUMPDEST PUSH1 0x40 MLOAD DUP1 SWAP2 SUB SWAP1 RETURN JUMPDEST CALLVALUE DUP1 ISZERO PUSH2 0x6AD JUMPI PUSH1 0x0 DUP1 REVERT JUMPDEST POP PUSH2 0x6C8 PUSH1 0x4 DUP1 CALLDATASIZE SUB DUP2 ADD SWAP1 PUSH2 0x6C3 SWAP2 SWAP1 PUSH2 0x3BDB JUMP JUMPDEST PUSH2 0x1656 JUMP JUMPDEST PUSH1 0x40 MLOAD PUSH2 0x6D5 SWAP2 SWAP1 PUSH2 0x371E JUMP JUMPDEST PUSH1 0x40 MLOAD DUP1 SWAP2 SUB SWAP1 RETURN JUMPDEST CALLVALUE DUP1 ISZERO PUSH2 0x6EA JUMPI PUSH1 0x0 DUP1 REVERT JUMPDEST POP PUSH2 0x705 PUSH1 0x4 DUP1 CALLDATASIZE SUB DUP2 ADD SWAP1 PUSH2 0x700 SWAP2 SWAP1 PUSH2 0x3D69 JUMP JUMPDEST PUSH2 0x1680 JUMP JUMPDEST STOP JUMPDEST CALLVALUE DUP1 ISZERO PUSH2 0x713 JUMPI PUSH1 0x0 DUP1 REVERT JUMPDEST POP PUSH2 0x71C PUSH2 0x16D2 JUMP JUMPDEST PUSH1 0x40 MLOAD PUSH2 0x729 SWAP2 SWAP1 PUSH2 0x3E17 JUMP JUMPDEST PUSH1 0x40 MLOAD DUP1 SWAP2 SUB SWAP1 RETURN JUMPDEST CALLVALUE DUP1 ISZERO PUSH2 0x73E JUMPI PUSH1 0x0 DUP1 REVERT JUMPDEST POP PUSH2 0x759 PUSH1 0x4 DUP1 CALLDATASIZE SUB DUP2 ADD SWAP1 PUSH2 0x754 SWAP2 SWAP1 PUSH2 0x38E6 JUMP JUMPDEST PUSH2 0x16FC JUMP JUMPDEST PUSH1 0x40 MLOAD PUSH2 0x766 SWAP2 SWAP1 PUSH2 0x371E JUMP JUMPDEST PUSH1 0x40 MLOAD DUP1 SWAP2 SUB SWAP1 RETURN JUMPDEST CALLVALUE DUP1 ISZERO PUSH2 0x77B JUMPI PUSH1 0x0 DUP1 REVERT JUMPDEST POP PUSH2 0x796 PUSH1 0x4 DUP1 CALLDATASIZE SUB DUP2 ADD SWAP1 PUSH2 0x791 SWAP2 SWAP1 PUSH2 0x3E32 JUMP JUMPDEST PUSH2 0x170E JUMP JUMPDEST PUSH1 0x40 MLOAD PUSH2 0x7A3 SWAP2 SWAP1 PUSH2 0x371E JUMP JUMPDEST PUSH1 0x40 MLOAD DUP1 SWAP2 SUB SWAP1 RETURN JUMPDEST CALLVALUE DUP1 ISZERO PUSH2 0x7B8 JUMPI PUSH1 0x0 DUP1 REVERT JUMPDEST POP PUSH2 0x7D3 PUSH1 0x4 DUP1 CALLDATASIZE SUB DUP2 ADD SWAP1 PUSH2 0x7CE SWAP2 SWAP1 PUSH2 0x3BDB JUMP JUMPDEST PUSH2 0x182D JUMP JUMPDEST PUSH1 0x40 MLOAD PUSH2 0x7E0 SWAP2 SWAP1 PUSH2 0x371E JUMP JUMPDEST PUSH1 0x40 MLOAD DUP1 SWAP2 SUB SWAP1 RETURN JUMPDEST CALLVALUE DUP1 ISZERO PUSH2 0x7F5 JUMPI PUSH1 0x0 DUP1 REVERT JUMPDEST POP PUSH2 0x7FE PUSH2 0x1845 JUMP JUMPDEST STOP JUMPDEST CALLVALUE DUP1 ISZERO PUSH2 0x80C JUMPI PUSH1 0x0 DUP1 REVERT JUMPDEST POP PUSH2 0x827 PUSH1 0x4 DUP1 CALLDATASIZE SUB DUP2 ADD SWAP1 PUSH2 0x822 SWAP2 SWAP1 PUSH2 0x38E6 JUMP JUMPDEST PUSH2 0x197B JUMP JUMPDEST STOP JUMPDEST CALLVALUE DUP1 ISZERO PUSH2 0x835 JUMPI PUSH1 0x0 DUP1 REVERT JUMPDEST POP PUSH2 0x850 PUSH1 0x4 DUP1 CALLDATASIZE SUB DUP2 ADD SWAP1 PUSH2 0x84B SWAP2 SWAP1 PUSH2 0x3BDB JUMP JUMPDEST PUSH2 0x1A93 JUMP JUMPDEST PUSH1 0x40 MLOAD PUSH2 0x85D SWAP2 SWAP1 PUSH2 0x371E JUMP JUMPDEST PUSH1 0x40 MLOAD DUP1 SWAP2 SUB SWAP1 RETURN JUMPDEST CALLVALUE DUP1 ISZERO PUSH2 0x872 JUMPI PUSH1 0x0 DUP1 REVERT JUMPDEST POP PUSH2 0x87B PUSH2 0x1AAB JUMP JUMPDEST PUSH1 0x40 MLOAD PUSH2 0x888 SWAP2 SWAP1 PUSH2 0x371E JUMP JUMPDEST PUSH1 0x40 MLOAD DUP1 SWAP2 SUB SWAP1 RETURN JUMPDEST CALLVALUE DUP1 ISZERO PUSH2 0x89D JUMPI PUSH1 0x0 DUP1 REVERT JUMPDEST POP PUSH2 0x8A6 PUSH2 0x1AB1 JUMP JUMPDEST STOP JUMPDEST CALLVALUE DUP1 ISZERO PUSH2 0x8B4 JUMPI PUSH1 0x0 DUP1 REVERT JUMPDEST POP PUSH2 0x8CF PUSH1 0x4 DUP1 CALLDATASIZE SUB DUP2 ADD SWAP1 PUSH2 0x8CA SWAP2 SWAP1 PUSH2 0x3A91 JUMP JUMPDEST PUSH2 0x1B3F JUMP JUMPDEST PUSH1 0x40 MLOAD PUSH2 0x8DC SWAP2 SWAP1 PUSH2 0x37ED JUMP JUMPDEST PUSH1 0x40 MLOAD DUP1 SWAP2 SUB SWAP1 RETURN JUMPDEST CALLVALUE DUP1 ISZERO PUSH2 0x8F1 JUMPI PUSH1 0x0 DUP1 REVERT JUMPDEST POP PUSH2 0x90C PUSH1 0x4 DUP1 CALLDATASIZE SUB DUP2 ADD SWAP1 PUSH2 0x907 SWAP2 SWAP1 PUSH2 0x3E72 JUMP JUMPDEST PUSH2 0x1BAA JUMP JUMPDEST STOP JUMPDEST CALLVALUE DUP1 ISZERO PUSH2 0x91A JUMPI PUSH1 0x0 DUP1 REVERT JUMPDEST POP PUSH2 0x935 PUSH1 0x4 DUP1 CALLDATASIZE SUB DUP2 ADD SWAP1 PUSH2 0x930 SWAP2 SWAP1 PUSH2 0x3E32 JUMP JUMPDEST PUSH2 0x1D08 JUMP JUMPDEST PUSH1 0x40 MLOAD PUSH2 0x942 SWAP2 SWAP1 PUSH2 0x371E JUMP JUMPDEST PUSH1 0x40 MLOAD DUP1 SWAP2 SUB SWAP1 RETURN JUMPDEST CALLVALUE DUP1 ISZERO PUSH2 0x957 JUMPI PUSH1 0x0 DUP1 REVERT JUMPDEST POP PUSH2 0x960 PUSH2 0x1DE5 JUMP JUMPDEST PUSH1 0x40 MLOAD PUSH2 0x96D SWAP2 SWAP1 PUSH2 0x3898 JUMP JUMPDEST PUSH1 0x40 MLOAD DUP1 SWAP2 SUB SWAP1 RETURN JUMPDEST CALLVALUE DUP1 ISZERO PUSH2 0x982 JUMPI PUSH1 0x0 DUP1 REVERT JUMPDEST POP PUSH2 0x98B PUSH2 0x1E73 JUMP JUMPDEST PUSH1 0x40 MLOAD PUSH2 0x998 SWAP2 SWAP1 PUSH2 0x3A76 JUMP JUMPDEST PUSH1 0x40 MLOAD DUP1 SWAP2 SUB SWAP1 RETURN JUMPDEST CALLVALUE DUP1 ISZERO PUSH2 0x9AD JUMPI PUSH1 0x0 DUP1 REVERT JUMPDEST POP PUSH2 0x9C8 PUSH1 0x4 DUP1 CALLDATASIZE SUB DUP2 ADD SWAP1 PUSH2 0x9C3 SWAP2 SWAP1 PUSH2 0x3971 JUMP JUMPDEST PUSH2 0x1E7A JUMP JUMPDEST PUSH1 0x40 MLOAD PUSH2 0x9D5 SWAP2 SWAP1 PUSH2 0x37ED JUMP JUMPDEST PUSH1 0x40 MLOAD DUP1 SWAP2 SUB SWAP1 RETURN JUMPDEST CALLVALUE DUP1 ISZERO PUSH2 0x9EA JUMPI PUSH1 0x0 DUP1 REVERT JUMPDEST POP PUSH2 0xA05 PUSH1 0x4 DUP1 CALLDATASIZE SUB DUP2 ADD SWAP1 PUSH2 0xA00 SWAP2 SWAP1 PUSH2 0x38E6 JUMP JUMPDEST PUSH2 0x1F8E JUMP JUMPDEST STOP JUMPDEST CALLVALUE DUP1 ISZERO PUSH2 0xA13 JUMPI PUSH1 0x0 DUP1 REVERT JUMPDEST POP PUSH2 0xA1C PUSH2 0x20D3 JUMP JUMPDEST PUSH1 0x40 MLOAD PUSH2 0xA29 SWAP2 SWAP1 PUSH2 0x3A76 JUMP JUMPDEST PUSH1 0x40 MLOAD DUP1 SWAP2 SUB SWAP1 RETURN JUMPDEST CALLVALUE DUP1 ISZERO PUSH2 0xA3E JUMPI PUSH1 0x0 DUP1 REVERT JUMPDEST POP PUSH2 0xA59 PUSH1 0x4 DUP1 CALLDATASIZE SUB DUP2 ADD SWAP1 PUSH2 0xA54 SWAP2 SWAP1 PUSH2 0x38E6 JUMP JUMPDEST PUSH2 0x20F7 JUMP JUMPDEST PUSH1 0x40 MLOAD PUSH2 0xA66 SWAP2 SWAP1 PUSH2 0x371E JUMP JUMPDEST PUSH1 0x40 MLOAD DUP1 SWAP2 SUB SWAP1 RETURN JUMPDEST CALLVALUE DUP1 ISZERO PUSH2 0xA7B JUMPI PUSH1 0x0 DUP1 REVERT JUMPDEST POP PUSH2 0xA96 PUSH1 0x4 DUP1 CALLDATASIZE SUB DUP2 ADD SWAP1 PUSH2 0xA91 SWAP2 SWAP1 PUSH2 0x3F25 JUMP JUMPDEST PUSH2 0x2132 JUMP JUMPDEST PUSH1 0x40 MLOAD PUSH2 0xAA3 SWAP2 SWAP1 PUSH2 0x371E JUMP JUMPDEST PUSH1 0x40 MLOAD DUP1 SWAP2 SUB SWAP1 RETURN JUMPDEST CALLVALUE DUP1 ISZERO PUSH2 0xAB8 JUMPI PUSH1 0x0 DUP1 REVERT JUMPDEST POP PUSH2 0xAD3 PUSH1 0x4 DUP1 CALLDATASIZE SUB DUP2 ADD SWAP1 PUSH2 0xACE SWAP2 SWAP1 PUSH2 0x3F25 JUMP JUMPDEST PUSH2 0x238F JUMP JUMPDEST PUSH1 0x40 MLOAD PUSH2 0xAE0 SWAP2 SWAP1 PUSH2 0x371E JUMP JUMPDEST PUSH1 0x40 MLOAD DUP1 SWAP2 SUB SWAP1 RETURN JUMPDEST CALLVALUE DUP1 ISZERO PUSH2 0xAF5 JUMPI PUSH1 0x0 DUP1 REVERT JUMPDEST POP PUSH2 0xAFE PUSH2 0x262F JUMP JUMPDEST PUSH1 0x40 MLOAD PUSH2 0xB0B SWAP2 SWAP1 PUSH2 0x371E JUMP JUMPDEST PUSH1 0x40 MLOAD DUP1 SWAP2 SUB SWAP1 RETURN JUMPDEST CALLVALUE DUP1 ISZERO PUSH2 0xB20 JUMPI PUSH1 0x0 DUP1 REVERT JUMPDEST POP PUSH2 0xB3B PUSH1 0x4 DUP1 CALLDATASIZE SUB DUP2 ADD SWAP1 PUSH2 0xB36 SWAP2 SWAP1 PUSH2 0x38E6 JUMP JUMPDEST PUSH2 0x2635 JUMP JUMPDEST STOP JUMPDEST CALLVALUE DUP1 ISZERO PUSH2 0xB49 JUMPI PUSH1 0x0 DUP1 REVERT JUMPDEST POP PUSH2 0xB52 PUSH2 0x274D JUMP JUMPDEST PUSH1 0x40 MLOAD PUSH2 0xB5F SWAP2 SWAP1 PUSH2 0x3BC0 JUMP JUMPDEST PUSH1 0x40 MLOAD DUP1 SWAP2 SUB SWAP1 RETURN JUMPDEST CALLVALUE DUP1 ISZERO PUSH2 0xB74 JUMPI PUSH1 0x0 DUP1 REVERT JUMPDEST POP PUSH2 0xB8F PUSH1 0x4 DUP1 CALLDATASIZE SUB DUP2 ADD SWAP1 PUSH2 0xB8A SWAP2 SWAP1 PUSH2 0x3BDB JUMP JUMPDEST PUSH2 0x2773 JUMP JUMPDEST PUSH1 0x40 MLOAD PUSH2 0xB9C SWAP2 SWAP1 PUSH2 0x371E JUMP JUMPDEST PUSH1 0x40 MLOAD DUP1 SWAP2 SUB SWAP1 RETURN JUMPDEST CALLVALUE DUP1 ISZERO PUSH2 0xBB1 JUMPI PUSH1 0x0 DUP1 REVERT JUMPDEST POP PUSH2 0xBCC PUSH1 0x4 DUP1 CALLDATASIZE SUB DUP2 ADD SWAP1 PUSH2 0xBC7 SWAP2 SWAP1 PUSH2 0x38E6 JUMP JUMPDEST PUSH2 0x279D JUMP JUMPDEST PUSH1 0x40 MLOAD PUSH2 0xBD9 SWAP2 SWAP1 PUSH2 0x371E JUMP JUMPDEST PUSH1 0x40 MLOAD DUP1 SWAP2 SUB SWAP1 RETURN JUMPDEST CALLVALUE DUP1 ISZERO PUSH2 0xBEE JUMPI PUSH1 0x0 DUP1 REVERT JUMPDEST POP PUSH2 0xC09 PUSH1 0x4 DUP1 CALLDATASIZE SUB DUP2 ADD SWAP1 PUSH2 0xC04 SWAP2 SWAP1 PUSH2 0x3BDB JUMP JUMPDEST PUSH2 0x27D8 JUMP JUMPDEST PUSH1 0x40 MLOAD PUSH2 0xC16 SWAP2 SWAP1 PUSH2 0x371E JUMP JUMPDEST PUSH1 0x40 MLOAD DUP1 SWAP2 SUB SWAP1 RETURN JUMPDEST CALLVALUE DUP1 ISZERO PUSH2 0xC2B JUMPI PUSH1 0x0 DUP1 REVERT JUMPDEST POP PUSH2 0xC46 PUSH1 0x4 DUP1 CALLDATASIZE SUB DUP2 ADD SWAP1 PUSH2 0xC41 SWAP2 SWAP1 PUSH2 0x3F78 JUMP JUMPDEST PUSH2 0x2829 JUMP JUMPDEST STOP JUMPDEST CALLVALUE DUP1 ISZERO PUSH2 0xC54 JUMPI PUSH1 0x0 DUP1 REVERT JUMPDEST POP PUSH2 0xC6F PUSH1 0x4 DUP1 CALLDATASIZE SUB DUP2 ADD SWAP1 PUSH2 0xC6A SWAP2 SWAP1 PUSH2 0x3A91 JUMP JUMPDEST PUSH2 0x2B22 JUMP JUMPDEST STOP JUMPDEST CALLVALUE DUP1 ISZERO PUSH2 0xC7D JUMPI PUSH1 0x0 DUP1 REVERT JUMPDEST POP PUSH2 0xC98 PUSH1 0x4 DUP1 CALLDATASIZE SUB DUP2 ADD SWAP1 PUSH2 0xC93 SWAP2 SWAP1 PUSH2 0x3BDB JUMP JUMPDEST PUSH2 0x2B43 JUMP JUMPDEST PUSH1 0x40 MLOAD PUSH2 0xCA5 SWAP2 SWAP1 PUSH2 0x371E JUMP JUMPDEST PUSH1 0x40 MLOAD DUP1 SWAP2 SUB SWAP1 RETURN JUMPDEST CALLVALUE DUP1 ISZERO PUSH2 0xCBA JUMPI PUSH1 0x0 DUP1 REVERT JUMPDEST POP PUSH2 0xCC3 PUSH2 0x2B8C JUMP JUMPDEST PUSH1 0x40 MLOAD PUSH2 0xCD0 SWAP2 SWAP1 PUSH2 0x37ED JUMP JUMPDEST PUSH1 0x40 MLOAD DUP1 SWAP2 SUB SWAP1 RETURN JUMPDEST CALLVALUE DUP1 ISZERO PUSH2 0xCE5 JUMPI PUSH1 0x0 DUP1 REVERT JUMPDEST POP PUSH2 0xD00 PUSH1 0x4 DUP1 CALLDATASIZE SUB DUP2 ADD SWAP1 PUSH2 0xCFB SWAP2 SWAP1 PUSH2 0x401A JUMP JUMPDEST PUSH2 0x2B9F JUMP JUMPDEST PUSH1 0x40 MLOAD PUSH2 0xD0D SWAP2 SWAP1 PUSH2 0x371E JUMP JUMPDEST PUSH1 0x40 MLOAD DUP1 SWAP2 SUB SWAP1 RETURN JUMPDEST CALLVALUE DUP1 ISZERO PUSH2 0xD22 JUMPI PUSH1 0x0 DUP1 REVERT JUMPDEST POP PUSH2 0xD2B PUSH2 0x2BC4 JUMP JUMPDEST PUSH1 0x40 MLOAD PUSH2 0xD38 SWAP2 SWAP1 PUSH2 0x371E JUMP JUMPDEST PUSH1 0x40 MLOAD DUP1 SWAP2 SUB SWAP1 RETURN JUMPDEST CALLVALUE DUP1 ISZERO PUSH2 0xD4D JUMPI PUSH1 0x0 DUP1 REVERT JUMPDEST POP PUSH2 0xD68 PUSH1 0x4 DUP1 CALLDATASIZE SUB DUP2 ADD SWAP1 PUSH2 0xD63 SWAP2 SWAP1 PUSH2 0x38E6 JUMP JUMPDEST PUSH2 0x2BCA JUMP JUMPDEST PUSH1 0x40 MLOAD PUSH2 0xD75 SWAP2 SWAP1 PUSH2 0x371E JUMP JUMPDEST PUSH1 0x40 MLOAD DUP1 SWAP2 SUB SWAP1 RETURN JUMPDEST CALLVALUE DUP1 ISZERO PUSH2 0xD8A JUMPI PUSH1 0x0 DUP1 REVERT JUMPDEST POP PUSH2 0xDA5 PUSH1 0x4 DUP1 CALLDATASIZE SUB DUP2 ADD SWAP1 PUSH2 0xDA0 SWAP2 SWAP1 PUSH2 0x3BDB JUMP JUMPDEST PUSH2 0x2BDC JUMP JUMPDEST STOP JUMPDEST CALLVALUE DUP1 ISZERO PUSH2 0xDB3 JUMPI PUSH1 0x0 DUP1 REVERT JUMPDEST POP PUSH2 0xDBC PUSH2 0x2D80 JUMP JUMPDEST PUSH1 0x40 MLOAD PUSH2 0xDC9 SWAP2 SWAP1 PUSH2 0x37ED JUMP JUMPDEST PUSH1 0x40 MLOAD DUP1 SWAP2 SUB SWAP1 RETURN JUMPDEST CALLVALUE DUP1 ISZERO PUSH2 0xDDE JUMPI PUSH1 0x0 DUP1 REVERT JUMPDEST POP PUSH2 0xDE7 PUSH2 0x2D93 JUMP JUMPDEST PUSH1 0x40 MLOAD PUSH2 0xDF4 SWAP2 SWAP1 PUSH2 0x371E JUMP JUMPDEST PUSH1 0x40 MLOAD DUP1 SWAP2 SUB SWAP1 RETURN JUMPDEST PUSH1 0x0 PUSH1 0x9 PUSH1 0x0 SWAP1 SLOAD SWAP1 PUSH2 0x100 EXP SWAP1 DIV PUSH20 0xFFFFFFFFFFFFFFFFFFFFFFFFFFFFFFFFFFFFFFFF AND PUSH20 0xFFFFFFFFFFFFFFFFFFFFFFFFFFFFFFFFFFFFFFFF AND PUSH4 0x70A08231 ADDRESS PUSH1 0x40 MLOAD DUP3 PUSH4 0xFFFFFFFF AND PUSH1 0xE0 SHL DUP2 MSTORE PUSH1 0x4 ADD PUSH2 0xE5A SWAP2 SWAP1 PUSH2 0x3E17 JUMP JUMPDEST PUSH1 0x20 PUSH1 0x40 MLOAD DUP1 DUP4 SUB DUP2 DUP7 GAS STATICCALL ISZERO DUP1 ISZERO PUSH2 0xE77 JUMPI RETURNDATASIZE PUSH1 0x0 DUP1 RETURNDATACOPY RETURNDATASIZE PUSH1 0x0 REVERT JUMPDEST POP POP POP POP PUSH1 0x40 MLOAD RETURNDATASIZE PUSH1 0x1F NOT PUSH1 0x1F DUP3 ADD AND DUP3 ADD DUP1 PUSH1 0x40 MSTORE POP DUP2 ADD SWAP1 PUSH2 0xE9B SWAP2 SWAP1 PUSH2 0x406F JUMP JUMPDEST SWAP1 POP SWAP1 JUMP JUMPDEST PUSH1 0x0 PUSH32 0x7965DB0B00000000000000000000000000000000000000000000000000000000 PUSH28 0xFFFFFFFFFFFFFFFFFFFFFFFFFFFFFFFFFFFFFFFFFFFFFFFFFFFFFFFF NOT AND DUP3 PUSH28 0xFFFFFFFFFFFFFFFFFFFFFFFFFFFFFFFFFFFFFFFFFFFFFFFFFFFFFFFF NOT AND EQ DUP1 PUSH2 0xF13 JUMPI POP PUSH2 0xF12 DUP3 PUSH2 0x2D99 JUMP JUMPDEST JUMPDEST SWAP1 POP SWAP2 SWAP1 POP JUMP JUMPDEST PUSH1 0x0 DUP1 SLOAD PUSH2 0xF27 SWAP1 PUSH2 0x40CB JUMP JUMPDEST DUP1 PUSH1 0x1F ADD PUSH1 0x20 DUP1 SWAP2 DIV MUL PUSH1 0x20 ADD PUSH1 0x40 MLOAD SWAP1 DUP2 ADD PUSH1 0x40 MSTORE DUP1 SWAP3 SWAP2 SWAP1 DUP2 DUP2 MSTORE PUSH1 0x20 ADD DUP3 DUP1 SLOAD PUSH2 0xF53 SWAP1 PUSH2 0x40CB JUMP JUMPDEST DUP1 ISZERO PUSH2 0xFA0 JUMPI DUP1 PUSH1 0x1F LT PUSH2 0xF75 JUMPI PUSH2 0x100 DUP1 DUP4 SLOAD DIV MUL DUP4 MSTORE SWAP2 PUSH1 0x20 ADD SWAP2 PUSH2 0xFA0 JUMP JUMPDEST DUP3 ADD SWAP2 SWAP1 PUSH1 0x0 MSTORE PUSH1 0x20 PUSH1 0x0 KECCAK256 SWAP1 JUMPDEST DUP2 SLOAD DUP2 MSTORE SWAP1 PUSH1 0x1 ADD SWAP1 PUSH1 0x20 ADD DUP1 DUP4 GT PUSH2 0xF83 JUMPI DUP3 SWAP1 SUB PUSH1 0x1F AND DUP3 ADD SWAP2 JUMPDEST POP POP POP POP POP DUP2 JUMP JUMPDEST PUSH1 0x0 DUP1 PUSH1 0x3 SLOAD SWAP1 POP PUSH1 0x0 DUP2 EQ PUSH2 0xFD9 JUMPI PUSH2 0xFD4 PUSH2 0xFC3 PUSH2 0xDFD JUMP JUMPDEST DUP3 DUP6 PUSH2 0x2E03 SWAP1 SWAP3 SWAP2 SWAP1 PUSH4 0xFFFFFFFF AND JUMP JUMPDEST PUSH2 0xFDB JUMP JUMPDEST DUP3 JUMPDEST SWAP2 POP POP SWAP2 SWAP1 POP JUMP JUMPDEST PUSH1 0x0 DUP2 PUSH1 0x5 PUSH1 0x0 CALLER PUSH20 0xFFFFFFFFFFFFFFFFFFFFFFFFFFFFFFFFFFFFFFFF AND PUSH20 0xFFFFFFFFFFFFFFFFFFFFFFFFFFFFFFFFFFFFFFFF AND DUP2 MSTORE PUSH1 0x20 ADD SWAP1 DUP2 MSTORE PUSH1 0x20 ADD PUSH1 0x0 KECCAK256 PUSH1 0x0 DUP6 PUSH20 0xFFFFFFFFFFFFFFFFFFFFFFFFFFFFFFFFFFFFFFFF AND PUSH20 0xFFFFFFFFFFFFFFFFFFFFFFFFFFFFFFFFFFFFFFFF AND DUP2 MSTORE PUSH1 0x20 ADD SWAP1 DUP2 MSTORE PUSH1 0x20 ADD PUSH1 0x0 KECCAK256 DUP2 SWAP1 SSTORE POP DUP3 PUSH20 0xFFFFFFFFFFFFFFFFFFFFFFFFFFFFFFFFFFFFFFFF AND CALLER PUSH20 0xFFFFFFFFFFFFFFFFFFFFFFFFFFFFFFFFFFFFFFFF AND PUSH32 0x8C5BE1E5EBEC7D5BD14F71427D1E84F3DD0314C0F7B2291E5B200AC8C7C3B925 DUP5 PUSH1 0x40 MLOAD PUSH2 0x10C3 SWAP2 SWAP1 PUSH2 0x371E JUMP JUMPDEST PUSH1 0x40 MLOAD DUP1 SWAP2 SUB SWAP1 LOG3 PUSH1 0x1 SWAP1 POP SWAP3 SWAP2 POP POP JUMP JUMPDEST PUSH1 0x0 DUP1 PUSH1 0x3 SLOAD SWAP1 POP PUSH1 0x0 DUP2 EQ PUSH2 0x1106 JUMPI PUSH2 0x1101 DUP2 PUSH2 0x10F1 PUSH2 0xDFD JUMP JUMPDEST DUP6 PUSH2 0x2E2B SWAP1 SWAP3 SWAP2 SWAP1 PUSH4 0xFFFFFFFF AND JUMP JUMPDEST PUSH2 0x1108 JUMP JUMPDEST DUP3 JUMPDEST SWAP2 POP POP SWAP2 SWAP1 POP JUMP JUMPDEST PUSH1 0x3 SLOAD DUP2 JUMP JUMPDEST PUSH1 0x11 SLOAD DUP2 JUMP JUMPDEST PUSH1 0x0 DUP1 PUSH1 0x5 PUSH1 0x0 DUP7 PUSH20 0xFFFFFFFFFFFFFFFFFFFFFFFFFFFFFFFFFFFFFFFF AND PUSH20 0xFFFFFFFFFFFFFFFFFFFFFFFFFFFFFFFFFFFFFFFF AND DUP2 MSTORE PUSH1 0x20 ADD SWAP1 DUP2 MSTORE PUSH1 0x20 ADD PUSH1 0x0 KECCAK256 PUSH1 0x0 CALLER PUSH20 0xFFFFFFFFFFFFFFFFFFFFFFFFFFFFFFFFFFFFFFFF AND PUSH20 0xFFFFFFFFFFFFFFFFFFFFFFFFFFFFFFFFFFFFFFFF AND DUP2 MSTORE PUSH1 0x20 ADD SWAP1 DUP2 MSTORE PUSH1 0x20 ADD PUSH1 0x0 KECCAK256 SLOAD SWAP1 POP PUSH32 0xFFFFFFFFFFFFFFFFFFFFFFFFFFFFFFFFFFFFFFFFFFFFFFFFFFFFFFFFFFFFFFFF DUP2 EQ PUSH2 0x1252 JUMPI DUP3 DUP2 PUSH2 0x11D1 SWAP2 SWAP1 PUSH2 0x412B JUMP JUMPDEST PUSH1 0x5 PUSH1 0x0 DUP8 PUSH20 0xFFFFFFFFFFFFFFFFFFFFFFFFFFFFFFFFFFFFFFFF AND PUSH20 0xFFFFFFFFFFFFFFFFFFFFFFFFFFFFFFFFFFFFFFFF AND DUP2 MSTORE PUSH1 0x20 ADD SWAP1 DUP2 MSTORE PUSH1 0x20 ADD PUSH1 0x0 KECCAK256 PUSH1 0x0 CALLER PUSH20 0xFFFFFFFFFFFFFFFFFFFFFFFFFFFFFFFFFFFFFFFF AND PUSH20 0xFFFFFFFFFFFFFFFFFFFFFFFFFFFFFFFFFFFFFFFF AND DUP2 MSTORE PUSH1 0x20 ADD SWAP1 DUP2 MSTORE PUSH1 0x20 ADD PUSH1 0x0 KECCAK256 DUP2 SWAP1 SSTORE POP JUMPDEST DUP3 PUSH1 0x4 PUSH1 0x0 DUP8 PUSH20 0xFFFFFFFFFFFFFFFFFFFFFFFFFFFFFFFFFFFFFFFF AND PUSH20 0xFFFFFFFFFFFFFFFFFFFFFFFFFFFFFFFFFFFFFFFF AND DUP2 MSTORE PUSH1 0x20 ADD SWAP1 DUP2 MSTORE PUSH1 0x20 ADD PUSH1 0x0 KECCAK256 PUSH1 0x0 DUP3 DUP3 SLOAD PUSH2 0x12A1 SWAP2 SWAP1 PUSH2 0x412B JUMP JUMPDEST SWAP3 POP POP DUP2 SWAP1 SSTORE POP DUP3 PUSH1 0x4 PUSH1 0x0 DUP7 PUSH20 0xFFFFFFFFFFFFFFFFFFFFFFFFFFFFFFFFFFFFFFFF AND PUSH20 0xFFFFFFFFFFFFFFFFFFFFFFFFFFFFFFFFFFFFFFFF AND DUP2 MSTORE PUSH1 0x20 ADD SWAP1 DUP2 MSTORE PUSH1 0x20 ADD PUSH1 0x0 KECCAK256 PUSH1 0x0 DUP3 DUP3 SLOAD ADD SWAP3 POP POP DUP2 SWAP1 SSTORE POP DUP4 PUSH20 0xFFFFFFFFFFFFFFFFFFFFFFFFFFFFFFFFFFFFFFFF AND DUP6 PUSH20 0xFFFFFFFFFFFFFFFFFFFFFFFFFFFFFFFFFFFFFFFF AND PUSH32 0xDDF252AD1BE2C89B69C2B068FC378DAA952BA7F163C4A11628F55A4DF523B3EF DUP6 PUSH1 0x40 MLOAD PUSH2 0x1352 SWAP2 SWAP1 PUSH2 0x371E JUMP JUMPDEST PUSH1 0x40 MLOAD DUP1 SWAP2 SUB SWAP1 LOG3 PUSH1 0x1 SWAP2 POP POP SWAP4 SWAP3 POP POP POP JUMP JUMPDEST PUSH1 0x0 PUSH1 0xA PUSH1 0x0 DUP4 DUP2 MSTORE PUSH1 0x20 ADD SWAP1 DUP2 MSTORE PUSH1 0x20 ADD PUSH1 0x0 KECCAK256 PUSH1 0x1 ADD SLOAD SWAP1 POP SWAP2 SWAP1 POP JUMP JUMPDEST PUSH2 0x138F DUP3 PUSH2 0x1366 JUMP JUMPDEST PUSH2 0x1398 DUP2 PUSH2 0x2E5D JUMP JUMPDEST PUSH2 0x13A2 DUP4 DUP4 PUSH2 0x2E71 JUMP JUMPDEST POP POP POP JUMP JUMPDEST PUSH1 0x2 PUSH1 0x0 SWAP1 SLOAD SWAP1 PUSH2 0x100 EXP SWAP1 DIV PUSH1 0xFF AND DUP2 JUMP JUMPDEST CALLER PUSH20 0xFFFFFFFFFFFFFFFFFFFFFFFFFFFFFFFFFFFFFFFF AND PUSH2 0x13D9 PUSH2 0x16D2 JUMP JUMPDEST PUSH20 0xFFFFFFFFFFFFFFFFFFFFFFFFFFFFFFFFFFFFFFFF AND EQ PUSH2 0x142F JUMPI PUSH1 0x40 MLOAD PUSH32 0x8C379A000000000000000000000000000000000000000000000000000000000 DUP2 MSTORE PUSH1 0x4 ADD PUSH2 0x1426 SWAP1 PUSH2 0x41D1 JUMP JUMPDEST PUSH1 0x40 MLOAD DUP1 SWAP2 SUB SWAP1 REVERT JUMPDEST DUP1 ISZERO DUP1 PUSH2 0x14CF JUMPI POP PUSH1 0x12 PUSH1 0xF PUSH1 0x0 SWAP1 SLOAD SWAP1 PUSH2 0x100 EXP SWAP1 DIV PUSH20 0xFFFFFFFFFFFFFFFFFFFFFFFFFFFFFFFFFFFFFFFF AND PUSH20 0xFFFFFFFFFFFFFFFFFFFFFFFFFFFFFFFFFFFFFFFF AND PUSH4 0x313CE567 PUSH1 0x40 MLOAD DUP2 PUSH4 0xFFFFFFFF AND PUSH1 0xE0 SHL DUP2 MSTORE PUSH1 0x4 ADD PUSH1 0x20 PUSH1 0x40 MLOAD DUP1 DUP4 SUB DUP2 DUP7 GAS STATICCALL ISZERO DUP1 ISZERO PUSH2 0x14A6 JUMPI RETURNDATASIZE PUSH1 0x0 DUP1 RETURNDATACOPY RETURNDATASIZE PUSH1 0x0 REVERT JUMPDEST POP POP POP POP PUSH1 0x40 MLOAD RETURNDATASIZE PUSH1 0x1F NOT PUSH1 0x1F DUP3 ADD AND DUP3 ADD DUP1 PUSH1 0x40 MSTORE POP DUP2 ADD SWAP1 PUSH2 0x14CA SWAP2 SWAP1 PUSH2 0x4206 JUMP JUMPDEST PUSH1 0xFF AND EQ JUMPDEST PUSH2 0x150E JUMPI PUSH1 0x40 MLOAD PUSH32 0x8C379A000000000000000000000000000000000000000000000000000000000 DUP2 MSTORE PUSH1 0x4 ADD PUSH2 0x1505 SWAP1 PUSH2 0x427F JUMP JUMPDEST PUSH1 0x40 MLOAD DUP1 SWAP2 SUB SWAP1 REVERT JUMPDEST DUP1 PUSH1 0x12 PUSH1 0x0 PUSH2 0x100 EXP DUP2 SLOAD DUP2 PUSH1 0xFF MUL NOT AND SWAP1 DUP4 ISZERO ISZERO MUL OR SWAP1 SSTORE POP CALLER PUSH20 0xFFFFFFFFFFFFFFFFFFFFFFFFFFFFFFFFFFFFFFFF AND PUSH32 0x6375B140D4463D47B864F1F47E5D2893CC3478E73AEDCC268B054FAB0230A841 DUP3 PUSH1 0x40 MLOAD PUSH2 0x156E SWAP2 SWAP1 PUSH2 0x37ED JUMP JUMPDEST PUSH1 0x40 MLOAD DUP1 SWAP2 SUB SWAP1 LOG2 POP JUMP JUMPDEST PUSH1 0x0 PUSH1 0x6 SLOAD CHAINID EQ PUSH2 0x1591 JUMPI PUSH2 0x158C PUSH2 0x2F52 JUMP JUMPDEST PUSH2 0x1595 JUMP JUMPDEST PUSH1 0x7 SLOAD JUMPDEST SWAP1 POP SWAP1 JUMP JUMPDEST PUSH2 0x15A2 PUSH2 0x2FDE JUMP JUMPDEST PUSH20 0xFFFFFFFFFFFFFFFFFFFFFFFFFFFFFFFFFFFFFFFF AND DUP2 PUSH20 0xFFFFFFFFFFFFFFFFFFFFFFFFFFFFFFFFFFFFFFFF AND EQ PUSH2 0x160F JUMPI PUSH1 0x40 MLOAD PUSH32 0x8C379A000000000000000000000000000000000000000000000000000000000 DUP2 MSTORE PUSH1 0x4 ADD PUSH2 0x1606 SWAP1 PUSH2 0x4311 JUMP JUMPDEST PUSH1 0x40 MLOAD DUP1 SWAP2 SUB SWAP1 REVERT JUMPDEST PUSH2 0x1619 DUP3 DUP3 PUSH2 0x2FE6 JUMP JUMPDEST POP POP JUMP JUMPDEST PUSH1 0x9 PUSH1 0x0 SWAP1 SLOAD SWAP1 PUSH2 0x100 EXP SWAP1 DIV PUSH20 0xFFFFFFFFFFFFFFFFFFFFFFFFFFFFFFFFFFFFFFFF AND DUP2 JUMP JUMPDEST PUSH1 0x14 PUSH1 0x0 SWAP1 SLOAD SWAP1 PUSH2 0x100 EXP SWAP1 DIV PUSH1 0xFF AND DUP2 JUMP JUMPDEST PUSH1 0x0 PUSH32 0xFFFFFFFFFFFFFFFFFFFFFFFFFFFFFFFFFFFFFFFFFFFFFFFFFFFFFFFFFFFFFFFF SWAP1 POP SWAP2 SWAP1 POP JUMP JUMPDEST DUP4 PUSH1 0x9 PUSH1 0x0 PUSH2 0x100 EXP DUP2 SLOAD DUP2 PUSH20 0xFFFFFFFFFFFFFFFFFFFFFFFFFFFFFFFFFFFFFFFF MUL NOT AND SWAP1 DUP4 PUSH20 0xFFFFFFFFFFFFFFFFFFFFFFFFFFFFFFFFFFFFFFFF AND MUL OR SWAP1 SSTORE POP PUSH2 0x16CC DUP4 DUP4 DUP4 PUSH2 0x30C8 JUMP JUMPDEST POP POP POP POP JUMP JUMPDEST PUSH1 0x0 PUSH1 0xB PUSH1 0x0 SWAP1 SLOAD SWAP1 PUSH2 0x100 EXP SWAP1 DIV PUSH20 0xFFFFFFFFFFFFFFFFFFFFFFFFFFFFFFFFFFFFFFFF AND SWAP1 POP SWAP1 JUMP JUMPDEST PUSH1 0x0 PUSH2 0x1707 DUP3 PUSH2 0xFA8 JUMP JUMPDEST SWAP1 POP SWAP2 SWAP1 POP JUMP JUMPDEST PUSH1 0x0 DUP1 PUSH2 0x171A DUP5 PUSH2 0x2BCA JUMP JUMPDEST SWAP2 POP DUP2 SUB PUSH2 0x175D JUMPI PUSH1 0x40 MLOAD PUSH32 0x8C379A000000000000000000000000000000000000000000000000000000000 DUP2 MSTORE PUSH1 0x4 ADD PUSH2 0x1754 SWAP1 PUSH2 0x437D JUMP JUMPDEST PUSH1 0x40 MLOAD DUP1 SWAP2 SUB SWAP1 REVERT JUMPDEST PUSH2 0x17AC CALLER ADDRESS DUP6 PUSH1 0x9 PUSH1 0x0 SWAP1 SLOAD SWAP1 PUSH2 0x100 EXP SWAP1 DIV PUSH20 0xFFFFFFFFFFFFFFFFFFFFFFFFFFFFFFFFFFFFFFFF AND PUSH20 0xFFFFFFFFFFFFFFFFFFFFFFFFFFFFFFFFFFFFFFFF AND PUSH2 0x311D SWAP1 SWAP4 SWAP3 SWAP2 SWAP1 PUSH4 0xFFFFFFFF AND JUMP JUMPDEST PUSH2 0x17B6 DUP3 DUP3 PUSH2 0x31BC JUMP JUMPDEST DUP2 PUSH20 0xFFFFFFFFFFFFFFFFFFFFFFFFFFFFFFFFFFFFFFFF AND CALLER PUSH20 0xFFFFFFFFFFFFFFFFFFFFFFFFFFFFFFFFFFFFFFFF AND PUSH32 0xDCBC1C05240F31FF3AD067EF1EE35CE4997762752E3A095284754544F4C709D7 DUP6 DUP5 PUSH1 0x40 MLOAD PUSH2 0x1815 SWAP3 SWAP2 SWAP1 PUSH2 0x439D JUMP JUMPDEST PUSH1 0x40 MLOAD DUP1 SWAP2 SUB SWAP1 LOG3 PUSH2 0x1827 DUP4 DUP3 PUSH2 0x328C JUMP JUMPDEST SWAP3 SWAP2 POP POP JUMP JUMPDEST PUSH1 0x4 PUSH1 0x20 MSTORE DUP1 PUSH1 0x0 MSTORE PUSH1 0x40 PUSH1 0x0 KECCAK256 PUSH1 0x0 SWAP2 POP SWAP1 POP SLOAD DUP2 JUMP JUMPDEST CALLER PUSH20 0xFFFFFFFFFFFFFFFFFFFFFFFFFFFFFFFFFFFFFFFF AND PUSH2 0x1864 PUSH2 0x16D2 JUMP JUMPDEST PUSH20 0xFFFFFFFFFFFFFFFFFFFFFFFFFFFFFFFFFFFFFFFF AND EQ PUSH2 0x18BA JUMPI PUSH1 0x40 MLOAD PUSH32 0x8C379A000000000000000000000000000000000000000000000000000000000 DUP2 MSTORE PUSH1 0x4 ADD PUSH2 0x18B1 SWAP1 PUSH2 0x41D1 JUMP JUMPDEST PUSH1 0x40 MLOAD DUP1 SWAP2 SUB SWAP1 REVERT JUMPDEST PUSH1 0x0 PUSH20 0xFFFFFFFFFFFFFFFFFFFFFFFFFFFFFFFFFFFFFFFF AND PUSH1 0xB PUSH1 0x0 SWAP1 SLOAD SWAP1 PUSH2 0x100 EXP SWAP1 DIV PUSH20 0xFFFFFFFFFFFFFFFFFFFFFFFFFFFFFFFFFFFFFFFF AND PUSH20 0xFFFFFFFFFFFFFFFFFFFFFFFFFFFFFFFFFFFFFFFF AND PUSH32 0x8BE0079C531659141344CD1FD0A4F28419497F9722A3DAAFE3B4186F6B6457E0 PUSH1 0x40 MLOAD PUSH1 0x40 MLOAD DUP1 SWAP2 SUB SWAP1 LOG3 PUSH1 0x0 PUSH1 0xB PUSH1 0x0 PUSH2 0x100 EXP DUP2 SLOAD DUP2 PUSH20 0xFFFFFFFFFFFFFFFFFFFFFFFFFFFFFFFFFFFFFFFF MUL NOT AND SWAP1 DUP4 PUSH20 0xFFFFFFFFFFFFFFFFFFFFFFFFFFFFFFFFFFFFFFFF AND MUL OR SWAP1 SSTORE POP JUMP JUMPDEST CALLER PUSH20 0xFFFFFFFFFFFFFFFFFFFFFFFFFFFFFFFFFFFFFFFF AND PUSH2 0x199A PUSH2 0x16D2 JUMP JUMPDEST PUSH20 0xFFFFFFFFFFFFFFFFFFFFFFFFFFFFFFFFFFFFFFFF AND EQ PUSH2 0x19F0 JUMPI PUSH1 0x40 MLOAD PUSH32 0x8C379A000000000000000000000000000000000000000000000000000000000 DUP2 MSTORE PUSH1 0x4 ADD PUSH2 0x19E7 SWAP1 PUSH2 0x41D1 JUMP JUMPDEST PUSH1 0x40 MLOAD DUP1 SWAP2 SUB SWAP1 REVERT JUMPDEST PUSH8 0xDE0B6B3A7640000 DUP2 GT ISZERO PUSH2 0x1A3B JUMPI PUSH1 0x40 MLOAD PUSH32 0x8C379A000000000000000000000000000000000000000000000000000000000 DUP2 MSTORE PUSH1 0x4 ADD PUSH2 0x1A32 SWAP1 PUSH2 0x4412 JUMP JUMPDEST PUSH1 0x40 MLOAD DUP1 SWAP2 SUB SWAP1 REVERT JUMPDEST DUP1 PUSH1 0x10 DUP2 SWAP1 SSTORE POP CALLER PUSH20 0xFFFFFFFFFFFFFFFFFFFFFFFFFFFFFFFFFFFFFFFF AND PUSH32 0xEC370615CC81FB334E5566FBC80664D9082377BF59288D64A79F3FBECF4323A9 DUP3 PUSH1 0x40 MLOAD PUSH2 0x1A88 SWAP2 SWAP1 PUSH2 0x371E JUMP JUMPDEST PUSH1 0x40 MLOAD DUP1 SWAP2 SUB SWAP1 LOG2 POP JUMP JUMPDEST PUSH1 0x8 PUSH1 0x20 MSTORE DUP1 PUSH1 0x0 MSTORE PUSH1 0x40 PUSH1 0x0 KECCAK256 PUSH1 0x0 SWAP2 POP SWAP1 POP SLOAD DUP2 JUMP JUMPDEST PUSH1 0x10 SLOAD DUP2 JUMP JUMPDEST CALLER PUSH20 0xFFFFFFFFFFFFFFFFFFFFFFFFFFFFFFFFFFFFFFFF AND PUSH2 0x1AD0 PUSH2 0x16D2 JUMP JUMPDEST PUSH20 0xFFFFFFFFFFFFFFFFFFFFFFFFFFFFFFFFFFFFFFFF AND EQ PUSH2 0x1B26 JUMPI PUSH1 0x40 MLOAD PUSH32 0x8C379A000000000000000000000000000000000000000000000000000000000 DUP2 MSTORE PUSH1 0x4 ADD PUSH2 0x1B1D SWAP1 PUSH2 0x41D1 JUMP JUMPDEST PUSH1 0x40 MLOAD DUP1 SWAP2 SUB SWAP1 REVERT JUMPDEST CALLER PUSH20 0xFFFFFFFFFFFFFFFFFFFFFFFFFFFFFFFFFFFFFFFF AND SELFDESTRUCT JUMPDEST PUSH1 0x0 PUSH1 0xA PUSH1 0x0 DUP5 DUP2 MSTORE PUSH1 0x20 ADD SWAP1 DUP2 MSTORE PUSH1 0x20 ADD PUSH1 0x0 KECCAK256 PUSH1 0x0 ADD PUSH1 0x0 DUP4 PUSH20 0xFFFFFFFFFFFFFFFFFFFFFFFFFFFFFFFFFFFFFFFF AND PUSH20 0xFFFFFFFFFFFFFFFFFFFFFFFFFFFFFFFFFFFFFFFF AND DUP2 MSTORE PUSH1 0x20 ADD SWAP1 DUP2 MSTORE PUSH1 0x20 ADD PUSH1 0x0 KECCAK256 PUSH1 0x0 SWAP1 SLOAD SWAP1 PUSH2 0x100 EXP SWAP1 DIV PUSH1 0xFF AND SWAP1 POP SWAP3 SWAP2 POP POP JUMP JUMPDEST DUP5 PUSH1 0xF PUSH1 0x0 PUSH2 0x100 EXP DUP2 SLOAD DUP2 PUSH20 0xFFFFFFFFFFFFFFFFFFFFFFFFFFFFFFFFFFFFFFFF MUL NOT AND SWAP1 DUP4 PUSH20 0xFFFFFFFFFFFFFFFFFFFFFFFFFFFFFFFFFFFFFFFF AND MUL OR SWAP1 SSTORE POP DUP4 PUSH1 0xB PUSH1 0x0 PUSH2 0x100 EXP DUP2 SLOAD DUP2 PUSH20 0xFFFFFFFFFFFFFFFFFFFFFFFFFFFFFFFFFFFFFFFF MUL NOT AND SWAP1 DUP4 PUSH20 0xFFFFFFFFFFFFFFFFFFFFFFFFFFFFFFFFFFFFFFFF AND MUL OR SWAP1 SSTORE POP PUSH1 0x2 PUSH1 0x0 SWAP1 SLOAD SWAP1 PUSH2 0x100 EXP SWAP1 DIV PUSH1 0xFF AND PUSH1 0xA PUSH2 0x1C48 SWAP2 SWAP1 PUSH2 0x4565 JUMP JUMPDEST PUSH1 0xE DUP2 SWAP1 SSTORE POP PUSH32 0xFFFFFFFFFFFFFFFFFFFFFFFFFFFFFFFFFFFFFFFFFFFFFFFFFFFFFFFFFFFFFFFF PUSH1 0x3 DUP2 SWAP1 SSTORE POP PUSH2 0x1C81 DUP6 DUP5 DUP5 DUP5 PUSH2 0x1680 JUMP JUMPDEST PUSH1 0x1 PUSH1 0x14 PUSH1 0x0 PUSH2 0x100 EXP DUP2 SLOAD DUP2 PUSH1 0xFF MUL NOT AND SWAP1 DUP4 ISZERO ISZERO MUL OR SWAP1 SSTORE POP PUSH1 0xB PUSH1 0x0 SWAP1 SLOAD SWAP1 PUSH2 0x100 EXP SWAP1 DIV PUSH20 0xFFFFFFFFFFFFFFFFFFFFFFFFFFFFFFFFFFFFFFFF AND PUSH20 0xFFFFFFFFFFFFFFFFFFFFFFFFFFFFFFFFFFFFFFFF AND PUSH32 0x908408E307FC569B417F6CBEC5D5A06F44A0A505AC0479B47D421A4B2FD6A1E6 PUSH1 0x40 MLOAD PUSH1 0x40 MLOAD DUP1 SWAP2 SUB SWAP1 LOG2 POP POP POP POP POP JUMP JUMPDEST PUSH1 0x0 PUSH2 0x1D13 DUP4 PUSH2 0x20F7 JUMP JUMPDEST SWAP1 POP PUSH2 0x1D64 CALLER ADDRESS DUP4 PUSH1 0x9 PUSH1 0x0 SWAP1 SLOAD SWAP1 PUSH2 0x100 EXP SWAP1 DIV PUSH20 0xFFFFFFFFFFFFFFFFFFFFFFFFFFFFFFFFFFFFFFFF AND PUSH20 0xFFFFFFFFFFFFFFFFFFFFFFFFFFFFFFFFFFFFFFFF AND PUSH2 0x311D SWAP1 SWAP4 SWAP3 SWAP2 SWAP1 PUSH4 0xFFFFFFFF AND JUMP JUMPDEST PUSH2 0x1D6E DUP3 DUP5 PUSH2 0x31BC JUMP JUMPDEST DUP2 PUSH20 0xFFFFFFFFFFFFFFFFFFFFFFFFFFFFFFFFFFFFFFFF AND CALLER PUSH20 0xFFFFFFFFFFFFFFFFFFFFFFFFFFFFFFFFFFFFFFFF AND PUSH32 0xDCBC1C05240F31FF3AD067EF1EE35CE4997762752E3A095284754544F4C709D7 DUP4 DUP7 PUSH1 0x40 MLOAD PUSH2 0x1DCD SWAP3 SWAP2 SWAP1 PUSH2 0x439D JUMP JUMPDEST PUSH1 0x40 MLOAD DUP1 SWAP2 SUB SWAP1 LOG3 PUSH2 0x1DDF DUP2 DUP5 PUSH2 0x328C JUMP JUMPDEST SWAP3 SWAP2 POP POP JUMP JUMPDEST PUSH1 0x1 DUP1 SLOAD PUSH2 0x1DF2 SWAP1 PUSH2 0x40CB JUMP JUMPDEST DUP1 PUSH1 0x1F ADD PUSH1 0x20 DUP1 SWAP2 DIV MUL PUSH1 0x20 ADD PUSH1 0x40 MLOAD SWAP1 DUP2 ADD PUSH1 0x40 MSTORE DUP1 SWAP3 SWAP2 SWAP1 DUP2 DUP2 MSTORE PUSH1 0x20 ADD DUP3 DUP1 SLOAD PUSH2 0x1E1E SWAP1 PUSH2 0x40CB JUMP JUMPDEST DUP1 ISZERO PUSH2 0x1E6B JUMPI DUP1 PUSH1 0x1F LT PUSH2 0x1E40 JUMPI PUSH2 0x100 DUP1 DUP4 SLOAD DIV MUL DUP4 MSTORE SWAP2 PUSH1 0x20 ADD SWAP2 PUSH2 0x1E6B JUMP JUMPDEST DUP3 ADD SWAP2 SWAP1 PUSH1 0x0 MSTORE PUSH1 0x20 PUSH1 0x0 KECCAK256 SWAP1 JUMPDEST DUP2 SLOAD DUP2 MSTORE SWAP1 PUSH1 0x1 ADD SWAP1 PUSH1 0x20 ADD DUP1 DUP4 GT PUSH2 0x1E4E JUMPI DUP3 SWAP1 SUB PUSH1 0x1F AND DUP3 ADD SWAP2 JUMPDEST POP POP POP POP POP DUP2 JUMP JUMPDEST PUSH1 0x0 DUP1 SHL DUP2 JUMP JUMPDEST PUSH1 0x0 DUP2 PUSH1 0x4 PUSH1 0x0 CALLER PUSH20 0xFFFFFFFFFFFFFFFFFFFFFFFFFFFFFFFFFFFFFFFF AND PUSH20 0xFFFFFFFFFFFFFFFFFFFFFFFFFFFFFFFFFFFFFFFF AND DUP2 MSTORE PUSH1 0x20 ADD SWAP1 DUP2 MSTORE PUSH1 0x20 ADD PUSH1 0x0 KECCAK256 PUSH1 0x0 DUP3 DUP3 SLOAD PUSH2 0x1ECB SWAP2 SWAP1 PUSH2 0x412B JUMP JUMPDEST SWAP3 POP POP DUP2 SWAP1 SSTORE POP DUP2 PUSH1 0x4 PUSH1 0x0 DUP6 PUSH20 0xFFFFFFFFFFFFFFFFFFFFFFFFFFFFFFFFFFFFFFFF AND PUSH20 0xFFFFFFFFFFFFFFFFFFFFFFFFFFFFFFFFFFFFFFFF AND DUP2 MSTORE PUSH1 0x20 ADD SWAP1 DUP2 MSTORE PUSH1 0x20 ADD PUSH1 0x0 KECCAK256 PUSH1 0x0 DUP3 DUP3 SLOAD ADD SWAP3 POP POP DUP2 SWAP1 SSTORE POP DUP3 PUSH20 0xFFFFFFFFFFFFFFFFFFFFFFFFFFFFFFFFFFFFFFFF AND CALLER PUSH20 0xFFFFFFFFFFFFFFFFFFFFFFFFFFFFFFFFFFFFFFFF AND PUSH32 0xDDF252AD1BE2C89B69C2B068FC378DAA952BA7F163C4A11628F55A4DF523B3EF DUP5 PUSH1 0x40 MLOAD PUSH2 0x1F7C SWAP2 SWAP1 PUSH2 0x371E JUMP JUMPDEST PUSH1 0x40 MLOAD DUP1 SWAP2 SUB SWAP1 LOG3 PUSH1 0x1 SWAP1 POP SWAP3 SWAP2 POP POP JUMP JUMPDEST CALLER PUSH20 0xFFFFFFFFFFFFFFFFFFFFFFFFFFFFFFFFFFFFFFFF AND PUSH2 0x1FAD PUSH2 0x16D2 JUMP JUMPDEST PUSH20 0xFFFFFFFFFFFFFFFFFFFFFFFFFFFFFFFFFFFFFFFF AND EQ PUSH2 0x2003 JUMPI PUSH1 0x40 MLOAD PUSH32 0x8C379A000000000000000000000000000000000000000000000000000000000 DUP2 MSTORE PUSH1 0x4 ADD PUSH2 0x1FFA SWAP1 PUSH2 0x41D1 JUMP JUMPDEST PUSH1 0x40 MLOAD DUP1 SWAP2 SUB SWAP1 REVERT JUMPDEST CALLER PUSH20 0xFFFFFFFFFFFFFFFFFFFFFFFFFFFFFFFFFFFFFFFF AND PUSH32 0x9493E5BBE4E8E0AC67284469A2D677403D0378A85A59E341D3ABC433D0D9A209 DUP3 PUSH1 0x40 MLOAD PUSH2 0x2049 SWAP2 SWAP1 PUSH2 0x371E JUMP JUMPDEST PUSH1 0x40 MLOAD DUP1 SWAP2 SUB SWAP1 LOG2 ADDRESS PUSH20 0xFFFFFFFFFFFFFFFFFFFFFFFFFFFFFFFFFFFFFFFF AND PUSH4 0xA9059CBB CALLER DUP4 PUSH1 0x40 MLOAD DUP4 PUSH4 0xFFFFFFFF AND PUSH1 0xE0 SHL DUP2 MSTORE PUSH1 0x4 ADD PUSH2 0x208C SWAP3 SWAP2 SWAP1 PUSH2 0x45B0 JUMP JUMPDEST PUSH1 0x20 PUSH1 0x40 MLOAD DUP1 DUP4 SUB DUP2 PUSH1 0x0 DUP8 GAS CALL ISZERO DUP1 ISZERO PUSH2 0x20AB JUMPI RETURNDATASIZE PUSH1 0x0 DUP1 RETURNDATACOPY RETURNDATASIZE PUSH1 0x0 REVERT JUMPDEST POP POP POP POP PUSH1 0x40 MLOAD RETURNDATASIZE PUSH1 0x1F NOT PUSH1 0x1F DUP3 ADD AND DUP3 ADD DUP1 PUSH1 0x40 MSTORE POP DUP2 ADD SWAP1 PUSH2 0x20CF SWAP2 SWAP1 PUSH2 0x45EE JUMP JUMPDEST POP POP JUMP JUMPDEST PUSH32 0x7C3948777991E30EFC945B298D109FC7A0C0DE63DD562ADFEA7F970336F317B0 DUP2 JUMP JUMPDEST PUSH1 0x0 DUP1 PUSH1 0x3 SLOAD SWAP1 POP PUSH1 0x0 DUP2 EQ PUSH2 0x2128 JUMPI PUSH2 0x2123 PUSH2 0x2112 PUSH2 0xDFD JUMP JUMPDEST DUP3 DUP6 PUSH2 0x2E2B SWAP1 SWAP3 SWAP2 SWAP1 PUSH4 0xFFFFFFFF AND JUMP JUMPDEST PUSH2 0x212A JUMP JUMPDEST DUP3 JUMPDEST SWAP2 POP POP SWAP2 SWAP1 POP JUMP JUMPDEST PUSH1 0x0 PUSH2 0x213D DUP5 PUSH2 0x10D5 JUMP JUMPDEST SWAP1 POP DUP2 PUSH20 0xFFFFFFFFFFFFFFFFFFFFFFFFFFFFFFFFFFFFFFFF AND CALLER PUSH20 0xFFFFFFFFFFFFFFFFFFFFFFFFFFFFFFFFFFFFFFFF AND EQ PUSH2 0x22A9 JUMPI PUSH1 0x0 PUSH1 0x5 PUSH1 0x0 DUP5 PUSH20 0xFFFFFFFFFFFFFFFFFFFFFFFFFFFFFFFFFFFFFFFF AND PUSH20 0xFFFFFFFFFFFFFFFFFFFFFFFFFFFFFFFFFFFFFFFF AND DUP2 MSTORE PUSH1 0x20 ADD SWAP1 DUP2 MSTORE PUSH1 0x20 ADD PUSH1 0x0 KECCAK256 PUSH1 0x0 CALLER PUSH20 0xFFFFFFFFFFFFFFFFFFFFFFFFFFFFFFFFFFFFFFFF AND PUSH20 0xFFFFFFFFFFFFFFFFFFFFFFFFFFFFFFFFFFFFFFFF AND DUP2 MSTORE PUSH1 0x20 ADD SWAP1 DUP2 MSTORE PUSH1 0x20 ADD PUSH1 0x0 KECCAK256 SLOAD SWAP1 POP PUSH32 0xFFFFFFFFFFFFFFFFFFFFFFFFFFFFFFFFFFFFFFFFFFFFFFFFFFFFFFFFFFFFFFFF DUP2 EQ PUSH2 0x22A7 JUMPI DUP2 DUP2 PUSH2 0x2226 SWAP2 SWAP1 PUSH2 0x412B JUMP JUMPDEST PUSH1 0x5 PUSH1 0x0 DUP6 PUSH20 0xFFFFFFFFFFFFFFFFFFFFFFFFFFFFFFFFFFFFFFFF AND PUSH20 0xFFFFFFFFFFFFFFFFFFFFFFFFFFFFFFFFFFFFFFFF AND DUP2 MSTORE PUSH1 0x20 ADD SWAP1 DUP2 MSTORE PUSH1 0x20 ADD PUSH1 0x0 KECCAK256 PUSH1 0x0 CALLER PUSH20 0xFFFFFFFFFFFFFFFFFFFFFFFFFFFFFFFFFFFFFFFF AND PUSH20 0xFFFFFFFFFFFFFFFFFFFFFFFFFFFFFFFFFFFFFFFF AND DUP2 MSTORE PUSH1 0x20 ADD SWAP1 DUP2 MSTORE PUSH1 0x20 ADD PUSH1 0x0 KECCAK256 DUP2 SWAP1 SSTORE POP JUMPDEST POP JUMPDEST PUSH2 0x22B3 DUP5 DUP3 PUSH2 0x32A8 JUMP JUMPDEST PUSH2 0x22BD DUP3 DUP3 PUSH2 0x32C4 JUMP JUMPDEST DUP2 PUSH20 0xFFFFFFFFFFFFFFFFFFFFFFFFFFFFFFFFFFFFFFFF AND DUP4 PUSH20 0xFFFFFFFFFFFFFFFFFFFFFFFFFFFFFFFFFFFFFFFF AND CALLER PUSH20 0xFFFFFFFFFFFFFFFFFFFFFFFFFFFFFFFFFFFFFFFF AND PUSH32 0xFBDE797D201C681B91056529119E0B02407C7BB96A4A2C75C01FC9667232C8DB DUP8 DUP6 PUSH1 0x40 MLOAD PUSH2 0x2333 SWAP3 SWAP2 SWAP1 PUSH2 0x439D JUMP JUMPDEST PUSH1 0x40 MLOAD DUP1 SWAP2 SUB SWAP1 LOG4 PUSH2 0x2388 DUP4 DUP6 PUSH1 0x9 PUSH1 0x0 SWAP1 SLOAD SWAP1 PUSH2 0x100 EXP SWAP1 DIV PUSH20 0xFFFFFFFFFFFFFFFFFFFFFFFFFFFFFFFFFFFFFFFF AND PUSH20 0xFFFFFFFFFFFFFFFFFFFFFFFFFFFFFFFFFFFFFFFF AND PUSH2 0x3394 SWAP1 SWAP3 SWAP2 SWAP1 PUSH4 0xFFFFFFFF AND JUMP JUMPDEST SWAP4 SWAP3 POP POP POP JUMP JUMPDEST PUSH1 0x0 DUP2 PUSH20 0xFFFFFFFFFFFFFFFFFFFFFFFFFFFFFFFFFFFFFFFF AND CALLER PUSH20 0xFFFFFFFFFFFFFFFFFFFFFFFFFFFFFFFFFFFFFFFF AND EQ PUSH2 0x24FB JUMPI PUSH1 0x0 PUSH1 0x5 PUSH1 0x0 DUP5 PUSH20 0xFFFFFFFFFFFFFFFFFFFFFFFFFFFFFFFFFFFFFFFF AND PUSH20 0xFFFFFFFFFFFFFFFFFFFFFFFFFFFFFFFFFFFFFFFF AND DUP2 MSTORE PUSH1 0x20 ADD SWAP1 DUP2 MSTORE PUSH1 0x20 ADD PUSH1 0x0 KECCAK256 PUSH1 0x0 CALLER PUSH20 0xFFFFFFFFFFFFFFFFFFFFFFFFFFFFFFFFFFFFFFFF AND PUSH20 0xFFFFFFFFFFFFFFFFFFFFFFFFFFFFFFFFFFFFFFFF AND DUP2 MSTORE PUSH1 0x20 ADD SWAP1 DUP2 MSTORE PUSH1 0x20 ADD PUSH1 0x0 KECCAK256 SLOAD SWAP1 POP PUSH32 0xFFFFFFFFFFFFFFFFFFFFFFFFFFFFFFFFFFFFFFFFFFFFFFFFFFFFFFFFFFFFFFFF DUP2 EQ PUSH2 0x24F9 JUMPI DUP5 DUP2 PUSH2 0x2478 SWAP2 SWAP1 PUSH2 0x412B JUMP JUMPDEST PUSH1 0x5 PUSH1 0x0 DUP6 PUSH20 0xFFFFFFFFFFFFFFFFFFFFFFFFFFFFFFFFFFFFFFFF AND PUSH20 0xFFFFFFFFFFFFFFFFFFFFFFFFFFFFFFFFFFFFFFFF AND DUP2 MSTORE PUSH1 0x20 ADD SWAP1 DUP2 MSTORE PUSH1 0x20 ADD PUSH1 0x0 KECCAK256 PUSH1 0x0 CALLER PUSH20 0xFFFFFFFFFFFFFFFFFFFFFFFFFFFFFFFFFFFFFFFF AND PUSH20 0xFFFFFFFFFFFFFFFFFFFFFFFFFFFFFFFFFFFFFFFF AND DUP2 MSTORE PUSH1 0x20 ADD SWAP1 DUP2 MSTORE PUSH1 0x20 ADD PUSH1 0x0 KECCAK256 DUP2 SWAP1 SSTORE POP JUMPDEST POP JUMPDEST PUSH1 0x0 PUSH2 0x2506 DUP6 PUSH2 0x16FC JUMP JUMPDEST SWAP2 POP DUP2 SUB PUSH2 0x2549 JUMPI PUSH1 0x40 MLOAD PUSH32 0x8C379A000000000000000000000000000000000000000000000000000000000 DUP2 MSTORE PUSH1 0x4 ADD PUSH2 0x2540 SWAP1 PUSH2 0x4667 JUMP JUMPDEST PUSH1 0x40 MLOAD DUP1 SWAP2 SUB SWAP1 REVERT JUMPDEST PUSH2 0x2553 DUP2 DUP6 PUSH2 0x32A8 JUMP JUMPDEST PUSH2 0x255D DUP3 DUP6 PUSH2 0x32C4 JUMP JUMPDEST DUP2 PUSH20 0xFFFFFFFFFFFFFFFFFFFFFFFFFFFFFFFFFFFFFFFF AND DUP4 PUSH20 0xFFFFFFFFFFFFFFFFFFFFFFFFFFFFFFFFFFFFFFFF AND CALLER PUSH20 0xFFFFFFFFFFFFFFFFFFFFFFFFFFFFFFFFFFFFFFFF AND PUSH32 0xFBDE797D201C681B91056529119E0B02407C7BB96A4A2C75C01FC9667232C8DB DUP5 DUP9 PUSH1 0x40 MLOAD PUSH2 0x25D3 SWAP3 SWAP2 SWAP1 PUSH2 0x439D JUMP JUMPDEST PUSH1 0x40 MLOAD DUP1 SWAP2 SUB SWAP1 LOG4 PUSH2 0x2628 DUP4 DUP3 PUSH1 0x9 PUSH1 0x0 SWAP1 SLOAD SWAP1 PUSH2 0x100 EXP SWAP1 DIV PUSH20 0xFFFFFFFFFFFFFFFFFFFFFFFFFFFFFFFFFFFFFFFF AND PUSH20 0xFFFFFFFFFFFFFFFFFFFFFFFFFFFFFFFFFFFFFFFF AND PUSH2 0x3394 SWAP1 SWAP3 SWAP2 SWAP1 PUSH4 0xFFFFFFFF AND JUMP JUMPDEST SWAP4 SWAP3 POP POP POP JUMP JUMPDEST PUSH1 0xC SLOAD DUP2 JUMP JUMPDEST CALLER PUSH20 0xFFFFFFFFFFFFFFFFFFFFFFFFFFFFFFFFFFFFFFFF AND PUSH2 0x2654 PUSH2 0x16D2 JUMP JUMPDEST PUSH20 0xFFFFFFFFFFFFFFFFFFFFFFFFFFFFFFFFFFFFFFFF AND EQ PUSH2 0x26AA JUMPI PUSH1 0x40 MLOAD PUSH32 0x8C379A000000000000000000000000000000000000000000000000000000000 DUP2 MSTORE PUSH1 0x4 ADD PUSH2 0x26A1 SWAP1 PUSH2 0x41D1 JUMP JUMPDEST PUSH1 0x40 MLOAD DUP1 SWAP2 SUB SWAP1 REVERT JUMPDEST PUSH8 0xDE0B6B3A7640000 DUP2 GT ISZERO PUSH2 0x26F5 JUMPI PUSH1 0x40 MLOAD PUSH32 0x8C379A000000000000000000000000000000000000000000000000000000000 DUP2 MSTORE PUSH1 0x4 ADD PUSH2 0x26EC SWAP1 PUSH2 0x46D3 JUMP JUMPDEST PUSH1 0x40 MLOAD DUP1 SWAP2 SUB SWAP1 REVERT JUMPDEST DUP1 PUSH1 0x11 DUP2 SWAP1 SSTORE POP CALLER PUSH20 0xFFFFFFFFFFFFFFFFFFFFFFFFFFFFFFFFFFFFFFFF AND PUSH32 0x95BC4480B51F4860106D42850BCAE222CF3303FB2B7D433E896205E0EBEFE369 DUP3 PUSH1 0x40 MLOAD PUSH2 0x2742 SWAP2 SWAP1 PUSH2 0x371E JUMP JUMPDEST PUSH1 0x40 MLOAD DUP1 SWAP2 SUB SWAP1 LOG2 POP JUMP JUMPDEST PUSH1 0xF PUSH1 0x0 SWAP1 SLOAD SWAP1 PUSH2 0x100 EXP SWAP1 DIV PUSH20 0xFFFFFFFFFFFFFFFFFFFFFFFFFFFFFFFFFFFFFFFF AND DUP2 JUMP JUMPDEST PUSH1 0x0 PUSH32 0xFFFFFFFFFFFFFFFFFFFFFFFFFFFFFFFFFFFFFFFFFFFFFFFFFFFFFFFFFFFFFFFF SWAP1 POP SWAP2 SWAP1 POP JUMP JUMPDEST PUSH1 0x0 DUP1 PUSH1 0x3 SLOAD SWAP1 POP PUSH1 0x0 DUP2 EQ PUSH2 0x27CE JUMPI PUSH2 0x27C9 DUP2 PUSH2 0x27B9 PUSH2 0xDFD JUMP JUMPDEST DUP6 PUSH2 0x2E03 SWAP1 SWAP3 SWAP2 SWAP1 PUSH4 0xFFFFFFFF AND JUMP JUMPDEST PUSH2 0x27D0 JUMP JUMPDEST DUP3 JUMPDEST SWAP2 POP POP SWAP2 SWAP1 POP JUMP JUMPDEST PUSH1 0x0 PUSH2 0x2822 PUSH1 0x4 PUSH1 0x0 DUP5 PUSH20 0xFFFFFFFFFFFFFFFFFFFFFFFFFFFFFFFFFFFFFFFF AND PUSH20 0xFFFFFFFFFFFFFFFFFFFFFFFFFFFFFFFFFFFFFFFF AND DUP2 MSTORE PUSH1 0x20 ADD SWAP1 DUP2 MSTORE PUSH1 0x20 ADD PUSH1 0x0 KECCAK256 SLOAD PUSH2 0xFA8 JUMP JUMPDEST SWAP1 POP SWAP2 SWAP1 POP JUMP JUMPDEST TIMESTAMP DUP5 LT ISZERO PUSH2 0x286C JUMPI PUSH1 0x40 MLOAD PUSH32 0x8C379A000000000000000000000000000000000000000000000000000000000 DUP2 MSTORE PUSH1 0x4 ADD PUSH2 0x2863 SWAP1 PUSH2 0x473F JUMP JUMPDEST PUSH1 0x40 MLOAD DUP1 SWAP2 SUB SWAP1 REVERT JUMPDEST PUSH1 0x0 PUSH1 0x1 PUSH2 0x2878 PUSH2 0x1579 JUMP JUMPDEST PUSH32 0x6E71EDAE12B1B97F4D1F60370FEF10105FA2FAAE0126114A169C64845D6126C9 DUP11 DUP11 DUP11 PUSH1 0x8 PUSH1 0x0 DUP16 PUSH20 0xFFFFFFFFFFFFFFFFFFFFFFFFFFFFFFFFFFFFFFFF AND PUSH20 0xFFFFFFFFFFFFFFFFFFFFFFFFFFFFFFFFFFFFFFFF AND DUP2 MSTORE PUSH1 0x20 ADD SWAP1 DUP2 MSTORE PUSH1 0x20 ADD PUSH1 0x0 KECCAK256 PUSH1 0x0 DUP2 SLOAD DUP1 SWAP3 SWAP2 SWAP1 PUSH1 0x1 ADD SWAP2 SWAP1 POP SSTORE DUP12 PUSH1 0x40 MLOAD PUSH1 0x20 ADD PUSH2 0x2900 SWAP7 SWAP6 SWAP5 SWAP4 SWAP3 SWAP2 SWAP1 PUSH2 0x475F JUMP JUMPDEST PUSH1 0x40 MLOAD PUSH1 0x20 DUP2 DUP4 SUB SUB DUP2 MSTORE SWAP1 PUSH1 0x40 MSTORE DUP1 MLOAD SWAP1 PUSH1 0x20 ADD KECCAK256 PUSH1 0x40 MLOAD PUSH1 0x20 ADD PUSH2 0x2927 SWAP3 SWAP2 SWAP1 PUSH2 0x4838 JUMP JUMPDEST PUSH1 0x40 MLOAD PUSH1 0x20 DUP2 DUP4 SUB SUB DUP2 MSTORE SWAP1 PUSH1 0x40 MSTORE DUP1 MLOAD SWAP1 PUSH1 0x20 ADD KECCAK256 DUP6 DUP6 DUP6 PUSH1 0x40 MLOAD PUSH1 0x0 DUP2 MSTORE PUSH1 0x20 ADD PUSH1 0x40 MSTORE PUSH1 0x40 MLOAD PUSH2 0x295D SWAP5 SWAP4 SWAP3 SWAP2 SWAP1 PUSH2 0x486F JUMP JUMPDEST PUSH1 0x20 PUSH1 0x40 MLOAD PUSH1 0x20 DUP2 SUB SWAP1 DUP1 DUP5 SUB SWAP1 DUP6 GAS STATICCALL ISZERO DUP1 ISZERO PUSH2 0x297F JUMPI RETURNDATASIZE PUSH1 0x0 DUP1 RETURNDATACOPY RETURNDATASIZE PUSH1 0x0 REVERT JUMPDEST POP POP POP PUSH1 0x20 PUSH1 0x40 MLOAD SUB MLOAD SWAP1 POP PUSH1 0x0 PUSH20 0xFFFFFFFFFFFFFFFFFFFFFFFFFFFFFFFFFFFFFFFF AND DUP2 PUSH20 0xFFFFFFFFFFFFFFFFFFFFFFFFFFFFFFFFFFFFFFFF AND EQ ISZERO DUP1 ISZERO PUSH2 0x29F3 JUMPI POP DUP8 PUSH20 0xFFFFFFFFFFFFFFFFFFFFFFFFFFFFFFFFFFFFFFFF AND DUP2 PUSH20 0xFFFFFFFFFFFFFFFFFFFFFFFFFFFFFFFFFFFFFFFF AND EQ JUMPDEST PUSH2 0x2A32 JUMPI PUSH1 0x40 MLOAD PUSH32 0x8C379A000000000000000000000000000000000000000000000000000000000 DUP2 MSTORE PUSH1 0x4 ADD PUSH2 0x2A29 SWAP1 PUSH2 0x4900 JUMP JUMPDEST PUSH1 0x40 MLOAD DUP1 SWAP2 SUB SWAP1 REVERT JUMPDEST DUP6 PUSH1 0x5 PUSH1 0x0 DUP4 PUSH20 0xFFFFFFFFFFFFFFFFFFFFFFFFFFFFFFFFFFFFFFFF AND PUSH20 0xFFFFFFFFFFFFFFFFFFFFFFFFFFFFFFFFFFFFFFFF AND DUP2 MSTORE PUSH1 0x20 ADD SWAP1 DUP2 MSTORE PUSH1 0x20 ADD PUSH1 0x0 KECCAK256 PUSH1 0x0 DUP10 PUSH20 0xFFFFFFFFFFFFFFFFFFFFFFFFFFFFFFFFFFFFFFFF AND PUSH20 0xFFFFFFFFFFFFFFFFFFFFFFFFFFFFFFFFFFFFFFFF AND DUP2 MSTORE PUSH1 0x20 ADD SWAP1 DUP2 MSTORE PUSH1 0x20 ADD PUSH1 0x0 KECCAK256 DUP2 SWAP1 SSTORE POP POP DUP6 PUSH20 0xFFFFFFFFFFFFFFFFFFFFFFFFFFFFFFFFFFFFFFFF AND DUP8 PUSH20 0xFFFFFFFFFFFFFFFFFFFFFFFFFFFFFFFFFFFFFFFF AND PUSH32 0x8C5BE1E5EBEC7D5BD14F71427D1E84F3DD0314C0F7B2291E5B200AC8C7C3B925 DUP8 PUSH1 0x40 MLOAD PUSH2 0x2B11 SWAP2 SWAP1 PUSH2 0x371E JUMP JUMPDEST PUSH1 0x40 MLOAD DUP1 SWAP2 SUB SWAP1 LOG3 POP POP POP POP POP POP POP JUMP JUMPDEST PUSH2 0x2B2B DUP3 PUSH2 0x1366 JUMP JUMPDEST PUSH2 0x2B34 DUP2 PUSH2 0x2E5D JUMP JUMPDEST PUSH2 0x2B3E DUP4 DUP4 PUSH2 0x2FE6 JUMP JUMPDEST POP POP POP JUMP JUMPDEST PUSH1 0x0 PUSH1 0x4 PUSH1 0x0 DUP4 PUSH20 0xFFFFFFFFFFFFFFFFFFFFFFFFFFFFFFFFFFFFFFFF AND PUSH20 0xFFFFFFFFFFFFFFFFFFFFFFFFFFFFFFFFFFFFFFFF AND DUP2 MSTORE PUSH1 0x20 ADD SWAP1 DUP2 MSTORE PUSH1 0x20 ADD PUSH1 0x0 KECCAK256 SLOAD SWAP1 POP SWAP2 SWAP1 POP JUMP JUMPDEST PUSH1 0x14 PUSH1 0x1 SWAP1 SLOAD SWAP1 PUSH2 0x100 EXP SWAP1 DIV PUSH1 0xFF AND DUP2 JUMP JUMPDEST PUSH1 0x5 PUSH1 0x20 MSTORE DUP2 PUSH1 0x0 MSTORE PUSH1 0x40 PUSH1 0x0 KECCAK256 PUSH1 0x20 MSTORE DUP1 PUSH1 0x0 MSTORE PUSH1 0x40 PUSH1 0x0 KECCAK256 PUSH1 0x0 SWAP2 POP SWAP2 POP POP SLOAD DUP2 JUMP JUMPDEST PUSH1 0x13 SLOAD DUP2 JUMP JUMPDEST PUSH1 0x0 PUSH2 0x2BD5 DUP3 PUSH2 0x279D JUMP JUMPDEST SWAP1 POP SWAP2 SWAP1 POP JUMP JUMPDEST CALLER PUSH20 0xFFFFFFFFFFFFFFFFFFFFFFFFFFFFFFFFFFFFFFFF AND PUSH2 0x2BFB PUSH2 0x16D2 JUMP JUMPDEST PUSH20 0xFFFFFFFFFFFFFFFFFFFFFFFFFFFFFFFFFFFFFFFF AND EQ PUSH2 0x2C51 JUMPI PUSH1 0x40 MLOAD PUSH32 0x8C379A000000000000000000000000000000000000000000000000000000000 DUP2 MSTORE PUSH1 0x4 ADD PUSH2 0x2C48 SWAP1 PUSH2 0x41D1 JUMP JUMPDEST PUSH1 0x40 MLOAD DUP1 SWAP2 SUB SWAP1 REVERT JUMPDEST PUSH1 0x0 PUSH20 0xFFFFFFFFFFFFFFFFFFFFFFFFFFFFFFFFFFFFFFFF AND DUP2 PUSH20 0xFFFFFFFFFFFFFFFFFFFFFFFFFFFFFFFFFFFFFFFF AND SUB PUSH2 0x2CC0 JUMPI PUSH1 0x40 MLOAD PUSH32 0x8C379A000000000000000000000000000000000000000000000000000000000 DUP2 MSTORE PUSH1 0x4 ADD PUSH2 0x2CB7 SWAP1 PUSH2 0x4992 JUMP JUMPDEST PUSH1 0x40 MLOAD DUP1 SWAP2 SUB SWAP1 REVERT JUMPDEST DUP1 PUSH20 0xFFFFFFFFFFFFFFFFFFFFFFFFFFFFFFFFFFFFFFFF AND PUSH1 0xB PUSH1 0x0 SWAP1 SLOAD SWAP1 PUSH2 0x100 EXP SWAP1 DIV PUSH20 0xFFFFFFFFFFFFFFFFFFFFFFFFFFFFFFFFFFFFFFFF AND PUSH20 0xFFFFFFFFFFFFFFFFFFFFFFFFFFFFFFFFFFFFFFFF AND PUSH32 0x8BE0079C531659141344CD1FD0A4F28419497F9722A3DAAFE3B4186F6B6457E0 PUSH1 0x40 MLOAD PUSH1 0x40 MLOAD DUP1 SWAP2 SUB SWAP1 LOG3 DUP1 PUSH1 0xB PUSH1 0x0 PUSH2 0x100 EXP DUP2 SLOAD DUP2 PUSH20 0xFFFFFFFFFFFFFFFFFFFFFFFFFFFFFFFFFFFFFFFF MUL NOT AND SWAP1 DUP4 PUSH20 0xFFFFFFFFFFFFFFFFFFFFFFFFFFFFFFFFFFFFFFFF AND MUL OR SWAP1 SSTORE POP POP JUMP JUMPDEST PUSH1 0x12 PUSH1 0x0 SWAP1 SLOAD SWAP1 PUSH2 0x100 EXP SWAP1 DIV PUSH1 0xFF AND DUP2 JUMP JUMPDEST PUSH1 0xD SLOAD DUP2 JUMP JUMPDEST PUSH1 0x0 PUSH32 0x1FFC9A700000000000000000000000000000000000000000000000000000000 PUSH28 0xFFFFFFFFFFFFFFFFFFFFFFFFFFFFFFFFFFFFFFFFFFFFFFFFFFFFFFFF NOT AND DUP3 PUSH28 0xFFFFFFFFFFFFFFFFFFFFFFFFFFFFFFFFFFFFFFFFFFFFFFFFFFFFFFFF NOT AND EQ SWAP1 POP SWAP2 SWAP1 POP JUMP JUMPDEST PUSH1 0x0 DUP3 DUP5 MUL SWAP1 POP DUP3 DUP5 DUP3 DIV EQ DUP5 ISZERO OR DUP3 ISZERO ISZERO AND PUSH2 0x2E1F JUMPI PUSH1 0x0 DUP1 REVERT JUMPDEST DUP2 DUP2 DIV SWAP1 POP SWAP4 SWAP3 POP POP POP JUMP JUMPDEST PUSH1 0x0 DUP3 DUP5 MUL SWAP1 POP DUP3 DUP5 DUP3 DIV EQ DUP5 ISZERO OR DUP3 ISZERO ISZERO AND PUSH2 0x2E47 JUMPI PUSH1 0x0 DUP1 REVERT JUMPDEST PUSH1 0x1 DUP3 PUSH1 0x1 DUP4 SUB DIV ADD DUP2 ISZERO ISZERO MUL SWAP1 POP SWAP4 SWAP3 POP POP POP JUMP JUMPDEST PUSH2 0x2E6E DUP2 PUSH2 0x2E69 PUSH2 0x2FDE JUMP JUMPDEST PUSH2 0x342C JUMP JUMPDEST POP JUMP JUMPDEST PUSH2 0x2E7B DUP3 DUP3 PUSH2 0x1B3F JUMP JUMPDEST PUSH2 0x2F4E JUMPI PUSH1 0x1 PUSH1 0xA PUSH1 0x0 DUP5 DUP2 MSTORE PUSH1 0x20 ADD SWAP1 DUP2 MSTORE PUSH1 0x20 ADD PUSH1 0x0 KECCAK256 PUSH1 0x0 ADD PUSH1 0x0 DUP4 PUSH20 0xFFFFFFFFFFFFFFFFFFFFFFFFFFFFFFFFFFFFFFFF AND PUSH20 0xFFFFFFFFFFFFFFFFFFFFFFFFFFFFFFFFFFFFFFFF AND DUP2 MSTORE PUSH1 0x20 ADD SWAP1 DUP2 MSTORE PUSH1 0x20 ADD PUSH1 0x0 KECCAK256 PUSH1 0x0 PUSH2 0x100 EXP DUP2 SLOAD DUP2 PUSH1 0xFF MUL NOT AND SWAP1 DUP4 ISZERO ISZERO MUL OR SWAP1 SSTORE POP PUSH2 0x2EF3 PUSH2 0x2FDE JUMP JUMPDEST PUSH20 0xFFFFFFFFFFFFFFFFFFFFFFFFFFFFFFFFFFFFFFFF AND DUP2 PUSH20 0xFFFFFFFFFFFFFFFFFFFFFFFFFFFFFFFFFFFFFFFF AND DUP4 PUSH32 0x2F8788117E7EFF1D82E926EC794901D17C78024A50270940304540A733656F0D PUSH1 0x40 MLOAD PUSH1 0x40 MLOAD DUP1 SWAP2 SUB SWAP1 LOG4 JUMPDEST POP POP JUMP JUMPDEST PUSH1 0x0 PUSH32 0x8B73C3C69BB8FE3D512ECC4CF759CC79239F7B179B0FFACAA9A75D522B39400F PUSH1 0x0 PUSH1 0x40 MLOAD PUSH2 0x2F84 SWAP2 SWAP1 PUSH2 0x4A55 JUMP JUMPDEST PUSH1 0x40 MLOAD DUP1 SWAP2 SUB SWAP1 KECCAK256 PUSH32 0xC89EFDAA54C0F20C7ADF612882DF0950F5A951637E0307CDCB4C672F298B8BC6 CHAINID ADDRESS PUSH1 0x40 MLOAD PUSH1 0x20 ADD PUSH2 0x2FC3 SWAP6 SWAP5 SWAP4 SWAP3 SWAP2 SWAP1 PUSH2 0x4A6C JUMP JUMPDEST PUSH1 0x40 MLOAD PUSH1 0x20 DUP2 DUP4 SUB SUB DUP2 MSTORE SWAP1 PUSH1 0x40 MSTORE DUP1 MLOAD SWAP1 PUSH1 0x20 ADD KECCAK256 SWAP1 POP SWAP1 JUMP JUMPDEST PUSH1 0x0 CALLER SWAP1 POP SWAP1 JUMP JUMPDEST PUSH2 0x2FF0 DUP3 DUP3 PUSH2 0x1B3F JUMP JUMPDEST ISZERO PUSH2 0x30C4 JUMPI PUSH1 0x0 PUSH1 0xA PUSH1 0x0 DUP5 DUP2 MSTORE PUSH1 0x20 ADD SWAP1 DUP2 MSTORE PUSH1 0x20 ADD PUSH1 0x0 KECCAK256 PUSH1 0x0 ADD PUSH1 0x0 DUP4 PUSH20 0xFFFFFFFFFFFFFFFFFFFFFFFFFFFFFFFFFFFFFFFF AND PUSH20 0xFFFFFFFFFFFFFFFFFFFFFFFFFFFFFFFFFFFFFFFF AND DUP2 MSTORE PUSH1 0x20 ADD SWAP1 DUP2 MSTORE PUSH1 0x20 ADD PUSH1 0x0 KECCAK256 PUSH1 0x0 PUSH2 0x100 EXP DUP2 SLOAD DUP2 PUSH1 0xFF MUL NOT AND SWAP1 DUP4 ISZERO ISZERO MUL OR SWAP1 SSTORE POP PUSH2 0x3069 PUSH2 0x2FDE JUMP JUMPDEST PUSH20 0xFFFFFFFFFFFFFFFFFFFFFFFFFFFFFFFFFFFFFFFF AND DUP2 PUSH20 0xFFFFFFFFFFFFFFFFFFFFFFFFFFFFFFFFFFFFFFFF AND DUP4 PUSH32 0xF6391F5C32D9C69D2A47EA670B442974B53935D1EDC7FD64EB21E047A839171B PUSH1 0x40 MLOAD PUSH1 0x40 MLOAD DUP1 SWAP2 SUB SWAP1 LOG4 JUMPDEST POP POP JUMP JUMPDEST DUP3 PUSH1 0x0 SWAP1 DUP2 PUSH2 0x30D7 SWAP2 SWAP1 PUSH2 0x4C61 JUMP JUMPDEST POP DUP2 PUSH1 0x1 SWAP1 DUP2 PUSH2 0x30E7 SWAP2 SWAP1 PUSH2 0x4C61 JUMP JUMPDEST POP DUP1 PUSH1 0x2 PUSH1 0x0 PUSH2 0x100 EXP DUP2 SLOAD DUP2 PUSH1 0xFF MUL NOT AND SWAP1 DUP4 PUSH1 0xFF AND MUL OR SWAP1 SSTORE POP CHAINID PUSH1 0x6 DUP2 SWAP1 SSTORE POP PUSH2 0x3112 PUSH2 0x2F52 JUMP JUMPDEST PUSH1 0x7 DUP2 SWAP1 SSTORE POP POP POP POP JUMP JUMPDEST PUSH1 0x0 PUSH1 0x40 MLOAD PUSH32 0x23B872DD00000000000000000000000000000000000000000000000000000000 DUP2 MSTORE DUP5 PUSH1 0x4 DUP3 ADD MSTORE DUP4 PUSH1 0x24 DUP3 ADD MSTORE DUP3 PUSH1 0x44 DUP3 ADD MSTORE PUSH1 0x20 PUSH1 0x0 PUSH1 0x64 DUP4 PUSH1 0x0 DUP11 GAS CALL RETURNDATASIZE ISZERO PUSH1 0x1F RETURNDATASIZE GT PUSH1 0x1 PUSH1 0x0 MLOAD EQ AND OR AND SWAP2 POP POP DUP1 PUSH2 0x31B5 JUMPI PUSH1 0x40 MLOAD PUSH32 0x8C379A000000000000000000000000000000000000000000000000000000000 DUP2 MSTORE PUSH1 0x4 ADD PUSH2 0x31AC SWAP1 PUSH2 0x4D7F JUMP JUMPDEST PUSH1 0x40 MLOAD DUP1 SWAP2 SUB SWAP1 REVERT JUMPDEST POP POP POP POP POP JUMP JUMPDEST DUP1 PUSH1 0x3 PUSH1 0x0 DUP3 DUP3 SLOAD PUSH2 0x31CE SWAP2 SWAP1 PUSH2 0x4D9F JUMP JUMPDEST SWAP3 POP POP DUP2 SWAP1 SSTORE POP DUP1 PUSH1 0x4 PUSH1 0x0 DUP5 PUSH20 0xFFFFFFFFFFFFFFFFFFFFFFFFFFFFFFFFFFFFFFFF AND PUSH20 0xFFFFFFFFFFFFFFFFFFFFFFFFFFFFFFFFFFFFFFFF AND DUP2 MSTORE PUSH1 0x20 ADD SWAP1 DUP2 MSTORE PUSH1 0x20 ADD PUSH1 0x0 KECCAK256 PUSH1 0x0 DUP3 DUP3 SLOAD ADD SWAP3 POP POP DUP2 SWAP1 SSTORE POP DUP2 PUSH20 0xFFFFFFFFFFFFFFFFFFFFFFFFFFFFFFFFFFFFFFFF AND PUSH1 0x0 PUSH20 0xFFFFFFFFFFFFFFFFFFFFFFFFFFFFFFFFFFFFFFFF AND PUSH32 0xDDF252AD1BE2C89B69C2B068FC378DAA952BA7F163C4A11628F55A4DF523B3EF DUP4 PUSH1 0x40 MLOAD PUSH2 0x3280 SWAP2 SWAP1 PUSH2 0x371E JUMP JUMPDEST PUSH1 0x40 MLOAD DUP1 SWAP2 SUB SWAP1 LOG3 POP POP JUMP JUMPDEST PUSH1 0xD PUSH1 0x0 DUP2 SLOAD DUP1 SWAP3 SWAP2 SWAP1 PUSH2 0x329F SWAP1 PUSH2 0x4DD3 JUMP JUMPDEST SWAP2 SWAP1 POP SSTORE POP POP POP JUMP JUMPDEST PUSH1 0xC PUSH1 0x0 DUP2 SLOAD DUP1 SWAP3 SWAP2 SWAP1 PUSH2 0x32BB SWAP1 PUSH2 0x4DD3 JUMP JUMPDEST SWAP2 SWAP1 POP SSTORE POP POP POP JUMP JUMPDEST DUP1 PUSH1 0x4 PUSH1 0x0 DUP5 PUSH20 0xFFFFFFFFFFFFFFFFFFFFFFFFFFFFFFFFFFFFFFFF AND PUSH20 0xFFFFFFFFFFFFFFFFFFFFFFFFFFFFFFFFFFFFFFFF AND DUP2 MSTORE PUSH1 0x20 ADD SWAP1 DUP2 MSTORE PUSH1 0x20 ADD PUSH1 0x0 KECCAK256 PUSH1 0x0 DUP3 DUP3 SLOAD PUSH2 0x3313 SWAP2 SWAP1 PUSH2 0x412B JUMP JUMPDEST SWAP3 POP POP DUP2 SWAP1 SSTORE POP DUP1 PUSH1 0x3 PUSH1 0x0 DUP3 DUP3 SLOAD SUB SWAP3 POP POP DUP2 SWAP1 SSTORE POP PUSH1 0x0 PUSH20 0xFFFFFFFFFFFFFFFFFFFFFFFFFFFFFFFFFFFFFFFF AND DUP3 PUSH20 0xFFFFFFFFFFFFFFFFFFFFFFFFFFFFFFFFFFFFFFFF AND PUSH32 0xDDF252AD1BE2C89B69C2B068FC378DAA952BA7F163C4A11628F55A4DF523B3EF DUP4 PUSH1 0x40 MLOAD PUSH2 0x3388 SWAP2 SWAP1 PUSH2 0x371E JUMP JUMPDEST PUSH1 0x40 MLOAD DUP1 SWAP2 SUB SWAP1 LOG3 POP POP JUMP JUMPDEST PUSH1 0x0 PUSH1 0x40 MLOAD PUSH32 0xA9059CBB00000000000000000000000000000000000000000000000000000000 DUP2 MSTORE DUP4 PUSH1 0x4 DUP3 ADD MSTORE DUP3 PUSH1 0x24 DUP3 ADD MSTORE PUSH1 0x20 PUSH1 0x0 PUSH1 0x44 DUP4 PUSH1 0x0 DUP10 GAS CALL RETURNDATASIZE ISZERO PUSH1 0x1F RETURNDATASIZE GT PUSH1 0x1 PUSH1 0x0 MLOAD EQ AND OR AND SWAP2 POP POP DUP1 PUSH2 0x3426 JUMPI PUSH1 0x40 MLOAD PUSH32 0x8C379A000000000000000000000000000000000000000000000000000000000 DUP2 MSTORE PUSH1 0x4 ADD PUSH2 0x341D SWAP1 PUSH2 0x4E67 JUMP JUMPDEST PUSH1 0x40 MLOAD DUP1 SWAP2 SUB SWAP1 REVERT JUMPDEST POP POP POP POP JUMP JUMPDEST PUSH2 0x3436 DUP3 DUP3 PUSH2 0x1B3F JUMP JUMPDEST PUSH2 0x34C5 JUMPI PUSH2 0x345B DUP2 PUSH20 0xFFFFFFFFFFFFFFFFFFFFFFFFFFFFFFFFFFFFFFFF AND PUSH1 0x14 PUSH2 0x34C9 JUMP JUMPDEST PUSH2 0x3469 DUP4 PUSH1 0x0 SHR PUSH1 0x20 PUSH2 0x34C9 JUMP JUMPDEST PUSH1 0x40 MLOAD PUSH1 0x20 ADD PUSH2 0x347A SWAP3 SWAP2 SWAP1 PUSH2 0x4F50 JUMP JUMPDEST PUSH1 0x40 MLOAD PUSH1 0x20 DUP2 DUP4 SUB SUB DUP2 MSTORE SWAP1 PUSH1 0x40 MSTORE PUSH1 0x40 MLOAD PUSH32 0x8C379A000000000000000000000000000000000000000000000000000000000 DUP2 MSTORE PUSH1 0x4 ADD PUSH2 0x34BC SWAP2 SWAP1 PUSH2 0x3898 JUMP JUMPDEST PUSH1 0x40 MLOAD DUP1 SWAP2 SUB SWAP1 REVERT JUMPDEST POP POP JUMP JUMPDEST PUSH1 0x60 PUSH1 0x0 PUSH1 0x2 DUP4 PUSH1 0x2 PUSH2 0x34DC SWAP2 SWAP1 PUSH2 0x4F8A JUMP JUMPDEST PUSH2 0x34E6 SWAP2 SWAP1 PUSH2 0x4D9F JUMP JUMPDEST PUSH8 0xFFFFFFFFFFFFFFFF DUP2 GT ISZERO PUSH2 0x34FF JUMPI PUSH2 0x34FE PUSH2 0x3C12 JUMP JUMPDEST JUMPDEST PUSH1 0x40 MLOAD SWAP1 DUP1 DUP3 MSTORE DUP1 PUSH1 0x1F ADD PUSH1 0x1F NOT AND PUSH1 0x20 ADD DUP3 ADD PUSH1 0x40 MSTORE DUP1 ISZERO PUSH2 0x3531 JUMPI DUP2 PUSH1 0x20 ADD PUSH1 0x1 DUP3 MUL DUP1 CALLDATASIZE DUP4 CALLDATACOPY DUP1 DUP3 ADD SWAP2 POP POP SWAP1 POP JUMPDEST POP SWAP1 POP PUSH32 0x3000000000000000000000000000000000000000000000000000000000000000 DUP2 PUSH1 0x0 DUP2 MLOAD DUP2 LT PUSH2 0x3569 JUMPI PUSH2 0x3568 PUSH2 0x4FCC JUMP JUMPDEST JUMPDEST PUSH1 0x20 ADD ADD SWAP1 PUSH31 0xFFFFFFFFFFFFFFFFFFFFFFFFFFFFFFFFFFFFFFFFFFFFFFFFFFFFFFFFFFFFFF NOT AND SWAP1 DUP2 PUSH1 0x0 BYTE SWAP1 MSTORE8 POP PUSH32 0x7800000000000000000000000000000000000000000000000000000000000000 DUP2 PUSH1 0x1 DUP2 MLOAD DUP2 LT PUSH2 0x35CD JUMPI PUSH2 0x35CC PUSH2 0x4FCC JUMP JUMPDEST JUMPDEST PUSH1 0x20 ADD ADD SWAP1 PUSH31 0xFFFFFFFFFFFFFFFFFFFFFFFFFFFFFFFFFFFFFFFFFFFFFFFFFFFFFFFFFFFFFF NOT AND SWAP1 DUP2 PUSH1 0x0 BYTE SWAP1 MSTORE8 POP PUSH1 0x0 PUSH1 0x1 DUP5 PUSH1 0x2 PUSH2 0x360D SWAP2 SWAP1 PUSH2 0x4F8A JUMP JUMPDEST PUSH2 0x3617 SWAP2 SWAP1 PUSH2 0x4D9F JUMP JUMPDEST SWAP1 POP JUMPDEST PUSH1 0x1 DUP2 GT ISZERO PUSH2 0x36B7 JUMPI PUSH32 0x3031323334353637383961626364656600000000000000000000000000000000 PUSH1 0xF DUP7 AND PUSH1 0x10 DUP2 LT PUSH2 0x3659 JUMPI PUSH2 0x3658 PUSH2 0x4FCC JUMP JUMPDEST JUMPDEST BYTE PUSH1 0xF8 SHL DUP3 DUP3 DUP2 MLOAD DUP2 LT PUSH2 0x3670 JUMPI PUSH2 0x366F PUSH2 0x4FCC JUMP JUMPDEST JUMPDEST PUSH1 0x20 ADD ADD SWAP1 PUSH31 0xFFFFFFFFFFFFFFFFFFFFFFFFFFFFFFFFFFFFFFFFFFFFFFFFFFFFFFFFFFFFFF NOT AND SWAP1 DUP2 PUSH1 0x0 BYTE SWAP1 MSTORE8 POP PUSH1 0x4 DUP6 SWAP1 SHR SWAP5 POP DUP1 PUSH2 0x36B0 SWAP1 PUSH2 0x4FFB JUMP JUMPDEST SWAP1 POP PUSH2 0x361A JUMP JUMPDEST POP PUSH1 0x0 DUP5 EQ PUSH2 0x36FB JUMPI PUSH1 0x40 MLOAD PUSH32 0x8C379A000000000000000000000000000000000000000000000000000000000 DUP2 MSTORE PUSH1 0x4 ADD PUSH2 0x36F2 SWAP1 PUSH2 0x5070 JUMP JUMPDEST PUSH1 0x40 MLOAD DUP1 SWAP2 SUB SWAP1 REVERT JUMPDEST DUP1 SWAP2 POP POP SWAP3 SWAP2 POP POP JUMP JUMPDEST PUSH1 0x0 DUP2 SWAP1 POP SWAP2 SWAP1 POP JUMP JUMPDEST PUSH2 0x3718 DUP2 PUSH2 0x3705 JUMP JUMPDEST DUP3 MSTORE POP POP JUMP JUMPDEST PUSH1 0x0 PUSH1 0x20 DUP3 ADD SWAP1 POP PUSH2 0x3733 PUSH1 0x0 DUP4 ADD DUP5 PUSH2 0x370F JUMP JUMPDEST SWAP3 SWAP2 POP POP JUMP JUMPDEST PUSH1 0x0 PUSH1 0x40 MLOAD SWAP1 POP SWAP1 JUMP JUMPDEST PUSH1 0x0 DUP1 REVERT JUMPDEST PUSH1 0x0 DUP1 REVERT JUMPDEST PUSH1 0x0 PUSH32 0xFFFFFFFF00000000000000000000000000000000000000000000000000000000 DUP3 AND SWAP1 POP SWAP2 SWAP1 POP JUMP JUMPDEST PUSH2 0x3782 DUP2 PUSH2 0x374D JUMP JUMPDEST DUP2 EQ PUSH2 0x378D JUMPI PUSH1 0x0 DUP1 REVERT JUMPDEST POP JUMP JUMPDEST PUSH1 0x0 DUP2 CALLDATALOAD SWAP1 POP PUSH2 0x379F DUP2 PUSH2 0x3779 JUMP JUMPDEST SWAP3 SWAP2 POP POP JUMP JUMPDEST PUSH1 0x0 PUSH1 0x20 DUP3 DUP5 SUB SLT ISZERO PUSH2 0x37BB JUMPI PUSH2 0x37BA PUSH2 0x3743 JUMP JUMPDEST JUMPDEST PUSH1 0x0 PUSH2 0x37C9 DUP5 DUP3 DUP6 ADD PUSH2 0x3790 JUMP JUMPDEST SWAP2 POP POP SWAP3 SWAP2 POP POP JUMP JUMPDEST PUSH1 0x0 DUP2 ISZERO ISZERO SWAP1 POP SWAP2 SWAP1 POP JUMP JUMPDEST PUSH2 0x37E7 DUP2 PUSH2 0x37D2 JUMP JUMPDEST DUP3 MSTORE POP POP JUMP JUMPDEST PUSH1 0x0 PUSH1 0x20 DUP3 ADD SWAP1 POP PUSH2 0x3802 PUSH1 0x0 DUP4 ADD DUP5 PUSH2 0x37DE JUMP JUMPDEST SWAP3 SWAP2 POP POP JUMP JUMPDEST PUSH1 0x0 DUP2 MLOAD SWAP1 POP SWAP2 SWAP1 POP JUMP JUMPDEST PUSH1 0x0 DUP3 DUP3 MSTORE PUSH1 0x20 DUP3 ADD SWAP1 POP SWAP3 SWAP2 POP POP JUMP JUMPDEST PUSH1 0x0 JUMPDEST DUP4 DUP2 LT ISZERO PUSH2 0x3842 JUMPI DUP1 DUP3 ADD MLOAD DUP2 DUP5 ADD MSTORE PUSH1 0x20 DUP2 ADD SWAP1 POP PUSH2 0x3827 JUMP JUMPDEST PUSH1 0x0 DUP5 DUP5 ADD MSTORE POP POP POP POP JUMP JUMPDEST PUSH1 0x0 PUSH1 0x1F NOT PUSH1 0x1F DUP4 ADD AND SWAP1 POP SWAP2 SWAP1 POP JUMP JUMPDEST PUSH1 0x0 PUSH2 0x386A DUP3 PUSH2 0x3808 JUMP JUMPDEST PUSH2 0x3874 DUP2 DUP6 PUSH2 0x3813 JUMP JUMPDEST SWAP4 POP PUSH2 0x3884 DUP2 DUP6 PUSH1 0x20 DUP7 ADD PUSH2 0x3824 JUMP JUMPDEST PUSH2 0x388D DUP2 PUSH2 0x384E JUMP JUMPDEST DUP5 ADD SWAP2 POP POP SWAP3 SWAP2 POP POP JUMP JUMPDEST PUSH1 0x0 PUSH1 0x20 DUP3 ADD SWAP1 POP DUP2 DUP2 SUB PUSH1 0x0 DUP4 ADD MSTORE PUSH2 0x38B2 DUP2 DUP5 PUSH2 0x385F JUMP JUMPDEST SWAP1 POP SWAP3 SWAP2 POP POP JUMP JUMPDEST PUSH2 0x38C3 DUP2 PUSH2 0x3705 JUMP JUMPDEST DUP2 EQ PUSH2 0x38CE JUMPI PUSH1 0x0 DUP1 REVERT JUMPDEST POP JUMP JUMPDEST PUSH1 0x0 DUP2 CALLDATALOAD SWAP1 POP PUSH2 0x38E0 DUP2 PUSH2 0x38BA JUMP JUMPDEST SWAP3 SWAP2 POP POP JUMP JUMPDEST PUSH1 0x0 PUSH1 0x20 DUP3 DUP5 SUB SLT ISZERO PUSH2 0x38FC JUMPI PUSH2 0x38FB PUSH2 0x3743 JUMP JUMPDEST JUMPDEST PUSH1 0x0 PUSH2 0x390A DUP5 DUP3 DUP6 ADD PUSH2 0x38D1 JUMP JUMPDEST SWAP2 POP POP SWAP3 SWAP2 POP POP JUMP JUMPDEST PUSH1 0x0 PUSH20 0xFFFFFFFFFFFFFFFFFFFFFFFFFFFFFFFFFFFFFFFF DUP3 AND SWAP1 POP SWAP2 SWAP1 POP JUMP JUMPDEST PUSH1 0x0 PUSH2 0x393E DUP3 PUSH2 0x3913 JUMP JUMPDEST SWAP1 POP SWAP2 SWAP1 POP JUMP JUMPDEST PUSH2 0x394E DUP2 PUSH2 0x3933 JUMP JUMPDEST DUP2 EQ PUSH2 0x3959 JUMPI PUSH1 0x0 DUP1 REVERT JUMPDEST POP JUMP JUMPDEST PUSH1 0x0 DUP2 CALLDATALOAD SWAP1 POP PUSH2 0x396B DUP2 PUSH2 0x3945 JUMP JUMPDEST SWAP3 SWAP2 POP POP JUMP JUMPDEST PUSH1 0x0 DUP1 PUSH1 0x40 DUP4 DUP6 SUB SLT ISZERO PUSH2 0x3988 JUMPI PUSH2 0x3987 PUSH2 0x3743 JUMP JUMPDEST JUMPDEST PUSH1 0x0 PUSH2 0x3996 DUP6 DUP3 DUP7 ADD PUSH2 0x395C JUMP JUMPDEST SWAP3 POP POP PUSH1 0x20 PUSH2 0x39A7 DUP6 DUP3 DUP7 ADD PUSH2 0x38D1 JUMP JUMPDEST SWAP2 POP POP SWAP3 POP SWAP3 SWAP1 POP JUMP JUMPDEST PUSH1 0x0 DUP1 PUSH1 0x0 PUSH1 0x60 DUP5 DUP7 SUB SLT ISZERO PUSH2 0x39CA JUMPI PUSH2 0x39C9 PUSH2 0x3743 JUMP JUMPDEST JUMPDEST PUSH1 0x0 PUSH2 0x39D8 DUP7 DUP3 DUP8 ADD PUSH2 0x395C JUMP JUMPDEST SWAP4 POP POP PUSH1 0x20 PUSH2 0x39E9 DUP7 DUP3 DUP8 ADD PUSH2 0x395C JUMP JUMPDEST SWAP3 POP POP PUSH1 0x40 PUSH2 0x39FA DUP7 DUP3 DUP8 ADD PUSH2 0x38D1 JUMP JUMPDEST SWAP2 POP POP SWAP3 POP SWAP3 POP SWAP3 JUMP JUMPDEST PUSH1 0x0 DUP2 SWAP1 POP SWAP2 SWAP1 POP JUMP JUMPDEST PUSH2 0x3A17 DUP2 PUSH2 0x3A04 JUMP JUMPDEST DUP2 EQ PUSH2 0x3A22 JUMPI PUSH1 0x0 DUP1 REVERT JUMPDEST POP JUMP JUMPDEST PUSH1 0x0 DUP2 CALLDATALOAD SWAP1 POP PUSH2 0x3A34 DUP2 PUSH2 0x3A0E JUMP JUMPDEST SWAP3 SWAP2 POP POP JUMP JUMPDEST PUSH1 0x0 PUSH1 0x20 DUP3 DUP5 SUB SLT ISZERO PUSH2 0x3A50 JUMPI PUSH2 0x3A4F PUSH2 0x3743 JUMP JUMPDEST JUMPDEST PUSH1 0x0 PUSH2 0x3A5E DUP5 DUP3 DUP6 ADD PUSH2 0x3A25 JUMP JUMPDEST SWAP2 POP POP SWAP3 SWAP2 POP POP JUMP JUMPDEST PUSH2 0x3A70 DUP2 PUSH2 0x3A04 JUMP JUMPDEST DUP3 MSTORE POP POP JUMP JUMPDEST PUSH1 0x0 PUSH1 0x20 DUP3 ADD SWAP1 POP PUSH2 0x3A8B PUSH1 0x0 DUP4 ADD DUP5 PUSH2 0x3A67 JUMP JUMPDEST SWAP3 SWAP2 POP POP JUMP JUMPDEST PUSH1 0x0 DUP1 PUSH1 0x40 DUP4 DUP6 SUB SLT ISZERO PUSH2 0x3AA8 JUMPI PUSH2 0x3AA7 PUSH2 0x3743 JUMP JUMPDEST JUMPDEST PUSH1 0x0 PUSH2 0x3AB6 DUP6 DUP3 DUP7 ADD PUSH2 0x3A25 JUMP JUMPDEST SWAP3 POP POP PUSH1 0x20 PUSH2 0x3AC7 DUP6 DUP3 DUP7 ADD PUSH2 0x395C JUMP JUMPDEST SWAP2 POP POP SWAP3 POP SWAP3 SWAP1 POP JUMP JUMPDEST PUSH1 0x0 PUSH1 0xFF DUP3 AND SWAP1 POP SWAP2 SWAP1 POP JUMP JUMPDEST PUSH2 0x3AE7 DUP2 PUSH2 0x3AD1 JUMP JUMPDEST DUP3 MSTORE POP POP JUMP JUMPDEST PUSH1 0x0 PUSH1 0x20 DUP3 ADD SWAP1 POP PUSH2 0x3B02 PUSH1 0x0 DUP4 ADD DUP5 PUSH2 0x3ADE JUMP JUMPDEST SWAP3 SWAP2 POP POP JUMP JUMPDEST PUSH2 0x3B11 DUP2 PUSH2 0x37D2 JUMP JUMPDEST DUP2 EQ PUSH2 0x3B1C JUMPI PUSH1 0x0 DUP1 REVERT JUMPDEST POP JUMP JUMPDEST PUSH1 0x0 DUP2 CALLDATALOAD SWAP1 POP PUSH2 0x3B2E DUP2 PUSH2 0x3B08 JUMP JUMPDEST SWAP3 SWAP2 POP POP JUMP JUMPDEST PUSH1 0x0 PUSH1 0x20 DUP3 DUP5 SUB SLT ISZERO PUSH2 0x3B4A JUMPI PUSH2 0x3B49 PUSH2 0x3743 JUMP JUMPDEST JUMPDEST PUSH1 0x0 PUSH2 0x3B58 DUP5 DUP3 DUP6 ADD PUSH2 0x3B1F JUMP JUMPDEST SWAP2 POP POP SWAP3 SWAP2 POP POP JUMP JUMPDEST PUSH1 0x0 DUP2 SWAP1 POP SWAP2 SWAP1 POP JUMP JUMPDEST PUSH1 0x0 PUSH2 0x3B86 PUSH2 0x3B81 PUSH2 0x3B7C DUP5 PUSH2 0x3913 JUMP JUMPDEST PUSH2 0x3B61 JUMP JUMPDEST PUSH2 0x3913 JUMP JUMPDEST SWAP1 POP SWAP2 SWAP1 POP JUMP JUMPDEST PUSH1 0x0 PUSH2 0x3B98 DUP3 PUSH2 0x3B6B JUMP JUMPDEST SWAP1 POP SWAP2 SWAP1 POP JUMP JUMPDEST PUSH1 0x0 PUSH2 0x3BAA DUP3 PUSH2 0x3B8D JUMP JUMPDEST SWAP1 POP SWAP2 SWAP1 POP JUMP JUMPDEST PUSH2 0x3BBA DUP2 PUSH2 0x3B9F JUMP JUMPDEST DUP3 MSTORE POP POP JUMP JUMPDEST PUSH1 0x0 PUSH1 0x20 DUP3 ADD SWAP1 POP PUSH2 0x3BD5 PUSH1 0x0 DUP4 ADD DUP5 PUSH2 0x3BB1 JUMP JUMPDEST SWAP3 SWAP2 POP POP JUMP JUMPDEST PUSH1 0x0 PUSH1 0x20 DUP3 DUP5 SUB SLT ISZERO PUSH2 0x3BF1 JUMPI PUSH2 0x3BF0 PUSH2 0x3743 JUMP JUMPDEST JUMPDEST PUSH1 0x0 PUSH2 0x3BFF DUP5 DUP3 DUP6 ADD PUSH2 0x395C JUMP JUMPDEST SWAP2 POP POP SWAP3 SWAP2 POP POP JUMP JUMPDEST PUSH1 0x0 DUP1 REVERT JUMPDEST PUSH1 0x0 DUP1 REVERT JUMPDEST PUSH32 0x4E487B7100000000000000000000000000000000000000000000000000000000 PUSH1 0x0 MSTORE PUSH1 0x41 PUSH1 0x4 MSTORE PUSH1 0x24 PUSH1 0x0 REVERT JUMPDEST PUSH2 0x3C4A DUP3 PUSH2 0x384E JUMP JUMPDEST DUP2 ADD DUP2 DUP2 LT PUSH8 0xFFFFFFFFFFFFFFFF DUP3 GT OR ISZERO PUSH2 0x3C69 JUMPI PUSH2 0x3C68 PUSH2 0x3C12 JUMP JUMPDEST JUMPDEST DUP1 PUSH1 0x40 MSTORE POP POP POP JUMP JUMPDEST PUSH1 0x0 PUSH2 0x3C7C PUSH2 0x3739 JUMP JUMPDEST SWAP1 POP PUSH2 0x3C88 DUP3 DUP3 PUSH2 0x3C41 JUMP JUMPDEST SWAP2 SWAP1 POP JUMP JUMPDEST PUSH1 0x0 PUSH8 0xFFFFFFFFFFFFFFFF DUP3 GT ISZERO PUSH2 0x3CA8 JUMPI PUSH2 0x3CA7 PUSH2 0x3C12 JUMP JUMPDEST JUMPDEST PUSH2 0x3CB1 DUP3 PUSH2 0x384E JUMP JUMPDEST SWAP1 POP PUSH1 0x20 DUP2 ADD SWAP1 POP SWAP2 SWAP1 POP JUMP JUMPDEST DUP3 DUP2 DUP4 CALLDATACOPY PUSH1 0x0 DUP4 DUP4 ADD MSTORE POP POP POP JUMP JUMPDEST PUSH1 0x0 PUSH2 0x3CE0 PUSH2 0x3CDB DUP5 PUSH2 0x3C8D JUMP JUMPDEST PUSH2 0x3C72 JUMP JUMPDEST SWAP1 POP DUP3 DUP2 MSTORE PUSH1 0x20 DUP2 ADD DUP5 DUP5 DUP5 ADD GT ISZERO PUSH2 0x3CFC JUMPI PUSH2 0x3CFB PUSH2 0x3C0D JUMP JUMPDEST JUMPDEST PUSH2 0x3D07 DUP5 DUP3 DUP6 PUSH2 0x3CBE JUMP JUMPDEST POP SWAP4 SWAP3 POP POP POP JUMP JUMPDEST PUSH1 0x0 DUP3 PUSH1 0x1F DUP4 ADD SLT PUSH2 0x3D24 JUMPI PUSH2 0x3D23 PUSH2 0x3C08 JUMP JUMPDEST JUMPDEST DUP2 CALLDATALOAD PUSH2 0x3D34 DUP5 DUP3 PUSH1 0x20 DUP7 ADD PUSH2 0x3CCD JUMP JUMPDEST SWAP2 POP POP SWAP3 SWAP2 POP POP JUMP JUMPDEST PUSH2 0x3D46 DUP2 PUSH2 0x3AD1 JUMP JUMPDEST DUP2 EQ PUSH2 0x3D51 JUMPI PUSH1 0x0 DUP1 REVERT JUMPDEST POP JUMP JUMPDEST PUSH1 0x0 DUP2 CALLDATALOAD SWAP1 POP PUSH2 0x3D63 DUP2 PUSH2 0x3D3D JUMP JUMPDEST SWAP3 SWAP2 POP POP JUMP JUMPDEST PUSH1 0x0 DUP1 PUSH1 0x0 DUP1 PUSH1 0x80 DUP6 DUP8 SUB SLT ISZERO PUSH2 0x3D83 JUMPI PUSH2 0x3D82 PUSH2 0x3743 JUMP JUMPDEST JUMPDEST PUSH1 0x0 PUSH2 0x3D91 DUP8 DUP3 DUP9 ADD PUSH2 0x395C JUMP JUMPDEST SWAP5 POP POP PUSH1 0x20 DUP6 ADD CALLDATALOAD PUSH8 0xFFFFFFFFFFFFFFFF DUP2 GT ISZERO PUSH2 0x3DB2 JUMPI PUSH2 0x3DB1 PUSH2 0x3748 JUMP JUMPDEST JUMPDEST PUSH2 0x3DBE DUP8 DUP3 DUP9 ADD PUSH2 0x3D0F JUMP JUMPDEST SWAP4 POP POP PUSH1 0x40 DUP6 ADD CALLDATALOAD PUSH8 0xFFFFFFFFFFFFFFFF DUP2 GT ISZERO PUSH2 0x3DDF JUMPI PUSH2 0x3DDE PUSH2 0x3748 JUMP JUMPDEST JUMPDEST PUSH2 0x3DEB DUP8 DUP3 DUP9 ADD PUSH2 0x3D0F JUMP JUMPDEST SWAP3 POP POP PUSH1 0x60 PUSH2 0x3DFC DUP8 DUP3 DUP9 ADD PUSH2 0x3D54 JUMP JUMPDEST SWAP2 POP POP SWAP3 SWAP6 SWAP2 SWAP5 POP SWAP3 POP JUMP JUMPDEST PUSH2 0x3E11 DUP2 PUSH2 0x3933 JUMP JUMPDEST DUP3 MSTORE POP POP JUMP JUMPDEST PUSH1 0x0 PUSH1 0x20 DUP3 ADD SWAP1 POP PUSH2 0x3E2C PUSH1 0x0 DUP4 ADD DUP5 PUSH2 0x3E08 JUMP JUMPDEST SWAP3 SWAP2 POP POP JUMP JUMPDEST PUSH1 0x0 DUP1 PUSH1 0x40 DUP4 DUP6 SUB SLT ISZERO PUSH2 0x3E49 JUMPI PUSH2 0x3E48 PUSH2 0x3743 JUMP JUMPDEST JUMPDEST PUSH1 0x0 PUSH2 0x3E57 DUP6 DUP3 DUP7 ADD PUSH2 0x38D1 JUMP JUMPDEST SWAP3 POP POP PUSH1 0x20 PUSH2 0x3E68 DUP6 DUP3 DUP7 ADD PUSH2 0x395C JUMP JUMPDEST SWAP2 POP POP SWAP3 POP SWAP3 SWAP1 POP JUMP JUMPDEST PUSH1 0x0 DUP1 PUSH1 0x0 DUP1 PUSH1 0x0 PUSH1 0xA0 DUP7 DUP9 SUB SLT ISZERO PUSH2 0x3E8E JUMPI PUSH2 0x3E8D PUSH2 0x3743 JUMP JUMPDEST JUMPDEST PUSH1 0x0 PUSH2 0x3E9C DUP9 DUP3 DUP10 ADD PUSH2 0x395C JUMP JUMPDEST SWAP6 POP POP PUSH1 0x20 PUSH2 0x3EAD DUP9 DUP3 DUP10 ADD PUSH2 0x395C JUMP JUMPDEST SWAP5 POP POP PUSH1 0x40 DUP7 ADD CALLDATALOAD PUSH8 0xFFFFFFFFFFFFFFFF DUP2 GT ISZERO PUSH2 0x3ECE JUMPI PUSH2 0x3ECD PUSH2 0x3748 JUMP JUMPDEST JUMPDEST PUSH2 0x3EDA DUP9 DUP3 DUP10 ADD PUSH2 0x3D0F JUMP JUMPDEST SWAP4 POP POP PUSH1 0x60 DUP7 ADD CALLDATALOAD PUSH8 0xFFFFFFFFFFFFFFFF DUP2 GT ISZERO PUSH2 0x3EFB JUMPI PUSH2 0x3EFA PUSH2 0x3748 JUMP JUMPDEST JUMPDEST PUSH2 0x3F07 DUP9 DUP3 DUP10 ADD PUSH2 0x3D0F JUMP JUMPDEST SWAP3 POP POP PUSH1 0x80 PUSH2 0x3F18 DUP9 DUP3 DUP10 ADD PUSH2 0x3D54 JUMP JUMPDEST SWAP2 POP POP SWAP3 SWAP6 POP SWAP3 SWAP6 SWAP1 SWAP4 POP JUMP JUMPDEST PUSH1 0x0 DUP1 PUSH1 0x0 PUSH1 0x60 DUP5 DUP7 SUB SLT ISZERO PUSH2 0x3F3E JUMPI PUSH2 0x3F3D PUSH2 0x3743 JUMP JUMPDEST JUMPDEST PUSH1 0x0 PUSH2 0x3F4C DUP7 DUP3 DUP8 ADD PUSH2 0x38D1 JUMP JUMPDEST SWAP4 POP POP PUSH1 0x20 PUSH2 0x3F5D DUP7 DUP3 DUP8 ADD PUSH2 0x395C JUMP JUMPDEST SWAP3 POP POP PUSH1 0x40 PUSH2 0x3F6E DUP7 DUP3 DUP8 ADD PUSH2 0x395C JUMP JUMPDEST SWAP2 POP POP SWAP3 POP SWAP3 POP SWAP3 JUMP JUMPDEST PUSH1 0x0 DUP1 PUSH1 0x0 DUP1 PUSH1 0x0 DUP1 PUSH1 0x0 PUSH1 0xE0 DUP9 DUP11 SUB SLT ISZERO PUSH2 0x3F97 JUMPI PUSH2 0x3F96 PUSH2 0x3743 JUMP JUMPDEST JUMPDEST PUSH1 0x0 PUSH2 0x3FA5 DUP11 DUP3 DUP12 ADD PUSH2 0x395C JUMP JUMPDEST SWAP8 POP POP PUSH1 0x20 PUSH2 0x3FB6 DUP11 DUP3 DUP12 ADD PUSH2 0x395C JUMP JUMPDEST SWAP7 POP POP PUSH1 0x40 PUSH2 0x3FC7 DUP11 DUP3 DUP12 ADD PUSH2 0x38D1 JUMP JUMPDEST SWAP6 POP POP PUSH1 0x60 PUSH2 0x3FD8 DUP11 DUP3 DUP12 ADD PUSH2 0x38D1 JUMP JUMPDEST SWAP5 POP POP PUSH1 0x80 PUSH2 0x3FE9 DUP11 DUP3 DUP12 ADD PUSH2 0x3D54 JUMP JUMPDEST SWAP4 POP POP PUSH1 0xA0 PUSH2 0x3FFA DUP11 DUP3 DUP12 ADD PUSH2 0x3A25 JUMP JUMPDEST SWAP3 POP POP PUSH1 0xC0 PUSH2 0x400B DUP11 DUP3 DUP12 ADD PUSH2 0x3A25 JUMP JUMPDEST SWAP2 POP POP SWAP3 SWAP6 SWAP9 SWAP2 SWAP5 SWAP8 POP SWAP3 SWAP6 POP JUMP JUMPDEST PUSH1 0x0 DUP1 PUSH1 0x40 DUP4 DUP6 SUB SLT ISZERO PUSH2 0x4031 JUMPI PUSH2 0x4030 PUSH2 0x3743 JUMP JUMPDEST JUMPDEST PUSH1 0x0 PUSH2 0x403F DUP6 DUP3 DUP7 ADD PUSH2 0x395C JUMP JUMPDEST SWAP3 POP POP PUSH1 0x20 PUSH2 0x4050 DUP6 DUP3 DUP7 ADD PUSH2 0x395C JUMP JUMPDEST SWAP2 POP POP SWAP3 POP SWAP3 SWAP1 POP JUMP JUMPDEST PUSH1 0x0 DUP2 MLOAD SWAP1 POP PUSH2 0x4069 DUP2 PUSH2 0x38BA JUMP JUMPDEST SWAP3 SWAP2 POP POP JUMP JUMPDEST PUSH1 0x0 PUSH1 0x20 DUP3 DUP5 SUB SLT ISZERO PUSH2 0x4085 JUMPI PUSH2 0x4084 PUSH2 0x3743 JUMP JUMPDEST JUMPDEST PUSH1 0x0 PUSH2 0x4093 DUP5 DUP3 DUP6 ADD PUSH2 0x405A JUMP JUMPDEST SWAP2 POP POP SWAP3 SWAP2 POP POP JUMP JUMPDEST PUSH32 0x4E487B7100000000000000000000000000000000000000000000000000000000 PUSH1 0x0 MSTORE PUSH1 0x22 PUSH1 0x4 MSTORE PUSH1 0x24 PUSH1 0x0 REVERT JUMPDEST PUSH1 0x0 PUSH1 0x2 DUP3 DIV SWAP1 POP PUSH1 0x1 DUP3 AND DUP1 PUSH2 0x40E3 JUMPI PUSH1 0x7F DUP3 AND SWAP2 POP JUMPDEST PUSH1 0x20 DUP3 LT DUP2 SUB PUSH2 0x40F6 JUMPI PUSH2 0x40F5 PUSH2 0x409C JUMP JUMPDEST JUMPDEST POP SWAP2 SWAP1 POP JUMP JUMPDEST PUSH32 0x4E487B7100000000000000000000000000000000000000000000000000000000 PUSH1 0x0 MSTORE PUSH1 0x11 PUSH1 0x4 MSTORE PUSH1 0x24 PUSH1 0x0 REVERT JUMPDEST PUSH1 0x0 PUSH2 0x4136 DUP3 PUSH2 0x3705 JUMP JUMPDEST SWAP2 POP PUSH2 0x4141 DUP4 PUSH2 0x3705 JUMP JUMPDEST SWAP3 POP DUP3 DUP3 SUB SWAP1 POP DUP2 DUP2 GT ISZERO PUSH2 0x4159 JUMPI PUSH2 0x4158 PUSH2 0x40FC JUMP JUMPDEST JUMPDEST SWAP3 SWAP2 POP POP JUMP JUMPDEST PUSH32 0x4F776E61626C653A2063616C6C6572206973206E6F7420746865206D616E6167 PUSH1 0x0 DUP3 ADD MSTORE PUSH32 0x6572000000000000000000000000000000000000000000000000000000000000 PUSH1 0x20 DUP3 ADD MSTORE POP JUMP JUMPDEST PUSH1 0x0 PUSH2 0x41BB PUSH1 0x22 DUP4 PUSH2 0x3813 JUMP JUMPDEST SWAP2 POP PUSH2 0x41C6 DUP3 PUSH2 0x415F JUMP JUMPDEST PUSH1 0x40 DUP3 ADD SWAP1 POP SWAP2 SWAP1 POP JUMP JUMPDEST PUSH1 0x0 PUSH1 0x20 DUP3 ADD SWAP1 POP DUP2 DUP2 SUB PUSH1 0x0 DUP4 ADD MSTORE PUSH2 0x41EA DUP2 PUSH2 0x41AE JUMP JUMPDEST SWAP1 POP SWAP2 SWAP1 POP JUMP JUMPDEST PUSH1 0x0 DUP2 MLOAD SWAP1 POP PUSH2 0x4200 DUP2 PUSH2 0x3D3D JUMP JUMPDEST SWAP3 SWAP2 POP POP JUMP JUMPDEST PUSH1 0x0 PUSH1 0x20 DUP3 DUP5 SUB SLT ISZERO PUSH2 0x421C JUMPI PUSH2 0x421B PUSH2 0x3743 JUMP JUMPDEST JUMPDEST PUSH1 0x0 PUSH2 0x422A DUP5 DUP3 DUP6 ADD PUSH2 0x41F1 JUMP JUMPDEST SWAP2 POP POP SWAP3 SWAP2 POP POP JUMP JUMPDEST PUSH32 0x57524F4E475F444543494D414C53000000000000000000000000000000000000 PUSH1 0x0 DUP3 ADD MSTORE POP JUMP JUMPDEST PUSH1 0x0 PUSH2 0x4269 PUSH1 0xE DUP4 PUSH2 0x3813 JUMP JUMPDEST SWAP2 POP PUSH2 0x4274 DUP3 PUSH2 0x4233 JUMP JUMPDEST PUSH1 0x20 DUP3 ADD SWAP1 POP SWAP2 SWAP1 POP JUMP JUMPDEST PUSH1 0x0 PUSH1 0x20 DUP3 ADD SWAP1 POP DUP2 DUP2 SUB PUSH1 0x0 DUP4 ADD MSTORE PUSH2 0x4298 DUP2 PUSH2 0x425C JUMP JUMPDEST SWAP1 POP SWAP2 SWAP1 POP JUMP JUMPDEST PUSH32 0x416363657373436F6E74726F6C3A2063616E206F6E6C792072656E6F756E6365 PUSH1 0x0 DUP3 ADD MSTORE PUSH32 0x20726F6C657320666F722073656C660000000000000000000000000000000000 PUSH1 0x20 DUP3 ADD MSTORE POP JUMP JUMPDEST PUSH1 0x0 PUSH2 0x42FB PUSH1 0x2F DUP4 PUSH2 0x3813 JUMP JUMPDEST SWAP2 POP PUSH2 0x4306 DUP3 PUSH2 0x429F JUMP JUMPDEST PUSH1 0x40 DUP3 ADD SWAP1 POP SWAP2 SWAP1 POP JUMP JUMPDEST PUSH1 0x0 PUSH1 0x20 DUP3 ADD SWAP1 POP DUP2 DUP2 SUB PUSH1 0x0 DUP4 ADD MSTORE PUSH2 0x432A DUP2 PUSH2 0x42EE JUMP JUMPDEST SWAP1 POP SWAP2 SWAP1 POP JUMP JUMPDEST PUSH32 0x5A45524F5F534841524553000000000000000000000000000000000000000000 PUSH1 0x0 DUP3 ADD MSTORE POP JUMP JUMPDEST PUSH1 0x0 PUSH2 0x4367 PUSH1 0xB DUP4 PUSH2 0x3813 JUMP JUMPDEST SWAP2 POP PUSH2 0x4372 DUP3 PUSH2 0x4331 JUMP JUMPDEST PUSH1 0x20 DUP3 ADD SWAP1 POP SWAP2 SWAP1 POP JUMP JUMPDEST PUSH1 0x0 PUSH1 0x20 DUP3 ADD SWAP1 POP DUP2 DUP2 SUB PUSH1 0x0 DUP4 ADD MSTORE PUSH2 0x4396 DUP2 PUSH2 0x435A JUMP JUMPDEST SWAP1 POP SWAP2 SWAP1 POP JUMP JUMPDEST PUSH1 0x0 PUSH1 0x40 DUP3 ADD SWAP1 POP PUSH2 0x43B2 PUSH1 0x0 DUP4 ADD DUP6 PUSH2 0x370F JUMP JUMPDEST PUSH2 0x43BF PUSH1 0x20 DUP4 ADD DUP5 PUSH2 0x370F JUMP JUMPDEST SWAP4 SWAP3 POP POP POP JUMP JUMPDEST PUSH32 0x4645455F544F4F5F484947480000000000000000000000000000000000000000 PUSH1 0x0 DUP3 ADD MSTORE POP JUMP JUMPDEST PUSH1 0x0 PUSH2 0x43FC PUSH1 0xC DUP4 PUSH2 0x3813 JUMP JUMPDEST SWAP2 POP PUSH2 0x4407 DUP3 PUSH2 0x43C6 JUMP JUMPDEST PUSH1 0x20 DUP3 ADD SWAP1 POP SWAP2 SWAP1 POP JUMP JUMPDEST PUSH1 0x0 PUSH1 0x20 DUP3 ADD SWAP1 POP DUP2 DUP2 SUB PUSH1 0x0 DUP4 ADD MSTORE PUSH2 0x442B DUP2 PUSH2 0x43EF JUMP JUMPDEST SWAP1 POP SWAP2 SWAP1 POP JUMP JUMPDEST PUSH1 0x0 DUP2 PUSH1 0x1 SHR SWAP1 POP SWAP2 SWAP1 POP JUMP JUMPDEST PUSH1 0x0 DUP1 DUP3 SWAP2 POP DUP4 SWAP1 POP JUMPDEST PUSH1 0x1 DUP6 GT ISZERO PUSH2 0x4489 JUMPI DUP1 DUP7 DIV DUP2 GT ISZERO PUSH2 0x4465 JUMPI PUSH2 0x4464 PUSH2 0x40FC JUMP JUMPDEST JUMPDEST PUSH1 0x1 DUP6 AND ISZERO PUSH2 0x4474 JUMPI DUP1 DUP3 MUL SWAP2 POP JUMPDEST DUP1 DUP2 MUL SWAP1 POP PUSH2 0x4482 DUP6 PUSH2 0x4432 JUMP JUMPDEST SWAP5 POP PUSH2 0x4449 JUMP JUMPDEST SWAP5 POP SWAP5 SWAP3 POP POP POP JUMP JUMPDEST PUSH1 0x0 DUP3 PUSH2 0x44A2 JUMPI PUSH1 0x1 SWAP1 POP PUSH2 0x455E JUMP JUMPDEST DUP2 PUSH2 0x44B0 JUMPI PUSH1 0x0 SWAP1 POP PUSH2 0x455E JUMP JUMPDEST DUP2 PUSH1 0x1 DUP2 EQ PUSH2 0x44C6 JUMPI PUSH1 0x2 DUP2 EQ PUSH2 0x44D0 JUMPI PUSH2 0x44FF JUMP JUMPDEST PUSH1 0x1 SWAP2 POP POP PUSH2 0x455E JUMP JUMPDEST PUSH1 0xFF DUP5 GT ISZERO PUSH2 0x44E2 JUMPI PUSH2 0x44E1 PUSH2 0x40FC JUMP JUMPDEST JUMPDEST DUP4 PUSH1 0x2 EXP SWAP2 POP DUP5 DUP3 GT ISZERO PUSH2 0x44F9 JUMPI PUSH2 0x44F8 PUSH2 0x40FC JUMP JUMPDEST JUMPDEST POP PUSH2 0x455E JUMP JUMPDEST POP PUSH1 0x20 DUP4 LT PUSH2 0x133 DUP4 LT AND PUSH1 0x4E DUP5 LT PUSH1 0xB DUP5 LT AND OR ISZERO PUSH2 0x4534 JUMPI DUP3 DUP3 EXP SWAP1 POP DUP4 DUP2 GT ISZERO PUSH2 0x452F JUMPI PUSH2 0x452E PUSH2 0x40FC JUMP JUMPDEST JUMPDEST PUSH2 0x455E JUMP JUMPDEST PUSH2 0x4541 DUP5 DUP5 DUP5 PUSH1 0x1 PUSH2 0x443F JUMP JUMPDEST SWAP3 POP SWAP1 POP DUP2 DUP5 DIV DUP2 GT ISZERO PUSH2 0x4558 JUMPI PUSH2 0x4557 PUSH2 0x40FC JUMP JUMPDEST JUMPDEST DUP2 DUP2 MUL SWAP1 POP JUMPDEST SWAP4 SWAP3 POP POP POP JUMP JUMPDEST PUSH1 0x0 PUSH2 0x4570 DUP3 PUSH2 0x3705 JUMP JUMPDEST SWAP2 POP PUSH2 0x457B DUP4 PUSH2 0x3AD1 JUMP JUMPDEST SWAP3 POP PUSH2 0x45A8 PUSH32 0xFFFFFFFFFFFFFFFFFFFFFFFFFFFFFFFFFFFFFFFFFFFFFFFFFFFFFFFFFFFFFFFF DUP5 DUP5 PUSH2 0x4492 JUMP JUMPDEST SWAP1 POP SWAP3 SWAP2 POP POP JUMP JUMPDEST PUSH1 0x0 PUSH1 0x40 DUP3 ADD SWAP1 POP PUSH2 0x45C5 PUSH1 0x0 DUP4 ADD DUP6 PUSH2 0x3E08 JUMP JUMPDEST PUSH2 0x45D2 PUSH1 0x20 DUP4 ADD DUP5 PUSH2 0x370F JUMP JUMPDEST SWAP4 SWAP3 POP POP POP JUMP JUMPDEST PUSH1 0x0 DUP2 MLOAD SWAP1 POP PUSH2 0x45E8 DUP2 PUSH2 0x3B08 JUMP JUMPDEST SWAP3 SWAP2 POP POP JUMP JUMPDEST PUSH1 0x0 PUSH1 0x20 DUP3 DUP5 SUB SLT ISZERO PUSH2 0x4604 JUMPI PUSH2 0x4603 PUSH2 0x3743 JUMP JUMPDEST JUMPDEST PUSH1 0x0 PUSH2 0x4612 DUP5 DUP3 DUP6 ADD PUSH2 0x45D9 JUMP JUMPDEST SWAP2 POP POP SWAP3 SWAP2 POP POP JUMP JUMPDEST PUSH32 0x5A45524F5F415353455453000000000000000000000000000000000000000000 PUSH1 0x0 DUP3 ADD MSTORE POP JUMP JUMPDEST PUSH1 0x0 PUSH2 0x4651 PUSH1 0xB DUP4 PUSH2 0x3813 JUMP JUMPDEST SWAP2 POP PUSH2 0x465C DUP3 PUSH2 0x461B JUMP JUMPDEST PUSH1 0x20 DUP3 ADD SWAP1 POP SWAP2 SWAP1 POP JUMP JUMPDEST PUSH1 0x0 PUSH1 0x20 DUP3 ADD SWAP1 POP DUP2 DUP2 SUB PUSH1 0x0 DUP4 ADD MSTORE PUSH2 0x4680 DUP2 PUSH2 0x4644 JUMP JUMPDEST SWAP1 POP SWAP2 SWAP1 POP JUMP JUMPDEST PUSH32 0x5441524745545F544F4F5F484947480000000000000000000000000000000000 PUSH1 0x0 DUP3 ADD MSTORE POP JUMP JUMPDEST PUSH1 0x0 PUSH2 0x46BD PUSH1 0xF DUP4 PUSH2 0x3813 JUMP JUMPDEST SWAP2 POP PUSH2 0x46C8 DUP3 PUSH2 0x4687 JUMP JUMPDEST PUSH1 0x20 DUP3 ADD SWAP1 POP SWAP2 SWAP1 POP JUMP JUMPDEST PUSH1 0x0 PUSH1 0x20 DUP3 ADD SWAP1 POP DUP2 DUP2 SUB PUSH1 0x0 DUP4 ADD MSTORE PUSH2 0x46EC DUP2 PUSH2 0x46B0 JUMP JUMPDEST SWAP1 POP SWAP2 SWAP1 POP JUMP JUMPDEST PUSH32 0x5045524D49545F444541444C494E455F45585049524544000000000000000000 PUSH1 0x0 DUP3 ADD MSTORE POP JUMP JUMPDEST PUSH1 0x0 PUSH2 0x4729 PUSH1 0x17 DUP4 PUSH2 0x3813 JUMP JUMPDEST SWAP2 POP PUSH2 0x4734 DUP3 PUSH2 0x46F3 JUMP JUMPDEST PUSH1 0x20 DUP3 ADD SWAP1 POP SWAP2 SWAP1 POP JUMP JUMPDEST PUSH1 0x0 PUSH1 0x20 DUP3 ADD SWAP1 POP DUP2 DUP2 SUB PUSH1 0x0 DUP4 ADD MSTORE PUSH2 0x4758 DUP2 PUSH2 0x471C JUMP JUMPDEST SWAP1 POP SWAP2 SWAP1 POP JUMP JUMPDEST PUSH1 0x0 PUSH1 0xC0 DUP3 ADD SWAP1 POP PUSH2 0x4774 PUSH1 0x0 DUP4 ADD DUP10 PUSH2 0x3A67 JUMP JUMPDEST PUSH2 0x4781 PUSH1 0x20 DUP4 ADD DUP9 PUSH2 0x3E08 JUMP JUMPDEST PUSH2 0x478E PUSH1 0x40 DUP4 ADD DUP8 PUSH2 0x3E08 JUMP JUMPDEST PUSH2 0x479B PUSH1 0x60 DUP4 ADD DUP7 PUSH2 0x370F JUMP JUMPDEST PUSH2 0x47A8 PUSH1 0x80 DUP4 ADD DUP6 PUSH2 0x370F JUMP JUMPDEST PUSH2 0x47B5 PUSH1 0xA0 DUP4 ADD DUP5 PUSH2 0x370F JUMP JUMPDEST SWAP8 SWAP7 POP POP POP POP POP POP POP JUMP JUMPDEST PUSH1 0x0 DUP2 SWAP1 POP SWAP3 SWAP2 POP POP JUMP JUMPDEST PUSH32 0x1901000000000000000000000000000000000000000000000000000000000000 PUSH1 0x0 DUP3 ADD MSTORE POP JUMP JUMPDEST PUSH1 0x0 PUSH2 0x4801 PUSH1 0x2 DUP4 PUSH2 0x47C0 JUMP JUMPDEST SWAP2 POP PUSH2 0x480C DUP3 PUSH2 0x47CB JUMP JUMPDEST PUSH1 0x2 DUP3 ADD SWAP1 POP SWAP2 SWAP1 POP JUMP JUMPDEST PUSH1 0x0 DUP2 SWAP1 POP SWAP2 SWAP1 POP JUMP JUMPDEST PUSH2 0x4832 PUSH2 0x482D DUP3 PUSH2 0x3A04 JUMP JUMPDEST PUSH2 0x4817 JUMP JUMPDEST DUP3 MSTORE POP POP JUMP JUMPDEST PUSH1 0x0 PUSH2 0x4843 DUP3 PUSH2 0x47F4 JUMP JUMPDEST SWAP2 POP PUSH2 0x484F DUP3 DUP6 PUSH2 0x4821 JUMP JUMPDEST PUSH1 0x20 DUP3 ADD SWAP2 POP PUSH2 0x485F DUP3 DUP5 PUSH2 0x4821 JUMP JUMPDEST PUSH1 0x20 DUP3 ADD SWAP2 POP DUP2 SWAP1 POP SWAP4 SWAP3 POP POP POP JUMP JUMPDEST PUSH1 0x0 PUSH1 0x80 DUP3 ADD SWAP1 POP PUSH2 0x4884 PUSH1 0x0 DUP4 ADD DUP8 PUSH2 0x3A67 JUMP JUMPDEST PUSH2 0x4891 PUSH1 0x20 DUP4 ADD DUP7 PUSH2 0x3ADE JUMP JUMPDEST PUSH2 0x489E PUSH1 0x40 DUP4 ADD DUP6 PUSH2 0x3A67 JUMP JUMPDEST PUSH2 0x48AB PUSH1 0x60 DUP4 ADD DUP5 PUSH2 0x3A67 JUMP JUMPDEST SWAP6 SWAP5 POP POP POP POP POP JUMP JUMPDEST PUSH32 0x494E56414C49445F5349474E4552000000000000000000000000000000000000 PUSH1 0x0 DUP3 ADD MSTORE POP JUMP JUMPDEST PUSH1 0x0 PUSH2 0x48EA PUSH1 0xE DUP4 PUSH2 0x3813 JUMP JUMPDEST SWAP2 POP PUSH2 0x48F5 DUP3 PUSH2 0x48B4 JUMP JUMPDEST PUSH1 0x20 DUP3 ADD SWAP1 POP SWAP2 SWAP1 POP JUMP JUMPDEST PUSH1 0x0 PUSH1 0x20 DUP3 ADD SWAP1 POP DUP2 DUP2 SUB PUSH1 0x0 DUP4 ADD MSTORE PUSH2 0x4919 DUP2 PUSH2 0x48DD JUMP JUMPDEST SWAP1 POP SWAP2 SWAP1 POP JUMP JUMPDEST PUSH32 0x4F776E61626C653A206E6577206D616E6167657220697320746865207A65726F PUSH1 0x0 DUP3 ADD MSTORE PUSH32 0x2061646472657373000000000000000000000000000000000000000000000000 PUSH1 0x20 DUP3 ADD MSTORE POP JUMP JUMPDEST PUSH1 0x0 PUSH2 0x497C PUSH1 0x28 DUP4 PUSH2 0x3813 JUMP JUMPDEST SWAP2 POP PUSH2 0x4987 DUP3 PUSH2 0x4920 JUMP JUMPDEST PUSH1 0x40 DUP3 ADD SWAP1 POP SWAP2 SWAP1 POP JUMP JUMPDEST PUSH1 0x0 PUSH1 0x20 DUP3 ADD SWAP1 POP DUP2 DUP2 SUB PUSH1 0x0 DUP4 ADD MSTORE PUSH2 0x49AB DUP2 PUSH2 0x496F JUMP JUMPDEST SWAP1 POP SWAP2 SWAP1 POP JUMP JUMPDEST PUSH1 0x0 DUP2 SWAP1 POP SWAP3 SWAP2 POP POP JUMP JUMPDEST PUSH1 0x0 DUP2 SWAP1 POP DUP2 PUSH1 0x0 MSTORE PUSH1 0x20 PUSH1 0x0 KECCAK256 SWAP1 POP SWAP2 SWAP1 POP JUMP JUMPDEST PUSH1 0x0 DUP2 SLOAD PUSH2 0x49DF DUP2 PUSH2 0x40CB JUMP JUMPDEST PUSH2 0x49E9 DUP2 DUP7 PUSH2 0x49B2 JUMP JUMPDEST SWAP5 POP PUSH1 0x1 DUP3 AND PUSH1 0x0 DUP2 EQ PUSH2 0x4A04 JUMPI PUSH1 0x1 DUP2 EQ PUSH2 0x4A19 JUMPI PUSH2 0x4A4C JUMP JUMPDEST PUSH1 0xFF NOT DUP4 AND DUP7 MSTORE DUP2 ISZERO ISZERO DUP3 MUL DUP7 ADD SWAP4 POP PUSH2 0x4A4C JUMP JUMPDEST PUSH2 0x4A22 DUP6 PUSH2 0x49BD JUMP JUMPDEST PUSH1 0x0 JUMPDEST DUP4 DUP2 LT ISZERO PUSH2 0x4A44 JUMPI DUP2 SLOAD DUP2 DUP10 ADD MSTORE PUSH1 0x1 DUP3 ADD SWAP2 POP PUSH1 0x20 DUP2 ADD SWAP1 POP PUSH2 0x4A25 JUMP JUMPDEST DUP4 DUP9 ADD SWAP6 POP POP POP JUMPDEST POP POP POP SWAP3 SWAP2 POP POP JUMP JUMPDEST PUSH1 0x0 PUSH2 0x4A61 DUP3 DUP5 PUSH2 0x49D2 JUMP JUMPDEST SWAP2 POP DUP2 SWAP1 POP SWAP3 SWAP2 POP POP JUMP JUMPDEST PUSH1 0x0 PUSH1 0xA0 DUP3 ADD SWAP1 POP PUSH2 0x4A81 PUSH1 0x0 DUP4 ADD DUP9 PUSH2 0x3A67 JUMP JUMPDEST PUSH2 0x4A8E PUSH1 0x20 DUP4 ADD DUP8 PUSH2 0x3A67 JUMP JUMPDEST PUSH2 0x4A9B PUSH1 0x40 DUP4 ADD DUP7 PUSH2 0x3A67 JUMP JUMPDEST PUSH2 0x4AA8 PUSH1 0x60 DUP4 ADD DUP6 PUSH2 0x370F JUMP JUMPDEST PUSH2 0x4AB5 PUSH1 0x80 DUP4 ADD DUP5 PUSH2 0x3E08 JUMP JUMPDEST SWAP7 SWAP6 POP POP POP POP POP POP JUMP JUMPDEST PUSH1 0x0 DUP2 SWAP1 POP DUP2 PUSH1 0x0 MSTORE PUSH1 0x20 PUSH1 0x0 KECCAK256 SWAP1 POP SWAP2 SWAP1 POP JUMP JUMPDEST PUSH1 0x0 PUSH1 0x20 PUSH1 0x1F DUP4 ADD DIV SWAP1 POP SWAP2 SWAP1 POP JUMP JUMPDEST PUSH1 0x0 DUP3 DUP3 SHL SWAP1 POP SWAP3 SWAP2 POP POP JUMP JUMPDEST PUSH1 0x0 PUSH1 0x8 DUP4 MUL PUSH2 0x4B21 PUSH32 0xFFFFFFFFFFFFFFFFFFFFFFFFFFFFFFFFFFFFFFFFFFFFFFFFFFFFFFFFFFFFFFFF DUP3 PUSH2 0x4AE4 JUMP JUMPDEST PUSH2 0x4B2B DUP7 DUP4 PUSH2 0x4AE4 JUMP JUMPDEST SWAP6 POP DUP1 NOT DUP5 AND SWAP4 POP DUP1 DUP7 AND DUP5 OR SWAP3 POP POP POP SWAP4 SWAP3 POP POP POP JUMP JUMPDEST PUSH1 0x0 PUSH2 0x4B5E PUSH2 0x4B59 PUSH2 0x4B54 DUP5 PUSH2 0x3705 JUMP JUMPDEST PUSH2 0x3B61 JUMP JUMPDEST PUSH2 0x3705 JUMP JUMPDEST SWAP1 POP SWAP2 SWAP1 POP JUMP JUMPDEST PUSH1 0x0 DUP2 SWAP1 POP SWAP2 SWAP1 POP JUMP JUMPDEST PUSH2 0x4B78 DUP4 PUSH2 0x4B43 JUMP JUMPDEST PUSH2 0x4B8C PUSH2 0x4B84 DUP3 PUSH2 0x4B65 JUMP JUMPDEST DUP5 DUP5 SLOAD PUSH2 0x4AF1 JUMP JUMPDEST DUP3 SSTORE POP POP POP POP JUMP JUMPDEST PUSH1 0x0 SWAP1 JUMP JUMPDEST PUSH2 0x4BA1 PUSH2 0x4B94 JUMP JUMPDEST PUSH2 0x4BAC DUP2 DUP5 DUP5 PUSH2 0x4B6F JUMP JUMPDEST POP POP POP JUMP JUMPDEST JUMPDEST DUP2 DUP2 LT ISZERO PUSH2 0x4BD0 JUMPI PUSH2 0x4BC5 PUSH1 0x0 DUP3 PUSH2 0x4B99 JUMP JUMPDEST PUSH1 0x1 DUP2 ADD SWAP1 POP PUSH2 0x4BB2 JUMP JUMPDEST POP POP JUMP JUMPDEST PUSH1 0x1F DUP3 GT ISZERO PUSH2 0x4C15 JUMPI PUSH2 0x4BE6 DUP2 PUSH2 0x4ABF JUMP JUMPDEST PUSH2 0x4BEF DUP5 PUSH2 0x4AD4 JUMP JUMPDEST DUP2 ADD PUSH1 0x20 DUP6 LT ISZERO PUSH2 0x4BFE JUMPI DUP2 SWAP1 POP JUMPDEST PUSH2 0x4C12 PUSH2 0x4C0A DUP6 PUSH2 0x4AD4 JUMP JUMPDEST DUP4 ADD DUP3 PUSH2 0x4BB1 JUMP JUMPDEST POP POP JUMPDEST POP POP POP JUMP JUMPDEST PUSH1 0x0 DUP3 DUP3 SHR SWAP1 POP SWAP3 SWAP2 POP POP JUMP JUMPDEST PUSH1 0x0 PUSH2 0x4C38 PUSH1 0x0 NOT DUP5 PUSH1 0x8 MUL PUSH2 0x4C1A JUMP JUMPDEST NOT DUP1 DUP4 AND SWAP2 POP POP SWAP3 SWAP2 POP POP JUMP JUMPDEST PUSH1 0x0 PUSH2 0x4C51 DUP4 DUP4 PUSH2 0x4C27 JUMP JUMPDEST SWAP2 POP DUP3 PUSH1 0x2 MUL DUP3 OR SWAP1 POP SWAP3 SWAP2 POP POP JUMP JUMPDEST PUSH2 0x4C6A DUP3 PUSH2 0x3808 JUMP JUMPDEST PUSH8 0xFFFFFFFFFFFFFFFF DUP2 GT ISZERO PUSH2 0x4C83 JUMPI PUSH2 0x4C82 PUSH2 0x3C12 JUMP JUMPDEST JUMPDEST PUSH2 0x4C8D DUP3 SLOAD PUSH2 0x40CB JUMP JUMPDEST PUSH2 0x4C98 DUP3 DUP3 DUP6 PUSH2 0x4BD4 JUMP JUMPDEST PUSH1 0x0 PUSH1 0x20 SWAP1 POP PUSH1 0x1F DUP4 GT PUSH1 0x1 DUP2 EQ PUSH2 0x4CCB JUMPI PUSH1 0x0 DUP5 ISZERO PUSH2 0x4CB9 JUMPI DUP3 DUP8 ADD MLOAD SWAP1 POP JUMPDEST PUSH2 0x4CC3 DUP6 DUP3 PUSH2 0x4C45 JUMP JUMPDEST DUP7 SSTORE POP PUSH2 0x4D2B JUMP JUMPDEST PUSH1 0x1F NOT DUP5 AND PUSH2 0x4CD9 DUP7 PUSH2 0x4ABF JUMP JUMPDEST PUSH1 0x0 JUMPDEST DUP3 DUP2 LT ISZERO PUSH2 0x4D01 JUMPI DUP5 DUP10 ADD MLOAD DUP3 SSTORE PUSH1 0x1 DUP3 ADD SWAP2 POP PUSH1 0x20 DUP6 ADD SWAP5 POP PUSH1 0x20 DUP2 ADD SWAP1 POP PUSH2 0x4CDC JUMP JUMPDEST DUP7 DUP4 LT ISZERO PUSH2 0x4D1E JUMPI DUP5 DUP10 ADD MLOAD PUSH2 0x4D1A PUSH1 0x1F DUP10 AND DUP3 PUSH2 0x4C27 JUMP JUMPDEST DUP4 SSTORE POP JUMPDEST PUSH1 0x1 PUSH1 0x2 DUP9 MUL ADD DUP9 SSTORE POP POP POP JUMPDEST POP POP POP POP POP POP JUMP JUMPDEST PUSH32 0x5452414E534645525F46524F4D5F4641494C4544000000000000000000000000 PUSH1 0x0 DUP3 ADD MSTORE POP JUMP JUMPDEST PUSH1 0x0 PUSH2 0x4D69 PUSH1 0x14 DUP4 PUSH2 0x3813 JUMP JUMPDEST SWAP2 POP PUSH2 0x4D74 DUP3 PUSH2 0x4D33 JUMP JUMPDEST PUSH1 0x20 DUP3 ADD SWAP1 POP SWAP2 SWAP1 POP JUMP JUMPDEST PUSH1 0x0 PUSH1 0x20 DUP3 ADD SWAP1 POP DUP2 DUP2 SUB PUSH1 0x0 DUP4 ADD MSTORE PUSH2 0x4D98 DUP2 PUSH2 0x4D5C JUMP JUMPDEST SWAP1 POP SWAP2 SWAP1 POP JUMP JUMPDEST PUSH1 0x0 PUSH2 0x4DAA DUP3 PUSH2 0x3705 JUMP JUMPDEST SWAP2 POP PUSH2 0x4DB5 DUP4 PUSH2 0x3705 JUMP JUMPDEST SWAP3 POP DUP3 DUP3 ADD SWAP1 POP DUP1 DUP3 GT ISZERO PUSH2 0x4DCD JUMPI PUSH2 0x4DCC PUSH2 0x40FC JUMP JUMPDEST JUMPDEST SWAP3 SWAP2 POP POP JUMP JUMPDEST PUSH1 0x0 PUSH2 0x4DDE DUP3 PUSH2 0x3705 JUMP JUMPDEST SWAP2 POP PUSH32 0xFFFFFFFFFFFFFFFFFFFFFFFFFFFFFFFFFFFFFFFFFFFFFFFFFFFFFFFFFFFFFFFF DUP3 SUB PUSH2 0x4E10 JUMPI PUSH2 0x4E0F PUSH2 0x40FC JUMP JUMPDEST JUMPDEST PUSH1 0x1 DUP3 ADD SWAP1 POP SWAP2 SWAP1 POP JUMP JUMPDEST PUSH32 0x5452414E534645525F4641494C45440000000000000000000000000000000000 PUSH1 0x0 DUP3 ADD MSTORE POP JUMP JUMPDEST PUSH1 0x0 PUSH2 0x4E51 PUSH1 0xF DUP4 PUSH2 0x3813 JUMP JUMPDEST SWAP2 POP PUSH2 0x4E5C DUP3 PUSH2 0x4E1B JUMP JUMPDEST PUSH1 0x20 DUP3 ADD SWAP1 POP SWAP2 SWAP1 POP JUMP JUMPDEST PUSH1 0x0 PUSH1 0x20 DUP3 ADD SWAP1 POP DUP2 DUP2 SUB PUSH1 0x0 DUP4 ADD MSTORE PUSH2 0x4E80 DUP2 PUSH2 0x4E44 JUMP JUMPDEST SWAP1 POP SWAP2 SWAP1 POP JUMP JUMPDEST PUSH32 0x416363657373436F6E74726F6C3A206163636F756E7420000000000000000000 PUSH1 0x0 DUP3 ADD MSTORE POP JUMP JUMPDEST PUSH1 0x0 PUSH2 0x4EBD PUSH1 0x17 DUP4 PUSH2 0x47C0 JUMP JUMPDEST SWAP2 POP PUSH2 0x4EC8 DUP3 PUSH2 0x4E87 JUMP JUMPDEST PUSH1 0x17 DUP3 ADD SWAP1 POP SWAP2 SWAP1 POP JUMP JUMPDEST PUSH1 0x0 PUSH2 0x4EDE DUP3 PUSH2 0x3808 JUMP JUMPDEST PUSH2 0x4EE8 DUP2 DUP6 PUSH2 0x47C0 JUMP JUMPDEST SWAP4 POP PUSH2 0x4EF8 DUP2 DUP6 PUSH1 0x20 DUP7 ADD PUSH2 0x3824 JUMP JUMPDEST DUP1 DUP5 ADD SWAP2 POP POP SWAP3 SWAP2 POP POP JUMP JUMPDEST PUSH32 0x206973206D697373696E6720726F6C6520000000000000000000000000000000 PUSH1 0x0 DUP3 ADD MSTORE POP JUMP JUMPDEST PUSH1 0x0 PUSH2 0x4F3A PUSH1 0x11 DUP4 PUSH2 0x47C0 JUMP JUMPDEST SWAP2 POP PUSH2 0x4F45 DUP3 PUSH2 0x4F04 JUMP JUMPDEST PUSH1 0x11 DUP3 ADD SWAP1 POP SWAP2 SWAP1 POP JUMP JUMPDEST PUSH1 0x0 PUSH2 0x4F5B DUP3 PUSH2 0x4EB0 JUMP JUMPDEST SWAP2 POP PUSH2 0x4F67 DUP3 DUP6 PUSH2 0x4ED3 JUMP JUMPDEST SWAP2 POP PUSH2 0x4F72 DUP3 PUSH2 0x4F2D JUMP JUMPDEST SWAP2 POP PUSH2 0x4F7E DUP3 DUP5 PUSH2 0x4ED3 JUMP JUMPDEST SWAP2 POP DUP2 SWAP1 POP SWAP4 SWAP3 POP POP POP JUMP JUMPDEST PUSH1 0x0 PUSH2 0x4F95 DUP3 PUSH2 0x3705 JUMP JUMPDEST SWAP2 POP PUSH2 0x4FA0 DUP4 PUSH2 0x3705 JUMP JUMPDEST SWAP3 POP DUP3 DUP3 MUL PUSH2 0x4FAE DUP2 PUSH2 0x3705 JUMP JUMPDEST SWAP2 POP DUP3 DUP3 DIV DUP5 EQ DUP4 ISZERO OR PUSH2 0x4FC5 JUMPI PUSH2 0x4FC4 PUSH2 0x40FC JUMP JUMPDEST JUMPDEST POP SWAP3 SWAP2 POP POP JUMP JUMPDEST PUSH32 0x4E487B7100000000000000000000000000000000000000000000000000000000 PUSH1 0x0 MSTORE PUSH1 0x32 PUSH1 0x4 MSTORE PUSH1 0x24 PUSH1 0x0 REVERT JUMPDEST PUSH1 0x0 PUSH2 0x5006 DUP3 PUSH2 0x3705 JUMP JUMPDEST SWAP2 POP PUSH1 0x0 DUP3 SUB PUSH2 0x5019 JUMPI PUSH2 0x5018 PUSH2 0x40FC JUMP JUMPDEST JUMPDEST PUSH1 0x1 DUP3 SUB SWAP1 POP SWAP2 SWAP1 POP JUMP JUMPDEST PUSH32 0x537472696E67733A20686578206C656E67746820696E73756666696369656E74 PUSH1 0x0 DUP3 ADD MSTORE POP JUMP JUMPDEST PUSH1 0x0 PUSH2 0x505A PUSH1 0x20 DUP4 PUSH2 0x3813 JUMP JUMPDEST SWAP2 POP PUSH2 0x5065 DUP3 PUSH2 0x5024 JUMP JUMPDEST PUSH1 0x20 DUP3 ADD SWAP1 POP SWAP2 SWAP1 POP JUMP JUMPDEST PUSH1 0x0 PUSH1 0x20 DUP3 ADD SWAP1 POP DUP2 DUP2 SUB PUSH1 0x0 DUP4 ADD MSTORE PUSH2 0x5089 DUP2 PUSH2 0x504D JUMP JUMPDEST SWAP1 POP SWAP2 SWAP1 POP JUMP INVALID LOG2 PUSH5 0x6970667358 0x22 SLT KECCAK256 RETURNDATASIZE MSTORE8 0xED 0xA6 0x4A CODESIZE 0xDA 0x28 0xA5 LOG3 GASLIMIT 0xAA 0x2F PUSH16 0x9C3317459BB573136515B0A4ACB76A72 EXTCODECOPY 0x5F PUSH5 0x736F6C6343 STOP ADDMOD GT STOP CALLER "
		},
		"gasEstimates": {
			"creation": {
				"codeDepositCost": "4135600",
				"executionCost": "infinite",
				"totalCost": "infinite"
			},
			"external": {
				"DEFAULT_ADMIN_ROLE()": "447",
				"DOMAIN_SEPARATOR()": "infinite",
				"UNDERLYING()": "infinite",
				"VAULT_FACTORY_ROLE()": "419",
				"afterDepositHookCalledCounter()": "2561",
				"allowance(address,address)": "infinite",
				"approve(address,uint256)": "infinite",
				"asset()": "infinite",
				"balanceOf(address)": "2926",
				"beforeWithdrawHookCalledCounter()": "2540",
				"claimFees(uint256)": "infinite",
				"convertToAssets(uint256)": "infinite",
				"convertToShares(uint256)": "infinite",
				"decimals()": "2583",
				"deposit(uint256,address)": "infinite",
				"destroy()": "30017",
				"feePercent()": "2562",
				"getRoleAdmin(bytes32)": "infinite",
				"grantRole(bytes32,address)": "infinite",
				"hasRole(bytes32,address)": "3231",
				"initializeBeaconProxy(address,address,string,string,uint8)": "infinite",
				"initializeERC4626(address,string,string,uint8)": "infinite",
				"isInitialized()": "2539",
				"isPublic()": "2588",
				"manager()": "2656",
				"maxDeposit(address)": "741",
				"maxMint(address)": "741",
				"maxRedeem(address)": "2974",
				"maxWithdraw(address)": "infinite",
				"mint(uint256,address)": "infinite",
				"name()": "infinite",
				"nonces(address)": "2925",
				"permit(address,address,uint256,uint256,uint8,bytes32,bytes32)": "infinite",
				"previewDeposit(uint256)": "infinite",
				"previewMint(uint256)": "infinite",
				"previewRedeem(uint256)": "infinite",
				"previewWithdraw(uint256)": "infinite",
				"redeem(uint256,address,address)": "infinite",
				"renounceOwnership()": "30364",
				"renounceRole(bytes32,address)": "infinite",
				"revokeRole(bytes32,address)": "infinite",
				"setFeePercent(uint256)": "infinite",
				"setTargetFloatPercent(uint256)": "infinite",
				"setUnderlyingIsWETH(bool)": "infinite",
				"supportsInterface(bytes4)": "796",
				"symbol()": "infinite",
				"targetFloatPercent()": "2520",
				"totalAssets()": "infinite",
				"totalStrategyHoldings()": "2540",
				"totalSupply()": "2498",
				"transfer(address,uint256)": "infinite",
				"transferFrom(address,address,uint256)": "infinite",
				"transferOwnership(address)": "30731",
				"underlyingIsWETH()": "2581",
				"withdraw(uint256,address,address)": "infinite"
			},
			"internal": {
				"afterDeposit(uint256,uint256)": "24370",
				"beforeWithdraw(uint256,uint256)": "24370",
				"strategyACall(address,uint160,uint256)": "infinite",
				"strategyBCall(address,uint160,uint256)": "infinite"
			}
		},
		"methodIdentifiers": {
			"DEFAULT_ADMIN_ROLE()": "a217fddf",
			"DOMAIN_SEPARATOR()": "3644e515",
			"UNDERLYING()": "c5d664c6",
			"VAULT_FACTORY_ROLE()": "b258a6f5",
			"afterDepositHookCalledCounter()": "fc407ae7",
			"allowance(address,address)": "dd62ed3e",
			"approve(address,uint256)": "095ea7b3",
			"asset()": "38d52e0f",
			"balanceOf(address)": "70a08231",
			"beforeWithdrawHookCalledCounter()": "bc368a8a",
			"claimFees(uint256)": "ac68a748",
			"convertToAssets(uint256)": "07a2d13a",
			"convertToShares(uint256)": "c6e6f592",
			"decimals()": "313ce567",
			"deposit(uint256,address)": "6e553f65",
			"destroy()": "83197ef0",
			"feePercent()": "7fd6f15c",
			"getRoleAdmin(bytes32)": "248a9ca3",
			"grantRole(bytes32,address)": "2f2ff15d",
			"hasRole(bytes32,address)": "91d14854",
			"initializeBeaconProxy(address,address,string,string,uint8)": "9309971c",
			"initializeERC4626(address,string,string,uint8)": "422f596f",
			"isInitialized()": "392e53cd",
			"isPublic()": "dc9a1535",
			"manager()": "481c6a75",
			"maxDeposit(address)": "402d267d",
			"maxMint(address)": "c63d75b6",
			"maxRedeem(address)": "d905777e",
			"maxWithdraw(address)": "ce96cb77",
			"mint(uint256,address)": "94bf804d",
			"name()": "06fdde03",
			"nonces(address)": "7ecebe00",
			"permit(address,address,uint256,uint256,uint8,bytes32,bytes32)": "d505accf",
			"previewDeposit(uint256)": "ef8b30f7",
			"previewMint(uint256)": "b3d7f6b9",
			"previewRedeem(uint256)": "4cdad506",
			"previewWithdraw(uint256)": "0a28a477",
			"redeem(uint256,address,address)": "ba087652",
			"renounceOwnership()": "715018a6",
			"renounceRole(bytes32,address)": "36568abe",
			"revokeRole(bytes32,address)": "d547741f",
			"setFeePercent(uint256)": "7ce3489b",
			"setTargetFloatPercent(uint256)": "bd662f88",
			"setUnderlyingIsWETH(bool)": "32ff7732",
			"supportsInterface(bytes4)": "01ffc9a7",
			"symbol()": "95d89b41",
			"targetFloatPercent()": "1c693478",
			"totalAssets()": "01e1d114",
			"totalStrategyHoldings()": "ecad9565",
			"totalSupply()": "18160ddd",
			"transfer(address,uint256)": "a9059cbb",
			"transferFrom(address,address,uint256)": "23b872dd",
			"transferOwnership(address)": "f2fde38b",
			"underlyingIsWETH()": "f84d73f4",
			"withdraw(uint256,address,address)": "b460af94"
		}
	},
	"abi": [
		{
			"inputs": [],
			"stateMutability": "nonpayable",
			"type": "constructor"
		},
		{
			"anonymous": false,
			"inputs": [
				{
					"indexed": true,
					"internalType": "address",
					"name": "owner",
					"type": "address"
				},
				{
					"indexed": true,
					"internalType": "address",
					"name": "spender",
					"type": "address"
				},
				{
					"indexed": false,
					"internalType": "uint256",
					"name": "amount",
					"type": "uint256"
				}
			],
			"name": "Approval",
			"type": "event"
		},
		{
			"anonymous": false,
			"inputs": [
				{
					"indexed": true,
					"internalType": "address",
					"name": "caller",
					"type": "address"
				},
				{
					"indexed": true,
					"internalType": "address",
					"name": "owner",
					"type": "address"
				},
				{
					"indexed": false,
					"internalType": "uint256",
					"name": "assets",
					"type": "uint256"
				},
				{
					"indexed": false,
					"internalType": "uint256",
					"name": "shares",
					"type": "uint256"
				}
			],
			"name": "Deposit",
			"type": "event"
		},
		{
			"anonymous": false,
			"inputs": [
				{
					"indexed": true,
					"internalType": "address",
					"name": "user",
					"type": "address"
				},
				{
					"indexed": false,
					"internalType": "uint256",
					"name": "newFeePercent",
					"type": "uint256"
				}
			],
			"name": "FeePercentUpdated",
			"type": "event"
		},
		{
			"anonymous": false,
			"inputs": [
				{
					"indexed": true,
					"internalType": "address",
					"name": "user",
					"type": "address"
				},
				{
					"indexed": false,
					"internalType": "uint256",
					"name": "sVTokenAmount",
					"type": "uint256"
				}
			],
			"name": "FeesClaimed",
			"type": "event"
		},
		{
			"anonymous": false,
			"inputs": [
				{
					"indexed": true,
					"internalType": "address",
					"name": "user",
					"type": "address"
				}
			],
			"name": "Initialized",
			"type": "event"
		},
		{
			"anonymous": false,
			"inputs": [
				{
					"indexed": true,
					"internalType": "address",
					"name": "previousManager",
					"type": "address"
				},
				{
					"indexed": true,
					"internalType": "address",
					"name": "newManager",
					"type": "address"
				}
			],
			"name": "OwnershipTransferred",
			"type": "event"
		},
		{
			"anonymous": false,
			"inputs": [
				{
					"indexed": true,
					"internalType": "bytes32",
					"name": "role",
					"type": "bytes32"
				},
				{
					"indexed": true,
					"internalType": "bytes32",
					"name": "previousAdminRole",
					"type": "bytes32"
				},
				{
					"indexed": true,
					"internalType": "bytes32",
					"name": "newAdminRole",
					"type": "bytes32"
				}
			],
			"name": "RoleAdminChanged",
			"type": "event"
		},
		{
			"anonymous": false,
			"inputs": [
				{
					"indexed": true,
					"internalType": "bytes32",
					"name": "role",
					"type": "bytes32"
				},
				{
					"indexed": true,
					"internalType": "address",
					"name": "account",
					"type": "address"
				},
				{
					"indexed": true,
					"internalType": "address",
					"name": "sender",
					"type": "address"
				}
			],
			"name": "RoleGranted",
			"type": "event"
		},
		{
			"anonymous": false,
			"inputs": [
				{
					"indexed": true,
					"internalType": "bytes32",
					"name": "role",
					"type": "bytes32"
				},
				{
					"indexed": true,
					"internalType": "address",
					"name": "account",
					"type": "address"
				},
				{
					"indexed": true,
					"internalType": "address",
					"name": "sender",
					"type": "address"
				}
			],
			"name": "RoleRevoked",
			"type": "event"
		},
		{
			"anonymous": false,
			"inputs": [
				{
					"indexed": true,
					"internalType": "address",
					"name": "searcher",
					"type": "address"
				},
				{
					"indexed": true,
					"internalType": "address",
					"name": "vault",
					"type": "address"
				},
				{
					"indexed": false,
					"internalType": "uint256",
					"name": "duration",
					"type": "uint256"
				}
			],
			"name": "StrategyAInitilized",
			"type": "event"
		},
		{
			"anonymous": false,
			"inputs": [
				{
					"indexed": true,
					"internalType": "address",
					"name": "stakePoolContract",
					"type": "address"
				},
				{
					"indexed": true,
					"internalType": "address",
					"name": "vault",
					"type": "address"
				},
				{
					"indexed": false,
					"internalType": "uint256",
					"name": "duration",
					"type": "uint256"
				}
			],
			"name": "StrategyBInitilized",
			"type": "event"
		},
		{
			"anonymous": false,
			"inputs": [
				{
					"indexed": true,
					"internalType": "address",
					"name": "user",
					"type": "address"
				},
				{
					"indexed": false,
					"internalType": "uint256",
					"name": "newTargetFloatPercent",
					"type": "uint256"
				}
			],
			"name": "TargetFloatPercentUpdated",
			"type": "event"
		},
		{
			"anonymous": false,
			"inputs": [
				{
					"indexed": true,
					"internalType": "address",
					"name": "from",
					"type": "address"
				},
				{
					"indexed": true,
					"internalType": "address",
					"name": "to",
					"type": "address"
				},
				{
					"indexed": false,
					"internalType": "uint256",
					"name": "amount",
					"type": "uint256"
				}
			],
			"name": "Transfer",
			"type": "event"
		},
		{
			"anonymous": false,
			"inputs": [
				{
					"indexed": true,
					"internalType": "address",
					"name": "user",
					"type": "address"
				},
				{
					"indexed": false,
					"internalType": "bool",
					"name": "newUnderlyingIsWETH",
					"type": "bool"
				}
			],
			"name": "UnderlyingIsWETHUpdated",
			"type": "event"
		},
		{
			"anonymous": false,
			"inputs": [
				{
					"indexed": true,
					"internalType": "address",
					"name": "caller",
					"type": "address"
				},
				{
					"indexed": true,
					"internalType": "address",
					"name": "receiver",
					"type": "address"
				},
				{
					"indexed": true,
					"internalType": "address",
					"name": "owner",
					"type": "address"
				},
				{
					"indexed": false,
					"internalType": "uint256",
					"name": "assets",
					"type": "uint256"
				},
				{
					"indexed": false,
					"internalType": "uint256",
					"name": "shares",
					"type": "uint256"
				}
			],
			"name": "Withdraw",
			"type": "event"
		},
		{
			"anonymous": false,
			"inputs": [
				{
					"indexed": false,
					"internalType": "bool",
					"name": "isPublicVault",
					"type": "bool"
				}
			],
			"name": "vaultPublic",
			"type": "event"
		},
		{
			"inputs": [],
			"name": "DEFAULT_ADMIN_ROLE",
			"outputs": [
				{
					"internalType": "bytes32",
					"name": "",
					"type": "bytes32"
				}
			],
			"stateMutability": "view",
			"type": "function"
		},
		{
			"inputs": [],
			"name": "DOMAIN_SEPARATOR",
			"outputs": [
				{
					"internalType": "bytes32",
					"name": "",
					"type": "bytes32"
				}
			],
			"stateMutability": "view",
			"type": "function"
		},
		{
			"inputs": [],
			"name": "UNDERLYING",
			"outputs": [
				{
					"internalType": "contract ERC20",
					"name": "",
					"type": "address"
				}
			],
			"stateMutability": "view",
			"type": "function"
		},
		{
			"inputs": [],
			"name": "VAULT_FACTORY_ROLE",
			"outputs": [
				{
					"internalType": "bytes32",
					"name": "",
					"type": "bytes32"
				}
			],
			"stateMutability": "view",
			"type": "function"
		},
		{
			"inputs": [],
			"name": "afterDepositHookCalledCounter",
			"outputs": [
				{
					"internalType": "uint256",
					"name": "",
					"type": "uint256"
				}
			],
			"stateMutability": "view",
			"type": "function"
		},
		{
			"inputs": [
				{
					"internalType": "address",
					"name": "",
					"type": "address"
				},
				{
					"internalType": "address",
					"name": "",
					"type": "address"
				}
			],
			"name": "allowance",
			"outputs": [
				{
					"internalType": "uint256",
					"name": "",
					"type": "uint256"
				}
			],
			"stateMutability": "view",
			"type": "function"
		},
		{
			"inputs": [
				{
					"internalType": "address",
					"name": "spender",
					"type": "address"
				},
				{
					"internalType": "uint256",
					"name": "amount",
					"type": "uint256"
				}
			],
			"name": "approve",
			"outputs": [
				{
					"internalType": "bool",
					"name": "",
					"type": "bool"
				}
			],
			"stateMutability": "nonpayable",
			"type": "function"
		},
		{
			"inputs": [],
			"name": "asset",
			"outputs": [
				{
					"internalType": "contract ERC20",
					"name": "",
					"type": "address"
				}
			],
			"stateMutability": "view",
			"type": "function"
		},
		{
			"inputs": [
				{
					"internalType": "address",
					"name": "",
					"type": "address"
				}
			],
			"name": "balanceOf",
			"outputs": [
				{
					"internalType": "uint256",
					"name": "",
					"type": "uint256"
				}
			],
			"stateMutability": "view",
			"type": "function"
		},
		{
			"inputs": [],
			"name": "beforeWithdrawHookCalledCounter",
			"outputs": [
				{
					"internalType": "uint256",
					"name": "",
					"type": "uint256"
				}
			],
			"stateMutability": "view",
			"type": "function"
		},
		{
			"inputs": [
				{
					"internalType": "uint256",
					"name": "sVTokenAmount",
					"type": "uint256"
				}
			],
			"name": "claimFees",
			"outputs": [],
			"stateMutability": "nonpayable",
			"type": "function"
		},
		{
			"inputs": [
				{
					"internalType": "uint256",
					"name": "shares",
					"type": "uint256"
				}
			],
			"name": "convertToAssets",
			"outputs": [
				{
					"internalType": "uint256",
					"name": "",
					"type": "uint256"
				}
			],
			"stateMutability": "view",
			"type": "function"
		},
		{
			"inputs": [
				{
					"internalType": "uint256",
					"name": "assets",
					"type": "uint256"
				}
			],
			"name": "convertToShares",
			"outputs": [
				{
					"internalType": "uint256",
					"name": "",
					"type": "uint256"
				}
			],
			"stateMutability": "view",
			"type": "function"
		},
		{
			"inputs": [],
			"name": "decimals",
			"outputs": [
				{
					"internalType": "uint8",
					"name": "",
					"type": "uint8"
				}
			],
			"stateMutability": "view",
			"type": "function"
		},
		{
			"inputs": [
				{
					"internalType": "uint256",
					"name": "assets",
					"type": "uint256"
				},
				{
					"internalType": "address",
					"name": "receiver",
					"type": "address"
				}
			],
			"name": "deposit",
			"outputs": [
				{
					"internalType": "uint256",
					"name": "shares",
					"type": "uint256"
				}
			],
			"stateMutability": "nonpayable",
			"type": "function"
		},
		{
			"inputs": [],
			"name": "destroy",
			"outputs": [],
			"stateMutability": "nonpayable",
			"type": "function"
		},
		{
			"inputs": [],
			"name": "feePercent",
			"outputs": [
				{
					"internalType": "uint256",
					"name": "",
					"type": "uint256"
				}
			],
			"stateMutability": "view",
			"type": "function"
		},
		{
			"inputs": [
				{
					"internalType": "bytes32",
					"name": "role",
					"type": "bytes32"
				}
			],
			"name": "getRoleAdmin",
			"outputs": [
				{
					"internalType": "bytes32",
					"name": "",
					"type": "bytes32"
				}
			],
			"stateMutability": "view",
			"type": "function"
		},
		{
			"inputs": [
				{
					"internalType": "bytes32",
					"name": "role",
					"type": "bytes32"
				},
				{
					"internalType": "address",
					"name": "account",
					"type": "address"
				}
			],
			"name": "grantRole",
			"outputs": [],
			"stateMutability": "nonpayable",
			"type": "function"
		},
		{
			"inputs": [
				{
					"internalType": "bytes32",
					"name": "role",
					"type": "bytes32"
				},
				{
					"internalType": "address",
					"name": "account",
					"type": "address"
				}
			],
			"name": "hasRole",
			"outputs": [
				{
					"internalType": "bool",
					"name": "",
					"type": "bool"
				}
			],
			"stateMutability": "view",
			"type": "function"
		},
		{
			"inputs": [
				{
					"internalType": "address",
					"name": "_underlying",
					"type": "address"
				},
				{
					"internalType": "address",
					"name": "_managerAddress",
					"type": "address"
				},
				{
					"internalType": "string",
					"name": "_name",
					"type": "string"
				},
				{
					"internalType": "string",
					"name": "_symbol",
					"type": "string"
				},
				{
					"internalType": "uint8",
					"name": "_decimals",
					"type": "uint8"
				}
			],
			"name": "initializeBeaconProxy",
			"outputs": [],
			"stateMutability": "nonpayable",
			"type": "function"
		},
		{
			"inputs": [
				{
					"internalType": "address",
					"name": "_underlying",
					"type": "address"
				},
				{
					"internalType": "string",
					"name": "_name",
					"type": "string"
				},
				{
					"internalType": "string",
					"name": "_symbol",
					"type": "string"
				},
				{
					"internalType": "uint8",
					"name": "_decimals",
					"type": "uint8"
				}
			],
			"name": "initializeERC4626",
			"outputs": [],
			"stateMutability": "nonpayable",
			"type": "function"
		},
		{
			"inputs": [],
			"name": "isInitialized",
			"outputs": [
				{
					"internalType": "bool",
					"name": "",
					"type": "bool"
				}
			],
			"stateMutability": "view",
			"type": "function"
		},
		{
			"inputs": [],
			"name": "isPublic",
			"outputs": [
				{
					"internalType": "bool",
					"name": "",
					"type": "bool"
				}
			],
			"stateMutability": "view",
			"type": "function"
		},
		{
			"inputs": [],
			"name": "manager",
			"outputs": [
				{
					"internalType": "address",
					"name": "",
					"type": "address"
				}
			],
			"stateMutability": "view",
			"type": "function"
		},
		{
			"inputs": [
				{
					"internalType": "address",
					"name": "",
					"type": "address"
				}
			],
			"name": "maxDeposit",
			"outputs": [
				{
					"internalType": "uint256",
					"name": "",
					"type": "uint256"
				}
			],
			"stateMutability": "view",
			"type": "function"
		},
		{
			"inputs": [
				{
					"internalType": "address",
					"name": "",
					"type": "address"
				}
			],
			"name": "maxMint",
			"outputs": [
				{
					"internalType": "uint256",
					"name": "",
					"type": "uint256"
				}
			],
			"stateMutability": "view",
			"type": "function"
		},
		{
			"inputs": [
				{
					"internalType": "address",
					"name": "owner",
					"type": "address"
				}
			],
			"name": "maxRedeem",
			"outputs": [
				{
					"internalType": "uint256",
					"name": "",
					"type": "uint256"
				}
			],
			"stateMutability": "view",
			"type": "function"
		},
		{
			"inputs": [
				{
					"internalType": "address",
					"name": "owner",
					"type": "address"
				}
			],
			"name": "maxWithdraw",
			"outputs": [
				{
					"internalType": "uint256",
					"name": "",
					"type": "uint256"
				}
			],
			"stateMutability": "view",
			"type": "function"
		},
		{
			"inputs": [
				{
					"internalType": "uint256",
					"name": "shares",
					"type": "uint256"
				},
				{
					"internalType": "address",
					"name": "receiver",
					"type": "address"
				}
			],
			"name": "mint",
			"outputs": [
				{
					"internalType": "uint256",
					"name": "assets",
					"type": "uint256"
				}
			],
			"stateMutability": "nonpayable",
			"type": "function"
		},
		{
			"inputs": [],
			"name": "name",
			"outputs": [
				{
					"internalType": "string",
					"name": "",
					"type": "string"
				}
			],
			"stateMutability": "view",
			"type": "function"
		},
		{
			"inputs": [
				{
					"internalType": "address",
					"name": "",
					"type": "address"
				}
			],
			"name": "nonces",
			"outputs": [
				{
					"internalType": "uint256",
					"name": "",
					"type": "uint256"
				}
			],
			"stateMutability": "view",
			"type": "function"
		},
		{
			"inputs": [
				{
					"internalType": "address",
					"name": "owner",
					"type": "address"
				},
				{
					"internalType": "address",
					"name": "spender",
					"type": "address"
				},
				{
					"internalType": "uint256",
					"name": "value",
					"type": "uint256"
				},
				{
					"internalType": "uint256",
					"name": "deadline",
					"type": "uint256"
				},
				{
					"internalType": "uint8",
					"name": "v",
					"type": "uint8"
				},
				{
					"internalType": "bytes32",
					"name": "r",
					"type": "bytes32"
				},
				{
					"internalType": "bytes32",
					"name": "s",
					"type": "bytes32"
				}
			],
			"name": "permit",
			"outputs": [],
			"stateMutability": "nonpayable",
			"type": "function"
		},
		{
			"inputs": [
				{
					"internalType": "uint256",
					"name": "assets",
					"type": "uint256"
				}
			],
			"name": "previewDeposit",
			"outputs": [
				{
					"internalType": "uint256",
					"name": "",
					"type": "uint256"
				}
			],
			"stateMutability": "view",
			"type": "function"
		},
		{
			"inputs": [
				{
					"internalType": "uint256",
					"name": "shares",
					"type": "uint256"
				}
			],
			"name": "previewMint",
			"outputs": [
				{
					"internalType": "uint256",
					"name": "",
					"type": "uint256"
				}
			],
			"stateMutability": "view",
			"type": "function"
		},
		{
			"inputs": [
				{
					"internalType": "uint256",
					"name": "shares",
					"type": "uint256"
				}
			],
			"name": "previewRedeem",
			"outputs": [
				{
					"internalType": "uint256",
					"name": "",
					"type": "uint256"
				}
			],
			"stateMutability": "view",
			"type": "function"
		},
		{
			"inputs": [
				{
					"internalType": "uint256",
					"name": "assets",
					"type": "uint256"
				}
			],
			"name": "previewWithdraw",
			"outputs": [
				{
					"internalType": "uint256",
					"name": "",
					"type": "uint256"
				}
			],
			"stateMutability": "view",
			"type": "function"
		},
		{
			"inputs": [
				{
					"internalType": "uint256",
					"name": "shares",
					"type": "uint256"
				},
				{
					"internalType": "address",
					"name": "receiver",
					"type": "address"
				},
				{
					"internalType": "address",
					"name": "owner",
					"type": "address"
				}
			],
			"name": "redeem",
			"outputs": [
				{
					"internalType": "uint256",
					"name": "assets",
					"type": "uint256"
				}
			],
			"stateMutability": "nonpayable",
			"type": "function"
		},
		{
			"inputs": [],
			"name": "renounceOwnership",
			"outputs": [],
			"stateMutability": "nonpayable",
			"type": "function"
		},
		{
			"inputs": [
				{
					"internalType": "bytes32",
					"name": "role",
					"type": "bytes32"
				},
				{
					"internalType": "address",
					"name": "account",
					"type": "address"
				}
			],
			"name": "renounceRole",
			"outputs": [],
			"stateMutability": "nonpayable",
			"type": "function"
		},
		{
			"inputs": [
				{
					"internalType": "bytes32",
					"name": "role",
					"type": "bytes32"
				},
				{
					"internalType": "address",
					"name": "account",
					"type": "address"
				}
			],
			"name": "revokeRole",
			"outputs": [],
			"stateMutability": "nonpayable",
			"type": "function"
		},
		{
			"inputs": [
				{
					"internalType": "uint256",
					"name": "newFeePercent",
					"type": "uint256"
				}
			],
			"name": "setFeePercent",
			"outputs": [],
			"stateMutability": "nonpayable",
			"type": "function"
		},
		{
			"inputs": [
				{
					"internalType": "uint256",
					"name": "newTargetFloatPercent",
					"type": "uint256"
				}
			],
			"name": "setTargetFloatPercent",
			"outputs": [],
			"stateMutability": "nonpayable",
			"type": "function"
		},
		{
			"inputs": [
				{
					"internalType": "bool",
					"name": "newUnderlyingIsWETH",
					"type": "bool"
				}
			],
			"name": "setUnderlyingIsWETH",
			"outputs": [],
			"stateMutability": "nonpayable",
			"type": "function"
		},
		{
			"inputs": [
				{
					"internalType": "bytes4",
					"name": "interfaceId",
					"type": "bytes4"
				}
			],
			"name": "supportsInterface",
			"outputs": [
				{
					"internalType": "bool",
					"name": "",
					"type": "bool"
				}
			],
			"stateMutability": "view",
			"type": "function"
		},
		{
			"inputs": [],
			"name": "symbol",
			"outputs": [
				{
					"internalType": "string",
					"name": "",
					"type": "string"
				}
			],
			"stateMutability": "view",
			"type": "function"
		},
		{
			"inputs": [],
			"name": "targetFloatPercent",
			"outputs": [
				{
					"internalType": "uint256",
					"name": "",
					"type": "uint256"
				}
			],
			"stateMutability": "view",
			"type": "function"
		},
		{
			"inputs": [],
			"name": "totalAssets",
			"outputs": [
				{
					"internalType": "uint256",
					"name": "",
					"type": "uint256"
				}
			],
			"stateMutability": "view",
			"type": "function"
		},
		{
			"inputs": [],
			"name": "totalStrategyHoldings",
			"outputs": [
				{
					"internalType": "uint256",
					"name": "",
					"type": "uint256"
				}
			],
			"stateMutability": "view",
			"type": "function"
		},
		{
			"inputs": [],
			"name": "totalSupply",
			"outputs": [
				{
					"internalType": "uint256",
					"name": "",
					"type": "uint256"
				}
			],
			"stateMutability": "view",
			"type": "function"
		},
		{
			"inputs": [
				{
					"internalType": "address",
					"name": "to",
					"type": "address"
				},
				{
					"internalType": "uint256",
					"name": "amount",
					"type": "uint256"
				}
			],
			"name": "transfer",
			"outputs": [
				{
					"internalType": "bool",
					"name": "",
					"type": "bool"
				}
			],
			"stateMutability": "nonpayable",
			"type": "function"
		},
		{
			"inputs": [
				{
					"internalType": "address",
					"name": "from",
					"type": "address"
				},
				{
					"internalType": "address",
					"name": "to",
					"type": "address"
				},
				{
					"internalType": "uint256",
					"name": "amount",
					"type": "uint256"
				}
			],
			"name": "transferFrom",
			"outputs": [
				{
					"internalType": "bool",
					"name": "",
					"type": "bool"
				}
			],
			"stateMutability": "nonpayable",
			"type": "function"
		},
		{
			"inputs": [
				{
					"internalType": "address",
					"name": "newOwner",
					"type": "address"
				}
			],
			"name": "transferOwnership",
			"outputs": [],
			"stateMutability": "nonpayable",
			"type": "function"
		},
		{
			"inputs": [],
			"name": "underlyingIsWETH",
			"outputs": [
				{
					"internalType": "bool",
					"name": "",
					"type": "bool"
				}
			],
			"stateMutability": "view",
			"type": "function"
		},
		{
			"inputs": [
				{
					"internalType": "uint256",
					"name": "assets",
					"type": "uint256"
				},
				{
					"internalType": "address",
					"name": "receiver",
					"type": "address"
				},
				{
					"internalType": "address",
					"name": "owner",
					"type": "address"
				}
			],
			"name": "withdraw",
			"outputs": [
				{
					"internalType": "uint256",
					"name": "shares",
					"type": "uint256"
				}
			],
			"stateMutability": "nonpayable",
			"type": "function"
		},
		{
			"stateMutability": "payable",
			"type": "receive"
		}
	]
}