{
	"data": {
		"bytecode": {
			"linkReferences": {},
			"object": "610140604052600060075560006008553480156200001c57600080fd5b5060405162004a1638038062004a168339818101604052810190620000429190620004f6565b83838383828282826000908051906020019062000061929190620001f2565b5081600190805190602001906200007a929190620001f2565b508060ff1660808160ff16815250504660a08181525050620000a16200016260201b60201c565b60c081815250505050508373ffffffffffffffffffffffffffffffffffffffff1660e08173ffffffffffffffffffffffffffffffffffffffff1681525050505050508373ffffffffffffffffffffffffffffffffffffffff166101208173ffffffffffffffffffffffffffffffffffffffff1681525050608051600a62000129919062000733565b61010081815250507fffffffffffffffffffffffffffffffffffffffffffffffffffffffffffffffff6002819055505050505062000947565b60007f8b73c3c69bb8fe3d512ecc4cf759cc79239f7b179b0ffacaa9a75d522b39400f600060405162000196919062000894565b60405180910390207fc89efdaa54c0f20c7adf612882df0950f5a951637e0307cdcb4c672f298b8bc64630604051602001620001d7959493929190620008ea565b60405160208183030381529060405280519060200120905090565b8280546200020090620007b3565b90600052602060002090601f01602090048101928262000224576000855562000270565b82601f106200023f57805160ff191683800117855562000270565b8280016001018555821562000270579182015b828111156200026f57825182559160200191906001019062000252565b5b5090506200027f919062000283565b5090565b5b808211156200029e57600081600090555060010162000284565b5090565b6000604051905090565b600080fd5b600080fd5b600073ffffffffffffffffffffffffffffffffffffffff82169050919050565b6000620002e382620002b6565b9050919050565b6000620002f782620002d6565b9050919050565b6200030981620002ea565b81146200031557600080fd5b50565b6000815190506200032981620002fe565b92915050565b600080fd5b600080fd5b6000601f19601f8301169050919050565b7f4e487b7100000000000000000000000000000000000000000000000000000000600052604160045260246000fd5b620003848262000339565b810181811067ffffffffffffffff82111715620003a657620003a56200034a565b5b80604052505050565b6000620003bb620002a2565b9050620003c9828262000379565b919050565b600067ffffffffffffffff821115620003ec57620003eb6200034a565b5b620003f78262000339565b9050602081019050919050565b60005b838110156200042457808201518184015260208101905062000407565b8381111562000434576000848401525b50505050565b6000620004516200044b84620003ce565b620003af565b90508281526020810184848401111562000470576200046f62000334565b5b6200047d84828562000404565b509392505050565b600082601f8301126200049d576200049c6200032f565b5b8151620004af8482602086016200043a565b91505092915050565b600060ff82169050919050565b620004d081620004b8565b8114620004dc57600080fd5b50565b600081519050620004f081620004c5565b92915050565b60008060008060808587031215620005135762000512620002ac565b5b6000620005238782880162000318565b945050602085015167ffffffffffffffff811115620005475762000546620002b1565b5b620005558782880162000485565b935050604085015167ffffffffffffffff811115620005795762000578620002b1565b5b620005878782880162000485565b92505060606200059a87828801620004df565b91505092959194509250565b7f4e487b7100000000000000000000000000000000000000000000000000000000600052601160045260246000fd5b60008160011c9050919050565b6000808291508390505b600185111562000634578086048111156200060c576200060b620005a6565b5b60018516156200061c5780820291505b80810290506200062c85620005d5565b9450620005ec565b94509492505050565b6000826200064f576001905062000722565b816200065f576000905062000722565b81600181146200067857600281146200068357620006b9565b600191505062000722565b60ff841115620006985762000697620005a6565b5b8360020a915084821115620006b257620006b1620005a6565b5b5062000722565b5060208310610133831016604e8410600b8410161715620006f35782820a905083811115620006ed57620006ec620005a6565b5b62000722565b620007028484846001620005e2565b925090508184048111156200071c576200071b620005a6565b5b81810290505b9392505050565b6000819050919050565b6000620007408262000729565b91506200074d83620004b8565b92506200077c7fffffffffffffffffffffffffffffffffffffffffffffffffffffffffffffffff84846200063d565b905092915050565b7f4e487b7100000000000000000000000000000000000000000000000000000000600052602260045260246000fd5b60006002820490506001821680620007cc57607f821691505b60208210811415620007e357620007e262000784565b5b50919050565b600081905092915050565b60008190508160005260206000209050919050565b600081546200081881620007b3565b620008248186620007e9565b9450600182166000811462000842576001811462000854576200088b565b60ff198316865281860193506200088b565b6200085f85620007f4565b60005b83811015620008835781548189015260018201915060208101905062000862565b838801955050505b50505092915050565b6000620008a2828462000809565b915081905092915050565b6000819050919050565b620008c281620008ad565b82525050565b620008d38162000729565b82525050565b620008e481620002d6565b82525050565b600060a082019050620009016000830188620008b7565b620009106020830187620008b7565b6200091f6040830186620008b7565b6200092e6060830185620008c8565b6200093d6080830184620008d9565b9695505050505050565b60805160a05160c05160e0516101005161012051614058620009be6000396000818161110b015261236701526000505060008181610b7d015281816112a6015281816113990152818161196501528181611f5d01526121fc0152600061127f0152600061124b0152600061106801526140586000f3fe6080604052600436106102815760003560e01c80638bf0a96e1161014f578063c63d75b6116100c1578063dd62ed3e1161007a578063dd62ed3e14610a55578063ecad956514610a92578063ef8b30f714610abd578063f2fde38b14610afa578063f84d73f414610b23578063fc407ae714610b4e57610288565b8063c63d75b61461090d578063c6e6f5921461094a578063ce96cb7714610987578063d505accf146109c4578063d905777e146109ed578063dc9a153514610a2a57610288565b8063b3d7f6b911610113578063b3d7f6b9146107d7578063b460af9414610814578063ba08765214610851578063bc368a8a1461088e578063bd662f88146108b9578063c5d664c6146108e257610288565b80638bf0a96e146106e057806394bf804d1461070957806395d89b4114610746578063a9059cbb14610771578063ac68a748146107ae57610288565b806338d52e0f116101f357806370a08231116101ac57806370a08231146105e4578063715018a6146106215780637ce3489b146106385780637ecebe00146106615780637fd6f15c1461069e57806383197ef0146106c957610288565b806338d52e0f146104ac578063392e53cd146104d7578063402d267d14610502578063481c6a751461053f5780634cdad5061461056a5780636e553f65146105a757610288565b806318160ddd1161024557806318160ddd1461039a5780631c693478146103c557806323b872dd146103f0578063313ce5671461042d57806332ff7732146104585780633644e5151461048157610288565b806301e1d1141461028d57806306fdde03146102b857806307a2d13a146102e3578063095ea7b3146103205780630a28a4771461035d57610288565b3661028857005b600080fd5b34801561029957600080fd5b506102a2610b79565b6040516102af9190612ed1565b60405180910390f35b3480156102c457600080fd5b506102cd610c1a565b6040516102da9190612f85565b60405180910390f35b3480156102ef57600080fd5b5061030a60048036038101906103059190612fd8565b610ca8565b6040516103179190612ed1565b60405180910390f35b34801561032c57600080fd5b5061034760048036038101906103429190613063565b610ce3565b60405161035491906130be565b60405180910390f35b34801561036957600080fd5b50610384600480360381019061037f9190612fd8565b610dd5565b6040516103919190612ed1565b60405180910390f35b3480156103a657600080fd5b506103af610e10565b6040516103bc9190612ed1565b60405180910390f35b3480156103d157600080fd5b506103da610e16565b6040516103e79190612ed1565b60405180910390f35b3480156103fc57600080fd5b50610417600480360381019061041291906130d9565b610e1c565b60405161042491906130be565b60405180910390f35b34801561043957600080fd5b50610442611066565b60405161044f9190613148565b60405180910390f35b34801561046457600080fd5b5061047f600480360381019061047a919061318f565b61108a565b005b34801561048d57600080fd5b50610496611247565b6040516104a391906131d5565b60405180910390f35b3480156104b857600080fd5b506104c16112a4565b6040516104ce919061324f565b60405180910390f35b3480156104e357600080fd5b506104ec6112c8565b6040516104f991906130be565b60405180910390f35b34801561050e57600080fd5b506105296004803603810190610524919061326a565b6112db565b6040516105369190612ed1565b60405180910390f35b34801561054b57600080fd5b50610554611305565b60405161056191906132a6565b60405180910390f35b34801561057657600080fd5b50610591600480360381019061058c9190612fd8565b61132f565b60405161059e9190612ed1565b60405180910390f35b3480156105b357600080fd5b506105ce60048036038101906105c991906132c1565b611341565b6040516105db9190612ed1565b60405180910390f35b3480156105f057600080fd5b5061060b6004803603810190610606919061326a565b61145f565b6040516106189190612ed1565b60405180910390f35b34801561062d57600080fd5b50610636611477565b005b34801561064457600080fd5b5061065f600480360381019061065a9190612fd8565b6115ad565b005b34801561066d57600080fd5b506106886004803603810190610683919061326a565b6116c5565b6040516106959190612ed1565b60405180910390f35b3480156106aa57600080fd5b506106b36116dd565b6040516106c09190612ed1565b60405180910390f35b3480156106d557600080fd5b506106de6116e3565b005b3480156106ec57600080fd5b506107076004803603810190610702919061332d565b611771565b005b34801561071557600080fd5b50610730600480360381019061072b91906132c1565b611950565b60405161073d9190612ed1565b60405180910390f35b34801561075257600080fd5b5061075b611a2b565b6040516107689190612f85565b60405180910390f35b34801561077d57600080fd5b5061079860048036038101906107939190613063565b611ab9565b6040516107a591906130be565b60405180910390f35b3480156107ba57600080fd5b506107d560048036038101906107d09190612fd8565b611bcd565b005b3480156107e357600080fd5b506107fe60048036038101906107f99190612fd8565b611d12565b60405161080b9190612ed1565b60405180910390f35b34801561082057600080fd5b5061083b6004803603810190610836919061336d565b611d4d565b6040516108489190612ed1565b60405180910390f35b34801561085d57600080fd5b506108786004803603810190610873919061336d565b611fa8565b6040516108859190612ed1565b60405180910390f35b34801561089a57600080fd5b506108a3612247565b6040516108b09190612ed1565b60405180910390f35b3480156108c557600080fd5b506108e060048036038101906108db9190612fd8565b61224d565b005b3480156108ee57600080fd5b506108f7612365565b604051610904919061324f565b60405180910390f35b34801561091957600080fd5b50610934600480360381019061092f919061326a565b612389565b6040516109419190612ed1565b60405180910390f35b34801561095657600080fd5b50610971600480360381019061096c9190612fd8565b6123b3565b60405161097e9190612ed1565b60405180910390f35b34801561099357600080fd5b506109ae60048036038101906109a9919061326a565b6123ee565b6040516109bb9190612ed1565b60405180910390f35b3480156109d057600080fd5b506109eb60048036038101906109e69190613418565b61243f565b005b3480156109f957600080fd5b50610a146004803603810190610a0f919061326a565b612738565b604051610a219190612ed1565b60405180910390f35b348015610a3657600080fd5b50610a3f612781565b604051610a4c91906130be565b60405180910390f35b348015610a6157600080fd5b50610a7c6004803603810190610a7791906134ba565b612794565b604051610a899190612ed1565b60405180910390f35b348015610a9e57600080fd5b50610aa76127b9565b604051610ab49190612ed1565b60405180910390f35b348015610ac957600080fd5b50610ae46004803603810190610adf9190612fd8565b6127bf565b604051610af19190612ed1565b60405180910390f35b348015610b0657600080fd5b50610b216004803603810190610b1c919061326a565b6127d1565b005b348015610b2f57600080fd5b50610b38612976565b604051610b4591906130be565b60405180910390f35b348015610b5a57600080fd5b50610b63612989565b604051610b709190612ed1565b60405180910390f35b60007f000000000000000000000000000000000000000000000000000000000000000073ffffffffffffffffffffffffffffffffffffffff166370a08231306040518263ffffffff1660e01b8152600401610bd491906132a6565b602060405180830381865afa158015610bf1573d6000803e3d6000fd5b505050506040513d601f19601f82011682018060405250810190610c15919061350f565b905090565b60008054610c279061356b565b80601f0160208091040260200160405190810160405280929190818152602001828054610c539061356b565b8015610ca05780601f10610c7557610100808354040283529160200191610ca0565b820191906000526020600020905b815481529060010190602001808311610c8357829003601f168201915b505050505081565b600080600254905060008114610cd957610cd4610cc3610b79565b828561298f9092919063ffffffff16565b610cdb565b825b915050919050565b600081600460003373ffffffffffffffffffffffffffffffffffffffff1673ffffffffffffffffffffffffffffffffffffffff16815260200190815260200160002060008573ffffffffffffffffffffffffffffffffffffffff1673ffffffffffffffffffffffffffffffffffffffff168152602001908152602001600020819055508273ffffffffffffffffffffffffffffffffffffffff163373ffffffffffffffffffffffffffffffffffffffff167f8c5be1e5ebec7d5bd14f71427d1e84f3dd0314c0f7b2291e5b200ac8c7c3b92584604051610dc39190612ed1565b60405180910390a36001905092915050565b600080600254905060008114610e0657610e0181610df1610b79565b856129b79092919063ffffffff16565b610e08565b825b915050919050565b60025481565b600a5481565b600080600460008673ffffffffffffffffffffffffffffffffffffffff1673ffffffffffffffffffffffffffffffffffffffff16815260200190815260200160002060003373ffffffffffffffffffffffffffffffffffffffff1673ffffffffffffffffffffffffffffffffffffffff1681526020019081526020016000205490507fffffffffffffffffffffffffffffffffffffffffffffffffffffffffffffffff8114610f52578281610ed191906135cc565b600460008773ffffffffffffffffffffffffffffffffffffffff1673ffffffffffffffffffffffffffffffffffffffff16815260200190815260200160002060003373ffffffffffffffffffffffffffffffffffffffff1673ffffffffffffffffffffffffffffffffffffffff168152602001908152602001600020819055505b82600360008773ffffffffffffffffffffffffffffffffffffffff1673ffffffffffffffffffffffffffffffffffffffff1681526020019081526020016000206000828254610fa191906135cc565b9250508190555082600360008673ffffffffffffffffffffffffffffffffffffffff1673ffffffffffffffffffffffffffffffffffffffff168152602001908152602001600020600082825401925050819055508373ffffffffffffffffffffffffffffffffffffffff168573ffffffffffffffffffffffffffffffffffffffff167fddf252ad1be2c89b69c2b068fc378daa952ba7f163c4a11628f55a4df523b3ef856040516110529190612ed1565b60405180910390a360019150509392505050565b7f000000000000000000000000000000000000000000000000000000000000000081565b3373ffffffffffffffffffffffffffffffffffffffff166110a9611305565b73ffffffffffffffffffffffffffffffffffffffff16146110ff576040517f08c379a00000000000000000000000000000000000000000000000000000000081526004016110f690613672565b60405180910390fd5b80158061119d575060127f000000000000000000000000000000000000000000000000000000000000000073ffffffffffffffffffffffffffffffffffffffff1663313ce5676040518163ffffffff1660e01b8152600401602060405180830381865afa158015611174573d6000803e3d6000fd5b505050506040513d601f19601f8201168201806040525081019061119891906136a7565b60ff16145b6111dc576040517f08c379a00000000000000000000000000000000000000000000000000000000081526004016111d390613720565b60405180910390fd5b80600b60006101000a81548160ff0219169083151502179055503373ffffffffffffffffffffffffffffffffffffffff167f6375b140d4463d47b864f1f47e5d2893cc3478e73aedcc268b054fab0230a8418260405161123c91906130be565b60405180910390a250565b60007f0000000000000000000000000000000000000000000000000000000000000000461461127d576112786129e9565b61129f565b7f00000000000000000000000000000000000000000000000000000000000000005b905090565b7f000000000000000000000000000000000000000000000000000000000000000081565b600d60009054906101000a900460ff1681565b60007fffffffffffffffffffffffffffffffffffffffffffffffffffffffffffffffff9050919050565b6000600660009054906101000a900473ffffffffffffffffffffffffffffffffffffffff16905090565b600061133a82610ca8565b9050919050565b60008061134d846127bf565b9150811415611391576040517f08c379a00000000000000000000000000000000000000000000000000000000081526004016113889061378c565b60405180910390fd5b6113de3330857f000000000000000000000000000000000000000000000000000000000000000073ffffffffffffffffffffffffffffffffffffffff16612a75909392919063ffffffff16565b6113e88282612b14565b8173ffffffffffffffffffffffffffffffffffffffff163373ffffffffffffffffffffffffffffffffffffffff167fdcbc1c05240f31ff3ad067ef1ee35ce4997762752e3a095284754544f4c709d785846040516114479291906137ac565b60405180910390a36114598382612be4565b92915050565b60036020528060005260406000206000915090505481565b3373ffffffffffffffffffffffffffffffffffffffff16611496611305565b73ffffffffffffffffffffffffffffffffffffffff16146114ec576040517f08c379a00000000000000000000000000000000000000000000000000000000081526004016114e390613672565b60405180910390fd5b600073ffffffffffffffffffffffffffffffffffffffff16600660009054906101000a900473ffffffffffffffffffffffffffffffffffffffff1673ffffffffffffffffffffffffffffffffffffffff167f8be0079c531659141344cd1fd0a4f28419497f9722a3daafe3b4186f6b6457e060405160405180910390a36000600660006101000a81548173ffffffffffffffffffffffffffffffffffffffff021916908373ffffffffffffffffffffffffffffffffffffffff160217905550565b3373ffffffffffffffffffffffffffffffffffffffff166115cc611305565b73ffffffffffffffffffffffffffffffffffffffff1614611622576040517f08c379a000000000000000000000000000000000000000000000000000000000815260040161161990613672565b60405180910390fd5b670de0b6b3a764000081111561166d576040517f08c379a000000000000000000000000000000000000000000000000000000000815260040161166490613821565b60405180910390fd5b806009819055503373ffffffffffffffffffffffffffffffffffffffff167fec370615cc81fb334e5566fbc80664d9082377bf59288d64a79f3fbecf4323a9826040516116ba9190612ed1565b60405180910390a250565b60056020528060005260406000206000915090505481565b60095481565b3373ffffffffffffffffffffffffffffffffffffffff16611702611305565b73ffffffffffffffffffffffffffffffffffffffff1614611758576040517f08c379a000000000000000000000000000000000000000000000000000000000815260040161174f90613672565b60405180910390fd5b3373ffffffffffffffffffffffffffffffffffffffff16ff5b3373ffffffffffffffffffffffffffffffffffffffff16611790611305565b73ffffffffffffffffffffffffffffffffffffffff16146117e6576040517f08c379a00000000000000000000000000000000000000000000000000000000081526004016117dd90613672565b60405180910390fd5b600d60009054906101000a900460ff1615611836576040517f08c379a000000000000000000000000000000000000000000000000000000000815260040161182d9061388d565b60405180910390fd5b6001600d60006101000a81548160ff021916908315150217905550600060028190555061187d82620186a08373ffffffffffffffffffffffffffffffffffffffff16612c00565b503373ffffffffffffffffffffffffffffffffffffffff167f908408e307fc569b417f6cbec5d5a06f44a0a505ac0479b47d421a4b2fd6a1e660405160405180910390a2600d60019054906101000a900460ff1615611913577fda9fcd4a22655136641ea6451669f22ddb60b968c2cd77b015da4796ad8faeb9600160405161190691906130be565b60405180910390a161194c565b7fda9fcd4a22655136641ea6451669f22ddb60b968c2cd77b015da4796ad8faeb9600060405161194391906130be565b60405180910390a15b5050565b600061195b83611d12565b90506119aa3330837f000000000000000000000000000000000000000000000000000000000000000073ffffffffffffffffffffffffffffffffffffffff16612a75909392919063ffffffff16565b6119b48284612b14565b8173ffffffffffffffffffffffffffffffffffffffff163373ffffffffffffffffffffffffffffffffffffffff167fdcbc1c05240f31ff3ad067ef1ee35ce4997762752e3a095284754544f4c709d78386604051611a139291906137ac565b60405180910390a3611a258184612be4565b92915050565b60018054611a389061356b565b80601f0160208091040260200160405190810160405280929190818152602001828054611a649061356b565b8015611ab15780601f10611a8657610100808354040283529160200191611ab1565b820191906000526020600020905b815481529060010190602001808311611a9457829003601f168201915b505050505081565b600081600360003373ffffffffffffffffffffffffffffffffffffffff1673ffffffffffffffffffffffffffffffffffffffff1681526020019081526020016000206000828254611b0a91906135cc565b9250508190555081600360008573ffffffffffffffffffffffffffffffffffffffff1673ffffffffffffffffffffffffffffffffffffffff168152602001908152602001600020600082825401925050819055508273ffffffffffffffffffffffffffffffffffffffff163373ffffffffffffffffffffffffffffffffffffffff167fddf252ad1be2c89b69c2b068fc378daa952ba7f163c4a11628f55a4df523b3ef84604051611bbb9190612ed1565b60405180910390a36001905092915050565b3373ffffffffffffffffffffffffffffffffffffffff16611bec611305565b73ffffffffffffffffffffffffffffffffffffffff1614611c42576040517f08c379a0000000000000000000000000000000000000000000000000000000008152600401611c3990613672565b60405180910390fd5b3373ffffffffffffffffffffffffffffffffffffffff167f9493e5bbe4e8e0ac67284469a2d677403d0378a85a59e341d3abc433d0d9a20982604051611c889190612ed1565b60405180910390a23073ffffffffffffffffffffffffffffffffffffffff1663a9059cbb33836040518363ffffffff1660e01b8152600401611ccb9291906138ad565b6020604051808303816000875af1158015611cea573d6000803e3d6000fd5b505050506040513d601f19601f82011682018060405250810190611d0e91906138eb565b5050565b600080600254905060008114611d4357611d3e611d2d610b79565b82856129b79092919063ffffffff16565b611d45565b825b915050919050565b6000611d5884610dd5565b90508173ffffffffffffffffffffffffffffffffffffffff163373ffffffffffffffffffffffffffffffffffffffff1614611ec4576000600460008473ffffffffffffffffffffffffffffffffffffffff1673ffffffffffffffffffffffffffffffffffffffff16815260200190815260200160002060003373ffffffffffffffffffffffffffffffffffffffff1673ffffffffffffffffffffffffffffffffffffffff1681526020019081526020016000205490507fffffffffffffffffffffffffffffffffffffffffffffffffffffffffffffffff8114611ec2578181611e4191906135cc565b600460008573ffffffffffffffffffffffffffffffffffffffff1673ffffffffffffffffffffffffffffffffffffffff16815260200190815260200160002060003373ffffffffffffffffffffffffffffffffffffffff1673ffffffffffffffffffffffffffffffffffffffff168152602001908152602001600020819055505b505b611ece8482612d34565b611ed88282612d50565b8173ffffffffffffffffffffffffffffffffffffffff168373ffffffffffffffffffffffffffffffffffffffff163373ffffffffffffffffffffffffffffffffffffffff167ffbde797d201c681b91056529119e0b02407c7bb96a4a2c75c01fc9667232c8db8785604051611f4e9291906137ac565b60405180910390a4611fa183857f000000000000000000000000000000000000000000000000000000000000000073ffffffffffffffffffffffffffffffffffffffff16612e209092919063ffffffff16565b9392505050565b60008173ffffffffffffffffffffffffffffffffffffffff163373ffffffffffffffffffffffffffffffffffffffff1614612114576000600460008473ffffffffffffffffffffffffffffffffffffffff1673ffffffffffffffffffffffffffffffffffffffff16815260200190815260200160002060003373ffffffffffffffffffffffffffffffffffffffff1673ffffffffffffffffffffffffffffffffffffffff1681526020019081526020016000205490507fffffffffffffffffffffffffffffffffffffffffffffffffffffffffffffffff811461211257848161209191906135cc565b600460008573ffffffffffffffffffffffffffffffffffffffff1673ffffffffffffffffffffffffffffffffffffffff16815260200190815260200160002060003373ffffffffffffffffffffffffffffffffffffffff1673ffffffffffffffffffffffffffffffffffffffff168152602001908152602001600020819055505b505b600061211f8561132f565b9150811415612163576040517f08c379a000000000000000000000000000000000000000000000000000000000815260040161215a90613964565b60405180910390fd5b61216d8185612d34565b6121778285612d50565b8173ffffffffffffffffffffffffffffffffffffffff168373ffffffffffffffffffffffffffffffffffffffff163373ffffffffffffffffffffffffffffffffffffffff167ffbde797d201c681b91056529119e0b02407c7bb96a4a2c75c01fc9667232c8db84886040516121ed9291906137ac565b60405180910390a461224083827f000000000000000000000000000000000000000000000000000000000000000073ffffffffffffffffffffffffffffffffffffffff16612e209092919063ffffffff16565b9392505050565b60075481565b3373ffffffffffffffffffffffffffffffffffffffff1661226c611305565b73ffffffffffffffffffffffffffffffffffffffff16146122c2576040517f08c379a00000000000000000000000000000000000000000000000000000000081526004016122b990613672565b60405180910390fd5b670de0b6b3a764000081111561230d576040517f08c379a0000000000000000000000000000000000000000000000000000000008152600401612304906139d0565b60405180910390fd5b80600a819055503373ffffffffffffffffffffffffffffffffffffffff167f95bc4480b51f4860106d42850bcae222cf3303fb2b7d433e896205e0ebefe3698260405161235a9190612ed1565b60405180910390a250565b7f000000000000000000000000000000000000000000000000000000000000000081565b60007fffffffffffffffffffffffffffffffffffffffffffffffffffffffffffffffff9050919050565b6000806002549050600081146123e4576123df816123cf610b79565b8561298f9092919063ffffffff16565b6123e6565b825b915050919050565b6000612438600360008473ffffffffffffffffffffffffffffffffffffffff1673ffffffffffffffffffffffffffffffffffffffff16815260200190815260200160002054610ca8565b9050919050565b42841015612482576040517f08c379a000000000000000000000000000000000000000000000000000000000815260040161247990613a3c565b60405180910390fd5b6000600161248e611247565b7f6e71edae12b1b97f4d1f60370fef10105fa2faae0126114a169c64845d6126c98a8a8a600560008f73ffffffffffffffffffffffffffffffffffffffff1673ffffffffffffffffffffffffffffffffffffffff1681526020019081526020016000206000815480929190600101919050558b60405160200161251696959493929190613a5c565b6040516020818303038152906040528051906020012060405160200161253d929190613b35565b60405160208183030381529060405280519060200120858585604051600081526020016040526040516125739493929190613b6c565b6020604051602081039080840390855afa158015612595573d6000803e3d6000fd5b505050602060405103519050600073ffffffffffffffffffffffffffffffffffffffff168173ffffffffffffffffffffffffffffffffffffffff161415801561260957508773ffffffffffffffffffffffffffffffffffffffff168173ffffffffffffffffffffffffffffffffffffffff16145b612648576040517f08c379a000000000000000000000000000000000000000000000000000000000815260040161263f90613bfd565b60405180910390fd5b85600460008373ffffffffffffffffffffffffffffffffffffffff1673ffffffffffffffffffffffffffffffffffffffff16815260200190815260200160002060008973ffffffffffffffffffffffffffffffffffffffff1673ffffffffffffffffffffffffffffffffffffffff16815260200190815260200160002081905550508573ffffffffffffffffffffffffffffffffffffffff168773ffffffffffffffffffffffffffffffffffffffff167f8c5be1e5ebec7d5bd14f71427d1e84f3dd0314c0f7b2291e5b200ac8c7c3b925876040516127279190612ed1565b60405180910390a350505050505050565b6000600360008373ffffffffffffffffffffffffffffffffffffffff1673ffffffffffffffffffffffffffffffffffffffff168152602001908152602001600020549050919050565b600d60019054906101000a900460ff1681565b6004602052816000526040600020602052806000526040600020600091509150505481565b600c5481565b60006127ca826123b3565b9050919050565b3373ffffffffffffffffffffffffffffffffffffffff166127f0611305565b73ffffffffffffffffffffffffffffffffffffffff1614612846576040517f08c379a000000000000000000000000000000000000000000000000000000000815260040161283d90613672565b60405180910390fd5b600073ffffffffffffffffffffffffffffffffffffffff168173ffffffffffffffffffffffffffffffffffffffff1614156128b6576040517f08c379a00000000000000000000000000000000000000000000000000000000081526004016128ad90613c8f565b60405180910390fd5b8073ffffffffffffffffffffffffffffffffffffffff16600660009054906101000a900473ffffffffffffffffffffffffffffffffffffffff1673ffffffffffffffffffffffffffffffffffffffff167f8be0079c531659141344cd1fd0a4f28419497f9722a3daafe3b4186f6b6457e060405160405180910390a380600660006101000a81548173ffffffffffffffffffffffffffffffffffffffff021916908373ffffffffffffffffffffffffffffffffffffffff16021790555050565b600b60009054906101000a900460ff1681565b60085481565b600082840290508284820414841517821515166129ab57600080fd5b81810490509392505050565b600082840290508284820414841517821515166129d357600080fd5b6001826001830304018115150290509392505050565b60007f8b73c3c69bb8fe3d512ecc4cf759cc79239f7b179b0ffacaa9a75d522b39400f6000604051612a1b9190613d4e565b60405180910390207fc89efdaa54c0f20c7adf612882df0950f5a951637e0307cdcb4c672f298b8bc64630604051602001612a5a959493929190613d65565b60405160208183030381529060405280519060200120905090565b60006040517f23b872dd0000000000000000000000000000000000000000000000000000000081528460048201528360248201528260448201526020600060648360008a5af13d15601f3d1160016000511416171691505080612b0d576040517f08c379a0000000000000000000000000000000000000000000000000000000008152600401612b0490613e04565b60405180910390fd5b5050505050565b8060026000828254612b269190613e24565b9250508190555080600360008473ffffffffffffffffffffffffffffffffffffffff1673ffffffffffffffffffffffffffffffffffffffff168152602001908152602001600020600082825401925050819055508173ffffffffffffffffffffffffffffffffffffffff16600073ffffffffffffffffffffffffffffffffffffffff167fddf252ad1be2c89b69c2b068fc378daa952ba7f163c4a11628f55a4df523b3ef83604051612bd89190612ed1565b60405180910390a35050565b60086000815480929190612bf790613e7a565b91905055505050565b60008060008573ffffffffffffffffffffffffffffffffffffffff1684604051612c2990613ee9565b60006040518083038185875af1925050503d8060008114612c66576040519150601f19603f3d011682016040523d82523d6000602084013e612c6b565b606091505b509150915081612cb0576040517f08c379a0000000000000000000000000000000000000000000000000000000008152600401612ca790613f4a565b60405180910390fd5b3073ffffffffffffffffffffffffffffffffffffffff168673ffffffffffffffffffffffffffffffffffffffff167f921fce8b04203d2c416691cd9e563c8c78d2f6ac4d8f522a65f940640ff6609187604051612d0d9190613f9b565b60405180910390a380806020019051810190612d2991906138eb565b925050509392505050565b60076000815480929190612d4790613e7a565b91905055505050565b80600360008473ffffffffffffffffffffffffffffffffffffffff1673ffffffffffffffffffffffffffffffffffffffff1681526020019081526020016000206000828254612d9f91906135cc565b9250508190555080600260008282540392505081905550600073ffffffffffffffffffffffffffffffffffffffff168273ffffffffffffffffffffffffffffffffffffffff167fddf252ad1be2c89b69c2b068fc378daa952ba7f163c4a11628f55a4df523b3ef83604051612e149190612ed1565b60405180910390a35050565b60006040517fa9059cbb000000000000000000000000000000000000000000000000000000008152836004820152826024820152602060006044836000895af13d15601f3d1160016000511416171691505080612eb2576040517f08c379a0000000000000000000000000000000000000000000000000000000008152600401612ea990614002565b60405180910390fd5b50505050565b6000819050919050565b612ecb81612eb8565b82525050565b6000602082019050612ee66000830184612ec2565b92915050565b600081519050919050565b600082825260208201905092915050565b60005b83811015612f26578082015181840152602081019050612f0b565b83811115612f35576000848401525b50505050565b6000601f19601f8301169050919050565b6000612f5782612eec565b612f618185612ef7565b9350612f71818560208601612f08565b612f7a81612f3b565b840191505092915050565b60006020820190508181036000830152612f9f8184612f4c565b905092915050565b600080fd5b612fb581612eb8565b8114612fc057600080fd5b50565b600081359050612fd281612fac565b92915050565b600060208284031215612fee57612fed612fa7565b5b6000612ffc84828501612fc3565b91505092915050565b600073ffffffffffffffffffffffffffffffffffffffff82169050919050565b600061303082613005565b9050919050565b61304081613025565b811461304b57600080fd5b50565b60008135905061305d81613037565b92915050565b6000806040838503121561307a57613079612fa7565b5b60006130888582860161304e565b925050602061309985828601612fc3565b9150509250929050565b60008115159050919050565b6130b8816130a3565b82525050565b60006020820190506130d360008301846130af565b92915050565b6000806000606084860312156130f2576130f1612fa7565b5b60006131008682870161304e565b93505060206131118682870161304e565b925050604061312286828701612fc3565b9150509250925092565b600060ff82169050919050565b6131428161312c565b82525050565b600060208201905061315d6000830184613139565b92915050565b61316c816130a3565b811461317757600080fd5b50565b60008135905061318981613163565b92915050565b6000602082840312156131a5576131a4612fa7565b5b60006131b38482850161317a565b91505092915050565b6000819050919050565b6131cf816131bc565b82525050565b60006020820190506131ea60008301846131c6565b92915050565b6000819050919050565b600061321561321061320b84613005565b6131f0565b613005565b9050919050565b6000613227826131fa565b9050919050565b60006132398261321c565b9050919050565b6132498161322e565b82525050565b60006020820190506132646000830184613240565b92915050565b6000602082840312156132805761327f612fa7565b5b600061328e8482850161304e565b91505092915050565b6132a081613025565b82525050565b60006020820190506132bb6000830184613297565b92915050565b600080604083850312156132d8576132d7612fa7565b5b60006132e685828601612fc3565b92505060206132f78582860161304e565b9150509250929050565b61330a81613005565b811461331557600080fd5b50565b60008135905061332781613301565b92915050565b6000806040838503121561334457613343612fa7565b5b60006133528582860161304e565b925050602061336385828601613318565b9150509250929050565b60008060006060848603121561338657613385612fa7565b5b600061339486828701612fc3565b93505060206133a58682870161304e565b92505060406133b68682870161304e565b9150509250925092565b6133c98161312c565b81146133d457600080fd5b50565b6000813590506133e6816133c0565b92915050565b6133f5816131bc565b811461340057600080fd5b50565b600081359050613412816133ec565b92915050565b600080600080600080600060e0888a03121561343757613436612fa7565b5b60006134458a828b0161304e565b97505060206134568a828b0161304e565b96505060406134678a828b01612fc3565b95505060606134788a828b01612fc3565b94505060806134898a828b016133d7565b93505060a061349a8a828b01613403565b92505060c06134ab8a828b01613403565b91505092959891949750929550565b600080604083850312156134d1576134d0612fa7565b5b60006134df8582860161304e565b92505060206134f08582860161304e565b9150509250929050565b60008151905061350981612fac565b92915050565b60006020828403121561352557613524612fa7565b5b6000613533848285016134fa565b91505092915050565b7f4e487b7100000000000000000000000000000000000000000000000000000000600052602260045260246000fd5b6000600282049050600182168061358357607f821691505b602082108114156135975761359661353c565b5b50919050565b7f4e487b7100000000000000000000000000000000000000000000000000000000600052601160045260246000fd5b60006135d782612eb8565b91506135e283612eb8565b9250828210156135f5576135f461359d565b5b828203905092915050565b7f4f776e61626c653a2063616c6c6572206973206e6f7420746865206d616e616760008201527f6572000000000000000000000000000000000000000000000000000000000000602082015250565b600061365c602283612ef7565b915061366782613600565b604082019050919050565b6000602082019050818103600083015261368b8161364f565b9050919050565b6000815190506136a1816133c0565b92915050565b6000602082840312156136bd576136bc612fa7565b5b60006136cb84828501613692565b91505092915050565b7f57524f4e475f444543494d414c53000000000000000000000000000000000000600082015250565b600061370a600e83612ef7565b9150613715826136d4565b602082019050919050565b60006020820190508181036000830152613739816136fd565b9050919050565b7f5a45524f5f534841524553000000000000000000000000000000000000000000600082015250565b6000613776600b83612ef7565b915061378182613740565b602082019050919050565b600060208201905081810360008301526137a581613769565b9050919050565b60006040820190506137c16000830185612ec2565b6137ce6020830184612ec2565b9392505050565b7f4645455f544f4f5f484947480000000000000000000000000000000000000000600082015250565b600061380b600c83612ef7565b9150613816826137d5565b602082019050919050565b6000602082019050818103600083015261383a816137fe565b9050919050565b7f414c52454144595f494e495449414c495a454400000000000000000000000000600082015250565b6000613877601383612ef7565b915061388282613841565b602082019050919050565b600060208201905081810360008301526138a68161386a565b9050919050565b60006040820190506138c26000830185613297565b6138cf6020830184612ec2565b9392505050565b6000815190506138e581613163565b92915050565b60006020828403121561390157613900612fa7565b5b600061390f848285016138d6565b91505092915050565b7f5a45524f5f415353455453000000000000000000000000000000000000000000600082015250565b600061394e600b83612ef7565b915061395982613918565b602082019050919050565b6000602082019050818103600083015261397d81613941565b9050919050565b7f5441524745545f544f4f5f484947480000000000000000000000000000000000600082015250565b60006139ba600f83612ef7565b91506139c582613984565b602082019050919050565b600060208201905081810360008301526139e9816139ad565b9050919050565b7f5045524d49545f444541444c494e455f45585049524544000000000000000000600082015250565b6000613a26601783612ef7565b9150613a31826139f0565b602082019050919050565b60006020820190508181036000830152613a5581613a19565b9050919050565b600060c082019050613a7160008301896131c6565b613a7e6020830188613297565b613a8b6040830187613297565b613a986060830186612ec2565b613aa56080830185612ec2565b613ab260a0830184612ec2565b979650505050505050565b600081905092915050565b7f1901000000000000000000000000000000000000000000000000000000000000600082015250565b6000613afe600283613abd565b9150613b0982613ac8565b600282019050919050565b6000819050919050565b613b2f613b2a826131bc565b613b14565b82525050565b6000613b4082613af1565b9150613b4c8285613b1e565b602082019150613b5c8284613b1e565b6020820191508190509392505050565b6000608082019050613b8160008301876131c6565b613b8e6020830186613139565b613b9b60408301856131c6565b613ba860608301846131c6565b95945050505050565b7f494e56414c49445f5349474e4552000000000000000000000000000000000000600082015250565b6000613be7600e83612ef7565b9150613bf282613bb1565b602082019050919050565b60006020820190508181036000830152613c1681613bda565b9050919050565b7f4f776e61626c653a206e6577206d616e6167657220697320746865207a65726f60008201527f2061646472657373000000000000000000000000000000000000000000000000602082015250565b6000613c79602883612ef7565b9150613c8482613c1d565b604082019050919050565b60006020820190508181036000830152613ca881613c6c565b9050919050565b600081905092915050565b60008190508160005260206000209050919050565b60008154613cdc8161356b565b613ce68186613caf565b94506001821660008114613d015760018114613d1257613d45565b60ff19831686528186019350613d45565b613d1b85613cba565b60005b83811015613d3d57815481890152600182019150602081019050613d1e565b838801955050505b50505092915050565b6000613d5a8284613ccf565b915081905092915050565b600060a082019050613d7a60008301886131c6565b613d8760208301876131c6565b613d9460408301866131c6565b613da16060830185612ec2565b613dae6080830184613297565b9695505050505050565b7f5452414e534645525f46524f4d5f4641494c4544000000000000000000000000600082015250565b6000613dee601483612ef7565b9150613df982613db8565b602082019050919050565b60006020820190508181036000830152613e1d81613de1565b9050919050565b6000613e2f82612eb8565b9150613e3a83612eb8565b9250827fffffffffffffffffffffffffffffffffffffffffffffffffffffffffffffffff03821115613e6f57613e6e61359d565b5b828201905092915050565b6000613e8582612eb8565b91507fffffffffffffffffffffffffffffffffffffffffffffffffffffffffffffffff821415613eb857613eb761359d565b5b600182019050919050565b50565b6000613ed3600083613caf565b9150613ede82613ec3565b600082019050919050565b6000613ef482613ec6565b9150819050919050565b7f53747261746567792041206661696c6564000000000000000000000000000000600082015250565b6000613f34601183612ef7565b9150613f3f82613efe565b602082019050919050565b60006020820190508181036000830152613f6381613f27565b9050919050565b6000613f85613f80613f7b84613005565b6131f0565b612eb8565b9050919050565b613f9581613f6a565b82525050565b6000602082019050613fb06000830184613f8c565b92915050565b7f5452414e534645525f4641494c45440000000000000000000000000000000000600082015250565b6000613fec600f83612ef7565b9150613ff782613fb6565b602082019050919050565b6000602082019050818103600083015261401b81613fdf565b905091905056fea26469706673582212201c6d7b46b7b17e6a2c511d24170f87dabd9839b1b82e3564561c1ea341ea846a64736f6c634300080a0033",
			"opcodes": "PUSH2 0x140 PUSH1 0x40 MSTORE PUSH1 0x0 PUSH1 0x7 SSTORE PUSH1 0x0 PUSH1 0x8 SSTORE CALLVALUE DUP1 ISZERO PUSH3 0x1C JUMPI PUSH1 0x0 DUP1 REVERT JUMPDEST POP PUSH1 0x40 MLOAD PUSH3 0x4A16 CODESIZE SUB DUP1 PUSH3 0x4A16 DUP4 CODECOPY DUP2 DUP2 ADD PUSH1 0x40 MSTORE DUP2 ADD SWAP1 PUSH3 0x42 SWAP2 SWAP1 PUSH3 0x4F6 JUMP JUMPDEST DUP4 DUP4 DUP4 DUP4 DUP3 DUP3 DUP3 DUP3 PUSH1 0x0 SWAP1 DUP1 MLOAD SWAP1 PUSH1 0x20 ADD SWAP1 PUSH3 0x61 SWAP3 SWAP2 SWAP1 PUSH3 0x1F2 JUMP JUMPDEST POP DUP2 PUSH1 0x1 SWAP1 DUP1 MLOAD SWAP1 PUSH1 0x20 ADD SWAP1 PUSH3 0x7A SWAP3 SWAP2 SWAP1 PUSH3 0x1F2 JUMP JUMPDEST POP DUP1 PUSH1 0xFF AND PUSH1 0x80 DUP2 PUSH1 0xFF AND DUP2 MSTORE POP POP CHAINID PUSH1 0xA0 DUP2 DUP2 MSTORE POP POP PUSH3 0xA1 PUSH3 0x162 PUSH1 0x20 SHL PUSH1 0x20 SHR JUMP JUMPDEST PUSH1 0xC0 DUP2 DUP2 MSTORE POP POP POP POP POP DUP4 PUSH20 0xFFFFFFFFFFFFFFFFFFFFFFFFFFFFFFFFFFFFFFFF AND PUSH1 0xE0 DUP2 PUSH20 0xFFFFFFFFFFFFFFFFFFFFFFFFFFFFFFFFFFFFFFFF AND DUP2 MSTORE POP POP POP POP POP POP DUP4 PUSH20 0xFFFFFFFFFFFFFFFFFFFFFFFFFFFFFFFFFFFFFFFF AND PUSH2 0x120 DUP2 PUSH20 0xFFFFFFFFFFFFFFFFFFFFFFFFFFFFFFFFFFFFFFFF AND DUP2 MSTORE POP POP PUSH1 0x80 MLOAD PUSH1 0xA PUSH3 0x129 SWAP2 SWAP1 PUSH3 0x733 JUMP JUMPDEST PUSH2 0x100 DUP2 DUP2 MSTORE POP POP PUSH32 0xFFFFFFFFFFFFFFFFFFFFFFFFFFFFFFFFFFFFFFFFFFFFFFFFFFFFFFFFFFFFFFFF PUSH1 0x2 DUP2 SWAP1 SSTORE POP POP POP POP POP PUSH3 0x947 JUMP JUMPDEST PUSH1 0x0 PUSH32 0x8B73C3C69BB8FE3D512ECC4CF759CC79239F7B179B0FFACAA9A75D522B39400F PUSH1 0x0 PUSH1 0x40 MLOAD PUSH3 0x196 SWAP2 SWAP1 PUSH3 0x894 JUMP JUMPDEST PUSH1 0x40 MLOAD DUP1 SWAP2 SUB SWAP1 KECCAK256 PUSH32 0xC89EFDAA54C0F20C7ADF612882DF0950F5A951637E0307CDCB4C672F298B8BC6 CHAINID ADDRESS PUSH1 0x40 MLOAD PUSH1 0x20 ADD PUSH3 0x1D7 SWAP6 SWAP5 SWAP4 SWAP3 SWAP2 SWAP1 PUSH3 0x8EA JUMP JUMPDEST PUSH1 0x40 MLOAD PUSH1 0x20 DUP2 DUP4 SUB SUB DUP2 MSTORE SWAP1 PUSH1 0x40 MSTORE DUP1 MLOAD SWAP1 PUSH1 0x20 ADD KECCAK256 SWAP1 POP SWAP1 JUMP JUMPDEST DUP3 DUP1 SLOAD PUSH3 0x200 SWAP1 PUSH3 0x7B3 JUMP JUMPDEST SWAP1 PUSH1 0x0 MSTORE PUSH1 0x20 PUSH1 0x0 KECCAK256 SWAP1 PUSH1 0x1F ADD PUSH1 0x20 SWAP1 DIV DUP2 ADD SWAP3 DUP3 PUSH3 0x224 JUMPI PUSH1 0x0 DUP6 SSTORE PUSH3 0x270 JUMP JUMPDEST DUP3 PUSH1 0x1F LT PUSH3 0x23F JUMPI DUP1 MLOAD PUSH1 0xFF NOT AND DUP4 DUP1 ADD OR DUP6 SSTORE PUSH3 0x270 JUMP JUMPDEST DUP3 DUP1 ADD PUSH1 0x1 ADD DUP6 SSTORE DUP3 ISZERO PUSH3 0x270 JUMPI SWAP2 DUP3 ADD JUMPDEST DUP3 DUP2 GT ISZERO PUSH3 0x26F JUMPI DUP3 MLOAD DUP3 SSTORE SWAP2 PUSH1 0x20 ADD SWAP2 SWAP1 PUSH1 0x1 ADD SWAP1 PUSH3 0x252 JUMP JUMPDEST JUMPDEST POP SWAP1 POP PUSH3 0x27F SWAP2 SWAP1 PUSH3 0x283 JUMP JUMPDEST POP SWAP1 JUMP JUMPDEST JUMPDEST DUP1 DUP3 GT ISZERO PUSH3 0x29E JUMPI PUSH1 0x0 DUP2 PUSH1 0x0 SWAP1 SSTORE POP PUSH1 0x1 ADD PUSH3 0x284 JUMP JUMPDEST POP SWAP1 JUMP JUMPDEST PUSH1 0x0 PUSH1 0x40 MLOAD SWAP1 POP SWAP1 JUMP JUMPDEST PUSH1 0x0 DUP1 REVERT JUMPDEST PUSH1 0x0 DUP1 REVERT JUMPDEST PUSH1 0x0 PUSH20 0xFFFFFFFFFFFFFFFFFFFFFFFFFFFFFFFFFFFFFFFF DUP3 AND SWAP1 POP SWAP2 SWAP1 POP JUMP JUMPDEST PUSH1 0x0 PUSH3 0x2E3 DUP3 PUSH3 0x2B6 JUMP JUMPDEST SWAP1 POP SWAP2 SWAP1 POP JUMP JUMPDEST PUSH1 0x0 PUSH3 0x2F7 DUP3 PUSH3 0x2D6 JUMP JUMPDEST SWAP1 POP SWAP2 SWAP1 POP JUMP JUMPDEST PUSH3 0x309 DUP2 PUSH3 0x2EA JUMP JUMPDEST DUP2 EQ PUSH3 0x315 JUMPI PUSH1 0x0 DUP1 REVERT JUMPDEST POP JUMP JUMPDEST PUSH1 0x0 DUP2 MLOAD SWAP1 POP PUSH3 0x329 DUP2 PUSH3 0x2FE JUMP JUMPDEST SWAP3 SWAP2 POP POP JUMP JUMPDEST PUSH1 0x0 DUP1 REVERT JUMPDEST PUSH1 0x0 DUP1 REVERT JUMPDEST PUSH1 0x0 PUSH1 0x1F NOT PUSH1 0x1F DUP4 ADD AND SWAP1 POP SWAP2 SWAP1 POP JUMP JUMPDEST PUSH32 0x4E487B7100000000000000000000000000000000000000000000000000000000 PUSH1 0x0 MSTORE PUSH1 0x41 PUSH1 0x4 MSTORE PUSH1 0x24 PUSH1 0x0 REVERT JUMPDEST PUSH3 0x384 DUP3 PUSH3 0x339 JUMP JUMPDEST DUP2 ADD DUP2 DUP2 LT PUSH8 0xFFFFFFFFFFFFFFFF DUP3 GT OR ISZERO PUSH3 0x3A6 JUMPI PUSH3 0x3A5 PUSH3 0x34A JUMP JUMPDEST JUMPDEST DUP1 PUSH1 0x40 MSTORE POP POP POP JUMP JUMPDEST PUSH1 0x0 PUSH3 0x3BB PUSH3 0x2A2 JUMP JUMPDEST SWAP1 POP PUSH3 0x3C9 DUP3 DUP3 PUSH3 0x379 JUMP JUMPDEST SWAP2 SWAP1 POP JUMP JUMPDEST PUSH1 0x0 PUSH8 0xFFFFFFFFFFFFFFFF DUP3 GT ISZERO PUSH3 0x3EC JUMPI PUSH3 0x3EB PUSH3 0x34A JUMP JUMPDEST JUMPDEST PUSH3 0x3F7 DUP3 PUSH3 0x339 JUMP JUMPDEST SWAP1 POP PUSH1 0x20 DUP2 ADD SWAP1 POP SWAP2 SWAP1 POP JUMP JUMPDEST PUSH1 0x0 JUMPDEST DUP4 DUP2 LT ISZERO PUSH3 0x424 JUMPI DUP1 DUP3 ADD MLOAD DUP2 DUP5 ADD MSTORE PUSH1 0x20 DUP2 ADD SWAP1 POP PUSH3 0x407 JUMP JUMPDEST DUP4 DUP2 GT ISZERO PUSH3 0x434 JUMPI PUSH1 0x0 DUP5 DUP5 ADD MSTORE JUMPDEST POP POP POP POP JUMP JUMPDEST PUSH1 0x0 PUSH3 0x451 PUSH3 0x44B DUP5 PUSH3 0x3CE JUMP JUMPDEST PUSH3 0x3AF JUMP JUMPDEST SWAP1 POP DUP3 DUP2 MSTORE PUSH1 0x20 DUP2 ADD DUP5 DUP5 DUP5 ADD GT ISZERO PUSH3 0x470 JUMPI PUSH3 0x46F PUSH3 0x334 JUMP JUMPDEST JUMPDEST PUSH3 0x47D DUP5 DUP3 DUP6 PUSH3 0x404 JUMP JUMPDEST POP SWAP4 SWAP3 POP POP POP JUMP JUMPDEST PUSH1 0x0 DUP3 PUSH1 0x1F DUP4 ADD SLT PUSH3 0x49D JUMPI PUSH3 0x49C PUSH3 0x32F JUMP JUMPDEST JUMPDEST DUP2 MLOAD PUSH3 0x4AF DUP5 DUP3 PUSH1 0x20 DUP7 ADD PUSH3 0x43A JUMP JUMPDEST SWAP2 POP POP SWAP3 SWAP2 POP POP JUMP JUMPDEST PUSH1 0x0 PUSH1 0xFF DUP3 AND SWAP1 POP SWAP2 SWAP1 POP JUMP JUMPDEST PUSH3 0x4D0 DUP2 PUSH3 0x4B8 JUMP JUMPDEST DUP2 EQ PUSH3 0x4DC JUMPI PUSH1 0x0 DUP1 REVERT JUMPDEST POP JUMP JUMPDEST PUSH1 0x0 DUP2 MLOAD SWAP1 POP PUSH3 0x4F0 DUP2 PUSH3 0x4C5 JUMP JUMPDEST SWAP3 SWAP2 POP POP JUMP JUMPDEST PUSH1 0x0 DUP1 PUSH1 0x0 DUP1 PUSH1 0x80 DUP6 DUP8 SUB SLT ISZERO PUSH3 0x513 JUMPI PUSH3 0x512 PUSH3 0x2AC JUMP JUMPDEST JUMPDEST PUSH1 0x0 PUSH3 0x523 DUP8 DUP3 DUP9 ADD PUSH3 0x318 JUMP JUMPDEST SWAP5 POP POP PUSH1 0x20 DUP6 ADD MLOAD PUSH8 0xFFFFFFFFFFFFFFFF DUP2 GT ISZERO PUSH3 0x547 JUMPI PUSH3 0x546 PUSH3 0x2B1 JUMP JUMPDEST JUMPDEST PUSH3 0x555 DUP8 DUP3 DUP9 ADD PUSH3 0x485 JUMP JUMPDEST SWAP4 POP POP PUSH1 0x40 DUP6 ADD MLOAD PUSH8 0xFFFFFFFFFFFFFFFF DUP2 GT ISZERO PUSH3 0x579 JUMPI PUSH3 0x578 PUSH3 0x2B1 JUMP JUMPDEST JUMPDEST PUSH3 0x587 DUP8 DUP3 DUP9 ADD PUSH3 0x485 JUMP JUMPDEST SWAP3 POP POP PUSH1 0x60 PUSH3 0x59A DUP8 DUP3 DUP9 ADD PUSH3 0x4DF JUMP JUMPDEST SWAP2 POP POP SWAP3 SWAP6 SWAP2 SWAP5 POP SWAP3 POP JUMP JUMPDEST PUSH32 0x4E487B7100000000000000000000000000000000000000000000000000000000 PUSH1 0x0 MSTORE PUSH1 0x11 PUSH1 0x4 MSTORE PUSH1 0x24 PUSH1 0x0 REVERT JUMPDEST PUSH1 0x0 DUP2 PUSH1 0x1 SHR SWAP1 POP SWAP2 SWAP1 POP JUMP JUMPDEST PUSH1 0x0 DUP1 DUP3 SWAP2 POP DUP4 SWAP1 POP JUMPDEST PUSH1 0x1 DUP6 GT ISZERO PUSH3 0x634 JUMPI DUP1 DUP7 DIV DUP2 GT ISZERO PUSH3 0x60C JUMPI PUSH3 0x60B PUSH3 0x5A6 JUMP JUMPDEST JUMPDEST PUSH1 0x1 DUP6 AND ISZERO PUSH3 0x61C JUMPI DUP1 DUP3 MUL SWAP2 POP JUMPDEST DUP1 DUP2 MUL SWAP1 POP PUSH3 0x62C DUP6 PUSH3 0x5D5 JUMP JUMPDEST SWAP5 POP PUSH3 0x5EC JUMP JUMPDEST SWAP5 POP SWAP5 SWAP3 POP POP POP JUMP JUMPDEST PUSH1 0x0 DUP3 PUSH3 0x64F JUMPI PUSH1 0x1 SWAP1 POP PUSH3 0x722 JUMP JUMPDEST DUP2 PUSH3 0x65F JUMPI PUSH1 0x0 SWAP1 POP PUSH3 0x722 JUMP JUMPDEST DUP2 PUSH1 0x1 DUP2 EQ PUSH3 0x678 JUMPI PUSH1 0x2 DUP2 EQ PUSH3 0x683 JUMPI PUSH3 0x6B9 JUMP JUMPDEST PUSH1 0x1 SWAP2 POP POP PUSH3 0x722 JUMP JUMPDEST PUSH1 0xFF DUP5 GT ISZERO PUSH3 0x698 JUMPI PUSH3 0x697 PUSH3 0x5A6 JUMP JUMPDEST JUMPDEST DUP4 PUSH1 0x2 EXP SWAP2 POP DUP5 DUP3 GT ISZERO PUSH3 0x6B2 JUMPI PUSH3 0x6B1 PUSH3 0x5A6 JUMP JUMPDEST JUMPDEST POP PUSH3 0x722 JUMP JUMPDEST POP PUSH1 0x20 DUP4 LT PUSH2 0x133 DUP4 LT AND PUSH1 0x4E DUP5 LT PUSH1 0xB DUP5 LT AND OR ISZERO PUSH3 0x6F3 JUMPI DUP3 DUP3 EXP SWAP1 POP DUP4 DUP2 GT ISZERO PUSH3 0x6ED JUMPI PUSH3 0x6EC PUSH3 0x5A6 JUMP JUMPDEST JUMPDEST PUSH3 0x722 JUMP JUMPDEST PUSH3 0x702 DUP5 DUP5 DUP5 PUSH1 0x1 PUSH3 0x5E2 JUMP JUMPDEST SWAP3 POP SWAP1 POP DUP2 DUP5 DIV DUP2 GT ISZERO PUSH3 0x71C JUMPI PUSH3 0x71B PUSH3 0x5A6 JUMP JUMPDEST JUMPDEST DUP2 DUP2 MUL SWAP1 POP JUMPDEST SWAP4 SWAP3 POP POP POP JUMP JUMPDEST PUSH1 0x0 DUP2 SWAP1 POP SWAP2 SWAP1 POP JUMP JUMPDEST PUSH1 0x0 PUSH3 0x740 DUP3 PUSH3 0x729 JUMP JUMPDEST SWAP2 POP PUSH3 0x74D DUP4 PUSH3 0x4B8 JUMP JUMPDEST SWAP3 POP PUSH3 0x77C PUSH32 0xFFFFFFFFFFFFFFFFFFFFFFFFFFFFFFFFFFFFFFFFFFFFFFFFFFFFFFFFFFFFFFFF DUP5 DUP5 PUSH3 0x63D JUMP JUMPDEST SWAP1 POP SWAP3 SWAP2 POP POP JUMP JUMPDEST PUSH32 0x4E487B7100000000000000000000000000000000000000000000000000000000 PUSH1 0x0 MSTORE PUSH1 0x22 PUSH1 0x4 MSTORE PUSH1 0x24 PUSH1 0x0 REVERT JUMPDEST PUSH1 0x0 PUSH1 0x2 DUP3 DIV SWAP1 POP PUSH1 0x1 DUP3 AND DUP1 PUSH3 0x7CC JUMPI PUSH1 0x7F DUP3 AND SWAP2 POP JUMPDEST PUSH1 0x20 DUP3 LT DUP2 EQ ISZERO PUSH3 0x7E3 JUMPI PUSH3 0x7E2 PUSH3 0x784 JUMP JUMPDEST JUMPDEST POP SWAP2 SWAP1 POP JUMP JUMPDEST PUSH1 0x0 DUP2 SWAP1 POP SWAP3 SWAP2 POP POP JUMP JUMPDEST PUSH1 0x0 DUP2 SWAP1 POP DUP2 PUSH1 0x0 MSTORE PUSH1 0x20 PUSH1 0x0 KECCAK256 SWAP1 POP SWAP2 SWAP1 POP JUMP JUMPDEST PUSH1 0x0 DUP2 SLOAD PUSH3 0x818 DUP2 PUSH3 0x7B3 JUMP JUMPDEST PUSH3 0x824 DUP2 DUP7 PUSH3 0x7E9 JUMP JUMPDEST SWAP5 POP PUSH1 0x1 DUP3 AND PUSH1 0x0 DUP2 EQ PUSH3 0x842 JUMPI PUSH1 0x1 DUP2 EQ PUSH3 0x854 JUMPI PUSH3 0x88B JUMP JUMPDEST PUSH1 0xFF NOT DUP4 AND DUP7 MSTORE DUP2 DUP7 ADD SWAP4 POP PUSH3 0x88B JUMP JUMPDEST PUSH3 0x85F DUP6 PUSH3 0x7F4 JUMP JUMPDEST PUSH1 0x0 JUMPDEST DUP4 DUP2 LT ISZERO PUSH3 0x883 JUMPI DUP2 SLOAD DUP2 DUP10 ADD MSTORE PUSH1 0x1 DUP3 ADD SWAP2 POP PUSH1 0x20 DUP2 ADD SWAP1 POP PUSH3 0x862 JUMP JUMPDEST DUP4 DUP9 ADD SWAP6 POP POP POP JUMPDEST POP POP POP SWAP3 SWAP2 POP POP JUMP JUMPDEST PUSH1 0x0 PUSH3 0x8A2 DUP3 DUP5 PUSH3 0x809 JUMP JUMPDEST SWAP2 POP DUP2 SWAP1 POP SWAP3 SWAP2 POP POP JUMP JUMPDEST PUSH1 0x0 DUP2 SWAP1 POP SWAP2 SWAP1 POP JUMP JUMPDEST PUSH3 0x8C2 DUP2 PUSH3 0x8AD JUMP JUMPDEST DUP3 MSTORE POP POP JUMP JUMPDEST PUSH3 0x8D3 DUP2 PUSH3 0x729 JUMP JUMPDEST DUP3 MSTORE POP POP JUMP JUMPDEST PUSH3 0x8E4 DUP2 PUSH3 0x2D6 JUMP JUMPDEST DUP3 MSTORE POP POP JUMP JUMPDEST PUSH1 0x0 PUSH1 0xA0 DUP3 ADD SWAP1 POP PUSH3 0x901 PUSH1 0x0 DUP4 ADD DUP9 PUSH3 0x8B7 JUMP JUMPDEST PUSH3 0x910 PUSH1 0x20 DUP4 ADD DUP8 PUSH3 0x8B7 JUMP JUMPDEST PUSH3 0x91F PUSH1 0x40 DUP4 ADD DUP7 PUSH3 0x8B7 JUMP JUMPDEST PUSH3 0x92E PUSH1 0x60 DUP4 ADD DUP6 PUSH3 0x8C8 JUMP JUMPDEST PUSH3 0x93D PUSH1 0x80 DUP4 ADD DUP5 PUSH3 0x8D9 JUMP JUMPDEST SWAP7 SWAP6 POP POP POP POP POP POP JUMP JUMPDEST PUSH1 0x80 MLOAD PUSH1 0xA0 MLOAD PUSH1 0xC0 MLOAD PUSH1 0xE0 MLOAD PUSH2 0x100 MLOAD PUSH2 0x120 MLOAD PUSH2 0x4058 PUSH3 0x9BE PUSH1 0x0 CODECOPY PUSH1 0x0 DUP2 DUP2 PUSH2 0x110B ADD MSTORE PUSH2 0x2367 ADD MSTORE PUSH1 0x0 POP POP PUSH1 0x0 DUP2 DUP2 PUSH2 0xB7D ADD MSTORE DUP2 DUP2 PUSH2 0x12A6 ADD MSTORE DUP2 DUP2 PUSH2 0x1399 ADD MSTORE DUP2 DUP2 PUSH2 0x1965 ADD MSTORE DUP2 DUP2 PUSH2 0x1F5D ADD MSTORE PUSH2 0x21FC ADD MSTORE PUSH1 0x0 PUSH2 0x127F ADD MSTORE PUSH1 0x0 PUSH2 0x124B ADD MSTORE PUSH1 0x0 PUSH2 0x1068 ADD MSTORE PUSH2 0x4058 PUSH1 0x0 RETURN INVALID PUSH1 0x80 PUSH1 0x40 MSTORE PUSH1 0x4 CALLDATASIZE LT PUSH2 0x281 JUMPI PUSH1 0x0 CALLDATALOAD PUSH1 0xE0 SHR DUP1 PUSH4 0x8BF0A96E GT PUSH2 0x14F JUMPI DUP1 PUSH4 0xC63D75B6 GT PUSH2 0xC1 JUMPI DUP1 PUSH4 0xDD62ED3E GT PUSH2 0x7A JUMPI DUP1 PUSH4 0xDD62ED3E EQ PUSH2 0xA55 JUMPI DUP1 PUSH4 0xECAD9565 EQ PUSH2 0xA92 JUMPI DUP1 PUSH4 0xEF8B30F7 EQ PUSH2 0xABD JUMPI DUP1 PUSH4 0xF2FDE38B EQ PUSH2 0xAFA JUMPI DUP1 PUSH4 0xF84D73F4 EQ PUSH2 0xB23 JUMPI DUP1 PUSH4 0xFC407AE7 EQ PUSH2 0xB4E JUMPI PUSH2 0x288 JUMP JUMPDEST DUP1 PUSH4 0xC63D75B6 EQ PUSH2 0x90D JUMPI DUP1 PUSH4 0xC6E6F592 EQ PUSH2 0x94A JUMPI DUP1 PUSH4 0xCE96CB77 EQ PUSH2 0x987 JUMPI DUP1 PUSH4 0xD505ACCF EQ PUSH2 0x9C4 JUMPI DUP1 PUSH4 0xD905777E EQ PUSH2 0x9ED JUMPI DUP1 PUSH4 0xDC9A1535 EQ PUSH2 0xA2A JUMPI PUSH2 0x288 JUMP JUMPDEST DUP1 PUSH4 0xB3D7F6B9 GT PUSH2 0x113 JUMPI DUP1 PUSH4 0xB3D7F6B9 EQ PUSH2 0x7D7 JUMPI DUP1 PUSH4 0xB460AF94 EQ PUSH2 0x814 JUMPI DUP1 PUSH4 0xBA087652 EQ PUSH2 0x851 JUMPI DUP1 PUSH4 0xBC368A8A EQ PUSH2 0x88E JUMPI DUP1 PUSH4 0xBD662F88 EQ PUSH2 0x8B9 JUMPI DUP1 PUSH4 0xC5D664C6 EQ PUSH2 0x8E2 JUMPI PUSH2 0x288 JUMP JUMPDEST DUP1 PUSH4 0x8BF0A96E EQ PUSH2 0x6E0 JUMPI DUP1 PUSH4 0x94BF804D EQ PUSH2 0x709 JUMPI DUP1 PUSH4 0x95D89B41 EQ PUSH2 0x746 JUMPI DUP1 PUSH4 0xA9059CBB EQ PUSH2 0x771 JUMPI DUP1 PUSH4 0xAC68A748 EQ PUSH2 0x7AE JUMPI PUSH2 0x288 JUMP JUMPDEST DUP1 PUSH4 0x38D52E0F GT PUSH2 0x1F3 JUMPI DUP1 PUSH4 0x70A08231 GT PUSH2 0x1AC JUMPI DUP1 PUSH4 0x70A08231 EQ PUSH2 0x5E4 JUMPI DUP1 PUSH4 0x715018A6 EQ PUSH2 0x621 JUMPI DUP1 PUSH4 0x7CE3489B EQ PUSH2 0x638 JUMPI DUP1 PUSH4 0x7ECEBE00 EQ PUSH2 0x661 JUMPI DUP1 PUSH4 0x7FD6F15C EQ PUSH2 0x69E JUMPI DUP1 PUSH4 0x83197EF0 EQ PUSH2 0x6C9 JUMPI PUSH2 0x288 JUMP JUMPDEST DUP1 PUSH4 0x38D52E0F EQ PUSH2 0x4AC JUMPI DUP1 PUSH4 0x392E53CD EQ PUSH2 0x4D7 JUMPI DUP1 PUSH4 0x402D267D EQ PUSH2 0x502 JUMPI DUP1 PUSH4 0x481C6A75 EQ PUSH2 0x53F JUMPI DUP1 PUSH4 0x4CDAD506 EQ PUSH2 0x56A JUMPI DUP1 PUSH4 0x6E553F65 EQ PUSH2 0x5A7 JUMPI PUSH2 0x288 JUMP JUMPDEST DUP1 PUSH4 0x18160DDD GT PUSH2 0x245 JUMPI DUP1 PUSH4 0x18160DDD EQ PUSH2 0x39A JUMPI DUP1 PUSH4 0x1C693478 EQ PUSH2 0x3C5 JUMPI DUP1 PUSH4 0x23B872DD EQ PUSH2 0x3F0 JUMPI DUP1 PUSH4 0x313CE567 EQ PUSH2 0x42D JUMPI DUP1 PUSH4 0x32FF7732 EQ PUSH2 0x458 JUMPI DUP1 PUSH4 0x3644E515 EQ PUSH2 0x481 JUMPI PUSH2 0x288 JUMP JUMPDEST DUP1 PUSH4 0x1E1D114 EQ PUSH2 0x28D JUMPI DUP1 PUSH4 0x6FDDE03 EQ PUSH2 0x2B8 JUMPI DUP1 PUSH4 0x7A2D13A EQ PUSH2 0x2E3 JUMPI DUP1 PUSH4 0x95EA7B3 EQ PUSH2 0x320 JUMPI DUP1 PUSH4 0xA28A477 EQ PUSH2 0x35D JUMPI PUSH2 0x288 JUMP JUMPDEST CALLDATASIZE PUSH2 0x288 JUMPI STOP JUMPDEST PUSH1 0x0 DUP1 REVERT JUMPDEST CALLVALUE DUP1 ISZERO PUSH2 0x299 JUMPI PUSH1 0x0 DUP1 REVERT JUMPDEST POP PUSH2 0x2A2 PUSH2 0xB79 JUMP JUMPDEST PUSH1 0x40 MLOAD PUSH2 0x2AF SWAP2 SWAP1 PUSH2 0x2ED1 JUMP JUMPDEST PUSH1 0x40 MLOAD DUP1 SWAP2 SUB SWAP1 RETURN JUMPDEST CALLVALUE DUP1 ISZERO PUSH2 0x2C4 JUMPI PUSH1 0x0 DUP1 REVERT JUMPDEST POP PUSH2 0x2CD PUSH2 0xC1A JUMP JUMPDEST PUSH1 0x40 MLOAD PUSH2 0x2DA SWAP2 SWAP1 PUSH2 0x2F85 JUMP JUMPDEST PUSH1 0x40 MLOAD DUP1 SWAP2 SUB SWAP1 RETURN JUMPDEST CALLVALUE DUP1 ISZERO PUSH2 0x2EF JUMPI PUSH1 0x0 DUP1 REVERT JUMPDEST POP PUSH2 0x30A PUSH1 0x4 DUP1 CALLDATASIZE SUB DUP2 ADD SWAP1 PUSH2 0x305 SWAP2 SWAP1 PUSH2 0x2FD8 JUMP JUMPDEST PUSH2 0xCA8 JUMP JUMPDEST PUSH1 0x40 MLOAD PUSH2 0x317 SWAP2 SWAP1 PUSH2 0x2ED1 JUMP JUMPDEST PUSH1 0x40 MLOAD DUP1 SWAP2 SUB SWAP1 RETURN JUMPDEST CALLVALUE DUP1 ISZERO PUSH2 0x32C JUMPI PUSH1 0x0 DUP1 REVERT JUMPDEST POP PUSH2 0x347 PUSH1 0x4 DUP1 CALLDATASIZE SUB DUP2 ADD SWAP1 PUSH2 0x342 SWAP2 SWAP1 PUSH2 0x3063 JUMP JUMPDEST PUSH2 0xCE3 JUMP JUMPDEST PUSH1 0x40 MLOAD PUSH2 0x354 SWAP2 SWAP1 PUSH2 0x30BE JUMP JUMPDEST PUSH1 0x40 MLOAD DUP1 SWAP2 SUB SWAP1 RETURN JUMPDEST CALLVALUE DUP1 ISZERO PUSH2 0x369 JUMPI PUSH1 0x0 DUP1 REVERT JUMPDEST POP PUSH2 0x384 PUSH1 0x4 DUP1 CALLDATASIZE SUB DUP2 ADD SWAP1 PUSH2 0x37F SWAP2 SWAP1 PUSH2 0x2FD8 JUMP JUMPDEST PUSH2 0xDD5 JUMP JUMPDEST PUSH1 0x40 MLOAD PUSH2 0x391 SWAP2 SWAP1 PUSH2 0x2ED1 JUMP JUMPDEST PUSH1 0x40 MLOAD DUP1 SWAP2 SUB SWAP1 RETURN JUMPDEST CALLVALUE DUP1 ISZERO PUSH2 0x3A6 JUMPI PUSH1 0x0 DUP1 REVERT JUMPDEST POP PUSH2 0x3AF PUSH2 0xE10 JUMP JUMPDEST PUSH1 0x40 MLOAD PUSH2 0x3BC SWAP2 SWAP1 PUSH2 0x2ED1 JUMP JUMPDEST PUSH1 0x40 MLOAD DUP1 SWAP2 SUB SWAP1 RETURN JUMPDEST CALLVALUE DUP1 ISZERO PUSH2 0x3D1 JUMPI PUSH1 0x0 DUP1 REVERT JUMPDEST POP PUSH2 0x3DA PUSH2 0xE16 JUMP JUMPDEST PUSH1 0x40 MLOAD PUSH2 0x3E7 SWAP2 SWAP1 PUSH2 0x2ED1 JUMP JUMPDEST PUSH1 0x40 MLOAD DUP1 SWAP2 SUB SWAP1 RETURN JUMPDEST CALLVALUE DUP1 ISZERO PUSH2 0x3FC JUMPI PUSH1 0x0 DUP1 REVERT JUMPDEST POP PUSH2 0x417 PUSH1 0x4 DUP1 CALLDATASIZE SUB DUP2 ADD SWAP1 PUSH2 0x412 SWAP2 SWAP1 PUSH2 0x30D9 JUMP JUMPDEST PUSH2 0xE1C JUMP JUMPDEST PUSH1 0x40 MLOAD PUSH2 0x424 SWAP2 SWAP1 PUSH2 0x30BE JUMP JUMPDEST PUSH1 0x40 MLOAD DUP1 SWAP2 SUB SWAP1 RETURN JUMPDEST CALLVALUE DUP1 ISZERO PUSH2 0x439 JUMPI PUSH1 0x0 DUP1 REVERT JUMPDEST POP PUSH2 0x442 PUSH2 0x1066 JUMP JUMPDEST PUSH1 0x40 MLOAD PUSH2 0x44F SWAP2 SWAP1 PUSH2 0x3148 JUMP JUMPDEST PUSH1 0x40 MLOAD DUP1 SWAP2 SUB SWAP1 RETURN JUMPDEST CALLVALUE DUP1 ISZERO PUSH2 0x464 JUMPI PUSH1 0x0 DUP1 REVERT JUMPDEST POP PUSH2 0x47F PUSH1 0x4 DUP1 CALLDATASIZE SUB DUP2 ADD SWAP1 PUSH2 0x47A SWAP2 SWAP1 PUSH2 0x318F JUMP JUMPDEST PUSH2 0x108A JUMP JUMPDEST STOP JUMPDEST CALLVALUE DUP1 ISZERO PUSH2 0x48D JUMPI PUSH1 0x0 DUP1 REVERT JUMPDEST POP PUSH2 0x496 PUSH2 0x1247 JUMP JUMPDEST PUSH1 0x40 MLOAD PUSH2 0x4A3 SWAP2 SWAP1 PUSH2 0x31D5 JUMP JUMPDEST PUSH1 0x40 MLOAD DUP1 SWAP2 SUB SWAP1 RETURN JUMPDEST CALLVALUE DUP1 ISZERO PUSH2 0x4B8 JUMPI PUSH1 0x0 DUP1 REVERT JUMPDEST POP PUSH2 0x4C1 PUSH2 0x12A4 JUMP JUMPDEST PUSH1 0x40 MLOAD PUSH2 0x4CE SWAP2 SWAP1 PUSH2 0x324F JUMP JUMPDEST PUSH1 0x40 MLOAD DUP1 SWAP2 SUB SWAP1 RETURN JUMPDEST CALLVALUE DUP1 ISZERO PUSH2 0x4E3 JUMPI PUSH1 0x0 DUP1 REVERT JUMPDEST POP PUSH2 0x4EC PUSH2 0x12C8 JUMP JUMPDEST PUSH1 0x40 MLOAD PUSH2 0x4F9 SWAP2 SWAP1 PUSH2 0x30BE JUMP JUMPDEST PUSH1 0x40 MLOAD DUP1 SWAP2 SUB SWAP1 RETURN JUMPDEST CALLVALUE DUP1 ISZERO PUSH2 0x50E JUMPI PUSH1 0x0 DUP1 REVERT JUMPDEST POP PUSH2 0x529 PUSH1 0x4 DUP1 CALLDATASIZE SUB DUP2 ADD SWAP1 PUSH2 0x524 SWAP2 SWAP1 PUSH2 0x326A JUMP JUMPDEST PUSH2 0x12DB JUMP JUMPDEST PUSH1 0x40 MLOAD PUSH2 0x536 SWAP2 SWAP1 PUSH2 0x2ED1 JUMP JUMPDEST PUSH1 0x40 MLOAD DUP1 SWAP2 SUB SWAP1 RETURN JUMPDEST CALLVALUE DUP1 ISZERO PUSH2 0x54B JUMPI PUSH1 0x0 DUP1 REVERT JUMPDEST POP PUSH2 0x554 PUSH2 0x1305 JUMP JUMPDEST PUSH1 0x40 MLOAD PUSH2 0x561 SWAP2 SWAP1 PUSH2 0x32A6 JUMP JUMPDEST PUSH1 0x40 MLOAD DUP1 SWAP2 SUB SWAP1 RETURN JUMPDEST CALLVALUE DUP1 ISZERO PUSH2 0x576 JUMPI PUSH1 0x0 DUP1 REVERT JUMPDEST POP PUSH2 0x591 PUSH1 0x4 DUP1 CALLDATASIZE SUB DUP2 ADD SWAP1 PUSH2 0x58C SWAP2 SWAP1 PUSH2 0x2FD8 JUMP JUMPDEST PUSH2 0x132F JUMP JUMPDEST PUSH1 0x40 MLOAD PUSH2 0x59E SWAP2 SWAP1 PUSH2 0x2ED1 JUMP JUMPDEST PUSH1 0x40 MLOAD DUP1 SWAP2 SUB SWAP1 RETURN JUMPDEST CALLVALUE DUP1 ISZERO PUSH2 0x5B3 JUMPI PUSH1 0x0 DUP1 REVERT JUMPDEST POP PUSH2 0x5CE PUSH1 0x4 DUP1 CALLDATASIZE SUB DUP2 ADD SWAP1 PUSH2 0x5C9 SWAP2 SWAP1 PUSH2 0x32C1 JUMP JUMPDEST PUSH2 0x1341 JUMP JUMPDEST PUSH1 0x40 MLOAD PUSH2 0x5DB SWAP2 SWAP1 PUSH2 0x2ED1 JUMP JUMPDEST PUSH1 0x40 MLOAD DUP1 SWAP2 SUB SWAP1 RETURN JUMPDEST CALLVALUE DUP1 ISZERO PUSH2 0x5F0 JUMPI PUSH1 0x0 DUP1 REVERT JUMPDEST POP PUSH2 0x60B PUSH1 0x4 DUP1 CALLDATASIZE SUB DUP2 ADD SWAP1 PUSH2 0x606 SWAP2 SWAP1 PUSH2 0x326A JUMP JUMPDEST PUSH2 0x145F JUMP JUMPDEST PUSH1 0x40 MLOAD PUSH2 0x618 SWAP2 SWAP1 PUSH2 0x2ED1 JUMP JUMPDEST PUSH1 0x40 MLOAD DUP1 SWAP2 SUB SWAP1 RETURN JUMPDEST CALLVALUE DUP1 ISZERO PUSH2 0x62D JUMPI PUSH1 0x0 DUP1 REVERT JUMPDEST POP PUSH2 0x636 PUSH2 0x1477 JUMP JUMPDEST STOP JUMPDEST CALLVALUE DUP1 ISZERO PUSH2 0x644 JUMPI PUSH1 0x0 DUP1 REVERT JUMPDEST POP PUSH2 0x65F PUSH1 0x4 DUP1 CALLDATASIZE SUB DUP2 ADD SWAP1 PUSH2 0x65A SWAP2 SWAP1 PUSH2 0x2FD8 JUMP JUMPDEST PUSH2 0x15AD JUMP JUMPDEST STOP JUMPDEST CALLVALUE DUP1 ISZERO PUSH2 0x66D JUMPI PUSH1 0x0 DUP1 REVERT JUMPDEST POP PUSH2 0x688 PUSH1 0x4 DUP1 CALLDATASIZE SUB DUP2 ADD SWAP1 PUSH2 0x683 SWAP2 SWAP1 PUSH2 0x326A JUMP JUMPDEST PUSH2 0x16C5 JUMP JUMPDEST PUSH1 0x40 MLOAD PUSH2 0x695 SWAP2 SWAP1 PUSH2 0x2ED1 JUMP JUMPDEST PUSH1 0x40 MLOAD DUP1 SWAP2 SUB SWAP1 RETURN JUMPDEST CALLVALUE DUP1 ISZERO PUSH2 0x6AA JUMPI PUSH1 0x0 DUP1 REVERT JUMPDEST POP PUSH2 0x6B3 PUSH2 0x16DD JUMP JUMPDEST PUSH1 0x40 MLOAD PUSH2 0x6C0 SWAP2 SWAP1 PUSH2 0x2ED1 JUMP JUMPDEST PUSH1 0x40 MLOAD DUP1 SWAP2 SUB SWAP1 RETURN JUMPDEST CALLVALUE DUP1 ISZERO PUSH2 0x6D5 JUMPI PUSH1 0x0 DUP1 REVERT JUMPDEST POP PUSH2 0x6DE PUSH2 0x16E3 JUMP JUMPDEST STOP JUMPDEST CALLVALUE DUP1 ISZERO PUSH2 0x6EC JUMPI PUSH1 0x0 DUP1 REVERT JUMPDEST POP PUSH2 0x707 PUSH1 0x4 DUP1 CALLDATASIZE SUB DUP2 ADD SWAP1 PUSH2 0x702 SWAP2 SWAP1 PUSH2 0x332D JUMP JUMPDEST PUSH2 0x1771 JUMP JUMPDEST STOP JUMPDEST CALLVALUE DUP1 ISZERO PUSH2 0x715 JUMPI PUSH1 0x0 DUP1 REVERT JUMPDEST POP PUSH2 0x730 PUSH1 0x4 DUP1 CALLDATASIZE SUB DUP2 ADD SWAP1 PUSH2 0x72B SWAP2 SWAP1 PUSH2 0x32C1 JUMP JUMPDEST PUSH2 0x1950 JUMP JUMPDEST PUSH1 0x40 MLOAD PUSH2 0x73D SWAP2 SWAP1 PUSH2 0x2ED1 JUMP JUMPDEST PUSH1 0x40 MLOAD DUP1 SWAP2 SUB SWAP1 RETURN JUMPDEST CALLVALUE DUP1 ISZERO PUSH2 0x752 JUMPI PUSH1 0x0 DUP1 REVERT JUMPDEST POP PUSH2 0x75B PUSH2 0x1A2B JUMP JUMPDEST PUSH1 0x40 MLOAD PUSH2 0x768 SWAP2 SWAP1 PUSH2 0x2F85 JUMP JUMPDEST PUSH1 0x40 MLOAD DUP1 SWAP2 SUB SWAP1 RETURN JUMPDEST CALLVALUE DUP1 ISZERO PUSH2 0x77D JUMPI PUSH1 0x0 DUP1 REVERT JUMPDEST POP PUSH2 0x798 PUSH1 0x4 DUP1 CALLDATASIZE SUB DUP2 ADD SWAP1 PUSH2 0x793 SWAP2 SWAP1 PUSH2 0x3063 JUMP JUMPDEST PUSH2 0x1AB9 JUMP JUMPDEST PUSH1 0x40 MLOAD PUSH2 0x7A5 SWAP2 SWAP1 PUSH2 0x30BE JUMP JUMPDEST PUSH1 0x40 MLOAD DUP1 SWAP2 SUB SWAP1 RETURN JUMPDEST CALLVALUE DUP1 ISZERO PUSH2 0x7BA JUMPI PUSH1 0x0 DUP1 REVERT JUMPDEST POP PUSH2 0x7D5 PUSH1 0x4 DUP1 CALLDATASIZE SUB DUP2 ADD SWAP1 PUSH2 0x7D0 SWAP2 SWAP1 PUSH2 0x2FD8 JUMP JUMPDEST PUSH2 0x1BCD JUMP JUMPDEST STOP JUMPDEST CALLVALUE DUP1 ISZERO PUSH2 0x7E3 JUMPI PUSH1 0x0 DUP1 REVERT JUMPDEST POP PUSH2 0x7FE PUSH1 0x4 DUP1 CALLDATASIZE SUB DUP2 ADD SWAP1 PUSH2 0x7F9 SWAP2 SWAP1 PUSH2 0x2FD8 JUMP JUMPDEST PUSH2 0x1D12 JUMP JUMPDEST PUSH1 0x40 MLOAD PUSH2 0x80B SWAP2 SWAP1 PUSH2 0x2ED1 JUMP JUMPDEST PUSH1 0x40 MLOAD DUP1 SWAP2 SUB SWAP1 RETURN JUMPDEST CALLVALUE DUP1 ISZERO PUSH2 0x820 JUMPI PUSH1 0x0 DUP1 REVERT JUMPDEST POP PUSH2 0x83B PUSH1 0x4 DUP1 CALLDATASIZE SUB DUP2 ADD SWAP1 PUSH2 0x836 SWAP2 SWAP1 PUSH2 0x336D JUMP JUMPDEST PUSH2 0x1D4D JUMP JUMPDEST PUSH1 0x40 MLOAD PUSH2 0x848 SWAP2 SWAP1 PUSH2 0x2ED1 JUMP JUMPDEST PUSH1 0x40 MLOAD DUP1 SWAP2 SUB SWAP1 RETURN JUMPDEST CALLVALUE DUP1 ISZERO PUSH2 0x85D JUMPI PUSH1 0x0 DUP1 REVERT JUMPDEST POP PUSH2 0x878 PUSH1 0x4 DUP1 CALLDATASIZE SUB DUP2 ADD SWAP1 PUSH2 0x873 SWAP2 SWAP1 PUSH2 0x336D JUMP JUMPDEST PUSH2 0x1FA8 JUMP JUMPDEST PUSH1 0x40 MLOAD PUSH2 0x885 SWAP2 SWAP1 PUSH2 0x2ED1 JUMP JUMPDEST PUSH1 0x40 MLOAD DUP1 SWAP2 SUB SWAP1 RETURN JUMPDEST CALLVALUE DUP1 ISZERO PUSH2 0x89A JUMPI PUSH1 0x0 DUP1 REVERT JUMPDEST POP PUSH2 0x8A3 PUSH2 0x2247 JUMP JUMPDEST PUSH1 0x40 MLOAD PUSH2 0x8B0 SWAP2 SWAP1 PUSH2 0x2ED1 JUMP JUMPDEST PUSH1 0x40 MLOAD DUP1 SWAP2 SUB SWAP1 RETURN JUMPDEST CALLVALUE DUP1 ISZERO PUSH2 0x8C5 JUMPI PUSH1 0x0 DUP1 REVERT JUMPDEST POP PUSH2 0x8E0 PUSH1 0x4 DUP1 CALLDATASIZE SUB DUP2 ADD SWAP1 PUSH2 0x8DB SWAP2 SWAP1 PUSH2 0x2FD8 JUMP JUMPDEST PUSH2 0x224D JUMP JUMPDEST STOP JUMPDEST CALLVALUE DUP1 ISZERO PUSH2 0x8EE JUMPI PUSH1 0x0 DUP1 REVERT JUMPDEST POP PUSH2 0x8F7 PUSH2 0x2365 JUMP JUMPDEST PUSH1 0x40 MLOAD PUSH2 0x904 SWAP2 SWAP1 PUSH2 0x324F JUMP JUMPDEST PUSH1 0x40 MLOAD DUP1 SWAP2 SUB SWAP1 RETURN JUMPDEST CALLVALUE DUP1 ISZERO PUSH2 0x919 JUMPI PUSH1 0x0 DUP1 REVERT JUMPDEST POP PUSH2 0x934 PUSH1 0x4 DUP1 CALLDATASIZE SUB DUP2 ADD SWAP1 PUSH2 0x92F SWAP2 SWAP1 PUSH2 0x326A JUMP JUMPDEST PUSH2 0x2389 JUMP JUMPDEST PUSH1 0x40 MLOAD PUSH2 0x941 SWAP2 SWAP1 PUSH2 0x2ED1 JUMP JUMPDEST PUSH1 0x40 MLOAD DUP1 SWAP2 SUB SWAP1 RETURN JUMPDEST CALLVALUE DUP1 ISZERO PUSH2 0x956 JUMPI PUSH1 0x0 DUP1 REVERT JUMPDEST POP PUSH2 0x971 PUSH1 0x4 DUP1 CALLDATASIZE SUB DUP2 ADD SWAP1 PUSH2 0x96C SWAP2 SWAP1 PUSH2 0x2FD8 JUMP JUMPDEST PUSH2 0x23B3 JUMP JUMPDEST PUSH1 0x40 MLOAD PUSH2 0x97E SWAP2 SWAP1 PUSH2 0x2ED1 JUMP JUMPDEST PUSH1 0x40 MLOAD DUP1 SWAP2 SUB SWAP1 RETURN JUMPDEST CALLVALUE DUP1 ISZERO PUSH2 0x993 JUMPI PUSH1 0x0 DUP1 REVERT JUMPDEST POP PUSH2 0x9AE PUSH1 0x4 DUP1 CALLDATASIZE SUB DUP2 ADD SWAP1 PUSH2 0x9A9 SWAP2 SWAP1 PUSH2 0x326A JUMP JUMPDEST PUSH2 0x23EE JUMP JUMPDEST PUSH1 0x40 MLOAD PUSH2 0x9BB SWAP2 SWAP1 PUSH2 0x2ED1 JUMP JUMPDEST PUSH1 0x40 MLOAD DUP1 SWAP2 SUB SWAP1 RETURN JUMPDEST CALLVALUE DUP1 ISZERO PUSH2 0x9D0 JUMPI PUSH1 0x0 DUP1 REVERT JUMPDEST POP PUSH2 0x9EB PUSH1 0x4 DUP1 CALLDATASIZE SUB DUP2 ADD SWAP1 PUSH2 0x9E6 SWAP2 SWAP1 PUSH2 0x3418 JUMP JUMPDEST PUSH2 0x243F JUMP JUMPDEST STOP JUMPDEST CALLVALUE DUP1 ISZERO PUSH2 0x9F9 JUMPI PUSH1 0x0 DUP1 REVERT JUMPDEST POP PUSH2 0xA14 PUSH1 0x4 DUP1 CALLDATASIZE SUB DUP2 ADD SWAP1 PUSH2 0xA0F SWAP2 SWAP1 PUSH2 0x326A JUMP JUMPDEST PUSH2 0x2738 JUMP JUMPDEST PUSH1 0x40 MLOAD PUSH2 0xA21 SWAP2 SWAP1 PUSH2 0x2ED1 JUMP JUMPDEST PUSH1 0x40 MLOAD DUP1 SWAP2 SUB SWAP1 RETURN JUMPDEST CALLVALUE DUP1 ISZERO PUSH2 0xA36 JUMPI PUSH1 0x0 DUP1 REVERT JUMPDEST POP PUSH2 0xA3F PUSH2 0x2781 JUMP JUMPDEST PUSH1 0x40 MLOAD PUSH2 0xA4C SWAP2 SWAP1 PUSH2 0x30BE JUMP JUMPDEST PUSH1 0x40 MLOAD DUP1 SWAP2 SUB SWAP1 RETURN JUMPDEST CALLVALUE DUP1 ISZERO PUSH2 0xA61 JUMPI PUSH1 0x0 DUP1 REVERT JUMPDEST POP PUSH2 0xA7C PUSH1 0x4 DUP1 CALLDATASIZE SUB DUP2 ADD SWAP1 PUSH2 0xA77 SWAP2 SWAP1 PUSH2 0x34BA JUMP JUMPDEST PUSH2 0x2794 JUMP JUMPDEST PUSH1 0x40 MLOAD PUSH2 0xA89 SWAP2 SWAP1 PUSH2 0x2ED1 JUMP JUMPDEST PUSH1 0x40 MLOAD DUP1 SWAP2 SUB SWAP1 RETURN JUMPDEST CALLVALUE DUP1 ISZERO PUSH2 0xA9E JUMPI PUSH1 0x0 DUP1 REVERT JUMPDEST POP PUSH2 0xAA7 PUSH2 0x27B9 JUMP JUMPDEST PUSH1 0x40 MLOAD PUSH2 0xAB4 SWAP2 SWAP1 PUSH2 0x2ED1 JUMP JUMPDEST PUSH1 0x40 MLOAD DUP1 SWAP2 SUB SWAP1 RETURN JUMPDEST CALLVALUE DUP1 ISZERO PUSH2 0xAC9 JUMPI PUSH1 0x0 DUP1 REVERT JUMPDEST POP PUSH2 0xAE4 PUSH1 0x4 DUP1 CALLDATASIZE SUB DUP2 ADD SWAP1 PUSH2 0xADF SWAP2 SWAP1 PUSH2 0x2FD8 JUMP JUMPDEST PUSH2 0x27BF JUMP JUMPDEST PUSH1 0x40 MLOAD PUSH2 0xAF1 SWAP2 SWAP1 PUSH2 0x2ED1 JUMP JUMPDEST PUSH1 0x40 MLOAD DUP1 SWAP2 SUB SWAP1 RETURN JUMPDEST CALLVALUE DUP1 ISZERO PUSH2 0xB06 JUMPI PUSH1 0x0 DUP1 REVERT JUMPDEST POP PUSH2 0xB21 PUSH1 0x4 DUP1 CALLDATASIZE SUB DUP2 ADD SWAP1 PUSH2 0xB1C SWAP2 SWAP1 PUSH2 0x326A JUMP JUMPDEST PUSH2 0x27D1 JUMP JUMPDEST STOP JUMPDEST CALLVALUE DUP1 ISZERO PUSH2 0xB2F JUMPI PUSH1 0x0 DUP1 REVERT JUMPDEST POP PUSH2 0xB38 PUSH2 0x2976 JUMP JUMPDEST PUSH1 0x40 MLOAD PUSH2 0xB45 SWAP2 SWAP1 PUSH2 0x30BE JUMP JUMPDEST PUSH1 0x40 MLOAD DUP1 SWAP2 SUB SWAP1 RETURN JUMPDEST CALLVALUE DUP1 ISZERO PUSH2 0xB5A JUMPI PUSH1 0x0 DUP1 REVERT JUMPDEST POP PUSH2 0xB63 PUSH2 0x2989 JUMP JUMPDEST PUSH1 0x40 MLOAD PUSH2 0xB70 SWAP2 SWAP1 PUSH2 0x2ED1 JUMP JUMPDEST PUSH1 0x40 MLOAD DUP1 SWAP2 SUB SWAP1 RETURN JUMPDEST PUSH1 0x0 PUSH32 0x0 PUSH20 0xFFFFFFFFFFFFFFFFFFFFFFFFFFFFFFFFFFFFFFFF AND PUSH4 0x70A08231 ADDRESS PUSH1 0x40 MLOAD DUP3 PUSH4 0xFFFFFFFF AND PUSH1 0xE0 SHL DUP2 MSTORE PUSH1 0x4 ADD PUSH2 0xBD4 SWAP2 SWAP1 PUSH2 0x32A6 JUMP JUMPDEST PUSH1 0x20 PUSH1 0x40 MLOAD DUP1 DUP4 SUB DUP2 DUP7 GAS STATICCALL ISZERO DUP1 ISZERO PUSH2 0xBF1 JUMPI RETURNDATASIZE PUSH1 0x0 DUP1 RETURNDATACOPY RETURNDATASIZE PUSH1 0x0 REVERT JUMPDEST POP POP POP POP PUSH1 0x40 MLOAD RETURNDATASIZE PUSH1 0x1F NOT PUSH1 0x1F DUP3 ADD AND DUP3 ADD DUP1 PUSH1 0x40 MSTORE POP DUP2 ADD SWAP1 PUSH2 0xC15 SWAP2 SWAP1 PUSH2 0x350F JUMP JUMPDEST SWAP1 POP SWAP1 JUMP JUMPDEST PUSH1 0x0 DUP1 SLOAD PUSH2 0xC27 SWAP1 PUSH2 0x356B JUMP JUMPDEST DUP1 PUSH1 0x1F ADD PUSH1 0x20 DUP1 SWAP2 DIV MUL PUSH1 0x20 ADD PUSH1 0x40 MLOAD SWAP1 DUP2 ADD PUSH1 0x40 MSTORE DUP1 SWAP3 SWAP2 SWAP1 DUP2 DUP2 MSTORE PUSH1 0x20 ADD DUP3 DUP1 SLOAD PUSH2 0xC53 SWAP1 PUSH2 0x356B JUMP JUMPDEST DUP1 ISZERO PUSH2 0xCA0 JUMPI DUP1 PUSH1 0x1F LT PUSH2 0xC75 JUMPI PUSH2 0x100 DUP1 DUP4 SLOAD DIV MUL DUP4 MSTORE SWAP2 PUSH1 0x20 ADD SWAP2 PUSH2 0xCA0 JUMP JUMPDEST DUP3 ADD SWAP2 SWAP1 PUSH1 0x0 MSTORE PUSH1 0x20 PUSH1 0x0 KECCAK256 SWAP1 JUMPDEST DUP2 SLOAD DUP2 MSTORE SWAP1 PUSH1 0x1 ADD SWAP1 PUSH1 0x20 ADD DUP1 DUP4 GT PUSH2 0xC83 JUMPI DUP3 SWAP1 SUB PUSH1 0x1F AND DUP3 ADD SWAP2 JUMPDEST POP POP POP POP POP DUP2 JUMP JUMPDEST PUSH1 0x0 DUP1 PUSH1 0x2 SLOAD SWAP1 POP PUSH1 0x0 DUP2 EQ PUSH2 0xCD9 JUMPI PUSH2 0xCD4 PUSH2 0xCC3 PUSH2 0xB79 JUMP JUMPDEST DUP3 DUP6 PUSH2 0x298F SWAP1 SWAP3 SWAP2 SWAP1 PUSH4 0xFFFFFFFF AND JUMP JUMPDEST PUSH2 0xCDB JUMP JUMPDEST DUP3 JUMPDEST SWAP2 POP POP SWAP2 SWAP1 POP JUMP JUMPDEST PUSH1 0x0 DUP2 PUSH1 0x4 PUSH1 0x0 CALLER PUSH20 0xFFFFFFFFFFFFFFFFFFFFFFFFFFFFFFFFFFFFFFFF AND PUSH20 0xFFFFFFFFFFFFFFFFFFFFFFFFFFFFFFFFFFFFFFFF AND DUP2 MSTORE PUSH1 0x20 ADD SWAP1 DUP2 MSTORE PUSH1 0x20 ADD PUSH1 0x0 KECCAK256 PUSH1 0x0 DUP6 PUSH20 0xFFFFFFFFFFFFFFFFFFFFFFFFFFFFFFFFFFFFFFFF AND PUSH20 0xFFFFFFFFFFFFFFFFFFFFFFFFFFFFFFFFFFFFFFFF AND DUP2 MSTORE PUSH1 0x20 ADD SWAP1 DUP2 MSTORE PUSH1 0x20 ADD PUSH1 0x0 KECCAK256 DUP2 SWAP1 SSTORE POP DUP3 PUSH20 0xFFFFFFFFFFFFFFFFFFFFFFFFFFFFFFFFFFFFFFFF AND CALLER PUSH20 0xFFFFFFFFFFFFFFFFFFFFFFFFFFFFFFFFFFFFFFFF AND PUSH32 0x8C5BE1E5EBEC7D5BD14F71427D1E84F3DD0314C0F7B2291E5B200AC8C7C3B925 DUP5 PUSH1 0x40 MLOAD PUSH2 0xDC3 SWAP2 SWAP1 PUSH2 0x2ED1 JUMP JUMPDEST PUSH1 0x40 MLOAD DUP1 SWAP2 SUB SWAP1 LOG3 PUSH1 0x1 SWAP1 POP SWAP3 SWAP2 POP POP JUMP JUMPDEST PUSH1 0x0 DUP1 PUSH1 0x2 SLOAD SWAP1 POP PUSH1 0x0 DUP2 EQ PUSH2 0xE06 JUMPI PUSH2 0xE01 DUP2 PUSH2 0xDF1 PUSH2 0xB79 JUMP JUMPDEST DUP6 PUSH2 0x29B7 SWAP1 SWAP3 SWAP2 SWAP1 PUSH4 0xFFFFFFFF AND JUMP JUMPDEST PUSH2 0xE08 JUMP JUMPDEST DUP3 JUMPDEST SWAP2 POP POP SWAP2 SWAP1 POP JUMP JUMPDEST PUSH1 0x2 SLOAD DUP2 JUMP JUMPDEST PUSH1 0xA SLOAD DUP2 JUMP JUMPDEST PUSH1 0x0 DUP1 PUSH1 0x4 PUSH1 0x0 DUP7 PUSH20 0xFFFFFFFFFFFFFFFFFFFFFFFFFFFFFFFFFFFFFFFF AND PUSH20 0xFFFFFFFFFFFFFFFFFFFFFFFFFFFFFFFFFFFFFFFF AND DUP2 MSTORE PUSH1 0x20 ADD SWAP1 DUP2 MSTORE PUSH1 0x20 ADD PUSH1 0x0 KECCAK256 PUSH1 0x0 CALLER PUSH20 0xFFFFFFFFFFFFFFFFFFFFFFFFFFFFFFFFFFFFFFFF AND PUSH20 0xFFFFFFFFFFFFFFFFFFFFFFFFFFFFFFFFFFFFFFFF AND DUP2 MSTORE PUSH1 0x20 ADD SWAP1 DUP2 MSTORE PUSH1 0x20 ADD PUSH1 0x0 KECCAK256 SLOAD SWAP1 POP PUSH32 0xFFFFFFFFFFFFFFFFFFFFFFFFFFFFFFFFFFFFFFFFFFFFFFFFFFFFFFFFFFFFFFFF DUP2 EQ PUSH2 0xF52 JUMPI DUP3 DUP2 PUSH2 0xED1 SWAP2 SWAP1 PUSH2 0x35CC JUMP JUMPDEST PUSH1 0x4 PUSH1 0x0 DUP8 PUSH20 0xFFFFFFFFFFFFFFFFFFFFFFFFFFFFFFFFFFFFFFFF AND PUSH20 0xFFFFFFFFFFFFFFFFFFFFFFFFFFFFFFFFFFFFFFFF AND DUP2 MSTORE PUSH1 0x20 ADD SWAP1 DUP2 MSTORE PUSH1 0x20 ADD PUSH1 0x0 KECCAK256 PUSH1 0x0 CALLER PUSH20 0xFFFFFFFFFFFFFFFFFFFFFFFFFFFFFFFFFFFFFFFF AND PUSH20 0xFFFFFFFFFFFFFFFFFFFFFFFFFFFFFFFFFFFFFFFF AND DUP2 MSTORE PUSH1 0x20 ADD SWAP1 DUP2 MSTORE PUSH1 0x20 ADD PUSH1 0x0 KECCAK256 DUP2 SWAP1 SSTORE POP JUMPDEST DUP3 PUSH1 0x3 PUSH1 0x0 DUP8 PUSH20 0xFFFFFFFFFFFFFFFFFFFFFFFFFFFFFFFFFFFFFFFF AND PUSH20 0xFFFFFFFFFFFFFFFFFFFFFFFFFFFFFFFFFFFFFFFF AND DUP2 MSTORE PUSH1 0x20 ADD SWAP1 DUP2 MSTORE PUSH1 0x20 ADD PUSH1 0x0 KECCAK256 PUSH1 0x0 DUP3 DUP3 SLOAD PUSH2 0xFA1 SWAP2 SWAP1 PUSH2 0x35CC JUMP JUMPDEST SWAP3 POP POP DUP2 SWAP1 SSTORE POP DUP3 PUSH1 0x3 PUSH1 0x0 DUP7 PUSH20 0xFFFFFFFFFFFFFFFFFFFFFFFFFFFFFFFFFFFFFFFF AND PUSH20 0xFFFFFFFFFFFFFFFFFFFFFFFFFFFFFFFFFFFFFFFF AND DUP2 MSTORE PUSH1 0x20 ADD SWAP1 DUP2 MSTORE PUSH1 0x20 ADD PUSH1 0x0 KECCAK256 PUSH1 0x0 DUP3 DUP3 SLOAD ADD SWAP3 POP POP DUP2 SWAP1 SSTORE POP DUP4 PUSH20 0xFFFFFFFFFFFFFFFFFFFFFFFFFFFFFFFFFFFFFFFF AND DUP6 PUSH20 0xFFFFFFFFFFFFFFFFFFFFFFFFFFFFFFFFFFFFFFFF AND PUSH32 0xDDF252AD1BE2C89B69C2B068FC378DAA952BA7F163C4A11628F55A4DF523B3EF DUP6 PUSH1 0x40 MLOAD PUSH2 0x1052 SWAP2 SWAP1 PUSH2 0x2ED1 JUMP JUMPDEST PUSH1 0x40 MLOAD DUP1 SWAP2 SUB SWAP1 LOG3 PUSH1 0x1 SWAP2 POP POP SWAP4 SWAP3 POP POP POP JUMP JUMPDEST PUSH32 0x0 DUP2 JUMP JUMPDEST CALLER PUSH20 0xFFFFFFFFFFFFFFFFFFFFFFFFFFFFFFFFFFFFFFFF AND PUSH2 0x10A9 PUSH2 0x1305 JUMP JUMPDEST PUSH20 0xFFFFFFFFFFFFFFFFFFFFFFFFFFFFFFFFFFFFFFFF AND EQ PUSH2 0x10FF JUMPI PUSH1 0x40 MLOAD PUSH32 0x8C379A000000000000000000000000000000000000000000000000000000000 DUP2 MSTORE PUSH1 0x4 ADD PUSH2 0x10F6 SWAP1 PUSH2 0x3672 JUMP JUMPDEST PUSH1 0x40 MLOAD DUP1 SWAP2 SUB SWAP1 REVERT JUMPDEST DUP1 ISZERO DUP1 PUSH2 0x119D JUMPI POP PUSH1 0x12 PUSH32 0x0 PUSH20 0xFFFFFFFFFFFFFFFFFFFFFFFFFFFFFFFFFFFFFFFF AND PUSH4 0x313CE567 PUSH1 0x40 MLOAD DUP2 PUSH4 0xFFFFFFFF AND PUSH1 0xE0 SHL DUP2 MSTORE PUSH1 0x4 ADD PUSH1 0x20 PUSH1 0x40 MLOAD DUP1 DUP4 SUB DUP2 DUP7 GAS STATICCALL ISZERO DUP1 ISZERO PUSH2 0x1174 JUMPI RETURNDATASIZE PUSH1 0x0 DUP1 RETURNDATACOPY RETURNDATASIZE PUSH1 0x0 REVERT JUMPDEST POP POP POP POP PUSH1 0x40 MLOAD RETURNDATASIZE PUSH1 0x1F NOT PUSH1 0x1F DUP3 ADD AND DUP3 ADD DUP1 PUSH1 0x40 MSTORE POP DUP2 ADD SWAP1 PUSH2 0x1198 SWAP2 SWAP1 PUSH2 0x36A7 JUMP JUMPDEST PUSH1 0xFF AND EQ JUMPDEST PUSH2 0x11DC JUMPI PUSH1 0x40 MLOAD PUSH32 0x8C379A000000000000000000000000000000000000000000000000000000000 DUP2 MSTORE PUSH1 0x4 ADD PUSH2 0x11D3 SWAP1 PUSH2 0x3720 JUMP JUMPDEST PUSH1 0x40 MLOAD DUP1 SWAP2 SUB SWAP1 REVERT JUMPDEST DUP1 PUSH1 0xB PUSH1 0x0 PUSH2 0x100 EXP DUP2 SLOAD DUP2 PUSH1 0xFF MUL NOT AND SWAP1 DUP4 ISZERO ISZERO MUL OR SWAP1 SSTORE POP CALLER PUSH20 0xFFFFFFFFFFFFFFFFFFFFFFFFFFFFFFFFFFFFFFFF AND PUSH32 0x6375B140D4463D47B864F1F47E5D2893CC3478E73AEDCC268B054FAB0230A841 DUP3 PUSH1 0x40 MLOAD PUSH2 0x123C SWAP2 SWAP1 PUSH2 0x30BE JUMP JUMPDEST PUSH1 0x40 MLOAD DUP1 SWAP2 SUB SWAP1 LOG2 POP JUMP JUMPDEST PUSH1 0x0 PUSH32 0x0 CHAINID EQ PUSH2 0x127D JUMPI PUSH2 0x1278 PUSH2 0x29E9 JUMP JUMPDEST PUSH2 0x129F JUMP JUMPDEST PUSH32 0x0 JUMPDEST SWAP1 POP SWAP1 JUMP JUMPDEST PUSH32 0x0 DUP2 JUMP JUMPDEST PUSH1 0xD PUSH1 0x0 SWAP1 SLOAD SWAP1 PUSH2 0x100 EXP SWAP1 DIV PUSH1 0xFF AND DUP2 JUMP JUMPDEST PUSH1 0x0 PUSH32 0xFFFFFFFFFFFFFFFFFFFFFFFFFFFFFFFFFFFFFFFFFFFFFFFFFFFFFFFFFFFFFFFF SWAP1 POP SWAP2 SWAP1 POP JUMP JUMPDEST PUSH1 0x0 PUSH1 0x6 PUSH1 0x0 SWAP1 SLOAD SWAP1 PUSH2 0x100 EXP SWAP1 DIV PUSH20 0xFFFFFFFFFFFFFFFFFFFFFFFFFFFFFFFFFFFFFFFF AND SWAP1 POP SWAP1 JUMP JUMPDEST PUSH1 0x0 PUSH2 0x133A DUP3 PUSH2 0xCA8 JUMP JUMPDEST SWAP1 POP SWAP2 SWAP1 POP JUMP JUMPDEST PUSH1 0x0 DUP1 PUSH2 0x134D DUP5 PUSH2 0x27BF JUMP JUMPDEST SWAP2 POP DUP2 EQ ISZERO PUSH2 0x1391 JUMPI PUSH1 0x40 MLOAD PUSH32 0x8C379A000000000000000000000000000000000000000000000000000000000 DUP2 MSTORE PUSH1 0x4 ADD PUSH2 0x1388 SWAP1 PUSH2 0x378C JUMP JUMPDEST PUSH1 0x40 MLOAD DUP1 SWAP2 SUB SWAP1 REVERT JUMPDEST PUSH2 0x13DE CALLER ADDRESS DUP6 PUSH32 0x0 PUSH20 0xFFFFFFFFFFFFFFFFFFFFFFFFFFFFFFFFFFFFFFFF AND PUSH2 0x2A75 SWAP1 SWAP4 SWAP3 SWAP2 SWAP1 PUSH4 0xFFFFFFFF AND JUMP JUMPDEST PUSH2 0x13E8 DUP3 DUP3 PUSH2 0x2B14 JUMP JUMPDEST DUP2 PUSH20 0xFFFFFFFFFFFFFFFFFFFFFFFFFFFFFFFFFFFFFFFF AND CALLER PUSH20 0xFFFFFFFFFFFFFFFFFFFFFFFFFFFFFFFFFFFFFFFF AND PUSH32 0xDCBC1C05240F31FF3AD067EF1EE35CE4997762752E3A095284754544F4C709D7 DUP6 DUP5 PUSH1 0x40 MLOAD PUSH2 0x1447 SWAP3 SWAP2 SWAP1 PUSH2 0x37AC JUMP JUMPDEST PUSH1 0x40 MLOAD DUP1 SWAP2 SUB SWAP1 LOG3 PUSH2 0x1459 DUP4 DUP3 PUSH2 0x2BE4 JUMP JUMPDEST SWAP3 SWAP2 POP POP JUMP JUMPDEST PUSH1 0x3 PUSH1 0x20 MSTORE DUP1 PUSH1 0x0 MSTORE PUSH1 0x40 PUSH1 0x0 KECCAK256 PUSH1 0x0 SWAP2 POP SWAP1 POP SLOAD DUP2 JUMP JUMPDEST CALLER PUSH20 0xFFFFFFFFFFFFFFFFFFFFFFFFFFFFFFFFFFFFFFFF AND PUSH2 0x1496 PUSH2 0x1305 JUMP JUMPDEST PUSH20 0xFFFFFFFFFFFFFFFFFFFFFFFFFFFFFFFFFFFFFFFF AND EQ PUSH2 0x14EC JUMPI PUSH1 0x40 MLOAD PUSH32 0x8C379A000000000000000000000000000000000000000000000000000000000 DUP2 MSTORE PUSH1 0x4 ADD PUSH2 0x14E3 SWAP1 PUSH2 0x3672 JUMP JUMPDEST PUSH1 0x40 MLOAD DUP1 SWAP2 SUB SWAP1 REVERT JUMPDEST PUSH1 0x0 PUSH20 0xFFFFFFFFFFFFFFFFFFFFFFFFFFFFFFFFFFFFFFFF AND PUSH1 0x6 PUSH1 0x0 SWAP1 SLOAD SWAP1 PUSH2 0x100 EXP SWAP1 DIV PUSH20 0xFFFFFFFFFFFFFFFFFFFFFFFFFFFFFFFFFFFFFFFF AND PUSH20 0xFFFFFFFFFFFFFFFFFFFFFFFFFFFFFFFFFFFFFFFF AND PUSH32 0x8BE0079C531659141344CD1FD0A4F28419497F9722A3DAAFE3B4186F6B6457E0 PUSH1 0x40 MLOAD PUSH1 0x40 MLOAD DUP1 SWAP2 SUB SWAP1 LOG3 PUSH1 0x0 PUSH1 0x6 PUSH1 0x0 PUSH2 0x100 EXP DUP2 SLOAD DUP2 PUSH20 0xFFFFFFFFFFFFFFFFFFFFFFFFFFFFFFFFFFFFFFFF MUL NOT AND SWAP1 DUP4 PUSH20 0xFFFFFFFFFFFFFFFFFFFFFFFFFFFFFFFFFFFFFFFF AND MUL OR SWAP1 SSTORE POP JUMP JUMPDEST CALLER PUSH20 0xFFFFFFFFFFFFFFFFFFFFFFFFFFFFFFFFFFFFFFFF AND PUSH2 0x15CC PUSH2 0x1305 JUMP JUMPDEST PUSH20 0xFFFFFFFFFFFFFFFFFFFFFFFFFFFFFFFFFFFFFFFF AND EQ PUSH2 0x1622 JUMPI PUSH1 0x40 MLOAD PUSH32 0x8C379A000000000000000000000000000000000000000000000000000000000 DUP2 MSTORE PUSH1 0x4 ADD PUSH2 0x1619 SWAP1 PUSH2 0x3672 JUMP JUMPDEST PUSH1 0x40 MLOAD DUP1 SWAP2 SUB SWAP1 REVERT JUMPDEST PUSH8 0xDE0B6B3A7640000 DUP2 GT ISZERO PUSH2 0x166D JUMPI PUSH1 0x40 MLOAD PUSH32 0x8C379A000000000000000000000000000000000000000000000000000000000 DUP2 MSTORE PUSH1 0x4 ADD PUSH2 0x1664 SWAP1 PUSH2 0x3821 JUMP JUMPDEST PUSH1 0x40 MLOAD DUP1 SWAP2 SUB SWAP1 REVERT JUMPDEST DUP1 PUSH1 0x9 DUP2 SWAP1 SSTORE POP CALLER PUSH20 0xFFFFFFFFFFFFFFFFFFFFFFFFFFFFFFFFFFFFFFFF AND PUSH32 0xEC370615CC81FB334E5566FBC80664D9082377BF59288D64A79F3FBECF4323A9 DUP3 PUSH1 0x40 MLOAD PUSH2 0x16BA SWAP2 SWAP1 PUSH2 0x2ED1 JUMP JUMPDEST PUSH1 0x40 MLOAD DUP1 SWAP2 SUB SWAP1 LOG2 POP JUMP JUMPDEST PUSH1 0x5 PUSH1 0x20 MSTORE DUP1 PUSH1 0x0 MSTORE PUSH1 0x40 PUSH1 0x0 KECCAK256 PUSH1 0x0 SWAP2 POP SWAP1 POP SLOAD DUP2 JUMP JUMPDEST PUSH1 0x9 SLOAD DUP2 JUMP JUMPDEST CALLER PUSH20 0xFFFFFFFFFFFFFFFFFFFFFFFFFFFFFFFFFFFFFFFF AND PUSH2 0x1702 PUSH2 0x1305 JUMP JUMPDEST PUSH20 0xFFFFFFFFFFFFFFFFFFFFFFFFFFFFFFFFFFFFFFFF AND EQ PUSH2 0x1758 JUMPI PUSH1 0x40 MLOAD PUSH32 0x8C379A000000000000000000000000000000000000000000000000000000000 DUP2 MSTORE PUSH1 0x4 ADD PUSH2 0x174F SWAP1 PUSH2 0x3672 JUMP JUMPDEST PUSH1 0x40 MLOAD DUP1 SWAP2 SUB SWAP1 REVERT JUMPDEST CALLER PUSH20 0xFFFFFFFFFFFFFFFFFFFFFFFFFFFFFFFFFFFFFFFF AND SELFDESTRUCT JUMPDEST CALLER PUSH20 0xFFFFFFFFFFFFFFFFFFFFFFFFFFFFFFFFFFFFFFFF AND PUSH2 0x1790 PUSH2 0x1305 JUMP JUMPDEST PUSH20 0xFFFFFFFFFFFFFFFFFFFFFFFFFFFFFFFFFFFFFFFF AND EQ PUSH2 0x17E6 JUMPI PUSH1 0x40 MLOAD PUSH32 0x8C379A000000000000000000000000000000000000000000000000000000000 DUP2 MSTORE PUSH1 0x4 ADD PUSH2 0x17DD SWAP1 PUSH2 0x3672 JUMP JUMPDEST PUSH1 0x40 MLOAD DUP1 SWAP2 SUB SWAP1 REVERT JUMPDEST PUSH1 0xD PUSH1 0x0 SWAP1 SLOAD SWAP1 PUSH2 0x100 EXP SWAP1 DIV PUSH1 0xFF AND ISZERO PUSH2 0x1836 JUMPI PUSH1 0x40 MLOAD PUSH32 0x8C379A000000000000000000000000000000000000000000000000000000000 DUP2 MSTORE PUSH1 0x4 ADD PUSH2 0x182D SWAP1 PUSH2 0x388D JUMP JUMPDEST PUSH1 0x40 MLOAD DUP1 SWAP2 SUB SWAP1 REVERT JUMPDEST PUSH1 0x1 PUSH1 0xD PUSH1 0x0 PUSH2 0x100 EXP DUP2 SLOAD DUP2 PUSH1 0xFF MUL NOT AND SWAP1 DUP4 ISZERO ISZERO MUL OR SWAP1 SSTORE POP PUSH1 0x0 PUSH1 0x2 DUP2 SWAP1 SSTORE POP PUSH2 0x187D DUP3 PUSH3 0x186A0 DUP4 PUSH20 0xFFFFFFFFFFFFFFFFFFFFFFFFFFFFFFFFFFFFFFFF AND PUSH2 0x2C00 JUMP JUMPDEST POP CALLER PUSH20 0xFFFFFFFFFFFFFFFFFFFFFFFFFFFFFFFFFFFFFFFF AND PUSH32 0x908408E307FC569B417F6CBEC5D5A06F44A0A505AC0479B47D421A4B2FD6A1E6 PUSH1 0x40 MLOAD PUSH1 0x40 MLOAD DUP1 SWAP2 SUB SWAP1 LOG2 PUSH1 0xD PUSH1 0x1 SWAP1 SLOAD SWAP1 PUSH2 0x100 EXP SWAP1 DIV PUSH1 0xFF AND ISZERO PUSH2 0x1913 JUMPI PUSH32 0xDA9FCD4A22655136641EA6451669F22DDB60B968C2CD77B015DA4796AD8FAEB9 PUSH1 0x1 PUSH1 0x40 MLOAD PUSH2 0x1906 SWAP2 SWAP1 PUSH2 0x30BE JUMP JUMPDEST PUSH1 0x40 MLOAD DUP1 SWAP2 SUB SWAP1 LOG1 PUSH2 0x194C JUMP JUMPDEST PUSH32 0xDA9FCD4A22655136641EA6451669F22DDB60B968C2CD77B015DA4796AD8FAEB9 PUSH1 0x0 PUSH1 0x40 MLOAD PUSH2 0x1943 SWAP2 SWAP1 PUSH2 0x30BE JUMP JUMPDEST PUSH1 0x40 MLOAD DUP1 SWAP2 SUB SWAP1 LOG1 JUMPDEST POP POP JUMP JUMPDEST PUSH1 0x0 PUSH2 0x195B DUP4 PUSH2 0x1D12 JUMP JUMPDEST SWAP1 POP PUSH2 0x19AA CALLER ADDRESS DUP4 PUSH32 0x0 PUSH20 0xFFFFFFFFFFFFFFFFFFFFFFFFFFFFFFFFFFFFFFFF AND PUSH2 0x2A75 SWAP1 SWAP4 SWAP3 SWAP2 SWAP1 PUSH4 0xFFFFFFFF AND JUMP JUMPDEST PUSH2 0x19B4 DUP3 DUP5 PUSH2 0x2B14 JUMP JUMPDEST DUP2 PUSH20 0xFFFFFFFFFFFFFFFFFFFFFFFFFFFFFFFFFFFFFFFF AND CALLER PUSH20 0xFFFFFFFFFFFFFFFFFFFFFFFFFFFFFFFFFFFFFFFF AND PUSH32 0xDCBC1C05240F31FF3AD067EF1EE35CE4997762752E3A095284754544F4C709D7 DUP4 DUP7 PUSH1 0x40 MLOAD PUSH2 0x1A13 SWAP3 SWAP2 SWAP1 PUSH2 0x37AC JUMP JUMPDEST PUSH1 0x40 MLOAD DUP1 SWAP2 SUB SWAP1 LOG3 PUSH2 0x1A25 DUP2 DUP5 PUSH2 0x2BE4 JUMP JUMPDEST SWAP3 SWAP2 POP POP JUMP JUMPDEST PUSH1 0x1 DUP1 SLOAD PUSH2 0x1A38 SWAP1 PUSH2 0x356B JUMP JUMPDEST DUP1 PUSH1 0x1F ADD PUSH1 0x20 DUP1 SWAP2 DIV MUL PUSH1 0x20 ADD PUSH1 0x40 MLOAD SWAP1 DUP2 ADD PUSH1 0x40 MSTORE DUP1 SWAP3 SWAP2 SWAP1 DUP2 DUP2 MSTORE PUSH1 0x20 ADD DUP3 DUP1 SLOAD PUSH2 0x1A64 SWAP1 PUSH2 0x356B JUMP JUMPDEST DUP1 ISZERO PUSH2 0x1AB1 JUMPI DUP1 PUSH1 0x1F LT PUSH2 0x1A86 JUMPI PUSH2 0x100 DUP1 DUP4 SLOAD DIV MUL DUP4 MSTORE SWAP2 PUSH1 0x20 ADD SWAP2 PUSH2 0x1AB1 JUMP JUMPDEST DUP3 ADD SWAP2 SWAP1 PUSH1 0x0 MSTORE PUSH1 0x20 PUSH1 0x0 KECCAK256 SWAP1 JUMPDEST DUP2 SLOAD DUP2 MSTORE SWAP1 PUSH1 0x1 ADD SWAP1 PUSH1 0x20 ADD DUP1 DUP4 GT PUSH2 0x1A94 JUMPI DUP3 SWAP1 SUB PUSH1 0x1F AND DUP3 ADD SWAP2 JUMPDEST POP POP POP POP POP DUP2 JUMP JUMPDEST PUSH1 0x0 DUP2 PUSH1 0x3 PUSH1 0x0 CALLER PUSH20 0xFFFFFFFFFFFFFFFFFFFFFFFFFFFFFFFFFFFFFFFF AND PUSH20 0xFFFFFFFFFFFFFFFFFFFFFFFFFFFFFFFFFFFFFFFF AND DUP2 MSTORE PUSH1 0x20 ADD SWAP1 DUP2 MSTORE PUSH1 0x20 ADD PUSH1 0x0 KECCAK256 PUSH1 0x0 DUP3 DUP3 SLOAD PUSH2 0x1B0A SWAP2 SWAP1 PUSH2 0x35CC JUMP JUMPDEST SWAP3 POP POP DUP2 SWAP1 SSTORE POP DUP2 PUSH1 0x3 PUSH1 0x0 DUP6 PUSH20 0xFFFFFFFFFFFFFFFFFFFFFFFFFFFFFFFFFFFFFFFF AND PUSH20 0xFFFFFFFFFFFFFFFFFFFFFFFFFFFFFFFFFFFFFFFF AND DUP2 MSTORE PUSH1 0x20 ADD SWAP1 DUP2 MSTORE PUSH1 0x20 ADD PUSH1 0x0 KECCAK256 PUSH1 0x0 DUP3 DUP3 SLOAD ADD SWAP3 POP POP DUP2 SWAP1 SSTORE POP DUP3 PUSH20 0xFFFFFFFFFFFFFFFFFFFFFFFFFFFFFFFFFFFFFFFF AND CALLER PUSH20 0xFFFFFFFFFFFFFFFFFFFFFFFFFFFFFFFFFFFFFFFF AND PUSH32 0xDDF252AD1BE2C89B69C2B068FC378DAA952BA7F163C4A11628F55A4DF523B3EF DUP5 PUSH1 0x40 MLOAD PUSH2 0x1BBB SWAP2 SWAP1 PUSH2 0x2ED1 JUMP JUMPDEST PUSH1 0x40 MLOAD DUP1 SWAP2 SUB SWAP1 LOG3 PUSH1 0x1 SWAP1 POP SWAP3 SWAP2 POP POP JUMP JUMPDEST CALLER PUSH20 0xFFFFFFFFFFFFFFFFFFFFFFFFFFFFFFFFFFFFFFFF AND PUSH2 0x1BEC PUSH2 0x1305 JUMP JUMPDEST PUSH20 0xFFFFFFFFFFFFFFFFFFFFFFFFFFFFFFFFFFFFFFFF AND EQ PUSH2 0x1C42 JUMPI PUSH1 0x40 MLOAD PUSH32 0x8C379A000000000000000000000000000000000000000000000000000000000 DUP2 MSTORE PUSH1 0x4 ADD PUSH2 0x1C39 SWAP1 PUSH2 0x3672 JUMP JUMPDEST PUSH1 0x40 MLOAD DUP1 SWAP2 SUB SWAP1 REVERT JUMPDEST CALLER PUSH20 0xFFFFFFFFFFFFFFFFFFFFFFFFFFFFFFFFFFFFFFFF AND PUSH32 0x9493E5BBE4E8E0AC67284469A2D677403D0378A85A59E341D3ABC433D0D9A209 DUP3 PUSH1 0x40 MLOAD PUSH2 0x1C88 SWAP2 SWAP1 PUSH2 0x2ED1 JUMP JUMPDEST PUSH1 0x40 MLOAD DUP1 SWAP2 SUB SWAP1 LOG2 ADDRESS PUSH20 0xFFFFFFFFFFFFFFFFFFFFFFFFFFFFFFFFFFFFFFFF AND PUSH4 0xA9059CBB CALLER DUP4 PUSH1 0x40 MLOAD DUP4 PUSH4 0xFFFFFFFF AND PUSH1 0xE0 SHL DUP2 MSTORE PUSH1 0x4 ADD PUSH2 0x1CCB SWAP3 SWAP2 SWAP1 PUSH2 0x38AD JUMP JUMPDEST PUSH1 0x20 PUSH1 0x40 MLOAD DUP1 DUP4 SUB DUP2 PUSH1 0x0 DUP8 GAS CALL ISZERO DUP1 ISZERO PUSH2 0x1CEA JUMPI RETURNDATASIZE PUSH1 0x0 DUP1 RETURNDATACOPY RETURNDATASIZE PUSH1 0x0 REVERT JUMPDEST POP POP POP POP PUSH1 0x40 MLOAD RETURNDATASIZE PUSH1 0x1F NOT PUSH1 0x1F DUP3 ADD AND DUP3 ADD DUP1 PUSH1 0x40 MSTORE POP DUP2 ADD SWAP1 PUSH2 0x1D0E SWAP2 SWAP1 PUSH2 0x38EB JUMP JUMPDEST POP POP JUMP JUMPDEST PUSH1 0x0 DUP1 PUSH1 0x2 SLOAD SWAP1 POP PUSH1 0x0 DUP2 EQ PUSH2 0x1D43 JUMPI PUSH2 0x1D3E PUSH2 0x1D2D PUSH2 0xB79 JUMP JUMPDEST DUP3 DUP6 PUSH2 0x29B7 SWAP1 SWAP3 SWAP2 SWAP1 PUSH4 0xFFFFFFFF AND JUMP JUMPDEST PUSH2 0x1D45 JUMP JUMPDEST DUP3 JUMPDEST SWAP2 POP POP SWAP2 SWAP1 POP JUMP JUMPDEST PUSH1 0x0 PUSH2 0x1D58 DUP5 PUSH2 0xDD5 JUMP JUMPDEST SWAP1 POP DUP2 PUSH20 0xFFFFFFFFFFFFFFFFFFFFFFFFFFFFFFFFFFFFFFFF AND CALLER PUSH20 0xFFFFFFFFFFFFFFFFFFFFFFFFFFFFFFFFFFFFFFFF AND EQ PUSH2 0x1EC4 JUMPI PUSH1 0x0 PUSH1 0x4 PUSH1 0x0 DUP5 PUSH20 0xFFFFFFFFFFFFFFFFFFFFFFFFFFFFFFFFFFFFFFFF AND PUSH20 0xFFFFFFFFFFFFFFFFFFFFFFFFFFFFFFFFFFFFFFFF AND DUP2 MSTORE PUSH1 0x20 ADD SWAP1 DUP2 MSTORE PUSH1 0x20 ADD PUSH1 0x0 KECCAK256 PUSH1 0x0 CALLER PUSH20 0xFFFFFFFFFFFFFFFFFFFFFFFFFFFFFFFFFFFFFFFF AND PUSH20 0xFFFFFFFFFFFFFFFFFFFFFFFFFFFFFFFFFFFFFFFF AND DUP2 MSTORE PUSH1 0x20 ADD SWAP1 DUP2 MSTORE PUSH1 0x20 ADD PUSH1 0x0 KECCAK256 SLOAD SWAP1 POP PUSH32 0xFFFFFFFFFFFFFFFFFFFFFFFFFFFFFFFFFFFFFFFFFFFFFFFFFFFFFFFFFFFFFFFF DUP2 EQ PUSH2 0x1EC2 JUMPI DUP2 DUP2 PUSH2 0x1E41 SWAP2 SWAP1 PUSH2 0x35CC JUMP JUMPDEST PUSH1 0x4 PUSH1 0x0 DUP6 PUSH20 0xFFFFFFFFFFFFFFFFFFFFFFFFFFFFFFFFFFFFFFFF AND PUSH20 0xFFFFFFFFFFFFFFFFFFFFFFFFFFFFFFFFFFFFFFFF AND DUP2 MSTORE PUSH1 0x20 ADD SWAP1 DUP2 MSTORE PUSH1 0x20 ADD PUSH1 0x0 KECCAK256 PUSH1 0x0 CALLER PUSH20 0xFFFFFFFFFFFFFFFFFFFFFFFFFFFFFFFFFFFFFFFF AND PUSH20 0xFFFFFFFFFFFFFFFFFFFFFFFFFFFFFFFFFFFFFFFF AND DUP2 MSTORE PUSH1 0x20 ADD SWAP1 DUP2 MSTORE PUSH1 0x20 ADD PUSH1 0x0 KECCAK256 DUP2 SWAP1 SSTORE POP JUMPDEST POP JUMPDEST PUSH2 0x1ECE DUP5 DUP3 PUSH2 0x2D34 JUMP JUMPDEST PUSH2 0x1ED8 DUP3 DUP3 PUSH2 0x2D50 JUMP JUMPDEST DUP2 PUSH20 0xFFFFFFFFFFFFFFFFFFFFFFFFFFFFFFFFFFFFFFFF AND DUP4 PUSH20 0xFFFFFFFFFFFFFFFFFFFFFFFFFFFFFFFFFFFFFFFF AND CALLER PUSH20 0xFFFFFFFFFFFFFFFFFFFFFFFFFFFFFFFFFFFFFFFF AND PUSH32 0xFBDE797D201C681B91056529119E0B02407C7BB96A4A2C75C01FC9667232C8DB DUP8 DUP6 PUSH1 0x40 MLOAD PUSH2 0x1F4E SWAP3 SWAP2 SWAP1 PUSH2 0x37AC JUMP JUMPDEST PUSH1 0x40 MLOAD DUP1 SWAP2 SUB SWAP1 LOG4 PUSH2 0x1FA1 DUP4 DUP6 PUSH32 0x0 PUSH20 0xFFFFFFFFFFFFFFFFFFFFFFFFFFFFFFFFFFFFFFFF AND PUSH2 0x2E20 SWAP1 SWAP3 SWAP2 SWAP1 PUSH4 0xFFFFFFFF AND JUMP JUMPDEST SWAP4 SWAP3 POP POP POP JUMP JUMPDEST PUSH1 0x0 DUP2 PUSH20 0xFFFFFFFFFFFFFFFFFFFFFFFFFFFFFFFFFFFFFFFF AND CALLER PUSH20 0xFFFFFFFFFFFFFFFFFFFFFFFFFFFFFFFFFFFFFFFF AND EQ PUSH2 0x2114 JUMPI PUSH1 0x0 PUSH1 0x4 PUSH1 0x0 DUP5 PUSH20 0xFFFFFFFFFFFFFFFFFFFFFFFFFFFFFFFFFFFFFFFF AND PUSH20 0xFFFFFFFFFFFFFFFFFFFFFFFFFFFFFFFFFFFFFFFF AND DUP2 MSTORE PUSH1 0x20 ADD SWAP1 DUP2 MSTORE PUSH1 0x20 ADD PUSH1 0x0 KECCAK256 PUSH1 0x0 CALLER PUSH20 0xFFFFFFFFFFFFFFFFFFFFFFFFFFFFFFFFFFFFFFFF AND PUSH20 0xFFFFFFFFFFFFFFFFFFFFFFFFFFFFFFFFFFFFFFFF AND DUP2 MSTORE PUSH1 0x20 ADD SWAP1 DUP2 MSTORE PUSH1 0x20 ADD PUSH1 0x0 KECCAK256 SLOAD SWAP1 POP PUSH32 0xFFFFFFFFFFFFFFFFFFFFFFFFFFFFFFFFFFFFFFFFFFFFFFFFFFFFFFFFFFFFFFFF DUP2 EQ PUSH2 0x2112 JUMPI DUP5 DUP2 PUSH2 0x2091 SWAP2 SWAP1 PUSH2 0x35CC JUMP JUMPDEST PUSH1 0x4 PUSH1 0x0 DUP6 PUSH20 0xFFFFFFFFFFFFFFFFFFFFFFFFFFFFFFFFFFFFFFFF AND PUSH20 0xFFFFFFFFFFFFFFFFFFFFFFFFFFFFFFFFFFFFFFFF AND DUP2 MSTORE PUSH1 0x20 ADD SWAP1 DUP2 MSTORE PUSH1 0x20 ADD PUSH1 0x0 KECCAK256 PUSH1 0x0 CALLER PUSH20 0xFFFFFFFFFFFFFFFFFFFFFFFFFFFFFFFFFFFFFFFF AND PUSH20 0xFFFFFFFFFFFFFFFFFFFFFFFFFFFFFFFFFFFFFFFF AND DUP2 MSTORE PUSH1 0x20 ADD SWAP1 DUP2 MSTORE PUSH1 0x20 ADD PUSH1 0x0 KECCAK256 DUP2 SWAP1 SSTORE POP JUMPDEST POP JUMPDEST PUSH1 0x0 PUSH2 0x211F DUP6 PUSH2 0x132F JUMP JUMPDEST SWAP2 POP DUP2 EQ ISZERO PUSH2 0x2163 JUMPI PUSH1 0x40 MLOAD PUSH32 0x8C379A000000000000000000000000000000000000000000000000000000000 DUP2 MSTORE PUSH1 0x4 ADD PUSH2 0x215A SWAP1 PUSH2 0x3964 JUMP JUMPDEST PUSH1 0x40 MLOAD DUP1 SWAP2 SUB SWAP1 REVERT JUMPDEST PUSH2 0x216D DUP2 DUP6 PUSH2 0x2D34 JUMP JUMPDEST PUSH2 0x2177 DUP3 DUP6 PUSH2 0x2D50 JUMP JUMPDEST DUP2 PUSH20 0xFFFFFFFFFFFFFFFFFFFFFFFFFFFFFFFFFFFFFFFF AND DUP4 PUSH20 0xFFFFFFFFFFFFFFFFFFFFFFFFFFFFFFFFFFFFFFFF AND CALLER PUSH20 0xFFFFFFFFFFFFFFFFFFFFFFFFFFFFFFFFFFFFFFFF AND PUSH32 0xFBDE797D201C681B91056529119E0B02407C7BB96A4A2C75C01FC9667232C8DB DUP5 DUP9 PUSH1 0x40 MLOAD PUSH2 0x21ED SWAP3 SWAP2 SWAP1 PUSH2 0x37AC JUMP JUMPDEST PUSH1 0x40 MLOAD DUP1 SWAP2 SUB SWAP1 LOG4 PUSH2 0x2240 DUP4 DUP3 PUSH32 0x0 PUSH20 0xFFFFFFFFFFFFFFFFFFFFFFFFFFFFFFFFFFFFFFFF AND PUSH2 0x2E20 SWAP1 SWAP3 SWAP2 SWAP1 PUSH4 0xFFFFFFFF AND JUMP JUMPDEST SWAP4 SWAP3 POP POP POP JUMP JUMPDEST PUSH1 0x7 SLOAD DUP2 JUMP JUMPDEST CALLER PUSH20 0xFFFFFFFFFFFFFFFFFFFFFFFFFFFFFFFFFFFFFFFF AND PUSH2 0x226C PUSH2 0x1305 JUMP JUMPDEST PUSH20 0xFFFFFFFFFFFFFFFFFFFFFFFFFFFFFFFFFFFFFFFF AND EQ PUSH2 0x22C2 JUMPI PUSH1 0x40 MLOAD PUSH32 0x8C379A000000000000000000000000000000000000000000000000000000000 DUP2 MSTORE PUSH1 0x4 ADD PUSH2 0x22B9 SWAP1 PUSH2 0x3672 JUMP JUMPDEST PUSH1 0x40 MLOAD DUP1 SWAP2 SUB SWAP1 REVERT JUMPDEST PUSH8 0xDE0B6B3A7640000 DUP2 GT ISZERO PUSH2 0x230D JUMPI PUSH1 0x40 MLOAD PUSH32 0x8C379A000000000000000000000000000000000000000000000000000000000 DUP2 MSTORE PUSH1 0x4 ADD PUSH2 0x2304 SWAP1 PUSH2 0x39D0 JUMP JUMPDEST PUSH1 0x40 MLOAD DUP1 SWAP2 SUB SWAP1 REVERT JUMPDEST DUP1 PUSH1 0xA DUP2 SWAP1 SSTORE POP CALLER PUSH20 0xFFFFFFFFFFFFFFFFFFFFFFFFFFFFFFFFFFFFFFFF AND PUSH32 0x95BC4480B51F4860106D42850BCAE222CF3303FB2B7D433E896205E0EBEFE369 DUP3 PUSH1 0x40 MLOAD PUSH2 0x235A SWAP2 SWAP1 PUSH2 0x2ED1 JUMP JUMPDEST PUSH1 0x40 MLOAD DUP1 SWAP2 SUB SWAP1 LOG2 POP JUMP JUMPDEST PUSH32 0x0 DUP2 JUMP JUMPDEST PUSH1 0x0 PUSH32 0xFFFFFFFFFFFFFFFFFFFFFFFFFFFFFFFFFFFFFFFFFFFFFFFFFFFFFFFFFFFFFFFF SWAP1 POP SWAP2 SWAP1 POP JUMP JUMPDEST PUSH1 0x0 DUP1 PUSH1 0x2 SLOAD SWAP1 POP PUSH1 0x0 DUP2 EQ PUSH2 0x23E4 JUMPI PUSH2 0x23DF DUP2 PUSH2 0x23CF PUSH2 0xB79 JUMP JUMPDEST DUP6 PUSH2 0x298F SWAP1 SWAP3 SWAP2 SWAP1 PUSH4 0xFFFFFFFF AND JUMP JUMPDEST PUSH2 0x23E6 JUMP JUMPDEST DUP3 JUMPDEST SWAP2 POP POP SWAP2 SWAP1 POP JUMP JUMPDEST PUSH1 0x0 PUSH2 0x2438 PUSH1 0x3 PUSH1 0x0 DUP5 PUSH20 0xFFFFFFFFFFFFFFFFFFFFFFFFFFFFFFFFFFFFFFFF AND PUSH20 0xFFFFFFFFFFFFFFFFFFFFFFFFFFFFFFFFFFFFFFFF AND DUP2 MSTORE PUSH1 0x20 ADD SWAP1 DUP2 MSTORE PUSH1 0x20 ADD PUSH1 0x0 KECCAK256 SLOAD PUSH2 0xCA8 JUMP JUMPDEST SWAP1 POP SWAP2 SWAP1 POP JUMP JUMPDEST TIMESTAMP DUP5 LT ISZERO PUSH2 0x2482 JUMPI PUSH1 0x40 MLOAD PUSH32 0x8C379A000000000000000000000000000000000000000000000000000000000 DUP2 MSTORE PUSH1 0x4 ADD PUSH2 0x2479 SWAP1 PUSH2 0x3A3C JUMP JUMPDEST PUSH1 0x40 MLOAD DUP1 SWAP2 SUB SWAP1 REVERT JUMPDEST PUSH1 0x0 PUSH1 0x1 PUSH2 0x248E PUSH2 0x1247 JUMP JUMPDEST PUSH32 0x6E71EDAE12B1B97F4D1F60370FEF10105FA2FAAE0126114A169C64845D6126C9 DUP11 DUP11 DUP11 PUSH1 0x5 PUSH1 0x0 DUP16 PUSH20 0xFFFFFFFFFFFFFFFFFFFFFFFFFFFFFFFFFFFFFFFF AND PUSH20 0xFFFFFFFFFFFFFFFFFFFFFFFFFFFFFFFFFFFFFFFF AND DUP2 MSTORE PUSH1 0x20 ADD SWAP1 DUP2 MSTORE PUSH1 0x20 ADD PUSH1 0x0 KECCAK256 PUSH1 0x0 DUP2 SLOAD DUP1 SWAP3 SWAP2 SWAP1 PUSH1 0x1 ADD SWAP2 SWAP1 POP SSTORE DUP12 PUSH1 0x40 MLOAD PUSH1 0x20 ADD PUSH2 0x2516 SWAP7 SWAP6 SWAP5 SWAP4 SWAP3 SWAP2 SWAP1 PUSH2 0x3A5C JUMP JUMPDEST PUSH1 0x40 MLOAD PUSH1 0x20 DUP2 DUP4 SUB SUB DUP2 MSTORE SWAP1 PUSH1 0x40 MSTORE DUP1 MLOAD SWAP1 PUSH1 0x20 ADD KECCAK256 PUSH1 0x40 MLOAD PUSH1 0x20 ADD PUSH2 0x253D SWAP3 SWAP2 SWAP1 PUSH2 0x3B35 JUMP JUMPDEST PUSH1 0x40 MLOAD PUSH1 0x20 DUP2 DUP4 SUB SUB DUP2 MSTORE SWAP1 PUSH1 0x40 MSTORE DUP1 MLOAD SWAP1 PUSH1 0x20 ADD KECCAK256 DUP6 DUP6 DUP6 PUSH1 0x40 MLOAD PUSH1 0x0 DUP2 MSTORE PUSH1 0x20 ADD PUSH1 0x40 MSTORE PUSH1 0x40 MLOAD PUSH2 0x2573 SWAP5 SWAP4 SWAP3 SWAP2 SWAP1 PUSH2 0x3B6C JUMP JUMPDEST PUSH1 0x20 PUSH1 0x40 MLOAD PUSH1 0x20 DUP2 SUB SWAP1 DUP1 DUP5 SUB SWAP1 DUP6 GAS STATICCALL ISZERO DUP1 ISZERO PUSH2 0x2595 JUMPI RETURNDATASIZE PUSH1 0x0 DUP1 RETURNDATACOPY RETURNDATASIZE PUSH1 0x0 REVERT JUMPDEST POP POP POP PUSH1 0x20 PUSH1 0x40 MLOAD SUB MLOAD SWAP1 POP PUSH1 0x0 PUSH20 0xFFFFFFFFFFFFFFFFFFFFFFFFFFFFFFFFFFFFFFFF AND DUP2 PUSH20 0xFFFFFFFFFFFFFFFFFFFFFFFFFFFFFFFFFFFFFFFF AND EQ ISZERO DUP1 ISZERO PUSH2 0x2609 JUMPI POP DUP8 PUSH20 0xFFFFFFFFFFFFFFFFFFFFFFFFFFFFFFFFFFFFFFFF AND DUP2 PUSH20 0xFFFFFFFFFFFFFFFFFFFFFFFFFFFFFFFFFFFFFFFF AND EQ JUMPDEST PUSH2 0x2648 JUMPI PUSH1 0x40 MLOAD PUSH32 0x8C379A000000000000000000000000000000000000000000000000000000000 DUP2 MSTORE PUSH1 0x4 ADD PUSH2 0x263F SWAP1 PUSH2 0x3BFD JUMP JUMPDEST PUSH1 0x40 MLOAD DUP1 SWAP2 SUB SWAP1 REVERT JUMPDEST DUP6 PUSH1 0x4 PUSH1 0x0 DUP4 PUSH20 0xFFFFFFFFFFFFFFFFFFFFFFFFFFFFFFFFFFFFFFFF AND PUSH20 0xFFFFFFFFFFFFFFFFFFFFFFFFFFFFFFFFFFFFFFFF AND DUP2 MSTORE PUSH1 0x20 ADD SWAP1 DUP2 MSTORE PUSH1 0x20 ADD PUSH1 0x0 KECCAK256 PUSH1 0x0 DUP10 PUSH20 0xFFFFFFFFFFFFFFFFFFFFFFFFFFFFFFFFFFFFFFFF AND PUSH20 0xFFFFFFFFFFFFFFFFFFFFFFFFFFFFFFFFFFFFFFFF AND DUP2 MSTORE PUSH1 0x20 ADD SWAP1 DUP2 MSTORE PUSH1 0x20 ADD PUSH1 0x0 KECCAK256 DUP2 SWAP1 SSTORE POP POP DUP6 PUSH20 0xFFFFFFFFFFFFFFFFFFFFFFFFFFFFFFFFFFFFFFFF AND DUP8 PUSH20 0xFFFFFFFFFFFFFFFFFFFFFFFFFFFFFFFFFFFFFFFF AND PUSH32 0x8C5BE1E5EBEC7D5BD14F71427D1E84F3DD0314C0F7B2291E5B200AC8C7C3B925 DUP8 PUSH1 0x40 MLOAD PUSH2 0x2727 SWAP2 SWAP1 PUSH2 0x2ED1 JUMP JUMPDEST PUSH1 0x40 MLOAD DUP1 SWAP2 SUB SWAP1 LOG3 POP POP POP POP POP POP POP JUMP JUMPDEST PUSH1 0x0 PUSH1 0x3 PUSH1 0x0 DUP4 PUSH20 0xFFFFFFFFFFFFFFFFFFFFFFFFFFFFFFFFFFFFFFFF AND PUSH20 0xFFFFFFFFFFFFFFFFFFFFFFFFFFFFFFFFFFFFFFFF AND DUP2 MSTORE PUSH1 0x20 ADD SWAP1 DUP2 MSTORE PUSH1 0x20 ADD PUSH1 0x0 KECCAK256 SLOAD SWAP1 POP SWAP2 SWAP1 POP JUMP JUMPDEST PUSH1 0xD PUSH1 0x1 SWAP1 SLOAD SWAP1 PUSH2 0x100 EXP SWAP1 DIV PUSH1 0xFF AND DUP2 JUMP JUMPDEST PUSH1 0x4 PUSH1 0x20 MSTORE DUP2 PUSH1 0x0 MSTORE PUSH1 0x40 PUSH1 0x0 KECCAK256 PUSH1 0x20 MSTORE DUP1 PUSH1 0x0 MSTORE PUSH1 0x40 PUSH1 0x0 KECCAK256 PUSH1 0x0 SWAP2 POP SWAP2 POP POP SLOAD DUP2 JUMP JUMPDEST PUSH1 0xC SLOAD DUP2 JUMP JUMPDEST PUSH1 0x0 PUSH2 0x27CA DUP3 PUSH2 0x23B3 JUMP JUMPDEST SWAP1 POP SWAP2 SWAP1 POP JUMP JUMPDEST CALLER PUSH20 0xFFFFFFFFFFFFFFFFFFFFFFFFFFFFFFFFFFFFFFFF AND PUSH2 0x27F0 PUSH2 0x1305 JUMP JUMPDEST PUSH20 0xFFFFFFFFFFFFFFFFFFFFFFFFFFFFFFFFFFFFFFFF AND EQ PUSH2 0x2846 JUMPI PUSH1 0x40 MLOAD PUSH32 0x8C379A000000000000000000000000000000000000000000000000000000000 DUP2 MSTORE PUSH1 0x4 ADD PUSH2 0x283D SWAP1 PUSH2 0x3672 JUMP JUMPDEST PUSH1 0x40 MLOAD DUP1 SWAP2 SUB SWAP1 REVERT JUMPDEST PUSH1 0x0 PUSH20 0xFFFFFFFFFFFFFFFFFFFFFFFFFFFFFFFFFFFFFFFF AND DUP2 PUSH20 0xFFFFFFFFFFFFFFFFFFFFFFFFFFFFFFFFFFFFFFFF AND EQ ISZERO PUSH2 0x28B6 JUMPI PUSH1 0x40 MLOAD PUSH32 0x8C379A000000000000000000000000000000000000000000000000000000000 DUP2 MSTORE PUSH1 0x4 ADD PUSH2 0x28AD SWAP1 PUSH2 0x3C8F JUMP JUMPDEST PUSH1 0x40 MLOAD DUP1 SWAP2 SUB SWAP1 REVERT JUMPDEST DUP1 PUSH20 0xFFFFFFFFFFFFFFFFFFFFFFFFFFFFFFFFFFFFFFFF AND PUSH1 0x6 PUSH1 0x0 SWAP1 SLOAD SWAP1 PUSH2 0x100 EXP SWAP1 DIV PUSH20 0xFFFFFFFFFFFFFFFFFFFFFFFFFFFFFFFFFFFFFFFF AND PUSH20 0xFFFFFFFFFFFFFFFFFFFFFFFFFFFFFFFFFFFFFFFF AND PUSH32 0x8BE0079C531659141344CD1FD0A4F28419497F9722A3DAAFE3B4186F6B6457E0 PUSH1 0x40 MLOAD PUSH1 0x40 MLOAD DUP1 SWAP2 SUB SWAP1 LOG3 DUP1 PUSH1 0x6 PUSH1 0x0 PUSH2 0x100 EXP DUP2 SLOAD DUP2 PUSH20 0xFFFFFFFFFFFFFFFFFFFFFFFFFFFFFFFFFFFFFFFF MUL NOT AND SWAP1 DUP4 PUSH20 0xFFFFFFFFFFFFFFFFFFFFFFFFFFFFFFFFFFFFFFFF AND MUL OR SWAP1 SSTORE POP POP JUMP JUMPDEST PUSH1 0xB PUSH1 0x0 SWAP1 SLOAD SWAP1 PUSH2 0x100 EXP SWAP1 DIV PUSH1 0xFF AND DUP2 JUMP JUMPDEST PUSH1 0x8 SLOAD DUP2 JUMP JUMPDEST PUSH1 0x0 DUP3 DUP5 MUL SWAP1 POP DUP3 DUP5 DUP3 DIV EQ DUP5 ISZERO OR DUP3 ISZERO ISZERO AND PUSH2 0x29AB JUMPI PUSH1 0x0 DUP1 REVERT JUMPDEST DUP2 DUP2 DIV SWAP1 POP SWAP4 SWAP3 POP POP POP JUMP JUMPDEST PUSH1 0x0 DUP3 DUP5 MUL SWAP1 POP DUP3 DUP5 DUP3 DIV EQ DUP5 ISZERO OR DUP3 ISZERO ISZERO AND PUSH2 0x29D3 JUMPI PUSH1 0x0 DUP1 REVERT JUMPDEST PUSH1 0x1 DUP3 PUSH1 0x1 DUP4 SUB DIV ADD DUP2 ISZERO ISZERO MUL SWAP1 POP SWAP4 SWAP3 POP POP POP JUMP JUMPDEST PUSH1 0x0 PUSH32 0x8B73C3C69BB8FE3D512ECC4CF759CC79239F7B179B0FFACAA9A75D522B39400F PUSH1 0x0 PUSH1 0x40 MLOAD PUSH2 0x2A1B SWAP2 SWAP1 PUSH2 0x3D4E JUMP JUMPDEST PUSH1 0x40 MLOAD DUP1 SWAP2 SUB SWAP1 KECCAK256 PUSH32 0xC89EFDAA54C0F20C7ADF612882DF0950F5A951637E0307CDCB4C672F298B8BC6 CHAINID ADDRESS PUSH1 0x40 MLOAD PUSH1 0x20 ADD PUSH2 0x2A5A SWAP6 SWAP5 SWAP4 SWAP3 SWAP2 SWAP1 PUSH2 0x3D65 JUMP JUMPDEST PUSH1 0x40 MLOAD PUSH1 0x20 DUP2 DUP4 SUB SUB DUP2 MSTORE SWAP1 PUSH1 0x40 MSTORE DUP1 MLOAD SWAP1 PUSH1 0x20 ADD KECCAK256 SWAP1 POP SWAP1 JUMP JUMPDEST PUSH1 0x0 PUSH1 0x40 MLOAD PUSH32 0x23B872DD00000000000000000000000000000000000000000000000000000000 DUP2 MSTORE DUP5 PUSH1 0x4 DUP3 ADD MSTORE DUP4 PUSH1 0x24 DUP3 ADD MSTORE DUP3 PUSH1 0x44 DUP3 ADD MSTORE PUSH1 0x20 PUSH1 0x0 PUSH1 0x64 DUP4 PUSH1 0x0 DUP11 GAS CALL RETURNDATASIZE ISZERO PUSH1 0x1F RETURNDATASIZE GT PUSH1 0x1 PUSH1 0x0 MLOAD EQ AND OR AND SWAP2 POP POP DUP1 PUSH2 0x2B0D JUMPI PUSH1 0x40 MLOAD PUSH32 0x8C379A000000000000000000000000000000000000000000000000000000000 DUP2 MSTORE PUSH1 0x4 ADD PUSH2 0x2B04 SWAP1 PUSH2 0x3E04 JUMP JUMPDEST PUSH1 0x40 MLOAD DUP1 SWAP2 SUB SWAP1 REVERT JUMPDEST POP POP POP POP POP JUMP JUMPDEST DUP1 PUSH1 0x2 PUSH1 0x0 DUP3 DUP3 SLOAD PUSH2 0x2B26 SWAP2 SWAP1 PUSH2 0x3E24 JUMP JUMPDEST SWAP3 POP POP DUP2 SWAP1 SSTORE POP DUP1 PUSH1 0x3 PUSH1 0x0 DUP5 PUSH20 0xFFFFFFFFFFFFFFFFFFFFFFFFFFFFFFFFFFFFFFFF AND PUSH20 0xFFFFFFFFFFFFFFFFFFFFFFFFFFFFFFFFFFFFFFFF AND DUP2 MSTORE PUSH1 0x20 ADD SWAP1 DUP2 MSTORE PUSH1 0x20 ADD PUSH1 0x0 KECCAK256 PUSH1 0x0 DUP3 DUP3 SLOAD ADD SWAP3 POP POP DUP2 SWAP1 SSTORE POP DUP2 PUSH20 0xFFFFFFFFFFFFFFFFFFFFFFFFFFFFFFFFFFFFFFFF AND PUSH1 0x0 PUSH20 0xFFFFFFFFFFFFFFFFFFFFFFFFFFFFFFFFFFFFFFFF AND PUSH32 0xDDF252AD1BE2C89B69C2B068FC378DAA952BA7F163C4A11628F55A4DF523B3EF DUP4 PUSH1 0x40 MLOAD PUSH2 0x2BD8 SWAP2 SWAP1 PUSH2 0x2ED1 JUMP JUMPDEST PUSH1 0x40 MLOAD DUP1 SWAP2 SUB SWAP1 LOG3 POP POP JUMP JUMPDEST PUSH1 0x8 PUSH1 0x0 DUP2 SLOAD DUP1 SWAP3 SWAP2 SWAP1 PUSH2 0x2BF7 SWAP1 PUSH2 0x3E7A JUMP JUMPDEST SWAP2 SWAP1 POP SSTORE POP POP POP JUMP JUMPDEST PUSH1 0x0 DUP1 PUSH1 0x0 DUP6 PUSH20 0xFFFFFFFFFFFFFFFFFFFFFFFFFFFFFFFFFFFFFFFF AND DUP5 PUSH1 0x40 MLOAD PUSH2 0x2C29 SWAP1 PUSH2 0x3EE9 JUMP JUMPDEST PUSH1 0x0 PUSH1 0x40 MLOAD DUP1 DUP4 SUB DUP2 DUP6 DUP8 GAS CALL SWAP3 POP POP POP RETURNDATASIZE DUP1 PUSH1 0x0 DUP2 EQ PUSH2 0x2C66 JUMPI PUSH1 0x40 MLOAD SWAP2 POP PUSH1 0x1F NOT PUSH1 0x3F RETURNDATASIZE ADD AND DUP3 ADD PUSH1 0x40 MSTORE RETURNDATASIZE DUP3 MSTORE RETURNDATASIZE PUSH1 0x0 PUSH1 0x20 DUP5 ADD RETURNDATACOPY PUSH2 0x2C6B JUMP JUMPDEST PUSH1 0x60 SWAP2 POP JUMPDEST POP SWAP2 POP SWAP2 POP DUP2 PUSH2 0x2CB0 JUMPI PUSH1 0x40 MLOAD PUSH32 0x8C379A000000000000000000000000000000000000000000000000000000000 DUP2 MSTORE PUSH1 0x4 ADD PUSH2 0x2CA7 SWAP1 PUSH2 0x3F4A JUMP JUMPDEST PUSH1 0x40 MLOAD DUP1 SWAP2 SUB SWAP1 REVERT JUMPDEST ADDRESS PUSH20 0xFFFFFFFFFFFFFFFFFFFFFFFFFFFFFFFFFFFFFFFF AND DUP7 PUSH20 0xFFFFFFFFFFFFFFFFFFFFFFFFFFFFFFFFFFFFFFFF AND PUSH32 0x921FCE8B04203D2C416691CD9E563C8C78D2F6AC4D8F522A65F940640FF66091 DUP8 PUSH1 0x40 MLOAD PUSH2 0x2D0D SWAP2 SWAP1 PUSH2 0x3F9B JUMP JUMPDEST PUSH1 0x40 MLOAD DUP1 SWAP2 SUB SWAP1 LOG3 DUP1 DUP1 PUSH1 0x20 ADD SWAP1 MLOAD DUP2 ADD SWAP1 PUSH2 0x2D29 SWAP2 SWAP1 PUSH2 0x38EB JUMP JUMPDEST SWAP3 POP POP POP SWAP4 SWAP3 POP POP POP JUMP JUMPDEST PUSH1 0x7 PUSH1 0x0 DUP2 SLOAD DUP1 SWAP3 SWAP2 SWAP1 PUSH2 0x2D47 SWAP1 PUSH2 0x3E7A JUMP JUMPDEST SWAP2 SWAP1 POP SSTORE POP POP POP JUMP JUMPDEST DUP1 PUSH1 0x3 PUSH1 0x0 DUP5 PUSH20 0xFFFFFFFFFFFFFFFFFFFFFFFFFFFFFFFFFFFFFFFF AND PUSH20 0xFFFFFFFFFFFFFFFFFFFFFFFFFFFFFFFFFFFFFFFF AND DUP2 MSTORE PUSH1 0x20 ADD SWAP1 DUP2 MSTORE PUSH1 0x20 ADD PUSH1 0x0 KECCAK256 PUSH1 0x0 DUP3 DUP3 SLOAD PUSH2 0x2D9F SWAP2 SWAP1 PUSH2 0x35CC JUMP JUMPDEST SWAP3 POP POP DUP2 SWAP1 SSTORE POP DUP1 PUSH1 0x2 PUSH1 0x0 DUP3 DUP3 SLOAD SUB SWAP3 POP POP DUP2 SWAP1 SSTORE POP PUSH1 0x0 PUSH20 0xFFFFFFFFFFFFFFFFFFFFFFFFFFFFFFFFFFFFFFFF AND DUP3 PUSH20 0xFFFFFFFFFFFFFFFFFFFFFFFFFFFFFFFFFFFFFFFF AND PUSH32 0xDDF252AD1BE2C89B69C2B068FC378DAA952BA7F163C4A11628F55A4DF523B3EF DUP4 PUSH1 0x40 MLOAD PUSH2 0x2E14 SWAP2 SWAP1 PUSH2 0x2ED1 JUMP JUMPDEST PUSH1 0x40 MLOAD DUP1 SWAP2 SUB SWAP1 LOG3 POP POP JUMP JUMPDEST PUSH1 0x0 PUSH1 0x40 MLOAD PUSH32 0xA9059CBB00000000000000000000000000000000000000000000000000000000 DUP2 MSTORE DUP4 PUSH1 0x4 DUP3 ADD MSTORE DUP3 PUSH1 0x24 DUP3 ADD MSTORE PUSH1 0x20 PUSH1 0x0 PUSH1 0x44 DUP4 PUSH1 0x0 DUP10 GAS CALL RETURNDATASIZE ISZERO PUSH1 0x1F RETURNDATASIZE GT PUSH1 0x1 PUSH1 0x0 MLOAD EQ AND OR AND SWAP2 POP POP DUP1 PUSH2 0x2EB2 JUMPI PUSH1 0x40 MLOAD PUSH32 0x8C379A000000000000000000000000000000000000000000000000000000000 DUP2 MSTORE PUSH1 0x4 ADD PUSH2 0x2EA9 SWAP1 PUSH2 0x4002 JUMP JUMPDEST PUSH1 0x40 MLOAD DUP1 SWAP2 SUB SWAP1 REVERT JUMPDEST POP POP POP POP JUMP JUMPDEST PUSH1 0x0 DUP2 SWAP1 POP SWAP2 SWAP1 POP JUMP JUMPDEST PUSH2 0x2ECB DUP2 PUSH2 0x2EB8 JUMP JUMPDEST DUP3 MSTORE POP POP JUMP JUMPDEST PUSH1 0x0 PUSH1 0x20 DUP3 ADD SWAP1 POP PUSH2 0x2EE6 PUSH1 0x0 DUP4 ADD DUP5 PUSH2 0x2EC2 JUMP JUMPDEST SWAP3 SWAP2 POP POP JUMP JUMPDEST PUSH1 0x0 DUP2 MLOAD SWAP1 POP SWAP2 SWAP1 POP JUMP JUMPDEST PUSH1 0x0 DUP3 DUP3 MSTORE PUSH1 0x20 DUP3 ADD SWAP1 POP SWAP3 SWAP2 POP POP JUMP JUMPDEST PUSH1 0x0 JUMPDEST DUP4 DUP2 LT ISZERO PUSH2 0x2F26 JUMPI DUP1 DUP3 ADD MLOAD DUP2 DUP5 ADD MSTORE PUSH1 0x20 DUP2 ADD SWAP1 POP PUSH2 0x2F0B JUMP JUMPDEST DUP4 DUP2 GT ISZERO PUSH2 0x2F35 JUMPI PUSH1 0x0 DUP5 DUP5 ADD MSTORE JUMPDEST POP POP POP POP JUMP JUMPDEST PUSH1 0x0 PUSH1 0x1F NOT PUSH1 0x1F DUP4 ADD AND SWAP1 POP SWAP2 SWAP1 POP JUMP JUMPDEST PUSH1 0x0 PUSH2 0x2F57 DUP3 PUSH2 0x2EEC JUMP JUMPDEST PUSH2 0x2F61 DUP2 DUP6 PUSH2 0x2EF7 JUMP JUMPDEST SWAP4 POP PUSH2 0x2F71 DUP2 DUP6 PUSH1 0x20 DUP7 ADD PUSH2 0x2F08 JUMP JUMPDEST PUSH2 0x2F7A DUP2 PUSH2 0x2F3B JUMP JUMPDEST DUP5 ADD SWAP2 POP POP SWAP3 SWAP2 POP POP JUMP JUMPDEST PUSH1 0x0 PUSH1 0x20 DUP3 ADD SWAP1 POP DUP2 DUP2 SUB PUSH1 0x0 DUP4 ADD MSTORE PUSH2 0x2F9F DUP2 DUP5 PUSH2 0x2F4C JUMP JUMPDEST SWAP1 POP SWAP3 SWAP2 POP POP JUMP JUMPDEST PUSH1 0x0 DUP1 REVERT JUMPDEST PUSH2 0x2FB5 DUP2 PUSH2 0x2EB8 JUMP JUMPDEST DUP2 EQ PUSH2 0x2FC0 JUMPI PUSH1 0x0 DUP1 REVERT JUMPDEST POP JUMP JUMPDEST PUSH1 0x0 DUP2 CALLDATALOAD SWAP1 POP PUSH2 0x2FD2 DUP2 PUSH2 0x2FAC JUMP JUMPDEST SWAP3 SWAP2 POP POP JUMP JUMPDEST PUSH1 0x0 PUSH1 0x20 DUP3 DUP5 SUB SLT ISZERO PUSH2 0x2FEE JUMPI PUSH2 0x2FED PUSH2 0x2FA7 JUMP JUMPDEST JUMPDEST PUSH1 0x0 PUSH2 0x2FFC DUP5 DUP3 DUP6 ADD PUSH2 0x2FC3 JUMP JUMPDEST SWAP2 POP POP SWAP3 SWAP2 POP POP JUMP JUMPDEST PUSH1 0x0 PUSH20 0xFFFFFFFFFFFFFFFFFFFFFFFFFFFFFFFFFFFFFFFF DUP3 AND SWAP1 POP SWAP2 SWAP1 POP JUMP JUMPDEST PUSH1 0x0 PUSH2 0x3030 DUP3 PUSH2 0x3005 JUMP JUMPDEST SWAP1 POP SWAP2 SWAP1 POP JUMP JUMPDEST PUSH2 0x3040 DUP2 PUSH2 0x3025 JUMP JUMPDEST DUP2 EQ PUSH2 0x304B JUMPI PUSH1 0x0 DUP1 REVERT JUMPDEST POP JUMP JUMPDEST PUSH1 0x0 DUP2 CALLDATALOAD SWAP1 POP PUSH2 0x305D DUP2 PUSH2 0x3037 JUMP JUMPDEST SWAP3 SWAP2 POP POP JUMP JUMPDEST PUSH1 0x0 DUP1 PUSH1 0x40 DUP4 DUP6 SUB SLT ISZERO PUSH2 0x307A JUMPI PUSH2 0x3079 PUSH2 0x2FA7 JUMP JUMPDEST JUMPDEST PUSH1 0x0 PUSH2 0x3088 DUP6 DUP3 DUP7 ADD PUSH2 0x304E JUMP JUMPDEST SWAP3 POP POP PUSH1 0x20 PUSH2 0x3099 DUP6 DUP3 DUP7 ADD PUSH2 0x2FC3 JUMP JUMPDEST SWAP2 POP POP SWAP3 POP SWAP3 SWAP1 POP JUMP JUMPDEST PUSH1 0x0 DUP2 ISZERO ISZERO SWAP1 POP SWAP2 SWAP1 POP JUMP JUMPDEST PUSH2 0x30B8 DUP2 PUSH2 0x30A3 JUMP JUMPDEST DUP3 MSTORE POP POP JUMP JUMPDEST PUSH1 0x0 PUSH1 0x20 DUP3 ADD SWAP1 POP PUSH2 0x30D3 PUSH1 0x0 DUP4 ADD DUP5 PUSH2 0x30AF JUMP JUMPDEST SWAP3 SWAP2 POP POP JUMP JUMPDEST PUSH1 0x0 DUP1 PUSH1 0x0 PUSH1 0x60 DUP5 DUP7 SUB SLT ISZERO PUSH2 0x30F2 JUMPI PUSH2 0x30F1 PUSH2 0x2FA7 JUMP JUMPDEST JUMPDEST PUSH1 0x0 PUSH2 0x3100 DUP7 DUP3 DUP8 ADD PUSH2 0x304E JUMP JUMPDEST SWAP4 POP POP PUSH1 0x20 PUSH2 0x3111 DUP7 DUP3 DUP8 ADD PUSH2 0x304E JUMP JUMPDEST SWAP3 POP POP PUSH1 0x40 PUSH2 0x3122 DUP7 DUP3 DUP8 ADD PUSH2 0x2FC3 JUMP JUMPDEST SWAP2 POP POP SWAP3 POP SWAP3 POP SWAP3 JUMP JUMPDEST PUSH1 0x0 PUSH1 0xFF DUP3 AND SWAP1 POP SWAP2 SWAP1 POP JUMP JUMPDEST PUSH2 0x3142 DUP2 PUSH2 0x312C JUMP JUMPDEST DUP3 MSTORE POP POP JUMP JUMPDEST PUSH1 0x0 PUSH1 0x20 DUP3 ADD SWAP1 POP PUSH2 0x315D PUSH1 0x0 DUP4 ADD DUP5 PUSH2 0x3139 JUMP JUMPDEST SWAP3 SWAP2 POP POP JUMP JUMPDEST PUSH2 0x316C DUP2 PUSH2 0x30A3 JUMP JUMPDEST DUP2 EQ PUSH2 0x3177 JUMPI PUSH1 0x0 DUP1 REVERT JUMPDEST POP JUMP JUMPDEST PUSH1 0x0 DUP2 CALLDATALOAD SWAP1 POP PUSH2 0x3189 DUP2 PUSH2 0x3163 JUMP JUMPDEST SWAP3 SWAP2 POP POP JUMP JUMPDEST PUSH1 0x0 PUSH1 0x20 DUP3 DUP5 SUB SLT ISZERO PUSH2 0x31A5 JUMPI PUSH2 0x31A4 PUSH2 0x2FA7 JUMP JUMPDEST JUMPDEST PUSH1 0x0 PUSH2 0x31B3 DUP5 DUP3 DUP6 ADD PUSH2 0x317A JUMP JUMPDEST SWAP2 POP POP SWAP3 SWAP2 POP POP JUMP JUMPDEST PUSH1 0x0 DUP2 SWAP1 POP SWAP2 SWAP1 POP JUMP JUMPDEST PUSH2 0x31CF DUP2 PUSH2 0x31BC JUMP JUMPDEST DUP3 MSTORE POP POP JUMP JUMPDEST PUSH1 0x0 PUSH1 0x20 DUP3 ADD SWAP1 POP PUSH2 0x31EA PUSH1 0x0 DUP4 ADD DUP5 PUSH2 0x31C6 JUMP JUMPDEST SWAP3 SWAP2 POP POP JUMP JUMPDEST PUSH1 0x0 DUP2 SWAP1 POP SWAP2 SWAP1 POP JUMP JUMPDEST PUSH1 0x0 PUSH2 0x3215 PUSH2 0x3210 PUSH2 0x320B DUP5 PUSH2 0x3005 JUMP JUMPDEST PUSH2 0x31F0 JUMP JUMPDEST PUSH2 0x3005 JUMP JUMPDEST SWAP1 POP SWAP2 SWAP1 POP JUMP JUMPDEST PUSH1 0x0 PUSH2 0x3227 DUP3 PUSH2 0x31FA JUMP JUMPDEST SWAP1 POP SWAP2 SWAP1 POP JUMP JUMPDEST PUSH1 0x0 PUSH2 0x3239 DUP3 PUSH2 0x321C JUMP JUMPDEST SWAP1 POP SWAP2 SWAP1 POP JUMP JUMPDEST PUSH2 0x3249 DUP2 PUSH2 0x322E JUMP JUMPDEST DUP3 MSTORE POP POP JUMP JUMPDEST PUSH1 0x0 PUSH1 0x20 DUP3 ADD SWAP1 POP PUSH2 0x3264 PUSH1 0x0 DUP4 ADD DUP5 PUSH2 0x3240 JUMP JUMPDEST SWAP3 SWAP2 POP POP JUMP JUMPDEST PUSH1 0x0 PUSH1 0x20 DUP3 DUP5 SUB SLT ISZERO PUSH2 0x3280 JUMPI PUSH2 0x327F PUSH2 0x2FA7 JUMP JUMPDEST JUMPDEST PUSH1 0x0 PUSH2 0x328E DUP5 DUP3 DUP6 ADD PUSH2 0x304E JUMP JUMPDEST SWAP2 POP POP SWAP3 SWAP2 POP POP JUMP JUMPDEST PUSH2 0x32A0 DUP2 PUSH2 0x3025 JUMP JUMPDEST DUP3 MSTORE POP POP JUMP JUMPDEST PUSH1 0x0 PUSH1 0x20 DUP3 ADD SWAP1 POP PUSH2 0x32BB PUSH1 0x0 DUP4 ADD DUP5 PUSH2 0x3297 JUMP JUMPDEST SWAP3 SWAP2 POP POP JUMP JUMPDEST PUSH1 0x0 DUP1 PUSH1 0x40 DUP4 DUP6 SUB SLT ISZERO PUSH2 0x32D8 JUMPI PUSH2 0x32D7 PUSH2 0x2FA7 JUMP JUMPDEST JUMPDEST PUSH1 0x0 PUSH2 0x32E6 DUP6 DUP3 DUP7 ADD PUSH2 0x2FC3 JUMP JUMPDEST SWAP3 POP POP PUSH1 0x20 PUSH2 0x32F7 DUP6 DUP3 DUP7 ADD PUSH2 0x304E JUMP JUMPDEST SWAP2 POP POP SWAP3 POP SWAP3 SWAP1 POP JUMP JUMPDEST PUSH2 0x330A DUP2 PUSH2 0x3005 JUMP JUMPDEST DUP2 EQ PUSH2 0x3315 JUMPI PUSH1 0x0 DUP1 REVERT JUMPDEST POP JUMP JUMPDEST PUSH1 0x0 DUP2 CALLDATALOAD SWAP1 POP PUSH2 0x3327 DUP2 PUSH2 0x3301 JUMP JUMPDEST SWAP3 SWAP2 POP POP JUMP JUMPDEST PUSH1 0x0 DUP1 PUSH1 0x40 DUP4 DUP6 SUB SLT ISZERO PUSH2 0x3344 JUMPI PUSH2 0x3343 PUSH2 0x2FA7 JUMP JUMPDEST JUMPDEST PUSH1 0x0 PUSH2 0x3352 DUP6 DUP3 DUP7 ADD PUSH2 0x304E JUMP JUMPDEST SWAP3 POP POP PUSH1 0x20 PUSH2 0x3363 DUP6 DUP3 DUP7 ADD PUSH2 0x3318 JUMP JUMPDEST SWAP2 POP POP SWAP3 POP SWAP3 SWAP1 POP JUMP JUMPDEST PUSH1 0x0 DUP1 PUSH1 0x0 PUSH1 0x60 DUP5 DUP7 SUB SLT ISZERO PUSH2 0x3386 JUMPI PUSH2 0x3385 PUSH2 0x2FA7 JUMP JUMPDEST JUMPDEST PUSH1 0x0 PUSH2 0x3394 DUP7 DUP3 DUP8 ADD PUSH2 0x2FC3 JUMP JUMPDEST SWAP4 POP POP PUSH1 0x20 PUSH2 0x33A5 DUP7 DUP3 DUP8 ADD PUSH2 0x304E JUMP JUMPDEST SWAP3 POP POP PUSH1 0x40 PUSH2 0x33B6 DUP7 DUP3 DUP8 ADD PUSH2 0x304E JUMP JUMPDEST SWAP2 POP POP SWAP3 POP SWAP3 POP SWAP3 JUMP JUMPDEST PUSH2 0x33C9 DUP2 PUSH2 0x312C JUMP JUMPDEST DUP2 EQ PUSH2 0x33D4 JUMPI PUSH1 0x0 DUP1 REVERT JUMPDEST POP JUMP JUMPDEST PUSH1 0x0 DUP2 CALLDATALOAD SWAP1 POP PUSH2 0x33E6 DUP2 PUSH2 0x33C0 JUMP JUMPDEST SWAP3 SWAP2 POP POP JUMP JUMPDEST PUSH2 0x33F5 DUP2 PUSH2 0x31BC JUMP JUMPDEST DUP2 EQ PUSH2 0x3400 JUMPI PUSH1 0x0 DUP1 REVERT JUMPDEST POP JUMP JUMPDEST PUSH1 0x0 DUP2 CALLDATALOAD SWAP1 POP PUSH2 0x3412 DUP2 PUSH2 0x33EC JUMP JUMPDEST SWAP3 SWAP2 POP POP JUMP JUMPDEST PUSH1 0x0 DUP1 PUSH1 0x0 DUP1 PUSH1 0x0 DUP1 PUSH1 0x0 PUSH1 0xE0 DUP9 DUP11 SUB SLT ISZERO PUSH2 0x3437 JUMPI PUSH2 0x3436 PUSH2 0x2FA7 JUMP JUMPDEST JUMPDEST PUSH1 0x0 PUSH2 0x3445 DUP11 DUP3 DUP12 ADD PUSH2 0x304E JUMP JUMPDEST SWAP8 POP POP PUSH1 0x20 PUSH2 0x3456 DUP11 DUP3 DUP12 ADD PUSH2 0x304E JUMP JUMPDEST SWAP7 POP POP PUSH1 0x40 PUSH2 0x3467 DUP11 DUP3 DUP12 ADD PUSH2 0x2FC3 JUMP JUMPDEST SWAP6 POP POP PUSH1 0x60 PUSH2 0x3478 DUP11 DUP3 DUP12 ADD PUSH2 0x2FC3 JUMP JUMPDEST SWAP5 POP POP PUSH1 0x80 PUSH2 0x3489 DUP11 DUP3 DUP12 ADD PUSH2 0x33D7 JUMP JUMPDEST SWAP4 POP POP PUSH1 0xA0 PUSH2 0x349A DUP11 DUP3 DUP12 ADD PUSH2 0x3403 JUMP JUMPDEST SWAP3 POP POP PUSH1 0xC0 PUSH2 0x34AB DUP11 DUP3 DUP12 ADD PUSH2 0x3403 JUMP JUMPDEST SWAP2 POP POP SWAP3 SWAP6 SWAP9 SWAP2 SWAP5 SWAP8 POP SWAP3 SWAP6 POP JUMP JUMPDEST PUSH1 0x0 DUP1 PUSH1 0x40 DUP4 DUP6 SUB SLT ISZERO PUSH2 0x34D1 JUMPI PUSH2 0x34D0 PUSH2 0x2FA7 JUMP JUMPDEST JUMPDEST PUSH1 0x0 PUSH2 0x34DF DUP6 DUP3 DUP7 ADD PUSH2 0x304E JUMP JUMPDEST SWAP3 POP POP PUSH1 0x20 PUSH2 0x34F0 DUP6 DUP3 DUP7 ADD PUSH2 0x304E JUMP JUMPDEST SWAP2 POP POP SWAP3 POP SWAP3 SWAP1 POP JUMP JUMPDEST PUSH1 0x0 DUP2 MLOAD SWAP1 POP PUSH2 0x3509 DUP2 PUSH2 0x2FAC JUMP JUMPDEST SWAP3 SWAP2 POP POP JUMP JUMPDEST PUSH1 0x0 PUSH1 0x20 DUP3 DUP5 SUB SLT ISZERO PUSH2 0x3525 JUMPI PUSH2 0x3524 PUSH2 0x2FA7 JUMP JUMPDEST JUMPDEST PUSH1 0x0 PUSH2 0x3533 DUP5 DUP3 DUP6 ADD PUSH2 0x34FA JUMP JUMPDEST SWAP2 POP POP SWAP3 SWAP2 POP POP JUMP JUMPDEST PUSH32 0x4E487B7100000000000000000000000000000000000000000000000000000000 PUSH1 0x0 MSTORE PUSH1 0x22 PUSH1 0x4 MSTORE PUSH1 0x24 PUSH1 0x0 REVERT JUMPDEST PUSH1 0x0 PUSH1 0x2 DUP3 DIV SWAP1 POP PUSH1 0x1 DUP3 AND DUP1 PUSH2 0x3583 JUMPI PUSH1 0x7F DUP3 AND SWAP2 POP JUMPDEST PUSH1 0x20 DUP3 LT DUP2 EQ ISZERO PUSH2 0x3597 JUMPI PUSH2 0x3596 PUSH2 0x353C JUMP JUMPDEST JUMPDEST POP SWAP2 SWAP1 POP JUMP JUMPDEST PUSH32 0x4E487B7100000000000000000000000000000000000000000000000000000000 PUSH1 0x0 MSTORE PUSH1 0x11 PUSH1 0x4 MSTORE PUSH1 0x24 PUSH1 0x0 REVERT JUMPDEST PUSH1 0x0 PUSH2 0x35D7 DUP3 PUSH2 0x2EB8 JUMP JUMPDEST SWAP2 POP PUSH2 0x35E2 DUP4 PUSH2 0x2EB8 JUMP JUMPDEST SWAP3 POP DUP3 DUP3 LT ISZERO PUSH2 0x35F5 JUMPI PUSH2 0x35F4 PUSH2 0x359D JUMP JUMPDEST JUMPDEST DUP3 DUP3 SUB SWAP1 POP SWAP3 SWAP2 POP POP JUMP JUMPDEST PUSH32 0x4F776E61626C653A2063616C6C6572206973206E6F7420746865206D616E6167 PUSH1 0x0 DUP3 ADD MSTORE PUSH32 0x6572000000000000000000000000000000000000000000000000000000000000 PUSH1 0x20 DUP3 ADD MSTORE POP JUMP JUMPDEST PUSH1 0x0 PUSH2 0x365C PUSH1 0x22 DUP4 PUSH2 0x2EF7 JUMP JUMPDEST SWAP2 POP PUSH2 0x3667 DUP3 PUSH2 0x3600 JUMP JUMPDEST PUSH1 0x40 DUP3 ADD SWAP1 POP SWAP2 SWAP1 POP JUMP JUMPDEST PUSH1 0x0 PUSH1 0x20 DUP3 ADD SWAP1 POP DUP2 DUP2 SUB PUSH1 0x0 DUP4 ADD MSTORE PUSH2 0x368B DUP2 PUSH2 0x364F JUMP JUMPDEST SWAP1 POP SWAP2 SWAP1 POP JUMP JUMPDEST PUSH1 0x0 DUP2 MLOAD SWAP1 POP PUSH2 0x36A1 DUP2 PUSH2 0x33C0 JUMP JUMPDEST SWAP3 SWAP2 POP POP JUMP JUMPDEST PUSH1 0x0 PUSH1 0x20 DUP3 DUP5 SUB SLT ISZERO PUSH2 0x36BD JUMPI PUSH2 0x36BC PUSH2 0x2FA7 JUMP JUMPDEST JUMPDEST PUSH1 0x0 PUSH2 0x36CB DUP5 DUP3 DUP6 ADD PUSH2 0x3692 JUMP JUMPDEST SWAP2 POP POP SWAP3 SWAP2 POP POP JUMP JUMPDEST PUSH32 0x57524F4E475F444543494D414C53000000000000000000000000000000000000 PUSH1 0x0 DUP3 ADD MSTORE POP JUMP JUMPDEST PUSH1 0x0 PUSH2 0x370A PUSH1 0xE DUP4 PUSH2 0x2EF7 JUMP JUMPDEST SWAP2 POP PUSH2 0x3715 DUP3 PUSH2 0x36D4 JUMP JUMPDEST PUSH1 0x20 DUP3 ADD SWAP1 POP SWAP2 SWAP1 POP JUMP JUMPDEST PUSH1 0x0 PUSH1 0x20 DUP3 ADD SWAP1 POP DUP2 DUP2 SUB PUSH1 0x0 DUP4 ADD MSTORE PUSH2 0x3739 DUP2 PUSH2 0x36FD JUMP JUMPDEST SWAP1 POP SWAP2 SWAP1 POP JUMP JUMPDEST PUSH32 0x5A45524F5F534841524553000000000000000000000000000000000000000000 PUSH1 0x0 DUP3 ADD MSTORE POP JUMP JUMPDEST PUSH1 0x0 PUSH2 0x3776 PUSH1 0xB DUP4 PUSH2 0x2EF7 JUMP JUMPDEST SWAP2 POP PUSH2 0x3781 DUP3 PUSH2 0x3740 JUMP JUMPDEST PUSH1 0x20 DUP3 ADD SWAP1 POP SWAP2 SWAP1 POP JUMP JUMPDEST PUSH1 0x0 PUSH1 0x20 DUP3 ADD SWAP1 POP DUP2 DUP2 SUB PUSH1 0x0 DUP4 ADD MSTORE PUSH2 0x37A5 DUP2 PUSH2 0x3769 JUMP JUMPDEST SWAP1 POP SWAP2 SWAP1 POP JUMP JUMPDEST PUSH1 0x0 PUSH1 0x40 DUP3 ADD SWAP1 POP PUSH2 0x37C1 PUSH1 0x0 DUP4 ADD DUP6 PUSH2 0x2EC2 JUMP JUMPDEST PUSH2 0x37CE PUSH1 0x20 DUP4 ADD DUP5 PUSH2 0x2EC2 JUMP JUMPDEST SWAP4 SWAP3 POP POP POP JUMP JUMPDEST PUSH32 0x4645455F544F4F5F484947480000000000000000000000000000000000000000 PUSH1 0x0 DUP3 ADD MSTORE POP JUMP JUMPDEST PUSH1 0x0 PUSH2 0x380B PUSH1 0xC DUP4 PUSH2 0x2EF7 JUMP JUMPDEST SWAP2 POP PUSH2 0x3816 DUP3 PUSH2 0x37D5 JUMP JUMPDEST PUSH1 0x20 DUP3 ADD SWAP1 POP SWAP2 SWAP1 POP JUMP JUMPDEST PUSH1 0x0 PUSH1 0x20 DUP3 ADD SWAP1 POP DUP2 DUP2 SUB PUSH1 0x0 DUP4 ADD MSTORE PUSH2 0x383A DUP2 PUSH2 0x37FE JUMP JUMPDEST SWAP1 POP SWAP2 SWAP1 POP JUMP JUMPDEST PUSH32 0x414C52454144595F494E495449414C495A454400000000000000000000000000 PUSH1 0x0 DUP3 ADD MSTORE POP JUMP JUMPDEST PUSH1 0x0 PUSH2 0x3877 PUSH1 0x13 DUP4 PUSH2 0x2EF7 JUMP JUMPDEST SWAP2 POP PUSH2 0x3882 DUP3 PUSH2 0x3841 JUMP JUMPDEST PUSH1 0x20 DUP3 ADD SWAP1 POP SWAP2 SWAP1 POP JUMP JUMPDEST PUSH1 0x0 PUSH1 0x20 DUP3 ADD SWAP1 POP DUP2 DUP2 SUB PUSH1 0x0 DUP4 ADD MSTORE PUSH2 0x38A6 DUP2 PUSH2 0x386A JUMP JUMPDEST SWAP1 POP SWAP2 SWAP1 POP JUMP JUMPDEST PUSH1 0x0 PUSH1 0x40 DUP3 ADD SWAP1 POP PUSH2 0x38C2 PUSH1 0x0 DUP4 ADD DUP6 PUSH2 0x3297 JUMP JUMPDEST PUSH2 0x38CF PUSH1 0x20 DUP4 ADD DUP5 PUSH2 0x2EC2 JUMP JUMPDEST SWAP4 SWAP3 POP POP POP JUMP JUMPDEST PUSH1 0x0 DUP2 MLOAD SWAP1 POP PUSH2 0x38E5 DUP2 PUSH2 0x3163 JUMP JUMPDEST SWAP3 SWAP2 POP POP JUMP JUMPDEST PUSH1 0x0 PUSH1 0x20 DUP3 DUP5 SUB SLT ISZERO PUSH2 0x3901 JUMPI PUSH2 0x3900 PUSH2 0x2FA7 JUMP JUMPDEST JUMPDEST PUSH1 0x0 PUSH2 0x390F DUP5 DUP3 DUP6 ADD PUSH2 0x38D6 JUMP JUMPDEST SWAP2 POP POP SWAP3 SWAP2 POP POP JUMP JUMPDEST PUSH32 0x5A45524F5F415353455453000000000000000000000000000000000000000000 PUSH1 0x0 DUP3 ADD MSTORE POP JUMP JUMPDEST PUSH1 0x0 PUSH2 0x394E PUSH1 0xB DUP4 PUSH2 0x2EF7 JUMP JUMPDEST SWAP2 POP PUSH2 0x3959 DUP3 PUSH2 0x3918 JUMP JUMPDEST PUSH1 0x20 DUP3 ADD SWAP1 POP SWAP2 SWAP1 POP JUMP JUMPDEST PUSH1 0x0 PUSH1 0x20 DUP3 ADD SWAP1 POP DUP2 DUP2 SUB PUSH1 0x0 DUP4 ADD MSTORE PUSH2 0x397D DUP2 PUSH2 0x3941 JUMP JUMPDEST SWAP1 POP SWAP2 SWAP1 POP JUMP JUMPDEST PUSH32 0x5441524745545F544F4F5F484947480000000000000000000000000000000000 PUSH1 0x0 DUP3 ADD MSTORE POP JUMP JUMPDEST PUSH1 0x0 PUSH2 0x39BA PUSH1 0xF DUP4 PUSH2 0x2EF7 JUMP JUMPDEST SWAP2 POP PUSH2 0x39C5 DUP3 PUSH2 0x3984 JUMP JUMPDEST PUSH1 0x20 DUP3 ADD SWAP1 POP SWAP2 SWAP1 POP JUMP JUMPDEST PUSH1 0x0 PUSH1 0x20 DUP3 ADD SWAP1 POP DUP2 DUP2 SUB PUSH1 0x0 DUP4 ADD MSTORE PUSH2 0x39E9 DUP2 PUSH2 0x39AD JUMP JUMPDEST SWAP1 POP SWAP2 SWAP1 POP JUMP JUMPDEST PUSH32 0x5045524D49545F444541444C494E455F45585049524544000000000000000000 PUSH1 0x0 DUP3 ADD MSTORE POP JUMP JUMPDEST PUSH1 0x0 PUSH2 0x3A26 PUSH1 0x17 DUP4 PUSH2 0x2EF7 JUMP JUMPDEST SWAP2 POP PUSH2 0x3A31 DUP3 PUSH2 0x39F0 JUMP JUMPDEST PUSH1 0x20 DUP3 ADD SWAP1 POP SWAP2 SWAP1 POP JUMP JUMPDEST PUSH1 0x0 PUSH1 0x20 DUP3 ADD SWAP1 POP DUP2 DUP2 SUB PUSH1 0x0 DUP4 ADD MSTORE PUSH2 0x3A55 DUP2 PUSH2 0x3A19 JUMP JUMPDEST SWAP1 POP SWAP2 SWAP1 POP JUMP JUMPDEST PUSH1 0x0 PUSH1 0xC0 DUP3 ADD SWAP1 POP PUSH2 0x3A71 PUSH1 0x0 DUP4 ADD DUP10 PUSH2 0x31C6 JUMP JUMPDEST PUSH2 0x3A7E PUSH1 0x20 DUP4 ADD DUP9 PUSH2 0x3297 JUMP JUMPDEST PUSH2 0x3A8B PUSH1 0x40 DUP4 ADD DUP8 PUSH2 0x3297 JUMP JUMPDEST PUSH2 0x3A98 PUSH1 0x60 DUP4 ADD DUP7 PUSH2 0x2EC2 JUMP JUMPDEST PUSH2 0x3AA5 PUSH1 0x80 DUP4 ADD DUP6 PUSH2 0x2EC2 JUMP JUMPDEST PUSH2 0x3AB2 PUSH1 0xA0 DUP4 ADD DUP5 PUSH2 0x2EC2 JUMP JUMPDEST SWAP8 SWAP7 POP POP POP POP POP POP POP JUMP JUMPDEST PUSH1 0x0 DUP2 SWAP1 POP SWAP3 SWAP2 POP POP JUMP JUMPDEST PUSH32 0x1901000000000000000000000000000000000000000000000000000000000000 PUSH1 0x0 DUP3 ADD MSTORE POP JUMP JUMPDEST PUSH1 0x0 PUSH2 0x3AFE PUSH1 0x2 DUP4 PUSH2 0x3ABD JUMP JUMPDEST SWAP2 POP PUSH2 0x3B09 DUP3 PUSH2 0x3AC8 JUMP JUMPDEST PUSH1 0x2 DUP3 ADD SWAP1 POP SWAP2 SWAP1 POP JUMP JUMPDEST PUSH1 0x0 DUP2 SWAP1 POP SWAP2 SWAP1 POP JUMP JUMPDEST PUSH2 0x3B2F PUSH2 0x3B2A DUP3 PUSH2 0x31BC JUMP JUMPDEST PUSH2 0x3B14 JUMP JUMPDEST DUP3 MSTORE POP POP JUMP JUMPDEST PUSH1 0x0 PUSH2 0x3B40 DUP3 PUSH2 0x3AF1 JUMP JUMPDEST SWAP2 POP PUSH2 0x3B4C DUP3 DUP6 PUSH2 0x3B1E JUMP JUMPDEST PUSH1 0x20 DUP3 ADD SWAP2 POP PUSH2 0x3B5C DUP3 DUP5 PUSH2 0x3B1E JUMP JUMPDEST PUSH1 0x20 DUP3 ADD SWAP2 POP DUP2 SWAP1 POP SWAP4 SWAP3 POP POP POP JUMP JUMPDEST PUSH1 0x0 PUSH1 0x80 DUP3 ADD SWAP1 POP PUSH2 0x3B81 PUSH1 0x0 DUP4 ADD DUP8 PUSH2 0x31C6 JUMP JUMPDEST PUSH2 0x3B8E PUSH1 0x20 DUP4 ADD DUP7 PUSH2 0x3139 JUMP JUMPDEST PUSH2 0x3B9B PUSH1 0x40 DUP4 ADD DUP6 PUSH2 0x31C6 JUMP JUMPDEST PUSH2 0x3BA8 PUSH1 0x60 DUP4 ADD DUP5 PUSH2 0x31C6 JUMP JUMPDEST SWAP6 SWAP5 POP POP POP POP POP JUMP JUMPDEST PUSH32 0x494E56414C49445F5349474E4552000000000000000000000000000000000000 PUSH1 0x0 DUP3 ADD MSTORE POP JUMP JUMPDEST PUSH1 0x0 PUSH2 0x3BE7 PUSH1 0xE DUP4 PUSH2 0x2EF7 JUMP JUMPDEST SWAP2 POP PUSH2 0x3BF2 DUP3 PUSH2 0x3BB1 JUMP JUMPDEST PUSH1 0x20 DUP3 ADD SWAP1 POP SWAP2 SWAP1 POP JUMP JUMPDEST PUSH1 0x0 PUSH1 0x20 DUP3 ADD SWAP1 POP DUP2 DUP2 SUB PUSH1 0x0 DUP4 ADD MSTORE PUSH2 0x3C16 DUP2 PUSH2 0x3BDA JUMP JUMPDEST SWAP1 POP SWAP2 SWAP1 POP JUMP JUMPDEST PUSH32 0x4F776E61626C653A206E6577206D616E6167657220697320746865207A65726F PUSH1 0x0 DUP3 ADD MSTORE PUSH32 0x2061646472657373000000000000000000000000000000000000000000000000 PUSH1 0x20 DUP3 ADD MSTORE POP JUMP JUMPDEST PUSH1 0x0 PUSH2 0x3C79 PUSH1 0x28 DUP4 PUSH2 0x2EF7 JUMP JUMPDEST SWAP2 POP PUSH2 0x3C84 DUP3 PUSH2 0x3C1D JUMP JUMPDEST PUSH1 0x40 DUP3 ADD SWAP1 POP SWAP2 SWAP1 POP JUMP JUMPDEST PUSH1 0x0 PUSH1 0x20 DUP3 ADD SWAP1 POP DUP2 DUP2 SUB PUSH1 0x0 DUP4 ADD MSTORE PUSH2 0x3CA8 DUP2 PUSH2 0x3C6C JUMP JUMPDEST SWAP1 POP SWAP2 SWAP1 POP JUMP JUMPDEST PUSH1 0x0 DUP2 SWAP1 POP SWAP3 SWAP2 POP POP JUMP JUMPDEST PUSH1 0x0 DUP2 SWAP1 POP DUP2 PUSH1 0x0 MSTORE PUSH1 0x20 PUSH1 0x0 KECCAK256 SWAP1 POP SWAP2 SWAP1 POP JUMP JUMPDEST PUSH1 0x0 DUP2 SLOAD PUSH2 0x3CDC DUP2 PUSH2 0x356B JUMP JUMPDEST PUSH2 0x3CE6 DUP2 DUP7 PUSH2 0x3CAF JUMP JUMPDEST SWAP5 POP PUSH1 0x1 DUP3 AND PUSH1 0x0 DUP2 EQ PUSH2 0x3D01 JUMPI PUSH1 0x1 DUP2 EQ PUSH2 0x3D12 JUMPI PUSH2 0x3D45 JUMP JUMPDEST PUSH1 0xFF NOT DUP4 AND DUP7 MSTORE DUP2 DUP7 ADD SWAP4 POP PUSH2 0x3D45 JUMP JUMPDEST PUSH2 0x3D1B DUP6 PUSH2 0x3CBA JUMP JUMPDEST PUSH1 0x0 JUMPDEST DUP4 DUP2 LT ISZERO PUSH2 0x3D3D JUMPI DUP2 SLOAD DUP2 DUP10 ADD MSTORE PUSH1 0x1 DUP3 ADD SWAP2 POP PUSH1 0x20 DUP2 ADD SWAP1 POP PUSH2 0x3D1E JUMP JUMPDEST DUP4 DUP9 ADD SWAP6 POP POP POP JUMPDEST POP POP POP SWAP3 SWAP2 POP POP JUMP JUMPDEST PUSH1 0x0 PUSH2 0x3D5A DUP3 DUP5 PUSH2 0x3CCF JUMP JUMPDEST SWAP2 POP DUP2 SWAP1 POP SWAP3 SWAP2 POP POP JUMP JUMPDEST PUSH1 0x0 PUSH1 0xA0 DUP3 ADD SWAP1 POP PUSH2 0x3D7A PUSH1 0x0 DUP4 ADD DUP9 PUSH2 0x31C6 JUMP JUMPDEST PUSH2 0x3D87 PUSH1 0x20 DUP4 ADD DUP8 PUSH2 0x31C6 JUMP JUMPDEST PUSH2 0x3D94 PUSH1 0x40 DUP4 ADD DUP7 PUSH2 0x31C6 JUMP JUMPDEST PUSH2 0x3DA1 PUSH1 0x60 DUP4 ADD DUP6 PUSH2 0x2EC2 JUMP JUMPDEST PUSH2 0x3DAE PUSH1 0x80 DUP4 ADD DUP5 PUSH2 0x3297 JUMP JUMPDEST SWAP7 SWAP6 POP POP POP POP POP POP JUMP JUMPDEST PUSH32 0x5452414E534645525F46524F4D5F4641494C4544000000000000000000000000 PUSH1 0x0 DUP3 ADD MSTORE POP JUMP JUMPDEST PUSH1 0x0 PUSH2 0x3DEE PUSH1 0x14 DUP4 PUSH2 0x2EF7 JUMP JUMPDEST SWAP2 POP PUSH2 0x3DF9 DUP3 PUSH2 0x3DB8 JUMP JUMPDEST PUSH1 0x20 DUP3 ADD SWAP1 POP SWAP2 SWAP1 POP JUMP JUMPDEST PUSH1 0x0 PUSH1 0x20 DUP3 ADD SWAP1 POP DUP2 DUP2 SUB PUSH1 0x0 DUP4 ADD MSTORE PUSH2 0x3E1D DUP2 PUSH2 0x3DE1 JUMP JUMPDEST SWAP1 POP SWAP2 SWAP1 POP JUMP JUMPDEST PUSH1 0x0 PUSH2 0x3E2F DUP3 PUSH2 0x2EB8 JUMP JUMPDEST SWAP2 POP PUSH2 0x3E3A DUP4 PUSH2 0x2EB8 JUMP JUMPDEST SWAP3 POP DUP3 PUSH32 0xFFFFFFFFFFFFFFFFFFFFFFFFFFFFFFFFFFFFFFFFFFFFFFFFFFFFFFFFFFFFFFFF SUB DUP3 GT ISZERO PUSH2 0x3E6F JUMPI PUSH2 0x3E6E PUSH2 0x359D JUMP JUMPDEST JUMPDEST DUP3 DUP3 ADD SWAP1 POP SWAP3 SWAP2 POP POP JUMP JUMPDEST PUSH1 0x0 PUSH2 0x3E85 DUP3 PUSH2 0x2EB8 JUMP JUMPDEST SWAP2 POP PUSH32 0xFFFFFFFFFFFFFFFFFFFFFFFFFFFFFFFFFFFFFFFFFFFFFFFFFFFFFFFFFFFFFFFF DUP3 EQ ISZERO PUSH2 0x3EB8 JUMPI PUSH2 0x3EB7 PUSH2 0x359D JUMP JUMPDEST JUMPDEST PUSH1 0x1 DUP3 ADD SWAP1 POP SWAP2 SWAP1 POP JUMP JUMPDEST POP JUMP JUMPDEST PUSH1 0x0 PUSH2 0x3ED3 PUSH1 0x0 DUP4 PUSH2 0x3CAF JUMP JUMPDEST SWAP2 POP PUSH2 0x3EDE DUP3 PUSH2 0x3EC3 JUMP JUMPDEST PUSH1 0x0 DUP3 ADD SWAP1 POP SWAP2 SWAP1 POP JUMP JUMPDEST PUSH1 0x0 PUSH2 0x3EF4 DUP3 PUSH2 0x3EC6 JUMP JUMPDEST SWAP2 POP DUP2 SWAP1 POP SWAP2 SWAP1 POP JUMP JUMPDEST PUSH32 0x53747261746567792041206661696C6564000000000000000000000000000000 PUSH1 0x0 DUP3 ADD MSTORE POP JUMP JUMPDEST PUSH1 0x0 PUSH2 0x3F34 PUSH1 0x11 DUP4 PUSH2 0x2EF7 JUMP JUMPDEST SWAP2 POP PUSH2 0x3F3F DUP3 PUSH2 0x3EFE JUMP JUMPDEST PUSH1 0x20 DUP3 ADD SWAP1 POP SWAP2 SWAP1 POP JUMP JUMPDEST PUSH1 0x0 PUSH1 0x20 DUP3 ADD SWAP1 POP DUP2 DUP2 SUB PUSH1 0x0 DUP4 ADD MSTORE PUSH2 0x3F63 DUP2 PUSH2 0x3F27 JUMP JUMPDEST SWAP1 POP SWAP2 SWAP1 POP JUMP JUMPDEST PUSH1 0x0 PUSH2 0x3F85 PUSH2 0x3F80 PUSH2 0x3F7B DUP5 PUSH2 0x3005 JUMP JUMPDEST PUSH2 0x31F0 JUMP JUMPDEST PUSH2 0x2EB8 JUMP JUMPDEST SWAP1 POP SWAP2 SWAP1 POP JUMP JUMPDEST PUSH2 0x3F95 DUP2 PUSH2 0x3F6A JUMP JUMPDEST DUP3 MSTORE POP POP JUMP JUMPDEST PUSH1 0x0 PUSH1 0x20 DUP3 ADD SWAP1 POP PUSH2 0x3FB0 PUSH1 0x0 DUP4 ADD DUP5 PUSH2 0x3F8C JUMP JUMPDEST SWAP3 SWAP2 POP POP JUMP JUMPDEST PUSH32 0x5452414E534645525F4641494C45440000000000000000000000000000000000 PUSH1 0x0 DUP3 ADD MSTORE POP JUMP JUMPDEST PUSH1 0x0 PUSH2 0x3FEC PUSH1 0xF DUP4 PUSH2 0x2EF7 JUMP JUMPDEST SWAP2 POP PUSH2 0x3FF7 DUP3 PUSH2 0x3FB6 JUMP JUMPDEST PUSH1 0x20 DUP3 ADD SWAP1 POP SWAP2 SWAP1 POP JUMP JUMPDEST PUSH1 0x0 PUSH1 0x20 DUP3 ADD SWAP1 POP DUP2 DUP2 SUB PUSH1 0x0 DUP4 ADD MSTORE PUSH2 0x401B DUP2 PUSH2 0x3FDF JUMP JUMPDEST SWAP1 POP SWAP2 SWAP1 POP JUMP INVALID LOG2 PUSH5 0x6970667358 0x22 SLT KECCAK256 SHR PUSH14 0x7B46B7B17E6A2C511D24170F87DA 0xBD SWAP9 CODECOPY 0xB1 0xB8 0x2E CALLDATALOAD PUSH5 0x561C1EA341 0xEA DUP5 PUSH11 0x64736F6C634300080A0033 "
		},
		"gasEstimates": {
			"creation": {
				"codeDepositCost": "3294400",
				"executionCost": "infinite",
				"totalCost": "infinite"
			},
			"external": {
				"DOMAIN_SEPARATOR()": "infinite",
				"UNDERLYING()": "infinite",
				"afterDepositHookCalledCounter()": "2583",
				"allowance(address,address)": "infinite",
				"approve(address,uint256)": "infinite",
				"asset()": "infinite",
				"balanceOf(address)": "2859",
				"beforeWithdrawHookCalledCounter()": "2540",
				"claimFees(uint256)": "infinite",
				"convertToAssets(uint256)": "infinite",
				"convertToShares(uint256)": "infinite",
				"decimals()": "infinite",
				"deposit(uint256,address)": "infinite",
				"destroy()": "30103",
				"feePercent()": "2562",
				"initialize(address,uint160)": "infinite",
				"isInitialized()": "2539",
				"isPublic()": "2676",
				"manager()": "2634",
				"maxDeposit(address)": "741",
				"maxMint(address)": "696",
				"maxRedeem(address)": "2974",
				"maxWithdraw(address)": "infinite",
				"mint(uint256,address)": "infinite",
				"name()": "infinite",
				"nonces(address)": "2925",
				"permit(address,address,uint256,uint256,uint8,bytes32,bytes32)": "infinite",
				"previewDeposit(uint256)": "infinite",
				"previewMint(uint256)": "infinite",
				"previewRedeem(uint256)": "infinite",
				"previewWithdraw(uint256)": "infinite",
				"redeem(uint256,address,address)": "infinite",
				"renounceOwnership()": "30364",
				"setFeePercent(uint256)": "infinite",
				"setTargetFloatPercent(uint256)": "infinite",
				"setUnderlyingIsWETH(bool)": "infinite",
				"symbol()": "infinite",
				"targetFloatPercent()": "2497",
				"totalAssets()": "infinite",
				"totalStrategyHoldings()": "2495",
				"totalSupply()": "2475",
				"transfer(address,uint256)": "infinite",
				"transferFrom(address,address,uint256)": "infinite",
				"transferOwnership(address)": "30756",
				"underlyingIsWETH()": "2603",
				"withdraw(uint256,address,address)": "infinite"
			},
			"internal": {
				"afterDeposit(uint256,uint256)": "24373",
				"beforeWithdraw(uint256,uint256)": "24373",
				"strategyACall(address,uint160,uint256)": "infinite",
				"strategyBCall(address,uint160,uint256)": "infinite"
			}
		},
		"methodIdentifiers": {
			"DOMAIN_SEPARATOR()": "3644e515",
			"UNDERLYING()": "c5d664c6",
			"afterDepositHookCalledCounter()": "fc407ae7",
			"allowance(address,address)": "dd62ed3e",
			"approve(address,uint256)": "095ea7b3",
			"asset()": "38d52e0f",
			"balanceOf(address)": "70a08231",
			"beforeWithdrawHookCalledCounter()": "bc368a8a",
			"claimFees(uint256)": "ac68a748",
			"convertToAssets(uint256)": "07a2d13a",
			"convertToShares(uint256)": "c6e6f592",
			"decimals()": "313ce567",
			"deposit(uint256,address)": "6e553f65",
			"destroy()": "83197ef0",
			"feePercent()": "7fd6f15c",
			"initialize(address,uint160)": "8bf0a96e",
			"isInitialized()": "392e53cd",
			"isPublic()": "dc9a1535",
			"manager()": "481c6a75",
			"maxDeposit(address)": "402d267d",
			"maxMint(address)": "c63d75b6",
			"maxRedeem(address)": "d905777e",
			"maxWithdraw(address)": "ce96cb77",
			"mint(uint256,address)": "94bf804d",
			"name()": "06fdde03",
			"nonces(address)": "7ecebe00",
			"permit(address,address,uint256,uint256,uint8,bytes32,bytes32)": "d505accf",
			"previewDeposit(uint256)": "ef8b30f7",
			"previewMint(uint256)": "b3d7f6b9",
			"previewRedeem(uint256)": "4cdad506",
			"previewWithdraw(uint256)": "0a28a477",
			"redeem(uint256,address,address)": "ba087652",
			"renounceOwnership()": "715018a6",
			"setFeePercent(uint256)": "7ce3489b",
			"setTargetFloatPercent(uint256)": "bd662f88",
			"setUnderlyingIsWETH(bool)": "32ff7732",
			"symbol()": "95d89b41",
			"targetFloatPercent()": "1c693478",
			"totalAssets()": "01e1d114",
			"totalStrategyHoldings()": "ecad9565",
			"totalSupply()": "18160ddd",
			"transfer(address,uint256)": "a9059cbb",
			"transferFrom(address,address,uint256)": "23b872dd",
			"transferOwnership(address)": "f2fde38b",
			"underlyingIsWETH()": "f84d73f4",
			"withdraw(uint256,address,address)": "b460af94"
		}
	},
	"abi": [
		{
			"inputs": [
				{
					"internalType": "contract ERC20",
					"name": "_underlying",
					"type": "address"
				},
				{
					"internalType": "string",
					"name": "_name",
					"type": "string"
				},
				{
					"internalType": "string",
					"name": "_symbol",
					"type": "string"
				},
				{
					"internalType": "uint8",
					"name": "_decimals",
					"type": "uint8"
				}
			],
			"stateMutability": "nonpayable",
			"type": "constructor"
		},
		{
			"anonymous": false,
			"inputs": [
				{
					"indexed": true,
					"internalType": "address",
					"name": "owner",
					"type": "address"
				},
				{
					"indexed": true,
					"internalType": "address",
					"name": "spender",
					"type": "address"
				},
				{
					"indexed": false,
					"internalType": "uint256",
					"name": "amount",
					"type": "uint256"
				}
			],
			"name": "Approval",
			"type": "event"
		},
		{
			"anonymous": false,
			"inputs": [
				{
					"indexed": true,
					"internalType": "address",
					"name": "caller",
					"type": "address"
				},
				{
					"indexed": true,
					"internalType": "address",
					"name": "owner",
					"type": "address"
				},
				{
					"indexed": false,
					"internalType": "uint256",
					"name": "assets",
					"type": "uint256"
				},
				{
					"indexed": false,
					"internalType": "uint256",
					"name": "shares",
					"type": "uint256"
				}
			],
			"name": "Deposit",
			"type": "event"
		},
		{
			"anonymous": false,
			"inputs": [
				{
					"indexed": true,
					"internalType": "address",
					"name": "user",
					"type": "address"
				},
				{
					"indexed": false,
					"internalType": "uint256",
					"name": "newFeePercent",
					"type": "uint256"
				}
			],
			"name": "FeePercentUpdated",
			"type": "event"
		},
		{
			"anonymous": false,
			"inputs": [
				{
					"indexed": true,
					"internalType": "address",
					"name": "user",
					"type": "address"
				},
				{
					"indexed": false,
					"internalType": "uint256",
					"name": "sVTokenAmount",
					"type": "uint256"
				}
			],
			"name": "FeesClaimed",
			"type": "event"
		},
		{
			"anonymous": false,
			"inputs": [
				{
					"indexed": true,
					"internalType": "address",
					"name": "user",
					"type": "address"
				}
			],
			"name": "Initialized",
			"type": "event"
		},
		{
			"anonymous": false,
			"inputs": [
				{
					"indexed": true,
					"internalType": "address",
					"name": "previousManager",
					"type": "address"
				},
				{
					"indexed": true,
					"internalType": "address",
					"name": "newManager",
					"type": "address"
				}
			],
			"name": "OwnershipTransferred",
			"type": "event"
		},
		{
			"anonymous": false,
			"inputs": [
				{
					"indexed": true,
					"internalType": "address",
					"name": "searcher",
					"type": "address"
				},
				{
					"indexed": true,
					"internalType": "address",
					"name": "vault",
					"type": "address"
				},
				{
					"indexed": false,
					"internalType": "uint256",
					"name": "duration",
					"type": "uint256"
				}
			],
			"name": "StrategyAInitilized",
			"type": "event"
		},
		{
			"anonymous": false,
			"inputs": [
				{
					"indexed": true,
					"internalType": "address",
					"name": "stakePoolContract",
					"type": "address"
				},
				{
					"indexed": true,
					"internalType": "address",
					"name": "vault",
					"type": "address"
				},
				{
					"indexed": false,
					"internalType": "uint256",
					"name": "duration",
					"type": "uint256"
				}
			],
			"name": "StrategyBInitilized",
			"type": "event"
		},
		{
			"anonymous": false,
			"inputs": [
				{
					"indexed": true,
					"internalType": "address",
					"name": "user",
					"type": "address"
				},
				{
					"indexed": false,
					"internalType": "uint256",
					"name": "newTargetFloatPercent",
					"type": "uint256"
				}
			],
			"name": "TargetFloatPercentUpdated",
			"type": "event"
		},
		{
			"anonymous": false,
			"inputs": [
				{
					"indexed": true,
					"internalType": "address",
					"name": "from",
					"type": "address"
				},
				{
					"indexed": true,
					"internalType": "address",
					"name": "to",
					"type": "address"
				},
				{
					"indexed": false,
					"internalType": "uint256",
					"name": "amount",
					"type": "uint256"
				}
			],
			"name": "Transfer",
			"type": "event"
		},
		{
			"anonymous": false,
			"inputs": [
				{
					"indexed": true,
					"internalType": "address",
					"name": "user",
					"type": "address"
				},
				{
					"indexed": false,
					"internalType": "bool",
					"name": "newUnderlyingIsWETH",
					"type": "bool"
				}
			],
			"name": "UnderlyingIsWETHUpdated",
			"type": "event"
		},
		{
			"anonymous": false,
			"inputs": [
				{
					"indexed": true,
					"internalType": "address",
					"name": "caller",
					"type": "address"
				},
				{
					"indexed": true,
					"internalType": "address",
					"name": "receiver",
					"type": "address"
				},
				{
					"indexed": true,
					"internalType": "address",
					"name": "owner",
					"type": "address"
				},
				{
					"indexed": false,
					"internalType": "uint256",
					"name": "assets",
					"type": "uint256"
				},
				{
					"indexed": false,
					"internalType": "uint256",
					"name": "shares",
					"type": "uint256"
				}
			],
			"name": "Withdraw",
			"type": "event"
		},
		{
			"anonymous": false,
			"inputs": [
				{
					"indexed": false,
					"internalType": "bool",
					"name": "isPublicVault",
					"type": "bool"
				}
			],
			"name": "vaultPublic",
			"type": "event"
		},
		{
			"inputs": [],
			"name": "DOMAIN_SEPARATOR",
			"outputs": [
				{
					"internalType": "bytes32",
					"name": "",
					"type": "bytes32"
				}
			],
			"stateMutability": "view",
			"type": "function"
		},
		{
			"inputs": [],
			"name": "UNDERLYING",
			"outputs": [
				{
					"internalType": "contract ERC20",
					"name": "",
					"type": "address"
				}
			],
			"stateMutability": "view",
			"type": "function"
		},
		{
			"inputs": [],
			"name": "afterDepositHookCalledCounter",
			"outputs": [
				{
					"internalType": "uint256",
					"name": "",
					"type": "uint256"
				}
			],
			"stateMutability": "view",
			"type": "function"
		},
		{
			"inputs": [
				{
					"internalType": "address",
					"name": "",
					"type": "address"
				},
				{
					"internalType": "address",
					"name": "",
					"type": "address"
				}
			],
			"name": "allowance",
			"outputs": [
				{
					"internalType": "uint256",
					"name": "",
					"type": "uint256"
				}
			],
			"stateMutability": "view",
			"type": "function"
		},
		{
			"inputs": [
				{
					"internalType": "address",
					"name": "spender",
					"type": "address"
				},
				{
					"internalType": "uint256",
					"name": "amount",
					"type": "uint256"
				}
			],
			"name": "approve",
			"outputs": [
				{
					"internalType": "bool",
					"name": "",
					"type": "bool"
				}
			],
			"stateMutability": "nonpayable",
			"type": "function"
		},
		{
			"inputs": [],
			"name": "asset",
			"outputs": [
				{
					"internalType": "contract ERC20",
					"name": "",
					"type": "address"
				}
			],
			"stateMutability": "view",
			"type": "function"
		},
		{
			"inputs": [
				{
					"internalType": "address",
					"name": "",
					"type": "address"
				}
			],
			"name": "balanceOf",
			"outputs": [
				{
					"internalType": "uint256",
					"name": "",
					"type": "uint256"
				}
			],
			"stateMutability": "view",
			"type": "function"
		},
		{
			"inputs": [],
			"name": "beforeWithdrawHookCalledCounter",
			"outputs": [
				{
					"internalType": "uint256",
					"name": "",
					"type": "uint256"
				}
			],
			"stateMutability": "view",
			"type": "function"
		},
		{
			"inputs": [
				{
					"internalType": "uint256",
					"name": "sVTokenAmount",
					"type": "uint256"
				}
			],
			"name": "claimFees",
			"outputs": [],
			"stateMutability": "nonpayable",
			"type": "function"
		},
		{
			"inputs": [
				{
					"internalType": "uint256",
					"name": "shares",
					"type": "uint256"
				}
			],
			"name": "convertToAssets",
			"outputs": [
				{
					"internalType": "uint256",
					"name": "",
					"type": "uint256"
				}
			],
			"stateMutability": "view",
			"type": "function"
		},
		{
			"inputs": [
				{
					"internalType": "uint256",
					"name": "assets",
					"type": "uint256"
				}
			],
			"name": "convertToShares",
			"outputs": [
				{
					"internalType": "uint256",
					"name": "",
					"type": "uint256"
				}
			],
			"stateMutability": "view",
			"type": "function"
		},
		{
			"inputs": [],
			"name": "decimals",
			"outputs": [
				{
					"internalType": "uint8",
					"name": "",
					"type": "uint8"
				}
			],
			"stateMutability": "view",
			"type": "function"
		},
		{
			"inputs": [
				{
					"internalType": "uint256",
					"name": "assets",
					"type": "uint256"
				},
				{
					"internalType": "address",
					"name": "receiver",
					"type": "address"
				}
			],
			"name": "deposit",
			"outputs": [
				{
					"internalType": "uint256",
					"name": "shares",
					"type": "uint256"
				}
			],
			"stateMutability": "nonpayable",
			"type": "function"
		},
		{
			"inputs": [],
			"name": "destroy",
			"outputs": [],
			"stateMutability": "nonpayable",
			"type": "function"
		},
		{
			"inputs": [],
			"name": "feePercent",
			"outputs": [
				{
					"internalType": "uint256",
					"name": "",
					"type": "uint256"
				}
			],
			"stateMutability": "view",
			"type": "function"
		},
		{
			"inputs": [
				{
					"internalType": "address",
					"name": "_searcher",
					"type": "address"
				},
				{
					"internalType": "uint160",
					"name": "_duration",
					"type": "uint160"
				}
			],
			"name": "initialize",
			"outputs": [],
			"stateMutability": "nonpayable",
			"type": "function"
		},
		{
			"inputs": [],
			"name": "isInitialized",
			"outputs": [
				{
					"internalType": "bool",
					"name": "",
					"type": "bool"
				}
			],
			"stateMutability": "view",
			"type": "function"
		},
		{
			"inputs": [],
			"name": "isPublic",
			"outputs": [
				{
					"internalType": "bool",
					"name": "",
					"type": "bool"
				}
			],
			"stateMutability": "view",
			"type": "function"
		},
		{
			"inputs": [],
			"name": "manager",
			"outputs": [
				{
					"internalType": "address",
					"name": "",
					"type": "address"
				}
			],
			"stateMutability": "view",
			"type": "function"
		},
		{
			"inputs": [
				{
					"internalType": "address",
					"name": "",
					"type": "address"
				}
			],
			"name": "maxDeposit",
			"outputs": [
				{
					"internalType": "uint256",
					"name": "",
					"type": "uint256"
				}
			],
			"stateMutability": "view",
			"type": "function"
		},
		{
			"inputs": [
				{
					"internalType": "address",
					"name": "",
					"type": "address"
				}
			],
			"name": "maxMint",
			"outputs": [
				{
					"internalType": "uint256",
					"name": "",
					"type": "uint256"
				}
			],
			"stateMutability": "view",
			"type": "function"
		},
		{
			"inputs": [
				{
					"internalType": "address",
					"name": "owner",
					"type": "address"
				}
			],
			"name": "maxRedeem",
			"outputs": [
				{
					"internalType": "uint256",
					"name": "",
					"type": "uint256"
				}
			],
			"stateMutability": "view",
			"type": "function"
		},
		{
			"inputs": [
				{
					"internalType": "address",
					"name": "owner",
					"type": "address"
				}
			],
			"name": "maxWithdraw",
			"outputs": [
				{
					"internalType": "uint256",
					"name": "",
					"type": "uint256"
				}
			],
			"stateMutability": "view",
			"type": "function"
		},
		{
			"inputs": [
				{
					"internalType": "uint256",
					"name": "shares",
					"type": "uint256"
				},
				{
					"internalType": "address",
					"name": "receiver",
					"type": "address"
				}
			],
			"name": "mint",
			"outputs": [
				{
					"internalType": "uint256",
					"name": "assets",
					"type": "uint256"
				}
			],
			"stateMutability": "nonpayable",
			"type": "function"
		},
		{
			"inputs": [],
			"name": "name",
			"outputs": [
				{
					"internalType": "string",
					"name": "",
					"type": "string"
				}
			],
			"stateMutability": "view",
			"type": "function"
		},
		{
			"inputs": [
				{
					"internalType": "address",
					"name": "",
					"type": "address"
				}
			],
			"name": "nonces",
			"outputs": [
				{
					"internalType": "uint256",
					"name": "",
					"type": "uint256"
				}
			],
			"stateMutability": "view",
			"type": "function"
		},
		{
			"inputs": [
				{
					"internalType": "address",
					"name": "owner",
					"type": "address"
				},
				{
					"internalType": "address",
					"name": "spender",
					"type": "address"
				},
				{
					"internalType": "uint256",
					"name": "value",
					"type": "uint256"
				},
				{
					"internalType": "uint256",
					"name": "deadline",
					"type": "uint256"
				},
				{
					"internalType": "uint8",
					"name": "v",
					"type": "uint8"
				},
				{
					"internalType": "bytes32",
					"name": "r",
					"type": "bytes32"
				},
				{
					"internalType": "bytes32",
					"name": "s",
					"type": "bytes32"
				}
			],
			"name": "permit",
			"outputs": [],
			"stateMutability": "nonpayable",
			"type": "function"
		},
		{
			"inputs": [
				{
					"internalType": "uint256",
					"name": "assets",
					"type": "uint256"
				}
			],
			"name": "previewDeposit",
			"outputs": [
				{
					"internalType": "uint256",
					"name": "",
					"type": "uint256"
				}
			],
			"stateMutability": "view",
			"type": "function"
		},
		{
			"inputs": [
				{
					"internalType": "uint256",
					"name": "shares",
					"type": "uint256"
				}
			],
			"name": "previewMint",
			"outputs": [
				{
					"internalType": "uint256",
					"name": "",
					"type": "uint256"
				}
			],
			"stateMutability": "view",
			"type": "function"
		},
		{
			"inputs": [
				{
					"internalType": "uint256",
					"name": "shares",
					"type": "uint256"
				}
			],
			"name": "previewRedeem",
			"outputs": [
				{
					"internalType": "uint256",
					"name": "",
					"type": "uint256"
				}
			],
			"stateMutability": "view",
			"type": "function"
		},
		{
			"inputs": [
				{
					"internalType": "uint256",
					"name": "assets",
					"type": "uint256"
				}
			],
			"name": "previewWithdraw",
			"outputs": [
				{
					"internalType": "uint256",
					"name": "",
					"type": "uint256"
				}
			],
			"stateMutability": "view",
			"type": "function"
		},
		{
			"inputs": [
				{
					"internalType": "uint256",
					"name": "shares",
					"type": "uint256"
				},
				{
					"internalType": "address",
					"name": "receiver",
					"type": "address"
				},
				{
					"internalType": "address",
					"name": "owner",
					"type": "address"
				}
			],
			"name": "redeem",
			"outputs": [
				{
					"internalType": "uint256",
					"name": "assets",
					"type": "uint256"
				}
			],
			"stateMutability": "nonpayable",
			"type": "function"
		},
		{
			"inputs": [],
			"name": "renounceOwnership",
			"outputs": [],
			"stateMutability": "nonpayable",
			"type": "function"
		},
		{
			"inputs": [
				{
					"internalType": "uint256",
					"name": "newFeePercent",
					"type": "uint256"
				}
			],
			"name": "setFeePercent",
			"outputs": [],
			"stateMutability": "nonpayable",
			"type": "function"
		},
		{
			"inputs": [
				{
					"internalType": "uint256",
					"name": "newTargetFloatPercent",
					"type": "uint256"
				}
			],
			"name": "setTargetFloatPercent",
			"outputs": [],
			"stateMutability": "nonpayable",
			"type": "function"
		},
		{
			"inputs": [
				{
					"internalType": "bool",
					"name": "newUnderlyingIsWETH",
					"type": "bool"
				}
			],
			"name": "setUnderlyingIsWETH",
			"outputs": [],
			"stateMutability": "nonpayable",
			"type": "function"
		},
		{
			"inputs": [],
			"name": "symbol",
			"outputs": [
				{
					"internalType": "string",
					"name": "",
					"type": "string"
				}
			],
			"stateMutability": "view",
			"type": "function"
		},
		{
			"inputs": [],
			"name": "targetFloatPercent",
			"outputs": [
				{
					"internalType": "uint256",
					"name": "",
					"type": "uint256"
				}
			],
			"stateMutability": "view",
			"type": "function"
		},
		{
			"inputs": [],
			"name": "totalAssets",
			"outputs": [
				{
					"internalType": "uint256",
					"name": "",
					"type": "uint256"
				}
			],
			"stateMutability": "view",
			"type": "function"
		},
		{
			"inputs": [],
			"name": "totalStrategyHoldings",
			"outputs": [
				{
					"internalType": "uint256",
					"name": "",
					"type": "uint256"
				}
			],
			"stateMutability": "view",
			"type": "function"
		},
		{
			"inputs": [],
			"name": "totalSupply",
			"outputs": [
				{
					"internalType": "uint256",
					"name": "",
					"type": "uint256"
				}
			],
			"stateMutability": "view",
			"type": "function"
		},
		{
			"inputs": [
				{
					"internalType": "address",
					"name": "to",
					"type": "address"
				},
				{
					"internalType": "uint256",
					"name": "amount",
					"type": "uint256"
				}
			],
			"name": "transfer",
			"outputs": [
				{
					"internalType": "bool",
					"name": "",
					"type": "bool"
				}
			],
			"stateMutability": "nonpayable",
			"type": "function"
		},
		{
			"inputs": [
				{
					"internalType": "address",
					"name": "from",
					"type": "address"
				},
				{
					"internalType": "address",
					"name": "to",
					"type": "address"
				},
				{
					"internalType": "uint256",
					"name": "amount",
					"type": "uint256"
				}
			],
			"name": "transferFrom",
			"outputs": [
				{
					"internalType": "bool",
					"name": "",
					"type": "bool"
				}
			],
			"stateMutability": "nonpayable",
			"type": "function"
		},
		{
			"inputs": [
				{
					"internalType": "address",
					"name": "newOwner",
					"type": "address"
				}
			],
			"name": "transferOwnership",
			"outputs": [],
			"stateMutability": "nonpayable",
			"type": "function"
		},
		{
			"inputs": [],
			"name": "underlyingIsWETH",
			"outputs": [
				{
					"internalType": "bool",
					"name": "",
					"type": "bool"
				}
			],
			"stateMutability": "view",
			"type": "function"
		},
		{
			"inputs": [
				{
					"internalType": "uint256",
					"name": "assets",
					"type": "uint256"
				},
				{
					"internalType": "address",
					"name": "receiver",
					"type": "address"
				},
				{
					"internalType": "address",
					"name": "owner",
					"type": "address"
				}
			],
			"name": "withdraw",
			"outputs": [
				{
					"internalType": "uint256",
					"name": "shares",
					"type": "uint256"
				}
			],
			"stateMutability": "nonpayable",
			"type": "function"
		},
		{
			"stateMutability": "payable",
			"type": "receive"
		}
	]
}