{
	"data": {
		"bytecode": {
			"linkReferences": {},
			"object": "60a06040523480156200001157600080fd5b506040516200345a3803806200345a8339818101604052810190620000379190620001f4565b828282816003908051906020019062000052929190620000af565b5080600490805190602001906200006b929190620000af565b5050508073ffffffffffffffffffffffffffffffffffffffff1660808173ffffffffffffffffffffffffffffffffffffffff1660601b815250505050505062000460565b828054620000bd9062000357565b90600052602060002090601f016020900481019282620000e157600085556200012d565b82601f10620000fc57805160ff19168380011785556200012d565b828001600101855582156200012d579182015b828111156200012c5782518255916020019190600101906200010f565b5b5090506200013c919062000140565b5090565b5b808211156200015b57600081600090555060010162000141565b5090565b6000620001766200017084620002b7565b6200028e565b90508281526020810184848401111562000195576200019462000426565b5b620001a284828562000321565b509392505050565b600081519050620001bb8162000446565b92915050565b600082601f830112620001d957620001d862000421565b5b8151620001eb8482602086016200015f565b91505092915050565b60008060006060848603121562000210576200020f62000430565b5b60006200022086828701620001aa565b935050602084015167ffffffffffffffff8111156200024457620002436200042b565b5b6200025286828701620001c1565b925050604084015167ffffffffffffffff8111156200027657620002756200042b565b5b6200028486828701620001c1565b9150509250925092565b60006200029a620002ad565b9050620002a882826200038d565b919050565b6000604051905090565b600067ffffffffffffffff821115620002d557620002d4620003f2565b5b620002e08262000435565b9050602081019050919050565b6000620002fa8262000301565b9050919050565b600073ffffffffffffffffffffffffffffffffffffffff82169050919050565b60005b838110156200034157808201518184015260208101905062000324565b8381111562000351576000848401525b50505050565b600060028204905060018216806200037057607f821691505b60208210811415620003875762000386620003c3565b5b50919050565b620003988262000435565b810181811067ffffffffffffffff82111715620003ba57620003b9620003f2565b5b80604052505050565b7f4e487b7100000000000000000000000000000000000000000000000000000000600052602260045260246000fd5b7f4e487b7100000000000000000000000000000000000000000000000000000000600052604160045260246000fd5b600080fd5b600080fd5b600080fd5b600080fd5b6000601f19601f8301169050919050565b6200045181620002ed565b81146200045d57600080fd5b50565b60805160601c612fb8620004a2600039600081816106560152818161082501528181610d7e015281816110850152818161147e015261156a0152612fb86000f3fe608060405234801561001057600080fd5b50600436106101a95760003560e01c806370a08231116100f9578063ba08765211610097578063ce96cb7711610071578063ce96cb7714610592578063d905777e146105c2578063dd62ed3e146105f2578063ef8b30f714610622576101a9565b8063ba08765214610502578063c63d75b614610532578063c6e6f59214610562576101a9565b8063a457c2d7116100d3578063a457c2d714610442578063a9059cbb14610472578063b3d7f6b9146104a2578063b460af94146104d2576101a9565b806370a08231146103c457806394bf804d146103f457806395d89b4114610424576101a9565b806323b872dd1161016657806339509351116101405780633950935114610304578063402d267d146103345780634cdad506146103645780636e553f6514610394576101a9565b806323b872dd14610298578063313ce567146102c857806338d52e0f146102e6576101a9565b806301e1d114146101ae57806306fdde03146101cc57806307a2d13a146101ea578063095ea7b31461021a5780630a28a4771461024a57806318160ddd1461027a575b600080fd5b6101b6610652565b6040516101c391906126cc565b60405180910390f35b6101d4610702565b6040516101e1919061248a565b60405180910390f35b61020460048036038101906101ff9190611fca565b610794565b60405161021191906126cc565b60405180910390f35b610234600480360381019061022f9190611f5d565b6107a8565b604051610241919061246f565b60405180910390f35b610264600480360381019061025f9190611fca565b6107cb565b60405161027191906126cc565b60405180910390f35b6102826107df565b60405161028f91906126cc565b60405180910390f35b6102b260048036038101906102ad9190611f0a565b6107e9565b6040516102bf919061246f565b60405180910390f35b6102d0610818565b6040516102dd9190612710565b60405180910390f35b6102ee610821565b6040516102fb91906123f4565b60405180910390f35b61031e60048036038101906103199190611f5d565b610849565b60405161032b919061246f565b60405180910390f35b61034e60048036038101906103499190611e9d565b610880565b60405161035b91906126cc565b60405180910390f35b61037e60048036038101906103799190611fca565b6108be565b60405161038b91906126cc565b60405180910390f35b6103ae60048036038101906103a99190612024565b6108d2565b6040516103bb91906126cc565b60405180910390f35b6103de60048036038101906103d99190611e9d565b610949565b6040516103eb91906126cc565b60405180910390f35b61040e60048036038101906104099190612024565b610991565b60405161041b91906126cc565b60405180910390f35b61042c610a08565b604051610439919061248a565b60405180910390f35b61045c60048036038101906104579190611f5d565b610a9a565b604051610469919061246f565b60405180910390f35b61048c60048036038101906104879190611f5d565b610b11565b604051610499919061246f565b60405180910390f35b6104bc60048036038101906104b79190611fca565b610b34565b6040516104c991906126cc565b60405180910390f35b6104ec60048036038101906104e79190612064565b610b48565b6040516104f991906126cc565b60405180910390f35b61051c60048036038101906105179190612064565b610bc1565b60405161052991906126cc565b60405180910390f35b61054c60048036038101906105479190611e9d565b610c3a565b60405161055991906126cc565b60405180910390f35b61057c60048036038101906105779190611fca565b610c64565b60405161058991906126cc565b60405180910390f35b6105ac60048036038101906105a79190611e9d565b610c78565b6040516105b991906126cc565b60405180910390f35b6105dc60048036038101906105d79190611e9d565b610c94565b6040516105e991906126cc565b60405180910390f35b61060c60048036038101906106079190611eca565b610ca6565b60405161061991906126cc565b60405180910390f35b61063c60048036038101906106379190611fca565b610d2d565b60405161064991906126cc565b60405180910390f35b60007f000000000000000000000000000000000000000000000000000000000000000073ffffffffffffffffffffffffffffffffffffffff166370a08231306040518263ffffffff1660e01b81526004016106ad91906123f4565b60206040518083038186803b1580156106c557600080fd5b505afa1580156106d9573d6000803e3d6000fd5b505050506040513d601f19601f820116820180604052508101906106fd9190611ff7565b905090565b606060038054610711906129e0565b80601f016020809104026020016040519081016040528092919081815260200182805461073d906129e0565b801561078a5780601f1061075f5761010080835404028352916020019161078a565b820191906000526020600020905b81548152906001019060200180831161076d57829003601f168201915b5050505050905090565b60006107a1826000610d41565b9050919050565b6000806107b3610e56565b90506107c0818585610e5e565b600191505092915050565b60006107d8826001611029565b9050919050565b6000600254905090565b6000806107f4610e56565b9050610801858285611149565b61080c8585856111d5565b60019150509392505050565b60006012905090565b60007f0000000000000000000000000000000000000000000000000000000000000000905090565b600080610854610e56565b90506108758185856108668589610ca6565b610870919061275d565b610e5e565b600191505092915050565b600061088a611456565b6108955760006108b7565b7fffffffffffffffffffffffffffffffffffffffffffffffffffffffffffffffff5b9050919050565b60006108cb826000610d41565b9050919050565b60006108dd82610880565b83111561091f576040517f08c379a0000000000000000000000000000000000000000000000000000000008152600401610916906125ac565b60405180910390fd5b600061092a84610d2d565b905061093f610937610e56565b848684611479565b8091505092915050565b60008060008373ffffffffffffffffffffffffffffffffffffffff1673ffffffffffffffffffffffffffffffffffffffff168152602001908152602001600020549050919050565b600061099c82610c3a565b8311156109de576040517f08c379a00000000000000000000000000000000000000000000000000000000081526004016109d5906125cc565b60405180910390fd5b60006109e984610b34565b90506109fe6109f6610e56565b848387611479565b8091505092915050565b606060048054610a17906129e0565b80601f0160208091040260200160405190810160405280929190818152602001828054610a43906129e0565b8015610a905780601f10610a6557610100808354040283529160200191610a90565b820191906000526020600020905b815481529060010190602001808311610a7357829003601f168201915b5050505050905090565b600080610aa5610e56565b90506000610ab38286610ca6565b905083811015610af8576040517f08c379a0000000000000000000000000000000000000000000000000000000008152600401610aef9061268c565b60405180910390fd5b610b058286868403610e5e565b60019250505092915050565b600080610b1c610e56565b9050610b298185856111d5565b600191505092915050565b6000610b41826001610d41565b9050919050565b6000610b5382610c78565b841115610b95576040517f08c379a0000000000000000000000000000000000000000000000000000000008152600401610b8c9061258c565b60405180910390fd5b6000610ba0856107cb565b9050610bb6610bad610e56565b8585888561151c565b809150509392505050565b6000610bcc82610c94565b841115610c0e576040517f08c379a0000000000000000000000000000000000000000000000000000000008152600401610c059061252c565b60405180910390fd5b6000610c19856108be565b9050610c2f610c26610e56565b8585848961151c565b809150509392505050565b60007fffffffffffffffffffffffffffffffffffffffffffffffffffffffffffffffff9050919050565b6000610c71826000611029565b9050919050565b6000610c8d610c8683610949565b6000610d41565b9050919050565b6000610c9f82610949565b9050919050565b6000600160008473ffffffffffffffffffffffffffffffffffffffff1673ffffffffffffffffffffffffffffffffffffffff16815260200190815260200160002060008373ffffffffffffffffffffffffffffffffffffffff1673ffffffffffffffffffffffffffffffffffffffff16815260200190815260200160002054905092915050565b6000610d3a826000611029565b9050919050565b600080610d4c6107df565b905060008114610d7957610d74610d61610652565b828587611615909392919063ffffffff16565b610e4d565b610e4c7f000000000000000000000000000000000000000000000000000000000000000073ffffffffffffffffffffffffffffffffffffffff1663313ce5676040518163ffffffff1660e01b815260040160206040518083038186803b158015610de257600080fd5b505afa158015610df6573d6000803e3d6000fd5b505050506040513d601f19601f82011682018060405250810190610e1a91906120b7565b600a610e269190612806565b610e2e610818565b600a610e3a9190612806565b8587611615909392919063ffffffff16565b5b91505092915050565b600033905090565b600073ffffffffffffffffffffffffffffffffffffffff168373ffffffffffffffffffffffffffffffffffffffff161415610ece576040517f08c379a0000000000000000000000000000000000000000000000000000000008152600401610ec59061262c565b60405180910390fd5b600073ffffffffffffffffffffffffffffffffffffffff168273ffffffffffffffffffffffffffffffffffffffff161415610f3e576040517f08c379a0000000000000000000000000000000000000000000000000000000008152600401610f35906124ec565b60405180910390fd5b80600160008573ffffffffffffffffffffffffffffffffffffffff1673ffffffffffffffffffffffffffffffffffffffff16815260200190815260200160002060008473ffffffffffffffffffffffffffffffffffffffff1673ffffffffffffffffffffffffffffffffffffffff168152602001908152602001600020819055508173ffffffffffffffffffffffffffffffffffffffff168373ffffffffffffffffffffffffffffffffffffffff167f8c5be1e5ebec7d5bd14f71427d1e84f3dd0314c0f7b2291e5b200ac8c7c3b9258360405161101c91906126cc565b60405180910390a3505050565b6000806110346107df565b905060008414806110455750600081145b61106c5761106781611055610652565b8587611615909392919063ffffffff16565b611140565b61113f611077610818565b600a6110839190612806565b7f000000000000000000000000000000000000000000000000000000000000000073ffffffffffffffffffffffffffffffffffffffff1663313ce5676040518163ffffffff1660e01b815260040160206040518083038186803b1580156110e957600080fd5b505afa1580156110fd573d6000803e3d6000fd5b505050506040513d601f19601f8201168201806040525081019061112191906120b7565b600a61112d9190612806565b8587611615909392919063ffffffff16565b5b91505092915050565b60006111558484610ca6565b90507fffffffffffffffffffffffffffffffffffffffffffffffffffffffffffffffff81146111cf57818110156111c1576040517f08c379a00000000000000000000000000000000000000000000000000000000081526004016111b89061250c565b60405180910390fd5b6111ce8484848403610e5e565b5b50505050565b600073ffffffffffffffffffffffffffffffffffffffff168373ffffffffffffffffffffffffffffffffffffffff161415611245576040517f08c379a000000000000000000000000000000000000000000000000000000000815260040161123c9061260c565b60405180910390fd5b600073ffffffffffffffffffffffffffffffffffffffff168273ffffffffffffffffffffffffffffffffffffffff1614156112b5576040517f08c379a00000000000000000000000000000000000000000000000000000000081526004016112ac906124ac565b60405180910390fd5b6112c083838361168b565b60008060008573ffffffffffffffffffffffffffffffffffffffff1673ffffffffffffffffffffffffffffffffffffffff16815260200190815260200160002054905081811015611346576040517f08c379a000000000000000000000000000000000000000000000000000000000815260040161133d9061254c565b60405180910390fd5b8181036000808673ffffffffffffffffffffffffffffffffffffffff1673ffffffffffffffffffffffffffffffffffffffff16815260200190815260200160002081905550816000808573ffffffffffffffffffffffffffffffffffffffff1673ffffffffffffffffffffffffffffffffffffffff16815260200190815260200160002060008282546113d9919061275d565b925050819055508273ffffffffffffffffffffffffffffffffffffffff168473ffffffffffffffffffffffffffffffffffffffff167fddf252ad1be2c89b69c2b068fc378daa952ba7f163c4a11628f55a4df523b3ef8460405161143d91906126cc565b60405180910390a3611450848484611690565b50505050565b600080611461610652565b1180611474575060006114726107df565b145b905090565b6114a57f0000000000000000000000000000000000000000000000000000000000000000853085611695565b6114af838261171e565b8273ffffffffffffffffffffffffffffffffffffffff168473ffffffffffffffffffffffffffffffffffffffff167fdcbc1c05240f31ff3ad067ef1ee35ce4997762752e3a095284754544f4c709d7848460405161150e9291906126e7565b60405180910390a350505050565b8273ffffffffffffffffffffffffffffffffffffffff168573ffffffffffffffffffffffffffffffffffffffff161461155b5761155a838683611149565b5b611565838261187e565b6115907f00000000000000000000000000000000000000000000000000000000000000008584611a55565b8273ffffffffffffffffffffffffffffffffffffffff168473ffffffffffffffffffffffffffffffffffffffff168673ffffffffffffffffffffffffffffffffffffffff167ffbde797d201c681b91056529119e0b02407c7bb96a4a2c75c01fc9667232c8db85856040516116069291906126e7565b60405180910390a45050505050565b600080611623868686611adb565b90506001600281111561163957611638612a70565b5b83600281111561164c5761164b612a70565b5b14801561166a57506000848061166557611664612a41565b5b868809115b1561167f5760018161167c919061275d565b90505b80915050949350505050565b505050565b505050565b611718846323b872dd60e01b8585856040516024016116b69392919061240f565b604051602081830303815290604052907bffffffffffffffffffffffffffffffffffffffffffffffffffffffff19166020820180517bffffffffffffffffffffffffffffffffffffffffffffffffffffffff8381831617835250505050611bb7565b50505050565b600073ffffffffffffffffffffffffffffffffffffffff168273ffffffffffffffffffffffffffffffffffffffff16141561178e576040517f08c379a0000000000000000000000000000000000000000000000000000000008152600401611785906126ac565b60405180910390fd5b61179a6000838361168b565b80600260008282546117ac919061275d565b92505081905550806000808473ffffffffffffffffffffffffffffffffffffffff1673ffffffffffffffffffffffffffffffffffffffff1681526020019081526020016000206000828254611801919061275d565b925050819055508173ffffffffffffffffffffffffffffffffffffffff16600073ffffffffffffffffffffffffffffffffffffffff167fddf252ad1be2c89b69c2b068fc378daa952ba7f163c4a11628f55a4df523b3ef8360405161186691906126cc565b60405180910390a361187a60008383611690565b5050565b600073ffffffffffffffffffffffffffffffffffffffff168273ffffffffffffffffffffffffffffffffffffffff1614156118ee576040517f08c379a00000000000000000000000000000000000000000000000000000000081526004016118e5906125ec565b60405180910390fd5b6118fa8260008361168b565b60008060008473ffffffffffffffffffffffffffffffffffffffff1673ffffffffffffffffffffffffffffffffffffffff16815260200190815260200160002054905081811015611980576040517f08c379a0000000000000000000000000000000000000000000000000000000008152600401611977906124cc565b60405180910390fd5b8181036000808573ffffffffffffffffffffffffffffffffffffffff1673ffffffffffffffffffffffffffffffffffffffff1681526020019081526020016000208190555081600260008282546119d79190612924565b92505081905550600073ffffffffffffffffffffffffffffffffffffffff168373ffffffffffffffffffffffffffffffffffffffff167fddf252ad1be2c89b69c2b068fc378daa952ba7f163c4a11628f55a4df523b3ef84604051611a3c91906126cc565b60405180910390a3611a5083600084611690565b505050565b611ad68363a9059cbb60e01b8484604051602401611a74929190612446565b604051602081830303815290604052907bffffffffffffffffffffffffffffffffffffffffffffffffffffffff19166020820180517bffffffffffffffffffffffffffffffffffffffffffffffffffffffff8381831617835250505050611bb7565b505050565b600080600080198587098587029250828110838203039150506000811415611b1757838281611b0d57611b0c612a41565b5b0492505050611bb0565b808411611b2357600080fd5b60008486880990508281118203915080830392506000600186190186169050808604955080840493506001818260000304019050808302841793506000600287600302189050808702600203810290508087026002038102905080870260020381029050808702600203810290508087026002038102905080870260020381029050808502955050505050505b9392505050565b6000611c19826040518060400160405280602081526020017f5361666545524332303a206c6f772d6c6576656c2063616c6c206661696c65648152508573ffffffffffffffffffffffffffffffffffffffff16611c7e9092919063ffffffff16565b9050600081511115611c795780806020019051810190611c399190611f9d565b611c78576040517f08c379a0000000000000000000000000000000000000000000000000000000008152600401611c6f9061266c565b60405180910390fd5b5b505050565b6060611c8d8484600085611c96565b90509392505050565b606082471015611cdb576040517f08c379a0000000000000000000000000000000000000000000000000000000008152600401611cd29061256c565b60405180910390fd5b611ce485611daa565b611d23576040517f08c379a0000000000000000000000000000000000000000000000000000000008152600401611d1a9061264c565b60405180910390fd5b6000808673ffffffffffffffffffffffffffffffffffffffff168587604051611d4c91906123dd565b60006040518083038185875af1925050503d8060008114611d89576040519150601f19603f3d011682016040523d82523d6000602084013e611d8e565b606091505b5091509150611d9e828286611dcd565b92505050949350505050565b6000808273ffffffffffffffffffffffffffffffffffffffff163b119050919050565b60608315611ddd57829050611e2d565b600083511115611df05782518084602001fd5b816040517f08c379a0000000000000000000000000000000000000000000000000000000008152600401611e24919061248a565b60405180910390fd5b9392505050565b600081359050611e4381612f26565b92915050565b600081519050611e5881612f3d565b92915050565b600081359050611e6d81612f54565b92915050565b600081519050611e8281612f54565b92915050565b600081519050611e9781612f6b565b92915050565b600060208284031215611eb357611eb2612ace565b5b6000611ec184828501611e34565b91505092915050565b60008060408385031215611ee157611ee0612ace565b5b6000611eef85828601611e34565b9250506020611f0085828601611e34565b9150509250929050565b600080600060608486031215611f2357611f22612ace565b5b6000611f3186828701611e34565b9350506020611f4286828701611e34565b9250506040611f5386828701611e5e565b9150509250925092565b60008060408385031215611f7457611f73612ace565b5b6000611f8285828601611e34565b9250506020611f9385828601611e5e565b9150509250929050565b600060208284031215611fb357611fb2612ace565b5b6000611fc184828501611e49565b91505092915050565b600060208284031215611fe057611fdf612ace565b5b6000611fee84828501611e5e565b91505092915050565b60006020828403121561200d5761200c612ace565b5b600061201b84828501611e73565b91505092915050565b6000806040838503121561203b5761203a612ace565b5b600061204985828601611e5e565b925050602061205a85828601611e34565b9150509250929050565b60008060006060848603121561207d5761207c612ace565b5b600061208b86828701611e5e565b935050602061209c86828701611e34565b92505060406120ad86828701611e34565b9150509250925092565b6000602082840312156120cd576120cc612ace565b5b60006120db84828501611e88565b91505092915050565b6120ed81612958565b82525050565b6120fc8161296a565b82525050565b600061210d8261272b565b6121178185612741565b93506121278185602086016129ad565b80840191505092915050565b600061213e82612736565b612148818561274c565b93506121588185602086016129ad565b61216181612ad3565b840191505092915050565b600061217960238361274c565b915061218482612af1565b604082019050919050565b600061219c60228361274c565b91506121a782612b40565b604082019050919050565b60006121bf60228361274c565b91506121ca82612b8f565b604082019050919050565b60006121e2601d8361274c565b91506121ed82612bde565b602082019050919050565b6000612205601d8361274c565b915061221082612c07565b602082019050919050565b600061222860268361274c565b915061223382612c30565b604082019050919050565b600061224b60268361274c565b915061225682612c7f565b604082019050919050565b600061226e601f8361274c565b915061227982612cce565b602082019050919050565b6000612291601e8361274c565b915061229c82612cf7565b602082019050919050565b60006122b4601b8361274c565b91506122bf82612d20565b602082019050919050565b60006122d760218361274c565b91506122e282612d49565b604082019050919050565b60006122fa60258361274c565b915061230582612d98565b604082019050919050565b600061231d60248361274c565b915061232882612de7565b604082019050919050565b6000612340601d8361274c565b915061234b82612e36565b602082019050919050565b6000612363602a8361274c565b915061236e82612e5f565b604082019050919050565b600061238660258361274c565b915061239182612eae565b604082019050919050565b60006123a9601f8361274c565b91506123b482612efd565b602082019050919050565b6123c881612996565b82525050565b6123d7816129a0565b82525050565b60006123e98284612102565b915081905092915050565b600060208201905061240960008301846120e4565b92915050565b600060608201905061242460008301866120e4565b61243160208301856120e4565b61243e60408301846123bf565b949350505050565b600060408201905061245b60008301856120e4565b61246860208301846123bf565b9392505050565b600060208201905061248460008301846120f3565b92915050565b600060208201905081810360008301526124a48184612133565b905092915050565b600060208201905081810360008301526124c58161216c565b9050919050565b600060208201905081810360008301526124e58161218f565b9050919050565b60006020820190508181036000830152612505816121b2565b9050919050565b60006020820190508181036000830152612525816121d5565b9050919050565b60006020820190508181036000830152612545816121f8565b9050919050565b600060208201905081810360008301526125658161221b565b9050919050565b600060208201905081810360008301526125858161223e565b9050919050565b600060208201905081810360008301526125a581612261565b9050919050565b600060208201905081810360008301526125c581612284565b9050919050565b600060208201905081810360008301526125e5816122a7565b9050919050565b60006020820190508181036000830152612605816122ca565b9050919050565b60006020820190508181036000830152612625816122ed565b9050919050565b6000602082019050818103600083015261264581612310565b9050919050565b6000602082019050818103600083015261266581612333565b9050919050565b6000602082019050818103600083015261268581612356565b9050919050565b600060208201905081810360008301526126a581612379565b9050919050565b600060208201905081810360008301526126c58161239c565b9050919050565b60006020820190506126e160008301846123bf565b92915050565b60006040820190506126fc60008301856123bf565b61270960208301846123bf565b9392505050565b600060208201905061272560008301846123ce565b92915050565b600081519050919050565b600081519050919050565b600081905092915050565b600082825260208201905092915050565b600061276882612996565b915061277383612996565b9250827fffffffffffffffffffffffffffffffffffffffffffffffffffffffffffffffff038211156127a8576127a7612a12565b5b828201905092915050565b6000808291508390505b60018511156127fd578086048111156127d9576127d8612a12565b5b60018516156127e85780820291505b80810290506127f685612ae4565b94506127bd565b94509492505050565b600061281182612996565b915061281c836129a0565b92506128497fffffffffffffffffffffffffffffffffffffffffffffffffffffffffffffffff8484612851565b905092915050565b600082612861576001905061291d565b8161286f576000905061291d565b8160018114612885576002811461288f576128be565b600191505061291d565b60ff8411156128a1576128a0612a12565b5b8360020a9150848211156128b8576128b7612a12565b5b5061291d565b5060208310610133831016604e8410600b84101617156128f35782820a9050838111156128ee576128ed612a12565b5b61291d565b61290084848460016127b3565b9250905081840481111561291757612916612a12565b5b81810290505b9392505050565b600061292f82612996565b915061293a83612996565b92508282101561294d5761294c612a12565b5b828203905092915050565b600061296382612976565b9050919050565b60008115159050919050565b600073ffffffffffffffffffffffffffffffffffffffff82169050919050565b6000819050919050565b600060ff82169050919050565b60005b838110156129cb5780820151818401526020810190506129b0565b838111156129da576000848401525b50505050565b600060028204905060018216806129f857607f821691505b60208210811415612a0c57612a0b612a9f565b5b50919050565b7f4e487b7100000000000000000000000000000000000000000000000000000000600052601160045260246000fd5b7f4e487b7100000000000000000000000000000000000000000000000000000000600052601260045260246000fd5b7f4e487b7100000000000000000000000000000000000000000000000000000000600052602160045260246000fd5b7f4e487b7100000000000000000000000000000000000000000000000000000000600052602260045260246000fd5b600080fd5b6000601f19601f8301169050919050565b60008160011c9050919050565b7f45524332303a207472616e7366657220746f20746865207a65726f206164647260008201527f6573730000000000000000000000000000000000000000000000000000000000602082015250565b7f45524332303a206275726e20616d6f756e7420657863656564732062616c616e60008201527f6365000000000000000000000000000000000000000000000000000000000000602082015250565b7f45524332303a20617070726f766520746f20746865207a65726f20616464726560008201527f7373000000000000000000000000000000000000000000000000000000000000602082015250565b7f45524332303a20696e73756666696369656e7420616c6c6f77616e6365000000600082015250565b7f455243343632363a2072656465656d206d6f7265207468616e206d6178000000600082015250565b7f45524332303a207472616e7366657220616d6f756e742065786365656473206260008201527f616c616e63650000000000000000000000000000000000000000000000000000602082015250565b7f416464726573733a20696e73756666696369656e742062616c616e636520666f60008201527f722063616c6c0000000000000000000000000000000000000000000000000000602082015250565b7f455243343632363a207769746864726177206d6f7265207468616e206d617800600082015250565b7f455243343632363a206465706f736974206d6f7265207468616e206d61780000600082015250565b7f455243343632363a206d696e74206d6f7265207468616e206d61780000000000600082015250565b7f45524332303a206275726e2066726f6d20746865207a65726f2061646472657360008201527f7300000000000000000000000000000000000000000000000000000000000000602082015250565b7f45524332303a207472616e736665722066726f6d20746865207a65726f20616460008201527f6472657373000000000000000000000000000000000000000000000000000000602082015250565b7f45524332303a20617070726f76652066726f6d20746865207a65726f2061646460008201527f7265737300000000000000000000000000000000000000000000000000000000602082015250565b7f416464726573733a2063616c6c20746f206e6f6e2d636f6e7472616374000000600082015250565b7f5361666545524332303a204552433230206f7065726174696f6e20646964206e60008201527f6f74207375636365656400000000000000000000000000000000000000000000602082015250565b7f45524332303a2064656372656173656420616c6c6f77616e63652062656c6f7760008201527f207a65726f000000000000000000000000000000000000000000000000000000602082015250565b7f45524332303a206d696e7420746f20746865207a65726f206164647265737300600082015250565b612f2f81612958565b8114612f3a57600080fd5b50565b612f468161296a565b8114612f5157600080fd5b50565b612f5d81612996565b8114612f6857600080fd5b50565b612f74816129a0565b8114612f7f57600080fd5b5056fea2646970667358221220117309c6f45cf0808dbccc6f89fa6a906226ee8f035df7b3cf867a6e2c5b0cf864736f6c63430008070033",
			"opcodes": "PUSH1 0xA0 PUSH1 0x40 MSTORE CALLVALUE DUP1 ISZERO PUSH3 0x11 JUMPI PUSH1 0x0 DUP1 REVERT JUMPDEST POP PUSH1 0x40 MLOAD PUSH3 0x345A CODESIZE SUB DUP1 PUSH3 0x345A DUP4 CODECOPY DUP2 DUP2 ADD PUSH1 0x40 MSTORE DUP2 ADD SWAP1 PUSH3 0x37 SWAP2 SWAP1 PUSH3 0x1F4 JUMP JUMPDEST DUP3 DUP3 DUP3 DUP2 PUSH1 0x3 SWAP1 DUP1 MLOAD SWAP1 PUSH1 0x20 ADD SWAP1 PUSH3 0x52 SWAP3 SWAP2 SWAP1 PUSH3 0xAF JUMP JUMPDEST POP DUP1 PUSH1 0x4 SWAP1 DUP1 MLOAD SWAP1 PUSH1 0x20 ADD SWAP1 PUSH3 0x6B SWAP3 SWAP2 SWAP1 PUSH3 0xAF JUMP JUMPDEST POP POP POP DUP1 PUSH20 0xFFFFFFFFFFFFFFFFFFFFFFFFFFFFFFFFFFFFFFFF AND PUSH1 0x80 DUP2 PUSH20 0xFFFFFFFFFFFFFFFFFFFFFFFFFFFFFFFFFFFFFFFF AND PUSH1 0x60 SHL DUP2 MSTORE POP POP POP POP POP POP PUSH3 0x460 JUMP JUMPDEST DUP3 DUP1 SLOAD PUSH3 0xBD SWAP1 PUSH3 0x357 JUMP JUMPDEST SWAP1 PUSH1 0x0 MSTORE PUSH1 0x20 PUSH1 0x0 KECCAK256 SWAP1 PUSH1 0x1F ADD PUSH1 0x20 SWAP1 DIV DUP2 ADD SWAP3 DUP3 PUSH3 0xE1 JUMPI PUSH1 0x0 DUP6 SSTORE PUSH3 0x12D JUMP JUMPDEST DUP3 PUSH1 0x1F LT PUSH3 0xFC JUMPI DUP1 MLOAD PUSH1 0xFF NOT AND DUP4 DUP1 ADD OR DUP6 SSTORE PUSH3 0x12D JUMP JUMPDEST DUP3 DUP1 ADD PUSH1 0x1 ADD DUP6 SSTORE DUP3 ISZERO PUSH3 0x12D JUMPI SWAP2 DUP3 ADD JUMPDEST DUP3 DUP2 GT ISZERO PUSH3 0x12C JUMPI DUP3 MLOAD DUP3 SSTORE SWAP2 PUSH1 0x20 ADD SWAP2 SWAP1 PUSH1 0x1 ADD SWAP1 PUSH3 0x10F JUMP JUMPDEST JUMPDEST POP SWAP1 POP PUSH3 0x13C SWAP2 SWAP1 PUSH3 0x140 JUMP JUMPDEST POP SWAP1 JUMP JUMPDEST JUMPDEST DUP1 DUP3 GT ISZERO PUSH3 0x15B JUMPI PUSH1 0x0 DUP2 PUSH1 0x0 SWAP1 SSTORE POP PUSH1 0x1 ADD PUSH3 0x141 JUMP JUMPDEST POP SWAP1 JUMP JUMPDEST PUSH1 0x0 PUSH3 0x176 PUSH3 0x170 DUP5 PUSH3 0x2B7 JUMP JUMPDEST PUSH3 0x28E JUMP JUMPDEST SWAP1 POP DUP3 DUP2 MSTORE PUSH1 0x20 DUP2 ADD DUP5 DUP5 DUP5 ADD GT ISZERO PUSH3 0x195 JUMPI PUSH3 0x194 PUSH3 0x426 JUMP JUMPDEST JUMPDEST PUSH3 0x1A2 DUP5 DUP3 DUP6 PUSH3 0x321 JUMP JUMPDEST POP SWAP4 SWAP3 POP POP POP JUMP JUMPDEST PUSH1 0x0 DUP2 MLOAD SWAP1 POP PUSH3 0x1BB DUP2 PUSH3 0x446 JUMP JUMPDEST SWAP3 SWAP2 POP POP JUMP JUMPDEST PUSH1 0x0 DUP3 PUSH1 0x1F DUP4 ADD SLT PUSH3 0x1D9 JUMPI PUSH3 0x1D8 PUSH3 0x421 JUMP JUMPDEST JUMPDEST DUP2 MLOAD PUSH3 0x1EB DUP5 DUP3 PUSH1 0x20 DUP7 ADD PUSH3 0x15F JUMP JUMPDEST SWAP2 POP POP SWAP3 SWAP2 POP POP JUMP JUMPDEST PUSH1 0x0 DUP1 PUSH1 0x0 PUSH1 0x60 DUP5 DUP7 SUB SLT ISZERO PUSH3 0x210 JUMPI PUSH3 0x20F PUSH3 0x430 JUMP JUMPDEST JUMPDEST PUSH1 0x0 PUSH3 0x220 DUP7 DUP3 DUP8 ADD PUSH3 0x1AA JUMP JUMPDEST SWAP4 POP POP PUSH1 0x20 DUP5 ADD MLOAD PUSH8 0xFFFFFFFFFFFFFFFF DUP2 GT ISZERO PUSH3 0x244 JUMPI PUSH3 0x243 PUSH3 0x42B JUMP JUMPDEST JUMPDEST PUSH3 0x252 DUP7 DUP3 DUP8 ADD PUSH3 0x1C1 JUMP JUMPDEST SWAP3 POP POP PUSH1 0x40 DUP5 ADD MLOAD PUSH8 0xFFFFFFFFFFFFFFFF DUP2 GT ISZERO PUSH3 0x276 JUMPI PUSH3 0x275 PUSH3 0x42B JUMP JUMPDEST JUMPDEST PUSH3 0x284 DUP7 DUP3 DUP8 ADD PUSH3 0x1C1 JUMP JUMPDEST SWAP2 POP POP SWAP3 POP SWAP3 POP SWAP3 JUMP JUMPDEST PUSH1 0x0 PUSH3 0x29A PUSH3 0x2AD JUMP JUMPDEST SWAP1 POP PUSH3 0x2A8 DUP3 DUP3 PUSH3 0x38D JUMP JUMPDEST SWAP2 SWAP1 POP JUMP JUMPDEST PUSH1 0x0 PUSH1 0x40 MLOAD SWAP1 POP SWAP1 JUMP JUMPDEST PUSH1 0x0 PUSH8 0xFFFFFFFFFFFFFFFF DUP3 GT ISZERO PUSH3 0x2D5 JUMPI PUSH3 0x2D4 PUSH3 0x3F2 JUMP JUMPDEST JUMPDEST PUSH3 0x2E0 DUP3 PUSH3 0x435 JUMP JUMPDEST SWAP1 POP PUSH1 0x20 DUP2 ADD SWAP1 POP SWAP2 SWAP1 POP JUMP JUMPDEST PUSH1 0x0 PUSH3 0x2FA DUP3 PUSH3 0x301 JUMP JUMPDEST SWAP1 POP SWAP2 SWAP1 POP JUMP JUMPDEST PUSH1 0x0 PUSH20 0xFFFFFFFFFFFFFFFFFFFFFFFFFFFFFFFFFFFFFFFF DUP3 AND SWAP1 POP SWAP2 SWAP1 POP JUMP JUMPDEST PUSH1 0x0 JUMPDEST DUP4 DUP2 LT ISZERO PUSH3 0x341 JUMPI DUP1 DUP3 ADD MLOAD DUP2 DUP5 ADD MSTORE PUSH1 0x20 DUP2 ADD SWAP1 POP PUSH3 0x324 JUMP JUMPDEST DUP4 DUP2 GT ISZERO PUSH3 0x351 JUMPI PUSH1 0x0 DUP5 DUP5 ADD MSTORE JUMPDEST POP POP POP POP JUMP JUMPDEST PUSH1 0x0 PUSH1 0x2 DUP3 DIV SWAP1 POP PUSH1 0x1 DUP3 AND DUP1 PUSH3 0x370 JUMPI PUSH1 0x7F DUP3 AND SWAP2 POP JUMPDEST PUSH1 0x20 DUP3 LT DUP2 EQ ISZERO PUSH3 0x387 JUMPI PUSH3 0x386 PUSH3 0x3C3 JUMP JUMPDEST JUMPDEST POP SWAP2 SWAP1 POP JUMP JUMPDEST PUSH3 0x398 DUP3 PUSH3 0x435 JUMP JUMPDEST DUP2 ADD DUP2 DUP2 LT PUSH8 0xFFFFFFFFFFFFFFFF DUP3 GT OR ISZERO PUSH3 0x3BA JUMPI PUSH3 0x3B9 PUSH3 0x3F2 JUMP JUMPDEST JUMPDEST DUP1 PUSH1 0x40 MSTORE POP POP POP JUMP JUMPDEST PUSH32 0x4E487B7100000000000000000000000000000000000000000000000000000000 PUSH1 0x0 MSTORE PUSH1 0x22 PUSH1 0x4 MSTORE PUSH1 0x24 PUSH1 0x0 REVERT JUMPDEST PUSH32 0x4E487B7100000000000000000000000000000000000000000000000000000000 PUSH1 0x0 MSTORE PUSH1 0x41 PUSH1 0x4 MSTORE PUSH1 0x24 PUSH1 0x0 REVERT JUMPDEST PUSH1 0x0 DUP1 REVERT JUMPDEST PUSH1 0x0 DUP1 REVERT JUMPDEST PUSH1 0x0 DUP1 REVERT JUMPDEST PUSH1 0x0 DUP1 REVERT JUMPDEST PUSH1 0x0 PUSH1 0x1F NOT PUSH1 0x1F DUP4 ADD AND SWAP1 POP SWAP2 SWAP1 POP JUMP JUMPDEST PUSH3 0x451 DUP2 PUSH3 0x2ED JUMP JUMPDEST DUP2 EQ PUSH3 0x45D JUMPI PUSH1 0x0 DUP1 REVERT JUMPDEST POP JUMP JUMPDEST PUSH1 0x80 MLOAD PUSH1 0x60 SHR PUSH2 0x2FB8 PUSH3 0x4A2 PUSH1 0x0 CODECOPY PUSH1 0x0 DUP2 DUP2 PUSH2 0x656 ADD MSTORE DUP2 DUP2 PUSH2 0x825 ADD MSTORE DUP2 DUP2 PUSH2 0xD7E ADD MSTORE DUP2 DUP2 PUSH2 0x1085 ADD MSTORE DUP2 DUP2 PUSH2 0x147E ADD MSTORE PUSH2 0x156A ADD MSTORE PUSH2 0x2FB8 PUSH1 0x0 RETURN INVALID PUSH1 0x80 PUSH1 0x40 MSTORE CALLVALUE DUP1 ISZERO PUSH2 0x10 JUMPI PUSH1 0x0 DUP1 REVERT JUMPDEST POP PUSH1 0x4 CALLDATASIZE LT PUSH2 0x1A9 JUMPI PUSH1 0x0 CALLDATALOAD PUSH1 0xE0 SHR DUP1 PUSH4 0x70A08231 GT PUSH2 0xF9 JUMPI DUP1 PUSH4 0xBA087652 GT PUSH2 0x97 JUMPI DUP1 PUSH4 0xCE96CB77 GT PUSH2 0x71 JUMPI DUP1 PUSH4 0xCE96CB77 EQ PUSH2 0x592 JUMPI DUP1 PUSH4 0xD905777E EQ PUSH2 0x5C2 JUMPI DUP1 PUSH4 0xDD62ED3E EQ PUSH2 0x5F2 JUMPI DUP1 PUSH4 0xEF8B30F7 EQ PUSH2 0x622 JUMPI PUSH2 0x1A9 JUMP JUMPDEST DUP1 PUSH4 0xBA087652 EQ PUSH2 0x502 JUMPI DUP1 PUSH4 0xC63D75B6 EQ PUSH2 0x532 JUMPI DUP1 PUSH4 0xC6E6F592 EQ PUSH2 0x562 JUMPI PUSH2 0x1A9 JUMP JUMPDEST DUP1 PUSH4 0xA457C2D7 GT PUSH2 0xD3 JUMPI DUP1 PUSH4 0xA457C2D7 EQ PUSH2 0x442 JUMPI DUP1 PUSH4 0xA9059CBB EQ PUSH2 0x472 JUMPI DUP1 PUSH4 0xB3D7F6B9 EQ PUSH2 0x4A2 JUMPI DUP1 PUSH4 0xB460AF94 EQ PUSH2 0x4D2 JUMPI PUSH2 0x1A9 JUMP JUMPDEST DUP1 PUSH4 0x70A08231 EQ PUSH2 0x3C4 JUMPI DUP1 PUSH4 0x94BF804D EQ PUSH2 0x3F4 JUMPI DUP1 PUSH4 0x95D89B41 EQ PUSH2 0x424 JUMPI PUSH2 0x1A9 JUMP JUMPDEST DUP1 PUSH4 0x23B872DD GT PUSH2 0x166 JUMPI DUP1 PUSH4 0x39509351 GT PUSH2 0x140 JUMPI DUP1 PUSH4 0x39509351 EQ PUSH2 0x304 JUMPI DUP1 PUSH4 0x402D267D EQ PUSH2 0x334 JUMPI DUP1 PUSH4 0x4CDAD506 EQ PUSH2 0x364 JUMPI DUP1 PUSH4 0x6E553F65 EQ PUSH2 0x394 JUMPI PUSH2 0x1A9 JUMP JUMPDEST DUP1 PUSH4 0x23B872DD EQ PUSH2 0x298 JUMPI DUP1 PUSH4 0x313CE567 EQ PUSH2 0x2C8 JUMPI DUP1 PUSH4 0x38D52E0F EQ PUSH2 0x2E6 JUMPI PUSH2 0x1A9 JUMP JUMPDEST DUP1 PUSH4 0x1E1D114 EQ PUSH2 0x1AE JUMPI DUP1 PUSH4 0x6FDDE03 EQ PUSH2 0x1CC JUMPI DUP1 PUSH4 0x7A2D13A EQ PUSH2 0x1EA JUMPI DUP1 PUSH4 0x95EA7B3 EQ PUSH2 0x21A JUMPI DUP1 PUSH4 0xA28A477 EQ PUSH2 0x24A JUMPI DUP1 PUSH4 0x18160DDD EQ PUSH2 0x27A JUMPI JUMPDEST PUSH1 0x0 DUP1 REVERT JUMPDEST PUSH2 0x1B6 PUSH2 0x652 JUMP JUMPDEST PUSH1 0x40 MLOAD PUSH2 0x1C3 SWAP2 SWAP1 PUSH2 0x26CC JUMP JUMPDEST PUSH1 0x40 MLOAD DUP1 SWAP2 SUB SWAP1 RETURN JUMPDEST PUSH2 0x1D4 PUSH2 0x702 JUMP JUMPDEST PUSH1 0x40 MLOAD PUSH2 0x1E1 SWAP2 SWAP1 PUSH2 0x248A JUMP JUMPDEST PUSH1 0x40 MLOAD DUP1 SWAP2 SUB SWAP1 RETURN JUMPDEST PUSH2 0x204 PUSH1 0x4 DUP1 CALLDATASIZE SUB DUP2 ADD SWAP1 PUSH2 0x1FF SWAP2 SWAP1 PUSH2 0x1FCA JUMP JUMPDEST PUSH2 0x794 JUMP JUMPDEST PUSH1 0x40 MLOAD PUSH2 0x211 SWAP2 SWAP1 PUSH2 0x26CC JUMP JUMPDEST PUSH1 0x40 MLOAD DUP1 SWAP2 SUB SWAP1 RETURN JUMPDEST PUSH2 0x234 PUSH1 0x4 DUP1 CALLDATASIZE SUB DUP2 ADD SWAP1 PUSH2 0x22F SWAP2 SWAP1 PUSH2 0x1F5D JUMP JUMPDEST PUSH2 0x7A8 JUMP JUMPDEST PUSH1 0x40 MLOAD PUSH2 0x241 SWAP2 SWAP1 PUSH2 0x246F JUMP JUMPDEST PUSH1 0x40 MLOAD DUP1 SWAP2 SUB SWAP1 RETURN JUMPDEST PUSH2 0x264 PUSH1 0x4 DUP1 CALLDATASIZE SUB DUP2 ADD SWAP1 PUSH2 0x25F SWAP2 SWAP1 PUSH2 0x1FCA JUMP JUMPDEST PUSH2 0x7CB JUMP JUMPDEST PUSH1 0x40 MLOAD PUSH2 0x271 SWAP2 SWAP1 PUSH2 0x26CC JUMP JUMPDEST PUSH1 0x40 MLOAD DUP1 SWAP2 SUB SWAP1 RETURN JUMPDEST PUSH2 0x282 PUSH2 0x7DF JUMP JUMPDEST PUSH1 0x40 MLOAD PUSH2 0x28F SWAP2 SWAP1 PUSH2 0x26CC JUMP JUMPDEST PUSH1 0x40 MLOAD DUP1 SWAP2 SUB SWAP1 RETURN JUMPDEST PUSH2 0x2B2 PUSH1 0x4 DUP1 CALLDATASIZE SUB DUP2 ADD SWAP1 PUSH2 0x2AD SWAP2 SWAP1 PUSH2 0x1F0A JUMP JUMPDEST PUSH2 0x7E9 JUMP JUMPDEST PUSH1 0x40 MLOAD PUSH2 0x2BF SWAP2 SWAP1 PUSH2 0x246F JUMP JUMPDEST PUSH1 0x40 MLOAD DUP1 SWAP2 SUB SWAP1 RETURN JUMPDEST PUSH2 0x2D0 PUSH2 0x818 JUMP JUMPDEST PUSH1 0x40 MLOAD PUSH2 0x2DD SWAP2 SWAP1 PUSH2 0x2710 JUMP JUMPDEST PUSH1 0x40 MLOAD DUP1 SWAP2 SUB SWAP1 RETURN JUMPDEST PUSH2 0x2EE PUSH2 0x821 JUMP JUMPDEST PUSH1 0x40 MLOAD PUSH2 0x2FB SWAP2 SWAP1 PUSH2 0x23F4 JUMP JUMPDEST PUSH1 0x40 MLOAD DUP1 SWAP2 SUB SWAP1 RETURN JUMPDEST PUSH2 0x31E PUSH1 0x4 DUP1 CALLDATASIZE SUB DUP2 ADD SWAP1 PUSH2 0x319 SWAP2 SWAP1 PUSH2 0x1F5D JUMP JUMPDEST PUSH2 0x849 JUMP JUMPDEST PUSH1 0x40 MLOAD PUSH2 0x32B SWAP2 SWAP1 PUSH2 0x246F JUMP JUMPDEST PUSH1 0x40 MLOAD DUP1 SWAP2 SUB SWAP1 RETURN JUMPDEST PUSH2 0x34E PUSH1 0x4 DUP1 CALLDATASIZE SUB DUP2 ADD SWAP1 PUSH2 0x349 SWAP2 SWAP1 PUSH2 0x1E9D JUMP JUMPDEST PUSH2 0x880 JUMP JUMPDEST PUSH1 0x40 MLOAD PUSH2 0x35B SWAP2 SWAP1 PUSH2 0x26CC JUMP JUMPDEST PUSH1 0x40 MLOAD DUP1 SWAP2 SUB SWAP1 RETURN JUMPDEST PUSH2 0x37E PUSH1 0x4 DUP1 CALLDATASIZE SUB DUP2 ADD SWAP1 PUSH2 0x379 SWAP2 SWAP1 PUSH2 0x1FCA JUMP JUMPDEST PUSH2 0x8BE JUMP JUMPDEST PUSH1 0x40 MLOAD PUSH2 0x38B SWAP2 SWAP1 PUSH2 0x26CC JUMP JUMPDEST PUSH1 0x40 MLOAD DUP1 SWAP2 SUB SWAP1 RETURN JUMPDEST PUSH2 0x3AE PUSH1 0x4 DUP1 CALLDATASIZE SUB DUP2 ADD SWAP1 PUSH2 0x3A9 SWAP2 SWAP1 PUSH2 0x2024 JUMP JUMPDEST PUSH2 0x8D2 JUMP JUMPDEST PUSH1 0x40 MLOAD PUSH2 0x3BB SWAP2 SWAP1 PUSH2 0x26CC JUMP JUMPDEST PUSH1 0x40 MLOAD DUP1 SWAP2 SUB SWAP1 RETURN JUMPDEST PUSH2 0x3DE PUSH1 0x4 DUP1 CALLDATASIZE SUB DUP2 ADD SWAP1 PUSH2 0x3D9 SWAP2 SWAP1 PUSH2 0x1E9D JUMP JUMPDEST PUSH2 0x949 JUMP JUMPDEST PUSH1 0x40 MLOAD PUSH2 0x3EB SWAP2 SWAP1 PUSH2 0x26CC JUMP JUMPDEST PUSH1 0x40 MLOAD DUP1 SWAP2 SUB SWAP1 RETURN JUMPDEST PUSH2 0x40E PUSH1 0x4 DUP1 CALLDATASIZE SUB DUP2 ADD SWAP1 PUSH2 0x409 SWAP2 SWAP1 PUSH2 0x2024 JUMP JUMPDEST PUSH2 0x991 JUMP JUMPDEST PUSH1 0x40 MLOAD PUSH2 0x41B SWAP2 SWAP1 PUSH2 0x26CC JUMP JUMPDEST PUSH1 0x40 MLOAD DUP1 SWAP2 SUB SWAP1 RETURN JUMPDEST PUSH2 0x42C PUSH2 0xA08 JUMP JUMPDEST PUSH1 0x40 MLOAD PUSH2 0x439 SWAP2 SWAP1 PUSH2 0x248A JUMP JUMPDEST PUSH1 0x40 MLOAD DUP1 SWAP2 SUB SWAP1 RETURN JUMPDEST PUSH2 0x45C PUSH1 0x4 DUP1 CALLDATASIZE SUB DUP2 ADD SWAP1 PUSH2 0x457 SWAP2 SWAP1 PUSH2 0x1F5D JUMP JUMPDEST PUSH2 0xA9A JUMP JUMPDEST PUSH1 0x40 MLOAD PUSH2 0x469 SWAP2 SWAP1 PUSH2 0x246F JUMP JUMPDEST PUSH1 0x40 MLOAD DUP1 SWAP2 SUB SWAP1 RETURN JUMPDEST PUSH2 0x48C PUSH1 0x4 DUP1 CALLDATASIZE SUB DUP2 ADD SWAP1 PUSH2 0x487 SWAP2 SWAP1 PUSH2 0x1F5D JUMP JUMPDEST PUSH2 0xB11 JUMP JUMPDEST PUSH1 0x40 MLOAD PUSH2 0x499 SWAP2 SWAP1 PUSH2 0x246F JUMP JUMPDEST PUSH1 0x40 MLOAD DUP1 SWAP2 SUB SWAP1 RETURN JUMPDEST PUSH2 0x4BC PUSH1 0x4 DUP1 CALLDATASIZE SUB DUP2 ADD SWAP1 PUSH2 0x4B7 SWAP2 SWAP1 PUSH2 0x1FCA JUMP JUMPDEST PUSH2 0xB34 JUMP JUMPDEST PUSH1 0x40 MLOAD PUSH2 0x4C9 SWAP2 SWAP1 PUSH2 0x26CC JUMP JUMPDEST PUSH1 0x40 MLOAD DUP1 SWAP2 SUB SWAP1 RETURN JUMPDEST PUSH2 0x4EC PUSH1 0x4 DUP1 CALLDATASIZE SUB DUP2 ADD SWAP1 PUSH2 0x4E7 SWAP2 SWAP1 PUSH2 0x2064 JUMP JUMPDEST PUSH2 0xB48 JUMP JUMPDEST PUSH1 0x40 MLOAD PUSH2 0x4F9 SWAP2 SWAP1 PUSH2 0x26CC JUMP JUMPDEST PUSH1 0x40 MLOAD DUP1 SWAP2 SUB SWAP1 RETURN JUMPDEST PUSH2 0x51C PUSH1 0x4 DUP1 CALLDATASIZE SUB DUP2 ADD SWAP1 PUSH2 0x517 SWAP2 SWAP1 PUSH2 0x2064 JUMP JUMPDEST PUSH2 0xBC1 JUMP JUMPDEST PUSH1 0x40 MLOAD PUSH2 0x529 SWAP2 SWAP1 PUSH2 0x26CC JUMP JUMPDEST PUSH1 0x40 MLOAD DUP1 SWAP2 SUB SWAP1 RETURN JUMPDEST PUSH2 0x54C PUSH1 0x4 DUP1 CALLDATASIZE SUB DUP2 ADD SWAP1 PUSH2 0x547 SWAP2 SWAP1 PUSH2 0x1E9D JUMP JUMPDEST PUSH2 0xC3A JUMP JUMPDEST PUSH1 0x40 MLOAD PUSH2 0x559 SWAP2 SWAP1 PUSH2 0x26CC JUMP JUMPDEST PUSH1 0x40 MLOAD DUP1 SWAP2 SUB SWAP1 RETURN JUMPDEST PUSH2 0x57C PUSH1 0x4 DUP1 CALLDATASIZE SUB DUP2 ADD SWAP1 PUSH2 0x577 SWAP2 SWAP1 PUSH2 0x1FCA JUMP JUMPDEST PUSH2 0xC64 JUMP JUMPDEST PUSH1 0x40 MLOAD PUSH2 0x589 SWAP2 SWAP1 PUSH2 0x26CC JUMP JUMPDEST PUSH1 0x40 MLOAD DUP1 SWAP2 SUB SWAP1 RETURN JUMPDEST PUSH2 0x5AC PUSH1 0x4 DUP1 CALLDATASIZE SUB DUP2 ADD SWAP1 PUSH2 0x5A7 SWAP2 SWAP1 PUSH2 0x1E9D JUMP JUMPDEST PUSH2 0xC78 JUMP JUMPDEST PUSH1 0x40 MLOAD PUSH2 0x5B9 SWAP2 SWAP1 PUSH2 0x26CC JUMP JUMPDEST PUSH1 0x40 MLOAD DUP1 SWAP2 SUB SWAP1 RETURN JUMPDEST PUSH2 0x5DC PUSH1 0x4 DUP1 CALLDATASIZE SUB DUP2 ADD SWAP1 PUSH2 0x5D7 SWAP2 SWAP1 PUSH2 0x1E9D JUMP JUMPDEST PUSH2 0xC94 JUMP JUMPDEST PUSH1 0x40 MLOAD PUSH2 0x5E9 SWAP2 SWAP1 PUSH2 0x26CC JUMP JUMPDEST PUSH1 0x40 MLOAD DUP1 SWAP2 SUB SWAP1 RETURN JUMPDEST PUSH2 0x60C PUSH1 0x4 DUP1 CALLDATASIZE SUB DUP2 ADD SWAP1 PUSH2 0x607 SWAP2 SWAP1 PUSH2 0x1ECA JUMP JUMPDEST PUSH2 0xCA6 JUMP JUMPDEST PUSH1 0x40 MLOAD PUSH2 0x619 SWAP2 SWAP1 PUSH2 0x26CC JUMP JUMPDEST PUSH1 0x40 MLOAD DUP1 SWAP2 SUB SWAP1 RETURN JUMPDEST PUSH2 0x63C PUSH1 0x4 DUP1 CALLDATASIZE SUB DUP2 ADD SWAP1 PUSH2 0x637 SWAP2 SWAP1 PUSH2 0x1FCA JUMP JUMPDEST PUSH2 0xD2D JUMP JUMPDEST PUSH1 0x40 MLOAD PUSH2 0x649 SWAP2 SWAP1 PUSH2 0x26CC JUMP JUMPDEST PUSH1 0x40 MLOAD DUP1 SWAP2 SUB SWAP1 RETURN JUMPDEST PUSH1 0x0 PUSH32 0x0 PUSH20 0xFFFFFFFFFFFFFFFFFFFFFFFFFFFFFFFFFFFFFFFF AND PUSH4 0x70A08231 ADDRESS PUSH1 0x40 MLOAD DUP3 PUSH4 0xFFFFFFFF AND PUSH1 0xE0 SHL DUP2 MSTORE PUSH1 0x4 ADD PUSH2 0x6AD SWAP2 SWAP1 PUSH2 0x23F4 JUMP JUMPDEST PUSH1 0x20 PUSH1 0x40 MLOAD DUP1 DUP4 SUB DUP2 DUP7 DUP1 EXTCODESIZE ISZERO DUP1 ISZERO PUSH2 0x6C5 JUMPI PUSH1 0x0 DUP1 REVERT JUMPDEST POP GAS STATICCALL ISZERO DUP1 ISZERO PUSH2 0x6D9 JUMPI RETURNDATASIZE PUSH1 0x0 DUP1 RETURNDATACOPY RETURNDATASIZE PUSH1 0x0 REVERT JUMPDEST POP POP POP POP PUSH1 0x40 MLOAD RETURNDATASIZE PUSH1 0x1F NOT PUSH1 0x1F DUP3 ADD AND DUP3 ADD DUP1 PUSH1 0x40 MSTORE POP DUP2 ADD SWAP1 PUSH2 0x6FD SWAP2 SWAP1 PUSH2 0x1FF7 JUMP JUMPDEST SWAP1 POP SWAP1 JUMP JUMPDEST PUSH1 0x60 PUSH1 0x3 DUP1 SLOAD PUSH2 0x711 SWAP1 PUSH2 0x29E0 JUMP JUMPDEST DUP1 PUSH1 0x1F ADD PUSH1 0x20 DUP1 SWAP2 DIV MUL PUSH1 0x20 ADD PUSH1 0x40 MLOAD SWAP1 DUP2 ADD PUSH1 0x40 MSTORE DUP1 SWAP3 SWAP2 SWAP1 DUP2 DUP2 MSTORE PUSH1 0x20 ADD DUP3 DUP1 SLOAD PUSH2 0x73D SWAP1 PUSH2 0x29E0 JUMP JUMPDEST DUP1 ISZERO PUSH2 0x78A JUMPI DUP1 PUSH1 0x1F LT PUSH2 0x75F JUMPI PUSH2 0x100 DUP1 DUP4 SLOAD DIV MUL DUP4 MSTORE SWAP2 PUSH1 0x20 ADD SWAP2 PUSH2 0x78A JUMP JUMPDEST DUP3 ADD SWAP2 SWAP1 PUSH1 0x0 MSTORE PUSH1 0x20 PUSH1 0x0 KECCAK256 SWAP1 JUMPDEST DUP2 SLOAD DUP2 MSTORE SWAP1 PUSH1 0x1 ADD SWAP1 PUSH1 0x20 ADD DUP1 DUP4 GT PUSH2 0x76D JUMPI DUP3 SWAP1 SUB PUSH1 0x1F AND DUP3 ADD SWAP2 JUMPDEST POP POP POP POP POP SWAP1 POP SWAP1 JUMP JUMPDEST PUSH1 0x0 PUSH2 0x7A1 DUP3 PUSH1 0x0 PUSH2 0xD41 JUMP JUMPDEST SWAP1 POP SWAP2 SWAP1 POP JUMP JUMPDEST PUSH1 0x0 DUP1 PUSH2 0x7B3 PUSH2 0xE56 JUMP JUMPDEST SWAP1 POP PUSH2 0x7C0 DUP2 DUP6 DUP6 PUSH2 0xE5E JUMP JUMPDEST PUSH1 0x1 SWAP2 POP POP SWAP3 SWAP2 POP POP JUMP JUMPDEST PUSH1 0x0 PUSH2 0x7D8 DUP3 PUSH1 0x1 PUSH2 0x1029 JUMP JUMPDEST SWAP1 POP SWAP2 SWAP1 POP JUMP JUMPDEST PUSH1 0x0 PUSH1 0x2 SLOAD SWAP1 POP SWAP1 JUMP JUMPDEST PUSH1 0x0 DUP1 PUSH2 0x7F4 PUSH2 0xE56 JUMP JUMPDEST SWAP1 POP PUSH2 0x801 DUP6 DUP3 DUP6 PUSH2 0x1149 JUMP JUMPDEST PUSH2 0x80C DUP6 DUP6 DUP6 PUSH2 0x11D5 JUMP JUMPDEST PUSH1 0x1 SWAP2 POP POP SWAP4 SWAP3 POP POP POP JUMP JUMPDEST PUSH1 0x0 PUSH1 0x12 SWAP1 POP SWAP1 JUMP JUMPDEST PUSH1 0x0 PUSH32 0x0 SWAP1 POP SWAP1 JUMP JUMPDEST PUSH1 0x0 DUP1 PUSH2 0x854 PUSH2 0xE56 JUMP JUMPDEST SWAP1 POP PUSH2 0x875 DUP2 DUP6 DUP6 PUSH2 0x866 DUP6 DUP10 PUSH2 0xCA6 JUMP JUMPDEST PUSH2 0x870 SWAP2 SWAP1 PUSH2 0x275D JUMP JUMPDEST PUSH2 0xE5E JUMP JUMPDEST PUSH1 0x1 SWAP2 POP POP SWAP3 SWAP2 POP POP JUMP JUMPDEST PUSH1 0x0 PUSH2 0x88A PUSH2 0x1456 JUMP JUMPDEST PUSH2 0x895 JUMPI PUSH1 0x0 PUSH2 0x8B7 JUMP JUMPDEST PUSH32 0xFFFFFFFFFFFFFFFFFFFFFFFFFFFFFFFFFFFFFFFFFFFFFFFFFFFFFFFFFFFFFFFF JUMPDEST SWAP1 POP SWAP2 SWAP1 POP JUMP JUMPDEST PUSH1 0x0 PUSH2 0x8CB DUP3 PUSH1 0x0 PUSH2 0xD41 JUMP JUMPDEST SWAP1 POP SWAP2 SWAP1 POP JUMP JUMPDEST PUSH1 0x0 PUSH2 0x8DD DUP3 PUSH2 0x880 JUMP JUMPDEST DUP4 GT ISZERO PUSH2 0x91F JUMPI PUSH1 0x40 MLOAD PUSH32 0x8C379A000000000000000000000000000000000000000000000000000000000 DUP2 MSTORE PUSH1 0x4 ADD PUSH2 0x916 SWAP1 PUSH2 0x25AC JUMP JUMPDEST PUSH1 0x40 MLOAD DUP1 SWAP2 SUB SWAP1 REVERT JUMPDEST PUSH1 0x0 PUSH2 0x92A DUP5 PUSH2 0xD2D JUMP JUMPDEST SWAP1 POP PUSH2 0x93F PUSH2 0x937 PUSH2 0xE56 JUMP JUMPDEST DUP5 DUP7 DUP5 PUSH2 0x1479 JUMP JUMPDEST DUP1 SWAP2 POP POP SWAP3 SWAP2 POP POP JUMP JUMPDEST PUSH1 0x0 DUP1 PUSH1 0x0 DUP4 PUSH20 0xFFFFFFFFFFFFFFFFFFFFFFFFFFFFFFFFFFFFFFFF AND PUSH20 0xFFFFFFFFFFFFFFFFFFFFFFFFFFFFFFFFFFFFFFFF AND DUP2 MSTORE PUSH1 0x20 ADD SWAP1 DUP2 MSTORE PUSH1 0x20 ADD PUSH1 0x0 KECCAK256 SLOAD SWAP1 POP SWAP2 SWAP1 POP JUMP JUMPDEST PUSH1 0x0 PUSH2 0x99C DUP3 PUSH2 0xC3A JUMP JUMPDEST DUP4 GT ISZERO PUSH2 0x9DE JUMPI PUSH1 0x40 MLOAD PUSH32 0x8C379A000000000000000000000000000000000000000000000000000000000 DUP2 MSTORE PUSH1 0x4 ADD PUSH2 0x9D5 SWAP1 PUSH2 0x25CC JUMP JUMPDEST PUSH1 0x40 MLOAD DUP1 SWAP2 SUB SWAP1 REVERT JUMPDEST PUSH1 0x0 PUSH2 0x9E9 DUP5 PUSH2 0xB34 JUMP JUMPDEST SWAP1 POP PUSH2 0x9FE PUSH2 0x9F6 PUSH2 0xE56 JUMP JUMPDEST DUP5 DUP4 DUP8 PUSH2 0x1479 JUMP JUMPDEST DUP1 SWAP2 POP POP SWAP3 SWAP2 POP POP JUMP JUMPDEST PUSH1 0x60 PUSH1 0x4 DUP1 SLOAD PUSH2 0xA17 SWAP1 PUSH2 0x29E0 JUMP JUMPDEST DUP1 PUSH1 0x1F ADD PUSH1 0x20 DUP1 SWAP2 DIV MUL PUSH1 0x20 ADD PUSH1 0x40 MLOAD SWAP1 DUP2 ADD PUSH1 0x40 MSTORE DUP1 SWAP3 SWAP2 SWAP1 DUP2 DUP2 MSTORE PUSH1 0x20 ADD DUP3 DUP1 SLOAD PUSH2 0xA43 SWAP1 PUSH2 0x29E0 JUMP JUMPDEST DUP1 ISZERO PUSH2 0xA90 JUMPI DUP1 PUSH1 0x1F LT PUSH2 0xA65 JUMPI PUSH2 0x100 DUP1 DUP4 SLOAD DIV MUL DUP4 MSTORE SWAP2 PUSH1 0x20 ADD SWAP2 PUSH2 0xA90 JUMP JUMPDEST DUP3 ADD SWAP2 SWAP1 PUSH1 0x0 MSTORE PUSH1 0x20 PUSH1 0x0 KECCAK256 SWAP1 JUMPDEST DUP2 SLOAD DUP2 MSTORE SWAP1 PUSH1 0x1 ADD SWAP1 PUSH1 0x20 ADD DUP1 DUP4 GT PUSH2 0xA73 JUMPI DUP3 SWAP1 SUB PUSH1 0x1F AND DUP3 ADD SWAP2 JUMPDEST POP POP POP POP POP SWAP1 POP SWAP1 JUMP JUMPDEST PUSH1 0x0 DUP1 PUSH2 0xAA5 PUSH2 0xE56 JUMP JUMPDEST SWAP1 POP PUSH1 0x0 PUSH2 0xAB3 DUP3 DUP7 PUSH2 0xCA6 JUMP JUMPDEST SWAP1 POP DUP4 DUP2 LT ISZERO PUSH2 0xAF8 JUMPI PUSH1 0x40 MLOAD PUSH32 0x8C379A000000000000000000000000000000000000000000000000000000000 DUP2 MSTORE PUSH1 0x4 ADD PUSH2 0xAEF SWAP1 PUSH2 0x268C JUMP JUMPDEST PUSH1 0x40 MLOAD DUP1 SWAP2 SUB SWAP1 REVERT JUMPDEST PUSH2 0xB05 DUP3 DUP7 DUP7 DUP5 SUB PUSH2 0xE5E JUMP JUMPDEST PUSH1 0x1 SWAP3 POP POP POP SWAP3 SWAP2 POP POP JUMP JUMPDEST PUSH1 0x0 DUP1 PUSH2 0xB1C PUSH2 0xE56 JUMP JUMPDEST SWAP1 POP PUSH2 0xB29 DUP2 DUP6 DUP6 PUSH2 0x11D5 JUMP JUMPDEST PUSH1 0x1 SWAP2 POP POP SWAP3 SWAP2 POP POP JUMP JUMPDEST PUSH1 0x0 PUSH2 0xB41 DUP3 PUSH1 0x1 PUSH2 0xD41 JUMP JUMPDEST SWAP1 POP SWAP2 SWAP1 POP JUMP JUMPDEST PUSH1 0x0 PUSH2 0xB53 DUP3 PUSH2 0xC78 JUMP JUMPDEST DUP5 GT ISZERO PUSH2 0xB95 JUMPI PUSH1 0x40 MLOAD PUSH32 0x8C379A000000000000000000000000000000000000000000000000000000000 DUP2 MSTORE PUSH1 0x4 ADD PUSH2 0xB8C SWAP1 PUSH2 0x258C JUMP JUMPDEST PUSH1 0x40 MLOAD DUP1 SWAP2 SUB SWAP1 REVERT JUMPDEST PUSH1 0x0 PUSH2 0xBA0 DUP6 PUSH2 0x7CB JUMP JUMPDEST SWAP1 POP PUSH2 0xBB6 PUSH2 0xBAD PUSH2 0xE56 JUMP JUMPDEST DUP6 DUP6 DUP9 DUP6 PUSH2 0x151C JUMP JUMPDEST DUP1 SWAP2 POP POP SWAP4 SWAP3 POP POP POP JUMP JUMPDEST PUSH1 0x0 PUSH2 0xBCC DUP3 PUSH2 0xC94 JUMP JUMPDEST DUP5 GT ISZERO PUSH2 0xC0E JUMPI PUSH1 0x40 MLOAD PUSH32 0x8C379A000000000000000000000000000000000000000000000000000000000 DUP2 MSTORE PUSH1 0x4 ADD PUSH2 0xC05 SWAP1 PUSH2 0x252C JUMP JUMPDEST PUSH1 0x40 MLOAD DUP1 SWAP2 SUB SWAP1 REVERT JUMPDEST PUSH1 0x0 PUSH2 0xC19 DUP6 PUSH2 0x8BE JUMP JUMPDEST SWAP1 POP PUSH2 0xC2F PUSH2 0xC26 PUSH2 0xE56 JUMP JUMPDEST DUP6 DUP6 DUP5 DUP10 PUSH2 0x151C JUMP JUMPDEST DUP1 SWAP2 POP POP SWAP4 SWAP3 POP POP POP JUMP JUMPDEST PUSH1 0x0 PUSH32 0xFFFFFFFFFFFFFFFFFFFFFFFFFFFFFFFFFFFFFFFFFFFFFFFFFFFFFFFFFFFFFFFF SWAP1 POP SWAP2 SWAP1 POP JUMP JUMPDEST PUSH1 0x0 PUSH2 0xC71 DUP3 PUSH1 0x0 PUSH2 0x1029 JUMP JUMPDEST SWAP1 POP SWAP2 SWAP1 POP JUMP JUMPDEST PUSH1 0x0 PUSH2 0xC8D PUSH2 0xC86 DUP4 PUSH2 0x949 JUMP JUMPDEST PUSH1 0x0 PUSH2 0xD41 JUMP JUMPDEST SWAP1 POP SWAP2 SWAP1 POP JUMP JUMPDEST PUSH1 0x0 PUSH2 0xC9F DUP3 PUSH2 0x949 JUMP JUMPDEST SWAP1 POP SWAP2 SWAP1 POP JUMP JUMPDEST PUSH1 0x0 PUSH1 0x1 PUSH1 0x0 DUP5 PUSH20 0xFFFFFFFFFFFFFFFFFFFFFFFFFFFFFFFFFFFFFFFF AND PUSH20 0xFFFFFFFFFFFFFFFFFFFFFFFFFFFFFFFFFFFFFFFF AND DUP2 MSTORE PUSH1 0x20 ADD SWAP1 DUP2 MSTORE PUSH1 0x20 ADD PUSH1 0x0 KECCAK256 PUSH1 0x0 DUP4 PUSH20 0xFFFFFFFFFFFFFFFFFFFFFFFFFFFFFFFFFFFFFFFF AND PUSH20 0xFFFFFFFFFFFFFFFFFFFFFFFFFFFFFFFFFFFFFFFF AND DUP2 MSTORE PUSH1 0x20 ADD SWAP1 DUP2 MSTORE PUSH1 0x20 ADD PUSH1 0x0 KECCAK256 SLOAD SWAP1 POP SWAP3 SWAP2 POP POP JUMP JUMPDEST PUSH1 0x0 PUSH2 0xD3A DUP3 PUSH1 0x0 PUSH2 0x1029 JUMP JUMPDEST SWAP1 POP SWAP2 SWAP1 POP JUMP JUMPDEST PUSH1 0x0 DUP1 PUSH2 0xD4C PUSH2 0x7DF JUMP JUMPDEST SWAP1 POP PUSH1 0x0 DUP2 EQ PUSH2 0xD79 JUMPI PUSH2 0xD74 PUSH2 0xD61 PUSH2 0x652 JUMP JUMPDEST DUP3 DUP6 DUP8 PUSH2 0x1615 SWAP1 SWAP4 SWAP3 SWAP2 SWAP1 PUSH4 0xFFFFFFFF AND JUMP JUMPDEST PUSH2 0xE4D JUMP JUMPDEST PUSH2 0xE4C PUSH32 0x0 PUSH20 0xFFFFFFFFFFFFFFFFFFFFFFFFFFFFFFFFFFFFFFFF AND PUSH4 0x313CE567 PUSH1 0x40 MLOAD DUP2 PUSH4 0xFFFFFFFF AND PUSH1 0xE0 SHL DUP2 MSTORE PUSH1 0x4 ADD PUSH1 0x20 PUSH1 0x40 MLOAD DUP1 DUP4 SUB DUP2 DUP7 DUP1 EXTCODESIZE ISZERO DUP1 ISZERO PUSH2 0xDE2 JUMPI PUSH1 0x0 DUP1 REVERT JUMPDEST POP GAS STATICCALL ISZERO DUP1 ISZERO PUSH2 0xDF6 JUMPI RETURNDATASIZE PUSH1 0x0 DUP1 RETURNDATACOPY RETURNDATASIZE PUSH1 0x0 REVERT JUMPDEST POP POP POP POP PUSH1 0x40 MLOAD RETURNDATASIZE PUSH1 0x1F NOT PUSH1 0x1F DUP3 ADD AND DUP3 ADD DUP1 PUSH1 0x40 MSTORE POP DUP2 ADD SWAP1 PUSH2 0xE1A SWAP2 SWAP1 PUSH2 0x20B7 JUMP JUMPDEST PUSH1 0xA PUSH2 0xE26 SWAP2 SWAP1 PUSH2 0x2806 JUMP JUMPDEST PUSH2 0xE2E PUSH2 0x818 JUMP JUMPDEST PUSH1 0xA PUSH2 0xE3A SWAP2 SWAP1 PUSH2 0x2806 JUMP JUMPDEST DUP6 DUP8 PUSH2 0x1615 SWAP1 SWAP4 SWAP3 SWAP2 SWAP1 PUSH4 0xFFFFFFFF AND JUMP JUMPDEST JUMPDEST SWAP2 POP POP SWAP3 SWAP2 POP POP JUMP JUMPDEST PUSH1 0x0 CALLER SWAP1 POP SWAP1 JUMP JUMPDEST PUSH1 0x0 PUSH20 0xFFFFFFFFFFFFFFFFFFFFFFFFFFFFFFFFFFFFFFFF AND DUP4 PUSH20 0xFFFFFFFFFFFFFFFFFFFFFFFFFFFFFFFFFFFFFFFF AND EQ ISZERO PUSH2 0xECE JUMPI PUSH1 0x40 MLOAD PUSH32 0x8C379A000000000000000000000000000000000000000000000000000000000 DUP2 MSTORE PUSH1 0x4 ADD PUSH2 0xEC5 SWAP1 PUSH2 0x262C JUMP JUMPDEST PUSH1 0x40 MLOAD DUP1 SWAP2 SUB SWAP1 REVERT JUMPDEST PUSH1 0x0 PUSH20 0xFFFFFFFFFFFFFFFFFFFFFFFFFFFFFFFFFFFFFFFF AND DUP3 PUSH20 0xFFFFFFFFFFFFFFFFFFFFFFFFFFFFFFFFFFFFFFFF AND EQ ISZERO PUSH2 0xF3E JUMPI PUSH1 0x40 MLOAD PUSH32 0x8C379A000000000000000000000000000000000000000000000000000000000 DUP2 MSTORE PUSH1 0x4 ADD PUSH2 0xF35 SWAP1 PUSH2 0x24EC JUMP JUMPDEST PUSH1 0x40 MLOAD DUP1 SWAP2 SUB SWAP1 REVERT JUMPDEST DUP1 PUSH1 0x1 PUSH1 0x0 DUP6 PUSH20 0xFFFFFFFFFFFFFFFFFFFFFFFFFFFFFFFFFFFFFFFF AND PUSH20 0xFFFFFFFFFFFFFFFFFFFFFFFFFFFFFFFFFFFFFFFF AND DUP2 MSTORE PUSH1 0x20 ADD SWAP1 DUP2 MSTORE PUSH1 0x20 ADD PUSH1 0x0 KECCAK256 PUSH1 0x0 DUP5 PUSH20 0xFFFFFFFFFFFFFFFFFFFFFFFFFFFFFFFFFFFFFFFF AND PUSH20 0xFFFFFFFFFFFFFFFFFFFFFFFFFFFFFFFFFFFFFFFF AND DUP2 MSTORE PUSH1 0x20 ADD SWAP1 DUP2 MSTORE PUSH1 0x20 ADD PUSH1 0x0 KECCAK256 DUP2 SWAP1 SSTORE POP DUP2 PUSH20 0xFFFFFFFFFFFFFFFFFFFFFFFFFFFFFFFFFFFFFFFF AND DUP4 PUSH20 0xFFFFFFFFFFFFFFFFFFFFFFFFFFFFFFFFFFFFFFFF AND PUSH32 0x8C5BE1E5EBEC7D5BD14F71427D1E84F3DD0314C0F7B2291E5B200AC8C7C3B925 DUP4 PUSH1 0x40 MLOAD PUSH2 0x101C SWAP2 SWAP1 PUSH2 0x26CC JUMP JUMPDEST PUSH1 0x40 MLOAD DUP1 SWAP2 SUB SWAP1 LOG3 POP POP POP JUMP JUMPDEST PUSH1 0x0 DUP1 PUSH2 0x1034 PUSH2 0x7DF JUMP JUMPDEST SWAP1 POP PUSH1 0x0 DUP5 EQ DUP1 PUSH2 0x1045 JUMPI POP PUSH1 0x0 DUP2 EQ JUMPDEST PUSH2 0x106C JUMPI PUSH2 0x1067 DUP2 PUSH2 0x1055 PUSH2 0x652 JUMP JUMPDEST DUP6 DUP8 PUSH2 0x1615 SWAP1 SWAP4 SWAP3 SWAP2 SWAP1 PUSH4 0xFFFFFFFF AND JUMP JUMPDEST PUSH2 0x1140 JUMP JUMPDEST PUSH2 0x113F PUSH2 0x1077 PUSH2 0x818 JUMP JUMPDEST PUSH1 0xA PUSH2 0x1083 SWAP2 SWAP1 PUSH2 0x2806 JUMP JUMPDEST PUSH32 0x0 PUSH20 0xFFFFFFFFFFFFFFFFFFFFFFFFFFFFFFFFFFFFFFFF AND PUSH4 0x313CE567 PUSH1 0x40 MLOAD DUP2 PUSH4 0xFFFFFFFF AND PUSH1 0xE0 SHL DUP2 MSTORE PUSH1 0x4 ADD PUSH1 0x20 PUSH1 0x40 MLOAD DUP1 DUP4 SUB DUP2 DUP7 DUP1 EXTCODESIZE ISZERO DUP1 ISZERO PUSH2 0x10E9 JUMPI PUSH1 0x0 DUP1 REVERT JUMPDEST POP GAS STATICCALL ISZERO DUP1 ISZERO PUSH2 0x10FD JUMPI RETURNDATASIZE PUSH1 0x0 DUP1 RETURNDATACOPY RETURNDATASIZE PUSH1 0x0 REVERT JUMPDEST POP POP POP POP PUSH1 0x40 MLOAD RETURNDATASIZE PUSH1 0x1F NOT PUSH1 0x1F DUP3 ADD AND DUP3 ADD DUP1 PUSH1 0x40 MSTORE POP DUP2 ADD SWAP1 PUSH2 0x1121 SWAP2 SWAP1 PUSH2 0x20B7 JUMP JUMPDEST PUSH1 0xA PUSH2 0x112D SWAP2 SWAP1 PUSH2 0x2806 JUMP JUMPDEST DUP6 DUP8 PUSH2 0x1615 SWAP1 SWAP4 SWAP3 SWAP2 SWAP1 PUSH4 0xFFFFFFFF AND JUMP JUMPDEST JUMPDEST SWAP2 POP POP SWAP3 SWAP2 POP POP JUMP JUMPDEST PUSH1 0x0 PUSH2 0x1155 DUP5 DUP5 PUSH2 0xCA6 JUMP JUMPDEST SWAP1 POP PUSH32 0xFFFFFFFFFFFFFFFFFFFFFFFFFFFFFFFFFFFFFFFFFFFFFFFFFFFFFFFFFFFFFFFF DUP2 EQ PUSH2 0x11CF JUMPI DUP2 DUP2 LT ISZERO PUSH2 0x11C1 JUMPI PUSH1 0x40 MLOAD PUSH32 0x8C379A000000000000000000000000000000000000000000000000000000000 DUP2 MSTORE PUSH1 0x4 ADD PUSH2 0x11B8 SWAP1 PUSH2 0x250C JUMP JUMPDEST PUSH1 0x40 MLOAD DUP1 SWAP2 SUB SWAP1 REVERT JUMPDEST PUSH2 0x11CE DUP5 DUP5 DUP5 DUP5 SUB PUSH2 0xE5E JUMP JUMPDEST JUMPDEST POP POP POP POP JUMP JUMPDEST PUSH1 0x0 PUSH20 0xFFFFFFFFFFFFFFFFFFFFFFFFFFFFFFFFFFFFFFFF AND DUP4 PUSH20 0xFFFFFFFFFFFFFFFFFFFFFFFFFFFFFFFFFFFFFFFF AND EQ ISZERO PUSH2 0x1245 JUMPI PUSH1 0x40 MLOAD PUSH32 0x8C379A000000000000000000000000000000000000000000000000000000000 DUP2 MSTORE PUSH1 0x4 ADD PUSH2 0x123C SWAP1 PUSH2 0x260C JUMP JUMPDEST PUSH1 0x40 MLOAD DUP1 SWAP2 SUB SWAP1 REVERT JUMPDEST PUSH1 0x0 PUSH20 0xFFFFFFFFFFFFFFFFFFFFFFFFFFFFFFFFFFFFFFFF AND DUP3 PUSH20 0xFFFFFFFFFFFFFFFFFFFFFFFFFFFFFFFFFFFFFFFF AND EQ ISZERO PUSH2 0x12B5 JUMPI PUSH1 0x40 MLOAD PUSH32 0x8C379A000000000000000000000000000000000000000000000000000000000 DUP2 MSTORE PUSH1 0x4 ADD PUSH2 0x12AC SWAP1 PUSH2 0x24AC JUMP JUMPDEST PUSH1 0x40 MLOAD DUP1 SWAP2 SUB SWAP1 REVERT JUMPDEST PUSH2 0x12C0 DUP4 DUP4 DUP4 PUSH2 0x168B JUMP JUMPDEST PUSH1 0x0 DUP1 PUSH1 0x0 DUP6 PUSH20 0xFFFFFFFFFFFFFFFFFFFFFFFFFFFFFFFFFFFFFFFF AND PUSH20 0xFFFFFFFFFFFFFFFFFFFFFFFFFFFFFFFFFFFFFFFF AND DUP2 MSTORE PUSH1 0x20 ADD SWAP1 DUP2 MSTORE PUSH1 0x20 ADD PUSH1 0x0 KECCAK256 SLOAD SWAP1 POP DUP2 DUP2 LT ISZERO PUSH2 0x1346 JUMPI PUSH1 0x40 MLOAD PUSH32 0x8C379A000000000000000000000000000000000000000000000000000000000 DUP2 MSTORE PUSH1 0x4 ADD PUSH2 0x133D SWAP1 PUSH2 0x254C JUMP JUMPDEST PUSH1 0x40 MLOAD DUP1 SWAP2 SUB SWAP1 REVERT JUMPDEST DUP2 DUP2 SUB PUSH1 0x0 DUP1 DUP7 PUSH20 0xFFFFFFFFFFFFFFFFFFFFFFFFFFFFFFFFFFFFFFFF AND PUSH20 0xFFFFFFFFFFFFFFFFFFFFFFFFFFFFFFFFFFFFFFFF AND DUP2 MSTORE PUSH1 0x20 ADD SWAP1 DUP2 MSTORE PUSH1 0x20 ADD PUSH1 0x0 KECCAK256 DUP2 SWAP1 SSTORE POP DUP2 PUSH1 0x0 DUP1 DUP6 PUSH20 0xFFFFFFFFFFFFFFFFFFFFFFFFFFFFFFFFFFFFFFFF AND PUSH20 0xFFFFFFFFFFFFFFFFFFFFFFFFFFFFFFFFFFFFFFFF AND DUP2 MSTORE PUSH1 0x20 ADD SWAP1 DUP2 MSTORE PUSH1 0x20 ADD PUSH1 0x0 KECCAK256 PUSH1 0x0 DUP3 DUP3 SLOAD PUSH2 0x13D9 SWAP2 SWAP1 PUSH2 0x275D JUMP JUMPDEST SWAP3 POP POP DUP2 SWAP1 SSTORE POP DUP3 PUSH20 0xFFFFFFFFFFFFFFFFFFFFFFFFFFFFFFFFFFFFFFFF AND DUP5 PUSH20 0xFFFFFFFFFFFFFFFFFFFFFFFFFFFFFFFFFFFFFFFF AND PUSH32 0xDDF252AD1BE2C89B69C2B068FC378DAA952BA7F163C4A11628F55A4DF523B3EF DUP5 PUSH1 0x40 MLOAD PUSH2 0x143D SWAP2 SWAP1 PUSH2 0x26CC JUMP JUMPDEST PUSH1 0x40 MLOAD DUP1 SWAP2 SUB SWAP1 LOG3 PUSH2 0x1450 DUP5 DUP5 DUP5 PUSH2 0x1690 JUMP JUMPDEST POP POP POP POP JUMP JUMPDEST PUSH1 0x0 DUP1 PUSH2 0x1461 PUSH2 0x652 JUMP JUMPDEST GT DUP1 PUSH2 0x1474 JUMPI POP PUSH1 0x0 PUSH2 0x1472 PUSH2 0x7DF JUMP JUMPDEST EQ JUMPDEST SWAP1 POP SWAP1 JUMP JUMPDEST PUSH2 0x14A5 PUSH32 0x0 DUP6 ADDRESS DUP6 PUSH2 0x1695 JUMP JUMPDEST PUSH2 0x14AF DUP4 DUP3 PUSH2 0x171E JUMP JUMPDEST DUP3 PUSH20 0xFFFFFFFFFFFFFFFFFFFFFFFFFFFFFFFFFFFFFFFF AND DUP5 PUSH20 0xFFFFFFFFFFFFFFFFFFFFFFFFFFFFFFFFFFFFFFFF AND PUSH32 0xDCBC1C05240F31FF3AD067EF1EE35CE4997762752E3A095284754544F4C709D7 DUP5 DUP5 PUSH1 0x40 MLOAD PUSH2 0x150E SWAP3 SWAP2 SWAP1 PUSH2 0x26E7 JUMP JUMPDEST PUSH1 0x40 MLOAD DUP1 SWAP2 SUB SWAP1 LOG3 POP POP POP POP JUMP JUMPDEST DUP3 PUSH20 0xFFFFFFFFFFFFFFFFFFFFFFFFFFFFFFFFFFFFFFFF AND DUP6 PUSH20 0xFFFFFFFFFFFFFFFFFFFFFFFFFFFFFFFFFFFFFFFF AND EQ PUSH2 0x155B JUMPI PUSH2 0x155A DUP4 DUP7 DUP4 PUSH2 0x1149 JUMP JUMPDEST JUMPDEST PUSH2 0x1565 DUP4 DUP3 PUSH2 0x187E JUMP JUMPDEST PUSH2 0x1590 PUSH32 0x0 DUP6 DUP5 PUSH2 0x1A55 JUMP JUMPDEST DUP3 PUSH20 0xFFFFFFFFFFFFFFFFFFFFFFFFFFFFFFFFFFFFFFFF AND DUP5 PUSH20 0xFFFFFFFFFFFFFFFFFFFFFFFFFFFFFFFFFFFFFFFF AND DUP7 PUSH20 0xFFFFFFFFFFFFFFFFFFFFFFFFFFFFFFFFFFFFFFFF AND PUSH32 0xFBDE797D201C681B91056529119E0B02407C7BB96A4A2C75C01FC9667232C8DB DUP6 DUP6 PUSH1 0x40 MLOAD PUSH2 0x1606 SWAP3 SWAP2 SWAP1 PUSH2 0x26E7 JUMP JUMPDEST PUSH1 0x40 MLOAD DUP1 SWAP2 SUB SWAP1 LOG4 POP POP POP POP POP JUMP JUMPDEST PUSH1 0x0 DUP1 PUSH2 0x1623 DUP7 DUP7 DUP7 PUSH2 0x1ADB JUMP JUMPDEST SWAP1 POP PUSH1 0x1 PUSH1 0x2 DUP2 GT ISZERO PUSH2 0x1639 JUMPI PUSH2 0x1638 PUSH2 0x2A70 JUMP JUMPDEST JUMPDEST DUP4 PUSH1 0x2 DUP2 GT ISZERO PUSH2 0x164C JUMPI PUSH2 0x164B PUSH2 0x2A70 JUMP JUMPDEST JUMPDEST EQ DUP1 ISZERO PUSH2 0x166A JUMPI POP PUSH1 0x0 DUP5 DUP1 PUSH2 0x1665 JUMPI PUSH2 0x1664 PUSH2 0x2A41 JUMP JUMPDEST JUMPDEST DUP7 DUP9 MULMOD GT JUMPDEST ISZERO PUSH2 0x167F JUMPI PUSH1 0x1 DUP2 PUSH2 0x167C SWAP2 SWAP1 PUSH2 0x275D JUMP JUMPDEST SWAP1 POP JUMPDEST DUP1 SWAP2 POP POP SWAP5 SWAP4 POP POP POP POP JUMP JUMPDEST POP POP POP JUMP JUMPDEST POP POP POP JUMP JUMPDEST PUSH2 0x1718 DUP5 PUSH4 0x23B872DD PUSH1 0xE0 SHL DUP6 DUP6 DUP6 PUSH1 0x40 MLOAD PUSH1 0x24 ADD PUSH2 0x16B6 SWAP4 SWAP3 SWAP2 SWAP1 PUSH2 0x240F JUMP JUMPDEST PUSH1 0x40 MLOAD PUSH1 0x20 DUP2 DUP4 SUB SUB DUP2 MSTORE SWAP1 PUSH1 0x40 MSTORE SWAP1 PUSH28 0xFFFFFFFFFFFFFFFFFFFFFFFFFFFFFFFFFFFFFFFFFFFFFFFFFFFFFFFF NOT AND PUSH1 0x20 DUP3 ADD DUP1 MLOAD PUSH28 0xFFFFFFFFFFFFFFFFFFFFFFFFFFFFFFFFFFFFFFFFFFFFFFFFFFFFFFFF DUP4 DUP2 DUP4 AND OR DUP4 MSTORE POP POP POP POP PUSH2 0x1BB7 JUMP JUMPDEST POP POP POP POP JUMP JUMPDEST PUSH1 0x0 PUSH20 0xFFFFFFFFFFFFFFFFFFFFFFFFFFFFFFFFFFFFFFFF AND DUP3 PUSH20 0xFFFFFFFFFFFFFFFFFFFFFFFFFFFFFFFFFFFFFFFF AND EQ ISZERO PUSH2 0x178E JUMPI PUSH1 0x40 MLOAD PUSH32 0x8C379A000000000000000000000000000000000000000000000000000000000 DUP2 MSTORE PUSH1 0x4 ADD PUSH2 0x1785 SWAP1 PUSH2 0x26AC JUMP JUMPDEST PUSH1 0x40 MLOAD DUP1 SWAP2 SUB SWAP1 REVERT JUMPDEST PUSH2 0x179A PUSH1 0x0 DUP4 DUP4 PUSH2 0x168B JUMP JUMPDEST DUP1 PUSH1 0x2 PUSH1 0x0 DUP3 DUP3 SLOAD PUSH2 0x17AC SWAP2 SWAP1 PUSH2 0x275D JUMP JUMPDEST SWAP3 POP POP DUP2 SWAP1 SSTORE POP DUP1 PUSH1 0x0 DUP1 DUP5 PUSH20 0xFFFFFFFFFFFFFFFFFFFFFFFFFFFFFFFFFFFFFFFF AND PUSH20 0xFFFFFFFFFFFFFFFFFFFFFFFFFFFFFFFFFFFFFFFF AND DUP2 MSTORE PUSH1 0x20 ADD SWAP1 DUP2 MSTORE PUSH1 0x20 ADD PUSH1 0x0 KECCAK256 PUSH1 0x0 DUP3 DUP3 SLOAD PUSH2 0x1801 SWAP2 SWAP1 PUSH2 0x275D JUMP JUMPDEST SWAP3 POP POP DUP2 SWAP1 SSTORE POP DUP2 PUSH20 0xFFFFFFFFFFFFFFFFFFFFFFFFFFFFFFFFFFFFFFFF AND PUSH1 0x0 PUSH20 0xFFFFFFFFFFFFFFFFFFFFFFFFFFFFFFFFFFFFFFFF AND PUSH32 0xDDF252AD1BE2C89B69C2B068FC378DAA952BA7F163C4A11628F55A4DF523B3EF DUP4 PUSH1 0x40 MLOAD PUSH2 0x1866 SWAP2 SWAP1 PUSH2 0x26CC JUMP JUMPDEST PUSH1 0x40 MLOAD DUP1 SWAP2 SUB SWAP1 LOG3 PUSH2 0x187A PUSH1 0x0 DUP4 DUP4 PUSH2 0x1690 JUMP JUMPDEST POP POP JUMP JUMPDEST PUSH1 0x0 PUSH20 0xFFFFFFFFFFFFFFFFFFFFFFFFFFFFFFFFFFFFFFFF AND DUP3 PUSH20 0xFFFFFFFFFFFFFFFFFFFFFFFFFFFFFFFFFFFFFFFF AND EQ ISZERO PUSH2 0x18EE JUMPI PUSH1 0x40 MLOAD PUSH32 0x8C379A000000000000000000000000000000000000000000000000000000000 DUP2 MSTORE PUSH1 0x4 ADD PUSH2 0x18E5 SWAP1 PUSH2 0x25EC JUMP JUMPDEST PUSH1 0x40 MLOAD DUP1 SWAP2 SUB SWAP1 REVERT JUMPDEST PUSH2 0x18FA DUP3 PUSH1 0x0 DUP4 PUSH2 0x168B JUMP JUMPDEST PUSH1 0x0 DUP1 PUSH1 0x0 DUP5 PUSH20 0xFFFFFFFFFFFFFFFFFFFFFFFFFFFFFFFFFFFFFFFF AND PUSH20 0xFFFFFFFFFFFFFFFFFFFFFFFFFFFFFFFFFFFFFFFF AND DUP2 MSTORE PUSH1 0x20 ADD SWAP1 DUP2 MSTORE PUSH1 0x20 ADD PUSH1 0x0 KECCAK256 SLOAD SWAP1 POP DUP2 DUP2 LT ISZERO PUSH2 0x1980 JUMPI PUSH1 0x40 MLOAD PUSH32 0x8C379A000000000000000000000000000000000000000000000000000000000 DUP2 MSTORE PUSH1 0x4 ADD PUSH2 0x1977 SWAP1 PUSH2 0x24CC JUMP JUMPDEST PUSH1 0x40 MLOAD DUP1 SWAP2 SUB SWAP1 REVERT JUMPDEST DUP2 DUP2 SUB PUSH1 0x0 DUP1 DUP6 PUSH20 0xFFFFFFFFFFFFFFFFFFFFFFFFFFFFFFFFFFFFFFFF AND PUSH20 0xFFFFFFFFFFFFFFFFFFFFFFFFFFFFFFFFFFFFFFFF AND DUP2 MSTORE PUSH1 0x20 ADD SWAP1 DUP2 MSTORE PUSH1 0x20 ADD PUSH1 0x0 KECCAK256 DUP2 SWAP1 SSTORE POP DUP2 PUSH1 0x2 PUSH1 0x0 DUP3 DUP3 SLOAD PUSH2 0x19D7 SWAP2 SWAP1 PUSH2 0x2924 JUMP JUMPDEST SWAP3 POP POP DUP2 SWAP1 SSTORE POP PUSH1 0x0 PUSH20 0xFFFFFFFFFFFFFFFFFFFFFFFFFFFFFFFFFFFFFFFF AND DUP4 PUSH20 0xFFFFFFFFFFFFFFFFFFFFFFFFFFFFFFFFFFFFFFFF AND PUSH32 0xDDF252AD1BE2C89B69C2B068FC378DAA952BA7F163C4A11628F55A4DF523B3EF DUP5 PUSH1 0x40 MLOAD PUSH2 0x1A3C SWAP2 SWAP1 PUSH2 0x26CC JUMP JUMPDEST PUSH1 0x40 MLOAD DUP1 SWAP2 SUB SWAP1 LOG3 PUSH2 0x1A50 DUP4 PUSH1 0x0 DUP5 PUSH2 0x1690 JUMP JUMPDEST POP POP POP JUMP JUMPDEST PUSH2 0x1AD6 DUP4 PUSH4 0xA9059CBB PUSH1 0xE0 SHL DUP5 DUP5 PUSH1 0x40 MLOAD PUSH1 0x24 ADD PUSH2 0x1A74 SWAP3 SWAP2 SWAP1 PUSH2 0x2446 JUMP JUMPDEST PUSH1 0x40 MLOAD PUSH1 0x20 DUP2 DUP4 SUB SUB DUP2 MSTORE SWAP1 PUSH1 0x40 MSTORE SWAP1 PUSH28 0xFFFFFFFFFFFFFFFFFFFFFFFFFFFFFFFFFFFFFFFFFFFFFFFFFFFFFFFF NOT AND PUSH1 0x20 DUP3 ADD DUP1 MLOAD PUSH28 0xFFFFFFFFFFFFFFFFFFFFFFFFFFFFFFFFFFFFFFFFFFFFFFFFFFFFFFFF DUP4 DUP2 DUP4 AND OR DUP4 MSTORE POP POP POP POP PUSH2 0x1BB7 JUMP JUMPDEST POP POP POP JUMP JUMPDEST PUSH1 0x0 DUP1 PUSH1 0x0 DUP1 NOT DUP6 DUP8 MULMOD DUP6 DUP8 MUL SWAP3 POP DUP3 DUP2 LT DUP4 DUP3 SUB SUB SWAP2 POP POP PUSH1 0x0 DUP2 EQ ISZERO PUSH2 0x1B17 JUMPI DUP4 DUP3 DUP2 PUSH2 0x1B0D JUMPI PUSH2 0x1B0C PUSH2 0x2A41 JUMP JUMPDEST JUMPDEST DIV SWAP3 POP POP POP PUSH2 0x1BB0 JUMP JUMPDEST DUP1 DUP5 GT PUSH2 0x1B23 JUMPI PUSH1 0x0 DUP1 REVERT JUMPDEST PUSH1 0x0 DUP5 DUP7 DUP9 MULMOD SWAP1 POP DUP3 DUP2 GT DUP3 SUB SWAP2 POP DUP1 DUP4 SUB SWAP3 POP PUSH1 0x0 PUSH1 0x1 DUP7 NOT ADD DUP7 AND SWAP1 POP DUP1 DUP7 DIV SWAP6 POP DUP1 DUP5 DIV SWAP4 POP PUSH1 0x1 DUP2 DUP3 PUSH1 0x0 SUB DIV ADD SWAP1 POP DUP1 DUP4 MUL DUP5 OR SWAP4 POP PUSH1 0x0 PUSH1 0x2 DUP8 PUSH1 0x3 MUL XOR SWAP1 POP DUP1 DUP8 MUL PUSH1 0x2 SUB DUP2 MUL SWAP1 POP DUP1 DUP8 MUL PUSH1 0x2 SUB DUP2 MUL SWAP1 POP DUP1 DUP8 MUL PUSH1 0x2 SUB DUP2 MUL SWAP1 POP DUP1 DUP8 MUL PUSH1 0x2 SUB DUP2 MUL SWAP1 POP DUP1 DUP8 MUL PUSH1 0x2 SUB DUP2 MUL SWAP1 POP DUP1 DUP8 MUL PUSH1 0x2 SUB DUP2 MUL SWAP1 POP DUP1 DUP6 MUL SWAP6 POP POP POP POP POP POP JUMPDEST SWAP4 SWAP3 POP POP POP JUMP JUMPDEST PUSH1 0x0 PUSH2 0x1C19 DUP3 PUSH1 0x40 MLOAD DUP1 PUSH1 0x40 ADD PUSH1 0x40 MSTORE DUP1 PUSH1 0x20 DUP2 MSTORE PUSH1 0x20 ADD PUSH32 0x5361666545524332303A206C6F772D6C6576656C2063616C6C206661696C6564 DUP2 MSTORE POP DUP6 PUSH20 0xFFFFFFFFFFFFFFFFFFFFFFFFFFFFFFFFFFFFFFFF AND PUSH2 0x1C7E SWAP1 SWAP3 SWAP2 SWAP1 PUSH4 0xFFFFFFFF AND JUMP JUMPDEST SWAP1 POP PUSH1 0x0 DUP2 MLOAD GT ISZERO PUSH2 0x1C79 JUMPI DUP1 DUP1 PUSH1 0x20 ADD SWAP1 MLOAD DUP2 ADD SWAP1 PUSH2 0x1C39 SWAP2 SWAP1 PUSH2 0x1F9D JUMP JUMPDEST PUSH2 0x1C78 JUMPI PUSH1 0x40 MLOAD PUSH32 0x8C379A000000000000000000000000000000000000000000000000000000000 DUP2 MSTORE PUSH1 0x4 ADD PUSH2 0x1C6F SWAP1 PUSH2 0x266C JUMP JUMPDEST PUSH1 0x40 MLOAD DUP1 SWAP2 SUB SWAP1 REVERT JUMPDEST JUMPDEST POP POP POP JUMP JUMPDEST PUSH1 0x60 PUSH2 0x1C8D DUP5 DUP5 PUSH1 0x0 DUP6 PUSH2 0x1C96 JUMP JUMPDEST SWAP1 POP SWAP4 SWAP3 POP POP POP JUMP JUMPDEST PUSH1 0x60 DUP3 SELFBALANCE LT ISZERO PUSH2 0x1CDB JUMPI PUSH1 0x40 MLOAD PUSH32 0x8C379A000000000000000000000000000000000000000000000000000000000 DUP2 MSTORE PUSH1 0x4 ADD PUSH2 0x1CD2 SWAP1 PUSH2 0x256C JUMP JUMPDEST PUSH1 0x40 MLOAD DUP1 SWAP2 SUB SWAP1 REVERT JUMPDEST PUSH2 0x1CE4 DUP6 PUSH2 0x1DAA JUMP JUMPDEST PUSH2 0x1D23 JUMPI PUSH1 0x40 MLOAD PUSH32 0x8C379A000000000000000000000000000000000000000000000000000000000 DUP2 MSTORE PUSH1 0x4 ADD PUSH2 0x1D1A SWAP1 PUSH2 0x264C JUMP JUMPDEST PUSH1 0x40 MLOAD DUP1 SWAP2 SUB SWAP1 REVERT JUMPDEST PUSH1 0x0 DUP1 DUP7 PUSH20 0xFFFFFFFFFFFFFFFFFFFFFFFFFFFFFFFFFFFFFFFF AND DUP6 DUP8 PUSH1 0x40 MLOAD PUSH2 0x1D4C SWAP2 SWAP1 PUSH2 0x23DD JUMP JUMPDEST PUSH1 0x0 PUSH1 0x40 MLOAD DUP1 DUP4 SUB DUP2 DUP6 DUP8 GAS CALL SWAP3 POP POP POP RETURNDATASIZE DUP1 PUSH1 0x0 DUP2 EQ PUSH2 0x1D89 JUMPI PUSH1 0x40 MLOAD SWAP2 POP PUSH1 0x1F NOT PUSH1 0x3F RETURNDATASIZE ADD AND DUP3 ADD PUSH1 0x40 MSTORE RETURNDATASIZE DUP3 MSTORE RETURNDATASIZE PUSH1 0x0 PUSH1 0x20 DUP5 ADD RETURNDATACOPY PUSH2 0x1D8E JUMP JUMPDEST PUSH1 0x60 SWAP2 POP JUMPDEST POP SWAP2 POP SWAP2 POP PUSH2 0x1D9E DUP3 DUP3 DUP7 PUSH2 0x1DCD JUMP JUMPDEST SWAP3 POP POP POP SWAP5 SWAP4 POP POP POP POP JUMP JUMPDEST PUSH1 0x0 DUP1 DUP3 PUSH20 0xFFFFFFFFFFFFFFFFFFFFFFFFFFFFFFFFFFFFFFFF AND EXTCODESIZE GT SWAP1 POP SWAP2 SWAP1 POP JUMP JUMPDEST PUSH1 0x60 DUP4 ISZERO PUSH2 0x1DDD JUMPI DUP3 SWAP1 POP PUSH2 0x1E2D JUMP JUMPDEST PUSH1 0x0 DUP4 MLOAD GT ISZERO PUSH2 0x1DF0 JUMPI DUP3 MLOAD DUP1 DUP5 PUSH1 0x20 ADD REVERT JUMPDEST DUP2 PUSH1 0x40 MLOAD PUSH32 0x8C379A000000000000000000000000000000000000000000000000000000000 DUP2 MSTORE PUSH1 0x4 ADD PUSH2 0x1E24 SWAP2 SWAP1 PUSH2 0x248A JUMP JUMPDEST PUSH1 0x40 MLOAD DUP1 SWAP2 SUB SWAP1 REVERT JUMPDEST SWAP4 SWAP3 POP POP POP JUMP JUMPDEST PUSH1 0x0 DUP2 CALLDATALOAD SWAP1 POP PUSH2 0x1E43 DUP2 PUSH2 0x2F26 JUMP JUMPDEST SWAP3 SWAP2 POP POP JUMP JUMPDEST PUSH1 0x0 DUP2 MLOAD SWAP1 POP PUSH2 0x1E58 DUP2 PUSH2 0x2F3D JUMP JUMPDEST SWAP3 SWAP2 POP POP JUMP JUMPDEST PUSH1 0x0 DUP2 CALLDATALOAD SWAP1 POP PUSH2 0x1E6D DUP2 PUSH2 0x2F54 JUMP JUMPDEST SWAP3 SWAP2 POP POP JUMP JUMPDEST PUSH1 0x0 DUP2 MLOAD SWAP1 POP PUSH2 0x1E82 DUP2 PUSH2 0x2F54 JUMP JUMPDEST SWAP3 SWAP2 POP POP JUMP JUMPDEST PUSH1 0x0 DUP2 MLOAD SWAP1 POP PUSH2 0x1E97 DUP2 PUSH2 0x2F6B JUMP JUMPDEST SWAP3 SWAP2 POP POP JUMP JUMPDEST PUSH1 0x0 PUSH1 0x20 DUP3 DUP5 SUB SLT ISZERO PUSH2 0x1EB3 JUMPI PUSH2 0x1EB2 PUSH2 0x2ACE JUMP JUMPDEST JUMPDEST PUSH1 0x0 PUSH2 0x1EC1 DUP5 DUP3 DUP6 ADD PUSH2 0x1E34 JUMP JUMPDEST SWAP2 POP POP SWAP3 SWAP2 POP POP JUMP JUMPDEST PUSH1 0x0 DUP1 PUSH1 0x40 DUP4 DUP6 SUB SLT ISZERO PUSH2 0x1EE1 JUMPI PUSH2 0x1EE0 PUSH2 0x2ACE JUMP JUMPDEST JUMPDEST PUSH1 0x0 PUSH2 0x1EEF DUP6 DUP3 DUP7 ADD PUSH2 0x1E34 JUMP JUMPDEST SWAP3 POP POP PUSH1 0x20 PUSH2 0x1F00 DUP6 DUP3 DUP7 ADD PUSH2 0x1E34 JUMP JUMPDEST SWAP2 POP POP SWAP3 POP SWAP3 SWAP1 POP JUMP JUMPDEST PUSH1 0x0 DUP1 PUSH1 0x0 PUSH1 0x60 DUP5 DUP7 SUB SLT ISZERO PUSH2 0x1F23 JUMPI PUSH2 0x1F22 PUSH2 0x2ACE JUMP JUMPDEST JUMPDEST PUSH1 0x0 PUSH2 0x1F31 DUP7 DUP3 DUP8 ADD PUSH2 0x1E34 JUMP JUMPDEST SWAP4 POP POP PUSH1 0x20 PUSH2 0x1F42 DUP7 DUP3 DUP8 ADD PUSH2 0x1E34 JUMP JUMPDEST SWAP3 POP POP PUSH1 0x40 PUSH2 0x1F53 DUP7 DUP3 DUP8 ADD PUSH2 0x1E5E JUMP JUMPDEST SWAP2 POP POP SWAP3 POP SWAP3 POP SWAP3 JUMP JUMPDEST PUSH1 0x0 DUP1 PUSH1 0x40 DUP4 DUP6 SUB SLT ISZERO PUSH2 0x1F74 JUMPI PUSH2 0x1F73 PUSH2 0x2ACE JUMP JUMPDEST JUMPDEST PUSH1 0x0 PUSH2 0x1F82 DUP6 DUP3 DUP7 ADD PUSH2 0x1E34 JUMP JUMPDEST SWAP3 POP POP PUSH1 0x20 PUSH2 0x1F93 DUP6 DUP3 DUP7 ADD PUSH2 0x1E5E JUMP JUMPDEST SWAP2 POP POP SWAP3 POP SWAP3 SWAP1 POP JUMP JUMPDEST PUSH1 0x0 PUSH1 0x20 DUP3 DUP5 SUB SLT ISZERO PUSH2 0x1FB3 JUMPI PUSH2 0x1FB2 PUSH2 0x2ACE JUMP JUMPDEST JUMPDEST PUSH1 0x0 PUSH2 0x1FC1 DUP5 DUP3 DUP6 ADD PUSH2 0x1E49 JUMP JUMPDEST SWAP2 POP POP SWAP3 SWAP2 POP POP JUMP JUMPDEST PUSH1 0x0 PUSH1 0x20 DUP3 DUP5 SUB SLT ISZERO PUSH2 0x1FE0 JUMPI PUSH2 0x1FDF PUSH2 0x2ACE JUMP JUMPDEST JUMPDEST PUSH1 0x0 PUSH2 0x1FEE DUP5 DUP3 DUP6 ADD PUSH2 0x1E5E JUMP JUMPDEST SWAP2 POP POP SWAP3 SWAP2 POP POP JUMP JUMPDEST PUSH1 0x0 PUSH1 0x20 DUP3 DUP5 SUB SLT ISZERO PUSH2 0x200D JUMPI PUSH2 0x200C PUSH2 0x2ACE JUMP JUMPDEST JUMPDEST PUSH1 0x0 PUSH2 0x201B DUP5 DUP3 DUP6 ADD PUSH2 0x1E73 JUMP JUMPDEST SWAP2 POP POP SWAP3 SWAP2 POP POP JUMP JUMPDEST PUSH1 0x0 DUP1 PUSH1 0x40 DUP4 DUP6 SUB SLT ISZERO PUSH2 0x203B JUMPI PUSH2 0x203A PUSH2 0x2ACE JUMP JUMPDEST JUMPDEST PUSH1 0x0 PUSH2 0x2049 DUP6 DUP3 DUP7 ADD PUSH2 0x1E5E JUMP JUMPDEST SWAP3 POP POP PUSH1 0x20 PUSH2 0x205A DUP6 DUP3 DUP7 ADD PUSH2 0x1E34 JUMP JUMPDEST SWAP2 POP POP SWAP3 POP SWAP3 SWAP1 POP JUMP JUMPDEST PUSH1 0x0 DUP1 PUSH1 0x0 PUSH1 0x60 DUP5 DUP7 SUB SLT ISZERO PUSH2 0x207D JUMPI PUSH2 0x207C PUSH2 0x2ACE JUMP JUMPDEST JUMPDEST PUSH1 0x0 PUSH2 0x208B DUP7 DUP3 DUP8 ADD PUSH2 0x1E5E JUMP JUMPDEST SWAP4 POP POP PUSH1 0x20 PUSH2 0x209C DUP7 DUP3 DUP8 ADD PUSH2 0x1E34 JUMP JUMPDEST SWAP3 POP POP PUSH1 0x40 PUSH2 0x20AD DUP7 DUP3 DUP8 ADD PUSH2 0x1E34 JUMP JUMPDEST SWAP2 POP POP SWAP3 POP SWAP3 POP SWAP3 JUMP JUMPDEST PUSH1 0x0 PUSH1 0x20 DUP3 DUP5 SUB SLT ISZERO PUSH2 0x20CD JUMPI PUSH2 0x20CC PUSH2 0x2ACE JUMP JUMPDEST JUMPDEST PUSH1 0x0 PUSH2 0x20DB DUP5 DUP3 DUP6 ADD PUSH2 0x1E88 JUMP JUMPDEST SWAP2 POP POP SWAP3 SWAP2 POP POP JUMP JUMPDEST PUSH2 0x20ED DUP2 PUSH2 0x2958 JUMP JUMPDEST DUP3 MSTORE POP POP JUMP JUMPDEST PUSH2 0x20FC DUP2 PUSH2 0x296A JUMP JUMPDEST DUP3 MSTORE POP POP JUMP JUMPDEST PUSH1 0x0 PUSH2 0x210D DUP3 PUSH2 0x272B JUMP JUMPDEST PUSH2 0x2117 DUP2 DUP6 PUSH2 0x2741 JUMP JUMPDEST SWAP4 POP PUSH2 0x2127 DUP2 DUP6 PUSH1 0x20 DUP7 ADD PUSH2 0x29AD JUMP JUMPDEST DUP1 DUP5 ADD SWAP2 POP POP SWAP3 SWAP2 POP POP JUMP JUMPDEST PUSH1 0x0 PUSH2 0x213E DUP3 PUSH2 0x2736 JUMP JUMPDEST PUSH2 0x2148 DUP2 DUP6 PUSH2 0x274C JUMP JUMPDEST SWAP4 POP PUSH2 0x2158 DUP2 DUP6 PUSH1 0x20 DUP7 ADD PUSH2 0x29AD JUMP JUMPDEST PUSH2 0x2161 DUP2 PUSH2 0x2AD3 JUMP JUMPDEST DUP5 ADD SWAP2 POP POP SWAP3 SWAP2 POP POP JUMP JUMPDEST PUSH1 0x0 PUSH2 0x2179 PUSH1 0x23 DUP4 PUSH2 0x274C JUMP JUMPDEST SWAP2 POP PUSH2 0x2184 DUP3 PUSH2 0x2AF1 JUMP JUMPDEST PUSH1 0x40 DUP3 ADD SWAP1 POP SWAP2 SWAP1 POP JUMP JUMPDEST PUSH1 0x0 PUSH2 0x219C PUSH1 0x22 DUP4 PUSH2 0x274C JUMP JUMPDEST SWAP2 POP PUSH2 0x21A7 DUP3 PUSH2 0x2B40 JUMP JUMPDEST PUSH1 0x40 DUP3 ADD SWAP1 POP SWAP2 SWAP1 POP JUMP JUMPDEST PUSH1 0x0 PUSH2 0x21BF PUSH1 0x22 DUP4 PUSH2 0x274C JUMP JUMPDEST SWAP2 POP PUSH2 0x21CA DUP3 PUSH2 0x2B8F JUMP JUMPDEST PUSH1 0x40 DUP3 ADD SWAP1 POP SWAP2 SWAP1 POP JUMP JUMPDEST PUSH1 0x0 PUSH2 0x21E2 PUSH1 0x1D DUP4 PUSH2 0x274C JUMP JUMPDEST SWAP2 POP PUSH2 0x21ED DUP3 PUSH2 0x2BDE JUMP JUMPDEST PUSH1 0x20 DUP3 ADD SWAP1 POP SWAP2 SWAP1 POP JUMP JUMPDEST PUSH1 0x0 PUSH2 0x2205 PUSH1 0x1D DUP4 PUSH2 0x274C JUMP JUMPDEST SWAP2 POP PUSH2 0x2210 DUP3 PUSH2 0x2C07 JUMP JUMPDEST PUSH1 0x20 DUP3 ADD SWAP1 POP SWAP2 SWAP1 POP JUMP JUMPDEST PUSH1 0x0 PUSH2 0x2228 PUSH1 0x26 DUP4 PUSH2 0x274C JUMP JUMPDEST SWAP2 POP PUSH2 0x2233 DUP3 PUSH2 0x2C30 JUMP JUMPDEST PUSH1 0x40 DUP3 ADD SWAP1 POP SWAP2 SWAP1 POP JUMP JUMPDEST PUSH1 0x0 PUSH2 0x224B PUSH1 0x26 DUP4 PUSH2 0x274C JUMP JUMPDEST SWAP2 POP PUSH2 0x2256 DUP3 PUSH2 0x2C7F JUMP JUMPDEST PUSH1 0x40 DUP3 ADD SWAP1 POP SWAP2 SWAP1 POP JUMP JUMPDEST PUSH1 0x0 PUSH2 0x226E PUSH1 0x1F DUP4 PUSH2 0x274C JUMP JUMPDEST SWAP2 POP PUSH2 0x2279 DUP3 PUSH2 0x2CCE JUMP JUMPDEST PUSH1 0x20 DUP3 ADD SWAP1 POP SWAP2 SWAP1 POP JUMP JUMPDEST PUSH1 0x0 PUSH2 0x2291 PUSH1 0x1E DUP4 PUSH2 0x274C JUMP JUMPDEST SWAP2 POP PUSH2 0x229C DUP3 PUSH2 0x2CF7 JUMP JUMPDEST PUSH1 0x20 DUP3 ADD SWAP1 POP SWAP2 SWAP1 POP JUMP JUMPDEST PUSH1 0x0 PUSH2 0x22B4 PUSH1 0x1B DUP4 PUSH2 0x274C JUMP JUMPDEST SWAP2 POP PUSH2 0x22BF DUP3 PUSH2 0x2D20 JUMP JUMPDEST PUSH1 0x20 DUP3 ADD SWAP1 POP SWAP2 SWAP1 POP JUMP JUMPDEST PUSH1 0x0 PUSH2 0x22D7 PUSH1 0x21 DUP4 PUSH2 0x274C JUMP JUMPDEST SWAP2 POP PUSH2 0x22E2 DUP3 PUSH2 0x2D49 JUMP JUMPDEST PUSH1 0x40 DUP3 ADD SWAP1 POP SWAP2 SWAP1 POP JUMP JUMPDEST PUSH1 0x0 PUSH2 0x22FA PUSH1 0x25 DUP4 PUSH2 0x274C JUMP JUMPDEST SWAP2 POP PUSH2 0x2305 DUP3 PUSH2 0x2D98 JUMP JUMPDEST PUSH1 0x40 DUP3 ADD SWAP1 POP SWAP2 SWAP1 POP JUMP JUMPDEST PUSH1 0x0 PUSH2 0x231D PUSH1 0x24 DUP4 PUSH2 0x274C JUMP JUMPDEST SWAP2 POP PUSH2 0x2328 DUP3 PUSH2 0x2DE7 JUMP JUMPDEST PUSH1 0x40 DUP3 ADD SWAP1 POP SWAP2 SWAP1 POP JUMP JUMPDEST PUSH1 0x0 PUSH2 0x2340 PUSH1 0x1D DUP4 PUSH2 0x274C JUMP JUMPDEST SWAP2 POP PUSH2 0x234B DUP3 PUSH2 0x2E36 JUMP JUMPDEST PUSH1 0x20 DUP3 ADD SWAP1 POP SWAP2 SWAP1 POP JUMP JUMPDEST PUSH1 0x0 PUSH2 0x2363 PUSH1 0x2A DUP4 PUSH2 0x274C JUMP JUMPDEST SWAP2 POP PUSH2 0x236E DUP3 PUSH2 0x2E5F JUMP JUMPDEST PUSH1 0x40 DUP3 ADD SWAP1 POP SWAP2 SWAP1 POP JUMP JUMPDEST PUSH1 0x0 PUSH2 0x2386 PUSH1 0x25 DUP4 PUSH2 0x274C JUMP JUMPDEST SWAP2 POP PUSH2 0x2391 DUP3 PUSH2 0x2EAE JUMP JUMPDEST PUSH1 0x40 DUP3 ADD SWAP1 POP SWAP2 SWAP1 POP JUMP JUMPDEST PUSH1 0x0 PUSH2 0x23A9 PUSH1 0x1F DUP4 PUSH2 0x274C JUMP JUMPDEST SWAP2 POP PUSH2 0x23B4 DUP3 PUSH2 0x2EFD JUMP JUMPDEST PUSH1 0x20 DUP3 ADD SWAP1 POP SWAP2 SWAP1 POP JUMP JUMPDEST PUSH2 0x23C8 DUP2 PUSH2 0x2996 JUMP JUMPDEST DUP3 MSTORE POP POP JUMP JUMPDEST PUSH2 0x23D7 DUP2 PUSH2 0x29A0 JUMP JUMPDEST DUP3 MSTORE POP POP JUMP JUMPDEST PUSH1 0x0 PUSH2 0x23E9 DUP3 DUP5 PUSH2 0x2102 JUMP JUMPDEST SWAP2 POP DUP2 SWAP1 POP SWAP3 SWAP2 POP POP JUMP JUMPDEST PUSH1 0x0 PUSH1 0x20 DUP3 ADD SWAP1 POP PUSH2 0x2409 PUSH1 0x0 DUP4 ADD DUP5 PUSH2 0x20E4 JUMP JUMPDEST SWAP3 SWAP2 POP POP JUMP JUMPDEST PUSH1 0x0 PUSH1 0x60 DUP3 ADD SWAP1 POP PUSH2 0x2424 PUSH1 0x0 DUP4 ADD DUP7 PUSH2 0x20E4 JUMP JUMPDEST PUSH2 0x2431 PUSH1 0x20 DUP4 ADD DUP6 PUSH2 0x20E4 JUMP JUMPDEST PUSH2 0x243E PUSH1 0x40 DUP4 ADD DUP5 PUSH2 0x23BF JUMP JUMPDEST SWAP5 SWAP4 POP POP POP POP JUMP JUMPDEST PUSH1 0x0 PUSH1 0x40 DUP3 ADD SWAP1 POP PUSH2 0x245B PUSH1 0x0 DUP4 ADD DUP6 PUSH2 0x20E4 JUMP JUMPDEST PUSH2 0x2468 PUSH1 0x20 DUP4 ADD DUP5 PUSH2 0x23BF JUMP JUMPDEST SWAP4 SWAP3 POP POP POP JUMP JUMPDEST PUSH1 0x0 PUSH1 0x20 DUP3 ADD SWAP1 POP PUSH2 0x2484 PUSH1 0x0 DUP4 ADD DUP5 PUSH2 0x20F3 JUMP JUMPDEST SWAP3 SWAP2 POP POP JUMP JUMPDEST PUSH1 0x0 PUSH1 0x20 DUP3 ADD SWAP1 POP DUP2 DUP2 SUB PUSH1 0x0 DUP4 ADD MSTORE PUSH2 0x24A4 DUP2 DUP5 PUSH2 0x2133 JUMP JUMPDEST SWAP1 POP SWAP3 SWAP2 POP POP JUMP JUMPDEST PUSH1 0x0 PUSH1 0x20 DUP3 ADD SWAP1 POP DUP2 DUP2 SUB PUSH1 0x0 DUP4 ADD MSTORE PUSH2 0x24C5 DUP2 PUSH2 0x216C JUMP JUMPDEST SWAP1 POP SWAP2 SWAP1 POP JUMP JUMPDEST PUSH1 0x0 PUSH1 0x20 DUP3 ADD SWAP1 POP DUP2 DUP2 SUB PUSH1 0x0 DUP4 ADD MSTORE PUSH2 0x24E5 DUP2 PUSH2 0x218F JUMP JUMPDEST SWAP1 POP SWAP2 SWAP1 POP JUMP JUMPDEST PUSH1 0x0 PUSH1 0x20 DUP3 ADD SWAP1 POP DUP2 DUP2 SUB PUSH1 0x0 DUP4 ADD MSTORE PUSH2 0x2505 DUP2 PUSH2 0x21B2 JUMP JUMPDEST SWAP1 POP SWAP2 SWAP1 POP JUMP JUMPDEST PUSH1 0x0 PUSH1 0x20 DUP3 ADD SWAP1 POP DUP2 DUP2 SUB PUSH1 0x0 DUP4 ADD MSTORE PUSH2 0x2525 DUP2 PUSH2 0x21D5 JUMP JUMPDEST SWAP1 POP SWAP2 SWAP1 POP JUMP JUMPDEST PUSH1 0x0 PUSH1 0x20 DUP3 ADD SWAP1 POP DUP2 DUP2 SUB PUSH1 0x0 DUP4 ADD MSTORE PUSH2 0x2545 DUP2 PUSH2 0x21F8 JUMP JUMPDEST SWAP1 POP SWAP2 SWAP1 POP JUMP JUMPDEST PUSH1 0x0 PUSH1 0x20 DUP3 ADD SWAP1 POP DUP2 DUP2 SUB PUSH1 0x0 DUP4 ADD MSTORE PUSH2 0x2565 DUP2 PUSH2 0x221B JUMP JUMPDEST SWAP1 POP SWAP2 SWAP1 POP JUMP JUMPDEST PUSH1 0x0 PUSH1 0x20 DUP3 ADD SWAP1 POP DUP2 DUP2 SUB PUSH1 0x0 DUP4 ADD MSTORE PUSH2 0x2585 DUP2 PUSH2 0x223E JUMP JUMPDEST SWAP1 POP SWAP2 SWAP1 POP JUMP JUMPDEST PUSH1 0x0 PUSH1 0x20 DUP3 ADD SWAP1 POP DUP2 DUP2 SUB PUSH1 0x0 DUP4 ADD MSTORE PUSH2 0x25A5 DUP2 PUSH2 0x2261 JUMP JUMPDEST SWAP1 POP SWAP2 SWAP1 POP JUMP JUMPDEST PUSH1 0x0 PUSH1 0x20 DUP3 ADD SWAP1 POP DUP2 DUP2 SUB PUSH1 0x0 DUP4 ADD MSTORE PUSH2 0x25C5 DUP2 PUSH2 0x2284 JUMP JUMPDEST SWAP1 POP SWAP2 SWAP1 POP JUMP JUMPDEST PUSH1 0x0 PUSH1 0x20 DUP3 ADD SWAP1 POP DUP2 DUP2 SUB PUSH1 0x0 DUP4 ADD MSTORE PUSH2 0x25E5 DUP2 PUSH2 0x22A7 JUMP JUMPDEST SWAP1 POP SWAP2 SWAP1 POP JUMP JUMPDEST PUSH1 0x0 PUSH1 0x20 DUP3 ADD SWAP1 POP DUP2 DUP2 SUB PUSH1 0x0 DUP4 ADD MSTORE PUSH2 0x2605 DUP2 PUSH2 0x22CA JUMP JUMPDEST SWAP1 POP SWAP2 SWAP1 POP JUMP JUMPDEST PUSH1 0x0 PUSH1 0x20 DUP3 ADD SWAP1 POP DUP2 DUP2 SUB PUSH1 0x0 DUP4 ADD MSTORE PUSH2 0x2625 DUP2 PUSH2 0x22ED JUMP JUMPDEST SWAP1 POP SWAP2 SWAP1 POP JUMP JUMPDEST PUSH1 0x0 PUSH1 0x20 DUP3 ADD SWAP1 POP DUP2 DUP2 SUB PUSH1 0x0 DUP4 ADD MSTORE PUSH2 0x2645 DUP2 PUSH2 0x2310 JUMP JUMPDEST SWAP1 POP SWAP2 SWAP1 POP JUMP JUMPDEST PUSH1 0x0 PUSH1 0x20 DUP3 ADD SWAP1 POP DUP2 DUP2 SUB PUSH1 0x0 DUP4 ADD MSTORE PUSH2 0x2665 DUP2 PUSH2 0x2333 JUMP JUMPDEST SWAP1 POP SWAP2 SWAP1 POP JUMP JUMPDEST PUSH1 0x0 PUSH1 0x20 DUP3 ADD SWAP1 POP DUP2 DUP2 SUB PUSH1 0x0 DUP4 ADD MSTORE PUSH2 0x2685 DUP2 PUSH2 0x2356 JUMP JUMPDEST SWAP1 POP SWAP2 SWAP1 POP JUMP JUMPDEST PUSH1 0x0 PUSH1 0x20 DUP3 ADD SWAP1 POP DUP2 DUP2 SUB PUSH1 0x0 DUP4 ADD MSTORE PUSH2 0x26A5 DUP2 PUSH2 0x2379 JUMP JUMPDEST SWAP1 POP SWAP2 SWAP1 POP JUMP JUMPDEST PUSH1 0x0 PUSH1 0x20 DUP3 ADD SWAP1 POP DUP2 DUP2 SUB PUSH1 0x0 DUP4 ADD MSTORE PUSH2 0x26C5 DUP2 PUSH2 0x239C JUMP JUMPDEST SWAP1 POP SWAP2 SWAP1 POP JUMP JUMPDEST PUSH1 0x0 PUSH1 0x20 DUP3 ADD SWAP1 POP PUSH2 0x26E1 PUSH1 0x0 DUP4 ADD DUP5 PUSH2 0x23BF JUMP JUMPDEST SWAP3 SWAP2 POP POP JUMP JUMPDEST PUSH1 0x0 PUSH1 0x40 DUP3 ADD SWAP1 POP PUSH2 0x26FC PUSH1 0x0 DUP4 ADD DUP6 PUSH2 0x23BF JUMP JUMPDEST PUSH2 0x2709 PUSH1 0x20 DUP4 ADD DUP5 PUSH2 0x23BF JUMP JUMPDEST SWAP4 SWAP3 POP POP POP JUMP JUMPDEST PUSH1 0x0 PUSH1 0x20 DUP3 ADD SWAP1 POP PUSH2 0x2725 PUSH1 0x0 DUP4 ADD DUP5 PUSH2 0x23CE JUMP JUMPDEST SWAP3 SWAP2 POP POP JUMP JUMPDEST PUSH1 0x0 DUP2 MLOAD SWAP1 POP SWAP2 SWAP1 POP JUMP JUMPDEST PUSH1 0x0 DUP2 MLOAD SWAP1 POP SWAP2 SWAP1 POP JUMP JUMPDEST PUSH1 0x0 DUP2 SWAP1 POP SWAP3 SWAP2 POP POP JUMP JUMPDEST PUSH1 0x0 DUP3 DUP3 MSTORE PUSH1 0x20 DUP3 ADD SWAP1 POP SWAP3 SWAP2 POP POP JUMP JUMPDEST PUSH1 0x0 PUSH2 0x2768 DUP3 PUSH2 0x2996 JUMP JUMPDEST SWAP2 POP PUSH2 0x2773 DUP4 PUSH2 0x2996 JUMP JUMPDEST SWAP3 POP DUP3 PUSH32 0xFFFFFFFFFFFFFFFFFFFFFFFFFFFFFFFFFFFFFFFFFFFFFFFFFFFFFFFFFFFFFFFF SUB DUP3 GT ISZERO PUSH2 0x27A8 JUMPI PUSH2 0x27A7 PUSH2 0x2A12 JUMP JUMPDEST JUMPDEST DUP3 DUP3 ADD SWAP1 POP SWAP3 SWAP2 POP POP JUMP JUMPDEST PUSH1 0x0 DUP1 DUP3 SWAP2 POP DUP4 SWAP1 POP JUMPDEST PUSH1 0x1 DUP6 GT ISZERO PUSH2 0x27FD JUMPI DUP1 DUP7 DIV DUP2 GT ISZERO PUSH2 0x27D9 JUMPI PUSH2 0x27D8 PUSH2 0x2A12 JUMP JUMPDEST JUMPDEST PUSH1 0x1 DUP6 AND ISZERO PUSH2 0x27E8 JUMPI DUP1 DUP3 MUL SWAP2 POP JUMPDEST DUP1 DUP2 MUL SWAP1 POP PUSH2 0x27F6 DUP6 PUSH2 0x2AE4 JUMP JUMPDEST SWAP5 POP PUSH2 0x27BD JUMP JUMPDEST SWAP5 POP SWAP5 SWAP3 POP POP POP JUMP JUMPDEST PUSH1 0x0 PUSH2 0x2811 DUP3 PUSH2 0x2996 JUMP JUMPDEST SWAP2 POP PUSH2 0x281C DUP4 PUSH2 0x29A0 JUMP JUMPDEST SWAP3 POP PUSH2 0x2849 PUSH32 0xFFFFFFFFFFFFFFFFFFFFFFFFFFFFFFFFFFFFFFFFFFFFFFFFFFFFFFFFFFFFFFFF DUP5 DUP5 PUSH2 0x2851 JUMP JUMPDEST SWAP1 POP SWAP3 SWAP2 POP POP JUMP JUMPDEST PUSH1 0x0 DUP3 PUSH2 0x2861 JUMPI PUSH1 0x1 SWAP1 POP PUSH2 0x291D JUMP JUMPDEST DUP2 PUSH2 0x286F JUMPI PUSH1 0x0 SWAP1 POP PUSH2 0x291D JUMP JUMPDEST DUP2 PUSH1 0x1 DUP2 EQ PUSH2 0x2885 JUMPI PUSH1 0x2 DUP2 EQ PUSH2 0x288F JUMPI PUSH2 0x28BE JUMP JUMPDEST PUSH1 0x1 SWAP2 POP POP PUSH2 0x291D JUMP JUMPDEST PUSH1 0xFF DUP5 GT ISZERO PUSH2 0x28A1 JUMPI PUSH2 0x28A0 PUSH2 0x2A12 JUMP JUMPDEST JUMPDEST DUP4 PUSH1 0x2 EXP SWAP2 POP DUP5 DUP3 GT ISZERO PUSH2 0x28B8 JUMPI PUSH2 0x28B7 PUSH2 0x2A12 JUMP JUMPDEST JUMPDEST POP PUSH2 0x291D JUMP JUMPDEST POP PUSH1 0x20 DUP4 LT PUSH2 0x133 DUP4 LT AND PUSH1 0x4E DUP5 LT PUSH1 0xB DUP5 LT AND OR ISZERO PUSH2 0x28F3 JUMPI DUP3 DUP3 EXP SWAP1 POP DUP4 DUP2 GT ISZERO PUSH2 0x28EE JUMPI PUSH2 0x28ED PUSH2 0x2A12 JUMP JUMPDEST JUMPDEST PUSH2 0x291D JUMP JUMPDEST PUSH2 0x2900 DUP5 DUP5 DUP5 PUSH1 0x1 PUSH2 0x27B3 JUMP JUMPDEST SWAP3 POP SWAP1 POP DUP2 DUP5 DIV DUP2 GT ISZERO PUSH2 0x2917 JUMPI PUSH2 0x2916 PUSH2 0x2A12 JUMP JUMPDEST JUMPDEST DUP2 DUP2 MUL SWAP1 POP JUMPDEST SWAP4 SWAP3 POP POP POP JUMP JUMPDEST PUSH1 0x0 PUSH2 0x292F DUP3 PUSH2 0x2996 JUMP JUMPDEST SWAP2 POP PUSH2 0x293A DUP4 PUSH2 0x2996 JUMP JUMPDEST SWAP3 POP DUP3 DUP3 LT ISZERO PUSH2 0x294D JUMPI PUSH2 0x294C PUSH2 0x2A12 JUMP JUMPDEST JUMPDEST DUP3 DUP3 SUB SWAP1 POP SWAP3 SWAP2 POP POP JUMP JUMPDEST PUSH1 0x0 PUSH2 0x2963 DUP3 PUSH2 0x2976 JUMP JUMPDEST SWAP1 POP SWAP2 SWAP1 POP JUMP JUMPDEST PUSH1 0x0 DUP2 ISZERO ISZERO SWAP1 POP SWAP2 SWAP1 POP JUMP JUMPDEST PUSH1 0x0 PUSH20 0xFFFFFFFFFFFFFFFFFFFFFFFFFFFFFFFFFFFFFFFF DUP3 AND SWAP1 POP SWAP2 SWAP1 POP JUMP JUMPDEST PUSH1 0x0 DUP2 SWAP1 POP SWAP2 SWAP1 POP JUMP JUMPDEST PUSH1 0x0 PUSH1 0xFF DUP3 AND SWAP1 POP SWAP2 SWAP1 POP JUMP JUMPDEST PUSH1 0x0 JUMPDEST DUP4 DUP2 LT ISZERO PUSH2 0x29CB JUMPI DUP1 DUP3 ADD MLOAD DUP2 DUP5 ADD MSTORE PUSH1 0x20 DUP2 ADD SWAP1 POP PUSH2 0x29B0 JUMP JUMPDEST DUP4 DUP2 GT ISZERO PUSH2 0x29DA JUMPI PUSH1 0x0 DUP5 DUP5 ADD MSTORE JUMPDEST POP POP POP POP JUMP JUMPDEST PUSH1 0x0 PUSH1 0x2 DUP3 DIV SWAP1 POP PUSH1 0x1 DUP3 AND DUP1 PUSH2 0x29F8 JUMPI PUSH1 0x7F DUP3 AND SWAP2 POP JUMPDEST PUSH1 0x20 DUP3 LT DUP2 EQ ISZERO PUSH2 0x2A0C JUMPI PUSH2 0x2A0B PUSH2 0x2A9F JUMP JUMPDEST JUMPDEST POP SWAP2 SWAP1 POP JUMP JUMPDEST PUSH32 0x4E487B7100000000000000000000000000000000000000000000000000000000 PUSH1 0x0 MSTORE PUSH1 0x11 PUSH1 0x4 MSTORE PUSH1 0x24 PUSH1 0x0 REVERT JUMPDEST PUSH32 0x4E487B7100000000000000000000000000000000000000000000000000000000 PUSH1 0x0 MSTORE PUSH1 0x12 PUSH1 0x4 MSTORE PUSH1 0x24 PUSH1 0x0 REVERT JUMPDEST PUSH32 0x4E487B7100000000000000000000000000000000000000000000000000000000 PUSH1 0x0 MSTORE PUSH1 0x21 PUSH1 0x4 MSTORE PUSH1 0x24 PUSH1 0x0 REVERT JUMPDEST PUSH32 0x4E487B7100000000000000000000000000000000000000000000000000000000 PUSH1 0x0 MSTORE PUSH1 0x22 PUSH1 0x4 MSTORE PUSH1 0x24 PUSH1 0x0 REVERT JUMPDEST PUSH1 0x0 DUP1 REVERT JUMPDEST PUSH1 0x0 PUSH1 0x1F NOT PUSH1 0x1F DUP4 ADD AND SWAP1 POP SWAP2 SWAP1 POP JUMP JUMPDEST PUSH1 0x0 DUP2 PUSH1 0x1 SHR SWAP1 POP SWAP2 SWAP1 POP JUMP JUMPDEST PUSH32 0x45524332303A207472616E7366657220746F20746865207A65726F2061646472 PUSH1 0x0 DUP3 ADD MSTORE PUSH32 0x6573730000000000000000000000000000000000000000000000000000000000 PUSH1 0x20 DUP3 ADD MSTORE POP JUMP JUMPDEST PUSH32 0x45524332303A206275726E20616D6F756E7420657863656564732062616C616E PUSH1 0x0 DUP3 ADD MSTORE PUSH32 0x6365000000000000000000000000000000000000000000000000000000000000 PUSH1 0x20 DUP3 ADD MSTORE POP JUMP JUMPDEST PUSH32 0x45524332303A20617070726F766520746F20746865207A65726F206164647265 PUSH1 0x0 DUP3 ADD MSTORE PUSH32 0x7373000000000000000000000000000000000000000000000000000000000000 PUSH1 0x20 DUP3 ADD MSTORE POP JUMP JUMPDEST PUSH32 0x45524332303A20696E73756666696369656E7420616C6C6F77616E6365000000 PUSH1 0x0 DUP3 ADD MSTORE POP JUMP JUMPDEST PUSH32 0x455243343632363A2072656465656D206D6F7265207468616E206D6178000000 PUSH1 0x0 DUP3 ADD MSTORE POP JUMP JUMPDEST PUSH32 0x45524332303A207472616E7366657220616D6F756E7420657863656564732062 PUSH1 0x0 DUP3 ADD MSTORE PUSH32 0x616C616E63650000000000000000000000000000000000000000000000000000 PUSH1 0x20 DUP3 ADD MSTORE POP JUMP JUMPDEST PUSH32 0x416464726573733A20696E73756666696369656E742062616C616E636520666F PUSH1 0x0 DUP3 ADD MSTORE PUSH32 0x722063616C6C0000000000000000000000000000000000000000000000000000 PUSH1 0x20 DUP3 ADD MSTORE POP JUMP JUMPDEST PUSH32 0x455243343632363A207769746864726177206D6F7265207468616E206D617800 PUSH1 0x0 DUP3 ADD MSTORE POP JUMP JUMPDEST PUSH32 0x455243343632363A206465706F736974206D6F7265207468616E206D61780000 PUSH1 0x0 DUP3 ADD MSTORE POP JUMP JUMPDEST PUSH32 0x455243343632363A206D696E74206D6F7265207468616E206D61780000000000 PUSH1 0x0 DUP3 ADD MSTORE POP JUMP JUMPDEST PUSH32 0x45524332303A206275726E2066726F6D20746865207A65726F20616464726573 PUSH1 0x0 DUP3 ADD MSTORE PUSH32 0x7300000000000000000000000000000000000000000000000000000000000000 PUSH1 0x20 DUP3 ADD MSTORE POP JUMP JUMPDEST PUSH32 0x45524332303A207472616E736665722066726F6D20746865207A65726F206164 PUSH1 0x0 DUP3 ADD MSTORE PUSH32 0x6472657373000000000000000000000000000000000000000000000000000000 PUSH1 0x20 DUP3 ADD MSTORE POP JUMP JUMPDEST PUSH32 0x45524332303A20617070726F76652066726F6D20746865207A65726F20616464 PUSH1 0x0 DUP3 ADD MSTORE PUSH32 0x7265737300000000000000000000000000000000000000000000000000000000 PUSH1 0x20 DUP3 ADD MSTORE POP JUMP JUMPDEST PUSH32 0x416464726573733A2063616C6C20746F206E6F6E2D636F6E7472616374000000 PUSH1 0x0 DUP3 ADD MSTORE POP JUMP JUMPDEST PUSH32 0x5361666545524332303A204552433230206F7065726174696F6E20646964206E PUSH1 0x0 DUP3 ADD MSTORE PUSH32 0x6F74207375636365656400000000000000000000000000000000000000000000 PUSH1 0x20 DUP3 ADD MSTORE POP JUMP JUMPDEST PUSH32 0x45524332303A2064656372656173656420616C6C6F77616E63652062656C6F77 PUSH1 0x0 DUP3 ADD MSTORE PUSH32 0x207A65726F000000000000000000000000000000000000000000000000000000 PUSH1 0x20 DUP3 ADD MSTORE POP JUMP JUMPDEST PUSH32 0x45524332303A206D696E7420746F20746865207A65726F206164647265737300 PUSH1 0x0 DUP3 ADD MSTORE POP JUMP JUMPDEST PUSH2 0x2F2F DUP2 PUSH2 0x2958 JUMP JUMPDEST DUP2 EQ PUSH2 0x2F3A JUMPI PUSH1 0x0 DUP1 REVERT JUMPDEST POP JUMP JUMPDEST PUSH2 0x2F46 DUP2 PUSH2 0x296A JUMP JUMPDEST DUP2 EQ PUSH2 0x2F51 JUMPI PUSH1 0x0 DUP1 REVERT JUMPDEST POP JUMP JUMPDEST PUSH2 0x2F5D DUP2 PUSH2 0x2996 JUMP JUMPDEST DUP2 EQ PUSH2 0x2F68 JUMPI PUSH1 0x0 DUP1 REVERT JUMPDEST POP JUMP JUMPDEST PUSH2 0x2F74 DUP2 PUSH2 0x29A0 JUMP JUMPDEST DUP2 EQ PUSH2 0x2F7F JUMPI PUSH1 0x0 DUP1 REVERT JUMPDEST POP JUMP INVALID LOG2 PUSH5 0x6970667358 0x22 SLT KECCAK256 GT PUSH20 0x9C6F45CF0808DBCCC6F89FA6A906226EE8F035D 0xF7 0xB3 0xCF DUP7 PUSH27 0x6E2C5B0CF864736F6C634300080700330000000000000000000000 "
		},
		"gasEstimates": {
			"creation": {
				"codeDepositCost": "2443200",
				"executionCost": "infinite",
				"totalCost": "infinite"
			},
			"external": {
				"allowance(address,address)": "infinite",
				"approve(address,uint256)": "infinite",
				"asset()": "infinite",
				"balanceOf(address)": "2887",
				"convertToAssets(uint256)": "infinite",
				"convertToShares(uint256)": "infinite",
				"decimals()": "411",
				"decreaseAllowance(address,uint256)": "infinite",
				"deposit(uint256,address)": "infinite",
				"increaseAllowance(address,uint256)": "infinite",
				"maxDeposit(address)": "infinite",
				"maxMint(address)": "718",
				"maxRedeem(address)": "2950",
				"maxWithdraw(address)": "infinite",
				"mint(uint256,address)": "infinite",
				"name()": "infinite",
				"previewDeposit(uint256)": "infinite",
				"previewMint(uint256)": "infinite",
				"previewRedeem(uint256)": "infinite",
				"previewWithdraw(uint256)": "infinite",
				"redeem(uint256,address,address)": "infinite",
				"symbol()": "infinite",
				"totalAssets()": "infinite",
				"totalSupply()": "2571",
				"transfer(address,uint256)": "infinite",
				"transferFrom(address,address,uint256)": "infinite",
				"withdraw(uint256,address,address)": "infinite"
			}
		},
		"methodIdentifiers": {
			"allowance(address,address)": "dd62ed3e",
			"approve(address,uint256)": "095ea7b3",
			"asset()": "38d52e0f",
			"balanceOf(address)": "70a08231",
			"convertToAssets(uint256)": "07a2d13a",
			"convertToShares(uint256)": "c6e6f592",
			"decimals()": "313ce567",
			"decreaseAllowance(address,uint256)": "a457c2d7",
			"deposit(uint256,address)": "6e553f65",
			"increaseAllowance(address,uint256)": "39509351",
			"maxDeposit(address)": "402d267d",
			"maxMint(address)": "c63d75b6",
			"maxRedeem(address)": "d905777e",
			"maxWithdraw(address)": "ce96cb77",
			"mint(uint256,address)": "94bf804d",
			"name()": "06fdde03",
			"previewDeposit(uint256)": "ef8b30f7",
			"previewMint(uint256)": "b3d7f6b9",
			"previewRedeem(uint256)": "4cdad506",
			"previewWithdraw(uint256)": "0a28a477",
			"redeem(uint256,address,address)": "ba087652",
			"symbol()": "95d89b41",
			"totalAssets()": "01e1d114",
			"totalSupply()": "18160ddd",
			"transfer(address,uint256)": "a9059cbb",
			"transferFrom(address,address,uint256)": "23b872dd",
			"withdraw(uint256,address,address)": "b460af94"
		}
	},
	"abi": [
		{
			"inputs": [
				{
					"internalType": "address",
					"name": "_token",
					"type": "address"
				},
				{
					"internalType": "string",
					"name": "vName",
					"type": "string"
				},
				{
					"internalType": "string",
					"name": "vSymbol",
					"type": "string"
				}
			],
			"stateMutability": "nonpayable",
			"type": "constructor"
		},
		{
			"anonymous": false,
			"inputs": [
				{
					"indexed": true,
					"internalType": "address",
					"name": "owner",
					"type": "address"
				},
				{
					"indexed": true,
					"internalType": "address",
					"name": "spender",
					"type": "address"
				},
				{
					"indexed": false,
					"internalType": "uint256",
					"name": "value",
					"type": "uint256"
				}
			],
			"name": "Approval",
			"type": "event"
		},
		{
			"anonymous": false,
			"inputs": [
				{
					"indexed": true,
					"internalType": "address",
					"name": "caller",
					"type": "address"
				},
				{
					"indexed": true,
					"internalType": "address",
					"name": "owner",
					"type": "address"
				},
				{
					"indexed": false,
					"internalType": "uint256",
					"name": "assets",
					"type": "uint256"
				},
				{
					"indexed": false,
					"internalType": "uint256",
					"name": "shares",
					"type": "uint256"
				}
			],
			"name": "Deposit",
			"type": "event"
		},
		{
			"anonymous": false,
			"inputs": [
				{
					"indexed": true,
					"internalType": "address",
					"name": "from",
					"type": "address"
				},
				{
					"indexed": true,
					"internalType": "address",
					"name": "to",
					"type": "address"
				},
				{
					"indexed": false,
					"internalType": "uint256",
					"name": "value",
					"type": "uint256"
				}
			],
			"name": "Transfer",
			"type": "event"
		},
		{
			"anonymous": false,
			"inputs": [
				{
					"indexed": true,
					"internalType": "address",
					"name": "caller",
					"type": "address"
				},
				{
					"indexed": true,
					"internalType": "address",
					"name": "receiver",
					"type": "address"
				},
				{
					"indexed": true,
					"internalType": "address",
					"name": "owner",
					"type": "address"
				},
				{
					"indexed": false,
					"internalType": "uint256",
					"name": "assets",
					"type": "uint256"
				},
				{
					"indexed": false,
					"internalType": "uint256",
					"name": "shares",
					"type": "uint256"
				}
			],
			"name": "Withdraw",
			"type": "event"
		},
		{
			"inputs": [
				{
					"internalType": "address",
					"name": "owner",
					"type": "address"
				},
				{
					"internalType": "address",
					"name": "spender",
					"type": "address"
				}
			],
			"name": "allowance",
			"outputs": [
				{
					"internalType": "uint256",
					"name": "",
					"type": "uint256"
				}
			],
			"stateMutability": "view",
			"type": "function"
		},
		{
			"inputs": [
				{
					"internalType": "address",
					"name": "spender",
					"type": "address"
				},
				{
					"internalType": "uint256",
					"name": "amount",
					"type": "uint256"
				}
			],
			"name": "approve",
			"outputs": [
				{
					"internalType": "bool",
					"name": "",
					"type": "bool"
				}
			],
			"stateMutability": "nonpayable",
			"type": "function"
		},
		{
			"inputs": [],
			"name": "asset",
			"outputs": [
				{
					"internalType": "address",
					"name": "",
					"type": "address"
				}
			],
			"stateMutability": "view",
			"type": "function"
		},
		{
			"inputs": [
				{
					"internalType": "address",
					"name": "account",
					"type": "address"
				}
			],
			"name": "balanceOf",
			"outputs": [
				{
					"internalType": "uint256",
					"name": "",
					"type": "uint256"
				}
			],
			"stateMutability": "view",
			"type": "function"
		},
		{
			"inputs": [
				{
					"internalType": "uint256",
					"name": "shares",
					"type": "uint256"
				}
			],
			"name": "convertToAssets",
			"outputs": [
				{
					"internalType": "uint256",
					"name": "assets",
					"type": "uint256"
				}
			],
			"stateMutability": "view",
			"type": "function"
		},
		{
			"inputs": [
				{
					"internalType": "uint256",
					"name": "assets",
					"type": "uint256"
				}
			],
			"name": "convertToShares",
			"outputs": [
				{
					"internalType": "uint256",
					"name": "shares",
					"type": "uint256"
				}
			],
			"stateMutability": "view",
			"type": "function"
		},
		{
			"inputs": [],
			"name": "decimals",
			"outputs": [
				{
					"internalType": "uint8",
					"name": "",
					"type": "uint8"
				}
			],
			"stateMutability": "view",
			"type": "function"
		},
		{
			"inputs": [
				{
					"internalType": "address",
					"name": "spender",
					"type": "address"
				},
				{
					"internalType": "uint256",
					"name": "subtractedValue",
					"type": "uint256"
				}
			],
			"name": "decreaseAllowance",
			"outputs": [
				{
					"internalType": "bool",
					"name": "",
					"type": "bool"
				}
			],
			"stateMutability": "nonpayable",
			"type": "function"
		},
		{
			"inputs": [
				{
					"internalType": "uint256",
					"name": "assets",
					"type": "uint256"
				},
				{
					"internalType": "address",
					"name": "receiver",
					"type": "address"
				}
			],
			"name": "deposit",
			"outputs": [
				{
					"internalType": "uint256",
					"name": "",
					"type": "uint256"
				}
			],
			"stateMutability": "nonpayable",
			"type": "function"
		},
		{
			"inputs": [
				{
					"internalType": "address",
					"name": "spender",
					"type": "address"
				},
				{
					"internalType": "uint256",
					"name": "addedValue",
					"type": "uint256"
				}
			],
			"name": "increaseAllowance",
			"outputs": [
				{
					"internalType": "bool",
					"name": "",
					"type": "bool"
				}
			],
			"stateMutability": "nonpayable",
			"type": "function"
		},
		{
			"inputs": [
				{
					"internalType": "address",
					"name": "",
					"type": "address"
				}
			],
			"name": "maxDeposit",
			"outputs": [
				{
					"internalType": "uint256",
					"name": "",
					"type": "uint256"
				}
			],
			"stateMutability": "view",
			"type": "function"
		},
		{
			"inputs": [
				{
					"internalType": "address",
					"name": "",
					"type": "address"
				}
			],
			"name": "maxMint",
			"outputs": [
				{
					"internalType": "uint256",
					"name": "",
					"type": "uint256"
				}
			],
			"stateMutability": "view",
			"type": "function"
		},
		{
			"inputs": [
				{
					"internalType": "address",
					"name": "owner",
					"type": "address"
				}
			],
			"name": "maxRedeem",
			"outputs": [
				{
					"internalType": "uint256",
					"name": "",
					"type": "uint256"
				}
			],
			"stateMutability": "view",
			"type": "function"
		},
		{
			"inputs": [
				{
					"internalType": "address",
					"name": "owner",
					"type": "address"
				}
			],
			"name": "maxWithdraw",
			"outputs": [
				{
					"internalType": "uint256",
					"name": "",
					"type": "uint256"
				}
			],
			"stateMutability": "view",
			"type": "function"
		},
		{
			"inputs": [
				{
					"internalType": "uint256",
					"name": "shares",
					"type": "uint256"
				},
				{
					"internalType": "address",
					"name": "receiver",
					"type": "address"
				}
			],
			"name": "mint",
			"outputs": [
				{
					"internalType": "uint256",
					"name": "",
					"type": "uint256"
				}
			],
			"stateMutability": "nonpayable",
			"type": "function"
		},
		{
			"inputs": [],
			"name": "name",
			"outputs": [
				{
					"internalType": "string",
					"name": "",
					"type": "string"
				}
			],
			"stateMutability": "view",
			"type": "function"
		},
		{
			"inputs": [
				{
					"internalType": "uint256",
					"name": "assets",
					"type": "uint256"
				}
			],
			"name": "previewDeposit",
			"outputs": [
				{
					"internalType": "uint256",
					"name": "",
					"type": "uint256"
				}
			],
			"stateMutability": "view",
			"type": "function"
		},
		{
			"inputs": [
				{
					"internalType": "uint256",
					"name": "shares",
					"type": "uint256"
				}
			],
			"name": "previewMint",
			"outputs": [
				{
					"internalType": "uint256",
					"name": "",
					"type": "uint256"
				}
			],
			"stateMutability": "view",
			"type": "function"
		},
		{
			"inputs": [
				{
					"internalType": "uint256",
					"name": "shares",
					"type": "uint256"
				}
			],
			"name": "previewRedeem",
			"outputs": [
				{
					"internalType": "uint256",
					"name": "",
					"type": "uint256"
				}
			],
			"stateMutability": "view",
			"type": "function"
		},
		{
			"inputs": [
				{
					"internalType": "uint256",
					"name": "assets",
					"type": "uint256"
				}
			],
			"name": "previewWithdraw",
			"outputs": [
				{
					"internalType": "uint256",
					"name": "",
					"type": "uint256"
				}
			],
			"stateMutability": "view",
			"type": "function"
		},
		{
			"inputs": [
				{
					"internalType": "uint256",
					"name": "shares",
					"type": "uint256"
				},
				{
					"internalType": "address",
					"name": "receiver",
					"type": "address"
				},
				{
					"internalType": "address",
					"name": "owner",
					"type": "address"
				}
			],
			"name": "redeem",
			"outputs": [
				{
					"internalType": "uint256",
					"name": "",
					"type": "uint256"
				}
			],
			"stateMutability": "nonpayable",
			"type": "function"
		},
		{
			"inputs": [],
			"name": "symbol",
			"outputs": [
				{
					"internalType": "string",
					"name": "",
					"type": "string"
				}
			],
			"stateMutability": "view",
			"type": "function"
		},
		{
			"inputs": [],
			"name": "totalAssets",
			"outputs": [
				{
					"internalType": "uint256",
					"name": "",
					"type": "uint256"
				}
			],
			"stateMutability": "view",
			"type": "function"
		},
		{
			"inputs": [],
			"name": "totalSupply",
			"outputs": [
				{
					"internalType": "uint256",
					"name": "",
					"type": "uint256"
				}
			],
			"stateMutability": "view",
			"type": "function"
		},
		{
			"inputs": [
				{
					"internalType": "address",
					"name": "to",
					"type": "address"
				},
				{
					"internalType": "uint256",
					"name": "amount",
					"type": "uint256"
				}
			],
			"name": "transfer",
			"outputs": [
				{
					"internalType": "bool",
					"name": "",
					"type": "bool"
				}
			],
			"stateMutability": "nonpayable",
			"type": "function"
		},
		{
			"inputs": [
				{
					"internalType": "address",
					"name": "from",
					"type": "address"
				},
				{
					"internalType": "address",
					"name": "to",
					"type": "address"
				},
				{
					"internalType": "uint256",
					"name": "amount",
					"type": "uint256"
				}
			],
			"name": "transferFrom",
			"outputs": [
				{
					"internalType": "bool",
					"name": "",
					"type": "bool"
				}
			],
			"stateMutability": "nonpayable",
			"type": "function"
		},
		{
			"inputs": [
				{
					"internalType": "uint256",
					"name": "assets",
					"type": "uint256"
				},
				{
					"internalType": "address",
					"name": "receiver",
					"type": "address"
				},
				{
					"internalType": "address",
					"name": "owner",
					"type": "address"
				}
			],
			"name": "withdraw",
			"outputs": [
				{
					"internalType": "uint256",
					"name": "",
					"type": "uint256"
				}
			],
			"stateMutability": "nonpayable",
			"type": "function"
		}
	]
}