{
	"data": {
		"bytecode": {
			"linkReferences": {},
			"object": "60c060405234801561001057600080fd5b5060405161084838038061084883398181016040528101906100329190610188565b808073ffffffffffffffffffffffffffffffffffffffff1660808173ffffffffffffffffffffffffffffffffffffffff1660601b815250508073ffffffffffffffffffffffffffffffffffffffff1663573ea5756040518163ffffffff1660e01b815260040160206040518083038186803b1580156100b057600080fd5b505afa1580156100c4573d6000803e3d6000fd5b505050506040513d601f19601f820116820180604052508101906100e89190610188565b73ffffffffffffffffffffffffffffffffffffffff1660a08173ffffffffffffffffffffffffffffffffffffffff1660601b8152505050506101b5565b600080fd5b600073ffffffffffffffffffffffffffffffffffffffff82169050919050565b60006101558261012a565b9050919050565b6101658161014a565b811461017057600080fd5b50565b6000815190506101828161015c565b92915050565b60006020828403121561019e5761019d610125565b5b60006101ac84828501610173565b91505092915050565b60805160601c60a05160601c6106616101e7600039600061026301526000818161016b01526102bc01526106616000f3fe608060405234801561001057600080fd5b506004361061007d5760003560e01c8063573ea5751161005b578063573ea575146100da5780638322fff2146100f8578063bfdd1c8914610116578063e70abe92146101325761007d565b806306661abd1461008257806316131a18146100a057806346d4adf2146100be575b600080fd5b61008a610150565b60405161009791906102f7565b60405180910390f35b6100a8610156565b6040516100b5919061032d565b60405180910390f35b6100d860048036038101906100d39190610379565b610169565b005b6100e2610261565b6040516100ef91906103e7565b60405180910390f35b610100610285565b60405161010d9190610423565b60405180910390f35b610130600480360381019061012b919061046a565b61029d565b005b61013a6102ba565b6040516101479190610423565b60405180910390f35b60005481565b600160009054906101000a900460ff1681565b7f000000000000000000000000000000000000000000000000000000000000000073ffffffffffffffffffffffffffffffffffffffff163373ffffffffffffffffffffffffffffffffffffffff16146101f7576040517f08c379a00000000000000000000000000000000000000000000000000000000081526004016101ee906104f4565b60405180910390fd5b600160009054906101000a900460ff16610246576040517f08c379a000000000000000000000000000000000000000000000000000000000815260040161023d90610586565b60405180910390fd5b8060008082825461025791906105d5565b9250508190555050565b7f000000000000000000000000000000000000000000000000000000000000000081565b73eeeeeeeeeeeeeeeeeeeeeeeeeeeeeeeeeeeeeeee81565b80600160006101000a81548160ff02191690831515021790555050565b7f000000000000000000000000000000000000000000000000000000000000000081565b6000819050919050565b6102f1816102de565b82525050565b600060208201905061030c60008301846102e8565b92915050565b60008115159050919050565b61032781610312565b82525050565b6000602082019050610342600083018461031e565b92915050565b600080fd5b610356816102de565b811461036157600080fd5b50565b6000813590506103738161034d565b92915050565b60006020828403121561038f5761038e610348565b5b600061039d84828501610364565b91505092915050565b600073ffffffffffffffffffffffffffffffffffffffff82169050919050565b60006103d1826103a6565b9050919050565b6103e1816103c6565b82525050565b60006020820190506103fc60008301846103d8565b92915050565b600061040d826103a6565b9050919050565b61041d81610402565b82525050565b60006020820190506104386000830184610414565b92915050565b61044781610312565b811461045257600080fd5b50565b6000813590506104648161043e565b92915050565b6000602082840312156104805761047f610348565b5b600061048e84828501610455565b91505092915050565b600082825260208201905092915050565b7f4f707352656164793a206f6e6c794f7073000000000000000000000000000000600082015250565b60006104de601183610497565b91506104e9826104a8565b602082019050919050565b6000602082019050818103600083015261050d816104d1565b9050919050565b7f436f756e74657254696d65645461736b3a20696e637265617365436f756e743a60008201527f204e6f742065786563757461626c650000000000000000000000000000000000602082015250565b6000610570602f83610497565b915061057b82610514565b604082019050919050565b6000602082019050818103600083015261059f81610563565b9050919050565b7f4e487b7100000000000000000000000000000000000000000000000000000000600052601160045260246000fd5b60006105e0826102de565b91506105eb836102de565b9250827fffffffffffffffffffffffffffffffffffffffffffffffffffffffffffffffff038211156106205761061f6105a6565b5b82820190509291505056fea264697066735822122029390f08316771bc77204ad93b90ba7685a8a7d15b27c201a8b96cf10b374e1464736f6c63430008080033",
			"opcodes": "PUSH1 0xC0 PUSH1 0x40 MSTORE CALLVALUE DUP1 ISZERO PUSH2 0x10 JUMPI PUSH1 0x0 DUP1 REVERT JUMPDEST POP PUSH1 0x40 MLOAD PUSH2 0x848 CODESIZE SUB DUP1 PUSH2 0x848 DUP4 CODECOPY DUP2 DUP2 ADD PUSH1 0x40 MSTORE DUP2 ADD SWAP1 PUSH2 0x32 SWAP2 SWAP1 PUSH2 0x188 JUMP JUMPDEST DUP1 DUP1 PUSH20 0xFFFFFFFFFFFFFFFFFFFFFFFFFFFFFFFFFFFFFFFF AND PUSH1 0x80 DUP2 PUSH20 0xFFFFFFFFFFFFFFFFFFFFFFFFFFFFFFFFFFFFFFFF AND PUSH1 0x60 SHL DUP2 MSTORE POP POP DUP1 PUSH20 0xFFFFFFFFFFFFFFFFFFFFFFFFFFFFFFFFFFFFFFFF AND PUSH4 0x573EA575 PUSH1 0x40 MLOAD DUP2 PUSH4 0xFFFFFFFF AND PUSH1 0xE0 SHL DUP2 MSTORE PUSH1 0x4 ADD PUSH1 0x20 PUSH1 0x40 MLOAD DUP1 DUP4 SUB DUP2 DUP7 DUP1 EXTCODESIZE ISZERO DUP1 ISZERO PUSH2 0xB0 JUMPI PUSH1 0x0 DUP1 REVERT JUMPDEST POP GAS STATICCALL ISZERO DUP1 ISZERO PUSH2 0xC4 JUMPI RETURNDATASIZE PUSH1 0x0 DUP1 RETURNDATACOPY RETURNDATASIZE PUSH1 0x0 REVERT JUMPDEST POP POP POP POP PUSH1 0x40 MLOAD RETURNDATASIZE PUSH1 0x1F NOT PUSH1 0x1F DUP3 ADD AND DUP3 ADD DUP1 PUSH1 0x40 MSTORE POP DUP2 ADD SWAP1 PUSH2 0xE8 SWAP2 SWAP1 PUSH2 0x188 JUMP JUMPDEST PUSH20 0xFFFFFFFFFFFFFFFFFFFFFFFFFFFFFFFFFFFFFFFF AND PUSH1 0xA0 DUP2 PUSH20 0xFFFFFFFFFFFFFFFFFFFFFFFFFFFFFFFFFFFFFFFF AND PUSH1 0x60 SHL DUP2 MSTORE POP POP POP POP PUSH2 0x1B5 JUMP JUMPDEST PUSH1 0x0 DUP1 REVERT JUMPDEST PUSH1 0x0 PUSH20 0xFFFFFFFFFFFFFFFFFFFFFFFFFFFFFFFFFFFFFFFF DUP3 AND SWAP1 POP SWAP2 SWAP1 POP JUMP JUMPDEST PUSH1 0x0 PUSH2 0x155 DUP3 PUSH2 0x12A JUMP JUMPDEST SWAP1 POP SWAP2 SWAP1 POP JUMP JUMPDEST PUSH2 0x165 DUP2 PUSH2 0x14A JUMP JUMPDEST DUP2 EQ PUSH2 0x170 JUMPI PUSH1 0x0 DUP1 REVERT JUMPDEST POP JUMP JUMPDEST PUSH1 0x0 DUP2 MLOAD SWAP1 POP PUSH2 0x182 DUP2 PUSH2 0x15C JUMP JUMPDEST SWAP3 SWAP2 POP POP JUMP JUMPDEST PUSH1 0x0 PUSH1 0x20 DUP3 DUP5 SUB SLT ISZERO PUSH2 0x19E JUMPI PUSH2 0x19D PUSH2 0x125 JUMP JUMPDEST JUMPDEST PUSH1 0x0 PUSH2 0x1AC DUP5 DUP3 DUP6 ADD PUSH2 0x173 JUMP JUMPDEST SWAP2 POP POP SWAP3 SWAP2 POP POP JUMP JUMPDEST PUSH1 0x80 MLOAD PUSH1 0x60 SHR PUSH1 0xA0 MLOAD PUSH1 0x60 SHR PUSH2 0x661 PUSH2 0x1E7 PUSH1 0x0 CODECOPY PUSH1 0x0 PUSH2 0x263 ADD MSTORE PUSH1 0x0 DUP2 DUP2 PUSH2 0x16B ADD MSTORE PUSH2 0x2BC ADD MSTORE PUSH2 0x661 PUSH1 0x0 RETURN INVALID PUSH1 0x80 PUSH1 0x40 MSTORE CALLVALUE DUP1 ISZERO PUSH2 0x10 JUMPI PUSH1 0x0 DUP1 REVERT JUMPDEST POP PUSH1 0x4 CALLDATASIZE LT PUSH2 0x7D JUMPI PUSH1 0x0 CALLDATALOAD PUSH1 0xE0 SHR DUP1 PUSH4 0x573EA575 GT PUSH2 0x5B JUMPI DUP1 PUSH4 0x573EA575 EQ PUSH2 0xDA JUMPI DUP1 PUSH4 0x8322FFF2 EQ PUSH2 0xF8 JUMPI DUP1 PUSH4 0xBFDD1C89 EQ PUSH2 0x116 JUMPI DUP1 PUSH4 0xE70ABE92 EQ PUSH2 0x132 JUMPI PUSH2 0x7D JUMP JUMPDEST DUP1 PUSH4 0x6661ABD EQ PUSH2 0x82 JUMPI DUP1 PUSH4 0x16131A18 EQ PUSH2 0xA0 JUMPI DUP1 PUSH4 0x46D4ADF2 EQ PUSH2 0xBE JUMPI JUMPDEST PUSH1 0x0 DUP1 REVERT JUMPDEST PUSH2 0x8A PUSH2 0x150 JUMP JUMPDEST PUSH1 0x40 MLOAD PUSH2 0x97 SWAP2 SWAP1 PUSH2 0x2F7 JUMP JUMPDEST PUSH1 0x40 MLOAD DUP1 SWAP2 SUB SWAP1 RETURN JUMPDEST PUSH2 0xA8 PUSH2 0x156 JUMP JUMPDEST PUSH1 0x40 MLOAD PUSH2 0xB5 SWAP2 SWAP1 PUSH2 0x32D JUMP JUMPDEST PUSH1 0x40 MLOAD DUP1 SWAP2 SUB SWAP1 RETURN JUMPDEST PUSH2 0xD8 PUSH1 0x4 DUP1 CALLDATASIZE SUB DUP2 ADD SWAP1 PUSH2 0xD3 SWAP2 SWAP1 PUSH2 0x379 JUMP JUMPDEST PUSH2 0x169 JUMP JUMPDEST STOP JUMPDEST PUSH2 0xE2 PUSH2 0x261 JUMP JUMPDEST PUSH1 0x40 MLOAD PUSH2 0xEF SWAP2 SWAP1 PUSH2 0x3E7 JUMP JUMPDEST PUSH1 0x40 MLOAD DUP1 SWAP2 SUB SWAP1 RETURN JUMPDEST PUSH2 0x100 PUSH2 0x285 JUMP JUMPDEST PUSH1 0x40 MLOAD PUSH2 0x10D SWAP2 SWAP1 PUSH2 0x423 JUMP JUMPDEST PUSH1 0x40 MLOAD DUP1 SWAP2 SUB SWAP1 RETURN JUMPDEST PUSH2 0x130 PUSH1 0x4 DUP1 CALLDATASIZE SUB DUP2 ADD SWAP1 PUSH2 0x12B SWAP2 SWAP1 PUSH2 0x46A JUMP JUMPDEST PUSH2 0x29D JUMP JUMPDEST STOP JUMPDEST PUSH2 0x13A PUSH2 0x2BA JUMP JUMPDEST PUSH1 0x40 MLOAD PUSH2 0x147 SWAP2 SWAP1 PUSH2 0x423 JUMP JUMPDEST PUSH1 0x40 MLOAD DUP1 SWAP2 SUB SWAP1 RETURN JUMPDEST PUSH1 0x0 SLOAD DUP2 JUMP JUMPDEST PUSH1 0x1 PUSH1 0x0 SWAP1 SLOAD SWAP1 PUSH2 0x100 EXP SWAP1 DIV PUSH1 0xFF AND DUP2 JUMP JUMPDEST PUSH32 0x0 PUSH20 0xFFFFFFFFFFFFFFFFFFFFFFFFFFFFFFFFFFFFFFFF AND CALLER PUSH20 0xFFFFFFFFFFFFFFFFFFFFFFFFFFFFFFFFFFFFFFFF AND EQ PUSH2 0x1F7 JUMPI PUSH1 0x40 MLOAD PUSH32 0x8C379A000000000000000000000000000000000000000000000000000000000 DUP2 MSTORE PUSH1 0x4 ADD PUSH2 0x1EE SWAP1 PUSH2 0x4F4 JUMP JUMPDEST PUSH1 0x40 MLOAD DUP1 SWAP2 SUB SWAP1 REVERT JUMPDEST PUSH1 0x1 PUSH1 0x0 SWAP1 SLOAD SWAP1 PUSH2 0x100 EXP SWAP1 DIV PUSH1 0xFF AND PUSH2 0x246 JUMPI PUSH1 0x40 MLOAD PUSH32 0x8C379A000000000000000000000000000000000000000000000000000000000 DUP2 MSTORE PUSH1 0x4 ADD PUSH2 0x23D SWAP1 PUSH2 0x586 JUMP JUMPDEST PUSH1 0x40 MLOAD DUP1 SWAP2 SUB SWAP1 REVERT JUMPDEST DUP1 PUSH1 0x0 DUP1 DUP3 DUP3 SLOAD PUSH2 0x257 SWAP2 SWAP1 PUSH2 0x5D5 JUMP JUMPDEST SWAP3 POP POP DUP2 SWAP1 SSTORE POP POP JUMP JUMPDEST PUSH32 0x0 DUP2 JUMP JUMPDEST PUSH20 0xEEEEEEEEEEEEEEEEEEEEEEEEEEEEEEEEEEEEEEEE DUP2 JUMP JUMPDEST DUP1 PUSH1 0x1 PUSH1 0x0 PUSH2 0x100 EXP DUP2 SLOAD DUP2 PUSH1 0xFF MUL NOT AND SWAP1 DUP4 ISZERO ISZERO MUL OR SWAP1 SSTORE POP POP JUMP JUMPDEST PUSH32 0x0 DUP2 JUMP JUMPDEST PUSH1 0x0 DUP2 SWAP1 POP SWAP2 SWAP1 POP JUMP JUMPDEST PUSH2 0x2F1 DUP2 PUSH2 0x2DE JUMP JUMPDEST DUP3 MSTORE POP POP JUMP JUMPDEST PUSH1 0x0 PUSH1 0x20 DUP3 ADD SWAP1 POP PUSH2 0x30C PUSH1 0x0 DUP4 ADD DUP5 PUSH2 0x2E8 JUMP JUMPDEST SWAP3 SWAP2 POP POP JUMP JUMPDEST PUSH1 0x0 DUP2 ISZERO ISZERO SWAP1 POP SWAP2 SWAP1 POP JUMP JUMPDEST PUSH2 0x327 DUP2 PUSH2 0x312 JUMP JUMPDEST DUP3 MSTORE POP POP JUMP JUMPDEST PUSH1 0x0 PUSH1 0x20 DUP3 ADD SWAP1 POP PUSH2 0x342 PUSH1 0x0 DUP4 ADD DUP5 PUSH2 0x31E JUMP JUMPDEST SWAP3 SWAP2 POP POP JUMP JUMPDEST PUSH1 0x0 DUP1 REVERT JUMPDEST PUSH2 0x356 DUP2 PUSH2 0x2DE JUMP JUMPDEST DUP2 EQ PUSH2 0x361 JUMPI PUSH1 0x0 DUP1 REVERT JUMPDEST POP JUMP JUMPDEST PUSH1 0x0 DUP2 CALLDATALOAD SWAP1 POP PUSH2 0x373 DUP2 PUSH2 0x34D JUMP JUMPDEST SWAP3 SWAP2 POP POP JUMP JUMPDEST PUSH1 0x0 PUSH1 0x20 DUP3 DUP5 SUB SLT ISZERO PUSH2 0x38F JUMPI PUSH2 0x38E PUSH2 0x348 JUMP JUMPDEST JUMPDEST PUSH1 0x0 PUSH2 0x39D DUP5 DUP3 DUP6 ADD PUSH2 0x364 JUMP JUMPDEST SWAP2 POP POP SWAP3 SWAP2 POP POP JUMP JUMPDEST PUSH1 0x0 PUSH20 0xFFFFFFFFFFFFFFFFFFFFFFFFFFFFFFFFFFFFFFFF DUP3 AND SWAP1 POP SWAP2 SWAP1 POP JUMP JUMPDEST PUSH1 0x0 PUSH2 0x3D1 DUP3 PUSH2 0x3A6 JUMP JUMPDEST SWAP1 POP SWAP2 SWAP1 POP JUMP JUMPDEST PUSH2 0x3E1 DUP2 PUSH2 0x3C6 JUMP JUMPDEST DUP3 MSTORE POP POP JUMP JUMPDEST PUSH1 0x0 PUSH1 0x20 DUP3 ADD SWAP1 POP PUSH2 0x3FC PUSH1 0x0 DUP4 ADD DUP5 PUSH2 0x3D8 JUMP JUMPDEST SWAP3 SWAP2 POP POP JUMP JUMPDEST PUSH1 0x0 PUSH2 0x40D DUP3 PUSH2 0x3A6 JUMP JUMPDEST SWAP1 POP SWAP2 SWAP1 POP JUMP JUMPDEST PUSH2 0x41D DUP2 PUSH2 0x402 JUMP JUMPDEST DUP3 MSTORE POP POP JUMP JUMPDEST PUSH1 0x0 PUSH1 0x20 DUP3 ADD SWAP1 POP PUSH2 0x438 PUSH1 0x0 DUP4 ADD DUP5 PUSH2 0x414 JUMP JUMPDEST SWAP3 SWAP2 POP POP JUMP JUMPDEST PUSH2 0x447 DUP2 PUSH2 0x312 JUMP JUMPDEST DUP2 EQ PUSH2 0x452 JUMPI PUSH1 0x0 DUP1 REVERT JUMPDEST POP JUMP JUMPDEST PUSH1 0x0 DUP2 CALLDATALOAD SWAP1 POP PUSH2 0x464 DUP2 PUSH2 0x43E JUMP JUMPDEST SWAP3 SWAP2 POP POP JUMP JUMPDEST PUSH1 0x0 PUSH1 0x20 DUP3 DUP5 SUB SLT ISZERO PUSH2 0x480 JUMPI PUSH2 0x47F PUSH2 0x348 JUMP JUMPDEST JUMPDEST PUSH1 0x0 PUSH2 0x48E DUP5 DUP3 DUP6 ADD PUSH2 0x455 JUMP JUMPDEST SWAP2 POP POP SWAP3 SWAP2 POP POP JUMP JUMPDEST PUSH1 0x0 DUP3 DUP3 MSTORE PUSH1 0x20 DUP3 ADD SWAP1 POP SWAP3 SWAP2 POP POP JUMP JUMPDEST PUSH32 0x4F707352656164793A206F6E6C794F7073000000000000000000000000000000 PUSH1 0x0 DUP3 ADD MSTORE POP JUMP JUMPDEST PUSH1 0x0 PUSH2 0x4DE PUSH1 0x11 DUP4 PUSH2 0x497 JUMP JUMPDEST SWAP2 POP PUSH2 0x4E9 DUP3 PUSH2 0x4A8 JUMP JUMPDEST PUSH1 0x20 DUP3 ADD SWAP1 POP SWAP2 SWAP1 POP JUMP JUMPDEST PUSH1 0x0 PUSH1 0x20 DUP3 ADD SWAP1 POP DUP2 DUP2 SUB PUSH1 0x0 DUP4 ADD MSTORE PUSH2 0x50D DUP2 PUSH2 0x4D1 JUMP JUMPDEST SWAP1 POP SWAP2 SWAP1 POP JUMP JUMPDEST PUSH32 0x436F756E74657254696D65645461736B3A20696E637265617365436F756E743A PUSH1 0x0 DUP3 ADD MSTORE PUSH32 0x204E6F742065786563757461626C650000000000000000000000000000000000 PUSH1 0x20 DUP3 ADD MSTORE POP JUMP JUMPDEST PUSH1 0x0 PUSH2 0x570 PUSH1 0x2F DUP4 PUSH2 0x497 JUMP JUMPDEST SWAP2 POP PUSH2 0x57B DUP3 PUSH2 0x514 JUMP JUMPDEST PUSH1 0x40 DUP3 ADD SWAP1 POP SWAP2 SWAP1 POP JUMP JUMPDEST PUSH1 0x0 PUSH1 0x20 DUP3 ADD SWAP1 POP DUP2 DUP2 SUB PUSH1 0x0 DUP4 ADD MSTORE PUSH2 0x59F DUP2 PUSH2 0x563 JUMP JUMPDEST SWAP1 POP SWAP2 SWAP1 POP JUMP JUMPDEST PUSH32 0x4E487B7100000000000000000000000000000000000000000000000000000000 PUSH1 0x0 MSTORE PUSH1 0x11 PUSH1 0x4 MSTORE PUSH1 0x24 PUSH1 0x0 REVERT JUMPDEST PUSH1 0x0 PUSH2 0x5E0 DUP3 PUSH2 0x2DE JUMP JUMPDEST SWAP2 POP PUSH2 0x5EB DUP4 PUSH2 0x2DE JUMP JUMPDEST SWAP3 POP DUP3 PUSH32 0xFFFFFFFFFFFFFFFFFFFFFFFFFFFFFFFFFFFFFFFFFFFFFFFFFFFFFFFFFFFFFFFF SUB DUP3 GT ISZERO PUSH2 0x620 JUMPI PUSH2 0x61F PUSH2 0x5A6 JUMP JUMPDEST JUMPDEST DUP3 DUP3 ADD SWAP1 POP SWAP3 SWAP2 POP POP JUMP INVALID LOG2 PUSH5 0x6970667358 0x22 SLT KECCAK256 0x29 CODECOPY 0xF ADDMOD BALANCE PUSH8 0x71BC77204AD93B90 0xBA PUSH23 0x85A8A7D15B27C201A8B96CF10B374E1464736F6C634300 ADDMOD ADDMOD STOP CALLER "
		},
		"gasEstimates": {
			"creation": {
				"codeDepositCost": "326600",
				"executionCost": "infinite",
				"totalCost": "infinite"
			},
			"external": {
				"ETH()": "400",
				"count()": "2430",
				"executable()": "2494",
				"gelato()": "infinite",
				"increaseCount(uint256)": "infinite",
				"ops()": "infinite",
				"setExecutable(bool)": "24723"
			}
		},
		"methodIdentifiers": {
			"ETH()": "8322fff2",
			"count()": "06661abd",
			"executable()": "16131a18",
			"gelato()": "573ea575",
			"increaseCount(uint256)": "46d4adf2",
			"ops()": "e70abe92",
			"setExecutable(bool)": "bfdd1c89"
		}
	},
	"abi": [
		{
			"inputs": [
				{
					"internalType": "address payable",
					"name": "_ops",
					"type": "address"
				}
			],
			"stateMutability": "nonpayable",
			"type": "constructor"
		},
		{
			"inputs": [],
			"name": "ETH",
			"outputs": [
				{
					"internalType": "address",
					"name": "",
					"type": "address"
				}
			],
			"stateMutability": "view",
			"type": "function"
		},
		{
			"inputs": [],
			"name": "count",
			"outputs": [
				{
					"internalType": "uint256",
					"name": "",
					"type": "uint256"
				}
			],
			"stateMutability": "view",
			"type": "function"
		},
		{
			"inputs": [],
			"name": "executable",
			"outputs": [
				{
					"internalType": "bool",
					"name": "",
					"type": "bool"
				}
			],
			"stateMutability": "view",
			"type": "function"
		},
		{
			"inputs": [],
			"name": "gelato",
			"outputs": [
				{
					"internalType": "address payable",
					"name": "",
					"type": "address"
				}
			],
			"stateMutability": "view",
			"type": "function"
		},
		{
			"inputs": [
				{
					"internalType": "uint256",
					"name": "amount",
					"type": "uint256"
				}
			],
			"name": "increaseCount",
			"outputs": [],
			"stateMutability": "nonpayable",
			"type": "function"
		},
		{
			"inputs": [],
			"name": "ops",
			"outputs": [
				{
					"internalType": "address",
					"name": "",
					"type": "address"
				}
			],
			"stateMutability": "view",
			"type": "function"
		},
		{
			"inputs": [
				{
					"internalType": "bool",
					"name": "_executable",
					"type": "bool"
				}
			],
			"name": "setExecutable",
			"outputs": [],
			"stateMutability": "nonpayable",
			"type": "function"
		}
	]
}