{
  "_format": "hh-sol-artifact-1",
  "contractName": "Beacon",
  "sourceName": "contracts/Beacon.sol",
  "abi": [
    {
      "inputs": [
        {
          "internalType": "address",
          "name": "_SquiddyCore",
          "type": "address"
        }
      ],
      "stateMutability": "nonpayable",
      "type": "constructor"
    },
    {
      "anonymous": false,
      "inputs": [
        {
          "indexed": true,
          "internalType": "address",
          "name": "previousOwner",
          "type": "address"
        },
        {
          "indexed": true,
          "internalType": "address",
          "name": "newOwner",
          "type": "address"
        }
      ],
      "name": "OwnershipTransferred",
      "type": "event"
    },
    {
      "inputs": [],
      "name": "SquiddyCore",
      "outputs": [
        {
          "internalType": "address",
          "name": "",
          "type": "address"
        }
      ],
      "stateMutability": "view",
      "type": "function"
    },
    {
      "inputs": [],
      "name": "implementation",
      "outputs": [
        {
          "internalType": "address",
          "name": "",
          "type": "address"
        }
      ],
      "stateMutability": "view",
      "type": "function"
    },
    {
      "inputs": [],
      "name": "owner",
      "outputs": [
        {
          "internalType": "address",
          "name": "",
          "type": "address"
        }
      ],
      "stateMutability": "view",
      "type": "function"
    },
    {
      "inputs": [],
      "name": "renounceOwnership",
      "outputs": [],
      "stateMutability": "nonpayable",
      "type": "function"
    },
    {
      "inputs": [
        {
          "internalType": "address",
          "name": "newOwner",
          "type": "address"
        }
      ],
      "name": "transferOwnership",
      "outputs": [],
      "stateMutability": "nonpayable",
      "type": "function"
    },
    {
      "inputs": [
        {
          "internalType": "address",
          "name": "_newSquiddyCore",
          "type": "address"
        }
      ],
      "name": "update",
      "outputs": [],
      "stateMutability": "nonpayable",
      "type": "function"
    }
  ],
  "bytecode": "0x60a06040523480156200001157600080fd5b506040516200332838038062003328833981810160405281019062000037919062000ae2565b6200006b7f15e5580772ed245bd2f4987a57f4debee57603b2e677a640de1fe4ec2da5644360001b6200031760201b60201c565b6200009f7ffe48e7bc7e6a7b94025ea196b45bfd70a69870784b74161b392e08376d7be99c60001b6200031760201b60201c565b620000d37fd0cda1f260b02a5077428ee5ba2502e73a1c7ebe92c7efe957b3c367d6ea754160001b6200031760201b60201c565b620000e4336200031a60201b60201c565b620001187f407efeb7b41890a259163d2c023b93dfa9364d500a00f8ba92bd4601285694a460001b6200054a60201b60201c565b6200014c7f5875d0db4d99cfdcc8f5c7015a5abf436943a5c33fe0c6ce4493fb65f0a3ce9260001b6200054a60201b60201c565b620001807f28292c7d333cab2f119853378400499faca1167a934a68c559ae7d06600d7d6f60001b6200054a60201b60201c565b806040516200018f9062000a6a565b6200019b919062000b25565b604051809103906000f080158015620001b8573d6000803e3d6000fd5b5073ffffffffffffffffffffffffffffffffffffffff1660808173ffffffffffffffffffffffffffffffffffffffff1660601b81525050620002227e6dd44ead9c1d13e26d98d8a0a68c386e602dc23aab13664f3506066af95c9760001b6200054a60201b60201c565b620002567fe91b97d7d0b1a60332cc4d02c491716d74bbbe52eda6315d8642ec9d66aa78bf60001b6200054a60201b60201c565b80600160006101000a81548173ffffffffffffffffffffffffffffffffffffffff021916908373ffffffffffffffffffffffffffffffffffffffff160217905550620002cb7fe9cc06dc2b084d3b2864396e7a374f582ea9ddbaec35f617a98589fc7f3c781760001b6200054a60201b60201c565b620002ff7f777c01cf415757e76e1e218839ab6d6646c8930f33bba4cf6eac85143cfc8cbe60001b6200054a60201b60201c565b62000310326200054d60201b60201c565b5062000c5d565b50565b6200034e7fc324cfdab8d5c27d73a9ee5dfcb4bce21b4a7cb6ddc34f90977317bb941e999a60001b6200031760201b60201c565b620003827fdcef3b3e4c1f890f0ee8962b4aa5047c88a5c9c333404b18f24d74c11ada4a3460001b6200031760201b60201c565b620003b67fa05f90c6676d7997fb18cc10e894b141720338d42727aafedafc8f98cedf5ba760001b6200031760201b60201c565b60008060009054906101000a900473ffffffffffffffffffffffffffffffffffffffff169050620004107f73b81b5a1b549e780f75a0d4033c06301955c5d8b7fd84f1187d61da8da0a4bc60001b6200031760201b60201c565b620004447f29a2c3925ea735c041d65233b393c87fd24e2d1faaa23fefa4e2fa393eec9e8960001b6200031760201b60201c565b816000806101000a81548173ffffffffffffffffffffffffffffffffffffffff021916908373ffffffffffffffffffffffffffffffffffffffff160217905550620004b87f128710db60f8800404838616ac276916e617bbd6f5d13703765c0e6039bb7cf960001b6200031760201b60201c565b620004ec7f46797aed52d2327a6c797d97648f1a75324486132d0bdbd79e4d529898b2712360001b6200031760201b60201c565b8173ffffffffffffffffffffffffffffffffffffffff168173ffffffffffffffffffffffffffffffffffffffff167f8be0079c531659141344cd1fd0a4f28419497f9722a3daafe3b4186f6b6457e060405160405180910390a35050565b50565b620005817f2f07460aa1bb5a75f129b35179a6dd3e115c80c14c45c90153c8f00618eaf4bf60001b6200031760201b60201c565b620005b57f991e1894caa8691f31e6db21fb9cbb92d37e3f6173c8f44131e1b172983cae6960001b6200031760201b60201c565b620005e97fe201be290de3adc141885d968be88a95ca38184fa6c0502026f4dc53f6bf070160001b6200031760201b60201c565b620005f96200082060201b60201c565b6200062d7fc8674ee09103eb73d2db5d7a283b75b824e8011e451213345b14b0c1fa76d44860001b6200031760201b60201c565b620006617f1677c2b1f1831bf9fd27239c0fb3bd1e3c5dbbbde9ad3223738f9274d03df70f60001b6200031760201b60201c565b620006957f425e3f96a2bf5e4b67c3146c6e6860f4d319cd533510acea8c837676e10f92da60001b6200031760201b60201c565b620006c97f62ee51e21c32a83b41269e18bf91189268f07a717a5b7c6bb9c460fa0615de0d60001b6200031760201b60201c565b620006fd7f5a111532ffd1fa083e23f807b8061bb1f71986c52b92204c04b0dc18e695ef9660001b6200031760201b60201c565b600073ffffffffffffffffffffffffffffffffffffffff168173ffffffffffffffffffffffffffffffffffffffff16141562000770576040517f08c379a0000000000000000000000000000000000000000000000000000000008152600401620007679062000bc9565b60405180910390fd5b620007a47f6a9787e703714938be1e1806406ce412402c7928c54c1136c06e59b0e6f8d1ad60001b6200031760201b60201c565b620007d87fed177be2eadfa4c9b22c0fd4468759e1511c31b5b8682d3452eeca180ed2418960001b6200031760201b60201c565b6200080c7f5541b764eda2c7bdf9a0e80a90673dc3c9859b57594c39128a08a9372da3300360001b6200031760201b60201c565b6200081d816200031a60201b60201c565b50565b620008547fb442cc05e56b89a42a8ca4a1f413c544b64d1f2dc68722807b810a4ecea962fb60001b6200031760201b60201c565b620008887fbc9bc84c1e8e3b7e1534457f5f22be4b0617899f529d6a34a78ca5eff1393b3060001b6200031760201b60201c565b620008bc7f149ef7277b105d5795493510856c6a45441fe39bafc553395655d74a55f8049860001b6200031760201b60201c565b620008f07f399fad5034421005a21b2246f8879ae31cd56464ab45d5946df616a73655b53c60001b6200031760201b60201c565b3373ffffffffffffffffffffffffffffffffffffffff1662000917620009a660201b60201c565b73ffffffffffffffffffffffffffffffffffffffff161462000970576040517f08c379a0000000000000000000000000000000000000000000000000000000008152600401620009679062000c3b565b60405180910390fd5b620009a47f5f024932b449d49cd4a1eaab7d221e17f1b4290c910c17672f04a412b42d445560001b6200031760201b60201c565b565b6000620009dc7fd96f2d7b8c7c8a3483514c182d2766208f3be4541d496021c6bc3650d425dfe960001b6200031760201b60201c565b62000a107f637ba82574ca757e84c0be34e9f22a827629e9b8aef763291bcb081737d49ad160001b6200031760201b60201c565b62000a447f8693162164ab7fc24691fa5d65acfc71fea92a472cfea95984c48527aef78c2e60001b6200031760201b60201c565b60008054906101000a900473ffffffffffffffffffffffffffffffffffffffff16905090565b6118028062001b2683390190565b600080fd5b600073ffffffffffffffffffffffffffffffffffffffff82169050919050565b600062000aaa8262000a7d565b9050919050565b62000abc8162000a9d565b811462000ac857600080fd5b50565b60008151905062000adc8162000ab1565b92915050565b60006020828403121562000afb5762000afa62000a78565b5b600062000b0b8482850162000acb565b91505092915050565b62000b1f8162000a9d565b82525050565b600060208201905062000b3c600083018462000b14565b92915050565b600082825260208201905092915050565b7f4f776e61626c653a206e6577206f776e657220697320746865207a65726f206160008201527f6464726573730000000000000000000000000000000000000000000000000000602082015250565b600062000bb160268362000b42565b915062000bbe8262000b53565b604082019050919050565b6000602082019050818103600083015262000be48162000ba2565b9050919050565b7f4f776e61626c653a2063616c6c6572206973206e6f7420746865206f776e6572600082015250565b600062000c2360208362000b42565b915062000c308262000beb565b602082019050919050565b6000602082019050818103600083015262000c568162000c14565b9050919050565b60805160601c610ea362000c836000396000818161024101526103ee0152610ea36000f3fe608060405234801561001057600080fd5b50600436106100625760003560e01c80631c1b8772146100675780635c60da1b146100835780635fe810b3146100a1578063715018a6146100bf5780638da5cb5b146100c9578063f2fde38b146100e7575b600080fd5b610081600480360381019061007c9190610cc5565b610103565b005b61008b610366565b6040516100989190610d01565b60405180910390f35b6100a961048f565b6040516100b69190610d01565b60405180910390f35b6100c76104b5565b005b6100d16105fd565b6040516100de9190610d01565b60405180910390f35b61010160048036038101906100fc9190610cc5565b6106a9565b005b61012f7f2f07460aa1bb5a75f129b35179a6dd3e115c80c14c45c90153c8f00618eaf4bf60001b610911565b61015b7f991e1894caa8691f31e6db21fb9cbb92d37e3f6173c8f44131e1b172983cae6960001b610911565b6101877fe201be290de3adc141885d968be88a95ca38184fa6c0502026f4dc53f6bf070160001b610911565b61018f610914565b6101bb7fc8674ee09103eb73d2db5d7a283b75b824e8011e451213345b14b0c1fa76d44860001b610911565b6101e77f23421fe60cc71905ae98e1af2de31998019011f640b3e7c679f9bce9ec1720a260001b610a67565b6102137f668cc587cf3c88d85ff324cef8b892fd57ce29fe384e5640b0eefde2be8da73960001b610a67565b61023f7f4f9213d6948d130c5c1a6899f66ee242034ab51630eb5b403fb09e368770ea9760001b610a67565b7f000000000000000000000000000000000000000000000000000000000000000073ffffffffffffffffffffffffffffffffffffffff16633659cfe6826040518263ffffffff1660e01b81526004016102989190610d01565b600060405180830381600087803b1580156102b257600080fd5b505af11580156102c6573d6000803e3d6000fd5b505050506102f67fffdf08e42d3b26c14dc12674d98bf51bfbfbdd8d52c8b27081885b52d37a042360001b610a67565b6103227fff4a7328da60a13ec12a01beebc906380bca75fcb24db3db768ad719d58ebd3e60001b610a67565b80600160006101000a81548173ffffffffffffffffffffffffffffffffffffffff021916908373ffffffffffffffffffffffffffffffffffffffff16021790555050565b60006103947f89ca9e1943336819a7686c9d36d9f5d97ed253db2b8ee1918e6c200bd4d227a660001b610a67565b6103c07ff53193b6b32e34dc916804aa488063bb7cbd31f7ee8823b8fe4454c3a6e9f11160001b610a67565b6103ec7f55d849e6e4bcdc9d3ca6c24bedbc264d6b5392ed6d0eef2edca05baba1a5186c60001b610a67565b7f000000000000000000000000000000000000000000000000000000000000000073ffffffffffffffffffffffffffffffffffffffff16635c60da1b6040518163ffffffff1660e01b815260040160206040518083038186803b15801561045257600080fd5b505afa158015610466573d6000803e3d6000fd5b505050506040513d601f19601f8201168201806040525081019061048a9190610d31565b905090565b600160009054906101000a900473ffffffffffffffffffffffffffffffffffffffff1681565b6104e17f2f07460aa1bb5a75f129b35179a6dd3e115c80c14c45c90153c8f00618eaf4bf60001b610911565b61050d7f991e1894caa8691f31e6db21fb9cbb92d37e3f6173c8f44131e1b172983cae6960001b610911565b6105397fe201be290de3adc141885d968be88a95ca38184fa6c0502026f4dc53f6bf070160001b610911565b610541610914565b61056d7fc8674ee09103eb73d2db5d7a283b75b824e8011e451213345b14b0c1fa76d44860001b610911565b6105997fca6510e773860b716aa3ac9fc98645a498ab7f409a2d26ac01b388584a779e4960001b610911565b6105c57f8fc1aea2b9a503b9874bc3d739e65e4504f13c320dabe895c8d1a7e6f89adb5b60001b610911565b6105f17f808af505074908d457b658b8a7a6c3683088f5830fdf3e96151516491a08ba1060001b610911565b6105fb6000610a6a565b565b600061062b7fd96f2d7b8c7c8a3483514c182d2766208f3be4541d496021c6bc3650d425dfe960001b610911565b6106577f637ba82574ca757e84c0be34e9f22a827629e9b8aef763291bcb081737d49ad160001b610911565b6106837f8693162164ab7fc24691fa5d65acfc71fea92a472cfea95984c48527aef78c2e60001b610911565b60008054906101000a900473ffffffffffffffffffffffffffffffffffffffff16905090565b6106d57f2f07460aa1bb5a75f129b35179a6dd3e115c80c14c45c90153c8f00618eaf4bf60001b610911565b6107017f991e1894caa8691f31e6db21fb9cbb92d37e3f6173c8f44131e1b172983cae6960001b610911565b61072d7fe201be290de3adc141885d968be88a95ca38184fa6c0502026f4dc53f6bf070160001b610911565b610735610914565b6107617fc8674ee09103eb73d2db5d7a283b75b824e8011e451213345b14b0c1fa76d44860001b610911565b61078d7f1677c2b1f1831bf9fd27239c0fb3bd1e3c5dbbbde9ad3223738f9274d03df70f60001b610911565b6107b97f425e3f96a2bf5e4b67c3146c6e6860f4d319cd533510acea8c837676e10f92da60001b610911565b6107e57f62ee51e21c32a83b41269e18bf91189268f07a717a5b7c6bb9c460fa0615de0d60001b610911565b6108117f5a111532ffd1fa083e23f807b8061bb1f71986c52b92204c04b0dc18e695ef9660001b610911565b600073ffffffffffffffffffffffffffffffffffffffff168173ffffffffffffffffffffffffffffffffffffffff161415610881576040517f08c379a000000000000000000000000000000000000000000000000000000000815260040161087890610de1565b60405180910390fd5b6108ad7f6a9787e703714938be1e1806406ce412402c7928c54c1136c06e59b0e6f8d1ad60001b610911565b6108d97fed177be2eadfa4c9b22c0fd4468759e1511c31b5b8682d3452eeca180ed2418960001b610911565b6109057f5541b764eda2c7bdf9a0e80a90673dc3c9859b57594c39128a08a9372da3300360001b610911565b61090e81610a6a565b50565b50565b6109407fb442cc05e56b89a42a8ca4a1f413c544b64d1f2dc68722807b810a4ecea962fb60001b610911565b61096c7fbc9bc84c1e8e3b7e1534457f5f22be4b0617899f529d6a34a78ca5eff1393b3060001b610911565b6109987f149ef7277b105d5795493510856c6a45441fe39bafc553395655d74a55f8049860001b610911565b6109c47f399fad5034421005a21b2246f8879ae31cd56464ab45d5946df616a73655b53c60001b610911565b3373ffffffffffffffffffffffffffffffffffffffff166109e36105fd565b73ffffffffffffffffffffffffffffffffffffffff1614610a39576040517f08c379a0000000000000000000000000000000000000000000000000000000008152600401610a3090610e4d565b60405180910390fd5b610a657f5f024932b449d49cd4a1eaab7d221e17f1b4290c910c17672f04a412b42d445560001b610911565b565b50565b610a967fc324cfdab8d5c27d73a9ee5dfcb4bce21b4a7cb6ddc34f90977317bb941e999a60001b610911565b610ac27fdcef3b3e4c1f890f0ee8962b4aa5047c88a5c9c333404b18f24d74c11ada4a3460001b610911565b610aee7fa05f90c6676d7997fb18cc10e894b141720338d42727aafedafc8f98cedf5ba760001b610911565b60008060009054906101000a900473ffffffffffffffffffffffffffffffffffffffff169050610b407f73b81b5a1b549e780f75a0d4033c06301955c5d8b7fd84f1187d61da8da0a4bc60001b610911565b610b6c7f29a2c3925ea735c041d65233b393c87fd24e2d1faaa23fefa4e2fa393eec9e8960001b610911565b816000806101000a81548173ffffffffffffffffffffffffffffffffffffffff021916908373ffffffffffffffffffffffffffffffffffffffff160217905550610bd87f128710db60f8800404838616ac276916e617bbd6f5d13703765c0e6039bb7cf960001b610911565b610c047f46797aed52d2327a6c797d97648f1a75324486132d0bdbd79e4d529898b2712360001b610911565b8173ffffffffffffffffffffffffffffffffffffffff168173ffffffffffffffffffffffffffffffffffffffff167f8be0079c531659141344cd1fd0a4f28419497f9722a3daafe3b4186f6b6457e060405160405180910390a35050565b600080fd5b600073ffffffffffffffffffffffffffffffffffffffff82169050919050565b6000610c9282610c67565b9050919050565b610ca281610c87565b8114610cad57600080fd5b50565b600081359050610cbf81610c99565b92915050565b600060208284031215610cdb57610cda610c62565b5b6000610ce984828501610cb0565b91505092915050565b610cfb81610c87565b82525050565b6000602082019050610d166000830184610cf2565b92915050565b600081519050610d2b81610c99565b92915050565b600060208284031215610d4757610d46610c62565b5b6000610d5584828501610d1c565b91505092915050565b600082825260208201905092915050565b7f4f776e61626c653a206e6577206f776e657220697320746865207a65726f206160008201527f6464726573730000000000000000000000000000000000000000000000000000602082015250565b6000610dcb602683610d5e565b9150610dd682610d6f565b604082019050919050565b60006020820190508181036000830152610dfa81610dbe565b9050919050565b7f4f776e61626c653a2063616c6c6572206973206e6f7420746865206f776e6572600082015250565b6000610e37602083610d5e565b9150610e4282610e01565b602082019050919050565b60006020820190508181036000830152610e6681610e2a565b905091905056fea2646970667358221220020600e82bdc9f0996813a06c69fce72f875fd4e38c5752ed58bc1fd5dd563e064736f6c6343000808003360806040523480156200001157600080fd5b506040516200180238038062001802833981810160405281019062000037919062000703565b6200006b7f15e5580772ed245bd2f4987a57f4debee57603b2e677a640de1fe4ec2da5644360001b6200019860201b60201c565b6200009f7ffe48e7bc7e6a7b94025ea196b45bfd70a69870784b74161b392e08376d7be99c60001b6200019860201b60201c565b620000d37fd0cda1f260b02a5077428ee5ba2502e73a1c7ebe92c7efe957b3c367d6ea754160001b6200019860201b60201c565b620000e4336200019b60201b60201c565b620001187fc3ecdedddd5081deee66a9564ec33f7161376a56d8f98760dfe23ee9ec8d9cb260001b620003cb60201b60201c565b6200014c7fe696adb72f19185d82065fdea2ae0e60f563ac9cf1ff96e63a1ed505cce1045e60001b620003cb60201b60201c565b620001807f59e6b4b7cbe038fabcbefff28b788e6a5f2537a065ebef2ba17a0b121910a84760001b620003cb60201b60201c565b6200019181620003ce60201b60201c565b50620007de565b50565b620001cf7fc324cfdab8d5c27d73a9ee5dfcb4bce21b4a7cb6ddc34f90977317bb941e999a60001b6200019860201b60201c565b620002037fdcef3b3e4c1f890f0ee8962b4aa5047c88a5c9c333404b18f24d74c11ada4a3460001b6200019860201b60201c565b620002377fa05f90c6676d7997fb18cc10e894b141720338d42727aafedafc8f98cedf5ba760001b6200019860201b60201c565b60008060009054906101000a900473ffffffffffffffffffffffffffffffffffffffff169050620002917f73b81b5a1b549e780f75a0d4033c06301955c5d8b7fd84f1187d61da8da0a4bc60001b6200019860201b60201c565b620002c57f29a2c3925ea735c041d65233b393c87fd24e2d1faaa23fefa4e2fa393eec9e8960001b6200019860201b60201c565b816000806101000a81548173ffffffffffffffffffffffffffffffffffffffff021916908373ffffffffffffffffffffffffffffffffffffffff160217905550620003397f128710db60f8800404838616ac276916e617bbd6f5d13703765c0e6039bb7cf960001b6200019860201b60201c565b6200036d7f46797aed52d2327a6c797d97648f1a75324486132d0bdbd79e4d529898b2712360001b6200019860201b60201c565b8173ffffffffffffffffffffffffffffffffffffffff168173ffffffffffffffffffffffffffffffffffffffff167f8be0079c531659141344cd1fd0a4f28419497f9722a3daafe3b4186f6b6457e060405160405180910390a35050565b50565b620004027f421cad2af04a83b555070f04b2799a62b004a93ed5532425b702197581ed303860001b620003cb60201b60201c565b620004367f563e2c645f4aae72bd26d79884905e7db0a4e5b2b15318c653fe9b99e3c51e5760001b620003cb60201b60201c565b6200046a7f783dacc556b6ff183d25c64f3e9d71debefa25925c2e97df649592c9806e9fd460001b620003cb60201b60201c565b6200049e7ffd1189d82b8bf2d5c3f591ff65b7edd51fb072b0d27c049223c5ad4b62f1d71460001b620003cb60201b60201c565b620004b481620005d660201b620007c71760201c565b620004f6576040517f08c379a0000000000000000000000000000000000000000000000000000000008152600401620004ed90620007bc565b60405180910390fd5b6200052a7f1544f67f3cb503427e649cc03b21c1c50deadcd2f696f59f4c6ff825713e881e60001b620003cb60201b60201c565b6200055e7fe428574fa5010eaddda3cb8e414b52e25e27501591d6300b3b391c86afa6c03360001b620003cb60201b60201c565b620005927f877cb943768d8d4695bca23edf0186073a51267fb168403bf78299f01c9da82260001b620003cb60201b60201c565b80600160006101000a81548173ffffffffffffffffffffffffffffffffffffffff021916908373ffffffffffffffffffffffffffffffffffffffff16021790555050565b60006200060c7f7b2621245b02878c2d20f75cf0f9364d541ebf0b591954cc7842f75aefb4604560001b6200069660201b60201c565b620006407fff7ccd0f10dd2c1fbf0df485f26275d5462575765bee56088dcb0afac38ba9db60001b6200069660201b60201c565b620006747f57ca8476c3acbd433fca96575cea08f5da3cda5032c2042f6487d5b4ad0e1c5960001b6200069660201b60201c565b60008273ffffffffffffffffffffffffffffffffffffffff163b119050919050565b50565b600080fd5b600073ffffffffffffffffffffffffffffffffffffffff82169050919050565b6000620006cb826200069e565b9050919050565b620006dd81620006be565b8114620006e957600080fd5b50565b600081519050620006fd81620006d2565b92915050565b6000602082840312156200071c576200071b62000699565b5b60006200072c84828501620006ec565b91505092915050565b600082825260208201905092915050565b7f5570677261646561626c65426561636f6e3a20696d706c656d656e746174696f60008201527f6e206973206e6f74206120636f6e747261637400000000000000000000000000602082015250565b6000620007a460338362000735565b9150620007b18262000746565b604082019050919050565b60006020820190508181036000830152620007d78162000795565b9050919050565b61101480620007ee6000396000f3fe608060405234801561001057600080fd5b50600436106100575760003560e01c80633659cfe61461005c5780635c60da1b14610078578063715018a6146100965780638da5cb5b146100a0578063f2fde38b146100be575b600080fd5b61007660048036038101906100719190610de6565b6100da565b005b6100806102bd565b60405161008d9190610e22565b60405180910390f35b61009e61036b565b005b6100a86104b3565b6040516100b59190610e22565b60405180910390f35b6100d860048036038101906100d39190610de6565b61055f565b005b6101067f2f07460aa1bb5a75f129b35179a6dd3e115c80c14c45c90153c8f00618eaf4bf60001b61086f565b6101327f991e1894caa8691f31e6db21fb9cbb92d37e3f6173c8f44131e1b172983cae6960001b61086f565b61015e7fe201be290de3adc141885d968be88a95ca38184fa6c0502026f4dc53f6bf070160001b61086f565b610166610872565b6101927fc8674ee09103eb73d2db5d7a283b75b824e8011e451213345b14b0c1fa76d44860001b61086f565b6101be7fd45ea4cce40d05bf468de09e8a64b22df05cd5dbe104ff29f66479a0ce77bbf560001b6109c5565b6101ea7f62d598970a121662a6e9f6657e337787dd2e5ac82766c2b386093f7cd2a3f35060001b6109c5565b6102167f901f7926cc8613a436deddc62bbb5ee20f818fb25af9e734ea1963fa72d2327760001b6109c5565b61021f816109c8565b61024b7f84aa6e0abe83b2c1b9a96a2e0919c6481d98ba801327711881aaf35d9281be4560001b6109c5565b6102777fbb39c497c420ae44e5612a8383a94babf9d412e53322ca752c1bb4d055223a5b60001b6109c5565b8073ffffffffffffffffffffffffffffffffffffffff167fbc7cd75a20ee27fd9adebab32041f755214dbc6bffa90cc0225b39da2e5c2d3b60405160405180910390a250565b60006102eb7f57b967a63050bbf0dfc84e123471cce2c5c800e6f96fe5c61ca0919b9781472360001b6109c5565b6103177f56586abcacb1d8a8b188dd029bc3dea263f18a6c42515d9f0e4f080207b1e06360001b6109c5565b6103437f8f5b9872390950d9c98c494f84c724544511b2a70d353b6fd9988db9775f73d760001b6109c5565b600160009054906101000a900473ffffffffffffffffffffffffffffffffffffffff16905090565b6103977f2f07460aa1bb5a75f129b35179a6dd3e115c80c14c45c90153c8f00618eaf4bf60001b61086f565b6103c37f991e1894caa8691f31e6db21fb9cbb92d37e3f6173c8f44131e1b172983cae6960001b61086f565b6103ef7fe201be290de3adc141885d968be88a95ca38184fa6c0502026f4dc53f6bf070160001b61086f565b6103f7610872565b6104237fc8674ee09103eb73d2db5d7a283b75b824e8011e451213345b14b0c1fa76d44860001b61086f565b61044f7fca6510e773860b716aa3ac9fc98645a498ab7f409a2d26ac01b388584a779e4960001b61086f565b61047b7f8fc1aea2b9a503b9874bc3d739e65e4504f13c320dabe895c8d1a7e6f89adb5b60001b61086f565b6104a77f808af505074908d457b658b8a7a6c3683088f5830fdf3e96151516491a08ba1060001b61086f565b6104b16000610b88565b565b60006104e17fd96f2d7b8c7c8a3483514c182d2766208f3be4541d496021c6bc3650d425dfe960001b61086f565b61050d7f637ba82574ca757e84c0be34e9f22a827629e9b8aef763291bcb081737d49ad160001b61086f565b6105397f8693162164ab7fc24691fa5d65acfc71fea92a472cfea95984c48527aef78c2e60001b61086f565b60008054906101000a900473ffffffffffffffffffffffffffffffffffffffff16905090565b61058b7f2f07460aa1bb5a75f129b35179a6dd3e115c80c14c45c90153c8f00618eaf4bf60001b61086f565b6105b77f991e1894caa8691f31e6db21fb9cbb92d37e3f6173c8f44131e1b172983cae6960001b61086f565b6105e37fe201be290de3adc141885d968be88a95ca38184fa6c0502026f4dc53f6bf070160001b61086f565b6105eb610872565b6106177fc8674ee09103eb73d2db5d7a283b75b824e8011e451213345b14b0c1fa76d44860001b61086f565b6106437f1677c2b1f1831bf9fd27239c0fb3bd1e3c5dbbbde9ad3223738f9274d03df70f60001b61086f565b61066f7f425e3f96a2bf5e4b67c3146c6e6860f4d319cd533510acea8c837676e10f92da60001b61086f565b61069b7f62ee51e21c32a83b41269e18bf91189268f07a717a5b7c6bb9c460fa0615de0d60001b61086f565b6106c77f5a111532ffd1fa083e23f807b8061bb1f71986c52b92204c04b0dc18e695ef9660001b61086f565b600073ffffffffffffffffffffffffffffffffffffffff168173ffffffffffffffffffffffffffffffffffffffff161415610737576040517f08c379a000000000000000000000000000000000000000000000000000000000815260040161072e90610ec0565b60405180910390fd5b6107637f6a9787e703714938be1e1806406ce412402c7928c54c1136c06e59b0e6f8d1ad60001b61086f565b61078f7fed177be2eadfa4c9b22c0fd4468759e1511c31b5b8682d3452eeca180ed2418960001b61086f565b6107bb7f5541b764eda2c7bdf9a0e80a90673dc3c9859b57594c39128a08a9372da3300360001b61086f565b6107c481610b88565b50565b60006107f57f7b2621245b02878c2d20f75cf0f9364d541ebf0b591954cc7842f75aefb4604560001b610d80565b6108217fff7ccd0f10dd2c1fbf0df485f26275d5462575765bee56088dcb0afac38ba9db60001b610d80565b61084d7f57ca8476c3acbd433fca96575cea08f5da3cda5032c2042f6487d5b4ad0e1c5960001b610d80565b60008273ffffffffffffffffffffffffffffffffffffffff163b119050919050565b50565b61089e7fb442cc05e56b89a42a8ca4a1f413c544b64d1f2dc68722807b810a4ecea962fb60001b61086f565b6108ca7fbc9bc84c1e8e3b7e1534457f5f22be4b0617899f529d6a34a78ca5eff1393b3060001b61086f565b6108f67f149ef7277b105d5795493510856c6a45441fe39bafc553395655d74a55f8049860001b61086f565b6109227f399fad5034421005a21b2246f8879ae31cd56464ab45d5946df616a73655b53c60001b61086f565b3373ffffffffffffffffffffffffffffffffffffffff166109416104b3565b73ffffffffffffffffffffffffffffffffffffffff1614610997576040517f08c379a000000000000000000000000000000000000000000000000000000000815260040161098e90610f2c565b60405180910390fd5b6109c37f5f024932b449d49cd4a1eaab7d221e17f1b4290c910c17672f04a412b42d445560001b61086f565b565b50565b6109f47f421cad2af04a83b555070f04b2799a62b004a93ed5532425b702197581ed303860001b6109c5565b610a207f563e2c645f4aae72bd26d79884905e7db0a4e5b2b15318c653fe9b99e3c51e5760001b6109c5565b610a4c7f783dacc556b6ff183d25c64f3e9d71debefa25925c2e97df649592c9806e9fd460001b6109c5565b610a787ffd1189d82b8bf2d5c3f591ff65b7edd51fb072b0d27c049223c5ad4b62f1d71460001b6109c5565b610a81816107c7565b610ac0576040517f08c379a0000000000000000000000000000000000000000000000000000000008152600401610ab790610fbe565b60405180910390fd5b610aec7f1544f67f3cb503427e649cc03b21c1c50deadcd2f696f59f4c6ff825713e881e60001b6109c5565b610b187fe428574fa5010eaddda3cb8e414b52e25e27501591d6300b3b391c86afa6c03360001b6109c5565b610b447f877cb943768d8d4695bca23edf0186073a51267fb168403bf78299f01c9da82260001b6109c5565b80600160006101000a81548173ffffffffffffffffffffffffffffffffffffffff021916908373ffffffffffffffffffffffffffffffffffffffff16021790555050565b610bb47fc324cfdab8d5c27d73a9ee5dfcb4bce21b4a7cb6ddc34f90977317bb941e999a60001b61086f565b610be07fdcef3b3e4c1f890f0ee8962b4aa5047c88a5c9c333404b18f24d74c11ada4a3460001b61086f565b610c0c7fa05f90c6676d7997fb18cc10e894b141720338d42727aafedafc8f98cedf5ba760001b61086f565b60008060009054906101000a900473ffffffffffffffffffffffffffffffffffffffff169050610c5e7f73b81b5a1b549e780f75a0d4033c06301955c5d8b7fd84f1187d61da8da0a4bc60001b61086f565b610c8a7f29a2c3925ea735c041d65233b393c87fd24e2d1faaa23fefa4e2fa393eec9e8960001b61086f565b816000806101000a81548173ffffffffffffffffffffffffffffffffffffffff021916908373ffffffffffffffffffffffffffffffffffffffff160217905550610cf67f128710db60f8800404838616ac276916e617bbd6f5d13703765c0e6039bb7cf960001b61086f565b610d227f46797aed52d2327a6c797d97648f1a75324486132d0bdbd79e4d529898b2712360001b61086f565b8173ffffffffffffffffffffffffffffffffffffffff168173ffffffffffffffffffffffffffffffffffffffff167f8be0079c531659141344cd1fd0a4f28419497f9722a3daafe3b4186f6b6457e060405160405180910390a35050565b50565b600080fd5b600073ffffffffffffffffffffffffffffffffffffffff82169050919050565b6000610db382610d88565b9050919050565b610dc381610da8565b8114610dce57600080fd5b50565b600081359050610de081610dba565b92915050565b600060208284031215610dfc57610dfb610d83565b5b6000610e0a84828501610dd1565b91505092915050565b610e1c81610da8565b82525050565b6000602082019050610e376000830184610e13565b92915050565b600082825260208201905092915050565b7f4f776e61626c653a206e6577206f776e657220697320746865207a65726f206160008201527f6464726573730000000000000000000000000000000000000000000000000000602082015250565b6000610eaa602683610e3d565b9150610eb582610e4e565b604082019050919050565b60006020820190508181036000830152610ed981610e9d565b9050919050565b7f4f776e61626c653a2063616c6c6572206973206e6f7420746865206f776e6572600082015250565b6000610f16602083610e3d565b9150610f2182610ee0565b602082019050919050565b60006020820190508181036000830152610f4581610f09565b9050919050565b7f5570677261646561626c65426561636f6e3a20696d706c656d656e746174696f60008201527f6e206973206e6f74206120636f6e747261637400000000000000000000000000602082015250565b6000610fa8603383610e3d565b9150610fb382610f4c565b604082019050919050565b60006020820190508181036000830152610fd781610f9b565b905091905056fea26469706673582212201965993c067caac999baf522f4ce9e505edf705eb0bf54c48dabb42983ee479064736f6c63430008080033",
  "linkReferences": {},
  "deployedLinkReferences": {}
}