{
  "_format": "hh-sol-artifact-1",
  "contractName": "Beacon",
  "sourceName": "contracts/Beacon.sol",
  "abi": [
    {
      "inputs": [
        {
          "internalType": "address",
          "name": "_SquiddyCore",
          "type": "address"
        }
      ],
      "stateMutability": "nonpayable",
      "type": "constructor"
    },
    {
      "anonymous": false,
      "inputs": [
        {
          "indexed": true,
          "internalType": "address",
          "name": "previousOwner",
          "type": "address"
        },
        {
          "indexed": true,
          "internalType": "address",
          "name": "newOwner",
          "type": "address"
        }
      ],
      "name": "OwnershipTransferred",
      "type": "event"
    },
    {
      "inputs": [],
      "name": "SquiddyCore",
      "outputs": [
        {
          "internalType": "address",
          "name": "",
          "type": "address"
        }
      ],
      "stateMutability": "view",
      "type": "function"
    },
    {
      "inputs": [],
      "name": "implementation",
      "outputs": [
        {
          "internalType": "address",
          "name": "",
          "type": "address"
        }
      ],
      "stateMutability": "view",
      "type": "function"
    },
    {
      "inputs": [],
      "name": "owner",
      "outputs": [
        {
          "internalType": "address",
          "name": "",
          "type": "address"
        }
      ],
      "stateMutability": "view",
      "type": "function"
    },
    {
      "inputs": [],
      "name": "renounceOwnership",
      "outputs": [],
      "stateMutability": "nonpayable",
      "type": "function"
    },
    {
      "inputs": [
        {
          "internalType": "address",
          "name": "newOwner",
          "type": "address"
        }
      ],
      "name": "transferOwnership",
      "outputs": [],
      "stateMutability": "nonpayable",
      "type": "function"
    },
    {
      "inputs": [
        {
          "internalType": "address",
          "name": "_newSquiddyCore",
          "type": "address"
        }
      ],
      "name": "update",
      "outputs": [],
      "stateMutability": "nonpayable",
      "type": "function"
    }
  ],
  "bytecode": "0x60a06040523480156200001157600080fd5b50604051620015bd380380620015bd83398181016040528101906200003791906200038e565b62000048336200011060201b60201c565b80604051620000579062000316565b620000639190620003d1565b604051809103906000f08015801562000080573d6000803e3d6000fd5b5073ffffffffffffffffffffffffffffffffffffffff1660808173ffffffffffffffffffffffffffffffffffffffff1660601b8152505080600160006101000a81548173ffffffffffffffffffffffffffffffffffffffff021916908373ffffffffffffffffffffffffffffffffffffffff1602179055506200010932620001d460201b60201c565b5062000509565b60008060009054906101000a900473ffffffffffffffffffffffffffffffffffffffff169050816000806101000a81548173ffffffffffffffffffffffffffffffffffffffff021916908373ffffffffffffffffffffffffffffffffffffffff1602179055508173ffffffffffffffffffffffffffffffffffffffff168173ffffffffffffffffffffffffffffffffffffffff167f8be0079c531659141344cd1fd0a4f28419497f9722a3daafe3b4186f6b6457e060405160405180910390a35050565b620001e46200026b60201b60201c565b600073ffffffffffffffffffffffffffffffffffffffff168173ffffffffffffffffffffffffffffffffffffffff16141562000257576040517f08c379a00000000000000000000000000000000000000000000000000000000081526004016200024e9062000475565b60405180910390fd5b62000268816200011060201b60201c565b50565b3373ffffffffffffffffffffffffffffffffffffffff1662000292620002ed60201b60201c565b73ffffffffffffffffffffffffffffffffffffffff1614620002eb576040517f08c379a0000000000000000000000000000000000000000000000000000000008152600401620002e290620004e7565b60405180910390fd5b565b60008060009054906101000a900473ffffffffffffffffffffffffffffffffffffffff16905090565b6109ac8062000c1183390190565b600080fd5b600073ffffffffffffffffffffffffffffffffffffffff82169050919050565b6000620003568262000329565b9050919050565b620003688162000349565b81146200037457600080fd5b50565b60008151905062000388816200035d565b92915050565b600060208284031215620003a757620003a662000324565b5b6000620003b78482850162000377565b91505092915050565b620003cb8162000349565b82525050565b6000602082019050620003e86000830184620003c0565b92915050565b600082825260208201905092915050565b7f4f776e61626c653a206e6577206f776e657220697320746865207a65726f206160008201527f6464726573730000000000000000000000000000000000000000000000000000602082015250565b60006200045d602683620003ee565b91506200046a82620003ff565b604082019050919050565b6000602082019050818103600083015262000490816200044e565b9050919050565b7f4f776e61626c653a2063616c6c6572206973206e6f7420746865206f776e6572600082015250565b6000620004cf602083620003ee565b9150620004dc8262000497565b602082019050919050565b600060208201905081810360008301526200050281620004c0565b9050919050565b60805160601c6106e26200052f6000396000818161010d01526101de01526106e26000f3fe608060405234801561001057600080fd5b50600436106100625760003560e01c80631c1b8772146100675780635c60da1b146100835780635fe810b3146100a1578063715018a6146100bf5780638da5cb5b146100c9578063f2fde38b146100e7575b600080fd5b610081600480360381019061007c9190610504565b610103565b005b61008b6101da565b6040516100989190610540565b60405180910390f35b6100a961027f565b6040516100b69190610540565b60405180910390f35b6100c76102a5565b005b6100d16102b9565b6040516100de9190610540565b60405180910390f35b61010160048036038101906100fc9190610504565b6102e2565b005b61010b610366565b7f000000000000000000000000000000000000000000000000000000000000000073ffffffffffffffffffffffffffffffffffffffff16633659cfe6826040518263ffffffff1660e01b81526004016101649190610540565b600060405180830381600087803b15801561017e57600080fd5b505af1158015610192573d6000803e3d6000fd5b5050505080600160006101000a81548173ffffffffffffffffffffffffffffffffffffffff021916908373ffffffffffffffffffffffffffffffffffffffff16021790555050565b60007f000000000000000000000000000000000000000000000000000000000000000073ffffffffffffffffffffffffffffffffffffffff16635c60da1b6040518163ffffffff1660e01b815260040160206040518083038186803b15801561024257600080fd5b505afa158015610256573d6000803e3d6000fd5b505050506040513d601f19601f8201168201806040525081019061027a9190610570565b905090565b600160009054906101000a900473ffffffffffffffffffffffffffffffffffffffff1681565b6102ad610366565b6102b760006103dd565b565b60008060009054906101000a900473ffffffffffffffffffffffffffffffffffffffff16905090565b6102ea610366565b600073ffffffffffffffffffffffffffffffffffffffff168173ffffffffffffffffffffffffffffffffffffffff16141561035a576040517f08c379a000000000000000000000000000000000000000000000000000000000815260040161035190610620565b60405180910390fd5b610363816103dd565b50565b3373ffffffffffffffffffffffffffffffffffffffff166103856102b9565b73ffffffffffffffffffffffffffffffffffffffff16146103db576040517f08c379a00000000000000000000000000000000000000000000000000000000081526004016103d29061068c565b60405180910390fd5b565b60008060009054906101000a900473ffffffffffffffffffffffffffffffffffffffff169050816000806101000a81548173ffffffffffffffffffffffffffffffffffffffff021916908373ffffffffffffffffffffffffffffffffffffffff1602179055508173ffffffffffffffffffffffffffffffffffffffff168173ffffffffffffffffffffffffffffffffffffffff167f8be0079c531659141344cd1fd0a4f28419497f9722a3daafe3b4186f6b6457e060405160405180910390a35050565b600080fd5b600073ffffffffffffffffffffffffffffffffffffffff82169050919050565b60006104d1826104a6565b9050919050565b6104e1816104c6565b81146104ec57600080fd5b50565b6000813590506104fe816104d8565b92915050565b60006020828403121561051a576105196104a1565b5b6000610528848285016104ef565b91505092915050565b61053a816104c6565b82525050565b60006020820190506105556000830184610531565b92915050565b60008151905061056a816104d8565b92915050565b600060208284031215610586576105856104a1565b5b60006105948482850161055b565b91505092915050565b600082825260208201905092915050565b7f4f776e61626c653a206e6577206f776e657220697320746865207a65726f206160008201527f6464726573730000000000000000000000000000000000000000000000000000602082015250565b600061060a60268361059d565b9150610615826105ae565b604082019050919050565b60006020820190508181036000830152610639816105fd565b9050919050565b7f4f776e61626c653a2063616c6c6572206973206e6f7420746865206f776e6572600082015250565b600061067660208361059d565b915061068182610640565b602082019050919050565b600060208201905081810360008301526106a581610669565b905091905056fea2646970667358221220fac70f4a2925c499b85ab56a56086e63bf68f313a420c070deb0510c9bbb536664736f6c63430008080033608060405234801561001057600080fd5b506040516109ac3803806109ac83398181016040528101906100329190610236565b6100413361005660201b60201c565b6100508161011a60201b60201c565b50610306565b60008060009054906101000a900473ffffffffffffffffffffffffffffffffffffffff169050816000806101000a81548173ffffffffffffffffffffffffffffffffffffffff021916908373ffffffffffffffffffffffffffffffffffffffff1602179055508173ffffffffffffffffffffffffffffffffffffffff168173ffffffffffffffffffffffffffffffffffffffff167f8be0079c531659141344cd1fd0a4f28419497f9722a3daafe3b4186f6b6457e060405160405180910390a35050565b61012d816101b060201b61021c1760201c565b61016c576040517f08c379a0000000000000000000000000000000000000000000000000000000008152600401610163906102e6565b60405180910390fd5b80600160006101000a81548173ffffffffffffffffffffffffffffffffffffffff021916908373ffffffffffffffffffffffffffffffffffffffff16021790555050565b6000808273ffffffffffffffffffffffffffffffffffffffff163b119050919050565b600080fd5b600073ffffffffffffffffffffffffffffffffffffffff82169050919050565b6000610203826101d8565b9050919050565b610213816101f8565b811461021e57600080fd5b50565b6000815190506102308161020a565b92915050565b60006020828403121561024c5761024b6101d3565b5b600061025a84828501610221565b91505092915050565b600082825260208201905092915050565b7f5570677261646561626c65426561636f6e3a20696d706c656d656e746174696f60008201527f6e206973206e6f74206120636f6e747261637400000000000000000000000000602082015250565b60006102d0603383610263565b91506102db82610274565b604082019050919050565b600060208201905081810360008301526102ff816102c3565b9050919050565b610697806103156000396000f3fe608060405234801561001057600080fd5b50600436106100575760003560e01c80633659cfe61461005c5780635c60da1b14610078578063715018a6146100965780638da5cb5b146100a0578063f2fde38b146100be575b600080fd5b61007660048036038101906100719190610469565b6100da565b005b610080610131565b60405161008d91906104a5565b60405180910390f35b61009e61015b565b005b6100a861016f565b6040516100b591906104a5565b60405180910390f35b6100d860048036038101906100d39190610469565b610198565b005b6100e261023f565b6100eb816102b6565b8073ffffffffffffffffffffffffffffffffffffffff167fbc7cd75a20ee27fd9adebab32041f755214dbc6bffa90cc0225b39da2e5c2d3b60405160405180910390a250565b6000600160009054906101000a900473ffffffffffffffffffffffffffffffffffffffff16905090565b61016361023f565b61016d6000610342565b565b60008060009054906101000a900473ffffffffffffffffffffffffffffffffffffffff16905090565b6101a061023f565b600073ffffffffffffffffffffffffffffffffffffffff168173ffffffffffffffffffffffffffffffffffffffff161415610210576040517f08c379a000000000000000000000000000000000000000000000000000000000815260040161020790610543565b60405180910390fd5b61021981610342565b50565b6000808273ffffffffffffffffffffffffffffffffffffffff163b119050919050565b3373ffffffffffffffffffffffffffffffffffffffff1661025e61016f565b73ffffffffffffffffffffffffffffffffffffffff16146102b4576040517f08c379a00000000000000000000000000000000000000000000000000000000081526004016102ab906105af565b60405180910390fd5b565b6102bf8161021c565b6102fe576040517f08c379a00000000000000000000000000000000000000000000000000000000081526004016102f590610641565b60405180910390fd5b80600160006101000a81548173ffffffffffffffffffffffffffffffffffffffff021916908373ffffffffffffffffffffffffffffffffffffffff16021790555050565b60008060009054906101000a900473ffffffffffffffffffffffffffffffffffffffff169050816000806101000a81548173ffffffffffffffffffffffffffffffffffffffff021916908373ffffffffffffffffffffffffffffffffffffffff1602179055508173ffffffffffffffffffffffffffffffffffffffff168173ffffffffffffffffffffffffffffffffffffffff167f8be0079c531659141344cd1fd0a4f28419497f9722a3daafe3b4186f6b6457e060405160405180910390a35050565b600080fd5b600073ffffffffffffffffffffffffffffffffffffffff82169050919050565b60006104368261040b565b9050919050565b6104468161042b565b811461045157600080fd5b50565b6000813590506104638161043d565b92915050565b60006020828403121561047f5761047e610406565b5b600061048d84828501610454565b91505092915050565b61049f8161042b565b82525050565b60006020820190506104ba6000830184610496565b92915050565b600082825260208201905092915050565b7f4f776e61626c653a206e6577206f776e657220697320746865207a65726f206160008201527f6464726573730000000000000000000000000000000000000000000000000000602082015250565b600061052d6026836104c0565b9150610538826104d1565b604082019050919050565b6000602082019050818103600083015261055c81610520565b9050919050565b7f4f776e61626c653a2063616c6c6572206973206e6f7420746865206f776e6572600082015250565b60006105996020836104c0565b91506105a482610563565b602082019050919050565b600060208201905081810360008301526105c88161058c565b9050919050565b7f5570677261646561626c65426561636f6e3a20696d706c656d656e746174696f60008201527f6e206973206e6f74206120636f6e747261637400000000000000000000000000602082015250565b600061062b6033836104c0565b9150610636826105cf565b604082019050919050565b6000602082019050818103600083015261065a8161061e565b905091905056fea264697066735822122038414a8620da5a35c6143ed1e2feb0fb11411a203ebdb95edfeb50f8e8d37d6164736f6c63430008080033",
  "linkReferences": {},
  "deployedLinkReferences": {}
}