{
  "_format": "hh-sol-artifact-1",
  "contractName": "Test",
  "sourceName": "contracts/test.sol",
  "abi": [
    {
      "inputs": [
        {
          "internalType": "bytes32",
          "name": "_hash",
          "type": "bytes32"
        }
      ],
      "name": "testmeDecode",
      "outputs": [
        {
          "components": [
            {
              "internalType": "string",
              "name": "message",
              "type": "string"
            },
            {
              "internalType": "address",
              "name": "sender",
              "type": "address"
            },
            {
              "internalType": "uint256",
              "name": "balance",
              "type": "uint256"
            }
          ],
          "internalType": "struct Test.mStruct",
          "name": "",
          "type": "tuple"
        }
      ],
      "stateMutability": "pure",
      "type": "function"
    },
    {
      "inputs": [
        {
          "internalType": "bytes32",
          "name": "_hash",
          "type": "bytes32"
        }
      ],
      "name": "testmeDecodePacked",
      "outputs": [
        {
          "components": [
            {
              "internalType": "string",
              "name": "message",
              "type": "string"
            },
            {
              "internalType": "address",
              "name": "sender",
              "type": "address"
            },
            {
              "internalType": "uint256",
              "name": "balance",
              "type": "uint256"
            }
          ],
          "internalType": "struct Test.mStruct",
          "name": "",
          "type": "tuple"
        }
      ],
      "stateMutability": "pure",
      "type": "function"
    },
    {
      "inputs": [],
      "name": "testmeEncode",
      "outputs": [
        {
          "internalType": "bytes32",
          "name": "",
          "type": "bytes32"
        }
      ],
      "stateMutability": "pure",
      "type": "function"
    },
    {
      "inputs": [],
      "name": "testmeEncodePacked",
      "outputs": [
        {
          "internalType": "bytes32",
          "name": "",
          "type": "bytes32"
        }
      ],
      "stateMutability": "pure",
      "type": "function"
    }
  ],
  "bytecode": "0x608060405234801561001057600080fd5b506109bd806100206000396000f3fe608060405234801561001057600080fd5b506004361061004c5760003560e01c80638b4bd75914610051578063ac717c901461006f578063b9cd76a21461008d578063ddbe48d5146100bd575b600080fd5b6100596100ed565b60405161006691906103db565b60405180910390f35b6100776101aa565b60405161008491906103db565b60405180910390f35b6100a760048036038101906100a29190610436565b610267565b6040516100b491906105a6565b60405180910390f35b6100d760048036038101906100d29190610436565b6102f9565b6040516100e491906105a6565b60405180910390f35b60008060405180606001604052806040518060400160405280601a81526020017f526563656976657220636c6f73696e67207369676e6174757265000000000000815250815260200173ca35b7d915458ef540ade6068dfe2f44e8fa733c73ffffffffffffffffffffffffffffffffffffffff1681526020016064815250905080600001518160200151826040015160405160200161018e9392919061066d565b6040516020818303038152906040528051906020012091505090565b60008060405180606001604052806040518060400160405280601a81526020017f526563656976657220636c6f73696e67207369676e6174757265000000000000815250815260200173ca35b7d915458ef540ade6068dfe2f44e8fa733c73ffffffffffffffffffffffffffffffffffffffff1681526020016064815250905080600001518160200151826040015160405160200161024b9392919061070e565b6040516020818303038152906040528051906020012091505090565b61026f61038b565b61027761038b565b82604051602001610288919061076d565b6040516020818303038152906040528060200190518101906102aa9190610918565b836000018460200185604001838152508373ffffffffffffffffffffffffffffffffffffffff1673ffffffffffffffffffffffffffffffffffffffff1681525083905250505080915050919050565b61030161038b565b61030961038b565b8260405160200161031a919061076d565b60405160208183030381529060405280602001905181019061033c9190610918565b836000018460200185604001838152508373ffffffffffffffffffffffffffffffffffffffff1673ffffffffffffffffffffffffffffffffffffffff1681525083905250505080915050919050565b604051806060016040528060608152602001600073ffffffffffffffffffffffffffffffffffffffff168152602001600081525090565b6000819050919050565b6103d5816103c2565b82525050565b60006020820190506103f060008301846103cc565b92915050565b6000604051905090565b600080fd5b600080fd5b610413816103c2565b811461041e57600080fd5b50565b6000813590506104308161040a565b92915050565b60006020828403121561044c5761044b610400565b5b600061045a84828501610421565b91505092915050565b600081519050919050565b600082825260208201905092915050565b60005b8381101561049d578082015181840152602081019050610482565b838111156104ac576000848401525b50505050565b6000601f19601f8301169050919050565b60006104ce82610463565b6104d8818561046e565b93506104e881856020860161047f565b6104f1816104b2565b840191505092915050565b600073ffffffffffffffffffffffffffffffffffffffff82169050919050565b6000610527826104fc565b9050919050565b6105378161051c565b82525050565b6000819050919050565b6105508161053d565b82525050565b6000606083016000830151848203600086015261057382826104c3565b9150506020830151610588602086018261052e565b50604083015161059b6040860182610547565b508091505092915050565b600060208201905081810360008301526105c08184610556565b905092915050565b600081905092915050565b60006105de82610463565b6105e881856105c8565b93506105f881856020860161047f565b80840191505092915050565b60008160601b9050919050565b600061061c82610604565b9050919050565b600061062e82610611565b9050919050565b6106466106418261051c565b610623565b82525050565b6000819050919050565b6106676106628261053d565b61064c565b82525050565b600061067982866105d3565b91506106858285610635565b6014820191506106958284610656565b602082019150819050949350505050565b600082825260208201905092915050565b60006106c282610463565b6106cc81856106a6565b93506106dc81856020860161047f565b6106e5816104b2565b840191505092915050565b6106f98161051c565b82525050565b6107088161053d565b82525050565b6000606082019050818103600083015261072881866106b7565b905061073760208301856106f0565b61074460408301846106ff565b949350505050565b6000819050919050565b610767610762826103c2565b61074c565b82525050565b60006107798284610756565b60208201915081905092915050565b600080fd5b600080fd5b7f4e487b7100000000000000000000000000000000000000000000000000000000600052604160045260246000fd5b6107ca826104b2565b810181811067ffffffffffffffff821117156107e9576107e8610792565b5b80604052505050565b60006107fc6103f6565b905061080882826107c1565b919050565b600067ffffffffffffffff82111561082857610827610792565b5b610831826104b2565b9050602081019050919050565b600061085161084c8461080d565b6107f2565b90508281526020810184848401111561086d5761086c61078d565b5b61087884828561047f565b509392505050565b600082601f83011261089557610894610788565b5b81516108a584826020860161083e565b91505092915050565b60006108b9826104fc565b9050919050565b6108c9816108ae565b81146108d457600080fd5b50565b6000815190506108e6816108c0565b92915050565b6108f58161053d565b811461090057600080fd5b50565b600081519050610912816108ec565b92915050565b60008060006060848603121561093157610930610400565b5b600084015167ffffffffffffffff81111561094f5761094e610405565b5b61095b86828701610880565b935050602061096c868287016108d7565b925050604061097d86828701610903565b915050925092509256fea264697066735822122013f9539110aff8e5c1efd098ab0c37b5a83eba7270ce2cca06199dc3af0cc89464736f6c634300080a0033",
  "linkReferences": {},
  "deployedLinkReferences": {}
}